{
    "balance_change": {
        "balanceChanges": [
            {
                "account": "0x530f5019eeedb14ebbe73ee31c47d39fc596a5e3",
                "assets": [
                    {
                        "address": "0xb99dedbde082b8be86f06449f2fc7b9fed044e15",
                        "amount": "1",
                        "iconUrl": "",
                        "isERC1155": false,
                        "isERC721": true,
                        "sign": true,
                        "tokenID": "31",
                        "value": ""
                    },
                    {
                        "address": "0xb99dedbde082b8be86f06449f2fc7b9fed044e15",
                        "amount": "1",
                        "iconUrl": "",
                        "isERC1155": false,
                        "isERC721": true,
                        "sign": true,
                        "tokenID": "32",
                        "value": ""
                    },
                    {
                        "address": "0xeeeeeeeeeeeeeeeeeeeeeeeeeeeeeeeeeeeeeeee",
                        "amount": "0.1",
                        "iconUrl": "https://assets.blocksec.com/image/1663669189317-3.png",
                        "isERC1155": false,
                        "isERC721": false,
                        "sign": false,
                        "value": "156.43800000000001092"
                    }
                ]
            },
            {
                "account": "0x0000000000000000000000000000000000000000",
                "assets": [
                    {
                        "address": "0xb99dedbde082b8be86f06449f2fc7b9fed044e15",
                        "amount": "1",
                        "iconUrl": "",
                        "isERC1155": false,
                        "isERC721": true,
                        "sign": false,
                        "tokenID": "31",
                        "value": ""
                    },
                    {
                        "address": "0xb99dedbde082b8be86f06449f2fc7b9fed044e15",
                        "amount": "1",
                        "iconUrl": "",
                        "isERC1155": false,
                        "isERC721": true,
                        "sign": false,
                        "tokenID": "32",
                        "value": ""
                    }
                ]
            },
            {
                "account": "0x0c099101d43e9094e4ae9bc2fc38f8b9875c23c5",
                "assets": [
                    {
                        "address": "0xeeeeeeeeeeeeeeeeeeeeeeeeeeeeeeeeeeeeeeee",
                        "amount": "0.1",
                        "iconUrl": "https://assets.blocksec.com/image/1663669189317-3.png",
                        "isERC1155": false,
                        "isERC721": false,
                        "sign": true,
                        "value": "156.43800000000001092"
                    }
                ]
            }
        ]
    },
    "profile": {
        "basic_info": {
            "baseFee": "36.685079357",
            "blockNumber": 16756134,
            "callData": "0x858e83b50000000000000000000000000000000000000000000000000000000000000002",
            "debugEnable": true,
            "errorInfo": "",
            "eventCount": 4,
            "feeRecipient": "0xdafea492d9c6733ae3d56b7ed1adb60692c98bc5",
            "formatValue": "0.1",
            "gasLimit": 292152,
            "gasPrice": "37.185079357",
            "gasUsed": 287171,
            "intTxnCount": 1,
            "internalRevert": false,
            "internalRevertMessage": "",
            "isContractCreation": false,
            "isFlashloan": false,
            "maxFee": "51.466756852",
            "nonce": 34,
            "overwritedBlockNumber": -1,
            "priorityFee": "0.5",
            "receiver": "0xb99dedbde082b8be86f06449f2fc7b9fed044e15",
            "revertMessage": "",
            "sender": "0x530f5019eeedb14ebbe73ee31c47d39fc596a5e3",
            "simulationEnable": true,
            "sourceTxnHash": "0xb8a7e35e46b756eca554f0feb2d12c86dcf140bc2faae2ae94fa33ec75119518",
            "status": true,
            "timestamp": "2023-03-04T16:02:35Z",
            "transactionFee": "0.010678476424029047",
            "txnHash": "0xb8a7e35e46b756eca554f0feb2d12c86dcf140bc2faae2ae94fa33ec75119518",
            "txnIndex": 165,
            "type": 2,
            "value": "100000000000000000"
        },
        "fund_flow": [
            {
                "amount": "0.1",
                "from": "0x530f5019eeedb14ebbe73ee31c47d39fc596a5e3",
                "id": 1,
                "isERC1155": false,
                "isERC721": false,
                "isReverted": false,
                "order": 1,
                "to": "0xb99dedbde082b8be86f06449f2fc7b9fed044e15",
                "token": "0xeeeeeeeeeeeeeeeeeeeeeeeeeeeeeeeeeeeeeeee"
            },
            {
                "amount": "0.1",
                "from": "0xb99dedbde082b8be86f06449f2fc7b9fed044e15",
                "id": 2,
                "isERC1155": false,
                "isERC721": false,
                "isReverted": false,
                "order": 2,
                "to": "0x0c099101d43e9094e4ae9bc2fc38f8b9875c23c5",
                "token": "0xeeeeeeeeeeeeeeeeeeeeeeeeeeeeeeeeeeeeeeee"
            },
            {
                "amount": "1",
                "from": "0x0000000000000000000000000000000000000000",
                "id": 3,
                "isERC1155": false,
                "isERC721": true,
                "isReverted": false,
                "order": 3,
                "to": "0x530f5019eeedb14ebbe73ee31c47d39fc596a5e3",
                "token": "0xb99dedbde082b8be86f06449f2fc7b9fed044e15",
                "tokenID": "31"
            },
            {
                "amount": "1",
                "from": "0x0000000000000000000000000000000000000000",
                "id": 4,
                "isERC1155": false,
                "isERC721": true,
                "isReverted": false,
                "order": 4,
                "to": "0x530f5019eeedb14ebbe73ee31c47d39fc596a5e3",
                "token": "0xb99dedbde082b8be86f06449f2fc7b9fed044e15",
                "tokenID": "32"
            }
        ],
        "token_infos": [
            {
                "address": "0xc02aaa39b223fe8d0a0e5c4f27ead9083c756cc2",
                "decimals": 18
            },
            {
                "address": "0xeeeeeeeeeeeeeeeeeeeeeeeeeeeeeeeeeeeeeeee",
                "decimals": 18
            }
        ]
    },
    "address_label": {
        "labels": [
            {
                "address": "0xb99dedbde082b8be86f06449f2fc7b9fed044e15",
                "label": "Loreum Explorers (LOREUM)"
            },
            {
                "address": "0x0000000000000000000000000000000000000001",
                "label": "Precompiled"
            },
            {
                "address": "0x0000000000000000000000000000000000000002",
                "label": "Precompiled"
            },
            {
                "address": "0x0000000000000000000000000000000000000003",
                "label": "Precompiled"
            },
            {
                "address": "0x0000000000000000000000000000000000000004",
                "label": "Precompiled"
            },
            {
                "address": "0xeeeeeeeeeeeeeeeeeeeeeeeeeeeeeeeeeeeeeeee",
                "label": "Ether"
            }
        ]
    },
    "trace": {
        "accountLabels": null,
        "dataMap": {
            "-1": {
                "invocation": {
                    "address": "0x530f5019eeedb14ebbe73ee31c47d39fc596a5e3",
                    "callData": "",
                    "decodedMethod": null,
                    "errorInfo": "",
                    "fromAddress": "",
                    "gasUsed": 0,
                    "id": -1,
                    "methodDecoded": false,
                    "operation": "",
                    "output": "",
                    "revert": false,
                    "revertMessage": "",
                    "selector": "",
                    "status": false,
                    "value": ""
                },
                "nodeType": 0
            },
            "0": {
                "invocation": {
                    "address": "0xb99dedbde082b8be86f06449f2fc7b9fed044e15",
                    "callData": "0x0000000000000000000000000000000000000000000000000000000000000002",
                    "decodedMethod": {
                        "callParams": [
                            {
                                "name": "amount",
                                "type": "uint8",
                                "value": "2"
                            }
                        ],
                        "constructorArguments": "",
                        "name": "publicMint",
                        "returnParams": [],
                        "signature": "publicMint(uint8)"
                    },
                    "errorInfo": "",
                    "fromAddress": "0x530f5019eeedb14ebbe73ee31c47d39fc596a5e3",
                    "gasUsed": 287171,
                    "id": 0,
                    "methodDecoded": true,
                    "operation": "CALL",
                    "output": "",
                    "revert": false,
                    "revertMessage": "",
                    "selector": "0x858e83b5",
                    "status": true,
                    "value": "0.1"
                },
                "nodeType": 0
            },
            "1": {
                "invocation": {
                    "address": "0x0c099101d43e9094e4ae9bc2fc38f8b9875c23c5",
                    "callData": "0x",
                    "decodedMethod": null,
                    "errorInfo": "",
                    "fromAddress": "0xb99dedbde082b8be86f06449f2fc7b9fed044e15",
                    "gasUsed": 0,
                    "id": 1,
                    "methodDecoded": false,
                    "operation": "CALL",
                    "output": "",
                    "revert": false,
                    "revertMessage": "",
                    "selector": "fallback",
                    "status": true,
                    "value": "0.1"
                },
                "nodeType": 0
            },
            "2": {
                "event": {
                    "contract": "0xb99dedbde082b8be86f06449f2fc7b9fed044e15",
                    "decodedLog": {
                        "name": "Transfer",
                        "params": [
                            {
                                "name": "from",
                                "type": "address",
                                "value": "0x0000000000000000000000000000000000000000"
                            },
                            {
                                "name": "to",
                                "type": "address",
                                "value": "0x530f5019eeedb14ebbe73ee31c47d39fc596a5e3"
                            },
                            {
                                "decimalAvailable": true,
                                "name": "tokenId",
                                "type": "uint256",
                                "value": "31"
                            }
                        ],
                        "signature": "Transfer(address,address,uint256)"
                    },
                    "id": 2,
                    "logData": "0x",
                    "logDecoded": true,
                    "operation": "EVENT",
                    "revert": false,
                    "status": true,
                    "topics": [
                        "0xddf252ad1be2c89b69c2b068fc378daa952ba7f163c4a11628f55a4df523b3ef",
                        "0x0000000000000000000000000000000000000000000000000000000000000000",
                        "0x000000000000000000000000530f5019eeedb14ebbe73ee31c47d39fc596a5e3",
                        "0x000000000000000000000000000000000000000000000000000000000000001f"
                    ]
                },
                "nodeType": 1
            },
            "3": {
                "event": {
                    "contract": "0xb99dedbde082b8be86f06449f2fc7b9fed044e15",
                    "decodedLog": {
                        "name": "NFTMinted",
                        "params": [
                            {
                                "name": "mintedBy",
                                "type": "address",
                                "value": "0x530f5019eeedb14ebbe73ee31c47d39fc596a5e3"
                            },
                            {
                                "name": "tokenId",
                                "type": "uint16",
                                "value": "31"
                            },
                            {
                                "name": "cost",
                                "type": "uint256",
                                "value": "50,000,000,000,000,000"
                            }
                        ],
                        "signature": "NFTMinted(address,uint16,uint256)"
                    },
                    "id": 3,
                    "logData": "0x00000000000000000000000000000000000000000000000000b1a2bc2ec50000",
                    "logDecoded": true,
                    "operation": "EVENT",
                    "revert": false,
                    "status": true,
                    "topics": [
                        "0x120f7643a868d0c3b39425502189762d09eb957f3c64608f1d3ba86d640f7103",
                        "0x000000000000000000000000530f5019eeedb14ebbe73ee31c47d39fc596a5e3",
                        "0x000000000000000000000000000000000000000000000000000000000000001f"
                    ]
                },
                "nodeType": 1
            },
            "4": {
                "event": {
                    "contract": "0xb99dedbde082b8be86f06449f2fc7b9fed044e15",
                    "decodedLog": {
                        "name": "Transfer",
                        "params": [
                            {
                                "name": "from",
                                "type": "address",
                                "value": "0x0000000000000000000000000000000000000000"
                            },
                            {
                                "name": "to",
                                "type": "address",
                                "value": "0x530f5019eeedb14ebbe73ee31c47d39fc596a5e3"
                            },
                            {
                                "decimalAvailable": true,
                                "name": "tokenId",
                                "type": "uint256",
                                "value": "32"
                            }
                        ],
                        "signature": "Transfer(address,address,uint256)"
                    },
                    "id": 4,
                    "logData": "0x",
                    "logDecoded": true,
                    "operation": "EVENT",
                    "revert": false,
                    "status": true,
                    "topics": [
                        "0xddf252ad1be2c89b69c2b068fc378daa952ba7f163c4a11628f55a4df523b3ef",
                        "0x0000000000000000000000000000000000000000000000000000000000000000",
                        "0x000000000000000000000000530f5019eeedb14ebbe73ee31c47d39fc596a5e3",
                        "0x0000000000000000000000000000000000000000000000000000000000000020"
                    ]
                },
                "nodeType": 1
            },
            "5": {
                "event": {
                    "contract": "0xb99dedbde082b8be86f06449f2fc7b9fed044e15",
                    "decodedLog": {
                        "name": "NFTMinted",
                        "params": [
                            {
                                "name": "mintedBy",
                                "type": "address",
                                "value": "0x530f5019eeedb14ebbe73ee31c47d39fc596a5e3"
                            },
                            {
                                "name": "tokenId",
                                "type": "uint16",
                                "value": "32"
                            },
                            {
                                "name": "cost",
                                "type": "uint256",
                                "value": "50,000,000,000,000,000"
                            }
                        ],
                        "signature": "NFTMinted(address,uint16,uint256)"
                    },
                    "id": 5,
                    "logData": "0x00000000000000000000000000000000000000000000000000b1a2bc2ec50000",
                    "logDecoded": true,
                    "operation": "EVENT",
                    "revert": false,
                    "status": true,
                    "topics": [
                        "0x120f7643a868d0c3b39425502189762d09eb957f3c64608f1d3ba86d640f7103",
                        "0x000000000000000000000000530f5019eeedb14ebbe73ee31c47d39fc596a5e3",
                        "0x0000000000000000000000000000000000000000000000000000000000000020"
                    ]
                },
                "nodeType": 1
            }
        },
        "gasFlame": [
            {
                "children": [
                    {
                        "children": [
                            {
                                "children": [],
                                "depth": 0,
                                "name": "Initial Gas",
                                "value": 21204
                            },
                            {
                                "children": [
                                    {
                                        "children": [],
                                        "depth": 1,
                                        "name": "fallback",
                                        "value": 0
                                    }
                                ],
                                "depth": 0,
                                "name": "Executed Gas",
                                "value": 268767
                            }
                        ],
                        "depth": -1,
                        "name": "Actual Gas Used",
                        "value": 287171
                    },
                    {
                        "children": [],
                        "depth": -1,
                        "name": "Refunded Gas",
                        "value": 2800
                    }
                ],
                "depth": -2,
                "name": "Total Gas",
                "value": 289971
            }
        ],
        "isConfirmed": true,
        "mainTrace": [
            {
                "children": [
                    {
                        "children": [
                            {
                                "children": [],
                                "depth": 1,
                                "id": 1,
                                "order": 1
                            },
                            {
                                "children": [],
                                "depth": 1,
                                "id": 2,
                                "order": 2
                            },
                            {
                                "children": [],
                                "depth": 1,
                                "id": 3,
                                "order": 3
                            },
                            {
                                "children": [],
                                "depth": 1,
                                "id": 4,
                                "order": 4
                            },
                            {
                                "children": [],
                                "depth": 1,
                                "id": 5,
                                "order": 5
                            }
                        ],
                        "depth": 0,
                        "id": 0,
                        "order": 0
                    }
                ],
                "depth": -1,
                "id": -1,
                "order": -1
            }
        ],
        "mainTraceNodeCount": 6,
        "parentIdMap": {
            "0": -1,
            "1": 0,
            "2": 0,
            "3": 0,
            "4": 0,
            "5": 0
        },
        "tidyTrace": [
            {
                "children": [
                    {
                        "children": [
                            {
                                "children": [],
                                "depth": 1,
                                "id": 1,
                                "order": 1
                            },
                            {
                                "children": [],
                                "depth": 1,
                                "id": 2,
                                "order": 2
                            },
                            {
                                "children": [],
                                "depth": 1,
                                "id": 3,
                                "order": 3
                            },
                            {
                                "children": [],
                                "depth": 1,
                                "id": 4,
                                "order": 4
                            },
                            {
                                "children": [],
                                "depth": 1,
                                "id": 5,
                                "order": 5
                            }
                        ],
                        "depth": 0,
                        "id": 0,
                        "order": 0
                    }
                ],
                "depth": -1,
                "id": -1,
                "order": -1
            }
        ],
        "tidyTraceNodeCount": 6
    },
    "state_change": {
        "stateChanges": [
            {
                "address": "0xb99dedbde082b8be86f06449f2fc7b9fed044e15",
                "erc": "ERC-721",
                "slots": [
                    {
                        "current": "0x0000000000000000000000000000000000000000000000000000000000000020",
                        "key": "0x0175b7a638427703f0dbe7bb9bbf987a2551717b34e79f33b5b1008d1fa01dd8",
                        "prev": "0x0000000000000000000000000000000000000000000000000000000000000000"
                    },
                    {
                        "current": "0x000000000000000000000000000000000000000000000000000000000000001f",
                        "key": "0x0175b7a638427703f0dbe7bb9bbf987a2551717b34e79f33b5b1008d1fa01dd7",
                        "prev": "0x0000000000000000000000000000000000000000000000000000000000000000"
                    },
                    {
                        "current": "0x000000000000000000000000530f5019eeedb14ebbe73ee31c47d39fc596a5e3",
                        "key": "0x071e9cfece6dd892566e0eb3e2a591eadf7d95b3a63c4bb6c30897234d67d5cc",
                        "prev": "0x0000000000000000000000000000000000000000000000000000000000000000"
                    },
                    {
                        "current": "0x0000000000000000000000000000000000000000000000000000000000000003",
                        "key": "0x9fa3ace5691e3b518f73bdcdd856471fb5839152e4d4383a70855965313a8d7e",
                        "prev": "0x0000000000000000000000000000000000000000000000000000000000000000"
                    },
                    {
                        "current": "0x0000000000000000000000000000000000000000000000000000000000000005",
                        "key": "0xcd8ca9c79c44d48ab5b191f069e70a9465ceb1d9b5e7e4746eda5688b2ac2502",
                        "prev": "0x0000000000000000000000000000000000000000000000000000000000000003"
                    },
                    {
                        "current": "0x0000000000000000000000000000000000000000000000000000000000000020",
                        "key": "0xf0b5d7f5f4997cc84db987a023d57e83b6afe3a6147bc525ca75db3c5e8fb547",
                        "prev": "0x0000000000000000000000000000000000000000000000000000000000000000"
                    },
                    {
                        "current": "0x000000000000000000000000000000000000000000000000000000000000001e",
                        "key": "0x8a69cd99a9300b6f278a7cd64177087c7a01a605a7305ab8002d8564ae00e34a",
                        "prev": "0x0000000000000000000000000000000000000000000000000000000000000000"
                    },
                    {
                        "current": "0x0000000000000000000000000000000000000000000000000000000000000004",
                        "key": "0xfcc670724b0ae51983cbcd5c39830fdf68269a01ccb79e2798b86e7d9b685906",
                        "prev": "0x0000000000000000000000000000000000000000000000000000000000000000"
                    },
                    {
                        "current": "0x0000000000000000000000000000000000000000000000000000000000000005",
                        "key": "0x63d41dff6ce1e6915b6c3bdc13553e46d14b5769cb355db1e95d195a4afa164a",
                        "prev": "0x0000000000000000000000000000000000000000000000000000000000000003"
                    },
                    {
                        "current": "0x0000000000000000000000000000000000000000000000000000000000000020",
                        "key": "0x000000000000000000000000000000000000000000000000000000000000000b",
                        "prev": "0x000000000000000000000000000000000000000000000000000000000000001e"
                    },
                    {
                        "current": "0x000000000000000000000000000000000000000000000000000000000000001f",
                        "key": "0x6f814f96c539cf9353648dbaae1432ba27e400a0f2e316a4a8c5e3ea4d93b082",
                        "prev": "0x0000000000000000000000000000000000000000000000000000000000000000"
                    },
                    {
                        "current": "0x000000000000000000000000000000000000000000000000000000000000001f",
                        "key": "0x72edfe78b2d259e5f8bedbff15cf4b63a3c5a819f9534071bf934e42aac19df6",
                        "prev": "0x0000000000000000000000000000000000000000000000000000000000000000"
                    },
                    {
                        "current": "0x000000000000000000000000530f5019eeedb14ebbe73ee31c47d39fc596a5e3",
                        "key": "0xf0566fba57f394cfd00b7b328d5cff9d096b0b4609f559321788bcbb79ff612c",
                        "prev": "0x0000000000000000000000000000000000000000000000000000000000000000"
                    }
                ],
                "storageVariables": [
                    {
                        "name": "_owners",
                        "type": "mapping(uint256 => address)",
                        "value": {
                            "pairs": [
                                {
                                    "key": "31",
                                    "value": {
                                        "current": "0x530f5019eeedb14ebbe73ee31c47d39fc596a5e3",
                                        "prev": "0x0000000000000000000000000000000000000000",
                                        "typeTag": 1
                                    }
                                },
                                {
                                    "key": "32",
                                    "value": {
                                        "current": "0x530f5019eeedb14ebbe73ee31c47d39fc596a5e3",
                                        "prev": "0x0000000000000000000000000000000000000000",
                                        "typeTag": 1
                                    }
                                }
                            ],
                            "typeTag": 4
                        }
                    },
                    {
                        "name": "_ownedTokensIndex",
                        "type": "mapping(uint256 => uint256)",
                        "value": {
                            "pairs": [
                                {
                                    "key": "31",
                                    "value": {
                                        "current": "3",
                                        "prev": "0",
                                        "typeTag": 1
                                    }
                                },
                                {
                                    "key": "32",
                                    "value": {
                                        "current": "4",
                                        "prev": "0",
                                        "typeTag": 1
                                    }
                                }
                            ],
                            "typeTag": 4
                        }
                    },
                    {
                        "name": "_balances",
                        "type": "mapping(address => uint256)",
                        "value": {
                            "pairs": [
                                {
                                    "key": "0x530f5019eeedb14ebbe73ee31c47d39fc596a5e3",
                                    "value": {
                                        "current": "5",
                                        "prev": "3",
                                        "typeTag": 1
                                    }
                                }
                            ],
                            "typeTag": 4
                        }
                    },
                    {
                        "name": "totalMinted",
                        "type": "mapping(address => uint16)",
                        "value": {
                            "pairs": [
                                {
                                    "key": "0x530f5019eeedb14ebbe73ee31c47d39fc596a5e3",
                                    "value": {
                                        "current": "5",
                                        "prev": "3",
                                        "typeTag": 1
                                    }
                                }
                            ],
                            "typeTag": 4
                        }
                    },
                    {
                        "name": "_allTokens",
                        "type": "uint256[]",
                        "value": {
                            "elemType": "uint256",
                            "elems": [
                                {
                                    "index": 30,
                                    "value": {
                                        "current": "31",
                                        "prev": "0",
                                        "typeTag": 1
                                    }
                                },
                                {
                                    "index": 31,
                                    "value": {
                                        "current": "32",
                                        "prev": "0",
                                        "typeTag": 1
                                    }
                                }
                            ],
                            "typeTag": 2
                        }
                    },
                    {
                        "name": "_ownedTokens",
                        "type": "mapping(address => mapping(uint256 => uint256))",
                        "value": {
                            "pairs": [
                                {
                                    "key": "0x530f5019eeedb14ebbe73ee31c47d39fc596a5e3",
                                    "value": {
                                        "pairs": [
                                            {
                                                "key": "3",
                                                "value": {
                                                    "current": "31",
                                                    "prev": "0",
                                                    "typeTag": 1
                                                }
                                            },
                                            {
                                                "key": "4",
                                                "value": {
                                                    "current": "32",
                                                    "prev": "0",
                                                    "typeTag": 1
                                                }
                                            }
                                        ],
                                        "typeTag": 4
                                    }
                                }
                            ],
                            "typeTag": 4
                        }
                    },
                    {
                        "name": "_allTokensIndex",
                        "type": "mapping(uint256 => uint256)",
                        "value": {
                            "pairs": [
                                {
                                    "key": "31",
                                    "value": {
                                        "current": "30",
                                        "prev": "0",
                                        "typeTag": 1
                                    }
                                },
                                {
                                    "key": "32",
                                    "value": {
                                        "current": "31",
                                        "prev": "0",
                                        "typeTag": 1
                                    }
                                }
                            ],
                            "typeTag": 4
                        }
                    }
                ]
            }
        ]
    }
}