{
    "balance_change": {
        "balanceChanges": []
    },
    "profile": {
        "basic_info": {
            "baseFee": "4.771515658",
            "blockNumber": 15687290,
            "callData": "0xc980753900000000000000000000000000000000000000000000000000000000000000800000000000000000000000000000000000000000000000000000000000000320000000000000000000000000000000000000000000000000000000000000040000000100010000000000000000000000000000000000000000000000000000000000000000000000000000000000000000000000000000000000000000000280000000000000000000000043d6990286561e7f599d19ef68dfe4b900046693040d06010304070f0b0c000a0e050902080000000000000000000000000000000000000000000000000000000000000000000000000000000000000000000000600000000000000000000000000000000000000000000000000000000000000010000000000000000000000000000000000000000000000000000000007cdf29c0000000000000000000000000000000000000000000000000000000007e02024400000000000000000000000000000000000000000000000000000000ee6b280000000000000000000000000000000000000000000000000000000000ee6b280000000000000000000000000000000000000000000000000000000000ee6b280000000000000000000000000000000000000000000000000000000000ee6b2800000000000000000000000000000000000000000000000000000000010a706dfd000000000000000000000000000000000000000000000000000000011b361eed00000000000000000000000000000000000000000000000000000001270e4a7b00000000000000000000000000000000000000000000000000000001270e4a7b000000000000000000000000000000000000000000000000000000014dc93800000000000000000000000000000000000000000000000000000000014dc9380000000000000000000000000000000000000000000000000000000006317bca000000000000000000000000000000000000000000000000000000000c570bd2000000000000000000000000000000000000000000000000000000000c570bd2000000000000000000000000000000000000000000000000000000000c570bd20000000000000000000000000000000000000000000000000000000000000000063c1d57d7e9543b1f7db66fccf546c12bd15119dc75eb70664b4f5b893df6c56656362f24ab24972f6fc00939d62358bfd9a01b1e28d75ceeaf2314a569e63b9cb33a3d251ed9f0cb58f9edb88587a85bb3ad60851452a03eb8cd90de36286a11366890281c3a2d3e93c02e63ad1014d24c7787f7d89732b818e811a7c06107f34f5f29a172e8e9fbba2d871ed32c9b70951ae61c6b4df475d3a554e95605d60ec7618ff612976b7edbee783f1f3fcc224c3f9925f22a7f84db85e00ee1ea0378000000000000000000000000000000000000000000000000000000000000000670ab8e8abd545ffd5e1ca754c73e2818c8c8d7db87844f8c0f7540d0ec5510ac1a1fa9c05698311fede8e01b31c27f99d081572d61e67a4bec454d335168b5fd69fc8b09a4428d1df20424fb38b65cd77641ea5a047d71768f689d2d9191ae5d5032ad09be37cfe11d02a5c042d3b7b4dea10b20346f1753e6114783bc42fd810629f58908fc227390fcd0d459dcbdac80c08e6c96dfc75b8d315c7b5edb7f560583fe6924a0fde4dc0a5d0c2cfa6bb0a0225236429e8f4f3345e37d6fc0c96a",
            "debugEnable": true,
            "errorInfo": "",
            "eventCount": 3,
            "feeRecipient": "0x690b9a9e9aa1c9db991c7721a92d351db4fac990",
            "formatValue": "0",
            "gasLimit": 740000,
            "gasPrice": "6.271515658",
            "gasUsed": 176423,
            "intTxnCount": 6,
            "internalRevert": false,
            "internalRevertMessage": "",
            "isContractCreation": false,
            "isFlashloan": false,
            "maxFee": "9.534736598",
            "nonce": 92296,
            "overwritedBlockNumber": -1,
            "priorityFee": "1.5",
            "receiver": "0x785433d8b06d77d68df6be63944742130a4530d1",
            "revertMessage": "",
            "sender": "0xc74ce67bfc623c803d48afc74a09a6ff6b599003",
            "simulationEnable": true,
            "sourceTxnHash": "0xb8405f31de2567f1675198d8863d4c9953a7d7f6b8b8f09fb8c1ad8130d78ff0",
            "status": true,
            "timestamp": "2022-10-06T06:31:23Z",
            "transactionFee": "0.001106439606931334",
            "txnHash": "0xb8405f31de2567f1675198d8863d4c9953a7d7f6b8b8f09fb8c1ad8130d78ff0",
            "txnIndex": 114,
            "type": 2,
            "value": "0"
        },
        "fund_flow": [],
        "token_infos": [
            {
                "address": "0xc02aaa39b223fe8d0a0e5c4f27ead9083c756cc2",
                "decimals": 18
            },
            {
                "address": "0xeeeeeeeeeeeeeeeeeeeeeeeeeeeeeeeeeeeeeeee",
                "decimals": 18
            }
        ]
    },
    "address_label": {
        "labels": [
            {
                "address": "0x0000000000000000000000000000000000000004",
                "label": "Precompiled"
            },
            {
                "address": "0xeeeeeeeeeeeeeeeeeeeeeeeeeeeeeeeeeeeeeeee",
                "label": "Ether"
            },
            {
                "address": "0x785433d8b06d77d68df6be63944742130a4530d1",
                "label": "Chainlink: Fast Gas - Gwei ACOA 1"
            },
            {
                "address": "0x0000000000000000000000000000000000000001",
                "label": "Precompiled"
            },
            {
                "address": "0x0000000000000000000000000000000000000002",
                "label": "Precompiled"
            },
            {
                "address": "0x0000000000000000000000000000000000000003",
                "label": "Precompiled"
            }
        ]
    },
    "trace": {
        "accountLabels": null,
        "dataMap": {
            "-1": {
                "invocation": {
                    "address": "0xc74ce67bfc623c803d48afc74a09a6ff6b599003",
                    "callData": "",
                    "decodedMethod": null,
                    "errorInfo": "",
                    "fromAddress": "",
                    "gasUsed": 0,
                    "id": -1,
                    "methodDecoded": false,
                    "operation": "",
                    "output": "",
                    "revert": false,
                    "revertMessage": "",
                    "selector": "",
                    "status": false,
                    "value": ""
                },
                "nodeType": 0
            },
            "0": {
                "invocation": {
                    "address": "0x785433d8b06d77d68df6be63944742130a4530d1",
                    "callData": "0x00000000000000000000000000000000000000000000000000000000000000800000000000000000000000000000000000000000000000000000000000000320000000000000000000000000000000000000000000000000000000000000040000000100010000000000000000000000000000000000000000000000000000000000000000000000000000000000000000000000000000000000000000000280000000000000000000000043d6990286561e7f599d19ef68dfe4b900046693040d06010304070f0b0c000a0e050902080000000000000000000000000000000000000000000000000000000000000000000000000000000000000000000000600000000000000000000000000000000000000000000000000000000000000010000000000000000000000000000000000000000000000000000000007cdf29c0000000000000000000000000000000000000000000000000000000007e02024400000000000000000000000000000000000000000000000000000000ee6b280000000000000000000000000000000000000000000000000000000000ee6b280000000000000000000000000000000000000000000000000000000000ee6b280000000000000000000000000000000000000000000000000000000000ee6b2800000000000000000000000000000000000000000000000000000000010a706dfd000000000000000000000000000000000000000000000000000000011b361eed00000000000000000000000000000000000000000000000000000001270e4a7b00000000000000000000000000000000000000000000000000000001270e4a7b000000000000000000000000000000000000000000000000000000014dc93800000000000000000000000000000000000000000000000000000000014dc9380000000000000000000000000000000000000000000000000000000006317bca000000000000000000000000000000000000000000000000000000000c570bd2000000000000000000000000000000000000000000000000000000000c570bd2000000000000000000000000000000000000000000000000000000000c570bd20000000000000000000000000000000000000000000000000000000000000000063c1d57d7e9543b1f7db66fccf546c12bd15119dc75eb70664b4f5b893df6c56656362f24ab24972f6fc00939d62358bfd9a01b1e28d75ceeaf2314a569e63b9cb33a3d251ed9f0cb58f9edb88587a85bb3ad60851452a03eb8cd90de36286a11366890281c3a2d3e93c02e63ad1014d24c7787f7d89732b818e811a7c06107f34f5f29a172e8e9fbba2d871ed32c9b70951ae61c6b4df475d3a554e95605d60ec7618ff612976b7edbee783f1f3fcc224c3f9925f22a7f84db85e00ee1ea0378000000000000000000000000000000000000000000000000000000000000000670ab8e8abd545ffd5e1ca754c73e2818c8c8d7db87844f8c0f7540d0ec5510ac1a1fa9c05698311fede8e01b31c27f99d081572d61e67a4bec454d335168b5fd69fc8b09a4428d1df20424fb38b65cd77641ea5a047d71768f689d2d9191ae5d5032ad09be37cfe11d02a5c042d3b7b4dea10b20346f1753e6114783bc42fd810629f58908fc227390fcd0d459dcbdac80c08e6c96dfc75b8d315c7b5edb7f560583fe6924a0fde4dc0a5d0c2cfa6bb0a0225236429e8f4f3345e37d6fc0c96a",
                    "decodedMethod": {
                        "callParams": [
                            {
                                "name": "_report",
                                "type": "bytes",
                                "value": "0x000000000000000000000043d6990286561e7f599d19ef68dfe4b900046693040d06010304070f0b0c000a0e050902080000000000000000000000000000000000000000000000000000000000000000000000000000000000000000000000600000000000000000000000000000000000000000000000000000000000000010000000000000000000000000000000000000000000000000000000007cdf29c0000000000000000000000000000000000000000000000000000000007e02024400000000000000000000000000000000000000000000000000000000ee6b280000000000000000000000000000000000000000000000000000000000ee6b280000000000000000000000000000000000000000000000000000000000ee6b280000000000000000000000000000000000000000000000000000000000ee6b2800000000000000000000000000000000000000000000000000000000010a706dfd000000000000000000000000000000000000000000000000000000011b361eed00000000000000000000000000000000000000000000000000000001270e4a7b00000000000000000000000000000000000000000000000000000001270e4a7b000000000000000000000000000000000000000000000000000000014dc93800000000000000000000000000000000000000000000000000000000014dc9380000000000000000000000000000000000000000000000000000000006317bca000000000000000000000000000000000000000000000000000000000c570bd2000000000000000000000000000000000000000000000000000000000c570bd2000000000000000000000000000000000000000000000000000000000c570bd200"
                            },
                            {
                                "name": "_rs",
                                "type": "bytes32[]",
                                "value": [
                                    "0x3c1d57d7e9543b1f7db66fccf546c12bd15119dc75eb70664b4f5b893df6c566",
                                    "0x56362f24ab24972f6fc00939d62358bfd9a01b1e28d75ceeaf2314a569e63b9c",
                                    "0xb33a3d251ed9f0cb58f9edb88587a85bb3ad60851452a03eb8cd90de36286a11",
                                    "0x366890281c3a2d3e93c02e63ad1014d24c7787f7d89732b818e811a7c06107f3",
                                    "0x4f5f29a172e8e9fbba2d871ed32c9b70951ae61c6b4df475d3a554e95605d60e",
                                    "0xc7618ff612976b7edbee783f1f3fcc224c3f9925f22a7f84db85e00ee1ea0378"
                                ]
                            },
                            {
                                "name": "_ss",
                                "type": "bytes32[]",
                                "value": [
                                    "0x70ab8e8abd545ffd5e1ca754c73e2818c8c8d7db87844f8c0f7540d0ec5510ac",
                                    "0x1a1fa9c05698311fede8e01b31c27f99d081572d61e67a4bec454d335168b5fd",
                                    "0x69fc8b09a4428d1df20424fb38b65cd77641ea5a047d71768f689d2d9191ae5d",
                                    "0x5032ad09be37cfe11d02a5c042d3b7b4dea10b20346f1753e6114783bc42fd81",
                                    "0x0629f58908fc227390fcd0d459dcbdac80c08e6c96dfc75b8d315c7b5edb7f56",
                                    "0x0583fe6924a0fde4dc0a5d0c2cfa6bb0a0225236429e8f4f3345e37d6fc0c96a"
                                ]
                            },
                            {
                                "name": "_rawVs",
                                "type": "bytes32",
                                "value": "0x0000010001000000000000000000000000000000000000000000000000000000"
                            }
                        ],
                        "constructorArguments": "",
                        "name": "transmit",
                        "returnParams": [],
                        "signature": "transmit(bytes,bytes32[],bytes32[],bytes32)"
                    },
                    "errorInfo": "",
                    "fromAddress": "0xc74ce67bfc623c803d48afc74a09a6ff6b599003",
                    "gasUsed": 176423,
                    "id": 0,
                    "methodDecoded": true,
                    "operation": "CALL",
                    "output": "",
                    "revert": false,
                    "revertMessage": "",
                    "selector": "0xc9807539",
                    "status": true,
                    "value": "0"
                },
                "nodeType": 0
            },
            "1": {
                "invocation": {
                    "address": "0x0000000000000000000000000000000000000001",
                    "callData": "0x959a8b231dc3cff14d3bf17bd8ac117b741a6ae200be18666e002613000000000000000000000000000000000000000000000000000000000000001b3c1d57d7e9543b1f7db66fccf546c12bd15119dc75eb70664b4f5b893df6c56670ab8e8abd545ffd5e1ca754c73e2818c8c8d7db87844f8c0f7540d0ec5510ac",
                    "decodedMethod": {
                        "callParams": [
                            {
                                "name": "hash",
                                "type": "bytes32",
                                "value": "0x3c9b400f959a8b231dc3cff14d3bf17bd8ac117b741a6ae200be18666e002613"
                            },
                            {
                                "name": "v",
                                "type": "uint256",
                                "value": "27"
                            },
                            {
                                "name": "r",
                                "type": "bytes32",
                                "value": "0x3c1d57d7e9543b1f7db66fccf546c12bd15119dc75eb70664b4f5b893df6c566"
                            },
                            {
                                "name": "s",
                                "type": "bytes32",
                                "value": "0x70ab8e8abd545ffd5e1ca754c73e2818c8c8d7db87844f8c0f7540d0ec5510ac"
                            }
                        ],
                        "constructorArguments": "",
                        "name": "ecrecover",
                        "returnParams": [
                            {
                                "name": "",
                                "type": "address",
                                "value": "0xd1c8b1e58c1186597d1897054b738c551ec74bd4"
                            }
                        ],
                        "signature": "ecrecover(bytes32,uint256,bytes32,bytes32)"
                    },
                    "errorInfo": "",
                    "fromAddress": "0x785433d8b06d77d68df6be63944742130a4530d1",
                    "gasUsed": 3000,
                    "id": 1,
                    "methodDecoded": true,
                    "operation": "STATICCALL",
                    "output": "0x000000000000000000000000d1c8b1e58c1186597d1897054b738c551ec74bd4",
                    "revert": false,
                    "revertMessage": "",
                    "selector": "0x3c9b400f",
                    "status": true,
                    "value": "0"
                },
                "nodeType": 0
            },
            "2": {
                "invocation": {
                    "address": "0x0000000000000000000000000000000000000001",
                    "callData": "0x959a8b231dc3cff14d3bf17bd8ac117b741a6ae200be18666e002613000000000000000000000000000000000000000000000000000000000000001b56362f24ab24972f6fc00939d62358bfd9a01b1e28d75ceeaf2314a569e63b9c1a1fa9c05698311fede8e01b31c27f99d081572d61e67a4bec454d335168b5fd",
                    "decodedMethod": {
                        "callParams": [
                            {
                                "name": "hash",
                                "type": "bytes32",
                                "value": "0x3c9b400f959a8b231dc3cff14d3bf17bd8ac117b741a6ae200be18666e002613"
                            },
                            {
                                "name": "v",
                                "type": "uint256",
                                "value": "27"
                            },
                            {
                                "name": "r",
                                "type": "bytes32",
                                "value": "0x56362f24ab24972f6fc00939d62358bfd9a01b1e28d75ceeaf2314a569e63b9c"
                            },
                            {
                                "name": "s",
                                "type": "bytes32",
                                "value": "0x1a1fa9c05698311fede8e01b31c27f99d081572d61e67a4bec454d335168b5fd"
                            }
                        ],
                        "constructorArguments": "",
                        "name": "ecrecover",
                        "returnParams": [
                            {
                                "name": "",
                                "type": "address",
                                "value": "0xccfa2e19ad78df85b203fda0044c0f5f5d2f43f8"
                            }
                        ],
                        "signature": "ecrecover(bytes32,uint256,bytes32,bytes32)"
                    },
                    "errorInfo": "",
                    "fromAddress": "0x785433d8b06d77d68df6be63944742130a4530d1",
                    "gasUsed": 3000,
                    "id": 2,
                    "methodDecoded": true,
                    "operation": "STATICCALL",
                    "output": "0x000000000000000000000000ccfa2e19ad78df85b203fda0044c0f5f5d2f43f8",
                    "revert": false,
                    "revertMessage": "",
                    "selector": "0x3c9b400f",
                    "status": true,
                    "value": "0"
                },
                "nodeType": 0
            },
            "3": {
                "invocation": {
                    "address": "0x0000000000000000000000000000000000000001",
                    "callData": "0x959a8b231dc3cff14d3bf17bd8ac117b741a6ae200be18666e002613000000000000000000000000000000000000000000000000000000000000001cb33a3d251ed9f0cb58f9edb88587a85bb3ad60851452a03eb8cd90de36286a1169fc8b09a4428d1df20424fb38b65cd77641ea5a047d71768f689d2d9191ae5d",
                    "decodedMethod": {
                        "callParams": [
                            {
                                "name": "hash",
                                "type": "bytes32",
                                "value": "0x3c9b400f959a8b231dc3cff14d3bf17bd8ac117b741a6ae200be18666e002613"
                            },
                            {
                                "name": "v",
                                "type": "uint256",
                                "value": "28"
                            },
                            {
                                "name": "r",
                                "type": "bytes32",
                                "value": "0xb33a3d251ed9f0cb58f9edb88587a85bb3ad60851452a03eb8cd90de36286a11"
                            },
                            {
                                "name": "s",
                                "type": "bytes32",
                                "value": "0x69fc8b09a4428d1df20424fb38b65cd77641ea5a047d71768f689d2d9191ae5d"
                            }
                        ],
                        "constructorArguments": "",
                        "name": "ecrecover",
                        "returnParams": [
                            {
                                "name": "",
                                "type": "address",
                                "value": "0xaf96f9250dfcf924747831072040f48aa64af73b"
                            }
                        ],
                        "signature": "ecrecover(bytes32,uint256,bytes32,bytes32)"
                    },
                    "errorInfo": "",
                    "fromAddress": "0x785433d8b06d77d68df6be63944742130a4530d1",
                    "gasUsed": 3000,
                    "id": 3,
                    "methodDecoded": true,
                    "operation": "STATICCALL",
                    "output": "0x000000000000000000000000af96f9250dfcf924747831072040f48aa64af73b",
                    "revert": false,
                    "revertMessage": "",
                    "selector": "0x3c9b400f",
                    "status": true,
                    "value": "0"
                },
                "nodeType": 0
            },
            "4": {
                "invocation": {
                    "address": "0x0000000000000000000000000000000000000001",
                    "callData": "0x959a8b231dc3cff14d3bf17bd8ac117b741a6ae200be18666e002613000000000000000000000000000000000000000000000000000000000000001b366890281c3a2d3e93c02e63ad1014d24c7787f7d89732b818e811a7c06107f35032ad09be37cfe11d02a5c042d3b7b4dea10b20346f1753e6114783bc42fd81",
                    "decodedMethod": {
                        "callParams": [
                            {
                                "name": "hash",
                                "type": "bytes32",
                                "value": "0x3c9b400f959a8b231dc3cff14d3bf17bd8ac117b741a6ae200be18666e002613"
                            },
                            {
                                "name": "v",
                                "type": "uint256",
                                "value": "27"
                            },
                            {
                                "name": "r",
                                "type": "bytes32",
                                "value": "0x366890281c3a2d3e93c02e63ad1014d24c7787f7d89732b818e811a7c06107f3"
                            },
                            {
                                "name": "s",
                                "type": "bytes32",
                                "value": "0x5032ad09be37cfe11d02a5c042d3b7b4dea10b20346f1753e6114783bc42fd81"
                            }
                        ],
                        "constructorArguments": "",
                        "name": "ecrecover",
                        "returnParams": [
                            {
                                "name": "",
                                "type": "address",
                                "value": "0x076b12d219a32613cd370ea9649a860114d3015e"
                            }
                        ],
                        "signature": "ecrecover(bytes32,uint256,bytes32,bytes32)"
                    },
                    "errorInfo": "",
                    "fromAddress": "0x785433d8b06d77d68df6be63944742130a4530d1",
                    "gasUsed": 3000,
                    "id": 4,
                    "methodDecoded": true,
                    "operation": "STATICCALL",
                    "output": "0x000000000000000000000000076b12d219a32613cd370ea9649a860114d3015e",
                    "revert": false,
                    "revertMessage": "",
                    "selector": "0x3c9b400f",
                    "status": true,
                    "value": "0"
                },
                "nodeType": 0
            },
            "5": {
                "invocation": {
                    "address": "0x0000000000000000000000000000000000000001",
                    "callData": "0x959a8b231dc3cff14d3bf17bd8ac117b741a6ae200be18666e002613000000000000000000000000000000000000000000000000000000000000001c4f5f29a172e8e9fbba2d871ed32c9b70951ae61c6b4df475d3a554e95605d60e0629f58908fc227390fcd0d459dcbdac80c08e6c96dfc75b8d315c7b5edb7f56",
                    "decodedMethod": {
                        "callParams": [
                            {
                                "name": "hash",
                                "type": "bytes32",
                                "value": "0x3c9b400f959a8b231dc3cff14d3bf17bd8ac117b741a6ae200be18666e002613"
                            },
                            {
                                "name": "v",
                                "type": "uint256",
                                "value": "28"
                            },
                            {
                                "name": "r",
                                "type": "bytes32",
                                "value": "0x4f5f29a172e8e9fbba2d871ed32c9b70951ae61c6b4df475d3a554e95605d60e"
                            },
                            {
                                "name": "s",
                                "type": "bytes32",
                                "value": "0x0629f58908fc227390fcd0d459dcbdac80c08e6c96dfc75b8d315c7b5edb7f56"
                            }
                        ],
                        "constructorArguments": "",
                        "name": "ecrecover",
                        "returnParams": [
                            {
                                "name": "",
                                "type": "address",
                                "value": "0x5ba2d2b875626901fed647411ad08009b1ee35e2"
                            }
                        ],
                        "signature": "ecrecover(bytes32,uint256,bytes32,bytes32)"
                    },
                    "errorInfo": "",
                    "fromAddress": "0x785433d8b06d77d68df6be63944742130a4530d1",
                    "gasUsed": 3000,
                    "id": 5,
                    "methodDecoded": true,
                    "operation": "STATICCALL",
                    "output": "0x0000000000000000000000005ba2d2b875626901fed647411ad08009b1ee35e2",
                    "revert": false,
                    "revertMessage": "",
                    "selector": "0x3c9b400f",
                    "status": true,
                    "value": "0"
                },
                "nodeType": 0
            },
            "6": {
                "invocation": {
                    "address": "0x0000000000000000000000000000000000000001",
                    "callData": "0x959a8b231dc3cff14d3bf17bd8ac117b741a6ae200be18666e002613000000000000000000000000000000000000000000000000000000000000001bc7618ff612976b7edbee783f1f3fcc224c3f9925f22a7f84db85e00ee1ea03780583fe6924a0fde4dc0a5d0c2cfa6bb0a0225236429e8f4f3345e37d6fc0c96a",
                    "decodedMethod": {
                        "callParams": [
                            {
                                "name": "hash",
                                "type": "bytes32",
                                "value": "0x3c9b400f959a8b231dc3cff14d3bf17bd8ac117b741a6ae200be18666e002613"
                            },
                            {
                                "name": "v",
                                "type": "uint256",
                                "value": "27"
                            },
                            {
                                "name": "r",
                                "type": "bytes32",
                                "value": "0xc7618ff612976b7edbee783f1f3fcc224c3f9925f22a7f84db85e00ee1ea0378"
                            },
                            {
                                "name": "s",
                                "type": "bytes32",
                                "value": "0x0583fe6924a0fde4dc0a5d0c2cfa6bb0a0225236429e8f4f3345e37d6fc0c96a"
                            }
                        ],
                        "constructorArguments": "",
                        "name": "ecrecover",
                        "returnParams": [
                            {
                                "name": "",
                                "type": "address",
                                "value": "0xd3b9610534994aab2777d8af6c41d1e54f2ef33f"
                            }
                        ],
                        "signature": "ecrecover(bytes32,uint256,bytes32,bytes32)"
                    },
                    "errorInfo": "",
                    "fromAddress": "0x785433d8b06d77d68df6be63944742130a4530d1",
                    "gasUsed": 3000,
                    "id": 6,
                    "methodDecoded": true,
                    "operation": "STATICCALL",
                    "output": "0x000000000000000000000000d3b9610534994aab2777d8af6c41d1e54f2ef33f",
                    "revert": false,
                    "revertMessage": "",
                    "selector": "0x3c9b400f",
                    "status": true,
                    "value": "0"
                },
                "nodeType": 0
            },
            "7": {
                "event": {
                    "contract": "0x785433d8b06d77d68df6be63944742130a4530d1",
                    "decodedLog": {
                        "name": "NewTransmission",
                        "params": [
                            {
                                "name": "aggregatorRoundId",
                                "type": "uint32",
                                "value": "29,504"
                            },
                            {
                                "name": "answer",
                                "type": "int192",
                                "value": "4,950,215,291"
                            },
                            {
                                "name": "transmitter",
                                "type": "address",
                                "value": "0xc74ce67bfc623c803d48afc74a09a6ff6b599003"
                            },
                            {
                                "name": "observations",
                                "type": "int192[]",
                                "value": [
                                    "2,095,000,000",
                                    "2,114,060,868",
                                    "4,000,000,000",
                                    "4,000,000,000",
                                    "4,000,000,000",
                                    "4,000,000,000",
                                    "4,470,107,645",
                                    "4,751,498,989",
                                    "4,950,215,291",
                                    "4,950,215,291",
                                    "5,600,000,000",
                                    "5,600,000,000",
                                    "26,600,000,000",
                                    "53,000,000,000",
                                    "53,000,000,000",
                                    "53,000,000,000"
                                ]
                            },
                            {
                                "name": "observers",
                                "type": "bytes",
                                "value": "0x0d06010304070f0b0c000a0e05090208"
                            },
                            {
                                "name": "rawReportContext",
                                "type": "bytes32",
                                "value": "0x000000000000000000000043d6990286561e7f599d19ef68dfe4b90004669304"
                            }
                        ],
                        "signature": "NewTransmission(uint32,int192,address,int192[],bytes,bytes32)"
                    },
                    "id": 7,
                    "logData": "0x00000000000000000000000000000000000000000000000000000001270e4a7b000000000000000000000000c74ce67bfc623c803d48afc74a09a6ff6b59900300000000000000000000000000000000000000000000000000000000000000a000000000000000000000000000000000000000000000000000000000000002c0000000000000000000000043d6990286561e7f599d19ef68dfe4b900046693040000000000000000000000000000000000000000000000000000000000000010000000000000000000000000000000000000000000000000000000007cdf29c0000000000000000000000000000000000000000000000000000000007e02024400000000000000000000000000000000000000000000000000000000ee6b280000000000000000000000000000000000000000000000000000000000ee6b280000000000000000000000000000000000000000000000000000000000ee6b280000000000000000000000000000000000000000000000000000000000ee6b2800000000000000000000000000000000000000000000000000000000010a706dfd000000000000000000000000000000000000000000000000000000011b361eed00000000000000000000000000000000000000000000000000000001270e4a7b00000000000000000000000000000000000000000000000000000001270e4a7b000000000000000000000000000000000000000000000000000000014dc93800000000000000000000000000000000000000000000000000000000014dc9380000000000000000000000000000000000000000000000000000000006317bca000000000000000000000000000000000000000000000000000000000c570bd2000000000000000000000000000000000000000000000000000000000c570bd2000000000000000000000000000000000000000000000000000000000c570bd20000000000000000000000000000000000000000000000000000000000000000100d06010304070f0b0c000a0e0509020800000000000000000000000000000000",
                    "logDecoded": true,
                    "operation": "EVENT",
                    "revert": false,
                    "status": true,
                    "topics": [
                        "0xf6a97944f31ea060dfde0566e4167c1a1082551e64b60ecb14d599a9d023d451",
                        "0x0000000000000000000000000000000000000000000000000000000000007340"
                    ]
                },
                "nodeType": 1
            },
            "8": {
                "event": {
                    "contract": "0x785433d8b06d77d68df6be63944742130a4530d1",
                    "decodedLog": {
                        "name": "NewRound",
                        "params": [
                            {
                                "name": "roundId",
                                "type": "uint256",
                                "value": "29,504"
                            },
                            {
                                "name": "startedBy",
                                "type": "address",
                                "value": "0x0000000000000000000000000000000000000000"
                            },
                            {
                                "name": "startedAt",
                                "type": "uint256",
                                "value": "1,665,037,883"
                            }
                        ],
                        "signature": "NewRound(uint256,address,uint256)"
                    },
                    "id": 8,
                    "logData": "0x00000000000000000000000000000000000000000000000000000000633e763b",
                    "logDecoded": true,
                    "operation": "EVENT",
                    "revert": false,
                    "status": true,
                    "topics": [
                        "0x0109fc6f55cf40689f02fbaad7af7fe7bbac8a3d2186600afc7d3e10cac60271",
                        "0x0000000000000000000000000000000000000000000000000000000000007340",
                        "0x0000000000000000000000000000000000000000000000000000000000000000"
                    ]
                },
                "nodeType": 1
            },
            "9": {
                "event": {
                    "contract": "0x785433d8b06d77d68df6be63944742130a4530d1",
                    "decodedLog": {
                        "name": "AnswerUpdated",
                        "params": [
                            {
                                "name": "current",
                                "type": "int256",
                                "value": "4,950,215,291"
                            },
                            {
                                "name": "roundId",
                                "type": "uint256",
                                "value": "29,504"
                            },
                            {
                                "name": "updatedAt",
                                "type": "uint256",
                                "value": "1,665,037,883"
                            }
                        ],
                        "signature": "AnswerUpdated(int256,uint256,uint256)"
                    },
                    "id": 9,
                    "logData": "0x00000000000000000000000000000000000000000000000000000000633e763b",
                    "logDecoded": true,
                    "operation": "EVENT",
                    "revert": false,
                    "status": true,
                    "topics": [
                        "0x0559884fd3a460db3073b7fc896cc77986f16e378210ded43186175bf646fc5f",
                        "0x00000000000000000000000000000000000000000000000000000001270e4a7b",
                        "0x0000000000000000000000000000000000000000000000000000000000007340"
                    ]
                },
                "nodeType": 1
            }
        },
        "gasFlame": [
            {
                "children": [
                    {
                        "children": [
                            {
                                "children": [],
                                "depth": 0,
                                "name": "Initial Gas",
                                "value": 31996
                            },
                            {
                                "children": [
                                    {
                                        "children": [],
                                        "depth": 1,
                                        "name": "ecrecover",
                                        "value": 3000
                                    },
                                    {
                                        "children": [],
                                        "depth": 1,
                                        "name": "ecrecover",
                                        "value": 3000
                                    },
                                    {
                                        "children": [],
                                        "depth": 1,
                                        "name": "ecrecover",
                                        "value": 3000
                                    },
                                    {
                                        "children": [],
                                        "depth": 1,
                                        "name": "ecrecover",
                                        "value": 3000
                                    },
                                    {
                                        "children": [],
                                        "depth": 1,
                                        "name": "ecrecover",
                                        "value": 3000
                                    },
                                    {
                                        "children": [],
                                        "depth": 1,
                                        "name": "ecrecover",
                                        "value": 3000
                                    }
                                ],
                                "depth": 0,
                                "name": "Executed Gas",
                                "value": 144427
                            }
                        ],
                        "depth": -1,
                        "name": "Actual Gas Used",
                        "value": 176423
                    },
                    {
                        "children": [],
                        "depth": -1,
                        "name": "Refunded Gas",
                        "value": 0
                    }
                ],
                "depth": -2,
                "name": "Total Gas",
                "value": 176423
            }
        ],
        "isConfirmed": true,
        "mainTrace": [
            {
                "children": [
                    {
                        "children": [
                            {
                                "children": [],
                                "depth": 1,
                                "id": 1,
                                "order": 1
                            },
                            {
                                "children": [],
                                "depth": 1,
                                "id": 2,
                                "order": 2
                            },
                            {
                                "children": [],
                                "depth": 1,
                                "id": 3,
                                "order": 3
                            },
                            {
                                "children": [],
                                "depth": 1,
                                "id": 4,
                                "order": 4
                            },
                            {
                                "children": [],
                                "depth": 1,
                                "id": 5,
                                "order": 5
                            },
                            {
                                "children": [],
                                "depth": 1,
                                "id": 6,
                                "order": 6
                            },
                            {
                                "children": [],
                                "depth": 1,
                                "id": 7,
                                "order": 7
                            },
                            {
                                "children": [],
                                "depth": 1,
                                "id": 8,
                                "order": 8
                            },
                            {
                                "children": [],
                                "depth": 1,
                                "id": 9,
                                "order": 9
                            }
                        ],
                        "depth": 0,
                        "id": 0,
                        "order": 0
                    }
                ],
                "depth": -1,
                "id": -1,
                "order": -1
            }
        ],
        "mainTraceNodeCount": 10,
        "parentIdMap": {
            "0": -1,
            "1": 0,
            "2": 0,
            "3": 0,
            "4": 0,
            "5": 0,
            "6": 0,
            "7": 0,
            "8": 0,
            "9": 0
        },
        "tidyTrace": [
            {
                "children": [
                    {
                        "children": [
                            {
                                "children": [],
                                "depth": 1,
                                "id": 7,
                                "order": 7
                            },
                            {
                                "children": [],
                                "depth": 1,
                                "id": 8,
                                "order": 8
                            },
                            {
                                "children": [],
                                "depth": 1,
                                "id": 9,
                                "order": 9
                            }
                        ],
                        "depth": 0,
                        "id": 0,
                        "order": 0
                    }
                ],
                "depth": -1,
                "id": -1,
                "order": -1
            }
        ],
        "tidyTraceNodeCount": 4
    },
    "state_change": {
        "stateChanges": [
            {
                "address": "0x785433d8b06d77d68df6be63944742130a4530d1",
                "erc": "",
                "slots": [
                    {
                        "current": "0x00a200a100a200a200a200a200a200a2006500a200a200a200a200a200a200a2",
                        "key": "0x0000000000000000000000000000000000000000000000000000000000000004",
                        "prev": "0x00a100a000a100a100a100a100a100a1006400a100a100a100a100a100a100a1"
                    },
                    {
                        "current": "0x000000000000000000000000000000000000000000000000326e8d93196f2401",
                        "key": "0x0000000000000000000000000000000000000000000000000000000000000009",
                        "prev": "0x0000000000000000000000000000000000000000000000002b7b465d9ae3ff01"
                    },
                    {
                        "current": "0x00000000633e763b0000000000000000000000000000000000000001270e4a7b",
                        "key": "0x0bc5c49c0ab592156812c05a03fbd411e86c69c670bdf6cfb13daaf5ef9d7cfe",
                        "prev": "0x0000000000000000000000000000000000000000000000000000000000000000"
                    },
                    {
                        "current": "0x0000000000000000734005000466930443d6990286561e7f599d19ef68dfe4b9",
                        "key": "0x000000000000000000000000000000000000000000000000000000000000002a",
                        "prev": "0x0000000000000000733f050004668d0643d6990286561e7f599d19ef68dfe4b9"
                    }
                ],
                "storageVariables": [
                    {
                        "name": "s_transmissions",
                        "type": "mapping(uint32 => struct OffchainAggregator.Transmission)",
                        "value": {
                            "pairs": [
                                {
                                    "key": "29504",
                                    "value": {
                                        "fields": [
                                            {
                                                "name": "answer",
                                                "type": "int192",
                                                "value": {
                                                    "current": "4950215291",
                                                    "prev": "0",
                                                    "typeTag": 1
                                                }
                                            },
                                            {
                                                "name": "timestamp",
                                                "type": "uint64",
                                                "value": {
                                                    "current": "1665037883",
                                                    "prev": "0",
                                                    "typeTag": 1
                                                }
                                            }
                                        ],
                                        "typeTag": 3
                                    }
                                }
                            ],
                            "typeTag": 4
                        }
                    },
                    {
                        "name": "s_hotVars",
                        "type": "struct OffchainAggregator.HotVars",
                        "value": {
                            "fields": [
                                {
                                    "name": "latestConfigDigest",
                                    "type": "bytes16",
                                    "value": {
                                        "current": "0x43d6990286561e7f599d19ef68dfe4b9",
                                        "prev": "0x43d6990286561e7f599d19ef68dfe4b9",
                                        "typeTag": 1
                                    }
                                },
                                {
                                    "name": "latestEpochAndRound",
                                    "type": "uint40",
                                    "value": {
                                        "current": "73831172",
                                        "prev": "73829638",
                                        "typeTag": 1
                                    }
                                },
                                {
                                    "name": "threshold",
                                    "type": "uint8",
                                    "value": {
                                        "current": "5",
                                        "prev": "5",
                                        "typeTag": 1
                                    }
                                },
                                {
                                    "name": "latestAggregatorRoundId",
                                    "type": "uint32",
                                    "value": {
                                        "current": "29504",
                                        "prev": "29503",
                                        "typeTag": 1
                                    }
                                }
                            ],
                            "typeTag": 3
                        }
                    },
                    {
                        "name": "s_oracleObservationsCounts",
                        "type": "uint16[31]",
                        "value": {
                            "elemType": "uint16",
                            "elems": [
                                {
                                    "index": 0,
                                    "value": {
                                        "current": "162",
                                        "prev": "161",
                                        "typeTag": 1
                                    }
                                },
                                {
                                    "index": 1,
                                    "value": {
                                        "current": "162",
                                        "prev": "161",
                                        "typeTag": 1
                                    }
                                },
                                {
                                    "index": 2,
                                    "value": {
                                        "current": "162",
                                        "prev": "161",
                                        "typeTag": 1
                                    }
                                },
                                {
                                    "index": 3,
                                    "value": {
                                        "current": "162",
                                        "prev": "161",
                                        "typeTag": 1
                                    }
                                },
                                {
                                    "index": 4,
                                    "value": {
                                        "current": "162",
                                        "prev": "161",
                                        "typeTag": 1
                                    }
                                },
                                {
                                    "index": 5,
                                    "value": {
                                        "current": "162",
                                        "prev": "161",
                                        "typeTag": 1
                                    }
                                },
                                {
                                    "index": 6,
                                    "value": {
                                        "current": "162",
                                        "prev": "161",
                                        "typeTag": 1
                                    }
                                },
                                {
                                    "index": 7,
                                    "value": {
                                        "current": "101",
                                        "prev": "100",
                                        "typeTag": 1
                                    }
                                },
                                {
                                    "index": 8,
                                    "value": {
                                        "current": "162",
                                        "prev": "161",
                                        "typeTag": 1
                                    }
                                },
                                {
                                    "index": 9,
                                    "value": {
                                        "current": "162",
                                        "prev": "161",
                                        "typeTag": 1
                                    }
                                },
                                {
                                    "index": 10,
                                    "value": {
                                        "current": "162",
                                        "prev": "161",
                                        "typeTag": 1
                                    }
                                },
                                {
                                    "index": 11,
                                    "value": {
                                        "current": "162",
                                        "prev": "161",
                                        "typeTag": 1
                                    }
                                },
                                {
                                    "index": 12,
                                    "value": {
                                        "current": "162",
                                        "prev": "161",
                                        "typeTag": 1
                                    }
                                },
                                {
                                    "index": 13,
                                    "value": {
                                        "current": "162",
                                        "prev": "161",
                                        "typeTag": 1
                                    }
                                },
                                {
                                    "index": 14,
                                    "value": {
                                        "current": "161",
                                        "prev": "160",
                                        "typeTag": 1
                                    }
                                }
                            ],
                            "typeTag": 2
                        }
                    }
                ]
            }
        ]
    }
}