{
    "balance_change": {
        "balanceChanges": [
            {
                "account": "0x52ef4ec7492ca556956bbfc3f33db4dcff46e352",
                "assets": [
                    {
                        "address": "0xa0b73e1ff0b80914ab6fe0444e65848c4c34450b",
                        "amount": "233.88489026",
                        "iconUrl": "https://assets.blocksec.com/icon/c63eb011a529b5a138fe837b28152548f9dd51dd5dac5c193d96379dd6e9d02f.png",
                        "isERC1155": false,
                        "isERC721": false,
                        "sign": true,
                        "value": "100.1168228"
                    },
                    {
                        "address": "0xeeeeeeeeeeeeeeeeeeeeeeeeeeeeeeeeeeeeeeee",
                        "amount": "0.035",
                        "iconUrl": "https://assets.blocksec.com/image/1663669189317-3.png",
                        "isERC1155": false,
                        "isERC721": false,
                        "sign": false,
                        "value": "97.1677"
                    }
                ]
            },
            {
                "account": "0x9ef7e917fb41cc02f78a5c99b42f497ed8979350",
                "assets": [
                    {
                        "address": "0xc02aaa39b223fe8d0a0e5c4f27ead9083c756cc2",
                        "amount": "0.035",
                        "iconUrl": "https://assets.blocksec.com/icon/f1cb2d02c471d545bbc7722daf3277fd852d98e63d118771af7047bd8256c516.png",
                        "isERC1155": false,
                        "isERC721": false,
                        "sign": true,
                        "value": "97.1677"
                    },
                    {
                        "address": "0xa0b73e1ff0b80914ab6fe0444e65848c4c34450b",
                        "amount": "233.88489026",
                        "iconUrl": "https://assets.blocksec.com/icon/c63eb011a529b5a138fe837b28152548f9dd51dd5dac5c193d96379dd6e9d02f.png",
                        "isERC1155": false,
                        "isERC721": false,
                        "sign": false,
                        "value": "100.1168228"
                    }
                ]
            },
            {
                "account": "0xc02aaa39b223fe8d0a0e5c4f27ead9083c756cc2",
                "assets": [
                    {
                        "address": "0xeeeeeeeeeeeeeeeeeeeeeeeeeeeeeeeeeeeeeeee",
                        "amount": "0.035",
                        "iconUrl": "https://assets.blocksec.com/image/1663669189317-3.png",
                        "isERC1155": false,
                        "isERC721": false,
                        "sign": true,
                        "value": "97.1677"
                    },
                    {
                        "address": "0xc02aaa39b223fe8d0a0e5c4f27ead9083c756cc2",
                        "amount": "0.035",
                        "iconUrl": "https://assets.blocksec.com/icon/f1cb2d02c471d545bbc7722daf3277fd852d98e63d118771af7047bd8256c516.png",
                        "isERC1155": false,
                        "isERC721": false,
                        "sign": false,
                        "value": "97.1677"
                    }
                ]
            }
        ]
    },
    "profile": {
        "basic_info": {
            "baseFee": "32.429275443",
            "blockNumber": 14284839,
            "callData": "0x7ff36ab5000000000000000000000000000000000000000000000000000000056b179ebb000000000000000000000000000000000000000000000000000000000000008000000000000000000000000052ef4ec7492ca556956bbfc3f33db4dcff46e35200000000000000000000000000000000000000000000000000000000621ac3060000000000000000000000000000000000000000000000000000000000000002000000000000000000000000c02aaa39b223fe8d0a0e5c4f27ead9083c756cc2000000000000000000000000a0b73e1ff0b80914ab6fe0444e65848c4c34450b",
            "debugEnable": true,
            "errorInfo": "",
            "eventCount": 5,
            "feeRecipient": "0xea674fdde714fd979de3edf0f56aa9716b898ec8",
            "formatValue": "0.035",
            "gasLimit": 157766,
            "gasPrice": "38",
            "gasUsed": 112386,
            "intTxnCount": 8,
            "internalRevert": false,
            "internalRevertMessage": "",
            "isContractCreation": false,
            "isFlashloan": false,
            "maxFee": "",
            "nonce": 2,
            "overwritedBlockNumber": -1,
            "priorityFee": "",
            "receiver": "0xceb90e4c17d626be0facd78b79c9c87d7ca181b3",
            "revertMessage": "",
            "sender": "0x52ef4ec7492ca556956bbfc3f33db4dcff46e352",
            "simulationEnable": true,
            "sourceTxnHash": "0xb8f6f5808fb575f9057cd69296bdcfc5d98f505cfd9b16668b52a5a323c3356f",
            "status": true,
            "timestamp": "2022-02-26T23:57:35Z",
            "transactionFee": "0.004270668",
            "txnHash": "0xb8f6f5808fb575f9057cd69296bdcfc5d98f505cfd9b16668b52a5a323c3356f",
            "txnIndex": 18,
            "type": 0,
            "value": "35000000000000000"
        },
        "fund_flow": [
            {
                "amount": "0.035",
                "from": "0x52ef4ec7492ca556956bbfc3f33db4dcff46e352",
                "id": 1,
                "isERC1155": false,
                "isERC721": false,
                "isReverted": false,
                "order": 1,
                "to": "0xceb90e4c17d626be0facd78b79c9c87d7ca181b3",
                "token": "0xeeeeeeeeeeeeeeeeeeeeeeeeeeeeeeeeeeeeeeee"
            },
            {
                "amount": "0.035",
                "from": "0xceb90e4c17d626be0facd78b79c9c87d7ca181b3",
                "id": 2,
                "isERC1155": false,
                "isERC721": false,
                "isReverted": false,
                "order": 2,
                "to": "0xc02aaa39b223fe8d0a0e5c4f27ead9083c756cc2",
                "token": "0xeeeeeeeeeeeeeeeeeeeeeeeeeeeeeeeeeeeeeeee"
            },
            {
                "amount": "0.035",
                "from": "0xc02aaa39b223fe8d0a0e5c4f27ead9083c756cc2",
                "id": 3,
                "isERC1155": false,
                "isERC721": false,
                "isReverted": false,
                "order": 3,
                "to": "0xceb90e4c17d626be0facd78b79c9c87d7ca181b3",
                "token": "0xc02aaa39b223fe8d0a0e5c4f27ead9083c756cc2"
            },
            {
                "amount": "0.035",
                "from": "0xceb90e4c17d626be0facd78b79c9c87d7ca181b3",
                "id": 4,
                "isERC1155": false,
                "isERC721": false,
                "isReverted": false,
                "order": 4,
                "to": "0x9ef7e917fb41cc02f78a5c99b42f497ed8979350",
                "token": "0xc02aaa39b223fe8d0a0e5c4f27ead9083c756cc2"
            },
            {
                "amount": "233.88489026",
                "from": "0x9ef7e917fb41cc02f78a5c99b42f497ed8979350",
                "id": 5,
                "isERC1155": false,
                "isERC721": false,
                "isReverted": false,
                "order": 5,
                "to": "0x52ef4ec7492ca556956bbfc3f33db4dcff46e352",
                "token": "0xa0b73e1ff0b80914ab6fe0444e65848c4c34450b"
            }
        ],
        "token_infos": [
            {
                "address": "0xa0b73e1ff0b80914ab6fe0444e65848c4c34450b",
                "decimals": 8
            },
            {
                "address": "0xc02aaa39b223fe8d0a0e5c4f27ead9083c756cc2",
                "decimals": 18
            },
            {
                "address": "0xeeeeeeeeeeeeeeeeeeeeeeeeeeeeeeeeeeeeeeee",
                "decimals": 18
            }
        ]
    },
    "address_label": {
        "labels": [
            {
                "address": "0x0000000000000000000000000000000000000003",
                "label": "Precompiled"
            },
            {
                "address": "0x0000000000000000000000000000000000000004",
                "label": "Precompiled"
            },
            {
                "address": "0xeeeeeeeeeeeeeeeeeeeeeeeeeeeeeeeeeeeeeeee",
                "label": "Ether"
            },
            {
                "address": "0xc02aaa39b223fe8d0a0e5c4f27ead9083c756cc2",
                "label": "Wrapped Ether (WETH)"
            },
            {
                "address": "0x0000000000000000000000000000000000000001",
                "label": "Precompiled"
            },
            {
                "address": "0xa0b73e1ff0b80914ab6fe0444e65848c4c34450b",
                "label": "Cronos Coin: CRO Token"
            },
            {
                "address": "0x0000000000000000000000000000000000000002",
                "label": "Precompiled"
            },
            {
                "address": "0x9deb29c9a4c7a88a3c0257393b7f3335338d9a9d",
                "label": "CroDefiSwapFactory"
            },
            {
                "address": "0x9ef7e917fb41cc02f78a5c99b42f497ed8979350",
                "label": "CRO Defi Swap (CRO-SWAP)"
            },
            {
                "address": "0xceb90e4c17d626be0facd78b79c9c87d7ca181b3",
                "label": "Crypto.com: DeFi Swap Router 2"
            }
        ]
    },
    "trace": {
        "accountLabels": null,
        "dataMap": {
            "-1": {
                "invocation": {
                    "address": "0x52ef4ec7492ca556956bbfc3f33db4dcff46e352",
                    "callData": "",
                    "decodedMethod": null,
                    "errorInfo": "",
                    "fromAddress": "",
                    "gasUsed": 0,
                    "id": -1,
                    "methodDecoded": false,
                    "operation": "",
                    "output": "",
                    "revert": false,
                    "revertMessage": "",
                    "selector": "",
                    "status": false,
                    "value": ""
                },
                "nodeType": 0
            },
            "0": {
                "invocation": {
                    "address": "0xceb90e4c17d626be0facd78b79c9c87d7ca181b3",
                    "callData": "0x000000000000000000000000000000000000000000000000000000056b179ebb000000000000000000000000000000000000000000000000000000000000008000000000000000000000000052ef4ec7492ca556956bbfc3f33db4dcff46e35200000000000000000000000000000000000000000000000000000000621ac3060000000000000000000000000000000000000000000000000000000000000002000000000000000000000000c02aaa39b223fe8d0a0e5c4f27ead9083c756cc2000000000000000000000000a0b73e1ff0b80914ab6fe0444e65848c4c34450b",
                    "decodedMethod": {
                        "callParams": [
                            {
                                "name": "amountOutMin",
                                "type": "uint256",
                                "value": "23,271,546,555"
                            },
                            {
                                "name": "path",
                                "type": "address[]",
                                "value": [
                                    "0xc02aaa39b223fe8d0a0e5c4f27ead9083c756cc2",
                                    "0xa0b73e1ff0b80914ab6fe0444e65848c4c34450b"
                                ]
                            },
                            {
                                "name": "to",
                                "type": "address",
                                "value": "0x52ef4ec7492ca556956bbfc3f33db4dcff46e352"
                            },
                            {
                                "name": "deadline",
                                "type": "uint256",
                                "value": "1,645,921,030"
                            }
                        ],
                        "constructorArguments": "",
                        "name": "swapExactETHForTokens",
                        "returnParams": [
                            {
                                "name": "amounts",
                                "type": "uint256[]",
                                "value": [
                                    "35,000,000,000,000,000",
                                    "23,388,489,026"
                                ]
                            }
                        ],
                        "signature": "swapExactETHForTokens(uint256,address[],address,uint256)"
                    },
                    "errorInfo": "",
                    "fromAddress": "0x52ef4ec7492ca556956bbfc3f33db4dcff46e352",
                    "gasUsed": 112386,
                    "id": 0,
                    "methodDecoded": true,
                    "operation": "CALL",
                    "output": "0x00000000000000000000000000000000000000000000000000000000000000200000000000000000000000000000000000000000000000000000000000000002000000000000000000000000000000000000000000000000007c5850872380000000000000000000000000000000000000000000000000000000000572100542",
                    "revert": false,
                    "revertMessage": "",
                    "selector": "0x7ff36ab5",
                    "status": true,
                    "value": "0.035"
                },
                "nodeType": 0
            },
            "1": {
                "invocation": {
                    "address": "0x9ef7e917fb41cc02f78a5c99b42f497ed8979350",
                    "callData": "0x",
                    "decodedMethod": {
                        "callParams": [],
                        "constructorArguments": "",
                        "name": "getReserves",
                        "returnParams": [
                            {
                                "name": "_reserve0",
                                "type": "uint112",
                                "value": "1,362,971,641,189,219"
                            },
                            {
                                "name": "_reserve1",
                                "type": "uint112",
                                "value": "2,033,482,334,975,143,825,925"
                            },
                            {
                                "name": "_blockTimestampLast",
                                "type": "uint32",
                                "value": "1,645,918,309"
                            }
                        ],
                        "signature": "getReserves()"
                    },
                    "errorInfo": "",
                    "fromAddress": "0xceb90e4c17d626be0facd78b79c9c87d7ca181b3",
                    "gasUsed": 2504,
                    "id": 1,
                    "methodDecoded": true,
                    "operation": "STATICCALL",
                    "output": "0x0000000000000000000000000000000000000000000000000004d79d9083136300000000000000000000000000000000000000000000006e3c3c81cf0955d20500000000000000000000000000000000000000000000000000000000621ab865",
                    "revert": false,
                    "revertMessage": "",
                    "selector": "0x0902f1ac",
                    "status": true,
                    "value": "0"
                },
                "nodeType": 0
            },
            "10": {
                "invocation": {
                    "address": "0xc02aaa39b223fe8d0a0e5c4f27ead9083c756cc2",
                    "callData": "0x0000000000000000000000009ef7e917fb41cc02f78a5c99b42f497ed8979350",
                    "decodedMethod": {
                        "callParams": [
                            {
                                "name": "",
                                "type": "address",
                                "value": "0x9ef7e917fb41cc02f78a5c99b42f497ed8979350"
                            }
                        ],
                        "constructorArguments": "",
                        "name": "balanceOf",
                        "returnParams": [
                            {
                                "decimalAvailable": true,
                                "name": "",
                                "type": "uint256",
                                "value": "2,033,517,334,975,143,825,925"
                            }
                        ],
                        "signature": "balanceOf(address)"
                    },
                    "errorInfo": "",
                    "fromAddress": "0x9ef7e917fb41cc02f78a5c99b42f497ed8979350",
                    "gasUsed": 534,
                    "id": 10,
                    "methodDecoded": true,
                    "operation": "STATICCALL",
                    "output": "0x00000000000000000000000000000000000000000000006e3cb8da1f90795205",
                    "revert": false,
                    "revertMessage": "",
                    "selector": "0x70a08231",
                    "status": true,
                    "value": "0"
                },
                "nodeType": 0
            },
            "11": {
                "invocation": {
                    "address": "0x9deb29c9a4c7a88a3c0257393b7f3335338d9a9d",
                    "callData": "0x",
                    "decodedMethod": {
                        "callParams": [],
                        "constructorArguments": "",
                        "name": "totalFeeBasisPoint",
                        "returnParams": [
                            {
                                "name": "",
                                "type": "uint256",
                                "value": "30"
                            }
                        ],
                        "signature": "totalFeeBasisPoint()"
                    },
                    "errorInfo": "",
                    "fromAddress": "0x9ef7e917fb41cc02f78a5c99b42f497ed8979350",
                    "gasUsed": 2342,
                    "id": 11,
                    "methodDecoded": true,
                    "operation": "STATICCALL",
                    "output": "0x000000000000000000000000000000000000000000000000000000000000001e",
                    "revert": false,
                    "revertMessage": "",
                    "selector": "0xe380f728",
                    "status": true,
                    "value": "0"
                },
                "nodeType": 0
            },
            "12": {
                "event": {
                    "contract": "0x9ef7e917fb41cc02f78a5c99b42f497ed8979350",
                    "decodedLog": {
                        "name": "Sync",
                        "params": [
                            {
                                "name": "reserve0",
                                "type": "uint112",
                                "value": "1,362,948,252,700,193"
                            },
                            {
                                "name": "reserve1",
                                "type": "uint112",
                                "value": "2,033,517,334,975,143,825,925"
                            }
                        ],
                        "signature": "Sync(uint112,uint112)"
                    },
                    "id": 12,
                    "logData": "0x0000000000000000000000000000000000000000000000000004d7981e730e2100000000000000000000000000000000000000000000006e3cb8da1f90795205",
                    "logDecoded": true,
                    "operation": "EVENT",
                    "revert": false,
                    "status": true,
                    "topics": [
                        "0x1c411e9a96e071241c2f21f7726b17ae89e3cab4c78be50e062b03a9fffbbad1"
                    ]
                },
                "nodeType": 1
            },
            "13": {
                "event": {
                    "contract": "0x9ef7e917fb41cc02f78a5c99b42f497ed8979350",
                    "decodedLog": {
                        "name": "Swap",
                        "params": [
                            {
                                "name": "sender",
                                "type": "address",
                                "value": "0xceb90e4c17d626be0facd78b79c9c87d7ca181b3"
                            },
                            {
                                "name": "to",
                                "type": "address",
                                "value": "0x52ef4ec7492ca556956bbfc3f33db4dcff46e352"
                            },
                            {
                                "name": "amount0In",
                                "type": "uint256",
                                "value": "0"
                            },
                            {
                                "name": "amount1In",
                                "type": "uint256",
                                "value": "35,000,000,000,000,000"
                            },
                            {
                                "name": "amount0Out",
                                "type": "uint256",
                                "value": "23,388,489,026"
                            },
                            {
                                "name": "amount1Out",
                                "type": "uint256",
                                "value": "0"
                            }
                        ],
                        "signature": "Swap(address,uint256,uint256,uint256,uint256,address)"
                    },
                    "id": 13,
                    "logData": "0x0000000000000000000000000000000000000000000000000000000000000000000000000000000000000000000000000000000000000000007c58508723800000000000000000000000000000000000000000000000000000000005721005420000000000000000000000000000000000000000000000000000000000000000",
                    "logDecoded": true,
                    "operation": "EVENT",
                    "revert": false,
                    "status": true,
                    "topics": [
                        "0xd78ad95fa46c994b6551d0da85fc275fe613ce37657fb8d5e3d130840159d822",
                        "0x000000000000000000000000ceb90e4c17d626be0facd78b79c9c87d7ca181b3",
                        "0x00000000000000000000000052ef4ec7492ca556956bbfc3f33db4dcff46e352"
                    ]
                },
                "nodeType": 1
            },
            "2": {
                "invocation": {
                    "address": "0xc02aaa39b223fe8d0a0e5c4f27ead9083c756cc2",
                    "callData": "0x",
                    "decodedMethod": {
                        "callParams": [],
                        "constructorArguments": "",
                        "name": "deposit",
                        "returnParams": [],
                        "signature": "deposit()"
                    },
                    "errorInfo": "",
                    "fromAddress": "0xceb90e4c17d626be0facd78b79c9c87d7ca181b3",
                    "gasUsed": 23974,
                    "id": 2,
                    "methodDecoded": true,
                    "operation": "CALL",
                    "output": "",
                    "revert": false,
                    "revertMessage": "",
                    "selector": "0xd0e30db0",
                    "status": true,
                    "value": "0.035"
                },
                "nodeType": 0
            },
            "3": {
                "event": {
                    "contract": "0xc02aaa39b223fe8d0a0e5c4f27ead9083c756cc2",
                    "decodedLog": {
                        "name": "Deposit",
                        "params": [
                            {
                                "name": "dst",
                                "type": "address",
                                "value": "0xceb90e4c17d626be0facd78b79c9c87d7ca181b3"
                            },
                            {
                                "name": "wad",
                                "type": "uint256",
                                "value": "35,000,000,000,000,000"
                            }
                        ],
                        "signature": "Deposit(address,uint256)"
                    },
                    "id": 3,
                    "logData": "0x000000000000000000000000000000000000000000000000007c585087238000",
                    "logDecoded": true,
                    "operation": "EVENT",
                    "revert": false,
                    "status": true,
                    "topics": [
                        "0xe1fffcc4923d04b559f4d29a8bfc6cda04eb5b0d3c460751c2402c5c5cc9109c",
                        "0x000000000000000000000000ceb90e4c17d626be0facd78b79c9c87d7ca181b3"
                    ]
                },
                "nodeType": 1
            },
            "4": {
                "invocation": {
                    "address": "0xc02aaa39b223fe8d0a0e5c4f27ead9083c756cc2",
                    "callData": "0x0000000000000000000000009ef7e917fb41cc02f78a5c99b42f497ed8979350000000000000000000000000000000000000000000000000007c585087238000",
                    "decodedMethod": {
                        "callParams": [
                            {
                                "name": "dst",
                                "type": "address",
                                "value": "0x9ef7e917fb41cc02f78a5c99b42f497ed8979350"
                            },
                            {
                                "decimalAvailable": true,
                                "name": "wad",
                                "type": "uint256",
                                "value": "35,000,000,000,000,000"
                            }
                        ],
                        "constructorArguments": "",
                        "name": "transfer",
                        "returnParams": [
                            {
                                "name": "",
                                "type": "bool",
                                "value": true
                            }
                        ],
                        "signature": "transfer(address,uint256)"
                    },
                    "errorInfo": "",
                    "fromAddress": "0xceb90e4c17d626be0facd78b79c9c87d7ca181b3",
                    "gasUsed": 8062,
                    "id": 4,
                    "methodDecoded": true,
                    "operation": "CALL",
                    "output": "0x0000000000000000000000000000000000000000000000000000000000000001",
                    "revert": false,
                    "revertMessage": "",
                    "selector": "0xa9059cbb",
                    "status": true,
                    "value": "0"
                },
                "nodeType": 0
            },
            "5": {
                "event": {
                    "contract": "0xc02aaa39b223fe8d0a0e5c4f27ead9083c756cc2",
                    "decodedLog": {
                        "name": "Transfer",
                        "params": [
                            {
                                "name": "src",
                                "type": "address",
                                "value": "0xceb90e4c17d626be0facd78b79c9c87d7ca181b3"
                            },
                            {
                                "name": "dst",
                                "type": "address",
                                "value": "0x9ef7e917fb41cc02f78a5c99b42f497ed8979350"
                            },
                            {
                                "decimalAvailable": true,
                                "name": "wad",
                                "type": "uint256",
                                "value": "35,000,000,000,000,000"
                            }
                        ],
                        "signature": "Transfer(address,address,uint256)"
                    },
                    "id": 5,
                    "logData": "0x000000000000000000000000000000000000000000000000007c585087238000",
                    "logDecoded": true,
                    "operation": "EVENT",
                    "revert": false,
                    "status": true,
                    "topics": [
                        "0xddf252ad1be2c89b69c2b068fc378daa952ba7f163c4a11628f55a4df523b3ef",
                        "0x000000000000000000000000ceb90e4c17d626be0facd78b79c9c87d7ca181b3",
                        "0x0000000000000000000000009ef7e917fb41cc02f78a5c99b42f497ed8979350"
                    ]
                },
                "nodeType": 1
            },
            "6": {
                "invocation": {
                    "address": "0x9ef7e917fb41cc02f78a5c99b42f497ed8979350",
                    "callData": "0x0000000000000000000000000000000000000000000000000000000572100542000000000000000000000000000000000000000000000000000000000000000000000000000000000000000052ef4ec7492ca556956bbfc3f33db4dcff46e35200000000000000000000000000000000000000000000000000000000000000800000000000000000000000000000000000000000000000000000000000000000",
                    "decodedMethod": {
                        "callParams": [
                            {
                                "name": "amount0Out",
                                "type": "uint256",
                                "value": "23,388,489,026"
                            },
                            {
                                "name": "amount1Out",
                                "type": "uint256",
                                "value": "0"
                            },
                            {
                                "name": "to",
                                "type": "address",
                                "value": "0x52ef4ec7492ca556956bbfc3f33db4dcff46e352"
                            },
                            {
                                "name": "data",
                                "type": "bytes",
                                "value": "0x"
                            }
                        ],
                        "constructorArguments": "",
                        "name": "swap",
                        "returnParams": [],
                        "signature": "swap(uint256,uint256,address,bytes)"
                    },
                    "errorInfo": "",
                    "fromAddress": "0xceb90e4c17d626be0facd78b79c9c87d7ca181b3",
                    "gasUsed": 58469,
                    "id": 6,
                    "methodDecoded": true,
                    "operation": "CALL",
                    "output": "",
                    "revert": false,
                    "revertMessage": "",
                    "selector": "0x022c0d9f",
                    "status": true,
                    "value": "0"
                },
                "nodeType": 0
            },
            "7": {
                "invocation": {
                    "address": "0xa0b73e1ff0b80914ab6fe0444e65848c4c34450b",
                    "callData": "0x00000000000000000000000052ef4ec7492ca556956bbfc3f33db4dcff46e3520000000000000000000000000000000000000000000000000000000572100542",
                    "decodedMethod": {
                        "callParams": [
                            {
                                "name": "_to",
                                "type": "address",
                                "value": "0x52ef4ec7492ca556956bbfc3f33db4dcff46e352"
                            },
                            {
                                "decimalAvailable": true,
                                "name": "_value",
                                "type": "uint256",
                                "value": "23,388,489,026"
                            }
                        ],
                        "constructorArguments": "",
                        "name": "transfer",
                        "returnParams": [
                            {
                                "name": "success",
                                "type": "bool",
                                "value": true
                            }
                        ],
                        "signature": "transfer(address,uint256)"
                    },
                    "errorInfo": "",
                    "fromAddress": "0x9ef7e917fb41cc02f78a5c99b42f497ed8979350",
                    "gasUsed": 15829,
                    "id": 7,
                    "methodDecoded": true,
                    "operation": "CALL",
                    "output": "0x0000000000000000000000000000000000000000000000000000000000000001",
                    "revert": false,
                    "revertMessage": "",
                    "selector": "0xa9059cbb",
                    "status": true,
                    "value": "0"
                },
                "nodeType": 0
            },
            "8": {
                "event": {
                    "contract": "0xa0b73e1ff0b80914ab6fe0444e65848c4c34450b",
                    "decodedLog": {
                        "name": "Transfer",
                        "params": [
                            {
                                "name": "from",
                                "type": "address",
                                "value": "0x9ef7e917fb41cc02f78a5c99b42f497ed8979350"
                            },
                            {
                                "name": "to",
                                "type": "address",
                                "value": "0x52ef4ec7492ca556956bbfc3f33db4dcff46e352"
                            },
                            {
                                "decimalAvailable": true,
                                "name": "value",
                                "type": "uint256",
                                "value": "23,388,489,026"
                            }
                        ],
                        "signature": "Transfer(address,address,uint256)"
                    },
                    "id": 8,
                    "logData": "0x0000000000000000000000000000000000000000000000000000000572100542",
                    "logDecoded": true,
                    "operation": "EVENT",
                    "revert": false,
                    "status": true,
                    "topics": [
                        "0xddf252ad1be2c89b69c2b068fc378daa952ba7f163c4a11628f55a4df523b3ef",
                        "0x0000000000000000000000009ef7e917fb41cc02f78a5c99b42f497ed8979350",
                        "0x00000000000000000000000052ef4ec7492ca556956bbfc3f33db4dcff46e352"
                    ]
                },
                "nodeType": 1
            },
            "9": {
                "invocation": {
                    "address": "0xa0b73e1ff0b80914ab6fe0444e65848c4c34450b",
                    "callData": "0x0000000000000000000000009ef7e917fb41cc02f78a5c99b42f497ed8979350",
                    "decodedMethod": {
                        "callParams": [
                            {
                                "name": "_owner",
                                "type": "address",
                                "value": "0x9ef7e917fb41cc02f78a5c99b42f497ed8979350"
                            }
                        ],
                        "constructorArguments": "",
                        "name": "balanceOf",
                        "returnParams": [
                            {
                                "decimalAvailable": true,
                                "name": "",
                                "type": "uint256",
                                "value": "1,362,948,252,700,193"
                            }
                        ],
                        "signature": "balanceOf(address)"
                    },
                    "errorInfo": "",
                    "fromAddress": "0x9ef7e917fb41cc02f78a5c99b42f497ed8979350",
                    "gasUsed": 861,
                    "id": 9,
                    "methodDecoded": true,
                    "operation": "STATICCALL",
                    "output": "0x0000000000000000000000000000000000000000000000000004d7981e730e21",
                    "revert": false,
                    "revertMessage": "",
                    "selector": "0x70a08231",
                    "status": true,
                    "value": "0"
                },
                "nodeType": 0
            }
        },
        "gasFlame": [
            {
                "children": [
                    {
                        "children": [
                            {
                                "children": [],
                                "depth": 0,
                                "name": "Initial Gas",
                                "value": 22812
                            },
                            {
                                "children": [
                                    {
                                        "children": [],
                                        "depth": 1,
                                        "name": "getReserves",
                                        "value": 2504
                                    },
                                    {
                                        "children": [],
                                        "depth": 1,
                                        "name": "deposit",
                                        "value": 23974
                                    },
                                    {
                                        "children": [],
                                        "depth": 1,
                                        "name": "transfer",
                                        "value": 8062
                                    },
                                    {
                                        "children": [
                                            {
                                                "children": [],
                                                "depth": 2,
                                                "name": "transfer",
                                                "value": 15829
                                            },
                                            {
                                                "children": [],
                                                "depth": 2,
                                                "name": "balanceOf",
                                                "value": 861
                                            },
                                            {
                                                "children": [],
                                                "depth": 2,
                                                "name": "balanceOf",
                                                "value": 534
                                            },
                                            {
                                                "children": [],
                                                "depth": 2,
                                                "name": "totalFeeBasisPoint",
                                                "value": 2342
                                            }
                                        ],
                                        "depth": 1,
                                        "name": "swap",
                                        "value": 58469
                                    }
                                ],
                                "depth": 0,
                                "name": "Executed Gas",
                                "value": 112274
                            }
                        ],
                        "depth": -1,
                        "name": "Actual Gas Used",
                        "value": 112386
                    },
                    {
                        "children": [],
                        "depth": -1,
                        "name": "Refunded Gas",
                        "value": 22700
                    }
                ],
                "depth": -2,
                "name": "Total Gas",
                "value": 135086
            }
        ],
        "isConfirmed": true,
        "mainTrace": [
            {
                "children": [
                    {
                        "children": [
                            {
                                "children": [],
                                "depth": 1,
                                "id": 1,
                                "order": 1
                            },
                            {
                                "children": [
                                    {
                                        "children": [],
                                        "depth": 2,
                                        "id": 3,
                                        "order": 3
                                    }
                                ],
                                "depth": 1,
                                "id": 2,
                                "order": 2
                            },
                            {
                                "children": [
                                    {
                                        "children": [],
                                        "depth": 2,
                                        "id": 5,
                                        "order": 5
                                    }
                                ],
                                "depth": 1,
                                "id": 4,
                                "order": 4
                            },
                            {
                                "children": [
                                    {
                                        "children": [
                                            {
                                                "children": [],
                                                "depth": 3,
                                                "id": 8,
                                                "order": 8
                                            }
                                        ],
                                        "depth": 2,
                                        "id": 7,
                                        "order": 7
                                    },
                                    {
                                        "children": [],
                                        "depth": 2,
                                        "id": 9,
                                        "order": 9
                                    },
                                    {
                                        "children": [],
                                        "depth": 2,
                                        "id": 10,
                                        "order": 10
                                    },
                                    {
                                        "children": [],
                                        "depth": 2,
                                        "id": 11,
                                        "order": 11
                                    },
                                    {
                                        "children": [],
                                        "depth": 2,
                                        "id": 12,
                                        "order": 12
                                    },
                                    {
                                        "children": [],
                                        "depth": 2,
                                        "id": 13,
                                        "order": 13
                                    }
                                ],
                                "depth": 1,
                                "id": 6,
                                "order": 6
                            }
                        ],
                        "depth": 0,
                        "id": 0,
                        "order": 0
                    }
                ],
                "depth": -1,
                "id": -1,
                "order": -1
            }
        ],
        "mainTraceNodeCount": 14,
        "parentIdMap": {
            "0": -1,
            "1": 0,
            "10": 6,
            "11": 6,
            "12": 6,
            "13": 6,
            "2": 0,
            "3": 2,
            "4": 0,
            "5": 4,
            "6": 0,
            "7": 6,
            "8": 7,
            "9": 6
        },
        "tidyTrace": [
            {
                "children": [
                    {
                        "children": [
                            {
                                "children": [
                                    {
                                        "children": [],
                                        "depth": 2,
                                        "id": 3,
                                        "order": 3
                                    }
                                ],
                                "depth": 1,
                                "id": 2,
                                "order": 2
                            },
                            {
                                "children": [
                                    {
                                        "children": [],
                                        "depth": 2,
                                        "id": 5,
                                        "order": 5
                                    }
                                ],
                                "depth": 1,
                                "id": 4,
                                "order": 4
                            },
                            {
                                "children": [
                                    {
                                        "children": [
                                            {
                                                "children": [],
                                                "depth": 3,
                                                "id": 8,
                                                "order": 8
                                            }
                                        ],
                                        "depth": 2,
                                        "id": 7,
                                        "order": 7
                                    },
                                    {
                                        "children": [],
                                        "depth": 2,
                                        "id": 12,
                                        "order": 12
                                    },
                                    {
                                        "children": [],
                                        "depth": 2,
                                        "id": 13,
                                        "order": 13
                                    }
                                ],
                                "depth": 1,
                                "id": 6,
                                "order": 6
                            }
                        ],
                        "depth": 0,
                        "id": 0,
                        "order": 0
                    }
                ],
                "depth": -1,
                "id": -1,
                "order": -1
            }
        ],
        "tidyTraceNodeCount": 10
    },
    "state_change": {
        "stateChanges": [
            {
                "address": "0x9ef7e917fb41cc02f78a5c99b42f497ed8979350",
                "erc": "ERC-20",
                "slots": [
                    {
                        "current": "0x621abe6f00000000006e3cb8da1f907952050000000000000004d7981e730e21",
                        "key": "0x0000000000000000000000000000000000000000000000000000000000000008",
                        "prev": "0x621ab86500000000006e3c3c81cf0955d2050000000000000004d79d90831363"
                    },
                    {
                        "current": "0x00000000000000000000000031a40e17bd8f2f3261aed5491e163ec4fd0456a4",
                        "key": "0x0000000000000000000000000000000000000000000000000000000000000009",
                        "prev": "0x00000000000000000000000031a3849c9076ae95487657422b3ecc9c05230026"
                    },
                    {
                        "current": "0x00000000000000000000000000000000003bd59f652f6111fc2f6de52272d64a",
                        "key": "0x000000000000000000000000000000000000000000000000000000000000000a",
                        "prev": "0x00000000000000000000000000000000003bd55b7c240af2d9599804005d950e"
                    }
                ],
                "storageVariables": [
                    {
                        "name": "price0CumulativeLast",
                        "type": "uint256",
                        "value": {
                            "current": "283399097633392189626684104130575160016344733348",
                            "prev": "283387121335545923667480258126407349508149280806",
                            "typeTag": 1
                        }
                    },
                    {
                        "name": "price1CumulativeLast",
                        "type": "uint256",
                        "value": {
                            "current": "310678296492236310706368394854323786",
                            "prev": "310672916081635684729847088884323598",
                            "typeTag": 1
                        }
                    },
                    {
                        "name": "reserve0",
                        "type": "uint112",
                        "value": {
                            "current": "1362948252700193",
                            "prev": "1362971641189219",
                            "typeTag": 1
                        }
                    },
                    {
                        "name": "reserve1",
                        "type": "uint112",
                        "value": {
                            "current": "2033517334975143825925",
                            "prev": "2033482334975143825925",
                            "typeTag": 1
                        }
                    },
                    {
                        "name": "blockTimestampLast",
                        "type": "uint32",
                        "value": {
                            "current": "1645919855",
                            "prev": "1645918309",
                            "typeTag": 1
                        }
                    }
                ]
            },
            {
                "address": "0xa0b73e1ff0b80914ab6fe0444e65848c4c34450b",
                "erc": "ERC-20",
                "slots": [
                    {
                        "current": "0x0000000000000000000000000000000000000000000000000004d7981e730e21",
                        "key": "0x856e1ae74a38b37e05f8667e4f286752b3d88fea7cd763274ba7ea763dd3f774",
                        "prev": "0x0000000000000000000000000000000000000000000000000004d79d90831363"
                    },
                    {
                        "current": "0x000000000000000000000000000000000000000000000000000000150ead0bba",
                        "key": "0xf53bdabe8a97f796ae18ec0c4f178c2a9d8ca994a67f86dc983b97714109bb6c",
                        "prev": "0x0000000000000000000000000000000000000000000000000000000f9c9d0678"
                    }
                ],
                "storageVariables": [
                    {
                        "name": "balances",
                        "type": "mapping(address => uint256)",
                        "value": {
                            "pairs": [
                                {
                                    "key": "0x52ef4ec7492ca556956bbfc3f33db4dcff46e352",
                                    "value": {
                                        "current": "90440534970",
                                        "prev": "67052045944",
                                        "typeTag": 1
                                    }
                                },
                                {
                                    "key": "0x9ef7e917fb41cc02f78a5c99b42f497ed8979350",
                                    "value": {
                                        "current": "1362948252700193",
                                        "prev": "1362971641189219",
                                        "typeTag": 1
                                    }
                                }
                            ],
                            "typeTag": 4
                        }
                    }
                ]
            },
            {
                "address": "0xc02aaa39b223fe8d0a0e5c4f27ead9083c756cc2",
                "erc": "ERC-20",
                "slots": [
                    {
                        "current": "0x00000000000000000000000000000000000000000000006e3cb8da1f90795205",
                        "key": "0xf4c3e156dfd71b9755bf43dfcf0ff10e687f5e09f82068e20b039c065cf95357",
                        "prev": "0x00000000000000000000000000000000000000000000006e3c3c81cf0955d205"
                    }
                ],
                "storageVariables": [
                    {
                        "name": "balanceOf",
                        "type": "mapping(address => uint256)",
                        "value": {
                            "pairs": [
                                {
                                    "key": "0x9ef7e917fb41cc02f78a5c99b42f497ed8979350",
                                    "value": {
                                        "current": "2033517334975143825925",
                                        "prev": "2033482334975143825925",
                                        "typeTag": 1
                                    }
                                }
                            ],
                            "typeTag": 4
                        }
                    }
                ]
            }
        ]
    }
}