{
    "balance_change": {
        "balanceChanges": [
            {
                "account": "0xf87aa290461df3b02efc5dceac4e930aeb578f80",
                "assets": [
                    {
                        "address": "0xefb47fcfcad4f96c83d4ca676842fb03ef20a477",
                        "amount": "780.6213535668620874",
                        "iconUrl": "",
                        "isERC1155": false,
                        "isERC721": false,
                        "sign": false,
                        "value": "123764.9174"
                    },
                    {
                        "address": "0x9813037ee2218799597d83d4a5b6f3b6778218d9",
                        "amount": "20,811.60024642995080597",
                        "iconUrl": "",
                        "isERC1155": false,
                        "isERC721": false,
                        "sign": true,
                        "value": "61739.44065"
                    },
                    {
                        "address": "0xeeeeeeeeeeeeeeeeeeeeeeeeeeeeeeeeeeeeeeee",
                        "amount": "30.787608449588604783",
                        "iconUrl": "https://assets.blocksec.com/image/1663669189317-3.png",
                        "isERC1155": false,
                        "isERC721": false,
                        "sign": true,
                        "value": "71255.87044194374696"
                    }
                ]
            },
            {
                "account": "0x0000000000000000000000000000000000000000",
                "assets": [
                    {
                        "address": "0xefb47fcfcad4f96c83d4ca676842fb03ef20a477",
                        "amount": "780.6213535668620874",
                        "iconUrl": "",
                        "isERC1155": false,
                        "isERC721": false,
                        "sign": true,
                        "value": "123764.9174"
                    }
                ]
            },
            {
                "account": "0xc02aaa39b223fe8d0a0e5c4f27ead9083c756cc2",
                "assets": [
                    {
                        "address": "0xeeeeeeeeeeeeeeeeeeeeeeeeeeeeeeeeeeeeeeee",
                        "amount": "30.787608449588604783",
                        "iconUrl": "https://assets.blocksec.com/image/1663669189317-3.png",
                        "isERC1155": false,
                        "isERC721": false,
                        "sign": false,
                        "value": "71255.87044194374696"
                    },
                    {
                        "address": "0xc02aaa39b223fe8d0a0e5c4f27ead9083c756cc2",
                        "amount": "30.787608449588604783",
                        "iconUrl": "https://assets.blocksec.com/icon/f1cb2d02c471d545bbc7722daf3277fd852d98e63d118771af7047bd8256c516.png",
                        "isERC1155": false,
                        "isERC721": false,
                        "sign": true,
                        "value": "71255.87044194374696"
                    }
                ]
            },
            {
                "account": "0xefb47fcfcad4f96c83d4ca676842fb03ef20a477",
                "assets": [
                    {
                        "address": "0x9813037ee2218799597d83d4a5b6f3b6778218d9",
                        "amount": "20,811.60024642995080597",
                        "iconUrl": "",
                        "isERC1155": false,
                        "isERC721": false,
                        "sign": false,
                        "value": "61739.44065"
                    },
                    {
                        "address": "0xc02aaa39b223fe8d0a0e5c4f27ead9083c756cc2",
                        "amount": "30.787608449588604783",
                        "iconUrl": "https://assets.blocksec.com/icon/f1cb2d02c471d545bbc7722daf3277fd852d98e63d118771af7047bd8256c516.png",
                        "isERC1155": false,
                        "isERC721": false,
                        "sign": false,
                        "value": "71255.87044194374696"
                    }
                ]
            }
        ]
    },
    "profile": {
        "basic_info": {
            "baseFee": "",
            "blockNumber": 12875202,
            "callData": "0xded9382a0000000000000000000000009813037ee2218799597d83d4a5b6f3b6778218d900000000000000000000000000000000000000000000002a514c2928ed6c94e80000000000000000000000000000000000000000000004628ee096bf19c3d724000000000000000000000000000000000000000000000001a920a8ee6bef9bff000000000000000000000000f87aa290461df3b02efc5dceac4e930aeb578f800000000000000000000000000000000000000000000000000000000060f936900000000000000000000000000000000000000000000000000000000000000000000000000000000000000000000000000000000000000000000000000000001cd0354470ef1497f7f8740fadb2473d79452b19f023289cbef428267239d9c8800fff180f72ce0d5e371ae2e387e8c5b2432540b99759300f536360598c9906c4",
            "debugEnable": true,
            "errorInfo": "",
            "eventCount": 9,
            "feeRecipient": "0x00192fb10df37c9fb26829eb2cc623cd1bf599e8",
            "formatValue": "0",
            "gasLimit": 298995,
            "gasPrice": "19.8",
            "gasUsed": 172351,
            "intTxnCount": 15,
            "internalRevert": false,
            "internalRevertMessage": "",
            "isContractCreation": false,
            "isFlashloan": false,
            "maxFee": "",
            "nonce": 213,
            "overwritedBlockNumber": -1,
            "priorityFee": "",
            "receiver": "0x03f7724180aa6b939894b5ca4314783b0b36b329",
            "revertMessage": "",
            "sender": "0xf87aa290461df3b02efc5dceac4e930aeb578f80",
            "simulationEnable": true,
            "sourceTxnHash": "0xb88d9dba730301822e35f1a37f2df37dbfb87afcb68100836b55313f99beef90",
            "status": true,
            "timestamp": "2021-07-22T08:53:16Z",
            "transactionFee": "0.0034125498",
            "txnHash": "0xb88d9dba730301822e35f1a37f2df37dbfb87afcb68100836b55313f99beef90",
            "txnIndex": 64,
            "type": 0,
            "value": "0"
        },
        "fund_flow": [
            {
                "amount": "780.6213535668620874",
                "from": "0xf87aa290461df3b02efc5dceac4e930aeb578f80",
                "id": 1,
                "isERC1155": false,
                "isERC721": false,
                "isReverted": false,
                "order": 1,
                "to": "0xefb47fcfcad4f96c83d4ca676842fb03ef20a477",
                "token": "0xefb47fcfcad4f96c83d4ca676842fb03ef20a477"
            },
            {
                "amount": "780.6213535668620874",
                "from": "0xefb47fcfcad4f96c83d4ca676842fb03ef20a477",
                "id": 2,
                "isERC1155": false,
                "isERC721": false,
                "isReverted": false,
                "order": 2,
                "to": "0x0000000000000000000000000000000000000000",
                "token": "0xefb47fcfcad4f96c83d4ca676842fb03ef20a477"
            },
            {
                "amount": "20,811.60024642995080597",
                "from": "0xefb47fcfcad4f96c83d4ca676842fb03ef20a477",
                "id": 3,
                "isERC1155": false,
                "isERC721": false,
                "isReverted": false,
                "order": 3,
                "to": "0x03f7724180aa6b939894b5ca4314783b0b36b329",
                "token": "0x9813037ee2218799597d83d4a5b6f3b6778218d9"
            },
            {
                "amount": "30.787608449588604783",
                "from": "0xefb47fcfcad4f96c83d4ca676842fb03ef20a477",
                "id": 4,
                "isERC1155": false,
                "isERC721": false,
                "isReverted": false,
                "order": 4,
                "to": "0x03f7724180aa6b939894b5ca4314783b0b36b329",
                "token": "0xc02aaa39b223fe8d0a0e5c4f27ead9083c756cc2"
            },
            {
                "amount": "20,811.60024642995080597",
                "from": "0x03f7724180aa6b939894b5ca4314783b0b36b329",
                "id": 5,
                "isERC1155": false,
                "isERC721": false,
                "isReverted": false,
                "order": 5,
                "to": "0xf87aa290461df3b02efc5dceac4e930aeb578f80",
                "token": "0x9813037ee2218799597d83d4a5b6f3b6778218d9"
            },
            {
                "amount": "30.787608449588604783",
                "from": "0xc02aaa39b223fe8d0a0e5c4f27ead9083c756cc2",
                "id": 6,
                "isERC1155": false,
                "isERC721": false,
                "isReverted": false,
                "order": 6,
                "to": "0x03f7724180aa6b939894b5ca4314783b0b36b329",
                "token": "0xeeeeeeeeeeeeeeeeeeeeeeeeeeeeeeeeeeeeeeee"
            },
            {
                "amount": "30.787608449588604783",
                "from": "0x03f7724180aa6b939894b5ca4314783b0b36b329",
                "id": 7,
                "isERC1155": false,
                "isERC721": false,
                "isReverted": false,
                "order": 7,
                "to": "0xc02aaa39b223fe8d0a0e5c4f27ead9083c756cc2",
                "token": "0xc02aaa39b223fe8d0a0e5c4f27ead9083c756cc2"
            },
            {
                "amount": "30.787608449588604783",
                "from": "0x03f7724180aa6b939894b5ca4314783b0b36b329",
                "id": 8,
                "isERC1155": false,
                "isERC721": false,
                "isReverted": false,
                "order": 8,
                "to": "0xf87aa290461df3b02efc5dceac4e930aeb578f80",
                "token": "0xeeeeeeeeeeeeeeeeeeeeeeeeeeeeeeeeeeeeeeee"
            }
        ],
        "token_infos": [
            {
                "address": "0x9813037ee2218799597d83d4a5b6f3b6778218d9",
                "decimals": 18
            },
            {
                "address": "0xc02aaa39b223fe8d0a0e5c4f27ead9083c756cc2",
                "decimals": 18
            },
            {
                "address": "0xefb47fcfcad4f96c83d4ca676842fb03ef20a477",
                "decimals": 18
            },
            {
                "address": "0xeeeeeeeeeeeeeeeeeeeeeeeeeeeeeeeeeeeeeeee",
                "decimals": 18
            }
        ]
    },
    "address_label": {
        "labels": [
            {
                "address": "0x0000000000000000000000000000000000000003",
                "label": "Precompiled"
            },
            {
                "address": "0x03f7724180aa6b939894b5ca4314783b0b36b329",
                "label": "Shiba Inu: ShibaSwap"
            },
            {
                "address": "0xefb47fcfcad4f96c83d4ca676842fb03ef20a477",
                "label": "ShibaSwap LP Token (SSLP)"
            },
            {
                "address": "0x115934131916c8b277dd010ee02de363c09d037c",
                "label": "UniswapV2Factory"
            },
            {
                "address": "0x0000000000000000000000000000000000000001",
                "label": "Precompiled"
            },
            {
                "address": "0x0000000000000000000000000000000000000002",
                "label": "Precompiled"
            },
            {
                "address": "0x0000000000000000000000000000000000000004",
                "label": "Precompiled"
            },
            {
                "address": "0xeeeeeeeeeeeeeeeeeeeeeeeeeeeeeeeeeeeeeeee",
                "label": "Ether"
            },
            {
                "address": "0xc02aaa39b223fe8d0a0e5c4f27ead9083c756cc2",
                "label": "Wrapped Ether (WETH)"
            },
            {
                "address": "0x9813037ee2218799597d83d4a5b6f3b6778218d9",
                "label": "ShibaSwap: BONE Token"
            }
        ]
    },
    "trace": {
        "accountLabels": null,
        "dataMap": {
            "-1": {
                "invocation": {
                    "address": "0xf87aa290461df3b02efc5dceac4e930aeb578f80",
                    "callData": "",
                    "decodedMethod": null,
                    "errorInfo": "",
                    "fromAddress": "",
                    "gasUsed": 0,
                    "id": -1,
                    "methodDecoded": false,
                    "operation": "",
                    "output": "",
                    "revert": false,
                    "revertMessage": "",
                    "selector": "",
                    "status": false,
                    "value": ""
                },
                "nodeType": 0
            },
            "0": {
                "invocation": {
                    "address": "0x03f7724180aa6b939894b5ca4314783b0b36b329",
                    "callData": "0x0000000000000000000000009813037ee2218799597d83d4a5b6f3b6778218d900000000000000000000000000000000000000000000002a514c2928ed6c94e80000000000000000000000000000000000000000000004628ee096bf19c3d724000000000000000000000000000000000000000000000001a920a8ee6bef9bff000000000000000000000000f87aa290461df3b02efc5dceac4e930aeb578f800000000000000000000000000000000000000000000000000000000060f936900000000000000000000000000000000000000000000000000000000000000000000000000000000000000000000000000000000000000000000000000000001cd0354470ef1497f7f8740fadb2473d79452b19f023289cbef428267239d9c8800fff180f72ce0d5e371ae2e387e8c5b2432540b99759300f536360598c9906c4",
                    "decodedMethod": {
                        "callParams": [
                            {
                                "name": "token",
                                "type": "address",
                                "value": "0x9813037ee2218799597d83d4a5b6f3b6778218d9"
                            },
                            {
                                "name": "liquidity",
                                "type": "uint256",
                                "value": "780,621,353,566,862,087,400"
                            },
                            {
                                "name": "amountTokenMin",
                                "type": "uint256",
                                "value": "20,707,542,245,197,801,051,940"
                            },
                            {
                                "name": "amountETHMin",
                                "type": "uint256",
                                "value": "30,633,670,407,340,661,759"
                            },
                            {
                                "name": "to",
                                "type": "address",
                                "value": "0xf87aa290461df3b02efc5dceac4e930aeb578f80"
                            },
                            {
                                "name": "deadline",
                                "type": "uint256",
                                "value": "1,626,945,168"
                            },
                            {
                                "name": "approveMax",
                                "type": "bool",
                                "value": false
                            },
                            {
                                "name": "v",
                                "type": "uint8",
                                "value": "28"
                            },
                            {
                                "name": "r",
                                "type": "bytes32",
                                "value": "0xd0354470ef1497f7f8740fadb2473d79452b19f023289cbef428267239d9c880"
                            },
                            {
                                "name": "s",
                                "type": "bytes32",
                                "value": "0x0fff180f72ce0d5e371ae2e387e8c5b2432540b99759300f536360598c9906c4"
                            }
                        ],
                        "constructorArguments": "",
                        "name": "removeLiquidityETHWithPermit",
                        "returnParams": [
                            {
                                "name": "amountToken",
                                "type": "uint256",
                                "value": "20,811,600,246,429,950,805,970"
                            },
                            {
                                "name": "amountETH",
                                "type": "uint256",
                                "value": "30,787,608,449,588,604,783"
                            }
                        ],
                        "signature": "removeLiquidityETHWithPermit(address,uint256,uint256,uint256,address,uint256,bool,uint8,bytes32,bytes32)"
                    },
                    "errorInfo": "",
                    "fromAddress": "0xf87aa290461df3b02efc5dceac4e930aeb578f80",
                    "gasUsed": 172351,
                    "id": 0,
                    "methodDecoded": true,
                    "operation": "CALL",
                    "output": "0x00000000000000000000000000000000000000000000046832f8df8b513607d2000000000000000000000000000000000000000000000001ab438ec3e18b2f6f",
                    "revert": false,
                    "revertMessage": "",
                    "selector": "0xded9382a",
                    "status": true,
                    "value": "0"
                },
                "nodeType": 0
            },
            "1": {
                "invocation": {
                    "address": "0xefb47fcfcad4f96c83d4ca676842fb03ef20a477",
                    "callData": "0x000000000000000000000000f87aa290461df3b02efc5dceac4e930aeb578f8000000000000000000000000003f7724180aa6b939894b5ca4314783b0b36b32900000000000000000000000000000000000000000000002a514c2928ed6c94e80000000000000000000000000000000000000000000000000000000060f93690000000000000000000000000000000000000000000000000000000000000001cd0354470ef1497f7f8740fadb2473d79452b19f023289cbef428267239d9c8800fff180f72ce0d5e371ae2e387e8c5b2432540b99759300f536360598c9906c4",
                    "decodedMethod": {
                        "callParams": [
                            {
                                "name": "owner",
                                "type": "address",
                                "value": "0xf87aa290461df3b02efc5dceac4e930aeb578f80"
                            },
                            {
                                "name": "spender",
                                "type": "address",
                                "value": "0x03f7724180aa6b939894b5ca4314783b0b36b329"
                            },
                            {
                                "name": "value",
                                "type": "uint256",
                                "value": "780,621,353,566,862,087,400"
                            },
                            {
                                "name": "deadline",
                                "type": "uint256",
                                "value": "1,626,945,168"
                            },
                            {
                                "name": "v",
                                "type": "uint8",
                                "value": "28"
                            },
                            {
                                "name": "r",
                                "type": "bytes32",
                                "value": "0xd0354470ef1497f7f8740fadb2473d79452b19f023289cbef428267239d9c880"
                            },
                            {
                                "name": "s",
                                "type": "bytes32",
                                "value": "0x0fff180f72ce0d5e371ae2e387e8c5b2432540b99759300f536360598c9906c4"
                            }
                        ],
                        "constructorArguments": "",
                        "name": "permit",
                        "returnParams": [],
                        "signature": "permit(address,address,uint256,uint256,uint8,bytes32,bytes32)"
                    },
                    "errorInfo": "",
                    "fromAddress": "0x03f7724180aa6b939894b5ca4314783b0b36b329",
                    "gasUsed": 35725,
                    "id": 1,
                    "methodDecoded": true,
                    "operation": "CALL",
                    "output": "",
                    "revert": false,
                    "revertMessage": "",
                    "selector": "0xd505accf",
                    "status": true,
                    "value": "0"
                },
                "nodeType": 0
            },
            "10": {
                "event": {
                    "contract": "0xefb47fcfcad4f96c83d4ca676842fb03ef20a477",
                    "decodedLog": {
                        "name": "Transfer",
                        "params": [
                            {
                                "name": "from",
                                "type": "address",
                                "value": "0xefb47fcfcad4f96c83d4ca676842fb03ef20a477"
                            },
                            {
                                "name": "to",
                                "type": "address",
                                "value": "0x0000000000000000000000000000000000000000"
                            },
                            {
                                "decimalAvailable": true,
                                "name": "value",
                                "type": "uint256",
                                "value": "780,621,353,566,862,087,400"
                            }
                        ],
                        "signature": "Transfer(address,address,uint256)"
                    },
                    "id": 10,
                    "logData": "0x00000000000000000000000000000000000000000000002a514c2928ed6c94e8",
                    "logDecoded": true,
                    "operation": "EVENT",
                    "revert": false,
                    "status": true,
                    "topics": [
                        "0xddf252ad1be2c89b69c2b068fc378daa952ba7f163c4a11628f55a4df523b3ef",
                        "0x000000000000000000000000efb47fcfcad4f96c83d4ca676842fb03ef20a477",
                        "0x0000000000000000000000000000000000000000000000000000000000000000"
                    ]
                },
                "nodeType": 1
            },
            "11": {
                "invocation": {
                    "address": "0x9813037ee2218799597d83d4a5b6f3b6778218d9",
                    "callData": "0x00000000000000000000000003f7724180aa6b939894b5ca4314783b0b36b32900000000000000000000000000000000000000000000046832f8df8b513607d2",
                    "decodedMethod": {
                        "callParams": [
                            {
                                "name": "recipient",
                                "type": "address",
                                "value": "0x03f7724180aa6b939894b5ca4314783b0b36b329"
                            },
                            {
                                "decimalAvailable": true,
                                "name": "amount",
                                "type": "uint256",
                                "value": "20,811,600,246,429,950,805,970"
                            }
                        ],
                        "constructorArguments": "",
                        "name": "transfer",
                        "returnParams": [
                            {
                                "name": "",
                                "type": "bool",
                                "value": true
                            }
                        ],
                        "signature": "transfer(address,uint256)"
                    },
                    "errorInfo": "",
                    "fromAddress": "0xefb47fcfcad4f96c83d4ca676842fb03ef20a477",
                    "gasUsed": 32556,
                    "id": 11,
                    "methodDecoded": true,
                    "operation": "CALL",
                    "output": "0x0000000000000000000000000000000000000000000000000000000000000001",
                    "revert": false,
                    "revertMessage": "",
                    "selector": "0xa9059cbb",
                    "status": true,
                    "value": "0"
                },
                "nodeType": 0
            },
            "12": {
                "event": {
                    "contract": "0x9813037ee2218799597d83d4a5b6f3b6778218d9",
                    "decodedLog": {
                        "name": "Transfer",
                        "params": [
                            {
                                "name": "from",
                                "type": "address",
                                "value": "0xefb47fcfcad4f96c83d4ca676842fb03ef20a477"
                            },
                            {
                                "name": "to",
                                "type": "address",
                                "value": "0x03f7724180aa6b939894b5ca4314783b0b36b329"
                            },
                            {
                                "decimalAvailable": true,
                                "name": "value",
                                "type": "uint256",
                                "value": "20,811,600,246,429,950,805,970"
                            }
                        ],
                        "signature": "Transfer(address,address,uint256)"
                    },
                    "id": 12,
                    "logData": "0x00000000000000000000000000000000000000000000046832f8df8b513607d2",
                    "logDecoded": true,
                    "operation": "EVENT",
                    "revert": false,
                    "status": true,
                    "topics": [
                        "0xddf252ad1be2c89b69c2b068fc378daa952ba7f163c4a11628f55a4df523b3ef",
                        "0x000000000000000000000000efb47fcfcad4f96c83d4ca676842fb03ef20a477",
                        "0x00000000000000000000000003f7724180aa6b939894b5ca4314783b0b36b329"
                    ]
                },
                "nodeType": 1
            },
            "13": {
                "invocation": {
                    "address": "0xc02aaa39b223fe8d0a0e5c4f27ead9083c756cc2",
                    "callData": "0x00000000000000000000000003f7724180aa6b939894b5ca4314783b0b36b329000000000000000000000000000000000000000000000001ab438ec3e18b2f6f",
                    "decodedMethod": {
                        "callParams": [
                            {
                                "name": "dst",
                                "type": "address",
                                "value": "0x03f7724180aa6b939894b5ca4314783b0b36b329"
                            },
                            {
                                "decimalAvailable": true,
                                "name": "wad",
                                "type": "uint256",
                                "value": "30,787,608,449,588,604,783"
                            }
                        ],
                        "constructorArguments": "",
                        "name": "transfer",
                        "returnParams": [
                            {
                                "name": "",
                                "type": "bool",
                                "value": true
                            }
                        ],
                        "signature": "transfer(address,uint256)"
                    },
                    "errorInfo": "",
                    "fromAddress": "0xefb47fcfcad4f96c83d4ca676842fb03ef20a477",
                    "gasUsed": 27962,
                    "id": 13,
                    "methodDecoded": true,
                    "operation": "CALL",
                    "output": "0x0000000000000000000000000000000000000000000000000000000000000001",
                    "revert": false,
                    "revertMessage": "",
                    "selector": "0xa9059cbb",
                    "status": true,
                    "value": "0"
                },
                "nodeType": 0
            },
            "14": {
                "event": {
                    "contract": "0xc02aaa39b223fe8d0a0e5c4f27ead9083c756cc2",
                    "decodedLog": {
                        "name": "Transfer",
                        "params": [
                            {
                                "name": "src",
                                "type": "address",
                                "value": "0xefb47fcfcad4f96c83d4ca676842fb03ef20a477"
                            },
                            {
                                "name": "dst",
                                "type": "address",
                                "value": "0x03f7724180aa6b939894b5ca4314783b0b36b329"
                            },
                            {
                                "decimalAvailable": true,
                                "name": "wad",
                                "type": "uint256",
                                "value": "30,787,608,449,588,604,783"
                            }
                        ],
                        "signature": "Transfer(address,address,uint256)"
                    },
                    "id": 14,
                    "logData": "0x000000000000000000000000000000000000000000000001ab438ec3e18b2f6f",
                    "logDecoded": true,
                    "operation": "EVENT",
                    "revert": false,
                    "status": true,
                    "topics": [
                        "0xddf252ad1be2c89b69c2b068fc378daa952ba7f163c4a11628f55a4df523b3ef",
                        "0x000000000000000000000000efb47fcfcad4f96c83d4ca676842fb03ef20a477",
                        "0x00000000000000000000000003f7724180aa6b939894b5ca4314783b0b36b329"
                    ]
                },
                "nodeType": 1
            },
            "15": {
                "invocation": {
                    "address": "0x9813037ee2218799597d83d4a5b6f3b6778218d9",
                    "callData": "0x000000000000000000000000efb47fcfcad4f96c83d4ca676842fb03ef20a477",
                    "decodedMethod": {
                        "callParams": [
                            {
                                "name": "account",
                                "type": "address",
                                "value": "0xefb47fcfcad4f96c83d4ca676842fb03ef20a477"
                            }
                        ],
                        "constructorArguments": "",
                        "name": "balanceOf",
                        "returnParams": [
                            {
                                "decimalAvailable": true,
                                "name": "",
                                "type": "uint256",
                                "value": "12,773,990,496,968,272,522,680,840"
                            }
                        ],
                        "signature": "balanceOf(address)"
                    },
                    "errorInfo": "",
                    "fromAddress": "0xefb47fcfcad4f96c83d4ca676842fb03ef20a477",
                    "gasUsed": 534,
                    "id": 15,
                    "methodDecoded": true,
                    "operation": "STATICCALL",
                    "output": "0x0000000000000000000000000000000000000000000a90ff69937260de329a08",
                    "revert": false,
                    "revertMessage": "",
                    "selector": "0x70a08231",
                    "status": true,
                    "value": "0"
                },
                "nodeType": 0
            },
            "16": {
                "invocation": {
                    "address": "0xc02aaa39b223fe8d0a0e5c4f27ead9083c756cc2",
                    "callData": "0x000000000000000000000000efb47fcfcad4f96c83d4ca676842fb03ef20a477",
                    "decodedMethod": {
                        "callParams": [
                            {
                                "name": "",
                                "type": "address",
                                "value": "0xefb47fcfcad4f96c83d4ca676842fb03ef20a477"
                            }
                        ],
                        "constructorArguments": "",
                        "name": "balanceOf",
                        "returnParams": [
                            {
                                "decimalAvailable": true,
                                "name": "",
                                "type": "uint256",
                                "value": "18,897,182,970,198,978,367,916"
                            }
                        ],
                        "signature": "balanceOf(address)"
                    },
                    "errorInfo": "",
                    "fromAddress": "0xefb47fcfcad4f96c83d4ca676842fb03ef20a477",
                    "gasUsed": 534,
                    "id": 16,
                    "methodDecoded": true,
                    "operation": "STATICCALL",
                    "output": "0x0000000000000000000000000000000000000000000004006b186dd45f3a91ac",
                    "revert": false,
                    "revertMessage": "",
                    "selector": "0x70a08231",
                    "status": true,
                    "value": "0"
                },
                "nodeType": 0
            },
            "17": {
                "event": {
                    "contract": "0xefb47fcfcad4f96c83d4ca676842fb03ef20a477",
                    "decodedLog": {
                        "name": "Sync",
                        "params": [
                            {
                                "name": "reserve0",
                                "type": "uint112",
                                "value": "12,773,990,496,968,272,522,680,840"
                            },
                            {
                                "name": "reserve1",
                                "type": "uint112",
                                "value": "18,897,182,970,198,978,367,916"
                            }
                        ],
                        "signature": "Sync(uint112,uint112)"
                    },
                    "id": 17,
                    "logData": "0x0000000000000000000000000000000000000000000a90ff69937260de329a080000000000000000000000000000000000000000000004006b186dd45f3a91ac",
                    "logDecoded": true,
                    "operation": "EVENT",
                    "revert": false,
                    "status": true,
                    "topics": [
                        "0x1c411e9a96e071241c2f21f7726b17ae89e3cab4c78be50e062b03a9fffbbad1"
                    ]
                },
                "nodeType": 1
            },
            "18": {
                "event": {
                    "contract": "0xefb47fcfcad4f96c83d4ca676842fb03ef20a477",
                    "decodedLog": {
                        "name": "Burn",
                        "params": [
                            {
                                "name": "sender",
                                "type": "address",
                                "value": "0x03f7724180aa6b939894b5ca4314783b0b36b329"
                            },
                            {
                                "name": "to",
                                "type": "address",
                                "value": "0x03f7724180aa6b939894b5ca4314783b0b36b329"
                            },
                            {
                                "name": "amount0",
                                "type": "uint256",
                                "value": "20,811,600,246,429,950,805,970"
                            },
                            {
                                "name": "amount1",
                                "type": "uint256",
                                "value": "30,787,608,449,588,604,783"
                            }
                        ],
                        "signature": "Burn(address,uint256,uint256,address)"
                    },
                    "id": 18,
                    "logData": "0x00000000000000000000000000000000000000000000046832f8df8b513607d2000000000000000000000000000000000000000000000001ab438ec3e18b2f6f",
                    "logDecoded": true,
                    "operation": "EVENT",
                    "revert": false,
                    "status": true,
                    "topics": [
                        "0xdccd412f0b1252819cb1fd330b93224ca42612892bb3f4f789976e6d81936496",
                        "0x00000000000000000000000003f7724180aa6b939894b5ca4314783b0b36b329",
                        "0x00000000000000000000000003f7724180aa6b939894b5ca4314783b0b36b329"
                    ]
                },
                "nodeType": 1
            },
            "19": {
                "invocation": {
                    "address": "0x9813037ee2218799597d83d4a5b6f3b6778218d9",
                    "callData": "0x000000000000000000000000f87aa290461df3b02efc5dceac4e930aeb578f8000000000000000000000000000000000000000000000046832f8df8b513607d2",
                    "decodedMethod": {
                        "callParams": [
                            {
                                "name": "recipient",
                                "type": "address",
                                "value": "0xf87aa290461df3b02efc5dceac4e930aeb578f80"
                            },
                            {
                                "decimalAvailable": true,
                                "name": "amount",
                                "type": "uint256",
                                "value": "20,811,600,246,429,950,805,970"
                            }
                        ],
                        "constructorArguments": "",
                        "name": "transfer",
                        "returnParams": [
                            {
                                "name": "",
                                "type": "bool",
                                "value": true
                            }
                        ],
                        "signature": "transfer(address,uint256)"
                    },
                    "errorInfo": "",
                    "fromAddress": "0x03f7724180aa6b939894b5ca4314783b0b36b329",
                    "gasUsed": 10656,
                    "id": 19,
                    "methodDecoded": true,
                    "operation": "CALL",
                    "output": "0x0000000000000000000000000000000000000000000000000000000000000001",
                    "revert": false,
                    "revertMessage": "",
                    "selector": "0xa9059cbb",
                    "status": true,
                    "value": "0"
                },
                "nodeType": 0
            },
            "2": {
                "invocation": {
                    "address": "0x0000000000000000000000000000000000000001",
                    "callData": "0x1cf9e4cb075a67ea9e36a5549203a07846a76a27192b94cb7ba385ee000000000000000000000000000000000000000000000000000000000000001cd0354470ef1497f7f8740fadb2473d79452b19f023289cbef428267239d9c8800fff180f72ce0d5e371ae2e387e8c5b2432540b99759300f536360598c9906c4",
                    "decodedMethod": {
                        "callParams": [
                            {
                                "name": "hash",
                                "type": "bytes32",
                                "value": "0x80acc4861cf9e4cb075a67ea9e36a5549203a07846a76a27192b94cb7ba385ee"
                            },
                            {
                                "name": "v",
                                "type": "uint256",
                                "value": "28"
                            },
                            {
                                "name": "r",
                                "type": "bytes32",
                                "value": "0xd0354470ef1497f7f8740fadb2473d79452b19f023289cbef428267239d9c880"
                            },
                            {
                                "name": "s",
                                "type": "bytes32",
                                "value": "0x0fff180f72ce0d5e371ae2e387e8c5b2432540b99759300f536360598c9906c4"
                            }
                        ],
                        "constructorArguments": "",
                        "name": "ecrecover",
                        "returnParams": [
                            {
                                "name": "",
                                "type": "address",
                                "value": "0xf87aa290461df3b02efc5dceac4e930aeb578f80"
                            }
                        ],
                        "signature": "ecrecover(bytes32,uint256,bytes32,bytes32)"
                    },
                    "errorInfo": "",
                    "fromAddress": "0xefb47fcfcad4f96c83d4ca676842fb03ef20a477",
                    "gasUsed": 3000,
                    "id": 2,
                    "methodDecoded": true,
                    "operation": "STATICCALL",
                    "output": "0x000000000000000000000000f87aa290461df3b02efc5dceac4e930aeb578f80",
                    "revert": false,
                    "revertMessage": "",
                    "selector": "0x80acc486",
                    "status": true,
                    "value": "0"
                },
                "nodeType": 0
            },
            "20": {
                "event": {
                    "contract": "0x9813037ee2218799597d83d4a5b6f3b6778218d9",
                    "decodedLog": {
                        "name": "Transfer",
                        "params": [
                            {
                                "name": "from",
                                "type": "address",
                                "value": "0x03f7724180aa6b939894b5ca4314783b0b36b329"
                            },
                            {
                                "name": "to",
                                "type": "address",
                                "value": "0xf87aa290461df3b02efc5dceac4e930aeb578f80"
                            },
                            {
                                "decimalAvailable": true,
                                "name": "value",
                                "type": "uint256",
                                "value": "20,811,600,246,429,950,805,970"
                            }
                        ],
                        "signature": "Transfer(address,address,uint256)"
                    },
                    "id": 20,
                    "logData": "0x00000000000000000000000000000000000000000000046832f8df8b513607d2",
                    "logDecoded": true,
                    "operation": "EVENT",
                    "revert": false,
                    "status": true,
                    "topics": [
                        "0xddf252ad1be2c89b69c2b068fc378daa952ba7f163c4a11628f55a4df523b3ef",
                        "0x00000000000000000000000003f7724180aa6b939894b5ca4314783b0b36b329",
                        "0x000000000000000000000000f87aa290461df3b02efc5dceac4e930aeb578f80"
                    ]
                },
                "nodeType": 1
            },
            "21": {
                "invocation": {
                    "address": "0xc02aaa39b223fe8d0a0e5c4f27ead9083c756cc2",
                    "callData": "0x000000000000000000000000000000000000000000000001ab438ec3e18b2f6f",
                    "decodedMethod": {
                        "callParams": [
                            {
                                "name": "wad",
                                "type": "uint256",
                                "value": "30,787,608,449,588,604,783"
                            }
                        ],
                        "constructorArguments": "",
                        "name": "withdraw",
                        "returnParams": [],
                        "signature": "withdraw(uint256)"
                    },
                    "errorInfo": "",
                    "fromAddress": "0x03f7724180aa6b939894b5ca4314783b0b36b329",
                    "gasUsed": 9235,
                    "id": 21,
                    "methodDecoded": true,
                    "operation": "CALL",
                    "output": "",
                    "revert": false,
                    "revertMessage": "",
                    "selector": "0x2e1a7d4d",
                    "status": true,
                    "value": "0"
                },
                "nodeType": 0
            },
            "22": {
                "invocation": {
                    "address": "0x03f7724180aa6b939894b5ca4314783b0b36b329",
                    "callData": "0x",
                    "decodedMethod": null,
                    "errorInfo": "",
                    "fromAddress": "0xc02aaa39b223fe8d0a0e5c4f27ead9083c756cc2",
                    "gasUsed": 95,
                    "id": 22,
                    "methodDecoded": false,
                    "operation": "CALL",
                    "output": "",
                    "revert": false,
                    "revertMessage": "",
                    "selector": "fallback",
                    "status": true,
                    "value": "30.787608449588604783"
                },
                "nodeType": 0
            },
            "23": {
                "event": {
                    "contract": "0xc02aaa39b223fe8d0a0e5c4f27ead9083c756cc2",
                    "decodedLog": {
                        "name": "Withdrawal",
                        "params": [
                            {
                                "name": "src",
                                "type": "address",
                                "value": "0x03f7724180aa6b939894b5ca4314783b0b36b329"
                            },
                            {
                                "name": "wad",
                                "type": "uint256",
                                "value": "30,787,608,449,588,604,783"
                            }
                        ],
                        "signature": "Withdrawal(address,uint256)"
                    },
                    "id": 23,
                    "logData": "0x000000000000000000000000000000000000000000000001ab438ec3e18b2f6f",
                    "logDecoded": true,
                    "operation": "EVENT",
                    "revert": false,
                    "status": true,
                    "topics": [
                        "0x7fcf532c15f0a6db0bd6d0e038bea71d30d808c7d98cb3bf7268a95bf5081b65",
                        "0x00000000000000000000000003f7724180aa6b939894b5ca4314783b0b36b329"
                    ]
                },
                "nodeType": 1
            },
            "24": {
                "invocation": {
                    "address": "0xf87aa290461df3b02efc5dceac4e930aeb578f80",
                    "callData": "0x",
                    "decodedMethod": null,
                    "errorInfo": "",
                    "fromAddress": "0x03f7724180aa6b939894b5ca4314783b0b36b329",
                    "gasUsed": 0,
                    "id": 24,
                    "methodDecoded": false,
                    "operation": "CALL",
                    "output": "",
                    "revert": false,
                    "revertMessage": "",
                    "selector": "fallback",
                    "status": true,
                    "value": "30.787608449588604783"
                },
                "nodeType": 0
            },
            "3": {
                "event": {
                    "contract": "0xefb47fcfcad4f96c83d4ca676842fb03ef20a477",
                    "decodedLog": {
                        "name": "Approval",
                        "params": [
                            {
                                "name": "owner",
                                "type": "address",
                                "value": "0xf87aa290461df3b02efc5dceac4e930aeb578f80"
                            },
                            {
                                "name": "spender",
                                "type": "address",
                                "value": "0x03f7724180aa6b939894b5ca4314783b0b36b329"
                            },
                            {
                                "decimalAvailable": true,
                                "name": "value",
                                "type": "uint256",
                                "value": "780,621,353,566,862,087,400"
                            }
                        ],
                        "signature": "Approval(address,address,uint256)"
                    },
                    "id": 3,
                    "logData": "0x00000000000000000000000000000000000000000000002a514c2928ed6c94e8",
                    "logDecoded": true,
                    "operation": "EVENT",
                    "revert": false,
                    "status": true,
                    "topics": [
                        "0x8c5be1e5ebec7d5bd14f71427d1e84f3dd0314c0f7b2291e5b200ac8c7c3b925",
                        "0x000000000000000000000000f87aa290461df3b02efc5dceac4e930aeb578f80",
                        "0x00000000000000000000000003f7724180aa6b939894b5ca4314783b0b36b329"
                    ]
                },
                "nodeType": 1
            },
            "4": {
                "invocation": {
                    "address": "0xefb47fcfcad4f96c83d4ca676842fb03ef20a477",
                    "callData": "0x000000000000000000000000f87aa290461df3b02efc5dceac4e930aeb578f80000000000000000000000000efb47fcfcad4f96c83d4ca676842fb03ef20a47700000000000000000000000000000000000000000000002a514c2928ed6c94e8",
                    "decodedMethod": {
                        "callParams": [
                            {
                                "name": "from",
                                "type": "address",
                                "value": "0xf87aa290461df3b02efc5dceac4e930aeb578f80"
                            },
                            {
                                "name": "to",
                                "type": "address",
                                "value": "0xefb47fcfcad4f96c83d4ca676842fb03ef20a477"
                            },
                            {
                                "decimalAvailable": true,
                                "name": "value",
                                "type": "uint256",
                                "value": "780,621,353,566,862,087,400"
                            }
                        ],
                        "constructorArguments": "",
                        "name": "transferFrom",
                        "returnParams": [
                            {
                                "name": "",
                                "type": "bool",
                                "value": true
                            }
                        ],
                        "signature": "transferFrom(address,address,uint256)"
                    },
                    "errorInfo": "",
                    "fromAddress": "0x03f7724180aa6b939894b5ca4314783b0b36b329",
                    "gasUsed": 30715,
                    "id": 4,
                    "methodDecoded": true,
                    "operation": "CALL",
                    "output": "0x0000000000000000000000000000000000000000000000000000000000000001",
                    "revert": false,
                    "revertMessage": "",
                    "selector": "0x23b872dd",
                    "status": true,
                    "value": "0"
                },
                "nodeType": 0
            },
            "5": {
                "event": {
                    "contract": "0xefb47fcfcad4f96c83d4ca676842fb03ef20a477",
                    "decodedLog": {
                        "name": "Transfer",
                        "params": [
                            {
                                "name": "from",
                                "type": "address",
                                "value": "0xf87aa290461df3b02efc5dceac4e930aeb578f80"
                            },
                            {
                                "name": "to",
                                "type": "address",
                                "value": "0xefb47fcfcad4f96c83d4ca676842fb03ef20a477"
                            },
                            {
                                "decimalAvailable": true,
                                "name": "value",
                                "type": "uint256",
                                "value": "780,621,353,566,862,087,400"
                            }
                        ],
                        "signature": "Transfer(address,address,uint256)"
                    },
                    "id": 5,
                    "logData": "0x00000000000000000000000000000000000000000000002a514c2928ed6c94e8",
                    "logDecoded": true,
                    "operation": "EVENT",
                    "revert": false,
                    "status": true,
                    "topics": [
                        "0xddf252ad1be2c89b69c2b068fc378daa952ba7f163c4a11628f55a4df523b3ef",
                        "0x000000000000000000000000f87aa290461df3b02efc5dceac4e930aeb578f80",
                        "0x000000000000000000000000efb47fcfcad4f96c83d4ca676842fb03ef20a477"
                    ]
                },
                "nodeType": 1
            },
            "6": {
                "invocation": {
                    "address": "0xefb47fcfcad4f96c83d4ca676842fb03ef20a477",
                    "callData": "0x00000000000000000000000003f7724180aa6b939894b5ca4314783b0b36b329",
                    "decodedMethod": {
                        "callParams": [
                            {
                                "name": "to",
                                "type": "address",
                                "value": "0x03f7724180aa6b939894b5ca4314783b0b36b329"
                            }
                        ],
                        "constructorArguments": "",
                        "name": "burn",
                        "returnParams": [
                            {
                                "name": "amount0",
                                "type": "uint256",
                                "value": "20,811,600,246,429,950,805,970"
                            },
                            {
                                "name": "amount1",
                                "type": "uint256",
                                "value": "30,787,608,449,588,604,783"
                            }
                        ],
                        "signature": "burn(address)"
                    },
                    "errorInfo": "",
                    "fromAddress": "0x03f7724180aa6b939894b5ca4314783b0b36b329",
                    "gasUsed": 144354,
                    "id": 6,
                    "methodDecoded": true,
                    "operation": "CALL",
                    "output": "0x00000000000000000000000000000000000000000000046832f8df8b513607d2000000000000000000000000000000000000000000000001ab438ec3e18b2f6f",
                    "revert": false,
                    "revertMessage": "",
                    "selector": "0x89afcb44",
                    "status": true,
                    "value": "0"
                },
                "nodeType": 0
            },
            "7": {
                "invocation": {
                    "address": "0x9813037ee2218799597d83d4a5b6f3b6778218d9",
                    "callData": "0x000000000000000000000000efb47fcfcad4f96c83d4ca676842fb03ef20a477",
                    "decodedMethod": {
                        "callParams": [
                            {
                                "name": "account",
                                "type": "address",
                                "value": "0xefb47fcfcad4f96c83d4ca676842fb03ef20a477"
                            }
                        ],
                        "constructorArguments": "",
                        "name": "balanceOf",
                        "returnParams": [
                            {
                                "decimalAvailable": true,
                                "name": "",
                                "type": "uint256",
                                "value": "12,794,802,097,214,702,473,486,810"
                            }
                        ],
                        "signature": "balanceOf(address)"
                    },
                    "errorInfo": "",
                    "fromAddress": "0xefb47fcfcad4f96c83d4ca676842fb03ef20a477",
                    "gasUsed": 2534,
                    "id": 7,
                    "methodDecoded": true,
                    "operation": "STATICCALL",
                    "output": "0x0000000000000000000000000000000000000000000a95679c8c51ec2f68a1da",
                    "revert": false,
                    "revertMessage": "",
                    "selector": "0x70a08231",
                    "status": true,
                    "value": "0"
                },
                "nodeType": 0
            },
            "8": {
                "invocation": {
                    "address": "0xc02aaa39b223fe8d0a0e5c4f27ead9083c756cc2",
                    "callData": "0x000000000000000000000000efb47fcfcad4f96c83d4ca676842fb03ef20a477",
                    "decodedMethod": {
                        "callParams": [
                            {
                                "name": "",
                                "type": "address",
                                "value": "0xefb47fcfcad4f96c83d4ca676842fb03ef20a477"
                            }
                        ],
                        "constructorArguments": "",
                        "name": "balanceOf",
                        "returnParams": [
                            {
                                "decimalAvailable": true,
                                "name": "",
                                "type": "uint256",
                                "value": "18,927,970,578,648,566,972,699"
                            }
                        ],
                        "signature": "balanceOf(address)"
                    },
                    "errorInfo": "",
                    "fromAddress": "0xefb47fcfcad4f96c83d4ca676842fb03ef20a477",
                    "gasUsed": 2534,
                    "id": 8,
                    "methodDecoded": true,
                    "operation": "STATICCALL",
                    "output": "0x000000000000000000000000000000000000000000000402165bfc9840c5c11b",
                    "revert": false,
                    "revertMessage": "",
                    "selector": "0x70a08231",
                    "status": true,
                    "value": "0"
                },
                "nodeType": 0
            },
            "9": {
                "invocation": {
                    "address": "0x115934131916c8b277dd010ee02de363c09d037c",
                    "callData": "0x",
                    "decodedMethod": {
                        "callParams": [],
                        "constructorArguments": "",
                        "name": "feeTo",
                        "returnParams": [
                            {
                                "name": "",
                                "type": "address",
                                "value": "0x00e82e98a2119aa175eab206706efe0df2c7d51d"
                            }
                        ],
                        "signature": "feeTo()"
                    },
                    "errorInfo": "",
                    "fromAddress": "0xefb47fcfcad4f96c83d4ca676842fb03ef20a477",
                    "gasUsed": 2384,
                    "id": 9,
                    "methodDecoded": true,
                    "operation": "STATICCALL",
                    "output": "0x00000000000000000000000000e82e98a2119aa175eab206706efe0df2c7d51d",
                    "revert": false,
                    "revertMessage": "",
                    "selector": "0x017e7e58",
                    "status": true,
                    "value": "0"
                },
                "nodeType": 0
            }
        },
        "gasFlame": [
            {
                "children": [
                    {
                        "children": [
                            {
                                "children": [],
                                "depth": 0,
                                "name": "Initial Gas",
                                "value": 23988
                            },
                            {
                                "children": [
                                    {
                                        "children": [
                                            {
                                                "children": [],
                                                "depth": 2,
                                                "name": "ecrecover",
                                                "value": 3000
                                            }
                                        ],
                                        "depth": 1,
                                        "name": "permit",
                                        "value": 35725
                                    },
                                    {
                                        "children": [],
                                        "depth": 1,
                                        "name": "transferFrom",
                                        "value": 30715
                                    },
                                    {
                                        "children": [
                                            {
                                                "children": [],
                                                "depth": 2,
                                                "name": "balanceOf",
                                                "value": 2534
                                            },
                                            {
                                                "children": [],
                                                "depth": 2,
                                                "name": "balanceOf",
                                                "value": 2534
                                            },
                                            {
                                                "children": [],
                                                "depth": 2,
                                                "name": "feeTo",
                                                "value": 2384
                                            },
                                            {
                                                "children": [],
                                                "depth": 2,
                                                "name": "transfer",
                                                "value": 32556
                                            },
                                            {
                                                "children": [],
                                                "depth": 2,
                                                "name": "transfer",
                                                "value": 27962
                                            },
                                            {
                                                "children": [],
                                                "depth": 2,
                                                "name": "balanceOf",
                                                "value": 534
                                            },
                                            {
                                                "children": [],
                                                "depth": 2,
                                                "name": "balanceOf",
                                                "value": 534
                                            }
                                        ],
                                        "depth": 1,
                                        "name": "burn",
                                        "value": 144354
                                    },
                                    {
                                        "children": [],
                                        "depth": 1,
                                        "name": "transfer",
                                        "value": 10656
                                    },
                                    {
                                        "children": [
                                            {
                                                "children": [],
                                                "depth": 2,
                                                "name": "fallback",
                                                "value": 95
                                            }
                                        ],
                                        "depth": 1,
                                        "name": "withdraw",
                                        "value": 9235
                                    },
                                    {
                                        "children": [],
                                        "depth": 1,
                                        "name": "fallback",
                                        "value": 0
                                    }
                                ],
                                "depth": 0,
                                "name": "Executed Gas",
                                "value": 245763
                            }
                        ],
                        "depth": -1,
                        "name": "Actual Gas Used",
                        "value": 172351
                    },
                    {
                        "children": [],
                        "depth": -1,
                        "name": "Refunded Gas",
                        "value": 97400
                    }
                ],
                "depth": -2,
                "name": "Total Gas",
                "value": 269751
            }
        ],
        "isConfirmed": true,
        "mainTrace": [
            {
                "children": [
                    {
                        "children": [
                            {
                                "children": [
                                    {
                                        "children": [],
                                        "depth": 2,
                                        "id": 2,
                                        "order": 2
                                    },
                                    {
                                        "children": [],
                                        "depth": 2,
                                        "id": 3,
                                        "order": 3
                                    }
                                ],
                                "depth": 1,
                                "id": 1,
                                "order": 1
                            },
                            {
                                "children": [
                                    {
                                        "children": [],
                                        "depth": 2,
                                        "id": 5,
                                        "order": 5
                                    }
                                ],
                                "depth": 1,
                                "id": 4,
                                "order": 4
                            },
                            {
                                "children": [
                                    {
                                        "children": [],
                                        "depth": 2,
                                        "id": 7,
                                        "order": 7
                                    },
                                    {
                                        "children": [],
                                        "depth": 2,
                                        "id": 8,
                                        "order": 8
                                    },
                                    {
                                        "children": [],
                                        "depth": 2,
                                        "id": 9,
                                        "order": 9
                                    },
                                    {
                                        "children": [],
                                        "depth": 2,
                                        "id": 10,
                                        "order": 10
                                    },
                                    {
                                        "children": [
                                            {
                                                "children": [],
                                                "depth": 3,
                                                "id": 12,
                                                "order": 12
                                            }
                                        ],
                                        "depth": 2,
                                        "id": 11,
                                        "order": 11
                                    },
                                    {
                                        "children": [
                                            {
                                                "children": [],
                                                "depth": 3,
                                                "id": 14,
                                                "order": 14
                                            }
                                        ],
                                        "depth": 2,
                                        "id": 13,
                                        "order": 13
                                    },
                                    {
                                        "children": [],
                                        "depth": 2,
                                        "id": 15,
                                        "order": 15
                                    },
                                    {
                                        "children": [],
                                        "depth": 2,
                                        "id": 16,
                                        "order": 16
                                    },
                                    {
                                        "children": [],
                                        "depth": 2,
                                        "id": 17,
                                        "order": 17
                                    },
                                    {
                                        "children": [],
                                        "depth": 2,
                                        "id": 18,
                                        "order": 18
                                    }
                                ],
                                "depth": 1,
                                "id": 6,
                                "order": 6
                            },
                            {
                                "children": [
                                    {
                                        "children": [],
                                        "depth": 2,
                                        "id": 20,
                                        "order": 20
                                    }
                                ],
                                "depth": 1,
                                "id": 19,
                                "order": 19
                            },
                            {
                                "children": [
                                    {
                                        "children": [],
                                        "depth": 2,
                                        "id": 22,
                                        "order": 22
                                    },
                                    {
                                        "children": [],
                                        "depth": 2,
                                        "id": 23,
                                        "order": 23
                                    }
                                ],
                                "depth": 1,
                                "id": 21,
                                "order": 21
                            },
                            {
                                "children": [],
                                "depth": 1,
                                "id": 24,
                                "order": 24
                            }
                        ],
                        "depth": 0,
                        "id": 0,
                        "order": 0
                    }
                ],
                "depth": -1,
                "id": -1,
                "order": -1
            }
        ],
        "mainTraceNodeCount": 25,
        "parentIdMap": {
            "0": -1,
            "1": 0,
            "10": 6,
            "11": 6,
            "12": 11,
            "13": 6,
            "14": 13,
            "15": 6,
            "16": 6,
            "17": 6,
            "18": 6,
            "19": 0,
            "2": 1,
            "20": 19,
            "21": 0,
            "22": 21,
            "23": 21,
            "24": 0,
            "3": 1,
            "4": 0,
            "5": 4,
            "6": 0,
            "7": 6,
            "8": 6,
            "9": 6
        },
        "tidyTrace": [
            {
                "children": [
                    {
                        "children": [
                            {
                                "children": [
                                    {
                                        "children": [],
                                        "depth": 2,
                                        "id": 3,
                                        "order": 3
                                    }
                                ],
                                "depth": 1,
                                "id": 1,
                                "order": 1
                            },
                            {
                                "children": [
                                    {
                                        "children": [],
                                        "depth": 2,
                                        "id": 5,
                                        "order": 5
                                    }
                                ],
                                "depth": 1,
                                "id": 4,
                                "order": 4
                            },
                            {
                                "children": [
                                    {
                                        "children": [],
                                        "depth": 2,
                                        "id": 10,
                                        "order": 10
                                    },
                                    {
                                        "children": [
                                            {
                                                "children": [],
                                                "depth": 3,
                                                "id": 12,
                                                "order": 12
                                            }
                                        ],
                                        "depth": 2,
                                        "id": 11,
                                        "order": 11
                                    },
                                    {
                                        "children": [
                                            {
                                                "children": [],
                                                "depth": 3,
                                                "id": 14,
                                                "order": 14
                                            }
                                        ],
                                        "depth": 2,
                                        "id": 13,
                                        "order": 13
                                    },
                                    {
                                        "children": [],
                                        "depth": 2,
                                        "id": 17,
                                        "order": 17
                                    },
                                    {
                                        "children": [],
                                        "depth": 2,
                                        "id": 18,
                                        "order": 18
                                    }
                                ],
                                "depth": 1,
                                "id": 6,
                                "order": 6
                            },
                            {
                                "children": [
                                    {
                                        "children": [],
                                        "depth": 2,
                                        "id": 20,
                                        "order": 20
                                    }
                                ],
                                "depth": 1,
                                "id": 19,
                                "order": 19
                            },
                            {
                                "children": [
                                    {
                                        "children": [],
                                        "depth": 2,
                                        "id": 22,
                                        "order": 22
                                    },
                                    {
                                        "children": [],
                                        "depth": 2,
                                        "id": 23,
                                        "order": 23
                                    }
                                ],
                                "depth": 1,
                                "id": 21,
                                "order": 21
                            },
                            {
                                "children": [],
                                "depth": 1,
                                "id": 24,
                                "order": 24
                            }
                        ],
                        "depth": 0,
                        "id": 0,
                        "order": 0
                    }
                ],
                "depth": -1,
                "id": -1,
                "order": -1
            }
        ],
        "tidyTraceNodeCount": 19
    },
    "state_change": {
        "stateChanges": [
            {
                "address": "0x9813037ee2218799597d83d4a5b6f3b6778218d9",
                "erc": "ERC-20",
                "slots": [
                    {
                        "current": "0x0000000000000000000000000000000000000000000a90ff69937260de329a08",
                        "key": "0x92783bce1b8fbf5d5a004ae454c0294c9e3a8d45cb06a52fcd99539b22445478",
                        "prev": "0x0000000000000000000000000000000000000000000a95679c8c51ec2f68a1da"
                    },
                    {
                        "current": "0x0000000000000000000000000000000000000000000004683ba23c2a66468a1b",
                        "key": "0xf6ede6c68149413f22f1ccc27180743f50db2c1cb40fff74347cd7d5bce0fdf6",
                        "prev": "0x00000000000000000000000000000000000000000000000008a95c9f15108249"
                    }
                ],
                "storageVariables": [
                    {
                        "name": "_balances",
                        "type": "mapping(address => uint256)",
                        "value": {
                            "pairs": [
                                {
                                    "key": "0xefb47fcfcad4f96c83d4ca676842fb03ef20a477",
                                    "value": {
                                        "current": "12773990496968272522680840",
                                        "prev": "12794802097214702473486810",
                                        "typeTag": 1
                                    }
                                },
                                {
                                    "key": "0xf87aa290461df3b02efc5dceac4e930aeb578f80",
                                    "value": {
                                        "current": "20812224378291641289243",
                                        "prev": "624131861690483273",
                                        "typeTag": 1
                                    }
                                }
                            ],
                            "typeTag": 4
                        }
                    }
                ]
            },
            {
                "address": "0xc02aaa39b223fe8d0a0e5c4f27ead9083c756cc2",
                "erc": "ERC-20",
                "slots": [
                    {
                        "current": "0x0000000000000000000000000000000000000000000004006b186dd45f3a91ac",
                        "key": "0x635d66657ab7efa4978a0ada1229131bdb12bdff440df002b11a37709c596697",
                        "prev": "0x000000000000000000000000000000000000000000000402165bfc9840c5c11b"
                    }
                ],
                "storageVariables": [
                    {
                        "name": "balanceOf",
                        "type": "mapping(address => uint256)",
                        "value": {
                            "pairs": [
                                {
                                    "key": "0xefb47fcfcad4f96c83d4ca676842fb03ef20a477",
                                    "value": {
                                        "current": "18897182970198978367916",
                                        "prev": "18927970578648566972699",
                                        "typeTag": 1
                                    }
                                }
                            ],
                            "typeTag": 4
                        }
                    }
                ]
            },
            {
                "address": "0xefb47fcfcad4f96c83d4ca676842fb03ef20a477",
                "erc": "ERC-20",
                "slots": [
                    {
                        "current": "0x60f931fc0000000004006b186dd45f3a91ac0000000a90ff69937260de329a08",
                        "key": "0x0000000000000000000000000000000000000000000000000000000000000008",
                        "prev": "0x60f931d9000000000402165bfc9840c5c11b0000000a95679c8c51ec2f68a1da"
                    },
                    {
                        "current": "0x0000000000000000000000002a4869432f5ccbcadb6fcb34a57dcc2fd10e0560",
                        "key": "0x000000000000000000000000000000000000000000000000000000000000000b",
                        "prev": "0x0000000000000000000000002a6bb5e5df066aa75bf5121ecd1b0911eed06bfe"
                    },
                    {
                        "current": "0x0000000000000000000000000000000000000000000065762da7567ad7554f16",
                        "key": "0x0000000000000000000000000000000000000000000000000000000000000000",
                        "prev": "0x0000000000000000000000000000000000000000000065a07ef37fa3c4c1e3fe"
                    },
                    {
                        "current": "0x000000000000000000000000000000000f803e3cd7597a2872f0e57533487b9f",
                        "key": "0x0000000000000000000000000000000000000000000000000000000000000009",
                        "prev": "0x000000000000000000000000000000000f8030fb9227e5b88adb46e0ce91f2ed"
                    },
                    {
                        "current": "0x000000000000000000000000000044ef7cbe9c9b901ddebf08e5cbbc293ba65b",
                        "key": "0x000000000000000000000000000000000000000000000000000000000000000a",
                        "prev": "0x000000000000000000000000000044ef20538c242a620040fe726424177717ed"
                    },
                    {
                        "current": "0x0000000000000000000000000000000000000000000000000000000000000002",
                        "key": "0x1bc0ab22d59ad6a3b08ffaa54473eb0ea4f8d1708298c2505b025ecc1d32ae90",
                        "prev": "0x0000000000000000000000000000000000000000000000000000000000000001"
                    },
                    {
                        "current": "0x0000000000000000000000000000000000000000000000000000000000000000",
                        "key": "0x46096edffc6feb885d4d56b1cc5ab14e5dee4fef9c9c6ef2059bab60261a217a",
                        "prev": "0x00000000000000000000000000000000000000000000002a514c2928ed6c94e8"
                    }
                ],
                "storageVariables": [
                    {
                        "name": "price1CumulativeLast",
                        "type": "uint256",
                        "value": {
                            "current": "6005128743038062381235185119652774628009563",
                            "prev": "6005005898152708115644886907885922813417453",
                            "typeTag": 1
                        }
                    },
                    {
                        "name": "nonces",
                        "type": "mapping(address => uint256)",
                        "value": {
                            "pairs": [
                                {
                                    "key": "0xf87aa290461df3b02efc5dceac4e930aeb578f80",
                                    "value": {
                                        "current": "2",
                                        "prev": "1",
                                        "typeTag": 1
                                    }
                                }
                            ],
                            "typeTag": 4
                        }
                    },
                    {
                        "name": "balanceOf",
                        "type": "mapping(address => uint256)",
                        "value": {
                            "pairs": [
                                {
                                    "key": "0xf87aa290461df3b02efc5dceac4e930aeb578f80",
                                    "value": {
                                        "current": "0",
                                        "prev": "780621353566862087400",
                                        "typeTag": 1
                                    }
                                }
                            ],
                            "typeTag": 4
                        }
                    },
                    {
                        "name": "reserve0",
                        "type": "uint112",
                        "value": {
                            "current": "12773990496968272522680840",
                            "prev": "12794802097214702473486810",
                            "typeTag": 1
                        }
                    },
                    {
                        "name": "reserve1",
                        "type": "uint112",
                        "value": {
                            "current": "18897182970198978367916",
                            "prev": "18927970578648566972699",
                            "typeTag": 1
                        }
                    },
                    {
                        "name": "blockTimestampLast",
                        "type": "uint32",
                        "value": {
                            "current": "1626943996",
                            "prev": "1626943961",
                            "typeTag": 1
                        }
                    },
                    {
                        "name": "kLast",
                        "type": "uint256",
                        "value": {
                            "current": "241392435680792423926784549005891741636163929440",
                            "prev": "242179637655710870229655520634139507672606600190",
                            "typeTag": 1
                        }
                    },
                    {
                        "name": "totalSupply",
                        "type": "uint256",
                        "value": {
                            "current": "479139020263670309801750",
                            "prev": "479919641617237171889150",
                            "typeTag": 1
                        }
                    },
                    {
                        "name": "price0CumulativeLast",
                        "type": "uint256",
                        "value": {
                            "current": "20604296264398821673833486600305671071",
                            "prev": "20604027421829006757550601093367591661",
                            "typeTag": 1
                        }
                    }
                ]
            }
        ]
    }
}