{
    "balance_change": {
        "balanceChanges": [
            {
                "account": "0x3018018c44338b9728d02be12d632c6691e020d1",
                "assets": [
                    {
                        "address": "0xdac17f958d2ee523a2206206994597c13d831ec7",
                        "amount": "6,000",
                        "iconUrl": "https://assets.blocksec.com/icon/fcea71f3193ce895be44bfdf941f7e4c9381dd587f273c2d1a27f1263d84e4ea.png",
                        "isERC1155": false,
                        "isERC721": false,
                        "sign": false,
                        "value": "5999.400000000000066"
                    }
                ]
            },
            {
                "account": "0xdd5681e4c90f668ae767243f051acfc7a37c9262",
                "assets": [
                    {
                        "address": "0xdac17f958d2ee523a2206206994597c13d831ec7",
                        "amount": "6,000",
                        "iconUrl": "https://assets.blocksec.com/icon/fcea71f3193ce895be44bfdf941f7e4c9381dd587f273c2d1a27f1263d84e4ea.png",
                        "isERC1155": false,
                        "isERC721": false,
                        "sign": true,
                        "value": "5999.400000000000066"
                    }
                ]
            }
        ]
    },
    "profile": {
        "basic_info": {
            "baseFee": "16.375105429",
            "blockNumber": 17667623,
            "callData": "0xa9059cbb000000000000000000000000dd5681e4c90f668ae767243f051acfc7a37c92620000000000000000000000000000000000000000000000000000000165a0bc00",
            "debugEnable": true,
            "errorInfo": "",
            "eventCount": 1,
            "feeRecipient": "0x69d46eef988db4b48447beecdf7ba10a15a2fdf7",
            "formatValue": "0",
            "gasLimit": 100000,
            "gasPrice": "18.375105429",
            "gasUsed": 46109,
            "intTxnCount": 0,
            "internalRevert": false,
            "internalRevertMessage": "",
            "isContractCreation": false,
            "isFlashloan": false,
            "maxFee": "182",
            "nonce": 368042,
            "overwritedBlockNumber": -1,
            "priorityFee": "2",
            "receiver": "0xdac17f958d2ee523a2206206994597c13d831ec7",
            "revertMessage": "",
            "sender": "0x3018018c44338b9728d02be12d632c6691e020d1",
            "simulationEnable": true,
            "sourceTxnHash": "0xb8dd790675984d701c1d620b8a2f7b2d58e1118045c3324d2cfc89b49434469e",
            "status": true,
            "timestamp": "2023-07-11T03:12:35Z",
            "transactionFee": "0.000847257736225761",
            "txnHash": "0xb8dd790675984d701c1d620b8a2f7b2d58e1118045c3324d2cfc89b49434469e",
            "txnIndex": 56,
            "type": 2,
            "value": "0"
        },
        "fund_flow": [
            {
                "amount": "6,000",
                "from": "0x3018018c44338b9728d02be12d632c6691e020d1",
                "id": 1,
                "isERC1155": false,
                "isERC721": false,
                "isReverted": false,
                "order": 1,
                "to": "0xdd5681e4c90f668ae767243f051acfc7a37c9262",
                "token": "0xdac17f958d2ee523a2206206994597c13d831ec7"
            }
        ],
        "token_infos": [
            {
                "address": "0xc02aaa39b223fe8d0a0e5c4f27ead9083c756cc2",
                "decimals": 18
            },
            {
                "address": "0xdac17f958d2ee523a2206206994597c13d831ec7",
                "decimals": 6
            },
            {
                "address": "0xeeeeeeeeeeeeeeeeeeeeeeeeeeeeeeeeeeeeeeee",
                "decimals": 18
            }
        ]
    },
    "address_label": {
        "labels": [
            {
                "address": "0x0000000000000000000000000000000000000003",
                "label": "Precompiled"
            },
            {
                "address": "0x0000000000000000000000000000000000000004",
                "label": "Precompiled"
            },
            {
                "address": "0xeeeeeeeeeeeeeeeeeeeeeeeeeeeeeeeeeeeeeeee",
                "label": "Ether"
            },
            {
                "address": "0xdac17f958d2ee523a2206206994597c13d831ec7",
                "label": "Tether: USDT Stablecoin"
            },
            {
                "address": "0x0000000000000000000000000000000000000001",
                "label": "Precompiled"
            },
            {
                "address": "0x0000000000000000000000000000000000000002",
                "label": "Precompiled"
            }
        ]
    },
    "trace": {
        "accountLabels": null,
        "dataMap": {
            "-1": {
                "invocation": {
                    "address": "0x3018018c44338b9728d02be12d632c6691e020d1",
                    "callData": "",
                    "decodedMethod": null,
                    "errorInfo": "",
                    "fromAddress": "",
                    "gasUsed": 0,
                    "id": -1,
                    "methodDecoded": false,
                    "operation": "",
                    "output": "",
                    "revert": false,
                    "revertMessage": "",
                    "selector": "",
                    "status": false,
                    "value": ""
                },
                "nodeType": 0
            },
            "0": {
                "invocation": {
                    "address": "0xdac17f958d2ee523a2206206994597c13d831ec7",
                    "callData": "0x000000000000000000000000dd5681e4c90f668ae767243f051acfc7a37c92620000000000000000000000000000000000000000000000000000000165a0bc00",
                    "decodedMethod": {
                        "callParams": [
                            {
                                "name": "_to",
                                "type": "address",
                                "value": "0xdd5681e4c90f668ae767243f051acfc7a37c9262"
                            },
                            {
                                "decimalAvailable": true,
                                "name": "_value",
                                "type": "uint256",
                                "value": "6,000,000,000"
                            }
                        ],
                        "constructorArguments": "",
                        "name": "transfer",
                        "returnParams": [],
                        "signature": "transfer(address,uint256)"
                    },
                    "errorInfo": "",
                    "fromAddress": "0x3018018c44338b9728d02be12d632c6691e020d1",
                    "gasUsed": 46109,
                    "id": 0,
                    "methodDecoded": true,
                    "operation": "CALL",
                    "output": "",
                    "revert": false,
                    "revertMessage": "",
                    "selector": "0xa9059cbb",
                    "status": true,
                    "value": "0"
                },
                "nodeType": 0
            },
            "1": {
                "event": {
                    "contract": "0xdac17f958d2ee523a2206206994597c13d831ec7",
                    "decodedLog": {
                        "name": "Transfer",
                        "params": [
                            {
                                "name": "from",
                                "type": "address",
                                "value": "0x3018018c44338b9728d02be12d632c6691e020d1"
                            },
                            {
                                "name": "to",
                                "type": "address",
                                "value": "0xdd5681e4c90f668ae767243f051acfc7a37c9262"
                            },
                            {
                                "decimalAvailable": true,
                                "name": "value",
                                "type": "uint256",
                                "value": "6,000,000,000"
                            }
                        ],
                        "signature": "Transfer(address,address,uint256)"
                    },
                    "id": 1,
                    "logData": "0x0000000000000000000000000000000000000000000000000000000165a0bc00",
                    "logDecoded": true,
                    "operation": "EVENT",
                    "revert": false,
                    "status": true,
                    "topics": [
                        "0xddf252ad1be2c89b69c2b068fc378daa952ba7f163c4a11628f55a4df523b3ef",
                        "0x0000000000000000000000003018018c44338b9728d02be12d632c6691e020d1",
                        "0x000000000000000000000000dd5681e4c90f668ae767243f051acfc7a37c9262"
                    ]
                },
                "nodeType": 1
            }
        },
        "gasFlame": [
            {
                "children": [
                    {
                        "children": [
                            {
                                "children": [],
                                "depth": 0,
                                "name": "Initial Gas",
                                "value": 21608
                            },
                            {
                                "children": [],
                                "depth": 0,
                                "name": "Executed Gas",
                                "value": 24501
                            }
                        ],
                        "depth": -1,
                        "name": "Actual Gas Used",
                        "value": 46109
                    },
                    {
                        "children": [],
                        "depth": -1,
                        "name": "Refunded Gas",
                        "value": 0
                    }
                ],
                "depth": -2,
                "name": "Total Gas",
                "value": 46109
            }
        ],
        "isConfirmed": true,
        "mainTrace": [
            {
                "children": [
                    {
                        "children": [
                            {
                                "children": [],
                                "depth": 1,
                                "id": 1,
                                "order": 1
                            }
                        ],
                        "depth": 0,
                        "id": 0,
                        "order": 0
                    }
                ],
                "depth": -1,
                "id": -1,
                "order": -1
            }
        ],
        "mainTraceNodeCount": 2,
        "parentIdMap": {
            "0": -1,
            "1": 0
        },
        "tidyTrace": [
            {
                "children": [
                    {
                        "children": [
                            {
                                "children": [],
                                "depth": 1,
                                "id": 1,
                                "order": 1
                            }
                        ],
                        "depth": 0,
                        "id": 0,
                        "order": 0
                    }
                ],
                "depth": -1,
                "id": -1,
                "order": -1
            }
        ],
        "tidyTraceNodeCount": 2
    },
    "state_change": {
        "stateChanges": [
            {
                "address": "0xdac17f958d2ee523a2206206994597c13d831ec7",
                "erc": "ERC-20",
                "slots": [
                    {
                        "current": "0x000000000000000000000000000000000000000000000000000001cc38840b49",
                        "key": "0x2d55279ed30437b86432ca42b4cb6391911de845699441cf21e736c4e1cf8f32",
                        "prev": "0x000000000000000000000000000000000000000000000000000001cd9e24c749"
                    },
                    {
                        "current": "0x000000000000000000000000000000000000000000000000000000037e11d600",
                        "key": "0xd1a22f0faa327c3f9824a6c60f03a0e4b9c0887741804c94d1ca59154b030aee",
                        "prev": "0x0000000000000000000000000000000000000000000000000000000218711a00"
                    }
                ],
                "storageVariables": [
                    {
                        "name": "balances",
                        "type": "mapping(address => uint256)",
                        "value": {
                            "pairs": [
                                {
                                    "key": "0x3018018c44338b9728d02be12d632c6691e020d1",
                                    "value": {
                                        "current": "1976633133897",
                                        "prev": "1982633133897",
                                        "typeTag": 1
                                    }
                                },
                                {
                                    "key": "0xdd5681e4c90f668ae767243f051acfc7a37c9262",
                                    "value": {
                                        "current": "15000000000",
                                        "prev": "9000000000",
                                        "typeTag": 1
                                    }
                                }
                            ],
                            "typeTag": 4
                        }
                    }
                ]
            }
        ]
    }
}