{
    "balance_change": {
        "balanceChanges": [
            {
                "account": "0xf363174e0d59c9133ab2358ce6cc10939cff1f82",
                "assets": [
                    {
                        "address": "0x5c89736e9454200141b80c37eb28eaceca2ce8cb",
                        "amount": "58",
                        "iconUrl": "",
                        "isERC1155": false,
                        "isERC721": false,
                        "sign": false,
                        "value": ""
                    }
                ]
            },
            {
                "account": "0xe35af2b504a736aa841d3cb38baa25d0fa566053",
                "assets": [
                    {
                        "address": "0x5c89736e9454200141b80c37eb28eaceca2ce8cb",
                        "amount": "58",
                        "iconUrl": "",
                        "isERC1155": false,
                        "isERC721": false,
                        "sign": true,
                        "value": ""
                    }
                ]
            }
        ]
    },
    "profile": {
        "basic_info": {
            "baseFee": "",
            "blockNumber": 7789166,
            "callData": "0xa9059cbb000000000000000000000000e35af2b504a736aa841d3cb38baa25d0fa5660530000000000000000000000000000000000000000000000000000000159b4fa00",
            "debugEnable": true,
            "errorInfo": "",
            "eventCount": 1,
            "feeRecipient": "0x5a0b54d5dc17e0aadc383d2db43b0a0d3e029c4c",
            "formatValue": "0",
            "gasLimit": 37704,
            "gasPrice": "3",
            "gasUsed": 37704,
            "intTxnCount": 0,
            "internalRevert": false,
            "internalRevertMessage": "",
            "isContractCreation": false,
            "isFlashloan": false,
            "maxFee": "",
            "nonce": 1,
            "overwritedBlockNumber": -1,
            "priorityFee": "",
            "receiver": "0x5c89736e9454200141b80c37eb28eaceca2ce8cb",
            "revertMessage": "",
            "sender": "0xf363174e0d59c9133ab2358ce6cc10939cff1f82",
            "simulationEnable": true,
            "sourceTxnHash": "0xb96f7a58810455a862d761bfaa060ea19a215ccf4892e713f818ae54d6fec3bc",
            "status": true,
            "timestamp": "2019-05-19T07:27:46Z",
            "transactionFee": "0.000113112",
            "txnHash": "0xb96f7a58810455a862d761bfaa060ea19a215ccf4892e713f818ae54d6fec3bc",
            "txnIndex": 156,
            "type": 0,
            "value": "0"
        },
        "fund_flow": [
            {
                "amount": "58",
                "from": "0xf363174e0d59c9133ab2358ce6cc10939cff1f82",
                "id": 1,
                "isERC1155": false,
                "isERC721": false,
                "isReverted": false,
                "order": 1,
                "to": "0xe35af2b504a736aa841d3cb38baa25d0fa566053",
                "token": "0x5c89736e9454200141b80c37eb28eaceca2ce8cb"
            }
        ],
        "token_infos": [
            {
                "address": "0x5c89736e9454200141b80c37eb28eaceca2ce8cb",
                "decimals": 8
            },
            {
                "address": "0xc02aaa39b223fe8d0a0e5c4f27ead9083c756cc2",
                "decimals": 18
            },
            {
                "address": "0xeeeeeeeeeeeeeeeeeeeeeeeeeeeeeeeeeeeeeeee",
                "decimals": 18
            }
        ]
    },
    "address_label": {
        "labels": [
            {
                "address": "0x0000000000000000000000000000000000000003",
                "label": "Precompiled"
            },
            {
                "address": "0x0000000000000000000000000000000000000004",
                "label": "Precompiled"
            },
            {
                "address": "0xeeeeeeeeeeeeeeeeeeeeeeeeeeeeeeeeeeeeeeee",
                "label": "Ether"
            },
            {
                "address": "0x5c89736e9454200141b80c37eb28eaceca2ce8cb",
                "label": "Cherry Token (YT)"
            },
            {
                "address": "0x0000000000000000000000000000000000000001",
                "label": "Precompiled"
            },
            {
                "address": "0x0000000000000000000000000000000000000002",
                "label": "Precompiled"
            }
        ]
    },
    "trace": {
        "accountLabels": null,
        "dataMap": {
            "-1": {
                "invocation": {
                    "address": "0xf363174e0d59c9133ab2358ce6cc10939cff1f82",
                    "callData": "",
                    "decodedMethod": null,
                    "errorInfo": "",
                    "fromAddress": "",
                    "gasUsed": 0,
                    "id": -1,
                    "methodDecoded": false,
                    "operation": "",
                    "output": "",
                    "revert": false,
                    "revertMessage": "",
                    "selector": "",
                    "status": false,
                    "value": ""
                },
                "nodeType": 0
            },
            "0": {
                "invocation": {
                    "address": "0x5c89736e9454200141b80c37eb28eaceca2ce8cb",
                    "callData": "0x000000000000000000000000e35af2b504a736aa841d3cb38baa25d0fa5660530000000000000000000000000000000000000000000000000000000159b4fa00",
                    "decodedMethod": {
                        "callParams": [
                            {
                                "name": "_to",
                                "type": "address",
                                "value": "0xe35af2b504a736aa841d3cb38baa25d0fa566053"
                            },
                            {
                                "decimalAvailable": true,
                                "name": "_value",
                                "type": "uint256",
                                "value": "5,800,000,000"
                            }
                        ],
                        "constructorArguments": "",
                        "name": "transfer",
                        "returnParams": [
                            {
                                "name": "",
                                "type": "bool",
                                "value": true
                            }
                        ],
                        "signature": "transfer(address,uint256)"
                    },
                    "errorInfo": "",
                    "fromAddress": "0xf363174e0d59c9133ab2358ce6cc10939cff1f82",
                    "gasUsed": 37704,
                    "id": 0,
                    "methodDecoded": true,
                    "operation": "CALL",
                    "output": "0x0000000000000000000000000000000000000000000000000000000000000001",
                    "revert": false,
                    "revertMessage": "",
                    "selector": "0xa9059cbb",
                    "status": true,
                    "value": "0"
                },
                "nodeType": 0
            },
            "1": {
                "event": {
                    "contract": "0x5c89736e9454200141b80c37eb28eaceca2ce8cb",
                    "decodedLog": {
                        "name": "Transfer",
                        "params": [
                            {
                                "name": "from",
                                "type": "address",
                                "value": "0xf363174e0d59c9133ab2358ce6cc10939cff1f82"
                            },
                            {
                                "name": "to",
                                "type": "address",
                                "value": "0xe35af2b504a736aa841d3cb38baa25d0fa566053"
                            },
                            {
                                "decimalAvailable": true,
                                "name": "tokens",
                                "type": "uint256",
                                "value": "5,800,000,000"
                            }
                        ],
                        "signature": "Transfer(address,address,uint256)"
                    },
                    "id": 1,
                    "logData": "0x0000000000000000000000000000000000000000000000000000000159b4fa00",
                    "logDecoded": true,
                    "operation": "EVENT",
                    "revert": false,
                    "status": true,
                    "topics": [
                        "0xddf252ad1be2c89b69c2b068fc378daa952ba7f163c4a11628f55a4df523b3ef",
                        "0x000000000000000000000000f363174e0d59c9133ab2358ce6cc10939cff1f82",
                        "0x000000000000000000000000e35af2b504a736aa841d3cb38baa25d0fa566053"
                    ]
                },
                "nodeType": 1
            }
        },
        "gasFlame": [
            {
                "children": [
                    {
                        "children": [
                            {
                                "children": [],
                                "depth": 0,
                                "name": "Initial Gas",
                                "value": 23064
                            },
                            {
                                "children": [],
                                "depth": 0,
                                "name": "Executed Gas",
                                "value": 14640
                            }
                        ],
                        "depth": -1,
                        "name": "Actual Gas Used",
                        "value": 37704
                    },
                    {
                        "children": [],
                        "depth": -1,
                        "name": "Refunded Gas",
                        "value": 0
                    }
                ],
                "depth": -2,
                "name": "Total Gas",
                "value": 37704
            }
        ],
        "isConfirmed": true,
        "mainTrace": [
            {
                "children": [
                    {
                        "children": [
                            {
                                "children": [],
                                "depth": 1,
                                "id": 1,
                                "order": 1
                            }
                        ],
                        "depth": 0,
                        "id": 0,
                        "order": 0
                    }
                ],
                "depth": -1,
                "id": -1,
                "order": -1
            }
        ],
        "mainTraceNodeCount": 2,
        "parentIdMap": {
            "0": -1,
            "1": 0
        },
        "tidyTrace": [
            {
                "children": [
                    {
                        "children": [
                            {
                                "children": [],
                                "depth": 1,
                                "id": 1,
                                "order": 1
                            }
                        ],
                        "depth": 0,
                        "id": 0,
                        "order": 0
                    }
                ],
                "depth": -1,
                "id": -1,
                "order": -1
            }
        ],
        "tidyTraceNodeCount": 2
    },
    "state_change": {
        "stateChanges": [
            {
                "address": "0x5c89736e9454200141b80c37eb28eaceca2ce8cb",
                "erc": "ERC-20",
                "slots": [
                    {
                        "current": "0x00000000000000000000000000000000000000000000000000000001122e6e00",
                        "key": "0x45bce46c25bd370fdbd137dc4bd4423fcffcb3b659fc07bbfab484d95edddcaf",
                        "prev": "0x000000000000000000000000000000000000000000000000000000026be36800"
                    },
                    {
                        "current": "0x0000000000000000000000000000000000000000000000000000001319487803",
                        "key": "0x6657b61a64f4fb9079a2d20cc9939ab91cfa7d5d72f0ac5bfcadd99c9f54008a",
                        "prev": "0x00000000000000000000000000000000000000000000000000000011bf937e03"
                    }
                ],
                "storageVariables": [
                    {
                        "name": "balances",
                        "type": "mapping(address => uint256)",
                        "value": {
                            "pairs": [
                                {
                                    "key": "0xe35af2b504a736aa841d3cb38baa25d0fa566053",
                                    "value": {
                                        "current": "82028558339",
                                        "prev": "76228558339",
                                        "typeTag": 1
                                    }
                                },
                                {
                                    "key": "0xf363174e0d59c9133ab2358ce6cc10939cff1f82",
                                    "value": {
                                        "current": "4600000000",
                                        "prev": "10400000000",
                                        "typeTag": 1
                                    }
                                }
                            ],
                            "typeTag": 4
                        }
                    }
                ]
            }
        ]
    }
}