{
    "balance_change": {
        "balanceChanges": [
            {
                "account": "0x51c72848c68a965f66fa7a88855f9f7784502a7f",
                "assets": [
                    {
                        "address": "0xc02aaa39b223fe8d0a0e5c4f27ead9083c756cc2",
                        "amount": "3.188839384668176413",
                        "iconUrl": "https://assets.blocksec.com/icon/f1cb2d02c471d545bbc7722daf3277fd852d98e63d118771af7047bd8256c516.png",
                        "isERC1155": false,
                        "isERC721": false,
                        "sign": true,
                        "value": "9892.409886932475891"
                    },
                    {
                        "address": "0x6982508145454ce325ddbe47a25d4ec3d2311933",
                        "amount": "1,138,491,106.772351552118063105",
                        "iconUrl": "https://assets.blocksec.com/icon/99f1a626358e559d9a9d6dc4254c663e595a9ebcd362efa2d4cd902a8d75ea2c.png",
                        "isERC1155": false,
                        "isERC721": false,
                        "sign": false,
                        "value": ""
                    },
                    {
                        "address": "0xeeeeeeeeeeeeeeeeeeeeeeeeeeeeeeeeeeeeeeee",
                        "amount": "0.002360822110325663",
                        "iconUrl": "https://assets.blocksec.com/image/1663669189317-3.png",
                        "isERC1155": false,
                        "isERC721": false,
                        "sign": false,
                        "value": "7.323736683668935919"
                    }
                ]
            },
            {
                "account": "0x11950d141ecb863f01007add7d1a342041227b58",
                "assets": [
                    {
                        "address": "0xc02aaa39b223fe8d0a0e5c4f27ead9083c756cc2",
                        "amount": "3.188839384668176413",
                        "iconUrl": "https://assets.blocksec.com/icon/f1cb2d02c471d545bbc7722daf3277fd852d98e63d118771af7047bd8256c516.png",
                        "isERC1155": false,
                        "isERC721": false,
                        "sign": false,
                        "value": "9892.409886932475891"
                    },
                    {
                        "address": "0x6982508145454ce325ddbe47a25d4ec3d2311933",
                        "amount": "1,138,491,106.772351552118063105",
                        "iconUrl": "https://assets.blocksec.com/icon/99f1a626358e559d9a9d6dc4254c663e595a9ebcd362efa2d4cd902a8d75ea2c.png",
                        "isERC1155": false,
                        "isERC721": false,
                        "sign": true,
                        "value": ""
                    }
                ]
            },
            {
                "account": "0x1f9090aae28b8a3dceadf281b0f12828e676c326",
                "assets": [
                    {
                        "address": "0xeeeeeeeeeeeeeeeeeeeeeeeeeeeeeeeeeeeeeeee",
                        "amount": "0.002360822110325663",
                        "iconUrl": "https://assets.blocksec.com/image/1663669189317-3.png",
                        "isERC1155": false,
                        "isERC721": false,
                        "sign": true,
                        "value": "7.323736683668935919"
                    }
                ]
            }
        ]
    },
    "profile": {
        "basic_info": {
            "baseFee": "3.101741445",
            "blockNumber": 20292408,
            "callData": "0x771d503f00000000000000000000000000000000000000000000000000086327bb438b9f00000000000000000000000011950d141ecb863f01007add7d1a342041227b58000000000000000000000000000000000000000003adbcde90dedae0000000000000000000000000000000000000000000000000000000002c40fa0263ab9e00000000000000000000000000000000000000000000000000000000000000000100000000000000000000000000000000000000000000000000000000000000c000000000000000000000000000000000000000000000000000000000000000146982508145454ce325ddbe47a25d4ec3d2311933000000000000000000000000",
            "debugEnable": true,
            "errorInfo": "",
            "eventCount": 3,
            "feeRecipient": "0x1f9090aae28b8a3dceadf281b0f12828e676c326",
            "formatValue": "0",
            "gasLimit": 356460,
            "gasPrice": "3.101741445",
            "gasUsed": 127958,
            "intTxnCount": 7,
            "internalRevert": false,
            "internalRevertMessage": "",
            "isContractCreation": false,
            "isFlashloan": false,
            "maxFee": "3.102051619",
            "nonce": 7173,
            "overwritedBlockNumber": -1,
            "priorityFee": "0",
            "receiver": "0x51c72848c68a965f66fa7a88855f9f7784502a7f",
            "revertMessage": "",
            "sender": "0xbe66ec1b912af7f15fe45fee74e4f77efdd414c8",
            "simulationEnable": true,
            "sourceTxnHash": "0xb9a72d2dc8a7627880d446a05560d55d81abfadf0bfaab3999e53b8af549c7d8",
            "status": true,
            "timestamp": "2024-07-12T19:06:35Z",
            "transactionFee": "0.00039689263181931",
            "txnHash": "0xb9a72d2dc8a7627880d446a05560d55d81abfadf0bfaab3999e53b8af549c7d8",
            "txnIndex": 4,
            "type": 2,
            "value": "0"
        },
        "fund_flow": [
            {
                "amount": "3.188839384668176413",
                "from": "0x11950d141ecb863f01007add7d1a342041227b58",
                "id": 1,
                "isERC1155": false,
                "isERC721": false,
                "isReverted": false,
                "order": 1,
                "to": "0x51c72848c68a965f66fa7a88855f9f7784502a7f",
                "token": "0xc02aaa39b223fe8d0a0e5c4f27ead9083c756cc2"
            },
            {
                "amount": "1,138,491,106.772351552118063105",
                "from": "0x51c72848c68a965f66fa7a88855f9f7784502a7f",
                "id": 2,
                "isERC1155": false,
                "isERC721": false,
                "isReverted": false,
                "order": 2,
                "to": "0x11950d141ecb863f01007add7d1a342041227b58",
                "token": "0x6982508145454ce325ddbe47a25d4ec3d2311933"
            },
            {
                "amount": "0.002360822110325663",
                "from": "0x51c72848c68a965f66fa7a88855f9f7784502a7f",
                "id": 3,
                "isERC1155": false,
                "isERC721": false,
                "isReverted": false,
                "order": 3,
                "to": "0x1f9090aae28b8a3dceadf281b0f12828e676c326",
                "token": "0xeeeeeeeeeeeeeeeeeeeeeeeeeeeeeeeeeeeeeeee"
            }
        ],
        "token_infos": [
            {
                "address": "0x6982508145454ce325ddbe47a25d4ec3d2311933",
                "decimals": 18
            },
            {
                "address": "0xc02aaa39b223fe8d0a0e5c4f27ead9083c756cc2",
                "decimals": 18
            },
            {
                "address": "0xeeeeeeeeeeeeeeeeeeeeeeeeeeeeeeeeeeeeeeee",
                "decimals": 18
            }
        ]
    },
    "address_label": {
        "labels": [
            {
                "address": "0x0000000000000000000000000000000000000004",
                "label": "Precompiled"
            },
            {
                "address": "0xeeeeeeeeeeeeeeeeeeeeeeeeeeeeeeeeeeeeeeee",
                "label": "Ether"
            },
            {
                "address": "0x1f9090aae28b8a3dceadf281b0f12828e676c326",
                "label": "rsync-builder"
            },
            {
                "address": "0xc02aaa39b223fe8d0a0e5c4f27ead9083c756cc2",
                "label": "Wrapped Ether (WETH)"
            },
            {
                "address": "0x6982508145454ce325ddbe47a25d4ec3d2311933",
                "label": "Pepe: PEPE Token"
            },
            {
                "address": "0x0000000000000000000000000000000000000002",
                "label": "Precompiled"
            },
            {
                "address": "0x11950d141ecb863f01007add7d1a342041227b58",
                "label": "Uniswap V3: PEPE 4"
            },
            {
                "address": "0x51c72848c68a965f66fa7a88855f9f7784502a7f",
                "label": "MEV Bot: 0x51C\u2026a7F"
            },
            {
                "address": "0x0000000000000000000000000000000000000001",
                "label": "Precompiled"
            },
            {
                "address": "0x0000000000000000000000000000000000000003",
                "label": "Precompiled"
            }
        ]
    },
    "trace": {
        "accountLabels": null,
        "dataMap": {
            "-1": {
                "invocation": {
                    "address": "0xbe66ec1b912af7f15fe45fee74e4f77efdd414c8",
                    "callData": "",
                    "decodedMethod": null,
                    "errorInfo": "",
                    "fromAddress": "",
                    "gasUsed": 0,
                    "id": -1,
                    "methodDecoded": false,
                    "operation": "",
                    "output": "",
                    "revert": false,
                    "revertMessage": "",
                    "selector": "",
                    "status": false,
                    "value": ""
                },
                "nodeType": 0
            },
            "0": {
                "invocation": {
                    "address": "0x51c72848c68a965f66fa7a88855f9f7784502a7f",
                    "callData": "0x00000000000000000000000000000000000000000000000000086327bb438b9f00000000000000000000000011950d141ecb863f01007add7d1a342041227b58000000000000000000000000000000000000000003adbcde90dedae0000000000000000000000000000000000000000000000000000000002c40fa0263ab9e00000000000000000000000000000000000000000000000000000000000000000100000000000000000000000000000000000000000000000000000000000000c000000000000000000000000000000000000000000000000000000000000000146982508145454ce325ddbe47a25d4ec3d2311933000000000000000000000000",
                    "decodedMethod": null,
                    "errorInfo": "",
                    "fromAddress": "0xbe66ec1b912af7f15fe45fee74e4f77efdd414c8",
                    "gasUsed": 127958,
                    "id": 0,
                    "methodDecoded": false,
                    "operation": "CALL",
                    "output": "",
                    "revert": false,
                    "revertMessage": "",
                    "selector": "0x771d503f",
                    "status": true,
                    "value": "0"
                },
                "nodeType": 0
            },
            "1": {
                "invocation": {
                    "address": "0x11950d141ecb863f01007add7d1a342041227b58",
                    "callData": "0x00000000000000000000000051c72848c68a965f66fa7a88855f9f7784502a7f0000000000000000000000000000000000000000000000000000000000000001000000000000000000000000000000000000000003adbcde90dedae00000000000000000000000000000000000000000000000000000000000000001000276a400000000000000000000000000000000000000000000000000000000000000a000000000000000000000000000000000000000000000000000000000000000146982508145454ce325ddbe47a25d4ec3d2311933000000000000000000000000",
                    "decodedMethod": {
                        "callParams": [
                            {
                                "name": "recipient",
                                "type": "address",
                                "value": "0x51c72848c68a965f66fa7a88855f9f7784502a7f"
                            },
                            {
                                "name": "zeroForOne",
                                "type": "bool",
                                "value": true
                            },
                            {
                                "name": "amountSpecified",
                                "type": "int256",
                                "value": "1,138,491,106,772,351,552,118,063,104"
                            },
                            {
                                "name": "sqrtPriceLimitX96",
                                "type": "uint160",
                                "value": "4,295,128,740"
                            },
                            {
                                "name": "data",
                                "type": "bytes",
                                "value": "0x6982508145454ce325ddbe47a25d4ec3d2311933"
                            }
                        ],
                        "constructorArguments": "",
                        "name": "swap",
                        "returnParams": [
                            {
                                "name": "amount0",
                                "type": "int256",
                                "value": "1,138,491,106,772,351,552,118,063,104"
                            },
                            {
                                "name": "amount1",
                                "type": "int256",
                                "value": "-3,188,839,384,668,176,413"
                            }
                        ],
                        "signature": "swap(address,bool,int256,uint160,bytes)"
                    },
                    "errorInfo": "",
                    "fromAddress": "0x51c72848c68a965f66fa7a88855f9f7784502a7f",
                    "gasUsed": 84787,
                    "id": 1,
                    "methodDecoded": true,
                    "operation": "CALL",
                    "output": "0x000000000000000000000000000000000000000003adbcde90dedae000000000ffffffffffffffffffffffffffffffffffffffffffffffffd3bef7798f13ffe3",
                    "revert": false,
                    "revertMessage": "",
                    "selector": "0x128acb08",
                    "status": true,
                    "value": "0"
                },
                "nodeType": 0
            },
            "10": {
                "invocation": {
                    "address": "0x1f9090aae28b8a3dceadf281b0f12828e676c326",
                    "callData": "0x",
                    "decodedMethod": null,
                    "errorInfo": "",
                    "fromAddress": "0x51c72848c68a965f66fa7a88855f9f7784502a7f",
                    "gasUsed": 0,
                    "id": 10,
                    "methodDecoded": false,
                    "operation": "CALL",
                    "output": "",
                    "revert": false,
                    "revertMessage": "",
                    "selector": "fallback",
                    "status": true,
                    "value": "0.002360822110325663"
                },
                "nodeType": 0
            },
            "2": {
                "invocation": {
                    "address": "0xc02aaa39b223fe8d0a0e5c4f27ead9083c756cc2",
                    "callData": "0x00000000000000000000000051c72848c68a965f66fa7a88855f9f7784502a7f0000000000000000000000000000000000000000000000002c41088670ec001d",
                    "decodedMethod": {
                        "callParams": [
                            {
                                "name": "dst",
                                "type": "address",
                                "value": "0x51c72848c68a965f66fa7a88855f9f7784502a7f"
                            },
                            {
                                "decimalAvailable": true,
                                "name": "wad",
                                "type": "uint256",
                                "value": "3,188,839,384,668,176,413"
                            }
                        ],
                        "constructorArguments": "",
                        "name": "transfer",
                        "returnParams": [
                            {
                                "name": "",
                                "type": "bool",
                                "value": true
                            }
                        ],
                        "signature": "transfer(address,uint256)"
                    },
                    "errorInfo": "",
                    "fromAddress": "0x11950d141ecb863f01007add7d1a342041227b58",
                    "gasUsed": 12862,
                    "id": 2,
                    "methodDecoded": true,
                    "operation": "CALL",
                    "output": "0x0000000000000000000000000000000000000000000000000000000000000001",
                    "revert": false,
                    "revertMessage": "",
                    "selector": "0xa9059cbb",
                    "status": true,
                    "value": "0"
                },
                "nodeType": 0
            },
            "3": {
                "event": {
                    "contract": "0xc02aaa39b223fe8d0a0e5c4f27ead9083c756cc2",
                    "decodedLog": {
                        "name": "Transfer",
                        "params": [
                            {
                                "name": "src",
                                "type": "address",
                                "value": "0x11950d141ecb863f01007add7d1a342041227b58"
                            },
                            {
                                "name": "dst",
                                "type": "address",
                                "value": "0x51c72848c68a965f66fa7a88855f9f7784502a7f"
                            },
                            {
                                "decimalAvailable": true,
                                "name": "wad",
                                "type": "uint256",
                                "value": "3,188,839,384,668,176,413"
                            }
                        ],
                        "signature": "Transfer(address,address,uint256)"
                    },
                    "id": 3,
                    "logData": "0x0000000000000000000000000000000000000000000000002c41088670ec001d",
                    "logDecoded": true,
                    "operation": "EVENT",
                    "revert": false,
                    "status": true,
                    "topics": [
                        "0xddf252ad1be2c89b69c2b068fc378daa952ba7f163c4a11628f55a4df523b3ef",
                        "0x00000000000000000000000011950d141ecb863f01007add7d1a342041227b58",
                        "0x00000000000000000000000051c72848c68a965f66fa7a88855f9f7784502a7f"
                    ]
                },
                "nodeType": 1
            },
            "4": {
                "invocation": {
                    "address": "0x6982508145454ce325ddbe47a25d4ec3d2311933",
                    "callData": "0x00000000000000000000000011950d141ecb863f01007add7d1a342041227b58",
                    "decodedMethod": {
                        "callParams": [
                            {
                                "name": "account",
                                "type": "address",
                                "value": "0x11950d141ecb863f01007add7d1a342041227b58"
                            }
                        ],
                        "constructorArguments": "",
                        "name": "balanceOf",
                        "returnParams": [
                            {
                                "decimalAvailable": true,
                                "name": "",
                                "type": "uint256",
                                "value": "552,551,383,020,862,518,566,913,715,221"
                            }
                        ],
                        "signature": "balanceOf(address)"
                    },
                    "errorInfo": "",
                    "fromAddress": "0x11950d141ecb863f01007add7d1a342041227b58",
                    "gasUsed": 2624,
                    "id": 4,
                    "methodDecoded": true,
                    "operation": "STATICCALL",
                    "output": "0x0000000000000000000000000000000000000006f963ca9e0df11fec05422c15",
                    "revert": false,
                    "revertMessage": "",
                    "selector": "0x70a08231",
                    "status": true,
                    "value": "0"
                },
                "nodeType": 0
            },
            "5": {
                "invocation": {
                    "address": "0x51c72848c68a965f66fa7a88855f9f7784502a7f",
                    "callData": "0x000000000000000000000000000000000000000003adbcde90dedae000000000ffffffffffffffffffffffffffffffffffffffffffffffffd3bef7798f13ffe3000000000000000000000000000000000000000000000000000000000000006000000000000000000000000000000000000000000000000000000000000000146982508145454ce325ddbe47a25d4ec3d2311933000000000000000000000000",
                    "decodedMethod": {
                        "callParams": [
                            {
                                "name": "amount0Delta",
                                "type": "int256",
                                "value": "1,138,491,106,772,351,552,118,063,104"
                            },
                            {
                                "name": "amount1Delta",
                                "type": "int256",
                                "value": "-3,188,839,384,668,176,413"
                            },
                            {
                                "name": "data",
                                "type": "bytes",
                                "value": "0x6982508145454ce325ddbe47a25d4ec3d2311933"
                            }
                        ],
                        "constructorArguments": "",
                        "name": "uniswapV3SwapCallback",
                        "returnParams": [],
                        "signature": "uniswapV3SwapCallback(int256,int256,bytes)"
                    },
                    "errorInfo": "",
                    "fromAddress": "0x11950d141ecb863f01007add7d1a342041227b58",
                    "gasUsed": 22467,
                    "id": 5,
                    "methodDecoded": true,
                    "operation": "CALL",
                    "output": "",
                    "revert": false,
                    "revertMessage": "",
                    "selector": "0xfa461e33",
                    "status": true,
                    "value": "0"
                },
                "nodeType": 0
            },
            "6": {
                "invocation": {
                    "address": "0x6982508145454ce325ddbe47a25d4ec3d2311933",
                    "callData": "0x00000000000000000000000011950d141ecb863f01007add7d1a342041227b58000000000000000000000000000000000000000003adbcde90dedae000000000",
                    "decodedMethod": {
                        "callParams": [
                            {
                                "name": "recipient",
                                "type": "address",
                                "value": "0x11950d141ecb863f01007add7d1a342041227b58"
                            },
                            {
                                "decimalAvailable": true,
                                "name": "amount",
                                "type": "uint256",
                                "value": "1,138,491,106,772,351,552,118,063,104"
                            }
                        ],
                        "constructorArguments": "",
                        "name": "transfer",
                        "returnParams": [
                            {
                                "name": "",
                                "type": "bool",
                                "value": true
                            }
                        ],
                        "signature": "transfer(address,uint256)"
                    },
                    "errorInfo": "",
                    "fromAddress": "0x51c72848c68a965f66fa7a88855f9f7784502a7f",
                    "gasUsed": 19706,
                    "id": 6,
                    "methodDecoded": true,
                    "operation": "CALL",
                    "output": "0x0000000000000000000000000000000000000000000000000000000000000001",
                    "revert": false,
                    "revertMessage": "",
                    "selector": "0xa9059cbb",
                    "status": true,
                    "value": "0"
                },
                "nodeType": 0
            },
            "7": {
                "event": {
                    "contract": "0x6982508145454ce325ddbe47a25d4ec3d2311933",
                    "decodedLog": {
                        "name": "Transfer",
                        "params": [
                            {
                                "name": "from",
                                "type": "address",
                                "value": "0x51c72848c68a965f66fa7a88855f9f7784502a7f"
                            },
                            {
                                "name": "to",
                                "type": "address",
                                "value": "0x11950d141ecb863f01007add7d1a342041227b58"
                            },
                            {
                                "decimalAvailable": true,
                                "name": "value",
                                "type": "uint256",
                                "value": "1,138,491,106,772,351,552,118,063,104"
                            }
                        ],
                        "signature": "Transfer(address,address,uint256)"
                    },
                    "id": 7,
                    "logData": "0x000000000000000000000000000000000000000003adbcde90dedae000000000",
                    "logDecoded": true,
                    "operation": "EVENT",
                    "revert": false,
                    "status": true,
                    "topics": [
                        "0xddf252ad1be2c89b69c2b068fc378daa952ba7f163c4a11628f55a4df523b3ef",
                        "0x00000000000000000000000051c72848c68a965f66fa7a88855f9f7784502a7f",
                        "0x00000000000000000000000011950d141ecb863f01007add7d1a342041227b58"
                    ]
                },
                "nodeType": 1
            },
            "8": {
                "invocation": {
                    "address": "0x6982508145454ce325ddbe47a25d4ec3d2311933",
                    "callData": "0x00000000000000000000000011950d141ecb863f01007add7d1a342041227b58",
                    "decodedMethod": {
                        "callParams": [
                            {
                                "name": "account",
                                "type": "address",
                                "value": "0x11950d141ecb863f01007add7d1a342041227b58"
                            }
                        ],
                        "constructorArguments": "",
                        "name": "balanceOf",
                        "returnParams": [
                            {
                                "decimalAvailable": true,
                                "name": "",
                                "type": "uint256",
                                "value": "553,689,874,127,634,870,119,031,778,325"
                            }
                        ],
                        "signature": "balanceOf(address)"
                    },
                    "errorInfo": "",
                    "fromAddress": "0x11950d141ecb863f01007add7d1a342041227b58",
                    "gasUsed": 624,
                    "id": 8,
                    "methodDecoded": true,
                    "operation": "STATICCALL",
                    "output": "0x0000000000000000000000000000000000000006fd11877c9ecffacc05422c15",
                    "revert": false,
                    "revertMessage": "",
                    "selector": "0x70a08231",
                    "status": true,
                    "value": "0"
                },
                "nodeType": 0
            },
            "9": {
                "event": {
                    "contract": "0x11950d141ecb863f01007add7d1a342041227b58",
                    "decodedLog": {
                        "name": "Swap",
                        "params": [
                            {
                                "name": "sender",
                                "type": "address",
                                "value": "0x51c72848c68a965f66fa7a88855f9f7784502a7f"
                            },
                            {
                                "name": "recipient",
                                "type": "address",
                                "value": "0x51c72848c68a965f66fa7a88855f9f7784502a7f"
                            },
                            {
                                "name": "amount0",
                                "type": "int256",
                                "value": "1,138,491,106,772,351,552,118,063,104"
                            },
                            {
                                "name": "amount1",
                                "type": "int256",
                                "value": "-3,188,839,384,668,176,413"
                            },
                            {
                                "name": "sqrtPriceX96",
                                "type": "uint160",
                                "value": "4,197,889,683,509,828,574,641,123"
                            },
                            {
                                "name": "liquidity",
                                "type": "uint128",
                                "value": "85,675,685,841,462,511,982,548,119"
                            },
                            {
                                "name": "tick",
                                "type": "int24",
                                "value": "-196,920"
                            }
                        ],
                        "signature": "Swap(address,address,int256,int256,uint160,uint128,int24)"
                    },
                    "id": 9,
                    "logData": "0x000000000000000000000000000000000000000003adbcde90dedae000000000ffffffffffffffffffffffffffffffffffffffffffffffffd3bef7798f13ffe30000000000000000000000000000000000000000000378f00e44b36c7411fbe300000000000000000000000000000000000000000046de883c659409a1fb1497fffffffffffffffffffffffffffffffffffffffffffffffffffffffffffcfec8",
                    "logDecoded": true,
                    "operation": "EVENT",
                    "revert": false,
                    "status": true,
                    "topics": [
                        "0xc42079f94a6350d7e6235f29174924f928cc2ac818eb64fed8004e115fbcca67",
                        "0x00000000000000000000000051c72848c68a965f66fa7a88855f9f7784502a7f",
                        "0x00000000000000000000000051c72848c68a965f66fa7a88855f9f7784502a7f"
                    ]
                },
                "nodeType": 1
            }
        },
        "gasFlame": [
            {
                "children": [
                    {
                        "children": [
                            {
                                "children": [],
                                "depth": 0,
                                "name": "Initial Gas",
                                "value": 22856
                            },
                            {
                                "children": [
                                    {
                                        "children": [
                                            {
                                                "children": [],
                                                "depth": 2,
                                                "name": "transfer",
                                                "value": 12862
                                            },
                                            {
                                                "children": [],
                                                "depth": 2,
                                                "name": "balanceOf",
                                                "value": 2624
                                            },
                                            {
                                                "children": [
                                                    {
                                                        "children": [],
                                                        "depth": 3,
                                                        "name": "transfer",
                                                        "value": 19706
                                                    }
                                                ],
                                                "depth": 2,
                                                "name": "uniswapV3SwapCallback",
                                                "value": 22467
                                            },
                                            {
                                                "children": [],
                                                "depth": 2,
                                                "name": "balanceOf",
                                                "value": 624
                                            }
                                        ],
                                        "depth": 1,
                                        "name": "swap",
                                        "value": 84787
                                    },
                                    {
                                        "children": [],
                                        "depth": 1,
                                        "name": "fallback",
                                        "value": 0
                                    }
                                ],
                                "depth": 0,
                                "name": "Executed Gas",
                                "value": 105102
                            }
                        ],
                        "depth": -1,
                        "name": "Actual Gas Used",
                        "value": 127958
                    },
                    {
                        "children": [],
                        "depth": -1,
                        "name": "Refunded Gas",
                        "value": 0
                    }
                ],
                "depth": -2,
                "name": "Total Gas",
                "value": 127958
            }
        ],
        "isConfirmed": true,
        "mainTrace": [
            {
                "children": [
                    {
                        "children": [
                            {
                                "children": [
                                    {
                                        "children": [
                                            {
                                                "children": [],
                                                "depth": 3,
                                                "id": 3,
                                                "order": 3
                                            }
                                        ],
                                        "depth": 2,
                                        "id": 2,
                                        "order": 2
                                    },
                                    {
                                        "children": [],
                                        "depth": 2,
                                        "id": 4,
                                        "order": 4
                                    },
                                    {
                                        "children": [
                                            {
                                                "children": [
                                                    {
                                                        "children": [],
                                                        "depth": 4,
                                                        "id": 7,
                                                        "order": 7
                                                    }
                                                ],
                                                "depth": 3,
                                                "id": 6,
                                                "order": 6
                                            }
                                        ],
                                        "depth": 2,
                                        "id": 5,
                                        "order": 5
                                    },
                                    {
                                        "children": [],
                                        "depth": 2,
                                        "id": 8,
                                        "order": 8
                                    },
                                    {
                                        "children": [],
                                        "depth": 2,
                                        "id": 9,
                                        "order": 9
                                    }
                                ],
                                "depth": 1,
                                "id": 1,
                                "order": 1
                            },
                            {
                                "children": [],
                                "depth": 1,
                                "id": 10,
                                "order": 10
                            }
                        ],
                        "depth": 0,
                        "id": 0,
                        "order": 0
                    }
                ],
                "depth": -1,
                "id": -1,
                "order": -1
            }
        ],
        "mainTraceNodeCount": 11,
        "parentIdMap": {
            "0": -1,
            "1": 0,
            "10": 0,
            "2": 1,
            "3": 2,
            "4": 1,
            "5": 1,
            "6": 5,
            "7": 6,
            "8": 1,
            "9": 1
        },
        "tidyTrace": [
            {
                "children": [
                    {
                        "children": [
                            {
                                "children": [
                                    {
                                        "children": [
                                            {
                                                "children": [],
                                                "depth": 3,
                                                "id": 3,
                                                "order": 3
                                            }
                                        ],
                                        "depth": 2,
                                        "id": 2,
                                        "order": 2
                                    },
                                    {
                                        "children": [
                                            {
                                                "children": [
                                                    {
                                                        "children": [],
                                                        "depth": 4,
                                                        "id": 7,
                                                        "order": 7
                                                    }
                                                ],
                                                "depth": 3,
                                                "id": 6,
                                                "order": 6
                                            }
                                        ],
                                        "depth": 2,
                                        "id": 5,
                                        "order": 5
                                    },
                                    {
                                        "children": [],
                                        "depth": 2,
                                        "id": 9,
                                        "order": 9
                                    }
                                ],
                                "depth": 1,
                                "id": 1,
                                "order": 1
                            },
                            {
                                "children": [],
                                "depth": 1,
                                "id": 10,
                                "order": 10
                            }
                        ],
                        "depth": 0,
                        "id": 0,
                        "order": 0
                    }
                ],
                "depth": -1,
                "id": -1,
                "order": -1
            }
        ],
        "tidyTraceNodeCount": 9
    },
    "state_change": {
        "stateChanges": [
            {
                "address": "0x11950d141ecb863f01007add7d1a342041227b58",
                "erc": "",
                "slots": [
                    {
                        "current": "0x00010000b400b40010fcfec80000000000000000000378f00e44b36c7411fbe3",
                        "key": "0x0000000000000000000000000000000000000000000000000000000000000000",
                        "prev": "0x00010000b400b4000ffcfed600000000000000000003798fe9f7a7cf33f9948e"
                    },
                    {
                        "current": "0x01000005e80000000000000008a3f87370d7c7b8c7fff8a192aae51066917ebb",
                        "key": "0x0000000000000000000000000000000000000000000000000000000000000018",
                        "prev": "0x01000005e80000000000000008a14873d6df022c2dfff8a372bacb806690df07"
                    },
                    {
                        "current": "0x00000000000000000000000000008147f5bd10890f53d5aa6c0938cfdcab4af0",
                        "key": "0x0000000000000000000000000000000000000000000000000000000000000001",
                        "prev": "0x00000000000000000000000000008147eb8876730335fa462d77b6038a0021f3"
                    }
                ],
                "storageVariables": []
            },
            {
                "address": "0x6982508145454ce325ddbe47a25d4ec3d2311933",
                "erc": "ERC-20",
                "slots": [
                    {
                        "current": "0x00000000000000000000000000000000000000006cca4ba5ea6583713df5b10d",
                        "key": "0xfe7d135c098a010479fffbc652c63e864b8bcbaa36ed22e405acad3d04612a8b",
                        "prev": "0x0000000000000000000000000000000000000000707808847b445e513df5b10d"
                    },
                    {
                        "current": "0x0000000000000000000000000000000000000006fd11877c9ecffacc05422c15",
                        "key": "0xba43b84b17deebeec7f36d05cea2b2641fd23600f9e29f5940ca5a63978b912d",
                        "prev": "0x0000000000000000000000000000000000000006f963ca9e0df11fec05422c15"
                    }
                ],
                "storageVariables": [
                    {
                        "name": "_balances",
                        "type": "mapping(address => uint256)",
                        "value": {
                            "pairs": [
                                {
                                    "key": "0x11950d141ecb863f01007add7d1a342041227b58",
                                    "value": {
                                        "current": "553689874127634870119031778325",
                                        "prev": "552551383020862518566913715221",
                                        "typeTag": 1
                                    }
                                },
                                {
                                    "key": "0x51c72848c68a965f66fa7a88855f9f7784502a7f",
                                    "value": {
                                        "current": "33668941314356460400951013645",
                                        "prev": "34807432421128811953069076749",
                                        "typeTag": 1
                                    }
                                }
                            ],
                            "typeTag": 4
                        }
                    }
                ]
            },
            {
                "address": "0xc02aaa39b223fe8d0a0e5c4f27ead9083c756cc2",
                "erc": "ERC-20",
                "slots": [
                    {
                        "current": "0x000000000000000000000000000000000000000000000054c0b2c79c2b842475",
                        "key": "0x3a3aec5717af62dfc0f5ede964a3e44cef7c5ba4453963ee6e3545ea9708690f",
                        "prev": "0x0000000000000000000000000000000000000000000000549471bf15ba982458"
                    },
                    {
                        "current": "0x000000000000000000000000000000000000000000000014ebd3b4804ef9be79",
                        "key": "0xc906b0b0df36e2042f059120e95e6dd99f11c9ac2ef306a59ba0efa77fd8622d",
                        "prev": "0x0000000000000000000000000000000000000000000000151814bd06bfe5be96"
                    }
                ],
                "storageVariables": [
                    {
                        "name": "balanceOf",
                        "type": "mapping(address => uint256)",
                        "value": {
                            "pairs": [
                                {
                                    "key": "0x11950d141ecb863f01007add7d1a342041227b58",
                                    "value": {
                                        "current": "385928005756363849337",
                                        "prev": "389116845141032025750",
                                        "typeTag": 1
                                    }
                                },
                                {
                                    "key": "0x51c72848c68a965f66fa7a88855f9f7784502a7f",
                                    "value": {
                                        "current": "1563411882266297902197",
                                        "prev": "1560223042881629725784",
                                        "typeTag": 1
                                    }
                                }
                            ],
                            "typeTag": 4
                        }
                    }
                ]
            }
        ]
    }
}