{
    "balance_change": {
        "balanceChanges": []
    },
    "profile": {
        "basic_info": {
            "baseFee": "13.791539718",
            "blockNumber": 17846386,
            "callData": "0x646174613a2c7b2270223a226572632d3230222c226f70223a226d696e74222c227469636b223a226d656d65222c226964223a223133383534222c22616d74223a2231303030227d",
            "debugEnable": true,
            "errorInfo": "",
            "eventCount": 0,
            "feeRecipient": "0x95222290dd7278aa3ddd389cc1e1d165cc4bafe5",
            "formatValue": "0",
            "gasLimit": 22152,
            "gasPrice": "15.291539718",
            "gasUsed": 22152,
            "intTxnCount": 0,
            "internalRevert": false,
            "internalRevertMessage": "",
            "isContractCreation": false,
            "isFlashloan": false,
            "maxFee": "28.67543478",
            "nonce": 12027,
            "overwritedBlockNumber": -1,
            "priorityFee": "1.5",
            "receiver": "0x3ffe3fe462559d11764434fbfce77a4970085c67",
            "revertMessage": "",
            "sender": "0x3ffe3fe462559d11764434fbfce77a4970085c67",
            "simulationEnable": true,
            "sourceTxnHash": "0xbabbce063b2d2a9cb089866982b78c0948f69562de539dc4b70d3d56d4ffc365",
            "status": true,
            "timestamp": "2023-08-05T04:28:47Z",
            "transactionFee": "0.000338738187833136",
            "txnHash": "0xbabbce063b2d2a9cb089866982b78c0948f69562de539dc4b70d3d56d4ffc365",
            "txnIndex": 76,
            "type": 2,
            "value": "0"
        },
        "fund_flow": [],
        "token_infos": [
            {
                "address": "0xc02aaa39b223fe8d0a0e5c4f27ead9083c756cc2",
                "decimals": 18
            },
            {
                "address": "0xeeeeeeeeeeeeeeeeeeeeeeeeeeeeeeeeeeeeeeee",
                "decimals": 18
            }
        ]
    },
    "address_label": {
        "labels": [
            {
                "address": "0x0000000000000000000000000000000000000001",
                "label": "Precompiled"
            },
            {
                "address": "0x0000000000000000000000000000000000000002",
                "label": "Precompiled"
            },
            {
                "address": "0x0000000000000000000000000000000000000003",
                "label": "Precompiled"
            },
            {
                "address": "0x0000000000000000000000000000000000000004",
                "label": "Precompiled"
            },
            {
                "address": "0xeeeeeeeeeeeeeeeeeeeeeeeeeeeeeeeeeeeeeeee",
                "label": "Ether"
            }
        ]
    },
    "trace": {
        "accountLabels": null,
        "dataMap": {
            "-1": {
                "invocation": {
                    "address": "0x3ffe3fe462559d11764434fbfce77a4970085c67",
                    "callData": "",
                    "decodedMethod": null,
                    "errorInfo": "",
                    "fromAddress": "",
                    "gasUsed": 0,
                    "id": -1,
                    "methodDecoded": false,
                    "operation": "",
                    "output": "",
                    "revert": false,
                    "revertMessage": "",
                    "selector": "",
                    "status": false,
                    "value": ""
                },
                "nodeType": 0
            },
            "0": {
                "invocation": {
                    "address": "0x3ffe3fe462559d11764434fbfce77a4970085c67",
                    "callData": "0x3a2c7b2270223a226572632d3230222c226f70223a226d696e74222c227469636b223a226d656d65222c226964223a223133383534222c22616d74223a2231303030227d",
                    "decodedMethod": {
                        "callParams": [],
                        "constructorArguments": "",
                        "name": "ethsGEGzXlymji3hvTyjQnpYo",
                        "returnParams": [],
                        "signature": "ethsGEGzXlymji3hvTyjQnpYo()"
                    },
                    "errorInfo": "",
                    "fromAddress": "0x3ffe3fe462559d11764434fbfce77a4970085c67",
                    "gasUsed": 22152,
                    "id": 0,
                    "methodDecoded": true,
                    "operation": "CALL",
                    "output": "",
                    "revert": false,
                    "revertMessage": "",
                    "selector": "0x64617461",
                    "status": true,
                    "value": "0"
                },
                "nodeType": 0
            }
        },
        "gasFlame": [
            {
                "children": [
                    {
                        "children": [
                            {
                                "children": [],
                                "depth": 0,
                                "name": "Initial Gas",
                                "value": 22152
                            },
                            {
                                "children": [],
                                "depth": 0,
                                "name": "Executed Gas",
                                "value": 0
                            }
                        ],
                        "depth": -1,
                        "name": "Actual Gas Used",
                        "value": 22152
                    },
                    {
                        "children": [],
                        "depth": -1,
                        "name": "Refunded Gas",
                        "value": 0
                    }
                ],
                "depth": -2,
                "name": "Total Gas",
                "value": 22152
            }
        ],
        "isConfirmed": true,
        "mainTrace": [
            {
                "children": [
                    {
                        "children": [],
                        "depth": 0,
                        "id": 0,
                        "order": 0
                    }
                ],
                "depth": -1,
                "id": -1,
                "order": -1
            }
        ],
        "mainTraceNodeCount": 1,
        "parentIdMap": {
            "0": -1
        },
        "tidyTrace": [
            {
                "children": [
                    {
                        "children": [],
                        "depth": 0,
                        "id": 0,
                        "order": 0
                    }
                ],
                "depth": -1,
                "id": -1,
                "order": -1
            }
        ],
        "tidyTraceNodeCount": 1
    },
    "state_change": {
        "stateChanges": []
    }
}