{
    "balance_change": {
        "balanceChanges": [
            {
                "account": "0x0a5149b07500a0c3506a686302116c3baa3fb24b",
                "assets": [
                    {
                        "address": "0x144c7c154fd9952217ac98d06f9bf9fce64d1fd7",
                        "amount": "0.0001",
                        "iconUrl": "",
                        "isERC1155": false,
                        "isERC721": false,
                        "sign": true,
                        "value": ""
                    }
                ]
            },
            {
                "account": "0x0102e6b6a3e38ec8640afac16a42eb9ee868533d",
                "assets": [
                    {
                        "address": "0x144c7c154fd9952217ac98d06f9bf9fce64d1fd7",
                        "amount": "0.0001",
                        "iconUrl": "",
                        "isERC1155": false,
                        "isERC721": false,
                        "sign": false,
                        "value": ""
                    }
                ]
            }
        ]
    },
    "profile": {
        "basic_info": {
            "baseFee": "",
            "blockNumber": 5909657,
            "callData": "0x835fc6ca0000000000000000000000000000000000000000000000000000000000000001",
            "debugEnable": true,
            "errorInfo": "",
            "eventCount": 1,
            "feeRecipient": "0xb2930b35844a230f00e51431acae96fe543a0347",
            "formatValue": "0",
            "gasLimit": 90553,
            "gasPrice": "82",
            "gasUsed": 51416,
            "intTxnCount": 2,
            "internalRevert": false,
            "internalRevertMessage": "",
            "isContractCreation": false,
            "isFlashloan": false,
            "maxFee": "",
            "nonce": 30,
            "overwritedBlockNumber": -1,
            "priorityFee": "",
            "receiver": "0x0102e6b6a3e38ec8640afac16a42eb9ee868533d",
            "revertMessage": "",
            "sender": "0x0a5149b07500a0c3506a686302116c3baa3fb24b",
            "simulationEnable": true,
            "sourceTxnHash": "0xba06255fd0301b187b8f157035c280eefb8dff73d49f9659bfc6e9eea5147143",
            "status": true,
            "timestamp": "2018-07-05T11:19:34Z",
            "transactionFee": "0.004216112",
            "txnHash": "0xba06255fd0301b187b8f157035c280eefb8dff73d49f9659bfc6e9eea5147143",
            "txnIndex": 8,
            "type": 0,
            "value": "0"
        },
        "fund_flow": [
            {
                "amount": "0.0001",
                "from": "0x0102e6b6a3e38ec8640afac16a42eb9ee868533d",
                "id": 1,
                "isERC1155": false,
                "isERC721": false,
                "isReverted": false,
                "order": 1,
                "to": "0x0a5149b07500a0c3506a686302116c3baa3fb24b",
                "token": "0x144c7c154fd9952217ac98d06f9bf9fce64d1fd7"
            }
        ],
        "token_infos": [
            {
                "address": "0x144c7c154fd9952217ac98d06f9bf9fce64d1fd7",
                "decimals": 4
            },
            {
                "address": "0xc02aaa39b223fe8d0a0e5c4f27ead9083c756cc2",
                "decimals": 18
            },
            {
                "address": "0xeeeeeeeeeeeeeeeeeeeeeeeeeeeeeeeeeeeeeeee",
                "decimals": 18
            }
        ]
    },
    "address_label": {
        "labels": [
            {
                "address": "0xeeeeeeeeeeeeeeeeeeeeeeeeeeeeeeeeeeeeeeee",
                "label": "Ether"
            },
            {
                "address": "0x144c7c154fd9952217ac98d06f9bf9fce64d1fd7",
                "label": "DIGC"
            },
            {
                "address": "0x0000000000000000000000000000000000000001",
                "label": "Precompiled"
            },
            {
                "address": "0x0000000000000000000000000000000000000002",
                "label": "Precompiled"
            },
            {
                "address": "0x0000000000000000000000000000000000000003",
                "label": "Precompiled"
            },
            {
                "address": "0x0000000000000000000000000000000000000004",
                "label": "Precompiled"
            }
        ]
    },
    "trace": {
        "accountLabels": null,
        "dataMap": {
            "-1": {
                "invocation": {
                    "address": "0x0a5149b07500a0c3506a686302116c3baa3fb24b",
                    "callData": "",
                    "decodedMethod": null,
                    "errorInfo": "",
                    "fromAddress": "",
                    "gasUsed": 0,
                    "id": -1,
                    "methodDecoded": false,
                    "operation": "",
                    "output": "",
                    "revert": false,
                    "revertMessage": "",
                    "selector": "",
                    "status": false,
                    "value": ""
                },
                "nodeType": 0
            },
            "0": {
                "invocation": {
                    "address": "0x0102e6b6a3e38ec8640afac16a42eb9ee868533d",
                    "callData": "0x0000000000000000000000000000000000000000000000000000000000000001",
                    "decodedMethod": {
                        "callParams": [
                            {
                                "name": "_amount",
                                "type": "uint256",
                                "value": "1"
                            }
                        ],
                        "constructorArguments": "",
                        "name": "withdrawal",
                        "returnParams": [],
                        "signature": "withdrawal(uint256)"
                    },
                    "errorInfo": "",
                    "fromAddress": "0x0a5149b07500a0c3506a686302116c3baa3fb24b",
                    "gasUsed": 51416,
                    "id": 0,
                    "methodDecoded": true,
                    "operation": "CALL",
                    "output": "",
                    "revert": false,
                    "revertMessage": "",
                    "selector": "0x835fc6ca",
                    "status": true,
                    "value": "0"
                },
                "nodeType": 0
            },
            "1": {
                "invocation": {
                    "address": "0x144c7c154fd9952217ac98d06f9bf9fce64d1fd7",
                    "callData": "0x0000000000000000000000000a5149b07500a0c3506a686302116c3baa3fb24b0000000000000000000000000000000000000000000000000000000000000001",
                    "decodedMethod": {
                        "callParams": [
                            {
                                "name": "_to",
                                "type": "address",
                                "value": "0x0a5149b07500a0c3506a686302116c3baa3fb24b"
                            },
                            {
                                "decimalAvailable": true,
                                "name": "_value",
                                "type": "uint256",
                                "value": "1"
                            }
                        ],
                        "constructorArguments": "",
                        "name": "transfer",
                        "returnParams": [],
                        "signature": "transfer(address,uint256)"
                    },
                    "errorInfo": "",
                    "fromAddress": "0x0102e6b6a3e38ec8640afac16a42eb9ee868533d",
                    "gasUsed": 25855,
                    "id": 1,
                    "methodDecoded": true,
                    "operation": "CALL",
                    "output": "",
                    "revert": false,
                    "revertMessage": "",
                    "selector": "0xa9059cbb",
                    "status": true,
                    "value": "0"
                },
                "nodeType": 0
            },
            "2": {
                "event": {
                    "contract": "0x144c7c154fd9952217ac98d06f9bf9fce64d1fd7",
                    "decodedLog": {
                        "name": "Transfer",
                        "params": [
                            {
                                "name": "from",
                                "type": "address",
                                "value": "0x0102e6b6a3e38ec8640afac16a42eb9ee868533d"
                            },
                            {
                                "name": "to",
                                "type": "address",
                                "value": "0x0a5149b07500a0c3506a686302116c3baa3fb24b"
                            },
                            {
                                "decimalAvailable": true,
                                "name": "value",
                                "type": "uint256",
                                "value": "1"
                            }
                        ],
                        "signature": "Transfer(address,address,uint256)"
                    },
                    "id": 2,
                    "logData": "0x0000000000000000000000000000000000000000000000000000000000000001",
                    "logDecoded": true,
                    "operation": "EVENT",
                    "revert": false,
                    "status": true,
                    "topics": [
                        "0xddf252ad1be2c89b69c2b068fc378daa952ba7f163c4a11628f55a4df523b3ef",
                        "0x0000000000000000000000000102e6b6a3e38ec8640afac16a42eb9ee868533d",
                        "0x0000000000000000000000000a5149b07500a0c3506a686302116c3baa3fb24b"
                    ]
                },
                "nodeType": 1
            },
            "3": {
                "invocation": {
                    "address": "0x0a5149b07500a0c3506a686302116c3baa3fb24b",
                    "callData": "0x",
                    "decodedMethod": null,
                    "errorInfo": "",
                    "fromAddress": "0x0102e6b6a3e38ec8640afac16a42eb9ee868533d",
                    "gasUsed": 0,
                    "id": 3,
                    "methodDecoded": false,
                    "operation": "CALL",
                    "output": "",
                    "revert": false,
                    "revertMessage": "",
                    "selector": "fallback",
                    "status": true,
                    "value": "0"
                },
                "nodeType": 0
            }
        },
        "gasFlame": [
            {
                "children": [
                    {
                        "children": [
                            {
                                "children": [],
                                "depth": 0,
                                "name": "Initial Gas",
                                "value": 21464
                            },
                            {
                                "children": [
                                    {
                                        "children": [],
                                        "depth": 1,
                                        "name": "transfer",
                                        "value": 25855
                                    },
                                    {
                                        "children": [],
                                        "depth": 1,
                                        "name": "fallback",
                                        "value": 0
                                    }
                                ],
                                "depth": 0,
                                "name": "Executed Gas",
                                "value": 29952
                            }
                        ],
                        "depth": -1,
                        "name": "Actual Gas Used",
                        "value": 51416
                    },
                    {
                        "children": [],
                        "depth": -1,
                        "name": "Refunded Gas",
                        "value": 0
                    }
                ],
                "depth": -2,
                "name": "Total Gas",
                "value": 51416
            }
        ],
        "isConfirmed": true,
        "mainTrace": [
            {
                "children": [
                    {
                        "children": [
                            {
                                "children": [
                                    {
                                        "children": [],
                                        "depth": 2,
                                        "id": 2,
                                        "order": 2
                                    }
                                ],
                                "depth": 1,
                                "id": 1,
                                "order": 1
                            },
                            {
                                "children": [],
                                "depth": 1,
                                "id": 3,
                                "order": 3
                            }
                        ],
                        "depth": 0,
                        "id": 0,
                        "order": 0
                    }
                ],
                "depth": -1,
                "id": -1,
                "order": -1
            }
        ],
        "mainTraceNodeCount": 4,
        "parentIdMap": {
            "0": -1,
            "1": 0,
            "2": 1,
            "3": 0
        },
        "tidyTrace": [
            {
                "children": [
                    {
                        "children": [
                            {
                                "children": [
                                    {
                                        "children": [],
                                        "depth": 2,
                                        "id": 2,
                                        "order": 2
                                    }
                                ],
                                "depth": 1,
                                "id": 1,
                                "order": 1
                            },
                            {
                                "children": [],
                                "depth": 1,
                                "id": 3,
                                "order": 3
                            }
                        ],
                        "depth": 0,
                        "id": 0,
                        "order": 0
                    }
                ],
                "depth": -1,
                "id": -1,
                "order": -1
            }
        ],
        "tidyTraceNodeCount": 4
    },
    "state_change": {
        "stateChanges": [
            {
                "address": "0x144c7c154fd9952217ac98d06f9bf9fce64d1fd7",
                "erc": "ERC-20",
                "slots": [
                    {
                        "current": "0x0000000000000000000000000000000000000000000000000000000096250ad6",
                        "key": "0xcc77ad0df716a2b23e19383e68c6bb1096ebd9f268ba2d558bcff37044af4a4e",
                        "prev": "0x0000000000000000000000000000000000000000000000000000000096250ad5"
                    },
                    {
                        "current": "0x0000000000000000000000000000000000000000000000000000013a173ba1f2",
                        "key": "0xb063e448fe03c010c55862d47beb8e6965a4cfbe168f371ac212ab35f4ad77fc",
                        "prev": "0x0000000000000000000000000000000000000000000000000000013a173ba1f3"
                    }
                ],
                "storageVariables": [
                    {
                        "name": "balanceOf",
                        "type": "mapping(address => uint256)",
                        "value": {
                            "pairs": [
                                {
                                    "key": "0x0102e6b6a3e38ec8640afac16a42eb9ee868533d",
                                    "value": {
                                        "current": "1349009514994",
                                        "prev": "1349009514995",
                                        "typeTag": 1
                                    }
                                },
                                {
                                    "key": "0x0a5149b07500a0c3506a686302116c3baa3fb24b",
                                    "value": {
                                        "current": "2519010006",
                                        "prev": "2519010005",
                                        "typeTag": 1
                                    }
                                }
                            ],
                            "typeTag": 4
                        }
                    }
                ]
            }
        ]
    }
}