{
    "balance_change": {
        "balanceChanges": [
            {
                "account": "0xab5622d7da96c571c6abe08e4b85e462eb666e4f",
                "assets": [
                    {
                        "address": "0xeeeeeeeeeeeeeeeeeeeeeeeeeeeeeeeeeeeeeeee",
                        "amount": "0.008",
                        "iconUrl": "https://assets.blocksec.com/image/1663669189317-3.png",
                        "isERC1155": false,
                        "isERC721": false,
                        "sign": true,
                        "value": ""
                    }
                ]
            },
            {
                "account": "0x06012c8cf97bead5deae237070f9587f8e7a266d",
                "assets": [
                    {
                        "address": "0xeeeeeeeeeeeeeeeeeeeeeeeeeeeeeeeeeeeeeeee",
                        "amount": "0.008",
                        "iconUrl": "https://assets.blocksec.com/image/1663669189317-3.png",
                        "isERC1155": false,
                        "isERC721": false,
                        "sign": false,
                        "value": ""
                    }
                ]
            }
        ]
    },
    "profile": {
        "basic_info": {
            "baseFee": "",
            "blockNumber": 8490523,
            "callData": "0x88c2a0bf000000000000000000000000000000000000000000000000000000000019d997",
            "debugEnable": true,
            "errorInfo": "",
            "eventCount": 2,
            "feeRecipient": "0x5a0b54d5dc17e0aadc383d2db43b0a0d3e029c4c",
            "formatValue": "0",
            "gasLimit": 350000,
            "gasPrice": "27.830000037",
            "gasUsed": 258953,
            "intTxnCount": 2,
            "internalRevert": false,
            "internalRevertMessage": "",
            "isContractCreation": false,
            "isFlashloan": false,
            "maxFee": "",
            "nonce": 224067,
            "overwritedBlockNumber": -1,
            "priorityFee": "",
            "receiver": "0x06012c8cf97bead5deae237070f9587f8e7a266d",
            "revertMessage": "",
            "sender": "0xab5622d7da96c571c6abe08e4b85e462eb666e4f",
            "simulationEnable": true,
            "sourceTxnHash": "0xbaaa0f598a249f83e862dc3cd5886c3f94b679b104b91c610224ce29c3a423d1",
            "status": true,
            "timestamp": "2019-09-05T14:09:24Z",
            "transactionFee": "0.007206661999581261",
            "txnHash": "0xbaaa0f598a249f83e862dc3cd5886c3f94b679b104b91c610224ce29c3a423d1",
            "txnIndex": 46,
            "type": 0,
            "value": "0"
        },
        "fund_flow": [
            {
                "amount": "0.008",
                "from": "0x06012c8cf97bead5deae237070f9587f8e7a266d",
                "id": 1,
                "isERC1155": false,
                "isERC721": false,
                "isReverted": false,
                "order": 1,
                "to": "0xab5622d7da96c571c6abe08e4b85e462eb666e4f",
                "token": "0xeeeeeeeeeeeeeeeeeeeeeeeeeeeeeeeeeeeeeeee"
            }
        ],
        "token_infos": [
            {
                "address": "0xc02aaa39b223fe8d0a0e5c4f27ead9083c756cc2",
                "decimals": 18
            },
            {
                "address": "0xeeeeeeeeeeeeeeeeeeeeeeeeeeeeeeeeeeeeeeee",
                "decimals": 18
            }
        ]
    },
    "address_label": {
        "labels": [
            {
                "address": "0x0000000000000000000000000000000000000001",
                "label": "Precompiled"
            },
            {
                "address": "0x0000000000000000000000000000000000000002",
                "label": "Precompiled"
            },
            {
                "address": "0x0000000000000000000000000000000000000003",
                "label": "Precompiled"
            },
            {
                "address": "0x0000000000000000000000000000000000000004",
                "label": "Precompiled"
            },
            {
                "address": "0xeeeeeeeeeeeeeeeeeeeeeeeeeeeeeeeeeeeeeeee",
                "label": "Ether"
            },
            {
                "address": "0x06012c8cf97bead5deae237070f9587f8e7a266d",
                "label": "CryptoKitties: Core"
            },
            {
                "address": "0xb77feddb7e627a78140a2a32cac65a49ed1dba8e",
                "label": "CryptoKitties: GeneScience"
            }
        ]
    },
    "trace": {
        "accountLabels": null,
        "dataMap": {
            "-1": {
                "invocation": {
                    "address": "0xab5622d7da96c571c6abe08e4b85e462eb666e4f",
                    "callData": "",
                    "decodedMethod": null,
                    "errorInfo": "",
                    "fromAddress": "",
                    "gasUsed": 0,
                    "id": -1,
                    "methodDecoded": false,
                    "operation": "",
                    "output": "",
                    "revert": false,
                    "revertMessage": "",
                    "selector": "",
                    "status": false,
                    "value": ""
                },
                "nodeType": 0
            },
            "0": {
                "invocation": {
                    "address": "0x06012c8cf97bead5deae237070f9587f8e7a266d",
                    "callData": "0x000000000000000000000000000000000000000000000000000000000019d997",
                    "decodedMethod": {
                        "callParams": [
                            {
                                "name": "_matronId",
                                "type": "uint256",
                                "value": "1,694,103"
                            }
                        ],
                        "constructorArguments": "",
                        "name": "giveBirth",
                        "returnParams": [
                            {
                                "name": "",
                                "type": "uint256",
                                "value": "1,694,452"
                            }
                        ],
                        "signature": "giveBirth(uint256)"
                    },
                    "errorInfo": "",
                    "fromAddress": "0xab5622d7da96c571c6abe08e4b85e462eb666e4f",
                    "gasUsed": 258953,
                    "id": 0,
                    "methodDecoded": true,
                    "operation": "CALL",
                    "output": "0x000000000000000000000000000000000000000000000000000000000019daf4",
                    "revert": false,
                    "revertMessage": "",
                    "selector": "0x88c2a0bf",
                    "status": true,
                    "value": "0"
                },
                "nodeType": 0
            },
            "1": {
                "invocation": {
                    "address": "0xb77feddb7e627a78140a2a32cac65a49ed1dba8e",
                    "callData": "0x0000581053bd6f1b8ca12c6c756b5799065150a20842798ef634eb6bd49011e400005b1004104f4a42639d2f40055721ee319622b1e27342073c5e13581311010000000000000000000000000000000000000000000000000000000000818e18",
                    "decodedMethod": {
                        "callParams": [
                            {
                                "name": "_genes1",
                                "type": "uint256",
                                "value": "607,793,856,513,085,900,091,426,754,625,650,683,973,267,856,775,349,574,410,146,205,876,097,508"
                            },
                            {
                                "name": "_genes2",
                                "type": "uint256",
                                "value": "628,490,704,663,214,857,288,144,305,510,311,262,445,845,446,591,646,133,950,303,791,656,145,153"
                            },
                            {
                                "name": "_targetBlock",
                                "type": "uint256",
                                "value": "8,490,520"
                            }
                        ],
                        "constructorArguments": "",
                        "name": "mixGenes",
                        "returnParams": [
                            {
                                "name": "",
                                "type": "uint256",
                                "value": "607,785,477,141,616,986,681,183,446,984,210,421,527,013,744,032,687,203,797,929,277,564,916,196"
                            }
                        ],
                        "signature": "mixGenes(uint256,uint256,uint256)"
                    },
                    "errorInfo": "",
                    "fromAddress": "0x06012c8cf97bead5deae237070f9587f8e7a266d",
                    "gasUsed": 103102,
                    "id": 1,
                    "methodDecoded": true,
                    "operation": "CALL",
                    "output": "0x00005810042c4f70cca11de9ab85573d0f3190a2144f734ef6b97e6b14d011e4",
                    "revert": false,
                    "revertMessage": "",
                    "selector": "0x0d9f5aed",
                    "status": true,
                    "value": "0"
                },
                "nodeType": 0
            },
            "2": {
                "event": {
                    "contract": "0x06012c8cf97bead5deae237070f9587f8e7a266d",
                    "decodedLog": {
                        "name": "Birth",
                        "params": [
                            {
                                "name": "owner",
                                "type": "address",
                                "value": "0x1998e59a8a93bfb69547f45a97812ff80d2af91d"
                            },
                            {
                                "name": "kittyId",
                                "type": "uint256",
                                "value": "1,694,452"
                            },
                            {
                                "name": "matronId",
                                "type": "uint256",
                                "value": "1,694,103"
                            },
                            {
                                "name": "sireId",
                                "type": "uint256",
                                "value": "1,692,485"
                            },
                            {
                                "name": "genes",
                                "type": "uint256",
                                "value": "607,785,477,141,616,986,681,183,446,984,210,421,527,013,744,032,687,203,797,929,277,564,916,196"
                            }
                        ],
                        "signature": "Birth(address,uint256,uint256,uint256,uint256)"
                    },
                    "id": 2,
                    "logData": "0x0000000000000000000000001998e59a8a93bfb69547f45a97812ff80d2af91d000000000000000000000000000000000000000000000000000000000019daf4000000000000000000000000000000000000000000000000000000000019d997000000000000000000000000000000000000000000000000000000000019d34500005810042c4f70cca11de9ab85573d0f3190a2144f734ef6b97e6b14d011e4",
                    "logDecoded": true,
                    "operation": "EVENT",
                    "revert": false,
                    "status": true,
                    "topics": [
                        "0x0a5311bd2a6608f08a180df2ee7c5946819a649b204b554bb8e39825b2c50ad5"
                    ]
                },
                "nodeType": 1
            },
            "3": {
                "event": {
                    "contract": "0x06012c8cf97bead5deae237070f9587f8e7a266d",
                    "decodedLog": {
                        "name": "Transfer",
                        "params": [
                            {
                                "name": "from",
                                "type": "address",
                                "value": "0x0000000000000000000000000000000000000000"
                            },
                            {
                                "name": "to",
                                "type": "address",
                                "value": "0x1998e59a8a93bfb69547f45a97812ff80d2af91d"
                            },
                            {
                                "decimalAvailable": true,
                                "name": "tokenId",
                                "type": "uint256",
                                "value": "1,694,452"
                            }
                        ],
                        "signature": "Transfer(address,address,uint256)"
                    },
                    "id": 3,
                    "logData": "0x00000000000000000000000000000000000000000000000000000000000000000000000000000000000000001998e59a8a93bfb69547f45a97812ff80d2af91d000000000000000000000000000000000000000000000000000000000019daf4",
                    "logDecoded": true,
                    "operation": "EVENT",
                    "revert": false,
                    "status": true,
                    "topics": [
                        "0xddf252ad1be2c89b69c2b068fc378daa952ba7f163c4a11628f55a4df523b3ef"
                    ]
                },
                "nodeType": 1
            },
            "4": {
                "invocation": {
                    "address": "0xab5622d7da96c571c6abe08e4b85e462eb666e4f",
                    "callData": "0x",
                    "decodedMethod": null,
                    "errorInfo": "",
                    "fromAddress": "0x06012c8cf97bead5deae237070f9587f8e7a266d",
                    "gasUsed": 0,
                    "id": 4,
                    "methodDecoded": false,
                    "operation": "CALL",
                    "output": "",
                    "revert": false,
                    "revertMessage": "",
                    "selector": "fallback",
                    "status": true,
                    "value": "0.008"
                },
                "nodeType": 0
            }
        },
        "gasFlame": [
            {
                "children": [
                    {
                        "children": [
                            {
                                "children": [],
                                "depth": 0,
                                "name": "Initial Gas",
                                "value": 21592
                            },
                            {
                                "children": [
                                    {
                                        "children": [],
                                        "depth": 1,
                                        "name": "mixGenes",
                                        "value": 103102
                                    },
                                    {
                                        "children": [],
                                        "depth": 1,
                                        "name": "fallback",
                                        "value": 0
                                    }
                                ],
                                "depth": 0,
                                "name": "Executed Gas",
                                "value": 237361
                            }
                        ],
                        "depth": -1,
                        "name": "Actual Gas Used",
                        "value": 258953
                    },
                    {
                        "children": [],
                        "depth": -1,
                        "name": "Refunded Gas",
                        "value": 0
                    }
                ],
                "depth": -2,
                "name": "Total Gas",
                "value": 258953
            }
        ],
        "isConfirmed": true,
        "mainTrace": [
            {
                "children": [
                    {
                        "children": [
                            {
                                "children": [],
                                "depth": 1,
                                "id": 1,
                                "order": 1
                            },
                            {
                                "children": [],
                                "depth": 1,
                                "id": 2,
                                "order": 2
                            },
                            {
                                "children": [],
                                "depth": 1,
                                "id": 3,
                                "order": 3
                            },
                            {
                                "children": [],
                                "depth": 1,
                                "id": 4,
                                "order": 4
                            }
                        ],
                        "depth": 0,
                        "id": 0,
                        "order": 0
                    }
                ],
                "depth": -1,
                "id": -1,
                "order": -1
            }
        ],
        "mainTraceNodeCount": 5,
        "parentIdMap": {
            "0": -1,
            "1": 0,
            "2": 0,
            "3": 0,
            "4": 0
        },
        "tidyTrace": [
            {
                "children": [
                    {
                        "children": [
                            {
                                "children": [],
                                "depth": 1,
                                "id": 1,
                                "order": 1
                            },
                            {
                                "children": [],
                                "depth": 1,
                                "id": 2,
                                "order": 2
                            },
                            {
                                "children": [],
                                "depth": 1,
                                "id": 3,
                                "order": 3
                            },
                            {
                                "children": [],
                                "depth": 1,
                                "id": 4,
                                "order": 4
                            }
                        ],
                        "depth": 0,
                        "id": 0,
                        "order": 0
                    }
                ],
                "depth": -1,
                "id": -1,
                "order": -1
            }
        ],
        "tidyTraceNodeCount": 5
    },
    "state_change": {
        "stateChanges": [
            {
                "address": "0x06012c8cf97bead5deae237070f9587f8e7a266d",
                "erc": "",
                "slots": [
                    {
                        "current": "0x0000000000000000000000000000000000000000000000000000000000000254",
                        "key": "0x000000000000000000000000000000000000000000000000000000000000000f",
                        "prev": "0x0000000000000000000000000000000000000000000000000000000000000255"
                    },
                    {
                        "current": "0x000000000000000000000000000000000000000000000000000000000019daf5",
                        "key": "0x0000000000000000000000000000000000000000000000000000000000000006",
                        "prev": "0x000000000000000000000000000000000000000000000000000000000019daf4"
                    },
                    {
                        "current": "0x00005810042c4f70cca11de9ab85573d0f3190a2144f734ef6b97e6b14d011e4",
                        "key": "0xf652222313e28459528d920b65115c16c04f3efc82aaedc97be59f3f37afc327",
                        "prev": "0x0000000000000000000000000000000000000000000000000000000000000000"
                    },
                    {
                        "current": "0x000b0005000000000019d3450019d9970000000000000000000000005d711714",
                        "key": "0xf652222313e28459528d920b65115c16c04f3efc82aaedc97be59f3f37afc328",
                        "prev": "0x0000000000000000000000000000000000000000000000000000000000000000"
                    },
                    {
                        "current": "0x0000000000000000000000000000000000000000000000000000000000000013",
                        "key": "0x8b9a433e8f7efcc5e680c0cc8baaf01046ab81862805520170cd6ec84d90abe5",
                        "prev": "0x0000000000000000000000000000000000000000000000000000000000000012"
                    },
                    {
                        "current": "0x0000000000000000000000001998e59a8a93bfb69547f45a97812ff80d2af91d",
                        "key": "0x684cdc59906c81bc06ac87474e5c796cc92312e22e54868b0a751ffa98177dd7",
                        "prev": "0x0000000000000000000000000000000000000000000000000000000000000000"
                    },
                    {
                        "current": "0x000a0007000000000019c82d0019c8de0000000000818e19000000005d705880",
                        "key": "0xf652222313e28459528d920b65115c16c04f3efc82aaedc97be59f3f37afc06e",
                        "prev": "0x000a00070019d3450019c82d0019c8de0000000000818e19000000005d705880"
                    }
                ],
                "storageVariables": [
                    {
                        "name": "pregnantKitties",
                        "type": "uint256",
                        "value": {
                            "current": "596",
                            "prev": "597",
                            "typeTag": 1
                        }
                    },
                    {
                        "name": "kitties",
                        "type": "struct KittyBase.Kitty[]",
                        "value": {
                            "elemType": "struct KittyBase.Kitty",
                            "elems": [
                                {
                                    "index": 1694103,
                                    "value": {
                                        "fields": [
                                            {
                                                "name": "birthTime",
                                                "type": "uint64",
                                                "value": {
                                                    "current": "1567643776",
                                                    "prev": "1567643776",
                                                    "typeTag": 1
                                                }
                                            },
                                            {
                                                "name": "cooldownEndBlock",
                                                "type": "uint64",
                                                "value": {
                                                    "current": "8490521",
                                                    "prev": "8490521",
                                                    "typeTag": 1
                                                }
                                            },
                                            {
                                                "name": "matronId",
                                                "type": "uint32",
                                                "value": {
                                                    "current": "1689822",
                                                    "prev": "1689822",
                                                    "typeTag": 1
                                                }
                                            },
                                            {
                                                "name": "sireId",
                                                "type": "uint32",
                                                "value": {
                                                    "current": "1689645",
                                                    "prev": "1689645",
                                                    "typeTag": 1
                                                }
                                            },
                                            {
                                                "name": "siringWithId",
                                                "type": "uint32",
                                                "value": {
                                                    "current": "0",
                                                    "prev": "1692485",
                                                    "typeTag": 1
                                                }
                                            },
                                            {
                                                "name": "cooldownIndex",
                                                "type": "uint16",
                                                "value": {
                                                    "current": "7",
                                                    "prev": "7",
                                                    "typeTag": 1
                                                }
                                            },
                                            {
                                                "name": "generation",
                                                "type": "uint16",
                                                "value": {
                                                    "current": "10",
                                                    "prev": "10",
                                                    "typeTag": 1
                                                }
                                            }
                                        ],
                                        "typeTag": 3
                                    }
                                },
                                {
                                    "index": 1694452,
                                    "value": {
                                        "fields": [
                                            {
                                                "name": "genes",
                                                "type": "uint256",
                                                "value": {
                                                    "current": "607785477141616986681183446984210421527013744032687203797929277564916196",
                                                    "prev": "0",
                                                    "typeTag": 1
                                                }
                                            },
                                            {
                                                "name": "birthTime",
                                                "type": "uint64",
                                                "value": {
                                                    "current": "1567692564",
                                                    "prev": "0",
                                                    "typeTag": 1
                                                }
                                            },
                                            {
                                                "name": "cooldownEndBlock",
                                                "type": "uint64",
                                                "value": {
                                                    "current": "0",
                                                    "prev": "0",
                                                    "typeTag": 1
                                                }
                                            },
                                            {
                                                "name": "matronId",
                                                "type": "uint32",
                                                "value": {
                                                    "current": "1694103",
                                                    "prev": "0",
                                                    "typeTag": 1
                                                }
                                            },
                                            {
                                                "name": "sireId",
                                                "type": "uint32",
                                                "value": {
                                                    "current": "1692485",
                                                    "prev": "0",
                                                    "typeTag": 1
                                                }
                                            },
                                            {
                                                "name": "siringWithId",
                                                "type": "uint32",
                                                "value": {
                                                    "current": "0",
                                                    "prev": "0",
                                                    "typeTag": 1
                                                }
                                            },
                                            {
                                                "name": "cooldownIndex",
                                                "type": "uint16",
                                                "value": {
                                                    "current": "5",
                                                    "prev": "0",
                                                    "typeTag": 1
                                                }
                                            },
                                            {
                                                "name": "generation",
                                                "type": "uint16",
                                                "value": {
                                                    "current": "11",
                                                    "prev": "0",
                                                    "typeTag": 1
                                                }
                                            }
                                        ],
                                        "typeTag": 3
                                    }
                                }
                            ],
                            "typeTag": 2
                        }
                    },
                    {
                        "name": "ownershipTokenCount",
                        "type": "mapping(address => uint256)",
                        "value": {
                            "pairs": [
                                {
                                    "key": "0x1998e59a8a93bfb69547f45a97812ff80d2af91d",
                                    "value": {
                                        "current": "19",
                                        "prev": "18",
                                        "typeTag": 1
                                    }
                                }
                            ],
                            "typeTag": 4
                        }
                    },
                    {
                        "name": "kittyIndexToOwner",
                        "type": "mapping(uint256 => address)",
                        "value": {
                            "pairs": [
                                {
                                    "key": "1694452",
                                    "value": {
                                        "current": "0x1998e59a8a93bfb69547f45a97812ff80d2af91d",
                                        "prev": "0x0000000000000000000000000000000000000000",
                                        "typeTag": 1
                                    }
                                }
                            ],
                            "typeTag": 4
                        }
                    }
                ]
            }
        ]
    }
}