{
    "balance_change": {
        "balanceChanges": []
    },
    "profile": {
        "basic_info": {
            "baseFee": "",
            "blockNumber": 11689774,
            "callData": "0x095ea7b3000000000000000000000000a207d69ea6fb967e54baa8639c408c31767ba62d0000000000000000000000000000000000000000000000000155c55d6b84ae3b",
            "debugEnable": true,
            "errorInfo": "",
            "eventCount": 1,
            "feeRecipient": "0x829bd824b016326a401d083b33d092293333a830",
            "formatValue": "0",
            "gasLimit": 56707,
            "gasPrice": "45",
            "gasUsed": 27743,
            "intTxnCount": 1,
            "internalRevert": false,
            "internalRevertMessage": "",
            "isContractCreation": false,
            "isFlashloan": false,
            "maxFee": "",
            "nonce": 558,
            "overwritedBlockNumber": -1,
            "priorityFee": "",
            "receiver": "0x235c9e24d3fb2fafd58a2e49d454fdcd2dbf7ff1",
            "revertMessage": "",
            "sender": "0xe4b420f15d6d878dcd0df7120ac0fc1509ee9cab",
            "simulationEnable": true,
            "sourceTxnHash": "0xbbc4a0fb655ab393f2de1a45de5a265c6c74763a71f3632f9be77a7210e478be",
            "status": true,
            "timestamp": "2021-01-20T03:16:00Z",
            "transactionFee": "0.001248435",
            "txnHash": "0xbbc4a0fb655ab393f2de1a45de5a265c6c74763a71f3632f9be77a7210e478be",
            "txnIndex": 292,
            "type": 0,
            "value": "0"
        },
        "fund_flow": [],
        "token_infos": [
            {
                "address": "0xeeeeeeeeeeeeeeeeeeeeeeeeeeeeeeeeeeeeeeee",
                "decimals": 18
            },
            {
                "address": "0xc02aaa39b223fe8d0a0e5c4f27ead9083c756cc2",
                "decimals": 18
            }
        ]
    },
    "address_label": {
        "labels": [
            {
                "address": "0xeeeeeeeeeeeeeeeeeeeeeeeeeeeeeeeeeeeeeeee",
                "label": "Ether"
            },
            {
                "address": "0x235c9e24d3fb2fafd58a2e49d454fdcd2dbf7ff1",
                "label": "Badger: Vault (uniBadgerWbtc sett)"
            },
            {
                "address": "0xe4b420f15d6d878dcd0df7120ac0fc1509ee9cab",
                "label": "GasWarriors Clones: Deployer"
            },
            {
                "address": "0xa207d69ea6fb967e54baa8639c408c31767ba62d",
                "label": "Badger: Staking uniBadgerWbtc setts"
            },
            {
                "address": "0xe4ae305b08434bf3d74e0086592627f913a258a9",
                "label": "Badger: Sett"
            },
            {
                "address": "0x0000000000000000000000000000000000000001",
                "label": "Precompiled"
            },
            {
                "address": "0x0000000000000000000000000000000000000002",
                "label": "Precompiled"
            },
            {
                "address": "0x0000000000000000000000000000000000000003",
                "label": "Precompiled"
            },
            {
                "address": "0x0000000000000000000000000000000000000004",
                "label": "Precompiled"
            }
        ]
    },
    "trace": {
        "accountLabels": null,
        "dataMap": {
            "-1": {
                "invocation": {
                    "address": "0xe4b420f15d6d878dcd0df7120ac0fc1509ee9cab",
                    "callData": "",
                    "decodedMethod": null,
                    "errorInfo": "",
                    "fromAddress": "",
                    "gasUsed": 0,
                    "id": -1,
                    "methodDecoded": false,
                    "operation": "",
                    "output": "",
                    "revert": false,
                    "revertMessage": "",
                    "selector": "",
                    "status": false,
                    "value": ""
                },
                "nodeType": 0
            },
            "0": {
                "invocation": {
                    "address": "0x235c9e24d3fb2fafd58a2e49d454fdcd2dbf7ff1",
                    "callData": "0x000000000000000000000000a207d69ea6fb967e54baa8639c408c31767ba62d0000000000000000000000000000000000000000000000000155c55d6b84ae3b",
                    "decodedMethod": {
                        "callParams": [
                            {
                                "name": "spender",
                                "type": "address",
                                "value": "0xa207d69ea6fb967e54baa8639c408c31767ba62d"
                            },
                            {
                                "decimalAvailable": true,
                                "name": "amount",
                                "type": "uint256",
                                "value": "96,199,972,084,821,563"
                            }
                        ],
                        "constructorArguments": "",
                        "name": "approve",
                        "returnParams": [
                            {
                                "name": "",
                                "type": "bool",
                                "value": true
                            }
                        ],
                        "signature": "approve(address,uint256)"
                    },
                    "errorInfo": "",
                    "fromAddress": "0xe4b420f15d6d878dcd0df7120ac0fc1509ee9cab",
                    "gasUsed": 27743,
                    "id": 0,
                    "methodDecoded": true,
                    "operation": "CALL",
                    "output": "0x0000000000000000000000000000000000000000000000000000000000000001",
                    "revert": false,
                    "revertMessage": "",
                    "selector": "0x095ea7b3",
                    "status": true,
                    "value": "0"
                },
                "nodeType": 0
            },
            "1": {
                "invocation": {
                    "address": "0xe4ae305b08434bf3d74e0086592627f913a258a9",
                    "callData": "0x000000000000000000000000a207d69ea6fb967e54baa8639c408c31767ba62d0000000000000000000000000000000000000000000000000155c55d6b84ae3b",
                    "decodedMethod": {
                        "callParams": [
                            {
                                "name": "spender",
                                "type": "address",
                                "value": "0xa207d69ea6fb967e54baa8639c408c31767ba62d"
                            },
                            {
                                "decimalAvailable": true,
                                "name": "amount",
                                "type": "uint256",
                                "value": "96,199,972,084,821,563"
                            }
                        ],
                        "constructorArguments": "",
                        "name": "approve",
                        "returnParams": [
                            {
                                "name": "",
                                "type": "bool",
                                "value": true
                            }
                        ],
                        "signature": "approve(address,uint256)"
                    },
                    "errorInfo": "",
                    "fromAddress": "0x235c9e24d3fb2fafd58a2e49d454fdcd2dbf7ff1",
                    "gasUsed": 3308,
                    "id": 1,
                    "methodDecoded": true,
                    "operation": "DELEGATECALL",
                    "output": "0x0000000000000000000000000000000000000000000000000000000000000001",
                    "revert": false,
                    "revertMessage": "",
                    "selector": "0x095ea7b3",
                    "status": true,
                    "value": "0"
                },
                "nodeType": 0
            },
            "2": {
                "event": {
                    "contract": "0x235c9e24d3fb2fafd58a2e49d454fdcd2dbf7ff1",
                    "decodedLog": {
                        "name": "Approval",
                        "params": [
                            {
                                "name": "owner",
                                "type": "address",
                                "value": "0xe4b420f15d6d878dcd0df7120ac0fc1509ee9cab"
                            },
                            {
                                "name": "spender",
                                "type": "address",
                                "value": "0xa207d69ea6fb967e54baa8639c408c31767ba62d"
                            },
                            {
                                "decimalAvailable": true,
                                "name": "value",
                                "type": "uint256",
                                "value": "96,199,972,084,821,563"
                            }
                        ],
                        "signature": "Approval(address,address,uint256)"
                    },
                    "id": 2,
                    "logData": "0x0000000000000000000000000000000000000000000000000155c55d6b84ae3b",
                    "logDecoded": true,
                    "operation": "EVENT",
                    "revert": false,
                    "status": true,
                    "topics": [
                        "0x8c5be1e5ebec7d5bd14f71427d1e84f3dd0314c0f7b2291e5b200ac8c7c3b925",
                        "0x000000000000000000000000e4b420f15d6d878dcd0df7120ac0fc1509ee9cab",
                        "0x000000000000000000000000a207d69ea6fb967e54baa8639c408c31767ba62d"
                    ]
                },
                "nodeType": 1
            }
        },
        "gasFlame": [
            {
                "children": [
                    {
                        "children": [
                            {
                                "children": [],
                                "depth": 0,
                                "name": "Initial Gas",
                                "value": 21656
                            },
                            {
                                "children": [
                                    {
                                        "children": [],
                                        "depth": 1,
                                        "name": "approve",
                                        "value": 3308
                                    }
                                ],
                                "depth": 0,
                                "name": "Executed Gas",
                                "value": 6087
                            }
                        ],
                        "depth": -1,
                        "name": "Actual Gas Used",
                        "value": 27743
                    },
                    {
                        "children": [],
                        "depth": -1,
                        "name": "Refunded Gas",
                        "value": 0
                    }
                ],
                "depth": -2,
                "name": "Total Gas",
                "value": 27743
            }
        ],
        "isConfirmed": true,
        "mainTrace": [
            {
                "children": [
                    {
                        "children": [
                            {
                                "children": [
                                    {
                                        "children": [],
                                        "depth": 2,
                                        "id": 2,
                                        "order": 2
                                    }
                                ],
                                "depth": 1,
                                "id": 1,
                                "order": 1
                            }
                        ],
                        "depth": 0,
                        "id": 0,
                        "order": 0
                    }
                ],
                "depth": -1,
                "id": -1,
                "order": -1
            }
        ],
        "mainTraceNodeCount": 3,
        "parentIdMap": {
            "0": -1,
            "1": 0,
            "2": 1
        },
        "tidyTrace": [
            {
                "children": [
                    {
                        "children": [
                            {
                                "children": [
                                    {
                                        "children": [],
                                        "depth": 2,
                                        "id": 2,
                                        "order": 2
                                    }
                                ],
                                "depth": 1,
                                "id": 1,
                                "order": 1
                            }
                        ],
                        "depth": 0,
                        "id": 0,
                        "order": 0
                    }
                ],
                "depth": -1,
                "id": -1,
                "order": -1
            }
        ],
        "tidyTraceNodeCount": 3
    },
    "state_change": {
        "stateChanges": []
    }
}