{
    "balance_change": {
        "balanceChanges": []
    },
    "profile": {
        "basic_info": {
            "baseFee": "",
            "blockNumber": 7128624,
            "callData": "0x08e05b850000000000000000000000000000000000000000000000000000000000000000000000000000000000000000000000000000000000000000002386f275b6e100000000000000000000000000c88be04c809856b75e3dfe19eb4dcf0a3b15317a000000000000000000000000000000000000000000000000000000e8d4a53710000000000000000000000000000000000000000000000000000000000662847000000000000000000000000000000000000000000000000000000000db9be8db000000000000000000000000b4bbf084676e3b6f9d9c1beaa7c2aae8e88597f5000000000000000000000000000000000000000000000000000000000000001c2b41c76ff4f1f272109f22df55aee43db4ebb2d61a44e8a1a2d1a4fb291c59d32c9d55c56dbde23533fc6967ab35e78564562aa28c50fdaa00985629f6faa125000000000000000000000000000000000000000000000000002386f275b6e1000000000000000000000000001ce7ae555139c5ef5a57cc8d814a867ee6ee33d8",
            "debugEnable": true,
            "errorInfo": "execution reverted",
            "eventCount": 0,
            "feeRecipient": "0x0f06d283513504c261ff789f33df1d93e9a5225c",
            "formatValue": "0.0100400001",
            "gasLimit": 350000,
            "gasPrice": "2",
            "gasUsed": 33117,
            "intTxnCount": 0,
            "internalRevert": false,
            "internalRevertMessage": "",
            "isContractCreation": false,
            "isFlashloan": false,
            "maxFee": "",
            "nonce": 377,
            "overwritedBlockNumber": -1,
            "priorityFee": "",
            "receiver": "0xe17dbb844ba602e189889d941d1297184ce63664",
            "revertMessage": "",
            "sender": "0xfaf3a996864a5d073599bdb841d8fd2d9c79b374",
            "simulationEnable": true,
            "sourceTxnHash": "0xbb510a1ca06ea0eddef0bc2b3af02a290f2a3a51a0ac7624492d76cff229ce55",
            "status": false,
            "timestamp": "2019-01-26T10:36:18Z",
            "transactionFee": "0.000066234",
            "txnHash": "0xbb510a1ca06ea0eddef0bc2b3af02a290f2a3a51a0ac7624492d76cff229ce55",
            "txnIndex": 112,
            "type": 0,
            "value": "10040000100000000"
        },
        "fund_flow": [],
        "token_infos": [
            {
                "address": "0xc02aaa39b223fe8d0a0e5c4f27ead9083c756cc2",
                "decimals": 18
            },
            {
                "address": "0xeeeeeeeeeeeeeeeeeeeeeeeeeeeeeeeeeeeeeeee",
                "decimals": 18
            }
        ]
    },
    "address_label": {
        "labels": [
            {
                "address": "0x1ce7ae555139c5ef5a57cc8d814a867ee6ee33d8",
                "label": "Token.Store"
            },
            {
                "address": "0x0000000000000000000000000000000000000001",
                "label": "Precompiled"
            },
            {
                "address": "0x0000000000000000000000000000000000000004",
                "label": "Precompiled"
            },
            {
                "address": "0xe17dbb844ba602e189889d941d1297184ce63664",
                "label": "InstantTrade"
            },
            {
                "address": "0x0000000000000000000000000000000000000002",
                "label": "Precompiled"
            },
            {
                "address": "0x0000000000000000000000000000000000000003",
                "label": "Precompiled"
            },
            {
                "address": "0xeeeeeeeeeeeeeeeeeeeeeeeeeeeeeeeeeeeeeeee",
                "label": "Ether"
            },
            {
                "address": "0xc88be04c809856b75e3dfe19eb4dcf0a3b15317a",
                "label": "Bankcoin Cash: BKC Token"
            },
            {
                "address": "0x0000000000000000000000000000000000000000",
                "label": "Null Address"
            }
        ]
    },
    "trace": {
        "accountLabels": null,
        "dataMap": {
            "-1": {
                "invocation": {
                    "address": "0xfaf3a996864a5d073599bdb841d8fd2d9c79b374",
                    "callData": "",
                    "decodedMethod": null,
                    "errorInfo": "",
                    "fromAddress": "",
                    "gasUsed": 0,
                    "id": -1,
                    "methodDecoded": false,
                    "operation": "",
                    "output": "",
                    "revert": false,
                    "revertMessage": "",
                    "selector": "",
                    "status": false,
                    "value": ""
                },
                "nodeType": 0
            },
            "0": {
                "invocation": {
                    "address": "0xe17dbb844ba602e189889d941d1297184ce63664",
                    "callData": "0x0000000000000000000000000000000000000000000000000000000000000000000000000000000000000000000000000000000000000000002386f275b6e100000000000000000000000000c88be04c809856b75e3dfe19eb4dcf0a3b15317a000000000000000000000000000000000000000000000000000000e8d4a53710000000000000000000000000000000000000000000000000000000000662847000000000000000000000000000000000000000000000000000000000db9be8db000000000000000000000000b4bbf084676e3b6f9d9c1beaa7c2aae8e88597f5000000000000000000000000000000000000000000000000000000000000001c2b41c76ff4f1f272109f22df55aee43db4ebb2d61a44e8a1a2d1a4fb291c59d32c9d55c56dbde23533fc6967ab35e78564562aa28c50fdaa00985629f6faa125000000000000000000000000000000000000000000000000002386f275b6e1000000000000000000000000001ce7ae555139c5ef5a57cc8d814a867ee6ee33d8",
                    "decodedMethod": {
                        "callParams": [
                            {
                                "name": "_tokenGet",
                                "type": "address",
                                "value": "0x0000000000000000000000000000000000000000"
                            },
                            {
                                "name": "_amountGet",
                                "type": "uint256",
                                "value": "10,000,000,100,000,000"
                            },
                            {
                                "name": "_tokenGive",
                                "type": "address",
                                "value": "0xc88be04c809856b75e3dfe19eb4dcf0a3b15317a"
                            },
                            {
                                "name": "_amountGive",
                                "type": "uint256",
                                "value": "1,000,000,010,000"
                            },
                            {
                                "name": "_expires",
                                "type": "uint256",
                                "value": "107,119,728"
                            },
                            {
                                "name": "_nonce",
                                "type": "uint256",
                                "value": "3,684,427,995"
                            },
                            {
                                "name": "_user",
                                "type": "address",
                                "value": "0xb4bbf084676e3b6f9d9c1beaa7c2aae8e88597f5"
                            },
                            {
                                "name": "_v",
                                "type": "uint8",
                                "value": "28"
                            },
                            {
                                "name": "_r",
                                "type": "bytes32",
                                "value": "0x2b41c76ff4f1f272109f22df55aee43db4ebb2d61a44e8a1a2d1a4fb291c59d3"
                            },
                            {
                                "name": "_s",
                                "type": "bytes32",
                                "value": "0x2c9d55c56dbde23533fc6967ab35e78564562aa28c50fdaa00985629f6faa125"
                            },
                            {
                                "name": "_amount",
                                "type": "uint256",
                                "value": "10,000,000,100,000,000"
                            },
                            {
                                "name": "_store",
                                "type": "address",
                                "value": "0x1ce7ae555139c5ef5a57cc8d814a867ee6ee33d8"
                            }
                        ],
                        "constructorArguments": "",
                        "name": "instantTrade",
                        "returnParams": [],
                        "signature": "instantTrade(address,uint256,address,uint256,uint256,uint256,address,uint8,bytes32,bytes32,uint256,address)"
                    },
                    "errorInfo": "execution reverted",
                    "fromAddress": "0xfaf3a996864a5d073599bdb841d8fd2d9c79b374",
                    "gasUsed": 33117,
                    "id": 0,
                    "methodDecoded": true,
                    "operation": "CALL",
                    "output": "",
                    "revert": true,
                    "revertMessage": "",
                    "selector": "0x08e05b85",
                    "status": false,
                    "value": "0.0100400001"
                },
                "nodeType": 0
            }
        },
        "gasFlame": [
            {
                "children": [
                    {
                        "children": [
                            {
                                "children": [],
                                "depth": 0,
                                "name": "Initial Gas",
                                "value": 32344
                            },
                            {
                                "children": [],
                                "depth": 0,
                                "name": "Executed Gas",
                                "value": 773
                            }
                        ],
                        "depth": -1,
                        "name": "Actual Gas Used",
                        "value": 33117
                    },
                    {
                        "children": [],
                        "depth": -1,
                        "name": "Refunded Gas",
                        "value": 0
                    }
                ],
                "depth": -2,
                "name": "Total Gas",
                "value": 33117
            }
        ],
        "isConfirmed": true,
        "mainTrace": [
            {
                "children": [
                    {
                        "children": [],
                        "depth": 0,
                        "id": 0,
                        "order": 0
                    }
                ],
                "depth": -1,
                "id": -1,
                "order": -1
            }
        ],
        "mainTraceNodeCount": 1,
        "parentIdMap": {
            "0": -1
        },
        "tidyTrace": [
            {
                "children": [
                    {
                        "children": [],
                        "depth": 0,
                        "id": 0,
                        "order": 0
                    }
                ],
                "depth": -1,
                "id": -1,
                "order": -1
            }
        ],
        "tidyTraceNodeCount": 1
    },
    "state_change": {
        "stateChanges": []
    }
}