{
    "balance_change": {
        "balanceChanges": [
            {
                "account": "0xd9a409eb3980b585dffa8798dad57c695e20d0aa",
                "assets": [
                    {
                        "address": "0x948c70dc6169bfb10028fdbe96cbc72e9562b2ac",
                        "amount": "500",
                        "iconUrl": "",
                        "isERC1155": false,
                        "isERC721": false,
                        "sign": false,
                        "value": "1012.171514"
                    },
                    {
                        "address": "0x3d6f0dea3ac3c607b3998e6ce14b6350721752d9",
                        "amount": "85.295324451508578694",
                        "iconUrl": "",
                        "isERC1155": false,
                        "isERC721": false,
                        "sign": true,
                        "value": "1005.832589"
                    }
                ]
            },
            {
                "account": "0x353a70db3888e957ad2e7444a08a2c9c08a5db47",
                "assets": [
                    {
                        "address": "0x948c70dc6169bfb10028fdbe96cbc72e9562b2ac",
                        "amount": "500",
                        "iconUrl": "",
                        "isERC1155": false,
                        "isERC721": false,
                        "sign": true,
                        "value": "1012.171514"
                    },
                    {
                        "address": "0xc02aaa39b223fe8d0a0e5c4f27ead9083c756cc2",
                        "amount": "0.335084341906120048",
                        "iconUrl": "https://assets.blocksec.com/icon/f1cb2d02c471d545bbc7722daf3277fd852d98e63d118771af7047bd8256c516.png",
                        "isERC1155": false,
                        "isERC721": false,
                        "sign": false,
                        "value": "1012.171514"
                    }
                ]
            },
            {
                "account": "0x94ae6d2390680ac6e6ee6069be42067d6ad72e2a",
                "assets": [
                    {
                        "address": "0x3d6f0dea3ac3c607b3998e6ce14b6350721752d9",
                        "amount": "85.295324451508578694",
                        "iconUrl": "",
                        "isERC1155": false,
                        "isERC721": false,
                        "sign": false,
                        "value": "1005.832589"
                    },
                    {
                        "address": "0xc02aaa39b223fe8d0a0e5c4f27ead9083c756cc2",
                        "amount": "0.335084341906120048",
                        "iconUrl": "https://assets.blocksec.com/icon/f1cb2d02c471d545bbc7722daf3277fd852d98e63d118771af7047bd8256c516.png",
                        "isERC1155": false,
                        "isERC721": false,
                        "sign": true,
                        "value": "1012.171514"
                    }
                ]
            }
        ]
    },
    "profile": {
        "basic_info": {
            "baseFee": "66.648153214",
            "blockNumber": 13330332,
            "callData": "0x38ed173900000000000000000000000000000000000000000000001b1ae4d6e2ef50000000000000000000000000000000000000000000000000000499d241304f104f8600000000000000000000000000000000000000000000000000000000000000a0000000000000000000000000d9a409eb3980b585dffa8798dad57c695e20d0aa00000000000000000000000000000000000000000000000000000000615662e00000000000000000000000000000000000000000000000000000000000000003000000000000000000000000948c70dc6169bfb10028fdbe96cbc72e9562b2ac000000000000000000000000c02aaa39b223fe8d0a0e5c4f27ead9083c756cc20000000000000000000000003d6f0dea3ac3c607b3998e6ce14b6350721752d9",
            "debugEnable": true,
            "errorInfo": "",
            "eventCount": 8,
            "feeRecipient": "0x829bd824b016326a401d083b33d092293333a830",
            "formatValue": "0",
            "gasLimit": 208946,
            "gasPrice": "68.148153214",
            "gasUsed": 161212,
            "intTxnCount": 11,
            "internalRevert": false,
            "internalRevertMessage": "",
            "isContractCreation": false,
            "isFlashloan": false,
            "maxFee": "90",
            "nonce": 632,
            "overwritedBlockNumber": -1,
            "priorityFee": "1.5",
            "receiver": "0x7a250d5630b4cf539739df2c5dacb4c659f2488d",
            "revertMessage": "",
            "sender": "0xd9a409eb3980b585dffa8798dad57c695e20d0aa",
            "simulationEnable": true,
            "sourceTxnHash": "0xbb46c69e2be1eed7fd7a0b0920079d485e6e16b1129d292f1759187c30be2bda",
            "status": true,
            "timestamp": "2021-10-01T00:52:46Z",
            "transactionFee": "0.010986300075935368",
            "txnHash": "0xbb46c69e2be1eed7fd7a0b0920079d485e6e16b1129d292f1759187c30be2bda",
            "txnIndex": 316,
            "type": 2,
            "value": "0"
        },
        "fund_flow": [
            {
                "amount": "500",
                "from": "0xd9a409eb3980b585dffa8798dad57c695e20d0aa",
                "id": 1,
                "isERC1155": false,
                "isERC721": false,
                "isReverted": false,
                "order": 1,
                "to": "0x353a70db3888e957ad2e7444a08a2c9c08a5db47",
                "token": "0x948c70dc6169bfb10028fdbe96cbc72e9562b2ac"
            },
            {
                "amount": "0.335084341906120048",
                "from": "0x353a70db3888e957ad2e7444a08a2c9c08a5db47",
                "id": 2,
                "isERC1155": false,
                "isERC721": false,
                "isReverted": false,
                "order": 2,
                "to": "0x94ae6d2390680ac6e6ee6069be42067d6ad72e2a",
                "token": "0xc02aaa39b223fe8d0a0e5c4f27ead9083c756cc2"
            },
            {
                "amount": "85.295324451508578694",
                "from": "0x94ae6d2390680ac6e6ee6069be42067d6ad72e2a",
                "id": 3,
                "isERC1155": false,
                "isERC721": false,
                "isReverted": false,
                "order": 3,
                "to": "0xd9a409eb3980b585dffa8798dad57c695e20d0aa",
                "token": "0x3d6f0dea3ac3c607b3998e6ce14b6350721752d9"
            }
        ],
        "token_infos": [
            {
                "address": "0x3d6f0dea3ac3c607b3998e6ce14b6350721752d9",
                "decimals": 18
            },
            {
                "address": "0x948c70dc6169bfb10028fdbe96cbc72e9562b2ac",
                "decimals": 18
            },
            {
                "address": "0xc02aaa39b223fe8d0a0e5c4f27ead9083c756cc2",
                "decimals": 18
            },
            {
                "address": "0xeeeeeeeeeeeeeeeeeeeeeeeeeeeeeeeeeeeeeeee",
                "decimals": 18
            }
        ]
    },
    "address_label": {
        "labels": [
            {
                "address": "0x0000000000000000000000000000000000000003",
                "label": "Precompiled"
            },
            {
                "address": "0x3d6f0dea3ac3c607b3998e6ce14b6350721752d9",
                "label": "CARD.STARTER: CARDS Token"
            },
            {
                "address": "0x948c70dc6169bfb10028fdbe96cbc72e9562b2ac",
                "label": "PolkaFantasy (XP)"
            },
            {
                "address": "0xc02aaa39b223fe8d0a0e5c4f27ead9083c756cc2",
                "label": "Wrapped Ether (WETH)"
            },
            {
                "address": "0x94ae6d2390680ac6e6ee6069be42067d6ad72e2a",
                "label": "Uniswap V2: CARDS"
            },
            {
                "address": "0x0000000000000000000000000000000000000002",
                "label": "Precompiled"
            },
            {
                "address": "0xeeeeeeeeeeeeeeeeeeeeeeeeeeeeeeeeeeeeeeee",
                "label": "Ether"
            },
            {
                "address": "0x7a250d5630b4cf539739df2c5dacb4c659f2488d",
                "label": "Uniswap V2: Router 2"
            },
            {
                "address": "0x353a70db3888e957ad2e7444a08a2c9c08a5db47",
                "label": "Uniswap V2: XP 2"
            },
            {
                "address": "0x0000000000000000000000000000000000000001",
                "label": "Precompiled"
            },
            {
                "address": "0x0000000000000000000000000000000000000004",
                "label": "Precompiled"
            }
        ]
    },
    "trace": {
        "accountLabels": null,
        "dataMap": {
            "-1": {
                "invocation": {
                    "address": "0xd9a409eb3980b585dffa8798dad57c695e20d0aa",
                    "callData": "",
                    "decodedMethod": null,
                    "errorInfo": "",
                    "fromAddress": "",
                    "gasUsed": 0,
                    "id": -1,
                    "methodDecoded": false,
                    "operation": "",
                    "output": "",
                    "revert": false,
                    "revertMessage": "",
                    "selector": "",
                    "status": false,
                    "value": ""
                },
                "nodeType": 0
            },
            "0": {
                "invocation": {
                    "address": "0x7a250d5630b4cf539739df2c5dacb4c659f2488d",
                    "callData": "0x00000000000000000000000000000000000000000000001b1ae4d6e2ef50000000000000000000000000000000000000000000000000000499d241304f104f8600000000000000000000000000000000000000000000000000000000000000a0000000000000000000000000d9a409eb3980b585dffa8798dad57c695e20d0aa00000000000000000000000000000000000000000000000000000000615662e00000000000000000000000000000000000000000000000000000000000000003000000000000000000000000948c70dc6169bfb10028fdbe96cbc72e9562b2ac000000000000000000000000c02aaa39b223fe8d0a0e5c4f27ead9083c756cc20000000000000000000000003d6f0dea3ac3c607b3998e6ce14b6350721752d9",
                    "decodedMethod": {
                        "callParams": [
                            {
                                "name": "amountIn",
                                "type": "uint256",
                                "value": "500,000,000,000,000,000,000"
                            },
                            {
                                "name": "amountOutMin",
                                "type": "uint256",
                                "value": "84,870,969,603,491,123,078"
                            },
                            {
                                "name": "path",
                                "type": "address[]",
                                "value": [
                                    "0x948c70dc6169bfb10028fdbe96cbc72e9562b2ac",
                                    "0xc02aaa39b223fe8d0a0e5c4f27ead9083c756cc2",
                                    "0x3d6f0dea3ac3c607b3998e6ce14b6350721752d9"
                                ]
                            },
                            {
                                "name": "to",
                                "type": "address",
                                "value": "0xd9a409eb3980b585dffa8798dad57c695e20d0aa"
                            },
                            {
                                "name": "deadline",
                                "type": "uint256",
                                "value": "1,633,051,360"
                            }
                        ],
                        "constructorArguments": "",
                        "name": "swapExactTokensForTokens",
                        "returnParams": [
                            {
                                "name": "amounts",
                                "type": "uint256[]",
                                "value": [
                                    "500,000,000,000,000,000,000",
                                    "335,084,341,906,120,048",
                                    "85,295,324,451,508,578,694"
                                ]
                            }
                        ],
                        "signature": "swapExactTokensForTokens(uint256,uint256,address[],address,uint256)"
                    },
                    "errorInfo": "",
                    "fromAddress": "0xd9a409eb3980b585dffa8798dad57c695e20d0aa",
                    "gasUsed": 161212,
                    "id": 0,
                    "methodDecoded": true,
                    "operation": "CALL",
                    "output": "0x0000000000000000000000000000000000000000000000000000000000000020000000000000000000000000000000000000000000000000000000000000000300000000000000000000000000000000000000000000001b1ae4d6e2ef50000000000000000000000000000000000000000000000000000004a6756f011c1d700000000000000000000000000000000000000000000000049fb5ddacb5dbe986",
                    "revert": false,
                    "revertMessage": "",
                    "selector": "0x38ed1739",
                    "status": true,
                    "value": "0"
                },
                "nodeType": 0
            },
            "1": {
                "invocation": {
                    "address": "0x353a70db3888e957ad2e7444a08a2c9c08a5db47",
                    "callData": "0x",
                    "decodedMethod": {
                        "callParams": [],
                        "constructorArguments": "",
                        "name": "getReserves",
                        "returnParams": [
                            {
                                "name": "_reserve0",
                                "type": "uint112",
                                "value": "505,679,462,369,202,944,355,338"
                            },
                            {
                                "name": "_reserve1",
                                "type": "uint112",
                                "value": "340,245,354,880,371,448,226"
                            },
                            {
                                "name": "_blockTimestampLast",
                                "type": "uint32",
                                "value": "1,633,048,286"
                            }
                        ],
                        "signature": "getReserves()"
                    },
                    "errorInfo": "",
                    "fromAddress": "0x7a250d5630b4cf539739df2c5dacb4c659f2488d",
                    "gasUsed": 2504,
                    "id": 1,
                    "methodDecoded": true,
                    "operation": "STATICCALL",
                    "output": "0x000000000000000000000000000000000000000000006b14f0470c2c44702c0a00000000000000000000000000000000000000000000001271da53910942d9a200000000000000000000000000000000000000000000000000000000615656de",
                    "revert": false,
                    "revertMessage": "",
                    "selector": "0x0902f1ac",
                    "status": true,
                    "value": "0"
                },
                "nodeType": 0
            },
            "10": {
                "invocation": {
                    "address": "0xc02aaa39b223fe8d0a0e5c4f27ead9083c756cc2",
                    "callData": "0x000000000000000000000000353a70db3888e957ad2e7444a08a2c9c08a5db47",
                    "decodedMethod": {
                        "callParams": [
                            {
                                "name": "",
                                "type": "address",
                                "value": "0x353a70db3888e957ad2e7444a08a2c9c08a5db47"
                            }
                        ],
                        "constructorArguments": "",
                        "name": "balanceOf",
                        "returnParams": [
                            {
                                "decimalAvailable": true,
                                "name": "",
                                "type": "uint256",
                                "value": "339,910,270,538,465,328,178"
                            }
                        ],
                        "signature": "balanceOf(address)"
                    },
                    "errorInfo": "",
                    "fromAddress": "0x353a70db3888e957ad2e7444a08a2c9c08a5db47",
                    "gasUsed": 534,
                    "id": 10,
                    "methodDecoded": true,
                    "operation": "STATICCALL",
                    "output": "0x0000000000000000000000000000000000000000000000126d33de220826bc32",
                    "revert": false,
                    "revertMessage": "",
                    "selector": "0x70a08231",
                    "status": true,
                    "value": "0"
                },
                "nodeType": 0
            },
            "11": {
                "event": {
                    "contract": "0x353a70db3888e957ad2e7444a08a2c9c08a5db47",
                    "decodedLog": {
                        "name": "Sync",
                        "params": [
                            {
                                "name": "reserve0",
                                "type": "uint112",
                                "value": "506,179,462,369,202,944,355,338"
                            },
                            {
                                "name": "reserve1",
                                "type": "uint112",
                                "value": "339,910,270,538,465,328,178"
                            }
                        ],
                        "signature": "Sync(uint112,uint112)"
                    },
                    "id": 11,
                    "logData": "0x000000000000000000000000000000000000000000006b300b2be30f33c02c0a0000000000000000000000000000000000000000000000126d33de220826bc32",
                    "logDecoded": true,
                    "operation": "EVENT",
                    "revert": false,
                    "status": true,
                    "topics": [
                        "0x1c411e9a96e071241c2f21f7726b17ae89e3cab4c78be50e062b03a9fffbbad1"
                    ]
                },
                "nodeType": 1
            },
            "12": {
                "event": {
                    "contract": "0x353a70db3888e957ad2e7444a08a2c9c08a5db47",
                    "decodedLog": {
                        "name": "Swap",
                        "params": [
                            {
                                "name": "sender",
                                "type": "address",
                                "value": "0x7a250d5630b4cf539739df2c5dacb4c659f2488d"
                            },
                            {
                                "name": "to",
                                "type": "address",
                                "value": "0x94ae6d2390680ac6e6ee6069be42067d6ad72e2a"
                            },
                            {
                                "name": "amount0In",
                                "type": "uint256",
                                "value": "500,000,000,000,000,000,000"
                            },
                            {
                                "name": "amount1In",
                                "type": "uint256",
                                "value": "0"
                            },
                            {
                                "name": "amount0Out",
                                "type": "uint256",
                                "value": "0"
                            },
                            {
                                "name": "amount1Out",
                                "type": "uint256",
                                "value": "335,084,341,906,120,048"
                            }
                        ],
                        "signature": "Swap(address,uint256,uint256,uint256,uint256,address)"
                    },
                    "id": 12,
                    "logData": "0x00000000000000000000000000000000000000000000001b1ae4d6e2ef5000000000000000000000000000000000000000000000000000000000000000000000000000000000000000000000000000000000000000000000000000000000000000000000000000000000000000000000000000000000000004a6756f011c1d70",
                    "logDecoded": true,
                    "operation": "EVENT",
                    "revert": false,
                    "status": true,
                    "topics": [
                        "0xd78ad95fa46c994b6551d0da85fc275fe613ce37657fb8d5e3d130840159d822",
                        "0x0000000000000000000000007a250d5630b4cf539739df2c5dacb4c659f2488d",
                        "0x00000000000000000000000094ae6d2390680ac6e6ee6069be42067d6ad72e2a"
                    ]
                },
                "nodeType": 1
            },
            "13": {
                "invocation": {
                    "address": "0x94ae6d2390680ac6e6ee6069be42067d6ad72e2a",
                    "callData": "0x0000000000000000000000000000000000000000000000049fb5ddacb5dbe9860000000000000000000000000000000000000000000000000000000000000000000000000000000000000000d9a409eb3980b585dffa8798dad57c695e20d0aa00000000000000000000000000000000000000000000000000000000000000800000000000000000000000000000000000000000000000000000000000000000",
                    "decodedMethod": {
                        "callParams": [
                            {
                                "name": "amount0Out",
                                "type": "uint256",
                                "value": "85,295,324,451,508,578,694"
                            },
                            {
                                "name": "amount1Out",
                                "type": "uint256",
                                "value": "0"
                            },
                            {
                                "name": "to",
                                "type": "address",
                                "value": "0xd9a409eb3980b585dffa8798dad57c695e20d0aa"
                            },
                            {
                                "name": "data",
                                "type": "bytes",
                                "value": "0x"
                            }
                        ],
                        "constructorArguments": "",
                        "name": "swap",
                        "returnParams": [],
                        "signature": "swap(uint256,uint256,address,bytes)"
                    },
                    "errorInfo": "",
                    "fromAddress": "0x7a250d5630b4cf539739df2c5dacb4c659f2488d",
                    "gasUsed": 52104,
                    "id": 13,
                    "methodDecoded": true,
                    "operation": "CALL",
                    "output": "",
                    "revert": false,
                    "revertMessage": "",
                    "selector": "0x022c0d9f",
                    "status": true,
                    "value": "0"
                },
                "nodeType": 0
            },
            "14": {
                "invocation": {
                    "address": "0x3d6f0dea3ac3c607b3998e6ce14b6350721752d9",
                    "callData": "0x000000000000000000000000d9a409eb3980b585dffa8798dad57c695e20d0aa0000000000000000000000000000000000000000000000049fb5ddacb5dbe986",
                    "decodedMethod": {
                        "callParams": [
                            {
                                "name": "recipient",
                                "type": "address",
                                "value": "0xd9a409eb3980b585dffa8798dad57c695e20d0aa"
                            },
                            {
                                "decimalAvailable": true,
                                "name": "amount",
                                "type": "uint256",
                                "value": "85,295,324,451,508,578,694"
                            }
                        ],
                        "constructorArguments": "",
                        "name": "transfer",
                        "returnParams": [
                            {
                                "name": "",
                                "type": "bool",
                                "value": true
                            }
                        ],
                        "signature": "transfer(address,uint256)"
                    },
                    "errorInfo": "",
                    "fromAddress": "0x94ae6d2390680ac6e6ee6069be42067d6ad72e2a",
                    "gasUsed": 17235,
                    "id": 14,
                    "methodDecoded": true,
                    "operation": "CALL",
                    "output": "0x0000000000000000000000000000000000000000000000000000000000000001",
                    "revert": false,
                    "revertMessage": "",
                    "selector": "0xa9059cbb",
                    "status": true,
                    "value": "0"
                },
                "nodeType": 0
            },
            "15": {
                "event": {
                    "contract": "0x3d6f0dea3ac3c607b3998e6ce14b6350721752d9",
                    "decodedLog": {
                        "name": "Transfer",
                        "params": [
                            {
                                "name": "from",
                                "type": "address",
                                "value": "0x94ae6d2390680ac6e6ee6069be42067d6ad72e2a"
                            },
                            {
                                "name": "to",
                                "type": "address",
                                "value": "0xd9a409eb3980b585dffa8798dad57c695e20d0aa"
                            },
                            {
                                "decimalAvailable": true,
                                "name": "value",
                                "type": "uint256",
                                "value": "85,295,324,451,508,578,694"
                            }
                        ],
                        "signature": "Transfer(address,address,uint256)"
                    },
                    "id": 15,
                    "logData": "0x0000000000000000000000000000000000000000000000049fb5ddacb5dbe986",
                    "logDecoded": true,
                    "operation": "EVENT",
                    "revert": false,
                    "status": true,
                    "topics": [
                        "0xddf252ad1be2c89b69c2b068fc378daa952ba7f163c4a11628f55a4df523b3ef",
                        "0x00000000000000000000000094ae6d2390680ac6e6ee6069be42067d6ad72e2a",
                        "0x000000000000000000000000d9a409eb3980b585dffa8798dad57c695e20d0aa"
                    ]
                },
                "nodeType": 1
            },
            "16": {
                "invocation": {
                    "address": "0x3d6f0dea3ac3c607b3998e6ce14b6350721752d9",
                    "callData": "0x00000000000000000000000094ae6d2390680ac6e6ee6069be42067d6ad72e2a",
                    "decodedMethod": {
                        "callParams": [
                            {
                                "name": "account",
                                "type": "address",
                                "value": "0x94ae6d2390680ac6e6ee6069be42067d6ad72e2a"
                            }
                        ],
                        "constructorArguments": "",
                        "name": "balanceOf",
                        "returnParams": [
                            {
                                "decimalAvailable": true,
                                "name": "",
                                "type": "uint256",
                                "value": "622,999,320,249,610,555,080,060"
                            }
                        ],
                        "signature": "balanceOf(address)"
                    },
                    "errorInfo": "",
                    "fromAddress": "0x94ae6d2390680ac6e6ee6069be42067d6ad72e2a",
                    "gasUsed": 512,
                    "id": 16,
                    "methodDecoded": true,
                    "operation": "STATICCALL",
                    "output": "0x0000000000000000000000000000000000000000000083ecdc5eef281493bd7c",
                    "revert": false,
                    "revertMessage": "",
                    "selector": "0x70a08231",
                    "status": true,
                    "value": "0"
                },
                "nodeType": 0
            },
            "17": {
                "invocation": {
                    "address": "0xc02aaa39b223fe8d0a0e5c4f27ead9083c756cc2",
                    "callData": "0x00000000000000000000000094ae6d2390680ac6e6ee6069be42067d6ad72e2a",
                    "decodedMethod": {
                        "callParams": [
                            {
                                "name": "",
                                "type": "address",
                                "value": "0x94ae6d2390680ac6e6ee6069be42067d6ad72e2a"
                            }
                        ],
                        "constructorArguments": "",
                        "name": "balanceOf",
                        "returnParams": [
                            {
                                "decimalAvailable": true,
                                "name": "",
                                "type": "uint256",
                                "value": "2,440,457,642,295,531,006,847"
                            }
                        ],
                        "signature": "balanceOf(address)"
                    },
                    "errorInfo": "",
                    "fromAddress": "0x94ae6d2390680ac6e6ee6069be42067d6ad72e2a",
                    "gasUsed": 534,
                    "id": 17,
                    "methodDecoded": true,
                    "operation": "STATICCALL",
                    "output": "0x0000000000000000000000000000000000000000000000844c273f91ac71eb7f",
                    "revert": false,
                    "revertMessage": "",
                    "selector": "0x70a08231",
                    "status": true,
                    "value": "0"
                },
                "nodeType": 0
            },
            "18": {
                "event": {
                    "contract": "0x94ae6d2390680ac6e6ee6069be42067d6ad72e2a",
                    "decodedLog": {
                        "name": "Sync",
                        "params": [
                            {
                                "name": "reserve0",
                                "type": "uint112",
                                "value": "622,999,320,249,610,555,080,060"
                            },
                            {
                                "name": "reserve1",
                                "type": "uint112",
                                "value": "2,440,457,642,295,531,006,847"
                            }
                        ],
                        "signature": "Sync(uint112,uint112)"
                    },
                    "id": 18,
                    "logData": "0x0000000000000000000000000000000000000000000083ecdc5eef281493bd7c0000000000000000000000000000000000000000000000844c273f91ac71eb7f",
                    "logDecoded": true,
                    "operation": "EVENT",
                    "revert": false,
                    "status": true,
                    "topics": [
                        "0x1c411e9a96e071241c2f21f7726b17ae89e3cab4c78be50e062b03a9fffbbad1"
                    ]
                },
                "nodeType": 1
            },
            "19": {
                "event": {
                    "contract": "0x94ae6d2390680ac6e6ee6069be42067d6ad72e2a",
                    "decodedLog": {
                        "name": "Swap",
                        "params": [
                            {
                                "name": "sender",
                                "type": "address",
                                "value": "0x7a250d5630b4cf539739df2c5dacb4c659f2488d"
                            },
                            {
                                "name": "to",
                                "type": "address",
                                "value": "0xd9a409eb3980b585dffa8798dad57c695e20d0aa"
                            },
                            {
                                "name": "amount0In",
                                "type": "uint256",
                                "value": "0"
                            },
                            {
                                "name": "amount1In",
                                "type": "uint256",
                                "value": "335,084,341,906,120,048"
                            },
                            {
                                "name": "amount0Out",
                                "type": "uint256",
                                "value": "85,295,324,451,508,578,694"
                            },
                            {
                                "name": "amount1Out",
                                "type": "uint256",
                                "value": "0"
                            }
                        ],
                        "signature": "Swap(address,uint256,uint256,uint256,uint256,address)"
                    },
                    "id": 19,
                    "logData": "0x000000000000000000000000000000000000000000000000000000000000000000000000000000000000000000000000000000000000000004a6756f011c1d700000000000000000000000000000000000000000000000049fb5ddacb5dbe9860000000000000000000000000000000000000000000000000000000000000000",
                    "logDecoded": true,
                    "operation": "EVENT",
                    "revert": false,
                    "status": true,
                    "topics": [
                        "0xd78ad95fa46c994b6551d0da85fc275fe613ce37657fb8d5e3d130840159d822",
                        "0x0000000000000000000000007a250d5630b4cf539739df2c5dacb4c659f2488d",
                        "0x000000000000000000000000d9a409eb3980b585dffa8798dad57c695e20d0aa"
                    ]
                },
                "nodeType": 1
            },
            "2": {
                "invocation": {
                    "address": "0x94ae6d2390680ac6e6ee6069be42067d6ad72e2a",
                    "callData": "0x",
                    "decodedMethod": {
                        "callParams": [],
                        "constructorArguments": "",
                        "name": "getReserves",
                        "returnParams": [
                            {
                                "name": "_reserve0",
                                "type": "uint112",
                                "value": "623,084,615,574,062,063,658,754"
                            },
                            {
                                "name": "_reserve1",
                                "type": "uint112",
                                "value": "2,440,122,557,953,624,886,799"
                            },
                            {
                                "name": "_blockTimestampLast",
                                "type": "uint32",
                                "value": "1,633,048,286"
                            }
                        ],
                        "signature": "getReserves()"
                    },
                    "errorInfo": "",
                    "fromAddress": "0x7a250d5630b4cf539739df2c5dacb4c659f2488d",
                    "gasUsed": 2504,
                    "id": 2,
                    "methodDecoded": true,
                    "operation": "STATICCALL",
                    "output": "0x0000000000000000000000000000000000000000000083f17c14ccd4ca6fa7020000000000000000000000000000000000000000000000844780ca22ab55ce0f00000000000000000000000000000000000000000000000000000000615656de",
                    "revert": false,
                    "revertMessage": "",
                    "selector": "0x0902f1ac",
                    "status": true,
                    "value": "0"
                },
                "nodeType": 0
            },
            "3": {
                "invocation": {
                    "address": "0x948c70dc6169bfb10028fdbe96cbc72e9562b2ac",
                    "callData": "0x000000000000000000000000d9a409eb3980b585dffa8798dad57c695e20d0aa000000000000000000000000353a70db3888e957ad2e7444a08a2c9c08a5db4700000000000000000000000000000000000000000000001b1ae4d6e2ef500000",
                    "decodedMethod": {
                        "callParams": [
                            {
                                "name": "sender",
                                "type": "address",
                                "value": "0xd9a409eb3980b585dffa8798dad57c695e20d0aa"
                            },
                            {
                                "name": "recipient",
                                "type": "address",
                                "value": "0x353a70db3888e957ad2e7444a08a2c9c08a5db47"
                            },
                            {
                                "decimalAvailable": true,
                                "name": "amount",
                                "type": "uint256",
                                "value": "500,000,000,000,000,000,000"
                            }
                        ],
                        "constructorArguments": "",
                        "name": "transferFrom",
                        "returnParams": [
                            {
                                "name": "",
                                "type": "bool",
                                "value": true
                            }
                        ],
                        "signature": "transferFrom(address,address,uint256)"
                    },
                    "errorInfo": "",
                    "fromAddress": "0x7a250d5630b4cf539739df2c5dacb4c659f2488d",
                    "gasUsed": 23063,
                    "id": 3,
                    "methodDecoded": true,
                    "operation": "CALL",
                    "output": "0x0000000000000000000000000000000000000000000000000000000000000001",
                    "revert": false,
                    "revertMessage": "",
                    "selector": "0x23b872dd",
                    "status": true,
                    "value": "0"
                },
                "nodeType": 0
            },
            "4": {
                "event": {
                    "contract": "0x948c70dc6169bfb10028fdbe96cbc72e9562b2ac",
                    "decodedLog": {
                        "name": "Transfer",
                        "params": [
                            {
                                "name": "from",
                                "type": "address",
                                "value": "0xd9a409eb3980b585dffa8798dad57c695e20d0aa"
                            },
                            {
                                "name": "to",
                                "type": "address",
                                "value": "0x353a70db3888e957ad2e7444a08a2c9c08a5db47"
                            },
                            {
                                "decimalAvailable": true,
                                "name": "value",
                                "type": "uint256",
                                "value": "500,000,000,000,000,000,000"
                            }
                        ],
                        "signature": "Transfer(address,address,uint256)"
                    },
                    "id": 4,
                    "logData": "0x00000000000000000000000000000000000000000000001b1ae4d6e2ef500000",
                    "logDecoded": true,
                    "operation": "EVENT",
                    "revert": false,
                    "status": true,
                    "topics": [
                        "0xddf252ad1be2c89b69c2b068fc378daa952ba7f163c4a11628f55a4df523b3ef",
                        "0x000000000000000000000000d9a409eb3980b585dffa8798dad57c695e20d0aa",
                        "0x000000000000000000000000353a70db3888e957ad2e7444a08a2c9c08a5db47"
                    ]
                },
                "nodeType": 1
            },
            "5": {
                "event": {
                    "contract": "0x948c70dc6169bfb10028fdbe96cbc72e9562b2ac",
                    "decodedLog": {
                        "name": "Approval",
                        "params": [
                            {
                                "name": "owner",
                                "type": "address",
                                "value": "0xd9a409eb3980b585dffa8798dad57c695e20d0aa"
                            },
                            {
                                "name": "spender",
                                "type": "address",
                                "value": "0x7a250d5630b4cf539739df2c5dacb4c659f2488d"
                            },
                            {
                                "decimalAvailable": true,
                                "name": "value",
                                "type": "uint256",
                                "value": "115,792,089,237,316,195,423,570,985,008,687,907,853,269,984,665,640,564,038,457,584,007,913,129,639,935"
                            }
                        ],
                        "signature": "Approval(address,address,uint256)"
                    },
                    "id": 5,
                    "logData": "0xffffffffffffffffffffffffffffffffffffffffffffffc9ca36523a215fffff",
                    "logDecoded": true,
                    "operation": "EVENT",
                    "revert": false,
                    "status": true,
                    "topics": [
                        "0x8c5be1e5ebec7d5bd14f71427d1e84f3dd0314c0f7b2291e5b200ac8c7c3b925",
                        "0x000000000000000000000000d9a409eb3980b585dffa8798dad57c695e20d0aa",
                        "0x0000000000000000000000007a250d5630b4cf539739df2c5dacb4c659f2488d"
                    ]
                },
                "nodeType": 1
            },
            "6": {
                "invocation": {
                    "address": "0x353a70db3888e957ad2e7444a08a2c9c08a5db47",
                    "callData": "0x000000000000000000000000000000000000000000000000000000000000000000000000000000000000000000000000000000000000000004a6756f011c1d7000000000000000000000000094ae6d2390680ac6e6ee6069be42067d6ad72e2a00000000000000000000000000000000000000000000000000000000000000800000000000000000000000000000000000000000000000000000000000000000",
                    "decodedMethod": {
                        "callParams": [
                            {
                                "name": "amount0Out",
                                "type": "uint256",
                                "value": "0"
                            },
                            {
                                "name": "amount1Out",
                                "type": "uint256",
                                "value": "335,084,341,906,120,048"
                            },
                            {
                                "name": "to",
                                "type": "address",
                                "value": "0x94ae6d2390680ac6e6ee6069be42067d6ad72e2a"
                            },
                            {
                                "name": "data",
                                "type": "bytes",
                                "value": "0x"
                            }
                        ],
                        "constructorArguments": "",
                        "name": "swap",
                        "returnParams": [],
                        "signature": "swap(uint256,uint256,address,bytes)"
                    },
                    "errorInfo": "",
                    "fromAddress": "0x7a250d5630b4cf539739df2c5dacb4c659f2488d",
                    "gasUsed": 47761,
                    "id": 6,
                    "methodDecoded": true,
                    "operation": "CALL",
                    "output": "",
                    "revert": false,
                    "revertMessage": "",
                    "selector": "0x022c0d9f",
                    "status": true,
                    "value": "0"
                },
                "nodeType": 0
            },
            "7": {
                "invocation": {
                    "address": "0xc02aaa39b223fe8d0a0e5c4f27ead9083c756cc2",
                    "callData": "0x00000000000000000000000094ae6d2390680ac6e6ee6069be42067d6ad72e2a00000000000000000000000000000000000000000000000004a6756f011c1d70",
                    "decodedMethod": {
                        "callParams": [
                            {
                                "name": "dst",
                                "type": "address",
                                "value": "0x94ae6d2390680ac6e6ee6069be42067d6ad72e2a"
                            },
                            {
                                "decimalAvailable": true,
                                "name": "wad",
                                "type": "uint256",
                                "value": "335,084,341,906,120,048"
                            }
                        ],
                        "constructorArguments": "",
                        "name": "transfer",
                        "returnParams": [
                            {
                                "name": "",
                                "type": "bool",
                                "value": true
                            }
                        ],
                        "signature": "transfer(address,uint256)"
                    },
                    "errorInfo": "",
                    "fromAddress": "0x353a70db3888e957ad2e7444a08a2c9c08a5db47",
                    "gasUsed": 12862,
                    "id": 7,
                    "methodDecoded": true,
                    "operation": "CALL",
                    "output": "0x0000000000000000000000000000000000000000000000000000000000000001",
                    "revert": false,
                    "revertMessage": "",
                    "selector": "0xa9059cbb",
                    "status": true,
                    "value": "0"
                },
                "nodeType": 0
            },
            "8": {
                "event": {
                    "contract": "0xc02aaa39b223fe8d0a0e5c4f27ead9083c756cc2",
                    "decodedLog": {
                        "name": "Transfer",
                        "params": [
                            {
                                "name": "src",
                                "type": "address",
                                "value": "0x353a70db3888e957ad2e7444a08a2c9c08a5db47"
                            },
                            {
                                "name": "dst",
                                "type": "address",
                                "value": "0x94ae6d2390680ac6e6ee6069be42067d6ad72e2a"
                            },
                            {
                                "decimalAvailable": true,
                                "name": "wad",
                                "type": "uint256",
                                "value": "335,084,341,906,120,048"
                            }
                        ],
                        "signature": "Transfer(address,address,uint256)"
                    },
                    "id": 8,
                    "logData": "0x00000000000000000000000000000000000000000000000004a6756f011c1d70",
                    "logDecoded": true,
                    "operation": "EVENT",
                    "revert": false,
                    "status": true,
                    "topics": [
                        "0xddf252ad1be2c89b69c2b068fc378daa952ba7f163c4a11628f55a4df523b3ef",
                        "0x000000000000000000000000353a70db3888e957ad2e7444a08a2c9c08a5db47",
                        "0x00000000000000000000000094ae6d2390680ac6e6ee6069be42067d6ad72e2a"
                    ]
                },
                "nodeType": 1
            },
            "9": {
                "invocation": {
                    "address": "0x948c70dc6169bfb10028fdbe96cbc72e9562b2ac",
                    "callData": "0x000000000000000000000000353a70db3888e957ad2e7444a08a2c9c08a5db47",
                    "decodedMethod": {
                        "callParams": [
                            {
                                "name": "account",
                                "type": "address",
                                "value": "0x353a70db3888e957ad2e7444a08a2c9c08a5db47"
                            }
                        ],
                        "constructorArguments": "",
                        "name": "balanceOf",
                        "returnParams": [
                            {
                                "decimalAvailable": true,
                                "name": "",
                                "type": "uint256",
                                "value": "506,179,462,369,202,944,355,338"
                            }
                        ],
                        "signature": "balanceOf(address)"
                    },
                    "errorInfo": "",
                    "fromAddress": "0x353a70db3888e957ad2e7444a08a2c9c08a5db47",
                    "gasUsed": 542,
                    "id": 9,
                    "methodDecoded": true,
                    "operation": "STATICCALL",
                    "output": "0x000000000000000000000000000000000000000000006b300b2be30f33c02c0a",
                    "revert": false,
                    "revertMessage": "",
                    "selector": "0x70a08231",
                    "status": true,
                    "value": "0"
                },
                "nodeType": 0
            }
        },
        "gasFlame": [
            {
                "children": [
                    {
                        "children": [
                            {
                                "children": [],
                                "depth": 0,
                                "name": "Initial Gas",
                                "value": 23428
                            },
                            {
                                "children": [
                                    {
                                        "children": [],
                                        "depth": 1,
                                        "name": "getReserves",
                                        "value": 2504
                                    },
                                    {
                                        "children": [],
                                        "depth": 1,
                                        "name": "getReserves",
                                        "value": 2504
                                    },
                                    {
                                        "children": [],
                                        "depth": 1,
                                        "name": "transferFrom",
                                        "value": 23063
                                    },
                                    {
                                        "children": [
                                            {
                                                "children": [],
                                                "depth": 2,
                                                "name": "transfer",
                                                "value": 12862
                                            },
                                            {
                                                "children": [],
                                                "depth": 2,
                                                "name": "balanceOf",
                                                "value": 542
                                            },
                                            {
                                                "children": [],
                                                "depth": 2,
                                                "name": "balanceOf",
                                                "value": 534
                                            }
                                        ],
                                        "depth": 1,
                                        "name": "swap",
                                        "value": 47761
                                    },
                                    {
                                        "children": [
                                            {
                                                "children": [],
                                                "depth": 2,
                                                "name": "transfer",
                                                "value": 17235
                                            },
                                            {
                                                "children": [],
                                                "depth": 2,
                                                "name": "balanceOf",
                                                "value": 512
                                            },
                                            {
                                                "children": [],
                                                "depth": 2,
                                                "name": "balanceOf",
                                                "value": 534
                                            }
                                        ],
                                        "depth": 1,
                                        "name": "swap",
                                        "value": 52104
                                    }
                                ],
                                "depth": 0,
                                "name": "Executed Gas",
                                "value": 148184
                            }
                        ],
                        "depth": -1,
                        "name": "Actual Gas Used",
                        "value": 161212
                    },
                    {
                        "children": [],
                        "depth": -1,
                        "name": "Refunded Gas",
                        "value": 10400
                    }
                ],
                "depth": -2,
                "name": "Total Gas",
                "value": 171612
            }
        ],
        "isConfirmed": true,
        "mainTrace": [
            {
                "children": [
                    {
                        "children": [
                            {
                                "children": [],
                                "depth": 1,
                                "id": 1,
                                "order": 1
                            },
                            {
                                "children": [],
                                "depth": 1,
                                "id": 2,
                                "order": 2
                            },
                            {
                                "children": [
                                    {
                                        "children": [],
                                        "depth": 2,
                                        "id": 4,
                                        "order": 4
                                    },
                                    {
                                        "children": [],
                                        "depth": 2,
                                        "id": 5,
                                        "order": 5
                                    }
                                ],
                                "depth": 1,
                                "id": 3,
                                "order": 3
                            },
                            {
                                "children": [
                                    {
                                        "children": [
                                            {
                                                "children": [],
                                                "depth": 3,
                                                "id": 8,
                                                "order": 8
                                            }
                                        ],
                                        "depth": 2,
                                        "id": 7,
                                        "order": 7
                                    },
                                    {
                                        "children": [],
                                        "depth": 2,
                                        "id": 9,
                                        "order": 9
                                    },
                                    {
                                        "children": [],
                                        "depth": 2,
                                        "id": 10,
                                        "order": 10
                                    },
                                    {
                                        "children": [],
                                        "depth": 2,
                                        "id": 11,
                                        "order": 11
                                    },
                                    {
                                        "children": [],
                                        "depth": 2,
                                        "id": 12,
                                        "order": 12
                                    }
                                ],
                                "depth": 1,
                                "id": 6,
                                "order": 6
                            },
                            {
                                "children": [
                                    {
                                        "children": [
                                            {
                                                "children": [],
                                                "depth": 3,
                                                "id": 15,
                                                "order": 15
                                            }
                                        ],
                                        "depth": 2,
                                        "id": 14,
                                        "order": 14
                                    },
                                    {
                                        "children": [],
                                        "depth": 2,
                                        "id": 16,
                                        "order": 16
                                    },
                                    {
                                        "children": [],
                                        "depth": 2,
                                        "id": 17,
                                        "order": 17
                                    },
                                    {
                                        "children": [],
                                        "depth": 2,
                                        "id": 18,
                                        "order": 18
                                    },
                                    {
                                        "children": [],
                                        "depth": 2,
                                        "id": 19,
                                        "order": 19
                                    }
                                ],
                                "depth": 1,
                                "id": 13,
                                "order": 13
                            }
                        ],
                        "depth": 0,
                        "id": 0,
                        "order": 0
                    }
                ],
                "depth": -1,
                "id": -1,
                "order": -1
            }
        ],
        "mainTraceNodeCount": 20,
        "parentIdMap": {
            "0": -1,
            "1": 0,
            "10": 6,
            "11": 6,
            "12": 6,
            "13": 0,
            "14": 13,
            "15": 14,
            "16": 13,
            "17": 13,
            "18": 13,
            "19": 13,
            "2": 0,
            "3": 0,
            "4": 3,
            "5": 3,
            "6": 0,
            "7": 6,
            "8": 7,
            "9": 6
        },
        "tidyTrace": [
            {
                "children": [
                    {
                        "children": [
                            {
                                "children": [
                                    {
                                        "children": [],
                                        "depth": 2,
                                        "id": 4,
                                        "order": 4
                                    },
                                    {
                                        "children": [],
                                        "depth": 2,
                                        "id": 5,
                                        "order": 5
                                    }
                                ],
                                "depth": 1,
                                "id": 3,
                                "order": 3
                            },
                            {
                                "children": [
                                    {
                                        "children": [
                                            {
                                                "children": [],
                                                "depth": 3,
                                                "id": 8,
                                                "order": 8
                                            }
                                        ],
                                        "depth": 2,
                                        "id": 7,
                                        "order": 7
                                    },
                                    {
                                        "children": [],
                                        "depth": 2,
                                        "id": 11,
                                        "order": 11
                                    },
                                    {
                                        "children": [],
                                        "depth": 2,
                                        "id": 12,
                                        "order": 12
                                    }
                                ],
                                "depth": 1,
                                "id": 6,
                                "order": 6
                            },
                            {
                                "children": [
                                    {
                                        "children": [
                                            {
                                                "children": [],
                                                "depth": 3,
                                                "id": 15,
                                                "order": 15
                                            }
                                        ],
                                        "depth": 2,
                                        "id": 14,
                                        "order": 14
                                    },
                                    {
                                        "children": [],
                                        "depth": 2,
                                        "id": 18,
                                        "order": 18
                                    },
                                    {
                                        "children": [],
                                        "depth": 2,
                                        "id": 19,
                                        "order": 19
                                    }
                                ],
                                "depth": 1,
                                "id": 13,
                                "order": 13
                            }
                        ],
                        "depth": 0,
                        "id": 0,
                        "order": 0
                    }
                ],
                "depth": -1,
                "id": -1,
                "order": -1
            }
        ],
        "tidyTraceNodeCount": 14
    },
    "state_change": {
        "stateChanges": [
            {
                "address": "0x353a70db3888e957ad2e7444a08a2c9c08a5db47",
                "erc": "ERC-20",
                "slots": [
                    {
                        "current": "0x000000000000000000000000000000000475bb58c063cde81d980e52e7a22ccf",
                        "key": "0x0000000000000000000000000000000000000000000000000000000000000009",
                        "prev": "0x000000000000000000000000000000000474dede2e29a5106518de8f9bab55cf"
                    },
                    {
                        "current": "0x0000000000000000000000000000bb2a47a96469a8e9926211dd6138b98d9be9",
                        "key": "0x000000000000000000000000000000000000000000000000000000000000000a",
                        "prev": "0x0000000000000000000000000000bb0d408fc02e772b63fe721e31160d9fe0e9"
                    },
                    {
                        "current": "0x61565bde0000000000126d33de220826bc32000000006b300b2be30f33c02c0a",
                        "key": "0x0000000000000000000000000000000000000000000000000000000000000008",
                        "prev": "0x615656de00000000001271da53910942d9a2000000006b14f0470c2c44702c0a"
                    }
                ],
                "storageVariables": [
                    {
                        "name": "price0CumulativeLast",
                        "type": "uint256",
                        "value": {
                            "current": "5928210557804200350530467713633103055",
                            "prev": "5923738716600448237330296605814511055",
                            "typeTag": 1
                        }
                    },
                    {
                        "name": "price1CumulativeLast",
                        "type": "uint256",
                        "value": {
                            "current": "16304384583372327553078781661173248833723369",
                            "prev": "16294506956997223348588873642665219371032809",
                            "typeTag": 1
                        }
                    },
                    {
                        "name": "reserve0",
                        "type": "uint112",
                        "value": {
                            "current": "506179462369202944355338",
                            "prev": "505679462369202944355338",
                            "typeTag": 1
                        }
                    },
                    {
                        "name": "reserve1",
                        "type": "uint112",
                        "value": {
                            "current": "339910270538465328178",
                            "prev": "340245354880371448226",
                            "typeTag": 1
                        }
                    },
                    {
                        "name": "blockTimestampLast",
                        "type": "uint32",
                        "value": {
                            "current": "1633049566",
                            "prev": "1633048286",
                            "typeTag": 1
                        }
                    }
                ]
            },
            {
                "address": "0x3d6f0dea3ac3c607b3998e6ce14b6350721752d9",
                "erc": "ERC-20",
                "slots": [
                    {
                        "current": "0x0000000000000000000000000000000000000000000083ecdc5eef281493bd7c",
                        "key": "0xecb6a17dc727a8dd7a6e28b13e8bd02205f8b7e5885a3a5c211cbdefa369073f",
                        "prev": "0x0000000000000000000000000000000000000000000083f17c14ccd4ca6fa702"
                    },
                    {
                        "current": "0x00000000000000000000000000000000000000000000000942160980b20e0b30",
                        "key": "0x32015bfd7c3a788a762ca370532baa318dc5a4a49684bbd42c54d7a3f4d9df73",
                        "prev": "0x000000000000000000000000000000000000000000000004a2602bd3fc3221aa"
                    }
                ],
                "storageVariables": [
                    {
                        "name": "_balances",
                        "type": "mapping(address => uint256)",
                        "value": {
                            "pairs": [
                                {
                                    "key": "0x94ae6d2390680ac6e6ee6069be42067d6ad72e2a",
                                    "value": {
                                        "current": "622999320249610555080060",
                                        "prev": "623084615574062063658754",
                                        "typeTag": 1
                                    }
                                },
                                {
                                    "key": "0xd9a409eb3980b585dffa8798dad57c695e20d0aa",
                                    "value": {
                                        "current": "170782700767724571440",
                                        "prev": "85487376316215992746",
                                        "typeTag": 1
                                    }
                                }
                            ],
                            "typeTag": 4
                        }
                    }
                ]
            },
            {
                "address": "0x948c70dc6169bfb10028fdbe96cbc72e9562b2ac",
                "erc": "ERC-20",
                "slots": [
                    {
                        "current": "0x0000000000000000000000000000000000000000000000000000000000000000",
                        "key": "0x922612b6587873a5fae04abe3b66c7509269ddbba7977c3a62343defa89f4fb7",
                        "prev": "0x00000000000000000000000000000000000000000000001b1ae4d6e2ef500000"
                    },
                    {
                        "current": "0x000000000000000000000000000000000000000000006b300b2be30f33c02c0a",
                        "key": "0x97eb0eb2f04f82b0418493612c07de8b5708988a13b7f74164a93d3a4f87eca0",
                        "prev": "0x000000000000000000000000000000000000000000006b14f0470c2c44702c0a"
                    },
                    {
                        "current": "0xffffffffffffffffffffffffffffffffffffffffffffffc9ca36523a215fffff",
                        "key": "0xd8afecf02a3b79631d13613fb0398bc813b2c5eee649a4d2448b16a602ec4f40",
                        "prev": "0xffffffffffffffffffffffffffffffffffffffffffffffe4e51b291d10afffff"
                    }
                ],
                "storageVariables": [
                    {
                        "name": "_balances",
                        "type": "mapping(address => uint256)",
                        "value": {
                            "pairs": [
                                {
                                    "key": "0x353a70db3888e957ad2e7444a08a2c9c08a5db47",
                                    "value": {
                                        "current": "506179462369202944355338",
                                        "prev": "505679462369202944355338",
                                        "typeTag": 1
                                    }
                                },
                                {
                                    "key": "0xd9a409eb3980b585dffa8798dad57c695e20d0aa",
                                    "value": {
                                        "current": "0",
                                        "prev": "500000000000000000000",
                                        "typeTag": 1
                                    }
                                }
                            ],
                            "typeTag": 4
                        }
                    },
                    {
                        "name": "_allowances",
                        "type": "mapping(address => mapping(address => uint256))",
                        "value": {
                            "pairs": [
                                {
                                    "key": "0xd9a409eb3980b585dffa8798dad57c695e20d0aa",
                                    "value": {
                                        "pairs": [
                                            {
                                                "key": "0x7a250d5630b4cf539739df2c5dacb4c659f2488d",
                                                "value": {
                                                    "current": "115792089237316195423570985008687907853269984665640564038457584007913129639935",
                                                    "prev": "115792089237316195423570985008687907853269984665640564038957584007913129639935",
                                                    "typeTag": 1
                                                }
                                            }
                                        ],
                                        "typeTag": 4
                                    }
                                }
                            ],
                            "typeTag": 4
                        }
                    }
                ]
            },
            {
                "address": "0x94ae6d2390680ac6e6ee6069be42067d6ad72e2a",
                "erc": "ERC-20",
                "slots": [
                    {
                        "current": "0x000000000000000000000000000000022713e80808a50dd7e61a36309a058fb1",
                        "key": "0x0000000000000000000000000000000000000000000000000000000000000009",
                        "prev": "0x00000000000000000000000000000002270ee4c58ebd93d8c94fdf1fdf9b50b1"
                    },
                    {
                        "current": "0x00000000000000000000000000009ca484cfc2d90f89d7eae4cbced471562c08",
                        "key": "0x000000000000000000000000000000000000000000000000000000000000000a",
                        "prev": "0x00000000000000000000000000009c9f88101e1c33d6281d90b62052212a2c08"
                    },
                    {
                        "current": "0x61565bde0000000000844c273f91ac71eb7f0000000083ecdc5eef281493bd7c",
                        "key": "0x0000000000000000000000000000000000000000000000000000000000000008",
                        "prev": "0x615656de0000000000844780ca22ab55ce0f0000000083f17c14ccd4ca6fa702"
                    }
                ],
                "storageVariables": [
                    {
                        "name": "price0CumulativeLast",
                        "type": "uint256",
                        "value": {
                            "current": "732507985473329573208794878232429432753",
                            "prev": "732481957875021838009142207749350445233",
                            "typeTag": 1
                        }
                    },
                    {
                        "name": "price1CumulativeLast",
                        "type": "uint256",
                        "value": {
                            "current": "13645499450382510493777510015670890532318216",
                            "prev": "13643802360389910896974977701975518677183496",
                            "typeTag": 1
                        }
                    },
                    {
                        "name": "reserve0",
                        "type": "uint112",
                        "value": {
                            "current": "622999320249610555080060",
                            "prev": "623084615574062063658754",
                            "typeTag": 1
                        }
                    },
                    {
                        "name": "reserve1",
                        "type": "uint112",
                        "value": {
                            "current": "2440457642295531006847",
                            "prev": "2440122557953624886799",
                            "typeTag": 1
                        }
                    },
                    {
                        "name": "blockTimestampLast",
                        "type": "uint32",
                        "value": {
                            "current": "1633049566",
                            "prev": "1633048286",
                            "typeTag": 1
                        }
                    }
                ]
            },
            {
                "address": "0xc02aaa39b223fe8d0a0e5c4f27ead9083c756cc2",
                "erc": "ERC-20",
                "slots": [
                    {
                        "current": "0x0000000000000000000000000000000000000000000000126d33de220826bc32",
                        "key": "0xf01b47a98c44c312cb18975fe74a8f1851cec18afc98ab7f6389cb7879aabc87",
                        "prev": "0x00000000000000000000000000000000000000000000001271da53910942d9a2"
                    },
                    {
                        "current": "0x0000000000000000000000000000000000000000000000844c273f91ac71eb7f",
                        "key": "0x2692d1371636c0ed760d59939c49225eb786f733aae0ecd095f956d8de937826",
                        "prev": "0x0000000000000000000000000000000000000000000000844780ca22ab55ce0f"
                    }
                ],
                "storageVariables": [
                    {
                        "name": "balanceOf",
                        "type": "mapping(address => uint256)",
                        "value": {
                            "pairs": [
                                {
                                    "key": "0x353a70db3888e957ad2e7444a08a2c9c08a5db47",
                                    "value": {
                                        "current": "339910270538465328178",
                                        "prev": "340245354880371448226",
                                        "typeTag": 1
                                    }
                                },
                                {
                                    "key": "0x94ae6d2390680ac6e6ee6069be42067d6ad72e2a",
                                    "value": {
                                        "current": "2440457642295531006847",
                                        "prev": "2440122557953624886799",
                                        "typeTag": 1
                                    }
                                }
                            ],
                            "typeTag": 4
                        }
                    }
                ]
            }
        ]
    }
}