{
    "balance_change": {
        "balanceChanges": []
    },
    "profile": {
        "basic_info": {
            "baseFee": "17.709205594",
            "blockNumber": 18989451,
            "callData": "0x906e9dd00000000000000000000000005def5fcca27b0b3453dff70577d3d5c74951706e",
            "debugEnable": true,
            "errorInfo": "",
            "eventCount": 1,
            "feeRecipient": "0x1f9090aae28b8a3dceadf281b0f12828e676c326",
            "formatValue": "0",
            "gasLimit": 45270,
            "gasPrice": "17.809205594",
            "gasUsed": 30180,
            "intTxnCount": 0,
            "internalRevert": false,
            "internalRevertMessage": "",
            "isContractCreation": false,
            "isFlashloan": false,
            "maxFee": "22.116518797",
            "nonce": 33,
            "overwritedBlockNumber": -1,
            "priorityFee": "0.1",
            "receiver": "0xbf5c0b0ef9ed7544bec7bdf47618d91e1c72fc97",
            "revertMessage": "",
            "sender": "0x9cb29456f8cd27b136cde10d649a76f780a4e4dc",
            "simulationEnable": true,
            "sourceTxnHash": "0xbb7185b48fac4b536a6d2fca714e1943104d93bab3edfe8d79e5091593c5df62",
            "status": true,
            "timestamp": "2024-01-12T07:53:23Z",
            "transactionFee": "0.00053748182482692",
            "txnHash": "0xbb7185b48fac4b536a6d2fca714e1943104d93bab3edfe8d79e5091593c5df62",
            "txnIndex": 205,
            "type": 2,
            "value": "0"
        },
        "fund_flow": [],
        "token_infos": [
            {
                "address": "0xc02aaa39b223fe8d0a0e5c4f27ead9083c756cc2",
                "decimals": 18
            },
            {
                "address": "0xeeeeeeeeeeeeeeeeeeeeeeeeeeeeeeeeeeeeeeee",
                "decimals": 18
            }
        ]
    },
    "address_label": {
        "labels": [
            {
                "address": "0xeeeeeeeeeeeeeeeeeeeeeeeeeeeeeeeeeeeeeeee",
                "label": "Ether"
            },
            {
                "address": "0x9cb29456f8cd27b136cde10d649a76f780a4e4dc",
                "label": "Lance Inu: Deployer"
            },
            {
                "address": "0xbf5c0b0ef9ed7544bec7bdf47618d91e1c72fc97",
                "label": "Lance Inu: LINU Token"
            },
            {
                "address": "0x0000000000000000000000000000000000000001",
                "label": "Precompiled"
            },
            {
                "address": "0x0000000000000000000000000000000000000002",
                "label": "Precompiled"
            },
            {
                "address": "0x0000000000000000000000000000000000000003",
                "label": "Precompiled"
            },
            {
                "address": "0x0000000000000000000000000000000000000004",
                "label": "Precompiled"
            }
        ]
    },
    "trace": {
        "accountLabels": null,
        "dataMap": {
            "-1": {
                "invocation": {
                    "address": "0x9cb29456f8cd27b136cde10d649a76f780a4e4dc",
                    "callData": "",
                    "decodedMethod": null,
                    "errorInfo": "",
                    "fromAddress": "",
                    "gasUsed": 0,
                    "id": -1,
                    "methodDecoded": false,
                    "operation": "",
                    "output": "",
                    "revert": false,
                    "revertMessage": "",
                    "selector": "",
                    "status": false,
                    "value": ""
                },
                "nodeType": 0
            },
            "0": {
                "invocation": {
                    "address": "0xbf5c0b0ef9ed7544bec7bdf47618d91e1c72fc97",
                    "callData": "0x0000000000000000000000005def5fcca27b0b3453dff70577d3d5c74951706e",
                    "decodedMethod": {
                        "callParams": [
                            {
                                "name": "_marketingAddress",
                                "type": "address",
                                "value": "0x5def5fcca27b0b3453dff70577d3d5c74951706e"
                            }
                        ],
                        "constructorArguments": "",
                        "name": "setMarketingAddress",
                        "returnParams": [],
                        "signature": "setMarketingAddress(address)"
                    },
                    "errorInfo": "",
                    "fromAddress": "0x9cb29456f8cd27b136cde10d649a76f780a4e4dc",
                    "gasUsed": 30180,
                    "id": 0,
                    "methodDecoded": true,
                    "operation": "CALL",
                    "output": "",
                    "revert": false,
                    "revertMessage": "",
                    "selector": "0x906e9dd0",
                    "status": true,
                    "value": "0"
                },
                "nodeType": 0
            },
            "1": {
                "event": {
                    "contract": "0xbf5c0b0ef9ed7544bec7bdf47618d91e1c72fc97",
                    "decodedLog": {
                        "name": "UpdatedMarketingAddress",
                        "params": [
                            {
                                "name": "newWallet",
                                "type": "address",
                                "value": "0x5def5fcca27b0b3453dff70577d3d5c74951706e"
                            }
                        ],
                        "signature": "UpdatedMarketingAddress(address)"
                    },
                    "id": 1,
                    "logData": "0x",
                    "logDecoded": true,
                    "operation": "EVENT",
                    "revert": false,
                    "status": true,
                    "topics": [
                        "0xd1e7d6a3390dd5008bd1c57798817b9f806e4c417264e7d3d67e42e784dc24a9",
                        "0x0000000000000000000000005def5fcca27b0b3453dff70577d3d5c74951706e"
                    ]
                },
                "nodeType": 1
            }
        },
        "gasFlame": [
            {
                "children": [
                    {
                        "children": [
                            {
                                "children": [],
                                "depth": 0,
                                "name": "Initial Gas",
                                "value": 21432
                            },
                            {
                                "children": [],
                                "depth": 0,
                                "name": "Executed Gas",
                                "value": 8748
                            }
                        ],
                        "depth": -1,
                        "name": "Actual Gas Used",
                        "value": 30180
                    },
                    {
                        "children": [],
                        "depth": -1,
                        "name": "Refunded Gas",
                        "value": 0
                    }
                ],
                "depth": -2,
                "name": "Total Gas",
                "value": 30180
            }
        ],
        "isConfirmed": true,
        "mainTrace": [
            {
                "children": [
                    {
                        "children": [
                            {
                                "children": [],
                                "depth": 1,
                                "id": 1,
                                "order": 1
                            }
                        ],
                        "depth": 0,
                        "id": 0,
                        "order": 0
                    }
                ],
                "depth": -1,
                "id": -1,
                "order": -1
            }
        ],
        "mainTraceNodeCount": 2,
        "parentIdMap": {
            "0": -1,
            "1": 0
        },
        "tidyTrace": [
            {
                "children": [
                    {
                        "children": [
                            {
                                "children": [],
                                "depth": 1,
                                "id": 1,
                                "order": 1
                            }
                        ],
                        "depth": 0,
                        "id": 0,
                        "order": 0
                    }
                ],
                "depth": -1,
                "id": -1,
                "order": -1
            }
        ],
        "tidyTraceNodeCount": 2
    },
    "state_change": {
        "stateChanges": [
            {
                "address": "0xbf5c0b0ef9ed7544bec7bdf47618d91e1c72fc97",
                "erc": "ERC-20",
                "slots": [
                    {
                        "current": "0x0000000000000000000000005def5fcca27b0b3453dff70577d3d5c74951706e",
                        "key": "0x000000000000000000000000000000000000000000000000000000000000000c",
                        "prev": "0x0000000000000000000000000cdf02d671e577c7123e13b8fb9e4cd2dd0b68bd"
                    }
                ],
                "storageVariables": [
                    {
                        "name": "marketingAddress",
                        "type": "address",
                        "value": {
                            "current": "0x5def5fcca27b0b3453dff70577d3d5c74951706e",
                            "prev": "0x0cdf02d671e577c7123e13b8fb9e4cd2dd0b68bd",
                            "typeTag": 1
                        }
                    }
                ]
            }
        ]
    }
}