{
    "balance_change": {
        "balanceChanges": [
            {
                "account": "0xc8dfcec53ab1102a38e8f96be8eba37fc5340c99",
                "assets": [
                    {
                        "address": "0x686b30a80826340a59afa564c2a01b79128eb7dd",
                        "amount": "3,515",
                        "iconUrl": "",
                        "isERC1155": false,
                        "isERC721": false,
                        "sign": false,
                        "value": ""
                    }
                ]
            },
            {
                "account": "0x154c5f5293848e0c9182e00d4e8635612c223b5b",
                "assets": [
                    {
                        "address": "0x686b30a80826340a59afa564c2a01b79128eb7dd",
                        "amount": "3,515",
                        "iconUrl": "",
                        "isERC1155": false,
                        "isERC721": false,
                        "sign": true,
                        "value": ""
                    }
                ]
            }
        ]
    },
    "profile": {
        "basic_info": {
            "baseFee": "",
            "blockNumber": 8503122,
            "callData": "0xa9059cbb000000000000000000000000154c5f5293848e0c9182e00d4e8635612c223b5b0000000000000000000000000000000000000000000000be8c6c94bb5a0c0000",
            "debugEnable": true,
            "errorInfo": "",
            "eventCount": 1,
            "feeRecipient": "0xb2930b35844a230f00e51431acae96fe543a0347",
            "formatValue": "0",
            "gasLimit": 57582,
            "gasPrice": "34.32",
            "gasUsed": 38388,
            "intTxnCount": 0,
            "internalRevert": false,
            "internalRevertMessage": "",
            "isContractCreation": false,
            "isFlashloan": false,
            "maxFee": "",
            "nonce": 341730,
            "overwritedBlockNumber": -1,
            "priorityFee": "",
            "receiver": "0x686b30a80826340a59afa564c2a01b79128eb7dd",
            "revertMessage": "",
            "sender": "0xc8dfcec53ab1102a38e8f96be8eba37fc5340c99",
            "simulationEnable": true,
            "sourceTxnHash": "0xbbb2ffd789149fed9f50b8c39cac6a573551e71496ba011bc226f4228417c650",
            "status": true,
            "timestamp": "2019-09-07T13:22:21Z",
            "transactionFee": "0.00131747616",
            "txnHash": "0xbbb2ffd789149fed9f50b8c39cac6a573551e71496ba011bc226f4228417c650",
            "txnIndex": 8,
            "type": 0,
            "value": "0"
        },
        "fund_flow": [
            {
                "amount": "3,515",
                "from": "0xc8dfcec53ab1102a38e8f96be8eba37fc5340c99",
                "id": 1,
                "isERC1155": false,
                "isERC721": false,
                "isReverted": false,
                "order": 1,
                "to": "0x154c5f5293848e0c9182e00d4e8635612c223b5b",
                "token": "0x686b30a80826340a59afa564c2a01b79128eb7dd"
            }
        ],
        "token_infos": [
            {
                "address": "0x686b30a80826340a59afa564c2a01b79128eb7dd",
                "decimals": 18
            },
            {
                "address": "0xc02aaa39b223fe8d0a0e5c4f27ead9083c756cc2",
                "decimals": 18
            },
            {
                "address": "0xeeeeeeeeeeeeeeeeeeeeeeeeeeeeeeeeeeeeeeee",
                "decimals": 18
            }
        ]
    },
    "address_label": {
        "labels": [
            {
                "address": "0x0000000000000000000000000000000000000002",
                "label": "Precompiled"
            },
            {
                "address": "0x0000000000000000000000000000000000000003",
                "label": "Precompiled"
            },
            {
                "address": "0x0000000000000000000000000000000000000004",
                "label": "Precompiled"
            },
            {
                "address": "0xeeeeeeeeeeeeeeeeeeeeeeeeeeeeeeeeeeeeeeee",
                "label": "Ether"
            },
            {
                "address": "0x686b30a80826340a59afa564c2a01b79128eb7dd",
                "label": "Healthy Happy Harmony (HHH)"
            },
            {
                "address": "0x0000000000000000000000000000000000000001",
                "label": "Precompiled"
            }
        ]
    },
    "trace": {
        "accountLabels": null,
        "dataMap": {
            "-1": {
                "invocation": {
                    "address": "0xc8dfcec53ab1102a38e8f96be8eba37fc5340c99",
                    "callData": "",
                    "decodedMethod": null,
                    "errorInfo": "",
                    "fromAddress": "",
                    "gasUsed": 0,
                    "id": -1,
                    "methodDecoded": false,
                    "operation": "",
                    "output": "",
                    "revert": false,
                    "revertMessage": "",
                    "selector": "",
                    "status": false,
                    "value": ""
                },
                "nodeType": 0
            },
            "0": {
                "invocation": {
                    "address": "0x686b30a80826340a59afa564c2a01b79128eb7dd",
                    "callData": "0x000000000000000000000000154c5f5293848e0c9182e00d4e8635612c223b5b0000000000000000000000000000000000000000000000be8c6c94bb5a0c0000",
                    "decodedMethod": {
                        "callParams": [
                            {
                                "name": "_to",
                                "type": "address",
                                "value": "0x154c5f5293848e0c9182e00d4e8635612c223b5b"
                            },
                            {
                                "decimalAvailable": true,
                                "name": "_value",
                                "type": "uint256",
                                "value": "3,515,000,000,000,000,000,000"
                            }
                        ],
                        "constructorArguments": "",
                        "name": "transfer",
                        "returnParams": [],
                        "signature": "transfer(address,uint256)"
                    },
                    "errorInfo": "",
                    "fromAddress": "0xc8dfcec53ab1102a38e8f96be8eba37fc5340c99",
                    "gasUsed": 38388,
                    "id": 0,
                    "methodDecoded": true,
                    "operation": "CALL",
                    "output": "",
                    "revert": false,
                    "revertMessage": "",
                    "selector": "0xa9059cbb",
                    "status": true,
                    "value": "0"
                },
                "nodeType": 0
            },
            "1": {
                "event": {
                    "contract": "0x686b30a80826340a59afa564c2a01b79128eb7dd",
                    "decodedLog": {
                        "name": "Transfer",
                        "params": [
                            {
                                "name": "from",
                                "type": "address",
                                "value": "0xc8dfcec53ab1102a38e8f96be8eba37fc5340c99"
                            },
                            {
                                "name": "to",
                                "type": "address",
                                "value": "0x154c5f5293848e0c9182e00d4e8635612c223b5b"
                            },
                            {
                                "decimalAvailable": true,
                                "name": "value",
                                "type": "uint256",
                                "value": "3,515,000,000,000,000,000,000"
                            }
                        ],
                        "signature": "Transfer(address,address,uint256)"
                    },
                    "id": 1,
                    "logData": "0x0000000000000000000000000000000000000000000000be8c6c94bb5a0c0000",
                    "logDecoded": true,
                    "operation": "EVENT",
                    "revert": false,
                    "status": true,
                    "topics": [
                        "0xddf252ad1be2c89b69c2b068fc378daa952ba7f163c4a11628f55a4df523b3ef",
                        "0x000000000000000000000000c8dfcec53ab1102a38e8f96be8eba37fc5340c99",
                        "0x000000000000000000000000154c5f5293848e0c9182e00d4e8635612c223b5b"
                    ]
                },
                "nodeType": 1
            }
        },
        "gasFlame": [
            {
                "children": [
                    {
                        "children": [
                            {
                                "children": [],
                                "depth": 0,
                                "name": "Initial Gas",
                                "value": 23256
                            },
                            {
                                "children": [],
                                "depth": 0,
                                "name": "Executed Gas",
                                "value": 15132
                            }
                        ],
                        "depth": -1,
                        "name": "Actual Gas Used",
                        "value": 38388
                    },
                    {
                        "children": [],
                        "depth": -1,
                        "name": "Refunded Gas",
                        "value": 0
                    }
                ],
                "depth": -2,
                "name": "Total Gas",
                "value": 38388
            }
        ],
        "isConfirmed": true,
        "mainTrace": [
            {
                "children": [
                    {
                        "children": [
                            {
                                "children": [],
                                "depth": 1,
                                "id": 1,
                                "order": 1
                            }
                        ],
                        "depth": 0,
                        "id": 0,
                        "order": 0
                    }
                ],
                "depth": -1,
                "id": -1,
                "order": -1
            }
        ],
        "mainTraceNodeCount": 2,
        "parentIdMap": {
            "0": -1,
            "1": 0
        },
        "tidyTrace": [
            {
                "children": [
                    {
                        "children": [
                            {
                                "children": [],
                                "depth": 1,
                                "id": 1,
                                "order": 1
                            }
                        ],
                        "depth": 0,
                        "id": 0,
                        "order": 0
                    }
                ],
                "depth": -1,
                "id": -1,
                "order": -1
            }
        ],
        "tidyTraceNodeCount": 2
    },
    "state_change": {
        "stateChanges": [
            {
                "address": "0x686b30a80826340a59afa564c2a01b79128eb7dd",
                "erc": "",
                "slots": [
                    {
                        "current": "0x000000000000000000000000000000000000000000000b4f2a4bfbf6efafc000",
                        "key": "0xf5c5db550b00688f314da60dc8d90f92649747c9a01b77485789200961e1a7fb",
                        "prev": "0x000000000000000000000000000000000000000000000a909ddf673b95a3c000"
                    },
                    {
                        "current": "0x000000000000000000000000000000000000000000134da4b1aaa1fc0a6ae000",
                        "key": "0x21448da97da8c0453aae178c78c59e5f0a3724c2f10a4409fea330c59dd04db6",
                        "prev": "0x000000000000000000000000000000000000000000134e633e1736b76476e000"
                    }
                ],
                "storageVariables": [
                    {
                        "name": "balanceOf",
                        "type": "mapping(address => uint256)",
                        "value": {
                            "pairs": [
                                {
                                    "key": "0x154c5f5293848e0c9182e00d4e8635612c223b5b",
                                    "value": {
                                        "current": "53406371900000000000000",
                                        "prev": "49891371900000000000000",
                                        "typeTag": 1
                                    }
                                },
                                {
                                    "key": "0xc8dfcec53ab1102a38e8f96be8eba37fc5340c99",
                                    "value": {
                                        "current": "23336250860110000000000000",
                                        "prev": "23339765860110000000000000",
                                        "typeTag": 1
                                    }
                                }
                            ],
                            "typeTag": 4
                        }
                    }
                ]
            }
        ]
    }
}