{
    "balance_change": {
        "balanceChanges": [
            {
                "account": "0x816fe98f5770711f83ff54d844c1d3407a9fc4ef",
                "assets": [
                    {
                        "address": "0x9f138d5d9e24186ec96b35e5b5530c907860a78d",
                        "amount": "23.833",
                        "iconUrl": "",
                        "isERC1155": false,
                        "isERC721": false,
                        "sign": false,
                        "value": ""
                    }
                ]
            },
            {
                "account": "0x4b40e47cbb3d2064450180d42cd507b5457e0523",
                "assets": [
                    {
                        "address": "0x9f138d5d9e24186ec96b35e5b5530c907860a78d",
                        "amount": "23.833",
                        "iconUrl": "",
                        "isERC1155": false,
                        "isERC721": false,
                        "sign": true,
                        "value": ""
                    }
                ]
            }
        ]
    },
    "profile": {
        "basic_info": {
            "baseFee": "",
            "blockNumber": 5415499,
            "callData": "0xa9059cbb0000000000000000000000004b40e47cbb3d2064450180d42cd507b5457e05230000000000000000000000000000000000000000000000014abfd33a33e28000",
            "debugEnable": true,
            "errorInfo": "",
            "eventCount": 1,
            "feeRecipient": "0xea674fdde714fd979de3edf0f56aa9716b898ec8",
            "formatValue": "0",
            "gasLimit": 60000,
            "gasPrice": "56.114925568",
            "gasUsed": 21775,
            "intTxnCount": 0,
            "internalRevert": false,
            "internalRevertMessage": "",
            "isContractCreation": false,
            "isFlashloan": false,
            "maxFee": "",
            "nonce": 3,
            "overwritedBlockNumber": -1,
            "priorityFee": "",
            "receiver": "0x9f138d5d9e24186ec96b35e5b5530c907860a78d",
            "revertMessage": "",
            "sender": "0x816fe98f5770711f83ff54d844c1d3407a9fc4ef",
            "simulationEnable": true,
            "sourceTxnHash": "0xbb61bdbe81e50eda5836b7ee553c61fd3bce98ea17e4e17488ed8171c18718be",
            "status": true,
            "timestamp": "2018-04-10T13:17:30Z",
            "transactionFee": "0.0012219025042432",
            "txnHash": "0xbb61bdbe81e50eda5836b7ee553c61fd3bce98ea17e4e17488ed8171c18718be",
            "txnIndex": 0,
            "type": 0,
            "value": "0"
        },
        "fund_flow": [
            {
                "amount": "23.833",
                "from": "0x816fe98f5770711f83ff54d844c1d3407a9fc4ef",
                "id": 1,
                "isERC1155": false,
                "isERC721": false,
                "isReverted": false,
                "order": 1,
                "to": "0x4b40e47cbb3d2064450180d42cd507b5457e0523",
                "token": "0x9f138d5d9e24186ec96b35e5b5530c907860a78d"
            }
        ],
        "token_infos": [
            {
                "address": "0x9f138d5d9e24186ec96b35e5b5530c907860a78d",
                "decimals": 18
            },
            {
                "address": "0xc02aaa39b223fe8d0a0e5c4f27ead9083c756cc2",
                "decimals": 18
            },
            {
                "address": "0xeeeeeeeeeeeeeeeeeeeeeeeeeeeeeeeeeeeeeeee",
                "decimals": 18
            }
        ]
    },
    "address_label": {
        "labels": [
            {
                "address": "0x0000000000000000000000000000000000000002",
                "label": "Precompiled"
            },
            {
                "address": "0x0000000000000000000000000000000000000003",
                "label": "Precompiled"
            },
            {
                "address": "0x0000000000000000000000000000000000000004",
                "label": "Precompiled"
            },
            {
                "address": "0xeeeeeeeeeeeeeeeeeeeeeeeeeeeeeeeeeeeeeeee",
                "label": "Ether"
            },
            {
                "address": "0x9f138d5d9e24186ec96b35e5b5530c907860a78d",
                "label": "BCB"
            },
            {
                "address": "0x0000000000000000000000000000000000000001",
                "label": "Precompiled"
            }
        ]
    },
    "trace": {
        "accountLabels": null,
        "dataMap": {
            "-1": {
                "invocation": {
                    "address": "0x816fe98f5770711f83ff54d844c1d3407a9fc4ef",
                    "callData": "",
                    "decodedMethod": null,
                    "errorInfo": "",
                    "fromAddress": "",
                    "gasUsed": 0,
                    "id": -1,
                    "methodDecoded": false,
                    "operation": "",
                    "output": "",
                    "revert": false,
                    "revertMessage": "",
                    "selector": "",
                    "status": false,
                    "value": ""
                },
                "nodeType": 0
            },
            "0": {
                "invocation": {
                    "address": "0x9f138d5d9e24186ec96b35e5b5530c907860a78d",
                    "callData": "0x0000000000000000000000004b40e47cbb3d2064450180d42cd507b5457e05230000000000000000000000000000000000000000000000014abfd33a33e28000",
                    "decodedMethod": {
                        "callParams": [
                            {
                                "name": "_toAcct",
                                "type": "address",
                                "value": "0x4b40e47cbb3d2064450180d42cd507b5457e0523"
                            },
                            {
                                "decimalAvailable": true,
                                "name": "_value",
                                "type": "uint256",
                                "value": "23,833,000,000,000,000,000"
                            }
                        ],
                        "constructorArguments": "",
                        "name": "transfer",
                        "returnParams": [
                            {
                                "name": "success",
                                "type": "bool",
                                "value": true
                            }
                        ],
                        "signature": "transfer(address,uint256)"
                    },
                    "errorInfo": "",
                    "fromAddress": "0x816fe98f5770711f83ff54d844c1d3407a9fc4ef",
                    "gasUsed": 21775,
                    "id": 0,
                    "methodDecoded": true,
                    "operation": "CALL",
                    "output": "0x0000000000000000000000000000000000000000000000000000000000000001",
                    "revert": false,
                    "revertMessage": "",
                    "selector": "0xa9059cbb",
                    "status": true,
                    "value": "0"
                },
                "nodeType": 0
            },
            "1": {
                "event": {
                    "contract": "0x9f138d5d9e24186ec96b35e5b5530c907860a78d",
                    "decodedLog": {
                        "name": "Transfer",
                        "params": [
                            {
                                "name": "fromAcct",
                                "type": "address",
                                "value": "0x816fe98f5770711f83ff54d844c1d3407a9fc4ef"
                            },
                            {
                                "name": "toAcct",
                                "type": "address",
                                "value": "0x4b40e47cbb3d2064450180d42cd507b5457e0523"
                            },
                            {
                                "decimalAvailable": true,
                                "name": "value",
                                "type": "uint256",
                                "value": "23,833,000,000,000,000,000"
                            }
                        ],
                        "signature": "Transfer(address,address,uint256)"
                    },
                    "id": 1,
                    "logData": "0x0000000000000000000000000000000000000000000000014abfd33a33e28000",
                    "logDecoded": true,
                    "operation": "EVENT",
                    "revert": false,
                    "status": true,
                    "topics": [
                        "0xddf252ad1be2c89b69c2b068fc378daa952ba7f163c4a11628f55a4df523b3ef",
                        "0x000000000000000000000000816fe98f5770711f83ff54d844c1d3407a9fc4ef",
                        "0x0000000000000000000000004b40e47cbb3d2064450180d42cd507b5457e0523"
                    ]
                },
                "nodeType": 1
            }
        },
        "gasFlame": [
            {
                "children": [
                    {
                        "children": [
                            {
                                "children": [],
                                "depth": 0,
                                "name": "Initial Gas",
                                "value": 23320
                            },
                            {
                                "children": [],
                                "depth": 0,
                                "name": "Executed Gas",
                                "value": 13455
                            }
                        ],
                        "depth": -1,
                        "name": "Actual Gas Used",
                        "value": 21775
                    },
                    {
                        "children": [],
                        "depth": -1,
                        "name": "Refunded Gas",
                        "value": 15000
                    }
                ],
                "depth": -2,
                "name": "Total Gas",
                "value": 36775
            }
        ],
        "isConfirmed": true,
        "mainTrace": [
            {
                "children": [
                    {
                        "children": [
                            {
                                "children": [],
                                "depth": 1,
                                "id": 1,
                                "order": 1
                            }
                        ],
                        "depth": 0,
                        "id": 0,
                        "order": 0
                    }
                ],
                "depth": -1,
                "id": -1,
                "order": -1
            }
        ],
        "mainTraceNodeCount": 2,
        "parentIdMap": {
            "0": -1,
            "1": 0
        },
        "tidyTrace": [
            {
                "children": [
                    {
                        "children": [
                            {
                                "children": [],
                                "depth": 1,
                                "id": 1,
                                "order": 1
                            }
                        ],
                        "depth": 0,
                        "id": 0,
                        "order": 0
                    }
                ],
                "depth": -1,
                "id": -1,
                "order": -1
            }
        ],
        "tidyTraceNodeCount": 2
    },
    "state_change": {
        "stateChanges": [
            {
                "address": "0x9f138d5d9e24186ec96b35e5b5530c907860a78d",
                "erc": "ERC-20",
                "slots": [
                    {
                        "current": "0x00000000000000000000000000000000000000000000000947e422702fa68000",
                        "key": "0xb00f5354b2896e8eb7d7dce24699b5d0d067f7bccff9968e7e12b6942826b0fd",
                        "prev": "0x000000000000000000000000000000000000000000000007fd244f35fbc40000"
                    },
                    {
                        "current": "0x0000000000000000000000000000000000000000000000000000000000000000",
                        "key": "0x11dc9b73c34babe5321e765ea3407a04aac7279fce0076123e335e6ed1831aee",
                        "prev": "0x0000000000000000000000000000000000000000000000014abfd33a33e28000"
                    }
                ],
                "storageVariables": [
                    {
                        "name": "balances",
                        "type": "mapping(address => uint256)",
                        "value": {
                            "pairs": [
                                {
                                    "key": "0x4b40e47cbb3d2064450180d42cd507b5457e0523",
                                    "value": {
                                        "current": "171201000000000000000",
                                        "prev": "147368000000000000000",
                                        "typeTag": 1
                                    }
                                },
                                {
                                    "key": "0x816fe98f5770711f83ff54d844c1d3407a9fc4ef",
                                    "value": {
                                        "current": "0",
                                        "prev": "23833000000000000000",
                                        "typeTag": 1
                                    }
                                }
                            ],
                            "typeTag": 4
                        }
                    }
                ]
            }
        ]
    }
}