{
    "balance_change": {
        "balanceChanges": [
            {
                "account": "0x2984581ece53a4390d1f568673cf693139c97049",
                "assets": [
                    {
                        "address": "0x516e5436bafdc11083654de7bb9b95382d08d5de",
                        "amount": "1",
                        "iconUrl": "",
                        "isERC1155": false,
                        "isERC721": false,
                        "sign": false,
                        "value": ""
                    }
                ]
            },
            {
                "account": "0x04b205f2ca3b74385d1099cda129307aa2cca1d5",
                "assets": [
                    {
                        "address": "0x516e5436bafdc11083654de7bb9b95382d08d5de",
                        "amount": "1",
                        "iconUrl": "",
                        "isERC1155": false,
                        "isERC721": false,
                        "sign": true,
                        "value": ""
                    }
                ]
            }
        ]
    },
    "profile": {
        "basic_info": {
            "baseFee": "",
            "blockNumber": 5474722,
            "callData": "0xa9059cbb00000000000000000000000004b205f2ca3b74385d1099cda129307aa2cca1d50000000000000000000000000000000000000000000000000000000005f5e100",
            "debugEnable": true,
            "errorInfo": "",
            "eventCount": 1,
            "feeRecipient": "0xf3b9d2c81f2b24b0fa0acaaa865b7d9ced5fc2fb",
            "formatValue": "0",
            "gasLimit": 200000,
            "gasPrice": "30",
            "gasUsed": 51389,
            "intTxnCount": 0,
            "internalRevert": false,
            "internalRevertMessage": "",
            "isContractCreation": false,
            "isFlashloan": false,
            "maxFee": "",
            "nonce": 242411,
            "overwritedBlockNumber": -1,
            "priorityFee": "",
            "receiver": "0x516e5436bafdc11083654de7bb9b95382d08d5de",
            "revertMessage": "",
            "sender": "0x2984581ece53a4390d1f568673cf693139c97049",
            "simulationEnable": true,
            "sourceTxnHash": "0xbc52c35ea7831609922dc3fff3ecbf6745baa0d4f166e6d5c5510ec2cc6608cd",
            "status": true,
            "timestamp": "2018-04-20T14:56:43Z",
            "transactionFee": "0.00154167",
            "txnHash": "0xbc52c35ea7831609922dc3fff3ecbf6745baa0d4f166e6d5c5510ec2cc6608cd",
            "txnIndex": 102,
            "type": 0,
            "value": "0"
        },
        "fund_flow": [
            {
                "amount": "1",
                "from": "0x2984581ece53a4390d1f568673cf693139c97049",
                "id": 1,
                "isERC1155": false,
                "isERC721": false,
                "isReverted": false,
                "order": 1,
                "to": "0x04b205f2ca3b74385d1099cda129307aa2cca1d5",
                "token": "0x516e5436bafdc11083654de7bb9b95382d08d5de"
            }
        ],
        "token_infos": [
            {
                "address": "0x516e5436bafdc11083654de7bb9b95382d08d5de",
                "decimals": 8
            },
            {
                "address": "0xc02aaa39b223fe8d0a0e5c4f27ead9083c756cc2",
                "decimals": 18
            },
            {
                "address": "0xeeeeeeeeeeeeeeeeeeeeeeeeeeeeeeeeeeeeeeee",
                "decimals": 18
            }
        ]
    },
    "address_label": {
        "labels": [
            {
                "address": "0x516e5436bafdc11083654de7bb9b95382d08d5de",
                "label": "Ormeus Coin"
            },
            {
                "address": "0x0000000000000000000000000000000000000001",
                "label": "Precompiled"
            },
            {
                "address": "0x0000000000000000000000000000000000000002",
                "label": "Precompiled"
            },
            {
                "address": "0x0000000000000000000000000000000000000003",
                "label": "Precompiled"
            },
            {
                "address": "0x0000000000000000000000000000000000000004",
                "label": "Precompiled"
            },
            {
                "address": "0xeeeeeeeeeeeeeeeeeeeeeeeeeeeeeeeeeeeeeeee",
                "label": "Ether"
            },
            {
                "address": "0x2984581ece53a4390d1f568673cf693139c97049",
                "label": "Cryptopia 2"
            }
        ]
    },
    "trace": {
        "accountLabels": null,
        "dataMap": {
            "-1": {
                "invocation": {
                    "address": "0x2984581ece53a4390d1f568673cf693139c97049",
                    "callData": "",
                    "decodedMethod": null,
                    "errorInfo": "",
                    "fromAddress": "",
                    "gasUsed": 0,
                    "id": -1,
                    "methodDecoded": false,
                    "operation": "",
                    "output": "",
                    "revert": false,
                    "revertMessage": "",
                    "selector": "",
                    "status": false,
                    "value": ""
                },
                "nodeType": 0
            },
            "0": {
                "invocation": {
                    "address": "0x516e5436bafdc11083654de7bb9b95382d08d5de",
                    "callData": "0x00000000000000000000000004b205f2ca3b74385d1099cda129307aa2cca1d50000000000000000000000000000000000000000000000000000000005f5e100",
                    "decodedMethod": {
                        "callParams": [
                            {
                                "name": "_to",
                                "type": "address",
                                "value": "0x04b205f2ca3b74385d1099cda129307aa2cca1d5"
                            },
                            {
                                "decimalAvailable": true,
                                "name": "_value",
                                "type": "uint256",
                                "value": "100,000,000"
                            }
                        ],
                        "constructorArguments": "",
                        "name": "transfer",
                        "returnParams": [
                            {
                                "name": "success",
                                "type": "bool",
                                "value": true
                            }
                        ],
                        "signature": "transfer(address,uint256)"
                    },
                    "errorInfo": "",
                    "fromAddress": "0x2984581ece53a4390d1f568673cf693139c97049",
                    "gasUsed": 51389,
                    "id": 0,
                    "methodDecoded": true,
                    "operation": "CALL",
                    "output": "0x0000000000000000000000000000000000000000000000000000000000000001",
                    "revert": false,
                    "revertMessage": "",
                    "selector": "0xa9059cbb",
                    "status": true,
                    "value": "0"
                },
                "nodeType": 0
            },
            "1": {
                "event": {
                    "contract": "0x516e5436bafdc11083654de7bb9b95382d08d5de",
                    "decodedLog": {
                        "name": "Transfer",
                        "params": [
                            {
                                "name": "_from",
                                "type": "address",
                                "value": "0x2984581ece53a4390d1f568673cf693139c97049"
                            },
                            {
                                "name": "_to",
                                "type": "address",
                                "value": "0x04b205f2ca3b74385d1099cda129307aa2cca1d5"
                            },
                            {
                                "decimalAvailable": true,
                                "name": "_value",
                                "type": "uint256",
                                "value": "100,000,000"
                            }
                        ],
                        "signature": "Transfer(address,address,uint256)"
                    },
                    "id": 1,
                    "logData": "0x0000000000000000000000000000000000000000000000000000000005f5e100",
                    "logDecoded": true,
                    "operation": "EVENT",
                    "revert": false,
                    "status": true,
                    "topics": [
                        "0xddf252ad1be2c89b69c2b068fc378daa952ba7f163c4a11628f55a4df523b3ef",
                        "0x0000000000000000000000002984581ece53a4390d1f568673cf693139c97049",
                        "0x00000000000000000000000004b205f2ca3b74385d1099cda129307aa2cca1d5"
                    ]
                },
                "nodeType": 1
            }
        },
        "gasFlame": [
            {
                "children": [
                    {
                        "children": [
                            {
                                "children": [],
                                "depth": 0,
                                "name": "Initial Gas",
                                "value": 23000
                            },
                            {
                                "children": [],
                                "depth": 0,
                                "name": "Executed Gas",
                                "value": 28389
                            }
                        ],
                        "depth": -1,
                        "name": "Actual Gas Used",
                        "value": 51389
                    },
                    {
                        "children": [],
                        "depth": -1,
                        "name": "Refunded Gas",
                        "value": 0
                    }
                ],
                "depth": -2,
                "name": "Total Gas",
                "value": 51389
            }
        ],
        "isConfirmed": true,
        "mainTrace": [
            {
                "children": [
                    {
                        "children": [
                            {
                                "children": [],
                                "depth": 1,
                                "id": 1,
                                "order": 1
                            }
                        ],
                        "depth": 0,
                        "id": 0,
                        "order": 0
                    }
                ],
                "depth": -1,
                "id": -1,
                "order": -1
            }
        ],
        "mainTraceNodeCount": 2,
        "parentIdMap": {
            "0": -1,
            "1": 0
        },
        "tidyTrace": [
            {
                "children": [
                    {
                        "children": [
                            {
                                "children": [],
                                "depth": 1,
                                "id": 1,
                                "order": 1
                            }
                        ],
                        "depth": 0,
                        "id": 0,
                        "order": 0
                    }
                ],
                "depth": -1,
                "id": -1,
                "order": -1
            }
        ],
        "tidyTraceNodeCount": 2
    },
    "state_change": {
        "stateChanges": [
            {
                "address": "0x516e5436bafdc11083654de7bb9b95382d08d5de",
                "erc": "ERC-20",
                "slots": [
                    {
                        "current": "0x0000000000000000000000000000000000000000000000000000000005f5e100",
                        "key": "0x951eb46e71db0119a1c53356421fbffd422687c6d0009303e6999fbbed1bb442",
                        "prev": "0x0000000000000000000000000000000000000000000000000000000000000000"
                    },
                    {
                        "current": "0x00000000000000000000000000000000000000000000000000026b1c162c13a2",
                        "key": "0x9d5831963e54eefe1cccb0c3c9040032c76d90da6e97b34b4f6cbe73e2eeb790",
                        "prev": "0x00000000000000000000000000000000000000000000000000026b1c1c21f4a2"
                    }
                ],
                "storageVariables": [
                    {
                        "name": "balances",
                        "type": "mapping(address => uint256)",
                        "value": {
                            "pairs": [
                                {
                                    "key": "0x04b205f2ca3b74385d1099cda129307aa2cca1d5",
                                    "value": {
                                        "current": "100000000",
                                        "prev": "0",
                                        "typeTag": 1
                                    }
                                },
                                {
                                    "key": "0x2984581ece53a4390d1f568673cf693139c97049",
                                    "value": {
                                        "current": "680718328664994",
                                        "prev": "680718428664994",
                                        "typeTag": 1
                                    }
                                }
                            ],
                            "typeTag": 4
                        }
                    }
                ]
            }
        ]
    }
}