{
    "balance_change": {
        "balanceChanges": []
    },
    "profile": {
        "basic_info": {
            "baseFee": "160.193894916",
            "blockNumber": 14108826,
            "callData": "0xab834bab0000000000000000000000007be8076f4ea4a4ad08075c2508e481d6c946d12b0000000000000000000000008ca532ad59bc2cd5dff16c1587af3e9bcfc09ca6000000000000000000000000b18c63efb3c20c274aa48becf5965184acedddb6000000000000000000000000000000000000000000000000000000000000000000000000000000000000000032ddbb0fc65bb53e1f7d6dc1c2a713e9a695b75b000000000000000000000000000000000000000000000000000000000000000000000000000000000000000000000000000000000000000000000000000000000000000000000000000000007be8076f4ea4a4ad08075c2508e481d6c946d12b000000000000000000000000b18c63efb3c20c274aa48becf5965184acedddb600000000000000000000000000000000000000000000000000000000000000000000000000000000000000005b3256965e7c3cf26e11fcaf296dfc8807c0107300000000000000000000000032ddbb0fc65bb53e1f7d6dc1c2a713e9a695b75b0000000000000000000000000000000000000000000000000000000000000000000000000000000000000000000000000000000000000000000000000000000000000000000000000000000000000000000000000000000000000000000004e2000000000000000000000000000000000000000000000000000000000000000000000000000000000000000000000000000000000000000000000000000000000000000000000000000000000000000000000000000000000000000000000000000000000000000000000000000000000000000000000000075af03122f5000000000000000000000000000000000000000000000000000000000000000000000000000000000000000000000000000000000000000000000000000061f6d8cb00000000000000000000000000000000000000000000000000000000000000001588a54a0e285afc29d8e57b6b6165fb9790278db9c04a7bfbdad458a57260c100000000000000000000000000000000000000000000000000000000000004e2000000000000000000000000000000000000000000000000000000000000000000000000000000000000000000000000000000000000000000000000000000000000000000000000000000000000000000000000000000000000000000000000000000000000000000000000000000000000000000000000075af03122f5000000000000000000000000000000000000000000000000000000000000000000000000000000000000000000000000000000000000000000000000000061f6d86a00000000000000000000000000000000000000000000000000000000621bc2c54f6bbb310624c0d7f28b2f358260eecbc0abba7c9cdbf41932a44a79b6bbb8870000000000000000000000000000000000000000000000000000000000000001000000000000000000000000000000000000000000000000000000000000000000000000000000000000000000000000000000000000000000000000000000000000000000000000000000000000000000000000000000000000000000000000000000000000000000000000000000000000000000000000000000000000000100000000000000000000000000000000000000000000000000000000000000010000000000000000000000000000000000000000000000000000000000000000000000000000000000000000000000000000000000000000000000000000000000000000000000000000000000000000000000000000000000000000000006a0000000000000000000000000000000000000000000000000000000000000074000000000000000000000000000000000000000000000000000000000000007e0000000000000000000000000000000000000000000000000000000000000088000000000000000000000000000000000000000000000000000000000000009200000000000000000000000000000000000000000000000000000000000000940000000000000000000000000000000000000000000000000000000000000001c000000000000000000000000000000000000000000000000000000000000001c34d833a50d6fe68a1ac6ced8590c4d27ff0b85c9db55123075aa2d0885719b9a4b85cdf1e34934c3b369b3648dc11456e87c894cc5cfb9208b814f64785a05a934d833a50d6fe68a1ac6ced8590c4d27ff0b85c9db55123075aa2d0885719b9a4b85cdf1e34934c3b369b3648dc11456e87c894cc5cfb9208b814f64785a05a90000000000000000000000000000000000000000000000000000000000000000000000000000000000000000000000000000000000000000000000000000006423b872dd00000000000000000000000000000000000000000000000000000000000000000000000000000000000000008ca532ad59bc2cd5dff16c1587af3e9bcfc09ca6000000000000000000000000000000000000000000000000000000000000132200000000000000000000000000000000000000000000000000000000000000000000000000000000000000000000000000000000000000000000006423b872dd000000000000000000000000b18c63efb3c20c274aa48becf5965184acedddb60000000000000000000000000000000000000000000000000000000000000000000000000000000000000000000000000000000000000000000000000000132200000000000000000000000000000000000000000000000000000000000000000000000000000000000000000000000000000000000000000000006400000000ffffffffffffffffffffffffffffffffffffffffffffffffffffffffffffffff00000000000000000000000000000000000000000000000000000000000000000000000000000000000000000000000000000000000000000000000000000000000000000000000000000000000000000000000000000000000000000000000000000000000000000000000000000000000000000000000000000064000000000000000000000000000000000000000000000000000000000000000000000000ffffffffffffffffffffffffffffffffffffffffffffffffffffffffffffffff00000000000000000000000000000000000000000000000000000000000000000000000000000000000000000000000000000000000000000000000000000000000000000000000000000000000000000000000000000000000000000000000000000000000000000000000000000000000000000000000000000000",
            "debugEnable": true,
            "errorInfo": "execution reverted",
            "eventCount": 0,
            "feeRecipient": "0xab3b229eb4bcff881275e7ea2f0fd24eeac8c83a",
            "formatValue": "0.53",
            "gasLimit": 311271,
            "gasPrice": "162.376394916",
            "gasUsed": 64724,
            "intTxnCount": 0,
            "internalRevert": false,
            "internalRevertMessage": "",
            "isContractCreation": false,
            "isFlashloan": false,
            "maxFee": "163.140257067",
            "nonce": 4,
            "overwritedBlockNumber": -1,
            "priorityFee": "2.1825",
            "receiver": "0x7be8076f4ea4a4ad08075c2508e481d6c946d12b",
            "revertMessage": "",
            "sender": "0x8ca532ad59bc2cd5dff16c1587af3e9bcfc09ca6",
            "simulationEnable": true,
            "sourceTxnHash": "0xbc296f688855562f8fd7f395459b3dd81208e3de9986197a3881bdb98cf20f28",
            "status": false,
            "timestamp": "2022-01-30T18:35:10Z",
            "transactionFee": "0.010509649784543184",
            "txnHash": "0xbc296f688855562f8fd7f395459b3dd81208e3de9986197a3881bdb98cf20f28",
            "txnIndex": 28,
            "type": 2,
            "value": "530000000000000000"
        },
        "fund_flow": [],
        "token_infos": [
            {
                "address": "0xc02aaa39b223fe8d0a0e5c4f27ead9083c756cc2",
                "decimals": 18
            },
            {
                "address": "0xeeeeeeeeeeeeeeeeeeeeeeeeeeeeeeeeeeeeeeee",
                "decimals": 18
            }
        ]
    },
    "address_label": {
        "labels": [
            {
                "address": "0x0000000000000000000000000000000000000000",
                "label": "Null Address"
            },
            {
                "address": "0x0000000000000000000000000000000000000001",
                "label": "Precompiled"
            },
            {
                "address": "0x0000000000000000000000000000000000000002",
                "label": "Precompiled"
            },
            {
                "address": "0x0000000000000000000000000000000000000003",
                "label": "Precompiled"
            },
            {
                "address": "0xeeeeeeeeeeeeeeeeeeeeeeeeeeeeeeeeeeeeeeee",
                "label": "Ether"
            },
            {
                "address": "0x5b3256965e7c3cf26e11fcaf296dfc8807c01073",
                "label": "OpenSea: Wallet"
            },
            {
                "address": "0x7be8076f4ea4a4ad08075c2508e481d6c946d12b",
                "label": "OpenSea: Wyvern Exchange v1"
            },
            {
                "address": "0x32ddbb0fc65bb53e1f7d6dc1c2a713e9a695b75b",
                "label": "Monster Ape Club: MAC Token"
            },
            {
                "address": "0x0000000000000000000000000000000000000004",
                "label": "Precompiled"
            }
        ]
    },
    "trace": {
        "accountLabels": null,
        "dataMap": {
            "-1": {
                "invocation": {
                    "address": "0x8ca532ad59bc2cd5dff16c1587af3e9bcfc09ca6",
                    "callData": "",
                    "decodedMethod": null,
                    "errorInfo": "",
                    "fromAddress": "",
                    "gasUsed": 0,
                    "id": -1,
                    "methodDecoded": false,
                    "operation": "",
                    "output": "",
                    "revert": false,
                    "revertMessage": "",
                    "selector": "",
                    "status": false,
                    "value": ""
                },
                "nodeType": 0
            },
            "0": {
                "invocation": {
                    "address": "0x7be8076f4ea4a4ad08075c2508e481d6c946d12b",
                    "callData": "0x0000000000000000000000007be8076f4ea4a4ad08075c2508e481d6c946d12b0000000000000000000000008ca532ad59bc2cd5dff16c1587af3e9bcfc09ca6000000000000000000000000b18c63efb3c20c274aa48becf5965184acedddb6000000000000000000000000000000000000000000000000000000000000000000000000000000000000000032ddbb0fc65bb53e1f7d6dc1c2a713e9a695b75b000000000000000000000000000000000000000000000000000000000000000000000000000000000000000000000000000000000000000000000000000000000000000000000000000000007be8076f4ea4a4ad08075c2508e481d6c946d12b000000000000000000000000b18c63efb3c20c274aa48becf5965184acedddb600000000000000000000000000000000000000000000000000000000000000000000000000000000000000005b3256965e7c3cf26e11fcaf296dfc8807c0107300000000000000000000000032ddbb0fc65bb53e1f7d6dc1c2a713e9a695b75b0000000000000000000000000000000000000000000000000000000000000000000000000000000000000000000000000000000000000000000000000000000000000000000000000000000000000000000000000000000000000000000004e2000000000000000000000000000000000000000000000000000000000000000000000000000000000000000000000000000000000000000000000000000000000000000000000000000000000000000000000000000000000000000000000000000000000000000000000000000000000000000000000000075af03122f5000000000000000000000000000000000000000000000000000000000000000000000000000000000000000000000000000000000000000000000000000061f6d8cb00000000000000000000000000000000000000000000000000000000000000001588a54a0e285afc29d8e57b6b6165fb9790278db9c04a7bfbdad458a57260c100000000000000000000000000000000000000000000000000000000000004e2000000000000000000000000000000000000000000000000000000000000000000000000000000000000000000000000000000000000000000000000000000000000000000000000000000000000000000000000000000000000000000000000000000000000000000000000000000000000000000000000075af03122f5000000000000000000000000000000000000000000000000000000000000000000000000000000000000000000000000000000000000000000000000000061f6d86a00000000000000000000000000000000000000000000000000000000621bc2c54f6bbb310624c0d7f28b2f358260eecbc0abba7c9cdbf41932a44a79b6bbb8870000000000000000000000000000000000000000000000000000000000000001000000000000000000000000000000000000000000000000000000000000000000000000000000000000000000000000000000000000000000000000000000000000000000000000000000000000000000000000000000000000000000000000000000000000000000000000000000000000000000000000000000000000000100000000000000000000000000000000000000000000000000000000000000010000000000000000000000000000000000000000000000000000000000000000000000000000000000000000000000000000000000000000000000000000000000000000000000000000000000000000000000000000000000000000000006a0000000000000000000000000000000000000000000000000000000000000074000000000000000000000000000000000000000000000000000000000000007e0000000000000000000000000000000000000000000000000000000000000088000000000000000000000000000000000000000000000000000000000000009200000000000000000000000000000000000000000000000000000000000000940000000000000000000000000000000000000000000000000000000000000001c000000000000000000000000000000000000000000000000000000000000001c34d833a50d6fe68a1ac6ced8590c4d27ff0b85c9db55123075aa2d0885719b9a4b85cdf1e34934c3b369b3648dc11456e87c894cc5cfb9208b814f64785a05a934d833a50d6fe68a1ac6ced8590c4d27ff0b85c9db55123075aa2d0885719b9a4b85cdf1e34934c3b369b3648dc11456e87c894cc5cfb9208b814f64785a05a90000000000000000000000000000000000000000000000000000000000000000000000000000000000000000000000000000000000000000000000000000006423b872dd00000000000000000000000000000000000000000000000000000000000000000000000000000000000000008ca532ad59bc2cd5dff16c1587af3e9bcfc09ca6000000000000000000000000000000000000000000000000000000000000132200000000000000000000000000000000000000000000000000000000000000000000000000000000000000000000000000000000000000000000006423b872dd000000000000000000000000b18c63efb3c20c274aa48becf5965184acedddb60000000000000000000000000000000000000000000000000000000000000000000000000000000000000000000000000000000000000000000000000000132200000000000000000000000000000000000000000000000000000000000000000000000000000000000000000000000000000000000000000000006400000000ffffffffffffffffffffffffffffffffffffffffffffffffffffffffffffffff00000000000000000000000000000000000000000000000000000000000000000000000000000000000000000000000000000000000000000000000000000000000000000000000000000000000000000000000000000000000000000000000000000000000000000000000000000000000000000000000000000064000000000000000000000000000000000000000000000000000000000000000000000000ffffffffffffffffffffffffffffffffffffffffffffffffffffffffffffffff00000000000000000000000000000000000000000000000000000000000000000000000000000000000000000000000000000000000000000000000000000000000000000000000000000000000000000000000000000000000000000000000000000000000000000000000000000000000000000000000000000000",
                    "decodedMethod": {
                        "callParams": [
                            {
                                "name": "addrs",
                                "type": "address[14]",
                                "value": [
                                    "0x7be8076f4ea4a4ad08075c2508e481d6c946d12b",
                                    "0x8ca532ad59bc2cd5dff16c1587af3e9bcfc09ca6",
                                    "0xb18c63efb3c20c274aa48becf5965184acedddb6",
                                    "0x0000000000000000000000000000000000000000",
                                    "0x32ddbb0fc65bb53e1f7d6dc1c2a713e9a695b75b",
                                    "0x0000000000000000000000000000000000000000",
                                    "0x0000000000000000000000000000000000000000",
                                    "0x7be8076f4ea4a4ad08075c2508e481d6c946d12b",
                                    "0xb18c63efb3c20c274aa48becf5965184acedddb6",
                                    "0x0000000000000000000000000000000000000000",
                                    "0x5b3256965e7c3cf26e11fcaf296dfc8807c01073",
                                    "0x32ddbb0fc65bb53e1f7d6dc1c2a713e9a695b75b",
                                    "0x0000000000000000000000000000000000000000",
                                    "0x0000000000000000000000000000000000000000"
                                ]
                            },
                            {
                                "name": "uints",
                                "type": "uint256[18]",
                                "value": [
                                    "1,250",
                                    "0",
                                    "0",
                                    "0",
                                    "530,000,000,000,000,000",
                                    "0",
                                    "1,643,567,307",
                                    "0",
                                    "9,740,001,805,732,701,573,048,132,288,991,547,288,437,892,903,569,954,170,336,236,755,423,862,087,873",
                                    "1,250",
                                    "0",
                                    "0",
                                    "0",
                                    "530,000,000,000,000,000",
                                    "0",
                                    "1,643,567,210",
                                    "1,645,986,501",
                                    "35,923,059,622,260,561,509,223,380,486,706,044,269,957,488,796,973,472,786,535,594,597,350,106,708,103"
                                ]
                            },
                            {
                                "name": "feeMethodsSidesKindsHowToCalls",
                                "type": "uint8[8]",
                                "value": [
                                    "1",
                                    "0",
                                    "0",
                                    "0",
                                    "1",
                                    "1",
                                    "0",
                                    "0"
                                ]
                            },
                            {
                                "name": "calldataBuy",
                                "type": "bytes",
                                "value": "0x23b872dd00000000000000000000000000000000000000000000000000000000000000000000000000000000000000008ca532ad59bc2cd5dff16c1587af3e9bcfc09ca60000000000000000000000000000000000000000000000000000000000001322"
                            },
                            {
                                "name": "calldataSell",
                                "type": "bytes",
                                "value": "0x23b872dd000000000000000000000000b18c63efb3c20c274aa48becf5965184acedddb600000000000000000000000000000000000000000000000000000000000000000000000000000000000000000000000000000000000000000000000000001322"
                            },
                            {
                                "name": "replacementPatternBuy",
                                "type": "bytes",
                                "value": "0x00000000ffffffffffffffffffffffffffffffffffffffffffffffffffffffffffffffff00000000000000000000000000000000000000000000000000000000000000000000000000000000000000000000000000000000000000000000000000000000"
                            },
                            {
                                "name": "replacementPatternSell",
                                "type": "bytes",
                                "value": "0x000000000000000000000000000000000000000000000000000000000000000000000000ffffffffffffffffffffffffffffffffffffffffffffffffffffffffffffffff0000000000000000000000000000000000000000000000000000000000000000"
                            },
                            {
                                "name": "staticExtradataBuy",
                                "type": "bytes",
                                "value": "0x"
                            },
                            {
                                "name": "staticExtradataSell",
                                "type": "bytes",
                                "value": "0x"
                            },
                            {
                                "name": "vs",
                                "type": "uint8[2]",
                                "value": [
                                    "28",
                                    "28"
                                ]
                            },
                            {
                                "name": "rssMetadata",
                                "type": "bytes32[5]",
                                "value": [
                                    "0x34d833a50d6fe68a1ac6ced8590c4d27ff0b85c9db55123075aa2d0885719b9a",
                                    "0x4b85cdf1e34934c3b369b3648dc11456e87c894cc5cfb9208b814f64785a05a9",
                                    "0x34d833a50d6fe68a1ac6ced8590c4d27ff0b85c9db55123075aa2d0885719b9a",
                                    "0x4b85cdf1e34934c3b369b3648dc11456e87c894cc5cfb9208b814f64785a05a9",
                                    "0x0000000000000000000000000000000000000000000000000000000000000000"
                                ]
                            }
                        ],
                        "constructorArguments": "",
                        "name": "atomicMatch_",
                        "returnParams": [],
                        "signature": "atomicMatch_(address[14],uint256[18],uint8[8],bytes,bytes,bytes,bytes,bytes,bytes,uint8[2],bytes32[5])"
                    },
                    "errorInfo": "execution reverted",
                    "fromAddress": "0x8ca532ad59bc2cd5dff16c1587af3e9bcfc09ca6",
                    "gasUsed": 64724,
                    "id": 0,
                    "methodDecoded": true,
                    "operation": "CALL",
                    "output": "",
                    "revert": true,
                    "revertMessage": "",
                    "selector": "0xab834bab",
                    "status": false,
                    "value": "0.53"
                },
                "nodeType": 0
            }
        },
        "gasFlame": [
            {
                "children": [
                    {
                        "children": [
                            {
                                "children": [],
                                "depth": 0,
                                "name": "Initial Gas",
                                "value": 36868
                            },
                            {
                                "children": [],
                                "depth": 0,
                                "name": "Executed Gas",
                                "value": 27856
                            }
                        ],
                        "depth": -1,
                        "name": "Actual Gas Used",
                        "value": 64724
                    },
                    {
                        "children": [],
                        "depth": -1,
                        "name": "Refunded Gas",
                        "value": 0
                    }
                ],
                "depth": -2,
                "name": "Total Gas",
                "value": 64724
            }
        ],
        "isConfirmed": true,
        "mainTrace": [
            {
                "children": [
                    {
                        "children": [],
                        "depth": 0,
                        "id": 0,
                        "order": 0
                    }
                ],
                "depth": -1,
                "id": -1,
                "order": -1
            }
        ],
        "mainTraceNodeCount": 1,
        "parentIdMap": {
            "0": -1
        },
        "tidyTrace": [
            {
                "children": [
                    {
                        "children": [],
                        "depth": 0,
                        "id": 0,
                        "order": 0
                    }
                ],
                "depth": -1,
                "id": -1,
                "order": -1
            }
        ],
        "tidyTraceNodeCount": 1
    },
    "state_change": {
        "stateChanges": []
    }
}