{
    "balance_change": {
        "balanceChanges": [
            {
                "account": "0x3eb156941a195bc7b08ba2b9bf50a36589716922",
                "assets": [
                    {
                        "address": "0x65c0469fa7a3ceb8130598e90f5f76c11b7e51aa",
                        "amount": "100",
                        "iconUrl": "",
                        "isERC1155": false,
                        "isERC721": false,
                        "sign": false,
                        "value": ""
                    }
                ]
            },
            {
                "account": "0xab702611322e03dd65650be4c3befacea59a982a",
                "assets": [
                    {
                        "address": "0x65c0469fa7a3ceb8130598e90f5f76c11b7e51aa",
                        "amount": "100",
                        "iconUrl": "",
                        "isERC1155": false,
                        "isERC721": false,
                        "sign": true,
                        "value": ""
                    }
                ]
            }
        ]
    },
    "profile": {
        "basic_info": {
            "baseFee": "",
            "blockNumber": 9942952,
            "callData": "0xa9059cbb000000000000000000000000ab702611322e03dd65650be4c3befacea59a982a0000000000000000000000000000000000000000000000056bc75e2d63100000",
            "debugEnable": true,
            "errorInfo": "",
            "eventCount": 1,
            "feeRecipient": "0x5a0b54d5dc17e0aadc383d2db43b0a0d3e029c4c",
            "formatValue": "0",
            "gasLimit": 100000,
            "gasPrice": "9.72",
            "gasUsed": 36204,
            "intTxnCount": 0,
            "internalRevert": false,
            "internalRevertMessage": "",
            "isContractCreation": false,
            "isFlashloan": false,
            "maxFee": "",
            "nonce": 8892,
            "overwritedBlockNumber": -1,
            "priorityFee": "",
            "receiver": "0x65c0469fa7a3ceb8130598e90f5f76c11b7e51aa",
            "revertMessage": "",
            "sender": "0x3eb156941a195bc7b08ba2b9bf50a36589716922",
            "simulationEnable": true,
            "sourceTxnHash": "0xbcaca48aebd3df838df9c2e9b808ad734f64648c5dc89af6de8b16fd4f1ef352",
            "status": true,
            "timestamp": "2020-04-25T17:23:19Z",
            "transactionFee": "0.00035190288",
            "txnHash": "0xbcaca48aebd3df838df9c2e9b808ad734f64648c5dc89af6de8b16fd4f1ef352",
            "txnIndex": 65,
            "type": 0,
            "value": "0"
        },
        "fund_flow": [
            {
                "amount": "100",
                "from": "0x3eb156941a195bc7b08ba2b9bf50a36589716922",
                "id": 1,
                "isERC1155": false,
                "isERC721": false,
                "isReverted": false,
                "order": 1,
                "to": "0xab702611322e03dd65650be4c3befacea59a982a",
                "token": "0x65c0469fa7a3ceb8130598e90f5f76c11b7e51aa"
            }
        ],
        "token_infos": [
            {
                "address": "0x65c0469fa7a3ceb8130598e90f5f76c11b7e51aa",
                "decimals": 18
            },
            {
                "address": "0xc02aaa39b223fe8d0a0e5c4f27ead9083c756cc2",
                "decimals": 18
            },
            {
                "address": "0xeeeeeeeeeeeeeeeeeeeeeeeeeeeeeeeeeeeeeeee",
                "decimals": 18
            }
        ]
    },
    "address_label": {
        "labels": [
            {
                "address": "0x0000000000000000000000000000000000000004",
                "label": "Precompiled"
            },
            {
                "address": "0xeeeeeeeeeeeeeeeeeeeeeeeeeeeeeeeeeeeeeeee",
                "label": "Ether"
            },
            {
                "address": "0x65c0469fa7a3ceb8130598e90f5f76c11b7e51aa",
                "label": "WinCoin (WIN)"
            },
            {
                "address": "0x0000000000000000000000000000000000000001",
                "label": "Precompiled"
            },
            {
                "address": "0x0000000000000000000000000000000000000002",
                "label": "Precompiled"
            },
            {
                "address": "0x0000000000000000000000000000000000000003",
                "label": "Precompiled"
            }
        ]
    },
    "trace": {
        "accountLabels": null,
        "dataMap": {
            "-1": {
                "invocation": {
                    "address": "0x3eb156941a195bc7b08ba2b9bf50a36589716922",
                    "callData": "",
                    "decodedMethod": null,
                    "errorInfo": "",
                    "fromAddress": "",
                    "gasUsed": 0,
                    "id": -1,
                    "methodDecoded": false,
                    "operation": "",
                    "output": "",
                    "revert": false,
                    "revertMessage": "",
                    "selector": "",
                    "status": false,
                    "value": ""
                },
                "nodeType": 0
            },
            "0": {
                "invocation": {
                    "address": "0x65c0469fa7a3ceb8130598e90f5f76c11b7e51aa",
                    "callData": "0x000000000000000000000000ab702611322e03dd65650be4c3befacea59a982a0000000000000000000000000000000000000000000000056bc75e2d63100000",
                    "decodedMethod": {
                        "callParams": [
                            {
                                "name": "to",
                                "type": "address",
                                "value": "0xab702611322e03dd65650be4c3befacea59a982a"
                            },
                            {
                                "decimalAvailable": true,
                                "name": "tokens",
                                "type": "uint256",
                                "value": "100,000,000,000,000,000,000"
                            }
                        ],
                        "constructorArguments": "",
                        "name": "transfer",
                        "returnParams": [
                            {
                                "name": "success",
                                "type": "bool",
                                "value": true
                            }
                        ],
                        "signature": "transfer(address,uint256)"
                    },
                    "errorInfo": "",
                    "fromAddress": "0x3eb156941a195bc7b08ba2b9bf50a36589716922",
                    "gasUsed": 36204,
                    "id": 0,
                    "methodDecoded": true,
                    "operation": "CALL",
                    "output": "0x0000000000000000000000000000000000000000000000000000000000000001",
                    "revert": false,
                    "revertMessage": "",
                    "selector": "0xa9059cbb",
                    "status": true,
                    "value": "0"
                },
                "nodeType": 0
            },
            "1": {
                "event": {
                    "contract": "0x65c0469fa7a3ceb8130598e90f5f76c11b7e51aa",
                    "decodedLog": {
                        "name": "Transfer",
                        "params": [
                            {
                                "name": "from",
                                "type": "address",
                                "value": "0x3eb156941a195bc7b08ba2b9bf50a36589716922"
                            },
                            {
                                "name": "to",
                                "type": "address",
                                "value": "0xab702611322e03dd65650be4c3befacea59a982a"
                            },
                            {
                                "decimalAvailable": true,
                                "name": "tokens",
                                "type": "uint256",
                                "value": "100,000,000,000,000,000,000"
                            }
                        ],
                        "signature": "Transfer(address,address,uint256)"
                    },
                    "id": 1,
                    "logData": "0x0000000000000000000000000000000000000000000000056bc75e2d63100000",
                    "logDecoded": true,
                    "operation": "EVENT",
                    "revert": false,
                    "status": true,
                    "topics": [
                        "0xddf252ad1be2c89b69c2b068fc378daa952ba7f163c4a11628f55a4df523b3ef",
                        "0x0000000000000000000000003eb156941a195bc7b08ba2b9bf50a36589716922",
                        "0x000000000000000000000000ab702611322e03dd65650be4c3befacea59a982a"
                    ]
                },
                "nodeType": 1
            }
        },
        "gasFlame": [
            {
                "children": [
                    {
                        "children": [
                            {
                                "children": [],
                                "depth": 0,
                                "name": "Initial Gas",
                                "value": 21644
                            },
                            {
                                "children": [],
                                "depth": 0,
                                "name": "Executed Gas",
                                "value": 14560
                            }
                        ],
                        "depth": -1,
                        "name": "Actual Gas Used",
                        "value": 36204
                    },
                    {
                        "children": [],
                        "depth": -1,
                        "name": "Refunded Gas",
                        "value": 0
                    }
                ],
                "depth": -2,
                "name": "Total Gas",
                "value": 36204
            }
        ],
        "isConfirmed": true,
        "mainTrace": [
            {
                "children": [
                    {
                        "children": [
                            {
                                "children": [],
                                "depth": 1,
                                "id": 1,
                                "order": 1
                            }
                        ],
                        "depth": 0,
                        "id": 0,
                        "order": 0
                    }
                ],
                "depth": -1,
                "id": -1,
                "order": -1
            }
        ],
        "mainTraceNodeCount": 2,
        "parentIdMap": {
            "0": -1,
            "1": 0
        },
        "tidyTrace": [
            {
                "children": [
                    {
                        "children": [
                            {
                                "children": [],
                                "depth": 1,
                                "id": 1,
                                "order": 1
                            }
                        ],
                        "depth": 0,
                        "id": 0,
                        "order": 0
                    }
                ],
                "depth": -1,
                "id": -1,
                "order": -1
            }
        ],
        "tidyTraceNodeCount": 2
    },
    "state_change": {
        "stateChanges": [
            {
                "address": "0x65c0469fa7a3ceb8130598e90f5f76c11b7e51aa",
                "erc": "ERC-20",
                "slots": [
                    {
                        "current": "0x00000000000000000000000000000000000000000000508636e1ca74ea3e8000",
                        "key": "0x41d1b10b53a040df415757ea73e16c960c3a730a150a60ab2f8044543a69bfa8",
                        "prev": "0x00000000000000000000000000000000000000000000508ba2a928a24d4e8000"
                    },
                    {
                        "current": "0x00000000000000000000000000000000000000000000000ad78ebc5ac6200000",
                        "key": "0x3136108d574a9e9fa986f0b8d6f187e7d594584596bd813d3ea15705e686afaa",
                        "prev": "0x0000000000000000000000000000000000000000000000056bc75e2d63100000"
                    }
                ],
                "storageVariables": [
                    {
                        "name": "balances",
                        "type": "mapping(address => uint256)",
                        "value": {
                            "pairs": [
                                {
                                    "key": "0x3eb156941a195bc7b08ba2b9bf50a36589716922",
                                    "value": {
                                        "current": "380265137000000000000000",
                                        "prev": "380365137000000000000000",
                                        "typeTag": 1
                                    }
                                },
                                {
                                    "key": "0xab702611322e03dd65650be4c3befacea59a982a",
                                    "value": {
                                        "current": "200000000000000000000",
                                        "prev": "100000000000000000000",
                                        "typeTag": 1
                                    }
                                }
                            ],
                            "typeTag": 4
                        }
                    }
                ]
            }
        ]
    }
}