{
    "balance_change": {
        "balanceChanges": [
            {
                "account": "0x0d0707963952f2fba59dd06f2b425ace40b492fe",
                "assets": [
                    {
                        "address": "0xef68e7c694f40c8202821edf525de3782458639f",
                        "amount": "12,488",
                        "iconUrl": "",
                        "isERC1155": false,
                        "isERC721": false,
                        "sign": false,
                        "value": ""
                    }
                ]
            },
            {
                "account": "0xccbb3cb4c219a20db3b149af0aecb3e400c2113b",
                "assets": [
                    {
                        "address": "0xef68e7c694f40c8202821edf525de3782458639f",
                        "amount": "12,488",
                        "iconUrl": "",
                        "isERC1155": false,
                        "isERC721": false,
                        "sign": true,
                        "value": ""
                    }
                ]
            }
        ]
    },
    "profile": {
        "basic_info": {
            "baseFee": "",
            "blockNumber": 7090570,
            "callData": "0xa9059cbb000000000000000000000000ccbb3cb4c219a20db3b149af0aecb3e400c2113b0000000000000000000000000000000000000000000002a4f9d06bbd86200000",
            "debugEnable": true,
            "errorInfo": "",
            "eventCount": 1,
            "feeRecipient": "0x2a65aca4d5fc5b5c859090a6c34d164135398226",
            "formatValue": "0",
            "gasLimit": 200000,
            "gasPrice": "9.9",
            "gasUsed": 36851,
            "intTxnCount": 0,
            "internalRevert": false,
            "internalRevertMessage": "",
            "isContractCreation": false,
            "isFlashloan": false,
            "maxFee": "",
            "nonce": 889250,
            "overwritedBlockNumber": -1,
            "priorityFee": "",
            "receiver": "0xef68e7c694f40c8202821edf525de3782458639f",
            "revertMessage": "",
            "sender": "0x0d0707963952f2fba59dd06f2b425ace40b492fe",
            "simulationEnable": true,
            "sourceTxnHash": "0xbc20d26c71c644164ba9eb45f3227ffae32617ac73ab1844c449c9ddcea56331",
            "status": true,
            "timestamp": "2019-01-19T03:17:22Z",
            "transactionFee": "0.0003648249",
            "txnHash": "0xbc20d26c71c644164ba9eb45f3227ffae32617ac73ab1844c449c9ddcea56331",
            "txnIndex": 54,
            "type": 0,
            "value": "0"
        },
        "fund_flow": [
            {
                "amount": "12,488",
                "from": "0x0d0707963952f2fba59dd06f2b425ace40b492fe",
                "id": 1,
                "isERC1155": false,
                "isERC721": false,
                "isReverted": false,
                "order": 1,
                "to": "0xccbb3cb4c219a20db3b149af0aecb3e400c2113b",
                "token": "0xef68e7c694f40c8202821edf525de3782458639f"
            }
        ],
        "token_infos": [
            {
                "address": "0xc02aaa39b223fe8d0a0e5c4f27ead9083c756cc2",
                "decimals": 18
            },
            {
                "address": "0xef68e7c694f40c8202821edf525de3782458639f",
                "decimals": 18
            },
            {
                "address": "0xeeeeeeeeeeeeeeeeeeeeeeeeeeeeeeeeeeeeeeee",
                "decimals": 18
            }
        ]
    },
    "address_label": {
        "labels": [
            {
                "address": "0xef68e7c694f40c8202821edf525de3782458639f",
                "label": "Loopring: Old Token"
            },
            {
                "address": "0x0d0707963952f2fba59dd06f2b425ace40b492fe",
                "label": "Gate.io"
            },
            {
                "address": "0x0000000000000000000000000000000000000001",
                "label": "Precompiled"
            },
            {
                "address": "0x0000000000000000000000000000000000000002",
                "label": "Precompiled"
            },
            {
                "address": "0x0000000000000000000000000000000000000003",
                "label": "Precompiled"
            },
            {
                "address": "0x0000000000000000000000000000000000000004",
                "label": "Precompiled"
            },
            {
                "address": "0xeeeeeeeeeeeeeeeeeeeeeeeeeeeeeeeeeeeeeeee",
                "label": "Ether"
            }
        ]
    },
    "trace": {
        "accountLabels": null,
        "dataMap": {
            "-1": {
                "invocation": {
                    "address": "0x0d0707963952f2fba59dd06f2b425ace40b492fe",
                    "callData": "",
                    "decodedMethod": null,
                    "errorInfo": "",
                    "fromAddress": "",
                    "gasUsed": 0,
                    "id": -1,
                    "methodDecoded": false,
                    "operation": "",
                    "output": "",
                    "revert": false,
                    "revertMessage": "",
                    "selector": "",
                    "status": false,
                    "value": ""
                },
                "nodeType": 0
            },
            "0": {
                "invocation": {
                    "address": "0xef68e7c694f40c8202821edf525de3782458639f",
                    "callData": "0x000000000000000000000000ccbb3cb4c219a20db3b149af0aecb3e400c2113b0000000000000000000000000000000000000000000002a4f9d06bbd86200000",
                    "decodedMethod": {
                        "callParams": [
                            {
                                "name": "_to",
                                "type": "address",
                                "value": "0xccbb3cb4c219a20db3b149af0aecb3e400c2113b"
                            },
                            {
                                "decimalAvailable": true,
                                "name": "_value",
                                "type": "uint256",
                                "value": "12,488,000,000,000,000,000,000"
                            }
                        ],
                        "constructorArguments": "",
                        "name": "transfer",
                        "returnParams": [],
                        "signature": "transfer(address,uint256)"
                    },
                    "errorInfo": "",
                    "fromAddress": "0x0d0707963952f2fba59dd06f2b425ace40b492fe",
                    "gasUsed": 36851,
                    "id": 0,
                    "methodDecoded": true,
                    "operation": "CALL",
                    "output": "",
                    "revert": false,
                    "revertMessage": "",
                    "selector": "0xa9059cbb",
                    "status": true,
                    "value": "0"
                },
                "nodeType": 0
            },
            "1": {
                "event": {
                    "contract": "0xef68e7c694f40c8202821edf525de3782458639f",
                    "decodedLog": {
                        "name": "Transfer",
                        "params": [
                            {
                                "name": "from",
                                "type": "address",
                                "value": "0x0d0707963952f2fba59dd06f2b425ace40b492fe"
                            },
                            {
                                "name": "to",
                                "type": "address",
                                "value": "0xccbb3cb4c219a20db3b149af0aecb3e400c2113b"
                            },
                            {
                                "decimalAvailable": true,
                                "name": "value",
                                "type": "uint256",
                                "value": "12,488,000,000,000,000,000,000"
                            }
                        ],
                        "signature": "Transfer(address,address,uint256)"
                    },
                    "id": 1,
                    "logData": "0x0000000000000000000000000000000000000000000002a4f9d06bbd86200000",
                    "logDecoded": true,
                    "operation": "EVENT",
                    "revert": false,
                    "status": true,
                    "topics": [
                        "0xddf252ad1be2c89b69c2b068fc378daa952ba7f163c4a11628f55a4df523b3ef",
                        "0x0000000000000000000000000d0707963952f2fba59dd06f2b425ace40b492fe",
                        "0x000000000000000000000000ccbb3cb4c219a20db3b149af0aecb3e400c2113b"
                    ]
                },
                "nodeType": 1
            }
        },
        "gasFlame": [
            {
                "children": [
                    {
                        "children": [
                            {
                                "children": [],
                                "depth": 0,
                                "name": "Initial Gas",
                                "value": 23256
                            },
                            {
                                "children": [],
                                "depth": 0,
                                "name": "Executed Gas",
                                "value": 13595
                            }
                        ],
                        "depth": -1,
                        "name": "Actual Gas Used",
                        "value": 36851
                    },
                    {
                        "children": [],
                        "depth": -1,
                        "name": "Refunded Gas",
                        "value": 0
                    }
                ],
                "depth": -2,
                "name": "Total Gas",
                "value": 36851
            }
        ],
        "isConfirmed": true,
        "mainTrace": [
            {
                "children": [
                    {
                        "children": [
                            {
                                "children": [],
                                "depth": 1,
                                "id": 1,
                                "order": 1
                            }
                        ],
                        "depth": 0,
                        "id": 0,
                        "order": 0
                    }
                ],
                "depth": -1,
                "id": -1,
                "order": -1
            }
        ],
        "mainTraceNodeCount": 2,
        "parentIdMap": {
            "0": -1,
            "1": 0
        },
        "tidyTrace": [
            {
                "children": [
                    {
                        "children": [
                            {
                                "children": [],
                                "depth": 1,
                                "id": 1,
                                "order": 1
                            }
                        ],
                        "depth": 0,
                        "id": 0,
                        "order": 0
                    }
                ],
                "depth": -1,
                "id": -1,
                "order": -1
            }
        ],
        "tidyTraceNodeCount": 2
    },
    "state_change": {
        "stateChanges": [
            {
                "address": "0xef68e7c694f40c8202821edf525de3782458639f",
                "erc": "ERC-20",
                "slots": [
                    {
                        "current": "0x0000000000000000000000000000000000000000000254526e9694fc9631bd4b",
                        "key": "0x8f3fcd8a87d8a8259bebf9cb6e7e851eb52ed472d13c686b03ef031d54fecb85",
                        "prev": "0x0000000000000000000000000000000000000000000256f7686700ba1c51bd4b"
                    },
                    {
                        "current": "0x000000000000000000000000000000000000000000000cd0330ffd93ff540001",
                        "key": "0x289afabe4886983229ee51565d6d14bbc56dce2947618c0b8535ea839abf0225",
                        "prev": "0x000000000000000000000000000000000000000000000a2b393f91d679340001"
                    }
                ],
                "storageVariables": [
                    {
                        "name": "balances",
                        "type": "mapping(address => uint256)",
                        "value": {
                            "pairs": [
                                {
                                    "key": "0x0d0707963952f2fba59dd06f2b425ace40b492fe",
                                    "value": {
                                        "current": "2816051025524755981778251",
                                        "prev": "2828539025524755981778251",
                                        "typeTag": 1
                                    }
                                },
                                {
                                    "key": "0xccbb3cb4c219a20db3b149af0aecb3e400c2113b",
                                    "value": {
                                        "current": "60509000000000000000001",
                                        "prev": "48021000000000000000001",
                                        "typeTag": 1
                                    }
                                }
                            ],
                            "typeTag": 4
                        }
                    }
                ]
            }
        ]
    }
}