{
    "balance_change": {
        "balanceChanges": [
            {
                "account": "0xba826fec90cefdf6706858e5fbafcb27a290fbe0",
                "assets": [
                    {
                        "address": "0x3883f5e181fccaf8410fa61e12b59bad963fb645",
                        "amount": "26,552.59726358",
                        "iconUrl": "https://assets.blocksec.com/icon/3ca19861e658dbc1479db72a7fa4e2ba38d296390994f80b226b8304362ac126.png",
                        "isERC1155": false,
                        "isERC721": false,
                        "sign": false,
                        "value": ""
                    }
                ]
            },
            {
                "account": "0x5161e9179dae3942b7dec116a4eaec3ee95c639c",
                "assets": [
                    {
                        "address": "0x3883f5e181fccaf8410fa61e12b59bad963fb645",
                        "amount": "26,552.59726358",
                        "iconUrl": "https://assets.blocksec.com/icon/3ca19861e658dbc1479db72a7fa4e2ba38d296390994f80b226b8304362ac126.png",
                        "isERC1155": false,
                        "isERC721": false,
                        "sign": true,
                        "value": ""
                    }
                ]
            }
        ]
    },
    "profile": {
        "basic_info": {
            "baseFee": "",
            "blockNumber": 6815971,
            "callData": "0xa9059cbb0000000000000000000000005161e9179dae3942b7dec116a4eaec3ee95c639c00000000000000000000000000000000000000000000059f6b4f81894f0d9800",
            "debugEnable": true,
            "errorInfo": "",
            "eventCount": 1,
            "feeRecipient": "0xea674fdde714fd979de3edf0f56aa9716b898ec8",
            "formatValue": "0",
            "gasLimit": 152455,
            "gasPrice": "60",
            "gasUsed": 52455,
            "intTxnCount": 0,
            "internalRevert": false,
            "internalRevertMessage": "",
            "isContractCreation": false,
            "isFlashloan": false,
            "maxFee": "",
            "nonce": 489354,
            "overwritedBlockNumber": -1,
            "priorityFee": "",
            "receiver": "0x3883f5e181fccaf8410fa61e12b59bad963fb645",
            "revertMessage": "",
            "sender": "0xba826fec90cefdf6706858e5fbafcb27a290fbe0",
            "simulationEnable": true,
            "sourceTxnHash": "0xbcfa244a1907e5f98b097025a576806ebd16934e192e0999261c51dfe3d4340a",
            "status": true,
            "timestamp": "2018-12-03T02:34:20Z",
            "transactionFee": "0.0031473",
            "txnHash": "0xbcfa244a1907e5f98b097025a576806ebd16934e192e0999261c51dfe3d4340a",
            "txnIndex": 0,
            "type": 0,
            "value": "0"
        },
        "fund_flow": [
            {
                "amount": "26,552.59726358",
                "from": "0xba826fec90cefdf6706858e5fbafcb27a290fbe0",
                "id": 1,
                "isERC1155": false,
                "isERC721": false,
                "isReverted": false,
                "order": 1,
                "to": "0x5161e9179dae3942b7dec116a4eaec3ee95c639c",
                "token": "0x3883f5e181fccaf8410fa61e12b59bad963fb645"
            }
        ],
        "token_infos": [
            {
                "address": "0x3883f5e181fccaf8410fa61e12b59bad963fb645",
                "decimals": 18
            },
            {
                "address": "0xc02aaa39b223fe8d0a0e5c4f27ead9083c756cc2",
                "decimals": 18
            },
            {
                "address": "0xeeeeeeeeeeeeeeeeeeeeeeeeeeeeeeeeeeeeeeee",
                "decimals": 18
            }
        ]
    },
    "address_label": {
        "labels": [
            {
                "address": "0x0000000000000000000000000000000000000002",
                "label": "Precompiled"
            },
            {
                "address": "0x0000000000000000000000000000000000000003",
                "label": "Precompiled"
            },
            {
                "address": "0x0000000000000000000000000000000000000004",
                "label": "Precompiled"
            },
            {
                "address": "0xeeeeeeeeeeeeeeeeeeeeeeeeeeeeeeeeeeeeeeee",
                "label": "Ether"
            },
            {
                "address": "0xba826fec90cefdf6706858e5fbafcb27a290fbe0",
                "label": "Upbit 2"
            },
            {
                "address": "0x3883f5e181fccaf8410fa61e12b59bad963fb645",
                "label": "Theta: Old Token"
            },
            {
                "address": "0x0000000000000000000000000000000000000001",
                "label": "Precompiled"
            }
        ]
    },
    "trace": {
        "accountLabels": null,
        "dataMap": {
            "-1": {
                "invocation": {
                    "address": "0xba826fec90cefdf6706858e5fbafcb27a290fbe0",
                    "callData": "",
                    "decodedMethod": null,
                    "errorInfo": "",
                    "fromAddress": "",
                    "gasUsed": 0,
                    "id": -1,
                    "methodDecoded": false,
                    "operation": "",
                    "output": "",
                    "revert": false,
                    "revertMessage": "",
                    "selector": "",
                    "status": false,
                    "value": ""
                },
                "nodeType": 0
            },
            "0": {
                "invocation": {
                    "address": "0x3883f5e181fccaf8410fa61e12b59bad963fb645",
                    "callData": "0x0000000000000000000000005161e9179dae3942b7dec116a4eaec3ee95c639c00000000000000000000000000000000000000000000059f6b4f81894f0d9800",
                    "decodedMethod": {
                        "callParams": [
                            {
                                "name": "_to",
                                "type": "address",
                                "value": "0x5161e9179dae3942b7dec116a4eaec3ee95c639c"
                            },
                            {
                                "decimalAvailable": true,
                                "name": "_amount",
                                "type": "uint256",
                                "value": "26,552,597,263,580,000,000,000"
                            }
                        ],
                        "constructorArguments": "",
                        "name": "transfer",
                        "returnParams": [
                            {
                                "name": "success",
                                "type": "bool",
                                "value": true
                            }
                        ],
                        "signature": "transfer(address,uint256)"
                    },
                    "errorInfo": "",
                    "fromAddress": "0xba826fec90cefdf6706858e5fbafcb27a290fbe0",
                    "gasUsed": 52455,
                    "id": 0,
                    "methodDecoded": true,
                    "operation": "CALL",
                    "output": "0x0000000000000000000000000000000000000000000000000000000000000001",
                    "revert": false,
                    "revertMessage": "",
                    "selector": "0xa9059cbb",
                    "status": true,
                    "value": "0"
                },
                "nodeType": 0
            },
            "1": {
                "event": {
                    "contract": "0x3883f5e181fccaf8410fa61e12b59bad963fb645",
                    "decodedLog": {
                        "name": "Transfer",
                        "params": [
                            {
                                "name": "_from",
                                "type": "address",
                                "value": "0xba826fec90cefdf6706858e5fbafcb27a290fbe0"
                            },
                            {
                                "name": "_to",
                                "type": "address",
                                "value": "0x5161e9179dae3942b7dec116a4eaec3ee95c639c"
                            },
                            {
                                "decimalAvailable": true,
                                "name": "_value",
                                "type": "uint256",
                                "value": "26,552,597,263,580,000,000,000"
                            }
                        ],
                        "signature": "Transfer(address,address,uint256)"
                    },
                    "id": 1,
                    "logData": "0x00000000000000000000000000000000000000000000059f6b4f81894f0d9800",
                    "logDecoded": true,
                    "operation": "EVENT",
                    "revert": false,
                    "status": true,
                    "topics": [
                        "0xddf252ad1be2c89b69c2b068fc378daa952ba7f163c4a11628f55a4df523b3ef",
                        "0x000000000000000000000000ba826fec90cefdf6706858e5fbafcb27a290fbe0",
                        "0x0000000000000000000000005161e9179dae3942b7dec116a4eaec3ee95c639c"
                    ]
                },
                "nodeType": 1
            }
        },
        "gasFlame": [
            {
                "children": [
                    {
                        "children": [
                            {
                                "children": [],
                                "depth": 0,
                                "name": "Initial Gas",
                                "value": 23384
                            },
                            {
                                "children": [],
                                "depth": 0,
                                "name": "Executed Gas",
                                "value": 29071
                            }
                        ],
                        "depth": -1,
                        "name": "Actual Gas Used",
                        "value": 52455
                    },
                    {
                        "children": [],
                        "depth": -1,
                        "name": "Refunded Gas",
                        "value": 0
                    }
                ],
                "depth": -2,
                "name": "Total Gas",
                "value": 52455
            }
        ],
        "isConfirmed": true,
        "mainTrace": [
            {
                "children": [
                    {
                        "children": [
                            {
                                "children": [],
                                "depth": 1,
                                "id": 1,
                                "order": 1
                            }
                        ],
                        "depth": 0,
                        "id": 0,
                        "order": 0
                    }
                ],
                "depth": -1,
                "id": -1,
                "order": -1
            }
        ],
        "mainTraceNodeCount": 2,
        "parentIdMap": {
            "0": -1,
            "1": 0
        },
        "tidyTrace": [
            {
                "children": [
                    {
                        "children": [
                            {
                                "children": [],
                                "depth": 1,
                                "id": 1,
                                "order": 1
                            }
                        ],
                        "depth": 0,
                        "id": 0,
                        "order": 0
                    }
                ],
                "depth": -1,
                "id": -1,
                "order": -1
            }
        ],
        "tidyTraceNodeCount": 2
    },
    "state_change": {
        "stateChanges": [
            {
                "address": "0x3883f5e181fccaf8410fa61e12b59bad963fb645",
                "erc": "ERC-20",
                "slots": [
                    {
                        "current": "0x00000000000000000000000000000000000000000021ae86a7ffe6b827468f53",
                        "key": "0xb3ecdb993d35fb64147453f920596a7d0e010d0f4e3d6956e1c30878405c4812",
                        "prev": "0x00000000000000000000000000000000000000000021b426134f684176542753"
                    },
                    {
                        "current": "0x00000000000000000000000000000000000000000000059f6b4f81894f0d9800",
                        "key": "0xe66c1e516c0a81272811ccbdfe68f09ab779c097e25528d743ff5d2a5751a819",
                        "prev": "0x0000000000000000000000000000000000000000000000000000000000000000"
                    }
                ],
                "storageVariables": [
                    {
                        "name": "balances",
                        "type": "mapping(address => uint256)",
                        "value": {
                            "pairs": [
                                {
                                    "key": "0x5161e9179dae3942b7dec116a4eaec3ee95c639c",
                                    "value": {
                                        "current": "26552597263580000000000",
                                        "prev": "0",
                                        "typeTag": 1
                                    }
                                },
                                {
                                    "key": "0xba826fec90cefdf6706858e5fbafcb27a290fbe0",
                                    "value": {
                                        "current": "40718727784655960114892627",
                                        "prev": "40745280381919540114892627",
                                        "typeTag": 1
                                    }
                                }
                            ],
                            "typeTag": 4
                        }
                    }
                ]
            }
        ]
    }
}