{
    "balance_change": {
        "balanceChanges": [
            {
                "account": "0x0000000000000000000000000000000000000000",
                "assets": [
                    {
                        "address": "0x937123230222ca4c90ee412a8ffdc980eb507f43",
                        "amount": "1",
                        "iconUrl": "",
                        "isERC1155": true,
                        "isERC721": false,
                        "sign": false,
                        "tokenID": "2",
                        "value": ""
                    }
                ]
            },
            {
                "account": "0xc51fa2d7ca3927ea2dad6bddc428e9277bd73099",
                "assets": [
                    {
                        "address": "0x937123230222ca4c90ee412a8ffdc980eb507f43",
                        "amount": "1",
                        "iconUrl": "",
                        "isERC1155": true,
                        "isERC721": false,
                        "sign": true,
                        "tokenID": "2",
                        "value": ""
                    }
                ]
            }
        ]
    },
    "profile": {
        "basic_info": {
            "baseFee": "25.808076382",
            "blockNumber": 16343666,
            "callData": "0xbd04e411000000000000000000000000937123230222ca4c90ee412a8ffdc980eb507f4300000000000000000000000000000000000000000000000000000000458500f0000000000000000000000000000000000000000000000000000000000000008000000000000000000000000000000000000000000000000000000000000000c00000000000000000000000000000000000000000000000000000000000000001000000000000000000000000c51fa2d7ca3927ea2dad6bddc428e9277bd7309900000000000000000000000000000000000000000000000000000000000000010000000000000000000000000000000000000000000000000000000000000001",
            "debugEnable": true,
            "errorInfo": "",
            "eventCount": 1,
            "feeRecipient": "0x473780deaf4a2ac070bbba936b0cdefe7f267dfc",
            "formatValue": "0",
            "gasLimit": 80254,
            "gasPrice": "27.308076382",
            "gasUsed": 74259,
            "intTxnCount": 4,
            "internalRevert": false,
            "internalRevertMessage": "",
            "isContractCreation": false,
            "isFlashloan": false,
            "maxFee": "37.178549229",
            "nonce": 89,
            "overwritedBlockNumber": -1,
            "priorityFee": "1.5",
            "receiver": "0x44e94034afce2dd3cd5eb62528f239686fc8f162",
            "revertMessage": "",
            "sender": "0xc51fa2d7ca3927ea2dad6bddc428e9277bd73099",
            "simulationEnable": true,
            "sourceTxnHash": "0xbdf07af68305122725fb1cbc11efccae83269fa11791333ab140ba9383926028",
            "status": true,
            "timestamp": "2023-01-05T22:47:47Z",
            "transactionFee": "0.002027870444050938",
            "txnHash": "0xbdf07af68305122725fb1cbc11efccae83269fa11791333ab140ba9383926028",
            "txnIndex": 104,
            "type": 2,
            "value": "0"
        },
        "fund_flow": [
            {
                "amount": "1",
                "from": "0x0000000000000000000000000000000000000000",
                "id": 1,
                "isERC1155": true,
                "isERC721": false,
                "isReverted": false,
                "order": 1,
                "to": "0xc51fa2d7ca3927ea2dad6bddc428e9277bd73099",
                "token": "0x937123230222ca4c90ee412a8ffdc980eb507f43",
                "tokenID": "2"
            }
        ],
        "token_infos": [
            {
                "address": "0xc02aaa39b223fe8d0a0e5c4f27ead9083c756cc2",
                "decimals": 18
            },
            {
                "address": "0xeeeeeeeeeeeeeeeeeeeeeeeeeeeeeeeeeeeeeeee",
                "decimals": 18
            }
        ]
    },
    "address_label": {
        "labels": [
            {
                "address": "0x937123230222ca4c90ee412a8ffdc980eb507f43",
                "label": "tm1ra"
            },
            {
                "address": "0x0000000000000000000000000000000000000001",
                "label": "Precompiled"
            },
            {
                "address": "0x0000000000000000000000000000000000000002",
                "label": "Precompiled"
            },
            {
                "address": "0x0000000000000000000000000000000000000003",
                "label": "Precompiled"
            },
            {
                "address": "0x0000000000000000000000000000000000000004",
                "label": "Precompiled"
            },
            {
                "address": "0xeeeeeeeeeeeeeeeeeeeeeeeeeeeeeeeeeeeeeeee",
                "label": "Ether"
            },
            {
                "address": "0x44e94034afce2dd3cd5eb62528f239686fc8f162",
                "label": "Manifold: Lazy Claim"
            },
            {
                "address": "0x6bf5ed59de0e19999d264746843ff931c0133090",
                "label": "Manifold ERC1155 Creator (M1155)"
            }
        ]
    },
    "trace": {
        "accountLabels": null,
        "dataMap": {
            "-1": {
                "invocation": {
                    "address": "0xc51fa2d7ca3927ea2dad6bddc428e9277bd73099",
                    "callData": "",
                    "decodedMethod": null,
                    "errorInfo": "",
                    "fromAddress": "",
                    "gasUsed": 0,
                    "id": -1,
                    "methodDecoded": false,
                    "operation": "",
                    "output": "",
                    "revert": false,
                    "revertMessage": "",
                    "selector": "",
                    "status": false,
                    "value": ""
                },
                "nodeType": 0
            },
            "0": {
                "invocation": {
                    "address": "0x44e94034afce2dd3cd5eb62528f239686fc8f162",
                    "callData": "0x000000000000000000000000937123230222ca4c90ee412a8ffdc980eb507f4300000000000000000000000000000000000000000000000000000000458500f0000000000000000000000000000000000000000000000000000000000000008000000000000000000000000000000000000000000000000000000000000000c00000000000000000000000000000000000000000000000000000000000000001000000000000000000000000c51fa2d7ca3927ea2dad6bddc428e9277bd7309900000000000000000000000000000000000000000000000000000000000000010000000000000000000000000000000000000000000000000000000000000001",
                    "decodedMethod": {
                        "callParams": [
                            {
                                "name": "creatorContractAddress",
                                "type": "address",
                                "value": "0x937123230222ca4c90ee412a8ffdc980eb507f43"
                            },
                            {
                                "name": "claimIndex",
                                "type": "uint256",
                                "value": "1,166,344,432"
                            },
                            {
                                "name": "recipients",
                                "type": "address[]",
                                "value": [
                                    "0xc51fa2d7ca3927ea2dad6bddc428e9277bd73099"
                                ]
                            },
                            {
                                "name": "amounts",
                                "type": "uint256[]",
                                "value": [
                                    "1"
                                ]
                            }
                        ],
                        "constructorArguments": "",
                        "name": "airdrop",
                        "returnParams": [],
                        "signature": "airdrop(address,uint256,address[],uint256[])"
                    },
                    "errorInfo": "",
                    "fromAddress": "0xc51fa2d7ca3927ea2dad6bddc428e9277bd73099",
                    "gasUsed": 74259,
                    "id": 0,
                    "methodDecoded": true,
                    "operation": "CALL",
                    "output": "",
                    "revert": false,
                    "revertMessage": "",
                    "selector": "0xbd04e411",
                    "status": true,
                    "value": "0"
                },
                "nodeType": 0
            },
            "1": {
                "invocation": {
                    "address": "0x937123230222ca4c90ee412a8ffdc980eb507f43",
                    "callData": "0x000000000000000000000000c51fa2d7ca3927ea2dad6bddc428e9277bd73099",
                    "decodedMethod": {
                        "callParams": [
                            {
                                "name": "admin",
                                "type": "address",
                                "value": "0xc51fa2d7ca3927ea2dad6bddc428e9277bd73099"
                            }
                        ],
                        "constructorArguments": "",
                        "name": "isAdmin",
                        "returnParams": [
                            {
                                "name": "",
                                "type": "bool",
                                "value": true
                            }
                        ],
                        "signature": "isAdmin(address)"
                    },
                    "errorInfo": "",
                    "fromAddress": "0x44e94034afce2dd3cd5eb62528f239686fc8f162",
                    "gasUsed": 7638,
                    "id": 1,
                    "methodDecoded": true,
                    "operation": "STATICCALL",
                    "output": "0x0000000000000000000000000000000000000000000000000000000000000001",
                    "revert": false,
                    "revertMessage": "",
                    "selector": "0x24d7806c",
                    "status": true,
                    "value": "0"
                },
                "nodeType": 0
            },
            "2": {
                "invocation": {
                    "address": "0x6bf5ed59de0e19999d264746843ff931c0133090",
                    "callData": "0x000000000000000000000000c51fa2d7ca3927ea2dad6bddc428e9277bd73099",
                    "decodedMethod": {
                        "callParams": [
                            {
                                "name": "admin",
                                "type": "address",
                                "value": "0xc51fa2d7ca3927ea2dad6bddc428e9277bd73099"
                            }
                        ],
                        "constructorArguments": "",
                        "name": "isAdmin",
                        "returnParams": [
                            {
                                "name": "",
                                "type": "bool",
                                "value": true
                            }
                        ],
                        "signature": "isAdmin(address)"
                    },
                    "errorInfo": "",
                    "fromAddress": "0x937123230222ca4c90ee412a8ffdc980eb507f43",
                    "gasUsed": 2713,
                    "id": 2,
                    "methodDecoded": true,
                    "operation": "DELEGATECALL",
                    "output": "0x0000000000000000000000000000000000000000000000000000000000000001",
                    "revert": false,
                    "revertMessage": "",
                    "selector": "0x24d7806c",
                    "status": true,
                    "value": "0"
                },
                "nodeType": 0
            },
            "3": {
                "invocation": {
                    "address": "0x937123230222ca4c90ee412a8ffdc980eb507f43",
                    "callData": "0x000000000000000000000000000000000000000000000000000000000000006000000000000000000000000000000000000000000000000000000000000000a000000000000000000000000000000000000000000000000000000000000000e00000000000000000000000000000000000000000000000000000000000000001000000000000000000000000c51fa2d7ca3927ea2dad6bddc428e9277bd730990000000000000000000000000000000000000000000000000000000000000001000000000000000000000000000000000000000000000000000000000000000200000000000000000000000000000000000000000000000000000000000000010000000000000000000000000000000000000000000000000000000000000001",
                    "decodedMethod": {
                        "callParams": [
                            {
                                "name": "to",
                                "type": "address[]",
                                "value": [
                                    "0xc51fa2d7ca3927ea2dad6bddc428e9277bd73099"
                                ]
                            },
                            {
                                "name": "tokenIds",
                                "type": "uint256[]",
                                "value": [
                                    "2"
                                ]
                            },
                            {
                                "name": "amounts",
                                "type": "uint256[]",
                                "value": [
                                    "1"
                                ]
                            }
                        ],
                        "constructorArguments": "",
                        "name": "mintExtensionExisting",
                        "returnParams": [],
                        "signature": "mintExtensionExisting(address[],uint256[],uint256[])"
                    },
                    "errorInfo": "",
                    "fromAddress": "0x44e94034afce2dd3cd5eb62528f239686fc8f162",
                    "gasUsed": 33388,
                    "id": 3,
                    "methodDecoded": true,
                    "operation": "CALL",
                    "output": "",
                    "revert": false,
                    "revertMessage": "",
                    "selector": "0xe6c884dc",
                    "status": true,
                    "value": "0"
                },
                "nodeType": 0
            },
            "4": {
                "invocation": {
                    "address": "0x6bf5ed59de0e19999d264746843ff931c0133090",
                    "callData": "0x000000000000000000000000000000000000000000000000000000000000006000000000000000000000000000000000000000000000000000000000000000a000000000000000000000000000000000000000000000000000000000000000e00000000000000000000000000000000000000000000000000000000000000001000000000000000000000000c51fa2d7ca3927ea2dad6bddc428e9277bd730990000000000000000000000000000000000000000000000000000000000000001000000000000000000000000000000000000000000000000000000000000000200000000000000000000000000000000000000000000000000000000000000010000000000000000000000000000000000000000000000000000000000000001",
                    "decodedMethod": {
                        "callParams": [
                            {
                                "name": "to",
                                "type": "address[]",
                                "value": [
                                    "0xc51fa2d7ca3927ea2dad6bddc428e9277bd73099"
                                ]
                            },
                            {
                                "name": "tokenIds",
                                "type": "uint256[]",
                                "value": [
                                    "2"
                                ]
                            },
                            {
                                "name": "amounts",
                                "type": "uint256[]",
                                "value": [
                                    "1"
                                ]
                            }
                        ],
                        "constructorArguments": "",
                        "name": "mintExtensionExisting",
                        "returnParams": [],
                        "signature": "mintExtensionExisting(address[],uint256[],uint256[])"
                    },
                    "errorInfo": "",
                    "fromAddress": "0x937123230222ca4c90ee412a8ffdc980eb507f43",
                    "gasUsed": 32921,
                    "id": 4,
                    "methodDecoded": true,
                    "operation": "DELEGATECALL",
                    "output": "",
                    "revert": false,
                    "revertMessage": "",
                    "selector": "0xe6c884dc",
                    "status": true,
                    "value": "0"
                },
                "nodeType": 0
            },
            "5": {
                "event": {
                    "contract": "0x937123230222ca4c90ee412a8ffdc980eb507f43",
                    "decodedLog": {
                        "name": "TransferSingle",
                        "params": [
                            {
                                "name": "operator",
                                "type": "address",
                                "value": "0x44e94034afce2dd3cd5eb62528f239686fc8f162"
                            },
                            {
                                "name": "from",
                                "type": "address",
                                "value": "0x0000000000000000000000000000000000000000"
                            },
                            {
                                "name": "to",
                                "type": "address",
                                "value": "0xc51fa2d7ca3927ea2dad6bddc428e9277bd73099"
                            },
                            {
                                "name": "id",
                                "type": "uint256",
                                "value": "2"
                            },
                            {
                                "name": "value",
                                "type": "uint256",
                                "value": "1"
                            }
                        ],
                        "signature": "TransferSingle(address,address,address,uint256,uint256)"
                    },
                    "id": 5,
                    "logData": "0x00000000000000000000000000000000000000000000000000000000000000020000000000000000000000000000000000000000000000000000000000000001",
                    "logDecoded": true,
                    "operation": "EVENT",
                    "revert": false,
                    "status": true,
                    "topics": [
                        "0xc3d58168c5ae7397731d063d5bbf3d657854427343f4c083240f7aacaa2d0f62",
                        "0x00000000000000000000000044e94034afce2dd3cd5eb62528f239686fc8f162",
                        "0x0000000000000000000000000000000000000000000000000000000000000000",
                        "0x000000000000000000000000c51fa2d7ca3927ea2dad6bddc428e9277bd73099"
                    ]
                },
                "nodeType": 1
            }
        },
        "gasFlame": [
            {
                "children": [
                    {
                        "children": [
                            {
                                "children": [],
                                "depth": 0,
                                "name": "Initial Gas",
                                "value": 22664
                            },
                            {
                                "children": [
                                    {
                                        "children": [
                                            {
                                                "children": [],
                                                "depth": 2,
                                                "name": "isAdmin",
                                                "value": 2713
                                            }
                                        ],
                                        "depth": 1,
                                        "name": "isAdmin",
                                        "value": 7638
                                    },
                                    {
                                        "children": [
                                            {
                                                "children": [],
                                                "depth": 2,
                                                "name": "mintExtensionExisting",
                                                "value": 32921
                                            }
                                        ],
                                        "depth": 1,
                                        "name": "mintExtensionExisting",
                                        "value": 33388
                                    }
                                ],
                                "depth": 0,
                                "name": "Executed Gas",
                                "value": 54395
                            }
                        ],
                        "depth": -1,
                        "name": "Actual Gas Used",
                        "value": 74259
                    },
                    {
                        "children": [],
                        "depth": -1,
                        "name": "Refunded Gas",
                        "value": 2800
                    }
                ],
                "depth": -2,
                "name": "Total Gas",
                "value": 77059
            }
        ],
        "isConfirmed": true,
        "mainTrace": [
            {
                "children": [
                    {
                        "children": [
                            {
                                "children": [
                                    {
                                        "children": [],
                                        "depth": 2,
                                        "id": 2,
                                        "order": 2
                                    }
                                ],
                                "depth": 1,
                                "id": 1,
                                "order": 1
                            },
                            {
                                "children": [
                                    {
                                        "children": [
                                            {
                                                "children": [],
                                                "depth": 3,
                                                "id": 5,
                                                "order": 5
                                            }
                                        ],
                                        "depth": 2,
                                        "id": 4,
                                        "order": 4
                                    }
                                ],
                                "depth": 1,
                                "id": 3,
                                "order": 3
                            }
                        ],
                        "depth": 0,
                        "id": 0,
                        "order": 0
                    }
                ],
                "depth": -1,
                "id": -1,
                "order": -1
            }
        ],
        "mainTraceNodeCount": 6,
        "parentIdMap": {
            "0": -1,
            "1": 0,
            "2": 1,
            "3": 0,
            "4": 3,
            "5": 4
        },
        "tidyTrace": [
            {
                "children": [
                    {
                        "children": [
                            {
                                "children": [
                                    {
                                        "children": [
                                            {
                                                "children": [],
                                                "depth": 3,
                                                "id": 5,
                                                "order": 5
                                            }
                                        ],
                                        "depth": 2,
                                        "id": 4,
                                        "order": 4
                                    }
                                ],
                                "depth": 1,
                                "id": 3,
                                "order": 3
                            }
                        ],
                        "depth": 0,
                        "id": 0,
                        "order": 0
                    }
                ],
                "depth": -1,
                "id": -1,
                "order": -1
            }
        ],
        "tidyTraceNodeCount": 4
    },
    "state_change": {
        "stateChanges": [
            {
                "address": "0x44e94034afce2dd3cd5eb62528f239686fc8f162",
                "erc": "",
                "slots": [
                    {
                        "current": "0x0000000000000002000063bc32f8000000000000000000000000000000000097",
                        "key": "0x0094efe69438008bc9b9900c1c6a9867132990e75fdee61f0810d4d4e4d79cde",
                        "prev": "0x0000000000000002000063bc32f8000000000000000000000000000000000096"
                    }
                ],
                "storageVariables": [
                    {
                        "name": "_claims",
                        "type": "mapping(address => mapping(uint256 => struct IERC1155LazyPayableClaim.Claim))",
                        "value": {
                            "pairs": [
                                {
                                    "key": "0x937123230222ca4c90ee412a8ffdc980eb507f43",
                                    "value": {
                                        "pairs": [
                                            {
                                                "key": "1166344432",
                                                "value": {
                                                    "fields": [
                                                        {
                                                            "name": "total",
                                                            "type": "uint32",
                                                            "value": {
                                                                "current": "151",
                                                                "prev": "150",
                                                                "typeTag": 1
                                                            }
                                                        },
                                                        {
                                                            "name": "totalMax",
                                                            "type": "uint32",
                                                            "value": {
                                                                "current": "0",
                                                                "prev": "0",
                                                                "typeTag": 1
                                                            }
                                                        },
                                                        {
                                                            "name": "walletMax",
                                                            "type": "uint32",
                                                            "value": {
                                                                "current": "0",
                                                                "prev": "0",
                                                                "typeTag": 1
                                                            }
                                                        },
                                                        {
                                                            "name": "startDate",
                                                            "type": "uint48",
                                                            "value": {
                                                                "current": "0",
                                                                "prev": "0",
                                                                "typeTag": 1
                                                            }
                                                        },
                                                        {
                                                            "name": "endDate",
                                                            "type": "uint48",
                                                            "value": {
                                                                "current": "1673278200",
                                                                "prev": "1673278200",
                                                                "typeTag": 1
                                                            }
                                                        },
                                                        {
                                                            "name": "storageProtocol",
                                                            "type": "enum IERC1155LazyPayableClaim.StorageProtocol",
                                                            "value": {
                                                                "current": "2",
                                                                "prev": "2",
                                                                "typeTag": 1
                                                            }
                                                        },
                                                        {
                                                            "name": "location",
                                                            "type": "string",
                                                            "value": {
                                                                "current": "UgP2U72MtnEwCytFstmGM3vcvu2046qHdAkZ-pHIK6w",
                                                                "prev": "UgP2U72MtnEwCytFstmGM3vcvu2046qHdAkZ-pHIK6w",
                                                                "typeTag": 1
                                                            }
                                                        }
                                                    ],
                                                    "typeTag": 3
                                                }
                                            }
                                        ],
                                        "typeTag": 4
                                    }
                                }
                            ],
                            "typeTag": 4
                        }
                    }
                ]
            },
            {
                "address": "0x937123230222ca4c90ee412a8ffdc980eb507f43",
                "erc": "ERC-1155",
                "slots": [
                    {
                        "current": "0x0000000000000000000000000000000000000000000000000000000000000004",
                        "key": "0xd35690a738f57fff993f695d20f62036cd6309350085117c66a354da18e9cb54",
                        "prev": "0x0000000000000000000000000000000000000000000000000000000000000003"
                    },
                    {
                        "current": "0x0000000000000000000000000000000000000000000000000000000000000097",
                        "key": "0x434326ad1170f759d4906b3c0b416770c77cb2c84811de719bd4e66fc46a25e4",
                        "prev": "0x0000000000000000000000000000000000000000000000000000000000000096"
                    }
                ],
                "storageVariables": [
                    {
                        "name": "_totalSupply",
                        "type": "mapping(uint256 => uint256)",
                        "value": {
                            "pairs": [
                                {
                                    "key": "2",
                                    "value": {
                                        "current": "151",
                                        "prev": "150",
                                        "typeTag": 1
                                    }
                                }
                            ],
                            "typeTag": 4
                        }
                    },
                    {
                        "name": "_balances",
                        "type": "mapping(uint256 => mapping(address => uint256))",
                        "value": {
                            "pairs": [
                                {
                                    "key": "2",
                                    "value": {
                                        "pairs": [
                                            {
                                                "key": "0xc51fa2d7ca3927ea2dad6bddc428e9277bd73099",
                                                "value": {
                                                    "current": "4",
                                                    "prev": "3",
                                                    "typeTag": 1
                                                }
                                            }
                                        ],
                                        "typeTag": 4
                                    }
                                }
                            ],
                            "typeTag": 4
                        }
                    }
                ]
            }
        ]
    }
}