{
    "balance_change": {
        "balanceChanges": [
            {
                "account": "0x7bf78baf8ca19b68c83a21b9eacd0ad264890733",
                "assets": [
                    {
                        "address": "0x8c9b261faef3b3c2e64ab5e58e04615f8c788099",
                        "amount": "1",
                        "iconUrl": "",
                        "isERC1155": false,
                        "isERC721": true,
                        "sign": false,
                        "tokenID": "192205",
                        "value": ""
                    }
                ]
            },
            {
                "account": "0xe7232a9fd8bf427aa41918bc008d32290e22990e",
                "assets": [
                    {
                        "address": "0x8c9b261faef3b3c2e64ab5e58e04615f8c788099",
                        "amount": "1",
                        "iconUrl": "",
                        "isERC1155": false,
                        "isERC721": true,
                        "sign": true,
                        "tokenID": "192205",
                        "value": ""
                    }
                ]
            }
        ]
    },
    "profile": {
        "basic_info": {
            "baseFee": "",
            "blockNumber": 7940198,
            "callData": "0xb8bdf701000000000000000000000000000000000000000000000000000000000002eecd000000000000000000000000000000000000000000000000008e1bc9bf040000000000000000000000000000000000000000000000000000008e1bc9bf0400000000000000000000000000000000000000000000000000000000000001e13380",
            "debugEnable": true,
            "errorInfo": "",
            "eventCount": 3,
            "feeRecipient": "0xd224ca0c819e8e97ba0136b3b95ceff503b79f53",
            "formatValue": "0",
            "gasLimit": 556879,
            "gasPrice": "1",
            "gasUsed": 306341,
            "intTxnCount": 4,
            "internalRevert": false,
            "internalRevertMessage": "",
            "isContractCreation": false,
            "isFlashloan": false,
            "maxFee": "",
            "nonce": 5013,
            "overwritedBlockNumber": -1,
            "priorityFee": "",
            "receiver": "0x8c9b261faef3b3c2e64ab5e58e04615f8c788099",
            "revertMessage": "",
            "sender": "0x7bf78baf8ca19b68c83a21b9eacd0ad264890733",
            "simulationEnable": true,
            "sourceTxnHash": "0xbded7f1aeb0a8a7289bcd630975e53a64329dbc42defaf54a6fa9a0e11176e57",
            "status": true,
            "timestamp": "2019-06-11T22:19:24Z",
            "transactionFee": "0.000306341",
            "txnHash": "0xbded7f1aeb0a8a7289bcd630975e53a64329dbc42defaf54a6fa9a0e11176e57",
            "txnIndex": 53,
            "type": 0,
            "value": "0"
        },
        "fund_flow": [
            {
                "amount": "1",
                "from": "0x7bf78baf8ca19b68c83a21b9eacd0ad264890733",
                "id": 1,
                "isERC1155": false,
                "isERC721": true,
                "isReverted": false,
                "order": 1,
                "to": "0xe7232a9fd8bf427aa41918bc008d32290e22990e",
                "token": "0x8c9b261faef3b3c2e64ab5e58e04615f8c788099",
                "tokenID": "192205"
            }
        ],
        "token_infos": [
            {
                "address": "0xc02aaa39b223fe8d0a0e5c4f27ead9083c756cc2",
                "decimals": 18
            },
            {
                "address": "0xeeeeeeeeeeeeeeeeeeeeeeeeeeeeeeeeeeeeeeee",
                "decimals": 18
            }
        ]
    },
    "address_label": {
        "labels": [
            {
                "address": "0x0000000000000000000000000000000000000002",
                "label": "Precompiled"
            },
            {
                "address": "0x0000000000000000000000000000000000000003",
                "label": "Precompiled"
            },
            {
                "address": "0x0000000000000000000000000000000000000004",
                "label": "Precompiled"
            },
            {
                "address": "0xeeeeeeeeeeeeeeeeeeeeeeeeeeeeeeeeeeeeeeee",
                "label": "Ether"
            },
            {
                "address": "0x8c9b261faef3b3c2e64ab5e58e04615f8c788099",
                "label": "LucidSight-MLB-NFT (MLBCB)"
            },
            {
                "address": "0xe7232a9fd8bf427aa41918bc008d32290e22990e",
                "label": "SaleManager"
            },
            {
                "address": "0x0000000000000000000000000000000000000001",
                "label": "Precompiled"
            }
        ]
    },
    "trace": {
        "accountLabels": null,
        "dataMap": {
            "-1": {
                "invocation": {
                    "address": "0x7bf78baf8ca19b68c83a21b9eacd0ad264890733",
                    "callData": "",
                    "decodedMethod": null,
                    "errorInfo": "",
                    "fromAddress": "",
                    "gasUsed": 0,
                    "id": -1,
                    "methodDecoded": false,
                    "operation": "",
                    "output": "",
                    "revert": false,
                    "revertMessage": "",
                    "selector": "",
                    "status": false,
                    "value": ""
                },
                "nodeType": 0
            },
            "0": {
                "invocation": {
                    "address": "0x8c9b261faef3b3c2e64ab5e58e04615f8c788099",
                    "callData": "0x000000000000000000000000000000000000000000000000000000000002eecd000000000000000000000000000000000000000000000000008e1bc9bf040000000000000000000000000000000000000000000000000000008e1bc9bf0400000000000000000000000000000000000000000000000000000000000001e13380",
                    "decodedMethod": {
                        "callParams": [
                            {
                                "name": "_tokenId",
                                "type": "uint256",
                                "value": "192,205"
                            },
                            {
                                "name": "_startingPrice",
                                "type": "uint256",
                                "value": "40,000,000,000,000,000"
                            },
                            {
                                "name": "_endingPrice",
                                "type": "uint256",
                                "value": "40,000,000,000,000,000"
                            },
                            {
                                "name": "_duration",
                                "type": "uint256",
                                "value": "31,536,000"
                            }
                        ],
                        "constructorArguments": "",
                        "name": "initiateCreateSale",
                        "returnParams": [],
                        "signature": "initiateCreateSale(uint256,uint256,uint256,uint256)"
                    },
                    "errorInfo": "",
                    "fromAddress": "0x7bf78baf8ca19b68c83a21b9eacd0ad264890733",
                    "gasUsed": 306341,
                    "id": 0,
                    "methodDecoded": true,
                    "operation": "CALL",
                    "output": "",
                    "revert": false,
                    "revertMessage": "",
                    "selector": "0xb8bdf701",
                    "status": true,
                    "value": "0"
                },
                "nodeType": 0
            },
            "1": {
                "event": {
                    "contract": "0x8c9b261faef3b3c2e64ab5e58e04615f8c788099",
                    "decodedLog": {
                        "name": "Approval",
                        "params": [
                            {
                                "name": "_owner",
                                "type": "address",
                                "value": "0x7bf78baf8ca19b68c83a21b9eacd0ad264890733"
                            },
                            {
                                "name": "_approved",
                                "type": "address",
                                "value": "0xe7232a9fd8bf427aa41918bc008d32290e22990e"
                            },
                            {
                                "decimalAvailable": true,
                                "name": "_tokenId",
                                "type": "uint256",
                                "value": "192,205"
                            }
                        ],
                        "signature": "Approval(address,address,uint256)"
                    },
                    "id": 1,
                    "logData": "0x",
                    "logDecoded": true,
                    "operation": "EVENT",
                    "revert": false,
                    "status": true,
                    "topics": [
                        "0x8c5be1e5ebec7d5bd14f71427d1e84f3dd0314c0f7b2291e5b200ac8c7c3b925",
                        "0x0000000000000000000000007bf78baf8ca19b68c83a21b9eacd0ad264890733",
                        "0x000000000000000000000000e7232a9fd8bf427aa41918bc008d32290e22990e",
                        "0x000000000000000000000000000000000000000000000000000000000002eecd"
                    ]
                },
                "nodeType": 1
            },
            "2": {
                "invocation": {
                    "address": "0xe7232a9fd8bf427aa41918bc008d32290e22990e",
                    "callData": "0x000000000000000000000000000000000000000000000000000000000002eecd000000000000000000000000000000000000000000000000008e1bc9bf040000000000000000000000000000000000000000000000000000008e1bc9bf0400000000000000000000000000000000000000000000000000000000000001e133800000000000000000000000007bf78baf8ca19b68c83a21b9eacd0ad264890733",
                    "decodedMethod": {
                        "callParams": [
                            {
                                "name": "_tokenId",
                                "type": "uint256",
                                "value": "192,205"
                            },
                            {
                                "name": "_startingPrice",
                                "type": "uint256",
                                "value": "40,000,000,000,000,000"
                            },
                            {
                                "name": "_endingPrice",
                                "type": "uint256",
                                "value": "40,000,000,000,000,000"
                            },
                            {
                                "name": "_duration",
                                "type": "uint256",
                                "value": "31,536,000"
                            },
                            {
                                "name": "_owner",
                                "type": "address",
                                "value": "0x7bf78baf8ca19b68c83a21b9eacd0ad264890733"
                            }
                        ],
                        "constructorArguments": "",
                        "name": "createSale",
                        "returnParams": [],
                        "signature": "createSale(uint256,uint256,uint256,uint256,address)"
                    },
                    "errorInfo": "",
                    "fromAddress": "0x8c9b261faef3b3c2e64ab5e58e04615f8c788099",
                    "gasUsed": 312624,
                    "id": 2,
                    "methodDecoded": true,
                    "operation": "CALL",
                    "output": "",
                    "revert": false,
                    "revertMessage": "",
                    "selector": "0x72a1b73f",
                    "status": true,
                    "value": "0"
                },
                "nodeType": 0
            },
            "3": {
                "invocation": {
                    "address": "0x8c9b261faef3b3c2e64ab5e58e04615f8c788099",
                    "callData": "0x000000000000000000000000000000000000000000000000000000000002eecd",
                    "decodedMethod": {
                        "callParams": [
                            {
                                "name": "_tokenId",
                                "type": "uint256",
                                "value": "192,205"
                            }
                        ],
                        "constructorArguments": "",
                        "name": "checkIsAttached",
                        "returnParams": [
                            {
                                "name": "",
                                "type": "uint256",
                                "value": "0"
                            }
                        ],
                        "signature": "checkIsAttached(uint256)"
                    },
                    "errorInfo": "",
                    "fromAddress": "0xe7232a9fd8bf427aa41918bc008d32290e22990e",
                    "gasUsed": 3452,
                    "id": 3,
                    "methodDecoded": true,
                    "operation": "CALL",
                    "output": "0x0000000000000000000000000000000000000000000000000000000000000000",
                    "revert": false,
                    "revertMessage": "",
                    "selector": "0x5265440c",
                    "status": true,
                    "value": "0"
                },
                "nodeType": 0
            },
            "4": {
                "invocation": {
                    "address": "0x8c9b261faef3b3c2e64ab5e58e04615f8c788099",
                    "callData": "0x0000000000000000000000007bf78baf8ca19b68c83a21b9eacd0ad264890733000000000000000000000000e7232a9fd8bf427aa41918bc008d32290e22990e000000000000000000000000000000000000000000000000000000000002eecd",
                    "decodedMethod": {
                        "callParams": [
                            {
                                "name": "_from",
                                "type": "address",
                                "value": "0x7bf78baf8ca19b68c83a21b9eacd0ad264890733"
                            },
                            {
                                "name": "_to",
                                "type": "address",
                                "value": "0xe7232a9fd8bf427aa41918bc008d32290e22990e"
                            },
                            {
                                "name": "_tokenId",
                                "type": "uint256",
                                "value": "192,205"
                            }
                        ],
                        "constructorArguments": "",
                        "name": "safeTransferFrom",
                        "returnParams": [],
                        "signature": "safeTransferFrom(address,address,uint256)"
                    },
                    "errorInfo": "",
                    "fromAddress": "0xe7232a9fd8bf427aa41918bc008d32290e22990e",
                    "gasUsed": 139538,
                    "id": 4,
                    "methodDecoded": true,
                    "operation": "CALL",
                    "output": "",
                    "revert": false,
                    "revertMessage": "",
                    "selector": "0x42842e0e",
                    "status": true,
                    "value": "0"
                },
                "nodeType": 0
            },
            "5": {
                "event": {
                    "contract": "0x8c9b261faef3b3c2e64ab5e58e04615f8c788099",
                    "decodedLog": {
                        "name": "Transfer",
                        "params": [
                            {
                                "name": "_from",
                                "type": "address",
                                "value": "0x7bf78baf8ca19b68c83a21b9eacd0ad264890733"
                            },
                            {
                                "name": "_to",
                                "type": "address",
                                "value": "0xe7232a9fd8bf427aa41918bc008d32290e22990e"
                            },
                            {
                                "decimalAvailable": true,
                                "name": "_tokenId",
                                "type": "uint256",
                                "value": "192,205"
                            }
                        ],
                        "signature": "Transfer(address,address,uint256)"
                    },
                    "id": 5,
                    "logData": "0x",
                    "logDecoded": true,
                    "operation": "EVENT",
                    "revert": false,
                    "status": true,
                    "topics": [
                        "0xddf252ad1be2c89b69c2b068fc378daa952ba7f163c4a11628f55a4df523b3ef",
                        "0x0000000000000000000000007bf78baf8ca19b68c83a21b9eacd0ad264890733",
                        "0x000000000000000000000000e7232a9fd8bf427aa41918bc008d32290e22990e",
                        "0x000000000000000000000000000000000000000000000000000000000002eecd"
                    ]
                },
                "nodeType": 1
            },
            "6": {
                "invocation": {
                    "address": "0xe7232a9fd8bf427aa41918bc008d32290e22990e",
                    "callData": "0x000000000000000000000000e7232a9fd8bf427aa41918bc008d32290e22990e0000000000000000000000007bf78baf8ca19b68c83a21b9eacd0ad264890733000000000000000000000000000000000000000000000000000000000002eecd00000000000000000000000000000000000000000000000000000000000000800000000000000000000000000000000000000000000000000000000000000000",
                    "decodedMethod": {
                        "callParams": [
                            {
                                "name": "",
                                "type": "address",
                                "value": "0xe7232a9fd8bf427aa41918bc008d32290e22990e"
                            },
                            {
                                "name": "",
                                "type": "address",
                                "value": "0x7bf78baf8ca19b68c83a21b9eacd0ad264890733"
                            },
                            {
                                "name": "",
                                "type": "uint256",
                                "value": "192,205"
                            },
                            {
                                "name": "",
                                "type": "bytes",
                                "value": "0x"
                            }
                        ],
                        "constructorArguments": "",
                        "name": "onERC721Received",
                        "returnParams": [
                            {
                                "name": "",
                                "type": "bytes4",
                                "value": "0x150b7a02"
                            }
                        ],
                        "signature": "onERC721Received(address,address,uint256,bytes)"
                    },
                    "errorInfo": "",
                    "fromAddress": "0x8c9b261faef3b3c2e64ab5e58e04615f8c788099",
                    "gasUsed": 580,
                    "id": 6,
                    "methodDecoded": true,
                    "operation": "CALL",
                    "output": "0x150b7a0200000000000000000000000000000000000000000000000000000000",
                    "revert": false,
                    "revertMessage": "",
                    "selector": "0x150b7a02",
                    "status": true,
                    "value": "0"
                },
                "nodeType": 0
            },
            "7": {
                "event": {
                    "contract": "0xe7232a9fd8bf427aa41918bc008d32290e22990e",
                    "decodedLog": {
                        "name": "SaleCreated",
                        "params": [
                            {
                                "name": "tokenID",
                                "type": "uint256",
                                "value": "192,205"
                            },
                            {
                                "name": "startingPrice",
                                "type": "uint256",
                                "value": "40,000,000,000,000,000"
                            },
                            {
                                "name": "endingPrice",
                                "type": "uint256",
                                "value": "40,000,000,000,000,000"
                            },
                            {
                                "name": "duration",
                                "type": "uint256",
                                "value": "31,536,000"
                            },
                            {
                                "name": "startedAt",
                                "type": "uint256",
                                "value": "1,560,291,564"
                            }
                        ],
                        "signature": "SaleCreated(uint256,uint256,uint256,uint256,uint256)"
                    },
                    "id": 7,
                    "logData": "0x000000000000000000000000000000000000000000000000000000000002eecd000000000000000000000000000000000000000000000000008e1bc9bf040000000000000000000000000000000000000000000000000000008e1bc9bf0400000000000000000000000000000000000000000000000000000000000001e13380000000000000000000000000000000000000000000000000000000005d0028ec",
                    "logDecoded": true,
                    "operation": "EVENT",
                    "revert": false,
                    "status": true,
                    "topics": [
                        "0x6688114a9b77bcf97076216092c6794f7c541749631612664980599eaff1f532"
                    ]
                },
                "nodeType": 1
            }
        },
        "gasFlame": [
            {
                "children": [
                    {
                        "children": [
                            {
                                "children": [],
                                "depth": 0,
                                "name": "Initial Gas",
                                "value": 22872
                            },
                            {
                                "children": [
                                    {
                                        "children": [
                                            {
                                                "children": [],
                                                "depth": 2,
                                                "name": "checkIsAttached",
                                                "value": 3452
                                            },
                                            {
                                                "children": [
                                                    {
                                                        "children": [],
                                                        "depth": 3,
                                                        "name": "onERC721Received",
                                                        "value": 580
                                                    }
                                                ],
                                                "depth": 2,
                                                "name": "safeTransferFrom",
                                                "value": 139538
                                            }
                                        ],
                                        "depth": 1,
                                        "name": "createSale",
                                        "value": 312624
                                    }
                                ],
                                "depth": 0,
                                "name": "Executed Gas",
                                "value": 343469
                            }
                        ],
                        "depth": -1,
                        "name": "Actual Gas Used",
                        "value": 306341
                    },
                    {
                        "children": [],
                        "depth": -1,
                        "name": "Refunded Gas",
                        "value": 60000
                    }
                ],
                "depth": -2,
                "name": "Total Gas",
                "value": 366341
            }
        ],
        "isConfirmed": true,
        "mainTrace": [
            {
                "children": [
                    {
                        "children": [
                            {
                                "children": [],
                                "depth": 1,
                                "id": 1,
                                "order": 1
                            },
                            {
                                "children": [
                                    {
                                        "children": [],
                                        "depth": 2,
                                        "id": 3,
                                        "order": 3
                                    },
                                    {
                                        "children": [
                                            {
                                                "children": [],
                                                "depth": 3,
                                                "id": 5,
                                                "order": 5
                                            },
                                            {
                                                "children": [],
                                                "depth": 3,
                                                "id": 6,
                                                "order": 6
                                            }
                                        ],
                                        "depth": 2,
                                        "id": 4,
                                        "order": 4
                                    },
                                    {
                                        "children": [],
                                        "depth": 2,
                                        "id": 7,
                                        "order": 7
                                    }
                                ],
                                "depth": 1,
                                "id": 2,
                                "order": 2
                            }
                        ],
                        "depth": 0,
                        "id": 0,
                        "order": 0
                    }
                ],
                "depth": -1,
                "id": -1,
                "order": -1
            }
        ],
        "mainTraceNodeCount": 8,
        "parentIdMap": {
            "0": -1,
            "1": 0,
            "2": 0,
            "3": 2,
            "4": 2,
            "5": 4,
            "6": 4,
            "7": 2
        },
        "tidyTrace": [
            {
                "children": [
                    {
                        "children": [
                            {
                                "children": [],
                                "depth": 1,
                                "id": 1,
                                "order": 1
                            },
                            {
                                "children": [
                                    {
                                        "children": [],
                                        "depth": 2,
                                        "id": 3,
                                        "order": 3
                                    },
                                    {
                                        "children": [
                                            {
                                                "children": [],
                                                "depth": 3,
                                                "id": 5,
                                                "order": 5
                                            },
                                            {
                                                "children": [],
                                                "depth": 3,
                                                "id": 6,
                                                "order": 6
                                            }
                                        ],
                                        "depth": 2,
                                        "id": 4,
                                        "order": 4
                                    },
                                    {
                                        "children": [],
                                        "depth": 2,
                                        "id": 7,
                                        "order": 7
                                    }
                                ],
                                "depth": 1,
                                "id": 2,
                                "order": 2
                            }
                        ],
                        "depth": 0,
                        "id": 0,
                        "order": 0
                    }
                ],
                "depth": -1,
                "id": -1,
                "order": -1
            }
        ],
        "tidyTraceNodeCount": 8
    },
    "state_change": {
        "stateChanges": [
            {
                "address": "0x8c9b261faef3b3c2e64ab5e58e04615f8c788099",
                "erc": "ERC-721",
                "slots": [
                    {
                        "current": "0x000000000000000000000000000000000000000000000000000000000002eecd",
                        "key": "0x3eb1a49a067d1809d8f7f518127992ea741a02cf2298901ad4f002b2cd378f60",
                        "prev": "0x0000000000000000000000000000000000000000000000000000000000000000"
                    },
                    {
                        "current": "0x0000000000000000000000000000000000000000000000000000000000000780",
                        "key": "0xb545ce9696f46e41d7d26dfd34755e71c6c33408f578e02b2b94e576ffe9c14d",
                        "prev": "0x0000000000000000000000000000000000000000000000000000000000000781"
                    },
                    {
                        "current": "0x000000000000000000000000000000000000000000000000000000000002eecc",
                        "key": "0xa09cef714d80f26db8d1f9389503231e4be3b12b1d1b9fe21600ee86e92670e0",
                        "prev": "0x000000000000000000000000000000000000000000000000000000000002eecd"
                    },
                    {
                        "current": "0x0000000000000000000000000000000000000000000000000000000000000000",
                        "key": "0xa09cef714d80f26db8d1f9389503231e4be3b12b1d1b9fe21600ee86e92670e2",
                        "prev": "0x000000000000000000000000000000000000000000000000000000000002eecc"
                    },
                    {
                        "current": "0x0000000000000000000000000000000000000000000000000000000000000780",
                        "key": "0xea0624c0de435699d2311dc5eb28d47be71fa85b0ac1c825834477a769ef1e9e",
                        "prev": "0x0000000000000000000000000000000000000000000000000000000000000781"
                    },
                    {
                        "current": "0x0000000000000000000000000000000000000000000000000000000000003237",
                        "key": "0x41aa6e8a3afa7091a170ca7541adf9df780aba2047abe4f5eafcc6321301ffc4",
                        "prev": "0x0000000000000000000000000000000000000000000000000000000000003236"
                    },
                    {
                        "current": "0x000000000000000000000000000000000000000000000000000000000000077e",
                        "key": "0x373276506874f61d3be1422828b133bcdbb54d7064265eead5af8440725d3fbd",
                        "prev": "0x0000000000000000000000000000000000000000000000000000000000000780"
                    },
                    {
                        "current": "0x0000000000000000000000000000000000000000000000000000000000003237",
                        "key": "0xaf0e1d3b1d9ca4ad5688b66cf4d1b63f9b8e5614592731c5c370ca6aa0d7d579",
                        "prev": "0x0000000000000000000000000000000000000000000000000000000000003236"
                    },
                    {
                        "current": "0x000000000000000000000000e7232a9fd8bf427aa41918bc008d32290e22990e",
                        "key": "0x36b5436ba4a90aaa91a2472eb33fb6929c80b3e3339ec4422a8040b5385a801e",
                        "prev": "0x0000000000000000000000007bf78baf8ca19b68c83a21b9eacd0ad264890733"
                    },
                    {
                        "current": "0x0000000000000000000000000000000000000000000000000000000000003236",
                        "key": "0x7b2ec58ed2d669891d5abb80db2eb18e0dc297df617ed873d2d508e36773080b",
                        "prev": "0x000000000000000000000000000000000000000000000000000000000000077e"
                    }
                ],
                "storageVariables": [
                    {
                        "name": "ownedTokens",
                        "type": "mapping(address => uint256[])",
                        "value": {
                            "pairs": [
                                {
                                    "key": "0x7bf78baf8ca19b68c83a21b9eacd0ad264890733",
                                    "value": {
                                        "elemType": "uint256",
                                        "elems": [
                                            {
                                                "index": 1918,
                                                "value": {
                                                    "current": "192204",
                                                    "prev": "192205",
                                                    "typeTag": 1
                                                }
                                            }
                                        ],
                                        "typeTag": 2
                                    }
                                },
                                {
                                    "key": "0xe7232a9fd8bf427aa41918bc008d32290e22990e",
                                    "value": {
                                        "elemType": "uint256",
                                        "elems": [
                                            {
                                                "index": 12854,
                                                "value": {
                                                    "current": "192205",
                                                    "prev": "0",
                                                    "typeTag": 1
                                                }
                                            }
                                        ],
                                        "typeTag": 2
                                    }
                                }
                            ],
                            "typeTag": 4
                        }
                    },
                    {
                        "name": "ownedTokensCount",
                        "type": "mapping(address => uint256)",
                        "value": {
                            "pairs": [
                                {
                                    "key": "0x7bf78baf8ca19b68c83a21b9eacd0ad264890733",
                                    "value": {
                                        "current": "1920",
                                        "prev": "1921",
                                        "typeTag": 1
                                    }
                                },
                                {
                                    "key": "0xe7232a9fd8bf427aa41918bc008d32290e22990e",
                                    "value": {
                                        "current": "12855",
                                        "prev": "12854",
                                        "typeTag": 1
                                    }
                                }
                            ],
                            "typeTag": 4
                        }
                    },
                    {
                        "name": "ownedTokensIndex",
                        "type": "mapping(uint256 => uint256)",
                        "value": {
                            "pairs": [
                                {
                                    "key": "192204",
                                    "value": {
                                        "current": "1918",
                                        "prev": "1920",
                                        "typeTag": 1
                                    }
                                },
                                {
                                    "key": "192205",
                                    "value": {
                                        "current": "12854",
                                        "prev": "1918",
                                        "typeTag": 1
                                    }
                                }
                            ],
                            "typeTag": 4
                        }
                    },
                    {
                        "name": "tokenOwner",
                        "type": "mapping(uint256 => address)",
                        "value": {
                            "pairs": [
                                {
                                    "key": "192205",
                                    "value": {
                                        "current": "0xe7232a9fd8bf427aa41918bc008d32290e22990e",
                                        "prev": "0x7bf78baf8ca19b68c83a21b9eacd0ad264890733",
                                        "typeTag": 1
                                    }
                                }
                            ],
                            "typeTag": 4
                        }
                    }
                ]
            },
            {
                "address": "0xe7232a9fd8bf427aa41918bc008d32290e22990e",
                "erc": "",
                "slots": [
                    {
                        "current": "0x000000000000000000000000000000000000000000000000008e1bc9bf040000",
                        "key": "0xac180699a943539c15d4d80c12487e120befea37c9582768df5b9a065daf92e5",
                        "prev": "0x0000000000000000000000000000000000000000000000000000000000000000"
                    },
                    {
                        "current": "0x000000000000000000000000000000000000000000000000008e1bc9bf040000",
                        "key": "0xac180699a943539c15d4d80c12487e120befea37c9582768df5b9a065daf92e6",
                        "prev": "0x0000000000000000000000000000000000000000000000000000000000000000"
                    },
                    {
                        "current": "0x0000000000000000000000000000000000000000000000000000000001e13380",
                        "key": "0xac180699a943539c15d4d80c12487e120befea37c9582768df5b9a065daf92e7",
                        "prev": "0x0000000000000000000000000000000000000000000000000000000000000000"
                    },
                    {
                        "current": "0x000000000000000000000000000000000000000000000000000000005d0028ec",
                        "key": "0xac180699a943539c15d4d80c12487e120befea37c9582768df5b9a065daf92e8",
                        "prev": "0x0000000000000000000000000000000000000000000000000000000000000000"
                    },
                    {
                        "current": "0x000000000000000000000000000000000000000000000000000000000002eecd",
                        "key": "0xac180699a943539c15d4d80c12487e120befea37c9582768df5b9a065daf92e9",
                        "prev": "0x0000000000000000000000000000000000000000000000000000000000000000"
                    },
                    {
                        "current": "0x0000000000000000000000007bf78baf8ca19b68c83a21b9eacd0ad264890733",
                        "key": "0xac180699a943539c15d4d80c12487e120befea37c9582768df5b9a065daf92e4",
                        "prev": "0x0000000000000000000000000000000000000000000000000000000000000000"
                    }
                ],
                "storageVariables": [
                    {
                        "name": "tokenIdToSale",
                        "type": "mapping(uint256 => struct SaleBase.Sale)",
                        "value": {
                            "pairs": [
                                {
                                    "key": "192205",
                                    "value": {
                                        "fields": [
                                            {
                                                "name": "seller",
                                                "type": "address",
                                                "value": {
                                                    "current": "0x7bf78baf8ca19b68c83a21b9eacd0ad264890733",
                                                    "prev": "0x0000000000000000000000000000000000000000",
                                                    "typeTag": 1
                                                }
                                            },
                                            {
                                                "name": "startingPrice",
                                                "type": "uint256",
                                                "value": {
                                                    "current": "40000000000000000",
                                                    "prev": "0",
                                                    "typeTag": 1
                                                }
                                            },
                                            {
                                                "name": "endingPrice",
                                                "type": "uint256",
                                                "value": {
                                                    "current": "40000000000000000",
                                                    "prev": "0",
                                                    "typeTag": 1
                                                }
                                            },
                                            {
                                                "name": "duration",
                                                "type": "uint256",
                                                "value": {
                                                    "current": "31536000",
                                                    "prev": "0",
                                                    "typeTag": 1
                                                }
                                            },
                                            {
                                                "name": "startedAt",
                                                "type": "uint256",
                                                "value": {
                                                    "current": "1560291564",
                                                    "prev": "0",
                                                    "typeTag": 1
                                                }
                                            },
                                            {
                                                "name": "tokenIds",
                                                "type": "uint256[9]",
                                                "value": {
                                                    "elemType": "uint256",
                                                    "elems": [
                                                        {
                                                            "index": 0,
                                                            "value": {
                                                                "current": "192205",
                                                                "prev": "0",
                                                                "typeTag": 1
                                                            }
                                                        }
                                                    ],
                                                    "typeTag": 2
                                                }
                                            }
                                        ],
                                        "typeTag": 3
                                    }
                                }
                            ],
                            "typeTag": 4
                        }
                    }
                ]
            }
        ]
    }
}