{
    "balance_change": {
        "balanceChanges": [
            {
                "account": "0x0c55264704268a2af864fc8b8598e48030641118",
                "assets": [
                    {
                        "address": "0x02b3c88b805f1c6982e38ea1d40a1d83f159c3d4",
                        "amount": "2.02",
                        "iconUrl": "",
                        "isERC1155": false,
                        "isERC721": false,
                        "sign": false,
                        "value": ""
                    }
                ]
            },
            {
                "account": "0x81fe7325460824cd9db9b405f7872ed163d37bc6",
                "assets": [
                    {
                        "address": "0x02b3c88b805f1c6982e38ea1d40a1d83f159c3d4",
                        "amount": "2.02",
                        "iconUrl": "",
                        "isERC1155": false,
                        "isERC721": false,
                        "sign": true,
                        "value": ""
                    }
                ]
            }
        ]
    },
    "profile": {
        "basic_info": {
            "baseFee": "",
            "blockNumber": 8083342,
            "callData": "0xa9059cbb00000000000000000000000081fe7325460824cd9db9b405f7872ed163d37bc6000000000000000000000000000000000000000000000000000000000c0a4680",
            "debugEnable": true,
            "errorInfo": "",
            "eventCount": 2,
            "feeRecipient": "0xea674fdde714fd979de3edf0f56aa9716b898ec8",
            "formatValue": "0",
            "gasLimit": 38033,
            "gasPrice": "1.1",
            "gasUsed": 23032,
            "intTxnCount": 0,
            "internalRevert": false,
            "internalRevertMessage": "",
            "isContractCreation": false,
            "isFlashloan": false,
            "maxFee": "",
            "nonce": 7,
            "overwritedBlockNumber": -1,
            "priorityFee": "",
            "receiver": "0x02b3c88b805f1c6982e38ea1d40a1d83f159c3d4",
            "revertMessage": "",
            "sender": "0x0c55264704268a2af864fc8b8598e48030641118",
            "simulationEnable": true,
            "sourceTxnHash": "0xbdf46b619ea8d2e9510b5b04d8d0490628147c9b226e418fa63cd3a9ab2eb7a4",
            "status": true,
            "timestamp": "2019-07-04T06:52:48Z",
            "transactionFee": "0.0000253352",
            "txnHash": "0xbdf46b619ea8d2e9510b5b04d8d0490628147c9b226e418fa63cd3a9ab2eb7a4",
            "txnIndex": 123,
            "type": 0,
            "value": "0"
        },
        "fund_flow": [
            {
                "amount": "2.02",
                "from": "0x0c55264704268a2af864fc8b8598e48030641118",
                "id": 1,
                "isERC1155": false,
                "isERC721": false,
                "isReverted": false,
                "order": 1,
                "to": "0x81fe7325460824cd9db9b405f7872ed163d37bc6",
                "token": "0x02b3c88b805f1c6982e38ea1d40a1d83f159c3d4"
            }
        ],
        "token_infos": [
            {
                "address": "0x02b3c88b805f1c6982e38ea1d40a1d83f159c3d4",
                "decimals": 8
            },
            {
                "address": "0xc02aaa39b223fe8d0a0e5c4f27ead9083c756cc2",
                "decimals": 18
            },
            {
                "address": "0xeeeeeeeeeeeeeeeeeeeeeeeeeeeeeeeeeeeeeeee",
                "decimals": 18
            }
        ]
    },
    "address_label": {
        "labels": [
            {
                "address": "0x0000000000000000000000000000000000000002",
                "label": "Precompiled"
            },
            {
                "address": "0x0000000000000000000000000000000000000003",
                "label": "Precompiled"
            },
            {
                "address": "0x0000000000000000000000000000000000000004",
                "label": "Precompiled"
            },
            {
                "address": "0xeeeeeeeeeeeeeeeeeeeeeeeeeeeeeeeeeeeeeeee",
                "label": "Ether"
            },
            {
                "address": "0x02b3c88b805f1c6982e38ea1d40a1d83f159c3d4",
                "label": "Yun Planet (YUN)"
            },
            {
                "address": "0x0000000000000000000000000000000000000001",
                "label": "Precompiled"
            }
        ]
    },
    "trace": {
        "accountLabels": null,
        "dataMap": {
            "-1": {
                "invocation": {
                    "address": "0x0c55264704268a2af864fc8b8598e48030641118",
                    "callData": "",
                    "decodedMethod": null,
                    "errorInfo": "",
                    "fromAddress": "",
                    "gasUsed": 0,
                    "id": -1,
                    "methodDecoded": false,
                    "operation": "",
                    "output": "",
                    "revert": false,
                    "revertMessage": "",
                    "selector": "",
                    "status": false,
                    "value": ""
                },
                "nodeType": 0
            },
            "0": {
                "invocation": {
                    "address": "0x02b3c88b805f1c6982e38ea1d40a1d83f159c3d4",
                    "callData": "0x00000000000000000000000081fe7325460824cd9db9b405f7872ed163d37bc6000000000000000000000000000000000000000000000000000000000c0a4680",
                    "decodedMethod": {
                        "callParams": [
                            {
                                "name": "_to",
                                "type": "address",
                                "value": "0x81fe7325460824cd9db9b405f7872ed163d37bc6"
                            },
                            {
                                "decimalAvailable": true,
                                "name": "_value",
                                "type": "uint256",
                                "value": "202,000,000"
                            }
                        ],
                        "constructorArguments": "",
                        "name": "transfer",
                        "returnParams": [],
                        "signature": "transfer(address,uint256)"
                    },
                    "errorInfo": "",
                    "fromAddress": "0x0c55264704268a2af864fc8b8598e48030641118",
                    "gasUsed": 23032,
                    "id": 0,
                    "methodDecoded": true,
                    "operation": "CALL",
                    "output": "",
                    "revert": false,
                    "revertMessage": "",
                    "selector": "0xa9059cbb",
                    "status": true,
                    "value": "0"
                },
                "nodeType": 0
            },
            "1": {
                "event": {
                    "contract": "0x02b3c88b805f1c6982e38ea1d40a1d83f159c3d4",
                    "decodedLog": {
                        "name": "Transfer",
                        "params": [
                            {
                                "name": "from",
                                "type": "address",
                                "value": "0x0c55264704268a2af864fc8b8598e48030641118"
                            },
                            {
                                "name": "to",
                                "type": "address",
                                "value": "0x81fe7325460824cd9db9b405f7872ed163d37bc6"
                            },
                            {
                                "decimalAvailable": true,
                                "name": "value",
                                "type": "uint256",
                                "value": "202,000,000"
                            }
                        ],
                        "signature": "Transfer(address,address,uint256)"
                    },
                    "id": 1,
                    "logData": "0x000000000000000000000000000000000000000000000000000000000c0a4680",
                    "logDecoded": true,
                    "operation": "EVENT",
                    "revert": false,
                    "status": true,
                    "topics": [
                        "0xddf252ad1be2c89b69c2b068fc378daa952ba7f163c4a11628f55a4df523b3ef",
                        "0x0000000000000000000000000c55264704268a2af864fc8b8598e48030641118",
                        "0x00000000000000000000000081fe7325460824cd9db9b405f7872ed163d37bc6"
                    ]
                },
                "nodeType": 1
            },
            "2": {
                "event": {
                    "contract": "0x02b3c88b805f1c6982e38ea1d40a1d83f159c3d4",
                    "decodedLog": {
                        "name": "mylog",
                        "params": [
                            {
                                "name": "code",
                                "type": "uint256",
                                "value": "0"
                            }
                        ],
                        "signature": "mylog(uint256)"
                    },
                    "id": 2,
                    "logData": "0x0000000000000000000000000000000000000000000000000000000000000000",
                    "logDecoded": true,
                    "operation": "EVENT",
                    "revert": false,
                    "status": true,
                    "topics": [
                        "0x67631d1bdda6fede513a18dab2d7282eb1233c8a01cd01f9580aa9543dd82b32"
                    ]
                },
                "nodeType": 1
            }
        },
        "gasFlame": [
            {
                "children": [
                    {
                        "children": [
                            {
                                "children": [],
                                "depth": 0,
                                "name": "Initial Gas",
                                "value": 23064
                            },
                            {
                                "children": [],
                                "depth": 0,
                                "name": "Executed Gas",
                                "value": 14968
                            }
                        ],
                        "depth": -1,
                        "name": "Actual Gas Used",
                        "value": 23032
                    },
                    {
                        "children": [],
                        "depth": -1,
                        "name": "Refunded Gas",
                        "value": 15000
                    }
                ],
                "depth": -2,
                "name": "Total Gas",
                "value": 38032
            }
        ],
        "isConfirmed": true,
        "mainTrace": [
            {
                "children": [
                    {
                        "children": [
                            {
                                "children": [],
                                "depth": 1,
                                "id": 1,
                                "order": 1
                            },
                            {
                                "children": [],
                                "depth": 1,
                                "id": 2,
                                "order": 2
                            }
                        ],
                        "depth": 0,
                        "id": 0,
                        "order": 0
                    }
                ],
                "depth": -1,
                "id": -1,
                "order": -1
            }
        ],
        "mainTraceNodeCount": 3,
        "parentIdMap": {
            "0": -1,
            "1": 0,
            "2": 0
        },
        "tidyTrace": [
            {
                "children": [
                    {
                        "children": [
                            {
                                "children": [],
                                "depth": 1,
                                "id": 1,
                                "order": 1
                            },
                            {
                                "children": [],
                                "depth": 1,
                                "id": 2,
                                "order": 2
                            }
                        ],
                        "depth": 0,
                        "id": 0,
                        "order": 0
                    }
                ],
                "depth": -1,
                "id": -1,
                "order": -1
            }
        ],
        "tidyTraceNodeCount": 3
    },
    "state_change": {
        "stateChanges": [
            {
                "address": "0x02b3c88b805f1c6982e38ea1d40a1d83f159c3d4",
                "erc": "",
                "slots": [
                    {
                        "current": "0x0000000000000000000000000000000000000000000000000000000000000000",
                        "key": "0x0ebec65f30894bac71d0a32b5244d6604d314ec13bc1b8458954400bcf8b1a09",
                        "prev": "0x000000000000000000000000000000000000000000000000000000000c0a4680"
                    },
                    {
                        "current": "0x000000000000000000000000000000000000000000000000015d50c7b6aae224",
                        "key": "0x23262aa2bbaf7e45025b4d2bfd4003433626c0119a25132bdb79d26442da2823",
                        "prev": "0x000000000000000000000000000000000000000000000000015d50c7aaa09ba4"
                    }
                ],
                "storageVariables": [
                    {
                        "name": "balanceOf",
                        "type": "mapping(address => uint256)",
                        "value": {
                            "pairs": [
                                {
                                    "key": "0x0c55264704268a2af864fc8b8598e48030641118",
                                    "value": {
                                        "current": "0",
                                        "prev": "202000000",
                                        "typeTag": 1
                                    }
                                },
                                {
                                    "key": "0x81fe7325460824cd9db9b405f7872ed163d37bc6",
                                    "value": {
                                        "current": "98323585565385252",
                                        "prev": "98323585363385252",
                                        "typeTag": 1
                                    }
                                }
                            ],
                            "typeTag": 4
                        }
                    }
                ]
            }
        ]
    }
}