{
    "balance_change": {
        "balanceChanges": [
            {
                "account": "0xea53770a899d79a61953666c6d7fa0db183944ad",
                "assets": [
                    {
                        "address": "0x8b40761142b9aa6dc8964e61d0585995425c3d94",
                        "amount": "1.29",
                        "iconUrl": "https://assets.blocksec.com/icon/0d7fe273b6d108998949165f93b1fdfded9f200dd4a3f09a63f28ac6025a3160.png",
                        "isERC1155": false,
                        "isERC721": false,
                        "sign": false,
                        "value": ""
                    }
                ]
            },
            {
                "account": "0xa8dfed6078854ec8b534b0ba6e90921b8313eb40",
                "assets": [
                    {
                        "address": "0x8b40761142b9aa6dc8964e61d0585995425c3d94",
                        "amount": "1.29",
                        "iconUrl": "https://assets.blocksec.com/icon/0d7fe273b6d108998949165f93b1fdfded9f200dd4a3f09a63f28ac6025a3160.png",
                        "isERC1155": false,
                        "isERC721": false,
                        "sign": true,
                        "value": ""
                    }
                ]
            }
        ]
    },
    "profile": {
        "basic_info": {
            "baseFee": "",
            "blockNumber": 6739102,
            "callData": "0xa9059cbb000000000000000000000000a8dfed6078854ec8b534b0ba6e90921b8313eb4000000000000000000000000000000000000000000000000011e7002a50410000",
            "debugEnable": true,
            "errorInfo": "",
            "eventCount": 1,
            "feeRecipient": "0xea674fdde714fd979de3edf0f56aa9716b898ec8",
            "formatValue": "0",
            "gasLimit": 151754,
            "gasPrice": "6",
            "gasUsed": 52343,
            "intTxnCount": 0,
            "internalRevert": false,
            "internalRevertMessage": "",
            "isContractCreation": false,
            "isFlashloan": false,
            "maxFee": "",
            "nonce": 397,
            "overwritedBlockNumber": -1,
            "priorityFee": "",
            "receiver": "0x8b40761142b9aa6dc8964e61d0585995425c3d94",
            "revertMessage": "",
            "sender": "0xea53770a899d79a61953666c6d7fa0db183944ad",
            "simulationEnable": true,
            "sourceTxnHash": "0xbd9f4320c185d17e868cee1f3749ee50e8dc82cad7f1f9171b3768b0b70e7de9",
            "status": true,
            "timestamp": "2018-11-20T10:49:34Z",
            "transactionFee": "0.000314058",
            "txnHash": "0xbd9f4320c185d17e868cee1f3749ee50e8dc82cad7f1f9171b3768b0b70e7de9",
            "txnIndex": 49,
            "type": 0,
            "value": "0"
        },
        "fund_flow": [
            {
                "amount": "1.29",
                "from": "0xea53770a899d79a61953666c6d7fa0db183944ad",
                "id": 1,
                "isERC1155": false,
                "isERC721": false,
                "isReverted": false,
                "order": 1,
                "to": "0xa8dfed6078854ec8b534b0ba6e90921b8313eb40",
                "token": "0x8b40761142b9aa6dc8964e61d0585995425c3d94"
            }
        ],
        "token_infos": [
            {
                "address": "0xc02aaa39b223fe8d0a0e5c4f27ead9083c756cc2",
                "decimals": 18
            },
            {
                "address": "0xeeeeeeeeeeeeeeeeeeeeeeeeeeeeeeeeeeeeeeee",
                "decimals": 18
            },
            {
                "address": "0x8b40761142b9aa6dc8964e61d0585995425c3d94",
                "decimals": 18
            }
        ]
    },
    "address_label": {
        "labels": [
            {
                "address": "0x0000000000000000000000000000000000000003",
                "label": "Precompiled"
            },
            {
                "address": "0x0000000000000000000000000000000000000004",
                "label": "Precompiled"
            },
            {
                "address": "0xeeeeeeeeeeeeeeeeeeeeeeeeeeeeeeeeeeeeeeee",
                "label": "Ether"
            },
            {
                "address": "0x8b40761142b9aa6dc8964e61d0585995425c3d94",
                "label": "Tripio (TRIO)"
            },
            {
                "address": "0xa8dfed6078854ec8b534b0ba6e90921b8313eb40",
                "label": "OKEX"
            },
            {
                "address": "0x0000000000000000000000000000000000000001",
                "label": "Precompiled"
            },
            {
                "address": "0x0000000000000000000000000000000000000002",
                "label": "Precompiled"
            }
        ]
    },
    "trace": {
        "accountLabels": null,
        "dataMap": {
            "-1": {
                "invocation": {
                    "address": "0xea53770a899d79a61953666c6d7fa0db183944ad",
                    "callData": "",
                    "decodedMethod": null,
                    "errorInfo": "",
                    "fromAddress": "",
                    "gasUsed": 0,
                    "id": -1,
                    "methodDecoded": false,
                    "operation": "",
                    "output": "",
                    "revert": false,
                    "revertMessage": "",
                    "selector": "",
                    "status": false,
                    "value": ""
                },
                "nodeType": 0
            },
            "0": {
                "invocation": {
                    "address": "0x8b40761142b9aa6dc8964e61d0585995425c3d94",
                    "callData": "0x000000000000000000000000a8dfed6078854ec8b534b0ba6e90921b8313eb4000000000000000000000000000000000000000000000000011e7002a50410000",
                    "decodedMethod": {
                        "callParams": [
                            {
                                "name": "_to",
                                "type": "address",
                                "value": "0xa8dfed6078854ec8b534b0ba6e90921b8313eb40"
                            },
                            {
                                "decimalAvailable": true,
                                "name": "_value",
                                "type": "uint256",
                                "value": "1,290,000,000,000,000,000"
                            }
                        ],
                        "constructorArguments": "",
                        "name": "transfer",
                        "returnParams": [
                            {
                                "name": "",
                                "type": "bool",
                                "value": true
                            }
                        ],
                        "signature": "transfer(address,uint256)"
                    },
                    "errorInfo": "",
                    "fromAddress": "0xea53770a899d79a61953666c6d7fa0db183944ad",
                    "gasUsed": 52343,
                    "id": 0,
                    "methodDecoded": true,
                    "operation": "CALL",
                    "output": "0x0000000000000000000000000000000000000000000000000000000000000001",
                    "revert": false,
                    "revertMessage": "",
                    "selector": "0xa9059cbb",
                    "status": true,
                    "value": "0"
                },
                "nodeType": 0
            },
            "1": {
                "event": {
                    "contract": "0x8b40761142b9aa6dc8964e61d0585995425c3d94",
                    "decodedLog": {
                        "name": "Transfer",
                        "params": [
                            {
                                "name": "from",
                                "type": "address",
                                "value": "0xea53770a899d79a61953666c6d7fa0db183944ad"
                            },
                            {
                                "name": "to",
                                "type": "address",
                                "value": "0xa8dfed6078854ec8b534b0ba6e90921b8313eb40"
                            },
                            {
                                "decimalAvailable": true,
                                "name": "value",
                                "type": "uint256",
                                "value": "1,290,000,000,000,000,000"
                            }
                        ],
                        "signature": "Transfer(address,address,uint256)"
                    },
                    "id": 1,
                    "logData": "0x00000000000000000000000000000000000000000000000011e7002a50410000",
                    "logDecoded": true,
                    "operation": "EVENT",
                    "revert": false,
                    "status": true,
                    "topics": [
                        "0xddf252ad1be2c89b69c2b068fc378daa952ba7f163c4a11628f55a4df523b3ef",
                        "0x000000000000000000000000ea53770a899d79a61953666c6d7fa0db183944ad",
                        "0x000000000000000000000000a8dfed6078854ec8b534b0ba6e90921b8313eb40"
                    ]
                },
                "nodeType": 1
            }
        },
        "gasFlame": [
            {
                "children": [
                    {
                        "children": [
                            {
                                "children": [],
                                "depth": 0,
                                "name": "Initial Gas",
                                "value": 23128
                            },
                            {
                                "children": [],
                                "depth": 0,
                                "name": "Executed Gas",
                                "value": 29215
                            }
                        ],
                        "depth": -1,
                        "name": "Actual Gas Used",
                        "value": 52343
                    },
                    {
                        "children": [],
                        "depth": -1,
                        "name": "Refunded Gas",
                        "value": 0
                    }
                ],
                "depth": -2,
                "name": "Total Gas",
                "value": 52343
            }
        ],
        "isConfirmed": true,
        "mainTrace": [
            {
                "children": [
                    {
                        "children": [
                            {
                                "children": [],
                                "depth": 1,
                                "id": 1,
                                "order": 1
                            }
                        ],
                        "depth": 0,
                        "id": 0,
                        "order": 0
                    }
                ],
                "depth": -1,
                "id": -1,
                "order": -1
            }
        ],
        "mainTraceNodeCount": 2,
        "parentIdMap": {
            "0": -1,
            "1": 0
        },
        "tidyTrace": [
            {
                "children": [
                    {
                        "children": [
                            {
                                "children": [],
                                "depth": 1,
                                "id": 1,
                                "order": 1
                            }
                        ],
                        "depth": 0,
                        "id": 0,
                        "order": 0
                    }
                ],
                "depth": -1,
                "id": -1,
                "order": -1
            }
        ],
        "tidyTraceNodeCount": 2
    },
    "state_change": {
        "stateChanges": [
            {
                "address": "0x8b40761142b9aa6dc8964e61d0585995425c3d94",
                "erc": "ERC-20",
                "slots": [
                    {
                        "current": "0x00000000000000000000000000000000000000000000000011e7002a50410000",
                        "key": "0x87bfe04939f7b029fd3be99a0cf0fe1ce3f77c2d15ab5188db0dcb6f4fb382db",
                        "prev": "0x0000000000000000000000000000000000000000000000000000000000000000"
                    },
                    {
                        "current": "0x000000000000000000000000000000000000000000000630f60454c656990000",
                        "key": "0x09cee022aac82b749638ffcfca30a2c47b9c7bc568fb7d0e84917f4a1427875a",
                        "prev": "0x00000000000000000000000000000000000000000000063107eb54f0a6da0000"
                    }
                ],
                "storageVariables": [
                    {
                        "name": "balances",
                        "type": "mapping(address => uint256)",
                        "value": {
                            "pairs": [
                                {
                                    "key": "0xa8dfed6078854ec8b534b0ba6e90921b8313eb40",
                                    "value": {
                                        "current": "1290000000000000000",
                                        "prev": "0",
                                        "typeTag": 1
                                    }
                                },
                                {
                                    "key": "0xea53770a899d79a61953666c6d7fa0db183944ad",
                                    "value": {
                                        "current": "29237370000000000000000",
                                        "prev": "29238660000000000000000",
                                        "typeTag": 1
                                    }
                                }
                            ],
                            "typeTag": 4
                        }
                    }
                ]
            }
        ]
    }
}