{
    "balance_change": {
        "balanceChanges": [
            {
                "account": "0x68d2cf84028e4828e37369d886cdc404ad76a821",
                "assets": [
                    {
                        "address": "0xeeeeeeeeeeeeeeeeeeeeeeeeeeeeeeeeeeeeeeee",
                        "amount": "0.716365427662949104",
                        "iconUrl": "https://assets.blocksec.com/image/1663669189317-3.png",
                        "isERC1155": false,
                        "isERC721": false,
                        "sign": true,
                        "value": "1322.919198987867026"
                    }
                ]
            },
            {
                "account": "0x1715a3e4a142d8b698131108995174f37aeba10d",
                "assets": [
                    {
                        "address": "0xc02aaa39b223fe8d0a0e5c4f27ead9083c756cc2",
                        "amount": "0.716365427662949104",
                        "iconUrl": "https://assets.blocksec.com/icon/f1cb2d02c471d545bbc7722daf3277fd852d98e63d118771af7047bd8256c516.png",
                        "isERC1155": false,
                        "isERC721": false,
                        "sign": false,
                        "value": "1322.919198987867026"
                    }
                ]
            },
            {
                "account": "0xc02aaa39b223fe8d0a0e5c4f27ead9083c756cc2",
                "assets": [
                    {
                        "address": "0xeeeeeeeeeeeeeeeeeeeeeeeeeeeeeeeeeeeeeeee",
                        "amount": "0.716365427662949104",
                        "iconUrl": "https://assets.blocksec.com/image/1663669189317-3.png",
                        "isERC1155": false,
                        "isERC721": false,
                        "sign": false,
                        "value": "1322.919198987867026"
                    },
                    {
                        "address": "0xc02aaa39b223fe8d0a0e5c4f27ead9083c756cc2",
                        "amount": "0.716365427662949104",
                        "iconUrl": "https://assets.blocksec.com/icon/f1cb2d02c471d545bbc7722daf3277fd852d98e63d118771af7047bd8256c516.png",
                        "isERC1155": false,
                        "isERC721": false,
                        "sign": true,
                        "value": "1322.919198987867026"
                    }
                ]
            }
        ]
    },
    "profile": {
        "basic_info": {
            "baseFee": "19.2213048",
            "blockNumber": 17889443,
            "callData": "0x23caab4900000000000000000000000000000000000000000000000000000000000000400000000000000000000000000000000000000000000000000000000000000180000000000000000000000000000000000000000000000000000000000000011600050000eb21bb7b72d1042c471c6a52c971da8152d66d7a00000000000103ea4fd0aaa7506f3d9cb8274bdb946ec42a1b8751ef1715a3e4a142d8b698131108995174f37aeba10d001e8480020100017101867f7a4d000000000000000000000000c02aaa39b223fe8d0a0e5c4f27ead9083c756cc20000000000000000000000008ac4ae65b3656e26dc4e0e69108b392283350f5500000000000000000000000000000000000000000000000009f10a8f9d388af00000000000000000000000000000000000000000000000000000000000000080000000000000000000000000000000000000000000000000000000000000001468d2cf84028e4828e37369d886cdc404ad76a821000000000000000000000000000000000000000000000000000000000000000000000000000000000000000000000000000000000187061c1b1c1b1c1b4fa4fc454b9d6eeb3cfb036f5a13f5dbebf35879547437be5a8e3038750729ff244a265bd8a568b2b40843269f327c0ba143e1fc430d85600c207da6dee307d11c098bb562412e22da2e26710d8f274c9ca83ecc1e494158290f263b063c4b4c346c81689930e18917258b63e9e1a7bd7bfaedcd0ca5b53aa460a8f7736bc652e46e2de8294eef1d49dd0415db2c4220f312a8954d45d5a91c9c1a17617e3f16b8d83dfa8ce061dc488f12401e47bb45c262269792036bf4741e7e7afd8c36782b1b2c2ff0511171611d92c4494c4490e3dc61b6adc7441a7cb0a7fab87f9ecf7eff4897e78a40aaa32aba70543e1ccd733699187e4bb73ec7be7381214e08931d0acfbdf22dc499090ab386f4a634fec21b1c7d5021dfdd091c3a13e2840a811fdbea3052b7c923c7be86d2ee15982673cb6027ae0cfbb8a37ff20c89ce5c67014b43d9d7d88ad4a9fbdcf03ab68ce5c26e7643993d2568b6af110f6a6335915d3e275a4d1ec93f6eac9b94d70c21c3c2acaf956d3662a320c69ca3e508b9ab00000000000000000000000000000000000000000000000000",
            "debugEnable": true,
            "errorInfo": "",
            "eventCount": 4,
            "feeRecipient": "0x3aebb186370d77d305437dbc02af8b89cec27b8b",
            "formatValue": "0",
            "gasLimit": 654520,
            "gasPrice": "22.3213048",
            "gasUsed": 260265,
            "intTxnCount": 32,
            "internalRevert": false,
            "internalRevertMessage": "",
            "isContractCreation": false,
            "isFlashloan": false,
            "maxFee": "23",
            "nonce": 6,
            "overwritedBlockNumber": -1,
            "priorityFee": "3.1",
            "receiver": "0xd0764fae29e0a6a96ff685f71cfc685456d5636c",
            "revertMessage": "",
            "sender": "0x68d2cf84028e4828e37369d886cdc404ad76a821",
            "simulationEnable": true,
            "sourceTxnHash": "0xbd1f0ed9d32cefe700b0b48625c2dde7c64b8e044ed0731e7c252931d4e272f3",
            "status": true,
            "timestamp": "2023-08-11T05:05:23Z",
            "transactionFee": "0.005809454393772",
            "txnHash": "0xbd1f0ed9d32cefe700b0b48625c2dde7c64b8e044ed0731e7c252931d4e272f3",
            "txnIndex": 7,
            "type": 2,
            "value": "0"
        },
        "fund_flow": [
            {
                "amount": "0.716365427662949104",
                "from": "0x1715a3e4a142d8b698131108995174f37aeba10d",
                "id": 1,
                "isERC1155": false,
                "isERC721": false,
                "isReverted": false,
                "order": 1,
                "to": "0x8ac4ae65b3656e26dc4e0e69108b392283350f55",
                "token": "0xc02aaa39b223fe8d0a0e5c4f27ead9083c756cc2"
            },
            {
                "amount": "0.716365427662949104",
                "from": "0xc02aaa39b223fe8d0a0e5c4f27ead9083c756cc2",
                "id": 2,
                "isERC1155": false,
                "isERC721": false,
                "isReverted": false,
                "order": 2,
                "to": "0x8ac4ae65b3656e26dc4e0e69108b392283350f55",
                "token": "0xeeeeeeeeeeeeeeeeeeeeeeeeeeeeeeeeeeeeeeee"
            },
            {
                "amount": "0.716365427662949104",
                "from": "0x8ac4ae65b3656e26dc4e0e69108b392283350f55",
                "id": 3,
                "isERC1155": false,
                "isERC721": false,
                "isReverted": false,
                "order": 3,
                "to": "0xc02aaa39b223fe8d0a0e5c4f27ead9083c756cc2",
                "token": "0xc02aaa39b223fe8d0a0e5c4f27ead9083c756cc2"
            },
            {
                "amount": "0.716365427662949104",
                "from": "0x8ac4ae65b3656e26dc4e0e69108b392283350f55",
                "id": 4,
                "isERC1155": false,
                "isERC721": false,
                "isReverted": false,
                "order": 4,
                "to": "0x68d2cf84028e4828e37369d886cdc404ad76a821",
                "token": "0xeeeeeeeeeeeeeeeeeeeeeeeeeeeeeeeeeeeeeeee"
            }
        ],
        "token_infos": [
            {
                "address": "0xc02aaa39b223fe8d0a0e5c4f27ead9083c756cc2",
                "decimals": 18
            },
            {
                "address": "0xeeeeeeeeeeeeeeeeeeeeeeeeeeeeeeeeeeeeeeee",
                "decimals": 18
            }
        ]
    },
    "address_label": {
        "labels": [
            {
                "address": "0x2fa878ab3f87cc1c9737fc071108f904c0b0c95d",
                "label": "EternalStorageProxy"
            },
            {
                "address": "0x0000000000000000000000000000000000000001",
                "label": "Precompiled"
            },
            {
                "address": "0x0000000000000000000000000000000000000002",
                "label": "Precompiled"
            },
            {
                "address": "0xeeeeeeeeeeeeeeeeeeeeeeeeeeeeeeeeeeeeeeee",
                "label": "Ether"
            },
            {
                "address": "0xc02aaa39b223fe8d0a0e5c4f27ead9083c756cc2",
                "label": "Wrapped Ether (WETH)"
            },
            {
                "address": "0x95b303987a60c71504d99aa1b13b4da07b0790ab",
                "label": "BridgeValidators"
            },
            {
                "address": "0x8ac4ae65b3656e26dc4e0e69108b392283350f55",
                "label": "PulseChain: WETH Omnibridge Router"
            },
            {
                "address": "0x1715a3e4a142d8b698131108995174f37aeba10d",
                "label": "PulseChain: Omnibridge Proxy"
            },
            {
                "address": "0xd0764fae29e0a6a96ff685f71cfc685456d5636c",
                "label": "PulseChain: Foreign AMB Proxy"
            },
            {
                "address": "0xe98699957d3504acd57fff861e4b77b57eb02467",
                "label": "ForeignAMB"
            },
            {
                "address": "0x0000000000000000000000000000000000000003",
                "label": "Precompiled"
            },
            {
                "address": "0x0000000000000000000000000000000000000004",
                "label": "Precompiled"
            },
            {
                "address": "0xb7df1e00ae030e966e635ede273625240546b873",
                "label": "ForeignOmnibridge"
            }
        ]
    },
    "trace": {
        "accountLabels": null,
        "dataMap": {
            "-1": {
                "invocation": {
                    "address": "0x68d2cf84028e4828e37369d886cdc404ad76a821",
                    "callData": "",
                    "decodedMethod": null,
                    "errorInfo": "",
                    "fromAddress": "",
                    "gasUsed": 0,
                    "id": -1,
                    "methodDecoded": false,
                    "operation": "",
                    "output": "",
                    "revert": false,
                    "revertMessage": "",
                    "selector": "",
                    "status": false,
                    "value": ""
                },
                "nodeType": 0
            },
            "0": {
                "invocation": {
                    "address": "0xd0764fae29e0a6a96ff685f71cfc685456d5636c",
                    "callData": "0x00000000000000000000000000000000000000000000000000000000000000400000000000000000000000000000000000000000000000000000000000000180000000000000000000000000000000000000000000000000000000000000011600050000eb21bb7b72d1042c471c6a52c971da8152d66d7a00000000000103ea4fd0aaa7506f3d9cb8274bdb946ec42a1b8751ef1715a3e4a142d8b698131108995174f37aeba10d001e8480020100017101867f7a4d000000000000000000000000c02aaa39b223fe8d0a0e5c4f27ead9083c756cc20000000000000000000000008ac4ae65b3656e26dc4e0e69108b392283350f5500000000000000000000000000000000000000000000000009f10a8f9d388af00000000000000000000000000000000000000000000000000000000000000080000000000000000000000000000000000000000000000000000000000000001468d2cf84028e4828e37369d886cdc404ad76a821000000000000000000000000000000000000000000000000000000000000000000000000000000000000000000000000000000000187061c1b1c1b1c1b4fa4fc454b9d6eeb3cfb036f5a13f5dbebf35879547437be5a8e3038750729ff244a265bd8a568b2b40843269f327c0ba143e1fc430d85600c207da6dee307d11c098bb562412e22da2e26710d8f274c9ca83ecc1e494158290f263b063c4b4c346c81689930e18917258b63e9e1a7bd7bfaedcd0ca5b53aa460a8f7736bc652e46e2de8294eef1d49dd0415db2c4220f312a8954d45d5a91c9c1a17617e3f16b8d83dfa8ce061dc488f12401e47bb45c262269792036bf4741e7e7afd8c36782b1b2c2ff0511171611d92c4494c4490e3dc61b6adc7441a7cb0a7fab87f9ecf7eff4897e78a40aaa32aba70543e1ccd733699187e4bb73ec7be7381214e08931d0acfbdf22dc499090ab386f4a634fec21b1c7d5021dfdd091c3a13e2840a811fdbea3052b7c923c7be86d2ee15982673cb6027ae0cfbb8a37ff20c89ce5c67014b43d9d7d88ad4a9fbdcf03ab68ce5c26e7643993d2568b6af110f6a6335915d3e275a4d1ec93f6eac9b94d70c21c3c2acaf956d3662a320c69ca3e508b9ab00000000000000000000000000000000000000000000000000",
                    "decodedMethod": {
                        "callParams": [
                            {
                                "name": "_data",
                                "type": "bytes",
                                "value": "0x00050000eb21bb7b72d1042c471c6a52c971da8152d66d7a00000000000103ea4fd0aaa7506f3d9cb8274bdb946ec42a1b8751ef1715a3e4a142d8b698131108995174f37aeba10d001e8480020100017101867f7a4d000000000000000000000000c02aaa39b223fe8d0a0e5c4f27ead9083c756cc20000000000000000000000008ac4ae65b3656e26dc4e0e69108b392283350f5500000000000000000000000000000000000000000000000009f10a8f9d388af00000000000000000000000000000000000000000000000000000000000000080000000000000000000000000000000000000000000000000000000000000001468d2cf84028e4828e37369d886cdc404ad76a821000000000000000000000000"
                            },
                            {
                                "name": "_signatures",
                                "type": "bytes",
                                "value": "0x061c1b1c1b1c1b4fa4fc454b9d6eeb3cfb036f5a13f5dbebf35879547437be5a8e3038750729ff244a265bd8a568b2b40843269f327c0ba143e1fc430d85600c207da6dee307d11c098bb562412e22da2e26710d8f274c9ca83ecc1e494158290f263b063c4b4c346c81689930e18917258b63e9e1a7bd7bfaedcd0ca5b53aa460a8f7736bc652e46e2de8294eef1d49dd0415db2c4220f312a8954d45d5a91c9c1a17617e3f16b8d83dfa8ce061dc488f12401e47bb45c262269792036bf4741e7e7afd8c36782b1b2c2ff0511171611d92c4494c4490e3dc61b6adc7441a7cb0a7fab87f9ecf7eff4897e78a40aaa32aba70543e1ccd733699187e4bb73ec7be7381214e08931d0acfbdf22dc499090ab386f4a634fec21b1c7d5021dfdd091c3a13e2840a811fdbea3052b7c923c7be86d2ee15982673cb6027ae0cfbb8a37ff20c89ce5c67014b43d9d7d88ad4a9fbdcf03ab68ce5c26e7643993d2568b6af110f6a6335915d3e275a4d1ec93f6eac9b94d70c21c3c2acaf956d3662a320c69ca3e508b9ab"
                            }
                        ],
                        "constructorArguments": "",
                        "name": "safeExecuteSignaturesWithAutoGasLimit",
                        "returnParams": [],
                        "signature": "safeExecuteSignaturesWithAutoGasLimit(bytes,bytes)"
                    },
                    "errorInfo": "",
                    "fromAddress": "0x68d2cf84028e4828e37369d886cdc404ad76a821",
                    "gasUsed": 260265,
                    "id": 0,
                    "methodDecoded": true,
                    "operation": "CALL",
                    "output": "",
                    "revert": false,
                    "revertMessage": "",
                    "selector": "0x23caab49",
                    "status": true,
                    "value": "0"
                },
                "nodeType": 0
            },
            "1": {
                "invocation": {
                    "address": "0xe98699957d3504acd57fff861e4b77b57eb02467",
                    "callData": "0x00000000000000000000000000000000000000000000000000000000000000400000000000000000000000000000000000000000000000000000000000000180000000000000000000000000000000000000000000000000000000000000011600050000eb21bb7b72d1042c471c6a52c971da8152d66d7a00000000000103ea4fd0aaa7506f3d9cb8274bdb946ec42a1b8751ef1715a3e4a142d8b698131108995174f37aeba10d001e8480020100017101867f7a4d000000000000000000000000c02aaa39b223fe8d0a0e5c4f27ead9083c756cc20000000000000000000000008ac4ae65b3656e26dc4e0e69108b392283350f5500000000000000000000000000000000000000000000000009f10a8f9d388af00000000000000000000000000000000000000000000000000000000000000080000000000000000000000000000000000000000000000000000000000000001468d2cf84028e4828e37369d886cdc404ad76a821000000000000000000000000000000000000000000000000000000000000000000000000000000000000000000000000000000000187061c1b1c1b1c1b4fa4fc454b9d6eeb3cfb036f5a13f5dbebf35879547437be5a8e3038750729ff244a265bd8a568b2b40843269f327c0ba143e1fc430d85600c207da6dee307d11c098bb562412e22da2e26710d8f274c9ca83ecc1e494158290f263b063c4b4c346c81689930e18917258b63e9e1a7bd7bfaedcd0ca5b53aa460a8f7736bc652e46e2de8294eef1d49dd0415db2c4220f312a8954d45d5a91c9c1a17617e3f16b8d83dfa8ce061dc488f12401e47bb45c262269792036bf4741e7e7afd8c36782b1b2c2ff0511171611d92c4494c4490e3dc61b6adc7441a7cb0a7fab87f9ecf7eff4897e78a40aaa32aba70543e1ccd733699187e4bb73ec7be7381214e08931d0acfbdf22dc499090ab386f4a634fec21b1c7d5021dfdd091c3a13e2840a811fdbea3052b7c923c7be86d2ee15982673cb6027ae0cfbb8a37ff20c89ce5c67014b43d9d7d88ad4a9fbdcf03ab68ce5c26e7643993d2568b6af110f6a6335915d3e275a4d1ec93f6eac9b94d70c21c3c2acaf956d3662a320c69ca3e508b9ab00000000000000000000000000000000000000000000000000",
                    "decodedMethod": {
                        "callParams": [
                            {
                                "name": "_data",
                                "type": "bytes",
                                "value": "0x00050000eb21bb7b72d1042c471c6a52c971da8152d66d7a00000000000103ea4fd0aaa7506f3d9cb8274bdb946ec42a1b8751ef1715a3e4a142d8b698131108995174f37aeba10d001e8480020100017101867f7a4d000000000000000000000000c02aaa39b223fe8d0a0e5c4f27ead9083c756cc20000000000000000000000008ac4ae65b3656e26dc4e0e69108b392283350f5500000000000000000000000000000000000000000000000009f10a8f9d388af00000000000000000000000000000000000000000000000000000000000000080000000000000000000000000000000000000000000000000000000000000001468d2cf84028e4828e37369d886cdc404ad76a821000000000000000000000000"
                            },
                            {
                                "name": "_signatures",
                                "type": "bytes",
                                "value": "0x061c1b1c1b1c1b4fa4fc454b9d6eeb3cfb036f5a13f5dbebf35879547437be5a8e3038750729ff244a265bd8a568b2b40843269f327c0ba143e1fc430d85600c207da6dee307d11c098bb562412e22da2e26710d8f274c9ca83ecc1e494158290f263b063c4b4c346c81689930e18917258b63e9e1a7bd7bfaedcd0ca5b53aa460a8f7736bc652e46e2de8294eef1d49dd0415db2c4220f312a8954d45d5a91c9c1a17617e3f16b8d83dfa8ce061dc488f12401e47bb45c262269792036bf4741e7e7afd8c36782b1b2c2ff0511171611d92c4494c4490e3dc61b6adc7441a7cb0a7fab87f9ecf7eff4897e78a40aaa32aba70543e1ccd733699187e4bb73ec7be7381214e08931d0acfbdf22dc499090ab386f4a634fec21b1c7d5021dfdd091c3a13e2840a811fdbea3052b7c923c7be86d2ee15982673cb6027ae0cfbb8a37ff20c89ce5c67014b43d9d7d88ad4a9fbdcf03ab68ce5c26e7643993d2568b6af110f6a6335915d3e275a4d1ec93f6eac9b94d70c21c3c2acaf956d3662a320c69ca3e508b9ab"
                            }
                        ],
                        "constructorArguments": "",
                        "name": "safeExecuteSignaturesWithAutoGasLimit",
                        "returnParams": [],
                        "signature": "safeExecuteSignaturesWithAutoGasLimit(bytes,bytes)"
                    },
                    "errorInfo": "",
                    "fromAddress": "0xd0764fae29e0a6a96ff685f71cfc685456d5636c",
                    "gasUsed": 286491,
                    "id": 1,
                    "methodDecoded": true,
                    "operation": "DELEGATECALL",
                    "output": "",
                    "revert": false,
                    "revertMessage": "",
                    "selector": "0x23caab49",
                    "status": true,
                    "value": "0"
                },
                "nodeType": 0
            },
            "10": {
                "invocation": {
                    "address": "0x0000000000000000000000000000000000000001",
                    "callData": "0x01c2aed0cb7a555b0a68d43b1fcbd57f22642b60074142e1c9a6a22f000000000000000000000000000000000000000000000000000000000000001c1c098bb562412e22da2e26710d8f274c9ca83ecc1e494158290f263b063c4b4c1d0acfbdf22dc499090ab386f4a634fec21b1c7d5021dfdd091c3a13e2840a81",
                    "decodedMethod": {
                        "callParams": [
                            {
                                "name": "hash",
                                "type": "bytes32",
                                "value": "0x76e82cc501c2aed0cb7a555b0a68d43b1fcbd57f22642b60074142e1c9a6a22f"
                            },
                            {
                                "name": "v",
                                "type": "uint256",
                                "value": "28"
                            },
                            {
                                "name": "r",
                                "type": "bytes32",
                                "value": "0x1c098bb562412e22da2e26710d8f274c9ca83ecc1e494158290f263b063c4b4c"
                            },
                            {
                                "name": "s",
                                "type": "bytes32",
                                "value": "0x1d0acfbdf22dc499090ab386f4a634fec21b1c7d5021dfdd091c3a13e2840a81"
                            }
                        ],
                        "constructorArguments": "",
                        "name": "ecrecover",
                        "returnParams": [
                            {
                                "name": "",
                                "type": "address",
                                "value": "0xfb18da3bca8057eb05aab6e77a32925949093533"
                            }
                        ],
                        "signature": "ecrecover(bytes32,uint256,bytes32,bytes32)"
                    },
                    "errorInfo": "",
                    "fromAddress": "0xd0764fae29e0a6a96ff685f71cfc685456d5636c",
                    "gasUsed": 3000,
                    "id": 10,
                    "methodDecoded": true,
                    "operation": "CALL",
                    "output": "0x000000000000000000000000fb18da3bca8057eb05aab6e77a32925949093533",
                    "revert": false,
                    "revertMessage": "",
                    "selector": "0x76e82cc5",
                    "status": true,
                    "value": "0"
                },
                "nodeType": 0
            },
            "11": {
                "invocation": {
                    "address": "0x2fa878ab3f87cc1c9737fc071108f904c0b0c95d",
                    "callData": "0x000000000000000000000000fb18da3bca8057eb05aab6e77a32925949093533",
                    "decodedMethod": {
                        "callParams": [
                            {
                                "name": "_validator",
                                "type": "address",
                                "value": "0xfb18da3bca8057eb05aab6e77a32925949093533"
                            }
                        ],
                        "constructorArguments": "",
                        "name": "isValidator",
                        "returnParams": [
                            {
                                "name": "",
                                "type": "bool",
                                "value": true
                            }
                        ],
                        "signature": "isValidator(address)"
                    },
                    "errorInfo": "",
                    "fromAddress": "0xd0764fae29e0a6a96ff685f71cfc685456d5636c",
                    "gasUsed": 4427,
                    "id": 11,
                    "methodDecoded": true,
                    "operation": "CALL",
                    "output": "0x0000000000000000000000000000000000000000000000000000000000000001",
                    "revert": false,
                    "revertMessage": "",
                    "selector": "0xfacd743b",
                    "status": true,
                    "value": "0"
                },
                "nodeType": 0
            },
            "12": {
                "invocation": {
                    "address": "0x95b303987a60c71504d99aa1b13b4da07b0790ab",
                    "callData": "0x000000000000000000000000fb18da3bca8057eb05aab6e77a32925949093533",
                    "decodedMethod": {
                        "callParams": [
                            {
                                "name": "_validator",
                                "type": "address",
                                "value": "0xfb18da3bca8057eb05aab6e77a32925949093533"
                            }
                        ],
                        "constructorArguments": "",
                        "name": "isValidator",
                        "returnParams": [
                            {
                                "name": "",
                                "type": "bool",
                                "value": true
                            }
                        ],
                        "signature": "isValidator(address)"
                    },
                    "errorInfo": "",
                    "fromAddress": "0x2fa878ab3f87cc1c9737fc071108f904c0b0c95d",
                    "gasUsed": 3721,
                    "id": 12,
                    "methodDecoded": true,
                    "operation": "DELEGATECALL",
                    "output": "0x0000000000000000000000000000000000000000000000000000000000000001",
                    "revert": false,
                    "revertMessage": "",
                    "selector": "0xfacd743b",
                    "status": true,
                    "value": "0"
                },
                "nodeType": 0
            },
            "13": {
                "invocation": {
                    "address": "0x0000000000000000000000000000000000000001",
                    "callData": "0x01c2aed0cb7a555b0a68d43b1fcbd57f22642b60074142e1c9a6a22f000000000000000000000000000000000000000000000000000000000000001b346c81689930e18917258b63e9e1a7bd7bfaedcd0ca5b53aa460a8f7736bc6521fdbea3052b7c923c7be86d2ee15982673cb6027ae0cfbb8a37ff20c89ce5c67",
                    "decodedMethod": {
                        "callParams": [
                            {
                                "name": "hash",
                                "type": "bytes32",
                                "value": "0x76e82cc501c2aed0cb7a555b0a68d43b1fcbd57f22642b60074142e1c9a6a22f"
                            },
                            {
                                "name": "v",
                                "type": "uint256",
                                "value": "27"
                            },
                            {
                                "name": "r",
                                "type": "bytes32",
                                "value": "0x346c81689930e18917258b63e9e1a7bd7bfaedcd0ca5b53aa460a8f7736bc652"
                            },
                            {
                                "name": "s",
                                "type": "bytes32",
                                "value": "0x1fdbea3052b7c923c7be86d2ee15982673cb6027ae0cfbb8a37ff20c89ce5c67"
                            }
                        ],
                        "constructorArguments": "",
                        "name": "ecrecover",
                        "returnParams": [
                            {
                                "name": "",
                                "type": "address",
                                "value": "0xe3b95d0143956a8e643fa29a0795fc4162a41f69"
                            }
                        ],
                        "signature": "ecrecover(bytes32,uint256,bytes32,bytes32)"
                    },
                    "errorInfo": "",
                    "fromAddress": "0xd0764fae29e0a6a96ff685f71cfc685456d5636c",
                    "gasUsed": 3000,
                    "id": 13,
                    "methodDecoded": true,
                    "operation": "CALL",
                    "output": "0x000000000000000000000000e3b95d0143956a8e643fa29a0795fc4162a41f69",
                    "revert": false,
                    "revertMessage": "",
                    "selector": "0x76e82cc5",
                    "status": true,
                    "value": "0"
                },
                "nodeType": 0
            },
            "14": {
                "invocation": {
                    "address": "0x2fa878ab3f87cc1c9737fc071108f904c0b0c95d",
                    "callData": "0x000000000000000000000000e3b95d0143956a8e643fa29a0795fc4162a41f69",
                    "decodedMethod": {
                        "callParams": [
                            {
                                "name": "_validator",
                                "type": "address",
                                "value": "0xe3b95d0143956a8e643fa29a0795fc4162a41f69"
                            }
                        ],
                        "constructorArguments": "",
                        "name": "isValidator",
                        "returnParams": [
                            {
                                "name": "",
                                "type": "bool",
                                "value": true
                            }
                        ],
                        "signature": "isValidator(address)"
                    },
                    "errorInfo": "",
                    "fromAddress": "0xd0764fae29e0a6a96ff685f71cfc685456d5636c",
                    "gasUsed": 4427,
                    "id": 14,
                    "methodDecoded": true,
                    "operation": "CALL",
                    "output": "0x0000000000000000000000000000000000000000000000000000000000000001",
                    "revert": false,
                    "revertMessage": "",
                    "selector": "0xfacd743b",
                    "status": true,
                    "value": "0"
                },
                "nodeType": 0
            },
            "15": {
                "invocation": {
                    "address": "0x95b303987a60c71504d99aa1b13b4da07b0790ab",
                    "callData": "0x000000000000000000000000e3b95d0143956a8e643fa29a0795fc4162a41f69",
                    "decodedMethod": {
                        "callParams": [
                            {
                                "name": "_validator",
                                "type": "address",
                                "value": "0xe3b95d0143956a8e643fa29a0795fc4162a41f69"
                            }
                        ],
                        "constructorArguments": "",
                        "name": "isValidator",
                        "returnParams": [
                            {
                                "name": "",
                                "type": "bool",
                                "value": true
                            }
                        ],
                        "signature": "isValidator(address)"
                    },
                    "errorInfo": "",
                    "fromAddress": "0x2fa878ab3f87cc1c9737fc071108f904c0b0c95d",
                    "gasUsed": 3721,
                    "id": 15,
                    "methodDecoded": true,
                    "operation": "DELEGATECALL",
                    "output": "0x0000000000000000000000000000000000000000000000000000000000000001",
                    "revert": false,
                    "revertMessage": "",
                    "selector": "0xfacd743b",
                    "status": true,
                    "value": "0"
                },
                "nodeType": 0
            },
            "16": {
                "invocation": {
                    "address": "0x0000000000000000000000000000000000000001",
                    "callData": "0x01c2aed0cb7a555b0a68d43b1fcbd57f22642b60074142e1c9a6a22f000000000000000000000000000000000000000000000000000000000000001ce46e2de8294eef1d49dd0415db2c4220f312a8954d45d5a91c9c1a17617e3f16014b43d9d7d88ad4a9fbdcf03ab68ce5c26e7643993d2568b6af110f6a633591",
                    "decodedMethod": {
                        "callParams": [
                            {
                                "name": "hash",
                                "type": "bytes32",
                                "value": "0x76e82cc501c2aed0cb7a555b0a68d43b1fcbd57f22642b60074142e1c9a6a22f"
                            },
                            {
                                "name": "v",
                                "type": "uint256",
                                "value": "28"
                            },
                            {
                                "name": "r",
                                "type": "bytes32",
                                "value": "0xe46e2de8294eef1d49dd0415db2c4220f312a8954d45d5a91c9c1a17617e3f16"
                            },
                            {
                                "name": "s",
                                "type": "bytes32",
                                "value": "0x014b43d9d7d88ad4a9fbdcf03ab68ce5c26e7643993d2568b6af110f6a633591"
                            }
                        ],
                        "constructorArguments": "",
                        "name": "ecrecover",
                        "returnParams": [
                            {
                                "name": "",
                                "type": "address",
                                "value": "0xd4aa3dfe78d2b77c5a5618b9e85d1141f2b48fbd"
                            }
                        ],
                        "signature": "ecrecover(bytes32,uint256,bytes32,bytes32)"
                    },
                    "errorInfo": "",
                    "fromAddress": "0xd0764fae29e0a6a96ff685f71cfc685456d5636c",
                    "gasUsed": 3000,
                    "id": 16,
                    "methodDecoded": true,
                    "operation": "CALL",
                    "output": "0x000000000000000000000000d4aa3dfe78d2b77c5a5618b9e85d1141f2b48fbd",
                    "revert": false,
                    "revertMessage": "",
                    "selector": "0x76e82cc5",
                    "status": true,
                    "value": "0"
                },
                "nodeType": 0
            },
            "17": {
                "invocation": {
                    "address": "0x2fa878ab3f87cc1c9737fc071108f904c0b0c95d",
                    "callData": "0x000000000000000000000000d4aa3dfe78d2b77c5a5618b9e85d1141f2b48fbd",
                    "decodedMethod": {
                        "callParams": [
                            {
                                "name": "_validator",
                                "type": "address",
                                "value": "0xd4aa3dfe78d2b77c5a5618b9e85d1141f2b48fbd"
                            }
                        ],
                        "constructorArguments": "",
                        "name": "isValidator",
                        "returnParams": [
                            {
                                "name": "",
                                "type": "bool",
                                "value": true
                            }
                        ],
                        "signature": "isValidator(address)"
                    },
                    "errorInfo": "",
                    "fromAddress": "0xd0764fae29e0a6a96ff685f71cfc685456d5636c",
                    "gasUsed": 4427,
                    "id": 17,
                    "methodDecoded": true,
                    "operation": "CALL",
                    "output": "0x0000000000000000000000000000000000000000000000000000000000000001",
                    "revert": false,
                    "revertMessage": "",
                    "selector": "0xfacd743b",
                    "status": true,
                    "value": "0"
                },
                "nodeType": 0
            },
            "18": {
                "invocation": {
                    "address": "0x95b303987a60c71504d99aa1b13b4da07b0790ab",
                    "callData": "0x000000000000000000000000d4aa3dfe78d2b77c5a5618b9e85d1141f2b48fbd",
                    "decodedMethod": {
                        "callParams": [
                            {
                                "name": "_validator",
                                "type": "address",
                                "value": "0xd4aa3dfe78d2b77c5a5618b9e85d1141f2b48fbd"
                            }
                        ],
                        "constructorArguments": "",
                        "name": "isValidator",
                        "returnParams": [
                            {
                                "name": "",
                                "type": "bool",
                                "value": true
                            }
                        ],
                        "signature": "isValidator(address)"
                    },
                    "errorInfo": "",
                    "fromAddress": "0x2fa878ab3f87cc1c9737fc071108f904c0b0c95d",
                    "gasUsed": 3721,
                    "id": 18,
                    "methodDecoded": true,
                    "operation": "DELEGATECALL",
                    "output": "0x0000000000000000000000000000000000000000000000000000000000000001",
                    "revert": false,
                    "revertMessage": "",
                    "selector": "0xfacd743b",
                    "status": true,
                    "value": "0"
                },
                "nodeType": 0
            },
            "19": {
                "invocation": {
                    "address": "0x0000000000000000000000000000000000000001",
                    "callData": "0x01c2aed0cb7a555b0a68d43b1fcbd57f22642b60074142e1c9a6a22f000000000000000000000000000000000000000000000000000000000000001bb8d83dfa8ce061dc488f12401e47bb45c262269792036bf4741e7e7afd8c36785d3e275a4d1ec93f6eac9b94d70c21c3c2acaf956d3662a320c69ca3e508b9ab",
                    "decodedMethod": {
                        "callParams": [
                            {
                                "name": "hash",
                                "type": "bytes32",
                                "value": "0x76e82cc501c2aed0cb7a555b0a68d43b1fcbd57f22642b60074142e1c9a6a22f"
                            },
                            {
                                "name": "v",
                                "type": "uint256",
                                "value": "27"
                            },
                            {
                                "name": "r",
                                "type": "bytes32",
                                "value": "0xb8d83dfa8ce061dc488f12401e47bb45c262269792036bf4741e7e7afd8c3678"
                            },
                            {
                                "name": "s",
                                "type": "bytes32",
                                "value": "0x5d3e275a4d1ec93f6eac9b94d70c21c3c2acaf956d3662a320c69ca3e508b9ab"
                            }
                        ],
                        "constructorArguments": "",
                        "name": "ecrecover",
                        "returnParams": [
                            {
                                "name": "",
                                "type": "address",
                                "value": "0x1dad947dd181faa6c751ec14e2683e0a8fe2bf8c"
                            }
                        ],
                        "signature": "ecrecover(bytes32,uint256,bytes32,bytes32)"
                    },
                    "errorInfo": "",
                    "fromAddress": "0xd0764fae29e0a6a96ff685f71cfc685456d5636c",
                    "gasUsed": 3000,
                    "id": 19,
                    "methodDecoded": true,
                    "operation": "CALL",
                    "output": "0x0000000000000000000000001dad947dd181faa6c751ec14e2683e0a8fe2bf8c",
                    "revert": false,
                    "revertMessage": "",
                    "selector": "0x76e82cc5",
                    "status": true,
                    "value": "0"
                },
                "nodeType": 0
            },
            "2": {
                "invocation": {
                    "address": "0x2fa878ab3f87cc1c9737fc071108f904c0b0c95d",
                    "callData": "0x",
                    "decodedMethod": {
                        "callParams": [],
                        "constructorArguments": "",
                        "name": "requiredSignatures",
                        "returnParams": [
                            {
                                "name": "",
                                "type": "uint256",
                                "value": "6"
                            }
                        ],
                        "signature": "requiredSignatures()"
                    },
                    "errorInfo": "",
                    "fromAddress": "0xd0764fae29e0a6a96ff685f71cfc685456d5636c",
                    "gasUsed": 7681,
                    "id": 2,
                    "methodDecoded": true,
                    "operation": "CALL",
                    "output": "0x0000000000000000000000000000000000000000000000000000000000000006",
                    "revert": false,
                    "revertMessage": "",
                    "selector": "0x8d068043",
                    "status": true,
                    "value": "0"
                },
                "nodeType": 0
            },
            "20": {
                "invocation": {
                    "address": "0x2fa878ab3f87cc1c9737fc071108f904c0b0c95d",
                    "callData": "0x0000000000000000000000001dad947dd181faa6c751ec14e2683e0a8fe2bf8c",
                    "decodedMethod": {
                        "callParams": [
                            {
                                "name": "_validator",
                                "type": "address",
                                "value": "0x1dad947dd181faa6c751ec14e2683e0a8fe2bf8c"
                            }
                        ],
                        "constructorArguments": "",
                        "name": "isValidator",
                        "returnParams": [
                            {
                                "name": "",
                                "type": "bool",
                                "value": true
                            }
                        ],
                        "signature": "isValidator(address)"
                    },
                    "errorInfo": "",
                    "fromAddress": "0xd0764fae29e0a6a96ff685f71cfc685456d5636c",
                    "gasUsed": 4427,
                    "id": 20,
                    "methodDecoded": true,
                    "operation": "CALL",
                    "output": "0x0000000000000000000000000000000000000000000000000000000000000001",
                    "revert": false,
                    "revertMessage": "",
                    "selector": "0xfacd743b",
                    "status": true,
                    "value": "0"
                },
                "nodeType": 0
            },
            "21": {
                "invocation": {
                    "address": "0x95b303987a60c71504d99aa1b13b4da07b0790ab",
                    "callData": "0x0000000000000000000000001dad947dd181faa6c751ec14e2683e0a8fe2bf8c",
                    "decodedMethod": {
                        "callParams": [
                            {
                                "name": "_validator",
                                "type": "address",
                                "value": "0x1dad947dd181faa6c751ec14e2683e0a8fe2bf8c"
                            }
                        ],
                        "constructorArguments": "",
                        "name": "isValidator",
                        "returnParams": [
                            {
                                "name": "",
                                "type": "bool",
                                "value": true
                            }
                        ],
                        "signature": "isValidator(address)"
                    },
                    "errorInfo": "",
                    "fromAddress": "0x2fa878ab3f87cc1c9737fc071108f904c0b0c95d",
                    "gasUsed": 3721,
                    "id": 21,
                    "methodDecoded": true,
                    "operation": "DELEGATECALL",
                    "output": "0x0000000000000000000000000000000000000000000000000000000000000001",
                    "revert": false,
                    "revertMessage": "",
                    "selector": "0xfacd743b",
                    "status": true,
                    "value": "0"
                },
                "nodeType": 0
            },
            "22": {
                "invocation": {
                    "address": "0x1715a3e4a142d8b698131108995174f37aeba10d",
                    "callData": "0x000000000000000000000000c02aaa39b223fe8d0a0e5c4f27ead9083c756cc20000000000000000000000008ac4ae65b3656e26dc4e0e69108b392283350f5500000000000000000000000000000000000000000000000009f10a8f9d388af00000000000000000000000000000000000000000000000000000000000000080000000000000000000000000000000000000000000000000000000000000001468d2cf84028e4828e37369d886cdc404ad76a82100000000000000000000000000000000000000000000000000000000000000000000000000000000",
                    "decodedMethod": {
                        "callParams": [
                            {
                                "name": "_token",
                                "type": "address",
                                "value": "0xc02aaa39b223fe8d0a0e5c4f27ead9083c756cc2"
                            },
                            {
                                "name": "_recipient",
                                "type": "address",
                                "value": "0x8ac4ae65b3656e26dc4e0e69108b392283350f55"
                            },
                            {
                                "name": "_value",
                                "type": "uint256",
                                "value": "716,365,427,662,949,104"
                            },
                            {
                                "name": "_data",
                                "type": "bytes",
                                "value": "0x68d2cf84028e4828e37369d886cdc404ad76a821"
                            }
                        ],
                        "constructorArguments": "",
                        "name": "handleNativeTokensAndCall",
                        "returnParams": [],
                        "signature": "handleNativeTokensAndCall(address,address,uint256,bytes)"
                    },
                    "errorInfo": "",
                    "fromAddress": "0xd0764fae29e0a6a96ff685f71cfc685456d5636c",
                    "gasUsed": 81442,
                    "id": 22,
                    "methodDecoded": true,
                    "operation": "CALL",
                    "output": "",
                    "revert": false,
                    "revertMessage": "",
                    "selector": "0x867f7a4d",
                    "status": true,
                    "value": "0"
                },
                "nodeType": 0
            },
            "23": {
                "invocation": {
                    "address": "0xb7df1e00ae030e966e635ede273625240546b873",
                    "callData": "0x000000000000000000000000c02aaa39b223fe8d0a0e5c4f27ead9083c756cc20000000000000000000000008ac4ae65b3656e26dc4e0e69108b392283350f5500000000000000000000000000000000000000000000000009f10a8f9d388af00000000000000000000000000000000000000000000000000000000000000080000000000000000000000000000000000000000000000000000000000000001468d2cf84028e4828e37369d886cdc404ad76a82100000000000000000000000000000000000000000000000000000000000000000000000000000000",
                    "decodedMethod": {
                        "callParams": [
                            {
                                "name": "_token",
                                "type": "address",
                                "value": "0xc02aaa39b223fe8d0a0e5c4f27ead9083c756cc2"
                            },
                            {
                                "name": "_recipient",
                                "type": "address",
                                "value": "0x8ac4ae65b3656e26dc4e0e69108b392283350f55"
                            },
                            {
                                "name": "_value",
                                "type": "uint256",
                                "value": "716,365,427,662,949,104"
                            },
                            {
                                "name": "_data",
                                "type": "bytes",
                                "value": "0x68d2cf84028e4828e37369d886cdc404ad76a821"
                            }
                        ],
                        "constructorArguments": "",
                        "name": "handleNativeTokensAndCall",
                        "returnParams": [],
                        "signature": "handleNativeTokensAndCall(address,address,uint256,bytes)"
                    },
                    "errorInfo": "",
                    "fromAddress": "0x1715a3e4a142d8b698131108995174f37aeba10d",
                    "gasUsed": 76302,
                    "id": 23,
                    "methodDecoded": true,
                    "operation": "DELEGATECALL",
                    "output": "",
                    "revert": false,
                    "revertMessage": "",
                    "selector": "0x867f7a4d",
                    "status": true,
                    "value": "0"
                },
                "nodeType": 0
            },
            "24": {
                "invocation": {
                    "address": "0xd0764fae29e0a6a96ff685f71cfc685456d5636c",
                    "callData": "0x",
                    "decodedMethod": {
                        "callParams": [],
                        "constructorArguments": "",
                        "name": "messageSender",
                        "returnParams": [
                            {
                                "name": "sender",
                                "type": "address",
                                "value": "0x4fd0aaa7506f3d9cb8274bdb946ec42a1b8751ef"
                            }
                        ],
                        "signature": "messageSender()"
                    },
                    "errorInfo": "",
                    "fromAddress": "0x1715a3e4a142d8b698131108995174f37aeba10d",
                    "gasUsed": 1719,
                    "id": 24,
                    "methodDecoded": true,
                    "operation": "STATICCALL",
                    "output": "0x0000000000000000000000004fd0aaa7506f3d9cb8274bdb946ec42a1b8751ef",
                    "revert": false,
                    "revertMessage": "",
                    "selector": "0xd67bdd25",
                    "status": true,
                    "value": "0"
                },
                "nodeType": 0
            },
            "25": {
                "invocation": {
                    "address": "0xe98699957d3504acd57fff861e4b77b57eb02467",
                    "callData": "0x",
                    "decodedMethod": {
                        "callParams": [],
                        "constructorArguments": "",
                        "name": "messageSender",
                        "returnParams": [
                            {
                                "name": "sender",
                                "type": "address",
                                "value": "0x4fd0aaa7506f3d9cb8274bdb946ec42a1b8751ef"
                            }
                        ],
                        "signature": "messageSender()"
                    },
                    "errorInfo": "",
                    "fromAddress": "0xd0764fae29e0a6a96ff685f71cfc685456d5636c",
                    "gasUsed": 1019,
                    "id": 25,
                    "methodDecoded": true,
                    "operation": "DELEGATECALL",
                    "output": "0x0000000000000000000000004fd0aaa7506f3d9cb8274bdb946ec42a1b8751ef",
                    "revert": false,
                    "revertMessage": "",
                    "selector": "0xd67bdd25",
                    "status": true,
                    "value": "0"
                },
                "nodeType": 0
            },
            "26": {
                "invocation": {
                    "address": "0xc02aaa39b223fe8d0a0e5c4f27ead9083c756cc2",
                    "callData": "0x0000000000000000000000008ac4ae65b3656e26dc4e0e69108b392283350f5500000000000000000000000000000000000000000000000009f10a8f9d388af0",
                    "decodedMethod": {
                        "callParams": [
                            {
                                "name": "dst",
                                "type": "address",
                                "value": "0x8ac4ae65b3656e26dc4e0e69108b392283350f55"
                            },
                            {
                                "decimalAvailable": true,
                                "name": "wad",
                                "type": "uint256",
                                "value": "716,365,427,662,949,104"
                            }
                        ],
                        "constructorArguments": "",
                        "name": "transfer",
                        "returnParams": [
                            {
                                "name": "",
                                "type": "bool",
                                "value": true
                            }
                        ],
                        "signature": "transfer(address,uint256)"
                    },
                    "errorInfo": "",
                    "fromAddress": "0x1715a3e4a142d8b698131108995174f37aeba10d",
                    "gasUsed": 12862,
                    "id": 26,
                    "methodDecoded": true,
                    "operation": "CALL",
                    "output": "0x0000000000000000000000000000000000000000000000000000000000000001",
                    "revert": false,
                    "revertMessage": "",
                    "selector": "0xa9059cbb",
                    "status": true,
                    "value": "0"
                },
                "nodeType": 0
            },
            "27": {
                "event": {
                    "contract": "0xc02aaa39b223fe8d0a0e5c4f27ead9083c756cc2",
                    "decodedLog": {
                        "name": "Transfer",
                        "params": [
                            {
                                "name": "src",
                                "type": "address",
                                "value": "0x1715a3e4a142d8b698131108995174f37aeba10d"
                            },
                            {
                                "name": "dst",
                                "type": "address",
                                "value": "0x8ac4ae65b3656e26dc4e0e69108b392283350f55"
                            },
                            {
                                "decimalAvailable": true,
                                "name": "wad",
                                "type": "uint256",
                                "value": "716,365,427,662,949,104"
                            }
                        ],
                        "signature": "Transfer(address,address,uint256)"
                    },
                    "id": 27,
                    "logData": "0x00000000000000000000000000000000000000000000000009f10a8f9d388af0",
                    "logDecoded": true,
                    "operation": "EVENT",
                    "revert": false,
                    "status": true,
                    "topics": [
                        "0xddf252ad1be2c89b69c2b068fc378daa952ba7f163c4a11628f55a4df523b3ef",
                        "0x0000000000000000000000001715a3e4a142d8b698131108995174f37aeba10d",
                        "0x0000000000000000000000008ac4ae65b3656e26dc4e0e69108b392283350f55"
                    ]
                },
                "nodeType": 1
            },
            "28": {
                "invocation": {
                    "address": "0xd0764fae29e0a6a96ff685f71cfc685456d5636c",
                    "callData": "0x",
                    "decodedMethod": {
                        "callParams": [],
                        "constructorArguments": "",
                        "name": "messageId",
                        "returnParams": [
                            {
                                "name": "id",
                                "type": "bytes32",
                                "value": "0x00050000eb21bb7b72d1042c471c6a52c971da8152d66d7a00000000000103ea"
                            }
                        ],
                        "signature": "messageId()"
                    },
                    "errorInfo": "",
                    "fromAddress": "0x1715a3e4a142d8b698131108995174f37aeba10d",
                    "gasUsed": 1333,
                    "id": 28,
                    "methodDecoded": true,
                    "operation": "STATICCALL",
                    "output": "0x00050000eb21bb7b72d1042c471c6a52c971da8152d66d7a00000000000103ea",
                    "revert": false,
                    "revertMessage": "",
                    "selector": "0x669f618b",
                    "status": true,
                    "value": "0"
                },
                "nodeType": 0
            },
            "29": {
                "invocation": {
                    "address": "0xe98699957d3504acd57fff861e4b77b57eb02467",
                    "callData": "0x",
                    "decodedMethod": {
                        "callParams": [],
                        "constructorArguments": "",
                        "name": "messageId",
                        "returnParams": [
                            {
                                "name": "id",
                                "type": "bytes32",
                                "value": "0x00050000eb21bb7b72d1042c471c6a52c971da8152d66d7a00000000000103ea"
                            }
                        ],
                        "signature": "messageId()"
                    },
                    "errorInfo": "",
                    "fromAddress": "0xd0764fae29e0a6a96ff685f71cfc685456d5636c",
                    "gasUsed": 633,
                    "id": 29,
                    "methodDecoded": true,
                    "operation": "DELEGATECALL",
                    "output": "0x00050000eb21bb7b72d1042c471c6a52c971da8152d66d7a00000000000103ea",
                    "revert": false,
                    "revertMessage": "",
                    "selector": "0x669f618b",
                    "status": true,
                    "value": "0"
                },
                "nodeType": 0
            },
            "3": {
                "invocation": {
                    "address": "0x95b303987a60c71504d99aa1b13b4da07b0790ab",
                    "callData": "0x",
                    "decodedMethod": {
                        "callParams": [],
                        "constructorArguments": "",
                        "name": "requiredSignatures",
                        "returnParams": [
                            {
                                "name": "",
                                "type": "uint256",
                                "value": "6"
                            }
                        ],
                        "signature": "requiredSignatures()"
                    },
                    "errorInfo": "",
                    "fromAddress": "0x2fa878ab3f87cc1c9737fc071108f904c0b0c95d",
                    "gasUsed": 2481,
                    "id": 3,
                    "methodDecoded": true,
                    "operation": "DELEGATECALL",
                    "output": "0x0000000000000000000000000000000000000000000000000000000000000006",
                    "revert": false,
                    "revertMessage": "",
                    "selector": "0x8d068043",
                    "status": true,
                    "value": "0"
                },
                "nodeType": 0
            },
            "30": {
                "event": {
                    "contract": "0x1715a3e4a142d8b698131108995174f37aeba10d",
                    "decodedLog": {
                        "name": "TokensBridged",
                        "params": [
                            {
                                "name": "token",
                                "type": "address",
                                "value": "0xc02aaa39b223fe8d0a0e5c4f27ead9083c756cc2"
                            },
                            {
                                "name": "recipient",
                                "type": "address",
                                "value": "0x8ac4ae65b3656e26dc4e0e69108b392283350f55"
                            },
                            {
                                "name": "messageId",
                                "type": "bytes32",
                                "value": "0x00050000eb21bb7b72d1042c471c6a52c971da8152d66d7a00000000000103ea"
                            },
                            {
                                "name": "value",
                                "type": "uint256",
                                "value": "716,365,427,662,949,104"
                            }
                        ],
                        "signature": "TokensBridged(address,address,uint256,bytes32)"
                    },
                    "id": 30,
                    "logData": "0x00000000000000000000000000000000000000000000000009f10a8f9d388af0",
                    "logDecoded": true,
                    "operation": "EVENT",
                    "revert": false,
                    "status": true,
                    "topics": [
                        "0x9afd47907e25028cdaca89d193518c302bbb128617d5a992c5abd45815526593",
                        "0x000000000000000000000000c02aaa39b223fe8d0a0e5c4f27ead9083c756cc2",
                        "0x0000000000000000000000008ac4ae65b3656e26dc4e0e69108b392283350f55",
                        "0x00050000eb21bb7b72d1042c471c6a52c971da8152d66d7a00000000000103ea"
                    ]
                },
                "nodeType": 1
            },
            "31": {
                "invocation": {
                    "address": "0x8ac4ae65b3656e26dc4e0e69108b392283350f55",
                    "callData": "0x000000000000000000000000c02aaa39b223fe8d0a0e5c4f27ead9083c756cc200000000000000000000000000000000000000000000000009f10a8f9d388af00000000000000000000000000000000000000000000000000000000000000060000000000000000000000000000000000000000000000000000000000000001468d2cf84028e4828e37369d886cdc404ad76a821000000000000000000000000",
                    "decodedMethod": {
                        "callParams": [
                            {
                                "name": "_token",
                                "type": "address",
                                "value": "0xc02aaa39b223fe8d0a0e5c4f27ead9083c756cc2"
                            },
                            {
                                "name": "_value",
                                "type": "uint256",
                                "value": "716,365,427,662,949,104"
                            },
                            {
                                "name": "_data",
                                "type": "bytes",
                                "value": "0x68d2cf84028e4828e37369d886cdc404ad76a821"
                            }
                        ],
                        "constructorArguments": "",
                        "name": "onTokenBridged",
                        "returnParams": [],
                        "signature": "onTokenBridged(address,uint256,bytes)"
                    },
                    "errorInfo": "",
                    "fromAddress": "0x1715a3e4a142d8b698131108995174f37aeba10d",
                    "gasUsed": 17269,
                    "id": 31,
                    "methodDecoded": true,
                    "operation": "CALL",
                    "output": "",
                    "revert": false,
                    "revertMessage": "",
                    "selector": "0xdb7af854",
                    "status": true,
                    "value": "0"
                },
                "nodeType": 0
            },
            "32": {
                "invocation": {
                    "address": "0xc02aaa39b223fe8d0a0e5c4f27ead9083c756cc2",
                    "callData": "0x00000000000000000000000000000000000000000000000009f10a8f9d388af0",
                    "decodedMethod": {
                        "callParams": [
                            {
                                "name": "wad",
                                "type": "uint256",
                                "value": "716,365,427,662,949,104"
                            }
                        ],
                        "constructorArguments": "",
                        "name": "withdraw",
                        "returnParams": [],
                        "signature": "withdraw(uint256)"
                    },
                    "errorInfo": "",
                    "fromAddress": "0x8ac4ae65b3656e26dc4e0e69108b392283350f55",
                    "gasUsed": 9235,
                    "id": 32,
                    "methodDecoded": true,
                    "operation": "CALL",
                    "output": "",
                    "revert": false,
                    "revertMessage": "",
                    "selector": "0x2e1a7d4d",
                    "status": true,
                    "value": "0"
                },
                "nodeType": 0
            },
            "33": {
                "invocation": {
                    "address": "0x8ac4ae65b3656e26dc4e0e69108b392283350f55",
                    "callData": "0x",
                    "decodedMethod": null,
                    "errorInfo": "",
                    "fromAddress": "0xc02aaa39b223fe8d0a0e5c4f27ead9083c756cc2",
                    "gasUsed": 95,
                    "id": 33,
                    "methodDecoded": false,
                    "operation": "CALL",
                    "output": "",
                    "revert": false,
                    "revertMessage": "",
                    "selector": "fallback",
                    "status": true,
                    "value": "0.716365427662949104"
                },
                "nodeType": 0
            },
            "34": {
                "event": {
                    "contract": "0xc02aaa39b223fe8d0a0e5c4f27ead9083c756cc2",
                    "decodedLog": {
                        "name": "Withdrawal",
                        "params": [
                            {
                                "name": "src",
                                "type": "address",
                                "value": "0x8ac4ae65b3656e26dc4e0e69108b392283350f55"
                            },
                            {
                                "name": "wad",
                                "type": "uint256",
                                "value": "716,365,427,662,949,104"
                            }
                        ],
                        "signature": "Withdrawal(address,uint256)"
                    },
                    "id": 34,
                    "logData": "0x00000000000000000000000000000000000000000000000009f10a8f9d388af0",
                    "logDecoded": true,
                    "operation": "EVENT",
                    "revert": false,
                    "status": true,
                    "topics": [
                        "0x7fcf532c15f0a6db0bd6d0e038bea71d30d808c7d98cb3bf7268a95bf5081b65",
                        "0x0000000000000000000000008ac4ae65b3656e26dc4e0e69108b392283350f55"
                    ]
                },
                "nodeType": 1
            },
            "35": {
                "invocation": {
                    "address": "0x68d2cf84028e4828e37369d886cdc404ad76a821",
                    "callData": "0x",
                    "decodedMethod": null,
                    "errorInfo": "",
                    "fromAddress": "0x8ac4ae65b3656e26dc4e0e69108b392283350f55",
                    "gasUsed": 0,
                    "id": 35,
                    "methodDecoded": false,
                    "operation": "CALL",
                    "output": "",
                    "revert": false,
                    "revertMessage": "",
                    "selector": "fallback",
                    "status": true,
                    "value": "0.716365427662949104"
                },
                "nodeType": 0
            },
            "36": {
                "event": {
                    "contract": "0xd0764fae29e0a6a96ff685f71cfc685456d5636c",
                    "decodedLog": {
                        "name": "RelayedMessage",
                        "params": [
                            {
                                "name": "sender",
                                "type": "address",
                                "value": "0x4fd0aaa7506f3d9cb8274bdb946ec42a1b8751ef"
                            },
                            {
                                "name": "executor",
                                "type": "address",
                                "value": "0x1715a3e4a142d8b698131108995174f37aeba10d"
                            },
                            {
                                "name": "messageId",
                                "type": "bytes32",
                                "value": "0x00050000eb21bb7b72d1042c471c6a52c971da8152d66d7a00000000000103ea"
                            },
                            {
                                "name": "status",
                                "type": "bool",
                                "value": true
                            }
                        ],
                        "signature": "RelayedMessage(address,address,bytes32,bool)"
                    },
                    "id": 36,
                    "logData": "0x0000000000000000000000000000000000000000000000000000000000000001",
                    "logDecoded": true,
                    "operation": "EVENT",
                    "revert": false,
                    "status": true,
                    "topics": [
                        "0x27333edb8bdcd40a0ae944fb121b5e2d62ea782683946654a0f5e607a908d578",
                        "0x0000000000000000000000004fd0aaa7506f3d9cb8274bdb946ec42a1b8751ef",
                        "0x0000000000000000000000001715a3e4a142d8b698131108995174f37aeba10d",
                        "0x00050000eb21bb7b72d1042c471c6a52c971da8152d66d7a00000000000103ea"
                    ]
                },
                "nodeType": 1
            },
            "4": {
                "invocation": {
                    "address": "0x0000000000000000000000000000000000000001",
                    "callData": "0x01c2aed0cb7a555b0a68d43b1fcbd57f22642b60074142e1c9a6a22f000000000000000000000000000000000000000000000000000000000000001c4fa4fc454b9d6eeb3cfb036f5a13f5dbebf35879547437be5a8e3038750729ff2b1b2c2ff0511171611d92c4494c4490e3dc61b6adc7441a7cb0a7fab87f9ecf",
                    "decodedMethod": {
                        "callParams": [
                            {
                                "name": "hash",
                                "type": "bytes32",
                                "value": "0x76e82cc501c2aed0cb7a555b0a68d43b1fcbd57f22642b60074142e1c9a6a22f"
                            },
                            {
                                "name": "v",
                                "type": "uint256",
                                "value": "28"
                            },
                            {
                                "name": "r",
                                "type": "bytes32",
                                "value": "0x4fa4fc454b9d6eeb3cfb036f5a13f5dbebf35879547437be5a8e3038750729ff"
                            },
                            {
                                "name": "s",
                                "type": "bytes32",
                                "value": "0x2b1b2c2ff0511171611d92c4494c4490e3dc61b6adc7441a7cb0a7fab87f9ecf"
                            }
                        ],
                        "constructorArguments": "",
                        "name": "ecrecover",
                        "returnParams": [
                            {
                                "name": "",
                                "type": "address",
                                "value": "0x788425510bf225b75580804e2441339e17e1a6a5"
                            }
                        ],
                        "signature": "ecrecover(bytes32,uint256,bytes32,bytes32)"
                    },
                    "errorInfo": "",
                    "fromAddress": "0xd0764fae29e0a6a96ff685f71cfc685456d5636c",
                    "gasUsed": 3000,
                    "id": 4,
                    "methodDecoded": true,
                    "operation": "CALL",
                    "output": "0x000000000000000000000000788425510bf225b75580804e2441339e17e1a6a5",
                    "revert": false,
                    "revertMessage": "",
                    "selector": "0x76e82cc5",
                    "status": true,
                    "value": "0"
                },
                "nodeType": 0
            },
            "5": {
                "invocation": {
                    "address": "0x2fa878ab3f87cc1c9737fc071108f904c0b0c95d",
                    "callData": "0x000000000000000000000000788425510bf225b75580804e2441339e17e1a6a5",
                    "decodedMethod": {
                        "callParams": [
                            {
                                "name": "_validator",
                                "type": "address",
                                "value": "0x788425510bf225b75580804e2441339e17e1a6a5"
                            }
                        ],
                        "constructorArguments": "",
                        "name": "isValidator",
                        "returnParams": [
                            {
                                "name": "",
                                "type": "bool",
                                "value": true
                            }
                        ],
                        "signature": "isValidator(address)"
                    },
                    "errorInfo": "",
                    "fromAddress": "0xd0764fae29e0a6a96ff685f71cfc685456d5636c",
                    "gasUsed": 4427,
                    "id": 5,
                    "methodDecoded": true,
                    "operation": "CALL",
                    "output": "0x0000000000000000000000000000000000000000000000000000000000000001",
                    "revert": false,
                    "revertMessage": "",
                    "selector": "0xfacd743b",
                    "status": true,
                    "value": "0"
                },
                "nodeType": 0
            },
            "6": {
                "invocation": {
                    "address": "0x95b303987a60c71504d99aa1b13b4da07b0790ab",
                    "callData": "0x000000000000000000000000788425510bf225b75580804e2441339e17e1a6a5",
                    "decodedMethod": {
                        "callParams": [
                            {
                                "name": "_validator",
                                "type": "address",
                                "value": "0x788425510bf225b75580804e2441339e17e1a6a5"
                            }
                        ],
                        "constructorArguments": "",
                        "name": "isValidator",
                        "returnParams": [
                            {
                                "name": "",
                                "type": "bool",
                                "value": true
                            }
                        ],
                        "signature": "isValidator(address)"
                    },
                    "errorInfo": "",
                    "fromAddress": "0x2fa878ab3f87cc1c9737fc071108f904c0b0c95d",
                    "gasUsed": 3721,
                    "id": 6,
                    "methodDecoded": true,
                    "operation": "DELEGATECALL",
                    "output": "0x0000000000000000000000000000000000000000000000000000000000000001",
                    "revert": false,
                    "revertMessage": "",
                    "selector": "0xfacd743b",
                    "status": true,
                    "value": "0"
                },
                "nodeType": 0
            },
            "7": {
                "invocation": {
                    "address": "0x0000000000000000000000000000000000000001",
                    "callData": "0x01c2aed0cb7a555b0a68d43b1fcbd57f22642b60074142e1c9a6a22f000000000000000000000000000000000000000000000000000000000000001b244a265bd8a568b2b40843269f327c0ba143e1fc430d85600c207da6dee307d17eff4897e78a40aaa32aba70543e1ccd733699187e4bb73ec7be7381214e0893",
                    "decodedMethod": {
                        "callParams": [
                            {
                                "name": "hash",
                                "type": "bytes32",
                                "value": "0x76e82cc501c2aed0cb7a555b0a68d43b1fcbd57f22642b60074142e1c9a6a22f"
                            },
                            {
                                "name": "v",
                                "type": "uint256",
                                "value": "27"
                            },
                            {
                                "name": "r",
                                "type": "bytes32",
                                "value": "0x244a265bd8a568b2b40843269f327c0ba143e1fc430d85600c207da6dee307d1"
                            },
                            {
                                "name": "s",
                                "type": "bytes32",
                                "value": "0x7eff4897e78a40aaa32aba70543e1ccd733699187e4bb73ec7be7381214e0893"
                            }
                        ],
                        "constructorArguments": "",
                        "name": "ecrecover",
                        "returnParams": [
                            {
                                "name": "",
                                "type": "address",
                                "value": "0xfe9a08bb3ce6c1946c40b8767fef2f97b400dd2c"
                            }
                        ],
                        "signature": "ecrecover(bytes32,uint256,bytes32,bytes32)"
                    },
                    "errorInfo": "",
                    "fromAddress": "0xd0764fae29e0a6a96ff685f71cfc685456d5636c",
                    "gasUsed": 3000,
                    "id": 7,
                    "methodDecoded": true,
                    "operation": "CALL",
                    "output": "0x000000000000000000000000fe9a08bb3ce6c1946c40b8767fef2f97b400dd2c",
                    "revert": false,
                    "revertMessage": "",
                    "selector": "0x76e82cc5",
                    "status": true,
                    "value": "0"
                },
                "nodeType": 0
            },
            "8": {
                "invocation": {
                    "address": "0x2fa878ab3f87cc1c9737fc071108f904c0b0c95d",
                    "callData": "0x000000000000000000000000fe9a08bb3ce6c1946c40b8767fef2f97b400dd2c",
                    "decodedMethod": {
                        "callParams": [
                            {
                                "name": "_validator",
                                "type": "address",
                                "value": "0xfe9a08bb3ce6c1946c40b8767fef2f97b400dd2c"
                            }
                        ],
                        "constructorArguments": "",
                        "name": "isValidator",
                        "returnParams": [
                            {
                                "name": "",
                                "type": "bool",
                                "value": true
                            }
                        ],
                        "signature": "isValidator(address)"
                    },
                    "errorInfo": "",
                    "fromAddress": "0xd0764fae29e0a6a96ff685f71cfc685456d5636c",
                    "gasUsed": 4427,
                    "id": 8,
                    "methodDecoded": true,
                    "operation": "CALL",
                    "output": "0x0000000000000000000000000000000000000000000000000000000000000001",
                    "revert": false,
                    "revertMessage": "",
                    "selector": "0xfacd743b",
                    "status": true,
                    "value": "0"
                },
                "nodeType": 0
            },
            "9": {
                "invocation": {
                    "address": "0x95b303987a60c71504d99aa1b13b4da07b0790ab",
                    "callData": "0x000000000000000000000000fe9a08bb3ce6c1946c40b8767fef2f97b400dd2c",
                    "decodedMethod": {
                        "callParams": [
                            {
                                "name": "_validator",
                                "type": "address",
                                "value": "0xfe9a08bb3ce6c1946c40b8767fef2f97b400dd2c"
                            }
                        ],
                        "constructorArguments": "",
                        "name": "isValidator",
                        "returnParams": [
                            {
                                "name": "",
                                "type": "bool",
                                "value": true
                            }
                        ],
                        "signature": "isValidator(address)"
                    },
                    "errorInfo": "",
                    "fromAddress": "0x2fa878ab3f87cc1c9737fc071108f904c0b0c95d",
                    "gasUsed": 3721,
                    "id": 9,
                    "methodDecoded": true,
                    "operation": "DELEGATECALL",
                    "output": "0x0000000000000000000000000000000000000000000000000000000000000001",
                    "revert": false,
                    "revertMessage": "",
                    "selector": "0xfacd743b",
                    "status": true,
                    "value": "0"
                },
                "nodeType": 0
            }
        },
        "gasFlame": [
            {
                "children": [
                    {
                        "children": [
                            {
                                "children": [],
                                "depth": 0,
                                "name": "Initial Gas",
                                "value": 30920
                            },
                            {
                                "children": [
                                    {
                                        "children": [
                                            {
                                                "children": [
                                                    {
                                                        "children": [],
                                                        "depth": 3,
                                                        "name": "requiredSignatures",
                                                        "value": 2481
                                                    }
                                                ],
                                                "depth": 2,
                                                "name": "requiredSignatures",
                                                "value": 7681
                                            },
                                            {
                                                "children": [],
                                                "depth": 2,
                                                "name": "ecrecover",
                                                "value": 3000
                                            },
                                            {
                                                "children": [
                                                    {
                                                        "children": [],
                                                        "depth": 3,
                                                        "name": "isValidator",
                                                        "value": 3721
                                                    }
                                                ],
                                                "depth": 2,
                                                "name": "isValidator",
                                                "value": 4427
                                            },
                                            {
                                                "children": [],
                                                "depth": 2,
                                                "name": "ecrecover",
                                                "value": 3000
                                            },
                                            {
                                                "children": [
                                                    {
                                                        "children": [],
                                                        "depth": 3,
                                                        "name": "isValidator",
                                                        "value": 3721
                                                    }
                                                ],
                                                "depth": 2,
                                                "name": "isValidator",
                                                "value": 4427
                                            },
                                            {
                                                "children": [],
                                                "depth": 2,
                                                "name": "ecrecover",
                                                "value": 3000
                                            },
                                            {
                                                "children": [
                                                    {
                                                        "children": [],
                                                        "depth": 3,
                                                        "name": "isValidator",
                                                        "value": 3721
                                                    }
                                                ],
                                                "depth": 2,
                                                "name": "isValidator",
                                                "value": 4427
                                            },
                                            {
                                                "children": [],
                                                "depth": 2,
                                                "name": "ecrecover",
                                                "value": 3000
                                            },
                                            {
                                                "children": [
                                                    {
                                                        "children": [],
                                                        "depth": 3,
                                                        "name": "isValidator",
                                                        "value": 3721
                                                    }
                                                ],
                                                "depth": 2,
                                                "name": "isValidator",
                                                "value": 4427
                                            },
                                            {
                                                "children": [],
                                                "depth": 2,
                                                "name": "ecrecover",
                                                "value": 3000
                                            },
                                            {
                                                "children": [
                                                    {
                                                        "children": [],
                                                        "depth": 3,
                                                        "name": "isValidator",
                                                        "value": 3721
                                                    }
                                                ],
                                                "depth": 2,
                                                "name": "isValidator",
                                                "value": 4427
                                            },
                                            {
                                                "children": [],
                                                "depth": 2,
                                                "name": "ecrecover",
                                                "value": 3000
                                            },
                                            {
                                                "children": [
                                                    {
                                                        "children": [],
                                                        "depth": 3,
                                                        "name": "isValidator",
                                                        "value": 3721
                                                    }
                                                ],
                                                "depth": 2,
                                                "name": "isValidator",
                                                "value": 4427
                                            },
                                            {
                                                "children": [
                                                    {
                                                        "children": [
                                                            {
                                                                "children": [
                                                                    {
                                                                        "children": [],
                                                                        "depth": 5,
                                                                        "name": "messageSender",
                                                                        "value": 1019
                                                                    }
                                                                ],
                                                                "depth": 4,
                                                                "name": "messageSender",
                                                                "value": 1719
                                                            },
                                                            {
                                                                "children": [],
                                                                "depth": 4,
                                                                "name": "transfer",
                                                                "value": 12862
                                                            },
                                                            {
                                                                "children": [
                                                                    {
                                                                        "children": [],
                                                                        "depth": 5,
                                                                        "name": "messageId",
                                                                        "value": 633
                                                                    }
                                                                ],
                                                                "depth": 4,
                                                                "name": "messageId",
                                                                "value": 1333
                                                            },
                                                            {
                                                                "children": [
                                                                    {
                                                                        "children": [
                                                                            {
                                                                                "children": [],
                                                                                "depth": 6,
                                                                                "name": "fallback",
                                                                                "value": 95
                                                                            }
                                                                        ],
                                                                        "depth": 5,
                                                                        "name": "withdraw",
                                                                        "value": 9235
                                                                    },
                                                                    {
                                                                        "children": [],
                                                                        "depth": 5,
                                                                        "name": "fallback",
                                                                        "value": 0
                                                                    }
                                                                ],
                                                                "depth": 4,
                                                                "name": "onTokenBridged",
                                                                "value": 17269
                                                            }
                                                        ],
                                                        "depth": 3,
                                                        "name": "handleNativeTokensAndCall",
                                                        "value": 76302
                                                    }
                                                ],
                                                "depth": 2,
                                                "name": "handleNativeTokensAndCall",
                                                "value": 81442
                                            }
                                        ],
                                        "depth": 1,
                                        "name": "safeExecuteSignaturesWithAutoGasLimit",
                                        "value": 286491
                                    }
                                ],
                                "depth": 0,
                                "name": "Executed Gas",
                                "value": 291845
                            }
                        ],
                        "depth": -1,
                        "name": "Actual Gas Used",
                        "value": 260265
                    },
                    {
                        "children": [],
                        "depth": -1,
                        "name": "Refunded Gas",
                        "value": 62500
                    }
                ],
                "depth": -2,
                "name": "Total Gas",
                "value": 322765
            }
        ],
        "isConfirmed": true,
        "mainTrace": [
            {
                "children": [
                    {
                        "children": [
                            {
                                "children": [
                                    {
                                        "children": [
                                            {
                                                "children": [],
                                                "depth": 3,
                                                "id": 3,
                                                "order": 3
                                            }
                                        ],
                                        "depth": 2,
                                        "id": 2,
                                        "order": 2
                                    },
                                    {
                                        "children": [],
                                        "depth": 2,
                                        "id": 4,
                                        "order": 4
                                    },
                                    {
                                        "children": [
                                            {
                                                "children": [],
                                                "depth": 3,
                                                "id": 6,
                                                "order": 6
                                            }
                                        ],
                                        "depth": 2,
                                        "id": 5,
                                        "order": 5
                                    },
                                    {
                                        "children": [],
                                        "depth": 2,
                                        "id": 7,
                                        "order": 7
                                    },
                                    {
                                        "children": [
                                            {
                                                "children": [],
                                                "depth": 3,
                                                "id": 9,
                                                "order": 9
                                            }
                                        ],
                                        "depth": 2,
                                        "id": 8,
                                        "order": 8
                                    },
                                    {
                                        "children": [],
                                        "depth": 2,
                                        "id": 10,
                                        "order": 10
                                    },
                                    {
                                        "children": [
                                            {
                                                "children": [],
                                                "depth": 3,
                                                "id": 12,
                                                "order": 12
                                            }
                                        ],
                                        "depth": 2,
                                        "id": 11,
                                        "order": 11
                                    },
                                    {
                                        "children": [],
                                        "depth": 2,
                                        "id": 13,
                                        "order": 13
                                    },
                                    {
                                        "children": [
                                            {
                                                "children": [],
                                                "depth": 3,
                                                "id": 15,
                                                "order": 15
                                            }
                                        ],
                                        "depth": 2,
                                        "id": 14,
                                        "order": 14
                                    },
                                    {
                                        "children": [],
                                        "depth": 2,
                                        "id": 16,
                                        "order": 16
                                    },
                                    {
                                        "children": [
                                            {
                                                "children": [],
                                                "depth": 3,
                                                "id": 18,
                                                "order": 18
                                            }
                                        ],
                                        "depth": 2,
                                        "id": 17,
                                        "order": 17
                                    },
                                    {
                                        "children": [],
                                        "depth": 2,
                                        "id": 19,
                                        "order": 19
                                    },
                                    {
                                        "children": [
                                            {
                                                "children": [],
                                                "depth": 3,
                                                "id": 21,
                                                "order": 21
                                            }
                                        ],
                                        "depth": 2,
                                        "id": 20,
                                        "order": 20
                                    },
                                    {
                                        "children": [
                                            {
                                                "children": [
                                                    {
                                                        "children": [
                                                            {
                                                                "children": [],
                                                                "depth": 5,
                                                                "id": 25,
                                                                "order": 25
                                                            }
                                                        ],
                                                        "depth": 4,
                                                        "id": 24,
                                                        "order": 24
                                                    },
                                                    {
                                                        "children": [
                                                            {
                                                                "children": [],
                                                                "depth": 5,
                                                                "id": 27,
                                                                "order": 27
                                                            }
                                                        ],
                                                        "depth": 4,
                                                        "id": 26,
                                                        "order": 26
                                                    },
                                                    {
                                                        "children": [
                                                            {
                                                                "children": [],
                                                                "depth": 5,
                                                                "id": 29,
                                                                "order": 29
                                                            }
                                                        ],
                                                        "depth": 4,
                                                        "id": 28,
                                                        "order": 28
                                                    },
                                                    {
                                                        "children": [],
                                                        "depth": 4,
                                                        "id": 30,
                                                        "order": 30
                                                    },
                                                    {
                                                        "children": [
                                                            {
                                                                "children": [
                                                                    {
                                                                        "children": [],
                                                                        "depth": 6,
                                                                        "id": 33,
                                                                        "order": 33
                                                                    },
                                                                    {
                                                                        "children": [],
                                                                        "depth": 6,
                                                                        "id": 34,
                                                                        "order": 34
                                                                    }
                                                                ],
                                                                "depth": 5,
                                                                "id": 32,
                                                                "order": 32
                                                            },
                                                            {
                                                                "children": [],
                                                                "depth": 5,
                                                                "id": 35,
                                                                "order": 35
                                                            }
                                                        ],
                                                        "depth": 4,
                                                        "id": 31,
                                                        "order": 31
                                                    }
                                                ],
                                                "depth": 3,
                                                "id": 23,
                                                "order": 23
                                            }
                                        ],
                                        "depth": 2,
                                        "id": 22,
                                        "order": 22
                                    },
                                    {
                                        "children": [],
                                        "depth": 2,
                                        "id": 36,
                                        "order": 36
                                    }
                                ],
                                "depth": 1,
                                "id": 1,
                                "order": 1
                            }
                        ],
                        "depth": 0,
                        "id": 0,
                        "order": 0
                    }
                ],
                "depth": -1,
                "id": -1,
                "order": -1
            }
        ],
        "mainTraceNodeCount": 37,
        "parentIdMap": {
            "0": -1,
            "1": 0,
            "10": 1,
            "11": 1,
            "12": 11,
            "13": 1,
            "14": 1,
            "15": 14,
            "16": 1,
            "17": 1,
            "18": 17,
            "19": 1,
            "2": 1,
            "20": 1,
            "21": 20,
            "22": 1,
            "23": 22,
            "24": 23,
            "25": 24,
            "26": 23,
            "27": 26,
            "28": 23,
            "29": 28,
            "3": 2,
            "30": 23,
            "31": 23,
            "32": 31,
            "33": 32,
            "34": 32,
            "35": 31,
            "36": 1,
            "4": 1,
            "5": 1,
            "6": 5,
            "7": 1,
            "8": 1,
            "9": 8
        },
        "tidyTrace": [
            {
                "children": [
                    {
                        "children": [
                            {
                                "children": [
                                    {
                                        "children": [
                                            {
                                                "children": [],
                                                "depth": 3,
                                                "id": 3,
                                                "order": 3
                                            }
                                        ],
                                        "depth": 2,
                                        "id": 2,
                                        "order": 2
                                    },
                                    {
                                        "children": [],
                                        "depth": 2,
                                        "id": 4,
                                        "order": 4
                                    },
                                    {
                                        "children": [
                                            {
                                                "children": [],
                                                "depth": 3,
                                                "id": 6,
                                                "order": 6
                                            }
                                        ],
                                        "depth": 2,
                                        "id": 5,
                                        "order": 5
                                    },
                                    {
                                        "children": [],
                                        "depth": 2,
                                        "id": 7,
                                        "order": 7
                                    },
                                    {
                                        "children": [
                                            {
                                                "children": [],
                                                "depth": 3,
                                                "id": 9,
                                                "order": 9
                                            }
                                        ],
                                        "depth": 2,
                                        "id": 8,
                                        "order": 8
                                    },
                                    {
                                        "children": [],
                                        "depth": 2,
                                        "id": 10,
                                        "order": 10
                                    },
                                    {
                                        "children": [
                                            {
                                                "children": [],
                                                "depth": 3,
                                                "id": 12,
                                                "order": 12
                                            }
                                        ],
                                        "depth": 2,
                                        "id": 11,
                                        "order": 11
                                    },
                                    {
                                        "children": [],
                                        "depth": 2,
                                        "id": 13,
                                        "order": 13
                                    },
                                    {
                                        "children": [
                                            {
                                                "children": [],
                                                "depth": 3,
                                                "id": 15,
                                                "order": 15
                                            }
                                        ],
                                        "depth": 2,
                                        "id": 14,
                                        "order": 14
                                    },
                                    {
                                        "children": [],
                                        "depth": 2,
                                        "id": 16,
                                        "order": 16
                                    },
                                    {
                                        "children": [
                                            {
                                                "children": [],
                                                "depth": 3,
                                                "id": 18,
                                                "order": 18
                                            }
                                        ],
                                        "depth": 2,
                                        "id": 17,
                                        "order": 17
                                    },
                                    {
                                        "children": [],
                                        "depth": 2,
                                        "id": 19,
                                        "order": 19
                                    },
                                    {
                                        "children": [
                                            {
                                                "children": [],
                                                "depth": 3,
                                                "id": 21,
                                                "order": 21
                                            }
                                        ],
                                        "depth": 2,
                                        "id": 20,
                                        "order": 20
                                    },
                                    {
                                        "children": [
                                            {
                                                "children": [
                                                    {
                                                        "children": [
                                                            {
                                                                "children": [],
                                                                "depth": 5,
                                                                "id": 27,
                                                                "order": 27
                                                            }
                                                        ],
                                                        "depth": 4,
                                                        "id": 26,
                                                        "order": 26
                                                    },
                                                    {
                                                        "children": [],
                                                        "depth": 4,
                                                        "id": 30,
                                                        "order": 30
                                                    },
                                                    {
                                                        "children": [
                                                            {
                                                                "children": [
                                                                    {
                                                                        "children": [],
                                                                        "depth": 6,
                                                                        "id": 33,
                                                                        "order": 33
                                                                    },
                                                                    {
                                                                        "children": [],
                                                                        "depth": 6,
                                                                        "id": 34,
                                                                        "order": 34
                                                                    }
                                                                ],
                                                                "depth": 5,
                                                                "id": 32,
                                                                "order": 32
                                                            },
                                                            {
                                                                "children": [],
                                                                "depth": 5,
                                                                "id": 35,
                                                                "order": 35
                                                            }
                                                        ],
                                                        "depth": 4,
                                                        "id": 31,
                                                        "order": 31
                                                    }
                                                ],
                                                "depth": 3,
                                                "id": 23,
                                                "order": 23
                                            }
                                        ],
                                        "depth": 2,
                                        "id": 22,
                                        "order": 22
                                    },
                                    {
                                        "children": [],
                                        "depth": 2,
                                        "id": 36,
                                        "order": 36
                                    }
                                ],
                                "depth": 1,
                                "id": 1,
                                "order": 1
                            }
                        ],
                        "depth": 0,
                        "id": 0,
                        "order": 0
                    }
                ],
                "depth": -1,
                "id": -1,
                "order": -1
            }
        ],
        "tidyTraceNodeCount": 33
    },
    "state_change": {
        "stateChanges": [
            {
                "address": "0x1715a3e4a142d8b698131108995174f37aeba10d",
                "erc": "",
                "slots": [
                    {
                        "current": "0x0000000000000000000000000000000000000000000001910bc6993a60f1ab0d",
                        "key": "0x6accd8056b322b1c2377b1af1f69b3be83c1e01780c8349158ea850c50d60659",
                        "prev": "0x00000000000000000000000000000000000000000000019115b7a3c9fe2a35fd"
                    },
                    {
                        "current": "0x00000000000000000000000000000000000000000000000247b733dcbc1dbff1",
                        "key": "0x1a474fb667f94df57801b656020dbbb7c93a2a068d466a48dd5d8a3997f0aa5a",
                        "prev": "0x0000000000000000000000000000000000000000000000023dc6294d1ee53501"
                    }
                ],
                "storageVariables": [
                    {
                        "name": "uintStorage",
                        "type": "mapping(bytes32 => uint256)",
                        "value": {
                            "pairs": [
                                {
                                    "key": "0x547fa00b6a8fc8086dc16203f3d38193059a3ce063c5c4e1b22a1d7ec46c2f2d",
                                    "value": {
                                        "current": "7397992907613349718797",
                                        "prev": "7398709273041012667901",
                                        "typeTag": 1
                                    }
                                },
                                {
                                    "key": "0xdd34520440ea0b50c6ef760f8c8a2534e4ccbe32629986240811c0abca171fbd",
                                    "value": {
                                        "current": "42061144267991924721",
                                        "prev": "41344778840328975617",
                                        "typeTag": 1
                                    }
                                }
                            ],
                            "typeTag": 4
                        }
                    }
                ]
            },
            {
                "address": "0xc02aaa39b223fe8d0a0e5c4f27ead9083c756cc2",
                "erc": "ERC-20",
                "slots": [
                    {
                        "current": "0x0000000000000000000000000000000000000000000001910bc6993a60f1ab0d",
                        "key": "0xc38f9ebfaa0dcb17ec3e0983b28e3ec3dcf5db83576d60c9a028e458fbd15343",
                        "prev": "0x00000000000000000000000000000000000000000000019115b7a3c9fe2a35fd"
                    }
                ],
                "storageVariables": [
                    {
                        "name": "balanceOf",
                        "type": "mapping(address => uint256)",
                        "value": {
                            "pairs": [
                                {
                                    "key": "0x1715a3e4a142d8b698131108995174f37aeba10d",
                                    "value": {
                                        "current": "7397992907613349718797",
                                        "prev": "7398709273041012667901",
                                        "typeTag": 1
                                    }
                                }
                            ],
                            "typeTag": 4
                        }
                    }
                ]
            },
            {
                "address": "0xd0764fae29e0a6a96ff685f71cfc685456d5636c",
                "erc": "",
                "slots": [
                    {
                        "current": "0x0000000000000000000000000000000000000000000000000000000000000001",
                        "key": "0x856ef9acb43059e2a245cac6e7cb89e4d511df80a2b34ca76e2f30f999c55424",
                        "prev": "0x0000000000000000000000000000000000000000000000000000000000000000"
                    },
                    {
                        "current": "0x0000000000000000000000000000000000000000000000000000000000000001",
                        "key": "0x9388b81d0a5dac5777722f0af001d3cae60adceaa144c46111a527aa1ad38243",
                        "prev": "0x0000000000000000000000000000000000000000000000000000000000000000"
                    }
                ],
                "storageVariables": [
                    {
                        "name": "boolStorage",
                        "type": "mapping(bytes32 => bool)",
                        "value": {
                            "pairs": [
                                {
                                    "key": "0x2cb665a407b3df384ffb8276d48c0ce64732f0d17b0c313bebed68ed09c097e9",
                                    "value": {
                                        "current": "true",
                                        "prev": "false",
                                        "typeTag": 1
                                    }
                                },
                                {
                                    "key": "0x4b20e87cbe8826ab49b79a3c9fa2b77b976654eecceb984e852dbd3882d49961",
                                    "value": {
                                        "current": "true",
                                        "prev": "false",
                                        "typeTag": 1
                                    }
                                }
                            ],
                            "typeTag": 4
                        }
                    }
                ]
            }
        ]
    }
}