{
    "balance_change": {
        "balanceChanges": [
            {
                "account": "0x96fd46959e102013ed1c5d0d8c352109ca4b3a9a",
                "assets": [
                    {
                        "address": "0x84f7c44b6fed1080f647e354d552595be2cc602f",
                        "amount": "20,223",
                        "iconUrl": "https://assets.blocksec.com/icon/ab996c70176890968b663d2254b69132d667e33f74228f6d1ccf65be6342ae38.png",
                        "isERC1155": false,
                        "isERC721": false,
                        "sign": false,
                        "value": ""
                    }
                ]
            },
            {
                "account": "0xd947c7f650dcfce76346dfad4fe0e275a03d03a7",
                "assets": [
                    {
                        "address": "0x84f7c44b6fed1080f647e354d552595be2cc602f",
                        "amount": "20,223",
                        "iconUrl": "https://assets.blocksec.com/icon/ab996c70176890968b663d2254b69132d667e33f74228f6d1ccf65be6342ae38.png",
                        "isERC1155": false,
                        "isERC721": false,
                        "sign": true,
                        "value": ""
                    }
                ]
            }
        ]
    },
    "profile": {
        "basic_info": {
            "baseFee": "",
            "blockNumber": 5828908,
            "callData": "0xa9059cbb000000000000000000000000d947c7f650dcfce76346dfad4fe0e275a03d03a70000000000000000000000000000000000000000000004484a80b9f4349c0000",
            "debugEnable": true,
            "errorInfo": "",
            "eventCount": 1,
            "feeRecipient": "0x829bd824b016326a401d083b33d092293333a830",
            "formatValue": "0",
            "gasLimit": 39642,
            "gasPrice": "41",
            "gasUsed": 39642,
            "intTxnCount": 0,
            "internalRevert": false,
            "internalRevertMessage": "",
            "isContractCreation": false,
            "isFlashloan": false,
            "maxFee": "",
            "nonce": 0,
            "overwritedBlockNumber": -1,
            "priorityFee": "",
            "receiver": "0x84f7c44b6fed1080f647e354d552595be2cc602f",
            "revertMessage": "",
            "sender": "0x96fd46959e102013ed1c5d0d8c352109ca4b3a9a",
            "simulationEnable": true,
            "sourceTxnHash": "0xbd8e35868774d64d5a9c4022f16cf10942f1a3c1c64f3f517da082ec6ec8078a",
            "status": true,
            "timestamp": "2018-06-21T14:32:02Z",
            "transactionFee": "0.001625322",
            "txnHash": "0xbd8e35868774d64d5a9c4022f16cf10942f1a3c1c64f3f517da082ec6ec8078a",
            "txnIndex": 21,
            "type": 0,
            "value": "0"
        },
        "fund_flow": [
            {
                "amount": "20,223",
                "from": "0x96fd46959e102013ed1c5d0d8c352109ca4b3a9a",
                "id": 1,
                "isERC1155": false,
                "isERC721": false,
                "isReverted": false,
                "order": 1,
                "to": "0xd947c7f650dcfce76346dfad4fe0e275a03d03a7",
                "token": "0x84f7c44b6fed1080f647e354d552595be2cc602f"
            }
        ],
        "token_infos": [
            {
                "address": "0x84f7c44b6fed1080f647e354d552595be2cc602f",
                "decimals": 18
            },
            {
                "address": "0xc02aaa39b223fe8d0a0e5c4f27ead9083c756cc2",
                "decimals": 18
            },
            {
                "address": "0xeeeeeeeeeeeeeeeeeeeeeeeeeeeeeeeeeeeeeeee",
                "decimals": 18
            }
        ]
    },
    "address_label": {
        "labels": [
            {
                "address": "0x84f7c44b6fed1080f647e354d552595be2cc602f",
                "label": "Bigbom (BBO)"
            },
            {
                "address": "0x0000000000000000000000000000000000000001",
                "label": "Precompiled"
            },
            {
                "address": "0x0000000000000000000000000000000000000002",
                "label": "Precompiled"
            },
            {
                "address": "0x0000000000000000000000000000000000000003",
                "label": "Precompiled"
            },
            {
                "address": "0x0000000000000000000000000000000000000004",
                "label": "Precompiled"
            },
            {
                "address": "0xeeeeeeeeeeeeeeeeeeeeeeeeeeeeeeeeeeeeeeee",
                "label": "Ether"
            }
        ]
    },
    "trace": {
        "accountLabels": null,
        "dataMap": {
            "-1": {
                "invocation": {
                    "address": "0x96fd46959e102013ed1c5d0d8c352109ca4b3a9a",
                    "callData": "",
                    "decodedMethod": null,
                    "errorInfo": "",
                    "fromAddress": "",
                    "gasUsed": 0,
                    "id": -1,
                    "methodDecoded": false,
                    "operation": "",
                    "output": "",
                    "revert": false,
                    "revertMessage": "",
                    "selector": "",
                    "status": false,
                    "value": ""
                },
                "nodeType": 0
            },
            "0": {
                "invocation": {
                    "address": "0x84f7c44b6fed1080f647e354d552595be2cc602f",
                    "callData": "0x000000000000000000000000d947c7f650dcfce76346dfad4fe0e275a03d03a70000000000000000000000000000000000000000000004484a80b9f4349c0000",
                    "decodedMethod": {
                        "callParams": [
                            {
                                "name": "_to",
                                "type": "address",
                                "value": "0xd947c7f650dcfce76346dfad4fe0e275a03d03a7"
                            },
                            {
                                "decimalAvailable": true,
                                "name": "_value",
                                "type": "uint256",
                                "value": "20,223,000,000,000,000,000,000"
                            }
                        ],
                        "constructorArguments": "",
                        "name": "transfer",
                        "returnParams": [
                            {
                                "name": "",
                                "type": "bool",
                                "value": true
                            }
                        ],
                        "signature": "transfer(address,uint256)"
                    },
                    "errorInfo": "",
                    "fromAddress": "0x96fd46959e102013ed1c5d0d8c352109ca4b3a9a",
                    "gasUsed": 39642,
                    "id": 0,
                    "methodDecoded": true,
                    "operation": "CALL",
                    "output": "0x0000000000000000000000000000000000000000000000000000000000000001",
                    "revert": false,
                    "revertMessage": "",
                    "selector": "0xa9059cbb",
                    "status": true,
                    "value": "0"
                },
                "nodeType": 0
            },
            "1": {
                "event": {
                    "contract": "0x84f7c44b6fed1080f647e354d552595be2cc602f",
                    "decodedLog": {
                        "name": "Transfer",
                        "params": [
                            {
                                "name": "_from",
                                "type": "address",
                                "value": "0x96fd46959e102013ed1c5d0d8c352109ca4b3a9a"
                            },
                            {
                                "name": "_to",
                                "type": "address",
                                "value": "0xd947c7f650dcfce76346dfad4fe0e275a03d03a7"
                            },
                            {
                                "decimalAvailable": true,
                                "name": "_value",
                                "type": "uint256",
                                "value": "20,223,000,000,000,000,000,000"
                            }
                        ],
                        "signature": "Transfer(address,address,uint256)"
                    },
                    "id": 1,
                    "logData": "0x0000000000000000000000000000000000000000000004484a80b9f4349c0000",
                    "logDecoded": true,
                    "operation": "EVENT",
                    "revert": false,
                    "status": true,
                    "topics": [
                        "0xddf252ad1be2c89b69c2b068fc378daa952ba7f163c4a11628f55a4df523b3ef",
                        "0x00000000000000000000000096fd46959e102013ed1c5d0d8c352109ca4b3a9a",
                        "0x000000000000000000000000d947c7f650dcfce76346dfad4fe0e275a03d03a7"
                    ]
                },
                "nodeType": 1
            }
        },
        "gasFlame": [
            {
                "children": [
                    {
                        "children": [
                            {
                                "children": [],
                                "depth": 0,
                                "name": "Initial Gas",
                                "value": 23320
                            },
                            {
                                "children": [],
                                "depth": 0,
                                "name": "Executed Gas",
                                "value": 16322
                            }
                        ],
                        "depth": -1,
                        "name": "Actual Gas Used",
                        "value": 39642
                    },
                    {
                        "children": [],
                        "depth": -1,
                        "name": "Refunded Gas",
                        "value": 0
                    }
                ],
                "depth": -2,
                "name": "Total Gas",
                "value": 39642
            }
        ],
        "isConfirmed": true,
        "mainTrace": [
            {
                "children": [
                    {
                        "children": [
                            {
                                "children": [],
                                "depth": 1,
                                "id": 1,
                                "order": 1
                            }
                        ],
                        "depth": 0,
                        "id": 0,
                        "order": 0
                    }
                ],
                "depth": -1,
                "id": -1,
                "order": -1
            }
        ],
        "mainTraceNodeCount": 2,
        "parentIdMap": {
            "0": -1,
            "1": 0
        },
        "tidyTrace": [
            {
                "children": [
                    {
                        "children": [
                            {
                                "children": [],
                                "depth": 1,
                                "id": 1,
                                "order": 1
                            }
                        ],
                        "depth": 0,
                        "id": 0,
                        "order": 0
                    }
                ],
                "depth": -1,
                "id": -1,
                "order": -1
            }
        ],
        "tidyTraceNodeCount": 2
    },
    "state_change": {
        "stateChanges": [
            {
                "address": "0x84f7c44b6fed1080f647e354d552595be2cc602f",
                "erc": "ERC-20",
                "slots": [
                    {
                        "current": "0x000000000000000000000000000000000000000000000b08748017c5ea580000",
                        "key": "0x9049694ca009e788c1af989264ac28a012373256e6162947ce56d8b612b4d202",
                        "prev": "0x000000000000000000000000000000000000000000000f50bf00d1ba1ef40000"
                    },
                    {
                        "current": "0x00000000000000000000000000000000000000000000160b7d38d15e71a00000",
                        "key": "0x11309a805490b1f79065b1e2fb2f5ee8af1ea6f45cca1663fcc00f2a2c4c21db",
                        "prev": "0x0000000000000000000000000000000000000000000011c332b8176a3d040000"
                    }
                ],
                "storageVariables": [
                    {
                        "name": "balances",
                        "type": "mapping(address => uint256)",
                        "value": {
                            "pairs": [
                                {
                                    "key": "0x96fd46959e102013ed1c5d0d8c352109ca4b3a9a",
                                    "value": {
                                        "current": "52102000000000000000000",
                                        "prev": "72325000000000000000000",
                                        "typeTag": 1
                                    }
                                },
                                {
                                    "key": "0xd947c7f650dcfce76346dfad4fe0e275a03d03a7",
                                    "value": {
                                        "current": "104104000000000000000000",
                                        "prev": "83881000000000000000000",
                                        "typeTag": 1
                                    }
                                }
                            ],
                            "typeTag": 4
                        }
                    }
                ]
            }
        ]
    }
}