{
    "balance_change": {
        "balanceChanges": [
            {
                "account": "0xdc0aa8c48406e1028f6c83a4152793eb9676f500",
                "assets": [
                    {
                        "address": "0xeeeeeeeeeeeeeeeeeeeeeeeeeeeeeeeeeeeeeeee",
                        "amount": "0.001",
                        "iconUrl": "https://assets.blocksec.com/image/1663669189317-3.png",
                        "isERC1155": false,
                        "isERC721": false,
                        "sign": false,
                        "value": ""
                    }
                ]
            },
            {
                "account": "0x49ea69b657394d9edc37f59cad45169a3203bf64",
                "assets": [
                    {
                        "address": "0xeeeeeeeeeeeeeeeeeeeeeeeeeeeeeeeeeeeeeeee",
                        "amount": "0.001",
                        "iconUrl": "https://assets.blocksec.com/image/1663669189317-3.png",
                        "isERC1155": false,
                        "isERC721": false,
                        "sign": true,
                        "value": ""
                    }
                ]
            }
        ]
    },
    "profile": {
        "basic_info": {
            "baseFee": "",
            "blockNumber": 7157360,
            "callData": "0xb7acdca600000000000000000000000000000000000000000000000000000000006d38f0000000000000000000000000b2930b35844a230f00e51431acae96fe543a0347",
            "debugEnable": true,
            "errorInfo": "",
            "eventCount": 2,
            "feeRecipient": "0xb2930b35844a230f00e51431acae96fe543a0347",
            "formatValue": "0.001",
            "gasLimit": 74422,
            "gasPrice": "4",
            "gasUsed": 59422,
            "intTxnCount": 1,
            "internalRevert": false,
            "internalRevertMessage": "",
            "isContractCreation": false,
            "isFlashloan": false,
            "maxFee": "",
            "nonce": 50,
            "overwritedBlockNumber": -1,
            "priorityFee": "",
            "receiver": "0xae33185575973ee122793b5703273e502caee424",
            "revertMessage": "",
            "sender": "0xdc0aa8c48406e1028f6c83a4152793eb9676f500",
            "simulationEnable": true,
            "sourceTxnHash": "0xbddce7d0c35a2e514ca276c01c3fee339ba74f88f3cfacf92969720139a94379",
            "status": true,
            "timestamp": "2019-02-01T06:01:15Z",
            "transactionFee": "0.000237688",
            "txnHash": "0xbddce7d0c35a2e514ca276c01c3fee339ba74f88f3cfacf92969720139a94379",
            "txnIndex": 76,
            "type": 0,
            "value": "1000000000000000"
        },
        "fund_flow": [
            {
                "amount": "0.001",
                "from": "0xdc0aa8c48406e1028f6c83a4152793eb9676f500",
                "id": 1,
                "isERC1155": false,
                "isERC721": false,
                "isReverted": false,
                "order": 1,
                "to": "0xae33185575973ee122793b5703273e502caee424",
                "token": "0xeeeeeeeeeeeeeeeeeeeeeeeeeeeeeeeeeeeeeeee"
            },
            {
                "amount": "0.001",
                "from": "0xae33185575973ee122793b5703273e502caee424",
                "id": 2,
                "isERC1155": false,
                "isERC721": false,
                "isReverted": false,
                "order": 2,
                "to": "0x49ea69b657394d9edc37f59cad45169a3203bf64",
                "token": "0xeeeeeeeeeeeeeeeeeeeeeeeeeeeeeeeeeeeeeeee"
            }
        ],
        "token_infos": [
            {
                "address": "0xeeeeeeeeeeeeeeeeeeeeeeeeeeeeeeeeeeeeeeee",
                "decimals": 18
            },
            {
                "address": "0xc02aaa39b223fe8d0a0e5c4f27ead9083c756cc2",
                "decimals": 18
            }
        ]
    },
    "address_label": {
        "labels": [
            {
                "address": "0xae33185575973ee122793b5703273e502caee424",
                "label": "ClashHash"
            },
            {
                "address": "0x0000000000000000000000000000000000000001",
                "label": "Precompiled"
            },
            {
                "address": "0x0000000000000000000000000000000000000002",
                "label": "Precompiled"
            },
            {
                "address": "0x0000000000000000000000000000000000000003",
                "label": "Precompiled"
            },
            {
                "address": "0x0000000000000000000000000000000000000004",
                "label": "Precompiled"
            },
            {
                "address": "0xeeeeeeeeeeeeeeeeeeeeeeeeeeeeeeeeeeeeeeee",
                "label": "Ether"
            },
            {
                "address": "0xb2930b35844a230f00e51431acae96fe543a0347",
                "label": "MiningPoolHub: Old Address"
            }
        ]
    },
    "trace": {
        "accountLabels": null,
        "dataMap": {
            "-1": {
                "invocation": {
                    "address": "0xdc0aa8c48406e1028f6c83a4152793eb9676f500",
                    "callData": "",
                    "decodedMethod": null,
                    "errorInfo": "",
                    "fromAddress": "",
                    "gasUsed": 0,
                    "id": -1,
                    "methodDecoded": false,
                    "operation": "",
                    "output": "",
                    "revert": false,
                    "revertMessage": "",
                    "selector": "",
                    "status": false,
                    "value": ""
                },
                "nodeType": 0
            },
            "0": {
                "invocation": {
                    "address": "0xae33185575973ee122793b5703273e502caee424",
                    "callData": "0x00000000000000000000000000000000000000000000000000000000006d38f0000000000000000000000000b2930b35844a230f00e51431acae96fe543a0347",
                    "decodedMethod": {
                        "callParams": [
                            {
                                "name": "blockNumber",
                                "type": "uint256",
                                "value": "7,158,000"
                            },
                            {
                                "name": "option",
                                "type": "address",
                                "value": "0xb2930b35844a230f00e51431acae96fe543a0347"
                            }
                        ],
                        "constructorArguments": "",
                        "name": "addBet",
                        "returnParams": [],
                        "signature": "addBet(uint256,address)"
                    },
                    "errorInfo": "",
                    "fromAddress": "0xdc0aa8c48406e1028f6c83a4152793eb9676f500",
                    "gasUsed": 59422,
                    "id": 0,
                    "methodDecoded": true,
                    "operation": "CALL",
                    "output": "",
                    "revert": false,
                    "revertMessage": "",
                    "selector": "0xb7acdca6",
                    "status": true,
                    "value": "0.001"
                },
                "nodeType": 0
            },
            "1": {
                "invocation": {
                    "address": "0x49ea69b657394d9edc37f59cad45169a3203bf64",
                    "callData": "0x000000000000000000000000dc0aa8c48406e1028f6c83a4152793eb9676f500000000000000000000000000b2930b35844a230f00e51431acae96fe543a0347",
                    "decodedMethod": null,
                    "errorInfo": "",
                    "fromAddress": "0xae33185575973ee122793b5703273e502caee424",
                    "gasUsed": 13761,
                    "id": 1,
                    "methodDecoded": false,
                    "operation": "CALL",
                    "output": "",
                    "revert": false,
                    "revertMessage": "",
                    "selector": "0x12dd9b94",
                    "status": true,
                    "value": "0.001"
                },
                "nodeType": 0
            },
            "2": {
                "event": {
                    "contract": "0x49ea69b657394d9edc37f59cad45169a3203bf64",
                    "decodedLog": null,
                    "id": 2,
                    "logData": "0x00000000000000000000000000000000000000000000000000038d7ea4c68000",
                    "logDecoded": false,
                    "operation": "EVENT",
                    "revert": false,
                    "status": true,
                    "topics": [
                        "0x014952e2ce3b8fa83537611793c762bcbc39f3ab3d68b71721aa4ffdada2fb3e",
                        "0x000000000000000000000000dc0aa8c48406e1028f6c83a4152793eb9676f500",
                        "0x000000000000000000000000b2930b35844a230f00e51431acae96fe543a0347"
                    ]
                },
                "nodeType": 1
            },
            "3": {
                "event": {
                    "contract": "0xae33185575973ee122793b5703273e502caee424",
                    "decodedLog": {
                        "name": "RoundBetAdded",
                        "params": [
                            {
                                "name": "blockNumber",
                                "type": "uint256",
                                "value": "7,158,000"
                            },
                            {
                                "name": "user",
                                "type": "address",
                                "value": "0xdc0aa8c48406e1028f6c83a4152793eb9676f500"
                            },
                            {
                                "name": "option",
                                "type": "address",
                                "value": "0xb2930b35844a230f00e51431acae96fe543a0347"
                            },
                            {
                                "name": "value",
                                "type": "uint256",
                                "value": "1,000,000,000,000,000"
                            }
                        ],
                        "signature": "RoundBetAdded(uint256,address,address,uint256)"
                    },
                    "id": 3,
                    "logData": "0x00000000000000000000000000000000000000000000000000038d7ea4c68000",
                    "logDecoded": true,
                    "operation": "EVENT",
                    "revert": false,
                    "status": true,
                    "topics": [
                        "0x614f1f83c920769190e84c46afa11c89f75926d8acc5efcccb5d9f4c26e60718",
                        "0x00000000000000000000000000000000000000000000000000000000006d38f0",
                        "0x000000000000000000000000dc0aa8c48406e1028f6c83a4152793eb9676f500",
                        "0x000000000000000000000000b2930b35844a230f00e51431acae96fe543a0347"
                    ]
                },
                "nodeType": 1
            }
        },
        "gasFlame": [
            {
                "children": [
                    {
                        "children": [
                            {
                                "children": [],
                                "depth": 0,
                                "name": "Initial Gas",
                                "value": 22936
                            },
                            {
                                "children": [
                                    {
                                        "children": [],
                                        "depth": 1,
                                        "name": "0x12dd9b94",
                                        "value": 13761
                                    }
                                ],
                                "depth": 0,
                                "name": "Executed Gas",
                                "value": 36486
                            }
                        ],
                        "depth": -1,
                        "name": "Actual Gas Used",
                        "value": 59422
                    },
                    {
                        "children": [],
                        "depth": -1,
                        "name": "Refunded Gas",
                        "value": 0
                    }
                ],
                "depth": -2,
                "name": "Total Gas",
                "value": 59422
            }
        ],
        "isConfirmed": true,
        "mainTrace": [
            {
                "children": [
                    {
                        "children": [
                            {
                                "children": [
                                    {
                                        "children": [],
                                        "depth": 2,
                                        "id": 2,
                                        "order": 2
                                    }
                                ],
                                "depth": 1,
                                "id": 1,
                                "order": 1
                            },
                            {
                                "children": [],
                                "depth": 1,
                                "id": 3,
                                "order": 3
                            }
                        ],
                        "depth": 0,
                        "id": 0,
                        "order": 0
                    }
                ],
                "depth": -1,
                "id": -1,
                "order": -1
            }
        ],
        "mainTraceNodeCount": 4,
        "parentIdMap": {
            "0": -1,
            "1": 0,
            "2": 1,
            "3": 0
        },
        "tidyTrace": [
            {
                "children": [
                    {
                        "children": [
                            {
                                "children": [
                                    {
                                        "children": [],
                                        "depth": 2,
                                        "id": 2,
                                        "order": 2
                                    }
                                ],
                                "depth": 1,
                                "id": 1,
                                "order": 1
                            },
                            {
                                "children": [],
                                "depth": 1,
                                "id": 3,
                                "order": 3
                            }
                        ],
                        "depth": 0,
                        "id": 0,
                        "order": 0
                    }
                ],
                "depth": -1,
                "id": -1,
                "order": -1
            }
        ],
        "tidyTraceNodeCount": 4
    },
    "state_change": {
        "stateChanges": [
            {
                "address": "0x49ea69b657394d9edc37f59cad45169a3203bf64",
                "erc": "",
                "slots": [
                    {
                        "current": "0x000000000000000000000000000000000000000000000000002386f26fc10000",
                        "key": "0x1f6a8ee88f6a1769723ceafb925f314f79233f35d44b8db9abe240ebd9cf2519",
                        "prev": "0x000000000000000000000000000000000000000000000000001ff973cafa8000"
                    },
                    {
                        "current": "0x000000000000000000000000000000000000000000000000002386f26fc10000",
                        "key": "0xe552d02900cd07309da1239a0a06c13e680fe759ca353f6b961264fbae5288c3",
                        "prev": "0x000000000000000000000000000000000000000000000000001ff973cafa8000"
                    }
                ],
                "storageVariables": []
            },
            {
                "address": "0xae33185575973ee122793b5703273e502caee424",
                "erc": "",
                "slots": [
                    {
                        "current": "0x000000000000000000000000000000000000000000000000000000000000004d",
                        "key": "0xe85b4a1d4272499521508d99f1afe5e05d9926822e9b519a8ca2912f7f5ee0b4",
                        "prev": "0x000000000000000000000000000000000000000000000000000000000000004c"
                    },
                    {
                        "current": "0x00000000000000000000000000000000000000000000000001118f178fb48000",
                        "key": "0xe85b4a1d4272499521508d99f1afe5e05d9926822e9b519a8ca2912f7f5ee0b5",
                        "prev": "0x000000000000000000000000000000000000000000000000010e0198eaee0000"
                    }
                ],
                "storageVariables": [
                    {
                        "name": "rounds",
                        "type": "mapping(uint256 => struct ClashHash.Round)",
                        "value": {
                            "pairs": [
                                {
                                    "key": "7158000",
                                    "value": {
                                        "fields": [
                                            {
                                                "name": "betsCount",
                                                "type": "uint256",
                                                "value": {
                                                    "current": "77",
                                                    "prev": "76",
                                                    "typeTag": 1
                                                }
                                            },
                                            {
                                                "name": "totalReward",
                                                "type": "uint256",
                                                "value": {
                                                    "current": "77000000000000000",
                                                    "prev": "76000000000000000",
                                                    "typeTag": 1
                                                }
                                            }
                                        ],
                                        "typeTag": 3
                                    }
                                }
                            ],
                            "typeTag": 4
                        }
                    }
                ]
            }
        ]
    }
}