{
    "balance_change": {
        "balanceChanges": [
            {
                "account": "0x03747f06215b44e498831da019b27f53e483599f",
                "assets": [
                    {
                        "address": "0x419d0d8bdd9af5e606ae2232ed285aff190e711b",
                        "amount": "10,000",
                        "iconUrl": "https://assets.blocksec.com/icon/416669ea5112a0c54fce100e8c150455ffe791ed46d87ba051143f3ba702dd7c.png",
                        "isERC1155": false,
                        "isERC721": false,
                        "sign": false,
                        "value": ""
                    }
                ]
            },
            {
                "account": "0xedcc4ceaa617f361eac5a9df032760019db55c47",
                "assets": [
                    {
                        "address": "0x419d0d8bdd9af5e606ae2232ed285aff190e711b",
                        "amount": "10,000",
                        "iconUrl": "https://assets.blocksec.com/icon/416669ea5112a0c54fce100e8c150455ffe791ed46d87ba051143f3ba702dd7c.png",
                        "isERC1155": false,
                        "isERC721": false,
                        "sign": true,
                        "value": ""
                    }
                ]
            }
        ]
    },
    "profile": {
        "basic_info": {
            "baseFee": "",
            "blockNumber": 5168504,
            "callData": "0xa9059cbb000000000000000000000000edcc4ceaa617f361eac5a9df032760019db55c47000000000000000000000000000000000000000000000000000000e8d4a51000",
            "debugEnable": true,
            "errorInfo": "",
            "eventCount": 1,
            "feeRecipient": "0x6a7a43be33ba930fe58f34e07d0ad6ba7adb9b1f",
            "formatValue": "0",
            "gasLimit": 158999,
            "gasPrice": "113.1",
            "gasUsed": 58999,
            "intTxnCount": 2,
            "internalRevert": false,
            "internalRevertMessage": "",
            "isContractCreation": false,
            "isFlashloan": false,
            "maxFee": "",
            "nonce": 154885,
            "overwritedBlockNumber": -1,
            "priorityFee": "",
            "receiver": "0x419d0d8bdd9af5e606ae2232ed285aff190e711b",
            "revertMessage": "",
            "sender": "0x03747f06215b44e498831da019b27f53e483599f",
            "simulationEnable": true,
            "sourceTxnHash": "0xbd1bef3d4f3dbd8289a9a6acd3dfe48ec82cfc007adba1c082bad6f4eec4eec5",
            "status": true,
            "timestamp": "2018-02-28T01:05:42Z",
            "transactionFee": "0.0066727869",
            "txnHash": "0xbd1bef3d4f3dbd8289a9a6acd3dfe48ec82cfc007adba1c082bad6f4eec4eec5",
            "txnIndex": 0,
            "type": 0,
            "value": "0"
        },
        "fund_flow": [
            {
                "amount": "10,000",
                "from": "0x03747f06215b44e498831da019b27f53e483599f",
                "id": 1,
                "isERC1155": false,
                "isERC721": false,
                "isReverted": false,
                "order": 1,
                "to": "0xedcc4ceaa617f361eac5a9df032760019db55c47",
                "token": "0x419d0d8bdd9af5e606ae2232ed285aff190e711b"
            }
        ],
        "token_infos": [
            {
                "address": "0xeeeeeeeeeeeeeeeeeeeeeeeeeeeeeeeeeeeeeeee",
                "decimals": 18
            },
            {
                "address": "0x419d0d8bdd9af5e606ae2232ed285aff190e711b",
                "decimals": 8
            },
            {
                "address": "0xc02aaa39b223fe8d0a0e5c4f27ead9083c756cc2",
                "decimals": 18
            }
        ]
    },
    "address_label": {
        "labels": [
            {
                "address": "0x0000000000000000000000000000000000000002",
                "label": "Precompiled"
            },
            {
                "address": "0x0000000000000000000000000000000000000004",
                "label": "Precompiled"
            },
            {
                "address": "0xedcc4ceaa617f361eac5a9df032760019db55c47",
                "label": "BITFINEX"
            },
            {
                "address": "0xe6a51bd48f93abcd6c1d532112094044971d8d4e",
                "label": "Ledger"
            },
            {
                "address": "0x267808e5246d14ac39720aa62da5b33651b680ce",
                "label": "Controller"
            },
            {
                "address": "0x0000000000000000000000000000000000000001",
                "label": "Precompiled"
            },
            {
                "address": "0xeeeeeeeeeeeeeeeeeeeeeeeeeeeeeeeeeeeeeeee",
                "label": "Ether"
            },
            {
                "address": "0x03747f06215b44e498831da019b27f53e483599f",
                "label": "Upbit 5"
            },
            {
                "address": "0x419d0d8bdd9af5e606ae2232ed285aff190e711b",
                "label": "FunFair Token"
            },
            {
                "address": "0x0000000000000000000000000000000000000003",
                "label": "Precompiled"
            }
        ]
    },
    "trace": {
        "accountLabels": null,
        "dataMap": {
            "-1": {
                "invocation": {
                    "address": "0x03747f06215b44e498831da019b27f53e483599f",
                    "callData": "",
                    "decodedMethod": null,
                    "errorInfo": "",
                    "fromAddress": "",
                    "gasUsed": 0,
                    "id": -1,
                    "methodDecoded": false,
                    "operation": "",
                    "output": "",
                    "revert": false,
                    "revertMessage": "",
                    "selector": "",
                    "status": false,
                    "value": ""
                },
                "nodeType": 0
            },
            "0": {
                "invocation": {
                    "address": "0x419d0d8bdd9af5e606ae2232ed285aff190e711b",
                    "callData": "0x000000000000000000000000edcc4ceaa617f361eac5a9df032760019db55c47000000000000000000000000000000000000000000000000000000e8d4a51000",
                    "decodedMethod": {
                        "callParams": [
                            {
                                "name": "_to",
                                "type": "address",
                                "value": "0xedcc4ceaa617f361eac5a9df032760019db55c47"
                            },
                            {
                                "decimalAvailable": true,
                                "name": "_value",
                                "type": "uint256",
                                "value": "1,000,000,000,000"
                            }
                        ],
                        "constructorArguments": "",
                        "name": "transfer",
                        "returnParams": [
                            {
                                "name": "success",
                                "type": "bool",
                                "value": true
                            }
                        ],
                        "signature": "transfer(address,uint256)"
                    },
                    "errorInfo": "",
                    "fromAddress": "0x03747f06215b44e498831da019b27f53e483599f",
                    "gasUsed": 58999,
                    "id": 0,
                    "methodDecoded": true,
                    "operation": "CALL",
                    "output": "0x0000000000000000000000000000000000000000000000000000000000000001",
                    "revert": false,
                    "revertMessage": "",
                    "selector": "0xa9059cbb",
                    "status": true,
                    "value": "0"
                },
                "nodeType": 0
            },
            "1": {
                "invocation": {
                    "address": "0x267808e5246d14ac39720aa62da5b33651b680ce",
                    "callData": "0x00000000000000000000000003747f06215b44e498831da019b27f53e483599f000000000000000000000000edcc4ceaa617f361eac5a9df032760019db55c47000000000000000000000000000000000000000000000000000000e8d4a51000",
                    "decodedMethod": {
                        "callParams": [
                            {
                                "name": "_from",
                                "type": "address",
                                "value": "0x03747f06215b44e498831da019b27f53e483599f"
                            },
                            {
                                "name": "_to",
                                "type": "address",
                                "value": "0xedcc4ceaa617f361eac5a9df032760019db55c47"
                            },
                            {
                                "name": "_value",
                                "type": "uint256",
                                "value": "1,000,000,000,000"
                            }
                        ],
                        "constructorArguments": "",
                        "name": "transfer",
                        "returnParams": [
                            {
                                "name": "success",
                                "type": "bool",
                                "value": true
                            }
                        ],
                        "signature": "transfer(address,address,uint256)"
                    },
                    "errorInfo": "",
                    "fromAddress": "0x419d0d8bdd9af5e606ae2232ed285aff190e711b",
                    "gasUsed": 31092,
                    "id": 1,
                    "methodDecoded": true,
                    "operation": "CALL",
                    "output": "0x0000000000000000000000000000000000000000000000000000000000000001",
                    "revert": false,
                    "revertMessage": "",
                    "selector": "0xbeabacc8",
                    "status": true,
                    "value": "0"
                },
                "nodeType": 0
            },
            "2": {
                "invocation": {
                    "address": "0xe6a51bd48f93abcd6c1d532112094044971d8d4e",
                    "callData": "0x00000000000000000000000003747f06215b44e498831da019b27f53e483599f000000000000000000000000edcc4ceaa617f361eac5a9df032760019db55c47000000000000000000000000000000000000000000000000000000e8d4a51000",
                    "decodedMethod": {
                        "callParams": [
                            {
                                "name": "_from",
                                "type": "address",
                                "value": "0x03747f06215b44e498831da019b27f53e483599f"
                            },
                            {
                                "name": "_to",
                                "type": "address",
                                "value": "0xedcc4ceaa617f361eac5a9df032760019db55c47"
                            },
                            {
                                "name": "_value",
                                "type": "uint256",
                                "value": "1,000,000,000,000"
                            }
                        ],
                        "constructorArguments": "",
                        "name": "transfer",
                        "returnParams": [
                            {
                                "name": "success",
                                "type": "bool",
                                "value": true
                            }
                        ],
                        "signature": "transfer(address,address,uint256)"
                    },
                    "errorInfo": "",
                    "fromAddress": "0x267808e5246d14ac39720aa62da5b33651b680ce",
                    "gasUsed": 27481,
                    "id": 2,
                    "methodDecoded": true,
                    "operation": "CALL",
                    "output": "0x0000000000000000000000000000000000000000000000000000000000000001",
                    "revert": false,
                    "revertMessage": "",
                    "selector": "0xbeabacc8",
                    "status": true,
                    "value": "0"
                },
                "nodeType": 0
            },
            "3": {
                "event": {
                    "contract": "0x419d0d8bdd9af5e606ae2232ed285aff190e711b",
                    "decodedLog": {
                        "name": "Transfer",
                        "params": [
                            {
                                "name": "from",
                                "type": "address",
                                "value": "0x03747f06215b44e498831da019b27f53e483599f"
                            },
                            {
                                "name": "to",
                                "type": "address",
                                "value": "0xedcc4ceaa617f361eac5a9df032760019db55c47"
                            },
                            {
                                "decimalAvailable": true,
                                "name": "value",
                                "type": "uint256",
                                "value": "1,000,000,000,000"
                            }
                        ],
                        "signature": "Transfer(address,address,uint256)"
                    },
                    "id": 3,
                    "logData": "0x000000000000000000000000000000000000000000000000000000e8d4a51000",
                    "logDecoded": true,
                    "operation": "EVENT",
                    "revert": false,
                    "status": true,
                    "topics": [
                        "0xddf252ad1be2c89b69c2b068fc378daa952ba7f163c4a11628f55a4df523b3ef",
                        "0x00000000000000000000000003747f06215b44e498831da019b27f53e483599f",
                        "0x000000000000000000000000edcc4ceaa617f361eac5a9df032760019db55c47"
                    ]
                },
                "nodeType": 1
            }
        },
        "gasFlame": [
            {
                "children": [
                    {
                        "children": [
                            {
                                "children": [],
                                "depth": 0,
                                "name": "Initial Gas",
                                "value": 23064
                            },
                            {
                                "children": [
                                    {
                                        "children": [
                                            {
                                                "children": [],
                                                "depth": 2,
                                                "name": "transfer",
                                                "value": 27481
                                            }
                                        ],
                                        "depth": 1,
                                        "name": "transfer",
                                        "value": 31092
                                    }
                                ],
                                "depth": 0,
                                "name": "Executed Gas",
                                "value": 35935
                            }
                        ],
                        "depth": -1,
                        "name": "Actual Gas Used",
                        "value": 58999
                    },
                    {
                        "children": [],
                        "depth": -1,
                        "name": "Refunded Gas",
                        "value": 0
                    }
                ],
                "depth": -2,
                "name": "Total Gas",
                "value": 58999
            }
        ],
        "isConfirmed": true,
        "mainTrace": [
            {
                "children": [
                    {
                        "children": [
                            {
                                "children": [
                                    {
                                        "children": [],
                                        "depth": 2,
                                        "id": 2,
                                        "order": 2
                                    }
                                ],
                                "depth": 1,
                                "id": 1,
                                "order": 1
                            },
                            {
                                "children": [],
                                "depth": 1,
                                "id": 3,
                                "order": 3
                            }
                        ],
                        "depth": 0,
                        "id": 0,
                        "order": 0
                    }
                ],
                "depth": -1,
                "id": -1,
                "order": -1
            }
        ],
        "mainTraceNodeCount": 4,
        "parentIdMap": {
            "0": -1,
            "1": 0,
            "2": 1,
            "3": 0
        },
        "tidyTrace": [
            {
                "children": [
                    {
                        "children": [
                            {
                                "children": [
                                    {
                                        "children": [],
                                        "depth": 2,
                                        "id": 2,
                                        "order": 2
                                    }
                                ],
                                "depth": 1,
                                "id": 1,
                                "order": 1
                            },
                            {
                                "children": [],
                                "depth": 1,
                                "id": 3,
                                "order": 3
                            }
                        ],
                        "depth": 0,
                        "id": 0,
                        "order": 0
                    }
                ],
                "depth": -1,
                "id": -1,
                "order": -1
            }
        ],
        "tidyTraceNodeCount": 4
    },
    "state_change": {
        "stateChanges": [
            {
                "address": "0xe6a51bd48f93abcd6c1d532112094044971d8d4e",
                "erc": "",
                "slots": [
                    {
                        "current": "0x000000000000000000000000000000000000000000000000000201a1f75478a5",
                        "key": "0x0056f441f50cf05a0802b24d58c7e7c31e242a6e0b415ca32f7153d19f66d842",
                        "prev": "0x0000000000000000000000000000000000000000000000000002028acbf988a5"
                    },
                    {
                        "current": "0x000000000000000000000000000000000000000000000000000000e8d4a51000",
                        "key": "0x10ee8c1f651b9d00ec80790ee4eae1edbbb2f2509a0d7b8410fea163320e4def",
                        "prev": "0x0000000000000000000000000000000000000000000000000000000000000000"
                    }
                ],
                "storageVariables": []
            }
        ]
    }
}