{
    "balance_change": {
        "balanceChanges": [
            {
                "account": "0xe4837847643c6c4455c51126ce6ec0ad2b7234a1",
                "assets": [
                    {
                        "address": "0x514910771af9ca656af840dff83e8264ecf986ca",
                        "amount": "9.09416661",
                        "iconUrl": "https://assets.blocksec.com/icon/f97453a18956674db69f16b525216d646fc76f3c7f90f0cd6147f8534d5af3e9.png",
                        "isERC1155": false,
                        "isERC721": false,
                        "sign": false,
                        "value": "269.8262608"
                    }
                ]
            },
            {
                "account": "0x6262998ced04146fa42253a5c0af90ca02dfd2a3",
                "assets": [
                    {
                        "address": "0x514910771af9ca656af840dff83e8264ecf986ca",
                        "amount": "9.09416661",
                        "iconUrl": "https://assets.blocksec.com/icon/f97453a18956674db69f16b525216d646fc76f3c7f90f0cd6147f8534d5af3e9.png",
                        "isERC1155": false,
                        "isERC721": false,
                        "sign": true,
                        "value": "269.8262608"
                    }
                ]
            }
        ]
    },
    "profile": {
        "basic_info": {
            "baseFee": "",
            "blockNumber": 12470694,
            "callData": "0xa9059cbb0000000000000000000000006262998ced04146fa42253a5c0af90ca02dfd2a30000000000000000000000000000000000000000000000007e34f8594d44b400",
            "debugEnable": true,
            "errorInfo": "",
            "eventCount": 1,
            "feeRecipient": "0xb3b7874f13387d44a3398d298b075b7a3505d8d4",
            "formatValue": "0",
            "gasLimit": 52484,
            "gasPrice": "86",
            "gasUsed": 19989,
            "intTxnCount": 0,
            "internalRevert": false,
            "internalRevertMessage": "",
            "isContractCreation": false,
            "isFlashloan": false,
            "maxFee": "",
            "nonce": 0,
            "overwritedBlockNumber": -1,
            "priorityFee": "",
            "receiver": "0x514910771af9ca656af840dff83e8264ecf986ca",
            "revertMessage": "",
            "sender": "0xe4837847643c6c4455c51126ce6ec0ad2b7234a1",
            "simulationEnable": true,
            "sourceTxnHash": "0xbe1114e9fa5ec6cf3c93224e996eee58dc5eb23981a2c04dd3519fc2902ed23b",
            "status": true,
            "timestamp": "2021-05-20T10:20:19Z",
            "transactionFee": "0.001719054",
            "txnHash": "0xbe1114e9fa5ec6cf3c93224e996eee58dc5eb23981a2c04dd3519fc2902ed23b",
            "txnIndex": 46,
            "type": 0,
            "value": "0"
        },
        "fund_flow": [
            {
                "amount": "9.09416661",
                "from": "0xe4837847643c6c4455c51126ce6ec0ad2b7234a1",
                "id": 1,
                "isERC1155": false,
                "isERC721": false,
                "isReverted": false,
                "order": 1,
                "to": "0x6262998ced04146fa42253a5c0af90ca02dfd2a3",
                "token": "0x514910771af9ca656af840dff83e8264ecf986ca"
            }
        ],
        "token_infos": [
            {
                "address": "0xc02aaa39b223fe8d0a0e5c4f27ead9083c756cc2",
                "decimals": 18
            },
            {
                "address": "0xeeeeeeeeeeeeeeeeeeeeeeeeeeeeeeeeeeeeeeee",
                "decimals": 18
            },
            {
                "address": "0x514910771af9ca656af840dff83e8264ecf986ca",
                "decimals": 18
            }
        ]
    },
    "address_label": {
        "labels": [
            {
                "address": "0x0000000000000000000000000000000000000003",
                "label": "Precompiled"
            },
            {
                "address": "0x0000000000000000000000000000000000000004",
                "label": "Precompiled"
            },
            {
                "address": "0xeeeeeeeeeeeeeeeeeeeeeeeeeeeeeeeeeeeeeeee",
                "label": "Ether"
            },
            {
                "address": "0x514910771af9ca656af840dff83e8264ecf986ca",
                "label": "Chainlink: LINK Token"
            },
            {
                "address": "0x6262998ced04146fa42253a5c0af90ca02dfd2a3",
                "label": "Crypto.com"
            },
            {
                "address": "0xe4837847643c6c4455c51126ce6ec0ad2b7234a1",
                "label": "CRYPTO.COM"
            },
            {
                "address": "0x0000000000000000000000000000000000000001",
                "label": "Precompiled"
            },
            {
                "address": "0x0000000000000000000000000000000000000002",
                "label": "Precompiled"
            }
        ]
    },
    "trace": {
        "accountLabels": null,
        "dataMap": {
            "-1": {
                "invocation": {
                    "address": "0xe4837847643c6c4455c51126ce6ec0ad2b7234a1",
                    "callData": "",
                    "decodedMethod": null,
                    "errorInfo": "",
                    "fromAddress": "",
                    "gasUsed": 0,
                    "id": -1,
                    "methodDecoded": false,
                    "operation": "",
                    "output": "",
                    "revert": false,
                    "revertMessage": "",
                    "selector": "",
                    "status": false,
                    "value": ""
                },
                "nodeType": 0
            },
            "0": {
                "invocation": {
                    "address": "0x514910771af9ca656af840dff83e8264ecf986ca",
                    "callData": "0x0000000000000000000000006262998ced04146fa42253a5c0af90ca02dfd2a30000000000000000000000000000000000000000000000007e34f8594d44b400",
                    "decodedMethod": {
                        "callParams": [
                            {
                                "name": "_to",
                                "type": "address",
                                "value": "0x6262998ced04146fa42253a5c0af90ca02dfd2a3"
                            },
                            {
                                "decimalAvailable": true,
                                "name": "_value",
                                "type": "uint256",
                                "value": "9,094,166,610,000,000,000"
                            }
                        ],
                        "constructorArguments": "",
                        "name": "transfer",
                        "returnParams": [
                            {
                                "name": "success",
                                "type": "bool",
                                "value": true
                            }
                        ],
                        "signature": "transfer(address,uint256)"
                    },
                    "errorInfo": "",
                    "fromAddress": "0xe4837847643c6c4455c51126ce6ec0ad2b7234a1",
                    "gasUsed": 19989,
                    "id": 0,
                    "methodDecoded": true,
                    "operation": "CALL",
                    "output": "0x0000000000000000000000000000000000000000000000000000000000000001",
                    "revert": false,
                    "revertMessage": "",
                    "selector": "0xa9059cbb",
                    "status": true,
                    "value": "0"
                },
                "nodeType": 0
            },
            "1": {
                "event": {
                    "contract": "0x514910771af9ca656af840dff83e8264ecf986ca",
                    "decodedLog": {
                        "name": "Transfer",
                        "params": [
                            {
                                "name": "from",
                                "type": "address",
                                "value": "0xe4837847643c6c4455c51126ce6ec0ad2b7234a1"
                            },
                            {
                                "name": "to",
                                "type": "address",
                                "value": "0x6262998ced04146fa42253a5c0af90ca02dfd2a3"
                            },
                            {
                                "decimalAvailable": true,
                                "name": "value",
                                "type": "uint256",
                                "value": "9,094,166,610,000,000,000"
                            }
                        ],
                        "signature": "Transfer(address,address,uint256)"
                    },
                    "id": 1,
                    "logData": "0x0000000000000000000000000000000000000000000000007e34f8594d44b400",
                    "logDecoded": true,
                    "operation": "EVENT",
                    "revert": false,
                    "status": true,
                    "topics": [
                        "0xddf252ad1be2c89b69c2b068fc378daa952ba7f163c4a11628f55a4df523b3ef",
                        "0x000000000000000000000000e4837847643c6c4455c51126ce6ec0ad2b7234a1",
                        "0x0000000000000000000000006262998ced04146fa42253a5c0af90ca02dfd2a3"
                    ]
                },
                "nodeType": 1
            }
        },
        "gasFlame": [
            {
                "children": [
                    {
                        "children": [
                            {
                                "children": [],
                                "depth": 0,
                                "name": "Initial Gas",
                                "value": 21644
                            },
                            {
                                "children": [],
                                "depth": 0,
                                "name": "Executed Gas",
                                "value": 13345
                            }
                        ],
                        "depth": -1,
                        "name": "Actual Gas Used",
                        "value": 19989
                    },
                    {
                        "children": [],
                        "depth": -1,
                        "name": "Refunded Gas",
                        "value": 15000
                    }
                ],
                "depth": -2,
                "name": "Total Gas",
                "value": 34989
            }
        ],
        "isConfirmed": true,
        "mainTrace": [
            {
                "children": [
                    {
                        "children": [
                            {
                                "children": [],
                                "depth": 1,
                                "id": 1,
                                "order": 1
                            }
                        ],
                        "depth": 0,
                        "id": 0,
                        "order": 0
                    }
                ],
                "depth": -1,
                "id": -1,
                "order": -1
            }
        ],
        "mainTraceNodeCount": 2,
        "parentIdMap": {
            "0": -1,
            "1": 0
        },
        "tidyTrace": [
            {
                "children": [
                    {
                        "children": [
                            {
                                "children": [],
                                "depth": 1,
                                "id": 1,
                                "order": 1
                            }
                        ],
                        "depth": 0,
                        "id": 0,
                        "order": 0
                    }
                ],
                "depth": -1,
                "id": -1,
                "order": -1
            }
        ],
        "tidyTraceNodeCount": 2
    },
    "state_change": {
        "stateChanges": [
            {
                "address": "0x514910771af9ca656af840dff83e8264ecf986ca",
                "erc": "",
                "slots": [
                    {
                        "current": "0x0000000000000000000000000000000000000000000000000000000000000000",
                        "key": "0xc1540a7b72977546c9be7e5558492bf3801b6d3364ff254996c0f54d16d10c3d",
                        "prev": "0x0000000000000000000000000000000000000000000000007e34f8594d44b400"
                    },
                    {
                        "current": "0x0000000000000000000000000000000000000000000040e0ab78beafea8d2f3e",
                        "key": "0x86368fd99f6b17e50e2d92314b6c1b330548b6b05320db22dafe48802b732857",
                        "prev": "0x0000000000000000000000000000000000000000000040e02d43c6569d487b3e"
                    }
                ],
                "storageVariables": [
                    {
                        "name": "balances",
                        "type": "mapping(address => uint256)",
                        "value": {
                            "pairs": [
                                {
                                    "key": "0x6262998ced04146fa42253a5c0af90ca02dfd2a3",
                                    "value": {
                                        "current": "306375881411408687869758",
                                        "prev": "306366787244798687869758",
                                        "typeTag": 1
                                    }
                                },
                                {
                                    "key": "0xe4837847643c6c4455c51126ce6ec0ad2b7234a1",
                                    "value": {
                                        "current": "0",
                                        "prev": "9094166610000000000",
                                        "typeTag": 1
                                    }
                                }
                            ],
                            "typeTag": 4
                        }
                    }
                ]
            }
        ]
    }
}