{
    "balance_change": {
        "balanceChanges": [
            {
                "account": "0x6cc8dcbca746a6e4fdefb98e1d0df903b107fd21",
                "assets": [
                    {
                        "address": "0xdac17f958d2ee523a2206206994597c13d831ec7",
                        "amount": "810.78",
                        "iconUrl": "https://assets.blocksec.com/icon/fcea71f3193ce895be44bfdf941f7e4c9381dd587f273c2d1a27f1263d84e4ea.png",
                        "isERC1155": false,
                        "isERC721": false,
                        "sign": false,
                        "value": "810.8990792"
                    }
                ]
            },
            {
                "account": "0x0bc95df533c9c517391a834b91f51a673e8c19ea",
                "assets": [
                    {
                        "address": "0xdac17f958d2ee523a2206206994597c13d831ec7",
                        "amount": "810.78",
                        "iconUrl": "https://assets.blocksec.com/icon/fcea71f3193ce895be44bfdf941f7e4c9381dd587f273c2d1a27f1263d84e4ea.png",
                        "isERC1155": false,
                        "isERC721": false,
                        "sign": true,
                        "value": "810.8990792"
                    }
                ]
            }
        ]
    },
    "profile": {
        "basic_info": {
            "baseFee": "141.954439209",
            "blockNumber": 13971121,
            "callData": "0xa9059cbb0000000000000000000000000bc95df533c9c517391a834b91f51a673e8c19ea0000000000000000000000000000000000000000000000000000000030538560",
            "debugEnable": true,
            "errorInfo": "",
            "eventCount": 1,
            "feeRecipient": "0xea674fdde714fd979de3edf0f56aa9716b898ec8",
            "formatValue": "0",
            "gasLimit": 88109,
            "gasPrice": "143.374595462",
            "gasUsed": 46109,
            "intTxnCount": 0,
            "internalRevert": false,
            "internalRevertMessage": "",
            "isContractCreation": false,
            "isFlashloan": false,
            "maxFee": "264.103462195",
            "nonce": 259743,
            "overwritedBlockNumber": -1,
            "priorityFee": "1.420156253",
            "receiver": "0xdac17f958d2ee523a2206206994597c13d831ec7",
            "revertMessage": "",
            "sender": "0x6cc8dcbca746a6e4fdefb98e1d0df903b107fd21",
            "simulationEnable": true,
            "sourceTxnHash": "0xbefa2fa2b01eb7a43b6d1a10e066c5bb8aad064bbc08b1dd18affd025a7a14a2",
            "status": true,
            "timestamp": "2022-01-09T11:35:28Z",
            "transactionFee": "0.006610859222157358",
            "txnHash": "0xbefa2fa2b01eb7a43b6d1a10e066c5bb8aad064bbc08b1dd18affd025a7a14a2",
            "txnIndex": 296,
            "type": 2,
            "value": "0"
        },
        "fund_flow": [
            {
                "amount": "810.78",
                "from": "0x6cc8dcbca746a6e4fdefb98e1d0df903b107fd21",
                "id": 1,
                "isERC1155": false,
                "isERC721": false,
                "isReverted": false,
                "order": 1,
                "to": "0x0bc95df533c9c517391a834b91f51a673e8c19ea",
                "token": "0xdac17f958d2ee523a2206206994597c13d831ec7"
            }
        ],
        "token_infos": [
            {
                "address": "0xc02aaa39b223fe8d0a0e5c4f27ead9083c756cc2",
                "decimals": 18
            },
            {
                "address": "0xdac17f958d2ee523a2206206994597c13d831ec7",
                "decimals": 6
            },
            {
                "address": "0xeeeeeeeeeeeeeeeeeeeeeeeeeeeeeeeeeeeeeeee",
                "decimals": 18
            }
        ]
    },
    "address_label": {
        "labels": [
            {
                "address": "0x6cc8dcbca746a6e4fdefb98e1d0df903b107fd21",
                "label": "Bitrue"
            },
            {
                "address": "0xdac17f958d2ee523a2206206994597c13d831ec7",
                "label": "Tether: USDT Stablecoin"
            },
            {
                "address": "0x0000000000000000000000000000000000000001",
                "label": "Precompiled"
            },
            {
                "address": "0x0000000000000000000000000000000000000002",
                "label": "Precompiled"
            },
            {
                "address": "0x0000000000000000000000000000000000000003",
                "label": "Precompiled"
            },
            {
                "address": "0x0000000000000000000000000000000000000004",
                "label": "Precompiled"
            },
            {
                "address": "0xeeeeeeeeeeeeeeeeeeeeeeeeeeeeeeeeeeeeeeee",
                "label": "Ether"
            },
            {
                "address": "0x0bc95df533c9c517391a834b91f51a673e8c19ea",
                "label": "UPHOLD"
            }
        ]
    },
    "trace": {
        "accountLabels": null,
        "dataMap": {
            "-1": {
                "invocation": {
                    "address": "0x6cc8dcbca746a6e4fdefb98e1d0df903b107fd21",
                    "callData": "",
                    "decodedMethod": null,
                    "errorInfo": "",
                    "fromAddress": "",
                    "gasUsed": 0,
                    "id": -1,
                    "methodDecoded": false,
                    "operation": "",
                    "output": "",
                    "revert": false,
                    "revertMessage": "",
                    "selector": "",
                    "status": false,
                    "value": ""
                },
                "nodeType": 0
            },
            "0": {
                "invocation": {
                    "address": "0xdac17f958d2ee523a2206206994597c13d831ec7",
                    "callData": "0x0000000000000000000000000bc95df533c9c517391a834b91f51a673e8c19ea0000000000000000000000000000000000000000000000000000000030538560",
                    "decodedMethod": {
                        "callParams": [
                            {
                                "name": "_to",
                                "type": "address",
                                "value": "0x0bc95df533c9c517391a834b91f51a673e8c19ea"
                            },
                            {
                                "decimalAvailable": true,
                                "name": "_value",
                                "type": "uint256",
                                "value": "810,780,000"
                            }
                        ],
                        "constructorArguments": "",
                        "name": "transfer",
                        "returnParams": [],
                        "signature": "transfer(address,uint256)"
                    },
                    "errorInfo": "",
                    "fromAddress": "0x6cc8dcbca746a6e4fdefb98e1d0df903b107fd21",
                    "gasUsed": 46109,
                    "id": 0,
                    "methodDecoded": true,
                    "operation": "CALL",
                    "output": "",
                    "revert": false,
                    "revertMessage": "",
                    "selector": "0xa9059cbb",
                    "status": true,
                    "value": "0"
                },
                "nodeType": 0
            },
            "1": {
                "event": {
                    "contract": "0xdac17f958d2ee523a2206206994597c13d831ec7",
                    "decodedLog": {
                        "name": "Transfer",
                        "params": [
                            {
                                "name": "from",
                                "type": "address",
                                "value": "0x6cc8dcbca746a6e4fdefb98e1d0df903b107fd21"
                            },
                            {
                                "name": "to",
                                "type": "address",
                                "value": "0x0bc95df533c9c517391a834b91f51a673e8c19ea"
                            },
                            {
                                "decimalAvailable": true,
                                "name": "value",
                                "type": "uint256",
                                "value": "810,780,000"
                            }
                        ],
                        "signature": "Transfer(address,address,uint256)"
                    },
                    "id": 1,
                    "logData": "0x0000000000000000000000000000000000000000000000000000000030538560",
                    "logDecoded": true,
                    "operation": "EVENT",
                    "revert": false,
                    "status": true,
                    "topics": [
                        "0xddf252ad1be2c89b69c2b068fc378daa952ba7f163c4a11628f55a4df523b3ef",
                        "0x0000000000000000000000006cc8dcbca746a6e4fdefb98e1d0df903b107fd21",
                        "0x0000000000000000000000000bc95df533c9c517391a834b91f51a673e8c19ea"
                    ]
                },
                "nodeType": 1
            }
        },
        "gasFlame": [
            {
                "children": [
                    {
                        "children": [
                            {
                                "children": [],
                                "depth": 0,
                                "name": "Initial Gas",
                                "value": 21608
                            },
                            {
                                "children": [],
                                "depth": 0,
                                "name": "Executed Gas",
                                "value": 24501
                            }
                        ],
                        "depth": -1,
                        "name": "Actual Gas Used",
                        "value": 46109
                    },
                    {
                        "children": [],
                        "depth": -1,
                        "name": "Refunded Gas",
                        "value": 0
                    }
                ],
                "depth": -2,
                "name": "Total Gas",
                "value": 46109
            }
        ],
        "isConfirmed": true,
        "mainTrace": [
            {
                "children": [
                    {
                        "children": [
                            {
                                "children": [],
                                "depth": 1,
                                "id": 1,
                                "order": 1
                            }
                        ],
                        "depth": 0,
                        "id": 0,
                        "order": 0
                    }
                ],
                "depth": -1,
                "id": -1,
                "order": -1
            }
        ],
        "mainTraceNodeCount": 2,
        "parentIdMap": {
            "0": -1,
            "1": 0
        },
        "tidyTrace": [
            {
                "children": [
                    {
                        "children": [
                            {
                                "children": [],
                                "depth": 1,
                                "id": 1,
                                "order": 1
                            }
                        ],
                        "depth": 0,
                        "id": 0,
                        "order": 0
                    }
                ],
                "depth": -1,
                "id": -1,
                "order": -1
            }
        ],
        "tidyTraceNodeCount": 2
    },
    "state_change": {
        "stateChanges": [
            {
                "address": "0xdac17f958d2ee523a2206206994597c13d831ec7",
                "erc": "ERC-20",
                "slots": [
                    {
                        "current": "0x0000000000000000000000000000000000000000000000000000000090443870",
                        "key": "0x5225efefa0be578dbb880e96fe459eb45ebdeb21cce74971d91dc84eb81c86ab",
                        "prev": "0x000000000000000000000000000000000000000000000000000000005ff0b310"
                    },
                    {
                        "current": "0x00000000000000000000000000000000000000000000000000000080183cf209",
                        "key": "0x3d03d08c85aeb1628531ad33546b0103b5d9f8253e42d873ec77da7d6205e7c6",
                        "prev": "0x0000000000000000000000000000000000000000000000000000008048907769"
                    }
                ],
                "storageVariables": [
                    {
                        "name": "balances",
                        "type": "mapping(address => uint256)",
                        "value": {
                            "pairs": [
                                {
                                    "key": "0x0bc95df533c9c517391a834b91f51a673e8c19ea",
                                    "value": {
                                        "current": "2420390000",
                                        "prev": "1609610000",
                                        "typeTag": 1
                                    }
                                },
                                {
                                    "key": "0x6cc8dcbca746a6e4fdefb98e1d0df903b107fd21",
                                    "value": {
                                        "current": "550162461193",
                                        "prev": "550973241193",
                                        "typeTag": 1
                                    }
                                }
                            ],
                            "typeTag": 4
                        }
                    }
                ]
            }
        ]
    }
}