{
    "balance_change": {
        "balanceChanges": [
            {
                "account": "0xd88b5bf857f546e7b71f67b1095b40af98d61ec3",
                "assets": [
                    {
                        "address": "0x0000000000a39bb272e79075ade125fd351887ac",
                        "amount": "0.31",
                        "iconUrl": "",
                        "isERC1155": false,
                        "isERC721": false,
                        "sign": true,
                        "value": ""
                    }
                ]
            },
            {
                "account": "0xd4e26683635bf3dc9ead5f31b935c33cc1ce1838",
                "assets": [
                    {
                        "address": "0x0000000000a39bb272e79075ade125fd351887ac",
                        "amount": "0.31",
                        "iconUrl": "",
                        "isERC1155": false,
                        "isERC721": false,
                        "sign": false,
                        "value": ""
                    }
                ]
            }
        ]
    },
    "profile": {
        "basic_info": {
            "baseFee": "54.159882766",
            "blockNumber": 18724679,
            "callData": "0x736da5ad000000000000000000000000d88b5bf857f546e7b71f67b1095b40af98d61ec3000000000000000000000000a31a661fa0247e04499291c98c57ca23dc2d26db000000000000000000000000b6a37b5d14d502c3ab0ae6f3a0e058bc9517786e00000000000000000000000000000000000000000000000000000000000022c3000000000000000000000000000000000000000000000000044d575b885f000000000000000000000000000000000000000000000000000000000000656e719b000000000000000000000000000000000000000000000000000000000000000000000000000000000000000000000000000000000000000000000000000000000000000000000000000000000000000000000000000000000000000000002328000000000000000000000000000000000000000000000000000000000002208f000000000000000000000000d4e26683635bf3dc9ead5f31b935c33cc1ce1838000000000000000000000000b6a37b5d14d502c3ab0ae6f3a0e058bc9517786e00000000000000000000000000000000000000000000000f38e2004201b000000000000000000000000000000000000000000000000000000000000000000000000000000000000000000000000000000000000000000000058d15e176280000000000000000000000000000000000000000000000000000000000000000232800000000000000000000000000000000f7fef8d0e75f6cb6891c84d0db5ee05a000000000000000000000000000000000000000000000000000000006596e20b0000000000000000000000000000000000000000000000000000000000000000000000000000000000000000473ca1d29a136b935a96380ea342f296b4eea82c00000000000000000000000000000000000000000000000000000000000002a000000000000000000000000000000000000000000000000000000000000000a21740ba147a6c3e769653ded79414ae9ad130d8382ce26f6d3776d21d8e5e8ef8480936bb3842ea8b4c156fb64a3e014d83c875d920bb59775ee865f63322b9ee1ce7e1295d6ee4099ed850e7a741dbe6ef37899b24760356716794452bb7e0f5ab523f5b0d6830c37f43626f7766229ffdadb11ad9eb4e87d10eb49c6376876d0e1c00000000000000000000000000000000000000000000000000000000011db742000000000000000000000000000000000000000000000000000000000000",
            "debugEnable": true,
            "errorInfo": "",
            "eventCount": 3,
            "feeRecipient": "0x388c818ca8b9251b393131c08a736a67ccb19297",
            "formatValue": "0",
            "gasLimit": 103460,
            "gasPrice": "54.259882766",
            "gasUsed": 99240,
            "intTxnCount": 6,
            "internalRevert": false,
            "internalRevertMessage": "",
            "isContractCreation": false,
            "isFlashloan": false,
            "maxFee": "68.646085477",
            "nonce": 485,
            "overwritedBlockNumber": -1,
            "priorityFee": "0.1",
            "receiver": "0x29469395eaf6f95920e59f858042f0e28d98a20b",
            "revertMessage": "",
            "sender": "0xd88b5bf857f546e7b71f67b1095b40af98d61ec3",
            "simulationEnable": true,
            "sourceTxnHash": "0xbeb7fc5724231d25bc229ff725a47a650fa8bf9db49c6cd57c21849af310546b",
            "status": true,
            "timestamp": "2023-12-06T03:42:59Z",
            "transactionFee": "0.00538475076569784",
            "txnHash": "0xbeb7fc5724231d25bc229ff725a47a650fa8bf9db49c6cd57c21849af310546b",
            "txnIndex": 75,
            "type": 2,
            "value": "0"
        },
        "fund_flow": [
            {
                "amount": "0.31",
                "from": "0xd4e26683635bf3dc9ead5f31b935c33cc1ce1838",
                "id": 1,
                "isERC1155": false,
                "isERC721": false,
                "isReverted": false,
                "order": 1,
                "to": "0xd88b5bf857f546e7b71f67b1095b40af98d61ec3",
                "token": "0x0000000000a39bb272e79075ade125fd351887ac"
            }
        ],
        "token_infos": [
            {
                "address": "0xc02aaa39b223fe8d0a0e5c4f27ead9083c756cc2",
                "decimals": 18
            },
            {
                "address": "0xeeeeeeeeeeeeeeeeeeeeeeeeeeeeeeeeeeeeeeee",
                "decimals": 18
            },
            {
                "address": "0x0000000000a39bb272e79075ade125fd351887ac",
                "decimals": 18
            }
        ]
    },
    "address_label": {
        "labels": [
            {
                "address": "0xeeeeeeeeeeeeeeeeeeeeeeeeeeeeeeeeeeeeeeee",
                "label": "Ether"
            },
            {
                "address": "0x5c55cd67a6bd0d4c315b50cb6cd589bfb080017e",
                "label": "Helpers"
            },
            {
                "address": "0xb6a37b5d14d502c3ab0ae6f3a0e058bc9517786e",
                "label": "Azuki: ELEM Token"
            },
            {
                "address": "0x01a656024de4b89e2d0198bf4d468e8fd2358b17",
                "label": "Blur Pool"
            },
            {
                "address": "0xb258ca5559b11cd702f363796522b04d7722ea56",
                "label": "Blend"
            },
            {
                "address": "0x0000000000000000000000000000000000000004",
                "label": "Precompiled"
            },
            {
                "address": "0x29469395eaf6f95920e59f858042f0e28d98a20b",
                "label": "Blur: Blend"
            },
            {
                "address": "0x0000000000a39bb272e79075ade125fd351887ac",
                "label": "Blur: Bidding"
            },
            {
                "address": "0x388c818ca8b9251b393131c08a736a67ccb19297",
                "label": "LidoExecutionLayerRewardsVault"
            },
            {
                "address": "0x0000000000000000000000000000000000000001",
                "label": "Precompiled"
            },
            {
                "address": "0x0000000000000000000000000000000000000002",
                "label": "Precompiled"
            },
            {
                "address": "0x0000000000000000000000000000000000000003",
                "label": "Precompiled"
            }
        ]
    },
    "trace": {
        "accountLabels": null,
        "dataMap": {
            "-1": {
                "invocation": {
                    "address": "0xd88b5bf857f546e7b71f67b1095b40af98d61ec3",
                    "callData": "",
                    "decodedMethod": null,
                    "errorInfo": "",
                    "fromAddress": "",
                    "gasUsed": 0,
                    "id": -1,
                    "methodDecoded": false,
                    "operation": "",
                    "output": "",
                    "revert": false,
                    "revertMessage": "",
                    "selector": "",
                    "status": false,
                    "value": ""
                },
                "nodeType": 0
            },
            "0": {
                "invocation": {
                    "address": "0x29469395eaf6f95920e59f858042f0e28d98a20b",
                    "callData": "0x000000000000000000000000d88b5bf857f546e7b71f67b1095b40af98d61ec3000000000000000000000000a31a661fa0247e04499291c98c57ca23dc2d26db000000000000000000000000b6a37b5d14d502c3ab0ae6f3a0e058bc9517786e00000000000000000000000000000000000000000000000000000000000022c3000000000000000000000000000000000000000000000000044d575b885f000000000000000000000000000000000000000000000000000000000000656e719b000000000000000000000000000000000000000000000000000000000000000000000000000000000000000000000000000000000000000000000000000000000000000000000000000000000000000000000000000000000000000000002328000000000000000000000000000000000000000000000000000000000002208f000000000000000000000000d4e26683635bf3dc9ead5f31b935c33cc1ce1838000000000000000000000000b6a37b5d14d502c3ab0ae6f3a0e058bc9517786e00000000000000000000000000000000000000000000000f38e2004201b000000000000000000000000000000000000000000000000000000000000000000000000000000000000000000000000000000000000000000000058d15e176280000000000000000000000000000000000000000000000000000000000000000232800000000000000000000000000000000f7fef8d0e75f6cb6891c84d0db5ee05a000000000000000000000000000000000000000000000000000000006596e20b0000000000000000000000000000000000000000000000000000000000000000000000000000000000000000473ca1d29a136b935a96380ea342f296b4eea82c00000000000000000000000000000000000000000000000000000000000002a000000000000000000000000000000000000000000000000000000000000000a21740ba147a6c3e769653ded79414ae9ad130d8382ce26f6d3776d21d8e5e8ef8480936bb3842ea8b4c156fb64a3e014d83c875d920bb59775ee865f63322b9ee1ce7e1295d6ee4099ed850e7a741dbe6ef37899b24760356716794452bb7e0f5ab523f5b0d6830c37f43626f7766229ffdadb11ad9eb4e87d10eb49c6376876d0e1c00000000000000000000000000000000000000000000000000000000011db742000000000000000000000000000000000000000000000000000000000000",
                    "decodedMethod": {
                        "callParams": [
                            {
                                "name": "lien",
                                "type": "(address,address,address,uint256,uint256,uint256,uint256,uint256,uint256)",
                                "value": [
                                    {
                                        "name": "lender",
                                        "type": "address",
                                        "value": "0xd88b5bf857f546e7b71f67b1095b40af98d61ec3"
                                    },
                                    {
                                        "name": "borrower",
                                        "type": "address",
                                        "value": "0xa31a661fa0247e04499291c98c57ca23dc2d26db"
                                    },
                                    {
                                        "name": "collection",
                                        "type": "address",
                                        "value": "0xb6a37b5d14d502c3ab0ae6f3a0e058bc9517786e"
                                    },
                                    {
                                        "name": "tokenId",
                                        "type": "uint256",
                                        "value": "8,899"
                                    },
                                    {
                                        "name": "amount",
                                        "type": "uint256",
                                        "value": "310,000,000,000,000,000"
                                    },
                                    {
                                        "name": "startTime",
                                        "type": "uint256",
                                        "value": "1,701,736,859"
                                    },
                                    {
                                        "name": "rate",
                                        "type": "uint256",
                                        "value": "0"
                                    },
                                    {
                                        "name": "auctionStartBlock",
                                        "type": "uint256",
                                        "value": "0"
                                    },
                                    {
                                        "name": "auctionDuration",
                                        "type": "uint256",
                                        "value": "9,000"
                                    }
                                ]
                            },
                            {
                                "name": "lienId",
                                "type": "uint256",
                                "value": "139,407"
                            },
                            {
                                "name": "offer",
                                "type": "(address,address,uint256,uint256,uint256,uint256,uint256,uint256,uint256,address)",
                                "value": [
                                    {
                                        "name": "lender",
                                        "type": "address",
                                        "value": "0xd4e26683635bf3dc9ead5f31b935c33cc1ce1838"
                                    },
                                    {
                                        "name": "collection",
                                        "type": "address",
                                        "value": "0xb6a37b5d14d502c3ab0ae6f3a0e058bc9517786e"
                                    },
                                    {
                                        "name": "totalAmount",
                                        "type": "uint256",
                                        "value": "280,800,000,000,000,000,000"
                                    },
                                    {
                                        "name": "minAmount",
                                        "type": "uint256",
                                        "value": "0"
                                    },
                                    {
                                        "name": "maxAmount",
                                        "type": "uint256",
                                        "value": "400,000,000,000,000,000"
                                    },
                                    {
                                        "name": "auctionDuration",
                                        "type": "uint256",
                                        "value": "9,000"
                                    },
                                    {
                                        "name": "salt",
                                        "type": "uint256",
                                        "value": "329,643,204,949,587,974,010,496,038,031,283,118,170"
                                    },
                                    {
                                        "name": "expirationTime",
                                        "type": "uint256",
                                        "value": "1,704,387,083"
                                    },
                                    {
                                        "name": "rate",
                                        "type": "uint256",
                                        "value": "0"
                                    },
                                    {
                                        "name": "oracle",
                                        "type": "address",
                                        "value": "0x473ca1d29a136b935a96380ea342f296b4eea82c"
                                    }
                                ]
                            },
                            {
                                "name": "signature",
                                "type": "bytes",
                                "value": "0x1740ba147a6c3e769653ded79414ae9ad130d8382ce26f6d3776d21d8e5e8ef8480936bb3842ea8b4c156fb64a3e014d83c875d920bb59775ee865f63322b9ee1ce7e1295d6ee4099ed850e7a741dbe6ef37899b24760356716794452bb7e0f5ab523f5b0d6830c37f43626f7766229ffdadb11ad9eb4e87d10eb49c6376876d0e1c00000000000000000000000000000000000000000000000000000000011db742"
                            }
                        ],
                        "constructorArguments": "",
                        "name": "refinance",
                        "returnParams": [],
                        "signature": "refinance((address,address,address,uint256,uint256,uint256,uint256,uint256,uint256),uint256,(address,address,uint256,uint256,uint256,uint256,uint256,uint256,uint256,address),bytes)"
                    },
                    "errorInfo": "",
                    "fromAddress": "0xd88b5bf857f546e7b71f67b1095b40af98d61ec3",
                    "gasUsed": 99240,
                    "id": 0,
                    "methodDecoded": true,
                    "operation": "CALL",
                    "output": "",
                    "revert": false,
                    "revertMessage": "",
                    "selector": "0x736da5ad",
                    "status": true,
                    "value": "0"
                },
                "nodeType": 0
            },
            "1": {
                "invocation": {
                    "address": "0xb258ca5559b11cd702f363796522b04d7722ea56",
                    "callData": "0x000000000000000000000000d88b5bf857f546e7b71f67b1095b40af98d61ec3000000000000000000000000a31a661fa0247e04499291c98c57ca23dc2d26db000000000000000000000000b6a37b5d14d502c3ab0ae6f3a0e058bc9517786e00000000000000000000000000000000000000000000000000000000000022c3000000000000000000000000000000000000000000000000044d575b885f000000000000000000000000000000000000000000000000000000000000656e719b000000000000000000000000000000000000000000000000000000000000000000000000000000000000000000000000000000000000000000000000000000000000000000000000000000000000000000000000000000000000000000002328000000000000000000000000000000000000000000000000000000000002208f000000000000000000000000d4e26683635bf3dc9ead5f31b935c33cc1ce1838000000000000000000000000b6a37b5d14d502c3ab0ae6f3a0e058bc9517786e00000000000000000000000000000000000000000000000f38e2004201b000000000000000000000000000000000000000000000000000000000000000000000000000000000000000000000000000000000000000000000058d15e176280000000000000000000000000000000000000000000000000000000000000000232800000000000000000000000000000000f7fef8d0e75f6cb6891c84d0db5ee05a000000000000000000000000000000000000000000000000000000006596e20b0000000000000000000000000000000000000000000000000000000000000000000000000000000000000000473ca1d29a136b935a96380ea342f296b4eea82c00000000000000000000000000000000000000000000000000000000000002a000000000000000000000000000000000000000000000000000000000000000a21740ba147a6c3e769653ded79414ae9ad130d8382ce26f6d3776d21d8e5e8ef8480936bb3842ea8b4c156fb64a3e014d83c875d920bb59775ee865f63322b9ee1ce7e1295d6ee4099ed850e7a741dbe6ef37899b24760356716794452bb7e0f5ab523f5b0d6830c37f43626f7766229ffdadb11ad9eb4e87d10eb49c6376876d0e1c00000000000000000000000000000000000000000000000000000000011db742000000000000000000000000000000000000000000000000000000000000",
                    "decodedMethod": {
                        "callParams": [
                            {
                                "name": "lien",
                                "type": "(address,address,address,uint256,uint256,uint256,uint256,uint256,uint256)",
                                "value": [
                                    {
                                        "name": "lender",
                                        "type": "address",
                                        "value": "0xd88b5bf857f546e7b71f67b1095b40af98d61ec3"
                                    },
                                    {
                                        "name": "borrower",
                                        "type": "address",
                                        "value": "0xa31a661fa0247e04499291c98c57ca23dc2d26db"
                                    },
                                    {
                                        "name": "collection",
                                        "type": "address",
                                        "value": "0xb6a37b5d14d502c3ab0ae6f3a0e058bc9517786e"
                                    },
                                    {
                                        "name": "tokenId",
                                        "type": "uint256",
                                        "value": "8,899"
                                    },
                                    {
                                        "name": "amount",
                                        "type": "uint256",
                                        "value": "310,000,000,000,000,000"
                                    },
                                    {
                                        "name": "startTime",
                                        "type": "uint256",
                                        "value": "1,701,736,859"
                                    },
                                    {
                                        "name": "rate",
                                        "type": "uint256",
                                        "value": "0"
                                    },
                                    {
                                        "name": "auctionStartBlock",
                                        "type": "uint256",
                                        "value": "0"
                                    },
                                    {
                                        "name": "auctionDuration",
                                        "type": "uint256",
                                        "value": "9,000"
                                    }
                                ]
                            },
                            {
                                "name": "lienId",
                                "type": "uint256",
                                "value": "139,407"
                            },
                            {
                                "name": "offer",
                                "type": "(address,address,uint256,uint256,uint256,uint256,uint256,uint256,uint256,address)",
                                "value": [
                                    {
                                        "name": "lender",
                                        "type": "address",
                                        "value": "0xd4e26683635bf3dc9ead5f31b935c33cc1ce1838"
                                    },
                                    {
                                        "name": "collection",
                                        "type": "address",
                                        "value": "0xb6a37b5d14d502c3ab0ae6f3a0e058bc9517786e"
                                    },
                                    {
                                        "name": "totalAmount",
                                        "type": "uint256",
                                        "value": "280,800,000,000,000,000,000"
                                    },
                                    {
                                        "name": "minAmount",
                                        "type": "uint256",
                                        "value": "0"
                                    },
                                    {
                                        "name": "maxAmount",
                                        "type": "uint256",
                                        "value": "400,000,000,000,000,000"
                                    },
                                    {
                                        "name": "auctionDuration",
                                        "type": "uint256",
                                        "value": "9,000"
                                    },
                                    {
                                        "name": "salt",
                                        "type": "uint256",
                                        "value": "329,643,204,949,587,974,010,496,038,031,283,118,170"
                                    },
                                    {
                                        "name": "expirationTime",
                                        "type": "uint256",
                                        "value": "1,704,387,083"
                                    },
                                    {
                                        "name": "rate",
                                        "type": "uint256",
                                        "value": "0"
                                    },
                                    {
                                        "name": "oracle",
                                        "type": "address",
                                        "value": "0x473ca1d29a136b935a96380ea342f296b4eea82c"
                                    }
                                ]
                            },
                            {
                                "name": "signature",
                                "type": "bytes",
                                "value": "0x1740ba147a6c3e769653ded79414ae9ad130d8382ce26f6d3776d21d8e5e8ef8480936bb3842ea8b4c156fb64a3e014d83c875d920bb59775ee865f63322b9ee1ce7e1295d6ee4099ed850e7a741dbe6ef37899b24760356716794452bb7e0f5ab523f5b0d6830c37f43626f7766229ffdadb11ad9eb4e87d10eb49c6376876d0e1c00000000000000000000000000000000000000000000000000000000011db742"
                            }
                        ],
                        "constructorArguments": "",
                        "name": "refinance",
                        "returnParams": [],
                        "signature": "refinance((address,address,address,uint256,uint256,uint256,uint256,uint256,uint256),uint256,(address,address,uint256,uint256,uint256,uint256,uint256,uint256,uint256,address),bytes)"
                    },
                    "errorInfo": "",
                    "fromAddress": "0x29469395eaf6f95920e59f858042f0e28d98a20b",
                    "gasUsed": 65841,
                    "id": 1,
                    "methodDecoded": true,
                    "operation": "DELEGATECALL",
                    "output": "",
                    "revert": false,
                    "revertMessage": "",
                    "selector": "0x736da5ad",
                    "status": true,
                    "value": "0"
                },
                "nodeType": 0
            },
            "2": {
                "invocation": {
                    "address": "0x5c55cd67a6bd0d4c315b50cb6cd589bfb080017e",
                    "callData": "0x000000000000000000000000000000000000000000000000044d575b885f0000000000000000000000000000000000000000000000000000000000000000000000000000000000000000000000000000000000000000000000000000656e719b",
                    "decodedMethod": {
                        "callParams": [
                            {
                                "name": "amount",
                                "type": "uint256",
                                "value": "310,000,000,000,000,000"
                            },
                            {
                                "name": "rate",
                                "type": "uint256",
                                "value": "0"
                            },
                            {
                                "name": "startTime",
                                "type": "uint256",
                                "value": "1,701,736,859"
                            }
                        ],
                        "constructorArguments": "",
                        "name": "computeCurrentDebt",
                        "returnParams": [
                            {
                                "name": "",
                                "type": "uint256",
                                "value": "310,000,000,000,000,000"
                            }
                        ],
                        "signature": "computeCurrentDebt(uint256,uint256,uint256)"
                    },
                    "errorInfo": "",
                    "fromAddress": "0x29469395eaf6f95920e59f858042f0e28d98a20b",
                    "gasUsed": 1468,
                    "id": 2,
                    "methodDecoded": true,
                    "operation": "DELEGATECALL",
                    "output": "0x000000000000000000000000000000000000000000000000044d575b885f0000",
                    "revert": false,
                    "revertMessage": "",
                    "selector": "0x1b70b278",
                    "status": true,
                    "value": "0"
                },
                "nodeType": 0
            },
            "3": {
                "invocation": {
                    "address": "0x0000000000000000000000000000000000000001",
                    "callData": "0xed797a5b2f515bf97f001cab8719e55151775e7f59d81c62bfdce358000000000000000000000000000000000000000000000000000000000000001c1740ba147a6c3e769653ded79414ae9ad130d8382ce26f6d3776d21d8e5e8ef8480936bb3842ea8b4c156fb64a3e014d83c875d920bb59775ee865f63322b9ee",
                    "decodedMethod": {
                        "callParams": [
                            {
                                "name": "hash",
                                "type": "bytes32",
                                "value": "0x15f133fded797a5b2f515bf97f001cab8719e55151775e7f59d81c62bfdce358"
                            },
                            {
                                "name": "v",
                                "type": "uint256",
                                "value": "28"
                            },
                            {
                                "name": "r",
                                "type": "bytes32",
                                "value": "0x1740ba147a6c3e769653ded79414ae9ad130d8382ce26f6d3776d21d8e5e8ef8"
                            },
                            {
                                "name": "s",
                                "type": "bytes32",
                                "value": "0x480936bb3842ea8b4c156fb64a3e014d83c875d920bb59775ee865f63322b9ee"
                            }
                        ],
                        "constructorArguments": "",
                        "name": "ecrecover",
                        "returnParams": [
                            {
                                "name": "",
                                "type": "address",
                                "value": "0xd4e26683635bf3dc9ead5f31b935c33cc1ce1838"
                            }
                        ],
                        "signature": "ecrecover(bytes32,uint256,bytes32,bytes32)"
                    },
                    "errorInfo": "",
                    "fromAddress": "0x29469395eaf6f95920e59f858042f0e28d98a20b",
                    "gasUsed": 3000,
                    "id": 3,
                    "methodDecoded": true,
                    "operation": "STATICCALL",
                    "output": "0x000000000000000000000000d4e26683635bf3dc9ead5f31b935c33cc1ce1838",
                    "revert": false,
                    "revertMessage": "",
                    "selector": "0x15f133fd",
                    "status": true,
                    "value": "0"
                },
                "nodeType": 0
            },
            "4": {
                "invocation": {
                    "address": "0x0000000000000000000000000000000000000001",
                    "callData": "0x44241931f4f114ecb36d97120bfab1679dc638e5377a9ef91c6a6b5d000000000000000000000000000000000000000000000000000000000000001ce7e1295d6ee4099ed850e7a741dbe6ef37899b24760356716794452bb7e0f5ab523f5b0d6830c37f43626f7766229ffdadb11ad9eb4e87d10eb49c6376876d0e",
                    "decodedMethod": {
                        "callParams": [
                            {
                                "name": "hash",
                                "type": "bytes32",
                                "value": "0xe416372544241931f4f114ecb36d97120bfab1679dc638e5377a9ef91c6a6b5d"
                            },
                            {
                                "name": "v",
                                "type": "uint256",
                                "value": "28"
                            },
                            {
                                "name": "r",
                                "type": "bytes32",
                                "value": "0xe7e1295d6ee4099ed850e7a741dbe6ef37899b24760356716794452bb7e0f5ab"
                            },
                            {
                                "name": "s",
                                "type": "bytes32",
                                "value": "0x523f5b0d6830c37f43626f7766229ffdadb11ad9eb4e87d10eb49c6376876d0e"
                            }
                        ],
                        "constructorArguments": "",
                        "name": "ecrecover",
                        "returnParams": [
                            {
                                "name": "",
                                "type": "address",
                                "value": "0x473ca1d29a136b935a96380ea342f296b4eea82c"
                            }
                        ],
                        "signature": "ecrecover(bytes32,uint256,bytes32,bytes32)"
                    },
                    "errorInfo": "",
                    "fromAddress": "0x29469395eaf6f95920e59f858042f0e28d98a20b",
                    "gasUsed": 3000,
                    "id": 4,
                    "methodDecoded": true,
                    "operation": "STATICCALL",
                    "output": "0x000000000000000000000000473ca1d29a136b935a96380ea342f296b4eea82c",
                    "revert": false,
                    "revertMessage": "",
                    "selector": "0xe4163725",
                    "status": true,
                    "value": "0"
                },
                "nodeType": 0
            },
            "5": {
                "event": {
                    "contract": "0x29469395eaf6f95920e59f858042f0e28d98a20b",
                    "decodedLog": {
                        "name": "LoanOfferTaken",
                        "params": [
                            {
                                "name": "offerHash",
                                "type": "bytes32",
                                "value": "0x8231698319cf11877fc27f1c1a4664f7e8f2d1b5c78023c8962dc01e5533ad4b"
                            },
                            {
                                "name": "lienId",
                                "type": "uint256",
                                "value": "139,407"
                            },
                            {
                                "name": "collection",
                                "type": "address",
                                "value": "0xb6a37b5d14d502c3ab0ae6f3a0e058bc9517786e"
                            },
                            {
                                "name": "lender",
                                "type": "address",
                                "value": "0xd4e26683635bf3dc9ead5f31b935c33cc1ce1838"
                            },
                            {
                                "name": "borrower",
                                "type": "address",
                                "value": "0xa31a661fa0247e04499291c98c57ca23dc2d26db"
                            },
                            {
                                "name": "loanAmount",
                                "type": "uint256",
                                "value": "310,000,000,000,000,000"
                            },
                            {
                                "name": "rate",
                                "type": "uint256",
                                "value": "0"
                            },
                            {
                                "name": "tokenId",
                                "type": "uint256",
                                "value": "8,899"
                            },
                            {
                                "name": "auctionDuration",
                                "type": "uint256",
                                "value": "9,000"
                            }
                        ],
                        "signature": "LoanOfferTaken(bytes32,uint256,address,address,address,uint256,uint256,uint256,uint256)"
                    },
                    "id": 5,
                    "logData": "0x8231698319cf11877fc27f1c1a4664f7e8f2d1b5c78023c8962dc01e5533ad4b000000000000000000000000000000000000000000000000000000000002208f000000000000000000000000b6a37b5d14d502c3ab0ae6f3a0e058bc9517786e000000000000000000000000d4e26683635bf3dc9ead5f31b935c33cc1ce1838000000000000000000000000a31a661fa0247e04499291c98c57ca23dc2d26db000000000000000000000000000000000000000000000000044d575b885f0000000000000000000000000000000000000000000000000000000000000000000000000000000000000000000000000000000000000000000000000000000022c30000000000000000000000000000000000000000000000000000000000002328",
                    "logDecoded": true,
                    "operation": "EVENT",
                    "revert": false,
                    "status": true,
                    "topics": [
                        "0x06a333c2d6fe967ca967f7a35be2eb45e8caeb6cf05e16f55d42b91b5fe31255"
                    ]
                },
                "nodeType": 1
            },
            "6": {
                "event": {
                    "contract": "0x29469395eaf6f95920e59f858042f0e28d98a20b",
                    "decodedLog": {
                        "name": "Refinance",
                        "params": [
                            {
                                "name": "loanId",
                                "type": "uint256",
                                "value": "139,407"
                            },
                            {
                                "name": "collateral",
                                "type": "address",
                                "value": "0xb6a37b5d14d502c3ab0ae6f3a0e058bc9517786e"
                            },
                            {
                                "name": "newLender",
                                "type": "address",
                                "value": "0xd4e26683635bf3dc9ead5f31b935c33cc1ce1838"
                            },
                            {
                                "name": "newAmount",
                                "type": "uint256",
                                "value": "310,000,000,000,000,000"
                            },
                            {
                                "name": "newRate",
                                "type": "uint256",
                                "value": "0"
                            },
                            {
                                "name": "newAuctionDuration",
                                "type": "uint256",
                                "value": "9,000"
                            }
                        ],
                        "signature": "Refinance(uint256,address,address,uint256,uint256,uint256)"
                    },
                    "id": 6,
                    "logData": "0x000000000000000000000000000000000000000000000000000000000002208f000000000000000000000000b6a37b5d14d502c3ab0ae6f3a0e058bc9517786e000000000000000000000000d4e26683635bf3dc9ead5f31b935c33cc1ce1838000000000000000000000000000000000000000000000000044d575b885f000000000000000000000000000000000000000000000000000000000000000000000000000000000000000000000000000000000000000000000000000000002328",
                    "logDecoded": true,
                    "operation": "EVENT",
                    "revert": false,
                    "status": true,
                    "topics": [
                        "0x558a9295c62e9e1b12a21c8fe816f4816a2e0269a53157edbfa16017b11b9ac9"
                    ]
                },
                "nodeType": 1
            },
            "7": {
                "invocation": {
                    "address": "0x0000000000a39bb272e79075ade125fd351887ac",
                    "callData": "0x000000000000000000000000d4e26683635bf3dc9ead5f31b935c33cc1ce1838000000000000000000000000d88b5bf857f546e7b71f67b1095b40af98d61ec3000000000000000000000000000000000000000000000000044d575b885f0000",
                    "decodedMethod": {
                        "callParams": [
                            {
                                "name": "from",
                                "type": "address",
                                "value": "0xd4e26683635bf3dc9ead5f31b935c33cc1ce1838"
                            },
                            {
                                "name": "to",
                                "type": "address",
                                "value": "0xd88b5bf857f546e7b71f67b1095b40af98d61ec3"
                            },
                            {
                                "decimalAvailable": true,
                                "name": "amount",
                                "type": "uint256",
                                "value": "310,000,000,000,000,000"
                            }
                        ],
                        "constructorArguments": "",
                        "name": "transferFrom",
                        "returnParams": [
                            {
                                "name": "",
                                "type": "bool",
                                "value": true
                            }
                        ],
                        "signature": "transferFrom(address,address,uint256)"
                    },
                    "errorInfo": "",
                    "fromAddress": "0x29469395eaf6f95920e59f858042f0e28d98a20b",
                    "gasUsed": 17864,
                    "id": 7,
                    "methodDecoded": true,
                    "operation": "CALL",
                    "output": "0x0000000000000000000000000000000000000000000000000000000000000001",
                    "revert": false,
                    "revertMessage": "",
                    "selector": "0x23b872dd",
                    "status": true,
                    "value": "0"
                },
                "nodeType": 0
            },
            "8": {
                "invocation": {
                    "address": "0x01a656024de4b89e2d0198bf4d468e8fd2358b17",
                    "callData": "0x000000000000000000000000d4e26683635bf3dc9ead5f31b935c33cc1ce1838000000000000000000000000d88b5bf857f546e7b71f67b1095b40af98d61ec3000000000000000000000000000000000000000000000000044d575b885f0000",
                    "decodedMethod": {
                        "callParams": [
                            {
                                "name": "from",
                                "type": "address",
                                "value": "0xd4e26683635bf3dc9ead5f31b935c33cc1ce1838"
                            },
                            {
                                "name": "to",
                                "type": "address",
                                "value": "0xd88b5bf857f546e7b71f67b1095b40af98d61ec3"
                            },
                            {
                                "decimalAvailable": true,
                                "name": "amount",
                                "type": "uint256",
                                "value": "310,000,000,000,000,000"
                            }
                        ],
                        "constructorArguments": "",
                        "name": "transferFrom",
                        "returnParams": [
                            {
                                "name": "",
                                "type": "bool",
                                "value": true
                            }
                        ],
                        "signature": "transferFrom(address,address,uint256)"
                    },
                    "errorInfo": "",
                    "fromAddress": "0x0000000000a39bb272e79075ade125fd351887ac",
                    "gasUsed": 12969,
                    "id": 8,
                    "methodDecoded": true,
                    "operation": "DELEGATECALL",
                    "output": "0x0000000000000000000000000000000000000000000000000000000000000001",
                    "revert": false,
                    "revertMessage": "",
                    "selector": "0x23b872dd",
                    "status": true,
                    "value": "0"
                },
                "nodeType": 0
            },
            "9": {
                "event": {
                    "contract": "0x0000000000a39bb272e79075ade125fd351887ac",
                    "decodedLog": {
                        "name": "Transfer",
                        "params": [
                            {
                                "name": "from",
                                "type": "address",
                                "value": "0xd4e26683635bf3dc9ead5f31b935c33cc1ce1838"
                            },
                            {
                                "name": "to",
                                "type": "address",
                                "value": "0xd88b5bf857f546e7b71f67b1095b40af98d61ec3"
                            },
                            {
                                "decimalAvailable": true,
                                "name": "value",
                                "type": "uint256",
                                "value": "310,000,000,000,000,000"
                            }
                        ],
                        "signature": "Transfer(address,address,uint256)"
                    },
                    "id": 9,
                    "logData": "0x000000000000000000000000000000000000000000000000044d575b885f0000",
                    "logDecoded": true,
                    "operation": "EVENT",
                    "revert": false,
                    "status": true,
                    "topics": [
                        "0xddf252ad1be2c89b69c2b068fc378daa952ba7f163c4a11628f55a4df523b3ef",
                        "0x000000000000000000000000d4e26683635bf3dc9ead5f31b935c33cc1ce1838",
                        "0x000000000000000000000000d88b5bf857f546e7b71f67b1095b40af98d61ec3"
                    ]
                },
                "nodeType": 1
            }
        },
        "gasFlame": [
            {
                "children": [
                    {
                        "children": [
                            {
                                "children": [],
                                "depth": 0,
                                "name": "Initial Gas",
                                "value": 28344
                            },
                            {
                                "children": [
                                    {
                                        "children": [
                                            {
                                                "children": [],
                                                "depth": 2,
                                                "name": "computeCurrentDebt",
                                                "value": 1468
                                            },
                                            {
                                                "children": [],
                                                "depth": 2,
                                                "name": "ecrecover",
                                                "value": 3000
                                            },
                                            {
                                                "children": [],
                                                "depth": 2,
                                                "name": "ecrecover",
                                                "value": 3000
                                            },
                                            {
                                                "children": [
                                                    {
                                                        "children": [],
                                                        "depth": 3,
                                                        "name": "transferFrom",
                                                        "value": 12969
                                                    }
                                                ],
                                                "depth": 2,
                                                "name": "transferFrom",
                                                "value": 17864
                                            }
                                        ],
                                        "depth": 1,
                                        "name": "refinance",
                                        "value": 65841
                                    }
                                ],
                                "depth": 0,
                                "name": "Executed Gas",
                                "value": 70896
                            }
                        ],
                        "depth": -1,
                        "name": "Actual Gas Used",
                        "value": 99240
                    },
                    {
                        "children": [],
                        "depth": -1,
                        "name": "Refunded Gas",
                        "value": 0
                    }
                ],
                "depth": -2,
                "name": "Total Gas",
                "value": 99240
            }
        ],
        "isConfirmed": true,
        "mainTrace": [
            {
                "children": [
                    {
                        "children": [
                            {
                                "children": [
                                    {
                                        "children": [],
                                        "depth": 2,
                                        "id": 2,
                                        "order": 2
                                    },
                                    {
                                        "children": [],
                                        "depth": 2,
                                        "id": 3,
                                        "order": 3
                                    },
                                    {
                                        "children": [],
                                        "depth": 2,
                                        "id": 4,
                                        "order": 4
                                    },
                                    {
                                        "children": [],
                                        "depth": 2,
                                        "id": 5,
                                        "order": 5
                                    },
                                    {
                                        "children": [],
                                        "depth": 2,
                                        "id": 6,
                                        "order": 6
                                    },
                                    {
                                        "children": [
                                            {
                                                "children": [
                                                    {
                                                        "children": [],
                                                        "depth": 4,
                                                        "id": 9,
                                                        "order": 9
                                                    }
                                                ],
                                                "depth": 3,
                                                "id": 8,
                                                "order": 8
                                            }
                                        ],
                                        "depth": 2,
                                        "id": 7,
                                        "order": 7
                                    }
                                ],
                                "depth": 1,
                                "id": 1,
                                "order": 1
                            }
                        ],
                        "depth": 0,
                        "id": 0,
                        "order": 0
                    }
                ],
                "depth": -1,
                "id": -1,
                "order": -1
            }
        ],
        "mainTraceNodeCount": 10,
        "parentIdMap": {
            "0": -1,
            "1": 0,
            "2": 1,
            "3": 1,
            "4": 1,
            "5": 1,
            "6": 1,
            "7": 1,
            "8": 7,
            "9": 8
        },
        "tidyTrace": [
            {
                "children": [
                    {
                        "children": [
                            {
                                "children": [
                                    {
                                        "children": [],
                                        "depth": 2,
                                        "id": 2,
                                        "order": 2
                                    },
                                    {
                                        "children": [],
                                        "depth": 2,
                                        "id": 5,
                                        "order": 5
                                    },
                                    {
                                        "children": [],
                                        "depth": 2,
                                        "id": 6,
                                        "order": 6
                                    },
                                    {
                                        "children": [
                                            {
                                                "children": [
                                                    {
                                                        "children": [],
                                                        "depth": 4,
                                                        "id": 9,
                                                        "order": 9
                                                    }
                                                ],
                                                "depth": 3,
                                                "id": 8,
                                                "order": 8
                                            }
                                        ],
                                        "depth": 2,
                                        "id": 7,
                                        "order": 7
                                    }
                                ],
                                "depth": 1,
                                "id": 1,
                                "order": 1
                            }
                        ],
                        "depth": 0,
                        "id": 0,
                        "order": 0
                    }
                ],
                "depth": -1,
                "id": -1,
                "order": -1
            }
        ],
        "tidyTraceNodeCount": 8
    },
    "state_change": {
        "stateChanges": [
            {
                "address": "0x0000000000a39bb272e79075ade125fd351887ac",
                "erc": "",
                "slots": [
                    {
                        "current": "0x0000000000000000000000000000000000000000000000005ddfe9e545e9c622",
                        "key": "0xa196ced26c4c952a8840ac5b00031825c0659abe8331189c9fd8e38346e23729",
                        "prev": "0x000000000000000000000000000000000000000000000000622d4140ce48c622"
                    },
                    {
                        "current": "0x00000000000000000000000000000000000000000000000006856bf0e7dd4d5d",
                        "key": "0x4a7ff31db83c97dd30bf4b1c19c74565e70d17e9b465b1b75976d20a8b72a598",
                        "prev": "0x000000000000000000000000000000000000000000000000023814955f7e4d5d"
                    }
                ],
                "storageVariables": [
                    {
                        "name": "_balances",
                        "type": "mapping(address => uint256)",
                        "value": {
                            "pairs": [
                                {
                                    "key": "0xd4e26683635bf3dc9ead5f31b935c33cc1ce1838",
                                    "value": {
                                        "current": "6764382336263505442",
                                        "prev": "7074382336263505442",
                                        "typeTag": 1
                                    }
                                },
                                {
                                    "key": "0xd88b5bf857f546e7b71f67b1095b40af98d61ec3",
                                    "value": {
                                        "current": "469900418556448093",
                                        "prev": "159900418556448093",
                                        "typeTag": 1
                                    }
                                }
                            ],
                            "typeTag": 4
                        }
                    }
                ]
            },
            {
                "address": "0x29469395eaf6f95920e59f858042f0e28d98a20b",
                "erc": "",
                "slots": [
                    {
                        "current": "0x0000000000000000000000000000000000000000000000001e1d6380ba990000",
                        "key": "0x01a755d4f47c5e9a202febe70da1884974879f25bf7b8971befb9a71c3712d7b",
                        "prev": "0x00000000000000000000000000000000000000000000000019d00c25323a0000"
                    },
                    {
                        "current": "0x4690787a13919c3a95841d1dfeee394bb87e753161b768eb44f02fa7309361d4",
                        "key": "0x43967d3a9398001dd0cafb4dcaa5e3b285c7f313381a0dfd52081d9d1428d6af",
                        "prev": "0x871d72712b8688f64174cb95f5cf78ebd0193bbc25f8b4a9c9b7c0164cdceb9c"
                    }
                ],
                "storageVariables": [
                    {
                        "name": "liens",
                        "type": "mapping(uint256 => bytes32)",
                        "value": {
                            "pairs": [
                                {
                                    "key": "139407",
                                    "value": {
                                        "current": "0x4690787a13919c3a95841d1dfeee394bb87e753161b768eb44f02fa7309361d4",
                                        "prev": "0x871d72712b8688f64174cb95f5cf78ebd0193bbc25f8b4a9c9b7c0164cdceb9c",
                                        "typeTag": 1
                                    }
                                }
                            ],
                            "typeTag": 4
                        }
                    },
                    {
                        "name": "amountTaken",
                        "type": "mapping(bytes32 => uint256)",
                        "value": {
                            "pairs": [
                                {
                                    "key": "0x8231698319cf11877fc27f1c1a4664f7e8f2d1b5c78023c8962dc01e5533ad4b",
                                    "value": {
                                        "current": "2170000000000000000",
                                        "prev": "1860000000000000000",
                                        "typeTag": 1
                                    }
                                }
                            ],
                            "typeTag": 4
                        }
                    }
                ]
            }
        ]
    }
}