{
    "balance_change": {
        "balanceChanges": [
            {
                "account": "0x56a6831193d95025740dbf979a25429012dd85cd",
                "assets": [
                    {
                        "address": "0xd28cfec79db8d0a225767d06140aee280718ab7e",
                        "amount": "90",
                        "iconUrl": "",
                        "isERC1155": false,
                        "isERC721": false,
                        "sign": false,
                        "value": ""
                    }
                ]
            },
            {
                "account": "0xd467f959ab3a67a11b2ff816a3d188209191145f",
                "assets": [
                    {
                        "address": "0xd28cfec79db8d0a225767d06140aee280718ab7e",
                        "amount": "90",
                        "iconUrl": "",
                        "isERC1155": false,
                        "isERC721": false,
                        "sign": true,
                        "value": ""
                    }
                ]
            }
        ]
    },
    "profile": {
        "basic_info": {
            "baseFee": "",
            "blockNumber": 7188782,
            "callData": "0xa9059cbb000000000000000000000000d467f959ab3a67a11b2ff816a3d188209191145f0000000000000000000000000000000000000000000000000c7d713b49da0000",
            "debugEnable": true,
            "errorInfo": "",
            "eventCount": 1,
            "feeRecipient": "0x52bc44d5378309ee2abf1539bf71de1b7d7be3b5",
            "formatValue": "0",
            "gasLimit": 105263,
            "gasPrice": "7.56",
            "gasUsed": 36819,
            "intTxnCount": 0,
            "internalRevert": false,
            "internalRevertMessage": "",
            "isContractCreation": false,
            "isFlashloan": false,
            "maxFee": "",
            "nonce": 68,
            "overwritedBlockNumber": -1,
            "priorityFee": "",
            "receiver": "0xd28cfec79db8d0a225767d06140aee280718ab7e",
            "revertMessage": "",
            "sender": "0x56a6831193d95025740dbf979a25429012dd85cd",
            "simulationEnable": true,
            "sourceTxnHash": "0xbede28b7b35598605f00534e89173ca0341b6854701f53fb5909fbfc4fa36a97",
            "status": true,
            "timestamp": "2019-02-07T15:57:52Z",
            "transactionFee": "0.00027835164",
            "txnHash": "0xbede28b7b35598605f00534e89173ca0341b6854701f53fb5909fbfc4fa36a97",
            "txnIndex": 5,
            "type": 0,
            "value": "0"
        },
        "fund_flow": [
            {
                "amount": "90",
                "from": "0x56a6831193d95025740dbf979a25429012dd85cd",
                "id": 1,
                "isERC1155": false,
                "isERC721": false,
                "isReverted": false,
                "order": 1,
                "to": "0xd467f959ab3a67a11b2ff816a3d188209191145f",
                "token": "0xd28cfec79db8d0a225767d06140aee280718ab7e"
            }
        ],
        "token_infos": [
            {
                "address": "0xc02aaa39b223fe8d0a0e5c4f27ead9083c756cc2",
                "decimals": 18
            },
            {
                "address": "0xd28cfec79db8d0a225767d06140aee280718ab7e",
                "decimals": 16
            },
            {
                "address": "0xeeeeeeeeeeeeeeeeeeeeeeeeeeeeeeeeeeeeeeee",
                "decimals": 18
            }
        ]
    },
    "address_label": {
        "labels": [
            {
                "address": "0xd28cfec79db8d0a225767d06140aee280718ab7e",
                "label": "Bizkey: BZKY Token"
            },
            {
                "address": "0x0000000000000000000000000000000000000001",
                "label": "Precompiled"
            },
            {
                "address": "0x0000000000000000000000000000000000000002",
                "label": "Precompiled"
            },
            {
                "address": "0x0000000000000000000000000000000000000003",
                "label": "Precompiled"
            },
            {
                "address": "0x0000000000000000000000000000000000000004",
                "label": "Precompiled"
            },
            {
                "address": "0xeeeeeeeeeeeeeeeeeeeeeeeeeeeeeeeeeeeeeeee",
                "label": "Ether"
            }
        ]
    },
    "trace": {
        "accountLabels": null,
        "dataMap": {
            "-1": {
                "invocation": {
                    "address": "0x56a6831193d95025740dbf979a25429012dd85cd",
                    "callData": "",
                    "decodedMethod": null,
                    "errorInfo": "",
                    "fromAddress": "",
                    "gasUsed": 0,
                    "id": -1,
                    "methodDecoded": false,
                    "operation": "",
                    "output": "",
                    "revert": false,
                    "revertMessage": "",
                    "selector": "",
                    "status": false,
                    "value": ""
                },
                "nodeType": 0
            },
            "0": {
                "invocation": {
                    "address": "0xd28cfec79db8d0a225767d06140aee280718ab7e",
                    "callData": "0x000000000000000000000000d467f959ab3a67a11b2ff816a3d188209191145f0000000000000000000000000000000000000000000000000c7d713b49da0000",
                    "decodedMethod": {
                        "callParams": [
                            {
                                "name": "_to",
                                "type": "address",
                                "value": "0xd467f959ab3a67a11b2ff816a3d188209191145f"
                            },
                            {
                                "decimalAvailable": true,
                                "name": "_value",
                                "type": "uint256",
                                "value": "900,000,000,000,000,000"
                            }
                        ],
                        "constructorArguments": "",
                        "name": "transfer",
                        "returnParams": [
                            {
                                "name": "success",
                                "type": "bool",
                                "value": true
                            }
                        ],
                        "signature": "transfer(address,uint256)"
                    },
                    "errorInfo": "",
                    "fromAddress": "0x56a6831193d95025740dbf979a25429012dd85cd",
                    "gasUsed": 36819,
                    "id": 0,
                    "methodDecoded": true,
                    "operation": "CALL",
                    "output": "0x0000000000000000000000000000000000000000000000000000000000000001",
                    "revert": false,
                    "revertMessage": "",
                    "selector": "0xa9059cbb",
                    "status": true,
                    "value": "0"
                },
                "nodeType": 0
            },
            "1": {
                "event": {
                    "contract": "0xd28cfec79db8d0a225767d06140aee280718ab7e",
                    "decodedLog": {
                        "name": "Transfer",
                        "params": [
                            {
                                "name": "_from",
                                "type": "address",
                                "value": "0x56a6831193d95025740dbf979a25429012dd85cd"
                            },
                            {
                                "name": "_to",
                                "type": "address",
                                "value": "0xd467f959ab3a67a11b2ff816a3d188209191145f"
                            },
                            {
                                "decimalAvailable": true,
                                "name": "_value",
                                "type": "uint256",
                                "value": "900,000,000,000,000,000"
                            }
                        ],
                        "signature": "Transfer(address,address,uint256)"
                    },
                    "id": 1,
                    "logData": "0x0000000000000000000000000000000000000000000000000c7d713b49da0000",
                    "logDecoded": true,
                    "operation": "EVENT",
                    "revert": false,
                    "status": true,
                    "topics": [
                        "0xddf252ad1be2c89b69c2b068fc378daa952ba7f163c4a11628f55a4df523b3ef",
                        "0x00000000000000000000000056a6831193d95025740dbf979a25429012dd85cd",
                        "0x000000000000000000000000d467f959ab3a67a11b2ff816a3d188209191145f"
                    ]
                },
                "nodeType": 1
            }
        },
        "gasFlame": [
            {
                "children": [
                    {
                        "children": [
                            {
                                "children": [],
                                "depth": 0,
                                "name": "Initial Gas",
                                "value": 23192
                            },
                            {
                                "children": [],
                                "depth": 0,
                                "name": "Executed Gas",
                                "value": 13627
                            }
                        ],
                        "depth": -1,
                        "name": "Actual Gas Used",
                        "value": 36819
                    },
                    {
                        "children": [],
                        "depth": -1,
                        "name": "Refunded Gas",
                        "value": 0
                    }
                ],
                "depth": -2,
                "name": "Total Gas",
                "value": 36819
            }
        ],
        "isConfirmed": true,
        "mainTrace": [
            {
                "children": [
                    {
                        "children": [
                            {
                                "children": [],
                                "depth": 1,
                                "id": 1,
                                "order": 1
                            }
                        ],
                        "depth": 0,
                        "id": 0,
                        "order": 0
                    }
                ],
                "depth": -1,
                "id": -1,
                "order": -1
            }
        ],
        "mainTraceNodeCount": 2,
        "parentIdMap": {
            "0": -1,
            "1": 0
        },
        "tidyTrace": [
            {
                "children": [
                    {
                        "children": [
                            {
                                "children": [],
                                "depth": 1,
                                "id": 1,
                                "order": 1
                            }
                        ],
                        "depth": 0,
                        "id": 0,
                        "order": 0
                    }
                ],
                "depth": -1,
                "id": -1,
                "order": -1
            }
        ],
        "tidyTraceNodeCount": 2
    },
    "state_change": {
        "stateChanges": [
            {
                "address": "0xd28cfec79db8d0a225767d06140aee280718ab7e",
                "erc": "ERC-20",
                "slots": [
                    {
                        "current": "0x00000000000000000000000000000000000000000000000027f7d0bdb9200000",
                        "key": "0x0ee4763e874b9600608187e670511e92236ed0ec46119891bcc8ecb9fe8ac718",
                        "prev": "0x0000000000000000000000000000000000000000000000001b7a5f826f460000"
                    },
                    {
                        "current": "0x0000000000000000000000000000000000000000000000688a341ccafeca0000",
                        "key": "0xa3131f9024d6eeebf980120610ea524814579c8f0315f3f44936250290ad7b0c",
                        "prev": "0x00000000000000000000000000000000000000000000006896b18e0648a40000"
                    }
                ],
                "storageVariables": [
                    {
                        "name": "balances",
                        "type": "mapping(address => uint256)",
                        "value": {
                            "pairs": [
                                {
                                    "key": "0x56a6831193d95025740dbf979a25429012dd85cd",
                                    "value": {
                                        "current": "1928420000000000000000",
                                        "prev": "1929320000000000000000",
                                        "typeTag": 1
                                    }
                                },
                                {
                                    "key": "0xd467f959ab3a67a11b2ff816a3d188209191145f",
                                    "value": {
                                        "current": "2880000000000000000",
                                        "prev": "1980000000000000000",
                                        "typeTag": 1
                                    }
                                }
                            ],
                            "typeTag": 4
                        }
                    }
                ]
            }
        ]
    }
}