{
    "balance_change": {
        "balanceChanges": [
            {
                "account": "0xdd93cfb9abb42f21f8c6d9e9bef2c4f94d7c898a",
                "assets": [
                    {
                        "address": "0xb6ed7644c69416d67b522e20bc294a9a9b405b31",
                        "amount": "15.28658998",
                        "iconUrl": "https://assets.blocksec.com/icon/dea3471e6ba79210c19cb71fadeb449b7babe5412fdf725b6a2dcf10531edc42.png",
                        "isERC1155": false,
                        "isERC721": false,
                        "sign": false,
                        "value": ""
                    }
                ]
            },
            {
                "account": "0x2e6dd3171a9832fb60b6dacbf446f921531dbbe5",
                "assets": [
                    {
                        "address": "0xb6ed7644c69416d67b522e20bc294a9a9b405b31",
                        "amount": "15.28658998",
                        "iconUrl": "https://assets.blocksec.com/icon/dea3471e6ba79210c19cb71fadeb449b7babe5412fdf725b6a2dcf10531edc42.png",
                        "isERC1155": false,
                        "isERC721": false,
                        "sign": true,
                        "value": ""
                    }
                ]
            }
        ]
    },
    "profile": {
        "basic_info": {
            "baseFee": "",
            "blockNumber": 5407776,
            "callData": "0xa9059cbb0000000000000000000000002e6dd3171a9832fb60b6dacbf446f921531dbbe5000000000000000000000000000000000000000000000000000000005b1d7c36",
            "debugEnable": true,
            "errorInfo": "",
            "eventCount": 1,
            "feeRecipient": "0x829bd824b016326a401d083b33d092293333a830",
            "formatValue": "0",
            "gasLimit": 1704624,
            "gasPrice": "2",
            "gasUsed": 36729,
            "intTxnCount": 0,
            "internalRevert": false,
            "internalRevertMessage": "",
            "isContractCreation": false,
            "isFlashloan": false,
            "maxFee": "",
            "nonce": 4565,
            "overwritedBlockNumber": -1,
            "priorityFee": "",
            "receiver": "0xb6ed7644c69416d67b522e20bc294a9a9b405b31",
            "revertMessage": "",
            "sender": "0xdd93cfb9abb42f21f8c6d9e9bef2c4f94d7c898a",
            "simulationEnable": true,
            "sourceTxnHash": "0xbfadd6dd8afe1346b173f38f56e3c6206e309b72874c2827a1f67368c03af748",
            "status": true,
            "timestamp": "2018-04-09T06:40:25Z",
            "transactionFee": "0.000073458",
            "txnHash": "0xbfadd6dd8afe1346b173f38f56e3c6206e309b72874c2827a1f67368c03af748",
            "txnIndex": 65,
            "type": 0,
            "value": "0"
        },
        "fund_flow": [
            {
                "amount": "15.28658998",
                "from": "0xdd93cfb9abb42f21f8c6d9e9bef2c4f94d7c898a",
                "id": 1,
                "isERC1155": false,
                "isERC721": false,
                "isReverted": false,
                "order": 1,
                "to": "0x2e6dd3171a9832fb60b6dacbf446f921531dbbe5",
                "token": "0xb6ed7644c69416d67b522e20bc294a9a9b405b31"
            }
        ],
        "token_infos": [
            {
                "address": "0xb6ed7644c69416d67b522e20bc294a9a9b405b31",
                "decimals": 8
            },
            {
                "address": "0xc02aaa39b223fe8d0a0e5c4f27ead9083c756cc2",
                "decimals": 18
            },
            {
                "address": "0xeeeeeeeeeeeeeeeeeeeeeeeeeeeeeeeeeeeeeeee",
                "decimals": 18
            }
        ]
    },
    "address_label": {
        "labels": [
            {
                "address": "0x0000000000000000000000000000000000000003",
                "label": "Precompiled"
            },
            {
                "address": "0x0000000000000000000000000000000000000004",
                "label": "Precompiled"
            },
            {
                "address": "0xeeeeeeeeeeeeeeeeeeeeeeeeeeeeeeeeeeeeeeee",
                "label": "Ether"
            },
            {
                "address": "0xb6ed7644c69416d67b522e20bc294a9a9b405b31",
                "label": "0xBitcoin: 0xBTC Token"
            },
            {
                "address": "0x0000000000000000000000000000000000000001",
                "label": "Precompiled"
            },
            {
                "address": "0x0000000000000000000000000000000000000002",
                "label": "Precompiled"
            }
        ]
    },
    "trace": {
        "accountLabels": null,
        "dataMap": {
            "-1": {
                "invocation": {
                    "address": "0xdd93cfb9abb42f21f8c6d9e9bef2c4f94d7c898a",
                    "callData": "",
                    "decodedMethod": null,
                    "errorInfo": "",
                    "fromAddress": "",
                    "gasUsed": 0,
                    "id": -1,
                    "methodDecoded": false,
                    "operation": "",
                    "output": "",
                    "revert": false,
                    "revertMessage": "",
                    "selector": "",
                    "status": false,
                    "value": ""
                },
                "nodeType": 0
            },
            "0": {
                "invocation": {
                    "address": "0xb6ed7644c69416d67b522e20bc294a9a9b405b31",
                    "callData": "0x0000000000000000000000002e6dd3171a9832fb60b6dacbf446f921531dbbe5000000000000000000000000000000000000000000000000000000005b1d7c36",
                    "decodedMethod": {
                        "callParams": [
                            {
                                "name": "to",
                                "type": "address",
                                "value": "0x2e6dd3171a9832fb60b6dacbf446f921531dbbe5"
                            },
                            {
                                "decimalAvailable": true,
                                "name": "tokens",
                                "type": "uint256",
                                "value": "1,528,658,998"
                            }
                        ],
                        "constructorArguments": "",
                        "name": "transfer",
                        "returnParams": [
                            {
                                "name": "success",
                                "type": "bool",
                                "value": true
                            }
                        ],
                        "signature": "transfer(address,uint256)"
                    },
                    "errorInfo": "",
                    "fromAddress": "0xdd93cfb9abb42f21f8c6d9e9bef2c4f94d7c898a",
                    "gasUsed": 36729,
                    "id": 0,
                    "methodDecoded": true,
                    "operation": "CALL",
                    "output": "0x0000000000000000000000000000000000000000000000000000000000000001",
                    "revert": false,
                    "revertMessage": "",
                    "selector": "0xa9059cbb",
                    "status": true,
                    "value": "0"
                },
                "nodeType": 0
            },
            "1": {
                "event": {
                    "contract": "0xb6ed7644c69416d67b522e20bc294a9a9b405b31",
                    "decodedLog": {
                        "name": "Transfer",
                        "params": [
                            {
                                "name": "from",
                                "type": "address",
                                "value": "0xdd93cfb9abb42f21f8c6d9e9bef2c4f94d7c898a"
                            },
                            {
                                "name": "to",
                                "type": "address",
                                "value": "0x2e6dd3171a9832fb60b6dacbf446f921531dbbe5"
                            },
                            {
                                "decimalAvailable": true,
                                "name": "tokens",
                                "type": "uint256",
                                "value": "1,528,658,998"
                            }
                        ],
                        "signature": "Transfer(address,address,uint256)"
                    },
                    "id": 1,
                    "logData": "0x000000000000000000000000000000000000000000000000000000005b1d7c36",
                    "logDecoded": true,
                    "operation": "EVENT",
                    "revert": false,
                    "status": true,
                    "topics": [
                        "0xddf252ad1be2c89b69c2b068fc378daa952ba7f163c4a11628f55a4df523b3ef",
                        "0x000000000000000000000000dd93cfb9abb42f21f8c6d9e9bef2c4f94d7c898a",
                        "0x0000000000000000000000002e6dd3171a9832fb60b6dacbf446f921531dbbe5"
                    ]
                },
                "nodeType": 1
            }
        },
        "gasFlame": [
            {
                "children": [
                    {
                        "children": [
                            {
                                "children": [],
                                "depth": 0,
                                "name": "Initial Gas",
                                "value": 23064
                            },
                            {
                                "children": [],
                                "depth": 0,
                                "name": "Executed Gas",
                                "value": 13665
                            }
                        ],
                        "depth": -1,
                        "name": "Actual Gas Used",
                        "value": 36729
                    },
                    {
                        "children": [],
                        "depth": -1,
                        "name": "Refunded Gas",
                        "value": 0
                    }
                ],
                "depth": -2,
                "name": "Total Gas",
                "value": 36729
            }
        ],
        "isConfirmed": true,
        "mainTrace": [
            {
                "children": [
                    {
                        "children": [
                            {
                                "children": [],
                                "depth": 1,
                                "id": 1,
                                "order": 1
                            }
                        ],
                        "depth": 0,
                        "id": 0,
                        "order": 0
                    }
                ],
                "depth": -1,
                "id": -1,
                "order": -1
            }
        ],
        "mainTraceNodeCount": 2,
        "parentIdMap": {
            "0": -1,
            "1": 0
        },
        "tidyTrace": [
            {
                "children": [
                    {
                        "children": [
                            {
                                "children": [],
                                "depth": 1,
                                "id": 1,
                                "order": 1
                            }
                        ],
                        "depth": 0,
                        "id": 0,
                        "order": 0
                    }
                ],
                "depth": -1,
                "id": -1,
                "order": -1
            }
        ],
        "tidyTraceNodeCount": 2
    },
    "state_change": {
        "stateChanges": [
            {
                "address": "0xb6ed7644c69416d67b522e20bc294a9a9b405b31",
                "erc": "ERC-20",
                "slots": [
                    {
                        "current": "0x0000000000000000000000000000000000000000000000000000007d7955b3d2",
                        "key": "0x4760eb417f9179ea7c5c4e77bc31405ff86edd664ad0104f7fd644f6c77786c5",
                        "prev": "0x0000000000000000000000000000000000000000000000000000007dd4733008"
                    },
                    {
                        "current": "0x0000000000000000000000000000000000000000000000000000001ad94b5003",
                        "key": "0x780b47d520fdcb904d2d2675a4bec6ceeb323a1657114e1af80bc45636e3cd3e",
                        "prev": "0x0000000000000000000000000000000000000000000000000000001a7e2dd3cd"
                    }
                ],
                "storageVariables": [
                    {
                        "name": "balances",
                        "type": "mapping(address => uint256)",
                        "value": {
                            "pairs": [
                                {
                                    "key": "0x2e6dd3171a9832fb60b6dacbf446f921531dbbe5",
                                    "value": {
                                        "current": "115314741251",
                                        "prev": "113786082253",
                                        "typeTag": 1
                                    }
                                },
                                {
                                    "key": "0xdd93cfb9abb42f21f8c6d9e9bef2c4f94d7c898a",
                                    "value": {
                                        "current": "538906571730",
                                        "prev": "540435230728",
                                        "typeTag": 1
                                    }
                                }
                            ],
                            "typeTag": 4
                        }
                    }
                ]
            }
        ]
    }
}