{
    "balance_change": {
        "balanceChanges": [
            {
                "account": "0x510c860d9a05e241e58d69dfba71d6e8c6fb8a5f",
                "assets": [
                    {
                        "address": "0x37236cd05b34cc79d3715af2383e96dd7443dcf1",
                        "amount": "2,216",
                        "iconUrl": "",
                        "isERC1155": false,
                        "isERC721": false,
                        "sign": false,
                        "value": "0.04220127"
                    }
                ]
            },
            {
                "account": "0x11ee2c9d9e083757a61b307a9788f47748feabf5",
                "assets": [
                    {
                        "address": "0x37236cd05b34cc79d3715af2383e96dd7443dcf1",
                        "amount": "2,216",
                        "iconUrl": "",
                        "isERC1155": false,
                        "isERC721": false,
                        "sign": true,
                        "value": "0.04220127"
                    }
                ]
            }
        ]
    },
    "profile": {
        "basic_info": {
            "baseFee": "",
            "blockNumber": 11540752,
            "callData": "0xa9059cbb00000000000000000000000011ee2c9d9e083757a61b307a9788f47748feabf500000000000000000000000000000000000000000000000000000000000008a8",
            "debugEnable": true,
            "errorInfo": "",
            "eventCount": 1,
            "feeRecipient": "0xd224ca0c819e8e97ba0136b3b95ceff503b79f53",
            "formatValue": "0",
            "gasLimit": 55656,
            "gasPrice": "45",
            "gasUsed": 22104,
            "intTxnCount": 0,
            "internalRevert": false,
            "internalRevertMessage": "",
            "isContractCreation": false,
            "isFlashloan": false,
            "maxFee": "",
            "nonce": 54,
            "overwritedBlockNumber": -1,
            "priorityFee": "",
            "receiver": "0x37236cd05b34cc79d3715af2383e96dd7443dcf1",
            "revertMessage": "",
            "sender": "0x510c860d9a05e241e58d69dfba71d6e8c6fb8a5f",
            "simulationEnable": true,
            "sourceTxnHash": "0xbf643d8777861cf92669a1bf2cf937d1fc69968117d9a4adc770a270e817d310",
            "status": true,
            "timestamp": "2020-12-28T06:31:10Z",
            "transactionFee": "0.00099468",
            "txnHash": "0xbf643d8777861cf92669a1bf2cf937d1fc69968117d9a4adc770a270e817d310",
            "txnIndex": 107,
            "type": 0,
            "value": "0"
        },
        "fund_flow": [
            {
                "amount": "2,216",
                "from": "0x510c860d9a05e241e58d69dfba71d6e8c6fb8a5f",
                "id": 1,
                "isERC1155": false,
                "isERC721": false,
                "isReverted": false,
                "order": 1,
                "to": "0x11ee2c9d9e083757a61b307a9788f47748feabf5",
                "token": "0x37236cd05b34cc79d3715af2383e96dd7443dcf1"
            }
        ],
        "token_infos": [
            {
                "address": "0x37236cd05b34cc79d3715af2383e96dd7443dcf1",
                "decimals": 0
            },
            {
                "address": "0xc02aaa39b223fe8d0a0e5c4f27ead9083c756cc2",
                "decimals": 18
            },
            {
                "address": "0xeeeeeeeeeeeeeeeeeeeeeeeeeeeeeeeeeeeeeeee",
                "decimals": 18
            }
        ]
    },
    "address_label": {
        "labels": [
            {
                "address": "0xeeeeeeeeeeeeeeeeeeeeeeeeeeeeeeeeeeeeeeee",
                "label": "Ether"
            },
            {
                "address": "0x37236cd05b34cc79d3715af2383e96dd7443dcf1",
                "label": "Small Love Potion: Old SLP Token"
            },
            {
                "address": "0x11ee2c9d9e083757a61b307a9788f47748feabf5",
                "label": "BINANCE"
            },
            {
                "address": "0x0000000000000000000000000000000000000001",
                "label": "Precompiled"
            },
            {
                "address": "0x0000000000000000000000000000000000000002",
                "label": "Precompiled"
            },
            {
                "address": "0x0000000000000000000000000000000000000003",
                "label": "Precompiled"
            },
            {
                "address": "0x0000000000000000000000000000000000000004",
                "label": "Precompiled"
            }
        ]
    },
    "trace": {
        "accountLabels": null,
        "dataMap": {
            "-1": {
                "invocation": {
                    "address": "0x510c860d9a05e241e58d69dfba71d6e8c6fb8a5f",
                    "callData": "",
                    "decodedMethod": null,
                    "errorInfo": "",
                    "fromAddress": "",
                    "gasUsed": 0,
                    "id": -1,
                    "methodDecoded": false,
                    "operation": "",
                    "output": "",
                    "revert": false,
                    "revertMessage": "",
                    "selector": "",
                    "status": false,
                    "value": ""
                },
                "nodeType": 0
            },
            "0": {
                "invocation": {
                    "address": "0x37236cd05b34cc79d3715af2383e96dd7443dcf1",
                    "callData": "0x00000000000000000000000011ee2c9d9e083757a61b307a9788f47748feabf500000000000000000000000000000000000000000000000000000000000008a8",
                    "decodedMethod": {
                        "callParams": [
                            {
                                "name": "recipient",
                                "type": "address",
                                "value": "0x11ee2c9d9e083757a61b307a9788f47748feabf5"
                            },
                            {
                                "decimalAvailable": true,
                                "name": "amount",
                                "type": "uint256",
                                "value": "2,216"
                            }
                        ],
                        "constructorArguments": "",
                        "name": "transfer",
                        "returnParams": [
                            {
                                "name": "",
                                "type": "bool",
                                "value": true
                            }
                        ],
                        "signature": "transfer(address,uint256)"
                    },
                    "errorInfo": "",
                    "fromAddress": "0x510c860d9a05e241e58d69dfba71d6e8c6fb8a5f",
                    "gasUsed": 22104,
                    "id": 0,
                    "methodDecoded": true,
                    "operation": "CALL",
                    "output": "0x0000000000000000000000000000000000000000000000000000000000000001",
                    "revert": false,
                    "revertMessage": "",
                    "selector": "0xa9059cbb",
                    "status": true,
                    "value": "0"
                },
                "nodeType": 0
            },
            "1": {
                "event": {
                    "contract": "0x37236cd05b34cc79d3715af2383e96dd7443dcf1",
                    "decodedLog": {
                        "name": "Transfer",
                        "params": [
                            {
                                "name": "from",
                                "type": "address",
                                "value": "0x510c860d9a05e241e58d69dfba71d6e8c6fb8a5f"
                            },
                            {
                                "name": "to",
                                "type": "address",
                                "value": "0x11ee2c9d9e083757a61b307a9788f47748feabf5"
                            },
                            {
                                "decimalAvailable": true,
                                "name": "value",
                                "type": "uint256",
                                "value": "2,216"
                            }
                        ],
                        "signature": "Transfer(address,address,uint256)"
                    },
                    "id": 1,
                    "logData": "0x00000000000000000000000000000000000000000000000000000000000008a8",
                    "logDecoded": true,
                    "operation": "EVENT",
                    "revert": false,
                    "status": true,
                    "topics": [
                        "0xddf252ad1be2c89b69c2b068fc378daa952ba7f163c4a11628f55a4df523b3ef",
                        "0x000000000000000000000000510c860d9a05e241e58d69dfba71d6e8c6fb8a5f",
                        "0x00000000000000000000000011ee2c9d9e083757a61b307a9788f47748feabf5"
                    ]
                },
                "nodeType": 1
            }
        },
        "gasFlame": [
            {
                "children": [
                    {
                        "children": [
                            {
                                "children": [],
                                "depth": 0,
                                "name": "Initial Gas",
                                "value": 21584
                            },
                            {
                                "children": [],
                                "depth": 0,
                                "name": "Executed Gas",
                                "value": 15520
                            }
                        ],
                        "depth": -1,
                        "name": "Actual Gas Used",
                        "value": 22104
                    },
                    {
                        "children": [],
                        "depth": -1,
                        "name": "Refunded Gas",
                        "value": 15000
                    }
                ],
                "depth": -2,
                "name": "Total Gas",
                "value": 37104
            }
        ],
        "isConfirmed": true,
        "mainTrace": [
            {
                "children": [
                    {
                        "children": [
                            {
                                "children": [],
                                "depth": 1,
                                "id": 1,
                                "order": 1
                            }
                        ],
                        "depth": 0,
                        "id": 0,
                        "order": 0
                    }
                ],
                "depth": -1,
                "id": -1,
                "order": -1
            }
        ],
        "mainTraceNodeCount": 2,
        "parentIdMap": {
            "0": -1,
            "1": 0
        },
        "tidyTrace": [
            {
                "children": [
                    {
                        "children": [
                            {
                                "children": [],
                                "depth": 1,
                                "id": 1,
                                "order": 1
                            }
                        ],
                        "depth": 0,
                        "id": 0,
                        "order": 0
                    }
                ],
                "depth": -1,
                "id": -1,
                "order": -1
            }
        ],
        "tidyTraceNodeCount": 2
    },
    "state_change": {
        "stateChanges": [
            {
                "address": "0x37236cd05b34cc79d3715af2383e96dd7443dcf1",
                "erc": "",
                "slots": [
                    {
                        "current": "0x0000000000000000000000000000000000000000000000000000000000000000",
                        "key": "0x830a836edf19297cdfa91c19967ed7ceccd3495bba4464a1a0ee6c73c9f98993",
                        "prev": "0x00000000000000000000000000000000000000000000000000000000000008a8"
                    },
                    {
                        "current": "0x0000000000000000000000000000000000000000000000000000000000000fbf",
                        "key": "0xa98fabd36ccda40f0d3f29b3dc82e6c42324e55518123c0987be5a7792c2de4a",
                        "prev": "0x0000000000000000000000000000000000000000000000000000000000000717"
                    }
                ],
                "storageVariables": []
            }
        ]
    }
}