{
    "balance_change": {
        "balanceChanges": [
            {
                "account": "0xbc7fd05e44975554cf361152ba7d08dab7584ae6",
                "assets": [
                    {
                        "address": "0x3b9e094d56103611f0acefdab43182347ba60df4",
                        "amount": "1,339.28571428",
                        "iconUrl": "",
                        "isERC1155": false,
                        "isERC721": false,
                        "sign": false,
                        "value": ""
                    }
                ]
            },
            {
                "account": "0xe6a07013883883c8cbe0174edc83748c6ecf9266",
                "assets": [
                    {
                        "address": "0x3b9e094d56103611f0acefdab43182347ba60df4",
                        "amount": "1,339.28571428",
                        "iconUrl": "",
                        "isERC1155": false,
                        "isERC721": false,
                        "sign": true,
                        "value": ""
                    }
                ]
            }
        ]
    },
    "profile": {
        "basic_info": {
            "baseFee": "",
            "blockNumber": 10822064,
            "callData": "0xa9059cbb000000000000000000000000e6a07013883883c8cbe0174edc83748c6ecf92660000000000000000000000000000000000000000000000489a52ad4c3eb41000",
            "debugEnable": true,
            "errorInfo": "",
            "eventCount": 1,
            "feeRecipient": "0x3ecef08d0e2dad803847e052249bb4f8bff2d5bb",
            "formatValue": "0",
            "gasLimit": 36361,
            "gasPrice": "126",
            "gasUsed": 36361,
            "intTxnCount": 0,
            "internalRevert": false,
            "internalRevertMessage": "",
            "isContractCreation": false,
            "isFlashloan": false,
            "maxFee": "",
            "nonce": 472,
            "overwritedBlockNumber": -1,
            "priorityFee": "",
            "receiver": "0x3b9e094d56103611f0acefdab43182347ba60df4",
            "revertMessage": "",
            "sender": "0xbc7fd05e44975554cf361152ba7d08dab7584ae6",
            "simulationEnable": true,
            "sourceTxnHash": "0xbf682ae1135bd08149dbfc18d1f045e5e14dc8f6f4bd5a5c758b3bb2036802cd",
            "status": true,
            "timestamp": "2020-09-08T16:21:54Z",
            "transactionFee": "0.004581486",
            "txnHash": "0xbf682ae1135bd08149dbfc18d1f045e5e14dc8f6f4bd5a5c758b3bb2036802cd",
            "txnIndex": 59,
            "type": 0,
            "value": "0"
        },
        "fund_flow": [
            {
                "amount": "1,339.28571428",
                "from": "0xbc7fd05e44975554cf361152ba7d08dab7584ae6",
                "id": 1,
                "isERC1155": false,
                "isERC721": false,
                "isReverted": false,
                "order": 1,
                "to": "0xe6a07013883883c8cbe0174edc83748c6ecf9266",
                "token": "0x3b9e094d56103611f0acefdab43182347ba60df4"
            }
        ],
        "token_infos": [
            {
                "address": "0x3b9e094d56103611f0acefdab43182347ba60df4",
                "decimals": 18
            },
            {
                "address": "0xc02aaa39b223fe8d0a0e5c4f27ead9083c756cc2",
                "decimals": 18
            },
            {
                "address": "0xeeeeeeeeeeeeeeeeeeeeeeeeeeeeeeeeeeeeeeee",
                "decimals": 18
            }
        ]
    },
    "address_label": {
        "labels": [
            {
                "address": "0xe6a07013883883c8cbe0174edc83748c6ecf9266",
                "label": "COINONE"
            },
            {
                "address": "0x0000000000000000000000000000000000000001",
                "label": "Precompiled"
            },
            {
                "address": "0x0000000000000000000000000000000000000002",
                "label": "Precompiled"
            },
            {
                "address": "0x0000000000000000000000000000000000000003",
                "label": "Precompiled"
            },
            {
                "address": "0x0000000000000000000000000000000000000004",
                "label": "Precompiled"
            },
            {
                "address": "0xeeeeeeeeeeeeeeeeeeeeeeeeeeeeeeeeeeeeeeee",
                "label": "Ether"
            },
            {
                "address": "0x3b9e094d56103611f0acefdab43182347ba60df4",
                "label": "PANTHEON X Token"
            }
        ]
    },
    "trace": {
        "accountLabels": null,
        "dataMap": {
            "-1": {
                "invocation": {
                    "address": "0xbc7fd05e44975554cf361152ba7d08dab7584ae6",
                    "callData": "",
                    "decodedMethod": null,
                    "errorInfo": "",
                    "fromAddress": "",
                    "gasUsed": 0,
                    "id": -1,
                    "methodDecoded": false,
                    "operation": "",
                    "output": "",
                    "revert": false,
                    "revertMessage": "",
                    "selector": "",
                    "status": false,
                    "value": ""
                },
                "nodeType": 0
            },
            "0": {
                "invocation": {
                    "address": "0x3b9e094d56103611f0acefdab43182347ba60df4",
                    "callData": "0x000000000000000000000000e6a07013883883c8cbe0174edc83748c6ecf92660000000000000000000000000000000000000000000000489a52ad4c3eb41000",
                    "decodedMethod": {
                        "callParams": [
                            {
                                "name": "to",
                                "type": "address",
                                "value": "0xe6a07013883883c8cbe0174edc83748c6ecf9266"
                            },
                            {
                                "decimalAvailable": true,
                                "name": "value",
                                "type": "uint256",
                                "value": "1,339,285,714,280,000,000,000"
                            }
                        ],
                        "constructorArguments": "",
                        "name": "transfer",
                        "returnParams": [
                            {
                                "name": "",
                                "type": "bool",
                                "value": true
                            }
                        ],
                        "signature": "transfer(address,uint256)"
                    },
                    "errorInfo": "",
                    "fromAddress": "0xbc7fd05e44975554cf361152ba7d08dab7584ae6",
                    "gasUsed": 36361,
                    "id": 0,
                    "methodDecoded": true,
                    "operation": "CALL",
                    "output": "0x0000000000000000000000000000000000000000000000000000000000000001",
                    "revert": false,
                    "revertMessage": "",
                    "selector": "0xa9059cbb",
                    "status": true,
                    "value": "0"
                },
                "nodeType": 0
            },
            "1": {
                "event": {
                    "contract": "0x3b9e094d56103611f0acefdab43182347ba60df4",
                    "decodedLog": {
                        "name": "Transfer",
                        "params": [
                            {
                                "name": "from",
                                "type": "address",
                                "value": "0xbc7fd05e44975554cf361152ba7d08dab7584ae6"
                            },
                            {
                                "name": "to",
                                "type": "address",
                                "value": "0xe6a07013883883c8cbe0174edc83748c6ecf9266"
                            },
                            {
                                "decimalAvailable": true,
                                "name": "value",
                                "type": "uint256",
                                "value": "1,339,285,714,280,000,000,000"
                            }
                        ],
                        "signature": "Transfer(address,address,uint256)"
                    },
                    "id": 1,
                    "logData": "0x0000000000000000000000000000000000000000000000489a52ad4c3eb41000",
                    "logDecoded": true,
                    "operation": "EVENT",
                    "revert": false,
                    "status": true,
                    "topics": [
                        "0xddf252ad1be2c89b69c2b068fc378daa952ba7f163c4a11628f55a4df523b3ef",
                        "0x000000000000000000000000bc7fd05e44975554cf361152ba7d08dab7584ae6",
                        "0x000000000000000000000000e6a07013883883c8cbe0174edc83748c6ecf9266"
                    ]
                },
                "nodeType": 1
            }
        },
        "gasFlame": [
            {
                "children": [
                    {
                        "children": [
                            {
                                "children": [],
                                "depth": 0,
                                "name": "Initial Gas",
                                "value": 21656
                            },
                            {
                                "children": [],
                                "depth": 0,
                                "name": "Executed Gas",
                                "value": 14705
                            }
                        ],
                        "depth": -1,
                        "name": "Actual Gas Used",
                        "value": 36361
                    },
                    {
                        "children": [],
                        "depth": -1,
                        "name": "Refunded Gas",
                        "value": 0
                    }
                ],
                "depth": -2,
                "name": "Total Gas",
                "value": 36361
            }
        ],
        "isConfirmed": true,
        "mainTrace": [
            {
                "children": [
                    {
                        "children": [
                            {
                                "children": [],
                                "depth": 1,
                                "id": 1,
                                "order": 1
                            }
                        ],
                        "depth": 0,
                        "id": 0,
                        "order": 0
                    }
                ],
                "depth": -1,
                "id": -1,
                "order": -1
            }
        ],
        "mainTraceNodeCount": 2,
        "parentIdMap": {
            "0": -1,
            "1": 0
        },
        "tidyTrace": [
            {
                "children": [
                    {
                        "children": [
                            {
                                "children": [],
                                "depth": 1,
                                "id": 1,
                                "order": 1
                            }
                        ],
                        "depth": 0,
                        "id": 0,
                        "order": 0
                    }
                ],
                "depth": -1,
                "id": -1,
                "order": -1
            }
        ],
        "tidyTraceNodeCount": 2
    },
    "state_change": {
        "stateChanges": [
            {
                "address": "0x3b9e094d56103611f0acefdab43182347ba60df4",
                "erc": "ERC-20",
                "slots": [
                    {
                        "current": "0x000000000000000000000000000000000000000000017d944f3bad1f6a94bc00",
                        "key": "0x3c4b599246b27d3f842cf6a8b3f2ec15ca9a7f8c1a4cc8a85caa06cbf4d26e14",
                        "prev": "0x000000000000000000000000000000000000000000017ddce98e5a6ba948cc00"
                    },
                    {
                        "current": "0x000000000000000000000000000000000000000000000089f7fd6be5efd58c00",
                        "key": "0xf0502e92872181a8660c55015782c41dd7e0ca0b0ce07ab13a5ace6eb947b970",
                        "prev": "0x0000000000000000000000000000000000000000000000415daabe99b1217c00"
                    }
                ],
                "storageVariables": [
                    {
                        "name": "_balances",
                        "type": "mapping(address => uint256)",
                        "value": {
                            "pairs": [
                                {
                                    "key": "0xbc7fd05e44975554cf361152ba7d08dab7584ae6",
                                    "value": {
                                        "current": "1801957457443546906016768",
                                        "prev": "1803296743157826906016768",
                                        "typeTag": 1
                                    }
                                },
                                {
                                    "key": "0xe6a07013883883c8cbe0174edc83748c6ecf9266",
                                    "value": {
                                        "current": "2545073495630000000000",
                                        "prev": "1205787781350000000000",
                                        "typeTag": 1
                                    }
                                }
                            ],
                            "typeTag": 4
                        }
                    }
                ]
            }
        ]
    }
}