{
    "balance_change": {
        "balanceChanges": [
            {
                "account": "0x13c9c41bc9d129040f9a338e13977e5e8d07a1fc",
                "assets": [
                    {
                        "address": "0xba5bde662c17e2adff1075610382b9b691296350",
                        "amount": "20,000",
                        "iconUrl": "https://assets.blocksec.com/icon/a205290a20bcf0c796da5f28d53bcd46ee811ea5710519a9d925f3d8e3a92b09.png",
                        "isERC1155": false,
                        "isERC721": false,
                        "sign": false,
                        "value": "19368.16909"
                    }
                ]
            },
            {
                "account": "0xaf861e461830c2ae7b128978d42b0ea5787b13c3",
                "assets": [
                    {
                        "address": "0xba5bde662c17e2adff1075610382b9b691296350",
                        "amount": "20,000",
                        "iconUrl": "https://assets.blocksec.com/icon/a205290a20bcf0c796da5f28d53bcd46ee811ea5710519a9d925f3d8e3a92b09.png",
                        "isERC1155": false,
                        "isERC721": false,
                        "sign": true,
                        "value": "19368.16909"
                    }
                ]
            }
        ]
    },
    "profile": {
        "basic_info": {
            "baseFee": "94.146333858",
            "blockNumber": 13214704,
            "callData": "0xa9059cbb000000000000000000000000af861e461830c2ae7b128978d42b0ea5787b13c300000000000000000000000000000000000000000000043c33c1937564800000",
            "debugEnable": true,
            "errorInfo": "",
            "eventCount": 1,
            "feeRecipient": "0x829bd824b016326a401d083b33d092293333a830",
            "formatValue": "0",
            "gasLimit": 92925,
            "gasPrice": "95.646333858",
            "gasUsed": 56676,
            "intTxnCount": 1,
            "internalRevert": false,
            "internalRevertMessage": "",
            "isContractCreation": false,
            "isFlashloan": false,
            "maxFee": "128.624584594",
            "nonce": 30,
            "overwritedBlockNumber": -1,
            "priorityFee": "1.5",
            "receiver": "0xba5bde662c17e2adff1075610382b9b691296350",
            "revertMessage": "",
            "sender": "0x13c9c41bc9d129040f9a338e13977e5e8d07a1fc",
            "simulationEnable": true,
            "sourceTxnHash": "0xbfe21f7287004088dcc3ba4408c5dc4ba6f2ef5a19e7d03c76b878aa840aa898",
            "status": true,
            "timestamp": "2021-09-13T02:24:53Z",
            "transactionFee": "0.005420851617736008",
            "txnHash": "0xbfe21f7287004088dcc3ba4408c5dc4ba6f2ef5a19e7d03c76b878aa840aa898",
            "txnIndex": 111,
            "type": 2,
            "value": "0"
        },
        "fund_flow": [
            {
                "amount": "20,000",
                "from": "0x13c9c41bc9d129040f9a338e13977e5e8d07a1fc",
                "id": 1,
                "isERC1155": false,
                "isERC721": false,
                "isReverted": false,
                "order": 1,
                "to": "0xaf861e461830c2ae7b128978d42b0ea5787b13c3",
                "token": "0xba5bde662c17e2adff1075610382b9b691296350"
            }
        ],
        "token_infos": [
            {
                "address": "0xba5bde662c17e2adff1075610382b9b691296350",
                "decimals": 18
            },
            {
                "address": "0xc02aaa39b223fe8d0a0e5c4f27ead9083c756cc2",
                "decimals": 18
            },
            {
                "address": "0xeeeeeeeeeeeeeeeeeeeeeeeeeeeeeeeeeeeeeeee",
                "decimals": 18
            }
        ]
    },
    "address_label": {
        "labels": [
            {
                "address": "0x0000000000000000000000000000000000000001",
                "label": "Precompiled"
            },
            {
                "address": "0x0000000000000000000000000000000000000002",
                "label": "Precompiled"
            },
            {
                "address": "0x0000000000000000000000000000000000000003",
                "label": "Precompiled"
            },
            {
                "address": "0x0000000000000000000000000000000000000004",
                "label": "Precompiled"
            },
            {
                "address": "0xeeeeeeeeeeeeeeeeeeeeeeeeeeeeeeeeeeeeeeee",
                "label": "Ether"
            },
            {
                "address": "0xba5bde662c17e2adff1075610382b9b691296350",
                "label": "SuperRare: RARE Token"
            },
            {
                "address": "0x31acaaea0529894e7c3a5c70d3f9ee6d7804684f",
                "label": "SuperRare (RARE)"
            }
        ]
    },
    "trace": {
        "accountLabels": null,
        "dataMap": {
            "-1": {
                "invocation": {
                    "address": "0x13c9c41bc9d129040f9a338e13977e5e8d07a1fc",
                    "callData": "",
                    "decodedMethod": null,
                    "errorInfo": "",
                    "fromAddress": "",
                    "gasUsed": 0,
                    "id": -1,
                    "methodDecoded": false,
                    "operation": "",
                    "output": "",
                    "revert": false,
                    "revertMessage": "",
                    "selector": "",
                    "status": false,
                    "value": ""
                },
                "nodeType": 0
            },
            "0": {
                "invocation": {
                    "address": "0xba5bde662c17e2adff1075610382b9b691296350",
                    "callData": "0x000000000000000000000000af861e461830c2ae7b128978d42b0ea5787b13c300000000000000000000000000000000000000000000043c33c1937564800000",
                    "decodedMethod": {
                        "callParams": [
                            {
                                "name": "recipient",
                                "type": "address",
                                "value": "0xaf861e461830c2ae7b128978d42b0ea5787b13c3"
                            },
                            {
                                "decimalAvailable": true,
                                "name": "amount",
                                "type": "uint256",
                                "value": "20,000,000,000,000,000,000,000"
                            }
                        ],
                        "constructorArguments": "",
                        "name": "transfer",
                        "returnParams": [
                            {
                                "name": "",
                                "type": "bool",
                                "value": true
                            }
                        ],
                        "signature": "transfer(address,uint256)"
                    },
                    "errorInfo": "",
                    "fromAddress": "0x13c9c41bc9d129040f9a338e13977e5e8d07a1fc",
                    "gasUsed": 56676,
                    "id": 0,
                    "methodDecoded": true,
                    "operation": "CALL",
                    "output": "0x0000000000000000000000000000000000000000000000000000000000000001",
                    "revert": false,
                    "revertMessage": "",
                    "selector": "0xa9059cbb",
                    "status": true,
                    "value": "0"
                },
                "nodeType": 0
            },
            "1": {
                "invocation": {
                    "address": "0x31acaaea0529894e7c3a5c70d3f9ee6d7804684f",
                    "callData": "0x000000000000000000000000af861e461830c2ae7b128978d42b0ea5787b13c300000000000000000000000000000000000000000000043c33c1937564800000",
                    "decodedMethod": {
                        "callParams": [
                            {
                                "name": "recipient",
                                "type": "address",
                                "value": "0xaf861e461830c2ae7b128978d42b0ea5787b13c3"
                            },
                            {
                                "decimalAvailable": true,
                                "name": "amount",
                                "type": "uint256",
                                "value": "20,000,000,000,000,000,000,000"
                            }
                        ],
                        "constructorArguments": "",
                        "name": "transfer",
                        "returnParams": [
                            {
                                "name": "",
                                "type": "bool",
                                "value": true
                            }
                        ],
                        "signature": "transfer(address,uint256)"
                    },
                    "errorInfo": "",
                    "fromAddress": "0xba5bde662c17e2adff1075610382b9b691296350",
                    "gasUsed": 32486,
                    "id": 1,
                    "methodDecoded": true,
                    "operation": "DELEGATECALL",
                    "output": "0x0000000000000000000000000000000000000000000000000000000000000001",
                    "revert": false,
                    "revertMessage": "",
                    "selector": "0xa9059cbb",
                    "status": true,
                    "value": "0"
                },
                "nodeType": 0
            },
            "2": {
                "event": {
                    "contract": "0xba5bde662c17e2adff1075610382b9b691296350",
                    "decodedLog": {
                        "name": "Transfer",
                        "params": [
                            {
                                "name": "from",
                                "type": "address",
                                "value": "0x13c9c41bc9d129040f9a338e13977e5e8d07a1fc"
                            },
                            {
                                "name": "to",
                                "type": "address",
                                "value": "0xaf861e461830c2ae7b128978d42b0ea5787b13c3"
                            },
                            {
                                "decimalAvailable": true,
                                "name": "value",
                                "type": "uint256",
                                "value": "20,000,000,000,000,000,000,000"
                            }
                        ],
                        "signature": "Transfer(address,address,uint256)"
                    },
                    "id": 2,
                    "logData": "0x00000000000000000000000000000000000000000000043c33c1937564800000",
                    "logDecoded": true,
                    "operation": "EVENT",
                    "revert": false,
                    "status": true,
                    "topics": [
                        "0xddf252ad1be2c89b69c2b068fc378daa952ba7f163c4a11628f55a4df523b3ef",
                        "0x00000000000000000000000013c9c41bc9d129040f9a338e13977e5e8d07a1fc",
                        "0x000000000000000000000000af861e461830c2ae7b128978d42b0ea5787b13c3"
                    ]
                },
                "nodeType": 1
            }
        },
        "gasFlame": [
            {
                "children": [
                    {
                        "children": [
                            {
                                "children": [],
                                "depth": 0,
                                "name": "Initial Gas",
                                "value": 21656
                            },
                            {
                                "children": [
                                    {
                                        "children": [],
                                        "depth": 1,
                                        "name": "transfer",
                                        "value": 32486
                                    }
                                ],
                                "depth": 0,
                                "name": "Executed Gas",
                                "value": 39820
                            }
                        ],
                        "depth": -1,
                        "name": "Actual Gas Used",
                        "value": 56676
                    },
                    {
                        "children": [],
                        "depth": -1,
                        "name": "Refunded Gas",
                        "value": 4800
                    }
                ],
                "depth": -2,
                "name": "Total Gas",
                "value": 61476
            }
        ],
        "isConfirmed": true,
        "mainTrace": [
            {
                "children": [
                    {
                        "children": [
                            {
                                "children": [
                                    {
                                        "children": [],
                                        "depth": 2,
                                        "id": 2,
                                        "order": 2
                                    }
                                ],
                                "depth": 1,
                                "id": 1,
                                "order": 1
                            }
                        ],
                        "depth": 0,
                        "id": 0,
                        "order": 0
                    }
                ],
                "depth": -1,
                "id": -1,
                "order": -1
            }
        ],
        "mainTraceNodeCount": 3,
        "parentIdMap": {
            "0": -1,
            "1": 0,
            "2": 1
        },
        "tidyTrace": [
            {
                "children": [
                    {
                        "children": [
                            {
                                "children": [
                                    {
                                        "children": [],
                                        "depth": 2,
                                        "id": 2,
                                        "order": 2
                                    }
                                ],
                                "depth": 1,
                                "id": 1,
                                "order": 1
                            }
                        ],
                        "depth": 0,
                        "id": 0,
                        "order": 0
                    }
                ],
                "depth": -1,
                "id": -1,
                "order": -1
            }
        ],
        "tidyTraceNodeCount": 3
    },
    "state_change": {
        "stateChanges": [
            {
                "address": "0xba5bde662c17e2adff1075610382b9b691296350",
                "erc": "ERC-20",
                "slots": [
                    {
                        "current": "0x0000000000000000000000000000000000000000000000000000000000000000",
                        "key": "0xa2d2d260a299a86c59eb7aa34d3b5e093b0dc9eb02faf95809882d3ec12599c6",
                        "prev": "0x00000000000000000000000000000000000000000000043c33c1937564800000"
                    },
                    {
                        "current": "0x00000000000000000000000000000000000000000000043c33c1937564800000",
                        "key": "0xaff0fc791cce0cc0b70c9feffbc774040b7b7a4427274e680713a3065936d72a",
                        "prev": "0x0000000000000000000000000000000000000000000000000000000000000000"
                    }
                ],
                "storageVariables": [
                    {
                        "name": "_balances",
                        "type": "mapping(address => uint256)",
                        "value": {
                            "pairs": [
                                {
                                    "key": "0x13c9c41bc9d129040f9a338e13977e5e8d07a1fc",
                                    "value": {
                                        "current": "0",
                                        "prev": "20000000000000000000000",
                                        "typeTag": 1
                                    }
                                },
                                {
                                    "key": "0xaf861e461830c2ae7b128978d42b0ea5787b13c3",
                                    "value": {
                                        "current": "20000000000000000000000",
                                        "prev": "0",
                                        "typeTag": 1
                                    }
                                }
                            ],
                            "typeTag": 4
                        }
                    }
                ]
            }
        ]
    }
}