{
    "balance_change": {
        "balanceChanges": [
            {
                "account": "0x0000000000000000000000000000000000000000",
                "assets": [
                    {
                        "address": "0xad08067c7d3d3dbc14a9df8d671ff2565fc5a1ae",
                        "amount": "1",
                        "iconUrl": "",
                        "isERC1155": false,
                        "isERC721": true,
                        "sign": false,
                        "tokenID": "92",
                        "value": ""
                    }
                ]
            },
            {
                "account": "0xc581207d2e6ac5025ad03fd38e73d4bef1eb682a",
                "assets": [
                    {
                        "address": "0xad08067c7d3d3dbc14a9df8d671ff2565fc5a1ae",
                        "amount": "1",
                        "iconUrl": "",
                        "isERC1155": false,
                        "isERC721": true,
                        "sign": true,
                        "tokenID": "92",
                        "value": ""
                    }
                ]
            }
        ]
    },
    "profile": {
        "basic_info": {
            "baseFee": "50.110905526",
            "blockNumber": 14711094,
            "callData": "0xd0def521000000000000000000000000c581207d2e6ac5025ad03fd38e73d4bef1eb682a000000000000000000000000000000000000000000000000000000000000004000000000000000000000000000000000000000000000000000000000000000046d696b6100000000000000000000000000000000000000000000000000000000",
            "debugEnable": true,
            "errorInfo": "",
            "eventCount": 1,
            "feeRecipient": "0xea674fdde714fd979de3edf0f56aa9716b898ec8",
            "formatValue": "0",
            "gasLimit": 227031,
            "gasPrice": "51.610905526",
            "gasUsed": 227031,
            "intTxnCount": 0,
            "internalRevert": false,
            "internalRevertMessage": "",
            "isContractCreation": false,
            "isFlashloan": false,
            "maxFee": "53.602136863",
            "nonce": 114,
            "overwritedBlockNumber": -1,
            "priorityFee": "1.5",
            "receiver": "0xad08067c7d3d3dbc14a9df8d671ff2565fc5a1ae",
            "revertMessage": "",
            "sender": "0xc581207d2e6ac5025ad03fd38e73d4bef1eb682a",
            "simulationEnable": true,
            "sourceTxnHash": "0xbf5176cb5eb44fb89a01cd4b4dc180996e17abf610a3d330732fa1960716cd28",
            "status": true,
            "timestamp": "2022-05-04T13:04:16Z",
            "transactionFee": "0.011717275492473306",
            "txnHash": "0xbf5176cb5eb44fb89a01cd4b4dc180996e17abf610a3d330732fa1960716cd28",
            "txnIndex": 174,
            "type": 2,
            "value": "0"
        },
        "fund_flow": [
            {
                "amount": "1",
                "from": "0x0000000000000000000000000000000000000000",
                "id": 1,
                "isERC1155": false,
                "isERC721": true,
                "isReverted": false,
                "order": 1,
                "to": "0xc581207d2e6ac5025ad03fd38e73d4bef1eb682a",
                "token": "0xad08067c7d3d3dbc14a9df8d671ff2565fc5a1ae",
                "tokenID": "92"
            }
        ],
        "token_infos": [
            {
                "address": "0xc02aaa39b223fe8d0a0e5c4f27ead9083c756cc2",
                "decimals": 18
            },
            {
                "address": "0xeeeeeeeeeeeeeeeeeeeeeeeeeeeeeeeeeeeeeeee",
                "decimals": 18
            }
        ]
    },
    "address_label": {
        "labels": [
            {
                "address": "0xeeeeeeeeeeeeeeeeeeeeeeeeeeeeeeeeeeeeeeee",
                "label": "Ether"
            },
            {
                "address": "0xad08067c7d3d3dbc14a9df8d671ff2565fc5a1ae",
                "label": "NF.TD (NFTD)"
            },
            {
                "address": "0x0000000000000000000000000000000000000001",
                "label": "Precompiled"
            },
            {
                "address": "0x0000000000000000000000000000000000000002",
                "label": "Precompiled"
            },
            {
                "address": "0x0000000000000000000000000000000000000003",
                "label": "Precompiled"
            },
            {
                "address": "0x0000000000000000000000000000000000000004",
                "label": "Precompiled"
            }
        ]
    },
    "trace": {
        "accountLabels": null,
        "dataMap": {
            "-1": {
                "invocation": {
                    "address": "0xc581207d2e6ac5025ad03fd38e73d4bef1eb682a",
                    "callData": "",
                    "decodedMethod": null,
                    "errorInfo": "",
                    "fromAddress": "",
                    "gasUsed": 0,
                    "id": -1,
                    "methodDecoded": false,
                    "operation": "",
                    "output": "",
                    "revert": false,
                    "revertMessage": "",
                    "selector": "",
                    "status": false,
                    "value": ""
                },
                "nodeType": 0
            },
            "0": {
                "invocation": {
                    "address": "0xad08067c7d3d3dbc14a9df8d671ff2565fc5a1ae",
                    "callData": "0x000000000000000000000000c581207d2e6ac5025ad03fd38e73d4bef1eb682a000000000000000000000000000000000000000000000000000000000000004000000000000000000000000000000000000000000000000000000000000000046d696b6100000000000000000000000000000000000000000000000000000000",
                    "decodedMethod": {
                        "callParams": [
                            {
                                "name": "to",
                                "type": "address",
                                "value": "0xc581207d2e6ac5025ad03fd38e73d4bef1eb682a"
                            },
                            {
                                "name": "uri",
                                "type": "string",
                                "value": "mika"
                            }
                        ],
                        "constructorArguments": "",
                        "name": "mint",
                        "returnParams": [],
                        "signature": "mint(address,string)"
                    },
                    "errorInfo": "",
                    "fromAddress": "0xc581207d2e6ac5025ad03fd38e73d4bef1eb682a",
                    "gasUsed": 227031,
                    "id": 0,
                    "methodDecoded": true,
                    "operation": "CALL",
                    "output": "",
                    "revert": false,
                    "revertMessage": "",
                    "selector": "0xd0def521",
                    "status": true,
                    "value": "0"
                },
                "nodeType": 0
            },
            "1": {
                "event": {
                    "contract": "0xad08067c7d3d3dbc14a9df8d671ff2565fc5a1ae",
                    "decodedLog": {
                        "name": "Transfer",
                        "params": [
                            {
                                "name": "from",
                                "type": "address",
                                "value": "0x0000000000000000000000000000000000000000"
                            },
                            {
                                "name": "to",
                                "type": "address",
                                "value": "0xc581207d2e6ac5025ad03fd38e73d4bef1eb682a"
                            },
                            {
                                "decimalAvailable": true,
                                "name": "tokenId",
                                "type": "uint256",
                                "value": "92"
                            }
                        ],
                        "signature": "Transfer(address,address,uint256)"
                    },
                    "id": 1,
                    "logData": "0x",
                    "logDecoded": true,
                    "operation": "EVENT",
                    "revert": false,
                    "status": true,
                    "topics": [
                        "0xddf252ad1be2c89b69c2b068fc378daa952ba7f163c4a11628f55a4df523b3ef",
                        "0x0000000000000000000000000000000000000000000000000000000000000000",
                        "0x000000000000000000000000c581207d2e6ac5025ad03fd38e73d4bef1eb682a",
                        "0x000000000000000000000000000000000000000000000000000000000000005c"
                    ]
                },
                "nodeType": 1
            }
        },
        "gasFlame": [
            {
                "children": [
                    {
                        "children": [
                            {
                                "children": [],
                                "depth": 0,
                                "name": "Initial Gas",
                                "value": 21888
                            },
                            {
                                "children": [],
                                "depth": 0,
                                "name": "Executed Gas",
                                "value": 205143
                            }
                        ],
                        "depth": -1,
                        "name": "Actual Gas Used",
                        "value": 227031
                    },
                    {
                        "children": [],
                        "depth": -1,
                        "name": "Refunded Gas",
                        "value": 0
                    }
                ],
                "depth": -2,
                "name": "Total Gas",
                "value": 227031
            }
        ],
        "isConfirmed": true,
        "mainTrace": [
            {
                "children": [
                    {
                        "children": [
                            {
                                "children": [],
                                "depth": 1,
                                "id": 1,
                                "order": 1
                            }
                        ],
                        "depth": 0,
                        "id": 0,
                        "order": 0
                    }
                ],
                "depth": -1,
                "id": -1,
                "order": -1
            }
        ],
        "mainTraceNodeCount": 2,
        "parentIdMap": {
            "0": -1,
            "1": 0
        },
        "tidyTrace": [
            {
                "children": [
                    {
                        "children": [
                            {
                                "children": [],
                                "depth": 1,
                                "id": 1,
                                "order": 1
                            }
                        ],
                        "depth": 0,
                        "id": 0,
                        "order": 0
                    }
                ],
                "depth": -1,
                "id": -1,
                "order": -1
            }
        ],
        "tidyTraceNodeCount": 2
    },
    "state_change": {
        "stateChanges": [
            {
                "address": "0xad08067c7d3d3dbc14a9df8d671ff2565fc5a1ae",
                "erc": "",
                "slots": [
                    {
                        "current": "0x0000000000000000000000000000000000000000000000000000000000000001",
                        "key": "0x4ef002ac82980b7af320081b14ee6dccf76b750f92efcd38b7d734a81aefc5fd",
                        "prev": "0x0000000000000000000000000000000000000000000000000000000000000000"
                    },
                    {
                        "current": "0x6d696b6100000000000000000000000000000000000000000000000000000008",
                        "key": "0x234c09388fd6138d33db45478142af8bb4c50511a1d25a0cf4bd840055ad2528",
                        "prev": "0x0000000000000000000000000000000000000000000000000000000000000000"
                    },
                    {
                        "current": "0x000000000000000000000000000000000000000000000000000000000000005b",
                        "key": "0x27a3c5a09dcc4abf90bc145140fb60f7c80a586f9ff315b1be87669f466bba5b",
                        "prev": "0x0000000000000000000000000000000000000000000000000000000000000000"
                    },
                    {
                        "current": "0x000000000000000000000000c581207d2e6ac5025ad03fd38e73d4bef1eb682a",
                        "key": "0x87b463b5150a6b4ebb4cb0ec36953f238790c73198e425afda5b3baac0b75f8a",
                        "prev": "0x0000000000000000000000000000000000000000000000000000000000000000"
                    },
                    {
                        "current": "0x0000000000000000000000000000000000000000000000000000000000000001",
                        "key": "0x476559400149af5eb7eb125ddeea2b070a36debbc40c080d25967c23f0361ceb",
                        "prev": "0x0000000000000000000000000000000000000000000000000000000000000000"
                    },
                    {
                        "current": "0x000000000000000000000000000000000000000000000000000000000000005c",
                        "key": "0x7027535f79026123ade52e550fe7169ff4d806df1d2b2d7279e2e4a3ae07519c",
                        "prev": "0x0000000000000000000000000000000000000000000000000000000000000000"
                    },
                    {
                        "current": "0x000000000000000000000000000000000000000000000000000000000000005c",
                        "key": "0xf3f7a9fe364faab93b216da50a3214154f22a0a2b415b23a84c8169e8b636f3e",
                        "prev": "0x0000000000000000000000000000000000000000000000000000000000000000"
                    },
                    {
                        "current": "0x000000000000000000000000000000000000000000000000000000000000005c",
                        "key": "0x0000000000000000000000000000000000000000000000000000000000000008",
                        "prev": "0x000000000000000000000000000000000000000000000000000000000000005b"
                    },
                    {
                        "current": "0x000000000000000000000000000000000000000000000000000000000000005c",
                        "key": "0xec7352c78d56c8b2d8fc27106c8823e919d8fd09764f9d2be2cc368ea1005732",
                        "prev": "0x0000000000000000000000000000000000000000000000000000000000000000"
                    }
                ],
                "storageVariables": []
            }
        ]
    }
}