{
    "balance_change": {
        "balanceChanges": []
    },
    "profile": {
        "basic_info": {
            "baseFee": "",
            "blockNumber": 5356483,
            "callData": "0x3d7d3f5a000000000000000000000000000000000000000000000000000000000003122300000000000000000000000000000000000000000000000000038d7ea4c6800000000000000000000000000000000000000000000000000000038d7ea4c68000000000000000000000000000000000000000000000000000000000000002a300",
            "debugEnable": true,
            "errorInfo": "",
            "eventCount": 2,
            "feeRecipient": "0xea674fdde714fd979de3edf0f56aa9716b898ec8",
            "formatValue": "0",
            "gasLimit": 235507,
            "gasPrice": "4",
            "gasUsed": 140340,
            "intTxnCount": 2,
            "internalRevert": false,
            "internalRevertMessage": "",
            "isContractCreation": false,
            "isFlashloan": false,
            "maxFee": "",
            "nonce": 26,
            "overwritedBlockNumber": -1,
            "priorityFee": "",
            "receiver": "0x06012c8cf97bead5deae237070f9587f8e7a266d",
            "revertMessage": "",
            "sender": "0xc9d897985bdd29ac562536c6686b897099288b5b",
            "simulationEnable": true,
            "sourceTxnHash": "0xbff51c7bfa7d979e60e597b83f9199c5445b016d92960e2ca2dc777eaa41aba5",
            "status": true,
            "timestamp": "2018-03-31T18:51:48Z",
            "transactionFee": "0.00056136",
            "txnHash": "0xbff51c7bfa7d979e60e597b83f9199c5445b016d92960e2ca2dc777eaa41aba5",
            "txnIndex": 71,
            "type": 0,
            "value": "0"
        },
        "fund_flow": [],
        "token_infos": [
            {
                "address": "0xeeeeeeeeeeeeeeeeeeeeeeeeeeeeeeeeeeeeeeee",
                "decimals": 18
            },
            {
                "address": "0xc02aaa39b223fe8d0a0e5c4f27ead9083c756cc2",
                "decimals": 18
            }
        ]
    },
    "address_label": {
        "labels": [
            {
                "address": "0x0000000000000000000000000000000000000002",
                "label": "Precompiled"
            },
            {
                "address": "0x0000000000000000000000000000000000000003",
                "label": "Precompiled"
            },
            {
                "address": "0x0000000000000000000000000000000000000004",
                "label": "Precompiled"
            },
            {
                "address": "0xeeeeeeeeeeeeeeeeeeeeeeeeeeeeeeeeeeeeeeee",
                "label": "Ether"
            },
            {
                "address": "0x06012c8cf97bead5deae237070f9587f8e7a266d",
                "label": "CryptoKitties: Core"
            },
            {
                "address": "0xb1690c08e213a35ed9bab7b318de14420fb57d8c",
                "label": "SaleClockAuction"
            },
            {
                "address": "0x0000000000000000000000000000000000000001",
                "label": "Precompiled"
            }
        ]
    },
    "trace": {
        "accountLabels": null,
        "dataMap": {
            "-1": {
                "invocation": {
                    "address": "0xc9d897985bdd29ac562536c6686b897099288b5b",
                    "callData": "",
                    "decodedMethod": null,
                    "errorInfo": "",
                    "fromAddress": "",
                    "gasUsed": 0,
                    "id": -1,
                    "methodDecoded": false,
                    "operation": "",
                    "output": "",
                    "revert": false,
                    "revertMessage": "",
                    "selector": "",
                    "status": false,
                    "value": ""
                },
                "nodeType": 0
            },
            "0": {
                "invocation": {
                    "address": "0x06012c8cf97bead5deae237070f9587f8e7a266d",
                    "callData": "0x000000000000000000000000000000000000000000000000000000000003122300000000000000000000000000000000000000000000000000038d7ea4c6800000000000000000000000000000000000000000000000000000038d7ea4c68000000000000000000000000000000000000000000000000000000000000002a300",
                    "decodedMethod": {
                        "callParams": [
                            {
                                "name": "_kittyId",
                                "type": "uint256",
                                "value": "201,251"
                            },
                            {
                                "name": "_startingPrice",
                                "type": "uint256",
                                "value": "1,000,000,000,000,000"
                            },
                            {
                                "name": "_endingPrice",
                                "type": "uint256",
                                "value": "1,000,000,000,000,000"
                            },
                            {
                                "name": "_duration",
                                "type": "uint256",
                                "value": "172,800"
                            }
                        ],
                        "constructorArguments": "",
                        "name": "createSaleAuction",
                        "returnParams": [],
                        "signature": "createSaleAuction(uint256,uint256,uint256,uint256)"
                    },
                    "errorInfo": "",
                    "fromAddress": "0xc9d897985bdd29ac562536c6686b897099288b5b",
                    "gasUsed": 140340,
                    "id": 0,
                    "methodDecoded": true,
                    "operation": "CALL",
                    "output": "",
                    "revert": false,
                    "revertMessage": "",
                    "selector": "0x3d7d3f5a",
                    "status": true,
                    "value": "0"
                },
                "nodeType": 0
            },
            "1": {
                "invocation": {
                    "address": "0xb1690c08e213a35ed9bab7b318de14420fb57d8c",
                    "callData": "0x000000000000000000000000000000000000000000000000000000000003122300000000000000000000000000000000000000000000000000038d7ea4c6800000000000000000000000000000000000000000000000000000038d7ea4c68000000000000000000000000000000000000000000000000000000000000002a300000000000000000000000000c9d897985bdd29ac562536c6686b897099288b5b",
                    "decodedMethod": {
                        "callParams": [
                            {
                                "name": "_tokenId",
                                "type": "uint256",
                                "value": "201,251"
                            },
                            {
                                "name": "_startingPrice",
                                "type": "uint256",
                                "value": "1,000,000,000,000,000"
                            },
                            {
                                "name": "_endingPrice",
                                "type": "uint256",
                                "value": "1,000,000,000,000,000"
                            },
                            {
                                "name": "_duration",
                                "type": "uint256",
                                "value": "172,800"
                            },
                            {
                                "name": "_seller",
                                "type": "address",
                                "value": "0xc9d897985bdd29ac562536c6686b897099288b5b"
                            }
                        ],
                        "constructorArguments": "",
                        "name": "createAuction",
                        "returnParams": [],
                        "signature": "createAuction(uint256,uint256,uint256,uint256,address)"
                    },
                    "errorInfo": "",
                    "fromAddress": "0x06012c8cf97bead5deae237070f9587f8e7a266d",
                    "gasUsed": 107646,
                    "id": 1,
                    "methodDecoded": true,
                    "operation": "CALL",
                    "output": "",
                    "revert": false,
                    "revertMessage": "",
                    "selector": "0x27ebe40a",
                    "status": true,
                    "value": "0"
                },
                "nodeType": 0
            },
            "2": {
                "invocation": {
                    "address": "0x06012c8cf97bead5deae237070f9587f8e7a266d",
                    "callData": "0x000000000000000000000000c9d897985bdd29ac562536c6686b897099288b5b000000000000000000000000b1690c08e213a35ed9bab7b318de14420fb57d8c0000000000000000000000000000000000000000000000000000000000031223",
                    "decodedMethod": {
                        "callParams": [
                            {
                                "name": "_from",
                                "type": "address",
                                "value": "0xc9d897985bdd29ac562536c6686b897099288b5b"
                            },
                            {
                                "name": "_to",
                                "type": "address",
                                "value": "0xb1690c08e213a35ed9bab7b318de14420fb57d8c"
                            },
                            {
                                "decimalAvailable": true,
                                "name": "_tokenId",
                                "type": "uint256",
                                "value": "201,251"
                            }
                        ],
                        "constructorArguments": "",
                        "name": "transferFrom",
                        "returnParams": [],
                        "signature": "transferFrom(address,address,uint256)"
                    },
                    "errorInfo": "",
                    "fromAddress": "0xb1690c08e213a35ed9bab7b318de14420fb57d8c",
                    "gasUsed": 30507,
                    "id": 2,
                    "methodDecoded": true,
                    "operation": "CALL",
                    "output": "",
                    "revert": false,
                    "revertMessage": "",
                    "selector": "0x23b872dd",
                    "status": true,
                    "value": "0"
                },
                "nodeType": 0
            },
            "3": {
                "event": {
                    "contract": "0x06012c8cf97bead5deae237070f9587f8e7a266d",
                    "decodedLog": {
                        "name": "Transfer",
                        "params": [
                            {
                                "name": "from",
                                "type": "address",
                                "value": "0xc9d897985bdd29ac562536c6686b897099288b5b"
                            },
                            {
                                "name": "to",
                                "type": "address",
                                "value": "0xb1690c08e213a35ed9bab7b318de14420fb57d8c"
                            },
                            {
                                "decimalAvailable": true,
                                "name": "tokenId",
                                "type": "uint256",
                                "value": "201,251"
                            }
                        ],
                        "signature": "Transfer(address,address,uint256)"
                    },
                    "id": 3,
                    "logData": "0x000000000000000000000000c9d897985bdd29ac562536c6686b897099288b5b000000000000000000000000b1690c08e213a35ed9bab7b318de14420fb57d8c0000000000000000000000000000000000000000000000000000000000031223",
                    "logDecoded": true,
                    "operation": "EVENT",
                    "revert": false,
                    "status": true,
                    "topics": [
                        "0xddf252ad1be2c89b69c2b068fc378daa952ba7f163c4a11628f55a4df523b3ef"
                    ]
                },
                "nodeType": 1
            },
            "4": {
                "event": {
                    "contract": "0xb1690c08e213a35ed9bab7b318de14420fb57d8c",
                    "decodedLog": {
                        "name": "AuctionCreated",
                        "params": [
                            {
                                "name": "tokenId",
                                "type": "uint256",
                                "value": "201,251"
                            },
                            {
                                "name": "startingPrice",
                                "type": "uint256",
                                "value": "1,000,000,000,000,000"
                            },
                            {
                                "name": "endingPrice",
                                "type": "uint256",
                                "value": "1,000,000,000,000,000"
                            },
                            {
                                "name": "duration",
                                "type": "uint256",
                                "value": "172,800"
                            }
                        ],
                        "signature": "AuctionCreated(uint256,uint256,uint256,uint256)"
                    },
                    "id": 4,
                    "logData": "0x000000000000000000000000000000000000000000000000000000000003122300000000000000000000000000000000000000000000000000038d7ea4c6800000000000000000000000000000000000000000000000000000038d7ea4c68000000000000000000000000000000000000000000000000000000000000002a300",
                    "logDecoded": true,
                    "operation": "EVENT",
                    "revert": false,
                    "status": true,
                    "topics": [
                        "0xa9c8dfcda5664a5a124c713e386da27de87432d5b668e79458501eb296389ba7"
                    ]
                },
                "nodeType": 1
            }
        },
        "gasFlame": [
            {
                "children": [
                    {
                        "children": [
                            {
                                "children": [],
                                "depth": 0,
                                "name": "Initial Gas",
                                "value": 22872
                            },
                            {
                                "children": [
                                    {
                                        "children": [
                                            {
                                                "children": [],
                                                "depth": 2,
                                                "name": "transferFrom",
                                                "value": 30507
                                            }
                                        ],
                                        "depth": 1,
                                        "name": "createAuction",
                                        "value": 107646
                                    }
                                ],
                                "depth": 0,
                                "name": "Executed Gas",
                                "value": 132468
                            }
                        ],
                        "depth": -1,
                        "name": "Actual Gas Used",
                        "value": 140340
                    },
                    {
                        "children": [],
                        "depth": -1,
                        "name": "Refunded Gas",
                        "value": 15000
                    }
                ],
                "depth": -2,
                "name": "Total Gas",
                "value": 155340
            }
        ],
        "isConfirmed": true,
        "mainTrace": [
            {
                "children": [
                    {
                        "children": [
                            {
                                "children": [
                                    {
                                        "children": [
                                            {
                                                "children": [],
                                                "depth": 3,
                                                "id": 3,
                                                "order": 3
                                            }
                                        ],
                                        "depth": 2,
                                        "id": 2,
                                        "order": 2
                                    },
                                    {
                                        "children": [],
                                        "depth": 2,
                                        "id": 4,
                                        "order": 4
                                    }
                                ],
                                "depth": 1,
                                "id": 1,
                                "order": 1
                            }
                        ],
                        "depth": 0,
                        "id": 0,
                        "order": 0
                    }
                ],
                "depth": -1,
                "id": -1,
                "order": -1
            }
        ],
        "mainTraceNodeCount": 5,
        "parentIdMap": {
            "0": -1,
            "1": 0,
            "2": 1,
            "3": 2,
            "4": 1
        },
        "tidyTrace": [
            {
                "children": [
                    {
                        "children": [
                            {
                                "children": [
                                    {
                                        "children": [
                                            {
                                                "children": [],
                                                "depth": 3,
                                                "id": 3,
                                                "order": 3
                                            }
                                        ],
                                        "depth": 2,
                                        "id": 2,
                                        "order": 2
                                    },
                                    {
                                        "children": [],
                                        "depth": 2,
                                        "id": 4,
                                        "order": 4
                                    }
                                ],
                                "depth": 1,
                                "id": 1,
                                "order": 1
                            }
                        ],
                        "depth": 0,
                        "id": 0,
                        "order": 0
                    }
                ],
                "depth": -1,
                "id": -1,
                "order": -1
            }
        ],
        "tidyTraceNodeCount": 5
    },
    "state_change": {
        "stateChanges": [
            {
                "address": "0x06012c8cf97bead5deae237070f9587f8e7a266d",
                "erc": "",
                "slots": [
                    {
                        "current": "0x0000000000000000000000000000000000000000000000000000000000000009",
                        "key": "0x77fd00fb2d794e0ab5d1edeccc50684e1fb332f82882046a83076581a6f01207",
                        "prev": "0x000000000000000000000000000000000000000000000000000000000000000a"
                    },
                    {
                        "current": "0x0000000000000000000000000000000000000000000000000000000000021720",
                        "key": "0xc56c286245a85e4048e082d091c57ede29ec05df707b458fe836e199193ff182",
                        "prev": "0x000000000000000000000000000000000000000000000000000000000002171f"
                    },
                    {
                        "current": "0x000000000000000000000000b1690c08e213a35ed9bab7b318de14420fb57d8c",
                        "key": "0x4b409cc2fd4a64b3f0d9dbe6780aca862740116223aea5d3bb83d35e207d35a4",
                        "prev": "0x000000000000000000000000c9d897985bdd29ac562536c6686b897099288b5b"
                    }
                ],
                "storageVariables": [
                    {
                        "name": "ownershipTokenCount",
                        "type": "mapping(address => uint256)",
                        "value": {
                            "pairs": [
                                {
                                    "key": "0xb1690c08e213a35ed9bab7b318de14420fb57d8c",
                                    "value": {
                                        "current": "136992",
                                        "prev": "136991",
                                        "typeTag": 1
                                    }
                                },
                                {
                                    "key": "0xc9d897985bdd29ac562536c6686b897099288b5b",
                                    "value": {
                                        "current": "9",
                                        "prev": "10",
                                        "typeTag": 1
                                    }
                                }
                            ],
                            "typeTag": 4
                        }
                    },
                    {
                        "name": "kittyIndexToOwner",
                        "type": "mapping(uint256 => address)",
                        "value": {
                            "pairs": [
                                {
                                    "key": "201251",
                                    "value": {
                                        "current": "0xb1690c08e213a35ed9bab7b318de14420fb57d8c",
                                        "prev": "0xc9d897985bdd29ac562536c6686b897099288b5b",
                                        "typeTag": 1
                                    }
                                }
                            ],
                            "typeTag": 4
                        }
                    }
                ]
            },
            {
                "address": "0xb1690c08e213a35ed9bab7b318de14420fb57d8c",
                "erc": "",
                "slots": [
                    {
                        "current": "0x000000000000000000000000c9d897985bdd29ac562536c6686b897099288b5b",
                        "key": "0xa0904f12f3c350e4e0283521712ff4c9aece77a0cb51b172d5fc47ce34e39ec4",
                        "prev": "0x0000000000000000000000000000000000000000000000000000000000000000"
                    },
                    {
                        "current": "0x000000000000000000038d7ea4c68000000000000000000000038d7ea4c68000",
                        "key": "0xa0904f12f3c350e4e0283521712ff4c9aece77a0cb51b172d5fc47ce34e39ec5",
                        "prev": "0x0000000000000000000000000000000000000000000000000000000000000000"
                    },
                    {
                        "current": "0x00000000000000000000000000000000000000005abfd8c4000000000002a300",
                        "key": "0xa0904f12f3c350e4e0283521712ff4c9aece77a0cb51b172d5fc47ce34e39ec6",
                        "prev": "0x0000000000000000000000000000000000000000000000000000000000000000"
                    }
                ],
                "storageVariables": [
                    {
                        "name": "tokenIdToAuction",
                        "type": "mapping(uint256 => struct ClockAuctionBase.Auction)",
                        "value": {
                            "pairs": [
                                {
                                    "key": "201251",
                                    "value": {
                                        "fields": [
                                            {
                                                "name": "seller",
                                                "type": "address",
                                                "value": {
                                                    "current": "0xc9d897985bdd29ac562536c6686b897099288b5b",
                                                    "prev": "0x0000000000000000000000000000000000000000",
                                                    "typeTag": 1
                                                }
                                            },
                                            {
                                                "name": "startingPrice",
                                                "type": "uint128",
                                                "value": {
                                                    "current": "1000000000000000",
                                                    "prev": "0",
                                                    "typeTag": 1
                                                }
                                            },
                                            {
                                                "name": "endingPrice",
                                                "type": "uint128",
                                                "value": {
                                                    "current": "1000000000000000",
                                                    "prev": "0",
                                                    "typeTag": 1
                                                }
                                            },
                                            {
                                                "name": "duration",
                                                "type": "uint64",
                                                "value": {
                                                    "current": "172800",
                                                    "prev": "0",
                                                    "typeTag": 1
                                                }
                                            },
                                            {
                                                "name": "startedAt",
                                                "type": "uint64",
                                                "value": {
                                                    "current": "1522522308",
                                                    "prev": "0",
                                                    "typeTag": 1
                                                }
                                            }
                                        ],
                                        "typeTag": 3
                                    }
                                }
                            ],
                            "typeTag": 4
                        }
                    }
                ]
            }
        ]
    }
}