{
    "balance_change": {
        "balanceChanges": []
    },
    "profile": {
        "basic_info": {
            "baseFee": "3.671409307",
            "blockNumber": 20358272,
            "callData": "0x095ea7b3000000000000000000000000c71f6b9bfc0875bdc70fa6ff00c8052feb6000220fffffffffffffffffffffffffffffffffffffffffffffffffffffffffffffff",
            "debugEnable": true,
            "errorInfo": "",
            "eventCount": 1,
            "feeRecipient": "0xdf99a0839818b3f120ebac9b73f82b617dc6a555",
            "formatValue": "0",
            "gasLimit": 73891,
            "gasPrice": "6.171409307",
            "gasUsed": 48873,
            "intTxnCount": 0,
            "internalRevert": false,
            "internalRevertMessage": "",
            "isContractCreation": false,
            "isFlashloan": false,
            "maxFee": "9.544916816",
            "nonce": 0,
            "overwritedBlockNumber": -1,
            "priorityFee": "2.5",
            "receiver": "0xdac17f958d2ee523a2206206994597c13d831ec7",
            "revertMessage": "",
            "sender": "0x8a29e4445c9d1005310d5dfe8fbaac9cdb3989b5",
            "simulationEnable": true,
            "sourceTxnHash": "0xc08a1412910ce0035bdda169c501b69267568c919f2ed0e380a5cd8567dbdb2d",
            "status": true,
            "timestamp": "2024-07-21T23:44:11Z",
            "transactionFee": "0.000301615287061011",
            "txnHash": "0xc08a1412910ce0035bdda169c501b69267568c919f2ed0e380a5cd8567dbdb2d",
            "txnIndex": 47,
            "type": 2,
            "value": "0"
        },
        "fund_flow": [],
        "token_infos": [
            {
                "address": "0xc02aaa39b223fe8d0a0e5c4f27ead9083c756cc2",
                "decimals": 18
            },
            {
                "address": "0xeeeeeeeeeeeeeeeeeeeeeeeeeeeeeeeeeeeeeeee",
                "decimals": 18
            }
        ]
    },
    "address_label": {
        "labels": [
            {
                "address": "0xeeeeeeeeeeeeeeeeeeeeeeeeeeeeeeeeeeeeeeee",
                "label": "Ether"
            },
            {
                "address": "0xdac17f958d2ee523a2206206994597c13d831ec7",
                "label": "Tether: USDT Stablecoin"
            },
            {
                "address": "0x0000000000000000000000000000000000000001",
                "label": "Precompiled"
            },
            {
                "address": "0x0000000000000000000000000000000000000002",
                "label": "Precompiled"
            },
            {
                "address": "0x0000000000000000000000000000000000000003",
                "label": "Precompiled"
            },
            {
                "address": "0x0000000000000000000000000000000000000004",
                "label": "Precompiled"
            }
        ]
    },
    "trace": {
        "accountLabels": null,
        "dataMap": {
            "-1": {
                "invocation": {
                    "address": "0x8a29e4445c9d1005310d5dfe8fbaac9cdb3989b5",
                    "callData": "",
                    "decodedMethod": null,
                    "errorInfo": "",
                    "fromAddress": "",
                    "gasUsed": 0,
                    "id": -1,
                    "methodDecoded": false,
                    "operation": "",
                    "output": "",
                    "revert": false,
                    "revertMessage": "",
                    "selector": "",
                    "status": false,
                    "value": ""
                },
                "nodeType": 0
            },
            "0": {
                "invocation": {
                    "address": "0xdac17f958d2ee523a2206206994597c13d831ec7",
                    "callData": "0x000000000000000000000000c71f6b9bfc0875bdc70fa6ff00c8052feb6000220fffffffffffffffffffffffffffffffffffffffffffffffffffffffffffffff",
                    "decodedMethod": {
                        "callParams": [
                            {
                                "name": "_spender",
                                "type": "address",
                                "value": "0xc71f6b9bfc0875bdc70fa6ff00c8052feb600022"
                            },
                            {
                                "decimalAvailable": true,
                                "name": "_value",
                                "type": "uint256",
                                "value": "7,237,005,577,332,262,213,973,186,563,042,994,240,829,374,041,602,535,252,466,099,000,494,570,602,495"
                            }
                        ],
                        "constructorArguments": "",
                        "name": "approve",
                        "returnParams": [],
                        "signature": "approve(address,uint256)"
                    },
                    "errorInfo": "",
                    "fromAddress": "0x8a29e4445c9d1005310d5dfe8fbaac9cdb3989b5",
                    "gasUsed": 48873,
                    "id": 0,
                    "methodDecoded": true,
                    "operation": "CALL",
                    "output": "",
                    "revert": false,
                    "revertMessage": "",
                    "selector": "0x095ea7b3",
                    "status": true,
                    "value": "0"
                },
                "nodeType": 0
            },
            "1": {
                "event": {
                    "contract": "0xdac17f958d2ee523a2206206994597c13d831ec7",
                    "decodedLog": {
                        "name": "Approval",
                        "params": [
                            {
                                "name": "owner",
                                "type": "address",
                                "value": "0x8a29e4445c9d1005310d5dfe8fbaac9cdb3989b5"
                            },
                            {
                                "name": "spender",
                                "type": "address",
                                "value": "0xc71f6b9bfc0875bdc70fa6ff00c8052feb600022"
                            },
                            {
                                "decimalAvailable": true,
                                "name": "value",
                                "type": "uint256",
                                "value": "7,237,005,577,332,262,213,973,186,563,042,994,240,829,374,041,602,535,252,466,099,000,494,570,602,495"
                            }
                        ],
                        "signature": "Approval(address,address,uint256)"
                    },
                    "id": 1,
                    "logData": "0x0fffffffffffffffffffffffffffffffffffffffffffffffffffffffffffffff",
                    "logDecoded": true,
                    "operation": "EVENT",
                    "revert": false,
                    "status": true,
                    "topics": [
                        "0x8c5be1e5ebec7d5bd14f71427d1e84f3dd0314c0f7b2291e5b200ac8c7c3b925",
                        "0x0000000000000000000000008a29e4445c9d1005310d5dfe8fbaac9cdb3989b5",
                        "0x000000000000000000000000c71f6b9bfc0875bdc70fa6ff00c8052feb600022"
                    ]
                },
                "nodeType": 1
            }
        },
        "gasFlame": [
            {
                "children": [
                    {
                        "children": [
                            {
                                "children": [],
                                "depth": 0,
                                "name": "Initial Gas",
                                "value": 21920
                            },
                            {
                                "children": [],
                                "depth": 0,
                                "name": "Executed Gas",
                                "value": 26953
                            }
                        ],
                        "depth": -1,
                        "name": "Actual Gas Used",
                        "value": 48873
                    },
                    {
                        "children": [],
                        "depth": -1,
                        "name": "Refunded Gas",
                        "value": 0
                    }
                ],
                "depth": -2,
                "name": "Total Gas",
                "value": 48873
            }
        ],
        "isConfirmed": true,
        "mainTrace": [
            {
                "children": [
                    {
                        "children": [
                            {
                                "children": [],
                                "depth": 1,
                                "id": 1,
                                "order": 1
                            }
                        ],
                        "depth": 0,
                        "id": 0,
                        "order": 0
                    }
                ],
                "depth": -1,
                "id": -1,
                "order": -1
            }
        ],
        "mainTraceNodeCount": 2,
        "parentIdMap": {
            "0": -1,
            "1": 0
        },
        "tidyTrace": [
            {
                "children": [
                    {
                        "children": [
                            {
                                "children": [],
                                "depth": 1,
                                "id": 1,
                                "order": 1
                            }
                        ],
                        "depth": 0,
                        "id": 0,
                        "order": 0
                    }
                ],
                "depth": -1,
                "id": -1,
                "order": -1
            }
        ],
        "tidyTraceNodeCount": 2
    },
    "state_change": {
        "stateChanges": [
            {
                "address": "0xdac17f958d2ee523a2206206994597c13d831ec7",
                "erc": "ERC-20",
                "slots": [
                    {
                        "current": "0x0fffffffffffffffffffffffffffffffffffffffffffffffffffffffffffffff",
                        "key": "0xd6c760ab3b809c99844baeac073cc6f3b6e5769e3b2acefdcf141f5407c0c570",
                        "prev": "0x0000000000000000000000000000000000000000000000000000000000000000"
                    }
                ],
                "storageVariables": [
                    {
                        "name": "allowed",
                        "type": "mapping(address => mapping(address => uint256))",
                        "value": {
                            "pairs": [
                                {
                                    "key": "0x8a29e4445c9d1005310d5dfe8fbaac9cdb3989b5",
                                    "value": {
                                        "pairs": [
                                            {
                                                "key": "0xc71f6b9bfc0875bdc70fa6ff00c8052feb600022",
                                                "value": {
                                                    "current": "7237005577332262213973186563042994240829374041602535252466099000494570602495",
                                                    "prev": "0",
                                                    "typeTag": 1
                                                }
                                            }
                                        ],
                                        "typeTag": 4
                                    }
                                }
                            ],
                            "typeTag": 4
                        }
                    }
                ]
            }
        ]
    }
}