{
    "balance_change": {
        "balanceChanges": [
            {
                "account": "0x5d96da17ff2d587f9aefead09b0cf2db5249f3d6",
                "assets": [
                    {
                        "address": "0xd2877702675e6ceb975b4a1dff9fb7baf4c91ea9",
                        "amount": "4,190,214.47196386445",
                        "iconUrl": "",
                        "isERC1155": false,
                        "isERC721": false,
                        "sign": false,
                        "value": "384.0911576"
                    }
                ]
            },
            {
                "account": "0x44a33e2f31dc275d253609107b8f469986442828",
                "assets": [
                    {
                        "address": "0xd2877702675e6ceb975b4a1dff9fb7baf4c91ea9",
                        "amount": "4,190,214.47196386445",
                        "iconUrl": "",
                        "isERC1155": false,
                        "isERC721": false,
                        "sign": true,
                        "value": "384.0911576"
                    }
                ]
            }
        ]
    },
    "profile": {
        "basic_info": {
            "baseFee": "14.138716351",
            "blockNumber": 15335060,
            "callData": "0xa9059cbb00000000000000000000000044a33e2f31dc275d253609107b8f46998644282800000000000000000000000000000000000000000003774ffb4fa76203b4e480",
            "debugEnable": true,
            "errorInfo": "",
            "eventCount": 1,
            "feeRecipient": "0xea674fdde714fd979de3edf0f56aa9716b898ec8",
            "formatValue": "0",
            "gasLimit": 52141,
            "gasPrice": "16.138716351",
            "gasUsed": 29961,
            "intTxnCount": 0,
            "internalRevert": false,
            "internalRevertMessage": "",
            "isContractCreation": false,
            "isFlashloan": false,
            "maxFee": "18",
            "nonce": 6,
            "overwritedBlockNumber": -1,
            "priorityFee": "2",
            "receiver": "0xd2877702675e6ceb975b4a1dff9fb7baf4c91ea9",
            "revertMessage": "",
            "sender": "0x5d96da17ff2d587f9aefead09b0cf2db5249f3d6",
            "simulationEnable": true,
            "sourceTxnHash": "0xc087fbc8374bc207cd6af08dd4232079067bb9c0f76a982550f721387ac77196",
            "status": true,
            "timestamp": "2022-08-13T18:43:40Z",
            "transactionFee": "0.000483532080592311",
            "txnHash": "0xc087fbc8374bc207cd6af08dd4232079067bb9c0f76a982550f721387ac77196",
            "txnIndex": 27,
            "type": 2,
            "value": "0"
        },
        "fund_flow": [
            {
                "amount": "4,190,214.47196386445",
                "from": "0x5d96da17ff2d587f9aefead09b0cf2db5249f3d6",
                "id": 1,
                "isERC1155": false,
                "isERC721": false,
                "isReverted": false,
                "order": 1,
                "to": "0x44a33e2f31dc275d253609107b8f469986442828",
                "token": "0xd2877702675e6ceb975b4a1dff9fb7baf4c91ea9"
            }
        ],
        "token_infos": [
            {
                "address": "0xc02aaa39b223fe8d0a0e5c4f27ead9083c756cc2",
                "decimals": 18
            },
            {
                "address": "0xd2877702675e6ceb975b4a1dff9fb7baf4c91ea9",
                "decimals": 18
            },
            {
                "address": "0xeeeeeeeeeeeeeeeeeeeeeeeeeeeeeeeeeeeeeeee",
                "decimals": 18
            }
        ]
    },
    "address_label": {
        "labels": [
            {
                "address": "0x0000000000000000000000000000000000000003",
                "label": "Precompiled"
            },
            {
                "address": "0x0000000000000000000000000000000000000004",
                "label": "Precompiled"
            },
            {
                "address": "0xeeeeeeeeeeeeeeeeeeeeeeeeeeeeeeeeeeeeeeee",
                "label": "Ether"
            },
            {
                "address": "0xd2877702675e6ceb975b4a1dff9fb7baf4c91ea9",
                "label": "Terra: LUNC Token"
            },
            {
                "address": "0x0000000000000000000000000000000000000001",
                "label": "Precompiled"
            },
            {
                "address": "0x0000000000000000000000000000000000000002",
                "label": "Precompiled"
            }
        ]
    },
    "trace": {
        "accountLabels": null,
        "dataMap": {
            "-1": {
                "invocation": {
                    "address": "0x5d96da17ff2d587f9aefead09b0cf2db5249f3d6",
                    "callData": "",
                    "decodedMethod": null,
                    "errorInfo": "",
                    "fromAddress": "",
                    "gasUsed": 0,
                    "id": -1,
                    "methodDecoded": false,
                    "operation": "",
                    "output": "",
                    "revert": false,
                    "revertMessage": "",
                    "selector": "",
                    "status": false,
                    "value": ""
                },
                "nodeType": 0
            },
            "0": {
                "invocation": {
                    "address": "0xd2877702675e6ceb975b4a1dff9fb7baf4c91ea9",
                    "callData": "0x00000000000000000000000044a33e2f31dc275d253609107b8f46998644282800000000000000000000000000000000000000000003774ffb4fa76203b4e480",
                    "decodedMethod": {
                        "callParams": [
                            {
                                "name": "recipient",
                                "type": "address",
                                "value": "0x44a33e2f31dc275d253609107b8f469986442828"
                            },
                            {
                                "decimalAvailable": true,
                                "name": "amount",
                                "type": "uint256",
                                "value": "4,190,214,471,963,864,450,000,000"
                            }
                        ],
                        "constructorArguments": "",
                        "name": "transfer",
                        "returnParams": [
                            {
                                "name": "",
                                "type": "bool",
                                "value": true
                            }
                        ],
                        "signature": "transfer(address,uint256)"
                    },
                    "errorInfo": "",
                    "fromAddress": "0x5d96da17ff2d587f9aefead09b0cf2db5249f3d6",
                    "gasUsed": 29961,
                    "id": 0,
                    "methodDecoded": true,
                    "operation": "CALL",
                    "output": "0x0000000000000000000000000000000000000000000000000000000000000001",
                    "revert": false,
                    "revertMessage": "",
                    "selector": "0xa9059cbb",
                    "status": true,
                    "value": "0"
                },
                "nodeType": 0
            },
            "1": {
                "event": {
                    "contract": "0xd2877702675e6ceb975b4a1dff9fb7baf4c91ea9",
                    "decodedLog": {
                        "name": "Transfer",
                        "params": [
                            {
                                "name": "from",
                                "type": "address",
                                "value": "0x5d96da17ff2d587f9aefead09b0cf2db5249f3d6"
                            },
                            {
                                "name": "to",
                                "type": "address",
                                "value": "0x44a33e2f31dc275d253609107b8f469986442828"
                            },
                            {
                                "decimalAvailable": true,
                                "name": "value",
                                "type": "uint256",
                                "value": "4,190,214,471,963,864,450,000,000"
                            }
                        ],
                        "signature": "Transfer(address,address,uint256)"
                    },
                    "id": 1,
                    "logData": "0x00000000000000000000000000000000000000000003774ffb4fa76203b4e480",
                    "logDecoded": true,
                    "operation": "EVENT",
                    "revert": false,
                    "status": true,
                    "topics": [
                        "0xddf252ad1be2c89b69c2b068fc378daa952ba7f163c4a11628f55a4df523b3ef",
                        "0x0000000000000000000000005d96da17ff2d587f9aefead09b0cf2db5249f3d6",
                        "0x00000000000000000000000044a33e2f31dc275d253609107b8f469986442828"
                    ]
                },
                "nodeType": 1
            }
        },
        "gasFlame": [
            {
                "children": [
                    {
                        "children": [
                            {
                                "children": [],
                                "depth": 0,
                                "name": "Initial Gas",
                                "value": 21692
                            },
                            {
                                "children": [],
                                "depth": 0,
                                "name": "Executed Gas",
                                "value": 13069
                            }
                        ],
                        "depth": -1,
                        "name": "Actual Gas Used",
                        "value": 29961
                    },
                    {
                        "children": [],
                        "depth": -1,
                        "name": "Refunded Gas",
                        "value": 4800
                    }
                ],
                "depth": -2,
                "name": "Total Gas",
                "value": 34761
            }
        ],
        "isConfirmed": true,
        "mainTrace": [
            {
                "children": [
                    {
                        "children": [
                            {
                                "children": [],
                                "depth": 1,
                                "id": 1,
                                "order": 1
                            }
                        ],
                        "depth": 0,
                        "id": 0,
                        "order": 0
                    }
                ],
                "depth": -1,
                "id": -1,
                "order": -1
            }
        ],
        "mainTraceNodeCount": 2,
        "parentIdMap": {
            "0": -1,
            "1": 0
        },
        "tidyTrace": [
            {
                "children": [
                    {
                        "children": [
                            {
                                "children": [],
                                "depth": 1,
                                "id": 1,
                                "order": 1
                            }
                        ],
                        "depth": 0,
                        "id": 0,
                        "order": 0
                    }
                ],
                "depth": -1,
                "id": -1,
                "order": -1
            }
        ],
        "tidyTraceNodeCount": 2
    },
    "state_change": {
        "stateChanges": [
            {
                "address": "0xd2877702675e6ceb975b4a1dff9fb7baf4c91ea9",
                "erc": "ERC-20",
                "slots": [
                    {
                        "current": "0x0000000000000000000000000000000000000000000000000000000000000000",
                        "key": "0x097cff83f58c8702839c9b70b3dc47d69a8ac7e86866218bb477c7f66b1325a1",
                        "prev": "0x00000000000000000000000000000000000000000003774ffb4fa76203b4e480"
                    },
                    {
                        "current": "0x00000000000000000000000000000000000000000003a1f7c08e891b9bde2980",
                        "key": "0xb540ad729ef7d90341a7eab5788836f7bb174761391b3d184802d7c6ac585571",
                        "prev": "0x000000000000000000000000000000000000000000002aa7c53ee1b998294500"
                    }
                ],
                "storageVariables": [
                    {
                        "name": "_balances",
                        "type": "mapping(address => uint256)",
                        "value": {
                            "pairs": [
                                {
                                    "key": "0x44a33e2f31dc275d253609107b8f469986442828",
                                    "value": {
                                        "current": "4391648683550360310000000",
                                        "prev": "201434211586495860000000",
                                        "typeTag": 1
                                    }
                                },
                                {
                                    "key": "0x5d96da17ff2d587f9aefead09b0cf2db5249f3d6",
                                    "value": {
                                        "current": "0",
                                        "prev": "4190214471963864450000000",
                                        "typeTag": 1
                                    }
                                }
                            ],
                            "typeTag": 4
                        }
                    }
                ]
            }
        ]
    }
}