{
    "balance_change": {
        "balanceChanges": [
            {
                "account": "0xa71c8bae673f99ac6c0f32c56efc89a8ddb9a501",
                "assets": [
                    {
                        "address": "0xd7cc16500d0b0ac3d0ba156a584865a43b0b0050",
                        "amount": "98.438898",
                        "iconUrl": "",
                        "isERC1155": false,
                        "isERC721": false,
                        "sign": false,
                        "value": ""
                    }
                ]
            },
            {
                "account": "0x9f0a613f44ebb179f42575882d86d815c1cbac08",
                "assets": [
                    {
                        "address": "0xd7cc16500d0b0ac3d0ba156a584865a43b0b0050",
                        "amount": "98.438898",
                        "iconUrl": "",
                        "isERC1155": false,
                        "isERC721": false,
                        "sign": true,
                        "value": ""
                    }
                ]
            }
        ]
    },
    "profile": {
        "basic_info": {
            "baseFee": "",
            "blockNumber": 9286404,
            "callData": "0xa9059cbb0000000000000000000000009f0a613f44ebb179f42575882d86d815c1cbac08000000000000000000000000000000000000000000000000000000024abdd688",
            "debugEnable": true,
            "errorInfo": "",
            "eventCount": 1,
            "feeRecipient": "0x35f61dfb08ada13eba64bf156b80df3d5b3a738d",
            "formatValue": "0",
            "gasLimit": 80000,
            "gasPrice": "30",
            "gasUsed": 36931,
            "intTxnCount": 0,
            "internalRevert": false,
            "internalRevertMessage": "",
            "isContractCreation": false,
            "isFlashloan": false,
            "maxFee": "",
            "nonce": 594727,
            "overwritedBlockNumber": -1,
            "priorityFee": "",
            "receiver": "0xd7cc16500d0b0ac3d0ba156a584865a43b0b0050",
            "revertMessage": "",
            "sender": "0xa71c8bae673f99ac6c0f32c56efc89a8ddb9a501",
            "simulationEnable": true,
            "sourceTxnHash": "0xc0d177d209a4d4df203627e14e877fc50e23a49b5463240ea00659b038374563",
            "status": true,
            "timestamp": "2020-01-15T15:03:24Z",
            "transactionFee": "0.00110793",
            "txnHash": "0xc0d177d209a4d4df203627e14e877fc50e23a49b5463240ea00659b038374563",
            "txnIndex": 26,
            "type": 0,
            "value": "0"
        },
        "fund_flow": [
            {
                "amount": "98.438898",
                "from": "0xa71c8bae673f99ac6c0f32c56efc89a8ddb9a501",
                "id": 1,
                "isERC1155": false,
                "isERC721": false,
                "isReverted": false,
                "order": 1,
                "to": "0x9f0a613f44ebb179f42575882d86d815c1cbac08",
                "token": "0xd7cc16500d0b0ac3d0ba156a584865a43b0b0050"
            }
        ],
        "token_infos": [
            {
                "address": "0xeeeeeeeeeeeeeeeeeeeeeeeeeeeeeeeeeeeeeeee",
                "decimals": 18
            },
            {
                "address": "0xc02aaa39b223fe8d0a0e5c4f27ead9083c756cc2",
                "decimals": 18
            },
            {
                "address": "0xd7cc16500d0b0ac3d0ba156a584865a43b0b0050",
                "decimals": 8
            }
        ]
    },
    "address_label": {
        "labels": [
            {
                "address": "0x0000000000000000000000000000000000000004",
                "label": "Precompiled"
            },
            {
                "address": "0xeeeeeeeeeeeeeeeeeeeeeeeeeeeeeeeeeeeeeeee",
                "label": "Ether"
            },
            {
                "address": "0xd7cc16500d0b0ac3d0ba156a584865a43b0b0050",
                "label": "Tepleton (TEP)"
            },
            {
                "address": "0x0000000000000000000000000000000000000001",
                "label": "Precompiled"
            },
            {
                "address": "0x0000000000000000000000000000000000000002",
                "label": "Precompiled"
            },
            {
                "address": "0x0000000000000000000000000000000000000003",
                "label": "Precompiled"
            }
        ]
    },
    "trace": {
        "accountLabels": null,
        "dataMap": {
            "-1": {
                "invocation": {
                    "address": "0xa71c8bae673f99ac6c0f32c56efc89a8ddb9a501",
                    "callData": "",
                    "decodedMethod": null,
                    "errorInfo": "",
                    "fromAddress": "",
                    "gasUsed": 0,
                    "id": -1,
                    "methodDecoded": false,
                    "operation": "",
                    "output": "",
                    "revert": false,
                    "revertMessage": "",
                    "selector": "",
                    "status": false,
                    "value": ""
                },
                "nodeType": 0
            },
            "0": {
                "invocation": {
                    "address": "0xd7cc16500d0b0ac3d0ba156a584865a43b0b0050",
                    "callData": "0x0000000000000000000000009f0a613f44ebb179f42575882d86d815c1cbac08000000000000000000000000000000000000000000000000000000024abdd688",
                    "decodedMethod": {
                        "callParams": [
                            {
                                "name": "to",
                                "type": "address",
                                "value": "0x9f0a613f44ebb179f42575882d86d815c1cbac08"
                            },
                            {
                                "decimalAvailable": true,
                                "name": "value",
                                "type": "uint256",
                                "value": "9,843,889,800"
                            }
                        ],
                        "constructorArguments": "",
                        "name": "transfer",
                        "returnParams": [
                            {
                                "name": "",
                                "type": "bool",
                                "value": true
                            }
                        ],
                        "signature": "transfer(address,uint256)"
                    },
                    "errorInfo": "",
                    "fromAddress": "0xa71c8bae673f99ac6c0f32c56efc89a8ddb9a501",
                    "gasUsed": 36931,
                    "id": 0,
                    "methodDecoded": true,
                    "operation": "CALL",
                    "output": "0x0000000000000000000000000000000000000000000000000000000000000001",
                    "revert": false,
                    "revertMessage": "",
                    "selector": "0xa9059cbb",
                    "status": true,
                    "value": "0"
                },
                "nodeType": 0
            },
            "1": {
                "event": {
                    "contract": "0xd7cc16500d0b0ac3d0ba156a584865a43b0b0050",
                    "decodedLog": {
                        "name": "Transfer",
                        "params": [
                            {
                                "name": "from",
                                "type": "address",
                                "value": "0xa71c8bae673f99ac6c0f32c56efc89a8ddb9a501"
                            },
                            {
                                "name": "to",
                                "type": "address",
                                "value": "0x9f0a613f44ebb179f42575882d86d815c1cbac08"
                            },
                            {
                                "decimalAvailable": true,
                                "name": "value",
                                "type": "uint256",
                                "value": "9,843,889,800"
                            }
                        ],
                        "signature": "Transfer(address,address,uint256)"
                    },
                    "id": 1,
                    "logData": "0x000000000000000000000000000000000000000000000000000000024abdd688",
                    "logDecoded": true,
                    "operation": "EVENT",
                    "revert": false,
                    "status": true,
                    "topics": [
                        "0xddf252ad1be2c89b69c2b068fc378daa952ba7f163c4a11628f55a4df523b3ef",
                        "0x000000000000000000000000a71c8bae673f99ac6c0f32c56efc89a8ddb9a501",
                        "0x0000000000000000000000009f0a613f44ebb179f42575882d86d815c1cbac08"
                    ]
                },
                "nodeType": 1
            }
        },
        "gasFlame": [
            {
                "children": [
                    {
                        "children": [
                            {
                                "children": [],
                                "depth": 0,
                                "name": "Initial Gas",
                                "value": 21620
                            },
                            {
                                "children": [],
                                "depth": 0,
                                "name": "Executed Gas",
                                "value": 15311
                            }
                        ],
                        "depth": -1,
                        "name": "Actual Gas Used",
                        "value": 36931
                    },
                    {
                        "children": [],
                        "depth": -1,
                        "name": "Refunded Gas",
                        "value": 0
                    }
                ],
                "depth": -2,
                "name": "Total Gas",
                "value": 36931
            }
        ],
        "isConfirmed": true,
        "mainTrace": [
            {
                "children": [
                    {
                        "children": [
                            {
                                "children": [],
                                "depth": 1,
                                "id": 1,
                                "order": 1
                            }
                        ],
                        "depth": 0,
                        "id": 0,
                        "order": 0
                    }
                ],
                "depth": -1,
                "id": -1,
                "order": -1
            }
        ],
        "mainTraceNodeCount": 2,
        "parentIdMap": {
            "0": -1,
            "1": 0
        },
        "tidyTrace": [
            {
                "children": [
                    {
                        "children": [
                            {
                                "children": [],
                                "depth": 1,
                                "id": 1,
                                "order": 1
                            }
                        ],
                        "depth": 0,
                        "id": 0,
                        "order": 0
                    }
                ],
                "depth": -1,
                "id": -1,
                "order": -1
            }
        ],
        "tidyTraceNodeCount": 2
    },
    "state_change": {
        "stateChanges": [
            {
                "address": "0xd7cc16500d0b0ac3d0ba156a584865a43b0b0050",
                "erc": "ERC-20",
                "slots": [
                    {
                        "current": "0x0000000000000000000000000000000000000000000000000001695eb52742fb",
                        "key": "0x033a6c23fd2f4bb4d599b607b7251cbafdeb6cd9e0859c7d7bd3d55c69a715cc",
                        "prev": "0x00000000000000000000000000000000000000000000000000016960ffe51983"
                    },
                    {
                        "current": "0x00000000000000000000000000000000000000000000000000000007c7249ff4",
                        "key": "0x085acee933f27acf0e95d7ae90b16028002f504b36ba2221bcaf5052503dd9b5",
                        "prev": "0x000000000000000000000000000000000000000000000000000000057c66c96c"
                    }
                ],
                "storageVariables": [
                    {
                        "name": "_balances",
                        "type": "mapping(address => uint256)",
                        "value": {
                            "pairs": [
                                {
                                    "key": "0x9f0a613f44ebb179f42575882d86d815c1cbac08",
                                    "value": {
                                        "current": "33405837300",
                                        "prev": "23561947500",
                                        "typeTag": 1
                                    }
                                },
                                {
                                    "key": "0xa71c8bae673f99ac6c0f32c56efc89a8ddb9a501",
                                    "value": {
                                        "current": "397330463802107",
                                        "prev": "397340307691907",
                                        "typeTag": 1
                                    }
                                }
                            ],
                            "typeTag": 4
                        }
                    }
                ]
            }
        ]
    }
}