{
    "balance_change": {
        "balanceChanges": [
            {
                "account": "0xdad19a043e5d45b9feb645cc6c5be0bbfbb90b6a",
                "assets": [
                    {
                        "address": "0x71a982a028c9d4b0566041a78df12b810462e155",
                        "amount": "10,000",
                        "iconUrl": "",
                        "isERC1155": false,
                        "isERC721": false,
                        "sign": false,
                        "value": ""
                    }
                ]
            },
            {
                "account": "0xb5a251cbd34dccb99843432c8f2703de42fce40c",
                "assets": [
                    {
                        "address": "0x71a982a028c9d4b0566041a78df12b810462e155",
                        "amount": "10,000",
                        "iconUrl": "",
                        "isERC1155": false,
                        "isERC721": false,
                        "sign": true,
                        "value": ""
                    }
                ]
            }
        ]
    },
    "profile": {
        "basic_info": {
            "baseFee": "",
            "blockNumber": 7118345,
            "callData": "0xa9059cbb000000000000000000000000b5a251cbd34dccb99843432c8f2703de42fce40c00000000000000000000000000000000000000000000021e19e0c9bab2400000",
            "debugEnable": true,
            "errorInfo": "",
            "eventCount": 1,
            "feeRecipient": "0x829bd824b016326a401d083b33d092293333a830",
            "formatValue": "0",
            "gasLimit": 63457,
            "gasPrice": "21",
            "gasUsed": 23074,
            "intTxnCount": 0,
            "internalRevert": false,
            "internalRevertMessage": "",
            "isContractCreation": false,
            "isFlashloan": false,
            "maxFee": "",
            "nonce": 0,
            "overwritedBlockNumber": -1,
            "priorityFee": "",
            "receiver": "0x71a982a028c9d4b0566041a78df12b810462e155",
            "revertMessage": "",
            "sender": "0xdad19a043e5d45b9feb645cc6c5be0bbfbb90b6a",
            "simulationEnable": true,
            "sourceTxnHash": "0xc08535f1ecc619b4fc394155a06673aab3ee60c4d9718a0167d412771163ab7d",
            "status": true,
            "timestamp": "2019-01-24T09:44:50Z",
            "transactionFee": "0.000484554",
            "txnHash": "0xc08535f1ecc619b4fc394155a06673aab3ee60c4d9718a0167d412771163ab7d",
            "txnIndex": 33,
            "type": 0,
            "value": "0"
        },
        "fund_flow": [
            {
                "amount": "10,000",
                "from": "0xdad19a043e5d45b9feb645cc6c5be0bbfbb90b6a",
                "id": 1,
                "isERC1155": false,
                "isERC721": false,
                "isReverted": false,
                "order": 1,
                "to": "0xb5a251cbd34dccb99843432c8f2703de42fce40c",
                "token": "0x71a982a028c9d4b0566041a78df12b810462e155"
            }
        ],
        "token_infos": [
            {
                "address": "0x71a982a028c9d4b0566041a78df12b810462e155",
                "decimals": 18
            },
            {
                "address": "0xc02aaa39b223fe8d0a0e5c4f27ead9083c756cc2",
                "decimals": 18
            },
            {
                "address": "0xeeeeeeeeeeeeeeeeeeeeeeeeeeeeeeeeeeeeeeee",
                "decimals": 18
            }
        ]
    },
    "address_label": {
        "labels": [
            {
                "address": "0x71a982a028c9d4b0566041a78df12b810462e155",
                "label": "TFcoin (TFC)"
            },
            {
                "address": "0x0000000000000000000000000000000000000001",
                "label": "Precompiled"
            },
            {
                "address": "0x0000000000000000000000000000000000000002",
                "label": "Precompiled"
            },
            {
                "address": "0x0000000000000000000000000000000000000003",
                "label": "Precompiled"
            },
            {
                "address": "0x0000000000000000000000000000000000000004",
                "label": "Precompiled"
            },
            {
                "address": "0xeeeeeeeeeeeeeeeeeeeeeeeeeeeeeeeeeeeeeeee",
                "label": "Ether"
            }
        ]
    },
    "trace": {
        "accountLabels": null,
        "dataMap": {
            "-1": {
                "invocation": {
                    "address": "0xdad19a043e5d45b9feb645cc6c5be0bbfbb90b6a",
                    "callData": "",
                    "decodedMethod": null,
                    "errorInfo": "",
                    "fromAddress": "",
                    "gasUsed": 0,
                    "id": -1,
                    "methodDecoded": false,
                    "operation": "",
                    "output": "",
                    "revert": false,
                    "revertMessage": "",
                    "selector": "",
                    "status": false,
                    "value": ""
                },
                "nodeType": 0
            },
            "0": {
                "invocation": {
                    "address": "0x71a982a028c9d4b0566041a78df12b810462e155",
                    "callData": "0x000000000000000000000000b5a251cbd34dccb99843432c8f2703de42fce40c00000000000000000000000000000000000000000000021e19e0c9bab2400000",
                    "decodedMethod": {
                        "callParams": [
                            {
                                "name": "_to",
                                "type": "address",
                                "value": "0xb5a251cbd34dccb99843432c8f2703de42fce40c"
                            },
                            {
                                "decimalAvailable": true,
                                "name": "_value",
                                "type": "uint256",
                                "value": "10,000,000,000,000,000,000,000"
                            }
                        ],
                        "constructorArguments": "",
                        "name": "transfer",
                        "returnParams": [],
                        "signature": "transfer(address,uint256)"
                    },
                    "errorInfo": "",
                    "fromAddress": "0xdad19a043e5d45b9feb645cc6c5be0bbfbb90b6a",
                    "gasUsed": 23074,
                    "id": 0,
                    "methodDecoded": true,
                    "operation": "CALL",
                    "output": "",
                    "revert": false,
                    "revertMessage": "",
                    "selector": "0xa9059cbb",
                    "status": true,
                    "value": "0"
                },
                "nodeType": 0
            },
            "1": {
                "event": {
                    "contract": "0x71a982a028c9d4b0566041a78df12b810462e155",
                    "decodedLog": {
                        "name": "Transfer",
                        "params": [
                            {
                                "name": "from",
                                "type": "address",
                                "value": "0xdad19a043e5d45b9feb645cc6c5be0bbfbb90b6a"
                            },
                            {
                                "name": "to",
                                "type": "address",
                                "value": "0xb5a251cbd34dccb99843432c8f2703de42fce40c"
                            },
                            {
                                "decimalAvailable": true,
                                "name": "value",
                                "type": "uint256",
                                "value": "10,000,000,000,000,000,000,000"
                            }
                        ],
                        "signature": "Transfer(address,address,uint256)"
                    },
                    "id": 1,
                    "logData": "0x00000000000000000000000000000000000000000000021e19e0c9bab2400000",
                    "logDecoded": true,
                    "operation": "EVENT",
                    "revert": false,
                    "status": true,
                    "topics": [
                        "0xddf252ad1be2c89b69c2b068fc378daa952ba7f163c4a11628f55a4df523b3ef",
                        "0x000000000000000000000000dad19a043e5d45b9feb645cc6c5be0bbfbb90b6a",
                        "0x000000000000000000000000b5a251cbd34dccb99843432c8f2703de42fce40c"
                    ]
                },
                "nodeType": 1
            }
        },
        "gasFlame": [
            {
                "children": [
                    {
                        "children": [
                            {
                                "children": [],
                                "depth": 0,
                                "name": "Initial Gas",
                                "value": 23320
                            },
                            {
                                "children": [],
                                "depth": 0,
                                "name": "Executed Gas",
                                "value": 14754
                            }
                        ],
                        "depth": -1,
                        "name": "Actual Gas Used",
                        "value": 23074
                    },
                    {
                        "children": [],
                        "depth": -1,
                        "name": "Refunded Gas",
                        "value": 15000
                    }
                ],
                "depth": -2,
                "name": "Total Gas",
                "value": 38074
            }
        ],
        "isConfirmed": true,
        "mainTrace": [
            {
                "children": [
                    {
                        "children": [
                            {
                                "children": [],
                                "depth": 1,
                                "id": 1,
                                "order": 1
                            }
                        ],
                        "depth": 0,
                        "id": 0,
                        "order": 0
                    }
                ],
                "depth": -1,
                "id": -1,
                "order": -1
            }
        ],
        "mainTraceNodeCount": 2,
        "parentIdMap": {
            "0": -1,
            "1": 0
        },
        "tidyTrace": [
            {
                "children": [
                    {
                        "children": [
                            {
                                "children": [],
                                "depth": 1,
                                "id": 1,
                                "order": 1
                            }
                        ],
                        "depth": 0,
                        "id": 0,
                        "order": 0
                    }
                ],
                "depth": -1,
                "id": -1,
                "order": -1
            }
        ],
        "tidyTraceNodeCount": 2
    },
    "state_change": {
        "stateChanges": [
            {
                "address": "0x71a982a028c9d4b0566041a78df12b810462e155",
                "erc": "",
                "slots": [
                    {
                        "current": "0x0000000000000000000000000000000000000000000000000000000000000000",
                        "key": "0xc294b763c15ae0ea2bdfe6bc905220919a14295908f14c44faae1a20b4d5c2c3",
                        "prev": "0x00000000000000000000000000000000000000000000021e19e0c9bab2400000"
                    },
                    {
                        "current": "0x000000000000000000000000000000000000000000135b9dd2d83dd6c4b00000",
                        "key": "0x0293aaa2dbd2dd0a4b04d9f44ef48f2e137a382eee58b40e908eba798a054edd",
                        "prev": "0x00000000000000000000000000000000000000000013597fb8f7741c12700000"
                    }
                ],
                "storageVariables": [
                    {
                        "name": "balanceOf",
                        "type": "mapping(address => uint256)",
                        "value": {
                            "pairs": [
                                {
                                    "key": "0xb5a251cbd34dccb99843432c8f2703de42fce40c",
                                    "value": {
                                        "current": "23402237254400000000000000",
                                        "prev": "23392237254400000000000000",
                                        "typeTag": 1
                                    }
                                },
                                {
                                    "key": "0xdad19a043e5d45b9feb645cc6c5be0bbfbb90b6a",
                                    "value": {
                                        "current": "0",
                                        "prev": "10000000000000000000000",
                                        "typeTag": 1
                                    }
                                }
                            ],
                            "typeTag": 4
                        }
                    }
                ]
            }
        ]
    }
}