{
    "balance_change": {
        "balanceChanges": [
            {
                "account": "0x5d0437ae59ca5ea351a94c8898cb33d9d3c50942",
                "assets": [
                    {
                        "address": "0x3819f64f282bf135d62168c1e513280daf905e06",
                        "amount": "461,090.127599035",
                        "iconUrl": "",
                        "isERC1155": false,
                        "isERC721": false,
                        "sign": true,
                        "value": "0.65811974"
                    }
                ]
            },
            {
                "account": "0x0000000000000000000000000000000000000000",
                "assets": [
                    {
                        "address": "0x3819f64f282bf135d62168c1e513280daf905e06",
                        "amount": "880,262.970870885",
                        "iconUrl": "",
                        "isERC1155": false,
                        "isERC721": false,
                        "sign": false,
                        "value": "1.25636769"
                    }
                ]
            },
            {
                "account": "0x9d73ced2e36c89e5d167151809eee218a189f801",
                "assets": [
                    {
                        "address": "0x3819f64f282bf135d62168c1e513280daf905e06",
                        "amount": "419,172.84327185",
                        "iconUrl": "",
                        "isERC1155": false,
                        "isERC721": false,
                        "sign": true,
                        "value": "0.59824994"
                    }
                ]
            }
        ]
    },
    "profile": {
        "basic_info": {
            "baseFee": "6.662663495",
            "blockNumber": 15287932,
            "callData": "0xf812b9a400000000000000000000000000000000000000000000000000000000000000000000000000000000000000000000000000000000000000000000000000065a4c",
            "debugEnable": true,
            "errorInfo": "",
            "eventCount": 3,
            "feeRecipient": "0x28846f1ec065eea239152213373bb58b1c9fc93b",
            "formatValue": "0",
            "gasLimit": 92111,
            "gasPrice": "8.138687559",
            "gasUsed": 92111,
            "intTxnCount": 1,
            "internalRevert": false,
            "internalRevertMessage": "",
            "isContractCreation": false,
            "isFlashloan": false,
            "maxFee": "8.138687559",
            "nonce": 13,
            "overwritedBlockNumber": -1,
            "priorityFee": "1.5",
            "receiver": "0x3819f64f282bf135d62168c1e513280daf905e06",
            "revertMessage": "",
            "sender": "0x5d0437ae59ca5ea351a94c8898cb33d9d3c50942",
            "simulationEnable": true,
            "sourceTxnHash": "0xc0e2f69c6991909fdb3708f72ecd98fc96bc29a039f906ff87f538cbc222597c",
            "status": true,
            "timestamp": "2022-08-06T09:34:04Z",
            "transactionFee": "0.000749662649747049",
            "txnHash": "0xc0e2f69c6991909fdb3708f72ecd98fc96bc29a039f906ff87f538cbc222597c",
            "txnIndex": 205,
            "type": 2,
            "value": "0"
        },
        "fund_flow": [
            {
                "amount": "419,172.84327185",
                "from": "0x0000000000000000000000000000000000000000",
                "id": 1,
                "isERC1155": false,
                "isERC721": false,
                "isReverted": false,
                "order": 1,
                "to": "0x9d73ced2e36c89e5d167151809eee218a189f801",
                "token": "0x3819f64f282bf135d62168c1e513280daf905e06"
            },
            {
                "amount": "461,090.127599035",
                "from": "0x0000000000000000000000000000000000000000",
                "id": 2,
                "isERC1155": false,
                "isERC721": false,
                "isReverted": false,
                "order": 2,
                "to": "0x5d0437ae59ca5ea351a94c8898cb33d9d3c50942",
                "token": "0x3819f64f282bf135d62168c1e513280daf905e06"
            }
        ],
        "token_infos": [
            {
                "address": "0x3819f64f282bf135d62168c1e513280daf905e06",
                "decimals": 9
            },
            {
                "address": "0xc02aaa39b223fe8d0a0e5c4f27ead9083c756cc2",
                "decimals": 18
            },
            {
                "address": "0xeeeeeeeeeeeeeeeeeeeeeeeeeeeeeeeeeeeeeeee",
                "decimals": 18
            }
        ]
    },
    "address_label": {
        "labels": [
            {
                "address": "0xeeeeeeeeeeeeeeeeeeeeeeeeeeeeeeeeeeeeeeee",
                "label": "Ether"
            },
            {
                "address": "0x2b591e99afe9f32eaa6214f7b7629768c40eeb39",
                "label": "HEX.com: HEX Token"
            },
            {
                "address": "0x3819f64f282bf135d62168c1e513280daf905e06",
                "label": "Hedron: HDRN Token"
            },
            {
                "address": "0x0000000000000000000000000000000000000001",
                "label": "Precompiled"
            },
            {
                "address": "0x0000000000000000000000000000000000000002",
                "label": "Precompiled"
            },
            {
                "address": "0x0000000000000000000000000000000000000003",
                "label": "Precompiled"
            },
            {
                "address": "0x0000000000000000000000000000000000000004",
                "label": "Precompiled"
            }
        ]
    },
    "trace": {
        "accountLabels": null,
        "dataMap": {
            "-1": {
                "invocation": {
                    "address": "0x5d0437ae59ca5ea351a94c8898cb33d9d3c50942",
                    "callData": "",
                    "decodedMethod": null,
                    "errorInfo": "",
                    "fromAddress": "",
                    "gasUsed": 0,
                    "id": -1,
                    "methodDecoded": false,
                    "operation": "",
                    "output": "",
                    "revert": false,
                    "revertMessage": "",
                    "selector": "",
                    "status": false,
                    "value": ""
                },
                "nodeType": 0
            },
            "0": {
                "invocation": {
                    "address": "0x3819f64f282bf135d62168c1e513280daf905e06",
                    "callData": "0x00000000000000000000000000000000000000000000000000000000000000000000000000000000000000000000000000000000000000000000000000065a4c",
                    "decodedMethod": {
                        "callParams": [
                            {
                                "name": "stakeIndex",
                                "type": "uint256",
                                "value": "0"
                            },
                            {
                                "name": "stakeId",
                                "type": "uint40",
                                "value": "416,332"
                            }
                        ],
                        "constructorArguments": "",
                        "name": "mintNative",
                        "returnParams": [
                            {
                                "name": "",
                                "type": "uint256",
                                "value": "461,090,127,599,035"
                            }
                        ],
                        "signature": "mintNative(uint256,uint40)"
                    },
                    "errorInfo": "",
                    "fromAddress": "0x5d0437ae59ca5ea351a94c8898cb33d9d3c50942",
                    "gasUsed": 92111,
                    "id": 0,
                    "methodDecoded": true,
                    "operation": "CALL",
                    "output": "0x0000000000000000000000000000000000000000000000000001a35be943d5bb",
                    "revert": false,
                    "revertMessage": "",
                    "selector": "0xf812b9a4",
                    "status": true,
                    "value": "0"
                },
                "nodeType": 0
            },
            "1": {
                "invocation": {
                    "address": "0x2b591e99afe9f32eaa6214f7b7629768c40eeb39",
                    "callData": "0x0000000000000000000000005d0437ae59ca5ea351a94c8898cb33d9d3c509420000000000000000000000000000000000000000000000000000000000000000",
                    "decodedMethod": {
                        "callParams": [
                            {
                                "name": "",
                                "type": "address",
                                "value": "0x5d0437ae59ca5ea351a94c8898cb33d9d3c50942"
                            },
                            {
                                "name": "",
                                "type": "uint256",
                                "value": "0"
                            }
                        ],
                        "constructorArguments": "",
                        "name": "stakeLists",
                        "returnParams": [
                            {
                                "name": "stakeId",
                                "type": "uint40",
                                "value": "416,332"
                            },
                            {
                                "name": "stakedHearts",
                                "type": "uint72",
                                "value": "175,947,150,471"
                            },
                            {
                                "name": "stakeShares",
                                "type": "uint72",
                                "value": "114,841,874,869"
                            },
                            {
                                "name": "lockedDay",
                                "type": "uint16",
                                "value": "612"
                            },
                            {
                                "name": "stakedDays",
                                "type": "uint16",
                                "value": "365"
                            },
                            {
                                "name": "unlockedDay",
                                "type": "uint16",
                                "value": "0"
                            },
                            {
                                "name": "isAutoStake",
                                "type": "bool",
                                "value": false
                            }
                        ],
                        "signature": "stakeLists(address,uint256)"
                    },
                    "errorInfo": "",
                    "fromAddress": "0x3819f64f282bf135d62168c1e513280daf905e06",
                    "gasUsed": 5020,
                    "id": 1,
                    "methodDecoded": true,
                    "operation": "STATICCALL",
                    "output": "0x0000000000000000000000000000000000000000000000000000000000065a4c00000000000000000000000000000000000000000000000000000028f74474870000000000000000000000000000000000000000000000000000001abd1bf1b50000000000000000000000000000000000000000000000000000000000000264000000000000000000000000000000000000000000000000000000000000016d00000000000000000000000000000000000000000000000000000000000000000000000000000000000000000000000000000000000000000000000000000000",
                    "revert": false,
                    "revertMessage": "",
                    "selector": "0x2607443b",
                    "status": true,
                    "value": "0"
                },
                "nodeType": 0
            },
            "2": {
                "event": {
                    "contract": "0x3819f64f282bf135d62168c1e513280daf905e06",
                    "decodedLog": {
                        "name": "Transfer",
                        "params": [
                            {
                                "name": "from",
                                "type": "address",
                                "value": "0x0000000000000000000000000000000000000000"
                            },
                            {
                                "name": "to",
                                "type": "address",
                                "value": "0x9d73ced2e36c89e5d167151809eee218a189f801"
                            },
                            {
                                "decimalAvailable": true,
                                "name": "value",
                                "type": "uint256",
                                "value": "419,172,843,271,850"
                            }
                        ],
                        "signature": "Transfer(address,address,uint256)"
                    },
                    "id": 2,
                    "logData": "0x00000000000000000000000000000000000000000000000000017d3c486c36aa",
                    "logDecoded": true,
                    "operation": "EVENT",
                    "revert": false,
                    "status": true,
                    "topics": [
                        "0xddf252ad1be2c89b69c2b068fc378daa952ba7f163c4a11628f55a4df523b3ef",
                        "0x0000000000000000000000000000000000000000000000000000000000000000",
                        "0x0000000000000000000000009d73ced2e36c89e5d167151809eee218a189f801"
                    ]
                },
                "nodeType": 1
            },
            "3": {
                "event": {
                    "contract": "0x3819f64f282bf135d62168c1e513280daf905e06",
                    "decodedLog": {
                        "name": "Transfer",
                        "params": [
                            {
                                "name": "from",
                                "type": "address",
                                "value": "0x0000000000000000000000000000000000000000"
                            },
                            {
                                "name": "to",
                                "type": "address",
                                "value": "0x5d0437ae59ca5ea351a94c8898cb33d9d3c50942"
                            },
                            {
                                "decimalAvailable": true,
                                "name": "value",
                                "type": "uint256",
                                "value": "461,090,127,599,035"
                            }
                        ],
                        "signature": "Transfer(address,address,uint256)"
                    },
                    "id": 3,
                    "logData": "0x0000000000000000000000000000000000000000000000000001a35be943d5bb",
                    "logDecoded": true,
                    "operation": "EVENT",
                    "revert": false,
                    "status": true,
                    "topics": [
                        "0xddf252ad1be2c89b69c2b068fc378daa952ba7f163c4a11628f55a4df523b3ef",
                        "0x0000000000000000000000000000000000000000000000000000000000000000",
                        "0x0000000000000000000000005d0437ae59ca5ea351a94c8898cb33d9d3c50942"
                    ]
                },
                "nodeType": 1
            },
            "4": {
                "event": {
                    "contract": "0x3819f64f282bf135d62168c1e513280daf905e06",
                    "decodedLog": {
                        "name": "Mint",
                        "params": [
                            {
                                "name": "minter",
                                "type": "address",
                                "value": "0x5d0437ae59ca5ea351a94c8898cb33d9d3c50942"
                            },
                            {
                                "name": "stakeId",
                                "type": "uint40",
                                "value": "416,332"
                            },
                            {
                                "name": "data",
                                "type": "uint256",
                                "value": "40,166,615,035,718,987,693,107,017,740,030,054,334,782,134,758,698,530,188"
                            }
                        ],
                        "signature": "Mint(uint256,address,uint40)"
                    },
                    "id": 4,
                    "logData": "0x000000000000000001a35be943d5bb64016d000000001abd1bf1b50062ee358c",
                    "logDecoded": true,
                    "operation": "EVENT",
                    "revert": false,
                    "status": true,
                    "topics": [
                        "0xce84afc26010d49051ae429b96ad50c0ef3a958a5c5bdc44c80e090dee642dbe",
                        "0x0000000000000000000000005d0437ae59ca5ea351a94c8898cb33d9d3c50942",
                        "0x0000000000000000000000000000000000000000000000000000000000065a4c"
                    ]
                },
                "nodeType": 1
            }
        },
        "gasFlame": [
            {
                "children": [
                    {
                        "children": [
                            {
                                "children": [],
                                "depth": 0,
                                "name": "Initial Gas",
                                "value": 21356
                            },
                            {
                                "children": [
                                    {
                                        "children": [],
                                        "depth": 1,
                                        "name": "stakeLists",
                                        "value": 5020
                                    }
                                ],
                                "depth": 0,
                                "name": "Executed Gas",
                                "value": 70755
                            }
                        ],
                        "depth": -1,
                        "name": "Actual Gas Used",
                        "value": 92111
                    },
                    {
                        "children": [],
                        "depth": -1,
                        "name": "Refunded Gas",
                        "value": 0
                    }
                ],
                "depth": -2,
                "name": "Total Gas",
                "value": 92111
            }
        ],
        "isConfirmed": true,
        "mainTrace": [
            {
                "children": [
                    {
                        "children": [
                            {
                                "children": [],
                                "depth": 1,
                                "id": 1,
                                "order": 1
                            },
                            {
                                "children": [],
                                "depth": 1,
                                "id": 2,
                                "order": 2
                            },
                            {
                                "children": [],
                                "depth": 1,
                                "id": 3,
                                "order": 3
                            },
                            {
                                "children": [],
                                "depth": 1,
                                "id": 4,
                                "order": 4
                            }
                        ],
                        "depth": 0,
                        "id": 0,
                        "order": 0
                    }
                ],
                "depth": -1,
                "id": -1,
                "order": -1
            }
        ],
        "mainTraceNodeCount": 5,
        "parentIdMap": {
            "0": -1,
            "1": 0,
            "2": 0,
            "3": 0,
            "4": 0
        },
        "tidyTrace": [
            {
                "children": [
                    {
                        "children": [
                            {
                                "children": [],
                                "depth": 1,
                                "id": 2,
                                "order": 2
                            },
                            {
                                "children": [],
                                "depth": 1,
                                "id": 3,
                                "order": 3
                            },
                            {
                                "children": [],
                                "depth": 1,
                                "id": 4,
                                "order": 4
                            }
                        ],
                        "depth": 0,
                        "id": 0,
                        "order": 0
                    }
                ],
                "depth": -1,
                "id": -1,
                "order": -1
            }
        ],
        "tidyTraceNodeCount": 4
    },
    "state_change": {
        "stateChanges": [
            {
                "address": "0x3819f64f282bf135d62168c1e513280daf905e06",
                "erc": "ERC-20",
                "slots": [
                    {
                        "current": "0x0000000000000000000000000000000000000000000007f3ed00022f67dc7712",
                        "key": "0x592c5cdddcf1d855d0e244bcec265df08c0928ba7876ff47c3430b65ad892657",
                        "prev": "0x0000000000000000000000000000000000000000000007f3ecfe84f31f704068"
                    },
                    {
                        "current": "0x0000000000000000000000000000000000000000000000000001a35be943d5bb",
                        "key": "0x22eb33841d0b81e2095934552880d30381eab53dbdee97b5a7c12d9af23015fa",
                        "prev": "0x0000000000000000000000000000000000000000000000000000000000000000"
                    },
                    {
                        "current": "0x000000000000000000000000000000000000000000000000000000000064016d",
                        "key": "0xa97661fa8aabcd7d6bc4dedddc3475ac717df87a79c1a99ee130bdf248143ded",
                        "prev": "0x0000000000000000000000000000000000000000000000000000000000640000"
                    },
                    {
                        "current": "0x0000000212000a75fd59ef97190600008802d319556ff506031d9ecba017e2a7",
                        "key": "0xe2458eca0cc777ea18c979f8297bc4bb7aedd826b20c4b26ef331b4eec2ba107",
                        "prev": "0x0000000212000a75fd59ef97190600008802d319556ff506031a7e336e67d642"
                    },
                    {
                        "current": "0x0000000000000000000000000000000000000000000011fd58cd6f226112da2b",
                        "key": "0x0000000000000000000000000000000000000000000000000000000000000002",
                        "prev": "0x0000000000000000000000000000000000000000000011fd58ca4e8a2f62cdc6"
                    }
                ],
                "storageVariables": [
                    {
                        "name": "dailyDataList",
                        "type": "mapping(uint256 => struct Hedron.DailyDataStore)",
                        "value": {
                            "pairs": [
                                {
                                    "key": "161",
                                    "value": {
                                        "fields": [
                                            {
                                                "name": "dayMintedTotal",
                                                "type": "uint72",
                                                "value": {
                                                    "current": "110904974596097172135",
                                                    "prev": "110904094333126301250",
                                                    "typeTag": 1
                                                }
                                            },
                                            {
                                                "name": "dayLoanedTotal",
                                                "type": "uint72",
                                                "value": {
                                                    "current": "38283702519033845",
                                                    "prev": "38283702519033845",
                                                    "typeTag": 1
                                                }
                                            },
                                            {
                                                "name": "dayBurntTotal",
                                                "type": "uint72",
                                                "value": {
                                                    "current": "753787075367999750",
                                                    "prev": "753787075367999750",
                                                    "typeTag": 1
                                                }
                                            },
                                            {
                                                "name": "dayInterestRate",
                                                "type": "uint32",
                                                "value": {
                                                    "current": "530",
                                                    "prev": "530",
                                                    "typeTag": 1
                                                }
                                            },
                                            {
                                                "name": "dayMintMultiplier",
                                                "type": "uint8",
                                                "value": {
                                                    "current": "0",
                                                    "prev": "0",
                                                    "typeTag": 1
                                                }
                                            }
                                        ],
                                        "typeTag": 3
                                    }
                                }
                            ],
                            "typeTag": 4
                        }
                    },
                    {
                        "name": "_totalSupply",
                        "type": "uint256",
                        "value": {
                            "current": "84953655352271496731179",
                            "prev": "84953654472008525860294",
                            "typeTag": 1
                        }
                    },
                    {
                        "name": "_balances",
                        "type": "mapping(address => uint256)",
                        "value": {
                            "pairs": [
                                {
                                    "key": "0x5d0437ae59ca5ea351a94c8898cb33d9d3c50942",
                                    "value": {
                                        "current": "461090127599035",
                                        "prev": "0",
                                        "typeTag": 1
                                    }
                                },
                                {
                                    "key": "0x9d73ced2e36c89e5d167151809eee218a189f801",
                                    "value": {
                                        "current": "37556201842188555679506",
                                        "prev": "37556201423015712407656",
                                        "typeTag": 1
                                    }
                                }
                            ],
                            "typeTag": 4
                        }
                    },
                    {
                        "name": "shareList",
                        "type": "mapping(uint256 => struct ShareStore)",
                        "value": {
                            "pairs": [
                                {
                                    "key": "416332",
                                    "value": {
                                        "fields": [
                                            {
                                                "name": "mintedDays",
                                                "type": "uint16",
                                                "value": {
                                                    "current": "365",
                                                    "prev": "0",
                                                    "typeTag": 1
                                                }
                                            },
                                            {
                                                "name": "launchBonus",
                                                "type": "uint8",
                                                "value": {
                                                    "current": "100",
                                                    "prev": "100",
                                                    "typeTag": 1
                                                }
                                            },
                                            {
                                                "name": "loanStart",
                                                "type": "uint16",
                                                "value": {
                                                    "current": "0",
                                                    "prev": "0",
                                                    "typeTag": 1
                                                }
                                            },
                                            {
                                                "name": "loanedDays",
                                                "type": "uint16",
                                                "value": {
                                                    "current": "0",
                                                    "prev": "0",
                                                    "typeTag": 1
                                                }
                                            },
                                            {
                                                "name": "interestRate",
                                                "type": "uint32",
                                                "value": {
                                                    "current": "0",
                                                    "prev": "0",
                                                    "typeTag": 1
                                                }
                                            },
                                            {
                                                "name": "paymentsMade",
                                                "type": "uint8",
                                                "value": {
                                                    "current": "0",
                                                    "prev": "0",
                                                    "typeTag": 1
                                                }
                                            },
                                            {
                                                "name": "isLoaned",
                                                "type": "bool",
                                                "value": {
                                                    "current": "false",
                                                    "prev": "false",
                                                    "typeTag": 1
                                                }
                                            }
                                        ],
                                        "typeTag": 3
                                    }
                                }
                            ],
                            "typeTag": 4
                        }
                    }
                ]
            }
        ]
    }
}