{
    "balance_change": {
        "balanceChanges": [
            {
                "account": "0xcf693bf7c3c2174f40388badcf3c8f028333248a",
                "assets": [
                    {
                        "address": "0xeeeeeeeeeeeeeeeeeeeeeeeeeeeeeeeeeeeeeeee",
                        "amount": "0.9053611105",
                        "iconUrl": "https://assets.blocksec.com/image/1663669189317-3.png",
                        "isERC1155": false,
                        "isERC721": false,
                        "sign": false,
                        "value": "1681.6177266427000824"
                    }
                ]
            },
            {
                "account": "0x32400084c286cf3e17e7b677ea9583e60a000324",
                "assets": [
                    {
                        "address": "0xeeeeeeeeeeeeeeeeeeeeeeeeeeeeeeeeeeeeeeee",
                        "amount": "0.9053611105",
                        "iconUrl": "https://assets.blocksec.com/image/1663669189317-3.png",
                        "isERC1155": false,
                        "isERC721": false,
                        "sign": true,
                        "value": "1681.6177266427000824"
                    }
                ]
            }
        ]
    },
    "profile": {
        "basic_info": {
            "baseFee": "14.302589808",
            "blockNumber": 17661501,
            "callData": "0xeb672419000000000000000000000000cf693bf7c3c2174f40388badcf3c8f028333248a0000000000000000000000000000000000000000000000000c8f34b481ba800000000000000000000000000000000000000000000000000000000000000000e000000000000000000000000000000000000000000000000000000000000b052d00000000000000000000000000000000000000000000000000000000000003200000000000000000000000000000000000000000000000000000000000000100000000000000000000000000cf693bf7c3c2174f40388badcf3c8f028333248a00000000000000000000000000000000000000000000000000000000000000000000000000000000000000000000000000000000000000000000000000000000",
            "debugEnable": true,
            "errorInfo": "",
            "eventCount": 1,
            "feeRecipient": "0x1f9090aae28b8a3dceadf281b0f12828e676c326",
            "formatValue": "0.9053611105",
            "gasLimit": 149210,
            "gasPrice": "15.802589808",
            "gasUsed": 118078,
            "intTxnCount": 3,
            "internalRevert": false,
            "internalRevertMessage": "",
            "isContractCreation": false,
            "isFlashloan": false,
            "maxFee": "21.388087878",
            "nonce": 461,
            "overwritedBlockNumber": -1,
            "priorityFee": "1.5",
            "receiver": "0x32400084c286cf3e17e7b677ea9583e60a000324",
            "revertMessage": "",
            "sender": "0xcf693bf7c3c2174f40388badcf3c8f028333248a",
            "simulationEnable": true,
            "sourceTxnHash": "0xc0458c96f7940dabf33de0d3a6b3fa34baf1fffaafcf1ba1998a449b28dd358b",
            "status": true,
            "timestamp": "2023-07-10T06:31:11Z",
            "transactionFee": "0.001865938199349024",
            "txnHash": "0xc0458c96f7940dabf33de0d3a6b3fa34baf1fffaafcf1ba1998a449b28dd358b",
            "txnIndex": 89,
            "type": 2,
            "value": "905361110500000000"
        },
        "fund_flow": [
            {
                "amount": "0.9053611105",
                "from": "0xcf693bf7c3c2174f40388badcf3c8f028333248a",
                "id": 1,
                "isERC1155": false,
                "isERC721": false,
                "isReverted": false,
                "order": 1,
                "to": "0x32400084c286cf3e17e7b677ea9583e60a000324",
                "token": "0xeeeeeeeeeeeeeeeeeeeeeeeeeeeeeeeeeeeeeeee"
            }
        ],
        "token_infos": [
            {
                "address": "0xc02aaa39b223fe8d0a0e5c4f27ead9083c756cc2",
                "decimals": 18
            },
            {
                "address": "0xeeeeeeeeeeeeeeeeeeeeeeeeeeeeeeeeeeeeeeee",
                "decimals": 18
            }
        ]
    },
    "address_label": {
        "labels": [
            {
                "address": "0x0000000000000000000000000000000000000003",
                "label": "Precompiled"
            },
            {
                "address": "0xeeeeeeeeeeeeeeeeeeeeeeeeeeeeeeeeeeeeeeee",
                "label": "Ether"
            },
            {
                "address": "0x8ffd57a9b2dcc10327768b601468fa192adc5c86",
                "label": "AllowList"
            },
            {
                "address": "0xb2097dbe4410b538a45574b1fcd767e2303c7867",
                "label": "MailboxFacet"
            },
            {
                "address": "0x0000000000000000000000000000000000000000",
                "label": "Null Address"
            },
            {
                "address": "0x32400084c286cf3e17e7b677ea9583e60a000324",
                "label": "zkSync Era: Diamond Proxy"
            },
            {
                "address": "0x0000000000000000000000000000000000000001",
                "label": "Precompiled"
            },
            {
                "address": "0x0000000000000000000000000000000000000002",
                "label": "Precompiled"
            },
            {
                "address": "0x0000000000000000000000000000000000000004",
                "label": "Precompiled"
            }
        ]
    },
    "trace": {
        "accountLabels": null,
        "dataMap": {
            "-1": {
                "invocation": {
                    "address": "0xcf693bf7c3c2174f40388badcf3c8f028333248a",
                    "callData": "",
                    "decodedMethod": null,
                    "errorInfo": "",
                    "fromAddress": "",
                    "gasUsed": 0,
                    "id": -1,
                    "methodDecoded": false,
                    "operation": "",
                    "output": "",
                    "revert": false,
                    "revertMessage": "",
                    "selector": "",
                    "status": false,
                    "value": ""
                },
                "nodeType": 0
            },
            "0": {
                "invocation": {
                    "address": "0x32400084c286cf3e17e7b677ea9583e60a000324",
                    "callData": "0x000000000000000000000000cf693bf7c3c2174f40388badcf3c8f028333248a0000000000000000000000000000000000000000000000000c8f34b481ba800000000000000000000000000000000000000000000000000000000000000000e000000000000000000000000000000000000000000000000000000000000b052d00000000000000000000000000000000000000000000000000000000000003200000000000000000000000000000000000000000000000000000000000000100000000000000000000000000cf693bf7c3c2174f40388badcf3c8f028333248a00000000000000000000000000000000000000000000000000000000000000000000000000000000000000000000000000000000000000000000000000000000",
                    "decodedMethod": {
                        "callParams": [
                            {
                                "name": "_contractL2",
                                "type": "address",
                                "value": "0xcf693bf7c3c2174f40388badcf3c8f028333248a"
                            },
                            {
                                "name": "_l2Value",
                                "type": "uint256",
                                "value": "905,000,000,000,000,000"
                            },
                            {
                                "name": "_calldata",
                                "type": "bytes",
                                "value": "0x"
                            },
                            {
                                "name": "_l2GasLimit",
                                "type": "uint256",
                                "value": "722,221"
                            },
                            {
                                "name": "_l2GasPerPubdataByteLimit",
                                "type": "uint256",
                                "value": "800"
                            },
                            {
                                "name": "_factoryDeps",
                                "type": "bytes[]",
                                "value": []
                            },
                            {
                                "name": "_refundRecipient",
                                "type": "address",
                                "value": "0xcf693bf7c3c2174f40388badcf3c8f028333248a"
                            }
                        ],
                        "constructorArguments": "",
                        "name": "requestL2Transaction",
                        "returnParams": [
                            {
                                "name": "canonicalTxHash",
                                "type": "bytes32",
                                "value": "0x02e4b5f0b2f973858f227230f7a84fa59cb3eb2fc07eb954260f4e5d86b86af2"
                            }
                        ],
                        "signature": "requestL2Transaction(address,uint256,bytes,uint256,uint256,bytes[],address)"
                    },
                    "errorInfo": "",
                    "fromAddress": "0xcf693bf7c3c2174f40388badcf3c8f028333248a",
                    "gasUsed": 118078,
                    "id": 0,
                    "methodDecoded": true,
                    "operation": "CALL",
                    "output": "0x02e4b5f0b2f973858f227230f7a84fa59cb3eb2fc07eb954260f4e5d86b86af2",
                    "revert": false,
                    "revertMessage": "",
                    "selector": "0xeb672419",
                    "status": true,
                    "value": "0.9053611105"
                },
                "nodeType": 0
            },
            "1": {
                "invocation": {
                    "address": "0xb2097dbe4410b538a45574b1fcd767e2303c7867",
                    "callData": "0x000000000000000000000000cf693bf7c3c2174f40388badcf3c8f028333248a0000000000000000000000000000000000000000000000000c8f34b481ba800000000000000000000000000000000000000000000000000000000000000000e000000000000000000000000000000000000000000000000000000000000b052d00000000000000000000000000000000000000000000000000000000000003200000000000000000000000000000000000000000000000000000000000000100000000000000000000000000cf693bf7c3c2174f40388badcf3c8f028333248a00000000000000000000000000000000000000000000000000000000000000000000000000000000000000000000000000000000000000000000000000000000",
                    "decodedMethod": {
                        "callParams": [
                            {
                                "name": "_contractL2",
                                "type": "address",
                                "value": "0xcf693bf7c3c2174f40388badcf3c8f028333248a"
                            },
                            {
                                "name": "_l2Value",
                                "type": "uint256",
                                "value": "905,000,000,000,000,000"
                            },
                            {
                                "name": "_calldata",
                                "type": "bytes",
                                "value": "0x"
                            },
                            {
                                "name": "_l2GasLimit",
                                "type": "uint256",
                                "value": "722,221"
                            },
                            {
                                "name": "_l2GasPerPubdataByteLimit",
                                "type": "uint256",
                                "value": "800"
                            },
                            {
                                "name": "_factoryDeps",
                                "type": "bytes[]",
                                "value": []
                            },
                            {
                                "name": "_refundRecipient",
                                "type": "address",
                                "value": "0xcf693bf7c3c2174f40388badcf3c8f028333248a"
                            }
                        ],
                        "constructorArguments": "",
                        "name": "requestL2Transaction",
                        "returnParams": [
                            {
                                "name": "canonicalTxHash",
                                "type": "bytes32",
                                "value": "0x02e4b5f0b2f973858f227230f7a84fa59cb3eb2fc07eb954260f4e5d86b86af2"
                            }
                        ],
                        "signature": "requestL2Transaction(address,uint256,bytes,uint256,uint256,bytes[],address)"
                    },
                    "errorInfo": "",
                    "fromAddress": "0x32400084c286cf3e17e7b677ea9583e60a000324",
                    "gasUsed": 90652,
                    "id": 1,
                    "methodDecoded": true,
                    "operation": "DELEGATECALL",
                    "output": "0x02e4b5f0b2f973858f227230f7a84fa59cb3eb2fc07eb954260f4e5d86b86af2",
                    "revert": false,
                    "revertMessage": "",
                    "selector": "0xeb672419",
                    "status": true,
                    "value": "0.9053611105"
                },
                "nodeType": 0
            },
            "2": {
                "invocation": {
                    "address": "0x8ffd57a9b2dcc10327768b601468fa192adc5c86",
                    "callData": "0x000000000000000000000000cf693bf7c3c2174f40388badcf3c8f028333248a00000000000000000000000032400084c286cf3e17e7b677ea9583e60a000324eb67241900000000000000000000000000000000000000000000000000000000",
                    "decodedMethod": {
                        "callParams": [
                            {
                                "name": "_caller",
                                "type": "address",
                                "value": "0xcf693bf7c3c2174f40388badcf3c8f028333248a"
                            },
                            {
                                "name": "_target",
                                "type": "address",
                                "value": "0x32400084c286cf3e17e7b677ea9583e60a000324"
                            },
                            {
                                "name": "_functionSig",
                                "type": "bytes4",
                                "value": "0xeb672419"
                            }
                        ],
                        "constructorArguments": "",
                        "name": "canCall",
                        "returnParams": [
                            {
                                "name": "",
                                "type": "bool",
                                "value": true
                            }
                        ],
                        "signature": "canCall(address,address,bytes4)"
                    },
                    "errorInfo": "",
                    "fromAddress": "0x32400084c286cf3e17e7b677ea9583e60a000324",
                    "gasUsed": 2907,
                    "id": 2,
                    "methodDecoded": true,
                    "operation": "STATICCALL",
                    "output": "0x0000000000000000000000000000000000000000000000000000000000000001",
                    "revert": false,
                    "revertMessage": "",
                    "selector": "0xb7009613",
                    "status": true,
                    "value": "0"
                },
                "nodeType": 0
            },
            "3": {
                "invocation": {
                    "address": "0x8ffd57a9b2dcc10327768b601468fa192adc5c86",
                    "callData": "0x0000000000000000000000000000000000000000000000000000000000000000",
                    "decodedMethod": {
                        "callParams": [
                            {
                                "name": "_l1Token",
                                "type": "address",
                                "value": "0x0000000000000000000000000000000000000000"
                            }
                        ],
                        "constructorArguments": "",
                        "name": "getTokenDepositLimitData",
                        "returnParams": [
                            {
                                "name": "",
                                "type": "(bool,uint256)",
                                "value": [
                                    {
                                        "name": "depositLimitation",
                                        "type": "bool",
                                        "value": false
                                    },
                                    {
                                        "name": "depositCap",
                                        "type": "uint256",
                                        "value": "0"
                                    }
                                ]
                            }
                        ],
                        "signature": "getTokenDepositLimitData(address)"
                    },
                    "errorInfo": "",
                    "fromAddress": "0x32400084c286cf3e17e7b677ea9583e60a000324",
                    "gasUsed": 4848,
                    "id": 3,
                    "methodDecoded": true,
                    "operation": "STATICCALL",
                    "output": "0x00000000000000000000000000000000000000000000000000000000000000000000000000000000000000000000000000000000000000000000000000000000",
                    "revert": false,
                    "revertMessage": "",
                    "selector": "0x7cf14701",
                    "status": true,
                    "value": "0"
                },
                "nodeType": 0
            },
            "4": {
                "event": {
                    "contract": "0x32400084c286cf3e17e7b677ea9583e60a000324",
                    "decodedLog": {
                        "name": "NewPriorityRequest",
                        "params": [
                            {
                                "name": "txId",
                                "type": "uint256",
                                "value": "1,454,572"
                            },
                            {
                                "name": "txHash",
                                "type": "bytes32",
                                "value": "0x02e4b5f0b2f973858f227230f7a84fa59cb3eb2fc07eb954260f4e5d86b86af2"
                            },
                            {
                                "name": "expirationTimestamp",
                                "type": "uint64",
                                "value": "1,688,970,671"
                            },
                            {
                                "name": "transaction",
                                "type": "(uint256,uint256,uint256,uint256,uint256,uint256,uint256,uint256,uint256,uint256,uint256[4],bytes,bytes,uint256[],bytes,bytes)",
                                "value": [
                                    {
                                        "name": "txType",
                                        "type": "uint256",
                                        "value": "255"
                                    },
                                    {
                                        "name": "from",
                                        "type": "uint256",
                                        "value": "1,184,107,891,741,202,337,815,410,133,867,513,764,646,158,017,674"
                                    },
                                    {
                                        "name": "to",
                                        "type": "uint256",
                                        "value": "1,184,107,891,741,202,337,815,410,133,867,513,764,646,158,017,674"
                                    },
                                    {
                                        "name": "gasLimit",
                                        "type": "uint256",
                                        "value": "722,221"
                                    },
                                    {
                                        "name": "gasPerPubdataByteLimit",
                                        "type": "uint256",
                                        "value": "800"
                                    },
                                    {
                                        "name": "maxFeePerGas",
                                        "type": "uint256",
                                        "value": "500,000,000"
                                    },
                                    {
                                        "name": "maxPriorityFeePerGas",
                                        "type": "uint256",
                                        "value": "0"
                                    },
                                    {
                                        "name": "paymaster",
                                        "type": "uint256",
                                        "value": "0"
                                    },
                                    {
                                        "name": "nonce",
                                        "type": "uint256",
                                        "value": "1,454,572"
                                    },
                                    {
                                        "name": "value",
                                        "type": "uint256",
                                        "value": "905,000,000,000,000,000"
                                    },
                                    {
                                        "name": "reserved",
                                        "type": "uint256[4]",
                                        "value": [
                                            "905,361,110,500,000,000",
                                            "1,184,107,891,741,202,337,815,410,133,867,513,764,646,158,017,674",
                                            "0",
                                            "0"
                                        ]
                                    },
                                    {
                                        "name": "data",
                                        "type": "bytes",
                                        "value": "0x"
                                    },
                                    {
                                        "name": "signature",
                                        "type": "bytes",
                                        "value": "0x"
                                    },
                                    {
                                        "name": "factoryDeps",
                                        "type": "uint256[]",
                                        "value": []
                                    },
                                    {
                                        "name": "paymasterInput",
                                        "type": "bytes",
                                        "value": "0x"
                                    },
                                    {
                                        "name": "reservedDynamic",
                                        "type": "bytes",
                                        "value": "0x"
                                    }
                                ]
                            },
                            {
                                "name": "factoryDeps",
                                "type": "bytes[]",
                                "value": []
                            }
                        ],
                        "signature": "NewPriorityRequest(uint256,bytes32,uint64,(uint256,uint256,uint256,uint256,uint256,uint256,uint256,uint256,uint256,uint256,uint256[4],bytes,bytes,uint256[],bytes,bytes),bytes[])"
                    },
                    "id": 4,
                    "logData": "0x00000000000000000000000000000000000000000000000000000000001631ec02e4b5f0b2f973858f227230f7a84fa59cb3eb2fc07eb954260f4e5d86b86af20000000000000000000000000000000000000000000000000000000064aba5af00000000000000000000000000000000000000000000000000000000000000a000000000000000000000000000000000000000000000000000000000000003a000000000000000000000000000000000000000000000000000000000000000ff000000000000000000000000cf693bf7c3c2174f40388badcf3c8f028333248a000000000000000000000000cf693bf7c3c2174f40388badcf3c8f028333248a00000000000000000000000000000000000000000000000000000000000b052d0000000000000000000000000000000000000000000000000000000000000320000000000000000000000000000000000000000000000000000000001dcd65000000000000000000000000000000000000000000000000000000000000000000000000000000000000000000000000000000000000000000000000000000000000000000000000000000000000000000000000000000000000000000001631ec0000000000000000000000000000000000000000000000000c8f34b481ba80000000000000000000000000000000000000000000000000000c907d2218ce4100000000000000000000000000cf693bf7c3c2174f40388badcf3c8f028333248a000000000000000000000000000000000000000000000000000000000000000000000000000000000000000000000000000000000000000000000000000000000000000000000000000000000000000000000000000000000000000000000260000000000000000000000000000000000000000000000000000000000000028000000000000000000000000000000000000000000000000000000000000002a000000000000000000000000000000000000000000000000000000000000002c000000000000000000000000000000000000000000000000000000000000002e0000000000000000000000000000000000000000000000000000000000000000000000000000000000000000000000000000000000000000000000000000000000000000000000000000000000000000000000000000000000000000000000000000000000000000000000000000000000000000000000000000000000000000000000000000000000000000000000000000000000000000000000000000000000000000000000000000000000000000000000000000000000000000000000000",
                    "logDecoded": true,
                    "operation": "EVENT",
                    "revert": false,
                    "status": true,
                    "topics": [
                        "0x4531cd5795773d7101c17bdeb9f5ab7f47d7056017506f937083be5d6e77a382"
                    ]
                },
                "nodeType": 1
            }
        },
        "gasFlame": [
            {
                "children": [
                    {
                        "children": [
                            {
                                "children": [],
                                "depth": 0,
                                "name": "Initial Gas",
                                "value": 22864
                            },
                            {
                                "children": [
                                    {
                                        "children": [
                                            {
                                                "children": [],
                                                "depth": 2,
                                                "name": "canCall",
                                                "value": 2907
                                            },
                                            {
                                                "children": [],
                                                "depth": 2,
                                                "name": "getTokenDepositLimitData",
                                                "value": 4848
                                            }
                                        ],
                                        "depth": 1,
                                        "name": "requestL2Transaction",
                                        "value": 90652
                                    }
                                ],
                                "depth": 0,
                                "name": "Executed Gas",
                                "value": 98014
                            }
                        ],
                        "depth": -1,
                        "name": "Actual Gas Used",
                        "value": 118078
                    },
                    {
                        "children": [],
                        "depth": -1,
                        "name": "Refunded Gas",
                        "value": 2800
                    }
                ],
                "depth": -2,
                "name": "Total Gas",
                "value": 120878
            }
        ],
        "isConfirmed": true,
        "mainTrace": [
            {
                "children": [
                    {
                        "children": [
                            {
                                "children": [
                                    {
                                        "children": [],
                                        "depth": 2,
                                        "id": 2,
                                        "order": 2
                                    },
                                    {
                                        "children": [],
                                        "depth": 2,
                                        "id": 3,
                                        "order": 3
                                    },
                                    {
                                        "children": [],
                                        "depth": 2,
                                        "id": 4,
                                        "order": 4
                                    }
                                ],
                                "depth": 1,
                                "id": 1,
                                "order": 1
                            }
                        ],
                        "depth": 0,
                        "id": 0,
                        "order": 0
                    }
                ],
                "depth": -1,
                "id": -1,
                "order": -1
            }
        ],
        "mainTraceNodeCount": 5,
        "parentIdMap": {
            "0": -1,
            "1": 0,
            "2": 1,
            "3": 1,
            "4": 1
        },
        "tidyTrace": [
            {
                "children": [
                    {
                        "children": [
                            {
                                "children": [
                                    {
                                        "children": [],
                                        "depth": 2,
                                        "id": 4,
                                        "order": 4
                                    }
                                ],
                                "depth": 1,
                                "id": 1,
                                "order": 1
                            }
                        ],
                        "depth": 0,
                        "id": 0,
                        "order": 0
                    }
                ],
                "depth": -1,
                "id": -1,
                "order": -1
            }
        ],
        "tidyTraceNodeCount": 3
    },
    "state_change": {
        "stateChanges": [
            {
                "address": "0x32400084c286cf3e17e7b677ea9583e60a000324",
                "erc": "",
                "slots": [
                    {
                        "current": "0x00000000000000000000000000000000000000000000000000000000001631ed",
                        "key": "0x0000000000000000000000000000000000000000000000000000000000000011",
                        "prev": "0x00000000000000000000000000000000000000000000000000000000001631ec"
                    },
                    {
                        "current": "0x02e4b5f0b2f973858f227230f7a84fa59cb3eb2fc07eb954260f4e5d86b86af2",
                        "key": "0x63f69bcc50dcbb796bf3f1a7806fae7af37492778a45fbfd6b46faa43361d24d",
                        "prev": "0x0000000000000000000000000000000000000000000000000000000000000000"
                    },
                    {
                        "current": "0x0000000000000000000000000000000000000000000000000000000064aba5af",
                        "key": "0x63f69bcc50dcbb796bf3f1a7806fae7af37492778a45fbfd6b46faa43361d24e",
                        "prev": "0x0000000000000000000000000000000000000000000000000000000000000000"
                    }
                ],
                "storageVariables": [
                    {
                        "name": "s",
                        "type": "struct AppStorage",
                        "value": {
                            "fields": [
                                {
                                    "name": "priorityQueue",
                                    "type": "struct PriorityQueue.Queue",
                                    "value": {
                                        "fields": [
                                            {
                                                "name": "data",
                                                "type": "mapping(uint256 => struct PriorityOperation)",
                                                "value": {
                                                    "pairs": [
                                                        {
                                                            "key": "1454572",
                                                            "value": {
                                                                "fields": [
                                                                    {
                                                                        "name": "canonicalTxHash",
                                                                        "type": "bytes32",
                                                                        "value": {
                                                                            "current": "0x02e4b5f0b2f973858f227230f7a84fa59cb3eb2fc07eb954260f4e5d86b86af2",
                                                                            "prev": "0x0000000000000000000000000000000000000000000000000000000000000000",
                                                                            "typeTag": 1
                                                                        }
                                                                    },
                                                                    {
                                                                        "name": "expirationTimestamp",
                                                                        "type": "uint64",
                                                                        "value": {
                                                                            "current": "1688970671",
                                                                            "prev": "0",
                                                                            "typeTag": 1
                                                                        }
                                                                    },
                                                                    {
                                                                        "name": "layer2Tip",
                                                                        "type": "uint192",
                                                                        "value": {
                                                                            "current": "0",
                                                                            "prev": "0",
                                                                            "typeTag": 1
                                                                        }
                                                                    }
                                                                ],
                                                                "typeTag": 3
                                                            }
                                                        }
                                                    ],
                                                    "typeTag": 4
                                                }
                                            },
                                            {
                                                "name": "tail",
                                                "type": "uint256",
                                                "value": {
                                                    "current": "1454573",
                                                    "prev": "1454572",
                                                    "typeTag": 1
                                                }
                                            }
                                        ],
                                        "typeTag": 3
                                    }
                                }
                            ],
                            "typeTag": 3
                        }
                    }
                ]
            }
        ]
    }
}