{
    "balance_change": {
        "balanceChanges": [
            {
                "account": "0xe94bf55494fbbd73f2286c61098510e35ea4f656",
                "assets": [
                    {
                        "address": "0x888666ca69e0f178ded6d75b5726cee99a87d698",
                        "amount": "1,380.96580098",
                        "iconUrl": "https://assets.blocksec.com/icon/a0a697a80871d0198549343dc1f46e4e3b86cd46ec34f4a83f958a2a7c0bf6d2.png",
                        "isERC1155": false,
                        "isERC721": false,
                        "sign": false,
                        "value": ""
                    }
                ]
            },
            {
                "account": "0x0f4f0f654785a193a67e296a8276a6be836a98a0",
                "assets": [
                    {
                        "address": "0x888666ca69e0f178ded6d75b5726cee99a87d698",
                        "amount": "1,380.96580098",
                        "iconUrl": "https://assets.blocksec.com/icon/a0a697a80871d0198549343dc1f46e4e3b86cd46ec34f4a83f958a2a7c0bf6d2.png",
                        "isERC1155": false,
                        "isERC721": false,
                        "sign": true,
                        "value": ""
                    }
                ]
            }
        ]
    },
    "profile": {
        "basic_info": {
            "baseFee": "",
            "blockNumber": 6308364,
            "callData": "0xa9059cbb0000000000000000000000000f4f0f654785a193a67e296a8276a6be836a98a000000000000000000000000000000000000000000000004adcc0175227afc800",
            "debugEnable": true,
            "errorInfo": "",
            "eventCount": 1,
            "feeRecipient": "0xea674fdde714fd979de3edf0f56aa9716b898ec8",
            "formatValue": "0",
            "gasLimit": 52179,
            "gasPrice": "20",
            "gasUsed": 37179,
            "intTxnCount": 0,
            "internalRevert": false,
            "internalRevertMessage": "",
            "isContractCreation": false,
            "isFlashloan": false,
            "maxFee": "",
            "nonce": 111,
            "overwritedBlockNumber": -1,
            "priorityFee": "",
            "receiver": "0x888666ca69e0f178ded6d75b5726cee99a87d698",
            "revertMessage": "",
            "sender": "0xe94bf55494fbbd73f2286c61098510e35ea4f656",
            "simulationEnable": true,
            "sourceTxnHash": "0xc07d8be18b4b76efeafbd15314b7077a85204f7b421f5cfd78903bbe6ee286fb",
            "status": true,
            "timestamp": "2018-09-10T21:49:32Z",
            "transactionFee": "0.00074358",
            "txnHash": "0xc07d8be18b4b76efeafbd15314b7077a85204f7b421f5cfd78903bbe6ee286fb",
            "txnIndex": 6,
            "type": 0,
            "value": "0"
        },
        "fund_flow": [
            {
                "amount": "1,380.96580098",
                "from": "0xe94bf55494fbbd73f2286c61098510e35ea4f656",
                "id": 1,
                "isERC1155": false,
                "isERC721": false,
                "isReverted": false,
                "order": 1,
                "to": "0x0f4f0f654785a193a67e296a8276a6be836a98a0",
                "token": "0x888666ca69e0f178ded6d75b5726cee99a87d698"
            }
        ],
        "token_infos": [
            {
                "address": "0x888666ca69e0f178ded6d75b5726cee99a87d698",
                "decimals": 18
            },
            {
                "address": "0xc02aaa39b223fe8d0a0e5c4f27ead9083c756cc2",
                "decimals": 18
            },
            {
                "address": "0xeeeeeeeeeeeeeeeeeeeeeeeeeeeeeeeeeeeeeeee",
                "decimals": 18
            }
        ]
    },
    "address_label": {
        "labels": [
            {
                "address": "0xeeeeeeeeeeeeeeeeeeeeeeeeeeeeeeeeeeeeeeee",
                "label": "Ether"
            },
            {
                "address": "0x888666ca69e0f178ded6d75b5726cee99a87d698",
                "label": "ICONOMI Token"
            },
            {
                "address": "0x0000000000000000000000000000000000000001",
                "label": "Precompiled"
            },
            {
                "address": "0x0000000000000000000000000000000000000002",
                "label": "Precompiled"
            },
            {
                "address": "0x0000000000000000000000000000000000000003",
                "label": "Precompiled"
            },
            {
                "address": "0x0000000000000000000000000000000000000004",
                "label": "Precompiled"
            }
        ]
    },
    "trace": {
        "accountLabels": null,
        "dataMap": {
            "-1": {
                "invocation": {
                    "address": "0xe94bf55494fbbd73f2286c61098510e35ea4f656",
                    "callData": "",
                    "decodedMethod": null,
                    "errorInfo": "",
                    "fromAddress": "",
                    "gasUsed": 0,
                    "id": -1,
                    "methodDecoded": false,
                    "operation": "",
                    "output": "",
                    "revert": false,
                    "revertMessage": "",
                    "selector": "",
                    "status": false,
                    "value": ""
                },
                "nodeType": 0
            },
            "0": {
                "invocation": {
                    "address": "0x888666ca69e0f178ded6d75b5726cee99a87d698",
                    "callData": "0x0000000000000000000000000f4f0f654785a193a67e296a8276a6be836a98a000000000000000000000000000000000000000000000004adcc0175227afc800",
                    "decodedMethod": {
                        "callParams": [
                            {
                                "name": "_to",
                                "type": "address",
                                "value": "0x0f4f0f654785a193a67e296a8276a6be836a98a0"
                            },
                            {
                                "decimalAvailable": true,
                                "name": "_value",
                                "type": "uint256",
                                "value": "1,380,965,800,980,000,000,000"
                            }
                        ],
                        "constructorArguments": "",
                        "name": "transfer",
                        "returnParams": [
                            {
                                "name": "success",
                                "type": "bool",
                                "value": true
                            }
                        ],
                        "signature": "transfer(address,uint256)"
                    },
                    "errorInfo": "",
                    "fromAddress": "0xe94bf55494fbbd73f2286c61098510e35ea4f656",
                    "gasUsed": 37179,
                    "id": 0,
                    "methodDecoded": true,
                    "operation": "CALL",
                    "output": "0x0000000000000000000000000000000000000000000000000000000000000001",
                    "revert": false,
                    "revertMessage": "",
                    "selector": "0xa9059cbb",
                    "status": true,
                    "value": "0"
                },
                "nodeType": 0
            },
            "1": {
                "event": {
                    "contract": "0x888666ca69e0f178ded6d75b5726cee99a87d698",
                    "decodedLog": {
                        "name": "Transfer",
                        "params": [
                            {
                                "name": "_from",
                                "type": "address",
                                "value": "0xe94bf55494fbbd73f2286c61098510e35ea4f656"
                            },
                            {
                                "name": "_to",
                                "type": "address",
                                "value": "0x0f4f0f654785a193a67e296a8276a6be836a98a0"
                            },
                            {
                                "decimalAvailable": true,
                                "name": "_value",
                                "type": "uint256",
                                "value": "1,380,965,800,980,000,000,000"
                            }
                        ],
                        "signature": "Transfer(address,address,uint256)"
                    },
                    "id": 1,
                    "logData": "0x00000000000000000000000000000000000000000000004adcc0175227afc800",
                    "logDecoded": true,
                    "operation": "EVENT",
                    "revert": false,
                    "status": true,
                    "topics": [
                        "0xddf252ad1be2c89b69c2b068fc378daa952ba7f163c4a11628f55a4df523b3ef",
                        "0x000000000000000000000000e94bf55494fbbd73f2286c61098510e35ea4f656",
                        "0x0000000000000000000000000f4f0f654785a193a67e296a8276a6be836a98a0"
                    ]
                },
                "nodeType": 1
            }
        },
        "gasFlame": [
            {
                "children": [
                    {
                        "children": [
                            {
                                "children": [],
                                "depth": 0,
                                "name": "Initial Gas",
                                "value": 23320
                            },
                            {
                                "children": [],
                                "depth": 0,
                                "name": "Executed Gas",
                                "value": 28859
                            }
                        ],
                        "depth": -1,
                        "name": "Actual Gas Used",
                        "value": 37179
                    },
                    {
                        "children": [],
                        "depth": -1,
                        "name": "Refunded Gas",
                        "value": 15000
                    }
                ],
                "depth": -2,
                "name": "Total Gas",
                "value": 52179
            }
        ],
        "isConfirmed": true,
        "mainTrace": [
            {
                "children": [
                    {
                        "children": [
                            {
                                "children": [],
                                "depth": 1,
                                "id": 1,
                                "order": 1
                            }
                        ],
                        "depth": 0,
                        "id": 0,
                        "order": 0
                    }
                ],
                "depth": -1,
                "id": -1,
                "order": -1
            }
        ],
        "mainTraceNodeCount": 2,
        "parentIdMap": {
            "0": -1,
            "1": 0
        },
        "tidyTrace": [
            {
                "children": [
                    {
                        "children": [
                            {
                                "children": [],
                                "depth": 1,
                                "id": 1,
                                "order": 1
                            }
                        ],
                        "depth": 0,
                        "id": 0,
                        "order": 0
                    }
                ],
                "depth": -1,
                "id": -1,
                "order": -1
            }
        ],
        "tidyTraceNodeCount": 2
    },
    "state_change": {
        "stateChanges": [
            {
                "address": "0x888666ca69e0f178ded6d75b5726cee99a87d698",
                "erc": "ERC-20",
                "slots": [
                    {
                        "current": "0x0000000000000000000000000000000000000000000000000000000000000000",
                        "key": "0x6bd0b4444a728428d9a3f355547365d3dc667fddd5df54d0a0863936b579425c",
                        "prev": "0x00000000000000000000000000000000000000000000004adcc0175227afc800"
                    },
                    {
                        "current": "0x00000000000000000000000000000000000000000000004adcc0175227afc800",
                        "key": "0x0f3f3259a3635d452e84577fe6d816c3de7b1ffb341a9066433e517197622528",
                        "prev": "0x0000000000000000000000000000000000000000000000000000000000000000"
                    }
                ],
                "storageVariables": []
            }
        ]
    }
}