{
    "balance_change": {
        "balanceChanges": [
            {
                "account": "0x2f617c0faf20ae1ea1eec552f381f63467f30ea8",
                "assets": [
                    {
                        "address": "0xeeeeeeeeeeeeeeeeeeeeeeeeeeeeeeeeeeeeeeee",
                        "amount": "1.312956186218496498",
                        "iconUrl": "https://assets.blocksec.com/image/1663669189317-3.png",
                        "isERC1155": false,
                        "isERC721": false,
                        "sign": true,
                        "value": "3313.4024901133198568"
                    },
                    {
                        "address": "0xd6175692026bcd7cb12a515e39cf0256ef35cb86",
                        "amount": "3,972,878.400000000106954752",
                        "iconUrl": "",
                        "isERC1155": false,
                        "isERC721": false,
                        "sign": false,
                        "value": ""
                    }
                ]
            },
            {
                "account": "0xeaaa41cb2a64b11fe761d41e747c032cdd60cace",
                "assets": [
                    {
                        "address": "0xeeeeeeeeeeeeeeeeeeeeeeeeeeeeeeeeeeeeeeee",
                        "amount": "0.00043626383650418",
                        "iconUrl": "https://assets.blocksec.com/image/1663669189317-3.png",
                        "isERC1155": false,
                        "isERC721": false,
                        "sign": true,
                        "value": "1.1009641430681299524"
                    }
                ]
            },
            {
                "account": "0x970cf9b7346fbaea0588f03356a104100eb675e2",
                "assets": [
                    {
                        "address": "0xd6175692026bcd7cb12a515e39cf0256ef35cb86",
                        "amount": "3,972,878.400000000106954752",
                        "iconUrl": "",
                        "isERC1155": false,
                        "isERC721": false,
                        "sign": true,
                        "value": ""
                    },
                    {
                        "address": "0xc02aaa39b223fe8d0a0e5c4f27ead9083c756cc2",
                        "amount": "1.317755088420042459",
                        "iconUrl": "https://assets.blocksec.com/icon/f1cb2d02c471d545bbc7722daf3277fd852d98e63d118771af7047bd8256c516.png",
                        "isERC1155": false,
                        "isERC721": false,
                        "sign": false,
                        "value": "3325.513095178559856"
                    },
                    {
                        "address": "0xeeeeeeeeeeeeeeeeeeeeeeeeeeeeeeeeeeeeeeee",
                        "amount": "0.001983017438655355",
                        "iconUrl": "https://assets.blocksec.com/image/1663669189317-3.png",
                        "isERC1155": false,
                        "isERC721": false,
                        "sign": true,
                        "value": "5.0043824694091797838"
                    }
                ]
            },
            {
                "account": "0xc02aaa39b223fe8d0a0e5c4f27ead9083c756cc2",
                "assets": [
                    {
                        "address": "0xeeeeeeeeeeeeeeeeeeeeeeeeeeeeeeeeeeeeeeee",
                        "amount": "1.317755088420042459",
                        "iconUrl": "https://assets.blocksec.com/image/1663669189317-3.png",
                        "isERC1155": false,
                        "isERC721": false,
                        "sign": false,
                        "value": "3325.513095178559856"
                    },
                    {
                        "address": "0xc02aaa39b223fe8d0a0e5c4f27ead9083c756cc2",
                        "amount": "1.317755088420042459",
                        "iconUrl": "https://assets.blocksec.com/icon/f1cb2d02c471d545bbc7722daf3277fd852d98e63d118771af7047bd8256c516.png",
                        "isERC1155": false,
                        "isERC721": false,
                        "sign": true,
                        "value": "3325.513095178559856"
                    }
                ]
            },
            {
                "account": "0xca90d843288e35beeadfce14e5f906e3f1afc7cb",
                "assets": [
                    {
                        "address": "0xeeeeeeeeeeeeeeeeeeeeeeeeeeeeeeeeeeeeeeee",
                        "amount": "0.000396603487731071",
                        "iconUrl": "https://assets.blocksec.com/image/1663669189317-3.png",
                        "isERC1155": false,
                        "isERC721": false,
                        "sign": true,
                        "value": "1.0008764936294739567"
                    }
                ]
            },
            {
                "account": "0xd10d570c7cc9a5784ed75c70d134931f27c6c789",
                "assets": [
                    {
                        "address": "0xeeeeeeeeeeeeeeeeeeeeeeeeeeeeeeeeeeeeeeee",
                        "amount": "0.001983017438655355",
                        "iconUrl": "https://assets.blocksec.com/image/1663669189317-3.png",
                        "isERC1155": false,
                        "isERC721": false,
                        "sign": true,
                        "value": "5.0043824694091797838"
                    }
                ]
            }
        ]
    },
    "profile": {
        "basic_info": {
            "baseFee": "11.380076329",
            "blockNumber": 20664663,
            "callData": "0x791ac94700000000000000000000000000000000000000000003494a2b6be41bc0000000000000000000000000000000000000000000000000000000120e796291ad3f0000000000000000000000000000000000000000000000000000000000000000a00000000000000000000000002f617c0faf20ae1ea1eec552f381f63467f30ea80000000000000000000000000000000000000000000000000000000066d910780000000000000000000000000000000000000000000000000000000000000002000000000000000000000000d6175692026bcd7cb12a515e39cf0256ef35cb86000000000000000000000000c02aaa39b223fe8d0a0e5c4f27ead9083c756cc2",
            "debugEnable": true,
            "errorInfo": "",
            "eventCount": 6,
            "feeRecipient": "0x95222290dd7278aa3ddd389cc1e1d165cc4bafe5",
            "formatValue": "0.004798902201545961",
            "gasLimit": 398795,
            "gasPrice": "11.7",
            "gasUsed": 229732,
            "intTxnCount": 28,
            "internalRevert": false,
            "internalRevertMessage": "",
            "isContractCreation": false,
            "isFlashloan": false,
            "maxFee": "11.7",
            "nonce": 122,
            "overwritedBlockNumber": -1,
            "priorityFee": "1.681128356",
            "receiver": "0xeaaa41cb2a64b11fe761d41e747c032cdd60cace",
            "revertMessage": "",
            "sender": "0x2f617c0faf20ae1ea1eec552f381f63467f30ea8",
            "simulationEnable": true,
            "sourceTxnHash": "0xc098ca8eb297b85e10fd13e16a6f9a12fc493851882b59225e4c4a583379aada",
            "status": true,
            "timestamp": "2024-09-02T18:26:11Z",
            "transactionFee": "0.0026878644",
            "txnHash": "0xc098ca8eb297b85e10fd13e16a6f9a12fc493851882b59225e4c4a583379aada",
            "txnIndex": 60,
            "type": 2,
            "value": "4798902201545961"
        },
        "fund_flow": [
            {
                "amount": "0.004798902201545961",
                "from": "0x2f617c0faf20ae1ea1eec552f381f63467f30ea8",
                "id": 1,
                "isERC1155": false,
                "isERC721": false,
                "isReverted": false,
                "order": 1,
                "to": "0xeaaa41cb2a64b11fe761d41e747c032cdd60cace",
                "token": "0xeeeeeeeeeeeeeeeeeeeeeeeeeeeeeeeeeeeeeeee"
            },
            {
                "amount": "3,972,878.400000000106954752",
                "from": "0x2f617c0faf20ae1ea1eec552f381f63467f30ea8",
                "id": 2,
                "isERC1155": false,
                "isERC721": false,
                "isReverted": false,
                "order": 2,
                "to": "0x970cf9b7346fbaea0588f03356a104100eb675e2",
                "token": "0xd6175692026bcd7cb12a515e39cf0256ef35cb86"
            },
            {
                "amount": "1.317755088420042459",
                "from": "0x970cf9b7346fbaea0588f03356a104100eb675e2",
                "id": 3,
                "isERC1155": false,
                "isERC721": false,
                "isReverted": false,
                "order": 3,
                "to": "0xeaaa41cb2a64b11fe761d41e747c032cdd60cace",
                "token": "0xc02aaa39b223fe8d0a0e5c4f27ead9083c756cc2"
            },
            {
                "amount": "0.000396603487731071",
                "from": "0xeaaa41cb2a64b11fe761d41e747c032cdd60cace",
                "id": 4,
                "isERC1155": false,
                "isERC721": false,
                "isReverted": false,
                "order": 4,
                "to": "0xca90d843288e35beeadfce14e5f906e3f1afc7cb",
                "token": "0xeeeeeeeeeeeeeeeeeeeeeeeeeeeeeeeeeeeeeeee"
            },
            {
                "amount": "0.001983017438655355",
                "from": "0xeaaa41cb2a64b11fe761d41e747c032cdd60cace",
                "id": 5,
                "isERC1155": false,
                "isERC721": false,
                "isReverted": false,
                "order": 5,
                "to": "0xd10d570c7cc9a5784ed75c70d134931f27c6c789",
                "token": "0xeeeeeeeeeeeeeeeeeeeeeeeeeeeeeeeeeeeeeeee"
            },
            {
                "amount": "0.001983017438655355",
                "from": "0xeaaa41cb2a64b11fe761d41e747c032cdd60cace",
                "id": 6,
                "isERC1155": false,
                "isERC721": false,
                "isReverted": false,
                "order": 6,
                "to": "0x970cf9b7346fbaea0588f03356a104100eb675e2",
                "token": "0xeeeeeeeeeeeeeeeeeeeeeeeeeeeeeeeeeeeeeeee"
            },
            {
                "amount": "1.317755088420042459",
                "from": "0xc02aaa39b223fe8d0a0e5c4f27ead9083c756cc2",
                "id": 7,
                "isERC1155": false,
                "isERC721": false,
                "isReverted": false,
                "order": 7,
                "to": "0xeaaa41cb2a64b11fe761d41e747c032cdd60cace",
                "token": "0xeeeeeeeeeeeeeeeeeeeeeeeeeeeeeeeeeeeeeeee"
            },
            {
                "amount": "1.317755088420042459",
                "from": "0xeaaa41cb2a64b11fe761d41e747c032cdd60cace",
                "id": 8,
                "isERC1155": false,
                "isERC721": false,
                "isReverted": false,
                "order": 8,
                "to": "0xc02aaa39b223fe8d0a0e5c4f27ead9083c756cc2",
                "token": "0xc02aaa39b223fe8d0a0e5c4f27ead9083c756cc2"
            },
            {
                "amount": "1.317755088420042459",
                "from": "0xeaaa41cb2a64b11fe761d41e747c032cdd60cace",
                "id": 9,
                "isERC1155": false,
                "isERC721": false,
                "isReverted": false,
                "order": 9,
                "to": "0x2f617c0faf20ae1ea1eec552f381f63467f30ea8",
                "token": "0xeeeeeeeeeeeeeeeeeeeeeeeeeeeeeeeeeeeeeeee"
            }
        ],
        "token_infos": [
            {
                "address": "0xc02aaa39b223fe8d0a0e5c4f27ead9083c756cc2",
                "decimals": 18
            },
            {
                "address": "0xd6175692026bcd7cb12a515e39cf0256ef35cb86",
                "decimals": 18
            },
            {
                "address": "0xeeeeeeeeeeeeeeeeeeeeeeeeeeeeeeeeeeeeeeee",
                "decimals": 18
            }
        ]
    },
    "address_label": {
        "labels": [
            {
                "address": "0x0000000000000000000000000000000000000004",
                "label": "Precompiled"
            },
            {
                "address": "0x9a27cb5ae0b2cee0bb71f9a85c0d60f3920757b4",
                "label": "EtherVistaFactory"
            },
            {
                "address": "0xc02aaa39b223fe8d0a0e5c4f27ead9083c756cc2",
                "label": "Wrapped Ether (WETH)"
            },
            {
                "address": "0xe62b71cf983019bff55bc83b48601ce8419650cc",
                "label": "AccessControlledOffchainAggregator"
            },
            {
                "address": "0xd6175692026bcd7cb12a515e39cf0256ef35cb86",
                "label": "BONZI"
            },
            {
                "address": "0xeaaa41cb2a64b11fe761d41e747c032cdd60cace",
                "label": "Ethervista: Router"
            },
            {
                "address": "0x970cf9b7346fbaea0588f03356a104100eb675e2",
                "label": "VISTA-LP"
            },
            {
                "address": "0x0000000000000000000000000000000000000001",
                "label": "Precompiled"
            },
            {
                "address": "0x0000000000000000000000000000000000000002",
                "label": "Precompiled"
            },
            {
                "address": "0x0000000000000000000000000000000000000003",
                "label": "Precompiled"
            },
            {
                "address": "0xeeeeeeeeeeeeeeeeeeeeeeeeeeeeeeeeeeeeeeee",
                "label": "Ether"
            },
            {
                "address": "0xca90d843288e35beeadfce14e5f906e3f1afc7cb",
                "label": "Ethervista: Deployer"
            },
            {
                "address": "0x5f4ec3df9cbd43714fe2740f5e3616155c5b8419",
                "label": "EACAggregatorProxy"
            }
        ]
    },
    "trace": {
        "accountLabels": null,
        "dataMap": {
            "-1": {
                "invocation": {
                    "address": "0x2f617c0faf20ae1ea1eec552f381f63467f30ea8",
                    "callData": "",
                    "decodedMethod": null,
                    "errorInfo": "",
                    "fromAddress": "",
                    "gasUsed": 0,
                    "id": -1,
                    "methodDecoded": false,
                    "operation": "",
                    "output": "",
                    "revert": false,
                    "revertMessage": "",
                    "selector": "",
                    "status": false,
                    "value": ""
                },
                "nodeType": 0
            },
            "0": {
                "invocation": {
                    "address": "0xeaaa41cb2a64b11fe761d41e747c032cdd60cace",
                    "callData": "0x00000000000000000000000000000000000000000003494a2b6be41bc0000000000000000000000000000000000000000000000000000000120e796291ad3f0000000000000000000000000000000000000000000000000000000000000000a00000000000000000000000002f617c0faf20ae1ea1eec552f381f63467f30ea80000000000000000000000000000000000000000000000000000000066d910780000000000000000000000000000000000000000000000000000000000000002000000000000000000000000d6175692026bcd7cb12a515e39cf0256ef35cb86000000000000000000000000c02aaa39b223fe8d0a0e5c4f27ead9083c756cc2",
                    "decodedMethod": {
                        "callParams": [
                            {
                                "name": "amountIn",
                                "type": "uint256",
                                "value": "3,972,878,400,000,000,106,954,752"
                            },
                            {
                                "name": "amountOutMin",
                                "type": "uint256",
                                "value": "1,301,110,806,614,458,112"
                            },
                            {
                                "name": "path",
                                "type": "address[]",
                                "value": [
                                    "0xd6175692026bcd7cb12a515e39cf0256ef35cb86",
                                    "0xc02aaa39b223fe8d0a0e5c4f27ead9083c756cc2"
                                ]
                            },
                            {
                                "name": "to",
                                "type": "address",
                                "value": "0x2f617c0faf20ae1ea1eec552f381f63467f30ea8"
                            },
                            {
                                "name": "deadline",
                                "type": "uint256",
                                "value": "1,725,501,560"
                            }
                        ],
                        "constructorArguments": "",
                        "name": "swapExactTokensForETHSupportingFeeOnTransferTokens",
                        "returnParams": [],
                        "signature": "swapExactTokensForETHSupportingFeeOnTransferTokens(uint256,uint256,address[],address,uint256)"
                    },
                    "errorInfo": "",
                    "fromAddress": "0x2f617c0faf20ae1ea1eec552f381f63467f30ea8",
                    "gasUsed": 229732,
                    "id": 0,
                    "methodDecoded": true,
                    "operation": "CALL",
                    "output": "",
                    "revert": false,
                    "revertMessage": "",
                    "selector": "0x791ac947",
                    "status": true,
                    "value": "0.004798902201545961"
                },
                "nodeType": 0
            },
            "1": {
                "invocation": {
                    "address": "0x970cf9b7346fbaea0588f03356a104100eb675e2",
                    "callData": "0x",
                    "decodedMethod": {
                        "callParams": [],
                        "constructorArguments": "",
                        "name": "sellTotalFee",
                        "returnParams": [
                            {
                                "name": "",
                                "type": "uint8",
                                "value": "11"
                            }
                        ],
                        "signature": "sellTotalFee()"
                    },
                    "errorInfo": "",
                    "fromAddress": "0xeaaa41cb2a64b11fe761d41e747c032cdd60cace",
                    "gasUsed": 2422,
                    "id": 1,
                    "methodDecoded": true,
                    "operation": "STATICCALL",
                    "output": "0x000000000000000000000000000000000000000000000000000000000000000b",
                    "revert": false,
                    "revertMessage": "",
                    "selector": "0x00afb325",
                    "status": true,
                    "value": "0"
                },
                "nodeType": 0
            },
            "10": {
                "invocation": {
                    "address": "0x9a27cb5ae0b2cee0bb71f9a85c0d60f3920757b4",
                    "callData": "0x",
                    "decodedMethod": {
                        "callParams": [],
                        "constructorArguments": "",
                        "name": "router",
                        "returnParams": [
                            {
                                "name": "",
                                "type": "address",
                                "value": "0xeaaa41cb2a64b11fe761d41e747c032cdd60cace"
                            }
                        ],
                        "signature": "router()"
                    },
                    "errorInfo": "",
                    "fromAddress": "0x970cf9b7346fbaea0588f03356a104100eb675e2",
                    "gasUsed": 2425,
                    "id": 10,
                    "methodDecoded": true,
                    "operation": "STATICCALL",
                    "output": "0x000000000000000000000000eaaa41cb2a64b11fe761d41e747c032cdd60cace",
                    "revert": false,
                    "revertMessage": "",
                    "selector": "0xf887ea40",
                    "status": true,
                    "value": "0"
                },
                "nodeType": 0
            },
            "11": {
                "invocation": {
                    "address": "0xc02aaa39b223fe8d0a0e5c4f27ead9083c756cc2",
                    "callData": "0x000000000000000000000000eaaa41cb2a64b11fe761d41e747c032cdd60cace00000000000000000000000000000000000000000000000012499b456a3d76db",
                    "decodedMethod": {
                        "callParams": [
                            {
                                "name": "dst",
                                "type": "address",
                                "value": "0xeaaa41cb2a64b11fe761d41e747c032cdd60cace"
                            },
                            {
                                "decimalAvailable": true,
                                "name": "wad",
                                "type": "uint256",
                                "value": "1,317,755,088,420,042,459"
                            }
                        ],
                        "constructorArguments": "",
                        "name": "transfer",
                        "returnParams": [
                            {
                                "name": "",
                                "type": "bool",
                                "value": true
                            }
                        ],
                        "signature": "transfer(address,uint256)"
                    },
                    "errorInfo": "",
                    "fromAddress": "0x970cf9b7346fbaea0588f03356a104100eb675e2",
                    "gasUsed": 29962,
                    "id": 11,
                    "methodDecoded": true,
                    "operation": "CALL",
                    "output": "0x0000000000000000000000000000000000000000000000000000000000000001",
                    "revert": false,
                    "revertMessage": "",
                    "selector": "0xa9059cbb",
                    "status": true,
                    "value": "0"
                },
                "nodeType": 0
            },
            "12": {
                "event": {
                    "contract": "0xc02aaa39b223fe8d0a0e5c4f27ead9083c756cc2",
                    "decodedLog": {
                        "name": "Transfer",
                        "params": [
                            {
                                "name": "src",
                                "type": "address",
                                "value": "0x970cf9b7346fbaea0588f03356a104100eb675e2"
                            },
                            {
                                "name": "dst",
                                "type": "address",
                                "value": "0xeaaa41cb2a64b11fe761d41e747c032cdd60cace"
                            },
                            {
                                "decimalAvailable": true,
                                "name": "wad",
                                "type": "uint256",
                                "value": "1,317,755,088,420,042,459"
                            }
                        ],
                        "signature": "Transfer(address,address,uint256)"
                    },
                    "id": 12,
                    "logData": "0x00000000000000000000000000000000000000000000000012499b456a3d76db",
                    "logDecoded": true,
                    "operation": "EVENT",
                    "revert": false,
                    "status": true,
                    "topics": [
                        "0xddf252ad1be2c89b69c2b068fc378daa952ba7f163c4a11628f55a4df523b3ef",
                        "0x000000000000000000000000970cf9b7346fbaea0588f03356a104100eb675e2",
                        "0x000000000000000000000000eaaa41cb2a64b11fe761d41e747c032cdd60cace"
                    ]
                },
                "nodeType": 1
            },
            "13": {
                "invocation": {
                    "address": "0xc02aaa39b223fe8d0a0e5c4f27ead9083c756cc2",
                    "callData": "0x000000000000000000000000970cf9b7346fbaea0588f03356a104100eb675e2",
                    "decodedMethod": {
                        "callParams": [
                            {
                                "name": "",
                                "type": "address",
                                "value": "0x970cf9b7346fbaea0588f03356a104100eb675e2"
                            }
                        ],
                        "constructorArguments": "",
                        "name": "balanceOf",
                        "returnParams": [
                            {
                                "decimalAvailable": true,
                                "name": "",
                                "type": "uint256",
                                "value": "14,451,738,199,569,343,807"
                            }
                        ],
                        "signature": "balanceOf(address)"
                    },
                    "errorInfo": "",
                    "fromAddress": "0x970cf9b7346fbaea0588f03356a104100eb675e2",
                    "gasUsed": 534,
                    "id": 13,
                    "methodDecoded": true,
                    "operation": "STATICCALL",
                    "output": "0x000000000000000000000000000000000000000000000000c88ee352ec46253f",
                    "revert": false,
                    "revertMessage": "",
                    "selector": "0x70a08231",
                    "status": true,
                    "value": "0"
                },
                "nodeType": 0
            },
            "14": {
                "invocation": {
                    "address": "0xd6175692026bcd7cb12a515e39cf0256ef35cb86",
                    "callData": "0x000000000000000000000000970cf9b7346fbaea0588f03356a104100eb675e2",
                    "decodedMethod": {
                        "callParams": [
                            {
                                "name": "account",
                                "type": "address",
                                "value": "0x970cf9b7346fbaea0588f03356a104100eb675e2"
                            }
                        ],
                        "constructorArguments": "",
                        "name": "balanceOf",
                        "returnParams": [
                            {
                                "decimalAvailable": true,
                                "name": "",
                                "type": "uint256",
                                "value": "47,543,189,029,089,034,921,928,901"
                            }
                        ],
                        "signature": "balanceOf(address)"
                    },
                    "errorInfo": "",
                    "fromAddress": "0x970cf9b7346fbaea0588f03356a104100eb675e2",
                    "gasUsed": 851,
                    "id": 14,
                    "methodDecoded": true,
                    "operation": "STATICCALL",
                    "output": "0x0000000000000000000000000000000000000000002753a9710d7149129568c5",
                    "revert": false,
                    "revertMessage": "",
                    "selector": "0x70a08231",
                    "status": true,
                    "value": "0"
                },
                "nodeType": 0
            },
            "15": {
                "event": {
                    "contract": "0x970cf9b7346fbaea0588f03356a104100eb675e2",
                    "decodedLog": {
                        "name": "Sync",
                        "params": [
                            {
                                "name": "reserve0",
                                "type": "uint112",
                                "value": "14,451,738,199,569,343,807"
                            },
                            {
                                "name": "reserve1",
                                "type": "uint112",
                                "value": "47,543,189,029,089,034,921,928,901"
                            }
                        ],
                        "signature": "Sync(uint112,uint112)"
                    },
                    "id": 15,
                    "logData": "0x000000000000000000000000000000000000000000000000c88ee352ec46253f0000000000000000000000000000000000000000002753a9710d7149129568c5",
                    "logDecoded": true,
                    "operation": "EVENT",
                    "revert": false,
                    "status": true,
                    "topics": [
                        "0x1c411e9a96e071241c2f21f7726b17ae89e3cab4c78be50e062b03a9fffbbad1"
                    ]
                },
                "nodeType": 1
            },
            "16": {
                "event": {
                    "contract": "0x970cf9b7346fbaea0588f03356a104100eb675e2",
                    "decodedLog": {
                        "name": "Swap",
                        "params": [
                            {
                                "name": "sender",
                                "type": "address",
                                "value": "0xeaaa41cb2a64b11fe761d41e747c032cdd60cace"
                            },
                            {
                                "name": "to",
                                "type": "address",
                                "value": "0xeaaa41cb2a64b11fe761d41e747c032cdd60cace"
                            },
                            {
                                "name": "amount0In",
                                "type": "uint256",
                                "value": "0"
                            },
                            {
                                "name": "amount1In",
                                "type": "uint256",
                                "value": "3,972,878,400,000,000,106,954,752"
                            },
                            {
                                "name": "amount0Out",
                                "type": "uint256",
                                "value": "1,317,755,088,420,042,459"
                            },
                            {
                                "name": "amount1Out",
                                "type": "uint256",
                                "value": "0"
                            }
                        ],
                        "signature": "Swap(address,uint256,uint256,uint256,uint256,address)"
                    },
                    "id": 16,
                    "logData": "0x000000000000000000000000000000000000000000000000000000000000000000000000000000000000000000000000000000000003494a2b6be41bc000000000000000000000000000000000000000000000000000000012499b456a3d76db0000000000000000000000000000000000000000000000000000000000000000",
                    "logDecoded": true,
                    "operation": "EVENT",
                    "revert": false,
                    "status": true,
                    "topics": [
                        "0xd78ad95fa46c994b6551d0da85fc275fe613ce37657fb8d5e3d130840159d822",
                        "0x000000000000000000000000eaaa41cb2a64b11fe761d41e747c032cdd60cace",
                        "0x000000000000000000000000eaaa41cb2a64b11fe761d41e747c032cdd60cace"
                    ]
                },
                "nodeType": 1
            },
            "17": {
                "invocation": {
                    "address": "0xc02aaa39b223fe8d0a0e5c4f27ead9083c756cc2",
                    "callData": "0x000000000000000000000000eaaa41cb2a64b11fe761d41e747c032cdd60cace",
                    "decodedMethod": {
                        "callParams": [
                            {
                                "name": "",
                                "type": "address",
                                "value": "0xeaaa41cb2a64b11fe761d41e747c032cdd60cace"
                            }
                        ],
                        "constructorArguments": "",
                        "name": "balanceOf",
                        "returnParams": [
                            {
                                "decimalAvailable": true,
                                "name": "",
                                "type": "uint256",
                                "value": "1,317,755,088,420,042,459"
                            }
                        ],
                        "signature": "balanceOf(address)"
                    },
                    "errorInfo": "",
                    "fromAddress": "0xeaaa41cb2a64b11fe761d41e747c032cdd60cace",
                    "gasUsed": 534,
                    "id": 17,
                    "methodDecoded": true,
                    "operation": "STATICCALL",
                    "output": "0x00000000000000000000000000000000000000000000000012499b456a3d76db",
                    "revert": false,
                    "revertMessage": "",
                    "selector": "0x70a08231",
                    "status": true,
                    "value": "0"
                },
                "nodeType": 0
            },
            "18": {
                "invocation": {
                    "address": "0x5f4ec3df9cbd43714fe2740f5e3616155c5b8419",
                    "callData": "0x",
                    "decodedMethod": {
                        "callParams": [],
                        "constructorArguments": "",
                        "name": "latestRoundData",
                        "returnParams": [
                            {
                                "name": "roundId",
                                "type": "uint80",
                                "value": "110,680,464,442,257,332,250"
                            },
                            {
                                "name": "answer",
                                "type": "int256",
                                "value": "252,141,000,000"
                            },
                            {
                                "name": "startedAt",
                                "type": "uint256",
                                "value": "1,725,299,735"
                            },
                            {
                                "name": "updatedAt",
                                "type": "uint256",
                                "value": "1,725,299,735"
                            },
                            {
                                "name": "answeredInRound",
                                "type": "uint80",
                                "value": "110,680,464,442,257,332,250"
                            }
                        ],
                        "signature": "latestRoundData()"
                    },
                    "errorInfo": "",
                    "fromAddress": "0xeaaa41cb2a64b11fe761d41e747c032cdd60cace",
                    "gasUsed": 3235,
                    "id": 18,
                    "methodDecoded": true,
                    "operation": "STATICCALL",
                    "output": "0x000000000000000000000000000000000000000000000006000000000000581a0000000000000000000000000000000000000000000000000000003ab4c655400000000000000000000000000000000000000000000000000000000066d5fc170000000000000000000000000000000000000000000000000000000066d5fc17000000000000000000000000000000000000000000000006000000000000581a",
                    "revert": false,
                    "revertMessage": "",
                    "selector": "0xfeaf968c",
                    "status": true,
                    "value": "0"
                },
                "nodeType": 0
            },
            "19": {
                "invocation": {
                    "address": "0xe62b71cf983019bff55bc83b48601ce8419650cc",
                    "callData": "0x",
                    "decodedMethod": {
                        "callParams": [],
                        "constructorArguments": "",
                        "name": "latestRoundData",
                        "returnParams": [
                            {
                                "name": "roundId",
                                "type": "uint80",
                                "value": "22,554"
                            },
                            {
                                "name": "answer",
                                "type": "int256",
                                "value": "252,141,000,000"
                            },
                            {
                                "name": "startedAt",
                                "type": "uint256",
                                "value": "1,725,299,735"
                            },
                            {
                                "name": "updatedAt",
                                "type": "uint256",
                                "value": "1,725,299,735"
                            },
                            {
                                "name": "answeredInRound",
                                "type": "uint80",
                                "value": "22,554"
                            }
                        ],
                        "signature": "latestRoundData()"
                    },
                    "errorInfo": "",
                    "fromAddress": "0x5f4ec3df9cbd43714fe2740f5e3616155c5b8419",
                    "gasUsed": 1502,
                    "id": 19,
                    "methodDecoded": true,
                    "operation": "STATICCALL",
                    "output": "0x000000000000000000000000000000000000000000000000000000000000581a0000000000000000000000000000000000000000000000000000003ab4c655400000000000000000000000000000000000000000000000000000000066d5fc170000000000000000000000000000000000000000000000000000000066d5fc17000000000000000000000000000000000000000000000000000000000000581a",
                    "revert": false,
                    "revertMessage": "",
                    "selector": "0xfeaf968c",
                    "status": true,
                    "value": "0"
                },
                "nodeType": 0
            },
            "2": {
                "invocation": {
                    "address": "0x5f4ec3df9cbd43714fe2740f5e3616155c5b8419",
                    "callData": "0x",
                    "decodedMethod": {
                        "callParams": [],
                        "constructorArguments": "",
                        "name": "latestRoundData",
                        "returnParams": [
                            {
                                "name": "roundId",
                                "type": "uint80",
                                "value": "110,680,464,442,257,332,250"
                            },
                            {
                                "name": "answer",
                                "type": "int256",
                                "value": "252,141,000,000"
                            },
                            {
                                "name": "startedAt",
                                "type": "uint256",
                                "value": "1,725,299,735"
                            },
                            {
                                "name": "updatedAt",
                                "type": "uint256",
                                "value": "1,725,299,735"
                            },
                            {
                                "name": "answeredInRound",
                                "type": "uint80",
                                "value": "110,680,464,442,257,332,250"
                            }
                        ],
                        "signature": "latestRoundData()"
                    },
                    "errorInfo": "",
                    "fromAddress": "0xeaaa41cb2a64b11fe761d41e747c032cdd60cace",
                    "gasUsed": 15735,
                    "id": 2,
                    "methodDecoded": true,
                    "operation": "STATICCALL",
                    "output": "0x000000000000000000000000000000000000000000000006000000000000581a0000000000000000000000000000000000000000000000000000003ab4c655400000000000000000000000000000000000000000000000000000000066d5fc170000000000000000000000000000000000000000000000000000000066d5fc17000000000000000000000000000000000000000000000006000000000000581a",
                    "revert": false,
                    "revertMessage": "",
                    "selector": "0xfeaf968c",
                    "status": true,
                    "value": "0"
                },
                "nodeType": 0
            },
            "20": {
                "invocation": {
                    "address": "0xca90d843288e35beeadfce14e5f906e3f1afc7cb",
                    "callData": "0x",
                    "decodedMethod": null,
                    "errorInfo": "",
                    "fromAddress": "0xeaaa41cb2a64b11fe761d41e747c032cdd60cace",
                    "gasUsed": 0,
                    "id": 20,
                    "methodDecoded": false,
                    "operation": "CALL",
                    "output": "",
                    "revert": false,
                    "revertMessage": "",
                    "selector": "fallback",
                    "status": true,
                    "value": "0.000396603487731071"
                },
                "nodeType": 0
            },
            "21": {
                "invocation": {
                    "address": "0x970cf9b7346fbaea0588f03356a104100eb675e2",
                    "callData": "0x",
                    "decodedMethod": {
                        "callParams": [],
                        "constructorArguments": "",
                        "name": "payableProtocol",
                        "returnParams": [
                            {
                                "name": "",
                                "type": "address",
                                "value": "0xd10d570c7cc9a5784ed75c70d134931f27c6c789"
                            }
                        ],
                        "signature": "payableProtocol()"
                    },
                    "errorInfo": "",
                    "fromAddress": "0xeaaa41cb2a64b11fe761d41e747c032cdd60cace",
                    "gasUsed": 2404,
                    "id": 21,
                    "methodDecoded": true,
                    "operation": "STATICCALL",
                    "output": "0x000000000000000000000000d10d570c7cc9a5784ed75c70d134931f27c6c789",
                    "revert": false,
                    "revertMessage": "",
                    "selector": "0xccec72fb",
                    "status": true,
                    "value": "0"
                },
                "nodeType": 0
            },
            "22": {
                "invocation": {
                    "address": "0x970cf9b7346fbaea0588f03356a104100eb675e2",
                    "callData": "0x",
                    "decodedMethod": {
                        "callParams": [],
                        "constructorArguments": "",
                        "name": "sellProtocolFee",
                        "returnParams": [
                            {
                                "name": "",
                                "type": "uint8",
                                "value": "5"
                            }
                        ],
                        "signature": "sellProtocolFee()"
                    },
                    "errorInfo": "",
                    "fromAddress": "0xeaaa41cb2a64b11fe761d41e747c032cdd60cace",
                    "gasUsed": 396,
                    "id": 22,
                    "methodDecoded": true,
                    "operation": "STATICCALL",
                    "output": "0x0000000000000000000000000000000000000000000000000000000000000005",
                    "revert": false,
                    "revertMessage": "",
                    "selector": "0xe2a7797e",
                    "status": true,
                    "value": "0"
                },
                "nodeType": 0
            },
            "23": {
                "invocation": {
                    "address": "0x5f4ec3df9cbd43714fe2740f5e3616155c5b8419",
                    "callData": "0x",
                    "decodedMethod": {
                        "callParams": [],
                        "constructorArguments": "",
                        "name": "latestRoundData",
                        "returnParams": [
                            {
                                "name": "roundId",
                                "type": "uint80",
                                "value": "110,680,464,442,257,332,250"
                            },
                            {
                                "name": "answer",
                                "type": "int256",
                                "value": "252,141,000,000"
                            },
                            {
                                "name": "startedAt",
                                "type": "uint256",
                                "value": "1,725,299,735"
                            },
                            {
                                "name": "updatedAt",
                                "type": "uint256",
                                "value": "1,725,299,735"
                            },
                            {
                                "name": "answeredInRound",
                                "type": "uint80",
                                "value": "110,680,464,442,257,332,250"
                            }
                        ],
                        "signature": "latestRoundData()"
                    },
                    "errorInfo": "",
                    "fromAddress": "0xeaaa41cb2a64b11fe761d41e747c032cdd60cace",
                    "gasUsed": 3235,
                    "id": 23,
                    "methodDecoded": true,
                    "operation": "STATICCALL",
                    "output": "0x000000000000000000000000000000000000000000000006000000000000581a0000000000000000000000000000000000000000000000000000003ab4c655400000000000000000000000000000000000000000000000000000000066d5fc170000000000000000000000000000000000000000000000000000000066d5fc17000000000000000000000000000000000000000000000006000000000000581a",
                    "revert": false,
                    "revertMessage": "",
                    "selector": "0xfeaf968c",
                    "status": true,
                    "value": "0"
                },
                "nodeType": 0
            },
            "24": {
                "invocation": {
                    "address": "0xe62b71cf983019bff55bc83b48601ce8419650cc",
                    "callData": "0x",
                    "decodedMethod": {
                        "callParams": [],
                        "constructorArguments": "",
                        "name": "latestRoundData",
                        "returnParams": [
                            {
                                "name": "roundId",
                                "type": "uint80",
                                "value": "22,554"
                            },
                            {
                                "name": "answer",
                                "type": "int256",
                                "value": "252,141,000,000"
                            },
                            {
                                "name": "startedAt",
                                "type": "uint256",
                                "value": "1,725,299,735"
                            },
                            {
                                "name": "updatedAt",
                                "type": "uint256",
                                "value": "1,725,299,735"
                            },
                            {
                                "name": "answeredInRound",
                                "type": "uint80",
                                "value": "22,554"
                            }
                        ],
                        "signature": "latestRoundData()"
                    },
                    "errorInfo": "",
                    "fromAddress": "0x5f4ec3df9cbd43714fe2740f5e3616155c5b8419",
                    "gasUsed": 1502,
                    "id": 24,
                    "methodDecoded": true,
                    "operation": "STATICCALL",
                    "output": "0x000000000000000000000000000000000000000000000000000000000000581a0000000000000000000000000000000000000000000000000000003ab4c655400000000000000000000000000000000000000000000000000000000066d5fc170000000000000000000000000000000000000000000000000000000066d5fc17000000000000000000000000000000000000000000000000000000000000581a",
                    "revert": false,
                    "revertMessage": "",
                    "selector": "0xfeaf968c",
                    "status": true,
                    "value": "0"
                },
                "nodeType": 0
            },
            "25": {
                "invocation": {
                    "address": "0xd10d570c7cc9a5784ed75c70d134931f27c6c789",
                    "callData": "0x",
                    "decodedMethod": null,
                    "errorInfo": "",
                    "fromAddress": "0xeaaa41cb2a64b11fe761d41e747c032cdd60cace",
                    "gasUsed": 0,
                    "id": 25,
                    "methodDecoded": false,
                    "operation": "CALL",
                    "output": "",
                    "revert": false,
                    "revertMessage": "",
                    "selector": "fallback",
                    "status": true,
                    "value": "0.001983017438655355"
                },
                "nodeType": 0
            },
            "26": {
                "invocation": {
                    "address": "0x970cf9b7346fbaea0588f03356a104100eb675e2",
                    "callData": "0x",
                    "decodedMethod": {
                        "callParams": [],
                        "constructorArguments": "",
                        "name": "sellLpFee",
                        "returnParams": [
                            {
                                "name": "",
                                "type": "uint8",
                                "value": "5"
                            }
                        ],
                        "signature": "sellLpFee()"
                    },
                    "errorInfo": "",
                    "fromAddress": "0xeaaa41cb2a64b11fe761d41e747c032cdd60cace",
                    "gasUsed": 442,
                    "id": 26,
                    "methodDecoded": true,
                    "operation": "STATICCALL",
                    "output": "0x0000000000000000000000000000000000000000000000000000000000000005",
                    "revert": false,
                    "revertMessage": "",
                    "selector": "0xc7b8b46d",
                    "status": true,
                    "value": "0"
                },
                "nodeType": 0
            },
            "27": {
                "invocation": {
                    "address": "0x5f4ec3df9cbd43714fe2740f5e3616155c5b8419",
                    "callData": "0x",
                    "decodedMethod": {
                        "callParams": [],
                        "constructorArguments": "",
                        "name": "latestRoundData",
                        "returnParams": [
                            {
                                "name": "roundId",
                                "type": "uint80",
                                "value": "110,680,464,442,257,332,250"
                            },
                            {
                                "name": "answer",
                                "type": "int256",
                                "value": "252,141,000,000"
                            },
                            {
                                "name": "startedAt",
                                "type": "uint256",
                                "value": "1,725,299,735"
                            },
                            {
                                "name": "updatedAt",
                                "type": "uint256",
                                "value": "1,725,299,735"
                            },
                            {
                                "name": "answeredInRound",
                                "type": "uint80",
                                "value": "110,680,464,442,257,332,250"
                            }
                        ],
                        "signature": "latestRoundData()"
                    },
                    "errorInfo": "",
                    "fromAddress": "0xeaaa41cb2a64b11fe761d41e747c032cdd60cace",
                    "gasUsed": 3235,
                    "id": 27,
                    "methodDecoded": true,
                    "operation": "STATICCALL",
                    "output": "0x000000000000000000000000000000000000000000000006000000000000581a0000000000000000000000000000000000000000000000000000003ab4c655400000000000000000000000000000000000000000000000000000000066d5fc170000000000000000000000000000000000000000000000000000000066d5fc17000000000000000000000000000000000000000000000006000000000000581a",
                    "revert": false,
                    "revertMessage": "",
                    "selector": "0xfeaf968c",
                    "status": true,
                    "value": "0"
                },
                "nodeType": 0
            },
            "28": {
                "invocation": {
                    "address": "0xe62b71cf983019bff55bc83b48601ce8419650cc",
                    "callData": "0x",
                    "decodedMethod": {
                        "callParams": [],
                        "constructorArguments": "",
                        "name": "latestRoundData",
                        "returnParams": [
                            {
                                "name": "roundId",
                                "type": "uint80",
                                "value": "22,554"
                            },
                            {
                                "name": "answer",
                                "type": "int256",
                                "value": "252,141,000,000"
                            },
                            {
                                "name": "startedAt",
                                "type": "uint256",
                                "value": "1,725,299,735"
                            },
                            {
                                "name": "updatedAt",
                                "type": "uint256",
                                "value": "1,725,299,735"
                            },
                            {
                                "name": "answeredInRound",
                                "type": "uint80",
                                "value": "22,554"
                            }
                        ],
                        "signature": "latestRoundData()"
                    },
                    "errorInfo": "",
                    "fromAddress": "0x5f4ec3df9cbd43714fe2740f5e3616155c5b8419",
                    "gasUsed": 1502,
                    "id": 28,
                    "methodDecoded": true,
                    "operation": "STATICCALL",
                    "output": "0x000000000000000000000000000000000000000000000000000000000000581a0000000000000000000000000000000000000000000000000000003ab4c655400000000000000000000000000000000000000000000000000000000066d5fc170000000000000000000000000000000000000000000000000000000066d5fc17000000000000000000000000000000000000000000000000000000000000581a",
                    "revert": false,
                    "revertMessage": "",
                    "selector": "0xfeaf968c",
                    "status": true,
                    "value": "0"
                },
                "nodeType": 0
            },
            "29": {
                "invocation": {
                    "address": "0x970cf9b7346fbaea0588f03356a104100eb675e2",
                    "callData": "0x",
                    "decodedMethod": null,
                    "errorInfo": "",
                    "fromAddress": "0xeaaa41cb2a64b11fe761d41e747c032cdd60cace",
                    "gasUsed": 45045,
                    "id": 29,
                    "methodDecoded": false,
                    "operation": "CALL",
                    "output": "",
                    "revert": false,
                    "revertMessage": "",
                    "selector": "fallback",
                    "status": true,
                    "value": "0.001983017438655355"
                },
                "nodeType": 0
            },
            "3": {
                "invocation": {
                    "address": "0xe62b71cf983019bff55bc83b48601ce8419650cc",
                    "callData": "0x",
                    "decodedMethod": {
                        "callParams": [],
                        "constructorArguments": "",
                        "name": "latestRoundData",
                        "returnParams": [
                            {
                                "name": "roundId",
                                "type": "uint80",
                                "value": "22,554"
                            },
                            {
                                "name": "answer",
                                "type": "int256",
                                "value": "252,141,000,000"
                            },
                            {
                                "name": "startedAt",
                                "type": "uint256",
                                "value": "1,725,299,735"
                            },
                            {
                                "name": "updatedAt",
                                "type": "uint256",
                                "value": "1,725,299,735"
                            },
                            {
                                "name": "answeredInRound",
                                "type": "uint80",
                                "value": "22,554"
                            }
                        ],
                        "signature": "latestRoundData()"
                    },
                    "errorInfo": "",
                    "fromAddress": "0x5f4ec3df9cbd43714fe2740f5e3616155c5b8419",
                    "gasUsed": 7502,
                    "id": 3,
                    "methodDecoded": true,
                    "operation": "STATICCALL",
                    "output": "0x000000000000000000000000000000000000000000000000000000000000581a0000000000000000000000000000000000000000000000000000003ab4c655400000000000000000000000000000000000000000000000000000000066d5fc170000000000000000000000000000000000000000000000000000000066d5fc17000000000000000000000000000000000000000000000000000000000000581a",
                    "revert": false,
                    "revertMessage": "",
                    "selector": "0xfeaf968c",
                    "status": true,
                    "value": "0"
                },
                "nodeType": 0
            },
            "30": {
                "invocation": {
                    "address": "0x9a27cb5ae0b2cee0bb71f9a85c0d60f3920757b4",
                    "callData": "0x",
                    "decodedMethod": {
                        "callParams": [],
                        "constructorArguments": "",
                        "name": "router",
                        "returnParams": [
                            {
                                "name": "",
                                "type": "address",
                                "value": "0xeaaa41cb2a64b11fe761d41e747c032cdd60cace"
                            }
                        ],
                        "signature": "router()"
                    },
                    "errorInfo": "",
                    "fromAddress": "0x970cf9b7346fbaea0588f03356a104100eb675e2",
                    "gasUsed": 425,
                    "id": 30,
                    "methodDecoded": true,
                    "operation": "STATICCALL",
                    "output": "0x000000000000000000000000eaaa41cb2a64b11fe761d41e747c032cdd60cace",
                    "revert": false,
                    "revertMessage": "",
                    "selector": "0xf887ea40",
                    "status": true,
                    "value": "0"
                },
                "nodeType": 0
            },
            "31": {
                "invocation": {
                    "address": "0xc02aaa39b223fe8d0a0e5c4f27ead9083c756cc2",
                    "callData": "0x00000000000000000000000000000000000000000000000012499b456a3d76db",
                    "decodedMethod": {
                        "callParams": [
                            {
                                "name": "wad",
                                "type": "uint256",
                                "value": "1,317,755,088,420,042,459"
                            }
                        ],
                        "constructorArguments": "",
                        "name": "withdraw",
                        "returnParams": [],
                        "signature": "withdraw(uint256)"
                    },
                    "errorInfo": "",
                    "fromAddress": "0xeaaa41cb2a64b11fe761d41e747c032cdd60cace",
                    "gasUsed": 9235,
                    "id": 31,
                    "methodDecoded": true,
                    "operation": "CALL",
                    "output": "",
                    "revert": false,
                    "revertMessage": "",
                    "selector": "0x2e1a7d4d",
                    "status": true,
                    "value": "0"
                },
                "nodeType": 0
            },
            "32": {
                "invocation": {
                    "address": "0xeaaa41cb2a64b11fe761d41e747c032cdd60cace",
                    "callData": "0x",
                    "decodedMethod": null,
                    "errorInfo": "",
                    "fromAddress": "0xc02aaa39b223fe8d0a0e5c4f27ead9083c756cc2",
                    "gasUsed": 95,
                    "id": 32,
                    "methodDecoded": false,
                    "operation": "CALL",
                    "output": "",
                    "revert": false,
                    "revertMessage": "",
                    "selector": "fallback",
                    "status": true,
                    "value": "1.317755088420042459"
                },
                "nodeType": 0
            },
            "33": {
                "event": {
                    "contract": "0xc02aaa39b223fe8d0a0e5c4f27ead9083c756cc2",
                    "decodedLog": {
                        "name": "Withdrawal",
                        "params": [
                            {
                                "name": "src",
                                "type": "address",
                                "value": "0xeaaa41cb2a64b11fe761d41e747c032cdd60cace"
                            },
                            {
                                "name": "wad",
                                "type": "uint256",
                                "value": "1,317,755,088,420,042,459"
                            }
                        ],
                        "signature": "Withdrawal(address,uint256)"
                    },
                    "id": 33,
                    "logData": "0x00000000000000000000000000000000000000000000000012499b456a3d76db",
                    "logDecoded": true,
                    "operation": "EVENT",
                    "revert": false,
                    "status": true,
                    "topics": [
                        "0x7fcf532c15f0a6db0bd6d0e038bea71d30d808c7d98cb3bf7268a95bf5081b65",
                        "0x000000000000000000000000eaaa41cb2a64b11fe761d41e747c032cdd60cace"
                    ]
                },
                "nodeType": 1
            },
            "34": {
                "invocation": {
                    "address": "0x2f617c0faf20ae1ea1eec552f381f63467f30ea8",
                    "callData": "0x",
                    "decodedMethod": null,
                    "errorInfo": "",
                    "fromAddress": "0xeaaa41cb2a64b11fe761d41e747c032cdd60cace",
                    "gasUsed": 0,
                    "id": 34,
                    "methodDecoded": false,
                    "operation": "CALL",
                    "output": "",
                    "revert": false,
                    "revertMessage": "",
                    "selector": "fallback",
                    "status": true,
                    "value": "1.317755088420042459"
                },
                "nodeType": 0
            },
            "4": {
                "invocation": {
                    "address": "0xd6175692026bcd7cb12a515e39cf0256ef35cb86",
                    "callData": "0x0000000000000000000000002f617c0faf20ae1ea1eec552f381f63467f30ea8000000000000000000000000970cf9b7346fbaea0588f03356a104100eb675e200000000000000000000000000000000000000000003494a2b6be41bc0000000",
                    "decodedMethod": {
                        "callParams": [
                            {
                                "name": "from",
                                "type": "address",
                                "value": "0x2f617c0faf20ae1ea1eec552f381f63467f30ea8"
                            },
                            {
                                "name": "to",
                                "type": "address",
                                "value": "0x970cf9b7346fbaea0588f03356a104100eb675e2"
                            },
                            {
                                "decimalAvailable": true,
                                "name": "amount",
                                "type": "uint256",
                                "value": "3,972,878,400,000,000,106,954,752"
                            }
                        ],
                        "constructorArguments": "",
                        "name": "transferFrom",
                        "returnParams": [
                            {
                                "name": "",
                                "type": "bool",
                                "value": true
                            }
                        ],
                        "signature": "transferFrom(address,address,uint256)"
                    },
                    "errorInfo": "",
                    "fromAddress": "0xeaaa41cb2a64b11fe761d41e747c032cdd60cace",
                    "gasUsed": 21390,
                    "id": 4,
                    "methodDecoded": true,
                    "operation": "CALL",
                    "output": "0x0000000000000000000000000000000000000000000000000000000000000001",
                    "revert": false,
                    "revertMessage": "",
                    "selector": "0x23b872dd",
                    "status": true,
                    "value": "0"
                },
                "nodeType": 0
            },
            "5": {
                "event": {
                    "contract": "0xd6175692026bcd7cb12a515e39cf0256ef35cb86",
                    "decodedLog": {
                        "name": "Approval",
                        "params": [
                            {
                                "name": "owner",
                                "type": "address",
                                "value": "0x2f617c0faf20ae1ea1eec552f381f63467f30ea8"
                            },
                            {
                                "name": "spender",
                                "type": "address",
                                "value": "0xeaaa41cb2a64b11fe761d41e747c032cdd60cace"
                            },
                            {
                                "decimalAvailable": true,
                                "name": "value",
                                "type": "uint256",
                                "value": "1,383,319,603,821,848"
                            }
                        ],
                        "signature": "Approval(address,address,uint256)"
                    },
                    "id": 5,
                    "logData": "0x0000000000000000000000000000000000000000000000000004ea1f3198bd18",
                    "logDecoded": true,
                    "operation": "EVENT",
                    "revert": false,
                    "status": true,
                    "topics": [
                        "0x8c5be1e5ebec7d5bd14f71427d1e84f3dd0314c0f7b2291e5b200ac8c7c3b925",
                        "0x0000000000000000000000002f617c0faf20ae1ea1eec552f381f63467f30ea8",
                        "0x000000000000000000000000eaaa41cb2a64b11fe761d41e747c032cdd60cace"
                    ]
                },
                "nodeType": 1
            },
            "6": {
                "event": {
                    "contract": "0xd6175692026bcd7cb12a515e39cf0256ef35cb86",
                    "decodedLog": {
                        "name": "Transfer",
                        "params": [
                            {
                                "name": "from",
                                "type": "address",
                                "value": "0x2f617c0faf20ae1ea1eec552f381f63467f30ea8"
                            },
                            {
                                "name": "to",
                                "type": "address",
                                "value": "0x970cf9b7346fbaea0588f03356a104100eb675e2"
                            },
                            {
                                "decimalAvailable": true,
                                "name": "value",
                                "type": "uint256",
                                "value": "3,972,878,400,000,000,106,954,752"
                            }
                        ],
                        "signature": "Transfer(address,address,uint256)"
                    },
                    "id": 6,
                    "logData": "0x00000000000000000000000000000000000000000003494a2b6be41bc0000000",
                    "logDecoded": true,
                    "operation": "EVENT",
                    "revert": false,
                    "status": true,
                    "topics": [
                        "0xddf252ad1be2c89b69c2b068fc378daa952ba7f163c4a11628f55a4df523b3ef",
                        "0x0000000000000000000000002f617c0faf20ae1ea1eec552f381f63467f30ea8",
                        "0x000000000000000000000000970cf9b7346fbaea0588f03356a104100eb675e2"
                    ]
                },
                "nodeType": 1
            },
            "7": {
                "invocation": {
                    "address": "0x970cf9b7346fbaea0588f03356a104100eb675e2",
                    "callData": "0x",
                    "decodedMethod": {
                        "callParams": [],
                        "constructorArguments": "",
                        "name": "getReserves",
                        "returnParams": [
                            {
                                "name": "_reserve0",
                                "type": "uint112",
                                "value": "15,769,493,287,989,386,266"
                            },
                            {
                                "name": "_reserve1",
                                "type": "uint112",
                                "value": "43,570,310,629,089,034,814,974,149"
                            },
                            {
                                "name": "_blockTimestampLast",
                                "type": "uint32",
                                "value": "1,725,301,571"
                            }
                        ],
                        "signature": "getReserves()"
                    },
                    "errorInfo": "",
                    "fromAddress": "0xeaaa41cb2a64b11fe761d41e747c032cdd60cace",
                    "gasUsed": 2562,
                    "id": 7,
                    "methodDecoded": true,
                    "operation": "STATICCALL",
                    "output": "0x000000000000000000000000000000000000000000000000dad87e9856839c1a000000000000000000000000000000000000000000240a5f45a18d2d529568c50000000000000000000000000000000000000000000000000000000066d60343",
                    "revert": false,
                    "revertMessage": "",
                    "selector": "0x0902f1ac",
                    "status": true,
                    "value": "0"
                },
                "nodeType": 0
            },
            "8": {
                "invocation": {
                    "address": "0xd6175692026bcd7cb12a515e39cf0256ef35cb86",
                    "callData": "0x000000000000000000000000970cf9b7346fbaea0588f03356a104100eb675e2",
                    "decodedMethod": {
                        "callParams": [
                            {
                                "name": "account",
                                "type": "address",
                                "value": "0x970cf9b7346fbaea0588f03356a104100eb675e2"
                            }
                        ],
                        "constructorArguments": "",
                        "name": "balanceOf",
                        "returnParams": [
                            {
                                "decimalAvailable": true,
                                "name": "",
                                "type": "uint256",
                                "value": "47,543,189,029,089,034,921,928,901"
                            }
                        ],
                        "signature": "balanceOf(address)"
                    },
                    "errorInfo": "",
                    "fromAddress": "0xeaaa41cb2a64b11fe761d41e747c032cdd60cace",
                    "gasUsed": 851,
                    "id": 8,
                    "methodDecoded": true,
                    "operation": "STATICCALL",
                    "output": "0x0000000000000000000000000000000000000000002753a9710d7149129568c5",
                    "revert": false,
                    "revertMessage": "",
                    "selector": "0x70a08231",
                    "status": true,
                    "value": "0"
                },
                "nodeType": 0
            },
            "9": {
                "invocation": {
                    "address": "0x970cf9b7346fbaea0588f03356a104100eb675e2",
                    "callData": "0x00000000000000000000000000000000000000000000000012499b456a3d76db0000000000000000000000000000000000000000000000000000000000000000000000000000000000000000eaaa41cb2a64b11fe761d41e747c032cdd60cace00000000000000000000000000000000000000000000000000000000000000800000000000000000000000000000000000000000000000000000000000000000",
                    "decodedMethod": {
                        "callParams": [
                            {
                                "name": "amount0Out",
                                "type": "uint256",
                                "value": "1,317,755,088,420,042,459"
                            },
                            {
                                "name": "amount1Out",
                                "type": "uint256",
                                "value": "0"
                            },
                            {
                                "name": "to",
                                "type": "address",
                                "value": "0xeaaa41cb2a64b11fe761d41e747c032cdd60cace"
                            },
                            {
                                "name": "data",
                                "type": "bytes",
                                "value": "0x"
                            }
                        ],
                        "constructorArguments": "",
                        "name": "swap",
                        "returnParams": [],
                        "signature": "swap(uint256,uint256,address,bytes)"
                    },
                    "errorInfo": "",
                    "fromAddress": "0xeaaa41cb2a64b11fe761d41e747c032cdd60cace",
                    "gasUsed": 59670,
                    "id": 9,
                    "methodDecoded": true,
                    "operation": "CALL",
                    "output": "",
                    "revert": false,
                    "revertMessage": "",
                    "selector": "0x022c0d9f",
                    "status": true,
                    "value": "0"
                },
                "nodeType": 0
            }
        },
        "gasFlame": [
            {
                "children": [
                    {
                        "children": [
                            {
                                "children": [],
                                "depth": 0,
                                "name": "Initial Gas",
                                "value": 23060
                            },
                            {
                                "children": [
                                    {
                                        "children": [],
                                        "depth": 1,
                                        "name": "sellTotalFee",
                                        "value": 2422
                                    },
                                    {
                                        "children": [
                                            {
                                                "children": [],
                                                "depth": 2,
                                                "name": "latestRoundData",
                                                "value": 7502
                                            }
                                        ],
                                        "depth": 1,
                                        "name": "latestRoundData",
                                        "value": 15735
                                    },
                                    {
                                        "children": [],
                                        "depth": 1,
                                        "name": "transferFrom",
                                        "value": 21390
                                    },
                                    {
                                        "children": [],
                                        "depth": 1,
                                        "name": "getReserves",
                                        "value": 2562
                                    },
                                    {
                                        "children": [],
                                        "depth": 1,
                                        "name": "balanceOf",
                                        "value": 851
                                    },
                                    {
                                        "children": [
                                            {
                                                "children": [],
                                                "depth": 2,
                                                "name": "router",
                                                "value": 2425
                                            },
                                            {
                                                "children": [],
                                                "depth": 2,
                                                "name": "transfer",
                                                "value": 29962
                                            },
                                            {
                                                "children": [],
                                                "depth": 2,
                                                "name": "balanceOf",
                                                "value": 534
                                            },
                                            {
                                                "children": [],
                                                "depth": 2,
                                                "name": "balanceOf",
                                                "value": 851
                                            }
                                        ],
                                        "depth": 1,
                                        "name": "swap",
                                        "value": 59670
                                    },
                                    {
                                        "children": [],
                                        "depth": 1,
                                        "name": "balanceOf",
                                        "value": 534
                                    },
                                    {
                                        "children": [
                                            {
                                                "children": [],
                                                "depth": 2,
                                                "name": "latestRoundData",
                                                "value": 1502
                                            }
                                        ],
                                        "depth": 1,
                                        "name": "latestRoundData",
                                        "value": 3235
                                    },
                                    {
                                        "children": [],
                                        "depth": 1,
                                        "name": "fallback",
                                        "value": 0
                                    },
                                    {
                                        "children": [],
                                        "depth": 1,
                                        "name": "payableProtocol",
                                        "value": 2404
                                    },
                                    {
                                        "children": [],
                                        "depth": 1,
                                        "name": "sellProtocolFee",
                                        "value": 396
                                    },
                                    {
                                        "children": [
                                            {
                                                "children": [],
                                                "depth": 2,
                                                "name": "latestRoundData",
                                                "value": 1502
                                            }
                                        ],
                                        "depth": 1,
                                        "name": "latestRoundData",
                                        "value": 3235
                                    },
                                    {
                                        "children": [],
                                        "depth": 1,
                                        "name": "fallback",
                                        "value": 0
                                    },
                                    {
                                        "children": [],
                                        "depth": 1,
                                        "name": "sellLpFee",
                                        "value": 442
                                    },
                                    {
                                        "children": [
                                            {
                                                "children": [],
                                                "depth": 2,
                                                "name": "latestRoundData",
                                                "value": 1502
                                            }
                                        ],
                                        "depth": 1,
                                        "name": "latestRoundData",
                                        "value": 3235
                                    },
                                    {
                                        "children": [
                                            {
                                                "children": [],
                                                "depth": 2,
                                                "name": "router",
                                                "value": 425
                                            }
                                        ],
                                        "depth": 1,
                                        "name": "fallback",
                                        "value": 45045
                                    },
                                    {
                                        "children": [
                                            {
                                                "children": [],
                                                "depth": 2,
                                                "name": "fallback",
                                                "value": 95
                                            }
                                        ],
                                        "depth": 1,
                                        "name": "withdraw",
                                        "value": 9235
                                    },
                                    {
                                        "children": [],
                                        "depth": 1,
                                        "name": "fallback",
                                        "value": 0
                                    }
                                ],
                                "depth": 0,
                                "name": "Executed Gas",
                                "value": 229372
                            }
                        ],
                        "depth": -1,
                        "name": "Actual Gas Used",
                        "value": 229732
                    },
                    {
                        "children": [],
                        "depth": -1,
                        "name": "Refunded Gas",
                        "value": 22700
                    }
                ],
                "depth": -2,
                "name": "Total Gas",
                "value": 252432
            }
        ],
        "isConfirmed": true,
        "mainTrace": [
            {
                "children": [
                    {
                        "children": [
                            {
                                "children": [],
                                "depth": 1,
                                "id": 1,
                                "order": 1
                            },
                            {
                                "children": [
                                    {
                                        "children": [],
                                        "depth": 2,
                                        "id": 3,
                                        "order": 3
                                    }
                                ],
                                "depth": 1,
                                "id": 2,
                                "order": 2
                            },
                            {
                                "children": [
                                    {
                                        "children": [],
                                        "depth": 2,
                                        "id": 5,
                                        "order": 5
                                    },
                                    {
                                        "children": [],
                                        "depth": 2,
                                        "id": 6,
                                        "order": 6
                                    }
                                ],
                                "depth": 1,
                                "id": 4,
                                "order": 4
                            },
                            {
                                "children": [],
                                "depth": 1,
                                "id": 7,
                                "order": 7
                            },
                            {
                                "children": [],
                                "depth": 1,
                                "id": 8,
                                "order": 8
                            },
                            {
                                "children": [
                                    {
                                        "children": [],
                                        "depth": 2,
                                        "id": 10,
                                        "order": 10
                                    },
                                    {
                                        "children": [
                                            {
                                                "children": [],
                                                "depth": 3,
                                                "id": 12,
                                                "order": 12
                                            }
                                        ],
                                        "depth": 2,
                                        "id": 11,
                                        "order": 11
                                    },
                                    {
                                        "children": [],
                                        "depth": 2,
                                        "id": 13,
                                        "order": 13
                                    },
                                    {
                                        "children": [],
                                        "depth": 2,
                                        "id": 14,
                                        "order": 14
                                    },
                                    {
                                        "children": [],
                                        "depth": 2,
                                        "id": 15,
                                        "order": 15
                                    },
                                    {
                                        "children": [],
                                        "depth": 2,
                                        "id": 16,
                                        "order": 16
                                    }
                                ],
                                "depth": 1,
                                "id": 9,
                                "order": 9
                            },
                            {
                                "children": [],
                                "depth": 1,
                                "id": 17,
                                "order": 17
                            },
                            {
                                "children": [
                                    {
                                        "children": [],
                                        "depth": 2,
                                        "id": 19,
                                        "order": 19
                                    }
                                ],
                                "depth": 1,
                                "id": 18,
                                "order": 18
                            },
                            {
                                "children": [],
                                "depth": 1,
                                "id": 20,
                                "order": 20
                            },
                            {
                                "children": [],
                                "depth": 1,
                                "id": 21,
                                "order": 21
                            },
                            {
                                "children": [],
                                "depth": 1,
                                "id": 22,
                                "order": 22
                            },
                            {
                                "children": [
                                    {
                                        "children": [],
                                        "depth": 2,
                                        "id": 24,
                                        "order": 24
                                    }
                                ],
                                "depth": 1,
                                "id": 23,
                                "order": 23
                            },
                            {
                                "children": [],
                                "depth": 1,
                                "id": 25,
                                "order": 25
                            },
                            {
                                "children": [],
                                "depth": 1,
                                "id": 26,
                                "order": 26
                            },
                            {
                                "children": [
                                    {
                                        "children": [],
                                        "depth": 2,
                                        "id": 28,
                                        "order": 28
                                    }
                                ],
                                "depth": 1,
                                "id": 27,
                                "order": 27
                            },
                            {
                                "children": [
                                    {
                                        "children": [],
                                        "depth": 2,
                                        "id": 30,
                                        "order": 30
                                    }
                                ],
                                "depth": 1,
                                "id": 29,
                                "order": 29
                            },
                            {
                                "children": [
                                    {
                                        "children": [],
                                        "depth": 2,
                                        "id": 32,
                                        "order": 32
                                    },
                                    {
                                        "children": [],
                                        "depth": 2,
                                        "id": 33,
                                        "order": 33
                                    }
                                ],
                                "depth": 1,
                                "id": 31,
                                "order": 31
                            },
                            {
                                "children": [],
                                "depth": 1,
                                "id": 34,
                                "order": 34
                            }
                        ],
                        "depth": 0,
                        "id": 0,
                        "order": 0
                    }
                ],
                "depth": -1,
                "id": -1,
                "order": -1
            }
        ],
        "mainTraceNodeCount": 35,
        "parentIdMap": {
            "0": -1,
            "1": 0,
            "10": 9,
            "11": 9,
            "12": 11,
            "13": 9,
            "14": 9,
            "15": 9,
            "16": 9,
            "17": 0,
            "18": 0,
            "19": 18,
            "2": 0,
            "20": 0,
            "21": 0,
            "22": 0,
            "23": 0,
            "24": 23,
            "25": 0,
            "26": 0,
            "27": 0,
            "28": 27,
            "29": 0,
            "3": 2,
            "30": 29,
            "31": 0,
            "32": 31,
            "33": 31,
            "34": 0,
            "4": 0,
            "5": 4,
            "6": 4,
            "7": 0,
            "8": 0,
            "9": 0
        },
        "tidyTrace": [
            {
                "children": [
                    {
                        "children": [
                            {
                                "children": [
                                    {
                                        "children": [],
                                        "depth": 2,
                                        "id": 5,
                                        "order": 5
                                    },
                                    {
                                        "children": [],
                                        "depth": 2,
                                        "id": 6,
                                        "order": 6
                                    }
                                ],
                                "depth": 1,
                                "id": 4,
                                "order": 4
                            },
                            {
                                "children": [
                                    {
                                        "children": [
                                            {
                                                "children": [],
                                                "depth": 3,
                                                "id": 12,
                                                "order": 12
                                            }
                                        ],
                                        "depth": 2,
                                        "id": 11,
                                        "order": 11
                                    },
                                    {
                                        "children": [],
                                        "depth": 2,
                                        "id": 15,
                                        "order": 15
                                    },
                                    {
                                        "children": [],
                                        "depth": 2,
                                        "id": 16,
                                        "order": 16
                                    }
                                ],
                                "depth": 1,
                                "id": 9,
                                "order": 9
                            },
                            {
                                "children": [],
                                "depth": 1,
                                "id": 20,
                                "order": 20
                            },
                            {
                                "children": [],
                                "depth": 1,
                                "id": 25,
                                "order": 25
                            },
                            {
                                "children": [],
                                "depth": 1,
                                "id": 29,
                                "order": 29
                            },
                            {
                                "children": [
                                    {
                                        "children": [],
                                        "depth": 2,
                                        "id": 32,
                                        "order": 32
                                    },
                                    {
                                        "children": [],
                                        "depth": 2,
                                        "id": 33,
                                        "order": 33
                                    }
                                ],
                                "depth": 1,
                                "id": 31,
                                "order": 31
                            },
                            {
                                "children": [],
                                "depth": 1,
                                "id": 34,
                                "order": 34
                            }
                        ],
                        "depth": 0,
                        "id": 0,
                        "order": 0
                    }
                ],
                "depth": -1,
                "id": -1,
                "order": -1
            }
        ],
        "tidyTraceNodeCount": 16
    },
    "state_change": {
        "stateChanges": [
            {
                "address": "0x970cf9b7346fbaea0588f03356a104100eb675e2",
                "erc": "ERC-20",
                "slots": [
                    {
                        "current": "0x00000000000000000000000000000000000000000000000050bfc55f2b8746c5",
                        "key": "0x000000000000000000000000000000000000000000000000000000000000000c",
                        "prev": "0x00000000000000000000000000000000000000000000000050b8b9d3f183934a"
                    },
                    {
                        "current": "0x0000000000000000000000000000000000000000000000000000000000000b59",
                        "key": "0x0000000000000000000000000000000000000000000000000000000000000018",
                        "prev": "0x0000000000000000000000000000000000000000000000000000000000000b58"
                    },
                    {
                        "current": "0x000000000000000000000000000000000000000000000000007ab437408e2701",
                        "key": "0xb13d2d76d1f4b7be834882e410b3e3a8afaf69f83600ae24db354391d2379886",
                        "prev": "0x0000000000000000000000000000000000000000000000000000000000000000"
                    },
                    {
                        "current": "0x66d603430000002753a9710d7149129568c5000000000000c88ee352ec46253f",
                        "key": "0x000000000000000000000000000000000000000000000000000000000000001a",
                        "prev": "0x66d60343000000240a5f45a18d2d529568c5000000000000dad87e9856839c1a"
                    },
                    {
                        "current": "0x00000000000000000000000000000000000000000000000008132c93f1ae0168",
                        "key": "0x000000000000000000000000000000000000000000000000000000000000000d",
                        "prev": "0x000000000000000000000000000000000000000000000000080c2108b7aa4ded"
                    }
                ],
                "storageVariables": [
                    {
                        "name": "poolBalance",
                        "type": "uint256",
                        "value": {
                            "current": "581857790787453288",
                            "prev": "579874773348797933",
                            "typeTag": 1
                        }
                    },
                    {
                        "name": "totalCollected",
                        "type": "uint256",
                        "value": {
                            "current": "5818586256128820933",
                            "prev": "5816603238690165578",
                            "typeTag": 1
                        }
                    },
                    {
                        "name": "euler",
                        "type": "uint256[]",
                        "value": {
                            "elemType": "uint256",
                            "elems": [
                                {
                                    "index": 2904,
                                    "value": {
                                        "current": "34538096557958913",
                                        "prev": "0",
                                        "typeTag": 1
                                    }
                                }
                            ],
                            "typeTag": 2
                        }
                    },
                    {
                        "name": "reserve0",
                        "type": "uint112",
                        "value": {
                            "current": "14451738199569343807",
                            "prev": "15769493287989386266",
                            "typeTag": 1
                        }
                    },
                    {
                        "name": "reserve1",
                        "type": "uint112",
                        "value": {
                            "current": "47543189029089034921928901",
                            "prev": "43570310629089034814974149",
                            "typeTag": 1
                        }
                    },
                    {
                        "name": "blockTimestampLast",
                        "type": "uint32",
                        "value": {
                            "current": "1725301571",
                            "prev": "1725301571",
                            "typeTag": 1
                        }
                    }
                ]
            },
            {
                "address": "0xc02aaa39b223fe8d0a0e5c4f27ead9083c756cc2",
                "erc": "ERC-20",
                "slots": [
                    {
                        "current": "0x000000000000000000000000000000000000000000000000c88ee352ec46253f",
                        "key": "0x3b8acf36155407a4bc3899fb270ffbb368e38481fa882afd7600cc4111c04f30",
                        "prev": "0x000000000000000000000000000000000000000000000000dad87e9856839c1a"
                    }
                ],
                "storageVariables": [
                    {
                        "name": "balanceOf",
                        "type": "mapping(address => uint256)",
                        "value": {
                            "pairs": [
                                {
                                    "key": "0x970cf9b7346fbaea0588f03356a104100eb675e2",
                                    "value": {
                                        "current": "14451738199569343807",
                                        "prev": "15769493287989386266",
                                        "typeTag": 1
                                    }
                                }
                            ],
                            "typeTag": 4
                        }
                    }
                ]
            },
            {
                "address": "0xd6175692026bcd7cb12a515e39cf0256ef35cb86",
                "erc": "ERC-20",
                "slots": [
                    {
                        "current": "0x0000000000000000000000000000000000000000000000000004ea1f3198bd18",
                        "key": "0xfe1c7801bfa7c00dc41dd0621df393d78c56f1d1b18db2d8052228177496b484",
                        "prev": "0x00000000000000000000000000000000000000000003494a2b70ce3af198bd18"
                    },
                    {
                        "current": "0x00000000000000000000000000000000000000000000000000163e68577e60f1",
                        "key": "0x6f6e743ef0f99f330b1a8db20f3afacd9d14387b3abdfeb8befd53699dd3fcc4",
                        "prev": "0x00000000000000000000000000000000000000000003494a2b822284177e60f1"
                    },
                    {
                        "current": "0x0000000000000000000000000000000000000000002753a9710d7149129568c5",
                        "key": "0x19ee88b984b66bf5ab9e442bd50b98b30c9a94652e69abd9ee0f071670827d0a",
                        "prev": "0x000000000000000000000000000000000000000000240a5f45a18d2d529568c5"
                    }
                ],
                "storageVariables": [
                    {
                        "name": "_allowances",
                        "type": "mapping(address => mapping(address => uint256))",
                        "value": {
                            "pairs": [
                                {
                                    "key": "0x2f617c0faf20ae1ea1eec552f381f63467f30ea8",
                                    "value": {
                                        "pairs": [
                                            {
                                                "key": "0xeaaa41cb2a64b11fe761d41e747c032cdd60cace",
                                                "value": {
                                                    "current": "1383319603821848",
                                                    "prev": "3972878401383319710776600",
                                                    "typeTag": 1
                                                }
                                            }
                                        ],
                                        "typeTag": 4
                                    }
                                }
                            ],
                            "typeTag": 4
                        }
                    },
                    {
                        "name": "_balances",
                        "type": "mapping(address => uint256)",
                        "value": {
                            "pairs": [
                                {
                                    "key": "0x2f617c0faf20ae1ea1eec552f381f63467f30ea8",
                                    "value": {
                                        "current": "6261067353055473",
                                        "prev": "3972878406261067460010225",
                                        "typeTag": 1
                                    }
                                },
                                {
                                    "key": "0x970cf9b7346fbaea0588f03356a104100eb675e2",
                                    "value": {
                                        "current": "47543189029089034921928901",
                                        "prev": "43570310629089034814974149",
                                        "typeTag": 1
                                    }
                                }
                            ],
                            "typeTag": 4
                        }
                    }
                ]
            }
        ]
    }
}