{
    "balance_change": {
        "balanceChanges": []
    },
    "profile": {
        "basic_info": {
            "baseFee": "",
            "blockNumber": 8182590,
            "callData": "0xdb45a30f000000000000000000000000000000000000000000000000000000000001236f",
            "debugEnable": true,
            "errorInfo": "execution reverted",
            "eventCount": 0,
            "feeRecipient": "0x5a0b54d5dc17e0aadc383d2db43b0a0d3e029c4c",
            "formatValue": "0",
            "gasLimit": 420111,
            "gasPrice": "1.011",
            "gasUsed": 33760,
            "intTxnCount": 5,
            "internalRevert": true,
            "internalRevertMessage": "",
            "isContractCreation": false,
            "isFlashloan": false,
            "maxFee": "",
            "nonce": 1245,
            "overwritedBlockNumber": -1,
            "priorityFee": "",
            "receiver": "0x137ce274199a106b1aa3036241d6757c06968c21",
            "revertMessage": "",
            "sender": "0x747dbfbcfb74fd5fc115896c758a2fdff581c702",
            "simulationEnable": true,
            "sourceTxnHash": "0xc1ff72a6e10e3555c8515106850320bf5c40b0ea8276e42dec6f4c096fd35bc9",
            "status": false,
            "timestamp": "2019-07-19T18:10:55Z",
            "transactionFee": "0.00003413136",
            "txnHash": "0xc1ff72a6e10e3555c8515106850320bf5c40b0ea8276e42dec6f4c096fd35bc9",
            "txnIndex": 99,
            "type": 0,
            "value": "0"
        },
        "fund_flow": [],
        "token_infos": [
            {
                "address": "0xc02aaa39b223fe8d0a0e5c4f27ead9083c756cc2",
                "decimals": 18
            },
            {
                "address": "0xeeeeeeeeeeeeeeeeeeeeeeeeeeeeeeeeeeeeeeee",
                "decimals": 18
            }
        ]
    },
    "address_label": {
        "labels": [
            {
                "address": "0xe658e6eb4b478da2cf36d9e3712ba0c1b33786a1",
                "label": "0xUniverse: Contract 3"
            },
            {
                "address": "0x137ce274199a106b1aa3036241d6757c06968c21",
                "label": "CORP1"
            },
            {
                "address": "0x0000000000000000000000000000000000000001",
                "label": "Precompiled"
            },
            {
                "address": "0x0000000000000000000000000000000000000002",
                "label": "Precompiled"
            },
            {
                "address": "0x0000000000000000000000000000000000000003",
                "label": "Precompiled"
            },
            {
                "address": "0x0000000000000000000000000000000000000004",
                "label": "Precompiled"
            },
            {
                "address": "0xeeeeeeeeeeeeeeeeeeeeeeeeeeeeeeeeeeeeeeee",
                "label": "Ether"
            }
        ]
    },
    "trace": {
        "accountLabels": null,
        "dataMap": {
            "-1": {
                "invocation": {
                    "address": "0x747dbfbcfb74fd5fc115896c758a2fdff581c702",
                    "callData": "",
                    "decodedMethod": null,
                    "errorInfo": "",
                    "fromAddress": "",
                    "gasUsed": 0,
                    "id": -1,
                    "methodDecoded": false,
                    "operation": "",
                    "output": "",
                    "revert": false,
                    "revertMessage": "",
                    "selector": "",
                    "status": false,
                    "value": ""
                },
                "nodeType": 0
            },
            "0": {
                "invocation": {
                    "address": "0x137ce274199a106b1aa3036241d6757c06968c21",
                    "callData": "0x000000000000000000000000000000000000000000000000000000000001236f",
                    "decodedMethod": {
                        "callParams": [
                            {
                                "name": "_index",
                                "type": "uint256",
                                "value": "74,607"
                            }
                        ],
                        "constructorArguments": "",
                        "name": "buyPlanet",
                        "returnParams": [],
                        "signature": "buyPlanet(uint256)"
                    },
                    "errorInfo": "execution reverted",
                    "fromAddress": "0x747dbfbcfb74fd5fc115896c758a2fdff581c702",
                    "gasUsed": 33760,
                    "id": 0,
                    "methodDecoded": true,
                    "operation": "CALL",
                    "output": "",
                    "revert": true,
                    "revertMessage": "",
                    "selector": "0xdb45a30f",
                    "status": false,
                    "value": "0"
                },
                "nodeType": 0
            },
            "1": {
                "invocation": {
                    "address": "0x6e8ceb6875b581ee4ab4ca384f181d8d681596b8",
                    "callData": "0x000000000000000000000000000000000000000000000000000000000001236f",
                    "decodedMethod": {
                        "callParams": [
                            {
                                "name": "_index",
                                "type": "uint256",
                                "value": "74,607"
                            }
                        ],
                        "constructorArguments": "",
                        "name": "buyPlanet",
                        "returnParams": [],
                        "signature": "buyPlanet(uint256)"
                    },
                    "errorInfo": "execution reverted",
                    "fromAddress": "0x137ce274199a106b1aa3036241d6757c06968c21",
                    "gasUsed": 10591,
                    "id": 1,
                    "methodDecoded": true,
                    "operation": "DELEGATECALL",
                    "output": "",
                    "revert": true,
                    "revertMessage": "",
                    "selector": "0xdb45a30f",
                    "status": false,
                    "value": "0"
                },
                "nodeType": 0
            },
            "2": {
                "invocation": {
                    "address": "0x56d6d11df2aa6a0dbc5569a56c9299fcdb418911",
                    "callData": "0x",
                    "decodedMethod": null,
                    "errorInfo": "",
                    "fromAddress": "0x137ce274199a106b1aa3036241d6757c06968c21",
                    "gasUsed": 4657,
                    "id": 2,
                    "methodDecoded": false,
                    "operation": "CALL",
                    "output": "0x000000000000000000000000e658e6eb4b478da2cf36d9e3712ba0c1b33786a1",
                    "revert": true,
                    "revertMessage": "",
                    "selector": "0x6630f609",
                    "status": true,
                    "value": "0"
                },
                "nodeType": 0
            },
            "3": {
                "invocation": {
                    "address": "0x8e031ccd35cb066527fb85439da06761d455bf6b",
                    "callData": "0x",
                    "decodedMethod": null,
                    "errorInfo": "",
                    "fromAddress": "0x56d6d11df2aa6a0dbc5569a56c9299fcdb418911",
                    "gasUsed": 3081,
                    "id": 3,
                    "methodDecoded": false,
                    "operation": "DELEGATECALL",
                    "output": "0x000000000000000000000000e658e6eb4b478da2cf36d9e3712ba0c1b33786a1",
                    "revert": true,
                    "revertMessage": "",
                    "selector": "0x6630f609",
                    "status": true,
                    "value": "0"
                },
                "nodeType": 0
            },
            "4": {
                "invocation": {
                    "address": "0x369fb9d636399fe26ec14a44e4167cb694ed766d",
                    "callData": "0x",
                    "decodedMethod": null,
                    "errorInfo": "",
                    "fromAddress": "0x56d6d11df2aa6a0dbc5569a56c9299fcdb418911",
                    "gasUsed": 776,
                    "id": 4,
                    "methodDecoded": false,
                    "operation": "CALL",
                    "output": "0x000000000000000000000000e658e6eb4b478da2cf36d9e3712ba0c1b33786a1",
                    "revert": true,
                    "revertMessage": "",
                    "selector": "0x6630f609",
                    "status": true,
                    "value": "0"
                },
                "nodeType": 0
            },
            "5": {
                "invocation": {
                    "address": "0xe658e6eb4b478da2cf36d9e3712ba0c1b33786a1",
                    "callData": "0x000000000000000000000000000000000000000000000000000000000001236f",
                    "decodedMethod": {
                        "callParams": [
                            {
                                "name": "_tokenId",
                                "type": "uint256",
                                "value": "74,607"
                            }
                        ],
                        "constructorArguments": "",
                        "name": "getCurrentPrice",
                        "returnParams": [],
                        "signature": "getCurrentPrice(uint256)"
                    },
                    "errorInfo": "execution reverted",
                    "fromAddress": "0x137ce274199a106b1aa3036241d6757c06968c21",
                    "gasUsed": 1011,
                    "id": 5,
                    "methodDecoded": true,
                    "operation": "CALL",
                    "output": "",
                    "revert": true,
                    "revertMessage": "",
                    "selector": "0xc55d0f56",
                    "status": false,
                    "value": "0"
                },
                "nodeType": 0
            }
        },
        "gasFlame": [
            {
                "children": [
                    {
                        "children": [
                            {
                                "children": [],
                                "depth": 0,
                                "name": "Initial Gas",
                                "value": 21592
                            },
                            {
                                "children": [
                                    {
                                        "children": [
                                            {
                                                "children": [
                                                    {
                                                        "children": [
                                                            {
                                                                "children": [],
                                                                "depth": 4,
                                                                "name": "0x6630f609",
                                                                "value": 776
                                                            }
                                                        ],
                                                        "depth": 3,
                                                        "name": "0x6630f609",
                                                        "value": 3081
                                                    }
                                                ],
                                                "depth": 2,
                                                "name": "0x6630f609",
                                                "value": 4657
                                            },
                                            {
                                                "children": [],
                                                "depth": 2,
                                                "name": "getCurrentPrice",
                                                "value": 1011
                                            }
                                        ],
                                        "depth": 1,
                                        "name": "buyPlanet",
                                        "value": 10591
                                    }
                                ],
                                "depth": 0,
                                "name": "Executed Gas",
                                "value": 12168
                            }
                        ],
                        "depth": -1,
                        "name": "Actual Gas Used",
                        "value": 33760
                    },
                    {
                        "children": [],
                        "depth": -1,
                        "name": "Refunded Gas",
                        "value": 0
                    }
                ],
                "depth": -2,
                "name": "Total Gas",
                "value": 33760
            }
        ],
        "isConfirmed": true,
        "mainTrace": [
            {
                "children": [
                    {
                        "children": [
                            {
                                "children": [
                                    {
                                        "children": [
                                            {
                                                "children": [
                                                    {
                                                        "children": [],
                                                        "depth": 4,
                                                        "id": 4,
                                                        "order": 4
                                                    }
                                                ],
                                                "depth": 3,
                                                "id": 3,
                                                "order": 3
                                            }
                                        ],
                                        "depth": 2,
                                        "id": 2,
                                        "order": 2
                                    },
                                    {
                                        "children": [],
                                        "depth": 2,
                                        "id": 5,
                                        "order": 5
                                    }
                                ],
                                "depth": 1,
                                "id": 1,
                                "order": 1
                            }
                        ],
                        "depth": 0,
                        "id": 0,
                        "order": 0
                    }
                ],
                "depth": -1,
                "id": -1,
                "order": -1
            }
        ],
        "mainTraceNodeCount": 6,
        "parentIdMap": {
            "0": -1,
            "1": 0,
            "2": 1,
            "3": 2,
            "4": 3,
            "5": 1
        },
        "tidyTrace": [
            {
                "children": [
                    {
                        "children": [
                            {
                                "children": [
                                    {
                                        "children": [
                                            {
                                                "children": [
                                                    {
                                                        "children": [],
                                                        "depth": 4,
                                                        "id": 4,
                                                        "order": 4
                                                    }
                                                ],
                                                "depth": 3,
                                                "id": 3,
                                                "order": 3
                                            }
                                        ],
                                        "depth": 2,
                                        "id": 2,
                                        "order": 2
                                    },
                                    {
                                        "children": [],
                                        "depth": 2,
                                        "id": 5,
                                        "order": 5
                                    }
                                ],
                                "depth": 1,
                                "id": 1,
                                "order": 1
                            }
                        ],
                        "depth": 0,
                        "id": 0,
                        "order": 0
                    }
                ],
                "depth": -1,
                "id": -1,
                "order": -1
            }
        ],
        "tidyTraceNodeCount": 6
    },
    "state_change": {
        "stateChanges": []
    }
}