{
    "balance_change": {
        "balanceChanges": [
            {
                "account": "0xf906a35180fe49caf2d307a0453a08e7240412f4",
                "assets": [
                    {
                        "address": "0xb709dd229029c35a89cc9faba48c958bb3de46b9",
                        "amount": "106,673.03",
                        "iconUrl": "",
                        "isERC1155": false,
                        "isERC721": false,
                        "sign": false,
                        "value": ""
                    }
                ]
            },
            {
                "account": "0xa9c24e6accef537bf7bed43a9d39f4b8de1c51b5",
                "assets": [
                    {
                        "address": "0xb709dd229029c35a89cc9faba48c958bb3de46b9",
                        "amount": "106,673.03",
                        "iconUrl": "",
                        "isERC1155": false,
                        "isERC721": false,
                        "sign": true,
                        "value": ""
                    }
                ]
            }
        ]
    },
    "profile": {
        "basic_info": {
            "baseFee": "11.61368208",
            "blockNumber": 18306468,
            "callData": "0xa9059cbb000000000000000000000000a9c24e6accef537bf7bed43a9d39f4b8de1c51b5000000000000000000000000000000000000000000001696c1acd7108b670000",
            "debugEnable": true,
            "errorInfo": "",
            "eventCount": 1,
            "feeRecipient": "0x1f9090aae28b8a3dceadf281b0f12828e676c326",
            "formatValue": "0",
            "gasLimit": 77241,
            "gasPrice": "11.71368208",
            "gasUsed": 51494,
            "intTxnCount": 0,
            "internalRevert": false,
            "internalRevertMessage": "",
            "isContractCreation": false,
            "isFlashloan": false,
            "maxFee": "15.465488619",
            "nonce": 6,
            "overwritedBlockNumber": -1,
            "priorityFee": "0.1",
            "receiver": "0xb709dd229029c35a89cc9faba48c958bb3de46b9",
            "revertMessage": "",
            "sender": "0xf906a35180fe49caf2d307a0453a08e7240412f4",
            "simulationEnable": true,
            "sourceTxnHash": "0xc15a8bf1b2d23702cdeb79f9647b3d910f7b35c1d1e7a8d4fcdeb84095b9a083",
            "status": true,
            "timestamp": "2023-10-08T14:51:11Z",
            "transactionFee": "0.00060318434502752",
            "txnHash": "0xc15a8bf1b2d23702cdeb79f9647b3d910f7b35c1d1e7a8d4fcdeb84095b9a083",
            "txnIndex": 280,
            "type": 2,
            "value": "0"
        },
        "fund_flow": [
            {
                "amount": "106,673.03",
                "from": "0xf906a35180fe49caf2d307a0453a08e7240412f4",
                "id": 1,
                "isERC1155": false,
                "isERC721": false,
                "isReverted": false,
                "order": 1,
                "to": "0xa9c24e6accef537bf7bed43a9d39f4b8de1c51b5",
                "token": "0xb709dd229029c35a89cc9faba48c958bb3de46b9"
            }
        ],
        "token_infos": [
            {
                "address": "0xeeeeeeeeeeeeeeeeeeeeeeeeeeeeeeeeeeeeeeee",
                "decimals": 18
            },
            {
                "address": "0xb709dd229029c35a89cc9faba48c958bb3de46b9",
                "decimals": 18
            },
            {
                "address": "0xc02aaa39b223fe8d0a0e5c4f27ead9083c756cc2",
                "decimals": 18
            }
        ]
    },
    "address_label": {
        "labels": [
            {
                "address": "0xb709dd229029c35a89cc9faba48c958bb3de46b9",
                "label": "USDT"
            },
            {
                "address": "0x0000000000000000000000000000000000000001",
                "label": "Precompiled"
            },
            {
                "address": "0x0000000000000000000000000000000000000002",
                "label": "Precompiled"
            },
            {
                "address": "0x0000000000000000000000000000000000000003",
                "label": "Precompiled"
            },
            {
                "address": "0x0000000000000000000000000000000000000004",
                "label": "Precompiled"
            },
            {
                "address": "0xeeeeeeeeeeeeeeeeeeeeeeeeeeeeeeeeeeeeeeee",
                "label": "Ether"
            }
        ]
    },
    "trace": {
        "accountLabels": null,
        "dataMap": {
            "-1": {
                "invocation": {
                    "address": "0xf906a35180fe49caf2d307a0453a08e7240412f4",
                    "callData": "",
                    "decodedMethod": null,
                    "errorInfo": "",
                    "fromAddress": "",
                    "gasUsed": 0,
                    "id": -1,
                    "methodDecoded": false,
                    "operation": "",
                    "output": "",
                    "revert": false,
                    "revertMessage": "",
                    "selector": "",
                    "status": false,
                    "value": ""
                },
                "nodeType": 0
            },
            "0": {
                "invocation": {
                    "address": "0xb709dd229029c35a89cc9faba48c958bb3de46b9",
                    "callData": "0x000000000000000000000000a9c24e6accef537bf7bed43a9d39f4b8de1c51b5000000000000000000000000000000000000000000001696c1acd7108b670000",
                    "decodedMethod": {
                        "callParams": [
                            {
                                "name": "recipient",
                                "type": "address",
                                "value": "0xa9c24e6accef537bf7bed43a9d39f4b8de1c51b5"
                            },
                            {
                                "decimalAvailable": true,
                                "name": "amount",
                                "type": "uint256",
                                "value": "106,673,030,000,000,000,000,000"
                            }
                        ],
                        "constructorArguments": "",
                        "name": "transfer",
                        "returnParams": [
                            {
                                "name": "",
                                "type": "bool",
                                "value": true
                            }
                        ],
                        "signature": "transfer(address,uint256)"
                    },
                    "errorInfo": "",
                    "fromAddress": "0xf906a35180fe49caf2d307a0453a08e7240412f4",
                    "gasUsed": 51494,
                    "id": 0,
                    "methodDecoded": true,
                    "operation": "CALL",
                    "output": "0x0000000000000000000000000000000000000000000000000000000000000001",
                    "revert": false,
                    "revertMessage": "",
                    "selector": "0xa9059cbb",
                    "status": true,
                    "value": "0"
                },
                "nodeType": 0
            },
            "1": {
                "event": {
                    "contract": "0xb709dd229029c35a89cc9faba48c958bb3de46b9",
                    "decodedLog": {
                        "name": "Transfer",
                        "params": [
                            {
                                "name": "from",
                                "type": "address",
                                "value": "0xf906a35180fe49caf2d307a0453a08e7240412f4"
                            },
                            {
                                "name": "to",
                                "type": "address",
                                "value": "0xa9c24e6accef537bf7bed43a9d39f4b8de1c51b5"
                            },
                            {
                                "decimalAvailable": true,
                                "name": "value",
                                "type": "uint256",
                                "value": "106,673,030,000,000,000,000,000"
                            }
                        ],
                        "signature": "Transfer(address,address,uint256)"
                    },
                    "id": 1,
                    "logData": "0x000000000000000000000000000000000000000000001696c1acd7108b670000",
                    "logDecoded": true,
                    "operation": "EVENT",
                    "revert": false,
                    "status": true,
                    "topics": [
                        "0xddf252ad1be2c89b69c2b068fc378daa952ba7f163c4a11628f55a4df523b3ef",
                        "0x000000000000000000000000f906a35180fe49caf2d307a0453a08e7240412f4",
                        "0x000000000000000000000000a9c24e6accef537bf7bed43a9d39f4b8de1c51b5"
                    ]
                },
                "nodeType": 1
            }
        },
        "gasFlame": [
            {
                "children": [
                    {
                        "children": [
                            {
                                "children": [],
                                "depth": 0,
                                "name": "Initial Gas",
                                "value": 21656
                            },
                            {
                                "children": [],
                                "depth": 0,
                                "name": "Executed Gas",
                                "value": 29838
                            }
                        ],
                        "depth": -1,
                        "name": "Actual Gas Used",
                        "value": 51494
                    },
                    {
                        "children": [],
                        "depth": -1,
                        "name": "Refunded Gas",
                        "value": 0
                    }
                ],
                "depth": -2,
                "name": "Total Gas",
                "value": 51494
            }
        ],
        "isConfirmed": true,
        "mainTrace": [
            {
                "children": [
                    {
                        "children": [
                            {
                                "children": [],
                                "depth": 1,
                                "id": 1,
                                "order": 1
                            }
                        ],
                        "depth": 0,
                        "id": 0,
                        "order": 0
                    }
                ],
                "depth": -1,
                "id": -1,
                "order": -1
            }
        ],
        "mainTraceNodeCount": 2,
        "parentIdMap": {
            "0": -1,
            "1": 0
        },
        "tidyTrace": [
            {
                "children": [
                    {
                        "children": [
                            {
                                "children": [],
                                "depth": 1,
                                "id": 1,
                                "order": 1
                            }
                        ],
                        "depth": 0,
                        "id": 0,
                        "order": 0
                    }
                ],
                "depth": -1,
                "id": -1,
                "order": -1
            }
        ],
        "tidyTraceNodeCount": 2
    },
    "state_change": {
        "stateChanges": [
            {
                "address": "0xb709dd229029c35a89cc9faba48c958bb3de46b9",
                "erc": "",
                "slots": [
                    {
                        "current": "0x0000000000000000000000000000000000000000753c4f264eed726a68750000",
                        "key": "0x149f6a6dcd7368fa1415d506c383fc26c28c69f771530b8a02147087c4454940",
                        "prev": "0x0000000000000000000000000000000000000000753c65bd109a497af3dc0000"
                    },
                    {
                        "current": "0x000000000000000000000000000000000000000000001696c1acd7108b670000",
                        "key": "0x15462f7f4f39c23b3931eb5db5c121eb132d0329aa8b7d651cbb0f6e90d07e70",
                        "prev": "0x0000000000000000000000000000000000000000000000000000000000000000"
                    }
                ],
                "storageVariables": []
            }
        ]
    }
}