{
    "balance_change": {
        "balanceChanges": [
            {
                "account": "0x87902a499249cd5bf2bbac46299ece088aa2fd7e",
                "assets": [
                    {
                        "address": "0xbc46d9961a3932f7d6b64abfdec80c1816c4b835",
                        "amount": "537.2672",
                        "iconUrl": "https://assets.blocksec.com/icon/397da6eaaf7155fd9bacd953636781a6102e47b8767869a624047186ca1729d4.png",
                        "isERC1155": false,
                        "isERC721": false,
                        "sign": false,
                        "value": ""
                    }
                ]
            },
            {
                "account": "0x18840823aae4409dc6c07587591601a2ab996133",
                "assets": [
                    {
                        "address": "0xbc46d9961a3932f7d6b64abfdec80c1816c4b835",
                        "amount": "537.2672",
                        "iconUrl": "https://assets.blocksec.com/icon/397da6eaaf7155fd9bacd953636781a6102e47b8767869a624047186ca1729d4.png",
                        "isERC1155": false,
                        "isERC721": false,
                        "sign": true,
                        "value": ""
                    }
                ]
            }
        ]
    },
    "profile": {
        "basic_info": {
            "baseFee": "",
            "blockNumber": 8461722,
            "callData": "0xa9059cbb00000000000000000000000018840823aae4409dc6c07587591601a2ab99613300000000000000000000000000000000000000000000001d201487d61cc00000",
            "debugEnable": true,
            "errorInfo": "",
            "eventCount": 1,
            "feeRecipient": "0x5a0b54d5dc17e0aadc383d2db43b0a0d3e029c4c",
            "formatValue": "0",
            "gasLimit": 90000,
            "gasPrice": "10",
            "gasUsed": 37307,
            "intTxnCount": 0,
            "internalRevert": false,
            "internalRevertMessage": "",
            "isContractCreation": false,
            "isFlashloan": false,
            "maxFee": "",
            "nonce": 5259,
            "overwritedBlockNumber": -1,
            "priorityFee": "",
            "receiver": "0xbc46d9961a3932f7d6b64abfdec80c1816c4b835",
            "revertMessage": "",
            "sender": "0x87902a499249cd5bf2bbac46299ece088aa2fd7e",
            "simulationEnable": true,
            "sourceTxnHash": "0xc17e9a4e8335e33b315459b26a557f57727605b0ac60c3b1350ff1d62d0ca969",
            "status": true,
            "timestamp": "2019-09-01T02:29:19Z",
            "transactionFee": "0.00037307",
            "txnHash": "0xc17e9a4e8335e33b315459b26a557f57727605b0ac60c3b1350ff1d62d0ca969",
            "txnIndex": 35,
            "type": 0,
            "value": "0"
        },
        "fund_flow": [
            {
                "amount": "537.2672",
                "from": "0x87902a499249cd5bf2bbac46299ece088aa2fd7e",
                "id": 1,
                "isERC1155": false,
                "isERC721": false,
                "isReverted": false,
                "order": 1,
                "to": "0x18840823aae4409dc6c07587591601a2ab996133",
                "token": "0xbc46d9961a3932f7d6b64abfdec80c1816c4b835"
            }
        ],
        "token_infos": [
            {
                "address": "0xc02aaa39b223fe8d0a0e5c4f27ead9083c756cc2",
                "decimals": 18
            },
            {
                "address": "0xeeeeeeeeeeeeeeeeeeeeeeeeeeeeeeeeeeeeeeee",
                "decimals": 18
            },
            {
                "address": "0xbc46d9961a3932f7d6b64abfdec80c1816c4b835",
                "decimals": 18
            }
        ]
    },
    "address_label": {
        "labels": [
            {
                "address": "0x0000000000000000000000000000000000000002",
                "label": "Precompiled"
            },
            {
                "address": "0x0000000000000000000000000000000000000003",
                "label": "Precompiled"
            },
            {
                "address": "0x0000000000000000000000000000000000000004",
                "label": "Precompiled"
            },
            {
                "address": "0xeeeeeeeeeeeeeeeeeeeeeeeeeeeeeeeeeeeeeeee",
                "label": "Ether"
            },
            {
                "address": "0x18840823aae4409dc6c07587591601a2ab996133",
                "label": "HUOBI"
            },
            {
                "address": "0xbc46d9961a3932f7d6b64abfdec80c1816c4b835",
                "label": "LiteX Token"
            },
            {
                "address": "0x0000000000000000000000000000000000000001",
                "label": "Precompiled"
            }
        ]
    },
    "trace": {
        "accountLabels": null,
        "dataMap": {
            "-1": {
                "invocation": {
                    "address": "0x87902a499249cd5bf2bbac46299ece088aa2fd7e",
                    "callData": "",
                    "decodedMethod": null,
                    "errorInfo": "",
                    "fromAddress": "",
                    "gasUsed": 0,
                    "id": -1,
                    "methodDecoded": false,
                    "operation": "",
                    "output": "",
                    "revert": false,
                    "revertMessage": "",
                    "selector": "",
                    "status": false,
                    "value": ""
                },
                "nodeType": 0
            },
            "0": {
                "invocation": {
                    "address": "0xbc46d9961a3932f7d6b64abfdec80c1816c4b835",
                    "callData": "0x00000000000000000000000018840823aae4409dc6c07587591601a2ab99613300000000000000000000000000000000000000000000001d201487d61cc00000",
                    "decodedMethod": {
                        "callParams": [
                            {
                                "name": "_to",
                                "type": "address",
                                "value": "0x18840823aae4409dc6c07587591601a2ab996133"
                            },
                            {
                                "decimalAvailable": true,
                                "name": "_value",
                                "type": "uint256",
                                "value": "537,267,200,000,000,000,000"
                            }
                        ],
                        "constructorArguments": "",
                        "name": "transfer",
                        "returnParams": [
                            {
                                "name": "",
                                "type": "bool",
                                "value": true
                            }
                        ],
                        "signature": "transfer(address,uint256)"
                    },
                    "errorInfo": "",
                    "fromAddress": "0x87902a499249cd5bf2bbac46299ece088aa2fd7e",
                    "gasUsed": 37307,
                    "id": 0,
                    "methodDecoded": true,
                    "operation": "CALL",
                    "output": "0x0000000000000000000000000000000000000000000000000000000000000001",
                    "revert": false,
                    "revertMessage": "",
                    "selector": "0xa9059cbb",
                    "status": true,
                    "value": "0"
                },
                "nodeType": 0
            },
            "1": {
                "event": {
                    "contract": "0xbc46d9961a3932f7d6b64abfdec80c1816c4b835",
                    "decodedLog": {
                        "name": "Transfer",
                        "params": [
                            {
                                "name": "from",
                                "type": "address",
                                "value": "0x87902a499249cd5bf2bbac46299ece088aa2fd7e"
                            },
                            {
                                "name": "to",
                                "type": "address",
                                "value": "0x18840823aae4409dc6c07587591601a2ab996133"
                            },
                            {
                                "decimalAvailable": true,
                                "name": "value",
                                "type": "uint256",
                                "value": "537,267,200,000,000,000,000"
                            }
                        ],
                        "signature": "Transfer(address,address,uint256)"
                    },
                    "id": 1,
                    "logData": "0x00000000000000000000000000000000000000000000001d201487d61cc00000",
                    "logDecoded": true,
                    "operation": "EVENT",
                    "revert": false,
                    "status": true,
                    "topics": [
                        "0xddf252ad1be2c89b69c2b068fc378daa952ba7f163c4a11628f55a4df523b3ef",
                        "0x00000000000000000000000087902a499249cd5bf2bbac46299ece088aa2fd7e",
                        "0x00000000000000000000000018840823aae4409dc6c07587591601a2ab996133"
                    ]
                },
                "nodeType": 1
            }
        },
        "gasFlame": [
            {
                "children": [
                    {
                        "children": [
                            {
                                "children": [],
                                "depth": 0,
                                "name": "Initial Gas",
                                "value": 23256
                            },
                            {
                                "children": [],
                                "depth": 0,
                                "name": "Executed Gas",
                                "value": 14051
                            }
                        ],
                        "depth": -1,
                        "name": "Actual Gas Used",
                        "value": 37307
                    },
                    {
                        "children": [],
                        "depth": -1,
                        "name": "Refunded Gas",
                        "value": 0
                    }
                ],
                "depth": -2,
                "name": "Total Gas",
                "value": 37307
            }
        ],
        "isConfirmed": true,
        "mainTrace": [
            {
                "children": [
                    {
                        "children": [
                            {
                                "children": [],
                                "depth": 1,
                                "id": 1,
                                "order": 1
                            }
                        ],
                        "depth": 0,
                        "id": 0,
                        "order": 0
                    }
                ],
                "depth": -1,
                "id": -1,
                "order": -1
            }
        ],
        "mainTraceNodeCount": 2,
        "parentIdMap": {
            "0": -1,
            "1": 0
        },
        "tidyTrace": [
            {
                "children": [
                    {
                        "children": [
                            {
                                "children": [],
                                "depth": 1,
                                "id": 1,
                                "order": 1
                            }
                        ],
                        "depth": 0,
                        "id": 0,
                        "order": 0
                    }
                ],
                "depth": -1,
                "id": -1,
                "order": -1
            }
        ],
        "tidyTraceNodeCount": 2
    },
    "state_change": {
        "stateChanges": [
            {
                "address": "0xbc46d9961a3932f7d6b64abfdec80c1816c4b835",
                "erc": "ERC-20",
                "slots": [
                    {
                        "current": "0x00000000000000000000000000000000000000000000484c7a4b2a76560cc000",
                        "key": "0x0e32eded045e1239bce6d4d1aa492e499c5bb944ded523cca469b2f9bd00eddf",
                        "prev": "0x0000000000000000000000000000000000000000000048699a5fb24c72ccc000"
                    },
                    {
                        "current": "0x000000000000000000000000000000000000000000000173b0d58fa3a6d8c000",
                        "key": "0x3b39efd6def52c63b6dca10d47b35e62df968e4abc62cfa57b408afc36994743",
                        "prev": "0x00000000000000000000000000000000000000000000015690c107cd8a18c000"
                    }
                ],
                "storageVariables": [
                    {
                        "name": "balances",
                        "type": "mapping(address => uint256)",
                        "value": {
                            "pairs": [
                                {
                                    "key": "0x18840823aae4409dc6c07587591601a2ab996133",
                                    "value": {
                                        "current": "6856484300000000000000",
                                        "prev": "6319217100000000000000",
                                        "typeTag": 1
                                    }
                                },
                                {
                                    "key": "0x87902a499249cd5bf2bbac46299ece088aa2fd7e",
                                    "value": {
                                        "current": "341421151500000000000000",
                                        "prev": "341958418700000000000000",
                                        "typeTag": 1
                                    }
                                }
                            ],
                            "typeTag": 4
                        }
                    }
                ]
            }
        ]
    }
}