{
    "balance_change": {
        "balanceChanges": [
            {
                "account": "0x06f115a06e500ee26d3b06c80ef5be7d260068eb",
                "assets": [
                    {
                        "address": "0x41e5560054824ea6b0732e656e3ad64e20e94e45",
                        "amount": "70",
                        "iconUrl": "",
                        "isERC1155": false,
                        "isERC721": false,
                        "sign": false,
                        "value": ""
                    }
                ]
            },
            {
                "account": "0x316057f69d055698ea656d94efa25cac955c10bb",
                "assets": [
                    {
                        "address": "0x41e5560054824ea6b0732e656e3ad64e20e94e45",
                        "amount": "70",
                        "iconUrl": "",
                        "isERC1155": false,
                        "isERC721": false,
                        "sign": true,
                        "value": ""
                    }
                ]
            }
        ]
    },
    "profile": {
        "basic_info": {
            "baseFee": "",
            "blockNumber": 4533075,
            "callData": "0xa9059cbb000000000000000000000000316057f69d055698ea656d94efa25cac955c10bb00000000000000000000000000000000000000000000000000000001a13b8600",
            "debugEnable": true,
            "errorInfo": "",
            "eventCount": 1,
            "feeRecipient": "0x52bc44d5378309ee2abf1539bf71de1b7d7be3b5",
            "formatValue": "0",
            "gasLimit": 150000,
            "gasPrice": "21",
            "gasUsed": 21715,
            "intTxnCount": 0,
            "internalRevert": false,
            "internalRevertMessage": "",
            "isContractCreation": false,
            "isFlashloan": false,
            "maxFee": "",
            "nonce": 16,
            "overwritedBlockNumber": -1,
            "priorityFee": "",
            "receiver": "0x41e5560054824ea6b0732e656e3ad64e20e94e45",
            "revertMessage": "",
            "sender": "0x06f115a06e500ee26d3b06c80ef5be7d260068eb",
            "simulationEnable": true,
            "sourceTxnHash": "0xc10f0b83199a00f5e82d122c87a598bbd70ac06738b0d6959e97b4d077548f0f",
            "status": true,
            "timestamp": "2017-11-11T15:13:45Z",
            "transactionFee": "0.000456015",
            "txnHash": "0xc10f0b83199a00f5e82d122c87a598bbd70ac06738b0d6959e97b4d077548f0f",
            "txnIndex": 5,
            "type": 0,
            "value": "0"
        },
        "fund_flow": [
            {
                "amount": "70",
                "from": "0x06f115a06e500ee26d3b06c80ef5be7d260068eb",
                "id": 1,
                "isERC1155": false,
                "isERC721": false,
                "isReverted": false,
                "order": 1,
                "to": "0x316057f69d055698ea656d94efa25cac955c10bb",
                "token": "0x41e5560054824ea6b0732e656e3ad64e20e94e45"
            }
        ],
        "token_infos": [
            {
                "address": "0x41e5560054824ea6b0732e656e3ad64e20e94e45",
                "decimals": 8
            },
            {
                "address": "0xc02aaa39b223fe8d0a0e5c4f27ead9083c756cc2",
                "decimals": 18
            },
            {
                "address": "0xeeeeeeeeeeeeeeeeeeeeeeeeeeeeeeeeeeeeeeee",
                "decimals": 18
            }
        ]
    },
    "address_label": {
        "labels": [
            {
                "address": "0xeeeeeeeeeeeeeeeeeeeeeeeeeeeeeeeeeeeeeeee",
                "label": "Ether"
            },
            {
                "address": "0x41e5560054824ea6b0732e656e3ad64e20e94e45",
                "label": "Civic: CVC Token"
            },
            {
                "address": "0x0000000000000000000000000000000000000001",
                "label": "Precompiled"
            },
            {
                "address": "0x0000000000000000000000000000000000000002",
                "label": "Precompiled"
            },
            {
                "address": "0x0000000000000000000000000000000000000003",
                "label": "Precompiled"
            },
            {
                "address": "0x0000000000000000000000000000000000000004",
                "label": "Precompiled"
            }
        ]
    },
    "trace": {
        "accountLabels": null,
        "dataMap": {
            "-1": {
                "invocation": {
                    "address": "0x06f115a06e500ee26d3b06c80ef5be7d260068eb",
                    "callData": "",
                    "decodedMethod": null,
                    "errorInfo": "",
                    "fromAddress": "",
                    "gasUsed": 0,
                    "id": -1,
                    "methodDecoded": false,
                    "operation": "",
                    "output": "",
                    "revert": false,
                    "revertMessage": "",
                    "selector": "",
                    "status": false,
                    "value": ""
                },
                "nodeType": 0
            },
            "0": {
                "invocation": {
                    "address": "0x41e5560054824ea6b0732e656e3ad64e20e94e45",
                    "callData": "0x000000000000000000000000316057f69d055698ea656d94efa25cac955c10bb00000000000000000000000000000000000000000000000000000001a13b8600",
                    "decodedMethod": {
                        "callParams": [
                            {
                                "name": "_to",
                                "type": "address",
                                "value": "0x316057f69d055698ea656d94efa25cac955c10bb"
                            },
                            {
                                "decimalAvailable": true,
                                "name": "_value",
                                "type": "uint256",
                                "value": "7,000,000,000"
                            }
                        ],
                        "constructorArguments": "",
                        "name": "transfer",
                        "returnParams": [
                            {
                                "name": "success",
                                "type": "bool",
                                "value": true
                            }
                        ],
                        "signature": "transfer(address,uint256)"
                    },
                    "errorInfo": "",
                    "fromAddress": "0x06f115a06e500ee26d3b06c80ef5be7d260068eb",
                    "gasUsed": 21715,
                    "id": 0,
                    "methodDecoded": true,
                    "operation": "CALL",
                    "output": "0x0000000000000000000000000000000000000000000000000000000000000001",
                    "revert": false,
                    "revertMessage": "",
                    "selector": "0xa9059cbb",
                    "status": true,
                    "value": "0"
                },
                "nodeType": 0
            },
            "1": {
                "event": {
                    "contract": "0x41e5560054824ea6b0732e656e3ad64e20e94e45",
                    "decodedLog": {
                        "name": "Transfer",
                        "params": [
                            {
                                "name": "from",
                                "type": "address",
                                "value": "0x06f115a06e500ee26d3b06c80ef5be7d260068eb"
                            },
                            {
                                "name": "to",
                                "type": "address",
                                "value": "0x316057f69d055698ea656d94efa25cac955c10bb"
                            },
                            {
                                "decimalAvailable": true,
                                "name": "value",
                                "type": "uint256",
                                "value": "7,000,000,000"
                            }
                        ],
                        "signature": "Transfer(address,address,uint256)"
                    },
                    "id": 1,
                    "logData": "0x00000000000000000000000000000000000000000000000000000001a13b8600",
                    "logDecoded": true,
                    "operation": "EVENT",
                    "revert": false,
                    "status": true,
                    "topics": [
                        "0xddf252ad1be2c89b69c2b068fc378daa952ba7f163c4a11628f55a4df523b3ef",
                        "0x00000000000000000000000006f115a06e500ee26d3b06c80ef5be7d260068eb",
                        "0x000000000000000000000000316057f69d055698ea656d94efa25cac955c10bb"
                    ]
                },
                "nodeType": 1
            }
        },
        "gasFlame": [
            {
                "children": [
                    {
                        "children": [
                            {
                                "children": [],
                                "depth": 0,
                                "name": "Initial Gas",
                                "value": 23064
                            },
                            {
                                "children": [],
                                "depth": 0,
                                "name": "Executed Gas",
                                "value": 13651
                            }
                        ],
                        "depth": -1,
                        "name": "Actual Gas Used",
                        "value": 21715
                    },
                    {
                        "children": [],
                        "depth": -1,
                        "name": "Refunded Gas",
                        "value": 15000
                    }
                ],
                "depth": -2,
                "name": "Total Gas",
                "value": 36715
            }
        ],
        "isConfirmed": true,
        "mainTrace": [
            {
                "children": [
                    {
                        "children": [
                            {
                                "children": [],
                                "depth": 1,
                                "id": 1,
                                "order": 1
                            }
                        ],
                        "depth": 0,
                        "id": 0,
                        "order": 0
                    }
                ],
                "depth": -1,
                "id": -1,
                "order": -1
            }
        ],
        "mainTraceNodeCount": 2,
        "parentIdMap": {
            "0": -1,
            "1": 0
        },
        "tidyTrace": [
            {
                "children": [
                    {
                        "children": [
                            {
                                "children": [],
                                "depth": 1,
                                "id": 1,
                                "order": 1
                            }
                        ],
                        "depth": 0,
                        "id": 0,
                        "order": 0
                    }
                ],
                "depth": -1,
                "id": -1,
                "order": -1
            }
        ],
        "tidyTraceNodeCount": 2
    },
    "state_change": {
        "stateChanges": [
            {
                "address": "0x41e5560054824ea6b0732e656e3ad64e20e94e45",
                "erc": "ERC-20",
                "slots": [
                    {
                        "current": "0x00000000000000000000000000000000000000000000000000000002540be400",
                        "key": "0x7ad112deff5caa280dd6270950456efdb3285d90159e41fa0a024a9103487906",
                        "prev": "0x00000000000000000000000000000000000000000000000000000000b2d05e00"
                    },
                    {
                        "current": "0x0000000000000000000000000000000000000000000000000000000000000000",
                        "key": "0x92e4d84b3aa97a1f034937f49406d95872f2ea2463ccbb870e47b48a32f1245c",
                        "prev": "0x00000000000000000000000000000000000000000000000000000001a13b8600"
                    }
                ],
                "storageVariables": []
            }
        ]
    }
}