{
    "balance_change": {
        "balanceChanges": [
            {
                "account": "0x05096597ebc29bde93ade9853ec985cc6fc65109",
                "assets": [
                    {
                        "address": "0x7a9144c465ead027aa88ebd2cd8b6c6b16a8b369",
                        "amount": "1",
                        "iconUrl": "",
                        "isERC1155": false,
                        "isERC721": true,
                        "sign": false,
                        "tokenID": "28754510597801532083915007084650269815777677577",
                        "value": ""
                    },
                    {
                        "address": "0xeeeeeeeeeeeeeeeeeeeeeeeeeeeeeeeeeeeeeeee",
                        "amount": "0.01",
                        "iconUrl": "https://assets.blocksec.com/image/1663669189317-3.png",
                        "isERC1155": false,
                        "isERC721": false,
                        "sign": true,
                        "value": "17.89471194267922101"
                    }
                ]
            },
            {
                "account": "0x7a9144c465ead027aa88ebd2cd8b6c6b16a8b369",
                "assets": [
                    {
                        "address": "0xeeeeeeeeeeeeeeeeeeeeeeeeeeeeeeeeeeeeeeee",
                        "amount": "0.01",
                        "iconUrl": "https://assets.blocksec.com/image/1663669189317-3.png",
                        "isERC1155": false,
                        "isERC721": false,
                        "sign": false,
                        "value": "17.89471194267922101"
                    }
                ]
            },
            {
                "account": "0x0000000000000000000000000000000000000000",
                "assets": [
                    {
                        "address": "0x7a9144c465ead027aa88ebd2cd8b6c6b16a8b369",
                        "amount": "1",
                        "iconUrl": "",
                        "isERC1155": false,
                        "isERC721": true,
                        "sign": true,
                        "tokenID": "28754510597801532083915007084650269815777677577",
                        "value": ""
                    }
                ]
            }
        ]
    },
    "profile": {
        "basic_info": {
            "baseFee": "17.605652588",
            "blockNumber": 16868234,
            "callData": "0x8433e7f300000000000000000000000005096597ebc29bde93ade9853ec985cc6fc65109",
            "debugEnable": true,
            "errorInfo": "",
            "eventCount": 2,
            "feeRecipient": "0x690b9a9e9aa1c9db991c7721a92d351db4fac990",
            "formatValue": "0",
            "gasLimit": 54007,
            "gasPrice": "17.705652588",
            "gasUsed": 48499,
            "intTxnCount": 2,
            "internalRevert": false,
            "internalRevertMessage": "",
            "isContractCreation": false,
            "isFlashloan": false,
            "maxFee": "21.452595418",
            "nonce": 398,
            "overwritedBlockNumber": -1,
            "priorityFee": "0.1",
            "receiver": "0x7a9144c465ead027aa88ebd2cd8b6c6b16a8b369",
            "revertMessage": "",
            "sender": "0x05096597ebc29bde93ade9853ec985cc6fc65109",
            "simulationEnable": true,
            "sourceTxnHash": "0xc103350b2f0293f7e8a5fa0c6273e27b7d915e32096f4e2bfdce4cad712952a3",
            "status": true,
            "timestamp": "2023-03-20T10:16:59Z",
            "transactionFee": "0.000858706444865412",
            "txnHash": "0xc103350b2f0293f7e8a5fa0c6273e27b7d915e32096f4e2bfdce4cad712952a3",
            "txnIndex": 111,
            "type": 2,
            "value": "0"
        },
        "fund_flow": [
            {
                "amount": "1",
                "from": "0x05096597ebc29bde93ade9853ec985cc6fc65109",
                "id": 1,
                "isERC1155": false,
                "isERC721": true,
                "isReverted": false,
                "order": 1,
                "to": "0x0000000000000000000000000000000000000000",
                "token": "0x7a9144c465ead027aa88ebd2cd8b6c6b16a8b369",
                "tokenID": "28754510597801532083915007084650269815777677577"
            },
            {
                "amount": "0.01",
                "from": "0x7a9144c465ead027aa88ebd2cd8b6c6b16a8b369",
                "id": 2,
                "isERC1155": false,
                "isERC721": false,
                "isReverted": false,
                "order": 2,
                "to": "0x05096597ebc29bde93ade9853ec985cc6fc65109",
                "token": "0xeeeeeeeeeeeeeeeeeeeeeeeeeeeeeeeeeeeeeeee"
            }
        ],
        "token_infos": [
            {
                "address": "0xc02aaa39b223fe8d0a0e5c4f27ead9083c756cc2",
                "decimals": 18
            },
            {
                "address": "0xeeeeeeeeeeeeeeeeeeeeeeeeeeeeeeeeeeeeeeee",
                "decimals": 18
            }
        ]
    },
    "address_label": {
        "labels": [
            {
                "address": "0x0000000000000000000000000000000000000004",
                "label": "Precompiled"
            },
            {
                "address": "0xeeeeeeeeeeeeeeeeeeeeeeeeeeeeeeeeeeeeeeee",
                "label": "Ether"
            },
            {
                "address": "0x569d98c73d7203d6d587d0f355b66bfa258d736f",
                "label": "BuyCrowdfund"
            },
            {
                "address": "0x7a9144c465ead027aa88ebd2cd8b6c6b16a8b369",
                "label": "Proxy"
            },
            {
                "address": "0x0000000000000000000000000000000000000001",
                "label": "Precompiled"
            },
            {
                "address": "0x0000000000000000000000000000000000000002",
                "label": "Precompiled"
            },
            {
                "address": "0x0000000000000000000000000000000000000003",
                "label": "Precompiled"
            }
        ]
    },
    "trace": {
        "accountLabels": null,
        "dataMap": {
            "-1": {
                "invocation": {
                    "address": "0x05096597ebc29bde93ade9853ec985cc6fc65109",
                    "callData": "",
                    "decodedMethod": null,
                    "errorInfo": "",
                    "fromAddress": "",
                    "gasUsed": 0,
                    "id": -1,
                    "methodDecoded": false,
                    "operation": "",
                    "output": "",
                    "revert": false,
                    "revertMessage": "",
                    "selector": "",
                    "status": false,
                    "value": ""
                },
                "nodeType": 0
            },
            "0": {
                "invocation": {
                    "address": "0x7a9144c465ead027aa88ebd2cd8b6c6b16a8b369",
                    "callData": "0x00000000000000000000000005096597ebc29bde93ade9853ec985cc6fc65109",
                    "decodedMethod": {
                        "callParams": [
                            {
                                "name": "contributor",
                                "type": "address",
                                "value": "0x05096597ebc29bde93ade9853ec985cc6fc65109"
                            }
                        ],
                        "constructorArguments": "",
                        "name": "activateOrRefund",
                        "returnParams": [],
                        "signature": "activateOrRefund(address)"
                    },
                    "errorInfo": "",
                    "fromAddress": "0x05096597ebc29bde93ade9853ec985cc6fc65109",
                    "gasUsed": 48499,
                    "id": 0,
                    "methodDecoded": true,
                    "operation": "CALL",
                    "output": "",
                    "revert": false,
                    "revertMessage": "",
                    "selector": "0x8433e7f3",
                    "status": true,
                    "value": "0"
                },
                "nodeType": 0
            },
            "1": {
                "invocation": {
                    "address": "0x569d98c73d7203d6d587d0f355b66bfa258d736f",
                    "callData": "0x00000000000000000000000005096597ebc29bde93ade9853ec985cc6fc65109",
                    "decodedMethod": {
                        "callParams": [
                            {
                                "name": "contributor",
                                "type": "address",
                                "value": "0x05096597ebc29bde93ade9853ec985cc6fc65109"
                            }
                        ],
                        "constructorArguments": "",
                        "name": "activateOrRefund",
                        "returnParams": [],
                        "signature": "activateOrRefund(address)"
                    },
                    "errorInfo": "",
                    "fromAddress": "0x7a9144c465ead027aa88ebd2cd8b6c6b16a8b369",
                    "gasUsed": 29122,
                    "id": 1,
                    "methodDecoded": true,
                    "operation": "DELEGATECALL",
                    "output": "",
                    "revert": false,
                    "revertMessage": "",
                    "selector": "0x8433e7f3",
                    "status": true,
                    "value": "0"
                },
                "nodeType": 0
            },
            "2": {
                "event": {
                    "contract": "0x7a9144c465ead027aa88ebd2cd8b6c6b16a8b369",
                    "decodedLog": {
                        "name": "Transfer",
                        "params": [
                            {
                                "name": "from",
                                "type": "address",
                                "value": "0x05096597ebc29bde93ade9853ec985cc6fc65109"
                            },
                            {
                                "name": "to",
                                "type": "address",
                                "value": "0x0000000000000000000000000000000000000000"
                            },
                            {
                                "decimalAvailable": true,
                                "name": "tokenId",
                                "type": "uint256",
                                "value": "28,754,510,597,801,532,083,915,007,084,650,269,815,777,677,577"
                            }
                        ],
                        "signature": "Transfer(address,address,uint256)"
                    },
                    "id": 2,
                    "logData": "0x",
                    "logDecoded": true,
                    "operation": "EVENT",
                    "revert": false,
                    "status": true,
                    "topics": [
                        "0xddf252ad1be2c89b69c2b068fc378daa952ba7f163c4a11628f55a4df523b3ef",
                        "0x00000000000000000000000005096597ebc29bde93ade9853ec985cc6fc65109",
                        "0x0000000000000000000000000000000000000000000000000000000000000000",
                        "0x00000000000000000000000005096597ebc29bde93ade9853ec985cc6fc65109"
                    ]
                },
                "nodeType": 1
            },
            "3": {
                "invocation": {
                    "address": "0x05096597ebc29bde93ade9853ec985cc6fc65109",
                    "callData": "0x",
                    "decodedMethod": null,
                    "errorInfo": "",
                    "fromAddress": "0x7a9144c465ead027aa88ebd2cd8b6c6b16a8b369",
                    "gasUsed": 0,
                    "id": 3,
                    "methodDecoded": false,
                    "operation": "CALL",
                    "output": "",
                    "revert": false,
                    "revertMessage": "",
                    "selector": "fallback",
                    "status": true,
                    "value": "0.01"
                },
                "nodeType": 0
            },
            "4": {
                "event": {
                    "contract": "0x7a9144c465ead027aa88ebd2cd8b6c6b16a8b369",
                    "decodedLog": {
                        "name": "Burned",
                        "params": [
                            {
                                "name": "contributor",
                                "type": "address",
                                "value": "0x05096597ebc29bde93ade9853ec985cc6fc65109"
                            },
                            {
                                "name": "ethUsed",
                                "type": "uint256",
                                "value": "0"
                            },
                            {
                                "name": "ethOwed",
                                "type": "uint256",
                                "value": "10,000,000,000,000,000"
                            },
                            {
                                "name": "votingPower",
                                "type": "uint256",
                                "value": "0"
                            }
                        ],
                        "signature": "Burned(address,uint256,uint256,uint256)"
                    },
                    "id": 4,
                    "logData": "0x00000000000000000000000005096597ebc29bde93ade9853ec985cc6fc651090000000000000000000000000000000000000000000000000000000000000000000000000000000000000000000000000000000000000000002386f26fc100000000000000000000000000000000000000000000000000000000000000000000",
                    "logDecoded": true,
                    "operation": "EVENT",
                    "revert": false,
                    "status": true,
                    "topics": [
                        "0x4c60206a5c1de41f3376d1d60f0949d96cb682033c90b1c2d9d9a62d4c4120c0"
                    ]
                },
                "nodeType": 1
            }
        },
        "gasFlame": [
            {
                "children": [
                    {
                        "children": [
                            {
                                "children": [],
                                "depth": 0,
                                "name": "Initial Gas",
                                "value": 21432
                            },
                            {
                                "children": [
                                    {
                                        "children": [
                                            {
                                                "children": [],
                                                "depth": 2,
                                                "name": "fallback",
                                                "value": 0
                                            }
                                        ],
                                        "depth": 1,
                                        "name": "activateOrRefund",
                                        "value": 29122
                                    }
                                ],
                                "depth": 0,
                                "name": "Executed Gas",
                                "value": 31867
                            }
                        ],
                        "depth": -1,
                        "name": "Actual Gas Used",
                        "value": 48499
                    },
                    {
                        "children": [],
                        "depth": -1,
                        "name": "Refunded Gas",
                        "value": 4800
                    }
                ],
                "depth": -2,
                "name": "Total Gas",
                "value": 53299
            }
        ],
        "isConfirmed": true,
        "mainTrace": [
            {
                "children": [
                    {
                        "children": [
                            {
                                "children": [
                                    {
                                        "children": [],
                                        "depth": 2,
                                        "id": 2,
                                        "order": 2
                                    },
                                    {
                                        "children": [],
                                        "depth": 2,
                                        "id": 3,
                                        "order": 3
                                    },
                                    {
                                        "children": [],
                                        "depth": 2,
                                        "id": 4,
                                        "order": 4
                                    }
                                ],
                                "depth": 1,
                                "id": 1,
                                "order": 1
                            }
                        ],
                        "depth": 0,
                        "id": 0,
                        "order": 0
                    }
                ],
                "depth": -1,
                "id": -1,
                "order": -1
            }
        ],
        "mainTraceNodeCount": 5,
        "parentIdMap": {
            "0": -1,
            "1": 0,
            "2": 1,
            "3": 1,
            "4": 1
        },
        "tidyTrace": [
            {
                "children": [
                    {
                        "children": [
                            {
                                "children": [
                                    {
                                        "children": [],
                                        "depth": 2,
                                        "id": 2,
                                        "order": 2
                                    },
                                    {
                                        "children": [],
                                        "depth": 2,
                                        "id": 3,
                                        "order": 3
                                    },
                                    {
                                        "children": [],
                                        "depth": 2,
                                        "id": 4,
                                        "order": 4
                                    }
                                ],
                                "depth": 1,
                                "id": 1,
                                "order": 1
                            }
                        ],
                        "depth": 0,
                        "id": 0,
                        "order": 0
                    }
                ],
                "depth": -1,
                "id": -1,
                "order": -1
            }
        ],
        "tidyTraceNodeCount": 5
    },
    "state_change": {
        "stateChanges": [
            {
                "address": "0x7a9144c465ead027aa88ebd2cd8b6c6b16a8b369",
                "erc": "ERC-721",
                "slots": [
                    {
                        "current": "0x0000000000000000000000000000000000000000000000000000000000000000",
                        "key": "0xa42d58c75bca216078708766b3aa6523bbce00e9f40921e10297d1d1e34ddd1b",
                        "prev": "0x00000000000000000000000005096597ebc29bde93ade9853ec985cc6fc65109"
                    }
                ],
                "storageVariables": [
                    {
                        "name": "_owners",
                        "type": "mapping(uint256 => address)",
                        "value": {
                            "pairs": [
                                {
                                    "key": "28754510597801532083915007084650269815777677577",
                                    "value": {
                                        "current": "0x0000000000000000000000000000000000000000",
                                        "prev": "0x05096597ebc29bde93ade9853ec985cc6fc65109",
                                        "typeTag": 1
                                    }
                                }
                            ],
                            "typeTag": 4
                        }
                    }
                ]
            }
        ]
    }
}