{
    "balance_change": {
        "balanceChanges": [
            {
                "account": "0x4a2bfa4666e979656cba134312e90ad86a83d52b",
                "assets": [
                    {
                        "address": "0xd533a949740bb3306d119cc777fa900ba034cd52",
                        "amount": "9,671",
                        "iconUrl": "",
                        "isERC1155": false,
                        "isERC721": false,
                        "sign": false,
                        "value": "10106.195"
                    }
                ]
            },
            {
                "account": "0x738cf6903e6c4e699d1c2dd9ab8b67fcdb3121ea",
                "assets": [
                    {
                        "address": "0xd533a949740bb3306d119cc777fa900ba034cd52",
                        "amount": "9,671",
                        "iconUrl": "",
                        "isERC1155": false,
                        "isERC721": false,
                        "sign": true,
                        "value": "10106.195"
                    }
                ]
            }
        ]
    },
    "profile": {
        "basic_info": {
            "baseFee": "30.602413014",
            "blockNumber": 16563972,
            "callData": "0x23b872dd0000000000000000000000004a2bfa4666e979656cba134312e90ad86a83d52b000000000000000000000000738cf6903e6c4e699d1c2dd9ab8b67fcdb3121ea00000000000000000000000000000000000000000000020c4415fcd892bc0000",
            "debugEnable": true,
            "errorInfo": "",
            "eventCount": 1,
            "feeRecipient": "0x95222290dd7278aa3ddd389cc1e1d165cc4bafe5",
            "formatValue": "0",
            "gasLimit": 100000,
            "gasPrice": "31.212011256",
            "gasUsed": 35066,
            "intTxnCount": 0,
            "internalRevert": false,
            "internalRevertMessage": "",
            "isContractCreation": false,
            "isFlashloan": false,
            "maxFee": "31.212011256",
            "nonce": 1285952,
            "overwritedBlockNumber": -1,
            "priorityFee": "1",
            "receiver": "0xd533a949740bb3306d119cc777fa900ba034cd52",
            "revertMessage": "",
            "sender": "0xa152f8bb749c55e9943a3a0a3111d18ee2b3f94e",
            "simulationEnable": true,
            "sourceTxnHash": "0xc122d2b880550885bbc9f64d263bbfdd1d67242e15e9d29fb9fe4824c2854d95",
            "status": true,
            "timestamp": "2023-02-05T17:06:59Z",
            "transactionFee": "0.001094480386702896",
            "txnHash": "0xc122d2b880550885bbc9f64d263bbfdd1d67242e15e9d29fb9fe4824c2854d95",
            "txnIndex": 110,
            "type": 2,
            "value": "0"
        },
        "fund_flow": [
            {
                "amount": "9,671",
                "from": "0x4a2bfa4666e979656cba134312e90ad86a83d52b",
                "id": 1,
                "isERC1155": false,
                "isERC721": false,
                "isReverted": false,
                "order": 1,
                "to": "0x738cf6903e6c4e699d1c2dd9ab8b67fcdb3121ea",
                "token": "0xd533a949740bb3306d119cc777fa900ba034cd52"
            }
        ],
        "token_infos": [
            {
                "address": "0xc02aaa39b223fe8d0a0e5c4f27ead9083c756cc2",
                "decimals": 18
            },
            {
                "address": "0xd533a949740bb3306d119cc777fa900ba034cd52",
                "decimals": 18
            },
            {
                "address": "0xeeeeeeeeeeeeeeeeeeeeeeeeeeeeeeeeeeeeeeee",
                "decimals": 18
            }
        ]
    },
    "address_label": {
        "labels": [
            {
                "address": "0x0000000000000000000000000000000000000002",
                "label": "Precompiled"
            },
            {
                "address": "0x0000000000000000000000000000000000000003",
                "label": "Precompiled"
            },
            {
                "address": "0x0000000000000000000000000000000000000004",
                "label": "Precompiled"
            },
            {
                "address": "0xeeeeeeeeeeeeeeeeeeeeeeeeeeeeeeeeeeeeeeee",
                "label": "Ether"
            },
            {
                "address": "0xd533a949740bb3306d119cc777fa900ba034cd52",
                "label": "Curve.fi: CRV Token"
            },
            {
                "address": "0x738cf6903e6c4e699d1c2dd9ab8b67fcdb3121ea",
                "label": "KuCoin 12"
            },
            {
                "address": "0xa152f8bb749c55e9943a3a0a3111d18ee2b3f94e",
                "label": "KuCoin 22"
            },
            {
                "address": "0x4a2bfa4666e979656cba134312e90ad86a83d52b",
                "label": "KUCOIN"
            },
            {
                "address": "0x0000000000000000000000000000000000000001",
                "label": "Precompiled"
            }
        ]
    },
    "trace": {
        "accountLabels": null,
        "dataMap": {
            "-1": {
                "invocation": {
                    "address": "0xa152f8bb749c55e9943a3a0a3111d18ee2b3f94e",
                    "callData": "",
                    "decodedMethod": null,
                    "errorInfo": "",
                    "fromAddress": "",
                    "gasUsed": 0,
                    "id": -1,
                    "methodDecoded": false,
                    "operation": "",
                    "output": "",
                    "revert": false,
                    "revertMessage": "",
                    "selector": "",
                    "status": false,
                    "value": ""
                },
                "nodeType": 0
            },
            "0": {
                "invocation": {
                    "address": "0xd533a949740bb3306d119cc777fa900ba034cd52",
                    "callData": "0x0000000000000000000000004a2bfa4666e979656cba134312e90ad86a83d52b000000000000000000000000738cf6903e6c4e699d1c2dd9ab8b67fcdb3121ea00000000000000000000000000000000000000000000020c4415fcd892bc0000",
                    "decodedMethod": {
                        "callParams": [
                            {
                                "name": "sender",
                                "type": "address",
                                "value": "0x4a2bfa4666e979656cba134312e90ad86a83d52b"
                            },
                            {
                                "name": "recipient",
                                "type": "address",
                                "value": "0x738cf6903e6c4e699d1c2dd9ab8b67fcdb3121ea"
                            },
                            {
                                "decimalAvailable": true,
                                "name": "amount",
                                "type": "uint256",
                                "value": "9,671,000,000,000,000,000,000"
                            }
                        ],
                        "constructorArguments": "",
                        "name": "transferFrom",
                        "returnParams": [
                            {
                                "name": "",
                                "type": "bool",
                                "value": true
                            }
                        ],
                        "signature": "transferFrom(address,address,uint256)"
                    },
                    "errorInfo": "",
                    "fromAddress": "0xa152f8bb749c55e9943a3a0a3111d18ee2b3f94e",
                    "gasUsed": 35066,
                    "id": 0,
                    "methodDecoded": true,
                    "operation": "CALL",
                    "output": "0x0000000000000000000000000000000000000000000000000000000000000001",
                    "revert": false,
                    "revertMessage": "",
                    "selector": "0x23b872dd",
                    "status": true,
                    "value": "0"
                },
                "nodeType": 0
            },
            "1": {
                "event": {
                    "contract": "0xd533a949740bb3306d119cc777fa900ba034cd52",
                    "decodedLog": {
                        "name": "Transfer",
                        "params": [
                            {
                                "name": "from",
                                "type": "address",
                                "value": "0x4a2bfa4666e979656cba134312e90ad86a83d52b"
                            },
                            {
                                "name": "to",
                                "type": "address",
                                "value": "0x738cf6903e6c4e699d1c2dd9ab8b67fcdb3121ea"
                            },
                            {
                                "decimalAvailable": true,
                                "name": "value",
                                "type": "uint256",
                                "value": "9,671,000,000,000,000,000,000"
                            }
                        ],
                        "signature": "Transfer(address,address,uint256)"
                    },
                    "id": 1,
                    "logData": "0x00000000000000000000000000000000000000000000020c4415fcd892bc0000",
                    "logDecoded": true,
                    "operation": "EVENT",
                    "revert": false,
                    "status": true,
                    "topics": [
                        "0xddf252ad1be2c89b69c2b068fc378daa952ba7f163c4a11628f55a4df523b3ef",
                        "0x0000000000000000000000004a2bfa4666e979656cba134312e90ad86a83d52b",
                        "0x000000000000000000000000738cf6903e6c4e699d1c2dd9ab8b67fcdb3121ea"
                    ]
                },
                "nodeType": 1
            }
        },
        "gasFlame": [
            {
                "children": [
                    {
                        "children": [
                            {
                                "children": [],
                                "depth": 0,
                                "name": "Initial Gas",
                                "value": 22024
                            },
                            {
                                "children": [],
                                "depth": 0,
                                "name": "Executed Gas",
                                "value": 17842
                            }
                        ],
                        "depth": -1,
                        "name": "Actual Gas Used",
                        "value": 35066
                    },
                    {
                        "children": [],
                        "depth": -1,
                        "name": "Refunded Gas",
                        "value": 4800
                    }
                ],
                "depth": -2,
                "name": "Total Gas",
                "value": 39866
            }
        ],
        "isConfirmed": true,
        "mainTrace": [
            {
                "children": [
                    {
                        "children": [
                            {
                                "children": [],
                                "depth": 1,
                                "id": 1,
                                "order": 1
                            }
                        ],
                        "depth": 0,
                        "id": 0,
                        "order": 0
                    }
                ],
                "depth": -1,
                "id": -1,
                "order": -1
            }
        ],
        "mainTraceNodeCount": 2,
        "parentIdMap": {
            "0": -1,
            "1": 0
        },
        "tidyTrace": [
            {
                "children": [
                    {
                        "children": [
                            {
                                "children": [],
                                "depth": 1,
                                "id": 1,
                                "order": 1
                            }
                        ],
                        "depth": 0,
                        "id": 0,
                        "order": 0
                    }
                ],
                "depth": -1,
                "id": -1,
                "order": -1
            }
        ],
        "tidyTraceNodeCount": 2
    },
    "state_change": {
        "stateChanges": [
            {
                "address": "0xd533a949740bb3306d119cc777fa900ba034cd52",
                "erc": "",
                "slots": [
                    {
                        "current": "0x000000000000000000000000000000000000000000002f8884fca16c26cb66d8",
                        "key": "0x8d71a864404f0f463e1e4358cc05f9701a85be0d91cafe502f1ac7ca04c6f498",
                        "prev": "0x000000000000000000000000000000000000000000002d7c40e6a493940f66d8"
                    },
                    {
                        "current": "0xffffffffffffffffffffffffffffffffffffffffffff13b92915e36b348c7bff",
                        "key": "0x4390f0bb5f7897b69822acb2461953fef16dd5886e4755273619020387b65a48",
                        "prev": "0xffffffffffffffffffffffffffffffffffffffffffff15c56d2be043c7487bff"
                    },
                    {
                        "current": "0x0000000000000000000000000000000000000000000000000000000000000000",
                        "key": "0x6fdbb7f9dfa6e6d5ec634870c30e546f3262d1b6eb4ed1166159f09c571605b7",
                        "prev": "0x00000000000000000000000000000000000000000000020c4415fcd892bc0000"
                    }
                ],
                "storageVariables": []
            }
        ]
    }
}