{
    "balance_change": {
        "balanceChanges": []
    },
    "profile": {
        "basic_info": {
            "baseFee": "",
            "blockNumber": 7833802,
            "callData": "0xa9059cbb000000000000000000000000c97a4ed29f03fd549c4ae79086673523122d2bc500000000000000000000000000000000000000000000005c0c7bd39c45480000",
            "debugEnable": true,
            "errorInfo": "out of gas",
            "eventCount": 0,
            "feeRecipient": "0x84a0d77c693adabe0ebc48f88b3ffff010577051",
            "formatValue": "0",
            "gasLimit": 69768,
            "gasPrice": "1",
            "gasUsed": 69768,
            "intTxnCount": 1,
            "internalRevert": true,
            "internalRevertMessage": "",
            "isContractCreation": false,
            "isFlashloan": false,
            "maxFee": "",
            "nonce": 117,
            "overwritedBlockNumber": -1,
            "priorityFee": "",
            "receiver": "0x2af5d2ad76741191d15dfe7bf6ac92d4bd912ca3",
            "revertMessage": "",
            "sender": "0x5f82dd3701bc6fdc84d0bac6700b7c9fbade6a4f",
            "simulationEnable": true,
            "sourceTxnHash": "0xc2fe97f7c5cb58ebf229b74bb9a0067e9200549fa3a6e58248b3919f31ba2db6",
            "status": false,
            "timestamp": "2019-05-26T07:02:00Z",
            "transactionFee": "0.000069768",
            "txnHash": "0xc2fe97f7c5cb58ebf229b74bb9a0067e9200549fa3a6e58248b3919f31ba2db6",
            "txnIndex": 119,
            "type": 0,
            "value": "0"
        },
        "fund_flow": [],
        "token_infos": [
            {
                "address": "0xc02aaa39b223fe8d0a0e5c4f27ead9083c756cc2",
                "decimals": 18
            },
            {
                "address": "0xeeeeeeeeeeeeeeeeeeeeeeeeeeeeeeeeeeeeeeee",
                "decimals": 18
            }
        ]
    },
    "address_label": {
        "labels": [
            {
                "address": "0x2af5d2ad76741191d15dfe7bf6ac92d4bd912ca3",
                "label": "Bitfinex: LEO Token"
            },
            {
                "address": "0xc97a4ed29f03fd549c4ae79086673523122d2bc5",
                "label": "ZB.COM"
            },
            {
                "address": "0xf17ebb3a24dc6d6b56d38adf0df499c1cd9e5672",
                "label": "LEOController"
            },
            {
                "address": "0x0000000000000000000000000000000000000001",
                "label": "Precompiled"
            },
            {
                "address": "0x0000000000000000000000000000000000000002",
                "label": "Precompiled"
            },
            {
                "address": "0x0000000000000000000000000000000000000003",
                "label": "Precompiled"
            },
            {
                "address": "0x0000000000000000000000000000000000000004",
                "label": "Precompiled"
            },
            {
                "address": "0xeeeeeeeeeeeeeeeeeeeeeeeeeeeeeeeeeeeeeeee",
                "label": "Ether"
            }
        ]
    },
    "trace": {
        "accountLabels": null,
        "dataMap": {
            "-1": {
                "invocation": {
                    "address": "0x5f82dd3701bc6fdc84d0bac6700b7c9fbade6a4f",
                    "callData": "",
                    "decodedMethod": null,
                    "errorInfo": "",
                    "fromAddress": "",
                    "gasUsed": 0,
                    "id": -1,
                    "methodDecoded": false,
                    "operation": "",
                    "output": "",
                    "revert": false,
                    "revertMessage": "",
                    "selector": "",
                    "status": false,
                    "value": ""
                },
                "nodeType": 0
            },
            "0": {
                "invocation": {
                    "address": "0x2af5d2ad76741191d15dfe7bf6ac92d4bd912ca3",
                    "callData": "0x000000000000000000000000c97a4ed29f03fd549c4ae79086673523122d2bc500000000000000000000000000000000000000000000005c0c7bd39c45480000",
                    "decodedMethod": {
                        "callParams": [
                            {
                                "name": "_to",
                                "type": "address",
                                "value": "0xc97a4ed29f03fd549c4ae79086673523122d2bc5"
                            },
                            {
                                "decimalAvailable": true,
                                "name": "_amount",
                                "type": "uint256",
                                "value": "1,698,000,000,000,000,000,000"
                            }
                        ],
                        "constructorArguments": "",
                        "name": "transfer",
                        "returnParams": [],
                        "signature": "transfer(address,uint256)"
                    },
                    "errorInfo": "out of gas",
                    "fromAddress": "0x5f82dd3701bc6fdc84d0bac6700b7c9fbade6a4f",
                    "gasUsed": 69768,
                    "id": 0,
                    "methodDecoded": true,
                    "operation": "CALL",
                    "output": "",
                    "revert": true,
                    "revertMessage": "",
                    "selector": "0xa9059cbb",
                    "status": false,
                    "value": "0"
                },
                "nodeType": 0
            },
            "1": {
                "invocation": {
                    "address": "0xf17ebb3a24dc6d6b56d38adf0df499c1cd9e5672",
                    "callData": "0x0000000000000000000000005f82dd3701bc6fdc84d0bac6700b7c9fbade6a4f000000000000000000000000c97a4ed29f03fd549c4ae79086673523122d2bc500000000000000000000000000000000000000000000005c0c7bd39c45480000",
                    "decodedMethod": {
                        "callParams": [
                            {
                                "name": "_from",
                                "type": "address",
                                "value": "0x5f82dd3701bc6fdc84d0bac6700b7c9fbade6a4f"
                            },
                            {
                                "name": "_to",
                                "type": "address",
                                "value": "0xc97a4ed29f03fd549c4ae79086673523122d2bc5"
                            },
                            {
                                "name": "_amount",
                                "type": "uint256",
                                "value": "1,698,000,000,000,000,000,000"
                            }
                        ],
                        "constructorArguments": "",
                        "name": "onTransfer",
                        "returnParams": [
                            {
                                "name": "",
                                "type": "bool",
                                "value": true
                            }
                        ],
                        "signature": "onTransfer(address,address,uint256)"
                    },
                    "errorInfo": "",
                    "fromAddress": "0x2af5d2ad76741191d15dfe7bf6ac92d4bd912ca3",
                    "gasUsed": 352,
                    "id": 1,
                    "methodDecoded": true,
                    "operation": "CALL",
                    "output": "0x0000000000000000000000000000000000000000000000000000000000000001",
                    "revert": true,
                    "revertMessage": "",
                    "selector": "0x4a393149",
                    "status": true,
                    "value": "0"
                },
                "nodeType": 0
            }
        },
        "gasFlame": [
            {
                "children": [
                    {
                        "children": [
                            {
                                "children": [],
                                "depth": 0,
                                "name": "Initial Gas",
                                "value": 23256
                            },
                            {
                                "children": [
                                    {
                                        "children": [],
                                        "depth": 1,
                                        "name": "onTransfer",
                                        "value": 352
                                    }
                                ],
                                "depth": 0,
                                "name": "Executed Gas",
                                "value": 46512
                            }
                        ],
                        "depth": -1,
                        "name": "Actual Gas Used",
                        "value": 69768
                    },
                    {
                        "children": [],
                        "depth": -1,
                        "name": "Refunded Gas",
                        "value": 0
                    }
                ],
                "depth": -2,
                "name": "Total Gas",
                "value": 69768
            }
        ],
        "isConfirmed": true,
        "mainTrace": [
            {
                "children": [
                    {
                        "children": [
                            {
                                "children": [],
                                "depth": 1,
                                "id": 1,
                                "order": 1
                            }
                        ],
                        "depth": 0,
                        "id": 0,
                        "order": 0
                    }
                ],
                "depth": -1,
                "id": -1,
                "order": -1
            }
        ],
        "mainTraceNodeCount": 2,
        "parentIdMap": {
            "0": -1,
            "1": 0
        },
        "tidyTrace": [
            {
                "children": [
                    {
                        "children": [
                            {
                                "children": [],
                                "depth": 1,
                                "id": 1,
                                "order": 1
                            }
                        ],
                        "depth": 0,
                        "id": 0,
                        "order": 0
                    }
                ],
                "depth": -1,
                "id": -1,
                "order": -1
            }
        ],
        "tidyTraceNodeCount": 2
    },
    "state_change": {
        "stateChanges": []
    }
}