{
    "balance_change": {
        "balanceChanges": [
            {
                "account": "0x95b564f3b3bae3f206aa418667ba000afafacc8a",
                "assets": [
                    {
                        "address": "0xbbbbca6a901c926f240b89eacb641d8aec7aeafd",
                        "amount": "177.13318712",
                        "iconUrl": "https://assets.blocksec.com/icon/b44c7803f30d044afb35b86db54944b24bd583cd9e51110a0bd435181df22ae6.png",
                        "isERC1155": false,
                        "isERC721": false,
                        "sign": true,
                        "value": "66.71711001"
                    }
                ]
            },
            {
                "account": "0xc891324493da54ddc1c3840d57e44172f3d1741e",
                "assets": [
                    {
                        "address": "0xbbbbca6a901c926f240b89eacb641d8aec7aeafd",
                        "amount": "177.13318712",
                        "iconUrl": "https://assets.blocksec.com/icon/b44c7803f30d044afb35b86db54944b24bd583cd9e51110a0bd435181df22ae6.png",
                        "isERC1155": false,
                        "isERC721": false,
                        "sign": false,
                        "value": "66.71711001"
                    }
                ]
            }
        ]
    },
    "profile": {
        "basic_info": {
            "baseFee": "5.451464355",
            "blockNumber": 15066609,
            "callData": "0x23b872dd000000000000000000000000c891324493da54ddc1c3840d57e44172f3d1741e00000000000000000000000095b564f3b3bae3f206aa418667ba000afafacc8a0000000000000000000000000000000000000000000000099a377f319c65e000",
            "debugEnable": true,
            "errorInfo": "",
            "eventCount": 1,
            "feeRecipient": "0xab3b229eb4bcff881275e7ea2f0fd24eeac8c83a",
            "formatValue": "0",
            "gasLimit": 200000,
            "gasPrice": "7.651464355",
            "gasUsed": 32729,
            "intTxnCount": 0,
            "internalRevert": false,
            "internalRevertMessage": "",
            "isContractCreation": false,
            "isFlashloan": false,
            "maxFee": "9.938160797",
            "nonce": 108369,
            "overwritedBlockNumber": -1,
            "priorityFee": "2.2",
            "receiver": "0xbbbbca6a901c926f240b89eacb641d8aec7aeafd",
            "revertMessage": "",
            "sender": "0x1a1c87d9a6f55d3bbb064bff1059ad37b6bdc097",
            "simulationEnable": true,
            "sourceTxnHash": "0xc27093a1e717f5c22f0d4eb2f22fed47a8702d01f8cdd51e17353ed25766ae90",
            "status": true,
            "timestamp": "2022-07-03T01:33:41Z",
            "transactionFee": "0.000250424776874795",
            "txnHash": "0xc27093a1e717f5c22f0d4eb2f22fed47a8702d01f8cdd51e17353ed25766ae90",
            "txnIndex": 36,
            "type": 2,
            "value": "0"
        },
        "fund_flow": [
            {
                "amount": "177.13318712",
                "from": "0xc891324493da54ddc1c3840d57e44172f3d1741e",
                "id": 1,
                "isERC1155": false,
                "isERC721": false,
                "isReverted": false,
                "order": 1,
                "to": "0x95b564f3b3bae3f206aa418667ba000afafacc8a",
                "token": "0xbbbbca6a901c926f240b89eacb641d8aec7aeafd"
            }
        ],
        "token_infos": [
            {
                "address": "0xeeeeeeeeeeeeeeeeeeeeeeeeeeeeeeeeeeeeeeee",
                "decimals": 18
            },
            {
                "address": "0xbbbbca6a901c926f240b89eacb641d8aec7aeafd",
                "decimals": 18
            },
            {
                "address": "0xc02aaa39b223fe8d0a0e5c4f27ead9083c756cc2",
                "decimals": 18
            }
        ]
    },
    "address_label": {
        "labels": [
            {
                "address": "0x0000000000000000000000000000000000000001",
                "label": "Precompiled"
            },
            {
                "address": "0x0000000000000000000000000000000000000002",
                "label": "Precompiled"
            },
            {
                "address": "0x0000000000000000000000000000000000000003",
                "label": "Precompiled"
            },
            {
                "address": "0x0000000000000000000000000000000000000004",
                "label": "Precompiled"
            },
            {
                "address": "0xeeeeeeeeeeeeeeeeeeeeeeeeeeeeeeeeeeeeeeee",
                "label": "Ether"
            },
            {
                "address": "0x1a1c87d9a6f55d3bbb064bff1059ad37b6bdc097",
                "label": "Bitvavo: Deposit Funder"
            },
            {
                "address": "0xbbbbca6a901c926f240b89eacb641d8aec7aeafd",
                "label": "Loopring: LRC Token"
            },
            {
                "address": "0x95b564f3b3bae3f206aa418667ba000afafacc8a",
                "label": "Bitvavo: Hot 2"
            }
        ]
    },
    "trace": {
        "accountLabels": null,
        "dataMap": {
            "-1": {
                "invocation": {
                    "address": "0x1a1c87d9a6f55d3bbb064bff1059ad37b6bdc097",
                    "callData": "",
                    "decodedMethod": null,
                    "errorInfo": "",
                    "fromAddress": "",
                    "gasUsed": 0,
                    "id": -1,
                    "methodDecoded": false,
                    "operation": "",
                    "output": "",
                    "revert": false,
                    "revertMessage": "",
                    "selector": "",
                    "status": false,
                    "value": ""
                },
                "nodeType": 0
            },
            "0": {
                "invocation": {
                    "address": "0xbbbbca6a901c926f240b89eacb641d8aec7aeafd",
                    "callData": "0x000000000000000000000000c891324493da54ddc1c3840d57e44172f3d1741e00000000000000000000000095b564f3b3bae3f206aa418667ba000afafacc8a0000000000000000000000000000000000000000000000099a377f319c65e000",
                    "decodedMethod": {
                        "callParams": [
                            {
                                "name": "_from",
                                "type": "address",
                                "value": "0xc891324493da54ddc1c3840d57e44172f3d1741e"
                            },
                            {
                                "name": "_to",
                                "type": "address",
                                "value": "0x95b564f3b3bae3f206aa418667ba000afafacc8a"
                            },
                            {
                                "decimalAvailable": true,
                                "name": "_value",
                                "type": "uint256",
                                "value": "177,133,187,120,000,000,000"
                            }
                        ],
                        "constructorArguments": "",
                        "name": "transferFrom",
                        "returnParams": [
                            {
                                "name": "",
                                "type": "bool",
                                "value": true
                            }
                        ],
                        "signature": "transferFrom(address,address,uint256)"
                    },
                    "errorInfo": "",
                    "fromAddress": "0x1a1c87d9a6f55d3bbb064bff1059ad37b6bdc097",
                    "gasUsed": 32729,
                    "id": 0,
                    "methodDecoded": true,
                    "operation": "CALL",
                    "output": "0x0000000000000000000000000000000000000000000000000000000000000001",
                    "revert": false,
                    "revertMessage": "",
                    "selector": "0x23b872dd",
                    "status": true,
                    "value": "0"
                },
                "nodeType": 0
            },
            "1": {
                "event": {
                    "contract": "0xbbbbca6a901c926f240b89eacb641d8aec7aeafd",
                    "decodedLog": {
                        "name": "Transfer",
                        "params": [
                            {
                                "name": "from",
                                "type": "address",
                                "value": "0xc891324493da54ddc1c3840d57e44172f3d1741e"
                            },
                            {
                                "name": "to",
                                "type": "address",
                                "value": "0x95b564f3b3bae3f206aa418667ba000afafacc8a"
                            },
                            {
                                "decimalAvailable": true,
                                "name": "value",
                                "type": "uint256",
                                "value": "177,133,187,120,000,000,000"
                            }
                        ],
                        "signature": "Transfer(address,address,uint256)"
                    },
                    "id": 1,
                    "logData": "0x0000000000000000000000000000000000000000000000099a377f319c65e000",
                    "logDecoded": true,
                    "operation": "EVENT",
                    "revert": false,
                    "status": true,
                    "topics": [
                        "0xddf252ad1be2c89b69c2b068fc378daa952ba7f163c4a11628f55a4df523b3ef",
                        "0x000000000000000000000000c891324493da54ddc1c3840d57e44172f3d1741e",
                        "0x00000000000000000000000095b564f3b3bae3f206aa418667ba000afafacc8a"
                    ]
                },
                "nodeType": 1
            }
        },
        "gasFlame": [
            {
                "children": [
                    {
                        "children": [
                            {
                                "children": [],
                                "depth": 0,
                                "name": "Initial Gas",
                                "value": 22012
                            },
                            {
                                "children": [],
                                "depth": 0,
                                "name": "Executed Gas",
                                "value": 15517
                            }
                        ],
                        "depth": -1,
                        "name": "Actual Gas Used",
                        "value": 32729
                    },
                    {
                        "children": [],
                        "depth": -1,
                        "name": "Refunded Gas",
                        "value": 4800
                    }
                ],
                "depth": -2,
                "name": "Total Gas",
                "value": 37529
            }
        ],
        "isConfirmed": true,
        "mainTrace": [
            {
                "children": [
                    {
                        "children": [
                            {
                                "children": [],
                                "depth": 1,
                                "id": 1,
                                "order": 1
                            }
                        ],
                        "depth": 0,
                        "id": 0,
                        "order": 0
                    }
                ],
                "depth": -1,
                "id": -1,
                "order": -1
            }
        ],
        "mainTraceNodeCount": 2,
        "parentIdMap": {
            "0": -1,
            "1": 0
        },
        "tidyTrace": [
            {
                "children": [
                    {
                        "children": [
                            {
                                "children": [],
                                "depth": 1,
                                "id": 1,
                                "order": 1
                            }
                        ],
                        "depth": 0,
                        "id": 0,
                        "order": 0
                    }
                ],
                "depth": -1,
                "id": -1,
                "order": -1
            }
        ],
        "tidyTraceNodeCount": 2
    },
    "state_change": {
        "stateChanges": [
            {
                "address": "0xbbbbca6a901c926f240b89eacb641d8aec7aeafd",
                "erc": "ERC-20",
                "slots": [
                    {
                        "current": "0x000000000000000000000000000000000000000000001dd9f4d22b31573c6b11",
                        "key": "0x59d2b8842110e5d9e5a3c11b7ca2cffa43b22e96cca2a87097d9c6e3e6c2dba0",
                        "prev": "0x000000000000000000000000000000000000000000001dd05a9aabffbad68b11"
                    },
                    {
                        "current": "0x0000000000000000000000000000000000000000000000000000000000000000",
                        "key": "0x30ec03ac07747b1a626f035f92a6d50d530974e44af54c466605cf9450aa1f8e",
                        "prev": "0x0000000000000000000000000000000000000000000000099a377f319c65e000"
                    }
                ],
                "storageVariables": [
                    {
                        "name": "balances",
                        "type": "mapping(address => uint256)",
                        "value": {
                            "pairs": [
                                {
                                    "key": "0x95b564f3b3bae3f206aa418667ba000afafacc8a",
                                    "value": {
                                        "current": "140969212677395964521233",
                                        "prev": "140792079490275964521233",
                                        "typeTag": 1
                                    }
                                },
                                {
                                    "key": "0xc891324493da54ddc1c3840d57e44172f3d1741e",
                                    "value": {
                                        "current": "0",
                                        "prev": "177133187120000000000",
                                        "typeTag": 1
                                    }
                                }
                            ],
                            "typeTag": 4
                        }
                    }
                ]
            }
        ]
    }
}