{
    "balance_change": {
        "balanceChanges": [
            {
                "account": "0x90010b30ddea9bbbc38f0bce4cd61f2f7239e769",
                "assets": [
                    {
                        "address": "0x1f573d6fb3f13d689ff844b4ce37794d79a7ff1c",
                        "amount": "20,304.23",
                        "iconUrl": "https://assets.blocksec.com/icon/2134050168d6c4780030be02f0a6ca44fe9e3462a2cefed4fac3abde8839c5b0.png",
                        "isERC1155": false,
                        "isERC721": false,
                        "sign": false,
                        "value": "17741.83617400000043"
                    }
                ]
            },
            {
                "account": "0x8c54ebdd960056d2cff5998df5695daca1fc0190",
                "assets": [
                    {
                        "address": "0x1f573d6fb3f13d689ff844b4ce37794d79a7ff1c",
                        "amount": "20,304.23",
                        "iconUrl": "https://assets.blocksec.com/icon/2134050168d6c4780030be02f0a6ca44fe9e3462a2cefed4fac3abde8839c5b0.png",
                        "isERC1155": false,
                        "isERC721": false,
                        "sign": true,
                        "value": "17741.83617400000043"
                    }
                ]
            }
        ]
    },
    "profile": {
        "basic_info": {
            "baseFee": "21.216523067",
            "blockNumber": 18560982,
            "callData": "0xa9059cbb0000000000000000000000008c54ebdd960056d2cff5998df5695daca1fc019000000000000000000000000000000000000000000000044cb1cba89435970000",
            "debugEnable": true,
            "errorInfo": "",
            "eventCount": 1,
            "feeRecipient": "0xdafea492d9c6733ae3d56b7ed1adb60692c98bc5",
            "formatValue": "0",
            "gasLimit": 80000,
            "gasPrice": "23.216523067",
            "gasUsed": 32496,
            "intTxnCount": 0,
            "internalRevert": false,
            "internalRevertMessage": "",
            "isContractCreation": false,
            "isFlashloan": false,
            "maxFee": "43.36155674",
            "nonce": 467,
            "overwritedBlockNumber": -1,
            "priorityFee": "2",
            "receiver": "0x1f573d6fb3f13d689ff844b4ce37794d79a7ff1c",
            "revertMessage": "",
            "sender": "0x90010b30ddea9bbbc38f0bce4cd61f2f7239e769",
            "simulationEnable": true,
            "sourceTxnHash": "0xc27655fdf2f0a5f708a938baa8c44a9a80da6d64946c3822f05ff3871d4b8f8f",
            "status": true,
            "timestamp": "2023-11-13T05:44:23Z",
            "transactionFee": "0.000754444133585232",
            "txnHash": "0xc27655fdf2f0a5f708a938baa8c44a9a80da6d64946c3822f05ff3871d4b8f8f",
            "txnIndex": 30,
            "type": 2,
            "value": "0"
        },
        "fund_flow": [
            {
                "amount": "20,304.23",
                "from": "0x90010b30ddea9bbbc38f0bce4cd61f2f7239e769",
                "id": 1,
                "isERC1155": false,
                "isERC721": false,
                "isReverted": false,
                "order": 1,
                "to": "0x8c54ebdd960056d2cff5998df5695daca1fc0190",
                "token": "0x1f573d6fb3f13d689ff844b4ce37794d79a7ff1c"
            }
        ],
        "token_infos": [
            {
                "address": "0x1f573d6fb3f13d689ff844b4ce37794d79a7ff1c",
                "decimals": 18
            },
            {
                "address": "0xc02aaa39b223fe8d0a0e5c4f27ead9083c756cc2",
                "decimals": 18
            },
            {
                "address": "0xeeeeeeeeeeeeeeeeeeeeeeeeeeeeeeeeeeeeeeee",
                "decimals": 18
            }
        ]
    },
    "address_label": {
        "labels": [
            {
                "address": "0x0000000000000000000000000000000000000002",
                "label": "Precompiled"
            },
            {
                "address": "0x0000000000000000000000000000000000000003",
                "label": "Precompiled"
            },
            {
                "address": "0x0000000000000000000000000000000000000004",
                "label": "Precompiled"
            },
            {
                "address": "0xeeeeeeeeeeeeeeeeeeeeeeeeeeeeeeeeeeeeeeee",
                "label": "Ether"
            },
            {
                "address": "0x8c54ebdd960056d2cff5998df5695daca1fc0190",
                "label": "BtcTurk 7"
            },
            {
                "address": "0x1f573d6fb3f13d689ff844b4ce37794d79a7ff1c",
                "label": "Bancor: BNT Token"
            },
            {
                "address": "0x0000000000000000000000000000000000000001",
                "label": "Precompiled"
            }
        ]
    },
    "trace": {
        "accountLabels": null,
        "dataMap": {
            "-1": {
                "invocation": {
                    "address": "0x90010b30ddea9bbbc38f0bce4cd61f2f7239e769",
                    "callData": "",
                    "decodedMethod": null,
                    "errorInfo": "",
                    "fromAddress": "",
                    "gasUsed": 0,
                    "id": -1,
                    "methodDecoded": false,
                    "operation": "",
                    "output": "",
                    "revert": false,
                    "revertMessage": "",
                    "selector": "",
                    "status": false,
                    "value": ""
                },
                "nodeType": 0
            },
            "0": {
                "invocation": {
                    "address": "0x1f573d6fb3f13d689ff844b4ce37794d79a7ff1c",
                    "callData": "0x0000000000000000000000008c54ebdd960056d2cff5998df5695daca1fc019000000000000000000000000000000000000000000000044cb1cba89435970000",
                    "decodedMethod": {
                        "callParams": [
                            {
                                "name": "_to",
                                "type": "address",
                                "value": "0x8c54ebdd960056d2cff5998df5695daca1fc0190"
                            },
                            {
                                "decimalAvailable": true,
                                "name": "_value",
                                "type": "uint256",
                                "value": "20,304,230,000,000,000,000,000"
                            }
                        ],
                        "constructorArguments": "",
                        "name": "transfer",
                        "returnParams": [
                            {
                                "name": "success",
                                "type": "bool",
                                "value": true
                            }
                        ],
                        "signature": "transfer(address,uint256)"
                    },
                    "errorInfo": "",
                    "fromAddress": "0x90010b30ddea9bbbc38f0bce4cd61f2f7239e769",
                    "gasUsed": 32496,
                    "id": 0,
                    "methodDecoded": true,
                    "operation": "CALL",
                    "output": "0x0000000000000000000000000000000000000000000000000000000000000001",
                    "revert": false,
                    "revertMessage": "",
                    "selector": "0xa9059cbb",
                    "status": true,
                    "value": "0"
                },
                "nodeType": 0
            },
            "1": {
                "event": {
                    "contract": "0x1f573d6fb3f13d689ff844b4ce37794d79a7ff1c",
                    "decodedLog": {
                        "name": "Transfer",
                        "params": [
                            {
                                "name": "_from",
                                "type": "address",
                                "value": "0x90010b30ddea9bbbc38f0bce4cd61f2f7239e769"
                            },
                            {
                                "name": "_to",
                                "type": "address",
                                "value": "0x8c54ebdd960056d2cff5998df5695daca1fc0190"
                            },
                            {
                                "decimalAvailable": true,
                                "name": "_value",
                                "type": "uint256",
                                "value": "20,304,230,000,000,000,000,000"
                            }
                        ],
                        "signature": "Transfer(address,address,uint256)"
                    },
                    "id": 1,
                    "logData": "0x00000000000000000000000000000000000000000000044cb1cba89435970000",
                    "logDecoded": true,
                    "operation": "EVENT",
                    "revert": false,
                    "status": true,
                    "topics": [
                        "0xddf252ad1be2c89b69c2b068fc378daa952ba7f163c4a11628f55a4df523b3ef",
                        "0x00000000000000000000000090010b30ddea9bbbc38f0bce4cd61f2f7239e769",
                        "0x0000000000000000000000008c54ebdd960056d2cff5998df5695daca1fc0190"
                    ]
                },
                "nodeType": 1
            }
        },
        "gasFlame": [
            {
                "children": [
                    {
                        "children": [
                            {
                                "children": [],
                                "depth": 0,
                                "name": "Initial Gas",
                                "value": 21644
                            },
                            {
                                "children": [],
                                "depth": 0,
                                "name": "Executed Gas",
                                "value": 15652
                            }
                        ],
                        "depth": -1,
                        "name": "Actual Gas Used",
                        "value": 32496
                    },
                    {
                        "children": [],
                        "depth": -1,
                        "name": "Refunded Gas",
                        "value": 4800
                    }
                ],
                "depth": -2,
                "name": "Total Gas",
                "value": 37296
            }
        ],
        "isConfirmed": true,
        "mainTrace": [
            {
                "children": [
                    {
                        "children": [
                            {
                                "children": [],
                                "depth": 1,
                                "id": 1,
                                "order": 1
                            }
                        ],
                        "depth": 0,
                        "id": 0,
                        "order": 0
                    }
                ],
                "depth": -1,
                "id": -1,
                "order": -1
            }
        ],
        "mainTraceNodeCount": 2,
        "parentIdMap": {
            "0": -1,
            "1": 0
        },
        "tidyTrace": [
            {
                "children": [
                    {
                        "children": [
                            {
                                "children": [],
                                "depth": 1,
                                "id": 1,
                                "order": 1
                            }
                        ],
                        "depth": 0,
                        "id": 0,
                        "order": 0
                    }
                ],
                "depth": -1,
                "id": -1,
                "order": -1
            }
        ],
        "tidyTraceNodeCount": 2
    },
    "state_change": {
        "stateChanges": [
            {
                "address": "0x1f573d6fb3f13d689ff844b4ce37794d79a7ff1c",
                "erc": "ERC-20",
                "slots": [
                    {
                        "current": "0x0000000000000000000000000000000000000000000000000000000000000000",
                        "key": "0xb5a7fdc37c97877fff1c1f69f1be8e358af307082b0f4f656d199c2808b0a884",
                        "prev": "0x00000000000000000000000000000000000000000000044cb1cba89435970000"
                    },
                    {
                        "current": "0x00000000000000000000000000000000000000000000cb766d78c57c3be4c1c6",
                        "key": "0xc353799381969a13d2f0458303d2e16ca24b00a50c0aad4100f687635446e4e8",
                        "prev": "0x00000000000000000000000000000000000000000000c729bbad1ce8064dc1c6"
                    }
                ],
                "storageVariables": []
            }
        ]
    }
}