{
    "balance_change": {
        "balanceChanges": [
            {
                "account": "0x5d081a2818435ef98dff8732c6133ed1aeb110ae",
                "assets": [
                    {
                        "address": "0x1f0480a66883de97d2b054929252aae8f664c15c",
                        "amount": "288.432245361950667522",
                        "iconUrl": "",
                        "isERC1155": false,
                        "isERC721": false,
                        "sign": false,
                        "value": ""
                    }
                ]
            },
            {
                "account": "0x8dc682bbbd05159345842b811b5ffc02e86b51ca",
                "assets": [
                    {
                        "address": "0x1f0480a66883de97d2b054929252aae8f664c15c",
                        "amount": "288.432245361950667522",
                        "iconUrl": "",
                        "isERC1155": false,
                        "isERC721": false,
                        "sign": true,
                        "value": ""
                    }
                ]
            }
        ]
    },
    "profile": {
        "basic_info": {
            "baseFee": "",
            "blockNumber": 5756594,
            "callData": "0xa9059cbb0000000000000000000000008dc682bbbd05159345842b811b5ffc02e86b51ca00000000000000000000000000000000000000000000000fa2cd2efa27613302",
            "debugEnable": true,
            "errorInfo": "",
            "eventCount": 1,
            "feeRecipient": "0xb2930b35844a230f00e51431acae96fe543a0347",
            "formatValue": "0",
            "gasLimit": 37393,
            "gasPrice": "3.77",
            "gasUsed": 22393,
            "intTxnCount": 0,
            "internalRevert": false,
            "internalRevertMessage": "",
            "isContractCreation": false,
            "isFlashloan": false,
            "maxFee": "",
            "nonce": 1,
            "overwritedBlockNumber": -1,
            "priorityFee": "",
            "receiver": "0x1f0480a66883de97d2b054929252aae8f664c15c",
            "revertMessage": "",
            "sender": "0x5d081a2818435ef98dff8732c6133ed1aeb110ae",
            "simulationEnable": true,
            "sourceTxnHash": "0xc275cae9eabfa5c5f26ca156e8bcd75d41811dc9f1364034555241a8867dc6d7",
            "status": true,
            "timestamp": "2018-06-09T02:20:42Z",
            "transactionFee": "0.00008442161",
            "txnHash": "0xc275cae9eabfa5c5f26ca156e8bcd75d41811dc9f1364034555241a8867dc6d7",
            "txnIndex": 270,
            "type": 0,
            "value": "0"
        },
        "fund_flow": [
            {
                "amount": "288.432245361950667522",
                "from": "0x5d081a2818435ef98dff8732c6133ed1aeb110ae",
                "id": 1,
                "isERC1155": false,
                "isERC721": false,
                "isReverted": false,
                "order": 1,
                "to": "0x8dc682bbbd05159345842b811b5ffc02e86b51ca",
                "token": "0x1f0480a66883de97d2b054929252aae8f664c15c"
            }
        ],
        "token_infos": [
            {
                "address": "0x1f0480a66883de97d2b054929252aae8f664c15c",
                "decimals": 18
            },
            {
                "address": "0xc02aaa39b223fe8d0a0e5c4f27ead9083c756cc2",
                "decimals": 18
            },
            {
                "address": "0xeeeeeeeeeeeeeeeeeeeeeeeeeeeeeeeeeeeeeeee",
                "decimals": 18
            }
        ]
    },
    "address_label": {
        "labels": [
            {
                "address": "0xeeeeeeeeeeeeeeeeeeeeeeeeeeeeeeeeeeeeeeee",
                "label": "Ether"
            },
            {
                "address": "0x1f0480a66883de97d2b054929252aae8f664c15c",
                "label": "NePay (NEP)"
            },
            {
                "address": "0x0000000000000000000000000000000000000001",
                "label": "Precompiled"
            },
            {
                "address": "0x0000000000000000000000000000000000000002",
                "label": "Precompiled"
            },
            {
                "address": "0x0000000000000000000000000000000000000003",
                "label": "Precompiled"
            },
            {
                "address": "0x0000000000000000000000000000000000000004",
                "label": "Precompiled"
            }
        ]
    },
    "trace": {
        "accountLabels": null,
        "dataMap": {
            "-1": {
                "invocation": {
                    "address": "0x5d081a2818435ef98dff8732c6133ed1aeb110ae",
                    "callData": "",
                    "decodedMethod": null,
                    "errorInfo": "",
                    "fromAddress": "",
                    "gasUsed": 0,
                    "id": -1,
                    "methodDecoded": false,
                    "operation": "",
                    "output": "",
                    "revert": false,
                    "revertMessage": "",
                    "selector": "",
                    "status": false,
                    "value": ""
                },
                "nodeType": 0
            },
            "0": {
                "invocation": {
                    "address": "0x1f0480a66883de97d2b054929252aae8f664c15c",
                    "callData": "0x0000000000000000000000008dc682bbbd05159345842b811b5ffc02e86b51ca00000000000000000000000000000000000000000000000fa2cd2efa27613302",
                    "decodedMethod": {
                        "callParams": [
                            {
                                "name": "_to",
                                "type": "address",
                                "value": "0x8dc682bbbd05159345842b811b5ffc02e86b51ca"
                            },
                            {
                                "decimalAvailable": true,
                                "name": "_amount",
                                "type": "uint256",
                                "value": "288,432,245,361,950,667,522"
                            }
                        ],
                        "constructorArguments": "",
                        "name": "transfer",
                        "returnParams": [
                            {
                                "name": "success",
                                "type": "bool",
                                "value": true
                            }
                        ],
                        "signature": "transfer(address,uint256)"
                    },
                    "errorInfo": "",
                    "fromAddress": "0x5d081a2818435ef98dff8732c6133ed1aeb110ae",
                    "gasUsed": 22393,
                    "id": 0,
                    "methodDecoded": true,
                    "operation": "CALL",
                    "output": "0x0000000000000000000000000000000000000000000000000000000000000001",
                    "revert": false,
                    "revertMessage": "",
                    "selector": "0xa9059cbb",
                    "status": true,
                    "value": "0"
                },
                "nodeType": 0
            },
            "1": {
                "event": {
                    "contract": "0x1f0480a66883de97d2b054929252aae8f664c15c",
                    "decodedLog": {
                        "name": "Transfer",
                        "params": [
                            {
                                "name": "_from",
                                "type": "address",
                                "value": "0x5d081a2818435ef98dff8732c6133ed1aeb110ae"
                            },
                            {
                                "name": "_to",
                                "type": "address",
                                "value": "0x8dc682bbbd05159345842b811b5ffc02e86b51ca"
                            },
                            {
                                "decimalAvailable": true,
                                "name": "_value",
                                "type": "uint256",
                                "value": "288,432,245,361,950,667,522"
                            }
                        ],
                        "signature": "Transfer(address,address,uint256)"
                    },
                    "id": 1,
                    "logData": "0x00000000000000000000000000000000000000000000000fa2cd2efa27613302",
                    "logDecoded": true,
                    "operation": "EVENT",
                    "revert": false,
                    "status": true,
                    "topics": [
                        "0xddf252ad1be2c89b69c2b068fc378daa952ba7f163c4a11628f55a4df523b3ef",
                        "0x0000000000000000000000005d081a2818435ef98dff8732c6133ed1aeb110ae",
                        "0x0000000000000000000000008dc682bbbd05159345842b811b5ffc02e86b51ca"
                    ]
                },
                "nodeType": 1
            }
        },
        "gasFlame": [
            {
                "children": [
                    {
                        "children": [
                            {
                                "children": [],
                                "depth": 0,
                                "name": "Initial Gas",
                                "value": 23384
                            },
                            {
                                "children": [],
                                "depth": 0,
                                "name": "Executed Gas",
                                "value": 14009
                            }
                        ],
                        "depth": -1,
                        "name": "Actual Gas Used",
                        "value": 22393
                    },
                    {
                        "children": [],
                        "depth": -1,
                        "name": "Refunded Gas",
                        "value": 15000
                    }
                ],
                "depth": -2,
                "name": "Total Gas",
                "value": 37393
            }
        ],
        "isConfirmed": true,
        "mainTrace": [
            {
                "children": [
                    {
                        "children": [
                            {
                                "children": [],
                                "depth": 1,
                                "id": 1,
                                "order": 1
                            }
                        ],
                        "depth": 0,
                        "id": 0,
                        "order": 0
                    }
                ],
                "depth": -1,
                "id": -1,
                "order": -1
            }
        ],
        "mainTraceNodeCount": 2,
        "parentIdMap": {
            "0": -1,
            "1": 0
        },
        "tidyTrace": [
            {
                "children": [
                    {
                        "children": [
                            {
                                "children": [],
                                "depth": 1,
                                "id": 1,
                                "order": 1
                            }
                        ],
                        "depth": 0,
                        "id": 0,
                        "order": 0
                    }
                ],
                "depth": -1,
                "id": -1,
                "order": -1
            }
        ],
        "tidyTraceNodeCount": 2
    },
    "state_change": {
        "stateChanges": [
            {
                "address": "0x1f0480a66883de97d2b054929252aae8f664c15c",
                "erc": "ERC-20",
                "slots": [
                    {
                        "current": "0x00000000000000000000000000000000000000000002795636eb879e91378d29",
                        "key": "0x05d6d5188049f58718cc984a729433b8effd0bd916f38eefa66009abcefe96c1",
                        "prev": "0x000000000000000000000000000000000000000000027946941e58a469d65a27"
                    },
                    {
                        "current": "0x0000000000000000000000000000000000000000000000000000000000000000",
                        "key": "0x5073b2e962191b237834e3e4dd5f5698af3c3e4ee90ec685180c0b18dd59c696",
                        "prev": "0x00000000000000000000000000000000000000000000000fa2cd2efa27613302"
                    }
                ],
                "storageVariables": [
                    {
                        "name": "balances",
                        "type": "mapping(address => uint256)",
                        "value": {
                            "pairs": [
                                {
                                    "key": "0x5d081a2818435ef98dff8732c6133ed1aeb110ae",
                                    "value": {
                                        "current": "0",
                                        "prev": "288432245361950667522",
                                        "typeTag": 1
                                    }
                                },
                                {
                                    "key": "0x8dc682bbbd05159345842b811b5ffc02e86b51ca",
                                    "value": {
                                        "current": "2990848361052637127740713",
                                        "prev": "2990559928807275177073191",
                                        "typeTag": 1
                                    }
                                }
                            ],
                            "typeTag": 4
                        }
                    }
                ]
            }
        ]
    }
}