{
    "balance_change": {
        "balanceChanges": [
            {
                "account": "0x382b98bc8b53e09404b7bb1eb861d38fd2ff4a1f",
                "assets": [
                    {
                        "address": "0x9f138d5d9e24186ec96b35e5b5530c907860a78d",
                        "amount": "375.03",
                        "iconUrl": "",
                        "isERC1155": false,
                        "isERC721": false,
                        "sign": false,
                        "value": ""
                    }
                ]
            },
            {
                "account": "0x0ef50dd9256d872c6ddb45742dbbd927a697843a",
                "assets": [
                    {
                        "address": "0x9f138d5d9e24186ec96b35e5b5530c907860a78d",
                        "amount": "375.03",
                        "iconUrl": "",
                        "isERC1155": false,
                        "isERC721": false,
                        "sign": true,
                        "value": ""
                    }
                ]
            }
        ]
    },
    "profile": {
        "basic_info": {
            "baseFee": "",
            "blockNumber": 6100450,
            "callData": "0xa9059cbb0000000000000000000000000ef50dd9256d872c6ddb45742dbbd927a697843a0000000000000000000000000000000000000000000000145496360182bf0000",
            "debugEnable": true,
            "errorInfo": "",
            "eventCount": 1,
            "feeRecipient": "0xea674fdde714fd979de3edf0f56aa9716b898ec8",
            "formatValue": "0",
            "gasLimit": 60000,
            "gasPrice": "3",
            "gasUsed": 21711,
            "intTxnCount": 0,
            "internalRevert": false,
            "internalRevertMessage": "",
            "isContractCreation": false,
            "isFlashloan": false,
            "maxFee": "",
            "nonce": 0,
            "overwritedBlockNumber": -1,
            "priorityFee": "",
            "receiver": "0x9f138d5d9e24186ec96b35e5b5530c907860a78d",
            "revertMessage": "",
            "sender": "0x382b98bc8b53e09404b7bb1eb861d38fd2ff4a1f",
            "simulationEnable": true,
            "sourceTxnHash": "0xc208ec8f9262f87774c425a5f36c64e08e5e01f9e5d5b72a64a604eebe08c4f7",
            "status": true,
            "timestamp": "2018-08-06T19:53:00Z",
            "transactionFee": "0.000065133",
            "txnHash": "0xc208ec8f9262f87774c425a5f36c64e08e5e01f9e5d5b72a64a604eebe08c4f7",
            "txnIndex": 58,
            "type": 0,
            "value": "0"
        },
        "fund_flow": [
            {
                "amount": "375.03",
                "from": "0x382b98bc8b53e09404b7bb1eb861d38fd2ff4a1f",
                "id": 1,
                "isERC1155": false,
                "isERC721": false,
                "isReverted": false,
                "order": 1,
                "to": "0x0ef50dd9256d872c6ddb45742dbbd927a697843a",
                "token": "0x9f138d5d9e24186ec96b35e5b5530c907860a78d"
            }
        ],
        "token_infos": [
            {
                "address": "0x9f138d5d9e24186ec96b35e5b5530c907860a78d",
                "decimals": 18
            },
            {
                "address": "0xc02aaa39b223fe8d0a0e5c4f27ead9083c756cc2",
                "decimals": 18
            },
            {
                "address": "0xeeeeeeeeeeeeeeeeeeeeeeeeeeeeeeeeeeeeeeee",
                "decimals": 18
            }
        ]
    },
    "address_label": {
        "labels": [
            {
                "address": "0xeeeeeeeeeeeeeeeeeeeeeeeeeeeeeeeeeeeeeeee",
                "label": "Ether"
            },
            {
                "address": "0x9f138d5d9e24186ec96b35e5b5530c907860a78d",
                "label": "BCB"
            },
            {
                "address": "0x0000000000000000000000000000000000000001",
                "label": "Precompiled"
            },
            {
                "address": "0x0000000000000000000000000000000000000002",
                "label": "Precompiled"
            },
            {
                "address": "0x0000000000000000000000000000000000000003",
                "label": "Precompiled"
            },
            {
                "address": "0x0000000000000000000000000000000000000004",
                "label": "Precompiled"
            }
        ]
    },
    "trace": {
        "accountLabels": null,
        "dataMap": {
            "-1": {
                "invocation": {
                    "address": "0x382b98bc8b53e09404b7bb1eb861d38fd2ff4a1f",
                    "callData": "",
                    "decodedMethod": null,
                    "errorInfo": "",
                    "fromAddress": "",
                    "gasUsed": 0,
                    "id": -1,
                    "methodDecoded": false,
                    "operation": "",
                    "output": "",
                    "revert": false,
                    "revertMessage": "",
                    "selector": "",
                    "status": false,
                    "value": ""
                },
                "nodeType": 0
            },
            "0": {
                "invocation": {
                    "address": "0x9f138d5d9e24186ec96b35e5b5530c907860a78d",
                    "callData": "0x0000000000000000000000000ef50dd9256d872c6ddb45742dbbd927a697843a0000000000000000000000000000000000000000000000145496360182bf0000",
                    "decodedMethod": {
                        "callParams": [
                            {
                                "name": "_toAcct",
                                "type": "address",
                                "value": "0x0ef50dd9256d872c6ddb45742dbbd927a697843a"
                            },
                            {
                                "decimalAvailable": true,
                                "name": "_value",
                                "type": "uint256",
                                "value": "375,030,000,000,000,000,000"
                            }
                        ],
                        "constructorArguments": "",
                        "name": "transfer",
                        "returnParams": [
                            {
                                "name": "success",
                                "type": "bool",
                                "value": true
                            }
                        ],
                        "signature": "transfer(address,uint256)"
                    },
                    "errorInfo": "",
                    "fromAddress": "0x382b98bc8b53e09404b7bb1eb861d38fd2ff4a1f",
                    "gasUsed": 21711,
                    "id": 0,
                    "methodDecoded": true,
                    "operation": "CALL",
                    "output": "0x0000000000000000000000000000000000000000000000000000000000000001",
                    "revert": false,
                    "revertMessage": "",
                    "selector": "0xa9059cbb",
                    "status": true,
                    "value": "0"
                },
                "nodeType": 0
            },
            "1": {
                "event": {
                    "contract": "0x9f138d5d9e24186ec96b35e5b5530c907860a78d",
                    "decodedLog": {
                        "name": "Transfer",
                        "params": [
                            {
                                "name": "fromAcct",
                                "type": "address",
                                "value": "0x382b98bc8b53e09404b7bb1eb861d38fd2ff4a1f"
                            },
                            {
                                "name": "toAcct",
                                "type": "address",
                                "value": "0x0ef50dd9256d872c6ddb45742dbbd927a697843a"
                            },
                            {
                                "decimalAvailable": true,
                                "name": "value",
                                "type": "uint256",
                                "value": "375,030,000,000,000,000,000"
                            }
                        ],
                        "signature": "Transfer(address,address,uint256)"
                    },
                    "id": 1,
                    "logData": "0x0000000000000000000000000000000000000000000000145496360182bf0000",
                    "logDecoded": true,
                    "operation": "EVENT",
                    "revert": false,
                    "status": true,
                    "topics": [
                        "0xddf252ad1be2c89b69c2b068fc378daa952ba7f163c4a11628f55a4df523b3ef",
                        "0x000000000000000000000000382b98bc8b53e09404b7bb1eb861d38fd2ff4a1f",
                        "0x0000000000000000000000000ef50dd9256d872c6ddb45742dbbd927a697843a"
                    ]
                },
                "nodeType": 1
            }
        },
        "gasFlame": [
            {
                "children": [
                    {
                        "children": [
                            {
                                "children": [],
                                "depth": 0,
                                "name": "Initial Gas",
                                "value": 23256
                            },
                            {
                                "children": [],
                                "depth": 0,
                                "name": "Executed Gas",
                                "value": 13455
                            }
                        ],
                        "depth": -1,
                        "name": "Actual Gas Used",
                        "value": 21711
                    },
                    {
                        "children": [],
                        "depth": -1,
                        "name": "Refunded Gas",
                        "value": 15000
                    }
                ],
                "depth": -2,
                "name": "Total Gas",
                "value": 36711
            }
        ],
        "isConfirmed": true,
        "mainTrace": [
            {
                "children": [
                    {
                        "children": [
                            {
                                "children": [],
                                "depth": 1,
                                "id": 1,
                                "order": 1
                            }
                        ],
                        "depth": 0,
                        "id": 0,
                        "order": 0
                    }
                ],
                "depth": -1,
                "id": -1,
                "order": -1
            }
        ],
        "mainTraceNodeCount": 2,
        "parentIdMap": {
            "0": -1,
            "1": 0
        },
        "tidyTrace": [
            {
                "children": [
                    {
                        "children": [
                            {
                                "children": [],
                                "depth": 1,
                                "id": 1,
                                "order": 1
                            }
                        ],
                        "depth": 0,
                        "id": 0,
                        "order": 0
                    }
                ],
                "depth": -1,
                "id": -1,
                "order": -1
            }
        ],
        "tidyTraceNodeCount": 2
    },
    "state_change": {
        "stateChanges": [
            {
                "address": "0x9f138d5d9e24186ec96b35e5b5530c907860a78d",
                "erc": "ERC-20",
                "slots": [
                    {
                        "current": "0x0000000000000000000000000000000000000000000000000000000000000000",
                        "key": "0x65017700935aa0b61a6a1af632714f21c69144d7f436a6441d3fe1f557977691",
                        "prev": "0x0000000000000000000000000000000000000000000000145496360182bf0000"
                    },
                    {
                        "current": "0x00000000000000000000000000000000000000000000640779442172ee30ce00",
                        "key": "0x19ac9884c14f7a55dcf4e0ae9186c0551b58c09eb0fcabcf6a0b53ee0febd6f3",
                        "prev": "0x0000000000000000000000000000000000000000000063f324adeb716b71ce00"
                    }
                ],
                "storageVariables": [
                    {
                        "name": "balances",
                        "type": "mapping(address => uint256)",
                        "value": {
                            "pairs": [
                                {
                                    "key": "0x0ef50dd9256d872c6ddb45742dbbd927a697843a",
                                    "value": {
                                        "current": "472374513641435000000000",
                                        "prev": "471999483641435000000000",
                                        "typeTag": 1
                                    }
                                },
                                {
                                    "key": "0x382b98bc8b53e09404b7bb1eb861d38fd2ff4a1f",
                                    "value": {
                                        "current": "0",
                                        "prev": "375030000000000000000",
                                        "typeTag": 1
                                    }
                                }
                            ],
                            "typeTag": 4
                        }
                    }
                ]
            }
        ]
    }
}