{
    "balance_change": {
        "balanceChanges": [
            {
                "account": "0xa532c9d27742a6152849a4619000beecf79ba3ac",
                "assets": [
                    {
                        "address": "0x986ee2b944c42d017f52af21c4c69b84dbea35d8",
                        "amount": "200",
                        "iconUrl": "https://assets.blocksec.com/icon/8783512a0c35b8170bdaa7d322d5134968dcdc36876ef765312efe3f236f3788.png",
                        "isERC1155": false,
                        "isERC721": false,
                        "sign": false,
                        "value": ""
                    }
                ]
            },
            {
                "account": "0xc230bfafa11ef596707c1c6bf2db42fe28f22a71",
                "assets": [
                    {
                        "address": "0x986ee2b944c42d017f52af21c4c69b84dbea35d8",
                        "amount": "200",
                        "iconUrl": "https://assets.blocksec.com/icon/8783512a0c35b8170bdaa7d322d5134968dcdc36876ef765312efe3f236f3788.png",
                        "isERC1155": false,
                        "isERC721": false,
                        "sign": true,
                        "value": ""
                    }
                ]
            }
        ]
    },
    "profile": {
        "basic_info": {
            "baseFee": "",
            "blockNumber": 6493390,
            "callData": "0xa9059cbb000000000000000000000000c230bfafa11ef596707c1c6bf2db42fe28f22a7100000000000000000000000000000000000000000000000ad78ebc5ac6200000",
            "debugEnable": true,
            "errorInfo": "",
            "eventCount": 1,
            "feeRecipient": "0x6bbe0a82d06af41b97a49b1b9f0bc7d3cfcc11c0",
            "formatValue": "0",
            "gasLimit": 52532,
            "gasPrice": "13",
            "gasUsed": 52532,
            "intTxnCount": 0,
            "internalRevert": false,
            "internalRevertMessage": "",
            "isContractCreation": false,
            "isFlashloan": false,
            "maxFee": "",
            "nonce": 493,
            "overwritedBlockNumber": -1,
            "priorityFee": "",
            "receiver": "0x986ee2b944c42d017f52af21c4c69b84dbea35d8",
            "revertMessage": "",
            "sender": "0xa532c9d27742a6152849a4619000beecf79ba3ac",
            "simulationEnable": true,
            "sourceTxnHash": "0xc229c86b9767d284de25065d07ae83a5ec837b78e832651e3b8d78f0ac47ed40",
            "status": true,
            "timestamp": "2018-10-11T05:54:19Z",
            "transactionFee": "0.000682916",
            "txnHash": "0xc229c86b9767d284de25065d07ae83a5ec837b78e832651e3b8d78f0ac47ed40",
            "txnIndex": 87,
            "type": 0,
            "value": "0"
        },
        "fund_flow": [
            {
                "amount": "200",
                "from": "0xa532c9d27742a6152849a4619000beecf79ba3ac",
                "id": 1,
                "isERC1155": false,
                "isERC721": false,
                "isReverted": false,
                "order": 1,
                "to": "0xc230bfafa11ef596707c1c6bf2db42fe28f22a71",
                "token": "0x986ee2b944c42d017f52af21c4c69b84dbea35d8"
            }
        ],
        "token_infos": [
            {
                "address": "0x986ee2b944c42d017f52af21c4c69b84dbea35d8",
                "decimals": 18
            },
            {
                "address": "0xc02aaa39b223fe8d0a0e5c4f27ead9083c756cc2",
                "decimals": 18
            },
            {
                "address": "0xeeeeeeeeeeeeeeeeeeeeeeeeeeeeeeeeeeeeeeee",
                "decimals": 18
            }
        ]
    },
    "address_label": {
        "labels": [
            {
                "address": "0xeeeeeeeeeeeeeeeeeeeeeeeeeeeeeeeeeeeeeeee",
                "label": "Ether"
            },
            {
                "address": "0xc230bfafa11ef596707c1c6bf2db42fe28f22a71",
                "label": "BITMART"
            },
            {
                "address": "0x986ee2b944c42d017f52af21c4c69b84dbea35d8",
                "label": "BitMart: BMC Token"
            },
            {
                "address": "0x0000000000000000000000000000000000000001",
                "label": "Precompiled"
            },
            {
                "address": "0x0000000000000000000000000000000000000002",
                "label": "Precompiled"
            },
            {
                "address": "0x0000000000000000000000000000000000000003",
                "label": "Precompiled"
            },
            {
                "address": "0x0000000000000000000000000000000000000004",
                "label": "Precompiled"
            }
        ]
    },
    "trace": {
        "accountLabels": null,
        "dataMap": {
            "-1": {
                "invocation": {
                    "address": "0xa532c9d27742a6152849a4619000beecf79ba3ac",
                    "callData": "",
                    "decodedMethod": null,
                    "errorInfo": "",
                    "fromAddress": "",
                    "gasUsed": 0,
                    "id": -1,
                    "methodDecoded": false,
                    "operation": "",
                    "output": "",
                    "revert": false,
                    "revertMessage": "",
                    "selector": "",
                    "status": false,
                    "value": ""
                },
                "nodeType": 0
            },
            "0": {
                "invocation": {
                    "address": "0x986ee2b944c42d017f52af21c4c69b84dbea35d8",
                    "callData": "0x000000000000000000000000c230bfafa11ef596707c1c6bf2db42fe28f22a7100000000000000000000000000000000000000000000000ad78ebc5ac6200000",
                    "decodedMethod": {
                        "callParams": [
                            {
                                "name": "_to",
                                "type": "address",
                                "value": "0xc230bfafa11ef596707c1c6bf2db42fe28f22a71"
                            },
                            {
                                "decimalAvailable": true,
                                "name": "_value",
                                "type": "uint256",
                                "value": "200,000,000,000,000,000,000"
                            }
                        ],
                        "constructorArguments": "",
                        "name": "transfer",
                        "returnParams": [],
                        "signature": "transfer(address,uint256)"
                    },
                    "errorInfo": "",
                    "fromAddress": "0xa532c9d27742a6152849a4619000beecf79ba3ac",
                    "gasUsed": 52532,
                    "id": 0,
                    "methodDecoded": true,
                    "operation": "CALL",
                    "output": "",
                    "revert": false,
                    "revertMessage": "",
                    "selector": "0xa9059cbb",
                    "status": true,
                    "value": "0"
                },
                "nodeType": 0
            },
            "1": {
                "event": {
                    "contract": "0x986ee2b944c42d017f52af21c4c69b84dbea35d8",
                    "decodedLog": {
                        "name": "Transfer",
                        "params": [
                            {
                                "name": "from",
                                "type": "address",
                                "value": "0xa532c9d27742a6152849a4619000beecf79ba3ac"
                            },
                            {
                                "name": "to",
                                "type": "address",
                                "value": "0xc230bfafa11ef596707c1c6bf2db42fe28f22a71"
                            },
                            {
                                "decimalAvailable": true,
                                "name": "value",
                                "type": "uint256",
                                "value": "200,000,000,000,000,000,000"
                            }
                        ],
                        "signature": "Transfer(address,address,uint256)"
                    },
                    "id": 1,
                    "logData": "0x00000000000000000000000000000000000000000000000ad78ebc5ac6200000",
                    "logDecoded": true,
                    "operation": "EVENT",
                    "revert": false,
                    "status": true,
                    "topics": [
                        "0xddf252ad1be2c89b69c2b068fc378daa952ba7f163c4a11628f55a4df523b3ef",
                        "0x000000000000000000000000a532c9d27742a6152849a4619000beecf79ba3ac",
                        "0x000000000000000000000000c230bfafa11ef596707c1c6bf2db42fe28f22a71"
                    ]
                },
                "nodeType": 1
            }
        },
        "gasFlame": [
            {
                "children": [
                    {
                        "children": [
                            {
                                "children": [],
                                "depth": 0,
                                "name": "Initial Gas",
                                "value": 23256
                            },
                            {
                                "children": [],
                                "depth": 0,
                                "name": "Executed Gas",
                                "value": 29276
                            }
                        ],
                        "depth": -1,
                        "name": "Actual Gas Used",
                        "value": 52532
                    },
                    {
                        "children": [],
                        "depth": -1,
                        "name": "Refunded Gas",
                        "value": 0
                    }
                ],
                "depth": -2,
                "name": "Total Gas",
                "value": 52532
            }
        ],
        "isConfirmed": true,
        "mainTrace": [
            {
                "children": [
                    {
                        "children": [
                            {
                                "children": [],
                                "depth": 1,
                                "id": 1,
                                "order": 1
                            }
                        ],
                        "depth": 0,
                        "id": 0,
                        "order": 0
                    }
                ],
                "depth": -1,
                "id": -1,
                "order": -1
            }
        ],
        "mainTraceNodeCount": 2,
        "parentIdMap": {
            "0": -1,
            "1": 0
        },
        "tidyTrace": [
            {
                "children": [
                    {
                        "children": [
                            {
                                "children": [],
                                "depth": 1,
                                "id": 1,
                                "order": 1
                            }
                        ],
                        "depth": 0,
                        "id": 0,
                        "order": 0
                    }
                ],
                "depth": -1,
                "id": -1,
                "order": -1
            }
        ],
        "tidyTraceNodeCount": 2
    },
    "state_change": {
        "stateChanges": [
            {
                "address": "0x986ee2b944c42d017f52af21c4c69b84dbea35d8",
                "erc": "",
                "slots": [
                    {
                        "current": "0x0000000000000000000000000000000000000000000001fd933494aa5fe00000",
                        "key": "0x0d45906f66bf0628c65fb67b21049bc82b4158127000ad009ebb1252c847a4d5",
                        "prev": "0x0000000000000000000000000000000000000000000002086ac3510526000000"
                    },
                    {
                        "current": "0x00000000000000000000000000000000000000000000000ad78ebc5ac6200000",
                        "key": "0x14ef75678c75310ae65df27228a90b3f79de624105fee33ab5b62bacf8d08107",
                        "prev": "0x0000000000000000000000000000000000000000000000000000000000000000"
                    }
                ],
                "storageVariables": [
                    {
                        "name": "balanceOf",
                        "type": "mapping(address => uint256)",
                        "value": {
                            "pairs": [
                                {
                                    "key": "0xa532c9d27742a6152849a4619000beecf79ba3ac",
                                    "value": {
                                        "current": "9400000000000000000000",
                                        "prev": "9600000000000000000000",
                                        "typeTag": 1
                                    }
                                },
                                {
                                    "key": "0xc230bfafa11ef596707c1c6bf2db42fe28f22a71",
                                    "value": {
                                        "current": "200000000000000000000",
                                        "prev": "0",
                                        "typeTag": 1
                                    }
                                }
                            ],
                            "typeTag": 4
                        }
                    }
                ]
            }
        ]
    }
}