{
    "balance_change": {
        "balanceChanges": [
            {
                "account": "0x5afd094bda9b4a959ed1def1e5373eb293ea612d",
                "assets": [
                    {
                        "address": "0xeeeeeeeeeeeeeeeeeeeeeeeeeeeeeeeeeeeeeeee",
                        "amount": "0.16",
                        "iconUrl": "https://assets.blocksec.com/image/1663669189317-3.png",
                        "isERC1155": false,
                        "isERC721": false,
                        "sign": false,
                        "value": "525.6992"
                    },
                    {
                        "address": "0xa0b86991c6218b36c1d19d4a2e9eb0ce3606eb48",
                        "amount": "526.124941",
                        "iconUrl": "https://assets.blocksec.com/icon/0347a86cc07dbd03fdc5db01a4e5ac7e1217f90e0b6e4bb0f75cbcca09160989.png",
                        "isERC1155": false,
                        "isERC721": false,
                        "sign": true,
                        "value": "526.124941"
                    }
                ]
            },
            {
                "account": "0xa4f327ab8fd2f412ad377614ed1a36ce0b335e49",
                "assets": [
                    {
                        "address": "0xeeeeeeeeeeeeeeeeeeeeeeeeeeeeeeeeeeeeeeee",
                        "amount": "0.16",
                        "iconUrl": "https://assets.blocksec.com/image/1663669189317-3.png",
                        "isERC1155": false,
                        "isERC721": false,
                        "sign": true,
                        "value": "525.6992"
                    },
                    {
                        "address": "0xa0b86991c6218b36c1d19d4a2e9eb0ce3606eb48",
                        "amount": "526.124941",
                        "iconUrl": "https://assets.blocksec.com/icon/0347a86cc07dbd03fdc5db01a4e5ac7e1217f90e0b6e4bb0f75cbcca09160989.png",
                        "isERC1155": false,
                        "isERC721": false,
                        "sign": false,
                        "value": "526.124941"
                    }
                ]
            }
        ]
    },
    "profile": {
        "basic_info": {
            "baseFee": "33.887014648",
            "blockNumber": 13021451,
            "callData": "0xe43d9733000000000000000000000000a4f327ab8fd2f412ad377614ed1a36ce0b335e490000000000000000000000005afd094bda9b4a959ed1def1e5373eb293ea612d000000000000000000000000a0b86991c6218b36c1d19d4a2e9eb0ce3606eb4800000000000000000000000000000000000000000000000002386f26fc100000000000000000000000000000000000000000000000000000000000001f5c078d0000000000000000000000000000000000000000000000000000000000c6b1160000000000000000000000000000000000000000000000000000000000000064000000000000000000000000000000000000000000000000000000000000000092b4a40b2564cb8c74b18cb35d1c783669637cc551241c3d5b0c2f1c9c64769900000000000000000000000000000000000000000000000000000000000001400000000000000000000000000000000000000000000000000000000000000041c9104ad2ad4ae82f471acca8a2dade61fbe8c6e8742651cb4653f31fa8c2b72878288bc156fa5ed7e94584b40cafa7e3b5ae6cd17b6f2937bbb1fc831241a66f1b00000000000000000000000000000000000000000000000000000000000000",
            "debugEnable": true,
            "errorInfo": "",
            "eventCount": 2,
            "feeRecipient": "0xea674fdde714fd979de3edf0f56aa9716b898ec8",
            "formatValue": "0.16",
            "gasLimit": 92054,
            "gasPrice": "43",
            "gasUsed": 90495,
            "intTxnCount": 5,
            "internalRevert": false,
            "internalRevertMessage": "",
            "isContractCreation": false,
            "isFlashloan": false,
            "maxFee": "43",
            "nonce": 112,
            "overwritedBlockNumber": -1,
            "priorityFee": "43",
            "receiver": "0x043389f397ad72619d05946f5f35426a7ace6613",
            "revertMessage": "",
            "sender": "0x5afd094bda9b4a959ed1def1e5373eb293ea612d",
            "simulationEnable": true,
            "sourceTxnHash": "0xc201f0138e01bc2c80c22a50e4fac47610ee13b427eb1cbc87b1998df26c717a",
            "status": true,
            "timestamp": "2021-08-14T05:43:22Z",
            "transactionFee": "0.003891285",
            "txnHash": "0xc201f0138e01bc2c80c22a50e4fac47610ee13b427eb1cbc87b1998df26c717a",
            "txnIndex": 81,
            "type": 2,
            "value": "160000000000000000"
        },
        "fund_flow": [
            {
                "amount": "0.16",
                "from": "0x5afd094bda9b4a959ed1def1e5373eb293ea612d",
                "id": 1,
                "isERC1155": false,
                "isERC721": false,
                "isReverted": false,
                "order": 1,
                "to": "0x043389f397ad72619d05946f5f35426a7ace6613",
                "token": "0xeeeeeeeeeeeeeeeeeeeeeeeeeeeeeeeeeeeeeeee"
            },
            {
                "amount": "0.16",
                "from": "0x043389f397ad72619d05946f5f35426a7ace6613",
                "id": 2,
                "isERC1155": false,
                "isERC721": false,
                "isReverted": false,
                "order": 2,
                "to": "0xa4f327ab8fd2f412ad377614ed1a36ce0b335e49",
                "token": "0xeeeeeeeeeeeeeeeeeeeeeeeeeeeeeeeeeeeeeeee"
            },
            {
                "amount": "526.124941",
                "from": "0xa4f327ab8fd2f412ad377614ed1a36ce0b335e49",
                "id": 3,
                "isERC1155": false,
                "isERC721": false,
                "isReverted": false,
                "order": 3,
                "to": "0x5afd094bda9b4a959ed1def1e5373eb293ea612d",
                "token": "0xa0b86991c6218b36c1d19d4a2e9eb0ce3606eb48"
            }
        ],
        "token_infos": [
            {
                "address": "0xa0b86991c6218b36c1d19d4a2e9eb0ce3606eb48",
                "decimals": 6
            },
            {
                "address": "0xc02aaa39b223fe8d0a0e5c4f27ead9083c756cc2",
                "decimals": 18
            },
            {
                "address": "0xeeeeeeeeeeeeeeeeeeeeeeeeeeeeeeeeeeeeeeee",
                "decimals": 18
            }
        ]
    },
    "address_label": {
        "labels": [
            {
                "address": "0xeeeeeeeeeeeeeeeeeeeeeeeeeeeeeeeeeeeeeeee",
                "label": "Ether"
            },
            {
                "address": "0xa2327a938febf5fec13bacfb16ae10ecbc4cbdcf",
                "label": "FiatTokenV2_1"
            },
            {
                "address": "0xa0b86991c6218b36c1d19d4a2e9eb0ce3606eb48",
                "label": "Circle: USDC Token"
            },
            {
                "address": "0x0000000000000000000000000000000000000001",
                "label": "Precompiled"
            },
            {
                "address": "0x0000000000000000000000000000000000000002",
                "label": "Precompiled"
            },
            {
                "address": "0x0000000000000000000000000000000000000003",
                "label": "Precompiled"
            },
            {
                "address": "0x0000000000000000000000000000000000000004",
                "label": "Precompiled"
            }
        ]
    },
    "trace": {
        "accountLabels": null,
        "dataMap": {
            "-1": {
                "invocation": {
                    "address": "0x5afd094bda9b4a959ed1def1e5373eb293ea612d",
                    "callData": "",
                    "decodedMethod": null,
                    "errorInfo": "",
                    "fromAddress": "",
                    "gasUsed": 0,
                    "id": -1,
                    "methodDecoded": false,
                    "operation": "",
                    "output": "",
                    "revert": false,
                    "revertMessage": "",
                    "selector": "",
                    "status": false,
                    "value": ""
                },
                "nodeType": 0
            },
            "0": {
                "invocation": {
                    "address": "0x043389f397ad72619d05946f5f35426a7ace6613",
                    "callData": "0x000000000000000000000000a4f327ab8fd2f412ad377614ed1a36ce0b335e490000000000000000000000005afd094bda9b4a959ed1def1e5373eb293ea612d000000000000000000000000a0b86991c6218b36c1d19d4a2e9eb0ce3606eb4800000000000000000000000000000000000000000000000002386f26fc100000000000000000000000000000000000000000000000000000000000001f5c078d0000000000000000000000000000000000000000000000000000000000c6b1160000000000000000000000000000000000000000000000000000000000000064000000000000000000000000000000000000000000000000000000000000000092b4a40b2564cb8c74b18cb35d1c783669637cc551241c3d5b0c2f1c9c64769900000000000000000000000000000000000000000000000000000000000001400000000000000000000000000000000000000000000000000000000000000041c9104ad2ad4ae82f471acca8a2dade61fbe8c6e8742651cb4653f31fa8c2b72878288bc156fa5ed7e94584b40cafa7e3b5ae6cd17b6f2937bbb1fc831241a66f1b00000000000000000000000000000000000000000000000000000000000000",
                    "decodedMethod": null,
                    "errorInfo": "",
                    "fromAddress": "0x5afd094bda9b4a959ed1def1e5373eb293ea612d",
                    "gasUsed": 90495,
                    "id": 0,
                    "methodDecoded": false,
                    "operation": "CALL",
                    "output": "",
                    "revert": false,
                    "revertMessage": "",
                    "selector": "0xe43d9733",
                    "status": true,
                    "value": "0.16"
                },
                "nodeType": 0
            },
            "1": {
                "invocation": {
                    "address": "0xa4f327ab8fd2f412ad377614ed1a36ce0b335e49",
                    "callData": "0x0000000000000000000000005afd094bda9b4a959ed1def1e5373eb293ea612d0000000000000000000000000000000000000000000000000000000000000000000000000000000000000000a0b86991c6218b36c1d19d4a2e9eb0ce3606eb4800000000000000000000000000000000000000000000000002386f26fc100000000000000000000000000000000000000000000000000000000000001f5c078d0000000000000000000000000000000000000000000000000000000000000064000000000000000000000000000000000000000000000000000000000000000092b4a40b2564cb8c74b18cb35d1c783669637cc551241c3d5b0c2f1c9c64769900000000000000000000000000000000000000000000000000000000000001200000000000000000000000000000000000000000000000000000000000000041c9104ad2ad4ae82f471acca8a2dade61fbe8c6e8742651cb4653f31fa8c2b72878288bc156fa5ed7e94584b40cafa7e3b5ae6cd17b6f2937bbb1fc831241a66f1b00000000000000000000000000000000000000000000000000000000000000",
                    "decodedMethod": null,
                    "errorInfo": "",
                    "fromAddress": "0x043389f397ad72619d05946f5f35426a7ace6613",
                    "gasUsed": 54266,
                    "id": 1,
                    "methodDecoded": false,
                    "operation": "CALL",
                    "output": "",
                    "revert": false,
                    "revertMessage": "",
                    "selector": "0x3c95d1b8",
                    "status": true,
                    "value": "0.16"
                },
                "nodeType": 0
            },
            "2": {
                "invocation": {
                    "address": "0xaa8f3dc82022bb54f83910695c1358df8e5cede6",
                    "callData": "0x0000000000000000000000005afd094bda9b4a959ed1def1e5373eb293ea612d0000000000000000000000000000000000000000000000000000000000000000000000000000000000000000a0b86991c6218b36c1d19d4a2e9eb0ce3606eb4800000000000000000000000000000000000000000000000002386f26fc100000000000000000000000000000000000000000000000000000000000001f5c078d0000000000000000000000000000000000000000000000000000000000000064000000000000000000000000000000000000000000000000000000000000000092b4a40b2564cb8c74b18cb35d1c783669637cc551241c3d5b0c2f1c9c64769900000000000000000000000000000000000000000000000000000000000001200000000000000000000000000000000000000000000000000000000000000041c9104ad2ad4ae82f471acca8a2dade61fbe8c6e8742651cb4653f31fa8c2b72878288bc156fa5ed7e94584b40cafa7e3b5ae6cd17b6f2937bbb1fc831241a66f1b00000000000000000000000000000000000000000000000000000000000000",
                    "decodedMethod": null,
                    "errorInfo": "",
                    "fromAddress": "0xa4f327ab8fd2f412ad377614ed1a36ce0b335e49",
                    "gasUsed": 51525,
                    "id": 2,
                    "methodDecoded": false,
                    "operation": "DELEGATECALL",
                    "output": "",
                    "revert": false,
                    "revertMessage": "",
                    "selector": "0x3c95d1b8",
                    "status": true,
                    "value": "0.16"
                },
                "nodeType": 0
            },
            "3": {
                "invocation": {
                    "address": "0x0000000000000000000000000000000000000001",
                    "callData": "0x49620ffc4a2f0984da44f47a7be36ee7e7a9b1132784ac0ff1896feb000000000000000000000000000000000000000000000000000000000000001bc9104ad2ad4ae82f471acca8a2dade61fbe8c6e8742651cb4653f31fa8c2b72878288bc156fa5ed7e94584b40cafa7e3b5ae6cd17b6f2937bbb1fc831241a66f",
                    "decodedMethod": {
                        "callParams": [
                            {
                                "name": "hash",
                                "type": "bytes32",
                                "value": "0x766a8a0449620ffc4a2f0984da44f47a7be36ee7e7a9b1132784ac0ff1896feb"
                            },
                            {
                                "name": "v",
                                "type": "uint256",
                                "value": "27"
                            },
                            {
                                "name": "r",
                                "type": "bytes32",
                                "value": "0xc9104ad2ad4ae82f471acca8a2dade61fbe8c6e8742651cb4653f31fa8c2b728"
                            },
                            {
                                "name": "s",
                                "type": "bytes32",
                                "value": "0x78288bc156fa5ed7e94584b40cafa7e3b5ae6cd17b6f2937bbb1fc831241a66f"
                            }
                        ],
                        "constructorArguments": "",
                        "name": "ecrecover",
                        "returnParams": [
                            {
                                "name": "",
                                "type": "address",
                                "value": "0xbc9c48963792e8a181b706656e5b978088ea0fb4"
                            }
                        ],
                        "signature": "ecrecover(bytes32,uint256,bytes32,bytes32)"
                    },
                    "errorInfo": "",
                    "fromAddress": "0xa4f327ab8fd2f412ad377614ed1a36ce0b335e49",
                    "gasUsed": 3000,
                    "id": 3,
                    "methodDecoded": true,
                    "operation": "STATICCALL",
                    "output": "0x000000000000000000000000bc9c48963792e8a181b706656e5b978088ea0fb4",
                    "revert": false,
                    "revertMessage": "",
                    "selector": "0x766a8a04",
                    "status": true,
                    "value": "0"
                },
                "nodeType": 0
            },
            "4": {
                "invocation": {
                    "address": "0xa0b86991c6218b36c1d19d4a2e9eb0ce3606eb48",
                    "callData": "0x0000000000000000000000005afd094bda9b4a959ed1def1e5373eb293ea612d000000000000000000000000000000000000000000000000000000001f5c078d",
                    "decodedMethod": {
                        "callParams": [
                            {
                                "name": "to",
                                "type": "address",
                                "value": "0x5afd094bda9b4a959ed1def1e5373eb293ea612d"
                            },
                            {
                                "decimalAvailable": true,
                                "name": "value",
                                "type": "uint256",
                                "value": "526,124,941"
                            }
                        ],
                        "constructorArguments": "",
                        "name": "transfer",
                        "returnParams": [
                            {
                                "name": "",
                                "type": "bool",
                                "value": true
                            }
                        ],
                        "signature": "transfer(address,uint256)"
                    },
                    "errorInfo": "",
                    "fromAddress": "0xa4f327ab8fd2f412ad377614ed1a36ce0b335e49",
                    "gasUsed": 26917,
                    "id": 4,
                    "methodDecoded": true,
                    "operation": "CALL",
                    "output": "0x0000000000000000000000000000000000000000000000000000000000000001",
                    "revert": false,
                    "revertMessage": "",
                    "selector": "0xa9059cbb",
                    "status": true,
                    "value": "0"
                },
                "nodeType": 0
            },
            "5": {
                "invocation": {
                    "address": "0xa2327a938febf5fec13bacfb16ae10ecbc4cbdcf",
                    "callData": "0x0000000000000000000000005afd094bda9b4a959ed1def1e5373eb293ea612d000000000000000000000000000000000000000000000000000000001f5c078d",
                    "decodedMethod": {
                        "callParams": [
                            {
                                "name": "to",
                                "type": "address",
                                "value": "0x5afd094bda9b4a959ed1def1e5373eb293ea612d"
                            },
                            {
                                "decimalAvailable": true,
                                "name": "value",
                                "type": "uint256",
                                "value": "526,124,941"
                            }
                        ],
                        "constructorArguments": "",
                        "name": "transfer",
                        "returnParams": [
                            {
                                "name": "",
                                "type": "bool",
                                "value": true
                            }
                        ],
                        "signature": "transfer(address,uint256)"
                    },
                    "errorInfo": "",
                    "fromAddress": "0xa0b86991c6218b36c1d19d4a2e9eb0ce3606eb48",
                    "gasUsed": 19628,
                    "id": 5,
                    "methodDecoded": true,
                    "operation": "DELEGATECALL",
                    "output": "0x0000000000000000000000000000000000000000000000000000000000000001",
                    "revert": false,
                    "revertMessage": "",
                    "selector": "0xa9059cbb",
                    "status": true,
                    "value": "0"
                },
                "nodeType": 0
            },
            "6": {
                "event": {
                    "contract": "0xa0b86991c6218b36c1d19d4a2e9eb0ce3606eb48",
                    "decodedLog": {
                        "name": "Transfer",
                        "params": [
                            {
                                "name": "from",
                                "type": "address",
                                "value": "0xa4f327ab8fd2f412ad377614ed1a36ce0b335e49"
                            },
                            {
                                "name": "to",
                                "type": "address",
                                "value": "0x5afd094bda9b4a959ed1def1e5373eb293ea612d"
                            },
                            {
                                "decimalAvailable": true,
                                "name": "value",
                                "type": "uint256",
                                "value": "526,124,941"
                            }
                        ],
                        "signature": "Transfer(address,address,uint256)"
                    },
                    "id": 6,
                    "logData": "0x000000000000000000000000000000000000000000000000000000001f5c078d",
                    "logDecoded": true,
                    "operation": "EVENT",
                    "revert": false,
                    "status": true,
                    "topics": [
                        "0xddf252ad1be2c89b69c2b068fc378daa952ba7f163c4a11628f55a4df523b3ef",
                        "0x000000000000000000000000a4f327ab8fd2f412ad377614ed1a36ce0b335e49",
                        "0x0000000000000000000000005afd094bda9b4a959ed1def1e5373eb293ea612d"
                    ]
                },
                "nodeType": 1
            },
            "7": {
                "event": {
                    "contract": "0xa4f327ab8fd2f412ad377614ed1a36ce0b335e49",
                    "decodedLog": null,
                    "id": 7,
                    "logData": "0x0000000000000000000000005afd094bda9b4a959ed1def1e5373eb293ea612d92b4a40b2564cb8c74b18cb35d1c783669637cc551241c3d5b0c2f1c9c6476990000000000000000000000000000000000000000000000000000000000000000000000000000000000000000a0b86991c6218b36c1d19d4a2e9eb0ce3606eb4800000000000000000000000000000000000000000000000002386f26fc100000000000000000000000000000000000000000000000000000000000001f5c078d",
                    "logDecoded": false,
                    "operation": "EVENT",
                    "revert": false,
                    "status": true,
                    "topics": [
                        "0x8cf3dec1929508e5677d7db003124e74802bfba7250a572205a9986d86ca9f1e"
                    ]
                },
                "nodeType": 1
            }
        },
        "gasFlame": [
            {
                "children": [
                    {
                        "children": [
                            {
                                "children": [],
                                "depth": 0,
                                "name": "Initial Gas",
                                "value": 24944
                            },
                            {
                                "children": [
                                    {
                                        "children": [
                                            {
                                                "children": [
                                                    {
                                                        "children": [],
                                                        "depth": 3,
                                                        "name": "ecrecover",
                                                        "value": 3000
                                                    },
                                                    {
                                                        "children": [
                                                            {
                                                                "children": [],
                                                                "depth": 4,
                                                                "name": "transfer",
                                                                "value": 19628
                                                            }
                                                        ],
                                                        "depth": 3,
                                                        "name": "transfer",
                                                        "value": 26917
                                                    }
                                                ],
                                                "depth": 2,
                                                "name": "0x3c95d1b8",
                                                "value": 51525
                                            }
                                        ],
                                        "depth": 1,
                                        "name": "0x3c95d1b8",
                                        "value": 54266
                                    }
                                ],
                                "depth": 0,
                                "name": "Executed Gas",
                                "value": 65551
                            }
                        ],
                        "depth": -1,
                        "name": "Actual Gas Used",
                        "value": 90495
                    },
                    {
                        "children": [],
                        "depth": -1,
                        "name": "Refunded Gas",
                        "value": 0
                    }
                ],
                "depth": -2,
                "name": "Total Gas",
                "value": 90495
            }
        ],
        "isConfirmed": true,
        "mainTrace": [
            {
                "children": [
                    {
                        "children": [
                            {
                                "children": [
                                    {
                                        "children": [
                                            {
                                                "children": [],
                                                "depth": 3,
                                                "id": 3,
                                                "order": 3
                                            },
                                            {
                                                "children": [
                                                    {
                                                        "children": [
                                                            {
                                                                "children": [],
                                                                "depth": 5,
                                                                "id": 6,
                                                                "order": 6
                                                            }
                                                        ],
                                                        "depth": 4,
                                                        "id": 5,
                                                        "order": 5
                                                    }
                                                ],
                                                "depth": 3,
                                                "id": 4,
                                                "order": 4
                                            },
                                            {
                                                "children": [],
                                                "depth": 3,
                                                "id": 7,
                                                "order": 7
                                            }
                                        ],
                                        "depth": 2,
                                        "id": 2,
                                        "order": 2
                                    }
                                ],
                                "depth": 1,
                                "id": 1,
                                "order": 1
                            }
                        ],
                        "depth": 0,
                        "id": 0,
                        "order": 0
                    }
                ],
                "depth": -1,
                "id": -1,
                "order": -1
            }
        ],
        "mainTraceNodeCount": 8,
        "parentIdMap": {
            "0": -1,
            "1": 0,
            "2": 1,
            "3": 2,
            "4": 2,
            "5": 4,
            "6": 5,
            "7": 2
        },
        "tidyTrace": [
            {
                "children": [
                    {
                        "children": [
                            {
                                "children": [
                                    {
                                        "children": [
                                            {
                                                "children": [
                                                    {
                                                        "children": [
                                                            {
                                                                "children": [],
                                                                "depth": 5,
                                                                "id": 6,
                                                                "order": 6
                                                            }
                                                        ],
                                                        "depth": 4,
                                                        "id": 5,
                                                        "order": 5
                                                    }
                                                ],
                                                "depth": 3,
                                                "id": 4,
                                                "order": 4
                                            },
                                            {
                                                "children": [],
                                                "depth": 3,
                                                "id": 7,
                                                "order": 7
                                            }
                                        ],
                                        "depth": 2,
                                        "id": 2,
                                        "order": 2
                                    }
                                ],
                                "depth": 1,
                                "id": 1,
                                "order": 1
                            }
                        ],
                        "depth": 0,
                        "id": 0,
                        "order": 0
                    }
                ],
                "depth": -1,
                "id": -1,
                "order": -1
            }
        ],
        "tidyTraceNodeCount": 7
    },
    "state_change": {
        "stateChanges": [
            {
                "address": "0xa0b86991c6218b36c1d19d4a2e9eb0ce3606eb48",
                "erc": "ERC-20",
                "slots": [
                    {
                        "current": "0x0000000000000000000000000000000000000000000000000000001a2ee14127",
                        "key": "0x1b0da0589ab44de6874433d66e0ea845d69492ecb6fab1b9d50aeb6cd890e3a1",
                        "prev": "0x0000000000000000000000000000000000000000000000000000001a4e3d48b4"
                    },
                    {
                        "current": "0x000000000000000000000000000000000000000000000000000000002bafbeb6",
                        "key": "0x591538ec1ffaf3b4d6b2a0962bed34440564ee2deffc07a3e434898c7700bb89",
                        "prev": "0x000000000000000000000000000000000000000000000000000000000c53b729"
                    }
                ],
                "storageVariables": [
                    {
                        "name": "balances",
                        "type": "mapping(address => uint256)",
                        "value": {
                            "pairs": [
                                {
                                    "key": "0x5afd094bda9b4a959ed1def1e5373eb293ea612d",
                                    "value": {
                                        "current": "732937910",
                                        "prev": "206812969",
                                        "typeTag": 1
                                    }
                                },
                                {
                                    "key": "0xa4f327ab8fd2f412ad377614ed1a36ce0b335e49",
                                    "value": {
                                        "current": "112455663911",
                                        "prev": "112981788852",
                                        "typeTag": 1
                                    }
                                }
                            ],
                            "typeTag": 4
                        }
                    }
                ]
            },
            {
                "address": "0xa4f327ab8fd2f412ad377614ed1a36ce0b335e49",
                "erc": "",
                "slots": [
                    {
                        "current": "0x000000000812501a54454f63bc9c48963792e8a181b706656e5b978088ea0fb4",
                        "key": "0xb4f71959f268062715079d04bfdf1cfdd2a9ebbcca39849d90bf5f6795576c50",
                        "prev": "0x000000000812501a54454f73bc9c48963792e8a181b706656e5b978088ea0fb4"
                    }
                ],
                "storageVariables": []
            }
        ]
    }
}