{
    "balance_change": {
        "balanceChanges": [
            {
                "account": "0x381b4a9b968b41c29289b8d6af83e7d0a87e5932",
                "assets": [
                    {
                        "address": "0xe530441f4f73bdb6dc2fa5af7c3fc5fd551ec838",
                        "amount": "11.29",
                        "iconUrl": "https://assets.blocksec.com/icon/f962fdaabc2a2beafaad1960afcd305031c665fb5b04f8cadda8adc1c1fba949.png",
                        "isERC1155": false,
                        "isERC721": false,
                        "sign": false,
                        "value": ""
                    }
                ]
            },
            {
                "account": "0x9485f3ab5fcef8f5a4e3d0b50dd69cd93544a876",
                "assets": [
                    {
                        "address": "0xe530441f4f73bdb6dc2fa5af7c3fc5fd551ec838",
                        "amount": "11.29",
                        "iconUrl": "https://assets.blocksec.com/icon/f962fdaabc2a2beafaad1960afcd305031c665fb5b04f8cadda8adc1c1fba949.png",
                        "isERC1155": false,
                        "isERC721": false,
                        "sign": true,
                        "value": ""
                    }
                ]
            }
        ]
    },
    "profile": {
        "basic_info": {
            "baseFee": "",
            "blockNumber": 6174534,
            "callData": "0xa9059cbb0000000000000000000000009485f3ab5fcef8f5a4e3d0b50dd69cd93544a876000000000000000000000000000000000000000000000000000000000001b904",
            "debugEnable": true,
            "errorInfo": "",
            "eventCount": 1,
            "feeRecipient": "0xb2930b35844a230f00e51431acae96fe543a0347",
            "formatValue": "0",
            "gasLimit": 37686,
            "gasPrice": "2.1",
            "gasUsed": 37686,
            "intTxnCount": 0,
            "internalRevert": false,
            "internalRevertMessage": "",
            "isContractCreation": false,
            "isFlashloan": false,
            "maxFee": "",
            "nonce": 3,
            "overwritedBlockNumber": -1,
            "priorityFee": "",
            "receiver": "0xe530441f4f73bdb6dc2fa5af7c3fc5fd551ec838",
            "revertMessage": "",
            "sender": "0x381b4a9b968b41c29289b8d6af83e7d0a87e5932",
            "simulationEnable": true,
            "sourceTxnHash": "0xc376e3e6cc2505505598a7defaeb0020e174d3f2979592febeec500c9be01699",
            "status": true,
            "timestamp": "2018-08-19T08:45:07Z",
            "transactionFee": "0.0000791406",
            "txnHash": "0xc376e3e6cc2505505598a7defaeb0020e174d3f2979592febeec500c9be01699",
            "txnIndex": 124,
            "type": 0,
            "value": "0"
        },
        "fund_flow": [
            {
                "amount": "11.29",
                "from": "0x381b4a9b968b41c29289b8d6af83e7d0a87e5932",
                "id": 1,
                "isERC1155": false,
                "isERC721": false,
                "isReverted": false,
                "order": 1,
                "to": "0x9485f3ab5fcef8f5a4e3d0b50dd69cd93544a876",
                "token": "0xe530441f4f73bdb6dc2fa5af7c3fc5fd551ec838"
            }
        ],
        "token_infos": [
            {
                "address": "0xc02aaa39b223fe8d0a0e5c4f27ead9083c756cc2",
                "decimals": 18
            },
            {
                "address": "0xe530441f4f73bdb6dc2fa5af7c3fc5fd551ec838",
                "decimals": 4
            },
            {
                "address": "0xeeeeeeeeeeeeeeeeeeeeeeeeeeeeeeeeeeeeeeee",
                "decimals": 18
            }
        ]
    },
    "address_label": {
        "labels": [
            {
                "address": "0x0000000000000000000000000000000000000001",
                "label": "Precompiled"
            },
            {
                "address": "0x0000000000000000000000000000000000000002",
                "label": "Precompiled"
            },
            {
                "address": "0x0000000000000000000000000000000000000003",
                "label": "Precompiled"
            },
            {
                "address": "0x0000000000000000000000000000000000000004",
                "label": "Precompiled"
            },
            {
                "address": "0xeeeeeeeeeeeeeeeeeeeeeeeeeeeeeeeeeeeeeeee",
                "label": "Ether"
            },
            {
                "address": "0xe530441f4f73bdb6dc2fa5af7c3fc5fd551ec838",
                "label": "GSENetwork Token"
            }
        ]
    },
    "trace": {
        "accountLabels": null,
        "dataMap": {
            "-1": {
                "invocation": {
                    "address": "0x381b4a9b968b41c29289b8d6af83e7d0a87e5932",
                    "callData": "",
                    "decodedMethod": null,
                    "errorInfo": "",
                    "fromAddress": "",
                    "gasUsed": 0,
                    "id": -1,
                    "methodDecoded": false,
                    "operation": "",
                    "output": "",
                    "revert": false,
                    "revertMessage": "",
                    "selector": "",
                    "status": false,
                    "value": ""
                },
                "nodeType": 0
            },
            "0": {
                "invocation": {
                    "address": "0xe530441f4f73bdb6dc2fa5af7c3fc5fd551ec838",
                    "callData": "0x0000000000000000000000009485f3ab5fcef8f5a4e3d0b50dd69cd93544a876000000000000000000000000000000000000000000000000000000000001b904",
                    "decodedMethod": {
                        "callParams": [
                            {
                                "name": "_to",
                                "type": "address",
                                "value": "0x9485f3ab5fcef8f5a4e3d0b50dd69cd93544a876"
                            },
                            {
                                "decimalAvailable": true,
                                "name": "_value",
                                "type": "uint256",
                                "value": "112,900"
                            }
                        ],
                        "constructorArguments": "",
                        "name": "transfer",
                        "returnParams": [
                            {
                                "name": "",
                                "type": "bool",
                                "value": true
                            }
                        ],
                        "signature": "transfer(address,uint256)"
                    },
                    "errorInfo": "",
                    "fromAddress": "0x381b4a9b968b41c29289b8d6af83e7d0a87e5932",
                    "gasUsed": 37686,
                    "id": 0,
                    "methodDecoded": true,
                    "operation": "CALL",
                    "output": "0x0000000000000000000000000000000000000000000000000000000000000001",
                    "revert": false,
                    "revertMessage": "",
                    "selector": "0xa9059cbb",
                    "status": true,
                    "value": "0"
                },
                "nodeType": 0
            },
            "1": {
                "event": {
                    "contract": "0xe530441f4f73bdb6dc2fa5af7c3fc5fd551ec838",
                    "decodedLog": {
                        "name": "Transfer",
                        "params": [
                            {
                                "name": "from",
                                "type": "address",
                                "value": "0x381b4a9b968b41c29289b8d6af83e7d0a87e5932"
                            },
                            {
                                "name": "to",
                                "type": "address",
                                "value": "0x9485f3ab5fcef8f5a4e3d0b50dd69cd93544a876"
                            },
                            {
                                "decimalAvailable": true,
                                "name": "value",
                                "type": "uint256",
                                "value": "112,900"
                            }
                        ],
                        "signature": "Transfer(address,address,uint256)"
                    },
                    "id": 1,
                    "logData": "0x000000000000000000000000000000000000000000000000000000000001b904",
                    "logDecoded": true,
                    "operation": "EVENT",
                    "revert": false,
                    "status": true,
                    "topics": [
                        "0xddf252ad1be2c89b69c2b068fc378daa952ba7f163c4a11628f55a4df523b3ef",
                        "0x000000000000000000000000381b4a9b968b41c29289b8d6af83e7d0a87e5932",
                        "0x0000000000000000000000009485f3ab5fcef8f5a4e3d0b50dd69cd93544a876"
                    ]
                },
                "nodeType": 1
            }
        },
        "gasFlame": [
            {
                "children": [
                    {
                        "children": [
                            {
                                "children": [],
                                "depth": 0,
                                "name": "Initial Gas",
                                "value": 23000
                            },
                            {
                                "children": [],
                                "depth": 0,
                                "name": "Executed Gas",
                                "value": 14686
                            }
                        ],
                        "depth": -1,
                        "name": "Actual Gas Used",
                        "value": 37686
                    },
                    {
                        "children": [],
                        "depth": -1,
                        "name": "Refunded Gas",
                        "value": 0
                    }
                ],
                "depth": -2,
                "name": "Total Gas",
                "value": 37686
            }
        ],
        "isConfirmed": true,
        "mainTrace": [
            {
                "children": [
                    {
                        "children": [
                            {
                                "children": [],
                                "depth": 1,
                                "id": 1,
                                "order": 1
                            }
                        ],
                        "depth": 0,
                        "id": 0,
                        "order": 0
                    }
                ],
                "depth": -1,
                "id": -1,
                "order": -1
            }
        ],
        "mainTraceNodeCount": 2,
        "parentIdMap": {
            "0": -1,
            "1": 0
        },
        "tidyTrace": [
            {
                "children": [
                    {
                        "children": [
                            {
                                "children": [],
                                "depth": 1,
                                "id": 1,
                                "order": 1
                            }
                        ],
                        "depth": 0,
                        "id": 0,
                        "order": 0
                    }
                ],
                "depth": -1,
                "id": -1,
                "order": -1
            }
        ],
        "tidyTraceNodeCount": 2
    },
    "state_change": {
        "stateChanges": [
            {
                "address": "0xe530441f4f73bdb6dc2fa5af7c3fc5fd551ec838",
                "erc": "ERC-20",
                "slots": [
                    {
                        "current": "0x00000000000000000000000000000000000000000000000000000000000e305d",
                        "key": "0x8df3746a3416a7acd83d50067b54e4c2a56ab840111c0d80066a3afd7864ccc7",
                        "prev": "0x00000000000000000000000000000000000000000000000000000000000fe961"
                    },
                    {
                        "current": "0x00000000000000000000000000000000000000000000000000000000000fa497",
                        "key": "0x06e7c02f8b39abe852b36282ee50ba80ca87da3854bd11762146c6da9b177fb2",
                        "prev": "0x00000000000000000000000000000000000000000000000000000000000deb93"
                    }
                ],
                "storageVariables": [
                    {
                        "name": "balances",
                        "type": "mapping(address => uint256)",
                        "value": {
                            "pairs": [
                                {
                                    "key": "0x381b4a9b968b41c29289b8d6af83e7d0a87e5932",
                                    "value": {
                                        "current": "929885",
                                        "prev": "1042785",
                                        "typeTag": 1
                                    }
                                },
                                {
                                    "key": "0x9485f3ab5fcef8f5a4e3d0b50dd69cd93544a876",
                                    "value": {
                                        "current": "1025175",
                                        "prev": "912275",
                                        "typeTag": 1
                                    }
                                }
                            ],
                            "typeTag": 4
                        }
                    }
                ]
            }
        ]
    }
}