{
    "balance_change": {
        "balanceChanges": [
            {
                "account": "0x0000000000000000000000000000000000000000",
                "assets": [
                    {
                        "address": "0x0000000000664ceffed39244a8312bd895470803",
                        "amount": "1",
                        "iconUrl": "",
                        "isERC1155": false,
                        "isERC721": true,
                        "sign": false,
                        "tokenID": "141681",
                        "value": ""
                    }
                ]
            },
            {
                "account": "0x14cadb745a5d175f00899165db0567f9382a01f2",
                "assets": [
                    {
                        "address": "0x0000000000664ceffed39244a8312bd895470803",
                        "amount": "1",
                        "iconUrl": "",
                        "isERC1155": false,
                        "isERC721": true,
                        "sign": true,
                        "tokenID": "141681",
                        "value": ""
                    }
                ]
            }
        ]
    },
    "profile": {
        "basic_info": {
            "baseFee": "58.605009325",
            "blockNumber": 17259533,
            "callData": "0xb510391f00000000000000000000000088902117d492794c19e16785369ccabb65475c1d000000000000000000000000000000000000000000000000000000000000004000000000000000000000000000000000000000000000000000000000000000415e5676c5b3eb73ac71e96e196917312fe592b5676a8ddf71ca98f1dafb35d7736adf65c6c2b3c05dbbd33c4e3732f469cb9529a849e990b11f0a6588b0aa4e8a1b00000000000000000000000000000000000000000000000000000000000000",
            "debugEnable": true,
            "errorInfo": "",
            "eventCount": 2,
            "feeRecipient": "0x690b9a9e9aa1c9db991c7721a92d351db4fac990",
            "formatValue": "0",
            "gasLimit": 81826,
            "gasPrice": "58.699009325",
            "gasUsed": 81826,
            "intTxnCount": 1,
            "internalRevert": false,
            "internalRevertMessage": "",
            "isContractCreation": false,
            "isFlashloan": false,
            "maxFee": "60.731146641",
            "nonce": 10,
            "overwritedBlockNumber": -1,
            "priorityFee": "0.094",
            "receiver": "0x0000000000664ceffed39244a8312bd895470803",
            "revertMessage": "",
            "sender": "0x14cadb745a5d175f00899165db0567f9382a01f2",
            "simulationEnable": true,
            "sourceTxnHash": "0xc3f3a83b8841ddc2808488ddfae0a79279ece932e54bdc12275d1f3f4c873ccd",
            "status": true,
            "timestamp": "2023-05-14T17:19:59Z",
            "transactionFee": "0.00480310513702745",
            "txnHash": "0xc3f3a83b8841ddc2808488ddfae0a79279ece932e54bdc12275d1f3f4c873ccd",
            "txnIndex": 111,
            "type": 2,
            "value": "0"
        },
        "fund_flow": [
            {
                "amount": "1",
                "from": "0x0000000000000000000000000000000000000000",
                "id": 1,
                "isERC1155": false,
                "isERC721": true,
                "isReverted": false,
                "order": 1,
                "to": "0x14cadb745a5d175f00899165db0567f9382a01f2",
                "token": "0x0000000000664ceffed39244a8312bd895470803",
                "tokenID": "141681"
            }
        ],
        "token_infos": [
            {
                "address": "0xc02aaa39b223fe8d0a0e5c4f27ead9083c756cc2",
                "decimals": 18
            },
            {
                "address": "0xeeeeeeeeeeeeeeeeeeeeeeeeeeeeeeeeeeeeeeee",
                "decimals": 18
            }
        ]
    },
    "address_label": {
        "labels": [
            {
                "address": "0xeeeeeeeeeeeeeeeeeeeeeeeeeeeeeeeeeeeeeeee",
                "label": "Ether"
            },
            {
                "address": "0x0000000000664ceffed39244a8312bd895470803",
                "label": "mint.fun !fundrop pass (FUNPASS)"
            },
            {
                "address": "0x0000000000000000000000000000000000000001",
                "label": "Precompiled"
            },
            {
                "address": "0x0000000000000000000000000000000000000002",
                "label": "Precompiled"
            },
            {
                "address": "0x0000000000000000000000000000000000000003",
                "label": "Precompiled"
            },
            {
                "address": "0x0000000000000000000000000000000000000004",
                "label": "Precompiled"
            }
        ]
    },
    "trace": {
        "accountLabels": null,
        "dataMap": {
            "-1": {
                "invocation": {
                    "address": "0x14cadb745a5d175f00899165db0567f9382a01f2",
                    "callData": "",
                    "decodedMethod": null,
                    "errorInfo": "",
                    "fromAddress": "",
                    "gasUsed": 0,
                    "id": -1,
                    "methodDecoded": false,
                    "operation": "",
                    "output": "",
                    "revert": false,
                    "revertMessage": "",
                    "selector": "",
                    "status": false,
                    "value": ""
                },
                "nodeType": 0
            },
            "0": {
                "invocation": {
                    "address": "0x0000000000664ceffed39244a8312bd895470803",
                    "callData": "0x00000000000000000000000088902117d492794c19e16785369ccabb65475c1d000000000000000000000000000000000000000000000000000000000000004000000000000000000000000000000000000000000000000000000000000000415e5676c5b3eb73ac71e96e196917312fe592b5676a8ddf71ca98f1dafb35d7736adf65c6c2b3c05dbbd33c4e3732f469cb9529a849e990b11f0a6588b0aa4e8a1b00000000000000000000000000000000000000000000000000000000000000",
                    "decodedMethod": {
                        "callParams": [
                            {
                                "name": "referrer",
                                "type": "address",
                                "value": "0x88902117d492794c19e16785369ccabb65475c1d"
                            },
                            {
                                "name": "signature",
                                "type": "bytes",
                                "value": "0x5e5676c5b3eb73ac71e96e196917312fe592b5676a8ddf71ca98f1dafb35d7736adf65c6c2b3c05dbbd33c4e3732f469cb9529a849e990b11f0a6588b0aa4e8a1b"
                            }
                        ],
                        "constructorArguments": "",
                        "name": "mint",
                        "returnParams": [],
                        "signature": "mint(address,bytes)"
                    },
                    "errorInfo": "",
                    "fromAddress": "0x14cadb745a5d175f00899165db0567f9382a01f2",
                    "gasUsed": 81826,
                    "id": 0,
                    "methodDecoded": true,
                    "operation": "CALL",
                    "output": "",
                    "revert": false,
                    "revertMessage": "",
                    "selector": "0xb510391f",
                    "status": true,
                    "value": "0"
                },
                "nodeType": 0
            },
            "1": {
                "invocation": {
                    "address": "0x0000000000000000000000000000000000000001",
                    "callData": "0x28979a2633ebdf5c97e0df3fba87e04bb06348445c2b96966f95a56d000000000000000000000000000000000000000000000000000000000000001b5e5676c5b3eb73ac71e96e196917312fe592b5676a8ddf71ca98f1dafb35d7736adf65c6c2b3c05dbbd33c4e3732f469cb9529a849e990b11f0a6588b0aa4e8a",
                    "decodedMethod": {
                        "callParams": [
                            {
                                "name": "hash",
                                "type": "bytes32",
                                "value": "0x955fce8128979a2633ebdf5c97e0df3fba87e04bb06348445c2b96966f95a56d"
                            },
                            {
                                "name": "v",
                                "type": "uint256",
                                "value": "27"
                            },
                            {
                                "name": "r",
                                "type": "bytes32",
                                "value": "0x5e5676c5b3eb73ac71e96e196917312fe592b5676a8ddf71ca98f1dafb35d773"
                            },
                            {
                                "name": "s",
                                "type": "bytes32",
                                "value": "0x6adf65c6c2b3c05dbbd33c4e3732f469cb9529a849e990b11f0a6588b0aa4e8a"
                            }
                        ],
                        "constructorArguments": "",
                        "name": "ecrecover",
                        "returnParams": [
                            {
                                "name": "",
                                "type": "address",
                                "value": "0x1e4f983282ff73965889ea98ff4d982d4668605c"
                            }
                        ],
                        "signature": "ecrecover(bytes32,uint256,bytes32,bytes32)"
                    },
                    "errorInfo": "",
                    "fromAddress": "0x0000000000664ceffed39244a8312bd895470803",
                    "gasUsed": 3000,
                    "id": 1,
                    "methodDecoded": true,
                    "operation": "STATICCALL",
                    "output": "0x0000000000000000000000001e4f983282ff73965889ea98ff4d982d4668605c",
                    "revert": false,
                    "revertMessage": "",
                    "selector": "0x955fce81",
                    "status": true,
                    "value": "0"
                },
                "nodeType": 0
            },
            "2": {
                "event": {
                    "contract": "0x0000000000664ceffed39244a8312bd895470803",
                    "decodedLog": {
                        "name": "MinterReferred",
                        "params": [
                            {
                                "name": "referrer",
                                "type": "address",
                                "value": "0x88902117d492794c19e16785369ccabb65475c1d"
                            }
                        ],
                        "signature": "MinterReferred(address)"
                    },
                    "id": 2,
                    "logData": "0x00000000000000000000000088902117d492794c19e16785369ccabb65475c1d",
                    "logDecoded": true,
                    "operation": "EVENT",
                    "revert": false,
                    "status": true,
                    "topics": [
                        "0xcecb5f5b62b88dc819e81f535d3c431ec78987ab181067baac5d532dde7ee38a"
                    ]
                },
                "nodeType": 1
            },
            "3": {
                "event": {
                    "contract": "0x0000000000664ceffed39244a8312bd895470803",
                    "decodedLog": {
                        "name": "Transfer",
                        "params": [
                            {
                                "name": "from",
                                "type": "address",
                                "value": "0x0000000000000000000000000000000000000000"
                            },
                            {
                                "name": "to",
                                "type": "address",
                                "value": "0x14cadb745a5d175f00899165db0567f9382a01f2"
                            },
                            {
                                "decimalAvailable": true,
                                "name": "tokenId",
                                "type": "uint256",
                                "value": "141,681"
                            }
                        ],
                        "signature": "Transfer(address,address,uint256)"
                    },
                    "id": 3,
                    "logData": "0x",
                    "logDecoded": true,
                    "operation": "EVENT",
                    "revert": false,
                    "status": true,
                    "topics": [
                        "0xddf252ad1be2c89b69c2b068fc378daa952ba7f163c4a11628f55a4df523b3ef",
                        "0x0000000000000000000000000000000000000000000000000000000000000000",
                        "0x00000000000000000000000014cadb745a5d175f00899165db0567f9382a01f2",
                        "0x0000000000000000000000000000000000000000000000000000000000022971"
                    ]
                },
                "nodeType": 1
            }
        },
        "gasFlame": [
            {
                "children": [
                    {
                        "children": [
                            {
                                "children": [],
                                "depth": 0,
                                "name": "Initial Gas",
                                "value": 22876
                            },
                            {
                                "children": [
                                    {
                                        "children": [],
                                        "depth": 1,
                                        "name": "ecrecover",
                                        "value": 3000
                                    }
                                ],
                                "depth": 0,
                                "name": "Executed Gas",
                                "value": 58950
                            }
                        ],
                        "depth": -1,
                        "name": "Actual Gas Used",
                        "value": 81826
                    },
                    {
                        "children": [],
                        "depth": -1,
                        "name": "Refunded Gas",
                        "value": 0
                    }
                ],
                "depth": -2,
                "name": "Total Gas",
                "value": 81826
            }
        ],
        "isConfirmed": true,
        "mainTrace": [
            {
                "children": [
                    {
                        "children": [
                            {
                                "children": [],
                                "depth": 1,
                                "id": 1,
                                "order": 1
                            },
                            {
                                "children": [],
                                "depth": 1,
                                "id": 2,
                                "order": 2
                            },
                            {
                                "children": [],
                                "depth": 1,
                                "id": 3,
                                "order": 3
                            }
                        ],
                        "depth": 0,
                        "id": 0,
                        "order": 0
                    }
                ],
                "depth": -1,
                "id": -1,
                "order": -1
            }
        ],
        "mainTraceNodeCount": 4,
        "parentIdMap": {
            "0": -1,
            "1": 0,
            "2": 0,
            "3": 0
        },
        "tidyTrace": [
            {
                "children": [
                    {
                        "children": [
                            {
                                "children": [],
                                "depth": 1,
                                "id": 2,
                                "order": 2
                            },
                            {
                                "children": [],
                                "depth": 1,
                                "id": 3,
                                "order": 3
                            }
                        ],
                        "depth": 0,
                        "id": 0,
                        "order": 0
                    }
                ],
                "depth": -1,
                "id": -1,
                "order": -1
            }
        ],
        "tidyTraceNodeCount": 3
    },
    "state_change": {
        "stateChanges": [
            {
                "address": "0x0000000000664ceffed39244a8312bd895470803",
                "erc": "ERC-721",
                "slots": [
                    {
                        "current": "0x0000000000000000000000000000000000000000000000000000000000022972",
                        "key": "0x0000000000000000000000000000000000000000000000000000000000000004",
                        "prev": "0x0000000000000000000000000000000000000000000000000000000000022971"
                    },
                    {
                        "current": "0x00000000000000000000000014cadb745a5d175f00899165db0567f9382a01f2",
                        "key": "0x1f0b3538a78ae57fde3c6d5faf9a8d433285dbb106969e47b85dc7eef798ea5a",
                        "prev": "0x0000000000000000000000000000000000000000000000000000000000000000"
                    },
                    {
                        "current": "0x0000000000000000000000000000000000000000000000000000000000022971",
                        "key": "0x4c6439b6e8ef4360a9207d4c7e41826427e9260a3777f07753202472a4eba089",
                        "prev": "0x0000000000000000000000000000000000000000000000000000000000000000"
                    }
                ],
                "storageVariables": [
                    {
                        "name": "_tokens",
                        "type": "mapping(address => uint256)",
                        "value": {
                            "pairs": [
                                {
                                    "key": "0x14cadb745a5d175f00899165db0567f9382a01f2",
                                    "value": {
                                        "current": "141681",
                                        "prev": "0",
                                        "typeTag": 1
                                    }
                                }
                            ],
                            "typeTag": 4
                        }
                    },
                    {
                        "name": "_nextTokenId",
                        "type": "uint256",
                        "value": {
                            "current": "141682",
                            "prev": "141681",
                            "typeTag": 1
                        }
                    },
                    {
                        "name": "_owners",
                        "type": "mapping(uint256 => address)",
                        "value": {
                            "pairs": [
                                {
                                    "key": "141681",
                                    "value": {
                                        "current": "0x14cadb745a5d175f00899165db0567f9382a01f2",
                                        "prev": "0x0000000000000000000000000000000000000000",
                                        "typeTag": 1
                                    }
                                }
                            ],
                            "typeTag": 4
                        }
                    }
                ]
            }
        ]
    }
}