{
    "balance_change": {
        "balanceChanges": [
            {
                "account": "0x39e0f01bb4eeb131664c5aa7eeab392ea6f8878b",
                "assets": [
                    {
                        "address": "0xe439f4d6294dbaef7c3899636351511830b7fb6e",
                        "amount": "1",
                        "iconUrl": "",
                        "isERC1155": false,
                        "isERC721": true,
                        "sign": false,
                        "tokenID": "1",
                        "value": ""
                    }
                ]
            },
            {
                "account": "0xcda72070e455bb31c7690a170224ce43623d0b6f",
                "assets": [
                    {
                        "address": "0xe439f4d6294dbaef7c3899636351511830b7fb6e",
                        "amount": "1",
                        "iconUrl": "",
                        "isERC1155": false,
                        "isERC721": true,
                        "sign": true,
                        "tokenID": "1",
                        "value": ""
                    }
                ]
            }
        ]
    },
    "profile": {
        "basic_info": {
            "baseFee": "105.897997135",
            "blockNumber": 14049414,
            "callData": "0x4ce6931a000000000000000000000000e439f4d6294dbaef7c3899636351511830b7fb6e0000000000000000000000000000000000000000000000000000000000000001000000000000000000000000000000000000000000000000136dcc951d8c0000",
            "debugEnable": true,
            "errorInfo": "",
            "eventCount": 3,
            "feeRecipient": "0xea674fdde714fd979de3edf0f56aa9716b898ec8",
            "formatValue": "0",
            "gasLimit": 285599,
            "gasPrice": "107.397997135",
            "gasUsed": 246288,
            "intTxnCount": 3,
            "internalRevert": false,
            "internalRevertMessage": "",
            "isContractCreation": false,
            "isFlashloan": false,
            "maxFee": "146.113972907",
            "nonce": 2,
            "overwritedBlockNumber": -1,
            "priorityFee": "1.5",
            "receiver": "0xcda72070e455bb31c7690a170224ce43623d0b6f",
            "revertMessage": "",
            "sender": "0x39e0f01bb4eeb131664c5aa7eeab392ea6f8878b",
            "simulationEnable": true,
            "sourceTxnHash": "0xc3b425aed72f66da58e0373088dbbb33115b52d3ddf426e31f6e3c525181c828",
            "status": true,
            "timestamp": "2022-01-21T14:22:26Z",
            "transactionFee": "0.02645083791838488",
            "txnHash": "0xc3b425aed72f66da58e0373088dbbb33115b52d3ddf426e31f6e3c525181c828",
            "txnIndex": 244,
            "type": 2,
            "value": "0"
        },
        "fund_flow": [
            {
                "amount": "1",
                "from": "0x39e0f01bb4eeb131664c5aa7eeab392ea6f8878b",
                "id": 1,
                "isERC1155": false,
                "isERC721": true,
                "isReverted": false,
                "order": 1,
                "to": "0xcda72070e455bb31c7690a170224ce43623d0b6f",
                "token": "0xe439f4d6294dbaef7c3899636351511830b7fb6e",
                "tokenID": "1"
            }
        ],
        "token_infos": [
            {
                "address": "0xeeeeeeeeeeeeeeeeeeeeeeeeeeeeeeeeeeeeeeee",
                "decimals": 18
            },
            {
                "address": "0xc02aaa39b223fe8d0a0e5c4f27ead9083c756cc2",
                "decimals": 18
            }
        ]
    },
    "address_label": {
        "labels": [
            {
                "address": "0x0000000000000000000000000000000000000002",
                "label": "Precompiled"
            },
            {
                "address": "0x0000000000000000000000000000000000000003",
                "label": "Precompiled"
            },
            {
                "address": "0x0000000000000000000000000000000000000004",
                "label": "Precompiled"
            },
            {
                "address": "0xeeeeeeeeeeeeeeeeeeeeeeeeeeeeeeeeeeeeeeee",
                "label": "Ether"
            },
            {
                "address": "0xe38f942db7a1b4213d6213f70c499b59287b01f1",
                "label": "Foundation Collection Template v2 (FCTv2)"
            },
            {
                "address": "0xcda72070e455bb31c7690a170224ce43623d0b6f",
                "label": "Foundation: Market"
            },
            {
                "address": "0x005d77e5eeab2f17e62a11f1b213736ca3c05cf6",
                "label": "FNDNFTMarket"
            },
            {
                "address": "0x0000000000000000000000000000000000000001",
                "label": "Precompiled"
            }
        ]
    },
    "trace": {
        "accountLabels": null,
        "dataMap": {
            "-1": {
                "invocation": {
                    "address": "0x39e0f01bb4eeb131664c5aa7eeab392ea6f8878b",
                    "callData": "",
                    "decodedMethod": null,
                    "errorInfo": "",
                    "fromAddress": "",
                    "gasUsed": 0,
                    "id": -1,
                    "methodDecoded": false,
                    "operation": "",
                    "output": "",
                    "revert": false,
                    "revertMessage": "",
                    "selector": "",
                    "status": false,
                    "value": ""
                },
                "nodeType": 0
            },
            "0": {
                "invocation": {
                    "address": "0xcda72070e455bb31c7690a170224ce43623d0b6f",
                    "callData": "0x000000000000000000000000e439f4d6294dbaef7c3899636351511830b7fb6e0000000000000000000000000000000000000000000000000000000000000001000000000000000000000000000000000000000000000000136dcc951d8c0000",
                    "decodedMethod": {
                        "callParams": [
                            {
                                "name": "nftContract",
                                "type": "address",
                                "value": "0xe439f4d6294dbaef7c3899636351511830b7fb6e"
                            },
                            {
                                "name": "tokenId",
                                "type": "uint256",
                                "value": "1"
                            },
                            {
                                "name": "reservePrice",
                                "type": "uint256",
                                "value": "1,400,000,000,000,000,000"
                            }
                        ],
                        "constructorArguments": "",
                        "name": "createReserveAuction",
                        "returnParams": [],
                        "signature": "createReserveAuction(address,uint256,uint256)"
                    },
                    "errorInfo": "",
                    "fromAddress": "0x39e0f01bb4eeb131664c5aa7eeab392ea6f8878b",
                    "gasUsed": 246288,
                    "id": 0,
                    "methodDecoded": true,
                    "operation": "CALL",
                    "output": "",
                    "revert": false,
                    "revertMessage": "",
                    "selector": "0x4ce6931a",
                    "status": true,
                    "value": "0"
                },
                "nodeType": 0
            },
            "1": {
                "invocation": {
                    "address": "0x005d77e5eeab2f17e62a11f1b213736ca3c05cf6",
                    "callData": "0x000000000000000000000000e439f4d6294dbaef7c3899636351511830b7fb6e0000000000000000000000000000000000000000000000000000000000000001000000000000000000000000000000000000000000000000136dcc951d8c0000",
                    "decodedMethod": {
                        "callParams": [
                            {
                                "name": "nftContract",
                                "type": "address",
                                "value": "0xe439f4d6294dbaef7c3899636351511830b7fb6e"
                            },
                            {
                                "name": "tokenId",
                                "type": "uint256",
                                "value": "1"
                            },
                            {
                                "name": "reservePrice",
                                "type": "uint256",
                                "value": "1,400,000,000,000,000,000"
                            }
                        ],
                        "constructorArguments": "",
                        "name": "createReserveAuction",
                        "returnParams": [],
                        "signature": "createReserveAuction(address,uint256,uint256)"
                    },
                    "errorInfo": "",
                    "fromAddress": "0xcda72070e455bb31c7690a170224ce43623d0b6f",
                    "gasUsed": 224834,
                    "id": 1,
                    "methodDecoded": true,
                    "operation": "DELEGATECALL",
                    "output": "",
                    "revert": false,
                    "revertMessage": "",
                    "selector": "0x4ce6931a",
                    "status": true,
                    "value": "0"
                },
                "nodeType": 0
            },
            "2": {
                "invocation": {
                    "address": "0xe439f4d6294dbaef7c3899636351511830b7fb6e",
                    "callData": "0x00000000000000000000000039e0f01bb4eeb131664c5aa7eeab392ea6f8878b000000000000000000000000cda72070e455bb31c7690a170224ce43623d0b6f0000000000000000000000000000000000000000000000000000000000000001",
                    "decodedMethod": {
                        "callParams": [
                            {
                                "name": "from",
                                "type": "address",
                                "value": "0x39e0f01bb4eeb131664c5aa7eeab392ea6f8878b"
                            },
                            {
                                "name": "to",
                                "type": "address",
                                "value": "0xcda72070e455bb31c7690a170224ce43623d0b6f"
                            },
                            {
                                "decimalAvailable": true,
                                "name": "tokenId",
                                "type": "uint256",
                                "value": "1"
                            }
                        ],
                        "constructorArguments": "",
                        "name": "transferFrom",
                        "returnParams": [],
                        "signature": "transferFrom(address,address,uint256)"
                    },
                    "errorInfo": "",
                    "fromAddress": "0xcda72070e455bb31c7690a170224ce43623d0b6f",
                    "gasUsed": 45917,
                    "id": 2,
                    "methodDecoded": true,
                    "operation": "CALL",
                    "output": "",
                    "revert": false,
                    "revertMessage": "",
                    "selector": "0x23b872dd",
                    "status": true,
                    "value": "0"
                },
                "nodeType": 0
            },
            "3": {
                "invocation": {
                    "address": "0xe38f942db7a1b4213d6213f70c499b59287b01f1",
                    "callData": "0x00000000000000000000000039e0f01bb4eeb131664c5aa7eeab392ea6f8878b000000000000000000000000cda72070e455bb31c7690a170224ce43623d0b6f0000000000000000000000000000000000000000000000000000000000000001",
                    "decodedMethod": {
                        "callParams": [
                            {
                                "name": "from",
                                "type": "address",
                                "value": "0x39e0f01bb4eeb131664c5aa7eeab392ea6f8878b"
                            },
                            {
                                "name": "to",
                                "type": "address",
                                "value": "0xcda72070e455bb31c7690a170224ce43623d0b6f"
                            },
                            {
                                "decimalAvailable": true,
                                "name": "tokenId",
                                "type": "uint256",
                                "value": "1"
                            }
                        ],
                        "constructorArguments": "",
                        "name": "transferFrom",
                        "returnParams": [],
                        "signature": "transferFrom(address,address,uint256)"
                    },
                    "errorInfo": "",
                    "fromAddress": "0xe439f4d6294dbaef7c3899636351511830b7fb6e",
                    "gasUsed": 43236,
                    "id": 3,
                    "methodDecoded": true,
                    "operation": "DELEGATECALL",
                    "output": "",
                    "revert": false,
                    "revertMessage": "",
                    "selector": "0x23b872dd",
                    "status": true,
                    "value": "0"
                },
                "nodeType": 0
            },
            "4": {
                "event": {
                    "contract": "0xe439f4d6294dbaef7c3899636351511830b7fb6e",
                    "decodedLog": {
                        "name": "Approval",
                        "params": [
                            {
                                "name": "owner",
                                "type": "address",
                                "value": "0x39e0f01bb4eeb131664c5aa7eeab392ea6f8878b"
                            },
                            {
                                "name": "approved",
                                "type": "address",
                                "value": "0x0000000000000000000000000000000000000000"
                            },
                            {
                                "decimalAvailable": true,
                                "name": "tokenId",
                                "type": "uint256",
                                "value": "1"
                            }
                        ],
                        "signature": "Approval(address,address,uint256)"
                    },
                    "id": 4,
                    "logData": "0x",
                    "logDecoded": true,
                    "operation": "EVENT",
                    "revert": false,
                    "status": true,
                    "topics": [
                        "0x8c5be1e5ebec7d5bd14f71427d1e84f3dd0314c0f7b2291e5b200ac8c7c3b925",
                        "0x00000000000000000000000039e0f01bb4eeb131664c5aa7eeab392ea6f8878b",
                        "0x0000000000000000000000000000000000000000000000000000000000000000",
                        "0x0000000000000000000000000000000000000000000000000000000000000001"
                    ]
                },
                "nodeType": 1
            },
            "5": {
                "event": {
                    "contract": "0xe439f4d6294dbaef7c3899636351511830b7fb6e",
                    "decodedLog": {
                        "name": "Transfer",
                        "params": [
                            {
                                "name": "from",
                                "type": "address",
                                "value": "0x39e0f01bb4eeb131664c5aa7eeab392ea6f8878b"
                            },
                            {
                                "name": "to",
                                "type": "address",
                                "value": "0xcda72070e455bb31c7690a170224ce43623d0b6f"
                            },
                            {
                                "decimalAvailable": true,
                                "name": "tokenId",
                                "type": "uint256",
                                "value": "1"
                            }
                        ],
                        "signature": "Transfer(address,address,uint256)"
                    },
                    "id": 5,
                    "logData": "0x",
                    "logDecoded": true,
                    "operation": "EVENT",
                    "revert": false,
                    "status": true,
                    "topics": [
                        "0xddf252ad1be2c89b69c2b068fc378daa952ba7f163c4a11628f55a4df523b3ef",
                        "0x00000000000000000000000039e0f01bb4eeb131664c5aa7eeab392ea6f8878b",
                        "0x000000000000000000000000cda72070e455bb31c7690a170224ce43623d0b6f",
                        "0x0000000000000000000000000000000000000000000000000000000000000001"
                    ]
                },
                "nodeType": 1
            },
            "6": {
                "event": {
                    "contract": "0xcda72070e455bb31c7690a170224ce43623d0b6f",
                    "decodedLog": {
                        "name": "ReserveAuctionCreated",
                        "params": [
                            {
                                "name": "seller",
                                "type": "address",
                                "value": "0x39e0f01bb4eeb131664c5aa7eeab392ea6f8878b"
                            },
                            {
                                "name": "nftContract",
                                "type": "address",
                                "value": "0xe439f4d6294dbaef7c3899636351511830b7fb6e"
                            },
                            {
                                "name": "tokenId",
                                "type": "uint256",
                                "value": "1"
                            },
                            {
                                "name": "duration",
                                "type": "uint256",
                                "value": "86,400"
                            },
                            {
                                "name": "extensionDuration",
                                "type": "uint256",
                                "value": "900"
                            },
                            {
                                "name": "reservePrice",
                                "type": "uint256",
                                "value": "1,400,000,000,000,000,000"
                            },
                            {
                                "name": "auctionId",
                                "type": "uint256",
                                "value": "143,612"
                            }
                        ],
                        "signature": "ReserveAuctionCreated(address,address,uint256,uint256,uint256,uint256,uint256)"
                    },
                    "id": 6,
                    "logData": "0x00000000000000000000000000000000000000000000000000000000000151800000000000000000000000000000000000000000000000000000000000000384000000000000000000000000000000000000000000000000136dcc951d8c000000000000000000000000000000000000000000000000000000000000000230fc",
                    "logDecoded": true,
                    "operation": "EVENT",
                    "revert": false,
                    "status": true,
                    "topics": [
                        "0x1062dd3b35f12b4064331244d00f40c1d4831965e4285654157a2409c6217cff",
                        "0x00000000000000000000000039e0f01bb4eeb131664c5aa7eeab392ea6f8878b",
                        "0x000000000000000000000000e439f4d6294dbaef7c3899636351511830b7fb6e",
                        "0x0000000000000000000000000000000000000000000000000000000000000001"
                    ]
                },
                "nodeType": 1
            }
        },
        "gasFlame": [
            {
                "children": [
                    {
                        "children": [
                            {
                                "children": [],
                                "depth": 0,
                                "name": "Initial Gas",
                                "value": 21772
                            },
                            {
                                "children": [
                                    {
                                        "children": [
                                            {
                                                "children": [
                                                    {
                                                        "children": [],
                                                        "depth": 3,
                                                        "name": "transferFrom",
                                                        "value": 43236
                                                    }
                                                ],
                                                "depth": 2,
                                                "name": "transferFrom",
                                                "value": 45917
                                            }
                                        ],
                                        "depth": 1,
                                        "name": "createReserveAuction",
                                        "value": 224834
                                    }
                                ],
                                "depth": 0,
                                "name": "Executed Gas",
                                "value": 232116
                            }
                        ],
                        "depth": -1,
                        "name": "Actual Gas Used",
                        "value": 246288
                    },
                    {
                        "children": [],
                        "depth": -1,
                        "name": "Refunded Gas",
                        "value": 7600
                    }
                ],
                "depth": -2,
                "name": "Total Gas",
                "value": 253888
            }
        ],
        "isConfirmed": true,
        "mainTrace": [
            {
                "children": [
                    {
                        "children": [
                            {
                                "children": [
                                    {
                                        "children": [
                                            {
                                                "children": [
                                                    {
                                                        "children": [],
                                                        "depth": 4,
                                                        "id": 4,
                                                        "order": 4
                                                    },
                                                    {
                                                        "children": [],
                                                        "depth": 4,
                                                        "id": 5,
                                                        "order": 5
                                                    }
                                                ],
                                                "depth": 3,
                                                "id": 3,
                                                "order": 3
                                            }
                                        ],
                                        "depth": 2,
                                        "id": 2,
                                        "order": 2
                                    },
                                    {
                                        "children": [],
                                        "depth": 2,
                                        "id": 6,
                                        "order": 6
                                    }
                                ],
                                "depth": 1,
                                "id": 1,
                                "order": 1
                            }
                        ],
                        "depth": 0,
                        "id": 0,
                        "order": 0
                    }
                ],
                "depth": -1,
                "id": -1,
                "order": -1
            }
        ],
        "mainTraceNodeCount": 7,
        "parentIdMap": {
            "0": -1,
            "1": 0,
            "2": 1,
            "3": 2,
            "4": 3,
            "5": 3,
            "6": 1
        },
        "tidyTrace": [
            {
                "children": [
                    {
                        "children": [
                            {
                                "children": [
                                    {
                                        "children": [
                                            {
                                                "children": [
                                                    {
                                                        "children": [],
                                                        "depth": 4,
                                                        "id": 4,
                                                        "order": 4
                                                    },
                                                    {
                                                        "children": [],
                                                        "depth": 4,
                                                        "id": 5,
                                                        "order": 5
                                                    }
                                                ],
                                                "depth": 3,
                                                "id": 3,
                                                "order": 3
                                            }
                                        ],
                                        "depth": 2,
                                        "id": 2,
                                        "order": 2
                                    },
                                    {
                                        "children": [],
                                        "depth": 2,
                                        "id": 6,
                                        "order": 6
                                    }
                                ],
                                "depth": 1,
                                "id": 1,
                                "order": 1
                            }
                        ],
                        "depth": 0,
                        "id": 0,
                        "order": 0
                    }
                ],
                "depth": -1,
                "id": -1,
                "order": -1
            }
        ],
        "tidyTraceNodeCount": 7
    },
    "state_change": {
        "stateChanges": [
            {
                "address": "0xcda72070e455bb31c7690a170224ce43623d0b6f",
                "erc": "",
                "slots": [
                    {
                        "current": "0x0000000000000000000000000000000000000000000000000000000000000001",
                        "key": "0x7ef738e9fe85e3dda820cd81943c6b87ec30fc03f92efccbfaa4d68fe2ceec34",
                        "prev": "0x0000000000000000000000000000000000000000000000000000000000000000"
                    },
                    {
                        "current": "0x00000000000000000000000039e0f01bb4eeb131664c5aa7eeab392ea6f8878b",
                        "key": "0x7ef738e9fe85e3dda820cd81943c6b87ec30fc03f92efccbfaa4d68fe2ceec35",
                        "prev": "0x0000000000000000000000000000000000000000000000000000000000000000"
                    },
                    {
                        "current": "0x000000000000000000000000e439f4d6294dbaef7c3899636351511830b7fb6e",
                        "key": "0x7ef738e9fe85e3dda820cd81943c6b87ec30fc03f92efccbfaa4d68fe2ceec33",
                        "prev": "0x0000000000000000000000000000000000000000000000000000000000000000"
                    },
                    {
                        "current": "0x0000000000000000000000000000000000000000000000000000000000015180",
                        "key": "0x7ef738e9fe85e3dda820cd81943c6b87ec30fc03f92efccbfaa4d68fe2ceec36",
                        "prev": "0x0000000000000000000000000000000000000000000000000000000000000000"
                    },
                    {
                        "current": "0x000000000000000000000000000000000000000000000000136dcc951d8c0000",
                        "key": "0x7ef738e9fe85e3dda820cd81943c6b87ec30fc03f92efccbfaa4d68fe2ceec3a",
                        "prev": "0x0000000000000000000000000000000000000000000000000000000000000000"
                    },
                    {
                        "current": "0x00000000000000000000000000000000000000000000000000000000000230fc",
                        "key": "0xfe1768e6387011afda04a2892a8dc7f2f6fe801fa422ae703f2b86b8242db980",
                        "prev": "0x0000000000000000000000000000000000000000000000000000000000000000"
                    },
                    {
                        "current": "0x00000000000000000000000000000000000000000000000000000000000230fd",
                        "key": "0x000000000000000000000000000000000000000000000000000000000000138d",
                        "prev": "0x00000000000000000000000000000000000000000000000000000000000230fc"
                    },
                    {
                        "current": "0x0000000000000000000000000000000000000000000000000000000000000384",
                        "key": "0x7ef738e9fe85e3dda820cd81943c6b87ec30fc03f92efccbfaa4d68fe2ceec37",
                        "prev": "0x0000000000000000000000000000000000000000000000000000000000000000"
                    }
                ],
                "storageVariables": [
                    {
                        "name": "nftContractToTokenIdToAuctionId",
                        "type": "mapping(address => mapping(uint256 => uint256))",
                        "value": {
                            "pairs": [
                                {
                                    "key": "0xe439f4d6294dbaef7c3899636351511830b7fb6e",
                                    "value": {
                                        "pairs": [
                                            {
                                                "key": "1",
                                                "value": {
                                                    "current": "143612",
                                                    "prev": "0",
                                                    "typeTag": 1
                                                }
                                            }
                                        ],
                                        "typeTag": 4
                                    }
                                }
                            ],
                            "typeTag": 4
                        }
                    },
                    {
                        "name": "nextAuctionId",
                        "type": "uint256",
                        "value": {
                            "current": "143613",
                            "prev": "143612",
                            "typeTag": 1
                        }
                    },
                    {
                        "name": "auctionIdToAuction",
                        "type": "mapping(uint256 => struct NFTMarketReserveAuction.ReserveAuction)",
                        "value": {
                            "pairs": [
                                {
                                    "key": "143612",
                                    "value": {
                                        "fields": [
                                            {
                                                "name": "nftContract",
                                                "type": "address",
                                                "value": {
                                                    "current": "0xe439f4d6294dbaef7c3899636351511830b7fb6e",
                                                    "prev": "0x0000000000000000000000000000000000000000",
                                                    "typeTag": 1
                                                }
                                            },
                                            {
                                                "name": "tokenId",
                                                "type": "uint256",
                                                "value": {
                                                    "current": "1",
                                                    "prev": "0",
                                                    "typeTag": 1
                                                }
                                            },
                                            {
                                                "name": "seller",
                                                "type": "address payable",
                                                "value": {
                                                    "current": "0x39e0f01bb4eeb131664c5aa7eeab392ea6f8878b",
                                                    "prev": "0x0000000000000000000000000000000000000000",
                                                    "typeTag": 1
                                                }
                                            },
                                            {
                                                "name": "duration",
                                                "type": "uint256",
                                                "value": {
                                                    "current": "86400",
                                                    "prev": "0",
                                                    "typeTag": 1
                                                }
                                            },
                                            {
                                                "name": "extensionDuration",
                                                "type": "uint256",
                                                "value": {
                                                    "current": "900",
                                                    "prev": "0",
                                                    "typeTag": 1
                                                }
                                            },
                                            {
                                                "name": "amount",
                                                "type": "uint256",
                                                "value": {
                                                    "current": "1400000000000000000",
                                                    "prev": "0",
                                                    "typeTag": 1
                                                }
                                            }
                                        ],
                                        "typeTag": 3
                                    }
                                }
                            ],
                            "typeTag": 4
                        }
                    }
                ]
            },
            {
                "address": "0xe439f4d6294dbaef7c3899636351511830b7fb6e",
                "erc": "ERC-721",
                "slots": [
                    {
                        "current": "0x0000000000000000000000000000000000000000000000000000000000000000",
                        "key": "0x9538095565665d1242d06750d25093fd146e3ada8a0a8a4cd878784bf483427f",
                        "prev": "0x0000000000000000000000000000000000000000000000000000000000000001"
                    },
                    {
                        "current": "0x0000000000000000000000000000000000000000000000000000000000000001",
                        "key": "0xeb40862b1d6c4ab7ecfc5aea55b22c875e4ab0a78d1a611b68c7ad49f7631166",
                        "prev": "0x0000000000000000000000000000000000000000000000000000000000000000"
                    },
                    {
                        "current": "0x000000000000000000000000cda72070e455bb31c7690a170224ce43623d0b6f",
                        "key": "0x6bee784efeb983674392298ab585b22866bedf00ebb0eea949d1e66f3f50e71d",
                        "prev": "0x00000000000000000000000039e0f01bb4eeb131664c5aa7eeab392ea6f8878b"
                    }
                ],
                "storageVariables": [
                    {
                        "name": "_balances",
                        "type": "mapping(address => uint256)",
                        "value": {
                            "pairs": [
                                {
                                    "key": "0x39e0f01bb4eeb131664c5aa7eeab392ea6f8878b",
                                    "value": {
                                        "current": "0",
                                        "prev": "1",
                                        "typeTag": 1
                                    }
                                },
                                {
                                    "key": "0xcda72070e455bb31c7690a170224ce43623d0b6f",
                                    "value": {
                                        "current": "1",
                                        "prev": "0",
                                        "typeTag": 1
                                    }
                                }
                            ],
                            "typeTag": 4
                        }
                    },
                    {
                        "name": "_owners",
                        "type": "mapping(uint256 => address)",
                        "value": {
                            "pairs": [
                                {
                                    "key": "1",
                                    "value": {
                                        "current": "0xcda72070e455bb31c7690a170224ce43623d0b6f",
                                        "prev": "0x39e0f01bb4eeb131664c5aa7eeab392ea6f8878b",
                                        "typeTag": 1
                                    }
                                }
                            ],
                            "typeTag": 4
                        }
                    }
                ]
            }
        ]
    }
}