{
    "balance_change": {
        "balanceChanges": []
    },
    "profile": {
        "basic_info": {
            "baseFee": "",
            "blockNumber": 10536639,
            "callData": "0x64887334000000000000000000000000000000000000000000000000000000000000008000000000000000000000000000000000000000000000000000000000000000c00000000000000000000000000000000000000000000000000000000000a0c6be00000000000000000000000000000000000000000000000000000000000001000000000000000000000000000000000000000000000000000000000000000001f5f4f6f4f7fff4f4fc000000000000000000000000000000000000000000000000000000000000000000000000000000000000000000000000000000000000010b0c0a0c093e0c0c04000000000000000000000000000000000000000000000000000000000000000000000000000000000000000000000000000000000000010000000000000000000000000000000000000000000000000000000000000000",
            "debugEnable": true,
            "errorInfo": "",
            "eventCount": 0,
            "feeRecipient": "0x5a0b54d5dc17e0aadc383d2db43b0a0d3e029c4c",
            "formatValue": "0",
            "gasLimit": 500000,
            "gasPrice": "53",
            "gasUsed": 31864,
            "intTxnCount": 0,
            "internalRevert": false,
            "internalRevertMessage": "",
            "isContractCreation": false,
            "isFlashloan": false,
            "maxFee": "",
            "nonce": 131668,
            "overwritedBlockNumber": -1,
            "priorityFee": "",
            "receiver": "0x0559324025d6ef4a715c2e22562b90210fcfe25a",
            "revertMessage": "",
            "sender": "0x76043f4d08e2f3f2da6be61f43b637dd7eabf586",
            "simulationEnable": true,
            "sourceTxnHash": "0xc31e028b0562d5065733740fb7f219dae45b0f3e16bbda6576d519c43f228d55",
            "status": true,
            "timestamp": "2020-07-26T18:09:42Z",
            "transactionFee": "0.001688792",
            "txnHash": "0xc31e028b0562d5065733740fb7f219dae45b0f3e16bbda6576d519c43f228d55",
            "txnIndex": 79,
            "type": 0,
            "value": "0"
        },
        "fund_flow": [],
        "token_infos": [
            {
                "address": "0xeeeeeeeeeeeeeeeeeeeeeeeeeeeeeeeeeeeeeeee",
                "decimals": 18
            },
            {
                "address": "0xc02aaa39b223fe8d0a0e5c4f27ead9083c756cc2",
                "decimals": 18
            }
        ]
    },
    "address_label": {
        "labels": [
            {
                "address": "0xeeeeeeeeeeeeeeeeeeeeeeeeeeeeeeeeeeeeeeee",
                "label": "Ether"
            },
            {
                "address": "0x0559324025d6ef4a715c2e22562b90210fcfe25a",
                "label": "ConversionRates"
            },
            {
                "address": "0x0000000000000000000000000000000000000001",
                "label": "Precompiled"
            },
            {
                "address": "0x0000000000000000000000000000000000000002",
                "label": "Precompiled"
            },
            {
                "address": "0x0000000000000000000000000000000000000003",
                "label": "Precompiled"
            },
            {
                "address": "0x0000000000000000000000000000000000000004",
                "label": "Precompiled"
            }
        ]
    },
    "trace": {
        "accountLabels": null,
        "dataMap": {
            "-1": {
                "invocation": {
                    "address": "0x76043f4d08e2f3f2da6be61f43b637dd7eabf586",
                    "callData": "",
                    "decodedMethod": null,
                    "errorInfo": "",
                    "fromAddress": "",
                    "gasUsed": 0,
                    "id": -1,
                    "methodDecoded": false,
                    "operation": "",
                    "output": "",
                    "revert": false,
                    "revertMessage": "",
                    "selector": "",
                    "status": false,
                    "value": ""
                },
                "nodeType": 0
            },
            "0": {
                "invocation": {
                    "address": "0x0559324025d6ef4a715c2e22562b90210fcfe25a",
                    "callData": "0x000000000000000000000000000000000000000000000000000000000000008000000000000000000000000000000000000000000000000000000000000000c00000000000000000000000000000000000000000000000000000000000a0c6be00000000000000000000000000000000000000000000000000000000000001000000000000000000000000000000000000000000000000000000000000000001f5f4f6f4f7fff4f4fc000000000000000000000000000000000000000000000000000000000000000000000000000000000000000000000000000000000000010b0c0a0c093e0c0c04000000000000000000000000000000000000000000000000000000000000000000000000000000000000000000000000000000000000010000000000000000000000000000000000000000000000000000000000000000",
                    "decodedMethod": {
                        "callParams": [
                            {
                                "name": "buy",
                                "type": "bytes14[]",
                                "value": [
                                    "0xf5f4f6f4f7fff4f4fc0000000000"
                                ]
                            },
                            {
                                "name": "sell",
                                "type": "bytes14[]",
                                "value": [
                                    "0x0b0c0a0c093e0c0c040000000000"
                                ]
                            },
                            {
                                "name": "blockNumber",
                                "type": "uint256",
                                "value": "10,536,638"
                            },
                            {
                                "name": "indices",
                                "type": "uint256[]",
                                "value": [
                                    "0"
                                ]
                            }
                        ],
                        "constructorArguments": "",
                        "name": "setCompactData",
                        "returnParams": [],
                        "signature": "setCompactData(bytes14[],bytes14[],uint256,uint256[])"
                    },
                    "errorInfo": "",
                    "fromAddress": "0x76043f4d08e2f3f2da6be61f43b637dd7eabf586",
                    "gasUsed": 31864,
                    "id": 0,
                    "methodDecoded": true,
                    "operation": "CALL",
                    "output": "",
                    "revert": false,
                    "revertMessage": "",
                    "selector": "0x64887334",
                    "status": true,
                    "value": "0"
                },
                "nodeType": 0
            }
        },
        "gasFlame": [
            {
                "children": [
                    {
                        "children": [
                            {
                                "children": [],
                                "depth": 0,
                                "name": "Initial Gas",
                                "value": 22668
                            },
                            {
                                "children": [],
                                "depth": 0,
                                "name": "Executed Gas",
                                "value": 9196
                            }
                        ],
                        "depth": -1,
                        "name": "Actual Gas Used",
                        "value": 31864
                    },
                    {
                        "children": [],
                        "depth": -1,
                        "name": "Refunded Gas",
                        "value": 0
                    }
                ],
                "depth": -2,
                "name": "Total Gas",
                "value": 31864
            }
        ],
        "isConfirmed": true,
        "mainTrace": [
            {
                "children": [
                    {
                        "children": [],
                        "depth": 0,
                        "id": 0,
                        "order": 0
                    }
                ],
                "depth": -1,
                "id": -1,
                "order": -1
            }
        ],
        "mainTraceNodeCount": 1,
        "parentIdMap": {
            "0": -1
        },
        "tidyTrace": [
            {
                "children": [
                    {
                        "children": [],
                        "depth": 0,
                        "id": 0,
                        "order": 0
                    }
                ],
                "depth": -1,
                "id": -1,
                "order": -1
            }
        ],
        "tidyTraceNodeCount": 1
    },
    "state_change": {
        "stateChanges": [
            {
                "address": "0x0559324025d6ef4a715c2e22562b90210fcfe25a",
                "erc": "",
                "slots": [
                    {
                        "current": "0x00a0c6be0b0c0a0c093e0c0c040000000000f5f4f6f4f7fff4f4fc0000000000",
                        "key": "0xdf6966c971051c3d54ec59162606531493a51404a002842f56009d7e5cf4a8c7",
                        "prev": "0x00a0c6b90c0c0c0c073f0c0c070000000000f4f4f4f4f9fef4f4f90000000000"
                    }
                ],
                "storageVariables": [
                    {
                        "name": "tokenRatesCompactData",
                        "type": "bytes32[]",
                        "value": {
                            "elemType": "bytes32",
                            "elems": [
                                {
                                    "index": 0,
                                    "value": {
                                        "current": "0x00a0c6be0b0c0a0c093e0c0c040000000000f5f4f6f4f7fff4f4fc0000000000",
                                        "prev": "0x00a0c6b90c0c0c0c073f0c0c070000000000f4f4f4f4f9fef4f4f90000000000",
                                        "typeTag": 1
                                    }
                                }
                            ],
                            "typeTag": 2
                        }
                    }
                ]
            }
        ]
    }
}