{
    "balance_change": {
        "balanceChanges": [
            {
                "account": "0xdb6c474ae3449782b1082455f24726bc6b25bfbb",
                "assets": [
                    {
                        "address": "0xcd79260f74f434cece693776e616c1bdc19ccd58",
                        "amount": "4,510",
                        "iconUrl": "",
                        "isERC1155": false,
                        "isERC721": false,
                        "sign": true,
                        "value": ""
                    },
                    {
                        "address": "0xeeeeeeeeeeeeeeeeeeeeeeeeeeeeeeeeeeeeeeee",
                        "amount": "0.012005289397745508",
                        "iconUrl": "https://assets.blocksec.com/image/1663669189317-3.png",
                        "isERC1155": false,
                        "isERC721": false,
                        "sign": false,
                        "value": "19.136791462281999673"
                    }
                ]
            },
            {
                "account": "0xdb5889e35e379ef0498aae126fc2cce1fbd23216",
                "assets": [
                    {
                        "address": "0xeeeeeeeeeeeeeeeeeeeeeeeeeeeeeeeeeeeeeeee",
                        "amount": "0.000069359300967777",
                        "iconUrl": "https://assets.blocksec.com/image/1663669189317-3.png",
                        "isERC1155": false,
                        "isERC721": false,
                        "sign": true,
                        "value": "0.110560806525209098106"
                    }
                ]
            },
            {
                "account": "0x026f468569526a770db00fc0f3807d8028d1425b",
                "assets": [
                    {
                        "address": "0xcd79260f74f434cece693776e616c1bdc19ccd58",
                        "amount": "5,500",
                        "iconUrl": "",
                        "isERC1155": false,
                        "isERC721": false,
                        "sign": false,
                        "value": ""
                    },
                    {
                        "address": "0xc02aaa39b223fe8d0a0e5c4f27ead9083c756cc2",
                        "amount": "0.006935930096777731",
                        "iconUrl": "https://assets.blocksec.com/icon/f1cb2d02c471d545bbc7722daf3277fd852d98e63d118771af7047bd8256c516.png",
                        "isERC1155": false,
                        "isERC721": false,
                        "sign": true,
                        "value": "11.056080652520909811"
                    }
                ]
            },
            {
                "account": "0x4838b106fce9647bdf1e7877bf73ce8b0bad5f97",
                "assets": [
                    {
                        "address": "0xeeeeeeeeeeeeeeeeeeeeeeeeeeeeeeeeeeeeeeee",
                        "amount": "0.005",
                        "iconUrl": "https://assets.blocksec.com/image/1663669189317-3.png",
                        "isERC1155": false,
                        "isERC721": false,
                        "sign": true,
                        "value": "7.9701499999999998636"
                    }
                ]
            },
            {
                "account": "0xc02aaa39b223fe8d0a0e5c4f27ead9083c756cc2",
                "assets": [
                    {
                        "address": "0xeeeeeeeeeeeeeeeeeeeeeeeeeeeeeeeeeeeeeeee",
                        "amount": "0.006935930096777731",
                        "iconUrl": "https://assets.blocksec.com/image/1663669189317-3.png",
                        "isERC1155": false,
                        "isERC721": false,
                        "sign": true,
                        "value": "11.056080652520909811"
                    },
                    {
                        "address": "0xc02aaa39b223fe8d0a0e5c4f27ead9083c756cc2",
                        "amount": "0.006935930096777731",
                        "iconUrl": "https://assets.blocksec.com/icon/f1cb2d02c471d545bbc7722daf3277fd852d98e63d118771af7047bd8256c516.png",
                        "isERC1155": false,
                        "isERC721": false,
                        "sign": false,
                        "value": "11.056080652520909811"
                    }
                ]
            },
            {
                "account": "0xcd79260f74f434cece693776e616c1bdc19ccd58",
                "assets": [
                    {
                        "address": "0xcd79260f74f434cece693776e616c1bdc19ccd58",
                        "amount": "990",
                        "iconUrl": "",
                        "isERC1155": false,
                        "isERC721": false,
                        "sign": true,
                        "value": ""
                    }
                ]
            }
        ]
    },
    "profile": {
        "basic_info": {
            "baseFee": "7.133179336",
            "blockNumber": 18205106,
            "callData": "0x0162e2d000000000000000000000000000000000000000000000000000000000000000e000000000000000000000000000000000000000000000000000000000000001600000000000000000000000007a250d5630b4cf539739df2c5dacb4c659f2488d0000000000000000000000000000000000000000000000000000000000000029000000000000000000000000000000000000000000000000000000000000000200000000000000000000000000000000000000000000000000000000000000120000000000000000000000000000000000000000000000000000000065101157000000000000000000000000000000000000000000000000000000000000000300000000000000000000000000000000000000000000000000000500918bd80000000000000000000000000000000000000000000000000000000000000000000000000000000000000000000000000000000000000000000011c37937e080000000000000000000000000000000000000000000000000000000000000000002000000000000000000000000c02aaa39b223fe8d0a0e5c4f27ead9083c756cc2000000000000000000000000cd79260f74f434cece693776e616c1bdc19ccd58",
            "debugEnable": true,
            "errorInfo": "",
            "eventCount": 9,
            "feeRecipient": "0x4838b106fce9647bdf1e7877bf73ce8b0bad5f97",
            "formatValue": "0.035",
            "gasLimit": 343137,
            "gasPrice": "7.133179336",
            "gasUsed": 193681,
            "intTxnCount": 14,
            "internalRevert": false,
            "internalRevertMessage": "",
            "isContractCreation": false,
            "isFlashloan": false,
            "maxFee": "7.133179336",
            "nonce": 146,
            "overwritedBlockNumber": -1,
            "priorityFee": "0",
            "receiver": "0xdb5889e35e379ef0498aae126fc2cce1fbd23216",
            "revertMessage": "",
            "sender": "0xdb6c474ae3449782b1082455f24726bc6b25bfbb",
            "simulationEnable": true,
            "sourceTxnHash": "0xc338a161e7991e16869c79826dfeef60be7a785fdeb7d7190ed0bcaad0cfc750",
            "status": true,
            "timestamp": "2023-09-24T10:37:11Z",
            "transactionFee": "0.001381561306975816",
            "txnHash": "0xc338a161e7991e16869c79826dfeef60be7a785fdeb7d7190ed0bcaad0cfc750",
            "txnIndex": 4,
            "type": 2,
            "value": "35000000000000000"
        },
        "fund_flow": [
            {
                "amount": "0.035",
                "from": "0xdb6c474ae3449782b1082455f24726bc6b25bfbb",
                "id": 1,
                "isERC1155": false,
                "isERC721": false,
                "isReverted": false,
                "order": 1,
                "to": "0xdb5889e35e379ef0498aae126fc2cce1fbd23216",
                "token": "0xeeeeeeeeeeeeeeeeeeeeeeeeeeeeeeeeeeeeeeee"
            },
            {
                "amount": "0.005",
                "from": "0xdb5889e35e379ef0498aae126fc2cce1fbd23216",
                "id": 2,
                "isERC1155": false,
                "isERC721": false,
                "isReverted": false,
                "order": 2,
                "to": "0x4838b106fce9647bdf1e7877bf73ce8b0bad5f97",
                "token": "0xeeeeeeeeeeeeeeeeeeeeeeeeeeeeeeeeeeeeeeee"
            },
            {
                "amount": "0.006935930096777731",
                "from": "0xdb5889e35e379ef0498aae126fc2cce1fbd23216",
                "id": 3,
                "isERC1155": false,
                "isERC721": false,
                "isReverted": false,
                "order": 3,
                "to": "0xc02aaa39b223fe8d0a0e5c4f27ead9083c756cc2",
                "token": "0xeeeeeeeeeeeeeeeeeeeeeeeeeeeeeeeeeeeeeeee"
            },
            {
                "amount": "0.006935930096777731",
                "from": "0xc02aaa39b223fe8d0a0e5c4f27ead9083c756cc2",
                "id": 4,
                "isERC1155": false,
                "isERC721": false,
                "isReverted": false,
                "order": 4,
                "to": "0xdb5889e35e379ef0498aae126fc2cce1fbd23216",
                "token": "0xc02aaa39b223fe8d0a0e5c4f27ead9083c756cc2"
            },
            {
                "amount": "0.006935930096777731",
                "from": "0xdb5889e35e379ef0498aae126fc2cce1fbd23216",
                "id": 5,
                "isERC1155": false,
                "isERC721": false,
                "isReverted": false,
                "order": 5,
                "to": "0x026f468569526a770db00fc0f3807d8028d1425b",
                "token": "0xc02aaa39b223fe8d0a0e5c4f27ead9083c756cc2"
            },
            {
                "amount": "990",
                "from": "0x026f468569526a770db00fc0f3807d8028d1425b",
                "id": 6,
                "isERC1155": false,
                "isERC721": false,
                "isReverted": false,
                "order": 6,
                "to": "0xcd79260f74f434cece693776e616c1bdc19ccd58",
                "token": "0xcd79260f74f434cece693776e616c1bdc19ccd58"
            },
            {
                "amount": "4,510",
                "from": "0x026f468569526a770db00fc0f3807d8028d1425b",
                "id": 7,
                "isERC1155": false,
                "isERC721": false,
                "isReverted": false,
                "order": 7,
                "to": "0xdb6c474ae3449782b1082455f24726bc6b25bfbb",
                "token": "0xcd79260f74f434cece693776e616c1bdc19ccd58"
            },
            {
                "amount": "0.022994710602254492",
                "from": "0xdb5889e35e379ef0498aae126fc2cce1fbd23216",
                "id": 8,
                "isERC1155": false,
                "isERC721": false,
                "isReverted": false,
                "order": 8,
                "to": "0xdb6c474ae3449782b1082455f24726bc6b25bfbb",
                "token": "0xeeeeeeeeeeeeeeeeeeeeeeeeeeeeeeeeeeeeeeee"
            }
        ],
        "token_infos": [
            {
                "address": "0xc02aaa39b223fe8d0a0e5c4f27ead9083c756cc2",
                "decimals": 18
            },
            {
                "address": "0xcd79260f74f434cece693776e616c1bdc19ccd58",
                "decimals": 9
            },
            {
                "address": "0xeeeeeeeeeeeeeeeeeeeeeeeeeeeeeeeeeeeeeeee",
                "decimals": 18
            }
        ]
    },
    "address_label": {
        "labels": [
            {
                "address": "0xcd79260f74f434cece693776e616c1bdc19ccd58",
                "label": "SAT"
            },
            {
                "address": "0x0000000000000000000000000000000000000001",
                "label": "Precompiled"
            },
            {
                "address": "0x0000000000000000000000000000000000000002",
                "label": "Precompiled"
            },
            {
                "address": "0x0000000000000000000000000000000000000003",
                "label": "Precompiled"
            },
            {
                "address": "0xeeeeeeeeeeeeeeeeeeeeeeeeeeeeeeeeeeeeeeee",
                "label": "Ether"
            },
            {
                "address": "0xc02aaa39b223fe8d0a0e5c4f27ead9083c756cc2",
                "label": "Wrapped Ether (WETH)"
            },
            {
                "address": "0xdb5889e35e379ef0498aae126fc2cce1fbd23216",
                "label": "Banana Gun: Router"
            },
            {
                "address": "0x026f468569526a770db00fc0f3807d8028d1425b",
                "label": "Uniswap V2: SAT 21"
            },
            {
                "address": "0x4838b106fce9647bdf1e7877bf73ce8b0bad5f97",
                "label": "Titan Builder"
            },
            {
                "address": "0x0000000000000000000000000000000000000004",
                "label": "Precompiled"
            }
        ]
    },
    "trace": {
        "accountLabels": null,
        "dataMap": {
            "-1": {
                "invocation": {
                    "address": "0xdb6c474ae3449782b1082455f24726bc6b25bfbb",
                    "callData": "",
                    "decodedMethod": null,
                    "errorInfo": "",
                    "fromAddress": "",
                    "gasUsed": 0,
                    "id": -1,
                    "methodDecoded": false,
                    "operation": "",
                    "output": "",
                    "revert": false,
                    "revertMessage": "",
                    "selector": "",
                    "status": false,
                    "value": ""
                },
                "nodeType": 0
            },
            "0": {
                "invocation": {
                    "address": "0xdb5889e35e379ef0498aae126fc2cce1fbd23216",
                    "callData": "0x00000000000000000000000000000000000000000000000000000000000000e000000000000000000000000000000000000000000000000000000000000001600000000000000000000000007a250d5630b4cf539739df2c5dacb4c659f2488d0000000000000000000000000000000000000000000000000000000000000029000000000000000000000000000000000000000000000000000000000000000200000000000000000000000000000000000000000000000000000000000000120000000000000000000000000000000000000000000000000000000065101157000000000000000000000000000000000000000000000000000000000000000300000000000000000000000000000000000000000000000000000500918bd80000000000000000000000000000000000000000000000000000000000000000000000000000000000000000000000000000000000000000000011c37937e080000000000000000000000000000000000000000000000000000000000000000002000000000000000000000000c02aaa39b223fe8d0a0e5c4f27ead9083c756cc2000000000000000000000000cd79260f74f434cece693776e616c1bdc19ccd58",
                    "decodedMethod": null,
                    "errorInfo": "",
                    "fromAddress": "0xdb6c474ae3449782b1082455f24726bc6b25bfbb",
                    "gasUsed": 193681,
                    "id": 0,
                    "methodDecoded": false,
                    "operation": "CALL",
                    "output": "",
                    "revert": false,
                    "revertMessage": "",
                    "selector": "0x0162e2d0",
                    "status": true,
                    "value": "0.035"
                },
                "nodeType": 0
            },
            "1": {
                "invocation": {
                    "address": "0x4838b106fce9647bdf1e7877bf73ce8b0bad5f97",
                    "callData": "0x",
                    "decodedMethod": null,
                    "errorInfo": "",
                    "fromAddress": "0xdb5889e35e379ef0498aae126fc2cce1fbd23216",
                    "gasUsed": 0,
                    "id": 1,
                    "methodDecoded": false,
                    "operation": "CALL",
                    "output": "",
                    "revert": false,
                    "revertMessage": "",
                    "selector": "fallback",
                    "status": true,
                    "value": "0.005"
                },
                "nodeType": 0
            },
            "10": {
                "invocation": {
                    "address": "0xc6265979793435b496e28e61af1500c22c3ba277",
                    "callData": "0x000000000000000000000000000000000000000000000000000000000000008000000000000000000000000000000000000000000000000000000000000000e0000000000000000000000000db6c474ae3449782b1082455f24726bc6b25bfbb0000000000000000000000007a250d5630b4cf539739df2c5dacb4c659f2488d00000000000000000000000000000000000000000000000000000000000000020000000000000000000000000000000000000000000000000018a431119afa0300000000000000000000000000000000000000000000000000000500918bd8000000000000000000000000000000000000000000000000000000000000000002000000000000000000000000c02aaa39b223fe8d0a0e5c4f27ead9083c756cc2000000000000000000000000cd79260f74f434cece693776e616c1bdc19ccd58",
                    "decodedMethod": null,
                    "errorInfo": "",
                    "fromAddress": "0xdb5889e35e379ef0498aae126fc2cce1fbd23216",
                    "gasUsed": 92755,
                    "id": 10,
                    "methodDecoded": false,
                    "operation": "CALL",
                    "output": "",
                    "revert": false,
                    "revertMessage": "",
                    "selector": "0x7039ff4a",
                    "status": true,
                    "value": "0"
                },
                "nodeType": 0
            },
            "11": {
                "invocation": {
                    "address": "0x026f468569526a770db00fc0f3807d8028d1425b",
                    "callData": "0x000000000000000000000000000000000000000000000000000000000000000000000000000000000000000000000000000000000000000000000500918bd800000000000000000000000000db6c474ae3449782b1082455f24726bc6b25bfbb00000000000000000000000000000000000000000000000000000000000000800000000000000000000000000000000000000000000000000000000000000000",
                    "decodedMethod": {
                        "callParams": [
                            {
                                "name": "amount0Out",
                                "type": "uint256",
                                "value": "0"
                            },
                            {
                                "name": "amount1Out",
                                "type": "uint256",
                                "value": "5,500,000,000,000"
                            },
                            {
                                "name": "to",
                                "type": "address",
                                "value": "0xdb6c474ae3449782b1082455f24726bc6b25bfbb"
                            },
                            {
                                "name": "data",
                                "type": "bytes",
                                "value": "0x"
                            }
                        ],
                        "constructorArguments": "",
                        "name": "swap",
                        "returnParams": [],
                        "signature": "swap(uint256,uint256,address,bytes)"
                    },
                    "errorInfo": "",
                    "fromAddress": "0xc6265979793435b496e28e61af1500c22c3ba277",
                    "gasUsed": 89498,
                    "id": 11,
                    "methodDecoded": true,
                    "operation": "CALL",
                    "output": "",
                    "revert": false,
                    "revertMessage": "",
                    "selector": "0x022c0d9f",
                    "status": true,
                    "value": "0"
                },
                "nodeType": 0
            },
            "12": {
                "invocation": {
                    "address": "0xcd79260f74f434cece693776e616c1bdc19ccd58",
                    "callData": "0x000000000000000000000000db6c474ae3449782b1082455f24726bc6b25bfbb00000000000000000000000000000000000000000000000000000500918bd800",
                    "decodedMethod": {
                        "callParams": [
                            {
                                "name": "recipient",
                                "type": "address",
                                "value": "0xdb6c474ae3449782b1082455f24726bc6b25bfbb"
                            },
                            {
                                "decimalAvailable": true,
                                "name": "amount",
                                "type": "uint256",
                                "value": "5,500,000,000,000"
                            }
                        ],
                        "constructorArguments": "",
                        "name": "transfer",
                        "returnParams": [
                            {
                                "name": "",
                                "type": "bool",
                                "value": true
                            }
                        ],
                        "signature": "transfer(address,uint256)"
                    },
                    "errorInfo": "",
                    "fromAddress": "0x026f468569526a770db00fc0f3807d8028d1425b",
                    "gasUsed": 67440,
                    "id": 12,
                    "methodDecoded": true,
                    "operation": "CALL",
                    "output": "0x0000000000000000000000000000000000000000000000000000000000000001",
                    "revert": false,
                    "revertMessage": "",
                    "selector": "0xa9059cbb",
                    "status": true,
                    "value": "0"
                },
                "nodeType": 0
            },
            "13": {
                "event": {
                    "contract": "0xcd79260f74f434cece693776e616c1bdc19ccd58",
                    "decodedLog": {
                        "name": "Transfer",
                        "params": [
                            {
                                "name": "from",
                                "type": "address",
                                "value": "0x026f468569526a770db00fc0f3807d8028d1425b"
                            },
                            {
                                "name": "to",
                                "type": "address",
                                "value": "0xcd79260f74f434cece693776e616c1bdc19ccd58"
                            },
                            {
                                "decimalAvailable": true,
                                "name": "value",
                                "type": "uint256",
                                "value": "990,000,000,000"
                            }
                        ],
                        "signature": "Transfer(address,address,uint256)"
                    },
                    "id": 13,
                    "logData": "0x000000000000000000000000000000000000000000000000000000e680992c00",
                    "logDecoded": true,
                    "operation": "EVENT",
                    "revert": false,
                    "status": true,
                    "topics": [
                        "0xddf252ad1be2c89b69c2b068fc378daa952ba7f163c4a11628f55a4df523b3ef",
                        "0x000000000000000000000000026f468569526a770db00fc0f3807d8028d1425b",
                        "0x000000000000000000000000cd79260f74f434cece693776e616c1bdc19ccd58"
                    ]
                },
                "nodeType": 1
            },
            "14": {
                "event": {
                    "contract": "0xcd79260f74f434cece693776e616c1bdc19ccd58",
                    "decodedLog": {
                        "name": "Transfer",
                        "params": [
                            {
                                "name": "from",
                                "type": "address",
                                "value": "0x026f468569526a770db00fc0f3807d8028d1425b"
                            },
                            {
                                "name": "to",
                                "type": "address",
                                "value": "0xdb6c474ae3449782b1082455f24726bc6b25bfbb"
                            },
                            {
                                "decimalAvailable": true,
                                "name": "value",
                                "type": "uint256",
                                "value": "4,510,000,000,000"
                            }
                        ],
                        "signature": "Transfer(address,address,uint256)"
                    },
                    "id": 14,
                    "logData": "0x0000000000000000000000000000000000000000000000000000041a10f2ac00",
                    "logDecoded": true,
                    "operation": "EVENT",
                    "revert": false,
                    "status": true,
                    "topics": [
                        "0xddf252ad1be2c89b69c2b068fc378daa952ba7f163c4a11628f55a4df523b3ef",
                        "0x000000000000000000000000026f468569526a770db00fc0f3807d8028d1425b",
                        "0x000000000000000000000000db6c474ae3449782b1082455f24726bc6b25bfbb"
                    ]
                },
                "nodeType": 1
            },
            "15": {
                "invocation": {
                    "address": "0xc02aaa39b223fe8d0a0e5c4f27ead9083c756cc2",
                    "callData": "0x000000000000000000000000026f468569526a770db00fc0f3807d8028d1425b",
                    "decodedMethod": {
                        "callParams": [
                            {
                                "name": "",
                                "type": "address",
                                "value": "0x026f468569526a770db00fc0f3807d8028d1425b"
                            }
                        ],
                        "constructorArguments": "",
                        "name": "balanceOf",
                        "returnParams": [
                            {
                                "decimalAvailable": true,
                                "name": "",
                                "type": "uint256",
                                "value": "1,013,777,737,921,342,832"
                            }
                        ],
                        "signature": "balanceOf(address)"
                    },
                    "errorInfo": "",
                    "fromAddress": "0x026f468569526a770db00fc0f3807d8028d1425b",
                    "gasUsed": 534,
                    "id": 15,
                    "methodDecoded": true,
                    "operation": "STATICCALL",
                    "output": "0x0000000000000000000000000000000000000000000000000e11a97b3e002d70",
                    "revert": false,
                    "revertMessage": "",
                    "selector": "0x70a08231",
                    "status": true,
                    "value": "0"
                },
                "nodeType": 0
            },
            "16": {
                "invocation": {
                    "address": "0xcd79260f74f434cece693776e616c1bdc19ccd58",
                    "callData": "0x000000000000000000000000026f468569526a770db00fc0f3807d8028d1425b",
                    "decodedMethod": {
                        "callParams": [
                            {
                                "name": "account",
                                "type": "address",
                                "value": "0x026f468569526a770db00fc0f3807d8028d1425b"
                            }
                        ],
                        "constructorArguments": "",
                        "name": "balanceOf",
                        "returnParams": [
                            {
                                "decimalAvailable": true,
                                "name": "",
                                "type": "uint256",
                                "value": "800,800,000,000,000"
                            }
                        ],
                        "signature": "balanceOf(address)"
                    },
                    "errorInfo": "",
                    "fromAddress": "0x026f468569526a770db00fc0f3807d8028d1425b",
                    "gasUsed": 617,
                    "id": 16,
                    "methodDecoded": true,
                    "operation": "STATICCALL",
                    "output": "0x0000000000000000000000000000000000000000000000000002d852c7894000",
                    "revert": false,
                    "revertMessage": "",
                    "selector": "0x70a08231",
                    "status": true,
                    "value": "0"
                },
                "nodeType": 0
            },
            "17": {
                "event": {
                    "contract": "0x026f468569526a770db00fc0f3807d8028d1425b",
                    "decodedLog": {
                        "name": "Sync",
                        "params": [
                            {
                                "name": "reserve0",
                                "type": "uint112",
                                "value": "1,013,777,737,921,342,832"
                            },
                            {
                                "name": "reserve1",
                                "type": "uint112",
                                "value": "800,800,000,000,000"
                            }
                        ],
                        "signature": "Sync(uint112,uint112)"
                    },
                    "id": 17,
                    "logData": "0x0000000000000000000000000000000000000000000000000e11a97b3e002d700000000000000000000000000000000000000000000000000002d852c7894000",
                    "logDecoded": true,
                    "operation": "EVENT",
                    "revert": false,
                    "status": true,
                    "topics": [
                        "0x1c411e9a96e071241c2f21f7726b17ae89e3cab4c78be50e062b03a9fffbbad1"
                    ]
                },
                "nodeType": 1
            },
            "18": {
                "event": {
                    "contract": "0x026f468569526a770db00fc0f3807d8028d1425b",
                    "decodedLog": {
                        "name": "Swap",
                        "params": [
                            {
                                "name": "sender",
                                "type": "address",
                                "value": "0xc6265979793435b496e28e61af1500c22c3ba277"
                            },
                            {
                                "name": "to",
                                "type": "address",
                                "value": "0xdb6c474ae3449782b1082455f24726bc6b25bfbb"
                            },
                            {
                                "name": "amount0In",
                                "type": "uint256",
                                "value": "6,935,930,096,777,731"
                            },
                            {
                                "name": "amount1In",
                                "type": "uint256",
                                "value": "0"
                            },
                            {
                                "name": "amount0Out",
                                "type": "uint256",
                                "value": "0"
                            },
                            {
                                "name": "amount1Out",
                                "type": "uint256",
                                "value": "5,500,000,000,000"
                            }
                        ],
                        "signature": "Swap(address,uint256,uint256,uint256,uint256,address)"
                    },
                    "id": 18,
                    "logData": "0x0000000000000000000000000000000000000000000000000018a431119afa030000000000000000000000000000000000000000000000000000000000000000000000000000000000000000000000000000000000000000000000000000000000000000000000000000000000000000000000000000000000000500918bd800",
                    "logDecoded": true,
                    "operation": "EVENT",
                    "revert": false,
                    "status": true,
                    "topics": [
                        "0xd78ad95fa46c994b6551d0da85fc275fe613ce37657fb8d5e3d130840159d822",
                        "0x000000000000000000000000c6265979793435b496e28e61af1500c22c3ba277",
                        "0x000000000000000000000000db6c474ae3449782b1082455f24726bc6b25bfbb"
                    ]
                },
                "nodeType": 1
            },
            "19": {
                "invocation": {
                    "address": "0xcd79260f74f434cece693776e616c1bdc19ccd58",
                    "callData": "0x000000000000000000000000db6c474ae3449782b1082455f24726bc6b25bfbb",
                    "decodedMethod": {
                        "callParams": [
                            {
                                "name": "account",
                                "type": "address",
                                "value": "0xdb6c474ae3449782b1082455f24726bc6b25bfbb"
                            }
                        ],
                        "constructorArguments": "",
                        "name": "balanceOf",
                        "returnParams": [
                            {
                                "decimalAvailable": true,
                                "name": "",
                                "type": "uint256",
                                "value": "4,510,000,000,000"
                            }
                        ],
                        "signature": "balanceOf(address)"
                    },
                    "errorInfo": "",
                    "fromAddress": "0xdb5889e35e379ef0498aae126fc2cce1fbd23216",
                    "gasUsed": 617,
                    "id": 19,
                    "methodDecoded": true,
                    "operation": "STATICCALL",
                    "output": "0x0000000000000000000000000000000000000000000000000000041a10f2ac00",
                    "revert": false,
                    "revertMessage": "",
                    "selector": "0x70a08231",
                    "status": true,
                    "value": "0"
                },
                "nodeType": 0
            },
            "2": {
                "invocation": {
                    "address": "0xc6265979793435b496e28e61af1500c22c3ba277",
                    "callData": "0x00000000000000000000000000000000000000000000000000000500918bd80000000000000000000000000000000000000000000000000000000000000000600000000000000000000000007a250d5630b4cf539739df2c5dacb4c659f2488d0000000000000000000000000000000000000000000000000000000000000002000000000000000000000000c02aaa39b223fe8d0a0e5c4f27ead9083c756cc2000000000000000000000000cd79260f74f434cece693776e616c1bdc19ccd58",
                    "decodedMethod": null,
                    "errorInfo": "",
                    "fromAddress": "0xdb5889e35e379ef0498aae126fc2cce1fbd23216",
                    "gasUsed": 9134,
                    "id": 2,
                    "methodDecoded": false,
                    "operation": "STATICCALL",
                    "output": "0x000000000000000000000000000000000000000000000000000000000000002000000000000000000000000000000000000000000000000000000000000000020000000000000000000000000000000000000000000000000018a431119afa0300000000000000000000000000000000000000000000000000000500918bd800",
                    "revert": false,
                    "revertMessage": "",
                    "selector": "0x64f54837",
                    "status": true,
                    "value": "0"
                },
                "nodeType": 0
            },
            "20": {
                "event": {
                    "contract": "0xdb5889e35e379ef0498aae126fc2cce1fbd23216",
                    "decodedLog": null,
                    "id": 20,
                    "logData": "0x00000000000000000000000000000000000000000000000000003f14f87efd610000000000000000000000000000000000000000000000000000000000000012",
                    "logDecoded": false,
                    "operation": "EVENT",
                    "revert": false,
                    "status": true,
                    "topics": [
                        "0x6cb8c9cbcedb37b7d125170f5d929dbbdb3203c8fd4d60356b496fa31f77fd00"
                    ]
                },
                "nodeType": 1
            },
            "21": {
                "event": {
                    "contract": "0xdb5889e35e379ef0498aae126fc2cce1fbd23216",
                    "decodedLog": null,
                    "id": 21,
                    "logData": "0x00000000000000000000000000000000000000000000000000003f14f87efd61000000000000000000000000db6c474ae3449782b1082455f24726bc6b25bfbb",
                    "logDecoded": false,
                    "operation": "EVENT",
                    "revert": false,
                    "status": true,
                    "topics": [
                        "0x0c2a2f565c7774c59e49ef6b3c255329f4d254147e06e724d3a8569bb7bd21ad"
                    ]
                },
                "nodeType": 1
            },
            "22": {
                "invocation": {
                    "address": "0xdb6c474ae3449782b1082455f24726bc6b25bfbb",
                    "callData": "0x",
                    "decodedMethod": null,
                    "errorInfo": "",
                    "fromAddress": "0xdb5889e35e379ef0498aae126fc2cce1fbd23216",
                    "gasUsed": 0,
                    "id": 22,
                    "methodDecoded": false,
                    "operation": "CALL",
                    "output": "",
                    "revert": false,
                    "revertMessage": "",
                    "selector": "fallback",
                    "status": true,
                    "value": "0.022994710602254492"
                },
                "nodeType": 0
            },
            "23": {
                "event": {
                    "contract": "0xdb5889e35e379ef0498aae126fc2cce1fbd23216",
                    "decodedLog": null,
                    "id": 23,
                    "logData": "0x0000000000000000000000000000000000000000000000000018a431119afa030000000000000000000000000000000000000000000000000000041a10f2ac0000000000000000000000000000000000000000000000000000000500918bd800",
                    "logDecoded": false,
                    "operation": "EVENT",
                    "revert": false,
                    "status": true,
                    "topics": [
                        "0x9f849d23f4955d98202378ea318f2b0c7533695d3c9fb2a3931f0f919fa8c420"
                    ]
                },
                "nodeType": 1
            },
            "3": {
                "invocation": {
                    "address": "0x026f468569526a770db00fc0f3807d8028d1425b",
                    "callData": "0x",
                    "decodedMethod": {
                        "callParams": [],
                        "constructorArguments": "",
                        "name": "getReserves",
                        "returnParams": [
                            {
                                "name": "_reserve0",
                                "type": "uint112",
                                "value": "1,006,841,807,824,565,101"
                            },
                            {
                                "name": "_reserve1",
                                "type": "uint112",
                                "value": "806,300,000,000,000"
                            },
                            {
                                "name": "_blockTimestampLast",
                                "type": "uint32",
                                "value": "1,695,551,831"
                            }
                        ],
                        "signature": "getReserves()"
                    },
                    "errorInfo": "",
                    "fromAddress": "0xc6265979793435b496e28e61af1500c22c3ba277",
                    "gasUsed": 2504,
                    "id": 3,
                    "methodDecoded": true,
                    "operation": "STATICCALL",
                    "output": "0x0000000000000000000000000000000000000000000000000df9054a2c65336d0000000000000000000000000000000000000000000000000002dd53591518000000000000000000000000000000000000000000000000000000000065101157",
                    "revert": false,
                    "revertMessage": "",
                    "selector": "0x0902f1ac",
                    "status": true,
                    "value": "0"
                },
                "nodeType": 0
            },
            "4": {
                "invocation": {
                    "address": "0xc02aaa39b223fe8d0a0e5c4f27ead9083c756cc2",
                    "callData": "0x",
                    "decodedMethod": {
                        "callParams": [],
                        "constructorArguments": "",
                        "name": "deposit",
                        "returnParams": [],
                        "signature": "deposit()"
                    },
                    "errorInfo": "",
                    "fromAddress": "0xdb5889e35e379ef0498aae126fc2cce1fbd23216",
                    "gasUsed": 23974,
                    "id": 4,
                    "methodDecoded": true,
                    "operation": "CALL",
                    "output": "",
                    "revert": false,
                    "revertMessage": "",
                    "selector": "0xd0e30db0",
                    "status": true,
                    "value": "0.006935930096777731"
                },
                "nodeType": 0
            },
            "5": {
                "event": {
                    "contract": "0xc02aaa39b223fe8d0a0e5c4f27ead9083c756cc2",
                    "decodedLog": {
                        "name": "Deposit",
                        "params": [
                            {
                                "name": "dst",
                                "type": "address",
                                "value": "0xdb5889e35e379ef0498aae126fc2cce1fbd23216"
                            },
                            {
                                "name": "wad",
                                "type": "uint256",
                                "value": "6,935,930,096,777,731"
                            }
                        ],
                        "signature": "Deposit(address,uint256)"
                    },
                    "id": 5,
                    "logData": "0x0000000000000000000000000000000000000000000000000018a431119afa03",
                    "logDecoded": true,
                    "operation": "EVENT",
                    "revert": false,
                    "status": true,
                    "topics": [
                        "0xe1fffcc4923d04b559f4d29a8bfc6cda04eb5b0d3c460751c2402c5c5cc9109c",
                        "0x000000000000000000000000db5889e35e379ef0498aae126fc2cce1fbd23216"
                    ]
                },
                "nodeType": 1
            },
            "6": {
                "invocation": {
                    "address": "0xc6265979793435b496e28e61af1500c22c3ba277",
                    "callData": "0x0000000000000000000000007a250d5630b4cf539739df2c5dacb4c659f2488d000000000000000000000000c02aaa39b223fe8d0a0e5c4f27ead9083c756cc2000000000000000000000000cd79260f74f434cece693776e616c1bdc19ccd58",
                    "decodedMethod": null,
                    "errorInfo": "",
                    "fromAddress": "0xdb5889e35e379ef0498aae126fc2cce1fbd23216",
                    "gasUsed": 1409,
                    "id": 6,
                    "methodDecoded": false,
                    "operation": "STATICCALL",
                    "output": "0x000000000000000000000000026f468569526a770db00fc0f3807d8028d1425b",
                    "revert": false,
                    "revertMessage": "",
                    "selector": "0x88813e1f",
                    "status": true,
                    "value": "0"
                },
                "nodeType": 0
            },
            "7": {
                "invocation": {
                    "address": "0xc02aaa39b223fe8d0a0e5c4f27ead9083c756cc2",
                    "callData": "0x000000000000000000000000026f468569526a770db00fc0f3807d8028d1425b0000000000000000000000000000000000000000000000000018a431119afa03",
                    "decodedMethod": {
                        "callParams": [
                            {
                                "name": "dst",
                                "type": "address",
                                "value": "0x026f468569526a770db00fc0f3807d8028d1425b"
                            },
                            {
                                "decimalAvailable": true,
                                "name": "wad",
                                "type": "uint256",
                                "value": "6,935,930,096,777,731"
                            }
                        ],
                        "constructorArguments": "",
                        "name": "transfer",
                        "returnParams": [
                            {
                                "name": "",
                                "type": "bool",
                                "value": true
                            }
                        ],
                        "signature": "transfer(address,uint256)"
                    },
                    "errorInfo": "",
                    "fromAddress": "0xdb5889e35e379ef0498aae126fc2cce1fbd23216",
                    "gasUsed": 8062,
                    "id": 7,
                    "methodDecoded": true,
                    "operation": "CALL",
                    "output": "0x0000000000000000000000000000000000000000000000000000000000000001",
                    "revert": false,
                    "revertMessage": "",
                    "selector": "0xa9059cbb",
                    "status": true,
                    "value": "0"
                },
                "nodeType": 0
            },
            "8": {
                "event": {
                    "contract": "0xc02aaa39b223fe8d0a0e5c4f27ead9083c756cc2",
                    "decodedLog": {
                        "name": "Transfer",
                        "params": [
                            {
                                "name": "src",
                                "type": "address",
                                "value": "0xdb5889e35e379ef0498aae126fc2cce1fbd23216"
                            },
                            {
                                "name": "dst",
                                "type": "address",
                                "value": "0x026f468569526a770db00fc0f3807d8028d1425b"
                            },
                            {
                                "decimalAvailable": true,
                                "name": "wad",
                                "type": "uint256",
                                "value": "6,935,930,096,777,731"
                            }
                        ],
                        "signature": "Transfer(address,address,uint256)"
                    },
                    "id": 8,
                    "logData": "0x0000000000000000000000000000000000000000000000000018a431119afa03",
                    "logDecoded": true,
                    "operation": "EVENT",
                    "revert": false,
                    "status": true,
                    "topics": [
                        "0xddf252ad1be2c89b69c2b068fc378daa952ba7f163c4a11628f55a4df523b3ef",
                        "0x000000000000000000000000db5889e35e379ef0498aae126fc2cce1fbd23216",
                        "0x000000000000000000000000026f468569526a770db00fc0f3807d8028d1425b"
                    ]
                },
                "nodeType": 1
            },
            "9": {
                "invocation": {
                    "address": "0xcd79260f74f434cece693776e616c1bdc19ccd58",
                    "callData": "0x000000000000000000000000db6c474ae3449782b1082455f24726bc6b25bfbb",
                    "decodedMethod": {
                        "callParams": [
                            {
                                "name": "account",
                                "type": "address",
                                "value": "0xdb6c474ae3449782b1082455f24726bc6b25bfbb"
                            }
                        ],
                        "constructorArguments": "",
                        "name": "balanceOf",
                        "returnParams": [
                            {
                                "decimalAvailable": true,
                                "name": "",
                                "type": "uint256",
                                "value": "0"
                            }
                        ],
                        "signature": "balanceOf(address)"
                    },
                    "errorInfo": "",
                    "fromAddress": "0xdb5889e35e379ef0498aae126fc2cce1fbd23216",
                    "gasUsed": 2617,
                    "id": 9,
                    "methodDecoded": true,
                    "operation": "STATICCALL",
                    "output": "0x0000000000000000000000000000000000000000000000000000000000000000",
                    "revert": false,
                    "revertMessage": "",
                    "selector": "0x70a08231",
                    "status": true,
                    "value": "0"
                },
                "nodeType": 0
            }
        },
        "gasFlame": [
            {
                "children": [
                    {
                        "children": [
                            {
                                "children": [],
                                "depth": 0,
                                "name": "Initial Gas",
                                "value": 23840
                            },
                            {
                                "children": [
                                    {
                                        "children": [],
                                        "depth": 1,
                                        "name": "fallback",
                                        "value": 0
                                    },
                                    {
                                        "children": [
                                            {
                                                "children": [],
                                                "depth": 2,
                                                "name": "getReserves",
                                                "value": 2504
                                            }
                                        ],
                                        "depth": 1,
                                        "name": "0x64f54837",
                                        "value": 9134
                                    },
                                    {
                                        "children": [],
                                        "depth": 1,
                                        "name": "deposit",
                                        "value": 23974
                                    },
                                    {
                                        "children": [],
                                        "depth": 1,
                                        "name": "0x88813e1f",
                                        "value": 1409
                                    },
                                    {
                                        "children": [],
                                        "depth": 1,
                                        "name": "transfer",
                                        "value": 8062
                                    },
                                    {
                                        "children": [],
                                        "depth": 1,
                                        "name": "balanceOf",
                                        "value": 2617
                                    },
                                    {
                                        "children": [
                                            {
                                                "children": [
                                                    {
                                                        "children": [],
                                                        "depth": 3,
                                                        "name": "transfer",
                                                        "value": 67440
                                                    },
                                                    {
                                                        "children": [],
                                                        "depth": 3,
                                                        "name": "balanceOf",
                                                        "value": 534
                                                    },
                                                    {
                                                        "children": [],
                                                        "depth": 3,
                                                        "name": "balanceOf",
                                                        "value": 617
                                                    }
                                                ],
                                                "depth": 2,
                                                "name": "swap",
                                                "value": 89498
                                            }
                                        ],
                                        "depth": 1,
                                        "name": "0x7039ff4a",
                                        "value": 92755
                                    },
                                    {
                                        "children": [],
                                        "depth": 1,
                                        "name": "balanceOf",
                                        "value": 617
                                    },
                                    {
                                        "children": [],
                                        "depth": 1,
                                        "name": "fallback",
                                        "value": 0
                                    }
                                ],
                                "depth": 0,
                                "name": "Executed Gas",
                                "value": 192541
                            }
                        ],
                        "depth": -1,
                        "name": "Actual Gas Used",
                        "value": 193681
                    },
                    {
                        "children": [],
                        "depth": -1,
                        "name": "Refunded Gas",
                        "value": 22700
                    }
                ],
                "depth": -2,
                "name": "Total Gas",
                "value": 216381
            }
        ],
        "isConfirmed": true,
        "mainTrace": [
            {
                "children": [
                    {
                        "children": [
                            {
                                "children": [],
                                "depth": 1,
                                "id": 1,
                                "order": 1
                            },
                            {
                                "children": [
                                    {
                                        "children": [],
                                        "depth": 2,
                                        "id": 3,
                                        "order": 3
                                    }
                                ],
                                "depth": 1,
                                "id": 2,
                                "order": 2
                            },
                            {
                                "children": [
                                    {
                                        "children": [],
                                        "depth": 2,
                                        "id": 5,
                                        "order": 5
                                    }
                                ],
                                "depth": 1,
                                "id": 4,
                                "order": 4
                            },
                            {
                                "children": [],
                                "depth": 1,
                                "id": 6,
                                "order": 6
                            },
                            {
                                "children": [
                                    {
                                        "children": [],
                                        "depth": 2,
                                        "id": 8,
                                        "order": 8
                                    }
                                ],
                                "depth": 1,
                                "id": 7,
                                "order": 7
                            },
                            {
                                "children": [],
                                "depth": 1,
                                "id": 9,
                                "order": 9
                            },
                            {
                                "children": [
                                    {
                                        "children": [
                                            {
                                                "children": [
                                                    {
                                                        "children": [],
                                                        "depth": 4,
                                                        "id": 13,
                                                        "order": 13
                                                    },
                                                    {
                                                        "children": [],
                                                        "depth": 4,
                                                        "id": 14,
                                                        "order": 14
                                                    }
                                                ],
                                                "depth": 3,
                                                "id": 12,
                                                "order": 12
                                            },
                                            {
                                                "children": [],
                                                "depth": 3,
                                                "id": 15,
                                                "order": 15
                                            },
                                            {
                                                "children": [],
                                                "depth": 3,
                                                "id": 16,
                                                "order": 16
                                            },
                                            {
                                                "children": [],
                                                "depth": 3,
                                                "id": 17,
                                                "order": 17
                                            },
                                            {
                                                "children": [],
                                                "depth": 3,
                                                "id": 18,
                                                "order": 18
                                            }
                                        ],
                                        "depth": 2,
                                        "id": 11,
                                        "order": 11
                                    }
                                ],
                                "depth": 1,
                                "id": 10,
                                "order": 10
                            },
                            {
                                "children": [],
                                "depth": 1,
                                "id": 19,
                                "order": 19
                            },
                            {
                                "children": [],
                                "depth": 1,
                                "id": 20,
                                "order": 20
                            },
                            {
                                "children": [],
                                "depth": 1,
                                "id": 21,
                                "order": 21
                            },
                            {
                                "children": [],
                                "depth": 1,
                                "id": 22,
                                "order": 22
                            },
                            {
                                "children": [],
                                "depth": 1,
                                "id": 23,
                                "order": 23
                            }
                        ],
                        "depth": 0,
                        "id": 0,
                        "order": 0
                    }
                ],
                "depth": -1,
                "id": -1,
                "order": -1
            }
        ],
        "mainTraceNodeCount": 24,
        "parentIdMap": {
            "0": -1,
            "1": 0,
            "10": 0,
            "11": 10,
            "12": 11,
            "13": 12,
            "14": 12,
            "15": 11,
            "16": 11,
            "17": 11,
            "18": 11,
            "19": 0,
            "2": 0,
            "20": 0,
            "21": 0,
            "22": 0,
            "23": 0,
            "3": 2,
            "4": 0,
            "5": 4,
            "6": 0,
            "7": 0,
            "8": 7,
            "9": 0
        },
        "tidyTrace": [
            {
                "children": [
                    {
                        "children": [
                            {
                                "children": [],
                                "depth": 1,
                                "id": 1,
                                "order": 1
                            },
                            {
                                "children": [
                                    {
                                        "children": [],
                                        "depth": 2,
                                        "id": 5,
                                        "order": 5
                                    }
                                ],
                                "depth": 1,
                                "id": 4,
                                "order": 4
                            },
                            {
                                "children": [
                                    {
                                        "children": [],
                                        "depth": 2,
                                        "id": 8,
                                        "order": 8
                                    }
                                ],
                                "depth": 1,
                                "id": 7,
                                "order": 7
                            },
                            {
                                "children": [
                                    {
                                        "children": [
                                            {
                                                "children": [
                                                    {
                                                        "children": [],
                                                        "depth": 4,
                                                        "id": 13,
                                                        "order": 13
                                                    },
                                                    {
                                                        "children": [],
                                                        "depth": 4,
                                                        "id": 14,
                                                        "order": 14
                                                    }
                                                ],
                                                "depth": 3,
                                                "id": 12,
                                                "order": 12
                                            },
                                            {
                                                "children": [],
                                                "depth": 3,
                                                "id": 17,
                                                "order": 17
                                            },
                                            {
                                                "children": [],
                                                "depth": 3,
                                                "id": 18,
                                                "order": 18
                                            }
                                        ],
                                        "depth": 2,
                                        "id": 11,
                                        "order": 11
                                    }
                                ],
                                "depth": 1,
                                "id": 10,
                                "order": 10
                            },
                            {
                                "children": [],
                                "depth": 1,
                                "id": 20,
                                "order": 20
                            },
                            {
                                "children": [],
                                "depth": 1,
                                "id": 21,
                                "order": 21
                            },
                            {
                                "children": [],
                                "depth": 1,
                                "id": 22,
                                "order": 22
                            },
                            {
                                "children": [],
                                "depth": 1,
                                "id": 23,
                                "order": 23
                            }
                        ],
                        "depth": 0,
                        "id": 0,
                        "order": 0
                    }
                ],
                "depth": -1,
                "id": -1,
                "order": -1
            }
        ],
        "tidyTraceNodeCount": 17
    },
    "state_change": {
        "stateChanges": [
            {
                "address": "0x026f468569526a770db00fc0f3807d8028d1425b",
                "erc": "ERC-20",
                "slots": [
                    {
                        "current": "0x651011570000000000000002d852c78940000000000000000e11a97b3e002d70",
                        "key": "0x0000000000000000000000000000000000000000000000000000000000000008",
                        "prev": "0x651011570000000000000002dd53591518000000000000000df9054a2c65336d"
                    }
                ],
                "storageVariables": [
                    {
                        "name": "reserve0",
                        "type": "uint112",
                        "value": {
                            "current": "1013777737921342832",
                            "prev": "1006841807824565101",
                            "typeTag": 1
                        }
                    },
                    {
                        "name": "reserve1",
                        "type": "uint112",
                        "value": {
                            "current": "800800000000000",
                            "prev": "806300000000000",
                            "typeTag": 1
                        }
                    },
                    {
                        "name": "blockTimestampLast",
                        "type": "uint32",
                        "value": {
                            "current": "1695551831",
                            "prev": "1695551831",
                            "typeTag": 1
                        }
                    }
                ]
            },
            {
                "address": "0xc02aaa39b223fe8d0a0e5c4f27ead9083c756cc2",
                "erc": "ERC-20",
                "slots": [
                    {
                        "current": "0x0000000000000000000000000000000000000000000000000e11a97b3e002d70",
                        "key": "0x474a901588d26bd96ff292c7e4eb501e48fb618e0714c2fe8cada462c31bb9a8",
                        "prev": "0x0000000000000000000000000000000000000000000000000df9054a2c65336d"
                    }
                ],
                "storageVariables": [
                    {
                        "name": "balanceOf",
                        "type": "mapping(address => uint256)",
                        "value": {
                            "pairs": [
                                {
                                    "key": "0x026f468569526a770db00fc0f3807d8028d1425b",
                                    "value": {
                                        "current": "1013777737921342832",
                                        "prev": "1006841807824565101",
                                        "typeTag": 1
                                    }
                                }
                            ],
                            "typeTag": 4
                        }
                    }
                ]
            },
            {
                "address": "0xcd79260f74f434cece693776e616c1bdc19ccd58",
                "erc": "ERC-20",
                "slots": [
                    {
                        "current": "0x0000000000000000000000000000000000000000000000000000a3df6ce54800",
                        "key": "0xefb7a18310eeef7c9e2aac8145a3fac7e0e613c9af83628f0a80405ac7ccd41f",
                        "prev": "0x0000000000000000000000000000000000000000000000000000a2f8ec4c1c00"
                    },
                    {
                        "current": "0x0000000000000000000000000000000000000000000000000002d852c7894000",
                        "key": "0x6845aaa9937fca6f16809895f21ec5818a60f4d1b78e10cc16073fbdb4a006c1",
                        "prev": "0x0000000000000000000000000000000000000000000000000002dd5359151800"
                    },
                    {
                        "current": "0x0000000000000000000000000000000000000000000000000000041a10f2ac00",
                        "key": "0xfeacaba867d059cfa80683cb71304121bc6c1b63766f357a989e4c3f72723e7c",
                        "prev": "0x0000000000000000000000000000000000000000000000000000000000000000"
                    },
                    {
                        "current": "0x0000000000000000000000000000000000000000000000000000000000000002",
                        "key": "0x000000000000000000000000000000000000000000000000000000000000000e",
                        "prev": "0x0000000000000000000000000000000000000000000000000000000000000001"
                    }
                ],
                "storageVariables": [
                    {
                        "name": "_buyCount",
                        "type": "uint256",
                        "value": {
                            "current": "2",
                            "prev": "1",
                            "typeTag": 1
                        }
                    },
                    {
                        "name": "_balances",
                        "type": "mapping(address => uint256)",
                        "value": {
                            "pairs": [
                                {
                                    "key": "0x026f468569526a770db00fc0f3807d8028d1425b",
                                    "value": {
                                        "current": "800800000000000",
                                        "prev": "806300000000000",
                                        "typeTag": 1
                                    }
                                },
                                {
                                    "key": "0xcd79260f74f434cece693776e616c1bdc19ccd58",
                                    "value": {
                                        "current": "180180000000000",
                                        "prev": "179190000000000",
                                        "typeTag": 1
                                    }
                                },
                                {
                                    "key": "0xdb6c474ae3449782b1082455f24726bc6b25bfbb",
                                    "value": {
                                        "current": "4510000000000",
                                        "prev": "0",
                                        "typeTag": 1
                                    }
                                }
                            ],
                            "typeTag": 4
                        }
                    }
                ]
            },
            {
                "address": "0xdb5889e35e379ef0498aae126fc2cce1fbd23216",
                "erc": "",
                "slots": [
                    {
                        "current": "0x0000000000000000000000000000000000000000000000099c6bca5966f2c2ef",
                        "key": "0x0000000000000000000000000000000000000000000000000000000000000000",
                        "prev": "0x0000000000000000000000000000000000000000000000099c6b8b446e73c58e"
                    }
                ],
                "storageVariables": []
            }
        ]
    }
}