{
    "balance_change": {
        "balanceChanges": []
    },
    "profile": {
        "basic_info": {
            "baseFee": "3.258098215",
            "blockNumber": 20661855,
            "callData": "0xb6f9de95000000000000000000000000000000000000000000000008c882935b16018000000000000000000000000000000000000000000000000000000000000000008000000000000000000000000094765c40d4320d9a579e20759f4e544c5f81d7eb0000000000000000000000000000000000000000000000000000000066d88c0b0000000000000000000000000000000000000000000000000000000000000002000000000000000000000000c02aaa39b223fe8d0a0e5c4f27ead9083c756cc2000000000000000000000000c9bca88b04581699fab5aa276ccaff7df957cbbf",
            "debugEnable": true,
            "errorInfo": "execution reverted",
            "eventCount": 5,
            "feeRecipient": "0x3720d02ad0142c1416aa9928c02653f4eac64ed2",
            "formatValue": "0.804048025777828096",
            "gasLimit": 268352,
            "gasPrice": "4.169369276",
            "gasUsed": 268001,
            "intTxnCount": 34,
            "internalRevert": true,
            "internalRevertMessage": "",
            "isContractCreation": false,
            "isFlashloan": false,
            "maxFee": "5.165377776",
            "nonce": 73,
            "overwritedBlockNumber": -1,
            "priorityFee": "0.911271061",
            "receiver": "0xeaaa41cb2a64b11fe761d41e747c032cdd60cace",
            "revertMessage": "Failed to send Ether",
            "sender": "0x94765c40d4320d9a579e20759f4e544c5f81d7eb",
            "simulationEnable": true,
            "sourceTxnHash": "0xc45a8c1e97962ae7bb44e69133a016ed168ce6db4844e6b7f660837fd646cb94",
            "status": false,
            "timestamp": "2024-09-02T09:01:11Z",
            "transactionFee": "0.001117395135337276",
            "txnHash": "0xc45a8c1e97962ae7bb44e69133a016ed168ce6db4844e6b7f660837fd646cb94",
            "txnIndex": 40,
            "type": 2,
            "value": "804048025777828096"
        },
        "fund_flow": [],
        "token_infos": [
            {
                "address": "0xc02aaa39b223fe8d0a0e5c4f27ead9083c756cc2",
                "decimals": 18
            },
            {
                "address": "0xc9bca88b04581699fab5aa276ccaff7df957cbbf",
                "decimals": 18
            },
            {
                "address": "0xeeeeeeeeeeeeeeeeeeeeeeeeeeeeeeeeeeeeeeee",
                "decimals": 18
            }
        ]
    },
    "address_label": {
        "labels": [
            {
                "address": "0xeeeeeeeeeeeeeeeeeeeeeeeeeeeeeeeeeeeeeeee",
                "label": "Ether"
            },
            {
                "address": "0xfdd05552f1377aa488afed744c8024358af02041",
                "label": "Ethervista: Ether Vista Pair"
            },
            {
                "address": "0xe62b71cf983019bff55bc83b48601ce8419650cc",
                "label": "AccessControlledOffchainAggregator"
            },
            {
                "address": "0xc9bca88b04581699fab5aa276ccaff7df957cbbf",
                "label": "Ethervista: VISTA Token"
            },
            {
                "address": "0x0000000000000000000000000000000000000001",
                "label": "Precompiled"
            },
            {
                "address": "0xca90d843288e35beeadfce14e5f906e3f1afc7cb",
                "label": "Ethervista: Deployer"
            },
            {
                "address": "0x5f4ec3df9cbd43714fe2740f5e3616155c5b8419",
                "label": "EACAggregatorProxy"
            },
            {
                "address": "0x9a27cb5ae0b2cee0bb71f9a85c0d60f3920757b4",
                "label": "EtherVistaFactory"
            },
            {
                "address": "0x0000000000000000000000000000000000000002",
                "label": "Precompiled"
            },
            {
                "address": "0x0000000000000000000000000000000000000004",
                "label": "Precompiled"
            },
            {
                "address": "0xc02aaa39b223fe8d0a0e5c4f27ead9083c756cc2",
                "label": "Wrapped Ether (WETH)"
            },
            {
                "address": "0xeaaa41cb2a64b11fe761d41e747c032cdd60cace",
                "label": "Ethervista: Router"
            },
            {
                "address": "0x0000000000000000000000000000000000000003",
                "label": "Precompiled"
            }
        ]
    },
    "trace": {
        "accountLabels": null,
        "dataMap": {
            "-1": {
                "invocation": {
                    "address": "0x94765c40d4320d9a579e20759f4e544c5f81d7eb",
                    "callData": "",
                    "decodedMethod": null,
                    "errorInfo": "",
                    "fromAddress": "",
                    "gasUsed": 0,
                    "id": -1,
                    "methodDecoded": false,
                    "operation": "",
                    "output": "",
                    "revert": false,
                    "revertMessage": "",
                    "selector": "",
                    "status": false,
                    "value": ""
                },
                "nodeType": 0
            },
            "0": {
                "invocation": {
                    "address": "0xeaaa41cb2a64b11fe761d41e747c032cdd60cace",
                    "callData": "0x000000000000000000000000000000000000000000000008c882935b16018000000000000000000000000000000000000000000000000000000000000000008000000000000000000000000094765c40d4320d9a579e20759f4e544c5f81d7eb0000000000000000000000000000000000000000000000000000000066d88c0b0000000000000000000000000000000000000000000000000000000000000002000000000000000000000000c02aaa39b223fe8d0a0e5c4f27ead9083c756cc2000000000000000000000000c9bca88b04581699fab5aa276ccaff7df957cbbf",
                    "decodedMethod": {
                        "callParams": [
                            {
                                "name": "amountOutMin",
                                "type": "uint256",
                                "value": "162,022,225,163,654,889,472"
                            },
                            {
                                "name": "path",
                                "type": "address[]",
                                "value": [
                                    "0xc02aaa39b223fe8d0a0e5c4f27ead9083c756cc2",
                                    "0xc9bca88b04581699fab5aa276ccaff7df957cbbf"
                                ]
                            },
                            {
                                "name": "to",
                                "type": "address",
                                "value": "0x94765c40d4320d9a579e20759f4e544c5f81d7eb"
                            },
                            {
                                "name": "deadline",
                                "type": "uint256",
                                "value": "1,725,467,659"
                            }
                        ],
                        "constructorArguments": "",
                        "name": "swapExactETHForTokensSupportingFeeOnTransferTokens",
                        "returnParams": [],
                        "signature": "swapExactETHForTokensSupportingFeeOnTransferTokens(uint256,address[],address,uint256)"
                    },
                    "errorInfo": "execution reverted",
                    "fromAddress": "0x94765c40d4320d9a579e20759f4e544c5f81d7eb",
                    "gasUsed": 268001,
                    "id": 0,
                    "methodDecoded": true,
                    "operation": "CALL",
                    "output": "0x08c379a0000000000000000000000000000000000000000000000000000000000000002000000000000000000000000000000000000000000000000000000000000000144661696c656420746f2073656e64204574686572000000000000000000000000",
                    "revert": true,
                    "revertMessage": "Failed to send Ether",
                    "selector": "0xb6f9de95",
                    "status": false,
                    "value": "0.804048025777828096"
                },
                "nodeType": 0
            },
            "1": {
                "invocation": {
                    "address": "0xfdd05552f1377aa488afed744c8024358af02041",
                    "callData": "0x",
                    "decodedMethod": {
                        "callParams": [],
                        "constructorArguments": "",
                        "name": "buyTotalFee",
                        "returnParams": [
                            {
                                "name": "",
                                "type": "uint8",
                                "value": "10"
                            }
                        ],
                        "signature": "buyTotalFee()"
                    },
                    "errorInfo": "",
                    "fromAddress": "0xeaaa41cb2a64b11fe761d41e747c032cdd60cace",
                    "gasUsed": 2465,
                    "id": 1,
                    "methodDecoded": true,
                    "operation": "STATICCALL",
                    "output": "0x000000000000000000000000000000000000000000000000000000000000000a",
                    "revert": true,
                    "revertMessage": "",
                    "selector": "0x3705b392",
                    "status": true,
                    "value": "0"
                },
                "nodeType": 0
            },
            "10": {
                "event": {
                    "contract": "0xc02aaa39b223fe8d0a0e5c4f27ead9083c756cc2",
                    "decodedLog": {
                        "name": "Transfer",
                        "params": [
                            {
                                "name": "src",
                                "type": "address",
                                "value": "0xeaaa41cb2a64b11fe761d41e747c032cdd60cace"
                            },
                            {
                                "name": "dst",
                                "type": "address",
                                "value": "0xfdd05552f1377aa488afed744c8024358af02041"
                            },
                            {
                                "decimalAvailable": true,
                                "name": "wad",
                                "type": "uint256",
                                "value": "799,999,999,999,999,943"
                            }
                        ],
                        "signature": "Transfer(address,address,uint256)"
                    },
                    "id": 10,
                    "logData": "0x0000000000000000000000000000000000000000000000000b1a2bc2ec4fffc7",
                    "logDecoded": true,
                    "operation": "EVENT",
                    "revert": true,
                    "status": false,
                    "topics": [
                        "0xddf252ad1be2c89b69c2b068fc378daa952ba7f163c4a11628f55a4df523b3ef",
                        "0x000000000000000000000000eaaa41cb2a64b11fe761d41e747c032cdd60cace",
                        "0x000000000000000000000000fdd05552f1377aa488afed744c8024358af02041"
                    ]
                },
                "nodeType": 1
            },
            "11": {
                "invocation": {
                    "address": "0xc9bca88b04581699fab5aa276ccaff7df957cbbf",
                    "callData": "0x00000000000000000000000094765c40d4320d9a579e20759f4e544c5f81d7eb",
                    "decodedMethod": {
                        "callParams": [
                            {
                                "name": "account",
                                "type": "address",
                                "value": "0x94765c40d4320d9a579e20759f4e544c5f81d7eb"
                            }
                        ],
                        "constructorArguments": "",
                        "name": "balanceOf",
                        "returnParams": [
                            {
                                "decimalAvailable": true,
                                "name": "",
                                "type": "uint256",
                                "value": "0"
                            }
                        ],
                        "signature": "balanceOf(address)"
                    },
                    "errorInfo": "",
                    "fromAddress": "0xeaaa41cb2a64b11fe761d41e747c032cdd60cace",
                    "gasUsed": 2553,
                    "id": 11,
                    "methodDecoded": true,
                    "operation": "STATICCALL",
                    "output": "0x0000000000000000000000000000000000000000000000000000000000000000",
                    "revert": true,
                    "revertMessage": "",
                    "selector": "0x70a08231",
                    "status": true,
                    "value": "0"
                },
                "nodeType": 0
            },
            "12": {
                "invocation": {
                    "address": "0xfdd05552f1377aa488afed744c8024358af02041",
                    "callData": "0x",
                    "decodedMethod": {
                        "callParams": [],
                        "constructorArguments": "",
                        "name": "getReserves",
                        "returnParams": [
                            {
                                "name": "_reserve0",
                                "type": "uint112",
                                "value": "311,569,987,055,932,308,782"
                            },
                            {
                                "name": "_reserve1",
                                "type": "uint112",
                                "value": "63,902,626,738,818,465,049,019"
                            },
                            {
                                "name": "_blockTimestampLast",
                                "type": "uint32",
                                "value": "1,725,267,647"
                            }
                        ],
                        "signature": "getReserves()"
                    },
                    "errorInfo": "",
                    "fromAddress": "0xeaaa41cb2a64b11fe761d41e747c032cdd60cace",
                    "gasUsed": 2562,
                    "id": 12,
                    "methodDecoded": true,
                    "operation": "STATICCALL",
                    "output": "0x000000000000000000000000000000000000000000000010e3e6f47575e67d2e000000000000000000000000000000000000000000000d882b1820541546a9bb0000000000000000000000000000000000000000000000000000000066d57ebf",
                    "revert": true,
                    "revertMessage": "",
                    "selector": "0x0902f1ac",
                    "status": true,
                    "value": "0"
                },
                "nodeType": 0
            },
            "13": {
                "invocation": {
                    "address": "0xc02aaa39b223fe8d0a0e5c4f27ead9083c756cc2",
                    "callData": "0x000000000000000000000000fdd05552f1377aa488afed744c8024358af02041",
                    "decodedMethod": {
                        "callParams": [
                            {
                                "name": "",
                                "type": "address",
                                "value": "0xfdd05552f1377aa488afed744c8024358af02041"
                            }
                        ],
                        "constructorArguments": "",
                        "name": "balanceOf",
                        "returnParams": [
                            {
                                "decimalAvailable": true,
                                "name": "",
                                "type": "uint256",
                                "value": "312,369,987,055,932,308,725"
                            }
                        ],
                        "signature": "balanceOf(address)"
                    },
                    "errorInfo": "",
                    "fromAddress": "0xeaaa41cb2a64b11fe761d41e747c032cdd60cace",
                    "gasUsed": 534,
                    "id": 13,
                    "methodDecoded": true,
                    "operation": "STATICCALL",
                    "output": "0x000000000000000000000000000000000000000000000010ef01203862367cf5",
                    "revert": true,
                    "revertMessage": "",
                    "selector": "0x70a08231",
                    "status": true,
                    "value": "0"
                },
                "nodeType": 0
            },
            "14": {
                "invocation": {
                    "address": "0xfdd05552f1377aa488afed744c8024358af02041",
                    "callData": "0x0000000000000000000000000000000000000000000000000000000000000000000000000000000000000000000000000000000000000008df38e7977b13440600000000000000000000000094765c40d4320d9a579e20759f4e544c5f81d7eb00000000000000000000000000000000000000000000000000000000000000800000000000000000000000000000000000000000000000000000000000000000",
                    "decodedMethod": {
                        "callParams": [
                            {
                                "name": "amount0Out",
                                "type": "uint256",
                                "value": "0"
                            },
                            {
                                "name": "amount1Out",
                                "type": "uint256",
                                "value": "163,658,813,296,621,077,510"
                            },
                            {
                                "name": "to",
                                "type": "address",
                                "value": "0x94765c40d4320d9a579e20759f4e544c5f81d7eb"
                            },
                            {
                                "name": "data",
                                "type": "bytes",
                                "value": "0x"
                            }
                        ],
                        "constructorArguments": "",
                        "name": "swap",
                        "returnParams": [],
                        "signature": "swap(uint256,uint256,address,bytes)"
                    },
                    "errorInfo": "",
                    "fromAddress": "0xeaaa41cb2a64b11fe761d41e747c032cdd60cace",
                    "gasUsed": 65458,
                    "id": 14,
                    "methodDecoded": true,
                    "operation": "CALL",
                    "output": "",
                    "revert": true,
                    "revertMessage": "",
                    "selector": "0x022c0d9f",
                    "status": true,
                    "value": "0"
                },
                "nodeType": 0
            },
            "15": {
                "invocation": {
                    "address": "0x9a27cb5ae0b2cee0bb71f9a85c0d60f3920757b4",
                    "callData": "0x",
                    "decodedMethod": {
                        "callParams": [],
                        "constructorArguments": "",
                        "name": "router",
                        "returnParams": [
                            {
                                "name": "",
                                "type": "address",
                                "value": "0xeaaa41cb2a64b11fe761d41e747c032cdd60cace"
                            }
                        ],
                        "signature": "router()"
                    },
                    "errorInfo": "",
                    "fromAddress": "0xfdd05552f1377aa488afed744c8024358af02041",
                    "gasUsed": 2425,
                    "id": 15,
                    "methodDecoded": true,
                    "operation": "STATICCALL",
                    "output": "0x000000000000000000000000eaaa41cb2a64b11fe761d41e747c032cdd60cace",
                    "revert": true,
                    "revertMessage": "",
                    "selector": "0xf887ea40",
                    "status": true,
                    "value": "0"
                },
                "nodeType": 0
            },
            "16": {
                "invocation": {
                    "address": "0xc9bca88b04581699fab5aa276ccaff7df957cbbf",
                    "callData": "0x00000000000000000000000094765c40d4320d9a579e20759f4e544c5f81d7eb000000000000000000000000000000000000000000000008df38e7977b134406",
                    "decodedMethod": {
                        "callParams": [
                            {
                                "name": "to",
                                "type": "address",
                                "value": "0x94765c40d4320d9a579e20759f4e544c5f81d7eb"
                            },
                            {
                                "decimalAvailable": true,
                                "name": "value",
                                "type": "uint256",
                                "value": "163,658,813,296,621,077,510"
                            }
                        ],
                        "constructorArguments": "",
                        "name": "transfer",
                        "returnParams": [
                            {
                                "name": "",
                                "type": "bool",
                                "value": true
                            }
                        ],
                        "signature": "transfer(address,uint256)"
                    },
                    "errorInfo": "",
                    "fromAddress": "0xfdd05552f1377aa488afed744c8024358af02041",
                    "gasUsed": 27976,
                    "id": 16,
                    "methodDecoded": true,
                    "operation": "CALL",
                    "output": "0x0000000000000000000000000000000000000000000000000000000000000001",
                    "revert": true,
                    "revertMessage": "",
                    "selector": "0xa9059cbb",
                    "status": true,
                    "value": "0"
                },
                "nodeType": 0
            },
            "17": {
                "event": {
                    "contract": "0xc9bca88b04581699fab5aa276ccaff7df957cbbf",
                    "decodedLog": {
                        "name": "Transfer",
                        "params": [
                            {
                                "name": "from",
                                "type": "address",
                                "value": "0xfdd05552f1377aa488afed744c8024358af02041"
                            },
                            {
                                "name": "to",
                                "type": "address",
                                "value": "0x94765c40d4320d9a579e20759f4e544c5f81d7eb"
                            },
                            {
                                "decimalAvailable": true,
                                "name": "value",
                                "type": "uint256",
                                "value": "163,658,813,296,621,077,510"
                            }
                        ],
                        "signature": "Transfer(address,address,uint256)"
                    },
                    "id": 17,
                    "logData": "0x000000000000000000000000000000000000000000000008df38e7977b134406",
                    "logDecoded": true,
                    "operation": "EVENT",
                    "revert": true,
                    "status": false,
                    "topics": [
                        "0xddf252ad1be2c89b69c2b068fc378daa952ba7f163c4a11628f55a4df523b3ef",
                        "0x000000000000000000000000fdd05552f1377aa488afed744c8024358af02041",
                        "0x00000000000000000000000094765c40d4320d9a579e20759f4e544c5f81d7eb"
                    ]
                },
                "nodeType": 1
            },
            "18": {
                "invocation": {
                    "address": "0xc02aaa39b223fe8d0a0e5c4f27ead9083c756cc2",
                    "callData": "0x000000000000000000000000fdd05552f1377aa488afed744c8024358af02041",
                    "decodedMethod": {
                        "callParams": [
                            {
                                "name": "",
                                "type": "address",
                                "value": "0xfdd05552f1377aa488afed744c8024358af02041"
                            }
                        ],
                        "constructorArguments": "",
                        "name": "balanceOf",
                        "returnParams": [
                            {
                                "decimalAvailable": true,
                                "name": "",
                                "type": "uint256",
                                "value": "312,369,987,055,932,308,725"
                            }
                        ],
                        "signature": "balanceOf(address)"
                    },
                    "errorInfo": "",
                    "fromAddress": "0xfdd05552f1377aa488afed744c8024358af02041",
                    "gasUsed": 534,
                    "id": 18,
                    "methodDecoded": true,
                    "operation": "STATICCALL",
                    "output": "0x000000000000000000000000000000000000000000000010ef01203862367cf5",
                    "revert": true,
                    "revertMessage": "",
                    "selector": "0x70a08231",
                    "status": true,
                    "value": "0"
                },
                "nodeType": 0
            },
            "19": {
                "invocation": {
                    "address": "0xc9bca88b04581699fab5aa276ccaff7df957cbbf",
                    "callData": "0x000000000000000000000000fdd05552f1377aa488afed744c8024358af02041",
                    "decodedMethod": {
                        "callParams": [
                            {
                                "name": "account",
                                "type": "address",
                                "value": "0xfdd05552f1377aa488afed744c8024358af02041"
                            }
                        ],
                        "constructorArguments": "",
                        "name": "balanceOf",
                        "returnParams": [
                            {
                                "decimalAvailable": true,
                                "name": "",
                                "type": "uint256",
                                "value": "63,738,967,925,521,843,971,509"
                            }
                        ],
                        "signature": "balanceOf(address)"
                    },
                    "errorInfo": "",
                    "fromAddress": "0xfdd05552f1377aa488afed744c8024358af02041",
                    "gasUsed": 553,
                    "id": 19,
                    "methodDecoded": true,
                    "operation": "STATICCALL",
                    "output": "0x000000000000000000000000000000000000000000000d7f4bdf38bc9a3365b5",
                    "revert": true,
                    "revertMessage": "",
                    "selector": "0x70a08231",
                    "status": true,
                    "value": "0"
                },
                "nodeType": 0
            },
            "2": {
                "invocation": {
                    "address": "0x5f4ec3df9cbd43714fe2740f5e3616155c5b8419",
                    "callData": "0x",
                    "decodedMethod": {
                        "callParams": [],
                        "constructorArguments": "",
                        "name": "latestRoundData",
                        "returnParams": [
                            {
                                "name": "roundId",
                                "type": "uint80",
                                "value": "110,680,464,442,257,332,232"
                            },
                            {
                                "name": "answer",
                                "type": "int256",
                                "value": "247,034,000,000"
                            },
                            {
                                "name": "startedAt",
                                "type": "uint256",
                                "value": "1,725,267,347"
                            },
                            {
                                "name": "updatedAt",
                                "type": "uint256",
                                "value": "1,725,267,347"
                            },
                            {
                                "name": "answeredInRound",
                                "type": "uint80",
                                "value": "110,680,464,442,257,332,232"
                            }
                        ],
                        "signature": "latestRoundData()"
                    },
                    "errorInfo": "",
                    "fromAddress": "0xeaaa41cb2a64b11fe761d41e747c032cdd60cace",
                    "gasUsed": 15735,
                    "id": 2,
                    "methodDecoded": true,
                    "operation": "STATICCALL",
                    "output": "0x000000000000000000000000000000000000000000000006000000000000580800000000000000000000000000000000000000000000000000000039845fb2800000000000000000000000000000000000000000000000000000000066d57d930000000000000000000000000000000000000000000000000000000066d57d930000000000000000000000000000000000000000000000060000000000005808",
                    "revert": true,
                    "revertMessage": "",
                    "selector": "0xfeaf968c",
                    "status": true,
                    "value": "0"
                },
                "nodeType": 0
            },
            "20": {
                "event": {
                    "contract": "0xfdd05552f1377aa488afed744c8024358af02041",
                    "decodedLog": {
                        "name": "Sync",
                        "params": [
                            {
                                "name": "reserve0",
                                "type": "uint112",
                                "value": "312,369,987,055,932,308,725"
                            },
                            {
                                "name": "reserve1",
                                "type": "uint112",
                                "value": "63,738,967,925,521,843,971,509"
                            }
                        ],
                        "signature": "Sync(uint112,uint112)"
                    },
                    "id": 20,
                    "logData": "0x000000000000000000000000000000000000000000000010ef01203862367cf5000000000000000000000000000000000000000000000d7f4bdf38bc9a3365b5",
                    "logDecoded": true,
                    "operation": "EVENT",
                    "revert": true,
                    "status": false,
                    "topics": [
                        "0x1c411e9a96e071241c2f21f7726b17ae89e3cab4c78be50e062b03a9fffbbad1"
                    ]
                },
                "nodeType": 1
            },
            "21": {
                "event": {
                    "contract": "0xfdd05552f1377aa488afed744c8024358af02041",
                    "decodedLog": {
                        "name": "Swap",
                        "params": [
                            {
                                "name": "sender",
                                "type": "address",
                                "value": "0xeaaa41cb2a64b11fe761d41e747c032cdd60cace"
                            },
                            {
                                "name": "to",
                                "type": "address",
                                "value": "0x94765c40d4320d9a579e20759f4e544c5f81d7eb"
                            },
                            {
                                "name": "amount0In",
                                "type": "uint256",
                                "value": "799,999,999,999,999,943"
                            },
                            {
                                "name": "amount1In",
                                "type": "uint256",
                                "value": "0"
                            },
                            {
                                "name": "amount0Out",
                                "type": "uint256",
                                "value": "0"
                            },
                            {
                                "name": "amount1Out",
                                "type": "uint256",
                                "value": "163,658,813,296,621,077,510"
                            }
                        ],
                        "signature": "Swap(address,uint256,uint256,uint256,uint256,address)"
                    },
                    "id": 21,
                    "logData": "0x0000000000000000000000000000000000000000000000000b1a2bc2ec4fffc700000000000000000000000000000000000000000000000000000000000000000000000000000000000000000000000000000000000000000000000000000000000000000000000000000000000000000000000000000008df38e7977b134406",
                    "logDecoded": true,
                    "operation": "EVENT",
                    "revert": true,
                    "status": false,
                    "topics": [
                        "0xd78ad95fa46c994b6551d0da85fc275fe613ce37657fb8d5e3d130840159d822",
                        "0x000000000000000000000000eaaa41cb2a64b11fe761d41e747c032cdd60cace",
                        "0x00000000000000000000000094765c40d4320d9a579e20759f4e544c5f81d7eb"
                    ]
                },
                "nodeType": 1
            },
            "22": {
                "invocation": {
                    "address": "0xc9bca88b04581699fab5aa276ccaff7df957cbbf",
                    "callData": "0x00000000000000000000000094765c40d4320d9a579e20759f4e544c5f81d7eb",
                    "decodedMethod": {
                        "callParams": [
                            {
                                "name": "account",
                                "type": "address",
                                "value": "0x94765c40d4320d9a579e20759f4e544c5f81d7eb"
                            }
                        ],
                        "constructorArguments": "",
                        "name": "balanceOf",
                        "returnParams": [
                            {
                                "decimalAvailable": true,
                                "name": "",
                                "type": "uint256",
                                "value": "163,658,813,296,621,077,510"
                            }
                        ],
                        "signature": "balanceOf(address)"
                    },
                    "errorInfo": "",
                    "fromAddress": "0xeaaa41cb2a64b11fe761d41e747c032cdd60cace",
                    "gasUsed": 553,
                    "id": 22,
                    "methodDecoded": true,
                    "operation": "STATICCALL",
                    "output": "0x000000000000000000000000000000000000000000000008df38e7977b134406",
                    "revert": true,
                    "revertMessage": "",
                    "selector": "0x70a08231",
                    "status": true,
                    "value": "0"
                },
                "nodeType": 0
            },
            "23": {
                "invocation": {
                    "address": "0x5f4ec3df9cbd43714fe2740f5e3616155c5b8419",
                    "callData": "0x",
                    "decodedMethod": {
                        "callParams": [],
                        "constructorArguments": "",
                        "name": "latestRoundData",
                        "returnParams": [
                            {
                                "name": "roundId",
                                "type": "uint80",
                                "value": "110,680,464,442,257,332,232"
                            },
                            {
                                "name": "answer",
                                "type": "int256",
                                "value": "247,034,000,000"
                            },
                            {
                                "name": "startedAt",
                                "type": "uint256",
                                "value": "1,725,267,347"
                            },
                            {
                                "name": "updatedAt",
                                "type": "uint256",
                                "value": "1,725,267,347"
                            },
                            {
                                "name": "answeredInRound",
                                "type": "uint80",
                                "value": "110,680,464,442,257,332,232"
                            }
                        ],
                        "signature": "latestRoundData()"
                    },
                    "errorInfo": "",
                    "fromAddress": "0xeaaa41cb2a64b11fe761d41e747c032cdd60cace",
                    "gasUsed": 3235,
                    "id": 23,
                    "methodDecoded": true,
                    "operation": "STATICCALL",
                    "output": "0x000000000000000000000000000000000000000000000006000000000000580800000000000000000000000000000000000000000000000000000039845fb2800000000000000000000000000000000000000000000000000000000066d57d930000000000000000000000000000000000000000000000000000000066d57d930000000000000000000000000000000000000000000000060000000000005808",
                    "revert": true,
                    "revertMessage": "",
                    "selector": "0xfeaf968c",
                    "status": true,
                    "value": "0"
                },
                "nodeType": 0
            },
            "24": {
                "invocation": {
                    "address": "0xe62b71cf983019bff55bc83b48601ce8419650cc",
                    "callData": "0x",
                    "decodedMethod": {
                        "callParams": [],
                        "constructorArguments": "",
                        "name": "latestRoundData",
                        "returnParams": [
                            {
                                "name": "roundId",
                                "type": "uint80",
                                "value": "22,536"
                            },
                            {
                                "name": "answer",
                                "type": "int256",
                                "value": "247,034,000,000"
                            },
                            {
                                "name": "startedAt",
                                "type": "uint256",
                                "value": "1,725,267,347"
                            },
                            {
                                "name": "updatedAt",
                                "type": "uint256",
                                "value": "1,725,267,347"
                            },
                            {
                                "name": "answeredInRound",
                                "type": "uint80",
                                "value": "22,536"
                            }
                        ],
                        "signature": "latestRoundData()"
                    },
                    "errorInfo": "",
                    "fromAddress": "0x5f4ec3df9cbd43714fe2740f5e3616155c5b8419",
                    "gasUsed": 1502,
                    "id": 24,
                    "methodDecoded": true,
                    "operation": "STATICCALL",
                    "output": "0x000000000000000000000000000000000000000000000000000000000000580800000000000000000000000000000000000000000000000000000039845fb2800000000000000000000000000000000000000000000000000000000066d57d930000000000000000000000000000000000000000000000000000000066d57d930000000000000000000000000000000000000000000000000000000000005808",
                    "revert": true,
                    "revertMessage": "",
                    "selector": "0xfeaf968c",
                    "status": true,
                    "value": "0"
                },
                "nodeType": 0
            },
            "25": {
                "invocation": {
                    "address": "0xca90d843288e35beeadfce14e5f906e3f1afc7cb",
                    "callData": "0x",
                    "decodedMethod": null,
                    "errorInfo": "",
                    "fromAddress": "0xeaaa41cb2a64b11fe761d41e747c032cdd60cace",
                    "gasUsed": 0,
                    "id": 25,
                    "methodDecoded": false,
                    "operation": "CALL",
                    "output": "",
                    "revert": true,
                    "revertMessage": "",
                    "selector": "fallback",
                    "status": true,
                    "value": "0.000404802577782815"
                },
                "nodeType": 0
            },
            "26": {
                "invocation": {
                    "address": "0xfdd05552f1377aa488afed744c8024358af02041",
                    "callData": "0x",
                    "decodedMethod": {
                        "callParams": [],
                        "constructorArguments": "",
                        "name": "payableProtocol",
                        "returnParams": [
                            {
                                "name": "",
                                "type": "address",
                                "value": "0x109e951394d0da33291531b0db21152e87c330cc"
                            }
                        ],
                        "signature": "payableProtocol()"
                    },
                    "errorInfo": "",
                    "fromAddress": "0xeaaa41cb2a64b11fe761d41e747c032cdd60cace",
                    "gasUsed": 2404,
                    "id": 26,
                    "methodDecoded": true,
                    "operation": "STATICCALL",
                    "output": "0x000000000000000000000000109e951394d0da33291531b0db21152e87c330cc",
                    "revert": true,
                    "revertMessage": "",
                    "selector": "0xccec72fb",
                    "status": true,
                    "value": "0"
                },
                "nodeType": 0
            },
            "27": {
                "invocation": {
                    "address": "0xfdd05552f1377aa488afed744c8024358af02041",
                    "callData": "0x",
                    "decodedMethod": {
                        "callParams": [],
                        "constructorArguments": "",
                        "name": "buyProtocolFee",
                        "returnParams": [
                            {
                                "name": "",
                                "type": "uint8",
                                "value": "3"
                            }
                        ],
                        "signature": "buyProtocolFee()"
                    },
                    "errorInfo": "",
                    "fromAddress": "0xeaaa41cb2a64b11fe761d41e747c032cdd60cace",
                    "gasUsed": 464,
                    "id": 27,
                    "methodDecoded": true,
                    "operation": "STATICCALL",
                    "output": "0x0000000000000000000000000000000000000000000000000000000000000003",
                    "revert": true,
                    "revertMessage": "",
                    "selector": "0xcc2b7657",
                    "status": true,
                    "value": "0"
                },
                "nodeType": 0
            },
            "28": {
                "invocation": {
                    "address": "0x5f4ec3df9cbd43714fe2740f5e3616155c5b8419",
                    "callData": "0x",
                    "decodedMethod": {
                        "callParams": [],
                        "constructorArguments": "",
                        "name": "latestRoundData",
                        "returnParams": [
                            {
                                "name": "roundId",
                                "type": "uint80",
                                "value": "110,680,464,442,257,332,232"
                            },
                            {
                                "name": "answer",
                                "type": "int256",
                                "value": "247,034,000,000"
                            },
                            {
                                "name": "startedAt",
                                "type": "uint256",
                                "value": "1,725,267,347"
                            },
                            {
                                "name": "updatedAt",
                                "type": "uint256",
                                "value": "1,725,267,347"
                            },
                            {
                                "name": "answeredInRound",
                                "type": "uint80",
                                "value": "110,680,464,442,257,332,232"
                            }
                        ],
                        "signature": "latestRoundData()"
                    },
                    "errorInfo": "",
                    "fromAddress": "0xeaaa41cb2a64b11fe761d41e747c032cdd60cace",
                    "gasUsed": 3235,
                    "id": 28,
                    "methodDecoded": true,
                    "operation": "STATICCALL",
                    "output": "0x000000000000000000000000000000000000000000000006000000000000580800000000000000000000000000000000000000000000000000000039845fb2800000000000000000000000000000000000000000000000000000000066d57d930000000000000000000000000000000000000000000000000000000066d57d930000000000000000000000000000000000000000000000060000000000005808",
                    "revert": true,
                    "revertMessage": "",
                    "selector": "0xfeaf968c",
                    "status": true,
                    "value": "0"
                },
                "nodeType": 0
            },
            "29": {
                "invocation": {
                    "address": "0xe62b71cf983019bff55bc83b48601ce8419650cc",
                    "callData": "0x",
                    "decodedMethod": {
                        "callParams": [],
                        "constructorArguments": "",
                        "name": "latestRoundData",
                        "returnParams": [
                            {
                                "name": "roundId",
                                "type": "uint80",
                                "value": "22,536"
                            },
                            {
                                "name": "answer",
                                "type": "int256",
                                "value": "247,034,000,000"
                            },
                            {
                                "name": "startedAt",
                                "type": "uint256",
                                "value": "1,725,267,347"
                            },
                            {
                                "name": "updatedAt",
                                "type": "uint256",
                                "value": "1,725,267,347"
                            },
                            {
                                "name": "answeredInRound",
                                "type": "uint80",
                                "value": "22,536"
                            }
                        ],
                        "signature": "latestRoundData()"
                    },
                    "errorInfo": "",
                    "fromAddress": "0x5f4ec3df9cbd43714fe2740f5e3616155c5b8419",
                    "gasUsed": 1502,
                    "id": 29,
                    "methodDecoded": true,
                    "operation": "STATICCALL",
                    "output": "0x000000000000000000000000000000000000000000000000000000000000580800000000000000000000000000000000000000000000000000000039845fb2800000000000000000000000000000000000000000000000000000000066d57d930000000000000000000000000000000000000000000000000000000066d57d930000000000000000000000000000000000000000000000000000000000005808",
                    "revert": true,
                    "revertMessage": "",
                    "selector": "0xfeaf968c",
                    "status": true,
                    "value": "0"
                },
                "nodeType": 0
            },
            "3": {
                "invocation": {
                    "address": "0xe62b71cf983019bff55bc83b48601ce8419650cc",
                    "callData": "0x",
                    "decodedMethod": {
                        "callParams": [],
                        "constructorArguments": "",
                        "name": "latestRoundData",
                        "returnParams": [
                            {
                                "name": "roundId",
                                "type": "uint80",
                                "value": "22,536"
                            },
                            {
                                "name": "answer",
                                "type": "int256",
                                "value": "247,034,000,000"
                            },
                            {
                                "name": "startedAt",
                                "type": "uint256",
                                "value": "1,725,267,347"
                            },
                            {
                                "name": "updatedAt",
                                "type": "uint256",
                                "value": "1,725,267,347"
                            },
                            {
                                "name": "answeredInRound",
                                "type": "uint80",
                                "value": "22,536"
                            }
                        ],
                        "signature": "latestRoundData()"
                    },
                    "errorInfo": "",
                    "fromAddress": "0x5f4ec3df9cbd43714fe2740f5e3616155c5b8419",
                    "gasUsed": 7502,
                    "id": 3,
                    "methodDecoded": true,
                    "operation": "STATICCALL",
                    "output": "0x000000000000000000000000000000000000000000000000000000000000580800000000000000000000000000000000000000000000000000000039845fb2800000000000000000000000000000000000000000000000000000000066d57d930000000000000000000000000000000000000000000000000000000066d57d930000000000000000000000000000000000000000000000000000000000005808",
                    "revert": true,
                    "revertMessage": "",
                    "selector": "0xfeaf968c",
                    "status": true,
                    "value": "0"
                },
                "nodeType": 0
            },
            "30": {
                "invocation": {
                    "address": "0x109e951394d0da33291531b0db21152e87c330cc",
                    "callData": "0x",
                    "decodedMethod": null,
                    "errorInfo": "",
                    "fromAddress": "0xeaaa41cb2a64b11fe761d41e747c032cdd60cace",
                    "gasUsed": 7616,
                    "id": 30,
                    "methodDecoded": false,
                    "operation": "CALL",
                    "output": "",
                    "revert": true,
                    "revertMessage": "",
                    "selector": "fallback",
                    "status": true,
                    "value": "0.001214407733348445"
                },
                "nodeType": 0
            },
            "31": {
                "invocation": {
                    "address": "0x9a27cb5ae0b2cee0bb71f9a85c0d60f3920757b4",
                    "callData": "0x",
                    "decodedMethod": {
                        "callParams": [],
                        "constructorArguments": "",
                        "name": "router",
                        "returnParams": [
                            {
                                "name": "",
                                "type": "address",
                                "value": "0xeaaa41cb2a64b11fe761d41e747c032cdd60cace"
                            }
                        ],
                        "signature": "router()"
                    },
                    "errorInfo": "",
                    "fromAddress": "0x109e951394d0da33291531b0db21152e87c330cc",
                    "gasUsed": 425,
                    "id": 31,
                    "methodDecoded": true,
                    "operation": "STATICCALL",
                    "output": "0x000000000000000000000000eaaa41cb2a64b11fe761d41e747c032cdd60cace",
                    "revert": true,
                    "revertMessage": "",
                    "selector": "0xf887ea40",
                    "status": true,
                    "value": "0"
                },
                "nodeType": 0
            },
            "32": {
                "invocation": {
                    "address": "0xeaaa41cb2a64b11fe761d41e747c032cdd60cace",
                    "callData": "0x000000000000000000000000000000000000000000000000000000000000003c",
                    "decodedMethod": {
                        "callParams": [
                            {
                                "name": "usdcAmount",
                                "type": "uint256",
                                "value": "60"
                            }
                        ],
                        "constructorArguments": "",
                        "name": "usdcToEth",
                        "returnParams": [
                            {
                                "name": "",
                                "type": "uint256",
                                "value": "24,288,154,666,968,919"
                            }
                        ],
                        "signature": "usdcToEth(uint256)"
                    },
                    "errorInfo": "",
                    "fromAddress": "0x109e951394d0da33291531b0db21152e87c330cc",
                    "gasUsed": 4220,
                    "id": 32,
                    "methodDecoded": true,
                    "operation": "STATICCALL",
                    "output": "0x000000000000000000000000000000000000000000000000005649f2af2ca757",
                    "revert": true,
                    "revertMessage": "",
                    "selector": "0x59020530",
                    "status": true,
                    "value": "0"
                },
                "nodeType": 0
            },
            "33": {
                "invocation": {
                    "address": "0x5f4ec3df9cbd43714fe2740f5e3616155c5b8419",
                    "callData": "0x",
                    "decodedMethod": {
                        "callParams": [],
                        "constructorArguments": "",
                        "name": "latestRoundData",
                        "returnParams": [
                            {
                                "name": "roundId",
                                "type": "uint80",
                                "value": "110,680,464,442,257,332,232"
                            },
                            {
                                "name": "answer",
                                "type": "int256",
                                "value": "247,034,000,000"
                            },
                            {
                                "name": "startedAt",
                                "type": "uint256",
                                "value": "1,725,267,347"
                            },
                            {
                                "name": "updatedAt",
                                "type": "uint256",
                                "value": "1,725,267,347"
                            },
                            {
                                "name": "answeredInRound",
                                "type": "uint80",
                                "value": "110,680,464,442,257,332,232"
                            }
                        ],
                        "signature": "latestRoundData()"
                    },
                    "errorInfo": "",
                    "fromAddress": "0xeaaa41cb2a64b11fe761d41e747c032cdd60cace",
                    "gasUsed": 3235,
                    "id": 33,
                    "methodDecoded": true,
                    "operation": "STATICCALL",
                    "output": "0x000000000000000000000000000000000000000000000006000000000000580800000000000000000000000000000000000000000000000000000039845fb2800000000000000000000000000000000000000000000000000000000066d57d930000000000000000000000000000000000000000000000000000000066d57d930000000000000000000000000000000000000000000000060000000000005808",
                    "revert": true,
                    "revertMessage": "",
                    "selector": "0xfeaf968c",
                    "status": true,
                    "value": "0"
                },
                "nodeType": 0
            },
            "34": {
                "invocation": {
                    "address": "0xe62b71cf983019bff55bc83b48601ce8419650cc",
                    "callData": "0x",
                    "decodedMethod": {
                        "callParams": [],
                        "constructorArguments": "",
                        "name": "latestRoundData",
                        "returnParams": [
                            {
                                "name": "roundId",
                                "type": "uint80",
                                "value": "22,536"
                            },
                            {
                                "name": "answer",
                                "type": "int256",
                                "value": "247,034,000,000"
                            },
                            {
                                "name": "startedAt",
                                "type": "uint256",
                                "value": "1,725,267,347"
                            },
                            {
                                "name": "updatedAt",
                                "type": "uint256",
                                "value": "1,725,267,347"
                            },
                            {
                                "name": "answeredInRound",
                                "type": "uint80",
                                "value": "22,536"
                            }
                        ],
                        "signature": "latestRoundData()"
                    },
                    "errorInfo": "",
                    "fromAddress": "0x5f4ec3df9cbd43714fe2740f5e3616155c5b8419",
                    "gasUsed": 1502,
                    "id": 34,
                    "methodDecoded": true,
                    "operation": "STATICCALL",
                    "output": "0x000000000000000000000000000000000000000000000000000000000000580800000000000000000000000000000000000000000000000000000039845fb2800000000000000000000000000000000000000000000000000000000066d57d930000000000000000000000000000000000000000000000000000000066d57d930000000000000000000000000000000000000000000000000000000000005808",
                    "revert": true,
                    "revertMessage": "",
                    "selector": "0xfeaf968c",
                    "status": true,
                    "value": "0"
                },
                "nodeType": 0
            },
            "35": {
                "invocation": {
                    "address": "0xfdd05552f1377aa488afed744c8024358af02041",
                    "callData": "0x",
                    "decodedMethod": {
                        "callParams": [],
                        "constructorArguments": "",
                        "name": "buyLpFee",
                        "returnParams": [
                            {
                                "name": "",
                                "type": "uint8",
                                "value": "6"
                            }
                        ],
                        "signature": "buyLpFee()"
                    },
                    "errorInfo": "",
                    "fromAddress": "0xeaaa41cb2a64b11fe761d41e747c032cdd60cace",
                    "gasUsed": 399,
                    "id": 35,
                    "methodDecoded": true,
                    "operation": "STATICCALL",
                    "output": "0x0000000000000000000000000000000000000000000000000000000000000006",
                    "revert": true,
                    "revertMessage": "",
                    "selector": "0x6fd3acb4",
                    "status": true,
                    "value": "0"
                },
                "nodeType": 0
            },
            "36": {
                "invocation": {
                    "address": "0x5f4ec3df9cbd43714fe2740f5e3616155c5b8419",
                    "callData": "0x",
                    "decodedMethod": {
                        "callParams": [],
                        "constructorArguments": "",
                        "name": "latestRoundData",
                        "returnParams": [
                            {
                                "name": "roundId",
                                "type": "uint80",
                                "value": "110,680,464,442,257,332,232"
                            },
                            {
                                "name": "answer",
                                "type": "int256",
                                "value": "247,034,000,000"
                            },
                            {
                                "name": "startedAt",
                                "type": "uint256",
                                "value": "1,725,267,347"
                            },
                            {
                                "name": "updatedAt",
                                "type": "uint256",
                                "value": "1,725,267,347"
                            },
                            {
                                "name": "answeredInRound",
                                "type": "uint80",
                                "value": "110,680,464,442,257,332,232"
                            }
                        ],
                        "signature": "latestRoundData()"
                    },
                    "errorInfo": "",
                    "fromAddress": "0xeaaa41cb2a64b11fe761d41e747c032cdd60cace",
                    "gasUsed": 3235,
                    "id": 36,
                    "methodDecoded": true,
                    "operation": "STATICCALL",
                    "output": "0x000000000000000000000000000000000000000000000006000000000000580800000000000000000000000000000000000000000000000000000039845fb2800000000000000000000000000000000000000000000000000000000066d57d930000000000000000000000000000000000000000000000000000000066d57d930000000000000000000000000000000000000000000000060000000000005808",
                    "revert": true,
                    "revertMessage": "",
                    "selector": "0xfeaf968c",
                    "status": true,
                    "value": "0"
                },
                "nodeType": 0
            },
            "37": {
                "invocation": {
                    "address": "0xe62b71cf983019bff55bc83b48601ce8419650cc",
                    "callData": "0x",
                    "decodedMethod": {
                        "callParams": [],
                        "constructorArguments": "",
                        "name": "latestRoundData",
                        "returnParams": [
                            {
                                "name": "roundId",
                                "type": "uint80",
                                "value": "22,536"
                            },
                            {
                                "name": "answer",
                                "type": "int256",
                                "value": "247,034,000,000"
                            },
                            {
                                "name": "startedAt",
                                "type": "uint256",
                                "value": "1,725,267,347"
                            },
                            {
                                "name": "updatedAt",
                                "type": "uint256",
                                "value": "1,725,267,347"
                            },
                            {
                                "name": "answeredInRound",
                                "type": "uint80",
                                "value": "22,536"
                            }
                        ],
                        "signature": "latestRoundData()"
                    },
                    "errorInfo": "",
                    "fromAddress": "0x5f4ec3df9cbd43714fe2740f5e3616155c5b8419",
                    "gasUsed": 1502,
                    "id": 37,
                    "methodDecoded": true,
                    "operation": "STATICCALL",
                    "output": "0x000000000000000000000000000000000000000000000000000000000000580800000000000000000000000000000000000000000000000000000039845fb2800000000000000000000000000000000000000000000000000000000066d57d930000000000000000000000000000000000000000000000000000000066d57d930000000000000000000000000000000000000000000000000000000000005808",
                    "revert": true,
                    "revertMessage": "",
                    "selector": "0xfeaf968c",
                    "status": true,
                    "value": "0"
                },
                "nodeType": 0
            },
            "38": {
                "invocation": {
                    "address": "0xfdd05552f1377aa488afed744c8024358af02041",
                    "callData": "0x",
                    "decodedMethod": null,
                    "errorInfo": "out of gas",
                    "fromAddress": "0xeaaa41cb2a64b11fe761d41e747c032cdd60cace",
                    "gasUsed": 36945,
                    "id": 38,
                    "methodDecoded": false,
                    "operation": "CALL",
                    "output": "",
                    "revert": true,
                    "revertMessage": "",
                    "selector": "fallback",
                    "status": false,
                    "value": "0.002428815466696891"
                },
                "nodeType": 0
            },
            "39": {
                "invocation": {
                    "address": "0x9a27cb5ae0b2cee0bb71f9a85c0d60f3920757b4",
                    "callData": "0x",
                    "decodedMethod": {
                        "callParams": [],
                        "constructorArguments": "",
                        "name": "router",
                        "returnParams": [
                            {
                                "name": "",
                                "type": "address",
                                "value": "0xeaaa41cb2a64b11fe761d41e747c032cdd60cace"
                            }
                        ],
                        "signature": "router()"
                    },
                    "errorInfo": "",
                    "fromAddress": "0xfdd05552f1377aa488afed744c8024358af02041",
                    "gasUsed": 425,
                    "id": 39,
                    "methodDecoded": true,
                    "operation": "STATICCALL",
                    "output": "0x000000000000000000000000eaaa41cb2a64b11fe761d41e747c032cdd60cace",
                    "revert": true,
                    "revertMessage": "",
                    "selector": "0xf887ea40",
                    "status": true,
                    "value": "0"
                },
                "nodeType": 0
            },
            "4": {
                "invocation": {
                    "address": "0xfdd05552f1377aa488afed744c8024358af02041",
                    "callData": "0x",
                    "decodedMethod": {
                        "callParams": [],
                        "constructorArguments": "",
                        "name": "buyTotalFee",
                        "returnParams": [
                            {
                                "name": "",
                                "type": "uint8",
                                "value": "10"
                            }
                        ],
                        "signature": "buyTotalFee()"
                    },
                    "errorInfo": "",
                    "fromAddress": "0xeaaa41cb2a64b11fe761d41e747c032cdd60cace",
                    "gasUsed": 465,
                    "id": 4,
                    "methodDecoded": true,
                    "operation": "STATICCALL",
                    "output": "0x000000000000000000000000000000000000000000000000000000000000000a",
                    "revert": true,
                    "revertMessage": "",
                    "selector": "0x3705b392",
                    "status": true,
                    "value": "0"
                },
                "nodeType": 0
            },
            "5": {
                "invocation": {
                    "address": "0x5f4ec3df9cbd43714fe2740f5e3616155c5b8419",
                    "callData": "0x",
                    "decodedMethod": {
                        "callParams": [],
                        "constructorArguments": "",
                        "name": "latestRoundData",
                        "returnParams": [
                            {
                                "name": "roundId",
                                "type": "uint80",
                                "value": "110,680,464,442,257,332,232"
                            },
                            {
                                "name": "answer",
                                "type": "int256",
                                "value": "247,034,000,000"
                            },
                            {
                                "name": "startedAt",
                                "type": "uint256",
                                "value": "1,725,267,347"
                            },
                            {
                                "name": "updatedAt",
                                "type": "uint256",
                                "value": "1,725,267,347"
                            },
                            {
                                "name": "answeredInRound",
                                "type": "uint80",
                                "value": "110,680,464,442,257,332,232"
                            }
                        ],
                        "signature": "latestRoundData()"
                    },
                    "errorInfo": "",
                    "fromAddress": "0xeaaa41cb2a64b11fe761d41e747c032cdd60cace",
                    "gasUsed": 3235,
                    "id": 5,
                    "methodDecoded": true,
                    "operation": "STATICCALL",
                    "output": "0x000000000000000000000000000000000000000000000006000000000000580800000000000000000000000000000000000000000000000000000039845fb2800000000000000000000000000000000000000000000000000000000066d57d930000000000000000000000000000000000000000000000000000000066d57d930000000000000000000000000000000000000000000000060000000000005808",
                    "revert": true,
                    "revertMessage": "",
                    "selector": "0xfeaf968c",
                    "status": true,
                    "value": "0"
                },
                "nodeType": 0
            },
            "6": {
                "invocation": {
                    "address": "0xe62b71cf983019bff55bc83b48601ce8419650cc",
                    "callData": "0x",
                    "decodedMethod": {
                        "callParams": [],
                        "constructorArguments": "",
                        "name": "latestRoundData",
                        "returnParams": [
                            {
                                "name": "roundId",
                                "type": "uint80",
                                "value": "22,536"
                            },
                            {
                                "name": "answer",
                                "type": "int256",
                                "value": "247,034,000,000"
                            },
                            {
                                "name": "startedAt",
                                "type": "uint256",
                                "value": "1,725,267,347"
                            },
                            {
                                "name": "updatedAt",
                                "type": "uint256",
                                "value": "1,725,267,347"
                            },
                            {
                                "name": "answeredInRound",
                                "type": "uint80",
                                "value": "22,536"
                            }
                        ],
                        "signature": "latestRoundData()"
                    },
                    "errorInfo": "",
                    "fromAddress": "0x5f4ec3df9cbd43714fe2740f5e3616155c5b8419",
                    "gasUsed": 1502,
                    "id": 6,
                    "methodDecoded": true,
                    "operation": "STATICCALL",
                    "output": "0x000000000000000000000000000000000000000000000000000000000000580800000000000000000000000000000000000000000000000000000039845fb2800000000000000000000000000000000000000000000000000000000066d57d930000000000000000000000000000000000000000000000000000000066d57d930000000000000000000000000000000000000000000000000000000000005808",
                    "revert": true,
                    "revertMessage": "",
                    "selector": "0xfeaf968c",
                    "status": true,
                    "value": "0"
                },
                "nodeType": 0
            },
            "7": {
                "invocation": {
                    "address": "0xc02aaa39b223fe8d0a0e5c4f27ead9083c756cc2",
                    "callData": "0x",
                    "decodedMethod": {
                        "callParams": [],
                        "constructorArguments": "",
                        "name": "deposit",
                        "returnParams": [],
                        "signature": "deposit()"
                    },
                    "errorInfo": "",
                    "fromAddress": "0xeaaa41cb2a64b11fe761d41e747c032cdd60cace",
                    "gasUsed": 23974,
                    "id": 7,
                    "methodDecoded": true,
                    "operation": "CALL",
                    "output": "",
                    "revert": true,
                    "revertMessage": "",
                    "selector": "0xd0e30db0",
                    "status": true,
                    "value": "0.799999999999999943"
                },
                "nodeType": 0
            },
            "8": {
                "event": {
                    "contract": "0xc02aaa39b223fe8d0a0e5c4f27ead9083c756cc2",
                    "decodedLog": {
                        "name": "Deposit",
                        "params": [
                            {
                                "name": "dst",
                                "type": "address",
                                "value": "0xeaaa41cb2a64b11fe761d41e747c032cdd60cace"
                            },
                            {
                                "name": "wad",
                                "type": "uint256",
                                "value": "799,999,999,999,999,943"
                            }
                        ],
                        "signature": "Deposit(address,uint256)"
                    },
                    "id": 8,
                    "logData": "0x0000000000000000000000000000000000000000000000000b1a2bc2ec4fffc7",
                    "logDecoded": true,
                    "operation": "EVENT",
                    "revert": true,
                    "status": false,
                    "topics": [
                        "0xe1fffcc4923d04b559f4d29a8bfc6cda04eb5b0d3c460751c2402c5c5cc9109c",
                        "0x000000000000000000000000eaaa41cb2a64b11fe761d41e747c032cdd60cace"
                    ]
                },
                "nodeType": 1
            },
            "9": {
                "invocation": {
                    "address": "0xc02aaa39b223fe8d0a0e5c4f27ead9083c756cc2",
                    "callData": "0x000000000000000000000000fdd05552f1377aa488afed744c8024358af020410000000000000000000000000000000000000000000000000b1a2bc2ec4fffc7",
                    "decodedMethod": {
                        "callParams": [
                            {
                                "name": "dst",
                                "type": "address",
                                "value": "0xfdd05552f1377aa488afed744c8024358af02041"
                            },
                            {
                                "decimalAvailable": true,
                                "name": "wad",
                                "type": "uint256",
                                "value": "799,999,999,999,999,943"
                            }
                        ],
                        "constructorArguments": "",
                        "name": "transfer",
                        "returnParams": [
                            {
                                "name": "",
                                "type": "bool",
                                "value": true
                            }
                        ],
                        "signature": "transfer(address,uint256)"
                    },
                    "errorInfo": "",
                    "fromAddress": "0xeaaa41cb2a64b11fe761d41e747c032cdd60cace",
                    "gasUsed": 8062,
                    "id": 9,
                    "methodDecoded": true,
                    "operation": "CALL",
                    "output": "0x0000000000000000000000000000000000000000000000000000000000000001",
                    "revert": true,
                    "revertMessage": "",
                    "selector": "0xa9059cbb",
                    "status": true,
                    "value": "0"
                },
                "nodeType": 0
            }
        },
        "gasFlame": [
            {
                "children": [
                    {
                        "children": [
                            {
                                "children": [],
                                "depth": 0,
                                "name": "Initial Gas",
                                "value": 22848
                            },
                            {
                                "children": [
                                    {
                                        "children": [],
                                        "depth": 1,
                                        "name": "buyTotalFee",
                                        "value": 2465
                                    },
                                    {
                                        "children": [
                                            {
                                                "children": [],
                                                "depth": 2,
                                                "name": "latestRoundData",
                                                "value": 7502
                                            }
                                        ],
                                        "depth": 1,
                                        "name": "latestRoundData",
                                        "value": 15735
                                    },
                                    {
                                        "children": [],
                                        "depth": 1,
                                        "name": "buyTotalFee",
                                        "value": 465
                                    },
                                    {
                                        "children": [
                                            {
                                                "children": [],
                                                "depth": 2,
                                                "name": "latestRoundData",
                                                "value": 1502
                                            }
                                        ],
                                        "depth": 1,
                                        "name": "latestRoundData",
                                        "value": 3235
                                    },
                                    {
                                        "children": [],
                                        "depth": 1,
                                        "name": "deposit",
                                        "value": 23974
                                    },
                                    {
                                        "children": [],
                                        "depth": 1,
                                        "name": "transfer",
                                        "value": 8062
                                    },
                                    {
                                        "children": [],
                                        "depth": 1,
                                        "name": "balanceOf",
                                        "value": 2553
                                    },
                                    {
                                        "children": [],
                                        "depth": 1,
                                        "name": "getReserves",
                                        "value": 2562
                                    },
                                    {
                                        "children": [],
                                        "depth": 1,
                                        "name": "balanceOf",
                                        "value": 534
                                    },
                                    {
                                        "children": [
                                            {
                                                "children": [],
                                                "depth": 2,
                                                "name": "router",
                                                "value": 2425
                                            },
                                            {
                                                "children": [],
                                                "depth": 2,
                                                "name": "transfer",
                                                "value": 27976
                                            },
                                            {
                                                "children": [],
                                                "depth": 2,
                                                "name": "balanceOf",
                                                "value": 534
                                            },
                                            {
                                                "children": [],
                                                "depth": 2,
                                                "name": "balanceOf",
                                                "value": 553
                                            }
                                        ],
                                        "depth": 1,
                                        "name": "swap",
                                        "value": 65458
                                    },
                                    {
                                        "children": [],
                                        "depth": 1,
                                        "name": "balanceOf",
                                        "value": 553
                                    },
                                    {
                                        "children": [
                                            {
                                                "children": [],
                                                "depth": 2,
                                                "name": "latestRoundData",
                                                "value": 1502
                                            }
                                        ],
                                        "depth": 1,
                                        "name": "latestRoundData",
                                        "value": 3235
                                    },
                                    {
                                        "children": [],
                                        "depth": 1,
                                        "name": "fallback",
                                        "value": 0
                                    },
                                    {
                                        "children": [],
                                        "depth": 1,
                                        "name": "payableProtocol",
                                        "value": 2404
                                    },
                                    {
                                        "children": [],
                                        "depth": 1,
                                        "name": "buyProtocolFee",
                                        "value": 464
                                    },
                                    {
                                        "children": [
                                            {
                                                "children": [],
                                                "depth": 2,
                                                "name": "latestRoundData",
                                                "value": 1502
                                            }
                                        ],
                                        "depth": 1,
                                        "name": "latestRoundData",
                                        "value": 3235
                                    },
                                    {
                                        "children": [
                                            {
                                                "children": [],
                                                "depth": 2,
                                                "name": "router",
                                                "value": 425
                                            },
                                            {
                                                "children": [
                                                    {
                                                        "children": [
                                                            {
                                                                "children": [],
                                                                "depth": 4,
                                                                "name": "latestRoundData",
                                                                "value": 1502
                                                            }
                                                        ],
                                                        "depth": 3,
                                                        "name": "latestRoundData",
                                                        "value": 3235
                                                    }
                                                ],
                                                "depth": 2,
                                                "name": "usdcToEth",
                                                "value": 4220
                                            }
                                        ],
                                        "depth": 1,
                                        "name": "fallback",
                                        "value": 7616
                                    },
                                    {
                                        "children": [],
                                        "depth": 1,
                                        "name": "buyLpFee",
                                        "value": 399
                                    },
                                    {
                                        "children": [
                                            {
                                                "children": [],
                                                "depth": 2,
                                                "name": "latestRoundData",
                                                "value": 1502
                                            }
                                        ],
                                        "depth": 1,
                                        "name": "latestRoundData",
                                        "value": 3235
                                    },
                                    {
                                        "children": [
                                            {
                                                "children": [],
                                                "depth": 2,
                                                "name": "router",
                                                "value": 425
                                            }
                                        ],
                                        "depth": 1,
                                        "name": "fallback",
                                        "value": 36945
                                    }
                                ],
                                "depth": 0,
                                "name": "Executed Gas",
                                "value": 245153
                            }
                        ],
                        "depth": -1,
                        "name": "Actual Gas Used",
                        "value": 268001
                    },
                    {
                        "children": [],
                        "depth": -1,
                        "name": "Refunded Gas",
                        "value": 0
                    }
                ],
                "depth": -2,
                "name": "Total Gas",
                "value": 268001
            }
        ],
        "isConfirmed": true,
        "mainTrace": [
            {
                "children": [
                    {
                        "children": [
                            {
                                "children": [],
                                "depth": 1,
                                "id": 1,
                                "order": 1
                            },
                            {
                                "children": [
                                    {
                                        "children": [],
                                        "depth": 2,
                                        "id": 3,
                                        "order": 3
                                    }
                                ],
                                "depth": 1,
                                "id": 2,
                                "order": 2
                            },
                            {
                                "children": [],
                                "depth": 1,
                                "id": 4,
                                "order": 4
                            },
                            {
                                "children": [
                                    {
                                        "children": [],
                                        "depth": 2,
                                        "id": 6,
                                        "order": 6
                                    }
                                ],
                                "depth": 1,
                                "id": 5,
                                "order": 5
                            },
                            {
                                "children": [
                                    {
                                        "children": [],
                                        "depth": 2,
                                        "id": 8,
                                        "order": 8
                                    }
                                ],
                                "depth": 1,
                                "id": 7,
                                "order": 7
                            },
                            {
                                "children": [
                                    {
                                        "children": [],
                                        "depth": 2,
                                        "id": 10,
                                        "order": 10
                                    }
                                ],
                                "depth": 1,
                                "id": 9,
                                "order": 9
                            },
                            {
                                "children": [],
                                "depth": 1,
                                "id": 11,
                                "order": 11
                            },
                            {
                                "children": [],
                                "depth": 1,
                                "id": 12,
                                "order": 12
                            },
                            {
                                "children": [],
                                "depth": 1,
                                "id": 13,
                                "order": 13
                            },
                            {
                                "children": [
                                    {
                                        "children": [],
                                        "depth": 2,
                                        "id": 15,
                                        "order": 15
                                    },
                                    {
                                        "children": [
                                            {
                                                "children": [],
                                                "depth": 3,
                                                "id": 17,
                                                "order": 17
                                            }
                                        ],
                                        "depth": 2,
                                        "id": 16,
                                        "order": 16
                                    },
                                    {
                                        "children": [],
                                        "depth": 2,
                                        "id": 18,
                                        "order": 18
                                    },
                                    {
                                        "children": [],
                                        "depth": 2,
                                        "id": 19,
                                        "order": 19
                                    },
                                    {
                                        "children": [],
                                        "depth": 2,
                                        "id": 20,
                                        "order": 20
                                    },
                                    {
                                        "children": [],
                                        "depth": 2,
                                        "id": 21,
                                        "order": 21
                                    }
                                ],
                                "depth": 1,
                                "id": 14,
                                "order": 14
                            },
                            {
                                "children": [],
                                "depth": 1,
                                "id": 22,
                                "order": 22
                            },
                            {
                                "children": [
                                    {
                                        "children": [],
                                        "depth": 2,
                                        "id": 24,
                                        "order": 24
                                    }
                                ],
                                "depth": 1,
                                "id": 23,
                                "order": 23
                            },
                            {
                                "children": [],
                                "depth": 1,
                                "id": 25,
                                "order": 25
                            },
                            {
                                "children": [],
                                "depth": 1,
                                "id": 26,
                                "order": 26
                            },
                            {
                                "children": [],
                                "depth": 1,
                                "id": 27,
                                "order": 27
                            },
                            {
                                "children": [
                                    {
                                        "children": [],
                                        "depth": 2,
                                        "id": 29,
                                        "order": 29
                                    }
                                ],
                                "depth": 1,
                                "id": 28,
                                "order": 28
                            },
                            {
                                "children": [
                                    {
                                        "children": [],
                                        "depth": 2,
                                        "id": 31,
                                        "order": 31
                                    },
                                    {
                                        "children": [
                                            {
                                                "children": [
                                                    {
                                                        "children": [],
                                                        "depth": 4,
                                                        "id": 34,
                                                        "order": 34
                                                    }
                                                ],
                                                "depth": 3,
                                                "id": 33,
                                                "order": 33
                                            }
                                        ],
                                        "depth": 2,
                                        "id": 32,
                                        "order": 32
                                    }
                                ],
                                "depth": 1,
                                "id": 30,
                                "order": 30
                            },
                            {
                                "children": [],
                                "depth": 1,
                                "id": 35,
                                "order": 35
                            },
                            {
                                "children": [
                                    {
                                        "children": [],
                                        "depth": 2,
                                        "id": 37,
                                        "order": 37
                                    }
                                ],
                                "depth": 1,
                                "id": 36,
                                "order": 36
                            },
                            {
                                "children": [
                                    {
                                        "children": [],
                                        "depth": 2,
                                        "id": 39,
                                        "order": 39
                                    }
                                ],
                                "depth": 1,
                                "id": 38,
                                "order": 38
                            }
                        ],
                        "depth": 0,
                        "id": 0,
                        "order": 0
                    }
                ],
                "depth": -1,
                "id": -1,
                "order": -1
            }
        ],
        "mainTraceNodeCount": 40,
        "parentIdMap": {
            "0": -1,
            "1": 0,
            "10": 9,
            "11": 0,
            "12": 0,
            "13": 0,
            "14": 0,
            "15": 14,
            "16": 14,
            "17": 16,
            "18": 14,
            "19": 14,
            "2": 0,
            "20": 14,
            "21": 14,
            "22": 0,
            "23": 0,
            "24": 23,
            "25": 0,
            "26": 0,
            "27": 0,
            "28": 0,
            "29": 28,
            "3": 2,
            "30": 0,
            "31": 30,
            "32": 30,
            "33": 32,
            "34": 33,
            "35": 0,
            "36": 0,
            "37": 36,
            "38": 0,
            "39": 38,
            "4": 0,
            "5": 0,
            "6": 5,
            "7": 0,
            "8": 7,
            "9": 0
        },
        "tidyTrace": [
            {
                "children": [
                    {
                        "children": [
                            {
                                "children": [
                                    {
                                        "children": [],
                                        "depth": 2,
                                        "id": 8,
                                        "order": 8
                                    }
                                ],
                                "depth": 1,
                                "id": 7,
                                "order": 7
                            },
                            {
                                "children": [
                                    {
                                        "children": [],
                                        "depth": 2,
                                        "id": 10,
                                        "order": 10
                                    }
                                ],
                                "depth": 1,
                                "id": 9,
                                "order": 9
                            },
                            {
                                "children": [
                                    {
                                        "children": [
                                            {
                                                "children": [],
                                                "depth": 3,
                                                "id": 17,
                                                "order": 17
                                            }
                                        ],
                                        "depth": 2,
                                        "id": 16,
                                        "order": 16
                                    },
                                    {
                                        "children": [],
                                        "depth": 2,
                                        "id": 20,
                                        "order": 20
                                    },
                                    {
                                        "children": [],
                                        "depth": 2,
                                        "id": 21,
                                        "order": 21
                                    }
                                ],
                                "depth": 1,
                                "id": 14,
                                "order": 14
                            },
                            {
                                "children": [],
                                "depth": 1,
                                "id": 25,
                                "order": 25
                            },
                            {
                                "children": [],
                                "depth": 1,
                                "id": 30,
                                "order": 30
                            },
                            {
                                "children": [],
                                "depth": 1,
                                "id": 38,
                                "order": 38
                            }
                        ],
                        "depth": 0,
                        "id": 0,
                        "order": 0
                    }
                ],
                "depth": -1,
                "id": -1,
                "order": -1
            }
        ],
        "tidyTraceNodeCount": 13
    },
    "state_change": {
        "stateChanges": []
    }
}