{
    "balance_change": {
        "balanceChanges": [
            {
                "account": "0x88cc7b7f5d5f349e4f62e3155475ddd4e07eaf08",
                "assets": [
                    {
                        "address": "0xeeeeeeeeeeeeeeeeeeeeeeeeeeeeeeeeeeeeeeee",
                        "amount": "0.030930004",
                        "iconUrl": "https://assets.blocksec.com/image/1663669189317-3.png",
                        "isERC1155": false,
                        "isERC721": false,
                        "sign": false,
                        "value": "130.1153449"
                    },
                    {
                        "address": "0x8b3192f5eebd8579568a2ed41e6feb402f93f73f",
                        "amount": "1,596,947,712.164539108",
                        "iconUrl": "",
                        "isERC1155": false,
                        "isERC721": false,
                        "sign": true,
                        "value": "129.2298867"
                    }
                ]
            },
            {
                "account": "0x9cbfb60a09a9a33a10312da0f39977cbdb7fde23",
                "assets": [
                    {
                        "address": "0xc02aaa39b223fe8d0a0e5c4f27ead9083c756cc2",
                        "amount": "0.030930004",
                        "iconUrl": "https://assets.blocksec.com/icon/f1cb2d02c471d545bbc7722daf3277fd852d98e63d118771af7047bd8256c516.png",
                        "isERC1155": false,
                        "isERC721": false,
                        "sign": true,
                        "value": "130.1153449"
                    },
                    {
                        "address": "0x8b3192f5eebd8579568a2ed41e6feb402f93f73f",
                        "amount": "1,596,947,712.164539108",
                        "iconUrl": "",
                        "isERC1155": false,
                        "isERC721": false,
                        "sign": false,
                        "value": "129.2298867"
                    }
                ]
            },
            {
                "account": "0xc02aaa39b223fe8d0a0e5c4f27ead9083c756cc2",
                "assets": [
                    {
                        "address": "0xeeeeeeeeeeeeeeeeeeeeeeeeeeeeeeeeeeeeeeee",
                        "amount": "0.030930004",
                        "iconUrl": "https://assets.blocksec.com/image/1663669189317-3.png",
                        "isERC1155": false,
                        "isERC721": false,
                        "sign": true,
                        "value": "130.1153449"
                    },
                    {
                        "address": "0xc02aaa39b223fe8d0a0e5c4f27ead9083c756cc2",
                        "amount": "0.030930004",
                        "iconUrl": "https://assets.blocksec.com/icon/f1cb2d02c471d545bbc7722daf3277fd852d98e63d118771af7047bd8256c516.png",
                        "isERC1155": false,
                        "isERC721": false,
                        "sign": false,
                        "value": "130.1153449"
                    }
                ]
            }
        ]
    },
    "profile": {
        "basic_info": {
            "baseFee": "96.647146034",
            "blockNumber": 13490976,
            "callData": "0x7ff36ab50000000000000000000000000000000000000000000000001640f7d777ec4d85000000000000000000000000000000000000000000000000000000000000008000000000000000000000000088cc7b7f5d5f349e4f62e3155475ddd4e07eaf0800000000000000000000000000000000000000000000000000000000617790300000000000000000000000000000000000000000000000000000000000000002000000000000000000000000c02aaa39b223fe8d0a0e5c4f27ead9083c756cc20000000000000000000000008b3192f5eebd8579568a2ed41e6feb402f93f73f",
            "debugEnable": true,
            "errorInfo": "",
            "eventCount": 5,
            "feeRecipient": "0x1ad91ee08f21be3de0ba2ba6918e714da6b45836",
            "formatValue": "0.030930004",
            "gasLimit": 172381,
            "gasPrice": "102.3",
            "gasUsed": 118180,
            "intTxnCount": 7,
            "internalRevert": false,
            "internalRevertMessage": "",
            "isContractCreation": false,
            "isFlashloan": false,
            "maxFee": "",
            "nonce": 10,
            "overwritedBlockNumber": -1,
            "priorityFee": "",
            "receiver": "0x7a250d5630b4cf539739df2c5dacb4c659f2488d",
            "revertMessage": "",
            "sender": "0x88cc7b7f5d5f349e4f62e3155475ddd4e07eaf08",
            "simulationEnable": true,
            "sourceTxnHash": "0xc40c9c3b6f31fbea0626cfd88b09fa7bd0a6ede0342245049c868e1ad304157d",
            "status": true,
            "timestamp": "2021-10-26T04:53:21Z",
            "transactionFee": "0.012089814",
            "txnHash": "0xc40c9c3b6f31fbea0626cfd88b09fa7bd0a6ede0342245049c868e1ad304157d",
            "txnIndex": 76,
            "type": 0,
            "value": "30930004000000000"
        },
        "fund_flow": [
            {
                "amount": "0.030930004",
                "from": "0x88cc7b7f5d5f349e4f62e3155475ddd4e07eaf08",
                "id": 1,
                "isERC1155": false,
                "isERC721": false,
                "isReverted": false,
                "order": 1,
                "to": "0x7a250d5630b4cf539739df2c5dacb4c659f2488d",
                "token": "0xeeeeeeeeeeeeeeeeeeeeeeeeeeeeeeeeeeeeeeee"
            },
            {
                "amount": "0.030930004",
                "from": "0x7a250d5630b4cf539739df2c5dacb4c659f2488d",
                "id": 2,
                "isERC1155": false,
                "isERC721": false,
                "isReverted": false,
                "order": 2,
                "to": "0xc02aaa39b223fe8d0a0e5c4f27ead9083c756cc2",
                "token": "0xeeeeeeeeeeeeeeeeeeeeeeeeeeeeeeeeeeeeeeee"
            },
            {
                "amount": "0.030930004",
                "from": "0xc02aaa39b223fe8d0a0e5c4f27ead9083c756cc2",
                "id": 3,
                "isERC1155": false,
                "isERC721": false,
                "isReverted": false,
                "order": 3,
                "to": "0x7a250d5630b4cf539739df2c5dacb4c659f2488d",
                "token": "0xc02aaa39b223fe8d0a0e5c4f27ead9083c756cc2"
            },
            {
                "amount": "0.030930004",
                "from": "0x7a250d5630b4cf539739df2c5dacb4c659f2488d",
                "id": 4,
                "isERC1155": false,
                "isERC721": false,
                "isReverted": false,
                "order": 4,
                "to": "0x9cbfb60a09a9a33a10312da0f39977cbdb7fde23",
                "token": "0xc02aaa39b223fe8d0a0e5c4f27ead9083c756cc2"
            },
            {
                "amount": "1,596,947,712.164539108",
                "from": "0x9cbfb60a09a9a33a10312da0f39977cbdb7fde23",
                "id": 5,
                "isERC1155": false,
                "isERC721": false,
                "isReverted": false,
                "order": 5,
                "to": "0x88cc7b7f5d5f349e4f62e3155475ddd4e07eaf08",
                "token": "0x8b3192f5eebd8579568a2ed41e6feb402f93f73f"
            }
        ],
        "token_infos": [
            {
                "address": "0xc02aaa39b223fe8d0a0e5c4f27ead9083c756cc2",
                "decimals": 18
            },
            {
                "address": "0xeeeeeeeeeeeeeeeeeeeeeeeeeeeeeeeeeeeeeeee",
                "decimals": 18
            },
            {
                "address": "0x8b3192f5eebd8579568a2ed41e6feb402f93f73f",
                "decimals": 9
            }
        ]
    },
    "address_label": {
        "labels": [
            {
                "address": "0x0000000000000000000000000000000000000004",
                "label": "Precompiled"
            },
            {
                "address": "0xeeeeeeeeeeeeeeeeeeeeeeeeeeeeeeeeeeeeeeee",
                "label": "Ether"
            },
            {
                "address": "0xc02aaa39b223fe8d0a0e5c4f27ead9083c756cc2",
                "label": "Wrapped Ether (WETH)"
            },
            {
                "address": "0x9cbfb60a09a9a33a10312da0f39977cbdb7fde23",
                "label": "Uniswap V2: SAITAMA"
            },
            {
                "address": "0x0000000000000000000000000000000000000001",
                "label": "Precompiled"
            },
            {
                "address": "0x0000000000000000000000000000000000000002",
                "label": "Precompiled"
            },
            {
                "address": "0x0000000000000000000000000000000000000003",
                "label": "Precompiled"
            },
            {
                "address": "0x7a250d5630b4cf539739df2c5dacb4c659f2488d",
                "label": "Uniswap V2: Router 2"
            },
            {
                "address": "0x8b3192f5eebd8579568a2ed41e6feb402f93f73f",
                "label": "Saitama Inu: Old SAITAMA Token"
            }
        ]
    },
    "trace": {
        "accountLabels": null,
        "dataMap": {
            "-1": {
                "invocation": {
                    "address": "0x88cc7b7f5d5f349e4f62e3155475ddd4e07eaf08",
                    "callData": "",
                    "decodedMethod": null,
                    "errorInfo": "",
                    "fromAddress": "",
                    "gasUsed": 0,
                    "id": -1,
                    "methodDecoded": false,
                    "operation": "",
                    "output": "",
                    "revert": false,
                    "revertMessage": "",
                    "selector": "",
                    "status": false,
                    "value": ""
                },
                "nodeType": 0
            },
            "0": {
                "invocation": {
                    "address": "0x7a250d5630b4cf539739df2c5dacb4c659f2488d",
                    "callData": "0x0000000000000000000000000000000000000000000000001640f7d777ec4d85000000000000000000000000000000000000000000000000000000000000008000000000000000000000000088cc7b7f5d5f349e4f62e3155475ddd4e07eaf0800000000000000000000000000000000000000000000000000000000617790300000000000000000000000000000000000000000000000000000000000000002000000000000000000000000c02aaa39b223fe8d0a0e5c4f27ead9083c756cc20000000000000000000000008b3192f5eebd8579568a2ed41e6feb402f93f73f",
                    "decodedMethod": {
                        "callParams": [
                            {
                                "name": "amountOutMin",
                                "type": "uint256",
                                "value": "1,603,553,972,145,900,933"
                            },
                            {
                                "name": "path",
                                "type": "address[]",
                                "value": [
                                    "0xc02aaa39b223fe8d0a0e5c4f27ead9083c756cc2",
                                    "0x8b3192f5eebd8579568a2ed41e6feb402f93f73f"
                                ]
                            },
                            {
                                "name": "to",
                                "type": "address",
                                "value": "0x88cc7b7f5d5f349e4f62e3155475ddd4e07eaf08"
                            },
                            {
                                "name": "deadline",
                                "type": "uint256",
                                "value": "1,635,225,648"
                            }
                        ],
                        "constructorArguments": "",
                        "name": "swapExactETHForTokens",
                        "returnParams": [
                            {
                                "name": "amounts",
                                "type": "uint256[]",
                                "value": [
                                    "30,930,004,000,000,000",
                                    "1,629,538,481,800,550,110"
                                ]
                            }
                        ],
                        "signature": "swapExactETHForTokens(uint256,address[],address,uint256)"
                    },
                    "errorInfo": "",
                    "fromAddress": "0x88cc7b7f5d5f349e4f62e3155475ddd4e07eaf08",
                    "gasUsed": 118180,
                    "id": 0,
                    "methodDecoded": true,
                    "operation": "CALL",
                    "output": "0x00000000000000000000000000000000000000000000000000000000000000200000000000000000000000000000000000000000000000000000000000000002000000000000000000000000000000000000000000000000006de2acbd524800000000000000000000000000000000000000000000000000169d489d938d16de",
                    "revert": false,
                    "revertMessage": "",
                    "selector": "0x7ff36ab5",
                    "status": true,
                    "value": "0.030930004"
                },
                "nodeType": 0
            },
            "1": {
                "invocation": {
                    "address": "0x9cbfb60a09a9a33a10312da0f39977cbdb7fde23",
                    "callData": "0x",
                    "decodedMethod": {
                        "callParams": [],
                        "constructorArguments": "",
                        "name": "getReserves",
                        "returnParams": [
                            {
                                "name": "_reserve0",
                                "type": "uint112",
                                "value": "173,044,780,831,360,394,264,284"
                            },
                            {
                                "name": "_reserve1",
                                "type": "uint112",
                                "value": "3,274,650,304,471,597,435,653"
                            },
                            {
                                "name": "_blockTimestampLast",
                                "type": "uint32",
                                "value": "1,635,224,001"
                            }
                        ],
                        "signature": "getReserves()"
                    },
                    "errorInfo": "",
                    "fromAddress": "0x7a250d5630b4cf539739df2c5dacb4c659f2488d",
                    "gasUsed": 2504,
                    "id": 1,
                    "methodDecoded": true,
                    "operation": "STATICCALL",
                    "output": "0x0000000000000000000000000000000000000000000024a4c6bfe7947118fedc0000000000000000000000000000000000000000000000b184e6ee137651cb0500000000000000000000000000000000000000000000000000000000617789c1",
                    "revert": false,
                    "revertMessage": "",
                    "selector": "0x0902f1ac",
                    "status": true,
                    "value": "0"
                },
                "nodeType": 0
            },
            "10": {
                "invocation": {
                    "address": "0xc02aaa39b223fe8d0a0e5c4f27ead9083c756cc2",
                    "callData": "0x0000000000000000000000009cbfb60a09a9a33a10312da0f39977cbdb7fde23",
                    "decodedMethod": {
                        "callParams": [
                            {
                                "name": "",
                                "type": "address",
                                "value": "0x9cbfb60a09a9a33a10312da0f39977cbdb7fde23"
                            }
                        ],
                        "constructorArguments": "",
                        "name": "balanceOf",
                        "returnParams": [
                            {
                                "decimalAvailable": true,
                                "name": "",
                                "type": "uint256",
                                "value": "3,274,681,234,475,597,435,653"
                            }
                        ],
                        "signature": "balanceOf(address)"
                    },
                    "errorInfo": "",
                    "fromAddress": "0x9cbfb60a09a9a33a10312da0f39977cbdb7fde23",
                    "gasUsed": 534,
                    "id": 10,
                    "methodDecoded": true,
                    "operation": "STATICCALL",
                    "output": "0x0000000000000000000000000000000000000000000000b18554d0c033a41305",
                    "revert": false,
                    "revertMessage": "",
                    "selector": "0x70a08231",
                    "status": true,
                    "value": "0"
                },
                "nodeType": 0
            },
            "11": {
                "event": {
                    "contract": "0x9cbfb60a09a9a33a10312da0f39977cbdb7fde23",
                    "decodedLog": {
                        "name": "Sync",
                        "params": [
                            {
                                "name": "reserve0",
                                "type": "uint112",
                                "value": "173,043,151,349,274,688,541,310"
                            },
                            {
                                "name": "reserve1",
                                "type": "uint112",
                                "value": "3,274,681,234,475,597,435,653"
                            }
                        ],
                        "signature": "Sync(uint112,uint112)"
                    },
                    "id": 11,
                    "logData": "0x0000000000000000000000000000000000000000000024a4b022d2419abed27e0000000000000000000000000000000000000000000000b18554d0c033a41305",
                    "logDecoded": true,
                    "operation": "EVENT",
                    "revert": false,
                    "status": true,
                    "topics": [
                        "0x1c411e9a96e071241c2f21f7726b17ae89e3cab4c78be50e062b03a9fffbbad1"
                    ]
                },
                "nodeType": 1
            },
            "12": {
                "event": {
                    "contract": "0x9cbfb60a09a9a33a10312da0f39977cbdb7fde23",
                    "decodedLog": {
                        "name": "Swap",
                        "params": [
                            {
                                "name": "sender",
                                "type": "address",
                                "value": "0x7a250d5630b4cf539739df2c5dacb4c659f2488d"
                            },
                            {
                                "name": "to",
                                "type": "address",
                                "value": "0x88cc7b7f5d5f349e4f62e3155475ddd4e07eaf08"
                            },
                            {
                                "name": "amount0In",
                                "type": "uint256",
                                "value": "56,396,094,827,136"
                            },
                            {
                                "name": "amount1In",
                                "type": "uint256",
                                "value": "30,930,004,000,000,000"
                            },
                            {
                                "name": "amount0Out",
                                "type": "uint256",
                                "value": "1,629,538,481,800,550,110"
                            },
                            {
                                "name": "amount1Out",
                                "type": "uint256",
                                "value": "0"
                            }
                        ],
                        "signature": "Swap(address,uint256,uint256,uint256,uint256,address)"
                    },
                    "id": 12,
                    "logData": "0x0000000000000000000000000000000000000000000000000000334abd32ea80000000000000000000000000000000000000000000000000006de2acbd524800000000000000000000000000000000000000000000000000169d489d938d16de0000000000000000000000000000000000000000000000000000000000000000",
                    "logDecoded": true,
                    "operation": "EVENT",
                    "revert": false,
                    "status": true,
                    "topics": [
                        "0xd78ad95fa46c994b6551d0da85fc275fe613ce37657fb8d5e3d130840159d822",
                        "0x0000000000000000000000007a250d5630b4cf539739df2c5dacb4c659f2488d",
                        "0x00000000000000000000000088cc7b7f5d5f349e4f62e3155475ddd4e07eaf08"
                    ]
                },
                "nodeType": 1
            },
            "2": {
                "invocation": {
                    "address": "0xc02aaa39b223fe8d0a0e5c4f27ead9083c756cc2",
                    "callData": "0x",
                    "decodedMethod": {
                        "callParams": [],
                        "constructorArguments": "",
                        "name": "deposit",
                        "returnParams": [],
                        "signature": "deposit()"
                    },
                    "errorInfo": "",
                    "fromAddress": "0x7a250d5630b4cf539739df2c5dacb4c659f2488d",
                    "gasUsed": 23974,
                    "id": 2,
                    "methodDecoded": true,
                    "operation": "CALL",
                    "output": "",
                    "revert": false,
                    "revertMessage": "",
                    "selector": "0xd0e30db0",
                    "status": true,
                    "value": "0.030930004"
                },
                "nodeType": 0
            },
            "3": {
                "event": {
                    "contract": "0xc02aaa39b223fe8d0a0e5c4f27ead9083c756cc2",
                    "decodedLog": {
                        "name": "Deposit",
                        "params": [
                            {
                                "name": "dst",
                                "type": "address",
                                "value": "0x7a250d5630b4cf539739df2c5dacb4c659f2488d"
                            },
                            {
                                "name": "wad",
                                "type": "uint256",
                                "value": "30,930,004,000,000,000"
                            }
                        ],
                        "signature": "Deposit(address,uint256)"
                    },
                    "id": 3,
                    "logData": "0x000000000000000000000000000000000000000000000000006de2acbd524800",
                    "logDecoded": true,
                    "operation": "EVENT",
                    "revert": false,
                    "status": true,
                    "topics": [
                        "0xe1fffcc4923d04b559f4d29a8bfc6cda04eb5b0d3c460751c2402c5c5cc9109c",
                        "0x0000000000000000000000007a250d5630b4cf539739df2c5dacb4c659f2488d"
                    ]
                },
                "nodeType": 1
            },
            "4": {
                "invocation": {
                    "address": "0xc02aaa39b223fe8d0a0e5c4f27ead9083c756cc2",
                    "callData": "0x0000000000000000000000009cbfb60a09a9a33a10312da0f39977cbdb7fde23000000000000000000000000000000000000000000000000006de2acbd524800",
                    "decodedMethod": {
                        "callParams": [
                            {
                                "name": "dst",
                                "type": "address",
                                "value": "0x9cbfb60a09a9a33a10312da0f39977cbdb7fde23"
                            },
                            {
                                "decimalAvailable": true,
                                "name": "wad",
                                "type": "uint256",
                                "value": "30,930,004,000,000,000"
                            }
                        ],
                        "constructorArguments": "",
                        "name": "transfer",
                        "returnParams": [
                            {
                                "name": "",
                                "type": "bool",
                                "value": true
                            }
                        ],
                        "signature": "transfer(address,uint256)"
                    },
                    "errorInfo": "",
                    "fromAddress": "0x7a250d5630b4cf539739df2c5dacb4c659f2488d",
                    "gasUsed": 8062,
                    "id": 4,
                    "methodDecoded": true,
                    "operation": "CALL",
                    "output": "0x0000000000000000000000000000000000000000000000000000000000000001",
                    "revert": false,
                    "revertMessage": "",
                    "selector": "0xa9059cbb",
                    "status": true,
                    "value": "0"
                },
                "nodeType": 0
            },
            "5": {
                "event": {
                    "contract": "0xc02aaa39b223fe8d0a0e5c4f27ead9083c756cc2",
                    "decodedLog": {
                        "name": "Transfer",
                        "params": [
                            {
                                "name": "src",
                                "type": "address",
                                "value": "0x7a250d5630b4cf539739df2c5dacb4c659f2488d"
                            },
                            {
                                "name": "dst",
                                "type": "address",
                                "value": "0x9cbfb60a09a9a33a10312da0f39977cbdb7fde23"
                            },
                            {
                                "decimalAvailable": true,
                                "name": "wad",
                                "type": "uint256",
                                "value": "30,930,004,000,000,000"
                            }
                        ],
                        "signature": "Transfer(address,address,uint256)"
                    },
                    "id": 5,
                    "logData": "0x000000000000000000000000000000000000000000000000006de2acbd524800",
                    "logDecoded": true,
                    "operation": "EVENT",
                    "revert": false,
                    "status": true,
                    "topics": [
                        "0xddf252ad1be2c89b69c2b068fc378daa952ba7f163c4a11628f55a4df523b3ef",
                        "0x0000000000000000000000007a250d5630b4cf539739df2c5dacb4c659f2488d",
                        "0x0000000000000000000000009cbfb60a09a9a33a10312da0f39977cbdb7fde23"
                    ]
                },
                "nodeType": 1
            },
            "6": {
                "invocation": {
                    "address": "0x9cbfb60a09a9a33a10312da0f39977cbdb7fde23",
                    "callData": "0x000000000000000000000000000000000000000000000000169d489d938d16de000000000000000000000000000000000000000000000000000000000000000000000000000000000000000088cc7b7f5d5f349e4f62e3155475ddd4e07eaf0800000000000000000000000000000000000000000000000000000000000000800000000000000000000000000000000000000000000000000000000000000000",
                    "decodedMethod": {
                        "callParams": [
                            {
                                "name": "amount0Out",
                                "type": "uint256",
                                "value": "1,629,538,481,800,550,110"
                            },
                            {
                                "name": "amount1Out",
                                "type": "uint256",
                                "value": "0"
                            },
                            {
                                "name": "to",
                                "type": "address",
                                "value": "0x88cc7b7f5d5f349e4f62e3155475ddd4e07eaf08"
                            },
                            {
                                "name": "data",
                                "type": "bytes",
                                "value": "0x"
                            }
                        ],
                        "constructorArguments": "",
                        "name": "swap",
                        "returnParams": [],
                        "signature": "swap(uint256,uint256,address,bytes)"
                    },
                    "errorInfo": "",
                    "fromAddress": "0x7a250d5630b4cf539739df2c5dacb4c659f2488d",
                    "gasUsed": 64227,
                    "id": 6,
                    "methodDecoded": true,
                    "operation": "CALL",
                    "output": "",
                    "revert": false,
                    "revertMessage": "",
                    "selector": "0x022c0d9f",
                    "status": true,
                    "value": "0"
                },
                "nodeType": 0
            },
            "7": {
                "invocation": {
                    "address": "0x8b3192f5eebd8579568a2ed41e6feb402f93f73f",
                    "callData": "0x00000000000000000000000088cc7b7f5d5f349e4f62e3155475ddd4e07eaf08000000000000000000000000000000000000000000000000169d489d938d16de",
                    "decodedMethod": {
                        "callParams": [
                            {
                                "name": "recipient",
                                "type": "address",
                                "value": "0x88cc7b7f5d5f349e4f62e3155475ddd4e07eaf08"
                            },
                            {
                                "decimalAvailable": true,
                                "name": "amount",
                                "type": "uint256",
                                "value": "1,629,538,481,800,550,110"
                            }
                        ],
                        "constructorArguments": "",
                        "name": "transfer",
                        "returnParams": [
                            {
                                "name": "",
                                "type": "bool",
                                "value": true
                            }
                        ],
                        "signature": "transfer(address,uint256)"
                    },
                    "errorInfo": "",
                    "fromAddress": "0x9cbfb60a09a9a33a10312da0f39977cbdb7fde23",
                    "gasUsed": 38017,
                    "id": 7,
                    "methodDecoded": true,
                    "operation": "CALL",
                    "output": "0x0000000000000000000000000000000000000000000000000000000000000001",
                    "revert": false,
                    "revertMessage": "",
                    "selector": "0xa9059cbb",
                    "status": true,
                    "value": "0"
                },
                "nodeType": 0
            },
            "8": {
                "event": {
                    "contract": "0x8b3192f5eebd8579568a2ed41e6feb402f93f73f",
                    "decodedLog": {
                        "name": "Transfer",
                        "params": [
                            {
                                "name": "from",
                                "type": "address",
                                "value": "0x9cbfb60a09a9a33a10312da0f39977cbdb7fde23"
                            },
                            {
                                "name": "to",
                                "type": "address",
                                "value": "0x88cc7b7f5d5f349e4f62e3155475ddd4e07eaf08"
                            },
                            {
                                "decimalAvailable": true,
                                "name": "value",
                                "type": "uint256",
                                "value": "1,596,947,712,164,539,108"
                            }
                        ],
                        "signature": "Transfer(address,address,uint256)"
                    },
                    "id": 8,
                    "logData": "0x00000000000000000000000000000000000000000000000016297f7bb470aae4",
                    "logDecoded": true,
                    "operation": "EVENT",
                    "revert": false,
                    "status": true,
                    "topics": [
                        "0xddf252ad1be2c89b69c2b068fc378daa952ba7f163c4a11628f55a4df523b3ef",
                        "0x0000000000000000000000009cbfb60a09a9a33a10312da0f39977cbdb7fde23",
                        "0x00000000000000000000000088cc7b7f5d5f349e4f62e3155475ddd4e07eaf08"
                    ]
                },
                "nodeType": 1
            },
            "9": {
                "invocation": {
                    "address": "0x8b3192f5eebd8579568a2ed41e6feb402f93f73f",
                    "callData": "0x0000000000000000000000009cbfb60a09a9a33a10312da0f39977cbdb7fde23",
                    "decodedMethod": {
                        "callParams": [
                            {
                                "name": "account",
                                "type": "address",
                                "value": "0x9cbfb60a09a9a33a10312da0f39977cbdb7fde23"
                            }
                        ],
                        "constructorArguments": "",
                        "name": "balanceOf",
                        "returnParams": [
                            {
                                "decimalAvailable": true,
                                "name": "",
                                "type": "uint256",
                                "value": "173,043,151,349,274,688,541,310"
                            }
                        ],
                        "signature": "balanceOf(address)"
                    },
                    "errorInfo": "",
                    "fromAddress": "0x9cbfb60a09a9a33a10312da0f39977cbdb7fde23",
                    "gasUsed": 2272,
                    "id": 9,
                    "methodDecoded": true,
                    "operation": "STATICCALL",
                    "output": "0x0000000000000000000000000000000000000000000024a4b022d2419abed27e",
                    "revert": false,
                    "revertMessage": "",
                    "selector": "0x70a08231",
                    "status": true,
                    "value": "0"
                },
                "nodeType": 0
            }
        },
        "gasFlame": [
            {
                "children": [
                    {
                        "children": [
                            {
                                "children": [],
                                "depth": 0,
                                "name": "Initial Gas",
                                "value": 22848
                            },
                            {
                                "children": [
                                    {
                                        "children": [],
                                        "depth": 1,
                                        "name": "getReserves",
                                        "value": 2504
                                    },
                                    {
                                        "children": [],
                                        "depth": 1,
                                        "name": "deposit",
                                        "value": 23974
                                    },
                                    {
                                        "children": [],
                                        "depth": 1,
                                        "name": "transfer",
                                        "value": 8062
                                    },
                                    {
                                        "children": [
                                            {
                                                "children": [],
                                                "depth": 2,
                                                "name": "transfer",
                                                "value": 38017
                                            },
                                            {
                                                "children": [],
                                                "depth": 2,
                                                "name": "balanceOf",
                                                "value": 2272
                                            },
                                            {
                                                "children": [],
                                                "depth": 2,
                                                "name": "balanceOf",
                                                "value": 534
                                            }
                                        ],
                                        "depth": 1,
                                        "name": "swap",
                                        "value": 64227
                                    }
                                ],
                                "depth": 0,
                                "name": "Executed Gas",
                                "value": 118032
                            }
                        ],
                        "depth": -1,
                        "name": "Actual Gas Used",
                        "value": 118180
                    },
                    {
                        "children": [],
                        "depth": -1,
                        "name": "Refunded Gas",
                        "value": 22700
                    }
                ],
                "depth": -2,
                "name": "Total Gas",
                "value": 140880
            }
        ],
        "isConfirmed": true,
        "mainTrace": [
            {
                "children": [
                    {
                        "children": [
                            {
                                "children": [],
                                "depth": 1,
                                "id": 1,
                                "order": 1
                            },
                            {
                                "children": [
                                    {
                                        "children": [],
                                        "depth": 2,
                                        "id": 3,
                                        "order": 3
                                    }
                                ],
                                "depth": 1,
                                "id": 2,
                                "order": 2
                            },
                            {
                                "children": [
                                    {
                                        "children": [],
                                        "depth": 2,
                                        "id": 5,
                                        "order": 5
                                    }
                                ],
                                "depth": 1,
                                "id": 4,
                                "order": 4
                            },
                            {
                                "children": [
                                    {
                                        "children": [
                                            {
                                                "children": [],
                                                "depth": 3,
                                                "id": 8,
                                                "order": 8
                                            }
                                        ],
                                        "depth": 2,
                                        "id": 7,
                                        "order": 7
                                    },
                                    {
                                        "children": [],
                                        "depth": 2,
                                        "id": 9,
                                        "order": 9
                                    },
                                    {
                                        "children": [],
                                        "depth": 2,
                                        "id": 10,
                                        "order": 10
                                    },
                                    {
                                        "children": [],
                                        "depth": 2,
                                        "id": 11,
                                        "order": 11
                                    },
                                    {
                                        "children": [],
                                        "depth": 2,
                                        "id": 12,
                                        "order": 12
                                    }
                                ],
                                "depth": 1,
                                "id": 6,
                                "order": 6
                            }
                        ],
                        "depth": 0,
                        "id": 0,
                        "order": 0
                    }
                ],
                "depth": -1,
                "id": -1,
                "order": -1
            }
        ],
        "mainTraceNodeCount": 13,
        "parentIdMap": {
            "0": -1,
            "1": 0,
            "10": 6,
            "11": 6,
            "12": 6,
            "2": 0,
            "3": 2,
            "4": 0,
            "5": 4,
            "6": 0,
            "7": 6,
            "8": 7,
            "9": 6
        },
        "tidyTrace": [
            {
                "children": [
                    {
                        "children": [
                            {
                                "children": [
                                    {
                                        "children": [],
                                        "depth": 2,
                                        "id": 3,
                                        "order": 3
                                    }
                                ],
                                "depth": 1,
                                "id": 2,
                                "order": 2
                            },
                            {
                                "children": [
                                    {
                                        "children": [],
                                        "depth": 2,
                                        "id": 5,
                                        "order": 5
                                    }
                                ],
                                "depth": 1,
                                "id": 4,
                                "order": 4
                            },
                            {
                                "children": [
                                    {
                                        "children": [
                                            {
                                                "children": [],
                                                "depth": 3,
                                                "id": 8,
                                                "order": 8
                                            }
                                        ],
                                        "depth": 2,
                                        "id": 7,
                                        "order": 7
                                    },
                                    {
                                        "children": [],
                                        "depth": 2,
                                        "id": 11,
                                        "order": 11
                                    },
                                    {
                                        "children": [],
                                        "depth": 2,
                                        "id": 12,
                                        "order": 12
                                    }
                                ],
                                "depth": 1,
                                "id": 6,
                                "order": 6
                            }
                        ],
                        "depth": 0,
                        "id": 0,
                        "order": 0
                    }
                ],
                "depth": -1,
                "id": -1,
                "order": -1
            }
        ],
        "tidyTraceNodeCount": 10
    },
    "state_change": {
        "stateChanges": [
            {
                "address": "0x8b3192f5eebd8579568a2ed41e6feb402f93f73f",
                "erc": "ERC-20",
                "slots": [
                    {
                        "current": "0x0000008c939795fad909fea1287b3bca79fd1de7c78c93a7450f0e6834e07e90",
                        "key": "0x0e15a9e49df6c9e42cf4d0fcedfb21e361418d1ae5381dad9173427cfc8b9816",
                        "prev": "0x00000052805238392481a6e64f3d484919a2754c72b5dfc55a9661a543c0fd54"
                    },
                    {
                        "current": "0xd8c2c24509f410ffa590f67ffb8cb64df76eea0e8c052eb7d32173c0a934a694",
                        "key": "0x0000000000000000000000000000000000000000000000000000000000000006",
                        "prev": "0xd8c2c246395df8ca2169f287f35585830afee74c80f909cdf7c863b818961eea"
                    },
                    {
                        "current": "0x0000000000000000000000000000000000000000000dc12509178c920f1442b0",
                        "key": "0x0000000000000000000000000000000000000000000000000000000000000007",
                        "prev": "0x0000000000000000000000000000000000000000000dc12508a3c3702ff7d6b6"
                    },
                    {
                        "current": "0x006005e090cbc929c0872db9a42c42264f89a09b82571138a860ee1eee830b7e",
                        "key": "0x38402a1112572b94f3ae0210c4d91db96dd5779e685b8af0cb890333acd7b505",
                        "prev": "0x0060061bd37b0eb5f0e8817c753304dcc3744674cc21a030b7808ad94f040510"
                    }
                ],
                "storageVariables": [
                    {
                        "name": "_rTotal",
                        "type": "uint256",
                        "value": {
                            "current": "98043684424628357570089018321514244755897549819956583561305578432247912244884",
                            "prev": "98043684456581548913991036134717636218264410552711181396249660836298517520106",
                            "typeTag": 1
                        }
                    },
                    {
                        "name": "_tFeeTotal",
                        "type": "uint256",
                        "value": {
                            "current": "16628135570861577802629808",
                            "prev": "16628135538270808166618806",
                            "typeTag": 1
                        }
                    },
                    {
                        "name": "_rOwned",
                        "type": "mapping(address => uint256)",
                        "value": {
                            "pairs": [
                                {
                                    "key": "0x88cc7b7f5d5f349e4f62e3155475ddd4e07eaf08",
                                    "value": {
                                        "current": "3789935799081772163477132099474814664817098124499090881786049055456912",
                                        "prev": "2224229423230573280825797472160683597513019217115067222161128341699924",
                                        "typeTag": 1
                                    }
                                },
                                {
                                    "key": "0x9cbfb60a09a9a33a10312da0f39977cbdb7fde23",
                                    "value": {
                                        "current": "169657881227314903387374878780859929144294598597037181584959654658689928062",
                                        "prev": "169659478886882098488275343318878705642222635430542400552701683630008960272",
                                        "typeTag": 1
                                    }
                                }
                            ],
                            "typeTag": 4
                        }
                    }
                ]
            },
            {
                "address": "0x9cbfb60a09a9a33a10312da0f39977cbdb7fde23",
                "erc": "ERC-20",
                "slots": [
                    {
                        "current": "0x617789c10000000000b18554d0c033a413050000000024a4b022d2419abed27e",
                        "key": "0x0000000000000000000000000000000000000000000000000000000000000008",
                        "prev": "0x617789c10000000000b184e6ee137651cb050000000024a4c6bfe7947118fedc"
                    }
                ],
                "storageVariables": [
                    {
                        "name": "reserve0",
                        "type": "uint112",
                        "value": {
                            "current": "173043151349274688541310",
                            "prev": "173044780831360394264284",
                            "typeTag": 1
                        }
                    },
                    {
                        "name": "reserve1",
                        "type": "uint112",
                        "value": {
                            "current": "3274681234475597435653",
                            "prev": "3274650304471597435653",
                            "typeTag": 1
                        }
                    },
                    {
                        "name": "blockTimestampLast",
                        "type": "uint32",
                        "value": {
                            "current": "1635224001",
                            "prev": "1635224001",
                            "typeTag": 1
                        }
                    }
                ]
            },
            {
                "address": "0xc02aaa39b223fe8d0a0e5c4f27ead9083c756cc2",
                "erc": "ERC-20",
                "slots": [
                    {
                        "current": "0x0000000000000000000000000000000000000000000000b18554d0c033a41305",
                        "key": "0xdf29a6c4d759a2eb5672c49e042e19a1c09dda4c923ce4e135a3d384e03afd61",
                        "prev": "0x0000000000000000000000000000000000000000000000b184e6ee137651cb05"
                    }
                ],
                "storageVariables": [
                    {
                        "name": "balanceOf",
                        "type": "mapping(address => uint256)",
                        "value": {
                            "pairs": [
                                {
                                    "key": "0x9cbfb60a09a9a33a10312da0f39977cbdb7fde23",
                                    "value": {
                                        "current": "3274681234475597435653",
                                        "prev": "3274650304471597435653",
                                        "typeTag": 1
                                    }
                                }
                            ],
                            "typeTag": 4
                        }
                    }
                ]
            }
        ]
    }
}