{
    "balance_change": {
        "balanceChanges": [
            {
                "account": "0xf8c6e1c0bd9e17077d01f0634ec5dd134072b3d8",
                "assets": [
                    {
                        "address": "0xeeeeeeeeeeeeeeeeeeeeeeeeeeeeeeeeeeeeeeee",
                        "amount": "0.006",
                        "iconUrl": "https://assets.blocksec.com/image/1663669189317-3.png",
                        "isERC1155": false,
                        "isERC721": false,
                        "sign": false,
                        "value": ""
                    }
                ]
            },
            {
                "account": "0x97d8dea5e8429dd6a1aec02f47f8a426714fd386",
                "assets": [
                    {
                        "address": "0xeeeeeeeeeeeeeeeeeeeeeeeeeeeeeeeeeeeeeeee",
                        "amount": "0.006",
                        "iconUrl": "https://assets.blocksec.com/image/1663669189317-3.png",
                        "isERC1155": false,
                        "isERC721": false,
                        "sign": true,
                        "value": ""
                    }
                ]
            }
        ]
    },
    "profile": {
        "basic_info": {
            "baseFee": "",
            "blockNumber": 10532290,
            "callData": "0x4fe678aa000000000000000000000000000000000000000000000000000000000000004000000000000000000000000000000000000000000000000000000000000000800000000000000000000000000000000000000000000000000000000000000001000000000000000000000000000000000000000000000000001550f7dca70000000000000000000000000000000000000000000000000000000000000000000100000000000000000000000097d8dea5e8429dd6a1aec02f47f8a426714fd386",
            "debugEnable": true,
            "errorInfo": "",
            "eventCount": 0,
            "feeRecipient": "0x5a0b54d5dc17e0aadc383d2db43b0a0d3e029c4c",
            "formatValue": "0.006",
            "gasLimit": 42874,
            "gasPrice": "46",
            "gasUsed": 30791,
            "intTxnCount": 1,
            "internalRevert": false,
            "internalRevertMessage": "",
            "isContractCreation": false,
            "isFlashloan": false,
            "maxFee": "",
            "nonce": 0,
            "overwritedBlockNumber": -1,
            "priorityFee": "",
            "receiver": "0x8e46a1c546857679d5e62133fffb9b82d8f72061",
            "revertMessage": "",
            "sender": "0xf8c6e1c0bd9e17077d01f0634ec5dd134072b3d8",
            "simulationEnable": true,
            "sourceTxnHash": "0xc429637d3476ab36656cb7e1eadea704d1702c6da0acd73a3b5fe255573af219",
            "status": true,
            "timestamp": "2020-07-26T02:14:37Z",
            "transactionFee": "0.001416386",
            "txnHash": "0xc429637d3476ab36656cb7e1eadea704d1702c6da0acd73a3b5fe255573af219",
            "txnIndex": 114,
            "type": 0,
            "value": "6000000000000000"
        },
        "fund_flow": [
            {
                "amount": "0.006",
                "from": "0xf8c6e1c0bd9e17077d01f0634ec5dd134072b3d8",
                "id": 1,
                "isERC1155": false,
                "isERC721": false,
                "isReverted": false,
                "order": 1,
                "to": "0x8e46a1c546857679d5e62133fffb9b82d8f72061",
                "token": "0xeeeeeeeeeeeeeeeeeeeeeeeeeeeeeeeeeeeeeeee"
            },
            {
                "amount": "0.006",
                "from": "0x8e46a1c546857679d5e62133fffb9b82d8f72061",
                "id": 2,
                "isERC1155": false,
                "isERC721": false,
                "isReverted": false,
                "order": 2,
                "to": "0x97d8dea5e8429dd6a1aec02f47f8a426714fd386",
                "token": "0xeeeeeeeeeeeeeeeeeeeeeeeeeeeeeeeeeeeeeeee"
            }
        ],
        "token_infos": [
            {
                "address": "0xc02aaa39b223fe8d0a0e5c4f27ead9083c756cc2",
                "decimals": 18
            },
            {
                "address": "0xeeeeeeeeeeeeeeeeeeeeeeeeeeeeeeeeeeeeeeee",
                "decimals": 18
            }
        ]
    },
    "address_label": {
        "labels": [
            {
                "address": "0xeeeeeeeeeeeeeeeeeeeeeeeeeeeeeeeeeeeeeeee",
                "label": "Ether"
            },
            {
                "address": "0x8e46a1c546857679d5e62133fffb9b82d8f72061",
                "label": "AutoEtherBot"
            },
            {
                "address": "0x0000000000000000000000000000000000000001",
                "label": "Precompiled"
            },
            {
                "address": "0x0000000000000000000000000000000000000002",
                "label": "Precompiled"
            },
            {
                "address": "0x0000000000000000000000000000000000000003",
                "label": "Precompiled"
            },
            {
                "address": "0x0000000000000000000000000000000000000004",
                "label": "Precompiled"
            }
        ]
    },
    "trace": {
        "accountLabels": null,
        "dataMap": {
            "-1": {
                "invocation": {
                    "address": "0xf8c6e1c0bd9e17077d01f0634ec5dd134072b3d8",
                    "callData": "",
                    "decodedMethod": null,
                    "errorInfo": "",
                    "fromAddress": "",
                    "gasUsed": 0,
                    "id": -1,
                    "methodDecoded": false,
                    "operation": "",
                    "output": "",
                    "revert": false,
                    "revertMessage": "",
                    "selector": "",
                    "status": false,
                    "value": ""
                },
                "nodeType": 0
            },
            "0": {
                "invocation": {
                    "address": "0x8e46a1c546857679d5e62133fffb9b82d8f72061",
                    "callData": "0x000000000000000000000000000000000000000000000000000000000000004000000000000000000000000000000000000000000000000000000000000000800000000000000000000000000000000000000000000000000000000000000001000000000000000000000000000000000000000000000000001550f7dca70000000000000000000000000000000000000000000000000000000000000000000100000000000000000000000097d8dea5e8429dd6a1aec02f47f8a426714fd386",
                    "decodedMethod": {
                        "callParams": [
                            {
                                "name": "amounts",
                                "type": "uint256[]",
                                "value": [
                                    "6,000,000,000,000,000"
                                ]
                            },
                            {
                                "name": "receivers",
                                "type": "address[]",
                                "value": [
                                    "0x97d8dea5e8429dd6a1aec02f47f8a426714fd386"
                                ]
                            }
                        ],
                        "constructorArguments": "",
                        "name": "multisend",
                        "returnParams": [],
                        "signature": "multisend(uint256[],address[])"
                    },
                    "errorInfo": "",
                    "fromAddress": "0xf8c6e1c0bd9e17077d01f0634ec5dd134072b3d8",
                    "gasUsed": 30791,
                    "id": 0,
                    "methodDecoded": true,
                    "operation": "CALL",
                    "output": "",
                    "revert": false,
                    "revertMessage": "",
                    "selector": "0x4fe678aa",
                    "status": true,
                    "value": "0.006"
                },
                "nodeType": 0
            },
            "1": {
                "invocation": {
                    "address": "0x97d8dea5e8429dd6a1aec02f47f8a426714fd386",
                    "callData": "0x",
                    "decodedMethod": null,
                    "errorInfo": "",
                    "fromAddress": "0x8e46a1c546857679d5e62133fffb9b82d8f72061",
                    "gasUsed": 0,
                    "id": 1,
                    "methodDecoded": false,
                    "operation": "CALL",
                    "output": "",
                    "revert": false,
                    "revertMessage": "",
                    "selector": "fallback",
                    "status": true,
                    "value": "0.006"
                },
                "nodeType": 0
            }
        },
        "gasFlame": [
            {
                "children": [
                    {
                        "children": [
                            {
                                "children": [],
                                "depth": 0,
                                "name": "Initial Gas",
                                "value": 22180
                            },
                            {
                                "children": [
                                    {
                                        "children": [],
                                        "depth": 1,
                                        "name": "fallback",
                                        "value": 0
                                    }
                                ],
                                "depth": 0,
                                "name": "Executed Gas",
                                "value": 8611
                            }
                        ],
                        "depth": -1,
                        "name": "Actual Gas Used",
                        "value": 30791
                    },
                    {
                        "children": [],
                        "depth": -1,
                        "name": "Refunded Gas",
                        "value": 0
                    }
                ],
                "depth": -2,
                "name": "Total Gas",
                "value": 30791
            }
        ],
        "isConfirmed": true,
        "mainTrace": [
            {
                "children": [
                    {
                        "children": [
                            {
                                "children": [],
                                "depth": 1,
                                "id": 1,
                                "order": 1
                            }
                        ],
                        "depth": 0,
                        "id": 0,
                        "order": 0
                    }
                ],
                "depth": -1,
                "id": -1,
                "order": -1
            }
        ],
        "mainTraceNodeCount": 2,
        "parentIdMap": {
            "0": -1,
            "1": 0
        },
        "tidyTrace": [
            {
                "children": [
                    {
                        "children": [
                            {
                                "children": [],
                                "depth": 1,
                                "id": 1,
                                "order": 1
                            }
                        ],
                        "depth": 0,
                        "id": 0,
                        "order": 0
                    }
                ],
                "depth": -1,
                "id": -1,
                "order": -1
            }
        ],
        "tidyTraceNodeCount": 2
    },
    "state_change": {
        "stateChanges": []
    }
}