{
    "balance_change": {
        "balanceChanges": []
    },
    "profile": {
        "basic_info": {
            "baseFee": "15.179289171",
            "blockNumber": 16613900,
            "callData": "0xa22cb465000000000000000000000000f42aa99f011a1fa7cda90e5e98b277e306bca83e0000000000000000000000000000000000000000000000000000000000000000",
            "debugEnable": true,
            "errorInfo": "",
            "eventCount": 1,
            "feeRecipient": "0xdafea492d9c6733ae3d56b7ed1adb60692c98bc5",
            "formatValue": "0",
            "gasLimit": 29680,
            "gasPrice": "16.179289171",
            "gasUsed": 24880,
            "intTxnCount": 0,
            "internalRevert": false,
            "internalRevertMessage": "",
            "isContractCreation": false,
            "isFlashloan": false,
            "maxFee": "20.802597545",
            "nonce": 245,
            "overwritedBlockNumber": -1,
            "priorityFee": "1",
            "receiver": "0x60e4d786628fea6478f785a6d7e704777c86a7c6",
            "revertMessage": "",
            "sender": "0xa02d00397b74b4eca509cf73347e5346fc5ff0b7",
            "simulationEnable": true,
            "sourceTxnHash": "0xc402385126c76182b99421af1a781003f362cd3de47fcb8cc75963faa558fe83",
            "status": true,
            "timestamp": "2023-02-12T16:33:23Z",
            "transactionFee": "0.00040254071457448",
            "txnHash": "0xc402385126c76182b99421af1a781003f362cd3de47fcb8cc75963faa558fe83",
            "txnIndex": 79,
            "type": 2,
            "value": "0"
        },
        "fund_flow": [],
        "token_infos": [
            {
                "address": "0xc02aaa39b223fe8d0a0e5c4f27ead9083c756cc2",
                "decimals": 18
            },
            {
                "address": "0xeeeeeeeeeeeeeeeeeeeeeeeeeeeeeeeeeeeeeeee",
                "decimals": 18
            }
        ]
    },
    "address_label": {
        "labels": [
            {
                "address": "0xf42aa99f011a1fa7cda90e5e98b277e306bca83e",
                "label": "LooksRare: Transfer Manager ERC 721"
            },
            {
                "address": "0x60e4d786628fea6478f785a6d7e704777c86a7c6",
                "label": "Mutant Ape Yacht Club: MAYC Token"
            },
            {
                "address": "0x0000000000000000000000000000000000000001",
                "label": "Precompiled"
            },
            {
                "address": "0x0000000000000000000000000000000000000002",
                "label": "Precompiled"
            },
            {
                "address": "0x0000000000000000000000000000000000000003",
                "label": "Precompiled"
            },
            {
                "address": "0x0000000000000000000000000000000000000004",
                "label": "Precompiled"
            },
            {
                "address": "0xeeeeeeeeeeeeeeeeeeeeeeeeeeeeeeeeeeeeeeee",
                "label": "Ether"
            }
        ]
    },
    "trace": {
        "accountLabels": null,
        "dataMap": {
            "-1": {
                "invocation": {
                    "address": "0xa02d00397b74b4eca509cf73347e5346fc5ff0b7",
                    "callData": "",
                    "decodedMethod": null,
                    "errorInfo": "",
                    "fromAddress": "",
                    "gasUsed": 0,
                    "id": -1,
                    "methodDecoded": false,
                    "operation": "",
                    "output": "",
                    "revert": false,
                    "revertMessage": "",
                    "selector": "",
                    "status": false,
                    "value": ""
                },
                "nodeType": 0
            },
            "0": {
                "invocation": {
                    "address": "0x60e4d786628fea6478f785a6d7e704777c86a7c6",
                    "callData": "0x000000000000000000000000f42aa99f011a1fa7cda90e5e98b277e306bca83e0000000000000000000000000000000000000000000000000000000000000000",
                    "decodedMethod": {
                        "callParams": [
                            {
                                "name": "operator",
                                "type": "address",
                                "value": "0xf42aa99f011a1fa7cda90e5e98b277e306bca83e"
                            },
                            {
                                "name": "approved",
                                "type": "bool",
                                "value": false
                            }
                        ],
                        "constructorArguments": "",
                        "name": "setApprovalForAll",
                        "returnParams": [],
                        "signature": "setApprovalForAll(address,bool)"
                    },
                    "errorInfo": "",
                    "fromAddress": "0xa02d00397b74b4eca509cf73347e5346fc5ff0b7",
                    "gasUsed": 24880,
                    "id": 0,
                    "methodDecoded": true,
                    "operation": "CALL",
                    "output": "",
                    "revert": false,
                    "revertMessage": "",
                    "selector": "0xa22cb465",
                    "status": true,
                    "value": "0"
                },
                "nodeType": 0
            },
            "1": {
                "event": {
                    "contract": "0x60e4d786628fea6478f785a6d7e704777c86a7c6",
                    "decodedLog": {
                        "name": "ApprovalForAll",
                        "params": [
                            {
                                "name": "owner",
                                "type": "address",
                                "value": "0xa02d00397b74b4eca509cf73347e5346fc5ff0b7"
                            },
                            {
                                "name": "operator",
                                "type": "address",
                                "value": "0xf42aa99f011a1fa7cda90e5e98b277e306bca83e"
                            },
                            {
                                "name": "approved",
                                "type": "bool",
                                "value": false
                            }
                        ],
                        "signature": "ApprovalForAll(address,address,bool)"
                    },
                    "id": 1,
                    "logData": "0x0000000000000000000000000000000000000000000000000000000000000000",
                    "logDecoded": true,
                    "operation": "EVENT",
                    "revert": false,
                    "status": true,
                    "topics": [
                        "0x17307eab39ab6107e8899845ad3d59bd9653f200f220920489ca2b5937696c31",
                        "0x000000000000000000000000a02d00397b74b4eca509cf73347e5346fc5ff0b7",
                        "0x000000000000000000000000f42aa99f011a1fa7cda90e5e98b277e306bca83e"
                    ]
                },
                "nodeType": 1
            }
        },
        "gasFlame": [
            {
                "children": [
                    {
                        "children": [
                            {
                                "children": [],
                                "depth": 0,
                                "name": "Initial Gas",
                                "value": 21560
                            },
                            {
                                "children": [],
                                "depth": 0,
                                "name": "Executed Gas",
                                "value": 8120
                            }
                        ],
                        "depth": -1,
                        "name": "Actual Gas Used",
                        "value": 24880
                    },
                    {
                        "children": [],
                        "depth": -1,
                        "name": "Refunded Gas",
                        "value": 4800
                    }
                ],
                "depth": -2,
                "name": "Total Gas",
                "value": 29680
            }
        ],
        "isConfirmed": true,
        "mainTrace": [
            {
                "children": [
                    {
                        "children": [
                            {
                                "children": [],
                                "depth": 1,
                                "id": 1,
                                "order": 1
                            }
                        ],
                        "depth": 0,
                        "id": 0,
                        "order": 0
                    }
                ],
                "depth": -1,
                "id": -1,
                "order": -1
            }
        ],
        "mainTraceNodeCount": 2,
        "parentIdMap": {
            "0": -1,
            "1": 0
        },
        "tidyTrace": [
            {
                "children": [
                    {
                        "children": [
                            {
                                "children": [],
                                "depth": 1,
                                "id": 1,
                                "order": 1
                            }
                        ],
                        "depth": 0,
                        "id": 0,
                        "order": 0
                    }
                ],
                "depth": -1,
                "id": -1,
                "order": -1
            }
        ],
        "tidyTraceNodeCount": 2
    },
    "state_change": {
        "stateChanges": [
            {
                "address": "0x60e4d786628fea6478f785a6d7e704777c86a7c6",
                "erc": "ERC-721",
                "slots": [
                    {
                        "current": "0x0000000000000000000000000000000000000000000000000000000000000000",
                        "key": "0xebbf1195064a277b9243a97c4e10ac230e4833fb7354eac4af17461500e67945",
                        "prev": "0x0000000000000000000000000000000000000000000000000000000000000001"
                    }
                ],
                "storageVariables": [
                    {
                        "name": "_operatorApprovals",
                        "type": "mapping(address => mapping(address => bool))",
                        "value": {
                            "pairs": [
                                {
                                    "key": "0xa02d00397b74b4eca509cf73347e5346fc5ff0b7",
                                    "value": {
                                        "pairs": [
                                            {
                                                "key": "0xf42aa99f011a1fa7cda90e5e98b277e306bca83e",
                                                "value": {
                                                    "current": "false",
                                                    "prev": "true",
                                                    "typeTag": 1
                                                }
                                            }
                                        ],
                                        "typeTag": 4
                                    }
                                }
                            ],
                            "typeTag": 4
                        }
                    }
                ]
            }
        ]
    }
}