{
    "balance_change": {
        "balanceChanges": [
            {
                "account": "0x28c6c06298d514db089934071355e5743bf21d60",
                "assets": [
                    {
                        "address": "0x3845badade8e6dff049820680d1f14bd3903a5d0",
                        "amount": "982",
                        "iconUrl": "https://assets.blocksec.com/icon/7cbe910ee62b95d006cdf0f6bff21064470697470c1007c6bbb0744d19bfd504.png",
                        "isERC1155": false,
                        "isERC721": false,
                        "sign": false,
                        "value": "450.83620000000000794"
                    }
                ]
            },
            {
                "account": "0xcd3cd0ec22ed949f7d99692b4bccb03ab6c6b2ce",
                "assets": [
                    {
                        "address": "0x3845badade8e6dff049820680d1f14bd3903a5d0",
                        "amount": "982",
                        "iconUrl": "https://assets.blocksec.com/icon/7cbe910ee62b95d006cdf0f6bff21064470697470c1007c6bbb0744d19bfd504.png",
                        "isERC1155": false,
                        "isERC721": false,
                        "sign": true,
                        "value": "450.83620000000000794"
                    }
                ]
            }
        ]
    },
    "profile": {
        "basic_info": {
            "baseFee": "18.716304147",
            "blockNumber": 19211628,
            "callData": "0xa9059cbb000000000000000000000000cd3cd0ec22ed949f7d99692b4bccb03ab6c6b2ce0000000000000000000000000000000000000000000000353bfcd52419980000",
            "debugEnable": true,
            "errorInfo": "",
            "eventCount": 1,
            "feeRecipient": "0x95222290dd7278aa3ddd389cc1e1d165cc4bafe5",
            "formatValue": "0",
            "gasLimit": 207128,
            "gasPrice": "20.716304147",
            "gasUsed": 51324,
            "intTxnCount": 0,
            "internalRevert": false,
            "internalRevertMessage": "",
            "isContractCreation": false,
            "isFlashloan": false,
            "maxFee": "102",
            "nonce": 8937179,
            "overwritedBlockNumber": -1,
            "priorityFee": "2",
            "receiver": "0x3845badade8e6dff049820680d1f14bd3903a5d0",
            "revertMessage": "",
            "sender": "0x28c6c06298d514db089934071355e5743bf21d60",
            "simulationEnable": true,
            "sourceTxnHash": "0xc525f57d8d75ce4dea2f19727df216a40794d326ee052e43a5510cd539cfdc02",
            "status": true,
            "timestamp": "2024-02-12T11:24:11Z",
            "transactionFee": "0.001063243594040628",
            "txnHash": "0xc525f57d8d75ce4dea2f19727df216a40794d326ee052e43a5510cd539cfdc02",
            "txnIndex": 38,
            "type": 2,
            "value": "0"
        },
        "fund_flow": [
            {
                "amount": "982",
                "from": "0x28c6c06298d514db089934071355e5743bf21d60",
                "id": 1,
                "isERC1155": false,
                "isERC721": false,
                "isReverted": false,
                "order": 1,
                "to": "0xcd3cd0ec22ed949f7d99692b4bccb03ab6c6b2ce",
                "token": "0x3845badade8e6dff049820680d1f14bd3903a5d0"
            }
        ],
        "token_infos": [
            {
                "address": "0xc02aaa39b223fe8d0a0e5c4f27ead9083c756cc2",
                "decimals": 18
            },
            {
                "address": "0xeeeeeeeeeeeeeeeeeeeeeeeeeeeeeeeeeeeeeeee",
                "decimals": 18
            },
            {
                "address": "0x3845badade8e6dff049820680d1f14bd3903a5d0",
                "decimals": 18
            }
        ]
    },
    "address_label": {
        "labels": [
            {
                "address": "0xeeeeeeeeeeeeeeeeeeeeeeeeeeeeeeeeeeeeeeee",
                "label": "Ether"
            },
            {
                "address": "0x28c6c06298d514db089934071355e5743bf21d60",
                "label": "Binance 14"
            },
            {
                "address": "0x3845badade8e6dff049820680d1f14bd3903a5d0",
                "label": "The Sandbox: SAND Token"
            },
            {
                "address": "0x0000000000000000000000000000000000000001",
                "label": "Precompiled"
            },
            {
                "address": "0x0000000000000000000000000000000000000002",
                "label": "Precompiled"
            },
            {
                "address": "0x0000000000000000000000000000000000000003",
                "label": "Precompiled"
            },
            {
                "address": "0x0000000000000000000000000000000000000004",
                "label": "Precompiled"
            }
        ]
    },
    "trace": {
        "accountLabels": null,
        "dataMap": {
            "-1": {
                "invocation": {
                    "address": "0x28c6c06298d514db089934071355e5743bf21d60",
                    "callData": "",
                    "decodedMethod": null,
                    "errorInfo": "",
                    "fromAddress": "",
                    "gasUsed": 0,
                    "id": -1,
                    "methodDecoded": false,
                    "operation": "",
                    "output": "",
                    "revert": false,
                    "revertMessage": "",
                    "selector": "",
                    "status": false,
                    "value": ""
                },
                "nodeType": 0
            },
            "0": {
                "invocation": {
                    "address": "0x3845badade8e6dff049820680d1f14bd3903a5d0",
                    "callData": "0x000000000000000000000000cd3cd0ec22ed949f7d99692b4bccb03ab6c6b2ce0000000000000000000000000000000000000000000000353bfcd52419980000",
                    "decodedMethod": {
                        "callParams": [
                            {
                                "name": "to",
                                "type": "address",
                                "value": "0xcd3cd0ec22ed949f7d99692b4bccb03ab6c6b2ce"
                            },
                            {
                                "decimalAvailable": true,
                                "name": "amount",
                                "type": "uint256",
                                "value": "982,000,000,000,000,000,000"
                            }
                        ],
                        "constructorArguments": "",
                        "name": "transfer",
                        "returnParams": [
                            {
                                "name": "success",
                                "type": "bool",
                                "value": true
                            }
                        ],
                        "signature": "transfer(address,uint256)"
                    },
                    "errorInfo": "",
                    "fromAddress": "0x28c6c06298d514db089934071355e5743bf21d60",
                    "gasUsed": 51324,
                    "id": 0,
                    "methodDecoded": true,
                    "operation": "CALL",
                    "output": "0x0000000000000000000000000000000000000000000000000000000000000001",
                    "revert": false,
                    "revertMessage": "",
                    "selector": "0xa9059cbb",
                    "status": true,
                    "value": "0"
                },
                "nodeType": 0
            },
            "1": {
                "event": {
                    "contract": "0x3845badade8e6dff049820680d1f14bd3903a5d0",
                    "decodedLog": {
                        "name": "Transfer",
                        "params": [
                            {
                                "name": "from",
                                "type": "address",
                                "value": "0x28c6c06298d514db089934071355e5743bf21d60"
                            },
                            {
                                "name": "to",
                                "type": "address",
                                "value": "0xcd3cd0ec22ed949f7d99692b4bccb03ab6c6b2ce"
                            },
                            {
                                "decimalAvailable": true,
                                "name": "value",
                                "type": "uint256",
                                "value": "982,000,000,000,000,000,000"
                            }
                        ],
                        "signature": "Transfer(address,address,uint256)"
                    },
                    "id": 1,
                    "logData": "0x0000000000000000000000000000000000000000000000353bfcd52419980000",
                    "logDecoded": true,
                    "operation": "EVENT",
                    "revert": false,
                    "status": true,
                    "topics": [
                        "0xddf252ad1be2c89b69c2b068fc378daa952ba7f163c4a11628f55a4df523b3ef",
                        "0x00000000000000000000000028c6c06298d514db089934071355e5743bf21d60",
                        "0x000000000000000000000000cd3cd0ec22ed949f7d99692b4bccb03ab6c6b2ce"
                    ]
                },
                "nodeType": 1
            }
        },
        "gasFlame": [
            {
                "children": [
                    {
                        "children": [
                            {
                                "children": [],
                                "depth": 0,
                                "name": "Initial Gas",
                                "value": 21644
                            },
                            {
                                "children": [],
                                "depth": 0,
                                "name": "Executed Gas",
                                "value": 29680
                            }
                        ],
                        "depth": -1,
                        "name": "Actual Gas Used",
                        "value": 51324
                    },
                    {
                        "children": [],
                        "depth": -1,
                        "name": "Refunded Gas",
                        "value": 0
                    }
                ],
                "depth": -2,
                "name": "Total Gas",
                "value": 51324
            }
        ],
        "isConfirmed": true,
        "mainTrace": [
            {
                "children": [
                    {
                        "children": [
                            {
                                "children": [],
                                "depth": 1,
                                "id": 1,
                                "order": 1
                            }
                        ],
                        "depth": 0,
                        "id": 0,
                        "order": 0
                    }
                ],
                "depth": -1,
                "id": -1,
                "order": -1
            }
        ],
        "mainTraceNodeCount": 2,
        "parentIdMap": {
            "0": -1,
            "1": 0
        },
        "tidyTrace": [
            {
                "children": [
                    {
                        "children": [
                            {
                                "children": [],
                                "depth": 1,
                                "id": 1,
                                "order": 1
                            }
                        ],
                        "depth": 0,
                        "id": 0,
                        "order": 0
                    }
                ],
                "depth": -1,
                "id": -1,
                "order": -1
            }
        ],
        "tidyTraceNodeCount": 2
    },
    "state_change": {
        "stateChanges": [
            {
                "address": "0x3845badade8e6dff049820680d1f14bd3903a5d0",
                "erc": "ERC-20",
                "slots": [
                    {
                        "current": "0x00000000000000000000000000000000000000000004c26eb8d02aafed82e95e",
                        "key": "0x20a03e9befac2b04d43478645753b1919343464c74cf98e7ad8f4b76675d0f0f",
                        "prev": "0x00000000000000000000000000000000000000000004c2a3f4ccffd4071ae95e"
                    },
                    {
                        "current": "0x0000000000000000000000000000000000000000000000353bfcd52419980000",
                        "key": "0xe778cfb795f462f3f98d1a9c14f380d16033d24037f7b45bc06209f58f1f464a",
                        "prev": "0x0000000000000000000000000000000000000000000000000000000000000000"
                    }
                ],
                "storageVariables": [
                    {
                        "name": "_balances",
                        "type": "mapping(address => uint256)",
                        "value": {
                            "pairs": [
                                {
                                    "key": "0x28c6c06298d514db089934071355e5743bf21d60",
                                    "value": {
                                        "current": "5753884835174369147939166",
                                        "prev": "5754866835174369147939166",
                                        "typeTag": 1
                                    }
                                },
                                {
                                    "key": "0xcd3cd0ec22ed949f7d99692b4bccb03ab6c6b2ce",
                                    "value": {
                                        "current": "982000000000000000000",
                                        "prev": "0",
                                        "typeTag": 1
                                    }
                                }
                            ],
                            "typeTag": 4
                        }
                    }
                ]
            }
        ]
    }
}