{
    "balance_change": {
        "balanceChanges": [
            {
                "account": "0xf378218c5188cfb9ec19fa8398276516737aa4b2",
                "assets": [
                    {
                        "address": "0x5283d291dbcf85356a21ba090e6db59121208b44",
                        "amount": "678.8824333739303",
                        "iconUrl": "",
                        "isERC1155": false,
                        "isERC721": false,
                        "sign": true,
                        "value": "521.1101558778399654"
                    }
                ]
            },
            {
                "account": "0xf2d15c0a89428c9251d71a0e29b39ff1e86bce25",
                "assets": [
                    {
                        "address": "0x5283d291dbcf85356a21ba090e6db59121208b44",
                        "amount": "678.8824333739303",
                        "iconUrl": "",
                        "isERC1155": false,
                        "isERC721": false,
                        "sign": false,
                        "value": "521.1101558778399654"
                    }
                ]
            }
        ]
    },
    "profile": {
        "basic_info": {
            "baseFee": "23.821086284",
            "blockNumber": 16632857,
            "callData": "0x3d13f874000000000000000000000000f378218c5188cfb9ec19fa8398276516737aa4b2000000000000000000000000000000000000000000000024cd62e847c1e8a2600000000000000000000000000000000000000000000000000000000000000060000000000000000000000000000000000000000000000000000000000000001254e4e4022b90c90834bd47f4076ea5d18b1f2db356bf20ffa90131ba65f0dc55c9cff62d21d46c725285a27a04b8ef786672ccedf9fae492da11652dc781191b946f9a3b0d807cf4932dd5a5ad437c70c3b7eb6d4a389e6e8146003db33d97e56c451ee88ba2bd5f4a5ded4386c57acd2f24f62cb3014c4214ac055d22c52e6550910e2b14f691458c0768eef4c10d00b751b026cd8d9173b828ca457238df77180ebea922ac5fb45771a2949b38a3dd2f27b6dc03086a4bc78791eca15a7e0b6e83200b37d00fbd1b18a8b6e362ef02247fd48ef636f15ff93600e298a793783addd1b3eaf44e46ddf59d455f21c90eda09ff467da7fd2d8165882492459229b2c4f585eedbcf6f2ff114e78c7cd9dc9e232e2ff340817d8a09c7baeb9d442e27f193e9c087e59d981632bf4b3a5dfb360d1715a006e1f6460fbc713aa8308b2def35568d6f5a7afc25b347661d734f6013c838262267cabc1af9139f19266238ea4eba2ea3e190514ff5809093e522e9ff91da58166a56fb9f57dfb27e202616bc723bd161a279feab7b3c2bf286aff62fc9031f729ed52b4ed4656f5bfa0d069e29c3ef3a829367bf3f070d6042b6c0892cd7ab6bc40010843e4575e776f91f9144b9f8a692c0707f003a626c79715cf02f71cdea9e63614844a5015aa36a378a0cce9739cd1102571d786ff8fa4760a74c80887ca6c17758466926ffe2239dfee0010a72625a6b30f03ccaa66343307afba8a0479c1aa7d74eeae100465b1f5840248ca59a511c658f1d85c18371380d6a7957eea77c470911fa70fc014c",
            "debugEnable": true,
            "errorInfo": "",
            "eventCount": 2,
            "feeRecipient": "0xbaf6dc2e647aeb6f510f9e318856a1bcd66c5e19",
            "formatValue": "0",
            "gasLimit": 111097,
            "gasPrice": "24.821086284",
            "gasUsed": 111097,
            "intTxnCount": 2,
            "internalRevert": false,
            "internalRevertMessage": "",
            "isContractCreation": false,
            "isFlashloan": false,
            "maxFee": "39.340988094",
            "nonce": 181,
            "overwritedBlockNumber": -1,
            "priorityFee": "1",
            "receiver": "0xf2d15c0a89428c9251d71a0e29b39ff1e86bce25",
            "revertMessage": "",
            "sender": "0xf378218c5188cfb9ec19fa8398276516737aa4b2",
            "simulationEnable": true,
            "sourceTxnHash": "0xc56da77afc26929981b9cbe71e6bfc9fd423cbbbc83777473ee2b7a0a5a07725",
            "status": true,
            "timestamp": "2023-02-15T08:08:59Z",
            "transactionFee": "0.002757548222893548",
            "txnHash": "0xc56da77afc26929981b9cbe71e6bfc9fd423cbbbc83777473ee2b7a0a5a07725",
            "txnIndex": 169,
            "type": 2,
            "value": "0"
        },
        "fund_flow": [
            {
                "amount": "678.8824333739303",
                "from": "0xf2d15c0a89428c9251d71a0e29b39ff1e86bce25",
                "id": 1,
                "isERC1155": false,
                "isERC721": false,
                "isReverted": false,
                "order": 1,
                "to": "0xf378218c5188cfb9ec19fa8398276516737aa4b2",
                "token": "0x5283d291dbcf85356a21ba090e6db59121208b44"
            }
        ],
        "token_infos": [
            {
                "address": "0xeeeeeeeeeeeeeeeeeeeeeeeeeeeeeeeeeeeeeeee",
                "decimals": 18
            },
            {
                "address": "0x5283d291dbcf85356a21ba090e6db59121208b44",
                "decimals": 18
            },
            {
                "address": "0xc02aaa39b223fe8d0a0e5c4f27ead9083c756cc2",
                "decimals": 18
            }
        ]
    },
    "address_label": {
        "labels": [
            {
                "address": "0xeeeeeeeeeeeeeeeeeeeeeeeeeeeeeeeeeeeeeeee",
                "label": "Ether"
            },
            {
                "address": "0x5283d291dbcf85356a21ba090e6db59121208b44",
                "label": "Blur: BLUR Token"
            },
            {
                "address": "0xf2d15c0a89428c9251d71a0e29b39ff1e86bce25",
                "label": "Blur: Airdrop"
            },
            {
                "address": "0x4c2bbdbeccae1c492c681158a46eae498a05627b",
                "label": "MerkleVerifier"
            },
            {
                "address": "0x0000000000000000000000000000000000000001",
                "label": "Precompiled"
            },
            {
                "address": "0x0000000000000000000000000000000000000002",
                "label": "Precompiled"
            },
            {
                "address": "0x0000000000000000000000000000000000000003",
                "label": "Precompiled"
            },
            {
                "address": "0x0000000000000000000000000000000000000004",
                "label": "Precompiled"
            }
        ]
    },
    "trace": {
        "accountLabels": null,
        "dataMap": {
            "-1": {
                "invocation": {
                    "address": "0xf378218c5188cfb9ec19fa8398276516737aa4b2",
                    "callData": "",
                    "decodedMethod": null,
                    "errorInfo": "",
                    "fromAddress": "",
                    "gasUsed": 0,
                    "id": -1,
                    "methodDecoded": false,
                    "operation": "",
                    "output": "",
                    "revert": false,
                    "revertMessage": "",
                    "selector": "",
                    "status": false,
                    "value": ""
                },
                "nodeType": 0
            },
            "0": {
                "invocation": {
                    "address": "0xf2d15c0a89428c9251d71a0e29b39ff1e86bce25",
                    "callData": "0x000000000000000000000000f378218c5188cfb9ec19fa8398276516737aa4b2000000000000000000000000000000000000000000000024cd62e847c1e8a2600000000000000000000000000000000000000000000000000000000000000060000000000000000000000000000000000000000000000000000000000000001254e4e4022b90c90834bd47f4076ea5d18b1f2db356bf20ffa90131ba65f0dc55c9cff62d21d46c725285a27a04b8ef786672ccedf9fae492da11652dc781191b946f9a3b0d807cf4932dd5a5ad437c70c3b7eb6d4a389e6e8146003db33d97e56c451ee88ba2bd5f4a5ded4386c57acd2f24f62cb3014c4214ac055d22c52e6550910e2b14f691458c0768eef4c10d00b751b026cd8d9173b828ca457238df77180ebea922ac5fb45771a2949b38a3dd2f27b6dc03086a4bc78791eca15a7e0b6e83200b37d00fbd1b18a8b6e362ef02247fd48ef636f15ff93600e298a793783addd1b3eaf44e46ddf59d455f21c90eda09ff467da7fd2d8165882492459229b2c4f585eedbcf6f2ff114e78c7cd9dc9e232e2ff340817d8a09c7baeb9d442e27f193e9c087e59d981632bf4b3a5dfb360d1715a006e1f6460fbc713aa8308b2def35568d6f5a7afc25b347661d734f6013c838262267cabc1af9139f19266238ea4eba2ea3e190514ff5809093e522e9ff91da58166a56fb9f57dfb27e202616bc723bd161a279feab7b3c2bf286aff62fc9031f729ed52b4ed4656f5bfa0d069e29c3ef3a829367bf3f070d6042b6c0892cd7ab6bc40010843e4575e776f91f9144b9f8a692c0707f003a626c79715cf02f71cdea9e63614844a5015aa36a378a0cce9739cd1102571d786ff8fa4760a74c80887ca6c17758466926ffe2239dfee0010a72625a6b30f03ccaa66343307afba8a0479c1aa7d74eeae100465b1f5840248ca59a511c658f1d85c18371380d6a7957eea77c470911fa70fc014c",
                    "decodedMethod": {
                        "callParams": [
                            {
                                "name": "account",
                                "type": "address",
                                "value": "0xf378218c5188cfb9ec19fa8398276516737aa4b2"
                            },
                            {
                                "name": "amount",
                                "type": "uint256",
                                "value": "678,882,433,373,930,300,000"
                            },
                            {
                                "name": "proof",
                                "type": "bytes32[]",
                                "value": [
                                    "0x54e4e4022b90c90834bd47f4076ea5d18b1f2db356bf20ffa90131ba65f0dc55",
                                    "0xc9cff62d21d46c725285a27a04b8ef786672ccedf9fae492da11652dc781191b",
                                    "0x946f9a3b0d807cf4932dd5a5ad437c70c3b7eb6d4a389e6e8146003db33d97e5",
                                    "0x6c451ee88ba2bd5f4a5ded4386c57acd2f24f62cb3014c4214ac055d22c52e65",
                                    "0x50910e2b14f691458c0768eef4c10d00b751b026cd8d9173b828ca457238df77",
                                    "0x180ebea922ac5fb45771a2949b38a3dd2f27b6dc03086a4bc78791eca15a7e0b",
                                    "0x6e83200b37d00fbd1b18a8b6e362ef02247fd48ef636f15ff93600e298a79378",
                                    "0x3addd1b3eaf44e46ddf59d455f21c90eda09ff467da7fd2d8165882492459229",
                                    "0xb2c4f585eedbcf6f2ff114e78c7cd9dc9e232e2ff340817d8a09c7baeb9d442e",
                                    "0x27f193e9c087e59d981632bf4b3a5dfb360d1715a006e1f6460fbc713aa8308b",
                                    "0x2def35568d6f5a7afc25b347661d734f6013c838262267cabc1af9139f192662",
                                    "0x38ea4eba2ea3e190514ff5809093e522e9ff91da58166a56fb9f57dfb27e2026",
                                    "0x16bc723bd161a279feab7b3c2bf286aff62fc9031f729ed52b4ed4656f5bfa0d",
                                    "0x069e29c3ef3a829367bf3f070d6042b6c0892cd7ab6bc40010843e4575e776f9",
                                    "0x1f9144b9f8a692c0707f003a626c79715cf02f71cdea9e63614844a5015aa36a",
                                    "0x378a0cce9739cd1102571d786ff8fa4760a74c80887ca6c17758466926ffe223",
                                    "0x9dfee0010a72625a6b30f03ccaa66343307afba8a0479c1aa7d74eeae100465b",
                                    "0x1f5840248ca59a511c658f1d85c18371380d6a7957eea77c470911fa70fc014c"
                                ]
                            }
                        ],
                        "constructorArguments": "",
                        "name": "claim",
                        "returnParams": [],
                        "signature": "claim(address,uint256,bytes32[])"
                    },
                    "errorInfo": "",
                    "fromAddress": "0xf378218c5188cfb9ec19fa8398276516737aa4b2",
                    "gasUsed": 111097,
                    "id": 0,
                    "methodDecoded": true,
                    "operation": "CALL",
                    "output": "",
                    "revert": false,
                    "revertMessage": "",
                    "selector": "0x3d13f874",
                    "status": true,
                    "value": "0"
                },
                "nodeType": 0
            },
            "1": {
                "invocation": {
                    "address": "0x4c2bbdbeccae1c492c681158a46eae498a05627b",
                    "callData": "0x54e4be8bd95e23bc2129a9474f50c88c3ae26b309c0c87ab4c2f28ee2184ca440e8aaa60dff2d844d4d3571a3e63a8072983f6a27f28604caac2530f3aba763b0000000000000000000000000000000000000000000000000000000000000060000000000000000000000000000000000000000000000000000000000000001254e4e4022b90c90834bd47f4076ea5d18b1f2db356bf20ffa90131ba65f0dc55c9cff62d21d46c725285a27a04b8ef786672ccedf9fae492da11652dc781191b946f9a3b0d807cf4932dd5a5ad437c70c3b7eb6d4a389e6e8146003db33d97e56c451ee88ba2bd5f4a5ded4386c57acd2f24f62cb3014c4214ac055d22c52e6550910e2b14f691458c0768eef4c10d00b751b026cd8d9173b828ca457238df77180ebea922ac5fb45771a2949b38a3dd2f27b6dc03086a4bc78791eca15a7e0b6e83200b37d00fbd1b18a8b6e362ef02247fd48ef636f15ff93600e298a793783addd1b3eaf44e46ddf59d455f21c90eda09ff467da7fd2d8165882492459229b2c4f585eedbcf6f2ff114e78c7cd9dc9e232e2ff340817d8a09c7baeb9d442e27f193e9c087e59d981632bf4b3a5dfb360d1715a006e1f6460fbc713aa8308b2def35568d6f5a7afc25b347661d734f6013c838262267cabc1af9139f19266238ea4eba2ea3e190514ff5809093e522e9ff91da58166a56fb9f57dfb27e202616bc723bd161a279feab7b3c2bf286aff62fc9031f729ed52b4ed4656f5bfa0d069e29c3ef3a829367bf3f070d6042b6c0892cd7ab6bc40010843e4575e776f91f9144b9f8a692c0707f003a626c79715cf02f71cdea9e63614844a5015aa36a378a0cce9739cd1102571d786ff8fa4760a74c80887ca6c17758466926ffe2239dfee0010a72625a6b30f03ccaa66343307afba8a0479c1aa7d74eeae100465b1f5840248ca59a511c658f1d85c18371380d6a7957eea77c470911fa70fc014c",
                    "decodedMethod": {
                        "callParams": [
                            {
                                "name": "leaf",
                                "type": "bytes32",
                                "value": "0x54e4be8bd95e23bc2129a9474f50c88c3ae26b309c0c87ab4c2f28ee2184ca44"
                            },
                            {
                                "name": "root",
                                "type": "bytes32",
                                "value": "0x0e8aaa60dff2d844d4d3571a3e63a8072983f6a27f28604caac2530f3aba763b"
                            },
                            {
                                "name": "proof",
                                "type": "bytes32[]",
                                "value": [
                                    "0x54e4e4022b90c90834bd47f4076ea5d18b1f2db356bf20ffa90131ba65f0dc55",
                                    "0xc9cff62d21d46c725285a27a04b8ef786672ccedf9fae492da11652dc781191b",
                                    "0x946f9a3b0d807cf4932dd5a5ad437c70c3b7eb6d4a389e6e8146003db33d97e5",
                                    "0x6c451ee88ba2bd5f4a5ded4386c57acd2f24f62cb3014c4214ac055d22c52e65",
                                    "0x50910e2b14f691458c0768eef4c10d00b751b026cd8d9173b828ca457238df77",
                                    "0x180ebea922ac5fb45771a2949b38a3dd2f27b6dc03086a4bc78791eca15a7e0b",
                                    "0x6e83200b37d00fbd1b18a8b6e362ef02247fd48ef636f15ff93600e298a79378",
                                    "0x3addd1b3eaf44e46ddf59d455f21c90eda09ff467da7fd2d8165882492459229",
                                    "0xb2c4f585eedbcf6f2ff114e78c7cd9dc9e232e2ff340817d8a09c7baeb9d442e",
                                    "0x27f193e9c087e59d981632bf4b3a5dfb360d1715a006e1f6460fbc713aa8308b",
                                    "0x2def35568d6f5a7afc25b347661d734f6013c838262267cabc1af9139f192662",
                                    "0x38ea4eba2ea3e190514ff5809093e522e9ff91da58166a56fb9f57dfb27e2026",
                                    "0x16bc723bd161a279feab7b3c2bf286aff62fc9031f729ed52b4ed4656f5bfa0d",
                                    "0x069e29c3ef3a829367bf3f070d6042b6c0892cd7ab6bc40010843e4575e776f9",
                                    "0x1f9144b9f8a692c0707f003a626c79715cf02f71cdea9e63614844a5015aa36a",
                                    "0x378a0cce9739cd1102571d786ff8fa4760a74c80887ca6c17758466926ffe223",
                                    "0x9dfee0010a72625a6b30f03ccaa66343307afba8a0479c1aa7d74eeae100465b",
                                    "0x1f5840248ca59a511c658f1d85c18371380d6a7957eea77c470911fa70fc014c"
                                ]
                            }
                        ],
                        "constructorArguments": "",
                        "name": "_verifyProof",
                        "returnParams": [],
                        "signature": "_verifyProof(bytes32,bytes32,bytes32[])"
                    },
                    "errorInfo": "",
                    "fromAddress": "0xf2d15c0a89428c9251d71a0e29b39ff1e86bce25",
                    "gasUsed": 8036,
                    "id": 1,
                    "methodDecoded": true,
                    "operation": "DELEGATECALL",
                    "output": "",
                    "revert": false,
                    "revertMessage": "",
                    "selector": "0x72aaadac",
                    "status": true,
                    "value": "0"
                },
                "nodeType": 0
            },
            "2": {
                "invocation": {
                    "address": "0x5283d291dbcf85356a21ba090e6db59121208b44",
                    "callData": "0x000000000000000000000000f378218c5188cfb9ec19fa8398276516737aa4b2000000000000000000000000000000000000000000000024cd62e847c1e8a260",
                    "decodedMethod": {
                        "callParams": [
                            {
                                "name": "to",
                                "type": "address",
                                "value": "0xf378218c5188cfb9ec19fa8398276516737aa4b2"
                            },
                            {
                                "decimalAvailable": true,
                                "name": "amount",
                                "type": "uint256",
                                "value": "678,882,433,373,930,300,000"
                            }
                        ],
                        "constructorArguments": "",
                        "name": "transfer",
                        "returnParams": [
                            {
                                "name": "",
                                "type": "bool",
                                "value": true
                            }
                        ],
                        "signature": "transfer(address,uint256)"
                    },
                    "errorInfo": "",
                    "fromAddress": "0xf2d15c0a89428c9251d71a0e29b39ff1e86bce25",
                    "gasUsed": 34319,
                    "id": 2,
                    "methodDecoded": true,
                    "operation": "CALL",
                    "output": "0x0000000000000000000000000000000000000000000000000000000000000001",
                    "revert": false,
                    "revertMessage": "",
                    "selector": "0xa9059cbb",
                    "status": true,
                    "value": "0"
                },
                "nodeType": 0
            },
            "3": {
                "event": {
                    "contract": "0x5283d291dbcf85356a21ba090e6db59121208b44",
                    "decodedLog": {
                        "name": "Transfer",
                        "params": [
                            {
                                "name": "from",
                                "type": "address",
                                "value": "0xf2d15c0a89428c9251d71a0e29b39ff1e86bce25"
                            },
                            {
                                "name": "to",
                                "type": "address",
                                "value": "0xf378218c5188cfb9ec19fa8398276516737aa4b2"
                            },
                            {
                                "decimalAvailable": true,
                                "name": "value",
                                "type": "uint256",
                                "value": "678,882,433,373,930,300,000"
                            }
                        ],
                        "signature": "Transfer(address,address,uint256)"
                    },
                    "id": 3,
                    "logData": "0x000000000000000000000000000000000000000000000024cd62e847c1e8a260",
                    "logDecoded": true,
                    "operation": "EVENT",
                    "revert": false,
                    "status": true,
                    "topics": [
                        "0xddf252ad1be2c89b69c2b068fc378daa952ba7f163c4a11628f55a4df523b3ef",
                        "0x000000000000000000000000f2d15c0a89428c9251d71a0e29b39ff1e86bce25",
                        "0x000000000000000000000000f378218c5188cfb9ec19fa8398276516737aa4b2"
                    ]
                },
                "nodeType": 1
            },
            "4": {
                "event": {
                    "contract": "0xf2d15c0a89428c9251d71a0e29b39ff1e86bce25",
                    "decodedLog": {
                        "name": "Claimed",
                        "params": [
                            {
                                "name": "account",
                                "type": "address",
                                "value": "0xf378218c5188cfb9ec19fa8398276516737aa4b2"
                            },
                            {
                                "name": "amount",
                                "type": "uint256",
                                "value": "678,882,433,373,930,300,000"
                            }
                        ],
                        "signature": "Claimed(address,uint256)"
                    },
                    "id": 4,
                    "logData": "0x000000000000000000000000f378218c5188cfb9ec19fa8398276516737aa4b2000000000000000000000000000000000000000000000024cd62e847c1e8a260",
                    "logDecoded": true,
                    "operation": "EVENT",
                    "revert": false,
                    "status": true,
                    "topics": [
                        "0xd8138f8a3f377c5259ca548e70e4c2de94f129f5a11036a15b69513cba2b426a"
                    ]
                },
                "nodeType": 1
            }
        },
        "gasFlame": [
            {
                "children": [
                    {
                        "children": [
                            {
                                "children": [],
                                "depth": 0,
                                "name": "Initial Gas",
                                "value": 31092
                            },
                            {
                                "children": [
                                    {
                                        "children": [],
                                        "depth": 1,
                                        "name": "_verifyProof",
                                        "value": 8036
                                    },
                                    {
                                        "children": [],
                                        "depth": 1,
                                        "name": "transfer",
                                        "value": 34319
                                    }
                                ],
                                "depth": 0,
                                "name": "Executed Gas",
                                "value": 80005
                            }
                        ],
                        "depth": -1,
                        "name": "Actual Gas Used",
                        "value": 111097
                    },
                    {
                        "children": [],
                        "depth": -1,
                        "name": "Refunded Gas",
                        "value": 0
                    }
                ],
                "depth": -2,
                "name": "Total Gas",
                "value": 111097
            }
        ],
        "isConfirmed": true,
        "mainTrace": [
            {
                "children": [
                    {
                        "children": [
                            {
                                "children": [],
                                "depth": 1,
                                "id": 1,
                                "order": 1
                            },
                            {
                                "children": [
                                    {
                                        "children": [],
                                        "depth": 2,
                                        "id": 3,
                                        "order": 3
                                    }
                                ],
                                "depth": 1,
                                "id": 2,
                                "order": 2
                            },
                            {
                                "children": [],
                                "depth": 1,
                                "id": 4,
                                "order": 4
                            }
                        ],
                        "depth": 0,
                        "id": 0,
                        "order": 0
                    }
                ],
                "depth": -1,
                "id": -1,
                "order": -1
            }
        ],
        "mainTraceNodeCount": 5,
        "parentIdMap": {
            "0": -1,
            "1": 0,
            "2": 0,
            "3": 2,
            "4": 0
        },
        "tidyTrace": [
            {
                "children": [
                    {
                        "children": [
                            {
                                "children": [],
                                "depth": 1,
                                "id": 1,
                                "order": 1
                            },
                            {
                                "children": [
                                    {
                                        "children": [],
                                        "depth": 2,
                                        "id": 3,
                                        "order": 3
                                    }
                                ],
                                "depth": 1,
                                "id": 2,
                                "order": 2
                            },
                            {
                                "children": [],
                                "depth": 1,
                                "id": 4,
                                "order": 4
                            }
                        ],
                        "depth": 0,
                        "id": 0,
                        "order": 0
                    }
                ],
                "depth": -1,
                "id": -1,
                "order": -1
            }
        ],
        "tidyTraceNodeCount": 5
    },
    "state_change": {
        "stateChanges": [
            {
                "address": "0x5283d291dbcf85356a21ba090e6db59121208b44",
                "erc": "ERC-20",
                "slots": [
                    {
                        "current": "0x0000000000000000000000000000000000000000002984811012f3d568db2b5c",
                        "key": "0x317a08632baaf2535c1ce58e868e0d53c0df5e64566a21259df5c0b348df3ed8",
                        "prev": "0x0000000000000000000000000000000000000000002984a5dd75dc1d2ac3cdbc"
                    },
                    {
                        "current": "0x000000000000000000000000000000000000000000000024cd62e847c1e8a260",
                        "key": "0x069e5d1032f5eac927baf04551e19191d7824586722373fd157381129928e9fc",
                        "prev": "0x0000000000000000000000000000000000000000000000000000000000000000"
                    }
                ],
                "storageVariables": [
                    {
                        "name": "_balances",
                        "type": "mapping(address => uint256)",
                        "value": {
                            "pairs": [
                                {
                                    "key": "0xf2d15c0a89428c9251d71a0e29b39ff1e86bce25",
                                    "value": {
                                        "current": "50191691768180249963735900",
                                        "prev": "50192370650613623894035900",
                                        "typeTag": 1
                                    }
                                },
                                {
                                    "key": "0xf378218c5188cfb9ec19fa8398276516737aa4b2",
                                    "value": {
                                        "current": "678882433373930300000",
                                        "prev": "0",
                                        "typeTag": 1
                                    }
                                }
                            ],
                            "typeTag": 4
                        }
                    }
                ]
            },
            {
                "address": "0xf2d15c0a89428c9251d71a0e29b39ff1e86bce25",
                "erc": "",
                "slots": [
                    {
                        "current": "0x0000000000000000000000000000000000000000000000000000000000000001",
                        "key": "0x07cdbc113a78ba505dda4eed833642db1cdeb5215a1bfd8dd13e61123cbf142f",
                        "prev": "0x0000000000000000000000000000000000000000000000000000000000000000"
                    }
                ],
                "storageVariables": [
                    {
                        "name": "claimed",
                        "type": "mapping(bytes32 => bool)",
                        "value": {
                            "pairs": [
                                {
                                    "key": "0x54e4be8bd95e23bc2129a9474f50c88c3ae26b309c0c87ab4c2f28ee2184ca44",
                                    "value": {
                                        "current": "true",
                                        "prev": "false",
                                        "typeTag": 1
                                    }
                                }
                            ],
                            "typeTag": 4
                        }
                    }
                ]
            }
        ]
    }
}