{
    "balance_change": {
        "balanceChanges": [
            {
                "account": "0x27695e09149adc738a978e9a678f99e4c39e9eb9",
                "assets": [
                    {
                        "address": "0x27695e09149adc738a978e9a678f99e4c39e9eb9",
                        "amount": "840.58674582",
                        "iconUrl": "",
                        "isERC1155": false,
                        "isERC721": false,
                        "sign": false,
                        "value": ""
                    }
                ]
            },
            {
                "account": "0x276072373d89602d1ee99e4c147a72da6cce84b2",
                "assets": [
                    {
                        "address": "0x27695e09149adc738a978e9a678f99e4c39e9eb9",
                        "amount": "40.29255925",
                        "iconUrl": "",
                        "isERC1155": false,
                        "isERC721": false,
                        "sign": true,
                        "value": ""
                    }
                ]
            },
            {
                "account": "0x89457454660d8d6ba6921cbf76268ad98fff460b",
                "assets": [
                    {
                        "address": "0x27695e09149adc738a978e9a678f99e4c39e9eb9",
                        "amount": "151.62832197",
                        "iconUrl": "",
                        "isERC1155": false,
                        "isERC721": false,
                        "sign": true,
                        "value": ""
                    }
                ]
            },
            {
                "account": "0x91a5477a0a6d67649c5cf8379237ee67cb13e7a8",
                "assets": [
                    {
                        "address": "0x27695e09149adc738a978e9a678f99e4c39e9eb9",
                        "amount": "648.65282747",
                        "iconUrl": "",
                        "isERC1155": false,
                        "isERC721": false,
                        "sign": true,
                        "value": ""
                    }
                ]
            },
            {
                "account": "0xd48dcbfdf69c17afe52ad6c3c112b104ba25b6a2",
                "assets": [
                    {
                        "address": "0x27695e09149adc738a978e9a678f99e4c39e9eb9",
                        "amount": "0.01303713",
                        "iconUrl": "",
                        "isERC1155": false,
                        "isERC721": false,
                        "sign": true,
                        "value": ""
                    }
                ]
            }
        ]
    },
    "profile": {
        "basic_info": {
            "baseFee": "",
            "blockNumber": 7280215,
            "callData": "0x2cf86006000000000000000000000000000000000000000000000000000000000000000a",
            "debugEnable": true,
            "errorInfo": "",
            "eventCount": 20,
            "feeRecipient": "0x52e44f279f4203dcf680395379e5f9990a69f13c",
            "formatValue": "0",
            "gasLimit": 1200000,
            "gasPrice": "2.3",
            "gasUsed": 250033,
            "intTxnCount": 0,
            "internalRevert": false,
            "internalRevertMessage": "",
            "isContractCreation": false,
            "isFlashloan": false,
            "maxFee": "",
            "nonce": 2530,
            "overwritedBlockNumber": -1,
            "priorityFee": "",
            "receiver": "0x27695e09149adc738a978e9a678f99e4c39e9eb9",
            "revertMessage": "",
            "sender": "0xf9c758d8b3f57a1b497a76f6751974d61330cab2",
            "simulationEnable": true,
            "sourceTxnHash": "0xc5df1089c68eb2990cd46fd601c6f872ba9449e3c52b5fc39ad36a9fdc5257b7",
            "status": true,
            "timestamp": "2019-02-28T20:59:08Z",
            "transactionFee": "0.0005750759",
            "txnHash": "0xc5df1089c68eb2990cd46fd601c6f872ba9449e3c52b5fc39ad36a9fdc5257b7",
            "txnIndex": 26,
            "type": 0,
            "value": "0"
        },
        "fund_flow": [
            {
                "amount": "40.29255925",
                "from": "0x27695e09149adc738a978e9a678f99e4c39e9eb9",
                "id": 1,
                "isERC1155": false,
                "isERC721": false,
                "isReverted": false,
                "order": 1,
                "to": "0x276072373d89602d1ee99e4c147a72da6cce84b2",
                "token": "0x27695e09149adc738a978e9a678f99e4c39e9eb9"
            },
            {
                "amount": "151.62832197",
                "from": "0x27695e09149adc738a978e9a678f99e4c39e9eb9",
                "id": 2,
                "isERC1155": false,
                "isERC721": false,
                "isReverted": false,
                "order": 2,
                "to": "0x89457454660d8d6ba6921cbf76268ad98fff460b",
                "token": "0x27695e09149adc738a978e9a678f99e4c39e9eb9"
            },
            {
                "amount": "0",
                "from": "0x27695e09149adc738a978e9a678f99e4c39e9eb9",
                "id": 3,
                "isERC1155": false,
                "isERC721": false,
                "isReverted": false,
                "order": 3,
                "to": "0xc216aafbcd3f69321908a0f93a675a35953f19d6",
                "token": "0x27695e09149adc738a978e9a678f99e4c39e9eb9"
            },
            {
                "amount": "0",
                "from": "0x27695e09149adc738a978e9a678f99e4c39e9eb9",
                "id": 4,
                "isERC1155": false,
                "isERC721": false,
                "isReverted": false,
                "order": 4,
                "to": "0xf109c0f2c8dea1f69ee9553a4ea990377017bc33",
                "token": "0x27695e09149adc738a978e9a678f99e4c39e9eb9"
            },
            {
                "amount": "0.01303713",
                "from": "0x27695e09149adc738a978e9a678f99e4c39e9eb9",
                "id": 5,
                "isERC1155": false,
                "isERC721": false,
                "isReverted": false,
                "order": 5,
                "to": "0xd48dcbfdf69c17afe52ad6c3c112b104ba25b6a2",
                "token": "0x27695e09149adc738a978e9a678f99e4c39e9eb9"
            },
            {
                "amount": "0",
                "from": "0x27695e09149adc738a978e9a678f99e4c39e9eb9",
                "id": 6,
                "isERC1155": false,
                "isERC721": false,
                "isReverted": false,
                "order": 6,
                "to": "0xd7717f880d279874c51cf5f9ec39fcf3da66747e",
                "token": "0x27695e09149adc738a978e9a678f99e4c39e9eb9"
            },
            {
                "amount": "0",
                "from": "0x27695e09149adc738a978e9a678f99e4c39e9eb9",
                "id": 7,
                "isERC1155": false,
                "isERC721": false,
                "isReverted": false,
                "order": 7,
                "to": "0x91b954a40361be8f54a2f727c9b38c34e8611009",
                "token": "0x27695e09149adc738a978e9a678f99e4c39e9eb9"
            },
            {
                "amount": "0",
                "from": "0x27695e09149adc738a978e9a678f99e4c39e9eb9",
                "id": 8,
                "isERC1155": false,
                "isERC721": false,
                "isReverted": false,
                "order": 8,
                "to": "0xcc248a26e43b029884c6e22b5ac3fd2cc6dd8b4e",
                "token": "0x27695e09149adc738a978e9a678f99e4c39e9eb9"
            },
            {
                "amount": "0",
                "from": "0x27695e09149adc738a978e9a678f99e4c39e9eb9",
                "id": 9,
                "isERC1155": false,
                "isERC721": false,
                "isReverted": false,
                "order": 9,
                "to": "0x16fc05505b7fa89079386f0a0ad40505f22b2b64",
                "token": "0x27695e09149adc738a978e9a678f99e4c39e9eb9"
            },
            {
                "amount": "648.65282747",
                "from": "0x27695e09149adc738a978e9a678f99e4c39e9eb9",
                "id": 10,
                "isERC1155": false,
                "isERC721": false,
                "isReverted": false,
                "order": 10,
                "to": "0x91a5477a0a6d67649c5cf8379237ee67cb13e7a8",
                "token": "0x27695e09149adc738a978e9a678f99e4c39e9eb9"
            }
        ],
        "token_infos": [
            {
                "address": "0xc02aaa39b223fe8d0a0e5c4f27ead9083c756cc2",
                "decimals": 18
            },
            {
                "address": "0xeeeeeeeeeeeeeeeeeeeeeeeeeeeeeeeeeeeeeeee",
                "decimals": 18
            },
            {
                "address": "0x27695e09149adc738a978e9a678f99e4c39e9eb9",
                "decimals": 8
            }
        ]
    },
    "address_label": {
        "labels": [
            {
                "address": "0xeeeeeeeeeeeeeeeeeeeeeeeeeeeeeeeeeeeeeeee",
                "label": "Ether"
            },
            {
                "address": "0x27695e09149adc738a978e9a678f99e4c39e9eb9",
                "label": "KickICO: Old Token 2"
            },
            {
                "address": "0x0000000000000000000000000000000000000001",
                "label": "Precompiled"
            },
            {
                "address": "0x0000000000000000000000000000000000000002",
                "label": "Precompiled"
            },
            {
                "address": "0x0000000000000000000000000000000000000003",
                "label": "Precompiled"
            },
            {
                "address": "0x0000000000000000000000000000000000000004",
                "label": "Precompiled"
            }
        ]
    },
    "trace": {
        "accountLabels": null,
        "dataMap": {
            "-1": {
                "invocation": {
                    "address": "0xf9c758d8b3f57a1b497a76f6751974d61330cab2",
                    "callData": "",
                    "decodedMethod": null,
                    "errorInfo": "",
                    "fromAddress": "",
                    "gasUsed": 0,
                    "id": -1,
                    "methodDecoded": false,
                    "operation": "",
                    "output": "",
                    "revert": false,
                    "revertMessage": "",
                    "selector": "",
                    "status": false,
                    "value": ""
                },
                "nodeType": 0
            },
            "0": {
                "invocation": {
                    "address": "0x27695e09149adc738a978e9a678f99e4c39e9eb9",
                    "callData": "0x000000000000000000000000000000000000000000000000000000000000000a",
                    "decodedMethod": {
                        "callParams": [
                            {
                                "name": "limit",
                                "type": "uint256",
                                "value": "10"
                            }
                        ],
                        "constructorArguments": "",
                        "name": "calculateDividends",
                        "returnParams": [],
                        "signature": "calculateDividends(uint256)"
                    },
                    "errorInfo": "",
                    "fromAddress": "0xf9c758d8b3f57a1b497a76f6751974d61330cab2",
                    "gasUsed": 250033,
                    "id": 0,
                    "methodDecoded": true,
                    "operation": "CALL",
                    "output": "",
                    "revert": false,
                    "revertMessage": "",
                    "selector": "0x2cf86006",
                    "status": true,
                    "value": "0"
                },
                "nodeType": 0
            },
            "1": {
                "event": {
                    "contract": "0x27695e09149adc738a978e9a678f99e4c39e9eb9",
                    "decodedLog": {
                        "name": "Transfer",
                        "params": [
                            {
                                "name": "from",
                                "type": "address",
                                "value": "0x27695e09149adc738a978e9a678f99e4c39e9eb9"
                            },
                            {
                                "name": "to",
                                "type": "address",
                                "value": "0x276072373d89602d1ee99e4c147a72da6cce84b2"
                            },
                            {
                                "decimalAvailable": true,
                                "name": "value",
                                "type": "uint256",
                                "value": "4,029,255,925"
                            }
                        ],
                        "signature": "Transfer(address,address,uint256)"
                    },
                    "id": 1,
                    "logData": "0x00000000000000000000000000000000000000000000000000000000f02990f5",
                    "logDecoded": true,
                    "operation": "EVENT",
                    "revert": false,
                    "status": true,
                    "topics": [
                        "0xddf252ad1be2c89b69c2b068fc378daa952ba7f163c4a11628f55a4df523b3ef",
                        "0x00000000000000000000000027695e09149adc738a978e9a678f99e4c39e9eb9",
                        "0x000000000000000000000000276072373d89602d1ee99e4c147a72da6cce84b2"
                    ]
                },
                "nodeType": 1
            },
            "10": {
                "event": {
                    "contract": "0x27695e09149adc738a978e9a678f99e4c39e9eb9",
                    "decodedLog": {
                        "name": "Issuance",
                        "params": [
                            {
                                "name": "_amount",
                                "type": "uint256",
                                "value": "1,303,713"
                            }
                        ],
                        "signature": "Issuance(uint256)"
                    },
                    "id": 10,
                    "logData": "0x000000000000000000000000000000000000000000000000000000000013e4a1",
                    "logDecoded": true,
                    "operation": "EVENT",
                    "revert": false,
                    "status": true,
                    "topics": [
                        "0x9386c90217c323f58030f9dadcbc938f807a940f4ff41cd4cead9562f5da7dc3"
                    ]
                },
                "nodeType": 1
            },
            "11": {
                "event": {
                    "contract": "0x27695e09149adc738a978e9a678f99e4c39e9eb9",
                    "decodedLog": {
                        "name": "Transfer",
                        "params": [
                            {
                                "name": "from",
                                "type": "address",
                                "value": "0x27695e09149adc738a978e9a678f99e4c39e9eb9"
                            },
                            {
                                "name": "to",
                                "type": "address",
                                "value": "0xd7717f880d279874c51cf5f9ec39fcf3da66747e"
                            },
                            {
                                "decimalAvailable": true,
                                "name": "value",
                                "type": "uint256",
                                "value": "0"
                            }
                        ],
                        "signature": "Transfer(address,address,uint256)"
                    },
                    "id": 11,
                    "logData": "0x0000000000000000000000000000000000000000000000000000000000000000",
                    "logDecoded": true,
                    "operation": "EVENT",
                    "revert": false,
                    "status": true,
                    "topics": [
                        "0xddf252ad1be2c89b69c2b068fc378daa952ba7f163c4a11628f55a4df523b3ef",
                        "0x00000000000000000000000027695e09149adc738a978e9a678f99e4c39e9eb9",
                        "0x000000000000000000000000d7717f880d279874c51cf5f9ec39fcf3da66747e"
                    ]
                },
                "nodeType": 1
            },
            "12": {
                "event": {
                    "contract": "0x27695e09149adc738a978e9a678f99e4c39e9eb9",
                    "decodedLog": {
                        "name": "Issuance",
                        "params": [
                            {
                                "name": "_amount",
                                "type": "uint256",
                                "value": "0"
                            }
                        ],
                        "signature": "Issuance(uint256)"
                    },
                    "id": 12,
                    "logData": "0x0000000000000000000000000000000000000000000000000000000000000000",
                    "logDecoded": true,
                    "operation": "EVENT",
                    "revert": false,
                    "status": true,
                    "topics": [
                        "0x9386c90217c323f58030f9dadcbc938f807a940f4ff41cd4cead9562f5da7dc3"
                    ]
                },
                "nodeType": 1
            },
            "13": {
                "event": {
                    "contract": "0x27695e09149adc738a978e9a678f99e4c39e9eb9",
                    "decodedLog": {
                        "name": "Transfer",
                        "params": [
                            {
                                "name": "from",
                                "type": "address",
                                "value": "0x27695e09149adc738a978e9a678f99e4c39e9eb9"
                            },
                            {
                                "name": "to",
                                "type": "address",
                                "value": "0x91b954a40361be8f54a2f727c9b38c34e8611009"
                            },
                            {
                                "decimalAvailable": true,
                                "name": "value",
                                "type": "uint256",
                                "value": "0"
                            }
                        ],
                        "signature": "Transfer(address,address,uint256)"
                    },
                    "id": 13,
                    "logData": "0x0000000000000000000000000000000000000000000000000000000000000000",
                    "logDecoded": true,
                    "operation": "EVENT",
                    "revert": false,
                    "status": true,
                    "topics": [
                        "0xddf252ad1be2c89b69c2b068fc378daa952ba7f163c4a11628f55a4df523b3ef",
                        "0x00000000000000000000000027695e09149adc738a978e9a678f99e4c39e9eb9",
                        "0x00000000000000000000000091b954a40361be8f54a2f727c9b38c34e8611009"
                    ]
                },
                "nodeType": 1
            },
            "14": {
                "event": {
                    "contract": "0x27695e09149adc738a978e9a678f99e4c39e9eb9",
                    "decodedLog": {
                        "name": "Issuance",
                        "params": [
                            {
                                "name": "_amount",
                                "type": "uint256",
                                "value": "0"
                            }
                        ],
                        "signature": "Issuance(uint256)"
                    },
                    "id": 14,
                    "logData": "0x0000000000000000000000000000000000000000000000000000000000000000",
                    "logDecoded": true,
                    "operation": "EVENT",
                    "revert": false,
                    "status": true,
                    "topics": [
                        "0x9386c90217c323f58030f9dadcbc938f807a940f4ff41cd4cead9562f5da7dc3"
                    ]
                },
                "nodeType": 1
            },
            "15": {
                "event": {
                    "contract": "0x27695e09149adc738a978e9a678f99e4c39e9eb9",
                    "decodedLog": {
                        "name": "Transfer",
                        "params": [
                            {
                                "name": "from",
                                "type": "address",
                                "value": "0x27695e09149adc738a978e9a678f99e4c39e9eb9"
                            },
                            {
                                "name": "to",
                                "type": "address",
                                "value": "0xcc248a26e43b029884c6e22b5ac3fd2cc6dd8b4e"
                            },
                            {
                                "decimalAvailable": true,
                                "name": "value",
                                "type": "uint256",
                                "value": "0"
                            }
                        ],
                        "signature": "Transfer(address,address,uint256)"
                    },
                    "id": 15,
                    "logData": "0x0000000000000000000000000000000000000000000000000000000000000000",
                    "logDecoded": true,
                    "operation": "EVENT",
                    "revert": false,
                    "status": true,
                    "topics": [
                        "0xddf252ad1be2c89b69c2b068fc378daa952ba7f163c4a11628f55a4df523b3ef",
                        "0x00000000000000000000000027695e09149adc738a978e9a678f99e4c39e9eb9",
                        "0x000000000000000000000000cc248a26e43b029884c6e22b5ac3fd2cc6dd8b4e"
                    ]
                },
                "nodeType": 1
            },
            "16": {
                "event": {
                    "contract": "0x27695e09149adc738a978e9a678f99e4c39e9eb9",
                    "decodedLog": {
                        "name": "Issuance",
                        "params": [
                            {
                                "name": "_amount",
                                "type": "uint256",
                                "value": "0"
                            }
                        ],
                        "signature": "Issuance(uint256)"
                    },
                    "id": 16,
                    "logData": "0x0000000000000000000000000000000000000000000000000000000000000000",
                    "logDecoded": true,
                    "operation": "EVENT",
                    "revert": false,
                    "status": true,
                    "topics": [
                        "0x9386c90217c323f58030f9dadcbc938f807a940f4ff41cd4cead9562f5da7dc3"
                    ]
                },
                "nodeType": 1
            },
            "17": {
                "event": {
                    "contract": "0x27695e09149adc738a978e9a678f99e4c39e9eb9",
                    "decodedLog": {
                        "name": "Transfer",
                        "params": [
                            {
                                "name": "from",
                                "type": "address",
                                "value": "0x27695e09149adc738a978e9a678f99e4c39e9eb9"
                            },
                            {
                                "name": "to",
                                "type": "address",
                                "value": "0x16fc05505b7fa89079386f0a0ad40505f22b2b64"
                            },
                            {
                                "decimalAvailable": true,
                                "name": "value",
                                "type": "uint256",
                                "value": "0"
                            }
                        ],
                        "signature": "Transfer(address,address,uint256)"
                    },
                    "id": 17,
                    "logData": "0x0000000000000000000000000000000000000000000000000000000000000000",
                    "logDecoded": true,
                    "operation": "EVENT",
                    "revert": false,
                    "status": true,
                    "topics": [
                        "0xddf252ad1be2c89b69c2b068fc378daa952ba7f163c4a11628f55a4df523b3ef",
                        "0x00000000000000000000000027695e09149adc738a978e9a678f99e4c39e9eb9",
                        "0x00000000000000000000000016fc05505b7fa89079386f0a0ad40505f22b2b64"
                    ]
                },
                "nodeType": 1
            },
            "18": {
                "event": {
                    "contract": "0x27695e09149adc738a978e9a678f99e4c39e9eb9",
                    "decodedLog": {
                        "name": "Issuance",
                        "params": [
                            {
                                "name": "_amount",
                                "type": "uint256",
                                "value": "0"
                            }
                        ],
                        "signature": "Issuance(uint256)"
                    },
                    "id": 18,
                    "logData": "0x0000000000000000000000000000000000000000000000000000000000000000",
                    "logDecoded": true,
                    "operation": "EVENT",
                    "revert": false,
                    "status": true,
                    "topics": [
                        "0x9386c90217c323f58030f9dadcbc938f807a940f4ff41cd4cead9562f5da7dc3"
                    ]
                },
                "nodeType": 1
            },
            "19": {
                "event": {
                    "contract": "0x27695e09149adc738a978e9a678f99e4c39e9eb9",
                    "decodedLog": {
                        "name": "Transfer",
                        "params": [
                            {
                                "name": "from",
                                "type": "address",
                                "value": "0x27695e09149adc738a978e9a678f99e4c39e9eb9"
                            },
                            {
                                "name": "to",
                                "type": "address",
                                "value": "0x91a5477a0a6d67649c5cf8379237ee67cb13e7a8"
                            },
                            {
                                "decimalAvailable": true,
                                "name": "value",
                                "type": "uint256",
                                "value": "64,865,282,747"
                            }
                        ],
                        "signature": "Transfer(address,address,uint256)"
                    },
                    "id": 19,
                    "logData": "0x0000000000000000000000000000000000000000000000000000000f1a45aabb",
                    "logDecoded": true,
                    "operation": "EVENT",
                    "revert": false,
                    "status": true,
                    "topics": [
                        "0xddf252ad1be2c89b69c2b068fc378daa952ba7f163c4a11628f55a4df523b3ef",
                        "0x00000000000000000000000027695e09149adc738a978e9a678f99e4c39e9eb9",
                        "0x00000000000000000000000091a5477a0a6d67649c5cf8379237ee67cb13e7a8"
                    ]
                },
                "nodeType": 1
            },
            "2": {
                "event": {
                    "contract": "0x27695e09149adc738a978e9a678f99e4c39e9eb9",
                    "decodedLog": {
                        "name": "Issuance",
                        "params": [
                            {
                                "name": "_amount",
                                "type": "uint256",
                                "value": "4,029,255,925"
                            }
                        ],
                        "signature": "Issuance(uint256)"
                    },
                    "id": 2,
                    "logData": "0x00000000000000000000000000000000000000000000000000000000f02990f5",
                    "logDecoded": true,
                    "operation": "EVENT",
                    "revert": false,
                    "status": true,
                    "topics": [
                        "0x9386c90217c323f58030f9dadcbc938f807a940f4ff41cd4cead9562f5da7dc3"
                    ]
                },
                "nodeType": 1
            },
            "20": {
                "event": {
                    "contract": "0x27695e09149adc738a978e9a678f99e4c39e9eb9",
                    "decodedLog": {
                        "name": "Issuance",
                        "params": [
                            {
                                "name": "_amount",
                                "type": "uint256",
                                "value": "64,865,282,747"
                            }
                        ],
                        "signature": "Issuance(uint256)"
                    },
                    "id": 20,
                    "logData": "0x0000000000000000000000000000000000000000000000000000000f1a45aabb",
                    "logDecoded": true,
                    "operation": "EVENT",
                    "revert": false,
                    "status": true,
                    "topics": [
                        "0x9386c90217c323f58030f9dadcbc938f807a940f4ff41cd4cead9562f5da7dc3"
                    ]
                },
                "nodeType": 1
            },
            "3": {
                "event": {
                    "contract": "0x27695e09149adc738a978e9a678f99e4c39e9eb9",
                    "decodedLog": {
                        "name": "Transfer",
                        "params": [
                            {
                                "name": "from",
                                "type": "address",
                                "value": "0x27695e09149adc738a978e9a678f99e4c39e9eb9"
                            },
                            {
                                "name": "to",
                                "type": "address",
                                "value": "0x89457454660d8d6ba6921cbf76268ad98fff460b"
                            },
                            {
                                "decimalAvailable": true,
                                "name": "value",
                                "type": "uint256",
                                "value": "15,162,832,197"
                            }
                        ],
                        "signature": "Transfer(address,address,uint256)"
                    },
                    "id": 3,
                    "logData": "0x0000000000000000000000000000000000000000000000000000000387c67545",
                    "logDecoded": true,
                    "operation": "EVENT",
                    "revert": false,
                    "status": true,
                    "topics": [
                        "0xddf252ad1be2c89b69c2b068fc378daa952ba7f163c4a11628f55a4df523b3ef",
                        "0x00000000000000000000000027695e09149adc738a978e9a678f99e4c39e9eb9",
                        "0x00000000000000000000000089457454660d8d6ba6921cbf76268ad98fff460b"
                    ]
                },
                "nodeType": 1
            },
            "4": {
                "event": {
                    "contract": "0x27695e09149adc738a978e9a678f99e4c39e9eb9",
                    "decodedLog": {
                        "name": "Issuance",
                        "params": [
                            {
                                "name": "_amount",
                                "type": "uint256",
                                "value": "15,162,832,197"
                            }
                        ],
                        "signature": "Issuance(uint256)"
                    },
                    "id": 4,
                    "logData": "0x0000000000000000000000000000000000000000000000000000000387c67545",
                    "logDecoded": true,
                    "operation": "EVENT",
                    "revert": false,
                    "status": true,
                    "topics": [
                        "0x9386c90217c323f58030f9dadcbc938f807a940f4ff41cd4cead9562f5da7dc3"
                    ]
                },
                "nodeType": 1
            },
            "5": {
                "event": {
                    "contract": "0x27695e09149adc738a978e9a678f99e4c39e9eb9",
                    "decodedLog": {
                        "name": "Transfer",
                        "params": [
                            {
                                "name": "from",
                                "type": "address",
                                "value": "0x27695e09149adc738a978e9a678f99e4c39e9eb9"
                            },
                            {
                                "name": "to",
                                "type": "address",
                                "value": "0xc216aafbcd3f69321908a0f93a675a35953f19d6"
                            },
                            {
                                "decimalAvailable": true,
                                "name": "value",
                                "type": "uint256",
                                "value": "0"
                            }
                        ],
                        "signature": "Transfer(address,address,uint256)"
                    },
                    "id": 5,
                    "logData": "0x0000000000000000000000000000000000000000000000000000000000000000",
                    "logDecoded": true,
                    "operation": "EVENT",
                    "revert": false,
                    "status": true,
                    "topics": [
                        "0xddf252ad1be2c89b69c2b068fc378daa952ba7f163c4a11628f55a4df523b3ef",
                        "0x00000000000000000000000027695e09149adc738a978e9a678f99e4c39e9eb9",
                        "0x000000000000000000000000c216aafbcd3f69321908a0f93a675a35953f19d6"
                    ]
                },
                "nodeType": 1
            },
            "6": {
                "event": {
                    "contract": "0x27695e09149adc738a978e9a678f99e4c39e9eb9",
                    "decodedLog": {
                        "name": "Issuance",
                        "params": [
                            {
                                "name": "_amount",
                                "type": "uint256",
                                "value": "0"
                            }
                        ],
                        "signature": "Issuance(uint256)"
                    },
                    "id": 6,
                    "logData": "0x0000000000000000000000000000000000000000000000000000000000000000",
                    "logDecoded": true,
                    "operation": "EVENT",
                    "revert": false,
                    "status": true,
                    "topics": [
                        "0x9386c90217c323f58030f9dadcbc938f807a940f4ff41cd4cead9562f5da7dc3"
                    ]
                },
                "nodeType": 1
            },
            "7": {
                "event": {
                    "contract": "0x27695e09149adc738a978e9a678f99e4c39e9eb9",
                    "decodedLog": {
                        "name": "Transfer",
                        "params": [
                            {
                                "name": "from",
                                "type": "address",
                                "value": "0x27695e09149adc738a978e9a678f99e4c39e9eb9"
                            },
                            {
                                "name": "to",
                                "type": "address",
                                "value": "0xf109c0f2c8dea1f69ee9553a4ea990377017bc33"
                            },
                            {
                                "decimalAvailable": true,
                                "name": "value",
                                "type": "uint256",
                                "value": "0"
                            }
                        ],
                        "signature": "Transfer(address,address,uint256)"
                    },
                    "id": 7,
                    "logData": "0x0000000000000000000000000000000000000000000000000000000000000000",
                    "logDecoded": true,
                    "operation": "EVENT",
                    "revert": false,
                    "status": true,
                    "topics": [
                        "0xddf252ad1be2c89b69c2b068fc378daa952ba7f163c4a11628f55a4df523b3ef",
                        "0x00000000000000000000000027695e09149adc738a978e9a678f99e4c39e9eb9",
                        "0x000000000000000000000000f109c0f2c8dea1f69ee9553a4ea990377017bc33"
                    ]
                },
                "nodeType": 1
            },
            "8": {
                "event": {
                    "contract": "0x27695e09149adc738a978e9a678f99e4c39e9eb9",
                    "decodedLog": {
                        "name": "Issuance",
                        "params": [
                            {
                                "name": "_amount",
                                "type": "uint256",
                                "value": "0"
                            }
                        ],
                        "signature": "Issuance(uint256)"
                    },
                    "id": 8,
                    "logData": "0x0000000000000000000000000000000000000000000000000000000000000000",
                    "logDecoded": true,
                    "operation": "EVENT",
                    "revert": false,
                    "status": true,
                    "topics": [
                        "0x9386c90217c323f58030f9dadcbc938f807a940f4ff41cd4cead9562f5da7dc3"
                    ]
                },
                "nodeType": 1
            },
            "9": {
                "event": {
                    "contract": "0x27695e09149adc738a978e9a678f99e4c39e9eb9",
                    "decodedLog": {
                        "name": "Transfer",
                        "params": [
                            {
                                "name": "from",
                                "type": "address",
                                "value": "0x27695e09149adc738a978e9a678f99e4c39e9eb9"
                            },
                            {
                                "name": "to",
                                "type": "address",
                                "value": "0xd48dcbfdf69c17afe52ad6c3c112b104ba25b6a2"
                            },
                            {
                                "decimalAvailable": true,
                                "name": "value",
                                "type": "uint256",
                                "value": "1,303,713"
                            }
                        ],
                        "signature": "Transfer(address,address,uint256)"
                    },
                    "id": 9,
                    "logData": "0x000000000000000000000000000000000000000000000000000000000013e4a1",
                    "logDecoded": true,
                    "operation": "EVENT",
                    "revert": false,
                    "status": true,
                    "topics": [
                        "0xddf252ad1be2c89b69c2b068fc378daa952ba7f163c4a11628f55a4df523b3ef",
                        "0x00000000000000000000000027695e09149adc738a978e9a678f99e4c39e9eb9",
                        "0x000000000000000000000000d48dcbfdf69c17afe52ad6c3c112b104ba25b6a2"
                    ]
                },
                "nodeType": 1
            }
        },
        "gasFlame": [
            {
                "children": [
                    {
                        "children": [
                            {
                                "children": [],
                                "depth": 0,
                                "name": "Initial Gas",
                                "value": 21464
                            },
                            {
                                "children": [],
                                "depth": 0,
                                "name": "Executed Gas",
                                "value": 228569
                            }
                        ],
                        "depth": -1,
                        "name": "Actual Gas Used",
                        "value": 250033
                    },
                    {
                        "children": [],
                        "depth": -1,
                        "name": "Refunded Gas",
                        "value": 0
                    }
                ],
                "depth": -2,
                "name": "Total Gas",
                "value": 250033
            }
        ],
        "isConfirmed": true,
        "mainTrace": [
            {
                "children": [
                    {
                        "children": [
                            {
                                "children": [],
                                "depth": 1,
                                "id": 1,
                                "order": 1
                            },
                            {
                                "children": [],
                                "depth": 1,
                                "id": 2,
                                "order": 2
                            },
                            {
                                "children": [],
                                "depth": 1,
                                "id": 3,
                                "order": 3
                            },
                            {
                                "children": [],
                                "depth": 1,
                                "id": 4,
                                "order": 4
                            },
                            {
                                "children": [],
                                "depth": 1,
                                "id": 5,
                                "order": 5
                            },
                            {
                                "children": [],
                                "depth": 1,
                                "id": 6,
                                "order": 6
                            },
                            {
                                "children": [],
                                "depth": 1,
                                "id": 7,
                                "order": 7
                            },
                            {
                                "children": [],
                                "depth": 1,
                                "id": 8,
                                "order": 8
                            },
                            {
                                "children": [],
                                "depth": 1,
                                "id": 9,
                                "order": 9
                            },
                            {
                                "children": [],
                                "depth": 1,
                                "id": 10,
                                "order": 10
                            },
                            {
                                "children": [],
                                "depth": 1,
                                "id": 11,
                                "order": 11
                            },
                            {
                                "children": [],
                                "depth": 1,
                                "id": 12,
                                "order": 12
                            },
                            {
                                "children": [],
                                "depth": 1,
                                "id": 13,
                                "order": 13
                            },
                            {
                                "children": [],
                                "depth": 1,
                                "id": 14,
                                "order": 14
                            },
                            {
                                "children": [],
                                "depth": 1,
                                "id": 15,
                                "order": 15
                            },
                            {
                                "children": [],
                                "depth": 1,
                                "id": 16,
                                "order": 16
                            },
                            {
                                "children": [],
                                "depth": 1,
                                "id": 17,
                                "order": 17
                            },
                            {
                                "children": [],
                                "depth": 1,
                                "id": 18,
                                "order": 18
                            },
                            {
                                "children": [],
                                "depth": 1,
                                "id": 19,
                                "order": 19
                            },
                            {
                                "children": [],
                                "depth": 1,
                                "id": 20,
                                "order": 20
                            }
                        ],
                        "depth": 0,
                        "id": 0,
                        "order": 0
                    }
                ],
                "depth": -1,
                "id": -1,
                "order": -1
            }
        ],
        "mainTraceNodeCount": 21,
        "parentIdMap": {
            "0": -1,
            "1": 0,
            "10": 0,
            "11": 0,
            "12": 0,
            "13": 0,
            "14": 0,
            "15": 0,
            "16": 0,
            "17": 0,
            "18": 0,
            "19": 0,
            "2": 0,
            "20": 0,
            "3": 0,
            "4": 0,
            "5": 0,
            "6": 0,
            "7": 0,
            "8": 0,
            "9": 0
        },
        "tidyTrace": [
            {
                "children": [
                    {
                        "children": [
                            {
                                "children": [],
                                "depth": 1,
                                "id": 1,
                                "order": 1
                            },
                            {
                                "children": [],
                                "depth": 1,
                                "id": 2,
                                "order": 2
                            },
                            {
                                "children": [],
                                "depth": 1,
                                "id": 3,
                                "order": 3
                            },
                            {
                                "children": [],
                                "depth": 1,
                                "id": 4,
                                "order": 4
                            },
                            {
                                "children": [],
                                "depth": 1,
                                "id": 5,
                                "order": 5
                            },
                            {
                                "children": [],
                                "depth": 1,
                                "id": 6,
                                "order": 6
                            },
                            {
                                "children": [],
                                "depth": 1,
                                "id": 7,
                                "order": 7
                            },
                            {
                                "children": [],
                                "depth": 1,
                                "id": 8,
                                "order": 8
                            },
                            {
                                "children": [],
                                "depth": 1,
                                "id": 9,
                                "order": 9
                            },
                            {
                                "children": [],
                                "depth": 1,
                                "id": 10,
                                "order": 10
                            },
                            {
                                "children": [],
                                "depth": 1,
                                "id": 11,
                                "order": 11
                            },
                            {
                                "children": [],
                                "depth": 1,
                                "id": 12,
                                "order": 12
                            },
                            {
                                "children": [],
                                "depth": 1,
                                "id": 13,
                                "order": 13
                            },
                            {
                                "children": [],
                                "depth": 1,
                                "id": 14,
                                "order": 14
                            },
                            {
                                "children": [],
                                "depth": 1,
                                "id": 15,
                                "order": 15
                            },
                            {
                                "children": [],
                                "depth": 1,
                                "id": 16,
                                "order": 16
                            },
                            {
                                "children": [],
                                "depth": 1,
                                "id": 17,
                                "order": 17
                            },
                            {
                                "children": [],
                                "depth": 1,
                                "id": 18,
                                "order": 18
                            },
                            {
                                "children": [],
                                "depth": 1,
                                "id": 19,
                                "order": 19
                            },
                            {
                                "children": [],
                                "depth": 1,
                                "id": 20,
                                "order": 20
                            }
                        ],
                        "depth": 0,
                        "id": 0,
                        "order": 0
                    }
                ],
                "depth": -1,
                "id": -1,
                "order": -1
            }
        ],
        "tidyTraceNodeCount": 21
    },
    "state_change": {
        "stateChanges": [
            {
                "address": "0x27695e09149adc738a978e9a678f99e4c39e9eb9",
                "erc": "ERC-20",
                "slots": [
                    {
                        "current": "0x0000000000000000000000000000000000000000000000000000000000000011",
                        "key": "0x0b869f0a29d05c1202b832ada3a7e9d650c9ce53045f3fe5032a3d241f85912a",
                        "prev": "0x0000000000000000000000000000000000000000000000000000000000000010"
                    },
                    {
                        "current": "0x00000000000000000000000000000000000000000000000000000000000062de",
                        "key": "0xc65a7bb8d6351c1cf70c95a316cc6a92839c986682d98bc35f958f4883f9d2dd",
                        "prev": "0x00000000000000000000000000000000000000000000000000000000000062d4"
                    },
                    {
                        "current": "0x0000000000000000000000000000000000000000000000000108c95c345e427e",
                        "key": "0x0000000000000000000000000000000000000000000000000000000000000005",
                        "prev": "0x0000000000000000000000000000000000000000000000000108c948a214ace8"
                    },
                    {
                        "current": "0x0000000000000000000000000000000000000000000000000000000000000011",
                        "key": "0x49b9ed4c6cbfd460079dfe4dec0a44ca96c28700360294e7502e80939b6d1ad0",
                        "prev": "0x0000000000000000000000000000000000000000000000000000000000000010"
                    },
                    {
                        "current": "0x0000000000000000000000000000000000000000000000000000000000000011",
                        "key": "0x982bfa3e97eb4bace7533cb19e1d216ff2bbcff34ac50b106e4be7a2b3905b82",
                        "prev": "0x0000000000000000000000000000000000000000000000000000000000000010"
                    },
                    {
                        "current": "0x0000000000000000000000000000000000000000000000000000000000000011",
                        "key": "0x4e0cbbd442d963c9897725bc9fb40418d0c5d0421dc58926e3b889c1150de76b",
                        "prev": "0x0000000000000000000000000000000000000000000000000000000000000010"
                    },
                    {
                        "current": "0x0000000000000000000000000000000000000000000000000000000000000011",
                        "key": "0x0947c13fdaf03540b3bff1ee97777b1125c580e3949ba8a8741a725b55070f6a",
                        "prev": "0x0000000000000000000000000000000000000000000000000000000000000010"
                    },
                    {
                        "current": "0x0000000000000000000000000000000000000000000000000000000000000011",
                        "key": "0x97c3539c6245074989dd3f5b88a2be0ce36b398f2a69199e0a0484492eb32740",
                        "prev": "0x0000000000000000000000000000000000000000000000000000000000000010"
                    },
                    {
                        "current": "0x0000000000000000000000000000000000000000000000000000000000000011",
                        "key": "0xecc84513657ff0e51b4abd01879faabbad533b1fb0bb92074ca7e6f36f3c5a80",
                        "prev": "0x0000000000000000000000000000000000000000000000000000000000000010"
                    },
                    {
                        "current": "0x0000000000000000000000000000000000000000000000000000020686029078",
                        "key": "0x073da4cb607e35c97ad2484b6d3da099c455ebfe8f7e9546ec42d9dd03fd2956",
                        "prev": "0x000000000000000000000000000000000000000000000000000001f76bbce5bd"
                    },
                    {
                        "current": "0x00000000000000000000000000000000000000000000000000000079359dba41",
                        "key": "0x9dece6e68a4379ba943b8f144c7d1b57b9f8ad2de60dc50092b44210d238ce35",
                        "prev": "0x00000000000000000000000000000000000000000000000000000075add744fc"
                    },
                    {
                        "current": "0x0000000000000000000000000000000000000000000000000000000000000011",
                        "key": "0xb422db1df42ad4d2e2d5e761ffbcec0f777277c3cc0fe4ab48208cd9a490efc1",
                        "prev": "0x0000000000000000000000000000000000000000000000000000000000000010"
                    },
                    {
                        "current": "0x0000000000000000000000000000000000000000000000000000000002aafef0",
                        "key": "0x2451d459bd495846e4a2141b5bbc44e9fde008ced60fa7b9c7ff1421f3076a9e",
                        "prev": "0x0000000000000000000000000000000000000000000000000000000002971a4f"
                    },
                    {
                        "current": "0x0000000000000000000000000000000000000000000000000000000000000011",
                        "key": "0x08115a328a8ca7f248128ef6742eb35a520314948a208bbaaa96b48589838f65",
                        "prev": "0x0000000000000000000000000000000000000000000000000000000000000010"
                    },
                    {
                        "current": "0x0000000000000000000000000000000000000000000000000000000000000011",
                        "key": "0xc45e915c52db563f8792d32530574e339f0f8663e232a72f8d9f151ff425833f",
                        "prev": "0x0000000000000000000000000000000000000000000000000000000000000010"
                    },
                    {
                        "current": "0x0000000000000000000000000000000000000000000000000000002035931ba3",
                        "key": "0x6daf516bd324792c9f44d78f7ceca80480a24dd7da414fd21ca3de0ba2f65140",
                        "prev": "0x0000000000000000000000000000000000000000000000000000001f45698aae"
                    }
                ],
                "storageVariables": [
                    {
                        "name": "calculatedDividendsIndex",
                        "type": "mapping(address => uint256)",
                        "value": {
                            "pairs": [
                                {
                                    "key": "0x16fc05505b7fa89079386f0a0ad40505f22b2b64",
                                    "value": {
                                        "current": "17",
                                        "prev": "16",
                                        "typeTag": 1
                                    }
                                },
                                {
                                    "key": "0x276072373d89602d1ee99e4c147a72da6cce84b2",
                                    "value": {
                                        "current": "17",
                                        "prev": "16",
                                        "typeTag": 1
                                    }
                                },
                                {
                                    "key": "0x89457454660d8d6ba6921cbf76268ad98fff460b",
                                    "value": {
                                        "current": "17",
                                        "prev": "16",
                                        "typeTag": 1
                                    }
                                },
                                {
                                    "key": "0x91a5477a0a6d67649c5cf8379237ee67cb13e7a8",
                                    "value": {
                                        "current": "17",
                                        "prev": "16",
                                        "typeTag": 1
                                    }
                                },
                                {
                                    "key": "0x91b954a40361be8f54a2f727c9b38c34e8611009",
                                    "value": {
                                        "current": "17",
                                        "prev": "16",
                                        "typeTag": 1
                                    }
                                },
                                {
                                    "key": "0xc216aafbcd3f69321908a0f93a675a35953f19d6",
                                    "value": {
                                        "current": "17",
                                        "prev": "16",
                                        "typeTag": 1
                                    }
                                },
                                {
                                    "key": "0xcc248a26e43b029884c6e22b5ac3fd2cc6dd8b4e",
                                    "value": {
                                        "current": "17",
                                        "prev": "16",
                                        "typeTag": 1
                                    }
                                },
                                {
                                    "key": "0xd48dcbfdf69c17afe52ad6c3c112b104ba25b6a2",
                                    "value": {
                                        "current": "17",
                                        "prev": "16",
                                        "typeTag": 1
                                    }
                                },
                                {
                                    "key": "0xd7717f880d279874c51cf5f9ec39fcf3da66747e",
                                    "value": {
                                        "current": "17",
                                        "prev": "16",
                                        "typeTag": 1
                                    }
                                },
                                {
                                    "key": "0xf109c0f2c8dea1f69ee9553a4ea990377017bc33",
                                    "value": {
                                        "current": "17",
                                        "prev": "16",
                                        "typeTag": 1
                                    }
                                }
                            ],
                            "typeTag": 4
                        }
                    },
                    {
                        "name": "dividends",
                        "type": "struct CSToken.Dividend[]",
                        "value": {
                            "elemType": "struct CSToken.Dividend",
                            "elems": [
                                {
                                    "index": 17,
                                    "value": {
                                        "fields": [
                                            {
                                                "name": "countComplete",
                                                "type": "uint256",
                                                "value": {
                                                    "current": "25310",
                                                    "prev": "25300",
                                                    "typeTag": 1
                                                }
                                            }
                                        ],
                                        "typeTag": 3
                                    }
                                }
                            ],
                            "typeTag": 2
                        }
                    },
                    {
                        "name": "balances",
                        "type": "mapping(address => uint256)",
                        "value": {
                            "pairs": [
                                {
                                    "key": "0x276072373d89602d1ee99e4c147a72da6cce84b2",
                                    "value": {
                                        "current": "138337786787",
                                        "prev": "134308530862",
                                        "typeTag": 1
                                    }
                                },
                                {
                                    "key": "0x89457454660d8d6ba6921cbf76268ad98fff460b",
                                    "value": {
                                        "current": "520590572097",
                                        "prev": "505427739900",
                                        "typeTag": 1
                                    }
                                },
                                {
                                    "key": "0x91a5477a0a6d67649c5cf8379237ee67cb13e7a8",
                                    "value": {
                                        "current": "2227041374328",
                                        "prev": "2162176091581",
                                        "typeTag": 1
                                    }
                                },
                                {
                                    "key": "0xd48dcbfdf69c17afe52ad6c3c112b104ba25b6a2",
                                    "value": {
                                        "current": "44760816",
                                        "prev": "43457103",
                                        "typeTag": 1
                                    }
                                }
                            ],
                            "typeTag": 4
                        }
                    },
                    {
                        "name": "_totalSupply",
                        "type": "uint256",
                        "value": {
                            "current": "74530791704380030",
                            "prev": "74530707645705448",
                            "typeTag": 1
                        }
                    }
                ]
            }
        ]
    }
}