{
    "balance_change": {
        "balanceChanges": [
            {
                "account": "0x2796317b0ff8538f253012862c06787adfb8ceb6",
                "assets": [
                    {
                        "address": "0x1b84765de8b7566e4ceaf4d0fd3c5af52d3dde4f",
                        "amount": "29,980.297026870846411648",
                        "iconUrl": "",
                        "isERC1155": false,
                        "isERC721": false,
                        "sign": false,
                        "value": ""
                    }
                ]
            },
            {
                "account": "0x0000000000000000000000000000000000000000",
                "assets": [
                    {
                        "address": "0x1b84765de8b7566e4ceaf4d0fd3c5af52d3dde4f",
                        "amount": "29,980.297026870846411648",
                        "iconUrl": "",
                        "isERC1155": false,
                        "isERC721": false,
                        "sign": true,
                        "value": ""
                    }
                ]
            },
            {
                "account": "0x1116898dda4015ed8ddefb84b6e8bc24528af2d8",
                "assets": [
                    {
                        "address": "0xa0b86991c6218b36c1d19d4a2e9eb0ce3606eb48",
                        "amount": "30,015.799806",
                        "iconUrl": "https://assets.blocksec.com/icon/0347a86cc07dbd03fdc5db01a4e5ac7e1217f90e0b6e4bb0f75cbcca09160989.png",
                        "isERC1155": false,
                        "isERC721": false,
                        "sign": false,
                        "value": "30014.27561"
                    }
                ]
            },
            {
                "account": "0x64916cd4b15045fd156bc2a6460cd3207638e289",
                "assets": [
                    {
                        "address": "0xa0b86991c6218b36c1d19d4a2e9eb0ce3606eb48",
                        "amount": "30,015.799806",
                        "iconUrl": "https://assets.blocksec.com/icon/0347a86cc07dbd03fdc5db01a4e5ac7e1217f90e0b6e4bb0f75cbcca09160989.png",
                        "isERC1155": false,
                        "isERC721": false,
                        "sign": true,
                        "value": "30014.27561"
                    }
                ]
            }
        ]
    },
    "profile": {
        "basic_info": {
            "baseFee": "10.038058528",
            "blockNumber": 15576707,
            "callData": "0xd57eafac00000000000000000000000064916cd4b15045fd156bc2a6460cd3207638e2890000000000000000000000001b84765de8b7566e4ceaf4d0fd3c5af52d3dde4f00000000000000000000000000000000000000000000065b3012989f592df475000000000000000000000000000000000000000000000001f3df411ad0b220f50000000000000000000000001116898dda4015ed8ddefb84b6e8bc24528af2d8000000000000000000000000000000000000000000000000000000000000000100000000000000000000000000000000000000000000000000000006b63a54cb00000000000000000000000000000000000000000000000000000000632b62a5b42ec15cb72aa3f55f9f1a34366b0223adfba0e39cbfb0ee6ca1dae282e5cd53",
            "debugEnable": true,
            "errorInfo": "",
            "eventCount": 7,
            "feeRecipient": "0xba401cdac1a3b6aeede21c9c4a483be6c29f88c5",
            "formatValue": "0",
            "gasLimit": 1000000,
            "gasPrice": "10.272076626",
            "gasUsed": 292010,
            "intTxnCount": 25,
            "internalRevert": false,
            "internalRevertMessage": "",
            "isContractCreation": false,
            "isFlashloan": false,
            "maxFee": "900",
            "nonce": 108595,
            "overwritedBlockNumber": -1,
            "priorityFee": "0.234018098",
            "receiver": "0x2796317b0ff8538f253012862c06787adfb8ceb6",
            "revertMessage": "",
            "sender": "0x230a1ac45690b9ae1176389434610b9526d2f21b",
            "simulationEnable": true,
            "sourceTxnHash": "0xc6e4a60e4a821ea75ddac732c9dd0284e54b32f0c3f7da0c97b24b46863400bd",
            "status": true,
            "timestamp": "2022-09-20T19:15:23Z",
            "transactionFee": "0.00299954909555826",
            "txnHash": "0xc6e4a60e4a821ea75ddac732c9dd0284e54b32f0c3f7da0c97b24b46863400bd",
            "txnIndex": 317,
            "type": 2,
            "value": "0"
        },
        "fund_flow": [
            {
                "amount": "29,980.297026870846411648",
                "from": "0x2796317b0ff8538f253012862c06787adfb8ceb6",
                "id": 1,
                "isERC1155": false,
                "isERC721": false,
                "isReverted": false,
                "order": 1,
                "to": "0x0000000000000000000000000000000000000000",
                "token": "0x1b84765de8b7566e4ceaf4d0fd3c5af52d3dde4f"
            },
            {
                "amount": "30,015.799806",
                "from": "0x1116898dda4015ed8ddefb84b6e8bc24528af2d8",
                "id": 2,
                "isERC1155": false,
                "isERC721": false,
                "isReverted": false,
                "order": 2,
                "to": "0x2796317b0ff8538f253012862c06787adfb8ceb6",
                "token": "0xa0b86991c6218b36c1d19d4a2e9eb0ce3606eb48"
            },
            {
                "amount": "30,015.799806",
                "from": "0x2796317b0ff8538f253012862c06787adfb8ceb6",
                "id": 3,
                "isERC1155": false,
                "isERC721": false,
                "isReverted": false,
                "order": 3,
                "to": "0x64916cd4b15045fd156bc2a6460cd3207638e289",
                "token": "0xa0b86991c6218b36c1d19d4a2e9eb0ce3606eb48"
            }
        ],
        "token_infos": [
            {
                "address": "0xa0b86991c6218b36c1d19d4a2e9eb0ce3606eb48",
                "decimals": 6
            },
            {
                "address": "0xc02aaa39b223fe8d0a0e5c4f27ead9083c756cc2",
                "decimals": 18
            },
            {
                "address": "0xeeeeeeeeeeeeeeeeeeeeeeeeeeeeeeeeeeeeeeee",
                "decimals": 18
            },
            {
                "address": "0x1b84765de8b7566e4ceaf4d0fd3c5af52d3dde4f",
                "decimals": 18
            }
        ]
    },
    "address_label": {
        "labels": [
            {
                "address": "0x1116898dda4015ed8ddefb84b6e8bc24528af2d8",
                "label": "Synapse: Stable Liquidity Pool"
            },
            {
                "address": "0x2796317b0ff8538f253012862c06787adfb8ceb6",
                "label": "Synapse: Bridge"
            },
            {
                "address": "0xa0b86991c6218b36c1d19d4a2e9eb0ce3606eb48",
                "label": "Circle: USDC Token"
            },
            {
                "address": "0xa2327a938febf5fec13bacfb16ae10ecbc4cbdcf",
                "label": "FiatTokenV2_1"
            },
            {
                "address": "0x230a1ac45690b9ae1176389434610b9526d2f21b",
                "label": "Synapse: Executor"
            },
            {
                "address": "0x0000000000000000000000000000000000000001",
                "label": "Precompiled"
            },
            {
                "address": "0x0000000000000000000000000000000000000002",
                "label": "Precompiled"
            },
            {
                "address": "0x31fe393815822edacbd81c2262467402199efd0d",
                "label": "Synapse: Bridge Implementation"
            },
            {
                "address": "0x6c8c6e68604e78b549c96907bfe9ebdaac04e3b3",
                "label": "Nerve LP Token (Target) (nerveLPTo...)"
            },
            {
                "address": "0x5a5fff6f753d7c11a56a52fe47a177a87e431655",
                "label": "SwapFlashLoan"
            },
            {
                "address": "0x0000000000000000000000000000000000000003",
                "label": "Precompiled"
            },
            {
                "address": "0x0000000000000000000000000000000000000004",
                "label": "Precompiled"
            },
            {
                "address": "0xeeeeeeeeeeeeeeeeeeeeeeeeeeeeeeeeeeeeeeee",
                "label": "Ether"
            },
            {
                "address": "0x1b84765de8b7566e4ceaf4d0fd3c5af52d3dde4f",
                "label": "nUSD (nUSD)"
            },
            {
                "address": "0x11199a9ee50127f335b84a1eeb961d8a85147f5f",
                "label": "SwapUtils"
            }
        ]
    },
    "trace": {
        "accountLabels": null,
        "dataMap": {
            "-1": {
                "invocation": {
                    "address": "0x230a1ac45690b9ae1176389434610b9526d2f21b",
                    "callData": "",
                    "decodedMethod": null,
                    "errorInfo": "",
                    "fromAddress": "",
                    "gasUsed": 0,
                    "id": -1,
                    "methodDecoded": false,
                    "operation": "",
                    "output": "",
                    "revert": false,
                    "revertMessage": "",
                    "selector": "",
                    "status": false,
                    "value": ""
                },
                "nodeType": 0
            },
            "0": {
                "invocation": {
                    "address": "0x2796317b0ff8538f253012862c06787adfb8ceb6",
                    "callData": "0x00000000000000000000000064916cd4b15045fd156bc2a6460cd3207638e2890000000000000000000000001b84765de8b7566e4ceaf4d0fd3c5af52d3dde4f00000000000000000000000000000000000000000000065b3012989f592df475000000000000000000000000000000000000000000000001f3df411ad0b220f50000000000000000000000001116898dda4015ed8ddefb84b6e8bc24528af2d8000000000000000000000000000000000000000000000000000000000000000100000000000000000000000000000000000000000000000000000006b63a54cb00000000000000000000000000000000000000000000000000000000632b62a5b42ec15cb72aa3f55f9f1a34366b0223adfba0e39cbfb0ee6ca1dae282e5cd53",
                    "decodedMethod": {
                        "callParams": [
                            {
                                "name": "to",
                                "type": "address",
                                "value": "0x64916cd4b15045fd156bc2a6460cd3207638e289"
                            },
                            {
                                "name": "token",
                                "type": "address",
                                "value": "0x1b84765de8b7566e4ceaf4d0fd3c5af52d3dde4f"
                            },
                            {
                                "name": "amount",
                                "type": "uint256",
                                "value": "30,016,316,606,799,005,217,909"
                            },
                            {
                                "name": "fee",
                                "type": "uint256",
                                "value": "36,019,579,928,158,806,261"
                            },
                            {
                                "name": "pool",
                                "type": "address",
                                "value": "0x1116898dda4015ed8ddefb84b6e8bc24528af2d8"
                            },
                            {
                                "name": "swapTokenIndex",
                                "type": "uint8",
                                "value": "1"
                            },
                            {
                                "name": "swapMinAmount",
                                "type": "uint256",
                                "value": "28,827,079,883"
                            },
                            {
                                "name": "swapDeadline",
                                "type": "uint256",
                                "value": "1,663,787,685"
                            },
                            {
                                "name": "kappa",
                                "type": "bytes32",
                                "value": "0xb42ec15cb72aa3f55f9f1a34366b0223adfba0e39cbfb0ee6ca1dae282e5cd53"
                            }
                        ],
                        "constructorArguments": "",
                        "name": "withdrawAndRemove",
                        "returnParams": [],
                        "signature": "withdrawAndRemove(address,address,uint256,uint256,address,uint8,uint256,uint256,bytes32)"
                    },
                    "errorInfo": "",
                    "fromAddress": "0x230a1ac45690b9ae1176389434610b9526d2f21b",
                    "gasUsed": 292010,
                    "id": 0,
                    "methodDecoded": true,
                    "operation": "CALL",
                    "output": "",
                    "revert": false,
                    "revertMessage": "",
                    "selector": "0xd57eafac",
                    "status": true,
                    "value": "0"
                },
                "nodeType": 0
            },
            "1": {
                "invocation": {
                    "address": "0x31fe393815822edacbd81c2262467402199efd0d",
                    "callData": "0x00000000000000000000000064916cd4b15045fd156bc2a6460cd3207638e2890000000000000000000000001b84765de8b7566e4ceaf4d0fd3c5af52d3dde4f00000000000000000000000000000000000000000000065b3012989f592df475000000000000000000000000000000000000000000000001f3df411ad0b220f50000000000000000000000001116898dda4015ed8ddefb84b6e8bc24528af2d8000000000000000000000000000000000000000000000000000000000000000100000000000000000000000000000000000000000000000000000006b63a54cb00000000000000000000000000000000000000000000000000000000632b62a5b42ec15cb72aa3f55f9f1a34366b0223adfba0e39cbfb0ee6ca1dae282e5cd53",
                    "decodedMethod": {
                        "callParams": [
                            {
                                "name": "to",
                                "type": "address",
                                "value": "0x64916cd4b15045fd156bc2a6460cd3207638e289"
                            },
                            {
                                "name": "token",
                                "type": "address",
                                "value": "0x1b84765de8b7566e4ceaf4d0fd3c5af52d3dde4f"
                            },
                            {
                                "name": "amount",
                                "type": "uint256",
                                "value": "30,016,316,606,799,005,217,909"
                            },
                            {
                                "name": "fee",
                                "type": "uint256",
                                "value": "36,019,579,928,158,806,261"
                            },
                            {
                                "name": "pool",
                                "type": "address",
                                "value": "0x1116898dda4015ed8ddefb84b6e8bc24528af2d8"
                            },
                            {
                                "name": "swapTokenIndex",
                                "type": "uint8",
                                "value": "1"
                            },
                            {
                                "name": "swapMinAmount",
                                "type": "uint256",
                                "value": "28,827,079,883"
                            },
                            {
                                "name": "swapDeadline",
                                "type": "uint256",
                                "value": "1,663,787,685"
                            },
                            {
                                "name": "kappa",
                                "type": "bytes32",
                                "value": "0xb42ec15cb72aa3f55f9f1a34366b0223adfba0e39cbfb0ee6ca1dae282e5cd53"
                            }
                        ],
                        "constructorArguments": "",
                        "name": "withdrawAndRemove",
                        "returnParams": [],
                        "signature": "withdrawAndRemove(address,address,uint256,uint256,address,uint8,uint256,uint256,bytes32)"
                    },
                    "errorInfo": "",
                    "fromAddress": "0x2796317b0ff8538f253012862c06787adfb8ceb6",
                    "gasUsed": 272303,
                    "id": 1,
                    "methodDecoded": true,
                    "operation": "DELEGATECALL",
                    "output": "",
                    "revert": false,
                    "revertMessage": "",
                    "selector": "0xd57eafac",
                    "status": true,
                    "value": "0"
                },
                "nodeType": 0
            },
            "10": {
                "invocation": {
                    "address": "0x6c8c6e68604e78b549c96907bfe9ebdaac04e3b3",
                    "callData": "0x0000000000000000000000001116898dda4015ed8ddefb84b6e8bc24528af2d8000000000000000000000000000000000000000000005ec78ac58bfcb557e7e2",
                    "decodedMethod": {
                        "callParams": [
                            {
                                "name": "spender",
                                "type": "address",
                                "value": "0x1116898dda4015ed8ddefb84b6e8bc24528af2d8"
                            },
                            {
                                "decimalAvailable": true,
                                "name": "amount",
                                "type": "uint256",
                                "value": "447,583,351,012,879,987,369,954"
                            }
                        ],
                        "constructorArguments": "",
                        "name": "approve",
                        "returnParams": [
                            {
                                "name": "",
                                "type": "bool",
                                "value": true
                            }
                        ],
                        "signature": "approve(address,uint256)"
                    },
                    "errorInfo": "",
                    "fromAddress": "0x1b84765de8b7566e4ceaf4d0fd3c5af52d3dde4f",
                    "gasUsed": 5314,
                    "id": 10,
                    "methodDecoded": true,
                    "operation": "DELEGATECALL",
                    "output": "0x0000000000000000000000000000000000000000000000000000000000000001",
                    "revert": false,
                    "revertMessage": "",
                    "selector": "0x095ea7b3",
                    "status": true,
                    "value": "0"
                },
                "nodeType": 0
            },
            "11": {
                "event": {
                    "contract": "0x1b84765de8b7566e4ceaf4d0fd3c5af52d3dde4f",
                    "decodedLog": {
                        "name": "Approval",
                        "params": [
                            {
                                "name": "owner",
                                "type": "address",
                                "value": "0x2796317b0ff8538f253012862c06787adfb8ceb6"
                            },
                            {
                                "name": "spender",
                                "type": "address",
                                "value": "0x1116898dda4015ed8ddefb84b6e8bc24528af2d8"
                            },
                            {
                                "decimalAvailable": true,
                                "name": "value",
                                "type": "uint256",
                                "value": "447,583,351,012,879,987,369,954"
                            }
                        ],
                        "signature": "Approval(address,address,uint256)"
                    },
                    "id": 11,
                    "logData": "0x000000000000000000000000000000000000000000005ec78ac58bfcb557e7e2",
                    "logDecoded": true,
                    "operation": "EVENT",
                    "revert": false,
                    "status": true,
                    "topics": [
                        "0x8c5be1e5ebec7d5bd14f71427d1e84f3dd0314c0f7b2291e5b200ac8c7c3b925",
                        "0x0000000000000000000000002796317b0ff8538f253012862c06787adfb8ceb6",
                        "0x0000000000000000000000001116898dda4015ed8ddefb84b6e8bc24528af2d8"
                    ]
                },
                "nodeType": 1
            },
            "12": {
                "invocation": {
                    "address": "0x1116898dda4015ed8ddefb84b6e8bc24528af2d8",
                    "callData": "0x0000000000000000000000000000000000000000000006593c335784887bd380000000000000000000000000000000000000000000000000000000000000000100000000000000000000000000000000000000000000000000000006b63a54cb00000000000000000000000000000000000000000000000000000000632b62a5",
                    "decodedMethod": {
                        "callParams": [
                            {
                                "name": "tokenAmount",
                                "type": "uint256",
                                "value": "29,980,297,026,870,846,411,648"
                            },
                            {
                                "name": "tokenIndex",
                                "type": "uint8",
                                "value": "1"
                            },
                            {
                                "name": "minAmount",
                                "type": "uint256",
                                "value": "28,827,079,883"
                            },
                            {
                                "name": "deadline",
                                "type": "uint256",
                                "value": "1,663,787,685"
                            }
                        ],
                        "constructorArguments": "",
                        "name": "removeLiquidityOneToken",
                        "returnParams": [
                            {
                                "name": "",
                                "type": "uint256",
                                "value": "30,015,799,806"
                            }
                        ],
                        "signature": "removeLiquidityOneToken(uint256,uint8,uint256,uint256)"
                    },
                    "errorInfo": "",
                    "fromAddress": "0x2796317b0ff8538f253012862c06787adfb8ceb6",
                    "gasUsed": 109879,
                    "id": 12,
                    "methodDecoded": true,
                    "operation": "CALL",
                    "output": "0x00000000000000000000000000000000000000000000000000000006fd14c1fe",
                    "revert": false,
                    "revertMessage": "",
                    "selector": "0x3e3a1560",
                    "status": true,
                    "value": "0"
                },
                "nodeType": 0
            },
            "13": {
                "invocation": {
                    "address": "0x5a5fff6f753d7c11a56a52fe47a177a87e431655",
                    "callData": "0x0000000000000000000000000000000000000000000006593c335784887bd380000000000000000000000000000000000000000000000000000000000000000100000000000000000000000000000000000000000000000000000006b63a54cb00000000000000000000000000000000000000000000000000000000632b62a5",
                    "decodedMethod": {
                        "callParams": [
                            {
                                "name": "tokenAmount",
                                "type": "uint256",
                                "value": "29,980,297,026,870,846,411,648"
                            },
                            {
                                "name": "tokenIndex",
                                "type": "uint8",
                                "value": "1"
                            },
                            {
                                "name": "minAmount",
                                "type": "uint256",
                                "value": "28,827,079,883"
                            },
                            {
                                "name": "deadline",
                                "type": "uint256",
                                "value": "1,663,787,685"
                            }
                        ],
                        "constructorArguments": "",
                        "name": "removeLiquidityOneToken",
                        "returnParams": [
                            {
                                "name": "",
                                "type": "uint256",
                                "value": "30,015,799,806"
                            }
                        ],
                        "signature": "removeLiquidityOneToken(uint256,uint8,uint256,uint256)"
                    },
                    "errorInfo": "",
                    "fromAddress": "0x1116898dda4015ed8ddefb84b6e8bc24528af2d8",
                    "gasUsed": 109689,
                    "id": 13,
                    "methodDecoded": true,
                    "operation": "DELEGATECALL",
                    "output": "0x00000000000000000000000000000000000000000000000000000006fd14c1fe",
                    "revert": false,
                    "revertMessage": "",
                    "selector": "0x3e3a1560",
                    "status": true,
                    "value": "0"
                },
                "nodeType": 0
            },
            "14": {
                "invocation": {
                    "address": "0x11199a9ee50127f335b84a1eeb961d8a85147f5f",
                    "callData": "0x00000000000000000000000000000000000000000000000000000000000000c90000000000000000000000000000000000000000000006593c335784887bd380000000000000000000000000000000000000000000000000000000000000000100000000000000000000000000000000000000000000000000000006b63a54cb",
                    "decodedMethod": null,
                    "errorInfo": "",
                    "fromAddress": "0x1116898dda4015ed8ddefb84b6e8bc24528af2d8",
                    "gasUsed": 101531,
                    "id": 14,
                    "methodDecoded": false,
                    "operation": "DELEGATECALL",
                    "output": "0x00000000000000000000000000000000000000000000000000000006fd14c1fe",
                    "revert": false,
                    "revertMessage": "",
                    "selector": "0xe7a4db81",
                    "status": true,
                    "value": "0"
                },
                "nodeType": 0
            },
            "15": {
                "invocation": {
                    "address": "0x1b84765de8b7566e4ceaf4d0fd3c5af52d3dde4f",
                    "callData": "0x0000000000000000000000002796317b0ff8538f253012862c06787adfb8ceb6",
                    "decodedMethod": {
                        "callParams": [
                            {
                                "name": "account",
                                "type": "address",
                                "value": "0x2796317b0ff8538f253012862c06787adfb8ceb6"
                            }
                        ],
                        "constructorArguments": "",
                        "name": "balanceOf",
                        "returnParams": [
                            {
                                "decimalAvailable": true,
                                "name": "",
                                "type": "uint256",
                                "value": "22,941,664,576,285,477,166,597,151"
                            }
                        ],
                        "signature": "balanceOf(address)"
                    },
                    "errorInfo": "",
                    "fromAddress": "0x1116898dda4015ed8ddefb84b6e8bc24528af2d8",
                    "gasUsed": 2613,
                    "id": 15,
                    "methodDecoded": true,
                    "operation": "STATICCALL",
                    "output": "0x00000000000000000000000000000000000000000012fa1620f29f4fe73b441f",
                    "revert": false,
                    "revertMessage": "",
                    "selector": "0x70a08231",
                    "status": true,
                    "value": "0"
                },
                "nodeType": 0
            },
            "16": {
                "invocation": {
                    "address": "0x6c8c6e68604e78b549c96907bfe9ebdaac04e3b3",
                    "callData": "0x0000000000000000000000002796317b0ff8538f253012862c06787adfb8ceb6",
                    "decodedMethod": {
                        "callParams": [
                            {
                                "name": "account",
                                "type": "address",
                                "value": "0x2796317b0ff8538f253012862c06787adfb8ceb6"
                            }
                        ],
                        "constructorArguments": "",
                        "name": "balanceOf",
                        "returnParams": [
                            {
                                "decimalAvailable": true,
                                "name": "",
                                "type": "uint256",
                                "value": "22,941,664,576,285,477,166,597,151"
                            }
                        ],
                        "signature": "balanceOf(address)"
                    },
                    "errorInfo": "",
                    "fromAddress": "0x1b84765de8b7566e4ceaf4d0fd3c5af52d3dde4f",
                    "gasUsed": 2441,
                    "id": 16,
                    "methodDecoded": true,
                    "operation": "DELEGATECALL",
                    "output": "0x00000000000000000000000000000000000000000012fa1620f29f4fe73b441f",
                    "revert": false,
                    "revertMessage": "",
                    "selector": "0x70a08231",
                    "status": true,
                    "value": "0"
                },
                "nodeType": 0
            },
            "17": {
                "invocation": {
                    "address": "0x1b84765de8b7566e4ceaf4d0fd3c5af52d3dde4f",
                    "callData": "0x",
                    "decodedMethod": {
                        "callParams": [],
                        "constructorArguments": "",
                        "name": "totalSupply",
                        "returnParams": [
                            {
                                "name": "",
                                "type": "uint256",
                                "value": "22,987,129,211,015,338,169,318,709"
                            }
                        ],
                        "signature": "totalSupply()"
                    },
                    "errorInfo": "",
                    "fromAddress": "0x1116898dda4015ed8ddefb84b6e8bc24528af2d8",
                    "gasUsed": 532,
                    "id": 17,
                    "methodDecoded": true,
                    "operation": "STATICCALL",
                    "output": "0x0000000000000000000000000000000000000000001303b6c58054298401bd35",
                    "revert": false,
                    "revertMessage": "",
                    "selector": "0x18160ddd",
                    "status": true,
                    "value": "0"
                },
                "nodeType": 0
            },
            "18": {
                "invocation": {
                    "address": "0x6c8c6e68604e78b549c96907bfe9ebdaac04e3b3",
                    "callData": "0x",
                    "decodedMethod": {
                        "callParams": [],
                        "constructorArguments": "",
                        "name": "totalSupply",
                        "returnParams": [
                            {
                                "name": "",
                                "type": "uint256",
                                "value": "22,987,129,211,015,338,169,318,709"
                            }
                        ],
                        "signature": "totalSupply()"
                    },
                    "errorInfo": "",
                    "fromAddress": "0x1b84765de8b7566e4ceaf4d0fd3c5af52d3dde4f",
                    "gasUsed": 366,
                    "id": 18,
                    "methodDecoded": true,
                    "operation": "DELEGATECALL",
                    "output": "0x0000000000000000000000000000000000000000001303b6c58054298401bd35",
                    "revert": false,
                    "revertMessage": "",
                    "selector": "0x18160ddd",
                    "status": true,
                    "value": "0"
                },
                "nodeType": 0
            },
            "19": {
                "invocation": {
                    "address": "0x1b84765de8b7566e4ceaf4d0fd3c5af52d3dde4f",
                    "callData": "0x0000000000000000000000002796317b0ff8538f253012862c06787adfb8ceb60000000000000000000000000000000000000000000006593c335784887bd380",
                    "decodedMethod": {
                        "callParams": [
                            {
                                "name": "account",
                                "type": "address",
                                "value": "0x2796317b0ff8538f253012862c06787adfb8ceb6"
                            },
                            {
                                "name": "amount",
                                "type": "uint256",
                                "value": "29,980,297,026,870,846,411,648"
                            }
                        ],
                        "constructorArguments": "",
                        "name": "burnFrom",
                        "returnParams": [],
                        "signature": "burnFrom(address,uint256)"
                    },
                    "errorInfo": "",
                    "fromAddress": "0x1116898dda4015ed8ddefb84b6e8bc24528af2d8",
                    "gasUsed": 11491,
                    "id": 19,
                    "methodDecoded": true,
                    "operation": "CALL",
                    "output": "",
                    "revert": false,
                    "revertMessage": "",
                    "selector": "0x79cc6790",
                    "status": true,
                    "value": "0"
                },
                "nodeType": 0
            },
            "2": {
                "invocation": {
                    "address": "0x1116898dda4015ed8ddefb84b6e8bc24528af2d8",
                    "callData": "0x0000000000000000000000000000000000000000000006593c335784887bd3800000000000000000000000000000000000000000000000000000000000000001",
                    "decodedMethod": {
                        "callParams": [
                            {
                                "name": "tokenAmount",
                                "type": "uint256",
                                "value": "29,980,297,026,870,846,411,648"
                            },
                            {
                                "name": "tokenIndex",
                                "type": "uint8",
                                "value": "1"
                            }
                        ],
                        "constructorArguments": "",
                        "name": "calculateRemoveLiquidityOneToken",
                        "returnParams": [
                            {
                                "name": "availableTokenAmount",
                                "type": "uint256",
                                "value": "30,015,799,806"
                            }
                        ],
                        "signature": "calculateRemoveLiquidityOneToken(uint256,uint8)"
                    },
                    "errorInfo": "",
                    "fromAddress": "0x2796317b0ff8538f253012862c06787adfb8ceb6",
                    "gasUsed": 75504,
                    "id": 2,
                    "methodDecoded": true,
                    "operation": "STATICCALL",
                    "output": "0x00000000000000000000000000000000000000000000000000000006fd14c1fe",
                    "revert": false,
                    "revertMessage": "",
                    "selector": "0x342a87a1",
                    "status": true,
                    "value": "0"
                },
                "nodeType": 0
            },
            "20": {
                "invocation": {
                    "address": "0x6c8c6e68604e78b549c96907bfe9ebdaac04e3b3",
                    "callData": "0x0000000000000000000000002796317b0ff8538f253012862c06787adfb8ceb60000000000000000000000000000000000000000000006593c335784887bd380",
                    "decodedMethod": {
                        "callParams": [
                            {
                                "name": "account",
                                "type": "address",
                                "value": "0x2796317b0ff8538f253012862c06787adfb8ceb6"
                            },
                            {
                                "name": "amount",
                                "type": "uint256",
                                "value": "29,980,297,026,870,846,411,648"
                            }
                        ],
                        "constructorArguments": "",
                        "name": "burnFrom",
                        "returnParams": [],
                        "signature": "burnFrom(address,uint256)"
                    },
                    "errorInfo": "",
                    "fromAddress": "0x1b84765de8b7566e4ceaf4d0fd3c5af52d3dde4f",
                    "gasUsed": 11316,
                    "id": 20,
                    "methodDecoded": true,
                    "operation": "DELEGATECALL",
                    "output": "",
                    "revert": false,
                    "revertMessage": "",
                    "selector": "0x79cc6790",
                    "status": true,
                    "value": "0"
                },
                "nodeType": 0
            },
            "21": {
                "event": {
                    "contract": "0x1b84765de8b7566e4ceaf4d0fd3c5af52d3dde4f",
                    "decodedLog": {
                        "name": "Approval",
                        "params": [
                            {
                                "name": "owner",
                                "type": "address",
                                "value": "0x2796317b0ff8538f253012862c06787adfb8ceb6"
                            },
                            {
                                "name": "spender",
                                "type": "address",
                                "value": "0x1116898dda4015ed8ddefb84b6e8bc24528af2d8"
                            },
                            {
                                "decimalAvailable": true,
                                "name": "value",
                                "type": "uint256",
                                "value": "417,603,053,986,009,140,958,306"
                            }
                        ],
                        "signature": "Approval(address,address,uint256)"
                    },
                    "id": 21,
                    "logData": "0x00000000000000000000000000000000000000000000586e4e9234782cdc1462",
                    "logDecoded": true,
                    "operation": "EVENT",
                    "revert": false,
                    "status": true,
                    "topics": [
                        "0x8c5be1e5ebec7d5bd14f71427d1e84f3dd0314c0f7b2291e5b200ac8c7c3b925",
                        "0x0000000000000000000000002796317b0ff8538f253012862c06787adfb8ceb6",
                        "0x0000000000000000000000001116898dda4015ed8ddefb84b6e8bc24528af2d8"
                    ]
                },
                "nodeType": 1
            },
            "22": {
                "event": {
                    "contract": "0x1b84765de8b7566e4ceaf4d0fd3c5af52d3dde4f",
                    "decodedLog": {
                        "name": "Transfer",
                        "params": [
                            {
                                "name": "from",
                                "type": "address",
                                "value": "0x2796317b0ff8538f253012862c06787adfb8ceb6"
                            },
                            {
                                "name": "to",
                                "type": "address",
                                "value": "0x0000000000000000000000000000000000000000"
                            },
                            {
                                "decimalAvailable": true,
                                "name": "value",
                                "type": "uint256",
                                "value": "29,980,297,026,870,846,411,648"
                            }
                        ],
                        "signature": "Transfer(address,address,uint256)"
                    },
                    "id": 22,
                    "logData": "0x0000000000000000000000000000000000000000000006593c335784887bd380",
                    "logDecoded": true,
                    "operation": "EVENT",
                    "revert": false,
                    "status": true,
                    "topics": [
                        "0xddf252ad1be2c89b69c2b068fc378daa952ba7f163c4a11628f55a4df523b3ef",
                        "0x0000000000000000000000002796317b0ff8538f253012862c06787adfb8ceb6",
                        "0x0000000000000000000000000000000000000000000000000000000000000000"
                    ]
                },
                "nodeType": 1
            },
            "23": {
                "invocation": {
                    "address": "0xa0b86991c6218b36c1d19d4a2e9eb0ce3606eb48",
                    "callData": "0x0000000000000000000000002796317b0ff8538f253012862c06787adfb8ceb600000000000000000000000000000000000000000000000000000006fd14c1fe",
                    "decodedMethod": {
                        "callParams": [
                            {
                                "name": "to",
                                "type": "address",
                                "value": "0x2796317b0ff8538f253012862c06787adfb8ceb6"
                            },
                            {
                                "decimalAvailable": true,
                                "name": "value",
                                "type": "uint256",
                                "value": "30,015,799,806"
                            }
                        ],
                        "constructorArguments": "",
                        "name": "transfer",
                        "returnParams": [
                            {
                                "name": "",
                                "type": "bool",
                                "value": true
                            }
                        ],
                        "signature": "transfer(address,uint256)"
                    },
                    "errorInfo": "",
                    "fromAddress": "0x1116898dda4015ed8ddefb84b6e8bc24528af2d8",
                    "gasUsed": 26917,
                    "id": 23,
                    "methodDecoded": true,
                    "operation": "CALL",
                    "output": "0x0000000000000000000000000000000000000000000000000000000000000001",
                    "revert": false,
                    "revertMessage": "",
                    "selector": "0xa9059cbb",
                    "status": true,
                    "value": "0"
                },
                "nodeType": 0
            },
            "24": {
                "invocation": {
                    "address": "0xa2327a938febf5fec13bacfb16ae10ecbc4cbdcf",
                    "callData": "0x0000000000000000000000002796317b0ff8538f253012862c06787adfb8ceb600000000000000000000000000000000000000000000000000000006fd14c1fe",
                    "decodedMethod": {
                        "callParams": [
                            {
                                "name": "to",
                                "type": "address",
                                "value": "0x2796317b0ff8538f253012862c06787adfb8ceb6"
                            },
                            {
                                "decimalAvailable": true,
                                "name": "value",
                                "type": "uint256",
                                "value": "30,015,799,806"
                            }
                        ],
                        "constructorArguments": "",
                        "name": "transfer",
                        "returnParams": [
                            {
                                "name": "",
                                "type": "bool",
                                "value": true
                            }
                        ],
                        "signature": "transfer(address,uint256)"
                    },
                    "errorInfo": "",
                    "fromAddress": "0xa0b86991c6218b36c1d19d4a2e9eb0ce3606eb48",
                    "gasUsed": 19628,
                    "id": 24,
                    "methodDecoded": true,
                    "operation": "DELEGATECALL",
                    "output": "0x0000000000000000000000000000000000000000000000000000000000000001",
                    "revert": false,
                    "revertMessage": "",
                    "selector": "0xa9059cbb",
                    "status": true,
                    "value": "0"
                },
                "nodeType": 0
            },
            "25": {
                "event": {
                    "contract": "0xa0b86991c6218b36c1d19d4a2e9eb0ce3606eb48",
                    "decodedLog": {
                        "name": "Transfer",
                        "params": [
                            {
                                "name": "from",
                                "type": "address",
                                "value": "0x1116898dda4015ed8ddefb84b6e8bc24528af2d8"
                            },
                            {
                                "name": "to",
                                "type": "address",
                                "value": "0x2796317b0ff8538f253012862c06787adfb8ceb6"
                            },
                            {
                                "decimalAvailable": true,
                                "name": "value",
                                "type": "uint256",
                                "value": "30,015,799,806"
                            }
                        ],
                        "signature": "Transfer(address,address,uint256)"
                    },
                    "id": 25,
                    "logData": "0x00000000000000000000000000000000000000000000000000000006fd14c1fe",
                    "logDecoded": true,
                    "operation": "EVENT",
                    "revert": false,
                    "status": true,
                    "topics": [
                        "0xddf252ad1be2c89b69c2b068fc378daa952ba7f163c4a11628f55a4df523b3ef",
                        "0x0000000000000000000000001116898dda4015ed8ddefb84b6e8bc24528af2d8",
                        "0x0000000000000000000000002796317b0ff8538f253012862c06787adfb8ceb6"
                    ]
                },
                "nodeType": 1
            },
            "26": {
                "event": {
                    "contract": "0x1116898dda4015ed8ddefb84b6e8bc24528af2d8",
                    "decodedLog": {
                        "name": "RemoveLiquidityOne",
                        "params": [
                            {
                                "name": "provider",
                                "type": "address",
                                "value": "0x2796317b0ff8538f253012862c06787adfb8ceb6"
                            },
                            {
                                "name": "lpTokenAmount",
                                "type": "uint256",
                                "value": "29,980,297,026,870,846,411,648"
                            },
                            {
                                "name": "lpTokenSupply",
                                "type": "uint256",
                                "value": "22,987,129,211,015,338,169,318,709"
                            },
                            {
                                "name": "boughtId",
                                "type": "uint256",
                                "value": "1"
                            },
                            {
                                "name": "tokensBought",
                                "type": "uint256",
                                "value": "30,015,799,806"
                            }
                        ],
                        "signature": "RemoveLiquidityOne(address,uint256,uint256,uint256,uint256)"
                    },
                    "id": 26,
                    "logData": "0x0000000000000000000000000000000000000000000006593c335784887bd3800000000000000000000000000000000000000000001303b6c58054298401bd35000000000000000000000000000000000000000000000000000000000000000100000000000000000000000000000000000000000000000000000006fd14c1fe",
                    "logDecoded": true,
                    "operation": "EVENT",
                    "revert": false,
                    "status": true,
                    "topics": [
                        "0x43fb02998f4e03da2e0e6fff53fdbf0c40a9f45f145dc377fc30615d7d7a8a64",
                        "0x0000000000000000000000002796317b0ff8538f253012862c06787adfb8ceb6"
                    ]
                },
                "nodeType": 1
            },
            "27": {
                "invocation": {
                    "address": "0x1116898dda4015ed8ddefb84b6e8bc24528af2d8",
                    "callData": "0x0000000000000000000000000000000000000000000000000000000000000001",
                    "decodedMethod": {
                        "callParams": [
                            {
                                "name": "index",
                                "type": "uint8",
                                "value": "1"
                            }
                        ],
                        "constructorArguments": "",
                        "name": "getToken",
                        "returnParams": [
                            {
                                "name": "",
                                "type": "address",
                                "value": "0xa0b86991c6218b36c1d19d4a2e9eb0ce3606eb48"
                            }
                        ],
                        "signature": "getToken(uint8)"
                    },
                    "errorInfo": "",
                    "fromAddress": "0x2796317b0ff8538f253012862c06787adfb8ceb6",
                    "gasUsed": 983,
                    "id": 27,
                    "methodDecoded": true,
                    "operation": "STATICCALL",
                    "output": "0x000000000000000000000000a0b86991c6218b36c1d19d4a2e9eb0ce3606eb48",
                    "revert": false,
                    "revertMessage": "",
                    "selector": "0x82b86600",
                    "status": true,
                    "value": "0"
                },
                "nodeType": 0
            },
            "28": {
                "invocation": {
                    "address": "0x5a5fff6f753d7c11a56a52fe47a177a87e431655",
                    "callData": "0x0000000000000000000000000000000000000000000000000000000000000001",
                    "decodedMethod": {
                        "callParams": [
                            {
                                "name": "index",
                                "type": "uint8",
                                "value": "1"
                            }
                        ],
                        "constructorArguments": "",
                        "name": "getToken",
                        "returnParams": [
                            {
                                "name": "",
                                "type": "address",
                                "value": "0xa0b86991c6218b36c1d19d4a2e9eb0ce3606eb48"
                            }
                        ],
                        "signature": "getToken(uint8)"
                    },
                    "errorInfo": "",
                    "fromAddress": "0x1116898dda4015ed8ddefb84b6e8bc24528af2d8",
                    "gasUsed": 811,
                    "id": 28,
                    "methodDecoded": true,
                    "operation": "DELEGATECALL",
                    "output": "0x000000000000000000000000a0b86991c6218b36c1d19d4a2e9eb0ce3606eb48",
                    "revert": false,
                    "revertMessage": "",
                    "selector": "0x82b86600",
                    "status": true,
                    "value": "0"
                },
                "nodeType": 0
            },
            "29": {
                "invocation": {
                    "address": "0xa0b86991c6218b36c1d19d4a2e9eb0ce3606eb48",
                    "callData": "0x00000000000000000000000064916cd4b15045fd156bc2a6460cd3207638e28900000000000000000000000000000000000000000000000000000006fd14c1fe",
                    "decodedMethod": {
                        "callParams": [
                            {
                                "name": "to",
                                "type": "address",
                                "value": "0x64916cd4b15045fd156bc2a6460cd3207638e289"
                            },
                            {
                                "decimalAvailable": true,
                                "name": "value",
                                "type": "uint256",
                                "value": "30,015,799,806"
                            }
                        ],
                        "constructorArguments": "",
                        "name": "transfer",
                        "returnParams": [
                            {
                                "name": "",
                                "type": "bool",
                                "value": true
                            }
                        ],
                        "signature": "transfer(address,uint256)"
                    },
                    "errorInfo": "",
                    "fromAddress": "0x2796317b0ff8538f253012862c06787adfb8ceb6",
                    "gasUsed": 28717,
                    "id": 29,
                    "methodDecoded": true,
                    "operation": "CALL",
                    "output": "0x0000000000000000000000000000000000000000000000000000000000000001",
                    "revert": false,
                    "revertMessage": "",
                    "selector": "0xa9059cbb",
                    "status": true,
                    "value": "0"
                },
                "nodeType": 0
            },
            "3": {
                "invocation": {
                    "address": "0x5a5fff6f753d7c11a56a52fe47a177a87e431655",
                    "callData": "0x0000000000000000000000000000000000000000000006593c335784887bd3800000000000000000000000000000000000000000000000000000000000000001",
                    "decodedMethod": {
                        "callParams": [
                            {
                                "name": "tokenAmount",
                                "type": "uint256",
                                "value": "29,980,297,026,870,846,411,648"
                            },
                            {
                                "name": "tokenIndex",
                                "type": "uint8",
                                "value": "1"
                            }
                        ],
                        "constructorArguments": "",
                        "name": "calculateRemoveLiquidityOneToken",
                        "returnParams": [
                            {
                                "name": "availableTokenAmount",
                                "type": "uint256",
                                "value": "30,015,799,806"
                            }
                        ],
                        "signature": "calculateRemoveLiquidityOneToken(uint256,uint8)"
                    },
                    "errorInfo": "",
                    "fromAddress": "0x1116898dda4015ed8ddefb84b6e8bc24528af2d8",
                    "gasUsed": 72826,
                    "id": 3,
                    "methodDecoded": true,
                    "operation": "DELEGATECALL",
                    "output": "0x00000000000000000000000000000000000000000000000000000006fd14c1fe",
                    "revert": false,
                    "revertMessage": "",
                    "selector": "0x342a87a1",
                    "status": true,
                    "value": "0"
                },
                "nodeType": 0
            },
            "30": {
                "invocation": {
                    "address": "0xa2327a938febf5fec13bacfb16ae10ecbc4cbdcf",
                    "callData": "0x00000000000000000000000064916cd4b15045fd156bc2a6460cd3207638e28900000000000000000000000000000000000000000000000000000006fd14c1fe",
                    "decodedMethod": {
                        "callParams": [
                            {
                                "name": "to",
                                "type": "address",
                                "value": "0x64916cd4b15045fd156bc2a6460cd3207638e289"
                            },
                            {
                                "decimalAvailable": true,
                                "name": "value",
                                "type": "uint256",
                                "value": "30,015,799,806"
                            }
                        ],
                        "constructorArguments": "",
                        "name": "transfer",
                        "returnParams": [
                            {
                                "name": "",
                                "type": "bool",
                                "value": true
                            }
                        ],
                        "signature": "transfer(address,uint256)"
                    },
                    "errorInfo": "",
                    "fromAddress": "0xa0b86991c6218b36c1d19d4a2e9eb0ce3606eb48",
                    "gasUsed": 27928,
                    "id": 30,
                    "methodDecoded": true,
                    "operation": "DELEGATECALL",
                    "output": "0x0000000000000000000000000000000000000000000000000000000000000001",
                    "revert": false,
                    "revertMessage": "",
                    "selector": "0xa9059cbb",
                    "status": true,
                    "value": "0"
                },
                "nodeType": 0
            },
            "31": {
                "event": {
                    "contract": "0xa0b86991c6218b36c1d19d4a2e9eb0ce3606eb48",
                    "decodedLog": {
                        "name": "Transfer",
                        "params": [
                            {
                                "name": "from",
                                "type": "address",
                                "value": "0x2796317b0ff8538f253012862c06787adfb8ceb6"
                            },
                            {
                                "name": "to",
                                "type": "address",
                                "value": "0x64916cd4b15045fd156bc2a6460cd3207638e289"
                            },
                            {
                                "decimalAvailable": true,
                                "name": "value",
                                "type": "uint256",
                                "value": "30,015,799,806"
                            }
                        ],
                        "signature": "Transfer(address,address,uint256)"
                    },
                    "id": 31,
                    "logData": "0x00000000000000000000000000000000000000000000000000000006fd14c1fe",
                    "logDecoded": true,
                    "operation": "EVENT",
                    "revert": false,
                    "status": true,
                    "topics": [
                        "0xddf252ad1be2c89b69c2b068fc378daa952ba7f163c4a11628f55a4df523b3ef",
                        "0x0000000000000000000000002796317b0ff8538f253012862c06787adfb8ceb6",
                        "0x00000000000000000000000064916cd4b15045fd156bc2a6460cd3207638e289"
                    ]
                },
                "nodeType": 1
            },
            "32": {
                "event": {
                    "contract": "0x2796317b0ff8538f253012862c06787adfb8ceb6",
                    "decodedLog": {
                        "name": "TokenWithdrawAndRemove",
                        "params": [
                            {
                                "name": "to",
                                "type": "address",
                                "value": "0x64916cd4b15045fd156bc2a6460cd3207638e289"
                            },
                            {
                                "name": "kappa",
                                "type": "bytes32",
                                "value": "0xb42ec15cb72aa3f55f9f1a34366b0223adfba0e39cbfb0ee6ca1dae282e5cd53"
                            },
                            {
                                "name": "token",
                                "type": "address",
                                "value": "0x1b84765de8b7566e4ceaf4d0fd3c5af52d3dde4f"
                            },
                            {
                                "name": "amount",
                                "type": "uint256",
                                "value": "30,015,799,806"
                            },
                            {
                                "name": "fee",
                                "type": "uint256",
                                "value": "36,019,579,928,158,806,261"
                            },
                            {
                                "name": "swapTokenIndex",
                                "type": "uint8",
                                "value": "1"
                            },
                            {
                                "name": "swapMinAmount",
                                "type": "uint256",
                                "value": "28,827,079,883"
                            },
                            {
                                "name": "swapDeadline",
                                "type": "uint256",
                                "value": "1,663,787,685"
                            },
                            {
                                "name": "swapSuccess",
                                "type": "bool",
                                "value": true
                            }
                        ],
                        "signature": "TokenWithdrawAndRemove(address,address,uint256,uint256,uint8,uint256,uint256,bool,bytes32)"
                    },
                    "id": 32,
                    "logData": "0x0000000000000000000000001b84765de8b7566e4ceaf4d0fd3c5af52d3dde4f00000000000000000000000000000000000000000000000000000006fd14c1fe000000000000000000000000000000000000000000000001f3df411ad0b220f5000000000000000000000000000000000000000000000000000000000000000100000000000000000000000000000000000000000000000000000006b63a54cb00000000000000000000000000000000000000000000000000000000632b62a50000000000000000000000000000000000000000000000000000000000000001",
                    "logDecoded": true,
                    "operation": "EVENT",
                    "revert": false,
                    "status": true,
                    "topics": [
                        "0xc1a608d0f8122d014d03cc915a91d98cef4ebaf31ea3552320430cba05211b6d",
                        "0x00000000000000000000000064916cd4b15045fd156bc2a6460cd3207638e289",
                        "0xb42ec15cb72aa3f55f9f1a34366b0223adfba0e39cbfb0ee6ca1dae282e5cd53"
                    ]
                },
                "nodeType": 1
            },
            "4": {
                "invocation": {
                    "address": "0x11199a9ee50127f335b84a1eeb961d8a85147f5f",
                    "callData": "0x00000000000000000000000000000000000000000000000000000000000000c90000000000000000000000000000000000000000000006593c335784887bd3800000000000000000000000000000000000000000000000000000000000000001",
                    "decodedMethod": null,
                    "errorInfo": "",
                    "fromAddress": "0x1116898dda4015ed8ddefb84b6e8bc24528af2d8",
                    "gasUsed": 69489,
                    "id": 4,
                    "methodDecoded": false,
                    "operation": "DELEGATECALL",
                    "output": "0x00000000000000000000000000000000000000000000000000000006fd14c1fe",
                    "revert": false,
                    "revertMessage": "",
                    "selector": "0xe0692742",
                    "status": true,
                    "value": "0"
                },
                "nodeType": 0
            },
            "5": {
                "invocation": {
                    "address": "0x1b84765de8b7566e4ceaf4d0fd3c5af52d3dde4f",
                    "callData": "0x",
                    "decodedMethod": {
                        "callParams": [],
                        "constructorArguments": "",
                        "name": "totalSupply",
                        "returnParams": [
                            {
                                "name": "",
                                "type": "uint256",
                                "value": "22,987,129,211,015,338,169,318,709"
                            }
                        ],
                        "signature": "totalSupply()"
                    },
                    "errorInfo": "",
                    "fromAddress": "0x1116898dda4015ed8ddefb84b6e8bc24528af2d8",
                    "gasUsed": 5032,
                    "id": 5,
                    "methodDecoded": true,
                    "operation": "STATICCALL",
                    "output": "0x0000000000000000000000000000000000000000001303b6c58054298401bd35",
                    "revert": false,
                    "revertMessage": "",
                    "selector": "0x18160ddd",
                    "status": true,
                    "value": "0"
                },
                "nodeType": 0
            },
            "6": {
                "invocation": {
                    "address": "0x6c8c6e68604e78b549c96907bfe9ebdaac04e3b3",
                    "callData": "0x",
                    "decodedMethod": {
                        "callParams": [],
                        "constructorArguments": "",
                        "name": "totalSupply",
                        "returnParams": [
                            {
                                "name": "",
                                "type": "uint256",
                                "value": "22,987,129,211,015,338,169,318,709"
                            }
                        ],
                        "signature": "totalSupply()"
                    },
                    "errorInfo": "",
                    "fromAddress": "0x1b84765de8b7566e4ceaf4d0fd3c5af52d3dde4f",
                    "gasUsed": 2366,
                    "id": 6,
                    "methodDecoded": true,
                    "operation": "DELEGATECALL",
                    "output": "0x0000000000000000000000000000000000000000001303b6c58054298401bd35",
                    "revert": false,
                    "revertMessage": "",
                    "selector": "0x18160ddd",
                    "status": true,
                    "value": "0"
                },
                "nodeType": 0
            },
            "7": {
                "invocation": {
                    "address": "0x1b84765de8b7566e4ceaf4d0fd3c5af52d3dde4f",
                    "callData": "0x0000000000000000000000002796317b0ff8538f253012862c06787adfb8ceb60000000000000000000000001116898dda4015ed8ddefb84b6e8bc24528af2d8",
                    "decodedMethod": {
                        "callParams": [
                            {
                                "name": "owner",
                                "type": "address",
                                "value": "0x2796317b0ff8538f253012862c06787adfb8ceb6"
                            },
                            {
                                "name": "spender",
                                "type": "address",
                                "value": "0x1116898dda4015ed8ddefb84b6e8bc24528af2d8"
                            }
                        ],
                        "constructorArguments": "",
                        "name": "allowance",
                        "returnParams": [
                            {
                                "decimalAvailable": true,
                                "name": "",
                                "type": "uint256",
                                "value": "417,603,053,986,009,140,958,306"
                            }
                        ],
                        "signature": "allowance(address,address)"
                    },
                    "errorInfo": "",
                    "fromAddress": "0x2796317b0ff8538f253012862c06787adfb8ceb6",
                    "gasUsed": 2770,
                    "id": 7,
                    "methodDecoded": true,
                    "operation": "STATICCALL",
                    "output": "0x00000000000000000000000000000000000000000000586e4e9234782cdc1462",
                    "revert": false,
                    "revertMessage": "",
                    "selector": "0xdd62ed3e",
                    "status": true,
                    "value": "0"
                },
                "nodeType": 0
            },
            "8": {
                "invocation": {
                    "address": "0x6c8c6e68604e78b549c96907bfe9ebdaac04e3b3",
                    "callData": "0x0000000000000000000000002796317b0ff8538f253012862c06787adfb8ceb60000000000000000000000001116898dda4015ed8ddefb84b6e8bc24528af2d8",
                    "decodedMethod": {
                        "callParams": [
                            {
                                "name": "owner",
                                "type": "address",
                                "value": "0x2796317b0ff8538f253012862c06787adfb8ceb6"
                            },
                            {
                                "name": "spender",
                                "type": "address",
                                "value": "0x1116898dda4015ed8ddefb84b6e8bc24528af2d8"
                            }
                        ],
                        "constructorArguments": "",
                        "name": "allowance",
                        "returnParams": [
                            {
                                "decimalAvailable": true,
                                "name": "",
                                "type": "uint256",
                                "value": "417,603,053,986,009,140,958,306"
                            }
                        ],
                        "signature": "allowance(address,address)"
                    },
                    "errorInfo": "",
                    "fromAddress": "0x1b84765de8b7566e4ceaf4d0fd3c5af52d3dde4f",
                    "gasUsed": 2592,
                    "id": 8,
                    "methodDecoded": true,
                    "operation": "DELEGATECALL",
                    "output": "0x00000000000000000000000000000000000000000000586e4e9234782cdc1462",
                    "revert": false,
                    "revertMessage": "",
                    "selector": "0xdd62ed3e",
                    "status": true,
                    "value": "0"
                },
                "nodeType": 0
            },
            "9": {
                "invocation": {
                    "address": "0x1b84765de8b7566e4ceaf4d0fd3c5af52d3dde4f",
                    "callData": "0x0000000000000000000000001116898dda4015ed8ddefb84b6e8bc24528af2d8000000000000000000000000000000000000000000005ec78ac58bfcb557e7e2",
                    "decodedMethod": {
                        "callParams": [
                            {
                                "name": "spender",
                                "type": "address",
                                "value": "0x1116898dda4015ed8ddefb84b6e8bc24528af2d8"
                            },
                            {
                                "decimalAvailable": true,
                                "name": "amount",
                                "type": "uint256",
                                "value": "447,583,351,012,879,987,369,954"
                            }
                        ],
                        "constructorArguments": "",
                        "name": "approve",
                        "returnParams": [
                            {
                                "name": "",
                                "type": "bool",
                                "value": true
                            }
                        ],
                        "signature": "approve(address,uint256)"
                    },
                    "errorInfo": "",
                    "fromAddress": "0x2796317b0ff8538f253012862c06787adfb8ceb6",
                    "gasUsed": 5492,
                    "id": 9,
                    "methodDecoded": true,
                    "operation": "CALL",
                    "output": "0x0000000000000000000000000000000000000000000000000000000000000001",
                    "revert": false,
                    "revertMessage": "",
                    "selector": "0x095ea7b3",
                    "status": true,
                    "value": "0"
                },
                "nodeType": 0
            }
        },
        "gasFlame": [
            {
                "children": [
                    {
                        "children": [
                            {
                                "children": [],
                                "depth": 0,
                                "name": "Initial Gas",
                                "value": 23668
                            },
                            {
                                "children": [
                                    {
                                        "children": [
                                            {
                                                "children": [
                                                    {
                                                        "children": [
                                                            {
                                                                "children": [
                                                                    {
                                                                        "children": [
                                                                            {
                                                                                "children": [],
                                                                                "depth": 6,
                                                                                "name": "totalSupply",
                                                                                "value": 2366
                                                                            }
                                                                        ],
                                                                        "depth": 5,
                                                                        "name": "totalSupply",
                                                                        "value": 5032
                                                                    }
                                                                ],
                                                                "depth": 4,
                                                                "name": "0xe0692742",
                                                                "value": 69489
                                                            }
                                                        ],
                                                        "depth": 3,
                                                        "name": "calculateRemoveLiquidityOneToken",
                                                        "value": 72826
                                                    }
                                                ],
                                                "depth": 2,
                                                "name": "calculateRemoveLiquidityOneToken",
                                                "value": 75504
                                            },
                                            {
                                                "children": [
                                                    {
                                                        "children": [],
                                                        "depth": 3,
                                                        "name": "allowance",
                                                        "value": 2592
                                                    }
                                                ],
                                                "depth": 2,
                                                "name": "allowance",
                                                "value": 2770
                                            },
                                            {
                                                "children": [
                                                    {
                                                        "children": [],
                                                        "depth": 3,
                                                        "name": "approve",
                                                        "value": 5314
                                                    }
                                                ],
                                                "depth": 2,
                                                "name": "approve",
                                                "value": 5492
                                            },
                                            {
                                                "children": [
                                                    {
                                                        "children": [
                                                            {
                                                                "children": [
                                                                    {
                                                                        "children": [
                                                                            {
                                                                                "children": [],
                                                                                "depth": 6,
                                                                                "name": "balanceOf",
                                                                                "value": 2441
                                                                            }
                                                                        ],
                                                                        "depth": 5,
                                                                        "name": "balanceOf",
                                                                        "value": 2613
                                                                    },
                                                                    {
                                                                        "children": [
                                                                            {
                                                                                "children": [],
                                                                                "depth": 6,
                                                                                "name": "totalSupply",
                                                                                "value": 366
                                                                            }
                                                                        ],
                                                                        "depth": 5,
                                                                        "name": "totalSupply",
                                                                        "value": 532
                                                                    },
                                                                    {
                                                                        "children": [
                                                                            {
                                                                                "children": [],
                                                                                "depth": 6,
                                                                                "name": "burnFrom",
                                                                                "value": 11316
                                                                            }
                                                                        ],
                                                                        "depth": 5,
                                                                        "name": "burnFrom",
                                                                        "value": 11491
                                                                    },
                                                                    {
                                                                        "children": [
                                                                            {
                                                                                "children": [],
                                                                                "depth": 6,
                                                                                "name": "transfer",
                                                                                "value": 19628
                                                                            }
                                                                        ],
                                                                        "depth": 5,
                                                                        "name": "transfer",
                                                                        "value": 26917
                                                                    }
                                                                ],
                                                                "depth": 4,
                                                                "name": "0xe7a4db81",
                                                                "value": 101531
                                                            }
                                                        ],
                                                        "depth": 3,
                                                        "name": "removeLiquidityOneToken",
                                                        "value": 109689
                                                    }
                                                ],
                                                "depth": 2,
                                                "name": "removeLiquidityOneToken",
                                                "value": 109879
                                            },
                                            {
                                                "children": [
                                                    {
                                                        "children": [],
                                                        "depth": 3,
                                                        "name": "getToken",
                                                        "value": 811
                                                    }
                                                ],
                                                "depth": 2,
                                                "name": "getToken",
                                                "value": 983
                                            },
                                            {
                                                "children": [
                                                    {
                                                        "children": [],
                                                        "depth": 3,
                                                        "name": "transfer",
                                                        "value": 27928
                                                    }
                                                ],
                                                "depth": 2,
                                                "name": "transfer",
                                                "value": 28717
                                            }
                                        ],
                                        "depth": 1,
                                        "name": "withdrawAndRemove",
                                        "value": 272303
                                    }
                                ],
                                "depth": 0,
                                "name": "Executed Gas",
                                "value": 279542
                            }
                        ],
                        "depth": -1,
                        "name": "Actual Gas Used",
                        "value": 292010
                    },
                    {
                        "children": [],
                        "depth": -1,
                        "name": "Refunded Gas",
                        "value": 11200
                    }
                ],
                "depth": -2,
                "name": "Total Gas",
                "value": 303210
            }
        ],
        "isConfirmed": true,
        "mainTrace": [
            {
                "children": [
                    {
                        "children": [
                            {
                                "children": [
                                    {
                                        "children": [
                                            {
                                                "children": [
                                                    {
                                                        "children": [
                                                            {
                                                                "children": [
                                                                    {
                                                                        "children": [],
                                                                        "depth": 6,
                                                                        "id": 6,
                                                                        "order": 6
                                                                    }
                                                                ],
                                                                "depth": 5,
                                                                "id": 5,
                                                                "order": 5
                                                            }
                                                        ],
                                                        "depth": 4,
                                                        "id": 4,
                                                        "order": 4
                                                    }
                                                ],
                                                "depth": 3,
                                                "id": 3,
                                                "order": 3
                                            }
                                        ],
                                        "depth": 2,
                                        "id": 2,
                                        "order": 2
                                    },
                                    {
                                        "children": [
                                            {
                                                "children": [],
                                                "depth": 3,
                                                "id": 8,
                                                "order": 8
                                            }
                                        ],
                                        "depth": 2,
                                        "id": 7,
                                        "order": 7
                                    },
                                    {
                                        "children": [
                                            {
                                                "children": [
                                                    {
                                                        "children": [],
                                                        "depth": 4,
                                                        "id": 11,
                                                        "order": 11
                                                    }
                                                ],
                                                "depth": 3,
                                                "id": 10,
                                                "order": 10
                                            }
                                        ],
                                        "depth": 2,
                                        "id": 9,
                                        "order": 9
                                    },
                                    {
                                        "children": [
                                            {
                                                "children": [
                                                    {
                                                        "children": [
                                                            {
                                                                "children": [
                                                                    {
                                                                        "children": [],
                                                                        "depth": 6,
                                                                        "id": 16,
                                                                        "order": 16
                                                                    }
                                                                ],
                                                                "depth": 5,
                                                                "id": 15,
                                                                "order": 15
                                                            },
                                                            {
                                                                "children": [
                                                                    {
                                                                        "children": [],
                                                                        "depth": 6,
                                                                        "id": 18,
                                                                        "order": 18
                                                                    }
                                                                ],
                                                                "depth": 5,
                                                                "id": 17,
                                                                "order": 17
                                                            },
                                                            {
                                                                "children": [
                                                                    {
                                                                        "children": [
                                                                            {
                                                                                "children": [],
                                                                                "depth": 7,
                                                                                "id": 21,
                                                                                "order": 21
                                                                            },
                                                                            {
                                                                                "children": [],
                                                                                "depth": 7,
                                                                                "id": 22,
                                                                                "order": 22
                                                                            }
                                                                        ],
                                                                        "depth": 6,
                                                                        "id": 20,
                                                                        "order": 20
                                                                    }
                                                                ],
                                                                "depth": 5,
                                                                "id": 19,
                                                                "order": 19
                                                            },
                                                            {
                                                                "children": [
                                                                    {
                                                                        "children": [
                                                                            {
                                                                                "children": [],
                                                                                "depth": 7,
                                                                                "id": 25,
                                                                                "order": 25
                                                                            }
                                                                        ],
                                                                        "depth": 6,
                                                                        "id": 24,
                                                                        "order": 24
                                                                    }
                                                                ],
                                                                "depth": 5,
                                                                "id": 23,
                                                                "order": 23
                                                            },
                                                            {
                                                                "children": [],
                                                                "depth": 5,
                                                                "id": 26,
                                                                "order": 26
                                                            }
                                                        ],
                                                        "depth": 4,
                                                        "id": 14,
                                                        "order": 14
                                                    }
                                                ],
                                                "depth": 3,
                                                "id": 13,
                                                "order": 13
                                            }
                                        ],
                                        "depth": 2,
                                        "id": 12,
                                        "order": 12
                                    },
                                    {
                                        "children": [
                                            {
                                                "children": [],
                                                "depth": 3,
                                                "id": 28,
                                                "order": 28
                                            }
                                        ],
                                        "depth": 2,
                                        "id": 27,
                                        "order": 27
                                    },
                                    {
                                        "children": [
                                            {
                                                "children": [
                                                    {
                                                        "children": [],
                                                        "depth": 4,
                                                        "id": 31,
                                                        "order": 31
                                                    }
                                                ],
                                                "depth": 3,
                                                "id": 30,
                                                "order": 30
                                            }
                                        ],
                                        "depth": 2,
                                        "id": 29,
                                        "order": 29
                                    },
                                    {
                                        "children": [],
                                        "depth": 2,
                                        "id": 32,
                                        "order": 32
                                    }
                                ],
                                "depth": 1,
                                "id": 1,
                                "order": 1
                            }
                        ],
                        "depth": 0,
                        "id": 0,
                        "order": 0
                    }
                ],
                "depth": -1,
                "id": -1,
                "order": -1
            }
        ],
        "mainTraceNodeCount": 33,
        "parentIdMap": {
            "0": -1,
            "1": 0,
            "10": 9,
            "11": 10,
            "12": 1,
            "13": 12,
            "14": 13,
            "15": 14,
            "16": 15,
            "17": 14,
            "18": 17,
            "19": 14,
            "2": 1,
            "20": 19,
            "21": 20,
            "22": 20,
            "23": 14,
            "24": 23,
            "25": 24,
            "26": 14,
            "27": 1,
            "28": 27,
            "29": 1,
            "3": 2,
            "30": 29,
            "31": 30,
            "32": 1,
            "4": 3,
            "5": 4,
            "6": 5,
            "7": 1,
            "8": 7,
            "9": 1
        },
        "tidyTrace": [
            {
                "children": [
                    {
                        "children": [
                            {
                                "children": [
                                    {
                                        "children": [
                                            {
                                                "children": [
                                                    {
                                                        "children": [],
                                                        "depth": 4,
                                                        "id": 11,
                                                        "order": 11
                                                    }
                                                ],
                                                "depth": 3,
                                                "id": 10,
                                                "order": 10
                                            }
                                        ],
                                        "depth": 2,
                                        "id": 9,
                                        "order": 9
                                    },
                                    {
                                        "children": [
                                            {
                                                "children": [
                                                    {
                                                        "children": [
                                                            {
                                                                "children": [
                                                                    {
                                                                        "children": [
                                                                            {
                                                                                "children": [],
                                                                                "depth": 7,
                                                                                "id": 21,
                                                                                "order": 21
                                                                            },
                                                                            {
                                                                                "children": [],
                                                                                "depth": 7,
                                                                                "id": 22,
                                                                                "order": 22
                                                                            }
                                                                        ],
                                                                        "depth": 6,
                                                                        "id": 20,
                                                                        "order": 20
                                                                    }
                                                                ],
                                                                "depth": 5,
                                                                "id": 19,
                                                                "order": 19
                                                            },
                                                            {
                                                                "children": [
                                                                    {
                                                                        "children": [
                                                                            {
                                                                                "children": [],
                                                                                "depth": 7,
                                                                                "id": 25,
                                                                                "order": 25
                                                                            }
                                                                        ],
                                                                        "depth": 6,
                                                                        "id": 24,
                                                                        "order": 24
                                                                    }
                                                                ],
                                                                "depth": 5,
                                                                "id": 23,
                                                                "order": 23
                                                            },
                                                            {
                                                                "children": [],
                                                                "depth": 5,
                                                                "id": 26,
                                                                "order": 26
                                                            }
                                                        ],
                                                        "depth": 4,
                                                        "id": 14,
                                                        "order": 14
                                                    }
                                                ],
                                                "depth": 3,
                                                "id": 13,
                                                "order": 13
                                            }
                                        ],
                                        "depth": 2,
                                        "id": 12,
                                        "order": 12
                                    },
                                    {
                                        "children": [
                                            {
                                                "children": [
                                                    {
                                                        "children": [],
                                                        "depth": 4,
                                                        "id": 31,
                                                        "order": 31
                                                    }
                                                ],
                                                "depth": 3,
                                                "id": 30,
                                                "order": 30
                                            }
                                        ],
                                        "depth": 2,
                                        "id": 29,
                                        "order": 29
                                    },
                                    {
                                        "children": [],
                                        "depth": 2,
                                        "id": 32,
                                        "order": 32
                                    }
                                ],
                                "depth": 1,
                                "id": 1,
                                "order": 1
                            }
                        ],
                        "depth": 0,
                        "id": 0,
                        "order": 0
                    }
                ],
                "depth": -1,
                "id": -1,
                "order": -1
            }
        ],
        "tidyTraceNodeCount": 20
    },
    "state_change": {
        "stateChanges": [
            {
                "address": "0x1116898dda4015ed8ddefb84b6e8bc24528af2d8",
                "erc": "",
                "slots": [
                    {
                        "current": "0x000000000000000000000000000000000000000000000000000007058080a8fd",
                        "key": "0xf2192e1030363415d7b4fb0406540a0060e8e2fc8982f3f32289379e11fa6547",
                        "prev": "0x0000000000000000000000000000000000000000000000000000070c7dac33c7"
                    }
                ],
                "storageVariables": []
            },
            {
                "address": "0x1b84765de8b7566e4ceaf4d0fd3c5af52d3dde4f",
                "erc": "ERC-20",
                "slots": [
                    {
                        "current": "0x00000000000000000000000000000000000000000012f3bce4bf47cb5ebf709f",
                        "key": "0xf5fe63b84456eb64f66476d51fe0acb5662424f5aef434b3dda156cb4a4dc817",
                        "prev": "0x00000000000000000000000000000000000000000012fa1620f29f4fe73b441f"
                    },
                    {
                        "current": "0x00000000000000000000000000000000000000000012fd5d894cfca4fb85e9b5",
                        "key": "0x0000000000000000000000000000000000000000000000000000000000000035",
                        "prev": "0x0000000000000000000000000000000000000000001303b6c58054298401bd35"
                    }
                ],
                "storageVariables": [
                    {
                        "name": "_balances",
                        "type": "mapping(address => uint256)",
                        "value": {
                            "pairs": [
                                {
                                    "key": "0x2796317b0ff8538f253012862c06787adfb8ceb6",
                                    "value": {
                                        "current": "22911684279258606320185503",
                                        "prev": "22941664576285477166597151",
                                        "typeTag": 1
                                    }
                                }
                            ],
                            "typeTag": 4
                        }
                    },
                    {
                        "name": "_totalSupply",
                        "type": "uint256",
                        "value": {
                            "current": "22957148913988467322907061",
                            "prev": "22987129211015338169318709",
                            "typeTag": 1
                        }
                    }
                ]
            },
            {
                "address": "0x2796317b0ff8538f253012862c06787adfb8ceb6",
                "erc": "",
                "slots": [
                    {
                        "current": "0x0000000000000000000000000000000000000000000000000000000000000001",
                        "key": "0x473214b4648248d11c960dc00b93f33721674484081dbafc34bac88b678a3ebc",
                        "prev": "0x0000000000000000000000000000000000000000000000000000000000000000"
                    },
                    {
                        "current": "0x0000000000000000000000000000000000000000000000ae6af91376c3ac28a5",
                        "key": "0x9ca2fbde92c6dd0088b4d3407a2b25a2802ea57882ae5dfc8b2c942661b3c1da",
                        "prev": "0x0000000000000000000000000000000000000000000000ac7719d25bf2fa07b0"
                    }
                ],
                "storageVariables": [
                    {
                        "name": "fees",
                        "type": "mapping(address => uint256)",
                        "value": {
                            "pairs": [
                                {
                                    "key": "0x1b84765de8b7566e4ceaf4d0fd3c5af52d3dde4f",
                                    "value": {
                                        "current": "3217441682463493204133",
                                        "prev": "3181422102535334397872",
                                        "typeTag": 1
                                    }
                                }
                            ],
                            "typeTag": 4
                        }
                    },
                    {
                        "name": "kappaMap",
                        "type": "mapping(bytes32 => bool)",
                        "value": {
                            "pairs": [
                                {
                                    "key": "0xb42ec15cb72aa3f55f9f1a34366b0223adfba0e39cbfb0ee6ca1dae282e5cd53",
                                    "value": {
                                        "current": "true",
                                        "prev": "false",
                                        "typeTag": 1
                                    }
                                }
                            ],
                            "typeTag": 4
                        }
                    }
                ]
            },
            {
                "address": "0xa0b86991c6218b36c1d19d4a2e9eb0ce3606eb48",
                "erc": "ERC-20",
                "slots": [
                    {
                        "current": "0x000000000000000000000000000000000000000000000000000007175e05c57a",
                        "key": "0x6fdfda878d67c4aa958ad6cffdbbbb6352a1897d2a7bace8757d47dc134499b5",
                        "prev": "0x0000000000000000000000000000000000000000000000000000071e5b1a8778"
                    },
                    {
                        "current": "0x00000000000000000000000000000000000000000000000000000006fd14c1fe",
                        "key": "0x6a7b97fd1aac86d7a577d58cd239e45199ff2135f1b149860af3e03d76de8249",
                        "prev": "0x0000000000000000000000000000000000000000000000000000000000000000"
                    }
                ],
                "storageVariables": [
                    {
                        "name": "balances",
                        "type": "mapping(address => uint256)",
                        "value": {
                            "pairs": [
                                {
                                    "key": "0x1116898dda4015ed8ddefb84b6e8bc24528af2d8",
                                    "value": {
                                        "current": "7796943078778",
                                        "prev": "7826958878584",
                                        "typeTag": 1
                                    }
                                },
                                {
                                    "key": "0x64916cd4b15045fd156bc2a6460cd3207638e289",
                                    "value": {
                                        "current": "30015799806",
                                        "prev": "0",
                                        "typeTag": 1
                                    }
                                }
                            ],
                            "typeTag": 4
                        }
                    }
                ]
            }
        ]
    }
}