{
    "balance_change": {
        "balanceChanges": []
    },
    "profile": {
        "basic_info": {
            "baseFee": "10.929909942",
            "blockNumber": 18131326,
            "callData": "0x3a0c9c130000000000000000000000000000000000000000000000000000000000000020000000000000000000000000000000000000000000000000000000000000004037373237326364386235313337323134373036636239383131326139333432643566346633356261303163396231393863323538373835633063306335626162",
            "debugEnable": true,
            "errorInfo": "",
            "eventCount": 1,
            "feeRecipient": "0x95222290dd7278aa3ddd389cc1e1d165cc4bafe5",
            "formatValue": "0",
            "gasLimit": 72799,
            "gasPrice": "11.229909942",
            "gasUsed": 48533,
            "intTxnCount": 0,
            "internalRevert": false,
            "internalRevertMessage": "",
            "isContractCreation": false,
            "isFlashloan": false,
            "maxFee": "19.709563262",
            "nonce": 892,
            "overwritedBlockNumber": -1,
            "priorityFee": "0.3",
            "receiver": "0x5438dff89ed8cecf2f8629c739f320abbc7c4b4f",
            "revertMessage": "",
            "sender": "0x2920f67ee50174b0de4826bb1798770a9b04d48f",
            "simulationEnable": true,
            "sourceTxnHash": "0xc6af3e78478acaea9a551382317a758856cc288d116325b6326ddb9a744e38b8",
            "status": true,
            "timestamp": "2023-09-14T01:44:23Z",
            "transactionFee": "0.000545021219215086",
            "txnHash": "0xc6af3e78478acaea9a551382317a758856cc288d116325b6326ddb9a744e38b8",
            "txnIndex": 76,
            "type": 2,
            "value": "0"
        },
        "fund_flow": [],
        "token_infos": [
            {
                "address": "0xc02aaa39b223fe8d0a0e5c4f27ead9083c756cc2",
                "decimals": 18
            },
            {
                "address": "0xeeeeeeeeeeeeeeeeeeeeeeeeeeeeeeeeeeeeeeee",
                "decimals": 18
            }
        ]
    },
    "address_label": {
        "labels": [
            {
                "address": "0x0000000000000000000000000000000000000001",
                "label": "Precompiled"
            },
            {
                "address": "0x0000000000000000000000000000000000000002",
                "label": "Precompiled"
            },
            {
                "address": "0x0000000000000000000000000000000000000003",
                "label": "Precompiled"
            },
            {
                "address": "0x0000000000000000000000000000000000000004",
                "label": "Precompiled"
            },
            {
                "address": "0xeeeeeeeeeeeeeeeeeeeeeeeeeeeeeeeeeeeeeeee",
                "label": "Ether"
            },
            {
                "address": "0x5438dff89ed8cecf2f8629c739f320abbc7c4b4f",
                "label": "TwitterAuthenticator"
            }
        ]
    },
    "trace": {
        "accountLabels": null,
        "dataMap": {
            "-1": {
                "invocation": {
                    "address": "0x2920f67ee50174b0de4826bb1798770a9b04d48f",
                    "callData": "",
                    "decodedMethod": null,
                    "errorInfo": "",
                    "fromAddress": "",
                    "gasUsed": 0,
                    "id": -1,
                    "methodDecoded": false,
                    "operation": "",
                    "output": "",
                    "revert": false,
                    "revertMessage": "",
                    "selector": "",
                    "status": false,
                    "value": ""
                },
                "nodeType": 0
            },
            "0": {
                "invocation": {
                    "address": "0x5438dff89ed8cecf2f8629c739f320abbc7c4b4f",
                    "callData": "0x0000000000000000000000000000000000000000000000000000000000000020000000000000000000000000000000000000000000000000000000000000004037373237326364386235313337323134373036636239383131326139333432643566346633356261303163396231393863323538373835633063306335626162",
                    "decodedMethod": {
                        "callParams": [
                            {
                                "name": "twitterChallengeId",
                                "type": "string",
                                "value": "77272cd8b5137214706cb98112a9342d5f4f35ba01c9b198c258785c0c0c5bab"
                            }
                        ],
                        "constructorArguments": "",
                        "name": "linkTwitterAccount",
                        "returnParams": [],
                        "signature": "linkTwitterAccount(string)"
                    },
                    "errorInfo": "",
                    "fromAddress": "0x2920f67ee50174b0de4826bb1798770a9b04d48f",
                    "gasUsed": 48533,
                    "id": 0,
                    "methodDecoded": true,
                    "operation": "CALL",
                    "output": "",
                    "revert": false,
                    "revertMessage": "",
                    "selector": "0x3a0c9c13",
                    "status": true,
                    "value": "0"
                },
                "nodeType": 0
            },
            "1": {
                "event": {
                    "contract": "0x5438dff89ed8cecf2f8629c739f320abbc7c4b4f",
                    "decodedLog": {
                        "name": "TwitterAccountLinked",
                        "params": [
                            {
                                "name": "user",
                                "type": "address",
                                "value": "0x2920f67ee50174b0de4826bb1798770a9b04d48f"
                            },
                            {
                                "name": "twitterChallengeId",
                                "type": "string",
                                "value": "77272cd8b5137214706cb98112a9342d5f4f35ba01c9b198c258785c0c0c5bab"
                            }
                        ],
                        "signature": "TwitterAccountLinked(address,string)"
                    },
                    "id": 1,
                    "logData": "0x0000000000000000000000000000000000000000000000000000000000000020000000000000000000000000000000000000000000000000000000000000004037373237326364386235313337323134373036636239383131326139333432643566346633356261303163396231393863323538373835633063306335626162",
                    "logDecoded": true,
                    "operation": "EVENT",
                    "revert": false,
                    "status": true,
                    "topics": [
                        "0x7c679ba3d749f0b651ab8b04cb9540eecd55f0935dd391198946639da457724a",
                        "0x0000000000000000000000002920f67ee50174b0de4826bb1798770a9b04d48f"
                    ]
                },
                "nodeType": 1
            }
        },
        "gasFlame": [
            {
                "children": [
                    {
                        "children": [
                            {
                                "children": [],
                                "depth": 0,
                                "name": "Initial Gas",
                                "value": 22368
                            },
                            {
                                "children": [],
                                "depth": 0,
                                "name": "Executed Gas",
                                "value": 26165
                            }
                        ],
                        "depth": -1,
                        "name": "Actual Gas Used",
                        "value": 48533
                    },
                    {
                        "children": [],
                        "depth": -1,
                        "name": "Refunded Gas",
                        "value": 0
                    }
                ],
                "depth": -2,
                "name": "Total Gas",
                "value": 48533
            }
        ],
        "isConfirmed": true,
        "mainTrace": [
            {
                "children": [
                    {
                        "children": [
                            {
                                "children": [],
                                "depth": 1,
                                "id": 1,
                                "order": 1
                            }
                        ],
                        "depth": 0,
                        "id": 0,
                        "order": 0
                    }
                ],
                "depth": -1,
                "id": -1,
                "order": -1
            }
        ],
        "mainTraceNodeCount": 2,
        "parentIdMap": {
            "0": -1,
            "1": 0
        },
        "tidyTrace": [
            {
                "children": [
                    {
                        "children": [
                            {
                                "children": [],
                                "depth": 1,
                                "id": 1,
                                "order": 1
                            }
                        ],
                        "depth": 0,
                        "id": 0,
                        "order": 0
                    }
                ],
                "depth": -1,
                "id": -1,
                "order": -1
            }
        ],
        "tidyTraceNodeCount": 2
    },
    "state_change": {
        "stateChanges": [
            {
                "address": "0x5438dff89ed8cecf2f8629c739f320abbc7c4b4f",
                "erc": "",
                "slots": [
                    {
                        "current": "0x0000000000000000000000000000000000000000000000000000000000000001",
                        "key": "0x047a886c9aefaa58d664811e6f5254b67c5a66ef5198fa0a1ee4242d53adf334",
                        "prev": "0x0000000000000000000000000000000000000000000000000000000000000000"
                    }
                ],
                "storageVariables": [
                    {
                        "name": "walletLinked",
                        "type": "mapping(address => bool)",
                        "value": {
                            "pairs": [
                                {
                                    "key": "0x2920f67ee50174b0de4826bb1798770a9b04d48f",
                                    "value": {
                                        "current": "true",
                                        "prev": "false",
                                        "typeTag": 1
                                    }
                                }
                            ],
                            "typeTag": 4
                        }
                    }
                ]
            }
        ]
    }
}