{
    "balance_change": {
        "balanceChanges": [
            {
                "account": "0x7e3af66e6cf2278e45e0e56f8fdf4a033295ee1e",
                "assets": [
                    {
                        "address": "0xeeeeeeeeeeeeeeeeeeeeeeeeeeeeeeeeeeeeeeee",
                        "amount": "0.488",
                        "iconUrl": "https://assets.blocksec.com/image/1663669189317-3.png",
                        "isERC1155": false,
                        "isERC721": false,
                        "sign": false,
                        "value": "833.7675199999999822"
                    },
                    {
                        "address": "0x63217dbb73e7a02c1d30f486e899ee66d0aa5e0b",
                        "amount": "1",
                        "iconUrl": "https://assets.blocksec.com/nft/icon/nft_7e2835d9-9328-4716-b64b-5258df0fd706.png",
                        "isERC1155": false,
                        "isERC721": true,
                        "sign": true,
                        "tokenID": "751",
                        "value": ""
                    }
                ]
            },
            {
                "account": "0x5e71553f2bdf4ea29a3b1f8f7e95e06acbb4c31d",
                "assets": [
                    {
                        "address": "0xeeeeeeeeeeeeeeeeeeeeeeeeeeeeeeeeeeeeeeee",
                        "amount": "0.4554992",
                        "iconUrl": "https://assets.blocksec.com/image/1663669189317-3.png",
                        "isERC1155": false,
                        "isERC721": false,
                        "sign": true,
                        "value": "778.23860316799998343"
                    },
                    {
                        "address": "0x63217dbb73e7a02c1d30f486e899ee66d0aa5e0b",
                        "amount": "1",
                        "iconUrl": "https://assets.blocksec.com/nft/icon/nft_7e2835d9-9328-4716-b64b-5258df0fd706.png",
                        "isERC1155": false,
                        "isERC721": true,
                        "sign": false,
                        "tokenID": "751",
                        "value": ""
                    }
                ]
            },
            {
                "account": "0x87e0a274007b6e8bdee0acabb701dfd0081abe8a",
                "assets": [
                    {
                        "address": "0xeeeeeeeeeeeeeeeeeeeeeeeeeeeeeeeeeeeeeeee",
                        "amount": "0.0325008",
                        "iconUrl": "https://assets.blocksec.com/image/1663669189317-3.png",
                        "isERC1155": false,
                        "isERC721": false,
                        "sign": true,
                        "value": "55.52891683199999882"
                    }
                ]
            }
        ]
    },
    "profile": {
        "basic_info": {
            "baseFee": "76.80271237",
            "blockNumber": 16650711,
            "callData": "0x9a1fc3a70000000000000000000000000000000000000000000000000000000000000040000000000000000000000000000000000000000000000000000000000000044000000000000000000000000000000000000000000000000000000000000000e0000000000000000000000000000000000000000000000000000000000000001bcb3cae09eb161972f945fabfe1161bc245221a496b2edf66b5ccbaf7ac59cc1b7f661dfd0525b1c334ca0deaeffecafbcb49c02717d8100951c05809059d45a3000000000000000000000000000000000000000000000000000000000000032000000000000000000000000000000000000000000000000000000000000000010000000000000000000000000000000000000000000000000000000000fe11d50000000000000000000000005e71553f2bdf4ea29a3b1f8f7e95e06acbb4c31d00000000000000000000000000000000000000000000000000000000000000010000000000000000000000000000000000dab4a563819e8fd93dba3b25bc349500000000000000000000000063217dbb73e7a02c1d30f486e899ee66d0aa5e0b00000000000000000000000000000000000000000000000000000000000002ef0000000000000000000000000000000000000000000000000000000000000001000000000000000000000000000000000000000000000000000000000000000000000000000000000000000000000000000000000000000006c5b96a1a6400000000000000000000000000000000000000000000000000000000000063efcb2e0000000000000000000000000000000000000000000000000000000063f3bfae00000000000000000000000000000000000000000000000000000000000001a000000000000000000000000000000000546ab2de8931d2458e9df763ff406d3700000000000000000000000000000000000000000000000000000000000002000000000000000000000000000000000000000000000000000000000000000001000000000000000000000000000000000000000000000000000000000000029a00000000000000000000000087e0a274007b6e8bdee0acabb701dfd0081abe8a0000000000000000000000000000000000000000000000000000000000000001010000000000000000000000000000000000000000000000000000000000000000000000000000000000000000000000000000000000000000000000000000c00000000000000000000000000000000000000000000000000000000000000080000000000000000000000000000000000000000000000000000000000000001c506e4d578efe0aee732cfb4746ccb1a4dfd65089aa5388ff4f83e358a219a2d91b259b5b2f1d1f2f72554b23bfd6301f44689f431b1e0acd890f79b665fe6a51000000000000000000000000000000000000000000000000000000000000000127027dd3c2950935e0a5eeba925364aa2f84026b40c384c935cd460d2222762700000000000000000000000000000000000000000000000000000000000000e000000000000000000000000000000000000000000000000000000000000000000000000000000000000000000000000000000000000000000000000000000000000000000000000000000000000000000000000000000000000000000000000000000000000000000000000000000000000000000000000000000000000002e000000000000000000000000000000000000000000000000000000000000000000000000000000000000000000000000000000000000000000000000000fe11d50000000000000000000000007e3af66e6cf2278e45e0e56f8fdf4a033295ee1e00000000000000000000000000000000000000000000000000000000000000000000000000000000000000000000000000dab4a563819e8fd93dba3b25bc349500000000000000000000000063217dbb73e7a02c1d30f486e899ee66d0aa5e0b00000000000000000000000000000000000000000000000000000000000002ef0000000000000000000000000000000000000000000000000000000000000001000000000000000000000000000000000000000000000000000000000000000000000000000000000000000000000000000000000000000006c5b96a1a6400000000000000000000000000000000000000000000000000000000000063efcb2f0000000000000000000000000000000000000000000000000000000063efed7600000000000000000000000000000000000000000000000000000000000001a000000000000000000000000000000000471b31b532e34523106c14faceb1ab4f00000000000000000000000000000000000000000000000000000000000001c00000000000000000000000000000000000000000000000000000000000000000000000000000000000000000000000000000000000000000000000000000000101000000000000000000000000000000000000000000000000000000000000000000000000000000000000000000000000000000000000000000000000000060000000000000000000000000000000000000000000000000000000000000001cc8e7a2826e1b6aec66e677e7cfe5812ddf21eb3383d3d0067f446aedd16488065374091eb852024dc961c5110207d0d766e308fe08801cb8c8ee812e6e7f96d3",
            "debugEnable": true,
            "errorInfo": "",
            "eventCount": 2,
            "feeRecipient": "0x42f0ab4851cefb90e1c246067f7ae857577e608d",
            "formatValue": "0.488",
            "gasLimit": 482779,
            "gasPrice": "78.30271237",
            "gasUsed": 286485,
            "intTxnCount": 13,
            "internalRevert": false,
            "internalRevertMessage": "",
            "isContractCreation": false,
            "isFlashloan": false,
            "maxFee": "122.020341907",
            "nonce": 185,
            "overwritedBlockNumber": -1,
            "priorityFee": "1.5",
            "receiver": "0x000000000000ad05ccc4f10045630fb830b95127",
            "revertMessage": "",
            "sender": "0x7e3af66e6cf2278e45e0e56f8fdf4a033295ee1e",
            "simulationEnable": true,
            "sourceTxnHash": "0xc643a43a3597b287be676ee7a3f757c879aae9b36c59a78c58a946491f485d0a",
            "status": true,
            "timestamp": "2023-02-17T20:11:35Z",
            "transactionFee": "0.02243255255331945",
            "txnHash": "0xc643a43a3597b287be676ee7a3f757c879aae9b36c59a78c58a946491f485d0a",
            "txnIndex": 16,
            "type": 2,
            "value": "488000000000000000"
        },
        "fund_flow": [
            {
                "amount": "0.488",
                "from": "0x7e3af66e6cf2278e45e0e56f8fdf4a033295ee1e",
                "id": 1,
                "isERC1155": false,
                "isERC721": false,
                "isReverted": false,
                "order": 1,
                "to": "0x000000000000ad05ccc4f10045630fb830b95127",
                "token": "0xeeeeeeeeeeeeeeeeeeeeeeeeeeeeeeeeeeeeeeee"
            },
            {
                "amount": "0.0325008",
                "from": "0x000000000000ad05ccc4f10045630fb830b95127",
                "id": 2,
                "isERC1155": false,
                "isERC721": false,
                "isReverted": false,
                "order": 2,
                "to": "0x87e0a274007b6e8bdee0acabb701dfd0081abe8a",
                "token": "0xeeeeeeeeeeeeeeeeeeeeeeeeeeeeeeeeeeeeeeee"
            },
            {
                "amount": "0.4554992",
                "from": "0x000000000000ad05ccc4f10045630fb830b95127",
                "id": 3,
                "isERC1155": false,
                "isERC721": false,
                "isReverted": false,
                "order": 3,
                "to": "0x5e71553f2bdf4ea29a3b1f8f7e95e06acbb4c31d",
                "token": "0xeeeeeeeeeeeeeeeeeeeeeeeeeeeeeeeeeeeeeeee"
            },
            {
                "amount": "1",
                "from": "0x5e71553f2bdf4ea29a3b1f8f7e95e06acbb4c31d",
                "id": 4,
                "isERC1155": false,
                "isERC721": true,
                "isReverted": false,
                "order": 4,
                "to": "0x7e3af66e6cf2278e45e0e56f8fdf4a033295ee1e",
                "token": "0x63217dbb73e7a02c1d30f486e899ee66d0aa5e0b",
                "tokenID": "751"
            }
        ],
        "token_infos": [
            {
                "address": "0xc02aaa39b223fe8d0a0e5c4f27ead9083c756cc2",
                "decimals": 18
            },
            {
                "address": "0xeeeeeeeeeeeeeeeeeeeeeeeeeeeeeeeeeeeeeeee",
                "decimals": 18
            }
        ]
    },
    "address_label": {
        "labels": [
            {
                "address": "0x000000000000ad05ccc4f10045630fb830b95127",
                "label": "Blur.io: Marketplace"
            },
            {
                "address": "0x63217dbb73e7a02c1d30f486e899ee66d0aa5e0b",
                "label": "Ghost Boy: GHOST Token"
            },
            {
                "address": "0x0000000000dab4a563819e8fd93dba3b25bc3495",
                "label": "StandardPolicyERC721"
            },
            {
                "address": "0x0000000000000000000000000000000000000001",
                "label": "Precompiled"
            },
            {
                "address": "0x0000000000000000000000000000000000000004",
                "label": "Precompiled"
            },
            {
                "address": "0xeeeeeeeeeeeeeeeeeeeeeeeeeeeeeeeeeeeeeeee",
                "label": "Ether"
            },
            {
                "address": "0x00000000000111abe46ff893f3b2fdf1f759a8a8",
                "label": "Blur: Execution Delegate"
            },
            {
                "address": "0x983e96c26782a8db500a6fb8ab47a52e1b44862d",
                "label": "BlurExchange"
            },
            {
                "address": "0x3a35a3102b5c6bd1e4d3237248be071ef53c8331",
                "label": "PolicyManager"
            },
            {
                "address": "0x4c2bbdbeccae1c492c681158a46eae498a05627b",
                "label": "MerkleVerifier"
            },
            {
                "address": "0x000000000000aaeb6d7670e522a718067333cd4e",
                "label": "OperatorFilterRegistry"
            },
            {
                "address": "0x0000000000000000000000000000000000000002",
                "label": "Precompiled"
            },
            {
                "address": "0x0000000000000000000000000000000000000000",
                "label": "Null Address"
            },
            {
                "address": "0x0000000000000000000000000000000000000003",
                "label": "Precompiled"
            }
        ]
    },
    "trace": {
        "accountLabels": null,
        "dataMap": {
            "-1": {
                "invocation": {
                    "address": "0x7e3af66e6cf2278e45e0e56f8fdf4a033295ee1e",
                    "callData": "",
                    "decodedMethod": null,
                    "errorInfo": "",
                    "fromAddress": "",
                    "gasUsed": 0,
                    "id": -1,
                    "methodDecoded": false,
                    "operation": "",
                    "output": "",
                    "revert": false,
                    "revertMessage": "",
                    "selector": "",
                    "status": false,
                    "value": ""
                },
                "nodeType": 0
            },
            "0": {
                "invocation": {
                    "address": "0x000000000000ad05ccc4f10045630fb830b95127",
                    "callData": "0x0000000000000000000000000000000000000000000000000000000000000040000000000000000000000000000000000000000000000000000000000000044000000000000000000000000000000000000000000000000000000000000000e0000000000000000000000000000000000000000000000000000000000000001bcb3cae09eb161972f945fabfe1161bc245221a496b2edf66b5ccbaf7ac59cc1b7f661dfd0525b1c334ca0deaeffecafbcb49c02717d8100951c05809059d45a3000000000000000000000000000000000000000000000000000000000000032000000000000000000000000000000000000000000000000000000000000000010000000000000000000000000000000000000000000000000000000000fe11d50000000000000000000000005e71553f2bdf4ea29a3b1f8f7e95e06acbb4c31d00000000000000000000000000000000000000000000000000000000000000010000000000000000000000000000000000dab4a563819e8fd93dba3b25bc349500000000000000000000000063217dbb73e7a02c1d30f486e899ee66d0aa5e0b00000000000000000000000000000000000000000000000000000000000002ef0000000000000000000000000000000000000000000000000000000000000001000000000000000000000000000000000000000000000000000000000000000000000000000000000000000000000000000000000000000006c5b96a1a6400000000000000000000000000000000000000000000000000000000000063efcb2e0000000000000000000000000000000000000000000000000000000063f3bfae00000000000000000000000000000000000000000000000000000000000001a000000000000000000000000000000000546ab2de8931d2458e9df763ff406d3700000000000000000000000000000000000000000000000000000000000002000000000000000000000000000000000000000000000000000000000000000001000000000000000000000000000000000000000000000000000000000000029a00000000000000000000000087e0a274007b6e8bdee0acabb701dfd0081abe8a0000000000000000000000000000000000000000000000000000000000000001010000000000000000000000000000000000000000000000000000000000000000000000000000000000000000000000000000000000000000000000000000c00000000000000000000000000000000000000000000000000000000000000080000000000000000000000000000000000000000000000000000000000000001c506e4d578efe0aee732cfb4746ccb1a4dfd65089aa5388ff4f83e358a219a2d91b259b5b2f1d1f2f72554b23bfd6301f44689f431b1e0acd890f79b665fe6a51000000000000000000000000000000000000000000000000000000000000000127027dd3c2950935e0a5eeba925364aa2f84026b40c384c935cd460d2222762700000000000000000000000000000000000000000000000000000000000000e000000000000000000000000000000000000000000000000000000000000000000000000000000000000000000000000000000000000000000000000000000000000000000000000000000000000000000000000000000000000000000000000000000000000000000000000000000000000000000000000000000000000002e000000000000000000000000000000000000000000000000000000000000000000000000000000000000000000000000000000000000000000000000000fe11d50000000000000000000000007e3af66e6cf2278e45e0e56f8fdf4a033295ee1e00000000000000000000000000000000000000000000000000000000000000000000000000000000000000000000000000dab4a563819e8fd93dba3b25bc349500000000000000000000000063217dbb73e7a02c1d30f486e899ee66d0aa5e0b00000000000000000000000000000000000000000000000000000000000002ef0000000000000000000000000000000000000000000000000000000000000001000000000000000000000000000000000000000000000000000000000000000000000000000000000000000000000000000000000000000006c5b96a1a6400000000000000000000000000000000000000000000000000000000000063efcb2f0000000000000000000000000000000000000000000000000000000063efed7600000000000000000000000000000000000000000000000000000000000001a000000000000000000000000000000000471b31b532e34523106c14faceb1ab4f00000000000000000000000000000000000000000000000000000000000001c00000000000000000000000000000000000000000000000000000000000000000000000000000000000000000000000000000000000000000000000000000000101000000000000000000000000000000000000000000000000000000000000000000000000000000000000000000000000000000000000000000000000000060000000000000000000000000000000000000000000000000000000000000001cc8e7a2826e1b6aec66e677e7cfe5812ddf21eb3383d3d0067f446aedd16488065374091eb852024dc961c5110207d0d766e308fe08801cb8c8ee812e6e7f96d3",
                    "decodedMethod": {
                        "callParams": [
                            {
                                "name": "sell",
                                "type": "((address,uint8,address,address,uint256,uint256,address,uint256,uint256,uint256,(uint16,address)[],uint256,bytes),uint8,bytes32,bytes32,bytes,uint8,uint256)",
                                "value": [
                                    {
                                        "name": "order",
                                        "type": "(address,uint8,address,address,uint256,uint256,address,uint256,uint256,uint256,(uint16,address)[],uint256,bytes)",
                                        "value": [
                                            {
                                                "name": "trader",
                                                "type": "address",
                                                "value": "0x5e71553f2bdf4ea29a3b1f8f7e95e06acbb4c31d"
                                            },
                                            {
                                                "name": "side",
                                                "type": "uint8",
                                                "value": "1"
                                            },
                                            {
                                                "name": "matchingPolicy",
                                                "type": "address",
                                                "value": "0x0000000000dab4a563819e8fd93dba3b25bc3495"
                                            },
                                            {
                                                "name": "collection",
                                                "type": "address",
                                                "value": "0x63217dbb73e7a02c1d30f486e899ee66d0aa5e0b"
                                            },
                                            {
                                                "name": "tokenId",
                                                "type": "uint256",
                                                "value": "751"
                                            },
                                            {
                                                "name": "amount",
                                                "type": "uint256",
                                                "value": "1"
                                            },
                                            {
                                                "name": "paymentToken",
                                                "type": "address",
                                                "value": "0x0000000000000000000000000000000000000000"
                                            },
                                            {
                                                "name": "price",
                                                "type": "uint256",
                                                "value": "488,000,000,000,000,000"
                                            },
                                            {
                                                "name": "listingTime",
                                                "type": "uint256",
                                                "value": "1,676,659,502"
                                            },
                                            {
                                                "name": "expirationTime",
                                                "type": "uint256",
                                                "value": "1,676,918,702"
                                            },
                                            {
                                                "name": "fees",
                                                "type": "(uint16,address)[]",
                                                "value": [
                                                    [
                                                        {
                                                            "name": "rate",
                                                            "type": "uint16",
                                                            "value": "666"
                                                        },
                                                        {
                                                            "name": "recipient",
                                                            "type": "address",
                                                            "value": "0x87e0a274007b6e8bdee0acabb701dfd0081abe8a"
                                                        }
                                                    ]
                                                ]
                                            },
                                            {
                                                "name": "salt",
                                                "type": "uint256",
                                                "value": "112,209,163,012,958,829,907,311,210,941,827,280,183"
                                            },
                                            {
                                                "name": "extraParams",
                                                "type": "bytes",
                                                "value": "0x01"
                                            }
                                        ]
                                    },
                                    {
                                        "name": "v",
                                        "type": "uint8",
                                        "value": "27"
                                    },
                                    {
                                        "name": "r",
                                        "type": "bytes32",
                                        "value": "0xcb3cae09eb161972f945fabfe1161bc245221a496b2edf66b5ccbaf7ac59cc1b"
                                    },
                                    {
                                        "name": "s",
                                        "type": "bytes32",
                                        "value": "0x7f661dfd0525b1c334ca0deaeffecafbcb49c02717d8100951c05809059d45a3"
                                    },
                                    {
                                        "name": "extraSignature",
                                        "type": "bytes",
                                        "value": "0x0000000000000000000000000000000000000000000000000000000000000080000000000000000000000000000000000000000000000000000000000000001c506e4d578efe0aee732cfb4746ccb1a4dfd65089aa5388ff4f83e358a219a2d91b259b5b2f1d1f2f72554b23bfd6301f44689f431b1e0acd890f79b665fe6a51000000000000000000000000000000000000000000000000000000000000000127027dd3c2950935e0a5eeba925364aa2f84026b40c384c935cd460d22227627"
                                    },
                                    {
                                        "name": "signatureVersion",
                                        "type": "uint8",
                                        "value": "1"
                                    },
                                    {
                                        "name": "blockNumber",
                                        "type": "uint256",
                                        "value": "16,650,709"
                                    }
                                ]
                            },
                            {
                                "name": "buy",
                                "type": "((address,uint8,address,address,uint256,uint256,address,uint256,uint256,uint256,(uint16,address)[],uint256,bytes),uint8,bytes32,bytes32,bytes,uint8,uint256)",
                                "value": [
                                    {
                                        "name": "order",
                                        "type": "(address,uint8,address,address,uint256,uint256,address,uint256,uint256,uint256,(uint16,address)[],uint256,bytes)",
                                        "value": [
                                            {
                                                "name": "trader",
                                                "type": "address",
                                                "value": "0x7e3af66e6cf2278e45e0e56f8fdf4a033295ee1e"
                                            },
                                            {
                                                "name": "side",
                                                "type": "uint8",
                                                "value": "0"
                                            },
                                            {
                                                "name": "matchingPolicy",
                                                "type": "address",
                                                "value": "0x0000000000dab4a563819e8fd93dba3b25bc3495"
                                            },
                                            {
                                                "name": "collection",
                                                "type": "address",
                                                "value": "0x63217dbb73e7a02c1d30f486e899ee66d0aa5e0b"
                                            },
                                            {
                                                "name": "tokenId",
                                                "type": "uint256",
                                                "value": "751"
                                            },
                                            {
                                                "name": "amount",
                                                "type": "uint256",
                                                "value": "1"
                                            },
                                            {
                                                "name": "paymentToken",
                                                "type": "address",
                                                "value": "0x0000000000000000000000000000000000000000"
                                            },
                                            {
                                                "name": "price",
                                                "type": "uint256",
                                                "value": "488,000,000,000,000,000"
                                            },
                                            {
                                                "name": "listingTime",
                                                "type": "uint256",
                                                "value": "1,676,659,503"
                                            },
                                            {
                                                "name": "expirationTime",
                                                "type": "uint256",
                                                "value": "1,676,668,278"
                                            },
                                            {
                                                "name": "fees",
                                                "type": "(uint16,address)[]",
                                                "value": []
                                            },
                                            {
                                                "name": "salt",
                                                "type": "uint256",
                                                "value": "94,516,387,910,026,464,478,062,981,241,346,566,991"
                                            },
                                            {
                                                "name": "extraParams",
                                                "type": "bytes",
                                                "value": "0x01"
                                            }
                                        ]
                                    },
                                    {
                                        "name": "v",
                                        "type": "uint8",
                                        "value": "0"
                                    },
                                    {
                                        "name": "r",
                                        "type": "bytes32",
                                        "value": "0x0000000000000000000000000000000000000000000000000000000000000000"
                                    },
                                    {
                                        "name": "s",
                                        "type": "bytes32",
                                        "value": "0x0000000000000000000000000000000000000000000000000000000000000000"
                                    },
                                    {
                                        "name": "extraSignature",
                                        "type": "bytes",
                                        "value": "0x000000000000000000000000000000000000000000000000000000000000001cc8e7a2826e1b6aec66e677e7cfe5812ddf21eb3383d3d0067f446aedd16488065374091eb852024dc961c5110207d0d766e308fe08801cb8c8ee812e6e7f96d3"
                                    },
                                    {
                                        "name": "signatureVersion",
                                        "type": "uint8",
                                        "value": "0"
                                    },
                                    {
                                        "name": "blockNumber",
                                        "type": "uint256",
                                        "value": "16,650,709"
                                    }
                                ]
                            }
                        ],
                        "constructorArguments": "",
                        "name": "execute",
                        "returnParams": [],
                        "signature": "execute(((address,uint8,address,address,uint256,uint256,address,uint256,uint256,uint256,(uint16,address)[],uint256,bytes),uint8,bytes32,bytes32,bytes,uint8,uint256),((address,uint8,address,address,uint256,uint256,address,uint256,uint256,uint256,(uint16,address)[],uint256,bytes),uint8,bytes32,bytes32,bytes,uint8,uint256))"
                    },
                    "errorInfo": "",
                    "fromAddress": "0x7e3af66e6cf2278e45e0e56f8fdf4a033295ee1e",
                    "gasUsed": 286485,
                    "id": 0,
                    "methodDecoded": true,
                    "operation": "CALL",
                    "output": "",
                    "revert": false,
                    "revertMessage": "",
                    "selector": "0x9a1fc3a7",
                    "status": true,
                    "value": "0.488"
                },
                "nodeType": 0
            },
            "1": {
                "invocation": {
                    "address": "0x983e96c26782a8db500a6fb8ab47a52e1b44862d",
                    "callData": "0x0000000000000000000000000000000000000000000000000000000000000040000000000000000000000000000000000000000000000000000000000000044000000000000000000000000000000000000000000000000000000000000000e0000000000000000000000000000000000000000000000000000000000000001bcb3cae09eb161972f945fabfe1161bc245221a496b2edf66b5ccbaf7ac59cc1b7f661dfd0525b1c334ca0deaeffecafbcb49c02717d8100951c05809059d45a3000000000000000000000000000000000000000000000000000000000000032000000000000000000000000000000000000000000000000000000000000000010000000000000000000000000000000000000000000000000000000000fe11d50000000000000000000000005e71553f2bdf4ea29a3b1f8f7e95e06acbb4c31d00000000000000000000000000000000000000000000000000000000000000010000000000000000000000000000000000dab4a563819e8fd93dba3b25bc349500000000000000000000000063217dbb73e7a02c1d30f486e899ee66d0aa5e0b00000000000000000000000000000000000000000000000000000000000002ef0000000000000000000000000000000000000000000000000000000000000001000000000000000000000000000000000000000000000000000000000000000000000000000000000000000000000000000000000000000006c5b96a1a6400000000000000000000000000000000000000000000000000000000000063efcb2e0000000000000000000000000000000000000000000000000000000063f3bfae00000000000000000000000000000000000000000000000000000000000001a000000000000000000000000000000000546ab2de8931d2458e9df763ff406d3700000000000000000000000000000000000000000000000000000000000002000000000000000000000000000000000000000000000000000000000000000001000000000000000000000000000000000000000000000000000000000000029a00000000000000000000000087e0a274007b6e8bdee0acabb701dfd0081abe8a0000000000000000000000000000000000000000000000000000000000000001010000000000000000000000000000000000000000000000000000000000000000000000000000000000000000000000000000000000000000000000000000c00000000000000000000000000000000000000000000000000000000000000080000000000000000000000000000000000000000000000000000000000000001c506e4d578efe0aee732cfb4746ccb1a4dfd65089aa5388ff4f83e358a219a2d91b259b5b2f1d1f2f72554b23bfd6301f44689f431b1e0acd890f79b665fe6a51000000000000000000000000000000000000000000000000000000000000000127027dd3c2950935e0a5eeba925364aa2f84026b40c384c935cd460d2222762700000000000000000000000000000000000000000000000000000000000000e000000000000000000000000000000000000000000000000000000000000000000000000000000000000000000000000000000000000000000000000000000000000000000000000000000000000000000000000000000000000000000000000000000000000000000000000000000000000000000000000000000000000002e000000000000000000000000000000000000000000000000000000000000000000000000000000000000000000000000000000000000000000000000000fe11d50000000000000000000000007e3af66e6cf2278e45e0e56f8fdf4a033295ee1e00000000000000000000000000000000000000000000000000000000000000000000000000000000000000000000000000dab4a563819e8fd93dba3b25bc349500000000000000000000000063217dbb73e7a02c1d30f486e899ee66d0aa5e0b00000000000000000000000000000000000000000000000000000000000002ef0000000000000000000000000000000000000000000000000000000000000001000000000000000000000000000000000000000000000000000000000000000000000000000000000000000000000000000000000000000006c5b96a1a6400000000000000000000000000000000000000000000000000000000000063efcb2f0000000000000000000000000000000000000000000000000000000063efed7600000000000000000000000000000000000000000000000000000000000001a000000000000000000000000000000000471b31b532e34523106c14faceb1ab4f00000000000000000000000000000000000000000000000000000000000001c00000000000000000000000000000000000000000000000000000000000000000000000000000000000000000000000000000000000000000000000000000000101000000000000000000000000000000000000000000000000000000000000000000000000000000000000000000000000000000000000000000000000000060000000000000000000000000000000000000000000000000000000000000001cc8e7a2826e1b6aec66e677e7cfe5812ddf21eb3383d3d0067f446aedd16488065374091eb852024dc961c5110207d0d766e308fe08801cb8c8ee812e6e7f96d3",
                    "decodedMethod": {
                        "callParams": [
                            {
                                "name": "sell",
                                "type": "((address,uint8,address,address,uint256,uint256,address,uint256,uint256,uint256,(uint16,address)[],uint256,bytes),uint8,bytes32,bytes32,bytes,uint8,uint256)",
                                "value": [
                                    {
                                        "name": "order",
                                        "type": "(address,uint8,address,address,uint256,uint256,address,uint256,uint256,uint256,(uint16,address)[],uint256,bytes)",
                                        "value": [
                                            {
                                                "name": "trader",
                                                "type": "address",
                                                "value": "0x5e71553f2bdf4ea29a3b1f8f7e95e06acbb4c31d"
                                            },
                                            {
                                                "name": "side",
                                                "type": "uint8",
                                                "value": "1"
                                            },
                                            {
                                                "name": "matchingPolicy",
                                                "type": "address",
                                                "value": "0x0000000000dab4a563819e8fd93dba3b25bc3495"
                                            },
                                            {
                                                "name": "collection",
                                                "type": "address",
                                                "value": "0x63217dbb73e7a02c1d30f486e899ee66d0aa5e0b"
                                            },
                                            {
                                                "name": "tokenId",
                                                "type": "uint256",
                                                "value": "751"
                                            },
                                            {
                                                "name": "amount",
                                                "type": "uint256",
                                                "value": "1"
                                            },
                                            {
                                                "name": "paymentToken",
                                                "type": "address",
                                                "value": "0x0000000000000000000000000000000000000000"
                                            },
                                            {
                                                "name": "price",
                                                "type": "uint256",
                                                "value": "488,000,000,000,000,000"
                                            },
                                            {
                                                "name": "listingTime",
                                                "type": "uint256",
                                                "value": "1,676,659,502"
                                            },
                                            {
                                                "name": "expirationTime",
                                                "type": "uint256",
                                                "value": "1,676,918,702"
                                            },
                                            {
                                                "name": "fees",
                                                "type": "(uint16,address)[]",
                                                "value": [
                                                    [
                                                        {
                                                            "name": "rate",
                                                            "type": "uint16",
                                                            "value": "666"
                                                        },
                                                        {
                                                            "name": "recipient",
                                                            "type": "address",
                                                            "value": "0x87e0a274007b6e8bdee0acabb701dfd0081abe8a"
                                                        }
                                                    ]
                                                ]
                                            },
                                            {
                                                "name": "salt",
                                                "type": "uint256",
                                                "value": "112,209,163,012,958,829,907,311,210,941,827,280,183"
                                            },
                                            {
                                                "name": "extraParams",
                                                "type": "bytes",
                                                "value": "0x01"
                                            }
                                        ]
                                    },
                                    {
                                        "name": "v",
                                        "type": "uint8",
                                        "value": "27"
                                    },
                                    {
                                        "name": "r",
                                        "type": "bytes32",
                                        "value": "0xcb3cae09eb161972f945fabfe1161bc245221a496b2edf66b5ccbaf7ac59cc1b"
                                    },
                                    {
                                        "name": "s",
                                        "type": "bytes32",
                                        "value": "0x7f661dfd0525b1c334ca0deaeffecafbcb49c02717d8100951c05809059d45a3"
                                    },
                                    {
                                        "name": "extraSignature",
                                        "type": "bytes",
                                        "value": "0x0000000000000000000000000000000000000000000000000000000000000080000000000000000000000000000000000000000000000000000000000000001c506e4d578efe0aee732cfb4746ccb1a4dfd65089aa5388ff4f83e358a219a2d91b259b5b2f1d1f2f72554b23bfd6301f44689f431b1e0acd890f79b665fe6a51000000000000000000000000000000000000000000000000000000000000000127027dd3c2950935e0a5eeba925364aa2f84026b40c384c935cd460d22227627"
                                    },
                                    {
                                        "name": "signatureVersion",
                                        "type": "uint8",
                                        "value": "1"
                                    },
                                    {
                                        "name": "blockNumber",
                                        "type": "uint256",
                                        "value": "16,650,709"
                                    }
                                ]
                            },
                            {
                                "name": "buy",
                                "type": "((address,uint8,address,address,uint256,uint256,address,uint256,uint256,uint256,(uint16,address)[],uint256,bytes),uint8,bytes32,bytes32,bytes,uint8,uint256)",
                                "value": [
                                    {
                                        "name": "order",
                                        "type": "(address,uint8,address,address,uint256,uint256,address,uint256,uint256,uint256,(uint16,address)[],uint256,bytes)",
                                        "value": [
                                            {
                                                "name": "trader",
                                                "type": "address",
                                                "value": "0x7e3af66e6cf2278e45e0e56f8fdf4a033295ee1e"
                                            },
                                            {
                                                "name": "side",
                                                "type": "uint8",
                                                "value": "0"
                                            },
                                            {
                                                "name": "matchingPolicy",
                                                "type": "address",
                                                "value": "0x0000000000dab4a563819e8fd93dba3b25bc3495"
                                            },
                                            {
                                                "name": "collection",
                                                "type": "address",
                                                "value": "0x63217dbb73e7a02c1d30f486e899ee66d0aa5e0b"
                                            },
                                            {
                                                "name": "tokenId",
                                                "type": "uint256",
                                                "value": "751"
                                            },
                                            {
                                                "name": "amount",
                                                "type": "uint256",
                                                "value": "1"
                                            },
                                            {
                                                "name": "paymentToken",
                                                "type": "address",
                                                "value": "0x0000000000000000000000000000000000000000"
                                            },
                                            {
                                                "name": "price",
                                                "type": "uint256",
                                                "value": "488,000,000,000,000,000"
                                            },
                                            {
                                                "name": "listingTime",
                                                "type": "uint256",
                                                "value": "1,676,659,503"
                                            },
                                            {
                                                "name": "expirationTime",
                                                "type": "uint256",
                                                "value": "1,676,668,278"
                                            },
                                            {
                                                "name": "fees",
                                                "type": "(uint16,address)[]",
                                                "value": []
                                            },
                                            {
                                                "name": "salt",
                                                "type": "uint256",
                                                "value": "94,516,387,910,026,464,478,062,981,241,346,566,991"
                                            },
                                            {
                                                "name": "extraParams",
                                                "type": "bytes",
                                                "value": "0x01"
                                            }
                                        ]
                                    },
                                    {
                                        "name": "v",
                                        "type": "uint8",
                                        "value": "0"
                                    },
                                    {
                                        "name": "r",
                                        "type": "bytes32",
                                        "value": "0x0000000000000000000000000000000000000000000000000000000000000000"
                                    },
                                    {
                                        "name": "s",
                                        "type": "bytes32",
                                        "value": "0x0000000000000000000000000000000000000000000000000000000000000000"
                                    },
                                    {
                                        "name": "extraSignature",
                                        "type": "bytes",
                                        "value": "0x000000000000000000000000000000000000000000000000000000000000001cc8e7a2826e1b6aec66e677e7cfe5812ddf21eb3383d3d0067f446aedd16488065374091eb852024dc961c5110207d0d766e308fe08801cb8c8ee812e6e7f96d3"
                                    },
                                    {
                                        "name": "signatureVersion",
                                        "type": "uint8",
                                        "value": "0"
                                    },
                                    {
                                        "name": "blockNumber",
                                        "type": "uint256",
                                        "value": "16,650,709"
                                    }
                                ]
                            }
                        ],
                        "constructorArguments": "",
                        "name": "execute",
                        "returnParams": [],
                        "signature": "execute(((address,uint8,address,address,uint256,uint256,address,uint256,uint256,uint256,(uint16,address)[],uint256,bytes),uint8,bytes32,bytes32,bytes,uint8,uint256),((address,uint8,address,address,uint256,uint256,address,uint256,uint256,uint256,(uint16,address)[],uint256,bytes),uint8,bytes32,bytes32,bytes,uint8,uint256))"
                    },
                    "errorInfo": "",
                    "fromAddress": "0x000000000000ad05ccc4f10045630fb830b95127",
                    "gasUsed": 316182,
                    "id": 1,
                    "methodDecoded": true,
                    "operation": "DELEGATECALL",
                    "output": "",
                    "revert": false,
                    "revertMessage": "",
                    "selector": "0x9a1fc3a7",
                    "status": true,
                    "value": "0.488"
                },
                "nodeType": 0
            },
            "10": {
                "invocation": {
                    "address": "0x00000000000111abe46ff893f3b2fdf1f759a8a8",
                    "callData": "0x00000000000000000000000063217dbb73e7a02c1d30f486e899ee66d0aa5e0b0000000000000000000000005e71553f2bdf4ea29a3b1f8f7e95e06acbb4c31d0000000000000000000000007e3af66e6cf2278e45e0e56f8fdf4a033295ee1e00000000000000000000000000000000000000000000000000000000000002ef",
                    "decodedMethod": {
                        "callParams": [
                            {
                                "name": "collection",
                                "type": "address",
                                "value": "0x63217dbb73e7a02c1d30f486e899ee66d0aa5e0b"
                            },
                            {
                                "name": "from",
                                "type": "address",
                                "value": "0x5e71553f2bdf4ea29a3b1f8f7e95e06acbb4c31d"
                            },
                            {
                                "name": "to",
                                "type": "address",
                                "value": "0x7e3af66e6cf2278e45e0e56f8fdf4a033295ee1e"
                            },
                            {
                                "name": "tokenId",
                                "type": "uint256",
                                "value": "751"
                            }
                        ],
                        "constructorArguments": "",
                        "name": "transferERC721",
                        "returnParams": [],
                        "signature": "transferERC721(address,address,address,uint256)"
                    },
                    "errorInfo": "",
                    "fromAddress": "0x000000000000ad05ccc4f10045630fb830b95127",
                    "gasUsed": 92847,
                    "id": 10,
                    "methodDecoded": true,
                    "operation": "CALL",
                    "output": "",
                    "revert": false,
                    "revertMessage": "",
                    "selector": "0x789f93f6",
                    "status": true,
                    "value": "0"
                },
                "nodeType": 0
            },
            "11": {
                "invocation": {
                    "address": "0x63217dbb73e7a02c1d30f486e899ee66d0aa5e0b",
                    "callData": "0x0000000000000000000000005e71553f2bdf4ea29a3b1f8f7e95e06acbb4c31d0000000000000000000000007e3af66e6cf2278e45e0e56f8fdf4a033295ee1e00000000000000000000000000000000000000000000000000000000000002ef",
                    "decodedMethod": {
                        "callParams": [
                            {
                                "name": "from",
                                "type": "address",
                                "value": "0x5e71553f2bdf4ea29a3b1f8f7e95e06acbb4c31d"
                            },
                            {
                                "name": "to",
                                "type": "address",
                                "value": "0x7e3af66e6cf2278e45e0e56f8fdf4a033295ee1e"
                            },
                            {
                                "name": "tokenId",
                                "type": "uint256",
                                "value": "751"
                            }
                        ],
                        "constructorArguments": "",
                        "name": "safeTransferFrom",
                        "returnParams": [],
                        "signature": "safeTransferFrom(address,address,uint256)"
                    },
                    "errorInfo": "",
                    "fromAddress": "0x00000000000111abe46ff893f3b2fdf1f759a8a8",
                    "gasUsed": 84926,
                    "id": 11,
                    "methodDecoded": true,
                    "operation": "CALL",
                    "output": "",
                    "revert": false,
                    "revertMessage": "",
                    "selector": "0x42842e0e",
                    "status": true,
                    "value": "0"
                },
                "nodeType": 0
            },
            "12": {
                "invocation": {
                    "address": "0x000000000000aaeb6d7670e522a718067333cd4e",
                    "callData": "0x00000000000000000000000063217dbb73e7a02c1d30f486e899ee66d0aa5e0b00000000000000000000000000000000000111abe46ff893f3b2fdf1f759a8a8",
                    "decodedMethod": {
                        "callParams": [
                            {
                                "name": "registrant",
                                "type": "address",
                                "value": "0x63217dbb73e7a02c1d30f486e899ee66d0aa5e0b"
                            },
                            {
                                "name": "operator",
                                "type": "address",
                                "value": "0x00000000000111abe46ff893f3b2fdf1f759a8a8"
                            }
                        ],
                        "constructorArguments": "",
                        "name": "isOperatorAllowed",
                        "returnParams": [
                            {
                                "name": "",
                                "type": "bool",
                                "value": true
                            }
                        ],
                        "signature": "isOperatorAllowed(address,address)"
                    },
                    "errorInfo": "",
                    "fromAddress": "0x63217dbb73e7a02c1d30f486e899ee66d0aa5e0b",
                    "gasUsed": 7627,
                    "id": 12,
                    "methodDecoded": true,
                    "operation": "STATICCALL",
                    "output": "0x0000000000000000000000000000000000000000000000000000000000000001",
                    "revert": false,
                    "revertMessage": "",
                    "selector": "0xc6171134",
                    "status": true,
                    "value": "0"
                },
                "nodeType": 0
            },
            "13": {
                "invocation": {
                    "address": "0x000000000000aaeb6d7670e522a718067333cd4e",
                    "callData": "0x00000000000000000000000063217dbb73e7a02c1d30f486e899ee66d0aa5e0b00000000000000000000000000000000000111abe46ff893f3b2fdf1f759a8a8",
                    "decodedMethod": {
                        "callParams": [
                            {
                                "name": "registrant",
                                "type": "address",
                                "value": "0x63217dbb73e7a02c1d30f486e899ee66d0aa5e0b"
                            },
                            {
                                "name": "operator",
                                "type": "address",
                                "value": "0x00000000000111abe46ff893f3b2fdf1f759a8a8"
                            }
                        ],
                        "constructorArguments": "",
                        "name": "isOperatorAllowed",
                        "returnParams": [
                            {
                                "name": "",
                                "type": "bool",
                                "value": true
                            }
                        ],
                        "signature": "isOperatorAllowed(address,address)"
                    },
                    "errorInfo": "",
                    "fromAddress": "0x63217dbb73e7a02c1d30f486e899ee66d0aa5e0b",
                    "gasUsed": 1627,
                    "id": 13,
                    "methodDecoded": true,
                    "operation": "STATICCALL",
                    "output": "0x0000000000000000000000000000000000000000000000000000000000000001",
                    "revert": false,
                    "revertMessage": "",
                    "selector": "0xc6171134",
                    "status": true,
                    "value": "0"
                },
                "nodeType": 0
            },
            "14": {
                "event": {
                    "contract": "0x63217dbb73e7a02c1d30f486e899ee66d0aa5e0b",
                    "decodedLog": {
                        "name": "Transfer",
                        "params": [
                            {
                                "name": "from",
                                "type": "address",
                                "value": "0x5e71553f2bdf4ea29a3b1f8f7e95e06acbb4c31d"
                            },
                            {
                                "name": "to",
                                "type": "address",
                                "value": "0x7e3af66e6cf2278e45e0e56f8fdf4a033295ee1e"
                            },
                            {
                                "decimalAvailable": true,
                                "name": "tokenId",
                                "type": "uint256",
                                "value": "751"
                            }
                        ],
                        "signature": "Transfer(address,address,uint256)"
                    },
                    "id": 14,
                    "logData": "0x",
                    "logDecoded": true,
                    "operation": "EVENT",
                    "revert": false,
                    "status": true,
                    "topics": [
                        "0xddf252ad1be2c89b69c2b068fc378daa952ba7f163c4a11628f55a4df523b3ef",
                        "0x0000000000000000000000005e71553f2bdf4ea29a3b1f8f7e95e06acbb4c31d",
                        "0x0000000000000000000000007e3af66e6cf2278e45e0e56f8fdf4a033295ee1e",
                        "0x00000000000000000000000000000000000000000000000000000000000002ef"
                    ]
                },
                "nodeType": 1
            },
            "15": {
                "event": {
                    "contract": "0x000000000000ad05ccc4f10045630fb830b95127",
                    "decodedLog": {
                        "name": "OrdersMatched",
                        "params": [
                            {
                                "name": "maker",
                                "type": "address",
                                "value": "0x5e71553f2bdf4ea29a3b1f8f7e95e06acbb4c31d"
                            },
                            {
                                "name": "taker",
                                "type": "address",
                                "value": "0x7e3af66e6cf2278e45e0e56f8fdf4a033295ee1e"
                            },
                            {
                                "name": "sell",
                                "type": "(address,uint8,address,address,uint256,uint256,address,uint256,uint256,uint256,(uint16,address)[],uint256,bytes)",
                                "value": [
                                    {
                                        "name": "trader",
                                        "type": "address",
                                        "value": "0x5e71553f2bdf4ea29a3b1f8f7e95e06acbb4c31d"
                                    },
                                    {
                                        "name": "side",
                                        "type": "uint8",
                                        "value": "1"
                                    },
                                    {
                                        "name": "matchingPolicy",
                                        "type": "address",
                                        "value": "0x0000000000dab4a563819e8fd93dba3b25bc3495"
                                    },
                                    {
                                        "name": "collection",
                                        "type": "address",
                                        "value": "0x63217dbb73e7a02c1d30f486e899ee66d0aa5e0b"
                                    },
                                    {
                                        "name": "tokenId",
                                        "type": "uint256",
                                        "value": "751"
                                    },
                                    {
                                        "name": "amount",
                                        "type": "uint256",
                                        "value": "1"
                                    },
                                    {
                                        "name": "paymentToken",
                                        "type": "address",
                                        "value": "0x0000000000000000000000000000000000000000"
                                    },
                                    {
                                        "name": "price",
                                        "type": "uint256",
                                        "value": "488,000,000,000,000,000"
                                    },
                                    {
                                        "name": "listingTime",
                                        "type": "uint256",
                                        "value": "1,676,659,502"
                                    },
                                    {
                                        "name": "expirationTime",
                                        "type": "uint256",
                                        "value": "1,676,918,702"
                                    },
                                    {
                                        "name": "fees",
                                        "type": "(uint16,address)[]",
                                        "value": [
                                            [
                                                {
                                                    "name": "rate",
                                                    "type": "uint16",
                                                    "value": "666"
                                                },
                                                {
                                                    "name": "recipient",
                                                    "type": "address",
                                                    "value": "0x87e0a274007b6e8bdee0acabb701dfd0081abe8a"
                                                }
                                            ]
                                        ]
                                    },
                                    {
                                        "name": "salt",
                                        "type": "uint256",
                                        "value": "112,209,163,012,958,829,907,311,210,941,827,280,183"
                                    },
                                    {
                                        "name": "extraParams",
                                        "type": "bytes",
                                        "value": "0x01"
                                    }
                                ]
                            },
                            {
                                "name": "sellHash",
                                "type": "bytes32",
                                "value": "0x7095806d9bbb8269f4d12a3086d4a94ed724553f54c738e8be646c095b180946"
                            },
                            {
                                "name": "buy",
                                "type": "(address,uint8,address,address,uint256,uint256,address,uint256,uint256,uint256,(uint16,address)[],uint256,bytes)",
                                "value": [
                                    {
                                        "name": "trader",
                                        "type": "address",
                                        "value": "0x7e3af66e6cf2278e45e0e56f8fdf4a033295ee1e"
                                    },
                                    {
                                        "name": "side",
                                        "type": "uint8",
                                        "value": "0"
                                    },
                                    {
                                        "name": "matchingPolicy",
                                        "type": "address",
                                        "value": "0x0000000000dab4a563819e8fd93dba3b25bc3495"
                                    },
                                    {
                                        "name": "collection",
                                        "type": "address",
                                        "value": "0x63217dbb73e7a02c1d30f486e899ee66d0aa5e0b"
                                    },
                                    {
                                        "name": "tokenId",
                                        "type": "uint256",
                                        "value": "751"
                                    },
                                    {
                                        "name": "amount",
                                        "type": "uint256",
                                        "value": "1"
                                    },
                                    {
                                        "name": "paymentToken",
                                        "type": "address",
                                        "value": "0x0000000000000000000000000000000000000000"
                                    },
                                    {
                                        "name": "price",
                                        "type": "uint256",
                                        "value": "488,000,000,000,000,000"
                                    },
                                    {
                                        "name": "listingTime",
                                        "type": "uint256",
                                        "value": "1,676,659,503"
                                    },
                                    {
                                        "name": "expirationTime",
                                        "type": "uint256",
                                        "value": "1,676,668,278"
                                    },
                                    {
                                        "name": "fees",
                                        "type": "(uint16,address)[]",
                                        "value": []
                                    },
                                    {
                                        "name": "salt",
                                        "type": "uint256",
                                        "value": "94,516,387,910,026,464,478,062,981,241,346,566,991"
                                    },
                                    {
                                        "name": "extraParams",
                                        "type": "bytes",
                                        "value": "0x01"
                                    }
                                ]
                            },
                            {
                                "name": "buyHash",
                                "type": "bytes32",
                                "value": "0x0bb68ce916cd738246e1fd1f2d67ad0356e26a2e3d41b1c4c99d238906f4a69c"
                            }
                        ],
                        "signature": "OrdersMatched(address,address,(address,uint8,address,address,uint256,uint256,address,uint256,uint256,uint256,(uint16,address)[],uint256,bytes),bytes32,(address,uint8,address,address,uint256,uint256,address,uint256,uint256,uint256,(uint16,address)[],uint256,bytes),bytes32)"
                    },
                    "id": 15,
                    "logData": "0x00000000000000000000000000000000000000000000000000000000000000807095806d9bbb8269f4d12a3086d4a94ed724553f54c738e8be646c095b18094600000000000000000000000000000000000000000000000000000000000002c00bb68ce916cd738246e1fd1f2d67ad0356e26a2e3d41b1c4c99d238906f4a69c0000000000000000000000005e71553f2bdf4ea29a3b1f8f7e95e06acbb4c31d00000000000000000000000000000000000000000000000000000000000000010000000000000000000000000000000000dab4a563819e8fd93dba3b25bc349500000000000000000000000063217dbb73e7a02c1d30f486e899ee66d0aa5e0b00000000000000000000000000000000000000000000000000000000000002ef0000000000000000000000000000000000000000000000000000000000000001000000000000000000000000000000000000000000000000000000000000000000000000000000000000000000000000000000000000000006c5b96a1a6400000000000000000000000000000000000000000000000000000000000063efcb2e0000000000000000000000000000000000000000000000000000000063f3bfae00000000000000000000000000000000000000000000000000000000000001a000000000000000000000000000000000546ab2de8931d2458e9df763ff406d3700000000000000000000000000000000000000000000000000000000000002000000000000000000000000000000000000000000000000000000000000000001000000000000000000000000000000000000000000000000000000000000029a00000000000000000000000087e0a274007b6e8bdee0acabb701dfd0081abe8a000000000000000000000000000000000000000000000000000000000000000101000000000000000000000000000000000000000000000000000000000000000000000000000000000000007e3af66e6cf2278e45e0e56f8fdf4a033295ee1e00000000000000000000000000000000000000000000000000000000000000000000000000000000000000000000000000dab4a563819e8fd93dba3b25bc349500000000000000000000000063217dbb73e7a02c1d30f486e899ee66d0aa5e0b00000000000000000000000000000000000000000000000000000000000002ef0000000000000000000000000000000000000000000000000000000000000001000000000000000000000000000000000000000000000000000000000000000000000000000000000000000000000000000000000000000006c5b96a1a6400000000000000000000000000000000000000000000000000000000000063efcb2f0000000000000000000000000000000000000000000000000000000063efed7600000000000000000000000000000000000000000000000000000000000001a000000000000000000000000000000000471b31b532e34523106c14faceb1ab4f00000000000000000000000000000000000000000000000000000000000001c0000000000000000000000000000000000000000000000000000000000000000000000000000000000000000000000000000000000000000000000000000000010100000000000000000000000000000000000000000000000000000000000000",
                    "logDecoded": true,
                    "operation": "EVENT",
                    "revert": false,
                    "status": true,
                    "topics": [
                        "0x61cbb2a3dee0b6064c2e681aadd61677fb4ef319f0b547508d495626f5a62f64",
                        "0x0000000000000000000000005e71553f2bdf4ea29a3b1f8f7e95e06acbb4c31d",
                        "0x0000000000000000000000007e3af66e6cf2278e45e0e56f8fdf4a033295ee1e"
                    ]
                },
                "nodeType": 1
            },
            "2": {
                "invocation": {
                    "address": "0x0000000000000000000000000000000000000001",
                    "callData": "0x785e432f6353c6bba5625f82be2e3159c3b197c08de7e3018c4f56be000000000000000000000000000000000000000000000000000000000000001c506e4d578efe0aee732cfb4746ccb1a4dfd65089aa5388ff4f83e358a219a2d91b259b5b2f1d1f2f72554b23bfd6301f44689f431b1e0acd890f79b665fe6a51",
                    "decodedMethod": {
                        "callParams": [
                            {
                                "name": "hash",
                                "type": "bytes32",
                                "value": "0x8bbdbb88785e432f6353c6bba5625f82be2e3159c3b197c08de7e3018c4f56be"
                            },
                            {
                                "name": "v",
                                "type": "uint256",
                                "value": "28"
                            },
                            {
                                "name": "r",
                                "type": "bytes32",
                                "value": "0x506e4d578efe0aee732cfb4746ccb1a4dfd65089aa5388ff4f83e358a219a2d9"
                            },
                            {
                                "name": "s",
                                "type": "bytes32",
                                "value": "0x1b259b5b2f1d1f2f72554b23bfd6301f44689f431b1e0acd890f79b665fe6a51"
                            }
                        ],
                        "constructorArguments": "",
                        "name": "ecrecover",
                        "returnParams": [
                            {
                                "name": "",
                                "type": "address",
                                "value": "0xd44feab097e5fee7fd54c9481f56b806f7f3ddc1"
                            }
                        ],
                        "signature": "ecrecover(bytes32,uint256,bytes32,bytes32)"
                    },
                    "errorInfo": "",
                    "fromAddress": "0x000000000000ad05ccc4f10045630fb830b95127",
                    "gasUsed": 3000,
                    "id": 2,
                    "methodDecoded": true,
                    "operation": "STATICCALL",
                    "output": "0x000000000000000000000000d44feab097e5fee7fd54c9481f56b806f7f3ddc1",
                    "revert": false,
                    "revertMessage": "",
                    "selector": "0x8bbdbb88",
                    "status": true,
                    "value": "0"
                },
                "nodeType": 0
            },
            "3": {
                "invocation": {
                    "address": "0x4c2bbdbeccae1c492c681158a46eae498a05627b",
                    "callData": "0x7095806d9bbb8269f4d12a3086d4a94ed724553f54c738e8be646c095b1809460000000000000000000000000000000000000000000000000000000000000040000000000000000000000000000000000000000000000000000000000000000127027dd3c2950935e0a5eeba925364aa2f84026b40c384c935cd460d22227627",
                    "decodedMethod": {
                        "callParams": [
                            {
                                "name": "leaf",
                                "type": "bytes32",
                                "value": "0x7095806d9bbb8269f4d12a3086d4a94ed724553f54c738e8be646c095b180946"
                            },
                            {
                                "name": "proof",
                                "type": "bytes32[]",
                                "value": [
                                    "0x27027dd3c2950935e0a5eeba925364aa2f84026b40c384c935cd460d22227627"
                                ]
                            }
                        ],
                        "constructorArguments": "",
                        "name": "_computeRoot",
                        "returnParams": [
                            {
                                "name": "",
                                "type": "bytes32",
                                "value": "0x0b432d562c05d5d8ca1c727c4851545f9aa51fa89c6ce3ebffa0247f8f9f0028"
                            }
                        ],
                        "signature": "_computeRoot(bytes32,bytes32[])"
                    },
                    "errorInfo": "",
                    "fromAddress": "0x000000000000ad05ccc4f10045630fb830b95127",
                    "gasUsed": 1093,
                    "id": 3,
                    "methodDecoded": true,
                    "operation": "DELEGATECALL",
                    "output": "0x0b432d562c05d5d8ca1c727c4851545f9aa51fa89c6ce3ebffa0247f8f9f0028",
                    "revert": false,
                    "revertMessage": "",
                    "selector": "0x9c7bf938",
                    "status": true,
                    "value": "0.488"
                },
                "nodeType": 0
            },
            "4": {
                "invocation": {
                    "address": "0x0000000000000000000000000000000000000001",
                    "callData": "0x34305ec420936975b05a8645a45f2f80309c6daa3fb8be84878e0768000000000000000000000000000000000000000000000000000000000000001bcb3cae09eb161972f945fabfe1161bc245221a496b2edf66b5ccbaf7ac59cc1b7f661dfd0525b1c334ca0deaeffecafbcb49c02717d8100951c05809059d45a3",
                    "decodedMethod": {
                        "callParams": [
                            {
                                "name": "hash",
                                "type": "bytes32",
                                "value": "0xd64707cf34305ec420936975b05a8645a45f2f80309c6daa3fb8be84878e0768"
                            },
                            {
                                "name": "v",
                                "type": "uint256",
                                "value": "27"
                            },
                            {
                                "name": "r",
                                "type": "bytes32",
                                "value": "0xcb3cae09eb161972f945fabfe1161bc245221a496b2edf66b5ccbaf7ac59cc1b"
                            },
                            {
                                "name": "s",
                                "type": "bytes32",
                                "value": "0x7f661dfd0525b1c334ca0deaeffecafbcb49c02717d8100951c05809059d45a3"
                            }
                        ],
                        "constructorArguments": "",
                        "name": "ecrecover",
                        "returnParams": [
                            {
                                "name": "",
                                "type": "address",
                                "value": "0x5e71553f2bdf4ea29a3b1f8f7e95e06acbb4c31d"
                            }
                        ],
                        "signature": "ecrecover(bytes32,uint256,bytes32,bytes32)"
                    },
                    "errorInfo": "",
                    "fromAddress": "0x000000000000ad05ccc4f10045630fb830b95127",
                    "gasUsed": 3000,
                    "id": 4,
                    "methodDecoded": true,
                    "operation": "STATICCALL",
                    "output": "0x0000000000000000000000005e71553f2bdf4ea29a3b1f8f7e95e06acbb4c31d",
                    "revert": false,
                    "revertMessage": "",
                    "selector": "0xd64707cf",
                    "status": true,
                    "value": "0"
                },
                "nodeType": 0
            },
            "5": {
                "invocation": {
                    "address": "0x0000000000000000000000000000000000000001",
                    "callData": "0x178e8c1cf231949bafe6e454cee2a7b3cc063849d948d785f7dabcc8000000000000000000000000000000000000000000000000000000000000001cc8e7a2826e1b6aec66e677e7cfe5812ddf21eb3383d3d0067f446aedd16488065374091eb852024dc961c5110207d0d766e308fe08801cb8c8ee812e6e7f96d3",
                    "decodedMethod": {
                        "callParams": [
                            {
                                "name": "hash",
                                "type": "bytes32",
                                "value": "0xd55eb693178e8c1cf231949bafe6e454cee2a7b3cc063849d948d785f7dabcc8"
                            },
                            {
                                "name": "v",
                                "type": "uint256",
                                "value": "28"
                            },
                            {
                                "name": "r",
                                "type": "bytes32",
                                "value": "0xc8e7a2826e1b6aec66e677e7cfe5812ddf21eb3383d3d0067f446aedd1648806"
                            },
                            {
                                "name": "s",
                                "type": "bytes32",
                                "value": "0x5374091eb852024dc961c5110207d0d766e308fe08801cb8c8ee812e6e7f96d3"
                            }
                        ],
                        "constructorArguments": "",
                        "name": "ecrecover",
                        "returnParams": [
                            {
                                "name": "",
                                "type": "address",
                                "value": "0xd44feab097e5fee7fd54c9481f56b806f7f3ddc1"
                            }
                        ],
                        "signature": "ecrecover(bytes32,uint256,bytes32,bytes32)"
                    },
                    "errorInfo": "",
                    "fromAddress": "0x000000000000ad05ccc4f10045630fb830b95127",
                    "gasUsed": 3000,
                    "id": 5,
                    "methodDecoded": true,
                    "operation": "STATICCALL",
                    "output": "0x000000000000000000000000d44feab097e5fee7fd54c9481f56b806f7f3ddc1",
                    "revert": false,
                    "revertMessage": "",
                    "selector": "0xd55eb693",
                    "status": true,
                    "value": "0"
                },
                "nodeType": 0
            },
            "6": {
                "invocation": {
                    "address": "0x3a35a3102b5c6bd1e4d3237248be071ef53c8331",
                    "callData": "0x0000000000000000000000000000000000dab4a563819e8fd93dba3b25bc3495",
                    "decodedMethod": {
                        "callParams": [
                            {
                                "name": "policy",
                                "type": "address",
                                "value": "0x0000000000dab4a563819e8fd93dba3b25bc3495"
                            }
                        ],
                        "constructorArguments": "",
                        "name": "isPolicyWhitelisted",
                        "returnParams": [
                            {
                                "name": "",
                                "type": "bool",
                                "value": true
                            }
                        ],
                        "signature": "isPolicyWhitelisted(address)"
                    },
                    "errorInfo": "",
                    "fromAddress": "0x000000000000ad05ccc4f10045630fb830b95127",
                    "gasUsed": 2666,
                    "id": 6,
                    "methodDecoded": true,
                    "operation": "STATICCALL",
                    "output": "0x0000000000000000000000000000000000000000000000000000000000000001",
                    "revert": false,
                    "revertMessage": "",
                    "selector": "0x874516cd",
                    "status": true,
                    "value": "0"
                },
                "nodeType": 0
            },
            "7": {
                "invocation": {
                    "address": "0x0000000000dab4a563819e8fd93dba3b25bc3495",
                    "callData": "0x000000000000000000000000000000000000000000000000000000000000004000000000000000000000000000000000000000000000000000000000000002800000000000000000000000005e71553f2bdf4ea29a3b1f8f7e95e06acbb4c31d00000000000000000000000000000000000000000000000000000000000000010000000000000000000000000000000000dab4a563819e8fd93dba3b25bc349500000000000000000000000063217dbb73e7a02c1d30f486e899ee66d0aa5e0b00000000000000000000000000000000000000000000000000000000000002ef0000000000000000000000000000000000000000000000000000000000000001000000000000000000000000000000000000000000000000000000000000000000000000000000000000000000000000000000000000000006c5b96a1a6400000000000000000000000000000000000000000000000000000000000063efcb2e0000000000000000000000000000000000000000000000000000000063f3bfae00000000000000000000000000000000000000000000000000000000000001a000000000000000000000000000000000546ab2de8931d2458e9df763ff406d3700000000000000000000000000000000000000000000000000000000000002000000000000000000000000000000000000000000000000000000000000000001000000000000000000000000000000000000000000000000000000000000029a00000000000000000000000087e0a274007b6e8bdee0acabb701dfd0081abe8a000000000000000000000000000000000000000000000000000000000000000101000000000000000000000000000000000000000000000000000000000000000000000000000000000000007e3af66e6cf2278e45e0e56f8fdf4a033295ee1e00000000000000000000000000000000000000000000000000000000000000000000000000000000000000000000000000dab4a563819e8fd93dba3b25bc349500000000000000000000000063217dbb73e7a02c1d30f486e899ee66d0aa5e0b00000000000000000000000000000000000000000000000000000000000002ef0000000000000000000000000000000000000000000000000000000000000001000000000000000000000000000000000000000000000000000000000000000000000000000000000000000000000000000000000000000006c5b96a1a6400000000000000000000000000000000000000000000000000000000000063efcb2f0000000000000000000000000000000000000000000000000000000063efed7600000000000000000000000000000000000000000000000000000000000001a000000000000000000000000000000000471b31b532e34523106c14faceb1ab4f00000000000000000000000000000000000000000000000000000000000001c0000000000000000000000000000000000000000000000000000000000000000000000000000000000000000000000000000000000000000000000000000000010100000000000000000000000000000000000000000000000000000000000000",
                    "decodedMethod": {
                        "callParams": [
                            {
                                "name": "makerAsk",
                                "type": "(address,uint8,address,address,uint256,uint256,address,uint256,uint256,uint256,(uint16,address)[],uint256,bytes)",
                                "value": [
                                    {
                                        "name": "trader",
                                        "type": "address",
                                        "value": "0x5e71553f2bdf4ea29a3b1f8f7e95e06acbb4c31d"
                                    },
                                    {
                                        "name": "side",
                                        "type": "uint8",
                                        "value": "1"
                                    },
                                    {
                                        "name": "matchingPolicy",
                                        "type": "address",
                                        "value": "0x0000000000dab4a563819e8fd93dba3b25bc3495"
                                    },
                                    {
                                        "name": "collection",
                                        "type": "address",
                                        "value": "0x63217dbb73e7a02c1d30f486e899ee66d0aa5e0b"
                                    },
                                    {
                                        "name": "tokenId",
                                        "type": "uint256",
                                        "value": "751"
                                    },
                                    {
                                        "name": "amount",
                                        "type": "uint256",
                                        "value": "1"
                                    },
                                    {
                                        "name": "paymentToken",
                                        "type": "address",
                                        "value": "0x0000000000000000000000000000000000000000"
                                    },
                                    {
                                        "name": "price",
                                        "type": "uint256",
                                        "value": "488,000,000,000,000,000"
                                    },
                                    {
                                        "name": "listingTime",
                                        "type": "uint256",
                                        "value": "1,676,659,502"
                                    },
                                    {
                                        "name": "expirationTime",
                                        "type": "uint256",
                                        "value": "1,676,918,702"
                                    },
                                    {
                                        "name": "fees",
                                        "type": "(uint16,address)[]",
                                        "value": [
                                            [
                                                {
                                                    "name": "rate",
                                                    "type": "uint16",
                                                    "value": "666"
                                                },
                                                {
                                                    "name": "recipient",
                                                    "type": "address",
                                                    "value": "0x87e0a274007b6e8bdee0acabb701dfd0081abe8a"
                                                }
                                            ]
                                        ]
                                    },
                                    {
                                        "name": "salt",
                                        "type": "uint256",
                                        "value": "112,209,163,012,958,829,907,311,210,941,827,280,183"
                                    },
                                    {
                                        "name": "extraParams",
                                        "type": "bytes",
                                        "value": "0x01"
                                    }
                                ]
                            },
                            {
                                "name": "takerBid",
                                "type": "(address,uint8,address,address,uint256,uint256,address,uint256,uint256,uint256,(uint16,address)[],uint256,bytes)",
                                "value": [
                                    {
                                        "name": "trader",
                                        "type": "address",
                                        "value": "0x7e3af66e6cf2278e45e0e56f8fdf4a033295ee1e"
                                    },
                                    {
                                        "name": "side",
                                        "type": "uint8",
                                        "value": "0"
                                    },
                                    {
                                        "name": "matchingPolicy",
                                        "type": "address",
                                        "value": "0x0000000000dab4a563819e8fd93dba3b25bc3495"
                                    },
                                    {
                                        "name": "collection",
                                        "type": "address",
                                        "value": "0x63217dbb73e7a02c1d30f486e899ee66d0aa5e0b"
                                    },
                                    {
                                        "name": "tokenId",
                                        "type": "uint256",
                                        "value": "751"
                                    },
                                    {
                                        "name": "amount",
                                        "type": "uint256",
                                        "value": "1"
                                    },
                                    {
                                        "name": "paymentToken",
                                        "type": "address",
                                        "value": "0x0000000000000000000000000000000000000000"
                                    },
                                    {
                                        "name": "price",
                                        "type": "uint256",
                                        "value": "488,000,000,000,000,000"
                                    },
                                    {
                                        "name": "listingTime",
                                        "type": "uint256",
                                        "value": "1,676,659,503"
                                    },
                                    {
                                        "name": "expirationTime",
                                        "type": "uint256",
                                        "value": "1,676,668,278"
                                    },
                                    {
                                        "name": "fees",
                                        "type": "(uint16,address)[]",
                                        "value": []
                                    },
                                    {
                                        "name": "salt",
                                        "type": "uint256",
                                        "value": "94,516,387,910,026,464,478,062,981,241,346,566,991"
                                    },
                                    {
                                        "name": "extraParams",
                                        "type": "bytes",
                                        "value": "0x01"
                                    }
                                ]
                            }
                        ],
                        "constructorArguments": "",
                        "name": "canMatchMakerAsk",
                        "returnParams": [
                            {
                                "name": "",
                                "type": "bool",
                                "value": true
                            },
                            {
                                "name": "",
                                "type": "uint256",
                                "value": "488,000,000,000,000,000"
                            },
                            {
                                "name": "",
                                "type": "uint256",
                                "value": "751"
                            },
                            {
                                "name": "",
                                "type": "uint256",
                                "value": "1"
                            },
                            {
                                "name": "",
                                "type": "uint8",
                                "value": "0"
                            }
                        ],
                        "signature": "canMatchMakerAsk((address,uint8,address,address,uint256,uint256,address,uint256,uint256,uint256,(uint16,address)[],uint256,bytes),(address,uint8,address,address,uint256,uint256,address,uint256,uint256,uint256,(uint16,address)[],uint256,bytes))"
                    },
                    "errorInfo": "",
                    "fromAddress": "0x000000000000ad05ccc4f10045630fb830b95127",
                    "gasUsed": 3230,
                    "id": 7,
                    "methodDecoded": true,
                    "operation": "STATICCALL",
                    "output": "0x000000000000000000000000000000000000000000000000000000000000000100000000000000000000000000000000000000000000000006c5b96a1a64000000000000000000000000000000000000000000000000000000000000000002ef00000000000000000000000000000000000000000000000000000000000000010000000000000000000000000000000000000000000000000000000000000000",
                    "revert": false,
                    "revertMessage": "",
                    "selector": "0xd5ec8c77",
                    "status": true,
                    "value": "0"
                },
                "nodeType": 0
            },
            "8": {
                "invocation": {
                    "address": "0x87e0a274007b6e8bdee0acabb701dfd0081abe8a",
                    "callData": "0x",
                    "decodedMethod": null,
                    "errorInfo": "",
                    "fromAddress": "0x000000000000ad05ccc4f10045630fb830b95127",
                    "gasUsed": 0,
                    "id": 8,
                    "methodDecoded": false,
                    "operation": "CALL",
                    "output": "",
                    "revert": false,
                    "revertMessage": "",
                    "selector": "fallback",
                    "status": true,
                    "value": "0.0325008"
                },
                "nodeType": 0
            },
            "9": {
                "invocation": {
                    "address": "0x5e71553f2bdf4ea29a3b1f8f7e95e06acbb4c31d",
                    "callData": "0x",
                    "decodedMethod": null,
                    "errorInfo": "",
                    "fromAddress": "0x000000000000ad05ccc4f10045630fb830b95127",
                    "gasUsed": 0,
                    "id": 9,
                    "methodDecoded": false,
                    "operation": "CALL",
                    "output": "",
                    "revert": false,
                    "revertMessage": "",
                    "selector": "fallback",
                    "status": true,
                    "value": "0.4554992"
                },
                "nodeType": 0
            }
        },
        "gasFlame": [
            {
                "children": [
                    {
                        "children": [
                            {
                                "children": [],
                                "depth": 0,
                                "name": "Initial Gas",
                                "value": 34356
                            },
                            {
                                "children": [
                                    {
                                        "children": [
                                            {
                                                "children": [],
                                                "depth": 2,
                                                "name": "ecrecover",
                                                "value": 3000
                                            },
                                            {
                                                "children": [],
                                                "depth": 2,
                                                "name": "_computeRoot",
                                                "value": 1093
                                            },
                                            {
                                                "children": [],
                                                "depth": 2,
                                                "name": "ecrecover",
                                                "value": 3000
                                            },
                                            {
                                                "children": [],
                                                "depth": 2,
                                                "name": "ecrecover",
                                                "value": 3000
                                            },
                                            {
                                                "children": [],
                                                "depth": 2,
                                                "name": "isPolicyWhitelisted",
                                                "value": 2666
                                            },
                                            {
                                                "children": [],
                                                "depth": 2,
                                                "name": "canMatchMakerAsk",
                                                "value": 3230
                                            },
                                            {
                                                "children": [],
                                                "depth": 2,
                                                "name": "fallback",
                                                "value": 0
                                            },
                                            {
                                                "children": [],
                                                "depth": 2,
                                                "name": "fallback",
                                                "value": 0
                                            },
                                            {
                                                "children": [
                                                    {
                                                        "children": [
                                                            {
                                                                "children": [],
                                                                "depth": 4,
                                                                "name": "isOperatorAllowed",
                                                                "value": 7627
                                                            },
                                                            {
                                                                "children": [],
                                                                "depth": 4,
                                                                "name": "isOperatorAllowed",
                                                                "value": 1627
                                                            }
                                                        ],
                                                        "depth": 3,
                                                        "name": "safeTransferFrom",
                                                        "value": 84926
                                                    }
                                                ],
                                                "depth": 2,
                                                "name": "transferERC721",
                                                "value": 92847
                                            }
                                        ],
                                        "depth": 1,
                                        "name": "execute",
                                        "value": 316182
                                    }
                                ],
                                "depth": 0,
                                "name": "Executed Gas",
                                "value": 321429
                            }
                        ],
                        "depth": -1,
                        "name": "Actual Gas Used",
                        "value": 286485
                    },
                    {
                        "children": [],
                        "depth": -1,
                        "name": "Refunded Gas",
                        "value": 69300
                    }
                ],
                "depth": -2,
                "name": "Total Gas",
                "value": 355785
            }
        ],
        "isConfirmed": true,
        "mainTrace": [
            {
                "children": [
                    {
                        "children": [
                            {
                                "children": [
                                    {
                                        "children": [],
                                        "depth": 2,
                                        "id": 2,
                                        "order": 2
                                    },
                                    {
                                        "children": [],
                                        "depth": 2,
                                        "id": 3,
                                        "order": 3
                                    },
                                    {
                                        "children": [],
                                        "depth": 2,
                                        "id": 4,
                                        "order": 4
                                    },
                                    {
                                        "children": [],
                                        "depth": 2,
                                        "id": 5,
                                        "order": 5
                                    },
                                    {
                                        "children": [],
                                        "depth": 2,
                                        "id": 6,
                                        "order": 6
                                    },
                                    {
                                        "children": [],
                                        "depth": 2,
                                        "id": 7,
                                        "order": 7
                                    },
                                    {
                                        "children": [],
                                        "depth": 2,
                                        "id": 8,
                                        "order": 8
                                    },
                                    {
                                        "children": [],
                                        "depth": 2,
                                        "id": 9,
                                        "order": 9
                                    },
                                    {
                                        "children": [
                                            {
                                                "children": [
                                                    {
                                                        "children": [],
                                                        "depth": 4,
                                                        "id": 12,
                                                        "order": 12
                                                    },
                                                    {
                                                        "children": [],
                                                        "depth": 4,
                                                        "id": 13,
                                                        "order": 13
                                                    },
                                                    {
                                                        "children": [],
                                                        "depth": 4,
                                                        "id": 14,
                                                        "order": 14
                                                    }
                                                ],
                                                "depth": 3,
                                                "id": 11,
                                                "order": 11
                                            }
                                        ],
                                        "depth": 2,
                                        "id": 10,
                                        "order": 10
                                    },
                                    {
                                        "children": [],
                                        "depth": 2,
                                        "id": 15,
                                        "order": 15
                                    }
                                ],
                                "depth": 1,
                                "id": 1,
                                "order": 1
                            }
                        ],
                        "depth": 0,
                        "id": 0,
                        "order": 0
                    }
                ],
                "depth": -1,
                "id": -1,
                "order": -1
            }
        ],
        "mainTraceNodeCount": 16,
        "parentIdMap": {
            "0": -1,
            "1": 0,
            "10": 1,
            "11": 10,
            "12": 11,
            "13": 11,
            "14": 11,
            "15": 1,
            "2": 1,
            "3": 1,
            "4": 1,
            "5": 1,
            "6": 1,
            "7": 1,
            "8": 1,
            "9": 1
        },
        "tidyTrace": [
            {
                "children": [
                    {
                        "children": [
                            {
                                "children": [
                                    {
                                        "children": [],
                                        "depth": 2,
                                        "id": 3,
                                        "order": 3
                                    },
                                    {
                                        "children": [],
                                        "depth": 2,
                                        "id": 8,
                                        "order": 8
                                    },
                                    {
                                        "children": [],
                                        "depth": 2,
                                        "id": 9,
                                        "order": 9
                                    },
                                    {
                                        "children": [
                                            {
                                                "children": [
                                                    {
                                                        "children": [],
                                                        "depth": 4,
                                                        "id": 14,
                                                        "order": 14
                                                    }
                                                ],
                                                "depth": 3,
                                                "id": 11,
                                                "order": 11
                                            }
                                        ],
                                        "depth": 2,
                                        "id": 10,
                                        "order": 10
                                    },
                                    {
                                        "children": [],
                                        "depth": 2,
                                        "id": 15,
                                        "order": 15
                                    }
                                ],
                                "depth": 1,
                                "id": 1,
                                "order": 1
                            }
                        ],
                        "depth": 0,
                        "id": 0,
                        "order": 0
                    }
                ],
                "depth": -1,
                "id": -1,
                "order": -1
            }
        ],
        "tidyTraceNodeCount": 9
    },
    "state_change": {
        "stateChanges": [
            {
                "address": "0x000000000000ad05ccc4f10045630fb830b95127",
                "erc": "",
                "slots": [
                    {
                        "current": "0x0000000000000000000000000000000000000000000000000000000000000001",
                        "key": "0x5a1c487838b7edc74095df6b5bee910a86c8028c467bc9e075066fdb94109885",
                        "prev": "0x0000000000000000000000000000000000000000000000000000000000000000"
                    },
                    {
                        "current": "0x0000000000000000000000000000000000000000000000000000000000000001",
                        "key": "0x2d67d30bee0c7be2b08aa6d1ece5def341fe9ee0320c08c547c75f5b8682cb3e",
                        "prev": "0x0000000000000000000000000000000000000000000000000000000000000000"
                    }
                ],
                "storageVariables": [
                    {
                        "name": "cancelledOrFilled",
                        "type": "mapping(bytes32 => bool)",
                        "value": {
                            "pairs": [
                                {
                                    "key": "0x0bb68ce916cd738246e1fd1f2d67ad0356e26a2e3d41b1c4c99d238906f4a69c",
                                    "value": {
                                        "current": "true",
                                        "prev": "false",
                                        "typeTag": 1
                                    }
                                },
                                {
                                    "key": "0x7095806d9bbb8269f4d12a3086d4a94ed724553f54c738e8be646c095b180946",
                                    "value": {
                                        "current": "true",
                                        "prev": "false",
                                        "typeTag": 1
                                    }
                                }
                            ],
                            "typeTag": 4
                        }
                    }
                ]
            },
            {
                "address": "0x63217dbb73e7a02c1d30f486e899ee66d0aa5e0b",
                "erc": "ERC-721",
                "slots": [
                    {
                        "current": "0x0000000000000000000000000000000000000000000000000000000000000001",
                        "key": "0x72798a5ff3fe0f54a18504b00b7e6286ecb6b2017ce825d747426a652b137c8c",
                        "prev": "0x0000000000000000000000000000000000000000000000000000000000000000"
                    },
                    {
                        "current": "0x0000000000000000000000007e3af66e6cf2278e45e0e56f8fdf4a033295ee1e",
                        "key": "0xc34148d10f3e5b2d65625571f6e9e7bf428df069cb611666ede83f4f76fa57bc",
                        "prev": "0x0000000000000000000000005e71553f2bdf4ea29a3b1f8f7e95e06acbb4c31d"
                    },
                    {
                        "current": "0x0000000000000000000000000000000000000000000000000000000000000000",
                        "key": "0xaf9171a5a27e2124b9bf6528e6aec099253b63e2de3645b2d9f4874279970c0b",
                        "prev": "0x00000000000000000000000000000000000000000000000000000000000002ef"
                    },
                    {
                        "current": "0x00000000000000000000000000000000000000000000000000000000000002ef",
                        "key": "0xd252ff6e1cfd5a474f870aea5807905e0f885140407d289e082f88addc7d6597",
                        "prev": "0x0000000000000000000000000000000000000000000000000000000000000000"
                    },
                    {
                        "current": "0x0000000000000000000000000000000000000000000000000000000000000000",
                        "key": "0xef5b8475a8b997a52902cda3ed1a8ab0b19d8987487db81e02957a1d68691ed6",
                        "prev": "0x0000000000000000000000000000000000000000000000000000000000000001"
                    }
                ],
                "storageVariables": [
                    {
                        "name": "_ownedTokens",
                        "type": "mapping(address => mapping(uint256 => uint256))",
                        "value": {
                            "pairs": [
                                {
                                    "key": "0x5e71553f2bdf4ea29a3b1f8f7e95e06acbb4c31d",
                                    "value": {
                                        "pairs": [
                                            {
                                                "key": "0",
                                                "value": {
                                                    "current": "0",
                                                    "prev": "751",
                                                    "typeTag": 1
                                                }
                                            }
                                        ],
                                        "typeTag": 4
                                    }
                                },
                                {
                                    "key": "0x7e3af66e6cf2278e45e0e56f8fdf4a033295ee1e",
                                    "value": {
                                        "pairs": [
                                            {
                                                "key": "0",
                                                "value": {
                                                    "current": "751",
                                                    "prev": "0",
                                                    "typeTag": 1
                                                }
                                            }
                                        ],
                                        "typeTag": 4
                                    }
                                }
                            ],
                            "typeTag": 4
                        }
                    },
                    {
                        "name": "_balances",
                        "type": "mapping(address => uint256)",
                        "value": {
                            "pairs": [
                                {
                                    "key": "0x5e71553f2bdf4ea29a3b1f8f7e95e06acbb4c31d",
                                    "value": {
                                        "current": "0",
                                        "prev": "1",
                                        "typeTag": 1
                                    }
                                },
                                {
                                    "key": "0x7e3af66e6cf2278e45e0e56f8fdf4a033295ee1e",
                                    "value": {
                                        "current": "1",
                                        "prev": "0",
                                        "typeTag": 1
                                    }
                                }
                            ],
                            "typeTag": 4
                        }
                    },
                    {
                        "name": "_owners",
                        "type": "mapping(uint256 => address)",
                        "value": {
                            "pairs": [
                                {
                                    "key": "751",
                                    "value": {
                                        "current": "0x7e3af66e6cf2278e45e0e56f8fdf4a033295ee1e",
                                        "prev": "0x5e71553f2bdf4ea29a3b1f8f7e95e06acbb4c31d",
                                        "typeTag": 1
                                    }
                                }
                            ],
                            "typeTag": 4
                        }
                    }
                ]
            }
        ]
    }
}