{
    "balance_change": {
        "balanceChanges": [
            {
                "account": "0xd94c9ff168dc6aebf9b6cc86deff54f3fb0afc33",
                "assets": [
                    {
                        "address": "0xb97048628db6b661d4c2aa833e95dbe1a905b280",
                        "amount": "125.3745",
                        "iconUrl": "https://assets.blocksec.com/icon/ec0f7e099dbc22739675b174de8dd7bf62eb35591e0101ef6568a7a50510095f.png",
                        "isERC1155": false,
                        "isERC721": false,
                        "sign": false,
                        "value": ""
                    }
                ]
            },
            {
                "account": "0x9c9716bb990e08d48b235e3e2640d7c2eb9db168",
                "assets": [
                    {
                        "address": "0xb97048628db6b661d4c2aa833e95dbe1a905b280",
                        "amount": "125.3745",
                        "iconUrl": "https://assets.blocksec.com/icon/ec0f7e099dbc22739675b174de8dd7bf62eb35591e0101ef6568a7a50510095f.png",
                        "isERC1155": false,
                        "isERC721": false,
                        "sign": true,
                        "value": ""
                    }
                ]
            }
        ]
    },
    "profile": {
        "basic_info": {
            "baseFee": "",
            "blockNumber": 4618191,
            "callData": "0xa9059cbb0000000000000000000000009c9716bb990e08d48b235e3e2640d7c2eb9db168000000000000000000000000000000000000000000000006cbebb37cc8364000",
            "debugEnable": true,
            "errorInfo": "",
            "eventCount": 1,
            "feeRecipient": "0x9435d50503aee35c8757ae4933f7a0ab56597805",
            "formatValue": "0",
            "gasLimit": 150000,
            "gasPrice": "50",
            "gasUsed": 52129,
            "intTxnCount": 0,
            "internalRevert": false,
            "internalRevertMessage": "",
            "isContractCreation": false,
            "isFlashloan": false,
            "maxFee": "",
            "nonce": 424698,
            "overwritedBlockNumber": -1,
            "priorityFee": "",
            "receiver": "0xb97048628db6b661d4c2aa833e95dbe1a905b280",
            "revertMessage": "",
            "sender": "0xd94c9ff168dc6aebf9b6cc86deff54f3fb0afc33",
            "simulationEnable": true,
            "sourceTxnHash": "0xc692dcbf1f16ed443b801c50fe267b8b3d2985891f526fd2c627e7863b4f51bc",
            "status": true,
            "timestamp": "2017-11-25T08:06:07Z",
            "transactionFee": "0.00260645",
            "txnHash": "0xc692dcbf1f16ed443b801c50fe267b8b3d2985891f526fd2c627e7863b4f51bc",
            "txnIndex": 1,
            "type": 0,
            "value": "0"
        },
        "fund_flow": [
            {
                "amount": "125.3745",
                "from": "0xd94c9ff168dc6aebf9b6cc86deff54f3fb0afc33",
                "id": 1,
                "isERC1155": false,
                "isERC721": false,
                "isReverted": false,
                "order": 1,
                "to": "0x9c9716bb990e08d48b235e3e2640d7c2eb9db168",
                "token": "0xb97048628db6b661d4c2aa833e95dbe1a905b280"
            }
        ],
        "token_infos": [
            {
                "address": "0xeeeeeeeeeeeeeeeeeeeeeeeeeeeeeeeeeeeeeeee",
                "decimals": 18
            },
            {
                "address": "0xb97048628db6b661d4c2aa833e95dbe1a905b280",
                "decimals": 18
            },
            {
                "address": "0xc02aaa39b223fe8d0a0e5c4f27ead9083c756cc2",
                "decimals": 18
            }
        ]
    },
    "address_label": {
        "labels": [
            {
                "address": "0x0000000000000000000000000000000000000002",
                "label": "Precompiled"
            },
            {
                "address": "0x0000000000000000000000000000000000000003",
                "label": "Precompiled"
            },
            {
                "address": "0x0000000000000000000000000000000000000004",
                "label": "Precompiled"
            },
            {
                "address": "0xeeeeeeeeeeeeeeeeeeeeeeeeeeeeeeeeeeeeeeee",
                "label": "Ether"
            },
            {
                "address": "0xb97048628db6b661d4c2aa833e95dbe1a905b280",
                "label": "TenX Token"
            },
            {
                "address": "0xd94c9ff168dc6aebf9b6cc86deff54f3fb0afc33",
                "label": "Yunbi 1"
            },
            {
                "address": "0x0000000000000000000000000000000000000001",
                "label": "Precompiled"
            }
        ]
    },
    "trace": {
        "accountLabels": null,
        "dataMap": {
            "-1": {
                "invocation": {
                    "address": "0xd94c9ff168dc6aebf9b6cc86deff54f3fb0afc33",
                    "callData": "",
                    "decodedMethod": null,
                    "errorInfo": "",
                    "fromAddress": "",
                    "gasUsed": 0,
                    "id": -1,
                    "methodDecoded": false,
                    "operation": "",
                    "output": "",
                    "revert": false,
                    "revertMessage": "",
                    "selector": "",
                    "status": false,
                    "value": ""
                },
                "nodeType": 0
            },
            "0": {
                "invocation": {
                    "address": "0xb97048628db6b661d4c2aa833e95dbe1a905b280",
                    "callData": "0x0000000000000000000000009c9716bb990e08d48b235e3e2640d7c2eb9db168000000000000000000000000000000000000000000000006cbebb37cc8364000",
                    "decodedMethod": {
                        "callParams": [
                            {
                                "name": "_to",
                                "type": "address",
                                "value": "0x9c9716bb990e08d48b235e3e2640d7c2eb9db168"
                            },
                            {
                                "decimalAvailable": true,
                                "name": "_value",
                                "type": "uint256",
                                "value": "125,374,500,000,000,000,000"
                            }
                        ],
                        "constructorArguments": "",
                        "name": "transfer",
                        "returnParams": [],
                        "signature": "transfer(address,uint256)"
                    },
                    "errorInfo": "",
                    "fromAddress": "0xd94c9ff168dc6aebf9b6cc86deff54f3fb0afc33",
                    "gasUsed": 52129,
                    "id": 0,
                    "methodDecoded": true,
                    "operation": "CALL",
                    "output": "",
                    "revert": false,
                    "revertMessage": "",
                    "selector": "0xa9059cbb",
                    "status": true,
                    "value": "0"
                },
                "nodeType": 0
            },
            "1": {
                "event": {
                    "contract": "0xb97048628db6b661d4c2aa833e95dbe1a905b280",
                    "decodedLog": {
                        "name": "Transfer",
                        "params": [
                            {
                                "name": "from",
                                "type": "address",
                                "value": "0xd94c9ff168dc6aebf9b6cc86deff54f3fb0afc33"
                            },
                            {
                                "name": "to",
                                "type": "address",
                                "value": "0x9c9716bb990e08d48b235e3e2640d7c2eb9db168"
                            },
                            {
                                "decimalAvailable": true,
                                "name": "value",
                                "type": "uint256",
                                "value": "125,374,500,000,000,000,000"
                            }
                        ],
                        "signature": "Transfer(address,address,uint256)"
                    },
                    "id": 1,
                    "logData": "0x000000000000000000000000000000000000000000000006cbebb37cc8364000",
                    "logDecoded": true,
                    "operation": "EVENT",
                    "revert": false,
                    "status": true,
                    "topics": [
                        "0xddf252ad1be2c89b69c2b068fc378daa952ba7f163c4a11628f55a4df523b3ef",
                        "0x000000000000000000000000d94c9ff168dc6aebf9b6cc86deff54f3fb0afc33",
                        "0x0000000000000000000000009c9716bb990e08d48b235e3e2640d7c2eb9db168"
                    ]
                },
                "nodeType": 1
            }
        },
        "gasFlame": [
            {
                "children": [
                    {
                        "children": [
                            {
                                "children": [],
                                "depth": 0,
                                "name": "Initial Gas",
                                "value": 23320
                            },
                            {
                                "children": [],
                                "depth": 0,
                                "name": "Executed Gas",
                                "value": 28809
                            }
                        ],
                        "depth": -1,
                        "name": "Actual Gas Used",
                        "value": 52129
                    },
                    {
                        "children": [],
                        "depth": -1,
                        "name": "Refunded Gas",
                        "value": 0
                    }
                ],
                "depth": -2,
                "name": "Total Gas",
                "value": 52129
            }
        ],
        "isConfirmed": true,
        "mainTrace": [
            {
                "children": [
                    {
                        "children": [
                            {
                                "children": [],
                                "depth": 1,
                                "id": 1,
                                "order": 1
                            }
                        ],
                        "depth": 0,
                        "id": 0,
                        "order": 0
                    }
                ],
                "depth": -1,
                "id": -1,
                "order": -1
            }
        ],
        "mainTraceNodeCount": 2,
        "parentIdMap": {
            "0": -1,
            "1": 0
        },
        "tidyTrace": [
            {
                "children": [
                    {
                        "children": [
                            {
                                "children": [],
                                "depth": 1,
                                "id": 1,
                                "order": 1
                            }
                        ],
                        "depth": 0,
                        "id": 0,
                        "order": 0
                    }
                ],
                "depth": -1,
                "id": -1,
                "order": -1
            }
        ],
        "tidyTraceNodeCount": 2
    },
    "state_change": {
        "stateChanges": [
            {
                "address": "0xb97048628db6b661d4c2aa833e95dbe1a905b280",
                "erc": "ERC-20",
                "slots": [
                    {
                        "current": "0x0000000000000000000000000000000000000000000040df4ef56ecbb6c0b7b8",
                        "key": "0x240b80efaf4237acaa3e3fddae2657e0f1881f5537e7447c6817acdb35ced96a",
                        "prev": "0x0000000000000000000000000000000000000000000040e61ae122487ef6f7b8"
                    },
                    {
                        "current": "0x000000000000000000000000000000000000000000000006cbebb37cc8364000",
                        "key": "0x0f9c57759372f976f0e3aa919702c6bcfd8da8ebb61e6a8a215ca397089f01d8",
                        "prev": "0x0000000000000000000000000000000000000000000000000000000000000000"
                    }
                ],
                "storageVariables": []
            }
        ]
    }
}