{
    "balance_change": {
        "balanceChanges": [
            {
                "account": "0x0f3a9ca4ed4c75379d4923cb8fc5af3ca3e86ef1",
                "assets": [
                    {
                        "address": "0xf0f8b0b8dbb1124261fc8d778e2287e3fd2cf4f5",
                        "amount": "996.15",
                        "iconUrl": "",
                        "isERC1155": false,
                        "isERC721": false,
                        "sign": false,
                        "value": ""
                    }
                ]
            },
            {
                "account": "0x5dbc33273eda0d51388c7734ad26bc35e545a99d",
                "assets": [
                    {
                        "address": "0xf0f8b0b8dbb1124261fc8d778e2287e3fd2cf4f5",
                        "amount": "996.15",
                        "iconUrl": "",
                        "isERC1155": false,
                        "isERC721": false,
                        "sign": true,
                        "value": ""
                    }
                ]
            }
        ]
    },
    "profile": {
        "basic_info": {
            "baseFee": "",
            "blockNumber": 4545867,
            "callData": "0xa9059cbb0000000000000000000000005dbc33273eda0d51388c7734ad26bc35e545a99d00000000000000000000000000000000000000000000000000000000000f3336",
            "debugEnable": true,
            "errorInfo": "",
            "eventCount": 1,
            "feeRecipient": "0x829bd824b016326a401d083b33d092293333a830",
            "formatValue": "0",
            "gasLimit": 90000,
            "gasPrice": "10",
            "gasUsed": 37472,
            "intTxnCount": 0,
            "internalRevert": false,
            "internalRevertMessage": "",
            "isContractCreation": false,
            "isFlashloan": false,
            "maxFee": "",
            "nonce": 58507,
            "overwritedBlockNumber": -1,
            "priorityFee": "",
            "receiver": "0xf0f8b0b8dbb1124261fc8d778e2287e3fd2cf4f5",
            "revertMessage": "",
            "sender": "0x0f3a9ca4ed4c75379d4923cb8fc5af3ca3e86ef1",
            "simulationEnable": true,
            "sourceTxnHash": "0xc648f9fbfad868a68edf74d567ed2ff2c42e1571664e8c0f4eca21845e9daec1",
            "status": true,
            "timestamp": "2017-11-13T16:28:39Z",
            "transactionFee": "0.00037472",
            "txnHash": "0xc648f9fbfad868a68edf74d567ed2ff2c42e1571664e8c0f4eca21845e9daec1",
            "txnIndex": 102,
            "type": 0,
            "value": "0"
        },
        "fund_flow": [
            {
                "amount": "996.15",
                "from": "0x0f3a9ca4ed4c75379d4923cb8fc5af3ca3e86ef1",
                "id": 1,
                "isERC1155": false,
                "isERC721": false,
                "isReverted": false,
                "order": 1,
                "to": "0x5dbc33273eda0d51388c7734ad26bc35e545a99d",
                "token": "0xf0f8b0b8dbb1124261fc8d778e2287e3fd2cf4f5"
            }
        ],
        "token_infos": [
            {
                "address": "0xc02aaa39b223fe8d0a0e5c4f27ead9083c756cc2",
                "decimals": 18
            },
            {
                "address": "0xf0f8b0b8dbb1124261fc8d778e2287e3fd2cf4f5",
                "decimals": 3
            },
            {
                "address": "0xeeeeeeeeeeeeeeeeeeeeeeeeeeeeeeeeeeeeeeee",
                "decimals": 18
            }
        ]
    },
    "address_label": {
        "labels": [
            {
                "address": "0x0000000000000000000000000000000000000004",
                "label": "Precompiled"
            },
            {
                "address": "0xeeeeeeeeeeeeeeeeeeeeeeeeeeeeeeeeeeeeeeee",
                "label": "Ether"
            },
            {
                "address": "0xf0f8b0b8dbb1124261fc8d778e2287e3fd2cf4f5",
                "label": "BitqyToken"
            },
            {
                "address": "0x0000000000000000000000000000000000000001",
                "label": "Precompiled"
            },
            {
                "address": "0x0000000000000000000000000000000000000002",
                "label": "Precompiled"
            },
            {
                "address": "0x0000000000000000000000000000000000000003",
                "label": "Precompiled"
            }
        ]
    },
    "trace": {
        "accountLabels": null,
        "dataMap": {
            "-1": {
                "invocation": {
                    "address": "0x0f3a9ca4ed4c75379d4923cb8fc5af3ca3e86ef1",
                    "callData": "",
                    "decodedMethod": null,
                    "errorInfo": "",
                    "fromAddress": "",
                    "gasUsed": 0,
                    "id": -1,
                    "methodDecoded": false,
                    "operation": "",
                    "output": "",
                    "revert": false,
                    "revertMessage": "",
                    "selector": "",
                    "status": false,
                    "value": ""
                },
                "nodeType": 0
            },
            "0": {
                "invocation": {
                    "address": "0xf0f8b0b8dbb1124261fc8d778e2287e3fd2cf4f5",
                    "callData": "0x0000000000000000000000005dbc33273eda0d51388c7734ad26bc35e545a99d00000000000000000000000000000000000000000000000000000000000f3336",
                    "decodedMethod": {
                        "callParams": [
                            {
                                "name": "_to",
                                "type": "address",
                                "value": "0x5dbc33273eda0d51388c7734ad26bc35e545a99d"
                            },
                            {
                                "decimalAvailable": true,
                                "name": "_value",
                                "type": "uint256",
                                "value": "996,150"
                            }
                        ],
                        "constructorArguments": "",
                        "name": "transfer",
                        "returnParams": [
                            {
                                "name": "success",
                                "type": "bool",
                                "value": true
                            }
                        ],
                        "signature": "transfer(address,uint256)"
                    },
                    "errorInfo": "",
                    "fromAddress": "0x0f3a9ca4ed4c75379d4923cb8fc5af3ca3e86ef1",
                    "gasUsed": 37472,
                    "id": 0,
                    "methodDecoded": true,
                    "operation": "CALL",
                    "output": "0x0000000000000000000000000000000000000000000000000000000000000001",
                    "revert": false,
                    "revertMessage": "",
                    "selector": "0xa9059cbb",
                    "status": true,
                    "value": "0"
                },
                "nodeType": 0
            },
            "1": {
                "event": {
                    "contract": "0xf0f8b0b8dbb1124261fc8d778e2287e3fd2cf4f5",
                    "decodedLog": {
                        "name": "Transfer",
                        "params": [
                            {
                                "name": "from",
                                "type": "address",
                                "value": "0x0f3a9ca4ed4c75379d4923cb8fc5af3ca3e86ef1"
                            },
                            {
                                "name": "to",
                                "type": "address",
                                "value": "0x5dbc33273eda0d51388c7734ad26bc35e545a99d"
                            },
                            {
                                "decimalAvailable": true,
                                "name": "value",
                                "type": "uint256",
                                "value": "996,150"
                            }
                        ],
                        "signature": "Transfer(address,address,uint256)"
                    },
                    "id": 1,
                    "logData": "0x00000000000000000000000000000000000000000000000000000000000f3336",
                    "logDecoded": true,
                    "operation": "EVENT",
                    "revert": false,
                    "status": true,
                    "topics": [
                        "0xddf252ad1be2c89b69c2b068fc378daa952ba7f163c4a11628f55a4df523b3ef",
                        "0x0000000000000000000000000f3a9ca4ed4c75379d4923cb8fc5af3ca3e86ef1",
                        "0x0000000000000000000000005dbc33273eda0d51388c7734ad26bc35e545a99d"
                    ]
                },
                "nodeType": 1
            }
        },
        "gasFlame": [
            {
                "children": [
                    {
                        "children": [
                            {
                                "children": [],
                                "depth": 0,
                                "name": "Initial Gas",
                                "value": 23000
                            },
                            {
                                "children": [],
                                "depth": 0,
                                "name": "Executed Gas",
                                "value": 14472
                            }
                        ],
                        "depth": -1,
                        "name": "Actual Gas Used",
                        "value": 37472
                    },
                    {
                        "children": [],
                        "depth": -1,
                        "name": "Refunded Gas",
                        "value": 0
                    }
                ],
                "depth": -2,
                "name": "Total Gas",
                "value": 37472
            }
        ],
        "isConfirmed": true,
        "mainTrace": [
            {
                "children": [
                    {
                        "children": [
                            {
                                "children": [],
                                "depth": 1,
                                "id": 1,
                                "order": 1
                            }
                        ],
                        "depth": 0,
                        "id": 0,
                        "order": 0
                    }
                ],
                "depth": -1,
                "id": -1,
                "order": -1
            }
        ],
        "mainTraceNodeCount": 2,
        "parentIdMap": {
            "0": -1,
            "1": 0
        },
        "tidyTrace": [
            {
                "children": [
                    {
                        "children": [
                            {
                                "children": [],
                                "depth": 1,
                                "id": 1,
                                "order": 1
                            }
                        ],
                        "depth": 0,
                        "id": 0,
                        "order": 0
                    }
                ],
                "depth": -1,
                "id": -1,
                "order": -1
            }
        ],
        "tidyTraceNodeCount": 2
    },
    "state_change": {
        "stateChanges": [
            {
                "address": "0xf0f8b0b8dbb1124261fc8d778e2287e3fd2cf4f5",
                "erc": "",
                "slots": [
                    {
                        "current": "0x0000000000000000000000000000000000000000000000000000002b897c7989",
                        "key": "0x6edc6207094b975762ad83f0e3f044e57c5bf2b928df56b0dd26d8c2f406a3b7",
                        "prev": "0x0000000000000000000000000000000000000000000000000000002b898bacbf"
                    },
                    {
                        "current": "0x0000000000000000000000000000000000000000000000000000000000e7c994",
                        "key": "0xd9c4240d0b27ce3fbd653827feb6c9cc4292e0e062afe0790bfd7f3d2f6815db",
                        "prev": "0x0000000000000000000000000000000000000000000000000000000000d8965e"
                    }
                ],
                "storageVariables": []
            }
        ]
    }
}