{
    "balance_change": {
        "balanceChanges": [
            {
                "account": "0x1f93b5e75a04b225816935c3d65f552cac88a61b",
                "assets": [
                    {
                        "address": "0xeeeeeeeeeeeeeeeeeeeeeeeeeeeeeeeeeeeeeeee",
                        "amount": "0.000000000000000001",
                        "iconUrl": "https://assets.blocksec.com/image/1663669189317-3.png",
                        "isERC1155": false,
                        "isERC721": false,
                        "sign": false,
                        "value": ""
                    }
                ]
            },
            {
                "account": "0x9af09991ad63814e53ffc1bccf213ee74027608b",
                "assets": [
                    {
                        "address": "0xeeeeeeeeeeeeeeeeeeeeeeeeeeeeeeeeeeeeeeee",
                        "amount": "0.000000000000000001",
                        "iconUrl": "https://assets.blocksec.com/image/1663669189317-3.png",
                        "isERC1155": false,
                        "isERC721": false,
                        "sign": true,
                        "value": ""
                    }
                ]
            }
        ]
    },
    "profile": {
        "basic_info": {
            "baseFee": "",
            "blockNumber": 1171755,
            "callData": "0x3ed48679000000000000000000000000c88ed3ed2dd01432570dd5e0681b4fb650b60c3f0000000000000000000000000000000000000000000000000000000056ebd83700000000000000000000000000000000000000000000000000000000000000c000000000000000000000000000000000000000000000000000000000000001200000000000000000000000007fb3b877f2d85d92d4172764ea5cd68982cbe53e0000000000000000000000000000000000000000000000000000000014dc938000000000000000000000000000000000000000000000000000000000000000020415fc8106fd296fe9ea0753583345cabb9391dda2dc3885d5df4ca7310b403413c5c5a3585625c0cac6518a48b2317a5eeb2c02d2b0248bea221cf94398fc0d0000000000000000000000000000000000000000000000000000000000000001000000000000000000000000000000000000000000000000000000000000001c",
            "debugEnable": true,
            "errorInfo": "",
            "eventCount": 4,
            "feeRecipient": "0x2a65aca4d5fc5b5c859090a6c34d164135398226",
            "formatValue": "0.000000000000000001",
            "gasLimit": 250000,
            "gasPrice": "52",
            "gasUsed": 61011,
            "intTxnCount": 7,
            "internalRevert": false,
            "internalRevertMessage": "",
            "isContractCreation": false,
            "isFlashloan": false,
            "maxFee": "",
            "nonce": 23800,
            "overwritedBlockNumber": -1,
            "priorityFee": "",
            "receiver": "0x9af09991ad63814e53ffc1bccf213ee74027608b",
            "revertMessage": "",
            "sender": "0x1f93b5e75a04b225816935c3d65f552cac88a61b",
            "simulationEnable": true,
            "sourceTxnHash": "0xc671429490f3c156ab578193bdc61b585e64a398b1004027cf418003720684cf",
            "status": true,
            "timestamp": "2016-03-18T10:28:08Z",
            "transactionFee": "0.003172572",
            "txnHash": "0xc671429490f3c156ab578193bdc61b585e64a398b1004027cf418003720684cf",
            "txnIndex": 0,
            "type": 0,
            "value": "1"
        },
        "fund_flow": [
            {
                "amount": "0.000000000000000001",
                "from": "0x1f93b5e75a04b225816935c3d65f552cac88a61b",
                "id": 1,
                "isERC1155": false,
                "isERC721": false,
                "isReverted": false,
                "order": 1,
                "to": "0x9af09991ad63814e53ffc1bccf213ee74027608b",
                "token": "0xeeeeeeeeeeeeeeeeeeeeeeeeeeeeeeeeeeeeeeee"
            }
        ],
        "token_infos": [
            {
                "address": "0xeeeeeeeeeeeeeeeeeeeeeeeeeeeeeeeeeeeeeeee",
                "decimals": 18
            },
            {
                "address": "0xc02aaa39b223fe8d0a0e5c4f27ead9083c756cc2",
                "decimals": 18
            }
        ]
    },
    "address_label": {
        "labels": [
            {
                "address": "0x0000000000000000000000000000000000000003",
                "label": "Precompiled"
            },
            {
                "address": "0x0000000000000000000000000000000000000004",
                "label": "Precompiled"
            },
            {
                "address": "0xeeeeeeeeeeeeeeeeeeeeeeeeeeeeeeeeeeeeeeee",
                "label": "Ether"
            },
            {
                "address": "0x276c5c6ca8507ed7bac085fc9b9521f4f54b58d3",
                "label": "ElcoinDb"
            },
            {
                "address": "0x0000000000000000000000000000000000000001",
                "label": "Precompiled"
            },
            {
                "address": "0x0000000000000000000000000000000000000002",
                "label": "Precompiled"
            }
        ]
    },
    "trace": {
        "accountLabels": null,
        "dataMap": {
            "-1": {
                "invocation": {
                    "address": "0x1f93b5e75a04b225816935c3d65f552cac88a61b",
                    "callData": "",
                    "decodedMethod": null,
                    "errorInfo": "",
                    "fromAddress": "",
                    "gasUsed": 0,
                    "id": -1,
                    "methodDecoded": false,
                    "operation": "",
                    "output": "",
                    "revert": false,
                    "revertMessage": "",
                    "selector": "",
                    "status": false,
                    "value": ""
                },
                "nodeType": 0
            },
            "0": {
                "invocation": {
                    "address": "0x9af09991ad63814e53ffc1bccf213ee74027608b",
                    "callData": "0x000000000000000000000000c88ed3ed2dd01432570dd5e0681b4fb650b60c3f0000000000000000000000000000000000000000000000000000000056ebd83700000000000000000000000000000000000000000000000000000000000000c000000000000000000000000000000000000000000000000000000000000001200000000000000000000000007fb3b877f2d85d92d4172764ea5cd68982cbe53e0000000000000000000000000000000000000000000000000000000014dc938000000000000000000000000000000000000000000000000000000000000000020415fc8106fd296fe9ea0753583345cabb9391dda2dc3885d5df4ca7310b403413c5c5a3585625c0cac6518a48b2317a5eeb2c02d2b0248bea221cf94398fc0d0000000000000000000000000000000000000000000000000000000000000001000000000000000000000000000000000000000000000000000000000000001c",
                    "decodedMethod": null,
                    "errorInfo": "",
                    "fromAddress": "0x1f93b5e75a04b225816935c3d65f552cac88a61b",
                    "gasUsed": 61011,
                    "id": 0,
                    "methodDecoded": false,
                    "operation": "CALL",
                    "output": "0x0000000000000000000000000000000000000000000000000000000000000001",
                    "revert": false,
                    "revertMessage": "",
                    "selector": "0x3ed48679",
                    "status": true,
                    "value": "0.000000000000000001"
                },
                "nodeType": 0
            },
            "1": {
                "invocation": {
                    "address": "0x1158c3c9a70e85d8358972810ed984c8e6ffcf0f",
                    "callData": "0x000000000000000000000000c88ed3ed2dd01432570dd5e0681b4fb650b60c3f0000000000000000000000007fb3b877f2d85d92d4172764ea5cd68982cbe53e0000000000000000000000000000000000000000000000000000000014dc9380",
                    "decodedMethod": {
                        "callParams": [
                            {
                                "name": "_from",
                                "type": "address",
                                "value": "0xc88ed3ed2dd01432570dd5e0681b4fb650b60c3f"
                            },
                            {
                                "name": "_to",
                                "type": "address",
                                "value": "0x7fb3b877f2d85d92d4172764ea5cd68982cbe53e"
                            },
                            {
                                "name": "_wad",
                                "type": "uint256",
                                "value": "350,000,000"
                            }
                        ],
                        "constructorArguments": "",
                        "name": "transfer",
                        "returnParams": [],
                        "signature": "transfer(address,address,uint256)"
                    },
                    "errorInfo": "",
                    "fromAddress": "0x9af09991ad63814e53ffc1bccf213ee74027608b",
                    "gasUsed": 44040,
                    "id": 1,
                    "methodDecoded": true,
                    "operation": "CALL",
                    "output": "0x0000000000000000000000000000000000000000000000000000000000000001",
                    "revert": false,
                    "revertMessage": "",
                    "selector": "0xbeabacc8",
                    "status": true,
                    "value": "0"
                },
                "nodeType": 0
            },
            "10": {
                "event": {
                    "contract": "0x276c5c6ca8507ed7bac085fc9b9521f4f54b58d3",
                    "decodedLog": {
                        "name": "Transaction",
                        "params": [
                            {
                                "name": "hash",
                                "type": "bytes32",
                                "value": "0x0000000000000000000000000000000000000000000000000000000000000000"
                            },
                            {
                                "name": "from",
                                "type": "address",
                                "value": "0x0000000000000000000000000000000000000000"
                            },
                            {
                                "name": "to",
                                "type": "address",
                                "value": "0x48175da4c20313bcb6b62d74937d3ff985885701"
                            },
                            {
                                "name": "time",
                                "type": "uint256",
                                "value": "0"
                            },
                            {
                                "name": "amount",
                                "type": "uint256",
                                "value": "0"
                            }
                        ],
                        "signature": "Transaction(bytes32,address,address,uint256,uint256)"
                    },
                    "id": 10,
                    "logData": "0x00000000000000000000000000000000000000000000000000000000000000000000000000000000000000000000000000000000000000000000000000000000",
                    "logDecoded": true,
                    "operation": "EVENT",
                    "revert": false,
                    "status": true,
                    "topics": [
                        "0xea0f544916910bb1ff33390cbe54a3f5d36d298328578399311cde3c9a750686",
                        "0x0000000000000000000000000000000000000000000000000000000000000000",
                        "0x0000000000000000000000000000000000000000000000000000000000000000",
                        "0x00000000000000000000000048175da4c20313bcb6b62d74937d3ff985885701"
                    ]
                },
                "nodeType": 1
            },
            "11": {
                "invocation": {
                    "address": "0x276c5c6ca8507ed7bac085fc9b9521f4f54b58d3",
                    "callData": "0x000000000000000000000000c88ed3ed2dd01432570dd5e0681b4fb650b60c3f",
                    "decodedMethod": {
                        "callParams": [
                            {
                                "name": "addr",
                                "type": "address",
                                "value": "0xc88ed3ed2dd01432570dd5e0681b4fb650b60c3f"
                            }
                        ],
                        "constructorArguments": "",
                        "name": "getBalance",
                        "returnParams": [
                            {
                                "name": "balance",
                                "type": "uint256",
                                "value": "0"
                            }
                        ],
                        "signature": "getBalance(address)"
                    },
                    "errorInfo": "",
                    "fromAddress": "0x1158c3c9a70e85d8358972810ed984c8e6ffcf0f",
                    "gasUsed": 479,
                    "id": 11,
                    "methodDecoded": true,
                    "operation": "CALL",
                    "output": "0x0000000000000000000000000000000000000000000000000000000000000000",
                    "revert": false,
                    "revertMessage": "",
                    "selector": "0xf8b2cb4f",
                    "status": true,
                    "value": "0"
                },
                "nodeType": 0
            },
            "2": {
                "invocation": {
                    "address": "0x276c5c6ca8507ed7bac085fc9b9521f4f54b58d3",
                    "callData": "0x000000000000000000000000c88ed3ed2dd01432570dd5e0681b4fb650b60c3f",
                    "decodedMethod": {
                        "callParams": [
                            {
                                "name": "addr",
                                "type": "address",
                                "value": "0xc88ed3ed2dd01432570dd5e0681b4fb650b60c3f"
                            }
                        ],
                        "constructorArguments": "",
                        "name": "getBalance",
                        "returnParams": [
                            {
                                "name": "balance",
                                "type": "uint256",
                                "value": "350,000,000"
                            }
                        ],
                        "signature": "getBalance(address)"
                    },
                    "errorInfo": "",
                    "fromAddress": "0x1158c3c9a70e85d8358972810ed984c8e6ffcf0f",
                    "gasUsed": 479,
                    "id": 2,
                    "methodDecoded": true,
                    "operation": "CALL",
                    "output": "0x0000000000000000000000000000000000000000000000000000000014dc9380",
                    "revert": false,
                    "revertMessage": "",
                    "selector": "0xf8b2cb4f",
                    "status": true,
                    "value": "0"
                },
                "nodeType": 0
            },
            "3": {
                "invocation": {
                    "address": "0x276c5c6ca8507ed7bac085fc9b9521f4f54b58d3",
                    "callData": "0x000000000000000000000000c88ed3ed2dd01432570dd5e0681b4fb650b60c3f0000000000000000000000000000000000000000000000000000000014dc938000000000000000000000000000000000000000000000000000000000000000000000000000000000000000000000000000000000000000000000000000000000",
                    "decodedMethod": {
                        "callParams": [
                            {
                                "name": "addr",
                                "type": "address",
                                "value": "0xc88ed3ed2dd01432570dd5e0681b4fb650b60c3f"
                            },
                            {
                                "name": "amount",
                                "type": "uint256",
                                "value": "350,000,000"
                            },
                            {
                                "name": "hash",
                                "type": "bytes32",
                                "value": "0x0000000000000000000000000000000000000000000000000000000000000000"
                            },
                            {
                                "name": "time",
                                "type": "uint256",
                                "value": "0"
                            }
                        ],
                        "constructorArguments": "",
                        "name": "withdraw",
                        "returnParams": [
                            {
                                "name": "res",
                                "type": "bool",
                                "value": true
                            }
                        ],
                        "signature": "withdraw(address,uint256,bytes32,uint256)"
                    },
                    "errorInfo": "",
                    "fromAddress": "0x1158c3c9a70e85d8358972810ed984c8e6ffcf0f",
                    "gasUsed": 14931,
                    "id": 3,
                    "methodDecoded": true,
                    "operation": "CALL",
                    "output": "0x0000000000000000000000000000000000000000000000000000000000000001",
                    "revert": false,
                    "revertMessage": "",
                    "selector": "0x07bc6fad",
                    "status": true,
                    "value": "0"
                },
                "nodeType": 0
            },
            "4": {
                "invocation": {
                    "address": "0x1158c3c9a70e85d8358972810ed984c8e6ffcf0f",
                    "callData": "0x",
                    "decodedMethod": null,
                    "errorInfo": "insufficient balance for transfer",
                    "fromAddress": "0x276c5c6ca8507ed7bac085fc9b9521f4f54b58d3",
                    "gasUsed": 0,
                    "id": 4,
                    "methodDecoded": false,
                    "operation": "CALL",
                    "output": "",
                    "revert": false,
                    "revertMessage": "",
                    "selector": "fallback",
                    "status": false,
                    "value": "0.00000000035"
                },
                "nodeType": 0
            },
            "5": {
                "event": {
                    "contract": "0x276c5c6ca8507ed7bac085fc9b9521f4f54b58d3",
                    "decodedLog": {
                        "name": "Transaction",
                        "params": [
                            {
                                "name": "hash",
                                "type": "bytes32",
                                "value": "0x0000000000000000000000000000000000000000000000000000000000000000"
                            },
                            {
                                "name": "from",
                                "type": "address",
                                "value": "0xc88ed3ed2dd01432570dd5e0681b4fb650b60c3f"
                            },
                            {
                                "name": "to",
                                "type": "address",
                                "value": "0x0000000000000000000000000000000000000000"
                            },
                            {
                                "name": "time",
                                "type": "uint256",
                                "value": "0"
                            },
                            {
                                "name": "amount",
                                "type": "uint256",
                                "value": "350,000,000"
                            }
                        ],
                        "signature": "Transaction(bytes32,address,address,uint256,uint256)"
                    },
                    "id": 5,
                    "logData": "0x00000000000000000000000000000000000000000000000000000000000000000000000000000000000000000000000000000000000000000000000014dc9380",
                    "logDecoded": true,
                    "operation": "EVENT",
                    "revert": false,
                    "status": true,
                    "topics": [
                        "0xea0f544916910bb1ff33390cbe54a3f5d36d298328578399311cde3c9a750686",
                        "0x0000000000000000000000000000000000000000000000000000000000000000",
                        "0x000000000000000000000000c88ed3ed2dd01432570dd5e0681b4fb650b60c3f",
                        "0x0000000000000000000000000000000000000000000000000000000000000000"
                    ]
                },
                "nodeType": 1
            },
            "6": {
                "invocation": {
                    "address": "0x276c5c6ca8507ed7bac085fc9b9521f4f54b58d3",
                    "callData": "0x0000000000000000000000007fb3b877f2d85d92d4172764ea5cd68982cbe53e0000000000000000000000000000000000000000000000000000000014dc938000000000000000000000000000000000000000000000000000000000000000000000000000000000000000000000000000000000000000000000000000000000",
                    "decodedMethod": {
                        "callParams": [
                            {
                                "name": "addr",
                                "type": "address",
                                "value": "0x7fb3b877f2d85d92d4172764ea5cd68982cbe53e"
                            },
                            {
                                "name": "amount",
                                "type": "uint256",
                                "value": "350,000,000"
                            },
                            {
                                "name": "hash",
                                "type": "bytes32",
                                "value": "0x0000000000000000000000000000000000000000000000000000000000000000"
                            },
                            {
                                "name": "time",
                                "type": "uint256",
                                "value": "0"
                            }
                        ],
                        "constructorArguments": "",
                        "name": "deposit",
                        "returnParams": [
                            {
                                "name": "res",
                                "type": "bool",
                                "value": true
                            }
                        ],
                        "signature": "deposit(address,uint256,bytes32,uint256)"
                    },
                    "errorInfo": "",
                    "fromAddress": "0x1158c3c9a70e85d8358972810ed984c8e6ffcf0f",
                    "gasUsed": 8060,
                    "id": 6,
                    "methodDecoded": true,
                    "operation": "CALL",
                    "output": "0x0000000000000000000000000000000000000000000000000000000000000001",
                    "revert": false,
                    "revertMessage": "",
                    "selector": "0xec2ac54e",
                    "status": true,
                    "value": "0"
                },
                "nodeType": 0
            },
            "7": {
                "event": {
                    "contract": "0x276c5c6ca8507ed7bac085fc9b9521f4f54b58d3",
                    "decodedLog": {
                        "name": "Transaction",
                        "params": [
                            {
                                "name": "hash",
                                "type": "bytes32",
                                "value": "0x0000000000000000000000000000000000000000000000000000000000000000"
                            },
                            {
                                "name": "from",
                                "type": "address",
                                "value": "0x0000000000000000000000000000000000000000"
                            },
                            {
                                "name": "to",
                                "type": "address",
                                "value": "0x7fb3b877f2d85d92d4172764ea5cd68982cbe53e"
                            },
                            {
                                "name": "time",
                                "type": "uint256",
                                "value": "0"
                            },
                            {
                                "name": "amount",
                                "type": "uint256",
                                "value": "350,000,000"
                            }
                        ],
                        "signature": "Transaction(bytes32,address,address,uint256,uint256)"
                    },
                    "id": 7,
                    "logData": "0x00000000000000000000000000000000000000000000000000000000000000000000000000000000000000000000000000000000000000000000000014dc9380",
                    "logDecoded": true,
                    "operation": "EVENT",
                    "revert": false,
                    "status": true,
                    "topics": [
                        "0xea0f544916910bb1ff33390cbe54a3f5d36d298328578399311cde3c9a750686",
                        "0x0000000000000000000000000000000000000000000000000000000000000000",
                        "0x0000000000000000000000000000000000000000000000000000000000000000",
                        "0x0000000000000000000000007fb3b877f2d85d92d4172764ea5cd68982cbe53e"
                    ]
                },
                "nodeType": 1
            },
            "8": {
                "event": {
                    "contract": "0x1158c3c9a70e85d8358972810ed984c8e6ffcf0f",
                    "decodedLog": null,
                    "id": 8,
                    "logData": "0x000000000000000000000000c88ed3ed2dd01432570dd5e0681b4fb650b60c3f0000000000000000000000007fb3b877f2d85d92d4172764ea5cd68982cbe53e0000000000000000000000000000000000000000000000000000000056ebd8380000000000000000000000000000000000000000000000000000000014dc93800000000000000000000000000000000000000000000000000000000000000000",
                    "logDecoded": false,
                    "operation": "EVENT",
                    "revert": false,
                    "status": true,
                    "topics": [
                        "0x009f837f1feddc3de305fab200310a83d2871686078dab617c02b44360c9e236"
                    ]
                },
                "nodeType": 1
            },
            "9": {
                "invocation": {
                    "address": "0x276c5c6ca8507ed7bac085fc9b9521f4f54b58d3",
                    "callData": "0x00000000000000000000000048175da4c20313bcb6b62d74937d3ff985885701000000000000000000000000000000000000000000000000000000000000000000000000000000000000000000000000000000000000000000000000000000000000000000000000000000000000000000000000000000000000000000000000",
                    "decodedMethod": {
                        "callParams": [
                            {
                                "name": "addr",
                                "type": "address",
                                "value": "0x48175da4c20313bcb6b62d74937d3ff985885701"
                            },
                            {
                                "name": "amount",
                                "type": "uint256",
                                "value": "0"
                            },
                            {
                                "name": "hash",
                                "type": "bytes32",
                                "value": "0x0000000000000000000000000000000000000000000000000000000000000000"
                            },
                            {
                                "name": "time",
                                "type": "uint256",
                                "value": "0"
                            }
                        ],
                        "constructorArguments": "",
                        "name": "deposit",
                        "returnParams": [
                            {
                                "name": "res",
                                "type": "bool",
                                "value": true
                            }
                        ],
                        "signature": "deposit(address,uint256,bytes32,uint256)"
                    },
                    "errorInfo": "",
                    "fromAddress": "0x1158c3c9a70e85d8358972810ed984c8e6ffcf0f",
                    "gasUsed": 8060,
                    "id": 9,
                    "methodDecoded": true,
                    "operation": "CALL",
                    "output": "0x0000000000000000000000000000000000000000000000000000000000000001",
                    "revert": false,
                    "revertMessage": "",
                    "selector": "0xec2ac54e",
                    "status": true,
                    "value": "0"
                },
                "nodeType": 0
            }
        },
        "gasFlame": [
            {
                "children": [
                    {
                        "children": [
                            {
                                "children": [],
                                "depth": 0,
                                "name": "Initial Gas",
                                "value": 30232
                            },
                            {
                                "children": [
                                    {
                                        "children": [
                                            {
                                                "children": [],
                                                "depth": 2,
                                                "name": "getBalance",
                                                "value": 479
                                            },
                                            {
                                                "children": [
                                                    {
                                                        "children": [],
                                                        "depth": 3,
                                                        "name": "fallback",
                                                        "value": 0
                                                    }
                                                ],
                                                "depth": 2,
                                                "name": "withdraw",
                                                "value": 14931
                                            },
                                            {
                                                "children": [],
                                                "depth": 2,
                                                "name": "deposit",
                                                "value": 8060
                                            },
                                            {
                                                "children": [],
                                                "depth": 2,
                                                "name": "deposit",
                                                "value": 8060
                                            },
                                            {
                                                "children": [],
                                                "depth": 2,
                                                "name": "getBalance",
                                                "value": 479
                                            }
                                        ],
                                        "depth": 1,
                                        "name": "transfer",
                                        "value": 44040
                                    }
                                ],
                                "depth": 0,
                                "name": "Executed Gas",
                                "value": 45779
                            }
                        ],
                        "depth": -1,
                        "name": "Actual Gas Used",
                        "value": 61011
                    },
                    {
                        "children": [],
                        "depth": -1,
                        "name": "Refunded Gas",
                        "value": 15000
                    }
                ],
                "depth": -2,
                "name": "Total Gas",
                "value": 76011
            }
        ],
        "isConfirmed": true,
        "mainTrace": [
            {
                "children": [
                    {
                        "children": [
                            {
                                "children": [
                                    {
                                        "children": [],
                                        "depth": 2,
                                        "id": 2,
                                        "order": 2
                                    },
                                    {
                                        "children": [
                                            {
                                                "children": [],
                                                "depth": 3,
                                                "id": 4,
                                                "order": 4
                                            },
                                            {
                                                "children": [],
                                                "depth": 3,
                                                "id": 5,
                                                "order": 5
                                            }
                                        ],
                                        "depth": 2,
                                        "id": 3,
                                        "order": 3
                                    },
                                    {
                                        "children": [
                                            {
                                                "children": [],
                                                "depth": 3,
                                                "id": 7,
                                                "order": 7
                                            }
                                        ],
                                        "depth": 2,
                                        "id": 6,
                                        "order": 6
                                    },
                                    {
                                        "children": [],
                                        "depth": 2,
                                        "id": 8,
                                        "order": 8
                                    },
                                    {
                                        "children": [
                                            {
                                                "children": [],
                                                "depth": 3,
                                                "id": 10,
                                                "order": 10
                                            }
                                        ],
                                        "depth": 2,
                                        "id": 9,
                                        "order": 9
                                    },
                                    {
                                        "children": [],
                                        "depth": 2,
                                        "id": 11,
                                        "order": 11
                                    }
                                ],
                                "depth": 1,
                                "id": 1,
                                "order": 1
                            }
                        ],
                        "depth": 0,
                        "id": 0,
                        "order": 0
                    }
                ],
                "depth": -1,
                "id": -1,
                "order": -1
            }
        ],
        "mainTraceNodeCount": 12,
        "parentIdMap": {
            "0": -1,
            "1": 0,
            "10": 9,
            "11": 1,
            "2": 1,
            "3": 1,
            "4": 3,
            "5": 3,
            "6": 1,
            "7": 6,
            "8": 1,
            "9": 1
        },
        "tidyTrace": [
            {
                "children": [
                    {
                        "children": [
                            {
                                "children": [
                                    {
                                        "children": [],
                                        "depth": 2,
                                        "id": 2,
                                        "order": 2
                                    },
                                    {
                                        "children": [
                                            {
                                                "children": [],
                                                "depth": 3,
                                                "id": 4,
                                                "order": 4
                                            },
                                            {
                                                "children": [],
                                                "depth": 3,
                                                "id": 5,
                                                "order": 5
                                            }
                                        ],
                                        "depth": 2,
                                        "id": 3,
                                        "order": 3
                                    },
                                    {
                                        "children": [
                                            {
                                                "children": [],
                                                "depth": 3,
                                                "id": 7,
                                                "order": 7
                                            }
                                        ],
                                        "depth": 2,
                                        "id": 6,
                                        "order": 6
                                    },
                                    {
                                        "children": [],
                                        "depth": 2,
                                        "id": 8,
                                        "order": 8
                                    },
                                    {
                                        "children": [
                                            {
                                                "children": [],
                                                "depth": 3,
                                                "id": 10,
                                                "order": 10
                                            }
                                        ],
                                        "depth": 2,
                                        "id": 9,
                                        "order": 9
                                    },
                                    {
                                        "children": [],
                                        "depth": 2,
                                        "id": 11,
                                        "order": 11
                                    }
                                ],
                                "depth": 1,
                                "id": 1,
                                "order": 1
                            }
                        ],
                        "depth": 0,
                        "id": 0,
                        "order": 0
                    }
                ],
                "depth": -1,
                "id": -1,
                "order": -1
            }
        ],
        "tidyTraceNodeCount": 12
    },
    "state_change": {
        "stateChanges": [
            {
                "address": "0x1158c3c9a70e85d8358972810ed984c8e6ffcf0f",
                "erc": "",
                "slots": [
                    {
                        "current": "0x0000000000000000000000000000000000000000000000000000000000000020",
                        "key": "0x0000000000000000000000000000000000000000000000000000000000000012",
                        "prev": "0x000000000000000000000000000000000000000000000000000000000000001f"
                    }
                ],
                "storageVariables": []
            },
            {
                "address": "0x276c5c6ca8507ed7bac085fc9b9521f4f54b58d3",
                "erc": "",
                "slots": [
                    {
                        "current": "0x0000000000000000000000000000000000000000000000000000000000000000",
                        "key": "0x869de6417e42402537c7d72ddccf7479e2a93f604aa25802a16e96706ce356c3",
                        "prev": "0x0000000000000000000000000000000000000000000000000000000014dc9380"
                    },
                    {
                        "current": "0x000000000000000000000000000000000000000000000000000001c4290f4d55",
                        "key": "0xcd643e4128313904863a9ece415effc50c0bf7c67c181f56cc77668873421e58",
                        "prev": "0x000000000000000000000000000000000000000000000000000001c41432b9d5"
                    }
                ],
                "storageVariables": []
            }
        ]
    }
}