{
    "balance_change": {
        "balanceChanges": [
            {
                "account": "0x4d9ff50ef4da947364bb9650892b2554e7be5e2b",
                "assets": [
                    {
                        "address": "0xeeeeeeeeeeeeeeeeeeeeeeeeeeeeeeeeeeeeeeee",
                        "amount": "0.06",
                        "iconUrl": "https://assets.blocksec.com/image/1663669189317-3.png",
                        "isERC1155": false,
                        "isERC721": false,
                        "sign": false,
                        "value": "176.4614330400000108"
                    }
                ]
            },
            {
                "account": "0xc7834a3a17a97af908a64da4a68200f1c2da3566",
                "assets": [
                    {
                        "address": "0xeeeeeeeeeeeeeeeeeeeeeeeeeeeeeeeeeeeeeeee",
                        "amount": "0.06",
                        "iconUrl": "https://assets.blocksec.com/image/1663669189317-3.png",
                        "isERC1155": false,
                        "isERC721": false,
                        "sign": true,
                        "value": "176.4614330400000108"
                    }
                ]
            }
        ]
    },
    "profile": {
        "basic_info": {
            "baseFee": "28.506312524",
            "blockNumber": 14397493,
            "callData": "0x1a695230000000000000000000000000c7834a3a17a97af908a64da4a68200f1c2da3566",
            "debugEnable": true,
            "errorInfo": "",
            "eventCount": 0,
            "feeRecipient": "0xc730b028da66ebb14f20e67c68dd809fbc49890d",
            "formatValue": "0.06",
            "gasLimit": 116448,
            "gasPrice": "29.906312524",
            "gasUsed": 55967,
            "intTxnCount": 1,
            "internalRevert": false,
            "internalRevertMessage": "",
            "isContractCreation": false,
            "isFlashloan": false,
            "maxFee": "39",
            "nonce": 1107381,
            "overwritedBlockNumber": -1,
            "priorityFee": "1.4",
            "receiver": "0x0b95993a39a363d99280ac950f5e4536ab5c5566",
            "revertMessage": "",
            "sender": "0x4d9ff50ef4da947364bb9650892b2554e7be5e2b",
            "simulationEnable": true,
            "sourceTxnHash": "0xc67e3cd5a625db0e045e8964ed354fe7198d2117fee8674b3deb5cbbcd0142eb",
            "status": true,
            "timestamp": "2022-03-16T12:09:19Z",
            "transactionFee": "0.001673766593030708",
            "txnHash": "0xc67e3cd5a625db0e045e8964ed354fe7198d2117fee8674b3deb5cbbcd0142eb",
            "txnIndex": 63,
            "type": 2,
            "value": "60000000000000000"
        },
        "fund_flow": [
            {
                "amount": "0.06",
                "from": "0x4d9ff50ef4da947364bb9650892b2554e7be5e2b",
                "id": 1,
                "isERC1155": false,
                "isERC721": false,
                "isReverted": false,
                "order": 1,
                "to": "0x0b95993a39a363d99280ac950f5e4536ab5c5566",
                "token": "0xeeeeeeeeeeeeeeeeeeeeeeeeeeeeeeeeeeeeeeee"
            },
            {
                "amount": "0.06",
                "from": "0x0b95993a39a363d99280ac950f5e4536ab5c5566",
                "id": 2,
                "isERC1155": false,
                "isERC721": false,
                "isReverted": false,
                "order": 2,
                "to": "0xc7834a3a17a97af908a64da4a68200f1c2da3566",
                "token": "0xeeeeeeeeeeeeeeeeeeeeeeeeeeeeeeeeeeeeeeee"
            }
        ],
        "token_infos": [
            {
                "address": "0xc02aaa39b223fe8d0a0e5c4f27ead9083c756cc2",
                "decimals": 18
            },
            {
                "address": "0xeeeeeeeeeeeeeeeeeeeeeeeeeeeeeeeeeeeeeeee",
                "decimals": 18
            }
        ]
    },
    "address_label": {
        "labels": [
            {
                "address": "0x4d9ff50ef4da947364bb9650892b2554e7be5e2b",
                "label": "Binance 19"
            },
            {
                "address": "0xc7834a3a17a97af908a64da4a68200f1c2da3566",
                "label": "BINANCE"
            },
            {
                "address": "0x0000000000000000000000000000000000000001",
                "label": "Precompiled"
            },
            {
                "address": "0x0000000000000000000000000000000000000002",
                "label": "Precompiled"
            },
            {
                "address": "0x0000000000000000000000000000000000000003",
                "label": "Precompiled"
            },
            {
                "address": "0x0000000000000000000000000000000000000004",
                "label": "Precompiled"
            },
            {
                "address": "0xeeeeeeeeeeeeeeeeeeeeeeeeeeeeeeeeeeeeeeee",
                "label": "Ether"
            },
            {
                "address": "0x0b95993a39a363d99280ac950f5e4536ab5c5566",
                "label": "Binance: Contract"
            }
        ]
    },
    "trace": {
        "accountLabels": null,
        "dataMap": {
            "-1": {
                "invocation": {
                    "address": "0x4d9ff50ef4da947364bb9650892b2554e7be5e2b",
                    "callData": "",
                    "decodedMethod": null,
                    "errorInfo": "",
                    "fromAddress": "",
                    "gasUsed": 0,
                    "id": -1,
                    "methodDecoded": false,
                    "operation": "",
                    "output": "",
                    "revert": false,
                    "revertMessage": "",
                    "selector": "",
                    "status": false,
                    "value": ""
                },
                "nodeType": 0
            },
            "0": {
                "invocation": {
                    "address": "0x0b95993a39a363d99280ac950f5e4536ab5c5566",
                    "callData": "0x000000000000000000000000c7834a3a17a97af908a64da4a68200f1c2da3566",
                    "decodedMethod": {
                        "callParams": [
                            {
                                "name": "wallet",
                                "type": "address",
                                "value": "0xc7834a3a17a97af908a64da4a68200f1c2da3566"
                            }
                        ],
                        "constructorArguments": "",
                        "name": "transfer",
                        "returnParams": [],
                        "signature": "transfer(address)"
                    },
                    "errorInfo": "",
                    "fromAddress": "0x4d9ff50ef4da947364bb9650892b2554e7be5e2b",
                    "gasUsed": 55967,
                    "id": 0,
                    "methodDecoded": true,
                    "operation": "CALL",
                    "output": "",
                    "revert": false,
                    "revertMessage": "",
                    "selector": "0x1a695230",
                    "status": true,
                    "value": "0.06"
                },
                "nodeType": 0
            },
            "1": {
                "invocation": {
                    "address": "0xc7834a3a17a97af908a64da4a68200f1c2da3566",
                    "callData": "0x",
                    "decodedMethod": null,
                    "errorInfo": "",
                    "fromAddress": "0x0b95993a39a363d99280ac950f5e4536ab5c5566",
                    "gasUsed": 0,
                    "id": 1,
                    "methodDecoded": false,
                    "operation": "CALL",
                    "output": "",
                    "revert": false,
                    "revertMessage": "",
                    "selector": "fallback",
                    "status": true,
                    "value": "0.06"
                },
                "nodeType": 0
            }
        },
        "gasFlame": [
            {
                "children": [
                    {
                        "children": [
                            {
                                "children": [],
                                "depth": 0,
                                "name": "Initial Gas",
                                "value": 21420
                            },
                            {
                                "children": [
                                    {
                                        "children": [],
                                        "depth": 1,
                                        "name": "fallback",
                                        "value": 0
                                    }
                                ],
                                "depth": 0,
                                "name": "Executed Gas",
                                "value": 34547
                            }
                        ],
                        "depth": -1,
                        "name": "Actual Gas Used",
                        "value": 55967
                    },
                    {
                        "children": [],
                        "depth": -1,
                        "name": "Refunded Gas",
                        "value": 0
                    }
                ],
                "depth": -2,
                "name": "Total Gas",
                "value": 55967
            }
        ],
        "isConfirmed": true,
        "mainTrace": [
            {
                "children": [
                    {
                        "children": [
                            {
                                "children": [],
                                "depth": 1,
                                "id": 1,
                                "order": 1
                            }
                        ],
                        "depth": 0,
                        "id": 0,
                        "order": 0
                    }
                ],
                "depth": -1,
                "id": -1,
                "order": -1
            }
        ],
        "mainTraceNodeCount": 2,
        "parentIdMap": {
            "0": -1,
            "1": 0
        },
        "tidyTrace": [
            {
                "children": [
                    {
                        "children": [
                            {
                                "children": [],
                                "depth": 1,
                                "id": 1,
                                "order": 1
                            }
                        ],
                        "depth": 0,
                        "id": 0,
                        "order": 0
                    }
                ],
                "depth": -1,
                "id": -1,
                "order": -1
            }
        ],
        "tidyTraceNodeCount": 2
    },
    "state_change": {
        "stateChanges": []
    }
}