{
    "balance_change": {
        "balanceChanges": [
            {
                "account": "0xfa103c21ea2df71dfb92b0652f8b1d795e51cdef",
                "assets": [
                    {
                        "address": "0xa3bed4e1c75d00fa6f4e5e6922db7261b5e9acd2",
                        "amount": "6,328.11",
                        "iconUrl": "https://assets.blocksec.com/icon/9edd078654d9cced23505b3a7123bf6cecc1151bcc105d3f24e78ae109b3ae0f.png",
                        "isERC1155": false,
                        "isERC721": false,
                        "sign": false,
                        "value": "16811.72034"
                    }
                ]
            },
            {
                "account": "0x56178a0d5f301baf6cf3e1cd53d9863437345bf9",
                "assets": [
                    {
                        "address": "0xa3bed4e1c75d00fa6f4e5e6922db7261b5e9acd2",
                        "amount": "6,328.11",
                        "iconUrl": "https://assets.blocksec.com/icon/9edd078654d9cced23505b3a7123bf6cecc1151bcc105d3f24e78ae109b3ae0f.png",
                        "isERC1155": false,
                        "isERC721": false,
                        "sign": true,
                        "value": "16811.72034"
                    }
                ]
            }
        ]
    },
    "profile": {
        "basic_info": {
            "baseFee": "",
            "blockNumber": 12100442,
            "callData": "0x1cff79cd0000000000000000000000004f91ad1a0397b763fc653b4cfe4f836915bfcd8400000000000000000000000000000000000000000000000000000000000000400000000000000000000000000000000000000000000000000000000000000064f5537ede000000000000000000000000a3bed4e1c75d00fa6f4e5e6922db7261b5e9acd200000000000000000000000056178a0d5f301baf6cf3e1cd53d9863437345bf90000000000000000000000000000000000000000000001570c2af53c7d2b000000000000000000000000000000000000000000000000000000000000",
            "debugEnable": true,
            "errorInfo": "",
            "eventCount": 1,
            "feeRecipient": "0x5a0b54d5dc17e0aadc383d2db43b0a0d3e029c4c",
            "formatValue": "0",
            "gasLimit": 61658,
            "gasPrice": "119.000000001",
            "gasUsed": 26456,
            "intTxnCount": 2,
            "internalRevert": false,
            "internalRevertMessage": "",
            "isContractCreation": false,
            "isFlashloan": false,
            "maxFee": "",
            "nonce": 40900,
            "overwritedBlockNumber": -1,
            "priorityFee": "",
            "receiver": "0xfa103c21ea2df71dfb92b0652f8b1d795e51cdef",
            "revertMessage": "",
            "sender": "0x62614de473000ba47042ce772828900a1150fbc8",
            "simulationEnable": true,
            "sourceTxnHash": "0xc64bfc2fb11d7ad9d6bd320656c5e10019c3f3c7a7edbcfcc98a25b3ef49d8be",
            "status": true,
            "timestamp": "2021-03-24T08:10:00Z",
            "transactionFee": "0.003148264000026456",
            "txnHash": "0xc64bfc2fb11d7ad9d6bd320656c5e10019c3f3c7a7edbcfcc98a25b3ef49d8be",
            "txnIndex": 196,
            "type": 0,
            "value": "0"
        },
        "fund_flow": [
            {
                "amount": "6,328.11",
                "from": "0xfa103c21ea2df71dfb92b0652f8b1d795e51cdef",
                "id": 1,
                "isERC1155": false,
                "isERC721": false,
                "isReverted": false,
                "order": 1,
                "to": "0x56178a0d5f301baf6cf3e1cd53d9863437345bf9",
                "token": "0xa3bed4e1c75d00fa6f4e5e6922db7261b5e9acd2"
            }
        ],
        "token_infos": [
            {
                "address": "0xa3bed4e1c75d00fa6f4e5e6922db7261b5e9acd2",
                "decimals": 18
            },
            {
                "address": "0xc02aaa39b223fe8d0a0e5c4f27ead9083c756cc2",
                "decimals": 18
            },
            {
                "address": "0xeeeeeeeeeeeeeeeeeeeeeeeeeeeeeeeeeeeeeeee",
                "decimals": 18
            }
        ]
    },
    "address_label": {
        "labels": [
            {
                "address": "0xa3bed4e1c75d00fa6f4e5e6922db7261b5e9acd2",
                "label": "mStable: MTA Token"
            },
            {
                "address": "0x0000000000000000000000000000000000000001",
                "label": "Precompiled"
            },
            {
                "address": "0x0000000000000000000000000000000000000002",
                "label": "Precompiled"
            },
            {
                "address": "0x0000000000000000000000000000000000000003",
                "label": "Precompiled"
            },
            {
                "address": "0x0000000000000000000000000000000000000004",
                "label": "Precompiled"
            },
            {
                "address": "0xeeeeeeeeeeeeeeeeeeeeeeeeeeeeeeeeeeeeeeee",
                "label": "Ether"
            }
        ]
    },
    "trace": {
        "accountLabels": null,
        "dataMap": {
            "-1": {
                "invocation": {
                    "address": "0x62614de473000ba47042ce772828900a1150fbc8",
                    "callData": "",
                    "decodedMethod": null,
                    "errorInfo": "",
                    "fromAddress": "",
                    "gasUsed": 0,
                    "id": -1,
                    "methodDecoded": false,
                    "operation": "",
                    "output": "",
                    "revert": false,
                    "revertMessage": "",
                    "selector": "",
                    "status": false,
                    "value": ""
                },
                "nodeType": 0
            },
            "0": {
                "invocation": {
                    "address": "0xfa103c21ea2df71dfb92b0652f8b1d795e51cdef",
                    "callData": "0x0000000000000000000000004f91ad1a0397b763fc653b4cfe4f836915bfcd8400000000000000000000000000000000000000000000000000000000000000400000000000000000000000000000000000000000000000000000000000000064f5537ede000000000000000000000000a3bed4e1c75d00fa6f4e5e6922db7261b5e9acd200000000000000000000000056178a0d5f301baf6cf3e1cd53d9863437345bf90000000000000000000000000000000000000000000001570c2af53c7d2b000000000000000000000000000000000000000000000000000000000000",
                    "decodedMethod": {
                        "callParams": [
                            {
                                "name": "_target",
                                "type": "address",
                                "value": "0x4f91ad1a0397b763fc653b4cfe4f836915bfcd84"
                            },
                            {
                                "name": "_data",
                                "type": "bytes",
                                "value": "0xf5537ede000000000000000000000000a3bed4e1c75d00fa6f4e5e6922db7261b5e9acd200000000000000000000000056178a0d5f301baf6cf3e1cd53d9863437345bf90000000000000000000000000000000000000000000001570c2af53c7d2b0000"
                            }
                        ],
                        "constructorArguments": "",
                        "name": "execute",
                        "returnParams": [],
                        "signature": "execute(address,bytes)"
                    },
                    "errorInfo": "",
                    "fromAddress": "0x62614de473000ba47042ce772828900a1150fbc8",
                    "gasUsed": 26456,
                    "id": 0,
                    "methodDecoded": true,
                    "operation": "CALL",
                    "output": "",
                    "revert": false,
                    "revertMessage": "",
                    "selector": "0x1cff79cd",
                    "status": true,
                    "value": "0"
                },
                "nodeType": 0
            },
            "1": {
                "invocation": {
                    "address": "0x4f91ad1a0397b763fc653b4cfe4f836915bfcd84",
                    "callData": "0x000000000000000000000000a3bed4e1c75d00fa6f4e5e6922db7261b5e9acd200000000000000000000000056178a0d5f301baf6cf3e1cd53d9863437345bf90000000000000000000000000000000000000000000001570c2af53c7d2b0000",
                    "decodedMethod": {
                        "callParams": [
                            {
                                "name": "_from",
                                "type": "address",
                                "value": "0xa3bed4e1c75d00fa6f4e5e6922db7261b5e9acd2"
                            },
                            {
                                "name": "_to",
                                "type": "address",
                                "value": "0x56178a0d5f301baf6cf3e1cd53d9863437345bf9"
                            },
                            {
                                "name": "_tokenId",
                                "type": "uint256",
                                "value": "6,328,110,000,000,000,000,000"
                            }
                        ],
                        "constructorArguments": "",
                        "name": "transferToken",
                        "returnParams": [],
                        "signature": "transferToken(address,address,uint256)"
                    },
                    "errorInfo": "",
                    "fromAddress": "0xfa103c21ea2df71dfb92b0652f8b1d795e51cdef",
                    "gasUsed": 16349,
                    "id": 1,
                    "methodDecoded": true,
                    "operation": "DELEGATECALL",
                    "output": "",
                    "revert": false,
                    "revertMessage": "",
                    "selector": "0xf5537ede",
                    "status": true,
                    "value": "0"
                },
                "nodeType": 0
            },
            "2": {
                "invocation": {
                    "address": "0xa3bed4e1c75d00fa6f4e5e6922db7261b5e9acd2",
                    "callData": "0x00000000000000000000000056178a0d5f301baf6cf3e1cd53d9863437345bf90000000000000000000000000000000000000000000001570c2af53c7d2b0000",
                    "decodedMethod": {
                        "callParams": [
                            {
                                "name": "recipient",
                                "type": "address",
                                "value": "0x56178a0d5f301baf6cf3e1cd53d9863437345bf9"
                            },
                            {
                                "decimalAvailable": true,
                                "name": "amount",
                                "type": "uint256",
                                "value": "6,328,110,000,000,000,000,000"
                            }
                        ],
                        "constructorArguments": "",
                        "name": "transfer",
                        "returnParams": [
                            {
                                "name": "",
                                "type": "bool",
                                "value": true
                            }
                        ],
                        "signature": "transfer(address,uint256)"
                    },
                    "errorInfo": "",
                    "fromAddress": "0xfa103c21ea2df71dfb92b0652f8b1d795e51cdef",
                    "gasUsed": 14515,
                    "id": 2,
                    "methodDecoded": true,
                    "operation": "CALL",
                    "output": "0x0000000000000000000000000000000000000000000000000000000000000001",
                    "revert": false,
                    "revertMessage": "",
                    "selector": "0xa9059cbb",
                    "status": true,
                    "value": "0"
                },
                "nodeType": 0
            },
            "3": {
                "event": {
                    "contract": "0xa3bed4e1c75d00fa6f4e5e6922db7261b5e9acd2",
                    "decodedLog": {
                        "name": "Transfer",
                        "params": [
                            {
                                "name": "from",
                                "type": "address",
                                "value": "0xfa103c21ea2df71dfb92b0652f8b1d795e51cdef"
                            },
                            {
                                "name": "to",
                                "type": "address",
                                "value": "0x56178a0d5f301baf6cf3e1cd53d9863437345bf9"
                            },
                            {
                                "decimalAvailable": true,
                                "name": "value",
                                "type": "uint256",
                                "value": "6,328,110,000,000,000,000,000"
                            }
                        ],
                        "signature": "Transfer(address,address,uint256)"
                    },
                    "id": 3,
                    "logData": "0x0000000000000000000000000000000000000000000001570c2af53c7d2b0000",
                    "logDecoded": true,
                    "operation": "EVENT",
                    "revert": false,
                    "status": true,
                    "topics": [
                        "0xddf252ad1be2c89b69c2b068fc378daa952ba7f163c4a11628f55a4df523b3ef",
                        "0x000000000000000000000000fa103c21ea2df71dfb92b0652f8b1d795e51cdef",
                        "0x00000000000000000000000056178a0d5f301baf6cf3e1cd53d9863437345bf9"
                    ]
                },
                "nodeType": 1
            }
        },
        "gasFlame": [
            {
                "children": [
                    {
                        "children": [
                            {
                                "children": [],
                                "depth": 0,
                                "name": "Initial Gas",
                                "value": 22836
                            },
                            {
                                "children": [
                                    {
                                        "children": [
                                            {
                                                "children": [],
                                                "depth": 2,
                                                "name": "transfer",
                                                "value": 14515
                                            }
                                        ],
                                        "depth": 1,
                                        "name": "transferToken",
                                        "value": 16349
                                    }
                                ],
                                "depth": 0,
                                "name": "Executed Gas",
                                "value": 18620
                            }
                        ],
                        "depth": -1,
                        "name": "Actual Gas Used",
                        "value": 26456
                    },
                    {
                        "children": [],
                        "depth": -1,
                        "name": "Refunded Gas",
                        "value": 15000
                    }
                ],
                "depth": -2,
                "name": "Total Gas",
                "value": 41456
            }
        ],
        "isConfirmed": true,
        "mainTrace": [
            {
                "children": [
                    {
                        "children": [
                            {
                                "children": [
                                    {
                                        "children": [
                                            {
                                                "children": [],
                                                "depth": 3,
                                                "id": 3,
                                                "order": 3
                                            }
                                        ],
                                        "depth": 2,
                                        "id": 2,
                                        "order": 2
                                    }
                                ],
                                "depth": 1,
                                "id": 1,
                                "order": 1
                            }
                        ],
                        "depth": 0,
                        "id": 0,
                        "order": 0
                    }
                ],
                "depth": -1,
                "id": -1,
                "order": -1
            }
        ],
        "mainTraceNodeCount": 4,
        "parentIdMap": {
            "0": -1,
            "1": 0,
            "2": 1,
            "3": 2
        },
        "tidyTrace": [
            {
                "children": [
                    {
                        "children": [
                            {
                                "children": [
                                    {
                                        "children": [
                                            {
                                                "children": [],
                                                "depth": 3,
                                                "id": 3,
                                                "order": 3
                                            }
                                        ],
                                        "depth": 2,
                                        "id": 2,
                                        "order": 2
                                    }
                                ],
                                "depth": 1,
                                "id": 1,
                                "order": 1
                            }
                        ],
                        "depth": 0,
                        "id": 0,
                        "order": 0
                    }
                ],
                "depth": -1,
                "id": -1,
                "order": -1
            }
        ],
        "tidyTraceNodeCount": 4
    },
    "state_change": {
        "stateChanges": [
            {
                "address": "0xa3bed4e1c75d00fa6f4e5e6922db7261b5e9acd2",
                "erc": "ERC-20",
                "slots": [
                    {
                        "current": "0x0000000000000000000000000000000000000000000000000000000000000000",
                        "key": "0xb929eafabb358800f4cb4e8b26fa588b6721f98749c2b89a8a56977d15336368",
                        "prev": "0x0000000000000000000000000000000000000000000001570c2af53c7d2b0000"
                    },
                    {
                        "current": "0x000000000000000000000000000000000000000000000316696afdf091b61357",
                        "key": "0xf0c160ada807d617fc026bf601e74d7de8b32c57504814235e095f421a29f8a8",
                        "prev": "0x0000000000000000000000000000000000000000000001bf5d4008b4148b1357"
                    }
                ],
                "storageVariables": [
                    {
                        "name": "_balances",
                        "type": "mapping(address => uint256)",
                        "value": {
                            "pairs": [
                                {
                                    "key": "0x56178a0d5f301baf6cf3e1cd53d9863437345bf9",
                                    "value": {
                                        "current": "14580523981161738146647",
                                        "prev": "8252413981161738146647",
                                        "typeTag": 1
                                    }
                                },
                                {
                                    "key": "0xfa103c21ea2df71dfb92b0652f8b1d795e51cdef",
                                    "value": {
                                        "current": "0",
                                        "prev": "6328110000000000000000",
                                        "typeTag": 1
                                    }
                                }
                            ],
                            "typeTag": 4
                        }
                    }
                ]
            }
        ]
    }
}