{
    "balance_change": {
        "balanceChanges": []
    },
    "profile": {
        "basic_info": {
            "baseFee": "14.65028088",
            "blockNumber": 19727168,
            "callData": "0x095ea7b30000000000000000000000000439e60f02a8900a951603950d8d4527f400c3f100000000000000000000000000000000000000000000000029bd1c9b6b5b1800",
            "debugEnable": true,
            "errorInfo": "",
            "eventCount": 1,
            "feeRecipient": "0x1f9090aae28b8a3dceadf281b0f12828e676c326",
            "formatValue": "0",
            "gasLimit": 46779,
            "gasPrice": "14.73242145",
            "gasUsed": 46396,
            "intTxnCount": 0,
            "internalRevert": false,
            "internalRevertMessage": "",
            "isContractCreation": false,
            "isFlashloan": false,
            "maxFee": "20.120731974",
            "nonce": 111,
            "overwritedBlockNumber": -1,
            "priorityFee": "0.08214057",
            "receiver": "0x19062190b1925b5b6689d7073fdfc8c2976ef8cb",
            "revertMessage": "",
            "sender": "0xd2657ca2e1ffc2a8629ef01474e4d886d9edff0f",
            "simulationEnable": true,
            "sourceTxnHash": "0xc62359ee25e829048117718cca7c1256d8bc43a66023d81f2c761b9e226d6957",
            "status": true,
            "timestamp": "2024-04-24T18:58:47Z",
            "transactionFee": "0.0006835254255942",
            "txnHash": "0xc62359ee25e829048117718cca7c1256d8bc43a66023d81f2c761b9e226d6957",
            "txnIndex": 119,
            "type": 2,
            "value": "0"
        },
        "fund_flow": [],
        "token_infos": [
            {
                "address": "0xeeeeeeeeeeeeeeeeeeeeeeeeeeeeeeeeeeeeeeee",
                "decimals": 18
            },
            {
                "address": "0xc02aaa39b223fe8d0a0e5c4f27ead9083c756cc2",
                "decimals": 18
            }
        ]
    },
    "address_label": {
        "labels": [
            {
                "address": "0xeeeeeeeeeeeeeeeeeeeeeeeeeeeeeeeeeeeeeeee",
                "label": "Ether"
            },
            {
                "address": "0x0439e60f02a8900a951603950d8d4527f400c3f1",
                "label": "MetaMask: Meta Bridge"
            },
            {
                "address": "0x19062190b1925b5b6689d7073fdfc8c2976ef8cb",
                "label": "Ethswarm: BZZ Token"
            },
            {
                "address": "0x0000000000000000000000000000000000000001",
                "label": "Precompiled"
            },
            {
                "address": "0x0000000000000000000000000000000000000002",
                "label": "Precompiled"
            },
            {
                "address": "0x0000000000000000000000000000000000000003",
                "label": "Precompiled"
            },
            {
                "address": "0x0000000000000000000000000000000000000004",
                "label": "Precompiled"
            }
        ]
    },
    "trace": {
        "accountLabels": null,
        "dataMap": {
            "-1": {
                "invocation": {
                    "address": "0xd2657ca2e1ffc2a8629ef01474e4d886d9edff0f",
                    "callData": "",
                    "decodedMethod": null,
                    "errorInfo": "",
                    "fromAddress": "",
                    "gasUsed": 0,
                    "id": -1,
                    "methodDecoded": false,
                    "operation": "",
                    "output": "",
                    "revert": false,
                    "revertMessage": "",
                    "selector": "",
                    "status": false,
                    "value": ""
                },
                "nodeType": 0
            },
            "0": {
                "invocation": {
                    "address": "0x19062190b1925b5b6689d7073fdfc8c2976ef8cb",
                    "callData": "0x0000000000000000000000000439e60f02a8900a951603950d8d4527f400c3f100000000000000000000000000000000000000000000000029bd1c9b6b5b1800",
                    "decodedMethod": {
                        "callParams": [
                            {
                                "name": "spender",
                                "type": "address",
                                "value": "0x0439e60f02a8900a951603950d8d4527f400c3f1"
                            },
                            {
                                "decimalAvailable": true,
                                "name": "amount",
                                "type": "uint256",
                                "value": "3,007,591,580,000,000,000"
                            }
                        ],
                        "constructorArguments": "",
                        "name": "approve",
                        "returnParams": [
                            {
                                "name": "",
                                "type": "bool",
                                "value": true
                            }
                        ],
                        "signature": "approve(address,uint256)"
                    },
                    "errorInfo": "",
                    "fromAddress": "0xd2657ca2e1ffc2a8629ef01474e4d886d9edff0f",
                    "gasUsed": 46396,
                    "id": 0,
                    "methodDecoded": true,
                    "operation": "CALL",
                    "output": "0x0000000000000000000000000000000000000000000000000000000000000001",
                    "revert": false,
                    "revertMessage": "",
                    "selector": "0x095ea7b3",
                    "status": true,
                    "value": "0"
                },
                "nodeType": 0
            },
            "1": {
                "event": {
                    "contract": "0x19062190b1925b5b6689d7073fdfc8c2976ef8cb",
                    "decodedLog": {
                        "name": "Approval",
                        "params": [
                            {
                                "name": "owner",
                                "type": "address",
                                "value": "0xd2657ca2e1ffc2a8629ef01474e4d886d9edff0f"
                            },
                            {
                                "name": "spender",
                                "type": "address",
                                "value": "0x0439e60f02a8900a951603950d8d4527f400c3f1"
                            },
                            {
                                "decimalAvailable": true,
                                "name": "value",
                                "type": "uint256",
                                "value": "3,007,591,580,000,000,000"
                            }
                        ],
                        "signature": "Approval(address,address,uint256)"
                    },
                    "id": 1,
                    "logData": "0x00000000000000000000000000000000000000000000000029bd1c9b6b5b1800",
                    "logDecoded": true,
                    "operation": "EVENT",
                    "revert": false,
                    "status": true,
                    "topics": [
                        "0x8c5be1e5ebec7d5bd14f71427d1e84f3dd0314c0f7b2291e5b200ac8c7c3b925",
                        "0x000000000000000000000000d2657ca2e1ffc2a8629ef01474e4d886d9edff0f",
                        "0x0000000000000000000000000439e60f02a8900a951603950d8d4527f400c3f1"
                    ]
                },
                "nodeType": 1
            }
        },
        "gasFlame": [
            {
                "children": [
                    {
                        "children": [
                            {
                                "children": [],
                                "depth": 0,
                                "name": "Initial Gas",
                                "value": 21632
                            },
                            {
                                "children": [],
                                "depth": 0,
                                "name": "Executed Gas",
                                "value": 24764
                            }
                        ],
                        "depth": -1,
                        "name": "Actual Gas Used",
                        "value": 46396
                    },
                    {
                        "children": [],
                        "depth": -1,
                        "name": "Refunded Gas",
                        "value": 0
                    }
                ],
                "depth": -2,
                "name": "Total Gas",
                "value": 46396
            }
        ],
        "isConfirmed": true,
        "mainTrace": [
            {
                "children": [
                    {
                        "children": [
                            {
                                "children": [],
                                "depth": 1,
                                "id": 1,
                                "order": 1
                            }
                        ],
                        "depth": 0,
                        "id": 0,
                        "order": 0
                    }
                ],
                "depth": -1,
                "id": -1,
                "order": -1
            }
        ],
        "mainTraceNodeCount": 2,
        "parentIdMap": {
            "0": -1,
            "1": 0
        },
        "tidyTrace": [
            {
                "children": [
                    {
                        "children": [
                            {
                                "children": [],
                                "depth": 1,
                                "id": 1,
                                "order": 1
                            }
                        ],
                        "depth": 0,
                        "id": 0,
                        "order": 0
                    }
                ],
                "depth": -1,
                "id": -1,
                "order": -1
            }
        ],
        "tidyTraceNodeCount": 2
    },
    "state_change": {
        "stateChanges": [
            {
                "address": "0x19062190b1925b5b6689d7073fdfc8c2976ef8cb",
                "erc": "ERC-20",
                "slots": [
                    {
                        "current": "0x00000000000000000000000000000000000000000000000029bd1c9b6b5b1800",
                        "key": "0x9f48dca508600b68ae402e1410a7c70561caea24f0138830372d5cee035daef9",
                        "prev": "0x0000000000000000000000000000000000000000000000000000000000000000"
                    }
                ],
                "storageVariables": [
                    {
                        "name": "_allowances",
                        "type": "mapping(address => mapping(address => uint256))",
                        "value": {
                            "pairs": [
                                {
                                    "key": "0xd2657ca2e1ffc2a8629ef01474e4d886d9edff0f",
                                    "value": {
                                        "pairs": [
                                            {
                                                "key": "0x0439e60f02a8900a951603950d8d4527f400c3f1",
                                                "value": {
                                                    "current": "3007591580000000000",
                                                    "prev": "0",
                                                    "typeTag": 1
                                                }
                                            }
                                        ],
                                        "typeTag": 4
                                    }
                                }
                            ],
                            "typeTag": 4
                        }
                    }
                ]
            }
        ]
    }
}