{
    "balance_change": {
        "balanceChanges": [
            {
                "account": "0x2c2d27c1467dda284d00716a35558bc43e65f3bb",
                "assets": [
                    {
                        "address": "0x96a65609a7b84e8842732deb08f56c3e21ac6f8a",
                        "amount": "1",
                        "iconUrl": "https://assets.blocksec.com/icon/846987be4459ada8e0b25b3c3e5b2c4f9638a3efc83c40c7b7b147ae4d49d2be.png",
                        "isERC1155": false,
                        "isERC721": false,
                        "sign": false,
                        "value": ""
                    }
                ]
            },
            {
                "account": "0xa3cc478c9083a2b37761cfd64bfe2dd8f024b406",
                "assets": [
                    {
                        "address": "0x96a65609a7b84e8842732deb08f56c3e21ac6f8a",
                        "amount": "1",
                        "iconUrl": "https://assets.blocksec.com/icon/846987be4459ada8e0b25b3c3e5b2c4f9638a3efc83c40c7b7b147ae4d49d2be.png",
                        "isERC1155": false,
                        "isERC721": false,
                        "sign": true,
                        "value": ""
                    }
                ]
            }
        ]
    },
    "profile": {
        "basic_info": {
            "baseFee": "",
            "blockNumber": 4729759,
            "callData": "0xa9059cbb000000000000000000000000a3cc478c9083a2b37761cfd64bfe2dd8f024b4060000000000000000000000000000000000000000000000000de0b6b3a7640000",
            "debugEnable": true,
            "errorInfo": "",
            "eventCount": 1,
            "feeRecipient": "0x829bd824b016326a401d083b33d092293333a830",
            "formatValue": "0",
            "gasLimit": 52579,
            "gasPrice": "21",
            "gasUsed": 52579,
            "intTxnCount": 0,
            "internalRevert": false,
            "internalRevertMessage": "",
            "isContractCreation": false,
            "isFlashloan": false,
            "maxFee": "",
            "nonce": 6,
            "overwritedBlockNumber": -1,
            "priorityFee": "",
            "receiver": "0x96a65609a7b84e8842732deb08f56c3e21ac6f8a",
            "revertMessage": "",
            "sender": "0x2c2d27c1467dda284d00716a35558bc43e65f3bb",
            "simulationEnable": true,
            "sourceTxnHash": "0xc61fad9efb1750df0cd16e5d3ec6b2ea940d2fbd0d50d7ae9b79157d3185a9d5",
            "status": true,
            "timestamp": "2017-12-14T06:43:20Z",
            "transactionFee": "0.001104159",
            "txnHash": "0xc61fad9efb1750df0cd16e5d3ec6b2ea940d2fbd0d50d7ae9b79157d3185a9d5",
            "txnIndex": 71,
            "type": 0,
            "value": "0"
        },
        "fund_flow": [
            {
                "amount": "1",
                "from": "0x2c2d27c1467dda284d00716a35558bc43e65f3bb",
                "id": 1,
                "isERC1155": false,
                "isERC721": false,
                "isReverted": false,
                "order": 1,
                "to": "0xa3cc478c9083a2b37761cfd64bfe2dd8f024b406",
                "token": "0x96a65609a7b84e8842732deb08f56c3e21ac6f8a"
            }
        ],
        "token_infos": [
            {
                "address": "0x96a65609a7b84e8842732deb08f56c3e21ac6f8a",
                "decimals": 18
            },
            {
                "address": "0xc02aaa39b223fe8d0a0e5c4f27ead9083c756cc2",
                "decimals": 18
            },
            {
                "address": "0xeeeeeeeeeeeeeeeeeeeeeeeeeeeeeeeeeeeeeeee",
                "decimals": 18
            }
        ]
    },
    "address_label": {
        "labels": [
            {
                "address": "0x96a65609a7b84e8842732deb08f56c3e21ac6f8a",
                "label": "Centra.tech: CTR Token"
            },
            {
                "address": "0x0000000000000000000000000000000000000001",
                "label": "Precompiled"
            },
            {
                "address": "0x0000000000000000000000000000000000000002",
                "label": "Precompiled"
            },
            {
                "address": "0x0000000000000000000000000000000000000003",
                "label": "Precompiled"
            },
            {
                "address": "0x0000000000000000000000000000000000000004",
                "label": "Precompiled"
            },
            {
                "address": "0xeeeeeeeeeeeeeeeeeeeeeeeeeeeeeeeeeeeeeeee",
                "label": "Ether"
            },
            {
                "address": "0xa3cc478c9083a2b37761cfd64bfe2dd8f024b406",
                "label": "BINANCE"
            }
        ]
    },
    "trace": {
        "accountLabels": null,
        "dataMap": {
            "-1": {
                "invocation": {
                    "address": "0x2c2d27c1467dda284d00716a35558bc43e65f3bb",
                    "callData": "",
                    "decodedMethod": null,
                    "errorInfo": "",
                    "fromAddress": "",
                    "gasUsed": 0,
                    "id": -1,
                    "methodDecoded": false,
                    "operation": "",
                    "output": "",
                    "revert": false,
                    "revertMessage": "",
                    "selector": "",
                    "status": false,
                    "value": ""
                },
                "nodeType": 0
            },
            "0": {
                "invocation": {
                    "address": "0x96a65609a7b84e8842732deb08f56c3e21ac6f8a",
                    "callData": "0x000000000000000000000000a3cc478c9083a2b37761cfd64bfe2dd8f024b4060000000000000000000000000000000000000000000000000de0b6b3a7640000",
                    "decodedMethod": {
                        "callParams": [
                            {
                                "name": "_to",
                                "type": "address",
                                "value": "0xa3cc478c9083a2b37761cfd64bfe2dd8f024b406"
                            },
                            {
                                "decimalAvailable": true,
                                "name": "_amount",
                                "type": "uint256",
                                "value": "1,000,000,000,000,000,000"
                            }
                        ],
                        "constructorArguments": "",
                        "name": "transfer",
                        "returnParams": [
                            {
                                "name": "success",
                                "type": "bool",
                                "value": true
                            }
                        ],
                        "signature": "transfer(address,uint256)"
                    },
                    "errorInfo": "",
                    "fromAddress": "0x2c2d27c1467dda284d00716a35558bc43e65f3bb",
                    "gasUsed": 52579,
                    "id": 0,
                    "methodDecoded": true,
                    "operation": "CALL",
                    "output": "0x0000000000000000000000000000000000000000000000000000000000000001",
                    "revert": false,
                    "revertMessage": "",
                    "selector": "0xa9059cbb",
                    "status": true,
                    "value": "0"
                },
                "nodeType": 0
            },
            "1": {
                "event": {
                    "contract": "0x96a65609a7b84e8842732deb08f56c3e21ac6f8a",
                    "decodedLog": {
                        "name": "Transfer",
                        "params": [
                            {
                                "name": "_from",
                                "type": "address",
                                "value": "0x2c2d27c1467dda284d00716a35558bc43e65f3bb"
                            },
                            {
                                "name": "_to",
                                "type": "address",
                                "value": "0xa3cc478c9083a2b37761cfd64bfe2dd8f024b406"
                            },
                            {
                                "decimalAvailable": true,
                                "name": "_value",
                                "type": "uint256",
                                "value": "1,000,000,000,000,000,000"
                            }
                        ],
                        "signature": "Transfer(address,address,uint256)"
                    },
                    "id": 1,
                    "logData": "0x0000000000000000000000000000000000000000000000000de0b6b3a7640000",
                    "logDecoded": true,
                    "operation": "EVENT",
                    "revert": false,
                    "status": true,
                    "topics": [
                        "0xddf252ad1be2c89b69c2b068fc378daa952ba7f163c4a11628f55a4df523b3ef",
                        "0x0000000000000000000000002c2d27c1467dda284d00716a35558bc43e65f3bb",
                        "0x000000000000000000000000a3cc478c9083a2b37761cfd64bfe2dd8f024b406"
                    ]
                },
                "nodeType": 1
            }
        },
        "gasFlame": [
            {
                "children": [
                    {
                        "children": [
                            {
                                "children": [],
                                "depth": 0,
                                "name": "Initial Gas",
                                "value": 23192
                            },
                            {
                                "children": [],
                                "depth": 0,
                                "name": "Executed Gas",
                                "value": 29387
                            }
                        ],
                        "depth": -1,
                        "name": "Actual Gas Used",
                        "value": 52579
                    },
                    {
                        "children": [],
                        "depth": -1,
                        "name": "Refunded Gas",
                        "value": 0
                    }
                ],
                "depth": -2,
                "name": "Total Gas",
                "value": 52579
            }
        ],
        "isConfirmed": true,
        "mainTrace": [
            {
                "children": [
                    {
                        "children": [
                            {
                                "children": [],
                                "depth": 1,
                                "id": 1,
                                "order": 1
                            }
                        ],
                        "depth": 0,
                        "id": 0,
                        "order": 0
                    }
                ],
                "depth": -1,
                "id": -1,
                "order": -1
            }
        ],
        "mainTraceNodeCount": 2,
        "parentIdMap": {
            "0": -1,
            "1": 0
        },
        "tidyTrace": [
            {
                "children": [
                    {
                        "children": [
                            {
                                "children": [],
                                "depth": 1,
                                "id": 1,
                                "order": 1
                            }
                        ],
                        "depth": 0,
                        "id": 0,
                        "order": 0
                    }
                ],
                "depth": -1,
                "id": -1,
                "order": -1
            }
        ],
        "tidyTraceNodeCount": 2
    },
    "state_change": {
        "stateChanges": [
            {
                "address": "0x96a65609a7b84e8842732deb08f56c3e21ac6f8a",
                "erc": "ERC-20",
                "slots": [
                    {
                        "current": "0x000000000000000000000000000000000000000000000757690687c401940000",
                        "key": "0x1cb87d756ffe60f3d65f66c917f63f7fdfd06d5225b3dff0456cc769f9f6dd01",
                        "prev": "0x00000000000000000000000000000000000000000000075776e73e77a8f80000"
                    },
                    {
                        "current": "0x0000000000000000000000000000000000000000000000000de0b6b3a7640000",
                        "key": "0x34a73c82f3b94b452fbf038ce1ab00a21aa7578b9d51800f8d82da08a0f7cd8e",
                        "prev": "0x0000000000000000000000000000000000000000000000000000000000000000"
                    }
                ],
                "storageVariables": [
                    {
                        "name": "balances",
                        "type": "mapping(address => uint256)",
                        "value": {
                            "pairs": [
                                {
                                    "key": "0x2c2d27c1467dda284d00716a35558bc43e65f3bb",
                                    "value": {
                                        "current": "34669000000000000000000",
                                        "prev": "34670000000000000000000",
                                        "typeTag": 1
                                    }
                                },
                                {
                                    "key": "0xa3cc478c9083a2b37761cfd64bfe2dd8f024b406",
                                    "value": {
                                        "current": "1000000000000000000",
                                        "prev": "0",
                                        "typeTag": 1
                                    }
                                }
                            ],
                            "typeTag": 4
                        }
                    }
                ]
            }
        ]
    }
}