{
    "balance_change": {
        "balanceChanges": [
            {
                "account": "0x2008b6c3d07b061a84f790c035c2f6dc11a0be70",
                "assets": [
                    {
                        "address": "0x6982508145454ce325ddbe47a25d4ec3d2311933",
                        "amount": "310,207,824.479511810032396074",
                        "iconUrl": "https://assets.blocksec.com/icon/99f1a626358e559d9a9d6dc4254c663e595a9ebcd362efa2d4cd902a8d75ea2c.png",
                        "isERC1155": false,
                        "isERC721": false,
                        "sign": true,
                        "value": ""
                    },
                    {
                        "address": "0xc02aaa39b223fe8d0a0e5c4f27ead9083c756cc2",
                        "amount": "0.17247675077510843",
                        "iconUrl": "https://assets.blocksec.com/icon/f1cb2d02c471d545bbc7722daf3277fd852d98e63d118771af7047bd8256c516.png",
                        "isERC1155": false,
                        "isERC721": false,
                        "sign": false,
                        "value": "358.5548655261635768"
                    }
                ]
            },
            {
                "account": "0xc02aaa39b223fe8d0a0e5c4f27ead9083c756cc2",
                "assets": [
                    {
                        "address": "0xeeeeeeeeeeeeeeeeeeeeeeeeeeeeeeeeeeeeeeee",
                        "amount": "0.17247675077510843",
                        "iconUrl": "https://assets.blocksec.com/image/1663669189317-3.png",
                        "isERC1155": false,
                        "isERC721": false,
                        "sign": false,
                        "value": "358.5548655261635768"
                    },
                    {
                        "address": "0xc02aaa39b223fe8d0a0e5c4f27ead9083c756cc2",
                        "amount": "0.17247675077510843",
                        "iconUrl": "https://assets.blocksec.com/icon/f1cb2d02c471d545bbc7722daf3277fd852d98e63d118771af7047bd8256c516.png",
                        "isERC1155": false,
                        "isERC721": false,
                        "sign": true,
                        "value": "358.5548655261635768"
                    }
                ]
            },
            {
                "account": "0xe7f0580804532bca7c0d702c345eba12b24fa339",
                "assets": [
                    {
                        "address": "0x6982508145454ce325ddbe47a25d4ec3d2311933",
                        "amount": "310,207,824.479511810032396074",
                        "iconUrl": "https://assets.blocksec.com/icon/99f1a626358e559d9a9d6dc4254c663e595a9ebcd362efa2d4cd902a8d75ea2c.png",
                        "isERC1155": false,
                        "isERC721": false,
                        "sign": false,
                        "value": ""
                    },
                    {
                        "address": "0xeeeeeeeeeeeeeeeeeeeeeeeeeeeeeeeeeeeeeeee",
                        "amount": "0.17247675077510843",
                        "iconUrl": "https://assets.blocksec.com/image/1663669189317-3.png",
                        "isERC1155": false,
                        "isERC721": false,
                        "sign": true,
                        "value": "358.5548655261635768"
                    }
                ]
            }
        ]
    },
    "profile": {
        "basic_info": {
            "baseFee": "21.38631396",
            "blockNumber": 18607258,
            "callData": "0x3f62192e00000000000000000000000000000000000000000000000000000000000000200000000000000000000000000000000000000000000000000000000000000040000000000000000000000000000000000000000000000000000000000000032000000000000000000000000000000000000000000000000000000000000002c00000000000000000000000000000000000000000000000000000000000000020000000000000000000000000000000000000000000000000000000000000012000000000000000000000000000000000000000000000000000000000655a41c400000000000000000000000000000000000000000000000000000000655a42000000000000000000000000003b9260a928d30f2a069572805fbb6880fc719a1900000000000000000000000000000000000000000000000000000000000000640000000000000000000000006982508145454ce325ddbe47a25d4ec3d231193300000000000000000000000000000000000000000100990fdc734e7621d5e72a00000000000000000000000000000000000000000100990fdc734e7621d5e72a00000000000000000000000000000000000000000000000000000000000002000000000000000000000000006000da47483062a0d734ba3dc7576ce6a0b645c4000000000000000000000000e7f0580804532bca7c0d702c345eba12b24fa339046832573866601e04df055d4f5317ba2246cfcd32284aa80f0c4b34c1f34b0000000000000000000000000000000000000000000000000000000000655a420c000000000000000000000000000000000000000000000000000000000000000000000000000000000000000000000000000000000000000000000000000000c00000000000000000000000000000000000000000000000000000000000000000000000000000000000000000000000000000000000000000000000000000000100000000000000000000000000000000000000000000000000000000000000000000000000000000000000000000000000000000000000000264c2b0e5f6c34e0000000000000000000000000000000000000000000000000246edbf08202ffa000000000000000000000000e7f0580804532bca7c0d702c345eba12b24fa339000000000000000000000000000000000000000000000000000000000000004192e92657489c511f4edebd54c9373b21cc6dbac20d0c32b44f016349b44ce32648bd82e89fcb6daf23a0d1a2b6e7af8ab06bf5c9b44858391287edc7ebceb6f61b00000000000000000000000000000000000000000000000000000000000000",
            "debugEnable": true,
            "errorInfo": "",
            "eventCount": 6,
            "feeRecipient": "0x95222290dd7278aa3ddd389cc1e1d165cc4bafe5",
            "formatValue": "0",
            "gasLimit": 272557,
            "gasPrice": "22.38631396",
            "gasUsed": 177588,
            "intTxnCount": 11,
            "internalRevert": false,
            "internalRevertMessage": "",
            "isContractCreation": false,
            "isFlashloan": false,
            "maxFee": "46.25982024",
            "nonce": 35382,
            "overwritedBlockNumber": -1,
            "priorityFee": "1",
            "receiver": "0x3b9260a928d30f2a069572805fbb6880fc719a19",
            "revertMessage": "",
            "sender": "0x2008b6c3d07b061a84f790c035c2f6dc11a0be70",
            "simulationEnable": true,
            "sourceTxnHash": "0xc70ce4edf9a9ebaee8293a0951c0b39a3fce150e62903d0c2357b6aa3c3fe7f5",
            "status": true,
            "timestamp": "2023-11-19T17:10:59Z",
            "transactionFee": "0.00397554072352848",
            "txnHash": "0xc70ce4edf9a9ebaee8293a0951c0b39a3fce150e62903d0c2357b6aa3c3fe7f5",
            "txnIndex": 79,
            "type": 2,
            "value": "0"
        },
        "fund_flow": [
            {
                "amount": "310,207,824.479511810032396074",
                "from": "0xe7f0580804532bca7c0d702c345eba12b24fa339",
                "id": 1,
                "isERC1155": false,
                "isERC721": false,
                "isReverted": false,
                "order": 1,
                "to": "0x3b9260a928d30f2a069572805fbb6880fc719a19",
                "token": "0x6982508145454ce325ddbe47a25d4ec3d2311933"
            },
            {
                "amount": "310,207,824.479511810032396074",
                "from": "0x3b9260a928d30f2a069572805fbb6880fc719a19",
                "id": 2,
                "isERC1155": false,
                "isERC721": false,
                "isReverted": false,
                "order": 2,
                "to": "0x2008b6c3d07b061a84f790c035c2f6dc11a0be70",
                "token": "0x6982508145454ce325ddbe47a25d4ec3d2311933"
            },
            {
                "amount": "0.17247675077510843",
                "from": "0x2008b6c3d07b061a84f790c035c2f6dc11a0be70",
                "id": 3,
                "isERC1155": false,
                "isERC721": false,
                "isReverted": false,
                "order": 3,
                "to": "0x3b9260a928d30f2a069572805fbb6880fc719a19",
                "token": "0xc02aaa39b223fe8d0a0e5c4f27ead9083c756cc2"
            },
            {
                "amount": "0.17247675077510843",
                "from": "0xc02aaa39b223fe8d0a0e5c4f27ead9083c756cc2",
                "id": 4,
                "isERC1155": false,
                "isERC721": false,
                "isReverted": false,
                "order": 4,
                "to": "0x3b9260a928d30f2a069572805fbb6880fc719a19",
                "token": "0xeeeeeeeeeeeeeeeeeeeeeeeeeeeeeeeeeeeeeeee"
            },
            {
                "amount": "0.17247675077510843",
                "from": "0x3b9260a928d30f2a069572805fbb6880fc719a19",
                "id": 5,
                "isERC1155": false,
                "isERC721": false,
                "isReverted": false,
                "order": 5,
                "to": "0xc02aaa39b223fe8d0a0e5c4f27ead9083c756cc2",
                "token": "0xc02aaa39b223fe8d0a0e5c4f27ead9083c756cc2"
            },
            {
                "amount": "0.17247675077510843",
                "from": "0x3b9260a928d30f2a069572805fbb6880fc719a19",
                "id": 6,
                "isERC1155": false,
                "isERC721": false,
                "isReverted": false,
                "order": 6,
                "to": "0x6000da47483062a0d734ba3dc7576ce6a0b645c4",
                "token": "0xeeeeeeeeeeeeeeeeeeeeeeeeeeeeeeeeeeeeeeee"
            },
            {
                "amount": "0.17247675077510843",
                "from": "0x6000da47483062a0d734ba3dc7576ce6a0b645c4",
                "id": 7,
                "isERC1155": false,
                "isERC721": false,
                "isReverted": false,
                "order": 7,
                "to": "0xe7f0580804532bca7c0d702c345eba12b24fa339",
                "token": "0xeeeeeeeeeeeeeeeeeeeeeeeeeeeeeeeeeeeeeeee"
            }
        ],
        "token_infos": [
            {
                "address": "0x6982508145454ce325ddbe47a25d4ec3d2311933",
                "decimals": 18
            },
            {
                "address": "0xc02aaa39b223fe8d0a0e5c4f27ead9083c756cc2",
                "decimals": 18
            },
            {
                "address": "0xeeeeeeeeeeeeeeeeeeeeeeeeeeeeeeeeeeeeeeee",
                "decimals": 18
            }
        ]
    },
    "address_label": {
        "labels": [
            {
                "address": "0xc02aaa39b223fe8d0a0e5c4f27ead9083c756cc2",
                "label": "Wrapped Ether (WETH)"
            },
            {
                "address": "0x0000000000000000000000000000000000000001",
                "label": "Precompiled"
            },
            {
                "address": "0x0000000000000000000000000000000000000002",
                "label": "Precompiled"
            },
            {
                "address": "0x6000da47483062a0d734ba3dc7576ce6a0b645c4",
                "label": "UniswapX: Dutch Order Reactor"
            },
            {
                "address": "0x000000000022d473030f116ddee9f6b43ac78ba3",
                "label": "Permit2"
            },
            {
                "address": "0x2008b6c3d07b061a84f790c035c2f6dc11a0be70",
                "label": "Native: PMM 1"
            },
            {
                "address": "0x0000000000000000000000000000000000000000",
                "label": "Null Address"
            },
            {
                "address": "0x6982508145454ce325ddbe47a25d4ec3d2311933",
                "label": "Pepe: PEPE Token"
            },
            {
                "address": "0x0000000000000000000000000000000000000003",
                "label": "Precompiled"
            },
            {
                "address": "0x0000000000000000000000000000000000000004",
                "label": "Precompiled"
            },
            {
                "address": "0xeeeeeeeeeeeeeeeeeeeeeeeeeeeeeeeeeeeeeeee",
                "label": "Ether"
            }
        ]
    },
    "trace": {
        "accountLabels": null,
        "dataMap": {
            "-1": {
                "invocation": {
                    "address": "0x2008b6c3d07b061a84f790c035c2f6dc11a0be70",
                    "callData": "",
                    "decodedMethod": null,
                    "errorInfo": "",
                    "fromAddress": "",
                    "gasUsed": 0,
                    "id": -1,
                    "methodDecoded": false,
                    "operation": "",
                    "output": "",
                    "revert": false,
                    "revertMessage": "",
                    "selector": "",
                    "status": false,
                    "value": ""
                },
                "nodeType": 0
            },
            "0": {
                "invocation": {
                    "address": "0x3b9260a928d30f2a069572805fbb6880fc719a19",
                    "callData": "0x00000000000000000000000000000000000000000000000000000000000000200000000000000000000000000000000000000000000000000000000000000040000000000000000000000000000000000000000000000000000000000000032000000000000000000000000000000000000000000000000000000000000002c00000000000000000000000000000000000000000000000000000000000000020000000000000000000000000000000000000000000000000000000000000012000000000000000000000000000000000000000000000000000000000655a41c400000000000000000000000000000000000000000000000000000000655a42000000000000000000000000003b9260a928d30f2a069572805fbb6880fc719a1900000000000000000000000000000000000000000000000000000000000000640000000000000000000000006982508145454ce325ddbe47a25d4ec3d231193300000000000000000000000000000000000000000100990fdc734e7621d5e72a00000000000000000000000000000000000000000100990fdc734e7621d5e72a00000000000000000000000000000000000000000000000000000000000002000000000000000000000000006000da47483062a0d734ba3dc7576ce6a0b645c4000000000000000000000000e7f0580804532bca7c0d702c345eba12b24fa339046832573866601e04df055d4f5317ba2246cfcd32284aa80f0c4b34c1f34b0000000000000000000000000000000000000000000000000000000000655a420c000000000000000000000000000000000000000000000000000000000000000000000000000000000000000000000000000000000000000000000000000000c00000000000000000000000000000000000000000000000000000000000000000000000000000000000000000000000000000000000000000000000000000000100000000000000000000000000000000000000000000000000000000000000000000000000000000000000000000000000000000000000000264c2b0e5f6c34e0000000000000000000000000000000000000000000000000246edbf08202ffa000000000000000000000000e7f0580804532bca7c0d702c345eba12b24fa339000000000000000000000000000000000000000000000000000000000000004192e92657489c511f4edebd54c9373b21cc6dbac20d0c32b44f016349b44ce32648bd82e89fcb6daf23a0d1a2b6e7af8ab06bf5c9b44858391287edc7ebceb6f61b00000000000000000000000000000000000000000000000000000000000000",
                    "decodedMethod": {
                        "callParams": [
                            {
                                "name": "order",
                                "type": "(bytes,bytes)",
                                "value": [
                                    {
                                        "name": "order",
                                        "type": "bytes",
                                        "value": "0x0000000000000000000000000000000000000000000000000000000000000020000000000000000000000000000000000000000000000000000000000000012000000000000000000000000000000000000000000000000000000000655a41c400000000000000000000000000000000000000000000000000000000655a42000000000000000000000000003b9260a928d30f2a069572805fbb6880fc719a1900000000000000000000000000000000000000000000000000000000000000640000000000000000000000006982508145454ce325ddbe47a25d4ec3d231193300000000000000000000000000000000000000000100990fdc734e7621d5e72a00000000000000000000000000000000000000000100990fdc734e7621d5e72a00000000000000000000000000000000000000000000000000000000000002000000000000000000000000006000da47483062a0d734ba3dc7576ce6a0b645c4000000000000000000000000e7f0580804532bca7c0d702c345eba12b24fa339046832573866601e04df055d4f5317ba2246cfcd32284aa80f0c4b34c1f34b0000000000000000000000000000000000000000000000000000000000655a420c000000000000000000000000000000000000000000000000000000000000000000000000000000000000000000000000000000000000000000000000000000c00000000000000000000000000000000000000000000000000000000000000000000000000000000000000000000000000000000000000000000000000000000100000000000000000000000000000000000000000000000000000000000000000000000000000000000000000000000000000000000000000264c2b0e5f6c34e0000000000000000000000000000000000000000000000000246edbf08202ffa000000000000000000000000e7f0580804532bca7c0d702c345eba12b24fa339"
                                    },
                                    {
                                        "name": "sig",
                                        "type": "bytes",
                                        "value": "0x92e92657489c511f4edebd54c9373b21cc6dbac20d0c32b44f016349b44ce32648bd82e89fcb6daf23a0d1a2b6e7af8ab06bf5c9b44858391287edc7ebceb6f61b"
                                    }
                                ]
                            }
                        ],
                        "constructorArguments": "",
                        "name": "execute",
                        "returnParams": [],
                        "signature": "execute((bytes,bytes))"
                    },
                    "errorInfo": "",
                    "fromAddress": "0x2008b6c3d07b061a84f790c035c2f6dc11a0be70",
                    "gasUsed": 177588,
                    "id": 0,
                    "methodDecoded": true,
                    "operation": "CALL",
                    "output": "",
                    "revert": false,
                    "revertMessage": "",
                    "selector": "0x3f62192e",
                    "status": true,
                    "value": "0"
                },
                "nodeType": 0
            },
            "1": {
                "invocation": {
                    "address": "0x6000da47483062a0d734ba3dc7576ce6a0b645c4",
                    "callData": "0x000000000000000000000000000000000000000000000000000000000000004000000000000000000000000000000000000000000000000000000000000003e00000000000000000000000000000000000000000000000000000000000000040000000000000000000000000000000000000000000000000000000000000032000000000000000000000000000000000000000000000000000000000000002c00000000000000000000000000000000000000000000000000000000000000020000000000000000000000000000000000000000000000000000000000000012000000000000000000000000000000000000000000000000000000000655a41c400000000000000000000000000000000000000000000000000000000655a42000000000000000000000000003b9260a928d30f2a069572805fbb6880fc719a1900000000000000000000000000000000000000000000000000000000000000640000000000000000000000006982508145454ce325ddbe47a25d4ec3d231193300000000000000000000000000000000000000000100990fdc734e7621d5e72a00000000000000000000000000000000000000000100990fdc734e7621d5e72a00000000000000000000000000000000000000000000000000000000000002000000000000000000000000006000da47483062a0d734ba3dc7576ce6a0b645c4000000000000000000000000e7f0580804532bca7c0d702c345eba12b24fa339046832573866601e04df055d4f5317ba2246cfcd32284aa80f0c4b34c1f34b0000000000000000000000000000000000000000000000000000000000655a420c000000000000000000000000000000000000000000000000000000000000000000000000000000000000000000000000000000000000000000000000000000c00000000000000000000000000000000000000000000000000000000000000000000000000000000000000000000000000000000000000000000000000000000100000000000000000000000000000000000000000000000000000000000000000000000000000000000000000000000000000000000000000264c2b0e5f6c34e0000000000000000000000000000000000000000000000000246edbf08202ffa000000000000000000000000e7f0580804532bca7c0d702c345eba12b24fa339000000000000000000000000000000000000000000000000000000000000004192e92657489c511f4edebd54c9373b21cc6dbac20d0c32b44f016349b44ce32648bd82e89fcb6daf23a0d1a2b6e7af8ab06bf5c9b44858391287edc7ebceb6f61b000000000000000000000000000000000000000000000000000000000000000000000000000000000000000000000000000000000000000000000000000000",
                    "decodedMethod": {
                        "callParams": [
                            {
                                "name": "order",
                                "type": "(bytes,bytes)",
                                "value": [
                                    {
                                        "name": "order",
                                        "type": "bytes",
                                        "value": "0x0000000000000000000000000000000000000000000000000000000000000020000000000000000000000000000000000000000000000000000000000000012000000000000000000000000000000000000000000000000000000000655a41c400000000000000000000000000000000000000000000000000000000655a42000000000000000000000000003b9260a928d30f2a069572805fbb6880fc719a1900000000000000000000000000000000000000000000000000000000000000640000000000000000000000006982508145454ce325ddbe47a25d4ec3d231193300000000000000000000000000000000000000000100990fdc734e7621d5e72a00000000000000000000000000000000000000000100990fdc734e7621d5e72a00000000000000000000000000000000000000000000000000000000000002000000000000000000000000006000da47483062a0d734ba3dc7576ce6a0b645c4000000000000000000000000e7f0580804532bca7c0d702c345eba12b24fa339046832573866601e04df055d4f5317ba2246cfcd32284aa80f0c4b34c1f34b0000000000000000000000000000000000000000000000000000000000655a420c000000000000000000000000000000000000000000000000000000000000000000000000000000000000000000000000000000000000000000000000000000c00000000000000000000000000000000000000000000000000000000000000000000000000000000000000000000000000000000000000000000000000000000100000000000000000000000000000000000000000000000000000000000000000000000000000000000000000000000000000000000000000264c2b0e5f6c34e0000000000000000000000000000000000000000000000000246edbf08202ffa000000000000000000000000e7f0580804532bca7c0d702c345eba12b24fa339"
                                    },
                                    {
                                        "name": "sig",
                                        "type": "bytes",
                                        "value": "0x92e92657489c511f4edebd54c9373b21cc6dbac20d0c32b44f016349b44ce32648bd82e89fcb6daf23a0d1a2b6e7af8ab06bf5c9b44858391287edc7ebceb6f61b"
                                    }
                                ]
                            },
                            {
                                "name": "callbackData",
                                "type": "bytes",
                                "value": "0x"
                            }
                        ],
                        "constructorArguments": "",
                        "name": "executeWithCallback",
                        "returnParams": [],
                        "signature": "executeWithCallback((bytes,bytes),bytes)"
                    },
                    "errorInfo": "",
                    "fromAddress": "0x3b9260a928d30f2a069572805fbb6880fc719a19",
                    "gasUsed": 187626,
                    "id": 1,
                    "methodDecoded": true,
                    "operation": "CALL",
                    "output": "",
                    "revert": false,
                    "revertMessage": "",
                    "selector": "0x0d335884",
                    "status": true,
                    "value": "0"
                },
                "nodeType": 0
            },
            "10": {
                "invocation": {
                    "address": "0xc02aaa39b223fe8d0a0e5c4f27ead9083c756cc2",
                    "callData": "0x0000000000000000000000002008b6c3d07b061a84f790c035c2f6dc11a0be700000000000000000000000003b9260a928d30f2a069572805fbb6880fc719a190000000000000000000000000000000000000000000000000264c2b0e5f6c34e",
                    "decodedMethod": {
                        "callParams": [
                            {
                                "name": "src",
                                "type": "address",
                                "value": "0x2008b6c3d07b061a84f790c035c2f6dc11a0be70"
                            },
                            {
                                "name": "dst",
                                "type": "address",
                                "value": "0x3b9260a928d30f2a069572805fbb6880fc719a19"
                            },
                            {
                                "decimalAvailable": true,
                                "name": "wad",
                                "type": "uint256",
                                "value": "172,476,750,775,108,430"
                            }
                        ],
                        "constructorArguments": "",
                        "name": "transferFrom",
                        "returnParams": [
                            {
                                "name": "",
                                "type": "bool",
                                "value": true
                            }
                        ],
                        "signature": "transferFrom(address,address,uint256)"
                    },
                    "errorInfo": "",
                    "fromAddress": "0x3b9260a928d30f2a069572805fbb6880fc719a19",
                    "gasUsed": 32125,
                    "id": 10,
                    "methodDecoded": true,
                    "operation": "CALL",
                    "output": "0x0000000000000000000000000000000000000000000000000000000000000001",
                    "revert": false,
                    "revertMessage": "",
                    "selector": "0x23b872dd",
                    "status": true,
                    "value": "0"
                },
                "nodeType": 0
            },
            "11": {
                "event": {
                    "contract": "0xc02aaa39b223fe8d0a0e5c4f27ead9083c756cc2",
                    "decodedLog": {
                        "name": "Transfer",
                        "params": [
                            {
                                "name": "src",
                                "type": "address",
                                "value": "0x2008b6c3d07b061a84f790c035c2f6dc11a0be70"
                            },
                            {
                                "name": "dst",
                                "type": "address",
                                "value": "0x3b9260a928d30f2a069572805fbb6880fc719a19"
                            },
                            {
                                "decimalAvailable": true,
                                "name": "wad",
                                "type": "uint256",
                                "value": "172,476,750,775,108,430"
                            }
                        ],
                        "signature": "Transfer(address,address,uint256)"
                    },
                    "id": 11,
                    "logData": "0x0000000000000000000000000000000000000000000000000264c2b0e5f6c34e",
                    "logDecoded": true,
                    "operation": "EVENT",
                    "revert": false,
                    "status": true,
                    "topics": [
                        "0xddf252ad1be2c89b69c2b068fc378daa952ba7f163c4a11628f55a4df523b3ef",
                        "0x0000000000000000000000002008b6c3d07b061a84f790c035c2f6dc11a0be70",
                        "0x0000000000000000000000003b9260a928d30f2a069572805fbb6880fc719a19"
                    ]
                },
                "nodeType": 1
            },
            "12": {
                "invocation": {
                    "address": "0xc02aaa39b223fe8d0a0e5c4f27ead9083c756cc2",
                    "callData": "0x0000000000000000000000000000000000000000000000000264c2b0e5f6c34e",
                    "decodedMethod": {
                        "callParams": [
                            {
                                "name": "wad",
                                "type": "uint256",
                                "value": "172,476,750,775,108,430"
                            }
                        ],
                        "constructorArguments": "",
                        "name": "withdraw",
                        "returnParams": [],
                        "signature": "withdraw(uint256)"
                    },
                    "errorInfo": "",
                    "fromAddress": "0x3b9260a928d30f2a069572805fbb6880fc719a19",
                    "gasUsed": 9195,
                    "id": 12,
                    "methodDecoded": true,
                    "operation": "CALL",
                    "output": "",
                    "revert": false,
                    "revertMessage": "",
                    "selector": "0x2e1a7d4d",
                    "status": true,
                    "value": "0"
                },
                "nodeType": 0
            },
            "13": {
                "invocation": {
                    "address": "0x3b9260a928d30f2a069572805fbb6880fc719a19",
                    "callData": "0x",
                    "decodedMethod": null,
                    "errorInfo": "",
                    "fromAddress": "0xc02aaa39b223fe8d0a0e5c4f27ead9083c756cc2",
                    "gasUsed": 55,
                    "id": 13,
                    "methodDecoded": false,
                    "operation": "CALL",
                    "output": "",
                    "revert": false,
                    "revertMessage": "",
                    "selector": "fallback",
                    "status": true,
                    "value": "0.17247675077510843"
                },
                "nodeType": 0
            },
            "14": {
                "event": {
                    "contract": "0xc02aaa39b223fe8d0a0e5c4f27ead9083c756cc2",
                    "decodedLog": {
                        "name": "Withdrawal",
                        "params": [
                            {
                                "name": "src",
                                "type": "address",
                                "value": "0x3b9260a928d30f2a069572805fbb6880fc719a19"
                            },
                            {
                                "name": "wad",
                                "type": "uint256",
                                "value": "172,476,750,775,108,430"
                            }
                        ],
                        "signature": "Withdrawal(address,uint256)"
                    },
                    "id": 14,
                    "logData": "0x0000000000000000000000000000000000000000000000000264c2b0e5f6c34e",
                    "logDecoded": true,
                    "operation": "EVENT",
                    "revert": false,
                    "status": true,
                    "topics": [
                        "0x7fcf532c15f0a6db0bd6d0e038bea71d30d808c7d98cb3bf7268a95bf5081b65",
                        "0x0000000000000000000000003b9260a928d30f2a069572805fbb6880fc719a19"
                    ]
                },
                "nodeType": 1
            },
            "15": {
                "invocation": {
                    "address": "0x6000da47483062a0d734ba3dc7576ce6a0b645c4",
                    "callData": "0x",
                    "decodedMethod": null,
                    "errorInfo": "",
                    "fromAddress": "0x3b9260a928d30f2a069572805fbb6880fc719a19",
                    "gasUsed": 55,
                    "id": 15,
                    "methodDecoded": false,
                    "operation": "CALL",
                    "output": "",
                    "revert": false,
                    "revertMessage": "",
                    "selector": "fallback",
                    "status": true,
                    "value": "0.17247675077510843"
                },
                "nodeType": 0
            },
            "16": {
                "invocation": {
                    "address": "0xe7f0580804532bca7c0d702c345eba12b24fa339",
                    "callData": "0x",
                    "decodedMethod": null,
                    "errorInfo": "",
                    "fromAddress": "0x6000da47483062a0d734ba3dc7576ce6a0b645c4",
                    "gasUsed": 0,
                    "id": 16,
                    "methodDecoded": false,
                    "operation": "CALL",
                    "output": "",
                    "revert": false,
                    "revertMessage": "",
                    "selector": "fallback",
                    "status": true,
                    "value": "0.17247675077510843"
                },
                "nodeType": 0
            },
            "17": {
                "event": {
                    "contract": "0x6000da47483062a0d734ba3dc7576ce6a0b645c4",
                    "decodedLog": {
                        "name": "Fill",
                        "params": [
                            {
                                "name": "orderHash",
                                "type": "bytes32",
                                "value": "0x1c178f8722f7db2eabaf9b9736e51b32ff581098a9bbb8d45bf4c7a6d4a39879"
                            },
                            {
                                "name": "filler",
                                "type": "address",
                                "value": "0x3b9260a928d30f2a069572805fbb6880fc719a19"
                            },
                            {
                                "name": "swapper",
                                "type": "address",
                                "value": "0xe7f0580804532bca7c0d702c345eba12b24fa339"
                            },
                            {
                                "name": "nonce",
                                "type": "uint256",
                                "value": "1,993,350,927,842,320,248,200,628,466,797,521,283,604,426,927,486,955,444,647,918,499,856,546,745,088"
                            }
                        ],
                        "signature": "Fill(bytes32,address,address,uint256)"
                    },
                    "id": 17,
                    "logData": "0x046832573866601e04df055d4f5317ba2246cfcd32284aa80f0c4b34c1f34b00",
                    "logDecoded": true,
                    "operation": "EVENT",
                    "revert": false,
                    "status": true,
                    "topics": [
                        "0x78ad7ec0e9f89e74012afa58738b6b661c024cb0fd185ee2f616c0a28924bd66",
                        "0x1c178f8722f7db2eabaf9b9736e51b32ff581098a9bbb8d45bf4c7a6d4a39879",
                        "0x0000000000000000000000003b9260a928d30f2a069572805fbb6880fc719a19",
                        "0x000000000000000000000000e7f0580804532bca7c0d702c345eba12b24fa339"
                    ]
                },
                "nodeType": 1
            },
            "2": {
                "invocation": {
                    "address": "0x000000000022d473030f116ddee9f6b43ac78ba3",
                    "callData": "0x0000000000000000000000006982508145454ce325ddbe47a25d4ec3d231193300000000000000000000000000000000000000000100990fdc734e7621d5e72a046832573866601e04df055d4f5317ba2246cfcd32284aa80f0c4b34c1f34b0000000000000000000000000000000000000000000000000000000000655a420c0000000000000000000000003b9260a928d30f2a069572805fbb6880fc719a1900000000000000000000000000000000000000000100990fdc734e7621d5e72a000000000000000000000000e7f0580804532bca7c0d702c345eba12b24fa3391c178f8722f7db2eabaf9b9736e51b32ff581098a9bbb8d45bf4c7a6d4a398790000000000000000000000000000000000000000000000000000000000000140000000000000000000000000000000000000000000000000000000000000038000000000000000000000000000000000000000000000000000000000000002084578636c757369766544757463684f72646572207769746e6573732944757463684f7574707574286164647265737320746f6b656e2c75696e74323536207374617274416d6f756e742c75696e7432353620656e64416d6f756e742c6164647265737320726563697069656e74294578636c757369766544757463684f72646572284f72646572496e666f20696e666f2c75696e74323536206465636179537461727454696d652c75696e74323536206465636179456e6454696d652c61646472657373206578636c757369766546696c6c65722c75696e74323536206578636c757369766974794f766572726964654270732c6164647265737320696e707574546f6b656e2c75696e7432353620696e7075745374617274416d6f756e742c75696e7432353620696e707574456e64416d6f756e742c44757463684f75747075745b5d206f757470757473294f72646572496e666f28616464726573732072656163746f722c6164647265737320737761707065722c75696e74323536206e6f6e63652c75696e7432353620646561646c696e652c61646472657373206164646974696f6e616c56616c69646174696f6e436f6e74726163742c6279746573206164646974696f6e616c56616c69646174696f6e4461746129546f6b656e5065726d697373696f6e73286164647265737320746f6b656e2c75696e7432353620616d6f756e7429000000000000000000000000000000000000000000000000000000000000000000000000000000000000000000000000000000000000004192e92657489c511f4edebd54c9373b21cc6dbac20d0c32b44f016349b44ce32648bd82e89fcb6daf23a0d1a2b6e7af8ab06bf5c9b44858391287edc7ebceb6f61b00000000000000000000000000000000000000000000000000000000000000",
                    "decodedMethod": {
                        "callParams": [
                            {
                                "name": "permit",
                                "type": "((address,uint256),uint256,uint256)",
                                "value": [
                                    {
                                        "name": "permitted",
                                        "type": "(address,uint256)",
                                        "value": [
                                            {
                                                "name": "token",
                                                "type": "address",
                                                "value": "0x6982508145454ce325ddbe47a25d4ec3d2311933"
                                            },
                                            {
                                                "name": "amount",
                                                "type": "uint256",
                                                "value": "310,207,824,479,511,810,032,396,074"
                                            }
                                        ]
                                    },
                                    {
                                        "name": "nonce",
                                        "type": "uint256",
                                        "value": "1,993,350,927,842,320,248,200,628,466,797,521,283,604,426,927,486,955,444,647,918,499,856,546,745,088"
                                    },
                                    {
                                        "name": "deadline",
                                        "type": "uint256",
                                        "value": "1,700,413,964"
                                    }
                                ]
                            },
                            {
                                "name": "transferDetails",
                                "type": "(address,uint256)",
                                "value": [
                                    {
                                        "name": "to",
                                        "type": "address",
                                        "value": "0x3b9260a928d30f2a069572805fbb6880fc719a19"
                                    },
                                    {
                                        "name": "requestedAmount",
                                        "type": "uint256",
                                        "value": "310,207,824,479,511,810,032,396,074"
                                    }
                                ]
                            },
                            {
                                "name": "owner",
                                "type": "address",
                                "value": "0xe7f0580804532bca7c0d702c345eba12b24fa339"
                            },
                            {
                                "name": "witness",
                                "type": "bytes32",
                                "value": "0x1c178f8722f7db2eabaf9b9736e51b32ff581098a9bbb8d45bf4c7a6d4a39879"
                            },
                            {
                                "name": "witnessTypeString",
                                "type": "string",
                                "value": "ExclusiveDutchOrder witness)DutchOutput(address token,uint256 startAmount,uint256 endAmount,address recipient)ExclusiveDutchOrder(OrderInfo info,uint256 decayStartTime,uint256 decayEndTime,address exclusiveFiller,uint256 exclusivityOverrideBps,address inputToken,uint256 inputStartAmount,uint256 inputEndAmount,DutchOutput[] outputs)OrderInfo(address reactor,address swapper,uint256 nonce,uint256 deadline,address additionalValidationContract,bytes additionalValidationData)TokenPermissions(address token,uint256 amount)"
                            },
                            {
                                "name": "signature",
                                "type": "bytes",
                                "value": "0x92e92657489c511f4edebd54c9373b21cc6dbac20d0c32b44f016349b44ce32648bd82e89fcb6daf23a0d1a2b6e7af8ab06bf5c9b44858391287edc7ebceb6f61b"
                            }
                        ],
                        "constructorArguments": "",
                        "name": "permitWitnessTransferFrom",
                        "returnParams": [],
                        "signature": "permitWitnessTransferFrom(((address,uint256),uint256,uint256),(address,uint256),address,bytes32,string,bytes)"
                    },
                    "errorInfo": "",
                    "fromAddress": "0x6000da47483062a0d734ba3dc7576ce6a0b645c4",
                    "gasUsed": 80476,
                    "id": 2,
                    "methodDecoded": true,
                    "operation": "CALL",
                    "output": "",
                    "revert": false,
                    "revertMessage": "",
                    "selector": "0x137c29fe",
                    "status": true,
                    "value": "0"
                },
                "nodeType": 0
            },
            "3": {
                "invocation": {
                    "address": "0x0000000000000000000000000000000000000001",
                    "callData": "0x46bd3bec3f14befe552b8b3f8c5c1decd47ffdc910be8f817f47f17d000000000000000000000000000000000000000000000000000000000000001b92e92657489c511f4edebd54c9373b21cc6dbac20d0c32b44f016349b44ce32648bd82e89fcb6daf23a0d1a2b6e7af8ab06bf5c9b44858391287edc7ebceb6f6",
                    "decodedMethod": {
                        "callParams": [
                            {
                                "name": "hash",
                                "type": "bytes32",
                                "value": "0x7b3d5add46bd3bec3f14befe552b8b3f8c5c1decd47ffdc910be8f817f47f17d"
                            },
                            {
                                "name": "v",
                                "type": "uint256",
                                "value": "27"
                            },
                            {
                                "name": "r",
                                "type": "bytes32",
                                "value": "0x92e92657489c511f4edebd54c9373b21cc6dbac20d0c32b44f016349b44ce326"
                            },
                            {
                                "name": "s",
                                "type": "bytes32",
                                "value": "0x48bd82e89fcb6daf23a0d1a2b6e7af8ab06bf5c9b44858391287edc7ebceb6f6"
                            }
                        ],
                        "constructorArguments": "",
                        "name": "ecrecover",
                        "returnParams": [
                            {
                                "name": "",
                                "type": "address",
                                "value": "0xe7f0580804532bca7c0d702c345eba12b24fa339"
                            }
                        ],
                        "signature": "ecrecover(bytes32,uint256,bytes32,bytes32)"
                    },
                    "errorInfo": "",
                    "fromAddress": "0x000000000022d473030f116ddee9f6b43ac78ba3",
                    "gasUsed": 3000,
                    "id": 3,
                    "methodDecoded": true,
                    "operation": "STATICCALL",
                    "output": "0x000000000000000000000000e7f0580804532bca7c0d702c345eba12b24fa339",
                    "revert": false,
                    "revertMessage": "",
                    "selector": "0x7b3d5add",
                    "status": true,
                    "value": "0"
                },
                "nodeType": 0
            },
            "4": {
                "invocation": {
                    "address": "0x6982508145454ce325ddbe47a25d4ec3d2311933",
                    "callData": "0x000000000000000000000000e7f0580804532bca7c0d702c345eba12b24fa3390000000000000000000000003b9260a928d30f2a069572805fbb6880fc719a1900000000000000000000000000000000000000000100990fdc734e7621d5e72a",
                    "decodedMethod": {
                        "callParams": [
                            {
                                "name": "sender",
                                "type": "address",
                                "value": "0xe7f0580804532bca7c0d702c345eba12b24fa339"
                            },
                            {
                                "name": "recipient",
                                "type": "address",
                                "value": "0x3b9260a928d30f2a069572805fbb6880fc719a19"
                            },
                            {
                                "decimalAvailable": true,
                                "name": "amount",
                                "type": "uint256",
                                "value": "310,207,824,479,511,810,032,396,074"
                            }
                        ],
                        "constructorArguments": "",
                        "name": "transferFrom",
                        "returnParams": [
                            {
                                "name": "",
                                "type": "bool",
                                "value": true
                            }
                        ],
                        "signature": "transferFrom(address,address,uint256)"
                    },
                    "errorInfo": "",
                    "fromAddress": "0x000000000022d473030f116ddee9f6b43ac78ba3",
                    "gasUsed": 46245,
                    "id": 4,
                    "methodDecoded": true,
                    "operation": "CALL",
                    "output": "0x0000000000000000000000000000000000000000000000000000000000000001",
                    "revert": false,
                    "revertMessage": "",
                    "selector": "0x23b872dd",
                    "status": true,
                    "value": "0"
                },
                "nodeType": 0
            },
            "5": {
                "event": {
                    "contract": "0x6982508145454ce325ddbe47a25d4ec3d2311933",
                    "decodedLog": {
                        "name": "Transfer",
                        "params": [
                            {
                                "name": "from",
                                "type": "address",
                                "value": "0xe7f0580804532bca7c0d702c345eba12b24fa339"
                            },
                            {
                                "name": "to",
                                "type": "address",
                                "value": "0x3b9260a928d30f2a069572805fbb6880fc719a19"
                            },
                            {
                                "decimalAvailable": true,
                                "name": "value",
                                "type": "uint256",
                                "value": "310,207,824,479,511,810,032,396,074"
                            }
                        ],
                        "signature": "Transfer(address,address,uint256)"
                    },
                    "id": 5,
                    "logData": "0x00000000000000000000000000000000000000000100990fdc734e7621d5e72a",
                    "logDecoded": true,
                    "operation": "EVENT",
                    "revert": false,
                    "status": true,
                    "topics": [
                        "0xddf252ad1be2c89b69c2b068fc378daa952ba7f163c4a11628f55a4df523b3ef",
                        "0x000000000000000000000000e7f0580804532bca7c0d702c345eba12b24fa339",
                        "0x0000000000000000000000003b9260a928d30f2a069572805fbb6880fc719a19"
                    ]
                },
                "nodeType": 1
            },
            "6": {
                "event": {
                    "contract": "0x6982508145454ce325ddbe47a25d4ec3d2311933",
                    "decodedLog": {
                        "name": "Approval",
                        "params": [
                            {
                                "name": "owner",
                                "type": "address",
                                "value": "0xe7f0580804532bca7c0d702c345eba12b24fa339"
                            },
                            {
                                "name": "spender",
                                "type": "address",
                                "value": "0x000000000022d473030f116ddee9f6b43ac78ba3"
                            },
                            {
                                "decimalAvailable": true,
                                "name": "value",
                                "type": "uint256",
                                "value": "0"
                            }
                        ],
                        "signature": "Approval(address,address,uint256)"
                    },
                    "id": 6,
                    "logData": "0x0000000000000000000000000000000000000000000000000000000000000000",
                    "logDecoded": true,
                    "operation": "EVENT",
                    "revert": false,
                    "status": true,
                    "topics": [
                        "0x8c5be1e5ebec7d5bd14f71427d1e84f3dd0314c0f7b2291e5b200ac8c7c3b925",
                        "0x000000000000000000000000e7f0580804532bca7c0d702c345eba12b24fa339",
                        "0x000000000000000000000000000000000022d473030f116ddee9f6b43ac78ba3"
                    ]
                },
                "nodeType": 1
            },
            "7": {
                "invocation": {
                    "address": "0x3b9260a928d30f2a069572805fbb6880fc719a19",
                    "callData": "0x000000000000000000000000000000000000000000000000000000000000004000000000000000000000000000000000000000000000000000000000000003400000000000000000000000000000000000000000000000000000000000000001000000000000000000000000000000000000000000000000000000000000002000000000000000000000000000000000000000000000000000000000000000e00000000000000000000000006982508145454ce325ddbe47a25d4ec3d231193300000000000000000000000000000000000000000100990fdc734e7621d5e72a00000000000000000000000000000000000000000100990fdc734e7621d5e72a00000000000000000000000000000000000000000000000000000000000001c000000000000000000000000000000000000000000000000000000000000002401c178f8722f7db2eabaf9b9736e51b32ff581098a9bbb8d45bf4c7a6d4a398790000000000000000000000006000da47483062a0d734ba3dc7576ce6a0b645c4000000000000000000000000e7f0580804532bca7c0d702c345eba12b24fa339046832573866601e04df055d4f5317ba2246cfcd32284aa80f0c4b34c1f34b0000000000000000000000000000000000000000000000000000000000655a420c000000000000000000000000000000000000000000000000000000000000000000000000000000000000000000000000000000000000000000000000000000c00000000000000000000000000000000000000000000000000000000000000000000000000000000000000000000000000000000000000000000000000000000100000000000000000000000000000000000000000000000000000000000000000000000000000000000000000000000000000000000000000264c2b0e5f6c34e000000000000000000000000e7f0580804532bca7c0d702c345eba12b24fa339000000000000000000000000000000000000000000000000000000000000004192e92657489c511f4edebd54c9373b21cc6dbac20d0c32b44f016349b44ce32648bd82e89fcb6daf23a0d1a2b6e7af8ab06bf5c9b44858391287edc7ebceb6f61b000000000000000000000000000000000000000000000000000000000000000000000000000000000000000000000000000000000000000000000000000000",
                    "decodedMethod": {
                        "callParams": [
                            {
                                "name": "resolvedOrders",
                                "type": "((address,address,uint256,uint256,address,bytes),(address,uint256,uint256),(address,uint256,address)[],bytes,bytes32)[]",
                                "value": [
                                    [
                                        {
                                            "name": "info",
                                            "type": "(address,address,uint256,uint256,address,bytes)",
                                            "value": [
                                                {
                                                    "name": "reactor",
                                                    "type": "address",
                                                    "value": "0x6000da47483062a0d734ba3dc7576ce6a0b645c4"
                                                },
                                                {
                                                    "name": "swapper",
                                                    "type": "address",
                                                    "value": "0xe7f0580804532bca7c0d702c345eba12b24fa339"
                                                },
                                                {
                                                    "name": "nonce",
                                                    "type": "uint256",
                                                    "value": "1,993,350,927,842,320,248,200,628,466,797,521,283,604,426,927,486,955,444,647,918,499,856,546,745,088"
                                                },
                                                {
                                                    "name": "deadline",
                                                    "type": "uint256",
                                                    "value": "1,700,413,964"
                                                },
                                                {
                                                    "name": "additionalValidationContract",
                                                    "type": "address",
                                                    "value": "0x0000000000000000000000000000000000000000"
                                                },
                                                {
                                                    "name": "additionalValidationData",
                                                    "type": "bytes",
                                                    "value": "0x"
                                                }
                                            ]
                                        },
                                        {
                                            "name": "input",
                                            "type": "(address,uint256,uint256)",
                                            "value": [
                                                {
                                                    "name": "token",
                                                    "type": "address",
                                                    "value": "0x6982508145454ce325ddbe47a25d4ec3d2311933"
                                                },
                                                {
                                                    "name": "amount",
                                                    "type": "uint256",
                                                    "value": "310,207,824,479,511,810,032,396,074"
                                                },
                                                {
                                                    "name": "maxAmount",
                                                    "type": "uint256",
                                                    "value": "310,207,824,479,511,810,032,396,074"
                                                }
                                            ]
                                        },
                                        {
                                            "name": "outputs",
                                            "type": "(address,uint256,address)[]",
                                            "value": [
                                                [
                                                    {
                                                        "name": "token",
                                                        "type": "address",
                                                        "value": "0x0000000000000000000000000000000000000000"
                                                    },
                                                    {
                                                        "name": "amount",
                                                        "type": "uint256",
                                                        "value": "172,476,750,775,108,430"
                                                    },
                                                    {
                                                        "name": "recipient",
                                                        "type": "address",
                                                        "value": "0xe7f0580804532bca7c0d702c345eba12b24fa339"
                                                    }
                                                ]
                                            ]
                                        },
                                        {
                                            "name": "sig",
                                            "type": "bytes",
                                            "value": "0x92e92657489c511f4edebd54c9373b21cc6dbac20d0c32b44f016349b44ce32648bd82e89fcb6daf23a0d1a2b6e7af8ab06bf5c9b44858391287edc7ebceb6f61b"
                                        },
                                        {
                                            "name": "hash",
                                            "type": "bytes32",
                                            "value": "0x1c178f8722f7db2eabaf9b9736e51b32ff581098a9bbb8d45bf4c7a6d4a39879"
                                        }
                                    ]
                                ]
                            },
                            {
                                "name": "callbackData",
                                "type": "bytes",
                                "value": "0x"
                            }
                        ],
                        "constructorArguments": "",
                        "name": "reactorCallback",
                        "returnParams": [],
                        "signature": "reactorCallback(((address,address,uint256,uint256,address,bytes),(address,uint256,uint256),(address,uint256,address)[],bytes,bytes32)[],bytes)"
                    },
                    "errorInfo": "",
                    "fromAddress": "0x6000da47483062a0d734ba3dc7576ce6a0b645c4",
                    "gasUsed": 69451,
                    "id": 7,
                    "methodDecoded": true,
                    "operation": "CALL",
                    "output": "",
                    "revert": false,
                    "revertMessage": "",
                    "selector": "0x585da628",
                    "status": true,
                    "value": "0"
                },
                "nodeType": 0
            },
            "8": {
                "invocation": {
                    "address": "0x6982508145454ce325ddbe47a25d4ec3d2311933",
                    "callData": "0x0000000000000000000000002008b6c3d07b061a84f790c035c2f6dc11a0be7000000000000000000000000000000000000000000100990fdc734e7621d5e72a",
                    "decodedMethod": {
                        "callParams": [
                            {
                                "name": "recipient",
                                "type": "address",
                                "value": "0x2008b6c3d07b061a84f790c035c2f6dc11a0be70"
                            },
                            {
                                "decimalAvailable": true,
                                "name": "amount",
                                "type": "uint256",
                                "value": "310,207,824,479,511,810,032,396,074"
                            }
                        ],
                        "constructorArguments": "",
                        "name": "transfer",
                        "returnParams": [
                            {
                                "name": "",
                                "type": "bool",
                                "value": true
                            }
                        ],
                        "signature": "transfer(address,uint256)"
                    },
                    "errorInfo": "",
                    "fromAddress": "0x3b9260a928d30f2a069572805fbb6880fc719a19",
                    "gasUsed": 10906,
                    "id": 8,
                    "methodDecoded": true,
                    "operation": "CALL",
                    "output": "0x0000000000000000000000000000000000000000000000000000000000000001",
                    "revert": false,
                    "revertMessage": "",
                    "selector": "0xa9059cbb",
                    "status": true,
                    "value": "0"
                },
                "nodeType": 0
            },
            "9": {
                "event": {
                    "contract": "0x6982508145454ce325ddbe47a25d4ec3d2311933",
                    "decodedLog": {
                        "name": "Transfer",
                        "params": [
                            {
                                "name": "from",
                                "type": "address",
                                "value": "0x3b9260a928d30f2a069572805fbb6880fc719a19"
                            },
                            {
                                "name": "to",
                                "type": "address",
                                "value": "0x2008b6c3d07b061a84f790c035c2f6dc11a0be70"
                            },
                            {
                                "decimalAvailable": true,
                                "name": "value",
                                "type": "uint256",
                                "value": "310,207,824,479,511,810,032,396,074"
                            }
                        ],
                        "signature": "Transfer(address,address,uint256)"
                    },
                    "id": 9,
                    "logData": "0x00000000000000000000000000000000000000000100990fdc734e7621d5e72a",
                    "logDecoded": true,
                    "operation": "EVENT",
                    "revert": false,
                    "status": true,
                    "topics": [
                        "0xddf252ad1be2c89b69c2b068fc378daa952ba7f163c4a11628f55a4df523b3ef",
                        "0x0000000000000000000000003b9260a928d30f2a069572805fbb6880fc719a19",
                        "0x0000000000000000000000002008b6c3d07b061a84f790c035c2f6dc11a0be70"
                    ]
                },
                "nodeType": 1
            }
        },
        "gasFlame": [
            {
                "children": [
                    {
                        "children": [
                            {
                                "children": [],
                                "depth": 0,
                                "name": "Initial Gas",
                                "value": 28000
                            },
                            {
                                "children": [
                                    {
                                        "children": [
                                            {
                                                "children": [
                                                    {
                                                        "children": [],
                                                        "depth": 3,
                                                        "name": "ecrecover",
                                                        "value": 3000
                                                    },
                                                    {
                                                        "children": [],
                                                        "depth": 3,
                                                        "name": "transferFrom",
                                                        "value": 46245
                                                    }
                                                ],
                                                "depth": 2,
                                                "name": "permitWitnessTransferFrom",
                                                "value": 80476
                                            },
                                            {
                                                "children": [
                                                    {
                                                        "children": [],
                                                        "depth": 3,
                                                        "name": "transfer",
                                                        "value": 10906
                                                    },
                                                    {
                                                        "children": [],
                                                        "depth": 3,
                                                        "name": "transferFrom",
                                                        "value": 32125
                                                    },
                                                    {
                                                        "children": [
                                                            {
                                                                "children": [],
                                                                "depth": 4,
                                                                "name": "fallback",
                                                                "value": 55
                                                            }
                                                        ],
                                                        "depth": 3,
                                                        "name": "withdraw",
                                                        "value": 9195
                                                    },
                                                    {
                                                        "children": [],
                                                        "depth": 3,
                                                        "name": "fallback",
                                                        "value": 55
                                                    }
                                                ],
                                                "depth": 2,
                                                "name": "reactorCallback",
                                                "value": 69451
                                            },
                                            {
                                                "children": [],
                                                "depth": 2,
                                                "name": "fallback",
                                                "value": 0
                                            }
                                        ],
                                        "depth": 1,
                                        "name": "executeWithCallback",
                                        "value": 187626
                                    }
                                ],
                                "depth": 0,
                                "name": "Executed Gas",
                                "value": 193984
                            }
                        ],
                        "depth": -1,
                        "name": "Actual Gas Used",
                        "value": 177588
                    },
                    {
                        "children": [],
                        "depth": -1,
                        "name": "Refunded Gas",
                        "value": 44396
                    }
                ],
                "depth": -2,
                "name": "Total Gas",
                "value": 221984
            }
        ],
        "isConfirmed": true,
        "mainTrace": [
            {
                "children": [
                    {
                        "children": [
                            {
                                "children": [
                                    {
                                        "children": [
                                            {
                                                "children": [],
                                                "depth": 3,
                                                "id": 3,
                                                "order": 3
                                            },
                                            {
                                                "children": [
                                                    {
                                                        "children": [],
                                                        "depth": 4,
                                                        "id": 5,
                                                        "order": 5
                                                    },
                                                    {
                                                        "children": [],
                                                        "depth": 4,
                                                        "id": 6,
                                                        "order": 6
                                                    }
                                                ],
                                                "depth": 3,
                                                "id": 4,
                                                "order": 4
                                            }
                                        ],
                                        "depth": 2,
                                        "id": 2,
                                        "order": 2
                                    },
                                    {
                                        "children": [
                                            {
                                                "children": [
                                                    {
                                                        "children": [],
                                                        "depth": 4,
                                                        "id": 9,
                                                        "order": 9
                                                    }
                                                ],
                                                "depth": 3,
                                                "id": 8,
                                                "order": 8
                                            },
                                            {
                                                "children": [
                                                    {
                                                        "children": [],
                                                        "depth": 4,
                                                        "id": 11,
                                                        "order": 11
                                                    }
                                                ],
                                                "depth": 3,
                                                "id": 10,
                                                "order": 10
                                            },
                                            {
                                                "children": [
                                                    {
                                                        "children": [],
                                                        "depth": 4,
                                                        "id": 13,
                                                        "order": 13
                                                    },
                                                    {
                                                        "children": [],
                                                        "depth": 4,
                                                        "id": 14,
                                                        "order": 14
                                                    }
                                                ],
                                                "depth": 3,
                                                "id": 12,
                                                "order": 12
                                            },
                                            {
                                                "children": [],
                                                "depth": 3,
                                                "id": 15,
                                                "order": 15
                                            }
                                        ],
                                        "depth": 2,
                                        "id": 7,
                                        "order": 7
                                    },
                                    {
                                        "children": [],
                                        "depth": 2,
                                        "id": 16,
                                        "order": 16
                                    },
                                    {
                                        "children": [],
                                        "depth": 2,
                                        "id": 17,
                                        "order": 17
                                    }
                                ],
                                "depth": 1,
                                "id": 1,
                                "order": 1
                            }
                        ],
                        "depth": 0,
                        "id": 0,
                        "order": 0
                    }
                ],
                "depth": -1,
                "id": -1,
                "order": -1
            }
        ],
        "mainTraceNodeCount": 18,
        "parentIdMap": {
            "0": -1,
            "1": 0,
            "10": 7,
            "11": 10,
            "12": 7,
            "13": 12,
            "14": 12,
            "15": 7,
            "16": 1,
            "17": 1,
            "2": 1,
            "3": 2,
            "4": 2,
            "5": 4,
            "6": 4,
            "7": 1,
            "8": 7,
            "9": 8
        },
        "tidyTrace": [
            {
                "children": [
                    {
                        "children": [
                            {
                                "children": [
                                    {
                                        "children": [
                                            {
                                                "children": [
                                                    {
                                                        "children": [],
                                                        "depth": 4,
                                                        "id": 5,
                                                        "order": 5
                                                    },
                                                    {
                                                        "children": [],
                                                        "depth": 4,
                                                        "id": 6,
                                                        "order": 6
                                                    }
                                                ],
                                                "depth": 3,
                                                "id": 4,
                                                "order": 4
                                            }
                                        ],
                                        "depth": 2,
                                        "id": 2,
                                        "order": 2
                                    },
                                    {
                                        "children": [
                                            {
                                                "children": [
                                                    {
                                                        "children": [],
                                                        "depth": 4,
                                                        "id": 9,
                                                        "order": 9
                                                    }
                                                ],
                                                "depth": 3,
                                                "id": 8,
                                                "order": 8
                                            },
                                            {
                                                "children": [
                                                    {
                                                        "children": [],
                                                        "depth": 4,
                                                        "id": 11,
                                                        "order": 11
                                                    }
                                                ],
                                                "depth": 3,
                                                "id": 10,
                                                "order": 10
                                            },
                                            {
                                                "children": [
                                                    {
                                                        "children": [],
                                                        "depth": 4,
                                                        "id": 13,
                                                        "order": 13
                                                    },
                                                    {
                                                        "children": [],
                                                        "depth": 4,
                                                        "id": 14,
                                                        "order": 14
                                                    }
                                                ],
                                                "depth": 3,
                                                "id": 12,
                                                "order": 12
                                            },
                                            {
                                                "children": [],
                                                "depth": 3,
                                                "id": 15,
                                                "order": 15
                                            }
                                        ],
                                        "depth": 2,
                                        "id": 7,
                                        "order": 7
                                    },
                                    {
                                        "children": [],
                                        "depth": 2,
                                        "id": 16,
                                        "order": 16
                                    },
                                    {
                                        "children": [],
                                        "depth": 2,
                                        "id": 17,
                                        "order": 17
                                    }
                                ],
                                "depth": 1,
                                "id": 1,
                                "order": 1
                            }
                        ],
                        "depth": 0,
                        "id": 0,
                        "order": 0
                    }
                ],
                "depth": -1,
                "id": -1,
                "order": -1
            }
        ],
        "tidyTraceNodeCount": 17
    },
    "state_change": {
        "stateChanges": [
            {
                "address": "0x000000000022d473030f116ddee9f6b43ac78ba3",
                "erc": "",
                "slots": [
                    {
                        "current": "0x0000000000000000000000000000000000000000000000000000000000000001",
                        "key": "0xf13676aca323956df3362a7b0e8b09037c58d8f0fa6c3adc090705ff44f99459",
                        "prev": "0x0000000000000000000000000000000000000000000000000000000000000000"
                    }
                ],
                "storageVariables": [
                    {
                        "name": "nonceBitmap",
                        "type": "mapping(address => mapping(uint256 => uint256))",
                        "value": {
                            "pairs": [
                                {
                                    "key": "0xe7f0580804532bca7c0d702c345eba12b24fa339",
                                    "value": {
                                        "pairs": [
                                            {
                                                "key": "7786527061884063469533704948427817514079792685495919705655931640064635723",
                                                "value": {
                                                    "current": "1",
                                                    "prev": "0",
                                                    "typeTag": 1
                                                }
                                            }
                                        ],
                                        "typeTag": 4
                                    }
                                }
                            ],
                            "typeTag": 4
                        }
                    }
                ]
            },
            {
                "address": "0x6982508145454ce325ddbe47a25d4ec3d2311933",
                "erc": "ERC-20",
                "slots": [
                    {
                        "current": "0x0000000000000000000000000000000000000000000000000000000000000000",
                        "key": "0x9882d0716a9a63da4c90fa429dec91b962c01559f5c5ae1c81da14b6013bea76",
                        "prev": "0x00000000000000000000000000000000000000000100990fdc734e7621d5e72a"
                    },
                    {
                        "current": "0x0000000000000000000000000000000000000000000000000000000000000000",
                        "key": "0xaa2fab074a013dbf421e4334d6579ec126b981c993feff62032a71789ae63223",
                        "prev": "0x00000000000000000000000000000000000000000100990fdc734e7621d5e72a"
                    },
                    {
                        "current": "0x0000000000000000000000000000000000000000ada4f9e14a189117d77c5621",
                        "key": "0xd330d89cdd04aee2394d3770fdb76e861e5bf5af7f5638ebd8b9cb9dfa87520f",
                        "prev": "0x0000000000000000000000000000000000000000aca460d16da542a1b5a66ef7"
                    }
                ],
                "storageVariables": [
                    {
                        "name": "_balances",
                        "type": "mapping(address => uint256)",
                        "value": {
                            "pairs": [
                                {
                                    "key": "0x2008b6c3d07b061a84f790c035c2f6dc11a0be70",
                                    "value": {
                                        "current": "53740350558620324090179507745",
                                        "prev": "53430142734140812280147111671",
                                        "typeTag": 1
                                    }
                                },
                                {
                                    "key": "0xe7f0580804532bca7c0d702c345eba12b24fa339",
                                    "value": {
                                        "current": "0",
                                        "prev": "310207824479511810032396074",
                                        "typeTag": 1
                                    }
                                }
                            ],
                            "typeTag": 4
                        }
                    },
                    {
                        "name": "_allowances",
                        "type": "mapping(address => mapping(address => uint256))",
                        "value": {
                            "pairs": [
                                {
                                    "key": "0xe7f0580804532bca7c0d702c345eba12b24fa339",
                                    "value": {
                                        "pairs": [
                                            {
                                                "key": "0x000000000022d473030f116ddee9f6b43ac78ba3",
                                                "value": {
                                                    "current": "0",
                                                    "prev": "310207824479511810032396074",
                                                    "typeTag": 1
                                                }
                                            }
                                        ],
                                        "typeTag": 4
                                    }
                                }
                            ],
                            "typeTag": 4
                        }
                    }
                ]
            },
            {
                "address": "0xc02aaa39b223fe8d0a0e5c4f27ead9083c756cc2",
                "erc": "ERC-20",
                "slots": [
                    {
                        "current": "0x0000000000000000000000000000000000000000000000151ff4f208c819c402",
                        "key": "0x6a4eff247b7329536ddf871ed3dd8d4d7d9d28d29ceac00d4f1f45bc6a92ef2c",
                        "prev": "0x0000000000000000000000000000000000000000000000152259b4b9ae108750"
                    }
                ],
                "storageVariables": [
                    {
                        "name": "balanceOf",
                        "type": "mapping(address => uint256)",
                        "value": {
                            "pairs": [
                                {
                                    "key": "0x2008b6c3d07b061a84f790c035c2f6dc11a0be70",
                                    "value": {
                                        "current": "389684356976924541954",
                                        "prev": "389856833727699650384",
                                        "typeTag": 1
                                    }
                                }
                            ],
                            "typeTag": 4
                        }
                    }
                ]
            }
        ]
    }
}