{
    "balance_change": {
        "balanceChanges": [
            {
                "account": "0x50d13603eb20fe0246a8e7bb37f2f05de864685e",
                "assets": [
                    {
                        "address": "0x8457ca5040ad67fdebbcc8edce889a335bc0fbfb",
                        "amount": "333",
                        "iconUrl": "",
                        "isERC1155": false,
                        "isERC721": false,
                        "sign": false,
                        "value": "127.00620000000000559"
                    }
                ]
            },
            {
                "account": "0x3a6d3f805e4148c984e82cf58302d8592beeb38d",
                "assets": [
                    {
                        "address": "0x8457ca5040ad67fdebbcc8edce889a335bc0fbfb",
                        "amount": "333",
                        "iconUrl": "",
                        "isERC1155": false,
                        "isERC721": false,
                        "sign": true,
                        "value": "127.00620000000000559"
                    }
                ]
            }
        ]
    },
    "profile": {
        "basic_info": {
            "baseFee": "12.523499762",
            "blockNumber": 19098367,
            "callData": "0xa9059cbb0000000000000000000000003a6d3f805e4148c984e82cf58302d8592beeb38d0000000000000000000000000000000000000000000000120d4da7b0bd140000",
            "debugEnable": true,
            "errorInfo": "",
            "eventCount": 1,
            "feeRecipient": "0x95222290dd7278aa3ddd389cc1e1d165cc4bafe5",
            "formatValue": "0",
            "gasLimit": 80901,
            "gasPrice": "12.573499762",
            "gasUsed": 49134,
            "intTxnCount": 0,
            "internalRevert": false,
            "internalRevertMessage": "",
            "isContractCreation": false,
            "isFlashloan": false,
            "maxFee": "13",
            "nonce": 4,
            "overwritedBlockNumber": -1,
            "priorityFee": "0.05",
            "receiver": "0x8457ca5040ad67fdebbcc8edce889a335bc0fbfb",
            "revertMessage": "",
            "sender": "0x50d13603eb20fe0246a8e7bb37f2f05de864685e",
            "simulationEnable": true,
            "sourceTxnHash": "0xc7dac491fac41d6a444b1ac86b2f71cc74299af525a23d33d75d85a64603c7ed",
            "status": true,
            "timestamp": "2024-01-27T13:59:23Z",
            "transactionFee": "0.000617786337306108",
            "txnHash": "0xc7dac491fac41d6a444b1ac86b2f71cc74299af525a23d33d75d85a64603c7ed",
            "txnIndex": 152,
            "type": 2,
            "value": "0"
        },
        "fund_flow": [
            {
                "amount": "333",
                "from": "0x50d13603eb20fe0246a8e7bb37f2f05de864685e",
                "id": 1,
                "isERC1155": false,
                "isERC721": false,
                "isReverted": false,
                "order": 1,
                "to": "0x3a6d3f805e4148c984e82cf58302d8592beeb38d",
                "token": "0x8457ca5040ad67fdebbcc8edce889a335bc0fbfb"
            }
        ],
        "token_infos": [
            {
                "address": "0x8457ca5040ad67fdebbcc8edce889a335bc0fbfb",
                "decimals": 18
            },
            {
                "address": "0xc02aaa39b223fe8d0a0e5c4f27ead9083c756cc2",
                "decimals": 18
            },
            {
                "address": "0xeeeeeeeeeeeeeeeeeeeeeeeeeeeeeeeeeeeeeeee",
                "decimals": 18
            }
        ]
    },
    "address_label": {
        "labels": [
            {
                "address": "0xeeeeeeeeeeeeeeeeeeeeeeeeeeeeeeeeeeeeeeee",
                "label": "Ether"
            },
            {
                "address": "0x8457ca5040ad67fdebbcc8edce889a335bc0fbfb",
                "label": "AltLayer: ALT Token"
            },
            {
                "address": "0x0000000000000000000000000000000000000001",
                "label": "Precompiled"
            },
            {
                "address": "0x0000000000000000000000000000000000000002",
                "label": "Precompiled"
            },
            {
                "address": "0x0000000000000000000000000000000000000003",
                "label": "Precompiled"
            },
            {
                "address": "0x0000000000000000000000000000000000000004",
                "label": "Precompiled"
            }
        ]
    },
    "trace": {
        "accountLabels": null,
        "dataMap": {
            "-1": {
                "invocation": {
                    "address": "0x50d13603eb20fe0246a8e7bb37f2f05de864685e",
                    "callData": "",
                    "decodedMethod": null,
                    "errorInfo": "",
                    "fromAddress": "",
                    "gasUsed": 0,
                    "id": -1,
                    "methodDecoded": false,
                    "operation": "",
                    "output": "",
                    "revert": false,
                    "revertMessage": "",
                    "selector": "",
                    "status": false,
                    "value": ""
                },
                "nodeType": 0
            },
            "0": {
                "invocation": {
                    "address": "0x8457ca5040ad67fdebbcc8edce889a335bc0fbfb",
                    "callData": "0x0000000000000000000000003a6d3f805e4148c984e82cf58302d8592beeb38d0000000000000000000000000000000000000000000000120d4da7b0bd140000",
                    "decodedMethod": {
                        "callParams": [
                            {
                                "name": "to",
                                "type": "address",
                                "value": "0x3a6d3f805e4148c984e82cf58302d8592beeb38d"
                            },
                            {
                                "decimalAvailable": true,
                                "name": "value",
                                "type": "uint256",
                                "value": "333,000,000,000,000,000,000"
                            }
                        ],
                        "constructorArguments": "",
                        "name": "transfer",
                        "returnParams": [
                            {
                                "name": "",
                                "type": "bool",
                                "value": true
                            }
                        ],
                        "signature": "transfer(address,uint256)"
                    },
                    "errorInfo": "",
                    "fromAddress": "0x50d13603eb20fe0246a8e7bb37f2f05de864685e",
                    "gasUsed": 49134,
                    "id": 0,
                    "methodDecoded": true,
                    "operation": "CALL",
                    "output": "0x0000000000000000000000000000000000000000000000000000000000000001",
                    "revert": false,
                    "revertMessage": "",
                    "selector": "0xa9059cbb",
                    "status": true,
                    "value": "0"
                },
                "nodeType": 0
            },
            "1": {
                "event": {
                    "contract": "0x8457ca5040ad67fdebbcc8edce889a335bc0fbfb",
                    "decodedLog": {
                        "name": "Transfer",
                        "params": [
                            {
                                "name": "from",
                                "type": "address",
                                "value": "0x50d13603eb20fe0246a8e7bb37f2f05de864685e"
                            },
                            {
                                "name": "to",
                                "type": "address",
                                "value": "0x3a6d3f805e4148c984e82cf58302d8592beeb38d"
                            },
                            {
                                "decimalAvailable": true,
                                "name": "value",
                                "type": "uint256",
                                "value": "333,000,000,000,000,000,000"
                            }
                        ],
                        "signature": "Transfer(address,address,uint256)"
                    },
                    "id": 1,
                    "logData": "0x0000000000000000000000000000000000000000000000120d4da7b0bd140000",
                    "logDecoded": true,
                    "operation": "EVENT",
                    "revert": false,
                    "status": true,
                    "topics": [
                        "0xddf252ad1be2c89b69c2b068fc378daa952ba7f163c4a11628f55a4df523b3ef",
                        "0x00000000000000000000000050d13603eb20fe0246a8e7bb37f2f05de864685e",
                        "0x0000000000000000000000003a6d3f805e4148c984e82cf58302d8592beeb38d"
                    ]
                },
                "nodeType": 1
            }
        },
        "gasFlame": [
            {
                "children": [
                    {
                        "children": [
                            {
                                "children": [],
                                "depth": 0,
                                "name": "Initial Gas",
                                "value": 21644
                            },
                            {
                                "children": [],
                                "depth": 0,
                                "name": "Executed Gas",
                                "value": 32290
                            }
                        ],
                        "depth": -1,
                        "name": "Actual Gas Used",
                        "value": 49134
                    },
                    {
                        "children": [],
                        "depth": -1,
                        "name": "Refunded Gas",
                        "value": 4800
                    }
                ],
                "depth": -2,
                "name": "Total Gas",
                "value": 53934
            }
        ],
        "isConfirmed": true,
        "mainTrace": [
            {
                "children": [
                    {
                        "children": [
                            {
                                "children": [],
                                "depth": 1,
                                "id": 1,
                                "order": 1
                            }
                        ],
                        "depth": 0,
                        "id": 0,
                        "order": 0
                    }
                ],
                "depth": -1,
                "id": -1,
                "order": -1
            }
        ],
        "mainTraceNodeCount": 2,
        "parentIdMap": {
            "0": -1,
            "1": 0
        },
        "tidyTrace": [
            {
                "children": [
                    {
                        "children": [
                            {
                                "children": [],
                                "depth": 1,
                                "id": 1,
                                "order": 1
                            }
                        ],
                        "depth": 0,
                        "id": 0,
                        "order": 0
                    }
                ],
                "depth": -1,
                "id": -1,
                "order": -1
            }
        ],
        "tidyTraceNodeCount": 2
    },
    "state_change": {
        "stateChanges": [
            {
                "address": "0x8457ca5040ad67fdebbcc8edce889a335bc0fbfb",
                "erc": "ERC-20",
                "slots": [
                    {
                        "current": "0x0000000000000000000000000000000000000000000000000000000000000000",
                        "key": "0x7080b6d87f093f6a01e2d272af407d350d3dbf5c9d1168c9c38fcd99c797c954",
                        "prev": "0x0000000000000000000000000000000000000000000000120d4da7b0bd140000"
                    },
                    {
                        "current": "0x0000000000000000000000000000000000000000000000120d4da7b0bd140000",
                        "key": "0x2c5f464ec99936f4c9a3289923748b433e843808b2b7537b40d8ae34b49074ef",
                        "prev": "0x0000000000000000000000000000000000000000000000000000000000000000"
                    }
                ],
                "storageVariables": [
                    {
                        "name": "_balances",
                        "type": "mapping(address => uint256)",
                        "value": {
                            "pairs": [
                                {
                                    "key": "0x3a6d3f805e4148c984e82cf58302d8592beeb38d",
                                    "value": {
                                        "current": "333000000000000000000",
                                        "prev": "0",
                                        "typeTag": 1
                                    }
                                },
                                {
                                    "key": "0x50d13603eb20fe0246a8e7bb37f2f05de864685e",
                                    "value": {
                                        "current": "0",
                                        "prev": "333000000000000000000",
                                        "typeTag": 1
                                    }
                                }
                            ],
                            "typeTag": 4
                        }
                    }
                ]
            }
        ]
    }
}