{
    "balance_change": {
        "balanceChanges": [
            {
                "account": "0xf50a06ea0ddd549482f74ada1c871d9cfb497742",
                "assets": [
                    {
                        "address": "0xeeeeeeeeeeeeeeeeeeeeeeeeeeeeeeeeeeeeeeee",
                        "amount": "0.044",
                        "iconUrl": "https://assets.blocksec.com/image/1663669189317-3.png",
                        "isERC1155": false,
                        "isERC721": false,
                        "sign": false,
                        "value": "129.33444787999999426"
                    },
                    {
                        "address": "0x7e48734e5aa3aa106deea90aae9c7b1ea7fd9a40",
                        "amount": "1",
                        "iconUrl": "",
                        "isERC1155": false,
                        "isERC721": true,
                        "sign": true,
                        "tokenID": "41",
                        "value": ""
                    }
                ]
            },
            {
                "account": "0x7e48734e5aa3aa106deea90aae9c7b1ea7fd9a40",
                "assets": [
                    {
                        "address": "0xeeeeeeeeeeeeeeeeeeeeeeeeeeeeeeeeeeeeeeee",
                        "amount": "0.044",
                        "iconUrl": "https://assets.blocksec.com/image/1663669189317-3.png",
                        "isERC1155": false,
                        "isERC721": false,
                        "sign": true,
                        "value": "129.33444787999999426"
                    }
                ]
            },
            {
                "account": "0x0000000000000000000000000000000000000000",
                "assets": [
                    {
                        "address": "0x7e48734e5aa3aa106deea90aae9c7b1ea7fd9a40",
                        "amount": "1",
                        "iconUrl": "",
                        "isERC1155": false,
                        "isERC721": true,
                        "sign": false,
                        "tokenID": "41",
                        "value": ""
                    }
                ]
            }
        ]
    },
    "profile": {
        "basic_info": {
            "baseFee": "21.661602279",
            "blockNumber": 14790615,
            "callData": "0xefef39a10000000000000000000000000000000000000000000000000000000000000001",
            "debugEnable": true,
            "errorInfo": "",
            "eventCount": 2,
            "feeRecipient": "0x2daa35962a6d43eb54c48367b33d0b379c930e5e",
            "formatValue": "0.044",
            "gasLimit": 98786,
            "gasPrice": "23.161602279",
            "gasUsed": 92764,
            "intTxnCount": 1,
            "internalRevert": false,
            "internalRevertMessage": "",
            "isContractCreation": false,
            "isFlashloan": false,
            "maxFee": "26.437324557",
            "nonce": 130,
            "overwritedBlockNumber": -1,
            "priorityFee": "1.5",
            "receiver": "0x7e48734e5aa3aa106deea90aae9c7b1ea7fd9a40",
            "revertMessage": "",
            "sender": "0xf50a06ea0ddd549482f74ada1c871d9cfb497742",
            "simulationEnable": true,
            "sourceTxnHash": "0xc7fc8f1b70d4577f36c0871c3c1782da3c48ac48103dc039e2571b7bab25c8e3",
            "status": true,
            "timestamp": "2022-05-17T05:12:37Z",
            "transactionFee": "0.002148562873809156",
            "txnHash": "0xc7fc8f1b70d4577f36c0871c3c1782da3c48ac48103dc039e2571b7bab25c8e3",
            "txnIndex": 130,
            "type": 2,
            "value": "44000000000000000"
        },
        "fund_flow": [
            {
                "amount": "0.044",
                "from": "0xf50a06ea0ddd549482f74ada1c871d9cfb497742",
                "id": 1,
                "isERC1155": false,
                "isERC721": false,
                "isReverted": false,
                "order": 1,
                "to": "0x7e48734e5aa3aa106deea90aae9c7b1ea7fd9a40",
                "token": "0xeeeeeeeeeeeeeeeeeeeeeeeeeeeeeeeeeeeeeeee"
            },
            {
                "amount": "1",
                "from": "0x0000000000000000000000000000000000000000",
                "id": 2,
                "isERC1155": false,
                "isERC721": true,
                "isReverted": false,
                "order": 2,
                "to": "0xf50a06ea0ddd549482f74ada1c871d9cfb497742",
                "token": "0x7e48734e5aa3aa106deea90aae9c7b1ea7fd9a40",
                "tokenID": "41"
            }
        ],
        "token_infos": [
            {
                "address": "0xc02aaa39b223fe8d0a0e5c4f27ead9083c756cc2",
                "decimals": 18
            },
            {
                "address": "0xeeeeeeeeeeeeeeeeeeeeeeeeeeeeeeeeeeeeeeee",
                "decimals": 18
            }
        ]
    },
    "address_label": {
        "labels": [
            {
                "address": "0x0000000000000000000000000000000000000003",
                "label": "Precompiled"
            },
            {
                "address": "0x0000000000000000000000000000000000000004",
                "label": "Precompiled"
            },
            {
                "address": "0xeeeeeeeeeeeeeeeeeeeeeeeeeeeeeeeeeeeeeeee",
                "label": "Ether"
            },
            {
                "address": "0x7e48734e5aa3aa106deea90aae9c7b1ea7fd9a40",
                "label": "ERC721DropProxy"
            },
            {
                "address": "0x0bebca5e4a4a12e8e1068176252ea29b1f42a3c1",
                "label": "ERC721Drop"
            },
            {
                "address": "0x0000000000000000000000000000000000000001",
                "label": "Precompiled"
            },
            {
                "address": "0x0000000000000000000000000000000000000002",
                "label": "Precompiled"
            }
        ]
    },
    "trace": {
        "accountLabels": null,
        "dataMap": {
            "-1": {
                "invocation": {
                    "address": "0xf50a06ea0ddd549482f74ada1c871d9cfb497742",
                    "callData": "",
                    "decodedMethod": null,
                    "errorInfo": "",
                    "fromAddress": "",
                    "gasUsed": 0,
                    "id": -1,
                    "methodDecoded": false,
                    "operation": "",
                    "output": "",
                    "revert": false,
                    "revertMessage": "",
                    "selector": "",
                    "status": false,
                    "value": ""
                },
                "nodeType": 0
            },
            "0": {
                "invocation": {
                    "address": "0x7e48734e5aa3aa106deea90aae9c7b1ea7fd9a40",
                    "callData": "0x0000000000000000000000000000000000000000000000000000000000000001",
                    "decodedMethod": {
                        "callParams": [
                            {
                                "name": "quantity",
                                "type": "uint256",
                                "value": "1"
                            }
                        ],
                        "constructorArguments": "",
                        "name": "purchase",
                        "returnParams": [
                            {
                                "name": "",
                                "type": "uint256",
                                "value": "40"
                            }
                        ],
                        "signature": "purchase(uint256)"
                    },
                    "errorInfo": "",
                    "fromAddress": "0xf50a06ea0ddd549482f74ada1c871d9cfb497742",
                    "gasUsed": 92764,
                    "id": 0,
                    "methodDecoded": true,
                    "operation": "CALL",
                    "output": "0x0000000000000000000000000000000000000000000000000000000000000028",
                    "revert": false,
                    "revertMessage": "",
                    "selector": "0xefef39a1",
                    "status": true,
                    "value": "0.044"
                },
                "nodeType": 0
            },
            "1": {
                "invocation": {
                    "address": "0x0bebca5e4a4a12e8e1068176252ea29b1f42a3c1",
                    "callData": "0x0000000000000000000000000000000000000000000000000000000000000001",
                    "decodedMethod": {
                        "callParams": [
                            {
                                "name": "quantity",
                                "type": "uint256",
                                "value": "1"
                            }
                        ],
                        "constructorArguments": "",
                        "name": "purchase",
                        "returnParams": [
                            {
                                "name": "",
                                "type": "uint256",
                                "value": "40"
                            }
                        ],
                        "signature": "purchase(uint256)"
                    },
                    "errorInfo": "",
                    "fromAddress": "0x7e48734e5aa3aa106deea90aae9c7b1ea7fd9a40",
                    "gasUsed": 69474,
                    "id": 1,
                    "methodDecoded": true,
                    "operation": "DELEGATECALL",
                    "output": "0x0000000000000000000000000000000000000000000000000000000000000028",
                    "revert": false,
                    "revertMessage": "",
                    "selector": "0xefef39a1",
                    "status": true,
                    "value": "0.044"
                },
                "nodeType": 0
            },
            "2": {
                "event": {
                    "contract": "0x7e48734e5aa3aa106deea90aae9c7b1ea7fd9a40",
                    "decodedLog": {
                        "name": "Transfer",
                        "params": [
                            {
                                "name": "from",
                                "type": "address",
                                "value": "0x0000000000000000000000000000000000000000"
                            },
                            {
                                "name": "to",
                                "type": "address",
                                "value": "0xf50a06ea0ddd549482f74ada1c871d9cfb497742"
                            },
                            {
                                "decimalAvailable": true,
                                "name": "tokenId",
                                "type": "uint256",
                                "value": "41"
                            }
                        ],
                        "signature": "Transfer(address,address,uint256)"
                    },
                    "id": 2,
                    "logData": "0x",
                    "logDecoded": true,
                    "operation": "EVENT",
                    "revert": false,
                    "status": true,
                    "topics": [
                        "0xddf252ad1be2c89b69c2b068fc378daa952ba7f163c4a11628f55a4df523b3ef",
                        "0x0000000000000000000000000000000000000000000000000000000000000000",
                        "0x000000000000000000000000f50a06ea0ddd549482f74ada1c871d9cfb497742",
                        "0x0000000000000000000000000000000000000000000000000000000000000029"
                    ]
                },
                "nodeType": 1
            },
            "3": {
                "event": {
                    "contract": "0x7e48734e5aa3aa106deea90aae9c7b1ea7fd9a40",
                    "decodedLog": {
                        "name": "Sale",
                        "params": [
                            {
                                "name": "to",
                                "type": "address",
                                "value": "0xf50a06ea0ddd549482f74ada1c871d9cfb497742"
                            },
                            {
                                "name": "quantity",
                                "type": "uint256",
                                "value": "1"
                            },
                            {
                                "name": "pricePerToken",
                                "type": "uint256",
                                "value": "44,000,000,000,000,000"
                            },
                            {
                                "name": "firstPurchasedTokenId",
                                "type": "uint256",
                                "value": "40"
                            }
                        ],
                        "signature": "Sale(address,uint256,uint256,uint256)"
                    },
                    "id": 3,
                    "logData": "0x0000000000000000000000000000000000000000000000000000000000000028",
                    "logDecoded": true,
                    "operation": "EVENT",
                    "revert": false,
                    "status": true,
                    "topics": [
                        "0x4e26b0356a15833a75d497ecc40ebbb716b99466ed0dba9454f1fff451e25a90",
                        "0x000000000000000000000000f50a06ea0ddd549482f74ada1c871d9cfb497742",
                        "0x0000000000000000000000000000000000000000000000000000000000000001",
                        "0x000000000000000000000000000000000000000000000000009c51c4521e0000"
                    ]
                },
                "nodeType": 1
            }
        },
        "gasFlame": [
            {
                "children": [
                    {
                        "children": [
                            {
                                "children": [],
                                "depth": 0,
                                "name": "Initial Gas",
                                "value": 21204
                            },
                            {
                                "children": [
                                    {
                                        "children": [],
                                        "depth": 1,
                                        "name": "purchase",
                                        "value": 69474
                                    }
                                ],
                                "depth": 0,
                                "name": "Executed Gas",
                                "value": 74360
                            }
                        ],
                        "depth": -1,
                        "name": "Actual Gas Used",
                        "value": 92764
                    },
                    {
                        "children": [],
                        "depth": -1,
                        "name": "Refunded Gas",
                        "value": 2800
                    }
                ],
                "depth": -2,
                "name": "Total Gas",
                "value": 95564
            }
        ],
        "isConfirmed": true,
        "mainTrace": [
            {
                "children": [
                    {
                        "children": [
                            {
                                "children": [
                                    {
                                        "children": [],
                                        "depth": 2,
                                        "id": 2,
                                        "order": 2
                                    },
                                    {
                                        "children": [],
                                        "depth": 2,
                                        "id": 3,
                                        "order": 3
                                    }
                                ],
                                "depth": 1,
                                "id": 1,
                                "order": 1
                            }
                        ],
                        "depth": 0,
                        "id": 0,
                        "order": 0
                    }
                ],
                "depth": -1,
                "id": -1,
                "order": -1
            }
        ],
        "mainTraceNodeCount": 4,
        "parentIdMap": {
            "0": -1,
            "1": 0,
            "2": 1,
            "3": 1
        },
        "tidyTrace": [
            {
                "children": [
                    {
                        "children": [
                            {
                                "children": [
                                    {
                                        "children": [],
                                        "depth": 2,
                                        "id": 2,
                                        "order": 2
                                    },
                                    {
                                        "children": [],
                                        "depth": 2,
                                        "id": 3,
                                        "order": 3
                                    }
                                ],
                                "depth": 1,
                                "id": 1,
                                "order": 1
                            }
                        ],
                        "depth": 0,
                        "id": 0,
                        "order": 0
                    }
                ],
                "depth": -1,
                "id": -1,
                "order": -1
            }
        ],
        "tidyTraceNodeCount": 4
    },
    "state_change": {
        "stateChanges": [
            {
                "address": "0x7e48734e5aa3aa106deea90aae9c7b1ea7fd9a40",
                "erc": "ERC-721",
                "slots": [
                    {
                        "current": "0x000000000000000062832ec5f50a06ea0ddd549482f74ada1c871d9cfb497742",
                        "key": "0xf508ee97c766efb8828e74fc5e1b1477e3b5e74619ddb93f101d1c172dc7fee2",
                        "prev": "0x0000000000000000000000000000000000000000000000000000000000000000"
                    },
                    {
                        "current": "0x000000000000000000000000000000000000000000000000000000000000002a",
                        "key": "0x0000000000000000000000000000000000000000000000000000000000000065",
                        "prev": "0x0000000000000000000000000000000000000000000000000000000000000029"
                    },
                    {
                        "current": "0x0000000000000000000000000000000000000000000000010000000000000001",
                        "key": "0xe7e77831516870e28a5005b5d66c53b3b66a2ab16c3919909f4962f8c064723d",
                        "prev": "0x0000000000000000000000000000000000000000000000000000000000000000"
                    }
                ],
                "storageVariables": [
                    {
                        "name": "_ownerships",
                        "type": "mapping(uint256 => struct IERC721AUpgradeable.TokenOwnership)",
                        "value": {
                            "pairs": [
                                {
                                    "key": "41",
                                    "value": {
                                        "fields": [
                                            {
                                                "name": "addr",
                                                "type": "address",
                                                "value": {
                                                    "current": "0xf50a06ea0ddd549482f74ada1c871d9cfb497742",
                                                    "prev": "0x0000000000000000000000000000000000000000",
                                                    "typeTag": 1
                                                }
                                            },
                                            {
                                                "name": "startTimestamp",
                                                "type": "uint64",
                                                "value": {
                                                    "current": "1652764357",
                                                    "prev": "0",
                                                    "typeTag": 1
                                                }
                                            },
                                            {
                                                "name": "burned",
                                                "type": "bool",
                                                "value": {
                                                    "current": "false",
                                                    "prev": "false",
                                                    "typeTag": 1
                                                }
                                            }
                                        ],
                                        "typeTag": 3
                                    }
                                }
                            ],
                            "typeTag": 4
                        }
                    },
                    {
                        "name": "_currentIndex",
                        "type": "uint256",
                        "value": {
                            "current": "42",
                            "prev": "41",
                            "typeTag": 1
                        }
                    },
                    {
                        "name": "_addressData",
                        "type": "mapping(address => struct IERC721AUpgradeable.AddressData)",
                        "value": {
                            "pairs": [
                                {
                                    "key": "0xf50a06ea0ddd549482f74ada1c871d9cfb497742",
                                    "value": {
                                        "fields": [
                                            {
                                                "name": "balance",
                                                "type": "uint64",
                                                "value": {
                                                    "current": "1",
                                                    "prev": "0",
                                                    "typeTag": 1
                                                }
                                            },
                                            {
                                                "name": "numberMinted",
                                                "type": "uint64",
                                                "value": {
                                                    "current": "1",
                                                    "prev": "0",
                                                    "typeTag": 1
                                                }
                                            },
                                            {
                                                "name": "numberBurned",
                                                "type": "uint64",
                                                "value": {
                                                    "current": "0",
                                                    "prev": "0",
                                                    "typeTag": 1
                                                }
                                            },
                                            {
                                                "name": "aux",
                                                "type": "uint64",
                                                "value": {
                                                    "current": "0",
                                                    "prev": "0",
                                                    "typeTag": 1
                                                }
                                            }
                                        ],
                                        "typeTag": 3
                                    }
                                }
                            ],
                            "typeTag": 4
                        }
                    }
                ]
            }
        ]
    }
}