{
    "balance_change": {
        "balanceChanges": [
            {
                "account": "0x0008df1576ba6c60972c85b8cf17b6e923a06fe8",
                "assets": [
                    {
                        "address": "0xeeeeeeeeeeeeeeeeeeeeeeeeeeeeeeeeeeeeeeee",
                        "amount": "0.005583656994205056",
                        "iconUrl": "https://assets.blocksec.com/image/1663669189317-3.png",
                        "isERC1155": false,
                        "isERC721": false,
                        "sign": false,
                        "value": "22.76607582"
                    }
                ]
            },
            {
                "account": "0xedee915ae45cc4b2fdd1ce12a2f70dca0b2ad9e5",
                "assets": [
                    {
                        "address": "0xeeeeeeeeeeeeeeeeeeeeeeeeeeeeeeeeeeeeeeee",
                        "amount": "0.005583656994205056",
                        "iconUrl": "https://assets.blocksec.com/image/1663669189317-3.png",
                        "isERC1155": false,
                        "isERC721": false,
                        "sign": true,
                        "value": "22.76607582"
                    }
                ]
            }
        ]
    },
    "profile": {
        "basic_info": {
            "baseFee": "72.84200051",
            "blockNumber": 13701104,
            "callData": "0x097799270000000000000000000000000008df1576ba6c60972c85b8cf17b6e923a06fe80000000000000000000000000000000000000000000000000000017d657850a600000000000000000000000000000000000000000000000000000000000000000000000000000000000000000000000000000000000000000000000fc2477586000000000000000000000000000000000000000000000000000000000003a9800000000000000000000000000000000000000000000000000000000000000000000000000000000000000000edee915ae45cc4b2fdd1ce12a2f70dca0b2ad9e50000000000000000000000000000000000000000000000000000000000000000000000000000000000000000000000000000000000000000000000000000014000000000000000000000000000000000000000000000000000000000000001a00000000000000000000000000000000000000000000000000000000000000024a526d83b00000000000000000000000020347dc2f769b20fc66c8973404cefa8df901346000000000000000000000000000000000000000000000000000000000000000000000000000000000000000000000000000000000000000000000042f9cc4c27a75d3c49c0e0d80ea76c2a1c87f8794fc01c5d463c2cdb1411a0a41f4faeeea1f6fb452bec27c956b273df5893b84c094fc340019e79a3b5a12b4bf81c02000000000000000000000000000000000000000000000000000000000000",
            "debugEnable": true,
            "errorInfo": "",
            "eventCount": 2,
            "feeRecipient": "0xea674fdde714fd979de3edf0f56aa9716b898ec8",
            "formatValue": "0",
            "gasLimit": 740000,
            "gasPrice": "73.84200051",
            "gasUsed": 141266,
            "intTxnCount": 8,
            "internalRevert": false,
            "internalRevertMessage": "",
            "isContractCreation": false,
            "isFlashloan": false,
            "maxFee": "90.488775336",
            "nonce": 4839,
            "overwritedBlockNumber": -1,
            "priorityFee": "1",
            "receiver": "0x0008df1576ba6c60972c85b8cf17b6e923a06fe8",
            "revertMessage": "",
            "sender": "0x53dd53daf8f112bca64332ea97398efbc8a0e234",
            "simulationEnable": true,
            "sourceTxnHash": "0xc78b5d80d5826a235eb3b13fd49703e9c2482ce002f1e623fa14559a5b76b411",
            "status": true,
            "timestamp": "2021-11-28T07:35:16Z",
            "transactionFee": "0.01043136404404566",
            "txnHash": "0xc78b5d80d5826a235eb3b13fd49703e9c2482ce002f1e623fa14559a5b76b411",
            "txnIndex": 181,
            "type": 2,
            "value": "0"
        },
        "fund_flow": [
            {
                "amount": "0.005583656994205056",
                "from": "0x0008df1576ba6c60972c85b8cf17b6e923a06fe8",
                "id": 1,
                "isERC1155": false,
                "isERC721": false,
                "isReverted": false,
                "order": 1,
                "to": "0xedee915ae45cc4b2fdd1ce12a2f70dca0b2ad9e5",
                "token": "0xeeeeeeeeeeeeeeeeeeeeeeeeeeeeeeeeeeeeeeee"
            }
        ],
        "token_infos": [
            {
                "address": "0xc02aaa39b223fe8d0a0e5c4f27ead9083c756cc2",
                "decimals": 18
            },
            {
                "address": "0xeeeeeeeeeeeeeeeeeeeeeeeeeeeeeeeeeeeeeeee",
                "decimals": 18
            }
        ]
    },
    "address_label": {
        "labels": [
            {
                "address": "0x0000000000000000000000000000000000000001",
                "label": "Precompiled"
            },
            {
                "address": "0x0000000000000000000000000000000000000003",
                "label": "Precompiled"
            },
            {
                "address": "0x0000000000000000000000000000000000000004",
                "label": "Precompiled"
            },
            {
                "address": "0x0000000000000000000000000000000000000000",
                "label": "Null Address"
            },
            {
                "address": "0x5fc8a17dded0a4da0f9a1e44e6c26f80aa514145",
                "label": "SmartWallet"
            },
            {
                "address": "0x0008df1576ba6c60972c85b8cf17b6e923a06fe8",
                "label": "WalletProxy"
            },
            {
                "address": "0x9d7c436db65ad7a02bb03ca727d027bd34789958",
                "label": "ERC20Lib"
            },
            {
                "address": "0xeeeeeeeeeeeeeeeeeeeeeeeeeeeeeeeeeeeeeeee",
                "label": "Ether"
            },
            {
                "address": "0x90e978eaec76291fcda3c727d022c3589d74be43",
                "label": "MetaTxLib"
            },
            {
                "address": "0x68d9686e4b4706c425e91e4cf762c09d7686cde7",
                "label": "GuardianLib"
            },
            {
                "address": "0x0000000000000000000000000000000000000002",
                "label": "Precompiled"
            }
        ]
    },
    "trace": {
        "accountLabels": null,
        "dataMap": {
            "-1": {
                "invocation": {
                    "address": "0x53dd53daf8f112bca64332ea97398efbc8a0e234",
                    "callData": "",
                    "decodedMethod": null,
                    "errorInfo": "",
                    "fromAddress": "",
                    "gasUsed": 0,
                    "id": -1,
                    "methodDecoded": false,
                    "operation": "",
                    "output": "",
                    "revert": false,
                    "revertMessage": "",
                    "selector": "",
                    "status": false,
                    "value": ""
                },
                "nodeType": 0
            },
            "0": {
                "invocation": {
                    "address": "0x0008df1576ba6c60972c85b8cf17b6e923a06fe8",
                    "callData": "0x0000000000000000000000000008df1576ba6c60972c85b8cf17b6e923a06fe80000000000000000000000000000000000000000000000000000017d657850a600000000000000000000000000000000000000000000000000000000000000000000000000000000000000000000000000000000000000000000000fc2477586000000000000000000000000000000000000000000000000000000000003a9800000000000000000000000000000000000000000000000000000000000000000000000000000000000000000edee915ae45cc4b2fdd1ce12a2f70dca0b2ad9e50000000000000000000000000000000000000000000000000000000000000000000000000000000000000000000000000000000000000000000000000000014000000000000000000000000000000000000000000000000000000000000001a00000000000000000000000000000000000000000000000000000000000000024a526d83b00000000000000000000000020347dc2f769b20fc66c8973404cefa8df901346000000000000000000000000000000000000000000000000000000000000000000000000000000000000000000000000000000000000000000000042f9cc4c27a75d3c49c0e0d80ea76c2a1c87f8794fc01c5d463c2cdb1411a0a41f4faeeea1f6fb452bec27c956b273df5893b84c094fc340019e79a3b5a12b4bf81c02000000000000000000000000000000000000000000000000000000000000",
                    "decodedMethod": {
                        "callParams": [
                            {
                                "name": "to",
                                "type": "address",
                                "value": "0x0008df1576ba6c60972c85b8cf17b6e923a06fe8"
                            },
                            {
                                "name": "nonce",
                                "type": "uint256",
                                "value": "1,638,084,923,558"
                            },
                            {
                                "name": "gasToken",
                                "type": "address",
                                "value": "0x0000000000000000000000000000000000000000"
                            },
                            {
                                "name": "gasPrice",
                                "type": "uint256",
                                "value": "67,683,972,486"
                            },
                            {
                                "name": "gasLimit",
                                "type": "uint256",
                                "value": "240,000"
                            },
                            {
                                "name": "gasOverhead",
                                "type": "uint256",
                                "value": "0"
                            },
                            {
                                "name": "feeRecipient",
                                "type": "address",
                                "value": "0xedee915ae45cc4b2fdd1ce12a2f70dca0b2ad9e5"
                            },
                            {
                                "name": "requiresSuccess",
                                "type": "bool",
                                "value": false
                            },
                            {
                                "name": "data",
                                "type": "bytes",
                                "value": "0xa526d83b00000000000000000000000020347dc2f769b20fc66c8973404cefa8df901346"
                            },
                            {
                                "name": "signature",
                                "type": "bytes",
                                "value": "0xf9cc4c27a75d3c49c0e0d80ea76c2a1c87f8794fc01c5d463c2cdb1411a0a41f4faeeea1f6fb452bec27c956b273df5893b84c094fc340019e79a3b5a12b4bf81c02"
                            }
                        ],
                        "constructorArguments": "",
                        "name": "executeMetaTx",
                        "returnParams": [
                            {
                                "name": "",
                                "type": "bool",
                                "value": true
                            }
                        ],
                        "signature": "executeMetaTx(address,uint256,address,uint256,uint256,uint256,address,bool,bytes,bytes)"
                    },
                    "errorInfo": "",
                    "fromAddress": "0x53dd53daf8f112bca64332ea97398efbc8a0e234",
                    "gasUsed": 141266,
                    "id": 0,
                    "methodDecoded": true,
                    "operation": "CALL",
                    "output": "0x0000000000000000000000000000000000000000000000000000000000000001",
                    "revert": false,
                    "revertMessage": "",
                    "selector": "0x09779927",
                    "status": true,
                    "value": "0"
                },
                "nodeType": 0
            },
            "1": {
                "invocation": {
                    "address": "0x5fc8a17dded0a4da0f9a1e44e6c26f80aa514145",
                    "callData": "0x0000000000000000000000000008df1576ba6c60972c85b8cf17b6e923a06fe80000000000000000000000000000000000000000000000000000017d657850a600000000000000000000000000000000000000000000000000000000000000000000000000000000000000000000000000000000000000000000000fc2477586000000000000000000000000000000000000000000000000000000000003a9800000000000000000000000000000000000000000000000000000000000000000000000000000000000000000edee915ae45cc4b2fdd1ce12a2f70dca0b2ad9e50000000000000000000000000000000000000000000000000000000000000000000000000000000000000000000000000000000000000000000000000000014000000000000000000000000000000000000000000000000000000000000001a00000000000000000000000000000000000000000000000000000000000000024a526d83b00000000000000000000000020347dc2f769b20fc66c8973404cefa8df901346000000000000000000000000000000000000000000000000000000000000000000000000000000000000000000000000000000000000000000000042f9cc4c27a75d3c49c0e0d80ea76c2a1c87f8794fc01c5d463c2cdb1411a0a41f4faeeea1f6fb452bec27c956b273df5893b84c094fc340019e79a3b5a12b4bf81c02000000000000000000000000000000000000000000000000000000000000",
                    "decodedMethod": {
                        "callParams": [
                            {
                                "name": "to",
                                "type": "address",
                                "value": "0x0008df1576ba6c60972c85b8cf17b6e923a06fe8"
                            },
                            {
                                "name": "nonce",
                                "type": "uint256",
                                "value": "1,638,084,923,558"
                            },
                            {
                                "name": "gasToken",
                                "type": "address",
                                "value": "0x0000000000000000000000000000000000000000"
                            },
                            {
                                "name": "gasPrice",
                                "type": "uint256",
                                "value": "67,683,972,486"
                            },
                            {
                                "name": "gasLimit",
                                "type": "uint256",
                                "value": "240,000"
                            },
                            {
                                "name": "gasOverhead",
                                "type": "uint256",
                                "value": "0"
                            },
                            {
                                "name": "feeRecipient",
                                "type": "address",
                                "value": "0xedee915ae45cc4b2fdd1ce12a2f70dca0b2ad9e5"
                            },
                            {
                                "name": "requiresSuccess",
                                "type": "bool",
                                "value": false
                            },
                            {
                                "name": "data",
                                "type": "bytes",
                                "value": "0xa526d83b00000000000000000000000020347dc2f769b20fc66c8973404cefa8df901346"
                            },
                            {
                                "name": "signature",
                                "type": "bytes",
                                "value": "0xf9cc4c27a75d3c49c0e0d80ea76c2a1c87f8794fc01c5d463c2cdb1411a0a41f4faeeea1f6fb452bec27c956b273df5893b84c094fc340019e79a3b5a12b4bf81c02"
                            }
                        ],
                        "constructorArguments": "",
                        "name": "executeMetaTx",
                        "returnParams": [
                            {
                                "name": "",
                                "type": "bool",
                                "value": true
                            }
                        ],
                        "signature": "executeMetaTx(address,uint256,address,uint256,uint256,uint256,address,bool,bytes,bytes)"
                    },
                    "errorInfo": "",
                    "fromAddress": "0x0008df1576ba6c60972c85b8cf17b6e923a06fe8",
                    "gasUsed": 111310,
                    "id": 1,
                    "methodDecoded": true,
                    "operation": "DELEGATECALL",
                    "output": "0x0000000000000000000000000000000000000000000000000000000000000001",
                    "revert": false,
                    "revertMessage": "",
                    "selector": "0x09779927",
                    "status": true,
                    "value": "0"
                },
                "nodeType": 0
            },
            "10": {
                "event": {
                    "contract": "0x0008df1576ba6c60972c85b8cf17b6e923a06fe8",
                    "decodedLog": {
                        "name": "MetaTxExecuted",
                        "params": [
                            {
                                "name": "nonce",
                                "type": "uint256",
                                "value": "1,638,084,923,558"
                            },
                            {
                                "name": "approvedHash",
                                "type": "bytes32",
                                "value": "0x0000000000000000000000000000000000000000000000000000000000000000"
                            },
                            {
                                "name": "metaTxHash",
                                "type": "bytes32",
                                "value": "0xdb5f9cd71ce93d55f0259482e94801bf2bbcc9799ec7c85b3862cd2aff6c6e81"
                            },
                            {
                                "name": "success",
                                "type": "bool",
                                "value": true
                            },
                            {
                                "name": "gasUsed",
                                "type": "uint256",
                                "value": "82,496"
                            }
                        ],
                        "signature": "MetaTxExecuted(uint256,bytes32,bytes32,bool,uint256)"
                    },
                    "id": 10,
                    "logData": "0x0000000000000000000000000000000000000000000000000000017d657850a60000000000000000000000000000000000000000000000000000000000000000db5f9cd71ce93d55f0259482e94801bf2bbcc9799ec7c85b3862cd2aff6c6e8100000000000000000000000000000000000000000000000000000000000000010000000000000000000000000000000000000000000000000000000000014240",
                    "logDecoded": true,
                    "operation": "EVENT",
                    "revert": false,
                    "status": true,
                    "topics": [
                        "0x62c84a9696a03a1f76d684995670d2063d321d1a8f155d3b075037418ac2cccd"
                    ]
                },
                "nodeType": 1
            },
            "2": {
                "invocation": {
                    "address": "0x90e978eaec76291fcda3c727d022c3589d74be43",
                    "callData": "0x00000000000000000000000000000000000000000000000000000000000000012a84fff36568628ba172624fb2c1c6e8c1364df1cc2437a97510ff577eaa09a7000000000000000000000000b124190942976431d8181fbe183e44584253da6800000000000000000000000000000000000000000000000000000000000000800000000000000000000000000008df1576ba6c60972c85b8cf17b6e923a06fe80000000000000000000000000000000000000000000000000000017d657850a600000000000000000000000000000000000000000000000000000000000000000000000000000000000000000000000000000000000000000000000fc2477586000000000000000000000000000000000000000000000000000000000003a9800000000000000000000000000000000000000000000000000000000000000000000000000000000000000000edee915ae45cc4b2fdd1ce12a2f70dca0b2ad9e50000000000000000000000000000000000000000000000000000000000000000000000000000000000000000000000000000000000000000000000000000014000000000000000000000000000000000000000000000000000000000000001a00000000000000000000000000000000000000000000000000000000000000024a526d83b00000000000000000000000020347dc2f769b20fc66c8973404cefa8df901346000000000000000000000000000000000000000000000000000000000000000000000000000000000000000000000000000000000000000000000042f9cc4c27a75d3c49c0e0d80ea76c2a1c87f8794fc01c5d463c2cdb1411a0a41f4faeeea1f6fb452bec27c956b273df5893b84c094fc340019e79a3b5a12b4bf81c02000000000000000000000000000000000000000000000000000000000000",
                    "decodedMethod": null,
                    "errorInfo": "",
                    "fromAddress": "0x0008df1576ba6c60972c85b8cf17b6e923a06fe8",
                    "gasUsed": 104893,
                    "id": 2,
                    "methodDecoded": false,
                    "operation": "DELEGATECALL",
                    "output": "0x0000000000000000000000000000000000000000000000000000000000000001",
                    "revert": false,
                    "revertMessage": "",
                    "selector": "0x531020c2",
                    "status": true,
                    "value": "0"
                },
                "nodeType": 0
            },
            "3": {
                "invocation": {
                    "address": "0x0008df1576ba6c60972c85b8cf17b6e923a06fe8",
                    "callData": "0x00000000000000000000000020347dc2f769b20fc66c8973404cefa8df901346",
                    "decodedMethod": {
                        "callParams": [
                            {
                                "name": "guardian",
                                "type": "address",
                                "value": "0x20347dc2f769b20fc66c8973404cefa8df901346"
                            }
                        ],
                        "constructorArguments": "",
                        "name": "addGuardian",
                        "returnParams": [],
                        "signature": "addGuardian(address)"
                    },
                    "errorInfo": "",
                    "fromAddress": "0x0008df1576ba6c60972c85b8cf17b6e923a06fe8",
                    "gasUsed": 66071,
                    "id": 3,
                    "methodDecoded": true,
                    "operation": "CALL",
                    "output": "",
                    "revert": false,
                    "revertMessage": "",
                    "selector": "0xa526d83b",
                    "status": true,
                    "value": "0"
                },
                "nodeType": 0
            },
            "4": {
                "invocation": {
                    "address": "0x5fc8a17dded0a4da0f9a1e44e6c26f80aa514145",
                    "callData": "0x00000000000000000000000020347dc2f769b20fc66c8973404cefa8df901346",
                    "decodedMethod": {
                        "callParams": [
                            {
                                "name": "guardian",
                                "type": "address",
                                "value": "0x20347dc2f769b20fc66c8973404cefa8df901346"
                            }
                        ],
                        "constructorArguments": "",
                        "name": "addGuardian",
                        "returnParams": [],
                        "signature": "addGuardian(address)"
                    },
                    "errorInfo": "",
                    "fromAddress": "0x0008df1576ba6c60972c85b8cf17b6e923a06fe8",
                    "gasUsed": 65739,
                    "id": 4,
                    "methodDecoded": true,
                    "operation": "DELEGATECALL",
                    "output": "",
                    "revert": false,
                    "revertMessage": "",
                    "selector": "0xa526d83b",
                    "status": true,
                    "value": "0"
                },
                "nodeType": 0
            },
            "5": {
                "invocation": {
                    "address": "0x68d9686e4b4706c425e91e4cf762c09d7686cde7",
                    "callData": "0x000000000000000000000000000000000000000000000000000000000000000100000000000000000000000020347dc2f769b20fc66c8973404cefa8df901346",
                    "decodedMethod": null,
                    "errorInfo": "",
                    "fromAddress": "0x0008df1576ba6c60972c85b8cf17b6e923a06fe8",
                    "gasUsed": 60233,
                    "id": 5,
                    "methodDecoded": false,
                    "operation": "DELEGATECALL",
                    "output": "",
                    "revert": false,
                    "revertMessage": "",
                    "selector": "0xb9d8df14",
                    "status": true,
                    "value": "0"
                },
                "nodeType": 0
            },
            "6": {
                "event": {
                    "contract": "0x0008df1576ba6c60972c85b8cf17b6e923a06fe8",
                    "decodedLog": {
                        "name": "GuardianAdded",
                        "params": [
                            {
                                "name": "guardian",
                                "type": "address",
                                "value": "0x20347dc2f769b20fc66c8973404cefa8df901346"
                            },
                            {
                                "name": "effectiveTime",
                                "type": "uint256",
                                "value": "1,638,344,116"
                            }
                        ],
                        "signature": "GuardianAdded(address,uint256)"
                    },
                    "id": 6,
                    "logData": "0x00000000000000000000000020347dc2f769b20fc66c8973404cefa8df9013460000000000000000000000000000000000000000000000000000000061a725b4",
                    "logDecoded": true,
                    "operation": "EVENT",
                    "revert": false,
                    "status": true,
                    "topics": [
                        "0x6276832b43b1ca1eab9c38b577dc5ba939a807f5ca7b7e5b6f1f09e80e487fad"
                    ]
                },
                "nodeType": 1
            },
            "7": {
                "invocation": {
                    "address": "0x0000000000000000000000000000000000000001",
                    "callData": "0x1ce93d55f0259482e94801bf2bbcc9799ec7c85b3862cd2aff6c6e81000000000000000000000000000000000000000000000000000000000000001cf9cc4c27a75d3c49c0e0d80ea76c2a1c87f8794fc01c5d463c2cdb1411a0a41f4faeeea1f6fb452bec27c956b273df5893b84c094fc340019e79a3b5a12b4bf8",
                    "decodedMethod": {
                        "callParams": [
                            {
                                "name": "hash",
                                "type": "bytes32",
                                "value": "0xdb5f9cd71ce93d55f0259482e94801bf2bbcc9799ec7c85b3862cd2aff6c6e81"
                            },
                            {
                                "name": "v",
                                "type": "uint256",
                                "value": "28"
                            },
                            {
                                "name": "r",
                                "type": "bytes32",
                                "value": "0xf9cc4c27a75d3c49c0e0d80ea76c2a1c87f8794fc01c5d463c2cdb1411a0a41f"
                            },
                            {
                                "name": "s",
                                "type": "bytes32",
                                "value": "0x4faeeea1f6fb452bec27c956b273df5893b84c094fc340019e79a3b5a12b4bf8"
                            }
                        ],
                        "constructorArguments": "",
                        "name": "ecrecover",
                        "returnParams": [
                            {
                                "name": "",
                                "type": "address",
                                "value": "0x5c6933389392dbcc30f3d66942fbf0e0bd5596a6"
                            }
                        ],
                        "signature": "ecrecover(bytes32,uint256,bytes32,bytes32)"
                    },
                    "errorInfo": "",
                    "fromAddress": "0x0008df1576ba6c60972c85b8cf17b6e923a06fe8",
                    "gasUsed": 3000,
                    "id": 7,
                    "methodDecoded": true,
                    "operation": "STATICCALL",
                    "output": "0x0000000000000000000000005c6933389392dbcc30f3d66942fbf0e0bd5596a6",
                    "revert": false,
                    "revertMessage": "",
                    "selector": "0xdb5f9cd7",
                    "status": true,
                    "value": "0"
                },
                "nodeType": 0
            },
            "8": {
                "invocation": {
                    "address": "0x9d7c436db65ad7a02bb03ca727d027bd34789958",
                    "callData": "0x0000000000000000000000000000000000000000000000000000000000000000000000000000000000000000edee915ae45cc4b2fdd1ce12a2f70dca0b2ad9e50000000000000000000000000000000000000000000000000013d64e73afed80",
                    "decodedMethod": {
                        "callParams": [
                            {
                                "name": "_from",
                                "type": "address",
                                "value": "0x0000000000000000000000000000000000000000"
                            },
                            {
                                "name": "_to",
                                "type": "address",
                                "value": "0xedee915ae45cc4b2fdd1ce12a2f70dca0b2ad9e5"
                            },
                            {
                                "name": "_wad",
                                "type": "uint256",
                                "value": "5,583,656,994,205,056"
                            }
                        ],
                        "constructorArguments": "",
                        "name": "transfer",
                        "returnParams": [],
                        "signature": "transfer(address,address,uint256)"
                    },
                    "errorInfo": "",
                    "fromAddress": "0x0008df1576ba6c60972c85b8cf17b6e923a06fe8",
                    "gasUsed": 10097,
                    "id": 8,
                    "methodDecoded": true,
                    "operation": "DELEGATECALL",
                    "output": "",
                    "revert": false,
                    "revertMessage": "",
                    "selector": "0xbeabacc8",
                    "status": true,
                    "value": "0"
                },
                "nodeType": 0
            },
            "9": {
                "invocation": {
                    "address": "0xedee915ae45cc4b2fdd1ce12a2f70dca0b2ad9e5",
                    "callData": "0x",
                    "decodedMethod": null,
                    "errorInfo": "",
                    "fromAddress": "0x0008df1576ba6c60972c85b8cf17b6e923a06fe8",
                    "gasUsed": 0,
                    "id": 9,
                    "methodDecoded": false,
                    "operation": "CALL",
                    "output": "",
                    "revert": false,
                    "revertMessage": "",
                    "selector": "fallback",
                    "status": true,
                    "value": "0.005583656994205056"
                },
                "nodeType": 0
            }
        },
        "gasFlame": [
            {
                "children": [
                    {
                        "children": [
                            {
                                "children": [],
                                "depth": 0,
                                "name": "Initial Gas",
                                "value": 25028
                            },
                            {
                                "children": [
                                    {
                                        "children": [
                                            {
                                                "children": [
                                                    {
                                                        "children": [
                                                            {
                                                                "children": [
                                                                    {
                                                                        "children": [],
                                                                        "depth": 5,
                                                                        "name": "0xb9d8df14",
                                                                        "value": 60233
                                                                    }
                                                                ],
                                                                "depth": 4,
                                                                "name": "addGuardian",
                                                                "value": 65739
                                                            }
                                                        ],
                                                        "depth": 3,
                                                        "name": "addGuardian",
                                                        "value": 66071
                                                    },
                                                    {
                                                        "children": [],
                                                        "depth": 3,
                                                        "name": "ecrecover",
                                                        "value": 3000
                                                    },
                                                    {
                                                        "children": [
                                                            {
                                                                "children": [],
                                                                "depth": 4,
                                                                "name": "fallback",
                                                                "value": 0
                                                            }
                                                        ],
                                                        "depth": 3,
                                                        "name": "transfer",
                                                        "value": 10097
                                                    }
                                                ],
                                                "depth": 2,
                                                "name": "0x531020c2",
                                                "value": 104893
                                            }
                                        ],
                                        "depth": 1,
                                        "name": "executeMetaTx",
                                        "value": 111310
                                    }
                                ],
                                "depth": 0,
                                "name": "Executed Gas",
                                "value": 116238
                            }
                        ],
                        "depth": -1,
                        "name": "Actual Gas Used",
                        "value": 141266
                    },
                    {
                        "children": [],
                        "depth": -1,
                        "name": "Refunded Gas",
                        "value": 0
                    }
                ],
                "depth": -2,
                "name": "Total Gas",
                "value": 141266
            }
        ],
        "isConfirmed": true,
        "mainTrace": [
            {
                "children": [
                    {
                        "children": [
                            {
                                "children": [
                                    {
                                        "children": [
                                            {
                                                "children": [
                                                    {
                                                        "children": [
                                                            {
                                                                "children": [
                                                                    {
                                                                        "children": [],
                                                                        "depth": 6,
                                                                        "id": 6,
                                                                        "order": 6
                                                                    }
                                                                ],
                                                                "depth": 5,
                                                                "id": 5,
                                                                "order": 5
                                                            }
                                                        ],
                                                        "depth": 4,
                                                        "id": 4,
                                                        "order": 4
                                                    }
                                                ],
                                                "depth": 3,
                                                "id": 3,
                                                "order": 3
                                            },
                                            {
                                                "children": [],
                                                "depth": 3,
                                                "id": 7,
                                                "order": 7
                                            },
                                            {
                                                "children": [
                                                    {
                                                        "children": [],
                                                        "depth": 4,
                                                        "id": 9,
                                                        "order": 9
                                                    }
                                                ],
                                                "depth": 3,
                                                "id": 8,
                                                "order": 8
                                            },
                                            {
                                                "children": [],
                                                "depth": 3,
                                                "id": 10,
                                                "order": 10
                                            }
                                        ],
                                        "depth": 2,
                                        "id": 2,
                                        "order": 2
                                    }
                                ],
                                "depth": 1,
                                "id": 1,
                                "order": 1
                            }
                        ],
                        "depth": 0,
                        "id": 0,
                        "order": 0
                    }
                ],
                "depth": -1,
                "id": -1,
                "order": -1
            }
        ],
        "mainTraceNodeCount": 11,
        "parentIdMap": {
            "0": -1,
            "1": 0,
            "10": 2,
            "2": 1,
            "3": 2,
            "4": 3,
            "5": 4,
            "6": 5,
            "7": 2,
            "8": 2,
            "9": 8
        },
        "tidyTrace": [
            {
                "children": [
                    {
                        "children": [
                            {
                                "children": [
                                    {
                                        "children": [
                                            {
                                                "children": [
                                                    {
                                                        "children": [
                                                            {
                                                                "children": [
                                                                    {
                                                                        "children": [],
                                                                        "depth": 6,
                                                                        "id": 6,
                                                                        "order": 6
                                                                    }
                                                                ],
                                                                "depth": 5,
                                                                "id": 5,
                                                                "order": 5
                                                            }
                                                        ],
                                                        "depth": 4,
                                                        "id": 4,
                                                        "order": 4
                                                    }
                                                ],
                                                "depth": 3,
                                                "id": 3,
                                                "order": 3
                                            },
                                            {
                                                "children": [
                                                    {
                                                        "children": [],
                                                        "depth": 4,
                                                        "id": 9,
                                                        "order": 9
                                                    }
                                                ],
                                                "depth": 3,
                                                "id": 8,
                                                "order": 8
                                            },
                                            {
                                                "children": [],
                                                "depth": 3,
                                                "id": 10,
                                                "order": 10
                                            }
                                        ],
                                        "depth": 2,
                                        "id": 2,
                                        "order": 2
                                    }
                                ],
                                "depth": 1,
                                "id": 1,
                                "order": 1
                            }
                        ],
                        "depth": 0,
                        "id": 0,
                        "order": 0
                    }
                ],
                "depth": -1,
                "id": -1,
                "order": -1
            }
        ],
        "tidyTraceNodeCount": 10
    },
    "state_change": {
        "stateChanges": [
            {
                "address": "0x0008df1576ba6c60972c85b8cf17b6e923a06fe8",
                "erc": "",
                "slots": [
                    {
                        "current": "0x0000000000000000000000000000000000000000000000000000000000000003",
                        "key": "0x2190ac857e1eef6eb595769908e87b397febf73661773b573f76c8d9158a0c05",
                        "prev": "0x0000000000000000000000000000000000000000000000000000000000000000"
                    },
                    {
                        "current": "0x0000000000000000000000000000000000000000000000000000017d657850a6",
                        "key": "0x0000000000000000000000000000000000000000000000000000000000000002",
                        "prev": "0x0000000000000000000000000000000000000000000000000000017d65724935"
                    },
                    {
                        "current": "0x0000000000000000000000000000000000000000000000000000000000000003",
                        "key": "0x0000000000000000000000000000000000000000000000000000000000000005",
                        "prev": "0x0000000000000000000000000000000000000000000000000000000000000002"
                    },
                    {
                        "current": "0x0000000000000061a725b40120347dc2f769b20fc66c8973404cefa8df901346",
                        "key": "0x036b6384b5eca791c62761152d0c79bb0604c104a5fb6f4eb0703f3154bb3db2",
                        "prev": "0x0000000000000000000000000000000000000000000000000000000000000000"
                    }
                ],
                "storageVariables": []
            }
        ]
    }
}