{
    "balance_change": {
        "balanceChanges": [
            {
                "account": "0x157be16daa4498b555654e1705eaec7dee9970c4",
                "assets": [
                    {
                        "address": "0xa0b86991c6218b36c1d19d4a2e9eb0ce3606eb48",
                        "amount": "101.9",
                        "iconUrl": "https://assets.blocksec.com/icon/0347a86cc07dbd03fdc5db01a4e5ac7e1217f90e0b6e4bb0f75cbcca09160989.png",
                        "isERC1155": false,
                        "isERC721": false,
                        "sign": true,
                        "value": "101.82866999999999654"
                    }
                ]
            },
            {
                "account": "0xc4c73fecf1f544c62be072112f5452c758ef0e96",
                "assets": [
                    {
                        "address": "0xa0b86991c6218b36c1d19d4a2e9eb0ce3606eb48",
                        "amount": "101.9",
                        "iconUrl": "https://assets.blocksec.com/icon/0347a86cc07dbd03fdc5db01a4e5ac7e1217f90e0b6e4bb0f75cbcca09160989.png",
                        "isERC1155": false,
                        "isERC721": false,
                        "sign": false,
                        "value": "101.82866999999999654"
                    }
                ]
            }
        ]
    },
    "profile": {
        "basic_info": {
            "baseFee": "3.673054697",
            "blockNumber": 20104014,
            "callData": "0x6df91df7000000000000000000000000644692576e1891143d25448e98a56965127e2fee0000000000000000000000000000000000000000000000000000000000000006000000000000000000000000c4c73fecf1f544c62be072112f5452c758ef0e960000000000000000000000000000000000000000000000000000000000000001000000000000000000000000000000000000000000000000000000000000000000000000000000000000000000000000000000000000000000000000666ee67873b9f5df84f21891184d6f55f40916f58910fbc0d597e399da132ecf242027b4000000000000000000000000000000000000000000000000000000000000001ca3de37bab58571e2087a15c3d872b86e92bed3a9fc1185a8ed541bb286c36b3308bfeca45a4c78ddc6a496a00281c08de70f3315db64cddc9fbd7085292006d0000000000000000000000000000000000000000000000000000000000000016000000000000000000000000000000000000000000000000000000000666ee67800000000000000000000000000000000000000000000000000000000000000000000000000000000000000000000000000000000000000000000000000000000000000000000000000000000000000000000000000000000000000000000000000000000000000000000000000000000000000000000000000000000000000c000000000000000000000000000000000000000000000000000000000000000010000000000000000000000000000000000000000000000000000000000000000",
            "debugEnable": true,
            "errorInfo": "",
            "eventCount": 3,
            "feeRecipient": "0x4838b106fce9647bdf1e7877bf73ce8b0bad5f97",
            "formatValue": "0",
            "gasLimit": 148041,
            "gasPrice": "4",
            "gasUsed": 140628,
            "intTxnCount": 7,
            "internalRevert": false,
            "internalRevertMessage": "",
            "isContractCreation": false,
            "isFlashloan": false,
            "maxFee": "",
            "nonce": 2527,
            "overwritedBlockNumber": -1,
            "priorityFee": "",
            "receiver": "0x157be16daa4498b555654e1705eaec7dee9970c4",
            "revertMessage": "",
            "sender": "0xd6b1782a806d3e6ab40dec1913941bd4367c6ea8",
            "simulationEnable": true,
            "sourceTxnHash": "0xc7183f1bc08facaf8fcb81f01a1807ff00b4869ee4b2aa0d5729f2474469189f",
            "status": true,
            "timestamp": "2024-06-16T11:20:11Z",
            "transactionFee": "0.000562512",
            "txnHash": "0xc7183f1bc08facaf8fcb81f01a1807ff00b4869ee4b2aa0d5729f2474469189f",
            "txnIndex": 102,
            "type": 0,
            "value": "0"
        },
        "fund_flow": [
            {
                "amount": "101.9",
                "from": "0xc4c73fecf1f544c62be072112f5452c758ef0e96",
                "id": 1,
                "isERC1155": false,
                "isERC721": false,
                "isReverted": false,
                "order": 1,
                "to": "0x157be16daa4498b555654e1705eaec7dee9970c4",
                "token": "0xa0b86991c6218b36c1d19d4a2e9eb0ce3606eb48"
            }
        ],
        "token_infos": [
            {
                "address": "0xa0b86991c6218b36c1d19d4a2e9eb0ce3606eb48",
                "decimals": 6
            },
            {
                "address": "0xc02aaa39b223fe8d0a0e5c4f27ead9083c756cc2",
                "decimals": 18
            },
            {
                "address": "0xeeeeeeeeeeeeeeeeeeeeeeeeeeeeeeeeeeeeeeee",
                "decimals": 18
            }
        ]
    },
    "address_label": {
        "labels": [
            {
                "address": "0x800c32eaa2a6c93cf4cb51794450ed77fbfbb172",
                "label": "SignatureChecker"
            },
            {
                "address": "0x43506849d7c04f9138d1a2050bbf3a0c054402dd",
                "label": "FiatTokenV2_2"
            },
            {
                "address": "0xa4278af4fc6bf6469eb480f675379f7ea1768cea",
                "label": "TransparentUpgradeableProxy"
            },
            {
                "address": "0x157be16daa4498b555654e1705eaec7dee9970c4",
                "label": "TransparentUpgradeableProxy_157b_70c4"
            },
            {
                "address": "0xa0b86991c6218b36c1d19d4a2e9eb0ce3606eb48",
                "label": "Circle: USDC Token"
            },
            {
                "address": "0x0000000000000000000000000000000000000001",
                "label": "Precompiled"
            },
            {
                "address": "0x0000000000000000000000000000000000000002",
                "label": "Precompiled"
            },
            {
                "address": "0x0000000000000000000000000000000000000003",
                "label": "Precompiled"
            },
            {
                "address": "0x0000000000000000000000000000000000000004",
                "label": "Precompiled"
            },
            {
                "address": "0xeeeeeeeeeeeeeeeeeeeeeeeeeeeeeeeeeeeeeeee",
                "label": "Ether"
            }
        ]
    },
    "trace": {
        "accountLabels": null,
        "dataMap": {
            "-1": {
                "invocation": {
                    "address": "0xd6b1782a806d3e6ab40dec1913941bd4367c6ea8",
                    "callData": "",
                    "decodedMethod": null,
                    "errorInfo": "",
                    "fromAddress": "",
                    "gasUsed": 0,
                    "id": -1,
                    "methodDecoded": false,
                    "operation": "",
                    "output": "",
                    "revert": false,
                    "revertMessage": "",
                    "selector": "",
                    "status": false,
                    "value": ""
                },
                "nodeType": 0
            },
            "0": {
                "invocation": {
                    "address": "0x157be16daa4498b555654e1705eaec7dee9970c4",
                    "callData": "0x000000000000000000000000644692576e1891143d25448e98a56965127e2fee0000000000000000000000000000000000000000000000000000000000000006000000000000000000000000c4c73fecf1f544c62be072112f5452c758ef0e960000000000000000000000000000000000000000000000000000000000000001000000000000000000000000000000000000000000000000000000000000000000000000000000000000000000000000000000000000000000000000666ee67873b9f5df84f21891184d6f55f40916f58910fbc0d597e399da132ecf242027b4000000000000000000000000000000000000000000000000000000000000001ca3de37bab58571e2087a15c3d872b86e92bed3a9fc1185a8ed541bb286c36b3308bfeca45a4c78ddc6a496a00281c08de70f3315db64cddc9fbd7085292006d0000000000000000000000000000000000000000000000000000000000000016000000000000000000000000000000000000000000000000000000000666ee67800000000000000000000000000000000000000000000000000000000000000000000000000000000000000000000000000000000000000000000000000000000000000000000000000000000000000000000000000000000000000000000000000000000000000000000000000000000000000000000000000000000000000c000000000000000000000000000000000000000000000000000000000000000010000000000000000000000000000000000000000000000000000000000000000",
                    "decodedMethod": null,
                    "errorInfo": "",
                    "fromAddress": "0xd6b1782a806d3e6ab40dec1913941bd4367c6ea8",
                    "gasUsed": 140628,
                    "id": 0,
                    "methodDecoded": false,
                    "operation": "CALL",
                    "output": "",
                    "revert": false,
                    "revertMessage": "",
                    "selector": "0x6df91df7",
                    "status": true,
                    "value": "0"
                },
                "nodeType": 0
            },
            "1": {
                "invocation": {
                    "address": "0xb09b1d1fa570677eca73bc3c6f38fbeb84174b68",
                    "callData": "0x000000000000000000000000644692576e1891143d25448e98a56965127e2fee0000000000000000000000000000000000000000000000000000000000000006000000000000000000000000c4c73fecf1f544c62be072112f5452c758ef0e960000000000000000000000000000000000000000000000000000000000000001000000000000000000000000000000000000000000000000000000000000000000000000000000000000000000000000000000000000000000000000666ee67873b9f5df84f21891184d6f55f40916f58910fbc0d597e399da132ecf242027b4000000000000000000000000000000000000000000000000000000000000001ca3de37bab58571e2087a15c3d872b86e92bed3a9fc1185a8ed541bb286c36b3308bfeca45a4c78ddc6a496a00281c08de70f3315db64cddc9fbd7085292006d0000000000000000000000000000000000000000000000000000000000000016000000000000000000000000000000000000000000000000000000000666ee67800000000000000000000000000000000000000000000000000000000000000000000000000000000000000000000000000000000000000000000000000000000000000000000000000000000000000000000000000000000000000000000000000000000000000000000000000000000000000000000000000000000000000c000000000000000000000000000000000000000000000000000000000000000010000000000000000000000000000000000000000000000000000000000000000",
                    "decodedMethod": null,
                    "errorInfo": "",
                    "fromAddress": "0x157be16daa4498b555654e1705eaec7dee9970c4",
                    "gasUsed": 110833,
                    "id": 1,
                    "methodDecoded": false,
                    "operation": "DELEGATECALL",
                    "output": "",
                    "revert": false,
                    "revertMessage": "",
                    "selector": "0x6df91df7",
                    "status": true,
                    "value": "0"
                },
                "nodeType": 0
            },
            "10": {
                "event": {
                    "contract": "0xa0b86991c6218b36c1d19d4a2e9eb0ce3606eb48",
                    "decodedLog": {
                        "name": "Transfer",
                        "params": [
                            {
                                "name": "from",
                                "type": "address",
                                "value": "0xc4c73fecf1f544c62be072112f5452c758ef0e96"
                            },
                            {
                                "name": "to",
                                "type": "address",
                                "value": "0x157be16daa4498b555654e1705eaec7dee9970c4"
                            },
                            {
                                "decimalAvailable": true,
                                "name": "value",
                                "type": "uint256",
                                "value": "101,900,000"
                            }
                        ],
                        "signature": "Transfer(address,address,uint256)"
                    },
                    "id": 10,
                    "logData": "0x000000000000000000000000000000000000000000000000000000000612dee0",
                    "logDecoded": true,
                    "operation": "EVENT",
                    "revert": false,
                    "status": true,
                    "topics": [
                        "0xddf252ad1be2c89b69c2b068fc378daa952ba7f163c4a11628f55a4df523b3ef",
                        "0x000000000000000000000000c4c73fecf1f544c62be072112f5452c758ef0e96",
                        "0x000000000000000000000000157be16daa4498b555654e1705eaec7dee9970c4"
                    ]
                },
                "nodeType": 1
            },
            "2": {
                "invocation": {
                    "address": "0xa4278af4fc6bf6469eb480f675379f7ea1768cea",
                    "callData": "0x0000000000000000000000000000000000000000000000000000000000000040000000000000000000000000c4c73fecf1f544c62be072112f5452c758ef0e960000000000000000000000000000000000000000000000000000000000000000",
                    "decodedMethod": {
                        "callParams": [
                            {
                                "name": "_merkleProof",
                                "type": "bytes32[]",
                                "value": []
                            },
                            {
                                "name": "wallet",
                                "type": "address",
                                "value": "0xc4c73fecf1f544c62be072112f5452c758ef0e96"
                            }
                        ],
                        "constructorArguments": "",
                        "name": "checkWhitelist",
                        "returnParams": [
                            {
                                "name": "",
                                "type": "bool",
                                "value": true
                            }
                        ],
                        "signature": "checkWhitelist(bytes32[],address)"
                    },
                    "errorInfo": "",
                    "fromAddress": "0x157be16daa4498b555654e1705eaec7dee9970c4",
                    "gasUsed": 10192,
                    "id": 2,
                    "methodDecoded": true,
                    "operation": "STATICCALL",
                    "output": "0x0000000000000000000000000000000000000000000000000000000000000001",
                    "revert": false,
                    "revertMessage": "",
                    "selector": "0x1933faac",
                    "status": true,
                    "value": "0"
                },
                "nodeType": 0
            },
            "3": {
                "invocation": {
                    "address": "0x395206ae0ce607f9e4ce1e8e305ba1a364ed99ca",
                    "callData": "0x0000000000000000000000000000000000000000000000000000000000000040000000000000000000000000c4c73fecf1f544c62be072112f5452c758ef0e960000000000000000000000000000000000000000000000000000000000000000",
                    "decodedMethod": {
                        "callParams": [
                            {
                                "name": "_merkleProof",
                                "type": "bytes32[]",
                                "value": []
                            },
                            {
                                "name": "wallet",
                                "type": "address",
                                "value": "0xc4c73fecf1f544c62be072112f5452c758ef0e96"
                            }
                        ],
                        "constructorArguments": "",
                        "name": "checkWhitelist",
                        "returnParams": [
                            {
                                "name": "",
                                "type": "bool",
                                "value": true
                            }
                        ],
                        "signature": "checkWhitelist(bytes32[],address)"
                    },
                    "errorInfo": "",
                    "fromAddress": "0xa4278af4fc6bf6469eb480f675379f7ea1768cea",
                    "gasUsed": 2864,
                    "id": 3,
                    "methodDecoded": true,
                    "operation": "DELEGATECALL",
                    "output": "0x0000000000000000000000000000000000000000000000000000000000000001",
                    "revert": false,
                    "revertMessage": "",
                    "selector": "0x1933faac",
                    "status": true,
                    "value": "0"
                },
                "nodeType": 0
            },
            "4": {
                "event": {
                    "contract": "0x157be16daa4498b555654e1705eaec7dee9970c4",
                    "decodedLog": {
                        "name": "InvestmentReceived",
                        "params": [
                            {
                                "name": "collection",
                                "type": "address",
                                "value": "0x644692576e1891143d25448e98a56965127e2fee"
                            },
                            {
                                "name": "tokenId",
                                "type": "uint256",
                                "value": "6"
                            },
                            {
                                "name": "investor",
                                "type": "address",
                                "value": "0xc4c73fecf1f544c62be072112f5452c758ef0e96"
                            },
                            {
                                "name": "amount",
                                "type": "uint256",
                                "value": "100,000,000"
                            },
                            {
                                "name": "raiseCompleted",
                                "type": "bool",
                                "value": false
                            }
                        ],
                        "signature": "InvestmentReceived(address,address,uint256,uint256,bool)"
                    },
                    "id": 4,
                    "logData": "0x000000000000000000000000c4c73fecf1f544c62be072112f5452c758ef0e960000000000000000000000000000000000000000000000000000000005f5e1000000000000000000000000000000000000000000000000000000000000000000",
                    "logDecoded": true,
                    "operation": "EVENT",
                    "revert": false,
                    "status": true,
                    "topics": [
                        "0xce9c9a4fbd21cc00da655dfb723558549fb117ef39c738c69193194dd6a3841b",
                        "0x000000000000000000000000644692576e1891143d25448e98a56965127e2fee",
                        "0x0000000000000000000000000000000000000000000000000000000000000006"
                    ]
                },
                "nodeType": 1
            },
            "5": {
                "invocation": {
                    "address": "0xa0b86991c6218b36c1d19d4a2e9eb0ce3606eb48",
                    "callData": "0x000000000000000000000000c4c73fecf1f544c62be072112f5452c758ef0e96000000000000000000000000157be16daa4498b555654e1705eaec7dee9970c4000000000000000000000000000000000000000000000000000000000612dee0000000000000000000000000000000000000000000000000000000000000000000000000000000000000000000000000000000000000000000000000666ee67873b9f5df84f21891184d6f55f40916f58910fbc0d597e399da132ecf242027b4000000000000000000000000000000000000000000000000000000000000001ca3de37bab58571e2087a15c3d872b86e92bed3a9fc1185a8ed541bb286c36b3308bfeca45a4c78ddc6a496a00281c08de70f3315db64cddc9fbd7085292006d0",
                    "decodedMethod": {
                        "callParams": [
                            {
                                "name": "from",
                                "type": "address",
                                "value": "0xc4c73fecf1f544c62be072112f5452c758ef0e96"
                            },
                            {
                                "name": "to",
                                "type": "address",
                                "value": "0x157be16daa4498b555654e1705eaec7dee9970c4"
                            },
                            {
                                "name": "value",
                                "type": "uint256",
                                "value": "101,900,000"
                            },
                            {
                                "name": "validAfter",
                                "type": "uint256",
                                "value": "0"
                            },
                            {
                                "name": "validBefore",
                                "type": "uint256",
                                "value": "1,718,543,992"
                            },
                            {
                                "name": "nonce",
                                "type": "bytes32",
                                "value": "0x73b9f5df84f21891184d6f55f40916f58910fbc0d597e399da132ecf242027b4"
                            },
                            {
                                "name": "v",
                                "type": "uint8",
                                "value": "28"
                            },
                            {
                                "name": "r",
                                "type": "bytes32",
                                "value": "0xa3de37bab58571e2087a15c3d872b86e92bed3a9fc1185a8ed541bb286c36b33"
                            },
                            {
                                "name": "s",
                                "type": "bytes32",
                                "value": "0x08bfeca45a4c78ddc6a496a00281c08de70f3315db64cddc9fbd7085292006d0"
                            }
                        ],
                        "constructorArguments": "",
                        "name": "transferWithAuthorization",
                        "returnParams": [],
                        "signature": "transferWithAuthorization(address,address,uint256,uint256,uint256,bytes32,uint8,bytes32,bytes32)"
                    },
                    "errorInfo": "",
                    "fromAddress": "0x157be16daa4498b555654e1705eaec7dee9970c4",
                    "gasUsed": 61897,
                    "id": 5,
                    "methodDecoded": true,
                    "operation": "CALL",
                    "output": "",
                    "revert": false,
                    "revertMessage": "",
                    "selector": "0xe3ee160e",
                    "status": true,
                    "value": "0"
                },
                "nodeType": 0
            },
            "6": {
                "invocation": {
                    "address": "0x43506849d7c04f9138d1a2050bbf3a0c054402dd",
                    "callData": "0x000000000000000000000000c4c73fecf1f544c62be072112f5452c758ef0e96000000000000000000000000157be16daa4498b555654e1705eaec7dee9970c4000000000000000000000000000000000000000000000000000000000612dee0000000000000000000000000000000000000000000000000000000000000000000000000000000000000000000000000000000000000000000000000666ee67873b9f5df84f21891184d6f55f40916f58910fbc0d597e399da132ecf242027b4000000000000000000000000000000000000000000000000000000000000001ca3de37bab58571e2087a15c3d872b86e92bed3a9fc1185a8ed541bb286c36b3308bfeca45a4c78ddc6a496a00281c08de70f3315db64cddc9fbd7085292006d0",
                    "decodedMethod": {
                        "callParams": [
                            {
                                "name": "from",
                                "type": "address",
                                "value": "0xc4c73fecf1f544c62be072112f5452c758ef0e96"
                            },
                            {
                                "name": "to",
                                "type": "address",
                                "value": "0x157be16daa4498b555654e1705eaec7dee9970c4"
                            },
                            {
                                "name": "value",
                                "type": "uint256",
                                "value": "101,900,000"
                            },
                            {
                                "name": "validAfter",
                                "type": "uint256",
                                "value": "0"
                            },
                            {
                                "name": "validBefore",
                                "type": "uint256",
                                "value": "1,718,543,992"
                            },
                            {
                                "name": "nonce",
                                "type": "bytes32",
                                "value": "0x73b9f5df84f21891184d6f55f40916f58910fbc0d597e399da132ecf242027b4"
                            },
                            {
                                "name": "v",
                                "type": "uint8",
                                "value": "28"
                            },
                            {
                                "name": "r",
                                "type": "bytes32",
                                "value": "0xa3de37bab58571e2087a15c3d872b86e92bed3a9fc1185a8ed541bb286c36b33"
                            },
                            {
                                "name": "s",
                                "type": "bytes32",
                                "value": "0x08bfeca45a4c78ddc6a496a00281c08de70f3315db64cddc9fbd7085292006d0"
                            }
                        ],
                        "constructorArguments": "",
                        "name": "transferWithAuthorization",
                        "returnParams": [],
                        "signature": "transferWithAuthorization(address,address,uint256,uint256,uint256,bytes32,uint8,bytes32,bytes32)"
                    },
                    "errorInfo": "",
                    "fromAddress": "0xa0b86991c6218b36c1d19d4a2e9eb0ce3606eb48",
                    "gasUsed": 54569,
                    "id": 6,
                    "methodDecoded": true,
                    "operation": "DELEGATECALL",
                    "output": "",
                    "revert": false,
                    "revertMessage": "",
                    "selector": "0xe3ee160e",
                    "status": true,
                    "value": "0"
                },
                "nodeType": 0
            },
            "7": {
                "invocation": {
                    "address": "0x800c32eaa2a6c93cf4cb51794450ed77fbfbb172",
                    "callData": "0x000000000000000000000000c4c73fecf1f544c62be072112f5452c758ef0e967eca93f23b4551e565d33eabaed0829163bac634c6438ee1cc5cacbbe687f44400000000000000000000000000000000000000000000000000000000000000600000000000000000000000000000000000000000000000000000000000000041a3de37bab58571e2087a15c3d872b86e92bed3a9fc1185a8ed541bb286c36b3308bfeca45a4c78ddc6a496a00281c08de70f3315db64cddc9fbd7085292006d01c00000000000000000000000000000000000000000000000000000000000000",
                    "decodedMethod": {
                        "callParams": [
                            {
                                "name": "signer",
                                "type": "address",
                                "value": "0xc4c73fecf1f544c62be072112f5452c758ef0e96"
                            },
                            {
                                "name": "digest",
                                "type": "bytes32",
                                "value": "0x7eca93f23b4551e565d33eabaed0829163bac634c6438ee1cc5cacbbe687f444"
                            },
                            {
                                "name": "signature",
                                "type": "bytes",
                                "value": "0xa3de37bab58571e2087a15c3d872b86e92bed3a9fc1185a8ed541bb286c36b3308bfeca45a4c78ddc6a496a00281c08de70f3315db64cddc9fbd7085292006d01c"
                            }
                        ],
                        "constructorArguments": "",
                        "name": "isValidSignatureNow",
                        "returnParams": [
                            {
                                "name": "",
                                "type": "bool",
                                "value": true
                            }
                        ],
                        "signature": "isValidSignatureNow(address,bytes32,bytes)"
                    },
                    "errorInfo": "",
                    "fromAddress": "0xa0b86991c6218b36c1d19d4a2e9eb0ce3606eb48",
                    "gasUsed": 6897,
                    "id": 7,
                    "methodDecoded": true,
                    "operation": "DELEGATECALL",
                    "output": "0x0000000000000000000000000000000000000000000000000000000000000001",
                    "revert": false,
                    "revertMessage": "",
                    "selector": "0x6ccea652",
                    "status": true,
                    "value": "0"
                },
                "nodeType": 0
            },
            "8": {
                "invocation": {
                    "address": "0x0000000000000000000000000000000000000001",
                    "callData": "0x3b4551e565d33eabaed0829163bac634c6438ee1cc5cacbbe687f444000000000000000000000000000000000000000000000000000000000000001ca3de37bab58571e2087a15c3d872b86e92bed3a9fc1185a8ed541bb286c36b3308bfeca45a4c78ddc6a496a00281c08de70f3315db64cddc9fbd7085292006d0",
                    "decodedMethod": {
                        "callParams": [
                            {
                                "name": "hash",
                                "type": "bytes32",
                                "value": "0x7eca93f23b4551e565d33eabaed0829163bac634c6438ee1cc5cacbbe687f444"
                            },
                            {
                                "name": "v",
                                "type": "uint256",
                                "value": "28"
                            },
                            {
                                "name": "r",
                                "type": "bytes32",
                                "value": "0xa3de37bab58571e2087a15c3d872b86e92bed3a9fc1185a8ed541bb286c36b33"
                            },
                            {
                                "name": "s",
                                "type": "bytes32",
                                "value": "0x08bfeca45a4c78ddc6a496a00281c08de70f3315db64cddc9fbd7085292006d0"
                            }
                        ],
                        "constructorArguments": "",
                        "name": "ecrecover",
                        "returnParams": [
                            {
                                "name": "",
                                "type": "address",
                                "value": "0xc4c73fecf1f544c62be072112f5452c758ef0e96"
                            }
                        ],
                        "signature": "ecrecover(bytes32,uint256,bytes32,bytes32)"
                    },
                    "errorInfo": "",
                    "fromAddress": "0xa0b86991c6218b36c1d19d4a2e9eb0ce3606eb48",
                    "gasUsed": 3000,
                    "id": 8,
                    "methodDecoded": true,
                    "operation": "STATICCALL",
                    "output": "0x000000000000000000000000c4c73fecf1f544c62be072112f5452c758ef0e96",
                    "revert": false,
                    "revertMessage": "",
                    "selector": "0x7eca93f2",
                    "status": true,
                    "value": "0"
                },
                "nodeType": 0
            },
            "9": {
                "event": {
                    "contract": "0xa0b86991c6218b36c1d19d4a2e9eb0ce3606eb48",
                    "decodedLog": {
                        "name": "AuthorizationUsed",
                        "params": [
                            {
                                "name": "authorizer",
                                "type": "address",
                                "value": "0xc4c73fecf1f544c62be072112f5452c758ef0e96"
                            },
                            {
                                "name": "nonce",
                                "type": "bytes32",
                                "value": "0x73b9f5df84f21891184d6f55f40916f58910fbc0d597e399da132ecf242027b4"
                            }
                        ],
                        "signature": "AuthorizationUsed(address,bytes32)"
                    },
                    "id": 9,
                    "logData": "0x",
                    "logDecoded": true,
                    "operation": "EVENT",
                    "revert": false,
                    "status": true,
                    "topics": [
                        "0x98de503528ee59b575ef0c0a2576a82497bfc029a5685b209e9ec333479b10a5",
                        "0x000000000000000000000000c4c73fecf1f544c62be072112f5452c758ef0e96",
                        "0x73b9f5df84f21891184d6f55f40916f58910fbc0d597e399da132ecf242027b4"
                    ]
                },
                "nodeType": 1
            }
        },
        "gasFlame": [
            {
                "children": [
                    {
                        "children": [
                            {
                                "children": [],
                                "depth": 0,
                                "name": "Initial Gas",
                                "value": 25180
                            },
                            {
                                "children": [
                                    {
                                        "children": [
                                            {
                                                "children": [
                                                    {
                                                        "children": [],
                                                        "depth": 3,
                                                        "name": "checkWhitelist",
                                                        "value": 2864
                                                    }
                                                ],
                                                "depth": 2,
                                                "name": "checkWhitelist",
                                                "value": 10192
                                            },
                                            {
                                                "children": [
                                                    {
                                                        "children": [
                                                            {
                                                                "children": [
                                                                    {
                                                                        "children": [],
                                                                        "depth": 5,
                                                                        "name": "ecrecover",
                                                                        "value": 3000
                                                                    }
                                                                ],
                                                                "depth": 4,
                                                                "name": "isValidSignatureNow",
                                                                "value": 6897
                                                            }
                                                        ],
                                                        "depth": 3,
                                                        "name": "transferWithAuthorization",
                                                        "value": 54569
                                                    }
                                                ],
                                                "depth": 2,
                                                "name": "transferWithAuthorization",
                                                "value": 61897
                                            }
                                        ],
                                        "depth": 1,
                                        "name": "0x6df91df7",
                                        "value": 110833
                                    }
                                ],
                                "depth": 0,
                                "name": "Executed Gas",
                                "value": 118248
                            }
                        ],
                        "depth": -1,
                        "name": "Actual Gas Used",
                        "value": 140628
                    },
                    {
                        "children": [],
                        "depth": -1,
                        "name": "Refunded Gas",
                        "value": 2800
                    }
                ],
                "depth": -2,
                "name": "Total Gas",
                "value": 143428
            }
        ],
        "isConfirmed": true,
        "mainTrace": [
            {
                "children": [
                    {
                        "children": [
                            {
                                "children": [
                                    {
                                        "children": [
                                            {
                                                "children": [],
                                                "depth": 3,
                                                "id": 3,
                                                "order": 3
                                            }
                                        ],
                                        "depth": 2,
                                        "id": 2,
                                        "order": 2
                                    },
                                    {
                                        "children": [],
                                        "depth": 2,
                                        "id": 4,
                                        "order": 4
                                    },
                                    {
                                        "children": [
                                            {
                                                "children": [
                                                    {
                                                        "children": [
                                                            {
                                                                "children": [],
                                                                "depth": 5,
                                                                "id": 8,
                                                                "order": 8
                                                            }
                                                        ],
                                                        "depth": 4,
                                                        "id": 7,
                                                        "order": 7
                                                    },
                                                    {
                                                        "children": [],
                                                        "depth": 4,
                                                        "id": 9,
                                                        "order": 9
                                                    },
                                                    {
                                                        "children": [],
                                                        "depth": 4,
                                                        "id": 10,
                                                        "order": 10
                                                    }
                                                ],
                                                "depth": 3,
                                                "id": 6,
                                                "order": 6
                                            }
                                        ],
                                        "depth": 2,
                                        "id": 5,
                                        "order": 5
                                    }
                                ],
                                "depth": 1,
                                "id": 1,
                                "order": 1
                            }
                        ],
                        "depth": 0,
                        "id": 0,
                        "order": 0
                    }
                ],
                "depth": -1,
                "id": -1,
                "order": -1
            }
        ],
        "mainTraceNodeCount": 11,
        "parentIdMap": {
            "0": -1,
            "1": 0,
            "10": 6,
            "2": 1,
            "3": 2,
            "4": 1,
            "5": 1,
            "6": 5,
            "7": 6,
            "8": 7,
            "9": 6
        },
        "tidyTrace": [
            {
                "children": [
                    {
                        "children": [
                            {
                                "children": [
                                    {
                                        "children": [],
                                        "depth": 2,
                                        "id": 4,
                                        "order": 4
                                    },
                                    {
                                        "children": [
                                            {
                                                "children": [
                                                    {
                                                        "children": [],
                                                        "depth": 4,
                                                        "id": 7,
                                                        "order": 7
                                                    },
                                                    {
                                                        "children": [],
                                                        "depth": 4,
                                                        "id": 9,
                                                        "order": 9
                                                    },
                                                    {
                                                        "children": [],
                                                        "depth": 4,
                                                        "id": 10,
                                                        "order": 10
                                                    }
                                                ],
                                                "depth": 3,
                                                "id": 6,
                                                "order": 6
                                            }
                                        ],
                                        "depth": 2,
                                        "id": 5,
                                        "order": 5
                                    }
                                ],
                                "depth": 1,
                                "id": 1,
                                "order": 1
                            }
                        ],
                        "depth": 0,
                        "id": 0,
                        "order": 0
                    }
                ],
                "depth": -1,
                "id": -1,
                "order": -1
            }
        ],
        "tidyTraceNodeCount": 8
    },
    "state_change": {
        "stateChanges": [
            {
                "address": "0x157be16daa4498b555654e1705eaec7dee9970c4",
                "erc": "",
                "slots": [
                    {
                        "current": "0x0000000000000000000019aca0b86991c6218b36c1d19d4a2e9eb0ce3606eb48",
                        "key": "0xbe7b82b5b1413dffda09eb2f5e1e42d724add7309237614b26c27ef0ac8552b6",
                        "prev": "0x0000000000000000000019ada0b86991c6218b36c1d19d4a2e9eb0ce3606eb48"
                    },
                    {
                        "current": "0x0000000000000000000000000000000000000000000000000000000000000002",
                        "key": "0x99f0abc021f87dce2e225f827a53646968f87cbf778bc2d9408d7078bd11a1a9",
                        "prev": "0x0000000000000000000000000000000000000000000000000000000000000001"
                    }
                ],
                "storageVariables": []
            },
            {
                "address": "0xa0b86991c6218b36c1d19d4a2e9eb0ce3606eb48",
                "erc": "ERC-20",
                "slots": [
                    {
                        "current": "0x0000000000000000000000000000000000000000000000000000000000000001",
                        "key": "0xde5376c77c29a8580a00c25e5b08b8657560257a4cb9d1ac96ef1dbeb2e219f6",
                        "prev": "0x0000000000000000000000000000000000000000000000000000000000000000"
                    },
                    {
                        "current": "0x0000000000000000000000000000000000000000000000000000000000401640",
                        "key": "0x04801f20441ff9cec95bd9681e567bd6ea1ad78e7ad2045f173e41e5945b7880",
                        "prev": "0x000000000000000000000000000000000000000000000000000000000652f520"
                    },
                    {
                        "current": "0x000000000000000000000000000000000000000000000000000000eeeae08880",
                        "key": "0x79b8f5c5deb21e8f36e90c0759324b2ce9f8d6fe7a324a646fe619491bbbeb25",
                        "prev": "0x000000000000000000000000000000000000000000000000000000eee4cda9a0"
                    }
                ],
                "storageVariables": [
                    {
                        "name": "_authorizationStates",
                        "type": "mapping(address => mapping(bytes32 => bool))",
                        "value": {
                            "pairs": [
                                {
                                    "key": "0xc4c73fecf1f544c62be072112f5452c758ef0e96",
                                    "value": {
                                        "pairs": [
                                            {
                                                "key": "0x73b9f5df84f21891184d6f55f40916f58910fbc0d597e399da132ecf242027b4",
                                                "value": {
                                                    "current": "true",
                                                    "prev": "false",
                                                    "typeTag": 1
                                                }
                                            }
                                        ],
                                        "typeTag": 4
                                    }
                                }
                            ],
                            "typeTag": 4
                        }
                    },
                    {
                        "name": "balanceAndBlacklistStates",
                        "type": "mapping(address => uint256)",
                        "value": {
                            "pairs": [
                                {
                                    "key": "0x157be16daa4498b555654e1705eaec7dee9970c4",
                                    "value": {
                                        "current": "1026142800000",
                                        "prev": "1026040900000",
                                        "typeTag": 1
                                    }
                                },
                                {
                                    "key": "0xc4c73fecf1f544c62be072112f5452c758ef0e96",
                                    "value": {
                                        "current": "4200000",
                                        "prev": "106100000",
                                        "typeTag": 1
                                    }
                                }
                            ],
                            "typeTag": 4
                        }
                    }
                ]
            }
        ]
    }
}