{
    "balance_change": {
        "balanceChanges": [
            {
                "account": "0x5b78545992f94eba967108000176c33ded53f816",
                "assets": [
                    {
                        "address": "0xeeeeeeeeeeeeeeeeeeeeeeeeeeeeeeeeeeeeeeee",
                        "amount": "0.047",
                        "iconUrl": "https://assets.blocksec.com/image/1663669189317-3.png",
                        "isERC1155": false,
                        "isERC721": false,
                        "sign": true,
                        "value": "108.77837153900000658"
                    }
                ]
            },
            {
                "account": "0x1a2a1c938ce3ec39b6d47113c7955baa9dd454f2",
                "assets": [
                    {
                        "address": "0xc02aaa39b223fe8d0a0e5c4f27ead9083c756cc2",
                        "amount": "0.047",
                        "iconUrl": "https://assets.blocksec.com/icon/f1cb2d02c471d545bbc7722daf3277fd852d98e63d118771af7047bd8256c516.png",
                        "isERC1155": false,
                        "isERC721": false,
                        "sign": false,
                        "value": "108.77837153900000658"
                    }
                ]
            },
            {
                "account": "0xc02aaa39b223fe8d0a0e5c4f27ead9083c756cc2",
                "assets": [
                    {
                        "address": "0xeeeeeeeeeeeeeeeeeeeeeeeeeeeeeeeeeeeeeeee",
                        "amount": "0.047",
                        "iconUrl": "https://assets.blocksec.com/image/1663669189317-3.png",
                        "isERC1155": false,
                        "isERC721": false,
                        "sign": false,
                        "value": "108.77837153900000658"
                    },
                    {
                        "address": "0xc02aaa39b223fe8d0a0e5c4f27ead9083c756cc2",
                        "amount": "0.047",
                        "iconUrl": "https://assets.blocksec.com/icon/f1cb2d02c471d545bbc7722daf3277fd852d98e63d118771af7047bd8256c516.png",
                        "isERC1155": false,
                        "isERC721": false,
                        "sign": true,
                        "value": "108.77837153900000658"
                    }
                ]
            }
        ]
    },
    "profile": {
        "basic_info": {
            "baseFee": "",
            "blockNumber": 12878452,
            "callData": "0x993e1c420000000000000000000000000000000000000000000000000000000000042e600000000000000000000000005b78545992f94eba967108000176c33ded53f816000000000000000000000000c02aaa39b223fe8d0a0e5c4f27ead9083c756cc200000000000000000000000000000000000000000000000000a6fa404071800000000000000000000000000000000000000000000000000000000000000000a0000000000000000000000000000000000000000000000000000000000000014a01987c950a79482b8013d04dc67c24cc0b0be62dfc9f60d8960f882241bb7dcded24f607b9b8a0ae12c2d632490f40ca9f6b78699b19b7b11ff8149a13955a13cd1b01a4b33c5dc2807e04428af31fd1cd54421cc811ac243c83aabd1d4fefec797f977f4e38df11a19f7ae7d485ecf609d8fd4892811997235910e017fcd62a80c9d31b013e60a77df9a99695eefb1565901de59a33b3c6ea300654408add42a173a006b219854768c0f8775de33dcebd156de7f8366f8ac5881b6379344b3b839ce90ab71c01eb8e883783542bcca2ee274e46e97664662d06b2cad5ba91fb7320a71c0ae4d906634e29d847f36aaedfa5842b45363a69608a5021ec98c3b5e522e96dcfc4951b0166e49387be55c4d44fb05e90dff60dc0e070c454d2f056b1e91d32ef85f19117667b9d6cf37690171bac3ee04b9ad6e2bf5b37ecc4ec349e51c043bee93733c51b00000000000000000000000000000000000000000000",
            "debugEnable": true,
            "errorInfo": "",
            "eventCount": 2,
            "feeRecipient": "0x5a0b54d5dc17e0aadc383d2db43b0a0d3e029c4c",
            "formatValue": "0",
            "gasLimit": 251529,
            "gasPrice": "26",
            "gasUsed": 198937,
            "intTxnCount": 23,
            "internalRevert": false,
            "internalRevertMessage": "",
            "isContractCreation": false,
            "isFlashloan": false,
            "maxFee": "",
            "nonce": 40,
            "overwritedBlockNumber": -1,
            "priorityFee": "",
            "receiver": "0x1a2a1c938ce3ec39b6d47113c7955baa9dd454f2",
            "revertMessage": "",
            "sender": "0x5b78545992f94eba967108000176c33ded53f816",
            "simulationEnable": true,
            "sourceTxnHash": "0xc7a1b5bf58fe839d4cce45b8a100b4fb77b0cd9e258a7702b014a30132bb3803",
            "status": true,
            "timestamp": "2021-07-22T20:56:48Z",
            "transactionFee": "0.005172362",
            "txnHash": "0xc7a1b5bf58fe839d4cce45b8a100b4fb77b0cd9e258a7702b014a30132bb3803",
            "txnIndex": 20,
            "type": 0,
            "value": "0"
        },
        "fund_flow": [
            {
                "amount": "0.047",
                "from": "0xc02aaa39b223fe8d0a0e5c4f27ead9083c756cc2",
                "id": 1,
                "isERC1155": false,
                "isERC721": false,
                "isReverted": false,
                "order": 1,
                "to": "0x1a2a1c938ce3ec39b6d47113c7955baa9dd454f2",
                "token": "0xeeeeeeeeeeeeeeeeeeeeeeeeeeeeeeeeeeeeeeee"
            },
            {
                "amount": "0.047",
                "from": "0x1a2a1c938ce3ec39b6d47113c7955baa9dd454f2",
                "id": 2,
                "isERC1155": false,
                "isERC721": false,
                "isReverted": false,
                "order": 2,
                "to": "0xc02aaa39b223fe8d0a0e5c4f27ead9083c756cc2",
                "token": "0xc02aaa39b223fe8d0a0e5c4f27ead9083c756cc2"
            },
            {
                "amount": "0.047",
                "from": "0x1a2a1c938ce3ec39b6d47113c7955baa9dd454f2",
                "id": 3,
                "isERC1155": false,
                "isERC721": false,
                "isReverted": false,
                "order": 3,
                "to": "0x5b78545992f94eba967108000176c33ded53f816",
                "token": "0xeeeeeeeeeeeeeeeeeeeeeeeeeeeeeeeeeeeeeeee"
            }
        ],
        "token_infos": [
            {
                "address": "0xc02aaa39b223fe8d0a0e5c4f27ead9083c756cc2",
                "decimals": 18
            },
            {
                "address": "0xeeeeeeeeeeeeeeeeeeeeeeeeeeeeeeeeeeeeeeee",
                "decimals": 18
            }
        ]
    },
    "address_label": {
        "labels": [
            {
                "address": "0xc02aaa39b223fe8d0a0e5c4f27ead9083c756cc2",
                "label": "Wrapped Ether (WETH)"
            },
            {
                "address": "0x0000000000000000000000000000000000000001",
                "label": "Precompiled"
            },
            {
                "address": "0x0000000000000000000000000000000000000003",
                "label": "Precompiled"
            },
            {
                "address": "0x0000000000000000000000000000000000000004",
                "label": "Precompiled"
            },
            {
                "address": "0xeeeeeeeeeeeeeeeeeeeeeeeeeeeeeeeeeeeeeeee",
                "label": "Ether"
            },
            {
                "address": "0x1a2a1c938ce3ec39b6d47113c7955baa9dd454f2",
                "label": "Axie Infinity: Ronin Bridge"
            },
            {
                "address": "0x8407dc57739bcda7aa53ca6f12f82f9d51c2f21e",
                "label": "MainchainGatewayManager"
            },
            {
                "address": "0x33e71e649abdc09f650ad44139674828a2075ad2",
                "label": "Registry"
            },
            {
                "address": "0x42b19dca30fd612b1757682c074497847f2b57e0",
                "label": "MainchainValidator"
            },
            {
                "address": "0x0000000000000000000000000000000000000002",
                "label": "Precompiled"
            }
        ]
    },
    "trace": {
        "accountLabels": null,
        "dataMap": {
            "-1": {
                "invocation": {
                    "address": "0x5b78545992f94eba967108000176c33ded53f816",
                    "callData": "",
                    "decodedMethod": null,
                    "errorInfo": "",
                    "fromAddress": "",
                    "gasUsed": 0,
                    "id": -1,
                    "methodDecoded": false,
                    "operation": "",
                    "output": "",
                    "revert": false,
                    "revertMessage": "",
                    "selector": "",
                    "status": false,
                    "value": ""
                },
                "nodeType": 0
            },
            "0": {
                "invocation": {
                    "address": "0x1a2a1c938ce3ec39b6d47113c7955baa9dd454f2",
                    "callData": "0x0000000000000000000000000000000000000000000000000000000000042e600000000000000000000000005b78545992f94eba967108000176c33ded53f816000000000000000000000000c02aaa39b223fe8d0a0e5c4f27ead9083c756cc200000000000000000000000000000000000000000000000000a6fa404071800000000000000000000000000000000000000000000000000000000000000000a0000000000000000000000000000000000000000000000000000000000000014a01987c950a79482b8013d04dc67c24cc0b0be62dfc9f60d8960f882241bb7dcded24f607b9b8a0ae12c2d632490f40ca9f6b78699b19b7b11ff8149a13955a13cd1b01a4b33c5dc2807e04428af31fd1cd54421cc811ac243c83aabd1d4fefec797f977f4e38df11a19f7ae7d485ecf609d8fd4892811997235910e017fcd62a80c9d31b013e60a77df9a99695eefb1565901de59a33b3c6ea300654408add42a173a006b219854768c0f8775de33dcebd156de7f8366f8ac5881b6379344b3b839ce90ab71c01eb8e883783542bcca2ee274e46e97664662d06b2cad5ba91fb7320a71c0ae4d906634e29d847f36aaedfa5842b45363a69608a5021ec98c3b5e522e96dcfc4951b0166e49387be55c4d44fb05e90dff60dc0e070c454d2f056b1e91d32ef85f19117667b9d6cf37690171bac3ee04b9ad6e2bf5b37ecc4ec349e51c043bee93733c51b00000000000000000000000000000000000000000000",
                    "decodedMethod": {
                        "callParams": [
                            {
                                "name": "_withdrawalId",
                                "type": "uint256",
                                "value": "274,016"
                            },
                            {
                                "name": "_user",
                                "type": "address",
                                "value": "0x5b78545992f94eba967108000176c33ded53f816"
                            },
                            {
                                "name": "_token",
                                "type": "address",
                                "value": "0xc02aaa39b223fe8d0a0e5c4f27ead9083c756cc2"
                            },
                            {
                                "name": "_amount",
                                "type": "uint256",
                                "value": "47,000,000,000,000,000"
                            },
                            {
                                "name": "_signatures",
                                "type": "bytes",
                                "value": "0x01987c950a79482b8013d04dc67c24cc0b0be62dfc9f60d8960f882241bb7dcded24f607b9b8a0ae12c2d632490f40ca9f6b78699b19b7b11ff8149a13955a13cd1b01a4b33c5dc2807e04428af31fd1cd54421cc811ac243c83aabd1d4fefec797f977f4e38df11a19f7ae7d485ecf609d8fd4892811997235910e017fcd62a80c9d31b013e60a77df9a99695eefb1565901de59a33b3c6ea300654408add42a173a006b219854768c0f8775de33dcebd156de7f8366f8ac5881b6379344b3b839ce90ab71c01eb8e883783542bcca2ee274e46e97664662d06b2cad5ba91fb7320a71c0ae4d906634e29d847f36aaedfa5842b45363a69608a5021ec98c3b5e522e96dcfc4951b0166e49387be55c4d44fb05e90dff60dc0e070c454d2f056b1e91d32ef85f19117667b9d6cf37690171bac3ee04b9ad6e2bf5b37ecc4ec349e51c043bee93733c51b"
                            }
                        ],
                        "constructorArguments": "",
                        "name": "withdrawERC20For",
                        "returnParams": [],
                        "signature": "withdrawERC20For(uint256,address,address,uint256,bytes)"
                    },
                    "errorInfo": "",
                    "fromAddress": "0x5b78545992f94eba967108000176c33ded53f816",
                    "gasUsed": 198937,
                    "id": 0,
                    "methodDecoded": true,
                    "operation": "CALL",
                    "output": "",
                    "revert": false,
                    "revertMessage": "",
                    "selector": "0x993e1c42",
                    "status": true,
                    "value": "0"
                },
                "nodeType": 0
            },
            "1": {
                "invocation": {
                    "address": "0x8407dc57739bcda7aa53ca6f12f82f9d51c2f21e",
                    "callData": "0x0000000000000000000000000000000000000000000000000000000000042e600000000000000000000000005b78545992f94eba967108000176c33ded53f816000000000000000000000000c02aaa39b223fe8d0a0e5c4f27ead9083c756cc200000000000000000000000000000000000000000000000000a6fa404071800000000000000000000000000000000000000000000000000000000000000000a0000000000000000000000000000000000000000000000000000000000000014a01987c950a79482b8013d04dc67c24cc0b0be62dfc9f60d8960f882241bb7dcded24f607b9b8a0ae12c2d632490f40ca9f6b78699b19b7b11ff8149a13955a13cd1b01a4b33c5dc2807e04428af31fd1cd54421cc811ac243c83aabd1d4fefec797f977f4e38df11a19f7ae7d485ecf609d8fd4892811997235910e017fcd62a80c9d31b013e60a77df9a99695eefb1565901de59a33b3c6ea300654408add42a173a006b219854768c0f8775de33dcebd156de7f8366f8ac5881b6379344b3b839ce90ab71c01eb8e883783542bcca2ee274e46e97664662d06b2cad5ba91fb7320a71c0ae4d906634e29d847f36aaedfa5842b45363a69608a5021ec98c3b5e522e96dcfc4951b0166e49387be55c4d44fb05e90dff60dc0e070c454d2f056b1e91d32ef85f19117667b9d6cf37690171bac3ee04b9ad6e2bf5b37ecc4ec349e51c043bee93733c51b00000000000000000000000000000000000000000000",
                    "decodedMethod": {
                        "callParams": [
                            {
                                "name": "_withdrawalId",
                                "type": "uint256",
                                "value": "274,016"
                            },
                            {
                                "name": "_user",
                                "type": "address",
                                "value": "0x5b78545992f94eba967108000176c33ded53f816"
                            },
                            {
                                "name": "_token",
                                "type": "address",
                                "value": "0xc02aaa39b223fe8d0a0e5c4f27ead9083c756cc2"
                            },
                            {
                                "name": "_amount",
                                "type": "uint256",
                                "value": "47,000,000,000,000,000"
                            },
                            {
                                "name": "_signatures",
                                "type": "bytes",
                                "value": "0x01987c950a79482b8013d04dc67c24cc0b0be62dfc9f60d8960f882241bb7dcded24f607b9b8a0ae12c2d632490f40ca9f6b78699b19b7b11ff8149a13955a13cd1b01a4b33c5dc2807e04428af31fd1cd54421cc811ac243c83aabd1d4fefec797f977f4e38df11a19f7ae7d485ecf609d8fd4892811997235910e017fcd62a80c9d31b013e60a77df9a99695eefb1565901de59a33b3c6ea300654408add42a173a006b219854768c0f8775de33dcebd156de7f8366f8ac5881b6379344b3b839ce90ab71c01eb8e883783542bcca2ee274e46e97664662d06b2cad5ba91fb7320a71c0ae4d906634e29d847f36aaedfa5842b45363a69608a5021ec98c3b5e522e96dcfc4951b0166e49387be55c4d44fb05e90dff60dc0e070c454d2f056b1e91d32ef85f19117667b9d6cf37690171bac3ee04b9ad6e2bf5b37ecc4ec349e51c043bee93733c51b"
                            }
                        ],
                        "constructorArguments": "",
                        "name": "withdrawERC20For",
                        "returnParams": [],
                        "signature": "withdrawERC20For(uint256,address,address,uint256,bytes)"
                    },
                    "errorInfo": "",
                    "fromAddress": "0x1a2a1c938ce3ec39b6d47113c7955baa9dd454f2",
                    "gasUsed": 165974,
                    "id": 1,
                    "methodDecoded": true,
                    "operation": "DELEGATECALL",
                    "output": "",
                    "revert": false,
                    "revertMessage": "",
                    "selector": "0x993e1c42",
                    "status": true,
                    "value": "0"
                },
                "nodeType": 0
            },
            "10": {
                "invocation": {
                    "address": "0x42b19dca30fd612b1757682c074497847f2b57e0",
                    "callData": "0x00000000000000000000000070bb1fb41c8c42f6ddd53a708e2b82209495e455",
                    "decodedMethod": {
                        "callParams": [
                            {
                                "name": "_addr",
                                "type": "address",
                                "value": "0x70bb1fb41c8c42f6ddd53a708e2b82209495e455"
                            }
                        ],
                        "constructorArguments": "",
                        "name": "isValidator",
                        "returnParams": [
                            {
                                "name": "",
                                "type": "bool",
                                "value": true
                            }
                        ],
                        "signature": "isValidator(address)"
                    },
                    "errorInfo": "",
                    "fromAddress": "0x1a2a1c938ce3ec39b6d47113c7955baa9dd454f2",
                    "gasUsed": 2545,
                    "id": 10,
                    "methodDecoded": true,
                    "operation": "STATICCALL",
                    "output": "0x0000000000000000000000000000000000000000000000000000000000000001",
                    "revert": false,
                    "revertMessage": "",
                    "selector": "0xfacd743b",
                    "status": true,
                    "value": "0"
                },
                "nodeType": 0
            },
            "11": {
                "invocation": {
                    "address": "0x0000000000000000000000000000000000000001",
                    "callData": "0xa300c05ce6483f2e03be6e5e5aef8dfc54383cfc258b45c37ffb9c39000000000000000000000000000000000000000000000000000000000000001beb8e883783542bcca2ee274e46e97664662d06b2cad5ba91fb7320a71c0ae4d906634e29d847f36aaedfa5842b45363a69608a5021ec98c3b5e522e96dcfc495",
                    "decodedMethod": {
                        "callParams": [
                            {
                                "name": "hash",
                                "type": "bytes32",
                                "value": "0x457e64d4a300c05ce6483f2e03be6e5e5aef8dfc54383cfc258b45c37ffb9c39"
                            },
                            {
                                "name": "v",
                                "type": "uint256",
                                "value": "27"
                            },
                            {
                                "name": "r",
                                "type": "bytes32",
                                "value": "0xeb8e883783542bcca2ee274e46e97664662d06b2cad5ba91fb7320a71c0ae4d9"
                            },
                            {
                                "name": "s",
                                "type": "bytes32",
                                "value": "0x06634e29d847f36aaedfa5842b45363a69608a5021ec98c3b5e522e96dcfc495"
                            }
                        ],
                        "constructorArguments": "",
                        "name": "ecrecover",
                        "returnParams": [
                            {
                                "name": "",
                                "type": "address",
                                "value": "0x9d5d175c7d7dfdc7038420eb2725d4601a41b751"
                            }
                        ],
                        "signature": "ecrecover(bytes32,uint256,bytes32,bytes32)"
                    },
                    "errorInfo": "",
                    "fromAddress": "0x1a2a1c938ce3ec39b6d47113c7955baa9dd454f2",
                    "gasUsed": 3000,
                    "id": 11,
                    "methodDecoded": true,
                    "operation": "STATICCALL",
                    "output": "0x0000000000000000000000009d5d175c7d7dfdc7038420eb2725d4601a41b751",
                    "revert": false,
                    "revertMessage": "",
                    "selector": "0x457e64d4",
                    "status": true,
                    "value": "0"
                },
                "nodeType": 0
            },
            "12": {
                "invocation": {
                    "address": "0x42b19dca30fd612b1757682c074497847f2b57e0",
                    "callData": "0x0000000000000000000000009d5d175c7d7dfdc7038420eb2725d4601a41b751",
                    "decodedMethod": {
                        "callParams": [
                            {
                                "name": "_addr",
                                "type": "address",
                                "value": "0x9d5d175c7d7dfdc7038420eb2725d4601a41b751"
                            }
                        ],
                        "constructorArguments": "",
                        "name": "isValidator",
                        "returnParams": [
                            {
                                "name": "",
                                "type": "bool",
                                "value": true
                            }
                        ],
                        "signature": "isValidator(address)"
                    },
                    "errorInfo": "",
                    "fromAddress": "0x1a2a1c938ce3ec39b6d47113c7955baa9dd454f2",
                    "gasUsed": 2545,
                    "id": 12,
                    "methodDecoded": true,
                    "operation": "STATICCALL",
                    "output": "0x0000000000000000000000000000000000000000000000000000000000000001",
                    "revert": false,
                    "revertMessage": "",
                    "selector": "0xfacd743b",
                    "status": true,
                    "value": "0"
                },
                "nodeType": 0
            },
            "13": {
                "invocation": {
                    "address": "0x0000000000000000000000000000000000000001",
                    "callData": "0xa300c05ce6483f2e03be6e5e5aef8dfc54383cfc258b45c37ffb9c39000000000000000000000000000000000000000000000000000000000000001b66e49387be55c4d44fb05e90dff60dc0e070c454d2f056b1e91d32ef85f19117667b9d6cf37690171bac3ee04b9ad6e2bf5b37ecc4ec349e51c043bee93733c5",
                    "decodedMethod": {
                        "callParams": [
                            {
                                "name": "hash",
                                "type": "bytes32",
                                "value": "0x457e64d4a300c05ce6483f2e03be6e5e5aef8dfc54383cfc258b45c37ffb9c39"
                            },
                            {
                                "name": "v",
                                "type": "uint256",
                                "value": "27"
                            },
                            {
                                "name": "r",
                                "type": "bytes32",
                                "value": "0x66e49387be55c4d44fb05e90dff60dc0e070c454d2f056b1e91d32ef85f19117"
                            },
                            {
                                "name": "s",
                                "type": "bytes32",
                                "value": "0x667b9d6cf37690171bac3ee04b9ad6e2bf5b37ecc4ec349e51c043bee93733c5"
                            }
                        ],
                        "constructorArguments": "",
                        "name": "ecrecover",
                        "returnParams": [
                            {
                                "name": "",
                                "type": "address",
                                "value": "0x9edeb211cde35d6e8a0c732f9e0c786725e72fe9"
                            }
                        ],
                        "signature": "ecrecover(bytes32,uint256,bytes32,bytes32)"
                    },
                    "errorInfo": "",
                    "fromAddress": "0x1a2a1c938ce3ec39b6d47113c7955baa9dd454f2",
                    "gasUsed": 3000,
                    "id": 13,
                    "methodDecoded": true,
                    "operation": "STATICCALL",
                    "output": "0x0000000000000000000000009edeb211cde35d6e8a0c732f9e0c786725e72fe9",
                    "revert": false,
                    "revertMessage": "",
                    "selector": "0x457e64d4",
                    "status": true,
                    "value": "0"
                },
                "nodeType": 0
            },
            "14": {
                "invocation": {
                    "address": "0x42b19dca30fd612b1757682c074497847f2b57e0",
                    "callData": "0x0000000000000000000000009edeb211cde35d6e8a0c732f9e0c786725e72fe9",
                    "decodedMethod": {
                        "callParams": [
                            {
                                "name": "_addr",
                                "type": "address",
                                "value": "0x9edeb211cde35d6e8a0c732f9e0c786725e72fe9"
                            }
                        ],
                        "constructorArguments": "",
                        "name": "isValidator",
                        "returnParams": [
                            {
                                "name": "",
                                "type": "bool",
                                "value": true
                            }
                        ],
                        "signature": "isValidator(address)"
                    },
                    "errorInfo": "",
                    "fromAddress": "0x1a2a1c938ce3ec39b6d47113c7955baa9dd454f2",
                    "gasUsed": 2545,
                    "id": 14,
                    "methodDecoded": true,
                    "operation": "STATICCALL",
                    "output": "0x0000000000000000000000000000000000000000000000000000000000000001",
                    "revert": false,
                    "revertMessage": "",
                    "selector": "0xfacd743b",
                    "status": true,
                    "value": "0"
                },
                "nodeType": 0
            },
            "15": {
                "invocation": {
                    "address": "0x42b19dca30fd612b1757682c074497847f2b57e0",
                    "callData": "0x0000000000000000000000000000000000000000000000000000000000000005",
                    "decodedMethod": {
                        "callParams": [
                            {
                                "name": "_voteCount",
                                "type": "uint256",
                                "value": "5"
                            }
                        ],
                        "constructorArguments": "",
                        "name": "checkThreshold",
                        "returnParams": [
                            {
                                "name": "",
                                "type": "bool",
                                "value": true
                            }
                        ],
                        "signature": "checkThreshold(uint256)"
                    },
                    "errorInfo": "",
                    "fromAddress": "0x1a2a1c938ce3ec39b6d47113c7955baa9dd454f2",
                    "gasUsed": 6872,
                    "id": 15,
                    "methodDecoded": true,
                    "operation": "STATICCALL",
                    "output": "0x0000000000000000000000000000000000000000000000000000000000000001",
                    "revert": false,
                    "revertMessage": "",
                    "selector": "0xdafae408",
                    "status": true,
                    "value": "0"
                },
                "nodeType": 0
            },
            "16": {
                "invocation": {
                    "address": "0x33e71e649abdc09f650ad44139674828a2075ad2",
                    "callData": "0x",
                    "decodedMethod": {
                        "callParams": [],
                        "constructorArguments": "",
                        "name": "WETH_TOKEN",
                        "returnParams": [
                            {
                                "name": "",
                                "type": "string",
                                "value": "WETH_TOKEN"
                            }
                        ],
                        "signature": "WETH_TOKEN()"
                    },
                    "errorInfo": "",
                    "fromAddress": "0x1a2a1c938ce3ec39b6d47113c7955baa9dd454f2",
                    "gasUsed": 668,
                    "id": 16,
                    "methodDecoded": true,
                    "operation": "STATICCALL",
                    "output": "0x0000000000000000000000000000000000000000000000000000000000000020000000000000000000000000000000000000000000000000000000000000000a574554485f544f4b454e00000000000000000000000000000000000000000000",
                    "revert": false,
                    "revertMessage": "",
                    "selector": "0x37d277d4",
                    "status": true,
                    "value": "0"
                },
                "nodeType": 0
            },
            "17": {
                "invocation": {
                    "address": "0x33e71e649abdc09f650ad44139674828a2075ad2",
                    "callData": "0x0000000000000000000000000000000000000000000000000000000000000020000000000000000000000000000000000000000000000000000000000000000a574554485f544f4b454e00000000000000000000000000000000000000000000",
                    "decodedMethod": {
                        "callParams": [
                            {
                                "name": "_name",
                                "type": "string",
                                "value": "WETH_TOKEN"
                            }
                        ],
                        "constructorArguments": "",
                        "name": "getContract",
                        "returnParams": [
                            {
                                "name": "_address",
                                "type": "address",
                                "value": "0xc02aaa39b223fe8d0a0e5c4f27ead9083c756cc2"
                            }
                        ],
                        "signature": "getContract(string)"
                    },
                    "errorInfo": "",
                    "fromAddress": "0x1a2a1c938ce3ec39b6d47113c7955baa9dd454f2",
                    "gasUsed": 3205,
                    "id": 17,
                    "methodDecoded": true,
                    "operation": "STATICCALL",
                    "output": "0x000000000000000000000000c02aaa39b223fe8d0a0e5c4f27ead9083c756cc2",
                    "revert": false,
                    "revertMessage": "",
                    "selector": "0x35817773",
                    "status": true,
                    "value": "0"
                },
                "nodeType": 0
            },
            "18": {
                "invocation": {
                    "address": "0x33e71e649abdc09f650ad44139674828a2075ad2",
                    "callData": "0x",
                    "decodedMethod": {
                        "callParams": [],
                        "constructorArguments": "",
                        "name": "WETH_TOKEN",
                        "returnParams": [
                            {
                                "name": "",
                                "type": "string",
                                "value": "WETH_TOKEN"
                            }
                        ],
                        "signature": "WETH_TOKEN()"
                    },
                    "errorInfo": "",
                    "fromAddress": "0x1a2a1c938ce3ec39b6d47113c7955baa9dd454f2",
                    "gasUsed": 668,
                    "id": 18,
                    "methodDecoded": true,
                    "operation": "STATICCALL",
                    "output": "0x0000000000000000000000000000000000000000000000000000000000000020000000000000000000000000000000000000000000000000000000000000000a574554485f544f4b454e00000000000000000000000000000000000000000000",
                    "revert": false,
                    "revertMessage": "",
                    "selector": "0x37d277d4",
                    "status": true,
                    "value": "0"
                },
                "nodeType": 0
            },
            "19": {
                "invocation": {
                    "address": "0x33e71e649abdc09f650ad44139674828a2075ad2",
                    "callData": "0x0000000000000000000000000000000000000000000000000000000000000020000000000000000000000000000000000000000000000000000000000000000a574554485f544f4b454e00000000000000000000000000000000000000000000",
                    "decodedMethod": {
                        "callParams": [
                            {
                                "name": "_name",
                                "type": "string",
                                "value": "WETH_TOKEN"
                            }
                        ],
                        "constructorArguments": "",
                        "name": "getContract",
                        "returnParams": [
                            {
                                "name": "_address",
                                "type": "address",
                                "value": "0xc02aaa39b223fe8d0a0e5c4f27ead9083c756cc2"
                            }
                        ],
                        "signature": "getContract(string)"
                    },
                    "errorInfo": "",
                    "fromAddress": "0x1a2a1c938ce3ec39b6d47113c7955baa9dd454f2",
                    "gasUsed": 1205,
                    "id": 19,
                    "methodDecoded": true,
                    "operation": "STATICCALL",
                    "output": "0x000000000000000000000000c02aaa39b223fe8d0a0e5c4f27ead9083c756cc2",
                    "revert": false,
                    "revertMessage": "",
                    "selector": "0x35817773",
                    "status": true,
                    "value": "0"
                },
                "nodeType": 0
            },
            "2": {
                "invocation": {
                    "address": "0x33e71e649abdc09f650ad44139674828a2075ad2",
                    "callData": "0x000000000000000000000000c02aaa39b223fe8d0a0e5c4f27ead9083c756cc200000000000000000000000000000000000000000000000000000000000000140000000000000000000000000000000000000000000000000000000000000001",
                    "decodedMethod": {
                        "callParams": [
                            {
                                "name": "_token",
                                "type": "address",
                                "value": "0xc02aaa39b223fe8d0a0e5c4f27ead9083c756cc2"
                            },
                            {
                                "name": "_standard",
                                "type": "uint32",
                                "value": "20"
                            },
                            {
                                "name": "_isMainchain",
                                "type": "bool",
                                "value": true
                            }
                        ],
                        "constructorArguments": "",
                        "name": "isTokenMapped",
                        "returnParams": [
                            {
                                "name": "",
                                "type": "bool",
                                "value": true
                            }
                        ],
                        "signature": "isTokenMapped(address,uint32,bool)"
                    },
                    "errorInfo": "",
                    "fromAddress": "0x1a2a1c938ce3ec39b6d47113c7955baa9dd454f2",
                    "gasUsed": 5215,
                    "id": 2,
                    "methodDecoded": true,
                    "operation": "STATICCALL",
                    "output": "0x0000000000000000000000000000000000000000000000000000000000000001",
                    "revert": false,
                    "revertMessage": "",
                    "selector": "0x3579e67a",
                    "status": true,
                    "value": "0"
                },
                "nodeType": 0
            },
            "20": {
                "invocation": {
                    "address": "0xc02aaa39b223fe8d0a0e5c4f27ead9083c756cc2",
                    "callData": "0x00000000000000000000000000000000000000000000000000a6fa4040718000",
                    "decodedMethod": {
                        "callParams": [
                            {
                                "name": "wad",
                                "type": "uint256",
                                "value": "47,000,000,000,000,000"
                            }
                        ],
                        "constructorArguments": "",
                        "name": "withdraw",
                        "returnParams": [],
                        "signature": "withdraw(uint256)"
                    },
                    "errorInfo": "",
                    "fromAddress": "0x1a2a1c938ce3ec39b6d47113c7955baa9dd454f2",
                    "gasUsed": 14386,
                    "id": 20,
                    "methodDecoded": true,
                    "operation": "CALL",
                    "output": "",
                    "revert": false,
                    "revertMessage": "",
                    "selector": "0x2e1a7d4d",
                    "status": true,
                    "value": "0"
                },
                "nodeType": 0
            },
            "21": {
                "invocation": {
                    "address": "0x1a2a1c938ce3ec39b6d47113c7955baa9dd454f2",
                    "callData": "0x",
                    "decodedMethod": null,
                    "errorInfo": "",
                    "fromAddress": "0xc02aaa39b223fe8d0a0e5c4f27ead9083c756cc2",
                    "gasUsed": 446,
                    "id": 21,
                    "methodDecoded": false,
                    "operation": "CALL",
                    "output": "",
                    "revert": false,
                    "revertMessage": "",
                    "selector": "fallback",
                    "status": true,
                    "value": "0.047"
                },
                "nodeType": 0
            },
            "22": {
                "invocation": {
                    "address": "0x8407dc57739bcda7aa53ca6f12f82f9d51c2f21e",
                    "callData": "0x",
                    "decodedMethod": null,
                    "errorInfo": "",
                    "fromAddress": "0x1a2a1c938ce3ec39b6d47113c7955baa9dd454f2",
                    "gasUsed": 40,
                    "id": 22,
                    "methodDecoded": false,
                    "operation": "DELEGATECALL",
                    "output": "",
                    "revert": false,
                    "revertMessage": "",
                    "selector": "fallback",
                    "status": true,
                    "value": "0.047"
                },
                "nodeType": 0
            },
            "23": {
                "event": {
                    "contract": "0xc02aaa39b223fe8d0a0e5c4f27ead9083c756cc2",
                    "decodedLog": {
                        "name": "Withdrawal",
                        "params": [
                            {
                                "name": "src",
                                "type": "address",
                                "value": "0x1a2a1c938ce3ec39b6d47113c7955baa9dd454f2"
                            },
                            {
                                "name": "wad",
                                "type": "uint256",
                                "value": "47,000,000,000,000,000"
                            }
                        ],
                        "signature": "Withdrawal(address,uint256)"
                    },
                    "id": 23,
                    "logData": "0x00000000000000000000000000000000000000000000000000a6fa4040718000",
                    "logDecoded": true,
                    "operation": "EVENT",
                    "revert": false,
                    "status": true,
                    "topics": [
                        "0x7fcf532c15f0a6db0bd6d0e038bea71d30d808c7d98cb3bf7268a95bf5081b65",
                        "0x0000000000000000000000001a2a1c938ce3ec39b6d47113c7955baa9dd454f2"
                    ]
                },
                "nodeType": 1
            },
            "24": {
                "invocation": {
                    "address": "0x5b78545992f94eba967108000176c33ded53f816",
                    "callData": "0x",
                    "decodedMethod": null,
                    "errorInfo": "",
                    "fromAddress": "0x1a2a1c938ce3ec39b6d47113c7955baa9dd454f2",
                    "gasUsed": 0,
                    "id": 24,
                    "methodDecoded": false,
                    "operation": "CALL",
                    "output": "",
                    "revert": false,
                    "revertMessage": "",
                    "selector": "fallback",
                    "status": true,
                    "value": "0.047"
                },
                "nodeType": 0
            },
            "25": {
                "event": {
                    "contract": "0x1a2a1c938ce3ec39b6d47113c7955baa9dd454f2",
                    "decodedLog": {
                        "name": "TokenWithdrew",
                        "params": [
                            {
                                "name": "_withdrawId",
                                "type": "uint256",
                                "value": "274,016"
                            },
                            {
                                "name": "_owner",
                                "type": "address",
                                "value": "0x5b78545992f94eba967108000176c33ded53f816"
                            },
                            {
                                "name": "_tokenAddress",
                                "type": "address",
                                "value": "0xc02aaa39b223fe8d0a0e5c4f27ead9083c756cc2"
                            },
                            {
                                "name": "_tokenNumber",
                                "type": "uint256",
                                "value": "47,000,000,000,000,000"
                            }
                        ],
                        "signature": "TokenWithdrew(uint256,address,address,uint256)"
                    },
                    "id": 25,
                    "logData": "0x00000000000000000000000000000000000000000000000000a6fa4040718000",
                    "logDecoded": true,
                    "operation": "EVENT",
                    "revert": false,
                    "status": true,
                    "topics": [
                        "0x86174ea401f083b9bb1bdebca3068f27fb023c7091365ed2a8a02b8d75cf0e52",
                        "0x0000000000000000000000000000000000000000000000000000000000042e60",
                        "0x0000000000000000000000005b78545992f94eba967108000176c33ded53f816",
                        "0x000000000000000000000000c02aaa39b223fe8d0a0e5c4f27ead9083c756cc2"
                    ]
                },
                "nodeType": 1
            },
            "3": {
                "invocation": {
                    "address": "0x33e71e649abdc09f650ad44139674828a2075ad2",
                    "callData": "0x",
                    "decodedMethod": {
                        "callParams": [],
                        "constructorArguments": "",
                        "name": "VALIDATOR",
                        "returnParams": [
                            {
                                "name": "",
                                "type": "string",
                                "value": "VALIDATOR"
                            }
                        ],
                        "signature": "VALIDATOR()"
                    },
                    "errorInfo": "",
                    "fromAddress": "0x1a2a1c938ce3ec39b6d47113c7955baa9dd454f2",
                    "gasUsed": 690,
                    "id": 3,
                    "methodDecoded": true,
                    "operation": "STATICCALL",
                    "output": "0x0000000000000000000000000000000000000000000000000000000000000020000000000000000000000000000000000000000000000000000000000000000956414c494441544f520000000000000000000000000000000000000000000000",
                    "revert": false,
                    "revertMessage": "",
                    "selector": "0x393df8cb",
                    "status": true,
                    "value": "0"
                },
                "nodeType": 0
            },
            "4": {
                "invocation": {
                    "address": "0x33e71e649abdc09f650ad44139674828a2075ad2",
                    "callData": "0x0000000000000000000000000000000000000000000000000000000000000020000000000000000000000000000000000000000000000000000000000000000956414c494441544f520000000000000000000000000000000000000000000000",
                    "decodedMethod": {
                        "callParams": [
                            {
                                "name": "_name",
                                "type": "string",
                                "value": "VALIDATOR"
                            }
                        ],
                        "constructorArguments": "",
                        "name": "getContract",
                        "returnParams": [
                            {
                                "name": "_address",
                                "type": "address",
                                "value": "0x42b19dca30fd612b1757682c074497847f2b57e0"
                            }
                        ],
                        "signature": "getContract(string)"
                    },
                    "errorInfo": "",
                    "fromAddress": "0x1a2a1c938ce3ec39b6d47113c7955baa9dd454f2",
                    "gasUsed": 3205,
                    "id": 4,
                    "methodDecoded": true,
                    "operation": "STATICCALL",
                    "output": "0x00000000000000000000000042b19dca30fd612b1757682c074497847f2b57e0",
                    "revert": false,
                    "revertMessage": "",
                    "selector": "0x35817773",
                    "status": true,
                    "value": "0"
                },
                "nodeType": 0
            },
            "5": {
                "invocation": {
                    "address": "0x0000000000000000000000000000000000000001",
                    "callData": "0xa300c05ce6483f2e03be6e5e5aef8dfc54383cfc258b45c37ffb9c39000000000000000000000000000000000000000000000000000000000000001b987c950a79482b8013d04dc67c24cc0b0be62dfc9f60d8960f882241bb7dcded24f607b9b8a0ae12c2d632490f40ca9f6b78699b19b7b11ff8149a13955a13cd",
                    "decodedMethod": {
                        "callParams": [
                            {
                                "name": "hash",
                                "type": "bytes32",
                                "value": "0x457e64d4a300c05ce6483f2e03be6e5e5aef8dfc54383cfc258b45c37ffb9c39"
                            },
                            {
                                "name": "v",
                                "type": "uint256",
                                "value": "27"
                            },
                            {
                                "name": "r",
                                "type": "bytes32",
                                "value": "0x987c950a79482b8013d04dc67c24cc0b0be62dfc9f60d8960f882241bb7dcded"
                            },
                            {
                                "name": "s",
                                "type": "bytes32",
                                "value": "0x24f607b9b8a0ae12c2d632490f40ca9f6b78699b19b7b11ff8149a13955a13cd"
                            }
                        ],
                        "constructorArguments": "",
                        "name": "ecrecover",
                        "returnParams": [
                            {
                                "name": "",
                                "type": "address",
                                "value": "0x11360eacdedd59bc433afad4fc8f0417d1fbebab"
                            }
                        ],
                        "signature": "ecrecover(bytes32,uint256,bytes32,bytes32)"
                    },
                    "errorInfo": "",
                    "fromAddress": "0x1a2a1c938ce3ec39b6d47113c7955baa9dd454f2",
                    "gasUsed": 3000,
                    "id": 5,
                    "methodDecoded": true,
                    "operation": "STATICCALL",
                    "output": "0x00000000000000000000000011360eacdedd59bc433afad4fc8f0417d1fbebab",
                    "revert": false,
                    "revertMessage": "",
                    "selector": "0x457e64d4",
                    "status": true,
                    "value": "0"
                },
                "nodeType": 0
            },
            "6": {
                "invocation": {
                    "address": "0x42b19dca30fd612b1757682c074497847f2b57e0",
                    "callData": "0x00000000000000000000000011360eacdedd59bc433afad4fc8f0417d1fbebab",
                    "decodedMethod": {
                        "callParams": [
                            {
                                "name": "_addr",
                                "type": "address",
                                "value": "0x11360eacdedd59bc433afad4fc8f0417d1fbebab"
                            }
                        ],
                        "constructorArguments": "",
                        "name": "isValidator",
                        "returnParams": [
                            {
                                "name": "",
                                "type": "bool",
                                "value": true
                            }
                        ],
                        "signature": "isValidator(address)"
                    },
                    "errorInfo": "",
                    "fromAddress": "0x1a2a1c938ce3ec39b6d47113c7955baa9dd454f2",
                    "gasUsed": 2545,
                    "id": 6,
                    "methodDecoded": true,
                    "operation": "STATICCALL",
                    "output": "0x0000000000000000000000000000000000000000000000000000000000000001",
                    "revert": false,
                    "revertMessage": "",
                    "selector": "0xfacd743b",
                    "status": true,
                    "value": "0"
                },
                "nodeType": 0
            },
            "7": {
                "invocation": {
                    "address": "0x0000000000000000000000000000000000000001",
                    "callData": "0xa300c05ce6483f2e03be6e5e5aef8dfc54383cfc258b45c37ffb9c39000000000000000000000000000000000000000000000000000000000000001ba4b33c5dc2807e04428af31fd1cd54421cc811ac243c83aabd1d4fefec797f977f4e38df11a19f7ae7d485ecf609d8fd4892811997235910e017fcd62a80c9d3",
                    "decodedMethod": {
                        "callParams": [
                            {
                                "name": "hash",
                                "type": "bytes32",
                                "value": "0x457e64d4a300c05ce6483f2e03be6e5e5aef8dfc54383cfc258b45c37ffb9c39"
                            },
                            {
                                "name": "v",
                                "type": "uint256",
                                "value": "27"
                            },
                            {
                                "name": "r",
                                "type": "bytes32",
                                "value": "0xa4b33c5dc2807e04428af31fd1cd54421cc811ac243c83aabd1d4fefec797f97"
                            },
                            {
                                "name": "s",
                                "type": "bytes32",
                                "value": "0x7f4e38df11a19f7ae7d485ecf609d8fd4892811997235910e017fcd62a80c9d3"
                            }
                        ],
                        "constructorArguments": "",
                        "name": "ecrecover",
                        "returnParams": [
                            {
                                "name": "",
                                "type": "address",
                                "value": "0x1a15a5e25811fe1349d636a5053a0e59d53961c9"
                            }
                        ],
                        "signature": "ecrecover(bytes32,uint256,bytes32,bytes32)"
                    },
                    "errorInfo": "",
                    "fromAddress": "0x1a2a1c938ce3ec39b6d47113c7955baa9dd454f2",
                    "gasUsed": 3000,
                    "id": 7,
                    "methodDecoded": true,
                    "operation": "STATICCALL",
                    "output": "0x0000000000000000000000001a15a5e25811fe1349d636a5053a0e59d53961c9",
                    "revert": false,
                    "revertMessage": "",
                    "selector": "0x457e64d4",
                    "status": true,
                    "value": "0"
                },
                "nodeType": 0
            },
            "8": {
                "invocation": {
                    "address": "0x42b19dca30fd612b1757682c074497847f2b57e0",
                    "callData": "0x0000000000000000000000001a15a5e25811fe1349d636a5053a0e59d53961c9",
                    "decodedMethod": {
                        "callParams": [
                            {
                                "name": "_addr",
                                "type": "address",
                                "value": "0x1a15a5e25811fe1349d636a5053a0e59d53961c9"
                            }
                        ],
                        "constructorArguments": "",
                        "name": "isValidator",
                        "returnParams": [
                            {
                                "name": "",
                                "type": "bool",
                                "value": true
                            }
                        ],
                        "signature": "isValidator(address)"
                    },
                    "errorInfo": "",
                    "fromAddress": "0x1a2a1c938ce3ec39b6d47113c7955baa9dd454f2",
                    "gasUsed": 2545,
                    "id": 8,
                    "methodDecoded": true,
                    "operation": "STATICCALL",
                    "output": "0x0000000000000000000000000000000000000000000000000000000000000001",
                    "revert": false,
                    "revertMessage": "",
                    "selector": "0xfacd743b",
                    "status": true,
                    "value": "0"
                },
                "nodeType": 0
            },
            "9": {
                "invocation": {
                    "address": "0x0000000000000000000000000000000000000001",
                    "callData": "0xa300c05ce6483f2e03be6e5e5aef8dfc54383cfc258b45c37ffb9c39000000000000000000000000000000000000000000000000000000000000001c3e60a77df9a99695eefb1565901de59a33b3c6ea300654408add42a173a006b219854768c0f8775de33dcebd156de7f8366f8ac5881b6379344b3b839ce90ab7",
                    "decodedMethod": {
                        "callParams": [
                            {
                                "name": "hash",
                                "type": "bytes32",
                                "value": "0x457e64d4a300c05ce6483f2e03be6e5e5aef8dfc54383cfc258b45c37ffb9c39"
                            },
                            {
                                "name": "v",
                                "type": "uint256",
                                "value": "28"
                            },
                            {
                                "name": "r",
                                "type": "bytes32",
                                "value": "0x3e60a77df9a99695eefb1565901de59a33b3c6ea300654408add42a173a006b2"
                            },
                            {
                                "name": "s",
                                "type": "bytes32",
                                "value": "0x19854768c0f8775de33dcebd156de7f8366f8ac5881b6379344b3b839ce90ab7"
                            }
                        ],
                        "constructorArguments": "",
                        "name": "ecrecover",
                        "returnParams": [
                            {
                                "name": "",
                                "type": "address",
                                "value": "0x70bb1fb41c8c42f6ddd53a708e2b82209495e455"
                            }
                        ],
                        "signature": "ecrecover(bytes32,uint256,bytes32,bytes32)"
                    },
                    "errorInfo": "",
                    "fromAddress": "0x1a2a1c938ce3ec39b6d47113c7955baa9dd454f2",
                    "gasUsed": 3000,
                    "id": 9,
                    "methodDecoded": true,
                    "operation": "STATICCALL",
                    "output": "0x00000000000000000000000070bb1fb41c8c42f6ddd53a708e2b82209495e455",
                    "revert": false,
                    "revertMessage": "",
                    "selector": "0x457e64d4",
                    "status": true,
                    "value": "0"
                },
                "nodeType": 0
            }
        },
        "gasFlame": [
            {
                "children": [
                    {
                        "children": [
                            {
                                "children": [],
                                "depth": 0,
                                "name": "Initial Gas",
                                "value": 27812
                            },
                            {
                                "children": [
                                    {
                                        "children": [
                                            {
                                                "children": [],
                                                "depth": 2,
                                                "name": "isTokenMapped",
                                                "value": 5215
                                            },
                                            {
                                                "children": [],
                                                "depth": 2,
                                                "name": "VALIDATOR",
                                                "value": 690
                                            },
                                            {
                                                "children": [],
                                                "depth": 2,
                                                "name": "getContract",
                                                "value": 3205
                                            },
                                            {
                                                "children": [],
                                                "depth": 2,
                                                "name": "ecrecover",
                                                "value": 3000
                                            },
                                            {
                                                "children": [],
                                                "depth": 2,
                                                "name": "isValidator",
                                                "value": 2545
                                            },
                                            {
                                                "children": [],
                                                "depth": 2,
                                                "name": "ecrecover",
                                                "value": 3000
                                            },
                                            {
                                                "children": [],
                                                "depth": 2,
                                                "name": "isValidator",
                                                "value": 2545
                                            },
                                            {
                                                "children": [],
                                                "depth": 2,
                                                "name": "ecrecover",
                                                "value": 3000
                                            },
                                            {
                                                "children": [],
                                                "depth": 2,
                                                "name": "isValidator",
                                                "value": 2545
                                            },
                                            {
                                                "children": [],
                                                "depth": 2,
                                                "name": "ecrecover",
                                                "value": 3000
                                            },
                                            {
                                                "children": [],
                                                "depth": 2,
                                                "name": "isValidator",
                                                "value": 2545
                                            },
                                            {
                                                "children": [],
                                                "depth": 2,
                                                "name": "ecrecover",
                                                "value": 3000
                                            },
                                            {
                                                "children": [],
                                                "depth": 2,
                                                "name": "isValidator",
                                                "value": 2545
                                            },
                                            {
                                                "children": [],
                                                "depth": 2,
                                                "name": "checkThreshold",
                                                "value": 6872
                                            },
                                            {
                                                "children": [],
                                                "depth": 2,
                                                "name": "WETH_TOKEN",
                                                "value": 668
                                            },
                                            {
                                                "children": [],
                                                "depth": 2,
                                                "name": "getContract",
                                                "value": 3205
                                            },
                                            {
                                                "children": [],
                                                "depth": 2,
                                                "name": "WETH_TOKEN",
                                                "value": 668
                                            },
                                            {
                                                "children": [],
                                                "depth": 2,
                                                "name": "getContract",
                                                "value": 1205
                                            },
                                            {
                                                "children": [
                                                    {
                                                        "children": [
                                                            {
                                                                "children": [],
                                                                "depth": 4,
                                                                "name": "fallback",
                                                                "value": 40
                                                            }
                                                        ],
                                                        "depth": 3,
                                                        "name": "fallback",
                                                        "value": 446
                                                    }
                                                ],
                                                "depth": 2,
                                                "name": "withdraw",
                                                "value": 14386
                                            },
                                            {
                                                "children": [],
                                                "depth": 2,
                                                "name": "fallback",
                                                "value": 0
                                            }
                                        ],
                                        "depth": 1,
                                        "name": "withdrawERC20For",
                                        "value": 165974
                                    }
                                ],
                                "depth": 0,
                                "name": "Executed Gas",
                                "value": 171125
                            }
                        ],
                        "depth": -1,
                        "name": "Actual Gas Used",
                        "value": 198937
                    },
                    {
                        "children": [],
                        "depth": -1,
                        "name": "Refunded Gas",
                        "value": 0
                    }
                ],
                "depth": -2,
                "name": "Total Gas",
                "value": 198937
            }
        ],
        "isConfirmed": true,
        "mainTrace": [
            {
                "children": [
                    {
                        "children": [
                            {
                                "children": [
                                    {
                                        "children": [],
                                        "depth": 2,
                                        "id": 2,
                                        "order": 2
                                    },
                                    {
                                        "children": [],
                                        "depth": 2,
                                        "id": 3,
                                        "order": 3
                                    },
                                    {
                                        "children": [],
                                        "depth": 2,
                                        "id": 4,
                                        "order": 4
                                    },
                                    {
                                        "children": [],
                                        "depth": 2,
                                        "id": 5,
                                        "order": 5
                                    },
                                    {
                                        "children": [],
                                        "depth": 2,
                                        "id": 6,
                                        "order": 6
                                    },
                                    {
                                        "children": [],
                                        "depth": 2,
                                        "id": 7,
                                        "order": 7
                                    },
                                    {
                                        "children": [],
                                        "depth": 2,
                                        "id": 8,
                                        "order": 8
                                    },
                                    {
                                        "children": [],
                                        "depth": 2,
                                        "id": 9,
                                        "order": 9
                                    },
                                    {
                                        "children": [],
                                        "depth": 2,
                                        "id": 10,
                                        "order": 10
                                    },
                                    {
                                        "children": [],
                                        "depth": 2,
                                        "id": 11,
                                        "order": 11
                                    },
                                    {
                                        "children": [],
                                        "depth": 2,
                                        "id": 12,
                                        "order": 12
                                    },
                                    {
                                        "children": [],
                                        "depth": 2,
                                        "id": 13,
                                        "order": 13
                                    },
                                    {
                                        "children": [],
                                        "depth": 2,
                                        "id": 14,
                                        "order": 14
                                    },
                                    {
                                        "children": [],
                                        "depth": 2,
                                        "id": 15,
                                        "order": 15
                                    },
                                    {
                                        "children": [],
                                        "depth": 2,
                                        "id": 16,
                                        "order": 16
                                    },
                                    {
                                        "children": [],
                                        "depth": 2,
                                        "id": 17,
                                        "order": 17
                                    },
                                    {
                                        "children": [],
                                        "depth": 2,
                                        "id": 18,
                                        "order": 18
                                    },
                                    {
                                        "children": [],
                                        "depth": 2,
                                        "id": 19,
                                        "order": 19
                                    },
                                    {
                                        "children": [
                                            {
                                                "children": [
                                                    {
                                                        "children": [],
                                                        "depth": 4,
                                                        "id": 22,
                                                        "order": 22
                                                    }
                                                ],
                                                "depth": 3,
                                                "id": 21,
                                                "order": 21
                                            },
                                            {
                                                "children": [],
                                                "depth": 3,
                                                "id": 23,
                                                "order": 23
                                            }
                                        ],
                                        "depth": 2,
                                        "id": 20,
                                        "order": 20
                                    },
                                    {
                                        "children": [],
                                        "depth": 2,
                                        "id": 24,
                                        "order": 24
                                    },
                                    {
                                        "children": [],
                                        "depth": 2,
                                        "id": 25,
                                        "order": 25
                                    }
                                ],
                                "depth": 1,
                                "id": 1,
                                "order": 1
                            }
                        ],
                        "depth": 0,
                        "id": 0,
                        "order": 0
                    }
                ],
                "depth": -1,
                "id": -1,
                "order": -1
            }
        ],
        "mainTraceNodeCount": 26,
        "parentIdMap": {
            "0": -1,
            "1": 0,
            "10": 1,
            "11": 1,
            "12": 1,
            "13": 1,
            "14": 1,
            "15": 1,
            "16": 1,
            "17": 1,
            "18": 1,
            "19": 1,
            "2": 1,
            "20": 1,
            "21": 20,
            "22": 21,
            "23": 20,
            "24": 1,
            "25": 1,
            "3": 1,
            "4": 1,
            "5": 1,
            "6": 1,
            "7": 1,
            "8": 1,
            "9": 1
        },
        "tidyTrace": [
            {
                "children": [
                    {
                        "children": [
                            {
                                "children": [
                                    {
                                        "children": [
                                            {
                                                "children": [
                                                    {
                                                        "children": [],
                                                        "depth": 4,
                                                        "id": 22,
                                                        "order": 22
                                                    }
                                                ],
                                                "depth": 3,
                                                "id": 21,
                                                "order": 21
                                            },
                                            {
                                                "children": [],
                                                "depth": 3,
                                                "id": 23,
                                                "order": 23
                                            }
                                        ],
                                        "depth": 2,
                                        "id": 20,
                                        "order": 20
                                    },
                                    {
                                        "children": [],
                                        "depth": 2,
                                        "id": 24,
                                        "order": 24
                                    },
                                    {
                                        "children": [],
                                        "depth": 2,
                                        "id": 25,
                                        "order": 25
                                    }
                                ],
                                "depth": 1,
                                "id": 1,
                                "order": 1
                            }
                        ],
                        "depth": 0,
                        "id": 0,
                        "order": 0
                    }
                ],
                "depth": -1,
                "id": -1,
                "order": -1
            }
        ],
        "tidyTraceNodeCount": 8
    },
    "state_change": {
        "stateChanges": [
            {
                "address": "0x1a2a1c938ce3ec39b6d47113c7955baa9dd454f2",
                "erc": "",
                "slots": [
                    {
                        "current": "0x0000000000000000000000005b78545992f94eba967108000176c33ded53f816",
                        "key": "0x724eef10913d0edc72e38e23f12ee78ac114ba7f50776c13f316303a48f2f199",
                        "prev": "0x0000000000000000000000000000000000000000000000000000000000000000"
                    },
                    {
                        "current": "0x000000000000000000000000c02aaa39b223fe8d0a0e5c4f27ead9083c756cc2",
                        "key": "0x724eef10913d0edc72e38e23f12ee78ac114ba7f50776c13f316303a48f2f19a",
                        "prev": "0x0000000000000000000000000000000000000000000000000000000000000000"
                    },
                    {
                        "current": "0x00000000000000000000000000000000000000000000000000a6fa4040718000",
                        "key": "0x724eef10913d0edc72e38e23f12ee78ac114ba7f50776c13f316303a48f2f19b",
                        "prev": "0x0000000000000000000000000000000000000000000000000000000000000000"
                    }
                ],
                "storageVariables": [
                    {
                        "name": "withdrawals",
                        "type": "mapping(uint256 => struct MainchainGatewayStorage.WithdrawalEntry)",
                        "value": {
                            "pairs": [
                                {
                                    "key": "274016",
                                    "value": {
                                        "fields": [
                                            {
                                                "name": "owner",
                                                "type": "address",
                                                "value": {
                                                    "current": "0x5b78545992f94eba967108000176c33ded53f816",
                                                    "prev": "0x0000000000000000000000000000000000000000",
                                                    "typeTag": 1
                                                }
                                            },
                                            {
                                                "name": "tokenAddress",
                                                "type": "address",
                                                "value": {
                                                    "current": "0xc02aaa39b223fe8d0a0e5c4f27ead9083c756cc2",
                                                    "prev": "0x0000000000000000000000000000000000000000",
                                                    "typeTag": 1
                                                }
                                            },
                                            {
                                                "name": "tokenNumber",
                                                "type": "uint256",
                                                "value": {
                                                    "current": "47000000000000000",
                                                    "prev": "0",
                                                    "typeTag": 1
                                                }
                                            }
                                        ],
                                        "typeTag": 3
                                    }
                                }
                            ],
                            "typeTag": 4
                        }
                    }
                ]
            },
            {
                "address": "0xc02aaa39b223fe8d0a0e5c4f27ead9083c756cc2",
                "erc": "ERC-20",
                "slots": [
                    {
                        "current": "0x00000000000000000000000000000000000000000000091b55bc702a18663f52",
                        "key": "0xfffe533f47dff0c7bddbf8eb07fd3eb369bfaaaa3aabb548e96fc6b3744837b6",
                        "prev": "0x00000000000000000000000000000000000000000000091b56636a6a58d7bf52"
                    }
                ],
                "storageVariables": [
                    {
                        "name": "balanceOf",
                        "type": "mapping(address => uint256)",
                        "value": {
                            "pairs": [
                                {
                                    "key": "0x1a2a1c938ce3ec39b6d47113c7955baa9dd454f2",
                                    "value": {
                                        "current": "43005538371931910586194",
                                        "prev": "43005585371931910586194",
                                        "typeTag": 1
                                    }
                                }
                            ],
                            "typeTag": 4
                        }
                    }
                ]
            }
        ]
    }
}