{
    "balance_change": {
        "balanceChanges": [
            {
                "account": "0x00cfbbaf7ddb3a1476767101c12a0162e241fbad",
                "assets": [
                    {
                        "address": "0x4dc3643dbc642b72c158e7f3d2ff232df61cb6ce",
                        "amount": "0.0009",
                        "iconUrl": "https://assets.blocksec.com/icon/9b88880c38905878bdc8de2769a43c605cdcf3f440cb05bfb582fafbe1f2c886.png",
                        "isERC1155": false,
                        "isERC721": false,
                        "sign": false,
                        "value": ""
                    }
                ]
            },
            {
                "account": "0x346b4fdf3d56119f48d1d58971d97c5b9671aca3",
                "assets": [
                    {
                        "address": "0x4dc3643dbc642b72c158e7f3d2ff232df61cb6ce",
                        "amount": "0.0009",
                        "iconUrl": "https://assets.blocksec.com/icon/9b88880c38905878bdc8de2769a43c605cdcf3f440cb05bfb582fafbe1f2c886.png",
                        "isERC1155": false,
                        "isERC721": false,
                        "sign": true,
                        "value": ""
                    }
                ]
            }
        ]
    },
    "profile": {
        "basic_info": {
            "baseFee": "",
            "blockNumber": 8784858,
            "callData": "0xa9059cbb000000000000000000000000346b4fdf3d56119f48d1d58971d97c5b9671aca30000000000000000000000000000000000000000000000000003328b944c4000",
            "debugEnable": true,
            "errorInfo": "",
            "eventCount": 1,
            "feeRecipient": "0x005e288d713a5fb3d7c9cf1b43810a98688c7223",
            "formatValue": "0",
            "gasLimit": 55000,
            "gasPrice": "1",
            "gasUsed": 52108,
            "intTxnCount": 0,
            "internalRevert": false,
            "internalRevertMessage": "",
            "isContractCreation": false,
            "isFlashloan": false,
            "maxFee": "",
            "nonce": 358925,
            "overwritedBlockNumber": -1,
            "priorityFee": "",
            "receiver": "0x4dc3643dbc642b72c158e7f3d2ff232df61cb6ce",
            "revertMessage": "",
            "sender": "0x00cfbbaf7ddb3a1476767101c12a0162e241fbad",
            "simulationEnable": true,
            "sourceTxnHash": "0xc7ee0ade7bee51b6dea1a44bf69af83dd764ab1bb474af298735a26353c6e7a7",
            "status": true,
            "timestamp": "2019-10-21T16:00:28Z",
            "transactionFee": "0.000052108",
            "txnHash": "0xc7ee0ade7bee51b6dea1a44bf69af83dd764ab1bb474af298735a26353c6e7a7",
            "txnIndex": 120,
            "type": 0,
            "value": "0"
        },
        "fund_flow": [
            {
                "amount": "0.0009",
                "from": "0x00cfbbaf7ddb3a1476767101c12a0162e241fbad",
                "id": 1,
                "isERC1155": false,
                "isERC721": false,
                "isReverted": false,
                "order": 1,
                "to": "0x346b4fdf3d56119f48d1d58971d97c5b9671aca3",
                "token": "0x4dc3643dbc642b72c158e7f3d2ff232df61cb6ce"
            }
        ],
        "token_infos": [
            {
                "address": "0x4dc3643dbc642b72c158e7f3d2ff232df61cb6ce",
                "decimals": 18
            },
            {
                "address": "0xc02aaa39b223fe8d0a0e5c4f27ead9083c756cc2",
                "decimals": 18
            },
            {
                "address": "0xeeeeeeeeeeeeeeeeeeeeeeeeeeeeeeeeeeeeeeee",
                "decimals": 18
            }
        ]
    },
    "address_label": {
        "labels": [
            {
                "address": "0x0000000000000000000000000000000000000004",
                "label": "Precompiled"
            },
            {
                "address": "0xeeeeeeeeeeeeeeeeeeeeeeeeeeeeeeeeeeeeeeee",
                "label": "Ether"
            },
            {
                "address": "0x346b4fdf3d56119f48d1d58971d97c5b9671aca3",
                "label": "GATE.IO"
            },
            {
                "address": "0x4dc3643dbc642b72c158e7f3d2ff232df61cb6ce",
                "label": "Ambrosus: AMB Token"
            },
            {
                "address": "0x0000000000000000000000000000000000000001",
                "label": "Precompiled"
            },
            {
                "address": "0x0000000000000000000000000000000000000002",
                "label": "Precompiled"
            },
            {
                "address": "0x0000000000000000000000000000000000000003",
                "label": "Precompiled"
            }
        ]
    },
    "trace": {
        "accountLabels": null,
        "dataMap": {
            "-1": {
                "invocation": {
                    "address": "0x00cfbbaf7ddb3a1476767101c12a0162e241fbad",
                    "callData": "",
                    "decodedMethod": null,
                    "errorInfo": "",
                    "fromAddress": "",
                    "gasUsed": 0,
                    "id": -1,
                    "methodDecoded": false,
                    "operation": "",
                    "output": "",
                    "revert": false,
                    "revertMessage": "",
                    "selector": "",
                    "status": false,
                    "value": ""
                },
                "nodeType": 0
            },
            "0": {
                "invocation": {
                    "address": "0x4dc3643dbc642b72c158e7f3d2ff232df61cb6ce",
                    "callData": "0x000000000000000000000000346b4fdf3d56119f48d1d58971d97c5b9671aca30000000000000000000000000000000000000000000000000003328b944c4000",
                    "decodedMethod": {
                        "callParams": [
                            {
                                "name": "_to",
                                "type": "address",
                                "value": "0x346b4fdf3d56119f48d1d58971d97c5b9671aca3"
                            },
                            {
                                "decimalAvailable": true,
                                "name": "_value",
                                "type": "uint256",
                                "value": "900,000,000,000,000"
                            }
                        ],
                        "constructorArguments": "",
                        "name": "transfer",
                        "returnParams": [
                            {
                                "name": "",
                                "type": "bool",
                                "value": true
                            }
                        ],
                        "signature": "transfer(address,uint256)"
                    },
                    "errorInfo": "",
                    "fromAddress": "0x00cfbbaf7ddb3a1476767101c12a0162e241fbad",
                    "gasUsed": 52108,
                    "id": 0,
                    "methodDecoded": true,
                    "operation": "CALL",
                    "output": "0x0000000000000000000000000000000000000000000000000000000000000001",
                    "revert": false,
                    "revertMessage": "",
                    "selector": "0xa9059cbb",
                    "status": true,
                    "value": "0"
                },
                "nodeType": 0
            },
            "1": {
                "event": {
                    "contract": "0x4dc3643dbc642b72c158e7f3d2ff232df61cb6ce",
                    "decodedLog": {
                        "name": "Transfer",
                        "params": [
                            {
                                "name": "from",
                                "type": "address",
                                "value": "0x00cfbbaf7ddb3a1476767101c12a0162e241fbad"
                            },
                            {
                                "name": "to",
                                "type": "address",
                                "value": "0x346b4fdf3d56119f48d1d58971d97c5b9671aca3"
                            },
                            {
                                "decimalAvailable": true,
                                "name": "value",
                                "type": "uint256",
                                "value": "900,000,000,000,000"
                            }
                        ],
                        "signature": "Transfer(address,address,uint256)"
                    },
                    "id": 1,
                    "logData": "0x0000000000000000000000000000000000000000000000000003328b944c4000",
                    "logDecoded": true,
                    "operation": "EVENT",
                    "revert": false,
                    "status": true,
                    "topics": [
                        "0xddf252ad1be2c89b69c2b068fc378daa952ba7f163c4a11628f55a4df523b3ef",
                        "0x00000000000000000000000000cfbbaf7ddb3a1476767101c12a0162e241fbad",
                        "0x000000000000000000000000346b4fdf3d56119f48d1d58971d97c5b9671aca3"
                    ]
                },
                "nodeType": 1
            }
        },
        "gasFlame": [
            {
                "children": [
                    {
                        "children": [
                            {
                                "children": [],
                                "depth": 0,
                                "name": "Initial Gas",
                                "value": 23192
                            },
                            {
                                "children": [],
                                "depth": 0,
                                "name": "Executed Gas",
                                "value": 28916
                            }
                        ],
                        "depth": -1,
                        "name": "Actual Gas Used",
                        "value": 52108
                    },
                    {
                        "children": [],
                        "depth": -1,
                        "name": "Refunded Gas",
                        "value": 0
                    }
                ],
                "depth": -2,
                "name": "Total Gas",
                "value": 52108
            }
        ],
        "isConfirmed": true,
        "mainTrace": [
            {
                "children": [
                    {
                        "children": [
                            {
                                "children": [],
                                "depth": 1,
                                "id": 1,
                                "order": 1
                            }
                        ],
                        "depth": 0,
                        "id": 0,
                        "order": 0
                    }
                ],
                "depth": -1,
                "id": -1,
                "order": -1
            }
        ],
        "mainTraceNodeCount": 2,
        "parentIdMap": {
            "0": -1,
            "1": 0
        },
        "tidyTrace": [
            {
                "children": [
                    {
                        "children": [
                            {
                                "children": [],
                                "depth": 1,
                                "id": 1,
                                "order": 1
                            }
                        ],
                        "depth": 0,
                        "id": 0,
                        "order": 0
                    }
                ],
                "depth": -1,
                "id": -1,
                "order": -1
            }
        ],
        "tidyTraceNodeCount": 2
    },
    "state_change": {
        "stateChanges": [
            {
                "address": "0x4dc3643dbc642b72c158e7f3d2ff232df61cb6ce",
                "erc": "ERC-20",
                "slots": [
                    {
                        "current": "0x00000000000000000000000000000000000000000000003361803e72fd736994",
                        "key": "0x01a8ebb9a2582b7040b825e2bb5c4eb8ac0e13b59186f1f20fdcf506556793dd",
                        "prev": "0x000000000000000000000000000000000000000000000033618370fe91bfa994"
                    },
                    {
                        "current": "0x0000000000000000000000000000000000000000000000000003328b944c4000",
                        "key": "0x37e36dfc3cb5d0f8f7659157f00c788ed634b821227bb963ddc0e6db5cadbebf",
                        "prev": "0x0000000000000000000000000000000000000000000000000000000000000000"
                    }
                ],
                "storageVariables": [
                    {
                        "name": "accounts",
                        "type": "mapping(address => struct AmberToken.Account)",
                        "value": {
                            "pairs": [
                                {
                                    "key": "0x00cfbbaf7ddb3a1476767101c12a0162e241fbad",
                                    "value": {
                                        "fields": [
                                            {
                                                "name": "balance",
                                                "type": "uint256",
                                                "value": {
                                                    "current": "947809631841484499348",
                                                    "prev": "947810531841484499348",
                                                    "typeTag": 1
                                                }
                                            }
                                        ],
                                        "typeTag": 3
                                    }
                                },
                                {
                                    "key": "0x346b4fdf3d56119f48d1d58971d97c5b9671aca3",
                                    "value": {
                                        "fields": [
                                            {
                                                "name": "balance",
                                                "type": "uint256",
                                                "value": {
                                                    "current": "900000000000000",
                                                    "prev": "0",
                                                    "typeTag": 1
                                                }
                                            }
                                        ],
                                        "typeTag": 3
                                    }
                                }
                            ],
                            "typeTag": 4
                        }
                    }
                ]
            }
        ]
    }
}