{
    "balance_change": {
        "balanceChanges": [
            {
                "account": "0xcda72070e455bb31c7690a170224ce43623d0b6f",
                "assets": [
                    {
                        "address": "0x1d15ababa2d5ba507711af51d8878381ff8af789",
                        "amount": "1",
                        "iconUrl": "",
                        "isERC1155": false,
                        "isERC721": true,
                        "sign": false,
                        "tokenID": "1",
                        "value": ""
                    }
                ]
            },
            {
                "account": "0xe066c7b1feee619f88d2fdfc7eab3fc7b75ce6bb",
                "assets": [
                    {
                        "address": "0x1d15ababa2d5ba507711af51d8878381ff8af789",
                        "amount": "1",
                        "iconUrl": "",
                        "isERC1155": false,
                        "isERC721": true,
                        "sign": true,
                        "tokenID": "1",
                        "value": ""
                    }
                ]
            }
        ]
    },
    "profile": {
        "basic_info": {
            "baseFee": "67.963973773",
            "blockNumber": 17234019,
            "callData": "0x21506fff0000000000000000000000000000000000000000000000000000000000050bca",
            "debugEnable": true,
            "errorInfo": "",
            "eventCount": 3,
            "feeRecipient": "0xdafea492d9c6733ae3d56b7ed1adb60692c98bc5",
            "formatValue": "0",
            "gasLimit": 132399,
            "gasPrice": "68.063973773",
            "gasUsed": 102908,
            "intTxnCount": 3,
            "internalRevert": false,
            "internalRevertMessage": "",
            "isContractCreation": false,
            "isFlashloan": false,
            "maxFee": "82.134662807",
            "nonce": 306,
            "overwritedBlockNumber": -1,
            "priorityFee": "0.1",
            "receiver": "0xcda72070e455bb31c7690a170224ce43623d0b6f",
            "revertMessage": "",
            "sender": "0xe066c7b1feee619f88d2fdfc7eab3fc7b75ce6bb",
            "simulationEnable": true,
            "sourceTxnHash": "0xc821fccbb6a099fcc1bb3d563a336c14e5db0073ee141e4df9842b455059012d",
            "status": true,
            "timestamp": "2023-05-11T02:02:47Z",
            "transactionFee": "0.007004327413031884",
            "txnHash": "0xc821fccbb6a099fcc1bb3d563a336c14e5db0073ee141e4df9842b455059012d",
            "txnIndex": 108,
            "type": 2,
            "value": "0"
        },
        "fund_flow": [
            {
                "amount": "1",
                "from": "0xcda72070e455bb31c7690a170224ce43623d0b6f",
                "id": 1,
                "isERC1155": false,
                "isERC721": true,
                "isReverted": false,
                "order": 1,
                "to": "0xe066c7b1feee619f88d2fdfc7eab3fc7b75ce6bb",
                "token": "0x1d15ababa2d5ba507711af51d8878381ff8af789",
                "tokenID": "1"
            }
        ],
        "token_infos": [
            {
                "address": "0xc02aaa39b223fe8d0a0e5c4f27ead9083c756cc2",
                "decimals": 18
            },
            {
                "address": "0xeeeeeeeeeeeeeeeeeeeeeeeeeeeeeeeeeeeeeeee",
                "decimals": 18
            }
        ]
    },
    "address_label": {
        "labels": [
            {
                "address": "0x0000000000000000000000000000000000000002",
                "label": "Precompiled"
            },
            {
                "address": "0x0000000000000000000000000000000000000003",
                "label": "Precompiled"
            },
            {
                "address": "0x0000000000000000000000000000000000000004",
                "label": "Precompiled"
            },
            {
                "address": "0x5133522ea5a0494ecb83f26311a095ddd7a9d4b6",
                "label": "ERC721CreatorImplementation"
            },
            {
                "address": "0x0000000000000000000000000000000000000001",
                "label": "Precompiled"
            },
            {
                "address": "0xcda72070e455bb31c7690a170224ce43623d0b6f",
                "label": "Foundation: Market"
            },
            {
                "address": "0x1d15ababa2d5ba507711af51d8878381ff8af789",
                "label": "coal"
            },
            {
                "address": "0xeeeeeeeeeeeeeeeeeeeeeeeeeeeeeeeeeeeeeeee",
                "label": "Ether"
            },
            {
                "address": "0xc6bda983ce0a00142e2334bc2726c30573fe5e3e",
                "label": "NFTMarket"
            }
        ]
    },
    "trace": {
        "accountLabels": null,
        "dataMap": {
            "-1": {
                "invocation": {
                    "address": "0xe066c7b1feee619f88d2fdfc7eab3fc7b75ce6bb",
                    "callData": "",
                    "decodedMethod": null,
                    "errorInfo": "",
                    "fromAddress": "",
                    "gasUsed": 0,
                    "id": -1,
                    "methodDecoded": false,
                    "operation": "",
                    "output": "",
                    "revert": false,
                    "revertMessage": "",
                    "selector": "",
                    "status": false,
                    "value": ""
                },
                "nodeType": 0
            },
            "0": {
                "invocation": {
                    "address": "0xcda72070e455bb31c7690a170224ce43623d0b6f",
                    "callData": "0x0000000000000000000000000000000000000000000000000000000000050bca",
                    "decodedMethod": {
                        "callParams": [
                            {
                                "name": "auctionId",
                                "type": "uint256",
                                "value": "330,698"
                            }
                        ],
                        "constructorArguments": "",
                        "name": "cancelReserveAuction",
                        "returnParams": [],
                        "signature": "cancelReserveAuction(uint256)"
                    },
                    "errorInfo": "",
                    "fromAddress": "0xe066c7b1feee619f88d2fdfc7eab3fc7b75ce6bb",
                    "gasUsed": 102908,
                    "id": 0,
                    "methodDecoded": true,
                    "operation": "CALL",
                    "output": "",
                    "revert": false,
                    "revertMessage": "",
                    "selector": "0x21506fff",
                    "status": true,
                    "value": "0"
                },
                "nodeType": 0
            },
            "1": {
                "invocation": {
                    "address": "0xc6bda983ce0a00142e2334bc2726c30573fe5e3e",
                    "callData": "0x0000000000000000000000000000000000000000000000000000000000050bca",
                    "decodedMethod": {
                        "callParams": [
                            {
                                "name": "auctionId",
                                "type": "uint256",
                                "value": "330,698"
                            }
                        ],
                        "constructorArguments": "",
                        "name": "cancelReserveAuction",
                        "returnParams": [],
                        "signature": "cancelReserveAuction(uint256)"
                    },
                    "errorInfo": "",
                    "fromAddress": "0xcda72070e455bb31c7690a170224ce43623d0b6f",
                    "gasUsed": 100134,
                    "id": 1,
                    "methodDecoded": true,
                    "operation": "DELEGATECALL",
                    "output": "",
                    "revert": false,
                    "revertMessage": "",
                    "selector": "0x21506fff",
                    "status": true,
                    "value": "0"
                },
                "nodeType": 0
            },
            "2": {
                "invocation": {
                    "address": "0x1d15ababa2d5ba507711af51d8878381ff8af789",
                    "callData": "0x000000000000000000000000cda72070e455bb31c7690a170224ce43623d0b6f000000000000000000000000e066c7b1feee619f88d2fdfc7eab3fc7b75ce6bb0000000000000000000000000000000000000000000000000000000000000001",
                    "decodedMethod": {
                        "callParams": [
                            {
                                "name": "from",
                                "type": "address",
                                "value": "0xcda72070e455bb31c7690a170224ce43623d0b6f"
                            },
                            {
                                "name": "to",
                                "type": "address",
                                "value": "0xe066c7b1feee619f88d2fdfc7eab3fc7b75ce6bb"
                            },
                            {
                                "decimalAvailable": true,
                                "name": "tokenId",
                                "type": "uint256",
                                "value": "1"
                            }
                        ],
                        "constructorArguments": "",
                        "name": "transferFrom",
                        "returnParams": [],
                        "signature": "transferFrom(address,address,uint256)"
                    },
                    "errorInfo": "",
                    "fromAddress": "0xcda72070e455bb31c7690a170224ce43623d0b6f",
                    "gasUsed": 49731,
                    "id": 2,
                    "methodDecoded": true,
                    "operation": "CALL",
                    "output": "",
                    "revert": false,
                    "revertMessage": "",
                    "selector": "0x23b872dd",
                    "status": true,
                    "value": "0"
                },
                "nodeType": 0
            },
            "3": {
                "invocation": {
                    "address": "0x5133522ea5a0494ecb83f26311a095ddd7a9d4b6",
                    "callData": "0x000000000000000000000000cda72070e455bb31c7690a170224ce43623d0b6f000000000000000000000000e066c7b1feee619f88d2fdfc7eab3fc7b75ce6bb0000000000000000000000000000000000000000000000000000000000000001",
                    "decodedMethod": {
                        "callParams": [
                            {
                                "name": "from",
                                "type": "address",
                                "value": "0xcda72070e455bb31c7690a170224ce43623d0b6f"
                            },
                            {
                                "name": "to",
                                "type": "address",
                                "value": "0xe066c7b1feee619f88d2fdfc7eab3fc7b75ce6bb"
                            },
                            {
                                "decimalAvailable": true,
                                "name": "tokenId",
                                "type": "uint256",
                                "value": "1"
                            }
                        ],
                        "constructorArguments": "",
                        "name": "transferFrom",
                        "returnParams": [],
                        "signature": "transferFrom(address,address,uint256)"
                    },
                    "errorInfo": "",
                    "fromAddress": "0x1d15ababa2d5ba507711af51d8878381ff8af789",
                    "gasUsed": 44800,
                    "id": 3,
                    "methodDecoded": true,
                    "operation": "DELEGATECALL",
                    "output": "",
                    "revert": false,
                    "revertMessage": "",
                    "selector": "0x23b872dd",
                    "status": true,
                    "value": "0"
                },
                "nodeType": 0
            },
            "4": {
                "event": {
                    "contract": "0x1d15ababa2d5ba507711af51d8878381ff8af789",
                    "decodedLog": {
                        "name": "Approval",
                        "params": [
                            {
                                "name": "owner",
                                "type": "address",
                                "value": "0xcda72070e455bb31c7690a170224ce43623d0b6f"
                            },
                            {
                                "name": "approved",
                                "type": "address",
                                "value": "0x0000000000000000000000000000000000000000"
                            },
                            {
                                "decimalAvailable": true,
                                "name": "tokenId",
                                "type": "uint256",
                                "value": "1"
                            }
                        ],
                        "signature": "Approval(address,address,uint256)"
                    },
                    "id": 4,
                    "logData": "0x",
                    "logDecoded": true,
                    "operation": "EVENT",
                    "revert": false,
                    "status": true,
                    "topics": [
                        "0x8c5be1e5ebec7d5bd14f71427d1e84f3dd0314c0f7b2291e5b200ac8c7c3b925",
                        "0x000000000000000000000000cda72070e455bb31c7690a170224ce43623d0b6f",
                        "0x0000000000000000000000000000000000000000000000000000000000000000",
                        "0x0000000000000000000000000000000000000000000000000000000000000001"
                    ]
                },
                "nodeType": 1
            },
            "5": {
                "event": {
                    "contract": "0x1d15ababa2d5ba507711af51d8878381ff8af789",
                    "decodedLog": {
                        "name": "Transfer",
                        "params": [
                            {
                                "name": "from",
                                "type": "address",
                                "value": "0xcda72070e455bb31c7690a170224ce43623d0b6f"
                            },
                            {
                                "name": "to",
                                "type": "address",
                                "value": "0xe066c7b1feee619f88d2fdfc7eab3fc7b75ce6bb"
                            },
                            {
                                "decimalAvailable": true,
                                "name": "tokenId",
                                "type": "uint256",
                                "value": "1"
                            }
                        ],
                        "signature": "Transfer(address,address,uint256)"
                    },
                    "id": 5,
                    "logData": "0x",
                    "logDecoded": true,
                    "operation": "EVENT",
                    "revert": false,
                    "status": true,
                    "topics": [
                        "0xddf252ad1be2c89b69c2b068fc378daa952ba7f163c4a11628f55a4df523b3ef",
                        "0x000000000000000000000000cda72070e455bb31c7690a170224ce43623d0b6f",
                        "0x000000000000000000000000e066c7b1feee619f88d2fdfc7eab3fc7b75ce6bb",
                        "0x0000000000000000000000000000000000000000000000000000000000000001"
                    ]
                },
                "nodeType": 1
            },
            "6": {
                "event": {
                    "contract": "0xcda72070e455bb31c7690a170224ce43623d0b6f",
                    "decodedLog": {
                        "name": "ReserveAuctionCanceled",
                        "params": [
                            {
                                "name": "auctionId",
                                "type": "uint256",
                                "value": "330,698"
                            }
                        ],
                        "signature": "ReserveAuctionCanceled(uint256)"
                    },
                    "id": 6,
                    "logData": "0x",
                    "logDecoded": true,
                    "operation": "EVENT",
                    "revert": false,
                    "status": true,
                    "topics": [
                        "0x14b9c40404d5b41deb481f9a40b8aeb2bf4b47679b38cf757075a66ed510f7f1",
                        "0x0000000000000000000000000000000000000000000000000000000000050bca"
                    ]
                },
                "nodeType": 1
            }
        },
        "gasFlame": [
            {
                "children": [
                    {
                        "children": [
                            {
                                "children": [],
                                "depth": 0,
                                "name": "Initial Gas",
                                "value": 21228
                            },
                            {
                                "children": [
                                    {
                                        "children": [
                                            {
                                                "children": [
                                                    {
                                                        "children": [],
                                                        "depth": 3,
                                                        "name": "transferFrom",
                                                        "value": 44800
                                                    }
                                                ],
                                                "depth": 2,
                                                "name": "transferFrom",
                                                "value": 49731
                                            }
                                        ],
                                        "depth": 1,
                                        "name": "cancelReserveAuction",
                                        "value": 100134
                                    }
                                ],
                                "depth": 0,
                                "name": "Executed Gas",
                                "value": 107407
                            }
                        ],
                        "depth": -1,
                        "name": "Actual Gas Used",
                        "value": 102908
                    },
                    {
                        "children": [],
                        "depth": -1,
                        "name": "Refunded Gas",
                        "value": 25727
                    }
                ],
                "depth": -2,
                "name": "Total Gas",
                "value": 128635
            }
        ],
        "isConfirmed": true,
        "mainTrace": [
            {
                "children": [
                    {
                        "children": [
                            {
                                "children": [
                                    {
                                        "children": [
                                            {
                                                "children": [
                                                    {
                                                        "children": [],
                                                        "depth": 4,
                                                        "id": 4,
                                                        "order": 4
                                                    },
                                                    {
                                                        "children": [],
                                                        "depth": 4,
                                                        "id": 5,
                                                        "order": 5
                                                    }
                                                ],
                                                "depth": 3,
                                                "id": 3,
                                                "order": 3
                                            }
                                        ],
                                        "depth": 2,
                                        "id": 2,
                                        "order": 2
                                    },
                                    {
                                        "children": [],
                                        "depth": 2,
                                        "id": 6,
                                        "order": 6
                                    }
                                ],
                                "depth": 1,
                                "id": 1,
                                "order": 1
                            }
                        ],
                        "depth": 0,
                        "id": 0,
                        "order": 0
                    }
                ],
                "depth": -1,
                "id": -1,
                "order": -1
            }
        ],
        "mainTraceNodeCount": 7,
        "parentIdMap": {
            "0": -1,
            "1": 0,
            "2": 1,
            "3": 2,
            "4": 3,
            "5": 3,
            "6": 1
        },
        "tidyTrace": [
            {
                "children": [
                    {
                        "children": [
                            {
                                "children": [
                                    {
                                        "children": [
                                            {
                                                "children": [
                                                    {
                                                        "children": [],
                                                        "depth": 4,
                                                        "id": 4,
                                                        "order": 4
                                                    },
                                                    {
                                                        "children": [],
                                                        "depth": 4,
                                                        "id": 5,
                                                        "order": 5
                                                    }
                                                ],
                                                "depth": 3,
                                                "id": 3,
                                                "order": 3
                                            }
                                        ],
                                        "depth": 2,
                                        "id": 2,
                                        "order": 2
                                    },
                                    {
                                        "children": [],
                                        "depth": 2,
                                        "id": 6,
                                        "order": 6
                                    }
                                ],
                                "depth": 1,
                                "id": 1,
                                "order": 1
                            }
                        ],
                        "depth": 0,
                        "id": 0,
                        "order": 0
                    }
                ],
                "depth": -1,
                "id": -1,
                "order": -1
            }
        ],
        "tidyTraceNodeCount": 7
    },
    "state_change": {
        "stateChanges": [
            {
                "address": "0x1d15ababa2d5ba507711af51d8878381ff8af789",
                "erc": "ERC-721",
                "slots": [
                    {
                        "current": "0x0000000000000000000000000000000000000000000000000000000000000001",
                        "key": "0xf0360f2ccf025f450b76a77bc60e4f3b8244e6b30307be0228197ac2a44c2b9d",
                        "prev": "0x0000000000000000000000000000000000000000000000000000000000000002"
                    },
                    {
                        "current": "0x0000000000000000000000000000000000000000000000000000000000000001",
                        "key": "0xfeb3dec60877bb9ec90eacd9bedff7f19207e84b88bc880bbfac5edd33bdf7ad",
                        "prev": "0x0000000000000000000000000000000000000000000000000000000000000000"
                    },
                    {
                        "current": "0x000000000000000000000000e066c7b1feee619f88d2fdfc7eab3fc7b75ce6bb",
                        "key": "0xf585789965ba69220d5ce3dc1b444eb22ff546f2650694fef8fafe9c26560af9",
                        "prev": "0x000000000000000000000000cda72070e455bb31c7690a170224ce43623d0b6f"
                    }
                ],
                "storageVariables": [
                    {
                        "name": "_balances",
                        "type": "mapping(address => uint256)",
                        "value": {
                            "pairs": [
                                {
                                    "key": "0xcda72070e455bb31c7690a170224ce43623d0b6f",
                                    "value": {
                                        "current": "1",
                                        "prev": "2",
                                        "typeTag": 1
                                    }
                                },
                                {
                                    "key": "0xe066c7b1feee619f88d2fdfc7eab3fc7b75ce6bb",
                                    "value": {
                                        "current": "1",
                                        "prev": "0",
                                        "typeTag": 1
                                    }
                                }
                            ],
                            "typeTag": 4
                        }
                    },
                    {
                        "name": "_tokenData",
                        "type": "mapping(uint256 => struct ERC721Core.TokenData)",
                        "value": {
                            "pairs": [
                                {
                                    "key": "1",
                                    "value": {
                                        "fields": [
                                            {
                                                "name": "owner",
                                                "type": "address",
                                                "value": {
                                                    "current": "0xe066c7b1feee619f88d2fdfc7eab3fc7b75ce6bb",
                                                    "prev": "0xcda72070e455bb31c7690a170224ce43623d0b6f",
                                                    "typeTag": 1
                                                }
                                            },
                                            {
                                                "name": "data",
                                                "type": "uint96",
                                                "value": {
                                                    "current": "0",
                                                    "prev": "0",
                                                    "typeTag": 1
                                                }
                                            }
                                        ],
                                        "typeTag": 3
                                    }
                                }
                            ],
                            "typeTag": 4
                        }
                    }
                ]
            },
            {
                "address": "0xcda72070e455bb31c7690a170224ce43623d0b6f",
                "erc": "",
                "slots": [
                    {
                        "current": "0x0000000000000000000000000000000000000000000000000000000000000000",
                        "key": "0xe629887ffe695436ffd8d8312a2a73d49733706f67af27e437ba6f9a518b525e",
                        "prev": "0x000000000000000000000000e066c7b1feee619f88d2fdfc7eab3fc7b75ce6bb"
                    },
                    {
                        "current": "0x0000000000000000000000000000000000000000000000000000000000000000",
                        "key": "0xe629887ffe695436ffd8d8312a2a73d49733706f67af27e437ba6f9a518b5263",
                        "prev": "0x00000000000000000000000000000000000000000000000001aa535d3d0c0000"
                    },
                    {
                        "current": "0x0000000000000000000000000000000000000000000000000000000000000000",
                        "key": "0x1f46d3c0b2cf03d526b97a5c3f61ae256b083883dd26976c28c1f9ac6f461dd1",
                        "prev": "0x0000000000000000000000000000000000000000000000000000000000050bca"
                    },
                    {
                        "current": "0x0000000000000000000000000000000000000000000000000000000000000000",
                        "key": "0xe629887ffe695436ffd8d8312a2a73d49733706f67af27e437ba6f9a518b525c",
                        "prev": "0x0000000000000000000000001d15ababa2d5ba507711af51d8878381ff8af789"
                    },
                    {
                        "current": "0x0000000000000000000000000000000000000000000000000000000000000000",
                        "key": "0xe629887ffe695436ffd8d8312a2a73d49733706f67af27e437ba6f9a518b525d",
                        "prev": "0x0000000000000000000000000000000000000000000000000000000000000001"
                    }
                ],
                "storageVariables": [
                    {
                        "name": "auctionIdToAuction",
                        "type": "mapping(uint256 => struct NFTMarketReserveAuction.ReserveAuctionStorage)",
                        "value": {
                            "pairs": [
                                {
                                    "key": "330698",
                                    "value": {
                                        "fields": [
                                            {
                                                "name": "nftContract",
                                                "type": "address",
                                                "value": {
                                                    "current": "0x0000000000000000000000000000000000000000",
                                                    "prev": "0x1d15ababa2d5ba507711af51d8878381ff8af789",
                                                    "typeTag": 1
                                                }
                                            },
                                            {
                                                "name": "tokenId",
                                                "type": "uint256",
                                                "value": {
                                                    "current": "0",
                                                    "prev": "1",
                                                    "typeTag": 1
                                                }
                                            },
                                            {
                                                "name": "seller",
                                                "type": "address payable",
                                                "value": {
                                                    "current": "0x0000000000000000000000000000000000000000",
                                                    "prev": "0xe066c7b1feee619f88d2fdfc7eab3fc7b75ce6bb",
                                                    "typeTag": 1
                                                }
                                            },
                                            {
                                                "name": "bidReferrerAddressSlot0",
                                                "type": "uint96",
                                                "value": {
                                                    "current": "0",
                                                    "prev": "0",
                                                    "typeTag": 1
                                                }
                                            },
                                            {
                                                "name": "amount",
                                                "type": "uint256",
                                                "value": {
                                                    "current": "0",
                                                    "prev": "120000000000000000",
                                                    "typeTag": 1
                                                }
                                            }
                                        ],
                                        "typeTag": 3
                                    }
                                }
                            ],
                            "typeTag": 4
                        }
                    },
                    {
                        "name": "nftContractToTokenIdToAuctionId",
                        "type": "mapping(address => mapping(uint256 => uint256))",
                        "value": {
                            "pairs": [
                                {
                                    "key": "0x1d15ababa2d5ba507711af51d8878381ff8af789",
                                    "value": {
                                        "pairs": [
                                            {
                                                "key": "1",
                                                "value": {
                                                    "current": "0",
                                                    "prev": "330698",
                                                    "typeTag": 1
                                                }
                                            }
                                        ],
                                        "typeTag": 4
                                    }
                                }
                            ],
                            "typeTag": 4
                        }
                    }
                ]
            }
        ]
    }
}