{
    "balance_change": {
        "balanceChanges": [
            {
                "account": "0x45191c9b2af8a36f24be04773fa7acbca5e58691",
                "assets": [
                    {
                        "address": "0xa03c34ee9fa0e8db36dd9bf8d46631bb25f66302",
                        "amount": "0.0001",
                        "iconUrl": "",
                        "isERC1155": false,
                        "isERC721": false,
                        "sign": false,
                        "value": ""
                    }
                ]
            },
            {
                "account": "0x56d2550b4418636e5fd573146b9608ec65819cab",
                "assets": [
                    {
                        "address": "0xa03c34ee9fa0e8db36dd9bf8d46631bb25f66302",
                        "amount": "0.0001",
                        "iconUrl": "",
                        "isERC1155": false,
                        "isERC721": false,
                        "sign": true,
                        "value": ""
                    }
                ]
            }
        ]
    },
    "profile": {
        "basic_info": {
            "baseFee": "",
            "blockNumber": 10653687,
            "callData": "0xaacaaf8800000000000000000000000045191c9b2af8a36f24be04773fa7acbca5e5869100000000000000000000000000000000000000000000000000000000000000c000000000000000000000000000a28ff60000000000000000000000005f359cdd00000000000000000000000000000000000000000000000000000000000001c00000000000000000000000000000000000000000000000000000000000000000000000000000000000000000000000000000000000000000000000000003d09000000000000000000000000000000000000000000000000000000000000000c42df546f400000000000000000000000045191c9b2af8a36f24be04773fa7acbca5e58691000000000000000000000000a03c34ee9fa0e8db36dd9bf8d46631bb25f6630200000000000000000000000056d2550b4418636e5fd573146b9608ec65819cab000000000000000000000000000000000000000000000000000000000000271000000000000000000000000000000000000000000000000000000000000000a0000000000000000000000000000000000000000000000000000000000000000000000000000000000000000000000000000000000000000000000000000000000000000000000000000000000000000000000000000000000000004112ac011a40bc64a09fa5920213bea0796ad4ccc787e0e93e5a035fa4424bba837c32cc7c0030607e1fbdadcc32e46ab3900a636eff34c107411b185fd15803071c00000000000000000000000000000000000000000000000000000000000000",
            "debugEnable": true,
            "errorInfo": "",
            "eventCount": 4,
            "feeRecipient": "0xea674fdde714fd979de3edf0f56aa9716b898ec8",
            "formatValue": "0",
            "gasLimit": 250000,
            "gasPrice": "150",
            "gasUsed": 105717,
            "intTxnCount": 11,
            "internalRevert": false,
            "internalRevertMessage": "",
            "isContractCreation": false,
            "isFlashloan": false,
            "maxFee": "",
            "nonce": 114712,
            "overwritedBlockNumber": -1,
            "priorityFee": "",
            "receiver": "0x103675510a219bd84ce91d1bcb82ca194d665a09",
            "revertMessage": "",
            "sender": "0xf27696c8bca7d54d696189085ae1283f59342fa6",
            "simulationEnable": true,
            "sourceTxnHash": "0xc84c2906657278149c0fe453b6d0b4669cf3d2d5d37d17bb45cc3480dbee4674",
            "status": true,
            "timestamp": "2020-08-13T20:04:29Z",
            "transactionFee": "0.01585755",
            "txnHash": "0xc84c2906657278149c0fe453b6d0b4669cf3d2d5d37d17bb45cc3480dbee4674",
            "txnIndex": 26,
            "type": 0,
            "value": "0"
        },
        "fund_flow": [
            {
                "amount": "0.0001",
                "from": "0x45191c9b2af8a36f24be04773fa7acbca5e58691",
                "id": 1,
                "isERC1155": false,
                "isERC721": false,
                "isReverted": false,
                "order": 1,
                "to": "0x56d2550b4418636e5fd573146b9608ec65819cab",
                "token": "0xa03c34ee9fa0e8db36dd9bf8d46631bb25f66302"
            }
        ],
        "token_infos": [
            {
                "address": "0xa03c34ee9fa0e8db36dd9bf8d46631bb25f66302",
                "decimals": 8
            },
            {
                "address": "0xc02aaa39b223fe8d0a0e5c4f27ead9083c756cc2",
                "decimals": 18
            },
            {
                "address": "0xeeeeeeeeeeeeeeeeeeeeeeeeeeeeeeeeeeeeeeee",
                "decimals": 18
            }
        ]
    },
    "address_label": {
        "labels": [
            {
                "address": "0xe8a76d2f37fe50b6a95d27fb92291fe0b57407d3",
                "label": "TokenPriceProvider"
            },
            {
                "address": "0xeeeeeeeeeeeeeeeeeeeeeeeeeeeeeeeeeeeeeeee",
                "label": "Ether"
            },
            {
                "address": "0x103675510a219bd84ce91d1bcb82ca194d665a09",
                "label": "Argent: Transfer Manager"
            },
            {
                "address": "0xa03c34ee9fa0e8db36dd9bf8d46631bb25f66302",
                "label": "LWBT"
            },
            {
                "address": "0x45191c9b2af8a36f24be04773fa7acbca5e58691",
                "label": "Proxy"
            },
            {
                "address": "0x0000000000000000000000000000000000000003",
                "label": "Precompiled"
            },
            {
                "address": "0x0000000000000000000000000000000000000004",
                "label": "Precompiled"
            },
            {
                "address": "0xb6d64221451edbac7736d4c3da7fc827457dec03",
                "label": "BaseWallet"
            },
            {
                "address": "0xf27696c8bca7d54d696189085ae1283f59342fa6",
                "label": "Argent: Relayer 3"
            },
            {
                "address": "0x0000000000000000000000000000000000000001",
                "label": "Precompiled"
            },
            {
                "address": "0x0000000000000000000000000000000000000002",
                "label": "Precompiled"
            }
        ]
    },
    "trace": {
        "accountLabels": null,
        "dataMap": {
            "-1": {
                "invocation": {
                    "address": "0xf27696c8bca7d54d696189085ae1283f59342fa6",
                    "callData": "",
                    "decodedMethod": null,
                    "errorInfo": "",
                    "fromAddress": "",
                    "gasUsed": 0,
                    "id": -1,
                    "methodDecoded": false,
                    "operation": "",
                    "output": "",
                    "revert": false,
                    "revertMessage": "",
                    "selector": "",
                    "status": false,
                    "value": ""
                },
                "nodeType": 0
            },
            "0": {
                "invocation": {
                    "address": "0x103675510a219bd84ce91d1bcb82ca194d665a09",
                    "callData": "0x00000000000000000000000045191c9b2af8a36f24be04773fa7acbca5e5869100000000000000000000000000000000000000000000000000000000000000c000000000000000000000000000a28ff60000000000000000000000005f359cdd00000000000000000000000000000000000000000000000000000000000001c00000000000000000000000000000000000000000000000000000000000000000000000000000000000000000000000000000000000000000000000000003d09000000000000000000000000000000000000000000000000000000000000000c42df546f400000000000000000000000045191c9b2af8a36f24be04773fa7acbca5e58691000000000000000000000000a03c34ee9fa0e8db36dd9bf8d46631bb25f6630200000000000000000000000056d2550b4418636e5fd573146b9608ec65819cab000000000000000000000000000000000000000000000000000000000000271000000000000000000000000000000000000000000000000000000000000000a0000000000000000000000000000000000000000000000000000000000000000000000000000000000000000000000000000000000000000000000000000000000000000000000000000000000000000000000000000000000000004112ac011a40bc64a09fa5920213bea0796ad4ccc787e0e93e5a035fa4424bba837c32cc7c0030607e1fbdadcc32e46ab3900a636eff34c107411b185fd15803071c00000000000000000000000000000000000000000000000000000000000000",
                    "decodedMethod": {
                        "callParams": [
                            {
                                "name": "_wallet",
                                "type": "address",
                                "value": "0x45191c9b2af8a36f24be04773fa7acbca5e58691"
                            },
                            {
                                "name": "_data",
                                "type": "bytes",
                                "value": "0x2df546f400000000000000000000000045191c9b2af8a36f24be04773fa7acbca5e58691000000000000000000000000a03c34ee9fa0e8db36dd9bf8d46631bb25f6630200000000000000000000000056d2550b4418636e5fd573146b9608ec65819cab000000000000000000000000000000000000000000000000000000000000271000000000000000000000000000000000000000000000000000000000000000a00000000000000000000000000000000000000000000000000000000000000000"
                            },
                            {
                                "name": "_nonce",
                                "type": "uint256",
                                "value": "3,625,261,488,512,465,215,061,265,567,951,324,951,231,175,901"
                            },
                            {
                                "name": "_signatures",
                                "type": "bytes",
                                "value": "0x12ac011a40bc64a09fa5920213bea0796ad4ccc787e0e93e5a035fa4424bba837c32cc7c0030607e1fbdadcc32e46ab3900a636eff34c107411b185fd15803071c"
                            },
                            {
                                "name": "_gasPrice",
                                "type": "uint256",
                                "value": "0"
                            },
                            {
                                "name": "_gasLimit",
                                "type": "uint256",
                                "value": "250,000"
                            }
                        ],
                        "constructorArguments": "",
                        "name": "execute",
                        "returnParams": [
                            {
                                "name": "success",
                                "type": "bool",
                                "value": true
                            }
                        ],
                        "signature": "execute(address,bytes,uint256,bytes,uint256,uint256)"
                    },
                    "errorInfo": "",
                    "fromAddress": "0xf27696c8bca7d54d696189085ae1283f59342fa6",
                    "gasUsed": 105717,
                    "id": 0,
                    "methodDecoded": true,
                    "operation": "CALL",
                    "output": "0x0000000000000000000000000000000000000000000000000000000000000001",
                    "revert": false,
                    "revertMessage": "",
                    "selector": "0xaacaaf88",
                    "status": true,
                    "value": "0"
                },
                "nodeType": 0
            },
            "1": {
                "invocation": {
                    "address": "0x0000000000000000000000000000000000000001",
                    "callData": "0xd655b0fe6792f0317cc8887854ade08fd064ffcfe94392071a8a754e000000000000000000000000000000000000000000000000000000000000001c12ac011a40bc64a09fa5920213bea0796ad4ccc787e0e93e5a035fa4424bba837c32cc7c0030607e1fbdadcc32e46ab3900a636eff34c107411b185fd1580307",
                    "decodedMethod": {
                        "callParams": [
                            {
                                "name": "hash",
                                "type": "bytes32",
                                "value": "0x9ab0f249d655b0fe6792f0317cc8887854ade08fd064ffcfe94392071a8a754e"
                            },
                            {
                                "name": "v",
                                "type": "uint256",
                                "value": "28"
                            },
                            {
                                "name": "r",
                                "type": "bytes32",
                                "value": "0x12ac011a40bc64a09fa5920213bea0796ad4ccc787e0e93e5a035fa4424bba83"
                            },
                            {
                                "name": "s",
                                "type": "bytes32",
                                "value": "0x7c32cc7c0030607e1fbdadcc32e46ab3900a636eff34c107411b185fd1580307"
                            }
                        ],
                        "constructorArguments": "",
                        "name": "ecrecover",
                        "returnParams": [
                            {
                                "name": "",
                                "type": "address",
                                "value": "0xa2587bdd3acb126a2b6974bca05a40bcebf60922"
                            }
                        ],
                        "signature": "ecrecover(bytes32,uint256,bytes32,bytes32)"
                    },
                    "errorInfo": "",
                    "fromAddress": "0x103675510a219bd84ce91d1bcb82ca194d665a09",
                    "gasUsed": 3000,
                    "id": 1,
                    "methodDecoded": true,
                    "operation": "STATICCALL",
                    "output": "0x000000000000000000000000a2587bdd3acb126a2b6974bca05a40bcebf60922",
                    "revert": false,
                    "revertMessage": "",
                    "selector": "0x9ab0f249",
                    "status": true,
                    "value": "0"
                },
                "nodeType": 0
            },
            "10": {
                "invocation": {
                    "address": "0xb6d64221451edbac7736d4c3da7fc827457dec03",
                    "callData": "0x000000000000000000000000a03c34ee9fa0e8db36dd9bf8d46631bb25f66302000000000000000000000000000000000000000000000000000000000000000000000000000000000000000000000000000000000000000000000000000000600000000000000000000000000000000000000000000000000000000000000044a9059cbb00000000000000000000000056d2550b4418636e5fd573146b9608ec65819cab000000000000000000000000000000000000000000000000000000000000271000000000000000000000000000000000000000000000000000000000",
                    "decodedMethod": {
                        "callParams": [
                            {
                                "name": "_target",
                                "type": "address",
                                "value": "0xa03c34ee9fa0e8db36dd9bf8d46631bb25f66302"
                            },
                            {
                                "name": "_value",
                                "type": "uint256",
                                "value": "0"
                            },
                            {
                                "name": "_data",
                                "type": "bytes",
                                "value": "0xa9059cbb00000000000000000000000056d2550b4418636e5fd573146b9608ec65819cab0000000000000000000000000000000000000000000000000000000000002710"
                            }
                        ],
                        "constructorArguments": "",
                        "name": "invoke",
                        "returnParams": [
                            {
                                "name": "_result",
                                "type": "bytes",
                                "value": "0x0000000000000000000000000000000000000000000000000000000000000001"
                            }
                        ],
                        "signature": "invoke(address,uint256,bytes)"
                    },
                    "errorInfo": "",
                    "fromAddress": "0x45191c9b2af8a36f24be04773fa7acbca5e58691",
                    "gasUsed": 35837,
                    "id": 10,
                    "methodDecoded": true,
                    "operation": "DELEGATECALL",
                    "output": "0x000000000000000000000000000000000000000000000000000000000000002000000000000000000000000000000000000000000000000000000000000000200000000000000000000000000000000000000000000000000000000000000001",
                    "revert": false,
                    "revertMessage": "",
                    "selector": "0x8f6f0332",
                    "status": true,
                    "value": "0"
                },
                "nodeType": 0
            },
            "11": {
                "invocation": {
                    "address": "0xa03c34ee9fa0e8db36dd9bf8d46631bb25f66302",
                    "callData": "0x00000000000000000000000056d2550b4418636e5fd573146b9608ec65819cab0000000000000000000000000000000000000000000000000000000000002710",
                    "decodedMethod": {
                        "callParams": [
                            {
                                "name": "recipient",
                                "type": "address",
                                "value": "0x56d2550b4418636e5fd573146b9608ec65819cab"
                            },
                            {
                                "decimalAvailable": true,
                                "name": "amount",
                                "type": "uint256",
                                "value": "10,000"
                            }
                        ],
                        "constructorArguments": "",
                        "name": "transfer",
                        "returnParams": [
                            {
                                "name": "",
                                "type": "bool",
                                "value": true
                            }
                        ],
                        "signature": "transfer(address,uint256)"
                    },
                    "errorInfo": "",
                    "fromAddress": "0x45191c9b2af8a36f24be04773fa7acbca5e58691",
                    "gasUsed": 29625,
                    "id": 11,
                    "methodDecoded": true,
                    "operation": "CALL",
                    "output": "0x0000000000000000000000000000000000000000000000000000000000000001",
                    "revert": false,
                    "revertMessage": "",
                    "selector": "0xa9059cbb",
                    "status": true,
                    "value": "0"
                },
                "nodeType": 0
            },
            "12": {
                "event": {
                    "contract": "0xa03c34ee9fa0e8db36dd9bf8d46631bb25f66302",
                    "decodedLog": {
                        "name": "Transfer",
                        "params": [
                            {
                                "name": "from",
                                "type": "address",
                                "value": "0x45191c9b2af8a36f24be04773fa7acbca5e58691"
                            },
                            {
                                "name": "to",
                                "type": "address",
                                "value": "0x56d2550b4418636e5fd573146b9608ec65819cab"
                            },
                            {
                                "decimalAvailable": true,
                                "name": "value",
                                "type": "uint256",
                                "value": "10,000"
                            }
                        ],
                        "signature": "Transfer(address,address,uint256)"
                    },
                    "id": 12,
                    "logData": "0x0000000000000000000000000000000000000000000000000000000000002710",
                    "logDecoded": true,
                    "operation": "EVENT",
                    "revert": false,
                    "status": true,
                    "topics": [
                        "0xddf252ad1be2c89b69c2b068fc378daa952ba7f163c4a11628f55a4df523b3ef",
                        "0x00000000000000000000000045191c9b2af8a36f24be04773fa7acbca5e58691",
                        "0x00000000000000000000000056d2550b4418636e5fd573146b9608ec65819cab"
                    ]
                },
                "nodeType": 1
            },
            "13": {
                "event": {
                    "contract": "0x45191c9b2af8a36f24be04773fa7acbca5e58691",
                    "decodedLog": {
                        "name": "Invoked",
                        "params": [
                            {
                                "name": "module",
                                "type": "address",
                                "value": "0x103675510a219bd84ce91d1bcb82ca194d665a09"
                            },
                            {
                                "name": "target",
                                "type": "address",
                                "value": "0xa03c34ee9fa0e8db36dd9bf8d46631bb25f66302"
                            },
                            {
                                "name": "value",
                                "type": "uint256",
                                "value": "0"
                            },
                            {
                                "name": "data",
                                "type": "bytes",
                                "value": "0xa9059cbb00000000000000000000000056d2550b4418636e5fd573146b9608ec65819cab0000000000000000000000000000000000000000000000000000000000002710"
                            }
                        ],
                        "signature": "Invoked(address,address,uint256,bytes)"
                    },
                    "id": 13,
                    "logData": "0x00000000000000000000000000000000000000000000000000000000000000200000000000000000000000000000000000000000000000000000000000000044a9059cbb00000000000000000000000056d2550b4418636e5fd573146b9608ec65819cab000000000000000000000000000000000000000000000000000000000000271000000000000000000000000000000000000000000000000000000000",
                    "logDecoded": true,
                    "operation": "EVENT",
                    "revert": false,
                    "status": true,
                    "topics": [
                        "0x7d2476ab50663f025cff0be85655bcf355f62768615c0c478f3cd5293f807365",
                        "0x000000000000000000000000103675510a219bd84ce91d1bcb82ca194d665a09",
                        "0x000000000000000000000000a03c34ee9fa0e8db36dd9bf8d46631bb25f66302",
                        "0x0000000000000000000000000000000000000000000000000000000000000000"
                    ]
                },
                "nodeType": 1
            },
            "14": {
                "event": {
                    "contract": "0x103675510a219bd84ce91d1bcb82ca194d665a09",
                    "decodedLog": {
                        "name": "Transfer",
                        "params": [
                            {
                                "name": "wallet",
                                "type": "address",
                                "value": "0x45191c9b2af8a36f24be04773fa7acbca5e58691"
                            },
                            {
                                "name": "token",
                                "type": "address",
                                "value": "0xa03c34ee9fa0e8db36dd9bf8d46631bb25f66302"
                            },
                            {
                                "name": "amount",
                                "type": "uint256",
                                "value": "10,000"
                            },
                            {
                                "name": "to",
                                "type": "address",
                                "value": "0x56d2550b4418636e5fd573146b9608ec65819cab"
                            },
                            {
                                "name": "data",
                                "type": "bytes",
                                "value": "0x"
                            }
                        ],
                        "signature": "Transfer(address,address,uint256,address,bytes)"
                    },
                    "id": 14,
                    "logData": "0x00000000000000000000000056d2550b4418636e5fd573146b9608ec65819cab00000000000000000000000000000000000000000000000000000000000000400000000000000000000000000000000000000000000000000000000000000000",
                    "logDecoded": true,
                    "operation": "EVENT",
                    "revert": false,
                    "status": true,
                    "topics": [
                        "0xd5c97f2e041b2046be3b4337472f05720760a198f4d7d84980b7155eec7cca6f",
                        "0x00000000000000000000000045191c9b2af8a36f24be04773fa7acbca5e58691",
                        "0x000000000000000000000000a03c34ee9fa0e8db36dd9bf8d46631bb25f66302",
                        "0x0000000000000000000000000000000000000000000000000000000000002710"
                    ]
                },
                "nodeType": 1
            },
            "15": {
                "event": {
                    "contract": "0x103675510a219bd84ce91d1bcb82ca194d665a09",
                    "decodedLog": {
                        "name": "TransactionExecuted",
                        "params": [
                            {
                                "name": "wallet",
                                "type": "address",
                                "value": "0x45191c9b2af8a36f24be04773fa7acbca5e58691"
                            },
                            {
                                "name": "success",
                                "type": "bool",
                                "value": true
                            },
                            {
                                "name": "signedHash",
                                "type": "bytes32",
                                "value": "0x9ab0f249d655b0fe6792f0317cc8887854ade08fd064ffcfe94392071a8a754e"
                            }
                        ],
                        "signature": "TransactionExecuted(address,bool,bytes32)"
                    },
                    "id": 15,
                    "logData": "0x9ab0f249d655b0fe6792f0317cc8887854ade08fd064ffcfe94392071a8a754e",
                    "logDecoded": true,
                    "operation": "EVENT",
                    "revert": false,
                    "status": true,
                    "topics": [
                        "0x6bb0b384ce772133df63560651bc8c727c53306cec1d51e2cbf8ea35fb8f2ec1",
                        "0x00000000000000000000000045191c9b2af8a36f24be04773fa7acbca5e58691",
                        "0x0000000000000000000000000000000000000000000000000000000000000001"
                    ]
                },
                "nodeType": 1
            },
            "2": {
                "invocation": {
                    "address": "0x45191c9b2af8a36f24be04773fa7acbca5e58691",
                    "callData": "0x",
                    "decodedMethod": {
                        "callParams": [],
                        "constructorArguments": "",
                        "name": "owner",
                        "returnParams": [
                            {
                                "name": "",
                                "type": "address",
                                "value": "0xa2587bdd3acb126a2b6974bca05a40bcebf60922"
                            }
                        ],
                        "signature": "owner()"
                    },
                    "errorInfo": "",
                    "fromAddress": "0x103675510a219bd84ce91d1bcb82ca194d665a09",
                    "gasUsed": 2835,
                    "id": 2,
                    "methodDecoded": true,
                    "operation": "STATICCALL",
                    "output": "0x000000000000000000000000a2587bdd3acb126a2b6974bca05a40bcebf60922",
                    "revert": false,
                    "revertMessage": "",
                    "selector": "0x8da5cb5b",
                    "status": true,
                    "value": "0"
                },
                "nodeType": 0
            },
            "3": {
                "invocation": {
                    "address": "0xb6d64221451edbac7736d4c3da7fc827457dec03",
                    "callData": "0x",
                    "decodedMethod": {
                        "callParams": [],
                        "constructorArguments": "",
                        "name": "owner",
                        "returnParams": [
                            {
                                "name": "",
                                "type": "address",
                                "value": "0xa2587bdd3acb126a2b6974bca05a40bcebf60922"
                            }
                        ],
                        "signature": "owner()"
                    },
                    "errorInfo": "",
                    "fromAddress": "0x45191c9b2af8a36f24be04773fa7acbca5e58691",
                    "gasUsed": 1201,
                    "id": 3,
                    "methodDecoded": true,
                    "operation": "DELEGATECALL",
                    "output": "0x000000000000000000000000a2587bdd3acb126a2b6974bca05a40bcebf60922",
                    "revert": false,
                    "revertMessage": "",
                    "selector": "0x8da5cb5b",
                    "status": true,
                    "value": "0"
                },
                "nodeType": 0
            },
            "4": {
                "invocation": {
                    "address": "0x103675510a219bd84ce91d1bcb82ca194d665a09",
                    "callData": "0x00000000000000000000000045191c9b2af8a36f24be04773fa7acbca5e58691000000000000000000000000a03c34ee9fa0e8db36dd9bf8d46631bb25f6630200000000000000000000000056d2550b4418636e5fd573146b9608ec65819cab000000000000000000000000000000000000000000000000000000000000271000000000000000000000000000000000000000000000000000000000000000a00000000000000000000000000000000000000000000000000000000000000000",
                    "decodedMethod": {
                        "callParams": [
                            {
                                "name": "_wallet",
                                "type": "address",
                                "value": "0x45191c9b2af8a36f24be04773fa7acbca5e58691"
                            },
                            {
                                "name": "_token",
                                "type": "address",
                                "value": "0xa03c34ee9fa0e8db36dd9bf8d46631bb25f66302"
                            },
                            {
                                "name": "_to",
                                "type": "address",
                                "value": "0x56d2550b4418636e5fd573146b9608ec65819cab"
                            },
                            {
                                "name": "_amount",
                                "type": "uint256",
                                "value": "10,000"
                            },
                            {
                                "name": "_data",
                                "type": "bytes",
                                "value": "0x"
                            }
                        ],
                        "constructorArguments": "",
                        "name": "transferToken",
                        "returnParams": [],
                        "signature": "transferToken(address,address,address,uint256,bytes)"
                    },
                    "errorInfo": "",
                    "fromAddress": "0x103675510a219bd84ce91d1bcb82ca194d665a09",
                    "gasUsed": 58553,
                    "id": 4,
                    "methodDecoded": true,
                    "operation": "CALL",
                    "output": "",
                    "revert": false,
                    "revertMessage": "",
                    "selector": "0x2df546f4",
                    "status": true,
                    "value": "0"
                },
                "nodeType": 0
            },
            "5": {
                "invocation": {
                    "address": "0x44da3a8051ba88eab0440db3779cab9d679ae76f",
                    "callData": "0x00000000000000000000000045191c9b2af8a36f24be04773fa7acbca5e58691",
                    "decodedMethod": {
                        "callParams": [
                            {
                                "name": "account",
                                "type": "address",
                                "value": "0x45191c9b2af8a36f24be04773fa7acbca5e58691"
                            }
                        ],
                        "constructorArguments": "",
                        "name": "isLocked",
                        "returnParams": [
                            {
                                "name": "",
                                "type": "bool",
                                "value": false
                            }
                        ],
                        "signature": "isLocked(address)"
                    },
                    "errorInfo": "",
                    "fromAddress": "0x103675510a219bd84ce91d1bcb82ca194d665a09",
                    "gasUsed": 1248,
                    "id": 5,
                    "methodDecoded": true,
                    "operation": "STATICCALL",
                    "output": "0x0000000000000000000000000000000000000000000000000000000000000000",
                    "revert": false,
                    "revertMessage": "",
                    "selector": "0x4a4fbeec",
                    "status": true,
                    "value": "0"
                },
                "nodeType": 0
            },
            "6": {
                "invocation": {
                    "address": "0x391f0e86da951c03b1183c60b195090671adea88",
                    "callData": "0x00000000000000000000000045191c9b2af8a36f24be04773fa7acbca5e5869100000000000000000000000056d2550b4418636e5fd573146b9608ec65819cab",
                    "decodedMethod": {
                        "callParams": [
                            {
                                "name": "_wallet",
                                "type": "address",
                                "value": "0x45191c9b2af8a36f24be04773fa7acbca5e58691"
                            },
                            {
                                "name": "_target",
                                "type": "address",
                                "value": "0x56d2550b4418636e5fd573146b9608ec65819cab"
                            }
                        ],
                        "constructorArguments": "",
                        "name": "getWhitelist",
                        "returnParams": [
                            {
                                "name": "",
                                "type": "uint256",
                                "value": "0"
                            }
                        ],
                        "signature": "getWhitelist(address,address)"
                    },
                    "errorInfo": "",
                    "fromAddress": "0x103675510a219bd84ce91d1bcb82ca194d665a09",
                    "gasUsed": 1167,
                    "id": 6,
                    "methodDecoded": true,
                    "operation": "STATICCALL",
                    "output": "0x0000000000000000000000000000000000000000000000000000000000000000",
                    "revert": false,
                    "revertMessage": "",
                    "selector": "0x13f4a0ea",
                    "status": true,
                    "value": "0"
                },
                "nodeType": 0
            },
            "7": {
                "invocation": {
                    "address": "0xe8a76d2f37fe50b6a95d27fb92291fe0b57407d3",
                    "callData": "0x0000000000000000000000000000000000000000000000000000000000002710000000000000000000000000a03c34ee9fa0e8db36dd9bf8d46631bb25f66302",
                    "decodedMethod": {
                        "callParams": [
                            {
                                "name": "_amount",
                                "type": "uint256",
                                "value": "10,000"
                            },
                            {
                                "name": "_token",
                                "type": "address",
                                "value": "0xa03c34ee9fa0e8db36dd9bf8d46631bb25f66302"
                            }
                        ],
                        "constructorArguments": "",
                        "name": "getEtherValue",
                        "returnParams": [
                            {
                                "name": "",
                                "type": "uint256",
                                "value": "0"
                            }
                        ],
                        "signature": "getEtherValue(uint256,address)"
                    },
                    "errorInfo": "",
                    "fromAddress": "0x103675510a219bd84ce91d1bcb82ca194d665a09",
                    "gasUsed": 3521,
                    "id": 7,
                    "methodDecoded": true,
                    "operation": "STATICCALL",
                    "output": "0x0000000000000000000000000000000000000000000000000000000000000000",
                    "revert": false,
                    "revertMessage": "",
                    "selector": "0xce55c852",
                    "status": true,
                    "value": "0"
                },
                "nodeType": 0
            },
            "8": {
                "invocation": {
                    "address": "0xa03c34ee9fa0e8db36dd9bf8d46631bb25f66302",
                    "callData": "0x",
                    "decodedMethod": {
                        "callParams": [],
                        "constructorArguments": "",
                        "name": "decimals",
                        "returnParams": [
                            {
                                "name": "",
                                "type": "uint8",
                                "value": "8"
                            }
                        ],
                        "signature": "decimals()"
                    },
                    "errorInfo": "",
                    "fromAddress": "0xe8a76d2f37fe50b6a95d27fb92291fe0b57407d3",
                    "gasUsed": 282,
                    "id": 8,
                    "methodDecoded": true,
                    "operation": "STATICCALL",
                    "output": "0x0000000000000000000000000000000000000000000000000000000000000008",
                    "revert": false,
                    "revertMessage": "",
                    "selector": "0x313ce567",
                    "status": true,
                    "value": "0"
                },
                "nodeType": 0
            },
            "9": {
                "invocation": {
                    "address": "0x45191c9b2af8a36f24be04773fa7acbca5e58691",
                    "callData": "0x000000000000000000000000a03c34ee9fa0e8db36dd9bf8d46631bb25f66302000000000000000000000000000000000000000000000000000000000000000000000000000000000000000000000000000000000000000000000000000000600000000000000000000000000000000000000000000000000000000000000044a9059cbb00000000000000000000000056d2550b4418636e5fd573146b9608ec65819cab000000000000000000000000000000000000000000000000000000000000271000000000000000000000000000000000000000000000000000000000",
                    "decodedMethod": {
                        "callParams": [
                            {
                                "name": "_target",
                                "type": "address",
                                "value": "0xa03c34ee9fa0e8db36dd9bf8d46631bb25f66302"
                            },
                            {
                                "name": "_value",
                                "type": "uint256",
                                "value": "0"
                            },
                            {
                                "name": "_data",
                                "type": "bytes",
                                "value": "0xa9059cbb00000000000000000000000056d2550b4418636e5fd573146b9608ec65819cab0000000000000000000000000000000000000000000000000000000000002710"
                            }
                        ],
                        "constructorArguments": "",
                        "name": "invoke",
                        "returnParams": [
                            {
                                "name": "_result",
                                "type": "bytes",
                                "value": "0x0000000000000000000000000000000000000000000000000000000000000001"
                            }
                        ],
                        "signature": "invoke(address,uint256,bytes)"
                    },
                    "errorInfo": "",
                    "fromAddress": "0x103675510a219bd84ce91d1bcb82ca194d665a09",
                    "gasUsed": 37513,
                    "id": 9,
                    "methodDecoded": true,
                    "operation": "CALL",
                    "output": "0x000000000000000000000000000000000000000000000000000000000000002000000000000000000000000000000000000000000000000000000000000000200000000000000000000000000000000000000000000000000000000000000001",
                    "revert": false,
                    "revertMessage": "",
                    "selector": "0x8f6f0332",
                    "status": true,
                    "value": "0"
                },
                "nodeType": 0
            }
        },
        "gasFlame": [
            {
                "children": [
                    {
                        "children": [
                            {
                                "children": [],
                                "depth": 0,
                                "name": "Initial Gas",
                                "value": 25360
                            },
                            {
                                "children": [
                                    {
                                        "children": [],
                                        "depth": 1,
                                        "name": "ecrecover",
                                        "value": 3000
                                    },
                                    {
                                        "children": [
                                            {
                                                "children": [],
                                                "depth": 2,
                                                "name": "owner",
                                                "value": 1201
                                            }
                                        ],
                                        "depth": 1,
                                        "name": "owner",
                                        "value": 2835
                                    },
                                    {
                                        "children": [
                                            {
                                                "children": [],
                                                "depth": 2,
                                                "name": "isLocked",
                                                "value": 1248
                                            },
                                            {
                                                "children": [],
                                                "depth": 2,
                                                "name": "getWhitelist",
                                                "value": 1167
                                            },
                                            {
                                                "children": [
                                                    {
                                                        "children": [],
                                                        "depth": 3,
                                                        "name": "decimals",
                                                        "value": 282
                                                    }
                                                ],
                                                "depth": 2,
                                                "name": "getEtherValue",
                                                "value": 3521
                                            },
                                            {
                                                "children": [
                                                    {
                                                        "children": [
                                                            {
                                                                "children": [],
                                                                "depth": 4,
                                                                "name": "transfer",
                                                                "value": 29625
                                                            }
                                                        ],
                                                        "depth": 3,
                                                        "name": "invoke",
                                                        "value": 35837
                                                    }
                                                ],
                                                "depth": 2,
                                                "name": "invoke",
                                                "value": 37513
                                            }
                                        ],
                                        "depth": 1,
                                        "name": "transferToken",
                                        "value": 58553
                                    }
                                ],
                                "depth": 0,
                                "name": "Executed Gas",
                                "value": 80357
                            }
                        ],
                        "depth": -1,
                        "name": "Actual Gas Used",
                        "value": 105717
                    },
                    {
                        "children": [],
                        "depth": -1,
                        "name": "Refunded Gas",
                        "value": 0
                    }
                ],
                "depth": -2,
                "name": "Total Gas",
                "value": 105717
            }
        ],
        "isConfirmed": true,
        "mainTrace": [
            {
                "children": [
                    {
                        "children": [
                            {
                                "children": [],
                                "depth": 1,
                                "id": 1,
                                "order": 1
                            },
                            {
                                "children": [
                                    {
                                        "children": [],
                                        "depth": 2,
                                        "id": 3,
                                        "order": 3
                                    }
                                ],
                                "depth": 1,
                                "id": 2,
                                "order": 2
                            },
                            {
                                "children": [
                                    {
                                        "children": [],
                                        "depth": 2,
                                        "id": 5,
                                        "order": 5
                                    },
                                    {
                                        "children": [],
                                        "depth": 2,
                                        "id": 6,
                                        "order": 6
                                    },
                                    {
                                        "children": [
                                            {
                                                "children": [],
                                                "depth": 3,
                                                "id": 8,
                                                "order": 8
                                            }
                                        ],
                                        "depth": 2,
                                        "id": 7,
                                        "order": 7
                                    },
                                    {
                                        "children": [
                                            {
                                                "children": [
                                                    {
                                                        "children": [
                                                            {
                                                                "children": [],
                                                                "depth": 5,
                                                                "id": 12,
                                                                "order": 12
                                                            }
                                                        ],
                                                        "depth": 4,
                                                        "id": 11,
                                                        "order": 11
                                                    },
                                                    {
                                                        "children": [],
                                                        "depth": 4,
                                                        "id": 13,
                                                        "order": 13
                                                    }
                                                ],
                                                "depth": 3,
                                                "id": 10,
                                                "order": 10
                                            }
                                        ],
                                        "depth": 2,
                                        "id": 9,
                                        "order": 9
                                    },
                                    {
                                        "children": [],
                                        "depth": 2,
                                        "id": 14,
                                        "order": 14
                                    }
                                ],
                                "depth": 1,
                                "id": 4,
                                "order": 4
                            },
                            {
                                "children": [],
                                "depth": 1,
                                "id": 15,
                                "order": 15
                            }
                        ],
                        "depth": 0,
                        "id": 0,
                        "order": 0
                    }
                ],
                "depth": -1,
                "id": -1,
                "order": -1
            }
        ],
        "mainTraceNodeCount": 16,
        "parentIdMap": {
            "0": -1,
            "1": 0,
            "10": 9,
            "11": 10,
            "12": 11,
            "13": 10,
            "14": 4,
            "15": 0,
            "2": 0,
            "3": 2,
            "4": 0,
            "5": 4,
            "6": 4,
            "7": 4,
            "8": 7,
            "9": 4
        },
        "tidyTrace": [
            {
                "children": [
                    {
                        "children": [
                            {
                                "children": [
                                    {
                                        "children": [
                                            {
                                                "children": [
                                                    {
                                                        "children": [
                                                            {
                                                                "children": [],
                                                                "depth": 5,
                                                                "id": 12,
                                                                "order": 12
                                                            }
                                                        ],
                                                        "depth": 4,
                                                        "id": 11,
                                                        "order": 11
                                                    },
                                                    {
                                                        "children": [],
                                                        "depth": 4,
                                                        "id": 13,
                                                        "order": 13
                                                    }
                                                ],
                                                "depth": 3,
                                                "id": 10,
                                                "order": 10
                                            }
                                        ],
                                        "depth": 2,
                                        "id": 9,
                                        "order": 9
                                    },
                                    {
                                        "children": [],
                                        "depth": 2,
                                        "id": 14,
                                        "order": 14
                                    }
                                ],
                                "depth": 1,
                                "id": 4,
                                "order": 4
                            },
                            {
                                "children": [],
                                "depth": 1,
                                "id": 15,
                                "order": 15
                            }
                        ],
                        "depth": 0,
                        "id": 0,
                        "order": 0
                    }
                ],
                "depth": -1,
                "id": -1,
                "order": -1
            }
        ],
        "tidyTraceNodeCount": 9
    },
    "state_change": {
        "stateChanges": [
            {
                "address": "0x103675510a219bd84ce91d1bcb82ca194d665a09",
                "erc": "",
                "slots": [
                    {
                        "current": "0x00000000000000000000000000a28ff60000000000000000000000005f359cdd",
                        "key": "0xd6960490abcc0c24647f880fc0c98040de93b7165ccf38933fa34bda1f9d91f2",
                        "prev": "0x00000000000000000000000000a28ff30000000000000000000000005f359cc2"
                    }
                ],
                "storageVariables": [
                    {
                        "name": "relayer",
                        "type": "mapping(address => struct RelayerModule.RelayerConfig)",
                        "value": {
                            "pairs": [
                                {
                                    "key": "0x45191c9b2af8a36f24be04773fa7acbca5e58691",
                                    "value": {
                                        "fields": [
                                            {
                                                "name": "nonce",
                                                "type": "uint256",
                                                "value": {
                                                    "current": "3625261488512465215061265567951324951231175901",
                                                    "prev": "3625260467665364452245875177827502655926541506",
                                                    "typeTag": 1
                                                }
                                            }
                                        ],
                                        "typeTag": 3
                                    }
                                }
                            ],
                            "typeTag": 4
                        }
                    }
                ]
            },
            {
                "address": "0xa03c34ee9fa0e8db36dd9bf8d46631bb25f66302",
                "erc": "",
                "slots": [
                    {
                        "current": "0x0000000000000000000000000000000000000000000000000000000cce4117e0",
                        "key": "0x2ac24860d85be60546414e88c36b28bfbc1436f24240ebf58ed6d9dba64eb370",
                        "prev": "0x0000000000000000000000000000000000000000000000000000000cce413ef0"
                    },
                    {
                        "current": "0x0000000000000000000000000000000000000000000000000000000000002710",
                        "key": "0x8bfb0b132fe135a7e20056bcb69841d77110615314885a54be90173e082ceba0",
                        "prev": "0x0000000000000000000000000000000000000000000000000000000000000000"
                    }
                ],
                "storageVariables": []
            }
        ]
    }
}