{
    "balance_change": {
        "balanceChanges": []
    },
    "profile": {
        "basic_info": {
            "baseFee": "",
            "blockNumber": 8555452,
            "callData": "0x8eb4e0ad0000000000000000000000000000000000000000000000000000000000000140000000000000000000000000000000000000000000000000000000000000018000000000000000000000000000000000000000000000000000000000000001c000000000000000000000000000000000000000000000000000000000000002000000000000000000000000000000000000000000000000000000000000000240000000000000000000000000000000000000000000000000000000000000028000000000000000000000000000000000000000000000000000000000000002c0000000000000000000000000000000000000000000000000000000000000030000000000000000000000000000000000000000000000000000000000000003400000000000000000000000000000000000000000000000000000000000000380000000000000000000000000000000000000000000000000000000000000000152ecc9a2085d4afdb67d4f6b955eace30000000000000000000000000000000000000000000000000000000000000000000000000000000000000000000000010000000000000000000000004b668eeb0d50f2644df74bcd56d758250ada5daa0000000000000000000000000000000000000000000000000000000000000001000000000000000000000000be9de76fd0dbb6e878aaeb5c6283695f01efff35000000000000000000000000000000000000000000000000000000000000000100000000000000000000000000000000000000000000000001fc49683003e00000000000000000000000000000000000000000000000000000000000000000010000000000000000000000000000000000000000000000000000000000000064000000000000000000000000000000000000000000000000000000000000000100000000000000000000000000000000000000000000000000000045d964b8000000000000000000000000000000000000000000000000000000000000000001000000000000000000000000000000000000000000000000000000000000001c00000000000000000000000000000000000000000000000000000000000000016a83ccb9cce1fe71a14c34c9ba9f9e73112fa047a0ea553ef174e77364dde6de000000000000000000000000000000000000000000000000000000000000000158efa6dc292e5827d6edc26d8959f256cd959a7cdf5e4a094a938cf939144f1300000000000000000000000000000000000000000000000000000000000000010000000000000000000000000000000000000000000000000000000000000001",
            "debugEnable": true,
            "errorInfo": "",
            "eventCount": 1,
            "feeRecipient": "0x5a0b54d5dc17e0aadc383d2db43b0a0d3e029c4c",
            "formatValue": "0",
            "gasLimit": 173000,
            "gasPrice": "24",
            "gasUsed": 59059,
            "intTxnCount": 1,
            "internalRevert": false,
            "internalRevertMessage": "",
            "isContractCreation": false,
            "isFlashloan": false,
            "maxFee": "",
            "nonce": 177582,
            "overwritedBlockNumber": -1,
            "priorityFee": "",
            "receiver": "0x867ffb5a3871b500f65bdfafe0136f9667deae06",
            "revertMessage": "",
            "sender": "0xf008e2c7a7f16ac706c2e0ebd3f015d442016420",
            "simulationEnable": true,
            "sourceTxnHash": "0xc81dae605085a59d485de5e99a8ae7dd2530d894705f25abc2e4a523eb76c3ff",
            "status": true,
            "timestamp": "2019-09-15T17:35:31Z",
            "transactionFee": "0.001417416",
            "txnHash": "0xc81dae605085a59d485de5e99a8ae7dd2530d894705f25abc2e4a523eb76c3ff",
            "txnIndex": 7,
            "type": 0,
            "value": "0"
        },
        "fund_flow": [],
        "token_infos": [
            {
                "address": "0xc02aaa39b223fe8d0a0e5c4f27ead9083c756cc2",
                "decimals": 18
            },
            {
                "address": "0xeeeeeeeeeeeeeeeeeeeeeeeeeeeeeeeeeeeeeeee",
                "decimals": 18
            }
        ]
    },
    "address_label": {
        "labels": [
            {
                "address": "0x0000000000000000000000000000000000000004",
                "label": "Precompiled"
            },
            {
                "address": "0xeeeeeeeeeeeeeeeeeeeeeeeeeeeeeeeeeeeeeeee",
                "label": "Ether"
            },
            {
                "address": "0x867ffb5a3871b500f65bdfafe0136f9667deae06",
                "label": "LocalEthereum 1"
            },
            {
                "address": "0x0000000000000000000000000000000000000001",
                "label": "Precompiled"
            },
            {
                "address": "0x0000000000000000000000000000000000000002",
                "label": "Precompiled"
            },
            {
                "address": "0x0000000000000000000000000000000000000003",
                "label": "Precompiled"
            }
        ]
    },
    "trace": {
        "accountLabels": null,
        "dataMap": {
            "-1": {
                "invocation": {
                    "address": "0xf008e2c7a7f16ac706c2e0ebd3f015d442016420",
                    "callData": "",
                    "decodedMethod": null,
                    "errorInfo": "",
                    "fromAddress": "",
                    "gasUsed": 0,
                    "id": -1,
                    "methodDecoded": false,
                    "operation": "",
                    "output": "",
                    "revert": false,
                    "revertMessage": "",
                    "selector": "",
                    "status": false,
                    "value": ""
                },
                "nodeType": 0
            },
            "0": {
                "invocation": {
                    "address": "0x867ffb5a3871b500f65bdfafe0136f9667deae06",
                    "callData": "0x0000000000000000000000000000000000000000000000000000000000000140000000000000000000000000000000000000000000000000000000000000018000000000000000000000000000000000000000000000000000000000000001c000000000000000000000000000000000000000000000000000000000000002000000000000000000000000000000000000000000000000000000000000000240000000000000000000000000000000000000000000000000000000000000028000000000000000000000000000000000000000000000000000000000000002c0000000000000000000000000000000000000000000000000000000000000030000000000000000000000000000000000000000000000000000000000000003400000000000000000000000000000000000000000000000000000000000000380000000000000000000000000000000000000000000000000000000000000000152ecc9a2085d4afdb67d4f6b955eace30000000000000000000000000000000000000000000000000000000000000000000000000000000000000000000000010000000000000000000000004b668eeb0d50f2644df74bcd56d758250ada5daa0000000000000000000000000000000000000000000000000000000000000001000000000000000000000000be9de76fd0dbb6e878aaeb5c6283695f01efff35000000000000000000000000000000000000000000000000000000000000000100000000000000000000000000000000000000000000000001fc49683003e00000000000000000000000000000000000000000000000000000000000000000010000000000000000000000000000000000000000000000000000000000000064000000000000000000000000000000000000000000000000000000000000000100000000000000000000000000000000000000000000000000000045d964b8000000000000000000000000000000000000000000000000000000000000000001000000000000000000000000000000000000000000000000000000000000001c00000000000000000000000000000000000000000000000000000000000000016a83ccb9cce1fe71a14c34c9ba9f9e73112fa047a0ea553ef174e77364dde6de000000000000000000000000000000000000000000000000000000000000000158efa6dc292e5827d6edc26d8959f256cd959a7cdf5e4a094a938cf939144f1300000000000000000000000000000000000000000000000000000000000000010000000000000000000000000000000000000000000000000000000000000001",
                    "decodedMethod": {
                        "callParams": [
                            {
                                "name": "_tradeID",
                                "type": "bytes16[]",
                                "value": [
                                    "0x52ecc9a2085d4afdb67d4f6b955eace3"
                                ]
                            },
                            {
                                "name": "_seller",
                                "type": "address[]",
                                "value": [
                                    "0x4b668eeb0d50f2644df74bcd56d758250ada5daa"
                                ]
                            },
                            {
                                "name": "_buyer",
                                "type": "address[]",
                                "value": [
                                    "0xbe9de76fd0dbb6e878aaeb5c6283695f01efff35"
                                ]
                            },
                            {
                                "name": "_value",
                                "type": "uint256[]",
                                "value": [
                                    "143,070,000,000,000,000"
                                ]
                            },
                            {
                                "name": "_fee",
                                "type": "uint16[]",
                                "value": [
                                    "100"
                                ]
                            },
                            {
                                "name": "_maximumGasPrice",
                                "type": "uint128[]",
                                "value": [
                                    "300,000,000,000"
                                ]
                            },
                            {
                                "name": "_v",
                                "type": "uint8[]",
                                "value": [
                                    "28"
                                ]
                            },
                            {
                                "name": "_r",
                                "type": "bytes32[]",
                                "value": [
                                    "0x6a83ccb9cce1fe71a14c34c9ba9f9e73112fa047a0ea553ef174e77364dde6de"
                                ]
                            },
                            {
                                "name": "_s",
                                "type": "bytes32[]",
                                "value": [
                                    "0x58efa6dc292e5827d6edc26d8959f256cd959a7cdf5e4a094a938cf939144f13"
                                ]
                            },
                            {
                                "name": "_instructionByte",
                                "type": "uint8[]",
                                "value": [
                                    "1"
                                ]
                            }
                        ],
                        "constructorArguments": "",
                        "name": "batchRelay",
                        "returnParams": [
                            {
                                "name": "",
                                "type": "bool[]",
                                "value": [
                                    true
                                ]
                            }
                        ],
                        "signature": "batchRelay(bytes16[],address[],address[],uint256[],uint16[],uint128[],uint8[],bytes32[],bytes32[],uint8[])"
                    },
                    "errorInfo": "",
                    "fromAddress": "0xf008e2c7a7f16ac706c2e0ebd3f015d442016420",
                    "gasUsed": 59059,
                    "id": 0,
                    "methodDecoded": true,
                    "operation": "CALL",
                    "output": "0x000000000000000000000000000000000000000000000000000000000000002000000000000000000000000000000000000000000000000000000000000000010000000000000000000000000000000000000000000000000000000000000001",
                    "revert": false,
                    "revertMessage": "",
                    "selector": "0x8eb4e0ad",
                    "status": true,
                    "value": "0"
                },
                "nodeType": 0
            },
            "1": {
                "invocation": {
                    "address": "0x0000000000000000000000000000000000000001",
                    "callData": "0x9359f435154fccaf72b7f4deca498745b48d2ad1cd31dd640c440c21000000000000000000000000000000000000000000000000000000000000001c6a83ccb9cce1fe71a14c34c9ba9f9e73112fa047a0ea553ef174e77364dde6de58efa6dc292e5827d6edc26d8959f256cd959a7cdf5e4a094a938cf939144f13",
                    "decodedMethod": {
                        "callParams": [
                            {
                                "name": "hash",
                                "type": "bytes32",
                                "value": "0x1add4aae9359f435154fccaf72b7f4deca498745b48d2ad1cd31dd640c440c21"
                            },
                            {
                                "name": "v",
                                "type": "uint256",
                                "value": "28"
                            },
                            {
                                "name": "r",
                                "type": "bytes32",
                                "value": "0x6a83ccb9cce1fe71a14c34c9ba9f9e73112fa047a0ea553ef174e77364dde6de"
                            },
                            {
                                "name": "s",
                                "type": "bytes32",
                                "value": "0x58efa6dc292e5827d6edc26d8959f256cd959a7cdf5e4a094a938cf939144f13"
                            }
                        ],
                        "constructorArguments": "",
                        "name": "ecrecover",
                        "returnParams": [
                            {
                                "name": "",
                                "type": "address",
                                "value": "0xbe9de76fd0dbb6e878aaeb5c6283695f01efff35"
                            }
                        ],
                        "signature": "ecrecover(bytes32,uint256,bytes32,bytes32)"
                    },
                    "errorInfo": "",
                    "fromAddress": "0x867ffb5a3871b500f65bdfafe0136f9667deae06",
                    "gasUsed": 3000,
                    "id": 1,
                    "methodDecoded": true,
                    "operation": "CALL",
                    "output": "0x000000000000000000000000be9de76fd0dbb6e878aaeb5c6283695f01efff35",
                    "revert": false,
                    "revertMessage": "",
                    "selector": "0x1add4aae",
                    "status": true,
                    "value": "0"
                },
                "nodeType": 0
            },
            "2": {
                "event": {
                    "contract": "0x867ffb5a3871b500f65bdfafe0136f9667deae06",
                    "decodedLog": {
                        "name": "SellerCancelDisabled",
                        "params": [
                            {
                                "name": "_tradeHash",
                                "type": "bytes32",
                                "value": "0x893371ff48d98168d3397253e6d3c5642d9c0ad52a80dfddb4555f10e71da5eb"
                            }
                        ],
                        "signature": "SellerCancelDisabled(bytes32)"
                    },
                    "id": 2,
                    "logData": "0x",
                    "logDecoded": true,
                    "operation": "EVENT",
                    "revert": false,
                    "status": true,
                    "topics": [
                        "0xe95fa7985c7585e90dab2dc46470726468662be06f67d79a31a5012e4bc0edeb",
                        "0x893371ff48d98168d3397253e6d3c5642d9c0ad52a80dfddb4555f10e71da5eb"
                    ]
                },
                "nodeType": 1
            }
        },
        "gasFlame": [
            {
                "children": [
                    {
                        "children": [
                            {
                                "children": [],
                                "depth": 0,
                                "name": "Initial Gas",
                                "value": 35480
                            },
                            {
                                "children": [
                                    {
                                        "children": [],
                                        "depth": 1,
                                        "name": "ecrecover",
                                        "value": 3000
                                    }
                                ],
                                "depth": 0,
                                "name": "Executed Gas",
                                "value": 23579
                            }
                        ],
                        "depth": -1,
                        "name": "Actual Gas Used",
                        "value": 59059
                    },
                    {
                        "children": [],
                        "depth": -1,
                        "name": "Refunded Gas",
                        "value": 0
                    }
                ],
                "depth": -2,
                "name": "Total Gas",
                "value": 59059
            }
        ],
        "isConfirmed": true,
        "mainTrace": [
            {
                "children": [
                    {
                        "children": [
                            {
                                "children": [],
                                "depth": 1,
                                "id": 1,
                                "order": 1
                            },
                            {
                                "children": [],
                                "depth": 1,
                                "id": 2,
                                "order": 2
                            }
                        ],
                        "depth": 0,
                        "id": 0,
                        "order": 0
                    }
                ],
                "depth": -1,
                "id": -1,
                "order": -1
            }
        ],
        "mainTraceNodeCount": 3,
        "parentIdMap": {
            "0": -1,
            "1": 0,
            "2": 0
        },
        "tidyTrace": [
            {
                "children": [
                    {
                        "children": [
                            {
                                "children": [],
                                "depth": 1,
                                "id": 1,
                                "order": 1
                            },
                            {
                                "children": [],
                                "depth": 1,
                                "id": 2,
                                "order": 2
                            }
                        ],
                        "depth": 0,
                        "id": 0,
                        "order": 0
                    }
                ],
                "depth": -1,
                "id": -1,
                "order": -1
            }
        ],
        "tidyTraceNodeCount": 3
    },
    "state_change": {
        "stateChanges": [
            {
                "address": "0x867ffb5a3871b500f65bdfafe0136f9667deae06",
                "erc": "",
                "slots": [
                    {
                        "current": "0x000000000000000000000000000000000000000004e5e15d25c0000000000001",
                        "key": "0xe30aa4fc4474d0705ec85854af80e43a0a96e78149601d197438e7255c14b5c2",
                        "prev": "0x0000000000000000000000000000000000000000000000000000005d7e7a4801"
                    }
                ],
                "storageVariables": [
                    {
                        "name": "escrows",
                        "type": "mapping(bytes32 => struct LocalEthereumEscrows.Escrow)",
                        "value": {
                            "pairs": [
                                {
                                    "key": "0x893371ff48d98168d3397253e6d3c5642d9c0ad52a80dfddb4555f10e71da5eb",
                                    "value": {
                                        "fields": [
                                            {
                                                "name": "exists",
                                                "type": "bool",
                                                "value": {
                                                    "current": "true",
                                                    "prev": "true",
                                                    "typeTag": 1
                                                }
                                            },
                                            {
                                                "name": "sellerCanCancelAfter",
                                                "type": "uint32",
                                                "value": {
                                                    "current": "0",
                                                    "prev": "1568569928",
                                                    "typeTag": 1
                                                }
                                            },
                                            {
                                                "name": "totalGasFeesSpentByRelayer",
                                                "type": "uint128",
                                                "value": {
                                                    "current": "1378656000000000",
                                                    "prev": "0",
                                                    "typeTag": 1
                                                }
                                            }
                                        ],
                                        "typeTag": 3
                                    }
                                }
                            ],
                            "typeTag": 4
                        }
                    }
                ]
            }
        ]
    }
}