{
    "balance_change": {
        "balanceChanges": [
            {
                "account": "0x5caa5516f3a8d31a9a9fa63db46be92530b7969b",
                "assets": [
                    {
                        "address": "0x8c006bcb1150a4c0dbde823bc15f9f91ff2b0160",
                        "amount": "288,096,342,000",
                        "iconUrl": "",
                        "isERC1155": false,
                        "isERC721": false,
                        "sign": false,
                        "value": ""
                    }
                ]
            },
            {
                "account": "0x202d9acecef0328d5731a8564a5b4bfb7a0eade0",
                "assets": [
                    {
                        "address": "0x8c006bcb1150a4c0dbde823bc15f9f91ff2b0160",
                        "amount": "288,096,342,000",
                        "iconUrl": "",
                        "isERC1155": false,
                        "isERC721": false,
                        "sign": true,
                        "value": ""
                    }
                ]
            }
        ]
    },
    "profile": {
        "basic_info": {
            "baseFee": "",
            "blockNumber": 5198143,
            "callData": "0xa9059cbb000000000000000000000000202d9acecef0328d5731a8564a5b4bfb7a0eade00000000000000000000000000000000000000000000000000000004313e14ff0",
            "debugEnable": true,
            "errorInfo": "",
            "eventCount": 1,
            "feeRecipient": "0x5a0b54d5dc17e0aadc383d2db43b0a0d3e029c4c",
            "formatValue": "0",
            "gasLimit": 153227,
            "gasPrice": "1",
            "gasUsed": 53227,
            "intTxnCount": 0,
            "internalRevert": false,
            "internalRevertMessage": "",
            "isContractCreation": false,
            "isFlashloan": false,
            "maxFee": "",
            "nonce": 519,
            "overwritedBlockNumber": -1,
            "priorityFee": "",
            "receiver": "0x8c006bcb1150a4c0dbde823bc15f9f91ff2b0160",
            "revertMessage": "",
            "sender": "0x5caa5516f3a8d31a9a9fa63db46be92530b7969b",
            "simulationEnable": true,
            "sourceTxnHash": "0xc8af335f73683f7bfa517aa41943fc2b03b7f218023ab06aa35bf89b00bc51ec",
            "status": true,
            "timestamp": "2018-03-05T01:38:33Z",
            "transactionFee": "0.000053227",
            "txnHash": "0xc8af335f73683f7bfa517aa41943fc2b03b7f218023ab06aa35bf89b00bc51ec",
            "txnIndex": 40,
            "type": 0,
            "value": "0"
        },
        "fund_flow": [
            {
                "amount": "288,096,342,000",
                "from": "0x5caa5516f3a8d31a9a9fa63db46be92530b7969b",
                "id": 1,
                "isERC1155": false,
                "isERC721": false,
                "isReverted": false,
                "order": 1,
                "to": "0x202d9acecef0328d5731a8564a5b4bfb7a0eade0",
                "token": "0x8c006bcb1150a4c0dbde823bc15f9f91ff2b0160"
            }
        ],
        "token_infos": [
            {
                "address": "0xc02aaa39b223fe8d0a0e5c4f27ead9083c756cc2",
                "decimals": 18
            },
            {
                "address": "0xeeeeeeeeeeeeeeeeeeeeeeeeeeeeeeeeeeeeeeee",
                "decimals": 18
            }
        ]
    },
    "address_label": {
        "labels": [
            {
                "address": "0x0000000000000000000000000000000000000002",
                "label": "Precompiled"
            },
            {
                "address": "0x0000000000000000000000000000000000000003",
                "label": "Precompiled"
            },
            {
                "address": "0x0000000000000000000000000000000000000004",
                "label": "Precompiled"
            },
            {
                "address": "0xeeeeeeeeeeeeeeeeeeeeeeeeeeeeeeeeeeeeeeee",
                "label": "Ether"
            },
            {
                "address": "0x0000000000000000000000000000000000000001",
                "label": "Precompiled"
            }
        ]
    },
    "trace": {
        "accountLabels": null,
        "dataMap": {
            "-1": {
                "invocation": {
                    "address": "0x5caa5516f3a8d31a9a9fa63db46be92530b7969b",
                    "callData": "",
                    "decodedMethod": null,
                    "errorInfo": "",
                    "fromAddress": "",
                    "gasUsed": 0,
                    "id": -1,
                    "methodDecoded": false,
                    "operation": "",
                    "output": "",
                    "revert": false,
                    "revertMessage": "",
                    "selector": "",
                    "status": false,
                    "value": ""
                },
                "nodeType": 0
            },
            "0": {
                "invocation": {
                    "address": "0x8c006bcb1150a4c0dbde823bc15f9f91ff2b0160",
                    "callData": "0x000000000000000000000000202d9acecef0328d5731a8564a5b4bfb7a0eade00000000000000000000000000000000000000000000000000000004313e14ff0",
                    "decodedMethod": {
                        "callParams": [
                            {
                                "name": "_to",
                                "type": "address",
                                "value": "0x202d9acecef0328d5731a8564a5b4bfb7a0eade0"
                            },
                            {
                                "decimalAvailable": true,
                                "name": "_value",
                                "type": "uint256",
                                "value": "288,096,342,000"
                            }
                        ],
                        "constructorArguments": "",
                        "name": "transfer",
                        "returnParams": [],
                        "signature": "transfer(address,uint256)"
                    },
                    "errorInfo": "",
                    "fromAddress": "0x5caa5516f3a8d31a9a9fa63db46be92530b7969b",
                    "gasUsed": 53227,
                    "id": 0,
                    "methodDecoded": true,
                    "operation": "CALL",
                    "output": "",
                    "revert": false,
                    "revertMessage": "",
                    "selector": "0xa9059cbb",
                    "status": true,
                    "value": "0"
                },
                "nodeType": 0
            },
            "1": {
                "event": {
                    "contract": "0x8c006bcb1150a4c0dbde823bc15f9f91ff2b0160",
                    "decodedLog": {
                        "name": "Transfer",
                        "params": [
                            {
                                "name": "from",
                                "type": "address",
                                "value": "0x5caa5516f3a8d31a9a9fa63db46be92530b7969b"
                            },
                            {
                                "name": "to",
                                "type": "address",
                                "value": "0x202d9acecef0328d5731a8564a5b4bfb7a0eade0"
                            },
                            {
                                "decimalAvailable": true,
                                "name": "value",
                                "type": "uint256",
                                "value": "288,096,342,000"
                            }
                        ],
                        "signature": "Transfer(address,address,uint256)"
                    },
                    "id": 1,
                    "logData": "0x0000000000000000000000000000000000000000000000000000004313e14ff0",
                    "logDecoded": true,
                    "operation": "EVENT",
                    "revert": false,
                    "status": true,
                    "topics": [
                        "0xddf252ad1be2c89b69c2b068fc378daa952ba7f163c4a11628f55a4df523b3ef",
                        "0x0000000000000000000000005caa5516f3a8d31a9a9fa63db46be92530b7969b",
                        "0x000000000000000000000000202d9acecef0328d5731a8564a5b4bfb7a0eade0"
                    ]
                },
                "nodeType": 1
            }
        },
        "gasFlame": [
            {
                "children": [
                    {
                        "children": [
                            {
                                "children": [],
                                "depth": 0,
                                "name": "Initial Gas",
                                "value": 23128
                            },
                            {
                                "children": [],
                                "depth": 0,
                                "name": "Executed Gas",
                                "value": 30099
                            }
                        ],
                        "depth": -1,
                        "name": "Actual Gas Used",
                        "value": 53227
                    },
                    {
                        "children": [],
                        "depth": -1,
                        "name": "Refunded Gas",
                        "value": 0
                    }
                ],
                "depth": -2,
                "name": "Total Gas",
                "value": 53227
            }
        ],
        "isConfirmed": true,
        "mainTrace": [
            {
                "children": [
                    {
                        "children": [
                            {
                                "children": [],
                                "depth": 1,
                                "id": 1,
                                "order": 1
                            }
                        ],
                        "depth": 0,
                        "id": 0,
                        "order": 0
                    }
                ],
                "depth": -1,
                "id": -1,
                "order": -1
            }
        ],
        "mainTraceNodeCount": 2,
        "parentIdMap": {
            "0": -1,
            "1": 0
        },
        "tidyTrace": [
            {
                "children": [
                    {
                        "children": [
                            {
                                "children": [],
                                "depth": 1,
                                "id": 1,
                                "order": 1
                            }
                        ],
                        "depth": 0,
                        "id": 0,
                        "order": 0
                    }
                ],
                "depth": -1,
                "id": -1,
                "order": -1
            }
        ],
        "tidyTraceNodeCount": 2
    },
    "state_change": {
        "stateChanges": [
            {
                "address": "0x8c006bcb1150a4c0dbde823bc15f9f91ff2b0160",
                "erc": "",
                "slots": [
                    {
                        "current": "0x0000000000000000000000000000000000000000000000000000004313e14ff0",
                        "key": "0x969ab086c5bb9c498615350b7f58881a7c19bd33b4979c2a08b862c752846cc5",
                        "prev": "0x0000000000000000000000000000000000000000000000000000000000000000"
                    },
                    {
                        "current": "0x0000000000000000000000000000000000000000000000000012191000c1b610",
                        "key": "0xecb2f9834db2207e202f934c05c529f29cdd292672c4c851b436472eeecf57ce",
                        "prev": "0x0000000000000000000000000000000000000000000000000012195314a30600"
                    }
                ],
                "storageVariables": []
            }
        ]
    }
}