{
    "balance_change": {
        "balanceChanges": [
            {
                "account": "0x52882f7f76cd3a786bf84873075dba7aac626104",
                "assets": [
                    {
                        "address": "0xed00a2cba066714999ec703350e0a5b6b7ab66cb",
                        "amount": "312,000",
                        "iconUrl": "",
                        "isERC1155": false,
                        "isERC721": false,
                        "sign": false,
                        "value": ""
                    }
                ]
            },
            {
                "account": "0x3ed5e897da7d692cab56fadc16f89f77d0b2e139",
                "assets": [
                    {
                        "address": "0xed00a2cba066714999ec703350e0a5b6b7ab66cb",
                        "amount": "312,000",
                        "iconUrl": "",
                        "isERC1155": false,
                        "isERC721": false,
                        "sign": true,
                        "value": ""
                    }
                ]
            }
        ]
    },
    "profile": {
        "basic_info": {
            "baseFee": "",
            "blockNumber": 6690347,
            "callData": "0xa9059cbb0000000000000000000000003ed5e897da7d692cab56fadc16f89f77d0b2e1390000000000000000000000000000000000000000000042118dcbc92753000000",
            "debugEnable": true,
            "errorInfo": "",
            "eventCount": 1,
            "feeRecipient": "0x52bc44d5378309ee2abf1539bf71de1b7d7be3b5",
            "formatValue": "0",
            "gasLimit": 60000,
            "gasPrice": "6.6",
            "gasUsed": 52284,
            "intTxnCount": 0,
            "internalRevert": false,
            "internalRevertMessage": "",
            "isContractCreation": false,
            "isFlashloan": false,
            "maxFee": "",
            "nonce": 111,
            "overwritedBlockNumber": -1,
            "priorityFee": "",
            "receiver": "0xed00a2cba066714999ec703350e0a5b6b7ab66cb",
            "revertMessage": "",
            "sender": "0x52882f7f76cd3a786bf84873075dba7aac626104",
            "simulationEnable": true,
            "sourceTxnHash": "0xc886d9c6ef4d254573396b8b93b7a3be3d41c8914bd921d94a55b5e8f65ddc06",
            "status": true,
            "timestamp": "2018-11-12T11:11:24Z",
            "transactionFee": "0.0003450744",
            "txnHash": "0xc886d9c6ef4d254573396b8b93b7a3be3d41c8914bd921d94a55b5e8f65ddc06",
            "txnIndex": 109,
            "type": 0,
            "value": "0"
        },
        "fund_flow": [
            {
                "amount": "312,000",
                "from": "0x52882f7f76cd3a786bf84873075dba7aac626104",
                "id": 1,
                "isERC1155": false,
                "isERC721": false,
                "isReverted": false,
                "order": 1,
                "to": "0x3ed5e897da7d692cab56fadc16f89f77d0b2e139",
                "token": "0xed00a2cba066714999ec703350e0a5b6b7ab66cb"
            }
        ],
        "token_infos": [
            {
                "address": "0xeeeeeeeeeeeeeeeeeeeeeeeeeeeeeeeeeeeeeeee",
                "decimals": 18
            },
            {
                "address": "0xc02aaa39b223fe8d0a0e5c4f27ead9083c756cc2",
                "decimals": 18
            },
            {
                "address": "0xed00a2cba066714999ec703350e0a5b6b7ab66cb",
                "decimals": 18
            }
        ]
    },
    "address_label": {
        "labels": [
            {
                "address": "0xeeeeeeeeeeeeeeeeeeeeeeeeeeeeeeeeeeeeeeee",
                "label": "Ether"
            },
            {
                "address": "0xed00a2cba066714999ec703350e0a5b6b7ab66cb",
                "label": "O2O (O2O)"
            },
            {
                "address": "0x0000000000000000000000000000000000000001",
                "label": "Precompiled"
            },
            {
                "address": "0x0000000000000000000000000000000000000002",
                "label": "Precompiled"
            },
            {
                "address": "0x0000000000000000000000000000000000000003",
                "label": "Precompiled"
            },
            {
                "address": "0x0000000000000000000000000000000000000004",
                "label": "Precompiled"
            }
        ]
    },
    "trace": {
        "accountLabels": null,
        "dataMap": {
            "-1": {
                "invocation": {
                    "address": "0x52882f7f76cd3a786bf84873075dba7aac626104",
                    "callData": "",
                    "decodedMethod": null,
                    "errorInfo": "",
                    "fromAddress": "",
                    "gasUsed": 0,
                    "id": -1,
                    "methodDecoded": false,
                    "operation": "",
                    "output": "",
                    "revert": false,
                    "revertMessage": "",
                    "selector": "",
                    "status": false,
                    "value": ""
                },
                "nodeType": 0
            },
            "0": {
                "invocation": {
                    "address": "0xed00a2cba066714999ec703350e0a5b6b7ab66cb",
                    "callData": "0x0000000000000000000000003ed5e897da7d692cab56fadc16f89f77d0b2e1390000000000000000000000000000000000000000000042118dcbc92753000000",
                    "decodedMethod": {
                        "callParams": [
                            {
                                "name": "dst",
                                "type": "address",
                                "value": "0x3ed5e897da7d692cab56fadc16f89f77d0b2e139"
                            },
                            {
                                "decimalAvailable": true,
                                "name": "wad",
                                "type": "uint256",
                                "value": "312,000,000,000,000,000,000,000"
                            }
                        ],
                        "constructorArguments": "",
                        "name": "transfer",
                        "returnParams": [
                            {
                                "name": "",
                                "type": "bool",
                                "value": true
                            }
                        ],
                        "signature": "transfer(address,uint256)"
                    },
                    "errorInfo": "",
                    "fromAddress": "0x52882f7f76cd3a786bf84873075dba7aac626104",
                    "gasUsed": 52284,
                    "id": 0,
                    "methodDecoded": true,
                    "operation": "CALL",
                    "output": "0x0000000000000000000000000000000000000000000000000000000000000001",
                    "revert": false,
                    "revertMessage": "",
                    "selector": "0xa9059cbb",
                    "status": true,
                    "value": "0"
                },
                "nodeType": 0
            },
            "1": {
                "event": {
                    "contract": "0xed00a2cba066714999ec703350e0a5b6b7ab66cb",
                    "decodedLog": {
                        "name": "Transfer",
                        "params": [
                            {
                                "name": "from",
                                "type": "address",
                                "value": "0x52882f7f76cd3a786bf84873075dba7aac626104"
                            },
                            {
                                "name": "to",
                                "type": "address",
                                "value": "0x3ed5e897da7d692cab56fadc16f89f77d0b2e139"
                            },
                            {
                                "decimalAvailable": true,
                                "name": "value",
                                "type": "uint256",
                                "value": "312,000,000,000,000,000,000,000"
                            }
                        ],
                        "signature": "Transfer(address,address,uint256)"
                    },
                    "id": 1,
                    "logData": "0x0000000000000000000000000000000000000000000042118dcbc92753000000",
                    "logDecoded": true,
                    "operation": "EVENT",
                    "revert": false,
                    "status": true,
                    "topics": [
                        "0xddf252ad1be2c89b69c2b068fc378daa952ba7f163c4a11628f55a4df523b3ef",
                        "0x00000000000000000000000052882f7f76cd3a786bf84873075dba7aac626104",
                        "0x0000000000000000000000003ed5e897da7d692cab56fadc16f89f77d0b2e139"
                    ]
                },
                "nodeType": 1
            }
        },
        "gasFlame": [
            {
                "children": [
                    {
                        "children": [
                            {
                                "children": [],
                                "depth": 0,
                                "name": "Initial Gas",
                                "value": 23256
                            },
                            {
                                "children": [],
                                "depth": 0,
                                "name": "Executed Gas",
                                "value": 29028
                            }
                        ],
                        "depth": -1,
                        "name": "Actual Gas Used",
                        "value": 52284
                    },
                    {
                        "children": [],
                        "depth": -1,
                        "name": "Refunded Gas",
                        "value": 0
                    }
                ],
                "depth": -2,
                "name": "Total Gas",
                "value": 52284
            }
        ],
        "isConfirmed": true,
        "mainTrace": [
            {
                "children": [
                    {
                        "children": [
                            {
                                "children": [],
                                "depth": 1,
                                "id": 1,
                                "order": 1
                            }
                        ],
                        "depth": 0,
                        "id": 0,
                        "order": 0
                    }
                ],
                "depth": -1,
                "id": -1,
                "order": -1
            }
        ],
        "mainTraceNodeCount": 2,
        "parentIdMap": {
            "0": -1,
            "1": 0
        },
        "tidyTrace": [
            {
                "children": [
                    {
                        "children": [
                            {
                                "children": [],
                                "depth": 1,
                                "id": 1,
                                "order": 1
                            }
                        ],
                        "depth": 0,
                        "id": 0,
                        "order": 0
                    }
                ],
                "depth": -1,
                "id": -1,
                "order": -1
            }
        ],
        "tidyTraceNodeCount": 2
    },
    "state_change": {
        "stateChanges": [
            {
                "address": "0xed00a2cba066714999ec703350e0a5b6b7ab66cb",
                "erc": "ERC-20",
                "slots": [
                    {
                        "current": "0x00000000000000000000000000000000000000000001446477248df2e2700000",
                        "key": "0x4b90e94c101cafb67bec36e56338eebc9e8afc790289a5fac33cd8b3c94f6789",
                        "prev": "0x00000000000000000000000000000000000000000001867604f0571a35700000"
                    },
                    {
                        "current": "0x0000000000000000000000000000000000000000000042118dcbc92753000000",
                        "key": "0xcaef153c2c1a02210191969a459a4d8df89db81ba9e0a7f947e4742e2c63b7cb",
                        "prev": "0x0000000000000000000000000000000000000000000000000000000000000000"
                    }
                ],
                "storageVariables": [
                    {
                        "name": "balances",
                        "type": "mapping(address => uint256)",
                        "value": {
                            "pairs": [
                                {
                                    "key": "0x3ed5e897da7d692cab56fadc16f89f77d0b2e139",
                                    "value": {
                                        "current": "312000000000000000000000",
                                        "prev": "0",
                                        "typeTag": 1
                                    }
                                },
                                {
                                    "key": "0x52882f7f76cd3a786bf84873075dba7aac626104",
                                    "value": {
                                        "current": "1531900000000000000000000",
                                        "prev": "1843900000000000000000000",
                                        "typeTag": 1
                                    }
                                }
                            ],
                            "typeTag": 4
                        }
                    }
                ]
            }
        ]
    }
}