{
    "balance_change": {
        "balanceChanges": [
            {
                "account": "0xb063360ea50a4381ce70a6ad14ad016d4589e737",
                "assets": [
                    {
                        "address": "0x111111111117dc0aa78b770fa6a738034120c302",
                        "amount": "24,000",
                        "iconUrl": "https://assets.blocksec.com/icon/ca85cbb46dd840dad943ce8d71a6933f6860da2d672e673851deb5beb229ca96.png",
                        "isERC1155": false,
                        "isERC721": false,
                        "sign": false,
                        "value": "18290.2596"
                    }
                ]
            },
            {
                "account": "0xd1305fbda97c035f86fdaa7785fb568c203174e1",
                "assets": [
                    {
                        "address": "0x111111111117dc0aa78b770fa6a738034120c302",
                        "amount": "24,000",
                        "iconUrl": "https://assets.blocksec.com/icon/ca85cbb46dd840dad943ce8d71a6933f6860da2d672e673851deb5beb229ca96.png",
                        "isERC1155": false,
                        "isERC721": false,
                        "sign": true,
                        "value": "18290.2596"
                    }
                ]
            }
        ]
    },
    "profile": {
        "basic_info": {
            "baseFee": "35.182956813",
            "blockNumber": 15042458,
            "callData": "0xa9059cbb000000000000000000000000d1305fbda97c035f86fdaa7785fb568c203174e10000000000000000000000000000000000000000000005150ae84a8cdf000000",
            "debugEnable": true,
            "errorInfo": "",
            "eventCount": 1,
            "feeRecipient": "0xea674fdde714fd979de3edf0f56aa9716b898ec8",
            "formatValue": "0",
            "gasLimit": 300000,
            "gasPrice": "40.182956813",
            "gasUsed": 34518,
            "intTxnCount": 0,
            "internalRevert": false,
            "internalRevertMessage": "",
            "isContractCreation": false,
            "isFlashloan": false,
            "maxFee": "200",
            "nonce": 717,
            "overwritedBlockNumber": -1,
            "priorityFee": "5",
            "receiver": "0x111111111117dc0aa78b770fa6a738034120c302",
            "revertMessage": "",
            "sender": "0xb063360ea50a4381ce70a6ad14ad016d4589e737",
            "simulationEnable": true,
            "sourceTxnHash": "0xc99317889aacec1f355cc40dd10dbc1f63f54ab43a1978a0d7e15856475ca7af",
            "status": true,
            "timestamp": "2022-06-29T00:56:14Z",
            "transactionFee": "0.001387035303271134",
            "txnHash": "0xc99317889aacec1f355cc40dd10dbc1f63f54ab43a1978a0d7e15856475ca7af",
            "txnIndex": 35,
            "type": 2,
            "value": "0"
        },
        "fund_flow": [
            {
                "amount": "24,000",
                "from": "0xb063360ea50a4381ce70a6ad14ad016d4589e737",
                "id": 1,
                "isERC1155": false,
                "isERC721": false,
                "isReverted": false,
                "order": 1,
                "to": "0xd1305fbda97c035f86fdaa7785fb568c203174e1",
                "token": "0x111111111117dc0aa78b770fa6a738034120c302"
            }
        ],
        "token_infos": [
            {
                "address": "0x111111111117dc0aa78b770fa6a738034120c302",
                "decimals": 18
            },
            {
                "address": "0xc02aaa39b223fe8d0a0e5c4f27ead9083c756cc2",
                "decimals": 18
            },
            {
                "address": "0xeeeeeeeeeeeeeeeeeeeeeeeeeeeeeeeeeeeeeeee",
                "decimals": 18
            }
        ]
    },
    "address_label": {
        "labels": [
            {
                "address": "0x0000000000000000000000000000000000000004",
                "label": "Precompiled"
            },
            {
                "address": "0xeeeeeeeeeeeeeeeeeeeeeeeeeeeeeeeeeeeeeeee",
                "label": "Ether"
            },
            {
                "address": "0x111111111117dc0aa78b770fa6a738034120c302",
                "label": "1inch: 1INCH Token"
            },
            {
                "address": "0xd1305fbda97c035f86fdaa7785fb568c203174e1",
                "label": "OKX"
            },
            {
                "address": "0x0000000000000000000000000000000000000001",
                "label": "Precompiled"
            },
            {
                "address": "0x0000000000000000000000000000000000000002",
                "label": "Precompiled"
            },
            {
                "address": "0x0000000000000000000000000000000000000003",
                "label": "Precompiled"
            }
        ]
    },
    "trace": {
        "accountLabels": null,
        "dataMap": {
            "-1": {
                "invocation": {
                    "address": "0xb063360ea50a4381ce70a6ad14ad016d4589e737",
                    "callData": "",
                    "decodedMethod": null,
                    "errorInfo": "",
                    "fromAddress": "",
                    "gasUsed": 0,
                    "id": -1,
                    "methodDecoded": false,
                    "operation": "",
                    "output": "",
                    "revert": false,
                    "revertMessage": "",
                    "selector": "",
                    "status": false,
                    "value": ""
                },
                "nodeType": 0
            },
            "0": {
                "invocation": {
                    "address": "0x111111111117dc0aa78b770fa6a738034120c302",
                    "callData": "0x000000000000000000000000d1305fbda97c035f86fdaa7785fb568c203174e10000000000000000000000000000000000000000000005150ae84a8cdf000000",
                    "decodedMethod": {
                        "callParams": [
                            {
                                "name": "recipient",
                                "type": "address",
                                "value": "0xd1305fbda97c035f86fdaa7785fb568c203174e1"
                            },
                            {
                                "decimalAvailable": true,
                                "name": "amount",
                                "type": "uint256",
                                "value": "24,000,000,000,000,000,000,000"
                            }
                        ],
                        "constructorArguments": "",
                        "name": "transfer",
                        "returnParams": [
                            {
                                "name": "",
                                "type": "bool",
                                "value": true
                            }
                        ],
                        "signature": "transfer(address,uint256)"
                    },
                    "errorInfo": "",
                    "fromAddress": "0xb063360ea50a4381ce70a6ad14ad016d4589e737",
                    "gasUsed": 34518,
                    "id": 0,
                    "methodDecoded": true,
                    "operation": "CALL",
                    "output": "0x0000000000000000000000000000000000000000000000000000000000000001",
                    "revert": false,
                    "revertMessage": "",
                    "selector": "0xa9059cbb",
                    "status": true,
                    "value": "0"
                },
                "nodeType": 0
            },
            "1": {
                "event": {
                    "contract": "0x111111111117dc0aa78b770fa6a738034120c302",
                    "decodedLog": {
                        "name": "Transfer",
                        "params": [
                            {
                                "name": "from",
                                "type": "address",
                                "value": "0xb063360ea50a4381ce70a6ad14ad016d4589e737"
                            },
                            {
                                "name": "to",
                                "type": "address",
                                "value": "0xd1305fbda97c035f86fdaa7785fb568c203174e1"
                            },
                            {
                                "decimalAvailable": true,
                                "name": "value",
                                "type": "uint256",
                                "value": "24,000,000,000,000,000,000,000"
                            }
                        ],
                        "signature": "Transfer(address,address,uint256)"
                    },
                    "id": 1,
                    "logData": "0x0000000000000000000000000000000000000000000005150ae84a8cdf000000",
                    "logDecoded": true,
                    "operation": "EVENT",
                    "revert": false,
                    "status": true,
                    "topics": [
                        "0xddf252ad1be2c89b69c2b068fc378daa952ba7f163c4a11628f55a4df523b3ef",
                        "0x000000000000000000000000b063360ea50a4381ce70a6ad14ad016d4589e737",
                        "0x000000000000000000000000d1305fbda97c035f86fdaa7785fb568c203174e1"
                    ]
                },
                "nodeType": 1
            }
        },
        "gasFlame": [
            {
                "children": [
                    {
                        "children": [
                            {
                                "children": [],
                                "depth": 0,
                                "name": "Initial Gas",
                                "value": 21644
                            },
                            {
                                "children": [],
                                "depth": 0,
                                "name": "Executed Gas",
                                "value": 12874
                            }
                        ],
                        "depth": -1,
                        "name": "Actual Gas Used",
                        "value": 34518
                    },
                    {
                        "children": [],
                        "depth": -1,
                        "name": "Refunded Gas",
                        "value": 0
                    }
                ],
                "depth": -2,
                "name": "Total Gas",
                "value": 34518
            }
        ],
        "isConfirmed": true,
        "mainTrace": [
            {
                "children": [
                    {
                        "children": [
                            {
                                "children": [],
                                "depth": 1,
                                "id": 1,
                                "order": 1
                            }
                        ],
                        "depth": 0,
                        "id": 0,
                        "order": 0
                    }
                ],
                "depth": -1,
                "id": -1,
                "order": -1
            }
        ],
        "mainTraceNodeCount": 2,
        "parentIdMap": {
            "0": -1,
            "1": 0
        },
        "tidyTrace": [
            {
                "children": [
                    {
                        "children": [
                            {
                                "children": [],
                                "depth": 1,
                                "id": 1,
                                "order": 1
                            }
                        ],
                        "depth": 0,
                        "id": 0,
                        "order": 0
                    }
                ],
                "depth": -1,
                "id": -1,
                "order": -1
            }
        ],
        "tidyTraceNodeCount": 2
    },
    "state_change": {
        "stateChanges": [
            {
                "address": "0x111111111117dc0aa78b770fa6a738034120c302",
                "erc": "ERC-20",
                "slots": [
                    {
                        "current": "0x00000000000000000000000000000000000000000000032fea959462644c0000",
                        "key": "0x6f3b7605b09f7ad5613d0375e4325e266cb620a2fb30f59216f6546aedc9dfb3",
                        "prev": "0x000000000000000000000000000000000000000000000844f57ddeef434c0000"
                    },
                    {
                        "current": "0x000000000000000000000000000000000000000000000a5adfd2e4b239900001",
                        "key": "0x367ed5bfaa8e3eea72fa3c6fc1d3c46d1d029b09d3a975a947341b7a994e4ee4",
                        "prev": "0x000000000000000000000000000000000000000000000545d4ea9a255a900001"
                    }
                ],
                "storageVariables": [
                    {
                        "name": "_balances",
                        "type": "mapping(address => uint256)",
                        "value": {
                            "pairs": [
                                {
                                    "key": "0xb063360ea50a4381ce70a6ad14ad016d4589e737",
                                    "value": {
                                        "current": "15051000000000000000000",
                                        "prev": "39051000000000000000000",
                                        "typeTag": 1
                                    }
                                },
                                {
                                    "key": "0xd1305fbda97c035f86fdaa7785fb568c203174e1",
                                    "value": {
                                        "current": "48900000000000000000001",
                                        "prev": "24900000000000000000001",
                                        "typeTag": 1
                                    }
                                }
                            ],
                            "typeTag": 4
                        }
                    }
                ]
            }
        ]
    }
}