{
    "balance_change": {
        "balanceChanges": [
            {
                "account": "0xd4b66b6be310434a7a5b88eeac063ea2cbd5b292",
                "assets": [
                    {
                        "address": "0x5d60d8d7ef6d37e16ebabc324de3be57f135e0bc",
                        "amount": "40,399.744843716776525621",
                        "iconUrl": "",
                        "isERC1155": false,
                        "isERC721": false,
                        "sign": true,
                        "value": ""
                    }
                ]
            },
            {
                "account": "0xcca36039cfdd0753d3aa9f1b4bf35b606c8ed971",
                "assets": [
                    {
                        "address": "0x5d60d8d7ef6d37e16ebabc324de3be57f135e0bc",
                        "amount": "40,399.744843716776525621",
                        "iconUrl": "",
                        "isERC1155": false,
                        "isERC721": false,
                        "sign": false,
                        "value": ""
                    }
                ]
            }
        ]
    },
    "profile": {
        "basic_info": {
            "baseFee": "",
            "blockNumber": 7224051,
            "callData": "0x3d972839000000000000000000000000000000000000000000000000000000000000002c",
            "debugEnable": true,
            "errorInfo": "",
            "eventCount": 2,
            "feeRecipient": "0x5a0b54d5dc17e0aadc383d2db43b0a0d3e029c4c",
            "formatValue": "0",
            "gasLimit": 62184,
            "gasPrice": "5",
            "gasUsed": 47184,
            "intTxnCount": 1,
            "internalRevert": false,
            "internalRevertMessage": "",
            "isContractCreation": false,
            "isFlashloan": false,
            "maxFee": "",
            "nonce": 155,
            "overwritedBlockNumber": -1,
            "priorityFee": "",
            "receiver": "0xcca36039cfdd0753d3aa9f1b4bf35b606c8ed971",
            "revertMessage": "",
            "sender": "0xd4b66b6be310434a7a5b88eeac063ea2cbd5b292",
            "simulationEnable": true,
            "sourceTxnHash": "0xc9318f551e592a251c90831fa14c62c0590c0a1088032c2ca39422e48382cf4d",
            "status": true,
            "timestamp": "2019-02-15T15:29:31Z",
            "transactionFee": "0.00023592",
            "txnHash": "0xc9318f551e592a251c90831fa14c62c0590c0a1088032c2ca39422e48382cf4d",
            "txnIndex": 109,
            "type": 0,
            "value": "0"
        },
        "fund_flow": [
            {
                "amount": "40,399.744843716776525621",
                "from": "0xcca36039cfdd0753d3aa9f1b4bf35b606c8ed971",
                "id": 1,
                "isERC1155": false,
                "isERC721": false,
                "isReverted": false,
                "order": 1,
                "to": "0xd4b66b6be310434a7a5b88eeac063ea2cbd5b292",
                "token": "0x5d60d8d7ef6d37e16ebabc324de3be57f135e0bc"
            }
        ],
        "token_infos": [
            {
                "address": "0x5d60d8d7ef6d37e16ebabc324de3be57f135e0bc",
                "decimals": 18
            },
            {
                "address": "0xc02aaa39b223fe8d0a0e5c4f27ead9083c756cc2",
                "decimals": 18
            },
            {
                "address": "0xeeeeeeeeeeeeeeeeeeeeeeeeeeeeeeeeeeeeeeee",
                "decimals": 18
            }
        ]
    },
    "address_label": {
        "labels": [
            {
                "address": "0x5d60d8d7ef6d37e16ebabc324de3be57f135e0bc",
                "label": "MyBit Token"
            },
            {
                "address": "0xcca36039cfdd0753d3aa9f1b4bf35b606c8ed971",
                "label": "TokenSale"
            },
            {
                "address": "0x0000000000000000000000000000000000000001",
                "label": "Precompiled"
            },
            {
                "address": "0x0000000000000000000000000000000000000002",
                "label": "Precompiled"
            },
            {
                "address": "0x0000000000000000000000000000000000000003",
                "label": "Precompiled"
            },
            {
                "address": "0x0000000000000000000000000000000000000004",
                "label": "Precompiled"
            },
            {
                "address": "0xeeeeeeeeeeeeeeeeeeeeeeeeeeeeeeeeeeeeeeee",
                "label": "Ether"
            }
        ]
    },
    "trace": {
        "accountLabels": null,
        "dataMap": {
            "-1": {
                "invocation": {
                    "address": "0xd4b66b6be310434a7a5b88eeac063ea2cbd5b292",
                    "callData": "",
                    "decodedMethod": null,
                    "errorInfo": "",
                    "fromAddress": "",
                    "gasUsed": 0,
                    "id": -1,
                    "methodDecoded": false,
                    "operation": "",
                    "output": "",
                    "revert": false,
                    "revertMessage": "",
                    "selector": "",
                    "status": false,
                    "value": ""
                },
                "nodeType": 0
            },
            "0": {
                "invocation": {
                    "address": "0xcca36039cfdd0753d3aa9f1b4bf35b606c8ed971",
                    "callData": "0x000000000000000000000000000000000000000000000000000000000000002c",
                    "decodedMethod": {
                        "callParams": [
                            {
                                "name": "_day",
                                "type": "uint16",
                                "value": "44"
                            }
                        ],
                        "constructorArguments": "",
                        "name": "withdraw",
                        "returnParams": [
                            {
                                "name": "",
                                "type": "bool",
                                "value": true
                            }
                        ],
                        "signature": "withdraw(uint16)"
                    },
                    "errorInfo": "",
                    "fromAddress": "0xd4b66b6be310434a7a5b88eeac063ea2cbd5b292",
                    "gasUsed": 47184,
                    "id": 0,
                    "methodDecoded": true,
                    "operation": "CALL",
                    "output": "0x0000000000000000000000000000000000000000000000000000000000000001",
                    "revert": false,
                    "revertMessage": "",
                    "selector": "0x3d972839",
                    "status": true,
                    "value": "0"
                },
                "nodeType": 0
            },
            "1": {
                "invocation": {
                    "address": "0x5d60d8d7ef6d37e16ebabc324de3be57f135e0bc",
                    "callData": "0x000000000000000000000000d4b66b6be310434a7a5b88eeac063ea2cbd5b29200000000000000000000000000000000000000000000088e13162056ad817f35",
                    "decodedMethod": {
                        "callParams": [
                            {
                                "name": "_to",
                                "type": "address",
                                "value": "0xd4b66b6be310434a7a5b88eeac063ea2cbd5b292"
                            },
                            {
                                "decimalAvailable": true,
                                "name": "_amount",
                                "type": "uint256",
                                "value": "40,399,744,843,716,776,525,621"
                            }
                        ],
                        "constructorArguments": "",
                        "name": "transfer",
                        "returnParams": [
                            {
                                "name": "success",
                                "type": "bool",
                                "value": true
                            }
                        ],
                        "signature": "transfer(address,uint256)"
                    },
                    "errorInfo": "",
                    "fromAddress": "0xcca36039cfdd0753d3aa9f1b4bf35b606c8ed971",
                    "gasUsed": 28424,
                    "id": 1,
                    "methodDecoded": true,
                    "operation": "CALL",
                    "output": "0x0000000000000000000000000000000000000000000000000000000000000001",
                    "revert": false,
                    "revertMessage": "",
                    "selector": "0xa9059cbb",
                    "status": true,
                    "value": "0"
                },
                "nodeType": 0
            },
            "2": {
                "event": {
                    "contract": "0x5d60d8d7ef6d37e16ebabc324de3be57f135e0bc",
                    "decodedLog": {
                        "name": "Transfer",
                        "params": [
                            {
                                "name": "from",
                                "type": "address",
                                "value": "0xcca36039cfdd0753d3aa9f1b4bf35b606c8ed971"
                            },
                            {
                                "name": "to",
                                "type": "address",
                                "value": "0xd4b66b6be310434a7a5b88eeac063ea2cbd5b292"
                            },
                            {
                                "decimalAvailable": true,
                                "name": "tokens",
                                "type": "uint256",
                                "value": "40,399,744,843,716,776,525,621"
                            }
                        ],
                        "signature": "Transfer(address,address,uint256)"
                    },
                    "id": 2,
                    "logData": "0x00000000000000000000000000000000000000000000088e13162056ad817f35",
                    "logDecoded": true,
                    "operation": "EVENT",
                    "revert": false,
                    "status": true,
                    "topics": [
                        "0xddf252ad1be2c89b69c2b068fc378daa952ba7f163c4a11628f55a4df523b3ef",
                        "0x000000000000000000000000cca36039cfdd0753d3aa9f1b4bf35b606c8ed971",
                        "0x000000000000000000000000d4b66b6be310434a7a5b88eeac063ea2cbd5b292"
                    ]
                },
                "nodeType": 1
            },
            "3": {
                "event": {
                    "contract": "0xcca36039cfdd0753d3aa9f1b4bf35b606c8ed971",
                    "decodedLog": {
                        "name": "LogTokensCollected",
                        "params": [
                            {
                                "name": "_contributor",
                                "type": "address",
                                "value": "0xd4b66b6be310434a7a5b88eeac063ea2cbd5b292"
                            },
                            {
                                "name": "_day",
                                "type": "uint16",
                                "value": "44"
                            },
                            {
                                "name": "_amount",
                                "type": "uint256",
                                "value": "40,399,744,843,716,776,525,621"
                            }
                        ],
                        "signature": "LogTokensCollected(address,uint256,uint16)"
                    },
                    "id": 3,
                    "logData": "0x00000000000000000000000000000000000000000000088e13162056ad817f35",
                    "logDecoded": true,
                    "operation": "EVENT",
                    "revert": false,
                    "status": true,
                    "topics": [
                        "0x33a4ae6c0627280fcb7aaf7e07deb59bbce49aa4808ee5457f8622f77ab5d28c",
                        "0x000000000000000000000000d4b66b6be310434a7a5b88eeac063ea2cbd5b292",
                        "0x000000000000000000000000000000000000000000000000000000000000002c"
                    ]
                },
                "nodeType": 1
            }
        },
        "gasFlame": [
            {
                "children": [
                    {
                        "children": [
                            {
                                "children": [],
                                "depth": 0,
                                "name": "Initial Gas",
                                "value": 21464
                            },
                            {
                                "children": [
                                    {
                                        "children": [],
                                        "depth": 1,
                                        "name": "transfer",
                                        "value": 28424
                                    }
                                ],
                                "depth": 0,
                                "name": "Executed Gas",
                                "value": 40720
                            }
                        ],
                        "depth": -1,
                        "name": "Actual Gas Used",
                        "value": 47184
                    },
                    {
                        "children": [],
                        "depth": -1,
                        "name": "Refunded Gas",
                        "value": 15000
                    }
                ],
                "depth": -2,
                "name": "Total Gas",
                "value": 62184
            }
        ],
        "isConfirmed": true,
        "mainTrace": [
            {
                "children": [
                    {
                        "children": [
                            {
                                "children": [
                                    {
                                        "children": [],
                                        "depth": 2,
                                        "id": 2,
                                        "order": 2
                                    }
                                ],
                                "depth": 1,
                                "id": 1,
                                "order": 1
                            },
                            {
                                "children": [],
                                "depth": 1,
                                "id": 3,
                                "order": 3
                            }
                        ],
                        "depth": 0,
                        "id": 0,
                        "order": 0
                    }
                ],
                "depth": -1,
                "id": -1,
                "order": -1
            }
        ],
        "mainTraceNodeCount": 4,
        "parentIdMap": {
            "0": -1,
            "1": 0,
            "2": 1,
            "3": 0
        },
        "tidyTrace": [
            {
                "children": [
                    {
                        "children": [
                            {
                                "children": [
                                    {
                                        "children": [],
                                        "depth": 2,
                                        "id": 2,
                                        "order": 2
                                    }
                                ],
                                "depth": 1,
                                "id": 1,
                                "order": 1
                            },
                            {
                                "children": [],
                                "depth": 1,
                                "id": 3,
                                "order": 3
                            }
                        ],
                        "depth": 0,
                        "id": 0,
                        "order": 0
                    }
                ],
                "depth": -1,
                "id": -1,
                "order": -1
            }
        ],
        "tidyTraceNodeCount": 4
    },
    "state_change": {
        "stateChanges": [
            {
                "address": "0x5d60d8d7ef6d37e16ebabc324de3be57f135e0bc",
                "erc": "ERC-20",
                "slots": [
                    {
                        "current": "0x00000000000000000000000000000000000000000000088e13162056ad817f35",
                        "key": "0x179c8be035e5c50698a5ffbe0e0aeac780ca30e361c1b9616f1a0a25a86ec468",
                        "prev": "0x0000000000000000000000000000000000000000000000000000000000000000"
                    },
                    {
                        "current": "0x0000000000000000000000000000000000000000001abab4e1c6fa6f6413da89",
                        "key": "0x6d3d470e8f302ae8235370d795082536d7f0cdac8ab8b5818f2b7deb2388e400",
                        "prev": "0x0000000000000000000000000000000000000000001ac342f4dd1ac6119559be"
                    }
                ],
                "storageVariables": [
                    {
                        "name": "balances",
                        "type": "mapping(address => uint256)",
                        "value": {
                            "pairs": [
                                {
                                    "key": "0xcca36039cfdd0753d3aa9f1b4bf35b606c8ed971",
                                    "value": {
                                        "current": "32313768158693440521230985",
                                        "prev": "32354167903537157297756606",
                                        "typeTag": 1
                                    }
                                },
                                {
                                    "key": "0xd4b66b6be310434a7a5b88eeac063ea2cbd5b292",
                                    "value": {
                                        "current": "40399744843716776525621",
                                        "prev": "0",
                                        "typeTag": 1
                                    }
                                }
                            ],
                            "typeTag": 4
                        }
                    }
                ]
            },
            {
                "address": "0xcca36039cfdd0753d3aa9f1b4bf35b606c8ed971",
                "erc": "",
                "slots": [
                    {
                        "current": "0x0000000000000000000000000000000000000000000000000000000000000000",
                        "key": "0xb0c2d68dc0de17d175d37e123d75cf873df12206112c18e52f4b57834f8304f9",
                        "prev": "0x0000000000000000000000000000000000000000000000001a5e27eef13e0000"
                    }
                ],
                "storageVariables": [
                    {
                        "name": "day",
                        "type": "mapping(uint16 => struct TokenSale.Day)",
                        "value": {
                            "pairs": [
                                {
                                    "key": "44",
                                    "value": {
                                        "fields": [
                                            {
                                                "name": "weiContributed",
                                                "type": "mapping(address => uint256)",
                                                "value": {
                                                    "pairs": [
                                                        {
                                                            "key": "0xd4b66b6be310434a7a5b88eeac063ea2cbd5b292",
                                                            "value": {
                                                                "current": "0",
                                                                "prev": "1900000000000000000",
                                                                "typeTag": 1
                                                            }
                                                        }
                                                    ],
                                                    "typeTag": 4
                                                }
                                            }
                                        ],
                                        "typeTag": 3
                                    }
                                }
                            ],
                            "typeTag": 4
                        }
                    }
                ]
            }
        ]
    }
}