{
    "balance_change": {
        "balanceChanges": [
            {
                "account": "0x2d597127001e6547f4856eedae2140dda7bdf869",
                "assets": [
                    {
                        "address": "0xb33b557a86d78639135541cb59dee907e6b20345",
                        "amount": "9,261.32000191",
                        "iconUrl": "",
                        "isERC1155": false,
                        "isERC721": false,
                        "sign": false,
                        "value": ""
                    }
                ]
            },
            {
                "account": "0x08fc91850021fa7161217187db5f33c487b6a2cd",
                "assets": [
                    {
                        "address": "0xb33b557a86d78639135541cb59dee907e6b20345",
                        "amount": "9,261.32000191",
                        "iconUrl": "",
                        "isERC1155": false,
                        "isERC721": false,
                        "sign": true,
                        "value": ""
                    }
                ]
            }
        ]
    },
    "profile": {
        "basic_info": {
            "baseFee": "",
            "blockNumber": 10505956,
            "callData": "0xa9059cbb00000000000000000000000008fc91850021fa7161217187db5f33c487b6a2cd000000000000000000000000000000000000000000000000000000d7a1c4d5bf",
            "debugEnable": true,
            "errorInfo": "",
            "eventCount": 2,
            "feeRecipient": "0x5a0b54d5dc17e0aadc383d2db43b0a0d3e029c4c",
            "formatValue": "0",
            "gasLimit": 48173,
            "gasPrice": "41.03",
            "gasUsed": 43173,
            "intTxnCount": 0,
            "internalRevert": false,
            "internalRevertMessage": "",
            "isContractCreation": false,
            "isFlashloan": false,
            "maxFee": "",
            "nonce": 9162,
            "overwritedBlockNumber": -1,
            "priorityFee": "",
            "receiver": "0xb33b557a86d78639135541cb59dee907e6b20345",
            "revertMessage": "",
            "sender": "0x2d597127001e6547f4856eedae2140dda7bdf869",
            "simulationEnable": true,
            "sourceTxnHash": "0xc98f6efde17f05a1d4534bfe9124420ac9169c652b93771ccea44ab692b26e87",
            "status": true,
            "timestamp": "2020-07-22T00:20:42Z",
            "transactionFee": "0.00177138819",
            "txnHash": "0xc98f6efde17f05a1d4534bfe9124420ac9169c652b93771ccea44ab692b26e87",
            "txnIndex": 55,
            "type": 0,
            "value": "0"
        },
        "fund_flow": [
            {
                "amount": "9,261.32000191",
                "from": "0x2d597127001e6547f4856eedae2140dda7bdf869",
                "id": 1,
                "isERC1155": false,
                "isERC721": false,
                "isReverted": false,
                "order": 1,
                "to": "0x08fc91850021fa7161217187db5f33c487b6a2cd",
                "token": "0xb33b557a86d78639135541cb59dee907e6b20345"
            }
        ],
        "token_infos": [
            {
                "address": "0xb33b557a86d78639135541cb59dee907e6b20345",
                "decimals": 8
            },
            {
                "address": "0xc02aaa39b223fe8d0a0e5c4f27ead9083c756cc2",
                "decimals": 18
            },
            {
                "address": "0xeeeeeeeeeeeeeeeeeeeeeeeeeeeeeeeeeeeeeeee",
                "decimals": 18
            }
        ]
    },
    "address_label": {
        "labels": [
            {
                "address": "0x0000000000000000000000000000000000000004",
                "label": "Precompiled"
            },
            {
                "address": "0xeeeeeeeeeeeeeeeeeeeeeeeeeeeeeeeeeeeeeeee",
                "label": "Ether"
            },
            {
                "address": "0xb33b557a86d78639135541cb59dee907e6b20345",
                "label": "CNExchnage: CNEX Token"
            },
            {
                "address": "0x0000000000000000000000000000000000000001",
                "label": "Precompiled"
            },
            {
                "address": "0x0000000000000000000000000000000000000002",
                "label": "Precompiled"
            },
            {
                "address": "0x0000000000000000000000000000000000000003",
                "label": "Precompiled"
            }
        ]
    },
    "trace": {
        "accountLabels": null,
        "dataMap": {
            "-1": {
                "invocation": {
                    "address": "0x2d597127001e6547f4856eedae2140dda7bdf869",
                    "callData": "",
                    "decodedMethod": null,
                    "errorInfo": "",
                    "fromAddress": "",
                    "gasUsed": 0,
                    "id": -1,
                    "methodDecoded": false,
                    "operation": "",
                    "output": "",
                    "revert": false,
                    "revertMessage": "",
                    "selector": "",
                    "status": false,
                    "value": ""
                },
                "nodeType": 0
            },
            "0": {
                "invocation": {
                    "address": "0xb33b557a86d78639135541cb59dee907e6b20345",
                    "callData": "0x00000000000000000000000008fc91850021fa7161217187db5f33c487b6a2cd000000000000000000000000000000000000000000000000000000d7a1c4d5bf",
                    "decodedMethod": {
                        "callParams": [
                            {
                                "name": "_to",
                                "type": "address",
                                "value": "0x08fc91850021fa7161217187db5f33c487b6a2cd"
                            },
                            {
                                "decimalAvailable": true,
                                "name": "_value",
                                "type": "uint256",
                                "value": "926,132,000,191"
                            }
                        ],
                        "constructorArguments": "",
                        "name": "transfer",
                        "returnParams": [
                            {
                                "name": "success",
                                "type": "bool",
                                "value": true
                            }
                        ],
                        "signature": "transfer(address,uint256)"
                    },
                    "errorInfo": "",
                    "fromAddress": "0x2d597127001e6547f4856eedae2140dda7bdf869",
                    "gasUsed": 43173,
                    "id": 0,
                    "methodDecoded": true,
                    "operation": "CALL",
                    "output": "0x0000000000000000000000000000000000000000000000000000000000000001",
                    "revert": false,
                    "revertMessage": "",
                    "selector": "0xa9059cbb",
                    "status": true,
                    "value": "0"
                },
                "nodeType": 0
            },
            "1": {
                "event": {
                    "contract": "0xb33b557a86d78639135541cb59dee907e6b20345",
                    "decodedLog": {
                        "name": "Transfer",
                        "params": [
                            {
                                "name": "from",
                                "type": "address",
                                "value": "0x2d597127001e6547f4856eedae2140dda7bdf869"
                            },
                            {
                                "name": "to",
                                "type": "address",
                                "value": "0x08fc91850021fa7161217187db5f33c487b6a2cd"
                            },
                            {
                                "name": "value",
                                "type": "uint256",
                                "value": "926,132,000,191"
                            },
                            {
                                "name": "data",
                                "type": "bytes",
                                "value": "0x"
                            }
                        ],
                        "signature": "Transfer(address,address,uint256,bytes)"
                    },
                    "id": 1,
                    "logData": "0x000000000000000000000000000000000000000000000000000000d7a1c4d5bf00000000000000000000000000000000000000000000000000000000000000400000000000000000000000000000000000000000000000000000000000000000",
                    "logDecoded": true,
                    "operation": "EVENT",
                    "revert": false,
                    "status": true,
                    "topics": [
                        "0xe19260aff97b920c7df27010903aeb9c8d2be5d310a2c67824cf3f15396e4c16",
                        "0x0000000000000000000000002d597127001e6547f4856eedae2140dda7bdf869",
                        "0x00000000000000000000000008fc91850021fa7161217187db5f33c487b6a2cd"
                    ]
                },
                "nodeType": 1
            },
            "2": {
                "event": {
                    "contract": "0xb33b557a86d78639135541cb59dee907e6b20345",
                    "decodedLog": {
                        "name": "Transfer",
                        "params": [
                            {
                                "name": "from",
                                "type": "address",
                                "value": "0x2d597127001e6547f4856eedae2140dda7bdf869"
                            },
                            {
                                "name": "to",
                                "type": "address",
                                "value": "0x08fc91850021fa7161217187db5f33c487b6a2cd"
                            },
                            {
                                "decimalAvailable": true,
                                "name": "value",
                                "type": "uint256",
                                "value": "926,132,000,191"
                            }
                        ],
                        "signature": "Transfer(address,address,uint256)"
                    },
                    "id": 2,
                    "logData": "0x000000000000000000000000000000000000000000000000000000d7a1c4d5bf",
                    "logDecoded": true,
                    "operation": "EVENT",
                    "revert": false,
                    "status": true,
                    "topics": [
                        "0xddf252ad1be2c89b69c2b068fc378daa952ba7f163c4a11628f55a4df523b3ef",
                        "0x0000000000000000000000002d597127001e6547f4856eedae2140dda7bdf869",
                        "0x00000000000000000000000008fc91850021fa7161217187db5f33c487b6a2cd"
                    ]
                },
                "nodeType": 1
            }
        },
        "gasFlame": [
            {
                "children": [
                    {
                        "children": [
                            {
                                "children": [],
                                "depth": 0,
                                "name": "Initial Gas",
                                "value": 21608
                            },
                            {
                                "children": [],
                                "depth": 0,
                                "name": "Executed Gas",
                                "value": 21565
                            }
                        ],
                        "depth": -1,
                        "name": "Actual Gas Used",
                        "value": 43173
                    },
                    {
                        "children": [],
                        "depth": -1,
                        "name": "Refunded Gas",
                        "value": 0
                    }
                ],
                "depth": -2,
                "name": "Total Gas",
                "value": 43173
            }
        ],
        "isConfirmed": true,
        "mainTrace": [
            {
                "children": [
                    {
                        "children": [
                            {
                                "children": [],
                                "depth": 1,
                                "id": 1,
                                "order": 1
                            },
                            {
                                "children": [],
                                "depth": 1,
                                "id": 2,
                                "order": 2
                            }
                        ],
                        "depth": 0,
                        "id": 0,
                        "order": 0
                    }
                ],
                "depth": -1,
                "id": -1,
                "order": -1
            }
        ],
        "mainTraceNodeCount": 3,
        "parentIdMap": {
            "0": -1,
            "1": 0,
            "2": 0
        },
        "tidyTrace": [
            {
                "children": [
                    {
                        "children": [
                            {
                                "children": [],
                                "depth": 1,
                                "id": 1,
                                "order": 1
                            },
                            {
                                "children": [],
                                "depth": 1,
                                "id": 2,
                                "order": 2
                            }
                        ],
                        "depth": 0,
                        "id": 0,
                        "order": 0
                    }
                ],
                "depth": -1,
                "id": -1,
                "order": -1
            }
        ],
        "tidyTraceNodeCount": 3
    },
    "state_change": {
        "stateChanges": [
            {
                "address": "0xb33b557a86d78639135541cb59dee907e6b20345",
                "erc": "ERC-20",
                "slots": [
                    {
                        "current": "0x00000000000000000000000000000000000000000000000000001a43f037de27",
                        "key": "0x8084b32309e6db94e476875583ba0c8e918de798c94a13bb2b5a28ecd5533a72",
                        "prev": "0x0000000000000000000000000000000000000000000000000000196c4e730868"
                    },
                    {
                        "current": "0x00000000000000000000000000000000000000000000000000003edb504ef242",
                        "key": "0x2f6ca3a067f139bf76f3d38a81cfbc7172925a993e71b86588f9d5e0c6dbb56e",
                        "prev": "0x00000000000000000000000000000000000000000000000000003fb2f213c801"
                    }
                ],
                "storageVariables": [
                    {
                        "name": "balances",
                        "type": "mapping(address => uint256)",
                        "value": {
                            "pairs": [
                                {
                                    "key": "0x08fc91850021fa7161217187db5f33c487b6a2cd",
                                    "value": {
                                        "current": "28879095324199",
                                        "prev": "27952963324008",
                                        "typeTag": 1
                                    }
                                },
                                {
                                    "key": "0x2d597127001e6547f4856eedae2140dda7bdf869",
                                    "value": {
                                        "current": "69111666111042",
                                        "prev": "70037798111233",
                                        "typeTag": 1
                                    }
                                }
                            ],
                            "typeTag": 4
                        }
                    }
                ]
            }
        ]
    }
}