{
    "balance_change": {
        "balanceChanges": [
            {
                "account": "0x503828976d22510aad0201ac7ec88293211d23da",
                "assets": [
                    {
                        "address": "0x4a220e6096b25eadb88358cb44068a3248254675",
                        "amount": "50.1292732",
                        "iconUrl": "https://assets.blocksec.com/icon/2517ae4798f8af07582abbcc7e22fbabe148d0b4c36e1004952431a198138ad8.png",
                        "isERC1155": false,
                        "isERC721": false,
                        "sign": false,
                        "value": "5075.404658"
                    }
                ]
            },
            {
                "account": "0xf88174b9f389cd9da72f092d9cf60c53d10cdb42",
                "assets": [
                    {
                        "address": "0x4a220e6096b25eadb88358cb44068a3248254675",
                        "amount": "50.1292732",
                        "iconUrl": "https://assets.blocksec.com/icon/2517ae4798f8af07582abbcc7e22fbabe148d0b4c36e1004952431a198138ad8.png",
                        "isERC1155": false,
                        "isERC721": false,
                        "sign": true,
                        "value": "5075.404658"
                    }
                ]
            }
        ]
    },
    "profile": {
        "basic_info": {
            "baseFee": "32.420804925",
            "blockNumber": 15169899,
            "callData": "0xa9059cbb000000000000000000000000f88174b9f389cd9da72f092d9cf60c53d10cdb42000000000000000000000000000000000000000000000002b7aef4610e826000",
            "debugEnable": true,
            "errorInfo": "",
            "eventCount": 1,
            "feeRecipient": "0x3ecef08d0e2dad803847e052249bb4f8bff2d5bb",
            "formatValue": "0",
            "gasLimit": 250000,
            "gasPrice": "34.420804925",
            "gasUsed": 51969,
            "intTxnCount": 0,
            "internalRevert": false,
            "internalRevertMessage": "",
            "isContractCreation": false,
            "isFlashloan": false,
            "maxFee": "60",
            "nonce": 1730221,
            "overwritedBlockNumber": -1,
            "priorityFee": "2",
            "receiver": "0x4a220e6096b25eadb88358cb44068a3248254675",
            "revertMessage": "",
            "sender": "0x503828976d22510aad0201ac7ec88293211d23da",
            "simulationEnable": true,
            "sourceTxnHash": "0xc996c039288bf30641673b12da036d395e80f9fb5bbae9dcedc913c573892442",
            "status": true,
            "timestamp": "2022-07-19T00:44:43Z",
            "transactionFee": "0.001788814811147325",
            "txnHash": "0xc996c039288bf30641673b12da036d395e80f9fb5bbae9dcedc913c573892442",
            "txnIndex": 341,
            "type": 2,
            "value": "0"
        },
        "fund_flow": [
            {
                "amount": "50.1292732",
                "from": "0x503828976d22510aad0201ac7ec88293211d23da",
                "id": 1,
                "isERC1155": false,
                "isERC721": false,
                "isReverted": false,
                "order": 1,
                "to": "0xf88174b9f389cd9da72f092d9cf60c53d10cdb42",
                "token": "0x4a220e6096b25eadb88358cb44068a3248254675"
            }
        ],
        "token_infos": [
            {
                "address": "0x4a220e6096b25eadb88358cb44068a3248254675",
                "decimals": 18
            },
            {
                "address": "0xc02aaa39b223fe8d0a0e5c4f27ead9083c756cc2",
                "decimals": 18
            },
            {
                "address": "0xeeeeeeeeeeeeeeeeeeeeeeeeeeeeeeeeeeeeeeee",
                "decimals": 18
            }
        ]
    },
    "address_label": {
        "labels": [
            {
                "address": "0x4a220e6096b25eadb88358cb44068a3248254675",
                "label": "Quant: QNT Token"
            },
            {
                "address": "0x503828976d22510aad0201ac7ec88293211d23da",
                "label": "Coinbase 2"
            },
            {
                "address": "0x0000000000000000000000000000000000000001",
                "label": "Precompiled"
            },
            {
                "address": "0x0000000000000000000000000000000000000002",
                "label": "Precompiled"
            },
            {
                "address": "0x0000000000000000000000000000000000000003",
                "label": "Precompiled"
            },
            {
                "address": "0x0000000000000000000000000000000000000004",
                "label": "Precompiled"
            },
            {
                "address": "0xeeeeeeeeeeeeeeeeeeeeeeeeeeeeeeeeeeeeeeee",
                "label": "Ether"
            }
        ]
    },
    "trace": {
        "accountLabels": null,
        "dataMap": {
            "-1": {
                "invocation": {
                    "address": "0x503828976d22510aad0201ac7ec88293211d23da",
                    "callData": "",
                    "decodedMethod": null,
                    "errorInfo": "",
                    "fromAddress": "",
                    "gasUsed": 0,
                    "id": -1,
                    "methodDecoded": false,
                    "operation": "",
                    "output": "",
                    "revert": false,
                    "revertMessage": "",
                    "selector": "",
                    "status": false,
                    "value": ""
                },
                "nodeType": 0
            },
            "0": {
                "invocation": {
                    "address": "0x4a220e6096b25eadb88358cb44068a3248254675",
                    "callData": "0x000000000000000000000000f88174b9f389cd9da72f092d9cf60c53d10cdb42000000000000000000000000000000000000000000000002b7aef4610e826000",
                    "decodedMethod": {
                        "callParams": [
                            {
                                "name": "_to",
                                "type": "address",
                                "value": "0xf88174b9f389cd9da72f092d9cf60c53d10cdb42"
                            },
                            {
                                "decimalAvailable": true,
                                "name": "_value",
                                "type": "uint256",
                                "value": "50,129,273,200,000,000,000"
                            }
                        ],
                        "constructorArguments": "",
                        "name": "transfer",
                        "returnParams": [
                            {
                                "name": "",
                                "type": "bool",
                                "value": true
                            }
                        ],
                        "signature": "transfer(address,uint256)"
                    },
                    "errorInfo": "",
                    "fromAddress": "0x503828976d22510aad0201ac7ec88293211d23da",
                    "gasUsed": 51969,
                    "id": 0,
                    "methodDecoded": true,
                    "operation": "CALL",
                    "output": "0x0000000000000000000000000000000000000000000000000000000000000001",
                    "revert": false,
                    "revertMessage": "",
                    "selector": "0xa9059cbb",
                    "status": true,
                    "value": "0"
                },
                "nodeType": 0
            },
            "1": {
                "event": {
                    "contract": "0x4a220e6096b25eadb88358cb44068a3248254675",
                    "decodedLog": {
                        "name": "Transfer",
                        "params": [
                            {
                                "name": "from",
                                "type": "address",
                                "value": "0x503828976d22510aad0201ac7ec88293211d23da"
                            },
                            {
                                "name": "to",
                                "type": "address",
                                "value": "0xf88174b9f389cd9da72f092d9cf60c53d10cdb42"
                            },
                            {
                                "decimalAvailable": true,
                                "name": "value",
                                "type": "uint256",
                                "value": "50,129,273,200,000,000,000"
                            }
                        ],
                        "signature": "Transfer(address,address,uint256)"
                    },
                    "id": 1,
                    "logData": "0x000000000000000000000000000000000000000000000002b7aef4610e826000",
                    "logDecoded": true,
                    "operation": "EVENT",
                    "revert": false,
                    "status": true,
                    "topics": [
                        "0xddf252ad1be2c89b69c2b068fc378daa952ba7f163c4a11628f55a4df523b3ef",
                        "0x000000000000000000000000503828976d22510aad0201ac7ec88293211d23da",
                        "0x000000000000000000000000f88174b9f389cd9da72f092d9cf60c53d10cdb42"
                    ]
                },
                "nodeType": 1
            }
        },
        "gasFlame": [
            {
                "children": [
                    {
                        "children": [
                            {
                                "children": [],
                                "depth": 0,
                                "name": "Initial Gas",
                                "value": 21656
                            },
                            {
                                "children": [],
                                "depth": 0,
                                "name": "Executed Gas",
                                "value": 30313
                            }
                        ],
                        "depth": -1,
                        "name": "Actual Gas Used",
                        "value": 51969
                    },
                    {
                        "children": [],
                        "depth": -1,
                        "name": "Refunded Gas",
                        "value": 0
                    }
                ],
                "depth": -2,
                "name": "Total Gas",
                "value": 51969
            }
        ],
        "isConfirmed": true,
        "mainTrace": [
            {
                "children": [
                    {
                        "children": [
                            {
                                "children": [],
                                "depth": 1,
                                "id": 1,
                                "order": 1
                            }
                        ],
                        "depth": 0,
                        "id": 0,
                        "order": 0
                    }
                ],
                "depth": -1,
                "id": -1,
                "order": -1
            }
        ],
        "mainTraceNodeCount": 2,
        "parentIdMap": {
            "0": -1,
            "1": 0
        },
        "tidyTrace": [
            {
                "children": [
                    {
                        "children": [
                            {
                                "children": [],
                                "depth": 1,
                                "id": 1,
                                "order": 1
                            }
                        ],
                        "depth": 0,
                        "id": 0,
                        "order": 0
                    }
                ],
                "depth": -1,
                "id": -1,
                "order": -1
            }
        ],
        "tidyTraceNodeCount": 2
    },
    "state_change": {
        "stateChanges": [
            {
                "address": "0x4a220e6096b25eadb88358cb44068a3248254675",
                "erc": "ERC-20",
                "slots": [
                    {
                        "current": "0x000000000000000000000000000000000000000000000344e2630d6f8a32abb2",
                        "key": "0x49ce6c78636d7c64e68ff0eed88b8587dccff68bab28389ef667983774cd7b8d",
                        "prev": "0x0000000000000000000000000000000000000000000003479a1201d098b50bb2"
                    },
                    {
                        "current": "0x000000000000000000000000000000000000000000000002b7aef4610e826000",
                        "key": "0x72bd9685f6906072a4ce3b4ee9c36a9db2c994aa697d5f2b7ab488e69ab26e7d",
                        "prev": "0x0000000000000000000000000000000000000000000000000000000000000000"
                    }
                ],
                "storageVariables": [
                    {
                        "name": "balances",
                        "type": "mapping(address => uint256)",
                        "value": {
                            "pairs": [
                                {
                                    "key": "0x503828976d22510aad0201ac7ec88293211d23da",
                                    "value": {
                                        "current": "15437790942669162326962",
                                        "prev": "15487920215869162326962",
                                        "typeTag": 1
                                    }
                                },
                                {
                                    "key": "0xf88174b9f389cd9da72f092d9cf60c53d10cdb42",
                                    "value": {
                                        "current": "50129273200000000000",
                                        "prev": "0",
                                        "typeTag": 1
                                    }
                                }
                            ],
                            "typeTag": 4
                        }
                    }
                ]
            }
        ]
    }
}