{
    "balance_change": {
        "balanceChanges": [
            {
                "account": "0x0d0707963952f2fba59dd06f2b425ace40b492fe",
                "assets": [
                    {
                        "address": "0xf8ebf4849f1fa4faf0dff2106a173d3a6cb2eb3a",
                        "amount": "237,862,038,061.2762",
                        "iconUrl": "",
                        "isERC1155": false,
                        "isERC721": false,
                        "sign": false,
                        "value": "5483.055096"
                    }
                ]
            },
            {
                "account": "0x7ca898cbbed67df0b4e249b05561d3a23404eed0",
                "assets": [
                    {
                        "address": "0xf8ebf4849f1fa4faf0dff2106a173d3a6cb2eb3a",
                        "amount": "237,862,038,061.2762",
                        "iconUrl": "",
                        "isERC1155": false,
                        "isERC721": false,
                        "sign": true,
                        "value": "5483.055096"
                    }
                ]
            }
        ]
    },
    "profile": {
        "basic_info": {
            "baseFee": "20.503177663",
            "blockNumber": 19165705,
            "callData": "0xa9059cbb0000000000000000000000007ca898cbbed67df0b4e249b05561d3a23404eed000000000000000000000000000000000000000030092ddc8e4ad57249b8a8000",
            "debugEnable": true,
            "errorInfo": "",
            "eventCount": 1,
            "feeRecipient": "0x95222290dd7278aa3ddd389cc1e1d165cc4bafe5",
            "formatValue": "0",
            "gasLimit": 1000000,
            "gasPrice": "22.503177663",
            "gasUsed": 62332,
            "intTxnCount": 0,
            "internalRevert": false,
            "internalRevertMessage": "",
            "isContractCreation": false,
            "isFlashloan": false,
            "maxFee": "43.6753737",
            "nonce": 5596731,
            "overwritedBlockNumber": -1,
            "priorityFee": "2",
            "receiver": "0xf8ebf4849f1fa4faf0dff2106a173d3a6cb2eb3a",
            "revertMessage": "",
            "sender": "0x0d0707963952f2fba59dd06f2b425ace40b492fe",
            "simulationEnable": true,
            "sourceTxnHash": "0xca63c8437b06aa5f46cdbcefedf10d82c3341ebcb7eb3fea128dfb2f1f0c1ad2",
            "status": true,
            "timestamp": "2024-02-06T00:43:35Z",
            "transactionFee": "0.001402668070090116",
            "txnHash": "0xca63c8437b06aa5f46cdbcefedf10d82c3341ebcb7eb3fea128dfb2f1f0c1ad2",
            "txnIndex": 5,
            "type": 2,
            "value": "0"
        },
        "fund_flow": [
            {
                "amount": "237,862,038,061.2762",
                "from": "0x0d0707963952f2fba59dd06f2b425ace40b492fe",
                "id": 1,
                "isERC1155": false,
                "isERC721": false,
                "isReverted": false,
                "order": 1,
                "to": "0x7ca898cbbed67df0b4e249b05561d3a23404eed0",
                "token": "0xf8ebf4849f1fa4faf0dff2106a173d3a6cb2eb3a"
            }
        ],
        "token_infos": [
            {
                "address": "0xc02aaa39b223fe8d0a0e5c4f27ead9083c756cc2",
                "decimals": 18
            },
            {
                "address": "0xf8ebf4849f1fa4faf0dff2106a173d3a6cb2eb3a",
                "decimals": 18
            },
            {
                "address": "0xeeeeeeeeeeeeeeeeeeeeeeeeeeeeeeeeeeeeeeee",
                "decimals": 18
            }
        ]
    },
    "address_label": {
        "labels": [
            {
                "address": "0x0000000000000000000000000000000000000003",
                "label": "Precompiled"
            },
            {
                "address": "0x0000000000000000000000000000000000000004",
                "label": "Precompiled"
            },
            {
                "address": "0xeeeeeeeeeeeeeeeeeeeeeeeeeeeeeeeeeeeeeeee",
                "label": "Ether"
            },
            {
                "address": "0x0d0707963952f2fba59dd06f2b425ace40b492fe",
                "label": "Gate.io"
            },
            {
                "address": "0xf8ebf4849f1fa4faf0dff2106a173d3a6cb2eb3a",
                "label": "TROLL (TROLL)"
            },
            {
                "address": "0x0000000000000000000000000000000000000001",
                "label": "Precompiled"
            },
            {
                "address": "0x0000000000000000000000000000000000000002",
                "label": "Precompiled"
            }
        ]
    },
    "trace": {
        "accountLabels": null,
        "dataMap": {
            "-1": {
                "invocation": {
                    "address": "0x0d0707963952f2fba59dd06f2b425ace40b492fe",
                    "callData": "",
                    "decodedMethod": null,
                    "errorInfo": "",
                    "fromAddress": "",
                    "gasUsed": 0,
                    "id": -1,
                    "methodDecoded": false,
                    "operation": "",
                    "output": "",
                    "revert": false,
                    "revertMessage": "",
                    "selector": "",
                    "status": false,
                    "value": ""
                },
                "nodeType": 0
            },
            "0": {
                "invocation": {
                    "address": "0xf8ebf4849f1fa4faf0dff2106a173d3a6cb2eb3a",
                    "callData": "0x0000000000000000000000007ca898cbbed67df0b4e249b05561d3a23404eed000000000000000000000000000000000000000030092ddc8e4ad57249b8a8000",
                    "decodedMethod": {
                        "callParams": [
                            {
                                "name": "recipient",
                                "type": "address",
                                "value": "0x7ca898cbbed67df0b4e249b05561d3a23404eed0"
                            },
                            {
                                "decimalAvailable": true,
                                "name": "amount",
                                "type": "uint256",
                                "value": "237,862,038,061,276,200,000,000,000,000"
                            }
                        ],
                        "constructorArguments": "",
                        "name": "transfer",
                        "returnParams": [
                            {
                                "name": "",
                                "type": "bool",
                                "value": true
                            }
                        ],
                        "signature": "transfer(address,uint256)"
                    },
                    "errorInfo": "",
                    "fromAddress": "0x0d0707963952f2fba59dd06f2b425ace40b492fe",
                    "gasUsed": 62332,
                    "id": 0,
                    "methodDecoded": true,
                    "operation": "CALL",
                    "output": "0x0000000000000000000000000000000000000000000000000000000000000001",
                    "revert": false,
                    "revertMessage": "",
                    "selector": "0xa9059cbb",
                    "status": true,
                    "value": "0"
                },
                "nodeType": 0
            },
            "1": {
                "event": {
                    "contract": "0xf8ebf4849f1fa4faf0dff2106a173d3a6cb2eb3a",
                    "decodedLog": {
                        "name": "Transfer",
                        "params": [
                            {
                                "name": "from",
                                "type": "address",
                                "value": "0x0d0707963952f2fba59dd06f2b425ace40b492fe"
                            },
                            {
                                "name": "to",
                                "type": "address",
                                "value": "0x7ca898cbbed67df0b4e249b05561d3a23404eed0"
                            },
                            {
                                "decimalAvailable": true,
                                "name": "value",
                                "type": "uint256",
                                "value": "237,862,038,061,276,200,000,000,000,000"
                            }
                        ],
                        "signature": "Transfer(address,address,uint256)"
                    },
                    "id": 1,
                    "logData": "0x00000000000000000000000000000000000000030092ddc8e4ad57249b8a8000",
                    "logDecoded": true,
                    "operation": "EVENT",
                    "revert": false,
                    "status": true,
                    "topics": [
                        "0xddf252ad1be2c89b69c2b068fc378daa952ba7f163c4a11628f55a4df523b3ef",
                        "0x0000000000000000000000000d0707963952f2fba59dd06f2b425ace40b492fe",
                        "0x0000000000000000000000007ca898cbbed67df0b4e249b05561d3a23404eed0"
                    ]
                },
                "nodeType": 1
            }
        },
        "gasFlame": [
            {
                "children": [
                    {
                        "children": [
                            {
                                "children": [],
                                "depth": 0,
                                "name": "Initial Gas",
                                "value": 21692
                            },
                            {
                                "children": [],
                                "depth": 0,
                                "name": "Executed Gas",
                                "value": 40640
                            }
                        ],
                        "depth": -1,
                        "name": "Actual Gas Used",
                        "value": 62332
                    },
                    {
                        "children": [],
                        "depth": -1,
                        "name": "Refunded Gas",
                        "value": 0
                    }
                ],
                "depth": -2,
                "name": "Total Gas",
                "value": 62332
            }
        ],
        "isConfirmed": true,
        "mainTrace": [
            {
                "children": [
                    {
                        "children": [
                            {
                                "children": [],
                                "depth": 1,
                                "id": 1,
                                "order": 1
                            }
                        ],
                        "depth": 0,
                        "id": 0,
                        "order": 0
                    }
                ],
                "depth": -1,
                "id": -1,
                "order": -1
            }
        ],
        "mainTraceNodeCount": 2,
        "parentIdMap": {
            "0": -1,
            "1": 0
        },
        "tidyTrace": [
            {
                "children": [
                    {
                        "children": [
                            {
                                "children": [],
                                "depth": 1,
                                "id": 1,
                                "order": 1
                            }
                        ],
                        "depth": 0,
                        "id": 0,
                        "order": 0
                    }
                ],
                "depth": -1,
                "id": -1,
                "order": -1
            }
        ],
        "tidyTraceNodeCount": 2
    },
    "state_change": {
        "stateChanges": [
            {
                "address": "0xf8ebf4849f1fa4faf0dff2106a173d3a6cb2eb3a",
                "erc": "ERC-20",
                "slots": [
                    {
                        "current": "0x000000000000000000000000000000000000000300b5a05e53d9291bd2a8d639",
                        "key": "0x47ea6de262ff4f3b233a2d9ee14f9e6026986e8dd02488f95c4972246ff92187",
                        "prev": "0x00000000000000000000000000000000000000000022c2956f2bd1f7371e5639"
                    },
                    {
                        "current": "0x00000000000000000000000000000000000002bd4de62315cf473f33e2ff0d5e",
                        "key": "0x5b55c21b899d40d6c00cc95facd1d867524bcacab0555e9145e418f6ce188620",
                        "prev": "0x00000000000000000000000000000000000002c04e7900deb3f496587e898d5e"
                    }
                ],
                "storageVariables": [
                    {
                        "name": "_balances",
                        "type": "mapping(address => uint256)",
                        "value": {
                            "pairs": [
                                {
                                    "key": "0x0d0707963952f2fba59dd06f2b425ace40b492fe",
                                    "value": {
                                        "current": "55563050486879200090243064597854",
                                        "prev": "55800912524940476290243064597854",
                                        "typeTag": 1
                                    }
                                },
                                {
                                    "key": "0x7ca898cbbed67df0b4e249b05561d3a23404eed0",
                                    "value": {
                                        "current": "237904060434816368307755079225",
                                        "prev": "42022373540168307755079225",
                                        "typeTag": 1
                                    }
                                }
                            ],
                            "typeTag": 4
                        }
                    }
                ]
            }
        ]
    }
}