{
    "balance_change": {
        "balanceChanges": [
            {
                "account": "0x15790d15dbef2b53192ec6b6f38b6bc906b803f0",
                "assets": [
                    {
                        "address": "0x0000000000a39bb272e79075ade125fd351887ac",
                        "amount": "0.14",
                        "iconUrl": "",
                        "isERC1155": false,
                        "isERC721": false,
                        "sign": true,
                        "value": ""
                    },
                    {
                        "address": "0x4b10701bfd7bfedc47d50562b76b436fbb5bdb3b",
                        "amount": "1",
                        "iconUrl": "https://assets.blocksec.com/nft/icon/nft_db88bd8a-d9e6-46ce-a045-b395d32e5cf1.png",
                        "isERC1155": false,
                        "isERC721": true,
                        "sign": false,
                        "tokenID": "6537",
                        "value": ""
                    }
                ]
            },
            {
                "account": "0x967b073201215cabbbc0f1c1f2b258683b495cb4",
                "assets": [
                    {
                        "address": "0x4b10701bfd7bfedc47d50562b76b436fbb5bdb3b",
                        "amount": "1",
                        "iconUrl": "https://assets.blocksec.com/nft/icon/nft_db88bd8a-d9e6-46ce-a045-b395d32e5cf1.png",
                        "isERC1155": false,
                        "isERC721": true,
                        "sign": true,
                        "tokenID": "6537",
                        "value": ""
                    },
                    {
                        "address": "0x0000000000a39bb272e79075ade125fd351887ac",
                        "amount": "0.14",
                        "iconUrl": "",
                        "isERC1155": false,
                        "isERC721": false,
                        "sign": false,
                        "value": ""
                    }
                ]
            }
        ]
    },
    "profile": {
        "basic_info": {
            "baseFee": "15.265043288",
            "blockNumber": 16453733,
            "callData": "0x9a1fc3a7000000000000000000000000000000000000000000000000000000000000004000000000000000000000000000000000000000000000000000000000000003a000000000000000000000000000000000000000000000000000000000000000e000000000000000000000000000000000000000000000000000000000000000000000000000000000000000000000000000000000000000000000000000000000000000000000000000000000000000000000000000000000000000000000000000000000000000000000000000000000000000000000000000000000000002e000000000000000000000000000000000000000000000000000000000000000000000000000000000000000000000000000000000000000000000000000fb106300000000000000000000000015790d15dbef2b53192ec6b6f38b6bc906b803f000000000000000000000000000000000000000000000000000000000000000010000000000000000000000000000000000b92d5d043faf7cecf7e2ee6aaed2320000000000000000000000004b10701bfd7bfedc47d50562b76b436fbb5bdb3b000000000000000000000000000000000000000000000000000000000000198900000000000000000000000000000000000000000000000000000000000000010000000000000000000000000000000000a39bb272e79075ade125fd351887ac00000000000000000000000000000000000000000000000001f161421c8e00000000000000000000000000000000000000000000000000000000000063b6605b0000000000000000000000000000000000000000000000000000000063cba48700000000000000000000000000000000000000000000000000000000000001a0000000000000000000000000000000001d56e1687b2285471d4f24185a30f3a600000000000000000000000000000000000000000000000000000000000001c00000000000000000000000000000000000000000000000000000000000000000000000000000000000000000000000000000000000000000000000000000000101000000000000000000000000000000000000000000000000000000000000000000000000000000000000000000000000000000000000000000000000000060000000000000000000000000000000000000000000000000000000000000001cfafbf2ea3f0e7d23d6094286ec3478850622d3bbccf2c0abc0bcc23edcf4ef226f31df338357ea24017243f1dceddcf7dcae224419f9d001434f7c4261118a9600000000000000000000000000000000000000000000000000000000000000e0000000000000000000000000000000000000000000000000000000000000001b82f652318d34699571889804c4f19ac83ab3f371dcbc8647a95694845e7236b64f53c1b23a54bf1077e8628676171666d3e2e5bc9f7a8bc90b5fd0f8a7f89a2200000000000000000000000000000000000000000000000000000000000002e000000000000000000000000000000000000000000000000000000000000000010000000000000000000000000000000000000000000000000000000000fb1063000000000000000000000000967b073201215cabbbc0f1c1f2b258683b495cb400000000000000000000000000000000000000000000000000000000000000000000000000000000000000000000000000b92d5d043faf7cecf7e2ee6aaed2320000000000000000000000004b10701bfd7bfedc47d50562b76b436fbb5bdb3b000000000000000000000000000000000000000000000000000000000000000000000000000000000000000000000000000000000000000000000000000000010000000000000000000000000000000000a39bb272e79075ade125fd351887ac00000000000000000000000000000000000000000000000001f161421c8e00000000000000000000000000000000000000000000000000000000000063b6605a00000000000000000000000000000000000000000000000000000000659793d900000000000000000000000000000000000000000000000000000000000001a000000000000000000000000000000000c63ac79efb4efcce9b9554655c59533700000000000000000000000000000000000000000000000000000000000001c000000000000000000000000000000000000000000000000000000000000000000000000000000000000000000000000000000000000000000000000000000001010000000000000000000000000000000000000000000000000000000000000000000000000000000000000000000000000000000000000000000000000000e00000000000000000000000000000000000000000000000000000000000000080000000000000000000000000000000000000000000000000000000000000001b7374c42234094aa7ce89187021470a6df43f76288546cac5666095ccffd9bafe1fdf50c733e9d7b6aa228cf81383753acc45330dba09517e69b169ecab2af0c50000000000000000000000000000000000000000000000000000000000000002bda9b04c27946aedac527fe8c5df1319561ac4ef443329e0b80eb3a759e4e3e8a8d05a133ca75554ed8689fd9cd3b2104e0916a451c6986b1914dec08a8f2b28",
            "debugEnable": true,
            "errorInfo": "",
            "eventCount": 6,
            "feeRecipient": "0xfeebabe6b0418ec13b30aadf129f5dcdd4f70cea",
            "formatValue": "0",
            "gasLimit": 460635,
            "gasPrice": "16.765043288",
            "gasUsed": 354335,
            "intTxnCount": 12,
            "internalRevert": false,
            "internalRevertMessage": "",
            "isContractCreation": false,
            "isFlashloan": false,
            "maxFee": "20.812436014",
            "nonce": 998,
            "overwritedBlockNumber": -1,
            "priorityFee": "1.5",
            "receiver": "0x000000000000ad05ccc4f10045630fb830b95127",
            "revertMessage": "",
            "sender": "0x15790d15dbef2b53192ec6b6f38b6bc906b803f0",
            "simulationEnable": true,
            "sourceTxnHash": "0xca6c94e92c8d52a888a6ff675b4e9cda77897eb45cb77e763bb7cf476d22168e",
            "status": true,
            "timestamp": "2023-01-21T07:38:47Z",
            "transactionFee": "0.00594044161345348",
            "txnHash": "0xca6c94e92c8d52a888a6ff675b4e9cda77897eb45cb77e763bb7cf476d22168e",
            "txnIndex": 53,
            "type": 2,
            "value": "0"
        },
        "fund_flow": [
            {
                "amount": "0.14",
                "from": "0x967b073201215cabbbc0f1c1f2b258683b495cb4",
                "id": 1,
                "isERC1155": false,
                "isERC721": false,
                "isReverted": false,
                "order": 1,
                "to": "0x15790d15dbef2b53192ec6b6f38b6bc906b803f0",
                "token": "0x0000000000a39bb272e79075ade125fd351887ac"
            },
            {
                "amount": "1",
                "from": "0x15790d15dbef2b53192ec6b6f38b6bc906b803f0",
                "id": 2,
                "isERC1155": false,
                "isERC721": true,
                "isReverted": false,
                "order": 2,
                "to": "0x967b073201215cabbbc0f1c1f2b258683b495cb4",
                "token": "0x4b10701bfd7bfedc47d50562b76b436fbb5bdb3b",
                "tokenID": "6537"
            }
        ],
        "token_infos": [
            {
                "address": "0x0000000000a39bb272e79075ade125fd351887ac",
                "decimals": 18
            },
            {
                "address": "0xc02aaa39b223fe8d0a0e5c4f27ead9083c756cc2",
                "decimals": 18
            },
            {
                "address": "0xeeeeeeeeeeeeeeeeeeeeeeeeeeeeeeeeeeeeeeee",
                "decimals": 18
            }
        ]
    },
    "address_label": {
        "labels": [
            {
                "address": "0x4c2bbdbeccae1c492c681158a46eae498a05627b",
                "label": "MerkleVerifier"
            },
            {
                "address": "0x4b10701bfd7bfedc47d50562b76b436fbb5bdb3b",
                "label": "LilNoun: LILNOUN Token"
            },
            {
                "address": "0x0000000000000000000000000000000000000002",
                "label": "Precompiled"
            },
            {
                "address": "0x0000000000000000000000000000000000000004",
                "label": "Precompiled"
            },
            {
                "address": "0xa5409ec958c83c3f309868babaca7c86dcb077c1",
                "label": "OpenSea: Registry"
            },
            {
                "address": "0xb38827497daf7f28261910e33e22219de087c8f5",
                "label": "Blur: Marketplace Proxy"
            },
            {
                "address": "0x0000000000000000000000000000000000000003",
                "label": "Precompiled"
            },
            {
                "address": "0x0000000000b92d5d043faf7cecf7e2ee6aaed232",
                "label": "SafeCollectionBidPolicyERC721"
            },
            {
                "address": "0x3a35a3102b5c6bd1e4d3237248be071ef53c8331",
                "label": "PolicyManager"
            },
            {
                "address": "0x00000000000111abe46ff893f3b2fdf1f759a8a8",
                "label": "Blur: Execution Delegate"
            },
            {
                "address": "0x0000000000a39bb272e79075ade125fd351887ac",
                "label": "Blur: Bidding"
            },
            {
                "address": "0x17584a148d27ac5d06d87771464dacbaf625ce45",
                "label": "Blur Pool"
            },
            {
                "address": "0x0000000000000000000000000000000000000000",
                "label": "Null Address"
            },
            {
                "address": "0x0000000000000000000000000000000000000001",
                "label": "Precompiled"
            },
            {
                "address": "0xeeeeeeeeeeeeeeeeeeeeeeeeeeeeeeeeeeeeeeee",
                "label": "Ether"
            },
            {
                "address": "0x000000000000ad05ccc4f10045630fb830b95127",
                "label": "Blur.io: Marketplace"
            }
        ]
    },
    "trace": {
        "accountLabels": null,
        "dataMap": {
            "-1": {
                "invocation": {
                    "address": "0x15790d15dbef2b53192ec6b6f38b6bc906b803f0",
                    "callData": "",
                    "decodedMethod": null,
                    "errorInfo": "",
                    "fromAddress": "",
                    "gasUsed": 0,
                    "id": -1,
                    "methodDecoded": false,
                    "operation": "",
                    "output": "",
                    "revert": false,
                    "revertMessage": "",
                    "selector": "",
                    "status": false,
                    "value": ""
                },
                "nodeType": 0
            },
            "0": {
                "invocation": {
                    "address": "0x000000000000ad05ccc4f10045630fb830b95127",
                    "callData": "0x000000000000000000000000000000000000000000000000000000000000004000000000000000000000000000000000000000000000000000000000000003a000000000000000000000000000000000000000000000000000000000000000e000000000000000000000000000000000000000000000000000000000000000000000000000000000000000000000000000000000000000000000000000000000000000000000000000000000000000000000000000000000000000000000000000000000000000000000000000000000000000000000000000000000000002e000000000000000000000000000000000000000000000000000000000000000000000000000000000000000000000000000000000000000000000000000fb106300000000000000000000000015790d15dbef2b53192ec6b6f38b6bc906b803f000000000000000000000000000000000000000000000000000000000000000010000000000000000000000000000000000b92d5d043faf7cecf7e2ee6aaed2320000000000000000000000004b10701bfd7bfedc47d50562b76b436fbb5bdb3b000000000000000000000000000000000000000000000000000000000000198900000000000000000000000000000000000000000000000000000000000000010000000000000000000000000000000000a39bb272e79075ade125fd351887ac00000000000000000000000000000000000000000000000001f161421c8e00000000000000000000000000000000000000000000000000000000000063b6605b0000000000000000000000000000000000000000000000000000000063cba48700000000000000000000000000000000000000000000000000000000000001a0000000000000000000000000000000001d56e1687b2285471d4f24185a30f3a600000000000000000000000000000000000000000000000000000000000001c00000000000000000000000000000000000000000000000000000000000000000000000000000000000000000000000000000000000000000000000000000000101000000000000000000000000000000000000000000000000000000000000000000000000000000000000000000000000000000000000000000000000000060000000000000000000000000000000000000000000000000000000000000001cfafbf2ea3f0e7d23d6094286ec3478850622d3bbccf2c0abc0bcc23edcf4ef226f31df338357ea24017243f1dceddcf7dcae224419f9d001434f7c4261118a9600000000000000000000000000000000000000000000000000000000000000e0000000000000000000000000000000000000000000000000000000000000001b82f652318d34699571889804c4f19ac83ab3f371dcbc8647a95694845e7236b64f53c1b23a54bf1077e8628676171666d3e2e5bc9f7a8bc90b5fd0f8a7f89a2200000000000000000000000000000000000000000000000000000000000002e000000000000000000000000000000000000000000000000000000000000000010000000000000000000000000000000000000000000000000000000000fb1063000000000000000000000000967b073201215cabbbc0f1c1f2b258683b495cb400000000000000000000000000000000000000000000000000000000000000000000000000000000000000000000000000b92d5d043faf7cecf7e2ee6aaed2320000000000000000000000004b10701bfd7bfedc47d50562b76b436fbb5bdb3b000000000000000000000000000000000000000000000000000000000000000000000000000000000000000000000000000000000000000000000000000000010000000000000000000000000000000000a39bb272e79075ade125fd351887ac00000000000000000000000000000000000000000000000001f161421c8e00000000000000000000000000000000000000000000000000000000000063b6605a00000000000000000000000000000000000000000000000000000000659793d900000000000000000000000000000000000000000000000000000000000001a000000000000000000000000000000000c63ac79efb4efcce9b9554655c59533700000000000000000000000000000000000000000000000000000000000001c000000000000000000000000000000000000000000000000000000000000000000000000000000000000000000000000000000000000000000000000000000001010000000000000000000000000000000000000000000000000000000000000000000000000000000000000000000000000000000000000000000000000000e00000000000000000000000000000000000000000000000000000000000000080000000000000000000000000000000000000000000000000000000000000001b7374c42234094aa7ce89187021470a6df43f76288546cac5666095ccffd9bafe1fdf50c733e9d7b6aa228cf81383753acc45330dba09517e69b169ecab2af0c50000000000000000000000000000000000000000000000000000000000000002bda9b04c27946aedac527fe8c5df1319561ac4ef443329e0b80eb3a759e4e3e8a8d05a133ca75554ed8689fd9cd3b2104e0916a451c6986b1914dec08a8f2b28",
                    "decodedMethod": {
                        "callParams": [
                            {
                                "name": "sell",
                                "type": "((address,uint8,address,address,uint256,uint256,address,uint256,uint256,uint256,(uint16,address)[],uint256,bytes),uint8,bytes32,bytes32,bytes,uint8,uint256)",
                                "value": [
                                    {
                                        "name": "order",
                                        "type": "(address,uint8,address,address,uint256,uint256,address,uint256,uint256,uint256,(uint16,address)[],uint256,bytes)",
                                        "value": [
                                            {
                                                "name": "trader",
                                                "type": "address",
                                                "value": "0x15790d15dbef2b53192ec6b6f38b6bc906b803f0"
                                            },
                                            {
                                                "name": "side",
                                                "type": "uint8",
                                                "value": "1"
                                            },
                                            {
                                                "name": "matchingPolicy",
                                                "type": "address",
                                                "value": "0x0000000000b92d5d043faf7cecf7e2ee6aaed232"
                                            },
                                            {
                                                "name": "collection",
                                                "type": "address",
                                                "value": "0x4b10701bfd7bfedc47d50562b76b436fbb5bdb3b"
                                            },
                                            {
                                                "name": "tokenId",
                                                "type": "uint256",
                                                "value": "6,537"
                                            },
                                            {
                                                "name": "amount",
                                                "type": "uint256",
                                                "value": "1"
                                            },
                                            {
                                                "name": "paymentToken",
                                                "type": "address",
                                                "value": "0x0000000000a39bb272e79075ade125fd351887ac"
                                            },
                                            {
                                                "name": "price",
                                                "type": "uint256",
                                                "value": "140,000,000,000,000,000"
                                            },
                                            {
                                                "name": "listingTime",
                                                "type": "uint256",
                                                "value": "1,672,896,603"
                                            },
                                            {
                                                "name": "expirationTime",
                                                "type": "uint256",
                                                "value": "1,674,290,311"
                                            },
                                            {
                                                "name": "fees",
                                                "type": "(uint16,address)[]",
                                                "value": []
                                            },
                                            {
                                                "name": "salt",
                                                "type": "uint256",
                                                "value": "38,998,721,227,594,667,672,065,863,471,103,800,230"
                                            },
                                            {
                                                "name": "extraParams",
                                                "type": "bytes",
                                                "value": "0x01"
                                            }
                                        ]
                                    },
                                    {
                                        "name": "v",
                                        "type": "uint8",
                                        "value": "0"
                                    },
                                    {
                                        "name": "r",
                                        "type": "bytes32",
                                        "value": "0x0000000000000000000000000000000000000000000000000000000000000000"
                                    },
                                    {
                                        "name": "s",
                                        "type": "bytes32",
                                        "value": "0x0000000000000000000000000000000000000000000000000000000000000000"
                                    },
                                    {
                                        "name": "extraSignature",
                                        "type": "bytes",
                                        "value": "0x000000000000000000000000000000000000000000000000000000000000001cfafbf2ea3f0e7d23d6094286ec3478850622d3bbccf2c0abc0bcc23edcf4ef226f31df338357ea24017243f1dceddcf7dcae224419f9d001434f7c4261118a96"
                                    },
                                    {
                                        "name": "signatureVersion",
                                        "type": "uint8",
                                        "value": "0"
                                    },
                                    {
                                        "name": "blockNumber",
                                        "type": "uint256",
                                        "value": "16,453,731"
                                    }
                                ]
                            },
                            {
                                "name": "buy",
                                "type": "((address,uint8,address,address,uint256,uint256,address,uint256,uint256,uint256,(uint16,address)[],uint256,bytes),uint8,bytes32,bytes32,bytes,uint8,uint256)",
                                "value": [
                                    {
                                        "name": "order",
                                        "type": "(address,uint8,address,address,uint256,uint256,address,uint256,uint256,uint256,(uint16,address)[],uint256,bytes)",
                                        "value": [
                                            {
                                                "name": "trader",
                                                "type": "address",
                                                "value": "0x967b073201215cabbbc0f1c1f2b258683b495cb4"
                                            },
                                            {
                                                "name": "side",
                                                "type": "uint8",
                                                "value": "0"
                                            },
                                            {
                                                "name": "matchingPolicy",
                                                "type": "address",
                                                "value": "0x0000000000b92d5d043faf7cecf7e2ee6aaed232"
                                            },
                                            {
                                                "name": "collection",
                                                "type": "address",
                                                "value": "0x4b10701bfd7bfedc47d50562b76b436fbb5bdb3b"
                                            },
                                            {
                                                "name": "tokenId",
                                                "type": "uint256",
                                                "value": "0"
                                            },
                                            {
                                                "name": "amount",
                                                "type": "uint256",
                                                "value": "1"
                                            },
                                            {
                                                "name": "paymentToken",
                                                "type": "address",
                                                "value": "0x0000000000a39bb272e79075ade125fd351887ac"
                                            },
                                            {
                                                "name": "price",
                                                "type": "uint256",
                                                "value": "140,000,000,000,000,000"
                                            },
                                            {
                                                "name": "listingTime",
                                                "type": "uint256",
                                                "value": "1,672,896,602"
                                            },
                                            {
                                                "name": "expirationTime",
                                                "type": "uint256",
                                                "value": "1,704,432,601"
                                            },
                                            {
                                                "name": "fees",
                                                "type": "(uint16,address)[]",
                                                "value": []
                                            },
                                            {
                                                "name": "salt",
                                                "type": "uint256",
                                                "value": "263,492,345,178,545,394,300,269,747,307,588,178,743"
                                            },
                                            {
                                                "name": "extraParams",
                                                "type": "bytes",
                                                "value": "0x01"
                                            }
                                        ]
                                    },
                                    {
                                        "name": "v",
                                        "type": "uint8",
                                        "value": "27"
                                    },
                                    {
                                        "name": "r",
                                        "type": "bytes32",
                                        "value": "0x82f652318d34699571889804c4f19ac83ab3f371dcbc8647a95694845e7236b6"
                                    },
                                    {
                                        "name": "s",
                                        "type": "bytes32",
                                        "value": "0x4f53c1b23a54bf1077e8628676171666d3e2e5bc9f7a8bc90b5fd0f8a7f89a22"
                                    },
                                    {
                                        "name": "extraSignature",
                                        "type": "bytes",
                                        "value": "0x0000000000000000000000000000000000000000000000000000000000000080000000000000000000000000000000000000000000000000000000000000001b7374c42234094aa7ce89187021470a6df43f76288546cac5666095ccffd9bafe1fdf50c733e9d7b6aa228cf81383753acc45330dba09517e69b169ecab2af0c50000000000000000000000000000000000000000000000000000000000000002bda9b04c27946aedac527fe8c5df1319561ac4ef443329e0b80eb3a759e4e3e8a8d05a133ca75554ed8689fd9cd3b2104e0916a451c6986b1914dec08a8f2b28"
                                    },
                                    {
                                        "name": "signatureVersion",
                                        "type": "uint8",
                                        "value": "1"
                                    },
                                    {
                                        "name": "blockNumber",
                                        "type": "uint256",
                                        "value": "16,453,731"
                                    }
                                ]
                            }
                        ],
                        "constructorArguments": "",
                        "name": "execute",
                        "returnParams": [],
                        "signature": "execute(((address,uint8,address,address,uint256,uint256,address,uint256,uint256,uint256,(uint16,address)[],uint256,bytes),uint8,bytes32,bytes32,bytes,uint8,uint256),((address,uint8,address,address,uint256,uint256,address,uint256,uint256,uint256,(uint16,address)[],uint256,bytes),uint8,bytes32,bytes32,bytes,uint8,uint256))"
                    },
                    "errorInfo": "",
                    "fromAddress": "0x15790d15dbef2b53192ec6b6f38b6bc906b803f0",
                    "gasUsed": 354335,
                    "id": 0,
                    "methodDecoded": true,
                    "operation": "CALL",
                    "output": "",
                    "revert": false,
                    "revertMessage": "",
                    "selector": "0x9a1fc3a7",
                    "status": true,
                    "value": "0"
                },
                "nodeType": 0
            },
            "1": {
                "invocation": {
                    "address": "0xb38827497daf7f28261910e33e22219de087c8f5",
                    "callData": "0x000000000000000000000000000000000000000000000000000000000000004000000000000000000000000000000000000000000000000000000000000003a000000000000000000000000000000000000000000000000000000000000000e000000000000000000000000000000000000000000000000000000000000000000000000000000000000000000000000000000000000000000000000000000000000000000000000000000000000000000000000000000000000000000000000000000000000000000000000000000000000000000000000000000000000002e000000000000000000000000000000000000000000000000000000000000000000000000000000000000000000000000000000000000000000000000000fb106300000000000000000000000015790d15dbef2b53192ec6b6f38b6bc906b803f000000000000000000000000000000000000000000000000000000000000000010000000000000000000000000000000000b92d5d043faf7cecf7e2ee6aaed2320000000000000000000000004b10701bfd7bfedc47d50562b76b436fbb5bdb3b000000000000000000000000000000000000000000000000000000000000198900000000000000000000000000000000000000000000000000000000000000010000000000000000000000000000000000a39bb272e79075ade125fd351887ac00000000000000000000000000000000000000000000000001f161421c8e00000000000000000000000000000000000000000000000000000000000063b6605b0000000000000000000000000000000000000000000000000000000063cba48700000000000000000000000000000000000000000000000000000000000001a0000000000000000000000000000000001d56e1687b2285471d4f24185a30f3a600000000000000000000000000000000000000000000000000000000000001c00000000000000000000000000000000000000000000000000000000000000000000000000000000000000000000000000000000000000000000000000000000101000000000000000000000000000000000000000000000000000000000000000000000000000000000000000000000000000000000000000000000000000060000000000000000000000000000000000000000000000000000000000000001cfafbf2ea3f0e7d23d6094286ec3478850622d3bbccf2c0abc0bcc23edcf4ef226f31df338357ea24017243f1dceddcf7dcae224419f9d001434f7c4261118a9600000000000000000000000000000000000000000000000000000000000000e0000000000000000000000000000000000000000000000000000000000000001b82f652318d34699571889804c4f19ac83ab3f371dcbc8647a95694845e7236b64f53c1b23a54bf1077e8628676171666d3e2e5bc9f7a8bc90b5fd0f8a7f89a2200000000000000000000000000000000000000000000000000000000000002e000000000000000000000000000000000000000000000000000000000000000010000000000000000000000000000000000000000000000000000000000fb1063000000000000000000000000967b073201215cabbbc0f1c1f2b258683b495cb400000000000000000000000000000000000000000000000000000000000000000000000000000000000000000000000000b92d5d043faf7cecf7e2ee6aaed2320000000000000000000000004b10701bfd7bfedc47d50562b76b436fbb5bdb3b000000000000000000000000000000000000000000000000000000000000000000000000000000000000000000000000000000000000000000000000000000010000000000000000000000000000000000a39bb272e79075ade125fd351887ac00000000000000000000000000000000000000000000000001f161421c8e00000000000000000000000000000000000000000000000000000000000063b6605a00000000000000000000000000000000000000000000000000000000659793d900000000000000000000000000000000000000000000000000000000000001a000000000000000000000000000000000c63ac79efb4efcce9b9554655c59533700000000000000000000000000000000000000000000000000000000000001c000000000000000000000000000000000000000000000000000000000000000000000000000000000000000000000000000000000000000000000000000000001010000000000000000000000000000000000000000000000000000000000000000000000000000000000000000000000000000000000000000000000000000e00000000000000000000000000000000000000000000000000000000000000080000000000000000000000000000000000000000000000000000000000000001b7374c42234094aa7ce89187021470a6df43f76288546cac5666095ccffd9bafe1fdf50c733e9d7b6aa228cf81383753acc45330dba09517e69b169ecab2af0c50000000000000000000000000000000000000000000000000000000000000002bda9b04c27946aedac527fe8c5df1319561ac4ef443329e0b80eb3a759e4e3e8a8d05a133ca75554ed8689fd9cd3b2104e0916a451c6986b1914dec08a8f2b28",
                    "decodedMethod": {
                        "callParams": [
                            {
                                "name": "sell",
                                "type": "((address,uint8,address,address,uint256,uint256,address,uint256,uint256,uint256,(uint16,address)[],uint256,bytes),uint8,bytes32,bytes32,bytes,uint8,uint256)",
                                "value": [
                                    {
                                        "name": "order",
                                        "type": "(address,uint8,address,address,uint256,uint256,address,uint256,uint256,uint256,(uint16,address)[],uint256,bytes)",
                                        "value": [
                                            {
                                                "name": "trader",
                                                "type": "address",
                                                "value": "0x15790d15dbef2b53192ec6b6f38b6bc906b803f0"
                                            },
                                            {
                                                "name": "side",
                                                "type": "uint8",
                                                "value": "1"
                                            },
                                            {
                                                "name": "matchingPolicy",
                                                "type": "address",
                                                "value": "0x0000000000b92d5d043faf7cecf7e2ee6aaed232"
                                            },
                                            {
                                                "name": "collection",
                                                "type": "address",
                                                "value": "0x4b10701bfd7bfedc47d50562b76b436fbb5bdb3b"
                                            },
                                            {
                                                "name": "tokenId",
                                                "type": "uint256",
                                                "value": "6,537"
                                            },
                                            {
                                                "name": "amount",
                                                "type": "uint256",
                                                "value": "1"
                                            },
                                            {
                                                "name": "paymentToken",
                                                "type": "address",
                                                "value": "0x0000000000a39bb272e79075ade125fd351887ac"
                                            },
                                            {
                                                "name": "price",
                                                "type": "uint256",
                                                "value": "140,000,000,000,000,000"
                                            },
                                            {
                                                "name": "listingTime",
                                                "type": "uint256",
                                                "value": "1,672,896,603"
                                            },
                                            {
                                                "name": "expirationTime",
                                                "type": "uint256",
                                                "value": "1,674,290,311"
                                            },
                                            {
                                                "name": "fees",
                                                "type": "(uint16,address)[]",
                                                "value": []
                                            },
                                            {
                                                "name": "salt",
                                                "type": "uint256",
                                                "value": "38,998,721,227,594,667,672,065,863,471,103,800,230"
                                            },
                                            {
                                                "name": "extraParams",
                                                "type": "bytes",
                                                "value": "0x01"
                                            }
                                        ]
                                    },
                                    {
                                        "name": "v",
                                        "type": "uint8",
                                        "value": "0"
                                    },
                                    {
                                        "name": "r",
                                        "type": "bytes32",
                                        "value": "0x0000000000000000000000000000000000000000000000000000000000000000"
                                    },
                                    {
                                        "name": "s",
                                        "type": "bytes32",
                                        "value": "0x0000000000000000000000000000000000000000000000000000000000000000"
                                    },
                                    {
                                        "name": "extraSignature",
                                        "type": "bytes",
                                        "value": "0x000000000000000000000000000000000000000000000000000000000000001cfafbf2ea3f0e7d23d6094286ec3478850622d3bbccf2c0abc0bcc23edcf4ef226f31df338357ea24017243f1dceddcf7dcae224419f9d001434f7c4261118a96"
                                    },
                                    {
                                        "name": "signatureVersion",
                                        "type": "uint8",
                                        "value": "0"
                                    },
                                    {
                                        "name": "blockNumber",
                                        "type": "uint256",
                                        "value": "16,453,731"
                                    }
                                ]
                            },
                            {
                                "name": "buy",
                                "type": "((address,uint8,address,address,uint256,uint256,address,uint256,uint256,uint256,(uint16,address)[],uint256,bytes),uint8,bytes32,bytes32,bytes,uint8,uint256)",
                                "value": [
                                    {
                                        "name": "order",
                                        "type": "(address,uint8,address,address,uint256,uint256,address,uint256,uint256,uint256,(uint16,address)[],uint256,bytes)",
                                        "value": [
                                            {
                                                "name": "trader",
                                                "type": "address",
                                                "value": "0x967b073201215cabbbc0f1c1f2b258683b495cb4"
                                            },
                                            {
                                                "name": "side",
                                                "type": "uint8",
                                                "value": "0"
                                            },
                                            {
                                                "name": "matchingPolicy",
                                                "type": "address",
                                                "value": "0x0000000000b92d5d043faf7cecf7e2ee6aaed232"
                                            },
                                            {
                                                "name": "collection",
                                                "type": "address",
                                                "value": "0x4b10701bfd7bfedc47d50562b76b436fbb5bdb3b"
                                            },
                                            {
                                                "name": "tokenId",
                                                "type": "uint256",
                                                "value": "0"
                                            },
                                            {
                                                "name": "amount",
                                                "type": "uint256",
                                                "value": "1"
                                            },
                                            {
                                                "name": "paymentToken",
                                                "type": "address",
                                                "value": "0x0000000000a39bb272e79075ade125fd351887ac"
                                            },
                                            {
                                                "name": "price",
                                                "type": "uint256",
                                                "value": "140,000,000,000,000,000"
                                            },
                                            {
                                                "name": "listingTime",
                                                "type": "uint256",
                                                "value": "1,672,896,602"
                                            },
                                            {
                                                "name": "expirationTime",
                                                "type": "uint256",
                                                "value": "1,704,432,601"
                                            },
                                            {
                                                "name": "fees",
                                                "type": "(uint16,address)[]",
                                                "value": []
                                            },
                                            {
                                                "name": "salt",
                                                "type": "uint256",
                                                "value": "263,492,345,178,545,394,300,269,747,307,588,178,743"
                                            },
                                            {
                                                "name": "extraParams",
                                                "type": "bytes",
                                                "value": "0x01"
                                            }
                                        ]
                                    },
                                    {
                                        "name": "v",
                                        "type": "uint8",
                                        "value": "27"
                                    },
                                    {
                                        "name": "r",
                                        "type": "bytes32",
                                        "value": "0x82f652318d34699571889804c4f19ac83ab3f371dcbc8647a95694845e7236b6"
                                    },
                                    {
                                        "name": "s",
                                        "type": "bytes32",
                                        "value": "0x4f53c1b23a54bf1077e8628676171666d3e2e5bc9f7a8bc90b5fd0f8a7f89a22"
                                    },
                                    {
                                        "name": "extraSignature",
                                        "type": "bytes",
                                        "value": "0x0000000000000000000000000000000000000000000000000000000000000080000000000000000000000000000000000000000000000000000000000000001b7374c42234094aa7ce89187021470a6df43f76288546cac5666095ccffd9bafe1fdf50c733e9d7b6aa228cf81383753acc45330dba09517e69b169ecab2af0c50000000000000000000000000000000000000000000000000000000000000002bda9b04c27946aedac527fe8c5df1319561ac4ef443329e0b80eb3a759e4e3e8a8d05a133ca75554ed8689fd9cd3b2104e0916a451c6986b1914dec08a8f2b28"
                                    },
                                    {
                                        "name": "signatureVersion",
                                        "type": "uint8",
                                        "value": "1"
                                    },
                                    {
                                        "name": "blockNumber",
                                        "type": "uint256",
                                        "value": "16,453,731"
                                    }
                                ]
                            }
                        ],
                        "constructorArguments": "",
                        "name": "execute",
                        "returnParams": [],
                        "signature": "execute(((address,uint8,address,address,uint256,uint256,address,uint256,uint256,uint256,(uint16,address)[],uint256,bytes),uint8,bytes32,bytes32,bytes,uint8,uint256),((address,uint8,address,address,uint256,uint256,address,uint256,uint256,uint256,(uint16,address)[],uint256,bytes),uint8,bytes32,bytes32,bytes,uint8,uint256))"
                    },
                    "errorInfo": "",
                    "fromAddress": "0x000000000000ad05ccc4f10045630fb830b95127",
                    "gasUsed": 363798,
                    "id": 1,
                    "methodDecoded": true,
                    "operation": "DELEGATECALL",
                    "output": "",
                    "revert": false,
                    "revertMessage": "",
                    "selector": "0x9a1fc3a7",
                    "status": true,
                    "value": "0"
                },
                "nodeType": 0
            },
            "10": {
                "event": {
                    "contract": "0x0000000000a39bb272e79075ade125fd351887ac",
                    "decodedLog": {
                        "name": "Transfer",
                        "params": [
                            {
                                "name": "from",
                                "type": "address",
                                "value": "0x967b073201215cabbbc0f1c1f2b258683b495cb4"
                            },
                            {
                                "name": "to",
                                "type": "address",
                                "value": "0x15790d15dbef2b53192ec6b6f38b6bc906b803f0"
                            },
                            {
                                "decimalAvailable": true,
                                "name": "value",
                                "type": "uint256",
                                "value": "140,000,000,000,000,000"
                            }
                        ],
                        "signature": "Transfer(address,address,uint256)"
                    },
                    "id": 10,
                    "logData": "0x00000000000000000000000000000000000000000000000001f161421c8e0000",
                    "logDecoded": true,
                    "operation": "EVENT",
                    "revert": false,
                    "status": true,
                    "topics": [
                        "0xddf252ad1be2c89b69c2b068fc378daa952ba7f163c4a11628f55a4df523b3ef",
                        "0x000000000000000000000000967b073201215cabbbc0f1c1f2b258683b495cb4",
                        "0x00000000000000000000000015790d15dbef2b53192ec6b6f38b6bc906b803f0"
                    ]
                },
                "nodeType": 1
            },
            "11": {
                "invocation": {
                    "address": "0x00000000000111abe46ff893f3b2fdf1f759a8a8",
                    "callData": "0x0000000000000000000000004b10701bfd7bfedc47d50562b76b436fbb5bdb3b00000000000000000000000015790d15dbef2b53192ec6b6f38b6bc906b803f0000000000000000000000000967b073201215cabbbc0f1c1f2b258683b495cb40000000000000000000000000000000000000000000000000000000000001989",
                    "decodedMethod": {
                        "callParams": [
                            {
                                "name": "collection",
                                "type": "address",
                                "value": "0x4b10701bfd7bfedc47d50562b76b436fbb5bdb3b"
                            },
                            {
                                "name": "from",
                                "type": "address",
                                "value": "0x15790d15dbef2b53192ec6b6f38b6bc906b803f0"
                            },
                            {
                                "name": "to",
                                "type": "address",
                                "value": "0x967b073201215cabbbc0f1c1f2b258683b495cb4"
                            },
                            {
                                "name": "tokenId",
                                "type": "uint256",
                                "value": "6,537"
                            }
                        ],
                        "constructorArguments": "",
                        "name": "transferERC721",
                        "returnParams": [],
                        "signature": "transferERC721(address,address,address,uint256)"
                    },
                    "errorInfo": "",
                    "fromAddress": "0x000000000000ad05ccc4f10045630fb830b95127",
                    "gasUsed": 164204,
                    "id": 11,
                    "methodDecoded": true,
                    "operation": "CALL",
                    "output": "",
                    "revert": false,
                    "revertMessage": "",
                    "selector": "0x789f93f6",
                    "status": true,
                    "value": "0"
                },
                "nodeType": 0
            },
            "12": {
                "invocation": {
                    "address": "0x4b10701bfd7bfedc47d50562b76b436fbb5bdb3b",
                    "callData": "0x00000000000000000000000015790d15dbef2b53192ec6b6f38b6bc906b803f0000000000000000000000000967b073201215cabbbc0f1c1f2b258683b495cb40000000000000000000000000000000000000000000000000000000000001989",
                    "decodedMethod": {
                        "callParams": [
                            {
                                "name": "from",
                                "type": "address",
                                "value": "0x15790d15dbef2b53192ec6b6f38b6bc906b803f0"
                            },
                            {
                                "name": "to",
                                "type": "address",
                                "value": "0x967b073201215cabbbc0f1c1f2b258683b495cb4"
                            },
                            {
                                "name": "tokenId",
                                "type": "uint256",
                                "value": "6,537"
                            }
                        ],
                        "constructorArguments": "",
                        "name": "safeTransferFrom",
                        "returnParams": [],
                        "signature": "safeTransferFrom(address,address,uint256)"
                    },
                    "errorInfo": "",
                    "fromAddress": "0x00000000000111abe46ff893f3b2fdf1f759a8a8",
                    "gasUsed": 156283,
                    "id": 12,
                    "methodDecoded": true,
                    "operation": "CALL",
                    "output": "",
                    "revert": false,
                    "revertMessage": "",
                    "selector": "0x42842e0e",
                    "status": true,
                    "value": "0"
                },
                "nodeType": 0
            },
            "13": {
                "invocation": {
                    "address": "0xa5409ec958c83c3f309868babaca7c86dcb077c1",
                    "callData": "0x00000000000000000000000015790d15dbef2b53192ec6b6f38b6bc906b803f0",
                    "decodedMethod": {
                        "callParams": [
                            {
                                "name": "",
                                "type": "address",
                                "value": "0x15790d15dbef2b53192ec6b6f38b6bc906b803f0"
                            }
                        ],
                        "constructorArguments": "",
                        "name": "proxies",
                        "returnParams": [
                            {
                                "name": "",
                                "type": "address",
                                "value": "0x0000000000000000000000000000000000000000"
                            }
                        ],
                        "signature": "proxies(address)"
                    },
                    "errorInfo": "",
                    "fromAddress": "0x4b10701bfd7bfedc47d50562b76b436fbb5bdb3b",
                    "gasUsed": 2782,
                    "id": 13,
                    "methodDecoded": true,
                    "operation": "STATICCALL",
                    "output": "0x0000000000000000000000000000000000000000000000000000000000000000",
                    "revert": false,
                    "revertMessage": "",
                    "selector": "0xc4552791",
                    "status": true,
                    "value": "0"
                },
                "nodeType": 0
            },
            "14": {
                "event": {
                    "contract": "0x4b10701bfd7bfedc47d50562b76b436fbb5bdb3b",
                    "decodedLog": {
                        "name": "DelegateVotesChanged",
                        "params": [
                            {
                                "name": "delegate",
                                "type": "address",
                                "value": "0x15790d15dbef2b53192ec6b6f38b6bc906b803f0"
                            },
                            {
                                "name": "previousBalance",
                                "type": "uint256",
                                "value": "1"
                            },
                            {
                                "name": "newBalance",
                                "type": "uint256",
                                "value": "0"
                            }
                        ],
                        "signature": "DelegateVotesChanged(address,uint256,uint256)"
                    },
                    "id": 14,
                    "logData": "0x00000000000000000000000000000000000000000000000000000000000000010000000000000000000000000000000000000000000000000000000000000000",
                    "logDecoded": true,
                    "operation": "EVENT",
                    "revert": false,
                    "status": true,
                    "topics": [
                        "0xdec2bacdd2f05b59de34da9b523dff8be42e5e38e818c82fdb0bae774387a724",
                        "0x00000000000000000000000015790d15dbef2b53192ec6b6f38b6bc906b803f0"
                    ]
                },
                "nodeType": 1
            },
            "15": {
                "event": {
                    "contract": "0x4b10701bfd7bfedc47d50562b76b436fbb5bdb3b",
                    "decodedLog": {
                        "name": "DelegateVotesChanged",
                        "params": [
                            {
                                "name": "delegate",
                                "type": "address",
                                "value": "0x967b073201215cabbbc0f1c1f2b258683b495cb4"
                            },
                            {
                                "name": "previousBalance",
                                "type": "uint256",
                                "value": "25"
                            },
                            {
                                "name": "newBalance",
                                "type": "uint256",
                                "value": "26"
                            }
                        ],
                        "signature": "DelegateVotesChanged(address,uint256,uint256)"
                    },
                    "id": 15,
                    "logData": "0x0000000000000000000000000000000000000000000000000000000000000019000000000000000000000000000000000000000000000000000000000000001a",
                    "logDecoded": true,
                    "operation": "EVENT",
                    "revert": false,
                    "status": true,
                    "topics": [
                        "0xdec2bacdd2f05b59de34da9b523dff8be42e5e38e818c82fdb0bae774387a724",
                        "0x000000000000000000000000967b073201215cabbbc0f1c1f2b258683b495cb4"
                    ]
                },
                "nodeType": 1
            },
            "16": {
                "event": {
                    "contract": "0x4b10701bfd7bfedc47d50562b76b436fbb5bdb3b",
                    "decodedLog": {
                        "name": "Approval",
                        "params": [
                            {
                                "name": "owner",
                                "type": "address",
                                "value": "0x15790d15dbef2b53192ec6b6f38b6bc906b803f0"
                            },
                            {
                                "name": "approved",
                                "type": "address",
                                "value": "0x0000000000000000000000000000000000000000"
                            },
                            {
                                "decimalAvailable": true,
                                "name": "tokenId",
                                "type": "uint256",
                                "value": "6,537"
                            }
                        ],
                        "signature": "Approval(address,address,uint256)"
                    },
                    "id": 16,
                    "logData": "0x",
                    "logDecoded": true,
                    "operation": "EVENT",
                    "revert": false,
                    "status": true,
                    "topics": [
                        "0x8c5be1e5ebec7d5bd14f71427d1e84f3dd0314c0f7b2291e5b200ac8c7c3b925",
                        "0x00000000000000000000000015790d15dbef2b53192ec6b6f38b6bc906b803f0",
                        "0x0000000000000000000000000000000000000000000000000000000000000000",
                        "0x0000000000000000000000000000000000000000000000000000000000001989"
                    ]
                },
                "nodeType": 1
            },
            "17": {
                "event": {
                    "contract": "0x4b10701bfd7bfedc47d50562b76b436fbb5bdb3b",
                    "decodedLog": {
                        "name": "Transfer",
                        "params": [
                            {
                                "name": "from",
                                "type": "address",
                                "value": "0x15790d15dbef2b53192ec6b6f38b6bc906b803f0"
                            },
                            {
                                "name": "to",
                                "type": "address",
                                "value": "0x967b073201215cabbbc0f1c1f2b258683b495cb4"
                            },
                            {
                                "decimalAvailable": true,
                                "name": "tokenId",
                                "type": "uint256",
                                "value": "6,537"
                            }
                        ],
                        "signature": "Transfer(address,address,uint256)"
                    },
                    "id": 17,
                    "logData": "0x",
                    "logDecoded": true,
                    "operation": "EVENT",
                    "revert": false,
                    "status": true,
                    "topics": [
                        "0xddf252ad1be2c89b69c2b068fc378daa952ba7f163c4a11628f55a4df523b3ef",
                        "0x00000000000000000000000015790d15dbef2b53192ec6b6f38b6bc906b803f0",
                        "0x000000000000000000000000967b073201215cabbbc0f1c1f2b258683b495cb4",
                        "0x0000000000000000000000000000000000000000000000000000000000001989"
                    ]
                },
                "nodeType": 1
            },
            "18": {
                "event": {
                    "contract": "0x000000000000ad05ccc4f10045630fb830b95127",
                    "decodedLog": {
                        "name": "OrdersMatched",
                        "params": [
                            {
                                "name": "maker",
                                "type": "address",
                                "value": "0x967b073201215cabbbc0f1c1f2b258683b495cb4"
                            },
                            {
                                "name": "taker",
                                "type": "address",
                                "value": "0x15790d15dbef2b53192ec6b6f38b6bc906b803f0"
                            },
                            {
                                "name": "sell",
                                "type": "(address,uint8,address,address,uint256,uint256,address,uint256,uint256,uint256,(uint16,address)[],uint256,bytes)",
                                "value": [
                                    {
                                        "name": "trader",
                                        "type": "address",
                                        "value": "0x15790d15dbef2b53192ec6b6f38b6bc906b803f0"
                                    },
                                    {
                                        "name": "side",
                                        "type": "uint8",
                                        "value": "1"
                                    },
                                    {
                                        "name": "matchingPolicy",
                                        "type": "address",
                                        "value": "0x0000000000b92d5d043faf7cecf7e2ee6aaed232"
                                    },
                                    {
                                        "name": "collection",
                                        "type": "address",
                                        "value": "0x4b10701bfd7bfedc47d50562b76b436fbb5bdb3b"
                                    },
                                    {
                                        "name": "tokenId",
                                        "type": "uint256",
                                        "value": "6,537"
                                    },
                                    {
                                        "name": "amount",
                                        "type": "uint256",
                                        "value": "1"
                                    },
                                    {
                                        "name": "paymentToken",
                                        "type": "address",
                                        "value": "0x0000000000a39bb272e79075ade125fd351887ac"
                                    },
                                    {
                                        "name": "price",
                                        "type": "uint256",
                                        "value": "140,000,000,000,000,000"
                                    },
                                    {
                                        "name": "listingTime",
                                        "type": "uint256",
                                        "value": "1,672,896,603"
                                    },
                                    {
                                        "name": "expirationTime",
                                        "type": "uint256",
                                        "value": "1,674,290,311"
                                    },
                                    {
                                        "name": "fees",
                                        "type": "(uint16,address)[]",
                                        "value": []
                                    },
                                    {
                                        "name": "salt",
                                        "type": "uint256",
                                        "value": "38,998,721,227,594,667,672,065,863,471,103,800,230"
                                    },
                                    {
                                        "name": "extraParams",
                                        "type": "bytes",
                                        "value": "0x01"
                                    }
                                ]
                            },
                            {
                                "name": "sellHash",
                                "type": "bytes32",
                                "value": "0x055d5207e3703011fc3b0b966bd846fa040895534185e0a079f6ee2c8f86d56c"
                            },
                            {
                                "name": "buy",
                                "type": "(address,uint8,address,address,uint256,uint256,address,uint256,uint256,uint256,(uint16,address)[],uint256,bytes)",
                                "value": [
                                    {
                                        "name": "trader",
                                        "type": "address",
                                        "value": "0x967b073201215cabbbc0f1c1f2b258683b495cb4"
                                    },
                                    {
                                        "name": "side",
                                        "type": "uint8",
                                        "value": "0"
                                    },
                                    {
                                        "name": "matchingPolicy",
                                        "type": "address",
                                        "value": "0x0000000000b92d5d043faf7cecf7e2ee6aaed232"
                                    },
                                    {
                                        "name": "collection",
                                        "type": "address",
                                        "value": "0x4b10701bfd7bfedc47d50562b76b436fbb5bdb3b"
                                    },
                                    {
                                        "name": "tokenId",
                                        "type": "uint256",
                                        "value": "0"
                                    },
                                    {
                                        "name": "amount",
                                        "type": "uint256",
                                        "value": "1"
                                    },
                                    {
                                        "name": "paymentToken",
                                        "type": "address",
                                        "value": "0x0000000000a39bb272e79075ade125fd351887ac"
                                    },
                                    {
                                        "name": "price",
                                        "type": "uint256",
                                        "value": "140,000,000,000,000,000"
                                    },
                                    {
                                        "name": "listingTime",
                                        "type": "uint256",
                                        "value": "1,672,896,602"
                                    },
                                    {
                                        "name": "expirationTime",
                                        "type": "uint256",
                                        "value": "1,704,432,601"
                                    },
                                    {
                                        "name": "fees",
                                        "type": "(uint16,address)[]",
                                        "value": []
                                    },
                                    {
                                        "name": "salt",
                                        "type": "uint256",
                                        "value": "263,492,345,178,545,394,300,269,747,307,588,178,743"
                                    },
                                    {
                                        "name": "extraParams",
                                        "type": "bytes",
                                        "value": "0x01"
                                    }
                                ]
                            },
                            {
                                "name": "buyHash",
                                "type": "bytes32",
                                "value": "0xa17a3309feeff5d14023866ede373dc0cbac99c5d68aebd58779c0328e8f4740"
                            }
                        ],
                        "signature": "OrdersMatched(address,address,(address,uint8,address,address,uint256,uint256,address,uint256,uint256,uint256,(uint16,address)[],uint256,bytes),bytes32,(address,uint8,address,address,uint256,uint256,address,uint256,uint256,uint256,(uint16,address)[],uint256,bytes),bytes32)"
                    },
                    "id": 18,
                    "logData": "0x0000000000000000000000000000000000000000000000000000000000000080055d5207e3703011fc3b0b966bd846fa040895534185e0a079f6ee2c8f86d56c0000000000000000000000000000000000000000000000000000000000000280a17a3309feeff5d14023866ede373dc0cbac99c5d68aebd58779c0328e8f474000000000000000000000000015790d15dbef2b53192ec6b6f38b6bc906b803f000000000000000000000000000000000000000000000000000000000000000010000000000000000000000000000000000b92d5d043faf7cecf7e2ee6aaed2320000000000000000000000004b10701bfd7bfedc47d50562b76b436fbb5bdb3b000000000000000000000000000000000000000000000000000000000000198900000000000000000000000000000000000000000000000000000000000000010000000000000000000000000000000000a39bb272e79075ade125fd351887ac00000000000000000000000000000000000000000000000001f161421c8e00000000000000000000000000000000000000000000000000000000000063b6605b0000000000000000000000000000000000000000000000000000000063cba48700000000000000000000000000000000000000000000000000000000000001a0000000000000000000000000000000001d56e1687b2285471d4f24185a30f3a600000000000000000000000000000000000000000000000000000000000001c0000000000000000000000000000000000000000000000000000000000000000000000000000000000000000000000000000000000000000000000000000000010100000000000000000000000000000000000000000000000000000000000000000000000000000000000000967b073201215cabbbc0f1c1f2b258683b495cb400000000000000000000000000000000000000000000000000000000000000000000000000000000000000000000000000b92d5d043faf7cecf7e2ee6aaed2320000000000000000000000004b10701bfd7bfedc47d50562b76b436fbb5bdb3b000000000000000000000000000000000000000000000000000000000000000000000000000000000000000000000000000000000000000000000000000000010000000000000000000000000000000000a39bb272e79075ade125fd351887ac00000000000000000000000000000000000000000000000001f161421c8e00000000000000000000000000000000000000000000000000000000000063b6605a00000000000000000000000000000000000000000000000000000000659793d900000000000000000000000000000000000000000000000000000000000001a000000000000000000000000000000000c63ac79efb4efcce9b9554655c59533700000000000000000000000000000000000000000000000000000000000001c0000000000000000000000000000000000000000000000000000000000000000000000000000000000000000000000000000000000000000000000000000000010100000000000000000000000000000000000000000000000000000000000000",
                    "logDecoded": true,
                    "operation": "EVENT",
                    "revert": false,
                    "status": true,
                    "topics": [
                        "0x61cbb2a3dee0b6064c2e681aadd61677fb4ef319f0b547508d495626f5a62f64",
                        "0x000000000000000000000000967b073201215cabbbc0f1c1f2b258683b495cb4",
                        "0x00000000000000000000000015790d15dbef2b53192ec6b6f38b6bc906b803f0"
                    ]
                },
                "nodeType": 1
            },
            "2": {
                "invocation": {
                    "address": "0x0000000000000000000000000000000000000001",
                    "callData": "0x5028f70445b72fc9c00640b4fdab76b7edab4b554dce4d825673dd0b000000000000000000000000000000000000000000000000000000000000001cfafbf2ea3f0e7d23d6094286ec3478850622d3bbccf2c0abc0bcc23edcf4ef226f31df338357ea24017243f1dceddcf7dcae224419f9d001434f7c4261118a96",
                    "decodedMethod": {
                        "callParams": [
                            {
                                "name": "hash",
                                "type": "bytes32",
                                "value": "0x49e154ab5028f70445b72fc9c00640b4fdab76b7edab4b554dce4d825673dd0b"
                            },
                            {
                                "name": "v",
                                "type": "uint256",
                                "value": "28"
                            },
                            {
                                "name": "r",
                                "type": "bytes32",
                                "value": "0xfafbf2ea3f0e7d23d6094286ec3478850622d3bbccf2c0abc0bcc23edcf4ef22"
                            },
                            {
                                "name": "s",
                                "type": "bytes32",
                                "value": "0x6f31df338357ea24017243f1dceddcf7dcae224419f9d001434f7c4261118a96"
                            }
                        ],
                        "constructorArguments": "",
                        "name": "ecrecover",
                        "returnParams": [
                            {
                                "name": "",
                                "type": "address",
                                "value": "0xd44feab097e5fee7fd54c9481f56b806f7f3ddc1"
                            }
                        ],
                        "signature": "ecrecover(bytes32,uint256,bytes32,bytes32)"
                    },
                    "errorInfo": "",
                    "fromAddress": "0x000000000000ad05ccc4f10045630fb830b95127",
                    "gasUsed": 3000,
                    "id": 2,
                    "methodDecoded": true,
                    "operation": "STATICCALL",
                    "output": "0x000000000000000000000000d44feab097e5fee7fd54c9481f56b806f7f3ddc1",
                    "revert": false,
                    "revertMessage": "",
                    "selector": "0x49e154ab",
                    "status": true,
                    "value": "0"
                },
                "nodeType": 0
            },
            "3": {
                "invocation": {
                    "address": "0x0000000000000000000000000000000000000001",
                    "callData": "0xd811a0a333ac1362b9337a0945ed5acda3dd099feec2fcb328399b54000000000000000000000000000000000000000000000000000000000000001b7374c42234094aa7ce89187021470a6df43f76288546cac5666095ccffd9bafe1fdf50c733e9d7b6aa228cf81383753acc45330dba09517e69b169ecab2af0c5",
                    "decodedMethod": {
                        "callParams": [
                            {
                                "name": "hash",
                                "type": "bytes32",
                                "value": "0x62743453d811a0a333ac1362b9337a0945ed5acda3dd099feec2fcb328399b54"
                            },
                            {
                                "name": "v",
                                "type": "uint256",
                                "value": "27"
                            },
                            {
                                "name": "r",
                                "type": "bytes32",
                                "value": "0x7374c42234094aa7ce89187021470a6df43f76288546cac5666095ccffd9bafe"
                            },
                            {
                                "name": "s",
                                "type": "bytes32",
                                "value": "0x1fdf50c733e9d7b6aa228cf81383753acc45330dba09517e69b169ecab2af0c5"
                            }
                        ],
                        "constructorArguments": "",
                        "name": "ecrecover",
                        "returnParams": [
                            {
                                "name": "",
                                "type": "address",
                                "value": "0xd44feab097e5fee7fd54c9481f56b806f7f3ddc1"
                            }
                        ],
                        "signature": "ecrecover(bytes32,uint256,bytes32,bytes32)"
                    },
                    "errorInfo": "",
                    "fromAddress": "0x000000000000ad05ccc4f10045630fb830b95127",
                    "gasUsed": 3000,
                    "id": 3,
                    "methodDecoded": true,
                    "operation": "STATICCALL",
                    "output": "0x000000000000000000000000d44feab097e5fee7fd54c9481f56b806f7f3ddc1",
                    "revert": false,
                    "revertMessage": "",
                    "selector": "0x62743453",
                    "status": true,
                    "value": "0"
                },
                "nodeType": 0
            },
            "4": {
                "invocation": {
                    "address": "0x4c2bbdbeccae1c492c681158a46eae498a05627b",
                    "callData": "0xa17a3309feeff5d14023866ede373dc0cbac99c5d68aebd58779c0328e8f474000000000000000000000000000000000000000000000000000000000000000400000000000000000000000000000000000000000000000000000000000000002bda9b04c27946aedac527fe8c5df1319561ac4ef443329e0b80eb3a759e4e3e8a8d05a133ca75554ed8689fd9cd3b2104e0916a451c6986b1914dec08a8f2b28",
                    "decodedMethod": {
                        "callParams": [
                            {
                                "name": "leaf",
                                "type": "bytes32",
                                "value": "0xa17a3309feeff5d14023866ede373dc0cbac99c5d68aebd58779c0328e8f4740"
                            },
                            {
                                "name": "proof",
                                "type": "bytes32[]",
                                "value": [
                                    "0xbda9b04c27946aedac527fe8c5df1319561ac4ef443329e0b80eb3a759e4e3e8",
                                    "0xa8d05a133ca75554ed8689fd9cd3b2104e0916a451c6986b1914dec08a8f2b28"
                                ]
                            }
                        ],
                        "constructorArguments": "",
                        "name": "_computeRoot",
                        "returnParams": [
                            {
                                "name": "",
                                "type": "bytes32",
                                "value": "0xd46b8b20154d54051c36a7bbb60fccb1d228d372dd43cfc7088274fd11f27c71"
                            }
                        ],
                        "signature": "_computeRoot(bytes32,bytes32[])"
                    },
                    "errorInfo": "",
                    "fromAddress": "0x000000000000ad05ccc4f10045630fb830b95127",
                    "gasUsed": 1494,
                    "id": 4,
                    "methodDecoded": true,
                    "operation": "DELEGATECALL",
                    "output": "0xd46b8b20154d54051c36a7bbb60fccb1d228d372dd43cfc7088274fd11f27c71",
                    "revert": false,
                    "revertMessage": "",
                    "selector": "0x9c7bf938",
                    "status": true,
                    "value": "0"
                },
                "nodeType": 0
            },
            "5": {
                "invocation": {
                    "address": "0x0000000000000000000000000000000000000001",
                    "callData": "0x90a26b9e8cc76015e12d9ca2c7f675ae773fbc80ea3a2b08761253fb000000000000000000000000000000000000000000000000000000000000001b82f652318d34699571889804c4f19ac83ab3f371dcbc8647a95694845e7236b64f53c1b23a54bf1077e8628676171666d3e2e5bc9f7a8bc90b5fd0f8a7f89a22",
                    "decodedMethod": {
                        "callParams": [
                            {
                                "name": "hash",
                                "type": "bytes32",
                                "value": "0xe0419a4490a26b9e8cc76015e12d9ca2c7f675ae773fbc80ea3a2b08761253fb"
                            },
                            {
                                "name": "v",
                                "type": "uint256",
                                "value": "27"
                            },
                            {
                                "name": "r",
                                "type": "bytes32",
                                "value": "0x82f652318d34699571889804c4f19ac83ab3f371dcbc8647a95694845e7236b6"
                            },
                            {
                                "name": "s",
                                "type": "bytes32",
                                "value": "0x4f53c1b23a54bf1077e8628676171666d3e2e5bc9f7a8bc90b5fd0f8a7f89a22"
                            }
                        ],
                        "constructorArguments": "",
                        "name": "ecrecover",
                        "returnParams": [
                            {
                                "name": "",
                                "type": "address",
                                "value": "0x967b073201215cabbbc0f1c1f2b258683b495cb4"
                            }
                        ],
                        "signature": "ecrecover(bytes32,uint256,bytes32,bytes32)"
                    },
                    "errorInfo": "",
                    "fromAddress": "0x000000000000ad05ccc4f10045630fb830b95127",
                    "gasUsed": 3000,
                    "id": 5,
                    "methodDecoded": true,
                    "operation": "STATICCALL",
                    "output": "0x000000000000000000000000967b073201215cabbbc0f1c1f2b258683b495cb4",
                    "revert": false,
                    "revertMessage": "",
                    "selector": "0xe0419a44",
                    "status": true,
                    "value": "0"
                },
                "nodeType": 0
            },
            "6": {
                "invocation": {
                    "address": "0x3a35a3102b5c6bd1e4d3237248be071ef53c8331",
                    "callData": "0x0000000000000000000000000000000000b92d5d043faf7cecf7e2ee6aaed232",
                    "decodedMethod": {
                        "callParams": [
                            {
                                "name": "policy",
                                "type": "address",
                                "value": "0x0000000000b92d5d043faf7cecf7e2ee6aaed232"
                            }
                        ],
                        "constructorArguments": "",
                        "name": "isPolicyWhitelisted",
                        "returnParams": [
                            {
                                "name": "",
                                "type": "bool",
                                "value": true
                            }
                        ],
                        "signature": "isPolicyWhitelisted(address)"
                    },
                    "errorInfo": "",
                    "fromAddress": "0x000000000000ad05ccc4f10045630fb830b95127",
                    "gasUsed": 2666,
                    "id": 6,
                    "methodDecoded": true,
                    "operation": "STATICCALL",
                    "output": "0x0000000000000000000000000000000000000000000000000000000000000001",
                    "revert": false,
                    "revertMessage": "",
                    "selector": "0x874516cd",
                    "status": true,
                    "value": "0"
                },
                "nodeType": 0
            },
            "7": {
                "invocation": {
                    "address": "0x0000000000b92d5d043faf7cecf7e2ee6aaed232",
                    "callData": "0x00000000000000000000000000000000000000000000000000000000000000400000000000000000000000000000000000000000000000000000000000000240000000000000000000000000967b073201215cabbbc0f1c1f2b258683b495cb400000000000000000000000000000000000000000000000000000000000000000000000000000000000000000000000000b92d5d043faf7cecf7e2ee6aaed2320000000000000000000000004b10701bfd7bfedc47d50562b76b436fbb5bdb3b000000000000000000000000000000000000000000000000000000000000000000000000000000000000000000000000000000000000000000000000000000010000000000000000000000000000000000a39bb272e79075ade125fd351887ac00000000000000000000000000000000000000000000000001f161421c8e00000000000000000000000000000000000000000000000000000000000063b6605a00000000000000000000000000000000000000000000000000000000659793d900000000000000000000000000000000000000000000000000000000000001a000000000000000000000000000000000c63ac79efb4efcce9b9554655c59533700000000000000000000000000000000000000000000000000000000000001c000000000000000000000000000000000000000000000000000000000000000000000000000000000000000000000000000000000000000000000000000000001010000000000000000000000000000000000000000000000000000000000000000000000000000000000000015790d15dbef2b53192ec6b6f38b6bc906b803f000000000000000000000000000000000000000000000000000000000000000010000000000000000000000000000000000b92d5d043faf7cecf7e2ee6aaed2320000000000000000000000004b10701bfd7bfedc47d50562b76b436fbb5bdb3b000000000000000000000000000000000000000000000000000000000000198900000000000000000000000000000000000000000000000000000000000000010000000000000000000000000000000000a39bb272e79075ade125fd351887ac00000000000000000000000000000000000000000000000001f161421c8e00000000000000000000000000000000000000000000000000000000000063b6605b0000000000000000000000000000000000000000000000000000000063cba48700000000000000000000000000000000000000000000000000000000000001a0000000000000000000000000000000001d56e1687b2285471d4f24185a30f3a600000000000000000000000000000000000000000000000000000000000001c0000000000000000000000000000000000000000000000000000000000000000000000000000000000000000000000000000000000000000000000000000000010100000000000000000000000000000000000000000000000000000000000000",
                    "decodedMethod": {
                        "callParams": [
                            {
                                "name": "makerBid",
                                "type": "(address,uint8,address,address,uint256,uint256,address,uint256,uint256,uint256,(uint16,address)[],uint256,bytes)",
                                "value": [
                                    {
                                        "name": "trader",
                                        "type": "address",
                                        "value": "0x967b073201215cabbbc0f1c1f2b258683b495cb4"
                                    },
                                    {
                                        "name": "side",
                                        "type": "uint8",
                                        "value": "0"
                                    },
                                    {
                                        "name": "matchingPolicy",
                                        "type": "address",
                                        "value": "0x0000000000b92d5d043faf7cecf7e2ee6aaed232"
                                    },
                                    {
                                        "name": "collection",
                                        "type": "address",
                                        "value": "0x4b10701bfd7bfedc47d50562b76b436fbb5bdb3b"
                                    },
                                    {
                                        "name": "tokenId",
                                        "type": "uint256",
                                        "value": "0"
                                    },
                                    {
                                        "name": "amount",
                                        "type": "uint256",
                                        "value": "1"
                                    },
                                    {
                                        "name": "paymentToken",
                                        "type": "address",
                                        "value": "0x0000000000a39bb272e79075ade125fd351887ac"
                                    },
                                    {
                                        "name": "price",
                                        "type": "uint256",
                                        "value": "140,000,000,000,000,000"
                                    },
                                    {
                                        "name": "listingTime",
                                        "type": "uint256",
                                        "value": "1,672,896,602"
                                    },
                                    {
                                        "name": "expirationTime",
                                        "type": "uint256",
                                        "value": "1,704,432,601"
                                    },
                                    {
                                        "name": "fees",
                                        "type": "(uint16,address)[]",
                                        "value": []
                                    },
                                    {
                                        "name": "salt",
                                        "type": "uint256",
                                        "value": "263,492,345,178,545,394,300,269,747,307,588,178,743"
                                    },
                                    {
                                        "name": "extraParams",
                                        "type": "bytes",
                                        "value": "0x01"
                                    }
                                ]
                            },
                            {
                                "name": "takerAsk",
                                "type": "(address,uint8,address,address,uint256,uint256,address,uint256,uint256,uint256,(uint16,address)[],uint256,bytes)",
                                "value": [
                                    {
                                        "name": "trader",
                                        "type": "address",
                                        "value": "0x15790d15dbef2b53192ec6b6f38b6bc906b803f0"
                                    },
                                    {
                                        "name": "side",
                                        "type": "uint8",
                                        "value": "1"
                                    },
                                    {
                                        "name": "matchingPolicy",
                                        "type": "address",
                                        "value": "0x0000000000b92d5d043faf7cecf7e2ee6aaed232"
                                    },
                                    {
                                        "name": "collection",
                                        "type": "address",
                                        "value": "0x4b10701bfd7bfedc47d50562b76b436fbb5bdb3b"
                                    },
                                    {
                                        "name": "tokenId",
                                        "type": "uint256",
                                        "value": "6,537"
                                    },
                                    {
                                        "name": "amount",
                                        "type": "uint256",
                                        "value": "1"
                                    },
                                    {
                                        "name": "paymentToken",
                                        "type": "address",
                                        "value": "0x0000000000a39bb272e79075ade125fd351887ac"
                                    },
                                    {
                                        "name": "price",
                                        "type": "uint256",
                                        "value": "140,000,000,000,000,000"
                                    },
                                    {
                                        "name": "listingTime",
                                        "type": "uint256",
                                        "value": "1,672,896,603"
                                    },
                                    {
                                        "name": "expirationTime",
                                        "type": "uint256",
                                        "value": "1,674,290,311"
                                    },
                                    {
                                        "name": "fees",
                                        "type": "(uint16,address)[]",
                                        "value": []
                                    },
                                    {
                                        "name": "salt",
                                        "type": "uint256",
                                        "value": "38,998,721,227,594,667,672,065,863,471,103,800,230"
                                    },
                                    {
                                        "name": "extraParams",
                                        "type": "bytes",
                                        "value": "0x01"
                                    }
                                ]
                            }
                        ],
                        "constructorArguments": "",
                        "name": "canMatchMakerBid",
                        "returnParams": [
                            {
                                "name": "",
                                "type": "bool",
                                "value": true
                            },
                            {
                                "name": "",
                                "type": "uint256",
                                "value": "140,000,000,000,000,000"
                            },
                            {
                                "name": "",
                                "type": "uint256",
                                "value": "6,537"
                            },
                            {
                                "name": "",
                                "type": "uint256",
                                "value": "1"
                            },
                            {
                                "name": "",
                                "type": "uint8",
                                "value": "0"
                            }
                        ],
                        "signature": "canMatchMakerBid((address,uint8,address,address,uint256,uint256,address,uint256,uint256,uint256,(uint16,address)[],uint256,bytes),(address,uint8,address,address,uint256,uint256,address,uint256,uint256,uint256,(uint16,address)[],uint256,bytes))"
                    },
                    "errorInfo": "",
                    "fromAddress": "0x000000000000ad05ccc4f10045630fb830b95127",
                    "gasUsed": 3170,
                    "id": 7,
                    "methodDecoded": true,
                    "operation": "STATICCALL",
                    "output": "0x000000000000000000000000000000000000000000000000000000000000000100000000000000000000000000000000000000000000000001f161421c8e0000000000000000000000000000000000000000000000000000000000000000198900000000000000000000000000000000000000000000000000000000000000010000000000000000000000000000000000000000000000000000000000000000",
                    "revert": false,
                    "revertMessage": "",
                    "selector": "0x0813a766",
                    "status": true,
                    "value": "0"
                },
                "nodeType": 0
            },
            "8": {
                "invocation": {
                    "address": "0x0000000000a39bb272e79075ade125fd351887ac",
                    "callData": "0x000000000000000000000000967b073201215cabbbc0f1c1f2b258683b495cb400000000000000000000000015790d15dbef2b53192ec6b6f38b6bc906b803f000000000000000000000000000000000000000000000000001f161421c8e0000",
                    "decodedMethod": {
                        "callParams": [
                            {
                                "name": "from",
                                "type": "address",
                                "value": "0x967b073201215cabbbc0f1c1f2b258683b495cb4"
                            },
                            {
                                "name": "to",
                                "type": "address",
                                "value": "0x15790d15dbef2b53192ec6b6f38b6bc906b803f0"
                            },
                            {
                                "decimalAvailable": true,
                                "name": "amount",
                                "type": "uint256",
                                "value": "140,000,000,000,000,000"
                            }
                        ],
                        "constructorArguments": "",
                        "name": "transferFrom",
                        "returnParams": [
                            {
                                "name": "",
                                "type": "bool",
                                "value": true
                            }
                        ],
                        "signature": "transferFrom(address,address,uint256)"
                    },
                    "errorInfo": "",
                    "fromAddress": "0x000000000000ad05ccc4f10045630fb830b95127",
                    "gasUsed": 18049,
                    "id": 8,
                    "methodDecoded": true,
                    "operation": "CALL",
                    "output": "0x0000000000000000000000000000000000000000000000000000000000000001",
                    "revert": false,
                    "revertMessage": "",
                    "selector": "0x23b872dd",
                    "status": true,
                    "value": "0"
                },
                "nodeType": 0
            },
            "9": {
                "invocation": {
                    "address": "0x17584a148d27ac5d06d87771464dacbaf625ce45",
                    "callData": "0x000000000000000000000000967b073201215cabbbc0f1c1f2b258683b495cb400000000000000000000000015790d15dbef2b53192ec6b6f38b6bc906b803f000000000000000000000000000000000000000000000000001f161421c8e0000",
                    "decodedMethod": {
                        "callParams": [
                            {
                                "name": "from",
                                "type": "address",
                                "value": "0x967b073201215cabbbc0f1c1f2b258683b495cb4"
                            },
                            {
                                "name": "to",
                                "type": "address",
                                "value": "0x15790d15dbef2b53192ec6b6f38b6bc906b803f0"
                            },
                            {
                                "decimalAvailable": true,
                                "name": "amount",
                                "type": "uint256",
                                "value": "140,000,000,000,000,000"
                            }
                        ],
                        "constructorArguments": "",
                        "name": "transferFrom",
                        "returnParams": [
                            {
                                "name": "",
                                "type": "bool",
                                "value": true
                            }
                        ],
                        "signature": "transferFrom(address,address,uint256)"
                    },
                    "errorInfo": "",
                    "fromAddress": "0x0000000000a39bb272e79075ade125fd351887ac",
                    "gasUsed": 13154,
                    "id": 9,
                    "methodDecoded": true,
                    "operation": "DELEGATECALL",
                    "output": "0x0000000000000000000000000000000000000000000000000000000000000001",
                    "revert": false,
                    "revertMessage": "",
                    "selector": "0x23b872dd",
                    "status": true,
                    "value": "0"
                },
                "nodeType": 0
            }
        },
        "gasFlame": [
            {
                "children": [
                    {
                        "children": [
                            {
                                "children": [],
                                "depth": 0,
                                "name": "Initial Gas",
                                "value": 34696
                            },
                            {
                                "children": [
                                    {
                                        "children": [
                                            {
                                                "children": [],
                                                "depth": 2,
                                                "name": "ecrecover",
                                                "value": 3000
                                            },
                                            {
                                                "children": [],
                                                "depth": 2,
                                                "name": "ecrecover",
                                                "value": 3000
                                            },
                                            {
                                                "children": [],
                                                "depth": 2,
                                                "name": "_computeRoot",
                                                "value": 1494
                                            },
                                            {
                                                "children": [],
                                                "depth": 2,
                                                "name": "ecrecover",
                                                "value": 3000
                                            },
                                            {
                                                "children": [],
                                                "depth": 2,
                                                "name": "isPolicyWhitelisted",
                                                "value": 2666
                                            },
                                            {
                                                "children": [],
                                                "depth": 2,
                                                "name": "canMatchMakerBid",
                                                "value": 3170
                                            },
                                            {
                                                "children": [
                                                    {
                                                        "children": [],
                                                        "depth": 3,
                                                        "name": "transferFrom",
                                                        "value": 13154
                                                    }
                                                ],
                                                "depth": 2,
                                                "name": "transferFrom",
                                                "value": 18049
                                            },
                                            {
                                                "children": [
                                                    {
                                                        "children": [
                                                            {
                                                                "children": [],
                                                                "depth": 4,
                                                                "name": "proxies",
                                                                "value": 2782
                                                            }
                                                        ],
                                                        "depth": 3,
                                                        "name": "safeTransferFrom",
                                                        "value": 156283
                                                    }
                                                ],
                                                "depth": 2,
                                                "name": "transferERC721",
                                                "value": 164204
                                            }
                                        ],
                                        "depth": 1,
                                        "name": "execute",
                                        "value": 363798
                                    }
                                ],
                                "depth": 0,
                                "name": "Executed Gas",
                                "value": 369039
                            }
                        ],
                        "depth": -1,
                        "name": "Actual Gas Used",
                        "value": 354335
                    },
                    {
                        "children": [],
                        "depth": -1,
                        "name": "Refunded Gas",
                        "value": 49400
                    }
                ],
                "depth": -2,
                "name": "Total Gas",
                "value": 403735
            }
        ],
        "isConfirmed": true,
        "mainTrace": [
            {
                "children": [
                    {
                        "children": [
                            {
                                "children": [
                                    {
                                        "children": [],
                                        "depth": 2,
                                        "id": 2,
                                        "order": 2
                                    },
                                    {
                                        "children": [],
                                        "depth": 2,
                                        "id": 3,
                                        "order": 3
                                    },
                                    {
                                        "children": [],
                                        "depth": 2,
                                        "id": 4,
                                        "order": 4
                                    },
                                    {
                                        "children": [],
                                        "depth": 2,
                                        "id": 5,
                                        "order": 5
                                    },
                                    {
                                        "children": [],
                                        "depth": 2,
                                        "id": 6,
                                        "order": 6
                                    },
                                    {
                                        "children": [],
                                        "depth": 2,
                                        "id": 7,
                                        "order": 7
                                    },
                                    {
                                        "children": [
                                            {
                                                "children": [
                                                    {
                                                        "children": [],
                                                        "depth": 4,
                                                        "id": 10,
                                                        "order": 10
                                                    }
                                                ],
                                                "depth": 3,
                                                "id": 9,
                                                "order": 9
                                            }
                                        ],
                                        "depth": 2,
                                        "id": 8,
                                        "order": 8
                                    },
                                    {
                                        "children": [
                                            {
                                                "children": [
                                                    {
                                                        "children": [],
                                                        "depth": 4,
                                                        "id": 13,
                                                        "order": 13
                                                    },
                                                    {
                                                        "children": [],
                                                        "depth": 4,
                                                        "id": 14,
                                                        "order": 14
                                                    },
                                                    {
                                                        "children": [],
                                                        "depth": 4,
                                                        "id": 15,
                                                        "order": 15
                                                    },
                                                    {
                                                        "children": [],
                                                        "depth": 4,
                                                        "id": 16,
                                                        "order": 16
                                                    },
                                                    {
                                                        "children": [],
                                                        "depth": 4,
                                                        "id": 17,
                                                        "order": 17
                                                    }
                                                ],
                                                "depth": 3,
                                                "id": 12,
                                                "order": 12
                                            }
                                        ],
                                        "depth": 2,
                                        "id": 11,
                                        "order": 11
                                    },
                                    {
                                        "children": [],
                                        "depth": 2,
                                        "id": 18,
                                        "order": 18
                                    }
                                ],
                                "depth": 1,
                                "id": 1,
                                "order": 1
                            }
                        ],
                        "depth": 0,
                        "id": 0,
                        "order": 0
                    }
                ],
                "depth": -1,
                "id": -1,
                "order": -1
            }
        ],
        "mainTraceNodeCount": 19,
        "parentIdMap": {
            "0": -1,
            "1": 0,
            "10": 9,
            "11": 1,
            "12": 11,
            "13": 12,
            "14": 12,
            "15": 12,
            "16": 12,
            "17": 12,
            "18": 1,
            "2": 1,
            "3": 1,
            "4": 1,
            "5": 1,
            "6": 1,
            "7": 1,
            "8": 1,
            "9": 8
        },
        "tidyTrace": [
            {
                "children": [
                    {
                        "children": [
                            {
                                "children": [
                                    {
                                        "children": [],
                                        "depth": 2,
                                        "id": 4,
                                        "order": 4
                                    },
                                    {
                                        "children": [
                                            {
                                                "children": [
                                                    {
                                                        "children": [],
                                                        "depth": 4,
                                                        "id": 10,
                                                        "order": 10
                                                    }
                                                ],
                                                "depth": 3,
                                                "id": 9,
                                                "order": 9
                                            }
                                        ],
                                        "depth": 2,
                                        "id": 8,
                                        "order": 8
                                    },
                                    {
                                        "children": [
                                            {
                                                "children": [
                                                    {
                                                        "children": [],
                                                        "depth": 4,
                                                        "id": 14,
                                                        "order": 14
                                                    },
                                                    {
                                                        "children": [],
                                                        "depth": 4,
                                                        "id": 15,
                                                        "order": 15
                                                    },
                                                    {
                                                        "children": [],
                                                        "depth": 4,
                                                        "id": 16,
                                                        "order": 16
                                                    },
                                                    {
                                                        "children": [],
                                                        "depth": 4,
                                                        "id": 17,
                                                        "order": 17
                                                    }
                                                ],
                                                "depth": 3,
                                                "id": 12,
                                                "order": 12
                                            }
                                        ],
                                        "depth": 2,
                                        "id": 11,
                                        "order": 11
                                    },
                                    {
                                        "children": [],
                                        "depth": 2,
                                        "id": 18,
                                        "order": 18
                                    }
                                ],
                                "depth": 1,
                                "id": 1,
                                "order": 1
                            }
                        ],
                        "depth": 0,
                        "id": 0,
                        "order": 0
                    }
                ],
                "depth": -1,
                "id": -1,
                "order": -1
            }
        ],
        "tidyTraceNodeCount": 13
    },
    "state_change": {
        "stateChanges": [
            {
                "address": "0x000000000000ad05ccc4f10045630fb830b95127",
                "erc": "",
                "slots": [
                    {
                        "current": "0x0000000000000000000000000000000000000000000000000000000000000001",
                        "key": "0xf96bc9e0dbaa7ca172a59d5bd21537be8e637130b4fa0073fc7d619621bd24b2",
                        "prev": "0x0000000000000000000000000000000000000000000000000000000000000000"
                    },
                    {
                        "current": "0x0000000000000000000000000000000000000000000000000000000000000001",
                        "key": "0x22c23bd5e8777b13f7b3a59bab2652647c9269c8a5e19b4e99223daed932e442",
                        "prev": "0x0000000000000000000000000000000000000000000000000000000000000000"
                    }
                ],
                "storageVariables": [
                    {
                        "name": "cancelledOrFilled",
                        "type": "mapping(bytes32 => bool)",
                        "value": {
                            "pairs": [
                                {
                                    "key": "0x055d5207e3703011fc3b0b966bd846fa040895534185e0a079f6ee2c8f86d56c",
                                    "value": {
                                        "current": "true",
                                        "prev": "false",
                                        "typeTag": 1
                                    }
                                },
                                {
                                    "key": "0xa17a3309feeff5d14023866ede373dc0cbac99c5d68aebd58779c0328e8f4740",
                                    "value": {
                                        "current": "true",
                                        "prev": "false",
                                        "typeTag": 1
                                    }
                                }
                            ],
                            "typeTag": 4
                        }
                    }
                ]
            },
            {
                "address": "0x0000000000a39bb272e79075ade125fd351887ac",
                "erc": "",
                "slots": [
                    {
                        "current": "0x000000000000000000000000000000000000000000000000654ecf52ac5a0000",
                        "key": "0x866d0a4253ee3b9b960900738589b97bb6434e6b96ee76641a4108c47c6153e4",
                        "prev": "0x00000000000000000000000000000000000000000000000067403094c8e80000"
                    },
                    {
                        "current": "0x0000000000000000000000000000000000000000000000000280bb5e953de000",
                        "key": "0x64f5efcc53ba4f044865305aae5f4c89526b32d1fadf5bac56b60af091a6ae61",
                        "prev": "0x000000000000000000000000000000000000000000000000008f5a1c78afe000"
                    }
                ],
                "storageVariables": [
                    {
                        "name": "_balances",
                        "type": "mapping(address => uint256)",
                        "value": {
                            "pairs": [
                                {
                                    "key": "0x15790d15dbef2b53192ec6b6f38b6bc906b803f0",
                                    "value": {
                                        "current": "180350000000000000",
                                        "prev": "40350000000000000",
                                        "typeTag": 1
                                    }
                                },
                                {
                                    "key": "0x967b073201215cabbbc0f1c1f2b258683b495cb4",
                                    "value": {
                                        "current": "7300000000000000000",
                                        "prev": "7440000000000000000",
                                        "typeTag": 1
                                    }
                                }
                            ],
                            "typeTag": 4
                        }
                    }
                ]
            },
            {
                "address": "0x4b10701bfd7bfedc47d50562b76b436fbb5bdb3b",
                "erc": "ERC-721",
                "slots": [
                    {
                        "current": "0x0000000000000000000000000000000000000000000000000000000000001989",
                        "key": "0xf6678476bd6aeb2b7a5265c17c8c368896bc91e7994fd943ecd626bd6cc0c84f",
                        "prev": "0x0000000000000000000000000000000000000000000000000000000000000000"
                    },
                    {
                        "current": "0x0000000000000000000000000000000000000000000000000000000000000008",
                        "key": "0x7b2fb45261f2c48da30005b70aa450a395d9c2bc0ce77ede186e8e353a675bbb",
                        "prev": "0x0000000000000000000000000000000000000000000000000000000000000007"
                    },
                    {
                        "current": "0x0000000000000000000000000000000000000000000000000000000000000019",
                        "key": "0x7f4643002dee5e80a2af75282ec0178d72a28f491775b6111938d7f6565f47f5",
                        "prev": "0x0000000000000000000000000000000000000000000000000000000000000000"
                    },
                    {
                        "current": "0x0000000000000000000000000000000000000000000000000000000000fb1065",
                        "key": "0x54a8ed9d74bd43844a4bab9a3d48d1ac035c0b4935299afdef5406c49e327883",
                        "prev": "0x0000000000000000000000000000000000000000000000000000000000000000"
                    },
                    {
                        "current": "0x0000000000000000000000000000000000000000000000000000001a00fb1065",
                        "key": "0xcd0f1efa5618c1675eef9843427473af2ac666b8d0e5b48745ac3d6929a8a70d",
                        "prev": "0x0000000000000000000000000000000000000000000000000000000000000000"
                    },
                    {
                        "current": "0x0000000000000000000000000000000000000000000000000000000000000000",
                        "key": "0x44ad8a299f38aa115804e518a1e6fe394581cd9a93f29f93ead1455cb23d5cc5",
                        "prev": "0x0000000000000000000000000000000000000000000000000000000000001989"
                    },
                    {
                        "current": "0x0000000000000000000000000000000000000000000000000000000000000000",
                        "key": "0x833870aa11277438bd2cb120da00601ee775dd9b1ea4b1759ff98157ea9d82c9",
                        "prev": "0x0000000000000000000000000000000000000000000000000000000000000001"
                    },
                    {
                        "current": "0x000000000000000000000000000000000000000000000000000000000000001a",
                        "key": "0x6f6af76e042a21d390729bbea2a7df21a5ee409b4d349345f9602fed02b9927e",
                        "prev": "0x0000000000000000000000000000000000000000000000000000000000000019"
                    },
                    {
                        "current": "0x000000000000000000000000967b073201215cabbbc0f1c1f2b258683b495cb4",
                        "key": "0x6236bb4f84b8b932b84cb5fd04243829391cc74c514e3a865cc38d4b4fa5f56b",
                        "prev": "0x00000000000000000000000015790d15dbef2b53192ec6b6f38b6bc906b803f0"
                    },
                    {
                        "current": "0x0000000000000000000000000000000000000000000000000000000000000088",
                        "key": "0x4d71b9fe0260be0e0546c2312951e7ac578dfadd405541bdcbc894122e79c3d1",
                        "prev": "0x0000000000000000000000000000000000000000000000000000000000000087"
                    }
                ],
                "storageVariables": [
                    {
                        "name": "_owners",
                        "type": "mapping(uint256 => address)",
                        "value": {
                            "pairs": [
                                {
                                    "key": "6537",
                                    "value": {
                                        "current": "0x967b073201215cabbbc0f1c1f2b258683b495cb4",
                                        "prev": "0x15790d15dbef2b53192ec6b6f38b6bc906b803f0",
                                        "typeTag": 1
                                    }
                                }
                            ],
                            "typeTag": 4
                        }
                    },
                    {
                        "name": "numCheckpoints",
                        "type": "mapping(address => uint32)",
                        "value": {
                            "pairs": [
                                {
                                    "key": "0x15790d15dbef2b53192ec6b6f38b6bc906b803f0",
                                    "value": {
                                        "current": "8",
                                        "prev": "7",
                                        "typeTag": 1
                                    }
                                },
                                {
                                    "key": "0x967b073201215cabbbc0f1c1f2b258683b495cb4",
                                    "value": {
                                        "current": "136",
                                        "prev": "135",
                                        "typeTag": 1
                                    }
                                }
                            ],
                            "typeTag": 4
                        }
                    },
                    {
                        "name": "_ownedTokensIndex",
                        "type": "mapping(uint256 => uint256)",
                        "value": {
                            "pairs": [
                                {
                                    "key": "6537",
                                    "value": {
                                        "current": "25",
                                        "prev": "0",
                                        "typeTag": 1
                                    }
                                }
                            ],
                            "typeTag": 4
                        }
                    },
                    {
                        "name": "_balances",
                        "type": "mapping(address => uint256)",
                        "value": {
                            "pairs": [
                                {
                                    "key": "0x15790d15dbef2b53192ec6b6f38b6bc906b803f0",
                                    "value": {
                                        "current": "0",
                                        "prev": "1",
                                        "typeTag": 1
                                    }
                                },
                                {
                                    "key": "0x967b073201215cabbbc0f1c1f2b258683b495cb4",
                                    "value": {
                                        "current": "26",
                                        "prev": "25",
                                        "typeTag": 1
                                    }
                                }
                            ],
                            "typeTag": 4
                        }
                    },
                    {
                        "name": "_ownedTokens",
                        "type": "mapping(address => mapping(uint256 => uint256))",
                        "value": {
                            "pairs": [
                                {
                                    "key": "0x15790d15dbef2b53192ec6b6f38b6bc906b803f0",
                                    "value": {
                                        "pairs": [
                                            {
                                                "key": "0",
                                                "value": {
                                                    "current": "0",
                                                    "prev": "6537",
                                                    "typeTag": 1
                                                }
                                            }
                                        ],
                                        "typeTag": 4
                                    }
                                },
                                {
                                    "key": "0x967b073201215cabbbc0f1c1f2b258683b495cb4",
                                    "value": {
                                        "pairs": [
                                            {
                                                "key": "25",
                                                "value": {
                                                    "current": "6537",
                                                    "prev": "0",
                                                    "typeTag": 1
                                                }
                                            }
                                        ],
                                        "typeTag": 4
                                    }
                                }
                            ],
                            "typeTag": 4
                        }
                    },
                    {
                        "name": "checkpoints",
                        "type": "mapping(address => mapping(uint32 => struct ERC721Checkpointable.Checkpoint))",
                        "value": {
                            "pairs": [
                                {
                                    "key": "0x15790d15dbef2b53192ec6b6f38b6bc906b803f0",
                                    "value": {
                                        "pairs": [
                                            {
                                                "key": "7",
                                                "value": {
                                                    "fields": [
                                                        {
                                                            "name": "fromBlock",
                                                            "type": "uint32",
                                                            "value": {
                                                                "current": "16453733",
                                                                "prev": "0",
                                                                "typeTag": 1
                                                            }
                                                        },
                                                        {
                                                            "name": "votes",
                                                            "type": "uint96",
                                                            "value": {
                                                                "current": "0",
                                                                "prev": "0",
                                                                "typeTag": 1
                                                            }
                                                        }
                                                    ],
                                                    "typeTag": 3
                                                }
                                            }
                                        ],
                                        "typeTag": 4
                                    }
                                },
                                {
                                    "key": "0x967b073201215cabbbc0f1c1f2b258683b495cb4",
                                    "value": {
                                        "pairs": [
                                            {
                                                "key": "135",
                                                "value": {
                                                    "fields": [
                                                        {
                                                            "name": "fromBlock",
                                                            "type": "uint32",
                                                            "value": {
                                                                "current": "16453733",
                                                                "prev": "0",
                                                                "typeTag": 1
                                                            }
                                                        },
                                                        {
                                                            "name": "votes",
                                                            "type": "uint96",
                                                            "value": {
                                                                "current": "26",
                                                                "prev": "0",
                                                                "typeTag": 1
                                                            }
                                                        }
                                                    ],
                                                    "typeTag": 3
                                                }
                                            }
                                        ],
                                        "typeTag": 4
                                    }
                                }
                            ],
                            "typeTag": 4
                        }
                    }
                ]
            }
        ]
    }
}