{
    "balance_change": {
        "balanceChanges": [
            {
                "account": "0xd194a1be4c606bb75d2d6d2a2237e07163a1be0e",
                "assets": [
                    {
                        "address": "0x491c9a23db85623eed455a8efdd6aba9b911c5df",
                        "amount": "10",
                        "iconUrl": "https://assets.blocksec.com/icon/94e09234b7b439f75f326d9e6d1c0a1a28975e1df68714187c3ffba495d11586.png",
                        "isERC1155": false,
                        "isERC721": false,
                        "sign": false,
                        "value": ""
                    }
                ]
            },
            {
                "account": "0x09f362339ec850ae23e49283804901c3d306d34a",
                "assets": [
                    {
                        "address": "0x491c9a23db85623eed455a8efdd6aba9b911c5df",
                        "amount": "10",
                        "iconUrl": "https://assets.blocksec.com/icon/94e09234b7b439f75f326d9e6d1c0a1a28975e1df68714187c3ffba495d11586.png",
                        "isERC1155": false,
                        "isERC721": false,
                        "sign": true,
                        "value": ""
                    }
                ]
            }
        ]
    },
    "profile": {
        "basic_info": {
            "baseFee": "",
            "blockNumber": 5676151,
            "callData": "0xa9059cbb00000000000000000000000009f362339ec850ae23e49283804901c3d306d34a0000000000000000000000000000000000000000000000008ac7230489e80000",
            "debugEnable": true,
            "errorInfo": "",
            "eventCount": 1,
            "feeRecipient": "0x5a0b54d5dc17e0aadc383d2db43b0a0d3e029c4c",
            "formatValue": "0",
            "gasLimit": 60000,
            "gasPrice": "4",
            "gasUsed": 21998,
            "intTxnCount": 0,
            "internalRevert": false,
            "internalRevertMessage": "",
            "isContractCreation": false,
            "isFlashloan": false,
            "maxFee": "",
            "nonce": 9,
            "overwritedBlockNumber": -1,
            "priorityFee": "",
            "receiver": "0x491c9a23db85623eed455a8efdd6aba9b911c5df",
            "revertMessage": "",
            "sender": "0xd194a1be4c606bb75d2d6d2a2237e07163a1be0e",
            "simulationEnable": true,
            "sourceTxnHash": "0xcab0c817798f715a4c950fc832a1b54f7f74276087592650afae6541f583a54d",
            "status": true,
            "timestamp": "2018-05-25T20:21:51Z",
            "transactionFee": "0.000087992",
            "txnHash": "0xcab0c817798f715a4c950fc832a1b54f7f74276087592650afae6541f583a54d",
            "txnIndex": 133,
            "type": 0,
            "value": "0"
        },
        "fund_flow": [
            {
                "amount": "10",
                "from": "0xd194a1be4c606bb75d2d6d2a2237e07163a1be0e",
                "id": 1,
                "isERC1155": false,
                "isERC721": false,
                "isReverted": false,
                "order": 1,
                "to": "0x09f362339ec850ae23e49283804901c3d306d34a",
                "token": "0x491c9a23db85623eed455a8efdd6aba9b911c5df"
            }
        ],
        "token_infos": [
            {
                "address": "0x491c9a23db85623eed455a8efdd6aba9b911c5df",
                "decimals": 18
            },
            {
                "address": "0xc02aaa39b223fe8d0a0e5c4f27ead9083c756cc2",
                "decimals": 18
            },
            {
                "address": "0xeeeeeeeeeeeeeeeeeeeeeeeeeeeeeeeeeeeeeeee",
                "decimals": 18
            }
        ]
    },
    "address_label": {
        "labels": [
            {
                "address": "0xeeeeeeeeeeeeeeeeeeeeeeeeeeeeeeeeeeeeeeee",
                "label": "Ether"
            },
            {
                "address": "0x491c9a23db85623eed455a8efdd6aba9b911c5df",
                "label": "HeroNode: HER Token"
            },
            {
                "address": "0x0000000000000000000000000000000000000001",
                "label": "Precompiled"
            },
            {
                "address": "0x0000000000000000000000000000000000000002",
                "label": "Precompiled"
            },
            {
                "address": "0x0000000000000000000000000000000000000003",
                "label": "Precompiled"
            },
            {
                "address": "0x0000000000000000000000000000000000000004",
                "label": "Precompiled"
            }
        ]
    },
    "trace": {
        "accountLabels": null,
        "dataMap": {
            "-1": {
                "invocation": {
                    "address": "0xd194a1be4c606bb75d2d6d2a2237e07163a1be0e",
                    "callData": "",
                    "decodedMethod": null,
                    "errorInfo": "",
                    "fromAddress": "",
                    "gasUsed": 0,
                    "id": -1,
                    "methodDecoded": false,
                    "operation": "",
                    "output": "",
                    "revert": false,
                    "revertMessage": "",
                    "selector": "",
                    "status": false,
                    "value": ""
                },
                "nodeType": 0
            },
            "0": {
                "invocation": {
                    "address": "0x491c9a23db85623eed455a8efdd6aba9b911c5df",
                    "callData": "0x00000000000000000000000009f362339ec850ae23e49283804901c3d306d34a0000000000000000000000000000000000000000000000008ac7230489e80000",
                    "decodedMethod": {
                        "callParams": [
                            {
                                "name": "_to",
                                "type": "address",
                                "value": "0x09f362339ec850ae23e49283804901c3d306d34a"
                            },
                            {
                                "decimalAvailable": true,
                                "name": "_value",
                                "type": "uint256",
                                "value": "10,000,000,000,000,000,000"
                            }
                        ],
                        "constructorArguments": "",
                        "name": "transfer",
                        "returnParams": [
                            {
                                "name": "",
                                "type": "bool",
                                "value": true
                            }
                        ],
                        "signature": "transfer(address,uint256)"
                    },
                    "errorInfo": "",
                    "fromAddress": "0xd194a1be4c606bb75d2d6d2a2237e07163a1be0e",
                    "gasUsed": 21998,
                    "id": 0,
                    "methodDecoded": true,
                    "operation": "CALL",
                    "output": "0x0000000000000000000000000000000000000000000000000000000000000001",
                    "revert": false,
                    "revertMessage": "",
                    "selector": "0xa9059cbb",
                    "status": true,
                    "value": "0"
                },
                "nodeType": 0
            },
            "1": {
                "event": {
                    "contract": "0x491c9a23db85623eed455a8efdd6aba9b911c5df",
                    "decodedLog": {
                        "name": "Transfer",
                        "params": [
                            {
                                "name": "from",
                                "type": "address",
                                "value": "0xd194a1be4c606bb75d2d6d2a2237e07163a1be0e"
                            },
                            {
                                "name": "to",
                                "type": "address",
                                "value": "0x09f362339ec850ae23e49283804901c3d306d34a"
                            },
                            {
                                "decimalAvailable": true,
                                "name": "value",
                                "type": "uint256",
                                "value": "10,000,000,000,000,000,000"
                            }
                        ],
                        "signature": "Transfer(address,address,uint256)"
                    },
                    "id": 1,
                    "logData": "0x0000000000000000000000000000000000000000000000008ac7230489e80000",
                    "logDecoded": true,
                    "operation": "EVENT",
                    "revert": false,
                    "status": true,
                    "topics": [
                        "0xddf252ad1be2c89b69c2b068fc378daa952ba7f163c4a11628f55a4df523b3ef",
                        "0x000000000000000000000000d194a1be4c606bb75d2d6d2a2237e07163a1be0e",
                        "0x00000000000000000000000009f362339ec850ae23e49283804901c3d306d34a"
                    ]
                },
                "nodeType": 1
            }
        },
        "gasFlame": [
            {
                "children": [
                    {
                        "children": [
                            {
                                "children": [],
                                "depth": 0,
                                "name": "Initial Gas",
                                "value": 23192
                            },
                            {
                                "children": [],
                                "depth": 0,
                                "name": "Executed Gas",
                                "value": 13806
                            }
                        ],
                        "depth": -1,
                        "name": "Actual Gas Used",
                        "value": 21998
                    },
                    {
                        "children": [],
                        "depth": -1,
                        "name": "Refunded Gas",
                        "value": 15000
                    }
                ],
                "depth": -2,
                "name": "Total Gas",
                "value": 36998
            }
        ],
        "isConfirmed": true,
        "mainTrace": [
            {
                "children": [
                    {
                        "children": [
                            {
                                "children": [],
                                "depth": 1,
                                "id": 1,
                                "order": 1
                            }
                        ],
                        "depth": 0,
                        "id": 0,
                        "order": 0
                    }
                ],
                "depth": -1,
                "id": -1,
                "order": -1
            }
        ],
        "mainTraceNodeCount": 2,
        "parentIdMap": {
            "0": -1,
            "1": 0
        },
        "tidyTrace": [
            {
                "children": [
                    {
                        "children": [
                            {
                                "children": [],
                                "depth": 1,
                                "id": 1,
                                "order": 1
                            }
                        ],
                        "depth": 0,
                        "id": 0,
                        "order": 0
                    }
                ],
                "depth": -1,
                "id": -1,
                "order": -1
            }
        ],
        "tidyTraceNodeCount": 2
    },
    "state_change": {
        "stateChanges": [
            {
                "address": "0x491c9a23db85623eed455a8efdd6aba9b911c5df",
                "erc": "ERC-20",
                "slots": [
                    {
                        "current": "0x0000000000000000000000000000000000000000000000000000000000000000",
                        "key": "0xc5ba52caab17ca979dab7c87492cdd57fc8899b00fedbad95876be5875a56909",
                        "prev": "0x0000000000000000000000000000000000000000000000008ac7230489e80000"
                    },
                    {
                        "current": "0x0000000000000000000000000000000000000000000001184429b82a81880000",
                        "key": "0xa7e5eedc44f38e185f84b83c227c1d038cf65d3ee7cf00699d6b9e8f4f0fbdf7",
                        "prev": "0x000000000000000000000000000000000000000000000117b9629525f7a00000"
                    }
                ],
                "storageVariables": [
                    {
                        "name": "balances",
                        "type": "mapping(address => uint256)",
                        "value": {
                            "pairs": [
                                {
                                    "key": "0x09f362339ec850ae23e49283804901c3d306d34a",
                                    "value": {
                                        "current": "5170000000000000000000",
                                        "prev": "5160000000000000000000",
                                        "typeTag": 1
                                    }
                                },
                                {
                                    "key": "0xd194a1be4c606bb75d2d6d2a2237e07163a1be0e",
                                    "value": {
                                        "current": "0",
                                        "prev": "10000000000000000000",
                                        "typeTag": 1
                                    }
                                }
                            ],
                            "typeTag": 4
                        }
                    }
                ]
            }
        ]
    }
}