{
    "balance_change": {
        "balanceChanges": []
    },
    "profile": {
        "basic_info": {
            "baseFee": "11.605348287",
            "blockNumber": 15987521,
            "callData": "0x1896f70aaaeafb8bc75f609abff72b28d0a78ed17048fcaf3280006ad1b595c3d9be374d0000000000000000000000004976fb03c32e5b8cfe2b6ccb31c09ba78ebaba41",
            "debugEnable": true,
            "errorInfo": "",
            "eventCount": 1,
            "feeRecipient": "0xf2f5c73fa04406b1995e397b55c24ab1f3ea726c",
            "formatValue": "0",
            "gasLimit": 48303,
            "gasPrice": "12.605348287",
            "gasUsed": 48303,
            "intTxnCount": 0,
            "internalRevert": false,
            "internalRevertMessage": "",
            "isContractCreation": false,
            "isFlashloan": false,
            "maxFee": "14",
            "nonce": 2414,
            "overwritedBlockNumber": -1,
            "priorityFee": "1",
            "receiver": "0x00000000000c2e074ec69a0dfb2997ba6c7d2e1e",
            "revertMessage": "",
            "sender": "0xbf51802db173061762cf93e39218f526980cd718",
            "simulationEnable": true,
            "sourceTxnHash": "0xcaf821b63e1c180c07a88e1307200831d2b9122240acd9956cadea2ca67d9cec",
            "status": true,
            "timestamp": "2022-11-17T05:01:59Z",
            "transactionFee": "0.000608876138306961",
            "txnHash": "0xcaf821b63e1c180c07a88e1307200831d2b9122240acd9956cadea2ca67d9cec",
            "txnIndex": 128,
            "type": 2,
            "value": "0"
        },
        "fund_flow": [],
        "token_infos": [
            {
                "address": "0xc02aaa39b223fe8d0a0e5c4f27ead9083c756cc2",
                "decimals": 18
            },
            {
                "address": "0xeeeeeeeeeeeeeeeeeeeeeeeeeeeeeeeeeeeeeeee",
                "decimals": 18
            }
        ]
    },
    "address_label": {
        "labels": [
            {
                "address": "0x0000000000000000000000000000000000000001",
                "label": "Precompiled"
            },
            {
                "address": "0x0000000000000000000000000000000000000002",
                "label": "Precompiled"
            },
            {
                "address": "0x0000000000000000000000000000000000000003",
                "label": "Precompiled"
            },
            {
                "address": "0x0000000000000000000000000000000000000004",
                "label": "Precompiled"
            },
            {
                "address": "0xeeeeeeeeeeeeeeeeeeeeeeeeeeeeeeeeeeeeeeee",
                "label": "Ether"
            },
            {
                "address": "0x00000000000c2e074ec69a0dfb2997ba6c7d2e1e",
                "label": "ENS: Registry with Fallback"
            },
            {
                "address": "0x4976fb03c32e5b8cfe2b6ccb31c09ba78ebaba41",
                "label": "ENS: Public Resolver 2"
            }
        ]
    },
    "trace": {
        "accountLabels": null,
        "dataMap": {
            "-1": {
                "invocation": {
                    "address": "0xbf51802db173061762cf93e39218f526980cd718",
                    "callData": "",
                    "decodedMethod": null,
                    "errorInfo": "",
                    "fromAddress": "",
                    "gasUsed": 0,
                    "id": -1,
                    "methodDecoded": false,
                    "operation": "",
                    "output": "",
                    "revert": false,
                    "revertMessage": "",
                    "selector": "",
                    "status": false,
                    "value": ""
                },
                "nodeType": 0
            },
            "0": {
                "invocation": {
                    "address": "0x00000000000c2e074ec69a0dfb2997ba6c7d2e1e",
                    "callData": "0xaaeafb8bc75f609abff72b28d0a78ed17048fcaf3280006ad1b595c3d9be374d0000000000000000000000004976fb03c32e5b8cfe2b6ccb31c09ba78ebaba41",
                    "decodedMethod": {
                        "callParams": [
                            {
                                "name": "node",
                                "type": "bytes32",
                                "value": "0xaaeafb8bc75f609abff72b28d0a78ed17048fcaf3280006ad1b595c3d9be374d"
                            },
                            {
                                "name": "resolver",
                                "type": "address",
                                "value": "0x4976fb03c32e5b8cfe2b6ccb31c09ba78ebaba41"
                            }
                        ],
                        "constructorArguments": "",
                        "name": "setResolver",
                        "returnParams": [],
                        "signature": "setResolver(bytes32,address)"
                    },
                    "errorInfo": "",
                    "fromAddress": "0xbf51802db173061762cf93e39218f526980cd718",
                    "gasUsed": 48303,
                    "id": 0,
                    "methodDecoded": true,
                    "operation": "CALL",
                    "output": "",
                    "revert": false,
                    "revertMessage": "",
                    "selector": "0x1896f70a",
                    "status": true,
                    "value": "0"
                },
                "nodeType": 0
            },
            "1": {
                "event": {
                    "contract": "0x00000000000c2e074ec69a0dfb2997ba6c7d2e1e",
                    "decodedLog": {
                        "name": "NewResolver",
                        "params": [
                            {
                                "name": "node",
                                "type": "bytes32",
                                "value": "0xaaeafb8bc75f609abff72b28d0a78ed17048fcaf3280006ad1b595c3d9be374d"
                            },
                            {
                                "name": "resolver",
                                "type": "address",
                                "value": "0x4976fb03c32e5b8cfe2b6ccb31c09ba78ebaba41"
                            }
                        ],
                        "signature": "NewResolver(bytes32,address)"
                    },
                    "id": 1,
                    "logData": "0x0000000000000000000000004976fb03c32e5b8cfe2b6ccb31c09ba78ebaba41",
                    "logDecoded": true,
                    "operation": "EVENT",
                    "revert": false,
                    "status": true,
                    "topics": [
                        "0x335721b01866dc23fbee8b6b2c7b1e14d6f05c28cd35a2c934239f94095602a0",
                        "0xaaeafb8bc75f609abff72b28d0a78ed17048fcaf3280006ad1b595c3d9be374d"
                    ]
                },
                "nodeType": 1
            }
        },
        "gasFlame": [
            {
                "children": [
                    {
                        "children": [
                            {
                                "children": [],
                                "depth": 0,
                                "name": "Initial Gas",
                                "value": 21932
                            },
                            {
                                "children": [],
                                "depth": 0,
                                "name": "Executed Gas",
                                "value": 26371
                            }
                        ],
                        "depth": -1,
                        "name": "Actual Gas Used",
                        "value": 48303
                    },
                    {
                        "children": [],
                        "depth": -1,
                        "name": "Refunded Gas",
                        "value": 0
                    }
                ],
                "depth": -2,
                "name": "Total Gas",
                "value": 48303
            }
        ],
        "isConfirmed": true,
        "mainTrace": [
            {
                "children": [
                    {
                        "children": [
                            {
                                "children": [],
                                "depth": 1,
                                "id": 1,
                                "order": 1
                            }
                        ],
                        "depth": 0,
                        "id": 0,
                        "order": 0
                    }
                ],
                "depth": -1,
                "id": -1,
                "order": -1
            }
        ],
        "mainTraceNodeCount": 2,
        "parentIdMap": {
            "0": -1,
            "1": 0
        },
        "tidyTrace": [
            {
                "children": [
                    {
                        "children": [
                            {
                                "children": [],
                                "depth": 1,
                                "id": 1,
                                "order": 1
                            }
                        ],
                        "depth": 0,
                        "id": 0,
                        "order": 0
                    }
                ],
                "depth": -1,
                "id": -1,
                "order": -1
            }
        ],
        "tidyTraceNodeCount": 2
    },
    "state_change": {
        "stateChanges": [
            {
                "address": "0x00000000000c2e074ec69a0dfb2997ba6c7d2e1e",
                "erc": "",
                "slots": [
                    {
                        "current": "0x0000000000000000000000004976fb03c32e5b8cfe2b6ccb31c09ba78ebaba41",
                        "key": "0x59287fce0c7584839aa4de0f7921e0ed5500426b5fae1ec84ad80e3cff3c00e3",
                        "prev": "0x0000000000000000000000000000000000000000000000000000000000000000"
                    }
                ],
                "storageVariables": [
                    {
                        "name": "records",
                        "type": "mapping(bytes32 => struct ENSRegistry.Record)",
                        "value": {
                            "pairs": [
                                {
                                    "key": "0xaaeafb8bc75f609abff72b28d0a78ed17048fcaf3280006ad1b595c3d9be374d",
                                    "value": {
                                        "fields": [
                                            {
                                                "name": "resolver",
                                                "type": "address",
                                                "value": {
                                                    "current": "0x4976fb03c32e5b8cfe2b6ccb31c09ba78ebaba41",
                                                    "prev": "0x0000000000000000000000000000000000000000",
                                                    "typeTag": 1
                                                }
                                            },
                                            {
                                                "name": "ttl",
                                                "type": "uint64",
                                                "value": {
                                                    "current": "0",
                                                    "prev": "0",
                                                    "typeTag": 1
                                                }
                                            }
                                        ],
                                        "typeTag": 3
                                    }
                                }
                            ],
                            "typeTag": 4
                        }
                    }
                ]
            }
        ]
    }
}