{
    "balance_change": {
        "balanceChanges": [
            {
                "account": "0x1f802f346004bd9a36617022144a712bf51946d6",
                "assets": [
                    {
                        "address": "0x0000000000a39bb272e79075ade125fd351887ac",
                        "amount": "17.909818744100031268",
                        "iconUrl": "",
                        "isERC1155": false,
                        "isERC721": false,
                        "sign": true,
                        "value": ""
                    }
                ]
            },
            {
                "account": "0xb23a734f49ed11dc3b0dd3ff322b5df95220574e",
                "assets": [
                    {
                        "address": "0x0000000000a39bb272e79075ade125fd351887ac",
                        "amount": "17.909818744100031268",
                        "iconUrl": "",
                        "isERC1155": false,
                        "isERC721": false,
                        "sign": false,
                        "value": ""
                    }
                ]
            }
        ]
    },
    "profile": {
        "basic_info": {
            "baseFee": "36.082429192",
            "blockNumber": 18631465,
            "callData": "0x736da5ad0000000000000000000000001f802f346004bd9a36617022144a712bf51946d6000000000000000000000000c2d118a11cce453ac65310c80286594228bbaf1d000000000000000000000000bc4ca0eda7647a8ab7c2061c2e118a18a936f13d0000000000000000000000000000000000000000000000000000000000002339000000000000000000000000000000000000000000000000f8699329677e000000000000000000000000000000000000000000000000000000000000655d55d7000000000000000000000000000000000000000000000000000000000000076c00000000000000000000000000000000000000000000000000000000000000000000000000000000000000000000000000000000000000000000000000002328000000000000000000000000000000000000000000000000000000000001299e000000000000000000000000b23a734f49ed11dc3b0dd3ff322b5df95220574e000000000000000000000000bc4ca0eda7647a8ab7c2061c2e118a18a936f13d0000000000000000000000000000000000000000000000020440f2e7ec880000000000000000000000000000000000000000000000000000000000000000000000000000000000000000000000000000000000000000000102207973f6440000000000000000000000000000000000000000000000000000000000000000232800000000000000000000000000000000bfa57e5b9d3fc0324dea66af0fcbbeb700000000000000000000000000000000000000000000000000000000658642fe0000000000000000000000000000000000000000000000000000000000000000000000000000000000000000473ca1d29a136b935a96380ea342f296b4eea82c00000000000000000000000000000000000000000000000000000000000002a000000000000000000000000000000000000000000000000000000000000000a277836374d6b4ce2e3e1285c5ef51481ed9aa0c6e98b3d2a7df4c81091421c9667a471a3f97d272c37980ad6cb3d75c0153a3efe368ad3b692846c619d4d38bd91b1a1da11c5007b9b0a258873d33c04baceac0914c7c5040f11c3a8d7661d81f0d5f933eb1366d8939f20ab4cb6b6a454deef7ed0a192f807b85a22f23713c5c041c00000000000000000000000000000000000000000000000000000000011c4b23000000000000000000000000000000000000000000000000000000000000",
            "debugEnable": true,
            "errorInfo": "",
            "eventCount": 3,
            "feeRecipient": "0x4675c7e5baafbffbca748158becba61ef3b0a263",
            "formatValue": "0",
            "gasLimit": 121381,
            "gasPrice": "36.182429192",
            "gasUsed": 116368,
            "intTxnCount": 6,
            "internalRevert": false,
            "internalRevertMessage": "",
            "isContractCreation": false,
            "isFlashloan": false,
            "maxFee": "49.172393203",
            "nonce": 1181,
            "overwritedBlockNumber": -1,
            "priorityFee": "0.1",
            "receiver": "0x29469395eaf6f95920e59f858042f0e28d98a20b",
            "revertMessage": "",
            "sender": "0x1f802f346004bd9a36617022144a712bf51946d6",
            "simulationEnable": true,
            "sourceTxnHash": "0xca0091b649035fa601a81af7602613c22f22796fd04de1487432ee5ec19bc9c8",
            "status": true,
            "timestamp": "2023-11-23T02:30:59Z",
            "transactionFee": "0.004210476920214656",
            "txnHash": "0xca0091b649035fa601a81af7602613c22f22796fd04de1487432ee5ec19bc9c8",
            "txnIndex": 111,
            "type": 2,
            "value": "0"
        },
        "fund_flow": [
            {
                "amount": "17.909818744100031268",
                "from": "0xb23a734f49ed11dc3b0dd3ff322b5df95220574e",
                "id": 1,
                "isERC1155": false,
                "isERC721": false,
                "isReverted": false,
                "order": 1,
                "to": "0x1f802f346004bd9a36617022144a712bf51946d6",
                "token": "0x0000000000a39bb272e79075ade125fd351887ac"
            }
        ],
        "token_infos": [
            {
                "address": "0x0000000000a39bb272e79075ade125fd351887ac",
                "decimals": 18
            },
            {
                "address": "0xc02aaa39b223fe8d0a0e5c4f27ead9083c756cc2",
                "decimals": 18
            },
            {
                "address": "0xeeeeeeeeeeeeeeeeeeeeeeeeeeeeeeeeeeeeeeee",
                "decimals": 18
            }
        ]
    },
    "address_label": {
        "labels": [
            {
                "address": "0x29469395eaf6f95920e59f858042f0e28d98a20b",
                "label": "Blur: Blend"
            },
            {
                "address": "0x5c55cd67a6bd0d4c315b50cb6cd589bfb080017e",
                "label": "Helpers"
            },
            {
                "address": "0x0000000000000000000000000000000000000003",
                "label": "Precompiled"
            },
            {
                "address": "0x0000000000000000000000000000000000000004",
                "label": "Precompiled"
            },
            {
                "address": "0xeeeeeeeeeeeeeeeeeeeeeeeeeeeeeeeeeeeeeeee",
                "label": "Ether"
            },
            {
                "address": "0xbc4ca0eda7647a8ab7c2061c2e118a18a936f13d",
                "label": "Bored Ape Yacht Club: BoredApeYachtClub Token (BAYC)"
            },
            {
                "address": "0x0000000000a39bb272e79075ade125fd351887ac",
                "label": "Blur: Bidding"
            },
            {
                "address": "0x01a656024de4b89e2d0198bf4d468e8fd2358b17",
                "label": "Blur Pool"
            },
            {
                "address": "0xb258ca5559b11cd702f363796522b04d7722ea56",
                "label": "Blend"
            },
            {
                "address": "0x0000000000000000000000000000000000000001",
                "label": "Precompiled"
            },
            {
                "address": "0x0000000000000000000000000000000000000002",
                "label": "Precompiled"
            }
        ]
    },
    "trace": {
        "accountLabels": null,
        "dataMap": {
            "-1": {
                "invocation": {
                    "address": "0x1f802f346004bd9a36617022144a712bf51946d6",
                    "callData": "",
                    "decodedMethod": null,
                    "errorInfo": "",
                    "fromAddress": "",
                    "gasUsed": 0,
                    "id": -1,
                    "methodDecoded": false,
                    "operation": "",
                    "output": "",
                    "revert": false,
                    "revertMessage": "",
                    "selector": "",
                    "status": false,
                    "value": ""
                },
                "nodeType": 0
            },
            "0": {
                "invocation": {
                    "address": "0x29469395eaf6f95920e59f858042f0e28d98a20b",
                    "callData": "0x0000000000000000000000001f802f346004bd9a36617022144a712bf51946d6000000000000000000000000c2d118a11cce453ac65310c80286594228bbaf1d000000000000000000000000bc4ca0eda7647a8ab7c2061c2e118a18a936f13d0000000000000000000000000000000000000000000000000000000000002339000000000000000000000000000000000000000000000000f8699329677e000000000000000000000000000000000000000000000000000000000000655d55d7000000000000000000000000000000000000000000000000000000000000076c00000000000000000000000000000000000000000000000000000000000000000000000000000000000000000000000000000000000000000000000000002328000000000000000000000000000000000000000000000000000000000001299e000000000000000000000000b23a734f49ed11dc3b0dd3ff322b5df95220574e000000000000000000000000bc4ca0eda7647a8ab7c2061c2e118a18a936f13d0000000000000000000000000000000000000000000000020440f2e7ec880000000000000000000000000000000000000000000000000000000000000000000000000000000000000000000000000000000000000000000102207973f6440000000000000000000000000000000000000000000000000000000000000000232800000000000000000000000000000000bfa57e5b9d3fc0324dea66af0fcbbeb700000000000000000000000000000000000000000000000000000000658642fe0000000000000000000000000000000000000000000000000000000000000000000000000000000000000000473ca1d29a136b935a96380ea342f296b4eea82c00000000000000000000000000000000000000000000000000000000000002a000000000000000000000000000000000000000000000000000000000000000a277836374d6b4ce2e3e1285c5ef51481ed9aa0c6e98b3d2a7df4c81091421c9667a471a3f97d272c37980ad6cb3d75c0153a3efe368ad3b692846c619d4d38bd91b1a1da11c5007b9b0a258873d33c04baceac0914c7c5040f11c3a8d7661d81f0d5f933eb1366d8939f20ab4cb6b6a454deef7ed0a192f807b85a22f23713c5c041c00000000000000000000000000000000000000000000000000000000011c4b23000000000000000000000000000000000000000000000000000000000000",
                    "decodedMethod": {
                        "callParams": [
                            {
                                "name": "lien",
                                "type": "(address,address,address,uint256,uint256,uint256,uint256,uint256,uint256)",
                                "value": [
                                    {
                                        "name": "lender",
                                        "type": "address",
                                        "value": "0x1f802f346004bd9a36617022144a712bf51946d6"
                                    },
                                    {
                                        "name": "borrower",
                                        "type": "address",
                                        "value": "0xc2d118a11cce453ac65310c80286594228bbaf1d"
                                    },
                                    {
                                        "name": "collection",
                                        "type": "address",
                                        "value": "0xbc4ca0eda7647a8ab7c2061c2e118a18a936f13d"
                                    },
                                    {
                                        "name": "tokenId",
                                        "type": "uint256",
                                        "value": "9,017"
                                    },
                                    {
                                        "name": "amount",
                                        "type": "uint256",
                                        "value": "17,900,000,000,000,000,000"
                                    },
                                    {
                                        "name": "startTime",
                                        "type": "uint256",
                                        "value": "1,700,615,639"
                                    },
                                    {
                                        "name": "rate",
                                        "type": "uint256",
                                        "value": "1,900"
                                    },
                                    {
                                        "name": "auctionStartBlock",
                                        "type": "uint256",
                                        "value": "0"
                                    },
                                    {
                                        "name": "auctionDuration",
                                        "type": "uint256",
                                        "value": "9,000"
                                    }
                                ]
                            },
                            {
                                "name": "lienId",
                                "type": "uint256",
                                "value": "76,190"
                            },
                            {
                                "name": "offer",
                                "type": "(address,address,uint256,uint256,uint256,uint256,uint256,uint256,uint256,address)",
                                "value": [
                                    {
                                        "name": "lender",
                                        "type": "address",
                                        "value": "0xb23a734f49ed11dc3b0dd3ff322b5df95220574e"
                                    },
                                    {
                                        "name": "collection",
                                        "type": "address",
                                        "value": "0xbc4ca0eda7647a8ab7c2061c2e118a18a936f13d"
                                    },
                                    {
                                        "name": "totalAmount",
                                        "type": "uint256",
                                        "value": "37,200,000,000,000,000,000"
                                    },
                                    {
                                        "name": "minAmount",
                                        "type": "uint256",
                                        "value": "0"
                                    },
                                    {
                                        "name": "maxAmount",
                                        "type": "uint256",
                                        "value": "18,600,000,000,000,000,000"
                                    },
                                    {
                                        "name": "auctionDuration",
                                        "type": "uint256",
                                        "value": "9,000"
                                    },
                                    {
                                        "name": "salt",
                                        "type": "uint256",
                                        "value": "254,741,839,018,616,243,682,766,043,646,725,439,159"
                                    },
                                    {
                                        "name": "expirationTime",
                                        "type": "uint256",
                                        "value": "1,703,297,790"
                                    },
                                    {
                                        "name": "rate",
                                        "type": "uint256",
                                        "value": "0"
                                    },
                                    {
                                        "name": "oracle",
                                        "type": "address",
                                        "value": "0x473ca1d29a136b935a96380ea342f296b4eea82c"
                                    }
                                ]
                            },
                            {
                                "name": "signature",
                                "type": "bytes",
                                "value": "0x77836374d6b4ce2e3e1285c5ef51481ed9aa0c6e98b3d2a7df4c81091421c9667a471a3f97d272c37980ad6cb3d75c0153a3efe368ad3b692846c619d4d38bd91b1a1da11c5007b9b0a258873d33c04baceac0914c7c5040f11c3a8d7661d81f0d5f933eb1366d8939f20ab4cb6b6a454deef7ed0a192f807b85a22f23713c5c041c00000000000000000000000000000000000000000000000000000000011c4b23"
                            }
                        ],
                        "constructorArguments": "",
                        "name": "refinance",
                        "returnParams": [],
                        "signature": "refinance((address,address,address,uint256,uint256,uint256,uint256,uint256,uint256),uint256,(address,address,uint256,uint256,uint256,uint256,uint256,uint256,uint256,address),bytes)"
                    },
                    "errorInfo": "",
                    "fromAddress": "0x1f802f346004bd9a36617022144a712bf51946d6",
                    "gasUsed": 116368,
                    "id": 0,
                    "methodDecoded": true,
                    "operation": "CALL",
                    "output": "",
                    "revert": false,
                    "revertMessage": "",
                    "selector": "0x736da5ad",
                    "status": true,
                    "value": "0"
                },
                "nodeType": 0
            },
            "1": {
                "invocation": {
                    "address": "0xb258ca5559b11cd702f363796522b04d7722ea56",
                    "callData": "0x0000000000000000000000001f802f346004bd9a36617022144a712bf51946d6000000000000000000000000c2d118a11cce453ac65310c80286594228bbaf1d000000000000000000000000bc4ca0eda7647a8ab7c2061c2e118a18a936f13d0000000000000000000000000000000000000000000000000000000000002339000000000000000000000000000000000000000000000000f8699329677e000000000000000000000000000000000000000000000000000000000000655d55d7000000000000000000000000000000000000000000000000000000000000076c00000000000000000000000000000000000000000000000000000000000000000000000000000000000000000000000000000000000000000000000000002328000000000000000000000000000000000000000000000000000000000001299e000000000000000000000000b23a734f49ed11dc3b0dd3ff322b5df95220574e000000000000000000000000bc4ca0eda7647a8ab7c2061c2e118a18a936f13d0000000000000000000000000000000000000000000000020440f2e7ec880000000000000000000000000000000000000000000000000000000000000000000000000000000000000000000000000000000000000000000102207973f6440000000000000000000000000000000000000000000000000000000000000000232800000000000000000000000000000000bfa57e5b9d3fc0324dea66af0fcbbeb700000000000000000000000000000000000000000000000000000000658642fe0000000000000000000000000000000000000000000000000000000000000000000000000000000000000000473ca1d29a136b935a96380ea342f296b4eea82c00000000000000000000000000000000000000000000000000000000000002a000000000000000000000000000000000000000000000000000000000000000a277836374d6b4ce2e3e1285c5ef51481ed9aa0c6e98b3d2a7df4c81091421c9667a471a3f97d272c37980ad6cb3d75c0153a3efe368ad3b692846c619d4d38bd91b1a1da11c5007b9b0a258873d33c04baceac0914c7c5040f11c3a8d7661d81f0d5f933eb1366d8939f20ab4cb6b6a454deef7ed0a192f807b85a22f23713c5c041c00000000000000000000000000000000000000000000000000000000011c4b23000000000000000000000000000000000000000000000000000000000000",
                    "decodedMethod": {
                        "callParams": [
                            {
                                "name": "lien",
                                "type": "(address,address,address,uint256,uint256,uint256,uint256,uint256,uint256)",
                                "value": [
                                    {
                                        "name": "lender",
                                        "type": "address",
                                        "value": "0x1f802f346004bd9a36617022144a712bf51946d6"
                                    },
                                    {
                                        "name": "borrower",
                                        "type": "address",
                                        "value": "0xc2d118a11cce453ac65310c80286594228bbaf1d"
                                    },
                                    {
                                        "name": "collection",
                                        "type": "address",
                                        "value": "0xbc4ca0eda7647a8ab7c2061c2e118a18a936f13d"
                                    },
                                    {
                                        "name": "tokenId",
                                        "type": "uint256",
                                        "value": "9,017"
                                    },
                                    {
                                        "name": "amount",
                                        "type": "uint256",
                                        "value": "17,900,000,000,000,000,000"
                                    },
                                    {
                                        "name": "startTime",
                                        "type": "uint256",
                                        "value": "1,700,615,639"
                                    },
                                    {
                                        "name": "rate",
                                        "type": "uint256",
                                        "value": "1,900"
                                    },
                                    {
                                        "name": "auctionStartBlock",
                                        "type": "uint256",
                                        "value": "0"
                                    },
                                    {
                                        "name": "auctionDuration",
                                        "type": "uint256",
                                        "value": "9,000"
                                    }
                                ]
                            },
                            {
                                "name": "lienId",
                                "type": "uint256",
                                "value": "76,190"
                            },
                            {
                                "name": "offer",
                                "type": "(address,address,uint256,uint256,uint256,uint256,uint256,uint256,uint256,address)",
                                "value": [
                                    {
                                        "name": "lender",
                                        "type": "address",
                                        "value": "0xb23a734f49ed11dc3b0dd3ff322b5df95220574e"
                                    },
                                    {
                                        "name": "collection",
                                        "type": "address",
                                        "value": "0xbc4ca0eda7647a8ab7c2061c2e118a18a936f13d"
                                    },
                                    {
                                        "name": "totalAmount",
                                        "type": "uint256",
                                        "value": "37,200,000,000,000,000,000"
                                    },
                                    {
                                        "name": "minAmount",
                                        "type": "uint256",
                                        "value": "0"
                                    },
                                    {
                                        "name": "maxAmount",
                                        "type": "uint256",
                                        "value": "18,600,000,000,000,000,000"
                                    },
                                    {
                                        "name": "auctionDuration",
                                        "type": "uint256",
                                        "value": "9,000"
                                    },
                                    {
                                        "name": "salt",
                                        "type": "uint256",
                                        "value": "254,741,839,018,616,243,682,766,043,646,725,439,159"
                                    },
                                    {
                                        "name": "expirationTime",
                                        "type": "uint256",
                                        "value": "1,703,297,790"
                                    },
                                    {
                                        "name": "rate",
                                        "type": "uint256",
                                        "value": "0"
                                    },
                                    {
                                        "name": "oracle",
                                        "type": "address",
                                        "value": "0x473ca1d29a136b935a96380ea342f296b4eea82c"
                                    }
                                ]
                            },
                            {
                                "name": "signature",
                                "type": "bytes",
                                "value": "0x77836374d6b4ce2e3e1285c5ef51481ed9aa0c6e98b3d2a7df4c81091421c9667a471a3f97d272c37980ad6cb3d75c0153a3efe368ad3b692846c619d4d38bd91b1a1da11c5007b9b0a258873d33c04baceac0914c7c5040f11c3a8d7661d81f0d5f933eb1366d8939f20ab4cb6b6a454deef7ed0a192f807b85a22f23713c5c041c00000000000000000000000000000000000000000000000000000000011c4b23"
                            }
                        ],
                        "constructorArguments": "",
                        "name": "refinance",
                        "returnParams": [],
                        "signature": "refinance((address,address,address,uint256,uint256,uint256,uint256,uint256,uint256),uint256,(address,address,uint256,uint256,uint256,uint256,uint256,uint256,uint256,address),bytes)"
                    },
                    "errorInfo": "",
                    "fromAddress": "0x29469395eaf6f95920e59f858042f0e28d98a20b",
                    "gasUsed": 82921,
                    "id": 1,
                    "methodDecoded": true,
                    "operation": "DELEGATECALL",
                    "output": "",
                    "revert": false,
                    "revertMessage": "",
                    "selector": "0x736da5ad",
                    "status": true,
                    "value": "0"
                },
                "nodeType": 0
            },
            "2": {
                "invocation": {
                    "address": "0x5c55cd67a6bd0d4c315b50cb6cd589bfb080017e",
                    "callData": "0x000000000000000000000000000000000000000000000000f8699329677e0000000000000000000000000000000000000000000000000000000000000000076c00000000000000000000000000000000000000000000000000000000655d55d7",
                    "decodedMethod": {
                        "callParams": [
                            {
                                "name": "amount",
                                "type": "uint256",
                                "value": "17,900,000,000,000,000,000"
                            },
                            {
                                "name": "rate",
                                "type": "uint256",
                                "value": "1,900"
                            },
                            {
                                "name": "startTime",
                                "type": "uint256",
                                "value": "1,700,615,639"
                            }
                        ],
                        "constructorArguments": "",
                        "name": "computeCurrentDebt",
                        "returnParams": [
                            {
                                "name": "",
                                "type": "uint256",
                                "value": "17,909,818,744,100,031,269"
                            }
                        ],
                        "signature": "computeCurrentDebt(uint256,uint256,uint256)"
                    },
                    "errorInfo": "",
                    "fromAddress": "0x29469395eaf6f95920e59f858042f0e28d98a20b",
                    "gasUsed": 1468,
                    "id": 2,
                    "methodDecoded": true,
                    "operation": "DELEGATECALL",
                    "output": "0x000000000000000000000000000000000000000000000000f88c7541e9b70b25",
                    "revert": false,
                    "revertMessage": "",
                    "selector": "0x1b70b278",
                    "status": true,
                    "value": "0"
                },
                "nodeType": 0
            },
            "3": {
                "invocation": {
                    "address": "0x0000000000000000000000000000000000000001",
                    "callData": "0x2bededef33c8237ded5054e9de08672b799b28458f8188a8f608d524000000000000000000000000000000000000000000000000000000000000001b77836374d6b4ce2e3e1285c5ef51481ed9aa0c6e98b3d2a7df4c81091421c9667a471a3f97d272c37980ad6cb3d75c0153a3efe368ad3b692846c619d4d38bd9",
                    "decodedMethod": {
                        "callParams": [
                            {
                                "name": "hash",
                                "type": "bytes32",
                                "value": "0x1a0c50872bededef33c8237ded5054e9de08672b799b28458f8188a8f608d524"
                            },
                            {
                                "name": "v",
                                "type": "uint256",
                                "value": "27"
                            },
                            {
                                "name": "r",
                                "type": "bytes32",
                                "value": "0x77836374d6b4ce2e3e1285c5ef51481ed9aa0c6e98b3d2a7df4c81091421c966"
                            },
                            {
                                "name": "s",
                                "type": "bytes32",
                                "value": "0x7a471a3f97d272c37980ad6cb3d75c0153a3efe368ad3b692846c619d4d38bd9"
                            }
                        ],
                        "constructorArguments": "",
                        "name": "ecrecover",
                        "returnParams": [
                            {
                                "name": "",
                                "type": "address",
                                "value": "0xb23a734f49ed11dc3b0dd3ff322b5df95220574e"
                            }
                        ],
                        "signature": "ecrecover(bytes32,uint256,bytes32,bytes32)"
                    },
                    "errorInfo": "",
                    "fromAddress": "0x29469395eaf6f95920e59f858042f0e28d98a20b",
                    "gasUsed": 3000,
                    "id": 3,
                    "methodDecoded": true,
                    "operation": "STATICCALL",
                    "output": "0x000000000000000000000000b23a734f49ed11dc3b0dd3ff322b5df95220574e",
                    "revert": false,
                    "revertMessage": "",
                    "selector": "0x1a0c5087",
                    "status": true,
                    "value": "0"
                },
                "nodeType": 0
            },
            "4": {
                "invocation": {
                    "address": "0x0000000000000000000000000000000000000001",
                    "callData": "0xfa1266ab105c76ee6737d3e38dbde121fa6fb0e8f8155b41f0bdb5df000000000000000000000000000000000000000000000000000000000000001c1a1da11c5007b9b0a258873d33c04baceac0914c7c5040f11c3a8d7661d81f0d5f933eb1366d8939f20ab4cb6b6a454deef7ed0a192f807b85a22f23713c5c04",
                    "decodedMethod": {
                        "callParams": [
                            {
                                "name": "hash",
                                "type": "bytes32",
                                "value": "0x61454d1bfa1266ab105c76ee6737d3e38dbde121fa6fb0e8f8155b41f0bdb5df"
                            },
                            {
                                "name": "v",
                                "type": "uint256",
                                "value": "28"
                            },
                            {
                                "name": "r",
                                "type": "bytes32",
                                "value": "0x1a1da11c5007b9b0a258873d33c04baceac0914c7c5040f11c3a8d7661d81f0d"
                            },
                            {
                                "name": "s",
                                "type": "bytes32",
                                "value": "0x5f933eb1366d8939f20ab4cb6b6a454deef7ed0a192f807b85a22f23713c5c04"
                            }
                        ],
                        "constructorArguments": "",
                        "name": "ecrecover",
                        "returnParams": [
                            {
                                "name": "",
                                "type": "address",
                                "value": "0x473ca1d29a136b935a96380ea342f296b4eea82c"
                            }
                        ],
                        "signature": "ecrecover(bytes32,uint256,bytes32,bytes32)"
                    },
                    "errorInfo": "",
                    "fromAddress": "0x29469395eaf6f95920e59f858042f0e28d98a20b",
                    "gasUsed": 3000,
                    "id": 4,
                    "methodDecoded": true,
                    "operation": "STATICCALL",
                    "output": "0x000000000000000000000000473ca1d29a136b935a96380ea342f296b4eea82c",
                    "revert": false,
                    "revertMessage": "",
                    "selector": "0x61454d1b",
                    "status": true,
                    "value": "0"
                },
                "nodeType": 0
            },
            "5": {
                "event": {
                    "contract": "0x29469395eaf6f95920e59f858042f0e28d98a20b",
                    "decodedLog": {
                        "name": "LoanOfferTaken",
                        "params": [
                            {
                                "name": "offerHash",
                                "type": "bytes32",
                                "value": "0x99404eb33292d1bdcd2ee6924610e53e15d76e1a6de5aa7a0161fb88e93e72de"
                            },
                            {
                                "name": "lienId",
                                "type": "uint256",
                                "value": "76,190"
                            },
                            {
                                "name": "collection",
                                "type": "address",
                                "value": "0xbc4ca0eda7647a8ab7c2061c2e118a18a936f13d"
                            },
                            {
                                "name": "lender",
                                "type": "address",
                                "value": "0xb23a734f49ed11dc3b0dd3ff322b5df95220574e"
                            },
                            {
                                "name": "borrower",
                                "type": "address",
                                "value": "0xc2d118a11cce453ac65310c80286594228bbaf1d"
                            },
                            {
                                "name": "loanAmount",
                                "type": "uint256",
                                "value": "17,909,818,744,100,031,269"
                            },
                            {
                                "name": "rate",
                                "type": "uint256",
                                "value": "0"
                            },
                            {
                                "name": "tokenId",
                                "type": "uint256",
                                "value": "9,017"
                            },
                            {
                                "name": "auctionDuration",
                                "type": "uint256",
                                "value": "9,000"
                            }
                        ],
                        "signature": "LoanOfferTaken(bytes32,uint256,address,address,address,uint256,uint256,uint256,uint256)"
                    },
                    "id": 5,
                    "logData": "0x99404eb33292d1bdcd2ee6924610e53e15d76e1a6de5aa7a0161fb88e93e72de000000000000000000000000000000000000000000000000000000000001299e000000000000000000000000bc4ca0eda7647a8ab7c2061c2e118a18a936f13d000000000000000000000000b23a734f49ed11dc3b0dd3ff322b5df95220574e000000000000000000000000c2d118a11cce453ac65310c80286594228bbaf1d000000000000000000000000000000000000000000000000f88c7541e9b70b25000000000000000000000000000000000000000000000000000000000000000000000000000000000000000000000000000000000000000000000000000023390000000000000000000000000000000000000000000000000000000000002328",
                    "logDecoded": true,
                    "operation": "EVENT",
                    "revert": false,
                    "status": true,
                    "topics": [
                        "0x06a333c2d6fe967ca967f7a35be2eb45e8caeb6cf05e16f55d42b91b5fe31255"
                    ]
                },
                "nodeType": 1
            },
            "6": {
                "event": {
                    "contract": "0x29469395eaf6f95920e59f858042f0e28d98a20b",
                    "decodedLog": {
                        "name": "Refinance",
                        "params": [
                            {
                                "name": "loanId",
                                "type": "uint256",
                                "value": "76,190"
                            },
                            {
                                "name": "collateral",
                                "type": "address",
                                "value": "0xbc4ca0eda7647a8ab7c2061c2e118a18a936f13d"
                            },
                            {
                                "name": "newLender",
                                "type": "address",
                                "value": "0xb23a734f49ed11dc3b0dd3ff322b5df95220574e"
                            },
                            {
                                "name": "newAmount",
                                "type": "uint256",
                                "value": "17,909,818,744,100,031,269"
                            },
                            {
                                "name": "newRate",
                                "type": "uint256",
                                "value": "0"
                            },
                            {
                                "name": "newAuctionDuration",
                                "type": "uint256",
                                "value": "9,000"
                            }
                        ],
                        "signature": "Refinance(uint256,address,address,uint256,uint256,uint256)"
                    },
                    "id": 6,
                    "logData": "0x000000000000000000000000000000000000000000000000000000000001299e000000000000000000000000bc4ca0eda7647a8ab7c2061c2e118a18a936f13d000000000000000000000000b23a734f49ed11dc3b0dd3ff322b5df95220574e000000000000000000000000000000000000000000000000f88c7541e9b70b2500000000000000000000000000000000000000000000000000000000000000000000000000000000000000000000000000000000000000000000000000002328",
                    "logDecoded": true,
                    "operation": "EVENT",
                    "revert": false,
                    "status": true,
                    "topics": [
                        "0x558a9295c62e9e1b12a21c8fe816f4816a2e0269a53157edbfa16017b11b9ac9"
                    ]
                },
                "nodeType": 1
            },
            "7": {
                "invocation": {
                    "address": "0x0000000000a39bb272e79075ade125fd351887ac",
                    "callData": "0x000000000000000000000000b23a734f49ed11dc3b0dd3ff322b5df95220574e0000000000000000000000001f802f346004bd9a36617022144a712bf51946d6000000000000000000000000000000000000000000000000f88c7541e9b70b25",
                    "decodedMethod": {
                        "callParams": [
                            {
                                "name": "from",
                                "type": "address",
                                "value": "0xb23a734f49ed11dc3b0dd3ff322b5df95220574e"
                            },
                            {
                                "name": "to",
                                "type": "address",
                                "value": "0x1f802f346004bd9a36617022144a712bf51946d6"
                            },
                            {
                                "decimalAvailable": true,
                                "name": "amount",
                                "type": "uint256",
                                "value": "17,909,818,744,100,031,269"
                            }
                        ],
                        "constructorArguments": "",
                        "name": "transferFrom",
                        "returnParams": [
                            {
                                "name": "",
                                "type": "bool",
                                "value": true
                            }
                        ],
                        "signature": "transferFrom(address,address,uint256)"
                    },
                    "errorInfo": "",
                    "fromAddress": "0x29469395eaf6f95920e59f858042f0e28d98a20b",
                    "gasUsed": 17864,
                    "id": 7,
                    "methodDecoded": true,
                    "operation": "CALL",
                    "output": "0x0000000000000000000000000000000000000000000000000000000000000001",
                    "revert": false,
                    "revertMessage": "",
                    "selector": "0x23b872dd",
                    "status": true,
                    "value": "0"
                },
                "nodeType": 0
            },
            "8": {
                "invocation": {
                    "address": "0x01a656024de4b89e2d0198bf4d468e8fd2358b17",
                    "callData": "0x000000000000000000000000b23a734f49ed11dc3b0dd3ff322b5df95220574e0000000000000000000000001f802f346004bd9a36617022144a712bf51946d6000000000000000000000000000000000000000000000000f88c7541e9b70b25",
                    "decodedMethod": {
                        "callParams": [
                            {
                                "name": "from",
                                "type": "address",
                                "value": "0xb23a734f49ed11dc3b0dd3ff322b5df95220574e"
                            },
                            {
                                "name": "to",
                                "type": "address",
                                "value": "0x1f802f346004bd9a36617022144a712bf51946d6"
                            },
                            {
                                "decimalAvailable": true,
                                "name": "amount",
                                "type": "uint256",
                                "value": "17,909,818,744,100,031,269"
                            }
                        ],
                        "constructorArguments": "",
                        "name": "transferFrom",
                        "returnParams": [
                            {
                                "name": "",
                                "type": "bool",
                                "value": true
                            }
                        ],
                        "signature": "transferFrom(address,address,uint256)"
                    },
                    "errorInfo": "",
                    "fromAddress": "0x0000000000a39bb272e79075ade125fd351887ac",
                    "gasUsed": 12969,
                    "id": 8,
                    "methodDecoded": true,
                    "operation": "DELEGATECALL",
                    "output": "0x0000000000000000000000000000000000000000000000000000000000000001",
                    "revert": false,
                    "revertMessage": "",
                    "selector": "0x23b872dd",
                    "status": true,
                    "value": "0"
                },
                "nodeType": 0
            },
            "9": {
                "event": {
                    "contract": "0x0000000000a39bb272e79075ade125fd351887ac",
                    "decodedLog": {
                        "name": "Transfer",
                        "params": [
                            {
                                "name": "from",
                                "type": "address",
                                "value": "0xb23a734f49ed11dc3b0dd3ff322b5df95220574e"
                            },
                            {
                                "name": "to",
                                "type": "address",
                                "value": "0x1f802f346004bd9a36617022144a712bf51946d6"
                            },
                            {
                                "decimalAvailable": true,
                                "name": "value",
                                "type": "uint256",
                                "value": "17,909,818,744,100,031,269"
                            }
                        ],
                        "signature": "Transfer(address,address,uint256)"
                    },
                    "id": 9,
                    "logData": "0x000000000000000000000000000000000000000000000000f88c7541e9b70b25",
                    "logDecoded": true,
                    "operation": "EVENT",
                    "revert": false,
                    "status": true,
                    "topics": [
                        "0xddf252ad1be2c89b69c2b068fc378daa952ba7f163c4a11628f55a4df523b3ef",
                        "0x000000000000000000000000b23a734f49ed11dc3b0dd3ff322b5df95220574e",
                        "0x0000000000000000000000001f802f346004bd9a36617022144a712bf51946d6"
                    ]
                },
                "nodeType": 1
            }
        },
        "gasFlame": [
            {
                "children": [
                    {
                        "children": [
                            {
                                "children": [],
                                "depth": 0,
                                "name": "Initial Gas",
                                "value": 28392
                            },
                            {
                                "children": [
                                    {
                                        "children": [
                                            {
                                                "children": [],
                                                "depth": 2,
                                                "name": "computeCurrentDebt",
                                                "value": 1468
                                            },
                                            {
                                                "children": [],
                                                "depth": 2,
                                                "name": "ecrecover",
                                                "value": 3000
                                            },
                                            {
                                                "children": [],
                                                "depth": 2,
                                                "name": "ecrecover",
                                                "value": 3000
                                            },
                                            {
                                                "children": [
                                                    {
                                                        "children": [],
                                                        "depth": 3,
                                                        "name": "transferFrom",
                                                        "value": 12969
                                                    }
                                                ],
                                                "depth": 2,
                                                "name": "transferFrom",
                                                "value": 17864
                                            }
                                        ],
                                        "depth": 1,
                                        "name": "refinance",
                                        "value": 82921
                                    }
                                ],
                                "depth": 0,
                                "name": "Executed Gas",
                                "value": 87976
                            }
                        ],
                        "depth": -1,
                        "name": "Actual Gas Used",
                        "value": 116368
                    },
                    {
                        "children": [],
                        "depth": -1,
                        "name": "Refunded Gas",
                        "value": 0
                    }
                ],
                "depth": -2,
                "name": "Total Gas",
                "value": 116368
            }
        ],
        "isConfirmed": true,
        "mainTrace": [
            {
                "children": [
                    {
                        "children": [
                            {
                                "children": [
                                    {
                                        "children": [],
                                        "depth": 2,
                                        "id": 2,
                                        "order": 2
                                    },
                                    {
                                        "children": [],
                                        "depth": 2,
                                        "id": 3,
                                        "order": 3
                                    },
                                    {
                                        "children": [],
                                        "depth": 2,
                                        "id": 4,
                                        "order": 4
                                    },
                                    {
                                        "children": [],
                                        "depth": 2,
                                        "id": 5,
                                        "order": 5
                                    },
                                    {
                                        "children": [],
                                        "depth": 2,
                                        "id": 6,
                                        "order": 6
                                    },
                                    {
                                        "children": [
                                            {
                                                "children": [
                                                    {
                                                        "children": [],
                                                        "depth": 4,
                                                        "id": 9,
                                                        "order": 9
                                                    }
                                                ],
                                                "depth": 3,
                                                "id": 8,
                                                "order": 8
                                            }
                                        ],
                                        "depth": 2,
                                        "id": 7,
                                        "order": 7
                                    }
                                ],
                                "depth": 1,
                                "id": 1,
                                "order": 1
                            }
                        ],
                        "depth": 0,
                        "id": 0,
                        "order": 0
                    }
                ],
                "depth": -1,
                "id": -1,
                "order": -1
            }
        ],
        "mainTraceNodeCount": 10,
        "parentIdMap": {
            "0": -1,
            "1": 0,
            "2": 1,
            "3": 1,
            "4": 1,
            "5": 1,
            "6": 1,
            "7": 1,
            "8": 7,
            "9": 8
        },
        "tidyTrace": [
            {
                "children": [
                    {
                        "children": [
                            {
                                "children": [
                                    {
                                        "children": [],
                                        "depth": 2,
                                        "id": 2,
                                        "order": 2
                                    },
                                    {
                                        "children": [],
                                        "depth": 2,
                                        "id": 5,
                                        "order": 5
                                    },
                                    {
                                        "children": [],
                                        "depth": 2,
                                        "id": 6,
                                        "order": 6
                                    },
                                    {
                                        "children": [
                                            {
                                                "children": [
                                                    {
                                                        "children": [],
                                                        "depth": 4,
                                                        "id": 9,
                                                        "order": 9
                                                    }
                                                ],
                                                "depth": 3,
                                                "id": 8,
                                                "order": 8
                                            }
                                        ],
                                        "depth": 2,
                                        "id": 7,
                                        "order": 7
                                    }
                                ],
                                "depth": 1,
                                "id": 1,
                                "order": 1
                            }
                        ],
                        "depth": 0,
                        "id": 0,
                        "order": 0
                    }
                ],
                "depth": -1,
                "id": -1,
                "order": -1
            }
        ],
        "tidyTraceNodeCount": 8
    },
    "state_change": {
        "stateChanges": [
            {
                "address": "0x0000000000a39bb272e79075ade125fd351887ac",
                "erc": "",
                "slots": [
                    {
                        "current": "0x000000000000000000000000000000000000000000000001e188bea88795690f",
                        "key": "0xae1a71c3f67ba9c3790de54d7f3c80fa6a992d632cdabd0a581b133be624c2b6",
                        "prev": "0x000000000000000000000000000000000000000000000002da1533ea714c7434"
                    },
                    {
                        "current": "0x00000000000000000000000000000000000000000000000109920ee0e697ef47",
                        "key": "0x7ba9280d828a6721923ed5d09ebb60829385433056bda83d36e77668b33c63a0",
                        "prev": "0x0000000000000000000000000000000000000000000000001105999efce0e422"
                    }
                ],
                "storageVariables": [
                    {
                        "name": "_balances",
                        "type": "mapping(address => uint256)",
                        "value": {
                            "pairs": [
                                {
                                    "key": "0x1f802f346004bd9a36617022144a712bf51946d6",
                                    "value": {
                                        "current": "19136374125754838855",
                                        "prev": "1226555381654807586",
                                        "typeTag": 1
                                    }
                                },
                                {
                                    "key": "0xb23a734f49ed11dc3b0dd3ff322b5df95220574e",
                                    "value": {
                                        "current": "34698192960114485519",
                                        "prev": "52608011704214516788",
                                        "typeTag": 1
                                    }
                                }
                            ],
                            "typeTag": 4
                        }
                    }
                ]
            },
            {
                "address": "0x29469395eaf6f95920e59f858042f0e28d98a20b",
                "erc": "",
                "slots": [
                    {
                        "current": "0xb4b5079589329fb69c8a407e4f985575c670769c9d8aa16953cae49b3fe51e9d",
                        "key": "0x68ec06da3f952b83c5be080f46ac9bf512a6b34a6c43cee46a47895d71b812da",
                        "prev": "0x943ede1289f4d0f57e115d94e55854d5f8e445a20afb2ef4c99ff32d32a3b338"
                    },
                    {
                        "current": "0x000000000000000000000000000000000000000000000000f88c7541e9b70b25",
                        "key": "0xe61948ad589e0e2478bb7bbfe16a965d0ce878b42b8010d6a6e90349ac521f78",
                        "prev": "0x0000000000000000000000000000000000000000000000000000000000000000"
                    }
                ],
                "storageVariables": [
                    {
                        "name": "liens",
                        "type": "mapping(uint256 => bytes32)",
                        "value": {
                            "pairs": [
                                {
                                    "key": "76190",
                                    "value": {
                                        "current": "0xb4b5079589329fb69c8a407e4f985575c670769c9d8aa16953cae49b3fe51e9d",
                                        "prev": "0x943ede1289f4d0f57e115d94e55854d5f8e445a20afb2ef4c99ff32d32a3b338",
                                        "typeTag": 1
                                    }
                                }
                            ],
                            "typeTag": 4
                        }
                    },
                    {
                        "name": "amountTaken",
                        "type": "mapping(bytes32 => uint256)",
                        "value": {
                            "pairs": [
                                {
                                    "key": "0x99404eb33292d1bdcd2ee6924610e53e15d76e1a6de5aa7a0161fb88e93e72de",
                                    "value": {
                                        "current": "17909818744100031269",
                                        "prev": "0",
                                        "typeTag": 1
                                    }
                                }
                            ],
                            "typeTag": 4
                        }
                    }
                ]
            }
        ]
    }
}