{
    "balance_change": {
        "balanceChanges": [
            {
                "account": "0x6f6c09ea0ef90fca1861d107f873e0ef057a6c5e",
                "assets": [
                    {
                        "address": "0x00e150d741eda1d49d341189cae4c08a73a49c95",
                        "amount": "1,000",
                        "iconUrl": "",
                        "isERC1155": false,
                        "isERC721": false,
                        "sign": false,
                        "value": ""
                    }
                ]
            },
            {
                "account": "0x6663f3fe7b22738e7a12bae8d1a910bf54eb484d",
                "assets": [
                    {
                        "address": "0x00e150d741eda1d49d341189cae4c08a73a49c95",
                        "amount": "1,000",
                        "iconUrl": "",
                        "isERC1155": false,
                        "isERC721": false,
                        "sign": true,
                        "value": ""
                    }
                ]
            }
        ]
    },
    "profile": {
        "basic_info": {
            "baseFee": "",
            "blockNumber": 9539456,
            "callData": "0xa9059cbb0000000000000000000000006663f3fe7b22738e7a12bae8d1a910bf54eb484d00000000000000000000000000000000000000000000003635c9adc5dea00000",
            "debugEnable": true,
            "errorInfo": "",
            "eventCount": 1,
            "feeRecipient": "0x5a0b54d5dc17e0aadc383d2db43b0a0d3e029c4c",
            "formatValue": "0",
            "gasLimit": 51733,
            "gasPrice": "1",
            "gasUsed": 51733,
            "intTxnCount": 0,
            "internalRevert": false,
            "internalRevertMessage": "",
            "isContractCreation": false,
            "isFlashloan": false,
            "maxFee": "",
            "nonce": 64210,
            "overwritedBlockNumber": -1,
            "priorityFee": "",
            "receiver": "0x00e150d741eda1d49d341189cae4c08a73a49c95",
            "revertMessage": "",
            "sender": "0x6f6c09ea0ef90fca1861d107f873e0ef057a6c5e",
            "simulationEnable": true,
            "sourceTxnHash": "0xca252845a32cd39f8668f958dc70c7b7d5b3b1eb75890ffc16854c8330ffd973",
            "status": true,
            "timestamp": "2020-02-23T11:52:38Z",
            "transactionFee": "0.000051733",
            "txnHash": "0xca252845a32cd39f8668f958dc70c7b7d5b3b1eb75890ffc16854c8330ffd973",
            "txnIndex": 59,
            "type": 0,
            "value": "0"
        },
        "fund_flow": [
            {
                "amount": "1,000",
                "from": "0x6f6c09ea0ef90fca1861d107f873e0ef057a6c5e",
                "id": 1,
                "isERC1155": false,
                "isERC721": false,
                "isReverted": false,
                "order": 1,
                "to": "0x6663f3fe7b22738e7a12bae8d1a910bf54eb484d",
                "token": "0x00e150d741eda1d49d341189cae4c08a73a49c95"
            }
        ],
        "token_infos": [
            {
                "address": "0x00e150d741eda1d49d341189cae4c08a73a49c95",
                "decimals": 18
            },
            {
                "address": "0xc02aaa39b223fe8d0a0e5c4f27ead9083c756cc2",
                "decimals": 18
            },
            {
                "address": "0xeeeeeeeeeeeeeeeeeeeeeeeeeeeeeeeeeeeeeeee",
                "decimals": 18
            }
        ]
    },
    "address_label": {
        "labels": [
            {
                "address": "0x0000000000000000000000000000000000000003",
                "label": "Precompiled"
            },
            {
                "address": "0x0000000000000000000000000000000000000004",
                "label": "Precompiled"
            },
            {
                "address": "0xeeeeeeeeeeeeeeeeeeeeeeeeeeeeeeeeeeeeeeee",
                "label": "Ether"
            },
            {
                "address": "0x00e150d741eda1d49d341189cae4c08a73a49c95",
                "label": "Infinitus Token"
            },
            {
                "address": "0x0000000000000000000000000000000000000001",
                "label": "Precompiled"
            },
            {
                "address": "0x0000000000000000000000000000000000000002",
                "label": "Precompiled"
            }
        ]
    },
    "trace": {
        "accountLabels": null,
        "dataMap": {
            "-1": {
                "invocation": {
                    "address": "0x6f6c09ea0ef90fca1861d107f873e0ef057a6c5e",
                    "callData": "",
                    "decodedMethod": null,
                    "errorInfo": "",
                    "fromAddress": "",
                    "gasUsed": 0,
                    "id": -1,
                    "methodDecoded": false,
                    "operation": "",
                    "output": "",
                    "revert": false,
                    "revertMessage": "",
                    "selector": "",
                    "status": false,
                    "value": ""
                },
                "nodeType": 0
            },
            "0": {
                "invocation": {
                    "address": "0x00e150d741eda1d49d341189cae4c08a73a49c95",
                    "callData": "0x0000000000000000000000006663f3fe7b22738e7a12bae8d1a910bf54eb484d00000000000000000000000000000000000000000000003635c9adc5dea00000",
                    "decodedMethod": {
                        "callParams": [
                            {
                                "name": "_to",
                                "type": "address",
                                "value": "0x6663f3fe7b22738e7a12bae8d1a910bf54eb484d"
                            },
                            {
                                "decimalAvailable": true,
                                "name": "_value",
                                "type": "uint256",
                                "value": "1,000,000,000,000,000,000,000"
                            }
                        ],
                        "constructorArguments": "",
                        "name": "transfer",
                        "returnParams": [
                            {
                                "name": "success",
                                "type": "bool",
                                "value": true
                            }
                        ],
                        "signature": "transfer(address,uint256)"
                    },
                    "errorInfo": "",
                    "fromAddress": "0x6f6c09ea0ef90fca1861d107f873e0ef057a6c5e",
                    "gasUsed": 51733,
                    "id": 0,
                    "methodDecoded": true,
                    "operation": "CALL",
                    "output": "0x0000000000000000000000000000000000000000000000000000000000000001",
                    "revert": false,
                    "revertMessage": "",
                    "selector": "0xa9059cbb",
                    "status": true,
                    "value": "0"
                },
                "nodeType": 0
            },
            "1": {
                "event": {
                    "contract": "0x00e150d741eda1d49d341189cae4c08a73a49c95",
                    "decodedLog": {
                        "name": "Transfer",
                        "params": [
                            {
                                "name": "_from",
                                "type": "address",
                                "value": "0x6f6c09ea0ef90fca1861d107f873e0ef057a6c5e"
                            },
                            {
                                "name": "_to",
                                "type": "address",
                                "value": "0x6663f3fe7b22738e7a12bae8d1a910bf54eb484d"
                            },
                            {
                                "decimalAvailable": true,
                                "name": "_value",
                                "type": "uint256",
                                "value": "1,000,000,000,000,000,000,000"
                            }
                        ],
                        "signature": "Transfer(address,address,uint256)"
                    },
                    "id": 1,
                    "logData": "0x00000000000000000000000000000000000000000000003635c9adc5dea00000",
                    "logDecoded": true,
                    "operation": "EVENT",
                    "revert": false,
                    "status": true,
                    "topics": [
                        "0xddf252ad1be2c89b69c2b068fc378daa952ba7f163c4a11628f55a4df523b3ef",
                        "0x0000000000000000000000006f6c09ea0ef90fca1861d107f873e0ef057a6c5e",
                        "0x0000000000000000000000006663f3fe7b22738e7a12bae8d1a910bf54eb484d"
                    ]
                },
                "nodeType": 1
            }
        },
        "gasFlame": [
            {
                "children": [
                    {
                        "children": [
                            {
                                "children": [],
                                "depth": 0,
                                "name": "Initial Gas",
                                "value": 21644
                            },
                            {
                                "children": [],
                                "depth": 0,
                                "name": "Executed Gas",
                                "value": 30089
                            }
                        ],
                        "depth": -1,
                        "name": "Actual Gas Used",
                        "value": 51733
                    },
                    {
                        "children": [],
                        "depth": -1,
                        "name": "Refunded Gas",
                        "value": 0
                    }
                ],
                "depth": -2,
                "name": "Total Gas",
                "value": 51733
            }
        ],
        "isConfirmed": true,
        "mainTrace": [
            {
                "children": [
                    {
                        "children": [
                            {
                                "children": [],
                                "depth": 1,
                                "id": 1,
                                "order": 1
                            }
                        ],
                        "depth": 0,
                        "id": 0,
                        "order": 0
                    }
                ],
                "depth": -1,
                "id": -1,
                "order": -1
            }
        ],
        "mainTraceNodeCount": 2,
        "parentIdMap": {
            "0": -1,
            "1": 0
        },
        "tidyTrace": [
            {
                "children": [
                    {
                        "children": [
                            {
                                "children": [],
                                "depth": 1,
                                "id": 1,
                                "order": 1
                            }
                        ],
                        "depth": 0,
                        "id": 0,
                        "order": 0
                    }
                ],
                "depth": -1,
                "id": -1,
                "order": -1
            }
        ],
        "tidyTraceNodeCount": 2
    },
    "state_change": {
        "stateChanges": [
            {
                "address": "0x00e150d741eda1d49d341189cae4c08a73a49c95",
                "erc": "ERC-20",
                "slots": [
                    {
                        "current": "0x000000000000000000000000000000000000000000027bc3602aeedd899ad400",
                        "key": "0x7701675f66636f6af02ce2d46202b15e1d9a1edc13f83ad744ba756a5ebc1f9e",
                        "prev": "0x000000000000000000000000000000000000000000027bf995f49ca3683ad400"
                    },
                    {
                        "current": "0x00000000000000000000000000000000000000000000003635c9adc5dea00000",
                        "key": "0x444cb1f30336969819bb0a822e5da730febfc3ed68077ae81229f5748756108a",
                        "prev": "0x0000000000000000000000000000000000000000000000000000000000000000"
                    }
                ],
                "storageVariables": []
            }
        ]
    }
}