{
    "balance_change": {
        "balanceChanges": [
            {
                "account": "0xe99fd1461a783bfa58feb19ff1dc45453c5891b5",
                "assets": [
                    {
                        "address": "0xf230b790e05390fc8295f4d3f60332c93bed42e2",
                        "amount": "1,700.162972",
                        "iconUrl": "",
                        "isERC1155": false,
                        "isERC721": false,
                        "sign": true,
                        "value": ""
                    }
                ]
            },
            {
                "account": "0x8d12a197cb00d4747a1fe03395095ce2a5cc6819",
                "assets": [
                    {
                        "address": "0xf230b790e05390fc8295f4d3f60332c93bed42e2",
                        "amount": "1,700.162972",
                        "iconUrl": "",
                        "isERC1155": false,
                        "isERC721": false,
                        "sign": false,
                        "value": ""
                    }
                ]
            }
        ]
    },
    "profile": {
        "basic_info": {
            "baseFee": "",
            "blockNumber": 4930470,
            "callData": "0x9e281a98000000000000000000000000f230b790e05390fc8295f4d3f60332c93bed42e20000000000000000000000000000000000000000000000000000000065566d9c",
            "debugEnable": true,
            "errorInfo": "",
            "eventCount": 2,
            "feeRecipient": "0x52bc44d5378309ee2abf1539bf71de1b7d7be3b5",
            "formatValue": "0",
            "gasLimit": 250000,
            "gasPrice": "27",
            "gasUsed": 48044,
            "intTxnCount": 1,
            "internalRevert": false,
            "internalRevertMessage": "",
            "isContractCreation": false,
            "isFlashloan": false,
            "maxFee": "",
            "nonce": 689,
            "overwritedBlockNumber": -1,
            "priorityFee": "",
            "receiver": "0x8d12a197cb00d4747a1fe03395095ce2a5cc6819",
            "revertMessage": "",
            "sender": "0xe99fd1461a783bfa58feb19ff1dc45453c5891b5",
            "simulationEnable": true,
            "sourceTxnHash": "0xca87199487885ff77ed55aebd4f06f2af4b51a8826f8ba7005f732690be6aa1a",
            "status": true,
            "timestamp": "2018-01-18T18:22:25Z",
            "transactionFee": "0.001297188",
            "txnHash": "0xca87199487885ff77ed55aebd4f06f2af4b51a8826f8ba7005f732690be6aa1a",
            "txnIndex": 98,
            "type": 0,
            "value": "0"
        },
        "fund_flow": [
            {
                "amount": "1,700.162972",
                "from": "0x8d12a197cb00d4747a1fe03395095ce2a5cc6819",
                "id": 1,
                "isERC1155": false,
                "isERC721": false,
                "isReverted": false,
                "order": 1,
                "to": "0xe99fd1461a783bfa58feb19ff1dc45453c5891b5",
                "token": "0xf230b790e05390fc8295f4d3f60332c93bed42e2"
            }
        ],
        "token_infos": [
            {
                "address": "0xc02aaa39b223fe8d0a0e5c4f27ead9083c756cc2",
                "decimals": 18
            },
            {
                "address": "0xf230b790e05390fc8295f4d3f60332c93bed42e2",
                "decimals": 6
            },
            {
                "address": "0xeeeeeeeeeeeeeeeeeeeeeeeeeeeeeeeeeeeeeeee",
                "decimals": 18
            }
        ]
    },
    "address_label": {
        "labels": [
            {
                "address": "0xeeeeeeeeeeeeeeeeeeeeeeeeeeeeeeeeeeeeeeee",
                "label": "Ether"
            },
            {
                "address": "0x8d12a197cb00d4747a1fe03395095ce2a5cc6819",
                "label": "EtherDelta"
            },
            {
                "address": "0xf230b790e05390fc8295f4d3f60332c93bed42e2",
                "label": "TRON: Old TRX Token"
            },
            {
                "address": "0x0000000000000000000000000000000000000001",
                "label": "Precompiled"
            },
            {
                "address": "0x0000000000000000000000000000000000000002",
                "label": "Precompiled"
            },
            {
                "address": "0x0000000000000000000000000000000000000003",
                "label": "Precompiled"
            },
            {
                "address": "0x0000000000000000000000000000000000000004",
                "label": "Precompiled"
            }
        ]
    },
    "trace": {
        "accountLabels": null,
        "dataMap": {
            "-1": {
                "invocation": {
                    "address": "0xe99fd1461a783bfa58feb19ff1dc45453c5891b5",
                    "callData": "",
                    "decodedMethod": null,
                    "errorInfo": "",
                    "fromAddress": "",
                    "gasUsed": 0,
                    "id": -1,
                    "methodDecoded": false,
                    "operation": "",
                    "output": "",
                    "revert": false,
                    "revertMessage": "",
                    "selector": "",
                    "status": false,
                    "value": ""
                },
                "nodeType": 0
            },
            "0": {
                "invocation": {
                    "address": "0x8d12a197cb00d4747a1fe03395095ce2a5cc6819",
                    "callData": "0x000000000000000000000000f230b790e05390fc8295f4d3f60332c93bed42e20000000000000000000000000000000000000000000000000000000065566d9c",
                    "decodedMethod": {
                        "callParams": [
                            {
                                "name": "token",
                                "type": "address",
                                "value": "0xf230b790e05390fc8295f4d3f60332c93bed42e2"
                            },
                            {
                                "name": "amount",
                                "type": "uint256",
                                "value": "1,700,162,972"
                            }
                        ],
                        "constructorArguments": "",
                        "name": "withdrawToken",
                        "returnParams": [],
                        "signature": "withdrawToken(address,uint256)"
                    },
                    "errorInfo": "",
                    "fromAddress": "0xe99fd1461a783bfa58feb19ff1dc45453c5891b5",
                    "gasUsed": 48044,
                    "id": 0,
                    "methodDecoded": true,
                    "operation": "CALL",
                    "output": "",
                    "revert": false,
                    "revertMessage": "",
                    "selector": "0x9e281a98",
                    "status": true,
                    "value": "0"
                },
                "nodeType": 0
            },
            "1": {
                "invocation": {
                    "address": "0xf230b790e05390fc8295f4d3f60332c93bed42e2",
                    "callData": "0x000000000000000000000000e99fd1461a783bfa58feb19ff1dc45453c5891b50000000000000000000000000000000000000000000000000000000065566d9c",
                    "decodedMethod": {
                        "callParams": [
                            {
                                "name": "_to",
                                "type": "address",
                                "value": "0xe99fd1461a783bfa58feb19ff1dc45453c5891b5"
                            },
                            {
                                "decimalAvailable": true,
                                "name": "_value",
                                "type": "uint256",
                                "value": "1,700,162,972"
                            }
                        ],
                        "constructorArguments": "",
                        "name": "transfer",
                        "returnParams": [
                            {
                                "name": "success",
                                "type": "bool",
                                "value": true
                            }
                        ],
                        "signature": "transfer(address,uint256)"
                    },
                    "errorInfo": "",
                    "fromAddress": "0x8d12a197cb00d4747a1fe03395095ce2a5cc6819",
                    "gasUsed": 29027,
                    "id": 1,
                    "methodDecoded": true,
                    "operation": "CALL",
                    "output": "0x0000000000000000000000000000000000000000000000000000000000000001",
                    "revert": false,
                    "revertMessage": "",
                    "selector": "0xa9059cbb",
                    "status": true,
                    "value": "0"
                },
                "nodeType": 0
            },
            "2": {
                "event": {
                    "contract": "0xf230b790e05390fc8295f4d3f60332c93bed42e2",
                    "decodedLog": {
                        "name": "Transfer",
                        "params": [
                            {
                                "name": "_from",
                                "type": "address",
                                "value": "0x8d12a197cb00d4747a1fe03395095ce2a5cc6819"
                            },
                            {
                                "name": "_to",
                                "type": "address",
                                "value": "0xe99fd1461a783bfa58feb19ff1dc45453c5891b5"
                            },
                            {
                                "decimalAvailable": true,
                                "name": "_value",
                                "type": "uint256",
                                "value": "1,700,162,972"
                            }
                        ],
                        "signature": "Transfer(address,address,uint256)"
                    },
                    "id": 2,
                    "logData": "0x0000000000000000000000000000000000000000000000000000000065566d9c",
                    "logDecoded": true,
                    "operation": "EVENT",
                    "revert": false,
                    "status": true,
                    "topics": [
                        "0xddf252ad1be2c89b69c2b068fc378daa952ba7f163c4a11628f55a4df523b3ef",
                        "0x0000000000000000000000008d12a197cb00d4747a1fe03395095ce2a5cc6819",
                        "0x000000000000000000000000e99fd1461a783bfa58feb19ff1dc45453c5891b5"
                    ]
                },
                "nodeType": 1
            },
            "3": {
                "event": {
                    "contract": "0x8d12a197cb00d4747a1fe03395095ce2a5cc6819",
                    "decodedLog": {
                        "name": "Withdraw",
                        "params": [
                            {
                                "name": "token",
                                "type": "address",
                                "value": "0xf230b790e05390fc8295f4d3f60332c93bed42e2"
                            },
                            {
                                "name": "user",
                                "type": "address",
                                "value": "0xe99fd1461a783bfa58feb19ff1dc45453c5891b5"
                            },
                            {
                                "name": "amount",
                                "type": "uint256",
                                "value": "1,700,162,972"
                            },
                            {
                                "name": "balance",
                                "type": "uint256",
                                "value": "0"
                            }
                        ],
                        "signature": "Withdraw(address,address,uint256,uint256)"
                    },
                    "id": 3,
                    "logData": "0x000000000000000000000000f230b790e05390fc8295f4d3f60332c93bed42e2000000000000000000000000e99fd1461a783bfa58feb19ff1dc45453c5891b50000000000000000000000000000000000000000000000000000000065566d9c0000000000000000000000000000000000000000000000000000000000000000",
                    "logDecoded": true,
                    "operation": "EVENT",
                    "revert": false,
                    "status": true,
                    "topics": [
                        "0xf341246adaac6f497bc2a656f546ab9e182111d630394f0c57c710a59a2cb567"
                    ]
                },
                "nodeType": 1
            }
        },
        "gasFlame": [
            {
                "children": [
                    {
                        "children": [
                            {
                                "children": [],
                                "depth": 0,
                                "name": "Initial Gas",
                                "value": 23064
                            },
                            {
                                "children": [
                                    {
                                        "children": [],
                                        "depth": 1,
                                        "name": "transfer",
                                        "value": 29027
                                    }
                                ],
                                "depth": 0,
                                "name": "Executed Gas",
                                "value": 39980
                            }
                        ],
                        "depth": -1,
                        "name": "Actual Gas Used",
                        "value": 48044
                    },
                    {
                        "children": [],
                        "depth": -1,
                        "name": "Refunded Gas",
                        "value": 15000
                    }
                ],
                "depth": -2,
                "name": "Total Gas",
                "value": 63044
            }
        ],
        "isConfirmed": true,
        "mainTrace": [
            {
                "children": [
                    {
                        "children": [
                            {
                                "children": [
                                    {
                                        "children": [],
                                        "depth": 2,
                                        "id": 2,
                                        "order": 2
                                    }
                                ],
                                "depth": 1,
                                "id": 1,
                                "order": 1
                            },
                            {
                                "children": [],
                                "depth": 1,
                                "id": 3,
                                "order": 3
                            }
                        ],
                        "depth": 0,
                        "id": 0,
                        "order": 0
                    }
                ],
                "depth": -1,
                "id": -1,
                "order": -1
            }
        ],
        "mainTraceNodeCount": 4,
        "parentIdMap": {
            "0": -1,
            "1": 0,
            "2": 1,
            "3": 0
        },
        "tidyTrace": [
            {
                "children": [
                    {
                        "children": [
                            {
                                "children": [
                                    {
                                        "children": [],
                                        "depth": 2,
                                        "id": 2,
                                        "order": 2
                                    }
                                ],
                                "depth": 1,
                                "id": 1,
                                "order": 1
                            },
                            {
                                "children": [],
                                "depth": 1,
                                "id": 3,
                                "order": 3
                            }
                        ],
                        "depth": 0,
                        "id": 0,
                        "order": 0
                    }
                ],
                "depth": -1,
                "id": -1,
                "order": -1
            }
        ],
        "tidyTraceNodeCount": 4
    },
    "state_change": {
        "stateChanges": [
            {
                "address": "0x8d12a197cb00d4747a1fe03395095ce2a5cc6819",
                "erc": "",
                "slots": [
                    {
                        "current": "0x0000000000000000000000000000000000000000000000000000000000000000",
                        "key": "0x20b55f30f9112640ca3091d42a2f3e2ddb6d45567b503497c30f82594dfc2b5b",
                        "prev": "0x0000000000000000000000000000000000000000000000000000000065566d9c"
                    }
                ],
                "storageVariables": []
            },
            {
                "address": "0xf230b790e05390fc8295f4d3f60332c93bed42e2",
                "erc": "ERC-20",
                "slots": [
                    {
                        "current": "0x00000000000000000000000000000000000000000000000000001baa0f1a0df0",
                        "key": "0xdaa572bdb7ae37f685c21c8a4da9a33d99f2c72007cb5a2e3ed0af75d58445a5",
                        "prev": "0x00000000000000000000000000000000000000000000000000001baa74707b8c"
                    },
                    {
                        "current": "0x0000000000000000000000000000000000000000000000000000000065566d9c",
                        "key": "0xb2861aba2f0952ca48a94539d969e46da053cca9f0204c1571a0ebc41fc12505",
                        "prev": "0x0000000000000000000000000000000000000000000000000000000000000000"
                    }
                ],
                "storageVariables": [
                    {
                        "name": "balanceOf",
                        "type": "mapping(address => uint256)",
                        "value": {
                            "pairs": [
                                {
                                    "key": "0x8d12a197cb00d4747a1fe03395095ce2a5cc6819",
                                    "value": {
                                        "current": "30417211756016",
                                        "prev": "30418911918988",
                                        "typeTag": 1
                                    }
                                },
                                {
                                    "key": "0xe99fd1461a783bfa58feb19ff1dc45453c5891b5",
                                    "value": {
                                        "current": "1700162972",
                                        "prev": "0",
                                        "typeTag": 1
                                    }
                                }
                            ],
                            "typeTag": 4
                        }
                    }
                ]
            }
        ]
    }
}