{
    "balance_change": {
        "balanceChanges": [
            {
                "account": "0xa57bd00134b2850b2a1c55860c9e9ea100fdd6cf",
                "assets": [
                    {
                        "address": "0xc02aaa39b223fe8d0a0e5c4f27ead9083c756cc2",
                        "amount": "22.5",
                        "iconUrl": "https://assets.blocksec.com/icon/f1cb2d02c471d545bbc7722daf3277fd852d98e63d118771af7047bd8256c516.png",
                        "isERC1155": false,
                        "isERC721": false,
                        "sign": false,
                        "value": ""
                    }
                ]
            },
            {
                "account": "0x794e6e91555438afc3ccf1c5076a74f42133d08d",
                "assets": [
                    {
                        "address": "0xc02aaa39b223fe8d0a0e5c4f27ead9083c756cc2",
                        "amount": "22.5",
                        "iconUrl": "https://assets.blocksec.com/icon/f1cb2d02c471d545bbc7722daf3277fd852d98e63d118771af7047bd8256c516.png",
                        "isERC1155": false,
                        "isERC721": false,
                        "sign": true,
                        "value": ""
                    }
                ]
            }
        ]
    },
    "profile": {
        "basic_info": {
            "baseFee": "",
            "blockNumber": 9981788,
            "callData": "0x1cff79cd000000000000000000000000ba79abfe63e5697e8741945b3391c5dbf309f19a000000000000000000000000000000000000000000000000000000000000004000000000000000000000000000000000000000000000000000000000000000b8794e6e91555438afc3ccf1c5076a74f42133d08d1b33d41200000000000000000000000000000000000000000000000138400eca364a0000000000000000000000000000c02aaa39b223fe8d0a0e5c4f27ead9083c756cc20000000000000000000000000000000000000000000000fd9ac494a37918d4400000000000000000000000006b175474e89094c44da98b954eedeac495271d0f00000000000000000000000000000000000000000000000000000000000000000000000000000000",
            "debugEnable": true,
            "errorInfo": "",
            "eventCount": 4,
            "feeRecipient": "0x5a0b54d5dc17e0aadc383d2db43b0a0d3e029c4c",
            "formatValue": "0",
            "gasLimit": 600000,
            "gasPrice": "8.0008",
            "gasUsed": 238189,
            "intTxnCount": 3,
            "internalRevert": false,
            "internalRevertMessage": "",
            "isContractCreation": false,
            "isFlashloan": false,
            "maxFee": "",
            "nonce": 31570,
            "overwritedBlockNumber": -1,
            "priorityFee": "",
            "receiver": "0xa57bd00134b2850b2a1c55860c9e9ea100fdd6cf",
            "revertMessage": "",
            "sender": "0xd33c0674da79517322e601326cfee113e8e0629d",
            "simulationEnable": true,
            "sourceTxnHash": "0xca0b001e69edc40b8fecf9d11970747de52d9ae7e21d490156ebca506c9e8de6",
            "status": true,
            "timestamp": "2020-05-01T17:51:30Z",
            "transactionFee": "0.0019057025512",
            "txnHash": "0xca0b001e69edc40b8fecf9d11970747de52d9ae7e21d490156ebca506c9e8de6",
            "txnIndex": 3,
            "type": 0,
            "value": "0"
        },
        "fund_flow": [
            {
                "amount": "22.5",
                "from": "0xa57bd00134b2850b2a1c55860c9e9ea100fdd6cf",
                "id": 1,
                "isERC1155": false,
                "isERC721": false,
                "isReverted": false,
                "order": 1,
                "to": "0x794e6e91555438afc3ccf1c5076a74f42133d08d",
                "token": "0xc02aaa39b223fe8d0a0e5c4f27ead9083c756cc2"
            }
        ],
        "token_infos": [
            {
                "address": "0xc02aaa39b223fe8d0a0e5c4f27ead9083c756cc2",
                "decimals": 18
            },
            {
                "address": "0xeeeeeeeeeeeeeeeeeeeeeeeeeeeeeeeeeeeeeeee",
                "decimals": 18
            }
        ]
    },
    "address_label": {
        "labels": [
            {
                "address": "0x6b175474e89094c44da98b954eedeac495271d0f",
                "label": "Sky: Dai Stablecoin"
            },
            {
                "address": "0xc02aaa39b223fe8d0a0e5c4f27ead9083c756cc2",
                "label": "Wrapped Ether (WETH)"
            },
            {
                "address": "0x794e6e91555438afc3ccf1c5076a74f42133d08d",
                "label": "OasisDEX"
            },
            {
                "address": "0x0000000000000000000000000000000000000002",
                "label": "Precompiled"
            },
            {
                "address": "0x0000000000000000000000000000000000000003",
                "label": "Precompiled"
            },
            {
                "address": "0x0000000000000000000000000000000000000004",
                "label": "Precompiled"
            },
            {
                "address": "0xeeeeeeeeeeeeeeeeeeeeeeeeeeeeeeeeeeeeeeee",
                "label": "Ether"
            },
            {
                "address": "0xa57bd00134b2850b2a1c55860c9e9ea100fdd6cf",
                "label": "MEV Bot: 0xa57...6CF"
            },
            {
                "address": "0x0000000000000000000000000000000000000001",
                "label": "Precompiled"
            }
        ]
    },
    "trace": {
        "accountLabels": null,
        "dataMap": {
            "-1": {
                "invocation": {
                    "address": "0xd33c0674da79517322e601326cfee113e8e0629d",
                    "callData": "",
                    "decodedMethod": null,
                    "errorInfo": "",
                    "fromAddress": "",
                    "gasUsed": 0,
                    "id": -1,
                    "methodDecoded": false,
                    "operation": "",
                    "output": "",
                    "revert": false,
                    "revertMessage": "",
                    "selector": "",
                    "status": false,
                    "value": ""
                },
                "nodeType": 0
            },
            "0": {
                "invocation": {
                    "address": "0xa57bd00134b2850b2a1c55860c9e9ea100fdd6cf",
                    "callData": "0x000000000000000000000000ba79abfe63e5697e8741945b3391c5dbf309f19a000000000000000000000000000000000000000000000000000000000000004000000000000000000000000000000000000000000000000000000000000000b8794e6e91555438afc3ccf1c5076a74f42133d08d1b33d41200000000000000000000000000000000000000000000000138400eca364a0000000000000000000000000000c02aaa39b223fe8d0a0e5c4f27ead9083c756cc20000000000000000000000000000000000000000000000fd9ac494a37918d4400000000000000000000000006b175474e89094c44da98b954eedeac495271d0f00000000000000000000000000000000000000000000000000000000000000000000000000000000",
                    "decodedMethod": {
                        "callParams": [
                            {
                                "name": "_target",
                                "type": "address",
                                "value": "0xba79abfe63e5697e8741945b3391c5dbf309f19a"
                            },
                            {
                                "name": "_data",
                                "type": "bytes",
                                "value": "0x794e6e91555438afc3ccf1c5076a74f42133d08d1b33d41200000000000000000000000000000000000000000000000138400eca364a0000000000000000000000000000c02aaa39b223fe8d0a0e5c4f27ead9083c756cc20000000000000000000000000000000000000000000000fd9ac494a37918d4400000000000000000000000006b175474e89094c44da98b954eedeac495271d0f0000000000000000000000000000000000000000000000000000000000000000"
                            }
                        ],
                        "constructorArguments": "",
                        "name": "execute",
                        "returnParams": [],
                        "signature": "execute(address,bytes)"
                    },
                    "errorInfo": "",
                    "fromAddress": "0xd33c0674da79517322e601326cfee113e8e0629d",
                    "gasUsed": 238189,
                    "id": 0,
                    "methodDecoded": true,
                    "operation": "CALL",
                    "output": "",
                    "revert": false,
                    "revertMessage": "",
                    "selector": "0x1cff79cd",
                    "status": true,
                    "value": "0"
                },
                "nodeType": 0
            },
            "1": {
                "invocation": {
                    "address": "0xba79abfe63e5697e8741945b3391c5dbf309f19a",
                    "callData": "0x555438afc3ccf1c5076a74f42133d08d1b33d41200000000000000000000000000000000000000000000000138400eca364a0000000000000000000000000000c02aaa39b223fe8d0a0e5c4f27ead9083c756cc20000000000000000000000000000000000000000000000fd9ac494a37918d4400000000000000000000000006b175474e89094c44da98b954eedeac495271d0f0000000000000000000000000000000000000000000000000000000000000000",
                    "decodedMethod": null,
                    "errorInfo": "",
                    "fromAddress": "0xa57bd00134b2850b2a1c55860c9e9ea100fdd6cf",
                    "gasUsed": 216666,
                    "id": 1,
                    "methodDecoded": false,
                    "operation": "DELEGATECALL",
                    "output": "",
                    "revert": false,
                    "revertMessage": "",
                    "selector": "0x794e6e91",
                    "status": true,
                    "value": "0"
                },
                "nodeType": 0
            },
            "2": {
                "invocation": {
                    "address": "0x794e6e91555438afc3ccf1c5076a74f42133d08d",
                    "callData": "0x00000000000000000000000000000000000000000000000138400eca364a0000000000000000000000000000c02aaa39b223fe8d0a0e5c4f27ead9083c756cc20000000000000000000000000000000000000000000000fd9ac494a37918d4400000000000000000000000006b175474e89094c44da98b954eedeac495271d0f0000000000000000000000000000000000000000000000000000000000000000",
                    "decodedMethod": {
                        "callParams": [
                            {
                                "name": "pay_amt",
                                "type": "uint256",
                                "value": "22,500,000,000,000,000,000"
                            },
                            {
                                "name": "pay_gem",
                                "type": "address",
                                "value": "0xc02aaa39b223fe8d0a0e5c4f27ead9083c756cc2"
                            },
                            {
                                "name": "buy_amt",
                                "type": "uint256",
                                "value": "4,678,178,452,655,625,000,000"
                            },
                            {
                                "name": "buy_gem",
                                "type": "address",
                                "value": "0x6b175474e89094c44da98b954eedeac495271d0f"
                            },
                            {
                                "name": "pos",
                                "type": "uint256",
                                "value": "0"
                            }
                        ],
                        "constructorArguments": "",
                        "name": "offer",
                        "returnParams": [
                            {
                                "name": "",
                                "type": "uint256",
                                "value": "295,347"
                            }
                        ],
                        "signature": "offer(uint256,address,uint256,address,uint256)"
                    },
                    "errorInfo": "",
                    "fromAddress": "0xa57bd00134b2850b2a1c55860c9e9ea100fdd6cf",
                    "gasUsed": 215868,
                    "id": 2,
                    "methodDecoded": true,
                    "operation": "CALL",
                    "output": "0x00000000000000000000000000000000000000000000000000000000000481b3",
                    "revert": false,
                    "revertMessage": "",
                    "selector": "0x1b33d412",
                    "status": true,
                    "value": "0"
                },
                "nodeType": 0
            },
            "3": {
                "invocation": {
                    "address": "0xc02aaa39b223fe8d0a0e5c4f27ead9083c756cc2",
                    "callData": "0x000000000000000000000000a57bd00134b2850b2a1c55860c9e9ea100fdd6cf000000000000000000000000794e6e91555438afc3ccf1c5076a74f42133d08d00000000000000000000000000000000000000000000000138400eca364a0000",
                    "decodedMethod": {
                        "callParams": [
                            {
                                "name": "src",
                                "type": "address",
                                "value": "0xa57bd00134b2850b2a1c55860c9e9ea100fdd6cf"
                            },
                            {
                                "name": "dst",
                                "type": "address",
                                "value": "0x794e6e91555438afc3ccf1c5076a74f42133d08d"
                            },
                            {
                                "decimalAvailable": true,
                                "name": "wad",
                                "type": "uint256",
                                "value": "22,500,000,000,000,000,000"
                            }
                        ],
                        "constructorArguments": "",
                        "name": "transferFrom",
                        "returnParams": [
                            {
                                "name": "",
                                "type": "bool",
                                "value": true
                            }
                        ],
                        "signature": "transferFrom(address,address,uint256)"
                    },
                    "errorInfo": "",
                    "fromAddress": "0x794e6e91555438afc3ccf1c5076a74f42133d08d",
                    "gasUsed": 16025,
                    "id": 3,
                    "methodDecoded": true,
                    "operation": "CALL",
                    "output": "0x0000000000000000000000000000000000000000000000000000000000000001",
                    "revert": false,
                    "revertMessage": "",
                    "selector": "0x23b872dd",
                    "status": true,
                    "value": "0"
                },
                "nodeType": 0
            },
            "4": {
                "event": {
                    "contract": "0xc02aaa39b223fe8d0a0e5c4f27ead9083c756cc2",
                    "decodedLog": {
                        "name": "Transfer",
                        "params": [
                            {
                                "name": "src",
                                "type": "address",
                                "value": "0xa57bd00134b2850b2a1c55860c9e9ea100fdd6cf"
                            },
                            {
                                "name": "dst",
                                "type": "address",
                                "value": "0x794e6e91555438afc3ccf1c5076a74f42133d08d"
                            },
                            {
                                "decimalAvailable": true,
                                "name": "wad",
                                "type": "uint256",
                                "value": "22,500,000,000,000,000,000"
                            }
                        ],
                        "signature": "Transfer(address,address,uint256)"
                    },
                    "id": 4,
                    "logData": "0x00000000000000000000000000000000000000000000000138400eca364a0000",
                    "logDecoded": true,
                    "operation": "EVENT",
                    "revert": false,
                    "status": true,
                    "topics": [
                        "0xddf252ad1be2c89b69c2b068fc378daa952ba7f163c4a11628f55a4df523b3ef",
                        "0x000000000000000000000000a57bd00134b2850b2a1c55860c9e9ea100fdd6cf",
                        "0x000000000000000000000000794e6e91555438afc3ccf1c5076a74f42133d08d"
                    ]
                },
                "nodeType": 1
            },
            "5": {
                "event": {
                    "contract": "0x794e6e91555438afc3ccf1c5076a74f42133d08d",
                    "decodedLog": {
                        "name": "LogItemUpdate",
                        "params": [
                            {
                                "name": "id",
                                "type": "uint256",
                                "value": "295,347"
                            }
                        ],
                        "signature": "LogItemUpdate(uint256)"
                    },
                    "id": 5,
                    "logData": "0x00000000000000000000000000000000000000000000000000000000000481b3",
                    "logDecoded": true,
                    "operation": "EVENT",
                    "revert": false,
                    "status": true,
                    "topics": [
                        "0xa2c251311b1a7a475913900a2a73dc9789a21b04bc737e050bbc506dd4eb3488"
                    ]
                },
                "nodeType": 1
            },
            "6": {
                "event": {
                    "contract": "0x794e6e91555438afc3ccf1c5076a74f42133d08d",
                    "decodedLog": {
                        "name": "LogMake",
                        "params": [
                            {
                                "name": "id",
                                "type": "bytes32",
                                "value": "0x00000000000000000000000000000000000000000000000000000000000481b3"
                            },
                            {
                                "name": "pair",
                                "type": "bytes32",
                                "value": "0xcdd6659bca20e2b28ea10ead902280762ac8977c84459a152f90e561d50edf8c"
                            },
                            {
                                "name": "maker",
                                "type": "address",
                                "value": "0xa57bd00134b2850b2a1c55860c9e9ea100fdd6cf"
                            },
                            {
                                "name": "pay_gem",
                                "type": "address",
                                "value": "0xc02aaa39b223fe8d0a0e5c4f27ead9083c756cc2"
                            },
                            {
                                "name": "buy_gem",
                                "type": "address",
                                "value": "0x6b175474e89094c44da98b954eedeac495271d0f"
                            },
                            {
                                "name": "pay_amt",
                                "type": "uint128",
                                "value": "22,500,000,000,000,000,000"
                            },
                            {
                                "name": "buy_amt",
                                "type": "uint128",
                                "value": "4,678,178,452,655,625,000,000"
                            },
                            {
                                "name": "timestamp",
                                "type": "uint64",
                                "value": "1,588,355,490"
                            }
                        ],
                        "signature": "LogMake(bytes32,bytes32,address,address,address,uint128,uint128,uint64)"
                    },
                    "id": 6,
                    "logData": "0x000000000000000000000000c02aaa39b223fe8d0a0e5c4f27ead9083c756cc20000000000000000000000006b175474e89094c44da98b954eedeac495271d0f00000000000000000000000000000000000000000000000138400eca364a00000000000000000000000000000000000000000000000000fd9ac494a37918d440000000000000000000000000000000000000000000000000000000005eac61a2",
                    "logDecoded": true,
                    "operation": "EVENT",
                    "revert": false,
                    "status": true,
                    "topics": [
                        "0x773ff502687307abfa024ac9f62f9752a0d210dac2ffd9a29e38e12e2ea82c82",
                        "0x00000000000000000000000000000000000000000000000000000000000481b3",
                        "0xcdd6659bca20e2b28ea10ead902280762ac8977c84459a152f90e561d50edf8c",
                        "0x000000000000000000000000a57bd00134b2850b2a1c55860c9e9ea100fdd6cf"
                    ]
                },
                "nodeType": 1
            },
            "7": {
                "event": {
                    "contract": "0x794e6e91555438afc3ccf1c5076a74f42133d08d",
                    "decodedLog": {
                        "name": "LogSortedOffer",
                        "params": [
                            {
                                "name": "id",
                                "type": "uint256",
                                "value": "295,347"
                            }
                        ],
                        "signature": "LogSortedOffer(uint256)"
                    },
                    "id": 7,
                    "logData": "0x00000000000000000000000000000000000000000000000000000000000481b3",
                    "logDecoded": true,
                    "operation": "EVENT",
                    "revert": false,
                    "status": true,
                    "topics": [
                        "0x20fb9bad86c18f7e22e8065258790d9416a7d2df8ff05f80f82c46d38b925acd"
                    ]
                },
                "nodeType": 1
            }
        },
        "gasFlame": [
            {
                "children": [
                    {
                        "children": [
                            {
                                "children": [],
                                "depth": 0,
                                "name": "Initial Gas",
                                "value": 23440
                            },
                            {
                                "children": [
                                    {
                                        "children": [
                                            {
                                                "children": [
                                                    {
                                                        "children": [],
                                                        "depth": 3,
                                                        "name": "transferFrom",
                                                        "value": 16025
                                                    }
                                                ],
                                                "depth": 2,
                                                "name": "offer",
                                                "value": 215868
                                            }
                                        ],
                                        "depth": 1,
                                        "name": "0x794e6e91",
                                        "value": 216666
                                    }
                                ],
                                "depth": 0,
                                "name": "Executed Gas",
                                "value": 218949
                            }
                        ],
                        "depth": -1,
                        "name": "Actual Gas Used",
                        "value": 238189
                    },
                    {
                        "children": [],
                        "depth": -1,
                        "name": "Refunded Gas",
                        "value": 4200
                    }
                ],
                "depth": -2,
                "name": "Total Gas",
                "value": 242389
            }
        ],
        "isConfirmed": true,
        "mainTrace": [
            {
                "children": [
                    {
                        "children": [
                            {
                                "children": [
                                    {
                                        "children": [
                                            {
                                                "children": [
                                                    {
                                                        "children": [],
                                                        "depth": 4,
                                                        "id": 4,
                                                        "order": 4
                                                    }
                                                ],
                                                "depth": 3,
                                                "id": 3,
                                                "order": 3
                                            },
                                            {
                                                "children": [],
                                                "depth": 3,
                                                "id": 5,
                                                "order": 5
                                            },
                                            {
                                                "children": [],
                                                "depth": 3,
                                                "id": 6,
                                                "order": 6
                                            },
                                            {
                                                "children": [],
                                                "depth": 3,
                                                "id": 7,
                                                "order": 7
                                            }
                                        ],
                                        "depth": 2,
                                        "id": 2,
                                        "order": 2
                                    }
                                ],
                                "depth": 1,
                                "id": 1,
                                "order": 1
                            }
                        ],
                        "depth": 0,
                        "id": 0,
                        "order": 0
                    }
                ],
                "depth": -1,
                "id": -1,
                "order": -1
            }
        ],
        "mainTraceNodeCount": 8,
        "parentIdMap": {
            "0": -1,
            "1": 0,
            "2": 1,
            "3": 2,
            "4": 3,
            "5": 2,
            "6": 2,
            "7": 2
        },
        "tidyTrace": [
            {
                "children": [
                    {
                        "children": [
                            {
                                "children": [
                                    {
                                        "children": [
                                            {
                                                "children": [
                                                    {
                                                        "children": [],
                                                        "depth": 4,
                                                        "id": 4,
                                                        "order": 4
                                                    }
                                                ],
                                                "depth": 3,
                                                "id": 3,
                                                "order": 3
                                            },
                                            {
                                                "children": [],
                                                "depth": 3,
                                                "id": 5,
                                                "order": 5
                                            },
                                            {
                                                "children": [],
                                                "depth": 3,
                                                "id": 6,
                                                "order": 6
                                            },
                                            {
                                                "children": [],
                                                "depth": 3,
                                                "id": 7,
                                                "order": 7
                                            }
                                        ],
                                        "depth": 2,
                                        "id": 2,
                                        "order": 2
                                    }
                                ],
                                "depth": 1,
                                "id": 1,
                                "order": 1
                            }
                        ],
                        "depth": 0,
                        "id": 0,
                        "order": 0
                    }
                ],
                "depth": -1,
                "id": -1,
                "order": -1
            }
        ],
        "tidyTraceNodeCount": 8
    },
    "state_change": {
        "stateChanges": [
            {
                "address": "0x794e6e91555438afc3ccf1c5076a74f42133d08d",
                "erc": "",
                "slots": [
                    {
                        "current": "0x00000000000000000000000000000000000000000000000138400eca364a0000",
                        "key": "0x251fb4b0836cbf2b712c76d5c5b643c7c5871b9d539ad6648acf76b685fd0ee4",
                        "prev": "0x0000000000000000000000000000000000000000000000000000000000000000"
                    },
                    {
                        "current": "0x0000000000000000000000000000000000000000000000fd9ac494a37918d440",
                        "key": "0x251fb4b0836cbf2b712c76d5c5b643c7c5871b9d539ad6648acf76b685fd0ee6",
                        "prev": "0x0000000000000000000000000000000000000000000000000000000000000000"
                    },
                    {
                        "current": "0x00000000000000000000000000000000000000000000000000000000000481b2",
                        "key": "0xb45cb8cc731f53653677e08f40d4bdaaed312282d4dec37ba26f156bb703595f",
                        "prev": "0x0000000000000000000000000000000000000000000000000000000000000000"
                    },
                    {
                        "current": "0x00000000000000005eac61a2a57bd00134b2850b2a1c55860c9e9ea100fdd6cf",
                        "key": "0x251fb4b0836cbf2b712c76d5c5b643c7c5871b9d539ad6648acf76b685fd0ee8",
                        "prev": "0x0000000000000000000000000000000000000000000000000000000000000000"
                    },
                    {
                        "current": "0x00000000000000000000000000000000000000000000000000000000000481b3",
                        "key": "0x0000000000000000000000000000000000000000000000000000000000000002",
                        "prev": "0x00000000000000000000000000000000000000000000000000000000000481b2"
                    },
                    {
                        "current": "0x000000000000000000000000c02aaa39b223fe8d0a0e5c4f27ead9083c756cc2",
                        "key": "0x251fb4b0836cbf2b712c76d5c5b643c7c5871b9d539ad6648acf76b685fd0ee5",
                        "prev": "0x0000000000000000000000000000000000000000000000000000000000000000"
                    },
                    {
                        "current": "0x0000000000000000000000006b175474e89094c44da98b954eedeac495271d0f",
                        "key": "0x251fb4b0836cbf2b712c76d5c5b643c7c5871b9d539ad6648acf76b685fd0ee7",
                        "prev": "0x0000000000000000000000000000000000000000000000000000000000000000"
                    },
                    {
                        "current": "0x0000000000000000000000000000000000000000000000000000000000000068",
                        "key": "0xef20a5e9f1b7498a41ef864d280d166c7cb952cba03e2f75be88231463900750",
                        "prev": "0x0000000000000000000000000000000000000000000000000000000000000067"
                    },
                    {
                        "current": "0x00000000000000000000000000000000000000000000000000000000000481b3",
                        "key": "0xefa1603fb0b590b70c44853d41b1e83d808e7b0be051a684a89af5902e6922c4",
                        "prev": "0x00000000000000000000000000000000000000000000000000000000000481b2"
                    },
                    {
                        "current": "0x00000000000000000000000000000000000000000000000000000000000481b3",
                        "key": "0x6f17b5119cfcd7076fd7e7299e0e8b6d7eb71dbf9f980053aa3c5618007c572e",
                        "prev": "0x0000000000000000000000000000000000000000000000000000000000000000"
                    }
                ],
                "storageVariables": [
                    {
                        "name": "_span",
                        "type": "mapping(address => mapping(address => uint256))",
                        "value": {
                            "pairs": [
                                {
                                    "key": "0xc02aaa39b223fe8d0a0e5c4f27ead9083c756cc2",
                                    "value": {
                                        "pairs": [
                                            {
                                                "key": "0x6b175474e89094c44da98b954eedeac495271d0f",
                                                "value": {
                                                    "current": "104",
                                                    "prev": "103",
                                                    "typeTag": 1
                                                }
                                            }
                                        ],
                                        "typeTag": 4
                                    }
                                }
                            ],
                            "typeTag": 4
                        }
                    },
                    {
                        "name": "_rank",
                        "type": "mapping(uint256 => struct MatchingMarket.sortInfo)",
                        "value": {
                            "pairs": [
                                {
                                    "key": "295346",
                                    "value": {
                                        "fields": [
                                            {
                                                "name": "next",
                                                "type": "uint256",
                                                "value": {
                                                    "current": "295347",
                                                    "prev": "0",
                                                    "typeTag": 1
                                                }
                                            }
                                        ],
                                        "typeTag": 3
                                    }
                                },
                                {
                                    "key": "295347",
                                    "value": {
                                        "fields": [
                                            {
                                                "name": "prev",
                                                "type": "uint256",
                                                "value": {
                                                    "current": "295346",
                                                    "prev": "0",
                                                    "typeTag": 1
                                                }
                                            }
                                        ],
                                        "typeTag": 3
                                    }
                                }
                            ],
                            "typeTag": 4
                        }
                    },
                    {
                        "name": "_best",
                        "type": "mapping(address => mapping(address => uint256))",
                        "value": {
                            "pairs": [
                                {
                                    "key": "0xc02aaa39b223fe8d0a0e5c4f27ead9083c756cc2",
                                    "value": {
                                        "pairs": [
                                            {
                                                "key": "0x6b175474e89094c44da98b954eedeac495271d0f",
                                                "value": {
                                                    "current": "295347",
                                                    "prev": "295346",
                                                    "typeTag": 1
                                                }
                                            }
                                        ],
                                        "typeTag": 4
                                    }
                                }
                            ],
                            "typeTag": 4
                        }
                    },
                    {
                        "name": "offers",
                        "type": "mapping(uint256 => struct SimpleMarket.OfferInfo)",
                        "value": {
                            "pairs": [
                                {
                                    "key": "295347",
                                    "value": {
                                        "fields": [
                                            {
                                                "name": "pay_amt",
                                                "type": "uint256",
                                                "value": {
                                                    "current": "22500000000000000000",
                                                    "prev": "0",
                                                    "typeTag": 1
                                                }
                                            },
                                            {
                                                "name": "pay_gem",
                                                "type": "contract ERC20",
                                                "value": {
                                                    "current": "0xc02aaa39b223fe8d0a0e5c4f27ead9083c756cc2",
                                                    "prev": "0x0000000000000000000000000000000000000000",
                                                    "typeTag": 1
                                                }
                                            },
                                            {
                                                "name": "buy_amt",
                                                "type": "uint256",
                                                "value": {
                                                    "current": "4678178452655625000000",
                                                    "prev": "0",
                                                    "typeTag": 1
                                                }
                                            },
                                            {
                                                "name": "buy_gem",
                                                "type": "contract ERC20",
                                                "value": {
                                                    "current": "0x6b175474e89094c44da98b954eedeac495271d0f",
                                                    "prev": "0x0000000000000000000000000000000000000000",
                                                    "typeTag": 1
                                                }
                                            },
                                            {
                                                "name": "owner",
                                                "type": "address",
                                                "value": {
                                                    "current": "0xa57bd00134b2850b2a1c55860c9e9ea100fdd6cf",
                                                    "prev": "0x0000000000000000000000000000000000000000",
                                                    "typeTag": 1
                                                }
                                            },
                                            {
                                                "name": "timestamp",
                                                "type": "uint64",
                                                "value": {
                                                    "current": "1588355490",
                                                    "prev": "0",
                                                    "typeTag": 1
                                                }
                                            }
                                        ],
                                        "typeTag": 3
                                    }
                                }
                            ],
                            "typeTag": 4
                        }
                    },
                    {
                        "name": "last_offer_id",
                        "type": "uint256",
                        "value": {
                            "current": "295347",
                            "prev": "295346",
                            "typeTag": 1
                        }
                    }
                ]
            },
            {
                "address": "0xc02aaa39b223fe8d0a0e5c4f27ead9083c756cc2",
                "erc": "ERC-20",
                "slots": [
                    {
                        "current": "0x000000000000000000000000000000000000000000000033eb7dfd0fbdf4258f",
                        "key": "0x40f963d8ab5de5259e130f6865b75ceb44638428ca149b7fe63a511f142fedb7",
                        "prev": "0x00000000000000000000000000000000000000000000003523be0bd9f43e258f"
                    },
                    {
                        "current": "0x0000000000000000000000000000000000000000000000f284b49d7b46fe78fe",
                        "key": "0xb96fd08b1af1b29c4c6755188f7c28ca343ef2f4e955f03c737f9bbabb131495",
                        "prev": "0x0000000000000000000000000000000000000000000000f14c748eb110b478fe"
                    }
                ],
                "storageVariables": [
                    {
                        "name": "balanceOf",
                        "type": "mapping(address => uint256)",
                        "value": {
                            "pairs": [
                                {
                                    "key": "0x794e6e91555438afc3ccf1c5076a74f42133d08d",
                                    "value": {
                                        "current": "4473674506899323517182",
                                        "prev": "4451174506899323517182",
                                        "typeTag": 1
                                    }
                                },
                                {
                                    "key": "0xa57bd00134b2850b2a1c55860c9e9ea100fdd6cf",
                                    "value": {
                                        "current": "957752944974242260367",
                                        "prev": "980252944974242260367",
                                        "typeTag": 1
                                    }
                                }
                            ],
                            "typeTag": 4
                        }
                    }
                ]
            }
        ]
    }
}