{
    "balance_change": {
        "balanceChanges": [
            {
                "account": "0xff9f8dc2f76f02cb1d4c3a960d2591ca6a7f6867",
                "assets": [
                    {
                        "address": "0xba100000625a3754423978a60c9317c58a424e3d",
                        "amount": "0.050305872310614018",
                        "iconUrl": "https://assets.blocksec.com/icon/c54e5d3686cfdcd5b83c30277395a4080808ff7cc373adffe8bd60843e2b8a99.png",
                        "isERC1155": false,
                        "isERC721": false,
                        "sign": true,
                        "value": "0.22486724922569998749"
                    }
                ]
            },
            {
                "account": "0x0000000000000000000000000000000000000000",
                "assets": [
                    {
                        "address": "0xba100000625a3754423978a60c9317c58a424e3d",
                        "amount": "10.061174462122803682",
                        "iconUrl": "https://assets.blocksec.com/icon/c54e5d3686cfdcd5b83c30277395a4080808ff7cc373adffe8bd60843e2b8a99.png",
                        "isERC1155": false,
                        "isERC721": false,
                        "sign": false,
                        "value": "44.973449836199997497"
                    }
                ]
            },
            {
                "account": "0x00a7ba8ae7bca0b10a32ea1f8e2a1da980c6cad2",
                "assets": [
                    {
                        "address": "0xba100000625a3754423978a60c9317c58a424e3d",
                        "amount": "1.861317275492718681",
                        "iconUrl": "https://assets.blocksec.com/icon/c54e5d3686cfdcd5b83c30277395a4080808ff7cc373adffe8bd60843e2b8a99.png",
                        "isERC1155": false,
                        "isERC721": false,
                        "sign": true,
                        "value": "8.320088219249999537"
                    }
                ]
            },
            {
                "account": "0x0d00848440d2e2b3c6f288128c1a19c483e78f45",
                "assets": [
                    {
                        "address": "0xba100000625a3754423978a60c9317c58a424e3d",
                        "amount": "7.545880846592102763",
                        "iconUrl": "https://assets.blocksec.com/icon/c54e5d3686cfdcd5b83c30277395a4080808ff7cc373adffe8bd60843e2b8a99.png",
                        "isERC1155": false,
                        "isERC721": false,
                        "sign": true,
                        "value": "33.730087386089998125"
                    }
                ]
            },
            {
                "account": "0x7372ece4c18beabc19981a53b557be90dcbd2b66",
                "assets": [
                    {
                        "address": "0xba100000625a3754423978a60c9317c58a424e3d",
                        "amount": "0.201223489242456073",
                        "iconUrl": "https://assets.blocksec.com/icon/c54e5d3686cfdcd5b83c30277395a4080808ff7cc373adffe8bd60843e2b8a99.png",
                        "isERC1155": false,
                        "isERC721": false,
                        "sign": true,
                        "value": "0.89946899672399994996"
                    }
                ]
            },
            {
                "account": "0xd9e863b7317a66fe0a4d2834910f604fd6f89c6c",
                "assets": [
                    {
                        "address": "0xba100000625a3754423978a60c9317c58a424e3d",
                        "amount": "0.402446978484912147",
                        "iconUrl": "https://assets.blocksec.com/icon/c54e5d3686cfdcd5b83c30277395a4080808ff7cc373adffe8bd60843e2b8a99.png",
                        "isERC1155": false,
                        "isERC721": false,
                        "sign": true,
                        "value": "1.7989379938949998999"
                    }
                ]
            }
        ]
    },
    "profile": {
        "basic_info": {
            "baseFee": "22.935980736",
            "blockNumber": 18982824,
            "callData": "0xcc956f3f00000000000000000000000000000000000000000000000000000000000000b5",
            "debugEnable": true,
            "errorInfo": "",
            "eventCount": 10,
            "feeRecipient": "0x95222290dd7278aa3ddd389cc1e1d165cc4bafe5",
            "formatValue": "0",
            "gasLimit": 950848,
            "gasPrice": "23.035980736",
            "gasUsed": 586363,
            "intTxnCount": 42,
            "internalRevert": false,
            "internalRevertMessage": "",
            "isContractCreation": false,
            "isFlashloan": false,
            "maxFee": "31.457136972",
            "nonce": 126,
            "overwritedBlockNumber": -1,
            "priorityFee": "0.1",
            "receiver": "0xa57b8d98dae62b26ec3bcc4a365338157060b234",
            "revertMessage": "",
            "sender": "0xff9f8dc2f76f02cb1d4c3a960d2591ca6a7f6867",
            "simulationEnable": true,
            "sourceTxnHash": "0xca49aa6dc7a542e7a0668750df2873511383eeab9ceb6080b92ec70a5bca7249",
            "status": true,
            "timestamp": "2024-01-11T09:34:47Z",
            "transactionFee": "0.013507446772303168",
            "txnHash": "0xca49aa6dc7a542e7a0668750df2873511383eeab9ceb6080b92ec70a5bca7249",
            "txnIndex": 130,
            "type": 2,
            "value": "0"
        },
        "fund_flow": [
            {
                "amount": "10.061174462122803682",
                "from": "0x0000000000000000000000000000000000000000",
                "id": 1,
                "isERC1155": false,
                "isERC721": false,
                "isReverted": false,
                "order": 1,
                "to": "0xaf52695e1bb01a16d33d7194c28c42b10e0dbec2",
                "token": "0xba100000625a3754423978a60c9317c58a424e3d"
            },
            {
                "amount": "10.061174462122803682",
                "from": "0xaf52695e1bb01a16d33d7194c28c42b10e0dbec2",
                "id": 2,
                "isERC1155": false,
                "isERC721": false,
                "isReverted": false,
                "order": 2,
                "to": "0xa57b8d98dae62b26ec3bcc4a365338157060b234",
                "token": "0xba100000625a3754423978a60c9317c58a424e3d"
            },
            {
                "amount": "0.201223489242456073",
                "from": "0xa57b8d98dae62b26ec3bcc4a365338157060b234",
                "id": 3,
                "isERC1155": false,
                "isERC721": false,
                "isReverted": false,
                "order": 3,
                "to": "0x7372ece4c18beabc19981a53b557be90dcbd2b66",
                "token": "0xba100000625a3754423978a60c9317c58a424e3d"
            },
            {
                "amount": "0.050305872310614018",
                "from": "0xa57b8d98dae62b26ec3bcc4a365338157060b234",
                "id": 4,
                "isERC1155": false,
                "isERC721": false,
                "isReverted": false,
                "order": 4,
                "to": "0xff9f8dc2f76f02cb1d4c3a960d2591ca6a7f6867",
                "token": "0xba100000625a3754423978a60c9317c58a424e3d"
            },
            {
                "amount": "7.545880846592102763",
                "from": "0xa57b8d98dae62b26ec3bcc4a365338157060b234",
                "id": 5,
                "isERC1155": false,
                "isERC721": false,
                "isReverted": false,
                "order": 5,
                "to": "0x0d00848440d2e2b3c6f288128c1a19c483e78f45",
                "token": "0xba100000625a3754423978a60c9317c58a424e3d"
            },
            {
                "amount": "1.861317275492718681",
                "from": "0xa57b8d98dae62b26ec3bcc4a365338157060b234",
                "id": 6,
                "isERC1155": false,
                "isERC721": false,
                "isReverted": false,
                "order": 6,
                "to": "0x00a7ba8ae7bca0b10a32ea1f8e2a1da980c6cad2",
                "token": "0xba100000625a3754423978a60c9317c58a424e3d"
            },
            {
                "amount": "0.402446978484912147",
                "from": "0xa57b8d98dae62b26ec3bcc4a365338157060b234",
                "id": 7,
                "isERC1155": false,
                "isERC721": false,
                "isReverted": false,
                "order": 7,
                "to": "0xd9e863b7317a66fe0a4d2834910f604fd6f89c6c",
                "token": "0xba100000625a3754423978a60c9317c58a424e3d"
            }
        ],
        "token_infos": [
            {
                "address": "0xeeeeeeeeeeeeeeeeeeeeeeeeeeeeeeeeeeeeeeee",
                "decimals": 18
            },
            {
                "address": "0xba100000625a3754423978a60c9317c58a424e3d",
                "decimals": 18
            },
            {
                "address": "0xc02aaa39b223fe8d0a0e5c4f27ead9083c756cc2",
                "decimals": 18
            }
        ]
    },
    "address_label": {
        "labels": [
            {
                "address": "0x0000000000000000000000000000000000000002",
                "label": "Precompiled"
            },
            {
                "address": "0xba12222222228d8ba445958a75a0704d566bf2c8",
                "label": "Balancer: Vault"
            },
            {
                "address": "0x4a53301fe213eca70f904cd3766c07db3a621bf8",
                "label": "Aura: Extra Rewards Stash V3"
            },
            {
                "address": "0xaf52695e1bb01a16d33d7194c28c42b10e0dbec2",
                "label": "Aura: Voter Proxy"
            },
            {
                "address": "0xe5f96070ca00cd54795416b1a4b4c2403231c548",
                "label": "0xe5f9_Vyper_contract"
            },
            {
                "address": "0xc0c293ce456ff0ed870add98a0828dd4d2903dbf",
                "label": "Aura (AURA)"
            },
            {
                "address": "0x6048a8c631fb7e77eca533cf9c29784e482391e7",
                "label": "AuthorizerWithAdaptorValidation"
            },
            {
                "address": "0xc128a9954e6c874ea3d62ce62b468ba073093f25",
                "label": "Vote Escrowed Balancer BPT (veBAL)"
            },
            {
                "address": "0x239e55f427d44c3cc793f49bfb507ebe76638a2b",
                "label": "BalancerMinter"
            },
            {
                "address": "0xba100000625a3754423978a60c9317c58a424e3d",
                "label": "Balancer: BAL Token"
            },
            {
                "address": "0xf302f9f50958c5593770fdf4d4812309ff77414f",
                "label": "BalancerTokenAdmin"
            },
            {
                "address": "0xeeeeeeeeeeeeeeeeeeeeeeeeeeeeeeeeeeeeeeee",
                "label": "Ether"
            },
            {
                "address": "0xd9e863b7317a66fe0a4d2834910f604fd6f89c6c",
                "label": "Aura: Staking Proxy"
            },
            {
                "address": "0x85d6840eab7473b60f10d1a3e2452243eb702c97",
                "label": "BAL-20WETH-80VCX-gauge"
            },
            {
                "address": "0x0000000000000000000000000000000000000004",
                "label": "Precompiled"
            },
            {
                "address": "0x7372ece4c18beabc19981a53b557be90dcbd2b66",
                "label": "Aura: AuraBal Compounder Strategy"
            },
            {
                "address": "0xa57b8d98dae62b26ec3bcc4a365338157060b234",
                "label": "Aura: Booster"
            },
            {
                "address": "0x67f8df125b796b05895a6dc8ecf944b9556ecb0b",
                "label": "Vote-Escrowed Boost (veBoost)"
            },
            {
                "address": "0x00a7ba8ae7bca0b10a32ea1f8e2a1da980c6cad2",
                "label": "Aura Finance: BaseRewardPool"
            },
            {
                "address": "0xc128468b7ce63ea702c1f104d55a2566b13d3abd",
                "label": "0xc128_Vyper_contract"
            },
            {
                "address": "0x0d00848440d2e2b3c6f288128c1a19c483e78f45",
                "label": "auraBAL-20WETH-80VCX-vault"
            },
            {
                "address": "0x6f5a2ee11e7a772aeb5114a20d0d7c0ff61eb8a0",
                "label": "VotingEscrowDelegationProxy"
            },
            {
                "address": "0x0000000000000000000000000000000000000000",
                "label": "Null Address"
            },
            {
                "address": "0x0000000000000000000000000000000000000001",
                "label": "Precompiled"
            },
            {
                "address": "0x0000000000000000000000000000000000000003",
                "label": "Precompiled"
            },
            {
                "address": "0xa331d84ec860bf466b4cdccfb4ac09a1b43f3ae6",
                "label": "Balancer: Authorizer"
            },
            {
                "address": "0x42d78a45217c4b62ce8e8e22a7252c801e694148",
                "label": "StashToken"
            }
        ]
    },
    "trace": {
        "accountLabels": null,
        "dataMap": {
            "-1": {
                "invocation": {
                    "address": "0xff9f8dc2f76f02cb1d4c3a960d2591ca6a7f6867",
                    "callData": "",
                    "decodedMethod": null,
                    "errorInfo": "",
                    "fromAddress": "",
                    "gasUsed": 0,
                    "id": -1,
                    "methodDecoded": false,
                    "operation": "",
                    "output": "",
                    "revert": false,
                    "revertMessage": "",
                    "selector": "",
                    "status": false,
                    "value": ""
                },
                "nodeType": 0
            },
            "0": {
                "invocation": {
                    "address": "0xa57b8d98dae62b26ec3bcc4a365338157060b234",
                    "callData": "0x00000000000000000000000000000000000000000000000000000000000000b5",
                    "decodedMethod": {
                        "callParams": [
                            {
                                "name": "_pid",
                                "type": "uint256",
                                "value": "181"
                            }
                        ],
                        "constructorArguments": "",
                        "name": "earmarkRewards",
                        "returnParams": [
                            {
                                "name": "",
                                "type": "bool",
                                "value": true
                            }
                        ],
                        "signature": "earmarkRewards(uint256)"
                    },
                    "errorInfo": "",
                    "fromAddress": "0xff9f8dc2f76f02cb1d4c3a960d2591ca6a7f6867",
                    "gasUsed": 586363,
                    "id": 0,
                    "methodDecoded": true,
                    "operation": "CALL",
                    "output": "0x0000000000000000000000000000000000000000000000000000000000000001",
                    "revert": false,
                    "revertMessage": "",
                    "selector": "0xcc956f3f",
                    "status": true,
                    "value": "0"
                },
                "nodeType": 0
            },
            "1": {
                "invocation": {
                    "address": "0xba100000625a3754423978a60c9317c58a424e3d",
                    "callData": "0x000000000000000000000000a57b8d98dae62b26ec3bcc4a365338157060b234",
                    "decodedMethod": {
                        "callParams": [
                            {
                                "name": "account",
                                "type": "address",
                                "value": "0xa57b8d98dae62b26ec3bcc4a365338157060b234"
                            }
                        ],
                        "constructorArguments": "",
                        "name": "balanceOf",
                        "returnParams": [
                            {
                                "decimalAvailable": true,
                                "name": "",
                                "type": "uint256",
                                "value": "0"
                            }
                        ],
                        "signature": "balanceOf(address)"
                    },
                    "errorInfo": "",
                    "fromAddress": "0xa57b8d98dae62b26ec3bcc4a365338157060b234",
                    "gasUsed": 2542,
                    "id": 1,
                    "methodDecoded": true,
                    "operation": "STATICCALL",
                    "output": "0x0000000000000000000000000000000000000000000000000000000000000000",
                    "revert": false,
                    "revertMessage": "",
                    "selector": "0x70a08231",
                    "status": true,
                    "value": "0"
                },
                "nodeType": 0
            },
            "10": {
                "invocation": {
                    "address": "0xc128468b7ce63ea702c1f104d55a2566b13d3abd",
                    "callData": "0x00000000000000000000000085d6840eab7473b60f10d1a3e2452243eb702c97",
                    "decodedMethod": {
                        "callParams": [
                            {
                                "name": "addr",
                                "type": "address",
                                "value": "0x85d6840eab7473b60f10d1a3e2452243eb702c97"
                            }
                        ],
                        "constructorArguments": "",
                        "name": "checkpoint_gauge",
                        "returnParams": [],
                        "signature": "checkpoint_gauge(address)"
                    },
                    "errorInfo": "",
                    "fromAddress": "0x85d6840eab7473b60f10d1a3e2452243eb702c97",
                    "gasUsed": 88311,
                    "id": 10,
                    "methodDecoded": true,
                    "operation": "CALL",
                    "output": "",
                    "revert": false,
                    "revertMessage": "",
                    "selector": "0x615e5237",
                    "status": true,
                    "value": "0"
                },
                "nodeType": 0
            },
            "11": {
                "invocation": {
                    "address": "0xc128468b7ce63ea702c1f104d55a2566b13d3abd",
                    "callData": "0x00000000000000000000000085d6840eab7473b60f10d1a3e2452243eb702c9700000000000000000000000000000000000000000000000000000000659f2f80",
                    "decodedMethod": {
                        "callParams": [
                            {
                                "name": "addr",
                                "type": "address",
                                "value": "0x85d6840eab7473b60f10d1a3e2452243eb702c97"
                            },
                            {
                                "name": "time",
                                "type": "uint256",
                                "value": "1,704,931,200"
                            }
                        ],
                        "constructorArguments": "",
                        "name": "gauge_relative_weight",
                        "returnParams": [
                            {
                                "name": "",
                                "type": "uint256",
                                "value": "2,291,591,542,311,508"
                            }
                        ],
                        "signature": "gauge_relative_weight(address,uint256)"
                    },
                    "errorInfo": "",
                    "fromAddress": "0x85d6840eab7473b60f10d1a3e2452243eb702c97",
                    "gasUsed": 5706,
                    "id": 11,
                    "methodDecoded": true,
                    "operation": "STATICCALL",
                    "output": "0x00000000000000000000000000000000000000000000000000082430bbd98a54",
                    "revert": false,
                    "revertMessage": "",
                    "selector": "0xd3078c94",
                    "status": true,
                    "value": "0"
                },
                "nodeType": 0
            },
            "12": {
                "invocation": {
                    "address": "0x6f5a2ee11e7a772aeb5114a20d0d7c0ff61eb8a0",
                    "callData": "0x000000000000000000000000af52695e1bb01a16d33d7194c28c42b10e0dbec2",
                    "decodedMethod": {
                        "callParams": [
                            {
                                "name": "user",
                                "type": "address",
                                "value": "0xaf52695e1bb01a16d33d7194c28c42b10e0dbec2"
                            }
                        ],
                        "constructorArguments": "",
                        "name": "adjusted_balance_of",
                        "returnParams": [
                            {
                                "name": "",
                                "type": "uint256",
                                "value": "3,532,977,871,949,818,661,016,220"
                            }
                        ],
                        "signature": "adjusted_balance_of(address)"
                    },
                    "errorInfo": "",
                    "fromAddress": "0x85d6840eab7473b60f10d1a3e2452243eb702c97",
                    "gasUsed": 33986,
                    "id": 12,
                    "methodDecoded": true,
                    "operation": "STATICCALL",
                    "output": "0x00000000000000000000000000000000000000000002ec231d3c935adf65929c",
                    "revert": false,
                    "revertMessage": "",
                    "selector": "0xbbf7408a",
                    "status": true,
                    "value": "0"
                },
                "nodeType": 0
            },
            "13": {
                "invocation": {
                    "address": "0x67f8df125b796b05895a6dc8ecf944b9556ecb0b",
                    "callData": "0x000000000000000000000000af52695e1bb01a16d33d7194c28c42b10e0dbec2",
                    "decodedMethod": {
                        "callParams": [
                            {
                                "name": "_user",
                                "type": "address",
                                "value": "0xaf52695e1bb01a16d33d7194c28c42b10e0dbec2"
                            }
                        ],
                        "constructorArguments": "",
                        "name": "adjusted_balance_of",
                        "returnParams": [
                            {
                                "name": "",
                                "type": "uint256",
                                "value": "3,532,977,871,949,818,661,016,220"
                            }
                        ],
                        "signature": "adjusted_balance_of(address)"
                    },
                    "errorInfo": "",
                    "fromAddress": "0x6f5a2ee11e7a772aeb5114a20d0d7c0ff61eb8a0",
                    "gasUsed": 28611,
                    "id": 13,
                    "methodDecoded": true,
                    "operation": "STATICCALL",
                    "output": "0x00000000000000000000000000000000000000000002ec231d3c935adf65929c",
                    "revert": false,
                    "revertMessage": "",
                    "selector": "0xbbf7408a",
                    "status": true,
                    "value": "0"
                },
                "nodeType": 0
            },
            "14": {
                "invocation": {
                    "address": "0xc128a9954e6c874ea3d62ce62b468ba073093f25",
                    "callData": "0x000000000000000000000000af52695e1bb01a16d33d7194c28c42b10e0dbec2",
                    "decodedMethod": {
                        "callParams": [
                            {
                                "name": "account",
                                "type": "address",
                                "value": "0xaf52695e1bb01a16d33d7194c28c42b10e0dbec2"
                            }
                        ],
                        "constructorArguments": "",
                        "name": "balanceOf",
                        "returnParams": [
                            {
                                "decimalAvailable": true,
                                "name": "",
                                "type": "uint256",
                                "value": "3,532,977,871,949,818,661,016,220"
                            }
                        ],
                        "signature": "balanceOf(address)"
                    },
                    "errorInfo": "",
                    "fromAddress": "0x67f8df125b796b05895a6dc8ecf944b9556ecb0b",
                    "gasUsed": 11667,
                    "id": 14,
                    "methodDecoded": true,
                    "operation": "STATICCALL",
                    "output": "0x00000000000000000000000000000000000000000002ec231d3c935adf65929c",
                    "revert": false,
                    "revertMessage": "",
                    "selector": "0x70a08231",
                    "status": true,
                    "value": "0"
                },
                "nodeType": 0
            },
            "15": {
                "invocation": {
                    "address": "0xc128a9954e6c874ea3d62ce62b468ba073093f25",
                    "callData": "0x",
                    "decodedMethod": {
                        "callParams": [],
                        "constructorArguments": "",
                        "name": "totalSupply",
                        "returnParams": [
                            {
                                "name": "",
                                "type": "uint256",
                                "value": "6,870,989,864,504,672,998,093,328"
                            }
                        ],
                        "signature": "totalSupply()"
                    },
                    "errorInfo": "",
                    "fromAddress": "0x85d6840eab7473b60f10d1a3e2452243eb702c97",
                    "gasUsed": 12021,
                    "id": 15,
                    "methodDecoded": true,
                    "operation": "STATICCALL",
                    "output": "0x00000000000000000000000000000000000000000005aefd1b5e867d7bcb7210",
                    "revert": false,
                    "revertMessage": "",
                    "selector": "0x18160ddd",
                    "status": true,
                    "value": "0"
                },
                "nodeType": 0
            },
            "16": {
                "event": {
                    "contract": "0x85d6840eab7473b60f10d1a3e2452243eb702c97",
                    "decodedLog": {
                        "name": "UpdateLiquidityLimit",
                        "params": [
                            {
                                "name": "user",
                                "type": "address",
                                "value": "0xaf52695e1bb01a16d33d7194c28c42b10e0dbec2"
                            },
                            {
                                "name": "original_balance",
                                "type": "uint256",
                                "value": "48,899,899,679,145,081,144,774"
                            },
                            {
                                "name": "original_supply",
                                "type": "uint256",
                                "value": "48,908,899,679,145,081,144,774"
                            },
                            {
                                "name": "working_balance",
                                "type": "uint256",
                                "value": "34,648,970,076,765,341,065,391"
                            },
                            {
                                "name": "working_supply",
                                "type": "uint256",
                                "value": "34,652,570,076,765,341,065,391"
                            }
                        ],
                        "signature": "UpdateLiquidityLimit(address,uint256,uint256,uint256,uint256)"
                    },
                    "id": 16,
                    "logData": "0x000000000000000000000000000000000000000000000a5ade6e7b69008f85c6000000000000000000000000000000000000000000000a5b5b54e7b9e31385c6000000000000000000000000000000000000000000000756530df2b4f163a0af0000000000000000000000000000000000000000000007568503b7a218cba0af",
                    "logDecoded": true,
                    "operation": "EVENT",
                    "revert": false,
                    "status": true,
                    "topics": [
                        "0x7ecd84343f76a23d2227290e0288da3251b045541698e575a5515af4f04197a3",
                        "0x000000000000000000000000af52695e1bb01a16d33d7194c28c42b10e0dbec2"
                    ]
                },
                "nodeType": 1
            },
            "17": {
                "invocation": {
                    "address": "0x85d6840eab7473b60f10d1a3e2452243eb702c97",
                    "callData": "0x000000000000000000000000af52695e1bb01a16d33d7194c28c42b10e0dbec2",
                    "decodedMethod": {
                        "callParams": [
                            {
                                "name": "arg0",
                                "type": "address",
                                "value": "0xaf52695e1bb01a16d33d7194c28c42b10e0dbec2"
                            }
                        ],
                        "constructorArguments": "",
                        "name": "integrate_fraction",
                        "returnParams": [
                            {
                                "name": "",
                                "type": "uint256",
                                "value": "15,934,686,475,258,816,277"
                            }
                        ],
                        "signature": "integrate_fraction(address)"
                    },
                    "errorInfo": "",
                    "fromAddress": "0x239e55f427d44c3cc793f49bfb507ebe76638a2b",
                    "gasUsed": 1693,
                    "id": 17,
                    "methodDecoded": true,
                    "operation": "STATICCALL",
                    "output": "0x000000000000000000000000000000000000000000000000dd2360ec7505e715",
                    "revert": false,
                    "revertMessage": "",
                    "selector": "0x09400707",
                    "status": true,
                    "value": "0"
                },
                "nodeType": 0
            },
            "18": {
                "invocation": {
                    "address": "0xe5f96070ca00cd54795416b1a4b4c2403231c548",
                    "callData": "0x000000000000000000000000af52695e1bb01a16d33d7194c28c42b10e0dbec2",
                    "decodedMethod": {
                        "callParams": [
                            {
                                "name": "arg0",
                                "type": "address",
                                "value": "0xaf52695e1bb01a16d33d7194c28c42b10e0dbec2"
                            }
                        ],
                        "constructorArguments": "",
                        "name": "integrate_fraction",
                        "returnParams": [
                            {
                                "name": "",
                                "type": "uint256",
                                "value": "15,934,686,475,258,816,277"
                            }
                        ],
                        "signature": "integrate_fraction(address)"
                    },
                    "errorInfo": "",
                    "fromAddress": "0x85d6840eab7473b60f10d1a3e2452243eb702c97",
                    "gasUsed": 1521,
                    "id": 18,
                    "methodDecoded": true,
                    "operation": "DELEGATECALL",
                    "output": "0x000000000000000000000000000000000000000000000000dd2360ec7505e715",
                    "revert": false,
                    "revertMessage": "",
                    "selector": "0x09400707",
                    "status": true,
                    "value": "0"
                },
                "nodeType": 0
            },
            "19": {
                "event": {
                    "contract": "0x239e55f427d44c3cc793f49bfb507ebe76638a2b",
                    "decodedLog": {
                        "name": "Minted",
                        "params": [
                            {
                                "name": "recipient",
                                "type": "address",
                                "value": "0xaf52695e1bb01a16d33d7194c28c42b10e0dbec2"
                            },
                            {
                                "name": "gauge",
                                "type": "address",
                                "value": "0x85d6840eab7473b60f10d1a3e2452243eb702c97"
                            },
                            {
                                "name": "minted",
                                "type": "uint256",
                                "value": "15,934,686,475,258,816,277"
                            }
                        ],
                        "signature": "Minted(address,address,uint256)"
                    },
                    "id": 19,
                    "logData": "0x00000000000000000000000085d6840eab7473b60f10d1a3e2452243eb702c97000000000000000000000000000000000000000000000000dd2360ec7505e715",
                    "logDecoded": true,
                    "operation": "EVENT",
                    "revert": false,
                    "status": true,
                    "topics": [
                        "0x9d228d69b5fdb8d273a2336f8fb8612d039631024ea9bf09c424a9503aa078f0",
                        "0x000000000000000000000000af52695e1bb01a16d33d7194c28c42b10e0dbec2"
                    ]
                },
                "nodeType": 1
            },
            "2": {
                "invocation": {
                    "address": "0xba100000625a3754423978a60c9317c58a424e3d",
                    "callData": "0x000000000000000000000000af52695e1bb01a16d33d7194c28c42b10e0dbec2",
                    "decodedMethod": {
                        "callParams": [
                            {
                                "name": "account",
                                "type": "address",
                                "value": "0xaf52695e1bb01a16d33d7194c28c42b10e0dbec2"
                            }
                        ],
                        "constructorArguments": "",
                        "name": "balanceOf",
                        "returnParams": [
                            {
                                "decimalAvailable": true,
                                "name": "",
                                "type": "uint256",
                                "value": "0"
                            }
                        ],
                        "signature": "balanceOf(address)"
                    },
                    "errorInfo": "",
                    "fromAddress": "0xa57b8d98dae62b26ec3bcc4a365338157060b234",
                    "gasUsed": 2542,
                    "id": 2,
                    "methodDecoded": true,
                    "operation": "STATICCALL",
                    "output": "0x0000000000000000000000000000000000000000000000000000000000000000",
                    "revert": false,
                    "revertMessage": "",
                    "selector": "0x70a08231",
                    "status": true,
                    "value": "0"
                },
                "nodeType": 0
            },
            "20": {
                "invocation": {
                    "address": "0xf302f9f50958c5593770fdf4d4812309ff77414f",
                    "callData": "0x000000000000000000000000af52695e1bb01a16d33d7194c28c42b10e0dbec20000000000000000000000000000000000000000000000008ba078ddee0fc1e2",
                    "decodedMethod": {
                        "callParams": [
                            {
                                "name": "to",
                                "type": "address",
                                "value": "0xaf52695e1bb01a16d33d7194c28c42b10e0dbec2"
                            },
                            {
                                "name": "amount",
                                "type": "uint256",
                                "value": "10,061,174,462,122,803,682"
                            }
                        ],
                        "constructorArguments": "",
                        "name": "mint",
                        "returnParams": [],
                        "signature": "mint(address,uint256)"
                    },
                    "errorInfo": "",
                    "fromAddress": "0x239e55f427d44c3cc793f49bfb507ebe76638a2b",
                    "gasUsed": 57022,
                    "id": 20,
                    "methodDecoded": true,
                    "operation": "CALL",
                    "output": "",
                    "revert": false,
                    "revertMessage": "",
                    "selector": "0x40c10f19",
                    "status": true,
                    "value": "0"
                },
                "nodeType": 0
            },
            "21": {
                "invocation": {
                    "address": "0xba12222222228d8ba445958a75a0704d566bf2c8",
                    "callData": "0x",
                    "decodedMethod": {
                        "callParams": [],
                        "constructorArguments": "",
                        "name": "getAuthorizer",
                        "returnParams": [
                            {
                                "name": "",
                                "type": "address",
                                "value": "0x6048a8c631fb7e77eca533cf9c29784e482391e7"
                            }
                        ],
                        "signature": "getAuthorizer()"
                    },
                    "errorInfo": "",
                    "fromAddress": "0xf302f9f50958c5593770fdf4d4812309ff77414f",
                    "gasUsed": 2449,
                    "id": 21,
                    "methodDecoded": true,
                    "operation": "STATICCALL",
                    "output": "0x0000000000000000000000006048a8c631fb7e77eca533cf9c29784e482391e7",
                    "revert": false,
                    "revertMessage": "",
                    "selector": "0xaaabadc5",
                    "status": true,
                    "value": "0"
                },
                "nodeType": 0
            },
            "22": {
                "invocation": {
                    "address": "0x6048a8c631fb7e77eca533cf9c29784e482391e7",
                    "callData": "0xdddd30813da50fda5faba482fd2937d0c6165d2faf027d3dfbd1554f3d7d47ff000000000000000000000000239e55f427d44c3cc793f49bfb507ebe76638a2b000000000000000000000000f302f9f50958c5593770fdf4d4812309ff77414f",
                    "decodedMethod": {
                        "callParams": [
                            {
                                "name": "actionId",
                                "type": "bytes32",
                                "value": "0xdddd30813da50fda5faba482fd2937d0c6165d2faf027d3dfbd1554f3d7d47ff"
                            },
                            {
                                "name": "account",
                                "type": "address",
                                "value": "0x239e55f427d44c3cc793f49bfb507ebe76638a2b"
                            },
                            {
                                "name": "where",
                                "type": "address",
                                "value": "0xf302f9f50958c5593770fdf4d4812309ff77414f"
                            }
                        ],
                        "constructorArguments": "",
                        "name": "canPerform",
                        "returnParams": [
                            {
                                "name": "",
                                "type": "bool",
                                "value": true
                            }
                        ],
                        "signature": "canPerform(bytes32,address,address)"
                    },
                    "errorInfo": "",
                    "fromAddress": "0xf302f9f50958c5593770fdf4d4812309ff77414f",
                    "gasUsed": 5980,
                    "id": 22,
                    "methodDecoded": true,
                    "operation": "STATICCALL",
                    "output": "0x0000000000000000000000000000000000000000000000000000000000000001",
                    "revert": false,
                    "revertMessage": "",
                    "selector": "0x9be2a884",
                    "status": true,
                    "value": "0"
                },
                "nodeType": 0
            },
            "23": {
                "invocation": {
                    "address": "0xa331d84ec860bf466b4cdccfb4ac09a1b43f3ae6",
                    "callData": "0xdddd30813da50fda5faba482fd2937d0c6165d2faf027d3dfbd1554f3d7d47ff000000000000000000000000239e55f427d44c3cc793f49bfb507ebe76638a2b000000000000000000000000f302f9f50958c5593770fdf4d4812309ff77414f",
                    "decodedMethod": {
                        "callParams": [
                            {
                                "name": "actionId",
                                "type": "bytes32",
                                "value": "0xdddd30813da50fda5faba482fd2937d0c6165d2faf027d3dfbd1554f3d7d47ff"
                            },
                            {
                                "name": "account",
                                "type": "address",
                                "value": "0x239e55f427d44c3cc793f49bfb507ebe76638a2b"
                            },
                            {
                                "name": "",
                                "type": "address",
                                "value": "0xf302f9f50958c5593770fdf4d4812309ff77414f"
                            }
                        ],
                        "constructorArguments": "",
                        "name": "canPerform",
                        "returnParams": [
                            {
                                "name": "",
                                "type": "bool",
                                "value": true
                            }
                        ],
                        "signature": "canPerform(bytes32,address,address)"
                    },
                    "errorInfo": "",
                    "fromAddress": "0x6048a8c631fb7e77eca533cf9c29784e482391e7",
                    "gasUsed": 2688,
                    "id": 23,
                    "methodDecoded": true,
                    "operation": "STATICCALL",
                    "output": "0x0000000000000000000000000000000000000000000000000000000000000001",
                    "revert": false,
                    "revertMessage": "",
                    "selector": "0x9be2a884",
                    "status": true,
                    "value": "0"
                },
                "nodeType": 0
            },
            "24": {
                "invocation": {
                    "address": "0xba100000625a3754423978a60c9317c58a424e3d",
                    "callData": "0x",
                    "decodedMethod": {
                        "callParams": [],
                        "constructorArguments": "",
                        "name": "totalSupply",
                        "returnParams": [
                            {
                                "name": "",
                                "type": "uint256",
                                "value": "61,162,691,689,887,456,555,720,695"
                            }
                        ],
                        "signature": "totalSupply()"
                    },
                    "errorInfo": "",
                    "fromAddress": "0xf302f9f50958c5593770fdf4d4812309ff77414f",
                    "gasUsed": 2404,
                    "id": 24,
                    "methodDecoded": true,
                    "operation": "STATICCALL",
                    "output": "0x0000000000000000000000000000000000000000003297b42906ebbfa02c5ff7",
                    "revert": false,
                    "revertMessage": "",
                    "selector": "0x18160ddd",
                    "status": true,
                    "value": "0"
                },
                "nodeType": 0
            },
            "25": {
                "invocation": {
                    "address": "0xba100000625a3754423978a60c9317c58a424e3d",
                    "callData": "0x000000000000000000000000af52695e1bb01a16d33d7194c28c42b10e0dbec20000000000000000000000000000000000000000000000008ba078ddee0fc1e2",
                    "decodedMethod": {
                        "callParams": [
                            {
                                "name": "to",
                                "type": "address",
                                "value": "0xaf52695e1bb01a16d33d7194c28c42b10e0dbec2"
                            },
                            {
                                "name": "amount",
                                "type": "uint256",
                                "value": "10,061,174,462,122,803,682"
                            }
                        ],
                        "constructorArguments": "",
                        "name": "mint",
                        "returnParams": [],
                        "signature": "mint(address,uint256)"
                    },
                    "errorInfo": "",
                    "fromAddress": "0xf302f9f50958c5593770fdf4d4812309ff77414f",
                    "gasUsed": 35812,
                    "id": 25,
                    "methodDecoded": true,
                    "operation": "CALL",
                    "output": "",
                    "revert": false,
                    "revertMessage": "",
                    "selector": "0x40c10f19",
                    "status": true,
                    "value": "0"
                },
                "nodeType": 0
            },
            "26": {
                "event": {
                    "contract": "0xba100000625a3754423978a60c9317c58a424e3d",
                    "decodedLog": {
                        "name": "Transfer",
                        "params": [
                            {
                                "name": "from",
                                "type": "address",
                                "value": "0x0000000000000000000000000000000000000000"
                            },
                            {
                                "name": "to",
                                "type": "address",
                                "value": "0xaf52695e1bb01a16d33d7194c28c42b10e0dbec2"
                            },
                            {
                                "decimalAvailable": true,
                                "name": "value",
                                "type": "uint256",
                                "value": "10,061,174,462,122,803,682"
                            }
                        ],
                        "signature": "Transfer(address,address,uint256)"
                    },
                    "id": 26,
                    "logData": "0x0000000000000000000000000000000000000000000000008ba078ddee0fc1e2",
                    "logDecoded": true,
                    "operation": "EVENT",
                    "revert": false,
                    "status": true,
                    "topics": [
                        "0xddf252ad1be2c89b69c2b068fc378daa952ba7f163c4a11628f55a4df523b3ef",
                        "0x0000000000000000000000000000000000000000000000000000000000000000",
                        "0x000000000000000000000000af52695e1bb01a16d33d7194c28c42b10e0dbec2"
                    ]
                },
                "nodeType": 1
            },
            "27": {
                "invocation": {
                    "address": "0xba100000625a3754423978a60c9317c58a424e3d",
                    "callData": "0x000000000000000000000000af52695e1bb01a16d33d7194c28c42b10e0dbec2",
                    "decodedMethod": {
                        "callParams": [
                            {
                                "name": "account",
                                "type": "address",
                                "value": "0xaf52695e1bb01a16d33d7194c28c42b10e0dbec2"
                            }
                        ],
                        "constructorArguments": "",
                        "name": "balanceOf",
                        "returnParams": [
                            {
                                "decimalAvailable": true,
                                "name": "",
                                "type": "uint256",
                                "value": "10,061,174,462,122,803,682"
                            }
                        ],
                        "signature": "balanceOf(address)"
                    },
                    "errorInfo": "",
                    "fromAddress": "0xaf52695e1bb01a16d33d7194c28c42b10e0dbec2",
                    "gasUsed": 542,
                    "id": 27,
                    "methodDecoded": true,
                    "operation": "STATICCALL",
                    "output": "0x0000000000000000000000000000000000000000000000008ba078ddee0fc1e2",
                    "revert": false,
                    "revertMessage": "",
                    "selector": "0x70a08231",
                    "status": true,
                    "value": "0"
                },
                "nodeType": 0
            },
            "28": {
                "invocation": {
                    "address": "0xba100000625a3754423978a60c9317c58a424e3d",
                    "callData": "0x000000000000000000000000a57b8d98dae62b26ec3bcc4a365338157060b2340000000000000000000000000000000000000000000000008ba078ddee0fc1e2",
                    "decodedMethod": {
                        "callParams": [
                            {
                                "name": "recipient",
                                "type": "address",
                                "value": "0xa57b8d98dae62b26ec3bcc4a365338157060b234"
                            },
                            {
                                "decimalAvailable": true,
                                "name": "amount",
                                "type": "uint256",
                                "value": "10,061,174,462,122,803,682"
                            }
                        ],
                        "constructorArguments": "",
                        "name": "transfer",
                        "returnParams": [
                            {
                                "name": "",
                                "type": "bool",
                                "value": true
                            }
                        ],
                        "signature": "transfer(address,uint256)"
                    },
                    "errorInfo": "",
                    "fromAddress": "0xaf52695e1bb01a16d33d7194c28c42b10e0dbec2",
                    "gasUsed": 27011,
                    "id": 28,
                    "methodDecoded": true,
                    "operation": "CALL",
                    "output": "0x0000000000000000000000000000000000000000000000000000000000000001",
                    "revert": false,
                    "revertMessage": "",
                    "selector": "0xa9059cbb",
                    "status": true,
                    "value": "0"
                },
                "nodeType": 0
            },
            "29": {
                "event": {
                    "contract": "0xba100000625a3754423978a60c9317c58a424e3d",
                    "decodedLog": {
                        "name": "Transfer",
                        "params": [
                            {
                                "name": "from",
                                "type": "address",
                                "value": "0xaf52695e1bb01a16d33d7194c28c42b10e0dbec2"
                            },
                            {
                                "name": "to",
                                "type": "address",
                                "value": "0xa57b8d98dae62b26ec3bcc4a365338157060b234"
                            },
                            {
                                "decimalAvailable": true,
                                "name": "value",
                                "type": "uint256",
                                "value": "10,061,174,462,122,803,682"
                            }
                        ],
                        "signature": "Transfer(address,address,uint256)"
                    },
                    "id": 29,
                    "logData": "0x0000000000000000000000000000000000000000000000008ba078ddee0fc1e2",
                    "logDecoded": true,
                    "operation": "EVENT",
                    "revert": false,
                    "status": true,
                    "topics": [
                        "0xddf252ad1be2c89b69c2b068fc378daa952ba7f163c4a11628f55a4df523b3ef",
                        "0x000000000000000000000000af52695e1bb01a16d33d7194c28c42b10e0dbec2",
                        "0x000000000000000000000000a57b8d98dae62b26ec3bcc4a365338157060b234"
                    ]
                },
                "nodeType": 1
            },
            "3": {
                "invocation": {
                    "address": "0xaf52695e1bb01a16d33d7194c28c42b10e0dbec2",
                    "callData": "0x00000000000000000000000085d6840eab7473b60f10d1a3e2452243eb702c97",
                    "decodedMethod": {
                        "callParams": [
                            {
                                "name": "_gauge",
                                "type": "address",
                                "value": "0x85d6840eab7473b60f10d1a3e2452243eb702c97"
                            }
                        ],
                        "constructorArguments": "",
                        "name": "claimCrv",
                        "returnParams": [
                            {
                                "name": "",
                                "type": "uint256",
                                "value": "10,061,174,462,122,803,682"
                            }
                        ],
                        "signature": "claimCrv(address)"
                    },
                    "errorInfo": "",
                    "fromAddress": "0xa57b8d98dae62b26ec3bcc4a365338157060b234",
                    "gasUsed": 366971,
                    "id": 3,
                    "methodDecoded": true,
                    "operation": "CALL",
                    "output": "0x0000000000000000000000000000000000000000000000008ba078ddee0fc1e2",
                    "revert": false,
                    "revertMessage": "",
                    "selector": "0x3fe9bc06",
                    "status": true,
                    "value": "0"
                },
                "nodeType": 0
            },
            "30": {
                "invocation": {
                    "address": "0xba100000625a3754423978a60c9317c58a424e3d",
                    "callData": "0x000000000000000000000000a57b8d98dae62b26ec3bcc4a365338157060b234",
                    "decodedMethod": {
                        "callParams": [
                            {
                                "name": "account",
                                "type": "address",
                                "value": "0xa57b8d98dae62b26ec3bcc4a365338157060b234"
                            }
                        ],
                        "constructorArguments": "",
                        "name": "balanceOf",
                        "returnParams": [
                            {
                                "decimalAvailable": true,
                                "name": "",
                                "type": "uint256",
                                "value": "10,061,174,462,122,803,682"
                            }
                        ],
                        "signature": "balanceOf(address)"
                    },
                    "errorInfo": "",
                    "fromAddress": "0xa57b8d98dae62b26ec3bcc4a365338157060b234",
                    "gasUsed": 542,
                    "id": 30,
                    "methodDecoded": true,
                    "operation": "STATICCALL",
                    "output": "0x0000000000000000000000000000000000000000000000008ba078ddee0fc1e2",
                    "revert": false,
                    "revertMessage": "",
                    "selector": "0x70a08231",
                    "status": true,
                    "value": "0"
                },
                "nodeType": 0
            },
            "31": {
                "invocation": {
                    "address": "0x61618d9e50d18f11d818a4cdf96b362650bf9e34",
                    "callData": "0x",
                    "decodedMethod": {
                        "callParams": [],
                        "constructorArguments": "",
                        "name": "claimRewards",
                        "returnParams": [
                            {
                                "name": "",
                                "type": "bool",
                                "value": true
                            }
                        ],
                        "signature": "claimRewards()"
                    },
                    "errorInfo": "",
                    "fromAddress": "0xa57b8d98dae62b26ec3bcc4a365338157060b234",
                    "gasUsed": 15757,
                    "id": 31,
                    "methodDecoded": true,
                    "operation": "CALL",
                    "output": "0x0000000000000000000000000000000000000000000000000000000000000001",
                    "revert": false,
                    "revertMessage": "",
                    "selector": "0x372500ab",
                    "status": true,
                    "value": "0"
                },
                "nodeType": 0
            },
            "32": {
                "invocation": {
                    "address": "0x4a53301fe213eca70f904cd3766c07db3a621bf8",
                    "callData": "0x",
                    "decodedMethod": {
                        "callParams": [],
                        "constructorArguments": "",
                        "name": "claimRewards",
                        "returnParams": [
                            {
                                "name": "",
                                "type": "bool",
                                "value": true
                            }
                        ],
                        "signature": "claimRewards()"
                    },
                    "errorInfo": "",
                    "fromAddress": "0x61618d9e50d18f11d818a4cdf96b362650bf9e34",
                    "gasUsed": 13091,
                    "id": 32,
                    "methodDecoded": true,
                    "operation": "DELEGATECALL",
                    "output": "0x0000000000000000000000000000000000000000000000000000000000000001",
                    "revert": false,
                    "revertMessage": "",
                    "selector": "0x372500ab",
                    "status": true,
                    "value": "0"
                },
                "nodeType": 0
            },
            "33": {
                "invocation": {
                    "address": "0x85d6840eab7473b60f10d1a3e2452243eb702c97",
                    "callData": "0x0000000000000000000000000000000000000000000000000000000000000000",
                    "decodedMethod": {
                        "callParams": [
                            {
                                "name": "arg0",
                                "type": "uint256",
                                "value": "0"
                            }
                        ],
                        "constructorArguments": "",
                        "name": "reward_tokens",
                        "returnParams": [
                            {
                                "name": "",
                                "type": "address",
                                "value": "0x0000000000000000000000000000000000000000"
                            }
                        ],
                        "signature": "reward_tokens(uint256)"
                    },
                    "errorInfo": "",
                    "fromAddress": "0x61618d9e50d18f11d818a4cdf96b362650bf9e34",
                    "gasUsed": 3678,
                    "id": 33,
                    "methodDecoded": true,
                    "operation": "STATICCALL",
                    "output": "0x0000000000000000000000000000000000000000000000000000000000000000",
                    "revert": false,
                    "revertMessage": "",
                    "selector": "0x54c49fe9",
                    "status": true,
                    "value": "0"
                },
                "nodeType": 0
            },
            "34": {
                "invocation": {
                    "address": "0xe5f96070ca00cd54795416b1a4b4c2403231c548",
                    "callData": "0x0000000000000000000000000000000000000000000000000000000000000000",
                    "decodedMethod": {
                        "callParams": [
                            {
                                "name": "arg0",
                                "type": "uint256",
                                "value": "0"
                            }
                        ],
                        "constructorArguments": "",
                        "name": "reward_tokens",
                        "returnParams": [
                            {
                                "name": "",
                                "type": "address",
                                "value": "0x0000000000000000000000000000000000000000"
                            }
                        ],
                        "signature": "reward_tokens(uint256)"
                    },
                    "errorInfo": "",
                    "fromAddress": "0x85d6840eab7473b60f10d1a3e2452243eb702c97",
                    "gasUsed": 3506,
                    "id": 34,
                    "methodDecoded": true,
                    "operation": "DELEGATECALL",
                    "output": "0x0000000000000000000000000000000000000000000000000000000000000000",
                    "revert": false,
                    "revertMessage": "",
                    "selector": "0x54c49fe9",
                    "status": true,
                    "value": "0"
                },
                "nodeType": 0
            },
            "35": {
                "invocation": {
                    "address": "0x61618d9e50d18f11d818a4cdf96b362650bf9e34",
                    "callData": "0x",
                    "decodedMethod": {
                        "callParams": [],
                        "constructorArguments": "",
                        "name": "processStash",
                        "returnParams": [
                            {
                                "name": "",
                                "type": "bool",
                                "value": true
                            }
                        ],
                        "signature": "processStash()"
                    },
                    "errorInfo": "",
                    "fromAddress": "0xa57b8d98dae62b26ec3bcc4a365338157060b234",
                    "gasUsed": 22962,
                    "id": 35,
                    "methodDecoded": true,
                    "operation": "CALL",
                    "output": "0x0000000000000000000000000000000000000000000000000000000000000001",
                    "revert": false,
                    "revertMessage": "",
                    "selector": "0xca8b0176",
                    "status": true,
                    "value": "0"
                },
                "nodeType": 0
            },
            "36": {
                "invocation": {
                    "address": "0x4a53301fe213eca70f904cd3766c07db3a621bf8",
                    "callData": "0x",
                    "decodedMethod": {
                        "callParams": [],
                        "constructorArguments": "",
                        "name": "processStash",
                        "returnParams": [
                            {
                                "name": "",
                                "type": "bool",
                                "value": true
                            }
                        ],
                        "signature": "processStash()"
                    },
                    "errorInfo": "",
                    "fromAddress": "0x61618d9e50d18f11d818a4cdf96b362650bf9e34",
                    "gasUsed": 22796,
                    "id": 36,
                    "methodDecoded": true,
                    "operation": "DELEGATECALL",
                    "output": "0x0000000000000000000000000000000000000000000000000000000000000001",
                    "revert": false,
                    "revertMessage": "",
                    "selector": "0xca8b0176",
                    "status": true,
                    "value": "0"
                },
                "nodeType": 0
            },
            "37": {
                "invocation": {
                    "address": "0xde6bf198446f85789e60e7915c3f1fd5dc93ac84",
                    "callData": "0x",
                    "decodedMethod": {
                        "callParams": [],
                        "constructorArguments": "",
                        "name": "isValid",
                        "returnParams": [
                            {
                                "name": "",
                                "type": "bool",
                                "value": true
                            }
                        ],
                        "signature": "isValid()"
                    },
                    "errorInfo": "",
                    "fromAddress": "0x61618d9e50d18f11d818a4cdf96b362650bf9e34",
                    "gasUsed": 5037,
                    "id": 37,
                    "methodDecoded": true,
                    "operation": "STATICCALL",
                    "output": "0x0000000000000000000000000000000000000000000000000000000000000001",
                    "revert": false,
                    "revertMessage": "",
                    "selector": "0xbb5d40eb",
                    "status": true,
                    "value": "0"
                },
                "nodeType": 0
            },
            "38": {
                "invocation": {
                    "address": "0x42d78a45217c4b62ce8e8e22a7252c801e694148",
                    "callData": "0x",
                    "decodedMethod": {
                        "callParams": [],
                        "constructorArguments": "",
                        "name": "isValid",
                        "returnParams": [
                            {
                                "name": "",
                                "type": "bool",
                                "value": true
                            }
                        ],
                        "signature": "isValid()"
                    },
                    "errorInfo": "",
                    "fromAddress": "0xde6bf198446f85789e60e7915c3f1fd5dc93ac84",
                    "gasUsed": 2371,
                    "id": 38,
                    "methodDecoded": true,
                    "operation": "DELEGATECALL",
                    "output": "0x0000000000000000000000000000000000000000000000000000000000000001",
                    "revert": false,
                    "revertMessage": "",
                    "selector": "0xbb5d40eb",
                    "status": true,
                    "value": "0"
                },
                "nodeType": 0
            },
            "39": {
                "invocation": {
                    "address": "0xc0c293ce456ff0ed870add98a0828dd4d2903dbf",
                    "callData": "0x00000000000000000000000061618d9e50d18f11d818a4cdf96b362650bf9e34",
                    "decodedMethod": {
                        "callParams": [
                            {
                                "name": "account",
                                "type": "address",
                                "value": "0x61618d9e50d18f11d818a4cdf96b362650bf9e34"
                            }
                        ],
                        "constructorArguments": "",
                        "name": "balanceOf",
                        "returnParams": [
                            {
                                "decimalAvailable": true,
                                "name": "",
                                "type": "uint256",
                                "value": "0"
                            }
                        ],
                        "signature": "balanceOf(address)"
                    },
                    "errorInfo": "",
                    "fromAddress": "0x61618d9e50d18f11d818a4cdf96b362650bf9e34",
                    "gasUsed": 2602,
                    "id": 39,
                    "methodDecoded": true,
                    "operation": "STATICCALL",
                    "output": "0x0000000000000000000000000000000000000000000000000000000000000000",
                    "revert": false,
                    "revertMessage": "",
                    "selector": "0x70a08231",
                    "status": true,
                    "value": "0"
                },
                "nodeType": 0
            },
            "4": {
                "invocation": {
                    "address": "0x239e55f427d44c3cc793f49bfb507ebe76638a2b",
                    "callData": "0x00000000000000000000000085d6840eab7473b60f10d1a3e2452243eb702c97",
                    "decodedMethod": {
                        "callParams": [
                            {
                                "name": "gauge",
                                "type": "address",
                                "value": "0x85d6840eab7473b60f10d1a3e2452243eb702c97"
                            }
                        ],
                        "constructorArguments": "",
                        "name": "mint",
                        "returnParams": [
                            {
                                "name": "",
                                "type": "uint256",
                                "value": "10,061,174,462,122,803,682"
                            }
                        ],
                        "signature": "mint(address)"
                    },
                    "errorInfo": "",
                    "fromAddress": "0xaf52695e1bb01a16d33d7194c28c42b10e0dbec2",
                    "gasUsed": 329863,
                    "id": 4,
                    "methodDecoded": true,
                    "operation": "CALL",
                    "output": "0x0000000000000000000000000000000000000000000000008ba078ddee0fc1e2",
                    "revert": false,
                    "revertMessage": "",
                    "selector": "0x6a627842",
                    "status": true,
                    "value": "0"
                },
                "nodeType": 0
            },
            "40": {
                "invocation": {
                    "address": "0xba100000625a3754423978a60c9317c58a424e3d",
                    "callData": "0x0000000000000000000000007372ece4c18beabc19981a53b557be90dcbd2b6600000000000000000000000000000000000000000000000002cae3b284c2e009",
                    "decodedMethod": {
                        "callParams": [
                            {
                                "name": "recipient",
                                "type": "address",
                                "value": "0x7372ece4c18beabc19981a53b557be90dcbd2b66"
                            },
                            {
                                "decimalAvailable": true,
                                "name": "amount",
                                "type": "uint256",
                                "value": "201,223,489,242,456,073"
                            }
                        ],
                        "constructorArguments": "",
                        "name": "transfer",
                        "returnParams": [
                            {
                                "name": "",
                                "type": "bool",
                                "value": true
                            }
                        ],
                        "signature": "transfer(address,uint256)"
                    },
                    "errorInfo": "",
                    "fromAddress": "0xa57b8d98dae62b26ec3bcc4a365338157060b234",
                    "gasUsed": 29011,
                    "id": 40,
                    "methodDecoded": true,
                    "operation": "CALL",
                    "output": "0x0000000000000000000000000000000000000000000000000000000000000001",
                    "revert": false,
                    "revertMessage": "",
                    "selector": "0xa9059cbb",
                    "status": true,
                    "value": "0"
                },
                "nodeType": 0
            },
            "41": {
                "event": {
                    "contract": "0xba100000625a3754423978a60c9317c58a424e3d",
                    "decodedLog": {
                        "name": "Transfer",
                        "params": [
                            {
                                "name": "from",
                                "type": "address",
                                "value": "0xa57b8d98dae62b26ec3bcc4a365338157060b234"
                            },
                            {
                                "name": "to",
                                "type": "address",
                                "value": "0x7372ece4c18beabc19981a53b557be90dcbd2b66"
                            },
                            {
                                "decimalAvailable": true,
                                "name": "value",
                                "type": "uint256",
                                "value": "201,223,489,242,456,073"
                            }
                        ],
                        "signature": "Transfer(address,address,uint256)"
                    },
                    "id": 41,
                    "logData": "0x00000000000000000000000000000000000000000000000002cae3b284c2e009",
                    "logDecoded": true,
                    "operation": "EVENT",
                    "revert": false,
                    "status": true,
                    "topics": [
                        "0xddf252ad1be2c89b69c2b068fc378daa952ba7f163c4a11628f55a4df523b3ef",
                        "0x000000000000000000000000a57b8d98dae62b26ec3bcc4a365338157060b234",
                        "0x0000000000000000000000007372ece4c18beabc19981a53b557be90dcbd2b66"
                    ]
                },
                "nodeType": 1
            },
            "42": {
                "invocation": {
                    "address": "0xba100000625a3754423978a60c9317c58a424e3d",
                    "callData": "0x000000000000000000000000ff9f8dc2f76f02cb1d4c3a960d2591ca6a7f686700000000000000000000000000000000000000000000000000b2b8eca130b802",
                    "decodedMethod": {
                        "callParams": [
                            {
                                "name": "recipient",
                                "type": "address",
                                "value": "0xff9f8dc2f76f02cb1d4c3a960d2591ca6a7f6867"
                            },
                            {
                                "decimalAvailable": true,
                                "name": "amount",
                                "type": "uint256",
                                "value": "50,305,872,310,614,018"
                            }
                        ],
                        "constructorArguments": "",
                        "name": "transfer",
                        "returnParams": [
                            {
                                "name": "",
                                "type": "bool",
                                "value": true
                            }
                        ],
                        "signature": "transfer(address,uint256)"
                    },
                    "errorInfo": "",
                    "fromAddress": "0xa57b8d98dae62b26ec3bcc4a365338157060b234",
                    "gasUsed": 29011,
                    "id": 42,
                    "methodDecoded": true,
                    "operation": "CALL",
                    "output": "0x0000000000000000000000000000000000000000000000000000000000000001",
                    "revert": false,
                    "revertMessage": "",
                    "selector": "0xa9059cbb",
                    "status": true,
                    "value": "0"
                },
                "nodeType": 0
            },
            "43": {
                "event": {
                    "contract": "0xba100000625a3754423978a60c9317c58a424e3d",
                    "decodedLog": {
                        "name": "Transfer",
                        "params": [
                            {
                                "name": "from",
                                "type": "address",
                                "value": "0xa57b8d98dae62b26ec3bcc4a365338157060b234"
                            },
                            {
                                "name": "to",
                                "type": "address",
                                "value": "0xff9f8dc2f76f02cb1d4c3a960d2591ca6a7f6867"
                            },
                            {
                                "decimalAvailable": true,
                                "name": "value",
                                "type": "uint256",
                                "value": "50,305,872,310,614,018"
                            }
                        ],
                        "signature": "Transfer(address,address,uint256)"
                    },
                    "id": 43,
                    "logData": "0x00000000000000000000000000000000000000000000000000b2b8eca130b802",
                    "logDecoded": true,
                    "operation": "EVENT",
                    "revert": false,
                    "status": true,
                    "topics": [
                        "0xddf252ad1be2c89b69c2b068fc378daa952ba7f163c4a11628f55a4df523b3ef",
                        "0x000000000000000000000000a57b8d98dae62b26ec3bcc4a365338157060b234",
                        "0x000000000000000000000000ff9f8dc2f76f02cb1d4c3a960d2591ca6a7f6867"
                    ]
                },
                "nodeType": 1
            },
            "44": {
                "invocation": {
                    "address": "0xba100000625a3754423978a60c9317c58a424e3d",
                    "callData": "0x0000000000000000000000000d00848440d2e2b3c6f288128c1a19c483e78f4500000000000000000000000000000000000000000000000068b85aa6728bd16b",
                    "decodedMethod": {
                        "callParams": [
                            {
                                "name": "recipient",
                                "type": "address",
                                "value": "0x0d00848440d2e2b3c6f288128c1a19c483e78f45"
                            },
                            {
                                "decimalAvailable": true,
                                "name": "amount",
                                "type": "uint256",
                                "value": "7,545,880,846,592,102,763"
                            }
                        ],
                        "constructorArguments": "",
                        "name": "transfer",
                        "returnParams": [
                            {
                                "name": "",
                                "type": "bool",
                                "value": true
                            }
                        ],
                        "signature": "transfer(address,uint256)"
                    },
                    "errorInfo": "",
                    "fromAddress": "0xa57b8d98dae62b26ec3bcc4a365338157060b234",
                    "gasUsed": 11911,
                    "id": 44,
                    "methodDecoded": true,
                    "operation": "CALL",
                    "output": "0x0000000000000000000000000000000000000000000000000000000000000001",
                    "revert": false,
                    "revertMessage": "",
                    "selector": "0xa9059cbb",
                    "status": true,
                    "value": "0"
                },
                "nodeType": 0
            },
            "45": {
                "event": {
                    "contract": "0xba100000625a3754423978a60c9317c58a424e3d",
                    "decodedLog": {
                        "name": "Transfer",
                        "params": [
                            {
                                "name": "from",
                                "type": "address",
                                "value": "0xa57b8d98dae62b26ec3bcc4a365338157060b234"
                            },
                            {
                                "name": "to",
                                "type": "address",
                                "value": "0x0d00848440d2e2b3c6f288128c1a19c483e78f45"
                            },
                            {
                                "decimalAvailable": true,
                                "name": "value",
                                "type": "uint256",
                                "value": "7,545,880,846,592,102,763"
                            }
                        ],
                        "signature": "Transfer(address,address,uint256)"
                    },
                    "id": 45,
                    "logData": "0x00000000000000000000000000000000000000000000000068b85aa6728bd16b",
                    "logDecoded": true,
                    "operation": "EVENT",
                    "revert": false,
                    "status": true,
                    "topics": [
                        "0xddf252ad1be2c89b69c2b068fc378daa952ba7f163c4a11628f55a4df523b3ef",
                        "0x000000000000000000000000a57b8d98dae62b26ec3bcc4a365338157060b234",
                        "0x0000000000000000000000000d00848440d2e2b3c6f288128c1a19c483e78f45"
                    ]
                },
                "nodeType": 1
            },
            "46": {
                "invocation": {
                    "address": "0x0d00848440d2e2b3c6f288128c1a19c483e78f45",
                    "callData": "0x00000000000000000000000000000000000000000000000068b85aa6728bd16b",
                    "decodedMethod": {
                        "callParams": [
                            {
                                "name": "_rewards",
                                "type": "uint256",
                                "value": "7,545,880,846,592,102,763"
                            }
                        ],
                        "constructorArguments": "",
                        "name": "queueNewRewards",
                        "returnParams": [
                            {
                                "name": "",
                                "type": "bool",
                                "value": true
                            }
                        ],
                        "signature": "queueNewRewards(uint256)"
                    },
                    "errorInfo": "",
                    "fromAddress": "0xa57b8d98dae62b26ec3bcc4a365338157060b234",
                    "gasUsed": 38748,
                    "id": 46,
                    "methodDecoded": true,
                    "operation": "CALL",
                    "output": "0x0000000000000000000000000000000000000000000000000000000000000001",
                    "revert": false,
                    "revertMessage": "",
                    "selector": "0x590a41f5",
                    "status": true,
                    "value": "0"
                },
                "nodeType": 0
            },
            "47": {
                "event": {
                    "contract": "0x0d00848440d2e2b3c6f288128c1a19c483e78f45",
                    "decodedLog": {
                        "name": "RewardAdded",
                        "params": [
                            {
                                "name": "reward",
                                "type": "uint256",
                                "value": "11,792,334,961,830,367,143"
                            }
                        ],
                        "signature": "RewardAdded(uint256)"
                    },
                    "id": 47,
                    "logData": "0x000000000000000000000000000000000000000000000000a3a6ca2b58518fa7",
                    "logDecoded": true,
                    "operation": "EVENT",
                    "revert": false,
                    "status": true,
                    "topics": [
                        "0xde88a922e0d3b88b24e9623efeb464919c6bf9f66857a65e2bfcf2ce87a9433d"
                    ]
                },
                "nodeType": 1
            },
            "48": {
                "invocation": {
                    "address": "0xba100000625a3754423978a60c9317c58a424e3d",
                    "callData": "0x00000000000000000000000000a7ba8ae7bca0b10a32ea1f8e2a1da980c6cad200000000000000000000000000000000000000000000000019d4ba334c0a9859",
                    "decodedMethod": {
                        "callParams": [
                            {
                                "name": "recipient",
                                "type": "address",
                                "value": "0x00a7ba8ae7bca0b10a32ea1f8e2a1da980c6cad2"
                            },
                            {
                                "decimalAvailable": true,
                                "name": "amount",
                                "type": "uint256",
                                "value": "1,861,317,275,492,718,681"
                            }
                        ],
                        "constructorArguments": "",
                        "name": "transfer",
                        "returnParams": [
                            {
                                "name": "",
                                "type": "bool",
                                "value": true
                            }
                        ],
                        "signature": "transfer(address,uint256)"
                    },
                    "errorInfo": "",
                    "fromAddress": "0xa57b8d98dae62b26ec3bcc4a365338157060b234",
                    "gasUsed": 11911,
                    "id": 48,
                    "methodDecoded": true,
                    "operation": "CALL",
                    "output": "0x0000000000000000000000000000000000000000000000000000000000000001",
                    "revert": false,
                    "revertMessage": "",
                    "selector": "0xa9059cbb",
                    "status": true,
                    "value": "0"
                },
                "nodeType": 0
            },
            "49": {
                "event": {
                    "contract": "0xba100000625a3754423978a60c9317c58a424e3d",
                    "decodedLog": {
                        "name": "Transfer",
                        "params": [
                            {
                                "name": "from",
                                "type": "address",
                                "value": "0xa57b8d98dae62b26ec3bcc4a365338157060b234"
                            },
                            {
                                "name": "to",
                                "type": "address",
                                "value": "0x00a7ba8ae7bca0b10a32ea1f8e2a1da980c6cad2"
                            },
                            {
                                "decimalAvailable": true,
                                "name": "value",
                                "type": "uint256",
                                "value": "1,861,317,275,492,718,681"
                            }
                        ],
                        "signature": "Transfer(address,address,uint256)"
                    },
                    "id": 49,
                    "logData": "0x00000000000000000000000000000000000000000000000019d4ba334c0a9859",
                    "logDecoded": true,
                    "operation": "EVENT",
                    "revert": false,
                    "status": true,
                    "topics": [
                        "0xddf252ad1be2c89b69c2b068fc378daa952ba7f163c4a11628f55a4df523b3ef",
                        "0x000000000000000000000000a57b8d98dae62b26ec3bcc4a365338157060b234",
                        "0x00000000000000000000000000a7ba8ae7bca0b10a32ea1f8e2a1da980c6cad2"
                    ]
                },
                "nodeType": 1
            },
            "5": {
                "invocation": {
                    "address": "0xc128468b7ce63ea702c1f104d55a2566b13d3abd",
                    "callData": "0x00000000000000000000000085d6840eab7473b60f10d1a3e2452243eb702c97",
                    "decodedMethod": {
                        "callParams": [
                            {
                                "name": "_addr",
                                "type": "address",
                                "value": "0x85d6840eab7473b60f10d1a3e2452243eb702c97"
                            }
                        ],
                        "constructorArguments": "",
                        "name": "gauge_types",
                        "returnParams": [
                            {
                                "name": "",
                                "type": "int128",
                                "value": "2"
                            }
                        ],
                        "signature": "gauge_types(address)"
                    },
                    "errorInfo": "",
                    "fromAddress": "0x239e55f427d44c3cc793f49bfb507ebe76638a2b",
                    "gasUsed": 2513,
                    "id": 5,
                    "methodDecoded": true,
                    "operation": "STATICCALL",
                    "output": "0x0000000000000000000000000000000000000000000000000000000000000002",
                    "revert": false,
                    "revertMessage": "",
                    "selector": "0x3f9095b7",
                    "status": true,
                    "value": "0"
                },
                "nodeType": 0
            },
            "50": {
                "invocation": {
                    "address": "0x00a7ba8ae7bca0b10a32ea1f8e2a1da980c6cad2",
                    "callData": "0x00000000000000000000000000000000000000000000000019d4ba334c0a9859",
                    "decodedMethod": {
                        "callParams": [
                            {
                                "name": "_rewards",
                                "type": "uint256",
                                "value": "1,861,317,275,492,718,681"
                            }
                        ],
                        "constructorArguments": "",
                        "name": "queueNewRewards",
                        "returnParams": [
                            {
                                "name": "",
                                "type": "bool",
                                "value": true
                            }
                        ],
                        "signature": "queueNewRewards(uint256)"
                    },
                    "errorInfo": "",
                    "fromAddress": "0xa57b8d98dae62b26ec3bcc4a365338157060b234",
                    "gasUsed": 10232,
                    "id": 50,
                    "methodDecoded": true,
                    "operation": "CALL",
                    "output": "0x0000000000000000000000000000000000000000000000000000000000000001",
                    "revert": false,
                    "revertMessage": "",
                    "selector": "0x590a41f5",
                    "status": true,
                    "value": "0"
                },
                "nodeType": 0
            },
            "51": {
                "invocation": {
                    "address": "0xba100000625a3754423978a60c9317c58a424e3d",
                    "callData": "0x000000000000000000000000d9e863b7317a66fe0a4d2834910f604fd6f89c6c0000000000000000000000000000000000000000000000000595c7650985c013",
                    "decodedMethod": {
                        "callParams": [
                            {
                                "name": "recipient",
                                "type": "address",
                                "value": "0xd9e863b7317a66fe0a4d2834910f604fd6f89c6c"
                            },
                            {
                                "decimalAvailable": true,
                                "name": "amount",
                                "type": "uint256",
                                "value": "402,446,978,484,912,147"
                            }
                        ],
                        "constructorArguments": "",
                        "name": "transfer",
                        "returnParams": [
                            {
                                "name": "",
                                "type": "bool",
                                "value": true
                            }
                        ],
                        "signature": "transfer(address,uint256)"
                    },
                    "errorInfo": "",
                    "fromAddress": "0xa57b8d98dae62b26ec3bcc4a365338157060b234",
                    "gasUsed": 11911,
                    "id": 51,
                    "methodDecoded": true,
                    "operation": "CALL",
                    "output": "0x0000000000000000000000000000000000000000000000000000000000000001",
                    "revert": false,
                    "revertMessage": "",
                    "selector": "0xa9059cbb",
                    "status": true,
                    "value": "0"
                },
                "nodeType": 0
            },
            "52": {
                "event": {
                    "contract": "0xba100000625a3754423978a60c9317c58a424e3d",
                    "decodedLog": {
                        "name": "Transfer",
                        "params": [
                            {
                                "name": "from",
                                "type": "address",
                                "value": "0xa57b8d98dae62b26ec3bcc4a365338157060b234"
                            },
                            {
                                "name": "to",
                                "type": "address",
                                "value": "0xd9e863b7317a66fe0a4d2834910f604fd6f89c6c"
                            },
                            {
                                "decimalAvailable": true,
                                "name": "value",
                                "type": "uint256",
                                "value": "402,446,978,484,912,147"
                            }
                        ],
                        "signature": "Transfer(address,address,uint256)"
                    },
                    "id": 52,
                    "logData": "0x0000000000000000000000000000000000000000000000000595c7650985c013",
                    "logDecoded": true,
                    "operation": "EVENT",
                    "revert": false,
                    "status": true,
                    "topics": [
                        "0xddf252ad1be2c89b69c2b068fc378daa952ba7f163c4a11628f55a4df523b3ef",
                        "0x000000000000000000000000a57b8d98dae62b26ec3bcc4a365338157060b234",
                        "0x000000000000000000000000d9e863b7317a66fe0a4d2834910f604fd6f89c6c"
                    ]
                },
                "nodeType": 1
            },
            "6": {
                "invocation": {
                    "address": "0x85d6840eab7473b60f10d1a3e2452243eb702c97",
                    "callData": "0x000000000000000000000000af52695e1bb01a16d33d7194c28c42b10e0dbec2",
                    "decodedMethod": {
                        "callParams": [
                            {
                                "name": "addr",
                                "type": "address",
                                "value": "0xaf52695e1bb01a16d33d7194c28c42b10e0dbec2"
                            }
                        ],
                        "constructorArguments": "",
                        "name": "user_checkpoint",
                        "returnParams": [
                            {
                                "name": "",
                                "type": "bool",
                                "value": true
                            }
                        ],
                        "signature": "user_checkpoint(address)"
                    },
                    "errorInfo": "",
                    "fromAddress": "0x239e55f427d44c3cc793f49bfb507ebe76638a2b",
                    "gasUsed": 249118,
                    "id": 6,
                    "methodDecoded": true,
                    "operation": "CALL",
                    "output": "0x0000000000000000000000000000000000000000000000000000000000000001",
                    "revert": false,
                    "revertMessage": "",
                    "selector": "0x4b820093",
                    "status": true,
                    "value": "0"
                },
                "nodeType": 0
            },
            "7": {
                "invocation": {
                    "address": "0xe5f96070ca00cd54795416b1a4b4c2403231c548",
                    "callData": "0x000000000000000000000000af52695e1bb01a16d33d7194c28c42b10e0dbec2",
                    "decodedMethod": {
                        "callParams": [
                            {
                                "name": "addr",
                                "type": "address",
                                "value": "0xaf52695e1bb01a16d33d7194c28c42b10e0dbec2"
                            }
                        ],
                        "constructorArguments": "",
                        "name": "user_checkpoint",
                        "returnParams": [
                            {
                                "name": "",
                                "type": "bool",
                                "value": true
                            }
                        ],
                        "signature": "user_checkpoint(address)"
                    },
                    "errorInfo": "",
                    "fromAddress": "0x85d6840eab7473b60f10d1a3e2452243eb702c97",
                    "gasUsed": 246446,
                    "id": 7,
                    "methodDecoded": true,
                    "operation": "DELEGATECALL",
                    "output": "0x0000000000000000000000000000000000000000000000000000000000000001",
                    "revert": false,
                    "revertMessage": "",
                    "selector": "0x4b820093",
                    "status": true,
                    "value": "0"
                },
                "nodeType": 0
            },
            "8": {
                "invocation": {
                    "address": "0xf302f9f50958c5593770fdf4d4812309ff77414f",
                    "callData": "0x",
                    "decodedMethod": {
                        "callParams": [],
                        "constructorArguments": "",
                        "name": "rate",
                        "returnParams": [
                            {
                                "name": "",
                                "type": "uint256",
                                "value": "201,603,803,260,232,494"
                            }
                        ],
                        "signature": "rate()"
                    },
                    "errorInfo": "",
                    "fromAddress": "0x85d6840eab7473b60f10d1a3e2452243eb702c97",
                    "gasUsed": 2344,
                    "id": 8,
                    "methodDecoded": true,
                    "operation": "STATICCALL",
                    "output": "0x00000000000000000000000000000000000000000000000002cc3d9746b1a32e",
                    "revert": false,
                    "revertMessage": "",
                    "selector": "0x2c4e722e",
                    "status": true,
                    "value": "0"
                },
                "nodeType": 0
            },
            "9": {
                "invocation": {
                    "address": "0xf302f9f50958c5593770fdf4d4812309ff77414f",
                    "callData": "0x",
                    "decodedMethod": {
                        "callParams": [],
                        "constructorArguments": "",
                        "name": "future_epoch_time_write",
                        "returnParams": [
                            {
                                "name": "",
                                "type": "uint256",
                                "value": "1,711,537,251"
                            }
                        ],
                        "signature": "future_epoch_time_write()"
                    },
                    "errorInfo": "",
                    "fromAddress": "0x85d6840eab7473b60f10d1a3e2452243eb702c97",
                    "gasUsed": 2702,
                    "id": 9,
                    "methodDecoded": true,
                    "operation": "CALL",
                    "output": "0x000000000000000000000000000000000000000000000000000000006603fc63",
                    "revert": false,
                    "revertMessage": "",
                    "selector": "0xb26b238e",
                    "status": true,
                    "value": "0"
                },
                "nodeType": 0
            }
        },
        "gasFlame": [
            {
                "children": [
                    {
                        "children": [
                            {
                                "children": [],
                                "depth": 0,
                                "name": "Initial Gas",
                                "value": 21204
                            },
                            {
                                "children": [
                                    {
                                        "children": [],
                                        "depth": 1,
                                        "name": "balanceOf",
                                        "value": 2542
                                    },
                                    {
                                        "children": [],
                                        "depth": 1,
                                        "name": "balanceOf",
                                        "value": 2542
                                    },
                                    {
                                        "children": [
                                            {
                                                "children": [
                                                    {
                                                        "children": [],
                                                        "depth": 3,
                                                        "name": "gauge_types",
                                                        "value": 2513
                                                    },
                                                    {
                                                        "children": [
                                                            {
                                                                "children": [
                                                                    {
                                                                        "children": [],
                                                                        "depth": 5,
                                                                        "name": "rate",
                                                                        "value": 2344
                                                                    },
                                                                    {
                                                                        "children": [],
                                                                        "depth": 5,
                                                                        "name": "future_epoch_time_write",
                                                                        "value": 2702
                                                                    },
                                                                    {
                                                                        "children": [],
                                                                        "depth": 5,
                                                                        "name": "checkpoint_gauge",
                                                                        "value": 88311
                                                                    },
                                                                    {
                                                                        "children": [],
                                                                        "depth": 5,
                                                                        "name": "gauge_relative_weight",
                                                                        "value": 5706
                                                                    },
                                                                    {
                                                                        "children": [
                                                                            {
                                                                                "children": [
                                                                                    {
                                                                                        "children": [],
                                                                                        "depth": 7,
                                                                                        "name": "balanceOf",
                                                                                        "value": 11667
                                                                                    }
                                                                                ],
                                                                                "depth": 6,
                                                                                "name": "adjusted_balance_of",
                                                                                "value": 28611
                                                                            }
                                                                        ],
                                                                        "depth": 5,
                                                                        "name": "adjusted_balance_of",
                                                                        "value": 33986
                                                                    },
                                                                    {
                                                                        "children": [],
                                                                        "depth": 5,
                                                                        "name": "totalSupply",
                                                                        "value": 12021
                                                                    }
                                                                ],
                                                                "depth": 4,
                                                                "name": "user_checkpoint",
                                                                "value": 246446
                                                            }
                                                        ],
                                                        "depth": 3,
                                                        "name": "user_checkpoint",
                                                        "value": 249118
                                                    },
                                                    {
                                                        "children": [
                                                            {
                                                                "children": [],
                                                                "depth": 4,
                                                                "name": "integrate_fraction",
                                                                "value": 1521
                                                            }
                                                        ],
                                                        "depth": 3,
                                                        "name": "integrate_fraction",
                                                        "value": 1693
                                                    },
                                                    {
                                                        "children": [
                                                            {
                                                                "children": [],
                                                                "depth": 4,
                                                                "name": "getAuthorizer",
                                                                "value": 2449
                                                            },
                                                            {
                                                                "children": [
                                                                    {
                                                                        "children": [],
                                                                        "depth": 5,
                                                                        "name": "canPerform",
                                                                        "value": 2688
                                                                    }
                                                                ],
                                                                "depth": 4,
                                                                "name": "canPerform",
                                                                "value": 5980
                                                            },
                                                            {
                                                                "children": [],
                                                                "depth": 4,
                                                                "name": "totalSupply",
                                                                "value": 2404
                                                            },
                                                            {
                                                                "children": [],
                                                                "depth": 4,
                                                                "name": "mint",
                                                                "value": 35812
                                                            }
                                                        ],
                                                        "depth": 3,
                                                        "name": "mint",
                                                        "value": 57022
                                                    }
                                                ],
                                                "depth": 2,
                                                "name": "mint",
                                                "value": 329863
                                            },
                                            {
                                                "children": [],
                                                "depth": 2,
                                                "name": "balanceOf",
                                                "value": 542
                                            },
                                            {
                                                "children": [],
                                                "depth": 2,
                                                "name": "transfer",
                                                "value": 27011
                                            }
                                        ],
                                        "depth": 1,
                                        "name": "claimCrv",
                                        "value": 366971
                                    },
                                    {
                                        "children": [],
                                        "depth": 1,
                                        "name": "balanceOf",
                                        "value": 542
                                    },
                                    {
                                        "children": [
                                            {
                                                "children": [
                                                    {
                                                        "children": [
                                                            {
                                                                "children": [],
                                                                "depth": 4,
                                                                "name": "reward_tokens",
                                                                "value": 3506
                                                            }
                                                        ],
                                                        "depth": 3,
                                                        "name": "reward_tokens",
                                                        "value": 3678
                                                    }
                                                ],
                                                "depth": 2,
                                                "name": "claimRewards",
                                                "value": 13091
                                            }
                                        ],
                                        "depth": 1,
                                        "name": "claimRewards",
                                        "value": 15757
                                    },
                                    {
                                        "children": [
                                            {
                                                "children": [
                                                    {
                                                        "children": [
                                                            {
                                                                "children": [],
                                                                "depth": 4,
                                                                "name": "isValid",
                                                                "value": 2371
                                                            }
                                                        ],
                                                        "depth": 3,
                                                        "name": "isValid",
                                                        "value": 5037
                                                    },
                                                    {
                                                        "children": [],
                                                        "depth": 3,
                                                        "name": "balanceOf",
                                                        "value": 2602
                                                    }
                                                ],
                                                "depth": 2,
                                                "name": "processStash",
                                                "value": 22796
                                            }
                                        ],
                                        "depth": 1,
                                        "name": "processStash",
                                        "value": 22962
                                    },
                                    {
                                        "children": [],
                                        "depth": 1,
                                        "name": "transfer",
                                        "value": 29011
                                    },
                                    {
                                        "children": [],
                                        "depth": 1,
                                        "name": "transfer",
                                        "value": 29011
                                    },
                                    {
                                        "children": [],
                                        "depth": 1,
                                        "name": "transfer",
                                        "value": 11911
                                    },
                                    {
                                        "children": [],
                                        "depth": 1,
                                        "name": "queueNewRewards",
                                        "value": 38748
                                    },
                                    {
                                        "children": [],
                                        "depth": 1,
                                        "name": "transfer",
                                        "value": 11911
                                    },
                                    {
                                        "children": [],
                                        "depth": 1,
                                        "name": "queueNewRewards",
                                        "value": 10232
                                    },
                                    {
                                        "children": [],
                                        "depth": 1,
                                        "name": "transfer",
                                        "value": 11911
                                    }
                                ],
                                "depth": 0,
                                "name": "Executed Gas",
                                "value": 610559
                            }
                        ],
                        "depth": -1,
                        "name": "Actual Gas Used",
                        "value": 586363
                    },
                    {
                        "children": [],
                        "depth": -1,
                        "name": "Refunded Gas",
                        "value": 45400
                    }
                ],
                "depth": -2,
                "name": "Total Gas",
                "value": 631763
            }
        ],
        "isConfirmed": true,
        "mainTrace": [
            {
                "children": [
                    {
                        "children": [
                            {
                                "children": [],
                                "depth": 1,
                                "id": 1,
                                "order": 1
                            },
                            {
                                "children": [],
                                "depth": 1,
                                "id": 2,
                                "order": 2
                            },
                            {
                                "children": [
                                    {
                                        "children": [
                                            {
                                                "children": [],
                                                "depth": 3,
                                                "id": 5,
                                                "order": 5
                                            },
                                            {
                                                "children": [
                                                    {
                                                        "children": [
                                                            {
                                                                "children": [],
                                                                "depth": 5,
                                                                "id": 8,
                                                                "order": 8
                                                            },
                                                            {
                                                                "children": [],
                                                                "depth": 5,
                                                                "id": 9,
                                                                "order": 9
                                                            },
                                                            {
                                                                "children": [],
                                                                "depth": 5,
                                                                "id": 10,
                                                                "order": 10
                                                            },
                                                            {
                                                                "children": [],
                                                                "depth": 5,
                                                                "id": 11,
                                                                "order": 11
                                                            },
                                                            {
                                                                "children": [
                                                                    {
                                                                        "children": [
                                                                            {
                                                                                "children": [],
                                                                                "depth": 7,
                                                                                "id": 14,
                                                                                "order": 14
                                                                            }
                                                                        ],
                                                                        "depth": 6,
                                                                        "id": 13,
                                                                        "order": 13
                                                                    }
                                                                ],
                                                                "depth": 5,
                                                                "id": 12,
                                                                "order": 12
                                                            },
                                                            {
                                                                "children": [],
                                                                "depth": 5,
                                                                "id": 15,
                                                                "order": 15
                                                            },
                                                            {
                                                                "children": [],
                                                                "depth": 5,
                                                                "id": 16,
                                                                "order": 16
                                                            }
                                                        ],
                                                        "depth": 4,
                                                        "id": 7,
                                                        "order": 7
                                                    }
                                                ],
                                                "depth": 3,
                                                "id": 6,
                                                "order": 6
                                            },
                                            {
                                                "children": [
                                                    {
                                                        "children": [],
                                                        "depth": 4,
                                                        "id": 18,
                                                        "order": 18
                                                    }
                                                ],
                                                "depth": 3,
                                                "id": 17,
                                                "order": 17
                                            },
                                            {
                                                "children": [],
                                                "depth": 3,
                                                "id": 19,
                                                "order": 19
                                            },
                                            {
                                                "children": [
                                                    {
                                                        "children": [],
                                                        "depth": 4,
                                                        "id": 21,
                                                        "order": 21
                                                    },
                                                    {
                                                        "children": [
                                                            {
                                                                "children": [],
                                                                "depth": 5,
                                                                "id": 23,
                                                                "order": 23
                                                            }
                                                        ],
                                                        "depth": 4,
                                                        "id": 22,
                                                        "order": 22
                                                    },
                                                    {
                                                        "children": [],
                                                        "depth": 4,
                                                        "id": 24,
                                                        "order": 24
                                                    },
                                                    {
                                                        "children": [
                                                            {
                                                                "children": [],
                                                                "depth": 5,
                                                                "id": 26,
                                                                "order": 26
                                                            }
                                                        ],
                                                        "depth": 4,
                                                        "id": 25,
                                                        "order": 25
                                                    }
                                                ],
                                                "depth": 3,
                                                "id": 20,
                                                "order": 20
                                            }
                                        ],
                                        "depth": 2,
                                        "id": 4,
                                        "order": 4
                                    },
                                    {
                                        "children": [],
                                        "depth": 2,
                                        "id": 27,
                                        "order": 27
                                    },
                                    {
                                        "children": [
                                            {
                                                "children": [],
                                                "depth": 3,
                                                "id": 29,
                                                "order": 29
                                            }
                                        ],
                                        "depth": 2,
                                        "id": 28,
                                        "order": 28
                                    }
                                ],
                                "depth": 1,
                                "id": 3,
                                "order": 3
                            },
                            {
                                "children": [],
                                "depth": 1,
                                "id": 30,
                                "order": 30
                            },
                            {
                                "children": [
                                    {
                                        "children": [
                                            {
                                                "children": [
                                                    {
                                                        "children": [],
                                                        "depth": 4,
                                                        "id": 34,
                                                        "order": 34
                                                    }
                                                ],
                                                "depth": 3,
                                                "id": 33,
                                                "order": 33
                                            }
                                        ],
                                        "depth": 2,
                                        "id": 32,
                                        "order": 32
                                    }
                                ],
                                "depth": 1,
                                "id": 31,
                                "order": 31
                            },
                            {
                                "children": [
                                    {
                                        "children": [
                                            {
                                                "children": [
                                                    {
                                                        "children": [],
                                                        "depth": 4,
                                                        "id": 38,
                                                        "order": 38
                                                    }
                                                ],
                                                "depth": 3,
                                                "id": 37,
                                                "order": 37
                                            },
                                            {
                                                "children": [],
                                                "depth": 3,
                                                "id": 39,
                                                "order": 39
                                            }
                                        ],
                                        "depth": 2,
                                        "id": 36,
                                        "order": 36
                                    }
                                ],
                                "depth": 1,
                                "id": 35,
                                "order": 35
                            },
                            {
                                "children": [
                                    {
                                        "children": [],
                                        "depth": 2,
                                        "id": 41,
                                        "order": 41
                                    }
                                ],
                                "depth": 1,
                                "id": 40,
                                "order": 40
                            },
                            {
                                "children": [
                                    {
                                        "children": [],
                                        "depth": 2,
                                        "id": 43,
                                        "order": 43
                                    }
                                ],
                                "depth": 1,
                                "id": 42,
                                "order": 42
                            },
                            {
                                "children": [
                                    {
                                        "children": [],
                                        "depth": 2,
                                        "id": 45,
                                        "order": 45
                                    }
                                ],
                                "depth": 1,
                                "id": 44,
                                "order": 44
                            },
                            {
                                "children": [
                                    {
                                        "children": [],
                                        "depth": 2,
                                        "id": 47,
                                        "order": 47
                                    }
                                ],
                                "depth": 1,
                                "id": 46,
                                "order": 46
                            },
                            {
                                "children": [
                                    {
                                        "children": [],
                                        "depth": 2,
                                        "id": 49,
                                        "order": 49
                                    }
                                ],
                                "depth": 1,
                                "id": 48,
                                "order": 48
                            },
                            {
                                "children": [],
                                "depth": 1,
                                "id": 50,
                                "order": 50
                            },
                            {
                                "children": [
                                    {
                                        "children": [],
                                        "depth": 2,
                                        "id": 52,
                                        "order": 52
                                    }
                                ],
                                "depth": 1,
                                "id": 51,
                                "order": 51
                            }
                        ],
                        "depth": 0,
                        "id": 0,
                        "order": 0
                    }
                ],
                "depth": -1,
                "id": -1,
                "order": -1
            }
        ],
        "mainTraceNodeCount": 53,
        "parentIdMap": {
            "0": -1,
            "1": 0,
            "10": 7,
            "11": 7,
            "12": 7,
            "13": 12,
            "14": 13,
            "15": 7,
            "16": 7,
            "17": 4,
            "18": 17,
            "19": 4,
            "2": 0,
            "20": 4,
            "21": 20,
            "22": 20,
            "23": 22,
            "24": 20,
            "25": 20,
            "26": 25,
            "27": 3,
            "28": 3,
            "29": 28,
            "3": 0,
            "30": 0,
            "31": 0,
            "32": 31,
            "33": 32,
            "34": 33,
            "35": 0,
            "36": 35,
            "37": 36,
            "38": 37,
            "39": 36,
            "4": 3,
            "40": 0,
            "41": 40,
            "42": 0,
            "43": 42,
            "44": 0,
            "45": 44,
            "46": 0,
            "47": 46,
            "48": 0,
            "49": 48,
            "5": 4,
            "50": 0,
            "51": 0,
            "52": 51,
            "6": 4,
            "7": 6,
            "8": 7,
            "9": 7
        },
        "tidyTrace": [
            {
                "children": [
                    {
                        "children": [
                            {
                                "children": [
                                    {
                                        "children": [
                                            {
                                                "children": [
                                                    {
                                                        "children": [
                                                            {
                                                                "children": [],
                                                                "depth": 5,
                                                                "id": 9,
                                                                "order": 9
                                                            },
                                                            {
                                                                "children": [],
                                                                "depth": 5,
                                                                "id": 10,
                                                                "order": 10
                                                            },
                                                            {
                                                                "children": [],
                                                                "depth": 5,
                                                                "id": 16,
                                                                "order": 16
                                                            }
                                                        ],
                                                        "depth": 4,
                                                        "id": 7,
                                                        "order": 7
                                                    }
                                                ],
                                                "depth": 3,
                                                "id": 6,
                                                "order": 6
                                            },
                                            {
                                                "children": [],
                                                "depth": 3,
                                                "id": 19,
                                                "order": 19
                                            },
                                            {
                                                "children": [
                                                    {
                                                        "children": [
                                                            {
                                                                "children": [],
                                                                "depth": 5,
                                                                "id": 26,
                                                                "order": 26
                                                            }
                                                        ],
                                                        "depth": 4,
                                                        "id": 25,
                                                        "order": 25
                                                    }
                                                ],
                                                "depth": 3,
                                                "id": 20,
                                                "order": 20
                                            }
                                        ],
                                        "depth": 2,
                                        "id": 4,
                                        "order": 4
                                    },
                                    {
                                        "children": [
                                            {
                                                "children": [],
                                                "depth": 3,
                                                "id": 29,
                                                "order": 29
                                            }
                                        ],
                                        "depth": 2,
                                        "id": 28,
                                        "order": 28
                                    }
                                ],
                                "depth": 1,
                                "id": 3,
                                "order": 3
                            },
                            {
                                "children": [
                                    {
                                        "children": [],
                                        "depth": 2,
                                        "id": 32,
                                        "order": 32
                                    }
                                ],
                                "depth": 1,
                                "id": 31,
                                "order": 31
                            },
                            {
                                "children": [
                                    {
                                        "children": [],
                                        "depth": 2,
                                        "id": 36,
                                        "order": 36
                                    }
                                ],
                                "depth": 1,
                                "id": 35,
                                "order": 35
                            },
                            {
                                "children": [
                                    {
                                        "children": [],
                                        "depth": 2,
                                        "id": 41,
                                        "order": 41
                                    }
                                ],
                                "depth": 1,
                                "id": 40,
                                "order": 40
                            },
                            {
                                "children": [
                                    {
                                        "children": [],
                                        "depth": 2,
                                        "id": 43,
                                        "order": 43
                                    }
                                ],
                                "depth": 1,
                                "id": 42,
                                "order": 42
                            },
                            {
                                "children": [
                                    {
                                        "children": [],
                                        "depth": 2,
                                        "id": 45,
                                        "order": 45
                                    }
                                ],
                                "depth": 1,
                                "id": 44,
                                "order": 44
                            },
                            {
                                "children": [
                                    {
                                        "children": [],
                                        "depth": 2,
                                        "id": 47,
                                        "order": 47
                                    }
                                ],
                                "depth": 1,
                                "id": 46,
                                "order": 46
                            },
                            {
                                "children": [
                                    {
                                        "children": [],
                                        "depth": 2,
                                        "id": 49,
                                        "order": 49
                                    }
                                ],
                                "depth": 1,
                                "id": 48,
                                "order": 48
                            },
                            {
                                "children": [],
                                "depth": 1,
                                "id": 50,
                                "order": 50
                            },
                            {
                                "children": [
                                    {
                                        "children": [],
                                        "depth": 2,
                                        "id": 52,
                                        "order": 52
                                    }
                                ],
                                "depth": 1,
                                "id": 51,
                                "order": 51
                            }
                        ],
                        "depth": 0,
                        "id": 0,
                        "order": 0
                    }
                ],
                "depth": -1,
                "id": -1,
                "order": -1
            }
        ],
        "tidyTraceNodeCount": 31
    },
    "state_change": {
        "stateChanges": [
            {
                "address": "0x00a7ba8ae7bca0b10a32ea1f8e2a1da980c6cad2",
                "erc": "",
                "slots": [
                    {
                        "current": "0x0000000000000000000000000000000000000000000003011e8224d356dcaa22",
                        "key": "0x0000000000000000000000000000000000000000000000000000000000000004",
                        "prev": "0x00000000000000000000000000000000000000000000030104ad6aa00ad211c9"
                    }
                ],
                "storageVariables": [
                    {
                        "name": "queuedRewards",
                        "type": "uint256",
                        "value": {
                            "current": "14187744552740869417506",
                            "prev": "14185883235465376698825",
                            "typeTag": 1
                        }
                    }
                ]
            },
            {
                "address": "0x0d00848440d2e2b3c6f288128c1a19c483e78f45",
                "erc": "",
                "slots": [
                    {
                        "current": "0x0000000000000000000000000000000000000000000000000000000065a8f0b7",
                        "key": "0x0000000000000000000000000000000000000000000000000000000000000000",
                        "prev": "0x0000000000000000000000000000000000000000000000000000000065a89ba3"
                    },
                    {
                        "current": "0x000000000000000000000000000000000000000000000000000002f388bb2f39",
                        "key": "0x0000000000000000000000000000000000000000000000000000000000000003",
                        "prev": "0x0000000000000000000000000000000000000000000000000000000035e6ac0f"
                    },
                    {
                        "current": "0x00000000000000000000000000000000000000000000000000000000659fb637",
                        "key": "0x0000000000000000000000000000000000000000000000000000000000000002",
                        "prev": "0x00000000000000000000000000000000000000000000000000000000659f6123"
                    },
                    {
                        "current": "0x000000000000000000000000000000000000000000000000a5da88b157c46d55",
                        "key": "0x0000000000000000000000000000000000000000000000000000000000000006",
                        "prev": "0x0000000000000000000000000000000000000000000000003d222e0ae5389bea"
                    },
                    {
                        "current": "0x000000000000000000000000000000000000000000000000000011bbb5e676e7",
                        "key": "0x0000000000000000000000000000000000000000000000000000000000000001",
                        "prev": "0x0000000000000000000000000000000000000000000000000000069fd54984dd"
                    },
                    {
                        "current": "0x000000000000000000000000000000000000000000000000a3a6ca2b58518fa7",
                        "key": "0x0000000000000000000000000000000000000000000000000000000000000005",
                        "prev": "0x0000000000000000000000000000000000000000000000003d2205d2f8a31c6f"
                    }
                ],
                "storageVariables": []
            },
            {
                "address": "0x239e55f427d44c3cc793f49bfb507ebe76638a2b",
                "erc": "",
                "slots": [
                    {
                        "current": "0x000000000000000000000000000000000000000000000000dd2360ec7505e715",
                        "key": "0xd7ee6a849d817a8a270bfad1ad9e8da5771a4bc3fb69e5dbffe2e68613a32f76",
                        "prev": "0x0000000000000000000000000000000000000000000000005182e80e86f62533"
                    }
                ],
                "storageVariables": [
                    {
                        "name": "_minted",
                        "type": "mapping(address => mapping(address => uint256))",
                        "value": {
                            "pairs": [
                                {
                                    "key": "0xaf52695e1bb01a16d33d7194c28c42b10e0dbec2",
                                    "value": {
                                        "pairs": [
                                            {
                                                "key": "0x85d6840eab7473b60f10d1a3e2452243eb702c97",
                                                "value": {
                                                    "current": "15934686475258816277",
                                                    "prev": "5873512013136012595",
                                                    "typeTag": 1
                                                }
                                            }
                                        ],
                                        "typeTag": 4
                                    }
                                }
                            ],
                            "typeTag": 4
                        }
                    }
                ]
            },
            {
                "address": "0x85d6840eab7473b60f10d1a3e2452243eb702c97",
                "erc": "",
                "slots": [
                    {
                        "current": "0x00000000000000000000000000000000000000000000000000000000659fb637",
                        "key": "0x0000000000000000000000000000000000000000000000000000000000000029",
                        "prev": "0x0000000000000000000000000000000000000000000000000000000000000000"
                    },
                    {
                        "current": "0x0000000000000000000000000000000000000000000000000d94da3bb0a8db85",
                        "key": "0x0000000000000000000000000000000000000001431e0fae6d72100000000029",
                        "prev": "0x0000000000000000000000000000000000000000000000000000000000000000"
                    },
                    {
                        "current": "0x000000000000000000000000000000000000000000000000dd2360ec7505e715",
                        "key": "0x74edf674e0b4da457617e434891c9c9701ed171dc9d25ac3e098333162f0c328",
                        "prev": "0x0000000000000000000000000000000000000000000000005182e80e86f62533"
                    },
                    {
                        "current": "0x0000000000000000000000000000000000000000000000000d94da3bb0a8db85",
                        "key": "0x6900843274600a4dde7902dbc5483014228dd5820b44fc7269389af3e36833c6",
                        "prev": "0x0000000000000000000000000000000000000000000000000d93d219a50db2af"
                    },
                    {
                        "current": "0x00000000000000000000000000000000000000000000000000000000659fb637",
                        "key": "0x354c8508324cad6c5ccc6862b061ec1b65d85f2dc8d568185f6076b50d4f959c",
                        "prev": "0x00000000000000000000000000000000000000000000000000000000659f6123"
                    },
                    {
                        "current": "0x000000000000000000000000000000000000000000000756530df2b4f163a0af",
                        "key": "0x0381d676dcacf74bb06bb42b2355427241570874da450e55e5b33f6d2415c645",
                        "prev": "0x0000000000000000000000000000000000000000000007560c0fdbf14e3a7b76"
                    },
                    {
                        "current": "0x0000000000000000000000000000000000000000000007568503b7a218cba0af",
                        "key": "0x0000000000000000000000000000000000000000000000000000000000000015",
                        "prev": "0x0000000000000000000000000000000000000000000007563e05a0de75a27b76"
                    },
                    {
                        "current": "0x0000000000000000000000000000000000000000000000000000000000000007",
                        "key": "0x0000000000000000000000000000000000000000000000000000000000000019",
                        "prev": "0x0000000000000000000000000000000000000000000000000000000000000006"
                    }
                ],
                "storageVariables": []
            },
            {
                "address": "0xba100000625a3754423978a60c9317c58a424e3d",
                "erc": "ERC-20",
                "slots": [
                    {
                        "current": "0x00000000000000000000000000000000000000000000000002cae3b284c2e009",
                        "key": "0xf9965be57fae778a294e6f43d851208624dabcf5634a077033a32981d867b52e",
                        "prev": "0x0000000000000000000000000000000000000000000000000000000000000000"
                    },
                    {
                        "current": "0x00000000000000000000000000000000000000000000000000b2b8eca130b802",
                        "key": "0xb37b2c5c6a6082bcdec0635690ebca2637f75e0685bcc116f50f15e0413ee315",
                        "prev": "0x0000000000000000000000000000000000000000000000000000000000000000"
                    },
                    {
                        "current": "0x000000000000000000000000000000000000000000000000a5da88b157c46d55",
                        "key": "0xefffca01bb1b723d8350d3ee82e803cd4a2679d7251cf504109aa94eaba29e35",
                        "prev": "0x0000000000000000000000000000000000000000000000003d222e0ae5389bea"
                    },
                    {
                        "current": "0x000000000000000000000000000000000000000000000e7e4ee3b28eece0599a",
                        "key": "0x8da3736e98c79ef77fffdfebce82913eb23bd83dd10bb646d2639b567078cb4d",
                        "prev": "0x000000000000000000000000000000000000000000000e7e350ef85ba0d5c141"
                    },
                    {
                        "current": "0x00000000000000000000000000000000000000000000008c1cee2d6ff936a2ad",
                        "key": "0x7ececf5bd174f2de56d665bc8ab2785d928b431ee95f0cc187e99e24302c9a47",
                        "prev": "0x00000000000000000000000000000000000000000000008c1758660aefb0e29a"
                    },
                    {
                        "current": "0x0000000000000000000000000000000000000000003297b4b4a7649d8e3c21d9",
                        "key": "0x0000000000000000000000000000000000000000000000000000000000000003",
                        "prev": "0x0000000000000000000000000000000000000000003297b42906ebbfa02c5ff7"
                    }
                ],
                "storageVariables": [
                    {
                        "name": "_balances",
                        "type": "mapping(address => uint256)",
                        "value": {
                            "pairs": [
                                {
                                    "key": "0x00a7ba8ae7bca0b10a32ea1f8e2a1da980c6cad2",
                                    "value": {
                                        "current": "68443105096944037419418",
                                        "prev": "68441243779668544700737",
                                        "typeTag": 1
                                    }
                                },
                                {
                                    "key": "0x0d00848440d2e2b3c6f288128c1a19c483e78f45",
                                    "value": {
                                        "current": "11951014856444112213",
                                        "prev": "4405134009852009450",
                                        "typeTag": 1
                                    }
                                },
                                {
                                    "key": "0x7372ece4c18beabc19981a53b557be90dcbd2b66",
                                    "value": {
                                        "current": "201223489242456073",
                                        "prev": "0",
                                        "typeTag": 1
                                    }
                                },
                                {
                                    "key": "0xd9e863b7317a66fe0a4d2834910f604fd6f89c6c",
                                    "value": {
                                        "current": "2584628823955802071725",
                                        "prev": "2584226376977317159578",
                                        "typeTag": 1
                                    }
                                },
                                {
                                    "key": "0xff9f8dc2f76f02cb1d4c3a960d2591ca6a7f6867",
                                    "value": {
                                        "current": "50305872310614018",
                                        "prev": "0",
                                        "typeTag": 1
                                    }
                                }
                            ],
                            "typeTag": 4
                        }
                    },
                    {
                        "name": "_totalSupply",
                        "type": "uint256",
                        "value": {
                            "current": "61162701751061918678524377",
                            "prev": "61162691689887456555720695",
                            "typeTag": 1
                        }
                    }
                ]
            }
        ]
    }
}