{
    "balance_change": {
        "balanceChanges": [
            {
                "account": "0x6329fe417621925c81c16f9f9a18c203c21af7ab",
                "assets": [
                    {
                        "address": "0x7d1afa7b718fb893db30a3abc0cfc608aacfebb0",
                        "amount": "13",
                        "iconUrl": "https://assets.blocksec.com/icon/5dc5187d80083e1e6ca5ca29581f660fdc3ebdf47eef117c3dfa3a0c07ab7d33.png",
                        "isERC1155": false,
                        "isERC721": false,
                        "sign": true,
                        "value": "6.9264000000000006674"
                    }
                ]
            },
            {
                "account": "0x5132a183e9f3cb7c848b0aac5ae0c4f0491b7ab2",
                "assets": [
                    {
                        "address": "0x7d1afa7b718fb893db30a3abc0cfc608aacfebb0",
                        "amount": "13",
                        "iconUrl": "https://assets.blocksec.com/icon/5dc5187d80083e1e6ca5ca29581f660fdc3ebdf47eef117c3dfa3a0c07ab7d33.png",
                        "isERC1155": false,
                        "isERC721": false,
                        "sign": false,
                        "value": "6.9264000000000006674"
                    }
                ]
            }
        ]
    },
    "profile": {
        "basic_info": {
            "baseFee": "8.018179432",
            "blockNumber": 18250123,
            "callData": "0x2b0006fa000000000000000000000000000000000000000000000000000000000000000000000000000000000000000000000000000000000000000000000000000db72700000000000000000000000000000000000000000000000000000000000db7a95423371859e414f291cc67aee28c57fc99ac41725449181031106168ee87903c4d3c011f6ef5bb4ac7f4933dd719ff43cb98e4d9cf608eb94c3397a225049eb91c586d5c16a8ecf442014054d0cb99cc84241ccbbfd608d5b5c97c0ac26cebe201f1f9e867ee1962ff3d8718e5fd231a2d7a8feb18d5413a925e8b8f678032fc14dace02e205b0f3c6cb5c90c9339456f0f5d3bb2a76763ecfc8a9626a160068139ffe075827e1067fe2bb5f8f90564acbca106f46a774246bf773ac94d6022b282613c9b7f302766ececabd26711ef597a2c526415ce3f39372c45c4563f34129f54dfac660cf66bed99fde08e834e686c19d1d4d178d81290708cb3c8089fc2749c6e3fb15e4b411584a48ddb78fbeca86958e0614f8de079f01dd7bcdbd2809391ff3f639165bedb7bd1a8feb5a8615182653d056aaf346889f96476fb9f21a4cb77f101795b3a777965d8f84d6f1ab99bb897b56f55b96c00485c9e66eaf25fc56d45bda064ab1d46bb6d7dc3777052e2d192ea69b47f9d1e651c92ab0f32bab1fe88b0d42b4d84b07ba820d3487a1421fedaeb9a8569480890242ab02c82638853d36e9f75069e4e8b389125eb49a61c9c66859bad43d99e23fc79855350f9c3b94161d0b3309a9328bb4107ee7504afb48b56157ccc9f36c75e9a5490a2b73a5c30860f97b2d4bea0ef03d1d78cce9ee2e070bef5a7727f4ddc552b4d21ebbd84195b1fd96d4492aca933a73a4fcb5bf5277cf40afbf5c1ab714f684e5243874964fc512ac9dcb2a77d26080cede32137b508c3851c953104bd9ef81161b3235cf1c5ea785108f6fe5338203bb17b14c098aff6e3b912f21bb5a98bbc80305cbd9c4e163999b24879c49b95fee723e4ef091d0290537dcb6542332a21630313e833a5a764da7dbf58ad41668b7e4ee79ceea11898ce5c056a83c252bb202ab8f7fcdadecf9fd78450dbb1e0e74b1e37ab18485fa8d5352104a213e5f2b20dbeac793216c1cabe09e7e7a35f73b2ba780665bb2f263e31705d355ec5bfd301254dad3f8e6d9b50dae9ff82d7f4364383f8e993f2285a2c7e9b0911506460eba3e8ecce21b417a368f9ccc9b8708cba8c5d8f76f68f44e4bb309f35fac560449b8cd7e1a8eb8df0a1ac3a655d2d1900ac72b72783e1f8f0f799b5834c540",
            "debugEnable": true,
            "errorInfo": "",
            "eventCount": 3,
            "feeRecipient": "0xdafea492d9c6733ae3d56b7ed1adb60692c98bc5",
            "formatValue": "0",
            "gasLimit": 324463,
            "gasPrice": "8.171014422",
            "gasUsed": 320092,
            "intTxnCount": 20,
            "internalRevert": false,
            "internalRevertMessage": "",
            "isContractCreation": false,
            "isFlashloan": false,
            "maxFee": "",
            "nonce": 45,
            "overwritedBlockNumber": -1,
            "priorityFee": "",
            "receiver": "0x5132a183e9f3cb7c848b0aac5ae0c4f0491b7ab2",
            "revertMessage": "",
            "sender": "0x6329fe417621925c81c16f9f9a18c203c21af7ab",
            "simulationEnable": true,
            "sourceTxnHash": "0xcab5f04c71beadc3b0f751ab9a7d41fc6fd3e966b0a9c04a439790efc09931d5",
            "status": true,
            "timestamp": "2023-09-30T17:50:35Z",
            "transactionFee": "0.002615476348366824",
            "txnHash": "0xcab5f04c71beadc3b0f751ab9a7d41fc6fd3e966b0a9c04a439790efc09931d5",
            "txnIndex": 77,
            "type": 0,
            "value": "0"
        },
        "fund_flow": [
            {
                "amount": "13",
                "from": "0x5132a183e9f3cb7c848b0aac5ae0c4f0491b7ab2",
                "id": 1,
                "isERC1155": false,
                "isERC721": false,
                "isReverted": false,
                "order": 1,
                "to": "0x6329fe417621925c81c16f9f9a18c203c21af7ab",
                "token": "0x7d1afa7b718fb893db30a3abc0cfc608aacfebb0"
            }
        ],
        "token_infos": [
            {
                "address": "0x7d1afa7b718fb893db30a3abc0cfc608aacfebb0",
                "decimals": 18
            },
            {
                "address": "0xc02aaa39b223fe8d0a0e5c4f27ead9083c756cc2",
                "decimals": 18
            },
            {
                "address": "0xeeeeeeeeeeeeeeeeeeeeeeeeeeeeeeeeeeeeeeee",
                "decimals": 18
            }
        ]
    },
    "address_label": {
        "labels": [
            {
                "address": "0x0000000000000000000000000000000000000007",
                "label": "Null: 0x000...007"
            },
            {
                "address": "0xeeeeeeeeeeeeeeeeeeeeeeeeeeeeeeeeeeeeeeee",
                "label": "Ether"
            },
            {
                "address": "0x0000000000000000000000000000000000000006",
                "label": "Null: 0x000...006"
            },
            {
                "address": "0x580bda1e7a0cfae92fa7f6c20a3794f169ce3cfb",
                "label": "TransparentUpgradeableProxy_580b_3cfb"
            },
            {
                "address": "0x0000000000000000000000000000000000000008",
                "label": "Null: 0x000...008"
            },
            {
                "address": "0xbc1ea504fc54d078514efcca1f6860b5219b6bc3",
                "label": "PolygonZkEVMGlobalExitRoot"
            },
            {
                "address": "0x0000000000000000000000000000000000000002",
                "label": "Precompiled"
            },
            {
                "address": "0x0000000000000000000000000000000000000003",
                "label": "Precompiled"
            },
            {
                "address": "0x0000000000000000000000000000000000000004",
                "label": "Precompiled"
            },
            {
                "address": "0x301442aa888701c8b86727d42f3c55fb0dd9ef7f",
                "label": "PolygonZkEVMUpgraded"
            },
            {
                "address": "0x7d1afa7b718fb893db30a3abc0cfc608aacfebb0",
                "label": "Polygon (Matic): Old Matic Token"
            },
            {
                "address": "0x21f65deadb3b85082ba99766f323bea90eb5a3d6",
                "label": "FflonkVerifier"
            },
            {
                "address": "0x5132a183e9f3cb7c848b0aac5ae0c4f0491b7ab2",
                "label": "Polygon: Polygon zkEVM Proxy"
            },
            {
                "address": "0x0000000000000000000000000000000000000001",
                "label": "Precompiled"
            }
        ]
    },
    "trace": {
        "accountLabels": null,
        "dataMap": {
            "-1": {
                "invocation": {
                    "address": "0x6329fe417621925c81c16f9f9a18c203c21af7ab",
                    "callData": "",
                    "decodedMethod": null,
                    "errorInfo": "",
                    "fromAddress": "",
                    "gasUsed": 0,
                    "id": -1,
                    "methodDecoded": false,
                    "operation": "",
                    "output": "",
                    "revert": false,
                    "revertMessage": "",
                    "selector": "",
                    "status": false,
                    "value": ""
                },
                "nodeType": 0
            },
            "0": {
                "invocation": {
                    "address": "0x5132a183e9f3cb7c848b0aac5ae0c4f0491b7ab2",
                    "callData": "0x000000000000000000000000000000000000000000000000000000000000000000000000000000000000000000000000000000000000000000000000000db72700000000000000000000000000000000000000000000000000000000000db7a95423371859e414f291cc67aee28c57fc99ac41725449181031106168ee87903c4d3c011f6ef5bb4ac7f4933dd719ff43cb98e4d9cf608eb94c3397a225049eb91c586d5c16a8ecf442014054d0cb99cc84241ccbbfd608d5b5c97c0ac26cebe201f1f9e867ee1962ff3d8718e5fd231a2d7a8feb18d5413a925e8b8f678032fc14dace02e205b0f3c6cb5c90c9339456f0f5d3bb2a76763ecfc8a9626a160068139ffe075827e1067fe2bb5f8f90564acbca106f46a774246bf773ac94d6022b282613c9b7f302766ececabd26711ef597a2c526415ce3f39372c45c4563f34129f54dfac660cf66bed99fde08e834e686c19d1d4d178d81290708cb3c8089fc2749c6e3fb15e4b411584a48ddb78fbeca86958e0614f8de079f01dd7bcdbd2809391ff3f639165bedb7bd1a8feb5a8615182653d056aaf346889f96476fb9f21a4cb77f101795b3a777965d8f84d6f1ab99bb897b56f55b96c00485c9e66eaf25fc56d45bda064ab1d46bb6d7dc3777052e2d192ea69b47f9d1e651c92ab0f32bab1fe88b0d42b4d84b07ba820d3487a1421fedaeb9a8569480890242ab02c82638853d36e9f75069e4e8b389125eb49a61c9c66859bad43d99e23fc79855350f9c3b94161d0b3309a9328bb4107ee7504afb48b56157ccc9f36c75e9a5490a2b73a5c30860f97b2d4bea0ef03d1d78cce9ee2e070bef5a7727f4ddc552b4d21ebbd84195b1fd96d4492aca933a73a4fcb5bf5277cf40afbf5c1ab714f684e5243874964fc512ac9dcb2a77d26080cede32137b508c3851c953104bd9ef81161b3235cf1c5ea785108f6fe5338203bb17b14c098aff6e3b912f21bb5a98bbc80305cbd9c4e163999b24879c49b95fee723e4ef091d0290537dcb6542332a21630313e833a5a764da7dbf58ad41668b7e4ee79ceea11898ce5c056a83c252bb202ab8f7fcdadecf9fd78450dbb1e0e74b1e37ab18485fa8d5352104a213e5f2b20dbeac793216c1cabe09e7e7a35f73b2ba780665bb2f263e31705d355ec5bfd301254dad3f8e6d9b50dae9ff82d7f4364383f8e993f2285a2c7e9b0911506460eba3e8ecce21b417a368f9ccc9b8708cba8c5d8f76f68f44e4bb309f35fac560449b8cd7e1a8eb8df0a1ac3a655d2d1900ac72b72783e1f8f0f799b5834c540",
                    "decodedMethod": {
                        "callParams": [
                            {
                                "name": "pendingStateNum",
                                "type": "uint64",
                                "value": "0"
                            },
                            {
                                "name": "initNumBatch",
                                "type": "uint64",
                                "value": "898,855"
                            },
                            {
                                "name": "finalNewBatch",
                                "type": "uint64",
                                "value": "898,985"
                            },
                            {
                                "name": "newLocalExitRoot",
                                "type": "bytes32",
                                "value": "0x5423371859e414f291cc67aee28c57fc99ac41725449181031106168ee87903c"
                            },
                            {
                                "name": "newStateRoot",
                                "type": "bytes32",
                                "value": "0x4d3c011f6ef5bb4ac7f4933dd719ff43cb98e4d9cf608eb94c3397a225049eb9"
                            },
                            {
                                "name": "proof",
                                "type": "bytes32[24]",
                                "value": [
                                    "0x1c586d5c16a8ecf442014054d0cb99cc84241ccbbfd608d5b5c97c0ac26cebe2",
                                    "0x01f1f9e867ee1962ff3d8718e5fd231a2d7a8feb18d5413a925e8b8f678032fc",
                                    "0x14dace02e205b0f3c6cb5c90c9339456f0f5d3bb2a76763ecfc8a9626a160068",
                                    "0x139ffe075827e1067fe2bb5f8f90564acbca106f46a774246bf773ac94d6022b",
                                    "0x282613c9b7f302766ececabd26711ef597a2c526415ce3f39372c45c4563f341",
                                    "0x29f54dfac660cf66bed99fde08e834e686c19d1d4d178d81290708cb3c8089fc",
                                    "0x2749c6e3fb15e4b411584a48ddb78fbeca86958e0614f8de079f01dd7bcdbd28",
                                    "0x09391ff3f639165bedb7bd1a8feb5a8615182653d056aaf346889f96476fb9f2",
                                    "0x1a4cb77f101795b3a777965d8f84d6f1ab99bb897b56f55b96c00485c9e66eaf",
                                    "0x25fc56d45bda064ab1d46bb6d7dc3777052e2d192ea69b47f9d1e651c92ab0f3",
                                    "0x2bab1fe88b0d42b4d84b07ba820d3487a1421fedaeb9a8569480890242ab02c8",
                                    "0x2638853d36e9f75069e4e8b389125eb49a61c9c66859bad43d99e23fc7985535",
                                    "0x0f9c3b94161d0b3309a9328bb4107ee7504afb48b56157ccc9f36c75e9a5490a",
                                    "0x2b73a5c30860f97b2d4bea0ef03d1d78cce9ee2e070bef5a7727f4ddc552b4d2",
                                    "0x1ebbd84195b1fd96d4492aca933a73a4fcb5bf5277cf40afbf5c1ab714f684e5",
                                    "0x243874964fc512ac9dcb2a77d26080cede32137b508c3851c953104bd9ef8116",
                                    "0x1b3235cf1c5ea785108f6fe5338203bb17b14c098aff6e3b912f21bb5a98bbc8",
                                    "0x0305cbd9c4e163999b24879c49b95fee723e4ef091d0290537dcb6542332a216",
                                    "0x30313e833a5a764da7dbf58ad41668b7e4ee79ceea11898ce5c056a83c252bb2",
                                    "0x02ab8f7fcdadecf9fd78450dbb1e0e74b1e37ab18485fa8d5352104a213e5f2b",
                                    "0x20dbeac793216c1cabe09e7e7a35f73b2ba780665bb2f263e31705d355ec5bfd",
                                    "0x301254dad3f8e6d9b50dae9ff82d7f4364383f8e993f2285a2c7e9b091150646",
                                    "0x0eba3e8ecce21b417a368f9ccc9b8708cba8c5d8f76f68f44e4bb309f35fac56",
                                    "0x0449b8cd7e1a8eb8df0a1ac3a655d2d1900ac72b72783e1f8f0f799b5834c540"
                                ]
                            }
                        ],
                        "constructorArguments": "",
                        "name": "verifyBatchesTrustedAggregator",
                        "returnParams": [],
                        "signature": "verifyBatchesTrustedAggregator(uint64,uint64,uint64,bytes32,bytes32,bytes32[24])"
                    },
                    "errorInfo": "",
                    "fromAddress": "0x6329fe417621925c81c16f9f9a18c203c21af7ab",
                    "gasUsed": 320092,
                    "id": 0,
                    "methodDecoded": true,
                    "operation": "CALL",
                    "output": "",
                    "revert": false,
                    "revertMessage": "",
                    "selector": "0x2b0006fa",
                    "status": true,
                    "value": "0"
                },
                "nodeType": 0
            },
            "1": {
                "invocation": {
                    "address": "0x301442aa888701c8b86727d42f3c55fb0dd9ef7f",
                    "callData": "0x000000000000000000000000000000000000000000000000000000000000000000000000000000000000000000000000000000000000000000000000000db72700000000000000000000000000000000000000000000000000000000000db7a95423371859e414f291cc67aee28c57fc99ac41725449181031106168ee87903c4d3c011f6ef5bb4ac7f4933dd719ff43cb98e4d9cf608eb94c3397a225049eb91c586d5c16a8ecf442014054d0cb99cc84241ccbbfd608d5b5c97c0ac26cebe201f1f9e867ee1962ff3d8718e5fd231a2d7a8feb18d5413a925e8b8f678032fc14dace02e205b0f3c6cb5c90c9339456f0f5d3bb2a76763ecfc8a9626a160068139ffe075827e1067fe2bb5f8f90564acbca106f46a774246bf773ac94d6022b282613c9b7f302766ececabd26711ef597a2c526415ce3f39372c45c4563f34129f54dfac660cf66bed99fde08e834e686c19d1d4d178d81290708cb3c8089fc2749c6e3fb15e4b411584a48ddb78fbeca86958e0614f8de079f01dd7bcdbd2809391ff3f639165bedb7bd1a8feb5a8615182653d056aaf346889f96476fb9f21a4cb77f101795b3a777965d8f84d6f1ab99bb897b56f55b96c00485c9e66eaf25fc56d45bda064ab1d46bb6d7dc3777052e2d192ea69b47f9d1e651c92ab0f32bab1fe88b0d42b4d84b07ba820d3487a1421fedaeb9a8569480890242ab02c82638853d36e9f75069e4e8b389125eb49a61c9c66859bad43d99e23fc79855350f9c3b94161d0b3309a9328bb4107ee7504afb48b56157ccc9f36c75e9a5490a2b73a5c30860f97b2d4bea0ef03d1d78cce9ee2e070bef5a7727f4ddc552b4d21ebbd84195b1fd96d4492aca933a73a4fcb5bf5277cf40afbf5c1ab714f684e5243874964fc512ac9dcb2a77d26080cede32137b508c3851c953104bd9ef81161b3235cf1c5ea785108f6fe5338203bb17b14c098aff6e3b912f21bb5a98bbc80305cbd9c4e163999b24879c49b95fee723e4ef091d0290537dcb6542332a21630313e833a5a764da7dbf58ad41668b7e4ee79ceea11898ce5c056a83c252bb202ab8f7fcdadecf9fd78450dbb1e0e74b1e37ab18485fa8d5352104a213e5f2b20dbeac793216c1cabe09e7e7a35f73b2ba780665bb2f263e31705d355ec5bfd301254dad3f8e6d9b50dae9ff82d7f4364383f8e993f2285a2c7e9b0911506460eba3e8ecce21b417a368f9ccc9b8708cba8c5d8f76f68f44e4bb309f35fac560449b8cd7e1a8eb8df0a1ac3a655d2d1900ac72b72783e1f8f0f799b5834c540",
                    "decodedMethod": {
                        "callParams": [
                            {
                                "name": "pendingStateNum",
                                "type": "uint64",
                                "value": "0"
                            },
                            {
                                "name": "initNumBatch",
                                "type": "uint64",
                                "value": "898,855"
                            },
                            {
                                "name": "finalNewBatch",
                                "type": "uint64",
                                "value": "898,985"
                            },
                            {
                                "name": "newLocalExitRoot",
                                "type": "bytes32",
                                "value": "0x5423371859e414f291cc67aee28c57fc99ac41725449181031106168ee87903c"
                            },
                            {
                                "name": "newStateRoot",
                                "type": "bytes32",
                                "value": "0x4d3c011f6ef5bb4ac7f4933dd719ff43cb98e4d9cf608eb94c3397a225049eb9"
                            },
                            {
                                "name": "proof",
                                "type": "bytes32[24]",
                                "value": [
                                    "0x1c586d5c16a8ecf442014054d0cb99cc84241ccbbfd608d5b5c97c0ac26cebe2",
                                    "0x01f1f9e867ee1962ff3d8718e5fd231a2d7a8feb18d5413a925e8b8f678032fc",
                                    "0x14dace02e205b0f3c6cb5c90c9339456f0f5d3bb2a76763ecfc8a9626a160068",
                                    "0x139ffe075827e1067fe2bb5f8f90564acbca106f46a774246bf773ac94d6022b",
                                    "0x282613c9b7f302766ececabd26711ef597a2c526415ce3f39372c45c4563f341",
                                    "0x29f54dfac660cf66bed99fde08e834e686c19d1d4d178d81290708cb3c8089fc",
                                    "0x2749c6e3fb15e4b411584a48ddb78fbeca86958e0614f8de079f01dd7bcdbd28",
                                    "0x09391ff3f639165bedb7bd1a8feb5a8615182653d056aaf346889f96476fb9f2",
                                    "0x1a4cb77f101795b3a777965d8f84d6f1ab99bb897b56f55b96c00485c9e66eaf",
                                    "0x25fc56d45bda064ab1d46bb6d7dc3777052e2d192ea69b47f9d1e651c92ab0f3",
                                    "0x2bab1fe88b0d42b4d84b07ba820d3487a1421fedaeb9a8569480890242ab02c8",
                                    "0x2638853d36e9f75069e4e8b389125eb49a61c9c66859bad43d99e23fc7985535",
                                    "0x0f9c3b94161d0b3309a9328bb4107ee7504afb48b56157ccc9f36c75e9a5490a",
                                    "0x2b73a5c30860f97b2d4bea0ef03d1d78cce9ee2e070bef5a7727f4ddc552b4d2",
                                    "0x1ebbd84195b1fd96d4492aca933a73a4fcb5bf5277cf40afbf5c1ab714f684e5",
                                    "0x243874964fc512ac9dcb2a77d26080cede32137b508c3851c953104bd9ef8116",
                                    "0x1b3235cf1c5ea785108f6fe5338203bb17b14c098aff6e3b912f21bb5a98bbc8",
                                    "0x0305cbd9c4e163999b24879c49b95fee723e4ef091d0290537dcb6542332a216",
                                    "0x30313e833a5a764da7dbf58ad41668b7e4ee79ceea11898ce5c056a83c252bb2",
                                    "0x02ab8f7fcdadecf9fd78450dbb1e0e74b1e37ab18485fa8d5352104a213e5f2b",
                                    "0x20dbeac793216c1cabe09e7e7a35f73b2ba780665bb2f263e31705d355ec5bfd",
                                    "0x301254dad3f8e6d9b50dae9ff82d7f4364383f8e993f2285a2c7e9b091150646",
                                    "0x0eba3e8ecce21b417a368f9ccc9b8708cba8c5d8f76f68f44e4bb309f35fac56",
                                    "0x0449b8cd7e1a8eb8df0a1ac3a655d2d1900ac72b72783e1f8f0f799b5834c540"
                                ]
                            }
                        ],
                        "constructorArguments": "",
                        "name": "verifyBatchesTrustedAggregator",
                        "returnParams": [],
                        "signature": "verifyBatchesTrustedAggregator(uint64,uint64,uint64,bytes32,bytes32,bytes32[24])"
                    },
                    "errorInfo": "",
                    "fromAddress": "0x5132a183e9f3cb7c848b0aac5ae0c4f0491b7ab2",
                    "gasUsed": 277802,
                    "id": 1,
                    "methodDecoded": true,
                    "operation": "DELEGATECALL",
                    "output": "",
                    "revert": false,
                    "revertMessage": "",
                    "selector": "0x2b0006fa",
                    "status": true,
                    "value": "0"
                },
                "nodeType": 0
            },
            "10": {
                "invocation": {
                    "address": "0x0000000000000000000000000000000000000007",
                    "callData": "0xb7f302766ececabd26711ef597a2c526415ce3f39372c45c4563f34129f54dfac660cf66bed99fde08e834e686c19d1d4d178d81290708cb3c8089fc04456ec418a439ebd4b0ac6e4f6d335ea6d1dd4431d9873a0341b634ee14f882",
                    "decodedMethod": null,
                    "errorInfo": "",
                    "fromAddress": "0x21f65deadb3b85082ba99766f323bea90eb5a3d6",
                    "gasUsed": 6000,
                    "id": 10,
                    "methodDecoded": false,
                    "operation": "STATICCALL",
                    "output": "0x0392039859d7e0dc8dd5c22bccf900f17ca5b51d2b4bddad49b5b0fca80053af0ee3c68473777a159ef4105f3a3c5a746ccac915c061cef07c27489ead5a8eb9",
                    "revert": false,
                    "revertMessage": "",
                    "selector": "0x282613c9",
                    "status": true,
                    "value": "0"
                },
                "nodeType": 0
            },
            "11": {
                "invocation": {
                    "address": "0x0000000000000000000000000000000000000006",
                    "callData": "0x59d7e0dc8dd5c22bccf900f17ca5b51d2b4bddad49b5b0fca80053af0ee3c68473777a159ef4105f3a3c5a746ccac915c061cef07c27489ead5a8eb900000000000000000000000000000000000000000000000000000000000000000000000000000000000000000000000000000000000000000000000000000000",
                    "decodedMethod": null,
                    "errorInfo": "",
                    "fromAddress": "0x21f65deadb3b85082ba99766f323bea90eb5a3d6",
                    "gasUsed": 150,
                    "id": 11,
                    "methodDecoded": false,
                    "operation": "STATICCALL",
                    "output": "0x0392039859d7e0dc8dd5c22bccf900f17ca5b51d2b4bddad49b5b0fca80053af0ee3c68473777a159ef4105f3a3c5a746ccac915c061cef07c27489ead5a8eb9",
                    "revert": false,
                    "revertMessage": "",
                    "selector": "0x03920398",
                    "status": true,
                    "value": "0"
                },
                "nodeType": 0
            },
            "12": {
                "invocation": {
                    "address": "0x0000000000000000000000000000000000000006",
                    "callData": "0x6a2e149bc1caabdef3917c28fa10adce5881103f7b7ad402cc92cb8406d3542aaf9831745fef1c7beeda4c7f773e770e4141da9b6c2b389373505d5204a4254c996370b9df3717d14d3264181f1d0ec798a0ffde064b5ae02e0447dc0a1686c3236f5121d92bd73da552077e4966e4ee3a1d9634656259c40cac957d",
                    "decodedMethod": null,
                    "errorInfo": "",
                    "fromAddress": "0x21f65deadb3b85082ba99766f323bea90eb5a3d6",
                    "gasUsed": 150,
                    "id": 12,
                    "methodDecoded": false,
                    "operation": "STATICCALL",
                    "output": "0x2db25c8f27ea7e7f7d97a000174a3cba0da8ad395d6a3983ee8538f129080fba01b55ebf5dccad470d31fa03277ef3a2384d0626daae3944e906a1205e789729",
                    "revert": false,
                    "revertMessage": "",
                    "selector": "0x094b0a3b",
                    "status": true,
                    "value": "0"
                },
                "nodeType": 0
            },
            "13": {
                "invocation": {
                    "address": "0x0000000000000000000000000000000000000006",
                    "callData": "0x27ea7e7f7d97a000174a3cba0da8ad395d6a3983ee8538f129080fba01b55ebf5dccad470d31fa03277ef3a2384d0626daae3944e906a1205e7897290392039859d7e0dc8dd5c22bccf900f17ca5b51d2b4bddad49b5b0fca80053af218087ee6dba2614195c35574744fde92ab6a17ba80ffb9cbff943782b226e8e",
                    "decodedMethod": null,
                    "errorInfo": "",
                    "fromAddress": "0x21f65deadb3b85082ba99766f323bea90eb5a3d6",
                    "gasUsed": 150,
                    "id": 13,
                    "methodDecoded": false,
                    "operation": "STATICCALL",
                    "output": "0x1aa61f9b174e0ba6b4972bd765dc6af9310549927d07b78365b4e4322fa7fd5016b31e61073daff4814aa9d6e15d871a66ffb28c82d622730b16d9cfd254f2b1",
                    "revert": false,
                    "revertMessage": "",
                    "selector": "0x2db25c8f",
                    "status": true,
                    "value": "0"
                },
                "nodeType": 0
            },
            "14": {
                "invocation": {
                    "address": "0x0000000000000000000000000000000000000007",
                    "callData": "0xfb15e4b411584a48ddb78fbeca86958e0614f8de079f01dd7bcdbd2809391ff3f639165bedb7bd1a8feb5a8615182653d056aaf346889f96476fb9f22fd4f58a551736c42a78bf17acef395a4ae2abaa87b905eae086ad223cf775dc",
                    "decodedMethod": null,
                    "errorInfo": "",
                    "fromAddress": "0x21f65deadb3b85082ba99766f323bea90eb5a3d6",
                    "gasUsed": 6000,
                    "id": 14,
                    "methodDecoded": false,
                    "operation": "STATICCALL",
                    "output": "0x2cab9d3d078c3830367a6f64703778af5e30f11aa0b0fb0a6777f0164a7ea72d00a667213815852b73802efa893321403fbcedc98ac01cbdb724ca2386e2805c",
                    "revert": false,
                    "revertMessage": "",
                    "selector": "0x2749c6e3",
                    "status": true,
                    "value": "0"
                },
                "nodeType": 0
            },
            "15": {
                "invocation": {
                    "address": "0x0000000000000000000000000000000000000006",
                    "callData": "0x078c3830367a6f64703778af5e30f11aa0b0fb0a6777f0164a7ea72d00a667213815852b73802efa893321403fbcedc98ac01cbdb724ca2386e2805c1aa61f9b174e0ba6b4972bd765dc6af9310549927d07b78365b4e4322fa7fd5016b31e61073daff4814aa9d6e15d871a66ffb28c82d622730b16d9cfd254f2b1",
                    "decodedMethod": null,
                    "errorInfo": "",
                    "fromAddress": "0x21f65deadb3b85082ba99766f323bea90eb5a3d6",
                    "gasUsed": 150,
                    "id": 15,
                    "methodDecoded": false,
                    "operation": "STATICCALL",
                    "output": "0x0188ac10eb04a029b2af0eec168273e85a1fe54dc8fdb50b1764d65502f4d282046d464e4cde5fc60e3a4257812ea437257c258e59ef41ac963e875d5c8e3c3b",
                    "revert": false,
                    "revertMessage": "",
                    "selector": "0x2cab9d3d",
                    "status": true,
                    "value": "0"
                },
                "nodeType": 0
            },
            "16": {
                "invocation": {
                    "address": "0x0000000000000000000000000000000000000008",
                    "callData": "0xeb04a029b2af0eec168273e85a1fe54dc8fdb50b1764d65502f4d282046d464e4cde5fc60e3a4257812ea437257c258e59ef41ac963e875d5c8e3c3b198e9393920d483a7260bfb731fb5d25f1aa493335a9e71297e485b7aef312c21800deef121f1e76426a00665e5c4479674322d4f75edadd46debd5cd992f6ed090689d0585ff075ec9e99ad690c3395bc4b313370b38ef355acdadcd122975b12c85ea5db8c6deb4aab71808dcb408fe3d1e7690c43d37b4ce6cc0166fa7daa2749c6e3fb15e4b411584a48ddb78fbeca86958e0614f8de079f01dd7bcdbd28272b2e7eeaf889cdca98889bf195fdd78269443d981b1f99f597ec80910d435526186a2d65ee4d2f9c9a5b91f86597d35f192cd120caf7e935d8443d1938e23d30441fd1b5d3370482c42152a8899027716989a6996c2535bc9f7fee8aaef79e1970ea81dd6992adfbc571effb03503adbbb6a857f578403c6c40e22d65b3c02054793348f12c0cf5622c340573cb277586319de359ab9389778f689786b1e48",
                    "decodedMethod": null,
                    "errorInfo": "",
                    "fromAddress": "0x21f65deadb3b85082ba99766f323bea90eb5a3d6",
                    "gasUsed": 113000,
                    "id": 16,
                    "methodDecoded": false,
                    "operation": "STATICCALL",
                    "output": "0x0000000000000000000000000000000000000000000000000000000000000001",
                    "revert": false,
                    "revertMessage": "",
                    "selector": "0x0188ac10",
                    "status": true,
                    "value": "0"
                },
                "nodeType": 0
            },
            "17": {
                "invocation": {
                    "address": "0x7d1afa7b718fb893db30a3abc0cfc608aacfebb0",
                    "callData": "0x0000000000000000000000005132a183e9f3cb7c848b0aac5ae0c4f0491b7ab2",
                    "decodedMethod": {
                        "callParams": [
                            {
                                "name": "owner",
                                "type": "address",
                                "value": "0x5132a183e9f3cb7c848b0aac5ae0c4f0491b7ab2"
                            }
                        ],
                        "constructorArguments": "",
                        "name": "balanceOf",
                        "returnParams": [
                            {
                                "decimalAvailable": true,
                                "name": "",
                                "type": "uint256",
                                "value": "19,500,000,000,000,000,000"
                            }
                        ],
                        "signature": "balanceOf(address)"
                    },
                    "errorInfo": "",
                    "fromAddress": "0x5132a183e9f3cb7c848b0aac5ae0c4f0491b7ab2",
                    "gasUsed": 2631,
                    "id": 17,
                    "methodDecoded": true,
                    "operation": "STATICCALL",
                    "output": "0x0000000000000000000000000000000000000000000000010e9deaaf401e0000",
                    "revert": false,
                    "revertMessage": "",
                    "selector": "0x70a08231",
                    "status": true,
                    "value": "0"
                },
                "nodeType": 0
            },
            "18": {
                "invocation": {
                    "address": "0x7d1afa7b718fb893db30a3abc0cfc608aacfebb0",
                    "callData": "0x0000000000000000000000006329fe417621925c81c16f9f9a18c203c21af7ab000000000000000000000000000000000000000000000000b469471f80140000",
                    "decodedMethod": {
                        "callParams": [
                            {
                                "name": "to",
                                "type": "address",
                                "value": "0x6329fe417621925c81c16f9f9a18c203c21af7ab"
                            },
                            {
                                "decimalAvailable": true,
                                "name": "value",
                                "type": "uint256",
                                "value": "13,000,000,000,000,000,000"
                            }
                        ],
                        "constructorArguments": "",
                        "name": "transfer",
                        "returnParams": [
                            {
                                "name": "",
                                "type": "bool",
                                "value": true
                            }
                        ],
                        "signature": "transfer(address,uint256)"
                    },
                    "errorInfo": "",
                    "fromAddress": "0x5132a183e9f3cb7c848b0aac5ae0c4f0491b7ab2",
                    "gasUsed": 13272,
                    "id": 18,
                    "methodDecoded": true,
                    "operation": "CALL",
                    "output": "0x0000000000000000000000000000000000000000000000000000000000000001",
                    "revert": false,
                    "revertMessage": "",
                    "selector": "0xa9059cbb",
                    "status": true,
                    "value": "0"
                },
                "nodeType": 0
            },
            "19": {
                "event": {
                    "contract": "0x7d1afa7b718fb893db30a3abc0cfc608aacfebb0",
                    "decodedLog": {
                        "name": "Transfer",
                        "params": [
                            {
                                "name": "from",
                                "type": "address",
                                "value": "0x5132a183e9f3cb7c848b0aac5ae0c4f0491b7ab2"
                            },
                            {
                                "name": "to",
                                "type": "address",
                                "value": "0x6329fe417621925c81c16f9f9a18c203c21af7ab"
                            },
                            {
                                "decimalAvailable": true,
                                "name": "value",
                                "type": "uint256",
                                "value": "13,000,000,000,000,000,000"
                            }
                        ],
                        "signature": "Transfer(address,address,uint256)"
                    },
                    "id": 19,
                    "logData": "0x000000000000000000000000000000000000000000000000b469471f80140000",
                    "logDecoded": true,
                    "operation": "EVENT",
                    "revert": false,
                    "status": true,
                    "topics": [
                        "0xddf252ad1be2c89b69c2b068fc378daa952ba7f163c4a11628f55a4df523b3ef",
                        "0x0000000000000000000000005132a183e9f3cb7c848b0aac5ae0c4f0491b7ab2",
                        "0x0000000000000000000000006329fe417621925c81c16f9f9a18c203c21af7ab"
                    ]
                },
                "nodeType": 1
            },
            "2": {
                "invocation": {
                    "address": "0x0000000000000000000000000000000000000002",
                    "callData": "0x7621925c81c16f9f9a18c203c21af7aba73cbbac0666ee9b2bdf6a13e308d77c05eb7ba5f04f0cfe84b842595336afb3c021baaa78b3c334a093cd152e685517d98541446a2bad6235c18fe2059a945c00000000000db727000000000000044d00000000000000054d3c011f6ef5bb4ac7f4933dd719ff43cb98e4d9cf608eb94c3397a225049eb98f6a4cdd31fb4c2315bd43857e5e90a5449d3254f65394a8e6b6895f341bf0515423371859e414f291cc67aee28c57fc99ac41725449181031106168ee87903c00000000000db7a9",
                    "decodedMethod": {
                        "callParams": [
                            {
                                "name": "data",
                                "type": "bytes",
                                "value": "0x6329fe417621925c81c16f9f9a18c203c21af7aba73cbbac0666ee9b2bdf6a13e308d77c05eb7ba5f04f0cfe84b842595336afb3c021baaa78b3c334a093cd152e685517d98541446a2bad6235c18fe2059a945c00000000000db727000000000000044d00000000000000054d3c011f6ef5bb4ac7f4933dd719ff43cb98e4d9cf608eb94c3397a225049eb98f6a4cdd31fb4c2315bd43857e5e90a5449d3254f65394a8e6b6895f341bf0515423371859e414f291cc67aee28c57fc99ac41725449181031106168ee87903c00000000000db7a9"
                            }
                        ],
                        "constructorArguments": "",
                        "name": "sha256hash",
                        "returnParams": [
                            {
                                "name": "hash",
                                "type": "bytes32",
                                "value": "0x5c0e49ed8ef22ec8f455ee3e5120e71c2276bdbf6ae10d9e32a2052990574743"
                            }
                        ],
                        "signature": "sha256hash(bytes)"
                    },
                    "errorInfo": "",
                    "fromAddress": "0x5132a183e9f3cb7c848b0aac5ae0c4f0491b7ab2",
                    "gasUsed": 144,
                    "id": 2,
                    "methodDecoded": true,
                    "operation": "STATICCALL",
                    "output": "0x5c0e49ed8ef22ec8f455ee3e5120e71c2276bdbf6ae10d9e32a2052990574743",
                    "revert": false,
                    "revertMessage": "",
                    "selector": "0x6329fe41",
                    "status": true,
                    "value": "0"
                },
                "nodeType": 0
            },
            "20": {
                "invocation": {
                    "address": "0x580bda1e7a0cfae92fa7f6c20a3794f169ce3cfb",
                    "callData": "0x5423371859e414f291cc67aee28c57fc99ac41725449181031106168ee87903c",
                    "decodedMethod": {
                        "callParams": [
                            {
                                "name": "newRoot",
                                "type": "bytes32",
                                "value": "0x5423371859e414f291cc67aee28c57fc99ac41725449181031106168ee87903c"
                            }
                        ],
                        "constructorArguments": "",
                        "name": "updateExitRoot",
                        "returnParams": [],
                        "signature": "updateExitRoot(bytes32)"
                    },
                    "errorInfo": "",
                    "fromAddress": "0x5132a183e9f3cb7c848b0aac5ae0c4f0491b7ab2",
                    "gasUsed": 38698,
                    "id": 20,
                    "methodDecoded": true,
                    "operation": "CALL",
                    "output": "",
                    "revert": false,
                    "revertMessage": "",
                    "selector": "0x33d6247d",
                    "status": true,
                    "value": "0"
                },
                "nodeType": 0
            },
            "21": {
                "invocation": {
                    "address": "0xbc1ea504fc54d078514efcca1f6860b5219b6bc3",
                    "callData": "0x5423371859e414f291cc67aee28c57fc99ac41725449181031106168ee87903c",
                    "decodedMethod": {
                        "callParams": [
                            {
                                "name": "newRoot",
                                "type": "bytes32",
                                "value": "0x5423371859e414f291cc67aee28c57fc99ac41725449181031106168ee87903c"
                            }
                        ],
                        "constructorArguments": "",
                        "name": "updateExitRoot",
                        "returnParams": [],
                        "signature": "updateExitRoot(bytes32)"
                    },
                    "errorInfo": "",
                    "fromAddress": "0x580bda1e7a0cfae92fa7f6c20a3794f169ce3cfb",
                    "gasUsed": 31382,
                    "id": 21,
                    "methodDecoded": true,
                    "operation": "DELEGATECALL",
                    "output": "",
                    "revert": false,
                    "revertMessage": "",
                    "selector": "0x33d6247d",
                    "status": true,
                    "value": "0"
                },
                "nodeType": 0
            },
            "22": {
                "event": {
                    "contract": "0x580bda1e7a0cfae92fa7f6c20a3794f169ce3cfb",
                    "decodedLog": {
                        "name": "UpdateGlobalExitRoot",
                        "params": [
                            {
                                "name": "mainnetExitRoot",
                                "type": "bytes32",
                                "value": "0x4b90fb5264f95a0282b0b5e3db8df6a016bbcf9a2e33303dcda79d7217abd079"
                            },
                            {
                                "name": "rollupExitRoot",
                                "type": "bytes32",
                                "value": "0x5423371859e414f291cc67aee28c57fc99ac41725449181031106168ee87903c"
                            }
                        ],
                        "signature": "UpdateGlobalExitRoot(bytes32,bytes32)"
                    },
                    "id": 22,
                    "logData": "0x",
                    "logDecoded": true,
                    "operation": "EVENT",
                    "revert": false,
                    "status": true,
                    "topics": [
                        "0x61014378f82a0d809aefaf87a8ac9505b89c321808287a6e7810f29304c1fce3",
                        "0x4b90fb5264f95a0282b0b5e3db8df6a016bbcf9a2e33303dcda79d7217abd079",
                        "0x5423371859e414f291cc67aee28c57fc99ac41725449181031106168ee87903c"
                    ]
                },
                "nodeType": 1
            },
            "23": {
                "event": {
                    "contract": "0x5132a183e9f3cb7c848b0aac5ae0c4f0491b7ab2",
                    "decodedLog": {
                        "name": "VerifyBatchesTrustedAggregator",
                        "params": [
                            {
                                "name": "numBatch",
                                "type": "uint64",
                                "value": "898,985"
                            },
                            {
                                "name": "aggregator",
                                "type": "address",
                                "value": "0x6329fe417621925c81c16f9f9a18c203c21af7ab"
                            },
                            {
                                "name": "stateRoot",
                                "type": "bytes32",
                                "value": "0x4d3c011f6ef5bb4ac7f4933dd719ff43cb98e4d9cf608eb94c3397a225049eb9"
                            }
                        ],
                        "signature": "VerifyBatchesTrustedAggregator(uint64,bytes32,address)"
                    },
                    "id": 23,
                    "logData": "0x4d3c011f6ef5bb4ac7f4933dd719ff43cb98e4d9cf608eb94c3397a225049eb9",
                    "logDecoded": true,
                    "operation": "EVENT",
                    "revert": false,
                    "status": true,
                    "topics": [
                        "0xcb339b570a7f0b25afa7333371ff11192092a0aeace12b671f4c212f2815c6fe",
                        "0x00000000000000000000000000000000000000000000000000000000000db7a9",
                        "0x0000000000000000000000006329fe417621925c81c16f9f9a18c203c21af7ab"
                    ]
                },
                "nodeType": 1
            },
            "3": {
                "invocation": {
                    "address": "0x21f65deadb3b85082ba99766f323bea90eb5a3d6",
                    "callData": "0x1c586d5c16a8ecf442014054d0cb99cc84241ccbbfd608d5b5c97c0ac26cebe201f1f9e867ee1962ff3d8718e5fd231a2d7a8feb18d5413a925e8b8f678032fc14dace02e205b0f3c6cb5c90c9339456f0f5d3bb2a76763ecfc8a9626a160068139ffe075827e1067fe2bb5f8f90564acbca106f46a774246bf773ac94d6022b282613c9b7f302766ececabd26711ef597a2c526415ce3f39372c45c4563f34129f54dfac660cf66bed99fde08e834e686c19d1d4d178d81290708cb3c8089fc2749c6e3fb15e4b411584a48ddb78fbeca86958e0614f8de079f01dd7bcdbd2809391ff3f639165bedb7bd1a8feb5a8615182653d056aaf346889f96476fb9f21a4cb77f101795b3a777965d8f84d6f1ab99bb897b56f55b96c00485c9e66eaf25fc56d45bda064ab1d46bb6d7dc3777052e2d192ea69b47f9d1e651c92ab0f32bab1fe88b0d42b4d84b07ba820d3487a1421fedaeb9a8569480890242ab02c82638853d36e9f75069e4e8b389125eb49a61c9c66859bad43d99e23fc79855350f9c3b94161d0b3309a9328bb4107ee7504afb48b56157ccc9f36c75e9a5490a2b73a5c30860f97b2d4bea0ef03d1d78cce9ee2e070bef5a7727f4ddc552b4d21ebbd84195b1fd96d4492aca933a73a4fcb5bf5277cf40afbf5c1ab714f684e5243874964fc512ac9dcb2a77d26080cede32137b508c3851c953104bd9ef81161b3235cf1c5ea785108f6fe5338203bb17b14c098aff6e3b912f21bb5a98bbc80305cbd9c4e163999b24879c49b95fee723e4ef091d0290537dcb6542332a21630313e833a5a764da7dbf58ad41668b7e4ee79ceea11898ce5c056a83c252bb202ab8f7fcdadecf9fd78450dbb1e0e74b1e37ab18485fa8d5352104a213e5f2b20dbeac793216c1cabe09e7e7a35f73b2ba780665bb2f263e31705d355ec5bfd301254dad3f8e6d9b50dae9ff82d7f4364383f8e993f2285a2c7e9b0911506460eba3e8ecce21b417a368f9ccc9b8708cba8c5d8f76f68f44e4bb309f35fac560449b8cd7e1a8eb8df0a1ac3a655d2d1900ac72b72783e1f8f0f799b5834c5402ba9fb7aadc08e9f3c05a887cf9f8ebefa42d576f1279d0ceec00f95a0574742",
                    "decodedMethod": {
                        "callParams": [
                            {
                                "name": "proof",
                                "type": "bytes32[24]",
                                "value": [
                                    "0x1c586d5c16a8ecf442014054d0cb99cc84241ccbbfd608d5b5c97c0ac26cebe2",
                                    "0x01f1f9e867ee1962ff3d8718e5fd231a2d7a8feb18d5413a925e8b8f678032fc",
                                    "0x14dace02e205b0f3c6cb5c90c9339456f0f5d3bb2a76763ecfc8a9626a160068",
                                    "0x139ffe075827e1067fe2bb5f8f90564acbca106f46a774246bf773ac94d6022b",
                                    "0x282613c9b7f302766ececabd26711ef597a2c526415ce3f39372c45c4563f341",
                                    "0x29f54dfac660cf66bed99fde08e834e686c19d1d4d178d81290708cb3c8089fc",
                                    "0x2749c6e3fb15e4b411584a48ddb78fbeca86958e0614f8de079f01dd7bcdbd28",
                                    "0x09391ff3f639165bedb7bd1a8feb5a8615182653d056aaf346889f96476fb9f2",
                                    "0x1a4cb77f101795b3a777965d8f84d6f1ab99bb897b56f55b96c00485c9e66eaf",
                                    "0x25fc56d45bda064ab1d46bb6d7dc3777052e2d192ea69b47f9d1e651c92ab0f3",
                                    "0x2bab1fe88b0d42b4d84b07ba820d3487a1421fedaeb9a8569480890242ab02c8",
                                    "0x2638853d36e9f75069e4e8b389125eb49a61c9c66859bad43d99e23fc7985535",
                                    "0x0f9c3b94161d0b3309a9328bb4107ee7504afb48b56157ccc9f36c75e9a5490a",
                                    "0x2b73a5c30860f97b2d4bea0ef03d1d78cce9ee2e070bef5a7727f4ddc552b4d2",
                                    "0x1ebbd84195b1fd96d4492aca933a73a4fcb5bf5277cf40afbf5c1ab714f684e5",
                                    "0x243874964fc512ac9dcb2a77d26080cede32137b508c3851c953104bd9ef8116",
                                    "0x1b3235cf1c5ea785108f6fe5338203bb17b14c098aff6e3b912f21bb5a98bbc8",
                                    "0x0305cbd9c4e163999b24879c49b95fee723e4ef091d0290537dcb6542332a216",
                                    "0x30313e833a5a764da7dbf58ad41668b7e4ee79ceea11898ce5c056a83c252bb2",
                                    "0x02ab8f7fcdadecf9fd78450dbb1e0e74b1e37ab18485fa8d5352104a213e5f2b",
                                    "0x20dbeac793216c1cabe09e7e7a35f73b2ba780665bb2f263e31705d355ec5bfd",
                                    "0x301254dad3f8e6d9b50dae9ff82d7f4364383f8e993f2285a2c7e9b091150646",
                                    "0x0eba3e8ecce21b417a368f9ccc9b8708cba8c5d8f76f68f44e4bb309f35fac56",
                                    "0x0449b8cd7e1a8eb8df0a1ac3a655d2d1900ac72b72783e1f8f0f799b5834c540"
                                ]
                            },
                            {
                                "name": "pubSignals",
                                "type": "uint256[1]",
                                "value": [
                                    "19,749,785,288,772,779,337,786,226,809,603,730,724,147,520,664,708,779,356,344,485,723,978,551,740,226"
                                ]
                            }
                        ],
                        "constructorArguments": "",
                        "name": "verifyProof",
                        "returnParams": [
                            {
                                "name": "",
                                "type": "bool",
                                "value": true
                            }
                        ],
                        "signature": "verifyProof(bytes32[24],uint256[1])"
                    },
                    "errorInfo": "",
                    "fromAddress": "0x5132a183e9f3cb7c848b0aac5ae0c4f0491b7ab2",
                    "gasUsed": 166899,
                    "id": 3,
                    "methodDecoded": true,
                    "operation": "STATICCALL",
                    "output": "0x0000000000000000000000000000000000000000000000000000000000000001",
                    "revert": false,
                    "revertMessage": "",
                    "selector": "0x9121da8a",
                    "status": true,
                    "value": "0"
                },
                "nodeType": 0
            },
            "4": {
                "invocation": {
                    "address": "0x0000000000000000000000000000000000000007",
                    "callData": "0x16a8ecf442014054d0cb99cc84241ccbbfd608d5b5c97c0ac26cebe201f1f9e867ee1962ff3d8718e5fd231a2d7a8feb18d5413a925e8b8f678032fc286d976158d666f577d60f2fb25b4d3f7769b8b075fdcde8652d4f3d40dfd201",
                    "decodedMethod": null,
                    "errorInfo": "",
                    "fromAddress": "0x21f65deadb3b85082ba99766f323bea90eb5a3d6",
                    "gasUsed": 6000,
                    "id": 4,
                    "methodDecoded": false,
                    "operation": "STATICCALL",
                    "output": "0x0e9ad3f4305f05a21a706fcc6e2da65bac342ede7a83a16c2bec6a828af2586814b16cc7150d07cde5cc5a0af10bbedd5d927621557aa323527dbbd8be9b5c1f",
                    "revert": false,
                    "revertMessage": "",
                    "selector": "0x1c586d5c",
                    "status": true,
                    "value": "0"
                },
                "nodeType": 0
            },
            "5": {
                "invocation": {
                    "address": "0x0000000000000000000000000000000000000006",
                    "callData": "0x305f05a21a706fcc6e2da65bac342ede7a83a16c2bec6a828af2586814b16cc7150d07cde5cc5a0af10bbedd5d927621557aa323527dbbd8be9b5c1f16d70f6937b88ea2890451712281f2073db9ac923d49d38d833cbbcbc2b281c81f7e1d70965392e542392cab2e10e88c03912b89107ae96c3a6b13f31f3a4cd0",
                    "decodedMethod": null,
                    "errorInfo": "",
                    "fromAddress": "0x21f65deadb3b85082ba99766f323bea90eb5a3d6",
                    "gasUsed": 150,
                    "id": 5,
                    "methodDecoded": false,
                    "operation": "STATICCALL",
                    "output": "0x2cc30ef04bf96f623bfd81738c9b698c4f5eb1762d166c584ee0a858500eb39d11d1895876c1d61c471e74a1b99bd37dcab9420d783992eed93c6fe0aed6f64f",
                    "revert": false,
                    "revertMessage": "",
                    "selector": "0x0e9ad3f4",
                    "status": true,
                    "value": "0"
                },
                "nodeType": 0
            },
            "6": {
                "invocation": {
                    "address": "0x0000000000000000000000000000000000000007",
                    "callData": "0xe205b0f3c6cb5c90c9339456f0f5d3bb2a76763ecfc8a9626a160068139ffe075827e1067fe2bb5f8f90564acbca106f46a774246bf773ac94d6022b12f4a2246a49f1c0a37eadc6ee23ce13c11081471010f20e93c3576b78e848ee",
                    "decodedMethod": null,
                    "errorInfo": "",
                    "fromAddress": "0x21f65deadb3b85082ba99766f323bea90eb5a3d6",
                    "gasUsed": 6000,
                    "id": 6,
                    "methodDecoded": false,
                    "operation": "STATICCALL",
                    "output": "0x0bf56691902ea32c7002d55cc049fdafb36b4bbf454153942f74e9f2d99f3775096c387dc88c58a62cc6638a03a3a7901987959b62f0781f6de5285be7917998",
                    "revert": false,
                    "revertMessage": "",
                    "selector": "0x14dace02",
                    "status": true,
                    "value": "0"
                },
                "nodeType": 0
            },
            "7": {
                "invocation": {
                    "address": "0x0000000000000000000000000000000000000006",
                    "callData": "0x902ea32c7002d55cc049fdafb36b4bbf454153942f74e9f2d99f3775096c387dc88c58a62cc6638a03a3a7901987959b62f0781f6de5285be79179982cc30ef04bf96f623bfd81738c9b698c4f5eb1762d166c584ee0a858500eb39d11d1895876c1d61c471e74a1b99bd37dcab9420d783992eed93c6fe0aed6f64f",
                    "decodedMethod": null,
                    "errorInfo": "",
                    "fromAddress": "0x21f65deadb3b85082ba99766f323bea90eb5a3d6",
                    "gasUsed": 150,
                    "id": 7,
                    "methodDecoded": false,
                    "operation": "STATICCALL",
                    "output": "0x094b0a3b6a2e149bc1caabdef3917c28fa10adce5881103f7b7ad402cc92cb8406d3542aaf9831745fef1c7beeda4c7f773e770e4141da9b6c2b389373505d52",
                    "revert": false,
                    "revertMessage": "",
                    "selector": "0x0bf56691",
                    "status": true,
                    "value": "0"
                },
                "nodeType": 0
            },
            "8": {
                "invocation": {
                    "address": "0x0000000000000000000000000000000000000007",
                    "callData": "0x0000000000000000000000000000000000000000000000000000000100000000000000000000000000000000000000000000000000000000000000021a99d9573bd6477ac11bf77d335b4c05a140f14e97d561ed2d1bc37db1a90e73",
                    "decodedMethod": {
                        "callParams": [],
                        "constructorArguments": "",
                        "name": "ROOT4146650865",
                        "returnParams": [
                            {
                                "name": "",
                                "type": "bytes4",
                                "value": "0x04a4254c"
                            }
                        ],
                        "signature": "ROOT4146650865()"
                    },
                    "errorInfo": "",
                    "fromAddress": "0x21f65deadb3b85082ba99766f323bea90eb5a3d6",
                    "gasUsed": 6000,
                    "id": 8,
                    "methodDecoded": true,
                    "operation": "STATICCALL",
                    "output": "0x04a4254c996370b9df3717d14d3264181f1d0ec798a0ffde064b5ae02e0447dc264dc7afbdc24f07df246e78dc2f50df4e1a85a32e543458d6be3252cbd067ca",
                    "revert": false,
                    "revertMessage": "",
                    "selector": "0x00000000",
                    "status": true,
                    "value": "0"
                },
                "nodeType": 0
            },
            "9": {
                "invocation": {
                    "address": "0x0000000000000000000000000000000000000006",
                    "callData": "0x996370b9df3717d14d3264181f1d0ec798a0ffde064b5ae02e0447dc264dc7afbdc24f07df246e78dc2f50df4e1a85a32e543458d6be3252cbd067ca00000000000000000000000000000000000000000000000000000000000000000000000000000000000000000000000000000000000000000000000000000000",
                    "decodedMethod": null,
                    "errorInfo": "",
                    "fromAddress": "0x21f65deadb3b85082ba99766f323bea90eb5a3d6",
                    "gasUsed": 150,
                    "id": 9,
                    "methodDecoded": false,
                    "operation": "STATICCALL",
                    "output": "0x04a4254c996370b9df3717d14d3264181f1d0ec798a0ffde064b5ae02e0447dc264dc7afbdc24f07df246e78dc2f50df4e1a85a32e543458d6be3252cbd067ca",
                    "revert": false,
                    "revertMessage": "",
                    "selector": "0x04a4254c",
                    "status": true,
                    "value": "0"
                },
                "nodeType": 0
            }
        },
        "gasFlame": [
            {
                "children": [
                    {
                        "children": [
                            {
                                "children": [],
                                "depth": 0,
                                "name": "Initial Gas",
                                "value": 34808
                            },
                            {
                                "children": [
                                    {
                                        "children": [
                                            {
                                                "children": [],
                                                "depth": 2,
                                                "name": "sha256hash",
                                                "value": 144
                                            },
                                            {
                                                "children": [
                                                    {
                                                        "children": [],
                                                        "depth": 3,
                                                        "name": "0x1c586d5c",
                                                        "value": 6000
                                                    },
                                                    {
                                                        "children": [],
                                                        "depth": 3,
                                                        "name": "0x0e9ad3f4",
                                                        "value": 150
                                                    },
                                                    {
                                                        "children": [],
                                                        "depth": 3,
                                                        "name": "0x14dace02",
                                                        "value": 6000
                                                    },
                                                    {
                                                        "children": [],
                                                        "depth": 3,
                                                        "name": "0x0bf56691",
                                                        "value": 150
                                                    },
                                                    {
                                                        "children": [],
                                                        "depth": 3,
                                                        "name": "ROOT4146650865",
                                                        "value": 6000
                                                    },
                                                    {
                                                        "children": [],
                                                        "depth": 3,
                                                        "name": "0x04a4254c",
                                                        "value": 150
                                                    },
                                                    {
                                                        "children": [],
                                                        "depth": 3,
                                                        "name": "0x282613c9",
                                                        "value": 6000
                                                    },
                                                    {
                                                        "children": [],
                                                        "depth": 3,
                                                        "name": "0x03920398",
                                                        "value": 150
                                                    },
                                                    {
                                                        "children": [],
                                                        "depth": 3,
                                                        "name": "0x094b0a3b",
                                                        "value": 150
                                                    },
                                                    {
                                                        "children": [],
                                                        "depth": 3,
                                                        "name": "0x2db25c8f",
                                                        "value": 150
                                                    },
                                                    {
                                                        "children": [],
                                                        "depth": 3,
                                                        "name": "0x2749c6e3",
                                                        "value": 6000
                                                    },
                                                    {
                                                        "children": [],
                                                        "depth": 3,
                                                        "name": "0x2cab9d3d",
                                                        "value": 150
                                                    },
                                                    {
                                                        "children": [],
                                                        "depth": 3,
                                                        "name": "0x0188ac10",
                                                        "value": 113000
                                                    }
                                                ],
                                                "depth": 2,
                                                "name": "verifyProof",
                                                "value": 166899
                                            },
                                            {
                                                "children": [],
                                                "depth": 2,
                                                "name": "balanceOf",
                                                "value": 2631
                                            },
                                            {
                                                "children": [],
                                                "depth": 2,
                                                "name": "transfer",
                                                "value": 13272
                                            },
                                            {
                                                "children": [
                                                    {
                                                        "children": [],
                                                        "depth": 3,
                                                        "name": "updateExitRoot",
                                                        "value": 31382
                                                    }
                                                ],
                                                "depth": 2,
                                                "name": "updateExitRoot",
                                                "value": 38698
                                            }
                                        ],
                                        "depth": 1,
                                        "name": "verifyBatchesTrustedAggregator",
                                        "value": 277802
                                    }
                                ],
                                "depth": 0,
                                "name": "Executed Gas",
                                "value": 285284
                            }
                        ],
                        "depth": -1,
                        "name": "Actual Gas Used",
                        "value": 320092
                    },
                    {
                        "children": [],
                        "depth": -1,
                        "name": "Refunded Gas",
                        "value": 0
                    }
                ],
                "depth": -2,
                "name": "Total Gas",
                "value": 320092
            }
        ],
        "isConfirmed": true,
        "mainTrace": [
            {
                "children": [
                    {
                        "children": [
                            {
                                "children": [
                                    {
                                        "children": [],
                                        "depth": 2,
                                        "id": 2,
                                        "order": 2
                                    },
                                    {
                                        "children": [
                                            {
                                                "children": [],
                                                "depth": 3,
                                                "id": 4,
                                                "order": 4
                                            },
                                            {
                                                "children": [],
                                                "depth": 3,
                                                "id": 5,
                                                "order": 5
                                            },
                                            {
                                                "children": [],
                                                "depth": 3,
                                                "id": 6,
                                                "order": 6
                                            },
                                            {
                                                "children": [],
                                                "depth": 3,
                                                "id": 7,
                                                "order": 7
                                            },
                                            {
                                                "children": [],
                                                "depth": 3,
                                                "id": 8,
                                                "order": 8
                                            },
                                            {
                                                "children": [],
                                                "depth": 3,
                                                "id": 9,
                                                "order": 9
                                            },
                                            {
                                                "children": [],
                                                "depth": 3,
                                                "id": 10,
                                                "order": 10
                                            },
                                            {
                                                "children": [],
                                                "depth": 3,
                                                "id": 11,
                                                "order": 11
                                            },
                                            {
                                                "children": [],
                                                "depth": 3,
                                                "id": 12,
                                                "order": 12
                                            },
                                            {
                                                "children": [],
                                                "depth": 3,
                                                "id": 13,
                                                "order": 13
                                            },
                                            {
                                                "children": [],
                                                "depth": 3,
                                                "id": 14,
                                                "order": 14
                                            },
                                            {
                                                "children": [],
                                                "depth": 3,
                                                "id": 15,
                                                "order": 15
                                            },
                                            {
                                                "children": [],
                                                "depth": 3,
                                                "id": 16,
                                                "order": 16
                                            }
                                        ],
                                        "depth": 2,
                                        "id": 3,
                                        "order": 3
                                    },
                                    {
                                        "children": [],
                                        "depth": 2,
                                        "id": 17,
                                        "order": 17
                                    },
                                    {
                                        "children": [
                                            {
                                                "children": [],
                                                "depth": 3,
                                                "id": 19,
                                                "order": 19
                                            }
                                        ],
                                        "depth": 2,
                                        "id": 18,
                                        "order": 18
                                    },
                                    {
                                        "children": [
                                            {
                                                "children": [
                                                    {
                                                        "children": [],
                                                        "depth": 4,
                                                        "id": 22,
                                                        "order": 22
                                                    }
                                                ],
                                                "depth": 3,
                                                "id": 21,
                                                "order": 21
                                            }
                                        ],
                                        "depth": 2,
                                        "id": 20,
                                        "order": 20
                                    },
                                    {
                                        "children": [],
                                        "depth": 2,
                                        "id": 23,
                                        "order": 23
                                    }
                                ],
                                "depth": 1,
                                "id": 1,
                                "order": 1
                            }
                        ],
                        "depth": 0,
                        "id": 0,
                        "order": 0
                    }
                ],
                "depth": -1,
                "id": -1,
                "order": -1
            }
        ],
        "mainTraceNodeCount": 24,
        "parentIdMap": {
            "0": -1,
            "1": 0,
            "10": 3,
            "11": 3,
            "12": 3,
            "13": 3,
            "14": 3,
            "15": 3,
            "16": 3,
            "17": 1,
            "18": 1,
            "19": 18,
            "2": 1,
            "20": 1,
            "21": 20,
            "22": 21,
            "23": 1,
            "3": 1,
            "4": 3,
            "5": 3,
            "6": 3,
            "7": 3,
            "8": 3,
            "9": 3
        },
        "tidyTrace": [
            {
                "children": [
                    {
                        "children": [
                            {
                                "children": [
                                    {
                                        "children": [
                                            {
                                                "children": [],
                                                "depth": 3,
                                                "id": 19,
                                                "order": 19
                                            }
                                        ],
                                        "depth": 2,
                                        "id": 18,
                                        "order": 18
                                    },
                                    {
                                        "children": [
                                            {
                                                "children": [
                                                    {
                                                        "children": [],
                                                        "depth": 4,
                                                        "id": 22,
                                                        "order": 22
                                                    }
                                                ],
                                                "depth": 3,
                                                "id": 21,
                                                "order": 21
                                            }
                                        ],
                                        "depth": 2,
                                        "id": 20,
                                        "order": 20
                                    },
                                    {
                                        "children": [],
                                        "depth": 2,
                                        "id": 23,
                                        "order": 23
                                    }
                                ],
                                "depth": 1,
                                "id": 1,
                                "order": 1
                            }
                        ],
                        "depth": 0,
                        "id": 0,
                        "order": 0
                    }
                ],
                "depth": -1,
                "id": -1,
                "order": -1
            }
        ],
        "tidyTraceNodeCount": 8
    },
    "state_change": {
        "stateChanges": [
            {
                "address": "0x5132a183e9f3cb7c848b0aac5ae0c4f0491b7ab2",
                "erc": "",
                "slots": [
                    {
                        "current": "0x000000006329fe417621925c81c16f9f9a18c203c21af7ab00000000000db7a9",
                        "key": "0x0000000000000000000000000000000000000000000000000000000000000074",
                        "prev": "0x000000006329fe417621925c81c16f9f9a18c203c21af7ab00000000000db727"
                    },
                    {
                        "current": "0x4d3c011f6ef5bb4ac7f4933dd719ff43cb98e4d9cf608eb94c3397a225049eb9",
                        "key": "0x2f6100af2ed0bd735dc3c032c54a7c6f8fa3fd6c5cacc3d6ee2bbc2bcaa58cdd",
                        "prev": "0x0000000000000000000000000000000000000000000000000000000000000000"
                    }
                ],
                "storageVariables": [
                    {
                        "name": "lastVerifiedBatch",
                        "type": "uint64",
                        "value": {
                            "current": "898985",
                            "prev": "898855",
                            "typeTag": 1
                        }
                    },
                    {
                        "name": "trustedAggregator",
                        "type": "address",
                        "value": {
                            "current": "0x6329fe417621925c81c16f9f9a18c203c21af7ab",
                            "prev": "0x6329fe417621925c81c16f9f9a18c203c21af7ab",
                            "typeTag": 1
                        }
                    },
                    {
                        "name": "batchNumToStateRoot",
                        "type": "mapping(uint64 => bytes32)",
                        "value": {
                            "pairs": [
                                {
                                    "key": "898985",
                                    "value": {
                                        "current": "0x4d3c011f6ef5bb4ac7f4933dd719ff43cb98e4d9cf608eb94c3397a225049eb9",
                                        "prev": "0x0000000000000000000000000000000000000000000000000000000000000000",
                                        "typeTag": 1
                                    }
                                }
                            ],
                            "typeTag": 4
                        }
                    }
                ]
            },
            {
                "address": "0x580bda1e7a0cfae92fa7f6c20a3794f169ce3cfb",
                "erc": "",
                "slots": [
                    {
                        "current": "0x5423371859e414f291cc67aee28c57fc99ac41725449181031106168ee87903c",
                        "key": "0x0000000000000000000000000000000000000000000000000000000000000000",
                        "prev": "0xb46e53ae01c0bfe7d0603c32f2595857a0fbd4bbc9493626de21dcc508dba6e0"
                    },
                    {
                        "current": "0x0000000000000000000000000000000000000000000000000000000065185feb",
                        "key": "0x75f8717e284b3ca7c264dfcd3865b4a4b8a7441b2c484f844e03f8d9a8c8c13b",
                        "prev": "0x0000000000000000000000000000000000000000000000000000000000000000"
                    }
                ],
                "storageVariables": [
                    {
                        "name": "lastRollupExitRoot",
                        "type": "bytes32",
                        "value": {
                            "current": "0x5423371859e414f291cc67aee28c57fc99ac41725449181031106168ee87903c",
                            "prev": "0xb46e53ae01c0bfe7d0603c32f2595857a0fbd4bbc9493626de21dcc508dba6e0",
                            "typeTag": 1
                        }
                    },
                    {
                        "name": "globalExitRootMap",
                        "type": "mapping(bytes32 => uint256)",
                        "value": {
                            "pairs": [
                                {
                                    "key": "0x68738b1b6918acb6d8dee2768242bac9427cdebb233423e87a673e82cb426360",
                                    "value": {
                                        "current": "1696096235",
                                        "prev": "0",
                                        "typeTag": 1
                                    }
                                }
                            ],
                            "typeTag": 4
                        }
                    }
                ]
            },
            {
                "address": "0x7d1afa7b718fb893db30a3abc0cfc608aacfebb0",
                "erc": "ERC-20",
                "slots": [
                    {
                        "current": "0x000000000000000000000000000000000000000000000028e2a0a813bf9c0000",
                        "key": "0x6d2ba9bc7a43419ef669c738122d3426a45226d24836852f4032801a7858461f",
                        "prev": "0x0000000000000000000000000000000000000000000000282e3760f43f880000"
                    },
                    {
                        "current": "0x0000000000000000000000000000000000000000000000005a34a38fc00a0000",
                        "key": "0x9d05b01b8ed206b34e6c3e2f3a47eda85868764304287599283476351d142cf3",
                        "prev": "0x0000000000000000000000000000000000000000000000010e9deaaf401e0000"
                    }
                ],
                "storageVariables": [
                    {
                        "name": "_balances",
                        "type": "mapping(address => uint256)",
                        "value": {
                            "pairs": [
                                {
                                    "key": "0x5132a183e9f3cb7c848b0aac5ae0c4f0491b7ab2",
                                    "value": {
                                        "current": "6500000000000000000",
                                        "prev": "19500000000000000000",
                                        "typeTag": 1
                                    }
                                },
                                {
                                    "key": "0x6329fe417621925c81c16f9f9a18c203c21af7ab",
                                    "value": {
                                        "current": "754200000000000000000",
                                        "prev": "741200000000000000000",
                                        "typeTag": 1
                                    }
                                }
                            ],
                            "typeTag": 4
                        }
                    }
                ]
            }
        ]
    }
}