{
    "balance_change": {
        "balanceChanges": []
    },
    "profile": {
        "basic_info": {
            "baseFee": "34.467809827",
            "blockNumber": 17375255,
            "callData": "0x00000000000000000000000000000000000000000000000000000000000000000000002000000000000000000000000000000000000000000000000000000000000000000000000000000000000000000000000000000000000000000000000000000000000000000000000000000000000000000000000000000000001bb60f053f8000000000000000000000000000da7f44baa585eb2b72edfbeca77980af69f33758000000000000000000000000004c00500000ad104d7dbd00e3ae0a5c00560c000000000000000000000000007172b87400b850069c425ecd18f2c2553b7fb4790000000000000000000000000000000000000000000000000000000000000e620000000000000000000000000000000000000000000000000000000000000001000000000000000000000000000000000000000000000000000000000000000000000000000000000000000000000000000000000000000000000000647691e100000000000000000000000000000000000000000000000000000000647fcc5d0000000000000000000000000000000000000000000000000000000000000000360c6ebe0000000000000000000000000000000000000000d1842a3517e49ff40000007b02230091a7ed01230072f7006a004d60a8d4e71d599b8104250f00000000007b02230091a7ed01230072f7006a004d60a8d4e71d599b8104250f00000000000000000000000000000000000000000000000000000000000000000001000000000000000000000000000000000000000000000000000000000000024000000000000000000000000000000000000000000000000000000000000002a000000000000000000000000000000000000000000000000000000000000000010000000000000000000000000000000000000000000000000000b5e620f480000000000000000000000000000000a26b00c1f0df003000390027140000faa71900000000000000000000000000000000000000000000000000000000000000e32e810d762b0f771a28dfcf99fcafed77254123f85fa5c850cccb009d8d927f963a252175ea558952fed94be083cff823144bfcb1b01f46ccac29cfa1d6d933d100000374102a8635a5b45429a7ff6448f1456023f6c0ad771a34b9575595ab73d99287337975173f649f16945b9b19871f2c59554e455278fbdefd5cfeac971ac35bdb3648ca56845f723594109c830584b5c313f2b324a8c97343c4911f560c0f9085c4b5764836d6096353d212688140f918378abafb38a3c8044a7949d8c417d7fd8cca7b4fe21286e7e06e18a604aa2f3e9ab80fe78096a7660f500af816d69d99000000000000000000000000000000000000000000000000000000000000000000360c6ebe",
            "debugEnable": true,
            "errorInfo": "execution reverted",
            "eventCount": 1,
            "feeRecipient": "0x388c818ca8b9251b393131c08a736a67ccb19297",
            "formatValue": "0.008",
            "gasLimit": 182902,
            "gasPrice": "34.561809827",
            "gasUsed": 48058,
            "intTxnCount": 0,
            "internalRevert": false,
            "internalRevertMessage": "",
            "isContractCreation": false,
            "isFlashloan": false,
            "maxFee": "34.794112179",
            "nonce": 804,
            "overwritedBlockNumber": -1,
            "priorityFee": "0.094",
            "receiver": "0x00000000000000adc04c56bf30ac9d3c0aaf14dc",
            "revertMessage": "OrderPartiallyFilled(orderHash=0xf35c018bfb77d3b3bf3c7ba1bc1741af51d7caccf72f0b5fc67b01bf00fc9310)",
            "sender": "0x00af0414558b59fa5a612511e6d14cf408c223f2",
            "simulationEnable": true,
            "sourceTxnHash": "0xca0905f81c33f7d73ec3c7bb41c39c64783ccfb630f2ce5b185faffd0ba1c49e",
            "status": false,
            "timestamp": "2023-05-31T00:18:23Z",
            "transactionFee": "0.001660971456665966",
            "txnHash": "0xca0905f81c33f7d73ec3c7bb41c39c64783ccfb630f2ce5b185faffd0ba1c49e",
            "txnIndex": 68,
            "type": 2,
            "value": "8000000000000000"
        },
        "fund_flow": [],
        "token_infos": [
            {
                "address": "0xeeeeeeeeeeeeeeeeeeeeeeeeeeeeeeeeeeeeeeee",
                "decimals": 18
            },
            {
                "address": "0xc02aaa39b223fe8d0a0e5c4f27ead9083c756cc2",
                "decimals": 18
            }
        ]
    },
    "address_label": {
        "labels": [
            {
                "address": "0x388c818ca8b9251b393131c08a736a67ccb19297",
                "label": "LidoExecutionLayerRewardsVault"
            },
            {
                "address": "0x0000000000000000000000000000000000000001",
                "label": "Precompiled"
            },
            {
                "address": "0x0000000000000000000000000000000000000003",
                "label": "Precompiled"
            },
            {
                "address": "0xeeeeeeeeeeeeeeeeeeeeeeeeeeeeeeeeeeeeeeee",
                "label": "Ether"
            },
            {
                "address": "0x7172b87400b850069c425ecd18f2c2553b7fb479",
                "label": "Pixel Penguin (PP)"
            },
            {
                "address": "0x00000000000000adc04c56bf30ac9d3c0aaf14dc",
                "label": "Seaport 1.5"
            },
            {
                "address": "0x0000000000000000000000000000000000000000",
                "label": "Null Address"
            },
            {
                "address": "0x004c00500000ad104d7dbd00e3ae0a5c00560c00",
                "label": "OpenSea: Pausable Zone"
            },
            {
                "address": "0x0000a26b00c1f0df003000390027140000faa719",
                "label": "OpenSea: Fees 3"
            },
            {
                "address": "0x0000000000000000000000000000000000000002",
                "label": "Precompiled"
            },
            {
                "address": "0x0000000000000000000000000000000000000004",
                "label": "Precompiled"
            }
        ]
    },
    "trace": {
        "accountLabels": null,
        "dataMap": {
            "-1": {
                "invocation": {
                    "address": "0x00af0414558b59fa5a612511e6d14cf408c223f2",
                    "callData": "",
                    "decodedMethod": null,
                    "errorInfo": "",
                    "fromAddress": "",
                    "gasUsed": 0,
                    "id": -1,
                    "methodDecoded": false,
                    "operation": "",
                    "output": "",
                    "revert": false,
                    "revertMessage": "",
                    "selector": "",
                    "status": false,
                    "value": ""
                },
                "nodeType": 0
            },
            "0": {
                "invocation": {
                    "address": "0x00000000000000adc04c56bf30ac9d3c0aaf14dc",
                    "callData": "0x000000000000000000000000000000000000000000000000000000000000002000000000000000000000000000000000000000000000000000000000000000000000000000000000000000000000000000000000000000000000000000000000000000000000000000000000000000000000000000000000001bb60f053f8000000000000000000000000000da7f44baa585eb2b72edfbeca77980af69f33758000000000000000000000000004c00500000ad104d7dbd00e3ae0a5c00560c000000000000000000000000007172b87400b850069c425ecd18f2c2553b7fb4790000000000000000000000000000000000000000000000000000000000000e620000000000000000000000000000000000000000000000000000000000000001000000000000000000000000000000000000000000000000000000000000000000000000000000000000000000000000000000000000000000000000647691e100000000000000000000000000000000000000000000000000000000647fcc5d0000000000000000000000000000000000000000000000000000000000000000360c6ebe0000000000000000000000000000000000000000d1842a3517e49ff40000007b02230091a7ed01230072f7006a004d60a8d4e71d599b8104250f00000000007b02230091a7ed01230072f7006a004d60a8d4e71d599b8104250f00000000000000000000000000000000000000000000000000000000000000000001000000000000000000000000000000000000000000000000000000000000024000000000000000000000000000000000000000000000000000000000000002a000000000000000000000000000000000000000000000000000000000000000010000000000000000000000000000000000000000000000000000b5e620f480000000000000000000000000000000a26b00c1f0df003000390027140000faa71900000000000000000000000000000000000000000000000000000000000000e32e810d762b0f771a28dfcf99fcafed77254123f85fa5c850cccb009d8d927f963a252175ea558952fed94be083cff823144bfcb1b01f46ccac29cfa1d6d933d100000374102a8635a5b45429a7ff6448f1456023f6c0ad771a34b9575595ab73d99287337975173f649f16945b9b19871f2c59554e455278fbdefd5cfeac971ac35bdb3648ca56845f723594109c830584b5c313f2b324a8c97343c4911f560c0f9085c4b5764836d6096353d212688140f918378abafb38a3c8044a7949d8c417d7fd8cca7b4fe21286e7e06e18a604aa2f3e9ab80fe78096a7660f500af816d69d99000000000000000000000000000000000000000000000000000000000000000000360c6ebe",
                    "decodedMethod": {
                        "callParams": [
                            {
                                "name": "parameters",
                                "type": "(address,uint256,uint256,address,address,address,uint256,uint256,uint8,uint256,uint256,bytes32,uint256,bytes32,bytes32,uint256,(uint256,address)[],bytes)",
                                "value": [
                                    {
                                        "name": "considerationToken",
                                        "type": "address",
                                        "value": "0x0000000000000000000000000000000000000000"
                                    },
                                    {
                                        "name": "considerationIdentifier",
                                        "type": "uint256",
                                        "value": "0"
                                    },
                                    {
                                        "name": "considerationAmount",
                                        "type": "uint256",
                                        "value": "7,800,000,000,000,000"
                                    },
                                    {
                                        "name": "offerer",
                                        "type": "address",
                                        "value": "0xda7f44baa585eb2b72edfbeca77980af69f33758"
                                    },
                                    {
                                        "name": "zone",
                                        "type": "address",
                                        "value": "0x004c00500000ad104d7dbd00e3ae0a5c00560c00"
                                    },
                                    {
                                        "name": "offerToken",
                                        "type": "address",
                                        "value": "0x7172b87400b850069c425ecd18f2c2553b7fb479"
                                    },
                                    {
                                        "name": "offerIdentifier",
                                        "type": "uint256",
                                        "value": "3,682"
                                    },
                                    {
                                        "name": "offerAmount",
                                        "type": "uint256",
                                        "value": "1"
                                    },
                                    {
                                        "name": "basicOrderType",
                                        "type": "uint8",
                                        "value": "0"
                                    },
                                    {
                                        "name": "startTime",
                                        "type": "uint256",
                                        "value": "1,685,492,193"
                                    },
                                    {
                                        "name": "endTime",
                                        "type": "uint256",
                                        "value": "1,686,096,989"
                                    },
                                    {
                                        "name": "zoneHash",
                                        "type": "bytes32",
                                        "value": "0x0000000000000000000000000000000000000000000000000000000000000000"
                                    },
                                    {
                                        "name": "salt",
                                        "type": "uint256",
                                        "value": "24,446,860,302,761,739,304,752,683,030,156,737,591,518,664,810,215,442,929,815,479,926,693,627,731,956"
                                    },
                                    {
                                        "name": "offererConduitKey",
                                        "type": "bytes32",
                                        "value": "0x0000007b02230091a7ed01230072f7006a004d60a8d4e71d599b8104250f0000"
                                    },
                                    {
                                        "name": "fulfillerConduitKey",
                                        "type": "bytes32",
                                        "value": "0x0000007b02230091a7ed01230072f7006a004d60a8d4e71d599b8104250f0000"
                                    },
                                    {
                                        "name": "totalOriginalAdditionalRecipients",
                                        "type": "uint256",
                                        "value": "1"
                                    },
                                    {
                                        "name": "additionalRecipients",
                                        "type": "(uint256,address)[]",
                                        "value": [
                                            [
                                                {
                                                    "name": "amount",
                                                    "type": "uint256",
                                                    "value": "200,000,000,000,000"
                                                },
                                                {
                                                    "name": "recipient",
                                                    "type": "address",
                                                    "value": "0x0000a26b00c1f0df003000390027140000faa719"
                                                }
                                            ]
                                        ]
                                    },
                                    {
                                        "name": "signature",
                                        "type": "bytes",
                                        "value": "0x2e810d762b0f771a28dfcf99fcafed77254123f85fa5c850cccb009d8d927f963a252175ea558952fed94be083cff823144bfcb1b01f46ccac29cfa1d6d933d100000374102a8635a5b45429a7ff6448f1456023f6c0ad771a34b9575595ab73d99287337975173f649f16945b9b19871f2c59554e455278fbdefd5cfeac971ac35bdb3648ca56845f723594109c830584b5c313f2b324a8c97343c4911f560c0f9085c4b5764836d6096353d212688140f918378abafb38a3c8044a7949d8c417d7fd8cca7b4fe21286e7e06e18a604aa2f3e9ab80fe78096a7660f500af816d69d99"
                                    }
                                ]
                            }
                        ],
                        "constructorArguments": "",
                        "name": "fulfillBasicOrder_efficient_6GL6yc",
                        "returnParams": [],
                        "signature": "fulfillBasicOrder_efficient_6GL6yc((address,uint256,uint256,address,address,address,uint256,uint256,uint8,uint256,uint256,bytes32,uint256,bytes32,bytes32,uint256,(uint256,address)[],bytes))"
                    },
                    "errorInfo": "execution reverted",
                    "fromAddress": "0x00af0414558b59fa5a612511e6d14cf408c223f2",
                    "gasUsed": 48058,
                    "id": 0,
                    "methodDecoded": true,
                    "operation": "CALL",
                    "output": "0xee9e0e63f35c018bfb77d3b3bf3c7ba1bc1741af51d7caccf72f0b5fc67b01bf00fc9310",
                    "revert": true,
                    "revertMessage": "OrderPartiallyFilled(orderHash=0xf35c018bfb77d3b3bf3c7ba1bc1741af51d7caccf72f0b5fc67b01bf00fc9310)",
                    "selector": "0x00000000",
                    "status": false,
                    "value": "0.008"
                },
                "nodeType": 0
            },
            "1": {
                "event": {
                    "contract": "0x00000000000000adc04c56bf30ac9d3c0aaf14dc",
                    "decodedLog": {
                        "name": "OrderFulfilled",
                        "params": [
                            {
                                "name": "offerer",
                                "type": "address",
                                "value": "0xda7f44baa585eb2b72edfbeca77980af69f33758"
                            },
                            {
                                "name": "zone",
                                "type": "address",
                                "value": "0x004c00500000ad104d7dbd00e3ae0a5c00560c00"
                            },
                            {
                                "name": "orderHash",
                                "type": "bytes32",
                                "value": "0xf35c018bfb77d3b3bf3c7ba1bc1741af51d7caccf72f0b5fc67b01bf00fc9310"
                            },
                            {
                                "name": "recipient",
                                "type": "address",
                                "value": "0x00af0414558b59fa5a612511e6d14cf408c223f2"
                            },
                            {
                                "name": "offer",
                                "type": "(uint8,address,uint256,uint256)[]",
                                "value": [
                                    [
                                        {
                                            "name": "itemType",
                                            "type": "uint8",
                                            "value": "2"
                                        },
                                        {
                                            "name": "token",
                                            "type": "address",
                                            "value": "0x7172b87400b850069c425ecd18f2c2553b7fb479"
                                        },
                                        {
                                            "name": "identifier",
                                            "type": "uint256",
                                            "value": "3,682"
                                        },
                                        {
                                            "name": "amount",
                                            "type": "uint256",
                                            "value": "1"
                                        }
                                    ]
                                ]
                            },
                            {
                                "name": "consideration",
                                "type": "(uint8,address,uint256,uint256,address)[]",
                                "value": [
                                    [
                                        {
                                            "name": "itemType",
                                            "type": "uint8",
                                            "value": "0"
                                        },
                                        {
                                            "name": "token",
                                            "type": "address",
                                            "value": "0x0000000000000000000000000000000000000000"
                                        },
                                        {
                                            "name": "identifier",
                                            "type": "uint256",
                                            "value": "0"
                                        },
                                        {
                                            "name": "amount",
                                            "type": "uint256",
                                            "value": "7,800,000,000,000,000"
                                        },
                                        {
                                            "name": "recipient",
                                            "type": "address",
                                            "value": "0xda7f44baa585eb2b72edfbeca77980af69f33758"
                                        }
                                    ],
                                    [
                                        {
                                            "name": "itemType",
                                            "type": "uint8",
                                            "value": "0"
                                        },
                                        {
                                            "name": "token",
                                            "type": "address",
                                            "value": "0x0000000000000000000000000000000000000000"
                                        },
                                        {
                                            "name": "identifier",
                                            "type": "uint256",
                                            "value": "0"
                                        },
                                        {
                                            "name": "amount",
                                            "type": "uint256",
                                            "value": "200,000,000,000,000"
                                        },
                                        {
                                            "name": "recipient",
                                            "type": "address",
                                            "value": "0x0000a26b00c1f0df003000390027140000faa719"
                                        }
                                    ]
                                ]
                            }
                        ],
                        "signature": "OrderFulfilled(bytes32,address,address,address,(uint8,address,uint256,uint256)[],(uint8,address,uint256,uint256,address)[])"
                    },
                    "id": 1,
                    "logData": "0xf35c018bfb77d3b3bf3c7ba1bc1741af51d7caccf72f0b5fc67b01bf00fc931000000000000000000000000000af0414558b59fa5a612511e6d14cf408c223f200000000000000000000000000000000000000000000000000000000000000800000000000000000000000000000000000000000000000000000000000000120000000000000000000000000000000000000000000000000000000000000000100000000000000000000000000000000000000000000000000000000000000020000000000000000000000007172b87400b850069c425ecd18f2c2553b7fb4790000000000000000000000000000000000000000000000000000000000000e6200000000000000000000000000000000000000000000000000000000000000010000000000000000000000000000000000000000000000000000000000000002000000000000000000000000000000000000000000000000000000000000000000000000000000000000000000000000000000000000000000000000000000000000000000000000000000000000000000000000000000000000000000000000000000000000000000000000000000000000000000000000001bb60f053f8000000000000000000000000000da7f44baa585eb2b72edfbeca77980af69f337580000000000000000000000000000000000000000000000000000000000000000000000000000000000000000000000000000000000000000000000000000000000000000000000000000000000000000000000000000000000000000000000000000000000000000000000000000000000000000000000000000b5e620f480000000000000000000000000000000a26b00c1f0df003000390027140000faa719",
                    "logDecoded": true,
                    "operation": "EVENT",
                    "revert": true,
                    "status": false,
                    "topics": [
                        "0x9d9af8e38d66c62e2c12f0225249fd9d721c54b83f48d9352c97c6cacdcb6f31",
                        "0x000000000000000000000000da7f44baa585eb2b72edfbeca77980af69f33758",
                        "0x000000000000000000000000004c00500000ad104d7dbd00e3ae0a5c00560c00"
                    ]
                },
                "nodeType": 1
            }
        },
        "gasFlame": [
            {
                "children": [
                    {
                        "children": [
                            {
                                "children": [],
                                "depth": 0,
                                "name": "Initial Gas",
                                "value": 29576
                            },
                            {
                                "children": [],
                                "depth": 0,
                                "name": "Executed Gas",
                                "value": 18482
                            }
                        ],
                        "depth": -1,
                        "name": "Actual Gas Used",
                        "value": 48058
                    },
                    {
                        "children": [],
                        "depth": -1,
                        "name": "Refunded Gas",
                        "value": 0
                    }
                ],
                "depth": -2,
                "name": "Total Gas",
                "value": 48058
            }
        ],
        "isConfirmed": true,
        "mainTrace": [
            {
                "children": [
                    {
                        "children": [
                            {
                                "children": [],
                                "depth": 1,
                                "id": 1,
                                "order": 1
                            }
                        ],
                        "depth": 0,
                        "id": 0,
                        "order": 0
                    }
                ],
                "depth": -1,
                "id": -1,
                "order": -1
            }
        ],
        "mainTraceNodeCount": 2,
        "parentIdMap": {
            "0": -1,
            "1": 0
        },
        "tidyTrace": [
            {
                "children": [
                    {
                        "children": [
                            {
                                "children": [],
                                "depth": 1,
                                "id": 1,
                                "order": 1
                            }
                        ],
                        "depth": 0,
                        "id": 0,
                        "order": 0
                    }
                ],
                "depth": -1,
                "id": -1,
                "order": -1
            }
        ],
        "tidyTraceNodeCount": 2
    },
    "state_change": {
        "stateChanges": []
    }
}