{
    "balance_change": {
        "balanceChanges": []
    },
    "profile": {
        "basic_info": {
            "baseFee": "",
            "blockNumber": 7564458,
            "callData": "0x4f9559b10000000000000000000000000000000000000000000000000000016a1a80b879",
            "debugEnable": true,
            "errorInfo": "",
            "eventCount": 1,
            "feeRecipient": "0x5a0b54d5dc17e0aadc383d2db43b0a0d3e029c4c",
            "formatValue": "0",
            "gasLimit": 160000,
            "gasPrice": "8.500212712",
            "gasUsed": 40772,
            "intTxnCount": 0,
            "internalRevert": false,
            "internalRevertMessage": "",
            "isContractCreation": false,
            "isFlashloan": false,
            "maxFee": "",
            "nonce": 6317,
            "overwritedBlockNumber": -1,
            "priorityFee": "",
            "receiver": "0x4f833a24e1f95d70f028921e27040ca56e09ab0b",
            "revertMessage": "",
            "sender": "0x50f84bbee6fb250d6f49e854fa280445369d64d9",
            "simulationEnable": true,
            "sourceTxnHash": "0xcab52623ff684ac3492b57cfa2302f814c26d39037493889ecdc1c7e942afb2b",
            "status": true,
            "timestamp": "2019-04-14T06:20:33Z",
            "transactionFee": "0.000346570672693664",
            "txnHash": "0xcab52623ff684ac3492b57cfa2302f814c26d39037493889ecdc1c7e942afb2b",
            "txnIndex": 119,
            "type": 0,
            "value": "0"
        },
        "fund_flow": [],
        "token_infos": [
            {
                "address": "0xc02aaa39b223fe8d0a0e5c4f27ead9083c756cc2",
                "decimals": 18
            },
            {
                "address": "0xeeeeeeeeeeeeeeeeeeeeeeeeeeeeeeeeeeeeeeee",
                "decimals": 18
            }
        ]
    },
    "address_label": {
        "labels": [
            {
                "address": "0x0000000000000000000000000000000000000001",
                "label": "Precompiled"
            },
            {
                "address": "0x0000000000000000000000000000000000000002",
                "label": "Precompiled"
            },
            {
                "address": "0x0000000000000000000000000000000000000003",
                "label": "Precompiled"
            },
            {
                "address": "0x0000000000000000000000000000000000000004",
                "label": "Precompiled"
            },
            {
                "address": "0xeeeeeeeeeeeeeeeeeeeeeeeeeeeeeeeeeeeeeeee",
                "label": "Ether"
            },
            {
                "address": "0x4f833a24e1f95d70f028921e27040ca56e09ab0b",
                "label": "0x: Old Exchange v2.0"
            }
        ]
    },
    "trace": {
        "accountLabels": null,
        "dataMap": {
            "-1": {
                "invocation": {
                    "address": "0x50f84bbee6fb250d6f49e854fa280445369d64d9",
                    "callData": "",
                    "decodedMethod": null,
                    "errorInfo": "",
                    "fromAddress": "",
                    "gasUsed": 0,
                    "id": -1,
                    "methodDecoded": false,
                    "operation": "",
                    "output": "",
                    "revert": false,
                    "revertMessage": "",
                    "selector": "",
                    "status": false,
                    "value": ""
                },
                "nodeType": 0
            },
            "0": {
                "invocation": {
                    "address": "0x4f833a24e1f95d70f028921e27040ca56e09ab0b",
                    "callData": "0x0000000000000000000000000000000000000000000000000000016a1a80b879",
                    "decodedMethod": {
                        "callParams": [
                            {
                                "name": "targetOrderEpoch",
                                "type": "uint256",
                                "value": "1,555,222,804,601"
                            }
                        ],
                        "constructorArguments": "",
                        "name": "cancelOrdersUpTo",
                        "returnParams": [],
                        "signature": "cancelOrdersUpTo(uint256)"
                    },
                    "errorInfo": "",
                    "fromAddress": "0x50f84bbee6fb250d6f49e854fa280445369d64d9",
                    "gasUsed": 40772,
                    "id": 0,
                    "methodDecoded": true,
                    "operation": "CALL",
                    "output": "",
                    "revert": false,
                    "revertMessage": "",
                    "selector": "0x4f9559b1",
                    "status": true,
                    "value": "0"
                },
                "nodeType": 0
            },
            "1": {
                "event": {
                    "contract": "0x4f833a24e1f95d70f028921e27040ca56e09ab0b",
                    "decodedLog": {
                        "name": "CancelUpTo",
                        "params": [
                            {
                                "name": "makerAddress",
                                "type": "address",
                                "value": "0x50f84bbee6fb250d6f49e854fa280445369d64d9"
                            },
                            {
                                "name": "senderAddress",
                                "type": "address",
                                "value": "0x0000000000000000000000000000000000000000"
                            },
                            {
                                "name": "orderEpoch",
                                "type": "uint256",
                                "value": "1,555,222,804,602"
                            }
                        ],
                        "signature": "CancelUpTo(address,address,uint256)"
                    },
                    "id": 1,
                    "logData": "0x0000000000000000000000000000000000000000000000000000016a1a80b87a",
                    "logDecoded": true,
                    "operation": "EVENT",
                    "revert": false,
                    "status": true,
                    "topics": [
                        "0x82af639571738f4ebd4268fb0363d8957ebe1bbb9e78dba5ebd69eed39b154f0",
                        "0x00000000000000000000000050f84bbee6fb250d6f49e854fa280445369d64d9",
                        "0x0000000000000000000000000000000000000000000000000000000000000000"
                    ]
                },
                "nodeType": 1
            }
        },
        "gasFlame": [
            {
                "children": [
                    {
                        "children": [
                            {
                                "children": [],
                                "depth": 0,
                                "name": "Initial Gas",
                                "value": 21784
                            },
                            {
                                "children": [],
                                "depth": 0,
                                "name": "Executed Gas",
                                "value": 33988
                            }
                        ],
                        "depth": -1,
                        "name": "Actual Gas Used",
                        "value": 40772
                    },
                    {
                        "children": [],
                        "depth": -1,
                        "name": "Refunded Gas",
                        "value": 15000
                    }
                ],
                "depth": -2,
                "name": "Total Gas",
                "value": 55772
            }
        ],
        "isConfirmed": true,
        "mainTrace": [
            {
                "children": [
                    {
                        "children": [
                            {
                                "children": [],
                                "depth": 1,
                                "id": 1,
                                "order": 1
                            }
                        ],
                        "depth": 0,
                        "id": 0,
                        "order": 0
                    }
                ],
                "depth": -1,
                "id": -1,
                "order": -1
            }
        ],
        "mainTraceNodeCount": 2,
        "parentIdMap": {
            "0": -1,
            "1": 0
        },
        "tidyTrace": [
            {
                "children": [
                    {
                        "children": [
                            {
                                "children": [],
                                "depth": 1,
                                "id": 1,
                                "order": 1
                            }
                        ],
                        "depth": 0,
                        "id": 0,
                        "order": 0
                    }
                ],
                "depth": -1,
                "id": -1,
                "order": -1
            }
        ],
        "tidyTraceNodeCount": 2
    },
    "state_change": {
        "stateChanges": [
            {
                "address": "0x4f833a24e1f95d70f028921e27040ca56e09ab0b",
                "erc": "",
                "slots": [
                    {
                        "current": "0x0000000000000000000000000000000000000000000000000000016a1a80b87a",
                        "key": "0x566abf527f0ca3ec596ba729f89bd397504e751da9f7dcb890066fb266a9cfe4",
                        "prev": "0x0000000000000000000000000000000000000000000000000000016a19d42c4f"
                    }
                ],
                "storageVariables": [
                    {
                        "name": "orderEpoch",
                        "type": "mapping(address => mapping(address => uint256))",
                        "value": {
                            "pairs": [
                                {
                                    "key": "0x50f84bbee6fb250d6f49e854fa280445369d64d9",
                                    "value": {
                                        "pairs": [
                                            {
                                                "key": "0x0000000000000000000000000000000000000000",
                                                "value": {
                                                    "current": "1555222804602",
                                                    "prev": "1555211496527",
                                                    "typeTag": 1
                                                }
                                            }
                                        ],
                                        "typeTag": 4
                                    }
                                }
                            ],
                            "typeTag": 4
                        }
                    }
                ]
            }
        ]
    }
}