{
    "balance_change": {
        "balanceChanges": [
            {
                "account": "0x18f441c98a7e4851c6101dd3efa38ddff9ac9ce3",
                "assets": [
                    {
                        "address": "0x2b591e99afe9f32eaa6214f7b7629768c40eeb39",
                        "amount": "260,493.99527336",
                        "iconUrl": "https://assets.blocksec.com/icon/095f9b44449785f7c45bb63956eff8a843b6ae503f7b4576f9d9f27351808b2a.png",
                        "isERC1155": false,
                        "isERC721": false,
                        "sign": true,
                        "value": ""
                    }
                ]
            },
            {
                "account": "0x0000000000000000000000000000000000000000",
                "assets": [
                    {
                        "address": "0x2b591e99afe9f32eaa6214f7b7629768c40eeb39",
                        "amount": "388,372.86568027",
                        "iconUrl": "https://assets.blocksec.com/icon/095f9b44449785f7c45bb63956eff8a843b6ae503f7b4576f9d9f27351808b2a.png",
                        "isERC1155": false,
                        "isERC721": false,
                        "sign": false,
                        "value": ""
                    }
                ]
            },
            {
                "account": "0x9a6a414d6f3497c05e3b1de90520765fa1e07c03",
                "assets": [
                    {
                        "address": "0x2b591e99afe9f32eaa6214f7b7629768c40eeb39",
                        "amount": "75,780.07135224",
                        "iconUrl": "https://assets.blocksec.com/icon/095f9b44449785f7c45bb63956eff8a843b6ae503f7b4576f9d9f27351808b2a.png",
                        "isERC1155": false,
                        "isERC721": false,
                        "sign": true,
                        "value": ""
                    }
                ]
            },
            {
                "account": "0xd1789562b1d2cba04a1f34d0b942d33cc51d1b30",
                "assets": [
                    {
                        "address": "0x2b591e99afe9f32eaa6214f7b7629768c40eeb39",
                        "amount": "52,098.79905467",
                        "iconUrl": "https://assets.blocksec.com/icon/095f9b44449785f7c45bb63956eff8a843b6ae503f7b4576f9d9f27351808b2a.png",
                        "isERC1155": false,
                        "isERC721": false,
                        "sign": true,
                        "value": ""
                    }
                ]
            }
        ]
    },
    "profile": {
        "basic_info": {
            "baseFee": "",
            "blockNumber": 9984368,
            "callData": "0xcbb151d300000000000000000000000000000000000000000000000000000000000000960000000000000000000000000000000000000000000000000000000000000000",
            "debugEnable": true,
            "errorInfo": "",
            "eventCount": 4,
            "feeRecipient": "0x9d6d492bd500da5b33cf95a5d610a73360fcaaa0",
            "formatValue": "0",
            "gasLimit": 76514,
            "gasPrice": "5",
            "gasUsed": 61514,
            "intTxnCount": 0,
            "internalRevert": false,
            "internalRevertMessage": "",
            "isContractCreation": false,
            "isFlashloan": false,
            "maxFee": "",
            "nonce": 15,
            "overwritedBlockNumber": -1,
            "priorityFee": "",
            "receiver": "0x2b591e99afe9f32eaa6214f7b7629768c40eeb39",
            "revertMessage": "",
            "sender": "0x18f441c98a7e4851c6101dd3efa38ddff9ac9ce3",
            "simulationEnable": true,
            "sourceTxnHash": "0xcba78782ae5afa8cc6dfab0a1a3145cbc9b5d3c9d18b8212362430fd3d192c70",
            "status": true,
            "timestamp": "2020-05-02T03:33:31Z",
            "transactionFee": "0.00030757",
            "txnHash": "0xcba78782ae5afa8cc6dfab0a1a3145cbc9b5d3c9d18b8212362430fd3d192c70",
            "txnIndex": 217,
            "type": 0,
            "value": "0"
        },
        "fund_flow": [
            {
                "amount": "52,098.79905467",
                "from": "0x0000000000000000000000000000000000000000",
                "id": 1,
                "isERC1155": false,
                "isERC721": false,
                "isReverted": false,
                "order": 1,
                "to": "0xd1789562b1d2cba04a1f34d0b942d33cc51d1b30",
                "token": "0x2b591e99afe9f32eaa6214f7b7629768c40eeb39"
            },
            {
                "amount": "75,780.07135224",
                "from": "0x0000000000000000000000000000000000000000",
                "id": 2,
                "isERC1155": false,
                "isERC721": false,
                "isReverted": false,
                "order": 2,
                "to": "0x9a6a414d6f3497c05e3b1de90520765fa1e07c03",
                "token": "0x2b591e99afe9f32eaa6214f7b7629768c40eeb39"
            },
            {
                "amount": "260,493.99527336",
                "from": "0x0000000000000000000000000000000000000000",
                "id": 3,
                "isERC1155": false,
                "isERC721": false,
                "isReverted": false,
                "order": 3,
                "to": "0x18f441c98a7e4851c6101dd3efa38ddff9ac9ce3",
                "token": "0x2b591e99afe9f32eaa6214f7b7629768c40eeb39"
            }
        ],
        "token_infos": [
            {
                "address": "0x2b591e99afe9f32eaa6214f7b7629768c40eeb39",
                "decimals": 8
            },
            {
                "address": "0xc02aaa39b223fe8d0a0e5c4f27ead9083c756cc2",
                "decimals": 18
            },
            {
                "address": "0xeeeeeeeeeeeeeeeeeeeeeeeeeeeeeeeeeeeeeeee",
                "decimals": 18
            }
        ]
    },
    "address_label": {
        "labels": [
            {
                "address": "0x0000000000000000000000000000000000000001",
                "label": "Precompiled"
            },
            {
                "address": "0x0000000000000000000000000000000000000002",
                "label": "Precompiled"
            },
            {
                "address": "0x0000000000000000000000000000000000000003",
                "label": "Precompiled"
            },
            {
                "address": "0x0000000000000000000000000000000000000004",
                "label": "Precompiled"
            },
            {
                "address": "0xeeeeeeeeeeeeeeeeeeeeeeeeeeeeeeeeeeeeeeee",
                "label": "Ether"
            },
            {
                "address": "0x2b591e99afe9f32eaa6214f7b7629768c40eeb39",
                "label": "HEX.com: HEX Token"
            }
        ]
    },
    "trace": {
        "accountLabels": null,
        "dataMap": {
            "-1": {
                "invocation": {
                    "address": "0x18f441c98a7e4851c6101dd3efa38ddff9ac9ce3",
                    "callData": "",
                    "decodedMethod": null,
                    "errorInfo": "",
                    "fromAddress": "",
                    "gasUsed": 0,
                    "id": -1,
                    "methodDecoded": false,
                    "operation": "",
                    "output": "",
                    "revert": false,
                    "revertMessage": "",
                    "selector": "",
                    "status": false,
                    "value": ""
                },
                "nodeType": 0
            },
            "0": {
                "invocation": {
                    "address": "0x2b591e99afe9f32eaa6214f7b7629768c40eeb39",
                    "callData": "0x00000000000000000000000000000000000000000000000000000000000000960000000000000000000000000000000000000000000000000000000000000000",
                    "decodedMethod": {
                        "callParams": [
                            {
                                "name": "enterDay",
                                "type": "uint256",
                                "value": "150"
                            },
                            {
                                "name": "count",
                                "type": "uint256",
                                "value": "0"
                            }
                        ],
                        "constructorArguments": "",
                        "name": "xfLobbyExit",
                        "returnParams": [],
                        "signature": "xfLobbyExit(uint256,uint256)"
                    },
                    "errorInfo": "",
                    "fromAddress": "0x18f441c98a7e4851c6101dd3efa38ddff9ac9ce3",
                    "gasUsed": 61514,
                    "id": 0,
                    "methodDecoded": true,
                    "operation": "CALL",
                    "output": "",
                    "revert": false,
                    "revertMessage": "",
                    "selector": "0xcbb151d3",
                    "status": true,
                    "value": "0"
                },
                "nodeType": 0
            },
            "1": {
                "event": {
                    "contract": "0x2b591e99afe9f32eaa6214f7b7629768c40eeb39",
                    "decodedLog": {
                        "name": "XfLobbyExit",
                        "params": [
                            {
                                "name": "memberAddr",
                                "type": "address",
                                "value": "0x18f441c98a7e4851c6101dd3efa38ddff9ac9ce3"
                            },
                            {
                                "name": "entryId",
                                "type": "uint256",
                                "value": "164,926,744,166,400"
                            },
                            {
                                "name": "referrerAddr",
                                "type": "address",
                                "value": "0xd1789562b1d2cba04a1f34d0b942d33cc51d1b30"
                            },
                            {
                                "name": "data0",
                                "type": "uint256",
                                "value": "28,641,617,676,888,571,957,275,147"
                            }
                        ],
                        "signature": "XfLobbyExit(uint256,address,uint256,address)"
                    },
                    "id": 1,
                    "logData": "0x00000000000000000000000000000000000000000017b1193497a8005eacea0b",
                    "logDecoded": true,
                    "operation": "EVENT",
                    "revert": false,
                    "status": true,
                    "topics": [
                        "0xa6b19fa7f41317a186e1d58e9d81f86a52f1102b6bce10b4eca83f37aaa58468",
                        "0x00000000000000000000000018f441c98a7e4851c6101dd3efa38ddff9ac9ce3",
                        "0x0000000000000000000000000000000000000000000000000000960000000000",
                        "0x000000000000000000000000d1789562b1d2cba04a1f34d0b942d33cc51d1b30"
                    ]
                },
                "nodeType": 1
            },
            "2": {
                "event": {
                    "contract": "0x2b591e99afe9f32eaa6214f7b7629768c40eeb39",
                    "decodedLog": {
                        "name": "Transfer",
                        "params": [
                            {
                                "name": "from",
                                "type": "address",
                                "value": "0x0000000000000000000000000000000000000000"
                            },
                            {
                                "name": "to",
                                "type": "address",
                                "value": "0xd1789562b1d2cba04a1f34d0b942d33cc51d1b30"
                            },
                            {
                                "decimalAvailable": true,
                                "name": "value",
                                "type": "uint256",
                                "value": "5,209,879,905,467"
                            }
                        ],
                        "signature": "Transfer(address,address,uint256)"
                    },
                    "id": 2,
                    "logData": "0x000000000000000000000000000000000000000000000000000004bd050a84bb",
                    "logDecoded": true,
                    "operation": "EVENT",
                    "revert": false,
                    "status": true,
                    "topics": [
                        "0xddf252ad1be2c89b69c2b068fc378daa952ba7f163c4a11628f55a4df523b3ef",
                        "0x0000000000000000000000000000000000000000000000000000000000000000",
                        "0x000000000000000000000000d1789562b1d2cba04a1f34d0b942d33cc51d1b30"
                    ]
                },
                "nodeType": 1
            },
            "3": {
                "event": {
                    "contract": "0x2b591e99afe9f32eaa6214f7b7629768c40eeb39",
                    "decodedLog": {
                        "name": "Transfer",
                        "params": [
                            {
                                "name": "from",
                                "type": "address",
                                "value": "0x0000000000000000000000000000000000000000"
                            },
                            {
                                "name": "to",
                                "type": "address",
                                "value": "0x9a6a414d6f3497c05e3b1de90520765fa1e07c03"
                            },
                            {
                                "decimalAvailable": true,
                                "name": "value",
                                "type": "uint256",
                                "value": "7,578,007,135,224"
                            }
                        ],
                        "signature": "Transfer(address,address,uint256)"
                    },
                    "id": 3,
                    "logData": "0x000000000000000000000000000000000000000000000000000006e4646c63f8",
                    "logDecoded": true,
                    "operation": "EVENT",
                    "revert": false,
                    "status": true,
                    "topics": [
                        "0xddf252ad1be2c89b69c2b068fc378daa952ba7f163c4a11628f55a4df523b3ef",
                        "0x0000000000000000000000000000000000000000000000000000000000000000",
                        "0x0000000000000000000000009a6a414d6f3497c05e3b1de90520765fa1e07c03"
                    ]
                },
                "nodeType": 1
            },
            "4": {
                "event": {
                    "contract": "0x2b591e99afe9f32eaa6214f7b7629768c40eeb39",
                    "decodedLog": {
                        "name": "Transfer",
                        "params": [
                            {
                                "name": "from",
                                "type": "address",
                                "value": "0x0000000000000000000000000000000000000000"
                            },
                            {
                                "name": "to",
                                "type": "address",
                                "value": "0x18f441c98a7e4851c6101dd3efa38ddff9ac9ce3"
                            },
                            {
                                "decimalAvailable": true,
                                "name": "value",
                                "type": "uint256",
                                "value": "26,049,399,527,336"
                            }
                        ],
                        "signature": "Transfer(address,address,uint256)"
                    },
                    "id": 4,
                    "logData": "0x000000000000000000000000000000000000000000000000000017b1193497a8",
                    "logDecoded": true,
                    "operation": "EVENT",
                    "revert": false,
                    "status": true,
                    "topics": [
                        "0xddf252ad1be2c89b69c2b068fc378daa952ba7f163c4a11628f55a4df523b3ef",
                        "0x0000000000000000000000000000000000000000000000000000000000000000",
                        "0x00000000000000000000000018f441c98a7e4851c6101dd3efa38ddff9ac9ce3"
                    ]
                },
                "nodeType": 1
            }
        },
        "gasFlame": [
            {
                "children": [
                    {
                        "children": [
                            {
                                "children": [],
                                "depth": 0,
                                "name": "Initial Gas",
                                "value": 21332
                            },
                            {
                                "children": [],
                                "depth": 0,
                                "name": "Executed Gas",
                                "value": 55182
                            }
                        ],
                        "depth": -1,
                        "name": "Actual Gas Used",
                        "value": 61514
                    },
                    {
                        "children": [],
                        "depth": -1,
                        "name": "Refunded Gas",
                        "value": 15000
                    }
                ],
                "depth": -2,
                "name": "Total Gas",
                "value": 76514
            }
        ],
        "isConfirmed": true,
        "mainTrace": [
            {
                "children": [
                    {
                        "children": [
                            {
                                "children": [],
                                "depth": 1,
                                "id": 1,
                                "order": 1
                            },
                            {
                                "children": [],
                                "depth": 1,
                                "id": 2,
                                "order": 2
                            },
                            {
                                "children": [],
                                "depth": 1,
                                "id": 3,
                                "order": 3
                            },
                            {
                                "children": [],
                                "depth": 1,
                                "id": 4,
                                "order": 4
                            }
                        ],
                        "depth": 0,
                        "id": 0,
                        "order": 0
                    }
                ],
                "depth": -1,
                "id": -1,
                "order": -1
            }
        ],
        "mainTraceNodeCount": 5,
        "parentIdMap": {
            "0": -1,
            "1": 0,
            "2": 0,
            "3": 0,
            "4": 0
        },
        "tidyTrace": [
            {
                "children": [
                    {
                        "children": [
                            {
                                "children": [],
                                "depth": 1,
                                "id": 1,
                                "order": 1
                            },
                            {
                                "children": [],
                                "depth": 1,
                                "id": 2,
                                "order": 2
                            },
                            {
                                "children": [],
                                "depth": 1,
                                "id": 3,
                                "order": 3
                            },
                            {
                                "children": [],
                                "depth": 1,
                                "id": 4,
                                "order": 4
                            }
                        ],
                        "depth": 0,
                        "id": 0,
                        "order": 0
                    }
                ],
                "depth": -1,
                "id": -1,
                "order": -1
            }
        ],
        "tidyTraceNodeCount": 5
    },
    "state_change": {
        "stateChanges": [
            {
                "address": "0x2b591e99afe9f32eaa6214f7b7629768c40eeb39",
                "erc": "ERC-20",
                "slots": [
                    {
                        "current": "0x000000000000000000000000000000000000000000000000d451834a1e2885bd",
                        "key": "0x0000000000000000000000000000000000000000000000000000000000000002",
                        "prev": "0x000000000000000000000000000000000000000000000000d4515ff79b7d0562"
                    },
                    {
                        "current": "0x00000000000000000000000000000000000000000000000000009ef1927d6347",
                        "key": "0x80669c7e2599df51f94431ff7a3e07c18ba7cfee2ad92d823da41c236bd485f5",
                        "prev": "0x00000000000000000000000000000000000000000000000000009a348d72de8c"
                    },
                    {
                        "current": "0x0000000000000000000000000000000000000000000000000000010000000001",
                        "key": "0x2e020bd6f5f42c09732b5fb25ebc1d59c7c9d06c898c0584c3af32222cd70ac9",
                        "prev": "0x0000000000000000000000000000000000000000000000000000010000000000"
                    },
                    {
                        "current": "0x00000000000000000000000000000000000000000000000008c22054ab78c82e",
                        "key": "0xeb60b90da10420aa177acf4901d8bf9dc896f1b6a6736e8a4c587042f1830c24",
                        "prev": "0x00000000000000000000000000000000000000000000000008c21970470c6436"
                    },
                    {
                        "current": "0x0000000000000000000000000000000000000000000000000001400a449c932e",
                        "key": "0xb5d81d2a32949acfc0228d4118798be8a57f08fb4807dcb0e42b19b2332d66be",
                        "prev": "0x000000000000000000000000000000000000000000000000000128592b67fb86"
                    },
                    {
                        "current": "0x0000000000000000000000000000000000000000000000000000000000000000",
                        "key": "0x00c97bbe3793576b56e695b74af4d86d9c46c545a9558ab7ed714ad4d0a94258",
                        "prev": "0xd1789562b1d2cba04a1f34d0b942d33cc51d1b30000000006124fee993bc0000"
                    }
                ],
                "storageVariables": [
                    {
                        "name": "_totalSupply",
                        "type": "uint256",
                        "value": {
                            "current": "15299153763511076285",
                            "prev": "15299114926224508258",
                            "typeTag": 1
                        }
                    },
                    {
                        "name": "_balances",
                        "type": "mapping(address => uint256)",
                        "value": {
                            "pairs": [
                                {
                                    "key": "0x18f441c98a7e4851c6101dd3efa38ddff9ac9ce3",
                                    "value": {
                                        "current": "351887821673262",
                                        "prev": "325838422145926",
                                        "typeTag": 1
                                    }
                                },
                                {
                                    "key": "0x9a6a414d6f3497c05e3b1de90520765fa1e07c03",
                                    "value": {
                                        "current": "631102445811451950",
                                        "prev": "631094867804316726",
                                        "typeTag": 1
                                    }
                                },
                                {
                                    "key": "0xd1789562b1d2cba04a1f34d0b942d33cc51d1b30",
                                    "value": {
                                        "current": "174760381997895",
                                        "prev": "169550502092428",
                                        "typeTag": 1
                                    }
                                }
                            ],
                            "typeTag": 4
                        }
                    },
                    {
                        "name": "xfLobbyMembers",
                        "type": "mapping(uint256 => mapping(address => struct GlobalsAndUtility.XfLobbyQueueStore))",
                        "value": {
                            "pairs": [
                                {
                                    "key": "150",
                                    "value": {
                                        "pairs": [
                                            {
                                                "key": "0x18f441c98a7e4851c6101dd3efa38ddff9ac9ce3",
                                                "value": {
                                                    "fields": [
                                                        {
                                                            "name": "headIndex",
                                                            "type": "uint40",
                                                            "value": {
                                                                "current": "1",
                                                                "prev": "0",
                                                                "typeTag": 1
                                                            }
                                                        },
                                                        {
                                                            "name": "tailIndex",
                                                            "type": "uint40",
                                                            "value": {
                                                                "current": "1",
                                                                "prev": "1",
                                                                "typeTag": 1
                                                            }
                                                        },
                                                        {
                                                            "name": "entries",
                                                            "type": "mapping(uint256 => struct GlobalsAndUtility.XfLobbyEntryStore)",
                                                            "value": {
                                                                "pairs": [
                                                                    {
                                                                        "key": "0",
                                                                        "value": {
                                                                            "fields": [
                                                                                {
                                                                                    "name": "rawAmount",
                                                                                    "type": "uint96",
                                                                                    "value": {
                                                                                        "current": "0",
                                                                                        "prev": "7000000000000000000",
                                                                                        "typeTag": 1
                                                                                    }
                                                                                },
                                                                                {
                                                                                    "name": "referrerAddr",
                                                                                    "type": "address",
                                                                                    "value": {
                                                                                        "current": "0x0000000000000000000000000000000000000000",
                                                                                        "prev": "0xd1789562b1d2cba04a1f34d0b942d33cc51d1b30",
                                                                                        "typeTag": 1
                                                                                    }
                                                                                }
                                                                            ],
                                                                            "typeTag": 3
                                                                        }
                                                                    }
                                                                ],
                                                                "typeTag": 4
                                                            }
                                                        }
                                                    ],
                                                    "typeTag": 3
                                                }
                                            }
                                        ],
                                        "typeTag": 4
                                    }
                                }
                            ],
                            "typeTag": 4
                        }
                    }
                ]
            }
        ]
    }
}