{
    "balance_change": {
        "balanceChanges": [
            {
                "account": "0x75e89d5979e4f6fba9f97c104c2f0afb3f1dcb88",
                "assets": [
                    {
                        "address": "0x7825e833d495f3d1c28872415a4aee339d26ac88",
                        "amount": "9,288.93",
                        "iconUrl": "",
                        "isERC1155": false,
                        "isERC721": false,
                        "sign": false,
                        "value": "2634.658606"
                    }
                ]
            },
            {
                "account": "0xc93d1d9c02c8181b26c69561818262a4dc5cebb6",
                "assets": [
                    {
                        "address": "0x7825e833d495f3d1c28872415a4aee339d26ac88",
                        "amount": "9,288.93",
                        "iconUrl": "",
                        "isERC1155": false,
                        "isERC721": false,
                        "sign": true,
                        "value": "2634.658606"
                    }
                ]
            }
        ]
    },
    "profile": {
        "basic_info": {
            "baseFee": "",
            "blockNumber": 12452524,
            "callData": "0xa9059cbb000000000000000000000000c93d1d9c02c8181b26c69561818262a4dc5cebb60000000000000000000000000000000000000000000001f78dccac23bd3d0000",
            "debugEnable": true,
            "errorInfo": "",
            "eventCount": 2,
            "feeRecipient": "0xf20b338752976878754518183873602902360704",
            "formatValue": "0",
            "gasLimit": 100918,
            "gasPrice": "80.3",
            "gasUsed": 67267,
            "intTxnCount": 2,
            "internalRevert": false,
            "internalRevertMessage": "",
            "isContractCreation": false,
            "isFlashloan": false,
            "maxFee": "",
            "nonce": 1242463,
            "overwritedBlockNumber": -1,
            "priorityFee": "",
            "receiver": "0x7825e833d495f3d1c28872415a4aee339d26ac88",
            "revertMessage": "",
            "sender": "0x75e89d5979e4f6fba9f97c104c2f0afb3f1dcb88",
            "simulationEnable": true,
            "sourceTxnHash": "0xcb7a331a0376310b3684e5635e0be6dbab350dcb949db4817f3658964c523692",
            "status": true,
            "timestamp": "2021-05-17T14:46:03Z",
            "transactionFee": "0.0054015401",
            "txnHash": "0xcb7a331a0376310b3684e5635e0be6dbab350dcb949db4817f3658964c523692",
            "txnIndex": 56,
            "type": 0,
            "value": "0"
        },
        "fund_flow": [
            {
                "amount": "9,288.93",
                "from": "0x75e89d5979e4f6fba9f97c104c2f0afb3f1dcb88",
                "id": 1,
                "isERC1155": false,
                "isERC721": false,
                "isReverted": false,
                "order": 1,
                "to": "0xc93d1d9c02c8181b26c69561818262a4dc5cebb6",
                "token": "0x7825e833d495f3d1c28872415a4aee339d26ac88"
            }
        ],
        "token_infos": [
            {
                "address": "0xeeeeeeeeeeeeeeeeeeeeeeeeeeeeeeeeeeeeeeee",
                "decimals": 18
            },
            {
                "address": "0x7825e833d495f3d1c28872415a4aee339d26ac88",
                "decimals": 18
            },
            {
                "address": "0xc02aaa39b223fe8d0a0e5c4f27ead9083c756cc2",
                "decimals": 18
            }
        ]
    },
    "address_label": {
        "labels": [
            {
                "address": "0xc93d1d9c02c8181b26c69561818262a4dc5cebb6",
                "label": "KUCOIN"
            },
            {
                "address": "0x0000000000000000000000000000000000000000",
                "label": "Null Address"
            },
            {
                "address": "0xf20b338752976878754518183873602902360704",
                "label": "Proxy"
            },
            {
                "address": "0x0000000000000000000000000000000000000001",
                "label": "Precompiled"
            },
            {
                "address": "0x0000000000000000000000000000000000000002",
                "label": "Precompiled"
            },
            {
                "address": "0x0000000000000000000000000000000000000004",
                "label": "Precompiled"
            },
            {
                "address": "0x75e89d5979e4f6fba9f97c104c2f0afb3f1dcb88",
                "label": "MEXC 1"
            },
            {
                "address": "0x1820a4b7618bde71dce8cdc73aab6c95905fad24",
                "label": "ERC1820Registry"
            },
            {
                "address": "0x7825e833d495f3d1c28872415a4aee339d26ac88",
                "label": "pTokens TLOS: TLOS Token"
            },
            {
                "address": "0x0000000000000000000000000000000000000003",
                "label": "Precompiled"
            },
            {
                "address": "0xeeeeeeeeeeeeeeeeeeeeeeeeeeeeeeeeeeeeeeee",
                "label": "Ether"
            }
        ]
    },
    "trace": {
        "accountLabels": null,
        "dataMap": {
            "-1": {
                "invocation": {
                    "address": "0x75e89d5979e4f6fba9f97c104c2f0afb3f1dcb88",
                    "callData": "",
                    "decodedMethod": null,
                    "errorInfo": "",
                    "fromAddress": "",
                    "gasUsed": 0,
                    "id": -1,
                    "methodDecoded": false,
                    "operation": "",
                    "output": "",
                    "revert": false,
                    "revertMessage": "",
                    "selector": "",
                    "status": false,
                    "value": ""
                },
                "nodeType": 0
            },
            "0": {
                "invocation": {
                    "address": "0x7825e833d495f3d1c28872415a4aee339d26ac88",
                    "callData": "0x000000000000000000000000c93d1d9c02c8181b26c69561818262a4dc5cebb60000000000000000000000000000000000000000000001f78dccac23bd3d0000",
                    "decodedMethod": {
                        "callParams": [
                            {
                                "name": "recipient",
                                "type": "address",
                                "value": "0xc93d1d9c02c8181b26c69561818262a4dc5cebb6"
                            },
                            {
                                "decimalAvailable": true,
                                "name": "amount",
                                "type": "uint256",
                                "value": "9,288,930,000,000,000,000,000"
                            }
                        ],
                        "constructorArguments": "",
                        "name": "transfer",
                        "returnParams": [
                            {
                                "name": "",
                                "type": "bool",
                                "value": true
                            }
                        ],
                        "signature": "transfer(address,uint256)"
                    },
                    "errorInfo": "",
                    "fromAddress": "0x75e89d5979e4f6fba9f97c104c2f0afb3f1dcb88",
                    "gasUsed": 67267,
                    "id": 0,
                    "methodDecoded": true,
                    "operation": "CALL",
                    "output": "0x0000000000000000000000000000000000000000000000000000000000000001",
                    "revert": false,
                    "revertMessage": "",
                    "selector": "0xa9059cbb",
                    "status": true,
                    "value": "0"
                },
                "nodeType": 0
            },
            "1": {
                "invocation": {
                    "address": "0x1820a4b7618bde71dce8cdc73aab6c95905fad24",
                    "callData": "0x00000000000000000000000075e89d5979e4f6fba9f97c104c2f0afb3f1dcb8829ddb589b1fb5fc7cf394961c1adf5f8c6454761adf795e67fe149f658abe895",
                    "decodedMethod": {
                        "callParams": [
                            {
                                "name": "_addr",
                                "type": "address",
                                "value": "0x75e89d5979e4f6fba9f97c104c2f0afb3f1dcb88"
                            },
                            {
                                "name": "_interfaceHash",
                                "type": "bytes32",
                                "value": "0x29ddb589b1fb5fc7cf394961c1adf5f8c6454761adf795e67fe149f658abe895"
                            }
                        ],
                        "constructorArguments": "",
                        "name": "getInterfaceImplementer",
                        "returnParams": [
                            {
                                "name": "",
                                "type": "address",
                                "value": "0x0000000000000000000000000000000000000000"
                            }
                        ],
                        "signature": "getInterfaceImplementer(address,bytes32)"
                    },
                    "errorInfo": "",
                    "fromAddress": "0x7825e833d495f3d1c28872415a4aee339d26ac88",
                    "gasUsed": 2942,
                    "id": 1,
                    "methodDecoded": true,
                    "operation": "STATICCALL",
                    "output": "0x0000000000000000000000000000000000000000000000000000000000000000",
                    "revert": false,
                    "revertMessage": "",
                    "selector": "0xaabbb8ca",
                    "status": true,
                    "value": "0"
                },
                "nodeType": 0
            },
            "2": {
                "event": {
                    "contract": "0x7825e833d495f3d1c28872415a4aee339d26ac88",
                    "decodedLog": {
                        "name": "Sent",
                        "params": [
                            {
                                "name": "operator",
                                "type": "address",
                                "value": "0x75e89d5979e4f6fba9f97c104c2f0afb3f1dcb88"
                            },
                            {
                                "name": "from",
                                "type": "address",
                                "value": "0x75e89d5979e4f6fba9f97c104c2f0afb3f1dcb88"
                            },
                            {
                                "name": "to",
                                "type": "address",
                                "value": "0xc93d1d9c02c8181b26c69561818262a4dc5cebb6"
                            },
                            {
                                "name": "amount",
                                "type": "uint256",
                                "value": "9,288,930,000,000,000,000,000"
                            },
                            {
                                "name": "data",
                                "type": "bytes",
                                "value": "0x"
                            },
                            {
                                "name": "operatorData",
                                "type": "bytes",
                                "value": "0x"
                            }
                        ],
                        "signature": "Sent(address,address,address,uint256,bytes,bytes)"
                    },
                    "id": 2,
                    "logData": "0x0000000000000000000000000000000000000000000001f78dccac23bd3d00000000000000000000000000000000000000000000000000000000000000000060000000000000000000000000000000000000000000000000000000000000008000000000000000000000000000000000000000000000000000000000000000000000000000000000000000000000000000000000000000000000000000000000",
                    "logDecoded": true,
                    "operation": "EVENT",
                    "revert": false,
                    "status": true,
                    "topics": [
                        "0x06b541ddaa720db2b10a4d0cdac39b8d360425fc073085fac19bc82614677987",
                        "0x00000000000000000000000075e89d5979e4f6fba9f97c104c2f0afb3f1dcb88",
                        "0x00000000000000000000000075e89d5979e4f6fba9f97c104c2f0afb3f1dcb88",
                        "0x000000000000000000000000c93d1d9c02c8181b26c69561818262a4dc5cebb6"
                    ]
                },
                "nodeType": 1
            },
            "3": {
                "event": {
                    "contract": "0x7825e833d495f3d1c28872415a4aee339d26ac88",
                    "decodedLog": {
                        "name": "Transfer",
                        "params": [
                            {
                                "name": "from",
                                "type": "address",
                                "value": "0x75e89d5979e4f6fba9f97c104c2f0afb3f1dcb88"
                            },
                            {
                                "name": "to",
                                "type": "address",
                                "value": "0xc93d1d9c02c8181b26c69561818262a4dc5cebb6"
                            },
                            {
                                "decimalAvailable": true,
                                "name": "value",
                                "type": "uint256",
                                "value": "9,288,930,000,000,000,000,000"
                            }
                        ],
                        "signature": "Transfer(address,address,uint256)"
                    },
                    "id": 3,
                    "logData": "0x0000000000000000000000000000000000000000000001f78dccac23bd3d0000",
                    "logDecoded": true,
                    "operation": "EVENT",
                    "revert": false,
                    "status": true,
                    "topics": [
                        "0xddf252ad1be2c89b69c2b068fc378daa952ba7f163c4a11628f55a4df523b3ef",
                        "0x00000000000000000000000075e89d5979e4f6fba9f97c104c2f0afb3f1dcb88",
                        "0x000000000000000000000000c93d1d9c02c8181b26c69561818262a4dc5cebb6"
                    ]
                },
                "nodeType": 1
            },
            "4": {
                "invocation": {
                    "address": "0x1820a4b7618bde71dce8cdc73aab6c95905fad24",
                    "callData": "0x000000000000000000000000c93d1d9c02c8181b26c69561818262a4dc5cebb6b281fc8c12954d22544db45de3159a39272895b169a852b314f9cc762e44c53b",
                    "decodedMethod": {
                        "callParams": [
                            {
                                "name": "_addr",
                                "type": "address",
                                "value": "0xc93d1d9c02c8181b26c69561818262a4dc5cebb6"
                            },
                            {
                                "name": "_interfaceHash",
                                "type": "bytes32",
                                "value": "0xb281fc8c12954d22544db45de3159a39272895b169a852b314f9cc762e44c53b"
                            }
                        ],
                        "constructorArguments": "",
                        "name": "getInterfaceImplementer",
                        "returnParams": [
                            {
                                "name": "",
                                "type": "address",
                                "value": "0x0000000000000000000000000000000000000000"
                            }
                        ],
                        "signature": "getInterfaceImplementer(address,bytes32)"
                    },
                    "errorInfo": "",
                    "fromAddress": "0x7825e833d495f3d1c28872415a4aee339d26ac88",
                    "gasUsed": 2942,
                    "id": 4,
                    "methodDecoded": true,
                    "operation": "STATICCALL",
                    "output": "0x0000000000000000000000000000000000000000000000000000000000000000",
                    "revert": false,
                    "revertMessage": "",
                    "selector": "0xaabbb8ca",
                    "status": true,
                    "value": "0"
                },
                "nodeType": 0
            }
        },
        "gasFlame": [
            {
                "children": [
                    {
                        "children": [
                            {
                                "children": [],
                                "depth": 0,
                                "name": "Initial Gas",
                                "value": 21656
                            },
                            {
                                "children": [
                                    {
                                        "children": [],
                                        "depth": 1,
                                        "name": "getInterfaceImplementer",
                                        "value": 2942
                                    },
                                    {
                                        "children": [],
                                        "depth": 1,
                                        "name": "getInterfaceImplementer",
                                        "value": 2942
                                    }
                                ],
                                "depth": 0,
                                "name": "Executed Gas",
                                "value": 45611
                            }
                        ],
                        "depth": -1,
                        "name": "Actual Gas Used",
                        "value": 67267
                    },
                    {
                        "children": [],
                        "depth": -1,
                        "name": "Refunded Gas",
                        "value": 0
                    }
                ],
                "depth": -2,
                "name": "Total Gas",
                "value": 67267
            }
        ],
        "isConfirmed": true,
        "mainTrace": [
            {
                "children": [
                    {
                        "children": [
                            {
                                "children": [],
                                "depth": 1,
                                "id": 1,
                                "order": 1
                            },
                            {
                                "children": [],
                                "depth": 1,
                                "id": 2,
                                "order": 2
                            },
                            {
                                "children": [],
                                "depth": 1,
                                "id": 3,
                                "order": 3
                            },
                            {
                                "children": [],
                                "depth": 1,
                                "id": 4,
                                "order": 4
                            }
                        ],
                        "depth": 0,
                        "id": 0,
                        "order": 0
                    }
                ],
                "depth": -1,
                "id": -1,
                "order": -1
            }
        ],
        "mainTraceNodeCount": 5,
        "parentIdMap": {
            "0": -1,
            "1": 0,
            "2": 0,
            "3": 0,
            "4": 0
        },
        "tidyTrace": [
            {
                "children": [
                    {
                        "children": [
                            {
                                "children": [],
                                "depth": 1,
                                "id": 2,
                                "order": 2
                            },
                            {
                                "children": [],
                                "depth": 1,
                                "id": 3,
                                "order": 3
                            }
                        ],
                        "depth": 0,
                        "id": 0,
                        "order": 0
                    }
                ],
                "depth": -1,
                "id": -1,
                "order": -1
            }
        ],
        "tidyTraceNodeCount": 3
    },
    "state_change": {
        "stateChanges": [
            {
                "address": "0x7825e833d495f3d1c28872415a4aee339d26ac88",
                "erc": "ERC-20",
                "slots": [
                    {
                        "current": "0x0000000000000000000000000000000000000000000001f78dccac23bd3d0000",
                        "key": "0x472797df3ec773510ed14a192c9827768ed8ac1a966306cd8d192a8008dec3db",
                        "prev": "0x0000000000000000000000000000000000000000000000000000000000000000"
                    },
                    {
                        "current": "0x00000000000000000000000000000000000000000000a8ea8554fde2ae0736fa",
                        "key": "0xa572b75ff8eb3dddb240f22b8eaeeed413e49a800df181233773628bfb1e7cc0",
                        "prev": "0x00000000000000000000000000000000000000000000aae21321aa066b4436fa"
                    }
                ],
                "storageVariables": [
                    {
                        "name": "_balances",
                        "type": "mapping(address => uint256)",
                        "value": {
                            "pairs": [
                                {
                                    "key": "0x75e89d5979e4f6fba9f97c104c2f0afb3f1dcb88",
                                    "value": {
                                        "current": "797683714818403543234298",
                                        "prev": "806972644818403543234298",
                                        "typeTag": 1
                                    }
                                },
                                {
                                    "key": "0xc93d1d9c02c8181b26c69561818262a4dc5cebb6",
                                    "value": {
                                        "current": "9288930000000000000000",
                                        "prev": "0",
                                        "typeTag": 1
                                    }
                                }
                            ],
                            "typeTag": 4
                        }
                    }
                ]
            }
        ]
    }
}