{
    "balance_change": {
        "balanceChanges": [
            {
                "account": "0x95f2825bf7904b27a4bc61d67f9537cba407af78",
                "assets": [
                    {
                        "address": "0xedbaf3c5100302dcdda53269322f3730b1f0416d",
                        "amount": "16",
                        "iconUrl": "",
                        "isERC1155": false,
                        "isERC721": false,
                        "sign": false,
                        "value": ""
                    }
                ]
            },
            {
                "account": "0x370a91cfa4e021e997a5cbd069868a8e6ae205ff",
                "assets": [
                    {
                        "address": "0xedbaf3c5100302dcdda53269322f3730b1f0416d",
                        "amount": "16",
                        "iconUrl": "",
                        "isERC1155": false,
                        "isERC721": false,
                        "sign": true,
                        "value": ""
                    }
                ]
            }
        ]
    },
    "profile": {
        "basic_info": {
            "baseFee": "",
            "blockNumber": 2936753,
            "callData": "0xa9059cbb000000000000000000000000370a91cfa4e021e997a5cbd069868a8e6ae205ff0000000000000000000000000000000000000000000000000000000000186a00",
            "debugEnable": true,
            "errorInfo": "",
            "eventCount": 1,
            "feeRecipient": "0x2a65aca4d5fc5b5c859090a6c34d164135398226",
            "formatValue": "0",
            "gasLimit": 90000,
            "gasPrice": "21.722094825",
            "gasUsed": 42776,
            "intTxnCount": 0,
            "internalRevert": false,
            "internalRevertMessage": "",
            "isContractCreation": false,
            "isFlashloan": false,
            "maxFee": "",
            "nonce": 29595,
            "overwritedBlockNumber": -1,
            "priorityFee": "",
            "receiver": "0xedbaf3c5100302dcdda53269322f3730b1f0416d",
            "revertMessage": "",
            "sender": "0x95f2825bf7904b27a4bc61d67f9537cba407af78",
            "simulationEnable": true,
            "sourceTxnHash": "0xcb70d405ec48d292fe0bf38f71f16b865e9bcf17a437de970f3662ccb8f5e4ce",
            "status": true,
            "timestamp": "2017-01-05T00:00:30Z",
            "transactionFee": "0.0009291843282342",
            "txnHash": "0xcb70d405ec48d292fe0bf38f71f16b865e9bcf17a437de970f3662ccb8f5e4ce",
            "txnIndex": 7,
            "type": 0,
            "value": "0"
        },
        "fund_flow": [
            {
                "amount": "16",
                "from": "0x95f2825bf7904b27a4bc61d67f9537cba407af78",
                "id": 1,
                "isERC1155": false,
                "isERC721": false,
                "isReverted": false,
                "order": 1,
                "to": "0x370a91cfa4e021e997a5cbd069868a8e6ae205ff",
                "token": "0xedbaf3c5100302dcdda53269322f3730b1f0416d"
            }
        ],
        "token_infos": [
            {
                "address": "0xc02aaa39b223fe8d0a0e5c4f27ead9083c756cc2",
                "decimals": 18
            },
            {
                "address": "0xedbaf3c5100302dcdda53269322f3730b1f0416d",
                "decimals": 5
            },
            {
                "address": "0xeeeeeeeeeeeeeeeeeeeeeeeeeeeeeeeeeeeeeeee",
                "decimals": 18
            }
        ]
    },
    "address_label": {
        "labels": [
            {
                "address": "0xeeeeeeeeeeeeeeeeeeeeeeeeeeeeeeeeeeeeeeee",
                "label": "Ether"
            },
            {
                "address": "0xedbaf3c5100302dcdda53269322f3730b1f0416d",
                "label": "Veros (Veros)"
            },
            {
                "address": "0x0000000000000000000000000000000000000001",
                "label": "Precompiled"
            },
            {
                "address": "0x0000000000000000000000000000000000000002",
                "label": "Precompiled"
            },
            {
                "address": "0x0000000000000000000000000000000000000003",
                "label": "Precompiled"
            },
            {
                "address": "0x0000000000000000000000000000000000000004",
                "label": "Precompiled"
            }
        ]
    },
    "trace": {
        "accountLabels": null,
        "dataMap": {
            "-1": {
                "invocation": {
                    "address": "0x95f2825bf7904b27a4bc61d67f9537cba407af78",
                    "callData": "",
                    "decodedMethod": null,
                    "errorInfo": "",
                    "fromAddress": "",
                    "gasUsed": 0,
                    "id": -1,
                    "methodDecoded": false,
                    "operation": "",
                    "output": "",
                    "revert": false,
                    "revertMessage": "",
                    "selector": "",
                    "status": false,
                    "value": ""
                },
                "nodeType": 0
            },
            "0": {
                "invocation": {
                    "address": "0xedbaf3c5100302dcdda53269322f3730b1f0416d",
                    "callData": "0x000000000000000000000000370a91cfa4e021e997a5cbd069868a8e6ae205ff0000000000000000000000000000000000000000000000000000000000186a00",
                    "decodedMethod": {
                        "callParams": [
                            {
                                "name": "recipient",
                                "type": "address",
                                "value": "0x370a91cfa4e021e997a5cbd069868a8e6ae205ff"
                            },
                            {
                                "decimalAvailable": true,
                                "name": "amount",
                                "type": "uint256",
                                "value": "1,600,000"
                            }
                        ],
                        "constructorArguments": "",
                        "name": "transfer",
                        "returnParams": [
                            {
                                "name": "",
                                "type": "bool",
                                "value": true
                            }
                        ],
                        "signature": "transfer(address,uint256)"
                    },
                    "errorInfo": "",
                    "fromAddress": "0x95f2825bf7904b27a4bc61d67f9537cba407af78",
                    "gasUsed": 42776,
                    "id": 0,
                    "methodDecoded": true,
                    "operation": "CALL",
                    "output": "0x0000000000000000000000000000000000000000000000000000000000000001",
                    "revert": false,
                    "revertMessage": "",
                    "selector": "0xa9059cbb",
                    "status": true,
                    "value": "0"
                },
                "nodeType": 0
            },
            "1": {
                "event": {
                    "contract": "0xedbaf3c5100302dcdda53269322f3730b1f0416d",
                    "decodedLog": {
                        "name": "Transfer",
                        "params": [
                            {
                                "name": "from",
                                "type": "address",
                                "value": "0x95f2825bf7904b27a4bc61d67f9537cba407af78"
                            },
                            {
                                "name": "to",
                                "type": "address",
                                "value": "0x370a91cfa4e021e997a5cbd069868a8e6ae205ff"
                            },
                            {
                                "decimalAvailable": true,
                                "name": "value",
                                "type": "uint256",
                                "value": "1,600,000"
                            }
                        ],
                        "signature": "Transfer(address,address,uint256)"
                    },
                    "id": 1,
                    "logData": "0x0000000000000000000000000000000000000000000000000000000000186a00",
                    "logDecoded": true,
                    "operation": "EVENT",
                    "revert": false,
                    "status": true,
                    "topics": [
                        "0xddf252ad1be2c89b69c2b068fc378daa952ba7f163c4a11628f55a4df523b3ef",
                        "0x00000000000000000000000095f2825bf7904b27a4bc61d67f9537cba407af78",
                        "0x000000000000000000000000370a91cfa4e021e997a5cbd069868a8e6ae205ff"
                    ]
                },
                "nodeType": 1
            }
        },
        "gasFlame": [
            {
                "children": [
                    {
                        "children": [
                            {
                                "children": [],
                                "depth": 0,
                                "name": "Initial Gas",
                                "value": 22936
                            },
                            {
                                "children": [],
                                "depth": 0,
                                "name": "Executed Gas",
                                "value": 19840
                            }
                        ],
                        "depth": -1,
                        "name": "Actual Gas Used",
                        "value": 42776
                    },
                    {
                        "children": [],
                        "depth": -1,
                        "name": "Refunded Gas",
                        "value": 0
                    }
                ],
                "depth": -2,
                "name": "Total Gas",
                "value": 42776
            }
        ],
        "isConfirmed": true,
        "mainTrace": [
            {
                "children": [
                    {
                        "children": [
                            {
                                "children": [],
                                "depth": 1,
                                "id": 1,
                                "order": 1
                            }
                        ],
                        "depth": 0,
                        "id": 0,
                        "order": 0
                    }
                ],
                "depth": -1,
                "id": -1,
                "order": -1
            }
        ],
        "mainTraceNodeCount": 2,
        "parentIdMap": {
            "0": -1,
            "1": 0
        },
        "tidyTrace": [
            {
                "children": [
                    {
                        "children": [
                            {
                                "children": [],
                                "depth": 1,
                                "id": 1,
                                "order": 1
                            }
                        ],
                        "depth": 0,
                        "id": 0,
                        "order": 0
                    }
                ],
                "depth": -1,
                "id": -1,
                "order": -1
            }
        ],
        "tidyTraceNodeCount": 2
    },
    "state_change": {
        "stateChanges": [
            {
                "address": "0xedbaf3c5100302dcdda53269322f3730b1f0416d",
                "erc": "",
                "slots": [
                    {
                        "current": "0x000000000000000000000000000000000000000000000000000000003befc3e8",
                        "key": "0x6d5257204ebe7d88fd91ae87941cb2dd9d8062b64ae5a2bd2d28ec40b9fbf6df",
                        "prev": "0x000000000000000000000000000000000000000000000000000000003befb830"
                    },
                    {
                        "current": "0x000000000000000000000000000000000000000000000000000007905a8b55f0",
                        "key": "0x136e0d271fc40b81076b1f96ceaeed4e01bd8fd129be21167acc3f9998ea76f2",
                        "prev": "0x000000000000000000000000000000000000000000000000000007905aa3cba8"
                    },
                    {
                        "current": "0x0000000000000000000000000000000000000000000000000000000b0c069c00",
                        "key": "0x4485d3f8ac901bacd0925555e64a46d4b03618547a2161933e13743cd021a9b6",
                        "prev": "0x0000000000000000000000000000000000000000000000000000000b0bee3200"
                    }
                ],
                "storageVariables": []
            }
        ]
    }
}