{
    "balance_change": {
        "balanceChanges": [
            {
                "account": "0x52a63cd87d15863eedb53dfcab29639e73b31322",
                "assets": [
                    {
                        "address": "0xaaaebe6fe48e54f431b0c390cfaf0b017d09d42d",
                        "amount": "809.4553",
                        "iconUrl": "https://assets.blocksec.com/icon/b35e0a0388a29aa4ea2998efee66fc15d468cdee6031804a09570153163f1eb9.png",
                        "isERC1155": false,
                        "isERC721": false,
                        "sign": false,
                        "value": "4908.609161"
                    }
                ]
            },
            {
                "account": "0xf62fe7aec021617b75aa9eb3b8d5c0d465448580",
                "assets": [
                    {
                        "address": "0xaaaebe6fe48e54f431b0c390cfaf0b017d09d42d",
                        "amount": "809.4553",
                        "iconUrl": "https://assets.blocksec.com/icon/b35e0a0388a29aa4ea2998efee66fc15d468cdee6031804a09570153163f1eb9.png",
                        "isERC1155": false,
                        "isERC721": false,
                        "sign": true,
                        "value": "4908.609161"
                    }
                ]
            }
        ]
    },
    "profile": {
        "basic_info": {
            "baseFee": "",
            "blockNumber": 11599011,
            "callData": "0xa9059cbb000000000000000000000000f62fe7aec021617b75aa9eb3b8d5c0d46544858000000000000000000000000000000000000000000000000000000000007b8359",
            "debugEnable": true,
            "errorInfo": "",
            "eventCount": 1,
            "feeRecipient": "0x5a0b54d5dc17e0aadc383d2db43b0a0d3e029c4c",
            "formatValue": "0",
            "gasLimit": 56235,
            "gasPrice": "69.3",
            "gasUsed": 22490,
            "intTxnCount": 0,
            "internalRevert": false,
            "internalRevertMessage": "",
            "isContractCreation": false,
            "isFlashloan": false,
            "maxFee": "",
            "nonce": 13,
            "overwritedBlockNumber": -1,
            "priorityFee": "",
            "receiver": "0xaaaebe6fe48e54f431b0c390cfaf0b017d09d42d",
            "revertMessage": "",
            "sender": "0x52a63cd87d15863eedb53dfcab29639e73b31322",
            "simulationEnable": true,
            "sourceTxnHash": "0xcb16495f7fcff0f81835fb54be0cb6af29daa170b419d0542ab80e1c7678704a",
            "status": true,
            "timestamp": "2021-01-06T05:05:47Z",
            "transactionFee": "0.001558557",
            "txnHash": "0xcb16495f7fcff0f81835fb54be0cb6af29daa170b419d0542ab80e1c7678704a",
            "txnIndex": 83,
            "type": 0,
            "value": "0"
        },
        "fund_flow": [
            {
                "amount": "809.4553",
                "from": "0x52a63cd87d15863eedb53dfcab29639e73b31322",
                "id": 1,
                "isERC1155": false,
                "isERC721": false,
                "isReverted": false,
                "order": 1,
                "to": "0xf62fe7aec021617b75aa9eb3b8d5c0d465448580",
                "token": "0xaaaebe6fe48e54f431b0c390cfaf0b017d09d42d"
            }
        ],
        "token_infos": [
            {
                "address": "0xeeeeeeeeeeeeeeeeeeeeeeeeeeeeeeeeeeeeeeee",
                "decimals": 18
            },
            {
                "address": "0xaaaebe6fe48e54f431b0c390cfaf0b017d09d42d",
                "decimals": 4
            },
            {
                "address": "0xc02aaa39b223fe8d0a0e5c4f27ead9083c756cc2",
                "decimals": 18
            }
        ]
    },
    "address_label": {
        "labels": [
            {
                "address": "0xeeeeeeeeeeeeeeeeeeeeeeeeeeeeeeeeeeeeeeee",
                "label": "Ether"
            },
            {
                "address": "0xaaaebe6fe48e54f431b0c390cfaf0b017d09d42d",
                "label": "Celsius Network: CEL Token"
            },
            {
                "address": "0x0000000000000000000000000000000000000001",
                "label": "Precompiled"
            },
            {
                "address": "0x0000000000000000000000000000000000000002",
                "label": "Precompiled"
            },
            {
                "address": "0x0000000000000000000000000000000000000003",
                "label": "Precompiled"
            },
            {
                "address": "0x0000000000000000000000000000000000000004",
                "label": "Precompiled"
            }
        ]
    },
    "trace": {
        "accountLabels": null,
        "dataMap": {
            "-1": {
                "invocation": {
                    "address": "0x52a63cd87d15863eedb53dfcab29639e73b31322",
                    "callData": "",
                    "decodedMethod": null,
                    "errorInfo": "",
                    "fromAddress": "",
                    "gasUsed": 0,
                    "id": -1,
                    "methodDecoded": false,
                    "operation": "",
                    "output": "",
                    "revert": false,
                    "revertMessage": "",
                    "selector": "",
                    "status": false,
                    "value": ""
                },
                "nodeType": 0
            },
            "0": {
                "invocation": {
                    "address": "0xaaaebe6fe48e54f431b0c390cfaf0b017d09d42d",
                    "callData": "0x000000000000000000000000f62fe7aec021617b75aa9eb3b8d5c0d46544858000000000000000000000000000000000000000000000000000000000007b8359",
                    "decodedMethod": {
                        "callParams": [
                            {
                                "name": "_to",
                                "type": "address",
                                "value": "0xf62fe7aec021617b75aa9eb3b8d5c0d465448580"
                            },
                            {
                                "decimalAvailable": true,
                                "name": "_value",
                                "type": "uint256",
                                "value": "8,094,553"
                            }
                        ],
                        "constructorArguments": "",
                        "name": "transfer",
                        "returnParams": [
                            {
                                "name": "success",
                                "type": "bool",
                                "value": true
                            }
                        ],
                        "signature": "transfer(address,uint256)"
                    },
                    "errorInfo": "",
                    "fromAddress": "0x52a63cd87d15863eedb53dfcab29639e73b31322",
                    "gasUsed": 22490,
                    "id": 0,
                    "methodDecoded": true,
                    "operation": "CALL",
                    "output": "0x0000000000000000000000000000000000000000000000000000000000000001",
                    "revert": false,
                    "revertMessage": "",
                    "selector": "0xa9059cbb",
                    "status": true,
                    "value": "0"
                },
                "nodeType": 0
            },
            "1": {
                "event": {
                    "contract": "0xaaaebe6fe48e54f431b0c390cfaf0b017d09d42d",
                    "decodedLog": {
                        "name": "Transfer",
                        "params": [
                            {
                                "name": "_from",
                                "type": "address",
                                "value": "0x52a63cd87d15863eedb53dfcab29639e73b31322"
                            },
                            {
                                "name": "_to",
                                "type": "address",
                                "value": "0xf62fe7aec021617b75aa9eb3b8d5c0d465448580"
                            },
                            {
                                "decimalAvailable": true,
                                "name": "_value",
                                "type": "uint256",
                                "value": "8,094,553"
                            }
                        ],
                        "signature": "Transfer(address,address,uint256)"
                    },
                    "id": 1,
                    "logData": "0x00000000000000000000000000000000000000000000000000000000007b8359",
                    "logDecoded": true,
                    "operation": "EVENT",
                    "revert": false,
                    "status": true,
                    "topics": [
                        "0xddf252ad1be2c89b69c2b068fc378daa952ba7f163c4a11628f55a4df523b3ef",
                        "0x00000000000000000000000052a63cd87d15863eedb53dfcab29639e73b31322",
                        "0x000000000000000000000000f62fe7aec021617b75aa9eb3b8d5c0d465448580"
                    ]
                },
                "nodeType": 1
            }
        },
        "gasFlame": [
            {
                "children": [
                    {
                        "children": [
                            {
                                "children": [],
                                "depth": 0,
                                "name": "Initial Gas",
                                "value": 21596
                            },
                            {
                                "children": [],
                                "depth": 0,
                                "name": "Executed Gas",
                                "value": 15894
                            }
                        ],
                        "depth": -1,
                        "name": "Actual Gas Used",
                        "value": 22490
                    },
                    {
                        "children": [],
                        "depth": -1,
                        "name": "Refunded Gas",
                        "value": 15000
                    }
                ],
                "depth": -2,
                "name": "Total Gas",
                "value": 37490
            }
        ],
        "isConfirmed": true,
        "mainTrace": [
            {
                "children": [
                    {
                        "children": [
                            {
                                "children": [],
                                "depth": 1,
                                "id": 1,
                                "order": 1
                            }
                        ],
                        "depth": 0,
                        "id": 0,
                        "order": 0
                    }
                ],
                "depth": -1,
                "id": -1,
                "order": -1
            }
        ],
        "mainTraceNodeCount": 2,
        "parentIdMap": {
            "0": -1,
            "1": 0
        },
        "tidyTrace": [
            {
                "children": [
                    {
                        "children": [
                            {
                                "children": [],
                                "depth": 1,
                                "id": 1,
                                "order": 1
                            }
                        ],
                        "depth": 0,
                        "id": 0,
                        "order": 0
                    }
                ],
                "depth": -1,
                "id": -1,
                "order": -1
            }
        ],
        "tidyTraceNodeCount": 2
    },
    "state_change": {
        "stateChanges": [
            {
                "address": "0xaaaebe6fe48e54f431b0c390cfaf0b017d09d42d",
                "erc": "ERC-20",
                "slots": [
                    {
                        "current": "0x0000000000000000000000000000000000000000000000000000000000000000",
                        "key": "0xc5591b321bf25aac42d92b1cd1bf19f39ba0989bad3fa158a0c90f8874ebbb64",
                        "prev": "0x00000000000000000000000000000000000000000000000000000000007b8359"
                    },
                    {
                        "current": "0x0000000000000000000000000000000000000000000000000000000000a2bda3",
                        "key": "0x19c832c9d3f618540162a20ccee1211bb8227a30e5076bcb76733ac486a6b8a1",
                        "prev": "0x0000000000000000000000000000000000000000000000000000000000273a4a"
                    }
                ],
                "storageVariables": [
                    {
                        "name": "accounts",
                        "type": "mapping(address => uint256)",
                        "value": {
                            "pairs": [
                                {
                                    "key": "0x52a63cd87d15863eedb53dfcab29639e73b31322",
                                    "value": {
                                        "current": "0",
                                        "prev": "8094553",
                                        "typeTag": 1
                                    }
                                },
                                {
                                    "key": "0xf62fe7aec021617b75aa9eb3b8d5c0d465448580",
                                    "value": {
                                        "current": "10665379",
                                        "prev": "2570826",
                                        "typeTag": 1
                                    }
                                }
                            ],
                            "typeTag": 4
                        }
                    }
                ]
            }
        ]
    }
}