{
    "balance_change": {
        "balanceChanges": [
            {
                "account": "0x1fd73eb28485c7a3831e525cf80cd968b73b37f9",
                "assets": [
                    {
                        "address": "0x9892843ed7b78e9ca3a15fe3d6fc12c664277c8d",
                        "amount": "349,392.687643594389422568",
                        "iconUrl": "",
                        "isERC1155": false,
                        "isERC721": false,
                        "sign": false,
                        "value": ""
                    },
                    {
                        "address": "0xa0b86991c6218b36c1d19d4a2e9eb0ce3606eb48",
                        "amount": "8,822.641276",
                        "iconUrl": "https://assets.blocksec.com/icon/0347a86cc07dbd03fdc5db01a4e5ac7e1217f90e0b6e4bb0f75cbcca09160989.png",
                        "isERC1155": false,
                        "isERC721": false,
                        "sign": true,
                        "value": "8822.647805"
                    }
                ]
            },
            {
                "account": "0xba12222222228d8ba445958a75a0704d566bf2c8",
                "assets": [
                    {
                        "address": "0x9892843ed7b78e9ca3a15fe3d6fc12c664277c8d",
                        "amount": "349,392.687643594389422568",
                        "iconUrl": "",
                        "isERC1155": false,
                        "isERC721": false,
                        "sign": true,
                        "value": ""
                    },
                    {
                        "address": "0xa0b86991c6218b36c1d19d4a2e9eb0ce3606eb48",
                        "amount": "8,822.641276",
                        "iconUrl": "https://assets.blocksec.com/icon/0347a86cc07dbd03fdc5db01a4e5ac7e1217f90e0b6e4bb0f75cbcca09160989.png",
                        "isERC1155": false,
                        "isERC721": false,
                        "sign": false,
                        "value": "8822.647805"
                    }
                ]
            }
        ]
    },
    "profile": {
        "basic_info": {
            "baseFee": "155.904615744",
            "blockNumber": 13620554,
            "callData": "0x52bbbe2900000000000000000000000000000000000000000000000000000000000000e00000000000000000000000001fd73eb28485c7a3831e525cf80cd968b73b37f900000000000000000000000000000000000000000000000000000000000000000000000000000000000000001fd73eb28485c7a3831e525cf80cd968b73b37f900000000000000000000000000000000000000000000000000000000000000000000000000000000000000000000000000000000000000000000000208b66771ffffffffffffffffffffffffffffffffffffffffffffffffffffffffffffffffe5769603af1c9ec809dd5cfbc7fee36e7f09a3e60002000000000000000000bf00000000000000000000000000000000000000000000000000000000000000000000000000000000000000009892843ed7b78e9ca3a15fe3d6fc12c664277c8d000000000000000000000000a0b86991c6218b36c1d19d4a2e9eb0ce3606eb480000000000000000000000000000000000000000000049fc9d94aa0d80e781e800000000000000000000000000000000000000000000000000000000000000c00000000000000000000000000000000000000000000000000000000000000000",
            "debugEnable": true,
            "errorInfo": "",
            "eventCount": 4,
            "feeRecipient": "0xea674fdde714fd979de3edf0f56aa9716b898ec8",
            "formatValue": "0",
            "gasLimit": 158021,
            "gasPrice": "157.404615744",
            "gasUsed": 133959,
            "intTxnCount": 4,
            "internalRevert": false,
            "internalRevertMessage": "",
            "isContractCreation": false,
            "isFlashloan": false,
            "maxFee": "278.67",
            "nonce": 4,
            "overwritedBlockNumber": -1,
            "priorityFee": "1.5",
            "receiver": "0xba12222222228d8ba445958a75a0704d566bf2c8",
            "revertMessage": "",
            "sender": "0x1fd73eb28485c7a3831e525cf80cd968b73b37f9",
            "simulationEnable": true,
            "sourceTxnHash": "0xcb63987c2c1681cd31368a925bb219ab0879ddddbba0044f659aa8c6df0379a7",
            "status": true,
            "timestamp": "2021-11-15T13:23:47Z",
            "transactionFee": "0.021085764920450496",
            "txnHash": "0xcb63987c2c1681cd31368a925bb219ab0879ddddbba0044f659aa8c6df0379a7",
            "txnIndex": 149,
            "type": 2,
            "value": "0"
        },
        "fund_flow": [
            {
                "amount": "349,392.687643594389422568",
                "from": "0x1fd73eb28485c7a3831e525cf80cd968b73b37f9",
                "id": 1,
                "isERC1155": false,
                "isERC721": false,
                "isReverted": false,
                "order": 1,
                "to": "0xba12222222228d8ba445958a75a0704d566bf2c8",
                "token": "0x9892843ed7b78e9ca3a15fe3d6fc12c664277c8d"
            },
            {
                "amount": "8,822.641276",
                "from": "0xba12222222228d8ba445958a75a0704d566bf2c8",
                "id": 2,
                "isERC1155": false,
                "isERC721": false,
                "isReverted": false,
                "order": 2,
                "to": "0x1fd73eb28485c7a3831e525cf80cd968b73b37f9",
                "token": "0xa0b86991c6218b36c1d19d4a2e9eb0ce3606eb48"
            }
        ],
        "token_infos": [
            {
                "address": "0xeeeeeeeeeeeeeeeeeeeeeeeeeeeeeeeeeeeeeeee",
                "decimals": 18
            },
            {
                "address": "0x9892843ed7b78e9ca3a15fe3d6fc12c664277c8d",
                "decimals": 18
            },
            {
                "address": "0xa0b86991c6218b36c1d19d4a2e9eb0ce3606eb48",
                "decimals": 6
            },
            {
                "address": "0xc02aaa39b223fe8d0a0e5c4f27ead9083c756cc2",
                "decimals": 18
            }
        ]
    },
    "address_label": {
        "labels": [
            {
                "address": "0xa2327a938febf5fec13bacfb16ae10ecbc4cbdcf",
                "label": "FiatTokenV2_1"
            },
            {
                "address": "0xba12222222228d8ba445958a75a0704d566bf2c8",
                "label": "Balancer: Vault"
            },
            {
                "address": "0xa0b86991c6218b36c1d19d4a2e9eb0ce3606eb48",
                "label": "Circle: USDC Token"
            },
            {
                "address": "0xe5769603af1c9ec809dd5cfbc7fee36e7f09a3e6",
                "label": "bKRL Copper Launch (bKRL_FLA)"
            },
            {
                "address": "0x0000000000000000000000000000000000000002",
                "label": "Precompiled"
            },
            {
                "address": "0x0000000000000000000000000000000000000003",
                "label": "Precompiled"
            },
            {
                "address": "0xeeeeeeeeeeeeeeeeeeeeeeeeeeeeeeeeeeeeeeee",
                "label": "Ether"
            },
            {
                "address": "0x9892843ed7b78e9ca3a15fe3d6fc12c664277c8d",
                "label": "Balancer KRL (bKRL)"
            },
            {
                "address": "0x0000000000000000000000000000000000000001",
                "label": "Precompiled"
            },
            {
                "address": "0x0000000000000000000000000000000000000004",
                "label": "Precompiled"
            }
        ]
    },
    "trace": {
        "accountLabels": null,
        "dataMap": {
            "-1": {
                "invocation": {
                    "address": "0x1fd73eb28485c7a3831e525cf80cd968b73b37f9",
                    "callData": "",
                    "decodedMethod": null,
                    "errorInfo": "",
                    "fromAddress": "",
                    "gasUsed": 0,
                    "id": -1,
                    "methodDecoded": false,
                    "operation": "",
                    "output": "",
                    "revert": false,
                    "revertMessage": "",
                    "selector": "",
                    "status": false,
                    "value": ""
                },
                "nodeType": 0
            },
            "0": {
                "invocation": {
                    "address": "0xba12222222228d8ba445958a75a0704d566bf2c8",
                    "callData": "0x00000000000000000000000000000000000000000000000000000000000000e00000000000000000000000001fd73eb28485c7a3831e525cf80cd968b73b37f900000000000000000000000000000000000000000000000000000000000000000000000000000000000000001fd73eb28485c7a3831e525cf80cd968b73b37f900000000000000000000000000000000000000000000000000000000000000000000000000000000000000000000000000000000000000000000000208b66771ffffffffffffffffffffffffffffffffffffffffffffffffffffffffffffffffe5769603af1c9ec809dd5cfbc7fee36e7f09a3e60002000000000000000000bf00000000000000000000000000000000000000000000000000000000000000000000000000000000000000009892843ed7b78e9ca3a15fe3d6fc12c664277c8d000000000000000000000000a0b86991c6218b36c1d19d4a2e9eb0ce3606eb480000000000000000000000000000000000000000000049fc9d94aa0d80e781e800000000000000000000000000000000000000000000000000000000000000c00000000000000000000000000000000000000000000000000000000000000000",
                    "decodedMethod": {
                        "callParams": [
                            {
                                "name": "singleSwap",
                                "type": "(bytes32,uint8,address,address,uint256,bytes)",
                                "value": [
                                    {
                                        "name": "poolId",
                                        "type": "bytes32",
                                        "value": "0xe5769603af1c9ec809dd5cfbc7fee36e7f09a3e60002000000000000000000bf"
                                    },
                                    {
                                        "name": "kind",
                                        "type": "uint8",
                                        "value": "0"
                                    },
                                    {
                                        "name": "assetIn",
                                        "type": "address",
                                        "value": "0x9892843ed7b78e9ca3a15fe3d6fc12c664277c8d"
                                    },
                                    {
                                        "name": "assetOut",
                                        "type": "address",
                                        "value": "0xa0b86991c6218b36c1d19d4a2e9eb0ce3606eb48"
                                    },
                                    {
                                        "name": "amount",
                                        "type": "uint256",
                                        "value": "349,392,687,643,594,389,422,568"
                                    },
                                    {
                                        "name": "userData",
                                        "type": "bytes",
                                        "value": "0x"
                                    }
                                ]
                            },
                            {
                                "name": "funds",
                                "type": "(address,bool,address,bool)",
                                "value": [
                                    {
                                        "name": "sender",
                                        "type": "address",
                                        "value": "0x1fd73eb28485c7a3831e525cf80cd968b73b37f9"
                                    },
                                    {
                                        "name": "fromInternalBalance",
                                        "type": "bool",
                                        "value": false
                                    },
                                    {
                                        "name": "recipient",
                                        "type": "address",
                                        "value": "0x1fd73eb28485c7a3831e525cf80cd968b73b37f9"
                                    },
                                    {
                                        "name": "toInternalBalance",
                                        "type": "bool",
                                        "value": false
                                    }
                                ]
                            },
                            {
                                "name": "limit",
                                "type": "uint256",
                                "value": "8,736,106,353"
                            },
                            {
                                "name": "deadline",
                                "type": "uint256",
                                "value": "115,792,089,237,316,195,423,570,985,008,687,907,853,269,984,665,640,564,039,457,584,007,913,129,639,935"
                            }
                        ],
                        "constructorArguments": "",
                        "name": "swap",
                        "returnParams": [
                            {
                                "name": "amountCalculated",
                                "type": "uint256",
                                "value": "8,822,641,276"
                            }
                        ],
                        "signature": "swap((bytes32,uint8,address,address,uint256,bytes),(address,bool,address,bool),uint256,uint256)"
                    },
                    "errorInfo": "",
                    "fromAddress": "0x1fd73eb28485c7a3831e525cf80cd968b73b37f9",
                    "gasUsed": 133959,
                    "id": 0,
                    "methodDecoded": true,
                    "operation": "CALL",
                    "output": "0x000000000000000000000000000000000000000000000000000000020dded27c",
                    "revert": false,
                    "revertMessage": "",
                    "selector": "0x52bbbe29",
                    "status": true,
                    "value": "0"
                },
                "nodeType": 0
            },
            "1": {
                "invocation": {
                    "address": "0xe5769603af1c9ec809dd5cfbc7fee36e7f09a3e6",
                    "callData": "0x00000000000000000000000000000000000000000000000000000000000000600000000000000000000000000000000000000000005a4f48ad1b8d3b07a462e60000000000000000000000000000000000000000000000000000027fd78fdbf500000000000000000000000000000000000000000000000000000000000000000000000000000000000000009892843ed7b78e9ca3a15fe3d6fc12c664277c8d000000000000000000000000a0b86991c6218b36c1d19d4a2e9eb0ce3606eb480000000000000000000000000000000000000000000049fc9d94aa0d80e781e8e5769603af1c9ec809dd5cfbc7fee36e7f09a3e60002000000000000000000bf0000000000000000000000000000000000000000000000000000000000cfd54a0000000000000000000000001fd73eb28485c7a3831e525cf80cd968b73b37f90000000000000000000000001fd73eb28485c7a3831e525cf80cd968b73b37f900000000000000000000000000000000000000000000000000000000000001200000000000000000000000000000000000000000000000000000000000000000",
                    "decodedMethod": {
                        "callParams": [
                            {
                                "name": "request",
                                "type": "(uint8,address,address,uint256,bytes32,uint256,address,address,bytes)",
                                "value": [
                                    {
                                        "name": "kind",
                                        "type": "uint8",
                                        "value": "0"
                                    },
                                    {
                                        "name": "tokenIn",
                                        "type": "address",
                                        "value": "0x9892843ed7b78e9ca3a15fe3d6fc12c664277c8d"
                                    },
                                    {
                                        "name": "tokenOut",
                                        "type": "address",
                                        "value": "0xa0b86991c6218b36c1d19d4a2e9eb0ce3606eb48"
                                    },
                                    {
                                        "name": "amount",
                                        "type": "uint256",
                                        "value": "349,392,687,643,594,389,422,568"
                                    },
                                    {
                                        "name": "poolId",
                                        "type": "bytes32",
                                        "value": "0xe5769603af1c9ec809dd5cfbc7fee36e7f09a3e60002000000000000000000bf"
                                    },
                                    {
                                        "name": "lastChangeBlock",
                                        "type": "uint256",
                                        "value": "13,620,554"
                                    },
                                    {
                                        "name": "from",
                                        "type": "address",
                                        "value": "0x1fd73eb28485c7a3831e525cf80cd968b73b37f9"
                                    },
                                    {
                                        "name": "to",
                                        "type": "address",
                                        "value": "0x1fd73eb28485c7a3831e525cf80cd968b73b37f9"
                                    },
                                    {
                                        "name": "userData",
                                        "type": "bytes",
                                        "value": "0x"
                                    }
                                ]
                            },
                            {
                                "name": "balanceTokenIn",
                                "type": "uint256",
                                "value": "109,177,731,356,755,512,386,675,430"
                            },
                            {
                                "name": "balanceTokenOut",
                                "type": "uint256",
                                "value": "2,748,100,631,541"
                            }
                        ],
                        "constructorArguments": "",
                        "name": "onSwap",
                        "returnParams": [
                            {
                                "name": "",
                                "type": "uint256",
                                "value": "8,822,641,276"
                            }
                        ],
                        "signature": "onSwap((uint8,address,address,uint256,bytes32,uint256,address,address,bytes),uint256,uint256)"
                    },
                    "errorInfo": "",
                    "fromAddress": "0xba12222222228d8ba445958a75a0704d566bf2c8",
                    "gasUsed": 16980,
                    "id": 1,
                    "methodDecoded": true,
                    "operation": "CALL",
                    "output": "0x000000000000000000000000000000000000000000000000000000020dded27c",
                    "revert": false,
                    "revertMessage": "",
                    "selector": "0x9d2c110c",
                    "status": true,
                    "value": "0"
                },
                "nodeType": 0
            },
            "2": {
                "event": {
                    "contract": "0xba12222222228d8ba445958a75a0704d566bf2c8",
                    "decodedLog": {
                        "name": "Swap",
                        "params": [
                            {
                                "name": "poolId",
                                "type": "bytes32",
                                "value": "0xe5769603af1c9ec809dd5cfbc7fee36e7f09a3e60002000000000000000000bf"
                            },
                            {
                                "name": "tokenIn",
                                "type": "address",
                                "value": "0x9892843ed7b78e9ca3a15fe3d6fc12c664277c8d"
                            },
                            {
                                "name": "tokenOut",
                                "type": "address",
                                "value": "0xa0b86991c6218b36c1d19d4a2e9eb0ce3606eb48"
                            },
                            {
                                "name": "amountIn",
                                "type": "uint256",
                                "value": "349,392,687,643,594,389,422,568"
                            },
                            {
                                "name": "amountOut",
                                "type": "uint256",
                                "value": "8,822,641,276"
                            }
                        ],
                        "signature": "Swap(bytes32,address,address,uint256,uint256)"
                    },
                    "id": 2,
                    "logData": "0x0000000000000000000000000000000000000000000049fc9d94aa0d80e781e8000000000000000000000000000000000000000000000000000000020dded27c",
                    "logDecoded": true,
                    "operation": "EVENT",
                    "revert": false,
                    "status": true,
                    "topics": [
                        "0x2170c741c41531aec20e7c107c24eecfdd15e69c9bb0a8dd37b1840b9e0b207b",
                        "0xe5769603af1c9ec809dd5cfbc7fee36e7f09a3e60002000000000000000000bf",
                        "0x0000000000000000000000009892843ed7b78e9ca3a15fe3d6fc12c664277c8d",
                        "0x000000000000000000000000a0b86991c6218b36c1d19d4a2e9eb0ce3606eb48"
                    ]
                },
                "nodeType": 1
            },
            "3": {
                "invocation": {
                    "address": "0x9892843ed7b78e9ca3a15fe3d6fc12c664277c8d",
                    "callData": "0x0000000000000000000000001fd73eb28485c7a3831e525cf80cd968b73b37f9000000000000000000000000ba12222222228d8ba445958a75a0704d566bf2c80000000000000000000000000000000000000000000049fc9d94aa0d80e781e8",
                    "decodedMethod": {
                        "callParams": [
                            {
                                "name": "sender",
                                "type": "address",
                                "value": "0x1fd73eb28485c7a3831e525cf80cd968b73b37f9"
                            },
                            {
                                "name": "recipient",
                                "type": "address",
                                "value": "0xba12222222228d8ba445958a75a0704d566bf2c8"
                            },
                            {
                                "decimalAvailable": true,
                                "name": "amount",
                                "type": "uint256",
                                "value": "349,392,687,643,594,389,422,568"
                            }
                        ],
                        "constructorArguments": "",
                        "name": "transferFrom",
                        "returnParams": [
                            {
                                "name": "",
                                "type": "bool",
                                "value": true
                            }
                        ],
                        "signature": "transferFrom(address,address,uint256)"
                    },
                    "errorInfo": "",
                    "fromAddress": "0xba12222222228d8ba445958a75a0704d566bf2c8",
                    "gasUsed": 21367,
                    "id": 3,
                    "methodDecoded": true,
                    "operation": "CALL",
                    "output": "0x0000000000000000000000000000000000000000000000000000000000000001",
                    "revert": false,
                    "revertMessage": "",
                    "selector": "0x23b872dd",
                    "status": true,
                    "value": "0"
                },
                "nodeType": 0
            },
            "4": {
                "event": {
                    "contract": "0x9892843ed7b78e9ca3a15fe3d6fc12c664277c8d",
                    "decodedLog": {
                        "name": "Transfer",
                        "params": [
                            {
                                "name": "from",
                                "type": "address",
                                "value": "0x1fd73eb28485c7a3831e525cf80cd968b73b37f9"
                            },
                            {
                                "name": "to",
                                "type": "address",
                                "value": "0xba12222222228d8ba445958a75a0704d566bf2c8"
                            },
                            {
                                "decimalAvailable": true,
                                "name": "value",
                                "type": "uint256",
                                "value": "349,392,687,643,594,389,422,568"
                            }
                        ],
                        "signature": "Transfer(address,address,uint256)"
                    },
                    "id": 4,
                    "logData": "0x0000000000000000000000000000000000000000000049fc9d94aa0d80e781e8",
                    "logDecoded": true,
                    "operation": "EVENT",
                    "revert": false,
                    "status": true,
                    "topics": [
                        "0xddf252ad1be2c89b69c2b068fc378daa952ba7f163c4a11628f55a4df523b3ef",
                        "0x0000000000000000000000001fd73eb28485c7a3831e525cf80cd968b73b37f9",
                        "0x000000000000000000000000ba12222222228d8ba445958a75a0704d566bf2c8"
                    ]
                },
                "nodeType": 1
            },
            "5": {
                "event": {
                    "contract": "0x9892843ed7b78e9ca3a15fe3d6fc12c664277c8d",
                    "decodedLog": {
                        "name": "Approval",
                        "params": [
                            {
                                "name": "owner",
                                "type": "address",
                                "value": "0x1fd73eb28485c7a3831e525cf80cd968b73b37f9"
                            },
                            {
                                "name": "spender",
                                "type": "address",
                                "value": "0xba12222222228d8ba445958a75a0704d566bf2c8"
                            },
                            {
                                "decimalAvailable": true,
                                "name": "value",
                                "type": "uint256",
                                "value": "115,792,089,237,316,195,423,570,985,008,687,907,853,269,984,665,640,563,690,064,896,364,318,740,217,367"
                            }
                        ],
                        "signature": "Approval(address,address,uint256)"
                    },
                    "id": 5,
                    "logData": "0xffffffffffffffffffffffffffffffffffffffffffffb603626b55f27f187e17",
                    "logDecoded": true,
                    "operation": "EVENT",
                    "revert": false,
                    "status": true,
                    "topics": [
                        "0x8c5be1e5ebec7d5bd14f71427d1e84f3dd0314c0f7b2291e5b200ac8c7c3b925",
                        "0x0000000000000000000000001fd73eb28485c7a3831e525cf80cd968b73b37f9",
                        "0x000000000000000000000000ba12222222228d8ba445958a75a0704d566bf2c8"
                    ]
                },
                "nodeType": 1
            },
            "6": {
                "invocation": {
                    "address": "0xa0b86991c6218b36c1d19d4a2e9eb0ce3606eb48",
                    "callData": "0x0000000000000000000000001fd73eb28485c7a3831e525cf80cd968b73b37f9000000000000000000000000000000000000000000000000000000020dded27c",
                    "decodedMethod": {
                        "callParams": [
                            {
                                "name": "to",
                                "type": "address",
                                "value": "0x1fd73eb28485c7a3831e525cf80cd968b73b37f9"
                            },
                            {
                                "decimalAvailable": true,
                                "name": "value",
                                "type": "uint256",
                                "value": "8,822,641,276"
                            }
                        ],
                        "constructorArguments": "",
                        "name": "transfer",
                        "returnParams": [
                            {
                                "name": "",
                                "type": "bool",
                                "value": true
                            }
                        ],
                        "signature": "transfer(address,uint256)"
                    },
                    "errorInfo": "",
                    "fromAddress": "0xba12222222228d8ba445958a75a0704d566bf2c8",
                    "gasUsed": 44017,
                    "id": 6,
                    "methodDecoded": true,
                    "operation": "CALL",
                    "output": "0x0000000000000000000000000000000000000000000000000000000000000001",
                    "revert": false,
                    "revertMessage": "",
                    "selector": "0xa9059cbb",
                    "status": true,
                    "value": "0"
                },
                "nodeType": 0
            },
            "7": {
                "invocation": {
                    "address": "0xa2327a938febf5fec13bacfb16ae10ecbc4cbdcf",
                    "callData": "0x0000000000000000000000001fd73eb28485c7a3831e525cf80cd968b73b37f9000000000000000000000000000000000000000000000000000000020dded27c",
                    "decodedMethod": {
                        "callParams": [
                            {
                                "name": "to",
                                "type": "address",
                                "value": "0x1fd73eb28485c7a3831e525cf80cd968b73b37f9"
                            },
                            {
                                "decimalAvailable": true,
                                "name": "value",
                                "type": "uint256",
                                "value": "8,822,641,276"
                            }
                        ],
                        "constructorArguments": "",
                        "name": "transfer",
                        "returnParams": [
                            {
                                "name": "",
                                "type": "bool",
                                "value": true
                            }
                        ],
                        "signature": "transfer(address,uint256)"
                    },
                    "errorInfo": "",
                    "fromAddress": "0xa0b86991c6218b36c1d19d4a2e9eb0ce3606eb48",
                    "gasUsed": 36728,
                    "id": 7,
                    "methodDecoded": true,
                    "operation": "DELEGATECALL",
                    "output": "0x0000000000000000000000000000000000000000000000000000000000000001",
                    "revert": false,
                    "revertMessage": "",
                    "selector": "0xa9059cbb",
                    "status": true,
                    "value": "0"
                },
                "nodeType": 0
            },
            "8": {
                "event": {
                    "contract": "0xa0b86991c6218b36c1d19d4a2e9eb0ce3606eb48",
                    "decodedLog": {
                        "name": "Transfer",
                        "params": [
                            {
                                "name": "from",
                                "type": "address",
                                "value": "0xba12222222228d8ba445958a75a0704d566bf2c8"
                            },
                            {
                                "name": "to",
                                "type": "address",
                                "value": "0x1fd73eb28485c7a3831e525cf80cd968b73b37f9"
                            },
                            {
                                "decimalAvailable": true,
                                "name": "value",
                                "type": "uint256",
                                "value": "8,822,641,276"
                            }
                        ],
                        "signature": "Transfer(address,address,uint256)"
                    },
                    "id": 8,
                    "logData": "0x000000000000000000000000000000000000000000000000000000020dded27c",
                    "logDecoded": true,
                    "operation": "EVENT",
                    "revert": false,
                    "status": true,
                    "topics": [
                        "0xddf252ad1be2c89b69c2b068fc378daa952ba7f163c4a11628f55a4df523b3ef",
                        "0x000000000000000000000000ba12222222228d8ba445958a75a0704d566bf2c8",
                        "0x0000000000000000000000001fd73eb28485c7a3831e525cf80cd968b73b37f9"
                    ]
                },
                "nodeType": 1
            }
        },
        "gasFlame": [
            {
                "children": [
                    {
                        "children": [
                            {
                                "children": [],
                                "depth": 0,
                                "name": "Initial Gas",
                                "value": 24668
                            },
                            {
                                "children": [
                                    {
                                        "children": [],
                                        "depth": 1,
                                        "name": "onSwap",
                                        "value": 16980
                                    },
                                    {
                                        "children": [],
                                        "depth": 1,
                                        "name": "transferFrom",
                                        "value": 21367
                                    },
                                    {
                                        "children": [
                                            {
                                                "children": [],
                                                "depth": 2,
                                                "name": "transfer",
                                                "value": 36728
                                            }
                                        ],
                                        "depth": 1,
                                        "name": "transfer",
                                        "value": 44017
                                    }
                                ],
                                "depth": 0,
                                "name": "Executed Gas",
                                "value": 116891
                            }
                        ],
                        "depth": -1,
                        "name": "Actual Gas Used",
                        "value": 133959
                    },
                    {
                        "children": [],
                        "depth": -1,
                        "name": "Refunded Gas",
                        "value": 7600
                    }
                ],
                "depth": -2,
                "name": "Total Gas",
                "value": 141559
            }
        ],
        "isConfirmed": true,
        "mainTrace": [
            {
                "children": [
                    {
                        "children": [
                            {
                                "children": [],
                                "depth": 1,
                                "id": 1,
                                "order": 1
                            },
                            {
                                "children": [],
                                "depth": 1,
                                "id": 2,
                                "order": 2
                            },
                            {
                                "children": [
                                    {
                                        "children": [],
                                        "depth": 2,
                                        "id": 4,
                                        "order": 4
                                    },
                                    {
                                        "children": [],
                                        "depth": 2,
                                        "id": 5,
                                        "order": 5
                                    }
                                ],
                                "depth": 1,
                                "id": 3,
                                "order": 3
                            },
                            {
                                "children": [
                                    {
                                        "children": [
                                            {
                                                "children": [],
                                                "depth": 3,
                                                "id": 8,
                                                "order": 8
                                            }
                                        ],
                                        "depth": 2,
                                        "id": 7,
                                        "order": 7
                                    }
                                ],
                                "depth": 1,
                                "id": 6,
                                "order": 6
                            }
                        ],
                        "depth": 0,
                        "id": 0,
                        "order": 0
                    }
                ],
                "depth": -1,
                "id": -1,
                "order": -1
            }
        ],
        "mainTraceNodeCount": 9,
        "parentIdMap": {
            "0": -1,
            "1": 0,
            "2": 0,
            "3": 0,
            "4": 3,
            "5": 3,
            "6": 0,
            "7": 6,
            "8": 7
        },
        "tidyTrace": [
            {
                "children": [
                    {
                        "children": [
                            {
                                "children": [],
                                "depth": 1,
                                "id": 1,
                                "order": 1
                            },
                            {
                                "children": [],
                                "depth": 1,
                                "id": 2,
                                "order": 2
                            },
                            {
                                "children": [
                                    {
                                        "children": [],
                                        "depth": 2,
                                        "id": 4,
                                        "order": 4
                                    },
                                    {
                                        "children": [],
                                        "depth": 2,
                                        "id": 5,
                                        "order": 5
                                    }
                                ],
                                "depth": 1,
                                "id": 3,
                                "order": 3
                            },
                            {
                                "children": [
                                    {
                                        "children": [
                                            {
                                                "children": [],
                                                "depth": 3,
                                                "id": 8,
                                                "order": 8
                                            }
                                        ],
                                        "depth": 2,
                                        "id": 7,
                                        "order": 7
                                    }
                                ],
                                "depth": 1,
                                "id": 6,
                                "order": 6
                            }
                        ],
                        "depth": 0,
                        "id": 0,
                        "order": 0
                    }
                ],
                "depth": -1,
                "id": -1,
                "order": -1
            }
        ],
        "tidyTraceNodeCount": 9
    },
    "state_change": {
        "stateChanges": [
            {
                "address": "0x9892843ed7b78e9ca3a15fe3d6fc12c664277c8d",
                "erc": "",
                "slots": [
                    {
                        "current": "0x0000000000000000000000000000000000000000000000000000000000000000",
                        "key": "0xb729c4301c4ba32d0dee55db4779256887bcd44e97eddb68e8eda139da853cb9",
                        "prev": "0x0000000000000000000000000000000000000000000049fc9d94aa0d80e781e8"
                    },
                    {
                        "current": "0x0000000000000000000000000000000000000000005a99454ab03748888be4ce",
                        "key": "0x35319886236d14fde3fb5d2d478c99523591cec1329d23f2a1dd0025f7b62718",
                        "prev": "0x0000000000000000000000000000000000000000005a4f48ad1b8d3b07a462e6"
                    },
                    {
                        "current": "0xffffffffffffffffffffffffffffffffffffffffffffb603626b55f27f187e17",
                        "key": "0x88c002eea523f44cec988a94053ea18be616f143e3cf240e54b48df1bf79ac90",
                        "prev": "0xffffffffffffffffffffffffffffffffffffffffffffffffffffffffffffffff"
                    }
                ],
                "storageVariables": []
            },
            {
                "address": "0xa0b86991c6218b36c1d19d4a2e9eb0ce3606eb48",
                "erc": "ERC-20",
                "slots": [
                    {
                        "current": "0x000000000000000000000000000000000000000000000000000000020dded27c",
                        "key": "0xe2e1b0aad7b85c21c251e919315ab8d63ddb595152dc23e5a6fabd2ecab571ff",
                        "prev": "0x0000000000000000000000000000000000000000000000000000000000000000"
                    },
                    {
                        "current": "0x000000000000000000000000000000000000000000000000000067a124b138cf",
                        "key": "0x231554ca30e30e3daf1985a58abe660eac42605fd6c849ff49b261c6a9f01b7d",
                        "prev": "0x000000000000000000000000000000000000000000000000000067a332900b4b"
                    }
                ],
                "storageVariables": [
                    {
                        "name": "balances",
                        "type": "mapping(address => uint256)",
                        "value": {
                            "pairs": [
                                {
                                    "key": "0x1fd73eb28485c7a3831e525cf80cd968b73b37f9",
                                    "value": {
                                        "current": "8822641276",
                                        "prev": "0",
                                        "typeTag": 1
                                    }
                                },
                                {
                                    "key": "0xba12222222228d8ba445958a75a0704d566bf2c8",
                                    "value": {
                                        "current": "113941802989775",
                                        "prev": "113950625631051",
                                        "typeTag": 1
                                    }
                                }
                            ],
                            "typeTag": 4
                        }
                    }
                ]
            },
            {
                "address": "0xba12222222228d8ba445958a75a0704d566bf2c8",
                "erc": "",
                "slots": [
                    {
                        "current": "0x00cfd54a0000000000000000027dc9b109790000005a99454ab03748888be4ce",
                        "key": "0xdad360429143266e84d45e4ffb78a3df8bd60b67b4ce9a854f42932c43ab81c2",
                        "prev": "0x00cfd54a0000000000000000027fd78fdbf50000005a4f48ad1b8d3b07a462e6"
                    }
                ],
                "storageVariables": [
                    {
                        "name": "_twoTokenPoolTokens",
                        "type": "mapping(bytes32 => struct TwoTokenPoolsBalance.TwoTokenPoolTokens)",
                        "value": {
                            "pairs": [
                                {
                                    "key": "0xe5769603af1c9ec809dd5cfbc7fee36e7f09a3e60002000000000000000000bf",
                                    "value": {
                                        "fields": [
                                            {
                                                "name": "balances",
                                                "type": "mapping(bytes32 => struct TwoTokenPoolsBalance.TwoTokenPoolBalances)",
                                                "value": {
                                                    "pairs": [
                                                        {
                                                            "key": "0xe0fed2c213c6487bf491dc813e5580454d19c308370c7ffed64b1ec3faf68da6",
                                                            "value": {
                                                                "fields": [
                                                                    {
                                                                        "name": "sharedCash",
                                                                        "type": "bytes32",
                                                                        "value": {
                                                                            "current": "0x00cfd54a0000000000000000027dc9b109790000005a99454ab03748888be4ce",
                                                                            "prev": "0x00cfd54a0000000000000000027fd78fdbf50000005a4f48ad1b8d3b07a462e6",
                                                                            "typeTag": 1
                                                                        }
                                                                    }
                                                                ],
                                                                "typeTag": 3
                                                            }
                                                        }
                                                    ],
                                                    "typeTag": 4
                                                }
                                            }
                                        ],
                                        "typeTag": 3
                                    }
                                }
                            ],
                            "typeTag": 4
                        }
                    }
                ]
            }
        ]
    }
}