{
    "balance_change": {
        "balanceChanges": [
            {
                "account": "0xdc262671beb2b9a5f61efde29389709a246bbea0",
                "assets": [
                    {
                        "address": "0xa33e729bf4fdeb868b534e1f20523463d9c46bee",
                        "amount": "896.778569",
                        "iconUrl": "",
                        "isERC1155": false,
                        "isERC721": false,
                        "sign": false,
                        "value": ""
                    }
                ]
            },
            {
                "account": "0x96dd6ee687d8f93e6abc8605abb1f6292ac73774",
                "assets": [
                    {
                        "address": "0xa33e729bf4fdeb868b534e1f20523463d9c46bee",
                        "amount": "896.778569",
                        "iconUrl": "",
                        "isERC1155": false,
                        "isERC721": false,
                        "sign": true,
                        "value": ""
                    }
                ]
            }
        ]
    },
    "profile": {
        "basic_info": {
            "baseFee": "",
            "blockNumber": 4180846,
            "callData": "0xa9059cbb00000000000000000000000096dd6ee687d8f93e6abc8605abb1f6292ac7377400000000000000000000000000000000000000000000000000000827f9ae3390",
            "debugEnable": true,
            "errorInfo": "",
            "eventCount": 1,
            "feeRecipient": "0x2a65aca4d5fc5b5c859090a6c34d164135398226",
            "formatValue": "0",
            "gasLimit": 90000,
            "gasPrice": "21",
            "gasUsed": 37356,
            "intTxnCount": 0,
            "internalRevert": false,
            "internalRevertMessage": "",
            "isContractCreation": false,
            "isFlashloan": false,
            "maxFee": "",
            "nonce": 7864,
            "overwritedBlockNumber": -1,
            "priorityFee": "",
            "receiver": "0xa33e729bf4fdeb868b534e1f20523463d9c46bee",
            "revertMessage": "",
            "sender": "0xdc262671beb2b9a5f61efde29389709a246bbea0",
            "simulationEnable": true,
            "sourceTxnHash": "0xcbf7742ac15131a140e4ddf2c0754f40303b9b87732fbc78121a4b0da8347fa2",
            "status": true,
            "timestamp": "2017-08-20T07:42:53Z",
            "transactionFee": "0.000784476",
            "txnHash": "0xcbf7742ac15131a140e4ddf2c0754f40303b9b87732fbc78121a4b0da8347fa2",
            "txnIndex": 81,
            "type": 0,
            "value": "0"
        },
        "fund_flow": [
            {
                "amount": "896.778569",
                "from": "0xdc262671beb2b9a5f61efde29389709a246bbea0",
                "id": 1,
                "isERC1155": false,
                "isERC721": false,
                "isReverted": false,
                "order": 1,
                "to": "0x96dd6ee687d8f93e6abc8605abb1f6292ac73774",
                "token": "0xa33e729bf4fdeb868b534e1f20523463d9c46bee"
            }
        ],
        "token_infos": [
            {
                "address": "0xa33e729bf4fdeb868b534e1f20523463d9c46bee",
                "decimals": 10
            },
            {
                "address": "0xc02aaa39b223fe8d0a0e5c4f27ead9083c756cc2",
                "decimals": 18
            },
            {
                "address": "0xeeeeeeeeeeeeeeeeeeeeeeeeeeeeeeeeeeeeeeee",
                "decimals": 18
            }
        ]
    },
    "address_label": {
        "labels": [
            {
                "address": "0xeeeeeeeeeeeeeeeeeeeeeeeeeeeeeeeeeeeeeeee",
                "label": "Ether"
            },
            {
                "address": "0xa33e729bf4fdeb868b534e1f20523463d9c46bee",
                "label": "ICOCoin"
            },
            {
                "address": "0x0000000000000000000000000000000000000001",
                "label": "Precompiled"
            },
            {
                "address": "0x0000000000000000000000000000000000000002",
                "label": "Precompiled"
            },
            {
                "address": "0x0000000000000000000000000000000000000003",
                "label": "Precompiled"
            },
            {
                "address": "0x0000000000000000000000000000000000000004",
                "label": "Precompiled"
            }
        ]
    },
    "trace": {
        "accountLabels": null,
        "dataMap": {
            "-1": {
                "invocation": {
                    "address": "0xdc262671beb2b9a5f61efde29389709a246bbea0",
                    "callData": "",
                    "decodedMethod": null,
                    "errorInfo": "",
                    "fromAddress": "",
                    "gasUsed": 0,
                    "id": -1,
                    "methodDecoded": false,
                    "operation": "",
                    "output": "",
                    "revert": false,
                    "revertMessage": "",
                    "selector": "",
                    "status": false,
                    "value": ""
                },
                "nodeType": 0
            },
            "0": {
                "invocation": {
                    "address": "0xa33e729bf4fdeb868b534e1f20523463d9c46bee",
                    "callData": "0x00000000000000000000000096dd6ee687d8f93e6abc8605abb1f6292ac7377400000000000000000000000000000000000000000000000000000827f9ae3390",
                    "decodedMethod": {
                        "callParams": [
                            {
                                "name": "_to",
                                "type": "address",
                                "value": "0x96dd6ee687d8f93e6abc8605abb1f6292ac73774"
                            },
                            {
                                "decimalAvailable": true,
                                "name": "_value",
                                "type": "uint256",
                                "value": "8,967,785,690,000"
                            }
                        ],
                        "constructorArguments": "",
                        "name": "transfer",
                        "returnParams": [],
                        "signature": "transfer(address,uint256)"
                    },
                    "errorInfo": "",
                    "fromAddress": "0xdc262671beb2b9a5f61efde29389709a246bbea0",
                    "gasUsed": 37356,
                    "id": 0,
                    "methodDecoded": true,
                    "operation": "CALL",
                    "output": "",
                    "revert": false,
                    "revertMessage": "",
                    "selector": "0xa9059cbb",
                    "status": true,
                    "value": "0"
                },
                "nodeType": 0
            },
            "1": {
                "event": {
                    "contract": "0xa33e729bf4fdeb868b534e1f20523463d9c46bee",
                    "decodedLog": {
                        "name": "Transfer",
                        "params": [
                            {
                                "name": "from",
                                "type": "address",
                                "value": "0xdc262671beb2b9a5f61efde29389709a246bbea0"
                            },
                            {
                                "name": "to",
                                "type": "address",
                                "value": "0x96dd6ee687d8f93e6abc8605abb1f6292ac73774"
                            },
                            {
                                "decimalAvailable": true,
                                "name": "value",
                                "type": "uint256",
                                "value": "8,967,785,690,000"
                            }
                        ],
                        "signature": "Transfer(address,address,uint256)"
                    },
                    "id": 1,
                    "logData": "0x00000000000000000000000000000000000000000000000000000827f9ae3390",
                    "logDecoded": true,
                    "operation": "EVENT",
                    "revert": false,
                    "status": true,
                    "topics": [
                        "0xddf252ad1be2c89b69c2b068fc378daa952ba7f163c4a11628f55a4df523b3ef",
                        "0x000000000000000000000000dc262671beb2b9a5f61efde29389709a246bbea0",
                        "0x00000000000000000000000096dd6ee687d8f93e6abc8605abb1f6292ac73774"
                    ]
                },
                "nodeType": 1
            }
        },
        "gasFlame": [
            {
                "children": [
                    {
                        "children": [
                            {
                                "children": [],
                                "depth": 0,
                                "name": "Initial Gas",
                                "value": 23192
                            },
                            {
                                "children": [],
                                "depth": 0,
                                "name": "Executed Gas",
                                "value": 14164
                            }
                        ],
                        "depth": -1,
                        "name": "Actual Gas Used",
                        "value": 37356
                    },
                    {
                        "children": [],
                        "depth": -1,
                        "name": "Refunded Gas",
                        "value": 0
                    }
                ],
                "depth": -2,
                "name": "Total Gas",
                "value": 37356
            }
        ],
        "isConfirmed": true,
        "mainTrace": [
            {
                "children": [
                    {
                        "children": [
                            {
                                "children": [],
                                "depth": 1,
                                "id": 1,
                                "order": 1
                            }
                        ],
                        "depth": 0,
                        "id": 0,
                        "order": 0
                    }
                ],
                "depth": -1,
                "id": -1,
                "order": -1
            }
        ],
        "mainTraceNodeCount": 2,
        "parentIdMap": {
            "0": -1,
            "1": 0
        },
        "tidyTrace": [
            {
                "children": [
                    {
                        "children": [
                            {
                                "children": [],
                                "depth": 1,
                                "id": 1,
                                "order": 1
                            }
                        ],
                        "depth": 0,
                        "id": 0,
                        "order": 0
                    }
                ],
                "depth": -1,
                "id": -1,
                "order": -1
            }
        ],
        "tidyTraceNodeCount": 2
    },
    "state_change": {
        "stateChanges": [
            {
                "address": "0xa33e729bf4fdeb868b534e1f20523463d9c46bee",
                "erc": "",
                "slots": [
                    {
                        "current": "0x00000000000000000000000000000000000000000000000000001d54e17f6180",
                        "key": "0x525d54757b57d5f1f8ae9a5b3fb55db599b336fca6e73f303a51a22fa67a40fd",
                        "prev": "0x0000000000000000000000000000000000000000000000000000152ce7d12df0"
                    },
                    {
                        "current": "0x00000000000000000000000000000000000000000000000000573546d5bf2590",
                        "key": "0x0480e560d3b5a602e1b0d0a8f56ed6f42309ef309e255fbda407282050678080",
                        "prev": "0x00000000000000000000000000000000000000000000000000573d6ecf6d5920"
                    }
                ],
                "storageVariables": []
            }
        ]
    }
}