{
    "balance_change": {
        "balanceChanges": [
            {
                "account": "0x09486a264e87509151e424fb2933141f6d576fae",
                "assets": [
                    {
                        "address": "0xd3ebdaea9aeac98de723f640bce4aa07e2e44192",
                        "amount": "343",
                        "iconUrl": "",
                        "isERC1155": false,
                        "isERC721": false,
                        "sign": false,
                        "value": ""
                    }
                ]
            },
            {
                "account": "0x7222a0582cde55e7d67dd3e80d341d542b412c7a",
                "assets": [
                    {
                        "address": "0xd3ebdaea9aeac98de723f640bce4aa07e2e44192",
                        "amount": "343",
                        "iconUrl": "",
                        "isERC1155": false,
                        "isERC721": false,
                        "sign": true,
                        "value": ""
                    }
                ]
            }
        ]
    },
    "profile": {
        "basic_info": {
            "baseFee": "",
            "blockNumber": 7910572,
            "callData": "0xa9059cbb0000000000000000000000007222a0582cde55e7d67dd3e80d341d542b412c7a0000000000000000000000000000000000000000000000129814cab546fc0000",
            "debugEnable": true,
            "errorInfo": "",
            "eventCount": 1,
            "feeRecipient": "0x5a0b54d5dc17e0aadc383d2db43b0a0d3e029c4c",
            "formatValue": "0",
            "gasLimit": 100000,
            "gasPrice": "10",
            "gasUsed": 21852,
            "intTxnCount": 0,
            "internalRevert": false,
            "internalRevertMessage": "",
            "isContractCreation": false,
            "isFlashloan": false,
            "maxFee": "",
            "nonce": 1,
            "overwritedBlockNumber": -1,
            "priorityFee": "",
            "receiver": "0xd3ebdaea9aeac98de723f640bce4aa07e2e44192",
            "revertMessage": "",
            "sender": "0x09486a264e87509151e424fb2933141f6d576fae",
            "simulationEnable": true,
            "sourceTxnHash": "0xcbb9b65fbc902323f87fb573242095d92e2780dfcd1d7b62fd66361d819a21e2",
            "status": true,
            "timestamp": "2019-06-07T06:55:15Z",
            "transactionFee": "0.00021852",
            "txnHash": "0xcbb9b65fbc902323f87fb573242095d92e2780dfcd1d7b62fd66361d819a21e2",
            "txnIndex": 27,
            "type": 0,
            "value": "0"
        },
        "fund_flow": [
            {
                "amount": "343",
                "from": "0x09486a264e87509151e424fb2933141f6d576fae",
                "id": 1,
                "isERC1155": false,
                "isERC721": false,
                "isReverted": false,
                "order": 1,
                "to": "0x7222a0582cde55e7d67dd3e80d341d542b412c7a",
                "token": "0xd3ebdaea9aeac98de723f640bce4aa07e2e44192"
            }
        ],
        "token_infos": [
            {
                "address": "0xd3ebdaea9aeac98de723f640bce4aa07e2e44192",
                "decimals": 18
            },
            {
                "address": "0xeeeeeeeeeeeeeeeeeeeeeeeeeeeeeeeeeeeeeeee",
                "decimals": 18
            },
            {
                "address": "0xc02aaa39b223fe8d0a0e5c4f27ead9083c756cc2",
                "decimals": 18
            }
        ]
    },
    "address_label": {
        "labels": [
            {
                "address": "0x0000000000000000000000000000000000000003",
                "label": "Precompiled"
            },
            {
                "address": "0x0000000000000000000000000000000000000004",
                "label": "Precompiled"
            },
            {
                "address": "0xeeeeeeeeeeeeeeeeeeeeeeeeeeeeeeeeeeeeeeee",
                "label": "Ether"
            },
            {
                "address": "0xd3ebdaea9aeac98de723f640bce4aa07e2e44192",
                "label": "SCF Token (SCF)"
            },
            {
                "address": "0x0000000000000000000000000000000000000001",
                "label": "Precompiled"
            },
            {
                "address": "0x0000000000000000000000000000000000000002",
                "label": "Precompiled"
            }
        ]
    },
    "trace": {
        "accountLabels": null,
        "dataMap": {
            "-1": {
                "invocation": {
                    "address": "0x09486a264e87509151e424fb2933141f6d576fae",
                    "callData": "",
                    "decodedMethod": null,
                    "errorInfo": "",
                    "fromAddress": "",
                    "gasUsed": 0,
                    "id": -1,
                    "methodDecoded": false,
                    "operation": "",
                    "output": "",
                    "revert": false,
                    "revertMessage": "",
                    "selector": "",
                    "status": false,
                    "value": ""
                },
                "nodeType": 0
            },
            "0": {
                "invocation": {
                    "address": "0xd3ebdaea9aeac98de723f640bce4aa07e2e44192",
                    "callData": "0x0000000000000000000000007222a0582cde55e7d67dd3e80d341d542b412c7a0000000000000000000000000000000000000000000000129814cab546fc0000",
                    "decodedMethod": {
                        "callParams": [
                            {
                                "name": "_to",
                                "type": "address",
                                "value": "0x7222a0582cde55e7d67dd3e80d341d542b412c7a"
                            },
                            {
                                "decimalAvailable": true,
                                "name": "_value",
                                "type": "uint256",
                                "value": "343,000,000,000,000,000,000"
                            }
                        ],
                        "constructorArguments": "",
                        "name": "transfer",
                        "returnParams": [
                            {
                                "name": "",
                                "type": "bool",
                                "value": true
                            }
                        ],
                        "signature": "transfer(address,uint256)"
                    },
                    "errorInfo": "",
                    "fromAddress": "0x09486a264e87509151e424fb2933141f6d576fae",
                    "gasUsed": 21852,
                    "id": 0,
                    "methodDecoded": true,
                    "operation": "CALL",
                    "output": "0x0000000000000000000000000000000000000000000000000000000000000001",
                    "revert": false,
                    "revertMessage": "",
                    "selector": "0xa9059cbb",
                    "status": true,
                    "value": "0"
                },
                "nodeType": 0
            },
            "1": {
                "event": {
                    "contract": "0xd3ebdaea9aeac98de723f640bce4aa07e2e44192",
                    "decodedLog": {
                        "name": "Transfer",
                        "params": [
                            {
                                "name": "_from",
                                "type": "address",
                                "value": "0x09486a264e87509151e424fb2933141f6d576fae"
                            },
                            {
                                "name": "_to",
                                "type": "address",
                                "value": "0x7222a0582cde55e7d67dd3e80d341d542b412c7a"
                            },
                            {
                                "decimalAvailable": true,
                                "name": "_value",
                                "type": "uint256",
                                "value": "343,000,000,000,000,000,000"
                            }
                        ],
                        "signature": "Transfer(address,address,uint256)"
                    },
                    "id": 1,
                    "logData": "0x0000000000000000000000000000000000000000000000129814cab546fc0000",
                    "logDecoded": true,
                    "operation": "EVENT",
                    "revert": false,
                    "status": true,
                    "topics": [
                        "0xddf252ad1be2c89b69c2b068fc378daa952ba7f163c4a11628f55a4df523b3ef",
                        "0x00000000000000000000000009486a264e87509151e424fb2933141f6d576fae",
                        "0x0000000000000000000000007222a0582cde55e7d67dd3e80d341d542b412c7a"
                    ]
                },
                "nodeType": 1
            }
        },
        "gasFlame": [
            {
                "children": [
                    {
                        "children": [
                            {
                                "children": [],
                                "depth": 0,
                                "name": "Initial Gas",
                                "value": 23256
                            },
                            {
                                "children": [],
                                "depth": 0,
                                "name": "Executed Gas",
                                "value": 13596
                            }
                        ],
                        "depth": -1,
                        "name": "Actual Gas Used",
                        "value": 21852
                    },
                    {
                        "children": [],
                        "depth": -1,
                        "name": "Refunded Gas",
                        "value": 15000
                    }
                ],
                "depth": -2,
                "name": "Total Gas",
                "value": 36852
            }
        ],
        "isConfirmed": true,
        "mainTrace": [
            {
                "children": [
                    {
                        "children": [
                            {
                                "children": [],
                                "depth": 1,
                                "id": 1,
                                "order": 1
                            }
                        ],
                        "depth": 0,
                        "id": 0,
                        "order": 0
                    }
                ],
                "depth": -1,
                "id": -1,
                "order": -1
            }
        ],
        "mainTraceNodeCount": 2,
        "parentIdMap": {
            "0": -1,
            "1": 0
        },
        "tidyTrace": [
            {
                "children": [
                    {
                        "children": [
                            {
                                "children": [],
                                "depth": 1,
                                "id": 1,
                                "order": 1
                            }
                        ],
                        "depth": 0,
                        "id": 0,
                        "order": 0
                    }
                ],
                "depth": -1,
                "id": -1,
                "order": -1
            }
        ],
        "tidyTraceNodeCount": 2
    },
    "state_change": {
        "stateChanges": [
            {
                "address": "0xd3ebdaea9aeac98de723f640bce4aa07e2e44192",
                "erc": "ERC-20",
                "slots": [
                    {
                        "current": "0x0000000000000000000000000000000000000000000000000000000000000000",
                        "key": "0x9d9df67c49d8bb72a1e15c69e87c0f1f8ff3f3a3cd4bbcdbc22916532bdece76",
                        "prev": "0x0000000000000000000000000000000000000000000000129814cab546fc0000"
                    },
                    {
                        "current": "0x00000000000000000000000000000000000000000000e0534fd3c35a4644e244",
                        "key": "0xb23fc2f1ca5cb3d88bfba8060d7734b4099d8bd823ef976a817228f4e7af22d8",
                        "prev": "0x00000000000000000000000000000000000000000000e040b7bef8a4ff48e244"
                    }
                ],
                "storageVariables": [
                    {
                        "name": "balances",
                        "type": "mapping(address => uint256)",
                        "value": {
                            "pairs": [
                                {
                                    "key": "0x09486a264e87509151e424fb2933141f6d576fae",
                                    "value": {
                                        "current": "0",
                                        "prev": "343000000000000000000",
                                        "typeTag": 1
                                    }
                                },
                                {
                                    "key": "0x7222a0582cde55e7d67dd3e80d341d542b412c7a",
                                    "value": {
                                        "current": "1059346924076859996299844",
                                        "prev": "1059003924076859996299844",
                                        "typeTag": 1
                                    }
                                }
                            ],
                            "typeTag": 4
                        }
                    }
                ]
            }
        ]
    }
}