{
    "balance_change": {
        "balanceChanges": [
            {
                "account": "0xed4a2e808430f2ce29f0c17b1d22d71e54509b27",
                "assets": [
                    {
                        "address": "0xa68920f6d3c996ac3c232e4e93914e9d76150735",
                        "amount": "188",
                        "iconUrl": "",
                        "isERC1155": false,
                        "isERC721": false,
                        "sign": false,
                        "value": ""
                    }
                ]
            },
            {
                "account": "0x492884021ad3d41e39c9bc985b3f105a02ce3a8e",
                "assets": [
                    {
                        "address": "0xa68920f6d3c996ac3c232e4e93914e9d76150735",
                        "amount": "188",
                        "iconUrl": "",
                        "isERC1155": false,
                        "isERC721": false,
                        "sign": true,
                        "value": ""
                    }
                ]
            }
        ]
    },
    "profile": {
        "basic_info": {
            "baseFee": "",
            "blockNumber": 6035076,
            "callData": "0xa9059cbb000000000000000000000000492884021ad3d41e39c9bc985b3f105a02ce3a8e00000000000000000000000000000000000000000000000a31062beeed700000",
            "debugEnable": true,
            "errorInfo": "",
            "eventCount": 1,
            "feeRecipient": "0x5a0b54d5dc17e0aadc383d2db43b0a0d3e029c4c",
            "formatValue": "0",
            "gasLimit": 90000,
            "gasPrice": "2",
            "gasUsed": 22884,
            "intTxnCount": 0,
            "internalRevert": false,
            "internalRevertMessage": "",
            "isContractCreation": false,
            "isFlashloan": false,
            "maxFee": "",
            "nonce": 2,
            "overwritedBlockNumber": -1,
            "priorityFee": "",
            "receiver": "0xa68920f6d3c996ac3c232e4e93914e9d76150735",
            "revertMessage": "",
            "sender": "0xed4a2e808430f2ce29f0c17b1d22d71e54509b27",
            "simulationEnable": true,
            "sourceTxnHash": "0xcb4f90c42caf41f16da492fe10590d3834f7e3c4c529f53ebe8c23c2b73a77e7",
            "status": true,
            "timestamp": "2018-07-26T19:35:28Z",
            "transactionFee": "0.000045768",
            "txnHash": "0xcb4f90c42caf41f16da492fe10590d3834f7e3c4c529f53ebe8c23c2b73a77e7",
            "txnIndex": 81,
            "type": 0,
            "value": "0"
        },
        "fund_flow": [
            {
                "amount": "188",
                "from": "0xed4a2e808430f2ce29f0c17b1d22d71e54509b27",
                "id": 1,
                "isERC1155": false,
                "isERC721": false,
                "isReverted": false,
                "order": 1,
                "to": "0x492884021ad3d41e39c9bc985b3f105a02ce3a8e",
                "token": "0xa68920f6d3c996ac3c232e4e93914e9d76150735"
            }
        ],
        "token_infos": [
            {
                "address": "0xa68920f6d3c996ac3c232e4e93914e9d76150735",
                "decimals": 18
            },
            {
                "address": "0xc02aaa39b223fe8d0a0e5c4f27ead9083c756cc2",
                "decimals": 18
            },
            {
                "address": "0xeeeeeeeeeeeeeeeeeeeeeeeeeeeeeeeeeeeeeeee",
                "decimals": 18
            }
        ]
    },
    "address_label": {
        "labels": [
            {
                "address": "0xa68920f6d3c996ac3c232e4e93914e9d76150735",
                "label": "\u6c11\u5bbf\u901a (MST)"
            },
            {
                "address": "0x0000000000000000000000000000000000000001",
                "label": "Precompiled"
            },
            {
                "address": "0x0000000000000000000000000000000000000002",
                "label": "Precompiled"
            },
            {
                "address": "0x0000000000000000000000000000000000000003",
                "label": "Precompiled"
            },
            {
                "address": "0x0000000000000000000000000000000000000004",
                "label": "Precompiled"
            },
            {
                "address": "0xeeeeeeeeeeeeeeeeeeeeeeeeeeeeeeeeeeeeeeee",
                "label": "Ether"
            }
        ]
    },
    "trace": {
        "accountLabels": null,
        "dataMap": {
            "-1": {
                "invocation": {
                    "address": "0xed4a2e808430f2ce29f0c17b1d22d71e54509b27",
                    "callData": "",
                    "decodedMethod": null,
                    "errorInfo": "",
                    "fromAddress": "",
                    "gasUsed": 0,
                    "id": -1,
                    "methodDecoded": false,
                    "operation": "",
                    "output": "",
                    "revert": false,
                    "revertMessage": "",
                    "selector": "",
                    "status": false,
                    "value": ""
                },
                "nodeType": 0
            },
            "0": {
                "invocation": {
                    "address": "0xa68920f6d3c996ac3c232e4e93914e9d76150735",
                    "callData": "0x000000000000000000000000492884021ad3d41e39c9bc985b3f105a02ce3a8e00000000000000000000000000000000000000000000000a31062beeed700000",
                    "decodedMethod": {
                        "callParams": [
                            {
                                "name": "_to",
                                "type": "address",
                                "value": "0x492884021ad3d41e39c9bc985b3f105a02ce3a8e"
                            },
                            {
                                "decimalAvailable": true,
                                "name": "_value",
                                "type": "uint256",
                                "value": "188,000,000,000,000,000,000"
                            }
                        ],
                        "constructorArguments": "",
                        "name": "transfer",
                        "returnParams": [],
                        "signature": "transfer(address,uint256)"
                    },
                    "errorInfo": "",
                    "fromAddress": "0xed4a2e808430f2ce29f0c17b1d22d71e54509b27",
                    "gasUsed": 22884,
                    "id": 0,
                    "methodDecoded": true,
                    "operation": "CALL",
                    "output": "",
                    "revert": false,
                    "revertMessage": "",
                    "selector": "0xa9059cbb",
                    "status": true,
                    "value": "0"
                },
                "nodeType": 0
            },
            "1": {
                "event": {
                    "contract": "0xa68920f6d3c996ac3c232e4e93914e9d76150735",
                    "decodedLog": {
                        "name": "Transfer",
                        "params": [
                            {
                                "name": "from",
                                "type": "address",
                                "value": "0xed4a2e808430f2ce29f0c17b1d22d71e54509b27"
                            },
                            {
                                "name": "to",
                                "type": "address",
                                "value": "0x492884021ad3d41e39c9bc985b3f105a02ce3a8e"
                            },
                            {
                                "decimalAvailable": true,
                                "name": "value",
                                "type": "uint256",
                                "value": "188,000,000,000,000,000,000"
                            }
                        ],
                        "signature": "Transfer(address,address,uint256)"
                    },
                    "id": 1,
                    "logData": "0x00000000000000000000000000000000000000000000000a31062beeed700000",
                    "logDecoded": true,
                    "operation": "EVENT",
                    "revert": false,
                    "status": true,
                    "topics": [
                        "0xddf252ad1be2c89b69c2b068fc378daa952ba7f163c4a11628f55a4df523b3ef",
                        "0x000000000000000000000000ed4a2e808430f2ce29f0c17b1d22d71e54509b27",
                        "0x000000000000000000000000492884021ad3d41e39c9bc985b3f105a02ce3a8e"
                    ]
                },
                "nodeType": 1
            }
        },
        "gasFlame": [
            {
                "children": [
                    {
                        "children": [
                            {
                                "children": [],
                                "depth": 0,
                                "name": "Initial Gas",
                                "value": 23256
                            },
                            {
                                "children": [],
                                "depth": 0,
                                "name": "Executed Gas",
                                "value": 14628
                            }
                        ],
                        "depth": -1,
                        "name": "Actual Gas Used",
                        "value": 22884
                    },
                    {
                        "children": [],
                        "depth": -1,
                        "name": "Refunded Gas",
                        "value": 15000
                    }
                ],
                "depth": -2,
                "name": "Total Gas",
                "value": 37884
            }
        ],
        "isConfirmed": true,
        "mainTrace": [
            {
                "children": [
                    {
                        "children": [
                            {
                                "children": [],
                                "depth": 1,
                                "id": 1,
                                "order": 1
                            }
                        ],
                        "depth": 0,
                        "id": 0,
                        "order": 0
                    }
                ],
                "depth": -1,
                "id": -1,
                "order": -1
            }
        ],
        "mainTraceNodeCount": 2,
        "parentIdMap": {
            "0": -1,
            "1": 0
        },
        "tidyTrace": [
            {
                "children": [
                    {
                        "children": [
                            {
                                "children": [],
                                "depth": 1,
                                "id": 1,
                                "order": 1
                            }
                        ],
                        "depth": 0,
                        "id": 0,
                        "order": 0
                    }
                ],
                "depth": -1,
                "id": -1,
                "order": -1
            }
        ],
        "tidyTraceNodeCount": 2
    },
    "state_change": {
        "stateChanges": [
            {
                "address": "0xa68920f6d3c996ac3c232e4e93914e9d76150735",
                "erc": "",
                "slots": [
                    {
                        "current": "0x0000000000000000000000000000000000000000000000000000000000000000",
                        "key": "0xc7b6306d81348c6c874532bb6ff783fad07efef1e097a82b15708c0969324c8e",
                        "prev": "0x00000000000000000000000000000000000000000000000a31062beeed700000"
                    },
                    {
                        "current": "0x00000000000000000000000000000000000000000000430a451624e347300000",
                        "key": "0xb7e2f61946d13e9e80a9f5ac1ba7c0d4ecb6fcc52e4b33627f4654ad7fd6d821",
                        "prev": "0x000000000000000000000000000000000000000000004300140ff8f459c00000"
                    }
                ],
                "storageVariables": [
                    {
                        "name": "balanceOf",
                        "type": "mapping(address => uint256)",
                        "value": {
                            "pairs": [
                                {
                                    "key": "0x492884021ad3d41e39c9bc985b3f105a02ce3a8e",
                                    "value": {
                                        "current": "316588000000000000000000",
                                        "prev": "316400000000000000000000",
                                        "typeTag": 1
                                    }
                                },
                                {
                                    "key": "0xed4a2e808430f2ce29f0c17b1d22d71e54509b27",
                                    "value": {
                                        "current": "0",
                                        "prev": "188000000000000000000",
                                        "typeTag": 1
                                    }
                                }
                            ],
                            "typeTag": 4
                        }
                    }
                ]
            }
        ]
    }
}