{
    "balance_change": {
        "balanceChanges": [
            {
                "account": "0xff6b1cdfd2d3e37977d7938aa06b6d89d6675e27",
                "assets": [
                    {
                        "address": "0xeeeeeeeeeeeeeeeeeeeeeeeeeeeeeeeeeeeeeeee",
                        "amount": "5.57679807",
                        "iconUrl": "https://assets.blocksec.com/image/1663669189317-3.png",
                        "isERC1155": false,
                        "isERC721": false,
                        "sign": false,
                        "value": ""
                    }
                ]
            },
            {
                "account": "0x3edb036bccbc98f3c7b9b9fc04b3f8ed5aeba41e",
                "assets": [
                    {
                        "address": "0xeeeeeeeeeeeeeeeeeeeeeeeeeeeeeeeeeeeeeeee",
                        "amount": "1.36256475",
                        "iconUrl": "https://assets.blocksec.com/image/1663669189317-3.png",
                        "isERC1155": false,
                        "isERC721": false,
                        "sign": true,
                        "value": ""
                    }
                ]
            },
            {
                "account": "0x4077e521612184e5650520460f13e4aa1f0ead2f",
                "assets": [
                    {
                        "address": "0xeeeeeeeeeeeeeeeeeeeeeeeeeeeeeeeeeeeeeeee",
                        "amount": "3.4283173",
                        "iconUrl": "https://assets.blocksec.com/image/1663669189317-3.png",
                        "isERC1155": false,
                        "isERC721": false,
                        "sign": true,
                        "value": ""
                    }
                ]
            },
            {
                "account": "0x7aa0f80182b3701f1525c7b9bb7c1873f3eac493",
                "assets": [
                    {
                        "address": "0xeeeeeeeeeeeeeeeeeeeeeeeeeeeeeeeeeeeeeeee",
                        "amount": "0.78591602",
                        "iconUrl": "https://assets.blocksec.com/image/1663669189317-3.png",
                        "isERC1155": false,
                        "isERC721": false,
                        "sign": true,
                        "value": ""
                    }
                ]
            }
        ]
    },
    "profile": {
        "basic_info": {
            "baseFee": "",
            "blockNumber": 6923557,
            "callData": "0xc946d1060000000000000000000000000000000000000000000000000000000000001f7f0000000000000000000000006a82ed8dbdd8498903d99631a0d1291743c77a7300000000000000000000000000000000000000000000000000000000000000e0000000000000000000000000000000000000000000000000000000000000016000000000000000000000000000000000000000000000000000000000000001e0000000000000000000000000000000000000000000000000000000000000026000000000000000000000000000000000000000000000000000000000000002e000000000000000000000000000000000000000000000000000000000000000030000000000000000000000004077e521612184e5650520460f13e4aa1f0ead2f0000000000000000000000007aa0f80182b3701f1525c7b9bb7c1873f3eac4930000000000000000000000003edb036bccbc98f3c7b9b9fc04b3f8ed5aeba41e000000000000000000000000000000000000000000000000000000000000000300000000000000000000000000000000000000000000000000000000000000020000000000000000000000000000000000000000000000000000000000000002000000000000000000000000000000000000000000000000000000000000000000000000000000000000000000000000000000000000000000000000000000030000000000000000000000004077e521612184e5650520460f13e4aa1f0ead2f0000000000000000000000007aa0f80182b3701f1525c7b9bb7c1873f3eac4930000000000000000000000003edb036bccbc98f3c7b9b9fc04b3f8ed5aeba41e000000000000000000000000000000000000000000000000000000000000000300000000000000000000000000000000000000000000000000000000000000000000000000000000000000000000000000000000000000000000000000000000000000000000000000000000000000000000000000000000000000000000000000000000000000000000000000000000000000000000000000000000000000030000000000000000000000000000000000000000000000002f93d46b9bd388000000000000000000000000000000000000000000000000000ae82274cb63880000000000000000000000000000000000000000000000000012e8cd6bc3380c00",
            "debugEnable": true,
            "errorInfo": "",
            "eventCount": 3,
            "feeRecipient": "0xea674fdde714fd979de3edf0f56aa9716b898ec8",
            "formatValue": "0",
            "gasLimit": 111098,
            "gasPrice": "30",
            "gasUsed": 111098,
            "intTxnCount": 8,
            "internalRevert": false,
            "internalRevertMessage": "",
            "isContractCreation": false,
            "isFlashloan": false,
            "maxFee": "",
            "nonce": 8702,
            "overwritedBlockNumber": -1,
            "priorityFee": "",
            "receiver": "0xff6b1cdfd2d3e37977d7938aa06b6d89d6675e27",
            "revertMessage": "",
            "sender": "0xa9e6fe2551a24add531a15b8a29c32f645834d38",
            "simulationEnable": true,
            "sourceTxnHash": "0xcc90aa410e568697349c7af8169248d6c2f36f3c91c31ed88d0e88d0e957106a",
            "status": true,
            "timestamp": "2018-12-20T23:57:03Z",
            "transactionFee": "0.00333294",
            "txnHash": "0xcc90aa410e568697349c7af8169248d6c2f36f3c91c31ed88d0e88d0e957106a",
            "txnIndex": 15,
            "type": 0,
            "value": "0"
        },
        "fund_flow": [
            {
                "amount": "3.4283173",
                "from": "0xff6b1cdfd2d3e37977d7938aa06b6d89d6675e27",
                "id": 1,
                "isERC1155": false,
                "isERC721": false,
                "isReverted": false,
                "order": 1,
                "to": "0x4077e521612184e5650520460f13e4aa1f0ead2f",
                "token": "0xeeeeeeeeeeeeeeeeeeeeeeeeeeeeeeeeeeeeeeee"
            },
            {
                "amount": "0.78591602",
                "from": "0xff6b1cdfd2d3e37977d7938aa06b6d89d6675e27",
                "id": 2,
                "isERC1155": false,
                "isERC721": false,
                "isReverted": false,
                "order": 2,
                "to": "0x7aa0f80182b3701f1525c7b9bb7c1873f3eac493",
                "token": "0xeeeeeeeeeeeeeeeeeeeeeeeeeeeeeeeeeeeeeeee"
            },
            {
                "amount": "1.36256475",
                "from": "0xff6b1cdfd2d3e37977d7938aa06b6d89d6675e27",
                "id": 3,
                "isERC1155": false,
                "isERC721": false,
                "isReverted": false,
                "order": 3,
                "to": "0x3edb036bccbc98f3c7b9b9fc04b3f8ed5aeba41e",
                "token": "0xeeeeeeeeeeeeeeeeeeeeeeeeeeeeeeeeeeeeeeee"
            }
        ],
        "token_infos": [
            {
                "address": "0xc02aaa39b223fe8d0a0e5c4f27ead9083c756cc2",
                "decimals": 18
            },
            {
                "address": "0xeeeeeeeeeeeeeeeeeeeeeeeeeeeeeeeeeeeeeeee",
                "decimals": 18
            }
        ]
    },
    "address_label": {
        "labels": [
            {
                "address": "0xeeeeeeeeeeeeeeeeeeeeeeeeeeeeeeeeeeeeeeee",
                "label": "Ether"
            },
            {
                "address": "0x0000000000000000000000000000000000000002",
                "label": "Precompiled"
            },
            {
                "address": "0xff6b1cdfd2d3e37977d7938aa06b6d89d6675e27",
                "label": "Allbit 2"
            },
            {
                "address": "0x0000000000000000000000000000000000000001",
                "label": "Precompiled"
            },
            {
                "address": "0x0000000000000000000000000000000000000003",
                "label": "Precompiled"
            },
            {
                "address": "0x0000000000000000000000000000000000000004",
                "label": "Precompiled"
            }
        ]
    },
    "trace": {
        "accountLabels": null,
        "dataMap": {
            "-1": {
                "invocation": {
                    "address": "0xa9e6fe2551a24add531a15b8a29c32f645834d38",
                    "callData": "",
                    "decodedMethod": null,
                    "errorInfo": "",
                    "fromAddress": "",
                    "gasUsed": 0,
                    "id": -1,
                    "methodDecoded": false,
                    "operation": "",
                    "output": "",
                    "revert": false,
                    "revertMessage": "",
                    "selector": "",
                    "status": false,
                    "value": ""
                },
                "nodeType": 0
            },
            "0": {
                "invocation": {
                    "address": "0xff6b1cdfd2d3e37977d7938aa06b6d89d6675e27",
                    "callData": "0x0000000000000000000000000000000000000000000000000000000000001f7f0000000000000000000000006a82ed8dbdd8498903d99631a0d1291743c77a7300000000000000000000000000000000000000000000000000000000000000e0000000000000000000000000000000000000000000000000000000000000016000000000000000000000000000000000000000000000000000000000000001e0000000000000000000000000000000000000000000000000000000000000026000000000000000000000000000000000000000000000000000000000000002e000000000000000000000000000000000000000000000000000000000000000030000000000000000000000004077e521612184e5650520460f13e4aa1f0ead2f0000000000000000000000007aa0f80182b3701f1525c7b9bb7c1873f3eac4930000000000000000000000003edb036bccbc98f3c7b9b9fc04b3f8ed5aeba41e000000000000000000000000000000000000000000000000000000000000000300000000000000000000000000000000000000000000000000000000000000020000000000000000000000000000000000000000000000000000000000000002000000000000000000000000000000000000000000000000000000000000000000000000000000000000000000000000000000000000000000000000000000030000000000000000000000004077e521612184e5650520460f13e4aa1f0ead2f0000000000000000000000007aa0f80182b3701f1525c7b9bb7c1873f3eac4930000000000000000000000003edb036bccbc98f3c7b9b9fc04b3f8ed5aeba41e000000000000000000000000000000000000000000000000000000000000000300000000000000000000000000000000000000000000000000000000000000000000000000000000000000000000000000000000000000000000000000000000000000000000000000000000000000000000000000000000000000000000000000000000000000000000000000000000000000000000000000000000000000030000000000000000000000000000000000000000000000002f93d46b9bd388000000000000000000000000000000000000000000000000000ae82274cb63880000000000000000000000000000000000000000000000000012e8cd6bc3380c00",
                    "decodedMethod": null,
                    "errorInfo": "",
                    "fromAddress": "0xa9e6fe2551a24add531a15b8a29c32f645834d38",
                    "gasUsed": 111098,
                    "id": 0,
                    "methodDecoded": false,
                    "operation": "CALL",
                    "output": "",
                    "revert": false,
                    "revertMessage": "",
                    "selector": "0xc946d106",
                    "status": true,
                    "value": "0"
                },
                "nodeType": 0
            },
            "1": {
                "invocation": {
                    "address": "0x0000000000000000000000000000000000000002",
                    "callData": "0xbdd8498903d99631a0d1291743c77a734077e521612184e5650520460f13e4aa1f0ead2f00000000000000000000000000000000000000000000000000000000000000024077e521612184e5650520460f13e4aa1f0ead2f00000000000000000000000000000000000000000000000000000000000000000000000000000000000000002f93d46b9bd38800",
                    "decodedMethod": {
                        "callParams": [
                            {
                                "name": "data",
                                "type": "bytes",
                                "value": "0x6a82ed8dbdd8498903d99631a0d1291743c77a734077e521612184e5650520460f13e4aa1f0ead2f00000000000000000000000000000000000000000000000000000000000000024077e521612184e5650520460f13e4aa1f0ead2f00000000000000000000000000000000000000000000000000000000000000000000000000000000000000002f93d46b9bd38800"
                            }
                        ],
                        "constructorArguments": "",
                        "name": "sha256hash",
                        "returnParams": [
                            {
                                "name": "hash",
                                "type": "bytes32",
                                "value": "0xe6b46057a3852224758531c50b0cd2d075ba86ac06c7d0c234d70c5aebae0605"
                            }
                        ],
                        "signature": "sha256hash(bytes)"
                    },
                    "errorInfo": "",
                    "fromAddress": "0xff6b1cdfd2d3e37977d7938aa06b6d89d6675e27",
                    "gasUsed": 120,
                    "id": 1,
                    "methodDecoded": true,
                    "operation": "CALL",
                    "output": "0xe6b46057a3852224758531c50b0cd2d075ba86ac06c7d0c234d70c5aebae0605",
                    "revert": false,
                    "revertMessage": "",
                    "selector": "0x6a82ed8d",
                    "status": true,
                    "value": "0"
                },
                "nodeType": 0
            },
            "10": {
                "invocation": {
                    "address": "0x7aa0f80182b3701f1525c7b9bb7c1873f3eac493",
                    "callData": "0x",
                    "decodedMethod": null,
                    "errorInfo": "",
                    "fromAddress": "0xff6b1cdfd2d3e37977d7938aa06b6d89d6675e27",
                    "gasUsed": 0,
                    "id": 10,
                    "methodDecoded": false,
                    "operation": "CALL",
                    "output": "",
                    "revert": false,
                    "revertMessage": "",
                    "selector": "fallback",
                    "status": true,
                    "value": "0.78591602"
                },
                "nodeType": 0
            },
            "11": {
                "invocation": {
                    "address": "0x3edb036bccbc98f3c7b9b9fc04b3f8ed5aeba41e",
                    "callData": "0x",
                    "decodedMethod": null,
                    "errorInfo": "",
                    "fromAddress": "0xff6b1cdfd2d3e37977d7938aa06b6d89d6675e27",
                    "gasUsed": 0,
                    "id": 11,
                    "methodDecoded": false,
                    "operation": "CALL",
                    "output": "",
                    "revert": false,
                    "revertMessage": "",
                    "selector": "fallback",
                    "status": true,
                    "value": "1.36256475"
                },
                "nodeType": 0
            },
            "2": {
                "event": {
                    "contract": "0xff6b1cdfd2d3e37977d7938aa06b6d89d6675e27",
                    "decodedLog": null,
                    "id": 2,
                    "logData": "0x0000000000000000000000000000000000000000000000000000000000001f7f00000000000000000000000000000000000000000000000000000000000000000000000000000000000000004077e521612184e5650520460f13e4aa1f0ead2f0000000000000000000000004077e521612184e5650520460f13e4aa1f0ead2f0000000000000000000000000000000000000000000000002f93d46b9bd38800e6b46057a3852224758531c50b0cd2d075ba86ac06c7d0c234d70c5aebae0605",
                    "logDecoded": false,
                    "operation": "EVENT",
                    "revert": false,
                    "status": true,
                    "topics": [
                        "0x17cddb8dde75955a33d85a3017219a3f7cdce52ab810927df56c2bc63bd9b125"
                    ]
                },
                "nodeType": 1
            },
            "3": {
                "invocation": {
                    "address": "0x0000000000000000000000000000000000000002",
                    "callData": "0xbdd8498903d99631a0d1291743c77a737aa0f80182b3701f1525c7b9bb7c1873f3eac49300000000000000000000000000000000000000000000000000000000000000027aa0f80182b3701f1525c7b9bb7c1873f3eac49300000000000000000000000000000000000000000000000000000000000000000000000000000000000000000ae82274cb638800",
                    "decodedMethod": {
                        "callParams": [
                            {
                                "name": "data",
                                "type": "bytes",
                                "value": "0x6a82ed8dbdd8498903d99631a0d1291743c77a737aa0f80182b3701f1525c7b9bb7c1873f3eac49300000000000000000000000000000000000000000000000000000000000000027aa0f80182b3701f1525c7b9bb7c1873f3eac49300000000000000000000000000000000000000000000000000000000000000000000000000000000000000000ae82274cb638800"
                            }
                        ],
                        "constructorArguments": "",
                        "name": "sha256hash",
                        "returnParams": [
                            {
                                "name": "hash",
                                "type": "bytes32",
                                "value": "0x186e01cb8709863a519f962d809237adaf4b6caf151b7da5d59453bf82cb54f6"
                            }
                        ],
                        "signature": "sha256hash(bytes)"
                    },
                    "errorInfo": "",
                    "fromAddress": "0xff6b1cdfd2d3e37977d7938aa06b6d89d6675e27",
                    "gasUsed": 120,
                    "id": 3,
                    "methodDecoded": true,
                    "operation": "CALL",
                    "output": "0x186e01cb8709863a519f962d809237adaf4b6caf151b7da5d59453bf82cb54f6",
                    "revert": false,
                    "revertMessage": "",
                    "selector": "0x6a82ed8d",
                    "status": true,
                    "value": "0"
                },
                "nodeType": 0
            },
            "4": {
                "event": {
                    "contract": "0xff6b1cdfd2d3e37977d7938aa06b6d89d6675e27",
                    "decodedLog": null,
                    "id": 4,
                    "logData": "0x0000000000000000000000000000000000000000000000000000000000001f7f00000000000000000000000000000000000000000000000000000000000000000000000000000000000000007aa0f80182b3701f1525c7b9bb7c1873f3eac4930000000000000000000000007aa0f80182b3701f1525c7b9bb7c1873f3eac4930000000000000000000000000000000000000000000000000ae82274cb638800186e01cb8709863a519f962d809237adaf4b6caf151b7da5d59453bf82cb54f6",
                    "logDecoded": false,
                    "operation": "EVENT",
                    "revert": false,
                    "status": true,
                    "topics": [
                        "0x17cddb8dde75955a33d85a3017219a3f7cdce52ab810927df56c2bc63bd9b125"
                    ]
                },
                "nodeType": 1
            },
            "5": {
                "invocation": {
                    "address": "0x0000000000000000000000000000000000000002",
                    "callData": "0xbdd8498903d99631a0d1291743c77a733edb036bccbc98f3c7b9b9fc04b3f8ed5aeba41e00000000000000000000000000000000000000000000000000000000000000003edb036bccbc98f3c7b9b9fc04b3f8ed5aeba41e000000000000000000000000000000000000000000000000000000000000000000000000000000000000000012e8cd6bc3380c00",
                    "decodedMethod": {
                        "callParams": [
                            {
                                "name": "data",
                                "type": "bytes",
                                "value": "0x6a82ed8dbdd8498903d99631a0d1291743c77a733edb036bccbc98f3c7b9b9fc04b3f8ed5aeba41e00000000000000000000000000000000000000000000000000000000000000003edb036bccbc98f3c7b9b9fc04b3f8ed5aeba41e000000000000000000000000000000000000000000000000000000000000000000000000000000000000000012e8cd6bc3380c00"
                            }
                        ],
                        "constructorArguments": "",
                        "name": "sha256hash",
                        "returnParams": [
                            {
                                "name": "hash",
                                "type": "bytes32",
                                "value": "0x360005cdf375ee99327329569dd0f33ef59265094dd14fa3127a46775cb193fe"
                            }
                        ],
                        "signature": "sha256hash(bytes)"
                    },
                    "errorInfo": "",
                    "fromAddress": "0xff6b1cdfd2d3e37977d7938aa06b6d89d6675e27",
                    "gasUsed": 120,
                    "id": 5,
                    "methodDecoded": true,
                    "operation": "CALL",
                    "output": "0x360005cdf375ee99327329569dd0f33ef59265094dd14fa3127a46775cb193fe",
                    "revert": false,
                    "revertMessage": "",
                    "selector": "0x6a82ed8d",
                    "status": true,
                    "value": "0"
                },
                "nodeType": 0
            },
            "6": {
                "event": {
                    "contract": "0xff6b1cdfd2d3e37977d7938aa06b6d89d6675e27",
                    "decodedLog": null,
                    "id": 6,
                    "logData": "0x0000000000000000000000000000000000000000000000000000000000001f7f00000000000000000000000000000000000000000000000000000000000000000000000000000000000000003edb036bccbc98f3c7b9b9fc04b3f8ed5aeba41e0000000000000000000000003edb036bccbc98f3c7b9b9fc04b3f8ed5aeba41e00000000000000000000000000000000000000000000000012e8cd6bc3380c00360005cdf375ee99327329569dd0f33ef59265094dd14fa3127a46775cb193fe",
                    "logDecoded": false,
                    "operation": "EVENT",
                    "revert": false,
                    "status": true,
                    "topics": [
                        "0x17cddb8dde75955a33d85a3017219a3f7cdce52ab810927df56c2bc63bd9b125"
                    ]
                },
                "nodeType": 1
            },
            "7": {
                "invocation": {
                    "address": "0x0000000000000000000000000000000000000002",
                    "callData": "0xa3852224758531c50b0cd2d075ba86ac06c7d0c234d70c5aebae0605186e01cb8709863a519f962d809237adaf4b6caf151b7da5d59453bf82cb54f6",
                    "decodedMethod": {
                        "callParams": [
                            {
                                "name": "data",
                                "type": "bytes",
                                "value": "0xe6b46057a3852224758531c50b0cd2d075ba86ac06c7d0c234d70c5aebae0605186e01cb8709863a519f962d809237adaf4b6caf151b7da5d59453bf82cb54f6"
                            }
                        ],
                        "constructorArguments": "",
                        "name": "sha256hash",
                        "returnParams": [
                            {
                                "name": "hash",
                                "type": "bytes32",
                                "value": "0x208f7cb2773758e705264c24c74d2a18245e5bac2fbe3dee43e162c4d22eb5a1"
                            }
                        ],
                        "signature": "sha256hash(bytes)"
                    },
                    "errorInfo": "",
                    "fromAddress": "0xff6b1cdfd2d3e37977d7938aa06b6d89d6675e27",
                    "gasUsed": 84,
                    "id": 7,
                    "methodDecoded": true,
                    "operation": "CALL",
                    "output": "0x208f7cb2773758e705264c24c74d2a18245e5bac2fbe3dee43e162c4d22eb5a1",
                    "revert": false,
                    "revertMessage": "",
                    "selector": "0xe6b46057",
                    "status": true,
                    "value": "0"
                },
                "nodeType": 0
            },
            "8": {
                "invocation": {
                    "address": "0x0000000000000000000000000000000000000002",
                    "callData": "0x773758e705264c24c74d2a18245e5bac2fbe3dee43e162c4d22eb5a1360005cdf375ee99327329569dd0f33ef59265094dd14fa3127a46775cb193fe",
                    "decodedMethod": {
                        "callParams": [
                            {
                                "name": "data",
                                "type": "bytes",
                                "value": "0x208f7cb2773758e705264c24c74d2a18245e5bac2fbe3dee43e162c4d22eb5a1360005cdf375ee99327329569dd0f33ef59265094dd14fa3127a46775cb193fe"
                            }
                        ],
                        "constructorArguments": "",
                        "name": "sha256hash",
                        "returnParams": [
                            {
                                "name": "hash",
                                "type": "bytes32",
                                "value": "0xccd4c0bdd52c6b606f293238639672648c37d9a7cdd6d7516cf4db830bdad27c"
                            }
                        ],
                        "signature": "sha256hash(bytes)"
                    },
                    "errorInfo": "",
                    "fromAddress": "0xff6b1cdfd2d3e37977d7938aa06b6d89d6675e27",
                    "gasUsed": 84,
                    "id": 8,
                    "methodDecoded": true,
                    "operation": "CALL",
                    "output": "0xccd4c0bdd52c6b606f293238639672648c37d9a7cdd6d7516cf4db830bdad27c",
                    "revert": false,
                    "revertMessage": "",
                    "selector": "0x208f7cb2",
                    "status": true,
                    "value": "0"
                },
                "nodeType": 0
            },
            "9": {
                "invocation": {
                    "address": "0x4077e521612184e5650520460f13e4aa1f0ead2f",
                    "callData": "0x",
                    "decodedMethod": null,
                    "errorInfo": "",
                    "fromAddress": "0xff6b1cdfd2d3e37977d7938aa06b6d89d6675e27",
                    "gasUsed": 0,
                    "id": 9,
                    "methodDecoded": false,
                    "operation": "CALL",
                    "output": "",
                    "revert": false,
                    "revertMessage": "",
                    "selector": "fallback",
                    "status": true,
                    "value": "3.4283173"
                },
                "nodeType": 0
            }
        },
        "gasFlame": [
            {
                "children": [
                    {
                        "children": [
                            {
                                "children": [],
                                "depth": 0,
                                "name": "Initial Gas",
                                "value": 36184
                            },
                            {
                                "children": [
                                    {
                                        "children": [],
                                        "depth": 1,
                                        "name": "sha256hash",
                                        "value": 120
                                    },
                                    {
                                        "children": [],
                                        "depth": 1,
                                        "name": "sha256hash",
                                        "value": 120
                                    },
                                    {
                                        "children": [],
                                        "depth": 1,
                                        "name": "sha256hash",
                                        "value": 120
                                    },
                                    {
                                        "children": [],
                                        "depth": 1,
                                        "name": "sha256hash",
                                        "value": 84
                                    },
                                    {
                                        "children": [],
                                        "depth": 1,
                                        "name": "sha256hash",
                                        "value": 84
                                    },
                                    {
                                        "children": [],
                                        "depth": 1,
                                        "name": "fallback",
                                        "value": 0
                                    },
                                    {
                                        "children": [],
                                        "depth": 1,
                                        "name": "fallback",
                                        "value": 0
                                    },
                                    {
                                        "children": [],
                                        "depth": 1,
                                        "name": "fallback",
                                        "value": 0
                                    }
                                ],
                                "depth": 0,
                                "name": "Executed Gas",
                                "value": 74914
                            }
                        ],
                        "depth": -1,
                        "name": "Actual Gas Used",
                        "value": 111098
                    },
                    {
                        "children": [],
                        "depth": -1,
                        "name": "Refunded Gas",
                        "value": 0
                    }
                ],
                "depth": -2,
                "name": "Total Gas",
                "value": 111098
            }
        ],
        "isConfirmed": true,
        "mainTrace": [
            {
                "children": [
                    {
                        "children": [
                            {
                                "children": [],
                                "depth": 1,
                                "id": 1,
                                "order": 1
                            },
                            {
                                "children": [],
                                "depth": 1,
                                "id": 2,
                                "order": 2
                            },
                            {
                                "children": [],
                                "depth": 1,
                                "id": 3,
                                "order": 3
                            },
                            {
                                "children": [],
                                "depth": 1,
                                "id": 4,
                                "order": 4
                            },
                            {
                                "children": [],
                                "depth": 1,
                                "id": 5,
                                "order": 5
                            },
                            {
                                "children": [],
                                "depth": 1,
                                "id": 6,
                                "order": 6
                            },
                            {
                                "children": [],
                                "depth": 1,
                                "id": 7,
                                "order": 7
                            },
                            {
                                "children": [],
                                "depth": 1,
                                "id": 8,
                                "order": 8
                            },
                            {
                                "children": [],
                                "depth": 1,
                                "id": 9,
                                "order": 9
                            },
                            {
                                "children": [],
                                "depth": 1,
                                "id": 10,
                                "order": 10
                            },
                            {
                                "children": [],
                                "depth": 1,
                                "id": 11,
                                "order": 11
                            }
                        ],
                        "depth": 0,
                        "id": 0,
                        "order": 0
                    }
                ],
                "depth": -1,
                "id": -1,
                "order": -1
            }
        ],
        "mainTraceNodeCount": 12,
        "parentIdMap": {
            "0": -1,
            "1": 0,
            "10": 0,
            "11": 0,
            "2": 0,
            "3": 0,
            "4": 0,
            "5": 0,
            "6": 0,
            "7": 0,
            "8": 0,
            "9": 0
        },
        "tidyTrace": [
            {
                "children": [
                    {
                        "children": [
                            {
                                "children": [],
                                "depth": 1,
                                "id": 1,
                                "order": 1
                            },
                            {
                                "children": [],
                                "depth": 1,
                                "id": 2,
                                "order": 2
                            },
                            {
                                "children": [],
                                "depth": 1,
                                "id": 3,
                                "order": 3
                            },
                            {
                                "children": [],
                                "depth": 1,
                                "id": 4,
                                "order": 4
                            },
                            {
                                "children": [],
                                "depth": 1,
                                "id": 5,
                                "order": 5
                            },
                            {
                                "children": [],
                                "depth": 1,
                                "id": 6,
                                "order": 6
                            },
                            {
                                "children": [],
                                "depth": 1,
                                "id": 7,
                                "order": 7
                            },
                            {
                                "children": [],
                                "depth": 1,
                                "id": 8,
                                "order": 8
                            },
                            {
                                "children": [],
                                "depth": 1,
                                "id": 9,
                                "order": 9
                            },
                            {
                                "children": [],
                                "depth": 1,
                                "id": 10,
                                "order": 10
                            },
                            {
                                "children": [],
                                "depth": 1,
                                "id": 11,
                                "order": 11
                            }
                        ],
                        "depth": 0,
                        "id": 0,
                        "order": 0
                    }
                ],
                "depth": -1,
                "id": -1,
                "order": -1
            }
        ],
        "tidyTraceNodeCount": 12
    },
    "state_change": {
        "stateChanges": [
            {
                "address": "0xff6b1cdfd2d3e37977d7938aa06b6d89d6675e27",
                "erc": "",
                "slots": [
                    {
                        "current": "0x00000000000000000000000000000000000000000000005cdfbbfea51525610d",
                        "key": "0x4852e55013b0f8558481a5df36fc28ba55764e0d65931fb2807ccb41653e0965",
                        "prev": "0x00000000000000000000000000000000000000000000005c92573a58eab6450d"
                    },
                    {
                        "current": "0x0000000000000000000000000000000000000000000000000000000000000001",
                        "key": "0xe3712ba643992024a41b4ad94f9c27ea8cccf4a57f651d63282ba915c478d5cc",
                        "prev": "0x0000000000000000000000000000000000000000000000000000000000000000"
                    }
                ],
                "storageVariables": []
            }
        ]
    }
}