{
    "balance_change": {
        "balanceChanges": [
            {
                "account": "0x10e6ef546a851c84b7797ae660f4b8da07adfcc0",
                "assets": [
                    {
                        "address": "0xeeeeeeeeeeeeeeeeeeeeeeeeeeeeeeeeeeeeeeee",
                        "amount": "0.000867686597480909",
                        "iconUrl": "https://assets.blocksec.com/image/1663669189317-3.png",
                        "isERC1155": false,
                        "isERC721": false,
                        "sign": false,
                        "value": "2.5504947050122337118"
                    },
                    {
                        "address": "0xdc0327d50e6c73db2f8117760592c8bbf1cdcf38",
                        "amount": "1.645354285739598857",
                        "iconUrl": "",
                        "isERC1155": false,
                        "isERC721": false,
                        "sign": true,
                        "value": "62.83257659"
                    }
                ]
            },
            {
                "account": "0xfbddadd80fe7bda00b901fbaf73803f2238ae655",
                "assets": [
                    {
                        "address": "0xdc0327d50e6c73db2f8117760592c8bbf1cdcf38",
                        "amount": "1.645354285739598857",
                        "iconUrl": "",
                        "isERC1155": false,
                        "isERC721": false,
                        "sign": false,
                        "value": "62.83257659"
                    }
                ]
            },
            {
                "account": "0x4b5057b2c87ec9e7c047fb00c0e406dff2fdacad",
                "assets": [
                    {
                        "address": "0xeeeeeeeeeeeeeeeeeeeeeeeeeeeeeeeeeeeeeeee",
                        "amount": "0.000867686597480909",
                        "iconUrl": "https://assets.blocksec.com/image/1663669189317-3.png",
                        "isERC1155": false,
                        "isERC721": false,
                        "sign": true,
                        "value": "2.5504947050122337118"
                    }
                ]
            }
        ]
    },
    "profile": {
        "basic_info": {
            "baseFee": "43.306815175",
            "blockNumber": 14696530,
            "callData": "0x39941fa400000000000000000000000000000000000000000000000000000000000000010000000000000000000000000000000000000000000000000000000000e0404e0000000000000000000000000000000000000000000000000000000000000000",
            "debugEnable": true,
            "errorInfo": "",
            "eventCount": 2,
            "feeRecipient": "0xea674fdde714fd979de3edf0f56aa9716b898ec8",
            "formatValue": "0.000867686597480909",
            "gasLimit": 195243,
            "gasPrice": "44.806815175",
            "gasUsed": 190563,
            "intTxnCount": 8,
            "internalRevert": false,
            "internalRevertMessage": "",
            "isContractCreation": false,
            "isFlashloan": false,
            "maxFee": "54.540145102",
            "nonce": 328,
            "overwritedBlockNumber": -1,
            "priorityFee": "1.5",
            "receiver": "0xfbddadd80fe7bda00b901fbaf73803f2238ae655",
            "revertMessage": "",
            "sender": "0x10e6ef546a851c84b7797ae660f4b8da07adfcc0",
            "simulationEnable": true,
            "sourceTxnHash": "0xcca8c380d309f3173546e115e63f869010b84bc973f9c53ccded7bbfa73727c2",
            "status": true,
            "timestamp": "2022-05-02T05:40:15Z",
            "transactionFee": "0.008538521120193525",
            "txnHash": "0xcca8c380d309f3173546e115e63f869010b84bc973f9c53ccded7bbfa73727c2",
            "txnIndex": 127,
            "type": 2,
            "value": "867686597480909"
        },
        "fund_flow": [
            {
                "amount": "0.000867686597480909",
                "from": "0x10e6ef546a851c84b7797ae660f4b8da07adfcc0",
                "id": 1,
                "isERC1155": false,
                "isERC721": false,
                "isReverted": false,
                "order": 1,
                "to": "0xfbddadd80fe7bda00b901fbaf73803f2238ae655",
                "token": "0xeeeeeeeeeeeeeeeeeeeeeeeeeeeeeeeeeeeeeeee"
            },
            {
                "amount": "1.645354285739598857",
                "from": "0xfbddadd80fe7bda00b901fbaf73803f2238ae655",
                "id": 2,
                "isERC1155": false,
                "isERC721": false,
                "isReverted": false,
                "order": 2,
                "to": "0x10e6ef546a851c84b7797ae660f4b8da07adfcc0",
                "token": "0xdc0327d50e6c73db2f8117760592c8bbf1cdcf38"
            },
            {
                "amount": "0.000867686597480909",
                "from": "0xfbddadd80fe7bda00b901fbaf73803f2238ae655",
                "id": 3,
                "isERC1155": false,
                "isERC721": false,
                "isReverted": false,
                "order": 3,
                "to": "0x4b5057b2c87ec9e7c047fb00c0e406dff2fdacad",
                "token": "0xeeeeeeeeeeeeeeeeeeeeeeeeeeeeeeeeeeeeeeee"
            }
        ],
        "token_infos": [
            {
                "address": "0xc02aaa39b223fe8d0a0e5c4f27ead9083c756cc2",
                "decimals": 18
            },
            {
                "address": "0xdc0327d50e6c73db2f8117760592c8bbf1cdcf38",
                "decimals": 18
            },
            {
                "address": "0xeeeeeeeeeeeeeeeeeeeeeeeeeeeeeeeeeeeeeeee",
                "decimals": 18
            }
        ]
    },
    "address_label": {
        "labels": [
            {
                "address": "0x0000000000000000000000000000000000000004",
                "label": "Precompiled"
            },
            {
                "address": "0x3d66d374cff558b9d988996786afb1eb6c31ef8b",
                "label": "AdminUpgradeabilityProxy_3d66_ef8b"
            },
            {
                "address": "0xcca06cd29c61123d9d65b904b18174382380ca64",
                "label": "StrongNFTBonusDeprecated"
            },
            {
                "address": "0x0000000000000000000000000000000000000001",
                "label": "Precompiled"
            },
            {
                "address": "0x1a50be5dc5dd721f3e337816b23002c9c5e4b812",
                "label": "AdminUpgradeabilityProxy"
            },
            {
                "address": "0x545496300d62c95e9d712b6dd2f010d1c256647f",
                "label": "StrongNFTBonusV8"
            },
            {
                "address": "0x0000000000000000000000000000000000000003",
                "label": "Precompiled"
            },
            {
                "address": "0x2e734269c869bda3ea6550f510d2514f2d66de71",
                "label": "StrongBlock: NFT"
            },
            {
                "address": "0x0000000000000000000000000000000000000002",
                "label": "Precompiled"
            },
            {
                "address": "0xfbddadd80fe7bda00b901fbaf73803f2238ae655",
                "label": "StrongBlock: Service"
            },
            {
                "address": "0xc2899dfcb0a81b73e89e4a99cd24ab26d8a78295",
                "label": "ServiceV19"
            },
            {
                "address": "0xeeeeeeeeeeeeeeeeeeeeeeeeeeeeeeeeeeeeeeee",
                "label": "Ether"
            },
            {
                "address": "0xdc0327d50e6c73db2f8117760592c8bbf1cdcf38",
                "label": "StrongBlock: STRNGR Token"
            }
        ]
    },
    "trace": {
        "accountLabels": null,
        "dataMap": {
            "-1": {
                "invocation": {
                    "address": "0x10e6ef546a851c84b7797ae660f4b8da07adfcc0",
                    "callData": "",
                    "decodedMethod": null,
                    "errorInfo": "",
                    "fromAddress": "",
                    "gasUsed": 0,
                    "id": -1,
                    "methodDecoded": false,
                    "operation": "",
                    "output": "",
                    "revert": false,
                    "revertMessage": "",
                    "selector": "",
                    "status": false,
                    "value": ""
                },
                "nodeType": 0
            },
            "0": {
                "invocation": {
                    "address": "0xfbddadd80fe7bda00b901fbaf73803f2238ae655",
                    "callData": "0x00000000000000000000000000000000000000000000000000000000000000010000000000000000000000000000000000000000000000000000000000e0404e0000000000000000000000000000000000000000000000000000000000000000",
                    "decodedMethod": {
                        "callParams": [
                            {
                                "name": "nodeId",
                                "type": "uint128",
                                "value": "1"
                            },
                            {
                                "name": "blockNumber",
                                "type": "uint256",
                                "value": "14,696,526"
                            },
                            {
                                "name": "toStrongPool",
                                "type": "bool",
                                "value": false
                            }
                        ],
                        "constructorArguments": "",
                        "name": "claim",
                        "returnParams": [
                            {
                                "name": "",
                                "type": "bool",
                                "value": true
                            }
                        ],
                        "signature": "claim(uint128,uint256,bool)"
                    },
                    "errorInfo": "",
                    "fromAddress": "0x10e6ef546a851c84b7797ae660f4b8da07adfcc0",
                    "gasUsed": 190563,
                    "id": 0,
                    "methodDecoded": true,
                    "operation": "CALL",
                    "output": "0x0000000000000000000000000000000000000000000000000000000000000001",
                    "revert": false,
                    "revertMessage": "",
                    "selector": "0x39941fa4",
                    "status": true,
                    "value": "0.000867686597480909"
                },
                "nodeType": 0
            },
            "1": {
                "invocation": {
                    "address": "0xc2899dfcb0a81b73e89e4a99cd24ab26d8a78295",
                    "callData": "0x00000000000000000000000000000000000000000000000000000000000000010000000000000000000000000000000000000000000000000000000000e0404e0000000000000000000000000000000000000000000000000000000000000000",
                    "decodedMethod": {
                        "callParams": [
                            {
                                "name": "nodeId",
                                "type": "uint128",
                                "value": "1"
                            },
                            {
                                "name": "blockNumber",
                                "type": "uint256",
                                "value": "14,696,526"
                            },
                            {
                                "name": "toStrongPool",
                                "type": "bool",
                                "value": false
                            }
                        ],
                        "constructorArguments": "",
                        "name": "claim",
                        "returnParams": [
                            {
                                "name": "",
                                "type": "bool",
                                "value": true
                            }
                        ],
                        "signature": "claim(uint128,uint256,bool)"
                    },
                    "errorInfo": "",
                    "fromAddress": "0xfbddadd80fe7bda00b901fbaf73803f2238ae655",
                    "gasUsed": 161782,
                    "id": 1,
                    "methodDecoded": true,
                    "operation": "DELEGATECALL",
                    "output": "0x0000000000000000000000000000000000000000000000000000000000000001",
                    "revert": false,
                    "revertMessage": "",
                    "selector": "0x39941fa4",
                    "status": true,
                    "value": "0.000867686597480909"
                },
                "nodeType": 0
            },
            "10": {
                "invocation": {
                    "address": "0x4b5057b2c87ec9e7c047fb00c0e406dff2fdacad",
                    "callData": "0x",
                    "decodedMethod": null,
                    "errorInfo": "",
                    "fromAddress": "0xfbddadd80fe7bda00b901fbaf73803f2238ae655",
                    "gasUsed": 0,
                    "id": 10,
                    "methodDecoded": false,
                    "operation": "CALL",
                    "output": "",
                    "revert": false,
                    "revertMessage": "",
                    "selector": "fallback",
                    "status": true,
                    "value": "0.000867686597480909"
                },
                "nodeType": 0
            },
            "2": {
                "invocation": {
                    "address": "0x1a50be5dc5dd721f3e337816b23002c9c5e4b812",
                    "callData": "0x00000000000000000000000010e6ef546a851c84b7797ae660f4b8da07adfcc000000000000000000000000000000000000000000000000000000000000000010000000000000000000000000000000000000000000000000000000000dee63a0000000000000000000000000000000000000000000000000000000000e0404e",
                    "decodedMethod": {
                        "callParams": [
                            {
                                "name": "_entity",
                                "type": "address",
                                "value": "0x10e6ef546a851c84b7797ae660f4b8da07adfcc0"
                            },
                            {
                                "name": "_nodeId",
                                "type": "uint128",
                                "value": "1"
                            },
                            {
                                "name": "_from",
                                "type": "uint256",
                                "value": "14,607,930"
                            },
                            {
                                "name": "_to",
                                "type": "uint256",
                                "value": "14,696,526"
                            }
                        ],
                        "constructorArguments": "",
                        "name": "getBonus",
                        "returnParams": [
                            {
                                "name": "",
                                "type": "uint256",
                                "value": "379,697,142,882,456,000"
                            }
                        ],
                        "signature": "getBonus(address,uint128,uint256,uint256)"
                    },
                    "errorInfo": "",
                    "fromAddress": "0xfbddadd80fe7bda00b901fbaf73803f2238ae655",
                    "gasUsed": 75940,
                    "id": 2,
                    "methodDecoded": true,
                    "operation": "STATICCALL",
                    "output": "0x0000000000000000000000000000000000000000000000000544f48a2bbd51c0",
                    "revert": false,
                    "revertMessage": "",
                    "selector": "0xb07d9cbb",
                    "status": true,
                    "value": "0"
                },
                "nodeType": 0
            },
            "3": {
                "invocation": {
                    "address": "0x545496300d62c95e9d712b6dd2f010d1c256647f",
                    "callData": "0x00000000000000000000000010e6ef546a851c84b7797ae660f4b8da07adfcc000000000000000000000000000000000000000000000000000000000000000010000000000000000000000000000000000000000000000000000000000dee63a0000000000000000000000000000000000000000000000000000000000e0404e",
                    "decodedMethod": {
                        "callParams": [
                            {
                                "name": "_entity",
                                "type": "address",
                                "value": "0x10e6ef546a851c84b7797ae660f4b8da07adfcc0"
                            },
                            {
                                "name": "_nodeId",
                                "type": "uint128",
                                "value": "1"
                            },
                            {
                                "name": "_from",
                                "type": "uint256",
                                "value": "14,607,930"
                            },
                            {
                                "name": "_to",
                                "type": "uint256",
                                "value": "14,696,526"
                            }
                        ],
                        "constructorArguments": "",
                        "name": "getBonus",
                        "returnParams": [
                            {
                                "name": "",
                                "type": "uint256",
                                "value": "379,697,142,882,456,000"
                            }
                        ],
                        "signature": "getBonus(address,uint128,uint256,uint256)"
                    },
                    "errorInfo": "",
                    "fromAddress": "0x1a50be5dc5dd721f3e337816b23002c9c5e4b812",
                    "gasUsed": 68682,
                    "id": 3,
                    "methodDecoded": true,
                    "operation": "DELEGATECALL",
                    "output": "0x0000000000000000000000000000000000000000000000000544f48a2bbd51c0",
                    "revert": false,
                    "revertMessage": "",
                    "selector": "0xb07d9cbb",
                    "status": true,
                    "value": "0"
                },
                "nodeType": 0
            },
            "4": {
                "invocation": {
                    "address": "0x3d66d374cff558b9d988996786afb1eb6c31ef8b",
                    "callData": "0x00000000000000000000000010e6ef546a851c84b7797ae660f4b8da07adfcc00000000000000000000000000000000000000000000000000000000000000001",
                    "decodedMethod": {
                        "callParams": [
                            {
                                "name": "_entity",
                                "type": "address",
                                "value": "0x10e6ef546a851c84b7797ae660f4b8da07adfcc0"
                            },
                            {
                                "name": "_nodeId",
                                "type": "uint128",
                                "value": "1"
                            }
                        ],
                        "constructorArguments": "",
                        "name": "getStakedNftId",
                        "returnParams": [
                            {
                                "name": "",
                                "type": "uint256",
                                "value": "0"
                            }
                        ],
                        "signature": "getStakedNftId(address,uint128)"
                    },
                    "errorInfo": "",
                    "fromAddress": "0x1a50be5dc5dd721f3e337816b23002c9c5e4b812",
                    "gasUsed": 9944,
                    "id": 4,
                    "methodDecoded": true,
                    "operation": "STATICCALL",
                    "output": "0x0000000000000000000000000000000000000000000000000000000000000000",
                    "revert": false,
                    "revertMessage": "",
                    "selector": "0x3418c894",
                    "status": true,
                    "value": "0"
                },
                "nodeType": 0
            },
            "5": {
                "invocation": {
                    "address": "0xcca06cd29c61123d9d65b904b18174382380ca64",
                    "callData": "0x00000000000000000000000010e6ef546a851c84b7797ae660f4b8da07adfcc00000000000000000000000000000000000000000000000000000000000000001",
                    "decodedMethod": {
                        "callParams": [
                            {
                                "name": "_entity",
                                "type": "address",
                                "value": "0x10e6ef546a851c84b7797ae660f4b8da07adfcc0"
                            },
                            {
                                "name": "_nodeId",
                                "type": "uint128",
                                "value": "1"
                            }
                        ],
                        "constructorArguments": "",
                        "name": "getStakedNftId",
                        "returnParams": [
                            {
                                "name": "",
                                "type": "uint256",
                                "value": "0"
                            }
                        ],
                        "signature": "getStakedNftId(address,uint128)"
                    },
                    "errorInfo": "",
                    "fromAddress": "0x3d66d374cff558b9d988996786afb1eb6c31ef8b",
                    "gasUsed": 2665,
                    "id": 5,
                    "methodDecoded": true,
                    "operation": "DELEGATECALL",
                    "output": "0x0000000000000000000000000000000000000000000000000000000000000000",
                    "revert": false,
                    "revertMessage": "",
                    "selector": "0x3418c894",
                    "status": true,
                    "value": "0"
                },
                "nodeType": 0
            },
            "6": {
                "invocation": {
                    "address": "0x2e734269c869bda3ea6550f510d2514f2d66de71",
                    "callData": "0x0000000000000000000000001a50be5dc5dd721f3e337816b23002c9c5e4b81200000000000000000000000000000000000000000000000000000000000015ee",
                    "decodedMethod": {
                        "callParams": [
                            {
                                "name": "account",
                                "type": "address",
                                "value": "0x1a50be5dc5dd721f3e337816b23002c9c5e4b812"
                            },
                            {
                                "name": "id",
                                "type": "uint256",
                                "value": "5,614"
                            }
                        ],
                        "constructorArguments": "",
                        "name": "balanceOf",
                        "returnParams": [
                            {
                                "name": "",
                                "type": "uint256",
                                "value": "1"
                            }
                        ],
                        "signature": "balanceOf(address,uint256)"
                    },
                    "errorInfo": "",
                    "fromAddress": "0x1a50be5dc5dd721f3e337816b23002c9c5e4b812",
                    "gasUsed": 2624,
                    "id": 6,
                    "methodDecoded": true,
                    "operation": "STATICCALL",
                    "output": "0x0000000000000000000000000000000000000000000000000000000000000001",
                    "revert": false,
                    "revertMessage": "",
                    "selector": "0x00fdd58e",
                    "status": true,
                    "value": "0"
                },
                "nodeType": 0
            },
            "7": {
                "event": {
                    "contract": "0xfbddadd80fe7bda00b901fbaf73803f2238ae655",
                    "decodedLog": {
                        "name": "Claimed",
                        "params": [
                            {
                                "name": "user",
                                "type": "address",
                                "value": "0x10e6ef546a851c84b7797ae660f4b8da07adfcc0"
                            },
                            {
                                "name": "amount",
                                "type": "uint256",
                                "value": "1,645,354,285,739,598,857"
                            }
                        ],
                        "signature": "Claimed(address,uint256)"
                    },
                    "id": 7,
                    "logData": "0x00000000000000000000000000000000000000000000000016d57901632ce409",
                    "logDecoded": true,
                    "operation": "EVENT",
                    "revert": false,
                    "status": true,
                    "topics": [
                        "0xd8138f8a3f377c5259ca548e70e4c2de94f129f5a11036a15b69513cba2b426a",
                        "0x00000000000000000000000010e6ef546a851c84b7797ae660f4b8da07adfcc0"
                    ]
                },
                "nodeType": 1
            },
            "8": {
                "invocation": {
                    "address": "0xdc0327d50e6c73db2f8117760592c8bbf1cdcf38",
                    "callData": "0x00000000000000000000000010e6ef546a851c84b7797ae660f4b8da07adfcc000000000000000000000000000000000000000000000000016d57901632ce409",
                    "decodedMethod": {
                        "callParams": [
                            {
                                "name": "to",
                                "type": "address",
                                "value": "0x10e6ef546a851c84b7797ae660f4b8da07adfcc0"
                            },
                            {
                                "decimalAvailable": true,
                                "name": "amount",
                                "type": "uint256",
                                "value": "1,645,354,285,739,598,857"
                            }
                        ],
                        "constructorArguments": "",
                        "name": "transfer",
                        "returnParams": [
                            {
                                "name": "",
                                "type": "bool",
                                "value": true
                            }
                        ],
                        "signature": "transfer(address,uint256)"
                    },
                    "errorInfo": "",
                    "fromAddress": "0xfbddadd80fe7bda00b901fbaf73803f2238ae655",
                    "gasUsed": 13662,
                    "id": 8,
                    "methodDecoded": true,
                    "operation": "CALL",
                    "output": "0x0000000000000000000000000000000000000000000000000000000000000001",
                    "revert": false,
                    "revertMessage": "",
                    "selector": "0xa9059cbb",
                    "status": true,
                    "value": "0"
                },
                "nodeType": 0
            },
            "9": {
                "event": {
                    "contract": "0xdc0327d50e6c73db2f8117760592c8bbf1cdcf38",
                    "decodedLog": {
                        "name": "Transfer",
                        "params": [
                            {
                                "name": "from",
                                "type": "address",
                                "value": "0xfbddadd80fe7bda00b901fbaf73803f2238ae655"
                            },
                            {
                                "name": "to",
                                "type": "address",
                                "value": "0x10e6ef546a851c84b7797ae660f4b8da07adfcc0"
                            },
                            {
                                "decimalAvailable": true,
                                "name": "value",
                                "type": "uint256",
                                "value": "1,645,354,285,739,598,857"
                            }
                        ],
                        "signature": "Transfer(address,address,uint256)"
                    },
                    "id": 9,
                    "logData": "0x00000000000000000000000000000000000000000000000016d57901632ce409",
                    "logDecoded": true,
                    "operation": "EVENT",
                    "revert": false,
                    "status": true,
                    "topics": [
                        "0xddf252ad1be2c89b69c2b068fc378daa952ba7f163c4a11628f55a4df523b3ef",
                        "0x000000000000000000000000fbddadd80fe7bda00b901fbaf73803f2238ae655",
                        "0x00000000000000000000000010e6ef546a851c84b7797ae660f4b8da07adfcc0"
                    ]
                },
                "nodeType": 1
            }
        },
        "gasFlame": [
            {
                "children": [
                    {
                        "children": [
                            {
                                "children": [],
                                "depth": 0,
                                "name": "Initial Gas",
                                "value": 21496
                            },
                            {
                                "children": [
                                    {
                                        "children": [
                                            {
                                                "children": [
                                                    {
                                                        "children": [
                                                            {
                                                                "children": [
                                                                    {
                                                                        "children": [],
                                                                        "depth": 5,
                                                                        "name": "getStakedNftId",
                                                                        "value": 2665
                                                                    }
                                                                ],
                                                                "depth": 4,
                                                                "name": "getStakedNftId",
                                                                "value": 9944
                                                            },
                                                            {
                                                                "children": [],
                                                                "depth": 4,
                                                                "name": "balanceOf",
                                                                "value": 2624
                                                            }
                                                        ],
                                                        "depth": 3,
                                                        "name": "getBonus",
                                                        "value": 68682
                                                    }
                                                ],
                                                "depth": 2,
                                                "name": "getBonus",
                                                "value": 75940
                                            },
                                            {
                                                "children": [],
                                                "depth": 2,
                                                "name": "transfer",
                                                "value": 13662
                                            },
                                            {
                                                "children": [],
                                                "depth": 2,
                                                "name": "fallback",
                                                "value": 0
                                            }
                                        ],
                                        "depth": 1,
                                        "name": "claim",
                                        "value": 161782
                                    }
                                ],
                                "depth": 0,
                                "name": "Executed Gas",
                                "value": 169067
                            }
                        ],
                        "depth": -1,
                        "name": "Actual Gas Used",
                        "value": 190563
                    },
                    {
                        "children": [],
                        "depth": -1,
                        "name": "Refunded Gas",
                        "value": 0
                    }
                ],
                "depth": -2,
                "name": "Total Gas",
                "value": 190563
            }
        ],
        "isConfirmed": true,
        "mainTrace": [
            {
                "children": [
                    {
                        "children": [
                            {
                                "children": [
                                    {
                                        "children": [
                                            {
                                                "children": [
                                                    {
                                                        "children": [
                                                            {
                                                                "children": [],
                                                                "depth": 5,
                                                                "id": 5,
                                                                "order": 5
                                                            }
                                                        ],
                                                        "depth": 4,
                                                        "id": 4,
                                                        "order": 4
                                                    },
                                                    {
                                                        "children": [],
                                                        "depth": 4,
                                                        "id": 6,
                                                        "order": 6
                                                    }
                                                ],
                                                "depth": 3,
                                                "id": 3,
                                                "order": 3
                                            }
                                        ],
                                        "depth": 2,
                                        "id": 2,
                                        "order": 2
                                    },
                                    {
                                        "children": [],
                                        "depth": 2,
                                        "id": 7,
                                        "order": 7
                                    },
                                    {
                                        "children": [
                                            {
                                                "children": [],
                                                "depth": 3,
                                                "id": 9,
                                                "order": 9
                                            }
                                        ],
                                        "depth": 2,
                                        "id": 8,
                                        "order": 8
                                    },
                                    {
                                        "children": [],
                                        "depth": 2,
                                        "id": 10,
                                        "order": 10
                                    }
                                ],
                                "depth": 1,
                                "id": 1,
                                "order": 1
                            }
                        ],
                        "depth": 0,
                        "id": 0,
                        "order": 0
                    }
                ],
                "depth": -1,
                "id": -1,
                "order": -1
            }
        ],
        "mainTraceNodeCount": 11,
        "parentIdMap": {
            "0": -1,
            "1": 0,
            "10": 1,
            "2": 1,
            "3": 2,
            "4": 3,
            "5": 4,
            "6": 3,
            "7": 1,
            "8": 1,
            "9": 8
        },
        "tidyTrace": [
            {
                "children": [
                    {
                        "children": [
                            {
                                "children": [
                                    {
                                        "children": [],
                                        "depth": 2,
                                        "id": 7,
                                        "order": 7
                                    },
                                    {
                                        "children": [
                                            {
                                                "children": [],
                                                "depth": 3,
                                                "id": 9,
                                                "order": 9
                                            }
                                        ],
                                        "depth": 2,
                                        "id": 8,
                                        "order": 8
                                    },
                                    {
                                        "children": [],
                                        "depth": 2,
                                        "id": 10,
                                        "order": 10
                                    }
                                ],
                                "depth": 1,
                                "id": 1,
                                "order": 1
                            }
                        ],
                        "depth": 0,
                        "id": 0,
                        "order": 0
                    }
                ],
                "depth": -1,
                "id": -1,
                "order": -1
            }
        ],
        "tidyTraceNodeCount": 6
    },
    "state_change": {
        "stateChanges": [
            {
                "address": "0xdc0327d50e6c73db2f8117760592c8bbf1cdcf38",
                "erc": "ERC-20",
                "slots": [
                    {
                        "current": "0x0000000000000000000000000000000000000000000000003e50c0a166d6b791",
                        "key": "0x41e169c0ad85dd42bf12893eea8e4a1003a96c2a504fafe707e549f5e953cf5c",
                        "prev": "0x000000000000000000000000000000000000000000000000277b47a003a9d388"
                    },
                    {
                        "current": "0x00000000000000000000000000000000000000000000070e2cea14f013af9fb6",
                        "key": "0xb73d57ea57b9d8939177a255f0818cf6fd76cb78df58bf3c8b47a1faae3e8a16",
                        "prev": "0x00000000000000000000000000000000000000000000070e43bf8df176dc83bf"
                    }
                ],
                "storageVariables": [
                    {
                        "name": "_balances",
                        "type": "mapping(address => uint256)",
                        "value": {
                            "pairs": [
                                {
                                    "key": "0x10e6ef546a851c84b7797ae660f4b8da07adfcc0",
                                    "value": {
                                        "current": "4490300627935999889",
                                        "prev": "2844946342196401032",
                                        "typeTag": 1
                                    }
                                },
                                {
                                    "key": "0xfbddadd80fe7bda00b901fbaf73803f2238ae655",
                                    "value": {
                                        "current": "33318056219423024324534",
                                        "prev": "33319701573708763923391",
                                        "typeTag": 1
                                    }
                                }
                            ],
                            "typeTag": 4
                        }
                    }
                ]
            },
            {
                "address": "0xfbddadd80fe7bda00b901fbaf73803f2238ae655",
                "erc": "",
                "slots": [
                    {
                        "current": "0x0000000000000000000000000000000000000000000000000000000000e0404e",
                        "key": "0xe1829d89ae048565637a7fbd11a5d90ed76cac4e8f3ca15c5963563fc321ae56",
                        "prev": "0x0000000000000000000000000000000000000000000000000000000000dee63a"
                    },
                    {
                        "current": "0x00000000000000000000000000000000000000000000070c31b016ada566e920",
                        "key": "0x0000000000000000000000000000000000000000000000000000000000000014",
                        "prev": "0x00000000000000000000000000000000000000000000070c48858faf0893cd29"
                    }
                ],
                "storageVariables": [
                    {
                        "name": "entityNodeClaimedOnBlock",
                        "type": "mapping(bytes => uint256)",
                        "value": {
                            "pairs": [
                                {
                                    "key": "0x10e6ef546a851c84b7797ae660f4b8da07adfcc000000000000000000000000000000001",
                                    "value": {
                                        "current": "14696526",
                                        "prev": "14607930",
                                        "typeTag": 1
                                    }
                                }
                            ],
                            "typeTag": 4
                        }
                    },
                    {
                        "name": "rewardBalance",
                        "type": "uint256",
                        "value": {
                            "current": "33281506695610850797856",
                            "prev": "33283152049896590396713",
                            "typeTag": 1
                        }
                    }
                ]
            }
        ]
    }
}