{
    "balance_change": {
        "balanceChanges": [
            {
                "account": "0x3fda25f27211a138adf211f4c060f2149674be6d",
                "assets": [
                    {
                        "address": "0xeeeeeeeeeeeeeeeeeeeeeeeeeeeeeeeeeeeeeeee",
                        "amount": "0.114",
                        "iconUrl": "https://assets.blocksec.com/image/1663669189317-3.png",
                        "isERC1155": false,
                        "isERC721": false,
                        "sign": false,
                        "value": "195.51341999999999689"
                    }
                ]
            },
            {
                "account": "0xc03c2db82a715e18301094a3702fe9082c1774c6",
                "assets": [
                    {
                        "address": "0xeeeeeeeeeeeeeeeeeeeeeeeeeeeeeeeeeeeeeeee",
                        "amount": "0.114",
                        "iconUrl": "https://assets.blocksec.com/image/1663669189317-3.png",
                        "isERC1155": false,
                        "isERC721": false,
                        "sign": true,
                        "value": "195.51341999999999689"
                    }
                ]
            }
        ]
    },
    "profile": {
        "basic_info": {
            "baseFee": "19.847221528",
            "blockNumber": 18263174,
            "callData": "0x39125215000000000000000000000000c03c2db82a715e18301094a3702fe9082c1774c6000000000000000000000000000000000000000000000000019502656065000000000000000000000000000000000000000000000000000000000000000000c000000000000000000000000000000000000000000000000000000000652400cf000000000000000000000000000000000000000000000000000000000009559800000000000000000000000000000000000000000000000000000000000000e0000000000000000000000000000000000000000000000000000000000000000000000000000000000000000000000000000000000000000000000000000000415ab67c46956ce6d679a2e53e9f0c86869bdb4088345b474408ab054cfc1d52357742455fcacfba0b10b2de1e9d99efde4798a103bf016efe895584b61e4798c21c00000000000000000000000000000000000000000000000000000000000000",
            "debugEnable": true,
            "errorInfo": "",
            "eventCount": 1,
            "feeRecipient": "0x1f9090aae28b8a3dceadf281b0f12828e676c326",
            "formatValue": "0",
            "gasLimit": 179044,
            "gasPrice": "30",
            "gasUsed": 109028,
            "intTxnCount": 2,
            "internalRevert": false,
            "internalRevertMessage": "",
            "isContractCreation": false,
            "isFlashloan": false,
            "maxFee": "",
            "nonce": 1365469,
            "overwritedBlockNumber": -1,
            "priorityFee": "",
            "receiver": "0x3fda25f27211a138adf211f4c060f2149674be6d",
            "revertMessage": "",
            "sender": "0x808b4da0be6c9512e948521452227efc619bea52",
            "simulationEnable": true,
            "sourceTxnHash": "0xcc72ad4410871a61062e195c553ee1677da3510206c61b95af88ad38b0707379",
            "status": true,
            "timestamp": "2023-10-02T13:33:47Z",
            "transactionFee": "0.00327084",
            "txnHash": "0xcc72ad4410871a61062e195c553ee1677da3510206c61b95af88ad38b0707379",
            "txnIndex": 98,
            "type": 0,
            "value": "0"
        },
        "fund_flow": [
            {
                "amount": "0.114",
                "from": "0x3fda25f27211a138adf211f4c060f2149674be6d",
                "id": 1,
                "isERC1155": false,
                "isERC721": false,
                "isReverted": false,
                "order": 1,
                "to": "0xc03c2db82a715e18301094a3702fe9082c1774c6",
                "token": "0xeeeeeeeeeeeeeeeeeeeeeeeeeeeeeeeeeeeeeeee"
            }
        ],
        "token_infos": [
            {
                "address": "0xc02aaa39b223fe8d0a0e5c4f27ead9083c756cc2",
                "decimals": 18
            },
            {
                "address": "0xeeeeeeeeeeeeeeeeeeeeeeeeeeeeeeeeeeeeeeee",
                "decimals": 18
            }
        ]
    },
    "address_label": {
        "labels": [
            {
                "address": "0xeeeeeeeeeeeeeeeeeeeeeeeeeeeeeeeeeeeeeeee",
                "label": "Ether"
            },
            {
                "address": "0x808b4da0be6c9512e948521452227efc619bea52",
                "label": "BlockFi 5"
            },
            {
                "address": "0xc03c2db82a715e18301094a3702fe9082c1774c6",
                "label": "COINBASE"
            },
            {
                "address": "0x3fda25f27211a138adf211f4c060f2149674be6d",
                "label": "BlockFi 4"
            },
            {
                "address": "0x0000000000000000000000000000000000000001",
                "label": "Precompiled"
            },
            {
                "address": "0x0000000000000000000000000000000000000002",
                "label": "Precompiled"
            },
            {
                "address": "0x0000000000000000000000000000000000000003",
                "label": "Precompiled"
            },
            {
                "address": "0x0000000000000000000000000000000000000004",
                "label": "Precompiled"
            }
        ]
    },
    "trace": {
        "accountLabels": null,
        "dataMap": {
            "-1": {
                "invocation": {
                    "address": "0x808b4da0be6c9512e948521452227efc619bea52",
                    "callData": "",
                    "decodedMethod": null,
                    "errorInfo": "",
                    "fromAddress": "",
                    "gasUsed": 0,
                    "id": -1,
                    "methodDecoded": false,
                    "operation": "",
                    "output": "",
                    "revert": false,
                    "revertMessage": "",
                    "selector": "",
                    "status": false,
                    "value": ""
                },
                "nodeType": 0
            },
            "0": {
                "invocation": {
                    "address": "0x3fda25f27211a138adf211f4c060f2149674be6d",
                    "callData": "0x000000000000000000000000c03c2db82a715e18301094a3702fe9082c1774c6000000000000000000000000000000000000000000000000019502656065000000000000000000000000000000000000000000000000000000000000000000c000000000000000000000000000000000000000000000000000000000652400cf000000000000000000000000000000000000000000000000000000000009559800000000000000000000000000000000000000000000000000000000000000e0000000000000000000000000000000000000000000000000000000000000000000000000000000000000000000000000000000000000000000000000000000415ab67c46956ce6d679a2e53e9f0c86869bdb4088345b474408ab054cfc1d52357742455fcacfba0b10b2de1e9d99efde4798a103bf016efe895584b61e4798c21c00000000000000000000000000000000000000000000000000000000000000",
                    "decodedMethod": {
                        "callParams": [
                            {
                                "name": "toAddress",
                                "type": "address",
                                "value": "0xc03c2db82a715e18301094a3702fe9082c1774c6"
                            },
                            {
                                "name": "value",
                                "type": "uint256",
                                "value": "114,000,000,000,000,000"
                            },
                            {
                                "name": "data",
                                "type": "bytes",
                                "value": "0x"
                            },
                            {
                                "name": "expireTime",
                                "type": "uint256",
                                "value": "1,696,858,319"
                            },
                            {
                                "name": "sequenceId",
                                "type": "uint256",
                                "value": "611,736"
                            },
                            {
                                "name": "signature",
                                "type": "bytes",
                                "value": "0x5ab67c46956ce6d679a2e53e9f0c86869bdb4088345b474408ab054cfc1d52357742455fcacfba0b10b2de1e9d99efde4798a103bf016efe895584b61e4798c21c"
                            }
                        ],
                        "constructorArguments": "",
                        "name": "sendMultiSig",
                        "returnParams": [],
                        "signature": "sendMultiSig(address,uint256,bytes,uint256,uint256,bytes)"
                    },
                    "errorInfo": "",
                    "fromAddress": "0x808b4da0be6c9512e948521452227efc619bea52",
                    "gasUsed": 109028,
                    "id": 0,
                    "methodDecoded": true,
                    "operation": "CALL",
                    "output": "",
                    "revert": false,
                    "revertMessage": "",
                    "selector": "0x39125215",
                    "status": true,
                    "value": "0"
                },
                "nodeType": 0
            },
            "1": {
                "invocation": {
                    "address": "0x0000000000000000000000000000000000000001",
                    "callData": "0xca02a9d9f1f201832b875f08a4bed4d47ef6e9f08478b5300253ffdb000000000000000000000000000000000000000000000000000000000000001c5ab67c46956ce6d679a2e53e9f0c86869bdb4088345b474408ab054cfc1d52357742455fcacfba0b10b2de1e9d99efde4798a103bf016efe895584b61e4798c2",
                    "decodedMethod": {
                        "callParams": [
                            {
                                "name": "hash",
                                "type": "bytes32",
                                "value": "0xd8c20fe5ca02a9d9f1f201832b875f08a4bed4d47ef6e9f08478b5300253ffdb"
                            },
                            {
                                "name": "v",
                                "type": "uint256",
                                "value": "28"
                            },
                            {
                                "name": "r",
                                "type": "bytes32",
                                "value": "0x5ab67c46956ce6d679a2e53e9f0c86869bdb4088345b474408ab054cfc1d5235"
                            },
                            {
                                "name": "s",
                                "type": "bytes32",
                                "value": "0x7742455fcacfba0b10b2de1e9d99efde4798a103bf016efe895584b61e4798c2"
                            }
                        ],
                        "constructorArguments": "",
                        "name": "ecrecover",
                        "returnParams": [
                            {
                                "name": "",
                                "type": "address",
                                "value": "0x689d84c5b5f4424954343c1458e32e4397923ddf"
                            }
                        ],
                        "signature": "ecrecover(bytes32,uint256,bytes32,bytes32)"
                    },
                    "errorInfo": "",
                    "fromAddress": "0x3fda25f27211a138adf211f4c060f2149674be6d",
                    "gasUsed": 3000,
                    "id": 1,
                    "methodDecoded": true,
                    "operation": "CALL",
                    "output": "0x000000000000000000000000689d84c5b5f4424954343c1458e32e4397923ddf",
                    "revert": false,
                    "revertMessage": "",
                    "selector": "0xd8c20fe5",
                    "status": true,
                    "value": "0"
                },
                "nodeType": 0
            },
            "2": {
                "invocation": {
                    "address": "0xc03c2db82a715e18301094a3702fe9082c1774c6",
                    "callData": "0x",
                    "decodedMethod": null,
                    "errorInfo": "",
                    "fromAddress": "0x3fda25f27211a138adf211f4c060f2149674be6d",
                    "gasUsed": 0,
                    "id": 2,
                    "methodDecoded": false,
                    "operation": "CALL",
                    "output": "",
                    "revert": false,
                    "revertMessage": "",
                    "selector": "fallback",
                    "status": true,
                    "value": "0.114"
                },
                "nodeType": 0
            },
            "3": {
                "event": {
                    "contract": "0x3fda25f27211a138adf211f4c060f2149674be6d",
                    "decodedLog": {
                        "name": "Transacted",
                        "params": [
                            {
                                "name": "msgSender",
                                "type": "address",
                                "value": "0x808b4da0be6c9512e948521452227efc619bea52"
                            },
                            {
                                "name": "otherSigner",
                                "type": "address",
                                "value": "0x689d84c5b5f4424954343c1458e32e4397923ddf"
                            },
                            {
                                "name": "operation",
                                "type": "bytes32",
                                "value": "0xd8c20fe5ca02a9d9f1f201832b875f08a4bed4d47ef6e9f08478b5300253ffdb"
                            },
                            {
                                "name": "toAddress",
                                "type": "address",
                                "value": "0xc03c2db82a715e18301094a3702fe9082c1774c6"
                            },
                            {
                                "name": "value",
                                "type": "uint256",
                                "value": "114,000,000,000,000,000"
                            },
                            {
                                "name": "data",
                                "type": "bytes",
                                "value": "0x"
                            }
                        ],
                        "signature": "Transacted(address,address,bytes32,address,uint256,bytes)"
                    },
                    "id": 3,
                    "logData": "0x000000000000000000000000808b4da0be6c9512e948521452227efc619bea52000000000000000000000000689d84c5b5f4424954343c1458e32e4397923ddfd8c20fe5ca02a9d9f1f201832b875f08a4bed4d47ef6e9f08478b5300253ffdb000000000000000000000000c03c2db82a715e18301094a3702fe9082c1774c6000000000000000000000000000000000000000000000000019502656065000000000000000000000000000000000000000000000000000000000000000000c00000000000000000000000000000000000000000000000000000000000000000",
                    "logDecoded": true,
                    "operation": "EVENT",
                    "revert": false,
                    "status": true,
                    "topics": [
                        "0x59bed9ab5d78073465dd642a9e3e76dfdb7d53bcae9d09df7d0b8f5234d5a806"
                    ]
                },
                "nodeType": 1
            }
        },
        "gasFlame": [
            {
                "children": [
                    {
                        "children": [
                            {
                                "children": [],
                                "depth": 0,
                                "name": "Initial Gas",
                                "value": 23672
                            },
                            {
                                "children": [
                                    {
                                        "children": [],
                                        "depth": 1,
                                        "name": "ecrecover",
                                        "value": 3000
                                    },
                                    {
                                        "children": [],
                                        "depth": 1,
                                        "name": "fallback",
                                        "value": 0
                                    }
                                ],
                                "depth": 0,
                                "name": "Executed Gas",
                                "value": 85356
                            }
                        ],
                        "depth": -1,
                        "name": "Actual Gas Used",
                        "value": 109028
                    },
                    {
                        "children": [],
                        "depth": -1,
                        "name": "Refunded Gas",
                        "value": 0
                    }
                ],
                "depth": -2,
                "name": "Total Gas",
                "value": 109028
            }
        ],
        "isConfirmed": true,
        "mainTrace": [
            {
                "children": [
                    {
                        "children": [
                            {
                                "children": [],
                                "depth": 1,
                                "id": 1,
                                "order": 1
                            },
                            {
                                "children": [],
                                "depth": 1,
                                "id": 2,
                                "order": 2
                            },
                            {
                                "children": [],
                                "depth": 1,
                                "id": 3,
                                "order": 3
                            }
                        ],
                        "depth": 0,
                        "id": 0,
                        "order": 0
                    }
                ],
                "depth": -1,
                "id": -1,
                "order": -1
            }
        ],
        "mainTraceNodeCount": 4,
        "parentIdMap": {
            "0": -1,
            "1": 0,
            "2": 0,
            "3": 0
        },
        "tidyTrace": [
            {
                "children": [
                    {
                        "children": [
                            {
                                "children": [],
                                "depth": 1,
                                "id": 1,
                                "order": 1
                            },
                            {
                                "children": [],
                                "depth": 1,
                                "id": 2,
                                "order": 2
                            },
                            {
                                "children": [],
                                "depth": 1,
                                "id": 3,
                                "order": 3
                            }
                        ],
                        "depth": 0,
                        "id": 0,
                        "order": 0
                    }
                ],
                "depth": -1,
                "id": -1,
                "order": -1
            }
        ],
        "tidyTraceNodeCount": 4
    },
    "state_change": {
        "stateChanges": [
            {
                "address": "0x3fda25f27211a138adf211f4c060f2149674be6d",
                "erc": "",
                "slots": [
                    {
                        "current": "0x0000000000000000000000000000000000000000000000000000000000095598",
                        "key": "0x000000000000000000000000000000000000000000000000000000000000000b",
                        "prev": "0x000000000000000000000000000000000000000000000000000000000009558e"
                    }
                ],
                "storageVariables": []
            }
        ]
    }
}