{
    "balance_change": {
        "balanceChanges": []
    },
    "profile": {
        "basic_info": {
            "baseFee": "",
            "blockNumber": 5693267,
            "callData": "0xa9059cbb0000000000000000000000003c02290922a3618a4646e3bbca65853ea45fe7c6000000000000000000000000000000000000000000008b51e62b4c5b8eaff800",
            "debugEnable": true,
            "errorInfo": "invalid opcode: INVALID",
            "eventCount": 0,
            "feeRecipient": "0x70aec4b9cffa7b55c0711b82dd719049d615e21d",
            "formatValue": "0",
            "gasLimit": 60000,
            "gasPrice": "20",
            "gasUsed": 60000,
            "intTxnCount": 0,
            "internalRevert": false,
            "internalRevertMessage": "",
            "isContractCreation": false,
            "isFlashloan": false,
            "maxFee": "",
            "nonce": 15,
            "overwritedBlockNumber": -1,
            "priorityFee": "",
            "receiver": "0x5c3a228510d246b78a3765c20221cbf3082b44a4",
            "revertMessage": "",
            "sender": "0x1c2c6ed16691d3d32a51120187a3e48430a003fe",
            "simulationEnable": true,
            "sourceTxnHash": "0xcc6e3e2a8868447052fe5104a8747c18317e9ab40b3c590a7cec6a5ab726dcae",
            "status": false,
            "timestamp": "2018-05-28T20:40:35Z",
            "transactionFee": "0.0012",
            "txnHash": "0xcc6e3e2a8868447052fe5104a8747c18317e9ab40b3c590a7cec6a5ab726dcae",
            "txnIndex": 3,
            "type": 0,
            "value": "0"
        },
        "fund_flow": [],
        "token_infos": [
            {
                "address": "0xc02aaa39b223fe8d0a0e5c4f27ead9083c756cc2",
                "decimals": 18
            },
            {
                "address": "0xeeeeeeeeeeeeeeeeeeeeeeeeeeeeeeeeeeeeeeee",
                "decimals": 18
            }
        ]
    },
    "address_label": {
        "labels": [
            {
                "address": "0x0000000000000000000000000000000000000002",
                "label": "Precompiled"
            },
            {
                "address": "0x0000000000000000000000000000000000000003",
                "label": "Precompiled"
            },
            {
                "address": "0x0000000000000000000000000000000000000004",
                "label": "Precompiled"
            },
            {
                "address": "0xeeeeeeeeeeeeeeeeeeeeeeeeeeeeeeeeeeeeeeee",
                "label": "Ether"
            },
            {
                "address": "0x5c3a228510d246b78a3765c20221cbf3082b44a4",
                "label": "Storiqa (STQ)"
            },
            {
                "address": "0x3c02290922a3618a4646e3bbca65853ea45fe7c6",
                "label": "Indodax 5"
            },
            {
                "address": "0x0000000000000000000000000000000000000001",
                "label": "Precompiled"
            }
        ]
    },
    "trace": {
        "accountLabels": null,
        "dataMap": {
            "-1": {
                "invocation": {
                    "address": "0x1c2c6ed16691d3d32a51120187a3e48430a003fe",
                    "callData": "",
                    "decodedMethod": null,
                    "errorInfo": "",
                    "fromAddress": "",
                    "gasUsed": 0,
                    "id": -1,
                    "methodDecoded": false,
                    "operation": "",
                    "output": "",
                    "revert": false,
                    "revertMessage": "",
                    "selector": "",
                    "status": false,
                    "value": ""
                },
                "nodeType": 0
            },
            "0": {
                "invocation": {
                    "address": "0x5c3a228510d246b78a3765c20221cbf3082b44a4",
                    "callData": "0x0000000000000000000000003c02290922a3618a4646e3bbca65853ea45fe7c6000000000000000000000000000000000000000000008b51e62b4c5b8eaff800",
                    "decodedMethod": {
                        "callParams": [
                            {
                                "name": "_to",
                                "type": "address",
                                "value": "0x3c02290922a3618a4646e3bbca65853ea45fe7c6"
                            },
                            {
                                "decimalAvailable": true,
                                "name": "_value",
                                "type": "uint256",
                                "value": "657,919,712,822,860,000,000,000"
                            }
                        ],
                        "constructorArguments": "",
                        "name": "transfer",
                        "returnParams": [],
                        "signature": "transfer(address,uint256)"
                    },
                    "errorInfo": "invalid opcode: INVALID",
                    "fromAddress": "0x1c2c6ed16691d3d32a51120187a3e48430a003fe",
                    "gasUsed": 60000,
                    "id": 0,
                    "methodDecoded": true,
                    "operation": "CALL",
                    "output": "",
                    "revert": true,
                    "revertMessage": "",
                    "selector": "0xa9059cbb",
                    "status": false,
                    "value": "0"
                },
                "nodeType": 0
            }
        },
        "gasFlame": [
            {
                "children": [
                    {
                        "children": [
                            {
                                "children": [],
                                "depth": 0,
                                "name": "Initial Gas",
                                "value": 23384
                            },
                            {
                                "children": [],
                                "depth": 0,
                                "name": "Executed Gas",
                                "value": 36616
                            }
                        ],
                        "depth": -1,
                        "name": "Actual Gas Used",
                        "value": 60000
                    },
                    {
                        "children": [],
                        "depth": -1,
                        "name": "Refunded Gas",
                        "value": 0
                    }
                ],
                "depth": -2,
                "name": "Total Gas",
                "value": 60000
            }
        ],
        "isConfirmed": true,
        "mainTrace": [
            {
                "children": [
                    {
                        "children": [],
                        "depth": 0,
                        "id": 0,
                        "order": 0
                    }
                ],
                "depth": -1,
                "id": -1,
                "order": -1
            }
        ],
        "mainTraceNodeCount": 1,
        "parentIdMap": {
            "0": -1
        },
        "tidyTrace": [
            {
                "children": [
                    {
                        "children": [],
                        "depth": 0,
                        "id": 0,
                        "order": 0
                    }
                ],
                "depth": -1,
                "id": -1,
                "order": -1
            }
        ],
        "tidyTraceNodeCount": 1
    },
    "state_change": {
        "stateChanges": []
    }
}