{
    "balance_change": {
        "balanceChanges": [
            {
                "account": "0x0a1820f0ff7dc9fce0a4f0b589ee14ddae88233c",
                "assets": [
                    {
                        "address": "0xeeeeeeeeeeeeeeeeeeeeeeeeeeeeeeeeeeeeeeee",
                        "amount": "0.995061",
                        "iconUrl": "https://assets.blocksec.com/image/1663669189317-3.png",
                        "isERC1155": false,
                        "isERC721": false,
                        "sign": false,
                        "value": ""
                    }
                ]
            },
            {
                "account": "0x75ef5aeb1b91088b390a4b0f5866f8d07cc6079a",
                "assets": [
                    {
                        "address": "0xeeeeeeeeeeeeeeeeeeeeeeeeeeeeeeeeeeeeeeee",
                        "amount": "0.995061",
                        "iconUrl": "https://assets.blocksec.com/image/1663669189317-3.png",
                        "isERC1155": false,
                        "isERC721": false,
                        "sign": true,
                        "value": ""
                    }
                ]
            }
        ]
    },
    "profile": {
        "basic_info": {
            "baseFee": "",
            "blockNumber": 6914518,
            "callData": "0x3912521500000000000000000000000075ef5aeb1b91088b390a4b0f5866f8d07cc6079a0000000000000000000000000000000000000000000000000dcf2ab51ad8500000000000000000000000000000000000000000000000000000000000000000c0000000000000000000000000000000000000000000000000000000005c235eee000000000000000000000000000000000000000000000000000000000000b5380000000000000000000000000000000000000000000000000000000000000100000000000000000000000000000000000000000000000000000000000000000000000000000000000000000000000000000000000000000000000000000000000000000000000000000000000000000000000000000000000000000000000041e13fb90c5d1aca4c9a2a30ddb94b84e39bc5c26c7fce513bb40ddd94bcb00c9a0d6368aa2344860756772b46159d22b4d2465d3f43894088ec81d52a1301c0d71c00000000000000000000000000000000000000000000000000000000000000",
            "debugEnable": true,
            "errorInfo": "",
            "eventCount": 1,
            "feeRecipient": "0xa855c20a1351acd2690c716e2709c7dff3978d12",
            "formatValue": "0",
            "gasLimit": 500000,
            "gasPrice": "13.5",
            "gasUsed": 90812,
            "intTxnCount": 2,
            "internalRevert": false,
            "internalRevertMessage": "",
            "isContractCreation": false,
            "isFlashloan": false,
            "maxFee": "",
            "nonce": 12506,
            "overwritedBlockNumber": -1,
            "priorityFee": "",
            "receiver": "0x0a1820f0ff7dc9fce0a4f0b589ee14ddae88233c",
            "revertMessage": "",
            "sender": "0x604df452158e7ddf3e44338308edc079a953c9da",
            "simulationEnable": true,
            "sourceTxnHash": "0xccb0f67d1b28e0b87a7f03b8a83549320fce0f823485c561287f54ab5ca8dcb5",
            "status": true,
            "timestamp": "2018-12-19T10:59:59Z",
            "transactionFee": "0.001225962",
            "txnHash": "0xccb0f67d1b28e0b87a7f03b8a83549320fce0f823485c561287f54ab5ca8dcb5",
            "txnIndex": 142,
            "type": 0,
            "value": "0"
        },
        "fund_flow": [
            {
                "amount": "0.995061",
                "from": "0x0a1820f0ff7dc9fce0a4f0b589ee14ddae88233c",
                "id": 1,
                "isERC1155": false,
                "isERC721": false,
                "isReverted": false,
                "order": 1,
                "to": "0x75ef5aeb1b91088b390a4b0f5866f8d07cc6079a",
                "token": "0xeeeeeeeeeeeeeeeeeeeeeeeeeeeeeeeeeeeeeeee"
            }
        ],
        "token_infos": [
            {
                "address": "0xc02aaa39b223fe8d0a0e5c4f27ead9083c756cc2",
                "decimals": 18
            },
            {
                "address": "0xeeeeeeeeeeeeeeeeeeeeeeeeeeeeeeeeeeeeeeee",
                "decimals": 18
            }
        ]
    },
    "address_label": {
        "labels": [
            {
                "address": "0xeeeeeeeeeeeeeeeeeeeeeeeeeeeeeeeeeeeeeeee",
                "label": "Ether"
            },
            {
                "address": "0x75ef5aeb1b91088b390a4b0f5866f8d07cc6079a",
                "label": "BINANCE"
            },
            {
                "address": "0x0000000000000000000000000000000000000001",
                "label": "Precompiled"
            },
            {
                "address": "0x0000000000000000000000000000000000000002",
                "label": "Precompiled"
            },
            {
                "address": "0x0000000000000000000000000000000000000003",
                "label": "Precompiled"
            },
            {
                "address": "0x0000000000000000000000000000000000000004",
                "label": "Precompiled"
            }
        ]
    },
    "trace": {
        "accountLabels": null,
        "dataMap": {
            "-1": {
                "invocation": {
                    "address": "0x604df452158e7ddf3e44338308edc079a953c9da",
                    "callData": "",
                    "decodedMethod": null,
                    "errorInfo": "",
                    "fromAddress": "",
                    "gasUsed": 0,
                    "id": -1,
                    "methodDecoded": false,
                    "operation": "",
                    "output": "",
                    "revert": false,
                    "revertMessage": "",
                    "selector": "",
                    "status": false,
                    "value": ""
                },
                "nodeType": 0
            },
            "0": {
                "invocation": {
                    "address": "0x0a1820f0ff7dc9fce0a4f0b589ee14ddae88233c",
                    "callData": "0x00000000000000000000000075ef5aeb1b91088b390a4b0f5866f8d07cc6079a0000000000000000000000000000000000000000000000000dcf2ab51ad8500000000000000000000000000000000000000000000000000000000000000000c0000000000000000000000000000000000000000000000000000000005c235eee000000000000000000000000000000000000000000000000000000000000b5380000000000000000000000000000000000000000000000000000000000000100000000000000000000000000000000000000000000000000000000000000000000000000000000000000000000000000000000000000000000000000000000000000000000000000000000000000000000000000000000000000000000000041e13fb90c5d1aca4c9a2a30ddb94b84e39bc5c26c7fce513bb40ddd94bcb00c9a0d6368aa2344860756772b46159d22b4d2465d3f43894088ec81d52a1301c0d71c00000000000000000000000000000000000000000000000000000000000000",
                    "decodedMethod": {
                        "callParams": [
                            {
                                "name": "toAddress",
                                "type": "address",
                                "value": "0x75ef5aeb1b91088b390a4b0f5866f8d07cc6079a"
                            },
                            {
                                "name": "value",
                                "type": "uint256",
                                "value": "995,061,000,000,000,000"
                            },
                            {
                                "name": "data",
                                "type": "bytes",
                                "value": "0x"
                            },
                            {
                                "name": "expireTime",
                                "type": "uint256",
                                "value": "1,545,821,934"
                            },
                            {
                                "name": "sequenceId",
                                "type": "uint256",
                                "value": "46,392"
                            },
                            {
                                "name": "signature",
                                "type": "bytes",
                                "value": "0xe13fb90c5d1aca4c9a2a30ddb94b84e39bc5c26c7fce513bb40ddd94bcb00c9a0d6368aa2344860756772b46159d22b4d2465d3f43894088ec81d52a1301c0d71c"
                            }
                        ],
                        "constructorArguments": "",
                        "name": "sendMultiSig",
                        "returnParams": [],
                        "signature": "sendMultiSig(address,uint256,bytes,uint256,uint256,bytes)"
                    },
                    "errorInfo": "",
                    "fromAddress": "0x604df452158e7ddf3e44338308edc079a953c9da",
                    "gasUsed": 90812,
                    "id": 0,
                    "methodDecoded": true,
                    "operation": "CALL",
                    "output": "",
                    "revert": false,
                    "revertMessage": "",
                    "selector": "0x39125215",
                    "status": true,
                    "value": "0"
                },
                "nodeType": 0
            },
            "1": {
                "invocation": {
                    "address": "0x0000000000000000000000000000000000000001",
                    "callData": "0x7da8b25c13ccb23fa44b05058ac70e5f3ae449758229724597b2943a000000000000000000000000000000000000000000000000000000000000001ce13fb90c5d1aca4c9a2a30ddb94b84e39bc5c26c7fce513bb40ddd94bcb00c9a0d6368aa2344860756772b46159d22b4d2465d3f43894088ec81d52a1301c0d7",
                    "decodedMethod": {
                        "callParams": [
                            {
                                "name": "hash",
                                "type": "bytes32",
                                "value": "0xeb24fc957da8b25c13ccb23fa44b05058ac70e5f3ae449758229724597b2943a"
                            },
                            {
                                "name": "v",
                                "type": "uint256",
                                "value": "28"
                            },
                            {
                                "name": "r",
                                "type": "bytes32",
                                "value": "0xe13fb90c5d1aca4c9a2a30ddb94b84e39bc5c26c7fce513bb40ddd94bcb00c9a"
                            },
                            {
                                "name": "s",
                                "type": "bytes32",
                                "value": "0x0d6368aa2344860756772b46159d22b4d2465d3f43894088ec81d52a1301c0d7"
                            }
                        ],
                        "constructorArguments": "",
                        "name": "ecrecover",
                        "returnParams": [
                            {
                                "name": "",
                                "type": "address",
                                "value": "0x9f1f850aba6d909454e2ec0827f285d577484661"
                            }
                        ],
                        "signature": "ecrecover(bytes32,uint256,bytes32,bytes32)"
                    },
                    "errorInfo": "",
                    "fromAddress": "0x0a1820f0ff7dc9fce0a4f0b589ee14ddae88233c",
                    "gasUsed": 3000,
                    "id": 1,
                    "methodDecoded": true,
                    "operation": "CALL",
                    "output": "0x0000000000000000000000009f1f850aba6d909454e2ec0827f285d577484661",
                    "revert": false,
                    "revertMessage": "",
                    "selector": "0xeb24fc95",
                    "status": true,
                    "value": "0"
                },
                "nodeType": 0
            },
            "2": {
                "invocation": {
                    "address": "0x75ef5aeb1b91088b390a4b0f5866f8d07cc6079a",
                    "callData": "0x",
                    "decodedMethod": null,
                    "errorInfo": "",
                    "fromAddress": "0x0a1820f0ff7dc9fce0a4f0b589ee14ddae88233c",
                    "gasUsed": 0,
                    "id": 2,
                    "methodDecoded": false,
                    "operation": "CALL",
                    "output": "",
                    "revert": false,
                    "revertMessage": "",
                    "selector": "fallback",
                    "status": true,
                    "value": "0.995061"
                },
                "nodeType": 0
            },
            "3": {
                "event": {
                    "contract": "0x0a1820f0ff7dc9fce0a4f0b589ee14ddae88233c",
                    "decodedLog": {
                        "name": "Transacted",
                        "params": [
                            {
                                "name": "msgSender",
                                "type": "address",
                                "value": "0x604df452158e7ddf3e44338308edc079a953c9da"
                            },
                            {
                                "name": "otherSigner",
                                "type": "address",
                                "value": "0x9f1f850aba6d909454e2ec0827f285d577484661"
                            },
                            {
                                "name": "operation",
                                "type": "bytes32",
                                "value": "0xeb24fc957da8b25c13ccb23fa44b05058ac70e5f3ae449758229724597b2943a"
                            },
                            {
                                "name": "toAddress",
                                "type": "address",
                                "value": "0x75ef5aeb1b91088b390a4b0f5866f8d07cc6079a"
                            },
                            {
                                "name": "value",
                                "type": "uint256",
                                "value": "995,061,000,000,000,000"
                            },
                            {
                                "name": "data",
                                "type": "bytes",
                                "value": "0x"
                            }
                        ],
                        "signature": "Transacted(address,address,bytes32,address,uint256,bytes)"
                    },
                    "id": 3,
                    "logData": "0x000000000000000000000000604df452158e7ddf3e44338308edc079a953c9da0000000000000000000000009f1f850aba6d909454e2ec0827f285d577484661eb24fc957da8b25c13ccb23fa44b05058ac70e5f3ae449758229724597b2943a00000000000000000000000075ef5aeb1b91088b390a4b0f5866f8d07cc6079a0000000000000000000000000000000000000000000000000dcf2ab51ad8500000000000000000000000000000000000000000000000000000000000000000c00000000000000000000000000000000000000000000000000000000000000000",
                    "logDecoded": true,
                    "operation": "EVENT",
                    "revert": false,
                    "status": true,
                    "topics": [
                        "0x59bed9ab5d78073465dd642a9e3e76dfdb7d53bcae9d09df7d0b8f5234d5a806"
                    ]
                },
                "nodeType": 1
            }
        },
        "gasFlame": [
            {
                "children": [
                    {
                        "children": [
                            {
                                "children": [],
                                "depth": 0,
                                "name": "Initial Gas",
                                "value": 29272
                            },
                            {
                                "children": [
                                    {
                                        "children": [],
                                        "depth": 1,
                                        "name": "ecrecover",
                                        "value": 3000
                                    },
                                    {
                                        "children": [],
                                        "depth": 1,
                                        "name": "fallback",
                                        "value": 0
                                    }
                                ],
                                "depth": 0,
                                "name": "Executed Gas",
                                "value": 61540
                            }
                        ],
                        "depth": -1,
                        "name": "Actual Gas Used",
                        "value": 90812
                    },
                    {
                        "children": [],
                        "depth": -1,
                        "name": "Refunded Gas",
                        "value": 0
                    }
                ],
                "depth": -2,
                "name": "Total Gas",
                "value": 90812
            }
        ],
        "isConfirmed": true,
        "mainTrace": [
            {
                "children": [
                    {
                        "children": [
                            {
                                "children": [],
                                "depth": 1,
                                "id": 1,
                                "order": 1
                            },
                            {
                                "children": [],
                                "depth": 1,
                                "id": 2,
                                "order": 2
                            },
                            {
                                "children": [],
                                "depth": 1,
                                "id": 3,
                                "order": 3
                            }
                        ],
                        "depth": 0,
                        "id": 0,
                        "order": 0
                    }
                ],
                "depth": -1,
                "id": -1,
                "order": -1
            }
        ],
        "mainTraceNodeCount": 4,
        "parentIdMap": {
            "0": -1,
            "1": 0,
            "2": 0,
            "3": 0
        },
        "tidyTrace": [
            {
                "children": [
                    {
                        "children": [
                            {
                                "children": [],
                                "depth": 1,
                                "id": 1,
                                "order": 1
                            },
                            {
                                "children": [],
                                "depth": 1,
                                "id": 2,
                                "order": 2
                            },
                            {
                                "children": [],
                                "depth": 1,
                                "id": 3,
                                "order": 3
                            }
                        ],
                        "depth": 0,
                        "id": 0,
                        "order": 0
                    }
                ],
                "depth": -1,
                "id": -1,
                "order": -1
            }
        ],
        "tidyTraceNodeCount": 4
    },
    "state_change": {
        "stateChanges": [
            {
                "address": "0x0a1820f0ff7dc9fce0a4f0b589ee14ddae88233c",
                "erc": "",
                "slots": [
                    {
                        "current": "0x000000000000000000000000000000000000000000000000000000000000b538",
                        "key": "0x0000000000000000000000000000000000000000000000000000000000000002",
                        "prev": "0x000000000000000000000000000000000000000000000000000000000000b50a"
                    }
                ],
                "storageVariables": []
            }
        ]
    }
}