{
    "balance_change": {
        "balanceChanges": [
            {
                "account": "0x90d3861b88455a3e879cd64bb7be29e7b9f7c389",
                "assets": [
                    {
                        "address": "0x8fdcc30eda7e94f1c12ce0280df6cd531e8365c5",
                        "amount": "1,306.2912516",
                        "iconUrl": "",
                        "isERC1155": false,
                        "isERC721": false,
                        "sign": false,
                        "value": ""
                    }
                ]
            },
            {
                "account": "0x51bcf99e51fd07a74cf5bf06ec3f6b66a3394cc5",
                "assets": [
                    {
                        "address": "0x8fdcc30eda7e94f1c12ce0280df6cd531e8365c5",
                        "amount": "1,306.2912516",
                        "iconUrl": "",
                        "isERC1155": false,
                        "isERC721": false,
                        "sign": true,
                        "value": ""
                    }
                ]
            }
        ]
    },
    "profile": {
        "basic_info": {
            "baseFee": "",
            "blockNumber": 6806657,
            "callData": "0xa9059cbb00000000000000000000000051bcf99e51fd07a74cf5bf06ec3f6b66a3394cc5000000000000000000000000000000000000000000000046d06ecc4d726ba000",
            "debugEnable": true,
            "errorInfo": "",
            "eventCount": 1,
            "feeRecipient": "0xa39b0ff4c3413db472d62a12a7a474544b58bc25",
            "formatValue": "0",
            "gasLimit": 121000,
            "gasPrice": "5",
            "gasUsed": 22244,
            "intTxnCount": 0,
            "internalRevert": false,
            "internalRevertMessage": "",
            "isContractCreation": false,
            "isFlashloan": false,
            "maxFee": "",
            "nonce": 7,
            "overwritedBlockNumber": -1,
            "priorityFee": "",
            "receiver": "0x8fdcc30eda7e94f1c12ce0280df6cd531e8365c5",
            "revertMessage": "",
            "sender": "0x90d3861b88455a3e879cd64bb7be29e7b9f7c389",
            "simulationEnable": true,
            "sourceTxnHash": "0xcce5761790fc5efc2228b3077da40e5177654d207f6e25df004149915588858c",
            "status": true,
            "timestamp": "2018-12-01T13:27:20Z",
            "transactionFee": "0.00011122",
            "txnHash": "0xcce5761790fc5efc2228b3077da40e5177654d207f6e25df004149915588858c",
            "txnIndex": 82,
            "type": 0,
            "value": "0"
        },
        "fund_flow": [
            {
                "amount": "1,306.2912516",
                "from": "0x90d3861b88455a3e879cd64bb7be29e7b9f7c389",
                "id": 1,
                "isERC1155": false,
                "isERC721": false,
                "isReverted": false,
                "order": 1,
                "to": "0x51bcf99e51fd07a74cf5bf06ec3f6b66a3394cc5",
                "token": "0x8fdcc30eda7e94f1c12ce0280df6cd531e8365c5"
            }
        ],
        "token_infos": [
            {
                "address": "0xc02aaa39b223fe8d0a0e5c4f27ead9083c756cc2",
                "decimals": 18
            },
            {
                "address": "0xeeeeeeeeeeeeeeeeeeeeeeeeeeeeeeeeeeeeeeee",
                "decimals": 18
            },
            {
                "address": "0x8fdcc30eda7e94f1c12ce0280df6cd531e8365c5",
                "decimals": 18
            }
        ]
    },
    "address_label": {
        "labels": [
            {
                "address": "0x0000000000000000000000000000000000000004",
                "label": "Precompiled"
            },
            {
                "address": "0xeeeeeeeeeeeeeeeeeeeeeeeeeeeeeeeeeeeeeeee",
                "label": "Ether"
            },
            {
                "address": "0x8fdcc30eda7e94f1c12ce0280df6cd531e8365c5",
                "label": "CpcToken (CPCT)"
            },
            {
                "address": "0x0000000000000000000000000000000000000001",
                "label": "Precompiled"
            },
            {
                "address": "0x0000000000000000000000000000000000000002",
                "label": "Precompiled"
            },
            {
                "address": "0x0000000000000000000000000000000000000003",
                "label": "Precompiled"
            }
        ]
    },
    "trace": {
        "accountLabels": null,
        "dataMap": {
            "-1": {
                "invocation": {
                    "address": "0x90d3861b88455a3e879cd64bb7be29e7b9f7c389",
                    "callData": "",
                    "decodedMethod": null,
                    "errorInfo": "",
                    "fromAddress": "",
                    "gasUsed": 0,
                    "id": -1,
                    "methodDecoded": false,
                    "operation": "",
                    "output": "",
                    "revert": false,
                    "revertMessage": "",
                    "selector": "",
                    "status": false,
                    "value": ""
                },
                "nodeType": 0
            },
            "0": {
                "invocation": {
                    "address": "0x8fdcc30eda7e94f1c12ce0280df6cd531e8365c5",
                    "callData": "0x00000000000000000000000051bcf99e51fd07a74cf5bf06ec3f6b66a3394cc5000000000000000000000000000000000000000000000046d06ecc4d726ba000",
                    "decodedMethod": {
                        "callParams": [
                            {
                                "name": "_to",
                                "type": "address",
                                "value": "0x51bcf99e51fd07a74cf5bf06ec3f6b66a3394cc5"
                            },
                            {
                                "decimalAvailable": true,
                                "name": "_value",
                                "type": "uint256",
                                "value": "1,306,291,251,600,000,000,000"
                            }
                        ],
                        "constructorArguments": "",
                        "name": "transfer",
                        "returnParams": [
                            {
                                "name": "success",
                                "type": "bool",
                                "value": true
                            }
                        ],
                        "signature": "transfer(address,uint256)"
                    },
                    "errorInfo": "",
                    "fromAddress": "0x90d3861b88455a3e879cd64bb7be29e7b9f7c389",
                    "gasUsed": 22244,
                    "id": 0,
                    "methodDecoded": true,
                    "operation": "CALL",
                    "output": "0x0000000000000000000000000000000000000000000000000000000000000001",
                    "revert": false,
                    "revertMessage": "",
                    "selector": "0xa9059cbb",
                    "status": true,
                    "value": "0"
                },
                "nodeType": 0
            },
            "1": {
                "event": {
                    "contract": "0x8fdcc30eda7e94f1c12ce0280df6cd531e8365c5",
                    "decodedLog": {
                        "name": "Transfer",
                        "params": [
                            {
                                "name": "_from",
                                "type": "address",
                                "value": "0x90d3861b88455a3e879cd64bb7be29e7b9f7c389"
                            },
                            {
                                "name": "_to",
                                "type": "address",
                                "value": "0x51bcf99e51fd07a74cf5bf06ec3f6b66a3394cc5"
                            },
                            {
                                "decimalAvailable": true,
                                "name": "_value",
                                "type": "uint256",
                                "value": "1,306,291,251,600,000,000,000"
                            }
                        ],
                        "signature": "Transfer(address,address,uint256)"
                    },
                    "id": 1,
                    "logData": "0x000000000000000000000000000000000000000000000046d06ecc4d726ba000",
                    "logDecoded": true,
                    "operation": "EVENT",
                    "revert": false,
                    "status": true,
                    "topics": [
                        "0xddf252ad1be2c89b69c2b068fc378daa952ba7f163c4a11628f55a4df523b3ef",
                        "0x00000000000000000000000090d3861b88455a3e879cd64bb7be29e7b9f7c389",
                        "0x00000000000000000000000051bcf99e51fd07a74cf5bf06ec3f6b66a3394cc5"
                    ]
                },
                "nodeType": 1
            }
        },
        "gasFlame": [
            {
                "children": [
                    {
                        "children": [
                            {
                                "children": [],
                                "depth": 0,
                                "name": "Initial Gas",
                                "value": 23320
                            },
                            {
                                "children": [],
                                "depth": 0,
                                "name": "Executed Gas",
                                "value": 13924
                            }
                        ],
                        "depth": -1,
                        "name": "Actual Gas Used",
                        "value": 22244
                    },
                    {
                        "children": [],
                        "depth": -1,
                        "name": "Refunded Gas",
                        "value": 15000
                    }
                ],
                "depth": -2,
                "name": "Total Gas",
                "value": 37244
            }
        ],
        "isConfirmed": true,
        "mainTrace": [
            {
                "children": [
                    {
                        "children": [
                            {
                                "children": [],
                                "depth": 1,
                                "id": 1,
                                "order": 1
                            }
                        ],
                        "depth": 0,
                        "id": 0,
                        "order": 0
                    }
                ],
                "depth": -1,
                "id": -1,
                "order": -1
            }
        ],
        "mainTraceNodeCount": 2,
        "parentIdMap": {
            "0": -1,
            "1": 0
        },
        "tidyTrace": [
            {
                "children": [
                    {
                        "children": [
                            {
                                "children": [],
                                "depth": 1,
                                "id": 1,
                                "order": 1
                            }
                        ],
                        "depth": 0,
                        "id": 0,
                        "order": 0
                    }
                ],
                "depth": -1,
                "id": -1,
                "order": -1
            }
        ],
        "tidyTraceNodeCount": 2
    },
    "state_change": {
        "stateChanges": [
            {
                "address": "0x8fdcc30eda7e94f1c12ce0280df6cd531e8365c5",
                "erc": "ERC-20",
                "slots": [
                    {
                        "current": "0x0000000000000000000000000000000000000000000000000000000000000000",
                        "key": "0x92817c728ef7225030f651c674cf3a4519fe330ecb0e990844c7bd67b8e407d0",
                        "prev": "0x000000000000000000000000000000000000000000000046d06ecc4d726ba000"
                    },
                    {
                        "current": "0x0000000000000000000000000000000000000000000000b7b54fc8b211b74000",
                        "key": "0x5ee7fa5e52d9b978309536af7a8b8b93358a3fdff2efa2178ed0553d018099e1",
                        "prev": "0x000000000000000000000000000000000000000000000070e4e0fc649f4ba000"
                    }
                ],
                "storageVariables": [
                    {
                        "name": "balances",
                        "type": "mapping(address => uint256)",
                        "value": {
                            "pairs": [
                                {
                                    "key": "0x51bcf99e51fd07a74cf5bf06ec3f6b66a3394cc5",
                                    "value": {
                                        "current": "3388819047200000000000",
                                        "prev": "2082527795600000000000",
                                        "typeTag": 1
                                    }
                                },
                                {
                                    "key": "0x90d3861b88455a3e879cd64bb7be29e7b9f7c389",
                                    "value": {
                                        "current": "0",
                                        "prev": "1306291251600000000000",
                                        "typeTag": 1
                                    }
                                }
                            ],
                            "typeTag": 4
                        }
                    }
                ]
            }
        ]
    }
}