{
    "balance_change": {
        "balanceChanges": [
            {
                "account": "0x9a75eabb817b9cbff16d84c18dbb2dadb18309c6",
                "assets": [
                    {
                        "address": "0xbc2faad1ec407571249b0e874a9abd840111389b",
                        "amount": "140.69920697",
                        "iconUrl": "",
                        "isERC1155": false,
                        "isERC721": false,
                        "sign": false,
                        "value": ""
                    }
                ]
            },
            {
                "account": "0x196dec10726efe2af6db44ee3143d0c63c5572d7",
                "assets": [
                    {
                        "address": "0xbc2faad1ec407571249b0e874a9abd840111389b",
                        "amount": "140.69920697",
                        "iconUrl": "",
                        "isERC1155": false,
                        "isERC721": false,
                        "sign": true,
                        "value": ""
                    }
                ]
            }
        ]
    },
    "profile": {
        "basic_info": {
            "baseFee": "",
            "blockNumber": 9112144,
            "callData": "0xa9059cbb000000000000000000000000196dec10726efe2af6db44ee3143d0c63c5572d70000000000000000000000000000000000000000000000000000000346a1f3b9",
            "debugEnable": true,
            "errorInfo": "",
            "eventCount": 1,
            "feeRecipient": "0xea674fdde714fd979de3edf0f56aa9716b898ec8",
            "formatValue": "0",
            "gasLimit": 100000,
            "gasPrice": "2.7",
            "gasUsed": 39615,
            "intTxnCount": 0,
            "internalRevert": false,
            "internalRevertMessage": "",
            "isContractCreation": false,
            "isFlashloan": false,
            "maxFee": "",
            "nonce": 276993,
            "overwritedBlockNumber": -1,
            "priorityFee": "",
            "receiver": "0xbc2faad1ec407571249b0e874a9abd840111389b",
            "revertMessage": "",
            "sender": "0x9a75eabb817b9cbff16d84c18dbb2dadb18309c6",
            "simulationEnable": true,
            "sourceTxnHash": "0xcc9b91d919214dbcb200bf98a48407643ceaf1cabcfc58b9821e050f624e587f",
            "status": true,
            "timestamp": "2019-12-15T20:37:31Z",
            "transactionFee": "0.0001069605",
            "txnHash": "0xcc9b91d919214dbcb200bf98a48407643ceaf1cabcfc58b9821e050f624e587f",
            "txnIndex": 152,
            "type": 0,
            "value": "0"
        },
        "fund_flow": [
            {
                "amount": "140.69920697",
                "from": "0x9a75eabb817b9cbff16d84c18dbb2dadb18309c6",
                "id": 1,
                "isERC1155": false,
                "isERC721": false,
                "isReverted": false,
                "order": 1,
                "to": "0x196dec10726efe2af6db44ee3143d0c63c5572d7",
                "token": "0xbc2faad1ec407571249b0e874a9abd840111389b"
            }
        ],
        "token_infos": [
            {
                "address": "0xbc2faad1ec407571249b0e874a9abd840111389b",
                "decimals": 8
            },
            {
                "address": "0xc02aaa39b223fe8d0a0e5c4f27ead9083c756cc2",
                "decimals": 18
            },
            {
                "address": "0xeeeeeeeeeeeeeeeeeeeeeeeeeeeeeeeeeeeeeeee",
                "decimals": 18
            }
        ]
    },
    "address_label": {
        "labels": [
            {
                "address": "0x0000000000000000000000000000000000000002",
                "label": "Precompiled"
            },
            {
                "address": "0x0000000000000000000000000000000000000003",
                "label": "Precompiled"
            },
            {
                "address": "0x0000000000000000000000000000000000000004",
                "label": "Precompiled"
            },
            {
                "address": "0xeeeeeeeeeeeeeeeeeeeeeeeeeeeeeeeeeeeeeeee",
                "label": "Ether"
            },
            {
                "address": "0xbc2faad1ec407571249b0e874a9abd840111389b",
                "label": "BFX"
            },
            {
                "address": "0x0000000000000000000000000000000000000001",
                "label": "Precompiled"
            }
        ]
    },
    "trace": {
        "accountLabels": null,
        "dataMap": {
            "-1": {
                "invocation": {
                    "address": "0x9a75eabb817b9cbff16d84c18dbb2dadb18309c6",
                    "callData": "",
                    "decodedMethod": null,
                    "errorInfo": "",
                    "fromAddress": "",
                    "gasUsed": 0,
                    "id": -1,
                    "methodDecoded": false,
                    "operation": "",
                    "output": "",
                    "revert": false,
                    "revertMessage": "",
                    "selector": "",
                    "status": false,
                    "value": ""
                },
                "nodeType": 0
            },
            "0": {
                "invocation": {
                    "address": "0xbc2faad1ec407571249b0e874a9abd840111389b",
                    "callData": "0x000000000000000000000000196dec10726efe2af6db44ee3143d0c63c5572d70000000000000000000000000000000000000000000000000000000346a1f3b9",
                    "decodedMethod": {
                        "callParams": [
                            {
                                "name": "_to",
                                "type": "address",
                                "value": "0x196dec10726efe2af6db44ee3143d0c63c5572d7"
                            },
                            {
                                "decimalAvailable": true,
                                "name": "_value",
                                "type": "uint256",
                                "value": "14,069,920,697"
                            }
                        ],
                        "constructorArguments": "",
                        "name": "transfer",
                        "returnParams": [
                            {
                                "name": "success",
                                "type": "bool",
                                "value": true
                            }
                        ],
                        "signature": "transfer(address,uint256)"
                    },
                    "errorInfo": "",
                    "fromAddress": "0x9a75eabb817b9cbff16d84c18dbb2dadb18309c6",
                    "gasUsed": 39615,
                    "id": 0,
                    "methodDecoded": true,
                    "operation": "CALL",
                    "output": "0x0000000000000000000000000000000000000000000000000000000000000001",
                    "revert": false,
                    "revertMessage": "",
                    "selector": "0xa9059cbb",
                    "status": true,
                    "value": "0"
                },
                "nodeType": 0
            },
            "1": {
                "event": {
                    "contract": "0xbc2faad1ec407571249b0e874a9abd840111389b",
                    "decodedLog": {
                        "name": "Transfer",
                        "params": [
                            {
                                "name": "_from",
                                "type": "address",
                                "value": "0x9a75eabb817b9cbff16d84c18dbb2dadb18309c6"
                            },
                            {
                                "name": "_to",
                                "type": "address",
                                "value": "0x196dec10726efe2af6db44ee3143d0c63c5572d7"
                            },
                            {
                                "decimalAvailable": true,
                                "name": "_value",
                                "type": "uint256",
                                "value": "14,069,920,697"
                            }
                        ],
                        "signature": "Transfer(address,address,uint256)"
                    },
                    "id": 1,
                    "logData": "0x0000000000000000000000000000000000000000000000000000000346a1f3b9",
                    "logDecoded": true,
                    "operation": "EVENT",
                    "revert": false,
                    "status": true,
                    "topics": [
                        "0xddf252ad1be2c89b69c2b068fc378daa952ba7f163c4a11628f55a4df523b3ef",
                        "0x0000000000000000000000009a75eabb817b9cbff16d84c18dbb2dadb18309c6",
                        "0x000000000000000000000000196dec10726efe2af6db44ee3143d0c63c5572d7"
                    ]
                },
                "nodeType": 1
            }
        },
        "gasFlame": [
            {
                "children": [
                    {
                        "children": [
                            {
                                "children": [],
                                "depth": 0,
                                "name": "Initial Gas",
                                "value": 21620
                            },
                            {
                                "children": [],
                                "depth": 0,
                                "name": "Executed Gas",
                                "value": 17995
                            }
                        ],
                        "depth": -1,
                        "name": "Actual Gas Used",
                        "value": 39615
                    },
                    {
                        "children": [],
                        "depth": -1,
                        "name": "Refunded Gas",
                        "value": 0
                    }
                ],
                "depth": -2,
                "name": "Total Gas",
                "value": 39615
            }
        ],
        "isConfirmed": true,
        "mainTrace": [
            {
                "children": [
                    {
                        "children": [
                            {
                                "children": [],
                                "depth": 1,
                                "id": 1,
                                "order": 1
                            }
                        ],
                        "depth": 0,
                        "id": 0,
                        "order": 0
                    }
                ],
                "depth": -1,
                "id": -1,
                "order": -1
            }
        ],
        "mainTraceNodeCount": 2,
        "parentIdMap": {
            "0": -1,
            "1": 0
        },
        "tidyTrace": [
            {
                "children": [
                    {
                        "children": [
                            {
                                "children": [],
                                "depth": 1,
                                "id": 1,
                                "order": 1
                            }
                        ],
                        "depth": 0,
                        "id": 0,
                        "order": 0
                    }
                ],
                "depth": -1,
                "id": -1,
                "order": -1
            }
        ],
        "tidyTraceNodeCount": 2
    },
    "state_change": {
        "stateChanges": [
            {
                "address": "0xbc2faad1ec407571249b0e874a9abd840111389b",
                "erc": "ERC-20",
                "slots": [
                    {
                        "current": "0x00000000000000000000000000000000000000000000000000006ff4177229d5",
                        "key": "0xf31b6963c87947f27e83f4c2a929424b71d6c58e912b93d504a6d09dbb45a64d",
                        "prev": "0x00000000000000000000000000000000000000000000000000006ff75e141d8e"
                    },
                    {
                        "current": "0x00000000000000000000000000000000000000000000000000000052d9e7bbca",
                        "key": "0x369eac9962f0c161d84f3f31128d90fe46cbf72724146f07243f12cf5953a56e",
                        "prev": "0x0000000000000000000000000000000000000000000000000000004f9345c811"
                    }
                ],
                "storageVariables": [
                    {
                        "name": "balanceOf",
                        "type": "mapping(address => uint256)",
                        "value": {
                            "pairs": [
                                {
                                    "key": "0x196dec10726efe2af6db44ee3143d0c63c5572d7",
                                    "value": {
                                        "current": "355843161034",
                                        "prev": "341773240337",
                                        "typeTag": 1
                                    }
                                },
                                {
                                    "key": "0x9a75eabb817b9cbff16d84c18dbb2dadb18309c6",
                                    "value": {
                                        "current": "123094156061141",
                                        "prev": "123108225981838",
                                        "typeTag": 1
                                    }
                                }
                            ],
                            "typeTag": 4
                        }
                    }
                ]
            }
        ]
    }
}