{
    "balance_change": {
        "balanceChanges": [
            {
                "account": "0x8f37b056690767e7cf5c02b62cc24424983ccd4c",
                "assets": [
                    {
                        "address": "0x00c83aecc790e8a4453e5dd3b0b4b3680501a7a7",
                        "amount": "367,396",
                        "iconUrl": "https://assets.blocksec.com/icon/1c4d4a06af354be51b1e27acc8d55ce751179c09f3ac384e498f06a95cbc7c8a.png",
                        "isERC1155": false,
                        "isERC721": false,
                        "sign": false,
                        "value": "19051.98693"
                    }
                ]
            },
            {
                "account": "0xa9d1e08c7793af67e9d92fe308d5697fb81d3e43",
                "assets": [
                    {
                        "address": "0x00c83aecc790e8a4453e5dd3b0b4b3680501a7a7",
                        "amount": "367,396",
                        "iconUrl": "https://assets.blocksec.com/icon/1c4d4a06af354be51b1e27acc8d55ce751179c09f3ac384e498f06a95cbc7c8a.png",
                        "isERC1155": false,
                        "isERC721": false,
                        "sign": true,
                        "value": "19051.98693"
                    }
                ]
            }
        ]
    },
    "profile": {
        "basic_info": {
            "baseFee": "6.321895685",
            "blockNumber": 15407594,
            "callData": "0xa9059cbb000000000000000000000000a9d1e08c7793af67e9d92fe308d5697fb81d3e43000000000000000000000000000000000000000000004dcc93babc9116100000",
            "debugEnable": true,
            "errorInfo": "",
            "eventCount": 2,
            "feeRecipient": "0xb7e390864a90b7b923c9f9310c6f98aafe43f707",
            "formatValue": "0",
            "gasLimit": 250000,
            "gasPrice": "8.321895685",
            "gasUsed": 87431,
            "intTxnCount": 8,
            "internalRevert": false,
            "internalRevertMessage": "",
            "isContractCreation": false,
            "isFlashloan": false,
            "maxFee": "14.75",
            "nonce": 1,
            "overwritedBlockNumber": -1,
            "priorityFee": "2",
            "receiver": "0x00c83aecc790e8a4453e5dd3b0b4b3680501a7a7",
            "revertMessage": "",
            "sender": "0x8f37b056690767e7cf5c02b62cc24424983ccd4c",
            "simulationEnable": true,
            "sourceTxnHash": "0xcc01672899bf2ec736b3aa6c9880f5e790c540926b86d3e384363f09dc05b115",
            "status": true,
            "timestamp": "2022-08-25T06:39:55Z",
            "transactionFee": "0.000727591661635235",
            "txnHash": "0xcc01672899bf2ec736b3aa6c9880f5e790c540926b86d3e384363f09dc05b115",
            "txnIndex": 138,
            "type": 2,
            "value": "0"
        },
        "fund_flow": [
            {
                "amount": "367,396",
                "from": "0x8f37b056690767e7cf5c02b62cc24424983ccd4c",
                "id": 1,
                "isERC1155": false,
                "isERC721": false,
                "isReverted": false,
                "order": 1,
                "to": "0xa9d1e08c7793af67e9d92fe308d5697fb81d3e43",
                "token": "0x00c83aecc790e8a4453e5dd3b0b4b3680501a7a7"
            }
        ],
        "token_infos": [
            {
                "address": "0x00c83aecc790e8a4453e5dd3b0b4b3680501a7a7",
                "decimals": 18
            },
            {
                "address": "0xc02aaa39b223fe8d0a0e5c4f27ead9083c756cc2",
                "decimals": 18
            },
            {
                "address": "0xeeeeeeeeeeeeeeeeeeeeeeeeeeeeeeeeeeeeeeee",
                "decimals": 18
            }
        ]
    },
    "address_label": {
        "labels": [
            {
                "address": "0xeeeeeeeeeeeeeeeeeeeeeeeeeeeeeeeeeeeeeeee",
                "label": "Ether"
            },
            {
                "address": "0x00c83aecc790e8a4453e5dd3b0b4b3680501a7a7",
                "label": "Skale Network: SKL Token"
            },
            {
                "address": "0x0000000000000000000000000000000000000003",
                "label": "Precompiled"
            },
            {
                "address": "0x0000000000000000000000000000000000000004",
                "label": "Precompiled"
            },
            {
                "address": "0xc04a10fd5e6513242558f47331568abd6185a310",
                "label": "AdminUpgradeabilityProxy_c04a_a310"
            },
            {
                "address": "0x8f37b056690767e7cf5c02b62cc24424983ccd4c",
                "label": "COINBASE"
            },
            {
                "address": "0xda2918c2fd86a97e09e555de6ca395f9414c1d94",
                "label": "ContractManager"
            },
            {
                "address": "0x1820a4b7618bde71dce8cdc73aab6c95905fad24",
                "label": "ERC1820Registry"
            },
            {
                "address": "0xa9d1e08c7793af67e9d92fe308d5697fb81d3e43",
                "label": "Coinbase 10"
            },
            {
                "address": "0xfa67be664d34c7b2e3d360f831219a96185cb8be",
                "label": "TokenState"
            },
            {
                "address": "0x0000000000000000000000000000000000000000",
                "label": "Null Address"
            },
            {
                "address": "0x4ee5f270572285776814e32952446e9b7ee15c86",
                "label": "AdminUpgradeabilityProxy_4ee5_5c86"
            },
            {
                "address": "0x06dd71dab27c1a3e0b172d53735f00bf1a66eb79",
                "label": "AdminUpgradeabilityProxy_06dd_eb79"
            },
            {
                "address": "0xbea3489620bce66a462153e98db07d149e4fc3b3",
                "label": "DelegationController"
            },
            {
                "address": "0x0000000000000000000000000000000000000001",
                "label": "Precompiled"
            },
            {
                "address": "0x0000000000000000000000000000000000000002",
                "label": "Precompiled"
            }
        ]
    },
    "trace": {
        "accountLabels": null,
        "dataMap": {
            "-1": {
                "invocation": {
                    "address": "0x8f37b056690767e7cf5c02b62cc24424983ccd4c",
                    "callData": "",
                    "decodedMethod": null,
                    "errorInfo": "",
                    "fromAddress": "",
                    "gasUsed": 0,
                    "id": -1,
                    "methodDecoded": false,
                    "operation": "",
                    "output": "",
                    "revert": false,
                    "revertMessage": "",
                    "selector": "",
                    "status": false,
                    "value": ""
                },
                "nodeType": 0
            },
            "0": {
                "invocation": {
                    "address": "0x00c83aecc790e8a4453e5dd3b0b4b3680501a7a7",
                    "callData": "0x000000000000000000000000a9d1e08c7793af67e9d92fe308d5697fb81d3e43000000000000000000000000000000000000000000004dcc93babc9116100000",
                    "decodedMethod": {
                        "callParams": [
                            {
                                "name": "recipient",
                                "type": "address",
                                "value": "0xa9d1e08c7793af67e9d92fe308d5697fb81d3e43"
                            },
                            {
                                "decimalAvailable": true,
                                "name": "amount",
                                "type": "uint256",
                                "value": "367,396,000,000,000,000,000,000"
                            }
                        ],
                        "constructorArguments": "",
                        "name": "transfer",
                        "returnParams": [
                            {
                                "name": "",
                                "type": "bool",
                                "value": true
                            }
                        ],
                        "signature": "transfer(address,uint256)"
                    },
                    "errorInfo": "",
                    "fromAddress": "0x8f37b056690767e7cf5c02b62cc24424983ccd4c",
                    "gasUsed": 87431,
                    "id": 0,
                    "methodDecoded": true,
                    "operation": "CALL",
                    "output": "0x0000000000000000000000000000000000000000000000000000000000000001",
                    "revert": false,
                    "revertMessage": "",
                    "selector": "0xa9059cbb",
                    "status": true,
                    "value": "0"
                },
                "nodeType": 0
            },
            "1": {
                "invocation": {
                    "address": "0x1820a4b7618bde71dce8cdc73aab6c95905fad24",
                    "callData": "0x0000000000000000000000008f37b056690767e7cf5c02b62cc24424983ccd4c29ddb589b1fb5fc7cf394961c1adf5f8c6454761adf795e67fe149f658abe895",
                    "decodedMethod": {
                        "callParams": [
                            {
                                "name": "_addr",
                                "type": "address",
                                "value": "0x8f37b056690767e7cf5c02b62cc24424983ccd4c"
                            },
                            {
                                "name": "_interfaceHash",
                                "type": "bytes32",
                                "value": "0x29ddb589b1fb5fc7cf394961c1adf5f8c6454761adf795e67fe149f658abe895"
                            }
                        ],
                        "constructorArguments": "",
                        "name": "getInterfaceImplementer",
                        "returnParams": [
                            {
                                "name": "",
                                "type": "address",
                                "value": "0x0000000000000000000000000000000000000000"
                            }
                        ],
                        "signature": "getInterfaceImplementer(address,bytes32)"
                    },
                    "errorInfo": "",
                    "fromAddress": "0x00c83aecc790e8a4453e5dd3b0b4b3680501a7a7",
                    "gasUsed": 2942,
                    "id": 1,
                    "methodDecoded": true,
                    "operation": "STATICCALL",
                    "output": "0x0000000000000000000000000000000000000000000000000000000000000000",
                    "revert": false,
                    "revertMessage": "",
                    "selector": "0xaabbb8ca",
                    "status": true,
                    "value": "0"
                },
                "nodeType": 0
            },
            "10": {
                "invocation": {
                    "address": "0x1820a4b7618bde71dce8cdc73aab6c95905fad24",
                    "callData": "0x000000000000000000000000a9d1e08c7793af67e9d92fe308d5697fb81d3e43b281fc8c12954d22544db45de3159a39272895b169a852b314f9cc762e44c53b",
                    "decodedMethod": {
                        "callParams": [
                            {
                                "name": "_addr",
                                "type": "address",
                                "value": "0xa9d1e08c7793af67e9d92fe308d5697fb81d3e43"
                            },
                            {
                                "name": "_interfaceHash",
                                "type": "bytes32",
                                "value": "0xb281fc8c12954d22544db45de3159a39272895b169a852b314f9cc762e44c53b"
                            }
                        ],
                        "constructorArguments": "",
                        "name": "getInterfaceImplementer",
                        "returnParams": [
                            {
                                "name": "",
                                "type": "address",
                                "value": "0x0000000000000000000000000000000000000000"
                            }
                        ],
                        "signature": "getInterfaceImplementer(address,bytes32)"
                    },
                    "errorInfo": "",
                    "fromAddress": "0x00c83aecc790e8a4453e5dd3b0b4b3680501a7a7",
                    "gasUsed": 2942,
                    "id": 10,
                    "methodDecoded": true,
                    "operation": "STATICCALL",
                    "output": "0x0000000000000000000000000000000000000000000000000000000000000000",
                    "revert": false,
                    "revertMessage": "",
                    "selector": "0xaabbb8ca",
                    "status": true,
                    "value": "0"
                },
                "nodeType": 0
            },
            "2": {
                "invocation": {
                    "address": "0xc04a10fd5e6513242558f47331568abd6185a310",
                    "callData": "0x0000000000000000000000000000000000000000000000000000000000000020000000000000000000000000000000000000000000000000000000000000000a546f6b656e537461746500000000000000000000000000000000000000000000",
                    "decodedMethod": {
                        "callParams": [
                            {
                                "name": "name",
                                "type": "string",
                                "value": "TokenState"
                            }
                        ],
                        "constructorArguments": "",
                        "name": "getContract",
                        "returnParams": [
                            {
                                "name": "contractAddress",
                                "type": "address",
                                "value": "0x4ee5f270572285776814e32952446e9b7ee15c86"
                            }
                        ],
                        "signature": "getContract(string)"
                    },
                    "errorInfo": "",
                    "fromAddress": "0x00c83aecc790e8a4453e5dd3b0b4b3680501a7a7",
                    "gasUsed": 10584,
                    "id": 2,
                    "methodDecoded": true,
                    "operation": "STATICCALL",
                    "output": "0x0000000000000000000000004ee5f270572285776814e32952446e9b7ee15c86",
                    "revert": false,
                    "revertMessage": "",
                    "selector": "0x35817773",
                    "status": true,
                    "value": "0"
                },
                "nodeType": 0
            },
            "3": {
                "invocation": {
                    "address": "0xda2918c2fd86a97e09e555de6ca395f9414c1d94",
                    "callData": "0x0000000000000000000000000000000000000000000000000000000000000020000000000000000000000000000000000000000000000000000000000000000a546f6b656e537461746500000000000000000000000000000000000000000000",
                    "decodedMethod": {
                        "callParams": [
                            {
                                "name": "name",
                                "type": "string",
                                "value": "TokenState"
                            }
                        ],
                        "constructorArguments": "",
                        "name": "getContract",
                        "returnParams": [
                            {
                                "name": "contractAddress",
                                "type": "address",
                                "value": "0x4ee5f270572285776814e32952446e9b7ee15c86"
                            }
                        ],
                        "signature": "getContract(string)"
                    },
                    "errorInfo": "",
                    "fromAddress": "0xc04a10fd5e6513242558f47331568abd6185a310",
                    "gasUsed": 3304,
                    "id": 3,
                    "methodDecoded": true,
                    "operation": "DELEGATECALL",
                    "output": "0x0000000000000000000000004ee5f270572285776814e32952446e9b7ee15c86",
                    "revert": false,
                    "revertMessage": "",
                    "selector": "0x35817773",
                    "status": true,
                    "value": "0"
                },
                "nodeType": 0
            },
            "4": {
                "invocation": {
                    "address": "0x4ee5f270572285776814e32952446e9b7ee15c86",
                    "callData": "0x0000000000000000000000008f37b056690767e7cf5c02b62cc24424983ccd4c",
                    "decodedMethod": {
                        "callParams": [
                            {
                                "name": "holder",
                                "type": "address",
                                "value": "0x8f37b056690767e7cf5c02b62cc24424983ccd4c"
                            }
                        ],
                        "constructorArguments": "",
                        "name": "getAndUpdateLockedAmount",
                        "returnParams": [
                            {
                                "name": "",
                                "type": "uint256",
                                "value": "0"
                            }
                        ],
                        "signature": "getAndUpdateLockedAmount(address)"
                    },
                    "errorInfo": "",
                    "fromAddress": "0x00c83aecc790e8a4453e5dd3b0b4b3680501a7a7",
                    "gasUsed": 22734,
                    "id": 4,
                    "methodDecoded": true,
                    "operation": "CALL",
                    "output": "0x0000000000000000000000000000000000000000000000000000000000000000",
                    "revert": false,
                    "revertMessage": "",
                    "selector": "0xfa8dacba",
                    "status": true,
                    "value": "0"
                },
                "nodeType": 0
            },
            "5": {
                "invocation": {
                    "address": "0xfa67be664d34c7b2e3d360f831219a96185cb8be",
                    "callData": "0x0000000000000000000000008f37b056690767e7cf5c02b62cc24424983ccd4c",
                    "decodedMethod": {
                        "callParams": [
                            {
                                "name": "holder",
                                "type": "address",
                                "value": "0x8f37b056690767e7cf5c02b62cc24424983ccd4c"
                            }
                        ],
                        "constructorArguments": "",
                        "name": "getAndUpdateLockedAmount",
                        "returnParams": [
                            {
                                "name": "",
                                "type": "uint256",
                                "value": "0"
                            }
                        ],
                        "signature": "getAndUpdateLockedAmount(address)"
                    },
                    "errorInfo": "",
                    "fromAddress": "0x4ee5f270572285776814e32952446e9b7ee15c86",
                    "gasUsed": 15463,
                    "id": 5,
                    "methodDecoded": true,
                    "operation": "DELEGATECALL",
                    "output": "0x0000000000000000000000000000000000000000000000000000000000000000",
                    "revert": false,
                    "revertMessage": "",
                    "selector": "0xfa8dacba",
                    "status": true,
                    "value": "0"
                },
                "nodeType": 0
            },
            "6": {
                "invocation": {
                    "address": "0x06dd71dab27c1a3e0b172d53735f00bf1a66eb79",
                    "callData": "0x0000000000000000000000008f37b056690767e7cf5c02b62cc24424983ccd4c",
                    "decodedMethod": {
                        "callParams": [
                            {
                                "name": "holder",
                                "type": "address",
                                "value": "0x8f37b056690767e7cf5c02b62cc24424983ccd4c"
                            }
                        ],
                        "constructorArguments": "",
                        "name": "getDelegationsByHolderLength",
                        "returnParams": [
                            {
                                "name": "",
                                "type": "uint256",
                                "value": "0"
                            }
                        ],
                        "signature": "getDelegationsByHolderLength(address)"
                    },
                    "errorInfo": "",
                    "fromAddress": "0x4ee5f270572285776814e32952446e9b7ee15c86",
                    "gasUsed": 9879,
                    "id": 6,
                    "methodDecoded": true,
                    "operation": "STATICCALL",
                    "output": "0x0000000000000000000000000000000000000000000000000000000000000000",
                    "revert": false,
                    "revertMessage": "",
                    "selector": "0xdda641ae",
                    "status": true,
                    "value": "0"
                },
                "nodeType": 0
            },
            "7": {
                "invocation": {
                    "address": "0xbea3489620bce66a462153e98db07d149e4fc3b3",
                    "callData": "0x0000000000000000000000008f37b056690767e7cf5c02b62cc24424983ccd4c",
                    "decodedMethod": {
                        "callParams": [
                            {
                                "name": "holder",
                                "type": "address",
                                "value": "0x8f37b056690767e7cf5c02b62cc24424983ccd4c"
                            }
                        ],
                        "constructorArguments": "",
                        "name": "getDelegationsByHolderLength",
                        "returnParams": [
                            {
                                "name": "",
                                "type": "uint256",
                                "value": "0"
                            }
                        ],
                        "signature": "getDelegationsByHolderLength(address)"
                    },
                    "errorInfo": "",
                    "fromAddress": "0x06dd71dab27c1a3e0b172d53735f00bf1a66eb79",
                    "gasUsed": 2608,
                    "id": 7,
                    "methodDecoded": true,
                    "operation": "DELEGATECALL",
                    "output": "0x0000000000000000000000000000000000000000000000000000000000000000",
                    "revert": false,
                    "revertMessage": "",
                    "selector": "0xdda641ae",
                    "status": true,
                    "value": "0"
                },
                "nodeType": 0
            },
            "8": {
                "event": {
                    "contract": "0x00c83aecc790e8a4453e5dd3b0b4b3680501a7a7",
                    "decodedLog": {
                        "name": "Sent",
                        "params": [
                            {
                                "name": "operator",
                                "type": "address",
                                "value": "0x8f37b056690767e7cf5c02b62cc24424983ccd4c"
                            },
                            {
                                "name": "from",
                                "type": "address",
                                "value": "0x8f37b056690767e7cf5c02b62cc24424983ccd4c"
                            },
                            {
                                "name": "to",
                                "type": "address",
                                "value": "0xa9d1e08c7793af67e9d92fe308d5697fb81d3e43"
                            },
                            {
                                "name": "amount",
                                "type": "uint256",
                                "value": "367,396,000,000,000,000,000,000"
                            },
                            {
                                "name": "data",
                                "type": "bytes",
                                "value": "0x"
                            },
                            {
                                "name": "operatorData",
                                "type": "bytes",
                                "value": "0x"
                            }
                        ],
                        "signature": "Sent(address,address,address,uint256,bytes,bytes)"
                    },
                    "id": 8,
                    "logData": "0x000000000000000000000000000000000000000000004dcc93babc91161000000000000000000000000000000000000000000000000000000000000000000060000000000000000000000000000000000000000000000000000000000000008000000000000000000000000000000000000000000000000000000000000000000000000000000000000000000000000000000000000000000000000000000000",
                    "logDecoded": true,
                    "operation": "EVENT",
                    "revert": false,
                    "status": true,
                    "topics": [
                        "0x06b541ddaa720db2b10a4d0cdac39b8d360425fc073085fac19bc82614677987",
                        "0x0000000000000000000000008f37b056690767e7cf5c02b62cc24424983ccd4c",
                        "0x0000000000000000000000008f37b056690767e7cf5c02b62cc24424983ccd4c",
                        "0x000000000000000000000000a9d1e08c7793af67e9d92fe308d5697fb81d3e43"
                    ]
                },
                "nodeType": 1
            },
            "9": {
                "event": {
                    "contract": "0x00c83aecc790e8a4453e5dd3b0b4b3680501a7a7",
                    "decodedLog": {
                        "name": "Transfer",
                        "params": [
                            {
                                "name": "from",
                                "type": "address",
                                "value": "0x8f37b056690767e7cf5c02b62cc24424983ccd4c"
                            },
                            {
                                "name": "to",
                                "type": "address",
                                "value": "0xa9d1e08c7793af67e9d92fe308d5697fb81d3e43"
                            },
                            {
                                "decimalAvailable": true,
                                "name": "value",
                                "type": "uint256",
                                "value": "367,396,000,000,000,000,000,000"
                            }
                        ],
                        "signature": "Transfer(address,address,uint256)"
                    },
                    "id": 9,
                    "logData": "0x000000000000000000000000000000000000000000004dcc93babc9116100000",
                    "logDecoded": true,
                    "operation": "EVENT",
                    "revert": false,
                    "status": true,
                    "topics": [
                        "0xddf252ad1be2c89b69c2b068fc378daa952ba7f163c4a11628f55a4df523b3ef",
                        "0x0000000000000000000000008f37b056690767e7cf5c02b62cc24424983ccd4c",
                        "0x000000000000000000000000a9d1e08c7793af67e9d92fe308d5697fb81d3e43"
                    ]
                },
                "nodeType": 1
            }
        },
        "gasFlame": [
            {
                "children": [
                    {
                        "children": [
                            {
                                "children": [],
                                "depth": 0,
                                "name": "Initial Gas",
                                "value": 21656
                            },
                            {
                                "children": [
                                    {
                                        "children": [],
                                        "depth": 1,
                                        "name": "getInterfaceImplementer",
                                        "value": 2942
                                    },
                                    {
                                        "children": [
                                            {
                                                "children": [],
                                                "depth": 2,
                                                "name": "getContract",
                                                "value": 3304
                                            }
                                        ],
                                        "depth": 1,
                                        "name": "getContract",
                                        "value": 10584
                                    },
                                    {
                                        "children": [
                                            {
                                                "children": [
                                                    {
                                                        "children": [
                                                            {
                                                                "children": [],
                                                                "depth": 4,
                                                                "name": "getDelegationsByHolderLength",
                                                                "value": 2608
                                                            }
                                                        ],
                                                        "depth": 3,
                                                        "name": "getDelegationsByHolderLength",
                                                        "value": 9879
                                                    }
                                                ],
                                                "depth": 2,
                                                "name": "getAndUpdateLockedAmount",
                                                "value": 15463
                                            }
                                        ],
                                        "depth": 1,
                                        "name": "getAndUpdateLockedAmount",
                                        "value": 22734
                                    },
                                    {
                                        "children": [],
                                        "depth": 1,
                                        "name": "getInterfaceImplementer",
                                        "value": 2942
                                    }
                                ],
                                "depth": 0,
                                "name": "Executed Gas",
                                "value": 76175
                            }
                        ],
                        "depth": -1,
                        "name": "Actual Gas Used",
                        "value": 87431
                    },
                    {
                        "children": [],
                        "depth": -1,
                        "name": "Refunded Gas",
                        "value": 10400
                    }
                ],
                "depth": -2,
                "name": "Total Gas",
                "value": 97831
            }
        ],
        "isConfirmed": true,
        "mainTrace": [
            {
                "children": [
                    {
                        "children": [
                            {
                                "children": [],
                                "depth": 1,
                                "id": 1,
                                "order": 1
                            },
                            {
                                "children": [
                                    {
                                        "children": [],
                                        "depth": 2,
                                        "id": 3,
                                        "order": 3
                                    }
                                ],
                                "depth": 1,
                                "id": 2,
                                "order": 2
                            },
                            {
                                "children": [
                                    {
                                        "children": [
                                            {
                                                "children": [
                                                    {
                                                        "children": [],
                                                        "depth": 4,
                                                        "id": 7,
                                                        "order": 7
                                                    }
                                                ],
                                                "depth": 3,
                                                "id": 6,
                                                "order": 6
                                            }
                                        ],
                                        "depth": 2,
                                        "id": 5,
                                        "order": 5
                                    }
                                ],
                                "depth": 1,
                                "id": 4,
                                "order": 4
                            },
                            {
                                "children": [],
                                "depth": 1,
                                "id": 8,
                                "order": 8
                            },
                            {
                                "children": [],
                                "depth": 1,
                                "id": 9,
                                "order": 9
                            },
                            {
                                "children": [],
                                "depth": 1,
                                "id": 10,
                                "order": 10
                            }
                        ],
                        "depth": 0,
                        "id": 0,
                        "order": 0
                    }
                ],
                "depth": -1,
                "id": -1,
                "order": -1
            }
        ],
        "mainTraceNodeCount": 11,
        "parentIdMap": {
            "0": -1,
            "1": 0,
            "10": 0,
            "2": 0,
            "3": 2,
            "4": 0,
            "5": 4,
            "6": 5,
            "7": 6,
            "8": 0,
            "9": 0
        },
        "tidyTrace": [
            {
                "children": [
                    {
                        "children": [
                            {
                                "children": [
                                    {
                                        "children": [],
                                        "depth": 2,
                                        "id": 5,
                                        "order": 5
                                    }
                                ],
                                "depth": 1,
                                "id": 4,
                                "order": 4
                            },
                            {
                                "children": [],
                                "depth": 1,
                                "id": 8,
                                "order": 8
                            },
                            {
                                "children": [],
                                "depth": 1,
                                "id": 9,
                                "order": 9
                            }
                        ],
                        "depth": 0,
                        "id": 0,
                        "order": 0
                    }
                ],
                "depth": -1,
                "id": -1,
                "order": -1
            }
        ],
        "tidyTraceNodeCount": 5
    },
    "state_change": {
        "stateChanges": [
            {
                "address": "0x00c83aecc790e8a4453e5dd3b0b4b3680501a7a7",
                "erc": "ERC-20",
                "slots": [
                    {
                        "current": "0x0000000000000000000000000000000000000000000000000000000000000000",
                        "key": "0xe6a996398b549679a37747a7a9c6bb4edea60185b845a7d5e4859852e188b293",
                        "prev": "0x000000000000000000000000000000000000000000004dcc93babc9116100000"
                    },
                    {
                        "current": "0x000000000000000000000000000000000000000000047fb2344774b2dd938280",
                        "key": "0xe59ea70579fc940d336c4140ab7c25fbeca09fc5009ad018e4cfb2ee22e47a67",
                        "prev": "0x0000000000000000000000000000000000000000000431e5a08cb821c7838280"
                    }
                ],
                "storageVariables": [
                    {
                        "name": "_balances",
                        "type": "mapping(address => uint256)",
                        "value": {
                            "pairs": [
                                {
                                    "key": "0x8f37b056690767e7cf5c02b62cc24424983ccd4c",
                                    "value": {
                                        "current": "0",
                                        "prev": "367396000000000000000000",
                                        "typeTag": 1
                                    }
                                },
                                {
                                    "key": "0xa9d1e08c7793af67e9d92fe308d5697fb81d3e43",
                                    "value": {
                                        "current": "5438731109336006830293632",
                                        "prev": "5071335109336006830293632",
                                        "typeTag": 1
                                    }
                                }
                            ],
                            "typeTag": 4
                        }
                    }
                ]
            }
        ]
    }
}