{
    "balance_change": {
        "balanceChanges": []
    },
    "profile": {
        "basic_info": {
            "baseFee": "",
            "blockNumber": 11610860,
            "callData": "0x202ee0ed0000000000000000000000000000000000000000000000000000000000000058000000000000000000000000000000000000000000000000000000001c4c743e",
            "debugEnable": true,
            "errorInfo": "",
            "eventCount": 3,
            "feeRecipient": "0x04668ec2f57cc15c381b461b9fedab5d451c8f7f",
            "formatValue": "0",
            "gasLimit": 500000,
            "gasPrice": "126",
            "gasUsed": 156243,
            "intTxnCount": 0,
            "internalRevert": false,
            "internalRevertMessage": "",
            "isContractCreation": false,
            "isFlashloan": false,
            "maxFee": "",
            "nonce": 88306,
            "overwritedBlockNumber": -1,
            "priorityFee": "",
            "receiver": "0xa7cc7f00fe455ce78a12af610e2ec375e4f43e5b",
            "revertMessage": "",
            "sender": "0x87bf62ec62f872a4c74b1a39bb143702c5364785",
            "simulationEnable": true,
            "sourceTxnHash": "0xccd52c9e4b688a22c9ae9a467c70fa5dcc5a3163ebb8168d4869f9c850d48d2e",
            "status": true,
            "timestamp": "2021-01-08T00:53:16Z",
            "transactionFee": "0.019686618",
            "txnHash": "0xccd52c9e4b688a22c9ae9a467c70fa5dcc5a3163ebb8168d4869f9c850d48d2e",
            "txnIndex": 173,
            "type": 0,
            "value": "0"
        },
        "fund_flow": [],
        "token_infos": [
            {
                "address": "0xc02aaa39b223fe8d0a0e5c4f27ead9083c756cc2",
                "decimals": 18
            },
            {
                "address": "0xeeeeeeeeeeeeeeeeeeeeeeeeeeeeeeeeeeeeeeee",
                "decimals": 18
            }
        ]
    },
    "address_label": {
        "labels": [
            {
                "address": "0xeeeeeeeeeeeeeeeeeeeeeeeeeeeeeeeeeeeeeeee",
                "label": "Ether"
            },
            {
                "address": "0xa7cc7f00fe455ce78a12af610e2ec375e4f43e5b",
                "label": "AccessControlledAggregator"
            },
            {
                "address": "0x0000000000000000000000000000000000000001",
                "label": "Precompiled"
            },
            {
                "address": "0x0000000000000000000000000000000000000002",
                "label": "Precompiled"
            },
            {
                "address": "0x0000000000000000000000000000000000000003",
                "label": "Precompiled"
            },
            {
                "address": "0x0000000000000000000000000000000000000004",
                "label": "Precompiled"
            }
        ]
    },
    "trace": {
        "accountLabels": null,
        "dataMap": {
            "-1": {
                "invocation": {
                    "address": "0x87bf62ec62f872a4c74b1a39bb143702c5364785",
                    "callData": "",
                    "decodedMethod": null,
                    "errorInfo": "",
                    "fromAddress": "",
                    "gasUsed": 0,
                    "id": -1,
                    "methodDecoded": false,
                    "operation": "",
                    "output": "",
                    "revert": false,
                    "revertMessage": "",
                    "selector": "",
                    "status": false,
                    "value": ""
                },
                "nodeType": 0
            },
            "0": {
                "invocation": {
                    "address": "0xa7cc7f00fe455ce78a12af610e2ec375e4f43e5b",
                    "callData": "0x0000000000000000000000000000000000000000000000000000000000000058000000000000000000000000000000000000000000000000000000001c4c743e",
                    "decodedMethod": {
                        "callParams": [
                            {
                                "name": "_roundId",
                                "type": "uint256",
                                "value": "88"
                            },
                            {
                                "name": "_submission",
                                "type": "int256",
                                "value": "474,772,542"
                            }
                        ],
                        "constructorArguments": "",
                        "name": "submit",
                        "returnParams": [],
                        "signature": "submit(uint256,int256)"
                    },
                    "errorInfo": "",
                    "fromAddress": "0x87bf62ec62f872a4c74b1a39bb143702c5364785",
                    "gasUsed": 156243,
                    "id": 0,
                    "methodDecoded": true,
                    "operation": "CALL",
                    "output": "",
                    "revert": false,
                    "revertMessage": "",
                    "selector": "0x202ee0ed",
                    "status": true,
                    "value": "0"
                },
                "nodeType": 0
            },
            "1": {
                "event": {
                    "contract": "0xa7cc7f00fe455ce78a12af610e2ec375e4f43e5b",
                    "decodedLog": {
                        "name": "NewRound",
                        "params": [
                            {
                                "name": "roundId",
                                "type": "uint256",
                                "value": "88"
                            },
                            {
                                "name": "startedBy",
                                "type": "address",
                                "value": "0x87bf62ec62f872a4c74b1a39bb143702c5364785"
                            },
                            {
                                "name": "startedAt",
                                "type": "uint256",
                                "value": "1,610,067,196"
                            }
                        ],
                        "signature": "NewRound(uint256,address,uint256)"
                    },
                    "id": 1,
                    "logData": "0x000000000000000000000000000000000000000000000000000000005ff7acfc",
                    "logDecoded": true,
                    "operation": "EVENT",
                    "revert": false,
                    "status": true,
                    "topics": [
                        "0x0109fc6f55cf40689f02fbaad7af7fe7bbac8a3d2186600afc7d3e10cac60271",
                        "0x0000000000000000000000000000000000000000000000000000000000000058",
                        "0x00000000000000000000000087bf62ec62f872a4c74b1a39bb143702c5364785"
                    ]
                },
                "nodeType": 1
            },
            "2": {
                "event": {
                    "contract": "0xa7cc7f00fe455ce78a12af610e2ec375e4f43e5b",
                    "decodedLog": {
                        "name": "SubmissionReceived",
                        "params": [
                            {
                                "name": "submission",
                                "type": "int256",
                                "value": "474,772,542"
                            },
                            {
                                "name": "round",
                                "type": "uint32",
                                "value": "88"
                            },
                            {
                                "name": "oracle",
                                "type": "address",
                                "value": "0x87bf62ec62f872a4c74b1a39bb143702c5364785"
                            }
                        ],
                        "signature": "SubmissionReceived(int256,uint32,address)"
                    },
                    "id": 2,
                    "logData": "0x",
                    "logDecoded": true,
                    "operation": "EVENT",
                    "revert": false,
                    "status": true,
                    "topics": [
                        "0x92e98423f8adac6e64d0608e519fd1cefb861498385c6dee70d58fc926ddc68c",
                        "0x000000000000000000000000000000000000000000000000000000001c4c743e",
                        "0x0000000000000000000000000000000000000000000000000000000000000058",
                        "0x00000000000000000000000087bf62ec62f872a4c74b1a39bb143702c5364785"
                    ]
                },
                "nodeType": 1
            },
            "3": {
                "event": {
                    "contract": "0xa7cc7f00fe455ce78a12af610e2ec375e4f43e5b",
                    "decodedLog": {
                        "name": "AvailableFundsUpdated",
                        "params": [
                            {
                                "name": "amount",
                                "type": "uint256",
                                "value": "2,342,710,000,000,000,000,000"
                            }
                        ],
                        "signature": "AvailableFundsUpdated(uint256)"
                    },
                    "id": 3,
                    "logData": "0x",
                    "logDecoded": true,
                    "operation": "EVENT",
                    "revert": false,
                    "status": true,
                    "topics": [
                        "0xfe25c73e3b9089fac37d55c4c7efcba6f04af04cebd2fc4d6d7dbb07e1e5234f",
                        "0x00000000000000000000000000000000000000000000007effa1dcca5b5f0000"
                    ]
                },
                "nodeType": 1
            }
        },
        "gasFlame": [
            {
                "children": [
                    {
                        "children": [
                            {
                                "children": [],
                                "depth": 0,
                                "name": "Initial Gas",
                                "value": 21380
                            },
                            {
                                "children": [],
                                "depth": 0,
                                "name": "Executed Gas",
                                "value": 134863
                            }
                        ],
                        "depth": -1,
                        "name": "Actual Gas Used",
                        "value": 156243
                    },
                    {
                        "children": [],
                        "depth": -1,
                        "name": "Refunded Gas",
                        "value": 0
                    }
                ],
                "depth": -2,
                "name": "Total Gas",
                "value": 156243
            }
        ],
        "isConfirmed": true,
        "mainTrace": [
            {
                "children": [
                    {
                        "children": [
                            {
                                "children": [],
                                "depth": 1,
                                "id": 1,
                                "order": 1
                            },
                            {
                                "children": [],
                                "depth": 1,
                                "id": 2,
                                "order": 2
                            },
                            {
                                "children": [],
                                "depth": 1,
                                "id": 3,
                                "order": 3
                            }
                        ],
                        "depth": 0,
                        "id": 0,
                        "order": 0
                    }
                ],
                "depth": -1,
                "id": -1,
                "order": -1
            }
        ],
        "mainTraceNodeCount": 4,
        "parentIdMap": {
            "0": -1,
            "1": 0,
            "2": 0,
            "3": 0
        },
        "tidyTrace": [
            {
                "children": [
                    {
                        "children": [
                            {
                                "children": [],
                                "depth": 1,
                                "id": 1,
                                "order": 1
                            },
                            {
                                "children": [],
                                "depth": 1,
                                "id": 2,
                                "order": 2
                            },
                            {
                                "children": [],
                                "depth": 1,
                                "id": 3,
                                "order": 3
                            }
                        ],
                        "depth": 0,
                        "id": 0,
                        "order": 0
                    }
                ],
                "depth": -1,
                "id": -1,
                "order": -1
            }
        ],
        "tidyTraceNodeCount": 4
    },
    "state_change": {
        "stateChanges": [
            {
                "address": "0xa7cc7f00fe455ce78a12af610e2ec375e4f43e5b",
                "erc": "",
                "slots": [
                    {
                        "current": "0x000000000000001dc119f4f64ca70000000000000000007effa1dcca5b5f0000",
                        "key": "0x000000000000000000000000000000000000000000000000000000000000000d",
                        "prev": "0x000000000000001dadac28612f1b0000000000000000007f130fa95f78eb0000"
                    },
                    {
                        "current": "0x0000000000000000000000000000000000000000000000000000005700000058",
                        "key": "0x0000000000000000000000000000000000000000000000000000000000000007",
                        "prev": "0x0000000000000000000000000000000000000000000000000000005700000057"
                    },
                    {
                        "current": "0x000000000000000000000000136dcc951d8c00000002a3000000000500000009",
                        "key": "0xa721dfae655836a673026038794e49e4d0a9d423357f8850944927f6b148941d",
                        "prev": "0x0000000000000000000000000000000000000000000000000000000000000000"
                    },
                    {
                        "current": "0x000000000000000000000000000000000000000000000000000000005ff7acfc",
                        "key": "0x08ae31aff3dbe84432d25da21feb6e62c57099b18e584c914d98179fde33a981",
                        "prev": "0x0000000000000000000000000000000000000000000000000000000000000000"
                    },
                    {
                        "current": "0x0000005800000058ffffffff000000010000000000000002c7caaf4101c90000",
                        "key": "0xecf000de915800c8a7ebad4e7e9edb1848a35c8ba0f56f2c21eb304584c538ba",
                        "prev": "0x0000005400000057ffffffff000000010000000000000002b45ce2abe43d0000"
                    },
                    {
                        "current": "0x0000000000000000000000000000000000000000000000000000000000000001",
                        "key": "0xa721dfae655836a673026038794e49e4d0a9d423357f8850944927f6b148941c",
                        "prev": "0x0000000000000000000000000000000000000000000000000000000000000000"
                    },
                    {
                        "current": "0x000000000000000000000000000000000000000000000000000000001c4c743e",
                        "key": "0x12569cc14c7897faa6967d7570bd64783faeb4bc4c47b55f43cee66d72d2469e",
                        "prev": "0x0000000000000000000000000000000000000000000000000000000000000000"
                    },
                    {
                        "current": "0x000000000000000000000000000000000000000000000000000000001c4c743e",
                        "key": "0xecf000de915800c8a7ebad4e7e9edb1848a35c8ba0f56f2c21eb304584c538bb",
                        "prev": "0x000000000000000000000000000000000000000000000000000000001d5afc69"
                    }
                ],
                "storageVariables": [
                    {
                        "name": "details",
                        "type": "mapping(uint32 => struct FluxAggregator.RoundDetails)",
                        "value": {
                            "pairs": [
                                {
                                    "key": "88",
                                    "value": {
                                        "fields": [
                                            {
                                                "name": "submissions",
                                                "type": "int256[]",
                                                "value": {
                                                    "elemType": "int256",
                                                    "elems": [
                                                        {
                                                            "index": 0,
                                                            "value": {
                                                                "current": "474772542",
                                                                "prev": "0",
                                                                "typeTag": 1
                                                            }
                                                        }
                                                    ],
                                                    "typeTag": 2
                                                }
                                            },
                                            {
                                                "name": "maxSubmissions",
                                                "type": "uint32",
                                                "value": {
                                                    "current": "9",
                                                    "prev": "0",
                                                    "typeTag": 1
                                                }
                                            },
                                            {
                                                "name": "minSubmissions",
                                                "type": "uint32",
                                                "value": {
                                                    "current": "5",
                                                    "prev": "0",
                                                    "typeTag": 1
                                                }
                                            },
                                            {
                                                "name": "timeout",
                                                "type": "uint32",
                                                "value": {
                                                    "current": "172800",
                                                    "prev": "0",
                                                    "typeTag": 1
                                                }
                                            },
                                            {
                                                "name": "paymentAmount",
                                                "type": "uint128",
                                                "value": {
                                                    "current": "1400000000000000000",
                                                    "prev": "0",
                                                    "typeTag": 1
                                                }
                                            }
                                        ],
                                        "typeTag": 3
                                    }
                                }
                            ],
                            "typeTag": 4
                        }
                    },
                    {
                        "name": "rounds",
                        "type": "mapping(uint32 => struct FluxAggregator.Round)",
                        "value": {
                            "pairs": [
                                {
                                    "key": "88",
                                    "value": {
                                        "fields": [
                                            {
                                                "name": "startedAt",
                                                "type": "uint64",
                                                "value": {
                                                    "current": "1610067196",
                                                    "prev": "0",
                                                    "typeTag": 1
                                                }
                                            },
                                            {
                                                "name": "updatedAt",
                                                "type": "uint64",
                                                "value": {
                                                    "current": "0",
                                                    "prev": "0",
                                                    "typeTag": 1
                                                }
                                            },
                                            {
                                                "name": "answeredInRound",
                                                "type": "uint32",
                                                "value": {
                                                    "current": "0",
                                                    "prev": "0",
                                                    "typeTag": 1
                                                }
                                            }
                                        ],
                                        "typeTag": 3
                                    }
                                }
                            ],
                            "typeTag": 4
                        }
                    },
                    {
                        "name": "oracles",
                        "type": "mapping(address => struct FluxAggregator.OracleStatus)",
                        "value": {
                            "pairs": [
                                {
                                    "key": "0x87bf62ec62f872a4c74b1a39bb143702c5364785",
                                    "value": {
                                        "fields": [
                                            {
                                                "name": "withdrawable",
                                                "type": "uint128",
                                                "value": {
                                                    "current": "51290000000000000000",
                                                    "prev": "49890000000000000000",
                                                    "typeTag": 1
                                                }
                                            },
                                            {
                                                "name": "startingRound",
                                                "type": "uint32",
                                                "value": {
                                                    "current": "1",
                                                    "prev": "1",
                                                    "typeTag": 1
                                                }
                                            },
                                            {
                                                "name": "endingRound",
                                                "type": "uint32",
                                                "value": {
                                                    "current": "4294967295",
                                                    "prev": "4294967295",
                                                    "typeTag": 1
                                                }
                                            },
                                            {
                                                "name": "lastReportedRound",
                                                "type": "uint32",
                                                "value": {
                                                    "current": "88",
                                                    "prev": "87",
                                                    "typeTag": 1
                                                }
                                            },
                                            {
                                                "name": "lastStartedRound",
                                                "type": "uint32",
                                                "value": {
                                                    "current": "88",
                                                    "prev": "84",
                                                    "typeTag": 1
                                                }
                                            },
                                            {
                                                "name": "latestSubmission",
                                                "type": "int256",
                                                "value": {
                                                    "current": "474772542",
                                                    "prev": "492502121",
                                                    "typeTag": 1
                                                }
                                            }
                                        ],
                                        "typeTag": 3
                                    }
                                }
                            ],
                            "typeTag": 4
                        }
                    },
                    {
                        "name": "recordedFunds",
                        "type": "struct FluxAggregator.Funds",
                        "value": {
                            "fields": [
                                {
                                    "name": "available",
                                    "type": "uint128",
                                    "value": {
                                        "current": "2342710000000000000000",
                                        "prev": "2344110000000000000000",
                                        "typeTag": 1
                                    }
                                },
                                {
                                    "name": "allocated",
                                    "type": "uint128",
                                    "value": {
                                        "current": "548870000000000000000",
                                        "prev": "547470000000000000000",
                                        "typeTag": 1
                                    }
                                }
                            ],
                            "typeTag": 3
                        }
                    },
                    {
                        "name": "reportingRoundId",
                        "type": "uint32",
                        "value": {
                            "current": "88",
                            "prev": "87",
                            "typeTag": 1
                        }
                    },
                    {
                        "name": "latestRoundId",
                        "type": "uint32",
                        "value": {
                            "current": "87",
                            "prev": "87",
                            "typeTag": 1
                        }
                    }
                ]
            }
        ]
    }
}