{
    "balance_change": {
        "balanceChanges": [
            {
                "account": "0x0ebb810b1dbe2f6fa4c7843ab236590f243e295a",
                "assets": [
                    {
                        "address": "0xc78cd8ab5a99e295d31da3230319ebc2f285514d",
                        "amount": "1",
                        "iconUrl": "",
                        "isERC1155": false,
                        "isERC721": true,
                        "sign": false,
                        "tokenID": "1881",
                        "value": ""
                    }
                ]
            },
            {
                "account": "0xf4014adc9cd9d5d4ea56bd2baa8bd5fa143f3a7d",
                "assets": [
                    {
                        "address": "0xc78cd8ab5a99e295d31da3230319ebc2f285514d",
                        "amount": "1",
                        "iconUrl": "",
                        "isERC1155": false,
                        "isERC721": true,
                        "sign": true,
                        "tokenID": "1881",
                        "value": ""
                    }
                ]
            }
        ]
    },
    "profile": {
        "basic_info": {
            "baseFee": "7.129073229",
            "blockNumber": 15597496,
            "callData": "0x5e674cf0000000000000000000000000000000000000000000000000000000000000002000000000000000000000000000000000000000000000000000000000000000010000000000000000000000000000000000000000000000000000000000000759",
            "debugEnable": true,
            "errorInfo": "",
            "eventCount": 2,
            "feeRecipient": "0xe8df8bc60961e825100ecfb5c8ac552d1fca3556",
            "formatValue": "0",
            "gasLimit": 262363,
            "gasPrice": "9.629073229",
            "gasUsed": 174909,
            "intTxnCount": 2,
            "internalRevert": false,
            "internalRevertMessage": "",
            "isContractCreation": false,
            "isFlashloan": false,
            "maxFee": "15.859611968",
            "nonce": 264,
            "overwritedBlockNumber": -1,
            "priorityFee": "2.5",
            "receiver": "0xf4014adc9cd9d5d4ea56bd2baa8bd5fa143f3a7d",
            "revertMessage": "",
            "sender": "0x0ebb810b1dbe2f6fa4c7843ab236590f243e295a",
            "simulationEnable": true,
            "sourceTxnHash": "0xccd02763fb7ce1a3efc80523d7810434a101495d59a53cbb2dcfc31de619288f",
            "status": true,
            "timestamp": "2022-09-23T17:20:23Z",
            "transactionFee": "0.001684211569411161",
            "txnHash": "0xccd02763fb7ce1a3efc80523d7810434a101495d59a53cbb2dcfc31de619288f",
            "txnIndex": 13,
            "type": 2,
            "value": "0"
        },
        "fund_flow": [
            {
                "amount": "1",
                "from": "0x0ebb810b1dbe2f6fa4c7843ab236590f243e295a",
                "id": 1,
                "isERC1155": false,
                "isERC721": true,
                "isReverted": false,
                "order": 1,
                "to": "0xf4014adc9cd9d5d4ea56bd2baa8bd5fa143f3a7d",
                "token": "0xc78cd8ab5a99e295d31da3230319ebc2f285514d",
                "tokenID": "1881"
            }
        ],
        "token_infos": [
            {
                "address": "0xeeeeeeeeeeeeeeeeeeeeeeeeeeeeeeeeeeeeeeee",
                "decimals": 18
            },
            {
                "address": "0xc02aaa39b223fe8d0a0e5c4f27ead9083c756cc2",
                "decimals": 18
            }
        ]
    },
    "address_label": {
        "labels": [
            {
                "address": "0x0000000000000000000000000000000000000001",
                "label": "Precompiled"
            },
            {
                "address": "0x0000000000000000000000000000000000000002",
                "label": "Precompiled"
            },
            {
                "address": "0x0000000000000000000000000000000000000003",
                "label": "Precompiled"
            },
            {
                "address": "0x0000000000000000000000000000000000000004",
                "label": "Precompiled"
            },
            {
                "address": "0xeeeeeeeeeeeeeeeeeeeeeeeeeeeeeeeeeeeeeeee",
                "label": "Ether"
            },
            {
                "address": "0xf4014adc9cd9d5d4ea56bd2baa8bd5fa143f3a7d",
                "label": "FundaesForge"
            },
            {
                "address": "0xc78cd8ab5a99e295d31da3230319ebc2f285514d",
                "label": "Fundaes: FUNS Token"
            },
            {
                "address": "0xe8df8bc60961e825100ecfb5c8ac552d1fca3556",
                "label": "RocketNodeDistributor"
            }
        ]
    },
    "trace": {
        "accountLabels": null,
        "dataMap": {
            "-1": {
                "invocation": {
                    "address": "0x0ebb810b1dbe2f6fa4c7843ab236590f243e295a",
                    "callData": "",
                    "decodedMethod": null,
                    "errorInfo": "",
                    "fromAddress": "",
                    "gasUsed": 0,
                    "id": -1,
                    "methodDecoded": false,
                    "operation": "",
                    "output": "",
                    "revert": false,
                    "revertMessage": "",
                    "selector": "",
                    "status": false,
                    "value": ""
                },
                "nodeType": 0
            },
            "0": {
                "invocation": {
                    "address": "0xf4014adc9cd9d5d4ea56bd2baa8bd5fa143f3a7d",
                    "callData": "0x000000000000000000000000000000000000000000000000000000000000002000000000000000000000000000000000000000000000000000000000000000010000000000000000000000000000000000000000000000000000000000000759",
                    "decodedMethod": {
                        "callParams": [
                            {
                                "name": "tokenIds",
                                "type": "uint256[]",
                                "value": [
                                    "1,881"
                                ]
                            }
                        ],
                        "constructorArguments": "",
                        "name": "ForgeNFT",
                        "returnParams": [],
                        "signature": "ForgeNFT(uint256[])"
                    },
                    "errorInfo": "",
                    "fromAddress": "0x0ebb810b1dbe2f6fa4c7843ab236590f243e295a",
                    "gasUsed": 174909,
                    "id": 0,
                    "methodDecoded": true,
                    "operation": "CALL",
                    "output": "",
                    "revert": false,
                    "revertMessage": "",
                    "selector": "0x5e674cf0",
                    "status": true,
                    "value": "0"
                },
                "nodeType": 0
            },
            "1": {
                "invocation": {
                    "address": "0xc78cd8ab5a99e295d31da3230319ebc2f285514d",
                    "callData": "0x0000000000000000000000000ebb810b1dbe2f6fa4c7843ab236590f243e295a000000000000000000000000f4014adc9cd9d5d4ea56bd2baa8bd5fa143f3a7d00000000000000000000000000000000000000000000000000000000000007590000000000000000000000000000000000000000000000000000000000000080000000000000000000000000000000000000000000000000000000000000001d5472616e736665722066726f6d204d656d62657220746f20466f726765000000",
                    "decodedMethod": {
                        "callParams": [
                            {
                                "name": "from",
                                "type": "address",
                                "value": "0x0ebb810b1dbe2f6fa4c7843ab236590f243e295a"
                            },
                            {
                                "name": "to",
                                "type": "address",
                                "value": "0xf4014adc9cd9d5d4ea56bd2baa8bd5fa143f3a7d"
                            },
                            {
                                "name": "tokenId",
                                "type": "uint256",
                                "value": "1,881"
                            },
                            {
                                "name": "_data",
                                "type": "bytes",
                                "value": "0x5472616e736665722066726f6d204d656d62657220746f20466f726765"
                            }
                        ],
                        "constructorArguments": "",
                        "name": "safeTransferFrom",
                        "returnParams": [],
                        "signature": "safeTransferFrom(address,address,uint256,bytes)"
                    },
                    "errorInfo": "",
                    "fromAddress": "0xf4014adc9cd9d5d4ea56bd2baa8bd5fa143f3a7d",
                    "gasUsed": 33024,
                    "id": 1,
                    "methodDecoded": true,
                    "operation": "CALL",
                    "output": "",
                    "revert": false,
                    "revertMessage": "",
                    "selector": "0xb88d4fde",
                    "status": true,
                    "value": "0"
                },
                "nodeType": 0
            },
            "2": {
                "event": {
                    "contract": "0xc78cd8ab5a99e295d31da3230319ebc2f285514d",
                    "decodedLog": {
                        "name": "Approval",
                        "params": [
                            {
                                "name": "owner",
                                "type": "address",
                                "value": "0x0ebb810b1dbe2f6fa4c7843ab236590f243e295a"
                            },
                            {
                                "name": "approved",
                                "type": "address",
                                "value": "0x0000000000000000000000000000000000000000"
                            },
                            {
                                "decimalAvailable": true,
                                "name": "tokenId",
                                "type": "uint256",
                                "value": "1,881"
                            }
                        ],
                        "signature": "Approval(address,address,uint256)"
                    },
                    "id": 2,
                    "logData": "0x",
                    "logDecoded": true,
                    "operation": "EVENT",
                    "revert": false,
                    "status": true,
                    "topics": [
                        "0x8c5be1e5ebec7d5bd14f71427d1e84f3dd0314c0f7b2291e5b200ac8c7c3b925",
                        "0x0000000000000000000000000ebb810b1dbe2f6fa4c7843ab236590f243e295a",
                        "0x0000000000000000000000000000000000000000000000000000000000000000",
                        "0x0000000000000000000000000000000000000000000000000000000000000759"
                    ]
                },
                "nodeType": 1
            },
            "3": {
                "event": {
                    "contract": "0xc78cd8ab5a99e295d31da3230319ebc2f285514d",
                    "decodedLog": {
                        "name": "Transfer",
                        "params": [
                            {
                                "name": "from",
                                "type": "address",
                                "value": "0x0ebb810b1dbe2f6fa4c7843ab236590f243e295a"
                            },
                            {
                                "name": "to",
                                "type": "address",
                                "value": "0xf4014adc9cd9d5d4ea56bd2baa8bd5fa143f3a7d"
                            },
                            {
                                "decimalAvailable": true,
                                "name": "tokenId",
                                "type": "uint256",
                                "value": "1,881"
                            }
                        ],
                        "signature": "Transfer(address,address,uint256)"
                    },
                    "id": 3,
                    "logData": "0x",
                    "logDecoded": true,
                    "operation": "EVENT",
                    "revert": false,
                    "status": true,
                    "topics": [
                        "0xddf252ad1be2c89b69c2b068fc378daa952ba7f163c4a11628f55a4df523b3ef",
                        "0x0000000000000000000000000ebb810b1dbe2f6fa4c7843ab236590f243e295a",
                        "0x000000000000000000000000f4014adc9cd9d5d4ea56bd2baa8bd5fa143f3a7d",
                        "0x0000000000000000000000000000000000000000000000000000000000000759"
                    ]
                },
                "nodeType": 1
            },
            "4": {
                "invocation": {
                    "address": "0xf4014adc9cd9d5d4ea56bd2baa8bd5fa143f3a7d",
                    "callData": "0x000000000000000000000000f4014adc9cd9d5d4ea56bd2baa8bd5fa143f3a7d0000000000000000000000000ebb810b1dbe2f6fa4c7843ab236590f243e295a00000000000000000000000000000000000000000000000000000000000007590000000000000000000000000000000000000000000000000000000000000080000000000000000000000000000000000000000000000000000000000000001d5472616e736665722066726f6d204d656d62657220746f20466f726765000000",
                    "decodedMethod": {
                        "callParams": [
                            {
                                "name": "",
                                "type": "address",
                                "value": "0xf4014adc9cd9d5d4ea56bd2baa8bd5fa143f3a7d"
                            },
                            {
                                "name": "",
                                "type": "address",
                                "value": "0x0ebb810b1dbe2f6fa4c7843ab236590f243e295a"
                            },
                            {
                                "name": "",
                                "type": "uint256",
                                "value": "1,881"
                            },
                            {
                                "name": "",
                                "type": "bytes",
                                "value": "0x5472616e736665722066726f6d204d656d62657220746f20466f726765"
                            }
                        ],
                        "constructorArguments": "",
                        "name": "onERC721Received",
                        "returnParams": [
                            {
                                "name": "",
                                "type": "bytes4",
                                "value": "0x150b7a02"
                            }
                        ],
                        "signature": "onERC721Received(address,address,uint256,bytes)"
                    },
                    "errorInfo": "",
                    "fromAddress": "0xc78cd8ab5a99e295d31da3230319ebc2f285514d",
                    "gasUsed": 1345,
                    "id": 4,
                    "methodDecoded": true,
                    "operation": "CALL",
                    "output": "0x150b7a0200000000000000000000000000000000000000000000000000000000",
                    "revert": false,
                    "revertMessage": "",
                    "selector": "0x150b7a02",
                    "status": true,
                    "value": "0"
                },
                "nodeType": 0
            }
        },
        "gasFlame": [
            {
                "children": [
                    {
                        "children": [
                            {
                                "children": [],
                                "depth": 0,
                                "name": "Initial Gas",
                                "value": 21496
                            },
                            {
                                "children": [
                                    {
                                        "children": [
                                            {
                                                "children": [],
                                                "depth": 2,
                                                "name": "onERC721Received",
                                                "value": 1345
                                            }
                                        ],
                                        "depth": 1,
                                        "name": "safeTransferFrom",
                                        "value": 33024
                                    }
                                ],
                                "depth": 0,
                                "name": "Executed Gas",
                                "value": 153413
                            }
                        ],
                        "depth": -1,
                        "name": "Actual Gas Used",
                        "value": 174909
                    },
                    {
                        "children": [],
                        "depth": -1,
                        "name": "Refunded Gas",
                        "value": 0
                    }
                ],
                "depth": -2,
                "name": "Total Gas",
                "value": 174909
            }
        ],
        "isConfirmed": true,
        "mainTrace": [
            {
                "children": [
                    {
                        "children": [
                            {
                                "children": [
                                    {
                                        "children": [],
                                        "depth": 2,
                                        "id": 2,
                                        "order": 2
                                    },
                                    {
                                        "children": [],
                                        "depth": 2,
                                        "id": 3,
                                        "order": 3
                                    },
                                    {
                                        "children": [],
                                        "depth": 2,
                                        "id": 4,
                                        "order": 4
                                    }
                                ],
                                "depth": 1,
                                "id": 1,
                                "order": 1
                            }
                        ],
                        "depth": 0,
                        "id": 0,
                        "order": 0
                    }
                ],
                "depth": -1,
                "id": -1,
                "order": -1
            }
        ],
        "mainTraceNodeCount": 5,
        "parentIdMap": {
            "0": -1,
            "1": 0,
            "2": 1,
            "3": 1,
            "4": 1
        },
        "tidyTrace": [
            {
                "children": [
                    {
                        "children": [
                            {
                                "children": [
                                    {
                                        "children": [],
                                        "depth": 2,
                                        "id": 2,
                                        "order": 2
                                    },
                                    {
                                        "children": [],
                                        "depth": 2,
                                        "id": 3,
                                        "order": 3
                                    },
                                    {
                                        "children": [],
                                        "depth": 2,
                                        "id": 4,
                                        "order": 4
                                    }
                                ],
                                "depth": 1,
                                "id": 1,
                                "order": 1
                            }
                        ],
                        "depth": 0,
                        "id": 0,
                        "order": 0
                    }
                ],
                "depth": -1,
                "id": -1,
                "order": -1
            }
        ],
        "tidyTraceNodeCount": 5
    },
    "state_change": {
        "stateChanges": [
            {
                "address": "0xc78cd8ab5a99e295d31da3230319ebc2f285514d",
                "erc": "ERC-721",
                "slots": [
                    {
                        "current": "0x0000000000000000000000000000000100000000000000000000000000000001",
                        "key": "0x5a7cdc2be4a985a152c9e74e5e64f8aa24b564709fedd42137ddbeeefe8a6e3f",
                        "prev": "0x0000000000000000000000000000000100000000000000000000000000000002"
                    },
                    {
                        "current": "0x0000000000000000000000000000000000000000000000000000000000000150",
                        "key": "0xcfca367bb049cc1342174dbf022189e1693e477323c9f9e3f3a6a056de833189",
                        "prev": "0x000000000000000000000000000000000000000000000000000000000000014f"
                    },
                    {
                        "current": "0x0000000000000000632dead7f4014adc9cd9d5d4ea56bd2baa8bd5fa143f3a7d",
                        "key": "0x7d8fa421f04fa417d76c1c61275b387722924b76b61a50d9b4bce784189adf4c",
                        "prev": "0x0000000000000000630a2bd90ebb810b1dbe2f6fa4c7843ab236590f243e295a"
                    }
                ],
                "storageVariables": [
                    {
                        "name": "_ownerships",
                        "type": "mapping(uint256 => struct ERC721A.TokenOwnership)",
                        "value": {
                            "pairs": [
                                {
                                    "key": "1881",
                                    "value": {
                                        "fields": [
                                            {
                                                "name": "addr",
                                                "type": "address",
                                                "value": {
                                                    "current": "0xf4014adc9cd9d5d4ea56bd2baa8bd5fa143f3a7d",
                                                    "prev": "0x0ebb810b1dbe2f6fa4c7843ab236590f243e295a",
                                                    "typeTag": 1
                                                }
                                            },
                                            {
                                                "name": "startTimestamp",
                                                "type": "uint64",
                                                "value": {
                                                    "current": "1663953623",
                                                    "prev": "1661610969",
                                                    "typeTag": 1
                                                }
                                            }
                                        ],
                                        "typeTag": 3
                                    }
                                }
                            ],
                            "typeTag": 4
                        }
                    },
                    {
                        "name": "_addressData",
                        "type": "mapping(address => struct ERC721A.AddressData)",
                        "value": {
                            "pairs": [
                                {
                                    "key": "0x0ebb810b1dbe2f6fa4c7843ab236590f243e295a",
                                    "value": {
                                        "fields": [
                                            {
                                                "name": "balance",
                                                "type": "uint128",
                                                "value": {
                                                    "current": "1",
                                                    "prev": "2",
                                                    "typeTag": 1
                                                }
                                            },
                                            {
                                                "name": "numberMinted",
                                                "type": "uint128",
                                                "value": {
                                                    "current": "1",
                                                    "prev": "1",
                                                    "typeTag": 1
                                                }
                                            }
                                        ],
                                        "typeTag": 3
                                    }
                                },
                                {
                                    "key": "0xf4014adc9cd9d5d4ea56bd2baa8bd5fa143f3a7d",
                                    "value": {
                                        "fields": [
                                            {
                                                "name": "balance",
                                                "type": "uint128",
                                                "value": {
                                                    "current": "336",
                                                    "prev": "335",
                                                    "typeTag": 1
                                                }
                                            },
                                            {
                                                "name": "numberMinted",
                                                "type": "uint128",
                                                "value": {
                                                    "current": "0",
                                                    "prev": "0",
                                                    "typeTag": 1
                                                }
                                            }
                                        ],
                                        "typeTag": 3
                                    }
                                }
                            ],
                            "typeTag": 4
                        }
                    }
                ]
            },
            {
                "address": "0xf4014adc9cd9d5d4ea56bd2baa8bd5fa143f3a7d",
                "erc": "",
                "slots": [
                    {
                        "current": "0x0000000000000000000000000000000000000000000000000000000000000001",
                        "key": "0x5a7cdc2be4a985a152c9e74e5e64f8aa24b564709fedd42137ddbeeefe8a6e3f",
                        "prev": "0x0000000000000000000000000000000000000000000000000000000000000000"
                    },
                    {
                        "current": "0x0000000000000000000000000000000000000000000000000000000000000759",
                        "key": "0x3c0f116f11bab3d06c4055232f692c3fe91d931f787888f541caf00507bce6a3",
                        "prev": "0x0000000000000000000000000000000000000000000000000000000000000000"
                    },
                    {
                        "current": "0x0000000000000000000000000000000000000000000000000000000000000001",
                        "key": "0x556f8fc9b8164f6883f27121c2b60524285d5d0cde95f870eb9da2d58a5f7bec",
                        "prev": "0x0000000000000000000000000000000000000000000000000000000000000000"
                    },
                    {
                        "current": "0x0000000000000000000000000000000000000000000000000000000000edffb8",
                        "key": "0x7d8fa421f04fa417d76c1c61275b387722924b76b61a50d9b4bce784189adf4c",
                        "prev": "0x0000000000000000000000000000000000000000000000000000000000000000"
                    },
                    {
                        "current": "0x0000000000000000000000000ebb810b1dbe2f6fa4c7843ab236590f243e295a",
                        "key": "0x4d795be0fb8ada19db733c43f26e6933ed868da04616f2f90db813a192516cf5",
                        "prev": "0x0000000000000000000000000000000000000000000000000000000000000000"
                    }
                ],
                "storageVariables": [
                    {
                        "name": "nftForgeBlocks",
                        "type": "mapping(uint256 => uint256)",
                        "value": {
                            "pairs": [
                                {
                                    "key": "1881",
                                    "value": {
                                        "current": "15597496",
                                        "prev": "0",
                                        "typeTag": 1
                                    }
                                }
                            ],
                            "typeTag": 4
                        }
                    },
                    {
                        "name": "_nftTokenForges",
                        "type": "mapping(uint256 => address)",
                        "value": {
                            "pairs": [
                                {
                                    "key": "1881",
                                    "value": {
                                        "current": "0x0ebb810b1dbe2f6fa4c7843ab236590f243e295a",
                                        "prev": "0x0000000000000000000000000000000000000000",
                                        "typeTag": 1
                                    }
                                }
                            ],
                            "typeTag": 4
                        }
                    },
                    {
                        "name": "nftForges",
                        "type": "mapping(address => struct EnumerableSet.UintSet)",
                        "value": {
                            "pairs": [
                                {
                                    "key": "0x0ebb810b1dbe2f6fa4c7843ab236590f243e295a",
                                    "value": {
                                        "fields": [
                                            {
                                                "name": "_inner",
                                                "type": "struct EnumerableSet.Set",
                                                "value": {
                                                    "fields": [
                                                        {
                                                            "name": "_values",
                                                            "type": "bytes32[]",
                                                            "value": {
                                                                "elemType": "bytes32",
                                                                "elems": [
                                                                    {
                                                                        "index": 0,
                                                                        "value": {
                                                                            "current": "0x0000000000000000000000000000000000000000000000000000000000000759",
                                                                            "prev": "0x0000000000000000000000000000000000000000000000000000000000000000",
                                                                            "typeTag": 1
                                                                        }
                                                                    }
                                                                ],
                                                                "typeTag": 2
                                                            }
                                                        },
                                                        {
                                                            "name": "_indexes",
                                                            "type": "mapping(bytes32 => uint256)",
                                                            "value": {
                                                                "pairs": [
                                                                    {
                                                                        "key": "0x0000000000000000000000000000000000000000000000000000000000000759",
                                                                        "value": {
                                                                            "current": "1",
                                                                            "prev": "0",
                                                                            "typeTag": 1
                                                                        }
                                                                    }
                                                                ],
                                                                "typeTag": 4
                                                            }
                                                        }
                                                    ],
                                                    "typeTag": 3
                                                }
                                            }
                                        ],
                                        "typeTag": 3
                                    }
                                }
                            ],
                            "typeTag": 4
                        }
                    }
                ]
            }
        ]
    }
}