{
    "balance_change": {
        "balanceChanges": [
            {
                "account": "0x7da90089a73edd14c75b0c827cb54f4248d47ecc",
                "assets": [
                    {
                        "address": "0xeeeeeeeeeeeeeeeeeeeeeeeeeeeeeeeeeeeeeeee",
                        "amount": "0.539321819414504357",
                        "iconUrl": "https://assets.blocksec.com/image/1663669189317-3.png",
                        "isERC1155": false,
                        "isERC721": false,
                        "sign": false,
                        "value": ""
                    }
                ]
            },
            {
                "account": "0x6bd933140ff6b40630ef12928979eb22d17ddc71",
                "assets": [
                    {
                        "address": "0xeeeeeeeeeeeeeeeeeeeeeeeeeeeeeeeeeeeeeeee",
                        "amount": "0.539321819414504357",
                        "iconUrl": "https://assets.blocksec.com/image/1663669189317-3.png",
                        "isERC1155": false,
                        "isERC721": false,
                        "sign": true,
                        "value": ""
                    }
                ]
            }
        ]
    },
    "profile": {
        "basic_info": {
            "baseFee": "",
            "blockNumber": 3345796,
            "callData": "0x38bbfa5071006b01ce327b8f30b17ba88bc065a0b2ed12ef9c710c47c15d113f8d17a6e2000000000000000000000000000000000000000000000000000000000000006000000000000000000000000000000000000000000000000000000000000000a00000000000000000000000000000000000000000000000000000000000000004353736300000000000000000000000000000000000000000000000000000000000000000000000000000000000000000000000000000000000000000000000221220932cfaf1cbc9bb8825e1cb927e64b8c7f6788a20e80a415f4c57012c0f52e031000000000000000000000000000000000000000000000000000000000000",
            "debugEnable": true,
            "errorInfo": "",
            "eventCount": 2,
            "feeRecipient": "0xf3b9d2c81f2b24b0fa0acaaa865b7d9ced5fc2fb",
            "formatValue": "0",
            "gasLimit": 177300,
            "gasPrice": "20",
            "gasUsed": 95904,
            "intTxnCount": 3,
            "internalRevert": false,
            "internalRevertMessage": "",
            "isContractCreation": false,
            "isFlashloan": false,
            "maxFee": "",
            "nonce": 68010,
            "overwritedBlockNumber": -1,
            "priorityFee": "",
            "receiver": "0x7da90089a73edd14c75b0c827cb54f4248d47ecc",
            "revertMessage": "",
            "sender": "0x26588a9301b0428d95e6fc3a5024fce8bec12d51",
            "simulationEnable": true,
            "sourceTxnHash": "0xcd6775aaf4aaf1d5d22b8a02141d210c060f845bac25a232eb07d85b7966581f",
            "status": true,
            "timestamp": "2017-03-13T18:50:38Z",
            "transactionFee": "0.00191808",
            "txnHash": "0xcd6775aaf4aaf1d5d22b8a02141d210c060f845bac25a232eb07d85b7966581f",
            "txnIndex": 8,
            "type": 0,
            "value": "0"
        },
        "fund_flow": [
            {
                "amount": "0.539321819414504357",
                "from": "0x7da90089a73edd14c75b0c827cb54f4248d47ecc",
                "id": 1,
                "isERC1155": false,
                "isERC721": false,
                "isReverted": false,
                "order": 1,
                "to": "0x6bd933140ff6b40630ef12928979eb22d17ddc71",
                "token": "0xeeeeeeeeeeeeeeeeeeeeeeeeeeeeeeeeeeeeeeee"
            }
        ],
        "token_infos": [
            {
                "address": "0xc02aaa39b223fe8d0a0e5c4f27ead9083c756cc2",
                "decimals": 18
            },
            {
                "address": "0xeeeeeeeeeeeeeeeeeeeeeeeeeeeeeeeeeeeeeeee",
                "decimals": 18
            }
        ]
    },
    "address_label": {
        "labels": [
            {
                "address": "0x1d3b2638a7cc9f2cb3d298a3da7a90b67e5506ed",
                "label": "OraclizeAddrResolver"
            },
            {
                "address": "0x7da90089a73edd14c75b0c827cb54f4248d47ecc",
                "label": "Dice"
            },
            {
                "address": "0x0000000000000000000000000000000000000001",
                "label": "Precompiled"
            },
            {
                "address": "0x0000000000000000000000000000000000000002",
                "label": "Precompiled"
            },
            {
                "address": "0xeeeeeeeeeeeeeeeeeeeeeeeeeeeeeeeeeeeeeeee",
                "label": "Ether"
            },
            {
                "address": "0x26588a9301b0428d95e6fc3a5024fce8bec12d51",
                "label": "0x2658_Oraclize"
            },
            {
                "address": "0x001a589dda0d6be37632925eaf1256986b2c6ad0",
                "label": "0x001a_Oraclize"
            },
            {
                "address": "0x0000000000000000000000000000000000000003",
                "label": "Precompiled"
            },
            {
                "address": "0x0000000000000000000000000000000000000004",
                "label": "Precompiled"
            }
        ]
    },
    "trace": {
        "accountLabels": null,
        "dataMap": {
            "-1": {
                "invocation": {
                    "address": "0x26588a9301b0428d95e6fc3a5024fce8bec12d51",
                    "callData": "",
                    "decodedMethod": null,
                    "errorInfo": "",
                    "fromAddress": "",
                    "gasUsed": 0,
                    "id": -1,
                    "methodDecoded": false,
                    "operation": "",
                    "output": "",
                    "revert": false,
                    "revertMessage": "",
                    "selector": "",
                    "status": false,
                    "value": ""
                },
                "nodeType": 0
            },
            "0": {
                "invocation": {
                    "address": "0x7da90089a73edd14c75b0c827cb54f4248d47ecc",
                    "callData": "0x71006b01ce327b8f30b17ba88bc065a0b2ed12ef9c710c47c15d113f8d17a6e2000000000000000000000000000000000000000000000000000000000000006000000000000000000000000000000000000000000000000000000000000000a00000000000000000000000000000000000000000000000000000000000000004353736300000000000000000000000000000000000000000000000000000000000000000000000000000000000000000000000000000000000000000000000221220932cfaf1cbc9bb8825e1cb927e64b8c7f6788a20e80a415f4c57012c0f52e031000000000000000000000000000000000000000000000000000000000000",
                    "decodedMethod": {
                        "callParams": [
                            {
                                "name": "myid",
                                "type": "bytes32",
                                "value": "0x71006b01ce327b8f30b17ba88bc065a0b2ed12ef9c710c47c15d113f8d17a6e2"
                            },
                            {
                                "name": "result",
                                "type": "string",
                                "value": "5760"
                            },
                            {
                                "name": "proof",
                                "type": "bytes",
                                "value": "0x1220932cfaf1cbc9bb8825e1cb927e64b8c7f6788a20e80a415f4c57012c0f52e031"
                            }
                        ],
                        "constructorArguments": "",
                        "name": "__callback",
                        "returnParams": [],
                        "signature": "__callback(bytes32,string,bytes)"
                    },
                    "errorInfo": "",
                    "fromAddress": "0x26588a9301b0428d95e6fc3a5024fce8bec12d51",
                    "gasUsed": 95904,
                    "id": 0,
                    "methodDecoded": true,
                    "operation": "CALL",
                    "output": "",
                    "revert": false,
                    "revertMessage": "",
                    "selector": "0x38bbfa50",
                    "status": true,
                    "value": "0"
                },
                "nodeType": 0
            },
            "1": {
                "invocation": {
                    "address": "0x1d3b2638a7cc9f2cb3d298a3da7a90b67e5506ed",
                    "callData": "0x",
                    "decodedMethod": {
                        "callParams": [],
                        "constructorArguments": "",
                        "name": "getAddress",
                        "returnParams": [
                            {
                                "name": "oaddr",
                                "type": "address",
                                "value": "0x001a589dda0d6be37632925eaf1256986b2c6ad0"
                            }
                        ],
                        "signature": "getAddress()"
                    },
                    "errorInfo": "",
                    "fromAddress": "0x7da90089a73edd14c75b0c827cb54f4248d47ecc",
                    "gasUsed": 418,
                    "id": 1,
                    "methodDecoded": true,
                    "operation": "CALL",
                    "output": "0x000000000000000000000000001a589dda0d6be37632925eaf1256986b2c6ad0",
                    "revert": false,
                    "revertMessage": "",
                    "selector": "0x38cc4831",
                    "status": true,
                    "value": "0"
                },
                "nodeType": 0
            },
            "2": {
                "invocation": {
                    "address": "0x001a589dda0d6be37632925eaf1256986b2c6ad0",
                    "callData": "0x",
                    "decodedMethod": {
                        "callParams": [],
                        "constructorArguments": "",
                        "name": "cbAddress",
                        "returnParams": [
                            {
                                "name": "",
                                "type": "address",
                                "value": "0x26588a9301b0428d95e6fc3a5024fce8bec12d51"
                            }
                        ],
                        "signature": "cbAddress()"
                    },
                    "errorInfo": "",
                    "fromAddress": "0x7da90089a73edd14c75b0c827cb54f4248d47ecc",
                    "gasUsed": 1039,
                    "id": 2,
                    "methodDecoded": true,
                    "operation": "CALL",
                    "output": "0x00000000000000000000000026588a9301b0428d95e6fc3a5024fce8bec12d51",
                    "revert": false,
                    "revertMessage": "",
                    "selector": "0xc281d19e",
                    "status": true,
                    "value": "0"
                },
                "nodeType": 0
            },
            "3": {
                "event": {
                    "contract": "0x7da90089a73edd14c75b0c827cb54f4248d47ecc",
                    "decodedLog": {
                        "name": "LOG_BetWon",
                        "params": [
                            {
                                "name": "playerAddress",
                                "type": "address",
                                "value": "0x6bd933140ff6b40630ef12928979eb22d17ddc71"
                            },
                            {
                                "name": "numberRolled",
                                "type": "uint256",
                                "value": "5,760"
                            },
                            {
                                "name": "amountWon",
                                "type": "uint256",
                                "value": "539,321,819,414,504,357"
                            }
                        ],
                        "signature": "LOG_BetWon(address,uint256,uint256)"
                    },
                    "id": 3,
                    "logData": "0x0000000000000000000000006bd933140ff6b40630ef12928979eb22d17ddc710000000000000000000000000000000000000000000000000000000000001680000000000000000000000000000000000000000000000000077c0e5659d1a3a5",
                    "logDecoded": true,
                    "operation": "EVENT",
                    "revert": false,
                    "status": true,
                    "topics": [
                        "0xa5acb022726d980b249ddc212f4992ad87f28c093550232fcc48bd8af803f2d5"
                    ]
                },
                "nodeType": 1
            },
            "4": {
                "invocation": {
                    "address": "0x6bd933140ff6b40630ef12928979eb22d17ddc71",
                    "callData": "0x",
                    "decodedMethod": null,
                    "errorInfo": "",
                    "fromAddress": "0x7da90089a73edd14c75b0c827cb54f4248d47ecc",
                    "gasUsed": 0,
                    "id": 4,
                    "methodDecoded": false,
                    "operation": "CALL",
                    "output": "",
                    "revert": false,
                    "revertMessage": "",
                    "selector": "fallback",
                    "status": true,
                    "value": "0.539321819414504357"
                },
                "nodeType": 0
            },
            "5": {
                "event": {
                    "contract": "0x7da90089a73edd14c75b0c827cb54f4248d47ecc",
                    "decodedLog": {
                        "name": "LOG_SuccessfulSend",
                        "params": [
                            {
                                "name": "addr",
                                "type": "address",
                                "value": "0x6bd933140ff6b40630ef12928979eb22d17ddc71"
                            },
                            {
                                "name": "amount",
                                "type": "uint256",
                                "value": "539,321,819,414,504,357"
                            }
                        ],
                        "signature": "LOG_SuccessfulSend(address,uint256)"
                    },
                    "id": 5,
                    "logData": "0x0000000000000000000000006bd933140ff6b40630ef12928979eb22d17ddc71000000000000000000000000000000000000000000000000077c0e5659d1a3a5",
                    "logDecoded": true,
                    "operation": "EVENT",
                    "revert": false,
                    "status": true,
                    "topics": [
                        "0xc7e416c5685d8971558840f05c5e63e02575b29997d8da6b9ba44dc10da6a370"
                    ]
                },
                "nodeType": 1
            }
        },
        "gasFlame": [
            {
                "children": [
                    {
                        "children": [
                            {
                                "children": [],
                                "depth": 0,
                                "name": "Initial Gas",
                                "value": 26968
                            },
                            {
                                "children": [
                                    {
                                        "children": [],
                                        "depth": 1,
                                        "name": "getAddress",
                                        "value": 418
                                    },
                                    {
                                        "children": [],
                                        "depth": 1,
                                        "name": "cbAddress",
                                        "value": 1039
                                    },
                                    {
                                        "children": [],
                                        "depth": 1,
                                        "name": "fallback",
                                        "value": 0
                                    }
                                ],
                                "depth": 0,
                                "name": "Executed Gas",
                                "value": 68936
                            }
                        ],
                        "depth": -1,
                        "name": "Actual Gas Used",
                        "value": 95904
                    },
                    {
                        "children": [],
                        "depth": -1,
                        "name": "Refunded Gas",
                        "value": 0
                    }
                ],
                "depth": -2,
                "name": "Total Gas",
                "value": 95904
            }
        ],
        "isConfirmed": true,
        "mainTrace": [
            {
                "children": [
                    {
                        "children": [
                            {
                                "children": [],
                                "depth": 1,
                                "id": 1,
                                "order": 1
                            },
                            {
                                "children": [],
                                "depth": 1,
                                "id": 2,
                                "order": 2
                            },
                            {
                                "children": [],
                                "depth": 1,
                                "id": 3,
                                "order": 3
                            },
                            {
                                "children": [],
                                "depth": 1,
                                "id": 4,
                                "order": 4
                            },
                            {
                                "children": [],
                                "depth": 1,
                                "id": 5,
                                "order": 5
                            }
                        ],
                        "depth": 0,
                        "id": 0,
                        "order": 0
                    }
                ],
                "depth": -1,
                "id": -1,
                "order": -1
            }
        ],
        "mainTraceNodeCount": 6,
        "parentIdMap": {
            "0": -1,
            "1": 0,
            "2": 0,
            "3": 0,
            "4": 0,
            "5": 0
        },
        "tidyTrace": [
            {
                "children": [
                    {
                        "children": [
                            {
                                "children": [],
                                "depth": 1,
                                "id": 1,
                                "order": 1
                            },
                            {
                                "children": [],
                                "depth": 1,
                                "id": 2,
                                "order": 2
                            },
                            {
                                "children": [],
                                "depth": 1,
                                "id": 3,
                                "order": 3
                            },
                            {
                                "children": [],
                                "depth": 1,
                                "id": 4,
                                "order": 4
                            },
                            {
                                "children": [],
                                "depth": 1,
                                "id": 5,
                                "order": 5
                            }
                        ],
                        "depth": 0,
                        "id": 0,
                        "order": 0
                    }
                ],
                "depth": -1,
                "id": -1,
                "order": -1
            }
        ],
        "tidyTraceNodeCount": 6
    },
    "state_change": {
        "stateChanges": [
            {
                "address": "0x7da90089a73edd14c75b0c827cb54f4248d47ecc",
                "erc": "",
                "slots": [
                    {
                        "current": "0x0000000000000000000000000000000000000000000000001b90e113432e9367",
                        "key": "0x000000000000000000000000000000000000000000000000000000000000000e",
                        "prev": "0x0000000000000000000000000000000000000000000000001af2ac38c1a32340"
                    },
                    {
                        "current": "0x0000000000000000000000000000000000000000000000000000000000001680",
                        "key": "0x7132bfdff98a6a41565c8ba9201ee20e3e51a58a21d2a8439d740f5393c5b041",
                        "prev": "0x0000000000000000000000000000000000000000000000000000000000000000"
                    }
                ],
                "storageVariables": []
            }
        ]
    }
}