{
    "balance_change": {
        "balanceChanges": [
            {
                "account": "0x715f2de1ebb1fb29b7fc885de98b048291f5c65a",
                "assets": [
                    {
                        "address": "0xaab231e11be1cf084d62748511b893bd953bec62",
                        "amount": "1",
                        "iconUrl": "",
                        "isERC1155": false,
                        "isERC721": true,
                        "sign": false,
                        "tokenID": "1614",
                        "value": ""
                    }
                ]
            },
            {
                "account": "0xdcd27a986522f65a712a33393967072f686ca3fb",
                "assets": [
                    {
                        "address": "0xaab231e11be1cf084d62748511b893bd953bec62",
                        "amount": "1",
                        "iconUrl": "",
                        "isERC1155": false,
                        "isERC721": true,
                        "sign": true,
                        "tokenID": "1614",
                        "value": ""
                    }
                ]
            }
        ]
    },
    "profile": {
        "basic_info": {
            "baseFee": "71.671112418",
            "blockNumber": 14892454,
            "callData": "0x3593cebc000000000000000000000000aab231e11be1cf084d62748511b893bd953bec62000000000000000000000000dcd27a986522f65a712a33393967072f686ca3fb00000000000000000000000000000000000000000000000000000000000000600000000000000000000000000000000000000000000000000000000000000001000000000000000000000000000000000000000000000000000000000000064e",
            "debugEnable": true,
            "errorInfo": "",
            "eventCount": 2,
            "feeRecipient": "0x1ad91ee08f21be3de0ba2ba6918e714da6b45836",
            "formatValue": "0",
            "gasLimit": 62681,
            "gasPrice": "120",
            "gasUsed": 56667,
            "intTxnCount": 1,
            "internalRevert": false,
            "internalRevertMessage": "",
            "isContractCreation": false,
            "isFlashloan": false,
            "maxFee": "120",
            "nonce": 2,
            "overwritedBlockNumber": -1,
            "priorityFee": "120",
            "receiver": "0x2e2234b3a848f895a60b2071f90303cd02f7491d",
            "revertMessage": "",
            "sender": "0x715f2de1ebb1fb29b7fc885de98b048291f5c65a",
            "simulationEnable": true,
            "sourceTxnHash": "0xcdcd3cb7947519a194788805322c9649dc3f44db3fe1310d1cfc8e2bdc01d89f",
            "status": true,
            "timestamp": "2022-06-02T18:23:10Z",
            "transactionFee": "0.00680004",
            "txnHash": "0xcdcd3cb7947519a194788805322c9649dc3f44db3fe1310d1cfc8e2bdc01d89f",
            "txnIndex": 8,
            "type": 2,
            "value": "0"
        },
        "fund_flow": [
            {
                "amount": "1",
                "from": "0x715f2de1ebb1fb29b7fc885de98b048291f5c65a",
                "id": 1,
                "isERC1155": false,
                "isERC721": true,
                "isReverted": false,
                "order": 1,
                "to": "0xdcd27a986522f65a712a33393967072f686ca3fb",
                "token": "0xaab231e11be1cf084d62748511b893bd953bec62",
                "tokenID": "1614"
            }
        ],
        "token_infos": [
            {
                "address": "0xc02aaa39b223fe8d0a0e5c4f27ead9083c756cc2",
                "decimals": 18
            },
            {
                "address": "0xeeeeeeeeeeeeeeeeeeeeeeeeeeeeeeeeeeeeeeee",
                "decimals": 18
            }
        ]
    },
    "address_label": {
        "labels": [
            {
                "address": "0x0000000000000000000000000000000000000004",
                "label": "Precompiled"
            },
            {
                "address": "0xeeeeeeeeeeeeeeeeeeeeeeeeeeeeeeeeeeeeeeee",
                "label": "Ether"
            },
            {
                "address": "0xaab231e11be1cf084d62748511b893bd953bec62",
                "label": "dwarftown.wtf: DWARF Token"
            },
            {
                "address": "0x2e2234b3a848f895a60b2071f90303cd02f7491d",
                "label": "BatchTransfer"
            },
            {
                "address": "0x0000000000000000000000000000000000000001",
                "label": "Precompiled"
            },
            {
                "address": "0x0000000000000000000000000000000000000002",
                "label": "Precompiled"
            },
            {
                "address": "0x0000000000000000000000000000000000000003",
                "label": "Precompiled"
            }
        ]
    },
    "trace": {
        "accountLabels": null,
        "dataMap": {
            "-1": {
                "invocation": {
                    "address": "0x715f2de1ebb1fb29b7fc885de98b048291f5c65a",
                    "callData": "",
                    "decodedMethod": null,
                    "errorInfo": "",
                    "fromAddress": "",
                    "gasUsed": 0,
                    "id": -1,
                    "methodDecoded": false,
                    "operation": "",
                    "output": "",
                    "revert": false,
                    "revertMessage": "",
                    "selector": "",
                    "status": false,
                    "value": ""
                },
                "nodeType": 0
            },
            "0": {
                "invocation": {
                    "address": "0x2e2234b3a848f895a60b2071f90303cd02f7491d",
                    "callData": "0x000000000000000000000000aab231e11be1cf084d62748511b893bd953bec62000000000000000000000000dcd27a986522f65a712a33393967072f686ca3fb00000000000000000000000000000000000000000000000000000000000000600000000000000000000000000000000000000000000000000000000000000001000000000000000000000000000000000000000000000000000000000000064e",
                    "decodedMethod": {
                        "callParams": [
                            {
                                "name": "tokenContract",
                                "type": "address",
                                "value": "0xaab231e11be1cf084d62748511b893bd953bec62"
                            },
                            {
                                "name": "recipient",
                                "type": "address",
                                "value": "0xdcd27a986522f65a712a33393967072f686ca3fb"
                            },
                            {
                                "name": "tokenIds",
                                "type": "uint256[]",
                                "value": [
                                    "1,614"
                                ]
                            }
                        ],
                        "constructorArguments": "",
                        "name": "batchTransfer",
                        "returnParams": [],
                        "signature": "batchTransfer(address,address,uint256[])"
                    },
                    "errorInfo": "",
                    "fromAddress": "0x715f2de1ebb1fb29b7fc885de98b048291f5c65a",
                    "gasUsed": 56667,
                    "id": 0,
                    "methodDecoded": true,
                    "operation": "CALL",
                    "output": "",
                    "revert": false,
                    "revertMessage": "",
                    "selector": "0x3593cebc",
                    "status": true,
                    "value": "0"
                },
                "nodeType": 0
            },
            "1": {
                "invocation": {
                    "address": "0xaab231e11be1cf084d62748511b893bd953bec62",
                    "callData": "0x000000000000000000000000715f2de1ebb1fb29b7fc885de98b048291f5c65a000000000000000000000000dcd27a986522f65a712a33393967072f686ca3fb000000000000000000000000000000000000000000000000000000000000064e",
                    "decodedMethod": {
                        "callParams": [
                            {
                                "name": "from",
                                "type": "address",
                                "value": "0x715f2de1ebb1fb29b7fc885de98b048291f5c65a"
                            },
                            {
                                "name": "to",
                                "type": "address",
                                "value": "0xdcd27a986522f65a712a33393967072f686ca3fb"
                            },
                            {
                                "decimalAvailable": true,
                                "name": "tokenId",
                                "type": "uint256",
                                "value": "1,614"
                            }
                        ],
                        "constructorArguments": "",
                        "name": "transferFrom",
                        "returnParams": [],
                        "signature": "transferFrom(address,address,uint256)"
                    },
                    "errorInfo": "",
                    "fromAddress": "0x2e2234b3a848f895a60b2071f90303cd02f7491d",
                    "gasUsed": 30712,
                    "id": 1,
                    "methodDecoded": true,
                    "operation": "CALL",
                    "output": "",
                    "revert": false,
                    "revertMessage": "",
                    "selector": "0x23b872dd",
                    "status": true,
                    "value": "0"
                },
                "nodeType": 0
            },
            "2": {
                "event": {
                    "contract": "0xaab231e11be1cf084d62748511b893bd953bec62",
                    "decodedLog": {
                        "name": "Approval",
                        "params": [
                            {
                                "name": "owner",
                                "type": "address",
                                "value": "0x715f2de1ebb1fb29b7fc885de98b048291f5c65a"
                            },
                            {
                                "name": "approved",
                                "type": "address",
                                "value": "0x0000000000000000000000000000000000000000"
                            },
                            {
                                "decimalAvailable": true,
                                "name": "tokenId",
                                "type": "uint256",
                                "value": "1,614"
                            }
                        ],
                        "signature": "Approval(address,address,uint256)"
                    },
                    "id": 2,
                    "logData": "0x",
                    "logDecoded": true,
                    "operation": "EVENT",
                    "revert": false,
                    "status": true,
                    "topics": [
                        "0x8c5be1e5ebec7d5bd14f71427d1e84f3dd0314c0f7b2291e5b200ac8c7c3b925",
                        "0x000000000000000000000000715f2de1ebb1fb29b7fc885de98b048291f5c65a",
                        "0x0000000000000000000000000000000000000000000000000000000000000000",
                        "0x000000000000000000000000000000000000000000000000000000000000064e"
                    ]
                },
                "nodeType": 1
            },
            "3": {
                "event": {
                    "contract": "0xaab231e11be1cf084d62748511b893bd953bec62",
                    "decodedLog": {
                        "name": "Transfer",
                        "params": [
                            {
                                "name": "from",
                                "type": "address",
                                "value": "0x715f2de1ebb1fb29b7fc885de98b048291f5c65a"
                            },
                            {
                                "name": "to",
                                "type": "address",
                                "value": "0xdcd27a986522f65a712a33393967072f686ca3fb"
                            },
                            {
                                "decimalAvailable": true,
                                "name": "tokenId",
                                "type": "uint256",
                                "value": "1,614"
                            }
                        ],
                        "signature": "Transfer(address,address,uint256)"
                    },
                    "id": 3,
                    "logData": "0x",
                    "logDecoded": true,
                    "operation": "EVENT",
                    "revert": false,
                    "status": true,
                    "topics": [
                        "0xddf252ad1be2c89b69c2b068fc378daa952ba7f163c4a11628f55a4df523b3ef",
                        "0x000000000000000000000000715f2de1ebb1fb29b7fc885de98b048291f5c65a",
                        "0x000000000000000000000000dcd27a986522f65a712a33393967072f686ca3fb",
                        "0x000000000000000000000000000000000000000000000000000000000000064e"
                    ]
                },
                "nodeType": 1
            }
        },
        "gasFlame": [
            {
                "children": [
                    {
                        "children": [
                            {
                                "children": [],
                                "depth": 0,
                                "name": "Initial Gas",
                                "value": 22232
                            },
                            {
                                "children": [
                                    {
                                        "children": [],
                                        "depth": 1,
                                        "name": "transferFrom",
                                        "value": 30712
                                    }
                                ],
                                "depth": 0,
                                "name": "Executed Gas",
                                "value": 34435
                            }
                        ],
                        "depth": -1,
                        "name": "Actual Gas Used",
                        "value": 56667
                    },
                    {
                        "children": [],
                        "depth": -1,
                        "name": "Refunded Gas",
                        "value": 0
                    }
                ],
                "depth": -2,
                "name": "Total Gas",
                "value": 56667
            }
        ],
        "isConfirmed": true,
        "mainTrace": [
            {
                "children": [
                    {
                        "children": [
                            {
                                "children": [
                                    {
                                        "children": [],
                                        "depth": 2,
                                        "id": 2,
                                        "order": 2
                                    },
                                    {
                                        "children": [],
                                        "depth": 2,
                                        "id": 3,
                                        "order": 3
                                    }
                                ],
                                "depth": 1,
                                "id": 1,
                                "order": 1
                            }
                        ],
                        "depth": 0,
                        "id": 0,
                        "order": 0
                    }
                ],
                "depth": -1,
                "id": -1,
                "order": -1
            }
        ],
        "mainTraceNodeCount": 4,
        "parentIdMap": {
            "0": -1,
            "1": 0,
            "2": 1,
            "3": 1
        },
        "tidyTrace": [
            {
                "children": [
                    {
                        "children": [
                            {
                                "children": [
                                    {
                                        "children": [],
                                        "depth": 2,
                                        "id": 2,
                                        "order": 2
                                    },
                                    {
                                        "children": [],
                                        "depth": 2,
                                        "id": 3,
                                        "order": 3
                                    }
                                ],
                                "depth": 1,
                                "id": 1,
                                "order": 1
                            }
                        ],
                        "depth": 0,
                        "id": 0,
                        "order": 0
                    }
                ],
                "depth": -1,
                "id": -1,
                "order": -1
            }
        ],
        "tidyTraceNodeCount": 4
    },
    "state_change": {
        "stateChanges": [
            {
                "address": "0xaab231e11be1cf084d62748511b893bd953bec62",
                "erc": "ERC-721",
                "slots": [
                    {
                        "current": "0x0000000000000000000000000000000100000000000000000000000000000000",
                        "key": "0x164086726f0c6c522505c5db039162fead595fad0b84b2424601ca767fb2943d",
                        "prev": "0x0000000000000000000000000000000100000000000000000000000000000001"
                    },
                    {
                        "current": "0x000000000000000000000000000000010000000000000000000000000000000c",
                        "key": "0x79744aea25bacdb1f45ef2b5a7945be3a753b25e506ff1bf1860f0fde2d44ef8",
                        "prev": "0x000000000000000000000000000000010000000000000000000000000000000b"
                    },
                    {
                        "current": "0x00000000000000006299000edcd27a986522f65a712a33393967072f686ca3fb",
                        "key": "0x1416652a86492793cb01ff063b6814d4f60aeb7c5a2ddeae8d1646ae723f4c36",
                        "prev": "0x00000000000000006298fdb1715f2de1ebb1fb29b7fc885de98b048291f5c65a"
                    }
                ],
                "storageVariables": [
                    {
                        "name": "_addressData",
                        "type": "mapping(address => struct ERC721A.AddressData)",
                        "value": {
                            "pairs": [
                                {
                                    "key": "0x715f2de1ebb1fb29b7fc885de98b048291f5c65a",
                                    "value": {
                                        "fields": [
                                            {
                                                "name": "balance",
                                                "type": "uint128",
                                                "value": {
                                                    "current": "0",
                                                    "prev": "1",
                                                    "typeTag": 1
                                                }
                                            },
                                            {
                                                "name": "numberMinted",
                                                "type": "uint128",
                                                "value": {
                                                    "current": "1",
                                                    "prev": "1",
                                                    "typeTag": 1
                                                }
                                            }
                                        ],
                                        "typeTag": 3
                                    }
                                },
                                {
                                    "key": "0xdcd27a986522f65a712a33393967072f686ca3fb",
                                    "value": {
                                        "fields": [
                                            {
                                                "name": "balance",
                                                "type": "uint128",
                                                "value": {
                                                    "current": "12",
                                                    "prev": "11",
                                                    "typeTag": 1
                                                }
                                            },
                                            {
                                                "name": "numberMinted",
                                                "type": "uint128",
                                                "value": {
                                                    "current": "1",
                                                    "prev": "1",
                                                    "typeTag": 1
                                                }
                                            }
                                        ],
                                        "typeTag": 3
                                    }
                                }
                            ],
                            "typeTag": 4
                        }
                    },
                    {
                        "name": "_ownerships",
                        "type": "mapping(uint256 => struct ERC721A.TokenOwnership)",
                        "value": {
                            "pairs": [
                                {
                                    "key": "1614",
                                    "value": {
                                        "fields": [
                                            {
                                                "name": "addr",
                                                "type": "address",
                                                "value": {
                                                    "current": "0xdcd27a986522f65a712a33393967072f686ca3fb",
                                                    "prev": "0x715f2de1ebb1fb29b7fc885de98b048291f5c65a",
                                                    "typeTag": 1
                                                }
                                            },
                                            {
                                                "name": "startTimestamp",
                                                "type": "uint64",
                                                "value": {
                                                    "current": "1654194190",
                                                    "prev": "1654193585",
                                                    "typeTag": 1
                                                }
                                            }
                                        ],
                                        "typeTag": 3
                                    }
                                }
                            ],
                            "typeTag": 4
                        }
                    }
                ]
            }
        ]
    }
}