{
    "balance_change": {
        "balanceChanges": [
            {
                "account": "0x46340b20830761efd32832a74d7169b29feb9758",
                "assets": [
                    {
                        "address": "0x4a220e6096b25eadb88358cb44068a3248254675",
                        "amount": "0.516",
                        "iconUrl": "https://assets.blocksec.com/icon/2517ae4798f8af07582abbcc7e22fbabe148d0b4c36e1004952431a198138ad8.png",
                        "isERC1155": false,
                        "isERC721": false,
                        "sign": false,
                        "value": "57.74555999999999824"
                    }
                ]
            },
            {
                "account": "0x3250a8f605ce9e8e7afcb8080f7ff8f8755a37e7",
                "assets": [
                    {
                        "address": "0x4a220e6096b25eadb88358cb44068a3248254675",
                        "amount": "0.516",
                        "iconUrl": "https://assets.blocksec.com/icon/2517ae4798f8af07582abbcc7e22fbabe148d0b4c36e1004952431a198138ad8.png",
                        "isERC1155": false,
                        "isERC721": false,
                        "sign": true,
                        "value": "57.74555999999999824"
                    }
                ]
            }
        ]
    },
    "profile": {
        "basic_info": {
            "baseFee": "11.137829087",
            "blockNumber": 16011492,
            "callData": "0xa9059cbb0000000000000000000000003250a8f605ce9e8e7afcb8080f7ff8f8755a37e700000000000000000000000000000000000000000000000007293344201a0000",
            "debugEnable": true,
            "errorInfo": "",
            "eventCount": 1,
            "feeRecipient": "0xf2f5c73fa04406b1995e397b55c24ab1f3ea726c",
            "formatValue": "0",
            "gasLimit": 350000,
            "gasPrice": "15.825393435",
            "gasUsed": 34845,
            "intTxnCount": 0,
            "internalRevert": false,
            "internalRevertMessage": "",
            "isContractCreation": false,
            "isFlashloan": false,
            "maxFee": "",
            "nonce": 7526078,
            "overwritedBlockNumber": -1,
            "priorityFee": "",
            "receiver": "0x4a220e6096b25eadb88358cb44068a3248254675",
            "revertMessage": "",
            "sender": "0x46340b20830761efd32832a74d7169b29feb9758",
            "simulationEnable": true,
            "sourceTxnHash": "0xcdd80d25417e8d8c994e95661c8efa4e3af4d51b7df1545ca264b3a8aa05cbbc",
            "status": true,
            "timestamp": "2022-11-20T13:22:11Z",
            "transactionFee": "0.000551435834242575",
            "txnHash": "0xcdd80d25417e8d8c994e95661c8efa4e3af4d51b7df1545ca264b3a8aa05cbbc",
            "txnIndex": 22,
            "type": 0,
            "value": "0"
        },
        "fund_flow": [
            {
                "amount": "0.516",
                "from": "0x46340b20830761efd32832a74d7169b29feb9758",
                "id": 1,
                "isERC1155": false,
                "isERC721": false,
                "isReverted": false,
                "order": 1,
                "to": "0x3250a8f605ce9e8e7afcb8080f7ff8f8755a37e7",
                "token": "0x4a220e6096b25eadb88358cb44068a3248254675"
            }
        ],
        "token_infos": [
            {
                "address": "0x4a220e6096b25eadb88358cb44068a3248254675",
                "decimals": 18
            },
            {
                "address": "0xc02aaa39b223fe8d0a0e5c4f27ead9083c756cc2",
                "decimals": 18
            },
            {
                "address": "0xeeeeeeeeeeeeeeeeeeeeeeeeeeeeeeeeeeeeeeee",
                "decimals": 18
            }
        ]
    },
    "address_label": {
        "labels": [
            {
                "address": "0x0000000000000000000000000000000000000003",
                "label": "Precompiled"
            },
            {
                "address": "0x0000000000000000000000000000000000000004",
                "label": "Precompiled"
            },
            {
                "address": "0xeeeeeeeeeeeeeeeeeeeeeeeeeeeeeeeeeeeeeeee",
                "label": "Ether"
            },
            {
                "address": "0x3250a8f605ce9e8e7afcb8080f7ff8f8755a37e7",
                "label": "MEXC"
            },
            {
                "address": "0x46340b20830761efd32832a74d7169b29feb9758",
                "label": "Crypto.com 2"
            },
            {
                "address": "0x4a220e6096b25eadb88358cb44068a3248254675",
                "label": "Quant: QNT Token"
            },
            {
                "address": "0x0000000000000000000000000000000000000001",
                "label": "Precompiled"
            },
            {
                "address": "0x0000000000000000000000000000000000000002",
                "label": "Precompiled"
            }
        ]
    },
    "trace": {
        "accountLabels": null,
        "dataMap": {
            "-1": {
                "invocation": {
                    "address": "0x46340b20830761efd32832a74d7169b29feb9758",
                    "callData": "",
                    "decodedMethod": null,
                    "errorInfo": "",
                    "fromAddress": "",
                    "gasUsed": 0,
                    "id": -1,
                    "methodDecoded": false,
                    "operation": "",
                    "output": "",
                    "revert": false,
                    "revertMessage": "",
                    "selector": "",
                    "status": false,
                    "value": ""
                },
                "nodeType": 0
            },
            "0": {
                "invocation": {
                    "address": "0x4a220e6096b25eadb88358cb44068a3248254675",
                    "callData": "0x0000000000000000000000003250a8f605ce9e8e7afcb8080f7ff8f8755a37e700000000000000000000000000000000000000000000000007293344201a0000",
                    "decodedMethod": {
                        "callParams": [
                            {
                                "name": "_to",
                                "type": "address",
                                "value": "0x3250a8f605ce9e8e7afcb8080f7ff8f8755a37e7"
                            },
                            {
                                "decimalAvailable": true,
                                "name": "_value",
                                "type": "uint256",
                                "value": "516,000,000,000,000,000"
                            }
                        ],
                        "constructorArguments": "",
                        "name": "transfer",
                        "returnParams": [
                            {
                                "name": "",
                                "type": "bool",
                                "value": true
                            }
                        ],
                        "signature": "transfer(address,uint256)"
                    },
                    "errorInfo": "",
                    "fromAddress": "0x46340b20830761efd32832a74d7169b29feb9758",
                    "gasUsed": 34845,
                    "id": 0,
                    "methodDecoded": true,
                    "operation": "CALL",
                    "output": "0x0000000000000000000000000000000000000000000000000000000000000001",
                    "revert": false,
                    "revertMessage": "",
                    "selector": "0xa9059cbb",
                    "status": true,
                    "value": "0"
                },
                "nodeType": 0
            },
            "1": {
                "event": {
                    "contract": "0x4a220e6096b25eadb88358cb44068a3248254675",
                    "decodedLog": {
                        "name": "Transfer",
                        "params": [
                            {
                                "name": "from",
                                "type": "address",
                                "value": "0x46340b20830761efd32832a74d7169b29feb9758"
                            },
                            {
                                "name": "to",
                                "type": "address",
                                "value": "0x3250a8f605ce9e8e7afcb8080f7ff8f8755a37e7"
                            },
                            {
                                "decimalAvailable": true,
                                "name": "value",
                                "type": "uint256",
                                "value": "516,000,000,000,000,000"
                            }
                        ],
                        "signature": "Transfer(address,address,uint256)"
                    },
                    "id": 1,
                    "logData": "0x00000000000000000000000000000000000000000000000007293344201a0000",
                    "logDecoded": true,
                    "operation": "EVENT",
                    "revert": false,
                    "status": true,
                    "topics": [
                        "0xddf252ad1be2c89b69c2b068fc378daa952ba7f163c4a11628f55a4df523b3ef",
                        "0x00000000000000000000000046340b20830761efd32832a74d7169b29feb9758",
                        "0x0000000000000000000000003250a8f605ce9e8e7afcb8080f7ff8f8755a37e7"
                    ]
                },
                "nodeType": 1
            }
        },
        "gasFlame": [
            {
                "children": [
                    {
                        "children": [
                            {
                                "children": [],
                                "depth": 0,
                                "name": "Initial Gas",
                                "value": 21632
                            },
                            {
                                "children": [],
                                "depth": 0,
                                "name": "Executed Gas",
                                "value": 13213
                            }
                        ],
                        "depth": -1,
                        "name": "Actual Gas Used",
                        "value": 34845
                    },
                    {
                        "children": [],
                        "depth": -1,
                        "name": "Refunded Gas",
                        "value": 0
                    }
                ],
                "depth": -2,
                "name": "Total Gas",
                "value": 34845
            }
        ],
        "isConfirmed": true,
        "mainTrace": [
            {
                "children": [
                    {
                        "children": [
                            {
                                "children": [],
                                "depth": 1,
                                "id": 1,
                                "order": 1
                            }
                        ],
                        "depth": 0,
                        "id": 0,
                        "order": 0
                    }
                ],
                "depth": -1,
                "id": -1,
                "order": -1
            }
        ],
        "mainTraceNodeCount": 2,
        "parentIdMap": {
            "0": -1,
            "1": 0
        },
        "tidyTrace": [
            {
                "children": [
                    {
                        "children": [
                            {
                                "children": [],
                                "depth": 1,
                                "id": 1,
                                "order": 1
                            }
                        ],
                        "depth": 0,
                        "id": 0,
                        "order": 0
                    }
                ],
                "depth": -1,
                "id": -1,
                "order": -1
            }
        ],
        "tidyTraceNodeCount": 2
    },
    "state_change": {
        "stateChanges": [
            {
                "address": "0x4a220e6096b25eadb88358cb44068a3248254675",
                "erc": "ERC-20",
                "slots": [
                    {
                        "current": "0x0000000000000000000000000000000000000000000000003842b3855f6f0000",
                        "key": "0xb9524a015f3f51dcff748abcb65dc273211cf9f0d128383dd8700f468260dd02",
                        "prev": "0x000000000000000000000000000000000000000000000000311980413f550000"
                    },
                    {
                        "current": "0x0000000000000000000000000000000000000000000000967219770686d85154",
                        "key": "0x06572fba9f3b891296e0e9534f23636d9ea20bdee276064a284ffd8870e435be",
                        "prev": "0x0000000000000000000000000000000000000000000000967942aa4aa6f25154"
                    }
                ],
                "storageVariables": [
                    {
                        "name": "balances",
                        "type": "mapping(address => uint256)",
                        "value": {
                            "pairs": [
                                {
                                    "key": "0x3250a8f605ce9e8e7afcb8080f7ff8f8755a37e7",
                                    "value": {
                                        "current": "4054000000000000000",
                                        "prev": "3538000000000000000",
                                        "typeTag": 1
                                    }
                                },
                                {
                                    "key": "0x46340b20830761efd32832a74d7169b29feb9758",
                                    "value": {
                                        "current": "2775233344521090126164",
                                        "prev": "2775749344521090126164",
                                        "typeTag": 1
                                    }
                                }
                            ],
                            "typeTag": 4
                        }
                    }
                ]
            }
        ]
    }
}