{
    "balance_change": {
        "balanceChanges": [
            {
                "account": "0x820a9eb227bf770a9dd28829380d53b76eaf1209",
                "assets": [
                    {
                        "address": "0x808507121b80c02388fad14726482e061b8da827",
                        "amount": "8,946.282178956709187852",
                        "iconUrl": "https://assets.blocksec.com/icon/58b3d61bebf7cd1c556b96f909a6e07345e88e9ddfa8c427541f70e3b35f85e9.png",
                        "isERC1155": false,
                        "isERC721": false,
                        "sign": false,
                        "value": "1608.5415357841998892"
                    }
                ]
            },
            {
                "account": "0xa311f7ca3eb2fb98123a807f9b8e4bbbdbdcb2ee",
                "assets": [
                    {
                        "address": "0x808507121b80c02388fad14726482e061b8da827",
                        "amount": "8,946.282178956709187852",
                        "iconUrl": "https://assets.blocksec.com/icon/58b3d61bebf7cd1c556b96f909a6e07345e88e9ddfa8c427541f70e3b35f85e9.png",
                        "isERC1155": false,
                        "isERC721": false,
                        "sign": true,
                        "value": "1608.5415357841998892"
                    }
                ]
            }
        ]
    },
    "profile": {
        "basic_info": {
            "baseFee": "75.272832739",
            "blockNumber": 16670519,
            "callData": "0xa9059cbb000000000000000000000000a311f7ca3eb2fb98123a807f9b8e4bbbdbdcb2ee0000000000000000000000000000000000000000000001e4fa9b1253a245d10c",
            "debugEnable": true,
            "errorInfo": "",
            "eventCount": 1,
            "feeRecipient": "0x5f927395213ee6b95de97bddcb1b2b1c0f16844f",
            "formatValue": "0",
            "gasLimit": 90000,
            "gasPrice": "94.047176415",
            "gasUsed": 56373,
            "intTxnCount": 0,
            "internalRevert": false,
            "internalRevertMessage": "",
            "isContractCreation": false,
            "isFlashloan": false,
            "maxFee": "",
            "nonce": 5156,
            "overwritedBlockNumber": -1,
            "priorityFee": "",
            "receiver": "0x808507121b80c02388fad14726482e061b8da827",
            "revertMessage": "",
            "sender": "0x820a9eb227bf770a9dd28829380d53b76eaf1209",
            "simulationEnable": true,
            "sourceTxnHash": "0xcd423493e6b0bf59a914fa8c971f89bb75e9b8ac171fcf135319c9c73b6469db",
            "status": true,
            "timestamp": "2023-02-20T15:02:35Z",
            "transactionFee": "0.005301721476042795",
            "txnHash": "0xcd423493e6b0bf59a914fa8c971f89bb75e9b8ac171fcf135319c9c73b6469db",
            "txnIndex": 13,
            "type": 0,
            "value": "0"
        },
        "fund_flow": [
            {
                "amount": "8,946.282178956709187852",
                "from": "0x820a9eb227bf770a9dd28829380d53b76eaf1209",
                "id": 1,
                "isERC1155": false,
                "isERC721": false,
                "isReverted": false,
                "order": 1,
                "to": "0xa311f7ca3eb2fb98123a807f9b8e4bbbdbdcb2ee",
                "token": "0x808507121b80c02388fad14726482e061b8da827"
            }
        ],
        "token_infos": [
            {
                "address": "0x808507121b80c02388fad14726482e061b8da827",
                "decimals": 18
            },
            {
                "address": "0xc02aaa39b223fe8d0a0e5c4f27ead9083c756cc2",
                "decimals": 18
            },
            {
                "address": "0xeeeeeeeeeeeeeeeeeeeeeeeeeeeeeeeeeeeeeeee",
                "decimals": 18
            }
        ]
    },
    "address_label": {
        "labels": [
            {
                "address": "0x0000000000000000000000000000000000000001",
                "label": "Precompiled"
            },
            {
                "address": "0x0000000000000000000000000000000000000002",
                "label": "Precompiled"
            },
            {
                "address": "0x0000000000000000000000000000000000000003",
                "label": "Precompiled"
            },
            {
                "address": "0x0000000000000000000000000000000000000004",
                "label": "Precompiled"
            },
            {
                "address": "0xeeeeeeeeeeeeeeeeeeeeeeeeeeeeeeeeeeeeeeee",
                "label": "Ether"
            },
            {
                "address": "0x820a9eb227bf770a9dd28829380d53b76eaf1209",
                "label": "MultiChain Bridge"
            },
            {
                "address": "0x808507121b80c02388fad14726482e061b8da827",
                "label": "Pendle: PENDLE Token"
            }
        ]
    },
    "trace": {
        "accountLabels": null,
        "dataMap": {
            "-1": {
                "invocation": {
                    "address": "0x820a9eb227bf770a9dd28829380d53b76eaf1209",
                    "callData": "",
                    "decodedMethod": null,
                    "errorInfo": "",
                    "fromAddress": "",
                    "gasUsed": 0,
                    "id": -1,
                    "methodDecoded": false,
                    "operation": "",
                    "output": "",
                    "revert": false,
                    "revertMessage": "",
                    "selector": "",
                    "status": false,
                    "value": ""
                },
                "nodeType": 0
            },
            "0": {
                "invocation": {
                    "address": "0x808507121b80c02388fad14726482e061b8da827",
                    "callData": "0x000000000000000000000000a311f7ca3eb2fb98123a807f9b8e4bbbdbdcb2ee0000000000000000000000000000000000000000000001e4fa9b1253a245d10c",
                    "decodedMethod": {
                        "callParams": [
                            {
                                "name": "dst",
                                "type": "address",
                                "value": "0xa311f7ca3eb2fb98123a807f9b8e4bbbdbdcb2ee"
                            },
                            {
                                "decimalAvailable": true,
                                "name": "amount",
                                "type": "uint256",
                                "value": "8,946,282,178,956,709,187,852"
                            }
                        ],
                        "constructorArguments": "",
                        "name": "transfer",
                        "returnParams": [
                            {
                                "name": "",
                                "type": "bool",
                                "value": true
                            }
                        ],
                        "signature": "transfer(address,uint256)"
                    },
                    "errorInfo": "",
                    "fromAddress": "0x820a9eb227bf770a9dd28829380d53b76eaf1209",
                    "gasUsed": 56373,
                    "id": 0,
                    "methodDecoded": true,
                    "operation": "CALL",
                    "output": "0x0000000000000000000000000000000000000000000000000000000000000001",
                    "revert": false,
                    "revertMessage": "",
                    "selector": "0xa9059cbb",
                    "status": true,
                    "value": "0"
                },
                "nodeType": 0
            },
            "1": {
                "event": {
                    "contract": "0x808507121b80c02388fad14726482e061b8da827",
                    "decodedLog": {
                        "name": "Transfer",
                        "params": [
                            {
                                "name": "from",
                                "type": "address",
                                "value": "0x820a9eb227bf770a9dd28829380d53b76eaf1209"
                            },
                            {
                                "name": "to",
                                "type": "address",
                                "value": "0xa311f7ca3eb2fb98123a807f9b8e4bbbdbdcb2ee"
                            },
                            {
                                "decimalAvailable": true,
                                "name": "value",
                                "type": "uint256",
                                "value": "8,946,282,178,956,709,187,852"
                            }
                        ],
                        "signature": "Transfer(address,address,uint256)"
                    },
                    "id": 1,
                    "logData": "0x0000000000000000000000000000000000000000000001e4fa9b1253a245d10c",
                    "logDecoded": true,
                    "operation": "EVENT",
                    "revert": false,
                    "status": true,
                    "topics": [
                        "0xddf252ad1be2c89b69c2b068fc378daa952ba7f163c4a11628f55a4df523b3ef",
                        "0x000000000000000000000000820a9eb227bf770a9dd28829380d53b76eaf1209",
                        "0x000000000000000000000000a311f7ca3eb2fb98123a807f9b8e4bbbdbdcb2ee"
                    ]
                },
                "nodeType": 1
            }
        },
        "gasFlame": [
            {
                "children": [
                    {
                        "children": [
                            {
                                "children": [],
                                "depth": 0,
                                "name": "Initial Gas",
                                "value": 21680
                            },
                            {
                                "children": [],
                                "depth": 0,
                                "name": "Executed Gas",
                                "value": 34693
                            }
                        ],
                        "depth": -1,
                        "name": "Actual Gas Used",
                        "value": 56373
                    },
                    {
                        "children": [],
                        "depth": -1,
                        "name": "Refunded Gas",
                        "value": 0
                    }
                ],
                "depth": -2,
                "name": "Total Gas",
                "value": 56373
            }
        ],
        "isConfirmed": true,
        "mainTrace": [
            {
                "children": [
                    {
                        "children": [
                            {
                                "children": [],
                                "depth": 1,
                                "id": 1,
                                "order": 1
                            }
                        ],
                        "depth": 0,
                        "id": 0,
                        "order": 0
                    }
                ],
                "depth": -1,
                "id": -1,
                "order": -1
            }
        ],
        "mainTraceNodeCount": 2,
        "parentIdMap": {
            "0": -1,
            "1": 0
        },
        "tidyTrace": [
            {
                "children": [
                    {
                        "children": [
                            {
                                "children": [],
                                "depth": 1,
                                "id": 1,
                                "order": 1
                            }
                        ],
                        "depth": 0,
                        "id": 0,
                        "order": 0
                    }
                ],
                "depth": -1,
                "id": -1,
                "order": -1
            }
        ],
        "tidyTraceNodeCount": 2
    },
    "state_change": {
        "stateChanges": [
            {
                "address": "0x808507121b80c02388fad14726482e061b8da827",
                "erc": "ERC-20",
                "slots": [
                    {
                        "current": "0x00000000000000000000000000000000000000000002117e5f911a2eebf8cb7d",
                        "key": "0x3836c9b5da29471fc5f1f496149a3f1dabf241a6f38e68344dbdf51ace7aac18",
                        "prev": "0x0000000000000000000000000000000000000000000213635a2c2c828e3e9c89"
                    },
                    {
                        "current": "0x0000000000000000000000000000000000000000000001e4fa9b1253a245d10c",
                        "key": "0x4346bda45db2ebf27ffb9e96c4667692667b547731941082a2e346e0607ea052",
                        "prev": "0x0000000000000000000000000000000000000000000000000000000000000000"
                    }
                ],
                "storageVariables": [
                    {
                        "name": "balances",
                        "type": "mapping(address => uint256)",
                        "value": {
                            "pairs": [
                                {
                                    "key": "0x820a9eb227bf770a9dd28829380d53b76eaf1209",
                                    "value": {
                                        "current": "2500463045505423777516413",
                                        "prev": "2509409327684380486704265",
                                        "typeTag": 1
                                    }
                                },
                                {
                                    "key": "0xa311f7ca3eb2fb98123a807f9b8e4bbbdbdcb2ee",
                                    "value": {
                                        "current": "8946282178956709187852",
                                        "prev": "0",
                                        "typeTag": 1
                                    }
                                }
                            ],
                            "typeTag": 4
                        }
                    }
                ]
            }
        ]
    }
}