{
    "balance_change": {
        "balanceChanges": [
            {
                "account": "0x5041ed759dd4afc3a72b8192c143f72f4724081a",
                "assets": [
                    {
                        "address": "0xdac17f958d2ee523a2206206994597c13d831ec7",
                        "amount": "9,996.18",
                        "iconUrl": "https://assets.blocksec.com/icon/fcea71f3193ce895be44bfdf941f7e4c9381dd587f273c2d1a27f1263d84e4ea.png",
                        "isERC1155": false,
                        "isERC721": false,
                        "sign": false,
                        "value": "9986.183819999999991"
                    }
                ]
            },
            {
                "account": "0x557d9f8629ac31b81044d2c32c42d08347ce9e5f",
                "assets": [
                    {
                        "address": "0xdac17f958d2ee523a2206206994597c13d831ec7",
                        "amount": "9,996.18",
                        "iconUrl": "https://assets.blocksec.com/icon/fcea71f3193ce895be44bfdf941f7e4c9381dd587f273c2d1a27f1263d84e4ea.png",
                        "isERC1155": false,
                        "isERC721": false,
                        "sign": true,
                        "value": "9986.183819999999991"
                    }
                ]
            }
        ]
    },
    "profile": {
        "basic_info": {
            "baseFee": "31.058948838",
            "blockNumber": 19446309,
            "callData": "0xa9059cbb000000000000000000000000557d9f8629ac31b81044d2c32c42d08347ce9e5f0000000000000000000000000000000000000000000000000000000253d19a20",
            "debugEnable": true,
            "errorInfo": "",
            "eventCount": 1,
            "feeRecipient": "0x95222290dd7278aa3ddd389cc1e1d165cc4bafe5",
            "formatValue": "0",
            "gasLimit": 420000,
            "gasPrice": "33.058948838",
            "gasUsed": 46121,
            "intTxnCount": 0,
            "internalRevert": false,
            "internalRevertMessage": "",
            "isContractCreation": false,
            "isFlashloan": false,
            "maxFee": "400",
            "nonce": 1517946,
            "overwritedBlockNumber": -1,
            "priorityFee": "2",
            "receiver": "0xdac17f958d2ee523a2206206994597c13d831ec7",
            "revertMessage": "",
            "sender": "0x5041ed759dd4afc3a72b8192c143f72f4724081a",
            "simulationEnable": true,
            "sourceTxnHash": "0xcd89ead854e1760ded874d41bcd4fcdb18165323e4ba8ba214364e1cfd0b18ee",
            "status": true,
            "timestamp": "2024-03-16T08:34:59Z",
            "transactionFee": "0.001524711779357398",
            "txnHash": "0xcd89ead854e1760ded874d41bcd4fcdb18165323e4ba8ba214364e1cfd0b18ee",
            "txnIndex": 48,
            "type": 2,
            "value": "0"
        },
        "fund_flow": [
            {
                "amount": "9,996.18",
                "from": "0x5041ed759dd4afc3a72b8192c143f72f4724081a",
                "id": 1,
                "isERC1155": false,
                "isERC721": false,
                "isReverted": false,
                "order": 1,
                "to": "0x557d9f8629ac31b81044d2c32c42d08347ce9e5f",
                "token": "0xdac17f958d2ee523a2206206994597c13d831ec7"
            }
        ],
        "token_infos": [
            {
                "address": "0xc02aaa39b223fe8d0a0e5c4f27ead9083c756cc2",
                "decimals": 18
            },
            {
                "address": "0xdac17f958d2ee523a2206206994597c13d831ec7",
                "decimals": 6
            },
            {
                "address": "0xeeeeeeeeeeeeeeeeeeeeeeeeeeeeeeeeeeeeeeee",
                "decimals": 18
            }
        ]
    },
    "address_label": {
        "labels": [
            {
                "address": "0x0000000000000000000000000000000000000003",
                "label": "Precompiled"
            },
            {
                "address": "0x0000000000000000000000000000000000000004",
                "label": "Precompiled"
            },
            {
                "address": "0xeeeeeeeeeeeeeeeeeeeeeeeeeeeeeeeeeeeeeeee",
                "label": "Ether"
            },
            {
                "address": "0xdac17f958d2ee523a2206206994597c13d831ec7",
                "label": "Tether: USDT Stablecoin"
            },
            {
                "address": "0x5041ed759dd4afc3a72b8192c143f72f4724081a",
                "label": "OKX 7"
            },
            {
                "address": "0x0000000000000000000000000000000000000001",
                "label": "Precompiled"
            },
            {
                "address": "0x0000000000000000000000000000000000000002",
                "label": "Precompiled"
            }
        ]
    },
    "trace": {
        "accountLabels": null,
        "dataMap": {
            "-1": {
                "invocation": {
                    "address": "0x5041ed759dd4afc3a72b8192c143f72f4724081a",
                    "callData": "",
                    "decodedMethod": null,
                    "errorInfo": "",
                    "fromAddress": "",
                    "gasUsed": 0,
                    "id": -1,
                    "methodDecoded": false,
                    "operation": "",
                    "output": "",
                    "revert": false,
                    "revertMessage": "",
                    "selector": "",
                    "status": false,
                    "value": ""
                },
                "nodeType": 0
            },
            "0": {
                "invocation": {
                    "address": "0xdac17f958d2ee523a2206206994597c13d831ec7",
                    "callData": "0x000000000000000000000000557d9f8629ac31b81044d2c32c42d08347ce9e5f0000000000000000000000000000000000000000000000000000000253d19a20",
                    "decodedMethod": {
                        "callParams": [
                            {
                                "name": "_to",
                                "type": "address",
                                "value": "0x557d9f8629ac31b81044d2c32c42d08347ce9e5f"
                            },
                            {
                                "decimalAvailable": true,
                                "name": "_value",
                                "type": "uint256",
                                "value": "9,996,180,000"
                            }
                        ],
                        "constructorArguments": "",
                        "name": "transfer",
                        "returnParams": [],
                        "signature": "transfer(address,uint256)"
                    },
                    "errorInfo": "",
                    "fromAddress": "0x5041ed759dd4afc3a72b8192c143f72f4724081a",
                    "gasUsed": 46121,
                    "id": 0,
                    "methodDecoded": true,
                    "operation": "CALL",
                    "output": "",
                    "revert": false,
                    "revertMessage": "",
                    "selector": "0xa9059cbb",
                    "status": true,
                    "value": "0"
                },
                "nodeType": 0
            },
            "1": {
                "event": {
                    "contract": "0xdac17f958d2ee523a2206206994597c13d831ec7",
                    "decodedLog": {
                        "name": "Transfer",
                        "params": [
                            {
                                "name": "from",
                                "type": "address",
                                "value": "0x5041ed759dd4afc3a72b8192c143f72f4724081a"
                            },
                            {
                                "name": "to",
                                "type": "address",
                                "value": "0x557d9f8629ac31b81044d2c32c42d08347ce9e5f"
                            },
                            {
                                "decimalAvailable": true,
                                "name": "value",
                                "type": "uint256",
                                "value": "9,996,180,000"
                            }
                        ],
                        "signature": "Transfer(address,address,uint256)"
                    },
                    "id": 1,
                    "logData": "0x0000000000000000000000000000000000000000000000000000000253d19a20",
                    "logDecoded": true,
                    "operation": "EVENT",
                    "revert": false,
                    "status": true,
                    "topics": [
                        "0xddf252ad1be2c89b69c2b068fc378daa952ba7f163c4a11628f55a4df523b3ef",
                        "0x0000000000000000000000005041ed759dd4afc3a72b8192c143f72f4724081a",
                        "0x000000000000000000000000557d9f8629ac31b81044d2c32c42d08347ce9e5f"
                    ]
                },
                "nodeType": 1
            }
        },
        "gasFlame": [
            {
                "children": [
                    {
                        "children": [
                            {
                                "children": [],
                                "depth": 0,
                                "name": "Initial Gas",
                                "value": 21620
                            },
                            {
                                "children": [],
                                "depth": 0,
                                "name": "Executed Gas",
                                "value": 24501
                            }
                        ],
                        "depth": -1,
                        "name": "Actual Gas Used",
                        "value": 46121
                    },
                    {
                        "children": [],
                        "depth": -1,
                        "name": "Refunded Gas",
                        "value": 0
                    }
                ],
                "depth": -2,
                "name": "Total Gas",
                "value": 46121
            }
        ],
        "isConfirmed": true,
        "mainTrace": [
            {
                "children": [
                    {
                        "children": [
                            {
                                "children": [],
                                "depth": 1,
                                "id": 1,
                                "order": 1
                            }
                        ],
                        "depth": 0,
                        "id": 0,
                        "order": 0
                    }
                ],
                "depth": -1,
                "id": -1,
                "order": -1
            }
        ],
        "mainTraceNodeCount": 2,
        "parentIdMap": {
            "0": -1,
            "1": 0
        },
        "tidyTrace": [
            {
                "children": [
                    {
                        "children": [
                            {
                                "children": [],
                                "depth": 1,
                                "id": 1,
                                "order": 1
                            }
                        ],
                        "depth": 0,
                        "id": 0,
                        "order": 0
                    }
                ],
                "depth": -1,
                "id": -1,
                "order": -1
            }
        ],
        "tidyTraceNodeCount": 2
    },
    "state_change": {
        "stateChanges": [
            {
                "address": "0xdac17f958d2ee523a2206206994597c13d831ec7",
                "erc": "ERC-20",
                "slots": [
                    {
                        "current": "0x000000000000000000000000000000000000000000000000000225b5e4917c2d",
                        "key": "0x95eea00c49d14a895954837cd876ffa8cfad96cbaacc40fc31d6df2c902528a8",
                        "prev": "0x000000000000000000000000000000000000000000000000000225b83863164d"
                    },
                    {
                        "current": "0x0000000000000000000000000000000000000000000000000000002903b8c5a0",
                        "key": "0x4d81a2036ee694140ac3e579207563cf67423cd19af45d459eaf12d0aac3fa18",
                        "prev": "0x00000000000000000000000000000000000000000000000000000026afe72b80"
                    }
                ],
                "storageVariables": [
                    {
                        "name": "balances",
                        "type": "mapping(address => uint256)",
                        "value": {
                            "pairs": [
                                {
                                    "key": "0x5041ed759dd4afc3a72b8192c143f72f4724081a",
                                    "value": {
                                        "current": "604413107469357",
                                        "prev": "604423103649357",
                                        "typeTag": 1
                                    }
                                },
                                {
                                    "key": "0x557d9f8629ac31b81044d2c32c42d08347ce9e5f",
                                    "value": {
                                        "current": "176156100000",
                                        "prev": "166159920000",
                                        "typeTag": 1
                                    }
                                }
                            ],
                            "typeTag": 4
                        }
                    }
                ]
            }
        ]
    }
}