{
    "balance_change": {
        "balanceChanges": [
            {
                "account": "0x9bc2f223026c252c8ef5f7f33f00f4bee21434b8",
                "assets": [
                    {
                        "address": "0xbbbbca6a901c926f240b89eacb641d8aec7aeafd",
                        "amount": "301.378237",
                        "iconUrl": "https://assets.blocksec.com/icon/b44c7803f30d044afb35b86db54944b24bd583cd9e51110a0bd435181df22ae6.png",
                        "isERC1155": false,
                        "isERC721": false,
                        "sign": false,
                        "value": ""
                    }
                ]
            },
            {
                "account": "0xbe5b0f4c59b6be839188679c2f15cf4025a031bb",
                "assets": [
                    {
                        "address": "0xbbbbca6a901c926f240b89eacb641d8aec7aeafd",
                        "amount": "301.378237",
                        "iconUrl": "https://assets.blocksec.com/icon/b44c7803f30d044afb35b86db54944b24bd583cd9e51110a0bd435181df22ae6.png",
                        "isERC1155": false,
                        "isERC721": false,
                        "sign": true,
                        "value": ""
                    }
                ]
            }
        ]
    },
    "profile": {
        "basic_info": {
            "baseFee": "",
            "blockNumber": 9713501,
            "callData": "0xa9059cbb000000000000000000000000be5b0f4c59b6be839188679c2f15cf4025a031bb000000000000000000000000000000000000000000000010567695c7fa7cd000",
            "debugEnable": true,
            "errorInfo": "",
            "eventCount": 1,
            "feeRecipient": "0x5a0b54d5dc17e0aadc383d2db43b0a0d3e029c4c",
            "formatValue": "0",
            "gasLimit": 150000,
            "gasPrice": "20",
            "gasUsed": 51815,
            "intTxnCount": 0,
            "internalRevert": false,
            "internalRevertMessage": "",
            "isContractCreation": false,
            "isFlashloan": false,
            "maxFee": "",
            "nonce": 68060,
            "overwritedBlockNumber": -1,
            "priorityFee": "",
            "receiver": "0xbbbbca6a901c926f240b89eacb641d8aec7aeafd",
            "revertMessage": "",
            "sender": "0x9bc2f223026c252c8ef5f7f33f00f4bee21434b8",
            "simulationEnable": true,
            "sourceTxnHash": "0xcd4c09cafcd604c9af6f8e13bc17d2fac6ca14cd0de73b5b3cdc48802e8eebc4",
            "status": true,
            "timestamp": "2020-03-21T06:47:16Z",
            "transactionFee": "0.0010363",
            "txnHash": "0xcd4c09cafcd604c9af6f8e13bc17d2fac6ca14cd0de73b5b3cdc48802e8eebc4",
            "txnIndex": 7,
            "type": 0,
            "value": "0"
        },
        "fund_flow": [
            {
                "amount": "301.378237",
                "from": "0x9bc2f223026c252c8ef5f7f33f00f4bee21434b8",
                "id": 1,
                "isERC1155": false,
                "isERC721": false,
                "isReverted": false,
                "order": 1,
                "to": "0xbe5b0f4c59b6be839188679c2f15cf4025a031bb",
                "token": "0xbbbbca6a901c926f240b89eacb641d8aec7aeafd"
            }
        ],
        "token_infos": [
            {
                "address": "0xbbbbca6a901c926f240b89eacb641d8aec7aeafd",
                "decimals": 18
            },
            {
                "address": "0xc02aaa39b223fe8d0a0e5c4f27ead9083c756cc2",
                "decimals": 18
            },
            {
                "address": "0xeeeeeeeeeeeeeeeeeeeeeeeeeeeeeeeeeeeeeeee",
                "decimals": 18
            }
        ]
    },
    "address_label": {
        "labels": [
            {
                "address": "0x9bc2f223026c252c8ef5f7f33f00f4bee21434b8",
                "label": "ChangeNOW 9"
            },
            {
                "address": "0xbbbbca6a901c926f240b89eacb641d8aec7aeafd",
                "label": "Loopring: LRC Token"
            },
            {
                "address": "0x0000000000000000000000000000000000000001",
                "label": "Precompiled"
            },
            {
                "address": "0x0000000000000000000000000000000000000002",
                "label": "Precompiled"
            },
            {
                "address": "0x0000000000000000000000000000000000000003",
                "label": "Precompiled"
            },
            {
                "address": "0x0000000000000000000000000000000000000004",
                "label": "Precompiled"
            },
            {
                "address": "0xeeeeeeeeeeeeeeeeeeeeeeeeeeeeeeeeeeeeeeee",
                "label": "Ether"
            }
        ]
    },
    "trace": {
        "accountLabels": null,
        "dataMap": {
            "-1": {
                "invocation": {
                    "address": "0x9bc2f223026c252c8ef5f7f33f00f4bee21434b8",
                    "callData": "",
                    "decodedMethod": null,
                    "errorInfo": "",
                    "fromAddress": "",
                    "gasUsed": 0,
                    "id": -1,
                    "methodDecoded": false,
                    "operation": "",
                    "output": "",
                    "revert": false,
                    "revertMessage": "",
                    "selector": "",
                    "status": false,
                    "value": ""
                },
                "nodeType": 0
            },
            "0": {
                "invocation": {
                    "address": "0xbbbbca6a901c926f240b89eacb641d8aec7aeafd",
                    "callData": "0x000000000000000000000000be5b0f4c59b6be839188679c2f15cf4025a031bb000000000000000000000000000000000000000000000010567695c7fa7cd000",
                    "decodedMethod": {
                        "callParams": [
                            {
                                "name": "_to",
                                "type": "address",
                                "value": "0xbe5b0f4c59b6be839188679c2f15cf4025a031bb"
                            },
                            {
                                "decimalAvailable": true,
                                "name": "_value",
                                "type": "uint256",
                                "value": "301,378,237,000,000,000,000"
                            }
                        ],
                        "constructorArguments": "",
                        "name": "transfer",
                        "returnParams": [
                            {
                                "name": "",
                                "type": "bool",
                                "value": true
                            }
                        ],
                        "signature": "transfer(address,uint256)"
                    },
                    "errorInfo": "",
                    "fromAddress": "0x9bc2f223026c252c8ef5f7f33f00f4bee21434b8",
                    "gasUsed": 51815,
                    "id": 0,
                    "methodDecoded": true,
                    "operation": "CALL",
                    "output": "0x0000000000000000000000000000000000000000000000000000000000000001",
                    "revert": false,
                    "revertMessage": "",
                    "selector": "0xa9059cbb",
                    "status": true,
                    "value": "0"
                },
                "nodeType": 0
            },
            "1": {
                "event": {
                    "contract": "0xbbbbca6a901c926f240b89eacb641d8aec7aeafd",
                    "decodedLog": {
                        "name": "Transfer",
                        "params": [
                            {
                                "name": "from",
                                "type": "address",
                                "value": "0x9bc2f223026c252c8ef5f7f33f00f4bee21434b8"
                            },
                            {
                                "name": "to",
                                "type": "address",
                                "value": "0xbe5b0f4c59b6be839188679c2f15cf4025a031bb"
                            },
                            {
                                "decimalAvailable": true,
                                "name": "value",
                                "type": "uint256",
                                "value": "301,378,237,000,000,000,000"
                            }
                        ],
                        "signature": "Transfer(address,address,uint256)"
                    },
                    "id": 1,
                    "logData": "0x000000000000000000000000000000000000000000000010567695c7fa7cd000",
                    "logDecoded": true,
                    "operation": "EVENT",
                    "revert": false,
                    "status": true,
                    "topics": [
                        "0xddf252ad1be2c89b69c2b068fc378daa952ba7f163c4a11628f55a4df523b3ef",
                        "0x0000000000000000000000009bc2f223026c252c8ef5f7f33f00f4bee21434b8",
                        "0x000000000000000000000000be5b0f4c59b6be839188679c2f15cf4025a031bb"
                    ]
                },
                "nodeType": 1
            }
        },
        "gasFlame": [
            {
                "children": [
                    {
                        "children": [
                            {
                                "children": [],
                                "depth": 0,
                                "name": "Initial Gas",
                                "value": 21656
                            },
                            {
                                "children": [],
                                "depth": 0,
                                "name": "Executed Gas",
                                "value": 30159
                            }
                        ],
                        "depth": -1,
                        "name": "Actual Gas Used",
                        "value": 51815
                    },
                    {
                        "children": [],
                        "depth": -1,
                        "name": "Refunded Gas",
                        "value": 0
                    }
                ],
                "depth": -2,
                "name": "Total Gas",
                "value": 51815
            }
        ],
        "isConfirmed": true,
        "mainTrace": [
            {
                "children": [
                    {
                        "children": [
                            {
                                "children": [],
                                "depth": 1,
                                "id": 1,
                                "order": 1
                            }
                        ],
                        "depth": 0,
                        "id": 0,
                        "order": 0
                    }
                ],
                "depth": -1,
                "id": -1,
                "order": -1
            }
        ],
        "mainTraceNodeCount": 2,
        "parentIdMap": {
            "0": -1,
            "1": 0
        },
        "tidyTrace": [
            {
                "children": [
                    {
                        "children": [
                            {
                                "children": [],
                                "depth": 1,
                                "id": 1,
                                "order": 1
                            }
                        ],
                        "depth": 0,
                        "id": 0,
                        "order": 0
                    }
                ],
                "depth": -1,
                "id": -1,
                "order": -1
            }
        ],
        "tidyTraceNodeCount": 2
    },
    "state_change": {
        "stateChanges": [
            {
                "address": "0xbbbbca6a901c926f240b89eacb641d8aec7aeafd",
                "erc": "ERC-20",
                "slots": [
                    {
                        "current": "0x0000000000000000000000000000000000000000000000bfc797565f19334800",
                        "key": "0xd724e3c40c4de9a4f634d7d7b030de1916ef4a00f78c1bafd1f595d4baf02838",
                        "prev": "0x0000000000000000000000000000000000000000000000d01e0dec2713b01800"
                    },
                    {
                        "current": "0x000000000000000000000000000000000000000000000010567695c7fa7cd000",
                        "key": "0xe0428ce84805d76310a3ea34f74fe4e11aaa162f9761f0223e87e2d1f3e29691",
                        "prev": "0x0000000000000000000000000000000000000000000000000000000000000000"
                    }
                ],
                "storageVariables": [
                    {
                        "name": "balances",
                        "type": "mapping(address => uint256)",
                        "value": {
                            "pairs": [
                                {
                                    "key": "0x9bc2f223026c252c8ef5f7f33f00f4bee21434b8",
                                    "value": {
                                        "current": "3537710176980000000000",
                                        "prev": "3839088413980000000000",
                                        "typeTag": 1
                                    }
                                },
                                {
                                    "key": "0xbe5b0f4c59b6be839188679c2f15cf4025a031bb",
                                    "value": {
                                        "current": "301378237000000000000",
                                        "prev": "0",
                                        "typeTag": 1
                                    }
                                }
                            ],
                            "typeTag": 4
                        }
                    }
                ]
            }
        ]
    }
}