{
    "balance_change": {
        "balanceChanges": []
    },
    "profile": {
        "basic_info": {
            "baseFee": "",
            "blockNumber": 5061771,
            "callData": "0x0a19b14a00000000000000000000000000000000000000000000000000000000000000000000000000000000000000000000000000000000000000001e87f85809dc00000000000000000000000000008eb24319393716668d768dcec29356ae9cffe2850000000000000000000000000000000000000000000000000000005d21dba00000000000000000000000000000000000000000000000000000000000004d557700000000000000000000000000000000000000000000000000000000ff58a69a000000000000000000000000688cea69ed8cbcc1cfdca045a90c7dc2e23e5da7000000000000000000000000000000000000000000000000000000000000001b3d771f3447b8c78f70daefdadfee789deb0cffc89a738073fc6231f62996250b036c569ac1ac20836803166cfccba3355cec2312280b37c602ae9b691eff10f900000000000000000000000000000000000000000000000018c846d9ccb51525",
            "debugEnable": true,
            "errorInfo": "",
            "eventCount": 1,
            "feeRecipient": "0xea674fdde714fd979de3edf0f56aa9716b898ec8",
            "formatValue": "0",
            "gasLimit": 250000,
            "gasPrice": "30",
            "gasUsed": 92986,
            "intTxnCount": 2,
            "internalRevert": false,
            "internalRevertMessage": "",
            "isContractCreation": false,
            "isFlashloan": false,
            "maxFee": "",
            "nonce": 338,
            "overwritedBlockNumber": -1,
            "priorityFee": "",
            "receiver": "0x8d12a197cb00d4747a1fe03395095ce2a5cc6819",
            "revertMessage": "",
            "sender": "0x320f624eefc87e9b59b94005876c301b1e6dcd17",
            "simulationEnable": true,
            "sourceTxnHash": "0xce9346cfafe2f1f16f06ba44b257f5233697d55e25b5ccd0e3911107e7de4c70",
            "status": true,
            "timestamp": "2018-02-09T23:54:54Z",
            "transactionFee": "0.00278958",
            "txnHash": "0xce9346cfafe2f1f16f06ba44b257f5233697d55e25b5ccd0e3911107e7de4c70",
            "txnIndex": 85,
            "type": 0,
            "value": "0"
        },
        "fund_flow": [],
        "token_infos": [
            {
                "address": "0xc02aaa39b223fe8d0a0e5c4f27ead9083c756cc2",
                "decimals": 18
            },
            {
                "address": "0xeeeeeeeeeeeeeeeeeeeeeeeeeeeeeeeeeeeeeeee",
                "decimals": 18
            }
        ]
    },
    "address_label": {
        "labels": [
            {
                "address": "0x0000000000000000000000000000000000000002",
                "label": "Precompiled"
            },
            {
                "address": "0x0000000000000000000000000000000000000000",
                "label": "Null Address"
            },
            {
                "address": "0x0000000000000000000000000000000000000001",
                "label": "Precompiled"
            },
            {
                "address": "0x0000000000000000000000000000000000000003",
                "label": "Precompiled"
            },
            {
                "address": "0x0000000000000000000000000000000000000004",
                "label": "Precompiled"
            },
            {
                "address": "0xeeeeeeeeeeeeeeeeeeeeeeeeeeeeeeeeeeeeeeee",
                "label": "Ether"
            },
            {
                "address": "0x8d12a197cb00d4747a1fe03395095ce2a5cc6819",
                "label": "EtherDelta"
            },
            {
                "address": "0x8eb24319393716668d768dcec29356ae9cffe285",
                "label": "SingularityNET: Old AGI Token"
            }
        ]
    },
    "trace": {
        "accountLabels": null,
        "dataMap": {
            "-1": {
                "invocation": {
                    "address": "0x320f624eefc87e9b59b94005876c301b1e6dcd17",
                    "callData": "",
                    "decodedMethod": null,
                    "errorInfo": "",
                    "fromAddress": "",
                    "gasUsed": 0,
                    "id": -1,
                    "methodDecoded": false,
                    "operation": "",
                    "output": "",
                    "revert": false,
                    "revertMessage": "",
                    "selector": "",
                    "status": false,
                    "value": ""
                },
                "nodeType": 0
            },
            "0": {
                "invocation": {
                    "address": "0x8d12a197cb00d4747a1fe03395095ce2a5cc6819",
                    "callData": "0x00000000000000000000000000000000000000000000000000000000000000000000000000000000000000000000000000000000000000001e87f85809dc00000000000000000000000000008eb24319393716668d768dcec29356ae9cffe2850000000000000000000000000000000000000000000000000000005d21dba00000000000000000000000000000000000000000000000000000000000004d557700000000000000000000000000000000000000000000000000000000ff58a69a000000000000000000000000688cea69ed8cbcc1cfdca045a90c7dc2e23e5da7000000000000000000000000000000000000000000000000000000000000001b3d771f3447b8c78f70daefdadfee789deb0cffc89a738073fc6231f62996250b036c569ac1ac20836803166cfccba3355cec2312280b37c602ae9b691eff10f900000000000000000000000000000000000000000000000018c846d9ccb51525",
                    "decodedMethod": {
                        "callParams": [
                            {
                                "name": "tokenGet",
                                "type": "address",
                                "value": "0x0000000000000000000000000000000000000000"
                            },
                            {
                                "name": "amountGet",
                                "type": "uint256",
                                "value": "2,200,000,000,000,000,000"
                            },
                            {
                                "name": "tokenGive",
                                "type": "address",
                                "value": "0x8eb24319393716668d768dcec29356ae9cffe285"
                            },
                            {
                                "name": "amountGive",
                                "type": "uint256",
                                "value": "400,000,000,000"
                            },
                            {
                                "name": "expires",
                                "type": "uint256",
                                "value": "5,068,151"
                            },
                            {
                                "name": "nonce",
                                "type": "uint256",
                                "value": "4,283,999,898"
                            },
                            {
                                "name": "user",
                                "type": "address",
                                "value": "0x688cea69ed8cbcc1cfdca045a90c7dc2e23e5da7"
                            },
                            {
                                "name": "v",
                                "type": "uint8",
                                "value": "27"
                            },
                            {
                                "name": "r",
                                "type": "bytes32",
                                "value": "0x3d771f3447b8c78f70daefdadfee789deb0cffc89a738073fc6231f62996250b"
                            },
                            {
                                "name": "s",
                                "type": "bytes32",
                                "value": "0x036c569ac1ac20836803166cfccba3355cec2312280b37c602ae9b691eff10f9"
                            },
                            {
                                "name": "amount",
                                "type": "uint256",
                                "value": "1,785,755,153,508,668,709"
                            }
                        ],
                        "constructorArguments": "",
                        "name": "trade",
                        "returnParams": [],
                        "signature": "trade(address,uint256,address,uint256,uint256,uint256,address,uint8,bytes32,bytes32,uint256)"
                    },
                    "errorInfo": "",
                    "fromAddress": "0x320f624eefc87e9b59b94005876c301b1e6dcd17",
                    "gasUsed": 92986,
                    "id": 0,
                    "methodDecoded": true,
                    "operation": "CALL",
                    "output": "",
                    "revert": false,
                    "revertMessage": "",
                    "selector": "0x0a19b14a",
                    "status": true,
                    "value": "0"
                },
                "nodeType": 0
            },
            "1": {
                "invocation": {
                    "address": "0x0000000000000000000000000000000000000002",
                    "callData": "0xcb00d4747a1fe03395095ce2a5cc681900000000000000000000000000000000000000000000000000000000000000000000000000000000000000001e87f85809dc00008eb24319393716668d768dcec29356ae9cffe2850000000000000000000000000000000000000000000000000000005d21dba00000000000000000000000000000000000000000000000000000000000004d557700000000000000000000000000000000000000000000000000000000ff58a69a",
                    "decodedMethod": {
                        "callParams": [
                            {
                                "name": "data",
                                "type": "bytes",
                                "value": "0x8d12a197cb00d4747a1fe03395095ce2a5cc681900000000000000000000000000000000000000000000000000000000000000000000000000000000000000001e87f85809dc00008eb24319393716668d768dcec29356ae9cffe2850000000000000000000000000000000000000000000000000000005d21dba00000000000000000000000000000000000000000000000000000000000004d557700000000000000000000000000000000000000000000000000000000ff58a69a"
                            }
                        ],
                        "constructorArguments": "",
                        "name": "sha256hash",
                        "returnParams": [
                            {
                                "name": "hash",
                                "type": "bytes32",
                                "value": "0xad0c2b7391e3d97c4b540e24e19058a2c4b500718fd61ac18d652fb31a4d64f2"
                            }
                        ],
                        "signature": "sha256hash(bytes)"
                    },
                    "errorInfo": "",
                    "fromAddress": "0x8d12a197cb00d4747a1fe03395095ce2a5cc6819",
                    "gasUsed": 132,
                    "id": 1,
                    "methodDecoded": true,
                    "operation": "CALL",
                    "output": "0xad0c2b7391e3d97c4b540e24e19058a2c4b500718fd61ac18d652fb31a4d64f2",
                    "revert": false,
                    "revertMessage": "",
                    "selector": "0x8d12a197",
                    "status": true,
                    "value": "0"
                },
                "nodeType": 0
            },
            "2": {
                "invocation": {
                    "address": "0x0000000000000000000000000000000000000001",
                    "callData": "0x6c5b09132ea1a9436678a207ea0dd240706415a9ac0bacfb3452e029000000000000000000000000000000000000000000000000000000000000001b3d771f3447b8c78f70daefdadfee789deb0cffc89a738073fc6231f62996250b036c569ac1ac20836803166cfccba3355cec2312280b37c602ae9b691eff10f9",
                    "decodedMethod": {
                        "callParams": [
                            {
                                "name": "hash",
                                "type": "bytes32",
                                "value": "0x6ec0f0b66c5b09132ea1a9436678a207ea0dd240706415a9ac0bacfb3452e029"
                            },
                            {
                                "name": "v",
                                "type": "uint256",
                                "value": "27"
                            },
                            {
                                "name": "r",
                                "type": "bytes32",
                                "value": "0x3d771f3447b8c78f70daefdadfee789deb0cffc89a738073fc6231f62996250b"
                            },
                            {
                                "name": "s",
                                "type": "bytes32",
                                "value": "0x036c569ac1ac20836803166cfccba3355cec2312280b37c602ae9b691eff10f9"
                            }
                        ],
                        "constructorArguments": "",
                        "name": "ecrecover",
                        "returnParams": [
                            {
                                "name": "",
                                "type": "address",
                                "value": "0x688cea69ed8cbcc1cfdca045a90c7dc2e23e5da7"
                            }
                        ],
                        "signature": "ecrecover(bytes32,uint256,bytes32,bytes32)"
                    },
                    "errorInfo": "",
                    "fromAddress": "0x8d12a197cb00d4747a1fe03395095ce2a5cc6819",
                    "gasUsed": 3000,
                    "id": 2,
                    "methodDecoded": true,
                    "operation": "CALL",
                    "output": "0x000000000000000000000000688cea69ed8cbcc1cfdca045a90c7dc2e23e5da7",
                    "revert": false,
                    "revertMessage": "",
                    "selector": "0x6ec0f0b6",
                    "status": true,
                    "value": "0"
                },
                "nodeType": 0
            },
            "3": {
                "event": {
                    "contract": "0x8d12a197cb00d4747a1fe03395095ce2a5cc6819",
                    "decodedLog": {
                        "name": "Trade",
                        "params": [
                            {
                                "name": "tokenGet",
                                "type": "address",
                                "value": "0x0000000000000000000000000000000000000000"
                            },
                            {
                                "name": "amountGet",
                                "type": "uint256",
                                "value": "1,785,755,153,508,668,709"
                            },
                            {
                                "name": "tokenGive",
                                "type": "address",
                                "value": "0x8eb24319393716668d768dcec29356ae9cffe285"
                            },
                            {
                                "name": "amountGive",
                                "type": "uint256",
                                "value": "324,682,755,183"
                            },
                            {
                                "name": "get",
                                "type": "address",
                                "value": "0x688cea69ed8cbcc1cfdca045a90c7dc2e23e5da7"
                            },
                            {
                                "name": "give",
                                "type": "address",
                                "value": "0x320f624eefc87e9b59b94005876c301b1e6dcd17"
                            }
                        ],
                        "signature": "Trade(address,uint256,address,uint256,address,address)"
                    },
                    "id": 3,
                    "logData": "0x000000000000000000000000000000000000000000000000000000000000000000000000000000000000000000000000000000000000000018c846d9ccb515250000000000000000000000008eb24319393716668d768dcec29356ae9cffe2850000000000000000000000000000000000000000000000000000004b9899ac6f000000000000000000000000688cea69ed8cbcc1cfdca045a90c7dc2e23e5da7000000000000000000000000320f624eefc87e9b59b94005876c301b1e6dcd17",
                    "logDecoded": true,
                    "operation": "EVENT",
                    "revert": false,
                    "status": true,
                    "topics": [
                        "0x6effdda786735d5033bfad5f53e5131abcced9e52be6c507b62d639685fbed6d"
                    ]
                },
                "nodeType": 1
            }
        },
        "gasFlame": [
            {
                "children": [
                    {
                        "children": [
                            {
                                "children": [],
                                "depth": 0,
                                "name": "Initial Gas",
                                "value": 31000
                            },
                            {
                                "children": [
                                    {
                                        "children": [],
                                        "depth": 1,
                                        "name": "sha256hash",
                                        "value": 132
                                    },
                                    {
                                        "children": [],
                                        "depth": 1,
                                        "name": "ecrecover",
                                        "value": 3000
                                    }
                                ],
                                "depth": 0,
                                "name": "Executed Gas",
                                "value": 61986
                            }
                        ],
                        "depth": -1,
                        "name": "Actual Gas Used",
                        "value": 92986
                    },
                    {
                        "children": [],
                        "depth": -1,
                        "name": "Refunded Gas",
                        "value": 0
                    }
                ],
                "depth": -2,
                "name": "Total Gas",
                "value": 92986
            }
        ],
        "isConfirmed": true,
        "mainTrace": [
            {
                "children": [
                    {
                        "children": [
                            {
                                "children": [],
                                "depth": 1,
                                "id": 1,
                                "order": 1
                            },
                            {
                                "children": [],
                                "depth": 1,
                                "id": 2,
                                "order": 2
                            },
                            {
                                "children": [],
                                "depth": 1,
                                "id": 3,
                                "order": 3
                            }
                        ],
                        "depth": 0,
                        "id": 0,
                        "order": 0
                    }
                ],
                "depth": -1,
                "id": -1,
                "order": -1
            }
        ],
        "mainTraceNodeCount": 4,
        "parentIdMap": {
            "0": -1,
            "1": 0,
            "2": 0,
            "3": 0
        },
        "tidyTrace": [
            {
                "children": [
                    {
                        "children": [
                            {
                                "children": [],
                                "depth": 1,
                                "id": 1,
                                "order": 1
                            },
                            {
                                "children": [],
                                "depth": 1,
                                "id": 2,
                                "order": 2
                            },
                            {
                                "children": [],
                                "depth": 1,
                                "id": 3,
                                "order": 3
                            }
                        ],
                        "depth": 0,
                        "id": 0,
                        "order": 0
                    }
                ],
                "depth": -1,
                "id": -1,
                "order": -1
            }
        ],
        "tidyTraceNodeCount": 4
    },
    "state_change": {
        "stateChanges": [
            {
                "address": "0x8d12a197cb00d4747a1fe03395095ce2a5cc6819",
                "erc": "",
                "slots": [
                    {
                        "current": "0x00000000000000000000000000000000000000000000000063be2a798398a73b",
                        "key": "0xf4b83600c2642589802ed9bcace0edd630e597d99f089e4f8c01f35a2d51786b",
                        "prev": "0x0000000000000000000000000000000000000000000000004af5e39fb6e39216"
                    },
                    {
                        "current": "0x00000000000000000000000000000000000000000000003719ac9b00494e91ec",
                        "key": "0xaa5aa2a1f1e8b58d97a3b82f0ea3de5691008176a599589980f87fdf576b8a0f",
                        "prev": "0x00000000000000000000000000000000000000000000003719999298b8909636"
                    },
                    {
                        "current": "0x0000000000000000000000000000000000000000000000000000014c9659f925",
                        "key": "0xc47f474b73b29cb05f700a85cd6138152cb55c07608a4eaf43b63e9f89336e09",
                        "prev": "0x000000000000000000000000000000000000000000000000000001982ef3a594"
                    },
                    {
                        "current": "0x000000000000000000000000000000000000000000000000000000c12a3a19fd",
                        "key": "0x054cd7c2f3da2bab99458fbdb7ad58e079e2bdf9c3e246f288dc4423b1b26ddf",
                        "prev": "0x0000000000000000000000000000000000000000000000000000007591a06d8e"
                    },
                    {
                        "current": "0x00000000000000000000000000000000000000000000000018c846d9ccb51525",
                        "key": "0x53efed380559202d303e55b2813fbbaed7319f98fa91cb76693ba65ac7613688",
                        "prev": "0x0000000000000000000000000000000000000000000000000000000000000000"
                    },
                    {
                        "current": "0x0000000000000000000000000000000000000000000000000000a269da287754",
                        "key": "0x845d1dd065478aaf8705f48275dc8c22ead417a1fb6813dbc1e7d93cfa9c12c1",
                        "prev": "0x00000000000000000000000000000000000000000000000018dbf1ab379b882f"
                    }
                ],
                "storageVariables": []
            }
        ]
    }
}