{
    "balance_change": {
        "balanceChanges": []
    },
    "profile": {
        "basic_info": {
            "baseFee": "12.009207414",
            "blockNumber": 20063006,
            "callData": "0x42af92af0000000000000000000000000000000000000000000000000000000000000080000000000000000000000000000000000000000000000000000000000000028000000000000000000000000000000000000000000000000000000000000002e00000000000000000000000000000000000000000000000000000000000000340000000000000000000000000000000000000000000000000000000000000000f000000000000000000000000000000000000000000000000000000000000000100000000000000000000000000000000000000000000000003311fc80a57000000000000000000000000000000000000000000000000000074c3d285932e800000000000000000000000000000000000000000000000000000000000000000460000000000000000000000000000000000000000000000000000000000000000000000000000000000000000000000000000000000000000000000000000000100000000000000000000000000000000000000000000000000000000000000000000000000000000000000000000000000000000000000000000000000000000000000000000000000000000000000000000000000000000000000000000000000000000000000000000000000000000000000000000000000000000000000000000000000000000000000000000000000000000000000000000000000000000000000000000000000000000000000000000000000000000000000000000000100000000000000000000000000000000000000000000000000000000000000000000000000000000000000000000000000000000000000000000000000000000000000000000000000000000000000000000000000000000002e2f6e5e1480000000000000000000000000000000000000000000000000000000000000000002000000000000000000000000c02aaa39b223fe8d0a0e5c4f27ead9083c756cc2000000000000000000000000ea1779920aa037a4b21912cadfde3a995d9fb1c50000000000000000000000000000000000000000000000000000000000000002000000000000000000000000197d18e91ede55a7e6c0296ed089a64b5056a22800000000000000000000000008047378f0ebc3117d7811a06966b9830023137d00000000000000000000000000000000000000000000000000000000000000030000000000000000000000007a250d5630b4cf539739df2c5dacb4c659f2488d0000000000000000000000005c69bee701ef814a2b6a3edd4b1652cb9cc5aa6f0000000000000000000000005c69bee701ef814a2b6a3edd4b1652cb9cc5aa6f",
            "debugEnable": true,
            "errorInfo": "execution reverted",
            "eventCount": 0,
            "feeRecipient": "0x95222290dd7278aa3ddd389cc1e1d165cc4bafe5",
            "formatValue": "0.473",
            "gasLimit": 865000,
            "gasPrice": "25.009207414",
            "gasUsed": 45073,
            "intTxnCount": 1,
            "internalRevert": true,
            "internalRevertMessage": "",
            "isContractCreation": false,
            "isFlashloan": false,
            "maxFee": "222",
            "nonce": 7226,
            "overwritedBlockNumber": -1,
            "priorityFee": "13",
            "receiver": "0xe5bba2bde7d4192d4b986e9e87a39f0c0dadeb38",
            "revertMessage": "",
            "sender": "0x197d18e91ede55a7e6c0296ed089a64b5056a228",
            "simulationEnable": true,
            "sourceTxnHash": "0xce3328373ec6fc610e3d72c5aa9e997fa22dedc65ca745e2c4d292133aa7472b",
            "status": false,
            "timestamp": "2024-06-10T17:45:23Z",
            "transactionFee": "0.001127240005771222",
            "txnHash": "0xce3328373ec6fc610e3d72c5aa9e997fa22dedc65ca745e2c4d292133aa7472b",
            "txnIndex": 20,
            "type": 2,
            "value": "473000000000000000"
        },
        "fund_flow": [],
        "token_infos": [
            {
                "address": "0xc02aaa39b223fe8d0a0e5c4f27ead9083c756cc2",
                "decimals": 18
            },
            {
                "address": "0xeeeeeeeeeeeeeeeeeeeeeeeeeeeeeeeeeeeeeeee",
                "decimals": 18
            }
        ]
    },
    "address_label": {
        "labels": [
            {
                "address": "0x0000000000000000000000000000000000000003",
                "label": "Precompiled"
            },
            {
                "address": "0xeeeeeeeeeeeeeeeeeeeeeeeeeeeeeeeeeeeeeeee",
                "label": "Ether"
            },
            {
                "address": "0xc02aaa39b223fe8d0a0e5c4f27ead9083c756cc2",
                "label": "Wrapped Ether (WETH)"
            },
            {
                "address": "0xea1779920aa037a4b21912cadfde3a995d9fb1c5",
                "label": "$Sluts"
            },
            {
                "address": "0x0000000000000000000000000000000000000001",
                "label": "Precompiled"
            },
            {
                "address": "0x0000000000000000000000000000000000000002",
                "label": "Precompiled"
            },
            {
                "address": "0xe5bba2bde7d4192d4b986e9e87a39f0c0dadeb38",
                "label": "MEV Bot: 0xe5b...b38"
            },
            {
                "address": "0x7a250d5630b4cf539739df2c5dacb4c659f2488d",
                "label": "Uniswap V2: Router 2"
            },
            {
                "address": "0x0000000000000000000000000000000000000004",
                "label": "Precompiled"
            }
        ]
    },
    "trace": {
        "accountLabels": null,
        "dataMap": {
            "-1": {
                "invocation": {
                    "address": "0x197d18e91ede55a7e6c0296ed089a64b5056a228",
                    "callData": "",
                    "decodedMethod": null,
                    "errorInfo": "",
                    "fromAddress": "",
                    "gasUsed": 0,
                    "id": -1,
                    "methodDecoded": false,
                    "operation": "",
                    "output": "",
                    "revert": false,
                    "revertMessage": "",
                    "selector": "",
                    "status": false,
                    "value": ""
                },
                "nodeType": 0
            },
            "0": {
                "invocation": {
                    "address": "0xe5bba2bde7d4192d4b986e9e87a39f0c0dadeb38",
                    "callData": "0x0000000000000000000000000000000000000000000000000000000000000080000000000000000000000000000000000000000000000000000000000000028000000000000000000000000000000000000000000000000000000000000002e00000000000000000000000000000000000000000000000000000000000000340000000000000000000000000000000000000000000000000000000000000000f000000000000000000000000000000000000000000000000000000000000000100000000000000000000000000000000000000000000000003311fc80a57000000000000000000000000000000000000000000000000000074c3d285932e800000000000000000000000000000000000000000000000000000000000000000460000000000000000000000000000000000000000000000000000000000000000000000000000000000000000000000000000000000000000000000000000000100000000000000000000000000000000000000000000000000000000000000000000000000000000000000000000000000000000000000000000000000000000000000000000000000000000000000000000000000000000000000000000000000000000000000000000000000000000000000000000000000000000000000000000000000000000000000000000000000000000000000000000000000000000000000000000000000000000000000000000000000000000000000000000000100000000000000000000000000000000000000000000000000000000000000000000000000000000000000000000000000000000000000000000000000000000000000000000000000000000000000000000000000000000002e2f6e5e1480000000000000000000000000000000000000000000000000000000000000000002000000000000000000000000c02aaa39b223fe8d0a0e5c4f27ead9083c756cc2000000000000000000000000ea1779920aa037a4b21912cadfde3a995d9fb1c50000000000000000000000000000000000000000000000000000000000000002000000000000000000000000197d18e91ede55a7e6c0296ed089a64b5056a22800000000000000000000000008047378f0ebc3117d7811a06966b9830023137d00000000000000000000000000000000000000000000000000000000000000030000000000000000000000007a250d5630b4cf539739df2c5dacb4c659f2488d0000000000000000000000005c69bee701ef814a2b6a3edd4b1652cb9cc5aa6f0000000000000000000000005c69bee701ef814a2b6a3edd4b1652cb9cc5aa6f",
                    "decodedMethod": null,
                    "errorInfo": "execution reverted",
                    "fromAddress": "0x197d18e91ede55a7e6c0296ed089a64b5056a228",
                    "gasUsed": 45073,
                    "id": 0,
                    "methodDecoded": false,
                    "operation": "CALL",
                    "output": "",
                    "revert": true,
                    "revertMessage": "",
                    "selector": "0x42af92af",
                    "status": false,
                    "value": "0.473"
                },
                "nodeType": 0
            },
            "1": {
                "invocation": {
                    "address": "0x7a250d5630b4cf539739df2c5dacb4c659f2488d",
                    "callData": "0x00000000000000000000000000000000000000000000000003311fc80a57000000000000000000000000000000000000000000000000000000000000000000400000000000000000000000000000000000000000000000000000000000000002000000000000000000000000c02aaa39b223fe8d0a0e5c4f27ead9083c756cc2000000000000000000000000ea1779920aa037a4b21912cadfde3a995d9fb1c5",
                    "decodedMethod": {
                        "callParams": [
                            {
                                "name": "amountIn",
                                "type": "uint256",
                                "value": "230,000,000,000,000,000"
                            },
                            {
                                "name": "path",
                                "type": "address[]",
                                "value": [
                                    "0xc02aaa39b223fe8d0a0e5c4f27ead9083c756cc2",
                                    "0xea1779920aa037a4b21912cadfde3a995d9fb1c5"
                                ]
                            }
                        ],
                        "constructorArguments": "",
                        "name": "getAmountsOut",
                        "returnParams": [],
                        "signature": "getAmountsOut(uint256,address[])"
                    },
                    "errorInfo": "execution reverted",
                    "fromAddress": "0xe5bba2bde7d4192d4b986e9e87a39f0c0dadeb38",
                    "gasUsed": 4565,
                    "id": 1,
                    "methodDecoded": true,
                    "operation": "STATICCALL",
                    "output": "",
                    "revert": true,
                    "revertMessage": "",
                    "selector": "0xd06ca61f",
                    "status": false,
                    "value": "0"
                },
                "nodeType": 0
            }
        },
        "gasFlame": [
            {
                "children": [
                    {
                        "children": [
                            {
                                "children": [],
                                "depth": 0,
                                "name": "Initial Gas",
                                "value": 26980
                            },
                            {
                                "children": [
                                    {
                                        "children": [],
                                        "depth": 1,
                                        "name": "getAmountsOut",
                                        "value": 4565
                                    }
                                ],
                                "depth": 0,
                                "name": "Executed Gas",
                                "value": 18093
                            }
                        ],
                        "depth": -1,
                        "name": "Actual Gas Used",
                        "value": 45073
                    },
                    {
                        "children": [],
                        "depth": -1,
                        "name": "Refunded Gas",
                        "value": 0
                    }
                ],
                "depth": -2,
                "name": "Total Gas",
                "value": 45073
            }
        ],
        "isConfirmed": true,
        "mainTrace": [
            {
                "children": [
                    {
                        "children": [
                            {
                                "children": [],
                                "depth": 1,
                                "id": 1,
                                "order": 1
                            }
                        ],
                        "depth": 0,
                        "id": 0,
                        "order": 0
                    }
                ],
                "depth": -1,
                "id": -1,
                "order": -1
            }
        ],
        "mainTraceNodeCount": 2,
        "parentIdMap": {
            "0": -1,
            "1": 0
        },
        "tidyTrace": [
            {
                "children": [
                    {
                        "children": [],
                        "depth": 0,
                        "id": 0,
                        "order": 0
                    }
                ],
                "depth": -1,
                "id": -1,
                "order": -1
            }
        ],
        "tidyTraceNodeCount": 1
    },
    "state_change": {
        "stateChanges": []
    }
}