{
    "balance_change": {
        "balanceChanges": [
            {
                "account": "0xb1af2e7a23a373a2ecf2d356fb83323cbbd8c1d5",
                "assets": [
                    {
                        "address": "0x8207c1ffc5b6804f6024322ccf34f29c3541ae26",
                        "amount": "6,444.4201",
                        "iconUrl": "https://assets.blocksec.com/icon/ac011413d2bbf74e9d35627a6675cd00d961b46be3f96ac04318bccd24c92cfd.png",
                        "isERC1155": false,
                        "isERC721": false,
                        "sign": false,
                        "value": "1470.681917"
                    }
                ]
            },
            {
                "account": "0xaf5971a903e30b666dc15ded4d6bded78ccc0271",
                "assets": [
                    {
                        "address": "0x8207c1ffc5b6804f6024322ccf34f29c3541ae26",
                        "amount": "6,444.4201",
                        "iconUrl": "https://assets.blocksec.com/icon/ac011413d2bbf74e9d35627a6675cd00d961b46be3f96ac04318bccd24c92cfd.png",
                        "isERC1155": false,
                        "isERC721": false,
                        "sign": true,
                        "value": "1470.681917"
                    }
                ]
            }
        ]
    },
    "profile": {
        "basic_info": {
            "baseFee": "18.642352307",
            "blockNumber": 19597916,
            "callData": "0xa9059cbb000000000000000000000000af5971a903e30b666dc15ded4d6bded78ccc027100000000000000000000000000000000000000000000015d5a4b70f2ef544000",
            "debugEnable": true,
            "errorInfo": "",
            "eventCount": 1,
            "feeRecipient": "0x95222290dd7278aa3ddd389cc1e1d165cc4bafe5",
            "formatValue": "0",
            "gasLimit": 56808,
            "gasPrice": "19.096405669",
            "gasUsed": 52008,
            "intTxnCount": 0,
            "internalRevert": false,
            "internalRevertMessage": "",
            "isContractCreation": false,
            "isFlashloan": false,
            "maxFee": "28.098113204",
            "nonce": 14,
            "overwritedBlockNumber": -1,
            "priorityFee": "0.454053362",
            "receiver": "0x8207c1ffc5b6804f6024322ccf34f29c3541ae26",
            "revertMessage": "",
            "sender": "0xb1af2e7a23a373a2ecf2d356fb83323cbbd8c1d5",
            "simulationEnable": true,
            "sourceTxnHash": "0xce9d6009e3091f2d4d7e9670cb22e5fa4fc4996784043af4b8cab4e9289bb316",
            "status": true,
            "timestamp": "2024-04-06T16:35:47Z",
            "transactionFee": "0.000993165866033352",
            "txnHash": "0xce9d6009e3091f2d4d7e9670cb22e5fa4fc4996784043af4b8cab4e9289bb316",
            "txnIndex": 99,
            "type": 2,
            "value": "0"
        },
        "fund_flow": [
            {
                "amount": "6,444.4201",
                "from": "0xb1af2e7a23a373a2ecf2d356fb83323cbbd8c1d5",
                "id": 1,
                "isERC1155": false,
                "isERC721": false,
                "isReverted": false,
                "order": 1,
                "to": "0xaf5971a903e30b666dc15ded4d6bded78ccc0271",
                "token": "0x8207c1ffc5b6804f6024322ccf34f29c3541ae26"
            }
        ],
        "token_infos": [
            {
                "address": "0x8207c1ffc5b6804f6024322ccf34f29c3541ae26",
                "decimals": 18
            },
            {
                "address": "0xc02aaa39b223fe8d0a0e5c4f27ead9083c756cc2",
                "decimals": 18
            },
            {
                "address": "0xeeeeeeeeeeeeeeeeeeeeeeeeeeeeeeeeeeeeeeee",
                "decimals": 18
            }
        ]
    },
    "address_label": {
        "labels": [
            {
                "address": "0x0000000000000000000000000000000000000002",
                "label": "Precompiled"
            },
            {
                "address": "0x0000000000000000000000000000000000000003",
                "label": "Precompiled"
            },
            {
                "address": "0x0000000000000000000000000000000000000004",
                "label": "Precompiled"
            },
            {
                "address": "0xeeeeeeeeeeeeeeeeeeeeeeeeeeeeeeeeeeeeeeee",
                "label": "Ether"
            },
            {
                "address": "0x8207c1ffc5b6804f6024322ccf34f29c3541ae26",
                "label": "Origin: OGN Token"
            },
            {
                "address": "0x0000000000000000000000000000000000000001",
                "label": "Precompiled"
            }
        ]
    },
    "trace": {
        "accountLabels": null,
        "dataMap": {
            "-1": {
                "invocation": {
                    "address": "0xb1af2e7a23a373a2ecf2d356fb83323cbbd8c1d5",
                    "callData": "",
                    "decodedMethod": null,
                    "errorInfo": "",
                    "fromAddress": "",
                    "gasUsed": 0,
                    "id": -1,
                    "methodDecoded": false,
                    "operation": "",
                    "output": "",
                    "revert": false,
                    "revertMessage": "",
                    "selector": "",
                    "status": false,
                    "value": ""
                },
                "nodeType": 0
            },
            "0": {
                "invocation": {
                    "address": "0x8207c1ffc5b6804f6024322ccf34f29c3541ae26",
                    "callData": "0x000000000000000000000000af5971a903e30b666dc15ded4d6bded78ccc027100000000000000000000000000000000000000000000015d5a4b70f2ef544000",
                    "decodedMethod": {
                        "callParams": [
                            {
                                "name": "_to",
                                "type": "address",
                                "value": "0xaf5971a903e30b666dc15ded4d6bded78ccc0271"
                            },
                            {
                                "decimalAvailable": true,
                                "name": "_value",
                                "type": "uint256",
                                "value": "6,444,420,100,000,000,000,000"
                            }
                        ],
                        "constructorArguments": "",
                        "name": "transfer",
                        "returnParams": [
                            {
                                "name": "",
                                "type": "bool",
                                "value": true
                            }
                        ],
                        "signature": "transfer(address,uint256)"
                    },
                    "errorInfo": "",
                    "fromAddress": "0xb1af2e7a23a373a2ecf2d356fb83323cbbd8c1d5",
                    "gasUsed": 52008,
                    "id": 0,
                    "methodDecoded": true,
                    "operation": "CALL",
                    "output": "0x0000000000000000000000000000000000000000000000000000000000000001",
                    "revert": false,
                    "revertMessage": "",
                    "selector": "0xa9059cbb",
                    "status": true,
                    "value": "0"
                },
                "nodeType": 0
            },
            "1": {
                "event": {
                    "contract": "0x8207c1ffc5b6804f6024322ccf34f29c3541ae26",
                    "decodedLog": {
                        "name": "Transfer",
                        "params": [
                            {
                                "name": "from",
                                "type": "address",
                                "value": "0xb1af2e7a23a373a2ecf2d356fb83323cbbd8c1d5"
                            },
                            {
                                "name": "to",
                                "type": "address",
                                "value": "0xaf5971a903e30b666dc15ded4d6bded78ccc0271"
                            },
                            {
                                "decimalAvailable": true,
                                "name": "value",
                                "type": "uint256",
                                "value": "6,444,420,100,000,000,000,000"
                            }
                        ],
                        "signature": "Transfer(address,address,uint256)"
                    },
                    "id": 1,
                    "logData": "0x00000000000000000000000000000000000000000000015d5a4b70f2ef544000",
                    "logDecoded": true,
                    "operation": "EVENT",
                    "revert": false,
                    "status": true,
                    "topics": [
                        "0xddf252ad1be2c89b69c2b068fc378daa952ba7f163c4a11628f55a4df523b3ef",
                        "0x000000000000000000000000b1af2e7a23a373a2ecf2d356fb83323cbbd8c1d5",
                        "0x000000000000000000000000af5971a903e30b666dc15ded4d6bded78ccc0271"
                    ]
                },
                "nodeType": 1
            }
        },
        "gasFlame": [
            {
                "children": [
                    {
                        "children": [
                            {
                                "children": [],
                                "depth": 0,
                                "name": "Initial Gas",
                                "value": 21668
                            },
                            {
                                "children": [],
                                "depth": 0,
                                "name": "Executed Gas",
                                "value": 35140
                            }
                        ],
                        "depth": -1,
                        "name": "Actual Gas Used",
                        "value": 52008
                    },
                    {
                        "children": [],
                        "depth": -1,
                        "name": "Refunded Gas",
                        "value": 4800
                    }
                ],
                "depth": -2,
                "name": "Total Gas",
                "value": 56808
            }
        ],
        "isConfirmed": true,
        "mainTrace": [
            {
                "children": [
                    {
                        "children": [
                            {
                                "children": [],
                                "depth": 1,
                                "id": 1,
                                "order": 1
                            }
                        ],
                        "depth": 0,
                        "id": 0,
                        "order": 0
                    }
                ],
                "depth": -1,
                "id": -1,
                "order": -1
            }
        ],
        "mainTraceNodeCount": 2,
        "parentIdMap": {
            "0": -1,
            "1": 0
        },
        "tidyTrace": [
            {
                "children": [
                    {
                        "children": [
                            {
                                "children": [],
                                "depth": 1,
                                "id": 1,
                                "order": 1
                            }
                        ],
                        "depth": 0,
                        "id": 0,
                        "order": 0
                    }
                ],
                "depth": -1,
                "id": -1,
                "order": -1
            }
        ],
        "tidyTraceNodeCount": 2
    },
    "state_change": {
        "stateChanges": [
            {
                "address": "0x8207c1ffc5b6804f6024322ccf34f29c3541ae26",
                "erc": "ERC-20",
                "slots": [
                    {
                        "current": "0x0000000000000000000000000000000000000000000000000000000000000000",
                        "key": "0xd68238ef46e18c6849ab2589a9e041c976c00ebfe6f053db559131c11125d84d",
                        "prev": "0x00000000000000000000000000000000000000000000015d5a4b70f2ef544000"
                    },
                    {
                        "current": "0x00000000000000000000000000000000000000000000015d5a4b70f2ef544000",
                        "key": "0xd9c1cb7db2b8c81b820f087b4b7e8b62d33829bb813a31376b98e998aca3d4b7",
                        "prev": "0x0000000000000000000000000000000000000000000000000000000000000000"
                    }
                ],
                "storageVariables": [
                    {
                        "name": "balances",
                        "type": "mapping(address => uint256)",
                        "value": {
                            "pairs": [
                                {
                                    "key": "0xaf5971a903e30b666dc15ded4d6bded78ccc0271",
                                    "value": {
                                        "current": "6444420100000000000000",
                                        "prev": "0",
                                        "typeTag": 1
                                    }
                                },
                                {
                                    "key": "0xb1af2e7a23a373a2ecf2d356fb83323cbbd8c1d5",
                                    "value": {
                                        "current": "0",
                                        "prev": "6444420100000000000000",
                                        "typeTag": 1
                                    }
                                }
                            ],
                            "typeTag": 4
                        }
                    }
                ]
            }
        ]
    }
}