{
    "balance_change": {
        "balanceChanges": [
            {
                "account": "0x0996baffa9eb82462608a7495723eedded8068ff",
                "assets": [
                    {
                        "address": "0xb64ef51c888972c908cfacf59b47c1afbc0ab8ac",
                        "amount": "0.38623569",
                        "iconUrl": "https://assets.blocksec.com/icon/adb507b7df0c119aef80ed36afeebbe0220982ead2feb7b77ef22bb1559b7c3a.png",
                        "isERC1155": false,
                        "isERC721": false,
                        "sign": false,
                        "value": ""
                    }
                ]
            },
            {
                "account": "0x38963071204b213801fb93c5bc3b45885a39d670",
                "assets": [
                    {
                        "address": "0xb64ef51c888972c908cfacf59b47c1afbc0ab8ac",
                        "amount": "0.38623569",
                        "iconUrl": "https://assets.blocksec.com/icon/adb507b7df0c119aef80ed36afeebbe0220982ead2feb7b77ef22bb1559b7c3a.png",
                        "isERC1155": false,
                        "isERC721": false,
                        "sign": true,
                        "value": ""
                    }
                ]
            }
        ]
    },
    "profile": {
        "basic_info": {
            "baseFee": "",
            "blockNumber": 7306650,
            "callData": "0xa9059cbb00000000000000000000000038963071204b213801fb93c5bc3b45885a39d67000000000000000000000000000000000000000000000000000000000024d5951",
            "debugEnable": true,
            "errorInfo": "",
            "eventCount": 1,
            "feeRecipient": "0x52bc44d5378309ee2abf1539bf71de1b7d7be3b5",
            "formatValue": "0",
            "gasLimit": 60000,
            "gasPrice": "1",
            "gasUsed": 21752,
            "intTxnCount": 0,
            "internalRevert": false,
            "internalRevertMessage": "",
            "isContractCreation": false,
            "isFlashloan": false,
            "maxFee": "",
            "nonce": 0,
            "overwritedBlockNumber": -1,
            "priorityFee": "",
            "receiver": "0xb64ef51c888972c908cfacf59b47c1afbc0ab8ac",
            "revertMessage": "",
            "sender": "0x0996baffa9eb82462608a7495723eedded8068ff",
            "simulationEnable": true,
            "sourceTxnHash": "0xce13c28134010297ab301556c9a9825ee84f80253066c7709db127959cccb184",
            "status": true,
            "timestamp": "2019-03-05T02:16:20Z",
            "transactionFee": "0.000021752",
            "txnHash": "0xce13c28134010297ab301556c9a9825ee84f80253066c7709db127959cccb184",
            "txnIndex": 52,
            "type": 0,
            "value": "0"
        },
        "fund_flow": [
            {
                "amount": "0.38623569",
                "from": "0x0996baffa9eb82462608a7495723eedded8068ff",
                "id": 1,
                "isERC1155": false,
                "isERC721": false,
                "isReverted": false,
                "order": 1,
                "to": "0x38963071204b213801fb93c5bc3b45885a39d670",
                "token": "0xb64ef51c888972c908cfacf59b47c1afbc0ab8ac"
            }
        ],
        "token_infos": [
            {
                "address": "0xb64ef51c888972c908cfacf59b47c1afbc0ab8ac",
                "decimals": 8
            },
            {
                "address": "0xc02aaa39b223fe8d0a0e5c4f27ead9083c756cc2",
                "decimals": 18
            },
            {
                "address": "0xeeeeeeeeeeeeeeeeeeeeeeeeeeeeeeeeeeeeeeee",
                "decimals": 18
            }
        ]
    },
    "address_label": {
        "labels": [
            {
                "address": "0xb64ef51c888972c908cfacf59b47c1afbc0ab8ac",
                "label": "Storj (STORJ)"
            },
            {
                "address": "0x0000000000000000000000000000000000000001",
                "label": "Precompiled"
            },
            {
                "address": "0x0000000000000000000000000000000000000002",
                "label": "Precompiled"
            },
            {
                "address": "0x0000000000000000000000000000000000000003",
                "label": "Precompiled"
            },
            {
                "address": "0x0000000000000000000000000000000000000004",
                "label": "Precompiled"
            },
            {
                "address": "0xeeeeeeeeeeeeeeeeeeeeeeeeeeeeeeeeeeeeeeee",
                "label": "Ether"
            }
        ]
    },
    "trace": {
        "accountLabels": null,
        "dataMap": {
            "-1": {
                "invocation": {
                    "address": "0x0996baffa9eb82462608a7495723eedded8068ff",
                    "callData": "",
                    "decodedMethod": null,
                    "errorInfo": "",
                    "fromAddress": "",
                    "gasUsed": 0,
                    "id": -1,
                    "methodDecoded": false,
                    "operation": "",
                    "output": "",
                    "revert": false,
                    "revertMessage": "",
                    "selector": "",
                    "status": false,
                    "value": ""
                },
                "nodeType": 0
            },
            "0": {
                "invocation": {
                    "address": "0xb64ef51c888972c908cfacf59b47c1afbc0ab8ac",
                    "callData": "0x00000000000000000000000038963071204b213801fb93c5bc3b45885a39d67000000000000000000000000000000000000000000000000000000000024d5951",
                    "decodedMethod": {
                        "callParams": [
                            {
                                "name": "_to",
                                "type": "address",
                                "value": "0x38963071204b213801fb93c5bc3b45885a39d670"
                            },
                            {
                                "decimalAvailable": true,
                                "name": "_value",
                                "type": "uint256",
                                "value": "38,623,569"
                            }
                        ],
                        "constructorArguments": "",
                        "name": "transfer",
                        "returnParams": [
                            {
                                "name": "success",
                                "type": "bool",
                                "value": true
                            }
                        ],
                        "signature": "transfer(address,uint256)"
                    },
                    "errorInfo": "",
                    "fromAddress": "0x0996baffa9eb82462608a7495723eedded8068ff",
                    "gasUsed": 21752,
                    "id": 0,
                    "methodDecoded": true,
                    "operation": "CALL",
                    "output": "0x0000000000000000000000000000000000000000000000000000000000000001",
                    "revert": false,
                    "revertMessage": "",
                    "selector": "0xa9059cbb",
                    "status": true,
                    "value": "0"
                },
                "nodeType": 0
            },
            "1": {
                "event": {
                    "contract": "0xb64ef51c888972c908cfacf59b47c1afbc0ab8ac",
                    "decodedLog": {
                        "name": "Transfer",
                        "params": [
                            {
                                "name": "from",
                                "type": "address",
                                "value": "0x0996baffa9eb82462608a7495723eedded8068ff"
                            },
                            {
                                "name": "to",
                                "type": "address",
                                "value": "0x38963071204b213801fb93c5bc3b45885a39d670"
                            },
                            {
                                "decimalAvailable": true,
                                "name": "value",
                                "type": "uint256",
                                "value": "38,623,569"
                            }
                        ],
                        "signature": "Transfer(address,address,uint256)"
                    },
                    "id": 1,
                    "logData": "0x00000000000000000000000000000000000000000000000000000000024d5951",
                    "logDecoded": true,
                    "operation": "EVENT",
                    "revert": false,
                    "status": true,
                    "topics": [
                        "0xddf252ad1be2c89b69c2b068fc378daa952ba7f163c4a11628f55a4df523b3ef",
                        "0x0000000000000000000000000996baffa9eb82462608a7495723eedded8068ff",
                        "0x00000000000000000000000038963071204b213801fb93c5bc3b45885a39d670"
                    ]
                },
                "nodeType": 1
            }
        },
        "gasFlame": [
            {
                "children": [
                    {
                        "children": [
                            {
                                "children": [],
                                "depth": 0,
                                "name": "Initial Gas",
                                "value": 23064
                            },
                            {
                                "children": [],
                                "depth": 0,
                                "name": "Executed Gas",
                                "value": 13688
                            }
                        ],
                        "depth": -1,
                        "name": "Actual Gas Used",
                        "value": 21752
                    },
                    {
                        "children": [],
                        "depth": -1,
                        "name": "Refunded Gas",
                        "value": 15000
                    }
                ],
                "depth": -2,
                "name": "Total Gas",
                "value": 36752
            }
        ],
        "isConfirmed": true,
        "mainTrace": [
            {
                "children": [
                    {
                        "children": [
                            {
                                "children": [],
                                "depth": 1,
                                "id": 1,
                                "order": 1
                            }
                        ],
                        "depth": 0,
                        "id": 0,
                        "order": 0
                    }
                ],
                "depth": -1,
                "id": -1,
                "order": -1
            }
        ],
        "mainTraceNodeCount": 2,
        "parentIdMap": {
            "0": -1,
            "1": 0
        },
        "tidyTrace": [
            {
                "children": [
                    {
                        "children": [
                            {
                                "children": [],
                                "depth": 1,
                                "id": 1,
                                "order": 1
                            }
                        ],
                        "depth": 0,
                        "id": 0,
                        "order": 0
                    }
                ],
                "depth": -1,
                "id": -1,
                "order": -1
            }
        ],
        "tidyTraceNodeCount": 2
    },
    "state_change": {
        "stateChanges": [
            {
                "address": "0xb64ef51c888972c908cfacf59b47c1afbc0ab8ac",
                "erc": "ERC-20",
                "slots": [
                    {
                        "current": "0x0000000000000000000000000000000000000000000000000000000000000000",
                        "key": "0xf3aa9e08e33c9478cdf0888e941aa2fc1cc05d90f4cd193345c9f47ca780a934",
                        "prev": "0x00000000000000000000000000000000000000000000000000000000024d5951"
                    },
                    {
                        "current": "0x00000000000000000000000000000000000000000000000000000b684bcac134",
                        "key": "0x55e214d1241e7a052c45cbba556366522b1130ae91b071956e2b0314d8a24c44",
                        "prev": "0x00000000000000000000000000000000000000000000000000000b68497d67e3"
                    }
                ],
                "storageVariables": []
            }
        ]
    }
}