{
    "balance_change": {
        "balanceChanges": [
            {
                "account": "0x0a3525186219f60540f7afb87032f8211e18308b",
                "assets": [
                    {
                        "address": "0x1f9840a85d5af5bf1d1762f925bdaddc4201f984",
                        "amount": "400",
                        "iconUrl": "https://assets.blocksec.com/icon/a11b26a37f84e146d773ae4914e43619075ce4c922ad0a1fa46464f3049bf839.png",
                        "isERC1155": false,
                        "isERC721": false,
                        "sign": true,
                        "value": ""
                    }
                ]
            },
            {
                "account": "0x090d4613473dee047c3f2706764f49e0821d256e",
                "assets": [
                    {
                        "address": "0x1f9840a85d5af5bf1d1762f925bdaddc4201f984",
                        "amount": "400",
                        "iconUrl": "https://assets.blocksec.com/icon/a11b26a37f84e146d773ae4914e43619075ce4c922ad0a1fa46464f3049bf839.png",
                        "isERC1155": false,
                        "isERC721": false,
                        "sign": false,
                        "value": ""
                    }
                ]
            }
        ]
    },
    "profile": {
        "basic_info": {
            "baseFee": "",
            "blockNumber": 10891909,
            "callData": "0x2e7ba6ef00000000000000000000000000000000000000000000000000000000000028380000000000000000000000000a3525186219f60540f7afb87032f8211e18308b000000000000000000000000000000000000000000000015af1d78b58c400000000000000000000000000000000000000000000000000000000000000000008000000000000000000000000000000000000000000000000000000000000000127a12213868e86a02a2ca2806b87447740124994560cdc191e081e2be648c98e2c37b9c98e9744b782be7a87eecedba7ec6f468545d6bee2b7e04436c2ca26c11b4013ae79faa7d0e2edbdd6059de1bbecbf968b3af4ff3229c211c121764d2f01805d469565917fa77054f9f56947ba59aad892bb071a7087f488c6c35537e7dae133a651cdd3651080045e8e6c16c90ed6379ee6d69f975d72fb0efce68d9c9f8ad97c04d61d30dd9f240fec3482b9e04d9b40b40e8fe2939deec18be785b1cf2d65339c3769000e0d3ef7bd25fc560af263d4b86b3bcec95ed6e3b79a3a3cd1b03233906becc827ee359ee45ae661e3fe1e87e256e4eb881bd69ac60d7243374ca5a54bb18201ed45c4741adcd2105b36cf6a837edc435d2c5a2fd0b51bdc00f5fc3a7410688edf6b638ee4277f58546063117fa5646f90875d82759b509c645372958d58a98a1f7e4ac294fad2286104217cd8faabdffe070fa3efb5f82fc0f9078a0942c4b8e7da57391f0975d3f06e3b3367ec94de1f4e946e6ca9bb0e31270d8e99ce9945777c6be5a780c14648a4f6063df3251aac5cbffe8c092a483623a937d40ea8744c9f1052ca87b8729e60a2eb35ec12495dc19b5f04355dc2c19899bd0f8d4e01fcb8f6d5ce14c7e083af764dd3959c2dc5bdd864f18c792f9489c97bd8d7f2dc793279280a06f067d139ff1e7fbb1a97c4fe7e8b8cba9b5934e08bb6b91a529a32255dbe645bfc0a7f4cd36a6c19565e7a436fd34d038432adb2d94e778166bcbacf53ba7b9d34046fbf18943170ec79565b21c5d8499e490",
            "debugEnable": true,
            "errorInfo": "",
            "eventCount": 2,
            "feeRecipient": "0x3ecef08d0e2dad803847e052249bb4f8bff2d5bb",
            "formatValue": "0",
            "gasLimit": 89974,
            "gasPrice": "112",
            "gasUsed": 81795,
            "intTxnCount": 1,
            "internalRevert": false,
            "internalRevertMessage": "",
            "isContractCreation": false,
            "isFlashloan": false,
            "maxFee": "",
            "nonce": 2,
            "overwritedBlockNumber": -1,
            "priorityFee": "",
            "receiver": "0x090d4613473dee047c3f2706764f49e0821d256e",
            "revertMessage": "",
            "sender": "0x0a3525186219f60540f7afb87032f8211e18308b",
            "simulationEnable": true,
            "sourceTxnHash": "0xce1d63a158bfae11ee61087096b055fe36579b83f54153dbf5559043b81e9bd8",
            "status": true,
            "timestamp": "2020-09-19T09:42:26Z",
            "transactionFee": "0.00916104",
            "txnHash": "0xce1d63a158bfae11ee61087096b055fe36579b83f54153dbf5559043b81e9bd8",
            "txnIndex": 50,
            "type": 0,
            "value": "0"
        },
        "fund_flow": [
            {
                "amount": "400",
                "from": "0x090d4613473dee047c3f2706764f49e0821d256e",
                "id": 1,
                "isERC1155": false,
                "isERC721": false,
                "isReverted": false,
                "order": 1,
                "to": "0x0a3525186219f60540f7afb87032f8211e18308b",
                "token": "0x1f9840a85d5af5bf1d1762f925bdaddc4201f984"
            }
        ],
        "token_infos": [
            {
                "address": "0x1f9840a85d5af5bf1d1762f925bdaddc4201f984",
                "decimals": 18
            },
            {
                "address": "0xc02aaa39b223fe8d0a0e5c4f27ead9083c756cc2",
                "decimals": 18
            },
            {
                "address": "0xeeeeeeeeeeeeeeeeeeeeeeeeeeeeeeeeeeeeeeee",
                "decimals": 18
            }
        ]
    },
    "address_label": {
        "labels": [
            {
                "address": "0x0000000000000000000000000000000000000003",
                "label": "Precompiled"
            },
            {
                "address": "0x0000000000000000000000000000000000000004",
                "label": "Precompiled"
            },
            {
                "address": "0xeeeeeeeeeeeeeeeeeeeeeeeeeeeeeeeeeeeeeeee",
                "label": "Ether"
            },
            {
                "address": "0x090d4613473dee047c3f2706764f49e0821d256e",
                "label": "Uniswap: Token Distributor"
            },
            {
                "address": "0x1f9840a85d5af5bf1d1762f925bdaddc4201f984",
                "label": "Uniswap Protocol: UNI token"
            },
            {
                "address": "0x0000000000000000000000000000000000000001",
                "label": "Precompiled"
            },
            {
                "address": "0x0000000000000000000000000000000000000002",
                "label": "Precompiled"
            }
        ]
    },
    "trace": {
        "accountLabels": null,
        "dataMap": {
            "-1": {
                "invocation": {
                    "address": "0x0a3525186219f60540f7afb87032f8211e18308b",
                    "callData": "",
                    "decodedMethod": null,
                    "errorInfo": "",
                    "fromAddress": "",
                    "gasUsed": 0,
                    "id": -1,
                    "methodDecoded": false,
                    "operation": "",
                    "output": "",
                    "revert": false,
                    "revertMessage": "",
                    "selector": "",
                    "status": false,
                    "value": ""
                },
                "nodeType": 0
            },
            "0": {
                "invocation": {
                    "address": "0x090d4613473dee047c3f2706764f49e0821d256e",
                    "callData": "0x00000000000000000000000000000000000000000000000000000000000028380000000000000000000000000a3525186219f60540f7afb87032f8211e18308b000000000000000000000000000000000000000000000015af1d78b58c400000000000000000000000000000000000000000000000000000000000000000008000000000000000000000000000000000000000000000000000000000000000127a12213868e86a02a2ca2806b87447740124994560cdc191e081e2be648c98e2c37b9c98e9744b782be7a87eecedba7ec6f468545d6bee2b7e04436c2ca26c11b4013ae79faa7d0e2edbdd6059de1bbecbf968b3af4ff3229c211c121764d2f01805d469565917fa77054f9f56947ba59aad892bb071a7087f488c6c35537e7dae133a651cdd3651080045e8e6c16c90ed6379ee6d69f975d72fb0efce68d9c9f8ad97c04d61d30dd9f240fec3482b9e04d9b40b40e8fe2939deec18be785b1cf2d65339c3769000e0d3ef7bd25fc560af263d4b86b3bcec95ed6e3b79a3a3cd1b03233906becc827ee359ee45ae661e3fe1e87e256e4eb881bd69ac60d7243374ca5a54bb18201ed45c4741adcd2105b36cf6a837edc435d2c5a2fd0b51bdc00f5fc3a7410688edf6b638ee4277f58546063117fa5646f90875d82759b509c645372958d58a98a1f7e4ac294fad2286104217cd8faabdffe070fa3efb5f82fc0f9078a0942c4b8e7da57391f0975d3f06e3b3367ec94de1f4e946e6ca9bb0e31270d8e99ce9945777c6be5a780c14648a4f6063df3251aac5cbffe8c092a483623a937d40ea8744c9f1052ca87b8729e60a2eb35ec12495dc19b5f04355dc2c19899bd0f8d4e01fcb8f6d5ce14c7e083af764dd3959c2dc5bdd864f18c792f9489c97bd8d7f2dc793279280a06f067d139ff1e7fbb1a97c4fe7e8b8cba9b5934e08bb6b91a529a32255dbe645bfc0a7f4cd36a6c19565e7a436fd34d038432adb2d94e778166bcbacf53ba7b9d34046fbf18943170ec79565b21c5d8499e490",
                    "decodedMethod": {
                        "callParams": [
                            {
                                "name": "index",
                                "type": "uint256",
                                "value": "10,296"
                            },
                            {
                                "name": "account",
                                "type": "address",
                                "value": "0x0a3525186219f60540f7afb87032f8211e18308b"
                            },
                            {
                                "name": "amount",
                                "type": "uint256",
                                "value": "400,000,000,000,000,000,000"
                            },
                            {
                                "name": "merkleProof",
                                "type": "bytes32[]",
                                "value": [
                                    "0x7a12213868e86a02a2ca2806b87447740124994560cdc191e081e2be648c98e2",
                                    "0xc37b9c98e9744b782be7a87eecedba7ec6f468545d6bee2b7e04436c2ca26c11",
                                    "0xb4013ae79faa7d0e2edbdd6059de1bbecbf968b3af4ff3229c211c121764d2f0",
                                    "0x1805d469565917fa77054f9f56947ba59aad892bb071a7087f488c6c35537e7d",
                                    "0xae133a651cdd3651080045e8e6c16c90ed6379ee6d69f975d72fb0efce68d9c9",
                                    "0xf8ad97c04d61d30dd9f240fec3482b9e04d9b40b40e8fe2939deec18be785b1c",
                                    "0xf2d65339c3769000e0d3ef7bd25fc560af263d4b86b3bcec95ed6e3b79a3a3cd",
                                    "0x1b03233906becc827ee359ee45ae661e3fe1e87e256e4eb881bd69ac60d72433",
                                    "0x74ca5a54bb18201ed45c4741adcd2105b36cf6a837edc435d2c5a2fd0b51bdc0",
                                    "0x0f5fc3a7410688edf6b638ee4277f58546063117fa5646f90875d82759b509c6",
                                    "0x45372958d58a98a1f7e4ac294fad2286104217cd8faabdffe070fa3efb5f82fc",
                                    "0x0f9078a0942c4b8e7da57391f0975d3f06e3b3367ec94de1f4e946e6ca9bb0e3",
                                    "0x1270d8e99ce9945777c6be5a780c14648a4f6063df3251aac5cbffe8c092a483",
                                    "0x623a937d40ea8744c9f1052ca87b8729e60a2eb35ec12495dc19b5f04355dc2c",
                                    "0x19899bd0f8d4e01fcb8f6d5ce14c7e083af764dd3959c2dc5bdd864f18c792f9",
                                    "0x489c97bd8d7f2dc793279280a06f067d139ff1e7fbb1a97c4fe7e8b8cba9b593",
                                    "0x4e08bb6b91a529a32255dbe645bfc0a7f4cd36a6c19565e7a436fd34d038432a",
                                    "0xdb2d94e778166bcbacf53ba7b9d34046fbf18943170ec79565b21c5d8499e490"
                                ]
                            }
                        ],
                        "constructorArguments": "",
                        "name": "claim",
                        "returnParams": [],
                        "signature": "claim(uint256,address,uint256,bytes32[])"
                    },
                    "errorInfo": "",
                    "fromAddress": "0x0a3525186219f60540f7afb87032f8211e18308b",
                    "gasUsed": 81795,
                    "id": 0,
                    "methodDecoded": true,
                    "operation": "CALL",
                    "output": "",
                    "revert": false,
                    "revertMessage": "",
                    "selector": "0x2e7ba6ef",
                    "status": true,
                    "value": "0"
                },
                "nodeType": 0
            },
            "1": {
                "invocation": {
                    "address": "0x1f9840a85d5af5bf1d1762f925bdaddc4201f984",
                    "callData": "0x0000000000000000000000000a3525186219f60540f7afb87032f8211e18308b000000000000000000000000000000000000000000000015af1d78b58c400000",
                    "decodedMethod": {
                        "callParams": [
                            {
                                "name": "dst",
                                "type": "address",
                                "value": "0x0a3525186219f60540f7afb87032f8211e18308b"
                            },
                            {
                                "decimalAvailable": true,
                                "name": "rawAmount",
                                "type": "uint256",
                                "value": "400,000,000,000,000,000,000"
                            }
                        ],
                        "constructorArguments": "",
                        "name": "transfer",
                        "returnParams": [
                            {
                                "name": "",
                                "type": "bool",
                                "value": true
                            }
                        ],
                        "signature": "transfer(address,uint256)"
                    },
                    "errorInfo": "",
                    "fromAddress": "0x090d4613473dee047c3f2706764f49e0821d256e",
                    "gasUsed": 33862,
                    "id": 1,
                    "methodDecoded": true,
                    "operation": "CALL",
                    "output": "0x0000000000000000000000000000000000000000000000000000000000000001",
                    "revert": false,
                    "revertMessage": "",
                    "selector": "0xa9059cbb",
                    "status": true,
                    "value": "0"
                },
                "nodeType": 0
            },
            "2": {
                "event": {
                    "contract": "0x1f9840a85d5af5bf1d1762f925bdaddc4201f984",
                    "decodedLog": {
                        "name": "Transfer",
                        "params": [
                            {
                                "name": "from",
                                "type": "address",
                                "value": "0x090d4613473dee047c3f2706764f49e0821d256e"
                            },
                            {
                                "name": "to",
                                "type": "address",
                                "value": "0x0a3525186219f60540f7afb87032f8211e18308b"
                            },
                            {
                                "decimalAvailable": true,
                                "name": "amount",
                                "type": "uint256",
                                "value": "400,000,000,000,000,000,000"
                            }
                        ],
                        "signature": "Transfer(address,address,uint256)"
                    },
                    "id": 2,
                    "logData": "0x000000000000000000000000000000000000000000000015af1d78b58c400000",
                    "logDecoded": true,
                    "operation": "EVENT",
                    "revert": false,
                    "status": true,
                    "topics": [
                        "0xddf252ad1be2c89b69c2b068fc378daa952ba7f163c4a11628f55a4df523b3ef",
                        "0x000000000000000000000000090d4613473dee047c3f2706764f49e0821d256e",
                        "0x0000000000000000000000000a3525186219f60540f7afb87032f8211e18308b"
                    ]
                },
                "nodeType": 1
            },
            "3": {
                "event": {
                    "contract": "0x090d4613473dee047c3f2706764f49e0821d256e",
                    "decodedLog": {
                        "name": "Claimed",
                        "params": [
                            {
                                "name": "index",
                                "type": "uint256",
                                "value": "10,296"
                            },
                            {
                                "name": "account",
                                "type": "address",
                                "value": "0x0a3525186219f60540f7afb87032f8211e18308b"
                            },
                            {
                                "name": "amount",
                                "type": "uint256",
                                "value": "400,000,000,000,000,000,000"
                            }
                        ],
                        "signature": "Claimed(uint256,address,uint256)"
                    },
                    "id": 3,
                    "logData": "0x00000000000000000000000000000000000000000000000000000000000028380000000000000000000000000a3525186219f60540f7afb87032f8211e18308b000000000000000000000000000000000000000000000015af1d78b58c400000",
                    "logDecoded": true,
                    "operation": "EVENT",
                    "revert": false,
                    "status": true,
                    "topics": [
                        "0x4ec90e965519d92681267467f775ada5bd214aa92c0dc93d90a5e880ce9ed026"
                    ]
                },
                "nodeType": 1
            }
        },
        "gasFlame": [
            {
                "children": [
                    {
                        "children": [
                            {
                                "children": [],
                                "depth": 0,
                                "name": "Initial Gas",
                                "value": 31268
                            },
                            {
                                "children": [
                                    {
                                        "children": [],
                                        "depth": 1,
                                        "name": "transfer",
                                        "value": 33862
                                    }
                                ],
                                "depth": 0,
                                "name": "Executed Gas",
                                "value": 50527
                            }
                        ],
                        "depth": -1,
                        "name": "Actual Gas Used",
                        "value": 81795
                    },
                    {
                        "children": [],
                        "depth": -1,
                        "name": "Refunded Gas",
                        "value": 0
                    }
                ],
                "depth": -2,
                "name": "Total Gas",
                "value": 81795
            }
        ],
        "isConfirmed": true,
        "mainTrace": [
            {
                "children": [
                    {
                        "children": [
                            {
                                "children": [
                                    {
                                        "children": [],
                                        "depth": 2,
                                        "id": 2,
                                        "order": 2
                                    }
                                ],
                                "depth": 1,
                                "id": 1,
                                "order": 1
                            },
                            {
                                "children": [],
                                "depth": 1,
                                "id": 3,
                                "order": 3
                            }
                        ],
                        "depth": 0,
                        "id": 0,
                        "order": 0
                    }
                ],
                "depth": -1,
                "id": -1,
                "order": -1
            }
        ],
        "mainTraceNodeCount": 4,
        "parentIdMap": {
            "0": -1,
            "1": 0,
            "2": 1,
            "3": 0
        },
        "tidyTrace": [
            {
                "children": [
                    {
                        "children": [
                            {
                                "children": [
                                    {
                                        "children": [],
                                        "depth": 2,
                                        "id": 2,
                                        "order": 2
                                    }
                                ],
                                "depth": 1,
                                "id": 1,
                                "order": 1
                            },
                            {
                                "children": [],
                                "depth": 1,
                                "id": 3,
                                "order": 3
                            }
                        ],
                        "depth": 0,
                        "id": 0,
                        "order": 0
                    }
                ],
                "depth": -1,
                "id": -1,
                "order": -1
            }
        ],
        "tidyTraceNodeCount": 4
    },
    "state_change": {
        "stateChanges": [
            {
                "address": "0x090d4613473dee047c3f2706764f49e0821d256e",
                "erc": "",
                "slots": [
                    {
                        "current": "0x052717aefddfb6d7f9b59b7b2fdbf46f7f18fdfbff27ff5db7fdadfab7bffecd",
                        "key": "0x5bbfe49fc46bd3c0efd63509af9eb2a12636d52d97f4d1cf52bf53227ef389c2",
                        "prev": "0x052717aefddfb6d7f9b59b7b2fdbf46f7f18fdfbff27ff5db6fdadfab7bffecd"
                    }
                ],
                "storageVariables": [
                    {
                        "name": "claimedBitMap",
                        "type": "mapping(uint256 => uint256)",
                        "value": {
                            "pairs": [
                                {
                                    "key": "40",
                                    "value": {
                                        "current": "2330634736375425687538215153753925417173255678937942280344615877313029996237",
                                        "prev": "2330634736375425687538215153753925417173255678937942280344543819718992068301",
                                        "typeTag": 1
                                    }
                                }
                            ],
                            "typeTag": 4
                        }
                    }
                ]
            },
            {
                "address": "0x1f9840a85d5af5bf1d1762f925bdaddc4201f984",
                "erc": "ERC-20",
                "slots": [
                    {
                        "current": "0x000000000000000000000000000000000000000000000015af1d78b58c400000",
                        "key": "0x801391c1e85b47d18be2355da23708fdd8b666d616de5f143c503e744cbab3f6",
                        "prev": "0x0000000000000000000000000000000000000000000000000000000000000000"
                    },
                    {
                        "current": "0x000000000000000000000000000000000000000000239b6c223d7902aba62000",
                        "key": "0x1abd1c6b703aaad06fa4e659cdf9d2f3304a1ead8ec4504ff414f9b7e8f6c116",
                        "prev": "0x000000000000000000000000000000000000000000239b81d15af1b837e62000"
                    }
                ],
                "storageVariables": [
                    {
                        "name": "balances",
                        "type": "mapping(address => uint96)",
                        "value": {
                            "pairs": [
                                {
                                    "key": "0x090d4613473dee047c3f2706764f49e0821d256e",
                                    "value": {
                                        "current": "43046365206978000000000000",
                                        "prev": "43046765206978000000000000",
                                        "typeTag": 1
                                    }
                                },
                                {
                                    "key": "0x0a3525186219f60540f7afb87032f8211e18308b",
                                    "value": {
                                        "current": "400000000000000000000",
                                        "prev": "0",
                                        "typeTag": 1
                                    }
                                }
                            ],
                            "typeTag": 4
                        }
                    }
                ]
            }
        ]
    }
}