{
    "balance_change": {
        "balanceChanges": [
            {
                "account": "0x511085e6b57170ffb5c71c2ff2e5232f6093b580",
                "assets": [
                    {
                        "address": "0x4b94c8567763654101f690cf4d54957206383b75",
                        "amount": "996,798",
                        "iconUrl": "",
                        "isERC1155": false,
                        "isERC721": false,
                        "sign": false,
                        "value": ""
                    }
                ]
            },
            {
                "account": "0x8618420082024696872cc4009e634bf72a50f649",
                "assets": [
                    {
                        "address": "0x4b94c8567763654101f690cf4d54957206383b75",
                        "amount": "996,798",
                        "iconUrl": "",
                        "isERC1155": false,
                        "isERC721": false,
                        "sign": true,
                        "value": ""
                    }
                ]
            }
        ]
    },
    "profile": {
        "basic_info": {
            "baseFee": "",
            "blockNumber": 6567635,
            "callData": "0xa9059cbb0000000000000000000000008618420082024696872cc4009e634bf72a50f64900000000000000000000000000000000000000000000d314872199d9f0380000",
            "debugEnable": true,
            "errorInfo": "",
            "eventCount": 2,
            "feeRecipient": "0x829bd824b016326a401d083b33d092293333a830",
            "formatValue": "0",
            "gasLimit": 940000,
            "gasPrice": "9.800000001",
            "gasUsed": 41052,
            "intTxnCount": 0,
            "internalRevert": false,
            "internalRevertMessage": "",
            "isContractCreation": false,
            "isFlashloan": false,
            "maxFee": "",
            "nonce": 6505,
            "overwritedBlockNumber": -1,
            "priorityFee": "",
            "receiver": "0x4b94c8567763654101f690cf4d54957206383b75",
            "revertMessage": "",
            "sender": "0x511085e6b57170ffb5c71c2ff2e5232f6093b580",
            "simulationEnable": true,
            "sourceTxnHash": "0xce54c6d282582ac2fecb6ae8c87861f7e8ab3367ebf7c5961708ac2809c3d115",
            "status": true,
            "timestamp": "2018-10-23T08:36:35Z",
            "transactionFee": "0.000402309600041052",
            "txnHash": "0xce54c6d282582ac2fecb6ae8c87861f7e8ab3367ebf7c5961708ac2809c3d115",
            "txnIndex": 107,
            "type": 0,
            "value": "0"
        },
        "fund_flow": [
            {
                "amount": "996,798",
                "from": "0x511085e6b57170ffb5c71c2ff2e5232f6093b580",
                "id": 1,
                "isERC1155": false,
                "isERC721": false,
                "isReverted": false,
                "order": 1,
                "to": "0x8618420082024696872cc4009e634bf72a50f649",
                "token": "0x4b94c8567763654101f690cf4d54957206383b75"
            }
        ],
        "token_infos": [
            {
                "address": "0x4b94c8567763654101f690cf4d54957206383b75",
                "decimals": 18
            },
            {
                "address": "0xc02aaa39b223fe8d0a0e5c4f27ead9083c756cc2",
                "decimals": 18
            },
            {
                "address": "0xeeeeeeeeeeeeeeeeeeeeeeeeeeeeeeeeeeeeeeee",
                "decimals": 18
            }
        ]
    },
    "address_label": {
        "labels": [
            {
                "address": "0xeeeeeeeeeeeeeeeeeeeeeeeeeeeeeeeeeeeeeeee",
                "label": "Ether"
            },
            {
                "address": "0x4b94c8567763654101f690cf4d54957206383b75",
                "label": "Neoworld Cash"
            },
            {
                "address": "0x0000000000000000000000000000000000000001",
                "label": "Precompiled"
            },
            {
                "address": "0x0000000000000000000000000000000000000002",
                "label": "Precompiled"
            },
            {
                "address": "0x0000000000000000000000000000000000000003",
                "label": "Precompiled"
            },
            {
                "address": "0x0000000000000000000000000000000000000004",
                "label": "Precompiled"
            }
        ]
    },
    "trace": {
        "accountLabels": null,
        "dataMap": {
            "-1": {
                "invocation": {
                    "address": "0x511085e6b57170ffb5c71c2ff2e5232f6093b580",
                    "callData": "",
                    "decodedMethod": null,
                    "errorInfo": "",
                    "fromAddress": "",
                    "gasUsed": 0,
                    "id": -1,
                    "methodDecoded": false,
                    "operation": "",
                    "output": "",
                    "revert": false,
                    "revertMessage": "",
                    "selector": "",
                    "status": false,
                    "value": ""
                },
                "nodeType": 0
            },
            "0": {
                "invocation": {
                    "address": "0x4b94c8567763654101f690cf4d54957206383b75",
                    "callData": "0x0000000000000000000000008618420082024696872cc4009e634bf72a50f64900000000000000000000000000000000000000000000d314872199d9f0380000",
                    "decodedMethod": {
                        "callParams": [
                            {
                                "name": "_to",
                                "type": "address",
                                "value": "0x8618420082024696872cc4009e634bf72a50f649"
                            },
                            {
                                "decimalAvailable": true,
                                "name": "_value",
                                "type": "uint256",
                                "value": "996,798,000,000,000,000,000,000"
                            }
                        ],
                        "constructorArguments": "",
                        "name": "transfer",
                        "returnParams": [
                            {
                                "name": "",
                                "type": "bool",
                                "value": true
                            }
                        ],
                        "signature": "transfer(address,uint256)"
                    },
                    "errorInfo": "",
                    "fromAddress": "0x511085e6b57170ffb5c71c2ff2e5232f6093b580",
                    "gasUsed": 41052,
                    "id": 0,
                    "methodDecoded": true,
                    "operation": "CALL",
                    "output": "0x0000000000000000000000000000000000000000000000000000000000000001",
                    "revert": false,
                    "revertMessage": "",
                    "selector": "0xa9059cbb",
                    "status": true,
                    "value": "0"
                },
                "nodeType": 0
            },
            "1": {
                "event": {
                    "contract": "0x4b94c8567763654101f690cf4d54957206383b75",
                    "decodedLog": {
                        "name": "Transfer",
                        "params": [
                            {
                                "name": "from",
                                "type": "address",
                                "value": "0x511085e6b57170ffb5c71c2ff2e5232f6093b580"
                            },
                            {
                                "name": "to",
                                "type": "address",
                                "value": "0x8618420082024696872cc4009e634bf72a50f649"
                            },
                            {
                                "decimalAvailable": true,
                                "name": "tokens",
                                "type": "uint256",
                                "value": "996,798,000,000,000,000,000,000"
                            }
                        ],
                        "signature": "Transfer(address,address,uint256)"
                    },
                    "id": 1,
                    "logData": "0x00000000000000000000000000000000000000000000d314872199d9f0380000",
                    "logDecoded": true,
                    "operation": "EVENT",
                    "revert": false,
                    "status": true,
                    "topics": [
                        "0xddf252ad1be2c89b69c2b068fc378daa952ba7f163c4a11628f55a4df523b3ef",
                        "0x000000000000000000000000511085e6b57170ffb5c71c2ff2e5232f6093b580",
                        "0x0000000000000000000000008618420082024696872cc4009e634bf72a50f649"
                    ]
                },
                "nodeType": 1
            },
            "2": {
                "event": {
                    "contract": "0x4b94c8567763654101f690cf4d54957206383b75",
                    "decodedLog": {
                        "name": "Transfer",
                        "params": [
                            {
                                "name": "from",
                                "type": "address",
                                "value": "0x511085e6b57170ffb5c71c2ff2e5232f6093b580"
                            },
                            {
                                "name": "to",
                                "type": "address",
                                "value": "0x8618420082024696872cc4009e634bf72a50f649"
                            },
                            {
                                "name": "value",
                                "type": "uint256",
                                "value": "996,798,000,000,000,000,000,000"
                            },
                            {
                                "name": "data",
                                "type": "bytes",
                                "value": "0x"
                            }
                        ],
                        "signature": "Transfer(address,address,uint256,bytes)"
                    },
                    "id": 2,
                    "logData": "0x00000000000000000000000000000000000000000000d314872199d9f038000000000000000000000000000000000000000000000000000000000000000000400000000000000000000000000000000000000000000000000000000000000000",
                    "logDecoded": true,
                    "operation": "EVENT",
                    "revert": false,
                    "status": true,
                    "topics": [
                        "0xe19260aff97b920c7df27010903aeb9c8d2be5d310a2c67824cf3f15396e4c16",
                        "0x000000000000000000000000511085e6b57170ffb5c71c2ff2e5232f6093b580",
                        "0x0000000000000000000000008618420082024696872cc4009e634bf72a50f649"
                    ]
                },
                "nodeType": 1
            }
        },
        "gasFlame": [
            {
                "children": [
                    {
                        "children": [
                            {
                                "children": [],
                                "depth": 0,
                                "name": "Initial Gas",
                                "value": 23192
                            },
                            {
                                "children": [],
                                "depth": 0,
                                "name": "Executed Gas",
                                "value": 17860
                            }
                        ],
                        "depth": -1,
                        "name": "Actual Gas Used",
                        "value": 41052
                    },
                    {
                        "children": [],
                        "depth": -1,
                        "name": "Refunded Gas",
                        "value": 0
                    }
                ],
                "depth": -2,
                "name": "Total Gas",
                "value": 41052
            }
        ],
        "isConfirmed": true,
        "mainTrace": [
            {
                "children": [
                    {
                        "children": [
                            {
                                "children": [],
                                "depth": 1,
                                "id": 1,
                                "order": 1
                            },
                            {
                                "children": [],
                                "depth": 1,
                                "id": 2,
                                "order": 2
                            }
                        ],
                        "depth": 0,
                        "id": 0,
                        "order": 0
                    }
                ],
                "depth": -1,
                "id": -1,
                "order": -1
            }
        ],
        "mainTraceNodeCount": 3,
        "parentIdMap": {
            "0": -1,
            "1": 0,
            "2": 0
        },
        "tidyTrace": [
            {
                "children": [
                    {
                        "children": [
                            {
                                "children": [],
                                "depth": 1,
                                "id": 1,
                                "order": 1
                            },
                            {
                                "children": [],
                                "depth": 1,
                                "id": 2,
                                "order": 2
                            }
                        ],
                        "depth": 0,
                        "id": 0,
                        "order": 0
                    }
                ],
                "depth": -1,
                "id": -1,
                "order": -1
            }
        ],
        "tidyTraceNodeCount": 3
    },
    "state_change": {
        "stateChanges": [
            {
                "address": "0x4b94c8567763654101f690cf4d54957206383b75",
                "erc": "ERC-20",
                "slots": [
                    {
                        "current": "0x0000000000000000000000000000000000000000000068b418abebc88c53c1f6",
                        "key": "0x68a56572bb77d7ee4e8eca86d81f964e09a494e2cf7e831c6bf318c62af86387",
                        "prev": "0x000000000000000000000000000000000000000000013bc89fcd85a27c8bc1f6"
                    },
                    {
                        "current": "0x000000000000000000000000000000000000000000012161a318785259740000",
                        "key": "0xb5452cffd054f9b93dc55563053c694aa4fe5aa555898350ae44ada4084aca3c",
                        "prev": "0x000000000000000000000000000000000000000000004e4d1bf6de78693c0000"
                    }
                ],
                "storageVariables": [
                    {
                        "name": "balances",
                        "type": "mapping(address => uint256)",
                        "value": {
                            "pairs": [
                                {
                                    "key": "0x511085e6b57170ffb5c71c2ff2e5232f6093b580",
                                    "value": {
                                        "current": "494448305925435329593846",
                                        "prev": "1491246305925435329593846",
                                        "typeTag": 1
                                    }
                                },
                                {
                                    "key": "0x8618420082024696872cc4009e634bf72a50f649",
                                    "value": {
                                        "current": "1366565000000000000000000",
                                        "prev": "369767000000000000000000",
                                        "typeTag": 1
                                    }
                                }
                            ],
                            "typeTag": 4
                        }
                    }
                ]
            }
        ]
    }
}