{
    "balance_change": {
        "balanceChanges": [
            {
                "account": "0xde39326da35d53e55d3e56139303001f08e236a0",
                "assets": [
                    {
                        "address": "0x55296f69f40ea6d20e478533c15a6b08b654e758",
                        "amount": "16,052.505",
                        "iconUrl": "https://assets.blocksec.com/icon/7bc04c0a07452ed3beb53475459ba8ed14d941a84b0676c751cd07375af76003.png",
                        "isERC1155": false,
                        "isERC721": false,
                        "sign": false,
                        "value": ""
                    }
                ]
            },
            {
                "account": "0x8d12a197cb00d4747a1fe03395095ce2a5cc6819",
                "assets": [
                    {
                        "address": "0x55296f69f40ea6d20e478533c15a6b08b654e758",
                        "amount": "16,052.505",
                        "iconUrl": "https://assets.blocksec.com/icon/7bc04c0a07452ed3beb53475459ba8ed14d941a84b0676c751cd07375af76003.png",
                        "isERC1155": false,
                        "isERC721": false,
                        "sign": true,
                        "value": ""
                    }
                ]
            }
        ]
    },
    "profile": {
        "basic_info": {
            "baseFee": "",
            "blockNumber": 6350368,
            "callData": "0x338b5dea00000000000000000000000055296f69f40ea6d20e478533c15a6b08b654e758000000000000000000000000000000000000000000000366354217aef5e28000",
            "debugEnable": true,
            "errorInfo": "",
            "eventCount": 2,
            "feeRecipient": "0xea674fdde714fd979de3edf0f56aa9716b898ec8",
            "formatValue": "0",
            "gasLimit": 250000,
            "gasPrice": "7",
            "gasUsed": 39221,
            "intTxnCount": 1,
            "internalRevert": false,
            "internalRevertMessage": "",
            "isContractCreation": false,
            "isFlashloan": false,
            "maxFee": "",
            "nonce": 690,
            "overwritedBlockNumber": -1,
            "priorityFee": "",
            "receiver": "0x8d12a197cb00d4747a1fe03395095ce2a5cc6819",
            "revertMessage": "",
            "sender": "0xde39326da35d53e55d3e56139303001f08e236a0",
            "simulationEnable": true,
            "sourceTxnHash": "0xce9a31ff13e200d66d6415ccb752695f98813efc4efac3a005b2518703a88e08",
            "status": true,
            "timestamp": "2018-09-17T20:28:48Z",
            "transactionFee": "0.000274547",
            "txnHash": "0xce9a31ff13e200d66d6415ccb752695f98813efc4efac3a005b2518703a88e08",
            "txnIndex": 52,
            "type": 0,
            "value": "0"
        },
        "fund_flow": [
            {
                "amount": "16,052.505",
                "from": "0xde39326da35d53e55d3e56139303001f08e236a0",
                "id": 1,
                "isERC1155": false,
                "isERC721": false,
                "isReverted": false,
                "order": 1,
                "to": "0x8d12a197cb00d4747a1fe03395095ce2a5cc6819",
                "token": "0x55296f69f40ea6d20e478533c15a6b08b654e758"
            }
        ],
        "token_infos": [
            {
                "address": "0x55296f69f40ea6d20e478533c15a6b08b654e758",
                "decimals": 18
            },
            {
                "address": "0xc02aaa39b223fe8d0a0e5c4f27ead9083c756cc2",
                "decimals": 18
            },
            {
                "address": "0xeeeeeeeeeeeeeeeeeeeeeeeeeeeeeeeeeeeeeeee",
                "decimals": 18
            }
        ]
    },
    "address_label": {
        "labels": [
            {
                "address": "0x55296f69f40ea6d20e478533c15a6b08b654e758",
                "label": "XYO Foundation: XYO Token"
            },
            {
                "address": "0x0000000000000000000000000000000000000001",
                "label": "Precompiled"
            },
            {
                "address": "0x0000000000000000000000000000000000000002",
                "label": "Precompiled"
            },
            {
                "address": "0x0000000000000000000000000000000000000003",
                "label": "Precompiled"
            },
            {
                "address": "0x0000000000000000000000000000000000000004",
                "label": "Precompiled"
            },
            {
                "address": "0xeeeeeeeeeeeeeeeeeeeeeeeeeeeeeeeeeeeeeeee",
                "label": "Ether"
            },
            {
                "address": "0x8d12a197cb00d4747a1fe03395095ce2a5cc6819",
                "label": "EtherDelta"
            }
        ]
    },
    "trace": {
        "accountLabels": null,
        "dataMap": {
            "-1": {
                "invocation": {
                    "address": "0xde39326da35d53e55d3e56139303001f08e236a0",
                    "callData": "",
                    "decodedMethod": null,
                    "errorInfo": "",
                    "fromAddress": "",
                    "gasUsed": 0,
                    "id": -1,
                    "methodDecoded": false,
                    "operation": "",
                    "output": "",
                    "revert": false,
                    "revertMessage": "",
                    "selector": "",
                    "status": false,
                    "value": ""
                },
                "nodeType": 0
            },
            "0": {
                "invocation": {
                    "address": "0x8d12a197cb00d4747a1fe03395095ce2a5cc6819",
                    "callData": "0x00000000000000000000000055296f69f40ea6d20e478533c15a6b08b654e758000000000000000000000000000000000000000000000366354217aef5e28000",
                    "decodedMethod": {
                        "callParams": [
                            {
                                "name": "token",
                                "type": "address",
                                "value": "0x55296f69f40ea6d20e478533c15a6b08b654e758"
                            },
                            {
                                "name": "amount",
                                "type": "uint256",
                                "value": "16,052,505,000,000,000,000,000"
                            }
                        ],
                        "constructorArguments": "",
                        "name": "depositToken",
                        "returnParams": [],
                        "signature": "depositToken(address,uint256)"
                    },
                    "errorInfo": "",
                    "fromAddress": "0xde39326da35d53e55d3e56139303001f08e236a0",
                    "gasUsed": 39221,
                    "id": 0,
                    "methodDecoded": true,
                    "operation": "CALL",
                    "output": "",
                    "revert": false,
                    "revertMessage": "",
                    "selector": "0x338b5dea",
                    "status": true,
                    "value": "0"
                },
                "nodeType": 0
            },
            "1": {
                "invocation": {
                    "address": "0x55296f69f40ea6d20e478533c15a6b08b654e758",
                    "callData": "0x000000000000000000000000de39326da35d53e55d3e56139303001f08e236a00000000000000000000000008d12a197cb00d4747a1fe03395095ce2a5cc6819000000000000000000000000000000000000000000000366354217aef5e28000",
                    "decodedMethod": {
                        "callParams": [
                            {
                                "name": "_from",
                                "type": "address",
                                "value": "0xde39326da35d53e55d3e56139303001f08e236a0"
                            },
                            {
                                "name": "_to",
                                "type": "address",
                                "value": "0x8d12a197cb00d4747a1fe03395095ce2a5cc6819"
                            },
                            {
                                "decimalAvailable": true,
                                "name": "_value",
                                "type": "uint256",
                                "value": "16,052,505,000,000,000,000,000"
                            }
                        ],
                        "constructorArguments": "",
                        "name": "transferFrom",
                        "returnParams": [
                            {
                                "name": "success",
                                "type": "bool",
                                "value": true
                            }
                        ],
                        "signature": "transferFrom(address,address,uint256)"
                    },
                    "errorInfo": "",
                    "fromAddress": "0x8d12a197cb00d4747a1fe03395095ce2a5cc6819",
                    "gasUsed": 20901,
                    "id": 1,
                    "methodDecoded": true,
                    "operation": "CALL",
                    "output": "0x0000000000000000000000000000000000000000000000000000000000000001",
                    "revert": false,
                    "revertMessage": "",
                    "selector": "0x23b872dd",
                    "status": true,
                    "value": "0"
                },
                "nodeType": 0
            },
            "2": {
                "event": {
                    "contract": "0x55296f69f40ea6d20e478533c15a6b08b654e758",
                    "decodedLog": {
                        "name": "Transfer",
                        "params": [
                            {
                                "name": "from",
                                "type": "address",
                                "value": "0xde39326da35d53e55d3e56139303001f08e236a0"
                            },
                            {
                                "name": "to",
                                "type": "address",
                                "value": "0x8d12a197cb00d4747a1fe03395095ce2a5cc6819"
                            },
                            {
                                "decimalAvailable": true,
                                "name": "value",
                                "type": "uint256",
                                "value": "16,052,505,000,000,000,000,000"
                            }
                        ],
                        "signature": "Transfer(address,address,uint256)"
                    },
                    "id": 2,
                    "logData": "0x000000000000000000000000000000000000000000000366354217aef5e28000",
                    "logDecoded": true,
                    "operation": "EVENT",
                    "revert": false,
                    "status": true,
                    "topics": [
                        "0xddf252ad1be2c89b69c2b068fc378daa952ba7f163c4a11628f55a4df523b3ef",
                        "0x000000000000000000000000de39326da35d53e55d3e56139303001f08e236a0",
                        "0x0000000000000000000000008d12a197cb00d4747a1fe03395095ce2a5cc6819"
                    ]
                },
                "nodeType": 1
            },
            "3": {
                "event": {
                    "contract": "0x8d12a197cb00d4747a1fe03395095ce2a5cc6819",
                    "decodedLog": {
                        "name": "Deposit",
                        "params": [
                            {
                                "name": "token",
                                "type": "address",
                                "value": "0x55296f69f40ea6d20e478533c15a6b08b654e758"
                            },
                            {
                                "name": "user",
                                "type": "address",
                                "value": "0xde39326da35d53e55d3e56139303001f08e236a0"
                            },
                            {
                                "name": "amount",
                                "type": "uint256",
                                "value": "16,052,505,000,000,000,000,000"
                            },
                            {
                                "name": "balance",
                                "type": "uint256",
                                "value": "16,055,826,779,963,838,258,706"
                            }
                        ],
                        "signature": "Deposit(address,address,uint256,uint256)"
                    },
                    "id": 3,
                    "logData": "0x00000000000000000000000055296f69f40ea6d20e478533c15a6b08b654e758000000000000000000000000de39326da35d53e55d3e56139303001f08e236a0000000000000000000000000000000000000000000000366354217aef5e28000000000000000000000000000000000000000000000000366635b6cf604795e12",
                    "logDecoded": true,
                    "operation": "EVENT",
                    "revert": false,
                    "status": true,
                    "topics": [
                        "0xdcbc1c05240f31ff3ad067ef1ee35ce4997762752e3a095284754544f4c709d7"
                    ]
                },
                "nodeType": 1
            }
        },
        "gasFlame": [
            {
                "children": [
                    {
                        "children": [
                            {
                                "children": [],
                                "depth": 0,
                                "name": "Initial Gas",
                                "value": 23384
                            },
                            {
                                "children": [
                                    {
                                        "children": [],
                                        "depth": 1,
                                        "name": "transferFrom",
                                        "value": 20901
                                    }
                                ],
                                "depth": 0,
                                "name": "Executed Gas",
                                "value": 30837
                            }
                        ],
                        "depth": -1,
                        "name": "Actual Gas Used",
                        "value": 39221
                    },
                    {
                        "children": [],
                        "depth": -1,
                        "name": "Refunded Gas",
                        "value": 15000
                    }
                ],
                "depth": -2,
                "name": "Total Gas",
                "value": 54221
            }
        ],
        "isConfirmed": true,
        "mainTrace": [
            {
                "children": [
                    {
                        "children": [
                            {
                                "children": [
                                    {
                                        "children": [],
                                        "depth": 2,
                                        "id": 2,
                                        "order": 2
                                    }
                                ],
                                "depth": 1,
                                "id": 1,
                                "order": 1
                            },
                            {
                                "children": [],
                                "depth": 1,
                                "id": 3,
                                "order": 3
                            }
                        ],
                        "depth": 0,
                        "id": 0,
                        "order": 0
                    }
                ],
                "depth": -1,
                "id": -1,
                "order": -1
            }
        ],
        "mainTraceNodeCount": 4,
        "parentIdMap": {
            "0": -1,
            "1": 0,
            "2": 1,
            "3": 0
        },
        "tidyTrace": [
            {
                "children": [
                    {
                        "children": [
                            {
                                "children": [
                                    {
                                        "children": [],
                                        "depth": 2,
                                        "id": 2,
                                        "order": 2
                                    }
                                ],
                                "depth": 1,
                                "id": 1,
                                "order": 1
                            },
                            {
                                "children": [],
                                "depth": 1,
                                "id": 3,
                                "order": 3
                            }
                        ],
                        "depth": 0,
                        "id": 0,
                        "order": 0
                    }
                ],
                "depth": -1,
                "id": -1,
                "order": -1
            }
        ],
        "tidyTraceNodeCount": 4
    },
    "state_change": {
        "stateChanges": [
            {
                "address": "0x55296f69f40ea6d20e478533c15a6b08b654e758",
                "erc": "",
                "slots": [
                    {
                        "current": "0x00000000000000000000000000000000000000000000000000002b4c44df11a6",
                        "key": "0xfccae352a8c7f1338c7ec5cbcbf815de1a312c7b7f1d86ada04a67bc23b55dcc",
                        "prev": "0x000000000000000000000000000000000000000000000366354242fb3ac191a6"
                    },
                    {
                        "current": "0x000000000000000000000000000000000000000000019d26efe2786e4f9860a9",
                        "key": "0x7886912b04c6ac21f2e40c8c0f03870d950f3d8fcf81efe24c1fa8e4e9824ecc",
                        "prev": "0x0000000000000000000000000000000000000000000199c0baa060bf59b5e0a9"
                    },
                    {
                        "current": "0x0000000000000000000000000000000000000000000000000000000000000000",
                        "key": "0xf209ae64cbdc50f49f8a081ff97ae79b491ba098b1d421267240b172c50c1839",
                        "prev": "0x000000000000000000000000000000000000000000000366354217aef5e28000"
                    }
                ],
                "storageVariables": [
                    {
                        "name": "balanceOf",
                        "type": "mapping(address => uint256)",
                        "value": {
                            "pairs": [
                                {
                                    "key": "0x8d12a197cb00d4747a1fe03395095ce2a5cc6819",
                                    "value": {
                                        "current": "1951055619210699414724777",
                                        "prev": "1935003114210699414724777",
                                        "typeTag": 1
                                    }
                                },
                                {
                                    "key": "0xde39326da35d53e55d3e56139303001f08e236a0",
                                    "value": {
                                        "current": "47606572978598",
                                        "prev": "16052505047606572978598",
                                        "typeTag": 1
                                    }
                                }
                            ],
                            "typeTag": 4
                        }
                    },
                    {
                        "name": "allowance",
                        "type": "mapping(address => mapping(address => uint256))",
                        "value": {
                            "pairs": [
                                {
                                    "key": "0xde39326da35d53e55d3e56139303001f08e236a0",
                                    "value": {
                                        "pairs": [
                                            {
                                                "key": "0x8d12a197cb00d4747a1fe03395095ce2a5cc6819",
                                                "value": {
                                                    "current": "0",
                                                    "prev": "16052505000000000000000",
                                                    "typeTag": 1
                                                }
                                            }
                                        ],
                                        "typeTag": 4
                                    }
                                }
                            ],
                            "typeTag": 4
                        }
                    }
                ]
            },
            {
                "address": "0x8d12a197cb00d4747a1fe03395095ce2a5cc6819",
                "erc": "",
                "slots": [
                    {
                        "current": "0x000000000000000000000000000000000000000000000366635b6cf604795e12",
                        "key": "0xe3914f239363139848d2037d5d22eed8d9313bcf17447e15dbfab4d9635279c8",
                        "prev": "0x0000000000000000000000000000000000000000000000002e1955470e96de12"
                    }
                ],
                "storageVariables": []
            }
        ]
    }
}