{
    "balance_change": {
        "balanceChanges": [
            {
                "account": "0x13c18669179ded9abdc0e3ec90349af52589dded",
                "assets": [
                    {
                        "address": "0xf4ecc1c74d120649f6598c7a217abaffdf76cd4f",
                        "amount": "1",
                        "iconUrl": "",
                        "isERC1155": false,
                        "isERC721": true,
                        "sign": false,
                        "tokenID": "1601",
                        "value": ""
                    }
                ]
            },
            {
                "account": "0xaea6daaa95791efb154d938bb11d8e5f35b5dbae",
                "assets": [
                    {
                        "address": "0xf4ecc1c74d120649f6598c7a217abaffdf76cd4f",
                        "amount": "1",
                        "iconUrl": "",
                        "isERC1155": false,
                        "isERC721": true,
                        "sign": true,
                        "tokenID": "1601",
                        "value": ""
                    }
                ]
            }
        ]
    },
    "profile": {
        "basic_info": {
            "baseFee": "6.745014209",
            "blockNumber": 19753945,
            "callData": "0x42842e0e00000000000000000000000013c18669179ded9abdc0e3ec90349af52589dded000000000000000000000000aea6daaa95791efb154d938bb11d8e5f35b5dbae0000000000000000000000000000000000000000000000000000000000000641",
            "debugEnable": true,
            "errorInfo": "",
            "eventCount": 1,
            "feeRecipient": "0x4838b106fce9647bdf1e7877bf73ce8b0bad5f97",
            "formatValue": "0",
            "gasLimit": 66174,
            "gasPrice": "8.245014209",
            "gasUsed": 60159,
            "intTxnCount": 1,
            "internalRevert": false,
            "internalRevertMessage": "",
            "isContractCreation": false,
            "isFlashloan": false,
            "maxFee": "15.291196812",
            "nonce": 2003,
            "overwritedBlockNumber": -1,
            "priorityFee": "1.5",
            "receiver": "0xf4ecc1c74d120649f6598c7a217abaffdf76cd4f",
            "revertMessage": "",
            "sender": "0x13c18669179ded9abdc0e3ec90349af52589dded",
            "simulationEnable": true,
            "sourceTxnHash": "0xcf7d6f01f16fff48fc65b3c09116b13bc595f3ab3ea1d17e5a76dd5f41bbb885",
            "status": true,
            "timestamp": "2024-04-28T12:54:23Z",
            "transactionFee": "0.000496011809799231",
            "txnHash": "0xcf7d6f01f16fff48fc65b3c09116b13bc595f3ab3ea1d17e5a76dd5f41bbb885",
            "txnIndex": 32,
            "type": 2,
            "value": "0"
        },
        "fund_flow": [
            {
                "amount": "1",
                "from": "0x13c18669179ded9abdc0e3ec90349af52589dded",
                "id": 1,
                "isERC1155": false,
                "isERC721": true,
                "isReverted": false,
                "order": 1,
                "to": "0xaea6daaa95791efb154d938bb11d8e5f35b5dbae",
                "token": "0xf4ecc1c74d120649f6598c7a217abaffdf76cd4f",
                "tokenID": "1601"
            }
        ],
        "token_infos": [
            {
                "address": "0xc02aaa39b223fe8d0a0e5c4f27ead9083c756cc2",
                "decimals": 18
            },
            {
                "address": "0xeeeeeeeeeeeeeeeeeeeeeeeeeeeeeeeeeeeeeeee",
                "decimals": 18
            }
        ]
    },
    "address_label": {
        "labels": [
            {
                "address": "0x13c18669179ded9abdc0e3ec90349af52589dded",
                "label": "Age of Dino: Deployer"
            },
            {
                "address": "0xf4ecc1c74d120649f6598c7a217abaffdf76cd4f",
                "label": "Age of Dino: DINOSTY Token"
            },
            {
                "address": "0x0000721c310194ccfc01e523fc93c9cccfa2a0ac",
                "label": "CreatorTokenTransferValidator"
            },
            {
                "address": "0x0000000000000000000000000000000000000001",
                "label": "Precompiled"
            },
            {
                "address": "0x0000000000000000000000000000000000000002",
                "label": "Precompiled"
            },
            {
                "address": "0x0000000000000000000000000000000000000003",
                "label": "Precompiled"
            },
            {
                "address": "0x0000000000000000000000000000000000000004",
                "label": "Precompiled"
            },
            {
                "address": "0xeeeeeeeeeeeeeeeeeeeeeeeeeeeeeeeeeeeeeeee",
                "label": "Ether"
            }
        ]
    },
    "trace": {
        "accountLabels": null,
        "dataMap": {
            "-1": {
                "invocation": {
                    "address": "0x13c18669179ded9abdc0e3ec90349af52589dded",
                    "callData": "",
                    "decodedMethod": null,
                    "errorInfo": "",
                    "fromAddress": "",
                    "gasUsed": 0,
                    "id": -1,
                    "methodDecoded": false,
                    "operation": "",
                    "output": "",
                    "revert": false,
                    "revertMessage": "",
                    "selector": "",
                    "status": false,
                    "value": ""
                },
                "nodeType": 0
            },
            "0": {
                "invocation": {
                    "address": "0xf4ecc1c74d120649f6598c7a217abaffdf76cd4f",
                    "callData": "0x00000000000000000000000013c18669179ded9abdc0e3ec90349af52589dded000000000000000000000000aea6daaa95791efb154d938bb11d8e5f35b5dbae0000000000000000000000000000000000000000000000000000000000000641",
                    "decodedMethod": {
                        "callParams": [
                            {
                                "name": "from",
                                "type": "address",
                                "value": "0x13c18669179ded9abdc0e3ec90349af52589dded"
                            },
                            {
                                "name": "to",
                                "type": "address",
                                "value": "0xaea6daaa95791efb154d938bb11d8e5f35b5dbae"
                            },
                            {
                                "name": "tokenId",
                                "type": "uint256",
                                "value": "1,601"
                            }
                        ],
                        "constructorArguments": "",
                        "name": "safeTransferFrom",
                        "returnParams": [],
                        "signature": "safeTransferFrom(address,address,uint256)"
                    },
                    "errorInfo": "",
                    "fromAddress": "0x13c18669179ded9abdc0e3ec90349af52589dded",
                    "gasUsed": 60159,
                    "id": 0,
                    "methodDecoded": true,
                    "operation": "CALL",
                    "output": "",
                    "revert": false,
                    "revertMessage": "",
                    "selector": "0x42842e0e",
                    "status": true,
                    "value": "0"
                },
                "nodeType": 0
            },
            "1": {
                "invocation": {
                    "address": "0x0000721c310194ccfc01e523fc93c9cccfa2a0ac",
                    "callData": "0x00000000000000000000000013c18669179ded9abdc0e3ec90349af52589dded00000000000000000000000013c18669179ded9abdc0e3ec90349af52589dded000000000000000000000000aea6daaa95791efb154d938bb11d8e5f35b5dbae",
                    "decodedMethod": {
                        "callParams": [
                            {
                                "name": "caller",
                                "type": "address",
                                "value": "0x13c18669179ded9abdc0e3ec90349af52589dded"
                            },
                            {
                                "name": "from",
                                "type": "address",
                                "value": "0x13c18669179ded9abdc0e3ec90349af52589dded"
                            },
                            {
                                "name": "to",
                                "type": "address",
                                "value": "0xaea6daaa95791efb154d938bb11d8e5f35b5dbae"
                            }
                        ],
                        "constructorArguments": "",
                        "name": "applyCollectionTransferPolicy",
                        "returnParams": [],
                        "signature": "applyCollectionTransferPolicy(address,address,address)"
                    },
                    "errorInfo": "",
                    "fromAddress": "0xf4ecc1c74d120649f6598c7a217abaffdf76cd4f",
                    "gasUsed": 5758,
                    "id": 1,
                    "methodDecoded": true,
                    "operation": "STATICCALL",
                    "output": "",
                    "revert": false,
                    "revertMessage": "",
                    "selector": "0x285fb8c8",
                    "status": true,
                    "value": "0"
                },
                "nodeType": 0
            },
            "2": {
                "event": {
                    "contract": "0xf4ecc1c74d120649f6598c7a217abaffdf76cd4f",
                    "decodedLog": {
                        "name": "Transfer",
                        "params": [
                            {
                                "name": "from",
                                "type": "address",
                                "value": "0x13c18669179ded9abdc0e3ec90349af52589dded"
                            },
                            {
                                "name": "to",
                                "type": "address",
                                "value": "0xaea6daaa95791efb154d938bb11d8e5f35b5dbae"
                            },
                            {
                                "decimalAvailable": true,
                                "name": "tokenId",
                                "type": "uint256",
                                "value": "1,601"
                            }
                        ],
                        "signature": "Transfer(address,address,uint256)"
                    },
                    "id": 2,
                    "logData": "0x",
                    "logDecoded": true,
                    "operation": "EVENT",
                    "revert": false,
                    "status": true,
                    "topics": [
                        "0xddf252ad1be2c89b69c2b068fc378daa952ba7f163c4a11628f55a4df523b3ef",
                        "0x00000000000000000000000013c18669179ded9abdc0e3ec90349af52589dded",
                        "0x000000000000000000000000aea6daaa95791efb154d938bb11d8e5f35b5dbae",
                        "0x0000000000000000000000000000000000000000000000000000000000000641"
                    ]
                },
                "nodeType": 1
            }
        },
        "gasFlame": [
            {
                "children": [
                    {
                        "children": [
                            {
                                "children": [],
                                "depth": 0,
                                "name": "Initial Gas",
                                "value": 21952
                            },
                            {
                                "children": [
                                    {
                                        "children": [],
                                        "depth": 1,
                                        "name": "applyCollectionTransferPolicy",
                                        "value": 5758
                                    }
                                ],
                                "depth": 0,
                                "name": "Executed Gas",
                                "value": 38207
                            }
                        ],
                        "depth": -1,
                        "name": "Actual Gas Used",
                        "value": 60159
                    },
                    {
                        "children": [],
                        "depth": -1,
                        "name": "Refunded Gas",
                        "value": 0
                    }
                ],
                "depth": -2,
                "name": "Total Gas",
                "value": 60159
            }
        ],
        "isConfirmed": true,
        "mainTrace": [
            {
                "children": [
                    {
                        "children": [
                            {
                                "children": [],
                                "depth": 1,
                                "id": 1,
                                "order": 1
                            },
                            {
                                "children": [],
                                "depth": 1,
                                "id": 2,
                                "order": 2
                            }
                        ],
                        "depth": 0,
                        "id": 0,
                        "order": 0
                    }
                ],
                "depth": -1,
                "id": -1,
                "order": -1
            }
        ],
        "mainTraceNodeCount": 3,
        "parentIdMap": {
            "0": -1,
            "1": 0,
            "2": 0
        },
        "tidyTrace": [
            {
                "children": [
                    {
                        "children": [
                            {
                                "children": [],
                                "depth": 1,
                                "id": 2,
                                "order": 2
                            }
                        ],
                        "depth": 0,
                        "id": 0,
                        "order": 0
                    }
                ],
                "depth": -1,
                "id": -1,
                "order": -1
            }
        ],
        "tidyTraceNodeCount": 2
    },
    "state_change": {
        "stateChanges": [
            {
                "address": "0xf4ecc1c74d120649f6598c7a217abaffdf76cd4f",
                "erc": "ERC-721",
                "slots": [
                    {
                        "current": "0x0000000000000000000000000000000000000000000000000000000000000a6f",
                        "key": "0x1482985900ea6e9562055fb32573a62155c51d9c22d3efc09fed9d33e446a732",
                        "prev": "0x0000000000000000000000000000000000000000000000000000000000000a70"
                    },
                    {
                        "current": "0x0000000000000000000000000000000000000000000000000000000000000002",
                        "key": "0x89d32623a5188e34eb931d79e49bb621e2de55801b89a600fa5424580c8b2e87",
                        "prev": "0x0000000000000000000000000000000000000000000000000000000000000001"
                    },
                    {
                        "current": "0x000000000000000000000000aea6daaa95791efb154d938bb11d8e5f35b5dbae",
                        "key": "0xb44838e310ea04ec71e9be815b3d4d0aac4cfcbde64133268732d4d0dc24938c",
                        "prev": "0x00000000000000000000000013c18669179ded9abdc0e3ec90349af52589dded"
                    }
                ],
                "storageVariables": [
                    {
                        "name": "_balances",
                        "type": "mapping(address => uint256)",
                        "value": {
                            "pairs": [
                                {
                                    "key": "0x13c18669179ded9abdc0e3ec90349af52589dded",
                                    "value": {
                                        "current": "2671",
                                        "prev": "2672",
                                        "typeTag": 1
                                    }
                                },
                                {
                                    "key": "0xaea6daaa95791efb154d938bb11d8e5f35b5dbae",
                                    "value": {
                                        "current": "2",
                                        "prev": "1",
                                        "typeTag": 1
                                    }
                                }
                            ],
                            "typeTag": 4
                        }
                    },
                    {
                        "name": "_owners",
                        "type": "mapping(uint256 => address)",
                        "value": {
                            "pairs": [
                                {
                                    "key": "1601",
                                    "value": {
                                        "current": "0xaea6daaa95791efb154d938bb11d8e5f35b5dbae",
                                        "prev": "0x13c18669179ded9abdc0e3ec90349af52589dded",
                                        "typeTag": 1
                                    }
                                }
                            ],
                            "typeTag": 4
                        }
                    }
                ]
            }
        ]
    }
}