{
    "balance_change": {
        "balanceChanges": [
            {
                "account": "0xa4f19a86992063302016b7b437e720b27f8d97b5",
                "assets": [
                    {
                        "address": "0xeeeeeeeeeeeeeeeeeeeeeeeeeeeeeeeeeeeeeeee",
                        "amount": "0.15",
                        "iconUrl": "https://assets.blocksec.com/image/1663669189317-3.png",
                        "isERC1155": false,
                        "isERC721": false,
                        "sign": false,
                        "value": "475.96532999999997174"
                    },
                    {
                        "address": "0x8802269d1283cdb2a5a329649e5cb4cdcee91ab6",
                        "amount": "1,963,170.571525455",
                        "iconUrl": "",
                        "isERC1155": false,
                        "isERC721": false,
                        "sign": true,
                        "value": "455.5289644"
                    }
                ]
            },
            {
                "account": "0x3328f7f4a1d1c57c35df56bbf0c9dcafca309c49",
                "assets": [
                    {
                        "address": "0xeeeeeeeeeeeeeeeeeeeeeeeeeeeeeeeeeeeeeeee",
                        "amount": "0.000746268656716418",
                        "iconUrl": "https://assets.blocksec.com/image/1663669189317-3.png",
                        "isERC1155": false,
                        "isERC721": false,
                        "sign": true,
                        "value": "2.3679867163658145993"
                    }
                ]
            },
            {
                "account": "0x63a151d042dc870fb1b3f0c72cbbdd53a85898f6",
                "assets": [
                    {
                        "address": "0xc02aaa39b223fe8d0a0e5c4f27ead9083c756cc2",
                        "amount": "0.149253731343283582",
                        "iconUrl": "https://assets.blocksec.com/icon/f1cb2d02c471d545bbc7722daf3277fd852d98e63d118771af7047bd8256c516.png",
                        "isERC1155": false,
                        "isERC721": false,
                        "sign": true,
                        "value": "473.5973431462388319"
                    },
                    {
                        "address": "0x8802269d1283cdb2a5a329649e5cb4cdcee91ab6",
                        "amount": "1,963,170.571525455",
                        "iconUrl": "",
                        "isERC1155": false,
                        "isERC721": false,
                        "sign": false,
                        "value": "455.5289644"
                    }
                ]
            },
            {
                "account": "0xc02aaa39b223fe8d0a0e5c4f27ead9083c756cc2",
                "assets": [
                    {
                        "address": "0xeeeeeeeeeeeeeeeeeeeeeeeeeeeeeeeeeeeeeeee",
                        "amount": "0.149253731343283582",
                        "iconUrl": "https://assets.blocksec.com/image/1663669189317-3.png",
                        "isERC1155": false,
                        "isERC721": false,
                        "sign": true,
                        "value": "473.5973431462388319"
                    },
                    {
                        "address": "0xc02aaa39b223fe8d0a0e5c4f27ead9083c756cc2",
                        "amount": "0.149253731343283582",
                        "iconUrl": "https://assets.blocksec.com/icon/f1cb2d02c471d545bbc7722daf3277fd852d98e63d118771af7047bd8256c516.png",
                        "isERC1155": false,
                        "isERC721": false,
                        "sign": false,
                        "value": "473.5973431462388319"
                    }
                ]
            }
        ]
    },
    "profile": {
        "basic_info": {
            "baseFee": "3.628773968",
            "blockNumber": 20301453,
            "callData": "0x0162e2d000000000000000000000000000000000000000000000000000000000000000e000000000000000000000000000000000000000000000000000000000000001600000000000000000000000007a250d5630b4cf539739df2c5dacb4c659f2488d00000000000000000000000000000000000000000000000000000000000000010000000000000000000000000000000000000000000000000000000000000000000000000000000000000000000000000000000000000000000000006693296f000000000000000000000000000000000000000000000000000000000000000500000000000000000000000000000000000000000000000000000000000000030000000000000000000000000000000000000000000000000000000000000000000000000000000000000000000000000000000000000000000000000000000000000000000000000000000000000000000000000000000000000000000000000000000000000000000000000000000000000000000000000000000000000002000000000000000000000000c02aaa39b223fe8d0a0e5c4f27ead9083c756cc20000000000000000000000008802269d1283cdb2a5a329649e5cb4cdcee91ab6",
            "debugEnable": true,
            "errorInfo": "",
            "eventCount": 7,
            "feeRecipient": "0x4838b106fce9647bdf1e7877bf73ce8b0bad5f97",
            "formatValue": "0.15",
            "gasLimit": 503274,
            "gasPrice": "39.428773968",
            "gasUsed": 173463,
            "intTxnCount": 11,
            "internalRevert": false,
            "internalRevertMessage": "",
            "isContractCreation": false,
            "isFlashloan": false,
            "maxFee": "44.428773968",
            "nonce": 942,
            "overwritedBlockNumber": -1,
            "priorityFee": "35.8",
            "receiver": "0x3328f7f4a1d1c57c35df56bbf0c9dcafca309c49",
            "revertMessage": "",
            "sender": "0xa4f19a86992063302016b7b437e720b27f8d97b5",
            "simulationEnable": true,
            "sourceTxnHash": "0xcfccdde5521443ae887c56fe3b3e7b3c37e23ba82165837f2be578d9b1bfda8a",
            "status": true,
            "timestamp": "2024-07-14T01:27:11Z",
            "transactionFee": "0.006839433418811184",
            "txnHash": "0xcfccdde5521443ae887c56fe3b3e7b3c37e23ba82165837f2be578d9b1bfda8a",
            "txnIndex": 2,
            "type": 2,
            "value": "150000000000000000"
        },
        "fund_flow": [
            {
                "amount": "0.15",
                "from": "0xa4f19a86992063302016b7b437e720b27f8d97b5",
                "id": 1,
                "isERC1155": false,
                "isERC721": false,
                "isReverted": false,
                "order": 1,
                "to": "0x3328f7f4a1d1c57c35df56bbf0c9dcafca309c49",
                "token": "0xeeeeeeeeeeeeeeeeeeeeeeeeeeeeeeeeeeeeeeee"
            },
            {
                "amount": "0.149253731343283582",
                "from": "0x3328f7f4a1d1c57c35df56bbf0c9dcafca309c49",
                "id": 2,
                "isERC1155": false,
                "isERC721": false,
                "isReverted": false,
                "order": 2,
                "to": "0xc02aaa39b223fe8d0a0e5c4f27ead9083c756cc2",
                "token": "0xeeeeeeeeeeeeeeeeeeeeeeeeeeeeeeeeeeeeeeee"
            },
            {
                "amount": "0.149253731343283582",
                "from": "0xc02aaa39b223fe8d0a0e5c4f27ead9083c756cc2",
                "id": 3,
                "isERC1155": false,
                "isERC721": false,
                "isReverted": false,
                "order": 3,
                "to": "0x3328f7f4a1d1c57c35df56bbf0c9dcafca309c49",
                "token": "0xc02aaa39b223fe8d0a0e5c4f27ead9083c756cc2"
            },
            {
                "amount": "0.149253731343283582",
                "from": "0x3328f7f4a1d1c57c35df56bbf0c9dcafca309c49",
                "id": 4,
                "isERC1155": false,
                "isERC721": false,
                "isReverted": false,
                "order": 4,
                "to": "0x63a151d042dc870fb1b3f0c72cbbdd53a85898f6",
                "token": "0xc02aaa39b223fe8d0a0e5c4f27ead9083c756cc2"
            },
            {
                "amount": "1,963,170.571525455",
                "from": "0x63a151d042dc870fb1b3f0c72cbbdd53a85898f6",
                "id": 5,
                "isERC1155": false,
                "isERC721": false,
                "isReverted": false,
                "order": 5,
                "to": "0xa4f19a86992063302016b7b437e720b27f8d97b5",
                "token": "0x8802269d1283cdb2a5a329649e5cb4cdcee91ab6"
            }
        ],
        "token_infos": [
            {
                "address": "0x8802269d1283cdb2a5a329649e5cb4cdcee91ab6",
                "decimals": 9
            },
            {
                "address": "0xc02aaa39b223fe8d0a0e5c4f27ead9083c756cc2",
                "decimals": 18
            },
            {
                "address": "0xeeeeeeeeeeeeeeeeeeeeeeeeeeeeeeeeeeeeeeee",
                "decimals": 18
            }
        ]
    },
    "address_label": {
        "labels": [
            {
                "address": "0x3328f7f4a1d1c57c35df56bbf0c9dcafca309c49",
                "label": "Banana Gun: Router 2"
            },
            {
                "address": "0x63a151d042dc870fb1b3f0c72cbbdd53a85898f6",
                "label": "Uniswap V2: FIGHT 29"
            },
            {
                "address": "0x0000000000000000000000000000000000000002",
                "label": "Precompiled"
            },
            {
                "address": "0x0000000000000000000000000000000000000003",
                "label": "Precompiled"
            },
            {
                "address": "0x0000000000000000000000000000000000000004",
                "label": "Precompiled"
            },
            {
                "address": "0xeeeeeeeeeeeeeeeeeeeeeeeeeeeeeeeeeeeeeeee",
                "label": "Ether"
            },
            {
                "address": "0xc02aaa39b223fe8d0a0e5c4f27ead9083c756cc2",
                "label": "Wrapped Ether (WETH)"
            },
            {
                "address": "0x8802269d1283cdb2a5a329649e5cb4cdcee91ab6",
                "label": "Fight2Maga: FIGHT Token"
            },
            {
                "address": "0x0000000000000000000000000000000000000001",
                "label": "Precompiled"
            }
        ]
    },
    "trace": {
        "accountLabels": null,
        "dataMap": {
            "-1": {
                "invocation": {
                    "address": "0xa4f19a86992063302016b7b437e720b27f8d97b5",
                    "callData": "",
                    "decodedMethod": null,
                    "errorInfo": "",
                    "fromAddress": "",
                    "gasUsed": 0,
                    "id": -1,
                    "methodDecoded": false,
                    "operation": "",
                    "output": "",
                    "revert": false,
                    "revertMessage": "",
                    "selector": "",
                    "status": false,
                    "value": ""
                },
                "nodeType": 0
            },
            "0": {
                "invocation": {
                    "address": "0x3328f7f4a1d1c57c35df56bbf0c9dcafca309c49",
                    "callData": "0x00000000000000000000000000000000000000000000000000000000000000e000000000000000000000000000000000000000000000000000000000000001600000000000000000000000007a250d5630b4cf539739df2c5dacb4c659f2488d00000000000000000000000000000000000000000000000000000000000000010000000000000000000000000000000000000000000000000000000000000000000000000000000000000000000000000000000000000000000000006693296f000000000000000000000000000000000000000000000000000000000000000500000000000000000000000000000000000000000000000000000000000000030000000000000000000000000000000000000000000000000000000000000000000000000000000000000000000000000000000000000000000000000000000000000000000000000000000000000000000000000000000000000000000000000000000000000000000000000000000000000000000000000000000000000002000000000000000000000000c02aaa39b223fe8d0a0e5c4f27ead9083c756cc20000000000000000000000008802269d1283cdb2a5a329649e5cb4cdcee91ab6",
                    "decodedMethod": null,
                    "errorInfo": "",
                    "fromAddress": "0xa4f19a86992063302016b7b437e720b27f8d97b5",
                    "gasUsed": 173463,
                    "id": 0,
                    "methodDecoded": false,
                    "operation": "CALL",
                    "output": "",
                    "revert": false,
                    "revertMessage": "",
                    "selector": "0x0162e2d0",
                    "status": true,
                    "value": "0.15"
                },
                "nodeType": 0
            },
            "1": {
                "invocation": {
                    "address": "0x241423640f5bfd019f885e9b6b544145f96bd6cc",
                    "callData": "0x00000000000000000000000000000000000000000000000000000000000000e000000000000000000000000000000000000000000000000000000000000001600000000000000000000000007a250d5630b4cf539739df2c5dacb4c659f2488d00000000000000000000000000000000000000000000000000000000000000010000000000000000000000000000000000000000000000000000000000000000000000000000000000000000000000000000000000000000000000006693296f000000000000000000000000000000000000000000000000000000000000000500000000000000000000000000000000000000000000000000000000000000030000000000000000000000000000000000000000000000000000000000000000000000000000000000000000000000000000000000000000000000000000000000000000000000000000000000000000000000000000000000000000000000000000000000000000000000000000000000000000000000000000000000000002000000000000000000000000c02aaa39b223fe8d0a0e5c4f27ead9083c756cc20000000000000000000000008802269d1283cdb2a5a329649e5cb4cdcee91ab6",
                    "decodedMethod": null,
                    "errorInfo": "",
                    "fromAddress": "0x3328f7f4a1d1c57c35df56bbf0c9dcafca309c49",
                    "gasUsed": 165223,
                    "id": 1,
                    "methodDecoded": false,
                    "operation": "DELEGATECALL",
                    "output": "",
                    "revert": false,
                    "revertMessage": "",
                    "selector": "0x0162e2d0",
                    "status": true,
                    "value": "0.15"
                },
                "nodeType": 0
            },
            "10": {
                "invocation": {
                    "address": "0x8802269d1283cdb2a5a329649e5cb4cdcee91ab6",
                    "callData": "0x000000000000000000000000a4f19a86992063302016b7b437e720b27f8d97b50000000000000000000000000000000000000000000000000006f97e448c9d4f",
                    "decodedMethod": {
                        "callParams": [
                            {
                                "name": "recipient",
                                "type": "address",
                                "value": "0xa4f19a86992063302016b7b437e720b27f8d97b5"
                            },
                            {
                                "decimalAvailable": true,
                                "name": "amount",
                                "type": "uint256",
                                "value": "1,963,170,571,525,455"
                            }
                        ],
                        "constructorArguments": "",
                        "name": "transfer",
                        "returnParams": [
                            {
                                "name": "",
                                "type": "bool",
                                "value": true
                            }
                        ],
                        "signature": "transfer(address,uint256)"
                    },
                    "errorInfo": "",
                    "fromAddress": "0x63a151d042dc870fb1b3f0c72cbbdd53a85898f6",
                    "gasUsed": 59700,
                    "id": 10,
                    "methodDecoded": true,
                    "operation": "CALL",
                    "output": "0x0000000000000000000000000000000000000000000000000000000000000001",
                    "revert": false,
                    "revertMessage": "",
                    "selector": "0xa9059cbb",
                    "status": true,
                    "value": "0"
                },
                "nodeType": 0
            },
            "11": {
                "event": {
                    "contract": "0x8802269d1283cdb2a5a329649e5cb4cdcee91ab6",
                    "decodedLog": {
                        "name": "Transfer",
                        "params": [
                            {
                                "name": "from",
                                "type": "address",
                                "value": "0x63a151d042dc870fb1b3f0c72cbbdd53a85898f6"
                            },
                            {
                                "name": "to",
                                "type": "address",
                                "value": "0xa4f19a86992063302016b7b437e720b27f8d97b5"
                            },
                            {
                                "decimalAvailable": true,
                                "name": "value",
                                "type": "uint256",
                                "value": "1,963,170,571,525,455"
                            }
                        ],
                        "signature": "Transfer(address,address,uint256)"
                    },
                    "id": 11,
                    "logData": "0x0000000000000000000000000000000000000000000000000006f97e448c9d4f",
                    "logDecoded": true,
                    "operation": "EVENT",
                    "revert": false,
                    "status": true,
                    "topics": [
                        "0xddf252ad1be2c89b69c2b068fc378daa952ba7f163c4a11628f55a4df523b3ef",
                        "0x00000000000000000000000063a151d042dc870fb1b3f0c72cbbdd53a85898f6",
                        "0x000000000000000000000000a4f19a86992063302016b7b437e720b27f8d97b5"
                    ]
                },
                "nodeType": 1
            },
            "12": {
                "invocation": {
                    "address": "0x8802269d1283cdb2a5a329649e5cb4cdcee91ab6",
                    "callData": "0x00000000000000000000000063a151d042dc870fb1b3f0c72cbbdd53a85898f6",
                    "decodedMethod": {
                        "callParams": [
                            {
                                "name": "account",
                                "type": "address",
                                "value": "0x63a151d042dc870fb1b3f0c72cbbdd53a85898f6"
                            }
                        ],
                        "constructorArguments": "",
                        "name": "balanceOf",
                        "returnParams": [
                            {
                                "decimalAvailable": true,
                                "name": "",
                                "type": "uint256",
                                "value": "103,238,337,688,110,033"
                            }
                        ],
                        "signature": "balanceOf(address)"
                    },
                    "errorInfo": "",
                    "fromAddress": "0x63a151d042dc870fb1b3f0c72cbbdd53a85898f6",
                    "gasUsed": 639,
                    "id": 12,
                    "methodDecoded": true,
                    "operation": "STATICCALL",
                    "output": "0x000000000000000000000000000000000000000000000000016ec6b89d1a03d1",
                    "revert": false,
                    "revertMessage": "",
                    "selector": "0x70a08231",
                    "status": true,
                    "value": "0"
                },
                "nodeType": 0
            },
            "13": {
                "invocation": {
                    "address": "0xc02aaa39b223fe8d0a0e5c4f27ead9083c756cc2",
                    "callData": "0x00000000000000000000000063a151d042dc870fb1b3f0c72cbbdd53a85898f6",
                    "decodedMethod": {
                        "callParams": [
                            {
                                "name": "",
                                "type": "address",
                                "value": "0x63a151d042dc870fb1b3f0c72cbbdd53a85898f6"
                            }
                        ],
                        "constructorArguments": "",
                        "name": "balanceOf",
                        "returnParams": [
                            {
                                "decimalAvailable": true,
                                "name": "",
                                "type": "uint256",
                                "value": "7,974,595,664,998,222,189"
                            }
                        ],
                        "signature": "balanceOf(address)"
                    },
                    "errorInfo": "",
                    "fromAddress": "0x63a151d042dc870fb1b3f0c72cbbdd53a85898f6",
                    "gasUsed": 534,
                    "id": 13,
                    "methodDecoded": true,
                    "operation": "STATICCALL",
                    "output": "0x0000000000000000000000000000000000000000000000006eab74818f96c96d",
                    "revert": false,
                    "revertMessage": "",
                    "selector": "0x70a08231",
                    "status": true,
                    "value": "0"
                },
                "nodeType": 0
            },
            "14": {
                "event": {
                    "contract": "0x63a151d042dc870fb1b3f0c72cbbdd53a85898f6",
                    "decodedLog": {
                        "name": "Sync",
                        "params": [
                            {
                                "name": "reserve0",
                                "type": "uint112",
                                "value": "103,238,337,688,110,033"
                            },
                            {
                                "name": "reserve1",
                                "type": "uint112",
                                "value": "7,974,595,664,998,222,189"
                            }
                        ],
                        "signature": "Sync(uint112,uint112)"
                    },
                    "id": 14,
                    "logData": "0x000000000000000000000000000000000000000000000000016ec6b89d1a03d10000000000000000000000000000000000000000000000006eab74818f96c96d",
                    "logDecoded": true,
                    "operation": "EVENT",
                    "revert": false,
                    "status": true,
                    "topics": [
                        "0x1c411e9a96e071241c2f21f7726b17ae89e3cab4c78be50e062b03a9fffbbad1"
                    ]
                },
                "nodeType": 1
            },
            "15": {
                "event": {
                    "contract": "0x63a151d042dc870fb1b3f0c72cbbdd53a85898f6",
                    "decodedLog": {
                        "name": "Swap",
                        "params": [
                            {
                                "name": "sender",
                                "type": "address",
                                "value": "0x3328f7f4a1d1c57c35df56bbf0c9dcafca309c49"
                            },
                            {
                                "name": "to",
                                "type": "address",
                                "value": "0xa4f19a86992063302016b7b437e720b27f8d97b5"
                            },
                            {
                                "name": "amount0In",
                                "type": "uint256",
                                "value": "0"
                            },
                            {
                                "name": "amount1In",
                                "type": "uint256",
                                "value": "149,253,731,343,283,582"
                            },
                            {
                                "name": "amount0Out",
                                "type": "uint256",
                                "value": "1,963,170,571,525,455"
                            },
                            {
                                "name": "amount1Out",
                                "type": "uint256",
                                "value": "0"
                            }
                        ],
                        "signature": "Swap(address,uint256,uint256,uint256,uint256,address)"
                    },
                    "id": 15,
                    "logData": "0x00000000000000000000000000000000000000000000000000000000000000000000000000000000000000000000000000000000000000000212417a561e357e0000000000000000000000000000000000000000000000000006f97e448c9d4f0000000000000000000000000000000000000000000000000000000000000000",
                    "logDecoded": true,
                    "operation": "EVENT",
                    "revert": false,
                    "status": true,
                    "topics": [
                        "0xd78ad95fa46c994b6551d0da85fc275fe613ce37657fb8d5e3d130840159d822",
                        "0x0000000000000000000000003328f7f4a1d1c57c35df56bbf0c9dcafca309c49",
                        "0x000000000000000000000000a4f19a86992063302016b7b437e720b27f8d97b5"
                    ]
                },
                "nodeType": 1
            },
            "16": {
                "invocation": {
                    "address": "0x8802269d1283cdb2a5a329649e5cb4cdcee91ab6",
                    "callData": "0x000000000000000000000000a4f19a86992063302016b7b437e720b27f8d97b5",
                    "decodedMethod": {
                        "callParams": [
                            {
                                "name": "account",
                                "type": "address",
                                "value": "0xa4f19a86992063302016b7b437e720b27f8d97b5"
                            }
                        ],
                        "constructorArguments": "",
                        "name": "balanceOf",
                        "returnParams": [
                            {
                                "decimalAvailable": true,
                                "name": "",
                                "type": "uint256",
                                "value": "1,963,170,571,525,455"
                            }
                        ],
                        "signature": "balanceOf(address)"
                    },
                    "errorInfo": "",
                    "fromAddress": "0x3328f7f4a1d1c57c35df56bbf0c9dcafca309c49",
                    "gasUsed": 639,
                    "id": 16,
                    "methodDecoded": true,
                    "operation": "STATICCALL",
                    "output": "0x0000000000000000000000000000000000000000000000000006f97e448c9d4f",
                    "revert": false,
                    "revertMessage": "",
                    "selector": "0x70a08231",
                    "status": true,
                    "value": "0"
                },
                "nodeType": 0
            },
            "17": {
                "event": {
                    "contract": "0x3328f7f4a1d1c57c35df56bbf0c9dcafca309c49",
                    "decodedLog": null,
                    "id": 17,
                    "logData": "0x0000000000000000000000000000000000000000000000000002a6ba3630ca81000000000000000000000000a4f19a86992063302016b7b437e720b27f8d97b50000000000000000000000000000000000000000000000000000000000000000",
                    "logDecoded": false,
                    "operation": "EVENT",
                    "revert": false,
                    "status": true,
                    "topics": [
                        "0x72015ace03712f361249380657b3d40777dd8f8a686664cab48afd9dbbe4499f"
                    ]
                },
                "nodeType": 1
            },
            "18": {
                "event": {
                    "contract": "0x3328f7f4a1d1c57c35df56bbf0c9dcafca309c49",
                    "decodedLog": null,
                    "id": 18,
                    "logData": "0x0000000000000000000000000000000000000000000000000212417a561e357e0000000000000000000000000000000000000000000000000006f97e448c9d4f0000000000000000000000000000000000000000000000000006f97e448c9d4f",
                    "logDecoded": false,
                    "operation": "EVENT",
                    "revert": false,
                    "status": true,
                    "topics": [
                        "0x9f849d23f4955d98202378ea318f2b0c7533695d3c9fb2a3931f0f919fa8c420"
                    ]
                },
                "nodeType": 1
            },
            "2": {
                "invocation": {
                    "address": "0x8802269d1283cdb2a5a329649e5cb4cdcee91ab6",
                    "callData": "0x000000000000000000000000a4f19a86992063302016b7b437e720b27f8d97b5",
                    "decodedMethod": {
                        "callParams": [
                            {
                                "name": "account",
                                "type": "address",
                                "value": "0xa4f19a86992063302016b7b437e720b27f8d97b5"
                            }
                        ],
                        "constructorArguments": "",
                        "name": "balanceOf",
                        "returnParams": [
                            {
                                "decimalAvailable": true,
                                "name": "",
                                "type": "uint256",
                                "value": "0"
                            }
                        ],
                        "signature": "balanceOf(address)"
                    },
                    "errorInfo": "",
                    "fromAddress": "0x3328f7f4a1d1c57c35df56bbf0c9dcafca309c49",
                    "gasUsed": 2639,
                    "id": 2,
                    "methodDecoded": true,
                    "operation": "STATICCALL",
                    "output": "0x0000000000000000000000000000000000000000000000000000000000000000",
                    "revert": false,
                    "revertMessage": "",
                    "selector": "0x70a08231",
                    "status": true,
                    "value": "0"
                },
                "nodeType": 0
            },
            "3": {
                "invocation": {
                    "address": "0xc02aaa39b223fe8d0a0e5c4f27ead9083c756cc2",
                    "callData": "0x",
                    "decodedMethod": {
                        "callParams": [],
                        "constructorArguments": "",
                        "name": "deposit",
                        "returnParams": [],
                        "signature": "deposit()"
                    },
                    "errorInfo": "",
                    "fromAddress": "0x3328f7f4a1d1c57c35df56bbf0c9dcafca309c49",
                    "gasUsed": 23974,
                    "id": 3,
                    "methodDecoded": true,
                    "operation": "CALL",
                    "output": "",
                    "revert": false,
                    "revertMessage": "",
                    "selector": "0xd0e30db0",
                    "status": true,
                    "value": "0.149253731343283582"
                },
                "nodeType": 0
            },
            "4": {
                "event": {
                    "contract": "0xc02aaa39b223fe8d0a0e5c4f27ead9083c756cc2",
                    "decodedLog": {
                        "name": "Deposit",
                        "params": [
                            {
                                "name": "dst",
                                "type": "address",
                                "value": "0x3328f7f4a1d1c57c35df56bbf0c9dcafca309c49"
                            },
                            {
                                "name": "wad",
                                "type": "uint256",
                                "value": "149,253,731,343,283,582"
                            }
                        ],
                        "signature": "Deposit(address,uint256)"
                    },
                    "id": 4,
                    "logData": "0x0000000000000000000000000000000000000000000000000212417a561e357e",
                    "logDecoded": true,
                    "operation": "EVENT",
                    "revert": false,
                    "status": true,
                    "topics": [
                        "0xe1fffcc4923d04b559f4d29a8bfc6cda04eb5b0d3c460751c2402c5c5cc9109c",
                        "0x0000000000000000000000003328f7f4a1d1c57c35df56bbf0c9dcafca309c49"
                    ]
                },
                "nodeType": 1
            },
            "5": {
                "invocation": {
                    "address": "0xc02aaa39b223fe8d0a0e5c4f27ead9083c756cc2",
                    "callData": "0x00000000000000000000000063a151d042dc870fb1b3f0c72cbbdd53a85898f60000000000000000000000000000000000000000000000000212417a561e357e",
                    "decodedMethod": {
                        "callParams": [
                            {
                                "name": "dst",
                                "type": "address",
                                "value": "0x63a151d042dc870fb1b3f0c72cbbdd53a85898f6"
                            },
                            {
                                "decimalAvailable": true,
                                "name": "wad",
                                "type": "uint256",
                                "value": "149,253,731,343,283,582"
                            }
                        ],
                        "constructorArguments": "",
                        "name": "transfer",
                        "returnParams": [
                            {
                                "name": "",
                                "type": "bool",
                                "value": true
                            }
                        ],
                        "signature": "transfer(address,uint256)"
                    },
                    "errorInfo": "",
                    "fromAddress": "0x3328f7f4a1d1c57c35df56bbf0c9dcafca309c49",
                    "gasUsed": 8062,
                    "id": 5,
                    "methodDecoded": true,
                    "operation": "CALL",
                    "output": "0x0000000000000000000000000000000000000000000000000000000000000001",
                    "revert": false,
                    "revertMessage": "",
                    "selector": "0xa9059cbb",
                    "status": true,
                    "value": "0"
                },
                "nodeType": 0
            },
            "6": {
                "event": {
                    "contract": "0xc02aaa39b223fe8d0a0e5c4f27ead9083c756cc2",
                    "decodedLog": {
                        "name": "Transfer",
                        "params": [
                            {
                                "name": "src",
                                "type": "address",
                                "value": "0x3328f7f4a1d1c57c35df56bbf0c9dcafca309c49"
                            },
                            {
                                "name": "dst",
                                "type": "address",
                                "value": "0x63a151d042dc870fb1b3f0c72cbbdd53a85898f6"
                            },
                            {
                                "decimalAvailable": true,
                                "name": "wad",
                                "type": "uint256",
                                "value": "149,253,731,343,283,582"
                            }
                        ],
                        "signature": "Transfer(address,address,uint256)"
                    },
                    "id": 6,
                    "logData": "0x0000000000000000000000000000000000000000000000000212417a561e357e",
                    "logDecoded": true,
                    "operation": "EVENT",
                    "revert": false,
                    "status": true,
                    "topics": [
                        "0xddf252ad1be2c89b69c2b068fc378daa952ba7f163c4a11628f55a4df523b3ef",
                        "0x0000000000000000000000003328f7f4a1d1c57c35df56bbf0c9dcafca309c49",
                        "0x00000000000000000000000063a151d042dc870fb1b3f0c72cbbdd53a85898f6"
                    ]
                },
                "nodeType": 1
            },
            "7": {
                "invocation": {
                    "address": "0x63a151d042dc870fb1b3f0c72cbbdd53a85898f6",
                    "callData": "0x",
                    "decodedMethod": {
                        "callParams": [],
                        "constructorArguments": "",
                        "name": "getReserves",
                        "returnParams": [
                            {
                                "name": "_reserve0",
                                "type": "uint112",
                                "value": "105,201,508,259,635,488"
                            },
                            {
                                "name": "_reserve1",
                                "type": "uint112",
                                "value": "7,825,341,933,654,938,607"
                            },
                            {
                                "name": "_blockTimestampLast",
                                "type": "uint32",
                                "value": "1,720,920,419"
                            }
                        ],
                        "signature": "getReserves()"
                    },
                    "errorInfo": "",
                    "fromAddress": "0x3328f7f4a1d1c57c35df56bbf0c9dcafca309c49",
                    "gasUsed": 2504,
                    "id": 7,
                    "methodDecoded": true,
                    "operation": "STATICCALL",
                    "output": "0x0000000000000000000000000000000000000000000000000175c036e1a6a1200000000000000000000000000000000000000000000000006c993307397893ef0000000000000000000000000000000000000000000000000000000066932963",
                    "revert": false,
                    "revertMessage": "",
                    "selector": "0x0902f1ac",
                    "status": true,
                    "value": "0"
                },
                "nodeType": 0
            },
            "8": {
                "invocation": {
                    "address": "0xc02aaa39b223fe8d0a0e5c4f27ead9083c756cc2",
                    "callData": "0x00000000000000000000000063a151d042dc870fb1b3f0c72cbbdd53a85898f6",
                    "decodedMethod": {
                        "callParams": [
                            {
                                "name": "",
                                "type": "address",
                                "value": "0x63a151d042dc870fb1b3f0c72cbbdd53a85898f6"
                            }
                        ],
                        "constructorArguments": "",
                        "name": "balanceOf",
                        "returnParams": [
                            {
                                "decimalAvailable": true,
                                "name": "",
                                "type": "uint256",
                                "value": "7,974,595,664,998,222,189"
                            }
                        ],
                        "signature": "balanceOf(address)"
                    },
                    "errorInfo": "",
                    "fromAddress": "0x3328f7f4a1d1c57c35df56bbf0c9dcafca309c49",
                    "gasUsed": 534,
                    "id": 8,
                    "methodDecoded": true,
                    "operation": "STATICCALL",
                    "output": "0x0000000000000000000000000000000000000000000000006eab74818f96c96d",
                    "revert": false,
                    "revertMessage": "",
                    "selector": "0x70a08231",
                    "status": true,
                    "value": "0"
                },
                "nodeType": 0
            },
            "9": {
                "invocation": {
                    "address": "0x63a151d042dc870fb1b3f0c72cbbdd53a85898f6",
                    "callData": "0x0000000000000000000000000000000000000000000000000006f97e448c9d4f0000000000000000000000000000000000000000000000000000000000000000000000000000000000000000a4f19a86992063302016b7b437e720b27f8d97b500000000000000000000000000000000000000000000000000000000000000800000000000000000000000000000000000000000000000000000000000000000",
                    "decodedMethod": {
                        "callParams": [
                            {
                                "name": "amount0Out",
                                "type": "uint256",
                                "value": "1,963,170,571,525,455"
                            },
                            {
                                "name": "amount1Out",
                                "type": "uint256",
                                "value": "0"
                            },
                            {
                                "name": "to",
                                "type": "address",
                                "value": "0xa4f19a86992063302016b7b437e720b27f8d97b5"
                            },
                            {
                                "name": "data",
                                "type": "bytes",
                                "value": "0x"
                            }
                        ],
                        "constructorArguments": "",
                        "name": "swap",
                        "returnParams": [],
                        "signature": "swap(uint256,uint256,address,bytes)"
                    },
                    "errorInfo": "",
                    "fromAddress": "0x3328f7f4a1d1c57c35df56bbf0c9dcafca309c49",
                    "gasUsed": 92196,
                    "id": 9,
                    "methodDecoded": true,
                    "operation": "CALL",
                    "output": "",
                    "revert": false,
                    "revertMessage": "",
                    "selector": "0x022c0d9f",
                    "status": true,
                    "value": "0"
                },
                "nodeType": 0
            }
        },
        "gasFlame": [
            {
                "children": [
                    {
                        "children": [
                            {
                                "children": [],
                                "depth": 0,
                                "name": "Initial Gas",
                                "value": 23708
                            },
                            {
                                "children": [
                                    {
                                        "children": [
                                            {
                                                "children": [],
                                                "depth": 2,
                                                "name": "balanceOf",
                                                "value": 2639
                                            },
                                            {
                                                "children": [],
                                                "depth": 2,
                                                "name": "deposit",
                                                "value": 23974
                                            },
                                            {
                                                "children": [],
                                                "depth": 2,
                                                "name": "transfer",
                                                "value": 8062
                                            },
                                            {
                                                "children": [],
                                                "depth": 2,
                                                "name": "getReserves",
                                                "value": 2504
                                            },
                                            {
                                                "children": [],
                                                "depth": 2,
                                                "name": "balanceOf",
                                                "value": 534
                                            },
                                            {
                                                "children": [
                                                    {
                                                        "children": [],
                                                        "depth": 3,
                                                        "name": "transfer",
                                                        "value": 59700
                                                    },
                                                    {
                                                        "children": [],
                                                        "depth": 3,
                                                        "name": "balanceOf",
                                                        "value": 639
                                                    },
                                                    {
                                                        "children": [],
                                                        "depth": 3,
                                                        "name": "balanceOf",
                                                        "value": 534
                                                    }
                                                ],
                                                "depth": 2,
                                                "name": "swap",
                                                "value": 92196
                                            },
                                            {
                                                "children": [],
                                                "depth": 2,
                                                "name": "balanceOf",
                                                "value": 639
                                            }
                                        ],
                                        "depth": 1,
                                        "name": "0x0162e2d0",
                                        "value": 165223
                                    }
                                ],
                                "depth": 0,
                                "name": "Executed Gas",
                                "value": 172455
                            }
                        ],
                        "depth": -1,
                        "name": "Actual Gas Used",
                        "value": 173463
                    },
                    {
                        "children": [],
                        "depth": -1,
                        "name": "Refunded Gas",
                        "value": 22700
                    }
                ],
                "depth": -2,
                "name": "Total Gas",
                "value": 196163
            }
        ],
        "isConfirmed": true,
        "mainTrace": [
            {
                "children": [
                    {
                        "children": [
                            {
                                "children": [
                                    {
                                        "children": [],
                                        "depth": 2,
                                        "id": 2,
                                        "order": 2
                                    },
                                    {
                                        "children": [
                                            {
                                                "children": [],
                                                "depth": 3,
                                                "id": 4,
                                                "order": 4
                                            }
                                        ],
                                        "depth": 2,
                                        "id": 3,
                                        "order": 3
                                    },
                                    {
                                        "children": [
                                            {
                                                "children": [],
                                                "depth": 3,
                                                "id": 6,
                                                "order": 6
                                            }
                                        ],
                                        "depth": 2,
                                        "id": 5,
                                        "order": 5
                                    },
                                    {
                                        "children": [],
                                        "depth": 2,
                                        "id": 7,
                                        "order": 7
                                    },
                                    {
                                        "children": [],
                                        "depth": 2,
                                        "id": 8,
                                        "order": 8
                                    },
                                    {
                                        "children": [
                                            {
                                                "children": [
                                                    {
                                                        "children": [],
                                                        "depth": 4,
                                                        "id": 11,
                                                        "order": 11
                                                    }
                                                ],
                                                "depth": 3,
                                                "id": 10,
                                                "order": 10
                                            },
                                            {
                                                "children": [],
                                                "depth": 3,
                                                "id": 12,
                                                "order": 12
                                            },
                                            {
                                                "children": [],
                                                "depth": 3,
                                                "id": 13,
                                                "order": 13
                                            },
                                            {
                                                "children": [],
                                                "depth": 3,
                                                "id": 14,
                                                "order": 14
                                            },
                                            {
                                                "children": [],
                                                "depth": 3,
                                                "id": 15,
                                                "order": 15
                                            }
                                        ],
                                        "depth": 2,
                                        "id": 9,
                                        "order": 9
                                    },
                                    {
                                        "children": [],
                                        "depth": 2,
                                        "id": 16,
                                        "order": 16
                                    },
                                    {
                                        "children": [],
                                        "depth": 2,
                                        "id": 17,
                                        "order": 17
                                    },
                                    {
                                        "children": [],
                                        "depth": 2,
                                        "id": 18,
                                        "order": 18
                                    }
                                ],
                                "depth": 1,
                                "id": 1,
                                "order": 1
                            }
                        ],
                        "depth": 0,
                        "id": 0,
                        "order": 0
                    }
                ],
                "depth": -1,
                "id": -1,
                "order": -1
            }
        ],
        "mainTraceNodeCount": 19,
        "parentIdMap": {
            "0": -1,
            "1": 0,
            "10": 9,
            "11": 10,
            "12": 9,
            "13": 9,
            "14": 9,
            "15": 9,
            "16": 1,
            "17": 1,
            "18": 1,
            "2": 1,
            "3": 1,
            "4": 3,
            "5": 1,
            "6": 5,
            "7": 1,
            "8": 1,
            "9": 1
        },
        "tidyTrace": [
            {
                "children": [
                    {
                        "children": [
                            {
                                "children": [
                                    {
                                        "children": [
                                            {
                                                "children": [],
                                                "depth": 3,
                                                "id": 4,
                                                "order": 4
                                            }
                                        ],
                                        "depth": 2,
                                        "id": 3,
                                        "order": 3
                                    },
                                    {
                                        "children": [
                                            {
                                                "children": [],
                                                "depth": 3,
                                                "id": 6,
                                                "order": 6
                                            }
                                        ],
                                        "depth": 2,
                                        "id": 5,
                                        "order": 5
                                    },
                                    {
                                        "children": [
                                            {
                                                "children": [
                                                    {
                                                        "children": [],
                                                        "depth": 4,
                                                        "id": 11,
                                                        "order": 11
                                                    }
                                                ],
                                                "depth": 3,
                                                "id": 10,
                                                "order": 10
                                            },
                                            {
                                                "children": [],
                                                "depth": 3,
                                                "id": 14,
                                                "order": 14
                                            },
                                            {
                                                "children": [],
                                                "depth": 3,
                                                "id": 15,
                                                "order": 15
                                            }
                                        ],
                                        "depth": 2,
                                        "id": 9,
                                        "order": 9
                                    },
                                    {
                                        "children": [],
                                        "depth": 2,
                                        "id": 17,
                                        "order": 17
                                    },
                                    {
                                        "children": [],
                                        "depth": 2,
                                        "id": 18,
                                        "order": 18
                                    }
                                ],
                                "depth": 1,
                                "id": 1,
                                "order": 1
                            }
                        ],
                        "depth": 0,
                        "id": 0,
                        "order": 0
                    }
                ],
                "depth": -1,
                "id": -1,
                "order": -1
            }
        ],
        "tidyTraceNodeCount": 13
    },
    "state_change": {
        "stateChanges": [
            {
                "address": "0x3328f7f4a1d1c57c35df56bbf0c9dcafca309c49",
                "erc": "",
                "slots": [
                    {
                        "current": "0x0000000000000000000000000000000000000000000000002b776086ea056f34",
                        "key": "0x0000000000000000000000000000000000000000000000000000000000000001",
                        "prev": "0x0000000000000000000000000000000000000000000000002b74b9ccb3d4a4b3"
                    }
                ],
                "storageVariables": []
            },
            {
                "address": "0x63a151d042dc870fb1b3f0c72cbbdd53a85898f6",
                "erc": "ERC-20",
                "slots": [
                    {
                        "current": "0x00000000000000000000000000000001240aac1a0bc8e45d5381bbc6e16dbdb0",
                        "key": "0x0000000000000000000000000000000000000000000000000000000000000009",
                        "prev": "0x00000000000000000000000000000001208e0f7de425ff44b752e56864452ac4"
                    },
                    {
                        "current": "0x00000000000000000000000000000000000e9c5ffbbde57a13ac75292c050d30",
                        "key": "0x000000000000000000000000000000000000000000000000000000000000000a",
                        "prev": "0x00000000000000000000000000000000000e73136e7e80ed1c7948fc7a205ac4"
                    },
                    {
                        "current": "0x6693296f0000000000006eab74818f96c96d000000000000016ec6b89d1a03d1",
                        "key": "0x0000000000000000000000000000000000000000000000000000000000000008",
                        "prev": "0x669329630000000000006c993307397893ef0000000000000175c036e1a6a120"
                    }
                ],
                "storageVariables": [
                    {
                        "name": "price0CumulativeLast",
                        "type": "uint256",
                        "value": {
                            "current": "388189988375812035315462974689531248048",
                            "prev": "383555283150240603943280340855297485508",
                            "typeTag": 1
                        }
                    },
                    {
                        "name": "price1CumulativeLast",
                        "type": "uint256",
                        "value": {
                            "current": "75863816503404221407402214151228720",
                            "prev": "75026172655279870379900133793880772",
                            "typeTag": 1
                        }
                    },
                    {
                        "name": "reserve0",
                        "type": "uint112",
                        "value": {
                            "current": "103238337688110033",
                            "prev": "105201508259635488",
                            "typeTag": 1
                        }
                    },
                    {
                        "name": "reserve1",
                        "type": "uint112",
                        "value": {
                            "current": "7974595664998222189",
                            "prev": "7825341933654938607",
                            "typeTag": 1
                        }
                    },
                    {
                        "name": "blockTimestampLast",
                        "type": "uint32",
                        "value": {
                            "current": "1720920431",
                            "prev": "1720920419",
                            "typeTag": 1
                        }
                    }
                ]
            },
            {
                "address": "0x8802269d1283cdb2a5a329649e5cb4cdcee91ab6",
                "erc": "ERC-20",
                "slots": [
                    {
                        "current": "0x0000000000000000000000000000000000000000000000000000000000000130",
                        "key": "0x000000000000000000000000000000000000000000000000000000000000000d",
                        "prev": "0x000000000000000000000000000000000000000000000000000000000000012f"
                    },
                    {
                        "current": "0x000000000000000000000000000000000000000000000000016ec6b89d1a03d1",
                        "key": "0x8a91bce8c312185729d171e37dfdffa070eab26f6159435ac1a2db6db06deda1",
                        "prev": "0x0000000000000000000000000000000000000000000000000175c036e1a6a120"
                    },
                    {
                        "current": "0x0000000000000000000000000000000000000000000000000006f97e448c9d4f",
                        "key": "0x5a6884d9dbe96298b188e235fc7b1c74ea62883176cdca1846c4102bd5b34fac",
                        "prev": "0x0000000000000000000000000000000000000000000000000000000000000000"
                    }
                ],
                "storageVariables": [
                    {
                        "name": "_balances",
                        "type": "mapping(address => uint256)",
                        "value": {
                            "pairs": [
                                {
                                    "key": "0x63a151d042dc870fb1b3f0c72cbbdd53a85898f6",
                                    "value": {
                                        "current": "103238337688110033",
                                        "prev": "105201508259635488",
                                        "typeTag": 1
                                    }
                                },
                                {
                                    "key": "0xa4f19a86992063302016b7b437e720b27f8d97b5",
                                    "value": {
                                        "current": "1963170571525455",
                                        "prev": "0",
                                        "typeTag": 1
                                    }
                                }
                            ],
                            "typeTag": 4
                        }
                    },
                    {
                        "name": "_buyCount",
                        "type": "uint256",
                        "value": {
                            "current": "304",
                            "prev": "303",
                            "typeTag": 1
                        }
                    }
                ]
            },
            {
                "address": "0xc02aaa39b223fe8d0a0e5c4f27ead9083c756cc2",
                "erc": "ERC-20",
                "slots": [
                    {
                        "current": "0x0000000000000000000000000000000000000000000000006eab74818f96c96d",
                        "key": "0xfae3a383c82daf853bbd8bbcd21280410599b135c274c01354ea7d3a5e09f43c",
                        "prev": "0x0000000000000000000000000000000000000000000000006c993307397893ef"
                    }
                ],
                "storageVariables": [
                    {
                        "name": "balanceOf",
                        "type": "mapping(address => uint256)",
                        "value": {
                            "pairs": [
                                {
                                    "key": "0x63a151d042dc870fb1b3f0c72cbbdd53a85898f6",
                                    "value": {
                                        "current": "7974595664998222189",
                                        "prev": "7825341933654938607",
                                        "typeTag": 1
                                    }
                                }
                            ],
                            "typeTag": 4
                        }
                    }
                ]
            }
        ]
    }
}