{
    "balance_change": {
        "balanceChanges": [
            {
                "account": "0xafe0e7de1ff45bc31618b39dfe42dd9439eebb32",
                "assets": [
                    {
                        "address": "0xc02aaa39b223fe8d0a0e5c4f27ead9083c756cc2",
                        "amount": "0.72120319298547962",
                        "iconUrl": "https://assets.blocksec.com/icon/f1cb2d02c471d545bbc7722daf3277fd852d98e63d118771af7047bd8256c516.png",
                        "isERC1155": false,
                        "isERC721": false,
                        "sign": false,
                        "value": "269.232364"
                    },
                    {
                        "address": "0x2688213fedd489762a281a67ae4f2295d8e17ecc",
                        "amount": "4.88499698413488398",
                        "iconUrl": "",
                        "isERC1155": false,
                        "isERC721": false,
                        "sign": true,
                        "value": "266.2680073"
                    }
                ]
            },
            {
                "account": "0xb78985dedea2c4ff759fc53d5ce4d6d868f4d953",
                "assets": [
                    {
                        "address": "0xc02aaa39b223fe8d0a0e5c4f27ead9083c756cc2",
                        "amount": "0.72120319298547962",
                        "iconUrl": "https://assets.blocksec.com/icon/f1cb2d02c471d545bbc7722daf3277fd852d98e63d118771af7047bd8256c516.png",
                        "isERC1155": false,
                        "isERC721": false,
                        "sign": true,
                        "value": "269.232364"
                    },
                    {
                        "address": "0x2688213fedd489762a281a67ae4f2295d8e17ecc",
                        "amount": "4.88499698413488398",
                        "iconUrl": "",
                        "isERC1155": false,
                        "isERC721": false,
                        "sign": false,
                        "value": "266.2680073"
                    }
                ]
            }
        ]
    },
    "profile": {
        "basic_info": {
            "baseFee": "",
            "blockNumber": 11037126,
            "callData": "0x7b0b42662e8ff2f1a36b9c7fed54ecce6262cf620bec5150b2f53d2ee289cc286af136b793471f0a67a656e8f4122113afc31b02420dd8259193779ddd8b6d63dbcdb9a25b7ad88655fec7d69db436d9a34f29152bd518424f48f6e2264035403082fbbe",
            "debugEnable": true,
            "errorInfo": "",
            "eventCount": 4,
            "feeRecipient": "0x5a0b54d5dc17e0aadc383d2db43b0a0d3e029c4c",
            "formatValue": "0",
            "gasLimit": 300000,
            "gasPrice": "100.000000001",
            "gasUsed": 104828,
            "intTxnCount": 7,
            "internalRevert": false,
            "internalRevertMessage": "",
            "isContractCreation": false,
            "isFlashloan": false,
            "maxFee": "",
            "nonce": 1400,
            "overwritedBlockNumber": -1,
            "priorityFee": "",
            "receiver": "0xafe0e7de1ff45bc31618b39dfe42dd9439eebb32",
            "revertMessage": "",
            "sender": "0x978770f230afa5b25250649ce9cb76e26a08ccec",
            "simulationEnable": true,
            "sourceTxnHash": "0xcf0c580ce54b0b4fe10030c115e7ce94b3079520f585575ba12b8f6baedadfbe",
            "status": true,
            "timestamp": "2020-10-11T22:56:52Z",
            "transactionFee": "0.010482800000104828",
            "txnHash": "0xcf0c580ce54b0b4fe10030c115e7ce94b3079520f585575ba12b8f6baedadfbe",
            "txnIndex": 2,
            "type": 0,
            "value": "0"
        },
        "fund_flow": [
            {
                "amount": "0.72120319298547962",
                "from": "0xafe0e7de1ff45bc31618b39dfe42dd9439eebb32",
                "id": 1,
                "isERC1155": false,
                "isERC721": false,
                "isReverted": false,
                "order": 1,
                "to": "0xb78985dedea2c4ff759fc53d5ce4d6d868f4d953",
                "token": "0xc02aaa39b223fe8d0a0e5c4f27ead9083c756cc2"
            },
            {
                "amount": "4.88499698413488398",
                "from": "0xb78985dedea2c4ff759fc53d5ce4d6d868f4d953",
                "id": 2,
                "isERC1155": false,
                "isERC721": false,
                "isReverted": false,
                "order": 2,
                "to": "0xafe0e7de1ff45bc31618b39dfe42dd9439eebb32",
                "token": "0x2688213fedd489762a281a67ae4f2295d8e17ecc"
            }
        ],
        "token_infos": [
            {
                "address": "0x2688213fedd489762a281a67ae4f2295d8e17ecc",
                "decimals": 18
            },
            {
                "address": "0xc02aaa39b223fe8d0a0e5c4f27ead9083c756cc2",
                "decimals": 18
            },
            {
                "address": "0xeeeeeeeeeeeeeeeeeeeeeeeeeeeeeeeeeeeeeeee",
                "decimals": 18
            }
        ]
    },
    "address_label": {
        "labels": [
            {
                "address": "0xc02aaa39b223fe8d0a0e5c4f27ead9083c756cc2",
                "label": "Wrapped Ether (WETH)"
            },
            {
                "address": "0x0000000000000000000000000000000000000001",
                "label": "Precompiled"
            },
            {
                "address": "0x0000000000000000000000000000000000000002",
                "label": "Precompiled"
            },
            {
                "address": "0x0000000000000000000000000000000000000003",
                "label": "Precompiled"
            },
            {
                "address": "0x0000000000000000000000000000000000000004",
                "label": "Precompiled"
            },
            {
                "address": "0xeeeeeeeeeeeeeeeeeeeeeeeeeeeeeeeeeeeeeeee",
                "label": "Ether"
            },
            {
                "address": "0x2688213fedd489762a281a67ae4f2295d8e17ecc",
                "label": "Fud.Finance: FUD Token"
            },
            {
                "address": "0xb78985dedea2c4ff759fc53d5ce4d6d868f4d953",
                "label": "Uniswap V2: FUD 2"
            }
        ]
    },
    "trace": {
        "accountLabels": null,
        "dataMap": {
            "-1": {
                "invocation": {
                    "address": "0x978770f230afa5b25250649ce9cb76e26a08ccec",
                    "callData": "",
                    "decodedMethod": null,
                    "errorInfo": "",
                    "fromAddress": "",
                    "gasUsed": 0,
                    "id": -1,
                    "methodDecoded": false,
                    "operation": "",
                    "output": "",
                    "revert": false,
                    "revertMessage": "",
                    "selector": "",
                    "status": false,
                    "value": ""
                },
                "nodeType": 0
            },
            "0": {
                "invocation": {
                    "address": "0xafe0e7de1ff45bc31618b39dfe42dd9439eebb32",
                    "callData": "0x2e8ff2f1a36b9c7fed54ecce6262cf620bec5150b2f53d2ee289cc286af136b793471f0a67a656e8f4122113afc31b02420dd8259193779ddd8b6d63dbcdb9a25b7ad88655fec7d69db436d9a34f29152bd518424f48f6e2264035403082fbbe",
                    "decodedMethod": null,
                    "errorInfo": "",
                    "fromAddress": "0x978770f230afa5b25250649ce9cb76e26a08ccec",
                    "gasUsed": 104828,
                    "id": 0,
                    "methodDecoded": false,
                    "operation": "CALL",
                    "output": "",
                    "revert": false,
                    "revertMessage": "",
                    "selector": "0x7b0b4266",
                    "status": true,
                    "value": "0"
                },
                "nodeType": 0
            },
            "1": {
                "invocation": {
                    "address": "0xb78985dedea2c4ff759fc53d5ce4d6d868f4d953",
                    "callData": "0x",
                    "decodedMethod": {
                        "callParams": [],
                        "constructorArguments": "",
                        "name": "getReserves",
                        "returnParams": [
                            {
                                "name": "_reserve0",
                                "type": "uint112",
                                "value": "1,927,011,998,445,334,458,631"
                            },
                            {
                                "name": "_reserve1",
                                "type": "uint112",
                                "value": "282,924,514,155,018,059,964"
                            },
                            {
                                "name": "_blockTimestampLast",
                                "type": "uint32",
                                "value": "1,602,456,962"
                            }
                        ],
                        "signature": "getReserves()"
                    },
                    "errorInfo": "",
                    "fromAddress": "0xafe0e7de1ff45bc31618b39dfe42dd9439eebb32",
                    "gasUsed": 1204,
                    "id": 1,
                    "methodDecoded": true,
                    "operation": "STATICCALL",
                    "output": "0x00000000000000000000000000000000000000000000006876a9e2d6c1c0710700000000000000000000000000000000000000000000000f565dcaa02bd400bc000000000000000000000000000000000000000000000000000000005f838d82",
                    "revert": false,
                    "revertMessage": "",
                    "selector": "0x0902f1ac",
                    "status": true,
                    "value": "0"
                },
                "nodeType": 0
            },
            "10": {
                "event": {
                    "contract": "0xb78985dedea2c4ff759fc53d5ce4d6d868f4d953",
                    "decodedLog": {
                        "name": "Sync",
                        "params": [
                            {
                                "name": "reserve0",
                                "type": "uint112",
                                "value": "1,922,127,001,461,199,574,651"
                            },
                            {
                                "name": "reserve1",
                                "type": "uint112",
                                "value": "283,645,717,348,003,539,584"
                            }
                        ],
                        "signature": "Sync(uint112,uint112)"
                    },
                    "id": 10,
                    "logData": "0x00000000000000000000000000000000000000000000006832dee3f6b189967b00000000000000000000000000000000000000000000000f6060051bcc9aea80",
                    "logDecoded": true,
                    "operation": "EVENT",
                    "revert": false,
                    "status": true,
                    "topics": [
                        "0x1c411e9a96e071241c2f21f7726b17ae89e3cab4c78be50e062b03a9fffbbad1"
                    ]
                },
                "nodeType": 1
            },
            "11": {
                "event": {
                    "contract": "0xb78985dedea2c4ff759fc53d5ce4d6d868f4d953",
                    "decodedLog": {
                        "name": "Swap",
                        "params": [
                            {
                                "name": "sender",
                                "type": "address",
                                "value": "0xafe0e7de1ff45bc31618b39dfe42dd9439eebb32"
                            },
                            {
                                "name": "to",
                                "type": "address",
                                "value": "0xafe0e7de1ff45bc31618b39dfe42dd9439eebb32"
                            },
                            {
                                "name": "amount0In",
                                "type": "uint256",
                                "value": "0"
                            },
                            {
                                "name": "amount1In",
                                "type": "uint256",
                                "value": "721,203,192,985,479,620"
                            },
                            {
                                "name": "amount0Out",
                                "type": "uint256",
                                "value": "4,884,996,984,134,883,980"
                            },
                            {
                                "name": "amount1Out",
                                "type": "uint256",
                                "value": "0"
                            }
                        ],
                        "signature": "Swap(address,uint256,uint256,uint256,uint256,address)"
                    },
                    "id": 11,
                    "logData": "0x00000000000000000000000000000000000000000000000000000000000000000000000000000000000000000000000000000000000000000a023a7ba0c6e9c400000000000000000000000000000000000000000000000043cafee01036da8c0000000000000000000000000000000000000000000000000000000000000000",
                    "logDecoded": true,
                    "operation": "EVENT",
                    "revert": false,
                    "status": true,
                    "topics": [
                        "0xd78ad95fa46c994b6551d0da85fc275fe613ce37657fb8d5e3d130840159d822",
                        "0x000000000000000000000000afe0e7de1ff45bc31618b39dfe42dd9439eebb32",
                        "0x000000000000000000000000afe0e7de1ff45bc31618b39dfe42dd9439eebb32"
                    ]
                },
                "nodeType": 1
            },
            "2": {
                "invocation": {
                    "address": "0xb78985dedea2c4ff759fc53d5ce4d6d868f4d953",
                    "callData": "0x",
                    "decodedMethod": {
                        "callParams": [],
                        "constructorArguments": "",
                        "name": "token0",
                        "returnParams": [
                            {
                                "name": "",
                                "type": "address",
                                "value": "0x2688213fedd489762a281a67ae4f2295d8e17ecc"
                            }
                        ],
                        "signature": "token0()"
                    },
                    "errorInfo": "",
                    "fromAddress": "0xafe0e7de1ff45bc31618b39dfe42dd9439eebb32",
                    "gasUsed": 1081,
                    "id": 2,
                    "methodDecoded": true,
                    "operation": "STATICCALL",
                    "output": "0x0000000000000000000000002688213fedd489762a281a67ae4f2295d8e17ecc",
                    "revert": false,
                    "revertMessage": "",
                    "selector": "0x0dfe1681",
                    "status": true,
                    "value": "0"
                },
                "nodeType": 0
            },
            "3": {
                "invocation": {
                    "address": "0xc02aaa39b223fe8d0a0e5c4f27ead9083c756cc2",
                    "callData": "0x000000000000000000000000b78985dedea2c4ff759fc53d5ce4d6d868f4d9530000000000000000000000000000000000000000000000000a023a7ba0c6e9c4",
                    "decodedMethod": {
                        "callParams": [
                            {
                                "name": "dst",
                                "type": "address",
                                "value": "0xb78985dedea2c4ff759fc53d5ce4d6d868f4d953"
                            },
                            {
                                "decimalAvailable": true,
                                "name": "wad",
                                "type": "uint256",
                                "value": "721,203,192,985,479,620"
                            }
                        ],
                        "constructorArguments": "",
                        "name": "transfer",
                        "returnParams": [
                            {
                                "name": "",
                                "type": "bool",
                                "value": true
                            }
                        ],
                        "signature": "transfer(address,uint256)"
                    },
                    "errorInfo": "",
                    "fromAddress": "0xafe0e7de1ff45bc31618b39dfe42dd9439eebb32",
                    "gasUsed": 15162,
                    "id": 3,
                    "methodDecoded": true,
                    "operation": "CALL",
                    "output": "0x0000000000000000000000000000000000000000000000000000000000000001",
                    "revert": false,
                    "revertMessage": "",
                    "selector": "0xa9059cbb",
                    "status": true,
                    "value": "0"
                },
                "nodeType": 0
            },
            "4": {
                "event": {
                    "contract": "0xc02aaa39b223fe8d0a0e5c4f27ead9083c756cc2",
                    "decodedLog": {
                        "name": "Transfer",
                        "params": [
                            {
                                "name": "src",
                                "type": "address",
                                "value": "0xafe0e7de1ff45bc31618b39dfe42dd9439eebb32"
                            },
                            {
                                "name": "dst",
                                "type": "address",
                                "value": "0xb78985dedea2c4ff759fc53d5ce4d6d868f4d953"
                            },
                            {
                                "decimalAvailable": true,
                                "name": "wad",
                                "type": "uint256",
                                "value": "721,203,192,985,479,620"
                            }
                        ],
                        "signature": "Transfer(address,address,uint256)"
                    },
                    "id": 4,
                    "logData": "0x0000000000000000000000000000000000000000000000000a023a7ba0c6e9c4",
                    "logDecoded": true,
                    "operation": "EVENT",
                    "revert": false,
                    "status": true,
                    "topics": [
                        "0xddf252ad1be2c89b69c2b068fc378daa952ba7f163c4a11628f55a4df523b3ef",
                        "0x000000000000000000000000afe0e7de1ff45bc31618b39dfe42dd9439eebb32",
                        "0x000000000000000000000000b78985dedea2c4ff759fc53d5ce4d6d868f4d953"
                    ]
                },
                "nodeType": 1
            },
            "5": {
                "invocation": {
                    "address": "0xb78985dedea2c4ff759fc53d5ce4d6d868f4d953",
                    "callData": "0x00000000000000000000000000000000000000000000000043cafee01036da8c0000000000000000000000000000000000000000000000000000000000000000000000000000000000000000afe0e7de1ff45bc31618b39dfe42dd9439eebb32000000000000000000000000000000000000000000000000000000000000008000000000000000000000000000000000000000000000000000000000000000000000000000000000000000000000000000000000000000000000000000000000",
                    "decodedMethod": {
                        "callParams": [
                            {
                                "name": "amount0Out",
                                "type": "uint256",
                                "value": "4,884,996,984,134,883,980"
                            },
                            {
                                "name": "amount1Out",
                                "type": "uint256",
                                "value": "0"
                            },
                            {
                                "name": "to",
                                "type": "address",
                                "value": "0xafe0e7de1ff45bc31618b39dfe42dd9439eebb32"
                            },
                            {
                                "name": "data",
                                "type": "bytes",
                                "value": "0x"
                            }
                        ],
                        "constructorArguments": "",
                        "name": "swap",
                        "returnParams": [],
                        "signature": "swap(uint256,uint256,address,bytes)"
                    },
                    "errorInfo": "",
                    "fromAddress": "0xafe0e7de1ff45bc31618b39dfe42dd9439eebb32",
                    "gasUsed": 59907,
                    "id": 5,
                    "methodDecoded": true,
                    "operation": "CALL",
                    "output": "",
                    "revert": false,
                    "revertMessage": "",
                    "selector": "0x022c0d9f",
                    "status": true,
                    "value": "0"
                },
                "nodeType": 0
            },
            "6": {
                "invocation": {
                    "address": "0x2688213fedd489762a281a67ae4f2295d8e17ecc",
                    "callData": "0x000000000000000000000000afe0e7de1ff45bc31618b39dfe42dd9439eebb3200000000000000000000000000000000000000000000000043cafee01036da8c",
                    "decodedMethod": {
                        "callParams": [
                            {
                                "name": "_to",
                                "type": "address",
                                "value": "0xafe0e7de1ff45bc31618b39dfe42dd9439eebb32"
                            },
                            {
                                "decimalAvailable": true,
                                "name": "_value",
                                "type": "uint256",
                                "value": "4,884,996,984,134,883,980"
                            }
                        ],
                        "constructorArguments": "",
                        "name": "transfer",
                        "returnParams": [
                            {
                                "name": "_success",
                                "type": "bool",
                                "value": true
                            }
                        ],
                        "signature": "transfer(address,uint256)"
                    },
                    "errorInfo": "",
                    "fromAddress": "0xb78985dedea2c4ff759fc53d5ce4d6d868f4d953",
                    "gasUsed": 16948,
                    "id": 6,
                    "methodDecoded": true,
                    "operation": "CALL",
                    "output": "0x0000000000000000000000000000000000000000000000000000000000000001",
                    "revert": false,
                    "revertMessage": "",
                    "selector": "0xa9059cbb",
                    "status": true,
                    "value": "0"
                },
                "nodeType": 0
            },
            "7": {
                "event": {
                    "contract": "0x2688213fedd489762a281a67ae4f2295d8e17ecc",
                    "decodedLog": {
                        "name": "Transfer",
                        "params": [
                            {
                                "name": "from",
                                "type": "address",
                                "value": "0xb78985dedea2c4ff759fc53d5ce4d6d868f4d953"
                            },
                            {
                                "name": "to",
                                "type": "address",
                                "value": "0xafe0e7de1ff45bc31618b39dfe42dd9439eebb32"
                            },
                            {
                                "decimalAvailable": true,
                                "name": "value",
                                "type": "uint256",
                                "value": "4,884,996,984,134,883,980"
                            }
                        ],
                        "signature": "Transfer(address,address,uint256)"
                    },
                    "id": 7,
                    "logData": "0x00000000000000000000000000000000000000000000000043cafee01036da8c",
                    "logDecoded": true,
                    "operation": "EVENT",
                    "revert": false,
                    "status": true,
                    "topics": [
                        "0xddf252ad1be2c89b69c2b068fc378daa952ba7f163c4a11628f55a4df523b3ef",
                        "0x000000000000000000000000b78985dedea2c4ff759fc53d5ce4d6d868f4d953",
                        "0x000000000000000000000000afe0e7de1ff45bc31618b39dfe42dd9439eebb32"
                    ]
                },
                "nodeType": 1
            },
            "8": {
                "invocation": {
                    "address": "0x2688213fedd489762a281a67ae4f2295d8e17ecc",
                    "callData": "0x000000000000000000000000b78985dedea2c4ff759fc53d5ce4d6d868f4d953",
                    "decodedMethod": {
                        "callParams": [
                            {
                                "name": "_owner",
                                "type": "address",
                                "value": "0xb78985dedea2c4ff759fc53d5ce4d6d868f4d953"
                            }
                        ],
                        "constructorArguments": "",
                        "name": "balanceOf",
                        "returnParams": [
                            {
                                "decimalAvailable": true,
                                "name": "balance",
                                "type": "uint256",
                                "value": "1,922,127,001,461,199,574,651"
                            }
                        ],
                        "signature": "balanceOf(address)"
                    },
                    "errorInfo": "",
                    "fromAddress": "0xb78985dedea2c4ff759fc53d5ce4d6d868f4d953",
                    "gasUsed": 2702,
                    "id": 8,
                    "methodDecoded": true,
                    "operation": "STATICCALL",
                    "output": "0x00000000000000000000000000000000000000000000006832dee3f6b189967b",
                    "revert": false,
                    "revertMessage": "",
                    "selector": "0x70a08231",
                    "status": true,
                    "value": "0"
                },
                "nodeType": 0
            },
            "9": {
                "invocation": {
                    "address": "0xc02aaa39b223fe8d0a0e5c4f27ead9083c756cc2",
                    "callData": "0x000000000000000000000000b78985dedea2c4ff759fc53d5ce4d6d868f4d953",
                    "decodedMethod": {
                        "callParams": [
                            {
                                "name": "",
                                "type": "address",
                                "value": "0xb78985dedea2c4ff759fc53d5ce4d6d868f4d953"
                            }
                        ],
                        "constructorArguments": "",
                        "name": "balanceOf",
                        "returnParams": [
                            {
                                "decimalAvailable": true,
                                "name": "",
                                "type": "uint256",
                                "value": "283,645,717,348,003,539,584"
                            }
                        ],
                        "signature": "balanceOf(address)"
                    },
                    "errorInfo": "",
                    "fromAddress": "0xb78985dedea2c4ff759fc53d5ce4d6d868f4d953",
                    "gasUsed": 1234,
                    "id": 9,
                    "methodDecoded": true,
                    "operation": "STATICCALL",
                    "output": "0x00000000000000000000000000000000000000000000000f6060051bcc9aea80",
                    "revert": false,
                    "revertMessage": "",
                    "selector": "0x70a08231",
                    "status": true,
                    "value": "0"
                },
                "nodeType": 0
            }
        },
        "gasFlame": [
            {
                "children": [
                    {
                        "children": [
                            {
                                "children": [],
                                "depth": 0,
                                "name": "Initial Gas",
                                "value": 22600
                            },
                            {
                                "children": [
                                    {
                                        "children": [],
                                        "depth": 1,
                                        "name": "getReserves",
                                        "value": 1204
                                    },
                                    {
                                        "children": [],
                                        "depth": 1,
                                        "name": "token0",
                                        "value": 1081
                                    },
                                    {
                                        "children": [],
                                        "depth": 1,
                                        "name": "transfer",
                                        "value": 15162
                                    },
                                    {
                                        "children": [
                                            {
                                                "children": [],
                                                "depth": 2,
                                                "name": "transfer",
                                                "value": 16948
                                            },
                                            {
                                                "children": [],
                                                "depth": 2,
                                                "name": "balanceOf",
                                                "value": 2702
                                            },
                                            {
                                                "children": [],
                                                "depth": 2,
                                                "name": "balanceOf",
                                                "value": 1234
                                            }
                                        ],
                                        "depth": 1,
                                        "name": "swap",
                                        "value": 59907
                                    }
                                ],
                                "depth": 0,
                                "name": "Executed Gas",
                                "value": 86428
                            }
                        ],
                        "depth": -1,
                        "name": "Actual Gas Used",
                        "value": 104828
                    },
                    {
                        "children": [],
                        "depth": -1,
                        "name": "Refunded Gas",
                        "value": 4200
                    }
                ],
                "depth": -2,
                "name": "Total Gas",
                "value": 109028
            }
        ],
        "isConfirmed": true,
        "mainTrace": [
            {
                "children": [
                    {
                        "children": [
                            {
                                "children": [],
                                "depth": 1,
                                "id": 1,
                                "order": 1
                            },
                            {
                                "children": [],
                                "depth": 1,
                                "id": 2,
                                "order": 2
                            },
                            {
                                "children": [
                                    {
                                        "children": [],
                                        "depth": 2,
                                        "id": 4,
                                        "order": 4
                                    }
                                ],
                                "depth": 1,
                                "id": 3,
                                "order": 3
                            },
                            {
                                "children": [
                                    {
                                        "children": [
                                            {
                                                "children": [],
                                                "depth": 3,
                                                "id": 7,
                                                "order": 7
                                            }
                                        ],
                                        "depth": 2,
                                        "id": 6,
                                        "order": 6
                                    },
                                    {
                                        "children": [],
                                        "depth": 2,
                                        "id": 8,
                                        "order": 8
                                    },
                                    {
                                        "children": [],
                                        "depth": 2,
                                        "id": 9,
                                        "order": 9
                                    },
                                    {
                                        "children": [],
                                        "depth": 2,
                                        "id": 10,
                                        "order": 10
                                    },
                                    {
                                        "children": [],
                                        "depth": 2,
                                        "id": 11,
                                        "order": 11
                                    }
                                ],
                                "depth": 1,
                                "id": 5,
                                "order": 5
                            }
                        ],
                        "depth": 0,
                        "id": 0,
                        "order": 0
                    }
                ],
                "depth": -1,
                "id": -1,
                "order": -1
            }
        ],
        "mainTraceNodeCount": 12,
        "parentIdMap": {
            "0": -1,
            "1": 0,
            "10": 5,
            "11": 5,
            "2": 0,
            "3": 0,
            "4": 3,
            "5": 0,
            "6": 5,
            "7": 6,
            "8": 5,
            "9": 5
        },
        "tidyTrace": [
            {
                "children": [
                    {
                        "children": [
                            {
                                "children": [
                                    {
                                        "children": [],
                                        "depth": 2,
                                        "id": 4,
                                        "order": 4
                                    }
                                ],
                                "depth": 1,
                                "id": 3,
                                "order": 3
                            },
                            {
                                "children": [
                                    {
                                        "children": [
                                            {
                                                "children": [],
                                                "depth": 3,
                                                "id": 7,
                                                "order": 7
                                            }
                                        ],
                                        "depth": 2,
                                        "id": 6,
                                        "order": 6
                                    },
                                    {
                                        "children": [],
                                        "depth": 2,
                                        "id": 10,
                                        "order": 10
                                    },
                                    {
                                        "children": [],
                                        "depth": 2,
                                        "id": 11,
                                        "order": 11
                                    }
                                ],
                                "depth": 1,
                                "id": 5,
                                "order": 5
                            }
                        ],
                        "depth": 0,
                        "id": 0,
                        "order": 0
                    }
                ],
                "depth": -1,
                "id": -1,
                "order": -1
            }
        ],
        "tidyTraceNodeCount": 8
    },
    "state_change": {
        "stateChanges": [
            {
                "address": "0x2688213fedd489762a281a67ae4f2295d8e17ecc",
                "erc": "ERC-20",
                "slots": [
                    {
                        "current": "0x00000000000000000000000000000000000000000000000043cafee01036da8d",
                        "key": "0x3be9267dd8fba3f671bddb972ed5226c5be5289e7296461bdc992afdde89cbc6",
                        "prev": "0x0000000000000000000000000000000000000000000000000000000000000001"
                    },
                    {
                        "current": "0x00000000000000000000000000000000000000000000006832dee3f6b189967b",
                        "key": "0xd175eff27f0c486801c4974fe5c5da6b50d921428ee57081d360e46d39c15357",
                        "prev": "0x00000000000000000000000000000000000000000000006876a9e2d6c1c07107"
                    }
                ],
                "storageVariables": [
                    {
                        "name": "balances",
                        "type": "mapping(address => uint256)",
                        "value": {
                            "pairs": [
                                {
                                    "key": "0xafe0e7de1ff45bc31618b39dfe42dd9439eebb32",
                                    "value": {
                                        "current": "4884996984134883981",
                                        "prev": "1",
                                        "typeTag": 1
                                    }
                                },
                                {
                                    "key": "0xb78985dedea2c4ff759fc53d5ce4d6d868f4d953",
                                    "value": {
                                        "current": "1922127001461199574651",
                                        "prev": "1927011998445334458631",
                                        "typeTag": 1
                                    }
                                }
                            ],
                            "typeTag": 4
                        }
                    }
                ]
            },
            {
                "address": "0xb78985dedea2c4ff759fc53d5ce4d6d868f4d953",
                "erc": "ERC-20",
                "slots": [
                    {
                        "current": "0x000000000000000000000000000000023017ed8483b5a35047690b15a817347c",
                        "key": "0x0000000000000000000000000000000000000000000000000000000000000009",
                        "prev": "0x0000000000000000000000000000000230109637b2673260eb50d523b1f24670"
                    },
                    {
                        "current": "0x0000000000000000000000000000011158edf721271b612460ec4299a3526fcf",
                        "key": "0x000000000000000000000000000000000000000000000000000000000000000a",
                        "prev": "0x00000000000000000000000000000111579969bc40d23998c4ec7afa16aa0191"
                    },
                    {
                        "current": "0x5f838db400000000000f6060051bcc9aea8000000000006832dee3f6b189967b",
                        "key": "0x0000000000000000000000000000000000000000000000000000000000000008",
                        "prev": "0x5f838d8200000000000f565dcaa02bd400bc00000000006876a9e2d6c1c07107"
                    }
                ],
                "storageVariables": [
                    {
                        "name": "price0CumulativeLast",
                        "type": "uint256",
                        "value": {
                            "current": "744491917897254830276939534788313166972",
                            "prev": "744453801163492021117078191973589993072",
                            "typeTag": 1
                        }
                    },
                    {
                        "name": "price1CumulativeLast",
                        "type": "uint256",
                        "value": {
                            "current": "93015293819782550356518860141392330649551",
                            "prev": "93013525571036808158221823822142311629201",
                            "typeTag": 1
                        }
                    },
                    {
                        "name": "reserve0",
                        "type": "uint112",
                        "value": {
                            "current": "1922127001461199574651",
                            "prev": "1927011998445334458631",
                            "typeTag": 1
                        }
                    },
                    {
                        "name": "reserve1",
                        "type": "uint112",
                        "value": {
                            "current": "283645717348003539584",
                            "prev": "282924514155018059964",
                            "typeTag": 1
                        }
                    },
                    {
                        "name": "blockTimestampLast",
                        "type": "uint32",
                        "value": {
                            "current": "1602457012",
                            "prev": "1602456962",
                            "typeTag": 1
                        }
                    }
                ]
            },
            {
                "address": "0xc02aaa39b223fe8d0a0e5c4f27ead9083c756cc2",
                "erc": "ERC-20",
                "slots": [
                    {
                        "current": "0x000000000000000000000000000000000000000000000004b2d7f85af9dbde2a",
                        "key": "0x99b728fa0a9e54ccb9c8d248a56c3b7eaa69e902c8468a813d5b7bd9caa61c3c",
                        "prev": "0x000000000000000000000000000000000000000000000004bcda32d69aa2c7ee"
                    },
                    {
                        "current": "0x00000000000000000000000000000000000000000000000f6060051bcc9aea80",
                        "key": "0xcd0a31beb0548f1dda05e9378c2d7054462bb4183b7e10334fba53d8f2b0e7cd",
                        "prev": "0x00000000000000000000000000000000000000000000000f565dcaa02bd400bc"
                    }
                ],
                "storageVariables": [
                    {
                        "name": "balanceOf",
                        "type": "mapping(address => uint256)",
                        "value": {
                            "pairs": [
                                {
                                    "key": "0xafe0e7de1ff45bc31618b39dfe42dd9439eebb32",
                                    "value": {
                                        "current": "86674018223204851242",
                                        "prev": "87395221416190330862",
                                        "typeTag": 1
                                    }
                                },
                                {
                                    "key": "0xb78985dedea2c4ff759fc53d5ce4d6d868f4d953",
                                    "value": {
                                        "current": "283645717348003539584",
                                        "prev": "282924514155018059964",
                                        "typeTag": 1
                                    }
                                }
                            ],
                            "typeTag": 4
                        }
                    }
                ]
            }
        ]
    }
}