{
    "balance_change": {
        "balanceChanges": [
            {
                "account": "0xd5bbb58e8e7271365a41038c2df1d3efea0b2a71",
                "assets": [
                    {
                        "address": "0x891f460176f180836f53b729ffb27cfcc7d74d71",
                        "amount": "1,901.5",
                        "iconUrl": "",
                        "isERC1155": false,
                        "isERC721": false,
                        "sign": false,
                        "value": ""
                    }
                ]
            },
            {
                "account": "0xaa8f243b889035390840e56dfb155e03723605aa",
                "assets": [
                    {
                        "address": "0x891f460176f180836f53b729ffb27cfcc7d74d71",
                        "amount": "1,901.5",
                        "iconUrl": "",
                        "isERC1155": false,
                        "isERC721": false,
                        "sign": true,
                        "value": ""
                    }
                ]
            }
        ]
    },
    "profile": {
        "basic_info": {
            "baseFee": "",
            "blockNumber": 6688750,
            "callData": "0xa9059cbb000000000000000000000000aa8f243b889035390840e56dfb155e03723605aa000000000000000000000000000000000000000000000067149d0f6bd5460000",
            "debugEnable": true,
            "errorInfo": "",
            "eventCount": 1,
            "feeRecipient": "0x70aec4b9cffa7b55c0711b82dd719049d615e21d",
            "formatValue": "0",
            "gasLimit": 120000,
            "gasPrice": "50",
            "gasUsed": 51642,
            "intTxnCount": 0,
            "internalRevert": false,
            "internalRevertMessage": "",
            "isContractCreation": false,
            "isFlashloan": false,
            "maxFee": "",
            "nonce": 26835,
            "overwritedBlockNumber": -1,
            "priorityFee": "",
            "receiver": "0x891f460176f180836f53b729ffb27cfcc7d74d71",
            "revertMessage": "",
            "sender": "0xd5bbb58e8e7271365a41038c2df1d3efea0b2a71",
            "simulationEnable": true,
            "sourceTxnHash": "0xcf67da6c4be47e651e03617a9cd2c2317690e56b08845b94ac53c0a23ce9cf3e",
            "status": true,
            "timestamp": "2018-11-12T04:54:28Z",
            "transactionFee": "0.0025821",
            "txnHash": "0xcf67da6c4be47e651e03617a9cd2c2317690e56b08845b94ac53c0a23ce9cf3e",
            "txnIndex": 0,
            "type": 0,
            "value": "0"
        },
        "fund_flow": [
            {
                "amount": "1,901.5",
                "from": "0xd5bbb58e8e7271365a41038c2df1d3efea0b2a71",
                "id": 1,
                "isERC1155": false,
                "isERC721": false,
                "isReverted": false,
                "order": 1,
                "to": "0xaa8f243b889035390840e56dfb155e03723605aa",
                "token": "0x891f460176f180836f53b729ffb27cfcc7d74d71"
            }
        ],
        "token_infos": [
            {
                "address": "0x891f460176f180836f53b729ffb27cfcc7d74d71",
                "decimals": 18
            },
            {
                "address": "0xc02aaa39b223fe8d0a0e5c4f27ead9083c756cc2",
                "decimals": 18
            },
            {
                "address": "0xeeeeeeeeeeeeeeeeeeeeeeeeeeeeeeeeeeeeeeee",
                "decimals": 18
            }
        ]
    },
    "address_label": {
        "labels": [
            {
                "address": "0x0000000000000000000000000000000000000003",
                "label": "Precompiled"
            },
            {
                "address": "0x0000000000000000000000000000000000000004",
                "label": "Precompiled"
            },
            {
                "address": "0xeeeeeeeeeeeeeeeeeeeeeeeeeeeeeeeeeeeeeeee",
                "label": "Ether"
            },
            {
                "address": "0x891f460176f180836f53b729ffb27cfcc7d74d71",
                "label": "VRT CHAIN TOKEN (VRT)"
            },
            {
                "address": "0x0000000000000000000000000000000000000001",
                "label": "Precompiled"
            },
            {
                "address": "0x0000000000000000000000000000000000000002",
                "label": "Precompiled"
            }
        ]
    },
    "trace": {
        "accountLabels": null,
        "dataMap": {
            "-1": {
                "invocation": {
                    "address": "0xd5bbb58e8e7271365a41038c2df1d3efea0b2a71",
                    "callData": "",
                    "decodedMethod": null,
                    "errorInfo": "",
                    "fromAddress": "",
                    "gasUsed": 0,
                    "id": -1,
                    "methodDecoded": false,
                    "operation": "",
                    "output": "",
                    "revert": false,
                    "revertMessage": "",
                    "selector": "",
                    "status": false,
                    "value": ""
                },
                "nodeType": 0
            },
            "0": {
                "invocation": {
                    "address": "0x891f460176f180836f53b729ffb27cfcc7d74d71",
                    "callData": "0x000000000000000000000000aa8f243b889035390840e56dfb155e03723605aa000000000000000000000000000000000000000000000067149d0f6bd5460000",
                    "decodedMethod": {
                        "callParams": [
                            {
                                "name": "_to",
                                "type": "address",
                                "value": "0xaa8f243b889035390840e56dfb155e03723605aa"
                            },
                            {
                                "decimalAvailable": true,
                                "name": "_value",
                                "type": "uint256",
                                "value": "1,901,500,000,000,000,000,000"
                            }
                        ],
                        "constructorArguments": "",
                        "name": "transfer",
                        "returnParams": [
                            {
                                "name": "success",
                                "type": "bool",
                                "value": true
                            }
                        ],
                        "signature": "transfer(address,uint256)"
                    },
                    "errorInfo": "",
                    "fromAddress": "0xd5bbb58e8e7271365a41038c2df1d3efea0b2a71",
                    "gasUsed": 51642,
                    "id": 0,
                    "methodDecoded": true,
                    "operation": "CALL",
                    "output": "0x0000000000000000000000000000000000000000000000000000000000000001",
                    "revert": false,
                    "revertMessage": "",
                    "selector": "0xa9059cbb",
                    "status": true,
                    "value": "0"
                },
                "nodeType": 0
            },
            "1": {
                "event": {
                    "contract": "0x891f460176f180836f53b729ffb27cfcc7d74d71",
                    "decodedLog": {
                        "name": "Transfer",
                        "params": [
                            {
                                "name": "_from",
                                "type": "address",
                                "value": "0xd5bbb58e8e7271365a41038c2df1d3efea0b2a71"
                            },
                            {
                                "name": "_to",
                                "type": "address",
                                "value": "0xaa8f243b889035390840e56dfb155e03723605aa"
                            },
                            {
                                "decimalAvailable": true,
                                "name": "_value",
                                "type": "uint256",
                                "value": "1,901,500,000,000,000,000,000"
                            }
                        ],
                        "signature": "Transfer(address,address,uint256)"
                    },
                    "id": 1,
                    "logData": "0x000000000000000000000000000000000000000000000067149d0f6bd5460000",
                    "logDecoded": true,
                    "operation": "EVENT",
                    "revert": false,
                    "status": true,
                    "topics": [
                        "0xddf252ad1be2c89b69c2b068fc378daa952ba7f163c4a11628f55a4df523b3ef",
                        "0x000000000000000000000000d5bbb58e8e7271365a41038c2df1d3efea0b2a71",
                        "0x000000000000000000000000aa8f243b889035390840e56dfb155e03723605aa"
                    ]
                },
                "nodeType": 1
            }
        },
        "gasFlame": [
            {
                "children": [
                    {
                        "children": [
                            {
                                "children": [],
                                "depth": 0,
                                "name": "Initial Gas",
                                "value": 23256
                            },
                            {
                                "children": [],
                                "depth": 0,
                                "name": "Executed Gas",
                                "value": 28386
                            }
                        ],
                        "depth": -1,
                        "name": "Actual Gas Used",
                        "value": 51642
                    },
                    {
                        "children": [],
                        "depth": -1,
                        "name": "Refunded Gas",
                        "value": 0
                    }
                ],
                "depth": -2,
                "name": "Total Gas",
                "value": 51642
            }
        ],
        "isConfirmed": true,
        "mainTrace": [
            {
                "children": [
                    {
                        "children": [
                            {
                                "children": [],
                                "depth": 1,
                                "id": 1,
                                "order": 1
                            }
                        ],
                        "depth": 0,
                        "id": 0,
                        "order": 0
                    }
                ],
                "depth": -1,
                "id": -1,
                "order": -1
            }
        ],
        "mainTraceNodeCount": 2,
        "parentIdMap": {
            "0": -1,
            "1": 0
        },
        "tidyTrace": [
            {
                "children": [
                    {
                        "children": [
                            {
                                "children": [],
                                "depth": 1,
                                "id": 1,
                                "order": 1
                            }
                        ],
                        "depth": 0,
                        "id": 0,
                        "order": 0
                    }
                ],
                "depth": -1,
                "id": -1,
                "order": -1
            }
        ],
        "tidyTraceNodeCount": 2
    },
    "state_change": {
        "stateChanges": [
            {
                "address": "0x891f460176f180836f53b729ffb27cfcc7d74d71",
                "erc": "ERC-20",
                "slots": [
                    {
                        "current": "0x0000000000000000000000000000000000000000001fe9634d054bb1d7ac8800",
                        "key": "0x72025ebc15f9465a882423eda771ee2b1a6c4a35e077fb06b136f3248c0e8f4c",
                        "prev": "0x0000000000000000000000000000000000000000001fe9ca61a25b1dacf28800"
                    },
                    {
                        "current": "0x000000000000000000000000000000000000000000000067149d0f6bd5460000",
                        "key": "0xc24b7825b79731c0fbece1fe7c0f4c30129f2834e41dc69e10e399386145fd74",
                        "prev": "0x0000000000000000000000000000000000000000000000000000000000000000"
                    }
                ],
                "storageVariables": [
                    {
                        "name": "balances",
                        "type": "mapping(address => uint256)",
                        "value": {
                            "pairs": [
                                {
                                    "key": "0xaa8f243b889035390840e56dfb155e03723605aa",
                                    "value": {
                                        "current": "1901500000000000000000",
                                        "prev": "0",
                                        "typeTag": 1
                                    }
                                },
                                {
                                    "key": "0xd5bbb58e8e7271365a41038c2df1d3efea0b2a71",
                                    "value": {
                                        "current": "38578843576150772000000000",
                                        "prev": "38580745076150772000000000",
                                        "typeTag": 1
                                    }
                                }
                            ],
                            "typeTag": 4
                        }
                    }
                ]
            }
        ]
    }
}