{
    "balance_change": {
        "balanceChanges": [
            {
                "account": "0xfe192ec5f16cee038e70afd28a42fb466d8e2569",
                "assets": [
                    {
                        "address": "0xeeeeeeeeeeeeeeeeeeeeeeeeeeeeeeeeeeeeeeee",
                        "amount": "0.16",
                        "iconUrl": "https://assets.blocksec.com/image/1663669189317-3.png",
                        "isERC1155": false,
                        "isERC721": false,
                        "sign": false,
                        "value": "261.79982528000000455"
                    },
                    {
                        "address": "0xc36cf0cfcb5d905b8b513860db0cfe63f6cf9f5c",
                        "amount": "1",
                        "iconUrl": "",
                        "isERC1155": true,
                        "isERC721": false,
                        "sign": true,
                        "tokenID": "120119675523091277602571236423414178643968",
                        "value": ""
                    }
                ]
            },
            {
                "account": "0x0000a26b00c1f0df003000390027140000faa719",
                "assets": [
                    {
                        "address": "0xeeeeeeeeeeeeeeeeeeeeeeeeeeeeeeeeeeeeeeee",
                        "amount": "0.004",
                        "iconUrl": "https://assets.blocksec.com/image/1663669189317-3.png",
                        "isERC1155": false,
                        "isERC721": false,
                        "sign": true,
                        "value": "6.544995632000000114"
                    }
                ]
            },
            {
                "account": "0x0e4708e33a335a62d51075941285a952d6b8f395",
                "assets": [
                    {
                        "address": "0xeeeeeeeeeeeeeeeeeeeeeeeeeeeeeeeeeeeeeeee",
                        "amount": "0.008",
                        "iconUrl": "https://assets.blocksec.com/image/1663669189317-3.png",
                        "isERC1155": false,
                        "isERC721": false,
                        "sign": true,
                        "value": "13.089991264000000228"
                    }
                ]
            },
            {
                "account": "0x6ba81c76045bc0de4112fcf0e24940d3e293466c",
                "assets": [
                    {
                        "address": "0xc36cf0cfcb5d905b8b513860db0cfe63f6cf9f5c",
                        "amount": "1",
                        "iconUrl": "",
                        "isERC1155": true,
                        "isERC721": false,
                        "sign": false,
                        "tokenID": "120119675523091277602571236423414178643968",
                        "value": ""
                    },
                    {
                        "address": "0xeeeeeeeeeeeeeeeeeeeeeeeeeeeeeeeeeeeeeeee",
                        "amount": "0.148",
                        "iconUrl": "https://assets.blocksec.com/image/1663669189317-3.png",
                        "isERC1155": false,
                        "isERC721": false,
                        "sign": true,
                        "value": "242.16483838400000424"
                    }
                ]
            }
        ]
    },
    "profile": {
        "basic_info": {
            "baseFee": "4.180555496",
            "blockNumber": 15517446,
            "callData": "0xfb0f3ee1000000000000000000000000000000000000000000000000000000000000002000000000000000000000000000000000000000000000000000000000000000000000000000000000000000000000000000000000000000000000000000000000000000000000000000000000000000000000000000000000020dcd3742c200000000000000000000000000006ba81c76045bc0de4112fcf0e24940d3e293466c000000000000000000000000004c00500000ad104d7dbd00e3ae0a5c00560c00000000000000000000000000c36cf0cfcb5d905b8b513860db0cfe63f6cf9f5c000000000000000000000000000001610000000000000000000000000000000000000000000000000000000000000000000000000000000000000000000000010000000000000000000000000000000000000000000000000000000000000007000000000000000000000000000000000000000000000000000000006314b41700000000000000000000000000000000000000000000000000000000633c4117000000000000000000000000000000000000000000000000000000000000000000000000000000000000000000000000000000000000000000863c73854a7d7b0000007b02230091a7ed01230072f7006a004d60a8d4e71d599b8104250f00000000007b02230091a7ed01230072f7006a004d60a8d4e71d599b8104250f00000000000000000000000000000000000000000000000000000000000000000002000000000000000000000000000000000000000000000000000000000000024000000000000000000000000000000000000000000000000000000000000002e00000000000000000000000000000000000000000000000000000000000000002000000000000000000000000000000000000000000000000000e35fa931a00000000000000000000000000000000a26b00c1f0df003000390027140000faa719000000000000000000000000000000000000000000000000001c6bf5263400000000000000000000000000000e4708e33a335a62d51075941285a952d6b8f3950000000000000000000000000000000000000000000000000000000000000041a4103edbec04535f0edf1db8f1ba17afda0a7df64bb8eb15baf1dc35135766b56161c4a54b5b53f206b8ae9a37dc6be15a91c5a69d24224b49c6e3a738dbc3db1b00000000000000000000000000000000000000000000000000000000000000",
            "debugEnable": true,
            "errorInfo": "",
            "eventCount": 2,
            "feeRecipient": "0x28846f1ec065eea239152213373bb58b1c9fc93b",
            "formatValue": "0.16",
            "gasLimit": 133671,
            "gasPrice": "5.680555496",
            "gasUsed": 123900,
            "intTxnCount": 7,
            "internalRevert": false,
            "internalRevertMessage": "",
            "isContractCreation": false,
            "isFlashloan": false,
            "maxFee": "7.6782956",
            "nonce": 1339,
            "overwritedBlockNumber": -1,
            "priorityFee": "1.5",
            "receiver": "0x00000000006c3852cbef3e08e8df289169ede581",
            "revertMessage": "",
            "sender": "0xfe192ec5f16cee038e70afd28a42fb466d8e2569",
            "simulationEnable": true,
            "sourceTxnHash": "0xcf963defd1d14d57c8a52c727a129792176e380a5e7d001064cd8b0a06994d62",
            "status": true,
            "timestamp": "2022-09-11T22:53:34Z",
            "transactionFee": "0.0007038208259544",
            "txnHash": "0xcf963defd1d14d57c8a52c727a129792176e380a5e7d001064cd8b0a06994d62",
            "txnIndex": 111,
            "type": 2,
            "value": "160000000000000000"
        },
        "fund_flow": [
            {
                "amount": "0.16",
                "from": "0xfe192ec5f16cee038e70afd28a42fb466d8e2569",
                "id": 1,
                "isERC1155": false,
                "isERC721": false,
                "isReverted": false,
                "order": 1,
                "to": "0x00000000006c3852cbef3e08e8df289169ede581",
                "token": "0xeeeeeeeeeeeeeeeeeeeeeeeeeeeeeeeeeeeeeeee"
            },
            {
                "amount": "1",
                "from": "0x6ba81c76045bc0de4112fcf0e24940d3e293466c",
                "id": 2,
                "isERC1155": true,
                "isERC721": false,
                "isReverted": false,
                "order": 2,
                "to": "0xfe192ec5f16cee038e70afd28a42fb466d8e2569",
                "token": "0xc36cf0cfcb5d905b8b513860db0cfe63f6cf9f5c",
                "tokenID": "120119675523091277602571236423414178643968"
            },
            {
                "amount": "0.004",
                "from": "0x00000000006c3852cbef3e08e8df289169ede581",
                "id": 3,
                "isERC1155": false,
                "isERC721": false,
                "isReverted": false,
                "order": 3,
                "to": "0x0000a26b00c1f0df003000390027140000faa719",
                "token": "0xeeeeeeeeeeeeeeeeeeeeeeeeeeeeeeeeeeeeeeee"
            },
            {
                "amount": "0.008",
                "from": "0x00000000006c3852cbef3e08e8df289169ede581",
                "id": 4,
                "isERC1155": false,
                "isERC721": false,
                "isReverted": false,
                "order": 4,
                "to": "0x0e4708e33a335a62d51075941285a952d6b8f395",
                "token": "0xeeeeeeeeeeeeeeeeeeeeeeeeeeeeeeeeeeeeeeee"
            },
            {
                "amount": "0.148",
                "from": "0x00000000006c3852cbef3e08e8df289169ede581",
                "id": 5,
                "isERC1155": false,
                "isERC721": false,
                "isReverted": false,
                "order": 5,
                "to": "0x6ba81c76045bc0de4112fcf0e24940d3e293466c",
                "token": "0xeeeeeeeeeeeeeeeeeeeeeeeeeeeeeeeeeeeeeeee"
            }
        ],
        "token_infos": [
            {
                "address": "0xc02aaa39b223fe8d0a0e5c4f27ead9083c756cc2",
                "decimals": 18
            },
            {
                "address": "0xeeeeeeeeeeeeeeeeeeeeeeeeeeeeeeeeeeeeeeee",
                "decimals": 18
            }
        ]
    },
    "address_label": {
        "labels": [
            {
                "address": "0x1e0049783f008a0085193e00003d00cd54003c71",
                "label": "OpenSea: Conduit"
            },
            {
                "address": "0x004c00500000ad104d7dbd00e3ae0a5c00560c00",
                "label": "OpenSea: Pausable Zone"
            },
            {
                "address": "0x00000000006c3852cbef3e08e8df289169ede581",
                "label": "Seaport 1.1"
            },
            {
                "address": "0xc36cf0cfcb5d905b8b513860db0cfe63f6cf9f5c",
                "label": "Town Star: Token"
            },
            {
                "address": "0x0000000000000000000000000000000000000001",
                "label": "Precompiled"
            },
            {
                "address": "0xeeeeeeeeeeeeeeeeeeeeeeeeeeeeeeeeeeeeeeee",
                "label": "Ether"
            },
            {
                "address": "0x0000a26b00c1f0df003000390027140000faa719",
                "label": "OpenSea: Fees 3"
            },
            {
                "address": "0x0000000000000000000000000000000000000000",
                "label": "Null Address"
            },
            {
                "address": "0x0000000000000000000000000000000000000002",
                "label": "Precompiled"
            },
            {
                "address": "0x0000000000000000000000000000000000000003",
                "label": "Precompiled"
            },
            {
                "address": "0x0000000000000000000000000000000000000004",
                "label": "Precompiled"
            }
        ]
    },
    "trace": {
        "accountLabels": null,
        "dataMap": {
            "-1": {
                "invocation": {
                    "address": "0xfe192ec5f16cee038e70afd28a42fb466d8e2569",
                    "callData": "",
                    "decodedMethod": null,
                    "errorInfo": "",
                    "fromAddress": "",
                    "gasUsed": 0,
                    "id": -1,
                    "methodDecoded": false,
                    "operation": "",
                    "output": "",
                    "revert": false,
                    "revertMessage": "",
                    "selector": "",
                    "status": false,
                    "value": ""
                },
                "nodeType": 0
            },
            "0": {
                "invocation": {
                    "address": "0x00000000006c3852cbef3e08e8df289169ede581",
                    "callData": "0x000000000000000000000000000000000000000000000000000000000000002000000000000000000000000000000000000000000000000000000000000000000000000000000000000000000000000000000000000000000000000000000000000000000000000000000000000000000000000000000000020dcd3742c200000000000000000000000000006ba81c76045bc0de4112fcf0e24940d3e293466c000000000000000000000000004c00500000ad104d7dbd00e3ae0a5c00560c00000000000000000000000000c36cf0cfcb5d905b8b513860db0cfe63f6cf9f5c000000000000000000000000000001610000000000000000000000000000000000000000000000000000000000000000000000000000000000000000000000010000000000000000000000000000000000000000000000000000000000000007000000000000000000000000000000000000000000000000000000006314b41700000000000000000000000000000000000000000000000000000000633c4117000000000000000000000000000000000000000000000000000000000000000000000000000000000000000000000000000000000000000000863c73854a7d7b0000007b02230091a7ed01230072f7006a004d60a8d4e71d599b8104250f00000000007b02230091a7ed01230072f7006a004d60a8d4e71d599b8104250f00000000000000000000000000000000000000000000000000000000000000000002000000000000000000000000000000000000000000000000000000000000024000000000000000000000000000000000000000000000000000000000000002e00000000000000000000000000000000000000000000000000000000000000002000000000000000000000000000000000000000000000000000e35fa931a00000000000000000000000000000000a26b00c1f0df003000390027140000faa719000000000000000000000000000000000000000000000000001c6bf5263400000000000000000000000000000e4708e33a335a62d51075941285a952d6b8f3950000000000000000000000000000000000000000000000000000000000000041a4103edbec04535f0edf1db8f1ba17afda0a7df64bb8eb15baf1dc35135766b56161c4a54b5b53f206b8ae9a37dc6be15a91c5a69d24224b49c6e3a738dbc3db1b00000000000000000000000000000000000000000000000000000000000000",
                    "decodedMethod": {
                        "callParams": [
                            {
                                "name": "parameters",
                                "type": "(address,uint256,uint256,address,address,address,uint256,uint256,uint8,uint256,uint256,bytes32,uint256,bytes32,bytes32,uint256,(uint256,address)[],bytes)",
                                "value": [
                                    {
                                        "name": "considerationToken",
                                        "type": "address",
                                        "value": "0x0000000000000000000000000000000000000000"
                                    },
                                    {
                                        "name": "considerationIdentifier",
                                        "type": "uint256",
                                        "value": "0"
                                    },
                                    {
                                        "name": "considerationAmount",
                                        "type": "uint256",
                                        "value": "148,000,000,000,000,000"
                                    },
                                    {
                                        "name": "offerer",
                                        "type": "address",
                                        "value": "0x6ba81c76045bc0de4112fcf0e24940d3e293466c"
                                    },
                                    {
                                        "name": "zone",
                                        "type": "address",
                                        "value": "0x004c00500000ad104d7dbd00e3ae0a5c00560c00"
                                    },
                                    {
                                        "name": "offerToken",
                                        "type": "address",
                                        "value": "0xc36cf0cfcb5d905b8b513860db0cfe63f6cf9f5c"
                                    },
                                    {
                                        "name": "offerIdentifier",
                                        "type": "uint256",
                                        "value": "120,119,675,523,091,277,602,571,236,423,414,178,643,968"
                                    },
                                    {
                                        "name": "offerAmount",
                                        "type": "uint256",
                                        "value": "1"
                                    },
                                    {
                                        "name": "basicOrderType",
                                        "type": "uint8",
                                        "value": "7"
                                    },
                                    {
                                        "name": "startTime",
                                        "type": "uint256",
                                        "value": "1,662,301,207"
                                    },
                                    {
                                        "name": "endTime",
                                        "type": "uint256",
                                        "value": "1,664,893,207"
                                    },
                                    {
                                        "name": "zoneHash",
                                        "type": "bytes32",
                                        "value": "0x0000000000000000000000000000000000000000000000000000000000000000"
                                    },
                                    {
                                        "name": "salt",
                                        "type": "uint256",
                                        "value": "37,784,113,734,385,019"
                                    },
                                    {
                                        "name": "offererConduitKey",
                                        "type": "bytes32",
                                        "value": "0x0000007b02230091a7ed01230072f7006a004d60a8d4e71d599b8104250f0000"
                                    },
                                    {
                                        "name": "fulfillerConduitKey",
                                        "type": "bytes32",
                                        "value": "0x0000007b02230091a7ed01230072f7006a004d60a8d4e71d599b8104250f0000"
                                    },
                                    {
                                        "name": "totalOriginalAdditionalRecipients",
                                        "type": "uint256",
                                        "value": "2"
                                    },
                                    {
                                        "name": "additionalRecipients",
                                        "type": "(uint256,address)[]",
                                        "value": [
                                            [
                                                {
                                                    "name": "amount",
                                                    "type": "uint256",
                                                    "value": "4,000,000,000,000,000"
                                                },
                                                {
                                                    "name": "recipient",
                                                    "type": "address",
                                                    "value": "0x0000a26b00c1f0df003000390027140000faa719"
                                                }
                                            ],
                                            [
                                                {
                                                    "name": "amount",
                                                    "type": "uint256",
                                                    "value": "8,000,000,000,000,000"
                                                },
                                                {
                                                    "name": "recipient",
                                                    "type": "address",
                                                    "value": "0x0e4708e33a335a62d51075941285a952d6b8f395"
                                                }
                                            ]
                                        ]
                                    },
                                    {
                                        "name": "signature",
                                        "type": "bytes",
                                        "value": "0xa4103edbec04535f0edf1db8f1ba17afda0a7df64bb8eb15baf1dc35135766b56161c4a54b5b53f206b8ae9a37dc6be15a91c5a69d24224b49c6e3a738dbc3db1b"
                                    }
                                ]
                            }
                        ],
                        "constructorArguments": "",
                        "name": "fulfillBasicOrder",
                        "returnParams": [
                            {
                                "name": "fulfilled",
                                "type": "bool",
                                "value": true
                            }
                        ],
                        "signature": "fulfillBasicOrder((address,uint256,uint256,address,address,address,uint256,uint256,uint8,uint256,uint256,bytes32,uint256,bytes32,bytes32,uint256,(uint256,address)[],bytes))"
                    },
                    "errorInfo": "",
                    "fromAddress": "0xfe192ec5f16cee038e70afd28a42fb466d8e2569",
                    "gasUsed": 123900,
                    "id": 0,
                    "methodDecoded": true,
                    "operation": "CALL",
                    "output": "0x0000000000000000000000000000000000000000000000000000000000000001",
                    "revert": false,
                    "revertMessage": "",
                    "selector": "0xfb0f3ee1",
                    "status": true,
                    "value": "0.16"
                },
                "nodeType": 0
            },
            "1": {
                "event": {
                    "contract": "0x00000000006c3852cbef3e08e8df289169ede581",
                    "decodedLog": {
                        "name": "OrderFulfilled",
                        "params": [
                            {
                                "name": "offerer",
                                "type": "address",
                                "value": "0x6ba81c76045bc0de4112fcf0e24940d3e293466c"
                            },
                            {
                                "name": "zone",
                                "type": "address",
                                "value": "0x004c00500000ad104d7dbd00e3ae0a5c00560c00"
                            },
                            {
                                "name": "orderHash",
                                "type": "bytes32",
                                "value": "0x32a9bfbaa3d1b79d596376ea8f3f7ab90d92a00b7cbf0d1e3794513cbb7a8a96"
                            },
                            {
                                "name": "recipient",
                                "type": "address",
                                "value": "0xfe192ec5f16cee038e70afd28a42fb466d8e2569"
                            },
                            {
                                "name": "offer",
                                "type": "(uint8,address,uint256,uint256)[]",
                                "value": [
                                    [
                                        {
                                            "name": "itemType",
                                            "type": "uint8",
                                            "value": "3"
                                        },
                                        {
                                            "name": "token",
                                            "type": "address",
                                            "value": "0xc36cf0cfcb5d905b8b513860db0cfe63f6cf9f5c"
                                        },
                                        {
                                            "name": "identifier",
                                            "type": "uint256",
                                            "value": "120,119,675,523,091,277,602,571,236,423,414,178,643,968"
                                        },
                                        {
                                            "name": "amount",
                                            "type": "uint256",
                                            "value": "1"
                                        }
                                    ]
                                ]
                            },
                            {
                                "name": "consideration",
                                "type": "(uint8,address,uint256,uint256,address)[]",
                                "value": [
                                    [
                                        {
                                            "name": "itemType",
                                            "type": "uint8",
                                            "value": "0"
                                        },
                                        {
                                            "name": "token",
                                            "type": "address",
                                            "value": "0x0000000000000000000000000000000000000000"
                                        },
                                        {
                                            "name": "identifier",
                                            "type": "uint256",
                                            "value": "0"
                                        },
                                        {
                                            "name": "amount",
                                            "type": "uint256",
                                            "value": "148,000,000,000,000,000"
                                        },
                                        {
                                            "name": "recipient",
                                            "type": "address",
                                            "value": "0x6ba81c76045bc0de4112fcf0e24940d3e293466c"
                                        }
                                    ],
                                    [
                                        {
                                            "name": "itemType",
                                            "type": "uint8",
                                            "value": "0"
                                        },
                                        {
                                            "name": "token",
                                            "type": "address",
                                            "value": "0x0000000000000000000000000000000000000000"
                                        },
                                        {
                                            "name": "identifier",
                                            "type": "uint256",
                                            "value": "0"
                                        },
                                        {
                                            "name": "amount",
                                            "type": "uint256",
                                            "value": "4,000,000,000,000,000"
                                        },
                                        {
                                            "name": "recipient",
                                            "type": "address",
                                            "value": "0x0000a26b00c1f0df003000390027140000faa719"
                                        }
                                    ],
                                    [
                                        {
                                            "name": "itemType",
                                            "type": "uint8",
                                            "value": "0"
                                        },
                                        {
                                            "name": "token",
                                            "type": "address",
                                            "value": "0x0000000000000000000000000000000000000000"
                                        },
                                        {
                                            "name": "identifier",
                                            "type": "uint256",
                                            "value": "0"
                                        },
                                        {
                                            "name": "amount",
                                            "type": "uint256",
                                            "value": "8,000,000,000,000,000"
                                        },
                                        {
                                            "name": "recipient",
                                            "type": "address",
                                            "value": "0x0e4708e33a335a62d51075941285a952d6b8f395"
                                        }
                                    ]
                                ]
                            }
                        ],
                        "signature": "OrderFulfilled(bytes32,address,address,address,(uint8,address,uint256,uint256)[],(uint8,address,uint256,uint256,address)[])"
                    },
                    "id": 1,
                    "logData": "0x32a9bfbaa3d1b79d596376ea8f3f7ab90d92a00b7cbf0d1e3794513cbb7a8a96000000000000000000000000fe192ec5f16cee038e70afd28a42fb466d8e25690000000000000000000000000000000000000000000000000000000000000080000000000000000000000000000000000000000000000000000000000000012000000000000000000000000000000000000000000000000000000000000000010000000000000000000000000000000000000000000000000000000000000003000000000000000000000000c36cf0cfcb5d905b8b513860db0cfe63f6cf9f5c000000000000000000000000000001610000000000000000000000000000000000000000000000000000000000000000000000000000000000000000000000010000000000000000000000000000000000000000000000000000000000000003000000000000000000000000000000000000000000000000000000000000000000000000000000000000000000000000000000000000000000000000000000000000000000000000000000000000000000000000000000000000000000000000000000000000000000000000000000000000000000000000020dcd3742c200000000000000000000000000006ba81c76045bc0de4112fcf0e24940d3e293466c000000000000000000000000000000000000000000000000000000000000000000000000000000000000000000000000000000000000000000000000000000000000000000000000000000000000000000000000000000000000000000000000000000000000000000000000000000000000000000000000000e35fa931a00000000000000000000000000000000a26b00c1f0df003000390027140000faa719000000000000000000000000000000000000000000000000000000000000000000000000000000000000000000000000000000000000000000000000000000000000000000000000000000000000000000000000000000000000000000000000000000000000000000000000000000000000000000000000001c6bf5263400000000000000000000000000000e4708e33a335a62d51075941285a952d6b8f395",
                    "logDecoded": true,
                    "operation": "EVENT",
                    "revert": false,
                    "status": true,
                    "topics": [
                        "0x9d9af8e38d66c62e2c12f0225249fd9d721c54b83f48d9352c97c6cacdcb6f31",
                        "0x0000000000000000000000006ba81c76045bc0de4112fcf0e24940d3e293466c",
                        "0x000000000000000000000000004c00500000ad104d7dbd00e3ae0a5c00560c00"
                    ]
                },
                "nodeType": 1
            },
            "2": {
                "invocation": {
                    "address": "0x004c00500000ad104d7dbd00e3ae0a5c00560c00",
                    "callData": "0x32a9bfbaa3d1b79d596376ea8f3f7ab90d92a00b7cbf0d1e3794513cbb7a8a96000000000000000000000000fe192ec5f16cee038e70afd28a42fb466d8e25690000000000000000000000006ba81c76045bc0de4112fcf0e24940d3e293466c0000000000000000000000000000000000000000000000000000000000000000",
                    "decodedMethod": {
                        "callParams": [
                            {
                                "name": "orderHash",
                                "type": "bytes32",
                                "value": "0x32a9bfbaa3d1b79d596376ea8f3f7ab90d92a00b7cbf0d1e3794513cbb7a8a96"
                            },
                            {
                                "name": "caller",
                                "type": "address",
                                "value": "0xfe192ec5f16cee038e70afd28a42fb466d8e2569"
                            },
                            {
                                "name": "offerer",
                                "type": "address",
                                "value": "0x6ba81c76045bc0de4112fcf0e24940d3e293466c"
                            },
                            {
                                "name": "zoneHash",
                                "type": "bytes32",
                                "value": "0x0000000000000000000000000000000000000000000000000000000000000000"
                            }
                        ],
                        "constructorArguments": "",
                        "name": "isValidOrder",
                        "returnParams": [
                            {
                                "name": "validOrderMagicValue",
                                "type": "bytes4",
                                "value": "0x0e1d31dc"
                            }
                        ],
                        "signature": "isValidOrder(bytes32,address,address,bytes32)"
                    },
                    "errorInfo": "",
                    "fromAddress": "0x00000000006c3852cbef3e08e8df289169ede581",
                    "gasUsed": 257,
                    "id": 2,
                    "methodDecoded": true,
                    "operation": "STATICCALL",
                    "output": "0x0e1d31dc00000000000000000000000000000000000000000000000000000000",
                    "revert": false,
                    "revertMessage": "",
                    "selector": "0x0e1d31dc",
                    "status": true,
                    "value": "0"
                },
                "nodeType": 0
            },
            "3": {
                "invocation": {
                    "address": "0x0000000000000000000000000000000000000001",
                    "callData": "0xcb4602115347a40939bf5d7ed06e855679499715437d4f69c0abfe92000000000000000000000000000000000000000000000000000000000000001ba4103edbec04535f0edf1db8f1ba17afda0a7df64bb8eb15baf1dc35135766b56161c4a54b5b53f206b8ae9a37dc6be15a91c5a69d24224b49c6e3a738dbc3db",
                    "decodedMethod": {
                        "callParams": [
                            {
                                "name": "hash",
                                "type": "bytes32",
                                "value": "0x6727c25acb4602115347a40939bf5d7ed06e855679499715437d4f69c0abfe92"
                            },
                            {
                                "name": "v",
                                "type": "uint256",
                                "value": "27"
                            },
                            {
                                "name": "r",
                                "type": "bytes32",
                                "value": "0xa4103edbec04535f0edf1db8f1ba17afda0a7df64bb8eb15baf1dc35135766b5"
                            },
                            {
                                "name": "s",
                                "type": "bytes32",
                                "value": "0x6161c4a54b5b53f206b8ae9a37dc6be15a91c5a69d24224b49c6e3a738dbc3db"
                            }
                        ],
                        "constructorArguments": "",
                        "name": "ecrecover",
                        "returnParams": [
                            {
                                "name": "",
                                "type": "address",
                                "value": "0x6ba81c76045bc0de4112fcf0e24940d3e293466c"
                            }
                        ],
                        "signature": "ecrecover(bytes32,uint256,bytes32,bytes32)"
                    },
                    "errorInfo": "",
                    "fromAddress": "0x00000000006c3852cbef3e08e8df289169ede581",
                    "gasUsed": 3000,
                    "id": 3,
                    "methodDecoded": true,
                    "operation": "STATICCALL",
                    "output": "0x0000000000000000000000006ba81c76045bc0de4112fcf0e24940d3e293466c",
                    "revert": false,
                    "revertMessage": "",
                    "selector": "0x6727c25a",
                    "status": true,
                    "value": "0"
                },
                "nodeType": 0
            },
            "4": {
                "invocation": {
                    "address": "0x1e0049783f008a0085193e00003d00cd54003c71",
                    "callData": "0x000000000000000000000000000000000000000000000000000000000000002000000000000000000000000000000000000000000000000000000000000000010000000000000000000000000000000000000000000000000000000000000003000000000000000000000000c36cf0cfcb5d905b8b513860db0cfe63f6cf9f5c0000000000000000000000006ba81c76045bc0de4112fcf0e24940d3e293466c000000000000000000000000fe192ec5f16cee038e70afd28a42fb466d8e256900000000000000000000000000000161000000000000000000000000000000000000000000000000000000000000000000000000000000000000000000000001",
                    "decodedMethod": {
                        "callParams": [
                            {
                                "name": "transfers",
                                "type": "(uint8,address,address,address,uint256,uint256)[]",
                                "value": [
                                    [
                                        {
                                            "name": "itemType",
                                            "type": "uint8",
                                            "value": "3"
                                        },
                                        {
                                            "name": "token",
                                            "type": "address",
                                            "value": "0xc36cf0cfcb5d905b8b513860db0cfe63f6cf9f5c"
                                        },
                                        {
                                            "name": "from",
                                            "type": "address",
                                            "value": "0x6ba81c76045bc0de4112fcf0e24940d3e293466c"
                                        },
                                        {
                                            "name": "to",
                                            "type": "address",
                                            "value": "0xfe192ec5f16cee038e70afd28a42fb466d8e2569"
                                        },
                                        {
                                            "name": "identifier",
                                            "type": "uint256",
                                            "value": "120,119,675,523,091,277,602,571,236,423,414,178,643,968"
                                        },
                                        {
                                            "name": "amount",
                                            "type": "uint256",
                                            "value": "1"
                                        }
                                    ]
                                ]
                            }
                        ],
                        "constructorArguments": "",
                        "name": "execute",
                        "returnParams": [
                            {
                                "name": "magicValue",
                                "type": "bytes4",
                                "value": "0x4ce34aa2"
                            }
                        ],
                        "signature": "execute((uint8,address,address,address,uint256,uint256)[])"
                    },
                    "errorInfo": "",
                    "fromAddress": "0x00000000006c3852cbef3e08e8df289169ede581",
                    "gasUsed": 22758,
                    "id": 4,
                    "methodDecoded": true,
                    "operation": "CALL",
                    "output": "0x4ce34aa200000000000000000000000000000000000000000000000000000000",
                    "revert": false,
                    "revertMessage": "",
                    "selector": "0x4ce34aa2",
                    "status": true,
                    "value": "0"
                },
                "nodeType": 0
            },
            "5": {
                "invocation": {
                    "address": "0xc36cf0cfcb5d905b8b513860db0cfe63f6cf9f5c",
                    "callData": "0x0000000000000000000000006ba81c76045bc0de4112fcf0e24940d3e293466c000000000000000000000000fe192ec5f16cee038e70afd28a42fb466d8e25690000000000000000000000000000016100000000000000000000000000000000000000000000000000000000000000000000000000000000000000000000000100000000000000000000000000000000000000000000000000000000000000a00000000000000000000000000000000000000000000000000000000000000000",
                    "decodedMethod": {
                        "callParams": [
                            {
                                "name": "_from",
                                "type": "address",
                                "value": "0x6ba81c76045bc0de4112fcf0e24940d3e293466c"
                            },
                            {
                                "name": "_to",
                                "type": "address",
                                "value": "0xfe192ec5f16cee038e70afd28a42fb466d8e2569"
                            },
                            {
                                "name": "_id",
                                "type": "uint256",
                                "value": "120,119,675,523,091,277,602,571,236,423,414,178,643,968"
                            },
                            {
                                "name": "_value",
                                "type": "uint256",
                                "value": "1"
                            },
                            {
                                "name": "_data",
                                "type": "bytes",
                                "value": "0x"
                            }
                        ],
                        "constructorArguments": "",
                        "name": "safeTransferFrom",
                        "returnParams": [],
                        "signature": "safeTransferFrom(address,address,uint256,uint256,bytes)"
                    },
                    "errorInfo": "",
                    "fromAddress": "0x1e0049783f008a0085193e00003d00cd54003c71",
                    "gasUsed": 16451,
                    "id": 5,
                    "methodDecoded": true,
                    "operation": "CALL",
                    "output": "",
                    "revert": false,
                    "revertMessage": "",
                    "selector": "0xf242432a",
                    "status": true,
                    "value": "0"
                },
                "nodeType": 0
            },
            "6": {
                "event": {
                    "contract": "0xc36cf0cfcb5d905b8b513860db0cfe63f6cf9f5c",
                    "decodedLog": {
                        "name": "TransferSingle",
                        "params": [
                            {
                                "name": "_operator",
                                "type": "address",
                                "value": "0x1e0049783f008a0085193e00003d00cd54003c71"
                            },
                            {
                                "name": "_from",
                                "type": "address",
                                "value": "0x6ba81c76045bc0de4112fcf0e24940d3e293466c"
                            },
                            {
                                "name": "_to",
                                "type": "address",
                                "value": "0xfe192ec5f16cee038e70afd28a42fb466d8e2569"
                            },
                            {
                                "name": "_id",
                                "type": "uint256",
                                "value": "120,119,675,523,091,277,602,571,236,423,414,178,643,968"
                            },
                            {
                                "name": "_value",
                                "type": "uint256",
                                "value": "1"
                            }
                        ],
                        "signature": "TransferSingle(address,address,address,uint256,uint256)"
                    },
                    "id": 6,
                    "logData": "0x00000000000000000000000000000161000000000000000000000000000000000000000000000000000000000000000000000000000000000000000000000001",
                    "logDecoded": true,
                    "operation": "EVENT",
                    "revert": false,
                    "status": true,
                    "topics": [
                        "0xc3d58168c5ae7397731d063d5bbf3d657854427343f4c083240f7aacaa2d0f62",
                        "0x0000000000000000000000001e0049783f008a0085193e00003d00cd54003c71",
                        "0x0000000000000000000000006ba81c76045bc0de4112fcf0e24940d3e293466c",
                        "0x000000000000000000000000fe192ec5f16cee038e70afd28a42fb466d8e2569"
                    ]
                },
                "nodeType": 1
            },
            "7": {
                "invocation": {
                    "address": "0x0000a26b00c1f0df003000390027140000faa719",
                    "callData": "0x",
                    "decodedMethod": null,
                    "errorInfo": "",
                    "fromAddress": "0x00000000006c3852cbef3e08e8df289169ede581",
                    "gasUsed": 85,
                    "id": 7,
                    "methodDecoded": false,
                    "operation": "CALL",
                    "output": "",
                    "revert": false,
                    "revertMessage": "",
                    "selector": "fallback",
                    "status": true,
                    "value": "0.004"
                },
                "nodeType": 0
            },
            "8": {
                "invocation": {
                    "address": "0x0e4708e33a335a62d51075941285a952d6b8f395",
                    "callData": "0x",
                    "decodedMethod": null,
                    "errorInfo": "",
                    "fromAddress": "0x00000000006c3852cbef3e08e8df289169ede581",
                    "gasUsed": 0,
                    "id": 8,
                    "methodDecoded": false,
                    "operation": "CALL",
                    "output": "",
                    "revert": false,
                    "revertMessage": "",
                    "selector": "fallback",
                    "status": true,
                    "value": "0.008"
                },
                "nodeType": 0
            },
            "9": {
                "invocation": {
                    "address": "0x6ba81c76045bc0de4112fcf0e24940d3e293466c",
                    "callData": "0x",
                    "decodedMethod": null,
                    "errorInfo": "",
                    "fromAddress": "0x00000000006c3852cbef3e08e8df289169ede581",
                    "gasUsed": 0,
                    "id": 9,
                    "methodDecoded": false,
                    "operation": "CALL",
                    "output": "",
                    "revert": false,
                    "revertMessage": "",
                    "selector": "fallback",
                    "status": true,
                    "value": "0.148"
                },
                "nodeType": 0
            }
        },
        "gasFlame": [
            {
                "children": [
                    {
                        "children": [
                            {
                                "children": [],
                                "depth": 0,
                                "name": "Initial Gas",
                                "value": 27516
                            },
                            {
                                "children": [
                                    {
                                        "children": [],
                                        "depth": 1,
                                        "name": "isValidOrder",
                                        "value": 257
                                    },
                                    {
                                        "children": [],
                                        "depth": 1,
                                        "name": "ecrecover",
                                        "value": 3000
                                    },
                                    {
                                        "children": [
                                            {
                                                "children": [],
                                                "depth": 2,
                                                "name": "safeTransferFrom",
                                                "value": 16451
                                            }
                                        ],
                                        "depth": 1,
                                        "name": "execute",
                                        "value": 22758
                                    },
                                    {
                                        "children": [],
                                        "depth": 1,
                                        "name": "fallback",
                                        "value": 85
                                    },
                                    {
                                        "children": [],
                                        "depth": 1,
                                        "name": "fallback",
                                        "value": 0
                                    },
                                    {
                                        "children": [],
                                        "depth": 1,
                                        "name": "fallback",
                                        "value": 0
                                    }
                                ],
                                "depth": 0,
                                "name": "Executed Gas",
                                "value": 103984
                            }
                        ],
                        "depth": -1,
                        "name": "Actual Gas Used",
                        "value": 123900
                    },
                    {
                        "children": [],
                        "depth": -1,
                        "name": "Refunded Gas",
                        "value": 7600
                    }
                ],
                "depth": -2,
                "name": "Total Gas",
                "value": 131500
            }
        ],
        "isConfirmed": true,
        "mainTrace": [
            {
                "children": [
                    {
                        "children": [
                            {
                                "children": [],
                                "depth": 1,
                                "id": 1,
                                "order": 1
                            },
                            {
                                "children": [],
                                "depth": 1,
                                "id": 2,
                                "order": 2
                            },
                            {
                                "children": [],
                                "depth": 1,
                                "id": 3,
                                "order": 3
                            },
                            {
                                "children": [
                                    {
                                        "children": [
                                            {
                                                "children": [],
                                                "depth": 3,
                                                "id": 6,
                                                "order": 6
                                            }
                                        ],
                                        "depth": 2,
                                        "id": 5,
                                        "order": 5
                                    }
                                ],
                                "depth": 1,
                                "id": 4,
                                "order": 4
                            },
                            {
                                "children": [],
                                "depth": 1,
                                "id": 7,
                                "order": 7
                            },
                            {
                                "children": [],
                                "depth": 1,
                                "id": 8,
                                "order": 8
                            },
                            {
                                "children": [],
                                "depth": 1,
                                "id": 9,
                                "order": 9
                            }
                        ],
                        "depth": 0,
                        "id": 0,
                        "order": 0
                    }
                ],
                "depth": -1,
                "id": -1,
                "order": -1
            }
        ],
        "mainTraceNodeCount": 10,
        "parentIdMap": {
            "0": -1,
            "1": 0,
            "2": 0,
            "3": 0,
            "4": 0,
            "5": 4,
            "6": 5,
            "7": 0,
            "8": 0,
            "9": 0
        },
        "tidyTrace": [
            {
                "children": [
                    {
                        "children": [
                            {
                                "children": [],
                                "depth": 1,
                                "id": 1,
                                "order": 1
                            },
                            {
                                "children": [
                                    {
                                        "children": [
                                            {
                                                "children": [],
                                                "depth": 3,
                                                "id": 6,
                                                "order": 6
                                            }
                                        ],
                                        "depth": 2,
                                        "id": 5,
                                        "order": 5
                                    }
                                ],
                                "depth": 1,
                                "id": 4,
                                "order": 4
                            },
                            {
                                "children": [],
                                "depth": 1,
                                "id": 7,
                                "order": 7
                            },
                            {
                                "children": [],
                                "depth": 1,
                                "id": 8,
                                "order": 8
                            },
                            {
                                "children": [],
                                "depth": 1,
                                "id": 9,
                                "order": 9
                            }
                        ],
                        "depth": 0,
                        "id": 0,
                        "order": 0
                    }
                ],
                "depth": -1,
                "id": -1,
                "order": -1
            }
        ],
        "tidyTraceNodeCount": 8
    },
    "state_change": {
        "stateChanges": [
            {
                "address": "0x00000000006c3852cbef3e08e8df289169ede581",
                "erc": "",
                "slots": [
                    {
                        "current": "0x0000000000000000000000000000010000000000000000000000000000010001",
                        "key": "0xb05d73a969947114bac29804a931645e6ecdda2e1551d0ce083134b7501e72f8",
                        "prev": "0x0000000000000000000000000000000000000000000000000000000000000000"
                    }
                ],
                "storageVariables": [
                    {
                        "name": "_orderStatus",
                        "type": "mapping(bytes32 => struct OrderStatus)",
                        "value": {
                            "pairs": [
                                {
                                    "key": "0x32a9bfbaa3d1b79d596376ea8f3f7ab90d92a00b7cbf0d1e3794513cbb7a8a96",
                                    "value": {
                                        "fields": [
                                            {
                                                "name": "isValidated",
                                                "type": "bool",
                                                "value": {
                                                    "current": "true",
                                                    "prev": "false",
                                                    "typeTag": 1
                                                }
                                            },
                                            {
                                                "name": "isCancelled",
                                                "type": "bool",
                                                "value": {
                                                    "current": "false",
                                                    "prev": "false",
                                                    "typeTag": 1
                                                }
                                            },
                                            {
                                                "name": "numerator",
                                                "type": "uint120",
                                                "value": {
                                                    "current": "1",
                                                    "prev": "0",
                                                    "typeTag": 1
                                                }
                                            },
                                            {
                                                "name": "denominator",
                                                "type": "uint120",
                                                "value": {
                                                    "current": "1",
                                                    "prev": "0",
                                                    "typeTag": 1
                                                }
                                            }
                                        ],
                                        "typeTag": 3
                                    }
                                }
                            ],
                            "typeTag": 4
                        }
                    }
                ]
            },
            {
                "address": "0xc36cf0cfcb5d905b8b513860db0cfe63f6cf9f5c",
                "erc": "ERC-1155",
                "slots": [
                    {
                        "current": "0x0000000000000000000000000000000000000000000000000000000000000005",
                        "key": "0xd96e206b54c7dbe330b97bc64676039f500636a4ced0fef72f83c65ea6f44169",
                        "prev": "0x0000000000000000000000000000000000000000000000000000000000000004"
                    },
                    {
                        "current": "0x0000000000000000000000000000000000000000000000000000000000000000",
                        "key": "0xf3dd6fc098be84773cbb033ce28c0c6ca28dec2fdf344751b01e8b73119e967d",
                        "prev": "0x0000000000000000000000000000000000000000000000000000000000000001"
                    }
                ],
                "storageVariables": [
                    {
                        "name": "balances",
                        "type": "mapping(uint256 => mapping(address => uint256))",
                        "value": {
                            "pairs": [
                                {
                                    "key": "120119675523091277602571236423414178643968",
                                    "value": {
                                        "pairs": [
                                            {
                                                "key": "0x6ba81c76045bc0de4112fcf0e24940d3e293466c",
                                                "value": {
                                                    "current": "0",
                                                    "prev": "1",
                                                    "typeTag": 1
                                                }
                                            },
                                            {
                                                "key": "0xfe192ec5f16cee038e70afd28a42fb466d8e2569",
                                                "value": {
                                                    "current": "5",
                                                    "prev": "4",
                                                    "typeTag": 1
                                                }
                                            }
                                        ],
                                        "typeTag": 4
                                    }
                                }
                            ],
                            "typeTag": 4
                        }
                    }
                ]
            }
        ]
    }
}