{
    "balance_change": {
        "balanceChanges": [
            {
                "account": "0x3cb49ab082e02dda693b846f2f87b164fd25dbd0",
                "assets": [
                    {
                        "address": "0xdd974d5c2e2928dea5f71b9825b8b646686bd200",
                        "amount": "2,162",
                        "iconUrl": "https://assets.blocksec.com/icon/7af75e1543b2a7e424399ceec39d346a3492570fbcc8f496f1a4601b773a615d.png",
                        "isERC1155": false,
                        "isERC721": false,
                        "sign": false,
                        "value": ""
                    }
                ]
            },
            {
                "account": "0xb287a379e6caca6732e50b88d23c290aa990a892",
                "assets": [
                    {
                        "address": "0xdd974d5c2e2928dea5f71b9825b8b646686bd200",
                        "amount": "2,162",
                        "iconUrl": "https://assets.blocksec.com/icon/7af75e1543b2a7e424399ceec39d346a3492570fbcc8f496f1a4601b773a615d.png",
                        "isERC1155": false,
                        "isERC721": false,
                        "sign": true,
                        "value": ""
                    }
                ]
            }
        ]
    },
    "profile": {
        "basic_info": {
            "baseFee": "",
            "blockNumber": 4386661,
            "callData": "0xa9059cbb000000000000000000000000b287a379e6caca6732e50b88d23c290aa990a89200000000000000000000000000000000000000000000007533c6f93baa880000",
            "debugEnable": true,
            "errorInfo": "",
            "eventCount": 1,
            "feeRecipient": "0x4bb96091ee9d802ed039c4d1a5f6216f90f81b01",
            "formatValue": "0",
            "gasLimit": 300000,
            "gasPrice": "9.100001337",
            "gasUsed": 22309,
            "intTxnCount": 0,
            "internalRevert": false,
            "internalRevertMessage": "",
            "isContractCreation": false,
            "isFlashloan": false,
            "maxFee": "",
            "nonce": 0,
            "overwritedBlockNumber": -1,
            "priorityFee": "",
            "receiver": "0xdd974d5c2e2928dea5f71b9825b8b646686bd200",
            "revertMessage": "",
            "sender": "0x3cb49ab082e02dda693b846f2f87b164fd25dbd0",
            "simulationEnable": true,
            "sourceTxnHash": "0xcfafc6be0d2a3435da678e7cece51f9ee239962ed06b9d68c4ded466da00cfe3",
            "status": true,
            "timestamp": "2017-10-19T01:49:40Z",
            "transactionFee": "0.000203011929827133",
            "txnHash": "0xcfafc6be0d2a3435da678e7cece51f9ee239962ed06b9d68c4ded466da00cfe3",
            "txnIndex": 27,
            "type": 0,
            "value": "0"
        },
        "fund_flow": [
            {
                "amount": "2,162",
                "from": "0x3cb49ab082e02dda693b846f2f87b164fd25dbd0",
                "id": 1,
                "isERC1155": false,
                "isERC721": false,
                "isReverted": false,
                "order": 1,
                "to": "0xb287a379e6caca6732e50b88d23c290aa990a892",
                "token": "0xdd974d5c2e2928dea5f71b9825b8b646686bd200"
            }
        ],
        "token_infos": [
            {
                "address": "0xeeeeeeeeeeeeeeeeeeeeeeeeeeeeeeeeeeeeeeee",
                "decimals": 18
            },
            {
                "address": "0xc02aaa39b223fe8d0a0e5c4f27ead9083c756cc2",
                "decimals": 18
            },
            {
                "address": "0xdd974d5c2e2928dea5f71b9825b8b646686bd200",
                "decimals": 18
            }
        ]
    },
    "address_label": {
        "labels": [
            {
                "address": "0xeeeeeeeeeeeeeeeeeeeeeeeeeeeeeeeeeeeeeeee",
                "label": "Ether"
            },
            {
                "address": "0xdd974d5c2e2928dea5f71b9825b8b646686bd200",
                "label": "Kyber: Old KNC Token"
            },
            {
                "address": "0x0000000000000000000000000000000000000001",
                "label": "Precompiled"
            },
            {
                "address": "0x0000000000000000000000000000000000000002",
                "label": "Precompiled"
            },
            {
                "address": "0x0000000000000000000000000000000000000003",
                "label": "Precompiled"
            },
            {
                "address": "0x0000000000000000000000000000000000000004",
                "label": "Precompiled"
            }
        ]
    },
    "trace": {
        "accountLabels": null,
        "dataMap": {
            "-1": {
                "invocation": {
                    "address": "0x3cb49ab082e02dda693b846f2f87b164fd25dbd0",
                    "callData": "",
                    "decodedMethod": null,
                    "errorInfo": "",
                    "fromAddress": "",
                    "gasUsed": 0,
                    "id": -1,
                    "methodDecoded": false,
                    "operation": "",
                    "output": "",
                    "revert": false,
                    "revertMessage": "",
                    "selector": "",
                    "status": false,
                    "value": ""
                },
                "nodeType": 0
            },
            "0": {
                "invocation": {
                    "address": "0xdd974d5c2e2928dea5f71b9825b8b646686bd200",
                    "callData": "0x000000000000000000000000b287a379e6caca6732e50b88d23c290aa990a89200000000000000000000000000000000000000000000007533c6f93baa880000",
                    "decodedMethod": {
                        "callParams": [
                            {
                                "name": "_to",
                                "type": "address",
                                "value": "0xb287a379e6caca6732e50b88d23c290aa990a892"
                            },
                            {
                                "decimalAvailable": true,
                                "name": "_value",
                                "type": "uint256",
                                "value": "2,162,000,000,000,000,000,000"
                            }
                        ],
                        "constructorArguments": "",
                        "name": "transfer",
                        "returnParams": [
                            {
                                "name": "",
                                "type": "bool",
                                "value": true
                            }
                        ],
                        "signature": "transfer(address,uint256)"
                    },
                    "errorInfo": "",
                    "fromAddress": "0x3cb49ab082e02dda693b846f2f87b164fd25dbd0",
                    "gasUsed": 22309,
                    "id": 0,
                    "methodDecoded": true,
                    "operation": "CALL",
                    "output": "0x0000000000000000000000000000000000000000000000000000000000000001",
                    "revert": false,
                    "revertMessage": "",
                    "selector": "0xa9059cbb",
                    "status": true,
                    "value": "0"
                },
                "nodeType": 0
            },
            "1": {
                "event": {
                    "contract": "0xdd974d5c2e2928dea5f71b9825b8b646686bd200",
                    "decodedLog": {
                        "name": "Transfer",
                        "params": [
                            {
                                "name": "_from",
                                "type": "address",
                                "value": "0x3cb49ab082e02dda693b846f2f87b164fd25dbd0"
                            },
                            {
                                "name": "_to",
                                "type": "address",
                                "value": "0xb287a379e6caca6732e50b88d23c290aa990a892"
                            },
                            {
                                "decimalAvailable": true,
                                "name": "_value",
                                "type": "uint256",
                                "value": "2,162,000,000,000,000,000,000"
                            }
                        ],
                        "signature": "Transfer(address,address,uint256)"
                    },
                    "id": 1,
                    "logData": "0x00000000000000000000000000000000000000000000007533c6f93baa880000",
                    "logDecoded": true,
                    "operation": "EVENT",
                    "revert": false,
                    "status": true,
                    "topics": [
                        "0xddf252ad1be2c89b69c2b068fc378daa952ba7f163c4a11628f55a4df523b3ef",
                        "0x0000000000000000000000003cb49ab082e02dda693b846f2f87b164fd25dbd0",
                        "0x000000000000000000000000b287a379e6caca6732e50b88d23c290aa990a892"
                    ]
                },
                "nodeType": 1
            }
        },
        "gasFlame": [
            {
                "children": [
                    {
                        "children": [
                            {
                                "children": [],
                                "depth": 0,
                                "name": "Initial Gas",
                                "value": 23256
                            },
                            {
                                "children": [],
                                "depth": 0,
                                "name": "Executed Gas",
                                "value": 14053
                            }
                        ],
                        "depth": -1,
                        "name": "Actual Gas Used",
                        "value": 22309
                    },
                    {
                        "children": [],
                        "depth": -1,
                        "name": "Refunded Gas",
                        "value": 15000
                    }
                ],
                "depth": -2,
                "name": "Total Gas",
                "value": 37309
            }
        ],
        "isConfirmed": true,
        "mainTrace": [
            {
                "children": [
                    {
                        "children": [
                            {
                                "children": [],
                                "depth": 1,
                                "id": 1,
                                "order": 1
                            }
                        ],
                        "depth": 0,
                        "id": 0,
                        "order": 0
                    }
                ],
                "depth": -1,
                "id": -1,
                "order": -1
            }
        ],
        "mainTraceNodeCount": 2,
        "parentIdMap": {
            "0": -1,
            "1": 0
        },
        "tidyTrace": [
            {
                "children": [
                    {
                        "children": [
                            {
                                "children": [],
                                "depth": 1,
                                "id": 1,
                                "order": 1
                            }
                        ],
                        "depth": 0,
                        "id": 0,
                        "order": 0
                    }
                ],
                "depth": -1,
                "id": -1,
                "order": -1
            }
        ],
        "tidyTraceNodeCount": 2
    },
    "state_change": {
        "stateChanges": [
            {
                "address": "0xdd974d5c2e2928dea5f71b9825b8b646686bd200",
                "erc": "ERC-20",
                "slots": [
                    {
                        "current": "0x0000000000000000000000000000000000000000000000000000000000000000",
                        "key": "0xaaa1a61bb9a38a102ce5bf158637bf0e18d5d45731090a224fde9156a90d27dd",
                        "prev": "0x00000000000000000000000000000000000000000000007533c6f93baa880000"
                    },
                    {
                        "current": "0x00000000000000000000000000000000000000000003be03ecfce7342cb79c00",
                        "key": "0x4f2d420ef7f811294b36ec481e1fe4eff3209c2acf322981f82ad29cde456df6",
                        "prev": "0x00000000000000000000000000000000000000000003bd8eb935edf8822f9c00"
                    }
                ],
                "storageVariables": [
                    {
                        "name": "balances",
                        "type": "mapping(address => uint256)",
                        "value": {
                            "pairs": [
                                {
                                    "key": "0x3cb49ab082e02dda693b846f2f87b164fd25dbd0",
                                    "value": {
                                        "current": "0",
                                        "prev": "2162000000000000000000",
                                        "typeTag": 1
                                    }
                                },
                                {
                                    "key": "0xb287a379e6caca6732e50b88d23c290aa990a892",
                                    "value": {
                                        "current": "4524099507599439600000000",
                                        "prev": "4521937507599439600000000",
                                        "typeTag": 1
                                    }
                                }
                            ],
                            "typeTag": 4
                        }
                    }
                ]
            }
        ]
    }
}