{
    "balance_change": {
        "balanceChanges": [
            {
                "account": "0x0000000000000000000000000000000000000000",
                "assets": [
                    {
                        "address": "0x8a6ed334b561842b7bf3f8130be02afaf69832af",
                        "amount": "25,000",
                        "iconUrl": "",
                        "isERC1155": false,
                        "isERC721": false,
                        "sign": false,
                        "value": ""
                    }
                ]
            },
            {
                "account": "0x6879eb51cad5c4d1dd182f93015ded91a6c89074",
                "assets": [
                    {
                        "address": "0x8a6ed334b561842b7bf3f8130be02afaf69832af",
                        "amount": "25,000",
                        "iconUrl": "",
                        "isERC1155": false,
                        "isERC721": false,
                        "sign": true,
                        "value": ""
                    }
                ]
            }
        ]
    },
    "profile": {
        "basic_info": {
            "baseFee": "",
            "blockNumber": 9672288,
            "callData": "0x40c10f190000000000000000000000006879eb51cad5c4d1dd182f93015ded91a6c8907400000000000000000000000000000000000000000000054b40b1f852bda00000",
            "debugEnable": true,
            "errorInfo": "",
            "eventCount": 1,
            "feeRecipient": "0xea674fdde714fd979de3edf0f56aa9716b898ec8",
            "formatValue": "0",
            "gasLimit": 2000000,
            "gasPrice": "25",
            "gasUsed": 38192,
            "intTxnCount": 0,
            "internalRevert": false,
            "internalRevertMessage": "",
            "isContractCreation": false,
            "isFlashloan": false,
            "maxFee": "",
            "nonce": 8039,
            "overwritedBlockNumber": -1,
            "priorityFee": "",
            "receiver": "0x8a6ed334b561842b7bf3f8130be02afaf69832af",
            "revertMessage": "",
            "sender": "0xe1a299e672ab95d63a556752751ab9fac8106d25",
            "simulationEnable": true,
            "sourceTxnHash": "0xcfa9cb86a6e42144251d3e960d8b8cd591a090a18b83699fe045bf943ca86d53",
            "status": true,
            "timestamp": "2020-03-14T22:30:10Z",
            "transactionFee": "0.0009548",
            "txnHash": "0xcfa9cb86a6e42144251d3e960d8b8cd591a090a18b83699fe045bf943ca86d53",
            "txnIndex": 15,
            "type": 0,
            "value": "0"
        },
        "fund_flow": [
            {
                "amount": "25,000",
                "from": "0x0000000000000000000000000000000000000000",
                "id": 1,
                "isERC1155": false,
                "isERC721": false,
                "isReverted": false,
                "order": 1,
                "to": "0x6879eb51cad5c4d1dd182f93015ded91a6c89074",
                "token": "0x8a6ed334b561842b7bf3f8130be02afaf69832af"
            }
        ],
        "token_infos": [
            {
                "address": "0x8a6ed334b561842b7bf3f8130be02afaf69832af",
                "decimals": 18
            },
            {
                "address": "0xc02aaa39b223fe8d0a0e5c4f27ead9083c756cc2",
                "decimals": 18
            },
            {
                "address": "0xeeeeeeeeeeeeeeeeeeeeeeeeeeeeeeeeeeeeeeee",
                "decimals": 18
            }
        ]
    },
    "address_label": {
        "labels": [
            {
                "address": "0xeeeeeeeeeeeeeeeeeeeeeeeeeeeeeeeeeeeeeeee",
                "label": "Ether"
            },
            {
                "address": "0x8a6ed334b561842b7bf3f8130be02afaf69832af",
                "label": "CMDX (CMDX)"
            },
            {
                "address": "0x0000000000000000000000000000000000000001",
                "label": "Precompiled"
            },
            {
                "address": "0x0000000000000000000000000000000000000002",
                "label": "Precompiled"
            },
            {
                "address": "0x0000000000000000000000000000000000000003",
                "label": "Precompiled"
            },
            {
                "address": "0x0000000000000000000000000000000000000004",
                "label": "Precompiled"
            }
        ]
    },
    "trace": {
        "accountLabels": null,
        "dataMap": {
            "-1": {
                "invocation": {
                    "address": "0xe1a299e672ab95d63a556752751ab9fac8106d25",
                    "callData": "",
                    "decodedMethod": null,
                    "errorInfo": "",
                    "fromAddress": "",
                    "gasUsed": 0,
                    "id": -1,
                    "methodDecoded": false,
                    "operation": "",
                    "output": "",
                    "revert": false,
                    "revertMessage": "",
                    "selector": "",
                    "status": false,
                    "value": ""
                },
                "nodeType": 0
            },
            "0": {
                "invocation": {
                    "address": "0x8a6ed334b561842b7bf3f8130be02afaf69832af",
                    "callData": "0x0000000000000000000000006879eb51cad5c4d1dd182f93015ded91a6c8907400000000000000000000000000000000000000000000054b40b1f852bda00000",
                    "decodedMethod": {
                        "callParams": [
                            {
                                "name": "account",
                                "type": "address",
                                "value": "0x6879eb51cad5c4d1dd182f93015ded91a6c89074"
                            },
                            {
                                "name": "amount",
                                "type": "uint256",
                                "value": "25,000,000,000,000,000,000,000"
                            }
                        ],
                        "constructorArguments": "",
                        "name": "mint",
                        "returnParams": [
                            {
                                "name": "",
                                "type": "bool",
                                "value": true
                            }
                        ],
                        "signature": "mint(address,uint256)"
                    },
                    "errorInfo": "",
                    "fromAddress": "0xe1a299e672ab95d63a556752751ab9fac8106d25",
                    "gasUsed": 38192,
                    "id": 0,
                    "methodDecoded": true,
                    "operation": "CALL",
                    "output": "0x0000000000000000000000000000000000000000000000000000000000000001",
                    "revert": false,
                    "revertMessage": "",
                    "selector": "0x40c10f19",
                    "status": true,
                    "value": "0"
                },
                "nodeType": 0
            },
            "1": {
                "event": {
                    "contract": "0x8a6ed334b561842b7bf3f8130be02afaf69832af",
                    "decodedLog": {
                        "name": "Transfer",
                        "params": [
                            {
                                "name": "from",
                                "type": "address",
                                "value": "0x0000000000000000000000000000000000000000"
                            },
                            {
                                "name": "to",
                                "type": "address",
                                "value": "0x6879eb51cad5c4d1dd182f93015ded91a6c89074"
                            },
                            {
                                "decimalAvailable": true,
                                "name": "value",
                                "type": "uint256",
                                "value": "25,000,000,000,000,000,000,000"
                            }
                        ],
                        "signature": "Transfer(address,address,uint256)"
                    },
                    "id": 1,
                    "logData": "0x00000000000000000000000000000000000000000000054b40b1f852bda00000",
                    "logDecoded": true,
                    "operation": "EVENT",
                    "revert": false,
                    "status": true,
                    "topics": [
                        "0xddf252ad1be2c89b69c2b068fc378daa952ba7f163c4a11628f55a4df523b3ef",
                        "0x0000000000000000000000000000000000000000000000000000000000000000",
                        "0x0000000000000000000000006879eb51cad5c4d1dd182f93015ded91a6c89074"
                    ]
                },
                "nodeType": 1
            }
        },
        "gasFlame": [
            {
                "children": [
                    {
                        "children": [
                            {
                                "children": [],
                                "depth": 0,
                                "name": "Initial Gas",
                                "value": 21656
                            },
                            {
                                "children": [],
                                "depth": 0,
                                "name": "Executed Gas",
                                "value": 16536
                            }
                        ],
                        "depth": -1,
                        "name": "Actual Gas Used",
                        "value": 38192
                    },
                    {
                        "children": [],
                        "depth": -1,
                        "name": "Refunded Gas",
                        "value": 0
                    }
                ],
                "depth": -2,
                "name": "Total Gas",
                "value": 38192
            }
        ],
        "isConfirmed": true,
        "mainTrace": [
            {
                "children": [
                    {
                        "children": [
                            {
                                "children": [],
                                "depth": 1,
                                "id": 1,
                                "order": 1
                            }
                        ],
                        "depth": 0,
                        "id": 0,
                        "order": 0
                    }
                ],
                "depth": -1,
                "id": -1,
                "order": -1
            }
        ],
        "mainTraceNodeCount": 2,
        "parentIdMap": {
            "0": -1,
            "1": 0
        },
        "tidyTrace": [
            {
                "children": [
                    {
                        "children": [
                            {
                                "children": [],
                                "depth": 1,
                                "id": 1,
                                "order": 1
                            }
                        ],
                        "depth": 0,
                        "id": 0,
                        "order": 0
                    }
                ],
                "depth": -1,
                "id": -1,
                "order": -1
            }
        ],
        "tidyTraceNodeCount": 2
    },
    "state_change": {
        "stateChanges": [
            {
                "address": "0x8a6ed334b561842b7bf3f8130be02afaf69832af",
                "erc": "ERC-20",
                "slots": [
                    {
                        "current": "0x00000000000000000000000000000000000000000002feb18326a3a6de750000",
                        "key": "0x50ceab1ca594eeef5931938349e392fb6b06edf6c06af562b3d836f56fd622b5",
                        "prev": "0x00000000000000000000000000000000000000000002f9664274ab5420d50000"
                    },
                    {
                        "current": "0x0000000000000000000000000000000000000000154afc2bbdf08b86968f0000",
                        "key": "0x0000000000000000000000000000000000000000000000000000000000000002",
                        "prev": "0x0000000000000000000000000000000000000000154af6e07d3e9333d8ef0000"
                    }
                ],
                "storageVariables": [
                    {
                        "name": "_totalSupply",
                        "type": "uint256",
                        "value": {
                            "current": "6589836560150000000000000000",
                            "prev": "6589811560150000000000000000",
                            "typeTag": 1
                        }
                    },
                    {
                        "name": "_balances",
                        "type": "mapping(address => uint256)",
                        "value": {
                            "pairs": [
                                {
                                    "key": "0x6879eb51cad5c4d1dd182f93015ded91a6c89074",
                                    "value": {
                                        "current": "3620607250000000000000000",
                                        "prev": "3595607250000000000000000",
                                        "typeTag": 1
                                    }
                                }
                            ],
                            "typeTag": 4
                        }
                    }
                ]
            }
        ]
    }
}