{
    "balance_change": {
        "balanceChanges": [
            {
                "account": "0xadeeb9d09b8bcee10943198fb6f6a4229bab3675",
                "assets": [
                    {
                        "address": "0x6b175474e89094c44da98b954eedeac495271d0f",
                        "amount": "9,691.101960786725000161",
                        "iconUrl": "https://assets.blocksec.com/icon/39aead569b9c011cb6f69734d9abbc9ab6a80049fe93bbd12bb473a3e0e859a3.png",
                        "isERC1155": false,
                        "isERC721": false,
                        "sign": false,
                        "value": ""
                    }
                ]
            },
            {
                "account": "0x794e6e91555438afc3ccf1c5076a74f42133d08d",
                "assets": [
                    {
                        "address": "0x6b175474e89094c44da98b954eedeac495271d0f",
                        "amount": "9,691.101960786725000161",
                        "iconUrl": "https://assets.blocksec.com/icon/39aead569b9c011cb6f69734d9abbc9ab6a80049fe93bbd12bb473a3e0e859a3.png",
                        "isERC1155": false,
                        "isERC721": false,
                        "sign": true,
                        "value": ""
                    }
                ]
            }
        ]
    },
    "profile": {
        "basic_info": {
            "baseFee": "",
            "blockNumber": 9682140,
            "callData": "0xe1a6f01400000000000000000000000000000000000000000000020d5b0e7fad404f53e10000000000000000000000006b175474e89094c44da98b954eedeac495271d0f000000000000000000000000000000000000000000000005a0fb12a3ca265deb000000000000000000000000c02aaa39b223fe8d0a0e5c4f27ead9083c756cc200000000000000000000000000000000000000000000000000000000000298d60000000000000000000000000000000000000000000000000000000000000001",
            "debugEnable": true,
            "errorInfo": "",
            "eventCount": 4,
            "feeRecipient": "0xea674fdde714fd979de3edf0f56aa9716b898ec8",
            "formatValue": "0",
            "gasLimit": 327187,
            "gasPrice": "65",
            "gasUsed": 232483,
            "intTxnCount": 1,
            "internalRevert": false,
            "internalRevertMessage": "",
            "isContractCreation": false,
            "isFlashloan": false,
            "maxFee": "",
            "nonce": 21510,
            "overwritedBlockNumber": -1,
            "priorityFee": "",
            "receiver": "0x794e6e91555438afc3ccf1c5076a74f42133d08d",
            "revertMessage": "",
            "sender": "0xadeeb9d09b8bcee10943198fb6f6a4229bab3675",
            "simulationEnable": true,
            "sourceTxnHash": "0xcfc2276e2a347c6bd0131f1f6f1c8dc14a6874a8638019f1ed4bbc0e6ce5fe58",
            "status": true,
            "timestamp": "2020-03-16T10:57:06Z",
            "transactionFee": "0.015111395",
            "txnHash": "0xcfc2276e2a347c6bd0131f1f6f1c8dc14a6874a8638019f1ed4bbc0e6ce5fe58",
            "txnIndex": 4,
            "type": 0,
            "value": "0"
        },
        "fund_flow": [
            {
                "amount": "9,691.101960786725000161",
                "from": "0xadeeb9d09b8bcee10943198fb6f6a4229bab3675",
                "id": 1,
                "isERC1155": false,
                "isERC721": false,
                "isReverted": false,
                "order": 1,
                "to": "0x794e6e91555438afc3ccf1c5076a74f42133d08d",
                "token": "0x6b175474e89094c44da98b954eedeac495271d0f"
            }
        ],
        "token_infos": [
            {
                "address": "0x6b175474e89094c44da98b954eedeac495271d0f",
                "decimals": 18
            },
            {
                "address": "0xc02aaa39b223fe8d0a0e5c4f27ead9083c756cc2",
                "decimals": 18
            },
            {
                "address": "0xeeeeeeeeeeeeeeeeeeeeeeeeeeeeeeeeeeeeeeee",
                "decimals": 18
            }
        ]
    },
    "address_label": {
        "labels": [
            {
                "address": "0xeeeeeeeeeeeeeeeeeeeeeeeeeeeeeeeeeeeeeeee",
                "label": "Ether"
            },
            {
                "address": "0x6b175474e89094c44da98b954eedeac495271d0f",
                "label": "Sky: Dai Stablecoin"
            },
            {
                "address": "0xc02aaa39b223fe8d0a0e5c4f27ead9083c756cc2",
                "label": "Wrapped Ether (WETH)"
            },
            {
                "address": "0x794e6e91555438afc3ccf1c5076a74f42133d08d",
                "label": "OasisDEX"
            },
            {
                "address": "0x0000000000000000000000000000000000000001",
                "label": "Precompiled"
            },
            {
                "address": "0x0000000000000000000000000000000000000002",
                "label": "Precompiled"
            },
            {
                "address": "0x0000000000000000000000000000000000000003",
                "label": "Precompiled"
            },
            {
                "address": "0x0000000000000000000000000000000000000004",
                "label": "Precompiled"
            }
        ]
    },
    "trace": {
        "accountLabels": null,
        "dataMap": {
            "-1": {
                "invocation": {
                    "address": "0xadeeb9d09b8bcee10943198fb6f6a4229bab3675",
                    "callData": "",
                    "decodedMethod": null,
                    "errorInfo": "",
                    "fromAddress": "",
                    "gasUsed": 0,
                    "id": -1,
                    "methodDecoded": false,
                    "operation": "",
                    "output": "",
                    "revert": false,
                    "revertMessage": "",
                    "selector": "",
                    "status": false,
                    "value": ""
                },
                "nodeType": 0
            },
            "0": {
                "invocation": {
                    "address": "0x794e6e91555438afc3ccf1c5076a74f42133d08d",
                    "callData": "0x00000000000000000000000000000000000000000000020d5b0e7fad404f53e10000000000000000000000006b175474e89094c44da98b954eedeac495271d0f000000000000000000000000000000000000000000000005a0fb12a3ca265deb000000000000000000000000c02aaa39b223fe8d0a0e5c4f27ead9083c756cc200000000000000000000000000000000000000000000000000000000000298d60000000000000000000000000000000000000000000000000000000000000001",
                    "decodedMethod": {
                        "callParams": [
                            {
                                "name": "pay_amt",
                                "type": "uint256",
                                "value": "9,691,101,960,786,725,000,161"
                            },
                            {
                                "name": "pay_gem",
                                "type": "address",
                                "value": "0x6b175474e89094c44da98b954eedeac495271d0f"
                            },
                            {
                                "name": "buy_amt",
                                "type": "uint256",
                                "value": "103,833,606,128,451,083,755"
                            },
                            {
                                "name": "buy_gem",
                                "type": "address",
                                "value": "0xc02aaa39b223fe8d0a0e5c4f27ead9083c756cc2"
                            },
                            {
                                "name": "pos",
                                "type": "uint256",
                                "value": "170,198"
                            },
                            {
                                "name": "rounding",
                                "type": "bool",
                                "value": true
                            }
                        ],
                        "constructorArguments": "",
                        "name": "offer",
                        "returnParams": [
                            {
                                "name": "",
                                "type": "uint256",
                                "value": "170,202"
                            }
                        ],
                        "signature": "offer(uint256,address,uint256,address,uint256,bool)"
                    },
                    "errorInfo": "",
                    "fromAddress": "0xadeeb9d09b8bcee10943198fb6f6a4229bab3675",
                    "gasUsed": 232483,
                    "id": 0,
                    "methodDecoded": true,
                    "operation": "CALL",
                    "output": "0x00000000000000000000000000000000000000000000000000000000000298da",
                    "revert": false,
                    "revertMessage": "",
                    "selector": "0xe1a6f014",
                    "status": true,
                    "value": "0"
                },
                "nodeType": 0
            },
            "1": {
                "invocation": {
                    "address": "0x6b175474e89094c44da98b954eedeac495271d0f",
                    "callData": "0x000000000000000000000000adeeb9d09b8bcee10943198fb6f6a4229bab3675000000000000000000000000794e6e91555438afc3ccf1c5076a74f42133d08d00000000000000000000000000000000000000000000020d5b0e7fad404f53e1",
                    "decodedMethod": {
                        "callParams": [
                            {
                                "name": "src",
                                "type": "address",
                                "value": "0xadeeb9d09b8bcee10943198fb6f6a4229bab3675"
                            },
                            {
                                "name": "dst",
                                "type": "address",
                                "value": "0x794e6e91555438afc3ccf1c5076a74f42133d08d"
                            },
                            {
                                "decimalAvailable": true,
                                "name": "wad",
                                "type": "uint256",
                                "value": "9,691,101,960,786,725,000,161"
                            }
                        ],
                        "constructorArguments": "",
                        "name": "transferFrom",
                        "returnParams": [
                            {
                                "name": "",
                                "type": "bool",
                                "value": true
                            }
                        ],
                        "signature": "transferFrom(address,address,uint256)"
                    },
                    "errorInfo": "",
                    "fromAddress": "0x794e6e91555438afc3ccf1c5076a74f42133d08d",
                    "gasUsed": 16418,
                    "id": 1,
                    "methodDecoded": true,
                    "operation": "CALL",
                    "output": "0x0000000000000000000000000000000000000000000000000000000000000001",
                    "revert": false,
                    "revertMessage": "",
                    "selector": "0x23b872dd",
                    "status": true,
                    "value": "0"
                },
                "nodeType": 0
            },
            "2": {
                "event": {
                    "contract": "0x6b175474e89094c44da98b954eedeac495271d0f",
                    "decodedLog": {
                        "name": "Transfer",
                        "params": [
                            {
                                "name": "src",
                                "type": "address",
                                "value": "0xadeeb9d09b8bcee10943198fb6f6a4229bab3675"
                            },
                            {
                                "name": "dst",
                                "type": "address",
                                "value": "0x794e6e91555438afc3ccf1c5076a74f42133d08d"
                            },
                            {
                                "decimalAvailable": true,
                                "name": "wad",
                                "type": "uint256",
                                "value": "9,691,101,960,786,725,000,161"
                            }
                        ],
                        "signature": "Transfer(address,address,uint256)"
                    },
                    "id": 2,
                    "logData": "0x00000000000000000000000000000000000000000000020d5b0e7fad404f53e1",
                    "logDecoded": true,
                    "operation": "EVENT",
                    "revert": false,
                    "status": true,
                    "topics": [
                        "0xddf252ad1be2c89b69c2b068fc378daa952ba7f163c4a11628f55a4df523b3ef",
                        "0x000000000000000000000000adeeb9d09b8bcee10943198fb6f6a4229bab3675",
                        "0x000000000000000000000000794e6e91555438afc3ccf1c5076a74f42133d08d"
                    ]
                },
                "nodeType": 1
            },
            "3": {
                "event": {
                    "contract": "0x794e6e91555438afc3ccf1c5076a74f42133d08d",
                    "decodedLog": {
                        "name": "LogItemUpdate",
                        "params": [
                            {
                                "name": "id",
                                "type": "uint256",
                                "value": "170,202"
                            }
                        ],
                        "signature": "LogItemUpdate(uint256)"
                    },
                    "id": 3,
                    "logData": "0x00000000000000000000000000000000000000000000000000000000000298da",
                    "logDecoded": true,
                    "operation": "EVENT",
                    "revert": false,
                    "status": true,
                    "topics": [
                        "0xa2c251311b1a7a475913900a2a73dc9789a21b04bc737e050bbc506dd4eb3488"
                    ]
                },
                "nodeType": 1
            },
            "4": {
                "event": {
                    "contract": "0x794e6e91555438afc3ccf1c5076a74f42133d08d",
                    "decodedLog": {
                        "name": "LogMake",
                        "params": [
                            {
                                "name": "id",
                                "type": "bytes32",
                                "value": "0x00000000000000000000000000000000000000000000000000000000000298da"
                            },
                            {
                                "name": "pair",
                                "type": "bytes32",
                                "value": "0x7bda8b27e891f9687bd6d3312ab3f4f458e2cc91916429d721d617df7ac29fb8"
                            },
                            {
                                "name": "maker",
                                "type": "address",
                                "value": "0xadeeb9d09b8bcee10943198fb6f6a4229bab3675"
                            },
                            {
                                "name": "pay_gem",
                                "type": "address",
                                "value": "0x6b175474e89094c44da98b954eedeac495271d0f"
                            },
                            {
                                "name": "buy_gem",
                                "type": "address",
                                "value": "0xc02aaa39b223fe8d0a0e5c4f27ead9083c756cc2"
                            },
                            {
                                "name": "pay_amt",
                                "type": "uint128",
                                "value": "9,691,101,960,786,725,000,161"
                            },
                            {
                                "name": "buy_amt",
                                "type": "uint128",
                                "value": "103,833,606,128,451,083,755"
                            },
                            {
                                "name": "timestamp",
                                "type": "uint64",
                                "value": "1,584,356,226"
                            }
                        ],
                        "signature": "LogMake(bytes32,bytes32,address,address,address,uint128,uint128,uint64)"
                    },
                    "id": 4,
                    "logData": "0x0000000000000000000000006b175474e89094c44da98b954eedeac495271d0f000000000000000000000000c02aaa39b223fe8d0a0e5c4f27ead9083c756cc200000000000000000000000000000000000000000000020d5b0e7fad404f53e1000000000000000000000000000000000000000000000005a0fb12a3ca265deb000000000000000000000000000000000000000000000000000000005e6f5b82",
                    "logDecoded": true,
                    "operation": "EVENT",
                    "revert": false,
                    "status": true,
                    "topics": [
                        "0x773ff502687307abfa024ac9f62f9752a0d210dac2ffd9a29e38e12e2ea82c82",
                        "0x00000000000000000000000000000000000000000000000000000000000298da",
                        "0x7bda8b27e891f9687bd6d3312ab3f4f458e2cc91916429d721d617df7ac29fb8",
                        "0x000000000000000000000000adeeb9d09b8bcee10943198fb6f6a4229bab3675"
                    ]
                },
                "nodeType": 1
            },
            "5": {
                "event": {
                    "contract": "0x794e6e91555438afc3ccf1c5076a74f42133d08d",
                    "decodedLog": {
                        "name": "LogSortedOffer",
                        "params": [
                            {
                                "name": "id",
                                "type": "uint256",
                                "value": "170,202"
                            }
                        ],
                        "signature": "LogSortedOffer(uint256)"
                    },
                    "id": 5,
                    "logData": "0x00000000000000000000000000000000000000000000000000000000000298da",
                    "logDecoded": true,
                    "operation": "EVENT",
                    "revert": false,
                    "status": true,
                    "topics": [
                        "0x20fb9bad86c18f7e22e8065258790d9416a7d2df8ff05f80f82c46d38b925acd"
                    ]
                },
                "nodeType": 1
            }
        },
        "gasFlame": [
            {
                "children": [
                    {
                        "children": [
                            {
                                "children": [],
                                "depth": 0,
                                "name": "Initial Gas",
                                "value": 22588
                            },
                            {
                                "children": [
                                    {
                                        "children": [],
                                        "depth": 1,
                                        "name": "transferFrom",
                                        "value": 16418
                                    }
                                ],
                                "depth": 0,
                                "name": "Executed Gas",
                                "value": 229095
                            }
                        ],
                        "depth": -1,
                        "name": "Actual Gas Used",
                        "value": 232483
                    },
                    {
                        "children": [],
                        "depth": -1,
                        "name": "Refunded Gas",
                        "value": 19200
                    }
                ],
                "depth": -2,
                "name": "Total Gas",
                "value": 251683
            }
        ],
        "isConfirmed": true,
        "mainTrace": [
            {
                "children": [
                    {
                        "children": [
                            {
                                "children": [
                                    {
                                        "children": [],
                                        "depth": 2,
                                        "id": 2,
                                        "order": 2
                                    }
                                ],
                                "depth": 1,
                                "id": 1,
                                "order": 1
                            },
                            {
                                "children": [],
                                "depth": 1,
                                "id": 3,
                                "order": 3
                            },
                            {
                                "children": [],
                                "depth": 1,
                                "id": 4,
                                "order": 4
                            },
                            {
                                "children": [],
                                "depth": 1,
                                "id": 5,
                                "order": 5
                            }
                        ],
                        "depth": 0,
                        "id": 0,
                        "order": 0
                    }
                ],
                "depth": -1,
                "id": -1,
                "order": -1
            }
        ],
        "mainTraceNodeCount": 6,
        "parentIdMap": {
            "0": -1,
            "1": 0,
            "2": 1,
            "3": 0,
            "4": 0,
            "5": 0
        },
        "tidyTrace": [
            {
                "children": [
                    {
                        "children": [
                            {
                                "children": [
                                    {
                                        "children": [],
                                        "depth": 2,
                                        "id": 2,
                                        "order": 2
                                    }
                                ],
                                "depth": 1,
                                "id": 1,
                                "order": 1
                            },
                            {
                                "children": [],
                                "depth": 1,
                                "id": 3,
                                "order": 3
                            },
                            {
                                "children": [],
                                "depth": 1,
                                "id": 4,
                                "order": 4
                            },
                            {
                                "children": [],
                                "depth": 1,
                                "id": 5,
                                "order": 5
                            }
                        ],
                        "depth": 0,
                        "id": 0,
                        "order": 0
                    }
                ],
                "depth": -1,
                "id": -1,
                "order": -1
            }
        ],
        "tidyTraceNodeCount": 6
    },
    "state_change": {
        "stateChanges": [
            {
                "address": "0x6b175474e89094c44da98b954eedeac495271d0f",
                "erc": "ERC-20",
                "slots": [
                    {
                        "current": "0x0000000000000000000000000000000000000000000000000000000000000000",
                        "key": "0x7f1993b0a0c6fcf5ee510b5e4b5a8454db14bf2c42655924d6710e5e7dbc2825",
                        "prev": "0x00000000000000000000000000000000000000000000020d5b0e7fad404f53e1"
                    },
                    {
                        "current": "0x00000000000000000000000000000000000000000000e8ced4a9dd4fc07d6f09",
                        "key": "0xf2d8227c0711032ed91916fbc0bb548171ff01039cf00685c535178c7f0639c8",
                        "prev": "0x00000000000000000000000000000000000000000000e6c1799b5da2802e1b28"
                    }
                ],
                "storageVariables": [
                    {
                        "name": "balanceOf",
                        "type": "mapping(address => uint256)",
                        "value": {
                            "pairs": [
                                {
                                    "key": "0x794e6e91555438afc3ccf1c5076a74f42133d08d",
                                    "value": {
                                        "current": "1099404377327483563634441",
                                        "prev": "1089713275366696838634280",
                                        "typeTag": 1
                                    }
                                },
                                {
                                    "key": "0xadeeb9d09b8bcee10943198fb6f6a4229bab3675",
                                    "value": {
                                        "current": "0",
                                        "prev": "9691101960786725000161",
                                        "typeTag": 1
                                    }
                                }
                            ],
                            "typeTag": 4
                        }
                    }
                ]
            },
            {
                "address": "0x794e6e91555438afc3ccf1c5076a74f42133d08d",
                "erc": "",
                "slots": [
                    {
                        "current": "0x0000000000000000000000006b175474e89094c44da98b954eedeac495271d0f",
                        "key": "0x5e8bb5d3f480d52690d85e3a18eec7d1064ce11e94b385d9e1714df946385b25",
                        "prev": "0x0000000000000000000000000000000000000000000000000000000000000000"
                    },
                    {
                        "current": "0x00000000000000000000000000000000000000000000000000000000000298d6",
                        "key": "0xae9195116d2ae58ed3b8fd9e21718f17cb2c15c703586e899ebd575230483619",
                        "prev": "0x0000000000000000000000000000000000000000000000000000000000000000"
                    },
                    {
                        "current": "0x000000000000000000000000000000000000000000000000000000000000005a",
                        "key": "0x7ddeff309f21f605a22a450ceded345c6aa72940361b04764fcfc584c2bad562",
                        "prev": "0x0000000000000000000000000000000000000000000000000000000000000059"
                    },
                    {
                        "current": "0x00000000000000000000000000000000000000000000000000000000000298da",
                        "key": "0x0452bc9a3640461b3425494b3d11ec33a138c76ee054a9842b155f6acd1fc7dd",
                        "prev": "0x00000000000000000000000000000000000000000000000000000000000298d6"
                    },
                    {
                        "current": "0x00000000000000000000000000000000000000000000000000000000000298d4",
                        "key": "0xae9195116d2ae58ed3b8fd9e21718f17cb2c15c703586e899ebd575230483618",
                        "prev": "0x0000000000000000000000000000000000000000000000000000000000000000"
                    },
                    {
                        "current": "0x00000000000000000000000000000000000000000000000000000000000298da",
                        "key": "0xd56c064de0208d385d15588a368e70f15ddf27a41bbf4272d21f9c53fc41dfcb",
                        "prev": "0x00000000000000000000000000000000000000000000000000000000000298d4"
                    },
                    {
                        "current": "0x000000000000000000000000000000000000000000000005a0fb12a3ca265deb",
                        "key": "0x5e8bb5d3f480d52690d85e3a18eec7d1064ce11e94b385d9e1714df946385b26",
                        "prev": "0x0000000000000000000000000000000000000000000000000000000000000000"
                    },
                    {
                        "current": "0x000000000000000000000000c02aaa39b223fe8d0a0e5c4f27ead9083c756cc2",
                        "key": "0x5e8bb5d3f480d52690d85e3a18eec7d1064ce11e94b385d9e1714df946385b27",
                        "prev": "0x0000000000000000000000000000000000000000000000000000000000000000"
                    },
                    {
                        "current": "0x00000000000000000000000000000000000000000000000000000000000298da",
                        "key": "0x0000000000000000000000000000000000000000000000000000000000000002",
                        "prev": "0x00000000000000000000000000000000000000000000000000000000000298d9"
                    },
                    {
                        "current": "0x00000000000000000000000000000000000000000000020d5b0e7fad404f53e1",
                        "key": "0x5e8bb5d3f480d52690d85e3a18eec7d1064ce11e94b385d9e1714df946385b24",
                        "prev": "0x0000000000000000000000000000000000000000000000000000000000000000"
                    },
                    {
                        "current": "0x00000000000000005e6f5b82adeeb9d09b8bcee10943198fb6f6a4229bab3675",
                        "key": "0x5e8bb5d3f480d52690d85e3a18eec7d1064ce11e94b385d9e1714df946385b28",
                        "prev": "0x0000000000000000000000000000000000000000000000000000000000000000"
                    }
                ],
                "storageVariables": [
                    {
                        "name": "offers",
                        "type": "mapping(uint256 => struct SimpleMarket.OfferInfo)",
                        "value": {
                            "pairs": [
                                {
                                    "key": "170202",
                                    "value": {
                                        "fields": [
                                            {
                                                "name": "pay_amt",
                                                "type": "uint256",
                                                "value": {
                                                    "current": "9691101960786725000161",
                                                    "prev": "0",
                                                    "typeTag": 1
                                                }
                                            },
                                            {
                                                "name": "pay_gem",
                                                "type": "contract ERC20",
                                                "value": {
                                                    "current": "0x6b175474e89094c44da98b954eedeac495271d0f",
                                                    "prev": "0x0000000000000000000000000000000000000000",
                                                    "typeTag": 1
                                                }
                                            },
                                            {
                                                "name": "buy_amt",
                                                "type": "uint256",
                                                "value": {
                                                    "current": "103833606128451083755",
                                                    "prev": "0",
                                                    "typeTag": 1
                                                }
                                            },
                                            {
                                                "name": "buy_gem",
                                                "type": "contract ERC20",
                                                "value": {
                                                    "current": "0xc02aaa39b223fe8d0a0e5c4f27ead9083c756cc2",
                                                    "prev": "0x0000000000000000000000000000000000000000",
                                                    "typeTag": 1
                                                }
                                            },
                                            {
                                                "name": "owner",
                                                "type": "address",
                                                "value": {
                                                    "current": "0xadeeb9d09b8bcee10943198fb6f6a4229bab3675",
                                                    "prev": "0x0000000000000000000000000000000000000000",
                                                    "typeTag": 1
                                                }
                                            },
                                            {
                                                "name": "timestamp",
                                                "type": "uint64",
                                                "value": {
                                                    "current": "1584356226",
                                                    "prev": "0",
                                                    "typeTag": 1
                                                }
                                            }
                                        ],
                                        "typeTag": 3
                                    }
                                }
                            ],
                            "typeTag": 4
                        }
                    },
                    {
                        "name": "_rank",
                        "type": "mapping(uint256 => struct MatchingMarket.sortInfo)",
                        "value": {
                            "pairs": [
                                {
                                    "key": "170196",
                                    "value": {
                                        "fields": [
                                            {
                                                "name": "prev",
                                                "type": "uint256",
                                                "value": {
                                                    "current": "170202",
                                                    "prev": "170198",
                                                    "typeTag": 1
                                                }
                                            }
                                        ],
                                        "typeTag": 3
                                    }
                                },
                                {
                                    "key": "170198",
                                    "value": {
                                        "fields": [
                                            {
                                                "name": "next",
                                                "type": "uint256",
                                                "value": {
                                                    "current": "170202",
                                                    "prev": "170196",
                                                    "typeTag": 1
                                                }
                                            }
                                        ],
                                        "typeTag": 3
                                    }
                                },
                                {
                                    "key": "170202",
                                    "value": {
                                        "fields": [
                                            {
                                                "name": "next",
                                                "type": "uint256",
                                                "value": {
                                                    "current": "170196",
                                                    "prev": "0",
                                                    "typeTag": 1
                                                }
                                            },
                                            {
                                                "name": "prev",
                                                "type": "uint256",
                                                "value": {
                                                    "current": "170198",
                                                    "prev": "0",
                                                    "typeTag": 1
                                                }
                                            }
                                        ],
                                        "typeTag": 3
                                    }
                                }
                            ],
                            "typeTag": 4
                        }
                    },
                    {
                        "name": "_span",
                        "type": "mapping(address => mapping(address => uint256))",
                        "value": {
                            "pairs": [
                                {
                                    "key": "0x6b175474e89094c44da98b954eedeac495271d0f",
                                    "value": {
                                        "pairs": [
                                            {
                                                "key": "0xc02aaa39b223fe8d0a0e5c4f27ead9083c756cc2",
                                                "value": {
                                                    "current": "90",
                                                    "prev": "89",
                                                    "typeTag": 1
                                                }
                                            }
                                        ],
                                        "typeTag": 4
                                    }
                                }
                            ],
                            "typeTag": 4
                        }
                    },
                    {
                        "name": "last_offer_id",
                        "type": "uint256",
                        "value": {
                            "current": "170202",
                            "prev": "170201",
                            "typeTag": 1
                        }
                    }
                ]
            }
        ]
    }
}