{
    "balance_change": {
        "balanceChanges": []
    },
    "profile": {
        "basic_info": {
            "baseFee": "35.40003418",
            "blockNumber": 14472087,
            "callData": "0x095ea7b3000000000000000000000000362a80d4c5cf2a1c4c134cde21836f6fc2ae81ce000000000000000000000000000000000000314dc6448d9338c15b0a00000000",
            "debugEnable": true,
            "errorInfo": "",
            "eventCount": 1,
            "feeRecipient": "0x433022c4066558e7a32d850f02d2da5ca782174d",
            "formatValue": "0",
            "gasLimit": 46345,
            "gasPrice": "36.90003418",
            "gasUsed": 46345,
            "intTxnCount": 0,
            "internalRevert": false,
            "internalRevertMessage": "",
            "isContractCreation": false,
            "isFlashloan": false,
            "maxFee": "43.311456279",
            "nonce": 9,
            "overwritedBlockNumber": -1,
            "priorityFee": "1.5",
            "receiver": "0x7d5121505149065b562c789a0145ed750e6e8cdd",
            "revertMessage": "",
            "sender": "0xe56453fb7e93cb113eca8d12e1747826a956b7cb",
            "simulationEnable": true,
            "sourceTxnHash": "0xcfd659e6c7c2196df26ad20d03863c1e6461d417e0af591812d0291d4b5bdf6b",
            "status": true,
            "timestamp": "2022-03-28T02:45:53Z",
            "transactionFee": "0.0017101320840721",
            "txnHash": "0xcfd659e6c7c2196df26ad20d03863c1e6461d417e0af591812d0291d4b5bdf6b",
            "txnIndex": 153,
            "type": 2,
            "value": "0"
        },
        "fund_flow": [],
        "token_infos": [
            {
                "address": "0xc02aaa39b223fe8d0a0e5c4f27ead9083c756cc2",
                "decimals": 18
            },
            {
                "address": "0xeeeeeeeeeeeeeeeeeeeeeeeeeeeeeeeeeeeeeeee",
                "decimals": 18
            }
        ]
    },
    "address_label": {
        "labels": [
            {
                "address": "0x0000000000000000000000000000000000000004",
                "label": "Precompiled"
            },
            {
                "address": "0xeeeeeeeeeeeeeeeeeeeeeeeeeeeeeeeeeeeeeeee",
                "label": "Ether"
            },
            {
                "address": "0x362a80d4c5cf2a1c4c134cde21836f6fc2ae81ce",
                "label": "StakeVR"
            },
            {
                "address": "0x7d5121505149065b562c789a0145ed750e6e8cdd",
                "label": "VICTORIA VR: VR Token"
            },
            {
                "address": "0x0000000000000000000000000000000000000001",
                "label": "Precompiled"
            },
            {
                "address": "0x0000000000000000000000000000000000000002",
                "label": "Precompiled"
            },
            {
                "address": "0x0000000000000000000000000000000000000003",
                "label": "Precompiled"
            }
        ]
    },
    "trace": {
        "accountLabels": null,
        "dataMap": {
            "-1": {
                "invocation": {
                    "address": "0xe56453fb7e93cb113eca8d12e1747826a956b7cb",
                    "callData": "",
                    "decodedMethod": null,
                    "errorInfo": "",
                    "fromAddress": "",
                    "gasUsed": 0,
                    "id": -1,
                    "methodDecoded": false,
                    "operation": "",
                    "output": "",
                    "revert": false,
                    "revertMessage": "",
                    "selector": "",
                    "status": false,
                    "value": ""
                },
                "nodeType": 0
            },
            "0": {
                "invocation": {
                    "address": "0x7d5121505149065b562c789a0145ed750e6e8cdd",
                    "callData": "0x000000000000000000000000362a80d4c5cf2a1c4c134cde21836f6fc2ae81ce000000000000000000000000000000000000314dc6448d9338c15b0a00000000",
                    "decodedMethod": {
                        "callParams": [
                            {
                                "name": "spender",
                                "type": "address",
                                "value": "0x362a80d4c5cf2a1c4c134cde21836f6fc2ae81ce"
                            },
                            {
                                "decimalAvailable": true,
                                "name": "amount",
                                "type": "uint256",
                                "value": "1,000,000,000,000,000,000,000,000,000,000,000"
                            }
                        ],
                        "constructorArguments": "",
                        "name": "approve",
                        "returnParams": [
                            {
                                "name": "",
                                "type": "bool",
                                "value": true
                            }
                        ],
                        "signature": "approve(address,uint256)"
                    },
                    "errorInfo": "",
                    "fromAddress": "0xe56453fb7e93cb113eca8d12e1747826a956b7cb",
                    "gasUsed": 46345,
                    "id": 0,
                    "methodDecoded": true,
                    "operation": "CALL",
                    "output": "0x0000000000000000000000000000000000000000000000000000000000000001",
                    "revert": false,
                    "revertMessage": "",
                    "selector": "0x095ea7b3",
                    "status": true,
                    "value": "0"
                },
                "nodeType": 0
            },
            "1": {
                "event": {
                    "contract": "0x7d5121505149065b562c789a0145ed750e6e8cdd",
                    "decodedLog": {
                        "name": "Approval",
                        "params": [
                            {
                                "name": "owner",
                                "type": "address",
                                "value": "0xe56453fb7e93cb113eca8d12e1747826a956b7cb"
                            },
                            {
                                "name": "spender",
                                "type": "address",
                                "value": "0x362a80d4c5cf2a1c4c134cde21836f6fc2ae81ce"
                            },
                            {
                                "decimalAvailable": true,
                                "name": "value",
                                "type": "uint256",
                                "value": "1,000,000,000,000,000,000,000,000,000,000,000"
                            }
                        ],
                        "signature": "Approval(address,address,uint256)"
                    },
                    "id": 1,
                    "logData": "0x000000000000000000000000000000000000314dc6448d9338c15b0a00000000",
                    "logDecoded": true,
                    "operation": "EVENT",
                    "revert": false,
                    "status": true,
                    "topics": [
                        "0x8c5be1e5ebec7d5bd14f71427d1e84f3dd0314c0f7b2291e5b200ac8c7c3b925",
                        "0x000000000000000000000000e56453fb7e93cb113eca8d12e1747826a956b7cb",
                        "0x000000000000000000000000362a80d4c5cf2a1c4c134cde21836f6fc2ae81ce"
                    ]
                },
                "nodeType": 1
            }
        },
        "gasFlame": [
            {
                "children": [
                    {
                        "children": [
                            {
                                "children": [],
                                "depth": 0,
                                "name": "Initial Gas",
                                "value": 21680
                            },
                            {
                                "children": [],
                                "depth": 0,
                                "name": "Executed Gas",
                                "value": 24665
                            }
                        ],
                        "depth": -1,
                        "name": "Actual Gas Used",
                        "value": 46345
                    },
                    {
                        "children": [],
                        "depth": -1,
                        "name": "Refunded Gas",
                        "value": 0
                    }
                ],
                "depth": -2,
                "name": "Total Gas",
                "value": 46345
            }
        ],
        "isConfirmed": true,
        "mainTrace": [
            {
                "children": [
                    {
                        "children": [
                            {
                                "children": [],
                                "depth": 1,
                                "id": 1,
                                "order": 1
                            }
                        ],
                        "depth": 0,
                        "id": 0,
                        "order": 0
                    }
                ],
                "depth": -1,
                "id": -1,
                "order": -1
            }
        ],
        "mainTraceNodeCount": 2,
        "parentIdMap": {
            "0": -1,
            "1": 0
        },
        "tidyTrace": [
            {
                "children": [
                    {
                        "children": [
                            {
                                "children": [],
                                "depth": 1,
                                "id": 1,
                                "order": 1
                            }
                        ],
                        "depth": 0,
                        "id": 0,
                        "order": 0
                    }
                ],
                "depth": -1,
                "id": -1,
                "order": -1
            }
        ],
        "tidyTraceNodeCount": 2
    },
    "state_change": {
        "stateChanges": [
            {
                "address": "0x7d5121505149065b562c789a0145ed750e6e8cdd",
                "erc": "ERC-20",
                "slots": [
                    {
                        "current": "0x000000000000000000000000000000000000314dc6448d9338c15b0a00000000",
                        "key": "0x061894992a81723c89ef050e41c84b8a5a801a15db6a2adb4ba137ceab6b7f97",
                        "prev": "0x0000000000000000000000000000000000000000000000000000000000000000"
                    }
                ],
                "storageVariables": [
                    {
                        "name": "_allowances",
                        "type": "mapping(address => mapping(address => uint256))",
                        "value": {
                            "pairs": [
                                {
                                    "key": "0xe56453fb7e93cb113eca8d12e1747826a956b7cb",
                                    "value": {
                                        "pairs": [
                                            {
                                                "key": "0x362a80d4c5cf2a1c4c134cde21836f6fc2ae81ce",
                                                "value": {
                                                    "current": "1000000000000000000000000000000000",
                                                    "prev": "0",
                                                    "typeTag": 1
                                                }
                                            }
                                        ],
                                        "typeTag": 4
                                    }
                                }
                            ],
                            "typeTag": 4
                        }
                    }
                ]
            }
        ]
    }
}