{
    "balance_change": {
        "balanceChanges": []
    },
    "profile": {
        "basic_info": {
            "baseFee": "15.366407053",
            "blockNumber": 19056329,
            "callData": "0x31fa742d00000000000000000000000000000000000000000000000000000000000000a009cfd8eecfa37de46e0901c46423ccfa97b839084ed6e23dd13203e85c42f06210052f6c9ae935634a8c91ee554953a15b70fe309ae3d1bbd78cb8ba0fab0585c519fb61d2d70733718c611d27a89fc7e2ff2c5a1aa302fdf01122e5073a55ea0000000000000000000000000000000000000000000000000000000000000120000000000000000000000000000000000000000000000000000000000000005900000000000000ea6b0000000000000000000000000001dd884dd28e31e8150dee4624092edb3944197041825152a493430f8141b9b26a1d8585f79114b446e8638000f4f24f881046b7e422f727536751668f084ebe5612d90000000000000000000000000000000000000000000000000000000000000000000000000006e000000000000000000000000000000000000000000096b259a2dcbdc8b6d938b500000000000000000000000000000000000000000032853747d6cf724776f123000000000000000000000000000000000000000000001e76979323e9db4fb3e50000000000000000000000000000000000000000004ef5403b7c0c527c77346a0000000000000000000000000000000000000000002f8dcc00eef2b1e5c6cb300000000000000000000000000000000000000000000018b682b78736c4d0640700000000000000000000000000000000000000000054f1fd3217b7a40cc71af5000000000000000000000000000000000000000000f372d2d82b2136ecc294e2000000000000000000000000000000000000000000000a1a8c39f42661e506d60000000000000000000000000000000000000000000a5124c44e587ee99b3b2e0000000000000000000000000000000000000000003ab92f33a5e1d2f1f899b0000000000000000000000000000000000000000000000b72646b9cc473a0bbf100f4f856cdc7ece764faeedb697f99ea4961b422851b16feac38d6f89c5cf0061885e898cc65bca90d09f00e84d4858aad7cdc53bcad77343561dfd47a00da6510ca66285168de37567b060fa7412cad5a69c81cc57cfea8beaf156d0c29018b19414d5577b5be265cc6364c7b03219ad00ccf101638d7b677cc74c991812da3303f3905be5be4ffc138f1193d534e051260dab7af47f8f1d63e12a15bc749f5046942dbb9d28ac5b0811e5aeaece5b863769af16119b397b68850011972d7e915ea340aeda37a3481c3480d17a178835d99d72dc3ae50785bd6b5b90258b4b803311b253130396040c47f8053eb7c0024bfdfed0117e5dac8c3e58dbd35d68622de4ed9c72e6e4f8c9644a753c8443b92863d2dbca47586f8529fea3f54edf400b27290c27a2fa696dd5be5b0e09b3b9d7f431074d60222fca362c2fce4633d00000000000000000000000000000000000000000000000000000000000000010000000000000000000000000000000000000000000000000000000000000002041a22e5b318cf819af3ba36b1ac93e94ce8d87822b0684c4e9e9fc98f7ea16518ec7a275cef9e134a4860ee8b1b4990367bd77e6f50d27caa91b96df9230fc6151ed8a60095cd9417455b8f6a9205a46dceb1a1bb2d8c609d8de49c28ae03a70e996d1b80ae85ce0d3ab6f8e19b5a19888d97ad8148d46664534c472b39b2192ea6216f9b45ce3e4a2309a9e5e86e26bfd173c8068c3b1ff79195eab2864524176e82d57f538a091666e550d47f0eaf6723e88e98a8c6e0cbeadf3e465cc9fa26e0db76e20e9d4ee99f781eb05de8dcf2cdcd5899c8e516d7964e2d6e73045a0b95105bf4298962b91f40367a33b04ccdae721a5fff7ef75df0287a19b7544f2e95df21667d90d2bfb3e8e6c7edfbd2f454dcd66c428da2407e3caea678f2f009cdffb7427c6396982a61ced8608f56c769ea6b41ca28eeced7cca62c55d1a72eb9c4059305b6dcc604d22714f48327dc98a0bc502d6432c517728a596d40350621d360f8a3ed97d78d48693cbb5bc8eee7cd304ce714878a81a7b74fb06f5b01fc4956345507bcc911da1f14d8e3faeb9890851c9a7f67b93999b52fa8be30261522a6236b99f97a62bae08dd9d2284923abb28c823a59b370daf67093b7aa08ea891d3cbc6b18950c36429456f917a3d4afcdcc7c0e6b181407d2cec673fb0a6260ce82d4d9ffd555a70e5b8328620fd175a23ac76e50fbfcddf44ba781b400000000000000000000000000000000000000000000000000000000000000012ed04010e8a95cb01e7ef191eee7bbabf3ffbc60b872d7eebf85cb97dbe8535b15115c8b49b37281cf26af6949b55648644adc807afdd887bb09eeaaf1b7f5761ed498d649ba0542f4f937925d7f48bacef4c3bbcf004b1c34d939a0de6d917822e2637f2c229f248b96cb6847b5e2376da3fb6354f01492ee7989f606d0b721170c892368944a8b90b3cd9c5329cbf952320534a7ed66affe6acb7ae8cdb81e25e31f824037207e3eb4291faeb87834a47e73e81350a911256e473c9bbb167b11835ccba000d2f044c2fac6c552fbb6e366232610288a498ee452f2e094776e2aa2f086785f0d6de679e93419b5b11475e5110c217bedbc26ffd67198345845242c18d8c4020654bdf2102adcba7e258cb92aa5b7f183f7c912359416c967b71c55af794f8c1049cf1f98a6683e9e32143de0e31b3693673e832fd6da3092fb29b31ac183da387d3d2dd0591af09d95d814de9929ba5f7e22dc9d87b2a7e787185847f1d9cd09a59906867d38088925d738aba4a3b9ae98b0317752904e900a00a9a22fabd6ebbe64d62608920017d6918a5b7ea62eb63a8cef7db85a9bd5841631623d695bf712fc3422bc1e75b344e1c19593d810a1e4fde2ec1fef1eb262",
            "debugEnable": true,
            "errorInfo": "",
            "eventCount": 1,
            "feeRecipient": "0x95222290dd7278aa3ddd389cc1e1d165cc4bafe5",
            "formatValue": "0",
            "gasLimit": 512625,
            "gasPrice": "15.376407054",
            "gasUsed": 421422,
            "intTxnCount": 50,
            "internalRevert": false,
            "internalRevertMessage": "",
            "isContractCreation": false,
            "isFlashloan": false,
            "maxFee": "30.131182605",
            "nonce": 60010,
            "overwritedBlockNumber": -1,
            "priorityFee": "0.010000001",
            "receiver": "0xa13baf47339d63b743e7da8741db5456dac1e556",
            "revertMessage": "",
            "sender": "0x356483dc32b004f32ea0ce58f7f88879886e9074",
            "simulationEnable": true,
            "sourceTxnHash": "0xd0da28ac3943fb29d6eeeb1a2af3b5f65d425235a17e598bbc0f78c8c6a603f5",
            "status": true,
            "timestamp": "2024-01-21T16:07:35Z",
            "transactionFee": "0.006479956213510788",
            "txnHash": "0xd0da28ac3943fb29d6eeeb1a2af3b5f65d425235a17e598bbc0f78c8c6a603f5",
            "txnIndex": 133,
            "type": 2,
            "value": "0"
        },
        "fund_flow": [],
        "token_infos": [
            {
                "address": "0xc02aaa39b223fe8d0a0e5c4f27ead9083c756cc2",
                "decimals": 18
            },
            {
                "address": "0xeeeeeeeeeeeeeeeeeeeeeeeeeeeeeeeeeeeeeeee",
                "decimals": 18
            }
        ]
    },
    "address_label": {
        "labels": [
            {
                "address": "0x2e07f0fba71709bb5e1f045b02152e45b451d75f",
                "label": "Scroll: L1 Scroll Chain Implementation"
            },
            {
                "address": "0x0000000000000000000000000000000000000006",
                "label": "Null: 0x000...006"
            },
            {
                "address": "0x0000000000000000000000000000000000000005",
                "label": "Null: 0x000...005"
            },
            {
                "address": "0x0000000000000000000000000000000000000008",
                "label": "Null: 0x000...008"
            },
            {
                "address": "0x0000000000000000000000000000000000000007",
                "label": "Null: 0x000...007"
            },
            {
                "address": "0x0000000000000000000000000000000000000003",
                "label": "Precompiled"
            },
            {
                "address": "0xa13baf47339d63b743e7da8741db5456dac1e556",
                "label": "Scroll: L1 Scroll Chain Proxy"
            },
            {
                "address": "0x4b8aa8a96078689384dab49691e9ba51f9d2f9e1",
                "label": "Scroll: L1 Plonk Verifier"
            },
            {
                "address": "0xa2ab526e5c5491f10fc05a55f064bf9f7cef32a0",
                "label": "Scroll: L1 Multiple Version Rollup"
            },
            {
                "address": "0x0000000000000000000000000000000000000002",
                "label": "Precompiled"
            },
            {
                "address": "0x0000000000000000000000000000000000000004",
                "label": "Precompiled"
            },
            {
                "address": "0xeeeeeeeeeeeeeeeeeeeeeeeeeeeeeeeeeeeeeeee",
                "label": "Ether"
            },
            {
                "address": "0x356483dc32b004f32ea0ce58f7f88879886e9074",
                "label": "Scroll: Batch Finalizer"
            },
            {
                "address": "0x585dfad7bf4099e011d185e266907a8ab60dad2d",
                "label": "Scroll: zkEVM Verifier V1"
            },
            {
                "address": "0x0000000000000000000000000000000000000001",
                "label": "Precompiled"
            }
        ]
    },
    "trace": {
        "accountLabels": null,
        "dataMap": {
            "-1": {
                "invocation": {
                    "address": "0x356483dc32b004f32ea0ce58f7f88879886e9074",
                    "callData": "",
                    "decodedMethod": null,
                    "errorInfo": "",
                    "fromAddress": "",
                    "gasUsed": 0,
                    "id": -1,
                    "methodDecoded": false,
                    "operation": "",
                    "output": "",
                    "revert": false,
                    "revertMessage": "",
                    "selector": "",
                    "status": false,
                    "value": ""
                },
                "nodeType": 0
            },
            "0": {
                "invocation": {
                    "address": "0xa13baf47339d63b743e7da8741db5456dac1e556",
                    "callData": "0x00000000000000000000000000000000000000000000000000000000000000a009cfd8eecfa37de46e0901c46423ccfa97b839084ed6e23dd13203e85c42f06210052f6c9ae935634a8c91ee554953a15b70fe309ae3d1bbd78cb8ba0fab0585c519fb61d2d70733718c611d27a89fc7e2ff2c5a1aa302fdf01122e5073a55ea0000000000000000000000000000000000000000000000000000000000000120000000000000000000000000000000000000000000000000000000000000005900000000000000ea6b0000000000000000000000000001dd884dd28e31e8150dee4624092edb3944197041825152a493430f8141b9b26a1d8585f79114b446e8638000f4f24f881046b7e422f727536751668f084ebe5612d90000000000000000000000000000000000000000000000000000000000000000000000000006e000000000000000000000000000000000000000000096b259a2dcbdc8b6d938b500000000000000000000000000000000000000000032853747d6cf724776f123000000000000000000000000000000000000000000001e76979323e9db4fb3e50000000000000000000000000000000000000000004ef5403b7c0c527c77346a0000000000000000000000000000000000000000002f8dcc00eef2b1e5c6cb300000000000000000000000000000000000000000000018b682b78736c4d0640700000000000000000000000000000000000000000054f1fd3217b7a40cc71af5000000000000000000000000000000000000000000f372d2d82b2136ecc294e2000000000000000000000000000000000000000000000a1a8c39f42661e506d60000000000000000000000000000000000000000000a5124c44e587ee99b3b2e0000000000000000000000000000000000000000003ab92f33a5e1d2f1f899b0000000000000000000000000000000000000000000000b72646b9cc473a0bbf100f4f856cdc7ece764faeedb697f99ea4961b422851b16feac38d6f89c5cf0061885e898cc65bca90d09f00e84d4858aad7cdc53bcad77343561dfd47a00da6510ca66285168de37567b060fa7412cad5a69c81cc57cfea8beaf156d0c29018b19414d5577b5be265cc6364c7b03219ad00ccf101638d7b677cc74c991812da3303f3905be5be4ffc138f1193d534e051260dab7af47f8f1d63e12a15bc749f5046942dbb9d28ac5b0811e5aeaece5b863769af16119b397b68850011972d7e915ea340aeda37a3481c3480d17a178835d99d72dc3ae50785bd6b5b90258b4b803311b253130396040c47f8053eb7c0024bfdfed0117e5dac8c3e58dbd35d68622de4ed9c72e6e4f8c9644a753c8443b92863d2dbca47586f8529fea3f54edf400b27290c27a2fa696dd5be5b0e09b3b9d7f431074d60222fca362c2fce4633d00000000000000000000000000000000000000000000000000000000000000010000000000000000000000000000000000000000000000000000000000000002041a22e5b318cf819af3ba36b1ac93e94ce8d87822b0684c4e9e9fc98f7ea16518ec7a275cef9e134a4860ee8b1b4990367bd77e6f50d27caa91b96df9230fc6151ed8a60095cd9417455b8f6a9205a46dceb1a1bb2d8c609d8de49c28ae03a70e996d1b80ae85ce0d3ab6f8e19b5a19888d97ad8148d46664534c472b39b2192ea6216f9b45ce3e4a2309a9e5e86e26bfd173c8068c3b1ff79195eab2864524176e82d57f538a091666e550d47f0eaf6723e88e98a8c6e0cbeadf3e465cc9fa26e0db76e20e9d4ee99f781eb05de8dcf2cdcd5899c8e516d7964e2d6e73045a0b95105bf4298962b91f40367a33b04ccdae721a5fff7ef75df0287a19b7544f2e95df21667d90d2bfb3e8e6c7edfbd2f454dcd66c428da2407e3caea678f2f009cdffb7427c6396982a61ced8608f56c769ea6b41ca28eeced7cca62c55d1a72eb9c4059305b6dcc604d22714f48327dc98a0bc502d6432c517728a596d40350621d360f8a3ed97d78d48693cbb5bc8eee7cd304ce714878a81a7b74fb06f5b01fc4956345507bcc911da1f14d8e3faeb9890851c9a7f67b93999b52fa8be30261522a6236b99f97a62bae08dd9d2284923abb28c823a59b370daf67093b7aa08ea891d3cbc6b18950c36429456f917a3d4afcdcc7c0e6b181407d2cec673fb0a6260ce82d4d9ffd555a70e5b8328620fd175a23ac76e50fbfcddf44ba781b400000000000000000000000000000000000000000000000000000000000000012ed04010e8a95cb01e7ef191eee7bbabf3ffbc60b872d7eebf85cb97dbe8535b15115c8b49b37281cf26af6949b55648644adc807afdd887bb09eeaaf1b7f5761ed498d649ba0542f4f937925d7f48bacef4c3bbcf004b1c34d939a0de6d917822e2637f2c229f248b96cb6847b5e2376da3fb6354f01492ee7989f606d0b721170c892368944a8b90b3cd9c5329cbf952320534a7ed66affe6acb7ae8cdb81e25e31f824037207e3eb4291faeb87834a47e73e81350a911256e473c9bbb167b11835ccba000d2f044c2fac6c552fbb6e366232610288a498ee452f2e094776e2aa2f086785f0d6de679e93419b5b11475e5110c217bedbc26ffd67198345845242c18d8c4020654bdf2102adcba7e258cb92aa5b7f183f7c912359416c967b71c55af794f8c1049cf1f98a6683e9e32143de0e31b3693673e832fd6da3092fb29b31ac183da387d3d2dd0591af09d95d814de9929ba5f7e22dc9d87b2a7e787185847f1d9cd09a59906867d38088925d738aba4a3b9ae98b0317752904e900a00a9a22fabd6ebbe64d62608920017d6918a5b7ea62eb63a8cef7db85a9bd5841631623d695bf712fc3422bc1e75b344e1c19593d810a1e4fde2ec1fef1eb262",
                    "decodedMethod": {
                        "callParams": [
                            {
                                "name": "_batchHeader",
                                "type": "bytes",
                                "value": "0x00000000000000ea6b0000000000000000000000000001dd884dd28e31e8150dee4624092edb3944197041825152a493430f8141b9b26a1d8585f79114b446e8638000f4f24f881046b7e422f727536751668f084ebe5612d9"
                            },
                            {
                                "name": "_prevStateRoot",
                                "type": "bytes32",
                                "value": "0x09cfd8eecfa37de46e0901c46423ccfa97b839084ed6e23dd13203e85c42f062"
                            },
                            {
                                "name": "_postStateRoot",
                                "type": "bytes32",
                                "value": "0x10052f6c9ae935634a8c91ee554953a15b70fe309ae3d1bbd78cb8ba0fab0585"
                            },
                            {
                                "name": "_withdrawRoot",
                                "type": "bytes32",
                                "value": "0xc519fb61d2d70733718c611d27a89fc7e2ff2c5a1aa302fdf01122e5073a55ea"
                            },
                            {
                                "name": "_aggrProof",
                                "type": "bytes",
                                "value": "0x00000000000000000000000000000000000000000096b259a2dcbdc8b6d938b500000000000000000000000000000000000000000032853747d6cf724776f123000000000000000000000000000000000000000000001e76979323e9db4fb3e50000000000000000000000000000000000000000004ef5403b7c0c527c77346a0000000000000000000000000000000000000000002f8dcc00eef2b1e5c6cb300000000000000000000000000000000000000000000018b682b78736c4d0640700000000000000000000000000000000000000000054f1fd3217b7a40cc71af5000000000000000000000000000000000000000000f372d2d82b2136ecc294e2000000000000000000000000000000000000000000000a1a8c39f42661e506d60000000000000000000000000000000000000000000a5124c44e587ee99b3b2e0000000000000000000000000000000000000000003ab92f33a5e1d2f1f899b0000000000000000000000000000000000000000000000b72646b9cc473a0bbf100f4f856cdc7ece764faeedb697f99ea4961b422851b16feac38d6f89c5cf0061885e898cc65bca90d09f00e84d4858aad7cdc53bcad77343561dfd47a00da6510ca66285168de37567b060fa7412cad5a69c81cc57cfea8beaf156d0c29018b19414d5577b5be265cc6364c7b03219ad00ccf101638d7b677cc74c991812da3303f3905be5be4ffc138f1193d534e051260dab7af47f8f1d63e12a15bc749f5046942dbb9d28ac5b0811e5aeaece5b863769af16119b397b68850011972d7e915ea340aeda37a3481c3480d17a178835d99d72dc3ae50785bd6b5b90258b4b803311b253130396040c47f8053eb7c0024bfdfed0117e5dac8c3e58dbd35d68622de4ed9c72e6e4f8c9644a753c8443b92863d2dbca47586f8529fea3f54edf400b27290c27a2fa696dd5be5b0e09b3b9d7f431074d60222fca362c2fce4633d00000000000000000000000000000000000000000000000000000000000000010000000000000000000000000000000000000000000000000000000000000002041a22e5b318cf819af3ba36b1ac93e94ce8d87822b0684c4e9e9fc98f7ea16518ec7a275cef9e134a4860ee8b1b4990367bd77e6f50d27caa91b96df9230fc6151ed8a60095cd9417455b8f6a9205a46dceb1a1bb2d8c609d8de49c28ae03a70e996d1b80ae85ce0d3ab6f8e19b5a19888d97ad8148d46664534c472b39b2192ea6216f9b45ce3e4a2309a9e5e86e26bfd173c8068c3b1ff79195eab2864524176e82d57f538a091666e550d47f0eaf6723e88e98a8c6e0cbeadf3e465cc9fa26e0db76e20e9d4ee99f781eb05de8dcf2cdcd5899c8e516d7964e2d6e73045a0b95105bf4298962b91f40367a33b04ccdae721a5fff7ef75df0287a19b7544f2e95df21667d90d2bfb3e8e6c7edfbd2f454dcd66c428da2407e3caea678f2f009cdffb7427c6396982a61ced8608f56c769ea6b41ca28eeced7cca62c55d1a72eb9c4059305b6dcc604d22714f48327dc98a0bc502d6432c517728a596d40350621d360f8a3ed97d78d48693cbb5bc8eee7cd304ce714878a81a7b74fb06f5b01fc4956345507bcc911da1f14d8e3faeb9890851c9a7f67b93999b52fa8be30261522a6236b99f97a62bae08dd9d2284923abb28c823a59b370daf67093b7aa08ea891d3cbc6b18950c36429456f917a3d4afcdcc7c0e6b181407d2cec673fb0a6260ce82d4d9ffd555a70e5b8328620fd175a23ac76e50fbfcddf44ba781b400000000000000000000000000000000000000000000000000000000000000012ed04010e8a95cb01e7ef191eee7bbabf3ffbc60b872d7eebf85cb97dbe8535b15115c8b49b37281cf26af6949b55648644adc807afdd887bb09eeaaf1b7f5761ed498d649ba0542f4f937925d7f48bacef4c3bbcf004b1c34d939a0de6d917822e2637f2c229f248b96cb6847b5e2376da3fb6354f01492ee7989f606d0b721170c892368944a8b90b3cd9c5329cbf952320534a7ed66affe6acb7ae8cdb81e25e31f824037207e3eb4291faeb87834a47e73e81350a911256e473c9bbb167b11835ccba000d2f044c2fac6c552fbb6e366232610288a498ee452f2e094776e2aa2f086785f0d6de679e93419b5b11475e5110c217bedbc26ffd67198345845242c18d8c4020654bdf2102adcba7e258cb92aa5b7f183f7c912359416c967b71c55af794f8c1049cf1f98a6683e9e32143de0e31b3693673e832fd6da3092fb29b31ac183da387d3d2dd0591af09d95d814de9929ba5f7e22dc9d87b2a7e787185847f1d9cd09a59906867d38088925d738aba4a3b9ae98b0317752904e900a00a9a22fabd6ebbe64d62608920017d6918a5b7ea62eb63a8cef7db85a9bd5841631623d695bf712fc3422bc1e75b344e1c19593d810a1e4fde2ec1fef1eb262"
                            }
                        ],
                        "constructorArguments": "",
                        "name": "finalizeBatchWithProof",
                        "returnParams": [],
                        "signature": "finalizeBatchWithProof(bytes,bytes32,bytes32,bytes32,bytes)"
                    },
                    "errorInfo": "",
                    "fromAddress": "0x356483dc32b004f32ea0ce58f7f88879886e9074",
                    "gasUsed": 421422,
                    "id": 0,
                    "methodDecoded": true,
                    "operation": "CALL",
                    "output": "",
                    "revert": false,
                    "revertMessage": "",
                    "selector": "0x31fa742d",
                    "status": true,
                    "value": "0"
                },
                "nodeType": 0
            },
            "1": {
                "invocation": {
                    "address": "0x2e07f0fba71709bb5e1f045b02152e45b451d75f",
                    "callData": "0x00000000000000000000000000000000000000000000000000000000000000a009cfd8eecfa37de46e0901c46423ccfa97b839084ed6e23dd13203e85c42f06210052f6c9ae935634a8c91ee554953a15b70fe309ae3d1bbd78cb8ba0fab0585c519fb61d2d70733718c611d27a89fc7e2ff2c5a1aa302fdf01122e5073a55ea0000000000000000000000000000000000000000000000000000000000000120000000000000000000000000000000000000000000000000000000000000005900000000000000ea6b0000000000000000000000000001dd884dd28e31e8150dee4624092edb3944197041825152a493430f8141b9b26a1d8585f79114b446e8638000f4f24f881046b7e422f727536751668f084ebe5612d90000000000000000000000000000000000000000000000000000000000000000000000000006e000000000000000000000000000000000000000000096b259a2dcbdc8b6d938b500000000000000000000000000000000000000000032853747d6cf724776f123000000000000000000000000000000000000000000001e76979323e9db4fb3e50000000000000000000000000000000000000000004ef5403b7c0c527c77346a0000000000000000000000000000000000000000002f8dcc00eef2b1e5c6cb300000000000000000000000000000000000000000000018b682b78736c4d0640700000000000000000000000000000000000000000054f1fd3217b7a40cc71af5000000000000000000000000000000000000000000f372d2d82b2136ecc294e2000000000000000000000000000000000000000000000a1a8c39f42661e506d60000000000000000000000000000000000000000000a5124c44e587ee99b3b2e0000000000000000000000000000000000000000003ab92f33a5e1d2f1f899b0000000000000000000000000000000000000000000000b72646b9cc473a0bbf100f4f856cdc7ece764faeedb697f99ea4961b422851b16feac38d6f89c5cf0061885e898cc65bca90d09f00e84d4858aad7cdc53bcad77343561dfd47a00da6510ca66285168de37567b060fa7412cad5a69c81cc57cfea8beaf156d0c29018b19414d5577b5be265cc6364c7b03219ad00ccf101638d7b677cc74c991812da3303f3905be5be4ffc138f1193d534e051260dab7af47f8f1d63e12a15bc749f5046942dbb9d28ac5b0811e5aeaece5b863769af16119b397b68850011972d7e915ea340aeda37a3481c3480d17a178835d99d72dc3ae50785bd6b5b90258b4b803311b253130396040c47f8053eb7c0024bfdfed0117e5dac8c3e58dbd35d68622de4ed9c72e6e4f8c9644a753c8443b92863d2dbca47586f8529fea3f54edf400b27290c27a2fa696dd5be5b0e09b3b9d7f431074d60222fca362c2fce4633d00000000000000000000000000000000000000000000000000000000000000010000000000000000000000000000000000000000000000000000000000000002041a22e5b318cf819af3ba36b1ac93e94ce8d87822b0684c4e9e9fc98f7ea16518ec7a275cef9e134a4860ee8b1b4990367bd77e6f50d27caa91b96df9230fc6151ed8a60095cd9417455b8f6a9205a46dceb1a1bb2d8c609d8de49c28ae03a70e996d1b80ae85ce0d3ab6f8e19b5a19888d97ad8148d46664534c472b39b2192ea6216f9b45ce3e4a2309a9e5e86e26bfd173c8068c3b1ff79195eab2864524176e82d57f538a091666e550d47f0eaf6723e88e98a8c6e0cbeadf3e465cc9fa26e0db76e20e9d4ee99f781eb05de8dcf2cdcd5899c8e516d7964e2d6e73045a0b95105bf4298962b91f40367a33b04ccdae721a5fff7ef75df0287a19b7544f2e95df21667d90d2bfb3e8e6c7edfbd2f454dcd66c428da2407e3caea678f2f009cdffb7427c6396982a61ced8608f56c769ea6b41ca28eeced7cca62c55d1a72eb9c4059305b6dcc604d22714f48327dc98a0bc502d6432c517728a596d40350621d360f8a3ed97d78d48693cbb5bc8eee7cd304ce714878a81a7b74fb06f5b01fc4956345507bcc911da1f14d8e3faeb9890851c9a7f67b93999b52fa8be30261522a6236b99f97a62bae08dd9d2284923abb28c823a59b370daf67093b7aa08ea891d3cbc6b18950c36429456f917a3d4afcdcc7c0e6b181407d2cec673fb0a6260ce82d4d9ffd555a70e5b8328620fd175a23ac76e50fbfcddf44ba781b400000000000000000000000000000000000000000000000000000000000000012ed04010e8a95cb01e7ef191eee7bbabf3ffbc60b872d7eebf85cb97dbe8535b15115c8b49b37281cf26af6949b55648644adc807afdd887bb09eeaaf1b7f5761ed498d649ba0542f4f937925d7f48bacef4c3bbcf004b1c34d939a0de6d917822e2637f2c229f248b96cb6847b5e2376da3fb6354f01492ee7989f606d0b721170c892368944a8b90b3cd9c5329cbf952320534a7ed66affe6acb7ae8cdb81e25e31f824037207e3eb4291faeb87834a47e73e81350a911256e473c9bbb167b11835ccba000d2f044c2fac6c552fbb6e366232610288a498ee452f2e094776e2aa2f086785f0d6de679e93419b5b11475e5110c217bedbc26ffd67198345845242c18d8c4020654bdf2102adcba7e258cb92aa5b7f183f7c912359416c967b71c55af794f8c1049cf1f98a6683e9e32143de0e31b3693673e832fd6da3092fb29b31ac183da387d3d2dd0591af09d95d814de9929ba5f7e22dc9d87b2a7e787185847f1d9cd09a59906867d38088925d738aba4a3b9ae98b0317752904e900a00a9a22fabd6ebbe64d62608920017d6918a5b7ea62eb63a8cef7db85a9bd5841631623d695bf712fc3422bc1e75b344e1c19593d810a1e4fde2ec1fef1eb262",
                    "decodedMethod": {
                        "callParams": [
                            {
                                "name": "_batchHeader",
                                "type": "bytes",
                                "value": "0x00000000000000ea6b0000000000000000000000000001dd884dd28e31e8150dee4624092edb3944197041825152a493430f8141b9b26a1d8585f79114b446e8638000f4f24f881046b7e422f727536751668f084ebe5612d9"
                            },
                            {
                                "name": "_prevStateRoot",
                                "type": "bytes32",
                                "value": "0x09cfd8eecfa37de46e0901c46423ccfa97b839084ed6e23dd13203e85c42f062"
                            },
                            {
                                "name": "_postStateRoot",
                                "type": "bytes32",
                                "value": "0x10052f6c9ae935634a8c91ee554953a15b70fe309ae3d1bbd78cb8ba0fab0585"
                            },
                            {
                                "name": "_withdrawRoot",
                                "type": "bytes32",
                                "value": "0xc519fb61d2d70733718c611d27a89fc7e2ff2c5a1aa302fdf01122e5073a55ea"
                            },
                            {
                                "name": "_aggrProof",
                                "type": "bytes",
                                "value": "0x00000000000000000000000000000000000000000096b259a2dcbdc8b6d938b500000000000000000000000000000000000000000032853747d6cf724776f123000000000000000000000000000000000000000000001e76979323e9db4fb3e50000000000000000000000000000000000000000004ef5403b7c0c527c77346a0000000000000000000000000000000000000000002f8dcc00eef2b1e5c6cb300000000000000000000000000000000000000000000018b682b78736c4d0640700000000000000000000000000000000000000000054f1fd3217b7a40cc71af5000000000000000000000000000000000000000000f372d2d82b2136ecc294e2000000000000000000000000000000000000000000000a1a8c39f42661e506d60000000000000000000000000000000000000000000a5124c44e587ee99b3b2e0000000000000000000000000000000000000000003ab92f33a5e1d2f1f899b0000000000000000000000000000000000000000000000b72646b9cc473a0bbf100f4f856cdc7ece764faeedb697f99ea4961b422851b16feac38d6f89c5cf0061885e898cc65bca90d09f00e84d4858aad7cdc53bcad77343561dfd47a00da6510ca66285168de37567b060fa7412cad5a69c81cc57cfea8beaf156d0c29018b19414d5577b5be265cc6364c7b03219ad00ccf101638d7b677cc74c991812da3303f3905be5be4ffc138f1193d534e051260dab7af47f8f1d63e12a15bc749f5046942dbb9d28ac5b0811e5aeaece5b863769af16119b397b68850011972d7e915ea340aeda37a3481c3480d17a178835d99d72dc3ae50785bd6b5b90258b4b803311b253130396040c47f8053eb7c0024bfdfed0117e5dac8c3e58dbd35d68622de4ed9c72e6e4f8c9644a753c8443b92863d2dbca47586f8529fea3f54edf400b27290c27a2fa696dd5be5b0e09b3b9d7f431074d60222fca362c2fce4633d00000000000000000000000000000000000000000000000000000000000000010000000000000000000000000000000000000000000000000000000000000002041a22e5b318cf819af3ba36b1ac93e94ce8d87822b0684c4e9e9fc98f7ea16518ec7a275cef9e134a4860ee8b1b4990367bd77e6f50d27caa91b96df9230fc6151ed8a60095cd9417455b8f6a9205a46dceb1a1bb2d8c609d8de49c28ae03a70e996d1b80ae85ce0d3ab6f8e19b5a19888d97ad8148d46664534c472b39b2192ea6216f9b45ce3e4a2309a9e5e86e26bfd173c8068c3b1ff79195eab2864524176e82d57f538a091666e550d47f0eaf6723e88e98a8c6e0cbeadf3e465cc9fa26e0db76e20e9d4ee99f781eb05de8dcf2cdcd5899c8e516d7964e2d6e73045a0b95105bf4298962b91f40367a33b04ccdae721a5fff7ef75df0287a19b7544f2e95df21667d90d2bfb3e8e6c7edfbd2f454dcd66c428da2407e3caea678f2f009cdffb7427c6396982a61ced8608f56c769ea6b41ca28eeced7cca62c55d1a72eb9c4059305b6dcc604d22714f48327dc98a0bc502d6432c517728a596d40350621d360f8a3ed97d78d48693cbb5bc8eee7cd304ce714878a81a7b74fb06f5b01fc4956345507bcc911da1f14d8e3faeb9890851c9a7f67b93999b52fa8be30261522a6236b99f97a62bae08dd9d2284923abb28c823a59b370daf67093b7aa08ea891d3cbc6b18950c36429456f917a3d4afcdcc7c0e6b181407d2cec673fb0a6260ce82d4d9ffd555a70e5b8328620fd175a23ac76e50fbfcddf44ba781b400000000000000000000000000000000000000000000000000000000000000012ed04010e8a95cb01e7ef191eee7bbabf3ffbc60b872d7eebf85cb97dbe8535b15115c8b49b37281cf26af6949b55648644adc807afdd887bb09eeaaf1b7f5761ed498d649ba0542f4f937925d7f48bacef4c3bbcf004b1c34d939a0de6d917822e2637f2c229f248b96cb6847b5e2376da3fb6354f01492ee7989f606d0b721170c892368944a8b90b3cd9c5329cbf952320534a7ed66affe6acb7ae8cdb81e25e31f824037207e3eb4291faeb87834a47e73e81350a911256e473c9bbb167b11835ccba000d2f044c2fac6c552fbb6e366232610288a498ee452f2e094776e2aa2f086785f0d6de679e93419b5b11475e5110c217bedbc26ffd67198345845242c18d8c4020654bdf2102adcba7e258cb92aa5b7f183f7c912359416c967b71c55af794f8c1049cf1f98a6683e9e32143de0e31b3693673e832fd6da3092fb29b31ac183da387d3d2dd0591af09d95d814de9929ba5f7e22dc9d87b2a7e787185847f1d9cd09a59906867d38088925d738aba4a3b9ae98b0317752904e900a00a9a22fabd6ebbe64d62608920017d6918a5b7ea62eb63a8cef7db85a9bd5841631623d695bf712fc3422bc1e75b344e1c19593d810a1e4fde2ec1fef1eb262"
                            }
                        ],
                        "constructorArguments": "",
                        "name": "finalizeBatchWithProof",
                        "returnParams": [],
                        "signature": "finalizeBatchWithProof(bytes,bytes32,bytes32,bytes32,bytes)"
                    },
                    "errorInfo": "",
                    "fromAddress": "0xa13baf47339d63b743e7da8741db5456dac1e556",
                    "gasUsed": 365661,
                    "id": 1,
                    "methodDecoded": true,
                    "operation": "DELEGATECALL",
                    "output": "",
                    "revert": false,
                    "revertMessage": "",
                    "selector": "0x31fa742d",
                    "status": true,
                    "value": "0"
                },
                "nodeType": 0
            },
            "10": {
                "invocation": {
                    "address": "0x0000000000000000000000000000000000000007",
                    "callData": "0xeda37a3481c3480d17a178835d99d72dc3ae50785bd6b5b90258b4b803311b253130396040c47f8053eb7c0024bfdfed0117e5dac8c3e58dbd35d686058a0f6e8c74cfb7237fa8a10f8de60035308dac7abb34906e5a09618e2f51f3",
                    "decodedMethod": null,
                    "errorInfo": "",
                    "fromAddress": "0x4b8aa8a96078689384dab49691e9ba51f9d2f9e1",
                    "gasUsed": 6000,
                    "id": 10,
                    "methodDecoded": false,
                    "operation": "STATICCALL",
                    "output": "0x04a690f67b63d994c0bd1f060b7da1a1e3afb4aab2df59b1a341a190146b7e322bb15f637acd62d3fa1ac4962ba5328b16656b8fc9f61139208b88a8efd0175b",
                    "revert": false,
                    "revertMessage": "",
                    "selector": "0x15ea340a",
                    "status": true,
                    "value": "0"
                },
                "nodeType": 0
            },
            "11": {
                "invocation": {
                    "address": "0x0000000000000000000000000000000000000006",
                    "callData": "0x26a9d7bca6a4374d98198f08201c8b65ae2dc753353778a4018302150a727e5dbbe4336f545a1621be418e73d0f42916ce867accdcf09ae14f04cc9e04a690f67b63d994c0bd1f060b7da1a1e3afb4aab2df59b1a341a190146b7e322bb15f637acd62d3fa1ac4962ba5328b16656b8fc9f61139208b88a8efd0175b",
                    "decodedMethod": null,
                    "errorInfo": "",
                    "fromAddress": "0x4b8aa8a96078689384dab49691e9ba51f9d2f9e1",
                    "gasUsed": 150,
                    "id": 11,
                    "methodDecoded": false,
                    "operation": "STATICCALL",
                    "output": "0x1accad1621a244ff9e97f30b927c65a189ce8e61ff286f4bf947155f5ee0504d08098ded1e901a14868115ddae86d67911c5ef64017e58dbac2123492ba73246",
                    "revert": false,
                    "revertMessage": "",
                    "selector": "0x2a78ca18",
                    "status": true,
                    "value": "0"
                },
                "nodeType": 0
            },
            "12": {
                "invocation": {
                    "address": "0x0000000000000000000000000000000000000007",
                    "callData": "0xc72e6e4f8c9644a753c8443b92863d2dbca47586f8529fea3f54edf400b27290c27a2fa696dd5be5b0e09b3b9d7f431074d60222fca362c2fce4633d295a757a27afc204e85f8f73be870c82614e1aafbd202fcc89d71a8cc80ee498",
                    "decodedMethod": null,
                    "errorInfo": "",
                    "fromAddress": "0x4b8aa8a96078689384dab49691e9ba51f9d2f9e1",
                    "gasUsed": 6000,
                    "id": 12,
                    "methodDecoded": false,
                    "operation": "STATICCALL",
                    "output": "0x137e48953bd9349dcf4fd7d655775c0d33065cec286be63c7ba1188d198ba8691995a5ca057c3e225961d52a2bc674f44510147f28005132cbd41c5a1ea8446d",
                    "revert": false,
                    "revertMessage": "",
                    "selector": "0x22de4ed9",
                    "status": true,
                    "value": "0"
                },
                "nodeType": 0
            },
            "13": {
                "invocation": {
                    "address": "0x0000000000000000000000000000000000000006",
                    "callData": "0x21a244ff9e97f30b927c65a189ce8e61ff286f4bf947155f5ee0504d08098ded1e901a14868115ddae86d67911c5ef64017e58dbac2123492ba73246137e48953bd9349dcf4fd7d655775c0d33065cec286be63c7ba1188d198ba8691995a5ca057c3e225961d52a2bc674f44510147f28005132cbd41c5a1ea8446d",
                    "decodedMethod": null,
                    "errorInfo": "",
                    "fromAddress": "0x4b8aa8a96078689384dab49691e9ba51f9d2f9e1",
                    "gasUsed": 150,
                    "id": 13,
                    "methodDecoded": false,
                    "operation": "STATICCALL",
                    "output": "0x2ab4a9cd46754296676875508a813045a2ce010574ed01506c2aed5c5c25ec181a1a6fccf5f4d235bacb5f781f08e9a6e41838ad6529e8cb79e0cd32ea839149",
                    "revert": false,
                    "revertMessage": "",
                    "selector": "0x1accad16",
                    "status": true,
                    "value": "0"
                },
                "nodeType": 0
            },
            "14": {
                "invocation": {
                    "address": "0x0000000000000000000000000000000000000007",
                    "callData": "0x5168de37567b060fa7412cad5a69c81cc57cfea8beaf156d0c29018b19414d5577b5be265cc6364c7b03219ad00ccf101638d7b677cc74c991812da30b5da6c8a2f2f7935b0656a87ef58f2ed96c92feecfd8ea7aba23d7b7c0abe98",
                    "decodedMethod": null,
                    "errorInfo": "",
                    "fromAddress": "0x4b8aa8a96078689384dab49691e9ba51f9d2f9e1",
                    "gasUsed": 6000,
                    "id": 14,
                    "methodDecoded": false,
                    "operation": "STATICCALL",
                    "output": "0x0f2b8ca8d06d43d5a920bdd249e9e56ce047d383cacda3c07201e7adaa1f1e422ea8264724be7b112cd45ab64adf447dad084c19785ff6b6ad9a0305b29071ce",
                    "revert": false,
                    "revertMessage": "",
                    "selector": "0x10ca6628",
                    "status": true,
                    "value": "0"
                },
                "nodeType": 0
            },
            "15": {
                "invocation": {
                    "address": "0x0000000000000000000000000000000000000006",
                    "callData": "0x46754296676875508a813045a2ce010574ed01506c2aed5c5c25ec181a1a6fccf5f4d235bacb5f781f08e9a6e41838ad6529e8cb79e0cd32ea8391490f2b8ca8d06d43d5a920bdd249e9e56ce047d383cacda3c07201e7adaa1f1e422ea8264724be7b112cd45ab64adf447dad084c19785ff6b6ad9a0305b29071ce",
                    "decodedMethod": null,
                    "errorInfo": "",
                    "fromAddress": "0x4b8aa8a96078689384dab49691e9ba51f9d2f9e1",
                    "gasUsed": 150,
                    "id": 15,
                    "methodDecoded": false,
                    "operation": "STATICCALL",
                    "output": "0x28c40105a6ddb0369d91201712044e83967af11b84c44e68e85d52f5d626f2c32cc0017c271a72f428d1bbba45ae7aedb9df167050ec1ad0e7ddda6c8ff66eaf",
                    "revert": false,
                    "revertMessage": "",
                    "selector": "0x2ab4a9cd",
                    "status": true,
                    "value": "0"
                },
                "nodeType": 0
            },
            "16": {
                "invocation": {
                    "address": "0x0000000000000000000000000000000000000007",
                    "callData": "0xbe5be4ffc138f1193d534e051260dab7af47f8f1d63e12a15bc749f5046942dbb9d28ac5b0811e5aeaece5b863769af16119b397b68850011972d7e90490856c1b8f448c4ffe9460500e61c7081d0258d83c3358fea0bcb60261faa0",
                    "decodedMethod": null,
                    "errorInfo": "",
                    "fromAddress": "0x4b8aa8a96078689384dab49691e9ba51f9d2f9e1",
                    "gasUsed": 6000,
                    "id": 16,
                    "methodDecoded": false,
                    "operation": "STATICCALL",
                    "output": "0x0f74d20bf1b933b81559c4166c178fb8e6eab55a3bd089cb38de355fb4900ebf21f28ca7696bffcb8139bce5226aa4039fcafdec56ce13306a9be9a38bad02df",
                    "revert": false,
                    "revertMessage": "",
                    "selector": "0x303f3905",
                    "status": true,
                    "value": "0"
                },
                "nodeType": 0
            },
            "17": {
                "invocation": {
                    "address": "0x0000000000000000000000000000000000000006",
                    "callData": "0xa6ddb0369d91201712044e83967af11b84c44e68e85d52f5d626f2c32cc0017c271a72f428d1bbba45ae7aedb9df167050ec1ad0e7ddda6c8ff66eaf0f74d20bf1b933b81559c4166c178fb8e6eab55a3bd089cb38de355fb4900ebf21f28ca7696bffcb8139bce5226aa4039fcafdec56ce13306a9be9a38bad02df",
                    "decodedMethod": null,
                    "errorInfo": "",
                    "fromAddress": "0x4b8aa8a96078689384dab49691e9ba51f9d2f9e1",
                    "gasUsed": 150,
                    "id": 17,
                    "methodDecoded": false,
                    "operation": "STATICCALL",
                    "output": "0x0fe811f20000e706f269538b102bc5be6bb0da01ff89af337add2980c96e884705c28b2e933e322a4f9e423935f9c2835e28ad33b33b484b02abd8f5aef558f4",
                    "revert": false,
                    "revertMessage": "",
                    "selector": "0x28c40105",
                    "status": true,
                    "value": "0"
                },
                "nodeType": 0
            },
            "18": {
                "invocation": {
                    "address": "0x0000000000000000000000000000000000000007",
                    "callData": "0x5c7b3d6344dc096abbf52fecebee18ceaad8c45712ed054d27cf1c9f26ca3b546c59941c9ed77ea1bebce4c267595f7ac541a79358f72949bd08d09c2ee29a89da064a1c5eba901e34f646980e2588587f5fb77e1ebe198981a107e2",
                    "decodedMethod": null,
                    "errorInfo": "",
                    "fromAddress": "0x4b8aa8a96078689384dab49691e9ba51f9d2f9e1",
                    "gasUsed": 6000,
                    "id": 18,
                    "methodDecoded": false,
                    "operation": "STATICCALL",
                    "output": "0x04f6fb5a624c4aa375c790b9b2f25c9be4f4082f0d3f516e11c3f20f9e9ed78f0ac1c0f38b822b4875c3d911094d35b5885f0bbd633c34c7c2137429a2abe38d",
                    "revert": false,
                    "revertMessage": "",
                    "selector": "0x15084476",
                    "status": true,
                    "value": "0"
                },
                "nodeType": 0
            },
            "19": {
                "invocation": {
                    "address": "0x0000000000000000000000000000000000000006",
                    "callData": "0x0000e706f269538b102bc5be6bb0da01ff89af337add2980c96e884705c28b2e933e322a4f9e423935f9c2835e28ad33b33b484b02abd8f5aef558f404f6fb5a624c4aa375c790b9b2f25c9be4f4082f0d3f516e11c3f20f9e9ed78f0ac1c0f38b822b4875c3d911094d35b5885f0bbd633c34c7c2137429a2abe38d",
                    "decodedMethod": null,
                    "errorInfo": "",
                    "fromAddress": "0x4b8aa8a96078689384dab49691e9ba51f9d2f9e1",
                    "gasUsed": 150,
                    "id": 19,
                    "methodDecoded": false,
                    "operation": "STATICCALL",
                    "output": "0x14fa54dad9f7f652f0fa1494ad1577d00a0d3af5465901a88f575e9bd28e16bf2ef1b48f154b261eb1300294257bf24541fd3baf198869df4ce842f9990cc084",
                    "revert": false,
                    "revertMessage": "",
                    "selector": "0x0fe811f2",
                    "status": true,
                    "value": "0"
                },
                "nodeType": 0
            },
            "2": {
                "invocation": {
                    "address": "0xa2ab526e5c5491f10fc05a55f064bf9f7cef32a0",
                    "callData": "0x000000000000000000000000000000000000000000000000000000000000ea6b0000000000000000000000000000000000000000000000000000000000000060d592ec651a0ec4a7dbcd1b08c9efc7eb2be6b663fc2284cef6d256b10e3dce2100000000000000000000000000000000000000000000000000000000000006e000000000000000000000000000000000000000000096b259a2dcbdc8b6d938b500000000000000000000000000000000000000000032853747d6cf724776f123000000000000000000000000000000000000000000001e76979323e9db4fb3e50000000000000000000000000000000000000000004ef5403b7c0c527c77346a0000000000000000000000000000000000000000002f8dcc00eef2b1e5c6cb300000000000000000000000000000000000000000000018b682b78736c4d0640700000000000000000000000000000000000000000054f1fd3217b7a40cc71af5000000000000000000000000000000000000000000f372d2d82b2136ecc294e2000000000000000000000000000000000000000000000a1a8c39f42661e506d60000000000000000000000000000000000000000000a5124c44e587ee99b3b2e0000000000000000000000000000000000000000003ab92f33a5e1d2f1f899b0000000000000000000000000000000000000000000000b72646b9cc473a0bbf100f4f856cdc7ece764faeedb697f99ea4961b422851b16feac38d6f89c5cf0061885e898cc65bca90d09f00e84d4858aad7cdc53bcad77343561dfd47a00da6510ca66285168de37567b060fa7412cad5a69c81cc57cfea8beaf156d0c29018b19414d5577b5be265cc6364c7b03219ad00ccf101638d7b677cc74c991812da3303f3905be5be4ffc138f1193d534e051260dab7af47f8f1d63e12a15bc749f5046942dbb9d28ac5b0811e5aeaece5b863769af16119b397b68850011972d7e915ea340aeda37a3481c3480d17a178835d99d72dc3ae50785bd6b5b90258b4b803311b253130396040c47f8053eb7c0024bfdfed0117e5dac8c3e58dbd35d68622de4ed9c72e6e4f8c9644a753c8443b92863d2dbca47586f8529fea3f54edf400b27290c27a2fa696dd5be5b0e09b3b9d7f431074d60222fca362c2fce4633d00000000000000000000000000000000000000000000000000000000000000010000000000000000000000000000000000000000000000000000000000000002041a22e5b318cf819af3ba36b1ac93e94ce8d87822b0684c4e9e9fc98f7ea16518ec7a275cef9e134a4860ee8b1b4990367bd77e6f50d27caa91b96df9230fc6151ed8a60095cd9417455b8f6a9205a46dceb1a1bb2d8c609d8de49c28ae03a70e996d1b80ae85ce0d3ab6f8e19b5a19888d97ad8148d46664534c472b39b2192ea6216f9b45ce3e4a2309a9e5e86e26bfd173c8068c3b1ff79195eab2864524176e82d57f538a091666e550d47f0eaf6723e88e98a8c6e0cbeadf3e465cc9fa26e0db76e20e9d4ee99f781eb05de8dcf2cdcd5899c8e516d7964e2d6e73045a0b95105bf4298962b91f40367a33b04ccdae721a5fff7ef75df0287a19b7544f2e95df21667d90d2bfb3e8e6c7edfbd2f454dcd66c428da2407e3caea678f2f009cdffb7427c6396982a61ced8608f56c769ea6b41ca28eeced7cca62c55d1a72eb9c4059305b6dcc604d22714f48327dc98a0bc502d6432c517728a596d40350621d360f8a3ed97d78d48693cbb5bc8eee7cd304ce714878a81a7b74fb06f5b01fc4956345507bcc911da1f14d8e3faeb9890851c9a7f67b93999b52fa8be30261522a6236b99f97a62bae08dd9d2284923abb28c823a59b370daf67093b7aa08ea891d3cbc6b18950c36429456f917a3d4afcdcc7c0e6b181407d2cec673fb0a6260ce82d4d9ffd555a70e5b8328620fd175a23ac76e50fbfcddf44ba781b400000000000000000000000000000000000000000000000000000000000000012ed04010e8a95cb01e7ef191eee7bbabf3ffbc60b872d7eebf85cb97dbe8535b15115c8b49b37281cf26af6949b55648644adc807afdd887bb09eeaaf1b7f5761ed498d649ba0542f4f937925d7f48bacef4c3bbcf004b1c34d939a0de6d917822e2637f2c229f248b96cb6847b5e2376da3fb6354f01492ee7989f606d0b721170c892368944a8b90b3cd9c5329cbf952320534a7ed66affe6acb7ae8cdb81e25e31f824037207e3eb4291faeb87834a47e73e81350a911256e473c9bbb167b11835ccba000d2f044c2fac6c552fbb6e366232610288a498ee452f2e094776e2aa2f086785f0d6de679e93419b5b11475e5110c217bedbc26ffd67198345845242c18d8c4020654bdf2102adcba7e258cb92aa5b7f183f7c912359416c967b71c55af794f8c1049cf1f98a6683e9e32143de0e31b3693673e832fd6da3092fb29b31ac183da387d3d2dd0591af09d95d814de9929ba5f7e22dc9d87b2a7e787185847f1d9cd09a59906867d38088925d738aba4a3b9ae98b0317752904e900a00a9a22fabd6ebbe64d62608920017d6918a5b7ea62eb63a8cef7db85a9bd5841631623d695bf712fc3422bc1e75b344e1c19593d810a1e4fde2ec1fef1eb262",
                    "decodedMethod": {
                        "callParams": [
                            {
                                "name": "_batchIndex",
                                "type": "uint256",
                                "value": "60,011"
                            },
                            {
                                "name": "_aggrProof",
                                "type": "bytes",
                                "value": "0x00000000000000000000000000000000000000000096b259a2dcbdc8b6d938b500000000000000000000000000000000000000000032853747d6cf724776f123000000000000000000000000000000000000000000001e76979323e9db4fb3e50000000000000000000000000000000000000000004ef5403b7c0c527c77346a0000000000000000000000000000000000000000002f8dcc00eef2b1e5c6cb300000000000000000000000000000000000000000000018b682b78736c4d0640700000000000000000000000000000000000000000054f1fd3217b7a40cc71af5000000000000000000000000000000000000000000f372d2d82b2136ecc294e2000000000000000000000000000000000000000000000a1a8c39f42661e506d60000000000000000000000000000000000000000000a5124c44e587ee99b3b2e0000000000000000000000000000000000000000003ab92f33a5e1d2f1f899b0000000000000000000000000000000000000000000000b72646b9cc473a0bbf100f4f856cdc7ece764faeedb697f99ea4961b422851b16feac38d6f89c5cf0061885e898cc65bca90d09f00e84d4858aad7cdc53bcad77343561dfd47a00da6510ca66285168de37567b060fa7412cad5a69c81cc57cfea8beaf156d0c29018b19414d5577b5be265cc6364c7b03219ad00ccf101638d7b677cc74c991812da3303f3905be5be4ffc138f1193d534e051260dab7af47f8f1d63e12a15bc749f5046942dbb9d28ac5b0811e5aeaece5b863769af16119b397b68850011972d7e915ea340aeda37a3481c3480d17a178835d99d72dc3ae50785bd6b5b90258b4b803311b253130396040c47f8053eb7c0024bfdfed0117e5dac8c3e58dbd35d68622de4ed9c72e6e4f8c9644a753c8443b92863d2dbca47586f8529fea3f54edf400b27290c27a2fa696dd5be5b0e09b3b9d7f431074d60222fca362c2fce4633d00000000000000000000000000000000000000000000000000000000000000010000000000000000000000000000000000000000000000000000000000000002041a22e5b318cf819af3ba36b1ac93e94ce8d87822b0684c4e9e9fc98f7ea16518ec7a275cef9e134a4860ee8b1b4990367bd77e6f50d27caa91b96df9230fc6151ed8a60095cd9417455b8f6a9205a46dceb1a1bb2d8c609d8de49c28ae03a70e996d1b80ae85ce0d3ab6f8e19b5a19888d97ad8148d46664534c472b39b2192ea6216f9b45ce3e4a2309a9e5e86e26bfd173c8068c3b1ff79195eab2864524176e82d57f538a091666e550d47f0eaf6723e88e98a8c6e0cbeadf3e465cc9fa26e0db76e20e9d4ee99f781eb05de8dcf2cdcd5899c8e516d7964e2d6e73045a0b95105bf4298962b91f40367a33b04ccdae721a5fff7ef75df0287a19b7544f2e95df21667d90d2bfb3e8e6c7edfbd2f454dcd66c428da2407e3caea678f2f009cdffb7427c6396982a61ced8608f56c769ea6b41ca28eeced7cca62c55d1a72eb9c4059305b6dcc604d22714f48327dc98a0bc502d6432c517728a596d40350621d360f8a3ed97d78d48693cbb5bc8eee7cd304ce714878a81a7b74fb06f5b01fc4956345507bcc911da1f14d8e3faeb9890851c9a7f67b93999b52fa8be30261522a6236b99f97a62bae08dd9d2284923abb28c823a59b370daf67093b7aa08ea891d3cbc6b18950c36429456f917a3d4afcdcc7c0e6b181407d2cec673fb0a6260ce82d4d9ffd555a70e5b8328620fd175a23ac76e50fbfcddf44ba781b400000000000000000000000000000000000000000000000000000000000000012ed04010e8a95cb01e7ef191eee7bbabf3ffbc60b872d7eebf85cb97dbe8535b15115c8b49b37281cf26af6949b55648644adc807afdd887bb09eeaaf1b7f5761ed498d649ba0542f4f937925d7f48bacef4c3bbcf004b1c34d939a0de6d917822e2637f2c229f248b96cb6847b5e2376da3fb6354f01492ee7989f606d0b721170c892368944a8b90b3cd9c5329cbf952320534a7ed66affe6acb7ae8cdb81e25e31f824037207e3eb4291faeb87834a47e73e81350a911256e473c9bbb167b11835ccba000d2f044c2fac6c552fbb6e366232610288a498ee452f2e094776e2aa2f086785f0d6de679e93419b5b11475e5110c217bedbc26ffd67198345845242c18d8c4020654bdf2102adcba7e258cb92aa5b7f183f7c912359416c967b71c55af794f8c1049cf1f98a6683e9e32143de0e31b3693673e832fd6da3092fb29b31ac183da387d3d2dd0591af09d95d814de9929ba5f7e22dc9d87b2a7e787185847f1d9cd09a59906867d38088925d738aba4a3b9ae98b0317752904e900a00a9a22fabd6ebbe64d62608920017d6918a5b7ea62eb63a8cef7db85a9bd5841631623d695bf712fc3422bc1e75b344e1c19593d810a1e4fde2ec1fef1eb262"
                            },
                            {
                                "name": "_publicInputHash",
                                "type": "bytes32",
                                "value": "0xd592ec651a0ec4a7dbcd1b08c9efc7eb2be6b663fc2284cef6d256b10e3dce21"
                            }
                        ],
                        "constructorArguments": "",
                        "name": "verifyAggregateProof",
                        "returnParams": [],
                        "signature": "verifyAggregateProof(uint256,bytes,bytes32)"
                    },
                    "errorInfo": "",
                    "fromAddress": "0xa13baf47339d63b743e7da8741db5456dac1e556",
                    "gasUsed": 298127,
                    "id": 2,
                    "methodDecoded": true,
                    "operation": "STATICCALL",
                    "output": "",
                    "revert": false,
                    "revertMessage": "",
                    "selector": "0xcc780aa1",
                    "status": true,
                    "value": "0"
                },
                "nodeType": 0
            },
            "20": {
                "invocation": {
                    "address": "0x0000000000000000000000000000000000000007",
                    "callData": "0x6d0491e1c6452575645c48617874c5fc5d5654f209246e9a1d9daa8a22e2203b405e3eef35157bf3386d80cc9f0b94ee295f01d51103cee95ba38b0f09457dca859bf35101369e7f1f0dec3a0372ceac4612905c6a75138f4cc00a3b",
                    "decodedMethod": null,
                    "errorInfo": "",
                    "fromAddress": "0x4b8aa8a96078689384dab49691e9ba51f9d2f9e1",
                    "gasUsed": 6000,
                    "id": 20,
                    "methodDecoded": false,
                    "operation": "STATICCALL",
                    "output": "0x2d627762a7d90b59036dc67916bee777bf5ff0d803262a355cb05f0682768c7f2185ff07e3a0c1a8f34aef38812ea4d9a56dcec81f0438a8c5c620f121e0da6f",
                    "revert": false,
                    "revertMessage": "",
                    "selector": "0x030a8de1",
                    "status": true,
                    "value": "0"
                },
                "nodeType": 0
            },
            "21": {
                "invocation": {
                    "address": "0x0000000000000000000000000000000000000006",
                    "callData": "0xd9f7f652f0fa1494ad1577d00a0d3af5465901a88f575e9bd28e16bf2ef1b48f154b261eb1300294257bf24541fd3baf198869df4ce842f9990cc0842d627762a7d90b59036dc67916bee777bf5ff0d803262a355cb05f0682768c7f2185ff07e3a0c1a8f34aef38812ea4d9a56dcec81f0438a8c5c620f121e0da6f",
                    "decodedMethod": null,
                    "errorInfo": "",
                    "fromAddress": "0x4b8aa8a96078689384dab49691e9ba51f9d2f9e1",
                    "gasUsed": 150,
                    "id": 21,
                    "methodDecoded": false,
                    "operation": "STATICCALL",
                    "output": "0x1dcd317baed7451d8860b53699c3f007fa79da1b3b36bf9bcb4243ba9422370d01fc06d4f7a08aa899e44794a6d971e5f232605180cead09b9125cf2eca02f93",
                    "revert": false,
                    "revertMessage": "",
                    "selector": "0x14fa54da",
                    "status": true,
                    "value": "0"
                },
                "nodeType": 0
            },
            "22": {
                "invocation": {
                    "address": "0x0000000000000000000000000000000000000007",
                    "callData": "0x4e3ab5bcb6c49659579600a60ed0730360d32dddd569dfd0beb9531c2be9bbc3123ba3970a2712093265851d25b7220ff833d6daba5570ee0ea5ccc5140ee6c562b3ee152e77b68e16cace9822b35cf29bda896874399c32f42f259b",
                    "decodedMethod": null,
                    "errorInfo": "",
                    "fromAddress": "0x4b8aa8a96078689384dab49691e9ba51f9d2f9e1",
                    "gasUsed": 6000,
                    "id": 22,
                    "methodDecoded": false,
                    "operation": "STATICCALL",
                    "output": "0x1308e1b69443d58f9492baf7ddc764b41a278e428be53fa31f5f3d4ce108755f0cb4809b97a4af202259d301eacac2fcfca926726fda756d8f09205312abee0b",
                    "revert": false,
                    "revertMessage": "",
                    "selector": "0x2d8725ea",
                    "status": true,
                    "value": "0"
                },
                "nodeType": 0
            },
            "23": {
                "invocation": {
                    "address": "0x0000000000000000000000000000000000000006",
                    "callData": "0xaed7451d8860b53699c3f007fa79da1b3b36bf9bcb4243ba9422370d01fc06d4f7a08aa899e44794a6d971e5f232605180cead09b9125cf2eca02f931308e1b69443d58f9492baf7ddc764b41a278e428be53fa31f5f3d4ce108755f0cb4809b97a4af202259d301eacac2fcfca926726fda756d8f09205312abee0b",
                    "decodedMethod": null,
                    "errorInfo": "",
                    "fromAddress": "0x4b8aa8a96078689384dab49691e9ba51f9d2f9e1",
                    "gasUsed": 150,
                    "id": 23,
                    "methodDecoded": false,
                    "operation": "STATICCALL",
                    "output": "0x1cc905b29d225ce305532a2174d5864eca0107c5e53e7838c4df6e1734c224222061eb79e735cef6cf508726f0c07447c85816aee0884c754eefa0e83a7aaf70",
                    "revert": false,
                    "revertMessage": "",
                    "selector": "0x1dcd317b",
                    "status": true,
                    "value": "0"
                },
                "nodeType": 0
            },
            "24": {
                "invocation": {
                    "address": "0x0000000000000000000000000000000000000007",
                    "callData": "0xa821380fd89378e318e8d6da68bf7d7362da1002b3a2b8a073ba45b6071aa5edad4cea476f7a31f9dddd1547ff78b87ec78a039da080100f1fc85fa706cb0e0acd82500347bff2dc0c4a85bae712d36861fc4214dda723040dae42e9",
                    "decodedMethod": null,
                    "errorInfo": "",
                    "fromAddress": "0x4b8aa8a96078689384dab49691e9ba51f9d2f9e1",
                    "gasUsed": 6000,
                    "id": 24,
                    "methodDecoded": false,
                    "operation": "STATICCALL",
                    "output": "0x274a1ae77cc6c1b95e6fe1c00a9b40259ee2d8449faf716c5d664d4ac60cbf2d187849712e45b65386b4d68bcd946c4aae4751c43864df0070e960fb2ae20c09",
                    "revert": false,
                    "revertMessage": "",
                    "selector": "0x0a85625d",
                    "status": true,
                    "value": "0"
                },
                "nodeType": 0
            },
            "25": {
                "invocation": {
                    "address": "0x0000000000000000000000000000000000000006",
                    "callData": "0x9d225ce305532a2174d5864eca0107c5e53e7838c4df6e1734c224222061eb79e735cef6cf508726f0c07447c85816aee0884c754eefa0e83a7aaf70274a1ae77cc6c1b95e6fe1c00a9b40259ee2d8449faf716c5d664d4ac60cbf2d187849712e45b65386b4d68bcd946c4aae4751c43864df0070e960fb2ae20c09",
                    "decodedMethod": null,
                    "errorInfo": "",
                    "fromAddress": "0x4b8aa8a96078689384dab49691e9ba51f9d2f9e1",
                    "gasUsed": 150,
                    "id": 25,
                    "methodDecoded": false,
                    "operation": "STATICCALL",
                    "output": "0x2c0ed22d07d2b9791aa310097369771e66b5b31f73814bee641c19aff5cda2ed0b2b7a3f49c08e3d34935a2a202d60ad744df8c8dca5f3a5023d65cc3c143cc4",
                    "revert": false,
                    "revertMessage": "",
                    "selector": "0x1cc905b2",
                    "status": true,
                    "value": "0"
                },
                "nodeType": 0
            },
            "26": {
                "invocation": {
                    "address": "0x0000000000000000000000000000000000000007",
                    "callData": "0x7a7d281ef2de1beecdf56105ad056987b48305df4d6bf340cd2f28871e49b15fe758ad78f8d0e02c9a6cb5797ac36a5a350d943789834990bf838928277dbdcfe695edeba2e597ffe395899e20eb2e6f0f09dc6b3a302359d4851b09",
                    "decodedMethod": null,
                    "errorInfo": "",
                    "fromAddress": "0x4b8aa8a96078689384dab49691e9ba51f9d2f9e1",
                    "gasUsed": 6000,
                    "id": 26,
                    "methodDecoded": false,
                    "operation": "STATICCALL",
                    "output": "0x0d1d1d19e89b6546c6e9958d21f919350e9169000414634383ba2d454b9cd883187bc4a31e7d0048cea204a33d42f15efe72c1f8631b81c9915790e44eedb0ad",
                    "revert": false,
                    "revertMessage": "",
                    "selector": "0x04972ee1",
                    "status": true,
                    "value": "0"
                },
                "nodeType": 0
            },
            "27": {
                "invocation": {
                    "address": "0x0000000000000000000000000000000000000006",
                    "callData": "0x07d2b9791aa310097369771e66b5b31f73814bee641c19aff5cda2ed0b2b7a3f49c08e3d34935a2a202d60ad744df8c8dca5f3a5023d65cc3c143cc40d1d1d19e89b6546c6e9958d21f919350e9169000414634383ba2d454b9cd883187bc4a31e7d0048cea204a33d42f15efe72c1f8631b81c9915790e44eedb0ad",
                    "decodedMethod": null,
                    "errorInfo": "",
                    "fromAddress": "0x4b8aa8a96078689384dab49691e9ba51f9d2f9e1",
                    "gasUsed": 150,
                    "id": 27,
                    "methodDecoded": false,
                    "operation": "STATICCALL",
                    "output": "0x1f7f6dd7de27cc24a51faf7604e88de1f95f07f04a2057d36b2bbbfc9086bc9612ef708b775e0cd17140d7a97bf35da91c0f58d886e9b7d139dcd8a0b0627ca5",
                    "revert": false,
                    "revertMessage": "",
                    "selector": "0x2c0ed22d",
                    "status": true,
                    "value": "0"
                },
                "nodeType": 0
            },
            "28": {
                "invocation": {
                    "address": "0x0000000000000000000000000000000000000007",
                    "callData": "0x8432148d29b26d4df094ab7aef325a0748f746bfd77e9c9ffdbd26880a422e1ad40d076a1044d66687d018806e99a2b9d5b7a700a865347f528d8b702b3d4825d31de812d1088e3cf40b66fe596040e9c1d736a1254a97f4fa3913f3",
                    "decodedMethod": null,
                    "errorInfo": "",
                    "fromAddress": "0x4b8aa8a96078689384dab49691e9ba51f9d2f9e1",
                    "gasUsed": 6000,
                    "id": 28,
                    "methodDecoded": false,
                    "operation": "STATICCALL",
                    "output": "0x2d2249aa7ad0f7b608984e2e5235ac6b4f8403f0f91cce20a4e8896191bf1804083876a545488af72e4b63117c8d628b97a1b4e9a29ba880d4b4b559f70002ff",
                    "revert": false,
                    "revertMessage": "",
                    "selector": "0x0c8294e9",
                    "status": true,
                    "value": "0"
                },
                "nodeType": 0
            },
            "29": {
                "invocation": {
                    "address": "0x0000000000000000000000000000000000000006",
                    "callData": "0xde27cc24a51faf7604e88de1f95f07f04a2057d36b2bbbfc9086bc9612ef708b775e0cd17140d7a97bf35da91c0f58d886e9b7d139dcd8a0b0627ca52d2249aa7ad0f7b608984e2e5235ac6b4f8403f0f91cce20a4e8896191bf1804083876a545488af72e4b63117c8d628b97a1b4e9a29ba880d4b4b559f70002ff",
                    "decodedMethod": null,
                    "errorInfo": "",
                    "fromAddress": "0x4b8aa8a96078689384dab49691e9ba51f9d2f9e1",
                    "gasUsed": 150,
                    "id": 29,
                    "methodDecoded": false,
                    "operation": "STATICCALL",
                    "output": "0x24232bad3d67da8318bda804510d13a856138f930f26d2e6e1047fef287eb06c04f55e97a2208de4fed2719604ece18f4232e2fc0f0e613159ca40957960c9d3",
                    "revert": false,
                    "revertMessage": "",
                    "selector": "0x1f7f6dd7",
                    "status": true,
                    "value": "0"
                },
                "nodeType": 0
            },
            "3": {
                "invocation": {
                    "address": "0x585dfad7bf4099e011d185e266907a8ab60dad2d",
                    "callData": "0x0000000000000000000000000000000000000000000000000000000000000040d592ec651a0ec4a7dbcd1b08c9efc7eb2be6b663fc2284cef6d256b10e3dce2100000000000000000000000000000000000000000000000000000000000006e000000000000000000000000000000000000000000096b259a2dcbdc8b6d938b500000000000000000000000000000000000000000032853747d6cf724776f123000000000000000000000000000000000000000000001e76979323e9db4fb3e50000000000000000000000000000000000000000004ef5403b7c0c527c77346a0000000000000000000000000000000000000000002f8dcc00eef2b1e5c6cb300000000000000000000000000000000000000000000018b682b78736c4d0640700000000000000000000000000000000000000000054f1fd3217b7a40cc71af5000000000000000000000000000000000000000000f372d2d82b2136ecc294e2000000000000000000000000000000000000000000000a1a8c39f42661e506d60000000000000000000000000000000000000000000a5124c44e587ee99b3b2e0000000000000000000000000000000000000000003ab92f33a5e1d2f1f899b0000000000000000000000000000000000000000000000b72646b9cc473a0bbf100f4f856cdc7ece764faeedb697f99ea4961b422851b16feac38d6f89c5cf0061885e898cc65bca90d09f00e84d4858aad7cdc53bcad77343561dfd47a00da6510ca66285168de37567b060fa7412cad5a69c81cc57cfea8beaf156d0c29018b19414d5577b5be265cc6364c7b03219ad00ccf101638d7b677cc74c991812da3303f3905be5be4ffc138f1193d534e051260dab7af47f8f1d63e12a15bc749f5046942dbb9d28ac5b0811e5aeaece5b863769af16119b397b68850011972d7e915ea340aeda37a3481c3480d17a178835d99d72dc3ae50785bd6b5b90258b4b803311b253130396040c47f8053eb7c0024bfdfed0117e5dac8c3e58dbd35d68622de4ed9c72e6e4f8c9644a753c8443b92863d2dbca47586f8529fea3f54edf400b27290c27a2fa696dd5be5b0e09b3b9d7f431074d60222fca362c2fce4633d00000000000000000000000000000000000000000000000000000000000000010000000000000000000000000000000000000000000000000000000000000002041a22e5b318cf819af3ba36b1ac93e94ce8d87822b0684c4e9e9fc98f7ea16518ec7a275cef9e134a4860ee8b1b4990367bd77e6f50d27caa91b96df9230fc6151ed8a60095cd9417455b8f6a9205a46dceb1a1bb2d8c609d8de49c28ae03a70e996d1b80ae85ce0d3ab6f8e19b5a19888d97ad8148d46664534c472b39b2192ea6216f9b45ce3e4a2309a9e5e86e26bfd173c8068c3b1ff79195eab2864524176e82d57f538a091666e550d47f0eaf6723e88e98a8c6e0cbeadf3e465cc9fa26e0db76e20e9d4ee99f781eb05de8dcf2cdcd5899c8e516d7964e2d6e73045a0b95105bf4298962b91f40367a33b04ccdae721a5fff7ef75df0287a19b7544f2e95df21667d90d2bfb3e8e6c7edfbd2f454dcd66c428da2407e3caea678f2f009cdffb7427c6396982a61ced8608f56c769ea6b41ca28eeced7cca62c55d1a72eb9c4059305b6dcc604d22714f48327dc98a0bc502d6432c517728a596d40350621d360f8a3ed97d78d48693cbb5bc8eee7cd304ce714878a81a7b74fb06f5b01fc4956345507bcc911da1f14d8e3faeb9890851c9a7f67b93999b52fa8be30261522a6236b99f97a62bae08dd9d2284923abb28c823a59b370daf67093b7aa08ea891d3cbc6b18950c36429456f917a3d4afcdcc7c0e6b181407d2cec673fb0a6260ce82d4d9ffd555a70e5b8328620fd175a23ac76e50fbfcddf44ba781b400000000000000000000000000000000000000000000000000000000000000012ed04010e8a95cb01e7ef191eee7bbabf3ffbc60b872d7eebf85cb97dbe8535b15115c8b49b37281cf26af6949b55648644adc807afdd887bb09eeaaf1b7f5761ed498d649ba0542f4f937925d7f48bacef4c3bbcf004b1c34d939a0de6d917822e2637f2c229f248b96cb6847b5e2376da3fb6354f01492ee7989f606d0b721170c892368944a8b90b3cd9c5329cbf952320534a7ed66affe6acb7ae8cdb81e25e31f824037207e3eb4291faeb87834a47e73e81350a911256e473c9bbb167b11835ccba000d2f044c2fac6c552fbb6e366232610288a498ee452f2e094776e2aa2f086785f0d6de679e93419b5b11475e5110c217bedbc26ffd67198345845242c18d8c4020654bdf2102adcba7e258cb92aa5b7f183f7c912359416c967b71c55af794f8c1049cf1f98a6683e9e32143de0e31b3693673e832fd6da3092fb29b31ac183da387d3d2dd0591af09d95d814de9929ba5f7e22dc9d87b2a7e787185847f1d9cd09a59906867d38088925d738aba4a3b9ae98b0317752904e900a00a9a22fabd6ebbe64d62608920017d6918a5b7ea62eb63a8cef7db85a9bd5841631623d695bf712fc3422bc1e75b344e1c19593d810a1e4fde2ec1fef1eb262",
                    "decodedMethod": {
                        "callParams": [
                            {
                                "name": "aggrProof",
                                "type": "bytes",
                                "value": "0x00000000000000000000000000000000000000000096b259a2dcbdc8b6d938b500000000000000000000000000000000000000000032853747d6cf724776f123000000000000000000000000000000000000000000001e76979323e9db4fb3e50000000000000000000000000000000000000000004ef5403b7c0c527c77346a0000000000000000000000000000000000000000002f8dcc00eef2b1e5c6cb300000000000000000000000000000000000000000000018b682b78736c4d0640700000000000000000000000000000000000000000054f1fd3217b7a40cc71af5000000000000000000000000000000000000000000f372d2d82b2136ecc294e2000000000000000000000000000000000000000000000a1a8c39f42661e506d60000000000000000000000000000000000000000000a5124c44e587ee99b3b2e0000000000000000000000000000000000000000003ab92f33a5e1d2f1f899b0000000000000000000000000000000000000000000000b72646b9cc473a0bbf100f4f856cdc7ece764faeedb697f99ea4961b422851b16feac38d6f89c5cf0061885e898cc65bca90d09f00e84d4858aad7cdc53bcad77343561dfd47a00da6510ca66285168de37567b060fa7412cad5a69c81cc57cfea8beaf156d0c29018b19414d5577b5be265cc6364c7b03219ad00ccf101638d7b677cc74c991812da3303f3905be5be4ffc138f1193d534e051260dab7af47f8f1d63e12a15bc749f5046942dbb9d28ac5b0811e5aeaece5b863769af16119b397b68850011972d7e915ea340aeda37a3481c3480d17a178835d99d72dc3ae50785bd6b5b90258b4b803311b253130396040c47f8053eb7c0024bfdfed0117e5dac8c3e58dbd35d68622de4ed9c72e6e4f8c9644a753c8443b92863d2dbca47586f8529fea3f54edf400b27290c27a2fa696dd5be5b0e09b3b9d7f431074d60222fca362c2fce4633d00000000000000000000000000000000000000000000000000000000000000010000000000000000000000000000000000000000000000000000000000000002041a22e5b318cf819af3ba36b1ac93e94ce8d87822b0684c4e9e9fc98f7ea16518ec7a275cef9e134a4860ee8b1b4990367bd77e6f50d27caa91b96df9230fc6151ed8a60095cd9417455b8f6a9205a46dceb1a1bb2d8c609d8de49c28ae03a70e996d1b80ae85ce0d3ab6f8e19b5a19888d97ad8148d46664534c472b39b2192ea6216f9b45ce3e4a2309a9e5e86e26bfd173c8068c3b1ff79195eab2864524176e82d57f538a091666e550d47f0eaf6723e88e98a8c6e0cbeadf3e465cc9fa26e0db76e20e9d4ee99f781eb05de8dcf2cdcd5899c8e516d7964e2d6e73045a0b95105bf4298962b91f40367a33b04ccdae721a5fff7ef75df0287a19b7544f2e95df21667d90d2bfb3e8e6c7edfbd2f454dcd66c428da2407e3caea678f2f009cdffb7427c6396982a61ced8608f56c769ea6b41ca28eeced7cca62c55d1a72eb9c4059305b6dcc604d22714f48327dc98a0bc502d6432c517728a596d40350621d360f8a3ed97d78d48693cbb5bc8eee7cd304ce714878a81a7b74fb06f5b01fc4956345507bcc911da1f14d8e3faeb9890851c9a7f67b93999b52fa8be30261522a6236b99f97a62bae08dd9d2284923abb28c823a59b370daf67093b7aa08ea891d3cbc6b18950c36429456f917a3d4afcdcc7c0e6b181407d2cec673fb0a6260ce82d4d9ffd555a70e5b8328620fd175a23ac76e50fbfcddf44ba781b400000000000000000000000000000000000000000000000000000000000000012ed04010e8a95cb01e7ef191eee7bbabf3ffbc60b872d7eebf85cb97dbe8535b15115c8b49b37281cf26af6949b55648644adc807afdd887bb09eeaaf1b7f5761ed498d649ba0542f4f937925d7f48bacef4c3bbcf004b1c34d939a0de6d917822e2637f2c229f248b96cb6847b5e2376da3fb6354f01492ee7989f606d0b721170c892368944a8b90b3cd9c5329cbf952320534a7ed66affe6acb7ae8cdb81e25e31f824037207e3eb4291faeb87834a47e73e81350a911256e473c9bbb167b11835ccba000d2f044c2fac6c552fbb6e366232610288a498ee452f2e094776e2aa2f086785f0d6de679e93419b5b11475e5110c217bedbc26ffd67198345845242c18d8c4020654bdf2102adcba7e258cb92aa5b7f183f7c912359416c967b71c55af794f8c1049cf1f98a6683e9e32143de0e31b3693673e832fd6da3092fb29b31ac183da387d3d2dd0591af09d95d814de9929ba5f7e22dc9d87b2a7e787185847f1d9cd09a59906867d38088925d738aba4a3b9ae98b0317752904e900a00a9a22fabd6ebbe64d62608920017d6918a5b7ea62eb63a8cef7db85a9bd5841631623d695bf712fc3422bc1e75b344e1c19593d810a1e4fde2ec1fef1eb262"
                            },
                            {
                                "name": "publicInputHash",
                                "type": "bytes32",
                                "value": "0xd592ec651a0ec4a7dbcd1b08c9efc7eb2be6b663fc2284cef6d256b10e3dce21"
                            }
                        ],
                        "constructorArguments": "",
                        "name": "verify",
                        "returnParams": [],
                        "signature": "verify(bytes,bytes32)"
                    },
                    "errorInfo": "",
                    "fromAddress": "0xa2ab526e5c5491f10fc05a55f064bf9f7cef32a0",
                    "gasUsed": 291948,
                    "id": 3,
                    "methodDecoded": true,
                    "operation": "STATICCALL",
                    "output": "",
                    "revert": false,
                    "revertMessage": "",
                    "selector": "0x6b406341",
                    "status": true,
                    "value": "0"
                },
                "nodeType": 0
            },
            "30": {
                "invocation": {
                    "address": "0x0000000000000000000000000000000000000007",
                    "callData": "0x1057e29b01589d15372ec8e277de6eace5a889838bdfd8bdfa7188862fd77ef0aeda75604fa6d07526d08c41b425b3721afc444a205ffa540c9537cf067c10a6ff3834102ed98549f26f6da9f732e7be5ca1f28772bc32caf0ac4ba3",
                    "decodedMethod": null,
                    "errorInfo": "",
                    "fromAddress": "0x4b8aa8a96078689384dab49691e9ba51f9d2f9e1",
                    "gasUsed": 6000,
                    "id": 30,
                    "methodDecoded": false,
                    "operation": "STATICCALL",
                    "output": "0x18262074532e680e0b66424d509fc5375da1f82619ca917eb7ff8ffe7dcc732616d29c3072a5f6027f5fd4e13325b4dd206f485769efccb848e20ba8c59575d4",
                    "revert": false,
                    "revertMessage": "",
                    "selector": "0x0e455b2b",
                    "status": true,
                    "value": "0"
                },
                "nodeType": 0
            },
            "31": {
                "invocation": {
                    "address": "0x0000000000000000000000000000000000000006",
                    "callData": "0x3d67da8318bda804510d13a856138f930f26d2e6e1047fef287eb06c04f55e97a2208de4fed2719604ece18f4232e2fc0f0e613159ca40957960c9d318262074532e680e0b66424d509fc5375da1f82619ca917eb7ff8ffe7dcc732616d29c3072a5f6027f5fd4e13325b4dd206f485769efccb848e20ba8c59575d4",
                    "decodedMethod": null,
                    "errorInfo": "",
                    "fromAddress": "0x4b8aa8a96078689384dab49691e9ba51f9d2f9e1",
                    "gasUsed": 150,
                    "id": 31,
                    "methodDecoded": false,
                    "operation": "STATICCALL",
                    "output": "0x0391f29553a64932de36160de76dacf58f3a56ed8125d40dbcd9d232f8a5da7e057572f9d7c2ba0d291551cc273993b31bf0e6899aff40d9677e9c8d03bd43bb",
                    "revert": false,
                    "revertMessage": "",
                    "selector": "0x24232bad",
                    "status": true,
                    "value": "0"
                },
                "nodeType": 0
            },
            "32": {
                "invocation": {
                    "address": "0x0000000000000000000000000000000000000007",
                    "callData": "0xb318cf819af3ba36b1ac93e94ce8d87822b0684c4e9e9fc98f7ea16518ec7a275cef9e134a4860ee8b1b4990367bd77e6f50d27caa91b96df9230fc615380544b2031c2bff66835b788c6da87db33db6be701e338f66f6d016c22f6e",
                    "decodedMethod": null,
                    "errorInfo": "",
                    "fromAddress": "0x4b8aa8a96078689384dab49691e9ba51f9d2f9e1",
                    "gasUsed": 6000,
                    "id": 32,
                    "methodDecoded": false,
                    "operation": "STATICCALL",
                    "output": "0x0990cea040f612e4e89e31bb87566dc8094ce9bdab035e74c741122be163dc181fd433733a730bd9e408cd9f0d72400b3b194173071b7bec71f73c5ee15280c1",
                    "revert": false,
                    "revertMessage": "",
                    "selector": "0x041a22e5",
                    "status": true,
                    "value": "0"
                },
                "nodeType": 0
            },
            "33": {
                "invocation": {
                    "address": "0x0000000000000000000000000000000000000006",
                    "callData": "0x53a64932de36160de76dacf58f3a56ed8125d40dbcd9d232f8a5da7e057572f9d7c2ba0d291551cc273993b31bf0e6899aff40d9677e9c8d03bd43bb0990cea040f612e4e89e31bb87566dc8094ce9bdab035e74c741122be163dc181fd433733a730bd9e408cd9f0d72400b3b194173071b7bec71f73c5ee15280c1",
                    "decodedMethod": null,
                    "errorInfo": "",
                    "fromAddress": "0x4b8aa8a96078689384dab49691e9ba51f9d2f9e1",
                    "gasUsed": 150,
                    "id": 33,
                    "methodDecoded": false,
                    "operation": "STATICCALL",
                    "output": "0x29944e57a388f6ca14dd3aad6b3ba0683f4dc0a9676f4510dd700e49e48d3aff130539a160284572eb37b46aeaf5e3918fe8aaafcbff6e0180831eae7a0f972d",
                    "revert": false,
                    "revertMessage": "",
                    "selector": "0x0391f295",
                    "status": true,
                    "value": "0"
                },
                "nodeType": 0
            },
            "34": {
                "invocation": {
                    "address": "0x0000000000000000000000000000000000000007",
                    "callData": "0x0095cd9417455b8f6a9205a46dceb1a1bb2d8c609d8de49c28ae03a70e996d1b80ae85ce0d3ab6f8e19b5a19888d97ad8148d46664534c472b39b2190f0149092e71b81979f6d8dcae1526a204d4428f7f0e674af0b63809db4b5b4d",
                    "decodedMethod": null,
                    "errorInfo": "",
                    "fromAddress": "0x4b8aa8a96078689384dab49691e9ba51f9d2f9e1",
                    "gasUsed": 6000,
                    "id": 34,
                    "methodDecoded": false,
                    "operation": "STATICCALL",
                    "output": "0x04939158a3ce41f23610bc0c781e1518a2793e41e725e6c710834f9238b024190bc828bf55720f78a8f993e77fc736acae68f0a87138db79b6d672a8484ec41d",
                    "revert": false,
                    "revertMessage": "",
                    "selector": "0x151ed8a6",
                    "status": true,
                    "value": "0"
                },
                "nodeType": 0
            },
            "35": {
                "invocation": {
                    "address": "0x0000000000000000000000000000000000000006",
                    "callData": "0xa388f6ca14dd3aad6b3ba0683f4dc0a9676f4510dd700e49e48d3aff130539a160284572eb37b46aeaf5e3918fe8aaafcbff6e0180831eae7a0f972d04939158a3ce41f23610bc0c781e1518a2793e41e725e6c710834f9238b024190bc828bf55720f78a8f993e77fc736acae68f0a87138db79b6d672a8484ec41d",
                    "decodedMethod": null,
                    "errorInfo": "",
                    "fromAddress": "0x4b8aa8a96078689384dab49691e9ba51f9d2f9e1",
                    "gasUsed": 150,
                    "id": 35,
                    "methodDecoded": false,
                    "operation": "STATICCALL",
                    "output": "0x08b51fd472807052472d7c22657f373ddecae81e4198eceb97e995a05f24778017addd7c7f799ca3e131364efceca8148e1984d9c42b69211d4544a2832d3e9e",
                    "revert": false,
                    "revertMessage": "",
                    "selector": "0x29944e57",
                    "status": true,
                    "value": "0"
                },
                "nodeType": 0
            },
            "36": {
                "invocation": {
                    "address": "0x0000000000000000000000000000000000000007",
                    "callData": "0x9b45ce3e4a2309a9e5e86e26bfd173c8068c3b1ff79195eab2864524176e82d57f538a091666e550d47f0eaf6723e88e98a8c6e0cbeadf3e465cc9fa16741117181c10943c76f2fe7cc31b07a5d9dc05561884502c6978c955c8fadf",
                    "decodedMethod": null,
                    "errorInfo": "",
                    "fromAddress": "0x4b8aa8a96078689384dab49691e9ba51f9d2f9e1",
                    "gasUsed": 6000,
                    "id": 36,
                    "methodDecoded": false,
                    "operation": "STATICCALL",
                    "output": "0x0fbb0240991e702070bb7c541edfd6dbaee8bbda084247a79e0a99ebc1087eb408cd0c434af16cae6b307f439caf270598dbdb5fe10f2dc408a868a998afcc49",
                    "revert": false,
                    "revertMessage": "",
                    "selector": "0x2ea6216f",
                    "status": true,
                    "value": "0"
                },
                "nodeType": 0
            },
            "37": {
                "invocation": {
                    "address": "0x0000000000000000000000000000000000000006",
                    "callData": "0x72807052472d7c22657f373ddecae81e4198eceb97e995a05f24778017addd7c7f799ca3e131364efceca8148e1984d9c42b69211d4544a2832d3e9e0fbb0240991e702070bb7c541edfd6dbaee8bbda084247a79e0a99ebc1087eb408cd0c434af16cae6b307f439caf270598dbdb5fe10f2dc408a868a998afcc49",
                    "decodedMethod": null,
                    "errorInfo": "",
                    "fromAddress": "0x4b8aa8a96078689384dab49691e9ba51f9d2f9e1",
                    "gasUsed": 150,
                    "id": 37,
                    "methodDecoded": false,
                    "operation": "STATICCALL",
                    "output": "0x24b4bdf8352959f9dc3e88f63ed9e55339654f8e3f78773f1b92c808c5f2b4351ed9eaea5263884d539ccf9e609ccf03161a7cb191ed3fd33a97e94b0049fece",
                    "revert": false,
                    "revertMessage": "",
                    "selector": "0x08b51fd4",
                    "status": true,
                    "value": "0"
                },
                "nodeType": 0
            },
            "38": {
                "invocation": {
                    "address": "0x0000000000000000000000000000000000000007",
                    "callData": "0xe20e9d4ee99f781eb05de8dcf2cdcd5899c8e516d7964e2d6e73045a0b95105bf4298962b91f40367a33b04ccdae721a5fff7ef75df0287a19b7544f2f28f1db054f756a81aa0ceeb05e174be8427c19f48935e7ba51ff97180fbc80",
                    "decodedMethod": null,
                    "errorInfo": "",
                    "fromAddress": "0x4b8aa8a96078689384dab49691e9ba51f9d2f9e1",
                    "gasUsed": 6000,
                    "id": 38,
                    "methodDecoded": false,
                    "operation": "STATICCALL",
                    "output": "0x26f719a8acbb6bed031e338ea9911d9441c98b5866e849fbe806604b3a808c121d453dbfa0f6dae6a48743be37c97821e72724485c7b6c1d63e8fa8dd36324f5",
                    "revert": false,
                    "revertMessage": "",
                    "selector": "0x26e0db76",
                    "status": true,
                    "value": "0"
                },
                "nodeType": 0
            },
            "39": {
                "invocation": {
                    "address": "0x0000000000000000000000000000000000000006",
                    "callData": "0x352959f9dc3e88f63ed9e55339654f8e3f78773f1b92c808c5f2b4351ed9eaea5263884d539ccf9e609ccf03161a7cb191ed3fd33a97e94b0049fece26f719a8acbb6bed031e338ea9911d9441c98b5866e849fbe806604b3a808c121d453dbfa0f6dae6a48743be37c97821e72724485c7b6c1d63e8fa8dd36324f5",
                    "decodedMethod": null,
                    "errorInfo": "",
                    "fromAddress": "0x4b8aa8a96078689384dab49691e9ba51f9d2f9e1",
                    "gasUsed": 150,
                    "id": 39,
                    "methodDecoded": false,
                    "operation": "STATICCALL",
                    "output": "0x1aee0c951d865330dc567d551e2db1b8dacb4edaa1c8d3c3985e16007c26157d06f62d73be50128a9cdb266c5e1df1604f4b50bb73f9511dda73f7d9ccbe1976",
                    "revert": false,
                    "revertMessage": "",
                    "selector": "0x24b4bdf8",
                    "status": true,
                    "value": "0"
                },
                "nodeType": 0
            },
            "4": {
                "invocation": {
                    "address": "0x4b8aa8a96078689384dab49691e9ba51f9d2f9e1",
                    "callData": "0x000000000000000000000000000000000096b259a2dcbdc8b6d938b500000000000000000000000000000000000000000032853747d6cf724776f123000000000000000000000000000000000000000000001e76979323e9db4fb3e50000000000000000000000000000000000000000004ef5403b7c0c527c77346a0000000000000000000000000000000000000000002f8dcc00eef2b1e5c6cb300000000000000000000000000000000000000000000018b682b78736c4d0640700000000000000000000000000000000000000000054f1fd3217b7a40cc71af5000000000000000000000000000000000000000000f372d2d82b2136ecc294e2000000000000000000000000000000000000000000000a1a8c39f42661e506d60000000000000000000000000000000000000000000a5124c44e587ee99b3b2e0000000000000000000000000000000000000000003ab92f33a5e1d2f1f899b0000000000000000000000000000000000000000000000b72646b9cc473a0bbf100000000000000000000000000000000000000000000000000000000000000d5000000000000000000000000000000000000000000000000000000000000009200000000000000000000000000000000000000000000000000000000000000ec0000000000000000000000000000000000000000000000000000000000000065000000000000000000000000000000000000000000000000000000000000001a000000000000000000000000000000000000000000000000000000000000000e00000000000000000000000000000000000000000000000000000000000000c400000000000000000000000000000000000000000000000000000000000000a700000000000000000000000000000000000000000000000000000000000000db00000000000000000000000000000000000000000000000000000000000000cd000000000000000000000000000000000000000000000000000000000000001b000000000000000000000000000000000000000000000000000000000000000800000000000000000000000000000000000000000000000000000000000000c900000000000000000000000000000000000000000000000000000000000000ef00000000000000000000000000000000000000000000000000000000000000c700000000000000000000000000000000000000000000000000000000000000eb000000000000000000000000000000000000000000000000000000000000002b00000000000000000000000000000000000000000000000000000000000000e600000000000000000000000000000000000000000000000000000000000000b6000000000000000000000000000000000000000000000000000000000000006300000000000000000000000000000000000000000000000000000000000000fc0000000000000000000000000000000000000000000000000000000000000022000000000000000000000000000000000000000000000000000000000000008400000000000000000000000000000000000000000000000000000000000000ce00000000000000000000000000000000000000000000000000000000000000f600000000000000000000000000000000000000000000000000000000000000d2000000000000000000000000000000000000000000000000000000000000005600000000000000000000000000000000000000000000000000000000000000b1000000000000000000000000000000000000000000000000000000000000000e000000000000000000000000000000000000000000000000000000000000003d00000000000000000000000000000000000000000000000000000000000000ce000000000000000000000000000000000000000000000000000000000000002100f4f856cdc7ece764faeedb697f99ea4961b422851b16feac38d6f89c5cf0061885e898cc65bca90d09f00e84d4858aad7cdc53bcad77343561dfd47a00da6510ca66285168de37567b060fa7412cad5a69c81cc57cfea8beaf156d0c29018b19414d5577b5be265cc6364c7b03219ad00ccf101638d7b677cc74c991812da3303f3905be5be4ffc138f1193d534e051260dab7af47f8f1d63e12a15bc749f5046942dbb9d28ac5b0811e5aeaece5b863769af16119b397b68850011972d7e915ea340aeda37a3481c3480d17a178835d99d72dc3ae50785bd6b5b90258b4b803311b253130396040c47f8053eb7c0024bfdfed0117e5dac8c3e58dbd35d68622de4ed9c72e6e4f8c9644a753c8443b92863d2dbca47586f8529fea3f54edf400b27290c27a2fa696dd5be5b0e09b3b9d7f431074d60222fca362c2fce4633d00000000000000000000000000000000000000000000000000000000000000010000000000000000000000000000000000000000000000000000000000000002041a22e5b318cf819af3ba36b1ac93e94ce8d87822b0684c4e9e9fc98f7ea16518ec7a275cef9e134a4860ee8b1b4990367bd77e6f50d27caa91b96df9230fc6151ed8a60095cd9417455b8f6a9205a46dceb1a1bb2d8c609d8de49c28ae03a70e996d1b80ae85ce0d3ab6f8e19b5a19888d97ad8148d46664534c472b39b2192ea6216f9b45ce3e4a2309a9e5e86e26bfd173c8068c3b1ff79195eab2864524176e82d57f538a091666e550d47f0eaf6723e88e98a8c6e0cbeadf3e465cc9fa26e0db76e20e9d4ee99f781eb05de8dcf2cdcd5899c8e516d7964e2d6e73045a0b95105bf4298962b91f40367a33b04ccdae721a5fff7ef75df0287a19b7544f2e95df21667d90d2bfb3e8e6c7edfbd2f454dcd66c428da2407e3caea678f2f009cdffb7427c6396982a61ced8608f56c769ea6b41ca28eeced7cca62c55d1a72eb9c4059305b6dcc604d22714f48327dc98a0bc502d6432c517728a596d40350621d360f8a3ed97d78d48693cbb5bc8eee7cd304ce714878a81a7b74fb06f5b01fc4956345507bcc911da1f14d8e3faeb9890851c9a7f67b93999b52fa8be30261522a6236b99f97a62bae08dd9d2284923abb28c823a59b370daf67093b7aa08ea891d3cbc6b18950c36429456f917a3d4afcdcc7c0e6b181407d2cec673fb0a6260ce82d4d9ffd555a70e5b8328620fd175a23ac76e50fbfcddf44ba781b400000000000000000000000000000000000000000000000000000000000000012ed04010e8a95cb01e7ef191eee7bbabf3ffbc60b872d7eebf85cb97dbe8535b15115c8b49b37281cf26af6949b55648644adc807afdd887bb09eeaaf1b7f5761ed498d649ba0542f4f937925d7f48bacef4c3bbcf004b1c34d939a0de6d917822e2637f2c229f248b96cb6847b5e2376da3fb6354f01492ee7989f606d0b721170c892368944a8b90b3cd9c5329cbf952320534a7ed66affe6acb7ae8cdb81e25e31f824037207e3eb4291faeb87834a47e73e81350a911256e473c9bbb167b11835ccba000d2f044c2fac6c552fbb6e366232610288a498ee452f2e094776e2aa2f086785f0d6de679e93419b5b11475e5110c217bedbc26ffd67198345845242c18d8c4020654bdf2102adcba7e258cb92aa5b7f183f7c912359416c967b71c55af794f8c1049cf1f98a6683e9e32143de0e31b3693673e832fd6da3092fb29b31ac183da387d3d2dd0591af09d95d814de9929ba5f7e22dc9d87b2a7e787185847f1d9cd09a59906867d38088925d738aba4a3b9ae98b0317752904e900a00a9a22fabd6ebbe64d62608920017d6918a5b7ea62eb63a8cef7db85a9bd5841631623d695bf712fc3422bc1e75b344e1c19593d810a1e4fde2ec1fef1eb262",
                    "decodedMethod": {
                        "callParams": [],
                        "constructorArguments": "",
                        "name": "execute_44g58pv",
                        "returnParams": [],
                        "signature": "execute_44g58pv()"
                    },
                    "errorInfo": "",
                    "fromAddress": "0x585dfad7bf4099e011d185e266907a8ab60dad2d",
                    "gasUsed": 285450,
                    "id": 4,
                    "methodDecoded": true,
                    "operation": "STATICCALL",
                    "output": "",
                    "revert": false,
                    "revertMessage": "",
                    "selector": "0x00000000",
                    "status": true,
                    "value": "0"
                },
                "nodeType": 0
            },
            "40": {
                "invocation": {
                    "address": "0x0000000000000000000000000000000000000007",
                    "callData": "0x0000000000000000000000000000000000000000000000000000000100000000000000000000000000000000000000000000000000000000000000021235093d36a2ee105e8d6994167ee8dcacb7189ab72ed2328cd28886b68db46e",
                    "decodedMethod": {
                        "callParams": [],
                        "constructorArguments": "",
                        "name": "ROOT4146650865",
                        "returnParams": [
                            {
                                "name": "",
                                "type": "bytes4",
                                "value": "0x2458756e"
                            }
                        ],
                        "signature": "ROOT4146650865()"
                    },
                    "errorInfo": "",
                    "fromAddress": "0x4b8aa8a96078689384dab49691e9ba51f9d2f9e1",
                    "gasUsed": 6000,
                    "id": 40,
                    "methodDecoded": true,
                    "operation": "STATICCALL",
                    "output": "0x2458756e6e3cc84c8835b93d19ad063f642c98cb29cb7c615122be62da64afe51ac4d855cbc7df24715b94b301520f5becc62cc3ddb86a0f91d6ac260efb00e0",
                    "revert": false,
                    "revertMessage": "",
                    "selector": "0x00000000",
                    "status": true,
                    "value": "0"
                },
                "nodeType": 0
            },
            "41": {
                "invocation": {
                    "address": "0x0000000000000000000000000000000000000006",
                    "callData": "0x1d865330dc567d551e2db1b8dacb4edaa1c8d3c3985e16007c26157d06f62d73be50128a9cdb266c5e1df1604f4b50bb73f9511dda73f7d9ccbe19762458756e6e3cc84c8835b93d19ad063f642c98cb29cb7c615122be62da64afe51ac4d855cbc7df24715b94b301520f5becc62cc3ddb86a0f91d6ac260efb00e0",
                    "decodedMethod": null,
                    "errorInfo": "",
                    "fromAddress": "0x4b8aa8a96078689384dab49691e9ba51f9d2f9e1",
                    "gasUsed": 150,
                    "id": 41,
                    "methodDecoded": false,
                    "operation": "STATICCALL",
                    "output": "0x0d65c44061cbffaf496ba05c380839e5d59b64b278579d7662add00b1d8dd1512c4abcfa2e408562101bfae3d85c32934aa476727a424d31690bc1262628e8f3",
                    "revert": false,
                    "revertMessage": "",
                    "selector": "0x1aee0c95",
                    "status": true,
                    "value": "0"
                },
                "nodeType": 0
            },
            "42": {
                "invocation": {
                    "address": "0x0000000000000000000000000000000000000007",
                    "callData": "0x83da387d3d2dd0591af09d95d814de9929ba5f7e22dc9d87b2a7e787185847f1d9cd09a59906867d38088925d738aba4a3b9ae98b0317752904e900a0ac9116b21e45a077c35c88a27f908f5be5ff9434dd268116ef4d2209d0c2c8e",
                    "decodedMethod": null,
                    "errorInfo": "",
                    "fromAddress": "0x4b8aa8a96078689384dab49691e9ba51f9d2f9e1",
                    "gasUsed": 6000,
                    "id": 42,
                    "methodDecoded": false,
                    "operation": "STATICCALL",
                    "output": "0x2edadc0f9439bb4edb97d142c8832043e4ed61124bc9f3588299d1b61f9f4f5b11de26dae4d78595eb4a19e92e5e4ebdee09fb478209e4fa9f5fff8dee465ac8",
                    "revert": false,
                    "revertMessage": "",
                    "selector": "0x29b31ac1",
                    "status": true,
                    "value": "0"
                },
                "nodeType": 0
            },
            "43": {
                "invocation": {
                    "address": "0x0000000000000000000000000000000000000006",
                    "callData": "0x61cbffaf496ba05c380839e5d59b64b278579d7662add00b1d8dd1512c4abcfa2e408562101bfae3d85c32934aa476727a424d31690bc1262628e8f32edadc0f9439bb4edb97d142c8832043e4ed61124bc9f3588299d1b61f9f4f5b11de26dae4d78595eb4a19e92e5e4ebdee09fb478209e4fa9f5fff8dee465ac8",
                    "decodedMethod": null,
                    "errorInfo": "",
                    "fromAddress": "0x4b8aa8a96078689384dab49691e9ba51f9d2f9e1",
                    "gasUsed": 150,
                    "id": 43,
                    "methodDecoded": false,
                    "operation": "STATICCALL",
                    "output": "0x1eef0b1d7bd8ad06b76504726578b4ebd6627e1ca7e8330e4edd79ba2543a7f227128930d23fe26e00e0f7214c3bee95f02cc8f2e8b2586eedd0e935ea3da5bd",
                    "revert": false,
                    "revertMessage": "",
                    "selector": "0x0d65c440",
                    "status": true,
                    "value": "0"
                },
                "nodeType": 0
            },
            "44": {
                "invocation": {
                    "address": "0x0000000000000000000000000000000000000007",
                    "callData": "0xabd6ebbe64d62608920017d6918a5b7ea62eb63a8cef7db85a9bd5841631623d695bf712fc3422bc1e75b344e1c19593d810a1e4fde2ec1fef1eb2622f96f870b9da9489104e479056902baa9fda49e18c4ed16171005e73ef1670e5",
                    "decodedMethod": null,
                    "errorInfo": "",
                    "fromAddress": "0x4b8aa8a96078689384dab49691e9ba51f9d2f9e1",
                    "gasUsed": 6000,
                    "id": 44,
                    "methodDecoded": false,
                    "operation": "STATICCALL",
                    "output": "0x2242c6d2f9dd2a370b72adfa732ec4ca47a8659b52fa62efe30f6bbe8e43f805260c1c9a7268935d60be6381aea3e10fd7b043dca8eaba462825bd10de8574ac",
                    "revert": false,
                    "revertMessage": "",
                    "selector": "0x00a9a22f",
                    "status": true,
                    "value": "0"
                },
                "nodeType": 0
            },
            "45": {
                "invocation": {
                    "address": "0x0000000000000000000000000000000000000006",
                    "callData": "0x7bd8ad06b76504726578b4ebd6627e1ca7e8330e4edd79ba2543a7f227128930d23fe26e00e0f7214c3bee95f02cc8f2e8b2586eedd0e935ea3da5bd2242c6d2f9dd2a370b72adfa732ec4ca47a8659b52fa62efe30f6bbe8e43f805260c1c9a7268935d60be6381aea3e10fd7b043dca8eaba462825bd10de8574ac",
                    "decodedMethod": null,
                    "errorInfo": "",
                    "fromAddress": "0x4b8aa8a96078689384dab49691e9ba51f9d2f9e1",
                    "gasUsed": 150,
                    "id": 45,
                    "methodDecoded": false,
                    "operation": "STATICCALL",
                    "output": "0x1fd27edd746f85f0426dcca78e82708c757d22bb5f0ba267cdbf7163665109ba058df3e6de9dad2968d4312ba6f2a2a7a347cd3fb7a7c435cf044f1cd667ada9",
                    "revert": false,
                    "revertMessage": "",
                    "selector": "0x1eef0b1d",
                    "status": true,
                    "value": "0"
                },
                "nodeType": 0
            },
            "46": {
                "invocation": {
                    "address": "0x0000000000000000000000000000000000000007",
                    "callData": "0x23e9db4fb3e532853747d6cf724776f12396b259a2dcbdc8b6d938b518b682b78736c4d064072f8dcc00eef2b1e5c6cb304ef5403b7c0c527c77346a15ebe0a5718e47af401076eb7b116b3322502effec5c70dc3fb51e6c7ecd99f3",
                    "decodedMethod": null,
                    "errorInfo": "",
                    "fromAddress": "0x4b8aa8a96078689384dab49691e9ba51f9d2f9e1",
                    "gasUsed": 6000,
                    "id": 46,
                    "methodDecoded": false,
                    "operation": "STATICCALL",
                    "output": "0x29cbd297f4256dc05c3940c875aec30830eff10017ca45694dc2fddb844eddd90d620a3ee88035a293ebfbb017e1488f54fbea00027c94287ab777d87423a480",
                    "revert": false,
                    "revertMessage": "",
                    "selector": "0x1e769793",
                    "status": true,
                    "value": "0"
                },
                "nodeType": 0
            },
            "47": {
                "invocation": {
                    "address": "0x0000000000000000000000000000000000000006",
                    "callData": "0x746f85f0426dcca78e82708c757d22bb5f0ba267cdbf7163665109ba058df3e6de9dad2968d4312ba6f2a2a7a347cd3fb7a7c435cf044f1cd667ada929cbd297f4256dc05c3940c875aec30830eff10017ca45694dc2fddb844eddd90d620a3ee88035a293ebfbb017e1488f54fbea00027c94287ab777d87423a480",
                    "decodedMethod": null,
                    "errorInfo": "",
                    "fromAddress": "0x4b8aa8a96078689384dab49691e9ba51f9d2f9e1",
                    "gasUsed": 150,
                    "id": 47,
                    "methodDecoded": false,
                    "operation": "STATICCALL",
                    "output": "0x1a1a94d72f6c774288f8b16d8dd9ff59a53941291c3db70686852fff90e960ea11bc7578dfdbc7c4e1ca5fce67248a20a963496a10349d3e73b3cca9c09c3c57",
                    "revert": false,
                    "revertMessage": "",
                    "selector": "0x1fd27edd",
                    "status": true,
                    "value": "0"
                },
                "nodeType": 0
            },
            "48": {
                "invocation": {
                    "address": "0x0000000000000000000000000000000000000007",
                    "callData": "0xf42661e506d6f372d2d82b2136ecc294e254f1fd3217b7a40cc71af50b72646b9cc473a0bbf13ab92f33a5e1d2f1f899b00a5124c44e587ee99b3b2e15ebe0a5718e47af401076eb7b116b3322502effec5c70dc3fb51e6c7ecd99f3",
                    "decodedMethod": null,
                    "errorInfo": "",
                    "fromAddress": "0x4b8aa8a96078689384dab49691e9ba51f9d2f9e1",
                    "gasUsed": 6000,
                    "id": 48,
                    "methodDecoded": false,
                    "operation": "STATICCALL",
                    "output": "0x27b43a0145b00563522c2eb8650d9d98794693b7ea5a7d03409ba8c0684cd7cd12cbacfea16b1a1d5e5d69ee9a5ed774752eae4a23a956681fa48d2504f2ce19",
                    "revert": false,
                    "revertMessage": "",
                    "selector": "0x0a1a8c39",
                    "status": true,
                    "value": "0"
                },
                "nodeType": 0
            },
            "49": {
                "invocation": {
                    "address": "0x0000000000000000000000000000000000000006",
                    "callData": "0xabd6ebbe64d62608920017d6918a5b7ea62eb63a8cef7db85a9bd5841631623d695bf712fc3422bc1e75b344e1c19593d810a1e4fde2ec1fef1eb26227b43a0145b00563522c2eb8650d9d98794693b7ea5a7d03409ba8c0684cd7cd12cbacfea16b1a1d5e5d69ee9a5ed774752eae4a23a956681fa48d2504f2ce19",
                    "decodedMethod": null,
                    "errorInfo": "",
                    "fromAddress": "0x4b8aa8a96078689384dab49691e9ba51f9d2f9e1",
                    "gasUsed": 150,
                    "id": 49,
                    "methodDecoded": false,
                    "operation": "STATICCALL",
                    "output": "0x1e1d70418071ef86d6be93323143be0a2fb6a549939b69dd8104f898840d5eef260fcea6d36244ead037227106cad2eea7db923524b04fd5684ae764cb79858a",
                    "revert": false,
                    "revertMessage": "",
                    "selector": "0x00a9a22f",
                    "status": true,
                    "value": "0"
                },
                "nodeType": 0
            },
            "5": {
                "invocation": {
                    "address": "0x0000000000000000000000000000000000000005",
                    "callData": "0x0000000000000000000000000000000000000000000000000000002000000000000000000000000000000000000000000000000000000000000000200000000000000000000000000000000000000000000000000000000000000020148acde4e79cc95a03d8ca17e2e0f1d8c21b6e4af6e46a6540f6836fd62f7a1a30644e72e131a029b85045b68181585d2833e84879b9709143e1f593efffffff30644e72e131a029b85045b68181585d2833e84879b9709143e1f593f0000001",
                    "decodedMethod": {
                        "callParams": [],
                        "constructorArguments": "",
                        "name": "ROOT4146650865",
                        "returnParams": [
                            {
                                "name": "",
                                "type": "bytes4",
                                "value": "0x0a8ec642"
                            }
                        ],
                        "signature": "ROOT4146650865()"
                    },
                    "errorInfo": "",
                    "fromAddress": "0x4b8aa8a96078689384dab49691e9ba51f9d2f9e1",
                    "gasUsed": 1349,
                    "id": 5,
                    "methodDecoded": true,
                    "operation": "STATICCALL",
                    "output": "0x0a8ec642b93cf59d96b64e4004026427e2cb42155ea8fd99903eb8bf6a1c4a7a",
                    "revert": false,
                    "revertMessage": "",
                    "selector": "0x00000000",
                    "status": true,
                    "value": "0"
                },
                "nodeType": 0
            },
            "50": {
                "invocation": {
                    "address": "0x0000000000000000000000000000000000000008",
                    "callData": "0x2f6c774288f8b16d8dd9ff59a53941291c3db70686852fff90e960ea11bc7578dfdbc7c4e1ca5fce67248a20a963496a10349d3e73b3cca9c09c3c57198e9393920d483a7260bfb731fb5d25f1aa493335a9e71297e485b7aef312c21800deef121f1e76426a00665e5c4479674322d4f75edadd46debd5cd992f6ed090689d0585ff075ec9e99ad690c3395bc4b313370b38ef355acdadcd122975b12c85ea5db8c6deb4aab71808dcb408fe3d1e7690c43d37b4ce6cc0166fa7daa1e1d70418071ef86d6be93323143be0a2fb6a549939b69dd8104f898840d5eef260fcea6d36244ead037227106cad2eea7db923524b04fd5684ae764cb79858a186282957db913abd99f91db59fe69922e95040603ef44c0bd7aa3adeef8f5ac17944351223333f260ddc3b4af45191b856689eda9eab5cbcddbbe570ce860d206d971ff4a7467c3ec596ed6efc674572e32fd6f52b721f97e35b0b3d354675306ecdb9f9567f59ed2eee36e1e1d58797fd13cc97fafc2910f5e8a12f202fa9a",
                    "decodedMethod": null,
                    "errorInfo": "",
                    "fromAddress": "0x4b8aa8a96078689384dab49691e9ba51f9d2f9e1",
                    "gasUsed": 113000,
                    "id": 50,
                    "methodDecoded": false,
                    "operation": "STATICCALL",
                    "output": "0x0000000000000000000000000000000000000000000000000000000000000001",
                    "revert": false,
                    "revertMessage": "",
                    "selector": "0x1a1a94d7",
                    "status": true,
                    "value": "0"
                },
                "nodeType": 0
            },
            "51": {
                "event": {
                    "contract": "0xa13baf47339d63b743e7da8741db5456dac1e556",
                    "decodedLog": {
                        "name": "FinalizeBatch",
                        "params": [
                            {
                                "name": "batchIndex",
                                "type": "uint256",
                                "value": "60,011"
                            },
                            {
                                "name": "batchHash",
                                "type": "bytes32",
                                "value": "0xfa49a3d6560c9dd3d0563f1091ad7fae5bd81faf4f9e3c3e83c678e1506b08f6"
                            },
                            {
                                "name": "stateRoot",
                                "type": "bytes32",
                                "value": "0x10052f6c9ae935634a8c91ee554953a15b70fe309ae3d1bbd78cb8ba0fab0585"
                            },
                            {
                                "name": "withdrawRoot",
                                "type": "bytes32",
                                "value": "0xc519fb61d2d70733718c611d27a89fc7e2ff2c5a1aa302fdf01122e5073a55ea"
                            }
                        ],
                        "signature": "FinalizeBatch(uint256,bytes32,bytes32,bytes32)"
                    },
                    "id": 51,
                    "logData": "0x10052f6c9ae935634a8c91ee554953a15b70fe309ae3d1bbd78cb8ba0fab0585c519fb61d2d70733718c611d27a89fc7e2ff2c5a1aa302fdf01122e5073a55ea",
                    "logDecoded": true,
                    "operation": "EVENT",
                    "revert": false,
                    "status": true,
                    "topics": [
                        "0x26ba82f907317eedc97d0cbef23de76a43dd6edb563bdb6e9407645b950a7a2d",
                        "0x000000000000000000000000000000000000000000000000000000000000ea6b",
                        "0xfa49a3d6560c9dd3d0563f1091ad7fae5bd81faf4f9e3c3e83c678e1506b08f6"
                    ]
                },
                "nodeType": 1
            },
            "6": {
                "invocation": {
                    "address": "0x0000000000000000000000000000000000000005",
                    "callData": "0x000000000000000000000000000000000000000000000000000000200000000000000000000000000000000000000000000000000000000000000020000000000000000000000000000000000000000000000000000000000000002028e6d2109c63ad948dd0482fc45eef614abaac399922226c08f3bc17a322ba2730644e72e131a029b85045b68181585d2833e84879b9709143e1f593efffffff30644e72e131a029b85045b68181585d2833e84879b9709143e1f593f0000001",
                    "decodedMethod": {
                        "callParams": [],
                        "constructorArguments": "",
                        "name": "ROOT4146650865",
                        "returnParams": [
                            {
                                "name": "",
                                "type": "bytes4",
                                "value": "0x1a5eb472"
                            }
                        ],
                        "signature": "ROOT4146650865()"
                    },
                    "errorInfo": "",
                    "fromAddress": "0x4b8aa8a96078689384dab49691e9ba51f9d2f9e1",
                    "gasUsed": 1349,
                    "id": 6,
                    "methodDecoded": true,
                    "operation": "STATICCALL",
                    "output": "0x1a5eb472aa0ad6d91a6e9f302da0161cbc976a83e9c3144696f52b56a2ab6495",
                    "revert": false,
                    "revertMessage": "",
                    "selector": "0x00000000",
                    "status": true,
                    "value": "0"
                },
                "nodeType": 0
            },
            "7": {
                "invocation": {
                    "address": "0x0000000000000000000000000000000000000005",
                    "callData": "0x00000000000000000000000000000000000000000000000000000020000000000000000000000000000000000000000000000000000000000000002000000000000000000000000000000000000000000000000000000000000000201f7f8afea222718c41b35a90541dec37ff0648e5cf99dab9f1cb85d8cc850c9c30644e72e131a029b85045b68181585d2833e84879b9709143e1f593efffffff30644e72e131a029b85045b68181585d2833e84879b9709143e1f593f0000001",
                    "decodedMethod": {
                        "callParams": [],
                        "constructorArguments": "",
                        "name": "ROOT4146650865",
                        "returnParams": [
                            {
                                "name": "",
                                "type": "bytes4",
                                "value": "0x063905c7"
                            }
                        ],
                        "signature": "ROOT4146650865()"
                    },
                    "errorInfo": "",
                    "fromAddress": "0x4b8aa8a96078689384dab49691e9ba51f9d2f9e1",
                    "gasUsed": 1349,
                    "id": 7,
                    "methodDecoded": true,
                    "operation": "STATICCALL",
                    "output": "0x063905c79617aae8265bd5a8ded095698123947f751eb9dbdf5b62da654f9232",
                    "revert": false,
                    "revertMessage": "",
                    "selector": "0x00000000",
                    "status": true,
                    "value": "0"
                },
                "nodeType": 0
            },
            "8": {
                "invocation": {
                    "address": "0x0000000000000000000000000000000000000007",
                    "callData": "0x0000000000000000000000000000000000000000000000000000000100000000000000000000000000000000000000000000000000000000000000022fc9bc1cfc7a7f80e569881dac7d9b76d34a02a10d8dd30729542419fa79041a",
                    "decodedMethod": {
                        "callParams": [],
                        "constructorArguments": "",
                        "name": "ROOT4146650865",
                        "returnParams": [
                            {
                                "name": "",
                                "type": "bytes4",
                                "value": "0x291fda96"
                            }
                        ],
                        "signature": "ROOT4146650865()"
                    },
                    "errorInfo": "",
                    "fromAddress": "0x4b8aa8a96078689384dab49691e9ba51f9d2f9e1",
                    "gasUsed": 6000,
                    "id": 8,
                    "methodDecoded": true,
                    "operation": "STATICCALL",
                    "output": "0x291fda965eac1f2dc566ee380df2151adb5152fceec7a8b242c6e021307b84a0026bf91195901cf63d73e053165c14a3f76c5cdf619bf428b52b86cdcbb46c94",
                    "revert": false,
                    "revertMessage": "",
                    "selector": "0x00000000",
                    "status": true,
                    "value": "0"
                },
                "nodeType": 0
            },
            "9": {
                "invocation": {
                    "address": "0x0000000000000000000000000000000000000006",
                    "callData": "0x5eac1f2dc566ee380df2151adb5152fceec7a8b242c6e021307b84a0026bf91195901cf63d73e053165c14a3f76c5cdf619bf428b52b86cdcbb46c9400f4f856cdc7ece764faeedb697f99ea4961b422851b16feac38d6f89c5cf0061885e898cc65bca90d09f00e84d4858aad7cdc53bcad77343561dfd47a00da65",
                    "decodedMethod": null,
                    "errorInfo": "",
                    "fromAddress": "0x4b8aa8a96078689384dab49691e9ba51f9d2f9e1",
                    "gasUsed": 150,
                    "id": 9,
                    "methodDecoded": false,
                    "operation": "STATICCALL",
                    "output": "0x2a78ca1826a9d7bca6a4374d98198f08201c8b65ae2dc753353778a4018302150a727e5dbbe4336f545a1621be418e73d0f42916ce867accdcf09ae14f04cc9e",
                    "revert": false,
                    "revertMessage": "",
                    "selector": "0x291fda96",
                    "status": true,
                    "value": "0"
                },
                "nodeType": 0
            }
        },
        "gasFlame": [
            {
                "children": [
                    {
                        "children": [
                            {
                                "children": [],
                                "depth": 0,
                                "name": "Initial Gas",
                                "value": 48236
                            },
                            {
                                "children": [
                                    {
                                        "children": [
                                            {
                                                "children": [
                                                    {
                                                        "children": [
                                                            {
                                                                "children": [
                                                                    {
                                                                        "children": [],
                                                                        "depth": 5,
                                                                        "name": "ROOT4146650865",
                                                                        "value": 1349
                                                                    },
                                                                    {
                                                                        "children": [],
                                                                        "depth": 5,
                                                                        "name": "ROOT4146650865",
                                                                        "value": 1349
                                                                    },
                                                                    {
                                                                        "children": [],
                                                                        "depth": 5,
                                                                        "name": "ROOT4146650865",
                                                                        "value": 1349
                                                                    },
                                                                    {
                                                                        "children": [],
                                                                        "depth": 5,
                                                                        "name": "ROOT4146650865",
                                                                        "value": 6000
                                                                    },
                                                                    {
                                                                        "children": [],
                                                                        "depth": 5,
                                                                        "name": "0x291fda96",
                                                                        "value": 150
                                                                    },
                                                                    {
                                                                        "children": [],
                                                                        "depth": 5,
                                                                        "name": "0x15ea340a",
                                                                        "value": 6000
                                                                    },
                                                                    {
                                                                        "children": [],
                                                                        "depth": 5,
                                                                        "name": "0x2a78ca18",
                                                                        "value": 150
                                                                    },
                                                                    {
                                                                        "children": [],
                                                                        "depth": 5,
                                                                        "name": "0x22de4ed9",
                                                                        "value": 6000
                                                                    },
                                                                    {
                                                                        "children": [],
                                                                        "depth": 5,
                                                                        "name": "0x1accad16",
                                                                        "value": 150
                                                                    },
                                                                    {
                                                                        "children": [],
                                                                        "depth": 5,
                                                                        "name": "0x10ca6628",
                                                                        "value": 6000
                                                                    },
                                                                    {
                                                                        "children": [],
                                                                        "depth": 5,
                                                                        "name": "0x2ab4a9cd",
                                                                        "value": 150
                                                                    },
                                                                    {
                                                                        "children": [],
                                                                        "depth": 5,
                                                                        "name": "0x303f3905",
                                                                        "value": 6000
                                                                    },
                                                                    {
                                                                        "children": [],
                                                                        "depth": 5,
                                                                        "name": "0x28c40105",
                                                                        "value": 150
                                                                    },
                                                                    {
                                                                        "children": [],
                                                                        "depth": 5,
                                                                        "name": "0x15084476",
                                                                        "value": 6000
                                                                    },
                                                                    {
                                                                        "children": [],
                                                                        "depth": 5,
                                                                        "name": "0x0fe811f2",
                                                                        "value": 150
                                                                    },
                                                                    {
                                                                        "children": [],
                                                                        "depth": 5,
                                                                        "name": "0x030a8de1",
                                                                        "value": 6000
                                                                    },
                                                                    {
                                                                        "children": [],
                                                                        "depth": 5,
                                                                        "name": "0x14fa54da",
                                                                        "value": 150
                                                                    },
                                                                    {
                                                                        "children": [],
                                                                        "depth": 5,
                                                                        "name": "0x2d8725ea",
                                                                        "value": 6000
                                                                    },
                                                                    {
                                                                        "children": [],
                                                                        "depth": 5,
                                                                        "name": "0x1dcd317b",
                                                                        "value": 150
                                                                    },
                                                                    {
                                                                        "children": [],
                                                                        "depth": 5,
                                                                        "name": "0x0a85625d",
                                                                        "value": 6000
                                                                    },
                                                                    {
                                                                        "children": [],
                                                                        "depth": 5,
                                                                        "name": "0x1cc905b2",
                                                                        "value": 150
                                                                    },
                                                                    {
                                                                        "children": [],
                                                                        "depth": 5,
                                                                        "name": "0x04972ee1",
                                                                        "value": 6000
                                                                    },
                                                                    {
                                                                        "children": [],
                                                                        "depth": 5,
                                                                        "name": "0x2c0ed22d",
                                                                        "value": 150
                                                                    },
                                                                    {
                                                                        "children": [],
                                                                        "depth": 5,
                                                                        "name": "0x0c8294e9",
                                                                        "value": 6000
                                                                    },
                                                                    {
                                                                        "children": [],
                                                                        "depth": 5,
                                                                        "name": "0x1f7f6dd7",
                                                                        "value": 150
                                                                    },
                                                                    {
                                                                        "children": [],
                                                                        "depth": 5,
                                                                        "name": "0x0e455b2b",
                                                                        "value": 6000
                                                                    },
                                                                    {
                                                                        "children": [],
                                                                        "depth": 5,
                                                                        "name": "0x24232bad",
                                                                        "value": 150
                                                                    },
                                                                    {
                                                                        "children": [],
                                                                        "depth": 5,
                                                                        "name": "0x041a22e5",
                                                                        "value": 6000
                                                                    },
                                                                    {
                                                                        "children": [],
                                                                        "depth": 5,
                                                                        "name": "0x0391f295",
                                                                        "value": 150
                                                                    },
                                                                    {
                                                                        "children": [],
                                                                        "depth": 5,
                                                                        "name": "0x151ed8a6",
                                                                        "value": 6000
                                                                    },
                                                                    {
                                                                        "children": [],
                                                                        "depth": 5,
                                                                        "name": "0x29944e57",
                                                                        "value": 150
                                                                    },
                                                                    {
                                                                        "children": [],
                                                                        "depth": 5,
                                                                        "name": "0x2ea6216f",
                                                                        "value": 6000
                                                                    },
                                                                    {
                                                                        "children": [],
                                                                        "depth": 5,
                                                                        "name": "0x08b51fd4",
                                                                        "value": 150
                                                                    },
                                                                    {
                                                                        "children": [],
                                                                        "depth": 5,
                                                                        "name": "0x26e0db76",
                                                                        "value": 6000
                                                                    },
                                                                    {
                                                                        "children": [],
                                                                        "depth": 5,
                                                                        "name": "0x24b4bdf8",
                                                                        "value": 150
                                                                    },
                                                                    {
                                                                        "children": [],
                                                                        "depth": 5,
                                                                        "name": "ROOT4146650865",
                                                                        "value": 6000
                                                                    },
                                                                    {
                                                                        "children": [],
                                                                        "depth": 5,
                                                                        "name": "0x1aee0c95",
                                                                        "value": 150
                                                                    },
                                                                    {
                                                                        "children": [],
                                                                        "depth": 5,
                                                                        "name": "0x29b31ac1",
                                                                        "value": 6000
                                                                    },
                                                                    {
                                                                        "children": [],
                                                                        "depth": 5,
                                                                        "name": "0x0d65c440",
                                                                        "value": 150
                                                                    },
                                                                    {
                                                                        "children": [],
                                                                        "depth": 5,
                                                                        "name": "0x00a9a22f",
                                                                        "value": 6000
                                                                    },
                                                                    {
                                                                        "children": [],
                                                                        "depth": 5,
                                                                        "name": "0x1eef0b1d",
                                                                        "value": 150
                                                                    },
                                                                    {
                                                                        "children": [],
                                                                        "depth": 5,
                                                                        "name": "0x1e769793",
                                                                        "value": 6000
                                                                    },
                                                                    {
                                                                        "children": [],
                                                                        "depth": 5,
                                                                        "name": "0x1fd27edd",
                                                                        "value": 150
                                                                    },
                                                                    {
                                                                        "children": [],
                                                                        "depth": 5,
                                                                        "name": "0x0a1a8c39",
                                                                        "value": 6000
                                                                    },
                                                                    {
                                                                        "children": [],
                                                                        "depth": 5,
                                                                        "name": "0x00a9a22f",
                                                                        "value": 150
                                                                    },
                                                                    {
                                                                        "children": [],
                                                                        "depth": 5,
                                                                        "name": "0x1a1a94d7",
                                                                        "value": 113000
                                                                    }
                                                                ],
                                                                "depth": 4,
                                                                "name": "execute_44g58pv",
                                                                "value": 285450
                                                            }
                                                        ],
                                                        "depth": 3,
                                                        "name": "verify",
                                                        "value": 291948
                                                    }
                                                ],
                                                "depth": 2,
                                                "name": "verifyAggregateProof",
                                                "value": 298127
                                            }
                                        ],
                                        "depth": 1,
                                        "name": "finalizeBatchWithProof",
                                        "value": 365661
                                    }
                                ],
                                "depth": 0,
                                "name": "Executed Gas",
                                "value": 373186
                            }
                        ],
                        "depth": -1,
                        "name": "Actual Gas Used",
                        "value": 421422
                    },
                    {
                        "children": [],
                        "depth": -1,
                        "name": "Refunded Gas",
                        "value": 0
                    }
                ],
                "depth": -2,
                "name": "Total Gas",
                "value": 421422
            }
        ],
        "isConfirmed": true,
        "mainTrace": [
            {
                "children": [
                    {
                        "children": [
                            {
                                "children": [
                                    {
                                        "children": [
                                            {
                                                "children": [
                                                    {
                                                        "children": [
                                                            {
                                                                "children": [],
                                                                "depth": 5,
                                                                "id": 5,
                                                                "order": 5
                                                            },
                                                            {
                                                                "children": [],
                                                                "depth": 5,
                                                                "id": 6,
                                                                "order": 6
                                                            },
                                                            {
                                                                "children": [],
                                                                "depth": 5,
                                                                "id": 7,
                                                                "order": 7
                                                            },
                                                            {
                                                                "children": [],
                                                                "depth": 5,
                                                                "id": 8,
                                                                "order": 8
                                                            },
                                                            {
                                                                "children": [],
                                                                "depth": 5,
                                                                "id": 9,
                                                                "order": 9
                                                            },
                                                            {
                                                                "children": [],
                                                                "depth": 5,
                                                                "id": 10,
                                                                "order": 10
                                                            },
                                                            {
                                                                "children": [],
                                                                "depth": 5,
                                                                "id": 11,
                                                                "order": 11
                                                            },
                                                            {
                                                                "children": [],
                                                                "depth": 5,
                                                                "id": 12,
                                                                "order": 12
                                                            },
                                                            {
                                                                "children": [],
                                                                "depth": 5,
                                                                "id": 13,
                                                                "order": 13
                                                            },
                                                            {
                                                                "children": [],
                                                                "depth": 5,
                                                                "id": 14,
                                                                "order": 14
                                                            },
                                                            {
                                                                "children": [],
                                                                "depth": 5,
                                                                "id": 15,
                                                                "order": 15
                                                            },
                                                            {
                                                                "children": [],
                                                                "depth": 5,
                                                                "id": 16,
                                                                "order": 16
                                                            },
                                                            {
                                                                "children": [],
                                                                "depth": 5,
                                                                "id": 17,
                                                                "order": 17
                                                            },
                                                            {
                                                                "children": [],
                                                                "depth": 5,
                                                                "id": 18,
                                                                "order": 18
                                                            },
                                                            {
                                                                "children": [],
                                                                "depth": 5,
                                                                "id": 19,
                                                                "order": 19
                                                            },
                                                            {
                                                                "children": [],
                                                                "depth": 5,
                                                                "id": 20,
                                                                "order": 20
                                                            },
                                                            {
                                                                "children": [],
                                                                "depth": 5,
                                                                "id": 21,
                                                                "order": 21
                                                            },
                                                            {
                                                                "children": [],
                                                                "depth": 5,
                                                                "id": 22,
                                                                "order": 22
                                                            },
                                                            {
                                                                "children": [],
                                                                "depth": 5,
                                                                "id": 23,
                                                                "order": 23
                                                            },
                                                            {
                                                                "children": [],
                                                                "depth": 5,
                                                                "id": 24,
                                                                "order": 24
                                                            },
                                                            {
                                                                "children": [],
                                                                "depth": 5,
                                                                "id": 25,
                                                                "order": 25
                                                            },
                                                            {
                                                                "children": [],
                                                                "depth": 5,
                                                                "id": 26,
                                                                "order": 26
                                                            },
                                                            {
                                                                "children": [],
                                                                "depth": 5,
                                                                "id": 27,
                                                                "order": 27
                                                            },
                                                            {
                                                                "children": [],
                                                                "depth": 5,
                                                                "id": 28,
                                                                "order": 28
                                                            },
                                                            {
                                                                "children": [],
                                                                "depth": 5,
                                                                "id": 29,
                                                                "order": 29
                                                            },
                                                            {
                                                                "children": [],
                                                                "depth": 5,
                                                                "id": 30,
                                                                "order": 30
                                                            },
                                                            {
                                                                "children": [],
                                                                "depth": 5,
                                                                "id": 31,
                                                                "order": 31
                                                            },
                                                            {
                                                                "children": [],
                                                                "depth": 5,
                                                                "id": 32,
                                                                "order": 32
                                                            },
                                                            {
                                                                "children": [],
                                                                "depth": 5,
                                                                "id": 33,
                                                                "order": 33
                                                            },
                                                            {
                                                                "children": [],
                                                                "depth": 5,
                                                                "id": 34,
                                                                "order": 34
                                                            },
                                                            {
                                                                "children": [],
                                                                "depth": 5,
                                                                "id": 35,
                                                                "order": 35
                                                            },
                                                            {
                                                                "children": [],
                                                                "depth": 5,
                                                                "id": 36,
                                                                "order": 36
                                                            },
                                                            {
                                                                "children": [],
                                                                "depth": 5,
                                                                "id": 37,
                                                                "order": 37
                                                            },
                                                            {
                                                                "children": [],
                                                                "depth": 5,
                                                                "id": 38,
                                                                "order": 38
                                                            },
                                                            {
                                                                "children": [],
                                                                "depth": 5,
                                                                "id": 39,
                                                                "order": 39
                                                            },
                                                            {
                                                                "children": [],
                                                                "depth": 5,
                                                                "id": 40,
                                                                "order": 40
                                                            },
                                                            {
                                                                "children": [],
                                                                "depth": 5,
                                                                "id": 41,
                                                                "order": 41
                                                            },
                                                            {
                                                                "children": [],
                                                                "depth": 5,
                                                                "id": 42,
                                                                "order": 42
                                                            },
                                                            {
                                                                "children": [],
                                                                "depth": 5,
                                                                "id": 43,
                                                                "order": 43
                                                            },
                                                            {
                                                                "children": [],
                                                                "depth": 5,
                                                                "id": 44,
                                                                "order": 44
                                                            },
                                                            {
                                                                "children": [],
                                                                "depth": 5,
                                                                "id": 45,
                                                                "order": 45
                                                            },
                                                            {
                                                                "children": [],
                                                                "depth": 5,
                                                                "id": 46,
                                                                "order": 46
                                                            },
                                                            {
                                                                "children": [],
                                                                "depth": 5,
                                                                "id": 47,
                                                                "order": 47
                                                            },
                                                            {
                                                                "children": [],
                                                                "depth": 5,
                                                                "id": 48,
                                                                "order": 48
                                                            },
                                                            {
                                                                "children": [],
                                                                "depth": 5,
                                                                "id": 49,
                                                                "order": 49
                                                            },
                                                            {
                                                                "children": [],
                                                                "depth": 5,
                                                                "id": 50,
                                                                "order": 50
                                                            }
                                                        ],
                                                        "depth": 4,
                                                        "id": 4,
                                                        "order": 4
                                                    }
                                                ],
                                                "depth": 3,
                                                "id": 3,
                                                "order": 3
                                            }
                                        ],
                                        "depth": 2,
                                        "id": 2,
                                        "order": 2
                                    },
                                    {
                                        "children": [],
                                        "depth": 2,
                                        "id": 51,
                                        "order": 51
                                    }
                                ],
                                "depth": 1,
                                "id": 1,
                                "order": 1
                            }
                        ],
                        "depth": 0,
                        "id": 0,
                        "order": 0
                    }
                ],
                "depth": -1,
                "id": -1,
                "order": -1
            }
        ],
        "mainTraceNodeCount": 52,
        "parentIdMap": {
            "0": -1,
            "1": 0,
            "10": 4,
            "11": 4,
            "12": 4,
            "13": 4,
            "14": 4,
            "15": 4,
            "16": 4,
            "17": 4,
            "18": 4,
            "19": 4,
            "2": 1,
            "20": 4,
            "21": 4,
            "22": 4,
            "23": 4,
            "24": 4,
            "25": 4,
            "26": 4,
            "27": 4,
            "28": 4,
            "29": 4,
            "3": 2,
            "30": 4,
            "31": 4,
            "32": 4,
            "33": 4,
            "34": 4,
            "35": 4,
            "36": 4,
            "37": 4,
            "38": 4,
            "39": 4,
            "4": 3,
            "40": 4,
            "41": 4,
            "42": 4,
            "43": 4,
            "44": 4,
            "45": 4,
            "46": 4,
            "47": 4,
            "48": 4,
            "49": 4,
            "5": 4,
            "50": 4,
            "51": 1,
            "6": 4,
            "7": 4,
            "8": 4,
            "9": 4
        },
        "tidyTrace": [
            {
                "children": [
                    {
                        "children": [
                            {
                                "children": [
                                    {
                                        "children": [],
                                        "depth": 2,
                                        "id": 51,
                                        "order": 51
                                    }
                                ],
                                "depth": 1,
                                "id": 1,
                                "order": 1
                            }
                        ],
                        "depth": 0,
                        "id": 0,
                        "order": 0
                    }
                ],
                "depth": -1,
                "id": -1,
                "order": -1
            }
        ],
        "tidyTraceNodeCount": 3
    },
    "state_change": {
        "stateChanges": [
            {
                "address": "0xa13baf47339d63b743e7da8741db5456dac1e556",
                "erc": "",
                "slots": [
                    {
                        "current": "0x10052f6c9ae935634a8c91ee554953a15b70fe309ae3d1bbd78cb8ba0fab0585",
                        "key": "0x461aa08ff4717ce9834bccef013008664aeae4bcac4002356177b14111e52b5d",
                        "prev": "0x0000000000000000000000000000000000000000000000000000000000000000"
                    },
                    {
                        "current": "0xc519fb61d2d70733718c611d27a89fc7e2ff2c5a1aa302fdf01122e5073a55ea",
                        "key": "0xa149dfae58f27180c75f936dbeb0a4c53d4903c1b0b82a8a1ac087417eff8258",
                        "prev": "0x0000000000000000000000000000000000000000000000000000000000000000"
                    },
                    {
                        "current": "0x000000000000000000000000000000000000000000000000000000000000ea6b",
                        "key": "0x000000000000000000000000000000000000000000000000000000000000009c",
                        "prev": "0x000000000000000000000000000000000000000000000000000000000000ea6a"
                    }
                ],
                "storageVariables": [
                    {
                        "name": "lastFinalizedBatchIndex",
                        "type": "uint256",
                        "value": {
                            "current": "60011",
                            "prev": "60010",
                            "typeTag": 1
                        }
                    },
                    {
                        "name": "finalizedStateRoots",
                        "type": "mapping(uint256 => bytes32)",
                        "value": {
                            "pairs": [
                                {
                                    "key": "60011",
                                    "value": {
                                        "current": "0x10052f6c9ae935634a8c91ee554953a15b70fe309ae3d1bbd78cb8ba0fab0585",
                                        "prev": "0x0000000000000000000000000000000000000000000000000000000000000000",
                                        "typeTag": 1
                                    }
                                }
                            ],
                            "typeTag": 4
                        }
                    },
                    {
                        "name": "withdrawRoots",
                        "type": "mapping(uint256 => bytes32)",
                        "value": {
                            "pairs": [
                                {
                                    "key": "60011",
                                    "value": {
                                        "current": "0xc519fb61d2d70733718c611d27a89fc7e2ff2c5a1aa302fdf01122e5073a55ea",
                                        "prev": "0x0000000000000000000000000000000000000000000000000000000000000000",
                                        "typeTag": 1
                                    }
                                }
                            ],
                            "typeTag": 4
                        }
                    }
                ]
            }
        ]
    }
}