{
    "balance_change": {
        "balanceChanges": [
            {
                "account": "0xa570fdd102594571fcd2dc1c9176f095884ba992",
                "assets": [
                    {
                        "address": "0x08711d3b02c8758f2fb3ab4e80228418a7f8e39c",
                        "amount": "423",
                        "iconUrl": "https://assets.blocksec.com/icon/aada5d5043d91c350753d742ac64c1a9441d79df673896754d144721a6d2d6fc.png",
                        "isERC1155": false,
                        "isERC721": false,
                        "sign": false,
                        "value": ""
                    }
                ]
            },
            {
                "account": "0x5e575279bf9f4acf0a130c186861454247394c06",
                "assets": [
                    {
                        "address": "0x08711d3b02c8758f2fb3ab4e80228418a7f8e39c",
                        "amount": "423",
                        "iconUrl": "https://assets.blocksec.com/icon/aada5d5043d91c350753d742ac64c1a9441d79df673896754d144721a6d2d6fc.png",
                        "isERC1155": false,
                        "isERC721": false,
                        "sign": true,
                        "value": ""
                    }
                ]
            }
        ]
    },
    "profile": {
        "basic_info": {
            "baseFee": "",
            "blockNumber": 3834595,
            "callData": "0xa9059cbb0000000000000000000000005e575279bf9f4acf0a130c186861454247394c0600000000000000000000000000000000000000000000000000000000000001a7",
            "debugEnable": true,
            "errorInfo": "",
            "eventCount": 1,
            "feeRecipient": "0x8727716b7f5b5b9d2febcf3612289064b4e687a5",
            "formatValue": "0",
            "gasLimit": 150000,
            "gasPrice": "23.91060045",
            "gasUsed": 22125,
            "intTxnCount": 0,
            "internalRevert": false,
            "internalRevertMessage": "",
            "isContractCreation": false,
            "isFlashloan": false,
            "maxFee": "",
            "nonce": 3,
            "overwritedBlockNumber": -1,
            "priorityFee": "",
            "receiver": "0x08711d3b02c8758f2fb3ab4e80228418a7f8e39c",
            "revertMessage": "",
            "sender": "0xa570fdd102594571fcd2dc1c9176f095884ba992",
            "simulationEnable": true,
            "sourceTxnHash": "0xd05f2b1344bd98512f9bf3a128599bbbee78caf1fcebfa55f77d76bc73a3af95",
            "status": true,
            "timestamp": "2017-06-07T12:10:54Z",
            "transactionFee": "0.00052902203495625",
            "txnHash": "0xd05f2b1344bd98512f9bf3a128599bbbee78caf1fcebfa55f77d76bc73a3af95",
            "txnIndex": 10,
            "type": 0,
            "value": "0"
        },
        "fund_flow": [
            {
                "amount": "423",
                "from": "0xa570fdd102594571fcd2dc1c9176f095884ba992",
                "id": 1,
                "isERC1155": false,
                "isERC721": false,
                "isReverted": false,
                "order": 1,
                "to": "0x5e575279bf9f4acf0a130c186861454247394c06",
                "token": "0x08711d3b02c8758f2fb3ab4e80228418a7f8e39c"
            }
        ],
        "token_infos": [
            {
                "address": "0x08711d3b02c8758f2fb3ab4e80228418a7f8e39c",
                "decimals": 0
            },
            {
                "address": "0xc02aaa39b223fe8d0a0e5c4f27ead9083c756cc2",
                "decimals": 18
            },
            {
                "address": "0xeeeeeeeeeeeeeeeeeeeeeeeeeeeeeeeeeeeeeeee",
                "decimals": 18
            }
        ]
    },
    "address_label": {
        "labels": [
            {
                "address": "0xa570fdd102594571fcd2dc1c9176f095884ba992",
                "label": "LIQUI.IO"
            },
            {
                "address": "0x08711d3b02c8758f2fb3ab4e80228418a7f8e39c",
                "label": "Edgeless (EDG)"
            },
            {
                "address": "0x0000000000000000000000000000000000000001",
                "label": "Precompiled"
            },
            {
                "address": "0x0000000000000000000000000000000000000002",
                "label": "Precompiled"
            },
            {
                "address": "0x0000000000000000000000000000000000000003",
                "label": "Precompiled"
            },
            {
                "address": "0x0000000000000000000000000000000000000004",
                "label": "Precompiled"
            },
            {
                "address": "0xeeeeeeeeeeeeeeeeeeeeeeeeeeeeeeeeeeeeeeee",
                "label": "Ether"
            },
            {
                "address": "0x5e575279bf9f4acf0a130c186861454247394c06",
                "label": "Liqui.io 2"
            }
        ]
    },
    "trace": {
        "accountLabels": null,
        "dataMap": {
            "-1": {
                "invocation": {
                    "address": "0xa570fdd102594571fcd2dc1c9176f095884ba992",
                    "callData": "",
                    "decodedMethod": null,
                    "errorInfo": "",
                    "fromAddress": "",
                    "gasUsed": 0,
                    "id": -1,
                    "methodDecoded": false,
                    "operation": "",
                    "output": "",
                    "revert": false,
                    "revertMessage": "",
                    "selector": "",
                    "status": false,
                    "value": ""
                },
                "nodeType": 0
            },
            "0": {
                "invocation": {
                    "address": "0x08711d3b02c8758f2fb3ab4e80228418a7f8e39c",
                    "callData": "0x0000000000000000000000005e575279bf9f4acf0a130c186861454247394c0600000000000000000000000000000000000000000000000000000000000001a7",
                    "decodedMethod": {
                        "callParams": [
                            {
                                "name": "_to",
                                "type": "address",
                                "value": "0x5e575279bf9f4acf0a130c186861454247394c06"
                            },
                            {
                                "decimalAvailable": true,
                                "name": "_value",
                                "type": "uint256",
                                "value": "423"
                            }
                        ],
                        "constructorArguments": "",
                        "name": "transfer",
                        "returnParams": [
                            {
                                "name": "success",
                                "type": "bool",
                                "value": true
                            }
                        ],
                        "signature": "transfer(address,uint256)"
                    },
                    "errorInfo": "",
                    "fromAddress": "0xa570fdd102594571fcd2dc1c9176f095884ba992",
                    "gasUsed": 22125,
                    "id": 0,
                    "methodDecoded": true,
                    "operation": "CALL",
                    "output": "0x0000000000000000000000000000000000000000000000000000000000000001",
                    "revert": false,
                    "revertMessage": "",
                    "selector": "0xa9059cbb",
                    "status": true,
                    "value": "0"
                },
                "nodeType": 0
            },
            "1": {
                "event": {
                    "contract": "0x08711d3b02c8758f2fb3ab4e80228418a7f8e39c",
                    "decodedLog": {
                        "name": "Transfer",
                        "params": [
                            {
                                "name": "from",
                                "type": "address",
                                "value": "0xa570fdd102594571fcd2dc1c9176f095884ba992"
                            },
                            {
                                "name": "to",
                                "type": "address",
                                "value": "0x5e575279bf9f4acf0a130c186861454247394c06"
                            },
                            {
                                "decimalAvailable": true,
                                "name": "value",
                                "type": "uint256",
                                "value": "423"
                            }
                        ],
                        "signature": "Transfer(address,address,uint256)"
                    },
                    "id": 1,
                    "logData": "0x00000000000000000000000000000000000000000000000000000000000001a7",
                    "logDecoded": true,
                    "operation": "EVENT",
                    "revert": false,
                    "status": true,
                    "topics": [
                        "0xddf252ad1be2c89b69c2b068fc378daa952ba7f163c4a11628f55a4df523b3ef",
                        "0x000000000000000000000000a570fdd102594571fcd2dc1c9176f095884ba992",
                        "0x0000000000000000000000005e575279bf9f4acf0a130c186861454247394c06"
                    ]
                },
                "nodeType": 1
            }
        },
        "gasFlame": [
            {
                "children": [
                    {
                        "children": [
                            {
                                "children": [],
                                "depth": 0,
                                "name": "Initial Gas",
                                "value": 22936
                            },
                            {
                                "children": [],
                                "depth": 0,
                                "name": "Executed Gas",
                                "value": 14189
                            }
                        ],
                        "depth": -1,
                        "name": "Actual Gas Used",
                        "value": 22125
                    },
                    {
                        "children": [],
                        "depth": -1,
                        "name": "Refunded Gas",
                        "value": 15000
                    }
                ],
                "depth": -2,
                "name": "Total Gas",
                "value": 37125
            }
        ],
        "isConfirmed": true,
        "mainTrace": [
            {
                "children": [
                    {
                        "children": [
                            {
                                "children": [],
                                "depth": 1,
                                "id": 1,
                                "order": 1
                            }
                        ],
                        "depth": 0,
                        "id": 0,
                        "order": 0
                    }
                ],
                "depth": -1,
                "id": -1,
                "order": -1
            }
        ],
        "mainTraceNodeCount": 2,
        "parentIdMap": {
            "0": -1,
            "1": 0
        },
        "tidyTrace": [
            {
                "children": [
                    {
                        "children": [
                            {
                                "children": [],
                                "depth": 1,
                                "id": 1,
                                "order": 1
                            }
                        ],
                        "depth": 0,
                        "id": 0,
                        "order": 0
                    }
                ],
                "depth": -1,
                "id": -1,
                "order": -1
            }
        ],
        "tidyTraceNodeCount": 2
    },
    "state_change": {
        "stateChanges": [
            {
                "address": "0x08711d3b02c8758f2fb3ab4e80228418a7f8e39c",
                "erc": "ERC-20",
                "slots": [
                    {
                        "current": "0x0000000000000000000000000000000000000000000000000000000000000000",
                        "key": "0x5349729055c9e284742be4e0cc0f8ea0621034de339c78cc91e09d0c7ac7e0ba",
                        "prev": "0x00000000000000000000000000000000000000000000000000000000000001a7"
                    },
                    {
                        "current": "0x0000000000000000000000000000000000000000000000000000000000069a06",
                        "key": "0xbaf146373ece5e98fe7a1b622eded630c9c863db605042751f102370bd0c3ff6",
                        "prev": "0x000000000000000000000000000000000000000000000000000000000006985f"
                    }
                ],
                "storageVariables": []
            }
        ]
    }
}