{
    "balance_change": {
        "balanceChanges": []
    },
    "profile": {
        "basic_info": {
            "baseFee": "99.118147481",
            "blockNumber": 13162867,
            "callData": "0xddd81f82",
            "debugEnable": true,
            "errorInfo": "",
            "eventCount": 1,
            "feeRecipient": "0x99c85bb64564d9ef9a99621301f22c9993cb89e3",
            "formatValue": "0",
            "gasLimit": 516883,
            "gasPrice": "101.292839291",
            "gasUsed": 397602,
            "intTxnCount": 2,
            "internalRevert": false,
            "internalRevertMessage": "",
            "isContractCreation": false,
            "isFlashloan": false,
            "maxFee": "137.083995324",
            "nonce": 18,
            "overwritedBlockNumber": -1,
            "priorityFee": "2.17469181",
            "receiver": "0xa5409ec958c83c3f309868babaca7c86dcb077c1",
            "revertMessage": "",
            "sender": "0x270fce031f007a62eac05e44c157d9284e318c4e",
            "simulationEnable": true,
            "sourceTxnHash": "0xd0cf697420adbca78ceccf043a3af5612be59054f7ee2d51eecf76c3461110c1",
            "status": true,
            "timestamp": "2021-09-05T01:55:30Z",
            "transactionFee": "0.040274235487780182",
            "txnHash": "0xd0cf697420adbca78ceccf043a3af5612be59054f7ee2d51eecf76c3461110c1",
            "txnIndex": 141,
            "type": 2,
            "value": "0"
        },
        "fund_flow": [],
        "token_infos": [
            {
                "address": "0xc02aaa39b223fe8d0a0e5c4f27ead9083c756cc2",
                "decimals": 18
            },
            {
                "address": "0xeeeeeeeeeeeeeeeeeeeeeeeeeeeeeeeeeeeeeeee",
                "decimals": 18
            }
        ]
    },
    "address_label": {
        "labels": [
            {
                "address": "0xeeeeeeeeeeeeeeeeeeeeeeeeeeeeeeeeeeeeeeee",
                "label": "Ether"
            },
            {
                "address": "0xa5409ec958c83c3f309868babaca7c86dcb077c1",
                "label": "OpenSea: Registry"
            },
            {
                "address": "0xf9e266af4bca5890e2781812cc6a6e89495a79f2",
                "label": "AuthenticatedProxy"
            },
            {
                "address": "0xf2995f5836655cfc3f3513c6451d136a9942e550",
                "label": "OwnableDelegateProxy"
            },
            {
                "address": "0x0000000000000000000000000000000000000001",
                "label": "Precompiled"
            },
            {
                "address": "0x0000000000000000000000000000000000000002",
                "label": "Precompiled"
            },
            {
                "address": "0x0000000000000000000000000000000000000003",
                "label": "Precompiled"
            },
            {
                "address": "0x0000000000000000000000000000000000000004",
                "label": "Precompiled"
            }
        ]
    },
    "trace": {
        "accountLabels": null,
        "dataMap": {
            "-1": {
                "invocation": {
                    "address": "0x270fce031f007a62eac05e44c157d9284e318c4e",
                    "callData": "",
                    "decodedMethod": null,
                    "errorInfo": "",
                    "fromAddress": "",
                    "gasUsed": 0,
                    "id": -1,
                    "methodDecoded": false,
                    "operation": "",
                    "output": "",
                    "revert": false,
                    "revertMessage": "",
                    "selector": "",
                    "status": false,
                    "value": ""
                },
                "nodeType": 0
            },
            "0": {
                "invocation": {
                    "address": "0xa5409ec958c83c3f309868babaca7c86dcb077c1",
                    "callData": "0x",
                    "decodedMethod": {
                        "callParams": [],
                        "constructorArguments": "",
                        "name": "registerProxy",
                        "returnParams": [
                            {
                                "name": "proxy",
                                "type": "address",
                                "value": "0xf2995f5836655cfc3f3513c6451d136a9942e550"
                            }
                        ],
                        "signature": "registerProxy()"
                    },
                    "errorInfo": "",
                    "fromAddress": "0x270fce031f007a62eac05e44c157d9284e318c4e",
                    "gasUsed": 397602,
                    "id": 0,
                    "methodDecoded": true,
                    "operation": "CALL",
                    "output": "0x000000000000000000000000f2995f5836655cfc3f3513c6451d136a9942e550",
                    "revert": false,
                    "revertMessage": "",
                    "selector": "0xddd81f82",
                    "status": true,
                    "value": "0"
                },
                "nodeType": 0
            },
            "1": {
                "invocation": {
                    "address": "0xf2995f5836655cfc3f3513c6451d136a9942e550",
                    "callData": "000000000000000000000000270fce031f007a62eac05e44c157d9284e318c4e000000000000000000000000f9e266af4bca5890e2781812cc6a6e89495a79f200000000000000000000000000000000000000000000000000000000000000600000000000000000000000000000000000000000000000000000000000000044485cc955000000000000000000000000270fce031f007a62eac05e44c157d9284e318c4e000000000000000000000000a5409ec958c83c3f309868babaca7c86dcb077c100000000000000000000000000000000000000000000000000000000",
                    "decodedMethod": {
                        "callParams": [
                            {
                                "name": "owner",
                                "type": "address",
                                "value": "0x270fce031f007a62eac05e44c157d9284e318c4e"
                            },
                            {
                                "name": "initialImplementation",
                                "type": "address",
                                "value": "0xf9e266af4bca5890e2781812cc6a6e89495a79f2"
                            },
                            {
                                "name": "calldata",
                                "type": "bytes",
                                "value": "0x485cc955000000000000000000000000270fce031f007a62eac05e44c157d9284e318c4e000000000000000000000000a5409ec958c83c3f309868babaca7c86dcb077c1"
                            }
                        ],
                        "constructorArguments": "000000000000000000000000270fce031f007a62eac05e44c157d9284e318c4e000000000000000000000000f9e266af4bca5890e2781812cc6a6e89495a79f200000000000000000000000000000000000000000000000000000000000000600000000000000000000000000000000000000000000000000000000000000044485cc955000000000000000000000000270fce031f007a62eac05e44c157d9284e318c4e000000000000000000000000a5409ec958c83c3f309868babaca7c86dcb077c100000000000000000000000000000000000000000000000000000000",
                        "name": "constructor",
                        "returnParams": [
                            {
                                "name": "runtime code",
                                "type": "",
                                "value": "0x6080604052600436106100825763ffffffff7c0100000000000000000000000000000000000000000000000000000000600035041663025313a281146100c85780633659cfe6146100f95780634555d5c91461011c5780634f1ef286146101435780635c60da1b1461019d5780636fde8202146101b2578063f1739cae146101c7575b600061008c6101e8565b9050600160a060020a03811615156100a357600080fd5b60405136600082376000803683855af43d806000843e8180156100c4578184f35b8184fd5b3480156100d457600080fd5b506100dd6101f7565b60408051600160a060020a039092168252519081900360200190f35b34801561010557600080fd5b5061011a600160a060020a0360043516610206565b005b34801561012857600080fd5b50610131610239565b60408051918252519081900360200190f35b60408051602060046024803582810135601f810185900485028601850190965285855261011a958335600160a060020a031695369560449491939091019190819084018382808284375094975061023e9650505050505050565b3480156101a957600080fd5b506100dd6101e8565b3480156101be57600080fd5b506100dd6102f2565b3480156101d357600080fd5b5061011a600160a060020a0360043516610301565b600054600160a060020a031690565b60006102016102f2565b905090565b61020e6101f7565b600160a060020a031633600160a060020a031614151561022d57600080fd5b61023681610391565b50565b600290565b6102466101f7565b600160a060020a031633600160a060020a031614151561026557600080fd5b61026e82610206565b30600160a060020a03168160405180828051906020019080838360005b838110156102a357818101518382015260200161028b565b50505050905090810190601f1680156102d05780820380516001836020036101000a031916815260200191505b50915050600060405180830381855af491505015156102ee57600080fd5b5050565b600154600160a060020a031690565b6103096101f7565b600160a060020a031633600160a060020a031614151561032857600080fd5b600160a060020a038116151561033d57600080fd5b7f5a3e66efaa1e445ebd894728a69d6959842ea1e97bd79b892797106e270efcd96103666101f7565b60408051600160a060020a03928316815291841660208301528051918290030190a161023681610401565b600054600160a060020a03828116911614156103ac57600080fd5b6000805473ffffffffffffffffffffffffffffffffffffffff1916600160a060020a038316908117825560405190917fbc7cd75a20ee27fd9adebab32041f755214dbc6bffa90cc0225b39da2e5c2d3b91a250565b6001805473ffffffffffffffffffffffffffffffffffffffff1916600160a060020a03929092169190911790555600a165627a7a723058205f26049bbc794226b505f589b2ee1130db54310d79dd8a635c6f6c61e305a7770029"
                            }
                        ],
                        "signature": ""
                    },
                    "errorInfo": "",
                    "fromAddress": "0xa5409ec958c83c3f309868babaca7c86dcb077c1",
                    "gasUsed": 317883,
                    "id": 1,
                    "methodDecoded": true,
                    "operation": "CREATE",
                    "output": "0x6080604052600436106100825763ffffffff7c0100000000000000000000000000000000000000000000000000000000600035041663025313a281146100c85780633659cfe6146100f95780634555d5c91461011c5780634f1ef286146101435780635c60da1b1461019d5780636fde8202146101b2578063f1739cae146101c7575b600061008c6101e8565b9050600160a060020a03811615156100a357600080fd5b60405136600082376000803683855af43d806000843e8180156100c4578184f35b8184fd5b3480156100d457600080fd5b506100dd6101f7565b60408051600160a060020a039092168252519081900360200190f35b34801561010557600080fd5b5061011a600160a060020a0360043516610206565b005b34801561012857600080fd5b50610131610239565b60408051918252519081900360200190f35b60408051602060046024803582810135601f810185900485028601850190965285855261011a958335600160a060020a031695369560449491939091019190819084018382808284375094975061023e9650505050505050565b3480156101a957600080fd5b506100dd6101e8565b3480156101be57600080fd5b506100dd6102f2565b3480156101d357600080fd5b5061011a600160a060020a0360043516610301565b600054600160a060020a031690565b60006102016102f2565b905090565b61020e6101f7565b600160a060020a031633600160a060020a031614151561022d57600080fd5b61023681610391565b50565b600290565b6102466101f7565b600160a060020a031633600160a060020a031614151561026557600080fd5b61026e82610206565b30600160a060020a03168160405180828051906020019080838360005b838110156102a357818101518382015260200161028b565b50505050905090810190601f1680156102d05780820380516001836020036101000a031916815260200191505b50915050600060405180830381855af491505015156102ee57600080fd5b5050565b600154600160a060020a031690565b6103096101f7565b600160a060020a031633600160a060020a031614151561032857600080fd5b600160a060020a038116151561033d57600080fd5b7f5a3e66efaa1e445ebd894728a69d6959842ea1e97bd79b892797106e270efcd96103666101f7565b60408051600160a060020a03928316815291841660208301528051918290030190a161023681610401565b600054600160a060020a03828116911614156103ac57600080fd5b6000805473ffffffffffffffffffffffffffffffffffffffff1916600160a060020a038316908117825560405190917fbc7cd75a20ee27fd9adebab32041f755214dbc6bffa90cc0225b39da2e5c2d3b91a250565b6001805473ffffffffffffffffffffffffffffffffffffffff1916600160a060020a03929092169190911790555600a165627a7a723058205f26049bbc794226b505f589b2ee1130db54310d79dd8a635c6f6c61e305a7770029",
                    "revert": false,
                    "revertMessage": "",
                    "selector": "",
                    "status": true,
                    "value": "0"
                },
                "nodeType": 0
            },
            "2": {
                "event": {
                    "contract": "0xf2995f5836655cfc3f3513c6451d136a9942e550",
                    "decodedLog": {
                        "name": "Upgraded",
                        "params": [
                            {
                                "name": "implementation",
                                "type": "address",
                                "value": "0xf9e266af4bca5890e2781812cc6a6e89495a79f2"
                            }
                        ],
                        "signature": "Upgraded(address)"
                    },
                    "id": 2,
                    "logData": "0x",
                    "logDecoded": true,
                    "operation": "EVENT",
                    "revert": false,
                    "status": true,
                    "topics": [
                        "0xbc7cd75a20ee27fd9adebab32041f755214dbc6bffa90cc0225b39da2e5c2d3b",
                        "0x000000000000000000000000f9e266af4bca5890e2781812cc6a6e89495a79f2"
                    ]
                },
                "nodeType": 1
            },
            "3": {
                "invocation": {
                    "address": "0xf9e266af4bca5890e2781812cc6a6e89495a79f2",
                    "callData": "0x000000000000000000000000270fce031f007a62eac05e44c157d9284e318c4e000000000000000000000000a5409ec958c83c3f309868babaca7c86dcb077c100000000000000000000000000000000000000000000000000000000",
                    "decodedMethod": {
                        "callParams": [
                            {
                                "name": "addrUser",
                                "type": "address",
                                "value": "0x270fce031f007a62eac05e44c157d9284e318c4e"
                            },
                            {
                                "name": "addrRegistry",
                                "type": "address",
                                "value": "0xa5409ec958c83c3f309868babaca7c86dcb077c1"
                            }
                        ],
                        "constructorArguments": "",
                        "name": "initialize",
                        "returnParams": [],
                        "signature": "initialize(address,address)"
                    },
                    "errorInfo": "",
                    "fromAddress": "0xf2995f5836655cfc3f3513c6451d136a9942e550",
                    "gasUsed": 45120,
                    "id": 3,
                    "methodDecoded": true,
                    "operation": "DELEGATECALL",
                    "output": "",
                    "revert": false,
                    "revertMessage": "",
                    "selector": "0x485cc955",
                    "status": true,
                    "value": "0"
                },
                "nodeType": 0
            }
        },
        "gasFlame": [
            {
                "children": [
                    {
                        "children": [
                            {
                                "children": [],
                                "depth": 0,
                                "name": "Initial Gas",
                                "value": 21064
                            },
                            {
                                "children": [
                                    {
                                        "children": [
                                            {
                                                "children": [],
                                                "depth": 2,
                                                "name": "initialize",
                                                "value": 45120
                                            }
                                        ],
                                        "depth": 1,
                                        "name": "constructor",
                                        "value": 317883
                                    }
                                ],
                                "depth": 0,
                                "name": "Executed Gas",
                                "value": 376538
                            }
                        ],
                        "depth": -1,
                        "name": "Actual Gas Used",
                        "value": 397602
                    },
                    {
                        "children": [],
                        "depth": -1,
                        "name": "Refunded Gas",
                        "value": 0
                    }
                ],
                "depth": -2,
                "name": "Total Gas",
                "value": 397602
            }
        ],
        "isConfirmed": true,
        "mainTrace": [
            {
                "children": [
                    {
                        "children": [
                            {
                                "children": [
                                    {
                                        "children": [],
                                        "depth": 2,
                                        "id": 2,
                                        "order": 2
                                    },
                                    {
                                        "children": [],
                                        "depth": 2,
                                        "id": 3,
                                        "order": 3
                                    }
                                ],
                                "depth": 1,
                                "id": 1,
                                "order": 1
                            }
                        ],
                        "depth": 0,
                        "id": 0,
                        "order": 0
                    }
                ],
                "depth": -1,
                "id": -1,
                "order": -1
            }
        ],
        "mainTraceNodeCount": 4,
        "parentIdMap": {
            "0": -1,
            "1": 0,
            "2": 1,
            "3": 1
        },
        "tidyTrace": [
            {
                "children": [
                    {
                        "children": [
                            {
                                "children": [
                                    {
                                        "children": [],
                                        "depth": 2,
                                        "id": 2,
                                        "order": 2
                                    },
                                    {
                                        "children": [],
                                        "depth": 2,
                                        "id": 3,
                                        "order": 3
                                    }
                                ],
                                "depth": 1,
                                "id": 1,
                                "order": 1
                            }
                        ],
                        "depth": 0,
                        "id": 0,
                        "order": 0
                    }
                ],
                "depth": -1,
                "id": -1,
                "order": -1
            }
        ],
        "tidyTraceNodeCount": 4
    },
    "state_change": {
        "stateChanges": [
            {
                "address": "0xa5409ec958c83c3f309868babaca7c86dcb077c1",
                "erc": "",
                "slots": [
                    {
                        "current": "0x000000000000000000000000f2995f5836655cfc3f3513c6451d136a9942e550",
                        "key": "0x13ec2fc78dbc7ce205777cef2a332e8d3e997a1777a5e1c3860e8c59fecbdff9",
                        "prev": "0x0000000000000000000000000000000000000000000000000000000000000000"
                    }
                ],
                "storageVariables": [
                    {
                        "name": "proxies",
                        "type": "mapping(address => contract OwnableDelegateProxy)",
                        "value": {
                            "pairs": [
                                {
                                    "key": "0x270fce031f007a62eac05e44c157d9284e318c4e",
                                    "value": {
                                        "current": "0xf2995f5836655cfc3f3513c6451d136a9942e550",
                                        "prev": "0x0000000000000000000000000000000000000000",
                                        "typeTag": 1
                                    }
                                }
                            ],
                            "typeTag": 4
                        }
                    }
                ]
            },
            {
                "address": "0xf2995f5836655cfc3f3513c6451d136a9942e550",
                "erc": "",
                "slots": [
                    {
                        "current": "0x000000000000000000000001270fce031f007a62eac05e44c157d9284e318c4e",
                        "key": "0x0000000000000000000000000000000000000000000000000000000000000001",
                        "prev": "0x0000000000000000000000000000000000000000000000000000000000000000"
                    },
                    {
                        "current": "0x000000000000000000000000f9e266af4bca5890e2781812cc6a6e89495a79f2",
                        "key": "0x0000000000000000000000000000000000000000000000000000000000000000",
                        "prev": "0x0000000000000000000000000000000000000000000000000000000000000000"
                    },
                    {
                        "current": "0x000000000000000000000000270fce031f007a62eac05e44c157d9284e318c4e",
                        "key": "0x0000000000000000000000000000000000000000000000000000000000000002",
                        "prev": "0x0000000000000000000000000000000000000000000000000000000000000000"
                    },
                    {
                        "current": "0x000000000000000000000000a5409ec958c83c3f309868babaca7c86dcb077c1",
                        "key": "0x0000000000000000000000000000000000000000000000000000000000000003",
                        "prev": "0x0000000000000000000000000000000000000000000000000000000000000000"
                    }
                ],
                "storageVariables": [
                    {
                        "name": "_implementation",
                        "type": "address",
                        "value": {
                            "current": "0xf9e266af4bca5890e2781812cc6a6e89495a79f2",
                            "prev": "0x0000000000000000000000000000000000000000",
                            "typeTag": 1
                        }
                    },
                    {
                        "name": "_upgradeabilityOwner",
                        "type": "address",
                        "value": {
                            "current": "0x270fce031f007a62eac05e44c157d9284e318c4e",
                            "prev": "0x0000000000000000000000000000000000000000",
                            "typeTag": 1
                        }
                    }
                ]
            }
        ]
    }
}