{
    "balance_change": {
        "balanceChanges": [
            {
                "account": "0xce6d4c39d227c9d8fc37c4a1d4070b523d796127",
                "assets": [
                    {
                        "address": "0xeebc1b0e0f19bd03502ada32cb7a9e217568dceb",
                        "amount": "0.5",
                        "iconUrl": "",
                        "isERC1155": false,
                        "isERC721": false,
                        "sign": true,
                        "value": ""
                    },
                    {
                        "address": "0xeeeeeeeeeeeeeeeeeeeeeeeeeeeeeeeeeeeeeeee",
                        "amount": "0.5",
                        "iconUrl": "https://assets.blocksec.com/image/1663669189317-3.png",
                        "isERC1155": false,
                        "isERC721": false,
                        "sign": false,
                        "value": "918.1449999999999818"
                    }
                ]
            },
            {
                "account": "0x0000000000000000000000000000000000000000",
                "assets": [
                    {
                        "address": "0xeebc1b0e0f19bd03502ada32cb7a9e217568dceb",
                        "amount": "0.5",
                        "iconUrl": "",
                        "isERC1155": false,
                        "isERC721": false,
                        "sign": false,
                        "value": ""
                    }
                ]
            },
            {
                "account": "0xeebc1b0e0f19bd03502ada32cb7a9e217568dceb",
                "assets": [
                    {
                        "address": "0xeeeeeeeeeeeeeeeeeeeeeeeeeeeeeeeeeeeeeeee",
                        "amount": "0.5",
                        "iconUrl": "https://assets.blocksec.com/image/1663669189317-3.png",
                        "isERC1155": false,
                        "isERC721": false,
                        "sign": true,
                        "value": "918.1449999999999818"
                    }
                ]
            }
        ]
    },
    "profile": {
        "basic_info": {
            "baseFee": "57.606339022",
            "blockNumber": 17116949,
            "callData": "0xddb74ed9000000000000000000000000eebc1b0e0f19bd03502ada32cb7a9e217568dceb00000000000000000000000000000000000000000000000006f05b59d3b2000000000000000000000000000000000000000000000000000000000000000000a00000000000000000000000000000000000000000000000000000000000000100000000000000000000000000000000000000000000000000000000000000016000000000000000000000000000000000000000000000000000000000000000020000000000000000000000000000000000000000000000000000000000000001000000000000000000000000000000000000000000000000000000000000000000000000000000000000000000000000000000000000000000000000000000029c2f50c7715b1b26e46b40038516be18ed4129190a1332c7f9668f3dc3936cedcf34dc53fb14ef160af35cf60aef1c0f0cb25885e3a36d1cd2f4b3286f2c58830000000000000000000000000000000000000000000000000000000000000002466997b38362a38c0ded115e5ce6d5ced391b1b098de5a3fcc414fa7d6a232b401ea3b2e40c75df87ec38de4f3be07722754e16c9c80d66bf9d52d6d254485f2",
            "debugEnable": true,
            "errorInfo": "",
            "eventCount": 3,
            "feeRecipient": "0x690b9a9e9aa1c9db991c7721a92d351db4fac990",
            "formatValue": "0",
            "gasLimit": 96487,
            "gasPrice": "57.678085076",
            "gasUsed": 96487,
            "intTxnCount": 3,
            "internalRevert": false,
            "internalRevertMessage": "",
            "isContractCreation": false,
            "isFlashloan": false,
            "maxFee": "120.159542298",
            "nonce": 54231,
            "overwritedBlockNumber": -1,
            "priorityFee": "0.071746054",
            "receiver": "0xce6d4c39d227c9d8fc37c4a1d4070b523d796127",
            "revertMessage": "",
            "sender": "0x154421b5abfd5fc12b16715e91d564aa47c8ddee",
            "simulationEnable": true,
            "sourceTxnHash": "0xd0f2d71394333fe33719de2f4c6580867e2b9356125d11b449b15bb6f2fb989d",
            "status": true,
            "timestamp": "2023-04-24T15:10:47Z",
            "transactionFee": "0.005565185394728012",
            "txnHash": "0xd0f2d71394333fe33719de2f4c6580867e2b9356125d11b449b15bb6f2fb989d",
            "txnIndex": 126,
            "type": 2,
            "value": "0"
        },
        "fund_flow": [
            {
                "amount": "0.5",
                "from": "0xce6d4c39d227c9d8fc37c4a1d4070b523d796127",
                "id": 1,
                "isERC1155": false,
                "isERC721": false,
                "isReverted": false,
                "order": 1,
                "to": "0xeebc1b0e0f19bd03502ada32cb7a9e217568dceb",
                "token": "0xeeeeeeeeeeeeeeeeeeeeeeeeeeeeeeeeeeeeeeee"
            },
            {
                "amount": "0.5",
                "from": "0x0000000000000000000000000000000000000000",
                "id": 2,
                "isERC1155": false,
                "isERC721": false,
                "isReverted": false,
                "order": 2,
                "to": "0xce6d4c39d227c9d8fc37c4a1d4070b523d796127",
                "token": "0xeebc1b0e0f19bd03502ada32cb7a9e217568dceb"
            }
        ],
        "token_infos": [
            {
                "address": "0xc02aaa39b223fe8d0a0e5c4f27ead9083c756cc2",
                "decimals": 18
            },
            {
                "address": "0xeebc1b0e0f19bd03502ada32cb7a9e217568dceb",
                "decimals": 18
            },
            {
                "address": "0xeeeeeeeeeeeeeeeeeeeeeeeeeeeeeeeeeeeeeeee",
                "decimals": 18
            }
        ]
    },
    "address_label": {
        "labels": [
            {
                "address": "0x0000000000000000000000000000000000000004",
                "label": "Precompiled"
            },
            {
                "address": "0xeeeeeeeeeeeeeeeeeeeeeeeeeeeeeeeeeeeeeeee",
                "label": "Ether"
            },
            {
                "address": "0xeebc1b0e0f19bd03502ada32cb7a9e217568dceb",
                "label": "Fintoch DC (FTH-DC)"
            },
            {
                "address": "0x0000000000000000000000000000000000000001",
                "label": "Precompiled"
            },
            {
                "address": "0x0000000000000000000000000000000000000002",
                "label": "Precompiled"
            },
            {
                "address": "0x0000000000000000000000000000000000000003",
                "label": "Precompiled"
            }
        ]
    },
    "trace": {
        "accountLabels": null,
        "dataMap": {
            "-1": {
                "invocation": {
                    "address": "0x154421b5abfd5fc12b16715e91d564aa47c8ddee",
                    "callData": "",
                    "decodedMethod": null,
                    "errorInfo": "",
                    "fromAddress": "",
                    "gasUsed": 0,
                    "id": -1,
                    "methodDecoded": false,
                    "operation": "",
                    "output": "",
                    "revert": false,
                    "revertMessage": "",
                    "selector": "",
                    "status": false,
                    "value": ""
                },
                "nodeType": 0
            },
            "0": {
                "invocation": {
                    "address": "0xce6d4c39d227c9d8fc37c4a1d4070b523d796127",
                    "callData": "0x000000000000000000000000eebc1b0e0f19bd03502ada32cb7a9e217568dceb00000000000000000000000000000000000000000000000006f05b59d3b2000000000000000000000000000000000000000000000000000000000000000000a00000000000000000000000000000000000000000000000000000000000000100000000000000000000000000000000000000000000000000000000000000016000000000000000000000000000000000000000000000000000000000000000020000000000000000000000000000000000000000000000000000000000000001000000000000000000000000000000000000000000000000000000000000000000000000000000000000000000000000000000000000000000000000000000029c2f50c7715b1b26e46b40038516be18ed4129190a1332c7f9668f3dc3936cedcf34dc53fb14ef160af35cf60aef1c0f0cb25885e3a36d1cd2f4b3286f2c58830000000000000000000000000000000000000000000000000000000000000002466997b38362a38c0ded115e5ce6d5ced391b1b098de5a3fcc414fa7d6a232b401ea3b2e40c75df87ec38de4f3be07722754e16c9c80d66bf9d52d6d254485f2",
                    "decodedMethod": {
                        "callParams": [
                            {
                                "name": "fintochPool",
                                "type": "address",
                                "value": "0xeebc1b0e0f19bd03502ada32cb7a9e217568dceb"
                            },
                            {
                                "name": "assetAmount",
                                "type": "uint256",
                                "value": "500,000,000,000,000,000"
                            },
                            {
                                "name": "vs",
                                "type": "uint8[]",
                                "value": [
                                    "1",
                                    "0"
                                ]
                            },
                            {
                                "name": "rs",
                                "type": "bytes32[]",
                                "value": [
                                    "0x9c2f50c7715b1b26e46b40038516be18ed4129190a1332c7f9668f3dc3936ced",
                                    "0xcf34dc53fb14ef160af35cf60aef1c0f0cb25885e3a36d1cd2f4b3286f2c5883"
                                ]
                            },
                            {
                                "name": "ss",
                                "type": "bytes32[]",
                                "value": [
                                    "0x466997b38362a38c0ded115e5ce6d5ced391b1b098de5a3fcc414fa7d6a232b4",
                                    "0x01ea3b2e40c75df87ec38de4f3be07722754e16c9c80d66bf9d52d6d254485f2"
                                ]
                            }
                        ],
                        "constructorArguments": "",
                        "name": "liquidatedAssets",
                        "returnParams": [],
                        "signature": "liquidatedAssets(address,uint256,uint8[],bytes32[],bytes32[])"
                    },
                    "errorInfo": "",
                    "fromAddress": "0x154421b5abfd5fc12b16715e91d564aa47c8ddee",
                    "gasUsed": 96487,
                    "id": 0,
                    "methodDecoded": true,
                    "operation": "CALL",
                    "output": "",
                    "revert": false,
                    "revertMessage": "",
                    "selector": "0xddb74ed9",
                    "status": true,
                    "value": "0"
                },
                "nodeType": 0
            },
            "1": {
                "invocation": {
                    "address": "0x0000000000000000000000000000000000000001",
                    "callData": "0x53d4e4d4077d1e720a1f950dbc16ea763e446da172e60c492e1aa5ef000000000000000000000000000000000000000000000000000000000000001c9c2f50c7715b1b26e46b40038516be18ed4129190a1332c7f9668f3dc3936ced466997b38362a38c0ded115e5ce6d5ced391b1b098de5a3fcc414fa7d6a232b4",
                    "decodedMethod": {
                        "callParams": [
                            {
                                "name": "hash",
                                "type": "bytes32",
                                "value": "0xdec08cb353d4e4d4077d1e720a1f950dbc16ea763e446da172e60c492e1aa5ef"
                            },
                            {
                                "name": "v",
                                "type": "uint256",
                                "value": "28"
                            },
                            {
                                "name": "r",
                                "type": "bytes32",
                                "value": "0x9c2f50c7715b1b26e46b40038516be18ed4129190a1332c7f9668f3dc3936ced"
                            },
                            {
                                "name": "s",
                                "type": "bytes32",
                                "value": "0x466997b38362a38c0ded115e5ce6d5ced391b1b098de5a3fcc414fa7d6a232b4"
                            }
                        ],
                        "constructorArguments": "",
                        "name": "ecrecover",
                        "returnParams": [
                            {
                                "name": "",
                                "type": "address",
                                "value": "0x921de3b765f7895e680c370575420f097678b6c9"
                            }
                        ],
                        "signature": "ecrecover(bytes32,uint256,bytes32,bytes32)"
                    },
                    "errorInfo": "",
                    "fromAddress": "0xce6d4c39d227c9d8fc37c4a1d4070b523d796127",
                    "gasUsed": 3000,
                    "id": 1,
                    "methodDecoded": true,
                    "operation": "STATICCALL",
                    "output": "0x000000000000000000000000921de3b765f7895e680c370575420f097678b6c9",
                    "revert": false,
                    "revertMessage": "",
                    "selector": "0xdec08cb3",
                    "status": true,
                    "value": "0"
                },
                "nodeType": 0
            },
            "2": {
                "invocation": {
                    "address": "0x0000000000000000000000000000000000000001",
                    "callData": "0x53d4e4d4077d1e720a1f950dbc16ea763e446da172e60c492e1aa5ef000000000000000000000000000000000000000000000000000000000000001bcf34dc53fb14ef160af35cf60aef1c0f0cb25885e3a36d1cd2f4b3286f2c588301ea3b2e40c75df87ec38de4f3be07722754e16c9c80d66bf9d52d6d254485f2",
                    "decodedMethod": {
                        "callParams": [
                            {
                                "name": "hash",
                                "type": "bytes32",
                                "value": "0xdec08cb353d4e4d4077d1e720a1f950dbc16ea763e446da172e60c492e1aa5ef"
                            },
                            {
                                "name": "v",
                                "type": "uint256",
                                "value": "27"
                            },
                            {
                                "name": "r",
                                "type": "bytes32",
                                "value": "0xcf34dc53fb14ef160af35cf60aef1c0f0cb25885e3a36d1cd2f4b3286f2c5883"
                            },
                            {
                                "name": "s",
                                "type": "bytes32",
                                "value": "0x01ea3b2e40c75df87ec38de4f3be07722754e16c9c80d66bf9d52d6d254485f2"
                            }
                        ],
                        "constructorArguments": "",
                        "name": "ecrecover",
                        "returnParams": [
                            {
                                "name": "",
                                "type": "address",
                                "value": "0x546c378c330694d1fa092beb879dbc18cb5070f5"
                            }
                        ],
                        "signature": "ecrecover(bytes32,uint256,bytes32,bytes32)"
                    },
                    "errorInfo": "",
                    "fromAddress": "0xce6d4c39d227c9d8fc37c4a1d4070b523d796127",
                    "gasUsed": 3000,
                    "id": 2,
                    "methodDecoded": true,
                    "operation": "STATICCALL",
                    "output": "0x000000000000000000000000546c378c330694d1fa092beb879dbc18cb5070f5",
                    "revert": false,
                    "revertMessage": "",
                    "selector": "0xdec08cb3",
                    "status": true,
                    "value": "0"
                },
                "nodeType": 0
            },
            "3": {
                "invocation": {
                    "address": "0xeebc1b0e0f19bd03502ada32cb7a9e217568dceb",
                    "callData": "0x000000000000000000000000ce6d4c39d227c9d8fc37c4a1d4070b523d79612700000000000000000000000000000000000000000000000006f05b59d3b20000",
                    "decodedMethod": {
                        "callParams": [
                            {
                                "name": "destination",
                                "type": "address",
                                "value": "0xce6d4c39d227c9d8fc37c4a1d4070b523d796127"
                            },
                            {
                                "name": "value",
                                "type": "uint256",
                                "value": "500,000,000,000,000,000"
                            }
                        ],
                        "constructorArguments": "",
                        "name": "mint",
                        "returnParams": [],
                        "signature": "mint(address,uint256)"
                    },
                    "errorInfo": "",
                    "fromAddress": "0xce6d4c39d227c9d8fc37c4a1d4070b523d796127",
                    "gasUsed": 31410,
                    "id": 3,
                    "methodDecoded": true,
                    "operation": "CALL",
                    "output": "",
                    "revert": false,
                    "revertMessage": "",
                    "selector": "0x40c10f19",
                    "status": true,
                    "value": "0.5"
                },
                "nodeType": 0
            },
            "4": {
                "event": {
                    "contract": "0xeebc1b0e0f19bd03502ada32cb7a9e217568dceb",
                    "decodedLog": {
                        "name": "Transfer",
                        "params": [
                            {
                                "name": "from",
                                "type": "address",
                                "value": "0x0000000000000000000000000000000000000000"
                            },
                            {
                                "name": "to",
                                "type": "address",
                                "value": "0xce6d4c39d227c9d8fc37c4a1d4070b523d796127"
                            },
                            {
                                "decimalAvailable": true,
                                "name": "value",
                                "type": "uint256",
                                "value": "500,000,000,000,000,000"
                            }
                        ],
                        "signature": "Transfer(address,address,uint256)"
                    },
                    "id": 4,
                    "logData": "0x00000000000000000000000000000000000000000000000006f05b59d3b20000",
                    "logDecoded": true,
                    "operation": "EVENT",
                    "revert": false,
                    "status": true,
                    "topics": [
                        "0xddf252ad1be2c89b69c2b068fc378daa952ba7f163c4a11628f55a4df523b3ef",
                        "0x0000000000000000000000000000000000000000000000000000000000000000",
                        "0x000000000000000000000000ce6d4c39d227c9d8fc37c4a1d4070b523d796127"
                    ]
                },
                "nodeType": 1
            },
            "5": {
                "event": {
                    "contract": "0xeebc1b0e0f19bd03502ada32cb7a9e217568dceb",
                    "decodedLog": {
                        "name": "Mint",
                        "params": [
                            {
                                "name": "from",
                                "type": "address",
                                "value": "0xce6d4c39d227c9d8fc37c4a1d4070b523d796127"
                            },
                            {
                                "name": "to",
                                "type": "address",
                                "value": "0xce6d4c39d227c9d8fc37c4a1d4070b523d796127"
                            },
                            {
                                "name": "value",
                                "type": "uint256",
                                "value": "500,000,000,000,000,000"
                            }
                        ],
                        "signature": "Mint(address,address,uint256)"
                    },
                    "id": 5,
                    "logData": "0x000000000000000000000000ce6d4c39d227c9d8fc37c4a1d4070b523d796127000000000000000000000000ce6d4c39d227c9d8fc37c4a1d4070b523d79612700000000000000000000000000000000000000000000000006f05b59d3b20000",
                    "logDecoded": true,
                    "operation": "EVENT",
                    "revert": false,
                    "status": true,
                    "topics": [
                        "0xab8530f87dc9b59234c4623bf917212bb2536d647574c8e7e5da92c2ede0c9f8"
                    ]
                },
                "nodeType": 1
            },
            "6": {
                "event": {
                    "contract": "0xce6d4c39d227c9d8fc37c4a1d4070b523d796127",
                    "decodedLog": {
                        "name": "Liquidated",
                        "params": [
                            {
                                "name": "orderId",
                                "type": "string",
                                "value": "DCADB54B0AB974"
                            },
                            {
                                "name": "erc20contract",
                                "type": "address",
                                "value": "0xeeeeeeeeeeeeeeeeeeeeeeeeeeeeeeeeeeeeeeee"
                            },
                            {
                                "name": "fintochPool",
                                "type": "address",
                                "value": "0xeebc1b0e0f19bd03502ada32cb7a9e217568dceb"
                            },
                            {
                                "name": "recoveryAmount",
                                "type": "uint256",
                                "value": "500,000,000,000,000,000"
                            },
                            {
                                "name": "reserveAmount",
                                "type": "uint256",
                                "value": "0"
                            }
                        ],
                        "signature": "Liquidated(string,address,address,uint256,uint256)"
                    },
                    "id": 6,
                    "logData": "0x00000000000000000000000000000000000000000000000000000000000000a0000000000000000000000000eeeeeeeeeeeeeeeeeeeeeeeeeeeeeeeeeeeeeeee000000000000000000000000eebc1b0e0f19bd03502ada32cb7a9e217568dceb00000000000000000000000000000000000000000000000006f05b59d3b200000000000000000000000000000000000000000000000000000000000000000000000000000000000000000000000000000000000000000000000000000000000e4443414442353442304142393734000000000000000000000000000000000000",
                    "logDecoded": true,
                    "operation": "EVENT",
                    "revert": false,
                    "status": true,
                    "topics": [
                        "0x820330dd8dd7ae26cbe41c68a4749b6d054b4cc5e62f96ddd4f777c29e121d3b"
                    ]
                },
                "nodeType": 1
            }
        },
        "gasFlame": [
            {
                "children": [
                    {
                        "children": [
                            {
                                "children": [],
                                "depth": 0,
                                "name": "Initial Gas",
                                "value": 24800
                            },
                            {
                                "children": [
                                    {
                                        "children": [],
                                        "depth": 1,
                                        "name": "ecrecover",
                                        "value": 3000
                                    },
                                    {
                                        "children": [],
                                        "depth": 1,
                                        "name": "ecrecover",
                                        "value": 3000
                                    },
                                    {
                                        "children": [],
                                        "depth": 1,
                                        "name": "mint",
                                        "value": 31410
                                    }
                                ],
                                "depth": 0,
                                "name": "Executed Gas",
                                "value": 71687
                            }
                        ],
                        "depth": -1,
                        "name": "Actual Gas Used",
                        "value": 96487
                    },
                    {
                        "children": [],
                        "depth": -1,
                        "name": "Refunded Gas",
                        "value": 0
                    }
                ],
                "depth": -2,
                "name": "Total Gas",
                "value": 96487
            }
        ],
        "isConfirmed": true,
        "mainTrace": [
            {
                "children": [
                    {
                        "children": [
                            {
                                "children": [],
                                "depth": 1,
                                "id": 1,
                                "order": 1
                            },
                            {
                                "children": [],
                                "depth": 1,
                                "id": 2,
                                "order": 2
                            },
                            {
                                "children": [
                                    {
                                        "children": [],
                                        "depth": 2,
                                        "id": 4,
                                        "order": 4
                                    },
                                    {
                                        "children": [],
                                        "depth": 2,
                                        "id": 5,
                                        "order": 5
                                    }
                                ],
                                "depth": 1,
                                "id": 3,
                                "order": 3
                            },
                            {
                                "children": [],
                                "depth": 1,
                                "id": 6,
                                "order": 6
                            }
                        ],
                        "depth": 0,
                        "id": 0,
                        "order": 0
                    }
                ],
                "depth": -1,
                "id": -1,
                "order": -1
            }
        ],
        "mainTraceNodeCount": 7,
        "parentIdMap": {
            "0": -1,
            "1": 0,
            "2": 0,
            "3": 0,
            "4": 3,
            "5": 3,
            "6": 0
        },
        "tidyTrace": [
            {
                "children": [
                    {
                        "children": [
                            {
                                "children": [
                                    {
                                        "children": [],
                                        "depth": 2,
                                        "id": 4,
                                        "order": 4
                                    },
                                    {
                                        "children": [],
                                        "depth": 2,
                                        "id": 5,
                                        "order": 5
                                    }
                                ],
                                "depth": 1,
                                "id": 3,
                                "order": 3
                            },
                            {
                                "children": [],
                                "depth": 1,
                                "id": 6,
                                "order": 6
                            }
                        ],
                        "depth": 0,
                        "id": 0,
                        "order": 0
                    }
                ],
                "depth": -1,
                "id": -1,
                "order": -1
            }
        ],
        "tidyTraceNodeCount": 5
    },
    "state_change": {
        "stateChanges": [
            {
                "address": "0xce6d4c39d227c9d8fc37c4a1d4070b523d796127",
                "erc": "",
                "slots": [
                    {
                        "current": "0x000000000000000000000000000000000000000000000000000000000000007b",
                        "key": "0x0000000000000000000000000000000000000000000000000000000000000005",
                        "prev": "0x000000000000000000000000000000000000000000000000000000000000007a"
                    }
                ],
                "storageVariables": []
            },
            {
                "address": "0xeebc1b0e0f19bd03502ada32cb7a9e217568dceb",
                "erc": "ERC-20",
                "slots": [
                    {
                        "current": "0x00000000000000000000000000000000000000000000000006f05b59d3b20000",
                        "key": "0xfce07e9508d99415f61b18bb16260514aff651a3a34ef6ea907f9d1f5202b20c",
                        "prev": "0x0000000000000000000000000000000000000000000000000000000000000000"
                    },
                    {
                        "current": "0x000000000000000000000000000000000000000000000001beddf83423d3186a",
                        "key": "0x0000000000000000000000000000000000000000000000000000000000000000",
                        "prev": "0x000000000000000000000000000000000000000000000001b7ed9cda5021186a"
                    }
                ],
                "storageVariables": [
                    {
                        "name": "totalSupply",
                        "type": "uint256",
                        "value": {
                            "current": "32200165813591939178",
                            "prev": "31700165813591939178",
                            "typeTag": 1
                        }
                    },
                    {
                        "name": "balanceOf",
                        "type": "mapping(address => uint256)",
                        "value": {
                            "pairs": [
                                {
                                    "key": "0xce6d4c39d227c9d8fc37c4a1d4070b523d796127",
                                    "value": {
                                        "current": "500000000000000000",
                                        "prev": "0",
                                        "typeTag": 1
                                    }
                                }
                            ],
                            "typeTag": 4
                        }
                    }
                ]
            }
        ]
    }
}