{
    "balance_change": {
        "balanceChanges": [
            {
                "account": "0xde522ff2ed4d2edd17429c9907db12a12906836a",
                "assets": [
                    {
                        "address": "0x4d9e23a3842fe7eb7682b9725cf6c507c424a41b",
                        "amount": "70",
                        "iconUrl": "",
                        "isERC1155": false,
                        "isERC721": false,
                        "sign": false,
                        "value": ""
                    }
                ]
            },
            {
                "account": "0x163554d06d3b202fb8bc66683393300e42ae78b4",
                "assets": [
                    {
                        "address": "0x4d9e23a3842fe7eb7682b9725cf6c507c424a41b",
                        "amount": "70",
                        "iconUrl": "",
                        "isERC1155": false,
                        "isERC721": false,
                        "sign": true,
                        "value": ""
                    }
                ]
            }
        ]
    },
    "profile": {
        "basic_info": {
            "baseFee": "",
            "blockNumber": 6020073,
            "callData": "0xa9059cbb000000000000000000000000163554d06d3b202fb8bc66683393300e42ae78b4000000000000000000000000000000000000000000000003cb71f51fc5580000",
            "debugEnable": true,
            "errorInfo": "",
            "eventCount": 1,
            "feeRecipient": "0x5a0b54d5dc17e0aadc383d2db43b0a0d3e029c4c",
            "formatValue": "0",
            "gasLimit": 100000,
            "gasPrice": "2",
            "gasUsed": 52000,
            "intTxnCount": 0,
            "internalRevert": false,
            "internalRevertMessage": "",
            "isContractCreation": false,
            "isFlashloan": false,
            "maxFee": "",
            "nonce": 2633,
            "overwritedBlockNumber": -1,
            "priorityFee": "",
            "receiver": "0x4d9e23a3842fe7eb7682b9725cf6c507c424a41b",
            "revertMessage": "",
            "sender": "0xde522ff2ed4d2edd17429c9907db12a12906836a",
            "simulationEnable": true,
            "sourceTxnHash": "0xd0d29e2d3e2d1fae6baf12325e62f08fd1ffac96dfa1cfe8de19633c697a6fad",
            "status": true,
            "timestamp": "2018-07-24T06:04:09Z",
            "transactionFee": "0.000104",
            "txnHash": "0xd0d29e2d3e2d1fae6baf12325e62f08fd1ffac96dfa1cfe8de19633c697a6fad",
            "txnIndex": 7,
            "type": 0,
            "value": "0"
        },
        "fund_flow": [
            {
                "amount": "70",
                "from": "0xde522ff2ed4d2edd17429c9907db12a12906836a",
                "id": 1,
                "isERC1155": false,
                "isERC721": false,
                "isReverted": false,
                "order": 1,
                "to": "0x163554d06d3b202fb8bc66683393300e42ae78b4",
                "token": "0x4d9e23a3842fe7eb7682b9725cf6c507c424a41b"
            }
        ],
        "token_infos": [
            {
                "address": "0xc02aaa39b223fe8d0a0e5c4f27ead9083c756cc2",
                "decimals": 18
            },
            {
                "address": "0xeeeeeeeeeeeeeeeeeeeeeeeeeeeeeeeeeeeeeeee",
                "decimals": 18
            },
            {
                "address": "0x4d9e23a3842fe7eb7682b9725cf6c507c424a41b",
                "decimals": 18
            }
        ]
    },
    "address_label": {
        "labels": [
            {
                "address": "0x0000000000000000000000000000000000000001",
                "label": "Precompiled"
            },
            {
                "address": "0x0000000000000000000000000000000000000002",
                "label": "Precompiled"
            },
            {
                "address": "0x0000000000000000000000000000000000000003",
                "label": "Precompiled"
            },
            {
                "address": "0x0000000000000000000000000000000000000004",
                "label": "Precompiled"
            },
            {
                "address": "0xeeeeeeeeeeeeeeeeeeeeeeeeeeeeeeeeeeeeeeee",
                "label": "Ether"
            },
            {
                "address": "0x4d9e23a3842fe7eb7682b9725cf6c507c424a41b",
                "label": "CarBlock.io (CAR)"
            }
        ]
    },
    "trace": {
        "accountLabels": null,
        "dataMap": {
            "-1": {
                "invocation": {
                    "address": "0xde522ff2ed4d2edd17429c9907db12a12906836a",
                    "callData": "",
                    "decodedMethod": null,
                    "errorInfo": "",
                    "fromAddress": "",
                    "gasUsed": 0,
                    "id": -1,
                    "methodDecoded": false,
                    "operation": "",
                    "output": "",
                    "revert": false,
                    "revertMessage": "",
                    "selector": "",
                    "status": false,
                    "value": ""
                },
                "nodeType": 0
            },
            "0": {
                "invocation": {
                    "address": "0x4d9e23a3842fe7eb7682b9725cf6c507c424a41b",
                    "callData": "0x000000000000000000000000163554d06d3b202fb8bc66683393300e42ae78b4000000000000000000000000000000000000000000000003cb71f51fc5580000",
                    "decodedMethod": {
                        "callParams": [
                            {
                                "name": "to",
                                "type": "address",
                                "value": "0x163554d06d3b202fb8bc66683393300e42ae78b4"
                            },
                            {
                                "decimalAvailable": true,
                                "name": "tokens",
                                "type": "uint256",
                                "value": "70,000,000,000,000,000,000"
                            }
                        ],
                        "constructorArguments": "",
                        "name": "transfer",
                        "returnParams": [
                            {
                                "name": "success",
                                "type": "bool",
                                "value": true
                            }
                        ],
                        "signature": "transfer(address,uint256)"
                    },
                    "errorInfo": "",
                    "fromAddress": "0xde522ff2ed4d2edd17429c9907db12a12906836a",
                    "gasUsed": 52000,
                    "id": 0,
                    "methodDecoded": true,
                    "operation": "CALL",
                    "output": "0x0000000000000000000000000000000000000000000000000000000000000001",
                    "revert": false,
                    "revertMessage": "",
                    "selector": "0xa9059cbb",
                    "status": true,
                    "value": "0"
                },
                "nodeType": 0
            },
            "1": {
                "event": {
                    "contract": "0x4d9e23a3842fe7eb7682b9725cf6c507c424a41b",
                    "decodedLog": {
                        "name": "Transfer",
                        "params": [
                            {
                                "name": "from",
                                "type": "address",
                                "value": "0xde522ff2ed4d2edd17429c9907db12a12906836a"
                            },
                            {
                                "name": "to",
                                "type": "address",
                                "value": "0x163554d06d3b202fb8bc66683393300e42ae78b4"
                            },
                            {
                                "decimalAvailable": true,
                                "name": "tokens",
                                "type": "uint256",
                                "value": "70,000,000,000,000,000,000"
                            }
                        ],
                        "signature": "Transfer(address,address,uint256)"
                    },
                    "id": 1,
                    "logData": "0x000000000000000000000000000000000000000000000003cb71f51fc5580000",
                    "logDecoded": true,
                    "operation": "EVENT",
                    "revert": false,
                    "status": true,
                    "topics": [
                        "0xddf252ad1be2c89b69c2b068fc378daa952ba7f163c4a11628f55a4df523b3ef",
                        "0x000000000000000000000000de522ff2ed4d2edd17429c9907db12a12906836a",
                        "0x000000000000000000000000163554d06d3b202fb8bc66683393300e42ae78b4"
                    ]
                },
                "nodeType": 1
            }
        },
        "gasFlame": [
            {
                "children": [
                    {
                        "children": [
                            {
                                "children": [],
                                "depth": 0,
                                "name": "Initial Gas",
                                "value": 23256
                            },
                            {
                                "children": [],
                                "depth": 0,
                                "name": "Executed Gas",
                                "value": 28744
                            }
                        ],
                        "depth": -1,
                        "name": "Actual Gas Used",
                        "value": 52000
                    },
                    {
                        "children": [],
                        "depth": -1,
                        "name": "Refunded Gas",
                        "value": 0
                    }
                ],
                "depth": -2,
                "name": "Total Gas",
                "value": 52000
            }
        ],
        "isConfirmed": true,
        "mainTrace": [
            {
                "children": [
                    {
                        "children": [
                            {
                                "children": [],
                                "depth": 1,
                                "id": 1,
                                "order": 1
                            }
                        ],
                        "depth": 0,
                        "id": 0,
                        "order": 0
                    }
                ],
                "depth": -1,
                "id": -1,
                "order": -1
            }
        ],
        "mainTraceNodeCount": 2,
        "parentIdMap": {
            "0": -1,
            "1": 0
        },
        "tidyTrace": [
            {
                "children": [
                    {
                        "children": [
                            {
                                "children": [],
                                "depth": 1,
                                "id": 1,
                                "order": 1
                            }
                        ],
                        "depth": 0,
                        "id": 0,
                        "order": 0
                    }
                ],
                "depth": -1,
                "id": -1,
                "order": -1
            }
        ],
        "tidyTraceNodeCount": 2
    },
    "state_change": {
        "stateChanges": [
            {
                "address": "0x4d9e23a3842fe7eb7682b9725cf6c507c424a41b",
                "erc": "ERC-20",
                "slots": [
                    {
                        "current": "0x00000000000000000000000000000000000000000002b27270a8e9ef33f87530",
                        "key": "0x48b7bb21fef4d78abbec09e895a2ce48808e4e4af4a82be204f2e41d5c430f1c",
                        "prev": "0x00000000000000000000000000000000000000000002b2763c1adf0ef9507530"
                    },
                    {
                        "current": "0x000000000000000000000000000000000000000000000003cb71f51fc5580000",
                        "key": "0x8aadaae09b78bf2db7d507279bcb892dff0be271a6fcb555df39651291db6964",
                        "prev": "0x0000000000000000000000000000000000000000000000000000000000000000"
                    }
                ],
                "storageVariables": [
                    {
                        "name": "balances",
                        "type": "mapping(address => uint256)",
                        "value": {
                            "pairs": [
                                {
                                    "key": "0x163554d06d3b202fb8bc66683393300e42ae78b4",
                                    "value": {
                                        "current": "70000000000000000000",
                                        "prev": "0",
                                        "typeTag": 1
                                    }
                                },
                                {
                                    "key": "0xde522ff2ed4d2edd17429c9907db12a12906836a",
                                    "value": {
                                        "current": "3260543920000000000030000",
                                        "prev": "3260613920000000000030000",
                                        "typeTag": 1
                                    }
                                }
                            ],
                            "typeTag": 4
                        }
                    }
                ]
            }
        ]
    }
}