{
    "balance_change": {
        "balanceChanges": [
            {
                "account": "0xae9f69bf21b293589c2cef13984ea88e612abd50",
                "assets": [
                    {
                        "address": "0xeeeeeeeeeeeeeeeeeeeeeeeeeeeeeeeeeeeeeeee",
                        "amount": "1.44",
                        "iconUrl": "https://assets.blocksec.com/image/1663669189317-3.png",
                        "isERC1155": false,
                        "isERC721": false,
                        "sign": true,
                        "value": "3220.7472000000001573"
                    }
                ]
            },
            {
                "account": "0x1715a3e4a142d8b698131108995174f37aeba10d",
                "assets": [
                    {
                        "address": "0xc02aaa39b223fe8d0a0e5c4f27ead9083c756cc2",
                        "amount": "1.44",
                        "iconUrl": "https://assets.blocksec.com/icon/f1cb2d02c471d545bbc7722daf3277fd852d98e63d118771af7047bd8256c516.png",
                        "isERC1155": false,
                        "isERC721": false,
                        "sign": false,
                        "value": "3220.7472000000001573"
                    }
                ]
            },
            {
                "account": "0xc02aaa39b223fe8d0a0e5c4f27ead9083c756cc2",
                "assets": [
                    {
                        "address": "0xc02aaa39b223fe8d0a0e5c4f27ead9083c756cc2",
                        "amount": "1.44",
                        "iconUrl": "https://assets.blocksec.com/icon/f1cb2d02c471d545bbc7722daf3277fd852d98e63d118771af7047bd8256c516.png",
                        "isERC1155": false,
                        "isERC721": false,
                        "sign": true,
                        "value": "3220.7472000000001573"
                    },
                    {
                        "address": "0xeeeeeeeeeeeeeeeeeeeeeeeeeeeeeeeeeeeeeeee",
                        "amount": "1.44",
                        "iconUrl": "https://assets.blocksec.com/image/1663669189317-3.png",
                        "isERC1155": false,
                        "isERC721": false,
                        "sign": false,
                        "value": "3220.7472000000001573"
                    }
                ]
            }
        ]
    },
    "profile": {
        "basic_info": {
            "baseFee": "45.270383392",
            "blockNumber": 18836335,
            "callData": "0x23caab4900000000000000000000000000000000000000000000000000000000000000400000000000000000000000000000000000000000000000000000000000000180000000000000000000000000000000000000000000000000000000000000011600050000eb21bb7b72d1042c471c6a52c971da8152d66d7a000000000001c41a4fd0aaa7506f3d9cb8274bdb946ec42a1b8751ef1715a3e4a142d8b698131108995174f37aeba10d001e8480020100017101867f7a4d000000000000000000000000c02aaa39b223fe8d0a0e5c4f27ead9083c756cc20000000000000000000000008ac4ae65b3656e26dc4e0e69108b392283350f5500000000000000000000000000000000000000000000000013fbe85edc90000000000000000000000000000000000000000000000000000000000000000000800000000000000000000000000000000000000000000000000000000000000014ae9f69bf21b293589c2cef13984ea88e612abd50000000000000000000000000000000000000000000000000000000000000000000000000000000000000000000000000000000000146051c1c1b1b1cc84e78d09c8e16021e6e249ac4a802db7a9fd87d2def0b6460d5d65e2dd0d07484ef2b735d4d40e1040a7724d7b4bde4a24427434b1ac463e81a9cfa6ce205f857d31c206f9704012595bd73f426226d4798af8b50c9a66103c3e609a27fe05d90773e58679a8188f11957d7b85a6ad83f9f90e88857204abbb816b1c713fde6f50954c10dc6ad98e8df76745a5f06df0e327abff44b7145253e4310c169ce74491d9629c7b7e6a15a32a631b85fb97dc4223dc8c3ce423dea2937ed442ec2811598352111d9a5288c42ed7b5a0574051329e7cbf09ba828a026ecaf0218c05f59458e54c4c9d3917ac7fcb5a31ca6ec8858567157cc73abac40fad6585542ce2c666845c73eebd4998fc549192538762f4a875af0b972b33aaed5122171493853f80125124f63f40df7c3b9392d5404a72cbd969bc063c1cee28c4622da07590000000000000000000000000000000000000000000000000000",
            "debugEnable": true,
            "errorInfo": "",
            "eventCount": 4,
            "feeRecipient": "0x690b9a9e9aa1c9db991c7721a92d351db4fac990",
            "formatValue": "0",
            "gasLimit": 313927,
            "gasPrice": "45.370383392",
            "gasUsed": 247700,
            "intTxnCount": 29,
            "internalRevert": false,
            "internalRevertMessage": "",
            "isContractCreation": false,
            "isFlashloan": false,
            "maxFee": "53.708858197",
            "nonce": 582,
            "overwritedBlockNumber": -1,
            "priorityFee": "0.1",
            "receiver": "0xd0764fae29e0a6a96ff685f71cfc685456d5636c",
            "revertMessage": "",
            "sender": "0xae9f69bf21b293589c2cef13984ea88e612abd50",
            "simulationEnable": true,
            "sourceTxnHash": "0xd115304b1963a22d3a981a5340674cfb6afe1cd14437addf6042328fa0edab4b",
            "status": true,
            "timestamp": "2023-12-21T19:30:23Z",
            "transactionFee": "0.0112382439661984",
            "txnHash": "0xd115304b1963a22d3a981a5340674cfb6afe1cd14437addf6042328fa0edab4b",
            "txnIndex": 111,
            "type": 2,
            "value": "0"
        },
        "fund_flow": [
            {
                "amount": "1.44",
                "from": "0x1715a3e4a142d8b698131108995174f37aeba10d",
                "id": 1,
                "isERC1155": false,
                "isERC721": false,
                "isReverted": false,
                "order": 1,
                "to": "0x8ac4ae65b3656e26dc4e0e69108b392283350f55",
                "token": "0xc02aaa39b223fe8d0a0e5c4f27ead9083c756cc2"
            },
            {
                "amount": "1.44",
                "from": "0xc02aaa39b223fe8d0a0e5c4f27ead9083c756cc2",
                "id": 2,
                "isERC1155": false,
                "isERC721": false,
                "isReverted": false,
                "order": 2,
                "to": "0x8ac4ae65b3656e26dc4e0e69108b392283350f55",
                "token": "0xeeeeeeeeeeeeeeeeeeeeeeeeeeeeeeeeeeeeeeee"
            },
            {
                "amount": "1.44",
                "from": "0x8ac4ae65b3656e26dc4e0e69108b392283350f55",
                "id": 3,
                "isERC1155": false,
                "isERC721": false,
                "isReverted": false,
                "order": 3,
                "to": "0xc02aaa39b223fe8d0a0e5c4f27ead9083c756cc2",
                "token": "0xc02aaa39b223fe8d0a0e5c4f27ead9083c756cc2"
            },
            {
                "amount": "1.44",
                "from": "0x8ac4ae65b3656e26dc4e0e69108b392283350f55",
                "id": 4,
                "isERC1155": false,
                "isERC721": false,
                "isReverted": false,
                "order": 4,
                "to": "0xae9f69bf21b293589c2cef13984ea88e612abd50",
                "token": "0xeeeeeeeeeeeeeeeeeeeeeeeeeeeeeeeeeeeeeeee"
            }
        ],
        "token_infos": [
            {
                "address": "0xeeeeeeeeeeeeeeeeeeeeeeeeeeeeeeeeeeeeeeee",
                "decimals": 18
            },
            {
                "address": "0xc02aaa39b223fe8d0a0e5c4f27ead9083c756cc2",
                "decimals": 18
            }
        ]
    },
    "address_label": {
        "labels": [
            {
                "address": "0x1715a3e4a142d8b698131108995174f37aeba10d",
                "label": "PulseChain: Omnibridge Proxy"
            },
            {
                "address": "0xd0764fae29e0a6a96ff685f71cfc685456d5636c",
                "label": "PulseChain: Foreign AMB Proxy"
            },
            {
                "address": "0x0000000000000000000000000000000000000001",
                "label": "Precompiled"
            },
            {
                "address": "0x0000000000000000000000000000000000000004",
                "label": "Precompiled"
            },
            {
                "address": "0xeeeeeeeeeeeeeeeeeeeeeeeeeeeeeeeeeeeeeeee",
                "label": "Ether"
            },
            {
                "address": "0x2fa878ab3f87cc1c9737fc071108f904c0b0c95d",
                "label": "EternalStorageProxy"
            },
            {
                "address": "0x8ac4ae65b3656e26dc4e0e69108b392283350f55",
                "label": "PulseChain: WETH Omnibridge Router"
            },
            {
                "address": "0x0000000000000000000000000000000000000002",
                "label": "Precompiled"
            },
            {
                "address": "0x0000000000000000000000000000000000000003",
                "label": "Precompiled"
            },
            {
                "address": "0xe98699957d3504acd57fff861e4b77b57eb02467",
                "label": "ForeignAMB"
            },
            {
                "address": "0xc02aaa39b223fe8d0a0e5c4f27ead9083c756cc2",
                "label": "Wrapped Ether (WETH)"
            },
            {
                "address": "0x95b303987a60c71504d99aa1b13b4da07b0790ab",
                "label": "BridgeValidators"
            },
            {
                "address": "0xb7df1e00ae030e966e635ede273625240546b873",
                "label": "ForeignOmnibridge"
            }
        ]
    },
    "trace": {
        "accountLabels": null,
        "dataMap": {
            "-1": {
                "invocation": {
                    "address": "0xae9f69bf21b293589c2cef13984ea88e612abd50",
                    "callData": "",
                    "decodedMethod": null,
                    "errorInfo": "",
                    "fromAddress": "",
                    "gasUsed": 0,
                    "id": -1,
                    "methodDecoded": false,
                    "operation": "",
                    "output": "",
                    "revert": false,
                    "revertMessage": "",
                    "selector": "",
                    "status": false,
                    "value": ""
                },
                "nodeType": 0
            },
            "0": {
                "invocation": {
                    "address": "0xd0764fae29e0a6a96ff685f71cfc685456d5636c",
                    "callData": "0x00000000000000000000000000000000000000000000000000000000000000400000000000000000000000000000000000000000000000000000000000000180000000000000000000000000000000000000000000000000000000000000011600050000eb21bb7b72d1042c471c6a52c971da8152d66d7a000000000001c41a4fd0aaa7506f3d9cb8274bdb946ec42a1b8751ef1715a3e4a142d8b698131108995174f37aeba10d001e8480020100017101867f7a4d000000000000000000000000c02aaa39b223fe8d0a0e5c4f27ead9083c756cc20000000000000000000000008ac4ae65b3656e26dc4e0e69108b392283350f5500000000000000000000000000000000000000000000000013fbe85edc90000000000000000000000000000000000000000000000000000000000000000000800000000000000000000000000000000000000000000000000000000000000014ae9f69bf21b293589c2cef13984ea88e612abd50000000000000000000000000000000000000000000000000000000000000000000000000000000000000000000000000000000000146051c1c1b1b1cc84e78d09c8e16021e6e249ac4a802db7a9fd87d2def0b6460d5d65e2dd0d07484ef2b735d4d40e1040a7724d7b4bde4a24427434b1ac463e81a9cfa6ce205f857d31c206f9704012595bd73f426226d4798af8b50c9a66103c3e609a27fe05d90773e58679a8188f11957d7b85a6ad83f9f90e88857204abbb816b1c713fde6f50954c10dc6ad98e8df76745a5f06df0e327abff44b7145253e4310c169ce74491d9629c7b7e6a15a32a631b85fb97dc4223dc8c3ce423dea2937ed442ec2811598352111d9a5288c42ed7b5a0574051329e7cbf09ba828a026ecaf0218c05f59458e54c4c9d3917ac7fcb5a31ca6ec8858567157cc73abac40fad6585542ce2c666845c73eebd4998fc549192538762f4a875af0b972b33aaed5122171493853f80125124f63f40df7c3b9392d5404a72cbd969bc063c1cee28c4622da07590000000000000000000000000000000000000000000000000000",
                    "decodedMethod": {
                        "callParams": [
                            {
                                "name": "_data",
                                "type": "bytes",
                                "value": "0x00050000eb21bb7b72d1042c471c6a52c971da8152d66d7a000000000001c41a4fd0aaa7506f3d9cb8274bdb946ec42a1b8751ef1715a3e4a142d8b698131108995174f37aeba10d001e8480020100017101867f7a4d000000000000000000000000c02aaa39b223fe8d0a0e5c4f27ead9083c756cc20000000000000000000000008ac4ae65b3656e26dc4e0e69108b392283350f5500000000000000000000000000000000000000000000000013fbe85edc90000000000000000000000000000000000000000000000000000000000000000000800000000000000000000000000000000000000000000000000000000000000014ae9f69bf21b293589c2cef13984ea88e612abd50000000000000000000000000"
                            },
                            {
                                "name": "_signatures",
                                "type": "bytes",
                                "value": "0x051c1c1b1b1cc84e78d09c8e16021e6e249ac4a802db7a9fd87d2def0b6460d5d65e2dd0d07484ef2b735d4d40e1040a7724d7b4bde4a24427434b1ac463e81a9cfa6ce205f857d31c206f9704012595bd73f426226d4798af8b50c9a66103c3e609a27fe05d90773e58679a8188f11957d7b85a6ad83f9f90e88857204abbb816b1c713fde6f50954c10dc6ad98e8df76745a5f06df0e327abff44b7145253e4310c169ce74491d9629c7b7e6a15a32a631b85fb97dc4223dc8c3ce423dea2937ed442ec2811598352111d9a5288c42ed7b5a0574051329e7cbf09ba828a026ecaf0218c05f59458e54c4c9d3917ac7fcb5a31ca6ec8858567157cc73abac40fad6585542ce2c666845c73eebd4998fc549192538762f4a875af0b972b33aaed5122171493853f80125124f63f40df7c3b9392d5404a72cbd969bc063c1cee28c4622da0759"
                            }
                        ],
                        "constructorArguments": "",
                        "name": "safeExecuteSignaturesWithAutoGasLimit",
                        "returnParams": [],
                        "signature": "safeExecuteSignaturesWithAutoGasLimit(bytes,bytes)"
                    },
                    "errorInfo": "",
                    "fromAddress": "0xae9f69bf21b293589c2cef13984ea88e612abd50",
                    "gasUsed": 247700,
                    "id": 0,
                    "methodDecoded": true,
                    "operation": "CALL",
                    "output": "",
                    "revert": false,
                    "revertMessage": "",
                    "selector": "0x23caab49",
                    "status": true,
                    "value": "0"
                },
                "nodeType": 0
            },
            "1": {
                "invocation": {
                    "address": "0xe98699957d3504acd57fff861e4b77b57eb02467",
                    "callData": "0x00000000000000000000000000000000000000000000000000000000000000400000000000000000000000000000000000000000000000000000000000000180000000000000000000000000000000000000000000000000000000000000011600050000eb21bb7b72d1042c471c6a52c971da8152d66d7a000000000001c41a4fd0aaa7506f3d9cb8274bdb946ec42a1b8751ef1715a3e4a142d8b698131108995174f37aeba10d001e8480020100017101867f7a4d000000000000000000000000c02aaa39b223fe8d0a0e5c4f27ead9083c756cc20000000000000000000000008ac4ae65b3656e26dc4e0e69108b392283350f5500000000000000000000000000000000000000000000000013fbe85edc90000000000000000000000000000000000000000000000000000000000000000000800000000000000000000000000000000000000000000000000000000000000014ae9f69bf21b293589c2cef13984ea88e612abd50000000000000000000000000000000000000000000000000000000000000000000000000000000000000000000000000000000000146051c1c1b1b1cc84e78d09c8e16021e6e249ac4a802db7a9fd87d2def0b6460d5d65e2dd0d07484ef2b735d4d40e1040a7724d7b4bde4a24427434b1ac463e81a9cfa6ce205f857d31c206f9704012595bd73f426226d4798af8b50c9a66103c3e609a27fe05d90773e58679a8188f11957d7b85a6ad83f9f90e88857204abbb816b1c713fde6f50954c10dc6ad98e8df76745a5f06df0e327abff44b7145253e4310c169ce74491d9629c7b7e6a15a32a631b85fb97dc4223dc8c3ce423dea2937ed442ec2811598352111d9a5288c42ed7b5a0574051329e7cbf09ba828a026ecaf0218c05f59458e54c4c9d3917ac7fcb5a31ca6ec8858567157cc73abac40fad6585542ce2c666845c73eebd4998fc549192538762f4a875af0b972b33aaed5122171493853f80125124f63f40df7c3b9392d5404a72cbd969bc063c1cee28c4622da07590000000000000000000000000000000000000000000000000000",
                    "decodedMethod": {
                        "callParams": [
                            {
                                "name": "_data",
                                "type": "bytes",
                                "value": "0x00050000eb21bb7b72d1042c471c6a52c971da8152d66d7a000000000001c41a4fd0aaa7506f3d9cb8274bdb946ec42a1b8751ef1715a3e4a142d8b698131108995174f37aeba10d001e8480020100017101867f7a4d000000000000000000000000c02aaa39b223fe8d0a0e5c4f27ead9083c756cc20000000000000000000000008ac4ae65b3656e26dc4e0e69108b392283350f5500000000000000000000000000000000000000000000000013fbe85edc90000000000000000000000000000000000000000000000000000000000000000000800000000000000000000000000000000000000000000000000000000000000014ae9f69bf21b293589c2cef13984ea88e612abd50000000000000000000000000"
                            },
                            {
                                "name": "_signatures",
                                "type": "bytes",
                                "value": "0x051c1c1b1b1cc84e78d09c8e16021e6e249ac4a802db7a9fd87d2def0b6460d5d65e2dd0d07484ef2b735d4d40e1040a7724d7b4bde4a24427434b1ac463e81a9cfa6ce205f857d31c206f9704012595bd73f426226d4798af8b50c9a66103c3e609a27fe05d90773e58679a8188f11957d7b85a6ad83f9f90e88857204abbb816b1c713fde6f50954c10dc6ad98e8df76745a5f06df0e327abff44b7145253e4310c169ce74491d9629c7b7e6a15a32a631b85fb97dc4223dc8c3ce423dea2937ed442ec2811598352111d9a5288c42ed7b5a0574051329e7cbf09ba828a026ecaf0218c05f59458e54c4c9d3917ac7fcb5a31ca6ec8858567157cc73abac40fad6585542ce2c666845c73eebd4998fc549192538762f4a875af0b972b33aaed5122171493853f80125124f63f40df7c3b9392d5404a72cbd969bc063c1cee28c4622da0759"
                            }
                        ],
                        "constructorArguments": "",
                        "name": "safeExecuteSignaturesWithAutoGasLimit",
                        "returnParams": [],
                        "signature": "safeExecuteSignaturesWithAutoGasLimit(bytes,bytes)"
                    },
                    "errorInfo": "",
                    "fromAddress": "0xd0764fae29e0a6a96ff685f71cfc685456d5636c",
                    "gasUsed": 274422,
                    "id": 1,
                    "methodDecoded": true,
                    "operation": "DELEGATECALL",
                    "output": "",
                    "revert": false,
                    "revertMessage": "",
                    "selector": "0x23caab49",
                    "status": true,
                    "value": "0"
                },
                "nodeType": 0
            },
            "10": {
                "invocation": {
                    "address": "0x0000000000000000000000000000000000000001",
                    "callData": "0x0499f4e87ef9057e1ac0c99f89fe98740d0634f2364e91ea859751f1000000000000000000000000000000000000000000000000000000000000001b57d31c206f9704012595bd73f426226d4798af8b50c9a66103c3e609a27fe05d59458e54c4c9d3917ac7fcb5a31ca6ec8858567157cc73abac40fad6585542ce",
                    "decodedMethod": {
                        "callParams": [
                            {
                                "name": "hash",
                                "type": "bytes32",
                                "value": "0x8960444d0499f4e87ef9057e1ac0c99f89fe98740d0634f2364e91ea859751f1"
                            },
                            {
                                "name": "v",
                                "type": "uint256",
                                "value": "27"
                            },
                            {
                                "name": "r",
                                "type": "bytes32",
                                "value": "0x57d31c206f9704012595bd73f426226d4798af8b50c9a66103c3e609a27fe05d"
                            },
                            {
                                "name": "s",
                                "type": "bytes32",
                                "value": "0x59458e54c4c9d3917ac7fcb5a31ca6ec8858567157cc73abac40fad6585542ce"
                            }
                        ],
                        "constructorArguments": "",
                        "name": "ecrecover",
                        "returnParams": [
                            {
                                "name": "",
                                "type": "address",
                                "value": "0xfb18da3bca8057eb05aab6e77a32925949093533"
                            }
                        ],
                        "signature": "ecrecover(bytes32,uint256,bytes32,bytes32)"
                    },
                    "errorInfo": "",
                    "fromAddress": "0xd0764fae29e0a6a96ff685f71cfc685456d5636c",
                    "gasUsed": 3000,
                    "id": 10,
                    "methodDecoded": true,
                    "operation": "CALL",
                    "output": "0x000000000000000000000000fb18da3bca8057eb05aab6e77a32925949093533",
                    "revert": false,
                    "revertMessage": "",
                    "selector": "0x8960444d",
                    "status": true,
                    "value": "0"
                },
                "nodeType": 0
            },
            "11": {
                "invocation": {
                    "address": "0x2fa878ab3f87cc1c9737fc071108f904c0b0c95d",
                    "callData": "0x000000000000000000000000fb18da3bca8057eb05aab6e77a32925949093533",
                    "decodedMethod": {
                        "callParams": [
                            {
                                "name": "_validator",
                                "type": "address",
                                "value": "0xfb18da3bca8057eb05aab6e77a32925949093533"
                            }
                        ],
                        "constructorArguments": "",
                        "name": "isValidator",
                        "returnParams": [
                            {
                                "name": "",
                                "type": "bool",
                                "value": true
                            }
                        ],
                        "signature": "isValidator(address)"
                    },
                    "errorInfo": "",
                    "fromAddress": "0xd0764fae29e0a6a96ff685f71cfc685456d5636c",
                    "gasUsed": 4427,
                    "id": 11,
                    "methodDecoded": true,
                    "operation": "CALL",
                    "output": "0x0000000000000000000000000000000000000000000000000000000000000001",
                    "revert": false,
                    "revertMessage": "",
                    "selector": "0xfacd743b",
                    "status": true,
                    "value": "0"
                },
                "nodeType": 0
            },
            "12": {
                "invocation": {
                    "address": "0x95b303987a60c71504d99aa1b13b4da07b0790ab",
                    "callData": "0x000000000000000000000000fb18da3bca8057eb05aab6e77a32925949093533",
                    "decodedMethod": {
                        "callParams": [
                            {
                                "name": "_validator",
                                "type": "address",
                                "value": "0xfb18da3bca8057eb05aab6e77a32925949093533"
                            }
                        ],
                        "constructorArguments": "",
                        "name": "isValidator",
                        "returnParams": [
                            {
                                "name": "",
                                "type": "bool",
                                "value": true
                            }
                        ],
                        "signature": "isValidator(address)"
                    },
                    "errorInfo": "",
                    "fromAddress": "0x2fa878ab3f87cc1c9737fc071108f904c0b0c95d",
                    "gasUsed": 3721,
                    "id": 12,
                    "methodDecoded": true,
                    "operation": "DELEGATECALL",
                    "output": "0x0000000000000000000000000000000000000000000000000000000000000001",
                    "revert": false,
                    "revertMessage": "",
                    "selector": "0xfacd743b",
                    "status": true,
                    "value": "0"
                },
                "nodeType": 0
            },
            "13": {
                "invocation": {
                    "address": "0x0000000000000000000000000000000000000001",
                    "callData": "0x0499f4e87ef9057e1ac0c99f89fe98740d0634f2364e91ea859751f1000000000000000000000000000000000000000000000000000000000000001b90773e58679a8188f11957d7b85a6ad83f9f90e88857204abbb816b1c713fde62c666845c73eebd4998fc549192538762f4a875af0b972b33aaed51221714938",
                    "decodedMethod": {
                        "callParams": [
                            {
                                "name": "hash",
                                "type": "bytes32",
                                "value": "0x8960444d0499f4e87ef9057e1ac0c99f89fe98740d0634f2364e91ea859751f1"
                            },
                            {
                                "name": "v",
                                "type": "uint256",
                                "value": "27"
                            },
                            {
                                "name": "r",
                                "type": "bytes32",
                                "value": "0x90773e58679a8188f11957d7b85a6ad83f9f90e88857204abbb816b1c713fde6"
                            },
                            {
                                "name": "s",
                                "type": "bytes32",
                                "value": "0x2c666845c73eebd4998fc549192538762f4a875af0b972b33aaed51221714938"
                            }
                        ],
                        "constructorArguments": "",
                        "name": "ecrecover",
                        "returnParams": [
                            {
                                "name": "",
                                "type": "address",
                                "value": "0x5ecfe77502317f3677f23c3b8ab17929ace3d74e"
                            }
                        ],
                        "signature": "ecrecover(bytes32,uint256,bytes32,bytes32)"
                    },
                    "errorInfo": "",
                    "fromAddress": "0xd0764fae29e0a6a96ff685f71cfc685456d5636c",
                    "gasUsed": 3000,
                    "id": 13,
                    "methodDecoded": true,
                    "operation": "CALL",
                    "output": "0x0000000000000000000000005ecfe77502317f3677f23c3b8ab17929ace3d74e",
                    "revert": false,
                    "revertMessage": "",
                    "selector": "0x8960444d",
                    "status": true,
                    "value": "0"
                },
                "nodeType": 0
            },
            "14": {
                "invocation": {
                    "address": "0x2fa878ab3f87cc1c9737fc071108f904c0b0c95d",
                    "callData": "0x0000000000000000000000005ecfe77502317f3677f23c3b8ab17929ace3d74e",
                    "decodedMethod": {
                        "callParams": [
                            {
                                "name": "_validator",
                                "type": "address",
                                "value": "0x5ecfe77502317f3677f23c3b8ab17929ace3d74e"
                            }
                        ],
                        "constructorArguments": "",
                        "name": "isValidator",
                        "returnParams": [
                            {
                                "name": "",
                                "type": "bool",
                                "value": true
                            }
                        ],
                        "signature": "isValidator(address)"
                    },
                    "errorInfo": "",
                    "fromAddress": "0xd0764fae29e0a6a96ff685f71cfc685456d5636c",
                    "gasUsed": 4427,
                    "id": 14,
                    "methodDecoded": true,
                    "operation": "CALL",
                    "output": "0x0000000000000000000000000000000000000000000000000000000000000001",
                    "revert": false,
                    "revertMessage": "",
                    "selector": "0xfacd743b",
                    "status": true,
                    "value": "0"
                },
                "nodeType": 0
            },
            "15": {
                "invocation": {
                    "address": "0x95b303987a60c71504d99aa1b13b4da07b0790ab",
                    "callData": "0x0000000000000000000000005ecfe77502317f3677f23c3b8ab17929ace3d74e",
                    "decodedMethod": {
                        "callParams": [
                            {
                                "name": "_validator",
                                "type": "address",
                                "value": "0x5ecfe77502317f3677f23c3b8ab17929ace3d74e"
                            }
                        ],
                        "constructorArguments": "",
                        "name": "isValidator",
                        "returnParams": [
                            {
                                "name": "",
                                "type": "bool",
                                "value": true
                            }
                        ],
                        "signature": "isValidator(address)"
                    },
                    "errorInfo": "",
                    "fromAddress": "0x2fa878ab3f87cc1c9737fc071108f904c0b0c95d",
                    "gasUsed": 3721,
                    "id": 15,
                    "methodDecoded": true,
                    "operation": "DELEGATECALL",
                    "output": "0x0000000000000000000000000000000000000000000000000000000000000001",
                    "revert": false,
                    "revertMessage": "",
                    "selector": "0xfacd743b",
                    "status": true,
                    "value": "0"
                },
                "nodeType": 0
            },
            "16": {
                "invocation": {
                    "address": "0x0000000000000000000000000000000000000001",
                    "callData": "0x0499f4e87ef9057e1ac0c99f89fe98740d0634f2364e91ea859751f1000000000000000000000000000000000000000000000000000000000000001cf50954c10dc6ad98e8df76745a5f06df0e327abff44b7145253e4310c169ce7453f80125124f63f40df7c3b9392d5404a72cbd969bc063c1cee28c4622da0759",
                    "decodedMethod": {
                        "callParams": [
                            {
                                "name": "hash",
                                "type": "bytes32",
                                "value": "0x8960444d0499f4e87ef9057e1ac0c99f89fe98740d0634f2364e91ea859751f1"
                            },
                            {
                                "name": "v",
                                "type": "uint256",
                                "value": "28"
                            },
                            {
                                "name": "r",
                                "type": "bytes32",
                                "value": "0xf50954c10dc6ad98e8df76745a5f06df0e327abff44b7145253e4310c169ce74"
                            },
                            {
                                "name": "s",
                                "type": "bytes32",
                                "value": "0x53f80125124f63f40df7c3b9392d5404a72cbd969bc063c1cee28c4622da0759"
                            }
                        ],
                        "constructorArguments": "",
                        "name": "ecrecover",
                        "returnParams": [
                            {
                                "name": "",
                                "type": "address",
                                "value": "0xd4aa3dfe78d2b77c5a5618b9e85d1141f2b48fbd"
                            }
                        ],
                        "signature": "ecrecover(bytes32,uint256,bytes32,bytes32)"
                    },
                    "errorInfo": "",
                    "fromAddress": "0xd0764fae29e0a6a96ff685f71cfc685456d5636c",
                    "gasUsed": 3000,
                    "id": 16,
                    "methodDecoded": true,
                    "operation": "CALL",
                    "output": "0x000000000000000000000000d4aa3dfe78d2b77c5a5618b9e85d1141f2b48fbd",
                    "revert": false,
                    "revertMessage": "",
                    "selector": "0x8960444d",
                    "status": true,
                    "value": "0"
                },
                "nodeType": 0
            },
            "17": {
                "invocation": {
                    "address": "0x2fa878ab3f87cc1c9737fc071108f904c0b0c95d",
                    "callData": "0x000000000000000000000000d4aa3dfe78d2b77c5a5618b9e85d1141f2b48fbd",
                    "decodedMethod": {
                        "callParams": [
                            {
                                "name": "_validator",
                                "type": "address",
                                "value": "0xd4aa3dfe78d2b77c5a5618b9e85d1141f2b48fbd"
                            }
                        ],
                        "constructorArguments": "",
                        "name": "isValidator",
                        "returnParams": [
                            {
                                "name": "",
                                "type": "bool",
                                "value": true
                            }
                        ],
                        "signature": "isValidator(address)"
                    },
                    "errorInfo": "",
                    "fromAddress": "0xd0764fae29e0a6a96ff685f71cfc685456d5636c",
                    "gasUsed": 4427,
                    "id": 17,
                    "methodDecoded": true,
                    "operation": "CALL",
                    "output": "0x0000000000000000000000000000000000000000000000000000000000000001",
                    "revert": false,
                    "revertMessage": "",
                    "selector": "0xfacd743b",
                    "status": true,
                    "value": "0"
                },
                "nodeType": 0
            },
            "18": {
                "invocation": {
                    "address": "0x95b303987a60c71504d99aa1b13b4da07b0790ab",
                    "callData": "0x000000000000000000000000d4aa3dfe78d2b77c5a5618b9e85d1141f2b48fbd",
                    "decodedMethod": {
                        "callParams": [
                            {
                                "name": "_validator",
                                "type": "address",
                                "value": "0xd4aa3dfe78d2b77c5a5618b9e85d1141f2b48fbd"
                            }
                        ],
                        "constructorArguments": "",
                        "name": "isValidator",
                        "returnParams": [
                            {
                                "name": "",
                                "type": "bool",
                                "value": true
                            }
                        ],
                        "signature": "isValidator(address)"
                    },
                    "errorInfo": "",
                    "fromAddress": "0x2fa878ab3f87cc1c9737fc071108f904c0b0c95d",
                    "gasUsed": 3721,
                    "id": 18,
                    "methodDecoded": true,
                    "operation": "DELEGATECALL",
                    "output": "0x0000000000000000000000000000000000000000000000000000000000000001",
                    "revert": false,
                    "revertMessage": "",
                    "selector": "0xfacd743b",
                    "status": true,
                    "value": "0"
                },
                "nodeType": 0
            },
            "19": {
                "invocation": {
                    "address": "0x1715a3e4a142d8b698131108995174f37aeba10d",
                    "callData": "0x000000000000000000000000c02aaa39b223fe8d0a0e5c4f27ead9083c756cc20000000000000000000000008ac4ae65b3656e26dc4e0e69108b392283350f5500000000000000000000000000000000000000000000000013fbe85edc90000000000000000000000000000000000000000000000000000000000000000000800000000000000000000000000000000000000000000000000000000000000014ae9f69bf21b293589c2cef13984ea88e612abd5000000000000000000000000000000000000000000000000000000000000000000000000000000000",
                    "decodedMethod": {
                        "callParams": [
                            {
                                "name": "_token",
                                "type": "address",
                                "value": "0xc02aaa39b223fe8d0a0e5c4f27ead9083c756cc2"
                            },
                            {
                                "name": "_recipient",
                                "type": "address",
                                "value": "0x8ac4ae65b3656e26dc4e0e69108b392283350f55"
                            },
                            {
                                "name": "_value",
                                "type": "uint256",
                                "value": "1,440,000,000,000,000,000"
                            },
                            {
                                "name": "_data",
                                "type": "bytes",
                                "value": "0xae9f69bf21b293589c2cef13984ea88e612abd50"
                            }
                        ],
                        "constructorArguments": "",
                        "name": "handleNativeTokensAndCall",
                        "returnParams": [],
                        "signature": "handleNativeTokensAndCall(address,address,uint256,bytes)"
                    },
                    "errorInfo": "",
                    "fromAddress": "0xd0764fae29e0a6a96ff685f71cfc685456d5636c",
                    "gasUsed": 81442,
                    "id": 19,
                    "methodDecoded": true,
                    "operation": "CALL",
                    "output": "",
                    "revert": false,
                    "revertMessage": "",
                    "selector": "0x867f7a4d",
                    "status": true,
                    "value": "0"
                },
                "nodeType": 0
            },
            "2": {
                "invocation": {
                    "address": "0x2fa878ab3f87cc1c9737fc071108f904c0b0c95d",
                    "callData": "0x",
                    "decodedMethod": {
                        "callParams": [],
                        "constructorArguments": "",
                        "name": "requiredSignatures",
                        "returnParams": [
                            {
                                "name": "",
                                "type": "uint256",
                                "value": "5"
                            }
                        ],
                        "signature": "requiredSignatures()"
                    },
                    "errorInfo": "",
                    "fromAddress": "0xd0764fae29e0a6a96ff685f71cfc685456d5636c",
                    "gasUsed": 7681,
                    "id": 2,
                    "methodDecoded": true,
                    "operation": "CALL",
                    "output": "0x0000000000000000000000000000000000000000000000000000000000000005",
                    "revert": false,
                    "revertMessage": "",
                    "selector": "0x8d068043",
                    "status": true,
                    "value": "0"
                },
                "nodeType": 0
            },
            "20": {
                "invocation": {
                    "address": "0xb7df1e00ae030e966e635ede273625240546b873",
                    "callData": "0x000000000000000000000000c02aaa39b223fe8d0a0e5c4f27ead9083c756cc20000000000000000000000008ac4ae65b3656e26dc4e0e69108b392283350f5500000000000000000000000000000000000000000000000013fbe85edc90000000000000000000000000000000000000000000000000000000000000000000800000000000000000000000000000000000000000000000000000000000000014ae9f69bf21b293589c2cef13984ea88e612abd5000000000000000000000000000000000000000000000000000000000000000000000000000000000",
                    "decodedMethod": {
                        "callParams": [
                            {
                                "name": "_token",
                                "type": "address",
                                "value": "0xc02aaa39b223fe8d0a0e5c4f27ead9083c756cc2"
                            },
                            {
                                "name": "_recipient",
                                "type": "address",
                                "value": "0x8ac4ae65b3656e26dc4e0e69108b392283350f55"
                            },
                            {
                                "name": "_value",
                                "type": "uint256",
                                "value": "1,440,000,000,000,000,000"
                            },
                            {
                                "name": "_data",
                                "type": "bytes",
                                "value": "0xae9f69bf21b293589c2cef13984ea88e612abd50"
                            }
                        ],
                        "constructorArguments": "",
                        "name": "handleNativeTokensAndCall",
                        "returnParams": [],
                        "signature": "handleNativeTokensAndCall(address,address,uint256,bytes)"
                    },
                    "errorInfo": "",
                    "fromAddress": "0x1715a3e4a142d8b698131108995174f37aeba10d",
                    "gasUsed": 76302,
                    "id": 20,
                    "methodDecoded": true,
                    "operation": "DELEGATECALL",
                    "output": "",
                    "revert": false,
                    "revertMessage": "",
                    "selector": "0x867f7a4d",
                    "status": true,
                    "value": "0"
                },
                "nodeType": 0
            },
            "21": {
                "invocation": {
                    "address": "0xd0764fae29e0a6a96ff685f71cfc685456d5636c",
                    "callData": "0x",
                    "decodedMethod": {
                        "callParams": [],
                        "constructorArguments": "",
                        "name": "messageSender",
                        "returnParams": [
                            {
                                "name": "sender",
                                "type": "address",
                                "value": "0x4fd0aaa7506f3d9cb8274bdb946ec42a1b8751ef"
                            }
                        ],
                        "signature": "messageSender()"
                    },
                    "errorInfo": "",
                    "fromAddress": "0x1715a3e4a142d8b698131108995174f37aeba10d",
                    "gasUsed": 1719,
                    "id": 21,
                    "methodDecoded": true,
                    "operation": "STATICCALL",
                    "output": "0x0000000000000000000000004fd0aaa7506f3d9cb8274bdb946ec42a1b8751ef",
                    "revert": false,
                    "revertMessage": "",
                    "selector": "0xd67bdd25",
                    "status": true,
                    "value": "0"
                },
                "nodeType": 0
            },
            "22": {
                "invocation": {
                    "address": "0xe98699957d3504acd57fff861e4b77b57eb02467",
                    "callData": "0x",
                    "decodedMethod": {
                        "callParams": [],
                        "constructorArguments": "",
                        "name": "messageSender",
                        "returnParams": [
                            {
                                "name": "sender",
                                "type": "address",
                                "value": "0x4fd0aaa7506f3d9cb8274bdb946ec42a1b8751ef"
                            }
                        ],
                        "signature": "messageSender()"
                    },
                    "errorInfo": "",
                    "fromAddress": "0xd0764fae29e0a6a96ff685f71cfc685456d5636c",
                    "gasUsed": 1019,
                    "id": 22,
                    "methodDecoded": true,
                    "operation": "DELEGATECALL",
                    "output": "0x0000000000000000000000004fd0aaa7506f3d9cb8274bdb946ec42a1b8751ef",
                    "revert": false,
                    "revertMessage": "",
                    "selector": "0xd67bdd25",
                    "status": true,
                    "value": "0"
                },
                "nodeType": 0
            },
            "23": {
                "invocation": {
                    "address": "0xc02aaa39b223fe8d0a0e5c4f27ead9083c756cc2",
                    "callData": "0x0000000000000000000000008ac4ae65b3656e26dc4e0e69108b392283350f5500000000000000000000000000000000000000000000000013fbe85edc900000",
                    "decodedMethod": {
                        "callParams": [
                            {
                                "name": "dst",
                                "type": "address",
                                "value": "0x8ac4ae65b3656e26dc4e0e69108b392283350f55"
                            },
                            {
                                "decimalAvailable": true,
                                "name": "wad",
                                "type": "uint256",
                                "value": "1,440,000,000,000,000,000"
                            }
                        ],
                        "constructorArguments": "",
                        "name": "transfer",
                        "returnParams": [
                            {
                                "name": "",
                                "type": "bool",
                                "value": true
                            }
                        ],
                        "signature": "transfer(address,uint256)"
                    },
                    "errorInfo": "",
                    "fromAddress": "0x1715a3e4a142d8b698131108995174f37aeba10d",
                    "gasUsed": 12862,
                    "id": 23,
                    "methodDecoded": true,
                    "operation": "CALL",
                    "output": "0x0000000000000000000000000000000000000000000000000000000000000001",
                    "revert": false,
                    "revertMessage": "",
                    "selector": "0xa9059cbb",
                    "status": true,
                    "value": "0"
                },
                "nodeType": 0
            },
            "24": {
                "event": {
                    "contract": "0xc02aaa39b223fe8d0a0e5c4f27ead9083c756cc2",
                    "decodedLog": {
                        "name": "Transfer",
                        "params": [
                            {
                                "name": "src",
                                "type": "address",
                                "value": "0x1715a3e4a142d8b698131108995174f37aeba10d"
                            },
                            {
                                "name": "dst",
                                "type": "address",
                                "value": "0x8ac4ae65b3656e26dc4e0e69108b392283350f55"
                            },
                            {
                                "decimalAvailable": true,
                                "name": "wad",
                                "type": "uint256",
                                "value": "1,440,000,000,000,000,000"
                            }
                        ],
                        "signature": "Transfer(address,address,uint256)"
                    },
                    "id": 24,
                    "logData": "0x00000000000000000000000000000000000000000000000013fbe85edc900000",
                    "logDecoded": true,
                    "operation": "EVENT",
                    "revert": false,
                    "status": true,
                    "topics": [
                        "0xddf252ad1be2c89b69c2b068fc378daa952ba7f163c4a11628f55a4df523b3ef",
                        "0x0000000000000000000000001715a3e4a142d8b698131108995174f37aeba10d",
                        "0x0000000000000000000000008ac4ae65b3656e26dc4e0e69108b392283350f55"
                    ]
                },
                "nodeType": 1
            },
            "25": {
                "invocation": {
                    "address": "0xd0764fae29e0a6a96ff685f71cfc685456d5636c",
                    "callData": "0x",
                    "decodedMethod": {
                        "callParams": [],
                        "constructorArguments": "",
                        "name": "messageId",
                        "returnParams": [
                            {
                                "name": "id",
                                "type": "bytes32",
                                "value": "0x00050000eb21bb7b72d1042c471c6a52c971da8152d66d7a000000000001c41a"
                            }
                        ],
                        "signature": "messageId()"
                    },
                    "errorInfo": "",
                    "fromAddress": "0x1715a3e4a142d8b698131108995174f37aeba10d",
                    "gasUsed": 1333,
                    "id": 25,
                    "methodDecoded": true,
                    "operation": "STATICCALL",
                    "output": "0x00050000eb21bb7b72d1042c471c6a52c971da8152d66d7a000000000001c41a",
                    "revert": false,
                    "revertMessage": "",
                    "selector": "0x669f618b",
                    "status": true,
                    "value": "0"
                },
                "nodeType": 0
            },
            "26": {
                "invocation": {
                    "address": "0xe98699957d3504acd57fff861e4b77b57eb02467",
                    "callData": "0x",
                    "decodedMethod": {
                        "callParams": [],
                        "constructorArguments": "",
                        "name": "messageId",
                        "returnParams": [
                            {
                                "name": "id",
                                "type": "bytes32",
                                "value": "0x00050000eb21bb7b72d1042c471c6a52c971da8152d66d7a000000000001c41a"
                            }
                        ],
                        "signature": "messageId()"
                    },
                    "errorInfo": "",
                    "fromAddress": "0xd0764fae29e0a6a96ff685f71cfc685456d5636c",
                    "gasUsed": 633,
                    "id": 26,
                    "methodDecoded": true,
                    "operation": "DELEGATECALL",
                    "output": "0x00050000eb21bb7b72d1042c471c6a52c971da8152d66d7a000000000001c41a",
                    "revert": false,
                    "revertMessage": "",
                    "selector": "0x669f618b",
                    "status": true,
                    "value": "0"
                },
                "nodeType": 0
            },
            "27": {
                "event": {
                    "contract": "0x1715a3e4a142d8b698131108995174f37aeba10d",
                    "decodedLog": {
                        "name": "TokensBridged",
                        "params": [
                            {
                                "name": "token",
                                "type": "address",
                                "value": "0xc02aaa39b223fe8d0a0e5c4f27ead9083c756cc2"
                            },
                            {
                                "name": "recipient",
                                "type": "address",
                                "value": "0x8ac4ae65b3656e26dc4e0e69108b392283350f55"
                            },
                            {
                                "name": "messageId",
                                "type": "bytes32",
                                "value": "0x00050000eb21bb7b72d1042c471c6a52c971da8152d66d7a000000000001c41a"
                            },
                            {
                                "name": "value",
                                "type": "uint256",
                                "value": "1,440,000,000,000,000,000"
                            }
                        ],
                        "signature": "TokensBridged(address,address,uint256,bytes32)"
                    },
                    "id": 27,
                    "logData": "0x00000000000000000000000000000000000000000000000013fbe85edc900000",
                    "logDecoded": true,
                    "operation": "EVENT",
                    "revert": false,
                    "status": true,
                    "topics": [
                        "0x9afd47907e25028cdaca89d193518c302bbb128617d5a992c5abd45815526593",
                        "0x000000000000000000000000c02aaa39b223fe8d0a0e5c4f27ead9083c756cc2",
                        "0x0000000000000000000000008ac4ae65b3656e26dc4e0e69108b392283350f55",
                        "0x00050000eb21bb7b72d1042c471c6a52c971da8152d66d7a000000000001c41a"
                    ]
                },
                "nodeType": 1
            },
            "28": {
                "invocation": {
                    "address": "0x8ac4ae65b3656e26dc4e0e69108b392283350f55",
                    "callData": "0x000000000000000000000000c02aaa39b223fe8d0a0e5c4f27ead9083c756cc200000000000000000000000000000000000000000000000013fbe85edc90000000000000000000000000000000000000000000000000000000000000000000600000000000000000000000000000000000000000000000000000000000000014ae9f69bf21b293589c2cef13984ea88e612abd50000000000000000000000000",
                    "decodedMethod": {
                        "callParams": [
                            {
                                "name": "_token",
                                "type": "address",
                                "value": "0xc02aaa39b223fe8d0a0e5c4f27ead9083c756cc2"
                            },
                            {
                                "name": "_value",
                                "type": "uint256",
                                "value": "1,440,000,000,000,000,000"
                            },
                            {
                                "name": "_data",
                                "type": "bytes",
                                "value": "0xae9f69bf21b293589c2cef13984ea88e612abd50"
                            }
                        ],
                        "constructorArguments": "",
                        "name": "onTokenBridged",
                        "returnParams": [],
                        "signature": "onTokenBridged(address,uint256,bytes)"
                    },
                    "errorInfo": "",
                    "fromAddress": "0x1715a3e4a142d8b698131108995174f37aeba10d",
                    "gasUsed": 17269,
                    "id": 28,
                    "methodDecoded": true,
                    "operation": "CALL",
                    "output": "",
                    "revert": false,
                    "revertMessage": "",
                    "selector": "0xdb7af854",
                    "status": true,
                    "value": "0"
                },
                "nodeType": 0
            },
            "29": {
                "invocation": {
                    "address": "0xc02aaa39b223fe8d0a0e5c4f27ead9083c756cc2",
                    "callData": "0x00000000000000000000000000000000000000000000000013fbe85edc900000",
                    "decodedMethod": {
                        "callParams": [
                            {
                                "name": "wad",
                                "type": "uint256",
                                "value": "1,440,000,000,000,000,000"
                            }
                        ],
                        "constructorArguments": "",
                        "name": "withdraw",
                        "returnParams": [],
                        "signature": "withdraw(uint256)"
                    },
                    "errorInfo": "",
                    "fromAddress": "0x8ac4ae65b3656e26dc4e0e69108b392283350f55",
                    "gasUsed": 9235,
                    "id": 29,
                    "methodDecoded": true,
                    "operation": "CALL",
                    "output": "",
                    "revert": false,
                    "revertMessage": "",
                    "selector": "0x2e1a7d4d",
                    "status": true,
                    "value": "0"
                },
                "nodeType": 0
            },
            "3": {
                "invocation": {
                    "address": "0x95b303987a60c71504d99aa1b13b4da07b0790ab",
                    "callData": "0x",
                    "decodedMethod": {
                        "callParams": [],
                        "constructorArguments": "",
                        "name": "requiredSignatures",
                        "returnParams": [
                            {
                                "name": "",
                                "type": "uint256",
                                "value": "5"
                            }
                        ],
                        "signature": "requiredSignatures()"
                    },
                    "errorInfo": "",
                    "fromAddress": "0x2fa878ab3f87cc1c9737fc071108f904c0b0c95d",
                    "gasUsed": 2481,
                    "id": 3,
                    "methodDecoded": true,
                    "operation": "DELEGATECALL",
                    "output": "0x0000000000000000000000000000000000000000000000000000000000000005",
                    "revert": false,
                    "revertMessage": "",
                    "selector": "0x8d068043",
                    "status": true,
                    "value": "0"
                },
                "nodeType": 0
            },
            "30": {
                "invocation": {
                    "address": "0x8ac4ae65b3656e26dc4e0e69108b392283350f55",
                    "callData": "0x",
                    "decodedMethod": null,
                    "errorInfo": "",
                    "fromAddress": "0xc02aaa39b223fe8d0a0e5c4f27ead9083c756cc2",
                    "gasUsed": 95,
                    "id": 30,
                    "methodDecoded": false,
                    "operation": "CALL",
                    "output": "",
                    "revert": false,
                    "revertMessage": "",
                    "selector": "fallback",
                    "status": true,
                    "value": "1.44"
                },
                "nodeType": 0
            },
            "31": {
                "event": {
                    "contract": "0xc02aaa39b223fe8d0a0e5c4f27ead9083c756cc2",
                    "decodedLog": {
                        "name": "Withdrawal",
                        "params": [
                            {
                                "name": "src",
                                "type": "address",
                                "value": "0x8ac4ae65b3656e26dc4e0e69108b392283350f55"
                            },
                            {
                                "name": "wad",
                                "type": "uint256",
                                "value": "1,440,000,000,000,000,000"
                            }
                        ],
                        "signature": "Withdrawal(address,uint256)"
                    },
                    "id": 31,
                    "logData": "0x00000000000000000000000000000000000000000000000013fbe85edc900000",
                    "logDecoded": true,
                    "operation": "EVENT",
                    "revert": false,
                    "status": true,
                    "topics": [
                        "0x7fcf532c15f0a6db0bd6d0e038bea71d30d808c7d98cb3bf7268a95bf5081b65",
                        "0x0000000000000000000000008ac4ae65b3656e26dc4e0e69108b392283350f55"
                    ]
                },
                "nodeType": 1
            },
            "32": {
                "invocation": {
                    "address": "0xae9f69bf21b293589c2cef13984ea88e612abd50",
                    "callData": "0x",
                    "decodedMethod": null,
                    "errorInfo": "",
                    "fromAddress": "0x8ac4ae65b3656e26dc4e0e69108b392283350f55",
                    "gasUsed": 0,
                    "id": 32,
                    "methodDecoded": false,
                    "operation": "CALL",
                    "output": "",
                    "revert": false,
                    "revertMessage": "",
                    "selector": "fallback",
                    "status": true,
                    "value": "1.44"
                },
                "nodeType": 0
            },
            "33": {
                "event": {
                    "contract": "0xd0764fae29e0a6a96ff685f71cfc685456d5636c",
                    "decodedLog": {
                        "name": "RelayedMessage",
                        "params": [
                            {
                                "name": "sender",
                                "type": "address",
                                "value": "0x4fd0aaa7506f3d9cb8274bdb946ec42a1b8751ef"
                            },
                            {
                                "name": "executor",
                                "type": "address",
                                "value": "0x1715a3e4a142d8b698131108995174f37aeba10d"
                            },
                            {
                                "name": "messageId",
                                "type": "bytes32",
                                "value": "0x00050000eb21bb7b72d1042c471c6a52c971da8152d66d7a000000000001c41a"
                            },
                            {
                                "name": "status",
                                "type": "bool",
                                "value": true
                            }
                        ],
                        "signature": "RelayedMessage(address,address,bytes32,bool)"
                    },
                    "id": 33,
                    "logData": "0x0000000000000000000000000000000000000000000000000000000000000001",
                    "logDecoded": true,
                    "operation": "EVENT",
                    "revert": false,
                    "status": true,
                    "topics": [
                        "0x27333edb8bdcd40a0ae944fb121b5e2d62ea782683946654a0f5e607a908d578",
                        "0x0000000000000000000000004fd0aaa7506f3d9cb8274bdb946ec42a1b8751ef",
                        "0x0000000000000000000000001715a3e4a142d8b698131108995174f37aeba10d",
                        "0x00050000eb21bb7b72d1042c471c6a52c971da8152d66d7a000000000001c41a"
                    ]
                },
                "nodeType": 1
            },
            "4": {
                "invocation": {
                    "address": "0x0000000000000000000000000000000000000001",
                    "callData": "0x0499f4e87ef9057e1ac0c99f89fe98740d0634f2364e91ea859751f1000000000000000000000000000000000000000000000000000000000000001cc84e78d09c8e16021e6e249ac4a802db7a9fd87d2def0b6460d5d65e2dd0d074491d9629c7b7e6a15a32a631b85fb97dc4223dc8c3ce423dea2937ed442ec281",
                    "decodedMethod": {
                        "callParams": [
                            {
                                "name": "hash",
                                "type": "bytes32",
                                "value": "0x8960444d0499f4e87ef9057e1ac0c99f89fe98740d0634f2364e91ea859751f1"
                            },
                            {
                                "name": "v",
                                "type": "uint256",
                                "value": "28"
                            },
                            {
                                "name": "r",
                                "type": "bytes32",
                                "value": "0xc84e78d09c8e16021e6e249ac4a802db7a9fd87d2def0b6460d5d65e2dd0d074"
                            },
                            {
                                "name": "s",
                                "type": "bytes32",
                                "value": "0x491d9629c7b7e6a15a32a631b85fb97dc4223dc8c3ce423dea2937ed442ec281"
                            }
                        ],
                        "constructorArguments": "",
                        "name": "ecrecover",
                        "returnParams": [
                            {
                                "name": "",
                                "type": "address",
                                "value": "0x1dad947dd181faa6c751ec14e2683e0a8fe2bf8c"
                            }
                        ],
                        "signature": "ecrecover(bytes32,uint256,bytes32,bytes32)"
                    },
                    "errorInfo": "",
                    "fromAddress": "0xd0764fae29e0a6a96ff685f71cfc685456d5636c",
                    "gasUsed": 3000,
                    "id": 4,
                    "methodDecoded": true,
                    "operation": "CALL",
                    "output": "0x0000000000000000000000001dad947dd181faa6c751ec14e2683e0a8fe2bf8c",
                    "revert": false,
                    "revertMessage": "",
                    "selector": "0x8960444d",
                    "status": true,
                    "value": "0"
                },
                "nodeType": 0
            },
            "5": {
                "invocation": {
                    "address": "0x2fa878ab3f87cc1c9737fc071108f904c0b0c95d",
                    "callData": "0x0000000000000000000000001dad947dd181faa6c751ec14e2683e0a8fe2bf8c",
                    "decodedMethod": {
                        "callParams": [
                            {
                                "name": "_validator",
                                "type": "address",
                                "value": "0x1dad947dd181faa6c751ec14e2683e0a8fe2bf8c"
                            }
                        ],
                        "constructorArguments": "",
                        "name": "isValidator",
                        "returnParams": [
                            {
                                "name": "",
                                "type": "bool",
                                "value": true
                            }
                        ],
                        "signature": "isValidator(address)"
                    },
                    "errorInfo": "",
                    "fromAddress": "0xd0764fae29e0a6a96ff685f71cfc685456d5636c",
                    "gasUsed": 4427,
                    "id": 5,
                    "methodDecoded": true,
                    "operation": "CALL",
                    "output": "0x0000000000000000000000000000000000000000000000000000000000000001",
                    "revert": false,
                    "revertMessage": "",
                    "selector": "0xfacd743b",
                    "status": true,
                    "value": "0"
                },
                "nodeType": 0
            },
            "6": {
                "invocation": {
                    "address": "0x95b303987a60c71504d99aa1b13b4da07b0790ab",
                    "callData": "0x0000000000000000000000001dad947dd181faa6c751ec14e2683e0a8fe2bf8c",
                    "decodedMethod": {
                        "callParams": [
                            {
                                "name": "_validator",
                                "type": "address",
                                "value": "0x1dad947dd181faa6c751ec14e2683e0a8fe2bf8c"
                            }
                        ],
                        "constructorArguments": "",
                        "name": "isValidator",
                        "returnParams": [
                            {
                                "name": "",
                                "type": "bool",
                                "value": true
                            }
                        ],
                        "signature": "isValidator(address)"
                    },
                    "errorInfo": "",
                    "fromAddress": "0x2fa878ab3f87cc1c9737fc071108f904c0b0c95d",
                    "gasUsed": 3721,
                    "id": 6,
                    "methodDecoded": true,
                    "operation": "DELEGATECALL",
                    "output": "0x0000000000000000000000000000000000000000000000000000000000000001",
                    "revert": false,
                    "revertMessage": "",
                    "selector": "0xfacd743b",
                    "status": true,
                    "value": "0"
                },
                "nodeType": 0
            },
            "7": {
                "invocation": {
                    "address": "0x0000000000000000000000000000000000000001",
                    "callData": "0x0499f4e87ef9057e1ac0c99f89fe98740d0634f2364e91ea859751f1000000000000000000000000000000000000000000000000000000000000001c84ef2b735d4d40e1040a7724d7b4bde4a24427434b1ac463e81a9cfa6ce205f81598352111d9a5288c42ed7b5a0574051329e7cbf09ba828a026ecaf0218c05f",
                    "decodedMethod": {
                        "callParams": [
                            {
                                "name": "hash",
                                "type": "bytes32",
                                "value": "0x8960444d0499f4e87ef9057e1ac0c99f89fe98740d0634f2364e91ea859751f1"
                            },
                            {
                                "name": "v",
                                "type": "uint256",
                                "value": "28"
                            },
                            {
                                "name": "r",
                                "type": "bytes32",
                                "value": "0x84ef2b735d4d40e1040a7724d7b4bde4a24427434b1ac463e81a9cfa6ce205f8"
                            },
                            {
                                "name": "s",
                                "type": "bytes32",
                                "value": "0x1598352111d9a5288c42ed7b5a0574051329e7cbf09ba828a026ecaf0218c05f"
                            }
                        ],
                        "constructorArguments": "",
                        "name": "ecrecover",
                        "returnParams": [
                            {
                                "name": "",
                                "type": "address",
                                "value": "0xe158313e347ed8d52e9fbff7ae5000aeabddbeda"
                            }
                        ],
                        "signature": "ecrecover(bytes32,uint256,bytes32,bytes32)"
                    },
                    "errorInfo": "",
                    "fromAddress": "0xd0764fae29e0a6a96ff685f71cfc685456d5636c",
                    "gasUsed": 3000,
                    "id": 7,
                    "methodDecoded": true,
                    "operation": "CALL",
                    "output": "0x000000000000000000000000e158313e347ed8d52e9fbff7ae5000aeabddbeda",
                    "revert": false,
                    "revertMessage": "",
                    "selector": "0x8960444d",
                    "status": true,
                    "value": "0"
                },
                "nodeType": 0
            },
            "8": {
                "invocation": {
                    "address": "0x2fa878ab3f87cc1c9737fc071108f904c0b0c95d",
                    "callData": "0x000000000000000000000000e158313e347ed8d52e9fbff7ae5000aeabddbeda",
                    "decodedMethod": {
                        "callParams": [
                            {
                                "name": "_validator",
                                "type": "address",
                                "value": "0xe158313e347ed8d52e9fbff7ae5000aeabddbeda"
                            }
                        ],
                        "constructorArguments": "",
                        "name": "isValidator",
                        "returnParams": [
                            {
                                "name": "",
                                "type": "bool",
                                "value": true
                            }
                        ],
                        "signature": "isValidator(address)"
                    },
                    "errorInfo": "",
                    "fromAddress": "0xd0764fae29e0a6a96ff685f71cfc685456d5636c",
                    "gasUsed": 4427,
                    "id": 8,
                    "methodDecoded": true,
                    "operation": "CALL",
                    "output": "0x0000000000000000000000000000000000000000000000000000000000000001",
                    "revert": false,
                    "revertMessage": "",
                    "selector": "0xfacd743b",
                    "status": true,
                    "value": "0"
                },
                "nodeType": 0
            },
            "9": {
                "invocation": {
                    "address": "0x95b303987a60c71504d99aa1b13b4da07b0790ab",
                    "callData": "0x000000000000000000000000e158313e347ed8d52e9fbff7ae5000aeabddbeda",
                    "decodedMethod": {
                        "callParams": [
                            {
                                "name": "_validator",
                                "type": "address",
                                "value": "0xe158313e347ed8d52e9fbff7ae5000aeabddbeda"
                            }
                        ],
                        "constructorArguments": "",
                        "name": "isValidator",
                        "returnParams": [
                            {
                                "name": "",
                                "type": "bool",
                                "value": true
                            }
                        ],
                        "signature": "isValidator(address)"
                    },
                    "errorInfo": "",
                    "fromAddress": "0x2fa878ab3f87cc1c9737fc071108f904c0b0c95d",
                    "gasUsed": 3721,
                    "id": 9,
                    "methodDecoded": true,
                    "operation": "DELEGATECALL",
                    "output": "0x0000000000000000000000000000000000000000000000000000000000000001",
                    "revert": false,
                    "revertMessage": "",
                    "selector": "0xfacd743b",
                    "status": true,
                    "value": "0"
                },
                "nodeType": 0
            }
        },
        "gasFlame": [
            {
                "children": [
                    {
                        "children": [
                            {
                                "children": [],
                                "depth": 0,
                                "name": "Initial Gas",
                                "value": 29860
                            },
                            {
                                "children": [
                                    {
                                        "children": [
                                            {
                                                "children": [
                                                    {
                                                        "children": [],
                                                        "depth": 3,
                                                        "name": "requiredSignatures",
                                                        "value": 2481
                                                    }
                                                ],
                                                "depth": 2,
                                                "name": "requiredSignatures",
                                                "value": 7681
                                            },
                                            {
                                                "children": [],
                                                "depth": 2,
                                                "name": "ecrecover",
                                                "value": 3000
                                            },
                                            {
                                                "children": [
                                                    {
                                                        "children": [],
                                                        "depth": 3,
                                                        "name": "isValidator",
                                                        "value": 3721
                                                    }
                                                ],
                                                "depth": 2,
                                                "name": "isValidator",
                                                "value": 4427
                                            },
                                            {
                                                "children": [],
                                                "depth": 2,
                                                "name": "ecrecover",
                                                "value": 3000
                                            },
                                            {
                                                "children": [
                                                    {
                                                        "children": [],
                                                        "depth": 3,
                                                        "name": "isValidator",
                                                        "value": 3721
                                                    }
                                                ],
                                                "depth": 2,
                                                "name": "isValidator",
                                                "value": 4427
                                            },
                                            {
                                                "children": [],
                                                "depth": 2,
                                                "name": "ecrecover",
                                                "value": 3000
                                            },
                                            {
                                                "children": [
                                                    {
                                                        "children": [],
                                                        "depth": 3,
                                                        "name": "isValidator",
                                                        "value": 3721
                                                    }
                                                ],
                                                "depth": 2,
                                                "name": "isValidator",
                                                "value": 4427
                                            },
                                            {
                                                "children": [],
                                                "depth": 2,
                                                "name": "ecrecover",
                                                "value": 3000
                                            },
                                            {
                                                "children": [
                                                    {
                                                        "children": [],
                                                        "depth": 3,
                                                        "name": "isValidator",
                                                        "value": 3721
                                                    }
                                                ],
                                                "depth": 2,
                                                "name": "isValidator",
                                                "value": 4427
                                            },
                                            {
                                                "children": [],
                                                "depth": 2,
                                                "name": "ecrecover",
                                                "value": 3000
                                            },
                                            {
                                                "children": [
                                                    {
                                                        "children": [],
                                                        "depth": 3,
                                                        "name": "isValidator",
                                                        "value": 3721
                                                    }
                                                ],
                                                "depth": 2,
                                                "name": "isValidator",
                                                "value": 4427
                                            },
                                            {
                                                "children": [
                                                    {
                                                        "children": [
                                                            {
                                                                "children": [
                                                                    {
                                                                        "children": [],
                                                                        "depth": 5,
                                                                        "name": "messageSender",
                                                                        "value": 1019
                                                                    }
                                                                ],
                                                                "depth": 4,
                                                                "name": "messageSender",
                                                                "value": 1719
                                                            },
                                                            {
                                                                "children": [],
                                                                "depth": 4,
                                                                "name": "transfer",
                                                                "value": 12862
                                                            },
                                                            {
                                                                "children": [
                                                                    {
                                                                        "children": [],
                                                                        "depth": 5,
                                                                        "name": "messageId",
                                                                        "value": 633
                                                                    }
                                                                ],
                                                                "depth": 4,
                                                                "name": "messageId",
                                                                "value": 1333
                                                            },
                                                            {
                                                                "children": [
                                                                    {
                                                                        "children": [
                                                                            {
                                                                                "children": [],
                                                                                "depth": 6,
                                                                                "name": "fallback",
                                                                                "value": 95
                                                                            }
                                                                        ],
                                                                        "depth": 5,
                                                                        "name": "withdraw",
                                                                        "value": 9235
                                                                    },
                                                                    {
                                                                        "children": [],
                                                                        "depth": 5,
                                                                        "name": "fallback",
                                                                        "value": 0
                                                                    }
                                                                ],
                                                                "depth": 4,
                                                                "name": "onTokenBridged",
                                                                "value": 17269
                                                            }
                                                        ],
                                                        "depth": 3,
                                                        "name": "handleNativeTokensAndCall",
                                                        "value": 76302
                                                    }
                                                ],
                                                "depth": 2,
                                                "name": "handleNativeTokensAndCall",
                                                "value": 81442
                                            }
                                        ],
                                        "depth": 1,
                                        "name": "safeExecuteSignaturesWithAutoGasLimit",
                                        "value": 274422
                                    }
                                ],
                                "depth": 0,
                                "name": "Executed Gas",
                                "value": 279764
                            }
                        ],
                        "depth": -1,
                        "name": "Actual Gas Used",
                        "value": 247700
                    },
                    {
                        "children": [],
                        "depth": -1,
                        "name": "Refunded Gas",
                        "value": 61924
                    }
                ],
                "depth": -2,
                "name": "Total Gas",
                "value": 309624
            }
        ],
        "isConfirmed": true,
        "mainTrace": [
            {
                "children": [
                    {
                        "children": [
                            {
                                "children": [
                                    {
                                        "children": [
                                            {
                                                "children": [],
                                                "depth": 3,
                                                "id": 3,
                                                "order": 3
                                            }
                                        ],
                                        "depth": 2,
                                        "id": 2,
                                        "order": 2
                                    },
                                    {
                                        "children": [],
                                        "depth": 2,
                                        "id": 4,
                                        "order": 4
                                    },
                                    {
                                        "children": [
                                            {
                                                "children": [],
                                                "depth": 3,
                                                "id": 6,
                                                "order": 6
                                            }
                                        ],
                                        "depth": 2,
                                        "id": 5,
                                        "order": 5
                                    },
                                    {
                                        "children": [],
                                        "depth": 2,
                                        "id": 7,
                                        "order": 7
                                    },
                                    {
                                        "children": [
                                            {
                                                "children": [],
                                                "depth": 3,
                                                "id": 9,
                                                "order": 9
                                            }
                                        ],
                                        "depth": 2,
                                        "id": 8,
                                        "order": 8
                                    },
                                    {
                                        "children": [],
                                        "depth": 2,
                                        "id": 10,
                                        "order": 10
                                    },
                                    {
                                        "children": [
                                            {
                                                "children": [],
                                                "depth": 3,
                                                "id": 12,
                                                "order": 12
                                            }
                                        ],
                                        "depth": 2,
                                        "id": 11,
                                        "order": 11
                                    },
                                    {
                                        "children": [],
                                        "depth": 2,
                                        "id": 13,
                                        "order": 13
                                    },
                                    {
                                        "children": [
                                            {
                                                "children": [],
                                                "depth": 3,
                                                "id": 15,
                                                "order": 15
                                            }
                                        ],
                                        "depth": 2,
                                        "id": 14,
                                        "order": 14
                                    },
                                    {
                                        "children": [],
                                        "depth": 2,
                                        "id": 16,
                                        "order": 16
                                    },
                                    {
                                        "children": [
                                            {
                                                "children": [],
                                                "depth": 3,
                                                "id": 18,
                                                "order": 18
                                            }
                                        ],
                                        "depth": 2,
                                        "id": 17,
                                        "order": 17
                                    },
                                    {
                                        "children": [
                                            {
                                                "children": [
                                                    {
                                                        "children": [
                                                            {
                                                                "children": [],
                                                                "depth": 5,
                                                                "id": 22,
                                                                "order": 22
                                                            }
                                                        ],
                                                        "depth": 4,
                                                        "id": 21,
                                                        "order": 21
                                                    },
                                                    {
                                                        "children": [
                                                            {
                                                                "children": [],
                                                                "depth": 5,
                                                                "id": 24,
                                                                "order": 24
                                                            }
                                                        ],
                                                        "depth": 4,
                                                        "id": 23,
                                                        "order": 23
                                                    },
                                                    {
                                                        "children": [
                                                            {
                                                                "children": [],
                                                                "depth": 5,
                                                                "id": 26,
                                                                "order": 26
                                                            }
                                                        ],
                                                        "depth": 4,
                                                        "id": 25,
                                                        "order": 25
                                                    },
                                                    {
                                                        "children": [],
                                                        "depth": 4,
                                                        "id": 27,
                                                        "order": 27
                                                    },
                                                    {
                                                        "children": [
                                                            {
                                                                "children": [
                                                                    {
                                                                        "children": [],
                                                                        "depth": 6,
                                                                        "id": 30,
                                                                        "order": 30
                                                                    },
                                                                    {
                                                                        "children": [],
                                                                        "depth": 6,
                                                                        "id": 31,
                                                                        "order": 31
                                                                    }
                                                                ],
                                                                "depth": 5,
                                                                "id": 29,
                                                                "order": 29
                                                            },
                                                            {
                                                                "children": [],
                                                                "depth": 5,
                                                                "id": 32,
                                                                "order": 32
                                                            }
                                                        ],
                                                        "depth": 4,
                                                        "id": 28,
                                                        "order": 28
                                                    }
                                                ],
                                                "depth": 3,
                                                "id": 20,
                                                "order": 20
                                            }
                                        ],
                                        "depth": 2,
                                        "id": 19,
                                        "order": 19
                                    },
                                    {
                                        "children": [],
                                        "depth": 2,
                                        "id": 33,
                                        "order": 33
                                    }
                                ],
                                "depth": 1,
                                "id": 1,
                                "order": 1
                            }
                        ],
                        "depth": 0,
                        "id": 0,
                        "order": 0
                    }
                ],
                "depth": -1,
                "id": -1,
                "order": -1
            }
        ],
        "mainTraceNodeCount": 34,
        "parentIdMap": {
            "0": -1,
            "1": 0,
            "10": 1,
            "11": 1,
            "12": 11,
            "13": 1,
            "14": 1,
            "15": 14,
            "16": 1,
            "17": 1,
            "18": 17,
            "19": 1,
            "2": 1,
            "20": 19,
            "21": 20,
            "22": 21,
            "23": 20,
            "24": 23,
            "25": 20,
            "26": 25,
            "27": 20,
            "28": 20,
            "29": 28,
            "3": 2,
            "30": 29,
            "31": 29,
            "32": 28,
            "33": 1,
            "4": 1,
            "5": 1,
            "6": 5,
            "7": 1,
            "8": 1,
            "9": 8
        },
        "tidyTrace": [
            {
                "children": [
                    {
                        "children": [
                            {
                                "children": [
                                    {
                                        "children": [
                                            {
                                                "children": [],
                                                "depth": 3,
                                                "id": 3,
                                                "order": 3
                                            }
                                        ],
                                        "depth": 2,
                                        "id": 2,
                                        "order": 2
                                    },
                                    {
                                        "children": [],
                                        "depth": 2,
                                        "id": 4,
                                        "order": 4
                                    },
                                    {
                                        "children": [
                                            {
                                                "children": [],
                                                "depth": 3,
                                                "id": 6,
                                                "order": 6
                                            }
                                        ],
                                        "depth": 2,
                                        "id": 5,
                                        "order": 5
                                    },
                                    {
                                        "children": [],
                                        "depth": 2,
                                        "id": 7,
                                        "order": 7
                                    },
                                    {
                                        "children": [
                                            {
                                                "children": [],
                                                "depth": 3,
                                                "id": 9,
                                                "order": 9
                                            }
                                        ],
                                        "depth": 2,
                                        "id": 8,
                                        "order": 8
                                    },
                                    {
                                        "children": [],
                                        "depth": 2,
                                        "id": 10,
                                        "order": 10
                                    },
                                    {
                                        "children": [
                                            {
                                                "children": [],
                                                "depth": 3,
                                                "id": 12,
                                                "order": 12
                                            }
                                        ],
                                        "depth": 2,
                                        "id": 11,
                                        "order": 11
                                    },
                                    {
                                        "children": [],
                                        "depth": 2,
                                        "id": 13,
                                        "order": 13
                                    },
                                    {
                                        "children": [
                                            {
                                                "children": [],
                                                "depth": 3,
                                                "id": 15,
                                                "order": 15
                                            }
                                        ],
                                        "depth": 2,
                                        "id": 14,
                                        "order": 14
                                    },
                                    {
                                        "children": [],
                                        "depth": 2,
                                        "id": 16,
                                        "order": 16
                                    },
                                    {
                                        "children": [
                                            {
                                                "children": [],
                                                "depth": 3,
                                                "id": 18,
                                                "order": 18
                                            }
                                        ],
                                        "depth": 2,
                                        "id": 17,
                                        "order": 17
                                    },
                                    {
                                        "children": [
                                            {
                                                "children": [
                                                    {
                                                        "children": [
                                                            {
                                                                "children": [],
                                                                "depth": 5,
                                                                "id": 24,
                                                                "order": 24
                                                            }
                                                        ],
                                                        "depth": 4,
                                                        "id": 23,
                                                        "order": 23
                                                    },
                                                    {
                                                        "children": [],
                                                        "depth": 4,
                                                        "id": 27,
                                                        "order": 27
                                                    },
                                                    {
                                                        "children": [
                                                            {
                                                                "children": [
                                                                    {
                                                                        "children": [],
                                                                        "depth": 6,
                                                                        "id": 30,
                                                                        "order": 30
                                                                    },
                                                                    {
                                                                        "children": [],
                                                                        "depth": 6,
                                                                        "id": 31,
                                                                        "order": 31
                                                                    }
                                                                ],
                                                                "depth": 5,
                                                                "id": 29,
                                                                "order": 29
                                                            },
                                                            {
                                                                "children": [],
                                                                "depth": 5,
                                                                "id": 32,
                                                                "order": 32
                                                            }
                                                        ],
                                                        "depth": 4,
                                                        "id": 28,
                                                        "order": 28
                                                    }
                                                ],
                                                "depth": 3,
                                                "id": 20,
                                                "order": 20
                                            }
                                        ],
                                        "depth": 2,
                                        "id": 19,
                                        "order": 19
                                    },
                                    {
                                        "children": [],
                                        "depth": 2,
                                        "id": 33,
                                        "order": 33
                                    }
                                ],
                                "depth": 1,
                                "id": 1,
                                "order": 1
                            }
                        ],
                        "depth": 0,
                        "id": 0,
                        "order": 0
                    }
                ],
                "depth": -1,
                "id": -1,
                "order": -1
            }
        ],
        "tidyTraceNodeCount": 30
    },
    "state_change": {
        "stateChanges": [
            {
                "address": "0x1715a3e4a142d8b698131108995174f37aeba10d",
                "erc": "",
                "slots": [
                    {
                        "current": "0x00000000000000000000000000000000000000000000000ba4b3c677adad41c8",
                        "key": "0x2a7f9beb40a84f8e802b453915d9626e452369b43308ed4816a97479d533df5c",
                        "prev": "0x00000000000000000000000000000000000000000000000b90b7de18d11d41c8"
                    },
                    {
                        "current": "0x00000000000000000000000000000000000000000000014a25e2d3985fcb53c9",
                        "key": "0x6accd8056b322b1c2377b1af1f69b3be83c1e01780c8349158ea850c50d60659",
                        "prev": "0x00000000000000000000000000000000000000000000014a39debbf73c5b53c9"
                    }
                ],
                "storageVariables": [
                    {
                        "name": "uintStorage",
                        "type": "mapping(bytes32 => uint256)",
                        "value": {
                            "pairs": [
                                {
                                    "key": "0x547fa00b6a8fc8086dc16203f3d38193059a3ce063c5c4e1b22a1d7ec46c2f2d",
                                    "value": {
                                        "current": "6090155521299687625673",
                                        "prev": "6091595521299687625673",
                                        "typeTag": 1
                                    }
                                },
                                {
                                    "key": "0xc7d24630c13bb305ba7731e798123c86615b55430aec1b9b9babe9634c0f6e9a",
                                    "value": {
                                        "current": "214782232471173677512",
                                        "prev": "213342232471173677512",
                                        "typeTag": 1
                                    }
                                }
                            ],
                            "typeTag": 4
                        }
                    }
                ]
            },
            {
                "address": "0xc02aaa39b223fe8d0a0e5c4f27ead9083c756cc2",
                "erc": "ERC-20",
                "slots": [
                    {
                        "current": "0x00000000000000000000000000000000000000000000014a25e2d3985fcb53c9",
                        "key": "0xc38f9ebfaa0dcb17ec3e0983b28e3ec3dcf5db83576d60c9a028e458fbd15343",
                        "prev": "0x00000000000000000000000000000000000000000000014a39debbf73c5b53c9"
                    }
                ],
                "storageVariables": [
                    {
                        "name": "balanceOf",
                        "type": "mapping(address => uint256)",
                        "value": {
                            "pairs": [
                                {
                                    "key": "0x1715a3e4a142d8b698131108995174f37aeba10d",
                                    "value": {
                                        "current": "6090155521299687625673",
                                        "prev": "6091595521299687625673",
                                        "typeTag": 1
                                    }
                                }
                            ],
                            "typeTag": 4
                        }
                    }
                ]
            },
            {
                "address": "0xd0764fae29e0a6a96ff685f71cfc685456d5636c",
                "erc": "",
                "slots": [
                    {
                        "current": "0x0000000000000000000000000000000000000000000000000000000000000001",
                        "key": "0x988f3d3a58e2d3a6ae07419528191f4dc1eb64408f62d9eed3dd782f695d0aab",
                        "prev": "0x0000000000000000000000000000000000000000000000000000000000000000"
                    },
                    {
                        "current": "0x0000000000000000000000000000000000000000000000000000000000000001",
                        "key": "0xed2f750f46560561bafda949e6b14c1161c2fab1032452a2d098121bc3bf88a2",
                        "prev": "0x0000000000000000000000000000000000000000000000000000000000000000"
                    }
                ],
                "storageVariables": [
                    {
                        "name": "boolStorage",
                        "type": "mapping(bytes32 => bool)",
                        "value": {
                            "pairs": [
                                {
                                    "key": "0xbf69615cc6bbfde73c66aaffaf1d010acdd03df60ec2b46ee055da756a53c0a4",
                                    "value": {
                                        "current": "true",
                                        "prev": "false",
                                        "typeTag": 1
                                    }
                                },
                                {
                                    "key": "0xfec7619886955af98a43f6c6edb45e83d2ed4fc2d3076d8aabd9d3efd56ca468",
                                    "value": {
                                        "current": "true",
                                        "prev": "false",
                                        "typeTag": 1
                                    }
                                }
                            ],
                            "typeTag": 4
                        }
                    }
                ]
            }
        ]
    }
}