{
    "balance_change": {
        "balanceChanges": [
            {
                "account": "0x236f9f97e0e62388479bf9e5ba4889e46b0273c3",
                "assets": [
                    {
                        "address": "0x86fa049857e0209aa7d9e616f7eb3b3b78ecfdb0",
                        "amount": "148.5",
                        "iconUrl": "",
                        "isERC1155": false,
                        "isERC721": false,
                        "sign": false,
                        "value": ""
                    }
                ]
            },
            {
                "account": "0xd8d88276d5c742d308b43b22ad7e8fac459233c5",
                "assets": [
                    {
                        "address": "0x86fa049857e0209aa7d9e616f7eb3b3b78ecfdb0",
                        "amount": "148.5",
                        "iconUrl": "",
                        "isERC1155": false,
                        "isERC721": false,
                        "sign": true,
                        "value": ""
                    }
                ]
            }
        ]
    },
    "profile": {
        "basic_info": {
            "baseFee": "",
            "blockNumber": 5068309,
            "callData": "0xa9059cbb000000000000000000000000d8d88276d5c742d308b43b22ad7e8fac459233c50000000000000000000000000000000000000000000000080cd9fb3699820000",
            "debugEnable": true,
            "errorInfo": "",
            "eventCount": 2,
            "feeRecipient": "0x829bd824b016326a401d083b33d092293333a830",
            "formatValue": "0",
            "gasLimit": 420000,
            "gasPrice": "50",
            "gasUsed": 40843,
            "intTxnCount": 0,
            "internalRevert": false,
            "internalRevertMessage": "",
            "isContractCreation": false,
            "isFlashloan": false,
            "maxFee": "",
            "nonce": 301051,
            "overwritedBlockNumber": -1,
            "priorityFee": "",
            "receiver": "0x86fa049857e0209aa7d9e616f7eb3b3b78ecfdb0",
            "revertMessage": "",
            "sender": "0x236f9f97e0e62388479bf9e5ba4889e46b0273c3",
            "simulationEnable": true,
            "sourceTxnHash": "0xd18ad8953201a4b6af8b4c831517681836bfb48d6905c2125eb3ce3c0f6f9284",
            "status": true,
            "timestamp": "2018-02-11T01:54:45Z",
            "transactionFee": "0.00204215",
            "txnHash": "0xd18ad8953201a4b6af8b4c831517681836bfb48d6905c2125eb3ce3c0f6f9284",
            "txnIndex": 18,
            "type": 0,
            "value": "0"
        },
        "fund_flow": [
            {
                "amount": "148.5",
                "from": "0x236f9f97e0e62388479bf9e5ba4889e46b0273c3",
                "id": 1,
                "isERC1155": false,
                "isERC721": false,
                "isReverted": false,
                "order": 1,
                "to": "0xd8d88276d5c742d308b43b22ad7e8fac459233c5",
                "token": "0x86fa049857e0209aa7d9e616f7eb3b3b78ecfdb0"
            }
        ],
        "token_infos": [
            {
                "address": "0x86fa049857e0209aa7d9e616f7eb3b3b78ecfdb0",
                "decimals": 18
            },
            {
                "address": "0xc02aaa39b223fe8d0a0e5c4f27ead9083c756cc2",
                "decimals": 18
            },
            {
                "address": "0xeeeeeeeeeeeeeeeeeeeeeeeeeeeeeeeeeeeeeeee",
                "decimals": 18
            }
        ]
    },
    "address_label": {
        "labels": [
            {
                "address": "0xeeeeeeeeeeeeeeeeeeeeeeeeeeeeeeeeeeeeeeee",
                "label": "Ether"
            },
            {
                "address": "0x86fa049857e0209aa7d9e616f7eb3b3b78ecfdb0",
                "label": "EOS: Old Token"
            },
            {
                "address": "0x236f9f97e0e62388479bf9e5ba4889e46b0273c3",
                "label": "OKX 2"
            },
            {
                "address": "0x0000000000000000000000000000000000000001",
                "label": "Precompiled"
            },
            {
                "address": "0x0000000000000000000000000000000000000002",
                "label": "Precompiled"
            },
            {
                "address": "0x0000000000000000000000000000000000000003",
                "label": "Precompiled"
            },
            {
                "address": "0x0000000000000000000000000000000000000004",
                "label": "Precompiled"
            }
        ]
    },
    "trace": {
        "accountLabels": null,
        "dataMap": {
            "-1": {
                "invocation": {
                    "address": "0x236f9f97e0e62388479bf9e5ba4889e46b0273c3",
                    "callData": "",
                    "decodedMethod": null,
                    "errorInfo": "",
                    "fromAddress": "",
                    "gasUsed": 0,
                    "id": -1,
                    "methodDecoded": false,
                    "operation": "",
                    "output": "",
                    "revert": false,
                    "revertMessage": "",
                    "selector": "",
                    "status": false,
                    "value": ""
                },
                "nodeType": 0
            },
            "0": {
                "invocation": {
                    "address": "0x86fa049857e0209aa7d9e616f7eb3b3b78ecfdb0",
                    "callData": "0x000000000000000000000000d8d88276d5c742d308b43b22ad7e8fac459233c50000000000000000000000000000000000000000000000080cd9fb3699820000",
                    "decodedMethod": {
                        "callParams": [
                            {
                                "name": "dst",
                                "type": "address",
                                "value": "0xd8d88276d5c742d308b43b22ad7e8fac459233c5"
                            },
                            {
                                "decimalAvailable": true,
                                "name": "wad",
                                "type": "uint256",
                                "value": "148,500,000,000,000,000,000"
                            }
                        ],
                        "constructorArguments": "",
                        "name": "transfer",
                        "returnParams": [
                            {
                                "name": "",
                                "type": "bool",
                                "value": true
                            }
                        ],
                        "signature": "transfer(address,uint256)"
                    },
                    "errorInfo": "",
                    "fromAddress": "0x236f9f97e0e62388479bf9e5ba4889e46b0273c3",
                    "gasUsed": 40843,
                    "id": 0,
                    "methodDecoded": true,
                    "operation": "CALL",
                    "output": "0x0000000000000000000000000000000000000000000000000000000000000001",
                    "revert": false,
                    "revertMessage": "",
                    "selector": "0xa9059cbb",
                    "status": true,
                    "value": "0"
                },
                "nodeType": 0
            },
            "1": {
                "event": {
                    "contract": "0x86fa049857e0209aa7d9e616f7eb3b3b78ecfdb0",
                    "decodedLog": null,
                    "id": 1,
                    "logData": "0x000000000000000000000000000000000000000000000000000000000000000000000000000000000000000000000000000000000000000000000000000000400000000000000000000000000000000000000000000000000000000000000044a9059cbb000000000000000000000000d8d88276d5c742d308b43b22ad7e8fac459233c50000000000000000000000000000000000000000000000080cd9fb3699820000",
                    "logDecoded": false,
                    "operation": "EVENT",
                    "revert": false,
                    "status": true,
                    "topics": [
                        "0xa9059cbb00000000000000000000000000000000000000000000000000000000",
                        "0x000000000000000000000000236f9f97e0e62388479bf9e5ba4889e46b0273c3",
                        "0x000000000000000000000000d8d88276d5c742d308b43b22ad7e8fac459233c5",
                        "0x0000000000000000000000000000000000000000000000080cd9fb3699820000"
                    ]
                },
                "nodeType": 1
            },
            "2": {
                "event": {
                    "contract": "0x86fa049857e0209aa7d9e616f7eb3b3b78ecfdb0",
                    "decodedLog": {
                        "name": "Transfer",
                        "params": [
                            {
                                "name": "from",
                                "type": "address",
                                "value": "0x236f9f97e0e62388479bf9e5ba4889e46b0273c3"
                            },
                            {
                                "name": "to",
                                "type": "address",
                                "value": "0xd8d88276d5c742d308b43b22ad7e8fac459233c5"
                            },
                            {
                                "decimalAvailable": true,
                                "name": "value",
                                "type": "uint256",
                                "value": "148,500,000,000,000,000,000"
                            }
                        ],
                        "signature": "Transfer(address,address,uint256)"
                    },
                    "id": 2,
                    "logData": "0x0000000000000000000000000000000000000000000000080cd9fb3699820000",
                    "logDecoded": true,
                    "operation": "EVENT",
                    "revert": false,
                    "status": true,
                    "topics": [
                        "0xddf252ad1be2c89b69c2b068fc378daa952ba7f163c4a11628f55a4df523b3ef",
                        "0x000000000000000000000000236f9f97e0e62388479bf9e5ba4889e46b0273c3",
                        "0x000000000000000000000000d8d88276d5c742d308b43b22ad7e8fac459233c5"
                    ]
                },
                "nodeType": 1
            }
        },
        "gasFlame": [
            {
                "children": [
                    {
                        "children": [
                            {
                                "children": [],
                                "depth": 0,
                                "name": "Initial Gas",
                                "value": 23256
                            },
                            {
                                "children": [],
                                "depth": 0,
                                "name": "Executed Gas",
                                "value": 17587
                            }
                        ],
                        "depth": -1,
                        "name": "Actual Gas Used",
                        "value": 40843
                    },
                    {
                        "children": [],
                        "depth": -1,
                        "name": "Refunded Gas",
                        "value": 0
                    }
                ],
                "depth": -2,
                "name": "Total Gas",
                "value": 40843
            }
        ],
        "isConfirmed": true,
        "mainTrace": [
            {
                "children": [
                    {
                        "children": [
                            {
                                "children": [],
                                "depth": 1,
                                "id": 1,
                                "order": 1
                            },
                            {
                                "children": [],
                                "depth": 1,
                                "id": 2,
                                "order": 2
                            }
                        ],
                        "depth": 0,
                        "id": 0,
                        "order": 0
                    }
                ],
                "depth": -1,
                "id": -1,
                "order": -1
            }
        ],
        "mainTraceNodeCount": 3,
        "parentIdMap": {
            "0": -1,
            "1": 0,
            "2": 0
        },
        "tidyTrace": [
            {
                "children": [
                    {
                        "children": [
                            {
                                "children": [],
                                "depth": 1,
                                "id": 1,
                                "order": 1
                            },
                            {
                                "children": [],
                                "depth": 1,
                                "id": 2,
                                "order": 2
                            }
                        ],
                        "depth": 0,
                        "id": 0,
                        "order": 0
                    }
                ],
                "depth": -1,
                "id": -1,
                "order": -1
            }
        ],
        "tidyTraceNodeCount": 3
    },
    "state_change": {
        "stateChanges": [
            {
                "address": "0x86fa049857e0209aa7d9e616f7eb3b3b78ecfdb0",
                "erc": "ERC-20",
                "slots": [
                    {
                        "current": "0x0000000000000000000000000000000000000000000af74d2e92700769e9db92",
                        "key": "0x6732193c97a9577cea374e22c335158075045a8b6edccc32fa8898707222a926",
                        "prev": "0x0000000000000000000000000000000000000000000af7553b6c6b3e036bdb92"
                    },
                    {
                        "current": "0x0000000000000000000000000000000000000000000000144727ef09b8373000",
                        "key": "0x4c9b50b98fdd32c031495300e27885e85543a34c1c14cbdbf31da11586f7dfc3",
                        "prev": "0x00000000000000000000000000000000000000000000000c3a4df3d31eb53000"
                    }
                ],
                "storageVariables": []
            }
        ]
    }
}