{
    "balance_change": {
        "balanceChanges": [
            {
                "account": "0x7ae4e5298c9812be3ca331258eab04f000ec3484",
                "assets": [
                    {
                        "address": "0x6175f6f85339f1e56affac5a68cbf8297969004d",
                        "amount": "46,732",
                        "iconUrl": "",
                        "isERC1155": false,
                        "isERC721": false,
                        "sign": false,
                        "value": ""
                    }
                ]
            },
            {
                "account": "0xbc774a6a472975f80689d4326d2e3c84315c9692",
                "assets": [
                    {
                        "address": "0x6175f6f85339f1e56affac5a68cbf8297969004d",
                        "amount": "46,732",
                        "iconUrl": "",
                        "isERC1155": false,
                        "isERC721": false,
                        "sign": true,
                        "value": ""
                    }
                ]
            }
        ]
    },
    "profile": {
        "basic_info": {
            "baseFee": "",
            "blockNumber": 5720155,
            "callData": "0xa9059cbb000000000000000000000000bc774a6a472975f80689d4326d2e3c84315c969200000000000000000000000000000000000000000000000000002a80a4427800",
            "debugEnable": true,
            "errorInfo": "",
            "eventCount": 1,
            "feeRecipient": "0x52bc44d5378309ee2abf1539bf71de1b7d7be3b5",
            "formatValue": "0",
            "gasLimit": 51852,
            "gasPrice": "41",
            "gasUsed": 51852,
            "intTxnCount": 0,
            "internalRevert": false,
            "internalRevertMessage": "",
            "isContractCreation": false,
            "isFlashloan": false,
            "maxFee": "",
            "nonce": 17,
            "overwritedBlockNumber": -1,
            "priorityFee": "",
            "receiver": "0x6175f6f85339f1e56affac5a68cbf8297969004d",
            "revertMessage": "",
            "sender": "0x7ae4e5298c9812be3ca331258eab04f000ec3484",
            "simulationEnable": true,
            "sourceTxnHash": "0xd1b1152ab458950948e10487bea83b04daa5731d1e63417d08ab3e2ec2be99bf",
            "status": true,
            "timestamp": "2018-06-02T15:11:32Z",
            "transactionFee": "0.002125932",
            "txnHash": "0xd1b1152ab458950948e10487bea83b04daa5731d1e63417d08ab3e2ec2be99bf",
            "txnIndex": 35,
            "type": 0,
            "value": "0"
        },
        "fund_flow": [
            {
                "amount": "46,732",
                "from": "0x7ae4e5298c9812be3ca331258eab04f000ec3484",
                "id": 1,
                "isERC1155": false,
                "isERC721": false,
                "isReverted": false,
                "order": 1,
                "to": "0xbc774a6a472975f80689d4326d2e3c84315c9692",
                "token": "0x6175f6f85339f1e56affac5a68cbf8297969004d"
            }
        ],
        "token_infos": [
            {
                "address": "0x6175f6f85339f1e56affac5a68cbf8297969004d",
                "decimals": 9
            },
            {
                "address": "0xc02aaa39b223fe8d0a0e5c4f27ead9083c756cc2",
                "decimals": 18
            },
            {
                "address": "0xeeeeeeeeeeeeeeeeeeeeeeeeeeeeeeeeeeeeeeee",
                "decimals": 18
            }
        ]
    },
    "address_label": {
        "labels": [
            {
                "address": "0x0000000000000000000000000000000000000001",
                "label": "Precompiled"
            },
            {
                "address": "0x0000000000000000000000000000000000000002",
                "label": "Precompiled"
            },
            {
                "address": "0x0000000000000000000000000000000000000003",
                "label": "Precompiled"
            },
            {
                "address": "0x0000000000000000000000000000000000000004",
                "label": "Precompiled"
            },
            {
                "address": "0xeeeeeeeeeeeeeeeeeeeeeeeeeeeeeeeeeeeeeeee",
                "label": "Ether"
            },
            {
                "address": "0x6175f6f85339f1e56affac5a68cbf8297969004d",
                "label": "SHOP"
            }
        ]
    },
    "trace": {
        "accountLabels": null,
        "dataMap": {
            "-1": {
                "invocation": {
                    "address": "0x7ae4e5298c9812be3ca331258eab04f000ec3484",
                    "callData": "",
                    "decodedMethod": null,
                    "errorInfo": "",
                    "fromAddress": "",
                    "gasUsed": 0,
                    "id": -1,
                    "methodDecoded": false,
                    "operation": "",
                    "output": "",
                    "revert": false,
                    "revertMessage": "",
                    "selector": "",
                    "status": false,
                    "value": ""
                },
                "nodeType": 0
            },
            "0": {
                "invocation": {
                    "address": "0x6175f6f85339f1e56affac5a68cbf8297969004d",
                    "callData": "0x000000000000000000000000bc774a6a472975f80689d4326d2e3c84315c969200000000000000000000000000000000000000000000000000002a80a4427800",
                    "decodedMethod": {
                        "callParams": [
                            {
                                "name": "_to",
                                "type": "address",
                                "value": "0xbc774a6a472975f80689d4326d2e3c84315c9692"
                            },
                            {
                                "decimalAvailable": true,
                                "name": "_value",
                                "type": "uint256",
                                "value": "46,732,000,000,000"
                            }
                        ],
                        "constructorArguments": "",
                        "name": "transfer",
                        "returnParams": [
                            {
                                "name": "",
                                "type": "bool",
                                "value": true
                            }
                        ],
                        "signature": "transfer(address,uint256)"
                    },
                    "errorInfo": "",
                    "fromAddress": "0x7ae4e5298c9812be3ca331258eab04f000ec3484",
                    "gasUsed": 51852,
                    "id": 0,
                    "methodDecoded": true,
                    "operation": "CALL",
                    "output": "0x0000000000000000000000000000000000000000000000000000000000000001",
                    "revert": false,
                    "revertMessage": "",
                    "selector": "0xa9059cbb",
                    "status": true,
                    "value": "0"
                },
                "nodeType": 0
            },
            "1": {
                "event": {
                    "contract": "0x6175f6f85339f1e56affac5a68cbf8297969004d",
                    "decodedLog": {
                        "name": "Transfer",
                        "params": [
                            {
                                "name": "from",
                                "type": "address",
                                "value": "0x7ae4e5298c9812be3ca331258eab04f000ec3484"
                            },
                            {
                                "name": "to",
                                "type": "address",
                                "value": "0xbc774a6a472975f80689d4326d2e3c84315c9692"
                            },
                            {
                                "decimalAvailable": true,
                                "name": "value",
                                "type": "uint256",
                                "value": "46,732,000,000,000"
                            }
                        ],
                        "signature": "Transfer(address,address,uint256)"
                    },
                    "id": 1,
                    "logData": "0x00000000000000000000000000000000000000000000000000002a80a4427800",
                    "logDecoded": true,
                    "operation": "EVENT",
                    "revert": false,
                    "status": true,
                    "topics": [
                        "0xddf252ad1be2c89b69c2b068fc378daa952ba7f163c4a11628f55a4df523b3ef",
                        "0x0000000000000000000000007ae4e5298c9812be3ca331258eab04f000ec3484",
                        "0x000000000000000000000000bc774a6a472975f80689d4326d2e3c84315c9692"
                    ]
                },
                "nodeType": 1
            }
        },
        "gasFlame": [
            {
                "children": [
                    {
                        "children": [
                            {
                                "children": [],
                                "depth": 0,
                                "name": "Initial Gas",
                                "value": 23128
                            },
                            {
                                "children": [],
                                "depth": 0,
                                "name": "Executed Gas",
                                "value": 28724
                            }
                        ],
                        "depth": -1,
                        "name": "Actual Gas Used",
                        "value": 51852
                    },
                    {
                        "children": [],
                        "depth": -1,
                        "name": "Refunded Gas",
                        "value": 0
                    }
                ],
                "depth": -2,
                "name": "Total Gas",
                "value": 51852
            }
        ],
        "isConfirmed": true,
        "mainTrace": [
            {
                "children": [
                    {
                        "children": [
                            {
                                "children": [],
                                "depth": 1,
                                "id": 1,
                                "order": 1
                            }
                        ],
                        "depth": 0,
                        "id": 0,
                        "order": 0
                    }
                ],
                "depth": -1,
                "id": -1,
                "order": -1
            }
        ],
        "mainTraceNodeCount": 2,
        "parentIdMap": {
            "0": -1,
            "1": 0
        },
        "tidyTrace": [
            {
                "children": [
                    {
                        "children": [
                            {
                                "children": [],
                                "depth": 1,
                                "id": 1,
                                "order": 1
                            }
                        ],
                        "depth": 0,
                        "id": 0,
                        "order": 0
                    }
                ],
                "depth": -1,
                "id": -1,
                "order": -1
            }
        ],
        "tidyTraceNodeCount": 2
    },
    "state_change": {
        "stateChanges": [
            {
                "address": "0x6175f6f85339f1e56affac5a68cbf8297969004d",
                "erc": "ERC-20",
                "slots": [
                    {
                        "current": "0x00000000000000000000000000000000000000000000000000000bb9a7149800",
                        "key": "0x148ed272c0857cc75234afd07df232e528bf23413b456e8431a2d11ccb6de98f",
                        "prev": "0x0000000000000000000000000000000000000000000000000000363a4b571000"
                    },
                    {
                        "current": "0x00000000000000000000000000000000000000000000000000002a80a4427800",
                        "key": "0xb281ffdb8d317e100b00b18f2a1a42176e0ad25553f0dcf8eb2e69e52ed2fffa",
                        "prev": "0x0000000000000000000000000000000000000000000000000000000000000000"
                    }
                ],
                "storageVariables": [
                    {
                        "name": "balances",
                        "type": "mapping(address => uint256)",
                        "value": {
                            "pairs": [
                                {
                                    "key": "0x7ae4e5298c9812be3ca331258eab04f000ec3484",
                                    "value": {
                                        "current": "12892000000000",
                                        "prev": "59624000000000",
                                        "typeTag": 1
                                    }
                                },
                                {
                                    "key": "0xbc774a6a472975f80689d4326d2e3c84315c9692",
                                    "value": {
                                        "current": "46732000000000",
                                        "prev": "0",
                                        "typeTag": 1
                                    }
                                }
                            ],
                            "typeTag": 4
                        }
                    }
                ]
            }
        ]
    }
}