{
    "balance_change": {
        "balanceChanges": [
            {
                "account": "0x21651e84b705436ff00dc6edb4fb561ec1048e20",
                "assets": [
                    {
                        "address": "0xdd974d5c2e2928dea5f71b9825b8b646686bd200",
                        "amount": "0.109721",
                        "iconUrl": "https://assets.blocksec.com/icon/7af75e1543b2a7e424399ceec39d346a3492570fbcc8f496f1a4601b773a615d.png",
                        "isERC1155": false,
                        "isERC721": false,
                        "sign": false,
                        "value": ""
                    }
                ]
            },
            {
                "account": "0x3e0543be1469b5dc4d4c27cf27a455383c740e66",
                "assets": [
                    {
                        "address": "0xdd974d5c2e2928dea5f71b9825b8b646686bd200",
                        "amount": "0.109721",
                        "iconUrl": "https://assets.blocksec.com/icon/7af75e1543b2a7e424399ceec39d346a3492570fbcc8f496f1a4601b773a615d.png",
                        "isERC1155": false,
                        "isERC721": false,
                        "sign": true,
                        "value": ""
                    }
                ]
            }
        ]
    },
    "profile": {
        "basic_info": {
            "baseFee": "",
            "blockNumber": 6528748,
            "callData": "0xa9059cbb0000000000000000000000003e0543be1469b5dc4d4c27cf27a455383c740e660000000000000000000000000000000000000000000000000185ceab0d669000",
            "debugEnable": true,
            "errorInfo": "",
            "eventCount": 1,
            "feeRecipient": "0x5a0b54d5dc17e0aadc383d2db43b0a0d3e029c4c",
            "formatValue": "0",
            "gasLimit": 37309,
            "gasPrice": "1.8",
            "gasUsed": 37309,
            "intTxnCount": 0,
            "internalRevert": false,
            "internalRevertMessage": "",
            "isContractCreation": false,
            "isFlashloan": false,
            "maxFee": "",
            "nonce": 24,
            "overwritedBlockNumber": -1,
            "priorityFee": "",
            "receiver": "0xdd974d5c2e2928dea5f71b9825b8b646686bd200",
            "revertMessage": "",
            "sender": "0x21651e84b705436ff00dc6edb4fb561ec1048e20",
            "simulationEnable": true,
            "sourceTxnHash": "0xd1395c3df2a679249043674e06ddc2adf566b3874d3d0da2ab8babc90b0b7117",
            "status": true,
            "timestamp": "2018-10-17T00:13:02Z",
            "transactionFee": "0.0000671562",
            "txnHash": "0xd1395c3df2a679249043674e06ddc2adf566b3874d3d0da2ab8babc90b0b7117",
            "txnIndex": 48,
            "type": 0,
            "value": "0"
        },
        "fund_flow": [
            {
                "amount": "0.109721",
                "from": "0x21651e84b705436ff00dc6edb4fb561ec1048e20",
                "id": 1,
                "isERC1155": false,
                "isERC721": false,
                "isReverted": false,
                "order": 1,
                "to": "0x3e0543be1469b5dc4d4c27cf27a455383c740e66",
                "token": "0xdd974d5c2e2928dea5f71b9825b8b646686bd200"
            }
        ],
        "token_infos": [
            {
                "address": "0xc02aaa39b223fe8d0a0e5c4f27ead9083c756cc2",
                "decimals": 18
            },
            {
                "address": "0xdd974d5c2e2928dea5f71b9825b8b646686bd200",
                "decimals": 18
            },
            {
                "address": "0xeeeeeeeeeeeeeeeeeeeeeeeeeeeeeeeeeeeeeeee",
                "decimals": 18
            }
        ]
    },
    "address_label": {
        "labels": [
            {
                "address": "0xeeeeeeeeeeeeeeeeeeeeeeeeeeeeeeeeeeeeeeee",
                "label": "Ether"
            },
            {
                "address": "0xdd974d5c2e2928dea5f71b9825b8b646686bd200",
                "label": "Kyber: Old KNC Token"
            },
            {
                "address": "0x0000000000000000000000000000000000000001",
                "label": "Precompiled"
            },
            {
                "address": "0x0000000000000000000000000000000000000002",
                "label": "Precompiled"
            },
            {
                "address": "0x0000000000000000000000000000000000000003",
                "label": "Precompiled"
            },
            {
                "address": "0x0000000000000000000000000000000000000004",
                "label": "Precompiled"
            }
        ]
    },
    "trace": {
        "accountLabels": null,
        "dataMap": {
            "-1": {
                "invocation": {
                    "address": "0x21651e84b705436ff00dc6edb4fb561ec1048e20",
                    "callData": "",
                    "decodedMethod": null,
                    "errorInfo": "",
                    "fromAddress": "",
                    "gasUsed": 0,
                    "id": -1,
                    "methodDecoded": false,
                    "operation": "",
                    "output": "",
                    "revert": false,
                    "revertMessage": "",
                    "selector": "",
                    "status": false,
                    "value": ""
                },
                "nodeType": 0
            },
            "0": {
                "invocation": {
                    "address": "0xdd974d5c2e2928dea5f71b9825b8b646686bd200",
                    "callData": "0x0000000000000000000000003e0543be1469b5dc4d4c27cf27a455383c740e660000000000000000000000000000000000000000000000000185ceab0d669000",
                    "decodedMethod": {
                        "callParams": [
                            {
                                "name": "_to",
                                "type": "address",
                                "value": "0x3e0543be1469b5dc4d4c27cf27a455383c740e66"
                            },
                            {
                                "decimalAvailable": true,
                                "name": "_value",
                                "type": "uint256",
                                "value": "109,721,000,000,000,000"
                            }
                        ],
                        "constructorArguments": "",
                        "name": "transfer",
                        "returnParams": [
                            {
                                "name": "",
                                "type": "bool",
                                "value": true
                            }
                        ],
                        "signature": "transfer(address,uint256)"
                    },
                    "errorInfo": "",
                    "fromAddress": "0x21651e84b705436ff00dc6edb4fb561ec1048e20",
                    "gasUsed": 37309,
                    "id": 0,
                    "methodDecoded": true,
                    "operation": "CALL",
                    "output": "0x0000000000000000000000000000000000000000000000000000000000000001",
                    "revert": false,
                    "revertMessage": "",
                    "selector": "0xa9059cbb",
                    "status": true,
                    "value": "0"
                },
                "nodeType": 0
            },
            "1": {
                "event": {
                    "contract": "0xdd974d5c2e2928dea5f71b9825b8b646686bd200",
                    "decodedLog": {
                        "name": "Transfer",
                        "params": [
                            {
                                "name": "_from",
                                "type": "address",
                                "value": "0x21651e84b705436ff00dc6edb4fb561ec1048e20"
                            },
                            {
                                "name": "_to",
                                "type": "address",
                                "value": "0x3e0543be1469b5dc4d4c27cf27a455383c740e66"
                            },
                            {
                                "decimalAvailable": true,
                                "name": "_value",
                                "type": "uint256",
                                "value": "109,721,000,000,000,000"
                            }
                        ],
                        "signature": "Transfer(address,address,uint256)"
                    },
                    "id": 1,
                    "logData": "0x0000000000000000000000000000000000000000000000000185ceab0d669000",
                    "logDecoded": true,
                    "operation": "EVENT",
                    "revert": false,
                    "status": true,
                    "topics": [
                        "0xddf252ad1be2c89b69c2b068fc378daa952ba7f163c4a11628f55a4df523b3ef",
                        "0x00000000000000000000000021651e84b705436ff00dc6edb4fb561ec1048e20",
                        "0x0000000000000000000000003e0543be1469b5dc4d4c27cf27a455383c740e66"
                    ]
                },
                "nodeType": 1
            }
        },
        "gasFlame": [
            {
                "children": [
                    {
                        "children": [
                            {
                                "children": [],
                                "depth": 0,
                                "name": "Initial Gas",
                                "value": 23256
                            },
                            {
                                "children": [],
                                "depth": 0,
                                "name": "Executed Gas",
                                "value": 14053
                            }
                        ],
                        "depth": -1,
                        "name": "Actual Gas Used",
                        "value": 37309
                    },
                    {
                        "children": [],
                        "depth": -1,
                        "name": "Refunded Gas",
                        "value": 0
                    }
                ],
                "depth": -2,
                "name": "Total Gas",
                "value": 37309
            }
        ],
        "isConfirmed": true,
        "mainTrace": [
            {
                "children": [
                    {
                        "children": [
                            {
                                "children": [],
                                "depth": 1,
                                "id": 1,
                                "order": 1
                            }
                        ],
                        "depth": 0,
                        "id": 0,
                        "order": 0
                    }
                ],
                "depth": -1,
                "id": -1,
                "order": -1
            }
        ],
        "mainTraceNodeCount": 2,
        "parentIdMap": {
            "0": -1,
            "1": 0
        },
        "tidyTrace": [
            {
                "children": [
                    {
                        "children": [
                            {
                                "children": [],
                                "depth": 1,
                                "id": 1,
                                "order": 1
                            }
                        ],
                        "depth": 0,
                        "id": 0,
                        "order": 0
                    }
                ],
                "depth": -1,
                "id": -1,
                "order": -1
            }
        ],
        "tidyTraceNodeCount": 2
    },
    "state_change": {
        "stateChanges": [
            {
                "address": "0xdd974d5c2e2928dea5f71b9825b8b646686bd200",
                "erc": "ERC-20",
                "slots": [
                    {
                        "current": "0x0000000000000000000000000000000000000000000000004d37f94b586e4caa",
                        "key": "0x66435b12c5b3c5c3c1d4c19aff4d2e696a3475ee22f04f70bd83be81318c6733",
                        "prev": "0x0000000000000000000000000000000000000000000000004ebdc7f665d4dcaa"
                    },
                    {
                        "current": "0x0000000000000000000000000000000000000000000000002e47e8e9739f4c76",
                        "key": "0xf36928d84d4a1569c810ea0ffee9bcf159f80015b19b26b8a2a077f8e154540b",
                        "prev": "0x0000000000000000000000000000000000000000000000002cc21a3e6638bc76"
                    }
                ],
                "storageVariables": [
                    {
                        "name": "balances",
                        "type": "mapping(address => uint256)",
                        "value": {
                            "pairs": [
                                {
                                    "key": "0x21651e84b705436ff00dc6edb4fb561ec1048e20",
                                    "value": {
                                        "current": "5564189966641024170",
                                        "prev": "5673910966641024170",
                                        "typeTag": 1
                                    }
                                },
                                {
                                    "key": "0x3e0543be1469b5dc4d4c27cf27a455383c740e66",
                                    "value": {
                                        "current": "3334890138455985270",
                                        "prev": "3225169138455985270",
                                        "typeTag": 1
                                    }
                                }
                            ],
                            "typeTag": 4
                        }
                    }
                ]
            }
        ]
    }
}