{
    "balance_change": {
        "balanceChanges": [
            {
                "account": "0x5d080b5d2718bd65678c9582519eb876c3042511",
                "assets": [
                    {
                        "address": "0x20945ca1df56d237fd40036d47e866c7dccd2114",
                        "amount": "129.75",
                        "iconUrl": "",
                        "isERC1155": false,
                        "isERC721": false,
                        "sign": true,
                        "value": "110.5408856"
                    }
                ]
            },
            {
                "account": "0xc510ccb5122fbab3510dec9cdf2e3cacb91c2f4a",
                "assets": [
                    {
                        "address": "0x20945ca1df56d237fd40036d47e866c7dccd2114",
                        "amount": "129.75",
                        "iconUrl": "",
                        "isERC1155": false,
                        "isERC721": false,
                        "sign": false,
                        "value": "110.5408856"
                    }
                ]
            }
        ]
    },
    "profile": {
        "basic_info": {
            "baseFee": "",
            "blockNumber": 11476138,
            "callData": "0x2e1a7d4d00000000000000000000000000000000000000000000000708a4998e16ef0000",
            "debugEnable": true,
            "errorInfo": "",
            "eventCount": 2,
            "feeRecipient": "0x5a0b54d5dc17e0aadc383d2db43b0a0d3e029c4c",
            "formatValue": "0",
            "gasLimit": 183693,
            "gasPrice": "53",
            "gasUsed": 92462,
            "intTxnCount": 1,
            "internalRevert": false,
            "internalRevertMessage": "",
            "isContractCreation": false,
            "isFlashloan": false,
            "maxFee": "",
            "nonce": 87,
            "overwritedBlockNumber": -1,
            "priorityFee": "",
            "receiver": "0xc510ccb5122fbab3510dec9cdf2e3cacb91c2f4a",
            "revertMessage": "",
            "sender": "0x5d080b5d2718bd65678c9582519eb876c3042511",
            "simulationEnable": true,
            "sourceTxnHash": "0xd18252aeea0a3eec06b6280a60a053b31a05a5b32db609ecbd31f90ee95e0074",
            "status": true,
            "timestamp": "2020-12-18T08:33:17Z",
            "transactionFee": "0.004900486",
            "txnHash": "0xd18252aeea0a3eec06b6280a60a053b31a05a5b32db609ecbd31f90ee95e0074",
            "txnIndex": 226,
            "type": 0,
            "value": "0"
        },
        "fund_flow": [
            {
                "amount": "129.75",
                "from": "0xc510ccb5122fbab3510dec9cdf2e3cacb91c2f4a",
                "id": 1,
                "isERC1155": false,
                "isERC721": false,
                "isReverted": false,
                "order": 1,
                "to": "0x5d080b5d2718bd65678c9582519eb876c3042511",
                "token": "0x20945ca1df56d237fd40036d47e866c7dccd2114"
            }
        ],
        "token_infos": [
            {
                "address": "0x20945ca1df56d237fd40036d47e866c7dccd2114",
                "decimals": 18
            },
            {
                "address": "0xc02aaa39b223fe8d0a0e5c4f27ead9083c756cc2",
                "decimals": 18
            },
            {
                "address": "0xeeeeeeeeeeeeeeeeeeeeeeeeeeeeeeeeeeeeeeee",
                "decimals": 18
            }
        ]
    },
    "address_label": {
        "labels": [
            {
                "address": "0x0000000000000000000000000000000000000003",
                "label": "Precompiled"
            },
            {
                "address": "0x0000000000000000000000000000000000000004",
                "label": "Precompiled"
            },
            {
                "address": "0xeeeeeeeeeeeeeeeeeeeeeeeeeeeeeeeeeeeeeeee",
                "label": "Ether"
            },
            {
                "address": "0x20945ca1df56d237fd40036d47e866c7dccd2114",
                "label": "Nsure.network: NSURE Token"
            },
            {
                "address": "0xc510ccb5122fbab3510dec9cdf2e3cacb91c2f4a",
                "label": "NsurePoolReward"
            },
            {
                "address": "0x0000000000000000000000000000000000000001",
                "label": "Precompiled"
            },
            {
                "address": "0x0000000000000000000000000000000000000002",
                "label": "Precompiled"
            }
        ]
    },
    "trace": {
        "accountLabels": null,
        "dataMap": {
            "-1": {
                "invocation": {
                    "address": "0x5d080b5d2718bd65678c9582519eb876c3042511",
                    "callData": "",
                    "decodedMethod": null,
                    "errorInfo": "",
                    "fromAddress": "",
                    "gasUsed": 0,
                    "id": -1,
                    "methodDecoded": false,
                    "operation": "",
                    "output": "",
                    "revert": false,
                    "revertMessage": "",
                    "selector": "",
                    "status": false,
                    "value": ""
                },
                "nodeType": 0
            },
            "0": {
                "invocation": {
                    "address": "0xc510ccb5122fbab3510dec9cdf2e3cacb91c2f4a",
                    "callData": "0x00000000000000000000000000000000000000000000000708a4998e16ef0000",
                    "decodedMethod": {
                        "callParams": [
                            {
                                "name": "amount",
                                "type": "uint256",
                                "value": "129,750,000,000,000,000,000"
                            }
                        ],
                        "constructorArguments": "",
                        "name": "withdraw",
                        "returnParams": [],
                        "signature": "withdraw(uint256)"
                    },
                    "errorInfo": "",
                    "fromAddress": "0x5d080b5d2718bd65678c9582519eb876c3042511",
                    "gasUsed": 92462,
                    "id": 0,
                    "methodDecoded": true,
                    "operation": "CALL",
                    "output": "",
                    "revert": false,
                    "revertMessage": "",
                    "selector": "0x2e1a7d4d",
                    "status": true,
                    "value": "0"
                },
                "nodeType": 0
            },
            "1": {
                "invocation": {
                    "address": "0x20945ca1df56d237fd40036d47e866c7dccd2114",
                    "callData": "0x0000000000000000000000005d080b5d2718bd65678c9582519eb876c304251100000000000000000000000000000000000000000000000708a4998e16ef0000",
                    "decodedMethod": {
                        "callParams": [
                            {
                                "name": "recipient",
                                "type": "address",
                                "value": "0x5d080b5d2718bd65678c9582519eb876c3042511"
                            },
                            {
                                "decimalAvailable": true,
                                "name": "amount",
                                "type": "uint256",
                                "value": "129,750,000,000,000,000,000"
                            }
                        ],
                        "constructorArguments": "",
                        "name": "transfer",
                        "returnParams": [
                            {
                                "name": "",
                                "type": "bool",
                                "value": true
                            }
                        ],
                        "signature": "transfer(address,uint256)"
                    },
                    "errorInfo": "",
                    "fromAddress": "0xc510ccb5122fbab3510dec9cdf2e3cacb91c2f4a",
                    "gasUsed": 16625,
                    "id": 1,
                    "methodDecoded": true,
                    "operation": "CALL",
                    "output": "0x0000000000000000000000000000000000000000000000000000000000000001",
                    "revert": false,
                    "revertMessage": "",
                    "selector": "0xa9059cbb",
                    "status": true,
                    "value": "0"
                },
                "nodeType": 0
            },
            "2": {
                "event": {
                    "contract": "0x20945ca1df56d237fd40036d47e866c7dccd2114",
                    "decodedLog": {
                        "name": "Transfer",
                        "params": [
                            {
                                "name": "from",
                                "type": "address",
                                "value": "0xc510ccb5122fbab3510dec9cdf2e3cacb91c2f4a"
                            },
                            {
                                "name": "to",
                                "type": "address",
                                "value": "0x5d080b5d2718bd65678c9582519eb876c3042511"
                            },
                            {
                                "decimalAvailable": true,
                                "name": "value",
                                "type": "uint256",
                                "value": "129,750,000,000,000,000,000"
                            }
                        ],
                        "signature": "Transfer(address,address,uint256)"
                    },
                    "id": 2,
                    "logData": "0x00000000000000000000000000000000000000000000000708a4998e16ef0000",
                    "logDecoded": true,
                    "operation": "EVENT",
                    "revert": false,
                    "status": true,
                    "topics": [
                        "0xddf252ad1be2c89b69c2b068fc378daa952ba7f163c4a11628f55a4df523b3ef",
                        "0x000000000000000000000000c510ccb5122fbab3510dec9cdf2e3cacb91c2f4a",
                        "0x0000000000000000000000005d080b5d2718bd65678c9582519eb876c3042511"
                    ]
                },
                "nodeType": 1
            },
            "3": {
                "event": {
                    "contract": "0xc510ccb5122fbab3510dec9cdf2e3cacb91c2f4a",
                    "decodedLog": {
                        "name": "Withdrawn",
                        "params": [
                            {
                                "name": "user",
                                "type": "address",
                                "value": "0x5d080b5d2718bd65678c9582519eb876c3042511"
                            },
                            {
                                "name": "amount",
                                "type": "uint256",
                                "value": "129,750,000,000,000,000,000"
                            }
                        ],
                        "signature": "Withdrawn(address,uint256)"
                    },
                    "id": 3,
                    "logData": "0x00000000000000000000000000000000000000000000000708a4998e16ef0000",
                    "logDecoded": true,
                    "operation": "EVENT",
                    "revert": false,
                    "status": true,
                    "topics": [
                        "0x7084f5476618d8e60b11ef0d7d3f06914655adb8793e28ff7f018d4c76d505d5",
                        "0x0000000000000000000000005d080b5d2718bd65678c9582519eb876c3042511"
                    ]
                },
                "nodeType": 1
            }
        },
        "gasFlame": [
            {
                "children": [
                    {
                        "children": [
                            {
                                "children": [],
                                "depth": 0,
                                "name": "Initial Gas",
                                "value": 21276
                            },
                            {
                                "children": [
                                    {
                                        "children": [],
                                        "depth": 1,
                                        "name": "transfer",
                                        "value": 16625
                                    }
                                ],
                                "depth": 0,
                                "name": "Executed Gas",
                                "value": 86186
                            }
                        ],
                        "depth": -1,
                        "name": "Actual Gas Used",
                        "value": 92462
                    },
                    {
                        "children": [],
                        "depth": -1,
                        "name": "Refunded Gas",
                        "value": 15000
                    }
                ],
                "depth": -2,
                "name": "Total Gas",
                "value": 107462
            }
        ],
        "isConfirmed": true,
        "mainTrace": [
            {
                "children": [
                    {
                        "children": [
                            {
                                "children": [
                                    {
                                        "children": [],
                                        "depth": 2,
                                        "id": 2,
                                        "order": 2
                                    }
                                ],
                                "depth": 1,
                                "id": 1,
                                "order": 1
                            },
                            {
                                "children": [],
                                "depth": 1,
                                "id": 3,
                                "order": 3
                            }
                        ],
                        "depth": 0,
                        "id": 0,
                        "order": 0
                    }
                ],
                "depth": -1,
                "id": -1,
                "order": -1
            }
        ],
        "mainTraceNodeCount": 4,
        "parentIdMap": {
            "0": -1,
            "1": 0,
            "2": 1,
            "3": 0
        },
        "tidyTrace": [
            {
                "children": [
                    {
                        "children": [
                            {
                                "children": [
                                    {
                                        "children": [],
                                        "depth": 2,
                                        "id": 2,
                                        "order": 2
                                    }
                                ],
                                "depth": 1,
                                "id": 1,
                                "order": 1
                            },
                            {
                                "children": [],
                                "depth": 1,
                                "id": 3,
                                "order": 3
                            }
                        ],
                        "depth": 0,
                        "id": 0,
                        "order": 0
                    }
                ],
                "depth": -1,
                "id": -1,
                "order": -1
            }
        ],
        "tidyTraceNodeCount": 4
    },
    "state_change": {
        "stateChanges": [
            {
                "address": "0x20945ca1df56d237fd40036d47e866c7dccd2114",
                "erc": "ERC-20",
                "slots": [
                    {
                        "current": "0x0000000000000000000000000000000000000000000000313c8032e2a0890000",
                        "key": "0xa09113d5da3f2d1cf636ed050b4612f364c8f91c36bd12d0fef201af3212fcc7",
                        "prev": "0x00000000000000000000000000000000000000000000002a33db9954899a0000"
                    },
                    {
                        "current": "0x000000000000000000000000000000000000000000002f5efb7a248bf10d16e8",
                        "key": "0x91ef21460f11ca9fcd83f9acd1c5e41d7eb3d02d2927e2935f74df39076f7ebf",
                        "prev": "0x000000000000000000000000000000000000000000002f66041ebe1a07fc16e8"
                    }
                ],
                "storageVariables": [
                    {
                        "name": "_balances",
                        "type": "mapping(address => uint256)",
                        "value": {
                            "pairs": [
                                {
                                    "key": "0x5d080b5d2718bd65678c9582519eb876c3042511",
                                    "value": {
                                        "current": "908250000000000000000",
                                        "prev": "778500000000000000000",
                                        "typeTag": 1
                                    }
                                },
                                {
                                    "key": "0xc510ccb5122fbab3510dec9cdf2e3cacb91c2f4a",
                                    "value": {
                                        "current": "223703339474036164728552",
                                        "prev": "223833089474036164728552",
                                        "typeTag": 1
                                    }
                                }
                            ],
                            "typeTag": 4
                        }
                    }
                ]
            },
            {
                "address": "0xc510ccb5122fbab3510dec9cdf2e3cacb91c2f4a",
                "erc": "",
                "slots": [
                    {
                        "current": "0x000000000000000000000000000000000000000000000000000000005fdc694d",
                        "key": "0x000000000000000000000000000000000000000000000000000000000000000a",
                        "prev": "0x000000000000000000000000000000000000000000000000000000005fdc5508"
                    },
                    {
                        "current": "0x000000000000000000000000000000000000000000000000bcc4c45310ffdcd9",
                        "key": "0x79eb6d4061fac5621c7442cc4dcec19ec3ba058957847dbce7936a445d83ce41",
                        "prev": "0x0000000000000000000000000000000000000000000000000000000000000000"
                    },
                    {
                        "current": "0x000000000000000000000000000000000000000000000000037ab2e818181281",
                        "key": "0x91dd49dad4fefa10a725f0e39d9218cbae9414cb81efbd04c4bbdfbfc5bd06d5",
                        "prev": "0x000000000000000000000000000000000000000000000000020640ee5c084a05"
                    },
                    {
                        "current": "0x000000000000000000000000000000000000000000002c4e5ceece40118875cf",
                        "key": "0x0000000000000000000000000000000000000000000000000000000000000001",
                        "prev": "0x000000000000000000000000000000000000000000002c55659367ce287775cf"
                    },
                    {
                        "current": "0x0000000000000000000000000000000000000000000000000000000000000000",
                        "key": "0x944cc06c2e07c4f5d862461f36bcff0b6f1706d9b20702c966692b90fff78af1",
                        "prev": "0x00000000000000000000000000000000000000000000000708a4998e16ef0000"
                    },
                    {
                        "current": "0x000000000000000000000000000000000000000000000000037ab2e818181281",
                        "key": "0x000000000000000000000000000000000000000000000000000000000000000b",
                        "prev": "0x0000000000000000000000000000000000000000000000000379775759bc8848"
                    }
                ],
                "storageVariables": [
                    {
                        "name": "lastUpdateTime",
                        "type": "uint256",
                        "value": {
                            "current": "1608280397",
                            "prev": "1608275208",
                            "typeTag": 1
                        }
                    },
                    {
                        "name": "rewards",
                        "type": "mapping(address => uint256)",
                        "value": {
                            "pairs": [
                                {
                                    "key": "0x5d080b5d2718bd65678c9582519eb876c3042511",
                                    "value": {
                                        "current": "13602212635612273881",
                                        "prev": "0",
                                        "typeTag": 1
                                    }
                                }
                            ],
                            "typeTag": 4
                        }
                    },
                    {
                        "name": "userRewardPerTokenPaid",
                        "type": "mapping(address => uint256)",
                        "value": {
                            "pairs": [
                                {
                                    "key": "0x5d080b5d2718bd65678c9582519eb876c3042511",
                                    "value": {
                                        "current": "250709439178871425",
                                        "prev": "145875430426561029",
                                        "typeTag": 1
                                    }
                                }
                            ],
                            "typeTag": 4
                        }
                    },
                    {
                        "name": "_totalSupply",
                        "type": "uint256",
                        "value": {
                            "current": "209229667800484248319439",
                            "prev": "209359417800484248319439",
                            "typeTag": 1
                        }
                    },
                    {
                        "name": "_balances",
                        "type": "mapping(address => uint256)",
                        "value": {
                            "pairs": [
                                {
                                    "key": "0x5d080b5d2718bd65678c9582519eb876c3042511",
                                    "value": {
                                        "current": "0",
                                        "prev": "129750000000000000000",
                                        "typeTag": 1
                                    }
                                }
                            ],
                            "typeTag": 4
                        }
                    },
                    {
                        "name": "rewardPerTokenStored",
                        "type": "uint256",
                        "value": {
                            "current": "250709439178871425",
                            "prev": "250362471347161160",
                            "typeTag": 1
                        }
                    }
                ]
            }
        ]
    }
}