{
    "balance_change": {
        "balanceChanges": [
            {
                "account": "0x9352522743cd8a4f949c26eca1fffb993b324be7",
                "assets": [
                    {
                        "address": "0x6400b5522f8d448c0803e6245436dd1c81df09ce",
                        "amount": "1,562.5",
                        "iconUrl": "",
                        "isERC1155": false,
                        "isERC721": false,
                        "sign": false,
                        "value": ""
                    }
                ]
            },
            {
                "account": "0x681668833c16dd690dd073f90546fd0c6be55ef9",
                "assets": [
                    {
                        "address": "0x6400b5522f8d448c0803e6245436dd1c81df09ce",
                        "amount": "1,562.5",
                        "iconUrl": "",
                        "isERC1155": false,
                        "isERC721": false,
                        "sign": true,
                        "value": ""
                    }
                ]
            }
        ]
    },
    "profile": {
        "basic_info": {
            "baseFee": "",
            "blockNumber": 7008347,
            "callData": "0xa9059cbb000000000000000000000000681668833c16dd690dd073f90546fd0c6be55ef9000000000000000000000000000000000000000000000000000000246139ca80",
            "debugEnable": true,
            "errorInfo": "",
            "eventCount": 1,
            "feeRecipient": "0x52bc44d5378309ee2abf1539bf71de1b7d7be3b5",
            "formatValue": "0",
            "gasLimit": 78043,
            "gasPrice": "3",
            "gasUsed": 52029,
            "intTxnCount": 0,
            "internalRevert": false,
            "internalRevertMessage": "",
            "isContractCreation": false,
            "isFlashloan": false,
            "maxFee": "",
            "nonce": 373,
            "overwritedBlockNumber": -1,
            "priorityFee": "",
            "receiver": "0x6400b5522f8d448c0803e6245436dd1c81df09ce",
            "revertMessage": "",
            "sender": "0x9352522743cd8a4f949c26eca1fffb993b324be7",
            "simulationEnable": true,
            "sourceTxnHash": "0xd1261e555e6ba39dcf76d5247efc9a1b3e20c0d77488a988013e6c61933e74e1",
            "status": true,
            "timestamp": "2019-01-04T10:07:07Z",
            "transactionFee": "0.000156087",
            "txnHash": "0xd1261e555e6ba39dcf76d5247efc9a1b3e20c0d77488a988013e6c61933e74e1",
            "txnIndex": 23,
            "type": 0,
            "value": "0"
        },
        "fund_flow": [
            {
                "amount": "1,562.5",
                "from": "0x9352522743cd8a4f949c26eca1fffb993b324be7",
                "id": 1,
                "isERC1155": false,
                "isERC721": false,
                "isReverted": false,
                "order": 1,
                "to": "0x681668833c16dd690dd073f90546fd0c6be55ef9",
                "token": "0x6400b5522f8d448c0803e6245436dd1c81df09ce"
            }
        ],
        "token_infos": [
            {
                "address": "0x6400b5522f8d448c0803e6245436dd1c81df09ce",
                "decimals": 8
            },
            {
                "address": "0xc02aaa39b223fe8d0a0e5c4f27ead9083c756cc2",
                "decimals": 18
            },
            {
                "address": "0xeeeeeeeeeeeeeeeeeeeeeeeeeeeeeeeeeeeeeeee",
                "decimals": 18
            }
        ]
    },
    "address_label": {
        "labels": [
            {
                "address": "0x0000000000000000000000000000000000000001",
                "label": "Precompiled"
            },
            {
                "address": "0x0000000000000000000000000000000000000002",
                "label": "Precompiled"
            },
            {
                "address": "0x0000000000000000000000000000000000000003",
                "label": "Precompiled"
            },
            {
                "address": "0x0000000000000000000000000000000000000004",
                "label": "Precompiled"
            },
            {
                "address": "0xeeeeeeeeeeeeeeeeeeeeeeeeeeeeeeeeeeeeeeee",
                "label": "Ether"
            },
            {
                "address": "0x6400b5522f8d448c0803e6245436dd1c81df09ce",
                "label": "CVNToken (CVNT)"
            }
        ]
    },
    "trace": {
        "accountLabels": null,
        "dataMap": {
            "-1": {
                "invocation": {
                    "address": "0x9352522743cd8a4f949c26eca1fffb993b324be7",
                    "callData": "",
                    "decodedMethod": null,
                    "errorInfo": "",
                    "fromAddress": "",
                    "gasUsed": 0,
                    "id": -1,
                    "methodDecoded": false,
                    "operation": "",
                    "output": "",
                    "revert": false,
                    "revertMessage": "",
                    "selector": "",
                    "status": false,
                    "value": ""
                },
                "nodeType": 0
            },
            "0": {
                "invocation": {
                    "address": "0x6400b5522f8d448c0803e6245436dd1c81df09ce",
                    "callData": "0x000000000000000000000000681668833c16dd690dd073f90546fd0c6be55ef9000000000000000000000000000000000000000000000000000000246139ca80",
                    "decodedMethod": {
                        "callParams": [
                            {
                                "name": "to",
                                "type": "address",
                                "value": "0x681668833c16dd690dd073f90546fd0c6be55ef9"
                            },
                            {
                                "decimalAvailable": true,
                                "name": "value",
                                "type": "uint256",
                                "value": "156,250,000,000"
                            }
                        ],
                        "constructorArguments": "",
                        "name": "transfer",
                        "returnParams": [
                            {
                                "name": "",
                                "type": "bool",
                                "value": true
                            }
                        ],
                        "signature": "transfer(address,uint256)"
                    },
                    "errorInfo": "",
                    "fromAddress": "0x9352522743cd8a4f949c26eca1fffb993b324be7",
                    "gasUsed": 52029,
                    "id": 0,
                    "methodDecoded": true,
                    "operation": "CALL",
                    "output": "0x0000000000000000000000000000000000000000000000000000000000000001",
                    "revert": false,
                    "revertMessage": "",
                    "selector": "0xa9059cbb",
                    "status": true,
                    "value": "0"
                },
                "nodeType": 0
            },
            "1": {
                "event": {
                    "contract": "0x6400b5522f8d448c0803e6245436dd1c81df09ce",
                    "decodedLog": {
                        "name": "Transfer",
                        "params": [
                            {
                                "name": "from",
                                "type": "address",
                                "value": "0x9352522743cd8a4f949c26eca1fffb993b324be7"
                            },
                            {
                                "name": "to",
                                "type": "address",
                                "value": "0x681668833c16dd690dd073f90546fd0c6be55ef9"
                            },
                            {
                                "decimalAvailable": true,
                                "name": "value",
                                "type": "uint256",
                                "value": "156,250,000,000"
                            }
                        ],
                        "signature": "Transfer(address,address,uint256)"
                    },
                    "id": 1,
                    "logData": "0x000000000000000000000000000000000000000000000000000000246139ca80",
                    "logDecoded": true,
                    "operation": "EVENT",
                    "revert": false,
                    "status": true,
                    "topics": [
                        "0xddf252ad1be2c89b69c2b068fc378daa952ba7f163c4a11628f55a4df523b3ef",
                        "0x0000000000000000000000009352522743cd8a4f949c26eca1fffb993b324be7",
                        "0x000000000000000000000000681668833c16dd690dd073f90546fd0c6be55ef9"
                    ]
                },
                "nodeType": 1
            }
        },
        "gasFlame": [
            {
                "children": [
                    {
                        "children": [
                            {
                                "children": [],
                                "depth": 0,
                                "name": "Initial Gas",
                                "value": 23128
                            },
                            {
                                "children": [],
                                "depth": 0,
                                "name": "Executed Gas",
                                "value": 28901
                            }
                        ],
                        "depth": -1,
                        "name": "Actual Gas Used",
                        "value": 52029
                    },
                    {
                        "children": [],
                        "depth": -1,
                        "name": "Refunded Gas",
                        "value": 0
                    }
                ],
                "depth": -2,
                "name": "Total Gas",
                "value": 52029
            }
        ],
        "isConfirmed": true,
        "mainTrace": [
            {
                "children": [
                    {
                        "children": [
                            {
                                "children": [],
                                "depth": 1,
                                "id": 1,
                                "order": 1
                            }
                        ],
                        "depth": 0,
                        "id": 0,
                        "order": 0
                    }
                ],
                "depth": -1,
                "id": -1,
                "order": -1
            }
        ],
        "mainTraceNodeCount": 2,
        "parentIdMap": {
            "0": -1,
            "1": 0
        },
        "tidyTrace": [
            {
                "children": [
                    {
                        "children": [
                            {
                                "children": [],
                                "depth": 1,
                                "id": 1,
                                "order": 1
                            }
                        ],
                        "depth": 0,
                        "id": 0,
                        "order": 0
                    }
                ],
                "depth": -1,
                "id": -1,
                "order": -1
            }
        ],
        "tidyTraceNodeCount": 2
    },
    "state_change": {
        "stateChanges": [
            {
                "address": "0x6400b5522f8d448c0803e6245436dd1c81df09ce",
                "erc": "ERC-20",
                "slots": [
                    {
                        "current": "0x00000000000000000000000000000000000000000000000000000dfcc2049580",
                        "key": "0xc64f3812518bb314e6154b666bccb724804d52ea2793beb4f68c6f7b909be57d",
                        "prev": "0x00000000000000000000000000000000000000000000000000000e21233e6000"
                    },
                    {
                        "current": "0x000000000000000000000000000000000000000000000000000000246139ca80",
                        "key": "0x192269f2388bdd0abd54030aecd926b4652e7a6bf2c80fdb762d3709b3f6de17",
                        "prev": "0x0000000000000000000000000000000000000000000000000000000000000000"
                    }
                ],
                "storageVariables": [
                    {
                        "name": "_balances",
                        "type": "mapping(address => uint256)",
                        "value": {
                            "pairs": [
                                {
                                    "key": "0x681668833c16dd690dd073f90546fd0c6be55ef9",
                                    "value": {
                                        "current": "156250000000",
                                        "prev": "0",
                                        "typeTag": 1
                                    }
                                },
                                {
                                    "key": "0x9352522743cd8a4f949c26eca1fffb993b324be7",
                                    "value": {
                                        "current": "15379238000000",
                                        "prev": "15535488000000",
                                        "typeTag": 1
                                    }
                                }
                            ],
                            "typeTag": 4
                        }
                    }
                ]
            }
        ]
    }
}