{
    "balance_change": {
        "balanceChanges": [
            {
                "account": "0x20bea11320d844a55fc72b5a98a2afc9d99255dd",
                "assets": [
                    {
                        "address": "0xae7ab96520de3a18e5e111b5eaab095312d7fe84",
                        "amount": "0.069198779936532635",
                        "iconUrl": "https://assets.blocksec.com/icon/3968fd5c98727016afc635f2849cea0c6ddf42095e660b8a3497ee09185b175e.png",
                        "isERC1155": false,
                        "isERC721": false,
                        "sign": false,
                        "value": "207.28771326146759749"
                    },
                    {
                        "address": "0x889edc2edab5f40e902b864ad4d7ade8e412f9b1",
                        "amount": "1",
                        "iconUrl": "",
                        "isERC1155": false,
                        "isERC721": true,
                        "sign": true,
                        "tokenID": "37857",
                        "value": ""
                    }
                ]
            },
            {
                "account": "0x889edc2edab5f40e902b864ad4d7ade8e412f9b1",
                "assets": [
                    {
                        "address": "0xae7ab96520de3a18e5e111b5eaab095312d7fe84",
                        "amount": "0.069198779936532635",
                        "iconUrl": "https://assets.blocksec.com/icon/3968fd5c98727016afc635f2849cea0c6ddf42095e660b8a3497ee09185b175e.png",
                        "isERC1155": false,
                        "isERC721": false,
                        "sign": true,
                        "value": "207.28771326146759749"
                    }
                ]
            },
            {
                "account": "0x0000000000000000000000000000000000000000",
                "assets": [
                    {
                        "address": "0x889edc2edab5f40e902b864ad4d7ade8e412f9b1",
                        "amount": "1",
                        "iconUrl": "",
                        "isERC1155": false,
                        "isERC721": true,
                        "sign": false,
                        "tokenID": "37857",
                        "value": ""
                    }
                ]
            }
        ]
    },
    "profile": {
        "basic_info": {
            "baseFee": "4.173999043",
            "blockNumber": 19829917,
            "callData": "0xacf41e4d00000000000000000000000000000000000000000000000000000000000000e000000000000000000000000020bea11320d844a55fc72b5a98a2afc9d99255dd00000000000000000000000000000000000000000000000000f5d7ec7901e89bffffffffffffffffffffffffffffffffffffffffffffffffffffffffffffffff000000000000000000000000000000000000000000000000000000000000001b197713cf0afe3fe9bd16d5c387d2b4cc8f6dd393ed76d7f2c4f0ce6d674f1f3b0a911319d2b9517230685103e2ad65abf022f39ad145ef4dcb359f7bbb7c187f000000000000000000000000000000000000000000000000000000000000000100000000000000000000000000000000000000000000000000f5d7ec7901e89b",
            "debugEnable": true,
            "errorInfo": "",
            "eventCount": 6,
            "feeRecipient": "0x388c818ca8b9251b393131c08a736a67ccb19297",
            "formatValue": "0",
            "gasLimit": 275179,
            "gasPrice": "4.20227877",
            "gasUsed": 248680,
            "intTxnCount": 15,
            "internalRevert": false,
            "internalRevertMessage": "",
            "isContractCreation": false,
            "isFlashloan": false,
            "maxFee": "8.371258873",
            "nonce": 24,
            "overwritedBlockNumber": -1,
            "priorityFee": "0.028279727",
            "receiver": "0x889edc2edab5f40e902b864ad4d7ade8e412f9b1",
            "revertMessage": "",
            "sender": "0x20bea11320d844a55fc72b5a98a2afc9d99255dd",
            "simulationEnable": true,
            "sourceTxnHash": "0xd2eb0cc292885d0c46baba5ea15ac2c357d3fac6b9700e65973014303fd33777",
            "status": true,
            "timestamp": "2024-05-09T03:50:47Z",
            "transactionFee": "0.0010450226845236",
            "txnHash": "0xd2eb0cc292885d0c46baba5ea15ac2c357d3fac6b9700e65973014303fd33777",
            "txnIndex": 73,
            "type": 2,
            "value": "0"
        },
        "fund_flow": [
            {
                "amount": "0.069198779936532635",
                "from": "0x20bea11320d844a55fc72b5a98a2afc9d99255dd",
                "id": 1,
                "isERC1155": false,
                "isERC721": false,
                "isReverted": false,
                "order": 1,
                "to": "0x889edc2edab5f40e902b864ad4d7ade8e412f9b1",
                "token": "0xae7ab96520de3a18e5e111b5eaab095312d7fe84"
            },
            {
                "amount": "1",
                "from": "0x0000000000000000000000000000000000000000",
                "id": 2,
                "isERC1155": false,
                "isERC721": true,
                "isReverted": false,
                "order": 2,
                "to": "0x20bea11320d844a55fc72b5a98a2afc9d99255dd",
                "token": "0x889edc2edab5f40e902b864ad4d7ade8e412f9b1",
                "tokenID": "37857"
            }
        ],
        "token_infos": [
            {
                "address": "0xeeeeeeeeeeeeeeeeeeeeeeeeeeeeeeeeeeeeeeee",
                "decimals": 18
            },
            {
                "address": "0xae7ab96520de3a18e5e111b5eaab095312d7fe84",
                "decimals": 18
            },
            {
                "address": "0xc02aaa39b223fe8d0a0e5c4f27ead9083c756cc2",
                "decimals": 18
            }
        ]
    },
    "address_label": {
        "labels": [
            {
                "address": "0x0000000000000000000000000000000000000003",
                "label": "Precompiled"
            },
            {
                "address": "0xb8ffc3cd6e7cf5a098a1c92f48009765b24088dc",
                "label": "Lido: DAO"
            },
            {
                "address": "0xe42c659dc09109566720ea8b2de186c2be7d94d9",
                "label": "Lido: Withdrawal Queue Impl 1.0.0"
            },
            {
                "address": "0x388c818ca8b9251b393131c08a736a67ccb19297",
                "label": "LidoExecutionLayerRewardsVault"
            },
            {
                "address": "0xae7ab96520de3a18e5e111b5eaab095312d7fe84",
                "label": "Lido: stETH Token"
            },
            {
                "address": "0x8f73e4c2a6d852bb4ab2a45e6a9cf5715b3228b7",
                "label": "Lido: EIP-721 for stETH"
            },
            {
                "address": "0x889edc2edab5f40e902b864ad4d7ade8e412f9b1",
                "label": "Lido: Withdrawal Queue"
            },
            {
                "address": "0x0000000000000000000000000000000000000001",
                "label": "Precompiled"
            },
            {
                "address": "0xeeeeeeeeeeeeeeeeeeeeeeeeeeeeeeeeeeeeeeee",
                "label": "Ether"
            },
            {
                "address": "0x2b33cf282f867a7ff693a66e11b0fcc5552e4425",
                "label": "Lido: DAO Impl 1.0.0"
            },
            {
                "address": "0x17144556fd3424edc8fc8a4c940b2d04936d17eb",
                "label": "Lido: stETH Token Impl 2.0.0"
            },
            {
                "address": "0x0000000000000000000000000000000000000002",
                "label": "Precompiled"
            },
            {
                "address": "0x0000000000000000000000000000000000000004",
                "label": "Precompiled"
            }
        ]
    },
    "trace": {
        "accountLabels": null,
        "dataMap": {
            "-1": {
                "invocation": {
                    "address": "0x20bea11320d844a55fc72b5a98a2afc9d99255dd",
                    "callData": "",
                    "decodedMethod": null,
                    "errorInfo": "",
                    "fromAddress": "",
                    "gasUsed": 0,
                    "id": -1,
                    "methodDecoded": false,
                    "operation": "",
                    "output": "",
                    "revert": false,
                    "revertMessage": "",
                    "selector": "",
                    "status": false,
                    "value": ""
                },
                "nodeType": 0
            },
            "0": {
                "invocation": {
                    "address": "0x889edc2edab5f40e902b864ad4d7ade8e412f9b1",
                    "callData": "0x00000000000000000000000000000000000000000000000000000000000000e000000000000000000000000020bea11320d844a55fc72b5a98a2afc9d99255dd00000000000000000000000000000000000000000000000000f5d7ec7901e89bffffffffffffffffffffffffffffffffffffffffffffffffffffffffffffffff000000000000000000000000000000000000000000000000000000000000001b197713cf0afe3fe9bd16d5c387d2b4cc8f6dd393ed76d7f2c4f0ce6d674f1f3b0a911319d2b9517230685103e2ad65abf022f39ad145ef4dcb359f7bbb7c187f000000000000000000000000000000000000000000000000000000000000000100000000000000000000000000000000000000000000000000f5d7ec7901e89b",
                    "decodedMethod": {
                        "callParams": [
                            {
                                "name": "_amounts",
                                "type": "uint256[]",
                                "value": [
                                    "69,198,779,936,532,635"
                                ]
                            },
                            {
                                "name": "_owner",
                                "type": "address",
                                "value": "0x20bea11320d844a55fc72b5a98a2afc9d99255dd"
                            },
                            {
                                "name": "_permit",
                                "type": "(uint256,uint256,uint8,bytes32,bytes32)",
                                "value": [
                                    {
                                        "name": "value",
                                        "type": "uint256",
                                        "value": "69,198,779,936,532,635"
                                    },
                                    {
                                        "name": "deadline",
                                        "type": "uint256",
                                        "value": "115,792,089,237,316,195,423,570,985,008,687,907,853,269,984,665,640,564,039,457,584,007,913,129,639,935"
                                    },
                                    {
                                        "name": "v",
                                        "type": "uint8",
                                        "value": "27"
                                    },
                                    {
                                        "name": "r",
                                        "type": "bytes32",
                                        "value": "0x197713cf0afe3fe9bd16d5c387d2b4cc8f6dd393ed76d7f2c4f0ce6d674f1f3b"
                                    },
                                    {
                                        "name": "s",
                                        "type": "bytes32",
                                        "value": "0x0a911319d2b9517230685103e2ad65abf022f39ad145ef4dcb359f7bbb7c187f"
                                    }
                                ]
                            }
                        ],
                        "constructorArguments": "",
                        "name": "requestWithdrawalsWithPermit",
                        "returnParams": [
                            {
                                "name": "requestIds",
                                "type": "uint256[]",
                                "value": [
                                    "37,857"
                                ]
                            }
                        ],
                        "signature": "requestWithdrawalsWithPermit(uint256[],address,(uint256,uint256,uint8,bytes32,bytes32))"
                    },
                    "errorInfo": "",
                    "fromAddress": "0x20bea11320d844a55fc72b5a98a2afc9d99255dd",
                    "gasUsed": 248680,
                    "id": 0,
                    "methodDecoded": true,
                    "operation": "CALL",
                    "output": "0x0000000000000000000000000000000000000000000000000000000000000020000000000000000000000000000000000000000000000000000000000000000100000000000000000000000000000000000000000000000000000000000093e1",
                    "revert": false,
                    "revertMessage": "",
                    "selector": "0xacf41e4d",
                    "status": true,
                    "value": "0"
                },
                "nodeType": 0
            },
            "1": {
                "invocation": {
                    "address": "0xe42c659dc09109566720ea8b2de186c2be7d94d9",
                    "callData": "0x00000000000000000000000000000000000000000000000000000000000000e000000000000000000000000020bea11320d844a55fc72b5a98a2afc9d99255dd00000000000000000000000000000000000000000000000000f5d7ec7901e89bffffffffffffffffffffffffffffffffffffffffffffffffffffffffffffffff000000000000000000000000000000000000000000000000000000000000001b197713cf0afe3fe9bd16d5c387d2b4cc8f6dd393ed76d7f2c4f0ce6d674f1f3b0a911319d2b9517230685103e2ad65abf022f39ad145ef4dcb359f7bbb7c187f000000000000000000000000000000000000000000000000000000000000000100000000000000000000000000000000000000000000000000f5d7ec7901e89b",
                    "decodedMethod": {
                        "callParams": [
                            {
                                "name": "_amounts",
                                "type": "uint256[]",
                                "value": [
                                    "69,198,779,936,532,635"
                                ]
                            },
                            {
                                "name": "_owner",
                                "type": "address",
                                "value": "0x20bea11320d844a55fc72b5a98a2afc9d99255dd"
                            },
                            {
                                "name": "_permit",
                                "type": "(uint256,uint256,uint8,bytes32,bytes32)",
                                "value": [
                                    {
                                        "name": "value",
                                        "type": "uint256",
                                        "value": "69,198,779,936,532,635"
                                    },
                                    {
                                        "name": "deadline",
                                        "type": "uint256",
                                        "value": "115,792,089,237,316,195,423,570,985,008,687,907,853,269,984,665,640,564,039,457,584,007,913,129,639,935"
                                    },
                                    {
                                        "name": "v",
                                        "type": "uint8",
                                        "value": "27"
                                    },
                                    {
                                        "name": "r",
                                        "type": "bytes32",
                                        "value": "0x197713cf0afe3fe9bd16d5c387d2b4cc8f6dd393ed76d7f2c4f0ce6d674f1f3b"
                                    },
                                    {
                                        "name": "s",
                                        "type": "bytes32",
                                        "value": "0x0a911319d2b9517230685103e2ad65abf022f39ad145ef4dcb359f7bbb7c187f"
                                    }
                                ]
                            }
                        ],
                        "constructorArguments": "",
                        "name": "requestWithdrawalsWithPermit",
                        "returnParams": [
                            {
                                "name": "requestIds",
                                "type": "uint256[]",
                                "value": [
                                    "37,857"
                                ]
                            }
                        ],
                        "signature": "requestWithdrawalsWithPermit(uint256[],address,(uint256,uint256,uint8,bytes32,bytes32))"
                    },
                    "errorInfo": "",
                    "fromAddress": "0x889edc2edab5f40e902b864ad4d7ade8e412f9b1",
                    "gasUsed": 239637,
                    "id": 1,
                    "methodDecoded": true,
                    "operation": "DELEGATECALL",
                    "output": "0x0000000000000000000000000000000000000000000000000000000000000020000000000000000000000000000000000000000000000000000000000000000100000000000000000000000000000000000000000000000000000000000093e1",
                    "revert": false,
                    "revertMessage": "",
                    "selector": "0xacf41e4d",
                    "status": true,
                    "value": "0"
                },
                "nodeType": 0
            },
            "10": {
                "invocation": {
                    "address": "0xb8ffc3cd6e7cf5a098a1c92f48009765b24088dc",
                    "callData": "0xf1f3eb40f5bc1ad1344716ced8b8a0431d840b5783aea1fd01786bc26f35ac0f3ca7c3e38968823ccb4c78ea688df41356f182ae1d159e4ee608d30d68cef320",
                    "decodedMethod": {
                        "callParams": [
                            {
                                "name": "_namespace",
                                "type": "bytes32",
                                "value": "0xf1f3eb40f5bc1ad1344716ced8b8a0431d840b5783aea1fd01786bc26f35ac0f"
                            },
                            {
                                "name": "_appId",
                                "type": "bytes32",
                                "value": "0x3ca7c3e38968823ccb4c78ea688df41356f182ae1d159e4ee608d30d68cef320"
                            }
                        ],
                        "constructorArguments": "",
                        "name": "getApp",
                        "returnParams": [
                            {
                                "name": "",
                                "type": "address",
                                "value": "0x17144556fd3424edc8fc8a4c940b2d04936d17eb"
                            }
                        ],
                        "signature": "getApp(bytes32,bytes32)"
                    },
                    "errorInfo": "",
                    "fromAddress": "0xae7ab96520de3a18e5e111b5eaab095312d7fe84",
                    "gasUsed": 1763,
                    "id": 10,
                    "methodDecoded": true,
                    "operation": "CALL",
                    "output": "0x00000000000000000000000017144556fd3424edc8fc8a4c940b2d04936d17eb",
                    "revert": false,
                    "revertMessage": "",
                    "selector": "0xbe00bbd8",
                    "status": true,
                    "value": "0"
                },
                "nodeType": 0
            },
            "11": {
                "invocation": {
                    "address": "0x2b33cf282f867a7ff693a66e11b0fcc5552e4425",
                    "callData": "0xf1f3eb40f5bc1ad1344716ced8b8a0431d840b5783aea1fd01786bc26f35ac0f3ca7c3e38968823ccb4c78ea688df41356f182ae1d159e4ee608d30d68cef320",
                    "decodedMethod": {
                        "callParams": [
                            {
                                "name": "_namespace",
                                "type": "bytes32",
                                "value": "0xf1f3eb40f5bc1ad1344716ced8b8a0431d840b5783aea1fd01786bc26f35ac0f"
                            },
                            {
                                "name": "_appId",
                                "type": "bytes32",
                                "value": "0x3ca7c3e38968823ccb4c78ea688df41356f182ae1d159e4ee608d30d68cef320"
                            }
                        ],
                        "constructorArguments": "",
                        "name": "getApp",
                        "returnParams": [
                            {
                                "name": "",
                                "type": "address",
                                "value": "0x17144556fd3424edc8fc8a4c940b2d04936d17eb"
                            }
                        ],
                        "signature": "getApp(bytes32,bytes32)"
                    },
                    "errorInfo": "",
                    "fromAddress": "0xb8ffc3cd6e7cf5a098a1c92f48009765b24088dc",
                    "gasUsed": 820,
                    "id": 11,
                    "methodDecoded": true,
                    "operation": "DELEGATECALL",
                    "output": "0x00000000000000000000000017144556fd3424edc8fc8a4c940b2d04936d17eb",
                    "revert": false,
                    "revertMessage": "",
                    "selector": "0xbe00bbd8",
                    "status": true,
                    "value": "0"
                },
                "nodeType": 0
            },
            "12": {
                "invocation": {
                    "address": "0x17144556fd3424edc8fc8a4c940b2d04936d17eb",
                    "callData": "0x00000000000000000000000020bea11320d844a55fc72b5a98a2afc9d99255dd000000000000000000000000889edc2edab5f40e902b864ad4d7ade8e412f9b100000000000000000000000000000000000000000000000000f5d7ec7901e89b",
                    "decodedMethod": {
                        "callParams": [
                            {
                                "name": "_sender",
                                "type": "address",
                                "value": "0x20bea11320d844a55fc72b5a98a2afc9d99255dd"
                            },
                            {
                                "name": "_recipient",
                                "type": "address",
                                "value": "0x889edc2edab5f40e902b864ad4d7ade8e412f9b1"
                            },
                            {
                                "decimalAvailable": true,
                                "name": "_amount",
                                "type": "uint256",
                                "value": "69,198,779,936,532,635"
                            }
                        ],
                        "constructorArguments": "",
                        "name": "transferFrom",
                        "returnParams": [
                            {
                                "name": "",
                                "type": "bool",
                                "value": true
                            }
                        ],
                        "signature": "transferFrom(address,address,uint256)"
                    },
                    "errorInfo": "",
                    "fromAddress": "0xae7ab96520de3a18e5e111b5eaab095312d7fe84",
                    "gasUsed": 32617,
                    "id": 12,
                    "methodDecoded": true,
                    "operation": "DELEGATECALL",
                    "output": "0x0000000000000000000000000000000000000000000000000000000000000001",
                    "revert": false,
                    "revertMessage": "",
                    "selector": "0x23b872dd",
                    "status": true,
                    "value": "0"
                },
                "nodeType": 0
            },
            "13": {
                "event": {
                    "contract": "0xae7ab96520de3a18e5e111b5eaab095312d7fe84",
                    "decodedLog": {
                        "name": "Approval",
                        "params": [
                            {
                                "name": "owner",
                                "type": "address",
                                "value": "0x20bea11320d844a55fc72b5a98a2afc9d99255dd"
                            },
                            {
                                "name": "spender",
                                "type": "address",
                                "value": "0x889edc2edab5f40e902b864ad4d7ade8e412f9b1"
                            },
                            {
                                "decimalAvailable": true,
                                "name": "value",
                                "type": "uint256",
                                "value": "0"
                            }
                        ],
                        "signature": "Approval(address,address,uint256)"
                    },
                    "id": 13,
                    "logData": "0x0000000000000000000000000000000000000000000000000000000000000000",
                    "logDecoded": true,
                    "operation": "EVENT",
                    "revert": false,
                    "status": true,
                    "topics": [
                        "0x8c5be1e5ebec7d5bd14f71427d1e84f3dd0314c0f7b2291e5b200ac8c7c3b925",
                        "0x00000000000000000000000020bea11320d844a55fc72b5a98a2afc9d99255dd",
                        "0x000000000000000000000000889edc2edab5f40e902b864ad4d7ade8e412f9b1"
                    ]
                },
                "nodeType": 1
            },
            "14": {
                "event": {
                    "contract": "0xae7ab96520de3a18e5e111b5eaab095312d7fe84",
                    "decodedLog": {
                        "name": "Transfer",
                        "params": [
                            {
                                "name": "from",
                                "type": "address",
                                "value": "0x20bea11320d844a55fc72b5a98a2afc9d99255dd"
                            },
                            {
                                "name": "to",
                                "type": "address",
                                "value": "0x889edc2edab5f40e902b864ad4d7ade8e412f9b1"
                            },
                            {
                                "decimalAvailable": true,
                                "name": "value",
                                "type": "uint256",
                                "value": "69,198,779,936,532,635"
                            }
                        ],
                        "signature": "Transfer(address,address,uint256)"
                    },
                    "id": 14,
                    "logData": "0x00000000000000000000000000000000000000000000000000f5d7ec7901e89b",
                    "logDecoded": true,
                    "operation": "EVENT",
                    "revert": false,
                    "status": true,
                    "topics": [
                        "0xddf252ad1be2c89b69c2b068fc378daa952ba7f163c4a11628f55a4df523b3ef",
                        "0x00000000000000000000000020bea11320d844a55fc72b5a98a2afc9d99255dd",
                        "0x000000000000000000000000889edc2edab5f40e902b864ad4d7ade8e412f9b1"
                    ]
                },
                "nodeType": 1
            },
            "15": {
                "event": {
                    "contract": "0xae7ab96520de3a18e5e111b5eaab095312d7fe84",
                    "decodedLog": {
                        "name": "TransferShares",
                        "params": [
                            {
                                "name": "from",
                                "type": "address",
                                "value": "0x20bea11320d844a55fc72b5a98a2afc9d99255dd"
                            },
                            {
                                "name": "to",
                                "type": "address",
                                "value": "0x889edc2edab5f40e902b864ad4d7ade8e412f9b1"
                            },
                            {
                                "name": "sharesValue",
                                "type": "uint256",
                                "value": "59,346,004,606,341,621"
                            }
                        ],
                        "signature": "TransferShares(address,address,uint256)"
                    },
                    "id": 15,
                    "logData": "0x00000000000000000000000000000000000000000000000000d2d6e0736651f5",
                    "logDecoded": true,
                    "operation": "EVENT",
                    "revert": false,
                    "status": true,
                    "topics": [
                        "0x9d9c909296d9c674451c0c24f02cb64981eb3b727f99865939192f880a755dcb",
                        "0x00000000000000000000000020bea11320d844a55fc72b5a98a2afc9d99255dd",
                        "0x000000000000000000000000889edc2edab5f40e902b864ad4d7ade8e412f9b1"
                    ]
                },
                "nodeType": 1
            },
            "16": {
                "invocation": {
                    "address": "0xae7ab96520de3a18e5e111b5eaab095312d7fe84",
                    "callData": "0x00000000000000000000000000000000000000000000000000f5d7ec7901e89b",
                    "decodedMethod": {
                        "callParams": [
                            {
                                "name": "_ethAmount",
                                "type": "uint256",
                                "value": "69,198,779,936,532,635"
                            }
                        ],
                        "constructorArguments": "",
                        "name": "getSharesByPooledEth",
                        "returnParams": [
                            {
                                "name": "",
                                "type": "uint256",
                                "value": "59,346,004,606,341,621"
                            }
                        ],
                        "signature": "getSharesByPooledEth(uint256)"
                    },
                    "errorInfo": "",
                    "fromAddress": "0x889edc2edab5f40e902b864ad4d7ade8e412f9b1",
                    "gasUsed": 5569,
                    "id": 16,
                    "methodDecoded": true,
                    "operation": "STATICCALL",
                    "output": "0x00000000000000000000000000000000000000000000000000d2d6e0736651f5",
                    "revert": false,
                    "revertMessage": "",
                    "selector": "0x19208451",
                    "status": true,
                    "value": "0"
                },
                "nodeType": 0
            },
            "17": {
                "invocation": {
                    "address": "0xb8ffc3cd6e7cf5a098a1c92f48009765b24088dc",
                    "callData": "0xf1f3eb40f5bc1ad1344716ced8b8a0431d840b5783aea1fd01786bc26f35ac0f3ca7c3e38968823ccb4c78ea688df41356f182ae1d159e4ee608d30d68cef320",
                    "decodedMethod": {
                        "callParams": [
                            {
                                "name": "_namespace",
                                "type": "bytes32",
                                "value": "0xf1f3eb40f5bc1ad1344716ced8b8a0431d840b5783aea1fd01786bc26f35ac0f"
                            },
                            {
                                "name": "_appId",
                                "type": "bytes32",
                                "value": "0x3ca7c3e38968823ccb4c78ea688df41356f182ae1d159e4ee608d30d68cef320"
                            }
                        ],
                        "constructorArguments": "",
                        "name": "getApp",
                        "returnParams": [
                            {
                                "name": "",
                                "type": "address",
                                "value": "0x17144556fd3424edc8fc8a4c940b2d04936d17eb"
                            }
                        ],
                        "signature": "getApp(bytes32,bytes32)"
                    },
                    "errorInfo": "",
                    "fromAddress": "0xae7ab96520de3a18e5e111b5eaab095312d7fe84",
                    "gasUsed": 1763,
                    "id": 17,
                    "methodDecoded": true,
                    "operation": "CALL",
                    "output": "0x00000000000000000000000017144556fd3424edc8fc8a4c940b2d04936d17eb",
                    "revert": false,
                    "revertMessage": "",
                    "selector": "0xbe00bbd8",
                    "status": true,
                    "value": "0"
                },
                "nodeType": 0
            },
            "18": {
                "invocation": {
                    "address": "0x2b33cf282f867a7ff693a66e11b0fcc5552e4425",
                    "callData": "0xf1f3eb40f5bc1ad1344716ced8b8a0431d840b5783aea1fd01786bc26f35ac0f3ca7c3e38968823ccb4c78ea688df41356f182ae1d159e4ee608d30d68cef320",
                    "decodedMethod": {
                        "callParams": [
                            {
                                "name": "_namespace",
                                "type": "bytes32",
                                "value": "0xf1f3eb40f5bc1ad1344716ced8b8a0431d840b5783aea1fd01786bc26f35ac0f"
                            },
                            {
                                "name": "_appId",
                                "type": "bytes32",
                                "value": "0x3ca7c3e38968823ccb4c78ea688df41356f182ae1d159e4ee608d30d68cef320"
                            }
                        ],
                        "constructorArguments": "",
                        "name": "getApp",
                        "returnParams": [
                            {
                                "name": "",
                                "type": "address",
                                "value": "0x17144556fd3424edc8fc8a4c940b2d04936d17eb"
                            }
                        ],
                        "signature": "getApp(bytes32,bytes32)"
                    },
                    "errorInfo": "",
                    "fromAddress": "0xb8ffc3cd6e7cf5a098a1c92f48009765b24088dc",
                    "gasUsed": 820,
                    "id": 18,
                    "methodDecoded": true,
                    "operation": "DELEGATECALL",
                    "output": "0x00000000000000000000000017144556fd3424edc8fc8a4c940b2d04936d17eb",
                    "revert": false,
                    "revertMessage": "",
                    "selector": "0xbe00bbd8",
                    "status": true,
                    "value": "0"
                },
                "nodeType": 0
            },
            "19": {
                "invocation": {
                    "address": "0x17144556fd3424edc8fc8a4c940b2d04936d17eb",
                    "callData": "0x00000000000000000000000000000000000000000000000000f5d7ec7901e89b",
                    "decodedMethod": {
                        "callParams": [
                            {
                                "name": "_ethAmount",
                                "type": "uint256",
                                "value": "69,198,779,936,532,635"
                            }
                        ],
                        "constructorArguments": "",
                        "name": "getSharesByPooledEth",
                        "returnParams": [
                            {
                                "name": "",
                                "type": "uint256",
                                "value": "59,346,004,606,341,621"
                            }
                        ],
                        "signature": "getSharesByPooledEth(uint256)"
                    },
                    "errorInfo": "",
                    "fromAddress": "0xae7ab96520de3a18e5e111b5eaab095312d7fe84",
                    "gasUsed": 2189,
                    "id": 19,
                    "methodDecoded": true,
                    "operation": "DELEGATECALL",
                    "output": "0x00000000000000000000000000000000000000000000000000d2d6e0736651f5",
                    "revert": false,
                    "revertMessage": "",
                    "selector": "0x19208451",
                    "status": true,
                    "value": "0"
                },
                "nodeType": 0
            },
            "2": {
                "invocation": {
                    "address": "0xae7ab96520de3a18e5e111b5eaab095312d7fe84",
                    "callData": "0x00000000000000000000000020bea11320d844a55fc72b5a98a2afc9d99255dd000000000000000000000000889edc2edab5f40e902b864ad4d7ade8e412f9b100000000000000000000000000000000000000000000000000f5d7ec7901e89bffffffffffffffffffffffffffffffffffffffffffffffffffffffffffffffff000000000000000000000000000000000000000000000000000000000000001b197713cf0afe3fe9bd16d5c387d2b4cc8f6dd393ed76d7f2c4f0ce6d674f1f3b0a911319d2b9517230685103e2ad65abf022f39ad145ef4dcb359f7bbb7c187f",
                    "decodedMethod": {
                        "callParams": [
                            {
                                "name": "owner",
                                "type": "address",
                                "value": "0x20bea11320d844a55fc72b5a98a2afc9d99255dd"
                            },
                            {
                                "name": "spender",
                                "type": "address",
                                "value": "0x889edc2edab5f40e902b864ad4d7ade8e412f9b1"
                            },
                            {
                                "name": "value",
                                "type": "uint256",
                                "value": "69,198,779,936,532,635"
                            },
                            {
                                "name": "deadline",
                                "type": "uint256",
                                "value": "115,792,089,237,316,195,423,570,985,008,687,907,853,269,984,665,640,564,039,457,584,007,913,129,639,935"
                            },
                            {
                                "name": "v",
                                "type": "uint8",
                                "value": "27"
                            },
                            {
                                "name": "r",
                                "type": "bytes32",
                                "value": "0x197713cf0afe3fe9bd16d5c387d2b4cc8f6dd393ed76d7f2c4f0ce6d674f1f3b"
                            },
                            {
                                "name": "s",
                                "type": "bytes32",
                                "value": "0x0a911319d2b9517230685103e2ad65abf022f39ad145ef4dcb359f7bbb7c187f"
                            }
                        ],
                        "constructorArguments": "",
                        "name": "permit",
                        "returnParams": [],
                        "signature": "permit(address,address,uint256,uint256,uint8,bytes32,bytes32)"
                    },
                    "errorInfo": "",
                    "fromAddress": "0x889edc2edab5f40e902b864ad4d7ade8e412f9b1",
                    "gasUsed": 61313,
                    "id": 2,
                    "methodDecoded": true,
                    "operation": "CALL",
                    "output": "",
                    "revert": false,
                    "revertMessage": "",
                    "selector": "0xd505accf",
                    "status": true,
                    "value": "0"
                },
                "nodeType": 0
            },
            "20": {
                "event": {
                    "contract": "0x889edc2edab5f40e902b864ad4d7ade8e412f9b1",
                    "decodedLog": {
                        "name": "WithdrawalRequested",
                        "params": [
                            {
                                "name": "requestId",
                                "type": "uint256",
                                "value": "37,857"
                            },
                            {
                                "name": "requestor",
                                "type": "address",
                                "value": "0x20bea11320d844a55fc72b5a98a2afc9d99255dd"
                            },
                            {
                                "name": "owner",
                                "type": "address",
                                "value": "0x20bea11320d844a55fc72b5a98a2afc9d99255dd"
                            },
                            {
                                "name": "amountOfStETH",
                                "type": "uint256",
                                "value": "69,198,779,936,532,635"
                            },
                            {
                                "name": "amountOfShares",
                                "type": "uint256",
                                "value": "59,346,004,606,341,621"
                            }
                        ],
                        "signature": "WithdrawalRequested(uint256,address,address,uint256,uint256)"
                    },
                    "id": 20,
                    "logData": "0x00000000000000000000000000000000000000000000000000f5d7ec7901e89b00000000000000000000000000000000000000000000000000d2d6e0736651f5",
                    "logDecoded": true,
                    "operation": "EVENT",
                    "revert": false,
                    "status": true,
                    "topics": [
                        "0xf0cb471f23fb74ea44b8252eb1881a2dca546288d9f6e90d1a0e82fe0ed342ab",
                        "0x00000000000000000000000000000000000000000000000000000000000093e1",
                        "0x00000000000000000000000020bea11320d844a55fc72b5a98a2afc9d99255dd",
                        "0x00000000000000000000000020bea11320d844a55fc72b5a98a2afc9d99255dd"
                    ]
                },
                "nodeType": 1
            },
            "21": {
                "event": {
                    "contract": "0x889edc2edab5f40e902b864ad4d7ade8e412f9b1",
                    "decodedLog": {
                        "name": "Transfer",
                        "params": [
                            {
                                "name": "from",
                                "type": "address",
                                "value": "0x0000000000000000000000000000000000000000"
                            },
                            {
                                "name": "to",
                                "type": "address",
                                "value": "0x20bea11320d844a55fc72b5a98a2afc9d99255dd"
                            },
                            {
                                "decimalAvailable": true,
                                "name": "tokenId",
                                "type": "uint256",
                                "value": "37,857"
                            }
                        ],
                        "signature": "Transfer(address,address,uint256)"
                    },
                    "id": 21,
                    "logData": "0x",
                    "logDecoded": true,
                    "operation": "EVENT",
                    "revert": false,
                    "status": true,
                    "topics": [
                        "0xddf252ad1be2c89b69c2b068fc378daa952ba7f163c4a11628f55a4df523b3ef",
                        "0x0000000000000000000000000000000000000000000000000000000000000000",
                        "0x00000000000000000000000020bea11320d844a55fc72b5a98a2afc9d99255dd",
                        "0x00000000000000000000000000000000000000000000000000000000000093e1"
                    ]
                },
                "nodeType": 1
            },
            "3": {
                "invocation": {
                    "address": "0xb8ffc3cd6e7cf5a098a1c92f48009765b24088dc",
                    "callData": "0xf1f3eb40f5bc1ad1344716ced8b8a0431d840b5783aea1fd01786bc26f35ac0f3ca7c3e38968823ccb4c78ea688df41356f182ae1d159e4ee608d30d68cef320",
                    "decodedMethod": {
                        "callParams": [
                            {
                                "name": "_namespace",
                                "type": "bytes32",
                                "value": "0xf1f3eb40f5bc1ad1344716ced8b8a0431d840b5783aea1fd01786bc26f35ac0f"
                            },
                            {
                                "name": "_appId",
                                "type": "bytes32",
                                "value": "0x3ca7c3e38968823ccb4c78ea688df41356f182ae1d159e4ee608d30d68cef320"
                            }
                        ],
                        "constructorArguments": "",
                        "name": "getApp",
                        "returnParams": [
                            {
                                "name": "",
                                "type": "address",
                                "value": "0x17144556fd3424edc8fc8a4c940b2d04936d17eb"
                            }
                        ],
                        "signature": "getApp(bytes32,bytes32)"
                    },
                    "errorInfo": "",
                    "fromAddress": "0xae7ab96520de3a18e5e111b5eaab095312d7fe84",
                    "gasUsed": 8263,
                    "id": 3,
                    "methodDecoded": true,
                    "operation": "CALL",
                    "output": "0x00000000000000000000000017144556fd3424edc8fc8a4c940b2d04936d17eb",
                    "revert": false,
                    "revertMessage": "",
                    "selector": "0xbe00bbd8",
                    "status": true,
                    "value": "0"
                },
                "nodeType": 0
            },
            "4": {
                "invocation": {
                    "address": "0x2b33cf282f867a7ff693a66e11b0fcc5552e4425",
                    "callData": "0xf1f3eb40f5bc1ad1344716ced8b8a0431d840b5783aea1fd01786bc26f35ac0f3ca7c3e38968823ccb4c78ea688df41356f182ae1d159e4ee608d30d68cef320",
                    "decodedMethod": {
                        "callParams": [
                            {
                                "name": "_namespace",
                                "type": "bytes32",
                                "value": "0xf1f3eb40f5bc1ad1344716ced8b8a0431d840b5783aea1fd01786bc26f35ac0f"
                            },
                            {
                                "name": "_appId",
                                "type": "bytes32",
                                "value": "0x3ca7c3e38968823ccb4c78ea688df41356f182ae1d159e4ee608d30d68cef320"
                            }
                        ],
                        "constructorArguments": "",
                        "name": "getApp",
                        "returnParams": [
                            {
                                "name": "",
                                "type": "address",
                                "value": "0x17144556fd3424edc8fc8a4c940b2d04936d17eb"
                            }
                        ],
                        "signature": "getApp(bytes32,bytes32)"
                    },
                    "errorInfo": "",
                    "fromAddress": "0xb8ffc3cd6e7cf5a098a1c92f48009765b24088dc",
                    "gasUsed": 2820,
                    "id": 4,
                    "methodDecoded": true,
                    "operation": "DELEGATECALL",
                    "output": "0x00000000000000000000000017144556fd3424edc8fc8a4c940b2d04936d17eb",
                    "revert": false,
                    "revertMessage": "",
                    "selector": "0xbe00bbd8",
                    "status": true,
                    "value": "0"
                },
                "nodeType": 0
            },
            "5": {
                "invocation": {
                    "address": "0x17144556fd3424edc8fc8a4c940b2d04936d17eb",
                    "callData": "0x00000000000000000000000020bea11320d844a55fc72b5a98a2afc9d99255dd000000000000000000000000889edc2edab5f40e902b864ad4d7ade8e412f9b100000000000000000000000000000000000000000000000000f5d7ec7901e89bffffffffffffffffffffffffffffffffffffffffffffffffffffffffffffffff000000000000000000000000000000000000000000000000000000000000001b197713cf0afe3fe9bd16d5c387d2b4cc8f6dd393ed76d7f2c4f0ce6d674f1f3b0a911319d2b9517230685103e2ad65abf022f39ad145ef4dcb359f7bbb7c187f",
                    "decodedMethod": {
                        "callParams": [
                            {
                                "name": "_owner",
                                "type": "address",
                                "value": "0x20bea11320d844a55fc72b5a98a2afc9d99255dd"
                            },
                            {
                                "name": "_spender",
                                "type": "address",
                                "value": "0x889edc2edab5f40e902b864ad4d7ade8e412f9b1"
                            },
                            {
                                "name": "_value",
                                "type": "uint256",
                                "value": "69,198,779,936,532,635"
                            },
                            {
                                "name": "_deadline",
                                "type": "uint256",
                                "value": "115,792,089,237,316,195,423,570,985,008,687,907,853,269,984,665,640,564,039,457,584,007,913,129,639,935"
                            },
                            {
                                "name": "_v",
                                "type": "uint8",
                                "value": "27"
                            },
                            {
                                "name": "_r",
                                "type": "bytes32",
                                "value": "0x197713cf0afe3fe9bd16d5c387d2b4cc8f6dd393ed76d7f2c4f0ce6d674f1f3b"
                            },
                            {
                                "name": "_s",
                                "type": "bytes32",
                                "value": "0x0a911319d2b9517230685103e2ad65abf022f39ad145ef4dcb359f7bbb7c187f"
                            }
                        ],
                        "constructorArguments": "",
                        "name": "permit",
                        "returnParams": [],
                        "signature": "permit(address,address,uint256,uint256,uint8,bytes32,bytes32)"
                    },
                    "errorInfo": "",
                    "fromAddress": "0xae7ab96520de3a18e5e111b5eaab095312d7fe84",
                    "gasUsed": 42403,
                    "id": 5,
                    "methodDecoded": true,
                    "operation": "DELEGATECALL",
                    "output": "",
                    "revert": false,
                    "revertMessage": "",
                    "selector": "0xd505accf",
                    "status": true,
                    "value": "0"
                },
                "nodeType": 0
            },
            "6": {
                "invocation": {
                    "address": "0x8f73e4c2a6d852bb4ab2a45e6a9cf5715b3228b7",
                    "callData": "0x000000000000000000000000ae7ab96520de3a18e5e111b5eaab095312d7fe84b2d38582e8dd4455ba392f7e37976e728d4107980f8c2dca86488324140ec7d9",
                    "decodedMethod": {
                        "callParams": [
                            {
                                "name": "_stETH",
                                "type": "address",
                                "value": "0xae7ab96520de3a18e5e111b5eaab095312d7fe84"
                            },
                            {
                                "name": "_structHash",
                                "type": "bytes32",
                                "value": "0xb2d38582e8dd4455ba392f7e37976e728d4107980f8c2dca86488324140ec7d9"
                            }
                        ],
                        "constructorArguments": "",
                        "name": "hashTypedDataV4",
                        "returnParams": [
                            {
                                "name": "",
                                "type": "bytes32",
                                "value": "0xe6689e42b82b41498c6262f121c80f9c872f00703e1013e1b6b77bddb7aaad6d"
                            }
                        ],
                        "signature": "hashTypedDataV4(address,bytes32)"
                    },
                    "errorInfo": "",
                    "fromAddress": "0xae7ab96520de3a18e5e111b5eaab095312d7fe84",
                    "gasUsed": 712,
                    "id": 6,
                    "methodDecoded": true,
                    "operation": "CALL",
                    "output": "0xe6689e42b82b41498c6262f121c80f9c872f00703e1013e1b6b77bddb7aaad6d",
                    "revert": false,
                    "revertMessage": "",
                    "selector": "0x804e5eb3",
                    "status": true,
                    "value": "0"
                },
                "nodeType": 0
            },
            "7": {
                "invocation": {
                    "address": "0x0000000000000000000000000000000000000001",
                    "callData": "0xb82b41498c6262f121c80f9c872f00703e1013e1b6b77bddb7aaad6d000000000000000000000000000000000000000000000000000000000000001b197713cf0afe3fe9bd16d5c387d2b4cc8f6dd393ed76d7f2c4f0ce6d674f1f3b0a911319d2b9517230685103e2ad65abf022f39ad145ef4dcb359f7bbb7c187f",
                    "decodedMethod": {
                        "callParams": [
                            {
                                "name": "hash",
                                "type": "bytes32",
                                "value": "0xe6689e42b82b41498c6262f121c80f9c872f00703e1013e1b6b77bddb7aaad6d"
                            },
                            {
                                "name": "v",
                                "type": "uint256",
                                "value": "27"
                            },
                            {
                                "name": "r",
                                "type": "bytes32",
                                "value": "0x197713cf0afe3fe9bd16d5c387d2b4cc8f6dd393ed76d7f2c4f0ce6d674f1f3b"
                            },
                            {
                                "name": "s",
                                "type": "bytes32",
                                "value": "0x0a911319d2b9517230685103e2ad65abf022f39ad145ef4dcb359f7bbb7c187f"
                            }
                        ],
                        "constructorArguments": "",
                        "name": "ecrecover",
                        "returnParams": [
                            {
                                "name": "",
                                "type": "address",
                                "value": "0x20bea11320d844a55fc72b5a98a2afc9d99255dd"
                            }
                        ],
                        "signature": "ecrecover(bytes32,uint256,bytes32,bytes32)"
                    },
                    "errorInfo": "",
                    "fromAddress": "0xae7ab96520de3a18e5e111b5eaab095312d7fe84",
                    "gasUsed": 3000,
                    "id": 7,
                    "methodDecoded": true,
                    "operation": "CALL",
                    "output": "0x00000000000000000000000020bea11320d844a55fc72b5a98a2afc9d99255dd",
                    "revert": false,
                    "revertMessage": "",
                    "selector": "0xe6689e42",
                    "status": true,
                    "value": "0"
                },
                "nodeType": 0
            },
            "8": {
                "event": {
                    "contract": "0xae7ab96520de3a18e5e111b5eaab095312d7fe84",
                    "decodedLog": {
                        "name": "Approval",
                        "params": [
                            {
                                "name": "owner",
                                "type": "address",
                                "value": "0x20bea11320d844a55fc72b5a98a2afc9d99255dd"
                            },
                            {
                                "name": "spender",
                                "type": "address",
                                "value": "0x889edc2edab5f40e902b864ad4d7ade8e412f9b1"
                            },
                            {
                                "decimalAvailable": true,
                                "name": "value",
                                "type": "uint256",
                                "value": "69,198,779,936,532,635"
                            }
                        ],
                        "signature": "Approval(address,address,uint256)"
                    },
                    "id": 8,
                    "logData": "0x00000000000000000000000000000000000000000000000000f5d7ec7901e89b",
                    "logDecoded": true,
                    "operation": "EVENT",
                    "revert": false,
                    "status": true,
                    "topics": [
                        "0x8c5be1e5ebec7d5bd14f71427d1e84f3dd0314c0f7b2291e5b200ac8c7c3b925",
                        "0x00000000000000000000000020bea11320d844a55fc72b5a98a2afc9d99255dd",
                        "0x000000000000000000000000889edc2edab5f40e902b864ad4d7ade8e412f9b1"
                    ]
                },
                "nodeType": 1
            },
            "9": {
                "invocation": {
                    "address": "0xae7ab96520de3a18e5e111b5eaab095312d7fe84",
                    "callData": "0x00000000000000000000000020bea11320d844a55fc72b5a98a2afc9d99255dd000000000000000000000000889edc2edab5f40e902b864ad4d7ade8e412f9b100000000000000000000000000000000000000000000000000f5d7ec7901e89b",
                    "decodedMethod": {
                        "callParams": [
                            {
                                "name": "sender",
                                "type": "address",
                                "value": "0x20bea11320d844a55fc72b5a98a2afc9d99255dd"
                            },
                            {
                                "name": "recipient",
                                "type": "address",
                                "value": "0x889edc2edab5f40e902b864ad4d7ade8e412f9b1"
                            },
                            {
                                "decimalAvailable": true,
                                "name": "amount",
                                "type": "uint256",
                                "value": "69,198,779,936,532,635"
                            }
                        ],
                        "constructorArguments": "",
                        "name": "transferFrom",
                        "returnParams": [
                            {
                                "name": "",
                                "type": "bool",
                                "value": true
                            }
                        ],
                        "signature": "transferFrom(address,address,uint256)"
                    },
                    "errorInfo": "",
                    "fromAddress": "0x889edc2edab5f40e902b864ad4d7ade8e412f9b1",
                    "gasUsed": 36009,
                    "id": 9,
                    "methodDecoded": true,
                    "operation": "CALL",
                    "output": "0x0000000000000000000000000000000000000000000000000000000000000001",
                    "revert": false,
                    "revertMessage": "",
                    "selector": "0x23b872dd",
                    "status": true,
                    "value": "0"
                },
                "nodeType": 0
            }
        },
        "gasFlame": [
            {
                "children": [
                    {
                        "children": [
                            {
                                "children": [],
                                "depth": 0,
                                "name": "Initial Gas",
                                "value": 23812
                            },
                            {
                                "children": [
                                    {
                                        "children": [
                                            {
                                                "children": [
                                                    {
                                                        "children": [
                                                            {
                                                                "children": [],
                                                                "depth": 4,
                                                                "name": "getApp",
                                                                "value": 2820
                                                            }
                                                        ],
                                                        "depth": 3,
                                                        "name": "getApp",
                                                        "value": 8263
                                                    },
                                                    {
                                                        "children": [
                                                            {
                                                                "children": [],
                                                                "depth": 4,
                                                                "name": "hashTypedDataV4",
                                                                "value": 712
                                                            },
                                                            {
                                                                "children": [],
                                                                "depth": 4,
                                                                "name": "ecrecover",
                                                                "value": 3000
                                                            }
                                                        ],
                                                        "depth": 3,
                                                        "name": "permit",
                                                        "value": 42403
                                                    }
                                                ],
                                                "depth": 2,
                                                "name": "permit",
                                                "value": 61313
                                            },
                                            {
                                                "children": [
                                                    {
                                                        "children": [
                                                            {
                                                                "children": [],
                                                                "depth": 4,
                                                                "name": "getApp",
                                                                "value": 820
                                                            }
                                                        ],
                                                        "depth": 3,
                                                        "name": "getApp",
                                                        "value": 1763
                                                    },
                                                    {
                                                        "children": [],
                                                        "depth": 3,
                                                        "name": "transferFrom",
                                                        "value": 32617
                                                    }
                                                ],
                                                "depth": 2,
                                                "name": "transferFrom",
                                                "value": 36009
                                            },
                                            {
                                                "children": [
                                                    {
                                                        "children": [
                                                            {
                                                                "children": [],
                                                                "depth": 4,
                                                                "name": "getApp",
                                                                "value": 820
                                                            }
                                                        ],
                                                        "depth": 3,
                                                        "name": "getApp",
                                                        "value": 1763
                                                    },
                                                    {
                                                        "children": [],
                                                        "depth": 3,
                                                        "name": "getSharesByPooledEth",
                                                        "value": 2189
                                                    }
                                                ],
                                                "depth": 2,
                                                "name": "getSharesByPooledEth",
                                                "value": 5569
                                            }
                                        ],
                                        "depth": 1,
                                        "name": "requestWithdrawalsWithPermit",
                                        "value": 239637
                                    }
                                ],
                                "depth": 0,
                                "name": "Executed Gas",
                                "value": 244768
                            }
                        ],
                        "depth": -1,
                        "name": "Actual Gas Used",
                        "value": 248680
                    },
                    {
                        "children": [],
                        "depth": -1,
                        "name": "Refunded Gas",
                        "value": 19900
                    }
                ],
                "depth": -2,
                "name": "Total Gas",
                "value": 268580
            }
        ],
        "isConfirmed": true,
        "mainTrace": [
            {
                "children": [
                    {
                        "children": [
                            {
                                "children": [
                                    {
                                        "children": [
                                            {
                                                "children": [
                                                    {
                                                        "children": [],
                                                        "depth": 4,
                                                        "id": 4,
                                                        "order": 4
                                                    }
                                                ],
                                                "depth": 3,
                                                "id": 3,
                                                "order": 3
                                            },
                                            {
                                                "children": [
                                                    {
                                                        "children": [],
                                                        "depth": 4,
                                                        "id": 6,
                                                        "order": 6
                                                    },
                                                    {
                                                        "children": [],
                                                        "depth": 4,
                                                        "id": 7,
                                                        "order": 7
                                                    },
                                                    {
                                                        "children": [],
                                                        "depth": 4,
                                                        "id": 8,
                                                        "order": 8
                                                    }
                                                ],
                                                "depth": 3,
                                                "id": 5,
                                                "order": 5
                                            }
                                        ],
                                        "depth": 2,
                                        "id": 2,
                                        "order": 2
                                    },
                                    {
                                        "children": [
                                            {
                                                "children": [
                                                    {
                                                        "children": [],
                                                        "depth": 4,
                                                        "id": 11,
                                                        "order": 11
                                                    }
                                                ],
                                                "depth": 3,
                                                "id": 10,
                                                "order": 10
                                            },
                                            {
                                                "children": [
                                                    {
                                                        "children": [],
                                                        "depth": 4,
                                                        "id": 13,
                                                        "order": 13
                                                    },
                                                    {
                                                        "children": [],
                                                        "depth": 4,
                                                        "id": 14,
                                                        "order": 14
                                                    },
                                                    {
                                                        "children": [],
                                                        "depth": 4,
                                                        "id": 15,
                                                        "order": 15
                                                    }
                                                ],
                                                "depth": 3,
                                                "id": 12,
                                                "order": 12
                                            }
                                        ],
                                        "depth": 2,
                                        "id": 9,
                                        "order": 9
                                    },
                                    {
                                        "children": [
                                            {
                                                "children": [
                                                    {
                                                        "children": [],
                                                        "depth": 4,
                                                        "id": 18,
                                                        "order": 18
                                                    }
                                                ],
                                                "depth": 3,
                                                "id": 17,
                                                "order": 17
                                            },
                                            {
                                                "children": [],
                                                "depth": 3,
                                                "id": 19,
                                                "order": 19
                                            }
                                        ],
                                        "depth": 2,
                                        "id": 16,
                                        "order": 16
                                    },
                                    {
                                        "children": [],
                                        "depth": 2,
                                        "id": 20,
                                        "order": 20
                                    },
                                    {
                                        "children": [],
                                        "depth": 2,
                                        "id": 21,
                                        "order": 21
                                    }
                                ],
                                "depth": 1,
                                "id": 1,
                                "order": 1
                            }
                        ],
                        "depth": 0,
                        "id": 0,
                        "order": 0
                    }
                ],
                "depth": -1,
                "id": -1,
                "order": -1
            }
        ],
        "mainTraceNodeCount": 22,
        "parentIdMap": {
            "0": -1,
            "1": 0,
            "10": 9,
            "11": 10,
            "12": 9,
            "13": 12,
            "14": 12,
            "15": 12,
            "16": 1,
            "17": 16,
            "18": 17,
            "19": 16,
            "2": 1,
            "20": 1,
            "21": 1,
            "3": 2,
            "4": 3,
            "5": 2,
            "6": 5,
            "7": 5,
            "8": 5,
            "9": 1
        },
        "tidyTrace": [
            {
                "children": [
                    {
                        "children": [
                            {
                                "children": [
                                    {
                                        "children": [
                                            {
                                                "children": [
                                                    {
                                                        "children": [],
                                                        "depth": 4,
                                                        "id": 4,
                                                        "order": 4
                                                    }
                                                ],
                                                "depth": 3,
                                                "id": 3,
                                                "order": 3
                                            },
                                            {
                                                "children": [
                                                    {
                                                        "children": [],
                                                        "depth": 4,
                                                        "id": 6,
                                                        "order": 6
                                                    },
                                                    {
                                                        "children": [],
                                                        "depth": 4,
                                                        "id": 7,
                                                        "order": 7
                                                    },
                                                    {
                                                        "children": [],
                                                        "depth": 4,
                                                        "id": 8,
                                                        "order": 8
                                                    }
                                                ],
                                                "depth": 3,
                                                "id": 5,
                                                "order": 5
                                            }
                                        ],
                                        "depth": 2,
                                        "id": 2,
                                        "order": 2
                                    },
                                    {
                                        "children": [
                                            {
                                                "children": [
                                                    {
                                                        "children": [],
                                                        "depth": 4,
                                                        "id": 11,
                                                        "order": 11
                                                    }
                                                ],
                                                "depth": 3,
                                                "id": 10,
                                                "order": 10
                                            },
                                            {
                                                "children": [
                                                    {
                                                        "children": [],
                                                        "depth": 4,
                                                        "id": 13,
                                                        "order": 13
                                                    },
                                                    {
                                                        "children": [],
                                                        "depth": 4,
                                                        "id": 14,
                                                        "order": 14
                                                    },
                                                    {
                                                        "children": [],
                                                        "depth": 4,
                                                        "id": 15,
                                                        "order": 15
                                                    }
                                                ],
                                                "depth": 3,
                                                "id": 12,
                                                "order": 12
                                            }
                                        ],
                                        "depth": 2,
                                        "id": 9,
                                        "order": 9
                                    },
                                    {
                                        "children": [],
                                        "depth": 2,
                                        "id": 20,
                                        "order": 20
                                    },
                                    {
                                        "children": [],
                                        "depth": 2,
                                        "id": 21,
                                        "order": 21
                                    }
                                ],
                                "depth": 1,
                                "id": 1,
                                "order": 1
                            }
                        ],
                        "depth": 0,
                        "id": 0,
                        "order": 0
                    }
                ],
                "depth": -1,
                "id": -1,
                "order": -1
            }
        ],
        "tidyTraceNodeCount": 18
    },
    "state_change": {
        "stateChanges": [
            {
                "address": "0x889edc2edab5f40e902b864ad4d7ade8e412f9b1",
                "erc": "ERC-721",
                "slots": [
                    {
                        "current": "0x00000000000000000000000000000000000000000000000000000000000093e1",
                        "key": "0x8ee26abbbdf533de3953ccf2204279e845eecb5ab51f8398522746e4ea068041",
                        "prev": "0x00000000000000000000000000000000000000000000000000000000000093e0"
                    },
                    {
                        "current": "0x000000000003ee9c5b2640410422fdc900000000000483fb73dd732ecf74651e",
                        "key": "0x5944e8f4333bf5f64eaad1945b14fa9b30fe5513a50e788b25dba316c73cb8da",
                        "prev": "0x0000000000000000000000000000000000000000000000000000000000000000"
                    },
                    {
                        "current": "0x0000663b694b0000663c481720bea11320d844a55fc72b5a98a2afc9d99255dd",
                        "key": "0x5944e8f4333bf5f64eaad1945b14fa9b30fe5513a50e788b25dba316c73cb8db",
                        "prev": "0x0000000000000000000000000000000000000000000000000000000000000000"
                    },
                    {
                        "current": "0x0000000000000000000000000000000000000000000000000000000000000001",
                        "key": "0xcef9e738b2d2816c27c20e51a4d38c41e064bd1a4f8eb29b7953556afe816ed8",
                        "prev": "0x0000000000000000000000000000000000000000000000000000000000000000"
                    },
                    {
                        "current": "0x00000000000000000000000000000000000000000000000000000000000093e1",
                        "key": "0x7f0bb3c1c58c8e7393ab7152625e85e290d44ce6c1342bdb197645b4e2193153",
                        "prev": "0x0000000000000000000000000000000000000000000000000000000000000000"
                    },
                    {
                        "current": "0x0000000000000000000000000000000000000000000000000000000000000001",
                        "key": "0x4b762cfeca72d32d71768c25be187ae195a419c97b94782137e75c667122e7f8",
                        "prev": "0x0000000000000000000000000000000000000000000000000000000000000000"
                    }
                ],
                "storageVariables": []
            },
            {
                "address": "0xae7ab96520de3a18e5e111b5eaab095312d7fe84",
                "erc": "",
                "slots": [
                    {
                        "current": "0x000000000000000000000000000000000000000000000000ee094e6820758eb5",
                        "key": "0x663433c1f796f934c6c65e1f3ae67e25e2bac2f536a14e6a6ccc9efe9a2c62b4",
                        "prev": "0x000000000000000000000000000000000000000000000000eedc254893dbe0aa"
                    },
                    {
                        "current": "0x0000000000000000000000000000000000000000000001a1a2337e2b16ea918c",
                        "key": "0xbf40b40c2d8cc30b4b94c3c1872358ef51e98c985fbfa4631c6b8d4bec6ee40b",
                        "prev": "0x0000000000000000000000000000000000000000000001a1a160a74aa3843f97"
                    },
                    {
                        "current": "0x0000000000000000000000000000000000000000000000000000000000000005",
                        "key": "0x25c7fa99c06f42a2cb2cb11fba650eb2a2914fba856da171232df1aa5a25342a",
                        "prev": "0x0000000000000000000000000000000000000000000000000000000000000004"
                    }
                ],
                "storageVariables": []
            }
        ]
    }
}