{
    "balance_change": {
        "balanceChanges": [
            {
                "account": "0x8ddf6adbf0dffb6c63781ae0f629eb95d55a9efd",
                "assets": [
                    {
                        "address": "0xeeeeeeeeeeeeeeeeeeeeeeeeeeeeeeeeeeeeeeee",
                        "amount": "0.1",
                        "iconUrl": "https://assets.blocksec.com/image/1663669189317-3.png",
                        "isERC1155": false,
                        "isERC721": false,
                        "sign": false,
                        "value": "59.58481882"
                    }
                ]
            },
            {
                "account": "0x4e619a5ebdbaa2841147cff03980b95740a19f87",
                "assets": [
                    {
                        "address": "0xeeeeeeeeeeeeeeeeeeeeeeeeeeeeeeeeeeeeeeee",
                        "amount": "0.1",
                        "iconUrl": "https://assets.blocksec.com/image/1663669189317-3.png",
                        "isERC1155": false,
                        "isERC721": false,
                        "sign": true,
                        "value": "59.58481882"
                    }
                ]
            }
        ]
    },
    "profile": {
        "basic_info": {
            "baseFee": "",
            "blockNumber": 11316194,
            "callData": "0xbe389d5700000000000000000000000000000000000000000000000000000000000000010000000000000000000000000000000000000000000000000000000000000003",
            "debugEnable": true,
            "errorInfo": "",
            "eventCount": 2,
            "feeRecipient": "0x5a0b54d5dc17e0aadc383d2db43b0a0d3e029c4c",
            "formatValue": "0.1",
            "gasLimit": 128285,
            "gasPrice": "68",
            "gasUsed": 128222,
            "intTxnCount": 1,
            "internalRevert": false,
            "internalRevertMessage": "",
            "isContractCreation": false,
            "isFlashloan": false,
            "maxFee": "",
            "nonce": 3,
            "overwritedBlockNumber": -1,
            "priorityFee": "",
            "receiver": "0x5acc84a3e955bdd76467d3348077d003f00ffb97",
            "revertMessage": "",
            "sender": "0x8ddf6adbf0dffb6c63781ae0f629eb95d55a9efd",
            "simulationEnable": true,
            "sourceTxnHash": "0xd27e7c867aea54f405a1b6c624f837494fb55f69fbfacc549bb6c3adb20e7fdc",
            "status": true,
            "timestamp": "2020-11-23T18:53:36Z",
            "transactionFee": "0.008719096",
            "txnHash": "0xd27e7c867aea54f405a1b6c624f837494fb55f69fbfacc549bb6c3adb20e7fdc",
            "txnIndex": 30,
            "type": 0,
            "value": "100000000000000000"
        },
        "fund_flow": [
            {
                "amount": "0.1",
                "from": "0x8ddf6adbf0dffb6c63781ae0f629eb95d55a9efd",
                "id": 1,
                "isERC1155": false,
                "isERC721": false,
                "isReverted": false,
                "order": 1,
                "to": "0x5acc84a3e955bdd76467d3348077d003f00ffb97",
                "token": "0xeeeeeeeeeeeeeeeeeeeeeeeeeeeeeeeeeeeeeeee"
            },
            {
                "amount": "0.1",
                "from": "0x5acc84a3e955bdd76467d3348077d003f00ffb97",
                "id": 2,
                "isERC1155": false,
                "isERC721": false,
                "isReverted": false,
                "order": 2,
                "to": "0x4e619a5ebdbaa2841147cff03980b95740a19f87",
                "token": "0xeeeeeeeeeeeeeeeeeeeeeeeeeeeeeeeeeeeeeeee"
            }
        ],
        "token_infos": [
            {
                "address": "0xc02aaa39b223fe8d0a0e5c4f27ead9083c756cc2",
                "decimals": 18
            },
            {
                "address": "0xeeeeeeeeeeeeeeeeeeeeeeeeeeeeeeeeeeeeeeee",
                "decimals": 18
            }
        ]
    },
    "address_label": {
        "labels": [
            {
                "address": "0xeeeeeeeeeeeeeeeeeeeeeeeeeeeeeeeeeeeeeeee",
                "label": "Ether"
            },
            {
                "address": "0x5acc84a3e955bdd76467d3348077d003f00ffb97",
                "label": "Forsage.io"
            },
            {
                "address": "0x0000000000000000000000000000000000000001",
                "label": "Precompiled"
            },
            {
                "address": "0x0000000000000000000000000000000000000002",
                "label": "Precompiled"
            },
            {
                "address": "0x0000000000000000000000000000000000000003",
                "label": "Precompiled"
            },
            {
                "address": "0x0000000000000000000000000000000000000004",
                "label": "Precompiled"
            }
        ]
    },
    "trace": {
        "accountLabels": null,
        "dataMap": {
            "-1": {
                "invocation": {
                    "address": "0x8ddf6adbf0dffb6c63781ae0f629eb95d55a9efd",
                    "callData": "",
                    "decodedMethod": null,
                    "errorInfo": "",
                    "fromAddress": "",
                    "gasUsed": 0,
                    "id": -1,
                    "methodDecoded": false,
                    "operation": "",
                    "output": "",
                    "revert": false,
                    "revertMessage": "",
                    "selector": "",
                    "status": false,
                    "value": ""
                },
                "nodeType": 0
            },
            "0": {
                "invocation": {
                    "address": "0x5acc84a3e955bdd76467d3348077d003f00ffb97",
                    "callData": "0x00000000000000000000000000000000000000000000000000000000000000010000000000000000000000000000000000000000000000000000000000000003",
                    "decodedMethod": {
                        "callParams": [
                            {
                                "name": "matrix",
                                "type": "uint8",
                                "value": "1"
                            },
                            {
                                "name": "level",
                                "type": "uint8",
                                "value": "3"
                            }
                        ],
                        "constructorArguments": "",
                        "name": "buyNewLevel",
                        "returnParams": [],
                        "signature": "buyNewLevel(uint8,uint8)"
                    },
                    "errorInfo": "",
                    "fromAddress": "0x8ddf6adbf0dffb6c63781ae0f629eb95d55a9efd",
                    "gasUsed": 128222,
                    "id": 0,
                    "methodDecoded": true,
                    "operation": "CALL",
                    "output": "",
                    "revert": false,
                    "revertMessage": "",
                    "selector": "0xbe389d57",
                    "status": true,
                    "value": "0.1"
                },
                "nodeType": 0
            },
            "1": {
                "event": {
                    "contract": "0x5acc84a3e955bdd76467d3348077d003f00ffb97",
                    "decodedLog": {
                        "name": "NewUserPlace",
                        "params": [
                            {
                                "name": "user",
                                "type": "address",
                                "value": "0x8ddf6adbf0dffb6c63781ae0f629eb95d55a9efd"
                            },
                            {
                                "name": "referrer",
                                "type": "address",
                                "value": "0x4e619a5ebdbaa2841147cff03980b95740a19f87"
                            },
                            {
                                "name": "matrix",
                                "type": "uint8",
                                "value": "1"
                            },
                            {
                                "name": "level",
                                "type": "uint8",
                                "value": "3"
                            },
                            {
                                "name": "place",
                                "type": "uint8",
                                "value": "1"
                            }
                        ],
                        "signature": "NewUserPlace(address,address,uint8,uint8,uint8)"
                    },
                    "id": 1,
                    "logData": "0x000000000000000000000000000000000000000000000000000000000000000100000000000000000000000000000000000000000000000000000000000000030000000000000000000000000000000000000000000000000000000000000001",
                    "logDecoded": true,
                    "operation": "EVENT",
                    "revert": false,
                    "status": true,
                    "topics": [
                        "0x68062c5925c4317adf3a7095478d28b33fd8b41458bc7620b61bc46bf1b24d82",
                        "0x0000000000000000000000008ddf6adbf0dffb6c63781ae0f629eb95d55a9efd",
                        "0x0000000000000000000000004e619a5ebdbaa2841147cff03980b95740a19f87"
                    ]
                },
                "nodeType": 1
            },
            "2": {
                "invocation": {
                    "address": "0x4e619a5ebdbaa2841147cff03980b95740a19f87",
                    "callData": "0x",
                    "decodedMethod": null,
                    "errorInfo": "",
                    "fromAddress": "0x5acc84a3e955bdd76467d3348077d003f00ffb97",
                    "gasUsed": 0,
                    "id": 2,
                    "methodDecoded": false,
                    "operation": "CALL",
                    "output": "",
                    "revert": false,
                    "revertMessage": "",
                    "selector": "fallback",
                    "status": true,
                    "value": "0.1"
                },
                "nodeType": 0
            },
            "3": {
                "event": {
                    "contract": "0x5acc84a3e955bdd76467d3348077d003f00ffb97",
                    "decodedLog": {
                        "name": "Upgrade",
                        "params": [
                            {
                                "name": "user",
                                "type": "address",
                                "value": "0x8ddf6adbf0dffb6c63781ae0f629eb95d55a9efd"
                            },
                            {
                                "name": "referrer",
                                "type": "address",
                                "value": "0x4e619a5ebdbaa2841147cff03980b95740a19f87"
                            },
                            {
                                "name": "matrix",
                                "type": "uint8",
                                "value": "1"
                            },
                            {
                                "name": "level",
                                "type": "uint8",
                                "value": "3"
                            }
                        ],
                        "signature": "Upgrade(address,address,uint8,uint8)"
                    },
                    "id": 3,
                    "logData": "0x00000000000000000000000000000000000000000000000000000000000000010000000000000000000000000000000000000000000000000000000000000003",
                    "logDecoded": true,
                    "operation": "EVENT",
                    "revert": false,
                    "status": true,
                    "topics": [
                        "0x18a92df19fd94d6cfff209966673a5ca05a1c8e2bb68e097fce2bdc2ed811119",
                        "0x0000000000000000000000008ddf6adbf0dffb6c63781ae0f629eb95d55a9efd",
                        "0x0000000000000000000000004e619a5ebdbaa2841147cff03980b95740a19f87"
                    ]
                },
                "nodeType": 1
            }
        },
        "gasFlame": [
            {
                "children": [
                    {
                        "children": [
                            {
                                "children": [],
                                "depth": 0,
                                "name": "Initial Gas",
                                "value": 21344
                            },
                            {
                                "children": [
                                    {
                                        "children": [],
                                        "depth": 1,
                                        "name": "fallback",
                                        "value": 0
                                    }
                                ],
                                "depth": 0,
                                "name": "Executed Gas",
                                "value": 106878
                            }
                        ],
                        "depth": -1,
                        "name": "Actual Gas Used",
                        "value": 128222
                    },
                    {
                        "children": [],
                        "depth": -1,
                        "name": "Refunded Gas",
                        "value": 0
                    }
                ],
                "depth": -2,
                "name": "Total Gas",
                "value": 128222
            }
        ],
        "isConfirmed": true,
        "mainTrace": [
            {
                "children": [
                    {
                        "children": [
                            {
                                "children": [],
                                "depth": 1,
                                "id": 1,
                                "order": 1
                            },
                            {
                                "children": [],
                                "depth": 1,
                                "id": 2,
                                "order": 2
                            },
                            {
                                "children": [],
                                "depth": 1,
                                "id": 3,
                                "order": 3
                            }
                        ],
                        "depth": 0,
                        "id": 0,
                        "order": 0
                    }
                ],
                "depth": -1,
                "id": -1,
                "order": -1
            }
        ],
        "mainTraceNodeCount": 4,
        "parentIdMap": {
            "0": -1,
            "1": 0,
            "2": 0,
            "3": 0
        },
        "tidyTrace": [
            {
                "children": [
                    {
                        "children": [
                            {
                                "children": [],
                                "depth": 1,
                                "id": 1,
                                "order": 1
                            },
                            {
                                "children": [],
                                "depth": 1,
                                "id": 2,
                                "order": 2
                            },
                            {
                                "children": [],
                                "depth": 1,
                                "id": 3,
                                "order": 3
                            }
                        ],
                        "depth": 0,
                        "id": 0,
                        "order": 0
                    }
                ],
                "depth": -1,
                "id": -1,
                "order": -1
            }
        ],
        "tidyTraceNodeCount": 4
    },
    "state_change": {
        "stateChanges": [
            {
                "address": "0x5acc84a3e955bdd76467d3348077d003f00ffb97",
                "erc": "",
                "slots": [
                    {
                        "current": "0x0000000000000000000000000000000000000000000000000000000000000001",
                        "key": "0x012df3ae4a21b32bf53c11becb6e08b6cfffbcb019e9d7a433161e5355389c8c",
                        "prev": "0x0000000000000000000000000000000000000000000000000000000000000000"
                    },
                    {
                        "current": "0x0000000000000000000000008ddf6adbf0dffb6c63781ae0f629eb95d55a9efd",
                        "key": "0x57d70def2766bf5204f8403c00acba51b6e753fc8d4ecfae1f28beadc22e57ef",
                        "prev": "0x0000000000000000000000000000000000000000000000000000000000000000"
                    },
                    {
                        "current": "0x0000000000000000000000004e619a5ebdbaa2841147cff03980b95740a19f87",
                        "key": "0x4825029aa1d986f90dc9b01b89ea64c6b9c2165b2c2050352844ca2e0d04983c",
                        "prev": "0x0000000000000000000000000000000000000000000000000000000000000000"
                    },
                    {
                        "current": "0x0000000000000000000000000000000000000000000000000000000000000001",
                        "key": "0xa0af290cc2a2bfed96cee05c7bdb2208a644b837b5b03df4699d3e13c98e4f17",
                        "prev": "0x0000000000000000000000000000000000000000000000000000000000000000"
                    }
                ],
                "storageVariables": [
                    {
                        "name": "users",
                        "type": "mapping(address => struct SmartMatrixForsage.User)",
                        "value": {
                            "pairs": [
                                {
                                    "key": "0x4e619a5ebdbaa2841147cff03980b95740a19f87",
                                    "value": {
                                        "fields": [
                                            {
                                                "name": "x3Matrix",
                                                "type": "mapping(uint8 => struct SmartMatrixForsage.X3)",
                                                "value": {
                                                    "pairs": [
                                                        {
                                                            "key": "3",
                                                            "value": {
                                                                "fields": [
                                                                    {
                                                                        "name": "referrals",
                                                                        "type": "address[]",
                                                                        "value": {
                                                                            "elemType": "address",
                                                                            "elems": [
                                                                                {
                                                                                    "index": 0,
                                                                                    "value": {
                                                                                        "current": "0x8ddf6adbf0dffb6c63781ae0f629eb95d55a9efd",
                                                                                        "prev": "0x0000000000000000000000000000000000000000",
                                                                                        "typeTag": 1
                                                                                    }
                                                                                }
                                                                            ],
                                                                            "typeTag": 2
                                                                        }
                                                                    }
                                                                ],
                                                                "typeTag": 3
                                                            }
                                                        }
                                                    ],
                                                    "typeTag": 4
                                                }
                                            }
                                        ],
                                        "typeTag": 3
                                    }
                                },
                                {
                                    "key": "0x8ddf6adbf0dffb6c63781ae0f629eb95d55a9efd",
                                    "value": {
                                        "fields": [
                                            {
                                                "name": "activeX3Levels",
                                                "type": "mapping(uint8 => bool)",
                                                "value": {
                                                    "pairs": [
                                                        {
                                                            "key": "3",
                                                            "value": {
                                                                "current": "true",
                                                                "prev": "false",
                                                                "typeTag": 1
                                                            }
                                                        }
                                                    ],
                                                    "typeTag": 4
                                                }
                                            },
                                            {
                                                "name": "x3Matrix",
                                                "type": "mapping(uint8 => struct SmartMatrixForsage.X3)",
                                                "value": {
                                                    "pairs": [
                                                        {
                                                            "key": "3",
                                                            "value": {
                                                                "fields": [
                                                                    {
                                                                        "name": "currentReferrer",
                                                                        "type": "address",
                                                                        "value": {
                                                                            "current": "0x4e619a5ebdbaa2841147cff03980b95740a19f87",
                                                                            "prev": "0x0000000000000000000000000000000000000000",
                                                                            "typeTag": 1
                                                                        }
                                                                    }
                                                                ],
                                                                "typeTag": 3
                                                            }
                                                        }
                                                    ],
                                                    "typeTag": 4
                                                }
                                            }
                                        ],
                                        "typeTag": 3
                                    }
                                }
                            ],
                            "typeTag": 4
                        }
                    }
                ]
            }
        ]
    }
}