{
    "balance_change": {
        "balanceChanges": [
            {
                "account": "0x8e4879eace613acc1430877791fecdef2c30017b",
                "assets": [
                    {
                        "address": "0x8f3470a7388c05ee4e7af3d01d8c722b0ff52374",
                        "amount": "31.2965",
                        "iconUrl": "https://assets.blocksec.com/icon/9da4573ec41757aabd0185dbac89349e1de8d3dbfa0b17ed29890296bc34e753.png",
                        "isERC1155": false,
                        "isERC721": false,
                        "sign": false,
                        "value": "566.5902834"
                    }
                ]
            },
            {
                "account": "0x8d12a197cb00d4747a1fe03395095ce2a5cc6819",
                "assets": [
                    {
                        "address": "0x8f3470a7388c05ee4e7af3d01d8c722b0ff52374",
                        "amount": "31.2965",
                        "iconUrl": "https://assets.blocksec.com/icon/9da4573ec41757aabd0185dbac89349e1de8d3dbfa0b17ed29890296bc34e753.png",
                        "isERC1155": false,
                        "isERC721": false,
                        "sign": true,
                        "value": "566.5902834"
                    }
                ]
            }
        ]
    },
    "profile": {
        "basic_info": {
            "baseFee": "",
            "blockNumber": 11991172,
            "callData": "0x338b5dea0000000000000000000000008f3470a7388c05ee4e7af3d01d8c722b0ff52374000000000000000000000000000000000000000000000001b25380ef1d034000",
            "debugEnable": true,
            "errorInfo": "",
            "eventCount": 2,
            "feeRecipient": "0x5a0b54d5dc17e0aadc383d2db43b0a0d3e029c4c",
            "formatValue": "0",
            "gasLimit": 250000,
            "gasPrice": "96.5",
            "gasUsed": 53149,
            "intTxnCount": 1,
            "internalRevert": false,
            "internalRevertMessage": "",
            "isContractCreation": false,
            "isFlashloan": false,
            "maxFee": "",
            "nonce": 1,
            "overwritedBlockNumber": -1,
            "priorityFee": "",
            "receiver": "0x8d12a197cb00d4747a1fe03395095ce2a5cc6819",
            "revertMessage": "",
            "sender": "0x8e4879eace613acc1430877791fecdef2c30017b",
            "simulationEnable": true,
            "sourceTxnHash": "0xd25e9f24bdd03914e6ce4590abd6311595c06f31f8d6584adab8f3e5956996d2",
            "status": true,
            "timestamp": "2021-03-07T11:49:39Z",
            "transactionFee": "0.0051288785",
            "txnHash": "0xd25e9f24bdd03914e6ce4590abd6311595c06f31f8d6584adab8f3e5956996d2",
            "txnIndex": 183,
            "type": 0,
            "value": "0"
        },
        "fund_flow": [
            {
                "amount": "31.2965",
                "from": "0x8e4879eace613acc1430877791fecdef2c30017b",
                "id": 1,
                "isERC1155": false,
                "isERC721": false,
                "isReverted": false,
                "order": 1,
                "to": "0x8d12a197cb00d4747a1fe03395095ce2a5cc6819",
                "token": "0x8f3470a7388c05ee4e7af3d01d8c722b0ff52374"
            }
        ],
        "token_infos": [
            {
                "address": "0x8f3470a7388c05ee4e7af3d01d8c722b0ff52374",
                "decimals": 18
            },
            {
                "address": "0xc02aaa39b223fe8d0a0e5c4f27ead9083c756cc2",
                "decimals": 18
            },
            {
                "address": "0xeeeeeeeeeeeeeeeeeeeeeeeeeeeeeeeeeeeeeeee",
                "decimals": 18
            }
        ]
    },
    "address_label": {
        "labels": [
            {
                "address": "0x0000000000000000000000000000000000000003",
                "label": "Precompiled"
            },
            {
                "address": "0x0000000000000000000000000000000000000004",
                "label": "Precompiled"
            },
            {
                "address": "0xeeeeeeeeeeeeeeeeeeeeeeeeeeeeeeeeeeeeeeee",
                "label": "Ether"
            },
            {
                "address": "0x8d12a197cb00d4747a1fe03395095ce2a5cc6819",
                "label": "EtherDelta"
            },
            {
                "address": "0x8f3470a7388c05ee4e7af3d01d8c722b0ff52374",
                "label": "Veritaseum Token"
            },
            {
                "address": "0x0000000000000000000000000000000000000001",
                "label": "Precompiled"
            },
            {
                "address": "0x0000000000000000000000000000000000000002",
                "label": "Precompiled"
            }
        ]
    },
    "trace": {
        "accountLabels": null,
        "dataMap": {
            "-1": {
                "invocation": {
                    "address": "0x8e4879eace613acc1430877791fecdef2c30017b",
                    "callData": "",
                    "decodedMethod": null,
                    "errorInfo": "",
                    "fromAddress": "",
                    "gasUsed": 0,
                    "id": -1,
                    "methodDecoded": false,
                    "operation": "",
                    "output": "",
                    "revert": false,
                    "revertMessage": "",
                    "selector": "",
                    "status": false,
                    "value": ""
                },
                "nodeType": 0
            },
            "0": {
                "invocation": {
                    "address": "0x8d12a197cb00d4747a1fe03395095ce2a5cc6819",
                    "callData": "0x0000000000000000000000008f3470a7388c05ee4e7af3d01d8c722b0ff52374000000000000000000000000000000000000000000000001b25380ef1d034000",
                    "decodedMethod": {
                        "callParams": [
                            {
                                "name": "token",
                                "type": "address",
                                "value": "0x8f3470a7388c05ee4e7af3d01d8c722b0ff52374"
                            },
                            {
                                "name": "amount",
                                "type": "uint256",
                                "value": "31,296,500,000,000,000,000"
                            }
                        ],
                        "constructorArguments": "",
                        "name": "depositToken",
                        "returnParams": [],
                        "signature": "depositToken(address,uint256)"
                    },
                    "errorInfo": "",
                    "fromAddress": "0x8e4879eace613acc1430877791fecdef2c30017b",
                    "gasUsed": 53149,
                    "id": 0,
                    "methodDecoded": true,
                    "operation": "CALL",
                    "output": "",
                    "revert": false,
                    "revertMessage": "",
                    "selector": "0x338b5dea",
                    "status": true,
                    "value": "0"
                },
                "nodeType": 0
            },
            "1": {
                "invocation": {
                    "address": "0x8f3470a7388c05ee4e7af3d01d8c722b0ff52374",
                    "callData": "0x0000000000000000000000008e4879eace613acc1430877791fecdef2c30017b0000000000000000000000008d12a197cb00d4747a1fe03395095ce2a5cc6819000000000000000000000000000000000000000000000001b25380ef1d034000",
                    "decodedMethod": {
                        "callParams": [
                            {
                                "name": "_from",
                                "type": "address",
                                "value": "0x8e4879eace613acc1430877791fecdef2c30017b"
                            },
                            {
                                "name": "_to",
                                "type": "address",
                                "value": "0x8d12a197cb00d4747a1fe03395095ce2a5cc6819"
                            },
                            {
                                "decimalAvailable": true,
                                "name": "_value",
                                "type": "uint256",
                                "value": "31,296,500,000,000,000,000"
                            }
                        ],
                        "constructorArguments": "",
                        "name": "transferFrom",
                        "returnParams": [
                            {
                                "name": "success",
                                "type": "bool",
                                "value": true
                            }
                        ],
                        "signature": "transferFrom(address,address,uint256)"
                    },
                    "errorInfo": "",
                    "fromAddress": "0x8d12a197cb00d4747a1fe03395095ce2a5cc6819",
                    "gasUsed": 20957,
                    "id": 1,
                    "methodDecoded": true,
                    "operation": "CALL",
                    "output": "0x0000000000000000000000000000000000000000000000000000000000000001",
                    "revert": false,
                    "revertMessage": "",
                    "selector": "0x23b872dd",
                    "status": true,
                    "value": "0"
                },
                "nodeType": 0
            },
            "2": {
                "event": {
                    "contract": "0x8f3470a7388c05ee4e7af3d01d8c722b0ff52374",
                    "decodedLog": {
                        "name": "Transfer",
                        "params": [
                            {
                                "name": "from",
                                "type": "address",
                                "value": "0x8e4879eace613acc1430877791fecdef2c30017b"
                            },
                            {
                                "name": "to",
                                "type": "address",
                                "value": "0x8d12a197cb00d4747a1fe03395095ce2a5cc6819"
                            },
                            {
                                "decimalAvailable": true,
                                "name": "value",
                                "type": "uint256",
                                "value": "31,296,500,000,000,000,000"
                            }
                        ],
                        "signature": "Transfer(address,address,uint256)"
                    },
                    "id": 2,
                    "logData": "0x000000000000000000000000000000000000000000000001b25380ef1d034000",
                    "logDecoded": true,
                    "operation": "EVENT",
                    "revert": false,
                    "status": true,
                    "topics": [
                        "0xddf252ad1be2c89b69c2b068fc378daa952ba7f163c4a11628f55a4df523b3ef",
                        "0x0000000000000000000000008e4879eace613acc1430877791fecdef2c30017b",
                        "0x0000000000000000000000008d12a197cb00d4747a1fe03395095ce2a5cc6819"
                    ]
                },
                "nodeType": 1
            },
            "3": {
                "event": {
                    "contract": "0x8d12a197cb00d4747a1fe03395095ce2a5cc6819",
                    "decodedLog": {
                        "name": "Deposit",
                        "params": [
                            {
                                "name": "token",
                                "type": "address",
                                "value": "0x8f3470a7388c05ee4e7af3d01d8c722b0ff52374"
                            },
                            {
                                "name": "user",
                                "type": "address",
                                "value": "0x8e4879eace613acc1430877791fecdef2c30017b"
                            },
                            {
                                "name": "amount",
                                "type": "uint256",
                                "value": "31,296,500,000,000,000,000"
                            },
                            {
                                "name": "balance",
                                "type": "uint256",
                                "value": "31,296,500,000,000,000,000"
                            }
                        ],
                        "signature": "Deposit(address,address,uint256,uint256)"
                    },
                    "id": 3,
                    "logData": "0x0000000000000000000000008f3470a7388c05ee4e7af3d01d8c722b0ff523740000000000000000000000008e4879eace613acc1430877791fecdef2c30017b000000000000000000000000000000000000000000000001b25380ef1d034000000000000000000000000000000000000000000000000001b25380ef1d034000",
                    "logDecoded": true,
                    "operation": "EVENT",
                    "revert": false,
                    "status": true,
                    "topics": [
                        "0xdcbc1c05240f31ff3ad067ef1ee35ce4997762752e3a095284754544f4c709d7"
                    ]
                },
                "nodeType": 1
            }
        },
        "gasFlame": [
            {
                "children": [
                    {
                        "children": [
                            {
                                "children": [],
                                "depth": 0,
                                "name": "Initial Gas",
                                "value": 21656
                            },
                            {
                                "children": [
                                    {
                                        "children": [],
                                        "depth": 1,
                                        "name": "transferFrom",
                                        "value": 20957
                                    }
                                ],
                                "depth": 0,
                                "name": "Executed Gas",
                                "value": 46493
                            }
                        ],
                        "depth": -1,
                        "name": "Actual Gas Used",
                        "value": 53149
                    },
                    {
                        "children": [],
                        "depth": -1,
                        "name": "Refunded Gas",
                        "value": 15000
                    }
                ],
                "depth": -2,
                "name": "Total Gas",
                "value": 68149
            }
        ],
        "isConfirmed": true,
        "mainTrace": [
            {
                "children": [
                    {
                        "children": [
                            {
                                "children": [
                                    {
                                        "children": [],
                                        "depth": 2,
                                        "id": 2,
                                        "order": 2
                                    }
                                ],
                                "depth": 1,
                                "id": 1,
                                "order": 1
                            },
                            {
                                "children": [],
                                "depth": 1,
                                "id": 3,
                                "order": 3
                            }
                        ],
                        "depth": 0,
                        "id": 0,
                        "order": 0
                    }
                ],
                "depth": -1,
                "id": -1,
                "order": -1
            }
        ],
        "mainTraceNodeCount": 4,
        "parentIdMap": {
            "0": -1,
            "1": 0,
            "2": 1,
            "3": 0
        },
        "tidyTrace": [
            {
                "children": [
                    {
                        "children": [
                            {
                                "children": [
                                    {
                                        "children": [],
                                        "depth": 2,
                                        "id": 2,
                                        "order": 2
                                    }
                                ],
                                "depth": 1,
                                "id": 1,
                                "order": 1
                            },
                            {
                                "children": [],
                                "depth": 1,
                                "id": 3,
                                "order": 3
                            }
                        ],
                        "depth": 0,
                        "id": 0,
                        "order": 0
                    }
                ],
                "depth": -1,
                "id": -1,
                "order": -1
            }
        ],
        "tidyTraceNodeCount": 4
    },
    "state_change": {
        "stateChanges": [
            {
                "address": "0x8d12a197cb00d4747a1fe03395095ce2a5cc6819",
                "erc": "",
                "slots": [
                    {
                        "current": "0x000000000000000000000000000000000000000000000001b25380ef1d034000",
                        "key": "0x59e6d72ccfe6a96b45b2fb15c89c6de9330ec8a079d97bc580676514a51351ac",
                        "prev": "0x0000000000000000000000000000000000000000000000000000000000000000"
                    }
                ],
                "storageVariables": []
            },
            {
                "address": "0x8f3470a7388c05ee4e7af3d01d8c722b0ff52374",
                "erc": "ERC-20",
                "slots": [
                    {
                        "current": "0x000000000000000000000000000000000000000000000620944aea27b605c327",
                        "key": "0x4d66c61ace7e657e114ae14d9f72d23fa56a1c0a0ca07aabbbe2f9bdf404b82f",
                        "prev": "0x00000000000000000000000000000000000000000000061ee1f7693899028327"
                    },
                    {
                        "current": "0x00000000000000000000000000000000000000000000000000000c2d0eb7fb00",
                        "key": "0x5e90bc8ab885b14c4565ef457afec83c35c4bba5b018e9ac2c2d65aec0f3d67d",
                        "prev": "0x000000000000000000000000000000000000000000000001b2538d1c2bbb3b00"
                    },
                    {
                        "current": "0x0000000000000000000000000000000000000000000000000000000000000000",
                        "key": "0xe31aa38f16fe1dea146ba557b6aa94cbdb2b76b48092c011b03a044d83f30f37",
                        "prev": "0x000000000000000000000000000000000000000000000001b25380ef1d034000"
                    }
                ],
                "storageVariables": []
            }
        ]
    }
}