{
    "balance_change": {
        "balanceChanges": [
            {
                "account": "0xdf474f17f34c21bfa86a2e395f95465b256c5a54",
                "assets": [
                    {
                        "address": "0x3819f64f282bf135d62168c1e513280daf905e06",
                        "amount": "47,686.8235888",
                        "iconUrl": "",
                        "isERC1155": false,
                        "isERC721": false,
                        "sign": true,
                        "value": "0.08632141"
                    }
                ]
            },
            {
                "account": "0x0000000000000000000000000000000000000000",
                "assets": [
                    {
                        "address": "0x3819f64f282bf135d62168c1e513280daf905e06",
                        "amount": "47,686.8235888",
                        "iconUrl": "",
                        "isERC1155": false,
                        "isERC721": false,
                        "sign": false,
                        "value": "0.08632141"
                    }
                ]
            }
        ]
    },
    "profile": {
        "basic_info": {
            "baseFee": "16.694319977",
            "blockNumber": 16539042,
            "callData": "0x975fe3ca00000000000000000000000000000000000000000000000000000000000000000000000000000000000000008c03245f111219232589e734bdd599fd2e3166f9",
            "debugEnable": true,
            "errorInfo": "",
            "eventCount": 2,
            "feeRecipient": "0x37f1f67955ac36763409377bd2ce64da414c3972",
            "formatValue": "0",
            "gasLimit": 140456,
            "gasPrice": "17.694319977",
            "gasUsed": 140456,
            "intTxnCount": 6,
            "internalRevert": false,
            "internalRevertMessage": "",
            "isContractCreation": false,
            "isFlashloan": false,
            "maxFee": "23.085769238",
            "nonce": 396,
            "overwritedBlockNumber": -1,
            "priorityFee": "1",
            "receiver": "0x3819f64f282bf135d62168c1e513280daf905e06",
            "revertMessage": "",
            "sender": "0xdf474f17f34c21bfa86a2e395f95465b256c5a54",
            "simulationEnable": true,
            "sourceTxnHash": "0xd28d6a13d01a5df7d87ea738ee24dace900c401ba5c4269a20858fcbce9bb7d6",
            "status": true,
            "timestamp": "2023-02-02T05:29:59Z",
            "transactionFee": "0.002485273406689512",
            "txnHash": "0xd28d6a13d01a5df7d87ea738ee24dace900c401ba5c4269a20858fcbce9bb7d6",
            "txnIndex": 74,
            "type": 2,
            "value": "0"
        },
        "fund_flow": [
            {
                "amount": "47,686.8235888",
                "from": "0x0000000000000000000000000000000000000000",
                "id": 1,
                "isERC1155": false,
                "isERC721": false,
                "isReverted": false,
                "order": 1,
                "to": "0xdf474f17f34c21bfa86a2e395f95465b256c5a54",
                "token": "0x3819f64f282bf135d62168c1e513280daf905e06"
            }
        ],
        "token_infos": [
            {
                "address": "0x3819f64f282bf135d62168c1e513280daf905e06",
                "decimals": 9
            },
            {
                "address": "0xc02aaa39b223fe8d0a0e5c4f27ead9083c756cc2",
                "decimals": 18
            },
            {
                "address": "0xeeeeeeeeeeeeeeeeeeeeeeeeeeeeeeeeeeeeeeee",
                "decimals": 18
            }
        ]
    },
    "address_label": {
        "labels": [
            {
                "address": "0x0000000000000000000000000000000000000004",
                "label": "Precompiled"
            },
            {
                "address": "0xeeeeeeeeeeeeeeeeeeeeeeeeeeeeeeeeeeeeeeee",
                "label": "Ether"
            },
            {
                "address": "0x3819f64f282bf135d62168c1e513280daf905e06",
                "label": "Hedron: HDRN Token"
            },
            {
                "address": "0x8bd3d1472a656e312e94fb1bbdd599b8c51d18e3",
                "label": "HEX Stake Instance: HSI Token"
            },
            {
                "address": "0x64de999ce2fcbcf4f37ab16341de78ddf8722ad2",
                "label": "HEXStakeInstance"
            },
            {
                "address": "0x0000000000000000000000000000000000000001",
                "label": "Precompiled"
            },
            {
                "address": "0x0000000000000000000000000000000000000002",
                "label": "Precompiled"
            },
            {
                "address": "0x0000000000000000000000000000000000000003",
                "label": "Precompiled"
            }
        ]
    },
    "trace": {
        "accountLabels": null,
        "dataMap": {
            "-1": {
                "invocation": {
                    "address": "0xdf474f17f34c21bfa86a2e395f95465b256c5a54",
                    "callData": "",
                    "decodedMethod": null,
                    "errorInfo": "",
                    "fromAddress": "",
                    "gasUsed": 0,
                    "id": -1,
                    "methodDecoded": false,
                    "operation": "",
                    "output": "",
                    "revert": false,
                    "revertMessage": "",
                    "selector": "",
                    "status": false,
                    "value": ""
                },
                "nodeType": 0
            },
            "0": {
                "invocation": {
                    "address": "0x3819f64f282bf135d62168c1e513280daf905e06",
                    "callData": "0x00000000000000000000000000000000000000000000000000000000000000000000000000000000000000008c03245f111219232589e734bdd599fd2e3166f9",
                    "decodedMethod": {
                        "callParams": [
                            {
                                "name": "hsiIndex",
                                "type": "uint256",
                                "value": "0"
                            },
                            {
                                "name": "hsiAddress",
                                "type": "address",
                                "value": "0x8c03245f111219232589e734bdd599fd2e3166f9"
                            }
                        ],
                        "constructorArguments": "",
                        "name": "mintInstanced",
                        "returnParams": [
                            {
                                "name": "",
                                "type": "uint256",
                                "value": "47,686,823,588,800"
                            }
                        ],
                        "signature": "mintInstanced(uint256,address)"
                    },
                    "errorInfo": "",
                    "fromAddress": "0xdf474f17f34c21bfa86a2e395f95465b256c5a54",
                    "gasUsed": 140456,
                    "id": 0,
                    "methodDecoded": true,
                    "operation": "CALL",
                    "output": "0x00000000000000000000000000000000000000000000000000002b5ef42e33c0",
                    "revert": false,
                    "revertMessage": "",
                    "selector": "0x975fe3ca",
                    "status": true,
                    "value": "0"
                },
                "nodeType": 0
            },
            "1": {
                "invocation": {
                    "address": "0x8bd3d1472a656e312e94fb1bbdd599b8c51d18e3",
                    "callData": "0x000000000000000000000000df474f17f34c21bfa86a2e395f95465b256c5a540000000000000000000000000000000000000000000000000000000000000000",
                    "decodedMethod": {
                        "callParams": [
                            {
                                "name": "",
                                "type": "address",
                                "value": "0xdf474f17f34c21bfa86a2e395f95465b256c5a54"
                            },
                            {
                                "name": "",
                                "type": "uint256",
                                "value": "0"
                            }
                        ],
                        "constructorArguments": "",
                        "name": "hsiLists",
                        "returnParams": [
                            {
                                "name": "",
                                "type": "address",
                                "value": "0x8c03245f111219232589e734bdd599fd2e3166f9"
                            }
                        ],
                        "signature": "hsiLists(address,uint256)"
                    },
                    "errorInfo": "",
                    "fromAddress": "0x3819f64f282bf135d62168c1e513280daf905e06",
                    "gasUsed": 4894,
                    "id": 1,
                    "methodDecoded": true,
                    "operation": "STATICCALL",
                    "output": "0x0000000000000000000000008c03245f111219232589e734bdd599fd2e3166f9",
                    "revert": false,
                    "revertMessage": "",
                    "selector": "0xf2b29141",
                    "status": true,
                    "value": "0"
                },
                "nodeType": 0
            },
            "2": {
                "invocation": {
                    "address": "0x8c03245f111219232589e734bdd599fd2e3166f9",
                    "callData": "0x",
                    "decodedMethod": {
                        "callParams": [],
                        "constructorArguments": "",
                        "name": "share",
                        "returnParams": [
                            {
                                "name": "stake",
                                "type": "(uint40,uint72,uint16,uint16)",
                                "value": [
                                    {
                                        "name": "stakeId",
                                        "type": "uint40",
                                        "value": "747,049"
                                    },
                                    {
                                        "name": "stakeShares",
                                        "type": "uint72",
                                        "value": "2,167,582,890,400"
                                    },
                                    {
                                        "name": "lockedDay",
                                        "type": "uint16",
                                        "value": "1,135"
                                    },
                                    {
                                        "name": "stakedDays",
                                        "type": "uint16",
                                        "value": "30"
                                    }
                                ]
                            },
                            {
                                "name": "mintedDays",
                                "type": "uint16",
                                "value": "0"
                            },
                            {
                                "name": "launchBonus",
                                "type": "uint8",
                                "value": "0"
                            },
                            {
                                "name": "loanStart",
                                "type": "uint16",
                                "value": "0"
                            },
                            {
                                "name": "loanedDays",
                                "type": "uint16",
                                "value": "0"
                            },
                            {
                                "name": "interestRate",
                                "type": "uint32",
                                "value": "0"
                            },
                            {
                                "name": "paymentsMade",
                                "type": "uint8",
                                "value": "0"
                            },
                            {
                                "name": "isLoaned",
                                "type": "bool",
                                "value": false
                            }
                        ],
                        "signature": "share()"
                    },
                    "errorInfo": "",
                    "fromAddress": "0x3819f64f282bf135d62168c1e513280daf905e06",
                    "gasUsed": 7762,
                    "id": 2,
                    "methodDecoded": true,
                    "operation": "STATICCALL",
                    "output": "0x00000000000000000000000000000000000000000000000000000000000b6629000000000000000000000000000000000000000000000000000001f8ae0219a0000000000000000000000000000000000000000000000000000000000000046f000000000000000000000000000000000000000000000000000000000000001e0000000000000000000000000000000000000000000000000000000000000000000000000000000000000000000000000000000000000000000000000000000000000000000000000000000000000000000000000000000000000000000000000000000000000000000000000000000000000000000000000000000000000000000000000000000000000000000000000000000000000000000000000000000000000000000000000000000000000000000000000000000000000000000000000000000000000000000000000000000000000000000000000000000000000000",
                    "revert": false,
                    "revertMessage": "",
                    "selector": "0xa8d5fd65",
                    "status": true,
                    "value": "0"
                },
                "nodeType": 0
            },
            "3": {
                "invocation": {
                    "address": "0x64de999ce2fcbcf4f37ab16341de78ddf8722ad2",
                    "callData": "0x",
                    "decodedMethod": {
                        "callParams": [],
                        "constructorArguments": "",
                        "name": "share",
                        "returnParams": [
                            {
                                "name": "stake",
                                "type": "(uint40,uint72,uint16,uint16)",
                                "value": [
                                    {
                                        "name": "stakeId",
                                        "type": "uint40",
                                        "value": "747,049"
                                    },
                                    {
                                        "name": "stakeShares",
                                        "type": "uint72",
                                        "value": "2,167,582,890,400"
                                    },
                                    {
                                        "name": "lockedDay",
                                        "type": "uint16",
                                        "value": "1,135"
                                    },
                                    {
                                        "name": "stakedDays",
                                        "type": "uint16",
                                        "value": "30"
                                    }
                                ]
                            },
                            {
                                "name": "mintedDays",
                                "type": "uint16",
                                "value": "0"
                            },
                            {
                                "name": "launchBonus",
                                "type": "uint8",
                                "value": "0"
                            },
                            {
                                "name": "loanStart",
                                "type": "uint16",
                                "value": "0"
                            },
                            {
                                "name": "loanedDays",
                                "type": "uint16",
                                "value": "0"
                            },
                            {
                                "name": "interestRate",
                                "type": "uint32",
                                "value": "0"
                            },
                            {
                                "name": "paymentsMade",
                                "type": "uint8",
                                "value": "0"
                            },
                            {
                                "name": "isLoaned",
                                "type": "bool",
                                "value": false
                            }
                        ],
                        "signature": "share()"
                    },
                    "errorInfo": "",
                    "fromAddress": "0x8c03245f111219232589e734bdd599fd2e3166f9",
                    "gasUsed": 5036,
                    "id": 3,
                    "methodDecoded": true,
                    "operation": "DELEGATECALL",
                    "output": "0x00000000000000000000000000000000000000000000000000000000000b6629000000000000000000000000000000000000000000000000000001f8ae0219a0000000000000000000000000000000000000000000000000000000000000046f000000000000000000000000000000000000000000000000000000000000001e0000000000000000000000000000000000000000000000000000000000000000000000000000000000000000000000000000000000000000000000000000000000000000000000000000000000000000000000000000000000000000000000000000000000000000000000000000000000000000000000000000000000000000000000000000000000000000000000000000000000000000000000000000000000000000000000000000000000000000000000000000000000000000000000000000000000000000000000000000000000000000000000000000000000000000",
                    "revert": false,
                    "revertMessage": "",
                    "selector": "0xa8d5fd65",
                    "status": true,
                    "value": "0"
                },
                "nodeType": 0
            },
            "4": {
                "event": {
                    "contract": "0x3819f64f282bf135d62168c1e513280daf905e06",
                    "decodedLog": {
                        "name": "Transfer",
                        "params": [
                            {
                                "name": "from",
                                "type": "address",
                                "value": "0x0000000000000000000000000000000000000000"
                            },
                            {
                                "name": "to",
                                "type": "address",
                                "value": "0xdf474f17f34c21bfa86a2e395f95465b256c5a54"
                            },
                            {
                                "decimalAvailable": true,
                                "name": "value",
                                "type": "uint256",
                                "value": "47,686,823,588,800"
                            }
                        ],
                        "signature": "Transfer(address,address,uint256)"
                    },
                    "id": 4,
                    "logData": "0x00000000000000000000000000000000000000000000000000002b5ef42e33c0",
                    "logDecoded": true,
                    "operation": "EVENT",
                    "revert": false,
                    "status": true,
                    "topics": [
                        "0xddf252ad1be2c89b69c2b068fc378daa952ba7f163c4a11628f55a4df523b3ef",
                        "0x0000000000000000000000000000000000000000000000000000000000000000",
                        "0x000000000000000000000000df474f17f34c21bfa86a2e395f95465b256c5a54"
                    ]
                },
                "nodeType": 1
            },
            "5": {
                "event": {
                    "contract": "0x3819f64f282bf135d62168c1e513280daf905e06",
                    "decodedLog": {
                        "name": "Mint",
                        "params": [
                            {
                                "name": "minter",
                                "type": "address",
                                "value": "0xdf474f17f34c21bfa86a2e395f95465b256c5a54"
                            },
                            {
                                "name": "stakeId",
                                "type": "uint40",
                                "value": "747,049"
                            },
                            {
                                "name": "data",
                                "type": "uint256",
                                "value": "4,154,108,211,644,954,917,008,561,199,569,364,628,353,649,633,404,865,111"
                            }
                        ],
                        "signature": "Mint(uint256,address,uint40)"
                    },
                    "id": 5,
                    "logData": "0x0000000000000000002b5ef42e33c000001600000001f8ae0219a00063db4a57",
                    "logDecoded": true,
                    "operation": "EVENT",
                    "revert": false,
                    "status": true,
                    "topics": [
                        "0xce84afc26010d49051ae429b96ad50c0ef3a958a5c5bdc44c80e090dee642dbe",
                        "0x000000000000000000000000df474f17f34c21bfa86a2e395f95465b256c5a54",
                        "0x00000000000000000000000000000000000000000000000000000000000b6629"
                    ]
                },
                "nodeType": 1
            },
            "6": {
                "invocation": {
                    "address": "0x8bd3d1472a656e312e94fb1bbdd599b8c51d18e3",
                    "callData": "0x000000000000000000000000df474f17f34c21bfa86a2e395f95465b256c5a5400000000000000000000000000000000000000000000000000000000000000000000000000000000000000008c03245f111219232589e734bdd599fd2e3166f900000000000000000000000000000000000000000000000000000000000b6629000000000000000000000000000000000000000000000000000001f8ae0219a0000000000000000000000000000000000000000000000000000000000000046f000000000000000000000000000000000000000000000000000000000000001e0000000000000000000000000000000000000000000000000000000000000016000000000000000000000000000000000000000000000000000000000000000000000000000000000000000000000000000000000000000000000000000000000000000000000000000000000000000000000000000000000000000000000000000000000000000000000000000000000000000000000000000000000000000000000000000000000000000000000000000000000000000000000000000000000000000000000000000000000000000000000000000000000000000000000000",
                    "decodedMethod": {
                        "callParams": [
                            {
                                "name": "holder",
                                "type": "address",
                                "value": "0xdf474f17f34c21bfa86a2e395f95465b256c5a54"
                            },
                            {
                                "name": "hsiIndex",
                                "type": "uint256",
                                "value": "0"
                            },
                            {
                                "name": "hsiAddress",
                                "type": "address",
                                "value": "0x8c03245f111219232589e734bdd599fd2e3166f9"
                            },
                            {
                                "name": "share",
                                "type": "((uint40,uint72,uint16,uint16),uint256,uint256,uint256,uint256,uint256,uint256,bool)",
                                "value": [
                                    {
                                        "name": "_stake",
                                        "type": "(uint40,uint72,uint16,uint16)",
                                        "value": [
                                            {
                                                "name": "stakeId",
                                                "type": "uint40",
                                                "value": "747,049"
                                            },
                                            {
                                                "name": "stakeShares",
                                                "type": "uint72",
                                                "value": "2,167,582,890,400"
                                            },
                                            {
                                                "name": "lockedDay",
                                                "type": "uint16",
                                                "value": "1,135"
                                            },
                                            {
                                                "name": "stakedDays",
                                                "type": "uint16",
                                                "value": "30"
                                            }
                                        ]
                                    },
                                    {
                                        "name": "_mintedDays",
                                        "type": "uint256",
                                        "value": "22"
                                    },
                                    {
                                        "name": "_launchBonus",
                                        "type": "uint256",
                                        "value": "0"
                                    },
                                    {
                                        "name": "_loanStart",
                                        "type": "uint256",
                                        "value": "0"
                                    },
                                    {
                                        "name": "_loanedDays",
                                        "type": "uint256",
                                        "value": "0"
                                    },
                                    {
                                        "name": "_interestRate",
                                        "type": "uint256",
                                        "value": "0"
                                    },
                                    {
                                        "name": "_paymentsMade",
                                        "type": "uint256",
                                        "value": "0"
                                    },
                                    {
                                        "name": "_isLoaned",
                                        "type": "bool",
                                        "value": false
                                    }
                                ]
                            }
                        ],
                        "constructorArguments": "",
                        "name": "hsiUpdate",
                        "returnParams": [],
                        "signature": "hsiUpdate(address,uint256,address,((uint40,uint72,uint16,uint16),uint256,uint256,uint256,uint256,uint256,uint256,bool))"
                    },
                    "errorInfo": "",
                    "fromAddress": "0x3819f64f282bf135d62168c1e513280daf905e06",
                    "gasUsed": 28798,
                    "id": 6,
                    "methodDecoded": true,
                    "operation": "CALL",
                    "output": "",
                    "revert": false,
                    "revertMessage": "",
                    "selector": "0x317e2e63",
                    "status": true,
                    "value": "0"
                },
                "nodeType": 0
            },
            "7": {
                "invocation": {
                    "address": "0x8c03245f111219232589e734bdd599fd2e3166f9",
                    "callData": "0x00000000000000000000000000000000000000000000000000000000000b6629000000000000000000000000000000000000000000000000000001f8ae0219a0000000000000000000000000000000000000000000000000000000000000046f000000000000000000000000000000000000000000000000000000000000001e0000000000000000000000000000000000000000000000000000000000000016000000000000000000000000000000000000000000000000000000000000000000000000000000000000000000000000000000000000000000000000000000000000000000000000000000000000000000000000000000000000000000000000000000000000000000000000000000000000000000000000000000000000000000000000000000000000000000000000000000000000000000000000000000000000000000000000000000000000000000000000000000000000000000000000",
                    "decodedMethod": {
                        "callParams": [
                            {
                                "name": "_share",
                                "type": "((uint40,uint72,uint16,uint16),uint256,uint256,uint256,uint256,uint256,uint256,bool)",
                                "value": [
                                    {
                                        "name": "_stake",
                                        "type": "(uint40,uint72,uint16,uint16)",
                                        "value": [
                                            {
                                                "name": "stakeId",
                                                "type": "uint40",
                                                "value": "747,049"
                                            },
                                            {
                                                "name": "stakeShares",
                                                "type": "uint72",
                                                "value": "2,167,582,890,400"
                                            },
                                            {
                                                "name": "lockedDay",
                                                "type": "uint16",
                                                "value": "1,135"
                                            },
                                            {
                                                "name": "stakedDays",
                                                "type": "uint16",
                                                "value": "30"
                                            }
                                        ]
                                    },
                                    {
                                        "name": "_mintedDays",
                                        "type": "uint256",
                                        "value": "22"
                                    },
                                    {
                                        "name": "_launchBonus",
                                        "type": "uint256",
                                        "value": "0"
                                    },
                                    {
                                        "name": "_loanStart",
                                        "type": "uint256",
                                        "value": "0"
                                    },
                                    {
                                        "name": "_loanedDays",
                                        "type": "uint256",
                                        "value": "0"
                                    },
                                    {
                                        "name": "_interestRate",
                                        "type": "uint256",
                                        "value": "0"
                                    },
                                    {
                                        "name": "_paymentsMade",
                                        "type": "uint256",
                                        "value": "0"
                                    },
                                    {
                                        "name": "_isLoaned",
                                        "type": "bool",
                                        "value": false
                                    }
                                ]
                            }
                        ],
                        "constructorArguments": "",
                        "name": "update",
                        "returnParams": [],
                        "signature": "update(((uint40,uint72,uint16,uint16),uint256,uint256,uint256,uint256,uint256,uint256,bool))"
                    },
                    "errorInfo": "",
                    "fromAddress": "0x8bd3d1472a656e312e94fb1bbdd599b8c51d18e3",
                    "gasUsed": 23973,
                    "id": 7,
                    "methodDecoded": true,
                    "operation": "CALL",
                    "output": "",
                    "revert": false,
                    "revertMessage": "",
                    "selector": "0x7396ca65",
                    "status": true,
                    "value": "0"
                },
                "nodeType": 0
            },
            "8": {
                "invocation": {
                    "address": "0x64de999ce2fcbcf4f37ab16341de78ddf8722ad2",
                    "callData": "0x00000000000000000000000000000000000000000000000000000000000b6629000000000000000000000000000000000000000000000000000001f8ae0219a0000000000000000000000000000000000000000000000000000000000000046f000000000000000000000000000000000000000000000000000000000000001e0000000000000000000000000000000000000000000000000000000000000016000000000000000000000000000000000000000000000000000000000000000000000000000000000000000000000000000000000000000000000000000000000000000000000000000000000000000000000000000000000000000000000000000000000000000000000000000000000000000000000000000000000000000000000000000000000000000000000000000000000000000000000000000000000000000000000000000000000000000000000000000000000000000000000000",
                    "decodedMethod": {
                        "callParams": [
                            {
                                "name": "_share",
                                "type": "((uint40,uint72,uint16,uint16),uint256,uint256,uint256,uint256,uint256,uint256,bool)",
                                "value": [
                                    {
                                        "name": "_stake",
                                        "type": "(uint40,uint72,uint16,uint16)",
                                        "value": [
                                            {
                                                "name": "stakeId",
                                                "type": "uint40",
                                                "value": "747,049"
                                            },
                                            {
                                                "name": "stakeShares",
                                                "type": "uint72",
                                                "value": "2,167,582,890,400"
                                            },
                                            {
                                                "name": "lockedDay",
                                                "type": "uint16",
                                                "value": "1,135"
                                            },
                                            {
                                                "name": "stakedDays",
                                                "type": "uint16",
                                                "value": "30"
                                            }
                                        ]
                                    },
                                    {
                                        "name": "_mintedDays",
                                        "type": "uint256",
                                        "value": "22"
                                    },
                                    {
                                        "name": "_launchBonus",
                                        "type": "uint256",
                                        "value": "0"
                                    },
                                    {
                                        "name": "_loanStart",
                                        "type": "uint256",
                                        "value": "0"
                                    },
                                    {
                                        "name": "_loanedDays",
                                        "type": "uint256",
                                        "value": "0"
                                    },
                                    {
                                        "name": "_interestRate",
                                        "type": "uint256",
                                        "value": "0"
                                    },
                                    {
                                        "name": "_paymentsMade",
                                        "type": "uint256",
                                        "value": "0"
                                    },
                                    {
                                        "name": "_isLoaned",
                                        "type": "bool",
                                        "value": false
                                    }
                                ]
                            }
                        ],
                        "constructorArguments": "",
                        "name": "update",
                        "returnParams": [],
                        "signature": "update(((uint40,uint72,uint16,uint16),uint256,uint256,uint256,uint256,uint256,uint256,bool))"
                    },
                    "errorInfo": "",
                    "fromAddress": "0x8c03245f111219232589e734bdd599fd2e3166f9",
                    "gasUsed": 23744,
                    "id": 8,
                    "methodDecoded": true,
                    "operation": "DELEGATECALL",
                    "output": "",
                    "revert": false,
                    "revertMessage": "",
                    "selector": "0x7396ca65",
                    "status": true,
                    "value": "0"
                },
                "nodeType": 0
            }
        },
        "gasFlame": [
            {
                "children": [
                    {
                        "children": [
                            {
                                "children": [],
                                "depth": 0,
                                "name": "Initial Gas",
                                "value": 21560
                            },
                            {
                                "children": [
                                    {
                                        "children": [],
                                        "depth": 1,
                                        "name": "hsiLists",
                                        "value": 4894
                                    },
                                    {
                                        "children": [
                                            {
                                                "children": [],
                                                "depth": 2,
                                                "name": "share",
                                                "value": 5036
                                            }
                                        ],
                                        "depth": 1,
                                        "name": "share",
                                        "value": 7762
                                    },
                                    {
                                        "children": [
                                            {
                                                "children": [
                                                    {
                                                        "children": [],
                                                        "depth": 3,
                                                        "name": "update",
                                                        "value": 23744
                                                    }
                                                ],
                                                "depth": 2,
                                                "name": "update",
                                                "value": 23973
                                            }
                                        ],
                                        "depth": 1,
                                        "name": "hsiUpdate",
                                        "value": 28798
                                    }
                                ],
                                "depth": 0,
                                "name": "Executed Gas",
                                "value": 118896
                            }
                        ],
                        "depth": -1,
                        "name": "Actual Gas Used",
                        "value": 140456
                    },
                    {
                        "children": [],
                        "depth": -1,
                        "name": "Refunded Gas",
                        "value": 0
                    }
                ],
                "depth": -2,
                "name": "Total Gas",
                "value": 140456
            }
        ],
        "isConfirmed": true,
        "mainTrace": [
            {
                "children": [
                    {
                        "children": [
                            {
                                "children": [],
                                "depth": 1,
                                "id": 1,
                                "order": 1
                            },
                            {
                                "children": [
                                    {
                                        "children": [],
                                        "depth": 2,
                                        "id": 3,
                                        "order": 3
                                    }
                                ],
                                "depth": 1,
                                "id": 2,
                                "order": 2
                            },
                            {
                                "children": [],
                                "depth": 1,
                                "id": 4,
                                "order": 4
                            },
                            {
                                "children": [],
                                "depth": 1,
                                "id": 5,
                                "order": 5
                            },
                            {
                                "children": [
                                    {
                                        "children": [
                                            {
                                                "children": [],
                                                "depth": 3,
                                                "id": 8,
                                                "order": 8
                                            }
                                        ],
                                        "depth": 2,
                                        "id": 7,
                                        "order": 7
                                    }
                                ],
                                "depth": 1,
                                "id": 6,
                                "order": 6
                            }
                        ],
                        "depth": 0,
                        "id": 0,
                        "order": 0
                    }
                ],
                "depth": -1,
                "id": -1,
                "order": -1
            }
        ],
        "mainTraceNodeCount": 9,
        "parentIdMap": {
            "0": -1,
            "1": 0,
            "2": 0,
            "3": 2,
            "4": 0,
            "5": 0,
            "6": 0,
            "7": 6,
            "8": 7
        },
        "tidyTrace": [
            {
                "children": [
                    {
                        "children": [
                            {
                                "children": [],
                                "depth": 1,
                                "id": 4,
                                "order": 4
                            },
                            {
                                "children": [],
                                "depth": 1,
                                "id": 5,
                                "order": 5
                            },
                            {
                                "children": [
                                    {
                                        "children": [
                                            {
                                                "children": [],
                                                "depth": 3,
                                                "id": 8,
                                                "order": 8
                                            }
                                        ],
                                        "depth": 2,
                                        "id": 7,
                                        "order": 7
                                    }
                                ],
                                "depth": 1,
                                "id": 6,
                                "order": 6
                            }
                        ],
                        "depth": 0,
                        "id": 0,
                        "order": 0
                    }
                ],
                "depth": -1,
                "id": -1,
                "order": -1
            }
        ],
        "tidyTraceNodeCount": 6
    },
    "state_change": {
        "stateChanges": [
            {
                "address": "0x3819f64f282bf135d62168c1e513280daf905e06",
                "erc": "ERC-20",
                "slots": [
                    {
                        "current": "0x000000000000000000000000000000000000000000001856a93f43889a8e7d7a",
                        "key": "0x0000000000000000000000000000000000000000000000000000000000000002",
                        "prev": "0x000000000000000000000000000000000000000000001856a93f1829a66049ba"
                    },
                    {
                        "current": "0x00000000000000000000000000000000000000000000000000002b5ef42e33c0",
                        "key": "0x37ce2b7b1ef0ebd49633e7d5928fcb124c0ab609fc57f5de6c5b55fa7e695fc1",
                        "prev": "0x0000000000000000000000000000000000000000000000000000000000000000"
                    },
                    {
                        "current": "0x0000000000000000000000000000000000000000000000000000000000000016",
                        "key": "0xb5117a214e97e7b1354048391b797d769e75751d945388930eaa9931d3b802b2",
                        "prev": "0x0000000000000000000000000000000000000000000000000000000000000000"
                    },
                    {
                        "current": "0x00000001f500041df07a6d9ee9f000033cf6faea10e0d401178a157f230e5acb",
                        "key": "0xd43757b545a28ef093b674f0553f1b1e1413e6f497741997a3cb9a5c7ecad445",
                        "prev": "0x00000001f500041df07a6d9ee9f000033cf6faea10e0d4011789ea202ee0270b"
                    }
                ],
                "storageVariables": [
                    {
                        "name": "_totalSupply",
                        "type": "uint256",
                        "value": {
                            "current": "114935411119780436802938",
                            "prev": "114935411072093613214138",
                            "typeTag": 1
                        }
                    },
                    {
                        "name": "_balances",
                        "type": "mapping(address => uint256)",
                        "value": {
                            "pairs": [
                                {
                                    "key": "0xdf474f17f34c21bfa86a2e395f95465b256c5a54",
                                    "value": {
                                        "current": "47686823588800",
                                        "prev": "0",
                                        "typeTag": 1
                                    }
                                }
                            ],
                            "typeTag": 4
                        }
                    },
                    {
                        "name": "shareList",
                        "type": "mapping(uint256 => struct ShareStore)",
                        "value": {
                            "pairs": [
                                {
                                    "key": "747049",
                                    "value": {
                                        "fields": [
                                            {
                                                "name": "mintedDays",
                                                "type": "uint16",
                                                "value": {
                                                    "current": "22",
                                                    "prev": "0",
                                                    "typeTag": 1
                                                }
                                            },
                                            {
                                                "name": "launchBonus",
                                                "type": "uint8",
                                                "value": {
                                                    "current": "0",
                                                    "prev": "0",
                                                    "typeTag": 1
                                                }
                                            },
                                            {
                                                "name": "loanStart",
                                                "type": "uint16",
                                                "value": {
                                                    "current": "0",
                                                    "prev": "0",
                                                    "typeTag": 1
                                                }
                                            },
                                            {
                                                "name": "loanedDays",
                                                "type": "uint16",
                                                "value": {
                                                    "current": "0",
                                                    "prev": "0",
                                                    "typeTag": 1
                                                }
                                            },
                                            {
                                                "name": "interestRate",
                                                "type": "uint32",
                                                "value": {
                                                    "current": "0",
                                                    "prev": "0",
                                                    "typeTag": 1
                                                }
                                            },
                                            {
                                                "name": "paymentsMade",
                                                "type": "uint8",
                                                "value": {
                                                    "current": "0",
                                                    "prev": "0",
                                                    "typeTag": 1
                                                }
                                            },
                                            {
                                                "name": "isLoaned",
                                                "type": "bool",
                                                "value": {
                                                    "current": "false",
                                                    "prev": "false",
                                                    "typeTag": 1
                                                }
                                            }
                                        ],
                                        "typeTag": 3
                                    }
                                }
                            ],
                            "typeTag": 4
                        }
                    },
                    {
                        "name": "dailyDataList",
                        "type": "mapping(uint256 => struct Hedron.DailyDataStore)",
                        "value": {
                            "pairs": [
                                {
                                    "key": "341",
                                    "value": {
                                        "fields": [
                                            {
                                                "name": "dayMintedTotal",
                                                "type": "uint72",
                                                "value": {
                                                    "current": "20142935919161137867",
                                                    "prev": "20142888232337549067",
                                                    "typeTag": 1
                                                }
                                            },
                                            {
                                                "name": "dayLoanedTotal",
                                                "type": "uint72",
                                                "value": {
                                                    "current": "233332838245654740",
                                                    "prev": "233332838245654740",
                                                    "typeTag": 1
                                                }
                                            },
                                            {
                                                "name": "dayBurntTotal",
                                                "type": "uint72",
                                                "value": {
                                                    "current": "296657559092128240",
                                                    "prev": "296657559092128240",
                                                    "typeTag": 1
                                                }
                                            },
                                            {
                                                "name": "dayInterestRate",
                                                "type": "uint32",
                                                "value": {
                                                    "current": "501",
                                                    "prev": "501",
                                                    "typeTag": 1
                                                }
                                            },
                                            {
                                                "name": "dayMintMultiplier",
                                                "type": "uint8",
                                                "value": {
                                                    "current": "0",
                                                    "prev": "0",
                                                    "typeTag": 1
                                                }
                                            }
                                        ],
                                        "typeTag": 3
                                    }
                                }
                            ],
                            "typeTag": 4
                        }
                    }
                ]
            },
            {
                "address": "0x8c03245f111219232589e734bdd599fd2e3166f9",
                "erc": "",
                "slots": [
                    {
                        "current": "0x0000000000000000000000000000000000000000000000000000000000000016",
                        "key": "0x0000000000000000000000000000000000000000000000000000000000000003",
                        "prev": "0x0000000000000000000000000000000000000000000000000000000000000000"
                    }
                ],
                "storageVariables": []
            }
        ]
    }
}