{
    "balance_change": {
        "balanceChanges": [
            {
                "account": "0x5bd584f25b3f1d778e145ce0e048464e7babff79",
                "assets": [
                    {
                        "address": "0xc218b132d165d5017144734943bc003a4ceaccf8",
                        "amount": "11,000",
                        "iconUrl": "",
                        "isERC1155": false,
                        "isERC721": false,
                        "sign": false,
                        "value": ""
                    }
                ]
            },
            {
                "account": "0x964d23a69f93ee774ece4072b2d5565a356a9e90",
                "assets": [
                    {
                        "address": "0xc218b132d165d5017144734943bc003a4ceaccf8",
                        "amount": "11,000",
                        "iconUrl": "",
                        "isERC1155": false,
                        "isERC721": false,
                        "sign": true,
                        "value": ""
                    }
                ]
            }
        ]
    },
    "profile": {
        "basic_info": {
            "baseFee": "",
            "blockNumber": 5733967,
            "callData": "0xa9059cbb000000000000000000000000964d23a69f93ee774ece4072b2d5565a356a9e900000000000000000000000000000000000000000000002544faa778090e00000",
            "debugEnable": true,
            "errorInfo": "",
            "eventCount": 1,
            "feeRecipient": "0xab7f2baf977f02beb242af077a51ce9fa2cf83d2",
            "formatValue": "0",
            "gasLimit": 60000,
            "gasPrice": "10",
            "gasUsed": 37948,
            "intTxnCount": 0,
            "internalRevert": false,
            "internalRevertMessage": "",
            "isContractCreation": false,
            "isFlashloan": false,
            "maxFee": "",
            "nonce": 4,
            "overwritedBlockNumber": -1,
            "priorityFee": "",
            "receiver": "0xc218b132d165d5017144734943bc003a4ceaccf8",
            "revertMessage": "",
            "sender": "0x5bd584f25b3f1d778e145ce0e048464e7babff79",
            "simulationEnable": true,
            "sourceTxnHash": "0xd319761f964d4ea53acf8702d2359b65902dfaeb676d40ea9e7bb495782e1967",
            "status": true,
            "timestamp": "2018-06-05T01:54:28Z",
            "transactionFee": "0.00037948",
            "txnHash": "0xd319761f964d4ea53acf8702d2359b65902dfaeb676d40ea9e7bb495782e1967",
            "txnIndex": 59,
            "type": 0,
            "value": "0"
        },
        "fund_flow": [
            {
                "amount": "11,000",
                "from": "0x5bd584f25b3f1d778e145ce0e048464e7babff79",
                "id": 1,
                "isERC1155": false,
                "isERC721": false,
                "isReverted": false,
                "order": 1,
                "to": "0x964d23a69f93ee774ece4072b2d5565a356a9e90",
                "token": "0xc218b132d165d5017144734943bc003a4ceaccf8"
            }
        ],
        "token_infos": [
            {
                "address": "0xc02aaa39b223fe8d0a0e5c4f27ead9083c756cc2",
                "decimals": 18
            },
            {
                "address": "0xc218b132d165d5017144734943bc003a4ceaccf8",
                "decimals": 18
            },
            {
                "address": "0xeeeeeeeeeeeeeeeeeeeeeeeeeeeeeeeeeeeeeeee",
                "decimals": 18
            }
        ]
    },
    "address_label": {
        "labels": [
            {
                "address": "0xeeeeeeeeeeeeeeeeeeeeeeeeeeeeeeeeeeeeeeee",
                "label": "Ether"
            },
            {
                "address": "0xc218b132d165d5017144734943bc003a4ceaccf8",
                "label": "MitaoCoin (MITAO)"
            },
            {
                "address": "0x0000000000000000000000000000000000000001",
                "label": "Precompiled"
            },
            {
                "address": "0x0000000000000000000000000000000000000002",
                "label": "Precompiled"
            },
            {
                "address": "0x0000000000000000000000000000000000000003",
                "label": "Precompiled"
            },
            {
                "address": "0x0000000000000000000000000000000000000004",
                "label": "Precompiled"
            }
        ]
    },
    "trace": {
        "accountLabels": null,
        "dataMap": {
            "-1": {
                "invocation": {
                    "address": "0x5bd584f25b3f1d778e145ce0e048464e7babff79",
                    "callData": "",
                    "decodedMethod": null,
                    "errorInfo": "",
                    "fromAddress": "",
                    "gasUsed": 0,
                    "id": -1,
                    "methodDecoded": false,
                    "operation": "",
                    "output": "",
                    "revert": false,
                    "revertMessage": "",
                    "selector": "",
                    "status": false,
                    "value": ""
                },
                "nodeType": 0
            },
            "0": {
                "invocation": {
                    "address": "0xc218b132d165d5017144734943bc003a4ceaccf8",
                    "callData": "0x000000000000000000000000964d23a69f93ee774ece4072b2d5565a356a9e900000000000000000000000000000000000000000000002544faa778090e00000",
                    "decodedMethod": {
                        "callParams": [
                            {
                                "name": "_to",
                                "type": "address",
                                "value": "0x964d23a69f93ee774ece4072b2d5565a356a9e90"
                            },
                            {
                                "decimalAvailable": true,
                                "name": "_value",
                                "type": "uint256",
                                "value": "11,000,000,000,000,000,000,000"
                            }
                        ],
                        "constructorArguments": "",
                        "name": "transfer",
                        "returnParams": [],
                        "signature": "transfer(address,uint256)"
                    },
                    "errorInfo": "",
                    "fromAddress": "0x5bd584f25b3f1d778e145ce0e048464e7babff79",
                    "gasUsed": 37948,
                    "id": 0,
                    "methodDecoded": true,
                    "operation": "CALL",
                    "output": "",
                    "revert": false,
                    "revertMessage": "",
                    "selector": "0xa9059cbb",
                    "status": true,
                    "value": "0"
                },
                "nodeType": 0
            },
            "1": {
                "event": {
                    "contract": "0xc218b132d165d5017144734943bc003a4ceaccf8",
                    "decodedLog": {
                        "name": "Transfer",
                        "params": [
                            {
                                "name": "from",
                                "type": "address",
                                "value": "0x5bd584f25b3f1d778e145ce0e048464e7babff79"
                            },
                            {
                                "name": "to",
                                "type": "address",
                                "value": "0x964d23a69f93ee774ece4072b2d5565a356a9e90"
                            },
                            {
                                "decimalAvailable": true,
                                "name": "value",
                                "type": "uint256",
                                "value": "11,000,000,000,000,000,000,000"
                            }
                        ],
                        "signature": "Transfer(address,address,uint256)"
                    },
                    "id": 1,
                    "logData": "0x0000000000000000000000000000000000000000000002544faa778090e00000",
                    "logDecoded": true,
                    "operation": "EVENT",
                    "revert": false,
                    "status": true,
                    "topics": [
                        "0xddf252ad1be2c89b69c2b068fc378daa952ba7f163c4a11628f55a4df523b3ef",
                        "0x0000000000000000000000005bd584f25b3f1d778e145ce0e048464e7babff79",
                        "0x000000000000000000000000964d23a69f93ee774ece4072b2d5565a356a9e90"
                    ]
                },
                "nodeType": 1
            }
        },
        "gasFlame": [
            {
                "children": [
                    {
                        "children": [
                            {
                                "children": [],
                                "depth": 0,
                                "name": "Initial Gas",
                                "value": 23320
                            },
                            {
                                "children": [],
                                "depth": 0,
                                "name": "Executed Gas",
                                "value": 14628
                            }
                        ],
                        "depth": -1,
                        "name": "Actual Gas Used",
                        "value": 37948
                    },
                    {
                        "children": [],
                        "depth": -1,
                        "name": "Refunded Gas",
                        "value": 0
                    }
                ],
                "depth": -2,
                "name": "Total Gas",
                "value": 37948
            }
        ],
        "isConfirmed": true,
        "mainTrace": [
            {
                "children": [
                    {
                        "children": [
                            {
                                "children": [],
                                "depth": 1,
                                "id": 1,
                                "order": 1
                            }
                        ],
                        "depth": 0,
                        "id": 0,
                        "order": 0
                    }
                ],
                "depth": -1,
                "id": -1,
                "order": -1
            }
        ],
        "mainTraceNodeCount": 2,
        "parentIdMap": {
            "0": -1,
            "1": 0
        },
        "tidyTrace": [
            {
                "children": [
                    {
                        "children": [
                            {
                                "children": [],
                                "depth": 1,
                                "id": 1,
                                "order": 1
                            }
                        ],
                        "depth": 0,
                        "id": 0,
                        "order": 0
                    }
                ],
                "depth": -1,
                "id": -1,
                "order": -1
            }
        ],
        "tidyTraceNodeCount": 2
    },
    "state_change": {
        "stateChanges": [
            {
                "address": "0xc218b132d165d5017144734943bc003a4ceaccf8",
                "erc": "",
                "slots": [
                    {
                        "current": "0x00000000000000000000000000000000000000000000330de501d15901840000",
                        "key": "0x1c3a07d4abc2372cd35858c47066b50c0e43b2598b412a58c4f24c6ec4c6e959",
                        "prev": "0x0000000000000000000000000000000000000000000030b9955759d870a40000"
                    },
                    {
                        "current": "0x0000000000000000000000000000000000000000000000056bc75e2d63100000",
                        "key": "0x626dba1d047033479b6abe1f7352bf384343177afb045da0db441653d97e02f6",
                        "prev": "0x000000000000000000000000000000000000000000000259bb71d5adf3f00000"
                    }
                ],
                "storageVariables": [
                    {
                        "name": "balanceOf",
                        "type": "mapping(address => uint256)",
                        "value": {
                            "pairs": [
                                {
                                    "key": "0x5bd584f25b3f1d778e145ce0e048464e7babff79",
                                    "value": {
                                        "current": "100000000000000000000",
                                        "prev": "11100000000000000000000",
                                        "typeTag": 1
                                    }
                                },
                                {
                                    "key": "0x964d23a69f93ee774ece4072b2d5565a356a9e90",
                                    "value": {
                                        "current": "241097000000000000000000",
                                        "prev": "230097000000000000000000",
                                        "typeTag": 1
                                    }
                                }
                            ],
                            "typeTag": 4
                        }
                    }
                ]
            }
        ]
    }
}