{
    "balance_change": {
        "balanceChanges": [
            {
                "account": "0xa5d0cbe55334539638a5dcc7c07fe8f1d67396a8",
                "assets": [
                    {
                        "address": "0x7e51405ee33e81d7baaab2757e969027f34f5bf2",
                        "amount": "315",
                        "iconUrl": "",
                        "isERC1155": false,
                        "isERC721": false,
                        "sign": false,
                        "value": ""
                    }
                ]
            },
            {
                "account": "0xd1406f2d74919e04377d163cc6bb7cc143d8c2e3",
                "assets": [
                    {
                        "address": "0x7e51405ee33e81d7baaab2757e969027f34f5bf2",
                        "amount": "315",
                        "iconUrl": "",
                        "isERC1155": false,
                        "isERC721": false,
                        "sign": true,
                        "value": ""
                    }
                ]
            }
        ]
    },
    "profile": {
        "basic_info": {
            "baseFee": "",
            "blockNumber": 8887422,
            "callData": "0xa9059cbb000000000000000000000000d1406f2d74919e04377d163cc6bb7cc143d8c2e30000000000000000000000000000000000000000000000111380cf0ef80c0000",
            "debugEnable": true,
            "errorInfo": "",
            "eventCount": 1,
            "feeRecipient": "0xb2930b35844a230f00e51431acae96fe543a0347",
            "formatValue": "0",
            "gasLimit": 60000,
            "gasPrice": "1.1",
            "gasUsed": 36925,
            "intTxnCount": 0,
            "internalRevert": false,
            "internalRevertMessage": "",
            "isContractCreation": false,
            "isFlashloan": false,
            "maxFee": "",
            "nonce": 1474,
            "overwritedBlockNumber": -1,
            "priorityFee": "",
            "receiver": "0x7e51405ee33e81d7baaab2757e969027f34f5bf2",
            "revertMessage": "",
            "sender": "0xa5d0cbe55334539638a5dcc7c07fe8f1d67396a8",
            "simulationEnable": true,
            "sourceTxnHash": "0xd3cc22572de7fc8409950b439915ebee4493ec5ca56b345adf376a93ad60fe54",
            "status": true,
            "timestamp": "2019-11-07T02:14:05Z",
            "transactionFee": "0.0000406175",
            "txnHash": "0xd3cc22572de7fc8409950b439915ebee4493ec5ca56b345adf376a93ad60fe54",
            "txnIndex": 62,
            "type": 0,
            "value": "0"
        },
        "fund_flow": [
            {
                "amount": "315",
                "from": "0xa5d0cbe55334539638a5dcc7c07fe8f1d67396a8",
                "id": 1,
                "isERC1155": false,
                "isERC721": false,
                "isReverted": false,
                "order": 1,
                "to": "0xd1406f2d74919e04377d163cc6bb7cc143d8c2e3",
                "token": "0x7e51405ee33e81d7baaab2757e969027f34f5bf2"
            }
        ],
        "token_infos": [
            {
                "address": "0x7e51405ee33e81d7baaab2757e969027f34f5bf2",
                "decimals": 18
            },
            {
                "address": "0xc02aaa39b223fe8d0a0e5c4f27ead9083c756cc2",
                "decimals": 18
            },
            {
                "address": "0xeeeeeeeeeeeeeeeeeeeeeeeeeeeeeeeeeeeeeeee",
                "decimals": 18
            }
        ]
    },
    "address_label": {
        "labels": [
            {
                "address": "0x0000000000000000000000000000000000000002",
                "label": "Precompiled"
            },
            {
                "address": "0x0000000000000000000000000000000000000003",
                "label": "Precompiled"
            },
            {
                "address": "0x0000000000000000000000000000000000000004",
                "label": "Precompiled"
            },
            {
                "address": "0xeeeeeeeeeeeeeeeeeeeeeeeeeeeeeeeeeeeeeeee",
                "label": "Ether"
            },
            {
                "address": "0x7e51405ee33e81d7baaab2757e969027f34f5bf2",
                "label": "WSBC"
            },
            {
                "address": "0x0000000000000000000000000000000000000001",
                "label": "Precompiled"
            }
        ]
    },
    "trace": {
        "accountLabels": null,
        "dataMap": {
            "-1": {
                "invocation": {
                    "address": "0xa5d0cbe55334539638a5dcc7c07fe8f1d67396a8",
                    "callData": "",
                    "decodedMethod": null,
                    "errorInfo": "",
                    "fromAddress": "",
                    "gasUsed": 0,
                    "id": -1,
                    "methodDecoded": false,
                    "operation": "",
                    "output": "",
                    "revert": false,
                    "revertMessage": "",
                    "selector": "",
                    "status": false,
                    "value": ""
                },
                "nodeType": 0
            },
            "0": {
                "invocation": {
                    "address": "0x7e51405ee33e81d7baaab2757e969027f34f5bf2",
                    "callData": "0x000000000000000000000000d1406f2d74919e04377d163cc6bb7cc143d8c2e30000000000000000000000000000000000000000000000111380cf0ef80c0000",
                    "decodedMethod": {
                        "callParams": [
                            {
                                "name": "_to",
                                "type": "address",
                                "value": "0xd1406f2d74919e04377d163cc6bb7cc143d8c2e3"
                            },
                            {
                                "decimalAvailable": true,
                                "name": "_value",
                                "type": "uint256",
                                "value": "315,000,000,000,000,000,000"
                            }
                        ],
                        "constructorArguments": "",
                        "name": "transfer",
                        "returnParams": [
                            {
                                "name": "",
                                "type": "bool",
                                "value": true
                            }
                        ],
                        "signature": "transfer(address,uint256)"
                    },
                    "errorInfo": "",
                    "fromAddress": "0xa5d0cbe55334539638a5dcc7c07fe8f1d67396a8",
                    "gasUsed": 36925,
                    "id": 0,
                    "methodDecoded": true,
                    "operation": "CALL",
                    "output": "0x0000000000000000000000000000000000000000000000000000000000000001",
                    "revert": false,
                    "revertMessage": "",
                    "selector": "0xa9059cbb",
                    "status": true,
                    "value": "0"
                },
                "nodeType": 0
            },
            "1": {
                "event": {
                    "contract": "0x7e51405ee33e81d7baaab2757e969027f34f5bf2",
                    "decodedLog": {
                        "name": "Transfer",
                        "params": [
                            {
                                "name": "from",
                                "type": "address",
                                "value": "0xa5d0cbe55334539638a5dcc7c07fe8f1d67396a8"
                            },
                            {
                                "name": "to",
                                "type": "address",
                                "value": "0xd1406f2d74919e04377d163cc6bb7cc143d8c2e3"
                            },
                            {
                                "decimalAvailable": true,
                                "name": "value",
                                "type": "uint256",
                                "value": "315,000,000,000,000,000,000"
                            }
                        ],
                        "signature": "Transfer(address,address,uint256)"
                    },
                    "id": 1,
                    "logData": "0x0000000000000000000000000000000000000000000000111380cf0ef80c0000",
                    "logDecoded": true,
                    "operation": "EVENT",
                    "revert": false,
                    "status": true,
                    "topics": [
                        "0xddf252ad1be2c89b69c2b068fc378daa952ba7f163c4a11628f55a4df523b3ef",
                        "0x000000000000000000000000a5d0cbe55334539638a5dcc7c07fe8f1d67396a8",
                        "0x000000000000000000000000d1406f2d74919e04377d163cc6bb7cc143d8c2e3"
                    ]
                },
                "nodeType": 1
            }
        },
        "gasFlame": [
            {
                "children": [
                    {
                        "children": [
                            {
                                "children": [],
                                "depth": 0,
                                "name": "Initial Gas",
                                "value": 23256
                            },
                            {
                                "children": [],
                                "depth": 0,
                                "name": "Executed Gas",
                                "value": 13669
                            }
                        ],
                        "depth": -1,
                        "name": "Actual Gas Used",
                        "value": 36925
                    },
                    {
                        "children": [],
                        "depth": -1,
                        "name": "Refunded Gas",
                        "value": 0
                    }
                ],
                "depth": -2,
                "name": "Total Gas",
                "value": 36925
            }
        ],
        "isConfirmed": true,
        "mainTrace": [
            {
                "children": [
                    {
                        "children": [
                            {
                                "children": [],
                                "depth": 1,
                                "id": 1,
                                "order": 1
                            }
                        ],
                        "depth": 0,
                        "id": 0,
                        "order": 0
                    }
                ],
                "depth": -1,
                "id": -1,
                "order": -1
            }
        ],
        "mainTraceNodeCount": 2,
        "parentIdMap": {
            "0": -1,
            "1": 0
        },
        "tidyTrace": [
            {
                "children": [
                    {
                        "children": [
                            {
                                "children": [],
                                "depth": 1,
                                "id": 1,
                                "order": 1
                            }
                        ],
                        "depth": 0,
                        "id": 0,
                        "order": 0
                    }
                ],
                "depth": -1,
                "id": -1,
                "order": -1
            }
        ],
        "tidyTraceNodeCount": 2
    },
    "state_change": {
        "stateChanges": [
            {
                "address": "0x7e51405ee33e81d7baaab2757e969027f34f5bf2",
                "erc": "ERC-20",
                "slots": [
                    {
                        "current": "0x00000000000000000000000000000000000000000000558d27a9cdc599740000",
                        "key": "0x257413fe9e3d174fdee9f546d85f094168e089821a526a2570a872de02fb8591",
                        "prev": "0x00000000000000000000000000000000000000000000559e3b2a9cd491800000"
                    },
                    {
                        "current": "0x0000000000000000000000000000000000000000000007242e841a9719700000",
                        "key": "0xafc2798e82d79964b6f7b9ce4917fc70ae5eca609776694e66015aa02593b1c6",
                        "prev": "0x0000000000000000000000000000000000000000000007131b034b8821640000"
                    }
                ],
                "storageVariables": [
                    {
                        "name": "balances",
                        "type": "mapping(address => uint256)",
                        "value": {
                            "pairs": [
                                {
                                    "key": "0xa5d0cbe55334539638a5dcc7c07fe8f1d67396a8",
                                    "value": {
                                        "current": "404005000000000000000000",
                                        "prev": "404320000000000000000000",
                                        "typeTag": 1
                                    }
                                },
                                {
                                    "key": "0xd1406f2d74919e04377d163cc6bb7cc143d8c2e3",
                                    "value": {
                                        "current": "33724000000000000000000",
                                        "prev": "33409000000000000000000",
                                        "typeTag": 1
                                    }
                                }
                            ],
                            "typeTag": 4
                        }
                    }
                ]
            }
        ]
    }
}