{
    "balance_change": {
        "balanceChanges": [
            {
                "account": "0x3dbf08a00da87a1f23135df929edccf6379693e9",
                "assets": [
                    {
                        "address": "0xeeeeeeeeeeeeeeeeeeeeeeeeeeeeeeeeeeeeeeee",
                        "amount": "0.18",
                        "iconUrl": "https://assets.blocksec.com/image/1663669189317-3.png",
                        "isERC1155": false,
                        "isERC721": false,
                        "sign": false,
                        "value": "748.3096512"
                    },
                    {
                        "address": "0x3abf2a4f8452ccc2cf7b4c1e4663147600646f66",
                        "amount": "41,784.017184",
                        "iconUrl": "",
                        "isERC1155": false,
                        "isERC721": false,
                        "sign": true,
                        "value": "670.4378356"
                    }
                ]
            },
            {
                "account": "0xd569d3cce55b71a8a3f3c418c329a66e5f714431",
                "assets": [
                    {
                        "address": "0xeeeeeeeeeeeeeeeeeeeeeeeeeeeeeeeeeeeeeeee",
                        "amount": "0.18",
                        "iconUrl": "https://assets.blocksec.com/image/1663669189317-3.png",
                        "isERC1155": false,
                        "isERC721": false,
                        "sign": true,
                        "value": "748.3096512"
                    }
                ]
            },
            {
                "account": "0x0000000000000000000000000000000000000000",
                "assets": [
                    {
                        "address": "0x3abf2a4f8452ccc2cf7b4c1e4663147600646f66",
                        "amount": "41,784.017184",
                        "iconUrl": "",
                        "isERC1155": false,
                        "isERC721": false,
                        "sign": false,
                        "value": "670.4378356"
                    }
                ]
            }
        ]
    },
    "profile": {
        "basic_info": {
            "baseFee": "83.235421026",
            "blockNumber": 13697331,
            "callData": "0x02c8986f00000000000000000000000000000000000000000000000000000000000000010000000000000000000000003dbf08a00da87a1f23135df929edccf6379693e9000000000000000000000000000000000000000000000000000000000000008000000000000000000000000000000000000000000000000000000000000000010000000000000000000000000000000000000000000000000000000000000000",
            "debugEnable": true,
            "errorInfo": "",
            "eventCount": 3,
            "feeRecipient": "0x1ad91ee08f21be3de0ba2ba6918e714da6b45836",
            "formatValue": "0.18",
            "gasLimit": 117490,
            "gasPrice": "84.735421026",
            "gasUsed": 117490,
            "intTxnCount": 5,
            "internalRevert": false,
            "internalRevertMessage": "",
            "isContractCreation": false,
            "isFlashloan": false,
            "maxFee": "115.461580212",
            "nonce": 0,
            "overwritedBlockNumber": -1,
            "priorityFee": "1.5",
            "receiver": "0xd569d3cce55b71a8a3f3c418c329a66e5f714431",
            "revertMessage": "",
            "sender": "0x3dbf08a00da87a1f23135df929edccf6379693e9",
            "simulationEnable": true,
            "sourceTxnHash": "0xd3062e9712d24b80142fab39849a5fe6e28408583f844d18749aec03bfac11b8",
            "status": true,
            "timestamp": "2021-11-27T17:18:13Z",
            "transactionFee": "0.00995556461634474",
            "txnHash": "0xd3062e9712d24b80142fab39849a5fe6e28408583f844d18749aec03bfac11b8",
            "txnIndex": 231,
            "type": 2,
            "value": "180000000000000000"
        },
        "fund_flow": [
            {
                "amount": "0.18",
                "from": "0x3dbf08a00da87a1f23135df929edccf6379693e9",
                "id": 1,
                "isERC1155": false,
                "isERC721": false,
                "isReverted": false,
                "order": 1,
                "to": "0xd569d3cce55b71a8a3f3c418c329a66e5f714431",
                "token": "0xeeeeeeeeeeeeeeeeeeeeeeeeeeeeeeeeeeeeeeee"
            },
            {
                "amount": "41,784.017184",
                "from": "0x0000000000000000000000000000000000000000",
                "id": 2,
                "isERC1155": false,
                "isERC721": false,
                "isReverted": false,
                "order": 2,
                "to": "0x3dbf08a00da87a1f23135df929edccf6379693e9",
                "token": "0x3abf2a4f8452ccc2cf7b4c1e4663147600646f66"
            }
        ],
        "token_infos": [
            {
                "address": "0x3abf2a4f8452ccc2cf7b4c1e4663147600646f66",
                "decimals": 18
            },
            {
                "address": "0xc02aaa39b223fe8d0a0e5c4f27ead9083c756cc2",
                "decimals": 18
            },
            {
                "address": "0xeeeeeeeeeeeeeeeeeeeeeeeeeeeeeeeeeeeeeeee",
                "decimals": 18
            }
        ]
    },
    "address_label": {
        "labels": [
            {
                "address": "0xeeeeeeeeeeeeeeeeeeeeeeeeeeeeeeeeeeeeeeee",
                "label": "Ether"
            },
            {
                "address": "0x6d6da471703647fd8b84ffb1a29e037686dbd8b2",
                "label": "Juicebox: Active 3 Days Funding Cycle Ballot"
            },
            {
                "address": "0x0000000000000000000000000000000000000004",
                "label": "Precompiled"
            },
            {
                "address": "0x0000000000000000000000000000000000000002",
                "label": "Precompiled"
            },
            {
                "address": "0x0000000000000000000000000000000000000003",
                "label": "Precompiled"
            },
            {
                "address": "0x3abf2a4f8452ccc2cf7b4c1e4663147600646f66",
                "label": "Juicebox (JBX)"
            },
            {
                "address": "0x46c9999a2edcd5aa177ed7e8af90c68b7d75ba46",
                "label": "Juicebox: Terminal Directory"
            },
            {
                "address": "0xd569d3cce55b71a8a3f3c418c329a66e5f714431",
                "label": "Juicebox: Terminal V1"
            },
            {
                "address": "0xee2ebccb7cdb34a8a822b589f9e8427c24351bfc",
                "label": "Juicebox: Ticket Booth"
            },
            {
                "address": "0xf507b2a1dd7439201eb07f11e1d62afb29216e2e",
                "label": "Juicebox: Funding Cycles"
            },
            {
                "address": "0x0000000000000000000000000000000000000001",
                "label": "Precompiled"
            }
        ]
    },
    "trace": {
        "accountLabels": null,
        "dataMap": {
            "-1": {
                "invocation": {
                    "address": "0x3dbf08a00da87a1f23135df929edccf6379693e9",
                    "callData": "",
                    "decodedMethod": null,
                    "errorInfo": "",
                    "fromAddress": "",
                    "gasUsed": 0,
                    "id": -1,
                    "methodDecoded": false,
                    "operation": "",
                    "output": "",
                    "revert": false,
                    "revertMessage": "",
                    "selector": "",
                    "status": false,
                    "value": ""
                },
                "nodeType": 0
            },
            "0": {
                "invocation": {
                    "address": "0xd569d3cce55b71a8a3f3c418c329a66e5f714431",
                    "callData": "0x00000000000000000000000000000000000000000000000000000000000000010000000000000000000000003dbf08a00da87a1f23135df929edccf6379693e9000000000000000000000000000000000000000000000000000000000000008000000000000000000000000000000000000000000000000000000000000000010000000000000000000000000000000000000000000000000000000000000000",
                    "decodedMethod": {
                        "callParams": [
                            {
                                "name": "_projectId",
                                "type": "uint256",
                                "value": "1"
                            },
                            {
                                "name": "_beneficiary",
                                "type": "address",
                                "value": "0x3dbf08a00da87a1f23135df929edccf6379693e9"
                            },
                            {
                                "name": "_memo",
                                "type": "string",
                                "value": ""
                            },
                            {
                                "name": "_preferUnstakedTickets",
                                "type": "bool",
                                "value": true
                            }
                        ],
                        "constructorArguments": "",
                        "name": "pay",
                        "returnParams": [
                            {
                                "name": "",
                                "type": "uint256",
                                "value": "112"
                            }
                        ],
                        "signature": "pay(uint256,address,string,bool)"
                    },
                    "errorInfo": "",
                    "fromAddress": "0x3dbf08a00da87a1f23135df929edccf6379693e9",
                    "gasUsed": 117490,
                    "id": 0,
                    "methodDecoded": true,
                    "operation": "CALL",
                    "output": "0x0000000000000000000000000000000000000000000000000000000000000070",
                    "revert": false,
                    "revertMessage": "",
                    "selector": "0x02c8986f",
                    "status": true,
                    "value": "0.18"
                },
                "nodeType": 0
            },
            "1": {
                "invocation": {
                    "address": "0xf507b2a1dd7439201eb07f11e1d62afb29216e2e",
                    "callData": "0x0000000000000000000000000000000000000000000000000000000000000001",
                    "decodedMethod": {
                        "callParams": [
                            {
                                "name": "_projectId",
                                "type": "uint256",
                                "value": "1"
                            }
                        ],
                        "constructorArguments": "",
                        "name": "currentOf",
                        "returnParams": [
                            {
                                "name": "fundingCycle",
                                "type": "(uint256,uint256,uint256,uint256,uint256,uint256,uint256,address,uint256,uint256,uint256,uint256,uint256,uint256,uint256,uint256)",
                                "value": [
                                    {
                                        "name": "id",
                                        "type": "uint256",
                                        "value": "112"
                                    },
                                    {
                                        "name": "projectId",
                                        "type": "uint256",
                                        "value": "1"
                                    },
                                    {
                                        "name": "number",
                                        "type": "uint256",
                                        "value": "9"
                                    },
                                    {
                                        "name": "basedOn",
                                        "type": "uint256",
                                        "value": "98"
                                    },
                                    {
                                        "name": "configured",
                                        "type": "uint256",
                                        "value": "1,637,153,795"
                                    },
                                    {
                                        "name": "cycleLimit",
                                        "type": "uint256",
                                        "value": "0"
                                    },
                                    {
                                        "name": "weight",
                                        "type": "uint256",
                                        "value": "357,128,352,000,000,000,000,000"
                                    },
                                    {
                                        "name": "ballot",
                                        "type": "address",
                                        "value": "0x6d6da471703647fd8b84ffb1a29e037686dbd8b2"
                                    },
                                    {
                                        "name": "start",
                                        "type": "uint256",
                                        "value": "1,637,435,973"
                                    },
                                    {
                                        "name": "duration",
                                        "type": "uint256",
                                        "value": "14"
                                    },
                                    {
                                        "name": "target",
                                        "type": "uint256",
                                        "value": "45,100,000,000,000,000,000,000"
                                    },
                                    {
                                        "name": "currency",
                                        "type": "uint256",
                                        "value": "1"
                                    },
                                    {
                                        "name": "fee",
                                        "type": "uint256",
                                        "value": "0"
                                    },
                                    {
                                        "name": "discountRate",
                                        "type": "uint256",
                                        "value": "100"
                                    },
                                    {
                                        "name": "tapped",
                                        "type": "uint256",
                                        "value": "45,100,000,000,000,000,000,000"
                                    },
                                    {
                                        "name": "metadata",
                                        "type": "uint256",
                                        "value": "2,021,148,160"
                                    }
                                ]
                            }
                        ],
                        "signature": "currentOf(uint256)"
                    },
                    "errorInfo": "",
                    "fromAddress": "0xd569d3cce55b71a8a3f3c418c329a66e5f714431",
                    "gasUsed": 32973,
                    "id": 1,
                    "methodDecoded": true,
                    "operation": "STATICCALL",
                    "output": "0x0000000000000000000000000000000000000000000000000000000000000070000000000000000000000000000000000000000000000000000000000000000100000000000000000000000000000000000000000000000000000000000000090000000000000000000000000000000000000000000000000000000000000062000000000000000000000000000000000000000000000000000000006194fc030000000000000000000000000000000000000000000000000000000000000000000000000000000000000000000000000000000000004b9ff77d3ce5b81000000000000000000000000000006d6da471703647fd8b84ffb1a29e037686dbd8b20000000000000000000000000000000000000000000000000000000061994a45000000000000000000000000000000000000000000000000000000000000000e00000000000000000000000000000000000000000000098ce03ae9f58530000000000000000000000000000000000000000000000000000000000000000000010000000000000000000000000000000000000000000000000000000000000000000000000000000000000000000000000000000000000000000000000000006400000000000000000000000000000000000000000000098ce03ae9f5853000000000000000000000000000000000000000000000000000000000000078784600",
                    "revert": false,
                    "revertMessage": "",
                    "selector": "0x43a266c2",
                    "status": true,
                    "value": "0"
                },
                "nodeType": 0
            },
            "2": {
                "invocation": {
                    "address": "0x6d6da471703647fd8b84ffb1a29e037686dbd8b2",
                    "callData": "0x0000000000000000000000000000000000000000000000000000000000000070000000000000000000000000000000000000000000000000000000006194fc03",
                    "decodedMethod": {
                        "callParams": [
                            {
                                "name": "",
                                "type": "uint256",
                                "value": "112"
                            },
                            {
                                "name": "_configured",
                                "type": "uint256",
                                "value": "1,637,153,795"
                            }
                        ],
                        "constructorArguments": "",
                        "name": "state",
                        "returnParams": [
                            {
                                "name": "",
                                "type": "uint8",
                                "value": "0"
                            }
                        ],
                        "signature": "state(uint256,uint256)"
                    },
                    "errorInfo": "",
                    "fromAddress": "0xf507b2a1dd7439201eb07f11e1d62afb29216e2e",
                    "gasUsed": 478,
                    "id": 2,
                    "methodDecoded": true,
                    "operation": "STATICCALL",
                    "output": "0x0000000000000000000000000000000000000000000000000000000000000000",
                    "revert": false,
                    "revertMessage": "",
                    "selector": "0x4d393dc9",
                    "status": true,
                    "value": "0"
                },
                "nodeType": 0
            },
            "3": {
                "invocation": {
                    "address": "0xee2ebccb7cdb34a8a822b589f9e8427c24351bfc",
                    "callData": "0x0000000000000000000000003dbf08a00da87a1f23135df929edccf6379693e900000000000000000000000000000000000000000000000000000000000000010000000000000000000000000000000000000000000008d91db967a311b200000000000000000000000000000000000000000000000000000000000000000001",
                    "decodedMethod": {
                        "callParams": [
                            {
                                "name": "_holder",
                                "type": "address",
                                "value": "0x3dbf08a00da87a1f23135df929edccf6379693e9"
                            },
                            {
                                "name": "_projectId",
                                "type": "uint256",
                                "value": "1"
                            },
                            {
                                "name": "_amount",
                                "type": "uint256",
                                "value": "41,784,017,184,000,000,000,000"
                            },
                            {
                                "name": "_preferUnstakedTickets",
                                "type": "bool",
                                "value": true
                            }
                        ],
                        "constructorArguments": "",
                        "name": "print",
                        "returnParams": [],
                        "signature": "print(address,uint256,uint256,bool)"
                    },
                    "errorInfo": "",
                    "fromAddress": "0xd569d3cce55b71a8a3f3c418c329a66e5f714431",
                    "gasUsed": 45708,
                    "id": 3,
                    "methodDecoded": true,
                    "operation": "CALL",
                    "output": "",
                    "revert": false,
                    "revertMessage": "",
                    "selector": "0xe0826c89",
                    "status": true,
                    "value": "0"
                },
                "nodeType": 0
            },
            "4": {
                "invocation": {
                    "address": "0x46c9999a2edcd5aa177ed7e8af90c68b7d75ba46",
                    "callData": "0x0000000000000000000000000000000000000000000000000000000000000001",
                    "decodedMethod": {
                        "callParams": [
                            {
                                "name": "",
                                "type": "uint256",
                                "value": "1"
                            }
                        ],
                        "constructorArguments": "",
                        "name": "terminalOf",
                        "returnParams": [
                            {
                                "name": "",
                                "type": "address",
                                "value": "0xd569d3cce55b71a8a3f3c418c329a66e5f714431"
                            }
                        ],
                        "signature": "terminalOf(uint256)"
                    },
                    "errorInfo": "",
                    "fromAddress": "0xee2ebccb7cdb34a8a822b589f9e8427c24351bfc",
                    "gasUsed": 2476,
                    "id": 4,
                    "methodDecoded": true,
                    "operation": "STATICCALL",
                    "output": "0x000000000000000000000000d569d3cce55b71a8a3f3c418c329a66e5f714431",
                    "revert": false,
                    "revertMessage": "",
                    "selector": "0x4fe0eced",
                    "status": true,
                    "value": "0"
                },
                "nodeType": 0
            },
            "5": {
                "invocation": {
                    "address": "0x3abf2a4f8452ccc2cf7b4c1e4663147600646f66",
                    "callData": "0x0000000000000000000000003dbf08a00da87a1f23135df929edccf6379693e90000000000000000000000000000000000000000000008d91db967a311b20000",
                    "decodedMethod": {
                        "callParams": [
                            {
                                "name": "_account",
                                "type": "address",
                                "value": "0x3dbf08a00da87a1f23135df929edccf6379693e9"
                            },
                            {
                                "name": "_amount",
                                "type": "uint256",
                                "value": "41,784,017,184,000,000,000,000"
                            }
                        ],
                        "constructorArguments": "",
                        "name": "print",
                        "returnParams": [],
                        "signature": "print(address,uint256)"
                    },
                    "errorInfo": "",
                    "fromAddress": "0xee2ebccb7cdb34a8a822b589f9e8427c24351bfc",
                    "gasUsed": 31763,
                    "id": 5,
                    "methodDecoded": true,
                    "operation": "CALL",
                    "output": "",
                    "revert": false,
                    "revertMessage": "",
                    "selector": "0xac685539",
                    "status": true,
                    "value": "0"
                },
                "nodeType": 0
            },
            "6": {
                "event": {
                    "contract": "0x3abf2a4f8452ccc2cf7b4c1e4663147600646f66",
                    "decodedLog": {
                        "name": "Transfer",
                        "params": [
                            {
                                "name": "from",
                                "type": "address",
                                "value": "0x0000000000000000000000000000000000000000"
                            },
                            {
                                "name": "to",
                                "type": "address",
                                "value": "0x3dbf08a00da87a1f23135df929edccf6379693e9"
                            },
                            {
                                "decimalAvailable": true,
                                "name": "value",
                                "type": "uint256",
                                "value": "41,784,017,184,000,000,000,000"
                            }
                        ],
                        "signature": "Transfer(address,address,uint256)"
                    },
                    "id": 6,
                    "logData": "0x0000000000000000000000000000000000000000000008d91db967a311b20000",
                    "logDecoded": true,
                    "operation": "EVENT",
                    "revert": false,
                    "status": true,
                    "topics": [
                        "0xddf252ad1be2c89b69c2b068fc378daa952ba7f163c4a11628f55a4df523b3ef",
                        "0x0000000000000000000000000000000000000000000000000000000000000000",
                        "0x0000000000000000000000003dbf08a00da87a1f23135df929edccf6379693e9"
                    ]
                },
                "nodeType": 1
            },
            "7": {
                "event": {
                    "contract": "0xee2ebccb7cdb34a8a822b589f9e8427c24351bfc",
                    "decodedLog": {
                        "name": "Print",
                        "params": [
                            {
                                "name": "holder",
                                "type": "address",
                                "value": "0x3dbf08a00da87a1f23135df929edccf6379693e9"
                            },
                            {
                                "name": "projectId",
                                "type": "uint256",
                                "value": "1"
                            },
                            {
                                "name": "amount",
                                "type": "uint256",
                                "value": "41,784,017,184,000,000,000,000"
                            },
                            {
                                "name": "convertedTickets",
                                "type": "bool",
                                "value": true
                            },
                            {
                                "name": "preferUnstakedTickets",
                                "type": "bool",
                                "value": true
                            },
                            {
                                "name": "controller",
                                "type": "address",
                                "value": "0xd569d3cce55b71a8a3f3c418c329a66e5f714431"
                            }
                        ],
                        "signature": "Print(address,uint256,uint256,bool,bool,address)"
                    },
                    "id": 7,
                    "logData": "0x0000000000000000000000000000000000000000000008d91db967a311b2000000000000000000000000000000000000000000000000000000000000000000010000000000000000000000000000000000000000000000000000000000000001000000000000000000000000d569d3cce55b71a8a3f3c418c329a66e5f714431",
                    "logDecoded": true,
                    "operation": "EVENT",
                    "revert": false,
                    "status": true,
                    "topics": [
                        "0x1d52fee743b6ab8b9037ca51c77fba34120c1ccf69645da4defbb13472869878",
                        "0x0000000000000000000000003dbf08a00da87a1f23135df929edccf6379693e9",
                        "0x0000000000000000000000000000000000000000000000000000000000000001"
                    ]
                },
                "nodeType": 1
            },
            "8": {
                "event": {
                    "contract": "0xd569d3cce55b71a8a3f3c418c329a66e5f714431",
                    "decodedLog": {
                        "name": "Pay",
                        "params": [
                            {
                                "name": "fundingCycleId",
                                "type": "uint256",
                                "value": "112"
                            },
                            {
                                "name": "projectId",
                                "type": "uint256",
                                "value": "1"
                            },
                            {
                                "name": "beneficiary",
                                "type": "address",
                                "value": "0x3dbf08a00da87a1f23135df929edccf6379693e9"
                            },
                            {
                                "name": "amount",
                                "type": "uint256",
                                "value": "180,000,000,000,000,000"
                            },
                            {
                                "name": "note",
                                "type": "string",
                                "value": ""
                            },
                            {
                                "name": "caller",
                                "type": "address",
                                "value": "0x3dbf08a00da87a1f23135df929edccf6379693e9"
                            }
                        ],
                        "signature": "Pay(uint256,uint256,address,uint256,string,address)"
                    },
                    "id": 8,
                    "logData": "0x000000000000000000000000000000000000000000000000027f7d0bdb92000000000000000000000000000000000000000000000000000000000000000000600000000000000000000000003dbf08a00da87a1f23135df929edccf6379693e90000000000000000000000000000000000000000000000000000000000000000",
                    "logDecoded": true,
                    "operation": "EVENT",
                    "revert": false,
                    "status": true,
                    "topics": [
                        "0x3deb3bb81c337489381f7685daa204d30e6a265dac443a718949c258e3e17317",
                        "0x0000000000000000000000000000000000000000000000000000000000000070",
                        "0x0000000000000000000000000000000000000000000000000000000000000001",
                        "0x0000000000000000000000003dbf08a00da87a1f23135df929edccf6379693e9"
                    ]
                },
                "nodeType": 1
            }
        },
        "gasFlame": [
            {
                "children": [
                    {
                        "children": [
                            {
                                "children": [],
                                "depth": 0,
                                "name": "Initial Gas",
                                "value": 21980
                            },
                            {
                                "children": [
                                    {
                                        "children": [
                                            {
                                                "children": [],
                                                "depth": 2,
                                                "name": "state",
                                                "value": 478
                                            }
                                        ],
                                        "depth": 1,
                                        "name": "currentOf",
                                        "value": 32973
                                    },
                                    {
                                        "children": [
                                            {
                                                "children": [],
                                                "depth": 2,
                                                "name": "terminalOf",
                                                "value": 2476
                                            },
                                            {
                                                "children": [],
                                                "depth": 2,
                                                "name": "print",
                                                "value": 31763
                                            }
                                        ],
                                        "depth": 1,
                                        "name": "print",
                                        "value": 45708
                                    }
                                ],
                                "depth": 0,
                                "name": "Executed Gas",
                                "value": 95510
                            }
                        ],
                        "depth": -1,
                        "name": "Actual Gas Used",
                        "value": 117490
                    },
                    {
                        "children": [],
                        "depth": -1,
                        "name": "Refunded Gas",
                        "value": 0
                    }
                ],
                "depth": -2,
                "name": "Total Gas",
                "value": 117490
            }
        ],
        "isConfirmed": true,
        "mainTrace": [
            {
                "children": [
                    {
                        "children": [
                            {
                                "children": [
                                    {
                                        "children": [],
                                        "depth": 2,
                                        "id": 2,
                                        "order": 2
                                    }
                                ],
                                "depth": 1,
                                "id": 1,
                                "order": 1
                            },
                            {
                                "children": [
                                    {
                                        "children": [],
                                        "depth": 2,
                                        "id": 4,
                                        "order": 4
                                    },
                                    {
                                        "children": [
                                            {
                                                "children": [],
                                                "depth": 3,
                                                "id": 6,
                                                "order": 6
                                            }
                                        ],
                                        "depth": 2,
                                        "id": 5,
                                        "order": 5
                                    },
                                    {
                                        "children": [],
                                        "depth": 2,
                                        "id": 7,
                                        "order": 7
                                    }
                                ],
                                "depth": 1,
                                "id": 3,
                                "order": 3
                            },
                            {
                                "children": [],
                                "depth": 1,
                                "id": 8,
                                "order": 8
                            }
                        ],
                        "depth": 0,
                        "id": 0,
                        "order": 0
                    }
                ],
                "depth": -1,
                "id": -1,
                "order": -1
            }
        ],
        "mainTraceNodeCount": 9,
        "parentIdMap": {
            "0": -1,
            "1": 0,
            "2": 1,
            "3": 0,
            "4": 3,
            "5": 3,
            "6": 5,
            "7": 3,
            "8": 0
        },
        "tidyTrace": [
            {
                "children": [
                    {
                        "children": [
                            {
                                "children": [
                                    {
                                        "children": [
                                            {
                                                "children": [],
                                                "depth": 3,
                                                "id": 6,
                                                "order": 6
                                            }
                                        ],
                                        "depth": 2,
                                        "id": 5,
                                        "order": 5
                                    },
                                    {
                                        "children": [],
                                        "depth": 2,
                                        "id": 7,
                                        "order": 7
                                    }
                                ],
                                "depth": 1,
                                "id": 3,
                                "order": 3
                            },
                            {
                                "children": [],
                                "depth": 1,
                                "id": 8,
                                "order": 8
                            }
                        ],
                        "depth": 0,
                        "id": 0,
                        "order": 0
                    }
                ],
                "depth": -1,
                "id": -1,
                "order": -1
            }
        ],
        "tidyTraceNodeCount": 6
    },
    "state_change": {
        "stateChanges": [
            {
                "address": "0x3abf2a4f8452ccc2cf7b4c1e4663147600646f66",
                "erc": "ERC-20",
                "slots": [
                    {
                        "current": "0x000000000000000000000000000000000000000003642524c8d9d1d30510c5bb",
                        "key": "0x0000000000000000000000000000000000000000000000000000000000000002",
                        "prev": "0x000000000000000000000000000000000000000003641c4bab206a2ff35ec5bb"
                    },
                    {
                        "current": "0x0000000000000000000000000000000000000000000008d91db967a311b20000",
                        "key": "0x9811076c4ea989a425fa49df4d22ac75e0c2871b68c0784840369237be6bb595",
                        "prev": "0x0000000000000000000000000000000000000000000000000000000000000000"
                    }
                ],
                "storageVariables": [
                    {
                        "name": "_totalSupply",
                        "type": "uint256",
                        "value": {
                            "current": "1049523017540980535846815163",
                            "prev": "1049481233523796535846815163",
                            "typeTag": 1
                        }
                    },
                    {
                        "name": "_balances",
                        "type": "mapping(address => uint256)",
                        "value": {
                            "pairs": [
                                {
                                    "key": "0x3dbf08a00da87a1f23135df929edccf6379693e9",
                                    "value": {
                                        "current": "41784017184000000000000",
                                        "prev": "0",
                                        "typeTag": 1
                                    }
                                }
                            ],
                            "typeTag": 4
                        }
                    }
                ]
            },
            {
                "address": "0xd569d3cce55b71a8a3f3c418c329a66e5f714431",
                "erc": "",
                "slots": [
                    {
                        "current": "0x00000000000000000000000000000000000000000000010762422480c5b30b3c",
                        "key": "0xa15bc60c955c405d20d9149c709e2460f1c2d9a497496a7f46004d1772c3054c",
                        "prev": "0x0000000000000000000000000000000000000000000001075fc2a774ea210b3c"
                    }
                ],
                "storageVariables": [
                    {
                        "name": "balanceOf",
                        "type": "mapping(uint256 => uint256)",
                        "value": {
                            "pairs": [
                                {
                                    "key": "1",
                                    "value": {
                                        "current": "4858573953085283175228",
                                        "prev": "4858393953085283175228",
                                        "typeTag": 1
                                    }
                                }
                            ],
                            "typeTag": 4
                        }
                    }
                ]
            }
        ]
    }
}