{
    "balance_change": {
        "balanceChanges": []
    },
    "profile": {
        "basic_info": {
            "baseFee": "",
            "blockNumber": 7613406,
            "callData": "0x8bf9d97900000000000000000000000000000000000000000000000000000000000000400000000000000000000000000000000000000000000000000000000000000000000000000000000000000000000000000000000000000000000000000000004158e3c3010c5a2c55ba32f0e743c804b75ff911782cfcee6d898ec87e3a73b6067b7f9803900eb576421cc4ecbee19558be3052062ce86a1fdde77677e088190d0100000000000000000000000000000000000000000000000000000000000000",
            "debugEnable": true,
            "errorInfo": "",
            "eventCount": 1,
            "feeRecipient": "0x5a0b54d5dc17e0aadc383d2db43b0a0d3e029c4c",
            "formatValue": "0",
            "gasLimit": 100000,
            "gasPrice": "4.180000775",
            "gasUsed": 47026,
            "intTxnCount": 1,
            "internalRevert": false,
            "internalRevertMessage": "",
            "isContractCreation": false,
            "isFlashloan": false,
            "maxFee": "",
            "nonce": 168,
            "overwritedBlockNumber": -1,
            "priorityFee": "",
            "receiver": "0xfd0174784ebce943bdb8832ecdea9fea30e7c7a9",
            "revertMessage": "",
            "sender": "0x5e499e855e0f915f1147c922e7f2c658f8724f25",
            "simulationEnable": true,
            "sourceTxnHash": "0xd345652c83af3c1d0defdf3e662355627c205d438f6573aa474f3c9c3a48f682",
            "status": true,
            "timestamp": "2019-04-21T21:28:54Z",
            "transactionFee": "0.00019656871644515",
            "txnHash": "0xd345652c83af3c1d0defdf3e662355627c205d438f6573aa474f3c9c3a48f682",
            "txnIndex": 31,
            "type": 0,
            "value": "0"
        },
        "fund_flow": [],
        "token_infos": [
            {
                "address": "0xc02aaa39b223fe8d0a0e5c4f27ead9083c756cc2",
                "decimals": 18
            },
            {
                "address": "0xeeeeeeeeeeeeeeeeeeeeeeeeeeeeeeeeeeeeeeee",
                "decimals": 18
            }
        ]
    },
    "address_label": {
        "labels": [
            {
                "address": "0x0000000000000000000000000000000000000001",
                "label": "Precompiled"
            },
            {
                "address": "0x0000000000000000000000000000000000000002",
                "label": "Precompiled"
            },
            {
                "address": "0x0000000000000000000000000000000000000003",
                "label": "Precompiled"
            },
            {
                "address": "0x0000000000000000000000000000000000000004",
                "label": "Precompiled"
            },
            {
                "address": "0xeeeeeeeeeeeeeeeeeeeeeeeeeeeeeeeeeeeeeeee",
                "label": "Ether"
            },
            {
                "address": "0xfd0174784ebce943bdb8832ecdea9fea30e7c7a9",
                "label": "MCH: Daily Action 2"
            },
            {
                "address": "0x0000000000000000000000000000000000000000",
                "label": "Null Address"
            }
        ]
    },
    "trace": {
        "accountLabels": null,
        "dataMap": {
            "-1": {
                "invocation": {
                    "address": "0x5e499e855e0f915f1147c922e7f2c658f8724f25",
                    "callData": "",
                    "decodedMethod": null,
                    "errorInfo": "",
                    "fromAddress": "",
                    "gasUsed": 0,
                    "id": -1,
                    "methodDecoded": false,
                    "operation": "",
                    "output": "",
                    "revert": false,
                    "revertMessage": "",
                    "selector": "",
                    "status": false,
                    "value": ""
                },
                "nodeType": 0
            },
            "0": {
                "invocation": {
                    "address": "0xfd0174784ebce943bdb8832ecdea9fea30e7c7a9",
                    "callData": "0x00000000000000000000000000000000000000000000000000000000000000400000000000000000000000000000000000000000000000000000000000000000000000000000000000000000000000000000000000000000000000000000004158e3c3010c5a2c55ba32f0e743c804b75ff911782cfcee6d898ec87e3a73b6067b7f9803900eb576421cc4ecbee19558be3052062ce86a1fdde77677e088190d0100000000000000000000000000000000000000000000000000000000000000",
                    "decodedMethod": {
                        "callParams": [
                            {
                                "name": "_signature",
                                "type": "bytes",
                                "value": "0x58e3c3010c5a2c55ba32f0e743c804b75ff911782cfcee6d898ec87e3a73b6067b7f9803900eb576421cc4ecbee19558be3052062ce86a1fdde77677e088190d01"
                            },
                            {
                                "name": "_referrer",
                                "type": "address",
                                "value": "0x0000000000000000000000000000000000000000"
                            }
                        ],
                        "constructorArguments": "",
                        "name": "requestDailyActionReward",
                        "returnParams": [],
                        "signature": "requestDailyActionReward(bytes,address)"
                    },
                    "errorInfo": "",
                    "fromAddress": "0x5e499e855e0f915f1147c922e7f2c658f8724f25",
                    "gasUsed": 47026,
                    "id": 0,
                    "methodDecoded": true,
                    "operation": "CALL",
                    "output": "",
                    "revert": false,
                    "revertMessage": "",
                    "selector": "0x8bf9d979",
                    "status": true,
                    "value": "0"
                },
                "nodeType": 0
            },
            "1": {
                "invocation": {
                    "address": "0x0000000000000000000000000000000000000001",
                    "callData": "0xe8b2e98961c5e66acb129624f42af650ed86466da21515a3261eaeee000000000000000000000000000000000000000000000000000000000000001c58e3c3010c5a2c55ba32f0e743c804b75ff911782cfcee6d898ec87e3a73b6067b7f9803900eb576421cc4ecbee19558be3052062ce86a1fdde77677e088190d",
                    "decodedMethod": {
                        "callParams": [
                            {
                                "name": "hash",
                                "type": "bytes32",
                                "value": "0xfe0e3d61e8b2e98961c5e66acb129624f42af650ed86466da21515a3261eaeee"
                            },
                            {
                                "name": "v",
                                "type": "uint256",
                                "value": "28"
                            },
                            {
                                "name": "r",
                                "type": "bytes32",
                                "value": "0x58e3c3010c5a2c55ba32f0e743c804b75ff911782cfcee6d898ec87e3a73b606"
                            },
                            {
                                "name": "s",
                                "type": "bytes32",
                                "value": "0x7b7f9803900eb576421cc4ecbee19558be3052062ce86a1fdde77677e088190d"
                            }
                        ],
                        "constructorArguments": "",
                        "name": "ecrecover",
                        "returnParams": [
                            {
                                "name": "",
                                "type": "address",
                                "value": "0x984e7b0f2cb06b847dd465eec65a3a41c1e27c06"
                            }
                        ],
                        "signature": "ecrecover(bytes32,uint256,bytes32,bytes32)"
                    },
                    "errorInfo": "",
                    "fromAddress": "0xfd0174784ebce943bdb8832ecdea9fea30e7c7a9",
                    "gasUsed": 3000,
                    "id": 1,
                    "methodDecoded": true,
                    "operation": "STATICCALL",
                    "output": "0x000000000000000000000000984e7b0f2cb06b847dd465eec65a3a41c1e27c06",
                    "revert": false,
                    "revertMessage": "",
                    "selector": "0xfe0e3d61",
                    "status": true,
                    "value": "0"
                },
                "nodeType": 0
            },
            "2": {
                "event": {
                    "contract": "0xfd0174784ebce943bdb8832ecdea9fea30e7c7a9",
                    "decodedLog": {
                        "name": "Action",
                        "params": [
                            {
                                "name": "user",
                                "type": "address",
                                "value": "0x5e499e855e0f915f1147c922e7f2c658f8724f25"
                            },
                            {
                                "name": "referrer",
                                "type": "address",
                                "value": "0x0000000000000000000000000000000000000000"
                            },
                            {
                                "name": "at",
                                "type": "uint256",
                                "value": "1,555,882,134"
                            }
                        ],
                        "signature": "Action(address,address,uint256)"
                    },
                    "id": 2,
                    "logData": "0x000000000000000000000000000000000000000000000000000000005cbce096",
                    "logDecoded": true,
                    "operation": "EVENT",
                    "revert": false,
                    "status": true,
                    "topics": [
                        "0x03bee8945a564e58a4243604a426d1168e3654790c5ad819fd04206500e60b36",
                        "0x0000000000000000000000005e499e855e0f915f1147c922e7f2c658f8724f25",
                        "0x0000000000000000000000000000000000000000000000000000000000000000"
                    ]
                },
                "nodeType": 1
            }
        },
        "gasFlame": [
            {
                "children": [
                    {
                        "children": [
                            {
                                "children": [],
                                "depth": 0,
                                "name": "Initial Gas",
                                "value": 26328
                            },
                            {
                                "children": [
                                    {
                                        "children": [],
                                        "depth": 1,
                                        "name": "ecrecover",
                                        "value": 3000
                                    }
                                ],
                                "depth": 0,
                                "name": "Executed Gas",
                                "value": 20698
                            }
                        ],
                        "depth": -1,
                        "name": "Actual Gas Used",
                        "value": 47026
                    },
                    {
                        "children": [],
                        "depth": -1,
                        "name": "Refunded Gas",
                        "value": 0
                    }
                ],
                "depth": -2,
                "name": "Total Gas",
                "value": 47026
            }
        ],
        "isConfirmed": true,
        "mainTrace": [
            {
                "children": [
                    {
                        "children": [
                            {
                                "children": [],
                                "depth": 1,
                                "id": 1,
                                "order": 1
                            },
                            {
                                "children": [],
                                "depth": 1,
                                "id": 2,
                                "order": 2
                            }
                        ],
                        "depth": 0,
                        "id": 0,
                        "order": 0
                    }
                ],
                "depth": -1,
                "id": -1,
                "order": -1
            }
        ],
        "mainTraceNodeCount": 3,
        "parentIdMap": {
            "0": -1,
            "1": 0,
            "2": 0
        },
        "tidyTrace": [
            {
                "children": [
                    {
                        "children": [
                            {
                                "children": [],
                                "depth": 1,
                                "id": 2,
                                "order": 2
                            }
                        ],
                        "depth": 0,
                        "id": 0,
                        "order": 0
                    }
                ],
                "depth": -1,
                "id": -1,
                "order": -1
            }
        ],
        "tidyTraceNodeCount": 2
    },
    "state_change": {
        "stateChanges": [
            {
                "address": "0xfd0174784ebce943bdb8832ecdea9fea30e7c7a9",
                "erc": "",
                "slots": [
                    {
                        "current": "0x000000000000000000000000000000000000000000000000000000000000004b",
                        "key": "0x7646e65d2294f1c6f75783d351d27b984375d4b65b154c5bd569f1663daa1546",
                        "prev": "0x000000000000000000000000000000000000000000000000000000000000004a"
                    },
                    {
                        "current": "0x000000000000000000000000000000000000000000000000000000005cbce096",
                        "key": "0x91bd21ba6b60c223d1294105d0fe722eba2819c84ca429fcfd7819684cd27573",
                        "prev": "0x000000000000000000000000000000000000000000000000000000005cbb8b25"
                    }
                ],
                "storageVariables": [
                    {
                        "name": "counter",
                        "type": "mapping(address => mapping(address => uint256))",
                        "value": {
                            "pairs": [
                                {
                                    "key": "0x984e7b0f2cb06b847dd465eec65a3a41c1e27c06",
                                    "value": {
                                        "pairs": [
                                            {
                                                "key": "0x5e499e855e0f915f1147c922e7f2c658f8724f25",
                                                "value": {
                                                    "current": "75",
                                                    "prev": "74",
                                                    "typeTag": 1
                                                }
                                            }
                                        ],
                                        "typeTag": 4
                                    }
                                }
                            ],
                            "typeTag": 4
                        }
                    },
                    {
                        "name": "latestActionTime",
                        "type": "mapping(address => uint256)",
                        "value": {
                            "pairs": [
                                {
                                    "key": "0x5e499e855e0f915f1147c922e7f2c658f8724f25",
                                    "value": {
                                        "current": "1555882134",
                                        "prev": "1555794725",
                                        "typeTag": 1
                                    }
                                }
                            ],
                            "typeTag": 4
                        }
                    }
                ]
            }
        ]
    }
}