{
    "balance_change": {
        "balanceChanges": [
            {
                "account": "0x0000000000000000000000000000000000000000",
                "assets": [
                    {
                        "address": "0x5aed93f1033c2bb1c662550ab7901cb9beedd850",
                        "amount": "1",
                        "iconUrl": "",
                        "isERC1155": false,
                        "isERC721": true,
                        "sign": false,
                        "tokenID": "1108",
                        "value": ""
                    },
                    {
                        "address": "0x5aed93f1033c2bb1c662550ab7901cb9beedd850",
                        "amount": "1",
                        "iconUrl": "",
                        "isERC1155": false,
                        "isERC721": true,
                        "sign": false,
                        "tokenID": "1109",
                        "value": ""
                    }
                ]
            },
            {
                "account": "0x2bc712c18bb72bd5ed6407c44e11f350fbc2754f",
                "assets": [
                    {
                        "address": "0x5aed93f1033c2bb1c662550ab7901cb9beedd850",
                        "amount": "1",
                        "iconUrl": "",
                        "isERC1155": false,
                        "isERC721": true,
                        "sign": true,
                        "tokenID": "1108",
                        "value": ""
                    },
                    {
                        "address": "0x5aed93f1033c2bb1c662550ab7901cb9beedd850",
                        "amount": "1",
                        "iconUrl": "",
                        "isERC1155": false,
                        "isERC721": true,
                        "sign": true,
                        "tokenID": "1109",
                        "value": ""
                    }
                ]
            }
        ]
    },
    "profile": {
        "basic_info": {
            "baseFee": "60.521225784",
            "blockNumber": 16650082,
            "callData": "0x97474f13000000000000000000000000000000000000000000000000000000000000000000000000000000000000000000000000000000000000000000000000000000020000000000000000000000000000000000000000000000000000000000000060000000000000000000000000000000000000000000000000000000000000000c751cae3e4714fa46598522f7eaf7cfd824422c6481664683aa25c53b4fb740b957f2b507707aa3e6544d39e2cfaa8932f5b47f0c3e3215c29ae04dc39406ad81add98cb39a7590ea6351c2a0f57a33a4fae150fbb7eca6f364663126d5417d7660a620937fb110a7a553b1702376add05db594d790c8980a8462c70ee8c1cae4ed7ffa8e60d088b6032cf0eb57482a215f9d1236a731a6c4ac47314011336f2f47b4b3d274d2a95bc2ce8eb03dfae2ef10964657a90bf7d7e50a467cd9e1228b078604f2d67e0dd4dc27a99937d9a999f8cd47b9851ca68248e5e611e10663d22b9a53351b5e2a31d00fbd6b255992d1c9d200ccd649409c74cb8d25c21570b786c48876b06209d034b7df23c7ce1e75f2416f6e648b3c99fa97e0b9dcde01a86f2342095007dad6e7d08e566921cb91653fb24e216e99aa5a03852780ef0e20507166044176ae890462ffc4a3a28fa1bd4905ed06035e295168796e14af99c004b0754320aad3d53fcc7b98c5ac4b45dbfe231dd99926a63c12b17628ce0b9c",
            "debugEnable": true,
            "errorInfo": "",
            "eventCount": 3,
            "feeRecipient": "0x5f927395213ee6b95de97bddcb1b2b1c0f16844f",
            "formatValue": "0",
            "gasLimit": 130827,
            "gasPrice": "61.521225784",
            "gasUsed": 129292,
            "intTxnCount": 1,
            "internalRevert": false,
            "internalRevertMessage": "",
            "isContractCreation": false,
            "isFlashloan": false,
            "maxFee": "85.753354492",
            "nonce": 0,
            "overwritedBlockNumber": -1,
            "priorityFee": "1",
            "receiver": "0x5aed93f1033c2bb1c662550ab7901cb9beedd850",
            "revertMessage": "",
            "sender": "0x2bc712c18bb72bd5ed6407c44e11f350fbc2754f",
            "simulationEnable": true,
            "sourceTxnHash": "0xd32936d21859f622d3ea3b0e50fdf11c938b526ac77cb8304146b511e891d68f",
            "status": true,
            "timestamp": "2023-02-17T18:03:47Z",
            "transactionFee": "0.007954202324064928",
            "txnHash": "0xd32936d21859f622d3ea3b0e50fdf11c938b526ac77cb8304146b511e891d68f",
            "txnIndex": 57,
            "type": 2,
            "value": "0"
        },
        "fund_flow": [
            {
                "amount": "1",
                "from": "0x0000000000000000000000000000000000000000",
                "id": 1,
                "isERC1155": false,
                "isERC721": true,
                "isReverted": false,
                "order": 1,
                "to": "0x2bc712c18bb72bd5ed6407c44e11f350fbc2754f",
                "token": "0x5aed93f1033c2bb1c662550ab7901cb9beedd850",
                "tokenID": "1108"
            },
            {
                "amount": "1",
                "from": "0x0000000000000000000000000000000000000000",
                "id": 2,
                "isERC1155": false,
                "isERC721": true,
                "isReverted": false,
                "order": 2,
                "to": "0x2bc712c18bb72bd5ed6407c44e11f350fbc2754f",
                "token": "0x5aed93f1033c2bb1c662550ab7901cb9beedd850",
                "tokenID": "1109"
            }
        ],
        "token_infos": [
            {
                "address": "0xc02aaa39b223fe8d0a0e5c4f27ead9083c756cc2",
                "decimals": 18
            },
            {
                "address": "0xeeeeeeeeeeeeeeeeeeeeeeeeeeeeeeeeeeeeeeee",
                "decimals": 18
            }
        ]
    },
    "address_label": {
        "labels": [
            {
                "address": "0xeeeeeeeeeeeeeeeeeeeeeeeeeeeeeeeeeeeeeeee",
                "label": "Ether"
            },
            {
                "address": "0x516677d72c721f992e99033896b237b6123c16ca",
                "label": "Bueno721Drop"
            },
            {
                "address": "0x5aed93f1033c2bb1c662550ab7901cb9beedd850",
                "label": "Shroomio (SHROOMIO)"
            },
            {
                "address": "0x0000000000000000000000000000000000000001",
                "label": "Precompiled"
            },
            {
                "address": "0x0000000000000000000000000000000000000002",
                "label": "Precompiled"
            },
            {
                "address": "0x0000000000000000000000000000000000000003",
                "label": "Precompiled"
            },
            {
                "address": "0x0000000000000000000000000000000000000004",
                "label": "Precompiled"
            }
        ]
    },
    "trace": {
        "accountLabels": null,
        "dataMap": {
            "-1": {
                "invocation": {
                    "address": "0x2bc712c18bb72bd5ed6407c44e11f350fbc2754f",
                    "callData": "",
                    "decodedMethod": null,
                    "errorInfo": "",
                    "fromAddress": "",
                    "gasUsed": 0,
                    "id": -1,
                    "methodDecoded": false,
                    "operation": "",
                    "output": "",
                    "revert": false,
                    "revertMessage": "",
                    "selector": "",
                    "status": false,
                    "value": ""
                },
                "nodeType": 0
            },
            "0": {
                "invocation": {
                    "address": "0x5aed93f1033c2bb1c662550ab7901cb9beedd850",
                    "callData": "0x000000000000000000000000000000000000000000000000000000000000000000000000000000000000000000000000000000000000000000000000000000020000000000000000000000000000000000000000000000000000000000000060000000000000000000000000000000000000000000000000000000000000000c751cae3e4714fa46598522f7eaf7cfd824422c6481664683aa25c53b4fb740b957f2b507707aa3e6544d39e2cfaa8932f5b47f0c3e3215c29ae04dc39406ad81add98cb39a7590ea6351c2a0f57a33a4fae150fbb7eca6f364663126d5417d7660a620937fb110a7a553b1702376add05db594d790c8980a8462c70ee8c1cae4ed7ffa8e60d088b6032cf0eb57482a215f9d1236a731a6c4ac47314011336f2f47b4b3d274d2a95bc2ce8eb03dfae2ef10964657a90bf7d7e50a467cd9e1228b078604f2d67e0dd4dc27a99937d9a999f8cd47b9851ca68248e5e611e10663d22b9a53351b5e2a31d00fbd6b255992d1c9d200ccd649409c74cb8d25c21570b786c48876b06209d034b7df23c7ce1e75f2416f6e648b3c99fa97e0b9dcde01a86f2342095007dad6e7d08e566921cb91653fb24e216e99aa5a03852780ef0e20507166044176ae890462ffc4a3a28fa1bd4905ed06035e295168796e14af99c004b0754320aad3d53fcc7b98c5ac4b45dbfe231dd99926a63c12b17628ce0b9c",
                    "decodedMethod": {
                        "callParams": [
                            {
                                "name": "phaseIndex",
                                "type": "uint256",
                                "value": "0"
                            },
                            {
                                "name": "quantity",
                                "type": "uint64",
                                "value": "2"
                            },
                            {
                                "name": "proof",
                                "type": "bytes32[]",
                                "value": [
                                    "0x751cae3e4714fa46598522f7eaf7cfd824422c6481664683aa25c53b4fb740b9",
                                    "0x57f2b507707aa3e6544d39e2cfaa8932f5b47f0c3e3215c29ae04dc39406ad81",
                                    "0xadd98cb39a7590ea6351c2a0f57a33a4fae150fbb7eca6f364663126d5417d76",
                                    "0x60a620937fb110a7a553b1702376add05db594d790c8980a8462c70ee8c1cae4",
                                    "0xed7ffa8e60d088b6032cf0eb57482a215f9d1236a731a6c4ac47314011336f2f",
                                    "0x47b4b3d274d2a95bc2ce8eb03dfae2ef10964657a90bf7d7e50a467cd9e1228b",
                                    "0x078604f2d67e0dd4dc27a99937d9a999f8cd47b9851ca68248e5e611e10663d2",
                                    "0x2b9a53351b5e2a31d00fbd6b255992d1c9d200ccd649409c74cb8d25c21570b7",
                                    "0x86c48876b06209d034b7df23c7ce1e75f2416f6e648b3c99fa97e0b9dcde01a8",
                                    "0x6f2342095007dad6e7d08e566921cb91653fb24e216e99aa5a03852780ef0e20",
                                    "0x507166044176ae890462ffc4a3a28fa1bd4905ed06035e295168796e14af99c0",
                                    "0x04b0754320aad3d53fcc7b98c5ac4b45dbfe231dd99926a63c12b17628ce0b9c"
                                ]
                            }
                        ],
                        "constructorArguments": "",
                        "name": "mintPhaseAllowlist",
                        "returnParams": [],
                        "signature": "mintPhaseAllowlist(uint256,uint64,bytes32[])"
                    },
                    "errorInfo": "",
                    "fromAddress": "0x2bc712c18bb72bd5ed6407c44e11f350fbc2754f",
                    "gasUsed": 129292,
                    "id": 0,
                    "methodDecoded": true,
                    "operation": "CALL",
                    "output": "",
                    "revert": false,
                    "revertMessage": "",
                    "selector": "0x97474f13",
                    "status": true,
                    "value": "0"
                },
                "nodeType": 0
            },
            "1": {
                "invocation": {
                    "address": "0x516677d72c721f992e99033896b237b6123c16ca",
                    "callData": "0x000000000000000000000000000000000000000000000000000000000000000000000000000000000000000000000000000000000000000000000000000000020000000000000000000000000000000000000000000000000000000000000060000000000000000000000000000000000000000000000000000000000000000c751cae3e4714fa46598522f7eaf7cfd824422c6481664683aa25c53b4fb740b957f2b507707aa3e6544d39e2cfaa8932f5b47f0c3e3215c29ae04dc39406ad81add98cb39a7590ea6351c2a0f57a33a4fae150fbb7eca6f364663126d5417d7660a620937fb110a7a553b1702376add05db594d790c8980a8462c70ee8c1cae4ed7ffa8e60d088b6032cf0eb57482a215f9d1236a731a6c4ac47314011336f2f47b4b3d274d2a95bc2ce8eb03dfae2ef10964657a90bf7d7e50a467cd9e1228b078604f2d67e0dd4dc27a99937d9a999f8cd47b9851ca68248e5e611e10663d22b9a53351b5e2a31d00fbd6b255992d1c9d200ccd649409c74cb8d25c21570b786c48876b06209d034b7df23c7ce1e75f2416f6e648b3c99fa97e0b9dcde01a86f2342095007dad6e7d08e566921cb91653fb24e216e99aa5a03852780ef0e20507166044176ae890462ffc4a3a28fa1bd4905ed06035e295168796e14af99c004b0754320aad3d53fcc7b98c5ac4b45dbfe231dd99926a63c12b17628ce0b9c",
                    "decodedMethod": {
                        "callParams": [
                            {
                                "name": "phaseIndex",
                                "type": "uint256",
                                "value": "0"
                            },
                            {
                                "name": "quantity",
                                "type": "uint64",
                                "value": "2"
                            },
                            {
                                "name": "proof",
                                "type": "bytes32[]",
                                "value": [
                                    "0x751cae3e4714fa46598522f7eaf7cfd824422c6481664683aa25c53b4fb740b9",
                                    "0x57f2b507707aa3e6544d39e2cfaa8932f5b47f0c3e3215c29ae04dc39406ad81",
                                    "0xadd98cb39a7590ea6351c2a0f57a33a4fae150fbb7eca6f364663126d5417d76",
                                    "0x60a620937fb110a7a553b1702376add05db594d790c8980a8462c70ee8c1cae4",
                                    "0xed7ffa8e60d088b6032cf0eb57482a215f9d1236a731a6c4ac47314011336f2f",
                                    "0x47b4b3d274d2a95bc2ce8eb03dfae2ef10964657a90bf7d7e50a467cd9e1228b",
                                    "0x078604f2d67e0dd4dc27a99937d9a999f8cd47b9851ca68248e5e611e10663d2",
                                    "0x2b9a53351b5e2a31d00fbd6b255992d1c9d200ccd649409c74cb8d25c21570b7",
                                    "0x86c48876b06209d034b7df23c7ce1e75f2416f6e648b3c99fa97e0b9dcde01a8",
                                    "0x6f2342095007dad6e7d08e566921cb91653fb24e216e99aa5a03852780ef0e20",
                                    "0x507166044176ae890462ffc4a3a28fa1bd4905ed06035e295168796e14af99c0",
                                    "0x04b0754320aad3d53fcc7b98c5ac4b45dbfe231dd99926a63c12b17628ce0b9c"
                                ]
                            }
                        ],
                        "constructorArguments": "",
                        "name": "mintPhaseAllowlist",
                        "returnParams": [],
                        "signature": "mintPhaseAllowlist(uint256,uint64,bytes32[])"
                    },
                    "errorInfo": "",
                    "fromAddress": "0x5aed93f1033c2bb1c662550ab7901cb9beedd850",
                    "gasUsed": 98789,
                    "id": 1,
                    "methodDecoded": true,
                    "operation": "DELEGATECALL",
                    "output": "",
                    "revert": false,
                    "revertMessage": "",
                    "selector": "0x97474f13",
                    "status": true,
                    "value": "0"
                },
                "nodeType": 0
            },
            "2": {
                "event": {
                    "contract": "0x5aed93f1033c2bb1c662550ab7901cb9beedd850",
                    "decodedLog": {
                        "name": "Transfer",
                        "params": [
                            {
                                "name": "from",
                                "type": "address",
                                "value": "0x0000000000000000000000000000000000000000"
                            },
                            {
                                "name": "to",
                                "type": "address",
                                "value": "0x2bc712c18bb72bd5ed6407c44e11f350fbc2754f"
                            },
                            {
                                "decimalAvailable": true,
                                "name": "tokenId",
                                "type": "uint256",
                                "value": "1,108"
                            }
                        ],
                        "signature": "Transfer(address,address,uint256)"
                    },
                    "id": 2,
                    "logData": "0x",
                    "logDecoded": true,
                    "operation": "EVENT",
                    "revert": false,
                    "status": true,
                    "topics": [
                        "0xddf252ad1be2c89b69c2b068fc378daa952ba7f163c4a11628f55a4df523b3ef",
                        "0x0000000000000000000000000000000000000000000000000000000000000000",
                        "0x0000000000000000000000002bc712c18bb72bd5ed6407c44e11f350fbc2754f",
                        "0x0000000000000000000000000000000000000000000000000000000000000454"
                    ]
                },
                "nodeType": 1
            },
            "3": {
                "event": {
                    "contract": "0x5aed93f1033c2bb1c662550ab7901cb9beedd850",
                    "decodedLog": {
                        "name": "Transfer",
                        "params": [
                            {
                                "name": "from",
                                "type": "address",
                                "value": "0x0000000000000000000000000000000000000000"
                            },
                            {
                                "name": "to",
                                "type": "address",
                                "value": "0x2bc712c18bb72bd5ed6407c44e11f350fbc2754f"
                            },
                            {
                                "decimalAvailable": true,
                                "name": "tokenId",
                                "type": "uint256",
                                "value": "1,109"
                            }
                        ],
                        "signature": "Transfer(address,address,uint256)"
                    },
                    "id": 3,
                    "logData": "0x",
                    "logDecoded": true,
                    "operation": "EVENT",
                    "revert": false,
                    "status": true,
                    "topics": [
                        "0xddf252ad1be2c89b69c2b068fc378daa952ba7f163c4a11628f55a4df523b3ef",
                        "0x0000000000000000000000000000000000000000000000000000000000000000",
                        "0x0000000000000000000000002bc712c18bb72bd5ed6407c44e11f350fbc2754f",
                        "0x0000000000000000000000000000000000000000000000000000000000000455"
                    ]
                },
                "nodeType": 1
            },
            "4": {
                "event": {
                    "contract": "0x5aed93f1033c2bb1c662550ab7901cb9beedd850",
                    "decodedLog": {
                        "name": "TokensMinted",
                        "params": [
                            {
                                "name": "to",
                                "type": "address",
                                "value": "0x2bc712c18bb72bd5ed6407c44e11f350fbc2754f"
                            },
                            {
                                "name": "quantity",
                                "type": "uint256",
                                "value": "2"
                            }
                        ],
                        "signature": "TokensMinted(address,uint256)"
                    },
                    "id": 4,
                    "logData": "0x0000000000000000000000000000000000000000000000000000000000000002",
                    "logDecoded": true,
                    "operation": "EVENT",
                    "revert": false,
                    "status": true,
                    "topics": [
                        "0x3f2c9d57c068687834f0de942a9babb9e5acab57d516d3480a3c16ee165a4273",
                        "0x0000000000000000000000002bc712c18bb72bd5ed6407c44e11f350fbc2754f"
                    ]
                },
                "nodeType": 1
            }
        },
        "gasFlame": [
            {
                "children": [
                    {
                        "children": [
                            {
                                "children": [],
                                "depth": 0,
                                "name": "Initial Gas",
                                "value": 27744
                            },
                            {
                                "children": [
                                    {
                                        "children": [],
                                        "depth": 1,
                                        "name": "mintPhaseAllowlist",
                                        "value": 98789
                                    }
                                ],
                                "depth": 0,
                                "name": "Executed Gas",
                                "value": 101548
                            }
                        ],
                        "depth": -1,
                        "name": "Actual Gas Used",
                        "value": 129292
                    },
                    {
                        "children": [],
                        "depth": -1,
                        "name": "Refunded Gas",
                        "value": 0
                    }
                ],
                "depth": -2,
                "name": "Total Gas",
                "value": 129292
            }
        ],
        "isConfirmed": true,
        "mainTrace": [
            {
                "children": [
                    {
                        "children": [
                            {
                                "children": [
                                    {
                                        "children": [],
                                        "depth": 2,
                                        "id": 2,
                                        "order": 2
                                    },
                                    {
                                        "children": [],
                                        "depth": 2,
                                        "id": 3,
                                        "order": 3
                                    },
                                    {
                                        "children": [],
                                        "depth": 2,
                                        "id": 4,
                                        "order": 4
                                    }
                                ],
                                "depth": 1,
                                "id": 1,
                                "order": 1
                            }
                        ],
                        "depth": 0,
                        "id": 0,
                        "order": 0
                    }
                ],
                "depth": -1,
                "id": -1,
                "order": -1
            }
        ],
        "mainTraceNodeCount": 5,
        "parentIdMap": {
            "0": -1,
            "1": 0,
            "2": 1,
            "3": 1,
            "4": 1
        },
        "tidyTrace": [
            {
                "children": [
                    {
                        "children": [
                            {
                                "children": [
                                    {
                                        "children": [],
                                        "depth": 2,
                                        "id": 2,
                                        "order": 2
                                    },
                                    {
                                        "children": [],
                                        "depth": 2,
                                        "id": 3,
                                        "order": 3
                                    },
                                    {
                                        "children": [],
                                        "depth": 2,
                                        "id": 4,
                                        "order": 4
                                    }
                                ],
                                "depth": 1,
                                "id": 1,
                                "order": 1
                            }
                        ],
                        "depth": 0,
                        "id": 0,
                        "order": 0
                    }
                ],
                "depth": -1,
                "id": -1,
                "order": -1
            }
        ],
        "tidyTraceNodeCount": 5
    },
    "state_change": {
        "stateChanges": [
            {
                "address": "0x5aed93f1033c2bb1c662550ab7901cb9beedd850",
                "erc": "ERC-721",
                "slots": [
                    {
                        "current": "0x0000000000000000000000000000000200000000000004550000000000000974",
                        "key": "0xc34a738ec333e394a3927794cadc6dd0eb7d9eed0999d1e55021ea223ac362cc",
                        "prev": "0x0000000000000000000000000000000200000000000004530000000000000974"
                    },
                    {
                        "current": "0x0000000000000000000000000000000000000000000000000000000000000002",
                        "key": "0xa76987d795de324afd5934497e9ef6ffca0dfa221cfe76260725ce67f77d6ec4",
                        "prev": "0x0000000000000000000000000000000000000000000000000000000000000000"
                    },
                    {
                        "current": "0x0000000000000000000000000000000000000000000000020000000000000002",
                        "key": "0xaec372e3f3ae9fd33b12f1ef9d0162700daca491e4742a689bd4612f7dffa7e2",
                        "prev": "0x0000000000000000000000000000000000000000000000000000000000000000"
                    },
                    {
                        "current": "0x000000000000000063efc1832bc712c18bb72bd5ed6407c44e11f350fbc2754f",
                        "key": "0x31b8c3d5cc2492595ae89a6086632ef8b56f1e504234a590e368aff9ecedbc45",
                        "prev": "0x0000000000000000000000000000000000000000000000000000000000000000"
                    },
                    {
                        "current": "0x0000000000000000000000000000000000000000000000000000000000000456",
                        "key": "0x2569078dfb4b0305704d3008e7403993ae9601b85f7ae5e742de3de8f8011c40",
                        "prev": "0x0000000000000000000000000000000000000000000000000000000000000454"
                    }
                ],
                "storageVariables": [
                    {
                        "name": "amountMintedForPhase",
                        "type": "mapping(address => mapping(uint256 => uint64))",
                        "value": {
                            "pairs": [
                                {
                                    "key": "0x2bc712c18bb72bd5ed6407c44e11f350fbc2754f",
                                    "value": {
                                        "pairs": [
                                            {
                                                "key": "0",
                                                "value": {
                                                    "current": "2",
                                                    "prev": "0",
                                                    "typeTag": 1
                                                }
                                            }
                                        ],
                                        "typeTag": 4
                                    }
                                }
                            ],
                            "typeTag": 4
                        }
                    }
                ]
            }
        ]
    }
}