{
    "balance_change": {
        "balanceChanges": [
            {
                "account": "0x77424437e320fc70ab04d983e259ca6e6e205c86",
                "assets": [
                    {
                        "address": "0x0bb3e1c80c0ffde985fb0ec6392aa18a1d2de40e",
                        "amount": "1",
                        "iconUrl": "",
                        "isERC1155": false,
                        "isERC721": true,
                        "sign": true,
                        "tokenID": "7553",
                        "value": ""
                    },
                    {
                        "address": "0x0bb3e1c80c0ffde985fb0ec6392aa18a1d2de40e",
                        "amount": "1",
                        "iconUrl": "",
                        "isERC1155": false,
                        "isERC721": true,
                        "sign": true,
                        "tokenID": "7559",
                        "value": ""
                    },
                    {
                        "address": "0x0bb3e1c80c0ffde985fb0ec6392aa18a1d2de40e",
                        "amount": "1",
                        "iconUrl": "",
                        "isERC1155": false,
                        "isERC721": true,
                        "sign": true,
                        "tokenID": "7560",
                        "value": ""
                    },
                    {
                        "address": "0x0bb3e1c80c0ffde985fb0ec6392aa18a1d2de40e",
                        "amount": "1",
                        "iconUrl": "",
                        "isERC1155": false,
                        "isERC721": true,
                        "sign": true,
                        "tokenID": "7564",
                        "value": ""
                    },
                    {
                        "address": "0x0bb3e1c80c0ffde985fb0ec6392aa18a1d2de40e",
                        "amount": "1",
                        "iconUrl": "",
                        "isERC1155": false,
                        "isERC721": true,
                        "sign": true,
                        "tokenID": "7570",
                        "value": ""
                    },
                    {
                        "address": "0x0bb3e1c80c0ffde985fb0ec6392aa18a1d2de40e",
                        "amount": "1",
                        "iconUrl": "",
                        "isERC1155": false,
                        "isERC721": true,
                        "sign": true,
                        "tokenID": "7555",
                        "value": ""
                    },
                    {
                        "address": "0x0bb3e1c80c0ffde985fb0ec6392aa18a1d2de40e",
                        "amount": "1",
                        "iconUrl": "",
                        "isERC1155": false,
                        "isERC721": true,
                        "sign": true,
                        "tokenID": "7565",
                        "value": ""
                    },
                    {
                        "address": "0x0bb3e1c80c0ffde985fb0ec6392aa18a1d2de40e",
                        "amount": "1",
                        "iconUrl": "",
                        "isERC1155": false,
                        "isERC721": true,
                        "sign": true,
                        "tokenID": "7568",
                        "value": ""
                    },
                    {
                        "address": "0x0bb3e1c80c0ffde985fb0ec6392aa18a1d2de40e",
                        "amount": "1",
                        "iconUrl": "",
                        "isERC1155": false,
                        "isERC721": true,
                        "sign": true,
                        "tokenID": "7569",
                        "value": ""
                    },
                    {
                        "address": "0xeeeeeeeeeeeeeeeeeeeeeeeeeeeeeeeeeeeeeeee",
                        "amount": "0.6",
                        "iconUrl": "https://assets.blocksec.com/image/1663669189317-3.png",
                        "isERC1155": false,
                        "isERC721": false,
                        "sign": false,
                        "value": "1887.5607419999999366"
                    },
                    {
                        "address": "0x0bb3e1c80c0ffde985fb0ec6392aa18a1d2de40e",
                        "amount": "1",
                        "iconUrl": "",
                        "isERC1155": false,
                        "isERC721": true,
                        "sign": true,
                        "tokenID": "7554",
                        "value": ""
                    },
                    {
                        "address": "0x0bb3e1c80c0ffde985fb0ec6392aa18a1d2de40e",
                        "amount": "1",
                        "iconUrl": "",
                        "isERC1155": false,
                        "isERC721": true,
                        "sign": true,
                        "tokenID": "7561",
                        "value": ""
                    },
                    {
                        "address": "0x0bb3e1c80c0ffde985fb0ec6392aa18a1d2de40e",
                        "amount": "1",
                        "iconUrl": "",
                        "isERC1155": false,
                        "isERC721": true,
                        "sign": true,
                        "tokenID": "7562",
                        "value": ""
                    },
                    {
                        "address": "0x0bb3e1c80c0ffde985fb0ec6392aa18a1d2de40e",
                        "amount": "1",
                        "iconUrl": "",
                        "isERC1155": false,
                        "isERC721": true,
                        "sign": true,
                        "tokenID": "7566",
                        "value": ""
                    },
                    {
                        "address": "0x0bb3e1c80c0ffde985fb0ec6392aa18a1d2de40e",
                        "amount": "1",
                        "iconUrl": "",
                        "isERC1155": false,
                        "isERC721": true,
                        "sign": true,
                        "tokenID": "7567",
                        "value": ""
                    },
                    {
                        "address": "0x0bb3e1c80c0ffde985fb0ec6392aa18a1d2de40e",
                        "amount": "1",
                        "iconUrl": "",
                        "isERC1155": false,
                        "isERC721": true,
                        "sign": true,
                        "tokenID": "7556",
                        "value": ""
                    },
                    {
                        "address": "0x0bb3e1c80c0ffde985fb0ec6392aa18a1d2de40e",
                        "amount": "1",
                        "iconUrl": "",
                        "isERC1155": false,
                        "isERC721": true,
                        "sign": true,
                        "tokenID": "7557",
                        "value": ""
                    },
                    {
                        "address": "0x0bb3e1c80c0ffde985fb0ec6392aa18a1d2de40e",
                        "amount": "1",
                        "iconUrl": "",
                        "isERC1155": false,
                        "isERC721": true,
                        "sign": true,
                        "tokenID": "7558",
                        "value": ""
                    },
                    {
                        "address": "0x0bb3e1c80c0ffde985fb0ec6392aa18a1d2de40e",
                        "amount": "1",
                        "iconUrl": "",
                        "isERC1155": false,
                        "isERC721": true,
                        "sign": true,
                        "tokenID": "7563",
                        "value": ""
                    },
                    {
                        "address": "0x0bb3e1c80c0ffde985fb0ec6392aa18a1d2de40e",
                        "amount": "1",
                        "iconUrl": "",
                        "isERC1155": false,
                        "isERC721": true,
                        "sign": true,
                        "tokenID": "7571",
                        "value": ""
                    },
                    {
                        "address": "0x0bb3e1c80c0ffde985fb0ec6392aa18a1d2de40e",
                        "amount": "1",
                        "iconUrl": "",
                        "isERC1155": false,
                        "isERC721": true,
                        "sign": true,
                        "tokenID": "7572",
                        "value": ""
                    }
                ]
            },
            {
                "account": "0x0bb3e1c80c0ffde985fb0ec6392aa18a1d2de40e",
                "assets": [
                    {
                        "address": "0xeeeeeeeeeeeeeeeeeeeeeeeeeeeeeeeeeeeeeeee",
                        "amount": "0.6",
                        "iconUrl": "https://assets.blocksec.com/image/1663669189317-3.png",
                        "isERC1155": false,
                        "isERC721": false,
                        "sign": true,
                        "value": "1887.5607419999999366"
                    }
                ]
            },
            {
                "account": "0x0000000000000000000000000000000000000000",
                "assets": [
                    {
                        "address": "0x0bb3e1c80c0ffde985fb0ec6392aa18a1d2de40e",
                        "amount": "1",
                        "iconUrl": "",
                        "isERC1155": false,
                        "isERC721": true,
                        "sign": false,
                        "tokenID": "7555",
                        "value": ""
                    },
                    {
                        "address": "0x0bb3e1c80c0ffde985fb0ec6392aa18a1d2de40e",
                        "amount": "1",
                        "iconUrl": "",
                        "isERC1155": false,
                        "isERC721": true,
                        "sign": false,
                        "tokenID": "7556",
                        "value": ""
                    },
                    {
                        "address": "0x0bb3e1c80c0ffde985fb0ec6392aa18a1d2de40e",
                        "amount": "1",
                        "iconUrl": "",
                        "isERC1155": false,
                        "isERC721": true,
                        "sign": false,
                        "tokenID": "7557",
                        "value": ""
                    },
                    {
                        "address": "0x0bb3e1c80c0ffde985fb0ec6392aa18a1d2de40e",
                        "amount": "1",
                        "iconUrl": "",
                        "isERC1155": false,
                        "isERC721": true,
                        "sign": false,
                        "tokenID": "7562",
                        "value": ""
                    },
                    {
                        "address": "0x0bb3e1c80c0ffde985fb0ec6392aa18a1d2de40e",
                        "amount": "1",
                        "iconUrl": "",
                        "isERC1155": false,
                        "isERC721": true,
                        "sign": false,
                        "tokenID": "7563",
                        "value": ""
                    },
                    {
                        "address": "0x0bb3e1c80c0ffde985fb0ec6392aa18a1d2de40e",
                        "amount": "1",
                        "iconUrl": "",
                        "isERC1155": false,
                        "isERC721": true,
                        "sign": false,
                        "tokenID": "7568",
                        "value": ""
                    },
                    {
                        "address": "0x0bb3e1c80c0ffde985fb0ec6392aa18a1d2de40e",
                        "amount": "1",
                        "iconUrl": "",
                        "isERC1155": false,
                        "isERC721": true,
                        "sign": false,
                        "tokenID": "7553",
                        "value": ""
                    },
                    {
                        "address": "0x0bb3e1c80c0ffde985fb0ec6392aa18a1d2de40e",
                        "amount": "1",
                        "iconUrl": "",
                        "isERC1155": false,
                        "isERC721": true,
                        "sign": false,
                        "tokenID": "7564",
                        "value": ""
                    },
                    {
                        "address": "0x0bb3e1c80c0ffde985fb0ec6392aa18a1d2de40e",
                        "amount": "1",
                        "iconUrl": "",
                        "isERC1155": false,
                        "isERC721": true,
                        "sign": false,
                        "tokenID": "7565",
                        "value": ""
                    },
                    {
                        "address": "0x0bb3e1c80c0ffde985fb0ec6392aa18a1d2de40e",
                        "amount": "1",
                        "iconUrl": "",
                        "isERC1155": false,
                        "isERC721": true,
                        "sign": false,
                        "tokenID": "7569",
                        "value": ""
                    },
                    {
                        "address": "0x0bb3e1c80c0ffde985fb0ec6392aa18a1d2de40e",
                        "amount": "1",
                        "iconUrl": "",
                        "isERC1155": false,
                        "isERC721": true,
                        "sign": false,
                        "tokenID": "7571",
                        "value": ""
                    },
                    {
                        "address": "0x0bb3e1c80c0ffde985fb0ec6392aa18a1d2de40e",
                        "amount": "1",
                        "iconUrl": "",
                        "isERC1155": false,
                        "isERC721": true,
                        "sign": false,
                        "tokenID": "7572",
                        "value": ""
                    },
                    {
                        "address": "0x0bb3e1c80c0ffde985fb0ec6392aa18a1d2de40e",
                        "amount": "1",
                        "iconUrl": "",
                        "isERC1155": false,
                        "isERC721": true,
                        "sign": false,
                        "tokenID": "7559",
                        "value": ""
                    },
                    {
                        "address": "0x0bb3e1c80c0ffde985fb0ec6392aa18a1d2de40e",
                        "amount": "1",
                        "iconUrl": "",
                        "isERC1155": false,
                        "isERC721": true,
                        "sign": false,
                        "tokenID": "7561",
                        "value": ""
                    },
                    {
                        "address": "0x0bb3e1c80c0ffde985fb0ec6392aa18a1d2de40e",
                        "amount": "1",
                        "iconUrl": "",
                        "isERC1155": false,
                        "isERC721": true,
                        "sign": false,
                        "tokenID": "7566",
                        "value": ""
                    },
                    {
                        "address": "0x0bb3e1c80c0ffde985fb0ec6392aa18a1d2de40e",
                        "amount": "1",
                        "iconUrl": "",
                        "isERC1155": false,
                        "isERC721": true,
                        "sign": false,
                        "tokenID": "7570",
                        "value": ""
                    },
                    {
                        "address": "0x0bb3e1c80c0ffde985fb0ec6392aa18a1d2de40e",
                        "amount": "1",
                        "iconUrl": "",
                        "isERC1155": false,
                        "isERC721": true,
                        "sign": false,
                        "tokenID": "7560",
                        "value": ""
                    },
                    {
                        "address": "0x0bb3e1c80c0ffde985fb0ec6392aa18a1d2de40e",
                        "amount": "1",
                        "iconUrl": "",
                        "isERC1155": false,
                        "isERC721": true,
                        "sign": false,
                        "tokenID": "7558",
                        "value": ""
                    },
                    {
                        "address": "0x0bb3e1c80c0ffde985fb0ec6392aa18a1d2de40e",
                        "amount": "1",
                        "iconUrl": "",
                        "isERC1155": false,
                        "isERC721": true,
                        "sign": false,
                        "tokenID": "7567",
                        "value": ""
                    },
                    {
                        "address": "0x0bb3e1c80c0ffde985fb0ec6392aa18a1d2de40e",
                        "amount": "1",
                        "iconUrl": "",
                        "isERC1155": false,
                        "isERC721": true,
                        "sign": false,
                        "tokenID": "7554",
                        "value": ""
                    }
                ]
            }
        ]
    },
    "profile": {
        "basic_info": {
            "baseFee": "1856.235678911",
            "blockNumber": 13131028,
            "callData": "0x97304ced0000000000000000000000000000000000000000000000000000000000000014",
            "debugEnable": true,
            "errorInfo": "",
            "eventCount": 20,
            "feeRecipient": "0x0708f87a089a91c65d48721aa941084648562287",
            "formatValue": "0.6",
            "gasLimit": 3041670,
            "gasPrice": "2000",
            "gasUsed": 2339746,
            "intTxnCount": 0,
            "internalRevert": false,
            "internalRevertMessage": "",
            "isContractCreation": false,
            "isFlashloan": false,
            "maxFee": "",
            "nonce": 108,
            "overwritedBlockNumber": -1,
            "priorityFee": "",
            "receiver": "0x0bb3e1c80c0ffde985fb0ec6392aa18a1d2de40e",
            "revertMessage": "",
            "sender": "0x77424437e320fc70ab04d983e259ca6e6e205c86",
            "simulationEnable": true,
            "sourceTxnHash": "0xd36819954baf1758b3f96b3427330083d5040a0469b503068d8d5ac92ca0ebed",
            "status": true,
            "timestamp": "2021-08-31T03:51:51Z",
            "transactionFee": "4.679492",
            "txnHash": "0xd36819954baf1758b3f96b3427330083d5040a0469b503068d8d5ac92ca0ebed",
            "txnIndex": 13,
            "type": 0,
            "value": "600000000000000000"
        },
        "fund_flow": [
            {
                "amount": "0.6",
                "from": "0x77424437e320fc70ab04d983e259ca6e6e205c86",
                "id": 1,
                "isERC1155": false,
                "isERC721": false,
                "isReverted": false,
                "order": 1,
                "to": "0x0bb3e1c80c0ffde985fb0ec6392aa18a1d2de40e",
                "token": "0xeeeeeeeeeeeeeeeeeeeeeeeeeeeeeeeeeeeeeeee"
            },
            {
                "amount": "1",
                "from": "0x0000000000000000000000000000000000000000",
                "id": 2,
                "isERC1155": false,
                "isERC721": true,
                "isReverted": false,
                "order": 2,
                "to": "0x77424437e320fc70ab04d983e259ca6e6e205c86",
                "token": "0x0bb3e1c80c0ffde985fb0ec6392aa18a1d2de40e",
                "tokenID": "7553"
            },
            {
                "amount": "1",
                "from": "0x0000000000000000000000000000000000000000",
                "id": 3,
                "isERC1155": false,
                "isERC721": true,
                "isReverted": false,
                "order": 3,
                "to": "0x77424437e320fc70ab04d983e259ca6e6e205c86",
                "token": "0x0bb3e1c80c0ffde985fb0ec6392aa18a1d2de40e",
                "tokenID": "7554"
            },
            {
                "amount": "1",
                "from": "0x0000000000000000000000000000000000000000",
                "id": 4,
                "isERC1155": false,
                "isERC721": true,
                "isReverted": false,
                "order": 4,
                "to": "0x77424437e320fc70ab04d983e259ca6e6e205c86",
                "token": "0x0bb3e1c80c0ffde985fb0ec6392aa18a1d2de40e",
                "tokenID": "7555"
            },
            {
                "amount": "1",
                "from": "0x0000000000000000000000000000000000000000",
                "id": 5,
                "isERC1155": false,
                "isERC721": true,
                "isReverted": false,
                "order": 5,
                "to": "0x77424437e320fc70ab04d983e259ca6e6e205c86",
                "token": "0x0bb3e1c80c0ffde985fb0ec6392aa18a1d2de40e",
                "tokenID": "7556"
            },
            {
                "amount": "1",
                "from": "0x0000000000000000000000000000000000000000",
                "id": 6,
                "isERC1155": false,
                "isERC721": true,
                "isReverted": false,
                "order": 6,
                "to": "0x77424437e320fc70ab04d983e259ca6e6e205c86",
                "token": "0x0bb3e1c80c0ffde985fb0ec6392aa18a1d2de40e",
                "tokenID": "7557"
            },
            {
                "amount": "1",
                "from": "0x0000000000000000000000000000000000000000",
                "id": 7,
                "isERC1155": false,
                "isERC721": true,
                "isReverted": false,
                "order": 7,
                "to": "0x77424437e320fc70ab04d983e259ca6e6e205c86",
                "token": "0x0bb3e1c80c0ffde985fb0ec6392aa18a1d2de40e",
                "tokenID": "7558"
            },
            {
                "amount": "1",
                "from": "0x0000000000000000000000000000000000000000",
                "id": 8,
                "isERC1155": false,
                "isERC721": true,
                "isReverted": false,
                "order": 8,
                "to": "0x77424437e320fc70ab04d983e259ca6e6e205c86",
                "token": "0x0bb3e1c80c0ffde985fb0ec6392aa18a1d2de40e",
                "tokenID": "7559"
            },
            {
                "amount": "1",
                "from": "0x0000000000000000000000000000000000000000",
                "id": 9,
                "isERC1155": false,
                "isERC721": true,
                "isReverted": false,
                "order": 9,
                "to": "0x77424437e320fc70ab04d983e259ca6e6e205c86",
                "token": "0x0bb3e1c80c0ffde985fb0ec6392aa18a1d2de40e",
                "tokenID": "7560"
            },
            {
                "amount": "1",
                "from": "0x0000000000000000000000000000000000000000",
                "id": 10,
                "isERC1155": false,
                "isERC721": true,
                "isReverted": false,
                "order": 10,
                "to": "0x77424437e320fc70ab04d983e259ca6e6e205c86",
                "token": "0x0bb3e1c80c0ffde985fb0ec6392aa18a1d2de40e",
                "tokenID": "7561"
            },
            {
                "amount": "1",
                "from": "0x0000000000000000000000000000000000000000",
                "id": 11,
                "isERC1155": false,
                "isERC721": true,
                "isReverted": false,
                "order": 11,
                "to": "0x77424437e320fc70ab04d983e259ca6e6e205c86",
                "token": "0x0bb3e1c80c0ffde985fb0ec6392aa18a1d2de40e",
                "tokenID": "7562"
            },
            {
                "amount": "1",
                "from": "0x0000000000000000000000000000000000000000",
                "id": 12,
                "isERC1155": false,
                "isERC721": true,
                "isReverted": false,
                "order": 12,
                "to": "0x77424437e320fc70ab04d983e259ca6e6e205c86",
                "token": "0x0bb3e1c80c0ffde985fb0ec6392aa18a1d2de40e",
                "tokenID": "7563"
            },
            {
                "amount": "1",
                "from": "0x0000000000000000000000000000000000000000",
                "id": 13,
                "isERC1155": false,
                "isERC721": true,
                "isReverted": false,
                "order": 13,
                "to": "0x77424437e320fc70ab04d983e259ca6e6e205c86",
                "token": "0x0bb3e1c80c0ffde985fb0ec6392aa18a1d2de40e",
                "tokenID": "7564"
            },
            {
                "amount": "1",
                "from": "0x0000000000000000000000000000000000000000",
                "id": 14,
                "isERC1155": false,
                "isERC721": true,
                "isReverted": false,
                "order": 14,
                "to": "0x77424437e320fc70ab04d983e259ca6e6e205c86",
                "token": "0x0bb3e1c80c0ffde985fb0ec6392aa18a1d2de40e",
                "tokenID": "7565"
            },
            {
                "amount": "1",
                "from": "0x0000000000000000000000000000000000000000",
                "id": 15,
                "isERC1155": false,
                "isERC721": true,
                "isReverted": false,
                "order": 15,
                "to": "0x77424437e320fc70ab04d983e259ca6e6e205c86",
                "token": "0x0bb3e1c80c0ffde985fb0ec6392aa18a1d2de40e",
                "tokenID": "7566"
            },
            {
                "amount": "1",
                "from": "0x0000000000000000000000000000000000000000",
                "id": 16,
                "isERC1155": false,
                "isERC721": true,
                "isReverted": false,
                "order": 16,
                "to": "0x77424437e320fc70ab04d983e259ca6e6e205c86",
                "token": "0x0bb3e1c80c0ffde985fb0ec6392aa18a1d2de40e",
                "tokenID": "7567"
            },
            {
                "amount": "1",
                "from": "0x0000000000000000000000000000000000000000",
                "id": 17,
                "isERC1155": false,
                "isERC721": true,
                "isReverted": false,
                "order": 17,
                "to": "0x77424437e320fc70ab04d983e259ca6e6e205c86",
                "token": "0x0bb3e1c80c0ffde985fb0ec6392aa18a1d2de40e",
                "tokenID": "7568"
            },
            {
                "amount": "1",
                "from": "0x0000000000000000000000000000000000000000",
                "id": 18,
                "isERC1155": false,
                "isERC721": true,
                "isReverted": false,
                "order": 18,
                "to": "0x77424437e320fc70ab04d983e259ca6e6e205c86",
                "token": "0x0bb3e1c80c0ffde985fb0ec6392aa18a1d2de40e",
                "tokenID": "7569"
            },
            {
                "amount": "1",
                "from": "0x0000000000000000000000000000000000000000",
                "id": 19,
                "isERC1155": false,
                "isERC721": true,
                "isReverted": false,
                "order": 19,
                "to": "0x77424437e320fc70ab04d983e259ca6e6e205c86",
                "token": "0x0bb3e1c80c0ffde985fb0ec6392aa18a1d2de40e",
                "tokenID": "7570"
            },
            {
                "amount": "1",
                "from": "0x0000000000000000000000000000000000000000",
                "id": 20,
                "isERC1155": false,
                "isERC721": true,
                "isReverted": false,
                "order": 20,
                "to": "0x77424437e320fc70ab04d983e259ca6e6e205c86",
                "token": "0x0bb3e1c80c0ffde985fb0ec6392aa18a1d2de40e",
                "tokenID": "7571"
            },
            {
                "amount": "1",
                "from": "0x0000000000000000000000000000000000000000",
                "id": 21,
                "isERC1155": false,
                "isERC721": true,
                "isReverted": false,
                "order": 21,
                "to": "0x77424437e320fc70ab04d983e259ca6e6e205c86",
                "token": "0x0bb3e1c80c0ffde985fb0ec6392aa18a1d2de40e",
                "tokenID": "7572"
            }
        ],
        "token_infos": [
            {
                "address": "0xc02aaa39b223fe8d0a0e5c4f27ead9083c756cc2",
                "decimals": 18
            },
            {
                "address": "0xeeeeeeeeeeeeeeeeeeeeeeeeeeeeeeeeeeeeeeee",
                "decimals": 18
            }
        ]
    },
    "address_label": {
        "labels": [
            {
                "address": "0xeeeeeeeeeeeeeeeeeeeeeeeeeeeeeeeeeeeeeeee",
                "label": "Ether"
            },
            {
                "address": "0x0bb3e1c80c0ffde985fb0ec6392aa18a1d2de40e",
                "label": "Fatales (FTL)"
            },
            {
                "address": "0x0000000000000000000000000000000000000001",
                "label": "Precompiled"
            },
            {
                "address": "0x0000000000000000000000000000000000000002",
                "label": "Precompiled"
            },
            {
                "address": "0x0000000000000000000000000000000000000003",
                "label": "Precompiled"
            },
            {
                "address": "0x0000000000000000000000000000000000000004",
                "label": "Precompiled"
            }
        ]
    },
    "trace": {
        "accountLabels": null,
        "dataMap": {
            "-1": {
                "invocation": {
                    "address": "0x77424437e320fc70ab04d983e259ca6e6e205c86",
                    "callData": "",
                    "decodedMethod": null,
                    "errorInfo": "",
                    "fromAddress": "",
                    "gasUsed": 0,
                    "id": -1,
                    "methodDecoded": false,
                    "operation": "",
                    "output": "",
                    "revert": false,
                    "revertMessage": "",
                    "selector": "",
                    "status": false,
                    "value": ""
                },
                "nodeType": 0
            },
            "0": {
                "invocation": {
                    "address": "0x0bb3e1c80c0ffde985fb0ec6392aa18a1d2de40e",
                    "callData": "0x0000000000000000000000000000000000000000000000000000000000000014",
                    "decodedMethod": {
                        "callParams": [
                            {
                                "name": "numberOfTokens",
                                "type": "uint256",
                                "value": "20"
                            }
                        ],
                        "constructorArguments": "",
                        "name": "mintTokens",
                        "returnParams": [],
                        "signature": "mintTokens(uint256)"
                    },
                    "errorInfo": "",
                    "fromAddress": "0x77424437e320fc70ab04d983e259ca6e6e205c86",
                    "gasUsed": 2339746,
                    "id": 0,
                    "methodDecoded": true,
                    "operation": "CALL",
                    "output": "",
                    "revert": false,
                    "revertMessage": "",
                    "selector": "0x97304ced",
                    "status": true,
                    "value": "0.6"
                },
                "nodeType": 0
            },
            "1": {
                "event": {
                    "contract": "0x0bb3e1c80c0ffde985fb0ec6392aa18a1d2de40e",
                    "decodedLog": {
                        "name": "Transfer",
                        "params": [
                            {
                                "name": "from",
                                "type": "address",
                                "value": "0x0000000000000000000000000000000000000000"
                            },
                            {
                                "name": "to",
                                "type": "address",
                                "value": "0x77424437e320fc70ab04d983e259ca6e6e205c86"
                            },
                            {
                                "decimalAvailable": true,
                                "name": "tokenId",
                                "type": "uint256",
                                "value": "7,553"
                            }
                        ],
                        "signature": "Transfer(address,address,uint256)"
                    },
                    "id": 1,
                    "logData": "0x",
                    "logDecoded": true,
                    "operation": "EVENT",
                    "revert": false,
                    "status": true,
                    "topics": [
                        "0xddf252ad1be2c89b69c2b068fc378daa952ba7f163c4a11628f55a4df523b3ef",
                        "0x0000000000000000000000000000000000000000000000000000000000000000",
                        "0x00000000000000000000000077424437e320fc70ab04d983e259ca6e6e205c86",
                        "0x0000000000000000000000000000000000000000000000000000000000001d81"
                    ]
                },
                "nodeType": 1
            },
            "10": {
                "event": {
                    "contract": "0x0bb3e1c80c0ffde985fb0ec6392aa18a1d2de40e",
                    "decodedLog": {
                        "name": "Transfer",
                        "params": [
                            {
                                "name": "from",
                                "type": "address",
                                "value": "0x0000000000000000000000000000000000000000"
                            },
                            {
                                "name": "to",
                                "type": "address",
                                "value": "0x77424437e320fc70ab04d983e259ca6e6e205c86"
                            },
                            {
                                "decimalAvailable": true,
                                "name": "tokenId",
                                "type": "uint256",
                                "value": "7,562"
                            }
                        ],
                        "signature": "Transfer(address,address,uint256)"
                    },
                    "id": 10,
                    "logData": "0x",
                    "logDecoded": true,
                    "operation": "EVENT",
                    "revert": false,
                    "status": true,
                    "topics": [
                        "0xddf252ad1be2c89b69c2b068fc378daa952ba7f163c4a11628f55a4df523b3ef",
                        "0x0000000000000000000000000000000000000000000000000000000000000000",
                        "0x00000000000000000000000077424437e320fc70ab04d983e259ca6e6e205c86",
                        "0x0000000000000000000000000000000000000000000000000000000000001d8a"
                    ]
                },
                "nodeType": 1
            },
            "11": {
                "event": {
                    "contract": "0x0bb3e1c80c0ffde985fb0ec6392aa18a1d2de40e",
                    "decodedLog": {
                        "name": "Transfer",
                        "params": [
                            {
                                "name": "from",
                                "type": "address",
                                "value": "0x0000000000000000000000000000000000000000"
                            },
                            {
                                "name": "to",
                                "type": "address",
                                "value": "0x77424437e320fc70ab04d983e259ca6e6e205c86"
                            },
                            {
                                "decimalAvailable": true,
                                "name": "tokenId",
                                "type": "uint256",
                                "value": "7,563"
                            }
                        ],
                        "signature": "Transfer(address,address,uint256)"
                    },
                    "id": 11,
                    "logData": "0x",
                    "logDecoded": true,
                    "operation": "EVENT",
                    "revert": false,
                    "status": true,
                    "topics": [
                        "0xddf252ad1be2c89b69c2b068fc378daa952ba7f163c4a11628f55a4df523b3ef",
                        "0x0000000000000000000000000000000000000000000000000000000000000000",
                        "0x00000000000000000000000077424437e320fc70ab04d983e259ca6e6e205c86",
                        "0x0000000000000000000000000000000000000000000000000000000000001d8b"
                    ]
                },
                "nodeType": 1
            },
            "12": {
                "event": {
                    "contract": "0x0bb3e1c80c0ffde985fb0ec6392aa18a1d2de40e",
                    "decodedLog": {
                        "name": "Transfer",
                        "params": [
                            {
                                "name": "from",
                                "type": "address",
                                "value": "0x0000000000000000000000000000000000000000"
                            },
                            {
                                "name": "to",
                                "type": "address",
                                "value": "0x77424437e320fc70ab04d983e259ca6e6e205c86"
                            },
                            {
                                "decimalAvailable": true,
                                "name": "tokenId",
                                "type": "uint256",
                                "value": "7,564"
                            }
                        ],
                        "signature": "Transfer(address,address,uint256)"
                    },
                    "id": 12,
                    "logData": "0x",
                    "logDecoded": true,
                    "operation": "EVENT",
                    "revert": false,
                    "status": true,
                    "topics": [
                        "0xddf252ad1be2c89b69c2b068fc378daa952ba7f163c4a11628f55a4df523b3ef",
                        "0x0000000000000000000000000000000000000000000000000000000000000000",
                        "0x00000000000000000000000077424437e320fc70ab04d983e259ca6e6e205c86",
                        "0x0000000000000000000000000000000000000000000000000000000000001d8c"
                    ]
                },
                "nodeType": 1
            },
            "13": {
                "event": {
                    "contract": "0x0bb3e1c80c0ffde985fb0ec6392aa18a1d2de40e",
                    "decodedLog": {
                        "name": "Transfer",
                        "params": [
                            {
                                "name": "from",
                                "type": "address",
                                "value": "0x0000000000000000000000000000000000000000"
                            },
                            {
                                "name": "to",
                                "type": "address",
                                "value": "0x77424437e320fc70ab04d983e259ca6e6e205c86"
                            },
                            {
                                "decimalAvailable": true,
                                "name": "tokenId",
                                "type": "uint256",
                                "value": "7,565"
                            }
                        ],
                        "signature": "Transfer(address,address,uint256)"
                    },
                    "id": 13,
                    "logData": "0x",
                    "logDecoded": true,
                    "operation": "EVENT",
                    "revert": false,
                    "status": true,
                    "topics": [
                        "0xddf252ad1be2c89b69c2b068fc378daa952ba7f163c4a11628f55a4df523b3ef",
                        "0x0000000000000000000000000000000000000000000000000000000000000000",
                        "0x00000000000000000000000077424437e320fc70ab04d983e259ca6e6e205c86",
                        "0x0000000000000000000000000000000000000000000000000000000000001d8d"
                    ]
                },
                "nodeType": 1
            },
            "14": {
                "event": {
                    "contract": "0x0bb3e1c80c0ffde985fb0ec6392aa18a1d2de40e",
                    "decodedLog": {
                        "name": "Transfer",
                        "params": [
                            {
                                "name": "from",
                                "type": "address",
                                "value": "0x0000000000000000000000000000000000000000"
                            },
                            {
                                "name": "to",
                                "type": "address",
                                "value": "0x77424437e320fc70ab04d983e259ca6e6e205c86"
                            },
                            {
                                "decimalAvailable": true,
                                "name": "tokenId",
                                "type": "uint256",
                                "value": "7,566"
                            }
                        ],
                        "signature": "Transfer(address,address,uint256)"
                    },
                    "id": 14,
                    "logData": "0x",
                    "logDecoded": true,
                    "operation": "EVENT",
                    "revert": false,
                    "status": true,
                    "topics": [
                        "0xddf252ad1be2c89b69c2b068fc378daa952ba7f163c4a11628f55a4df523b3ef",
                        "0x0000000000000000000000000000000000000000000000000000000000000000",
                        "0x00000000000000000000000077424437e320fc70ab04d983e259ca6e6e205c86",
                        "0x0000000000000000000000000000000000000000000000000000000000001d8e"
                    ]
                },
                "nodeType": 1
            },
            "15": {
                "event": {
                    "contract": "0x0bb3e1c80c0ffde985fb0ec6392aa18a1d2de40e",
                    "decodedLog": {
                        "name": "Transfer",
                        "params": [
                            {
                                "name": "from",
                                "type": "address",
                                "value": "0x0000000000000000000000000000000000000000"
                            },
                            {
                                "name": "to",
                                "type": "address",
                                "value": "0x77424437e320fc70ab04d983e259ca6e6e205c86"
                            },
                            {
                                "decimalAvailable": true,
                                "name": "tokenId",
                                "type": "uint256",
                                "value": "7,567"
                            }
                        ],
                        "signature": "Transfer(address,address,uint256)"
                    },
                    "id": 15,
                    "logData": "0x",
                    "logDecoded": true,
                    "operation": "EVENT",
                    "revert": false,
                    "status": true,
                    "topics": [
                        "0xddf252ad1be2c89b69c2b068fc378daa952ba7f163c4a11628f55a4df523b3ef",
                        "0x0000000000000000000000000000000000000000000000000000000000000000",
                        "0x00000000000000000000000077424437e320fc70ab04d983e259ca6e6e205c86",
                        "0x0000000000000000000000000000000000000000000000000000000000001d8f"
                    ]
                },
                "nodeType": 1
            },
            "16": {
                "event": {
                    "contract": "0x0bb3e1c80c0ffde985fb0ec6392aa18a1d2de40e",
                    "decodedLog": {
                        "name": "Transfer",
                        "params": [
                            {
                                "name": "from",
                                "type": "address",
                                "value": "0x0000000000000000000000000000000000000000"
                            },
                            {
                                "name": "to",
                                "type": "address",
                                "value": "0x77424437e320fc70ab04d983e259ca6e6e205c86"
                            },
                            {
                                "decimalAvailable": true,
                                "name": "tokenId",
                                "type": "uint256",
                                "value": "7,568"
                            }
                        ],
                        "signature": "Transfer(address,address,uint256)"
                    },
                    "id": 16,
                    "logData": "0x",
                    "logDecoded": true,
                    "operation": "EVENT",
                    "revert": false,
                    "status": true,
                    "topics": [
                        "0xddf252ad1be2c89b69c2b068fc378daa952ba7f163c4a11628f55a4df523b3ef",
                        "0x0000000000000000000000000000000000000000000000000000000000000000",
                        "0x00000000000000000000000077424437e320fc70ab04d983e259ca6e6e205c86",
                        "0x0000000000000000000000000000000000000000000000000000000000001d90"
                    ]
                },
                "nodeType": 1
            },
            "17": {
                "event": {
                    "contract": "0x0bb3e1c80c0ffde985fb0ec6392aa18a1d2de40e",
                    "decodedLog": {
                        "name": "Transfer",
                        "params": [
                            {
                                "name": "from",
                                "type": "address",
                                "value": "0x0000000000000000000000000000000000000000"
                            },
                            {
                                "name": "to",
                                "type": "address",
                                "value": "0x77424437e320fc70ab04d983e259ca6e6e205c86"
                            },
                            {
                                "decimalAvailable": true,
                                "name": "tokenId",
                                "type": "uint256",
                                "value": "7,569"
                            }
                        ],
                        "signature": "Transfer(address,address,uint256)"
                    },
                    "id": 17,
                    "logData": "0x",
                    "logDecoded": true,
                    "operation": "EVENT",
                    "revert": false,
                    "status": true,
                    "topics": [
                        "0xddf252ad1be2c89b69c2b068fc378daa952ba7f163c4a11628f55a4df523b3ef",
                        "0x0000000000000000000000000000000000000000000000000000000000000000",
                        "0x00000000000000000000000077424437e320fc70ab04d983e259ca6e6e205c86",
                        "0x0000000000000000000000000000000000000000000000000000000000001d91"
                    ]
                },
                "nodeType": 1
            },
            "18": {
                "event": {
                    "contract": "0x0bb3e1c80c0ffde985fb0ec6392aa18a1d2de40e",
                    "decodedLog": {
                        "name": "Transfer",
                        "params": [
                            {
                                "name": "from",
                                "type": "address",
                                "value": "0x0000000000000000000000000000000000000000"
                            },
                            {
                                "name": "to",
                                "type": "address",
                                "value": "0x77424437e320fc70ab04d983e259ca6e6e205c86"
                            },
                            {
                                "decimalAvailable": true,
                                "name": "tokenId",
                                "type": "uint256",
                                "value": "7,570"
                            }
                        ],
                        "signature": "Transfer(address,address,uint256)"
                    },
                    "id": 18,
                    "logData": "0x",
                    "logDecoded": true,
                    "operation": "EVENT",
                    "revert": false,
                    "status": true,
                    "topics": [
                        "0xddf252ad1be2c89b69c2b068fc378daa952ba7f163c4a11628f55a4df523b3ef",
                        "0x0000000000000000000000000000000000000000000000000000000000000000",
                        "0x00000000000000000000000077424437e320fc70ab04d983e259ca6e6e205c86",
                        "0x0000000000000000000000000000000000000000000000000000000000001d92"
                    ]
                },
                "nodeType": 1
            },
            "19": {
                "event": {
                    "contract": "0x0bb3e1c80c0ffde985fb0ec6392aa18a1d2de40e",
                    "decodedLog": {
                        "name": "Transfer",
                        "params": [
                            {
                                "name": "from",
                                "type": "address",
                                "value": "0x0000000000000000000000000000000000000000"
                            },
                            {
                                "name": "to",
                                "type": "address",
                                "value": "0x77424437e320fc70ab04d983e259ca6e6e205c86"
                            },
                            {
                                "decimalAvailable": true,
                                "name": "tokenId",
                                "type": "uint256",
                                "value": "7,571"
                            }
                        ],
                        "signature": "Transfer(address,address,uint256)"
                    },
                    "id": 19,
                    "logData": "0x",
                    "logDecoded": true,
                    "operation": "EVENT",
                    "revert": false,
                    "status": true,
                    "topics": [
                        "0xddf252ad1be2c89b69c2b068fc378daa952ba7f163c4a11628f55a4df523b3ef",
                        "0x0000000000000000000000000000000000000000000000000000000000000000",
                        "0x00000000000000000000000077424437e320fc70ab04d983e259ca6e6e205c86",
                        "0x0000000000000000000000000000000000000000000000000000000000001d93"
                    ]
                },
                "nodeType": 1
            },
            "2": {
                "event": {
                    "contract": "0x0bb3e1c80c0ffde985fb0ec6392aa18a1d2de40e",
                    "decodedLog": {
                        "name": "Transfer",
                        "params": [
                            {
                                "name": "from",
                                "type": "address",
                                "value": "0x0000000000000000000000000000000000000000"
                            },
                            {
                                "name": "to",
                                "type": "address",
                                "value": "0x77424437e320fc70ab04d983e259ca6e6e205c86"
                            },
                            {
                                "decimalAvailable": true,
                                "name": "tokenId",
                                "type": "uint256",
                                "value": "7,554"
                            }
                        ],
                        "signature": "Transfer(address,address,uint256)"
                    },
                    "id": 2,
                    "logData": "0x",
                    "logDecoded": true,
                    "operation": "EVENT",
                    "revert": false,
                    "status": true,
                    "topics": [
                        "0xddf252ad1be2c89b69c2b068fc378daa952ba7f163c4a11628f55a4df523b3ef",
                        "0x0000000000000000000000000000000000000000000000000000000000000000",
                        "0x00000000000000000000000077424437e320fc70ab04d983e259ca6e6e205c86",
                        "0x0000000000000000000000000000000000000000000000000000000000001d82"
                    ]
                },
                "nodeType": 1
            },
            "20": {
                "event": {
                    "contract": "0x0bb3e1c80c0ffde985fb0ec6392aa18a1d2de40e",
                    "decodedLog": {
                        "name": "Transfer",
                        "params": [
                            {
                                "name": "from",
                                "type": "address",
                                "value": "0x0000000000000000000000000000000000000000"
                            },
                            {
                                "name": "to",
                                "type": "address",
                                "value": "0x77424437e320fc70ab04d983e259ca6e6e205c86"
                            },
                            {
                                "decimalAvailable": true,
                                "name": "tokenId",
                                "type": "uint256",
                                "value": "7,572"
                            }
                        ],
                        "signature": "Transfer(address,address,uint256)"
                    },
                    "id": 20,
                    "logData": "0x",
                    "logDecoded": true,
                    "operation": "EVENT",
                    "revert": false,
                    "status": true,
                    "topics": [
                        "0xddf252ad1be2c89b69c2b068fc378daa952ba7f163c4a11628f55a4df523b3ef",
                        "0x0000000000000000000000000000000000000000000000000000000000000000",
                        "0x00000000000000000000000077424437e320fc70ab04d983e259ca6e6e205c86",
                        "0x0000000000000000000000000000000000000000000000000000000000001d94"
                    ]
                },
                "nodeType": 1
            },
            "3": {
                "event": {
                    "contract": "0x0bb3e1c80c0ffde985fb0ec6392aa18a1d2de40e",
                    "decodedLog": {
                        "name": "Transfer",
                        "params": [
                            {
                                "name": "from",
                                "type": "address",
                                "value": "0x0000000000000000000000000000000000000000"
                            },
                            {
                                "name": "to",
                                "type": "address",
                                "value": "0x77424437e320fc70ab04d983e259ca6e6e205c86"
                            },
                            {
                                "decimalAvailable": true,
                                "name": "tokenId",
                                "type": "uint256",
                                "value": "7,555"
                            }
                        ],
                        "signature": "Transfer(address,address,uint256)"
                    },
                    "id": 3,
                    "logData": "0x",
                    "logDecoded": true,
                    "operation": "EVENT",
                    "revert": false,
                    "status": true,
                    "topics": [
                        "0xddf252ad1be2c89b69c2b068fc378daa952ba7f163c4a11628f55a4df523b3ef",
                        "0x0000000000000000000000000000000000000000000000000000000000000000",
                        "0x00000000000000000000000077424437e320fc70ab04d983e259ca6e6e205c86",
                        "0x0000000000000000000000000000000000000000000000000000000000001d83"
                    ]
                },
                "nodeType": 1
            },
            "4": {
                "event": {
                    "contract": "0x0bb3e1c80c0ffde985fb0ec6392aa18a1d2de40e",
                    "decodedLog": {
                        "name": "Transfer",
                        "params": [
                            {
                                "name": "from",
                                "type": "address",
                                "value": "0x0000000000000000000000000000000000000000"
                            },
                            {
                                "name": "to",
                                "type": "address",
                                "value": "0x77424437e320fc70ab04d983e259ca6e6e205c86"
                            },
                            {
                                "decimalAvailable": true,
                                "name": "tokenId",
                                "type": "uint256",
                                "value": "7,556"
                            }
                        ],
                        "signature": "Transfer(address,address,uint256)"
                    },
                    "id": 4,
                    "logData": "0x",
                    "logDecoded": true,
                    "operation": "EVENT",
                    "revert": false,
                    "status": true,
                    "topics": [
                        "0xddf252ad1be2c89b69c2b068fc378daa952ba7f163c4a11628f55a4df523b3ef",
                        "0x0000000000000000000000000000000000000000000000000000000000000000",
                        "0x00000000000000000000000077424437e320fc70ab04d983e259ca6e6e205c86",
                        "0x0000000000000000000000000000000000000000000000000000000000001d84"
                    ]
                },
                "nodeType": 1
            },
            "5": {
                "event": {
                    "contract": "0x0bb3e1c80c0ffde985fb0ec6392aa18a1d2de40e",
                    "decodedLog": {
                        "name": "Transfer",
                        "params": [
                            {
                                "name": "from",
                                "type": "address",
                                "value": "0x0000000000000000000000000000000000000000"
                            },
                            {
                                "name": "to",
                                "type": "address",
                                "value": "0x77424437e320fc70ab04d983e259ca6e6e205c86"
                            },
                            {
                                "decimalAvailable": true,
                                "name": "tokenId",
                                "type": "uint256",
                                "value": "7,557"
                            }
                        ],
                        "signature": "Transfer(address,address,uint256)"
                    },
                    "id": 5,
                    "logData": "0x",
                    "logDecoded": true,
                    "operation": "EVENT",
                    "revert": false,
                    "status": true,
                    "topics": [
                        "0xddf252ad1be2c89b69c2b068fc378daa952ba7f163c4a11628f55a4df523b3ef",
                        "0x0000000000000000000000000000000000000000000000000000000000000000",
                        "0x00000000000000000000000077424437e320fc70ab04d983e259ca6e6e205c86",
                        "0x0000000000000000000000000000000000000000000000000000000000001d85"
                    ]
                },
                "nodeType": 1
            },
            "6": {
                "event": {
                    "contract": "0x0bb3e1c80c0ffde985fb0ec6392aa18a1d2de40e",
                    "decodedLog": {
                        "name": "Transfer",
                        "params": [
                            {
                                "name": "from",
                                "type": "address",
                                "value": "0x0000000000000000000000000000000000000000"
                            },
                            {
                                "name": "to",
                                "type": "address",
                                "value": "0x77424437e320fc70ab04d983e259ca6e6e205c86"
                            },
                            {
                                "decimalAvailable": true,
                                "name": "tokenId",
                                "type": "uint256",
                                "value": "7,558"
                            }
                        ],
                        "signature": "Transfer(address,address,uint256)"
                    },
                    "id": 6,
                    "logData": "0x",
                    "logDecoded": true,
                    "operation": "EVENT",
                    "revert": false,
                    "status": true,
                    "topics": [
                        "0xddf252ad1be2c89b69c2b068fc378daa952ba7f163c4a11628f55a4df523b3ef",
                        "0x0000000000000000000000000000000000000000000000000000000000000000",
                        "0x00000000000000000000000077424437e320fc70ab04d983e259ca6e6e205c86",
                        "0x0000000000000000000000000000000000000000000000000000000000001d86"
                    ]
                },
                "nodeType": 1
            },
            "7": {
                "event": {
                    "contract": "0x0bb3e1c80c0ffde985fb0ec6392aa18a1d2de40e",
                    "decodedLog": {
                        "name": "Transfer",
                        "params": [
                            {
                                "name": "from",
                                "type": "address",
                                "value": "0x0000000000000000000000000000000000000000"
                            },
                            {
                                "name": "to",
                                "type": "address",
                                "value": "0x77424437e320fc70ab04d983e259ca6e6e205c86"
                            },
                            {
                                "decimalAvailable": true,
                                "name": "tokenId",
                                "type": "uint256",
                                "value": "7,559"
                            }
                        ],
                        "signature": "Transfer(address,address,uint256)"
                    },
                    "id": 7,
                    "logData": "0x",
                    "logDecoded": true,
                    "operation": "EVENT",
                    "revert": false,
                    "status": true,
                    "topics": [
                        "0xddf252ad1be2c89b69c2b068fc378daa952ba7f163c4a11628f55a4df523b3ef",
                        "0x0000000000000000000000000000000000000000000000000000000000000000",
                        "0x00000000000000000000000077424437e320fc70ab04d983e259ca6e6e205c86",
                        "0x0000000000000000000000000000000000000000000000000000000000001d87"
                    ]
                },
                "nodeType": 1
            },
            "8": {
                "event": {
                    "contract": "0x0bb3e1c80c0ffde985fb0ec6392aa18a1d2de40e",
                    "decodedLog": {
                        "name": "Transfer",
                        "params": [
                            {
                                "name": "from",
                                "type": "address",
                                "value": "0x0000000000000000000000000000000000000000"
                            },
                            {
                                "name": "to",
                                "type": "address",
                                "value": "0x77424437e320fc70ab04d983e259ca6e6e205c86"
                            },
                            {
                                "decimalAvailable": true,
                                "name": "tokenId",
                                "type": "uint256",
                                "value": "7,560"
                            }
                        ],
                        "signature": "Transfer(address,address,uint256)"
                    },
                    "id": 8,
                    "logData": "0x",
                    "logDecoded": true,
                    "operation": "EVENT",
                    "revert": false,
                    "status": true,
                    "topics": [
                        "0xddf252ad1be2c89b69c2b068fc378daa952ba7f163c4a11628f55a4df523b3ef",
                        "0x0000000000000000000000000000000000000000000000000000000000000000",
                        "0x00000000000000000000000077424437e320fc70ab04d983e259ca6e6e205c86",
                        "0x0000000000000000000000000000000000000000000000000000000000001d88"
                    ]
                },
                "nodeType": 1
            },
            "9": {
                "event": {
                    "contract": "0x0bb3e1c80c0ffde985fb0ec6392aa18a1d2de40e",
                    "decodedLog": {
                        "name": "Transfer",
                        "params": [
                            {
                                "name": "from",
                                "type": "address",
                                "value": "0x0000000000000000000000000000000000000000"
                            },
                            {
                                "name": "to",
                                "type": "address",
                                "value": "0x77424437e320fc70ab04d983e259ca6e6e205c86"
                            },
                            {
                                "decimalAvailable": true,
                                "name": "tokenId",
                                "type": "uint256",
                                "value": "7,561"
                            }
                        ],
                        "signature": "Transfer(address,address,uint256)"
                    },
                    "id": 9,
                    "logData": "0x",
                    "logDecoded": true,
                    "operation": "EVENT",
                    "revert": false,
                    "status": true,
                    "topics": [
                        "0xddf252ad1be2c89b69c2b068fc378daa952ba7f163c4a11628f55a4df523b3ef",
                        "0x0000000000000000000000000000000000000000000000000000000000000000",
                        "0x00000000000000000000000077424437e320fc70ab04d983e259ca6e6e205c86",
                        "0x0000000000000000000000000000000000000000000000000000000000001d89"
                    ]
                },
                "nodeType": 1
            }
        },
        "gasFlame": [
            {
                "children": [
                    {
                        "children": [
                            {
                                "children": [],
                                "depth": 0,
                                "name": "Initial Gas",
                                "value": 21204
                            },
                            {
                                "children": [],
                                "depth": 0,
                                "name": "Executed Gas",
                                "value": 2318542
                            }
                        ],
                        "depth": -1,
                        "name": "Actual Gas Used",
                        "value": 2339746
                    },
                    {
                        "children": [],
                        "depth": -1,
                        "name": "Refunded Gas",
                        "value": 0
                    }
                ],
                "depth": -2,
                "name": "Total Gas",
                "value": 2339746
            }
        ],
        "isConfirmed": true,
        "mainTrace": [
            {
                "children": [
                    {
                        "children": [
                            {
                                "children": [],
                                "depth": 1,
                                "id": 1,
                                "order": 1
                            },
                            {
                                "children": [],
                                "depth": 1,
                                "id": 2,
                                "order": 2
                            },
                            {
                                "children": [],
                                "depth": 1,
                                "id": 3,
                                "order": 3
                            },
                            {
                                "children": [],
                                "depth": 1,
                                "id": 4,
                                "order": 4
                            },
                            {
                                "children": [],
                                "depth": 1,
                                "id": 5,
                                "order": 5
                            },
                            {
                                "children": [],
                                "depth": 1,
                                "id": 6,
                                "order": 6
                            },
                            {
                                "children": [],
                                "depth": 1,
                                "id": 7,
                                "order": 7
                            },
                            {
                                "children": [],
                                "depth": 1,
                                "id": 8,
                                "order": 8
                            },
                            {
                                "children": [],
                                "depth": 1,
                                "id": 9,
                                "order": 9
                            },
                            {
                                "children": [],
                                "depth": 1,
                                "id": 10,
                                "order": 10
                            },
                            {
                                "children": [],
                                "depth": 1,
                                "id": 11,
                                "order": 11
                            },
                            {
                                "children": [],
                                "depth": 1,
                                "id": 12,
                                "order": 12
                            },
                            {
                                "children": [],
                                "depth": 1,
                                "id": 13,
                                "order": 13
                            },
                            {
                                "children": [],
                                "depth": 1,
                                "id": 14,
                                "order": 14
                            },
                            {
                                "children": [],
                                "depth": 1,
                                "id": 15,
                                "order": 15
                            },
                            {
                                "children": [],
                                "depth": 1,
                                "id": 16,
                                "order": 16
                            },
                            {
                                "children": [],
                                "depth": 1,
                                "id": 17,
                                "order": 17
                            },
                            {
                                "children": [],
                                "depth": 1,
                                "id": 18,
                                "order": 18
                            },
                            {
                                "children": [],
                                "depth": 1,
                                "id": 19,
                                "order": 19
                            },
                            {
                                "children": [],
                                "depth": 1,
                                "id": 20,
                                "order": 20
                            }
                        ],
                        "depth": 0,
                        "id": 0,
                        "order": 0
                    }
                ],
                "depth": -1,
                "id": -1,
                "order": -1
            }
        ],
        "mainTraceNodeCount": 21,
        "parentIdMap": {
            "0": -1,
            "1": 0,
            "10": 0,
            "11": 0,
            "12": 0,
            "13": 0,
            "14": 0,
            "15": 0,
            "16": 0,
            "17": 0,
            "18": 0,
            "19": 0,
            "2": 0,
            "20": 0,
            "3": 0,
            "4": 0,
            "5": 0,
            "6": 0,
            "7": 0,
            "8": 0,
            "9": 0
        },
        "tidyTrace": [
            {
                "children": [
                    {
                        "children": [
                            {
                                "children": [],
                                "depth": 1,
                                "id": 1,
                                "order": 1
                            },
                            {
                                "children": [],
                                "depth": 1,
                                "id": 2,
                                "order": 2
                            },
                            {
                                "children": [],
                                "depth": 1,
                                "id": 3,
                                "order": 3
                            },
                            {
                                "children": [],
                                "depth": 1,
                                "id": 4,
                                "order": 4
                            },
                            {
                                "children": [],
                                "depth": 1,
                                "id": 5,
                                "order": 5
                            },
                            {
                                "children": [],
                                "depth": 1,
                                "id": 6,
                                "order": 6
                            },
                            {
                                "children": [],
                                "depth": 1,
                                "id": 7,
                                "order": 7
                            },
                            {
                                "children": [],
                                "depth": 1,
                                "id": 8,
                                "order": 8
                            },
                            {
                                "children": [],
                                "depth": 1,
                                "id": 9,
                                "order": 9
                            },
                            {
                                "children": [],
                                "depth": 1,
                                "id": 10,
                                "order": 10
                            },
                            {
                                "children": [],
                                "depth": 1,
                                "id": 11,
                                "order": 11
                            },
                            {
                                "children": [],
                                "depth": 1,
                                "id": 12,
                                "order": 12
                            },
                            {
                                "children": [],
                                "depth": 1,
                                "id": 13,
                                "order": 13
                            },
                            {
                                "children": [],
                                "depth": 1,
                                "id": 14,
                                "order": 14
                            },
                            {
                                "children": [],
                                "depth": 1,
                                "id": 15,
                                "order": 15
                            },
                            {
                                "children": [],
                                "depth": 1,
                                "id": 16,
                                "order": 16
                            },
                            {
                                "children": [],
                                "depth": 1,
                                "id": 17,
                                "order": 17
                            },
                            {
                                "children": [],
                                "depth": 1,
                                "id": 18,
                                "order": 18
                            },
                            {
                                "children": [],
                                "depth": 1,
                                "id": 19,
                                "order": 19
                            },
                            {
                                "children": [],
                                "depth": 1,
                                "id": 20,
                                "order": 20
                            }
                        ],
                        "depth": 0,
                        "id": 0,
                        "order": 0
                    }
                ],
                "depth": -1,
                "id": -1,
                "order": -1
            }
        ],
        "tidyTraceNodeCount": 21
    },
    "state_change": {
        "stateChanges": [
            {
                "address": "0x0bb3e1c80c0ffde985fb0ec6392aa18a1d2de40e",
                "erc": "ERC-721",
                "slots": [
                    {
                        "current": "0x000000000000000000000000000000000000000000000000000000000000000c",
                        "key": "0x54522bfa22681367bd9c4a71ddbab674034264d7fe398cdec10ff2b889c26124",
                        "prev": "0x0000000000000000000000000000000000000000000000000000000000000000"
                    },
                    {
                        "current": "0x0000000000000000000000000000000000000000000000000000000000000006",
                        "key": "0x163c82d154a10a62057b1c9d6ce9e9062a20634db05e406da0f255f1702a13b7",
                        "prev": "0x0000000000000000000000000000000000000000000000000000000000000000"
                    },
                    {
                        "current": "0x0000000000000000000000000000000000000000000000000000000000001d93",
                        "key": "0xf3f7a9fe364faab93b216da50a3214154f22a0a2b415b23a84c8169e8b638c75",
                        "prev": "0x0000000000000000000000000000000000000000000000000000000000000000"
                    },
                    {
                        "current": "0x0000000000000000000000000000000000000000000000000000000000000008",
                        "key": "0x229f976f9a4bb88ad419a75b1d2efade6b10d6e6b5b5ff96b80b8a58d6116a23",
                        "prev": "0x0000000000000000000000000000000000000000000000000000000000000000"
                    },
                    {
                        "current": "0x0000000000000000000000000000000000000000000000000000000000001d85",
                        "key": "0xb9a68846c388513bc264b7a9b41a36ac1d544162f88f49200077cb2f1c92b1af",
                        "prev": "0x0000000000000000000000000000000000000000000000000000000000000000"
                    },
                    {
                        "current": "0x00000000000000000000000077424437e320fc70ab04d983e259ca6e6e205c86",
                        "key": "0x9be42ee41f7d2e767b11213595de43a94f4af97b54933d4969ca2d4f465ecd14",
                        "prev": "0x0000000000000000000000000000000000000000000000000000000000000000"
                    },
                    {
                        "current": "0x00000000000000000000000077424437e320fc70ab04d983e259ca6e6e205c86",
                        "key": "0x6265f67b2c0193666835a733a6852296926954ffbde597ae12cbcbd118962daf",
                        "prev": "0x0000000000000000000000000000000000000000000000000000000000000000"
                    },
                    {
                        "current": "0x0000000000000000000000000000000000000000000000000000000000000012",
                        "key": "0x9f6c3a709dac8d836e93577e753bed00c09c88b2391b1903213e9b10aef53f54",
                        "prev": "0x0000000000000000000000000000000000000000000000000000000000000000"
                    },
                    {
                        "current": "0x0000000000000000000000000000000000000000000000000000000000001d8b",
                        "key": "0xc5206f196cb46bcb3cbe70b9f910ee6eccdbb1ceb9dd4dd2a682bee5627bb7b2",
                        "prev": "0x0000000000000000000000000000000000000000000000000000000000000000"
                    },
                    {
                        "current": "0x0000000000000000000000000000000000000000000000000000000000001d85",
                        "key": "0xd265523722070761fab0c228b8f2f93ada2c41c5d206d9f15708d80d37982963",
                        "prev": "0x0000000000000000000000000000000000000000000000000000000000000000"
                    },
                    {
                        "current": "0x0000000000000000000000000000000000000000000000000000000000001d8e",
                        "key": "0x277ccf33f301d52199c772f6f72de7e3f4be38b6cb0b0eedc27614b0545356cf",
                        "prev": "0x0000000000000000000000000000000000000000000000000000000000000000"
                    },
                    {
                        "current": "0x0000000000000000000000000000000000000000000000000000000000001d81",
                        "key": "0xf3f7a9fe364faab93b216da50a3214154f22a0a2b415b23a84c8169e8b638c63",
                        "prev": "0x0000000000000000000000000000000000000000000000000000000000000000"
                    },
                    {
                        "current": "0x0000000000000000000000000000000000000000000000000000000000001d8b",
                        "key": "0xf3f7a9fe364faab93b216da50a3214154f22a0a2b415b23a84c8169e8b638c6d",
                        "prev": "0x0000000000000000000000000000000000000000000000000000000000000000"
                    },
                    {
                        "current": "0x00000000000000000000000077424437e320fc70ab04d983e259ca6e6e205c86",
                        "key": "0xcad44dc2807c1c819b27ad1fbb07e8b1742215df8b1a9c3346d24f92731e4ec5",
                        "prev": "0x0000000000000000000000000000000000000000000000000000000000000000"
                    },
                    {
                        "current": "0x0000000000000000000000000000000000000000000000000000000000001d90",
                        "key": "0xf3f7a9fe364faab93b216da50a3214154f22a0a2b415b23a84c8169e8b638c72",
                        "prev": "0x0000000000000000000000000000000000000000000000000000000000000000"
                    },
                    {
                        "current": "0x00000000000000000000000077424437e320fc70ab04d983e259ca6e6e205c86",
                        "key": "0xa7fd467be63c818c9862a7fa4e5757564d34705b7353165ccbee50f5fc6348f6",
                        "prev": "0x0000000000000000000000000000000000000000000000000000000000000000"
                    },
                    {
                        "current": "0x0000000000000000000000000000000000000000000000000000000000001d94",
                        "key": "0xeec91ec7efd9820788c98499dab6cbc6cdfb73fcbe9156b287454dbe1e9cbbc8",
                        "prev": "0x0000000000000000000000000000000000000000000000000000000000000000"
                    },
                    {
                        "current": "0x0000000000000000000000000000000000000000000000000000000000001d89",
                        "key": "0x30c50117c40905b35577297432527fca58b868f65d0841f0a0a3899399f28b43",
                        "prev": "0x0000000000000000000000000000000000000000000000000000000000000000"
                    },
                    {
                        "current": "0x0000000000000000000000000000000000000000000000000000000000001d88",
                        "key": "0xf3f7a9fe364faab93b216da50a3214154f22a0a2b415b23a84c8169e8b638c6a",
                        "prev": "0x0000000000000000000000000000000000000000000000000000000000000000"
                    },
                    {
                        "current": "0x0000000000000000000000000000000000000000000000000000000000001d86",
                        "key": "0x94f40822b458699c94488510b8ee7051ee5eeb93d8feb645200a87b49f0eea5c",
                        "prev": "0x0000000000000000000000000000000000000000000000000000000000000000"
                    },
                    {
                        "current": "0x0000000000000000000000000000000000000000000000000000000000001d8e",
                        "key": "0xe0665bf6bc95f70dc95d50df86f0ed210f8ff3d5bb214d4525113db2cef0e1aa",
                        "prev": "0x0000000000000000000000000000000000000000000000000000000000000000"
                    },
                    {
                        "current": "0x0000000000000000000000000000000000000000000000000000000000001d82",
                        "key": "0xa9fcbd3018e61edaea6dffb2ca23b59c2f2ccad05efcf8851fad6c96b450c700",
                        "prev": "0x0000000000000000000000000000000000000000000000000000000000000000"
                    },
                    {
                        "current": "0x0000000000000000000000000000000000000000000000000000000000000009",
                        "key": "0xfc260df620eba5e356abe6ee9b109a5c355e24c760ac59329b2979f53f1891c3",
                        "prev": "0x0000000000000000000000000000000000000000000000000000000000000000"
                    },
                    {
                        "current": "0x0000000000000000000000000000000000000000000000000000000000001d90",
                        "key": "0x8763dbb07c35a5f463b51c72f9cab84edcc872bde4c3357ead993ab2a19a409d",
                        "prev": "0x0000000000000000000000000000000000000000000000000000000000000000"
                    },
                    {
                        "current": "0x0000000000000000000000000000000000000000000000000000000000001d8a",
                        "key": "0xf3f7a9fe364faab93b216da50a3214154f22a0a2b415b23a84c8169e8b638c6c",
                        "prev": "0x0000000000000000000000000000000000000000000000000000000000000000"
                    },
                    {
                        "current": "0x0000000000000000000000000000000000000000000000000000000000001d87",
                        "key": "0x563798bba9cbba6a812e36f72add75420ccd0f3a9b44b974d0fc8b79b92209c5",
                        "prev": "0x0000000000000000000000000000000000000000000000000000000000000000"
                    },
                    {
                        "current": "0x0000000000000000000000000000000000000000000000000000000000001d8c",
                        "key": "0x960a097f9d74195f1f40d0662b957f224ebfc92f401e43cd1b572032bca82393",
                        "prev": "0x0000000000000000000000000000000000000000000000000000000000000000"
                    },
                    {
                        "current": "0x00000000000000000000000077424437e320fc70ab04d983e259ca6e6e205c86",
                        "key": "0x66e0517c31619cf4dc09395fe3d67a2cd662e43e3116404efb5d72210b172c39",
                        "prev": "0x0000000000000000000000000000000000000000000000000000000000000000"
                    },
                    {
                        "current": "0x0000000000000000000000000000000000000000000000000000000000000001",
                        "key": "0xc16d20d1c5346d48e246e7aa76074bb749b390d751c0a26b4cac31aa309c647c",
                        "prev": "0x0000000000000000000000000000000000000000000000000000000000000000"
                    },
                    {
                        "current": "0x0000000000000000000000000000000000000000000000000000000000001d8d",
                        "key": "0xf3f7a9fe364faab93b216da50a3214154f22a0a2b415b23a84c8169e8b638c6f",
                        "prev": "0x0000000000000000000000000000000000000000000000000000000000000000"
                    },
                    {
                        "current": "0x0000000000000000000000000000000000000000000000000000000000001d8f",
                        "key": "0xf968b8fc6bb55894f19708154d59e51dd31e016c82b4e2801f13c136afcdafcd",
                        "prev": "0x0000000000000000000000000000000000000000000000000000000000000000"
                    },
                    {
                        "current": "0x00000000000000000000000077424437e320fc70ab04d983e259ca6e6e205c86",
                        "key": "0x11f972771fa9b7e3b38a79573f8afe2aeacb7f6ae7ffdeac02ca75a375a6d3ff",
                        "prev": "0x0000000000000000000000000000000000000000000000000000000000000000"
                    },
                    {
                        "current": "0x0000000000000000000000000000000000000000000000000000000000001d86",
                        "key": "0xdbdef1e6c595163f76536dbf5ed486a63dbdbf539fd190b9bf67e7b33fa403f5",
                        "prev": "0x0000000000000000000000000000000000000000000000000000000000000000"
                    },
                    {
                        "current": "0x0000000000000000000000000000000000000000000000000000000000001d91",
                        "key": "0xf3f7a9fe364faab93b216da50a3214154f22a0a2b415b23a84c8169e8b638c73",
                        "prev": "0x0000000000000000000000000000000000000000000000000000000000000000"
                    },
                    {
                        "current": "0x0000000000000000000000000000000000000000000000000000000000001d90",
                        "key": "0x37e652a611e33c3b28cbd3225d21219e46d08033e5b263f6a178d3301fadb4c5",
                        "prev": "0x0000000000000000000000000000000000000000000000000000000000000000"
                    },
                    {
                        "current": "0x0000000000000000000000000000000000000000000000000000000000001d8f",
                        "key": "0xc04cba685c0d84713fe7d34727124311cd361ec8d8ccfed6743799280d93c76a",
                        "prev": "0x0000000000000000000000000000000000000000000000000000000000000000"
                    },
                    {
                        "current": "0x00000000000000000000000077424437e320fc70ab04d983e259ca6e6e205c86",
                        "key": "0x8f8b35271631c52f7d55d4055455b93e28bf55d332dfd201644ca5bf133b75dd",
                        "prev": "0x0000000000000000000000000000000000000000000000000000000000000000"
                    },
                    {
                        "current": "0x00000000000000000000000077424437e320fc70ab04d983e259ca6e6e205c86",
                        "key": "0xcd961d6431c49a822736f46f6215de7ca9fcf321002cbd40d3bcba5c5b17bb0c",
                        "prev": "0x0000000000000000000000000000000000000000000000000000000000000000"
                    },
                    {
                        "current": "0x0000000000000000000000000000000000000000000000000000000000001d83",
                        "key": "0x57c3fbd3c73844ae700a18ec48c5da2c3e4ab86b653e350cfb6433bacf9cf2d3",
                        "prev": "0x0000000000000000000000000000000000000000000000000000000000000000"
                    },
                    {
                        "current": "0x0000000000000000000000000000000000000000000000000000000000000011",
                        "key": "0x7d957730d000524bc817809299f22dbb8b22ef8bfd042b3dbc3a605ae5337c26",
                        "prev": "0x0000000000000000000000000000000000000000000000000000000000000000"
                    },
                    {
                        "current": "0x0000000000000000000000000000000000000000000000000000000000001d84",
                        "key": "0x5e40e304e2ffea09c5ea801587f653a00684d6519f2ba0af4051a4319a127fd1",
                        "prev": "0x0000000000000000000000000000000000000000000000000000000000000000"
                    },
                    {
                        "current": "0x0000000000000000000000000000000000000000000000000000000000001d83",
                        "key": "0xf3f7a9fe364faab93b216da50a3214154f22a0a2b415b23a84c8169e8b638c65",
                        "prev": "0x0000000000000000000000000000000000000000000000000000000000000000"
                    },
                    {
                        "current": "0x0000000000000000000000000000000000000000000000000000000000001d82",
                        "key": "0xb798ce5350e5b9586b6ef0845cac32f9704e7f1066f61e3d9d317113423c48ed",
                        "prev": "0x0000000000000000000000000000000000000000000000000000000000000000"
                    },
                    {
                        "current": "0x0000000000000000000000000000000000000000000000000000000000000002",
                        "key": "0xa4b363f1ec0fd05d17daff5ba5c06af00ee1713fd6429348e339906ab76d3cc1",
                        "prev": "0x0000000000000000000000000000000000000000000000000000000000000000"
                    },
                    {
                        "current": "0x00000000000000000000000077424437e320fc70ab04d983e259ca6e6e205c86",
                        "key": "0xf248ccc4905a5d8e844aaeaddba3586eccca25bd829d78e450aaf4356b58334f",
                        "prev": "0x0000000000000000000000000000000000000000000000000000000000000000"
                    },
                    {
                        "current": "0x0000000000000000000000000000000000000000000000000000000000001d8d",
                        "key": "0x532421a8773a1595d8c3abbcb4c9063b4f2184899252465214114e7c8d8434ee",
                        "prev": "0x0000000000000000000000000000000000000000000000000000000000000000"
                    },
                    {
                        "current": "0x0000000000000000000000000000000000000000000000000000000000001d8a",
                        "key": "0x80c053fdc2ee7f2944734d5dcccc376a65f2b2bc03ac9ffb9b47a13191161700",
                        "prev": "0x0000000000000000000000000000000000000000000000000000000000000000"
                    },
                    {
                        "current": "0x0000000000000000000000000000000000000000000000000000000000001d85",
                        "key": "0xf3f7a9fe364faab93b216da50a3214154f22a0a2b415b23a84c8169e8b638c67",
                        "prev": "0x0000000000000000000000000000000000000000000000000000000000000000"
                    },
                    {
                        "current": "0x0000000000000000000000000000000000000000000000000000000000000007",
                        "key": "0x58346e4869f3b010f723c7780289661063f9fb85454f692dc04284350d41f3f6",
                        "prev": "0x0000000000000000000000000000000000000000000000000000000000000000"
                    },
                    {
                        "current": "0x0000000000000000000000000000000000000000000000000000000000001d82",
                        "key": "0xf3f7a9fe364faab93b216da50a3214154f22a0a2b415b23a84c8169e8b638c64",
                        "prev": "0x0000000000000000000000000000000000000000000000000000000000000000"
                    },
                    {
                        "current": "0x0000000000000000000000000000000000000000000000000000000000001d93",
                        "key": "0x2fe9ef17cafd53078b095f4f6a1e50d1ae0e72782c6ce4d4be157f3fc8928138",
                        "prev": "0x0000000000000000000000000000000000000000000000000000000000000000"
                    },
                    {
                        "current": "0x00000000000000000000000077424437e320fc70ab04d983e259ca6e6e205c86",
                        "key": "0x2581376394ab5d64e51a773b854673976ad86cf21f9912b98bca1d975fb90453",
                        "prev": "0x0000000000000000000000000000000000000000000000000000000000000000"
                    },
                    {
                        "current": "0x0000000000000000000000000000000000000000000000000000000000001d87",
                        "key": "0x52b877a1839a94def0b719fce79f5c5fe93dc4b3836ddb0288f8c087d19c7746",
                        "prev": "0x0000000000000000000000000000000000000000000000000000000000000000"
                    },
                    {
                        "current": "0x0000000000000000000000000000000000000000000000000000000000000013",
                        "key": "0x214b044c8a03709aeea69135d29001006e61079d9383433dcd253616673fdad0",
                        "prev": "0x0000000000000000000000000000000000000000000000000000000000000000"
                    },
                    {
                        "current": "0x0000000000000000000000000000000000000000000000000000000000001d8c",
                        "key": "0xf3f7a9fe364faab93b216da50a3214154f22a0a2b415b23a84c8169e8b638c6e",
                        "prev": "0x0000000000000000000000000000000000000000000000000000000000000000"
                    },
                    {
                        "current": "0x0000000000000000000000000000000000000000000000000000000000000014",
                        "key": "0x4c82a2ffe2abce6dc8e1cea99dd9f8c3d93f59e3aaf75fc0db87afe8e2961c20",
                        "prev": "0x0000000000000000000000000000000000000000000000000000000000000000"
                    },
                    {
                        "current": "0x000000000000000000000000000000000000000000000000000000000000000b",
                        "key": "0x77f38fe0cc9c7687800819cc29c6b4e3327c3f7346b5cf2e657113f3e0b1a5bb",
                        "prev": "0x0000000000000000000000000000000000000000000000000000000000000000"
                    },
                    {
                        "current": "0x0000000000000000000000000000000000000000000000000000000000001d8c",
                        "key": "0xdf179eb7e5f91ced8d14c3863aa0f926b0b37515069f8434769f0b0761fe3b3b",
                        "prev": "0x0000000000000000000000000000000000000000000000000000000000000000"
                    },
                    {
                        "current": "0x00000000000000000000000077424437e320fc70ab04d983e259ca6e6e205c86",
                        "key": "0xd3057c19a6002aa885dd3c0f5f917beb1484121f87ac03edba9aa9c4c213c54e",
                        "prev": "0x0000000000000000000000000000000000000000000000000000000000000000"
                    },
                    {
                        "current": "0x0000000000000000000000000000000000000000000000000000000000001d8a",
                        "key": "0xab26863ce88abfadfc740c596e9282448972af7103e312ffd31df8103e2715f7",
                        "prev": "0x0000000000000000000000000000000000000000000000000000000000000000"
                    },
                    {
                        "current": "0x00000000000000000000000077424437e320fc70ab04d983e259ca6e6e205c86",
                        "key": "0x6204234d6e44bbd616a387c5529583f1190ebf8cdbbb594237be5076a7fef8fb",
                        "prev": "0x0000000000000000000000000000000000000000000000000000000000000000"
                    },
                    {
                        "current": "0x00000000000000000000000077424437e320fc70ab04d983e259ca6e6e205c86",
                        "key": "0x69def9bc0552c39c04693f6ff5101cc4e6d6fe32e5328008c1e9d94d418ce43b",
                        "prev": "0x0000000000000000000000000000000000000000000000000000000000000000"
                    },
                    {
                        "current": "0x0000000000000000000000000000000000000000000000000000000000001d81",
                        "key": "0x95a63af4292d2cab9c57375f5b4978a83380c446fb14ef90cda16ca812347a4d",
                        "prev": "0x0000000000000000000000000000000000000000000000000000000000000000"
                    },
                    {
                        "current": "0x0000000000000000000000000000000000000000000000000000000000000003",
                        "key": "0x72469159108b50c29609b6bb51279b24f415d33aa092cef97ce771065cbb3a55",
                        "prev": "0x0000000000000000000000000000000000000000000000000000000000000000"
                    },
                    {
                        "current": "0x000000000000000000000000000000000000000000000000000000000000000f",
                        "key": "0xebf83a2c7736934aa90b7167c4a7f8aaa8e3871b623c231443253dee9888ead1",
                        "prev": "0x0000000000000000000000000000000000000000000000000000000000000000"
                    },
                    {
                        "current": "0x0000000000000000000000000000000000000000000000000000000000001d92",
                        "key": "0xf3f7a9fe364faab93b216da50a3214154f22a0a2b415b23a84c8169e8b638c74",
                        "prev": "0x0000000000000000000000000000000000000000000000000000000000000000"
                    },
                    {
                        "current": "0x0000000000000000000000000000000000000000000000000000000000001d86",
                        "key": "0xf3f7a9fe364faab93b216da50a3214154f22a0a2b415b23a84c8169e8b638c68",
                        "prev": "0x0000000000000000000000000000000000000000000000000000000000000000"
                    },
                    {
                        "current": "0x0000000000000000000000000000000000000000000000000000000000000010",
                        "key": "0x95bc41769bc73169d54d0b093b00744f2c3044403cde2b1885f2b81f6ffa241a",
                        "prev": "0x0000000000000000000000000000000000000000000000000000000000000000"
                    },
                    {
                        "current": "0x0000000000000000000000000000000000000000000000000000000000001d8e",
                        "key": "0xf3f7a9fe364faab93b216da50a3214154f22a0a2b415b23a84c8169e8b638c70",
                        "prev": "0x0000000000000000000000000000000000000000000000000000000000000000"
                    },
                    {
                        "current": "0x0000000000000000000000000000000000000000000000000000000000000004",
                        "key": "0x4f0c65186001987aa0bb7c459cbfd1fa86906177e1a5e983f2e222028c0b9fdf",
                        "prev": "0x0000000000000000000000000000000000000000000000000000000000000000"
                    },
                    {
                        "current": "0x00000000000000000000000077424437e320fc70ab04d983e259ca6e6e205c86",
                        "key": "0xa8ea42af6efbadcc29e057b74efb8998a5b62a9e6ed66f481c6249beed63810e",
                        "prev": "0x0000000000000000000000000000000000000000000000000000000000000000"
                    },
                    {
                        "current": "0x0000000000000000000000000000000000000000000000000000000000001d83",
                        "key": "0x7694f451a806372deb9d2e4667eab824dd3866d206a808e35640304a74efa2eb",
                        "prev": "0x0000000000000000000000000000000000000000000000000000000000000000"
                    },
                    {
                        "current": "0x000000000000000000000000000000000000000000000000000000000000000e",
                        "key": "0x67d055de6edcc15386e691244433a4ef4166275e4dbb603035afa975be2e8ff1",
                        "prev": "0x0000000000000000000000000000000000000000000000000000000000000000"
                    },
                    {
                        "current": "0x0000000000000000000000000000000000000000000000000000000000000005",
                        "key": "0xba0b531281846fef7095ba02f57e23a430e93ac455d9f287b89fc6a2ca647123",
                        "prev": "0x0000000000000000000000000000000000000000000000000000000000000000"
                    },
                    {
                        "current": "0x0000000000000000000000000000000000000000000000000000000000001d84",
                        "key": "0xf3f7a9fe364faab93b216da50a3214154f22a0a2b415b23a84c8169e8b638c66",
                        "prev": "0x0000000000000000000000000000000000000000000000000000000000000000"
                    },
                    {
                        "current": "0x0000000000000000000000000000000000000000000000000000000000001d92",
                        "key": "0xd64b04c203e79bbc27d4a1a937c3346ac5b67536d2a5a2e4948ab3ba375dbc0c",
                        "prev": "0x0000000000000000000000000000000000000000000000000000000000000000"
                    },
                    {
                        "current": "0x0000000000000000000000000000000000000000000000000000000000001d94",
                        "key": "0x0000000000000000000000000000000000000000000000000000000000000008",
                        "prev": "0x0000000000000000000000000000000000000000000000000000000000001d80"
                    },
                    {
                        "current": "0x0000000000000000000000000000000000000000000000000000000000001d94",
                        "key": "0xf3f7a9fe364faab93b216da50a3214154f22a0a2b415b23a84c8169e8b638c76",
                        "prev": "0x0000000000000000000000000000000000000000000000000000000000000000"
                    },
                    {
                        "current": "0x0000000000000000000000000000000000000000000000000000000000001d92",
                        "key": "0xdbe67ffa751a71e63c79b962f605e6e8fe1f41bbf0824463cdf8fcff258630ea",
                        "prev": "0x0000000000000000000000000000000000000000000000000000000000000000"
                    },
                    {
                        "current": "0x00000000000000000000000077424437e320fc70ab04d983e259ca6e6e205c86",
                        "key": "0x261004930f18d528559e514338cf3bd0023e8aa7ca6603fd1c69a77ae835f492",
                        "prev": "0x0000000000000000000000000000000000000000000000000000000000000000"
                    },
                    {
                        "current": "0x00000000000000000000000077424437e320fc70ab04d983e259ca6e6e205c86",
                        "key": "0x054fe8bb3b9d49b16f64da84b883bb2657a862a6784bf1a053ce64baab1d80e7",
                        "prev": "0x0000000000000000000000000000000000000000000000000000000000000000"
                    },
                    {
                        "current": "0x0000000000000000000000000000000000000000000000000000000000001d91",
                        "key": "0xb5151c33bf2a575567e9604283248ca7690a694f1555c09f0c5e552b38700e84",
                        "prev": "0x0000000000000000000000000000000000000000000000000000000000000000"
                    },
                    {
                        "current": "0x0000000000000000000000000000000000000000000000000000000000001d8d",
                        "key": "0xbfa1f3d6ce0d9c9a88be95eb4db4d3841a662a933d89350ba25a020cc051ea71",
                        "prev": "0x0000000000000000000000000000000000000000000000000000000000000000"
                    },
                    {
                        "current": "0x000000000000000000000000000000000000000000000000000000000000000d",
                        "key": "0x0259eb831a7985ae58a3066f07576f4dc692c7c1984bb6f85574c4e759536135",
                        "prev": "0x0000000000000000000000000000000000000000000000000000000000000000"
                    },
                    {
                        "current": "0x0000000000000000000000000000000000000000000000000000000000001d8b",
                        "key": "0x81232979316db65f0635fb40771372e23c840ef4a8738a6309aba536b0e16d9d",
                        "prev": "0x0000000000000000000000000000000000000000000000000000000000000000"
                    },
                    {
                        "current": "0x000000000000000000000000000000000000000000000000000000000000000a",
                        "key": "0x02edf9697df5aff3260dc7665189c4fc05169448cbea516935537039933cb62b",
                        "prev": "0x0000000000000000000000000000000000000000000000000000000000000000"
                    },
                    {
                        "current": "0x00000000000000000000000077424437e320fc70ab04d983e259ca6e6e205c86",
                        "key": "0x309f52e278978388bee8656b95c973988019639b977198e5697ea02f97cb5e93",
                        "prev": "0x0000000000000000000000000000000000000000000000000000000000000000"
                    },
                    {
                        "current": "0x0000000000000000000000000000000000000000000000000000000000001d88",
                        "key": "0xb482addfcf207a509d3313b2d0252b01ce265f0312e1dfbd9413677055915028",
                        "prev": "0x0000000000000000000000000000000000000000000000000000000000000000"
                    },
                    {
                        "current": "0x0000000000000000000000000000000000000000000000000000000000001d84",
                        "key": "0x0dfb0556df57bdbf89ed011363f9310d908836ae41227fb7d5c36acfa75e5e15",
                        "prev": "0x0000000000000000000000000000000000000000000000000000000000000000"
                    },
                    {
                        "current": "0x00000000000000000000000077424437e320fc70ab04d983e259ca6e6e205c86",
                        "key": "0x23acf14555f1eeaf05c6debc7b12d65fb22a96414e5a1302811ac13db1062bc1",
                        "prev": "0x0000000000000000000000000000000000000000000000000000000000000000"
                    },
                    {
                        "current": "0x0000000000000000000000000000000000000000000000000000000000001d88",
                        "key": "0x7b8f17432d390812dde7a253f396b6767ae9c4624e226817b5b448d702bc05a2",
                        "prev": "0x0000000000000000000000000000000000000000000000000000000000000000"
                    },
                    {
                        "current": "0x0000000000000000000000000000000000000000000000000000000000001d80",
                        "key": "0xbf39bf92d174d2a7aeb8a6106bfbf09ed88861c62bdd31c37b52393d6d3e9ee7",
                        "prev": "0x0000000000000000000000000000000000000000000000000000000000000000"
                    },
                    {
                        "current": "0x0000000000000000000000000000000000000000000000000000000000001d81",
                        "key": "0x709bc57ab0811d10612951b4e9cdc38f8b3a6f0f7548412d01e96421bb78e5f8",
                        "prev": "0x0000000000000000000000000000000000000000000000000000000000000000"
                    },
                    {
                        "current": "0x00000000000000000000000077424437e320fc70ab04d983e259ca6e6e205c86",
                        "key": "0xd0a465354e6eff584734de6b7f0b09d86ebb5d4dd0b2ba8940735960ac219dab",
                        "prev": "0x0000000000000000000000000000000000000000000000000000000000000000"
                    },
                    {
                        "current": "0x0000000000000000000000000000000000000000000000000000000000001d91",
                        "key": "0xf6d5b4cb8fbf7f0e30c867a1e1ca8bada579dc277904e365c57fb883210ff10a",
                        "prev": "0x0000000000000000000000000000000000000000000000000000000000000000"
                    },
                    {
                        "current": "0x0000000000000000000000000000000000000000000000000000000000001d87",
                        "key": "0xf3f7a9fe364faab93b216da50a3214154f22a0a2b415b23a84c8169e8b638c69",
                        "prev": "0x0000000000000000000000000000000000000000000000000000000000000000"
                    },
                    {
                        "current": "0x0000000000000000000000000000000000000000000000000000000000001d89",
                        "key": "0xf3f7a9fe364faab93b216da50a3214154f22a0a2b415b23a84c8169e8b638c6b",
                        "prev": "0x0000000000000000000000000000000000000000000000000000000000000000"
                    },
                    {
                        "current": "0x0000000000000000000000000000000000000000000000000000000000001d89",
                        "key": "0xfda88059e314453ce52c23d75a246d555f4226d8b0e0cdc0b8ab53f5b47cb190",
                        "prev": "0x0000000000000000000000000000000000000000000000000000000000000000"
                    },
                    {
                        "current": "0x0000000000000000000000000000000000000000000000000000000000001d93",
                        "key": "0xc9b1fdbfe25f28d4be0fc0429782bcd690d9656cb260105c56879290db7686a6",
                        "prev": "0x0000000000000000000000000000000000000000000000000000000000000000"
                    },
                    {
                        "current": "0x0000000000000000000000000000000000000000000000000000000000001d8f",
                        "key": "0xf3f7a9fe364faab93b216da50a3214154f22a0a2b415b23a84c8169e8b638c71",
                        "prev": "0x0000000000000000000000000000000000000000000000000000000000000000"
                    },
                    {
                        "current": "0x00000000000000000000000077424437e320fc70ab04d983e259ca6e6e205c86",
                        "key": "0x9d2e11529632b0949f828bf41dff0e0a179716a27864cafc447c699f71d58cf6",
                        "prev": "0x0000000000000000000000000000000000000000000000000000000000000000"
                    }
                ],
                "storageVariables": [
                    {
                        "name": "_ownedTokens",
                        "type": "mapping(address => mapping(uint256 => uint256))",
                        "value": {
                            "pairs": [
                                {
                                    "key": "0x77424437e320fc70ab04d983e259ca6e6e205c86",
                                    "value": {
                                        "pairs": [
                                            {
                                                "key": "0",
                                                "value": {
                                                    "current": "7553",
                                                    "prev": "0",
                                                    "typeTag": 1
                                                }
                                            },
                                            {
                                                "key": "1",
                                                "value": {
                                                    "current": "7554",
                                                    "prev": "0",
                                                    "typeTag": 1
                                                }
                                            },
                                            {
                                                "key": "10",
                                                "value": {
                                                    "current": "7563",
                                                    "prev": "0",
                                                    "typeTag": 1
                                                }
                                            },
                                            {
                                                "key": "11",
                                                "value": {
                                                    "current": "7564",
                                                    "prev": "0",
                                                    "typeTag": 1
                                                }
                                            },
                                            {
                                                "key": "12",
                                                "value": {
                                                    "current": "7565",
                                                    "prev": "0",
                                                    "typeTag": 1
                                                }
                                            },
                                            {
                                                "key": "13",
                                                "value": {
                                                    "current": "7566",
                                                    "prev": "0",
                                                    "typeTag": 1
                                                }
                                            },
                                            {
                                                "key": "14",
                                                "value": {
                                                    "current": "7567",
                                                    "prev": "0",
                                                    "typeTag": 1
                                                }
                                            },
                                            {
                                                "key": "15",
                                                "value": {
                                                    "current": "7568",
                                                    "prev": "0",
                                                    "typeTag": 1
                                                }
                                            },
                                            {
                                                "key": "16",
                                                "value": {
                                                    "current": "7569",
                                                    "prev": "0",
                                                    "typeTag": 1
                                                }
                                            },
                                            {
                                                "key": "17",
                                                "value": {
                                                    "current": "7570",
                                                    "prev": "0",
                                                    "typeTag": 1
                                                }
                                            },
                                            {
                                                "key": "18",
                                                "value": {
                                                    "current": "7571",
                                                    "prev": "0",
                                                    "typeTag": 1
                                                }
                                            },
                                            {
                                                "key": "19",
                                                "value": {
                                                    "current": "7572",
                                                    "prev": "0",
                                                    "typeTag": 1
                                                }
                                            },
                                            {
                                                "key": "2",
                                                "value": {
                                                    "current": "7555",
                                                    "prev": "0",
                                                    "typeTag": 1
                                                }
                                            },
                                            {
                                                "key": "3",
                                                "value": {
                                                    "current": "7556",
                                                    "prev": "0",
                                                    "typeTag": 1
                                                }
                                            },
                                            {
                                                "key": "4",
                                                "value": {
                                                    "current": "7557",
                                                    "prev": "0",
                                                    "typeTag": 1
                                                }
                                            },
                                            {
                                                "key": "5",
                                                "value": {
                                                    "current": "7558",
                                                    "prev": "0",
                                                    "typeTag": 1
                                                }
                                            },
                                            {
                                                "key": "6",
                                                "value": {
                                                    "current": "7559",
                                                    "prev": "0",
                                                    "typeTag": 1
                                                }
                                            },
                                            {
                                                "key": "7",
                                                "value": {
                                                    "current": "7560",
                                                    "prev": "0",
                                                    "typeTag": 1
                                                }
                                            },
                                            {
                                                "key": "8",
                                                "value": {
                                                    "current": "7561",
                                                    "prev": "0",
                                                    "typeTag": 1
                                                }
                                            },
                                            {
                                                "key": "9",
                                                "value": {
                                                    "current": "7562",
                                                    "prev": "0",
                                                    "typeTag": 1
                                                }
                                            }
                                        ],
                                        "typeTag": 4
                                    }
                                }
                            ],
                            "typeTag": 4
                        }
                    },
                    {
                        "name": "_owners",
                        "type": "mapping(uint256 => address)",
                        "value": {
                            "pairs": [
                                {
                                    "key": "7553",
                                    "value": {
                                        "current": "0x77424437e320fc70ab04d983e259ca6e6e205c86",
                                        "prev": "0x0000000000000000000000000000000000000000",
                                        "typeTag": 1
                                    }
                                },
                                {
                                    "key": "7554",
                                    "value": {
                                        "current": "0x77424437e320fc70ab04d983e259ca6e6e205c86",
                                        "prev": "0x0000000000000000000000000000000000000000",
                                        "typeTag": 1
                                    }
                                },
                                {
                                    "key": "7555",
                                    "value": {
                                        "current": "0x77424437e320fc70ab04d983e259ca6e6e205c86",
                                        "prev": "0x0000000000000000000000000000000000000000",
                                        "typeTag": 1
                                    }
                                },
                                {
                                    "key": "7556",
                                    "value": {
                                        "current": "0x77424437e320fc70ab04d983e259ca6e6e205c86",
                                        "prev": "0x0000000000000000000000000000000000000000",
                                        "typeTag": 1
                                    }
                                },
                                {
                                    "key": "7557",
                                    "value": {
                                        "current": "0x77424437e320fc70ab04d983e259ca6e6e205c86",
                                        "prev": "0x0000000000000000000000000000000000000000",
                                        "typeTag": 1
                                    }
                                },
                                {
                                    "key": "7558",
                                    "value": {
                                        "current": "0x77424437e320fc70ab04d983e259ca6e6e205c86",
                                        "prev": "0x0000000000000000000000000000000000000000",
                                        "typeTag": 1
                                    }
                                },
                                {
                                    "key": "7559",
                                    "value": {
                                        "current": "0x77424437e320fc70ab04d983e259ca6e6e205c86",
                                        "prev": "0x0000000000000000000000000000000000000000",
                                        "typeTag": 1
                                    }
                                },
                                {
                                    "key": "7560",
                                    "value": {
                                        "current": "0x77424437e320fc70ab04d983e259ca6e6e205c86",
                                        "prev": "0x0000000000000000000000000000000000000000",
                                        "typeTag": 1
                                    }
                                },
                                {
                                    "key": "7561",
                                    "value": {
                                        "current": "0x77424437e320fc70ab04d983e259ca6e6e205c86",
                                        "prev": "0x0000000000000000000000000000000000000000",
                                        "typeTag": 1
                                    }
                                },
                                {
                                    "key": "7562",
                                    "value": {
                                        "current": "0x77424437e320fc70ab04d983e259ca6e6e205c86",
                                        "prev": "0x0000000000000000000000000000000000000000",
                                        "typeTag": 1
                                    }
                                },
                                {
                                    "key": "7563",
                                    "value": {
                                        "current": "0x77424437e320fc70ab04d983e259ca6e6e205c86",
                                        "prev": "0x0000000000000000000000000000000000000000",
                                        "typeTag": 1
                                    }
                                },
                                {
                                    "key": "7564",
                                    "value": {
                                        "current": "0x77424437e320fc70ab04d983e259ca6e6e205c86",
                                        "prev": "0x0000000000000000000000000000000000000000",
                                        "typeTag": 1
                                    }
                                },
                                {
                                    "key": "7565",
                                    "value": {
                                        "current": "0x77424437e320fc70ab04d983e259ca6e6e205c86",
                                        "prev": "0x0000000000000000000000000000000000000000",
                                        "typeTag": 1
                                    }
                                },
                                {
                                    "key": "7566",
                                    "value": {
                                        "current": "0x77424437e320fc70ab04d983e259ca6e6e205c86",
                                        "prev": "0x0000000000000000000000000000000000000000",
                                        "typeTag": 1
                                    }
                                },
                                {
                                    "key": "7567",
                                    "value": {
                                        "current": "0x77424437e320fc70ab04d983e259ca6e6e205c86",
                                        "prev": "0x0000000000000000000000000000000000000000",
                                        "typeTag": 1
                                    }
                                },
                                {
                                    "key": "7568",
                                    "value": {
                                        "current": "0x77424437e320fc70ab04d983e259ca6e6e205c86",
                                        "prev": "0x0000000000000000000000000000000000000000",
                                        "typeTag": 1
                                    }
                                },
                                {
                                    "key": "7569",
                                    "value": {
                                        "current": "0x77424437e320fc70ab04d983e259ca6e6e205c86",
                                        "prev": "0x0000000000000000000000000000000000000000",
                                        "typeTag": 1
                                    }
                                },
                                {
                                    "key": "7570",
                                    "value": {
                                        "current": "0x77424437e320fc70ab04d983e259ca6e6e205c86",
                                        "prev": "0x0000000000000000000000000000000000000000",
                                        "typeTag": 1
                                    }
                                },
                                {
                                    "key": "7571",
                                    "value": {
                                        "current": "0x77424437e320fc70ab04d983e259ca6e6e205c86",
                                        "prev": "0x0000000000000000000000000000000000000000",
                                        "typeTag": 1
                                    }
                                },
                                {
                                    "key": "7572",
                                    "value": {
                                        "current": "0x77424437e320fc70ab04d983e259ca6e6e205c86",
                                        "prev": "0x0000000000000000000000000000000000000000",
                                        "typeTag": 1
                                    }
                                }
                            ],
                            "typeTag": 4
                        }
                    },
                    {
                        "name": "_ownedTokensIndex",
                        "type": "mapping(uint256 => uint256)",
                        "value": {
                            "pairs": [
                                {
                                    "key": "7554",
                                    "value": {
                                        "current": "1",
                                        "prev": "0",
                                        "typeTag": 1
                                    }
                                },
                                {
                                    "key": "7555",
                                    "value": {
                                        "current": "2",
                                        "prev": "0",
                                        "typeTag": 1
                                    }
                                },
                                {
                                    "key": "7556",
                                    "value": {
                                        "current": "3",
                                        "prev": "0",
                                        "typeTag": 1
                                    }
                                },
                                {
                                    "key": "7557",
                                    "value": {
                                        "current": "4",
                                        "prev": "0",
                                        "typeTag": 1
                                    }
                                },
                                {
                                    "key": "7558",
                                    "value": {
                                        "current": "5",
                                        "prev": "0",
                                        "typeTag": 1
                                    }
                                },
                                {
                                    "key": "7559",
                                    "value": {
                                        "current": "6",
                                        "prev": "0",
                                        "typeTag": 1
                                    }
                                },
                                {
                                    "key": "7560",
                                    "value": {
                                        "current": "7",
                                        "prev": "0",
                                        "typeTag": 1
                                    }
                                },
                                {
                                    "key": "7561",
                                    "value": {
                                        "current": "8",
                                        "prev": "0",
                                        "typeTag": 1
                                    }
                                },
                                {
                                    "key": "7562",
                                    "value": {
                                        "current": "9",
                                        "prev": "0",
                                        "typeTag": 1
                                    }
                                },
                                {
                                    "key": "7563",
                                    "value": {
                                        "current": "10",
                                        "prev": "0",
                                        "typeTag": 1
                                    }
                                },
                                {
                                    "key": "7564",
                                    "value": {
                                        "current": "11",
                                        "prev": "0",
                                        "typeTag": 1
                                    }
                                },
                                {
                                    "key": "7565",
                                    "value": {
                                        "current": "12",
                                        "prev": "0",
                                        "typeTag": 1
                                    }
                                },
                                {
                                    "key": "7566",
                                    "value": {
                                        "current": "13",
                                        "prev": "0",
                                        "typeTag": 1
                                    }
                                },
                                {
                                    "key": "7567",
                                    "value": {
                                        "current": "14",
                                        "prev": "0",
                                        "typeTag": 1
                                    }
                                },
                                {
                                    "key": "7568",
                                    "value": {
                                        "current": "15",
                                        "prev": "0",
                                        "typeTag": 1
                                    }
                                },
                                {
                                    "key": "7569",
                                    "value": {
                                        "current": "16",
                                        "prev": "0",
                                        "typeTag": 1
                                    }
                                },
                                {
                                    "key": "7570",
                                    "value": {
                                        "current": "17",
                                        "prev": "0",
                                        "typeTag": 1
                                    }
                                },
                                {
                                    "key": "7571",
                                    "value": {
                                        "current": "18",
                                        "prev": "0",
                                        "typeTag": 1
                                    }
                                },
                                {
                                    "key": "7572",
                                    "value": {
                                        "current": "19",
                                        "prev": "0",
                                        "typeTag": 1
                                    }
                                }
                            ],
                            "typeTag": 4
                        }
                    },
                    {
                        "name": "_allTokensIndex",
                        "type": "mapping(uint256 => uint256)",
                        "value": {
                            "pairs": [
                                {
                                    "key": "7553",
                                    "value": {
                                        "current": "7552",
                                        "prev": "0",
                                        "typeTag": 1
                                    }
                                },
                                {
                                    "key": "7554",
                                    "value": {
                                        "current": "7553",
                                        "prev": "0",
                                        "typeTag": 1
                                    }
                                },
                                {
                                    "key": "7555",
                                    "value": {
                                        "current": "7554",
                                        "prev": "0",
                                        "typeTag": 1
                                    }
                                },
                                {
                                    "key": "7556",
                                    "value": {
                                        "current": "7555",
                                        "prev": "0",
                                        "typeTag": 1
                                    }
                                },
                                {
                                    "key": "7557",
                                    "value": {
                                        "current": "7556",
                                        "prev": "0",
                                        "typeTag": 1
                                    }
                                },
                                {
                                    "key": "7558",
                                    "value": {
                                        "current": "7557",
                                        "prev": "0",
                                        "typeTag": 1
                                    }
                                },
                                {
                                    "key": "7559",
                                    "value": {
                                        "current": "7558",
                                        "prev": "0",
                                        "typeTag": 1
                                    }
                                },
                                {
                                    "key": "7560",
                                    "value": {
                                        "current": "7559",
                                        "prev": "0",
                                        "typeTag": 1
                                    }
                                },
                                {
                                    "key": "7561",
                                    "value": {
                                        "current": "7560",
                                        "prev": "0",
                                        "typeTag": 1
                                    }
                                },
                                {
                                    "key": "7562",
                                    "value": {
                                        "current": "7561",
                                        "prev": "0",
                                        "typeTag": 1
                                    }
                                },
                                {
                                    "key": "7563",
                                    "value": {
                                        "current": "7562",
                                        "prev": "0",
                                        "typeTag": 1
                                    }
                                },
                                {
                                    "key": "7564",
                                    "value": {
                                        "current": "7563",
                                        "prev": "0",
                                        "typeTag": 1
                                    }
                                },
                                {
                                    "key": "7565",
                                    "value": {
                                        "current": "7564",
                                        "prev": "0",
                                        "typeTag": 1
                                    }
                                },
                                {
                                    "key": "7566",
                                    "value": {
                                        "current": "7565",
                                        "prev": "0",
                                        "typeTag": 1
                                    }
                                },
                                {
                                    "key": "7567",
                                    "value": {
                                        "current": "7566",
                                        "prev": "0",
                                        "typeTag": 1
                                    }
                                },
                                {
                                    "key": "7568",
                                    "value": {
                                        "current": "7567",
                                        "prev": "0",
                                        "typeTag": 1
                                    }
                                },
                                {
                                    "key": "7569",
                                    "value": {
                                        "current": "7568",
                                        "prev": "0",
                                        "typeTag": 1
                                    }
                                },
                                {
                                    "key": "7570",
                                    "value": {
                                        "current": "7569",
                                        "prev": "0",
                                        "typeTag": 1
                                    }
                                },
                                {
                                    "key": "7571",
                                    "value": {
                                        "current": "7570",
                                        "prev": "0",
                                        "typeTag": 1
                                    }
                                },
                                {
                                    "key": "7572",
                                    "value": {
                                        "current": "7571",
                                        "prev": "0",
                                        "typeTag": 1
                                    }
                                }
                            ],
                            "typeTag": 4
                        }
                    },
                    {
                        "name": "_allTokens",
                        "type": "uint256[]",
                        "value": {
                            "elemType": "uint256",
                            "elems": [
                                {
                                    "index": 7552,
                                    "value": {
                                        "current": "7553",
                                        "prev": "0",
                                        "typeTag": 1
                                    }
                                },
                                {
                                    "index": 7553,
                                    "value": {
                                        "current": "7554",
                                        "prev": "0",
                                        "typeTag": 1
                                    }
                                },
                                {
                                    "index": 7554,
                                    "value": {
                                        "current": "7555",
                                        "prev": "0",
                                        "typeTag": 1
                                    }
                                },
                                {
                                    "index": 7555,
                                    "value": {
                                        "current": "7556",
                                        "prev": "0",
                                        "typeTag": 1
                                    }
                                },
                                {
                                    "index": 7556,
                                    "value": {
                                        "current": "7557",
                                        "prev": "0",
                                        "typeTag": 1
                                    }
                                },
                                {
                                    "index": 7557,
                                    "value": {
                                        "current": "7558",
                                        "prev": "0",
                                        "typeTag": 1
                                    }
                                },
                                {
                                    "index": 7558,
                                    "value": {
                                        "current": "7559",
                                        "prev": "0",
                                        "typeTag": 1
                                    }
                                },
                                {
                                    "index": 7559,
                                    "value": {
                                        "current": "7560",
                                        "prev": "0",
                                        "typeTag": 1
                                    }
                                },
                                {
                                    "index": 7560,
                                    "value": {
                                        "current": "7561",
                                        "prev": "0",
                                        "typeTag": 1
                                    }
                                },
                                {
                                    "index": 7561,
                                    "value": {
                                        "current": "7562",
                                        "prev": "0",
                                        "typeTag": 1
                                    }
                                },
                                {
                                    "index": 7562,
                                    "value": {
                                        "current": "7563",
                                        "prev": "0",
                                        "typeTag": 1
                                    }
                                },
                                {
                                    "index": 7563,
                                    "value": {
                                        "current": "7564",
                                        "prev": "0",
                                        "typeTag": 1
                                    }
                                },
                                {
                                    "index": 7564,
                                    "value": {
                                        "current": "7565",
                                        "prev": "0",
                                        "typeTag": 1
                                    }
                                },
                                {
                                    "index": 7565,
                                    "value": {
                                        "current": "7566",
                                        "prev": "0",
                                        "typeTag": 1
                                    }
                                },
                                {
                                    "index": 7566,
                                    "value": {
                                        "current": "7567",
                                        "prev": "0",
                                        "typeTag": 1
                                    }
                                },
                                {
                                    "index": 7567,
                                    "value": {
                                        "current": "7568",
                                        "prev": "0",
                                        "typeTag": 1
                                    }
                                },
                                {
                                    "index": 7568,
                                    "value": {
                                        "current": "7569",
                                        "prev": "0",
                                        "typeTag": 1
                                    }
                                },
                                {
                                    "index": 7569,
                                    "value": {
                                        "current": "7570",
                                        "prev": "0",
                                        "typeTag": 1
                                    }
                                },
                                {
                                    "index": 7570,
                                    "value": {
                                        "current": "7571",
                                        "prev": "0",
                                        "typeTag": 1
                                    }
                                },
                                {
                                    "index": 7571,
                                    "value": {
                                        "current": "7572",
                                        "prev": "0",
                                        "typeTag": 1
                                    }
                                }
                            ],
                            "typeTag": 2
                        }
                    },
                    {
                        "name": "_balances",
                        "type": "mapping(address => uint256)",
                        "value": {
                            "pairs": [
                                {
                                    "key": "0x77424437e320fc70ab04d983e259ca6e6e205c86",
                                    "value": {
                                        "current": "20",
                                        "prev": "0",
                                        "typeTag": 1
                                    }
                                }
                            ],
                            "typeTag": 4
                        }
                    }
                ]
            }
        ]
    }
}