{
    "balance_change": {
        "balanceChanges": [
            {
                "account": "0x5342e54d6b5554e5cf2b82286b257fb637e70ce1",
                "assets": [
                    {
                        "address": "0x0d8775f648430679a709e98d2b0cb6250d2887ef",
                        "amount": "29.75",
                        "iconUrl": "https://assets.blocksec.com/icon/c5e7cd8dfdc41ede0b39a767b7a8b9ac3f98749148ad9c0ffe838d1ca4891ff1.png",
                        "isERC1155": false,
                        "isERC721": false,
                        "sign": false,
                        "value": ""
                    }
                ]
            },
            {
                "account": "0x075af08596c26a81384e1f06757f96c96bb1e896",
                "assets": [
                    {
                        "address": "0x0d8775f648430679a709e98d2b0cb6250d2887ef",
                        "amount": "29.75",
                        "iconUrl": "https://assets.blocksec.com/icon/c5e7cd8dfdc41ede0b39a767b7a8b9ac3f98749148ad9c0ffe838d1ca4891ff1.png",
                        "isERC1155": false,
                        "isERC721": false,
                        "sign": true,
                        "value": ""
                    }
                ]
            }
        ]
    },
    "profile": {
        "basic_info": {
            "baseFee": "",
            "blockNumber": 8114467,
            "callData": "0xa10d09600000000000000000000000000d8775f648430679a709e98d2b0cb6250d2887ef0000000000000000000000000000000000000000000000019cdd3b60b3df00000000000000000000000000000000000000000000000000000000000000000060000000000000000000000000000000000000000000000000000000000000000941726966756c3232310000000000000000000000000000000000000000000000",
            "debugEnable": true,
            "errorInfo": "",
            "eventCount": 2,
            "feeRecipient": "0x829bd824b016326a401d083b33d092293333a830",
            "formatValue": "0",
            "gasLimit": 100000,
            "gasPrice": "4.51",
            "gasUsed": 27069,
            "intTxnCount": 1,
            "internalRevert": false,
            "internalRevertMessage": "",
            "isContractCreation": false,
            "isFlashloan": false,
            "maxFee": "",
            "nonce": 40,
            "overwritedBlockNumber": -1,
            "priorityFee": "",
            "receiver": "0x075af08596c26a81384e1f06757f96c96bb1e896",
            "revertMessage": "",
            "sender": "0x5342e54d6b5554e5cf2b82286b257fb637e70ce1",
            "simulationEnable": true,
            "sourceTxnHash": "0xd38d5a9ac94bc875595aa2a3eab833ed8f7ab4bb983251769586bcac897634c9",
            "status": true,
            "timestamp": "2019-07-09T02:48:43Z",
            "transactionFee": "0.00012208119",
            "txnHash": "0xd38d5a9ac94bc875595aa2a3eab833ed8f7ab4bb983251769586bcac897634c9",
            "txnIndex": 98,
            "type": 0,
            "value": "0"
        },
        "fund_flow": [
            {
                "amount": "29.75",
                "from": "0x5342e54d6b5554e5cf2b82286b257fb637e70ce1",
                "id": 1,
                "isERC1155": false,
                "isERC721": false,
                "isReverted": false,
                "order": 1,
                "to": "0x075af08596c26a81384e1f06757f96c96bb1e896",
                "token": "0x0d8775f648430679a709e98d2b0cb6250d2887ef"
            }
        ],
        "token_infos": [
            {
                "address": "0xc02aaa39b223fe8d0a0e5c4f27ead9083c756cc2",
                "decimals": 18
            },
            {
                "address": "0xeeeeeeeeeeeeeeeeeeeeeeeeeeeeeeeeeeeeeeee",
                "decimals": 18
            },
            {
                "address": "0x0d8775f648430679a709e98d2b0cb6250d2887ef",
                "decimals": 18
            }
        ]
    },
    "address_label": {
        "labels": [
            {
                "address": "0xeeeeeeeeeeeeeeeeeeeeeeeeeeeeeeeeeeeeeeee",
                "label": "Ether"
            },
            {
                "address": "0x0d8775f648430679a709e98d2b0cb6250d2887ef",
                "label": "Basic Attention: BAT Token"
            },
            {
                "address": "0x0000000000000000000000000000000000000001",
                "label": "Precompiled"
            },
            {
                "address": "0x0000000000000000000000000000000000000002",
                "label": "Precompiled"
            },
            {
                "address": "0x0000000000000000000000000000000000000003",
                "label": "Precompiled"
            },
            {
                "address": "0x0000000000000000000000000000000000000004",
                "label": "Precompiled"
            }
        ]
    },
    "trace": {
        "accountLabels": null,
        "dataMap": {
            "-1": {
                "invocation": {
                    "address": "0x5342e54d6b5554e5cf2b82286b257fb637e70ce1",
                    "callData": "",
                    "decodedMethod": null,
                    "errorInfo": "",
                    "fromAddress": "",
                    "gasUsed": 0,
                    "id": -1,
                    "methodDecoded": false,
                    "operation": "",
                    "output": "",
                    "revert": false,
                    "revertMessage": "",
                    "selector": "",
                    "status": false,
                    "value": ""
                },
                "nodeType": 0
            },
            "0": {
                "invocation": {
                    "address": "0x075af08596c26a81384e1f06757f96c96bb1e896",
                    "callData": "0x0000000000000000000000000d8775f648430679a709e98d2b0cb6250d2887ef0000000000000000000000000000000000000000000000019cdd3b60b3df00000000000000000000000000000000000000000000000000000000000000000060000000000000000000000000000000000000000000000000000000000000000941726966756c3232310000000000000000000000000000000000000000000000",
                    "decodedMethod": {
                        "callParams": [
                            {
                                "name": "_tokenAddress",
                                "type": "address",
                                "value": "0x0d8775f648430679a709e98d2b0cb6250d2887ef"
                            },
                            {
                                "name": "_amount",
                                "type": "uint256",
                                "value": "29,750,000,000,000,000,000"
                            },
                            {
                                "name": "_callBackData",
                                "type": "string",
                                "value": "Ariful221"
                            }
                        ],
                        "constructorArguments": "",
                        "name": "depositToken",
                        "returnParams": [],
                        "signature": "depositToken(address,uint256,string)"
                    },
                    "errorInfo": "",
                    "fromAddress": "0x5342e54d6b5554e5cf2b82286b257fb637e70ce1",
                    "gasUsed": 27069,
                    "id": 0,
                    "methodDecoded": true,
                    "operation": "CALL",
                    "output": "",
                    "revert": false,
                    "revertMessage": "",
                    "selector": "0xa10d0960",
                    "status": true,
                    "value": "0"
                },
                "nodeType": 0
            },
            "1": {
                "invocation": {
                    "address": "0x0d8775f648430679a709e98d2b0cb6250d2887ef",
                    "callData": "0x0000000000000000000000005342e54d6b5554e5cf2b82286b257fb637e70ce1000000000000000000000000075af08596c26a81384e1f06757f96c96bb1e8960000000000000000000000000000000000000000000000019cdd3b60b3df0000",
                    "decodedMethod": {
                        "callParams": [
                            {
                                "name": "_from",
                                "type": "address",
                                "value": "0x5342e54d6b5554e5cf2b82286b257fb637e70ce1"
                            },
                            {
                                "name": "_to",
                                "type": "address",
                                "value": "0x075af08596c26a81384e1f06757f96c96bb1e896"
                            },
                            {
                                "decimalAvailable": true,
                                "name": "_value",
                                "type": "uint256",
                                "value": "29,750,000,000,000,000,000"
                            }
                        ],
                        "constructorArguments": "",
                        "name": "transferFrom",
                        "returnParams": [
                            {
                                "name": "success",
                                "type": "bool",
                                "value": true
                            }
                        ],
                        "signature": "transferFrom(address,address,uint256)"
                    },
                    "errorInfo": "",
                    "fromAddress": "0x075af08596c26a81384e1f06757f96c96bb1e896",
                    "gasUsed": 19159,
                    "id": 1,
                    "methodDecoded": true,
                    "operation": "CALL",
                    "output": "0x0000000000000000000000000000000000000000000000000000000000000001",
                    "revert": false,
                    "revertMessage": "",
                    "selector": "0x23b872dd",
                    "status": true,
                    "value": "0"
                },
                "nodeType": 0
            },
            "2": {
                "event": {
                    "contract": "0x0d8775f648430679a709e98d2b0cb6250d2887ef",
                    "decodedLog": {
                        "name": "Transfer",
                        "params": [
                            {
                                "name": "_from",
                                "type": "address",
                                "value": "0x5342e54d6b5554e5cf2b82286b257fb637e70ce1"
                            },
                            {
                                "name": "_to",
                                "type": "address",
                                "value": "0x075af08596c26a81384e1f06757f96c96bb1e896"
                            },
                            {
                                "decimalAvailable": true,
                                "name": "_value",
                                "type": "uint256",
                                "value": "29,750,000,000,000,000,000"
                            }
                        ],
                        "signature": "Transfer(address,address,uint256)"
                    },
                    "id": 2,
                    "logData": "0x0000000000000000000000000000000000000000000000019cdd3b60b3df0000",
                    "logDecoded": true,
                    "operation": "EVENT",
                    "revert": false,
                    "status": true,
                    "topics": [
                        "0xddf252ad1be2c89b69c2b068fc378daa952ba7f163c4a11628f55a4df523b3ef",
                        "0x0000000000000000000000005342e54d6b5554e5cf2b82286b257fb637e70ce1",
                        "0x000000000000000000000000075af08596c26a81384e1f06757f96c96bb1e896"
                    ]
                },
                "nodeType": 1
            },
            "3": {
                "event": {
                    "contract": "0x075af08596c26a81384e1f06757f96c96bb1e896",
                    "decodedLog": null,
                    "id": 3,
                    "logData": "0x0000000000000000000000000d8775f648430679a709e98d2b0cb6250d2887ef0000000000000000000000005342e54d6b5554e5cf2b82286b257fb637e70ce10000000000000000000000000000000000000000000000019cdd3b60b3df00000000000000000000000000000000000000000000000000000000000000000080000000000000000000000000000000000000000000000000000000000000000941726966756c3232310000000000000000000000000000000000000000000000",
                    "logDecoded": false,
                    "operation": "EVENT",
                    "revert": false,
                    "status": true,
                    "topics": [
                        "0x9abc03496c1032d5360782ca78af72ed77b086c26cb5a6a98b01178546795ec0"
                    ]
                },
                "nodeType": 1
            }
        },
        "gasFlame": [
            {
                "children": [
                    {
                        "children": [
                            {
                                "children": [],
                                "depth": 0,
                                "name": "Initial Gas",
                                "value": 24344
                            },
                            {
                                "children": [
                                    {
                                        "children": [],
                                        "depth": 1,
                                        "name": "transferFrom",
                                        "value": 19159
                                    }
                                ],
                                "depth": 0,
                                "name": "Executed Gas",
                                "value": 29794
                            }
                        ],
                        "depth": -1,
                        "name": "Actual Gas Used",
                        "value": 27069
                    },
                    {
                        "children": [],
                        "depth": -1,
                        "name": "Refunded Gas",
                        "value": 27069
                    }
                ],
                "depth": -2,
                "name": "Total Gas",
                "value": 54138
            }
        ],
        "isConfirmed": true,
        "mainTrace": [
            {
                "children": [
                    {
                        "children": [
                            {
                                "children": [
                                    {
                                        "children": [],
                                        "depth": 2,
                                        "id": 2,
                                        "order": 2
                                    }
                                ],
                                "depth": 1,
                                "id": 1,
                                "order": 1
                            },
                            {
                                "children": [],
                                "depth": 1,
                                "id": 3,
                                "order": 3
                            }
                        ],
                        "depth": 0,
                        "id": 0,
                        "order": 0
                    }
                ],
                "depth": -1,
                "id": -1,
                "order": -1
            }
        ],
        "mainTraceNodeCount": 4,
        "parentIdMap": {
            "0": -1,
            "1": 0,
            "2": 1,
            "3": 0
        },
        "tidyTrace": [
            {
                "children": [
                    {
                        "children": [
                            {
                                "children": [
                                    {
                                        "children": [],
                                        "depth": 2,
                                        "id": 2,
                                        "order": 2
                                    }
                                ],
                                "depth": 1,
                                "id": 1,
                                "order": 1
                            },
                            {
                                "children": [],
                                "depth": 1,
                                "id": 3,
                                "order": 3
                            }
                        ],
                        "depth": 0,
                        "id": 0,
                        "order": 0
                    }
                ],
                "depth": -1,
                "id": -1,
                "order": -1
            }
        ],
        "tidyTraceNodeCount": 4
    },
    "state_change": {
        "stateChanges": [
            {
                "address": "0x075af08596c26a81384e1f06757f96c96bb1e896",
                "erc": "",
                "slots": [
                    {
                        "current": "0x000000000000000000000000000000000000000000000d4d59b3ffe1984aa5d6",
                        "key": "0x606f8f19b141a455da0c961d9504488ecb31b8d3c7bc83638930f4c8f72b4872",
                        "prev": "0x000000000000000000000000000000000000000000000d4bbcd6c480e46ba5d6"
                    }
                ],
                "storageVariables": []
            },
            {
                "address": "0x0d8775f648430679a709e98d2b0cb6250d2887ef",
                "erc": "ERC-20",
                "slots": [
                    {
                        "current": "0x0000000000000000000000000000000000000000000000000000000000000000",
                        "key": "0x7f8bddbb520adf97b41c8104fecaa4d572d7d6f256b24891f985c31ec48de36b",
                        "prev": "0x0000000000000000000000000000000000000000000000019cdd3b60b3df0000"
                    },
                    {
                        "current": "0x000000000000000000000000000000000000000000000d4d59b3ffe1984aa5d6",
                        "key": "0xc9987bcfc0ed7b085bc7889d3466dd391f04a9bc4607c20a18f74b59fabbc1ed",
                        "prev": "0x000000000000000000000000000000000000000000000d4bbcd6c480e46ba5d6"
                    },
                    {
                        "current": "0x0000000000000000000000000000000000000000000000000000000000000000",
                        "key": "0xf4cd17e2398d75f8868edb564832e09aa3c53f721224dcb0eaccbd8ba75a0b5d",
                        "prev": "0x0000000000000000000000000000000000000000000000019cdd3b60b3df0000"
                    }
                ],
                "storageVariables": []
            }
        ]
    }
}