{
    "balance_change": {
        "balanceChanges": [
            {
                "account": "0xebcebe2f1d38ea3e97ab4f19d27dd7fc2141c5a6",
                "assets": [
                    {
                        "address": "0x7b188a8b3a2113621895fb35fc67a779caffa92d",
                        "amount": "1,404.7188",
                        "iconUrl": "",
                        "isERC1155": false,
                        "isERC721": false,
                        "sign": false,
                        "value": ""
                    }
                ]
            },
            {
                "account": "0x915d7915f2b469bb654a7d903a5d4417cb8ea7df",
                "assets": [
                    {
                        "address": "0x7b188a8b3a2113621895fb35fc67a779caffa92d",
                        "amount": "1,404.7188",
                        "iconUrl": "",
                        "isERC1155": false,
                        "isERC721": false,
                        "sign": true,
                        "value": ""
                    }
                ]
            }
        ]
    },
    "profile": {
        "basic_info": {
            "baseFee": "",
            "blockNumber": 6238409,
            "callData": "0xa9059cbb000000000000000000000000915d7915f2b469bb654a7d903a5d4417cb8ea7df0000000000000000000000000000000000000000000000000000000000d657d4",
            "debugEnable": true,
            "errorInfo": "",
            "eventCount": 1,
            "feeRecipient": "0x2a65aca4d5fc5b5c859090a6c34d164135398226",
            "formatValue": "0",
            "gasLimit": 101000,
            "gasPrice": "80.02",
            "gasUsed": 21705,
            "intTxnCount": 0,
            "internalRevert": false,
            "internalRevertMessage": "",
            "isContractCreation": false,
            "isFlashloan": false,
            "maxFee": "",
            "nonce": 0,
            "overwritedBlockNumber": -1,
            "priorityFee": "",
            "receiver": "0x7b188a8b3a2113621895fb35fc67a779caffa92d",
            "revertMessage": "",
            "sender": "0xebcebe2f1d38ea3e97ab4f19d27dd7fc2141c5a6",
            "simulationEnable": true,
            "sourceTxnHash": "0xd33081c471ad9fbbe907bd05c255072ecf2ad098617a1d6a1871dc8744a06b17",
            "status": true,
            "timestamp": "2018-08-30T03:24:06Z",
            "transactionFee": "0.0017368341",
            "txnHash": "0xd33081c471ad9fbbe907bd05c255072ecf2ad098617a1d6a1871dc8744a06b17",
            "txnIndex": 2,
            "type": 0,
            "value": "0"
        },
        "fund_flow": [
            {
                "amount": "1,404.7188",
                "from": "0xebcebe2f1d38ea3e97ab4f19d27dd7fc2141c5a6",
                "id": 1,
                "isERC1155": false,
                "isERC721": false,
                "isReverted": false,
                "order": 1,
                "to": "0x915d7915f2b469bb654a7d903a5d4417cb8ea7df",
                "token": "0x7b188a8b3a2113621895fb35fc67a779caffa92d"
            }
        ],
        "token_infos": [
            {
                "address": "0x7b188a8b3a2113621895fb35fc67a779caffa92d",
                "decimals": 4
            },
            {
                "address": "0xc02aaa39b223fe8d0a0e5c4f27ead9083c756cc2",
                "decimals": 18
            },
            {
                "address": "0xeeeeeeeeeeeeeeeeeeeeeeeeeeeeeeeeeeeeeeee",
                "decimals": 18
            }
        ]
    },
    "address_label": {
        "labels": [
            {
                "address": "0x915d7915f2b469bb654a7d903a5d4417cb8ea7df",
                "label": "FCoin"
            },
            {
                "address": "0x7b188a8b3a2113621895fb35fc67a779caffa92d",
                "label": "QOS: QOS Token"
            },
            {
                "address": "0x0000000000000000000000000000000000000001",
                "label": "Precompiled"
            },
            {
                "address": "0x0000000000000000000000000000000000000002",
                "label": "Precompiled"
            },
            {
                "address": "0x0000000000000000000000000000000000000003",
                "label": "Precompiled"
            },
            {
                "address": "0x0000000000000000000000000000000000000004",
                "label": "Precompiled"
            },
            {
                "address": "0xeeeeeeeeeeeeeeeeeeeeeeeeeeeeeeeeeeeeeeee",
                "label": "Ether"
            }
        ]
    },
    "trace": {
        "accountLabels": null,
        "dataMap": {
            "-1": {
                "invocation": {
                    "address": "0xebcebe2f1d38ea3e97ab4f19d27dd7fc2141c5a6",
                    "callData": "",
                    "decodedMethod": null,
                    "errorInfo": "",
                    "fromAddress": "",
                    "gasUsed": 0,
                    "id": -1,
                    "methodDecoded": false,
                    "operation": "",
                    "output": "",
                    "revert": false,
                    "revertMessage": "",
                    "selector": "",
                    "status": false,
                    "value": ""
                },
                "nodeType": 0
            },
            "0": {
                "invocation": {
                    "address": "0x7b188a8b3a2113621895fb35fc67a779caffa92d",
                    "callData": "0x000000000000000000000000915d7915f2b469bb654a7d903a5d4417cb8ea7df0000000000000000000000000000000000000000000000000000000000d657d4",
                    "decodedMethod": {
                        "callParams": [
                            {
                                "name": "_to",
                                "type": "address",
                                "value": "0x915d7915f2b469bb654a7d903a5d4417cb8ea7df"
                            },
                            {
                                "decimalAvailable": true,
                                "name": "_value",
                                "type": "uint256",
                                "value": "14,047,188"
                            }
                        ],
                        "constructorArguments": "",
                        "name": "transfer",
                        "returnParams": [
                            {
                                "name": "",
                                "type": "bool",
                                "value": true
                            }
                        ],
                        "signature": "transfer(address,uint256)"
                    },
                    "errorInfo": "",
                    "fromAddress": "0xebcebe2f1d38ea3e97ab4f19d27dd7fc2141c5a6",
                    "gasUsed": 21705,
                    "id": 0,
                    "methodDecoded": true,
                    "operation": "CALL",
                    "output": "0x0000000000000000000000000000000000000000000000000000000000000001",
                    "revert": false,
                    "revertMessage": "",
                    "selector": "0xa9059cbb",
                    "status": true,
                    "value": "0"
                },
                "nodeType": 0
            },
            "1": {
                "event": {
                    "contract": "0x7b188a8b3a2113621895fb35fc67a779caffa92d",
                    "decodedLog": {
                        "name": "Transfer",
                        "params": [
                            {
                                "name": "from",
                                "type": "address",
                                "value": "0xebcebe2f1d38ea3e97ab4f19d27dd7fc2141c5a6"
                            },
                            {
                                "name": "to",
                                "type": "address",
                                "value": "0x915d7915f2b469bb654a7d903a5d4417cb8ea7df"
                            },
                            {
                                "decimalAvailable": true,
                                "name": "value",
                                "type": "uint256",
                                "value": "14,047,188"
                            }
                        ],
                        "signature": "Transfer(address,address,uint256)"
                    },
                    "id": 1,
                    "logData": "0x0000000000000000000000000000000000000000000000000000000000d657d4",
                    "logDecoded": true,
                    "operation": "EVENT",
                    "revert": false,
                    "status": true,
                    "topics": [
                        "0xddf252ad1be2c89b69c2b068fc378daa952ba7f163c4a11628f55a4df523b3ef",
                        "0x000000000000000000000000ebcebe2f1d38ea3e97ab4f19d27dd7fc2141c5a6",
                        "0x000000000000000000000000915d7915f2b469bb654a7d903a5d4417cb8ea7df"
                    ]
                },
                "nodeType": 1
            }
        },
        "gasFlame": [
            {
                "children": [
                    {
                        "children": [
                            {
                                "children": [],
                                "depth": 0,
                                "name": "Initial Gas",
                                "value": 23000
                            },
                            {
                                "children": [],
                                "depth": 0,
                                "name": "Executed Gas",
                                "value": 13705
                            }
                        ],
                        "depth": -1,
                        "name": "Actual Gas Used",
                        "value": 21705
                    },
                    {
                        "children": [],
                        "depth": -1,
                        "name": "Refunded Gas",
                        "value": 15000
                    }
                ],
                "depth": -2,
                "name": "Total Gas",
                "value": 36705
            }
        ],
        "isConfirmed": true,
        "mainTrace": [
            {
                "children": [
                    {
                        "children": [
                            {
                                "children": [],
                                "depth": 1,
                                "id": 1,
                                "order": 1
                            }
                        ],
                        "depth": 0,
                        "id": 0,
                        "order": 0
                    }
                ],
                "depth": -1,
                "id": -1,
                "order": -1
            }
        ],
        "mainTraceNodeCount": 2,
        "parentIdMap": {
            "0": -1,
            "1": 0
        },
        "tidyTrace": [
            {
                "children": [
                    {
                        "children": [
                            {
                                "children": [],
                                "depth": 1,
                                "id": 1,
                                "order": 1
                            }
                        ],
                        "depth": 0,
                        "id": 0,
                        "order": 0
                    }
                ],
                "depth": -1,
                "id": -1,
                "order": -1
            }
        ],
        "tidyTraceNodeCount": 2
    },
    "state_change": {
        "stateChanges": [
            {
                "address": "0x7b188a8b3a2113621895fb35fc67a779caffa92d",
                "erc": "ERC-20",
                "slots": [
                    {
                        "current": "0x0000000000000000000000000000000000000000000000000000000000000000",
                        "key": "0xcba60e798f34aed59a520c80d803b3ea35abd4b7a87e02d72305d38c7d8370e5",
                        "prev": "0x0000000000000000000000000000000000000000000000000000000000d657d4"
                    },
                    {
                        "current": "0x0000000000000000000000000000000000000000000000000000067fa9abe165",
                        "key": "0xb5c57a2b5aba770b35a81b266df99b230b6f1eeb22533dcd6ed7ead103c95637",
                        "prev": "0x0000000000000000000000000000000000000000000000000000067fa8d58991"
                    }
                ],
                "storageVariables": [
                    {
                        "name": "balances",
                        "type": "mapping(address => uint256)",
                        "value": {
                            "pairs": [
                                {
                                    "key": "0x915d7915f2b469bb654a7d903a5d4417cb8ea7df",
                                    "value": {
                                        "current": "7145377227109",
                                        "prev": "7145363179921",
                                        "typeTag": 1
                                    }
                                },
                                {
                                    "key": "0xebcebe2f1d38ea3e97ab4f19d27dd7fc2141c5a6",
                                    "value": {
                                        "current": "0",
                                        "prev": "14047188",
                                        "typeTag": 1
                                    }
                                }
                            ],
                            "typeTag": 4
                        }
                    }
                ]
            }
        ]
    }
}