{
    "balance_change": {
        "balanceChanges": [
            {
                "account": "0x0a98fb70939162725ae66e626fe4b52cff62c2e5",
                "assets": [
                    {
                        "address": "0xdac17f958d2ee523a2206206994597c13d831ec7",
                        "amount": "1,425.533716",
                        "iconUrl": "https://assets.blocksec.com/icon/fcea71f3193ce895be44bfdf941f7e4c9381dd587f273c2d1a27f1263d84e4ea.png",
                        "isERC1155": false,
                        "isERC721": false,
                        "sign": false,
                        "value": ""
                    }
                ]
            },
            {
                "account": "0x7fb5da8e2ad66073fa2c48bb692784000db014f1",
                "assets": [
                    {
                        "address": "0xdac17f958d2ee523a2206206994597c13d831ec7",
                        "amount": "1,425.533716",
                        "iconUrl": "https://assets.blocksec.com/icon/fcea71f3193ce895be44bfdf941f7e4c9381dd587f273c2d1a27f1263d84e4ea.png",
                        "isERC1155": false,
                        "isERC721": false,
                        "sign": true,
                        "value": ""
                    }
                ]
            }
        ]
    },
    "profile": {
        "basic_info": {
            "baseFee": "",
            "blockNumber": 8947880,
            "callData": "0xa9059cbb0000000000000000000000007fb5da8e2ad66073fa2c48bb692784000db014f10000000000000000000000000000000000000000000000000000000054f7eb14",
            "debugEnable": true,
            "errorInfo": "",
            "eventCount": 1,
            "feeRecipient": "0x1b0fef50fdda7867e5b632a65013acab514b9ec3",
            "formatValue": "0",
            "gasLimit": 90000,
            "gasPrice": "40",
            "gasUsed": 38401,
            "intTxnCount": 0,
            "internalRevert": false,
            "internalRevertMessage": "",
            "isContractCreation": false,
            "isFlashloan": false,
            "maxFee": "",
            "nonce": 147739,
            "overwritedBlockNumber": -1,
            "priorityFee": "",
            "receiver": "0xdac17f958d2ee523a2206206994597c13d831ec7",
            "revertMessage": "",
            "sender": "0x0a98fb70939162725ae66e626fe4b52cff62c2e5",
            "simulationEnable": true,
            "sourceTxnHash": "0xd4a01e42baff925114fcb3685fda1b48629196ae2c261e0f99091fbad3ef3482",
            "status": true,
            "timestamp": "2019-11-17T02:09:42Z",
            "transactionFee": "0.00153604",
            "txnHash": "0xd4a01e42baff925114fcb3685fda1b48629196ae2c261e0f99091fbad3ef3482",
            "txnIndex": 9,
            "type": 0,
            "value": "0"
        },
        "fund_flow": [
            {
                "amount": "1,425.533716",
                "from": "0x0a98fb70939162725ae66e626fe4b52cff62c2e5",
                "id": 1,
                "isERC1155": false,
                "isERC721": false,
                "isReverted": false,
                "order": 1,
                "to": "0x7fb5da8e2ad66073fa2c48bb692784000db014f1",
                "token": "0xdac17f958d2ee523a2206206994597c13d831ec7"
            }
        ],
        "token_infos": [
            {
                "address": "0xc02aaa39b223fe8d0a0e5c4f27ead9083c756cc2",
                "decimals": 18
            },
            {
                "address": "0xdac17f958d2ee523a2206206994597c13d831ec7",
                "decimals": 6
            },
            {
                "address": "0xeeeeeeeeeeeeeeeeeeeeeeeeeeeeeeeeeeeeeeee",
                "decimals": 18
            }
        ]
    },
    "address_label": {
        "labels": [
            {
                "address": "0x0000000000000000000000000000000000000004",
                "label": "Precompiled"
            },
            {
                "address": "0xeeeeeeeeeeeeeeeeeeeeeeeeeeeeeeeeeeeeeeee",
                "label": "Ether"
            },
            {
                "address": "0x0a98fb70939162725ae66e626fe4b52cff62c2e5",
                "label": "HTX 36"
            },
            {
                "address": "0xdac17f958d2ee523a2206206994597c13d831ec7",
                "label": "Tether: USDT Stablecoin"
            },
            {
                "address": "0x0000000000000000000000000000000000000001",
                "label": "Precompiled"
            },
            {
                "address": "0x0000000000000000000000000000000000000002",
                "label": "Precompiled"
            },
            {
                "address": "0x0000000000000000000000000000000000000003",
                "label": "Precompiled"
            }
        ]
    },
    "trace": {
        "accountLabels": null,
        "dataMap": {
            "-1": {
                "invocation": {
                    "address": "0x0a98fb70939162725ae66e626fe4b52cff62c2e5",
                    "callData": "",
                    "decodedMethod": null,
                    "errorInfo": "",
                    "fromAddress": "",
                    "gasUsed": 0,
                    "id": -1,
                    "methodDecoded": false,
                    "operation": "",
                    "output": "",
                    "revert": false,
                    "revertMessage": "",
                    "selector": "",
                    "status": false,
                    "value": ""
                },
                "nodeType": 0
            },
            "0": {
                "invocation": {
                    "address": "0xdac17f958d2ee523a2206206994597c13d831ec7",
                    "callData": "0x0000000000000000000000007fb5da8e2ad66073fa2c48bb692784000db014f10000000000000000000000000000000000000000000000000000000054f7eb14",
                    "decodedMethod": {
                        "callParams": [
                            {
                                "name": "_to",
                                "type": "address",
                                "value": "0x7fb5da8e2ad66073fa2c48bb692784000db014f1"
                            },
                            {
                                "decimalAvailable": true,
                                "name": "_value",
                                "type": "uint256",
                                "value": "1,425,533,716"
                            }
                        ],
                        "constructorArguments": "",
                        "name": "transfer",
                        "returnParams": [],
                        "signature": "transfer(address,uint256)"
                    },
                    "errorInfo": "",
                    "fromAddress": "0x0a98fb70939162725ae66e626fe4b52cff62c2e5",
                    "gasUsed": 38401,
                    "id": 0,
                    "methodDecoded": true,
                    "operation": "CALL",
                    "output": "",
                    "revert": false,
                    "revertMessage": "",
                    "selector": "0xa9059cbb",
                    "status": true,
                    "value": "0"
                },
                "nodeType": 0
            },
            "1": {
                "event": {
                    "contract": "0xdac17f958d2ee523a2206206994597c13d831ec7",
                    "decodedLog": {
                        "name": "Transfer",
                        "params": [
                            {
                                "name": "from",
                                "type": "address",
                                "value": "0x0a98fb70939162725ae66e626fe4b52cff62c2e5"
                            },
                            {
                                "name": "to",
                                "type": "address",
                                "value": "0x7fb5da8e2ad66073fa2c48bb692784000db014f1"
                            },
                            {
                                "decimalAvailable": true,
                                "name": "value",
                                "type": "uint256",
                                "value": "1,425,533,716"
                            }
                        ],
                        "signature": "Transfer(address,address,uint256)"
                    },
                    "id": 1,
                    "logData": "0x0000000000000000000000000000000000000000000000000000000054f7eb14",
                    "logDecoded": true,
                    "operation": "EVENT",
                    "revert": false,
                    "status": true,
                    "topics": [
                        "0xddf252ad1be2c89b69c2b068fc378daa952ba7f163c4a11628f55a4df523b3ef",
                        "0x0000000000000000000000000a98fb70939162725ae66e626fe4b52cff62c2e5",
                        "0x0000000000000000000000007fb5da8e2ad66073fa2c48bb692784000db014f1"
                    ]
                },
                "nodeType": 1
            }
        },
        "gasFlame": [
            {
                "children": [
                    {
                        "children": [
                            {
                                "children": [],
                                "depth": 0,
                                "name": "Initial Gas",
                                "value": 23000
                            },
                            {
                                "children": [],
                                "depth": 0,
                                "name": "Executed Gas",
                                "value": 15401
                            }
                        ],
                        "depth": -1,
                        "name": "Actual Gas Used",
                        "value": 38401
                    },
                    {
                        "children": [],
                        "depth": -1,
                        "name": "Refunded Gas",
                        "value": 0
                    }
                ],
                "depth": -2,
                "name": "Total Gas",
                "value": 38401
            }
        ],
        "isConfirmed": true,
        "mainTrace": [
            {
                "children": [
                    {
                        "children": [
                            {
                                "children": [],
                                "depth": 1,
                                "id": 1,
                                "order": 1
                            }
                        ],
                        "depth": 0,
                        "id": 0,
                        "order": 0
                    }
                ],
                "depth": -1,
                "id": -1,
                "order": -1
            }
        ],
        "mainTraceNodeCount": 2,
        "parentIdMap": {
            "0": -1,
            "1": 0
        },
        "tidyTrace": [
            {
                "children": [
                    {
                        "children": [
                            {
                                "children": [],
                                "depth": 1,
                                "id": 1,
                                "order": 1
                            }
                        ],
                        "depth": 0,
                        "id": 0,
                        "order": 0
                    }
                ],
                "depth": -1,
                "id": -1,
                "order": -1
            }
        ],
        "tidyTraceNodeCount": 2
    },
    "state_change": {
        "stateChanges": [
            {
                "address": "0xdac17f958d2ee523a2206206994597c13d831ec7",
                "erc": "ERC-20",
                "slots": [
                    {
                        "current": "0x00000000000000000000000000000000000000000000000000000259697f70d1",
                        "key": "0x6b41b82fd80f06102a0c07661827886db3b1916fa73e1b5026c983979183ef60",
                        "prev": "0x00000000000000000000000000000000000000000000000000000259be775be5"
                    },
                    {
                        "current": "0x00000000000000000000000000000000000000000000000000000001a9055b22",
                        "key": "0x9075bef9e18cabea71c06fb25fc1b0b483e1ac4f230e7cc32c78dbf664b27c8a",
                        "prev": "0x00000000000000000000000000000000000000000000000000000001540d700e"
                    }
                ],
                "storageVariables": [
                    {
                        "name": "balances",
                        "type": "mapping(address => uint256)",
                        "value": {
                            "pairs": [
                                {
                                    "key": "0x0a98fb70939162725ae66e626fe4b52cff62c2e5",
                                    "value": {
                                        "current": "2583045304529",
                                        "prev": "2584470838245",
                                        "typeTag": 1
                                    }
                                },
                                {
                                    "key": "0x7fb5da8e2ad66073fa2c48bb692784000db014f1",
                                    "value": {
                                        "current": "7130667810",
                                        "prev": "5705134094",
                                        "typeTag": 1
                                    }
                                }
                            ],
                            "typeTag": 4
                        }
                    }
                ]
            }
        ]
    }
}