{
    "balance_change": {
        "balanceChanges": [
            {
                "account": "0x220edc1fca33d05a5357943688a5c28e435cb28b",
                "assets": [
                    {
                        "address": "0xeeeeeeeeeeeeeeeeeeeeeeeeeeeeeeeeeeeeeeee",
                        "amount": "0.017",
                        "iconUrl": "https://assets.blocksec.com/image/1663669189317-3.png",
                        "isERC1155": false,
                        "isERC721": false,
                        "sign": false,
                        "value": "21.593400000000000772"
                    },
                    {
                        "address": "0x521ed11081dfdb23f7cf18deded232fa6b9c4a91",
                        "amount": "1",
                        "iconUrl": "",
                        "isERC1155": false,
                        "isERC721": true,
                        "sign": true,
                        "tokenID": "7",
                        "value": ""
                    }
                ]
            },
            {
                "account": "0x0000a26b00c1f0df003000390027140000faa719",
                "assets": [
                    {
                        "address": "0xeeeeeeeeeeeeeeeeeeeeeeeeeeeeeeeeeeeeeeee",
                        "amount": "0.000425",
                        "iconUrl": "https://assets.blocksec.com/image/1663669189317-3.png",
                        "isERC1155": false,
                        "isERC721": false,
                        "sign": true,
                        "value": "0.5398350000000000193"
                    }
                ]
            },
            {
                "account": "0xbf30b62cf10a9943e7084fbc98a71a3c00c29c7d",
                "assets": [
                    {
                        "address": "0x521ed11081dfdb23f7cf18deded232fa6b9c4a91",
                        "amount": "1",
                        "iconUrl": "",
                        "isERC1155": false,
                        "isERC721": true,
                        "sign": false,
                        "tokenID": "7",
                        "value": ""
                    },
                    {
                        "address": "0xeeeeeeeeeeeeeeeeeeeeeeeeeeeeeeeeeeeeeeee",
                        "amount": "0.0153",
                        "iconUrl": "https://assets.blocksec.com/image/1663669189317-3.png",
                        "isERC1155": false,
                        "isERC721": false,
                        "sign": true,
                        "value": "19.434060000000000695"
                    }
                ]
            },
            {
                "account": "0xdaa17320eba6caf85d8fb5678aee28a169e0d9e2",
                "assets": [
                    {
                        "address": "0xeeeeeeeeeeeeeeeeeeeeeeeeeeeeeeeeeeeeeeee",
                        "amount": "0.001275",
                        "iconUrl": "https://assets.blocksec.com/image/1663669189317-3.png",
                        "isERC1155": false,
                        "isERC721": false,
                        "sign": true,
                        "value": "1.619505000000000058"
                    }
                ]
            }
        ]
    },
    "profile": {
        "basic_info": {
            "baseFee": "11.499983332",
            "blockNumber": 16157094,
            "callData": "0xa294ae6400000000000000000000000000000000000000000000000000000000000000e00000000000000000000000000000000000000000000000000000000000000005000000000000000000000000521ed11081dfdb23f7cf18deded232fa6b9c4a910000000000000000000000000000000000000000000000000000000000000007000000000000000000000000220edc1fca33d05a5357943688a5c28e435cb28b000000000000000000000000000000000000000000000000000000000000000000000000000000000000000000000000000000000000000000000000000000000000000000000000000000000000000000000000000000000000000000000664e7acab24000000000000000000000000000000000000000000000000000000000000008000000000000000000000000000000000000000000000000000000000000006400000000000000000000000000000000000000000000000000000000000000000000000000000000000000000220edc1fca33d05a5357943688a5c28e435cb28b00000000000000000000000000000000000000000000000000000000000000a000000000000000000000000000000000000000000000000000000000000000010000000000000000000000000000000000000000000000000000000000000001000000000000000000000000000000000000000000000000000000000000052000000000000000000000000000000000000000000000000000000000000005a0000000000000000000000000bf30b62cf10a9943e7084fbc98a71a3c00c29c7d000000000000000000000000004c00500000ad104d7dbd00e3ae0a5c00560c00000000000000000000000000000000000000000000000000000000000000016000000000000000000000000000000000000000000000000000000000000002200000000000000000000000000000000000000000000000000000000000000002000000000000000000000000000000000000000000000000000000006394fe8a0000000000000000000000000000000000000000000000000000000063bc8b8b000000000000000000000000000000000000000000000000000000000000000072db8c0b000000000000000000000000000000000000000054eb54460b8740c00000007b02230091a7ed01230072f7006a004d60a8d4e71d599b8104250f0000000000000000000000000000000000000000000000000000000000000000000300000000000000000000000000000000000000000000000000000000000000010000000000000000000000000000000000000000000000000000000000000002000000000000000000000000521ed11081dfdb23f7cf18deded232fa6b9c4a91000000000000000000000000000000000000000000000000000000000000000700000000000000000000000000000000000000000000000000000000000000010000000000000000000000000000000000000000000000000000000000000001000000000000000000000000000000000000000000000000000000000000000300000000000000000000000000000000000000000000000000000000000000000000000000000000000000000000000000000000000000000000000000000000000000000000000000000000000000000000000000000000000000000000000000000000000000000000000000000000000000000000000000365b44d910400000000000000000000000000000000000000000000000000000365b44d9104000000000000000000000000000bf30b62cf10a9943e7084fbc98a71a3c00c29c7d000000000000000000000000000000000000000000000000000000000000000000000000000000000000000000000000000000000000000000000000000000000000000000000000000000000000000000000000000000000000000000000000000000000000000000000000000000000000000000000000000182890607900000000000000000000000000000000000000000000000000000018289060790000000000000000000000000000000a26b00c1f0df003000390027140000faa7190000000000000000000000000000000000000000000000000000000000000000000000000000000000000000000000000000000000000000000000000000000000000000000000000000000000000000000000000000000000000000000000000000000000000000000000000000000000000000000000000004879b1216b0000000000000000000000000000000000000000000000000000004879b1216b000000000000000000000000000daa17320eba6caf85d8fb5678aee28a169e0d9e20000000000000000000000000000000000000000000000000000000000000041542539931275826c7bf437fd5796eaad447a4c6b63be817f6c31b2e195bc919f2fa2ca1a99333a09ab16f61521e6cdd141c56da02d23816c355c6b6ac34ca53e1c000000000000000000000000000000000000000000000000000000000000000000000000000000000000000000000000000000000000000000000000000000000000000000000000000000000000000000000000000000000000000000000000000000000000000000000000000000000000000000000000000000",
            "debugEnable": true,
            "errorInfo": "",
            "eventCount": 3,
            "feeRecipient": "0xdafea492d9c6733ae3d56b7ed1adb60692c98bc5",
            "formatValue": "0.017",
            "gasLimit": 450000,
            "gasPrice": "14.499983332",
            "gasUsed": 191081,
            "intTxnCount": 10,
            "internalRevert": false,
            "internalRevertMessage": "",
            "isContractCreation": false,
            "isFlashloan": false,
            "maxFee": "21.3",
            "nonce": 94,
            "overwritedBlockNumber": -1,
            "priorityFee": "3",
            "receiver": "0x114e54a100a0415abf9727234c92c83dbcc59abf",
            "revertMessage": "",
            "sender": "0x220edc1fca33d05a5357943688a5c28e435cb28b",
            "simulationEnable": true,
            "sourceTxnHash": "0xd46d96be316fb0785c36eadcbcc5fb93a7cbf3c4e913361773662cb324679a3e",
            "status": true,
            "timestamp": "2022-12-10T21:48:35Z",
            "transactionFee": "0.002770671315061892",
            "txnHash": "0xd46d96be316fb0785c36eadcbcc5fb93a7cbf3c4e913361773662cb324679a3e",
            "txnIndex": 37,
            "type": 2,
            "value": "17000000000000000"
        },
        "fund_flow": [
            {
                "amount": "0.017",
                "from": "0x220edc1fca33d05a5357943688a5c28e435cb28b",
                "id": 1,
                "isERC1155": false,
                "isERC721": false,
                "isReverted": false,
                "order": 1,
                "to": "0x114e54a100a0415abf9727234c92c83dbcc59abf",
                "token": "0xeeeeeeeeeeeeeeeeeeeeeeeeeeeeeeeeeeeeeeee"
            },
            {
                "amount": "0.017",
                "from": "0x114e54a100a0415abf9727234c92c83dbcc59abf",
                "id": 2,
                "isERC1155": false,
                "isERC721": false,
                "isReverted": false,
                "order": 2,
                "to": "0x00000000006c3852cbef3e08e8df289169ede581",
                "token": "0xeeeeeeeeeeeeeeeeeeeeeeeeeeeeeeeeeeeeeeee"
            },
            {
                "amount": "0.0153",
                "from": "0x00000000006c3852cbef3e08e8df289169ede581",
                "id": 3,
                "isERC1155": false,
                "isERC721": false,
                "isReverted": false,
                "order": 3,
                "to": "0xbf30b62cf10a9943e7084fbc98a71a3c00c29c7d",
                "token": "0xeeeeeeeeeeeeeeeeeeeeeeeeeeeeeeeeeeeeeeee"
            },
            {
                "amount": "0.000425",
                "from": "0x00000000006c3852cbef3e08e8df289169ede581",
                "id": 4,
                "isERC1155": false,
                "isERC721": false,
                "isReverted": false,
                "order": 4,
                "to": "0x0000a26b00c1f0df003000390027140000faa719",
                "token": "0xeeeeeeeeeeeeeeeeeeeeeeeeeeeeeeeeeeeeeeee"
            },
            {
                "amount": "0.001275",
                "from": "0x00000000006c3852cbef3e08e8df289169ede581",
                "id": 5,
                "isERC1155": false,
                "isERC721": false,
                "isReverted": false,
                "order": 5,
                "to": "0xdaa17320eba6caf85d8fb5678aee28a169e0d9e2",
                "token": "0xeeeeeeeeeeeeeeeeeeeeeeeeeeeeeeeeeeeeeeee"
            },
            {
                "amount": "1",
                "from": "0xbf30b62cf10a9943e7084fbc98a71a3c00c29c7d",
                "id": 6,
                "isERC1155": false,
                "isERC721": true,
                "isReverted": false,
                "order": 6,
                "to": "0x220edc1fca33d05a5357943688a5c28e435cb28b",
                "token": "0x521ed11081dfdb23f7cf18deded232fa6b9c4a91",
                "tokenID": "7"
            }
        ],
        "token_infos": [
            {
                "address": "0xc02aaa39b223fe8d0a0e5c4f27ead9083c756cc2",
                "decimals": 18
            },
            {
                "address": "0xeeeeeeeeeeeeeeeeeeeeeeeeeeeeeeeeeeeeeeee",
                "decimals": 18
            }
        ]
    },
    "address_label": {
        "labels": [
            {
                "address": "0xeeeeeeeeeeeeeeeeeeeeeeeeeeeeeeeeeeeeeeee",
                "label": "Ether"
            },
            {
                "address": "0x0000000000000000000000000000000000000000",
                "label": "Null Address"
            },
            {
                "address": "0x00000000006c3852cbef3e08e8df289169ede581",
                "label": "Seaport 1.1"
            },
            {
                "address": "0x521ed11081dfdb23f7cf18deded232fa6b9c4a91",
                "label": "LsdmachinesContract"
            },
            {
                "address": "0x0000000000000000000000000000000000000001",
                "label": "Precompiled"
            },
            {
                "address": "0x0000a26b00c1f0df003000390027140000faa719",
                "label": "OpenSea: Fees 3"
            },
            {
                "address": "0x1e0049783f008a0085193e00003d00cd54003c71",
                "label": "OpenSea: Conduit"
            },
            {
                "address": "0x000000000000aaeb6d7670e522a718067333cd4e",
                "label": "OperatorFilterRegistry"
            },
            {
                "address": "0x004c00500000ad104d7dbd00e3ae0a5c00560c00",
                "label": "OpenSea: Pausable Zone"
            },
            {
                "address": "0x0000000000000000000000000000000000000002",
                "label": "Precompiled"
            },
            {
                "address": "0x0000000000000000000000000000000000000003",
                "label": "Precompiled"
            },
            {
                "address": "0x0000000000000000000000000000000000000004",
                "label": "Precompiled"
            }
        ]
    },
    "trace": {
        "accountLabels": null,
        "dataMap": {
            "-1": {
                "invocation": {
                    "address": "0x220edc1fca33d05a5357943688a5c28e435cb28b",
                    "callData": "",
                    "decodedMethod": null,
                    "errorInfo": "",
                    "fromAddress": "",
                    "gasUsed": 0,
                    "id": -1,
                    "methodDecoded": false,
                    "operation": "",
                    "output": "",
                    "revert": false,
                    "revertMessage": "",
                    "selector": "",
                    "status": false,
                    "value": ""
                },
                "nodeType": 0
            },
            "0": {
                "invocation": {
                    "address": "0x114e54a100a0415abf9727234c92c83dbcc59abf",
                    "callData": "0x00000000000000000000000000000000000000000000000000000000000000e00000000000000000000000000000000000000000000000000000000000000005000000000000000000000000521ed11081dfdb23f7cf18deded232fa6b9c4a910000000000000000000000000000000000000000000000000000000000000007000000000000000000000000220edc1fca33d05a5357943688a5c28e435cb28b000000000000000000000000000000000000000000000000000000000000000000000000000000000000000000000000000000000000000000000000000000000000000000000000000000000000000000000000000000000000000000000664e7acab24000000000000000000000000000000000000000000000000000000000000008000000000000000000000000000000000000000000000000000000000000006400000000000000000000000000000000000000000000000000000000000000000000000000000000000000000220edc1fca33d05a5357943688a5c28e435cb28b00000000000000000000000000000000000000000000000000000000000000a000000000000000000000000000000000000000000000000000000000000000010000000000000000000000000000000000000000000000000000000000000001000000000000000000000000000000000000000000000000000000000000052000000000000000000000000000000000000000000000000000000000000005a0000000000000000000000000bf30b62cf10a9943e7084fbc98a71a3c00c29c7d000000000000000000000000004c00500000ad104d7dbd00e3ae0a5c00560c00000000000000000000000000000000000000000000000000000000000000016000000000000000000000000000000000000000000000000000000000000002200000000000000000000000000000000000000000000000000000000000000002000000000000000000000000000000000000000000000000000000006394fe8a0000000000000000000000000000000000000000000000000000000063bc8b8b000000000000000000000000000000000000000000000000000000000000000072db8c0b000000000000000000000000000000000000000054eb54460b8740c00000007b02230091a7ed01230072f7006a004d60a8d4e71d599b8104250f0000000000000000000000000000000000000000000000000000000000000000000300000000000000000000000000000000000000000000000000000000000000010000000000000000000000000000000000000000000000000000000000000002000000000000000000000000521ed11081dfdb23f7cf18deded232fa6b9c4a91000000000000000000000000000000000000000000000000000000000000000700000000000000000000000000000000000000000000000000000000000000010000000000000000000000000000000000000000000000000000000000000001000000000000000000000000000000000000000000000000000000000000000300000000000000000000000000000000000000000000000000000000000000000000000000000000000000000000000000000000000000000000000000000000000000000000000000000000000000000000000000000000000000000000000000000000000000000000000000000000000000000000000000365b44d910400000000000000000000000000000000000000000000000000000365b44d9104000000000000000000000000000bf30b62cf10a9943e7084fbc98a71a3c00c29c7d000000000000000000000000000000000000000000000000000000000000000000000000000000000000000000000000000000000000000000000000000000000000000000000000000000000000000000000000000000000000000000000000000000000000000000000000000000000000000000000000000182890607900000000000000000000000000000000000000000000000000000018289060790000000000000000000000000000000a26b00c1f0df003000390027140000faa7190000000000000000000000000000000000000000000000000000000000000000000000000000000000000000000000000000000000000000000000000000000000000000000000000000000000000000000000000000000000000000000000000000000000000000000000000000000000000000000000000004879b1216b0000000000000000000000000000000000000000000000000000004879b1216b000000000000000000000000000daa17320eba6caf85d8fb5678aee28a169e0d9e20000000000000000000000000000000000000000000000000000000000000041542539931275826c7bf437fd5796eaad447a4c6b63be817f6c31b2e195bc919f2fa2ca1a99333a09ab16f61521e6cdd141c56da02d23816c355c6b6ac34ca53e1c000000000000000000000000000000000000000000000000000000000000000000000000000000000000000000000000000000000000000000000000000000000000000000000000000000000000000000000000000000000000000000000000000000000000000000000000000000000000000000000000000000",
                    "decodedMethod": null,
                    "errorInfo": "",
                    "fromAddress": "0x220edc1fca33d05a5357943688a5c28e435cb28b",
                    "gasUsed": 191081,
                    "id": 0,
                    "methodDecoded": false,
                    "operation": "CALL",
                    "output": "",
                    "revert": false,
                    "revertMessage": "",
                    "selector": "0xa294ae64",
                    "status": true,
                    "value": "0.017"
                },
                "nodeType": 0
            },
            "1": {
                "invocation": {
                    "address": "0x00000000006c3852cbef3e08e8df289169ede581",
                    "callData": "0x000000000000000000000000000000000000000000000000000000000000008000000000000000000000000000000000000000000000000000000000000006400000000000000000000000000000000000000000000000000000000000000000000000000000000000000000220edc1fca33d05a5357943688a5c28e435cb28b00000000000000000000000000000000000000000000000000000000000000a000000000000000000000000000000000000000000000000000000000000000010000000000000000000000000000000000000000000000000000000000000001000000000000000000000000000000000000000000000000000000000000052000000000000000000000000000000000000000000000000000000000000005a0000000000000000000000000bf30b62cf10a9943e7084fbc98a71a3c00c29c7d000000000000000000000000004c00500000ad104d7dbd00e3ae0a5c00560c00000000000000000000000000000000000000000000000000000000000000016000000000000000000000000000000000000000000000000000000000000002200000000000000000000000000000000000000000000000000000000000000002000000000000000000000000000000000000000000000000000000006394fe8a0000000000000000000000000000000000000000000000000000000063bc8b8b000000000000000000000000000000000000000000000000000000000000000072db8c0b000000000000000000000000000000000000000054eb54460b8740c00000007b02230091a7ed01230072f7006a004d60a8d4e71d599b8104250f0000000000000000000000000000000000000000000000000000000000000000000300000000000000000000000000000000000000000000000000000000000000010000000000000000000000000000000000000000000000000000000000000002000000000000000000000000521ed11081dfdb23f7cf18deded232fa6b9c4a91000000000000000000000000000000000000000000000000000000000000000700000000000000000000000000000000000000000000000000000000000000010000000000000000000000000000000000000000000000000000000000000001000000000000000000000000000000000000000000000000000000000000000300000000000000000000000000000000000000000000000000000000000000000000000000000000000000000000000000000000000000000000000000000000000000000000000000000000000000000000000000000000000000000000000000000000000000000000000000000000000000000000000000365b44d910400000000000000000000000000000000000000000000000000000365b44d9104000000000000000000000000000bf30b62cf10a9943e7084fbc98a71a3c00c29c7d000000000000000000000000000000000000000000000000000000000000000000000000000000000000000000000000000000000000000000000000000000000000000000000000000000000000000000000000000000000000000000000000000000000000000000000000000000000000000000000000000182890607900000000000000000000000000000000000000000000000000000018289060790000000000000000000000000000000a26b00c1f0df003000390027140000faa7190000000000000000000000000000000000000000000000000000000000000000000000000000000000000000000000000000000000000000000000000000000000000000000000000000000000000000000000000000000000000000000000000000000000000000000000000000000000000000000000000004879b1216b0000000000000000000000000000000000000000000000000000004879b1216b000000000000000000000000000daa17320eba6caf85d8fb5678aee28a169e0d9e20000000000000000000000000000000000000000000000000000000000000041542539931275826c7bf437fd5796eaad447a4c6b63be817f6c31b2e195bc919f2fa2ca1a99333a09ab16f61521e6cdd141c56da02d23816c355c6b6ac34ca53e1c0000000000000000000000000000000000000000000000000000000000000000000000000000000000000000000000000000000000000000000000000000000000000000000000000000000000000000000000000000000000000000000000",
                    "decodedMethod": {
                        "callParams": [
                            {
                                "name": "advancedOrder",
                                "type": "((address,address,(uint8,address,uint256,uint256,uint256)[],(uint8,address,uint256,uint256,uint256,address)[],uint8,uint256,uint256,bytes32,uint256,bytes32,uint256),uint120,uint120,bytes,bytes)",
                                "value": [
                                    {
                                        "name": "parameters",
                                        "type": "(address,address,(uint8,address,uint256,uint256,uint256)[],(uint8,address,uint256,uint256,uint256,address)[],uint8,uint256,uint256,bytes32,uint256,bytes32,uint256)",
                                        "value": [
                                            {
                                                "name": "offerer",
                                                "type": "address",
                                                "value": "0xbf30b62cf10a9943e7084fbc98a71a3c00c29c7d"
                                            },
                                            {
                                                "name": "zone",
                                                "type": "address",
                                                "value": "0x004c00500000ad104d7dbd00e3ae0a5c00560c00"
                                            },
                                            {
                                                "name": "offer",
                                                "type": "(uint8,address,uint256,uint256,uint256)[]",
                                                "value": [
                                                    [
                                                        {
                                                            "name": "itemType",
                                                            "type": "uint8",
                                                            "value": "2"
                                                        },
                                                        {
                                                            "name": "token",
                                                            "type": "address",
                                                            "value": "0x521ed11081dfdb23f7cf18deded232fa6b9c4a91"
                                                        },
                                                        {
                                                            "name": "identifierOrCriteria",
                                                            "type": "uint256",
                                                            "value": "7"
                                                        },
                                                        {
                                                            "name": "startAmount",
                                                            "type": "uint256",
                                                            "value": "1"
                                                        },
                                                        {
                                                            "name": "endAmount",
                                                            "type": "uint256",
                                                            "value": "1"
                                                        }
                                                    ]
                                                ]
                                            },
                                            {
                                                "name": "consideration",
                                                "type": "(uint8,address,uint256,uint256,uint256,address)[]",
                                                "value": [
                                                    [
                                                        {
                                                            "name": "itemType",
                                                            "type": "uint8",
                                                            "value": "0"
                                                        },
                                                        {
                                                            "name": "token",
                                                            "type": "address",
                                                            "value": "0x0000000000000000000000000000000000000000"
                                                        },
                                                        {
                                                            "name": "identifierOrCriteria",
                                                            "type": "uint256",
                                                            "value": "0"
                                                        },
                                                        {
                                                            "name": "startAmount",
                                                            "type": "uint256",
                                                            "value": "15,300,000,000,000,000"
                                                        },
                                                        {
                                                            "name": "endAmount",
                                                            "type": "uint256",
                                                            "value": "15,300,000,000,000,000"
                                                        },
                                                        {
                                                            "name": "recipient",
                                                            "type": "address",
                                                            "value": "0xbf30b62cf10a9943e7084fbc98a71a3c00c29c7d"
                                                        }
                                                    ],
                                                    [
                                                        {
                                                            "name": "itemType",
                                                            "type": "uint8",
                                                            "value": "0"
                                                        },
                                                        {
                                                            "name": "token",
                                                            "type": "address",
                                                            "value": "0x0000000000000000000000000000000000000000"
                                                        },
                                                        {
                                                            "name": "identifierOrCriteria",
                                                            "type": "uint256",
                                                            "value": "0"
                                                        },
                                                        {
                                                            "name": "startAmount",
                                                            "type": "uint256",
                                                            "value": "425,000,000,000,000"
                                                        },
                                                        {
                                                            "name": "endAmount",
                                                            "type": "uint256",
                                                            "value": "425,000,000,000,000"
                                                        },
                                                        {
                                                            "name": "recipient",
                                                            "type": "address",
                                                            "value": "0x0000a26b00c1f0df003000390027140000faa719"
                                                        }
                                                    ],
                                                    [
                                                        {
                                                            "name": "itemType",
                                                            "type": "uint8",
                                                            "value": "0"
                                                        },
                                                        {
                                                            "name": "token",
                                                            "type": "address",
                                                            "value": "0x0000000000000000000000000000000000000000"
                                                        },
                                                        {
                                                            "name": "identifierOrCriteria",
                                                            "type": "uint256",
                                                            "value": "0"
                                                        },
                                                        {
                                                            "name": "startAmount",
                                                            "type": "uint256",
                                                            "value": "1,275,000,000,000,000"
                                                        },
                                                        {
                                                            "name": "endAmount",
                                                            "type": "uint256",
                                                            "value": "1,275,000,000,000,000"
                                                        },
                                                        {
                                                            "name": "recipient",
                                                            "type": "address",
                                                            "value": "0xdaa17320eba6caf85d8fb5678aee28a169e0d9e2"
                                                        }
                                                    ]
                                                ]
                                            },
                                            {
                                                "name": "orderType",
                                                "type": "uint8",
                                                "value": "2"
                                            },
                                            {
                                                "name": "startTime",
                                                "type": "uint256",
                                                "value": "1,670,708,874"
                                            },
                                            {
                                                "name": "endTime",
                                                "type": "uint256",
                                                "value": "1,673,300,875"
                                            },
                                            {
                                                "name": "zoneHash",
                                                "type": "bytes32",
                                                "value": "0x0000000000000000000000000000000000000000000000000000000000000000"
                                            },
                                            {
                                                "name": "salt",
                                                "type": "uint256",
                                                "value": "51,951,570,786,726,798,460,324,975,021,501,917,861,654,789,585,098,516,727,719,726,259,316,474,724,544"
                                            },
                                            {
                                                "name": "conduitKey",
                                                "type": "bytes32",
                                                "value": "0x0000007b02230091a7ed01230072f7006a004d60a8d4e71d599b8104250f0000"
                                            },
                                            {
                                                "name": "totalOriginalConsiderationItems",
                                                "type": "uint256",
                                                "value": "3"
                                            }
                                        ]
                                    },
                                    {
                                        "name": "numerator",
                                        "type": "uint120",
                                        "value": "1"
                                    },
                                    {
                                        "name": "denominator",
                                        "type": "uint120",
                                        "value": "1"
                                    },
                                    {
                                        "name": "signature",
                                        "type": "bytes",
                                        "value": "0x542539931275826c7bf437fd5796eaad447a4c6b63be817f6c31b2e195bc919f2fa2ca1a99333a09ab16f61521e6cdd141c56da02d23816c355c6b6ac34ca53e1c"
                                    },
                                    {
                                        "name": "extraData",
                                        "type": "bytes",
                                        "value": "0x"
                                    }
                                ]
                            },
                            {
                                "name": "criteriaResolvers",
                                "type": "(uint256,uint8,uint256,uint256,bytes32[])[]",
                                "value": []
                            },
                            {
                                "name": "fulfillerConduitKey",
                                "type": "bytes32",
                                "value": "0x0000000000000000000000000000000000000000000000000000000000000000"
                            },
                            {
                                "name": "recipient",
                                "type": "address",
                                "value": "0x220edc1fca33d05a5357943688a5c28e435cb28b"
                            }
                        ],
                        "constructorArguments": "",
                        "name": "fulfillAdvancedOrder",
                        "returnParams": [
                            {
                                "name": "fulfilled",
                                "type": "bool",
                                "value": true
                            }
                        ],
                        "signature": "fulfillAdvancedOrder(((address,address,(uint8,address,uint256,uint256,uint256)[],(uint8,address,uint256,uint256,uint256,address)[],uint8,uint256,uint256,bytes32,uint256,bytes32,uint256),uint120,uint120,bytes,bytes),(uint256,uint8,uint256,uint256,bytes32[])[],bytes32,address)"
                    },
                    "errorInfo": "",
                    "fromAddress": "0x114e54a100a0415abf9727234c92c83dbcc59abf",
                    "gasUsed": 144804,
                    "id": 1,
                    "methodDecoded": true,
                    "operation": "CALL",
                    "output": "0x0000000000000000000000000000000000000000000000000000000000000001",
                    "revert": false,
                    "revertMessage": "",
                    "selector": "0xe7acab24",
                    "status": true,
                    "value": "0.017"
                },
                "nodeType": 0
            },
            "10": {
                "invocation": {
                    "address": "0x000000000000aaeb6d7670e522a718067333cd4e",
                    "callData": "0x000000000000000000000000521ed11081dfdb23f7cf18deded232fa6b9c4a91000000000000000000000000bf30b62cf10a9943e7084fbc98a71a3c00c29c7d",
                    "decodedMethod": {
                        "callParams": [
                            {
                                "name": "registrant",
                                "type": "address",
                                "value": "0x521ed11081dfdb23f7cf18deded232fa6b9c4a91"
                            },
                            {
                                "name": "operator",
                                "type": "address",
                                "value": "0xbf30b62cf10a9943e7084fbc98a71a3c00c29c7d"
                            }
                        ],
                        "constructorArguments": "",
                        "name": "isOperatorAllowed",
                        "returnParams": [
                            {
                                "name": "",
                                "type": "bool",
                                "value": true
                            }
                        ],
                        "signature": "isOperatorAllowed(address,address)"
                    },
                    "errorInfo": "",
                    "fromAddress": "0x521ed11081dfdb23f7cf18deded232fa6b9c4a91",
                    "gasUsed": 3264,
                    "id": 10,
                    "methodDecoded": true,
                    "operation": "STATICCALL",
                    "output": "0x0000000000000000000000000000000000000000000000000000000000000001",
                    "revert": false,
                    "revertMessage": "",
                    "selector": "0xc6171134",
                    "status": true,
                    "value": "0"
                },
                "nodeType": 0
            },
            "11": {
                "event": {
                    "contract": "0x521ed11081dfdb23f7cf18deded232fa6b9c4a91",
                    "decodedLog": {
                        "name": "Approval",
                        "params": [
                            {
                                "name": "owner",
                                "type": "address",
                                "value": "0xbf30b62cf10a9943e7084fbc98a71a3c00c29c7d"
                            },
                            {
                                "name": "approved",
                                "type": "address",
                                "value": "0x0000000000000000000000000000000000000000"
                            },
                            {
                                "decimalAvailable": true,
                                "name": "tokenId",
                                "type": "uint256",
                                "value": "7"
                            }
                        ],
                        "signature": "Approval(address,address,uint256)"
                    },
                    "id": 11,
                    "logData": "0x",
                    "logDecoded": true,
                    "operation": "EVENT",
                    "revert": false,
                    "status": true,
                    "topics": [
                        "0x8c5be1e5ebec7d5bd14f71427d1e84f3dd0314c0f7b2291e5b200ac8c7c3b925",
                        "0x000000000000000000000000bf30b62cf10a9943e7084fbc98a71a3c00c29c7d",
                        "0x0000000000000000000000000000000000000000000000000000000000000000",
                        "0x0000000000000000000000000000000000000000000000000000000000000007"
                    ]
                },
                "nodeType": 1
            },
            "12": {
                "event": {
                    "contract": "0x521ed11081dfdb23f7cf18deded232fa6b9c4a91",
                    "decodedLog": {
                        "name": "Transfer",
                        "params": [
                            {
                                "name": "from",
                                "type": "address",
                                "value": "0xbf30b62cf10a9943e7084fbc98a71a3c00c29c7d"
                            },
                            {
                                "name": "to",
                                "type": "address",
                                "value": "0x220edc1fca33d05a5357943688a5c28e435cb28b"
                            },
                            {
                                "decimalAvailable": true,
                                "name": "tokenId",
                                "type": "uint256",
                                "value": "7"
                            }
                        ],
                        "signature": "Transfer(address,address,uint256)"
                    },
                    "id": 12,
                    "logData": "0x",
                    "logDecoded": true,
                    "operation": "EVENT",
                    "revert": false,
                    "status": true,
                    "topics": [
                        "0xddf252ad1be2c89b69c2b068fc378daa952ba7f163c4a11628f55a4df523b3ef",
                        "0x000000000000000000000000bf30b62cf10a9943e7084fbc98a71a3c00c29c7d",
                        "0x000000000000000000000000220edc1fca33d05a5357943688a5c28e435cb28b",
                        "0x0000000000000000000000000000000000000000000000000000000000000007"
                    ]
                },
                "nodeType": 1
            },
            "13": {
                "event": {
                    "contract": "0x00000000006c3852cbef3e08e8df289169ede581",
                    "decodedLog": {
                        "name": "OrderFulfilled",
                        "params": [
                            {
                                "name": "offerer",
                                "type": "address",
                                "value": "0xbf30b62cf10a9943e7084fbc98a71a3c00c29c7d"
                            },
                            {
                                "name": "zone",
                                "type": "address",
                                "value": "0x004c00500000ad104d7dbd00e3ae0a5c00560c00"
                            },
                            {
                                "name": "orderHash",
                                "type": "bytes32",
                                "value": "0x38f5617901fa44e751e93f092f3713079d2d4bb1238349c6681d8b1012887e6b"
                            },
                            {
                                "name": "recipient",
                                "type": "address",
                                "value": "0x220edc1fca33d05a5357943688a5c28e435cb28b"
                            },
                            {
                                "name": "offer",
                                "type": "(uint8,address,uint256,uint256)[]",
                                "value": [
                                    [
                                        {
                                            "name": "itemType",
                                            "type": "uint8",
                                            "value": "2"
                                        },
                                        {
                                            "name": "token",
                                            "type": "address",
                                            "value": "0x521ed11081dfdb23f7cf18deded232fa6b9c4a91"
                                        },
                                        {
                                            "name": "identifier",
                                            "type": "uint256",
                                            "value": "7"
                                        },
                                        {
                                            "name": "amount",
                                            "type": "uint256",
                                            "value": "1"
                                        }
                                    ]
                                ]
                            },
                            {
                                "name": "consideration",
                                "type": "(uint8,address,uint256,uint256,address)[]",
                                "value": [
                                    [
                                        {
                                            "name": "itemType",
                                            "type": "uint8",
                                            "value": "0"
                                        },
                                        {
                                            "name": "token",
                                            "type": "address",
                                            "value": "0x0000000000000000000000000000000000000000"
                                        },
                                        {
                                            "name": "identifier",
                                            "type": "uint256",
                                            "value": "0"
                                        },
                                        {
                                            "name": "amount",
                                            "type": "uint256",
                                            "value": "15,300,000,000,000,000"
                                        },
                                        {
                                            "name": "recipient",
                                            "type": "address",
                                            "value": "0xbf30b62cf10a9943e7084fbc98a71a3c00c29c7d"
                                        }
                                    ],
                                    [
                                        {
                                            "name": "itemType",
                                            "type": "uint8",
                                            "value": "0"
                                        },
                                        {
                                            "name": "token",
                                            "type": "address",
                                            "value": "0x0000000000000000000000000000000000000000"
                                        },
                                        {
                                            "name": "identifier",
                                            "type": "uint256",
                                            "value": "0"
                                        },
                                        {
                                            "name": "amount",
                                            "type": "uint256",
                                            "value": "425,000,000,000,000"
                                        },
                                        {
                                            "name": "recipient",
                                            "type": "address",
                                            "value": "0x0000a26b00c1f0df003000390027140000faa719"
                                        }
                                    ],
                                    [
                                        {
                                            "name": "itemType",
                                            "type": "uint8",
                                            "value": "0"
                                        },
                                        {
                                            "name": "token",
                                            "type": "address",
                                            "value": "0x0000000000000000000000000000000000000000"
                                        },
                                        {
                                            "name": "identifier",
                                            "type": "uint256",
                                            "value": "0"
                                        },
                                        {
                                            "name": "amount",
                                            "type": "uint256",
                                            "value": "1,275,000,000,000,000"
                                        },
                                        {
                                            "name": "recipient",
                                            "type": "address",
                                            "value": "0xdaa17320eba6caf85d8fb5678aee28a169e0d9e2"
                                        }
                                    ]
                                ]
                            }
                        ],
                        "signature": "OrderFulfilled(bytes32,address,address,address,(uint8,address,uint256,uint256)[],(uint8,address,uint256,uint256,address)[])"
                    },
                    "id": 13,
                    "logData": "0x38f5617901fa44e751e93f092f3713079d2d4bb1238349c6681d8b1012887e6b000000000000000000000000220edc1fca33d05a5357943688a5c28e435cb28b0000000000000000000000000000000000000000000000000000000000000080000000000000000000000000000000000000000000000000000000000000012000000000000000000000000000000000000000000000000000000000000000010000000000000000000000000000000000000000000000000000000000000002000000000000000000000000521ed11081dfdb23f7cf18deded232fa6b9c4a9100000000000000000000000000000000000000000000000000000000000000070000000000000000000000000000000000000000000000000000000000000001000000000000000000000000000000000000000000000000000000000000000300000000000000000000000000000000000000000000000000000000000000000000000000000000000000000000000000000000000000000000000000000000000000000000000000000000000000000000000000000000000000000000000000000000000000000000000000000000000000000000000000365b44d9104000000000000000000000000000bf30b62cf10a9943e7084fbc98a71a3c00c29c7d00000000000000000000000000000000000000000000000000000000000000000000000000000000000000000000000000000000000000000000000000000000000000000000000000000000000000000000000000000000000000000000000000000000000000000000000000000000000000000000000000018289060790000000000000000000000000000000a26b00c1f0df003000390027140000faa7190000000000000000000000000000000000000000000000000000000000000000000000000000000000000000000000000000000000000000000000000000000000000000000000000000000000000000000000000000000000000000000000000000000000000000000000000000000000000000000000000004879b1216b000000000000000000000000000daa17320eba6caf85d8fb5678aee28a169e0d9e2",
                    "logDecoded": true,
                    "operation": "EVENT",
                    "revert": false,
                    "status": true,
                    "topics": [
                        "0x9d9af8e38d66c62e2c12f0225249fd9d721c54b83f48d9352c97c6cacdcb6f31",
                        "0x000000000000000000000000bf30b62cf10a9943e7084fbc98a71a3c00c29c7d",
                        "0x000000000000000000000000004c00500000ad104d7dbd00e3ae0a5c00560c00"
                    ]
                },
                "nodeType": 1
            },
            "2": {
                "invocation": {
                    "address": "0x004c00500000ad104d7dbd00e3ae0a5c00560c00",
                    "callData": "0x38f5617901fa44e751e93f092f3713079d2d4bb1238349c6681d8b1012887e6b000000000000000000000000114e54a100a0415abf9727234c92c83dbcc59abf000000000000000000000000bf30b62cf10a9943e7084fbc98a71a3c00c29c7d0000000000000000000000000000000000000000000000000000000000000000",
                    "decodedMethod": {
                        "callParams": [
                            {
                                "name": "orderHash",
                                "type": "bytes32",
                                "value": "0x38f5617901fa44e751e93f092f3713079d2d4bb1238349c6681d8b1012887e6b"
                            },
                            {
                                "name": "caller",
                                "type": "address",
                                "value": "0x114e54a100a0415abf9727234c92c83dbcc59abf"
                            },
                            {
                                "name": "offerer",
                                "type": "address",
                                "value": "0xbf30b62cf10a9943e7084fbc98a71a3c00c29c7d"
                            },
                            {
                                "name": "zoneHash",
                                "type": "bytes32",
                                "value": "0x0000000000000000000000000000000000000000000000000000000000000000"
                            }
                        ],
                        "constructorArguments": "",
                        "name": "isValidOrder",
                        "returnParams": [
                            {
                                "name": "validOrderMagicValue",
                                "type": "bytes4",
                                "value": "0x0e1d31dc"
                            }
                        ],
                        "signature": "isValidOrder(bytes32,address,address,bytes32)"
                    },
                    "errorInfo": "",
                    "fromAddress": "0x00000000006c3852cbef3e08e8df289169ede581",
                    "gasUsed": 257,
                    "id": 2,
                    "methodDecoded": true,
                    "operation": "STATICCALL",
                    "output": "0x0e1d31dc00000000000000000000000000000000000000000000000000000000",
                    "revert": false,
                    "revertMessage": "",
                    "selector": "0x0e1d31dc",
                    "status": true,
                    "value": "0"
                },
                "nodeType": 0
            },
            "3": {
                "invocation": {
                    "address": "0x0000000000000000000000000000000000000001",
                    "callData": "0x97c9eae9cada95becc00aa57ced2a2bcf224bdd9d1af23a96d96022f000000000000000000000000000000000000000000000000000000000000001c542539931275826c7bf437fd5796eaad447a4c6b63be817f6c31b2e195bc919f2fa2ca1a99333a09ab16f61521e6cdd141c56da02d23816c355c6b6ac34ca53e",
                    "decodedMethod": {
                        "callParams": [
                            {
                                "name": "hash",
                                "type": "bytes32",
                                "value": "0xf018ca0497c9eae9cada95becc00aa57ced2a2bcf224bdd9d1af23a96d96022f"
                            },
                            {
                                "name": "v",
                                "type": "uint256",
                                "value": "28"
                            },
                            {
                                "name": "r",
                                "type": "bytes32",
                                "value": "0x542539931275826c7bf437fd5796eaad447a4c6b63be817f6c31b2e195bc919f"
                            },
                            {
                                "name": "s",
                                "type": "bytes32",
                                "value": "0x2fa2ca1a99333a09ab16f61521e6cdd141c56da02d23816c355c6b6ac34ca53e"
                            }
                        ],
                        "constructorArguments": "",
                        "name": "ecrecover",
                        "returnParams": [
                            {
                                "name": "",
                                "type": "address",
                                "value": "0xbf30b62cf10a9943e7084fbc98a71a3c00c29c7d"
                            }
                        ],
                        "signature": "ecrecover(bytes32,uint256,bytes32,bytes32)"
                    },
                    "errorInfo": "",
                    "fromAddress": "0x00000000006c3852cbef3e08e8df289169ede581",
                    "gasUsed": 3000,
                    "id": 3,
                    "methodDecoded": true,
                    "operation": "STATICCALL",
                    "output": "0x000000000000000000000000bf30b62cf10a9943e7084fbc98a71a3c00c29c7d",
                    "revert": false,
                    "revertMessage": "",
                    "selector": "0xf018ca04",
                    "status": true,
                    "value": "0"
                },
                "nodeType": 0
            },
            "4": {
                "invocation": {
                    "address": "0xbf30b62cf10a9943e7084fbc98a71a3c00c29c7d",
                    "callData": "0x",
                    "decodedMethod": null,
                    "errorInfo": "",
                    "fromAddress": "0x00000000006c3852cbef3e08e8df289169ede581",
                    "gasUsed": 0,
                    "id": 4,
                    "methodDecoded": false,
                    "operation": "CALL",
                    "output": "",
                    "revert": false,
                    "revertMessage": "",
                    "selector": "fallback",
                    "status": true,
                    "value": "0.0153"
                },
                "nodeType": 0
            },
            "5": {
                "invocation": {
                    "address": "0x0000a26b00c1f0df003000390027140000faa719",
                    "callData": "0x",
                    "decodedMethod": null,
                    "errorInfo": "",
                    "fromAddress": "0x00000000006c3852cbef3e08e8df289169ede581",
                    "gasUsed": 85,
                    "id": 5,
                    "methodDecoded": false,
                    "operation": "CALL",
                    "output": "",
                    "revert": false,
                    "revertMessage": "",
                    "selector": "fallback",
                    "status": true,
                    "value": "0.000425"
                },
                "nodeType": 0
            },
            "6": {
                "invocation": {
                    "address": "0xdaa17320eba6caf85d8fb5678aee28a169e0d9e2",
                    "callData": "0x",
                    "decodedMethod": null,
                    "errorInfo": "",
                    "fromAddress": "0x00000000006c3852cbef3e08e8df289169ede581",
                    "gasUsed": 0,
                    "id": 6,
                    "methodDecoded": false,
                    "operation": "CALL",
                    "output": "",
                    "revert": false,
                    "revertMessage": "",
                    "selector": "fallback",
                    "status": true,
                    "value": "0.001275"
                },
                "nodeType": 0
            },
            "7": {
                "invocation": {
                    "address": "0x1e0049783f008a0085193e00003d00cd54003c71",
                    "callData": "0x000000000000000000000000000000000000000000000000000000000000002000000000000000000000000000000000000000000000000000000000000000010000000000000000000000000000000000000000000000000000000000000002000000000000000000000000521ed11081dfdb23f7cf18deded232fa6b9c4a91000000000000000000000000bf30b62cf10a9943e7084fbc98a71a3c00c29c7d000000000000000000000000220edc1fca33d05a5357943688a5c28e435cb28b00000000000000000000000000000000000000000000000000000000000000070000000000000000000000000000000000000000000000000000000000000001",
                    "decodedMethod": {
                        "callParams": [
                            {
                                "name": "transfers",
                                "type": "(uint8,address,address,address,uint256,uint256)[]",
                                "value": [
                                    [
                                        {
                                            "name": "itemType",
                                            "type": "uint8",
                                            "value": "2"
                                        },
                                        {
                                            "name": "token",
                                            "type": "address",
                                            "value": "0x521ed11081dfdb23f7cf18deded232fa6b9c4a91"
                                        },
                                        {
                                            "name": "from",
                                            "type": "address",
                                            "value": "0xbf30b62cf10a9943e7084fbc98a71a3c00c29c7d"
                                        },
                                        {
                                            "name": "to",
                                            "type": "address",
                                            "value": "0x220edc1fca33d05a5357943688a5c28e435cb28b"
                                        },
                                        {
                                            "name": "identifier",
                                            "type": "uint256",
                                            "value": "7"
                                        },
                                        {
                                            "name": "amount",
                                            "type": "uint256",
                                            "value": "1"
                                        }
                                    ]
                                ]
                            }
                        ],
                        "constructorArguments": "",
                        "name": "execute",
                        "returnParams": [
                            {
                                "name": "magicValue",
                                "type": "bytes4",
                                "value": "0x4ce34aa2"
                            }
                        ],
                        "signature": "execute((uint8,address,address,address,uint256,uint256)[])"
                    },
                    "errorInfo": "",
                    "fromAddress": "0x00000000006c3852cbef3e08e8df289169ede581",
                    "gasUsed": 51567,
                    "id": 7,
                    "methodDecoded": true,
                    "operation": "CALL",
                    "output": "0x4ce34aa200000000000000000000000000000000000000000000000000000000",
                    "revert": false,
                    "revertMessage": "",
                    "selector": "0x4ce34aa2",
                    "status": true,
                    "value": "0"
                },
                "nodeType": 0
            },
            "8": {
                "invocation": {
                    "address": "0x521ed11081dfdb23f7cf18deded232fa6b9c4a91",
                    "callData": "0x000000000000000000000000bf30b62cf10a9943e7084fbc98a71a3c00c29c7d000000000000000000000000220edc1fca33d05a5357943688a5c28e435cb28b0000000000000000000000000000000000000000000000000000000000000007",
                    "decodedMethod": {
                        "callParams": [
                            {
                                "name": "from",
                                "type": "address",
                                "value": "0xbf30b62cf10a9943e7084fbc98a71a3c00c29c7d"
                            },
                            {
                                "name": "to",
                                "type": "address",
                                "value": "0x220edc1fca33d05a5357943688a5c28e435cb28b"
                            },
                            {
                                "decimalAvailable": true,
                                "name": "tokenId",
                                "type": "uint256",
                                "value": "7"
                            }
                        ],
                        "constructorArguments": "",
                        "name": "transferFrom",
                        "returnParams": [],
                        "signature": "transferFrom(address,address,uint256)"
                    },
                    "errorInfo": "",
                    "fromAddress": "0x1e0049783f008a0085193e00003d00cd54003c71",
                    "gasUsed": 45451,
                    "id": 8,
                    "methodDecoded": true,
                    "operation": "CALL",
                    "output": "",
                    "revert": false,
                    "revertMessage": "",
                    "selector": "0x23b872dd",
                    "status": true,
                    "value": "0"
                },
                "nodeType": 0
            },
            "9": {
                "invocation": {
                    "address": "0x000000000000aaeb6d7670e522a718067333cd4e",
                    "callData": "0x000000000000000000000000521ed11081dfdb23f7cf18deded232fa6b9c4a910000000000000000000000001e0049783f008a0085193e00003d00cd54003c71",
                    "decodedMethod": {
                        "callParams": [
                            {
                                "name": "registrant",
                                "type": "address",
                                "value": "0x521ed11081dfdb23f7cf18deded232fa6b9c4a91"
                            },
                            {
                                "name": "operator",
                                "type": "address",
                                "value": "0x1e0049783f008a0085193e00003d00cd54003c71"
                            }
                        ],
                        "constructorArguments": "",
                        "name": "isOperatorAllowed",
                        "returnParams": [
                            {
                                "name": "",
                                "type": "bool",
                                "value": true
                            }
                        ],
                        "signature": "isOperatorAllowed(address,address)"
                    },
                    "errorInfo": "",
                    "fromAddress": "0x521ed11081dfdb23f7cf18deded232fa6b9c4a91",
                    "gasUsed": 7627,
                    "id": 9,
                    "methodDecoded": true,
                    "operation": "STATICCALL",
                    "output": "0x0000000000000000000000000000000000000000000000000000000000000001",
                    "revert": false,
                    "revertMessage": "",
                    "selector": "0xc6171134",
                    "status": true,
                    "value": "0"
                },
                "nodeType": 0
            }
        },
        "gasFlame": [
            {
                "children": [
                    {
                        "children": [
                            {
                                "children": [],
                                "depth": 0,
                                "name": "Initial Gas",
                                "value": 32812
                            },
                            {
                                "children": [
                                    {
                                        "children": [
                                            {
                                                "children": [],
                                                "depth": 2,
                                                "name": "isValidOrder",
                                                "value": 257
                                            },
                                            {
                                                "children": [],
                                                "depth": 2,
                                                "name": "ecrecover",
                                                "value": 3000
                                            },
                                            {
                                                "children": [],
                                                "depth": 2,
                                                "name": "fallback",
                                                "value": 0
                                            },
                                            {
                                                "children": [],
                                                "depth": 2,
                                                "name": "fallback",
                                                "value": 85
                                            },
                                            {
                                                "children": [],
                                                "depth": 2,
                                                "name": "fallback",
                                                "value": 0
                                            },
                                            {
                                                "children": [
                                                    {
                                                        "children": [
                                                            {
                                                                "children": [],
                                                                "depth": 4,
                                                                "name": "isOperatorAllowed",
                                                                "value": 7627
                                                            },
                                                            {
                                                                "children": [],
                                                                "depth": 4,
                                                                "name": "isOperatorAllowed",
                                                                "value": 3264
                                                            }
                                                        ],
                                                        "depth": 3,
                                                        "name": "transferFrom",
                                                        "value": 45451
                                                    }
                                                ],
                                                "depth": 2,
                                                "name": "execute",
                                                "value": 51567
                                            }
                                        ],
                                        "depth": 1,
                                        "name": "fulfillAdvancedOrder",
                                        "value": 144804
                                    }
                                ],
                                "depth": 0,
                                "name": "Executed Gas",
                                "value": 163869
                            }
                        ],
                        "depth": -1,
                        "name": "Actual Gas Used",
                        "value": 191081
                    },
                    {
                        "children": [],
                        "depth": -1,
                        "name": "Refunded Gas",
                        "value": 5600
                    }
                ],
                "depth": -2,
                "name": "Total Gas",
                "value": 196681
            }
        ],
        "isConfirmed": true,
        "mainTrace": [
            {
                "children": [
                    {
                        "children": [
                            {
                                "children": [
                                    {
                                        "children": [],
                                        "depth": 2,
                                        "id": 2,
                                        "order": 2
                                    },
                                    {
                                        "children": [],
                                        "depth": 2,
                                        "id": 3,
                                        "order": 3
                                    },
                                    {
                                        "children": [],
                                        "depth": 2,
                                        "id": 4,
                                        "order": 4
                                    },
                                    {
                                        "children": [],
                                        "depth": 2,
                                        "id": 5,
                                        "order": 5
                                    },
                                    {
                                        "children": [],
                                        "depth": 2,
                                        "id": 6,
                                        "order": 6
                                    },
                                    {
                                        "children": [
                                            {
                                                "children": [
                                                    {
                                                        "children": [],
                                                        "depth": 4,
                                                        "id": 9,
                                                        "order": 9
                                                    },
                                                    {
                                                        "children": [],
                                                        "depth": 4,
                                                        "id": 10,
                                                        "order": 10
                                                    },
                                                    {
                                                        "children": [],
                                                        "depth": 4,
                                                        "id": 11,
                                                        "order": 11
                                                    },
                                                    {
                                                        "children": [],
                                                        "depth": 4,
                                                        "id": 12,
                                                        "order": 12
                                                    }
                                                ],
                                                "depth": 3,
                                                "id": 8,
                                                "order": 8
                                            }
                                        ],
                                        "depth": 2,
                                        "id": 7,
                                        "order": 7
                                    },
                                    {
                                        "children": [],
                                        "depth": 2,
                                        "id": 13,
                                        "order": 13
                                    }
                                ],
                                "depth": 1,
                                "id": 1,
                                "order": 1
                            }
                        ],
                        "depth": 0,
                        "id": 0,
                        "order": 0
                    }
                ],
                "depth": -1,
                "id": -1,
                "order": -1
            }
        ],
        "mainTraceNodeCount": 14,
        "parentIdMap": {
            "0": -1,
            "1": 0,
            "10": 8,
            "11": 8,
            "12": 8,
            "13": 1,
            "2": 1,
            "3": 1,
            "4": 1,
            "5": 1,
            "6": 1,
            "7": 1,
            "8": 7,
            "9": 8
        },
        "tidyTrace": [
            {
                "children": [
                    {
                        "children": [
                            {
                                "children": [
                                    {
                                        "children": [],
                                        "depth": 2,
                                        "id": 4,
                                        "order": 4
                                    },
                                    {
                                        "children": [],
                                        "depth": 2,
                                        "id": 5,
                                        "order": 5
                                    },
                                    {
                                        "children": [],
                                        "depth": 2,
                                        "id": 6,
                                        "order": 6
                                    },
                                    {
                                        "children": [
                                            {
                                                "children": [
                                                    {
                                                        "children": [],
                                                        "depth": 4,
                                                        "id": 11,
                                                        "order": 11
                                                    },
                                                    {
                                                        "children": [],
                                                        "depth": 4,
                                                        "id": 12,
                                                        "order": 12
                                                    }
                                                ],
                                                "depth": 3,
                                                "id": 8,
                                                "order": 8
                                            }
                                        ],
                                        "depth": 2,
                                        "id": 7,
                                        "order": 7
                                    },
                                    {
                                        "children": [],
                                        "depth": 2,
                                        "id": 13,
                                        "order": 13
                                    }
                                ],
                                "depth": 1,
                                "id": 1,
                                "order": 1
                            }
                        ],
                        "depth": 0,
                        "id": 0,
                        "order": 0
                    }
                ],
                "depth": -1,
                "id": -1,
                "order": -1
            }
        ],
        "tidyTraceNodeCount": 10
    },
    "state_change": {
        "stateChanges": [
            {
                "address": "0x00000000006c3852cbef3e08e8df289169ede581",
                "erc": "",
                "slots": [
                    {
                        "current": "0x0000000000000000000000000000010000000000000000000000000000010001",
                        "key": "0x0c269b2361d0060ffdeb59fb3d4c7824005132086120464c248a26aeb491b0c1",
                        "prev": "0x0000000000000000000000000000000000000000000000000000000000000000"
                    }
                ],
                "storageVariables": [
                    {
                        "name": "_orderStatus",
                        "type": "mapping(bytes32 => struct OrderStatus)",
                        "value": {
                            "pairs": [
                                {
                                    "key": "0x38f5617901fa44e751e93f092f3713079d2d4bb1238349c6681d8b1012887e6b",
                                    "value": {
                                        "fields": [
                                            {
                                                "name": "isValidated",
                                                "type": "bool",
                                                "value": {
                                                    "current": "true",
                                                    "prev": "false",
                                                    "typeTag": 1
                                                }
                                            },
                                            {
                                                "name": "isCancelled",
                                                "type": "bool",
                                                "value": {
                                                    "current": "false",
                                                    "prev": "false",
                                                    "typeTag": 1
                                                }
                                            },
                                            {
                                                "name": "numerator",
                                                "type": "uint120",
                                                "value": {
                                                    "current": "1",
                                                    "prev": "0",
                                                    "typeTag": 1
                                                }
                                            },
                                            {
                                                "name": "denominator",
                                                "type": "uint120",
                                                "value": {
                                                    "current": "1",
                                                    "prev": "0",
                                                    "typeTag": 1
                                                }
                                            }
                                        ],
                                        "typeTag": 3
                                    }
                                }
                            ],
                            "typeTag": 4
                        }
                    }
                ]
            },
            {
                "address": "0x521ed11081dfdb23f7cf18deded232fa6b9c4a91",
                "erc": "ERC-721",
                "slots": [
                    {
                        "current": "0x0000000000000000000000000000000100000000000000000000000000000000",
                        "key": "0x61c4784bab07211e0d60256db7981c2bb8dbe09d93e834897fc47d38a347a64a",
                        "prev": "0x0000000000000000000000000000000100000000000000000000000000000001"
                    },
                    {
                        "current": "0x0000000000000000000000000000000000000000000000000000000000000002",
                        "key": "0x642c690241e0f6b9434fe53c84f39d1edd602345eff67e351589b44a54f147c8",
                        "prev": "0x0000000000000000000000000000000000000000000000000000000000000001"
                    },
                    {
                        "current": "0x00000000000000006394feb3220edc1fca33d05a5357943688a5c28e435cb28b",
                        "key": "0x4ced6d0d36392b04cc5d8761b1327b3bbba6e1089c77f60a9a9ca18e05e4f00e",
                        "prev": "0x00000000000000006394faabbf30b62cf10a9943e7084fbc98a71a3c00c29c7d"
                    }
                ],
                "storageVariables": [
                    {
                        "name": "_ownerships",
                        "type": "mapping(uint256 => struct ERC721A.TokenOwnership)",
                        "value": {
                            "pairs": [
                                {
                                    "key": "7",
                                    "value": {
                                        "fields": [
                                            {
                                                "name": "addr",
                                                "type": "address",
                                                "value": {
                                                    "current": "0x220edc1fca33d05a5357943688a5c28e435cb28b",
                                                    "prev": "0xbf30b62cf10a9943e7084fbc98a71a3c00c29c7d",
                                                    "typeTag": 1
                                                }
                                            },
                                            {
                                                "name": "startTimestamp",
                                                "type": "uint64",
                                                "value": {
                                                    "current": "1670708915",
                                                    "prev": "1670707883",
                                                    "typeTag": 1
                                                }
                                            }
                                        ],
                                        "typeTag": 3
                                    }
                                }
                            ],
                            "typeTag": 4
                        }
                    },
                    {
                        "name": "_addressData",
                        "type": "mapping(address => struct ERC721A.AddressData)",
                        "value": {
                            "pairs": [
                                {
                                    "key": "0x220edc1fca33d05a5357943688a5c28e435cb28b",
                                    "value": {
                                        "fields": [
                                            {
                                                "name": "balance",
                                                "type": "uint128",
                                                "value": {
                                                    "current": "2",
                                                    "prev": "1",
                                                    "typeTag": 1
                                                }
                                            },
                                            {
                                                "name": "numberMinted",
                                                "type": "uint128",
                                                "value": {
                                                    "current": "0",
                                                    "prev": "0",
                                                    "typeTag": 1
                                                }
                                            }
                                        ],
                                        "typeTag": 3
                                    }
                                },
                                {
                                    "key": "0xbf30b62cf10a9943e7084fbc98a71a3c00c29c7d",
                                    "value": {
                                        "fields": [
                                            {
                                                "name": "balance",
                                                "type": "uint128",
                                                "value": {
                                                    "current": "0",
                                                    "prev": "1",
                                                    "typeTag": 1
                                                }
                                            },
                                            {
                                                "name": "numberMinted",
                                                "type": "uint128",
                                                "value": {
                                                    "current": "1",
                                                    "prev": "1",
                                                    "typeTag": 1
                                                }
                                            }
                                        ],
                                        "typeTag": 3
                                    }
                                }
                            ],
                            "typeTag": 4
                        }
                    }
                ]
            }
        ]
    }
}