{
    "balance_change": {
        "balanceChanges": [
            {
                "account": "0xaea0a2431df79d9fd2c9837a9a4eb9c11790ac43",
                "assets": [
                    {
                        "address": "0x9d9223436ddd466fc247e9dbbd20207e640fef58",
                        "amount": "116,800",
                        "iconUrl": "",
                        "isERC1155": false,
                        "isERC721": false,
                        "sign": false,
                        "value": ""
                    }
                ]
            },
            {
                "account": "0x64a8f58d968bf6d6aeb0e77d6e39de2016c7789b",
                "assets": [
                    {
                        "address": "0x9d9223436ddd466fc247e9dbbd20207e640fef58",
                        "amount": "116,800",
                        "iconUrl": "",
                        "isERC1155": false,
                        "isERC721": false,
                        "sign": true,
                        "value": ""
                    }
                ]
            }
        ]
    },
    "profile": {
        "basic_info": {
            "baseFee": "",
            "blockNumber": 7633630,
            "callData": "0xa9059cbb00000000000000000000000064a8f58d968bf6d6aeb0e77d6e39de2016c7789b0000000000000000000000000000000000000000000018bbbd9daf13f9000000",
            "debugEnable": true,
            "errorInfo": "",
            "eventCount": 1,
            "feeRecipient": "0x52bc44d5378309ee2abf1539bf71de1b7d7be3b5",
            "formatValue": "0",
            "gasLimit": 58196,
            "gasPrice": "2",
            "gasUsed": 58196,
            "intTxnCount": 0,
            "internalRevert": false,
            "internalRevertMessage": "",
            "isContractCreation": false,
            "isFlashloan": false,
            "maxFee": "",
            "nonce": 542,
            "overwritedBlockNumber": -1,
            "priorityFee": "",
            "receiver": "0x9d9223436ddd466fc247e9dbbd20207e640fef58",
            "revertMessage": "",
            "sender": "0xaea0a2431df79d9fd2c9837a9a4eb9c11790ac43",
            "simulationEnable": true,
            "sourceTxnHash": "0xd439e7261be70aaef858b5c981d2b2fd2a97b73b53e869939fcc7a87c94e396c",
            "status": true,
            "timestamp": "2019-04-25T01:27:38Z",
            "transactionFee": "0.000116392",
            "txnHash": "0xd439e7261be70aaef858b5c981d2b2fd2a97b73b53e869939fcc7a87c94e396c",
            "txnIndex": 51,
            "type": 0,
            "value": "0"
        },
        "fund_flow": [
            {
                "amount": "116,800",
                "from": "0xaea0a2431df79d9fd2c9837a9a4eb9c11790ac43",
                "id": 1,
                "isERC1155": false,
                "isERC721": false,
                "isReverted": false,
                "order": 1,
                "to": "0x64a8f58d968bf6d6aeb0e77d6e39de2016c7789b",
                "token": "0x9d9223436ddd466fc247e9dbbd20207e640fef58"
            }
        ],
        "token_infos": [
            {
                "address": "0x9d9223436ddd466fc247e9dbbd20207e640fef58",
                "decimals": 18
            },
            {
                "address": "0xc02aaa39b223fe8d0a0e5c4f27ead9083c756cc2",
                "decimals": 18
            },
            {
                "address": "0xeeeeeeeeeeeeeeeeeeeeeeeeeeeeeeeeeeeeeeee",
                "decimals": 18
            }
        ]
    },
    "address_label": {
        "labels": [
            {
                "address": "0x9d9223436ddd466fc247e9dbbd20207e640fef58",
                "label": "Olive Token"
            },
            {
                "address": "0x0000000000000000000000000000000000000001",
                "label": "Precompiled"
            },
            {
                "address": "0x0000000000000000000000000000000000000002",
                "label": "Precompiled"
            },
            {
                "address": "0x0000000000000000000000000000000000000003",
                "label": "Precompiled"
            },
            {
                "address": "0x0000000000000000000000000000000000000004",
                "label": "Precompiled"
            },
            {
                "address": "0xeeeeeeeeeeeeeeeeeeeeeeeeeeeeeeeeeeeeeeee",
                "label": "Ether"
            }
        ]
    },
    "trace": {
        "accountLabels": null,
        "dataMap": {
            "-1": {
                "invocation": {
                    "address": "0xaea0a2431df79d9fd2c9837a9a4eb9c11790ac43",
                    "callData": "",
                    "decodedMethod": null,
                    "errorInfo": "",
                    "fromAddress": "",
                    "gasUsed": 0,
                    "id": -1,
                    "methodDecoded": false,
                    "operation": "",
                    "output": "",
                    "revert": false,
                    "revertMessage": "",
                    "selector": "",
                    "status": false,
                    "value": ""
                },
                "nodeType": 0
            },
            "0": {
                "invocation": {
                    "address": "0x9d9223436ddd466fc247e9dbbd20207e640fef58",
                    "callData": "0x00000000000000000000000064a8f58d968bf6d6aeb0e77d6e39de2016c7789b0000000000000000000000000000000000000000000018bbbd9daf13f9000000",
                    "decodedMethod": {
                        "callParams": [
                            {
                                "name": "_to",
                                "type": "address",
                                "value": "0x64a8f58d968bf6d6aeb0e77d6e39de2016c7789b"
                            },
                            {
                                "decimalAvailable": true,
                                "name": "_value",
                                "type": "uint256",
                                "value": "116,800,000,000,000,000,000,000"
                            }
                        ],
                        "constructorArguments": "",
                        "name": "transfer",
                        "returnParams": [
                            {
                                "name": "",
                                "type": "bool",
                                "value": true
                            }
                        ],
                        "signature": "transfer(address,uint256)"
                    },
                    "errorInfo": "",
                    "fromAddress": "0xaea0a2431df79d9fd2c9837a9a4eb9c11790ac43",
                    "gasUsed": 58196,
                    "id": 0,
                    "methodDecoded": true,
                    "operation": "CALL",
                    "output": "0x0000000000000000000000000000000000000000000000000000000000000001",
                    "revert": false,
                    "revertMessage": "",
                    "selector": "0xa9059cbb",
                    "status": true,
                    "value": "0"
                },
                "nodeType": 0
            },
            "1": {
                "event": {
                    "contract": "0x9d9223436ddd466fc247e9dbbd20207e640fef58",
                    "decodedLog": {
                        "name": "Transfer",
                        "params": [
                            {
                                "name": "from",
                                "type": "address",
                                "value": "0xaea0a2431df79d9fd2c9837a9a4eb9c11790ac43"
                            },
                            {
                                "name": "to",
                                "type": "address",
                                "value": "0x64a8f58d968bf6d6aeb0e77d6e39de2016c7789b"
                            },
                            {
                                "decimalAvailable": true,
                                "name": "value",
                                "type": "uint256",
                                "value": "116,800,000,000,000,000,000,000"
                            }
                        ],
                        "signature": "Transfer(address,address,uint256)"
                    },
                    "id": 1,
                    "logData": "0x0000000000000000000000000000000000000000000018bbbd9daf13f9000000",
                    "logDecoded": true,
                    "operation": "EVENT",
                    "revert": false,
                    "status": true,
                    "topics": [
                        "0xddf252ad1be2c89b69c2b068fc378daa952ba7f163c4a11628f55a4df523b3ef",
                        "0x000000000000000000000000aea0a2431df79d9fd2c9837a9a4eb9c11790ac43",
                        "0x00000000000000000000000064a8f58d968bf6d6aeb0e77d6e39de2016c7789b"
                    ]
                },
                "nodeType": 1
            }
        },
        "gasFlame": [
            {
                "children": [
                    {
                        "children": [
                            {
                                "children": [],
                                "depth": 0,
                                "name": "Initial Gas",
                                "value": 23256
                            },
                            {
                                "children": [],
                                "depth": 0,
                                "name": "Executed Gas",
                                "value": 34940
                            }
                        ],
                        "depth": -1,
                        "name": "Actual Gas Used",
                        "value": 58196
                    },
                    {
                        "children": [],
                        "depth": -1,
                        "name": "Refunded Gas",
                        "value": 0
                    }
                ],
                "depth": -2,
                "name": "Total Gas",
                "value": 58196
            }
        ],
        "isConfirmed": true,
        "mainTrace": [
            {
                "children": [
                    {
                        "children": [
                            {
                                "children": [],
                                "depth": 1,
                                "id": 1,
                                "order": 1
                            }
                        ],
                        "depth": 0,
                        "id": 0,
                        "order": 0
                    }
                ],
                "depth": -1,
                "id": -1,
                "order": -1
            }
        ],
        "mainTraceNodeCount": 2,
        "parentIdMap": {
            "0": -1,
            "1": 0
        },
        "tidyTrace": [
            {
                "children": [
                    {
                        "children": [
                            {
                                "children": [],
                                "depth": 1,
                                "id": 1,
                                "order": 1
                            }
                        ],
                        "depth": 0,
                        "id": 0,
                        "order": 0
                    }
                ],
                "depth": -1,
                "id": -1,
                "order": -1
            }
        ],
        "tidyTraceNodeCount": 2
    },
    "state_change": {
        "stateChanges": [
            {
                "address": "0x9d9223436ddd466fc247e9dbbd20207e640fef58",
                "erc": "ERC-20",
                "slots": [
                    {
                        "current": "0x0000000000000000000000000000000000000000002a0e034cc9ba87d1919000",
                        "key": "0x0cdc54135d55b2316a39e9fe7d785a172e04e02aef60fe8c866ed3852c9fc2f8",
                        "prev": "0x0000000000000000000000000000000000000000002a26bf0a67699bca919000"
                    },
                    {
                        "current": "0x0000000000000000000000000000000000000000000018bbbd9daf13f9000000",
                        "key": "0xbd59710dfa4fef720c7e0cf5c1866ce05e2b0a447cdf80faece518985f58076a",
                        "prev": "0x0000000000000000000000000000000000000000000000000000000000000000"
                    }
                ],
                "storageVariables": [
                    {
                        "name": "balances",
                        "type": "mapping(address => uint256)",
                        "value": {
                            "pairs": [
                                {
                                    "key": "0x64a8f58d968bf6d6aeb0e77d6e39de2016c7789b",
                                    "value": {
                                        "current": "116800000000000000000000",
                                        "prev": "0",
                                        "typeTag": 1
                                    }
                                },
                                {
                                    "key": "0xaea0a2431df79d9fd2c9837a9a4eb9c11790ac43",
                                    "value": {
                                        "current": "50841058427965531200000000",
                                        "prev": "50957858427965531200000000",
                                        "typeTag": 1
                                    }
                                }
                            ],
                            "typeTag": 4
                        }
                    }
                ]
            }
        ]
    }
}