{
    "balance_change": {
        "balanceChanges": [
            {
                "account": "0x03ba609e8f0b6f5f0bf3a49bcfae1259bbd4aeed",
                "assets": [
                    {
                        "address": "0xeeeeeeeeeeeeeeeeeeeeeeeeeeeeeeeeeeeeeeee",
                        "amount": "0.37892",
                        "iconUrl": "https://assets.blocksec.com/image/1663669189317-3.png",
                        "isERC1155": false,
                        "isERC721": false,
                        "sign": true,
                        "value": ""
                    }
                ]
            },
            {
                "account": "0xa36ae0f959046a18d109dc5b1fb8df655cf0aa81",
                "assets": [
                    {
                        "address": "0xeeeeeeeeeeeeeeeeeeeeeeeeeeeeeeeeeeeeeeee",
                        "amount": "0.37892",
                        "iconUrl": "https://assets.blocksec.com/image/1663669189317-3.png",
                        "isERC1155": false,
                        "isERC721": false,
                        "sign": false,
                        "value": ""
                    }
                ]
            }
        ]
    },
    "profile": {
        "basic_info": {
            "baseFee": "",
            "blockNumber": 3962164,
            "callData": "0xe19593e500000000000000000000000000000000930643ee0b6e4caf9abbe63f19d0d0bb000000000000000000000000a36ae0f959046a18d109dc5b1fb8df655cf0aa810000000000000000000000002541f6d3455d65978d395585c79a2c782083d28200000000000000000000000003ba609e8f0b6f5f0bf3a49bcfae1259bbd4aeed000000000000000000000000000000000000000000000000054231bb7e4a800000000000000000000000000000000000000000000000000000000000000000e0000000000000000000000000000000000000000000000000000000000000016000000000000000000000000000000000000000000000000000000000000000413705ce4ec28f778d775c153aa0adf9c5560ac77769d6ebf598e41a92b9e0b65a449e30172652324c2c929a9795a81d9ca7ed37003ffdf6d90cf65041d66847c31c0000000000000000000000000000000000000000000000000000000000000000000000000000000000000000000000000000000000000000000000000000000000000000000000000000000000000000000000000000000000000000000000",
            "debugEnable": true,
            "errorInfo": "",
            "eventCount": 1,
            "feeRecipient": "0x829bd824b016326a401d083b33d092293333a830",
            "formatValue": "0",
            "gasLimit": 200000,
            "gasPrice": "55",
            "gasUsed": 76614,
            "intTxnCount": 3,
            "internalRevert": false,
            "internalRevertMessage": "",
            "isContractCreation": false,
            "isFlashloan": false,
            "maxFee": "",
            "nonce": 15253,
            "overwritedBlockNumber": -1,
            "priorityFee": "",
            "receiver": "0x7ddf4ed06fe5ecc646fad19d257cd3f05a884d70",
            "revertMessage": "",
            "sender": "0xf2015a9160c9c9381ff99f19fc18e5af57cac8ed",
            "simulationEnable": true,
            "sourceTxnHash": "0xd4ce258df21de538414c0cf21bd9631439b48f7b2269ea3ec98fcb91a7eebf7b",
            "status": true,
            "timestamp": "2017-07-02T09:41:47Z",
            "transactionFee": "0.00421377",
            "txnHash": "0xd4ce258df21de538414c0cf21bd9631439b48f7b2269ea3ec98fcb91a7eebf7b",
            "txnIndex": 0,
            "type": 0,
            "value": "0"
        },
        "fund_flow": [
            {
                "amount": "0.37892",
                "from": "0xa36ae0f959046a18d109dc5b1fb8df655cf0aa81",
                "id": 1,
                "isERC1155": false,
                "isERC721": false,
                "isReverted": false,
                "order": 1,
                "to": "0x03ba609e8f0b6f5f0bf3a49bcfae1259bbd4aeed",
                "token": "0xeeeeeeeeeeeeeeeeeeeeeeeeeeeeeeeeeeeeeeee"
            }
        ],
        "token_infos": [
            {
                "address": "0xc02aaa39b223fe8d0a0e5c4f27ead9083c756cc2",
                "decimals": 18
            },
            {
                "address": "0xeeeeeeeeeeeeeeeeeeeeeeeeeeeeeeeeeeeeeeee",
                "decimals": 18
            }
        ]
    },
    "address_label": {
        "labels": [
            {
                "address": "0x0000000000000000000000000000000000000004",
                "label": "Precompiled"
            },
            {
                "address": "0xeeeeeeeeeeeeeeeeeeeeeeeeeeeeeeeeeeeeeeee",
                "label": "Ether"
            },
            {
                "address": "0xf2015a9160c9c9381ff99f19fc18e5af57cac8ed",
                "label": "Lykke: Deployer"
            },
            {
                "address": "0x0000000000000000000000000000000000000001",
                "label": "Precompiled"
            },
            {
                "address": "0x0000000000000000000000000000000000000002",
                "label": "Precompiled"
            },
            {
                "address": "0x0000000000000000000000000000000000000003",
                "label": "Precompiled"
            }
        ]
    },
    "trace": {
        "accountLabels": null,
        "dataMap": {
            "-1": {
                "invocation": {
                    "address": "0xf2015a9160c9c9381ff99f19fc18e5af57cac8ed",
                    "callData": "",
                    "decodedMethod": null,
                    "errorInfo": "",
                    "fromAddress": "",
                    "gasUsed": 0,
                    "id": -1,
                    "methodDecoded": false,
                    "operation": "",
                    "output": "",
                    "revert": false,
                    "revertMessage": "",
                    "selector": "",
                    "status": false,
                    "value": ""
                },
                "nodeType": 0
            },
            "0": {
                "invocation": {
                    "address": "0x7ddf4ed06fe5ecc646fad19d257cd3f05a884d70",
                    "callData": "0x00000000000000000000000000000000930643ee0b6e4caf9abbe63f19d0d0bb000000000000000000000000a36ae0f959046a18d109dc5b1fb8df655cf0aa810000000000000000000000002541f6d3455d65978d395585c79a2c782083d28200000000000000000000000003ba609e8f0b6f5f0bf3a49bcfae1259bbd4aeed000000000000000000000000000000000000000000000000054231bb7e4a800000000000000000000000000000000000000000000000000000000000000000e0000000000000000000000000000000000000000000000000000000000000016000000000000000000000000000000000000000000000000000000000000000413705ce4ec28f778d775c153aa0adf9c5560ac77769d6ebf598e41a92b9e0b65a449e30172652324c2c929a9795a81d9ca7ed37003ffdf6d90cf65041d66847c31c0000000000000000000000000000000000000000000000000000000000000000000000000000000000000000000000000000000000000000000000000000000000000000000000000000000000000000000000000000000000000000000000",
                    "decodedMethod": null,
                    "errorInfo": "",
                    "fromAddress": "0xf2015a9160c9c9381ff99f19fc18e5af57cac8ed",
                    "gasUsed": 76614,
                    "id": 0,
                    "methodDecoded": false,
                    "operation": "CALL",
                    "output": "",
                    "revert": false,
                    "revertMessage": "",
                    "selector": "0xe19593e5",
                    "status": true,
                    "value": "0"
                },
                "nodeType": 0
            },
            "1": {
                "invocation": {
                    "address": "0x0000000000000000000000000000000000000001",
                    "callData": "0x17e7c2f5ea6c504b7310444cbc4bdb58b5fc60ac96723d261cb786f3000000000000000000000000000000000000000000000000000000000000001c3705ce4ec28f778d775c153aa0adf9c5560ac77769d6ebf598e41a92b9e0b65a449e30172652324c2c929a9795a81d9ca7ed37003ffdf6d90cf65041d66847c3",
                    "decodedMethod": {
                        "callParams": [
                            {
                                "name": "hash",
                                "type": "bytes32",
                                "value": "0xe398666a17e7c2f5ea6c504b7310444cbc4bdb58b5fc60ac96723d261cb786f3"
                            },
                            {
                                "name": "v",
                                "type": "uint256",
                                "value": "28"
                            },
                            {
                                "name": "r",
                                "type": "bytes32",
                                "value": "0x3705ce4ec28f778d775c153aa0adf9c5560ac77769d6ebf598e41a92b9e0b65a"
                            },
                            {
                                "name": "s",
                                "type": "bytes32",
                                "value": "0x449e30172652324c2c929a9795a81d9ca7ed37003ffdf6d90cf65041d66847c3"
                            }
                        ],
                        "constructorArguments": "",
                        "name": "ecrecover",
                        "returnParams": [
                            {
                                "name": "",
                                "type": "address",
                                "value": "0x2541f6d3455d65978d395585c79a2c782083d282"
                            }
                        ],
                        "signature": "ecrecover(bytes32,uint256,bytes32,bytes32)"
                    },
                    "errorInfo": "",
                    "fromAddress": "0x7ddf4ed06fe5ecc646fad19d257cd3f05a884d70",
                    "gasUsed": 3000,
                    "id": 1,
                    "methodDecoded": true,
                    "operation": "CALL",
                    "output": "0x0000000000000000000000002541f6d3455d65978d395585c79a2c782083d282",
                    "revert": false,
                    "revertMessage": "",
                    "selector": "0xe398666a",
                    "status": true,
                    "value": "0"
                },
                "nodeType": 0
            },
            "2": {
                "invocation": {
                    "address": "0xa36ae0f959046a18d109dc5b1fb8df655cf0aa81",
                    "callData": "0x0000000000000000000000002541f6d3455d65978d395585c79a2c782083d28200000000000000000000000003ba609e8f0b6f5f0bf3a49bcfae1259bbd4aeed000000000000000000000000000000000000000000000000054231bb7e4a8000",
                    "decodedMethod": null,
                    "errorInfo": "",
                    "fromAddress": "0x7ddf4ed06fe5ecc646fad19d257cd3f05a884d70",
                    "gasUsed": 15969,
                    "id": 2,
                    "methodDecoded": false,
                    "operation": "CALL",
                    "output": "",
                    "revert": false,
                    "revertMessage": "",
                    "selector": "0xd126dac4",
                    "status": true,
                    "value": "0"
                },
                "nodeType": 0
            },
            "3": {
                "invocation": {
                    "address": "0x03ba609e8f0b6f5f0bf3a49bcfae1259bbd4aeed",
                    "callData": "0x",
                    "decodedMethod": null,
                    "errorInfo": "",
                    "fromAddress": "0xa36ae0f959046a18d109dc5b1fb8df655cf0aa81",
                    "gasUsed": 0,
                    "id": 3,
                    "methodDecoded": false,
                    "operation": "CALL",
                    "output": "",
                    "revert": false,
                    "revertMessage": "",
                    "selector": "fallback",
                    "status": true,
                    "value": "0.37892"
                },
                "nodeType": 0
            },
            "4": {
                "event": {
                    "contract": "0xa36ae0f959046a18d109dc5b1fb8df655cf0aa81",
                    "decodedLog": null,
                    "id": 4,
                    "logData": "0x0000000000000000000000007ddf4ed06fe5ecc646fad19d257cd3f05a884d700000000000000000000000002541f6d3455d65978d395585c79a2c782083d282000000000000000000000000000000000000000000000000054231bb7e4a800000000000000000000000000003ba609e8f0b6f5f0bf3a49bcfae1259bbd4aeed",
                    "logDecoded": false,
                    "operation": "EVENT",
                    "revert": false,
                    "status": true,
                    "topics": [
                        "0xb738640f073498e0d6972822683c983aa8b6e547c093aed0eea99917c7656a31"
                    ]
                },
                "nodeType": 1
            }
        },
        "gasFlame": [
            {
                "children": [
                    {
                        "children": [
                            {
                                "children": [],
                                "depth": 0,
                                "name": "Initial Gas",
                                "value": 32600
                            },
                            {
                                "children": [
                                    {
                                        "children": [],
                                        "depth": 1,
                                        "name": "ecrecover",
                                        "value": 3000
                                    },
                                    {
                                        "children": [
                                            {
                                                "children": [],
                                                "depth": 2,
                                                "name": "fallback",
                                                "value": 0
                                            }
                                        ],
                                        "depth": 1,
                                        "name": "0xd126dac4",
                                        "value": 15969
                                    }
                                ],
                                "depth": 0,
                                "name": "Executed Gas",
                                "value": 44014
                            }
                        ],
                        "depth": -1,
                        "name": "Actual Gas Used",
                        "value": 76614
                    },
                    {
                        "children": [],
                        "depth": -1,
                        "name": "Refunded Gas",
                        "value": 0
                    }
                ],
                "depth": -2,
                "name": "Total Gas",
                "value": 76614
            }
        ],
        "isConfirmed": true,
        "mainTrace": [
            {
                "children": [
                    {
                        "children": [
                            {
                                "children": [],
                                "depth": 1,
                                "id": 1,
                                "order": 1
                            },
                            {
                                "children": [
                                    {
                                        "children": [],
                                        "depth": 2,
                                        "id": 3,
                                        "order": 3
                                    },
                                    {
                                        "children": [],
                                        "depth": 2,
                                        "id": 4,
                                        "order": 4
                                    }
                                ],
                                "depth": 1,
                                "id": 2,
                                "order": 2
                            }
                        ],
                        "depth": 0,
                        "id": 0,
                        "order": 0
                    }
                ],
                "depth": -1,
                "id": -1,
                "order": -1
            }
        ],
        "mainTraceNodeCount": 5,
        "parentIdMap": {
            "0": -1,
            "1": 0,
            "2": 0,
            "3": 2,
            "4": 2
        },
        "tidyTrace": [
            {
                "children": [
                    {
                        "children": [
                            {
                                "children": [],
                                "depth": 1,
                                "id": 1,
                                "order": 1
                            },
                            {
                                "children": [
                                    {
                                        "children": [],
                                        "depth": 2,
                                        "id": 3,
                                        "order": 3
                                    },
                                    {
                                        "children": [],
                                        "depth": 2,
                                        "id": 4,
                                        "order": 4
                                    }
                                ],
                                "depth": 1,
                                "id": 2,
                                "order": 2
                            }
                        ],
                        "depth": 0,
                        "id": 0,
                        "order": 0
                    }
                ],
                "depth": -1,
                "id": -1,
                "order": -1
            }
        ],
        "tidyTraceNodeCount": 5
    },
    "state_change": {
        "stateChanges": [
            {
                "address": "0x7ddf4ed06fe5ecc646fad19d257cd3f05a884d70",
                "erc": "",
                "slots": [
                    {
                        "current": "0x0000000000000000000000000000000000000000000000000000000000000001",
                        "key": "0xef4931293fc48913436112592cf7e3caaa7ee0fbc1fc3c5c91fc70cf1b17a894",
                        "prev": "0x0000000000000000000000000000000000000000000000000000000000000000"
                    }
                ],
                "storageVariables": []
            },
            {
                "address": "0xa36ae0f959046a18d109dc5b1fb8df655cf0aa81",
                "erc": "",
                "slots": [
                    {
                        "current": "0x000000000000000000000000000000000000000000000000023bf730a4f82000",
                        "key": "0xe84b7fffb3ec805981b6c4d76aefa658e17cce85ac7b3aadc3802d636f03159f",
                        "prev": "0x000000000000000000000000000000000000000000000000077e28ec2342a000"
                    }
                ],
                "storageVariables": []
            }
        ]
    }
}