{
    "balance_change": {
        "balanceChanges": [
            {
                "account": "0x98c3d3183c4b8a650614ad179a1a98be0a8d6b8e",
                "assets": [
                    {
                        "address": "0xc02aaa39b223fe8d0a0e5c4f27ead9083c756cc2",
                        "amount": "2.897887165136491008",
                        "iconUrl": "https://assets.blocksec.com/icon/f1cb2d02c471d545bbc7722daf3277fd852d98e63d118771af7047bd8256c516.png",
                        "isERC1155": false,
                        "isERC721": false,
                        "sign": false,
                        "value": "8518.105375086669172"
                    },
                    {
                        "address": "0x4691937a7508860f876c9c0a2a617e7d9e945d4b",
                        "amount": "29,508.281845145902312889",
                        "iconUrl": "https://assets.blocksec.com/icon/f3bbe70af9fc6d1ff070cd90c3a2728ef62e522215e05a2ee9a317a0cd573736.png",
                        "isERC1155": false,
                        "isERC721": false,
                        "sign": true,
                        "value": "5987.357664"
                    }
                ]
            },
            {
                "account": "0x6ada49aeccf6e556bb7a35ef0119cc8ca795294a",
                "assets": [
                    {
                        "address": "0xc02aaa39b223fe8d0a0e5c4f27ead9083c756cc2",
                        "amount": "2.897887165136491008",
                        "iconUrl": "https://assets.blocksec.com/icon/f1cb2d02c471d545bbc7722daf3277fd852d98e63d118771af7047bd8256c516.png",
                        "isERC1155": false,
                        "isERC721": false,
                        "sign": true,
                        "value": "8518.105375086669172"
                    },
                    {
                        "address": "0x4691937a7508860f876c9c0a2a617e7d9e945d4b",
                        "amount": "29,508.281845145902312889",
                        "iconUrl": "https://assets.blocksec.com/icon/f3bbe70af9fc6d1ff070cd90c3a2728ef62e522215e05a2ee9a317a0cd573736.png",
                        "isERC1155": false,
                        "isERC721": false,
                        "sign": false,
                        "value": "5987.357664"
                    }
                ]
            }
        ]
    },
    "profile": {
        "basic_info": {
            "baseFee": "25.477634004",
            "blockNumber": 14779870,
            "callData": "0xce2e62ff00000000000000000000000000000000000000000000000028375d05e51fd20000000000000000000000000000000000000000000000063e0c2a0ce909c000000000000000000000000000006ada49aeccf6e556bb7a35ef0119cc8ca795294a000000000000000000000000c02aaa39b223fe8d0a0e5c4f27ead9083c756cc20000000000000000000000000000000000000000000000000000000000000000000000000000000000000000000000000000000000000000000000006280ed99",
            "debugEnable": true,
            "errorInfo": "",
            "eventCount": 4,
            "feeRecipient": "0xc730b028da66ebb14f20e67c68dd809fbc49890d",
            "formatValue": "0",
            "gasLimit": 300014,
            "gasPrice": "30.056508713",
            "gasUsed": 96664,
            "intTxnCount": 6,
            "internalRevert": false,
            "internalRevertMessage": "",
            "isContractCreation": false,
            "isFlashloan": false,
            "maxFee": "36.93547008",
            "nonce": 41498,
            "overwritedBlockNumber": -1,
            "priorityFee": "4.578874709",
            "receiver": "0x98c3d3183c4b8a650614ad179a1a98be0a8d6b8e",
            "revertMessage": "",
            "sender": "0x8e8f818d3371f797a2db7edb32803607c8b3c6a9",
            "simulationEnable": true,
            "sourceTxnHash": "0xd4bb7385dc8c637f927ee4461d28596f8254bdccbe07558c55a232250142df1b",
            "status": true,
            "timestamp": "2022-05-15T12:08:42Z",
            "transactionFee": "0.002905382358233432",
            "txnHash": "0xd4bb7385dc8c637f927ee4461d28596f8254bdccbe07558c55a232250142df1b",
            "txnIndex": 45,
            "type": 2,
            "value": "0"
        },
        "fund_flow": [
            {
                "amount": "2.897887165136491008",
                "from": "0x98c3d3183c4b8a650614ad179a1a98be0a8d6b8e",
                "id": 1,
                "isERC1155": false,
                "isERC721": false,
                "isReverted": false,
                "order": 1,
                "to": "0x6ada49aeccf6e556bb7a35ef0119cc8ca795294a",
                "token": "0xc02aaa39b223fe8d0a0e5c4f27ead9083c756cc2"
            },
            {
                "amount": "29,508.281845145902312889",
                "from": "0x6ada49aeccf6e556bb7a35ef0119cc8ca795294a",
                "id": 2,
                "isERC1155": false,
                "isERC721": false,
                "isReverted": false,
                "order": 2,
                "to": "0x98c3d3183c4b8a650614ad179a1a98be0a8d6b8e",
                "token": "0x4691937a7508860f876c9c0a2a617e7d9e945d4b"
            }
        ],
        "token_infos": [
            {
                "address": "0x4691937a7508860f876c9c0a2a617e7d9e945d4b",
                "decimals": 18
            },
            {
                "address": "0xc02aaa39b223fe8d0a0e5c4f27ead9083c756cc2",
                "decimals": 18
            },
            {
                "address": "0xeeeeeeeeeeeeeeeeeeeeeeeeeeeeeeeeeeeeeeee",
                "decimals": 18
            }
        ]
    },
    "address_label": {
        "labels": [
            {
                "address": "0x6ada49aeccf6e556bb7a35ef0119cc8ca795294a",
                "label": "Uniswap V2: WOO 18"
            },
            {
                "address": "0x0000000000000000000000000000000000000001",
                "label": "Precompiled"
            },
            {
                "address": "0x0000000000000000000000000000000000000003",
                "label": "Precompiled"
            },
            {
                "address": "0x0000000000000000000000000000000000000004",
                "label": "Precompiled"
            },
            {
                "address": "0xeeeeeeeeeeeeeeeeeeeeeeeeeeeeeeeeeeeeeeee",
                "label": "Ether"
            },
            {
                "address": "0xc02aaa39b223fe8d0a0e5c4f27ead9083c756cc2",
                "label": "Wrapped Ether (WETH)"
            },
            {
                "address": "0x98c3d3183c4b8a650614ad179a1a98be0a8d6b8e",
                "label": "MEV Bot: 0x98c...b8e"
            },
            {
                "address": "0x4691937a7508860f876c9c0a2a617e7d9e945d4b",
                "label": "Woo Network: WOO Token"
            },
            {
                "address": "0x0000000000000000000000000000000000000002",
                "label": "Precompiled"
            }
        ]
    },
    "trace": {
        "accountLabels": null,
        "dataMap": {
            "-1": {
                "invocation": {
                    "address": "0x8e8f818d3371f797a2db7edb32803607c8b3c6a9",
                    "callData": "",
                    "decodedMethod": null,
                    "errorInfo": "",
                    "fromAddress": "",
                    "gasUsed": 0,
                    "id": -1,
                    "methodDecoded": false,
                    "operation": "",
                    "output": "",
                    "revert": false,
                    "revertMessage": "",
                    "selector": "",
                    "status": false,
                    "value": ""
                },
                "nodeType": 0
            },
            "0": {
                "invocation": {
                    "address": "0x98c3d3183c4b8a650614ad179a1a98be0a8d6b8e",
                    "callData": "0x00000000000000000000000000000000000000000000000028375d05e51fd20000000000000000000000000000000000000000000000063e0c2a0ce909c000000000000000000000000000006ada49aeccf6e556bb7a35ef0119cc8ca795294a000000000000000000000000c02aaa39b223fe8d0a0e5c4f27ead9083c756cc20000000000000000000000000000000000000000000000000000000000000000000000000000000000000000000000000000000000000000000000006280ed99",
                    "decodedMethod": null,
                    "errorInfo": "",
                    "fromAddress": "0x8e8f818d3371f797a2db7edb32803607c8b3c6a9",
                    "gasUsed": 96664,
                    "id": 0,
                    "methodDecoded": false,
                    "operation": "CALL",
                    "output": "",
                    "revert": false,
                    "revertMessage": "",
                    "selector": "0xce2e62ff",
                    "status": true,
                    "value": "0"
                },
                "nodeType": 0
            },
            "1": {
                "invocation": {
                    "address": "0x6ada49aeccf6e556bb7a35ef0119cc8ca795294a",
                    "callData": "0x",
                    "decodedMethod": {
                        "callParams": [],
                        "constructorArguments": "",
                        "name": "getReserves",
                        "returnParams": [
                            {
                                "name": "_reserve0",
                                "type": "uint112",
                                "value": "10,613,979,424,194,489,330,803,809"
                            },
                            {
                                "name": "_reserve1",
                                "type": "uint112",
                                "value": "1,036,339,066,585,901,925,799"
                            },
                            {
                                "name": "_blockTimestampLast",
                                "type": "uint32",
                                "value": "1,652,615,892"
                            }
                        ],
                        "signature": "getReserves()"
                    },
                    "errorInfo": "",
                    "fromAddress": "0x98c3d3183c4b8a650614ad179a1a98be0a8d6b8e",
                    "gasUsed": 2504,
                    "id": 1,
                    "methodDecoded": true,
                    "operation": "STATICCALL",
                    "output": "0x00000000000000000000000000000000000000000008c798fa3ed7c37ec9a4610000000000000000000000000000000000000000000000382e17fa4cd89385a7000000000000000000000000000000000000000000000000000000006280ead4",
                    "revert": false,
                    "revertMessage": "",
                    "selector": "0x0902f1ac",
                    "status": true,
                    "value": "0"
                },
                "nodeType": 0
            },
            "10": {
                "event": {
                    "contract": "0x6ada49aeccf6e556bb7a35ef0119cc8ca795294a",
                    "decodedLog": {
                        "name": "Swap",
                        "params": [
                            {
                                "name": "sender",
                                "type": "address",
                                "value": "0x98c3d3183c4b8a650614ad179a1a98be0a8d6b8e"
                            },
                            {
                                "name": "to",
                                "type": "address",
                                "value": "0x98c3d3183c4b8a650614ad179a1a98be0a8d6b8e"
                            },
                            {
                                "name": "amount0In",
                                "type": "uint256",
                                "value": "0"
                            },
                            {
                                "name": "amount1In",
                                "type": "uint256",
                                "value": "2,897,887,165,136,491,008"
                            },
                            {
                                "name": "amount0Out",
                                "type": "uint256",
                                "value": "29,508,281,845,145,902,312,889"
                            },
                            {
                                "name": "amount1Out",
                                "type": "uint256",
                                "value": "0"
                            }
                        ],
                        "signature": "Swap(address,uint256,uint256,uint256,uint256,address)"
                    },
                    "id": 10,
                    "logData": "0x000000000000000000000000000000000000000000000000000000000000000000000000000000000000000000000000000000000000000028375d05e51fd20000000000000000000000000000000000000000000000063fa5ac8c951dbcedb90000000000000000000000000000000000000000000000000000000000000000",
                    "logDecoded": true,
                    "operation": "EVENT",
                    "revert": false,
                    "status": true,
                    "topics": [
                        "0xd78ad95fa46c994b6551d0da85fc275fe613ce37657fb8d5e3d130840159d822",
                        "0x00000000000000000000000098c3d3183c4b8a650614ad179a1a98be0a8d6b8e",
                        "0x00000000000000000000000098c3d3183c4b8a650614ad179a1a98be0a8d6b8e"
                    ]
                },
                "nodeType": 1
            },
            "2": {
                "invocation": {
                    "address": "0xc02aaa39b223fe8d0a0e5c4f27ead9083c756cc2",
                    "callData": "0x0000000000000000000000006ada49aeccf6e556bb7a35ef0119cc8ca795294a00000000000000000000000000000000000000000000000028375d05e51fd200",
                    "decodedMethod": {
                        "callParams": [
                            {
                                "name": "dst",
                                "type": "address",
                                "value": "0x6ada49aeccf6e556bb7a35ef0119cc8ca795294a"
                            },
                            {
                                "decimalAvailable": true,
                                "name": "wad",
                                "type": "uint256",
                                "value": "2,897,887,165,136,491,008"
                            }
                        ],
                        "constructorArguments": "",
                        "name": "transfer",
                        "returnParams": [
                            {
                                "name": "",
                                "type": "bool",
                                "value": true
                            }
                        ],
                        "signature": "transfer(address,uint256)"
                    },
                    "errorInfo": "",
                    "fromAddress": "0x98c3d3183c4b8a650614ad179a1a98be0a8d6b8e",
                    "gasUsed": 12862,
                    "id": 2,
                    "methodDecoded": true,
                    "operation": "CALL",
                    "output": "0x0000000000000000000000000000000000000000000000000000000000000001",
                    "revert": false,
                    "revertMessage": "",
                    "selector": "0xa9059cbb",
                    "status": true,
                    "value": "0"
                },
                "nodeType": 0
            },
            "3": {
                "event": {
                    "contract": "0xc02aaa39b223fe8d0a0e5c4f27ead9083c756cc2",
                    "decodedLog": {
                        "name": "Transfer",
                        "params": [
                            {
                                "name": "src",
                                "type": "address",
                                "value": "0x98c3d3183c4b8a650614ad179a1a98be0a8d6b8e"
                            },
                            {
                                "name": "dst",
                                "type": "address",
                                "value": "0x6ada49aeccf6e556bb7a35ef0119cc8ca795294a"
                            },
                            {
                                "decimalAvailable": true,
                                "name": "wad",
                                "type": "uint256",
                                "value": "2,897,887,165,136,491,008"
                            }
                        ],
                        "signature": "Transfer(address,address,uint256)"
                    },
                    "id": 3,
                    "logData": "0x00000000000000000000000000000000000000000000000028375d05e51fd200",
                    "logDecoded": true,
                    "operation": "EVENT",
                    "revert": false,
                    "status": true,
                    "topics": [
                        "0xddf252ad1be2c89b69c2b068fc378daa952ba7f163c4a11628f55a4df523b3ef",
                        "0x00000000000000000000000098c3d3183c4b8a650614ad179a1a98be0a8d6b8e",
                        "0x0000000000000000000000006ada49aeccf6e556bb7a35ef0119cc8ca795294a"
                    ]
                },
                "nodeType": 1
            },
            "4": {
                "invocation": {
                    "address": "0x6ada49aeccf6e556bb7a35ef0119cc8ca795294a",
                    "callData": "0x00000000000000000000000000000000000000000000063fa5ac8c951dbcedb9000000000000000000000000000000000000000000000000000000000000000000000000000000000000000098c3d3183c4b8a650614ad179a1a98be0a8d6b8e00000000000000000000000000000000000000000000000000000000000000800000000000000000000000000000000000000000000000000000000000000000",
                    "decodedMethod": {
                        "callParams": [
                            {
                                "name": "amount0Out",
                                "type": "uint256",
                                "value": "29,508,281,845,145,902,312,889"
                            },
                            {
                                "name": "amount1Out",
                                "type": "uint256",
                                "value": "0"
                            },
                            {
                                "name": "to",
                                "type": "address",
                                "value": "0x98c3d3183c4b8a650614ad179a1a98be0a8d6b8e"
                            },
                            {
                                "name": "data",
                                "type": "bytes",
                                "value": "0x"
                            }
                        ],
                        "constructorArguments": "",
                        "name": "swap",
                        "returnParams": [],
                        "signature": "swap(uint256,uint256,address,bytes)"
                    },
                    "errorInfo": "",
                    "fromAddress": "0x98c3d3183c4b8a650614ad179a1a98be0a8d6b8e",
                    "gasUsed": 47704,
                    "id": 4,
                    "methodDecoded": true,
                    "operation": "CALL",
                    "output": "",
                    "revert": false,
                    "revertMessage": "",
                    "selector": "0x022c0d9f",
                    "status": true,
                    "value": "0"
                },
                "nodeType": 0
            },
            "5": {
                "invocation": {
                    "address": "0x4691937a7508860f876c9c0a2a617e7d9e945d4b",
                    "callData": "0x00000000000000000000000098c3d3183c4b8a650614ad179a1a98be0a8d6b8e00000000000000000000000000000000000000000000063fa5ac8c951dbcedb9",
                    "decodedMethod": {
                        "callParams": [
                            {
                                "name": "_to",
                                "type": "address",
                                "value": "0x98c3d3183c4b8a650614ad179a1a98be0a8d6b8e"
                            },
                            {
                                "decimalAvailable": true,
                                "name": "_value",
                                "type": "uint256",
                                "value": "29,508,281,845,145,902,312,889"
                            }
                        ],
                        "constructorArguments": "",
                        "name": "transfer",
                        "returnParams": [
                            {
                                "name": "success",
                                "type": "bool",
                                "value": true
                            }
                        ],
                        "signature": "transfer(address,uint256)"
                    },
                    "errorInfo": "",
                    "fromAddress": "0x6ada49aeccf6e556bb7a35ef0119cc8ca795294a",
                    "gasUsed": 12786,
                    "id": 5,
                    "methodDecoded": true,
                    "operation": "CALL",
                    "output": "0x0000000000000000000000000000000000000000000000000000000000000001",
                    "revert": false,
                    "revertMessage": "",
                    "selector": "0xa9059cbb",
                    "status": true,
                    "value": "0"
                },
                "nodeType": 0
            },
            "6": {
                "event": {
                    "contract": "0x4691937a7508860f876c9c0a2a617e7d9e945d4b",
                    "decodedLog": {
                        "name": "Transfer",
                        "params": [
                            {
                                "name": "_from",
                                "type": "address",
                                "value": "0x6ada49aeccf6e556bb7a35ef0119cc8ca795294a"
                            },
                            {
                                "name": "_to",
                                "type": "address",
                                "value": "0x98c3d3183c4b8a650614ad179a1a98be0a8d6b8e"
                            },
                            {
                                "decimalAvailable": true,
                                "name": "_value",
                                "type": "uint256",
                                "value": "29,508,281,845,145,902,312,889"
                            }
                        ],
                        "signature": "Transfer(address,address,uint256)"
                    },
                    "id": 6,
                    "logData": "0x00000000000000000000000000000000000000000000063fa5ac8c951dbcedb9",
                    "logDecoded": true,
                    "operation": "EVENT",
                    "revert": false,
                    "status": true,
                    "topics": [
                        "0xddf252ad1be2c89b69c2b068fc378daa952ba7f163c4a11628f55a4df523b3ef",
                        "0x0000000000000000000000006ada49aeccf6e556bb7a35ef0119cc8ca795294a",
                        "0x00000000000000000000000098c3d3183c4b8a650614ad179a1a98be0a8d6b8e"
                    ]
                },
                "nodeType": 1
            },
            "7": {
                "invocation": {
                    "address": "0x4691937a7508860f876c9c0a2a617e7d9e945d4b",
                    "callData": "0x0000000000000000000000006ada49aeccf6e556bb7a35ef0119cc8ca795294a",
                    "decodedMethod": {
                        "callParams": [
                            {
                                "name": "_owner",
                                "type": "address",
                                "value": "0x6ada49aeccf6e556bb7a35ef0119cc8ca795294a"
                            }
                        ],
                        "constructorArguments": "",
                        "name": "balanceOf",
                        "returnParams": [
                            {
                                "decimalAvailable": true,
                                "name": "balance",
                                "type": "uint256",
                                "value": "10,584,471,142,349,343,428,490,920"
                            }
                        ],
                        "signature": "balanceOf(address)"
                    },
                    "errorInfo": "",
                    "fromAddress": "0x6ada49aeccf6e556bb7a35ef0119cc8ca795294a",
                    "gasUsed": 561,
                    "id": 7,
                    "methodDecoded": true,
                    "operation": "STATICCALL",
                    "output": "0x00000000000000000000000000000000000000000008c15954924b2e610cb6a8",
                    "revert": false,
                    "revertMessage": "",
                    "selector": "0x70a08231",
                    "status": true,
                    "value": "0"
                },
                "nodeType": 0
            },
            "8": {
                "invocation": {
                    "address": "0xc02aaa39b223fe8d0a0e5c4f27ead9083c756cc2",
                    "callData": "0x0000000000000000000000006ada49aeccf6e556bb7a35ef0119cc8ca795294a",
                    "decodedMethod": {
                        "callParams": [
                            {
                                "name": "",
                                "type": "address",
                                "value": "0x6ada49aeccf6e556bb7a35ef0119cc8ca795294a"
                            }
                        ],
                        "constructorArguments": "",
                        "name": "balanceOf",
                        "returnParams": [
                            {
                                "decimalAvailable": true,
                                "name": "",
                                "type": "uint256",
                                "value": "1,039,236,953,751,038,416,807"
                            }
                        ],
                        "signature": "balanceOf(address)"
                    },
                    "errorInfo": "",
                    "fromAddress": "0x6ada49aeccf6e556bb7a35ef0119cc8ca795294a",
                    "gasUsed": 534,
                    "id": 8,
                    "methodDecoded": true,
                    "operation": "STATICCALL",
                    "output": "0x000000000000000000000000000000000000000000000038564f5752bdb357a7",
                    "revert": false,
                    "revertMessage": "",
                    "selector": "0x70a08231",
                    "status": true,
                    "value": "0"
                },
                "nodeType": 0
            },
            "9": {
                "event": {
                    "contract": "0x6ada49aeccf6e556bb7a35ef0119cc8ca795294a",
                    "decodedLog": {
                        "name": "Sync",
                        "params": [
                            {
                                "name": "reserve0",
                                "type": "uint112",
                                "value": "10,584,471,142,349,343,428,490,920"
                            },
                            {
                                "name": "reserve1",
                                "type": "uint112",
                                "value": "1,039,236,953,751,038,416,807"
                            }
                        ],
                        "signature": "Sync(uint112,uint112)"
                    },
                    "id": 9,
                    "logData": "0x00000000000000000000000000000000000000000008c15954924b2e610cb6a8000000000000000000000000000000000000000000000038564f5752bdb357a7",
                    "logDecoded": true,
                    "operation": "EVENT",
                    "revert": false,
                    "status": true,
                    "topics": [
                        "0x1c411e9a96e071241c2f21f7726b17ae89e3cab4c78be50e062b03a9fffbbad1"
                    ]
                },
                "nodeType": 1
            }
        },
        "gasFlame": [
            {
                "children": [
                    {
                        "children": [
                            {
                                "children": [],
                                "depth": 0,
                                "name": "Initial Gas",
                                "value": 22540
                            },
                            {
                                "children": [
                                    {
                                        "children": [],
                                        "depth": 1,
                                        "name": "getReserves",
                                        "value": 2504
                                    },
                                    {
                                        "children": [],
                                        "depth": 1,
                                        "name": "transfer",
                                        "value": 12862
                                    },
                                    {
                                        "children": [
                                            {
                                                "children": [],
                                                "depth": 2,
                                                "name": "transfer",
                                                "value": 12786
                                            },
                                            {
                                                "children": [],
                                                "depth": 2,
                                                "name": "balanceOf",
                                                "value": 561
                                            },
                                            {
                                                "children": [],
                                                "depth": 2,
                                                "name": "balanceOf",
                                                "value": 534
                                            }
                                        ],
                                        "depth": 1,
                                        "name": "swap",
                                        "value": 47704
                                    }
                                ],
                                "depth": 0,
                                "name": "Executed Gas",
                                "value": 76924
                            }
                        ],
                        "depth": -1,
                        "name": "Actual Gas Used",
                        "value": 96664
                    },
                    {
                        "children": [],
                        "depth": -1,
                        "name": "Refunded Gas",
                        "value": 2800
                    }
                ],
                "depth": -2,
                "name": "Total Gas",
                "value": 99464
            }
        ],
        "isConfirmed": true,
        "mainTrace": [
            {
                "children": [
                    {
                        "children": [
                            {
                                "children": [],
                                "depth": 1,
                                "id": 1,
                                "order": 1
                            },
                            {
                                "children": [
                                    {
                                        "children": [],
                                        "depth": 2,
                                        "id": 3,
                                        "order": 3
                                    }
                                ],
                                "depth": 1,
                                "id": 2,
                                "order": 2
                            },
                            {
                                "children": [
                                    {
                                        "children": [
                                            {
                                                "children": [],
                                                "depth": 3,
                                                "id": 6,
                                                "order": 6
                                            }
                                        ],
                                        "depth": 2,
                                        "id": 5,
                                        "order": 5
                                    },
                                    {
                                        "children": [],
                                        "depth": 2,
                                        "id": 7,
                                        "order": 7
                                    },
                                    {
                                        "children": [],
                                        "depth": 2,
                                        "id": 8,
                                        "order": 8
                                    },
                                    {
                                        "children": [],
                                        "depth": 2,
                                        "id": 9,
                                        "order": 9
                                    },
                                    {
                                        "children": [],
                                        "depth": 2,
                                        "id": 10,
                                        "order": 10
                                    }
                                ],
                                "depth": 1,
                                "id": 4,
                                "order": 4
                            }
                        ],
                        "depth": 0,
                        "id": 0,
                        "order": 0
                    }
                ],
                "depth": -1,
                "id": -1,
                "order": -1
            }
        ],
        "mainTraceNodeCount": 11,
        "parentIdMap": {
            "0": -1,
            "1": 0,
            "10": 4,
            "2": 0,
            "3": 2,
            "4": 0,
            "5": 4,
            "6": 5,
            "7": 4,
            "8": 4,
            "9": 4
        },
        "tidyTrace": [
            {
                "children": [
                    {
                        "children": [
                            {
                                "children": [
                                    {
                                        "children": [],
                                        "depth": 2,
                                        "id": 3,
                                        "order": 3
                                    }
                                ],
                                "depth": 1,
                                "id": 2,
                                "order": 2
                            },
                            {
                                "children": [
                                    {
                                        "children": [
                                            {
                                                "children": [],
                                                "depth": 3,
                                                "id": 6,
                                                "order": 6
                                            }
                                        ],
                                        "depth": 2,
                                        "id": 5,
                                        "order": 5
                                    },
                                    {
                                        "children": [],
                                        "depth": 2,
                                        "id": 9,
                                        "order": 9
                                    },
                                    {
                                        "children": [],
                                        "depth": 2,
                                        "id": 10,
                                        "order": 10
                                    }
                                ],
                                "depth": 1,
                                "id": 4,
                                "order": 4
                            }
                        ],
                        "depth": 0,
                        "id": 0,
                        "order": 0
                    }
                ],
                "depth": -1,
                "id": -1,
                "order": -1
            }
        ],
        "tidyTraceNodeCount": 8
    },
    "state_change": {
        "stateChanges": [
            {
                "address": "0x4691937a7508860f876c9c0a2a617e7d9e945d4b",
                "erc": "ERC-20",
                "slots": [
                    {
                        "current": "0x00000000000000000000000000000000000000000008c15954924b2e610cb6a8",
                        "key": "0x043597083a20bbf02bdb2f6cb13a8ec41e97828d6b6e44dd7f94b1e14f8e90ca",
                        "prev": "0x00000000000000000000000000000000000000000008c798fa3ed7c37ec9a461"
                    },
                    {
                        "current": "0x0000000000000000000000000000000000000000000028b435c559835928ac5b",
                        "key": "0x39d9c9b79cbbcde65fc23b5ea18b8e30c17309c86873c4dbae081f077037b632",
                        "prev": "0x0000000000000000000000000000000000000000000022749018ccee3b6bbea2"
                    }
                ],
                "storageVariables": [
                    {
                        "name": "balances",
                        "type": "mapping(address => uint256)",
                        "value": {
                            "pairs": [
                                {
                                    "key": "0x6ada49aeccf6e556bb7a35ef0119cc8ca795294a",
                                    "value": {
                                        "current": "10584471142349343428490920",
                                        "prev": "10613979424194489330803809",
                                        "typeTag": 1
                                    }
                                },
                                {
                                    "key": "0x98c3d3183c4b8a650614ad179a1a98be0a8d6b8e",
                                    "value": {
                                        "current": "192218947849528621444187",
                                        "prev": "162710666004382719131298",
                                        "typeTag": 1
                                    }
                                }
                            ],
                            "typeTag": 4
                        }
                    }
                ]
            },
            {
                "address": "0x6ada49aeccf6e556bb7a35ef0119cc8ca795294a",
                "erc": "ERC-20",
                "slots": [
                    {
                        "current": "0x00000000000000000000000000000000262f8abd90f957658e9fb5fd1419c6a7",
                        "key": "0x0000000000000000000000000000000000000000000000000000000000000009",
                        "prev": "0x00000000000000000000000000000000262f7afe4692e7838aa939cb2770bcc1"
                    },
                    {
                        "current": "0x00000000000000000000000000674adb240aaf64921190eb7ab51f306426df92",
                        "key": "0x000000000000000000000000000000000000000000000000000000000000000a",
                        "prev": "0x00000000000000000000000000674a78af9b7c7ed38f1f0ebfc8ab5952727dc8"
                    },
                    {
                        "current": "0x6280ed4a000000000038564f5752bdb357a700000008c15954924b2e610cb6a8",
                        "key": "0x0000000000000000000000000000000000000000000000000000000000000008",
                        "prev": "0x6280ead40000000000382e17fa4cd89385a700000008c798fa3ed7c37ec9a461"
                    }
                ],
                "storageVariables": [
                    {
                        "name": "price0CumulativeLast",
                        "type": "uint256",
                        "value": {
                            "current": "50757515783693235858003938156530484903",
                            "prev": "50757196391944411346149559950185118913",
                            "typeTag": 1
                        }
                    },
                    {
                        "name": "price1CumulativeLast",
                        "type": "uint256",
                        "value": {
                            "current": "2303497634353648333898785336715532482661244818",
                            "prev": "2303464131913865296892510530570000510642978248",
                            "typeTag": 1
                        }
                    },
                    {
                        "name": "reserve0",
                        "type": "uint112",
                        "value": {
                            "current": "10584471142349343428490920",
                            "prev": "10613979424194489330803809",
                            "typeTag": 1
                        }
                    },
                    {
                        "name": "reserve1",
                        "type": "uint112",
                        "value": {
                            "current": "1039236953751038416807",
                            "prev": "1036339066585901925799",
                            "typeTag": 1
                        }
                    },
                    {
                        "name": "blockTimestampLast",
                        "type": "uint32",
                        "value": {
                            "current": "1652616522",
                            "prev": "1652615892",
                            "typeTag": 1
                        }
                    }
                ]
            },
            {
                "address": "0xc02aaa39b223fe8d0a0e5c4f27ead9083c756cc2",
                "erc": "ERC-20",
                "slots": [
                    {
                        "current": "0x00000000000000000000000000000000000000000000001b9aa24936b3fc89a5",
                        "key": "0x993460b7a842a34c6de2dc08dde1c527f4354825432b190bba2e4f8a7b04c6c8",
                        "prev": "0x00000000000000000000000000000000000000000000001bc2d9a63c991c5ba5"
                    },
                    {
                        "current": "0x000000000000000000000000000000000000000000000038564f5752bdb357a7",
                        "key": "0xde250f6347bec0bf3a60ff7a64aca7af4c46a25b7d314d57cdc56ef3fd715865",
                        "prev": "0x0000000000000000000000000000000000000000000000382e17fa4cd89385a7"
                    }
                ],
                "storageVariables": [
                    {
                        "name": "balanceOf",
                        "type": "mapping(address => uint256)",
                        "value": {
                            "pairs": [
                                {
                                    "key": "0x6ada49aeccf6e556bb7a35ef0119cc8ca795294a",
                                    "value": {
                                        "current": "1039236953751038416807",
                                        "prev": "1036339066585901925799",
                                        "typeTag": 1
                                    }
                                },
                                {
                                    "key": "0x98c3d3183c4b8a650614ad179a1a98be0a8d6b8e",
                                    "value": {
                                        "current": "509204638917522655653",
                                        "prev": "512102526082659146661",
                                        "typeTag": 1
                                    }
                                }
                            ],
                            "typeTag": 4
                        }
                    }
                ]
            }
        ]
    }
}