{
    "balance_change": {
        "balanceChanges": [
            {
                "account": "0x23b88d66fa8df792fa1d607b559414c0fda61b6a",
                "assets": [
                    {
                        "address": "0xe41d2489571d322189246dafa5ebde1f4699f498",
                        "amount": "3,660",
                        "iconUrl": "https://assets.blocksec.com/icon/6c4cfed2c799afeb85b9e6ad087e66bdd588f8169e94dcf9e90f3048ceb6c6f3.png",
                        "isERC1155": false,
                        "isERC721": false,
                        "sign": false,
                        "value": ""
                    }
                ]
            },
            {
                "account": "0x395c0e4dd04c9c5fd7ac1e578d65cabbf45a82e0",
                "assets": [
                    {
                        "address": "0xe41d2489571d322189246dafa5ebde1f4699f498",
                        "amount": "3,660",
                        "iconUrl": "https://assets.blocksec.com/icon/6c4cfed2c799afeb85b9e6ad087e66bdd588f8169e94dcf9e90f3048ceb6c6f3.png",
                        "isERC1155": false,
                        "isERC721": false,
                        "sign": true,
                        "value": ""
                    }
                ]
            }
        ]
    },
    "profile": {
        "basic_info": {
            "baseFee": "",
            "blockNumber": 6652256,
            "callData": "0x0dcd7a6c000000000000000000000000395c0e4dd04c9c5fd7ac1e578d65cabbf45a82e00000000000000000000000000000000000000000000000c668b4107d29b00000000000000000000000000000e41d2489571d322189246dafa5ebde1f4699f498000000000000000000000000000000000000000000000000000000005bea6001000000000000000000000000000000000000000000000000000000000000107c00000000000000000000000000000000000000000000000000000000000000c00000000000000000000000000000000000000000000000000000000000000041ffc4705bb2d52d53d6619ba0f65fce4cd4c6a945b948d74297f382eda0e9099d7d0ea404a3fb840f83943ed0bda42b006f7494f3d091dbc2aa2457c0ccc60f861b00000000000000000000000000000000000000000000000000000000000000",
            "debugEnable": true,
            "errorInfo": "",
            "eventCount": 2,
            "feeRecipient": "0x829bd824b016326a401d083b33d092293333a830",
            "formatValue": "0",
            "gasLimit": 500000,
            "gasPrice": "13.5",
            "gasUsed": 90703,
            "intTxnCount": 3,
            "internalRevert": false,
            "internalRevertMessage": "",
            "isContractCreation": false,
            "isFlashloan": false,
            "maxFee": "",
            "nonce": 15958,
            "overwritedBlockNumber": -1,
            "priorityFee": "",
            "receiver": "0x23b88d66fa8df792fa1d607b559414c0fda61b6a",
            "revertMessage": "",
            "sender": "0x55e32598a1f00d9dbd5dece3e79a5c50fdcb8de9",
            "simulationEnable": true,
            "sourceTxnHash": "0xd51b54d88abe8cfce9f5dac79269e4c8f4869e442358f5518bca340c3a5d5eda",
            "status": true,
            "timestamp": "2018-11-06T05:24:34Z",
            "transactionFee": "0.0012244905",
            "txnHash": "0xd51b54d88abe8cfce9f5dac79269e4c8f4869e442358f5518bca340c3a5d5eda",
            "txnIndex": 68,
            "type": 0,
            "value": "0"
        },
        "fund_flow": [
            {
                "amount": "3,660",
                "from": "0x23b88d66fa8df792fa1d607b559414c0fda61b6a",
                "id": 1,
                "isERC1155": false,
                "isERC721": false,
                "isReverted": false,
                "order": 1,
                "to": "0x395c0e4dd04c9c5fd7ac1e578d65cabbf45a82e0",
                "token": "0xe41d2489571d322189246dafa5ebde1f4699f498"
            }
        ],
        "token_infos": [
            {
                "address": "0xeeeeeeeeeeeeeeeeeeeeeeeeeeeeeeeeeeeeeeee",
                "decimals": 18
            },
            {
                "address": "0xc02aaa39b223fe8d0a0e5c4f27ead9083c756cc2",
                "decimals": 18
            },
            {
                "address": "0xe41d2489571d322189246dafa5ebde1f4699f498",
                "decimals": 18
            }
        ]
    },
    "address_label": {
        "labels": [
            {
                "address": "0x0000000000000000000000000000000000000002",
                "label": "Precompiled"
            },
            {
                "address": "0x0000000000000000000000000000000000000003",
                "label": "Precompiled"
            },
            {
                "address": "0x0000000000000000000000000000000000000004",
                "label": "Precompiled"
            },
            {
                "address": "0xeeeeeeeeeeeeeeeeeeeeeeeeeeeeeeeeeeeeeeee",
                "label": "Ether"
            },
            {
                "address": "0xe41d2489571d322189246dafa5ebde1f4699f498",
                "label": "0x: ZRX Token"
            },
            {
                "address": "0x5b9e8728e316bbeb692d22daaab74f6cbf2c4691",
                "label": "WalletSimple"
            },
            {
                "address": "0x0000000000000000000000000000000000000001",
                "label": "Precompiled"
            }
        ]
    },
    "trace": {
        "accountLabels": null,
        "dataMap": {
            "-1": {
                "invocation": {
                    "address": "0x55e32598a1f00d9dbd5dece3e79a5c50fdcb8de9",
                    "callData": "",
                    "decodedMethod": null,
                    "errorInfo": "",
                    "fromAddress": "",
                    "gasUsed": 0,
                    "id": -1,
                    "methodDecoded": false,
                    "operation": "",
                    "output": "",
                    "revert": false,
                    "revertMessage": "",
                    "selector": "",
                    "status": false,
                    "value": ""
                },
                "nodeType": 0
            },
            "0": {
                "invocation": {
                    "address": "0x23b88d66fa8df792fa1d607b559414c0fda61b6a",
                    "callData": "0x000000000000000000000000395c0e4dd04c9c5fd7ac1e578d65cabbf45a82e00000000000000000000000000000000000000000000000c668b4107d29b00000000000000000000000000000e41d2489571d322189246dafa5ebde1f4699f498000000000000000000000000000000000000000000000000000000005bea6001000000000000000000000000000000000000000000000000000000000000107c00000000000000000000000000000000000000000000000000000000000000c00000000000000000000000000000000000000000000000000000000000000041ffc4705bb2d52d53d6619ba0f65fce4cd4c6a945b948d74297f382eda0e9099d7d0ea404a3fb840f83943ed0bda42b006f7494f3d091dbc2aa2457c0ccc60f861b00000000000000000000000000000000000000000000000000000000000000",
                    "decodedMethod": {
                        "callParams": [
                            {
                                "name": "toAddress",
                                "type": "address",
                                "value": "0x395c0e4dd04c9c5fd7ac1e578d65cabbf45a82e0"
                            },
                            {
                                "name": "value",
                                "type": "uint256",
                                "value": "3,660,000,000,000,000,000,000"
                            },
                            {
                                "name": "tokenContractAddress",
                                "type": "address",
                                "value": "0xe41d2489571d322189246dafa5ebde1f4699f498"
                            },
                            {
                                "name": "expireTime",
                                "type": "uint256",
                                "value": "1,542,086,657"
                            },
                            {
                                "name": "sequenceId",
                                "type": "uint256",
                                "value": "4,220"
                            },
                            {
                                "name": "signature",
                                "type": "bytes",
                                "value": "0xffc4705bb2d52d53d6619ba0f65fce4cd4c6a945b948d74297f382eda0e9099d7d0ea404a3fb840f83943ed0bda42b006f7494f3d091dbc2aa2457c0ccc60f861b"
                            }
                        ],
                        "constructorArguments": "",
                        "name": "sendMultiSigToken",
                        "returnParams": [],
                        "signature": "sendMultiSigToken(address,uint256,address,uint256,uint256,bytes)"
                    },
                    "errorInfo": "",
                    "fromAddress": "0x55e32598a1f00d9dbd5dece3e79a5c50fdcb8de9",
                    "gasUsed": 90703,
                    "id": 0,
                    "methodDecoded": true,
                    "operation": "CALL",
                    "output": "0x0dcd7a6c000000000000000000000000395c0e4dd04c9c5fd7ac1e578d65cabb",
                    "revert": false,
                    "revertMessage": "",
                    "selector": "0x0dcd7a6c",
                    "status": true,
                    "value": "0"
                },
                "nodeType": 0
            },
            "1": {
                "invocation": {
                    "address": "0x5b9e8728e316bbeb692d22daaab74f6cbf2c4691",
                    "callData": "0x000000000000000000000000395c0e4dd04c9c5fd7ac1e578d65cabbf45a82e00000000000000000000000000000000000000000000000c668b4107d29b00000000000000000000000000000e41d2489571d322189246dafa5ebde1f4699f498000000000000000000000000000000000000000000000000000000005bea6001000000000000000000000000000000000000000000000000000000000000107c00000000000000000000000000000000000000000000000000000000000000c00000000000000000000000000000000000000000000000000000000000000041ffc4705bb2d52d53d6619ba0f65fce4cd4c6a945b948d74297f382eda0e9099d7d0ea404a3fb840f83943ed0bda42b006f7494f3d091dbc2aa2457c0ccc60f861b00000000000000000000000000000000000000000000000000000000000000",
                    "decodedMethod": {
                        "callParams": [
                            {
                                "name": "toAddress",
                                "type": "address",
                                "value": "0x395c0e4dd04c9c5fd7ac1e578d65cabbf45a82e0"
                            },
                            {
                                "name": "value",
                                "type": "uint256",
                                "value": "3,660,000,000,000,000,000,000"
                            },
                            {
                                "name": "tokenContractAddress",
                                "type": "address",
                                "value": "0xe41d2489571d322189246dafa5ebde1f4699f498"
                            },
                            {
                                "name": "expireTime",
                                "type": "uint256",
                                "value": "1,542,086,657"
                            },
                            {
                                "name": "sequenceId",
                                "type": "uint256",
                                "value": "4,220"
                            },
                            {
                                "name": "signature",
                                "type": "bytes",
                                "value": "0xffc4705bb2d52d53d6619ba0f65fce4cd4c6a945b948d74297f382eda0e9099d7d0ea404a3fb840f83943ed0bda42b006f7494f3d091dbc2aa2457c0ccc60f861b"
                            }
                        ],
                        "constructorArguments": "",
                        "name": "sendMultiSigToken",
                        "returnParams": [],
                        "signature": "sendMultiSigToken(address,uint256,address,uint256,uint256,bytes)"
                    },
                    "errorInfo": "",
                    "fromAddress": "0x23b88d66fa8df792fa1d607b559414c0fda61b6a",
                    "gasUsed": 59710,
                    "id": 1,
                    "methodDecoded": true,
                    "operation": "DELEGATECALL",
                    "output": "",
                    "revert": false,
                    "revertMessage": "",
                    "selector": "0x0dcd7a6c",
                    "status": true,
                    "value": "0"
                },
                "nodeType": 0
            },
            "2": {
                "invocation": {
                    "address": "0x0000000000000000000000000000000000000001",
                    "callData": "0xf1ba770dc80f9d147a292973d4a66b19282ac3e4e99d99b6273cc30c000000000000000000000000000000000000000000000000000000000000001bffc4705bb2d52d53d6619ba0f65fce4cd4c6a945b948d74297f382eda0e9099d7d0ea404a3fb840f83943ed0bda42b006f7494f3d091dbc2aa2457c0ccc60f86",
                    "decodedMethod": {
                        "callParams": [
                            {
                                "name": "hash",
                                "type": "bytes32",
                                "value": "0xd9be0a3bf1ba770dc80f9d147a292973d4a66b19282ac3e4e99d99b6273cc30c"
                            },
                            {
                                "name": "v",
                                "type": "uint256",
                                "value": "27"
                            },
                            {
                                "name": "r",
                                "type": "bytes32",
                                "value": "0xffc4705bb2d52d53d6619ba0f65fce4cd4c6a945b948d74297f382eda0e9099d"
                            },
                            {
                                "name": "s",
                                "type": "bytes32",
                                "value": "0x7d0ea404a3fb840f83943ed0bda42b006f7494f3d091dbc2aa2457c0ccc60f86"
                            }
                        ],
                        "constructorArguments": "",
                        "name": "ecrecover",
                        "returnParams": [
                            {
                                "name": "",
                                "type": "address",
                                "value": "0xd0db64b6aadaec71344fef9a30d80851f51314cd"
                            }
                        ],
                        "signature": "ecrecover(bytes32,uint256,bytes32,bytes32)"
                    },
                    "errorInfo": "",
                    "fromAddress": "0x23b88d66fa8df792fa1d607b559414c0fda61b6a",
                    "gasUsed": 3000,
                    "id": 2,
                    "methodDecoded": true,
                    "operation": "CALL",
                    "output": "0x000000000000000000000000d0db64b6aadaec71344fef9a30d80851f51314cd",
                    "revert": false,
                    "revertMessage": "",
                    "selector": "0xd9be0a3b",
                    "status": true,
                    "value": "0"
                },
                "nodeType": 0
            },
            "3": {
                "invocation": {
                    "address": "0xe41d2489571d322189246dafa5ebde1f4699f498",
                    "callData": "0x000000000000000000000000395c0e4dd04c9c5fd7ac1e578d65cabbf45a82e00000000000000000000000000000000000000000000000c668b4107d29b00000",
                    "decodedMethod": {
                        "callParams": [
                            {
                                "name": "_to",
                                "type": "address",
                                "value": "0x395c0e4dd04c9c5fd7ac1e578d65cabbf45a82e0"
                            },
                            {
                                "decimalAvailable": true,
                                "name": "_value",
                                "type": "uint256",
                                "value": "3,660,000,000,000,000,000,000"
                            }
                        ],
                        "constructorArguments": "",
                        "name": "transfer",
                        "returnParams": [
                            {
                                "name": "",
                                "type": "bool",
                                "value": true
                            }
                        ],
                        "signature": "transfer(address,uint256)"
                    },
                    "errorInfo": "",
                    "fromAddress": "0x23b88d66fa8df792fa1d607b559414c0fda61b6a",
                    "gasUsed": 28850,
                    "id": 3,
                    "methodDecoded": true,
                    "operation": "CALL",
                    "output": "0x0000000000000000000000000000000000000000000000000000000000000001",
                    "revert": false,
                    "revertMessage": "",
                    "selector": "0xa9059cbb",
                    "status": true,
                    "value": "0"
                },
                "nodeType": 0
            },
            "4": {
                "event": {
                    "contract": "0xe41d2489571d322189246dafa5ebde1f4699f498",
                    "decodedLog": {
                        "name": "Transfer",
                        "params": [
                            {
                                "name": "_from",
                                "type": "address",
                                "value": "0x23b88d66fa8df792fa1d607b559414c0fda61b6a"
                            },
                            {
                                "name": "_to",
                                "type": "address",
                                "value": "0x395c0e4dd04c9c5fd7ac1e578d65cabbf45a82e0"
                            },
                            {
                                "decimalAvailable": true,
                                "name": "_value",
                                "type": "uint256",
                                "value": "3,660,000,000,000,000,000,000"
                            }
                        ],
                        "signature": "Transfer(address,address,uint256)"
                    },
                    "id": 4,
                    "logData": "0x0000000000000000000000000000000000000000000000c668b4107d29b00000",
                    "logDecoded": true,
                    "operation": "EVENT",
                    "revert": false,
                    "status": true,
                    "topics": [
                        "0xddf252ad1be2c89b69c2b068fc378daa952ba7f163c4a11628f55a4df523b3ef",
                        "0x00000000000000000000000023b88d66fa8df792fa1d607b559414c0fda61b6a",
                        "0x000000000000000000000000395c0e4dd04c9c5fd7ac1e578d65cabbf45a82e0"
                    ]
                },
                "nodeType": 1
            },
            "5": {
                "event": {
                    "contract": "0x23b88d66fa8df792fa1d607b559414c0fda61b6a",
                    "decodedLog": {
                        "name": "TokenTransacted",
                        "params": [
                            {
                                "name": "msgSender",
                                "type": "address",
                                "value": "0x55e32598a1f00d9dbd5dece3e79a5c50fdcb8de9"
                            },
                            {
                                "name": "otherSigner",
                                "type": "address",
                                "value": "0xd0db64b6aadaec71344fef9a30d80851f51314cd"
                            },
                            {
                                "name": "operation",
                                "type": "bytes32",
                                "value": "0xd9be0a3bf1ba770dc80f9d147a292973d4a66b19282ac3e4e99d99b6273cc30c"
                            },
                            {
                                "name": "toAddress",
                                "type": "address",
                                "value": "0x395c0e4dd04c9c5fd7ac1e578d65cabbf45a82e0"
                            },
                            {
                                "name": "value",
                                "type": "uint256",
                                "value": "3,660,000,000,000,000,000,000"
                            },
                            {
                                "name": "tokenContractAddress",
                                "type": "address",
                                "value": "0xe41d2489571d322189246dafa5ebde1f4699f498"
                            }
                        ],
                        "signature": "TokenTransacted(address,address,bytes32,address,uint256,address)"
                    },
                    "id": 5,
                    "logData": "0x00000000000000000000000055e32598a1f00d9dbd5dece3e79a5c50fdcb8de9000000000000000000000000d0db64b6aadaec71344fef9a30d80851f51314cdd9be0a3bf1ba770dc80f9d147a292973d4a66b19282ac3e4e99d99b6273cc30c000000000000000000000000395c0e4dd04c9c5fd7ac1e578d65cabbf45a82e00000000000000000000000000000000000000000000000c668b4107d29b00000000000000000000000000000e41d2489571d322189246dafa5ebde1f4699f498",
                    "logDecoded": true,
                    "operation": "EVENT",
                    "revert": false,
                    "status": true,
                    "topics": [
                        "0xf3574a20a6defd7fc26917e8013cdd578db5eaa4d9a3eb54f2bb0983ad8ab40d"
                    ]
                },
                "nodeType": 1
            }
        },
        "gasFlame": [
            {
                "children": [
                    {
                        "children": [
                            {
                                "children": [],
                                "depth": 0,
                                "name": "Initial Gas",
                                "value": 30168
                            },
                            {
                                "children": [
                                    {
                                        "children": [
                                            {
                                                "children": [],
                                                "depth": 2,
                                                "name": "ecrecover",
                                                "value": 3000
                                            },
                                            {
                                                "children": [],
                                                "depth": 2,
                                                "name": "transfer",
                                                "value": 28850
                                            }
                                        ],
                                        "depth": 1,
                                        "name": "sendMultiSigToken",
                                        "value": 59710
                                    }
                                ],
                                "depth": 0,
                                "name": "Executed Gas",
                                "value": 60535
                            }
                        ],
                        "depth": -1,
                        "name": "Actual Gas Used",
                        "value": 90703
                    },
                    {
                        "children": [],
                        "depth": -1,
                        "name": "Refunded Gas",
                        "value": 0
                    }
                ],
                "depth": -2,
                "name": "Total Gas",
                "value": 90703
            }
        ],
        "isConfirmed": true,
        "mainTrace": [
            {
                "children": [
                    {
                        "children": [
                            {
                                "children": [
                                    {
                                        "children": [],
                                        "depth": 2,
                                        "id": 2,
                                        "order": 2
                                    },
                                    {
                                        "children": [
                                            {
                                                "children": [],
                                                "depth": 3,
                                                "id": 4,
                                                "order": 4
                                            }
                                        ],
                                        "depth": 2,
                                        "id": 3,
                                        "order": 3
                                    },
                                    {
                                        "children": [],
                                        "depth": 2,
                                        "id": 5,
                                        "order": 5
                                    }
                                ],
                                "depth": 1,
                                "id": 1,
                                "order": 1
                            }
                        ],
                        "depth": 0,
                        "id": 0,
                        "order": 0
                    }
                ],
                "depth": -1,
                "id": -1,
                "order": -1
            }
        ],
        "mainTraceNodeCount": 6,
        "parentIdMap": {
            "0": -1,
            "1": 0,
            "2": 1,
            "3": 1,
            "4": 3,
            "5": 1
        },
        "tidyTrace": [
            {
                "children": [
                    {
                        "children": [
                            {
                                "children": [
                                    {
                                        "children": [],
                                        "depth": 2,
                                        "id": 2,
                                        "order": 2
                                    },
                                    {
                                        "children": [
                                            {
                                                "children": [],
                                                "depth": 3,
                                                "id": 4,
                                                "order": 4
                                            }
                                        ],
                                        "depth": 2,
                                        "id": 3,
                                        "order": 3
                                    },
                                    {
                                        "children": [],
                                        "depth": 2,
                                        "id": 5,
                                        "order": 5
                                    }
                                ],
                                "depth": 1,
                                "id": 1,
                                "order": 1
                            }
                        ],
                        "depth": 0,
                        "id": 0,
                        "order": 0
                    }
                ],
                "depth": -1,
                "id": -1,
                "order": -1
            }
        ],
        "tidyTraceNodeCount": 6
    },
    "state_change": {
        "stateChanges": [
            {
                "address": "0x23b88d66fa8df792fa1d607b559414c0fda61b6a",
                "erc": "",
                "slots": [
                    {
                        "current": "0x000000000000000000000000000000000000000000000000000000000000107c",
                        "key": "0x0000000000000000000000000000000000000000000000000000000000000009",
                        "prev": "0x0000000000000000000000000000000000000000000000000000000000001067"
                    }
                ],
                "storageVariables": []
            },
            {
                "address": "0xe41d2489571d322189246dafa5ebde1f4699f498",
                "erc": "ERC-20",
                "slots": [
                    {
                        "current": "0x0000000000000000000000000000000000000000000000000d55d53c3062bc00",
                        "key": "0x102183a8e99e60cf69d834e4adcd4581be7c99ea257d594355949c05413579bb",
                        "prev": "0x0000000000000000000000000000000000000000000000c67609e5b95a12bc00"
                    },
                    {
                        "current": "0x0000000000000000000000000000000000000000000000c668b4107d29b00000",
                        "key": "0xc1cd28fd083868b291ee4fb4badf366c09e0691fe9022d4353e8c8b4d11822e8",
                        "prev": "0x0000000000000000000000000000000000000000000000000000000000000000"
                    }
                ],
                "storageVariables": []
            }
        ]
    }
}