{
    "balance_change": {
        "balanceChanges": [
            {
                "account": "0x6152d0c9256c702721e5ba451b47427388ca8144",
                "assets": [
                    {
                        "address": "0xbf83c5368b56d8408858d06f1bce15c1261fbe8f",
                        "amount": "2,461",
                        "iconUrl": "",
                        "isERC1155": false,
                        "isERC721": false,
                        "sign": false,
                        "value": ""
                    }
                ]
            },
            {
                "account": "0x26e947e60e2b77219320e3e4c39540499b029151",
                "assets": [
                    {
                        "address": "0xbf83c5368b56d8408858d06f1bce15c1261fbe8f",
                        "amount": "2,461",
                        "iconUrl": "",
                        "isERC1155": false,
                        "isERC721": false,
                        "sign": true,
                        "value": ""
                    }
                ]
            }
        ]
    },
    "profile": {
        "basic_info": {
            "baseFee": "",
            "blockNumber": 7308078,
            "callData": "0xa9059cbb00000000000000000000000026e947e60e2b77219320e3e4c39540499b029151000000000000000000000000000000000000000000000085693c5d102c540000",
            "debugEnable": true,
            "errorInfo": "",
            "eventCount": 1,
            "feeRecipient": "0x829bd824b016326a401d083b33d092293333a830",
            "formatValue": "0",
            "gasLimit": 99000,
            "gasPrice": "11.25",
            "gasUsed": 51997,
            "intTxnCount": 0,
            "internalRevert": false,
            "internalRevertMessage": "",
            "isContractCreation": false,
            "isFlashloan": false,
            "maxFee": "",
            "nonce": 23263,
            "overwritedBlockNumber": -1,
            "priorityFee": "",
            "receiver": "0xbf83c5368b56d8408858d06f1bce15c1261fbe8f",
            "revertMessage": "",
            "sender": "0x6152d0c9256c702721e5ba451b47427388ca8144",
            "simulationEnable": true,
            "sourceTxnHash": "0xd55b01521f4bc6fdc69c596ad0a1daca2de71ac745b35a5ab96d5bff940d0ef0",
            "status": true,
            "timestamp": "2019-03-05T07:40:15Z",
            "transactionFee": "0.00058496625",
            "txnHash": "0xd55b01521f4bc6fdc69c596ad0a1daca2de71ac745b35a5ab96d5bff940d0ef0",
            "txnIndex": 58,
            "type": 0,
            "value": "0"
        },
        "fund_flow": [
            {
                "amount": "2,461",
                "from": "0x6152d0c9256c702721e5ba451b47427388ca8144",
                "id": 1,
                "isERC1155": false,
                "isERC721": false,
                "isReverted": false,
                "order": 1,
                "to": "0x26e947e60e2b77219320e3e4c39540499b029151",
                "token": "0xbf83c5368b56d8408858d06f1bce15c1261fbe8f"
            }
        ],
        "token_infos": [
            {
                "address": "0xbf83c5368b56d8408858d06f1bce15c1261fbe8f",
                "decimals": 18
            },
            {
                "address": "0xc02aaa39b223fe8d0a0e5c4f27ead9083c756cc2",
                "decimals": 18
            },
            {
                "address": "0xeeeeeeeeeeeeeeeeeeeeeeeeeeeeeeeeeeeeeeee",
                "decimals": 18
            }
        ]
    },
    "address_label": {
        "labels": [
            {
                "address": "0xeeeeeeeeeeeeeeeeeeeeeeeeeeeeeeeeeeeeeeee",
                "label": "Ether"
            },
            {
                "address": "0xbf83c5368b56d8408858d06f1bce15c1261fbe8f",
                "label": "LAC"
            },
            {
                "address": "0x0000000000000000000000000000000000000001",
                "label": "Precompiled"
            },
            {
                "address": "0x0000000000000000000000000000000000000002",
                "label": "Precompiled"
            },
            {
                "address": "0x0000000000000000000000000000000000000003",
                "label": "Precompiled"
            },
            {
                "address": "0x0000000000000000000000000000000000000004",
                "label": "Precompiled"
            }
        ]
    },
    "trace": {
        "accountLabels": null,
        "dataMap": {
            "-1": {
                "invocation": {
                    "address": "0x6152d0c9256c702721e5ba451b47427388ca8144",
                    "callData": "",
                    "decodedMethod": null,
                    "errorInfo": "",
                    "fromAddress": "",
                    "gasUsed": 0,
                    "id": -1,
                    "methodDecoded": false,
                    "operation": "",
                    "output": "",
                    "revert": false,
                    "revertMessage": "",
                    "selector": "",
                    "status": false,
                    "value": ""
                },
                "nodeType": 0
            },
            "0": {
                "invocation": {
                    "address": "0xbf83c5368b56d8408858d06f1bce15c1261fbe8f",
                    "callData": "0x00000000000000000000000026e947e60e2b77219320e3e4c39540499b029151000000000000000000000000000000000000000000000085693c5d102c540000",
                    "decodedMethod": {
                        "callParams": [
                            {
                                "name": "_to",
                                "type": "address",
                                "value": "0x26e947e60e2b77219320e3e4c39540499b029151"
                            },
                            {
                                "decimalAvailable": true,
                                "name": "_value",
                                "type": "uint256",
                                "value": "2,461,000,000,000,000,000,000"
                            }
                        ],
                        "constructorArguments": "",
                        "name": "transfer",
                        "returnParams": [
                            {
                                "name": "success",
                                "type": "bool",
                                "value": true
                            }
                        ],
                        "signature": "transfer(address,uint256)"
                    },
                    "errorInfo": "",
                    "fromAddress": "0x6152d0c9256c702721e5ba451b47427388ca8144",
                    "gasUsed": 51997,
                    "id": 0,
                    "methodDecoded": true,
                    "operation": "CALL",
                    "output": "0x0000000000000000000000000000000000000000000000000000000000000001",
                    "revert": false,
                    "revertMessage": "",
                    "selector": "0xa9059cbb",
                    "status": true,
                    "value": "0"
                },
                "nodeType": 0
            },
            "1": {
                "event": {
                    "contract": "0xbf83c5368b56d8408858d06f1bce15c1261fbe8f",
                    "decodedLog": {
                        "name": "Transfer",
                        "params": [
                            {
                                "name": "_from",
                                "type": "address",
                                "value": "0x6152d0c9256c702721e5ba451b47427388ca8144"
                            },
                            {
                                "name": "_to",
                                "type": "address",
                                "value": "0x26e947e60e2b77219320e3e4c39540499b029151"
                            },
                            {
                                "decimalAvailable": true,
                                "name": "_value",
                                "type": "uint256",
                                "value": "2,461,000,000,000,000,000,000"
                            }
                        ],
                        "signature": "Transfer(address,address,uint256)"
                    },
                    "id": 1,
                    "logData": "0x000000000000000000000000000000000000000000000085693c5d102c540000",
                    "logDecoded": true,
                    "operation": "EVENT",
                    "revert": false,
                    "status": true,
                    "topics": [
                        "0xddf252ad1be2c89b69c2b068fc378daa952ba7f163c4a11628f55a4df523b3ef",
                        "0x0000000000000000000000006152d0c9256c702721e5ba451b47427388ca8144",
                        "0x00000000000000000000000026e947e60e2b77219320e3e4c39540499b029151"
                    ]
                },
                "nodeType": 1
            }
        },
        "gasFlame": [
            {
                "children": [
                    {
                        "children": [
                            {
                                "children": [],
                                "depth": 0,
                                "name": "Initial Gas",
                                "value": 23256
                            },
                            {
                                "children": [],
                                "depth": 0,
                                "name": "Executed Gas",
                                "value": 28741
                            }
                        ],
                        "depth": -1,
                        "name": "Actual Gas Used",
                        "value": 51997
                    },
                    {
                        "children": [],
                        "depth": -1,
                        "name": "Refunded Gas",
                        "value": 0
                    }
                ],
                "depth": -2,
                "name": "Total Gas",
                "value": 51997
            }
        ],
        "isConfirmed": true,
        "mainTrace": [
            {
                "children": [
                    {
                        "children": [
                            {
                                "children": [],
                                "depth": 1,
                                "id": 1,
                                "order": 1
                            }
                        ],
                        "depth": 0,
                        "id": 0,
                        "order": 0
                    }
                ],
                "depth": -1,
                "id": -1,
                "order": -1
            }
        ],
        "mainTraceNodeCount": 2,
        "parentIdMap": {
            "0": -1,
            "1": 0
        },
        "tidyTrace": [
            {
                "children": [
                    {
                        "children": [
                            {
                                "children": [],
                                "depth": 1,
                                "id": 1,
                                "order": 1
                            }
                        ],
                        "depth": 0,
                        "id": 0,
                        "order": 0
                    }
                ],
                "depth": -1,
                "id": -1,
                "order": -1
            }
        ],
        "tidyTraceNodeCount": 2
    },
    "state_change": {
        "stateChanges": [
            {
                "address": "0xbf83c5368b56d8408858d06f1bce15c1261fbe8f",
                "erc": "ERC-20",
                "slots": [
                    {
                        "current": "0x0000000000000000000000000000000000000000000fb046f995f4c78be5a4b4",
                        "key": "0x1e4ab2c014842f21a45c22358ad7c2e2cdb9db33a8a381df55104d9e535afa9c",
                        "prev": "0x0000000000000000000000000000000000000000000fb0cc62d251d7b839a4b4"
                    },
                    {
                        "current": "0x000000000000000000000000000000000000000000000085693c5d102c540000",
                        "key": "0x3d1f4f2d23efd3ed843fbd59c8633a07122a9d36c774e9663254cffde6e6bc3e",
                        "prev": "0x0000000000000000000000000000000000000000000000000000000000000000"
                    }
                ],
                "storageVariables": [
                    {
                        "name": "balances",
                        "type": "mapping(address => uint256)",
                        "value": {
                            "pairs": [
                                {
                                    "key": "0x26e947e60e2b77219320e3e4c39540499b029151",
                                    "value": {
                                        "current": "2461000000000000000000",
                                        "prev": "0",
                                        "typeTag": 1
                                    }
                                },
                                {
                                    "key": "0x6152d0c9256c702721e5ba451b47427388ca8144",
                                    "value": {
                                        "current": "18966333051839479703512244",
                                        "prev": "18968794051839479703512244",
                                        "typeTag": 1
                                    }
                                }
                            ],
                            "typeTag": 4
                        }
                    }
                ]
            }
        ]
    }
}