{
    "balance_change": {
        "balanceChanges": [
            {
                "account": "0x68b42e44079d1d0a4a037e8c6ecd62c48967e69f",
                "assets": [
                    {
                        "address": "0xeeeeeeeeeeeeeeeeeeeeeeeeeeeeeeeeeeeeeeee",
                        "amount": "0.008",
                        "iconUrl": "https://assets.blocksec.com/image/1663669189317-3.png",
                        "isERC1155": false,
                        "isERC721": false,
                        "sign": false,
                        "value": ""
                    }
                ]
            },
            {
                "account": "0x06012c8cf97bead5deae237070f9587f8e7a266d",
                "assets": [
                    {
                        "address": "0xeeeeeeeeeeeeeeeeeeeeeeeeeeeeeeeeeeeeeeee",
                        "amount": "0.008",
                        "iconUrl": "https://assets.blocksec.com/image/1663669189317-3.png",
                        "isERC1155": false,
                        "isERC721": false,
                        "sign": true,
                        "value": ""
                    }
                ]
            }
        ]
    },
    "profile": {
        "basic_info": {
            "baseFee": "",
            "blockNumber": 6772338,
            "callData": "0xf7d8c8830000000000000000000000000000000000000000000000000000000000128d70000000000000000000000000000000000000000000000000000000000012847d",
            "debugEnable": true,
            "errorInfo": "",
            "eventCount": 1,
            "feeRecipient": "0x2a65aca4d5fc5b5c859090a6c34d164135398226",
            "formatValue": "0.008",
            "gasLimit": 90000,
            "gasPrice": "12",
            "gasUsed": 79985,
            "intTxnCount": 0,
            "internalRevert": false,
            "internalRevertMessage": "",
            "isContractCreation": false,
            "isFlashloan": false,
            "maxFee": "",
            "nonce": 181910,
            "overwritedBlockNumber": -1,
            "priorityFee": "",
            "receiver": "0x06012c8cf97bead5deae237070f9587f8e7a266d",
            "revertMessage": "",
            "sender": "0x68b42e44079d1d0a4a037e8c6ecd62c48967e69f",
            "simulationEnable": true,
            "sourceTxnHash": "0xd5e021596a51ae34832b5441c5129fadeeab8a6012b8cee647c18cf8719e731e",
            "status": true,
            "timestamp": "2018-11-25T21:28:26Z",
            "transactionFee": "0.00095982",
            "txnHash": "0xd5e021596a51ae34832b5441c5129fadeeab8a6012b8cee647c18cf8719e731e",
            "txnIndex": 69,
            "type": 0,
            "value": "8000000000000000"
        },
        "fund_flow": [
            {
                "amount": "0.008",
                "from": "0x68b42e44079d1d0a4a037e8c6ecd62c48967e69f",
                "id": 1,
                "isERC1155": false,
                "isERC721": false,
                "isReverted": false,
                "order": 1,
                "to": "0x06012c8cf97bead5deae237070f9587f8e7a266d",
                "token": "0xeeeeeeeeeeeeeeeeeeeeeeeeeeeeeeeeeeeeeeee"
            }
        ],
        "token_infos": [
            {
                "address": "0xc02aaa39b223fe8d0a0e5c4f27ead9083c756cc2",
                "decimals": 18
            },
            {
                "address": "0xeeeeeeeeeeeeeeeeeeeeeeeeeeeeeeeeeeeeeeee",
                "decimals": 18
            }
        ]
    },
    "address_label": {
        "labels": [
            {
                "address": "0x0000000000000000000000000000000000000003",
                "label": "Precompiled"
            },
            {
                "address": "0x0000000000000000000000000000000000000004",
                "label": "Precompiled"
            },
            {
                "address": "0xeeeeeeeeeeeeeeeeeeeeeeeeeeeeeeeeeeeeeeee",
                "label": "Ether"
            },
            {
                "address": "0x06012c8cf97bead5deae237070f9587f8e7a266d",
                "label": "CryptoKitties: Core"
            },
            {
                "address": "0x0000000000000000000000000000000000000001",
                "label": "Precompiled"
            },
            {
                "address": "0x0000000000000000000000000000000000000002",
                "label": "Precompiled"
            }
        ]
    },
    "trace": {
        "accountLabels": null,
        "dataMap": {
            "-1": {
                "invocation": {
                    "address": "0x68b42e44079d1d0a4a037e8c6ecd62c48967e69f",
                    "callData": "",
                    "decodedMethod": null,
                    "errorInfo": "",
                    "fromAddress": "",
                    "gasUsed": 0,
                    "id": -1,
                    "methodDecoded": false,
                    "operation": "",
                    "output": "",
                    "revert": false,
                    "revertMessage": "",
                    "selector": "",
                    "status": false,
                    "value": ""
                },
                "nodeType": 0
            },
            "0": {
                "invocation": {
                    "address": "0x06012c8cf97bead5deae237070f9587f8e7a266d",
                    "callData": "0x0000000000000000000000000000000000000000000000000000000000128d70000000000000000000000000000000000000000000000000000000000012847d",
                    "decodedMethod": {
                        "callParams": [
                            {
                                "name": "_matronId",
                                "type": "uint256",
                                "value": "1,215,856"
                            },
                            {
                                "name": "_sireId",
                                "type": "uint256",
                                "value": "1,213,565"
                            }
                        ],
                        "constructorArguments": "",
                        "name": "breedWithAuto",
                        "returnParams": [],
                        "signature": "breedWithAuto(uint256,uint256)"
                    },
                    "errorInfo": "",
                    "fromAddress": "0x68b42e44079d1d0a4a037e8c6ecd62c48967e69f",
                    "gasUsed": 79985,
                    "id": 0,
                    "methodDecoded": true,
                    "operation": "CALL",
                    "output": "",
                    "revert": false,
                    "revertMessage": "",
                    "selector": "0xf7d8c883",
                    "status": true,
                    "value": "0.008"
                },
                "nodeType": 0
            },
            "1": {
                "event": {
                    "contract": "0x06012c8cf97bead5deae237070f9587f8e7a266d",
                    "decodedLog": {
                        "name": "Pregnant",
                        "params": [
                            {
                                "name": "owner",
                                "type": "address",
                                "value": "0x68b42e44079d1d0a4a037e8c6ecd62c48967e69f"
                            },
                            {
                                "name": "matronId",
                                "type": "uint256",
                                "value": "1,215,856"
                            },
                            {
                                "name": "sireId",
                                "type": "uint256",
                                "value": "1,213,565"
                            },
                            {
                                "name": "cooldownEndBlock",
                                "type": "uint256",
                                "value": "6,772,378"
                            }
                        ],
                        "signature": "Pregnant(address,uint256,uint256,uint256)"
                    },
                    "id": 1,
                    "logData": "0x00000000000000000000000068b42e44079d1d0a4a037e8c6ecd62c48967e69f0000000000000000000000000000000000000000000000000000000000128d70000000000000000000000000000000000000000000000000000000000012847d000000000000000000000000000000000000000000000000000000000067569a",
                    "logDecoded": true,
                    "operation": "EVENT",
                    "revert": false,
                    "status": true,
                    "topics": [
                        "0x241ea03ca20251805084d27d4440371c34a0b85ff108f6bb5611248f73818b80"
                    ]
                },
                "nodeType": 1
            }
        },
        "gasFlame": [
            {
                "children": [
                    {
                        "children": [
                            {
                                "children": [],
                                "depth": 0,
                                "name": "Initial Gas",
                                "value": 21912
                            },
                            {
                                "children": [],
                                "depth": 0,
                                "name": "Executed Gas",
                                "value": 58073
                            }
                        ],
                        "depth": -1,
                        "name": "Actual Gas Used",
                        "value": 79985
                    },
                    {
                        "children": [],
                        "depth": -1,
                        "name": "Refunded Gas",
                        "value": 0
                    }
                ],
                "depth": -2,
                "name": "Total Gas",
                "value": 79985
            }
        ],
        "isConfirmed": true,
        "mainTrace": [
            {
                "children": [
                    {
                        "children": [
                            {
                                "children": [],
                                "depth": 1,
                                "id": 1,
                                "order": 1
                            }
                        ],
                        "depth": 0,
                        "id": 0,
                        "order": 0
                    }
                ],
                "depth": -1,
                "id": -1,
                "order": -1
            }
        ],
        "mainTraceNodeCount": 2,
        "parentIdMap": {
            "0": -1,
            "1": 0
        },
        "tidyTrace": [
            {
                "children": [
                    {
                        "children": [
                            {
                                "children": [],
                                "depth": 1,
                                "id": 1,
                                "order": 1
                            }
                        ],
                        "depth": 0,
                        "id": 0,
                        "order": 0
                    }
                ],
                "depth": -1,
                "id": -1,
                "order": -1
            }
        ],
        "tidyTraceNodeCount": 2
    },
    "state_change": {
        "stateChanges": [
            {
                "address": "0x06012c8cf97bead5deae237070f9587f8e7a266d",
                "erc": "",
                "slots": [
                    {
                        "current": "0x000200040012847d000c61bb000f97cb000000000067569a000000005bfaedb2",
                        "key": "0xf652222313e28459528d920b65115c16c04f3efc82aaedc97be59f3f37a12820",
                        "prev": "0x0002000300000000000c61bb000f97cb000000000067565e000000005bfaedb2"
                    },
                    {
                        "current": "0x0002000700000000000c27f5000dbd120000000000675852000000005bfa02a5",
                        "key": "0xf652222313e28459528d920b65115c16c04f3efc82aaedc97be59f3f37a1163a",
                        "prev": "0x0002000600000000000c27f5000dbd120000000000675669000000005bfa02a5"
                    },
                    {
                        "current": "0x00000000000000000000000000000000000000000000000000000000000008a7",
                        "key": "0x000000000000000000000000000000000000000000000000000000000000000f",
                        "prev": "0x00000000000000000000000000000000000000000000000000000000000008a6"
                    }
                ],
                "storageVariables": [
                    {
                        "name": "kitties",
                        "type": "struct KittyBase.Kitty[]",
                        "value": {
                            "elemType": "struct KittyBase.Kitty",
                            "elems": [
                                {
                                    "index": 1213565,
                                    "value": {
                                        "fields": [
                                            {
                                                "name": "birthTime",
                                                "type": "uint64",
                                                "value": {
                                                    "current": "1543111333",
                                                    "prev": "1543111333",
                                                    "typeTag": 1
                                                }
                                            },
                                            {
                                                "name": "cooldownEndBlock",
                                                "type": "uint64",
                                                "value": {
                                                    "current": "6772818",
                                                    "prev": "6772329",
                                                    "typeTag": 1
                                                }
                                            },
                                            {
                                                "name": "matronId",
                                                "type": "uint32",
                                                "value": {
                                                    "current": "900370",
                                                    "prev": "900370",
                                                    "typeTag": 1
                                                }
                                            },
                                            {
                                                "name": "sireId",
                                                "type": "uint32",
                                                "value": {
                                                    "current": "796661",
                                                    "prev": "796661",
                                                    "typeTag": 1
                                                }
                                            },
                                            {
                                                "name": "siringWithId",
                                                "type": "uint32",
                                                "value": {
                                                    "current": "0",
                                                    "prev": "0",
                                                    "typeTag": 1
                                                }
                                            },
                                            {
                                                "name": "cooldownIndex",
                                                "type": "uint16",
                                                "value": {
                                                    "current": "7",
                                                    "prev": "6",
                                                    "typeTag": 1
                                                }
                                            },
                                            {
                                                "name": "generation",
                                                "type": "uint16",
                                                "value": {
                                                    "current": "2",
                                                    "prev": "2",
                                                    "typeTag": 1
                                                }
                                            }
                                        ],
                                        "typeTag": 3
                                    }
                                },
                                {
                                    "index": 1215856,
                                    "value": {
                                        "fields": [
                                            {
                                                "name": "birthTime",
                                                "type": "uint64",
                                                "value": {
                                                    "current": "1543171506",
                                                    "prev": "1543171506",
                                                    "typeTag": 1
                                                }
                                            },
                                            {
                                                "name": "cooldownEndBlock",
                                                "type": "uint64",
                                                "value": {
                                                    "current": "6772378",
                                                    "prev": "6772318",
                                                    "typeTag": 1
                                                }
                                            },
                                            {
                                                "name": "matronId",
                                                "type": "uint32",
                                                "value": {
                                                    "current": "1021899",
                                                    "prev": "1021899",
                                                    "typeTag": 1
                                                }
                                            },
                                            {
                                                "name": "sireId",
                                                "type": "uint32",
                                                "value": {
                                                    "current": "811451",
                                                    "prev": "811451",
                                                    "typeTag": 1
                                                }
                                            },
                                            {
                                                "name": "siringWithId",
                                                "type": "uint32",
                                                "value": {
                                                    "current": "1213565",
                                                    "prev": "0",
                                                    "typeTag": 1
                                                }
                                            },
                                            {
                                                "name": "cooldownIndex",
                                                "type": "uint16",
                                                "value": {
                                                    "current": "4",
                                                    "prev": "3",
                                                    "typeTag": 1
                                                }
                                            },
                                            {
                                                "name": "generation",
                                                "type": "uint16",
                                                "value": {
                                                    "current": "2",
                                                    "prev": "2",
                                                    "typeTag": 1
                                                }
                                            }
                                        ],
                                        "typeTag": 3
                                    }
                                }
                            ],
                            "typeTag": 2
                        }
                    },
                    {
                        "name": "pregnantKitties",
                        "type": "uint256",
                        "value": {
                            "current": "2215",
                            "prev": "2214",
                            "typeTag": 1
                        }
                    }
                ]
            }
        ]
    }
}