{
    "balance_change": {
        "balanceChanges": [
            {
                "account": "0x83a865cc6cd6ef785c31083ab319c27d144a627c",
                "assets": [
                    {
                        "address": "0x4d224452801aced8b2f0aebe155379bb5d594381",
                        "amount": "87.5",
                        "iconUrl": "https://assets.blocksec.com/icon/2edd169b33ddc44d0c2362c907ae50b3b0aed7e6e08bf6f72599647136aeddd0.png",
                        "isERC1155": false,
                        "isERC721": false,
                        "sign": false,
                        "value": "316.75000000000000933"
                    }
                ]
            },
            {
                "account": "0x5954ab967bc958940b7eb73ee84797dc8a2afbb9",
                "assets": [
                    {
                        "address": "0x4d224452801aced8b2f0aebe155379bb5d594381",
                        "amount": "87.5",
                        "iconUrl": "https://assets.blocksec.com/icon/2edd169b33ddc44d0c2362c907ae50b3b0aed7e6e08bf6f72599647136aeddd0.png",
                        "isERC1155": false,
                        "isERC721": false,
                        "sign": true,
                        "value": "316.75000000000000933"
                    }
                ]
            }
        ]
    },
    "profile": {
        "basic_info": {
            "baseFee": "10.972526189",
            "blockNumber": 16238248,
            "callData": "0x9dcaafb4000000000000000000000000000000000000000000000004be4e7267b6ae0000",
            "debugEnable": true,
            "errorInfo": "",
            "eventCount": 3,
            "feeRecipient": "0xf0bafd58e23726785a1681e1dea0da15cb038c61",
            "formatValue": "0",
            "gasLimit": 67522,
            "gasPrice": "12.472526189",
            "gasUsed": 62722,
            "intTxnCount": 1,
            "internalRevert": false,
            "internalRevertMessage": "",
            "isContractCreation": false,
            "isFlashloan": false,
            "maxFee": "16.853355838",
            "nonce": 25,
            "overwritedBlockNumber": -1,
            "priorityFee": "1.5",
            "receiver": "0x5954ab967bc958940b7eb73ee84797dc8a2afbb9",
            "revertMessage": "",
            "sender": "0x83a865cc6cd6ef785c31083ab319c27d144a627c",
            "simulationEnable": true,
            "sourceTxnHash": "0xd51c2765542a0599564319a3a37cbfec2eee5f0a5c95e6a12f5ecf6a983b81ec",
            "status": true,
            "timestamp": "2022-12-22T05:47:47Z",
            "transactionFee": "0.000782301787626458",
            "txnHash": "0xd51c2765542a0599564319a3a37cbfec2eee5f0a5c95e6a12f5ecf6a983b81ec",
            "txnIndex": 23,
            "type": 2,
            "value": "0"
        },
        "fund_flow": [
            {
                "amount": "87.5",
                "from": "0x83a865cc6cd6ef785c31083ab319c27d144a627c",
                "id": 1,
                "isERC1155": false,
                "isERC721": false,
                "isReverted": false,
                "order": 1,
                "to": "0x5954ab967bc958940b7eb73ee84797dc8a2afbb9",
                "token": "0x4d224452801aced8b2f0aebe155379bb5d594381"
            }
        ],
        "token_infos": [
            {
                "address": "0xeeeeeeeeeeeeeeeeeeeeeeeeeeeeeeeeeeeeeeee",
                "decimals": 18
            },
            {
                "address": "0x4d224452801aced8b2f0aebe155379bb5d594381",
                "decimals": 18
            },
            {
                "address": "0xc02aaa39b223fe8d0a0e5c4f27ead9083c756cc2",
                "decimals": 18
            }
        ]
    },
    "address_label": {
        "labels": [
            {
                "address": "0x5954ab967bc958940b7eb73ee84797dc8a2afbb9",
                "label": "ApeCoinStaking"
            },
            {
                "address": "0x0000000000000000000000000000000000000001",
                "label": "Precompiled"
            },
            {
                "address": "0x0000000000000000000000000000000000000002",
                "label": "Precompiled"
            },
            {
                "address": "0x0000000000000000000000000000000000000003",
                "label": "Precompiled"
            },
            {
                "address": "0x0000000000000000000000000000000000000004",
                "label": "Precompiled"
            },
            {
                "address": "0xeeeeeeeeeeeeeeeeeeeeeeeeeeeeeeeeeeeeeeee",
                "label": "Ether"
            },
            {
                "address": "0x4d224452801aced8b2f0aebe155379bb5d594381",
                "label": "Apecoin: APE Token"
            }
        ]
    },
    "trace": {
        "accountLabels": null,
        "dataMap": {
            "-1": {
                "invocation": {
                    "address": "0x83a865cc6cd6ef785c31083ab319c27d144a627c",
                    "callData": "",
                    "decodedMethod": null,
                    "errorInfo": "",
                    "fromAddress": "",
                    "gasUsed": 0,
                    "id": -1,
                    "methodDecoded": false,
                    "operation": "",
                    "output": "",
                    "revert": false,
                    "revertMessage": "",
                    "selector": "",
                    "status": false,
                    "value": ""
                },
                "nodeType": 0
            },
            "0": {
                "invocation": {
                    "address": "0x5954ab967bc958940b7eb73ee84797dc8a2afbb9",
                    "callData": "0x000000000000000000000000000000000000000000000004be4e7267b6ae0000",
                    "decodedMethod": {
                        "callParams": [
                            {
                                "name": "_amount",
                                "type": "uint256",
                                "value": "87,500,000,000,000,000,000"
                            }
                        ],
                        "constructorArguments": "",
                        "name": "depositSelfApeCoin",
                        "returnParams": [],
                        "signature": "depositSelfApeCoin(uint256)"
                    },
                    "errorInfo": "",
                    "fromAddress": "0x83a865cc6cd6ef785c31083ab319c27d144a627c",
                    "gasUsed": 62722,
                    "id": 0,
                    "methodDecoded": true,
                    "operation": "CALL",
                    "output": "",
                    "revert": false,
                    "revertMessage": "",
                    "selector": "0x9dcaafb4",
                    "status": true,
                    "value": "0"
                },
                "nodeType": 0
            },
            "1": {
                "invocation": {
                    "address": "0x4d224452801aced8b2f0aebe155379bb5d594381",
                    "callData": "0x00000000000000000000000083a865cc6cd6ef785c31083ab319c27d144a627c0000000000000000000000005954ab967bc958940b7eb73ee84797dc8a2afbb9000000000000000000000000000000000000000000000004be4e7267b6ae0000",
                    "decodedMethod": {
                        "callParams": [
                            {
                                "name": "sender",
                                "type": "address",
                                "value": "0x83a865cc6cd6ef785c31083ab319c27d144a627c"
                            },
                            {
                                "name": "recipient",
                                "type": "address",
                                "value": "0x5954ab967bc958940b7eb73ee84797dc8a2afbb9"
                            },
                            {
                                "decimalAvailable": true,
                                "name": "amount",
                                "type": "uint256",
                                "value": "87,500,000,000,000,000,000"
                            }
                        ],
                        "constructorArguments": "",
                        "name": "transferFrom",
                        "returnParams": [
                            {
                                "name": "",
                                "type": "bool",
                                "value": true
                            }
                        ],
                        "signature": "transferFrom(address,address,uint256)"
                    },
                    "errorInfo": "",
                    "fromAddress": "0x5954ab967bc958940b7eb73ee84797dc8a2afbb9",
                    "gasUsed": 20223,
                    "id": 1,
                    "methodDecoded": true,
                    "operation": "CALL",
                    "output": "0x0000000000000000000000000000000000000000000000000000000000000001",
                    "revert": false,
                    "revertMessage": "",
                    "selector": "0x23b872dd",
                    "status": true,
                    "value": "0"
                },
                "nodeType": 0
            },
            "2": {
                "event": {
                    "contract": "0x4d224452801aced8b2f0aebe155379bb5d594381",
                    "decodedLog": {
                        "name": "Transfer",
                        "params": [
                            {
                                "name": "from",
                                "type": "address",
                                "value": "0x83a865cc6cd6ef785c31083ab319c27d144a627c"
                            },
                            {
                                "name": "to",
                                "type": "address",
                                "value": "0x5954ab967bc958940b7eb73ee84797dc8a2afbb9"
                            },
                            {
                                "decimalAvailable": true,
                                "name": "value",
                                "type": "uint256",
                                "value": "87,500,000,000,000,000,000"
                            }
                        ],
                        "signature": "Transfer(address,address,uint256)"
                    },
                    "id": 2,
                    "logData": "0x000000000000000000000000000000000000000000000004be4e7267b6ae0000",
                    "logDecoded": true,
                    "operation": "EVENT",
                    "revert": false,
                    "status": true,
                    "topics": [
                        "0xddf252ad1be2c89b69c2b068fc378daa952ba7f163c4a11628f55a4df523b3ef",
                        "0x00000000000000000000000083a865cc6cd6ef785c31083ab319c27d144a627c",
                        "0x0000000000000000000000005954ab967bc958940b7eb73ee84797dc8a2afbb9"
                    ]
                },
                "nodeType": 1
            },
            "3": {
                "event": {
                    "contract": "0x4d224452801aced8b2f0aebe155379bb5d594381",
                    "decodedLog": {
                        "name": "Approval",
                        "params": [
                            {
                                "name": "owner",
                                "type": "address",
                                "value": "0x83a865cc6cd6ef785c31083ab319c27d144a627c"
                            },
                            {
                                "name": "spender",
                                "type": "address",
                                "value": "0x5954ab967bc958940b7eb73ee84797dc8a2afbb9"
                            },
                            {
                                "decimalAvailable": true,
                                "name": "value",
                                "type": "uint256",
                                "value": "115,792,089,237,316,195,423,570,985,008,687,907,853,269,984,665,640,564,039,337,172,007,913,129,639,935"
                            }
                        ],
                        "signature": "Approval(address,address,uint256)"
                    },
                    "id": 3,
                    "logData": "0xfffffffffffffffffffffffffffffffffffffffffffffff978f2a3f859a9ffff",
                    "logDecoded": true,
                    "operation": "EVENT",
                    "revert": false,
                    "status": true,
                    "topics": [
                        "0x8c5be1e5ebec7d5bd14f71427d1e84f3dd0314c0f7b2291e5b200ac8c7c3b925",
                        "0x00000000000000000000000083a865cc6cd6ef785c31083ab319c27d144a627c",
                        "0x0000000000000000000000005954ab967bc958940b7eb73ee84797dc8a2afbb9"
                    ]
                },
                "nodeType": 1
            },
            "4": {
                "event": {
                    "contract": "0x5954ab967bc958940b7eb73ee84797dc8a2afbb9",
                    "decodedLog": {
                        "name": "Deposit",
                        "params": [
                            {
                                "name": "user",
                                "type": "address",
                                "value": "0x83a865cc6cd6ef785c31083ab319c27d144a627c"
                            },
                            {
                                "name": "amount",
                                "type": "uint256",
                                "value": "87,500,000,000,000,000,000"
                            },
                            {
                                "name": "recipient",
                                "type": "address",
                                "value": "0x83a865cc6cd6ef785c31083ab319c27d144a627c"
                            }
                        ],
                        "signature": "Deposit(address,uint256,address)"
                    },
                    "id": 4,
                    "logData": "0x000000000000000000000000000000000000000000000004be4e7267b6ae000000000000000000000000000083a865cc6cd6ef785c31083ab319c27d144a627c",
                    "logDecoded": true,
                    "operation": "EVENT",
                    "revert": false,
                    "status": true,
                    "topics": [
                        "0xe31c7b8d08ee7db0afa68782e1028ef92305caeea8626633ad44d413e30f6b2f",
                        "0x00000000000000000000000083a865cc6cd6ef785c31083ab319c27d144a627c"
                    ]
                },
                "nodeType": 1
            }
        },
        "gasFlame": [
            {
                "children": [
                    {
                        "children": [
                            {
                                "children": [],
                                "depth": 0,
                                "name": "Initial Gas",
                                "value": 21276
                            },
                            {
                                "children": [
                                    {
                                        "children": [],
                                        "depth": 1,
                                        "name": "transferFrom",
                                        "value": 20223
                                    }
                                ],
                                "depth": 0,
                                "name": "Executed Gas",
                                "value": 46246
                            }
                        ],
                        "depth": -1,
                        "name": "Actual Gas Used",
                        "value": 62722
                    },
                    {
                        "children": [],
                        "depth": -1,
                        "name": "Refunded Gas",
                        "value": 4800
                    }
                ],
                "depth": -2,
                "name": "Total Gas",
                "value": 67522
            }
        ],
        "isConfirmed": true,
        "mainTrace": [
            {
                "children": [
                    {
                        "children": [
                            {
                                "children": [
                                    {
                                        "children": [],
                                        "depth": 2,
                                        "id": 2,
                                        "order": 2
                                    },
                                    {
                                        "children": [],
                                        "depth": 2,
                                        "id": 3,
                                        "order": 3
                                    }
                                ],
                                "depth": 1,
                                "id": 1,
                                "order": 1
                            },
                            {
                                "children": [],
                                "depth": 1,
                                "id": 4,
                                "order": 4
                            }
                        ],
                        "depth": 0,
                        "id": 0,
                        "order": 0
                    }
                ],
                "depth": -1,
                "id": -1,
                "order": -1
            }
        ],
        "mainTraceNodeCount": 5,
        "parentIdMap": {
            "0": -1,
            "1": 0,
            "2": 1,
            "3": 1,
            "4": 0
        },
        "tidyTrace": [
            {
                "children": [
                    {
                        "children": [
                            {
                                "children": [
                                    {
                                        "children": [],
                                        "depth": 2,
                                        "id": 2,
                                        "order": 2
                                    },
                                    {
                                        "children": [],
                                        "depth": 2,
                                        "id": 3,
                                        "order": 3
                                    }
                                ],
                                "depth": 1,
                                "id": 1,
                                "order": 1
                            },
                            {
                                "children": [],
                                "depth": 1,
                                "id": 4,
                                "order": 4
                            }
                        ],
                        "depth": 0,
                        "id": 0,
                        "order": 0
                    }
                ],
                "depth": -1,
                "id": -1,
                "order": -1
            }
        ],
        "tidyTraceNodeCount": 5
    },
    "state_change": {
        "stateChanges": [
            {
                "address": "0x4d224452801aced8b2f0aebe155379bb5d594381",
                "erc": "ERC-20",
                "slots": [
                    {
                        "current": "0x0000000000000000000000000000000000000000000000000000000000000000",
                        "key": "0xbfd9b066925cfe767ac735363c97fefb282b34ff98264d70c312c3bf4543ed00",
                        "prev": "0x000000000000000000000000000000000000000000000004be4e7267b6ae0000"
                    },
                    {
                        "current": "0x0000000000000000000000000000000000000000004453104bc060a209193759",
                        "key": "0x5a487aff099fdb9bdbbe24c0a1f715ba19809799b929663b46f0f8b34e914ca4",
                        "prev": "0x00000000000000000000000000000000000000000044530b8d71ee3a526b3759"
                    },
                    {
                        "current": "0xfffffffffffffffffffffffffffffffffffffffffffffff978f2a3f859a9ffff",
                        "key": "0xe5340e3616ee254e2e561d7e9cdacc4bd1502d6ac957c0076e22d35f0e36cf94",
                        "prev": "0xfffffffffffffffffffffffffffffffffffffffffffffffe374116601057ffff"
                    }
                ],
                "storageVariables": [
                    {
                        "name": "_balances",
                        "type": "mapping(address => uint256)",
                        "value": {
                            "pairs": [
                                {
                                    "key": "0x5954ab967bc958940b7eb73ee84797dc8a2afbb9",
                                    "value": {
                                        "current": "82599212758247141212239705",
                                        "prev": "82599125258247141212239705",
                                        "typeTag": 1
                                    }
                                },
                                {
                                    "key": "0x83a865cc6cd6ef785c31083ab319c27d144a627c",
                                    "value": {
                                        "current": "0",
                                        "prev": "87500000000000000000",
                                        "typeTag": 1
                                    }
                                }
                            ],
                            "typeTag": 4
                        }
                    },
                    {
                        "name": "_allowances",
                        "type": "mapping(address => mapping(address => uint256))",
                        "value": {
                            "pairs": [
                                {
                                    "key": "0x83a865cc6cd6ef785c31083ab319c27d144a627c",
                                    "value": {
                                        "pairs": [
                                            {
                                                "key": "0x5954ab967bc958940b7eb73ee84797dc8a2afbb9",
                                                "value": {
                                                    "current": "115792089237316195423570985008687907853269984665640564039337172007913129639935",
                                                    "prev": "115792089237316195423570985008687907853269984665640564039424672007913129639935",
                                                    "typeTag": 1
                                                }
                                            }
                                        ],
                                        "typeTag": 4
                                    }
                                }
                            ],
                            "typeTag": 4
                        }
                    }
                ]
            },
            {
                "address": "0x5954ab967bc958940b7eb73ee84797dc8a2afbb9",
                "erc": "",
                "slots": [
                    {
                        "current": "0x00000000000000000000000000000000033805eb07214fb07bf3786aff040000",
                        "key": "0x4fd1e8fc99579a00eb355494bc9c611a79948d1299ecb40bbbb8f90acc843435",
                        "prev": "0x000000000000000000000000000000000072ac396f3a485120f7060690c80000"
                    },
                    {
                        "current": "0x000000000000000000000000000000000000000000000006870d5c07a6560000",
                        "key": "0x4fd1e8fc99579a00eb355494bc9c611a79948d1299ecb40bbbb8f90acc843434",
                        "prev": "0x000000000000000000000000000000000000000000000001c8bee99fefa80000"
                    },
                    {
                        "current": "0x0000000000958b91f965ad12001757980dcd3000224fb9130000000063a3e450",
                        "key": "0x0000000000000000000000000000000000000000000000000000000000000004",
                        "prev": "0x0000000000958b91f965ad12001757934f7ebd986ba1b9130000000063a3e450"
                    }
                ],
                "storageVariables": [
                    {
                        "name": "addressPosition",
                        "type": "mapping(address => struct ApeCoinStaking.Position)",
                        "value": {
                            "pairs": [
                                {
                                    "key": "0x83a865cc6cd6ef785c31083ab319c27d144a627c",
                                    "value": {
                                        "fields": [
                                            {
                                                "name": "stakedAmount",
                                                "type": "uint256",
                                                "value": {
                                                    "current": "120412000000000000000",
                                                    "prev": "32912000000000000000",
                                                    "typeTag": 1
                                                }
                                            },
                                            {
                                                "name": "rewardsDebt",
                                                "type": "int256",
                                                "value": {
                                                    "current": "4278572644305573019688000000000000000",
                                                    "prev": "595414966753357044688000000000000000",
                                                    "typeTag": 1
                                                }
                                            }
                                        ],
                                        "typeTag": 3
                                    }
                                }
                            ],
                            "typeTag": 4
                        }
                    },
                    {
                        "name": "pools",
                        "type": "struct ApeCoinStaking.Pool[4]",
                        "value": {
                            "elemType": "struct ApeCoinStaking.Pool",
                            "elems": [
                                {
                                    "index": 0,
                                    "value": {
                                        "fields": [
                                            {
                                                "name": "lastRewardedTimestampHour",
                                                "type": "uint48",
                                                "value": {
                                                    "current": "1671685200",
                                                    "prev": "1671685200",
                                                    "typeTag": 1
                                                }
                                            },
                                            {
                                                "name": "lastRewardsRangeIndex",
                                                "type": "uint16",
                                                "value": {
                                                    "current": "0",
                                                    "prev": "0",
                                                    "typeTag": 1
                                                }
                                            },
                                            {
                                                "name": "stakedAmount",
                                                "type": "uint96",
                                                "value": {
                                                    "current": "28218944634749203856210195",
                                                    "prev": "28218857134749203856210195",
                                                    "typeTag": 1
                                                }
                                            },
                                            {
                                                "name": "accumulatedRewardsPerShare",
                                                "type": "uint96",
                                                "value": {
                                                    "current": "42093230600596754",
                                                    "prev": "42093230600596754",
                                                    "typeTag": 1
                                                }
                                            }
                                        ],
                                        "typeTag": 3
                                    }
                                }
                            ],
                            "typeTag": 2
                        }
                    }
                ]
            }
        ]
    }
}