{
    "balance_change": {
        "balanceChanges": [
            {
                "account": "0x63d21bdc1eea0d08c81ddd23f9d59da78dc6f4f1",
                "assets": [
                    {
                        "address": "0xf629cbd94d3791c9250152bd8dfbdf380e2a3b9c",
                        "amount": "331.99",
                        "iconUrl": "https://assets.blocksec.com/icon/4e91198d1517bc4aa7bfb253e3110967513d2a17a9e3cad8d288a4806c405653.png",
                        "isERC1155": false,
                        "isERC721": false,
                        "sign": false,
                        "value": "46.29375155"
                    }
                ]
            },
            {
                "account": "0x61189da79177950a7272c88c6058b96d4bcd6be2",
                "assets": [
                    {
                        "address": "0xf629cbd94d3791c9250152bd8dfbdf380e2a3b9c",
                        "amount": "331.99",
                        "iconUrl": "https://assets.blocksec.com/icon/4e91198d1517bc4aa7bfb253e3110967513d2a17a9e3cad8d288a4806c405653.png",
                        "isERC1155": false,
                        "isERC721": false,
                        "sign": true,
                        "value": "46.29375155"
                    }
                ]
            }
        ]
    },
    "profile": {
        "basic_info": {
            "baseFee": "",
            "blockNumber": 11524177,
            "callData": "0xa9059cbb00000000000000000000000061189da79177950a7272c88c6058b96d4bcd6be2000000000000000000000000000000000000000000000011ff496a0aa5ef0000",
            "debugEnable": true,
            "errorInfo": "",
            "eventCount": 1,
            "feeRecipient": "0x2a0eee948fbe9bd4b661adedba57425f753ea0f6",
            "formatValue": "0",
            "gasLimit": 73424,
            "gasPrice": "90",
            "gasUsed": 21712,
            "intTxnCount": 0,
            "internalRevert": false,
            "internalRevertMessage": "",
            "isContractCreation": false,
            "isFlashloan": false,
            "maxFee": "",
            "nonce": 0,
            "overwritedBlockNumber": -1,
            "priorityFee": "",
            "receiver": "0xf629cbd94d3791c9250152bd8dfbdf380e2a3b9c",
            "revertMessage": "",
            "sender": "0x63d21bdc1eea0d08c81ddd23f9d59da78dc6f4f1",
            "simulationEnable": true,
            "sourceTxnHash": "0xd5caa47d2fae70a59eb125eeaa570a059598b6648dd91e4aa09912fc7d807f38",
            "status": true,
            "timestamp": "2020-12-25T17:35:48Z",
            "transactionFee": "0.00195408",
            "txnHash": "0xd5caa47d2fae70a59eb125eeaa570a059598b6648dd91e4aa09912fc7d807f38",
            "txnIndex": 72,
            "type": 0,
            "value": "0"
        },
        "fund_flow": [
            {
                "amount": "331.99",
                "from": "0x63d21bdc1eea0d08c81ddd23f9d59da78dc6f4f1",
                "id": 1,
                "isERC1155": false,
                "isERC721": false,
                "isReverted": false,
                "order": 1,
                "to": "0x61189da79177950a7272c88c6058b96d4bcd6be2",
                "token": "0xf629cbd94d3791c9250152bd8dfbdf380e2a3b9c"
            }
        ],
        "token_infos": [
            {
                "address": "0xc02aaa39b223fe8d0a0e5c4f27ead9083c756cc2",
                "decimals": 18
            },
            {
                "address": "0xf629cbd94d3791c9250152bd8dfbdf380e2a3b9c",
                "decimals": 18
            },
            {
                "address": "0xeeeeeeeeeeeeeeeeeeeeeeeeeeeeeeeeeeeeeeee",
                "decimals": 18
            }
        ]
    },
    "address_label": {
        "labels": [
            {
                "address": "0x61189da79177950a7272c88c6058b96d4bcd6be2",
                "label": "Binance US"
            },
            {
                "address": "0xf629cbd94d3791c9250152bd8dfbdf380e2a3b9c",
                "label": "Enjin: ENJ Token"
            },
            {
                "address": "0x0000000000000000000000000000000000000001",
                "label": "Precompiled"
            },
            {
                "address": "0x0000000000000000000000000000000000000002",
                "label": "Precompiled"
            },
            {
                "address": "0x0000000000000000000000000000000000000003",
                "label": "Precompiled"
            },
            {
                "address": "0x0000000000000000000000000000000000000004",
                "label": "Precompiled"
            },
            {
                "address": "0xeeeeeeeeeeeeeeeeeeeeeeeeeeeeeeeeeeeeeeee",
                "label": "Ether"
            },
            {
                "address": "0x63d21bdc1eea0d08c81ddd23f9d59da78dc6f4f1",
                "label": "BINANCE"
            }
        ]
    },
    "trace": {
        "accountLabels": null,
        "dataMap": {
            "-1": {
                "invocation": {
                    "address": "0x63d21bdc1eea0d08c81ddd23f9d59da78dc6f4f1",
                    "callData": "",
                    "decodedMethod": null,
                    "errorInfo": "",
                    "fromAddress": "",
                    "gasUsed": 0,
                    "id": -1,
                    "methodDecoded": false,
                    "operation": "",
                    "output": "",
                    "revert": false,
                    "revertMessage": "",
                    "selector": "",
                    "status": false,
                    "value": ""
                },
                "nodeType": 0
            },
            "0": {
                "invocation": {
                    "address": "0xf629cbd94d3791c9250152bd8dfbdf380e2a3b9c",
                    "callData": "0x00000000000000000000000061189da79177950a7272c88c6058b96d4bcd6be2000000000000000000000000000000000000000000000011ff496a0aa5ef0000",
                    "decodedMethod": {
                        "callParams": [
                            {
                                "name": "_to",
                                "type": "address",
                                "value": "0x61189da79177950a7272c88c6058b96d4bcd6be2"
                            },
                            {
                                "decimalAvailable": true,
                                "name": "_value",
                                "type": "uint256",
                                "value": "331,990,000,000,000,000,000"
                            }
                        ],
                        "constructorArguments": "",
                        "name": "transfer",
                        "returnParams": [
                            {
                                "name": "success",
                                "type": "bool",
                                "value": true
                            }
                        ],
                        "signature": "transfer(address,uint256)"
                    },
                    "errorInfo": "",
                    "fromAddress": "0x63d21bdc1eea0d08c81ddd23f9d59da78dc6f4f1",
                    "gasUsed": 21712,
                    "id": 0,
                    "methodDecoded": true,
                    "operation": "CALL",
                    "output": "0x0000000000000000000000000000000000000000000000000000000000000001",
                    "revert": false,
                    "revertMessage": "",
                    "selector": "0xa9059cbb",
                    "status": true,
                    "value": "0"
                },
                "nodeType": 0
            },
            "1": {
                "event": {
                    "contract": "0xf629cbd94d3791c9250152bd8dfbdf380e2a3b9c",
                    "decodedLog": {
                        "name": "Transfer",
                        "params": [
                            {
                                "name": "_from",
                                "type": "address",
                                "value": "0x63d21bdc1eea0d08c81ddd23f9d59da78dc6f4f1"
                            },
                            {
                                "name": "_to",
                                "type": "address",
                                "value": "0x61189da79177950a7272c88c6058b96d4bcd6be2"
                            },
                            {
                                "decimalAvailable": true,
                                "name": "_value",
                                "type": "uint256",
                                "value": "331,990,000,000,000,000,000"
                            }
                        ],
                        "signature": "Transfer(address,address,uint256)"
                    },
                    "id": 1,
                    "logData": "0x000000000000000000000000000000000000000000000011ff496a0aa5ef0000",
                    "logDecoded": true,
                    "operation": "EVENT",
                    "revert": false,
                    "status": true,
                    "topics": [
                        "0xddf252ad1be2c89b69c2b068fc378daa952ba7f163c4a11628f55a4df523b3ef",
                        "0x00000000000000000000000063d21bdc1eea0d08c81ddd23f9d59da78dc6f4f1",
                        "0x00000000000000000000000061189da79177950a7272c88c6058b96d4bcd6be2"
                    ]
                },
                "nodeType": 1
            }
        },
        "gasFlame": [
            {
                "children": [
                    {
                        "children": [
                            {
                                "children": [],
                                "depth": 0,
                                "name": "Initial Gas",
                                "value": 21644
                            },
                            {
                                "children": [],
                                "depth": 0,
                                "name": "Executed Gas",
                                "value": 15068
                            }
                        ],
                        "depth": -1,
                        "name": "Actual Gas Used",
                        "value": 21712
                    },
                    {
                        "children": [],
                        "depth": -1,
                        "name": "Refunded Gas",
                        "value": 15000
                    }
                ],
                "depth": -2,
                "name": "Total Gas",
                "value": 36712
            }
        ],
        "isConfirmed": true,
        "mainTrace": [
            {
                "children": [
                    {
                        "children": [
                            {
                                "children": [],
                                "depth": 1,
                                "id": 1,
                                "order": 1
                            }
                        ],
                        "depth": 0,
                        "id": 0,
                        "order": 0
                    }
                ],
                "depth": -1,
                "id": -1,
                "order": -1
            }
        ],
        "mainTraceNodeCount": 2,
        "parentIdMap": {
            "0": -1,
            "1": 0
        },
        "tidyTrace": [
            {
                "children": [
                    {
                        "children": [
                            {
                                "children": [],
                                "depth": 1,
                                "id": 1,
                                "order": 1
                            }
                        ],
                        "depth": 0,
                        "id": 0,
                        "order": 0
                    }
                ],
                "depth": -1,
                "id": -1,
                "order": -1
            }
        ],
        "tidyTraceNodeCount": 2
    },
    "state_change": {
        "stateChanges": [
            {
                "address": "0xf629cbd94d3791c9250152bd8dfbdf380e2a3b9c",
                "erc": "ERC-20",
                "slots": [
                    {
                        "current": "0x0000000000000000000000000000000000000000000000000000000000000000",
                        "key": "0x5a4326e6af55aa348ab2f737230653ae162eeb47d5cd34231ef3e9bd4169a33f",
                        "prev": "0x000000000000000000000000000000000000000000000011ff496a0aa5ef0000"
                    },
                    {
                        "current": "0x000000000000000000000000000000000000000000017e4d8a0610228fa656b2",
                        "key": "0xa66d8b5cf237c0c2ddef0abb791b914ca1eca060772ff01a30ef9d62cb3287e6",
                        "prev": "0x000000000000000000000000000000000000000000017e3b8abca617e9b756b2"
                    }
                ],
                "storageVariables": [
                    {
                        "name": "balanceOf",
                        "type": "mapping(address => uint256)",
                        "value": {
                            "pairs": [
                                {
                                    "key": "0x61189da79177950a7272c88c6058b96d4bcd6be2",
                                    "value": {
                                        "current": "1805374341404447826400946",
                                        "prev": "1805042351404447826400946",
                                        "typeTag": 1
                                    }
                                },
                                {
                                    "key": "0x63d21bdc1eea0d08c81ddd23f9d59da78dc6f4f1",
                                    "value": {
                                        "current": "0",
                                        "prev": "331990000000000000000",
                                        "typeTag": 1
                                    }
                                }
                            ],
                            "typeTag": 4
                        }
                    }
                ]
            }
        ]
    }
}