{
    "balance_change": {
        "balanceChanges": [
            {
                "account": "0xb42e88e6034f7ad90fcbc47684cb97ef0ecacc30",
                "assets": [
                    {
                        "address": "0x18ed5803cd47f91716e06e38216e211ffaa9cc07",
                        "amount": "1",
                        "iconUrl": "",
                        "isERC1155": false,
                        "isERC721": true,
                        "sign": true,
                        "tokenID": "54",
                        "value": ""
                    },
                    {
                        "address": "0xd014499743e3d6a66d9db3e57d5884270999ee47",
                        "amount": "1",
                        "iconUrl": "",
                        "isERC1155": false,
                        "isERC721": true,
                        "sign": true,
                        "tokenID": "54",
                        "value": ""
                    },
                    {
                        "address": "0x495f947276749ce646f68ac8c248420045cb7b5e",
                        "amount": "1",
                        "iconUrl": "",
                        "isERC1155": true,
                        "isERC721": false,
                        "sign": false,
                        "tokenID": "98168371784320387514732815439041609751844866237332060982262478765290950754305",
                        "value": ""
                    }
                ]
            },
            {
                "account": "0x000000000000000000000000000000000000dead",
                "assets": [
                    {
                        "address": "0x495f947276749ce646f68ac8c248420045cb7b5e",
                        "amount": "1",
                        "iconUrl": "",
                        "isERC1155": true,
                        "isERC721": false,
                        "sign": true,
                        "tokenID": "98168371784320387514732815439041609751844866237332060982262478765290950754305",
                        "value": ""
                    }
                ]
            },
            {
                "account": "0x0000000000000000000000000000000000000000",
                "assets": [
                    {
                        "address": "0x18ed5803cd47f91716e06e38216e211ffaa9cc07",
                        "amount": "1",
                        "iconUrl": "",
                        "isERC1155": false,
                        "isERC721": true,
                        "sign": false,
                        "tokenID": "54",
                        "value": ""
                    },
                    {
                        "address": "0xd014499743e3d6a66d9db3e57d5884270999ee47",
                        "amount": "1",
                        "iconUrl": "",
                        "isERC1155": false,
                        "isERC721": true,
                        "sign": false,
                        "tokenID": "54",
                        "value": ""
                    }
                ]
            }
        ]
    },
    "profile": {
        "basic_info": {
            "baseFee": "129.530033687",
            "blockNumber": 13531353,
            "callData": "0x454b0608d909545440f2effbb7393d238e0d73c159f058690000000000003a0000000001",
            "debugEnable": true,
            "errorInfo": "",
            "eventCount": 4,
            "feeRecipient": "0xeea5b82b61424df8020f5fedd81767f2d0d25bfb",
            "formatValue": "0",
            "gasLimit": 176464,
            "gasPrice": "131.030033687",
            "gasUsed": 170958,
            "intTxnCount": 3,
            "internalRevert": false,
            "internalRevertMessage": "",
            "isContractCreation": false,
            "isFlashloan": false,
            "maxFee": "154.154451297",
            "nonce": 42,
            "overwritedBlockNumber": -1,
            "priorityFee": "1.5",
            "receiver": "0x18ed5803cd47f91716e06e38216e211ffaa9cc07",
            "revertMessage": "",
            "sender": "0xb42e88e6034f7ad90fcbc47684cb97ef0ecacc30",
            "simulationEnable": true,
            "sourceTxnHash": "0xd5f717dc7d07a0bdbaaa53b2733039a521c03cbbdf4a2b010dee3960d4badaa4",
            "status": true,
            "timestamp": "2021-11-01T13:04:58Z",
            "transactionFee": "0.022400632499062146",
            "txnHash": "0xd5f717dc7d07a0bdbaaa53b2733039a521c03cbbdf4a2b010dee3960d4badaa4",
            "txnIndex": 174,
            "type": 2,
            "value": "0"
        },
        "fund_flow": [
            {
                "amount": "1",
                "from": "0x0000000000000000000000000000000000000000",
                "id": 1,
                "isERC1155": false,
                "isERC721": true,
                "isReverted": false,
                "order": 1,
                "to": "0xb42e88e6034f7ad90fcbc47684cb97ef0ecacc30",
                "token": "0x18ed5803cd47f91716e06e38216e211ffaa9cc07",
                "tokenID": "54"
            },
            {
                "amount": "1",
                "from": "0x0000000000000000000000000000000000000000",
                "id": 2,
                "isERC1155": false,
                "isERC721": true,
                "isReverted": false,
                "order": 2,
                "to": "0xb42e88e6034f7ad90fcbc47684cb97ef0ecacc30",
                "token": "0xd014499743e3d6a66d9db3e57d5884270999ee47",
                "tokenID": "54"
            },
            {
                "amount": "1",
                "from": "0xb42e88e6034f7ad90fcbc47684cb97ef0ecacc30",
                "id": 3,
                "isERC1155": true,
                "isERC721": false,
                "isReverted": false,
                "order": 3,
                "to": "0x000000000000000000000000000000000000dead",
                "token": "0x495f947276749ce646f68ac8c248420045cb7b5e",
                "tokenID": "98168371784320387514732815439041609751844866237332060982262478765290950754305"
            }
        ],
        "token_infos": [
            {
                "address": "0xc02aaa39b223fe8d0a0e5c4f27ead9083c756cc2",
                "decimals": 18
            },
            {
                "address": "0xeeeeeeeeeeeeeeeeeeeeeeeeeeeeeeeeeeeeeeee",
                "decimals": 18
            }
        ]
    },
    "address_label": {
        "labels": [
            {
                "address": "0x0000000000000000000000000000000000000001",
                "label": "Precompiled"
            },
            {
                "address": "0xeeeeeeeeeeeeeeeeeeeeeeeeeeeeeeeeeeeeeeee",
                "label": "Ether"
            },
            {
                "address": "0x000000000000000000000000000000000000dead",
                "label": "Null: 0x00...dEaD"
            },
            {
                "address": "0x18ed5803cd47f91716e06e38216e211ffaa9cc07",
                "label": "CryptoSergs: CRYPTOSERGS Token"
            },
            {
                "address": "0xd014499743e3d6a66d9db3e57d5884270999ee47",
                "label": "Sergs (SERGS)"
            },
            {
                "address": "0x0000000000000000000000000000000000000002",
                "label": "Precompiled"
            },
            {
                "address": "0x0000000000000000000000000000000000000003",
                "label": "Precompiled"
            },
            {
                "address": "0x0000000000000000000000000000000000000004",
                "label": "Precompiled"
            },
            {
                "address": "0x495f947276749ce646f68ac8c248420045cb7b5e",
                "label": "OpenSea: OPENSTORE Token"
            },
            {
                "address": "0xa5409ec958c83c3f309868babaca7c86dcb077c1",
                "label": "OpenSea: Registry"
            }
        ]
    },
    "trace": {
        "accountLabels": null,
        "dataMap": {
            "-1": {
                "invocation": {
                    "address": "0xb42e88e6034f7ad90fcbc47684cb97ef0ecacc30",
                    "callData": "",
                    "decodedMethod": null,
                    "errorInfo": "",
                    "fromAddress": "",
                    "gasUsed": 0,
                    "id": -1,
                    "methodDecoded": false,
                    "operation": "",
                    "output": "",
                    "revert": false,
                    "revertMessage": "",
                    "selector": "",
                    "status": false,
                    "value": ""
                },
                "nodeType": 0
            },
            "0": {
                "invocation": {
                    "address": "0x18ed5803cd47f91716e06e38216e211ffaa9cc07",
                    "callData": "0xd909545440f2effbb7393d238e0d73c159f058690000000000003a0000000001",
                    "decodedMethod": {
                        "callParams": [
                            {
                                "name": "_tokenId",
                                "type": "uint256",
                                "value": "98,168,371,784,320,387,514,732,815,439,041,609,751,844,866,237,332,060,982,262,478,765,290,950,754,305"
                            }
                        ],
                        "constructorArguments": "",
                        "name": "migrate",
                        "returnParams": [],
                        "signature": "migrate(uint256)"
                    },
                    "errorInfo": "",
                    "fromAddress": "0xb42e88e6034f7ad90fcbc47684cb97ef0ecacc30",
                    "gasUsed": 170958,
                    "id": 0,
                    "methodDecoded": true,
                    "operation": "CALL",
                    "output": "",
                    "revert": false,
                    "revertMessage": "",
                    "selector": "0x454b0608",
                    "status": true,
                    "value": "0"
                },
                "nodeType": 0
            },
            "1": {
                "event": {
                    "contract": "0x18ed5803cd47f91716e06e38216e211ffaa9cc07",
                    "decodedLog": {
                        "name": "Transfer",
                        "params": [
                            {
                                "name": "from",
                                "type": "address",
                                "value": "0x0000000000000000000000000000000000000000"
                            },
                            {
                                "name": "to",
                                "type": "address",
                                "value": "0xb42e88e6034f7ad90fcbc47684cb97ef0ecacc30"
                            },
                            {
                                "decimalAvailable": true,
                                "name": "tokenId",
                                "type": "uint256",
                                "value": "54"
                            }
                        ],
                        "signature": "Transfer(address,address,uint256)"
                    },
                    "id": 1,
                    "logData": "0x",
                    "logDecoded": true,
                    "operation": "EVENT",
                    "revert": false,
                    "status": true,
                    "topics": [
                        "0xddf252ad1be2c89b69c2b068fc378daa952ba7f163c4a11628f55a4df523b3ef",
                        "0x0000000000000000000000000000000000000000000000000000000000000000",
                        "0x000000000000000000000000b42e88e6034f7ad90fcbc47684cb97ef0ecacc30",
                        "0x0000000000000000000000000000000000000000000000000000000000000036"
                    ]
                },
                "nodeType": 1
            },
            "2": {
                "invocation": {
                    "address": "0xd014499743e3d6a66d9db3e57d5884270999ee47",
                    "callData": "0x000000000000000000000000b42e88e6034f7ad90fcbc47684cb97ef0ecacc300000000000000000000000000000000000000000000000000000000000000036",
                    "decodedMethod": {
                        "callParams": [
                            {
                                "name": "_to",
                                "type": "address",
                                "value": "0xb42e88e6034f7ad90fcbc47684cb97ef0ecacc30"
                            },
                            {
                                "name": "_tokenId",
                                "type": "uint256",
                                "value": "54"
                            }
                        ],
                        "constructorArguments": "",
                        "name": "migrate",
                        "returnParams": [],
                        "signature": "migrate(address,uint256)"
                    },
                    "errorInfo": "",
                    "fromAddress": "0x18ed5803cd47f91716e06e38216e211ffaa9cc07",
                    "gasUsed": 50874,
                    "id": 2,
                    "methodDecoded": true,
                    "operation": "CALL",
                    "output": "",
                    "revert": false,
                    "revertMessage": "",
                    "selector": "0xad68ebf7",
                    "status": true,
                    "value": "0"
                },
                "nodeType": 0
            },
            "3": {
                "event": {
                    "contract": "0xd014499743e3d6a66d9db3e57d5884270999ee47",
                    "decodedLog": {
                        "name": "Transfer",
                        "params": [
                            {
                                "name": "from",
                                "type": "address",
                                "value": "0x0000000000000000000000000000000000000000"
                            },
                            {
                                "name": "to",
                                "type": "address",
                                "value": "0xb42e88e6034f7ad90fcbc47684cb97ef0ecacc30"
                            },
                            {
                                "decimalAvailable": true,
                                "name": "tokenId",
                                "type": "uint256",
                                "value": "54"
                            }
                        ],
                        "signature": "Transfer(address,address,uint256)"
                    },
                    "id": 3,
                    "logData": "0x",
                    "logDecoded": true,
                    "operation": "EVENT",
                    "revert": false,
                    "status": true,
                    "topics": [
                        "0xddf252ad1be2c89b69c2b068fc378daa952ba7f163c4a11628f55a4df523b3ef",
                        "0x0000000000000000000000000000000000000000000000000000000000000000",
                        "0x000000000000000000000000b42e88e6034f7ad90fcbc47684cb97ef0ecacc30",
                        "0x0000000000000000000000000000000000000000000000000000000000000036"
                    ]
                },
                "nodeType": 1
            },
            "4": {
                "event": {
                    "contract": "0xd014499743e3d6a66d9db3e57d5884270999ee47",
                    "decodedLog": {
                        "name": "SergMigrated",
                        "params": [
                            {
                                "name": "tokenId",
                                "type": "uint256",
                                "value": "54"
                            },
                            {
                                "name": "sender",
                                "type": "address",
                                "value": "0x18ed5803cd47f91716e06e38216e211ffaa9cc07"
                            }
                        ],
                        "signature": "SergMigrated(uint256,address)"
                    },
                    "id": 4,
                    "logData": "0x000000000000000000000000000000000000000000000000000000000000003600000000000000000000000018ed5803cd47f91716e06e38216e211ffaa9cc07",
                    "logDecoded": true,
                    "operation": "EVENT",
                    "revert": false,
                    "status": true,
                    "topics": [
                        "0x2905e22f84acf9a70092cf536908c79c58b177ae8840970a8368246b98a9f074"
                    ]
                },
                "nodeType": 1
            },
            "5": {
                "invocation": {
                    "address": "0x495f947276749ce646f68ac8c248420045cb7b5e",
                    "callData": "0x000000000000000000000000b42e88e6034f7ad90fcbc47684cb97ef0ecacc30000000000000000000000000000000000000000000000000000000000000deadd909545440f2effbb7393d238e0d73c159f058690000000000003a0000000001000000000000000000000000000000000000000000000000000000000000000100000000000000000000000000000000000000000000000000000000000000a00000000000000000000000000000000000000000000000000000000000000000",
                    "decodedMethod": {
                        "callParams": [
                            {
                                "name": "from",
                                "type": "address",
                                "value": "0xb42e88e6034f7ad90fcbc47684cb97ef0ecacc30"
                            },
                            {
                                "name": "to",
                                "type": "address",
                                "value": "0x000000000000000000000000000000000000dead"
                            },
                            {
                                "name": "id",
                                "type": "uint256",
                                "value": "98,168,371,784,320,387,514,732,815,439,041,609,751,844,866,237,332,060,982,262,478,765,290,950,754,305"
                            },
                            {
                                "name": "amount",
                                "type": "uint256",
                                "value": "1"
                            },
                            {
                                "name": "data",
                                "type": "bytes",
                                "value": "0x"
                            }
                        ],
                        "constructorArguments": "",
                        "name": "safeTransferFrom",
                        "returnParams": [],
                        "signature": "safeTransferFrom(address,address,uint256,uint256,bytes)"
                    },
                    "errorInfo": "",
                    "fromAddress": "0x18ed5803cd47f91716e06e38216e211ffaa9cc07",
                    "gasUsed": 47300,
                    "id": 5,
                    "methodDecoded": true,
                    "operation": "CALL",
                    "output": "",
                    "revert": false,
                    "revertMessage": "",
                    "selector": "0xf242432a",
                    "status": true,
                    "value": "0"
                },
                "nodeType": 0
            },
            "6": {
                "invocation": {
                    "address": "0xa5409ec958c83c3f309868babaca7c86dcb077c1",
                    "callData": "0x000000000000000000000000b42e88e6034f7ad90fcbc47684cb97ef0ecacc30",
                    "decodedMethod": {
                        "callParams": [
                            {
                                "name": "",
                                "type": "address",
                                "value": "0xb42e88e6034f7ad90fcbc47684cb97ef0ecacc30"
                            }
                        ],
                        "constructorArguments": "",
                        "name": "proxies",
                        "returnParams": [
                            {
                                "name": "",
                                "type": "address",
                                "value": "0x6642b300a7282e54840f29efd4d250cc9fea43dd"
                            }
                        ],
                        "signature": "proxies(address)"
                    },
                    "errorInfo": "",
                    "fromAddress": "0x495f947276749ce646f68ac8c248420045cb7b5e",
                    "gasUsed": 2782,
                    "id": 6,
                    "methodDecoded": true,
                    "operation": "STATICCALL",
                    "output": "0x0000000000000000000000006642b300a7282e54840f29efd4d250cc9fea43dd",
                    "revert": false,
                    "revertMessage": "",
                    "selector": "0xc4552791",
                    "status": true,
                    "value": "0"
                },
                "nodeType": 0
            },
            "7": {
                "event": {
                    "contract": "0x495f947276749ce646f68ac8c248420045cb7b5e",
                    "decodedLog": {
                        "name": "TransferSingle",
                        "params": [
                            {
                                "name": "operator",
                                "type": "address",
                                "value": "0x18ed5803cd47f91716e06e38216e211ffaa9cc07"
                            },
                            {
                                "name": "from",
                                "type": "address",
                                "value": "0xb42e88e6034f7ad90fcbc47684cb97ef0ecacc30"
                            },
                            {
                                "name": "to",
                                "type": "address",
                                "value": "0x000000000000000000000000000000000000dead"
                            },
                            {
                                "name": "id",
                                "type": "uint256",
                                "value": "98,168,371,784,320,387,514,732,815,439,041,609,751,844,866,237,332,060,982,262,478,765,290,950,754,305"
                            },
                            {
                                "name": "value",
                                "type": "uint256",
                                "value": "1"
                            }
                        ],
                        "signature": "TransferSingle(address,address,address,uint256,uint256)"
                    },
                    "id": 7,
                    "logData": "0xd909545440f2effbb7393d238e0d73c159f058690000000000003a00000000010000000000000000000000000000000000000000000000000000000000000001",
                    "logDecoded": true,
                    "operation": "EVENT",
                    "revert": false,
                    "status": true,
                    "topics": [
                        "0xc3d58168c5ae7397731d063d5bbf3d657854427343f4c083240f7aacaa2d0f62",
                        "0x00000000000000000000000018ed5803cd47f91716e06e38216e211ffaa9cc07",
                        "0x000000000000000000000000b42e88e6034f7ad90fcbc47684cb97ef0ecacc30",
                        "0x000000000000000000000000000000000000000000000000000000000000dead"
                    ]
                },
                "nodeType": 1
            }
        },
        "gasFlame": [
            {
                "children": [
                    {
                        "children": [
                            {
                                "children": [],
                                "depth": 0,
                                "name": "Initial Gas",
                                "value": 21456
                            },
                            {
                                "children": [
                                    {
                                        "children": [],
                                        "depth": 1,
                                        "name": "migrate",
                                        "value": 50874
                                    },
                                    {
                                        "children": [
                                            {
                                                "children": [],
                                                "depth": 2,
                                                "name": "proxies",
                                                "value": 2782
                                            }
                                        ],
                                        "depth": 1,
                                        "name": "safeTransferFrom",
                                        "value": 47300
                                    }
                                ],
                                "depth": 0,
                                "name": "Executed Gas",
                                "value": 154302
                            }
                        ],
                        "depth": -1,
                        "name": "Actual Gas Used",
                        "value": 170958
                    },
                    {
                        "children": [],
                        "depth": -1,
                        "name": "Refunded Gas",
                        "value": 4800
                    }
                ],
                "depth": -2,
                "name": "Total Gas",
                "value": 175758
            }
        ],
        "isConfirmed": true,
        "mainTrace": [
            {
                "children": [
                    {
                        "children": [
                            {
                                "children": [],
                                "depth": 1,
                                "id": 1,
                                "order": 1
                            },
                            {
                                "children": [
                                    {
                                        "children": [],
                                        "depth": 2,
                                        "id": 3,
                                        "order": 3
                                    },
                                    {
                                        "children": [],
                                        "depth": 2,
                                        "id": 4,
                                        "order": 4
                                    }
                                ],
                                "depth": 1,
                                "id": 2,
                                "order": 2
                            },
                            {
                                "children": [
                                    {
                                        "children": [],
                                        "depth": 2,
                                        "id": 6,
                                        "order": 6
                                    },
                                    {
                                        "children": [],
                                        "depth": 2,
                                        "id": 7,
                                        "order": 7
                                    }
                                ],
                                "depth": 1,
                                "id": 5,
                                "order": 5
                            }
                        ],
                        "depth": 0,
                        "id": 0,
                        "order": 0
                    }
                ],
                "depth": -1,
                "id": -1,
                "order": -1
            }
        ],
        "mainTraceNodeCount": 8,
        "parentIdMap": {
            "0": -1,
            "1": 0,
            "2": 0,
            "3": 2,
            "4": 2,
            "5": 0,
            "6": 5,
            "7": 5
        },
        "tidyTrace": [
            {
                "children": [
                    {
                        "children": [
                            {
                                "children": [],
                                "depth": 1,
                                "id": 1,
                                "order": 1
                            },
                            {
                                "children": [
                                    {
                                        "children": [],
                                        "depth": 2,
                                        "id": 3,
                                        "order": 3
                                    },
                                    {
                                        "children": [],
                                        "depth": 2,
                                        "id": 4,
                                        "order": 4
                                    }
                                ],
                                "depth": 1,
                                "id": 2,
                                "order": 2
                            },
                            {
                                "children": [
                                    {
                                        "children": [],
                                        "depth": 2,
                                        "id": 7,
                                        "order": 7
                                    }
                                ],
                                "depth": 1,
                                "id": 5,
                                "order": 5
                            }
                        ],
                        "depth": 0,
                        "id": 0,
                        "order": 0
                    }
                ],
                "depth": -1,
                "id": -1,
                "order": -1
            }
        ],
        "tidyTraceNodeCount": 7
    },
    "state_change": {
        "stateChanges": [
            {
                "address": "0x18ed5803cd47f91716e06e38216e211ffaa9cc07",
                "erc": "ERC-721",
                "slots": [
                    {
                        "current": "0x0000000000000000000000000000000000000000000000000000000000000001",
                        "key": "0x5ecab1b27e0fbdc4fe08892ff9417fa8551d270153a7b7494b43a300d51d1442",
                        "prev": "0x0000000000000000000000000000000000000000000000000000000000000000"
                    },
                    {
                        "current": "0x000000000000000000000000b42e88e6034f7ad90fcbc47684cb97ef0ecacc30",
                        "key": "0xc2e10ab7a19d872b97ee35501295cf578a457b800ae20d9a790ee95f37737970",
                        "prev": "0x0000000000000000000000000000000000000000000000000000000000000000"
                    }
                ],
                "storageVariables": [
                    {
                        "name": "_owners",
                        "type": "mapping(uint256 => address)",
                        "value": {
                            "pairs": [
                                {
                                    "key": "54",
                                    "value": {
                                        "current": "0xb42e88e6034f7ad90fcbc47684cb97ef0ecacc30",
                                        "prev": "0x0000000000000000000000000000000000000000",
                                        "typeTag": 1
                                    }
                                }
                            ],
                            "typeTag": 4
                        }
                    },
                    {
                        "name": "_balances",
                        "type": "mapping(address => uint256)",
                        "value": {
                            "pairs": [
                                {
                                    "key": "0xb42e88e6034f7ad90fcbc47684cb97ef0ecacc30",
                                    "value": {
                                        "current": "1",
                                        "prev": "0",
                                        "typeTag": 1
                                    }
                                }
                            ],
                            "typeTag": 4
                        }
                    }
                ]
            },
            {
                "address": "0x495f947276749ce646f68ac8c248420045cb7b5e",
                "erc": "",
                "slots": [
                    {
                        "current": "0x0000000000000000000000000000000000000000000000000000000000000000",
                        "key": "0x3ef8aabd8e4d54c536e837fd3506e633b223d8b35bfac85426aec1fc6d8804df",
                        "prev": "0x0000000000000000000000000000000000000000000000000000000000000001"
                    },
                    {
                        "current": "0x0000000000000000000000000000000000000000000000000000000000000001",
                        "key": "0xbf8a29fa852000ad72960f8ec8c8de09b6652790ed3b626a3c95b23f9d67ad5b",
                        "prev": "0x0000000000000000000000000000000000000000000000000000000000000000"
                    }
                ],
                "storageVariables": []
            },
            {
                "address": "0xd014499743e3d6a66d9db3e57d5884270999ee47",
                "erc": "ERC-721",
                "slots": [
                    {
                        "current": "0x0000000000000000000000000000000000000000000000000000000000000001",
                        "key": "0x5ecab1b27e0fbdc4fe08892ff9417fa8551d270153a7b7494b43a300d51d1442",
                        "prev": "0x0000000000000000000000000000000000000000000000000000000000000000"
                    },
                    {
                        "current": "0x000000000000000000000000b42e88e6034f7ad90fcbc47684cb97ef0ecacc30",
                        "key": "0xc2e10ab7a19d872b97ee35501295cf578a457b800ae20d9a790ee95f37737970",
                        "prev": "0x0000000000000000000000000000000000000000000000000000000000000000"
                    }
                ],
                "storageVariables": [
                    {
                        "name": "_balances",
                        "type": "mapping(address => uint256)",
                        "value": {
                            "pairs": [
                                {
                                    "key": "0xb42e88e6034f7ad90fcbc47684cb97ef0ecacc30",
                                    "value": {
                                        "current": "1",
                                        "prev": "0",
                                        "typeTag": 1
                                    }
                                }
                            ],
                            "typeTag": 4
                        }
                    },
                    {
                        "name": "_owners",
                        "type": "mapping(uint256 => address)",
                        "value": {
                            "pairs": [
                                {
                                    "key": "54",
                                    "value": {
                                        "current": "0xb42e88e6034f7ad90fcbc47684cb97ef0ecacc30",
                                        "prev": "0x0000000000000000000000000000000000000000",
                                        "typeTag": 1
                                    }
                                }
                            ],
                            "typeTag": 4
                        }
                    }
                ]
            }
        ]
    }
}