{
    "balance_change": {
        "balanceChanges": [
            {
                "account": "0xbab2dceec76271910fead12e649c4cb47045c3cc",
                "assets": [
                    {
                        "address": "0xeeeeeeeeeeeeeeeeeeeeeeeeeeeeeeeeeeeeeeee",
                        "amount": "0.25",
                        "iconUrl": "https://assets.blocksec.com/image/1663669189317-3.png",
                        "isERC1155": false,
                        "isERC721": false,
                        "sign": false,
                        "value": "876.66205999999999676"
                    },
                    {
                        "address": "0xa7d8d9ef8d8ce8992df33d8b8cf4aebabd5bd270",
                        "amount": "1",
                        "iconUrl": "https://assets.blocksec.com/nft/icon/nft_7292d575-da8c-4a42-a0ab-da1e2c2f7507.png",
                        "isERC1155": false,
                        "isERC721": true,
                        "sign": true,
                        "tokenID": "151000028",
                        "value": ""
                    }
                ]
            },
            {
                "account": "0x0000000000000000000000000000000000000000",
                "assets": [
                    {
                        "address": "0xa7d8d9ef8d8ce8992df33d8b8cf4aebabd5bd270",
                        "amount": "1",
                        "iconUrl": "https://assets.blocksec.com/nft/icon/nft_7292d575-da8c-4a42-a0ab-da1e2c2f7507.png",
                        "isERC1155": false,
                        "isERC721": true,
                        "sign": false,
                        "tokenID": "151000028",
                        "value": ""
                    }
                ]
            },
            {
                "account": "0x707502591380bcfa98175486a38c15ce90e82097",
                "assets": [
                    {
                        "address": "0xeeeeeeeeeeeeeeeeeeeeeeeeeeeeeeeeeeeeeeee",
                        "amount": "0.225",
                        "iconUrl": "https://assets.blocksec.com/image/1663669189317-3.png",
                        "isERC1155": false,
                        "isERC721": false,
                        "sign": true,
                        "value": "788.9958539999999971"
                    }
                ]
            },
            {
                "account": "0xf7a55108a6e830a809e88e74cbf5f5de9d930153",
                "assets": [
                    {
                        "address": "0xeeeeeeeeeeeeeeeeeeeeeeeeeeeeeeeeeeeeeeee",
                        "amount": "0.025",
                        "iconUrl": "https://assets.blocksec.com/image/1663669189317-3.png",
                        "isERC1155": false,
                        "isERC721": false,
                        "sign": true,
                        "value": "87.66620599999999968"
                    }
                ]
            }
        ]
    },
    "profile": {
        "basic_info": {
            "baseFee": "102.345778521",
            "blockNumber": 13192830,
            "callData": "0xefef39a10000000000000000000000000000000000000000000000000000000000000097",
            "debugEnable": true,
            "errorInfo": "",
            "eventCount": 2,
            "feeRecipient": "0x5a0b54d5dc17e0aadc383d2db43b0a0d3e029c4c",
            "formatValue": "0.25",
            "gasLimit": 460680,
            "gasPrice": "180",
            "gasUsed": 345412,
            "intTxnCount": 16,
            "internalRevert": false,
            "internalRevertMessage": "",
            "isContractCreation": false,
            "isFlashloan": false,
            "maxFee": "",
            "nonce": 172,
            "overwritedBlockNumber": -1,
            "priorityFee": "",
            "receiver": "0x47e312d99c09ce61a866c83cbbbbed5a4b9d33e7",
            "revertMessage": "",
            "sender": "0xbab2dceec76271910fead12e649c4cb47045c3cc",
            "simulationEnable": true,
            "sourceTxnHash": "0xd585bc2fa3854e8ec2197c39b1cf1a278cc7eac8e8f4cff0b5313cf7f5ade4fd",
            "status": true,
            "timestamp": "2021-09-09T17:19:57Z",
            "transactionFee": "0.06217416",
            "txnHash": "0xd585bc2fa3854e8ec2197c39b1cf1a278cc7eac8e8f4cff0b5313cf7f5ade4fd",
            "txnIndex": 1,
            "type": 0,
            "value": "250000000000000000"
        },
        "fund_flow": [
            {
                "amount": "0.25",
                "from": "0xbab2dceec76271910fead12e649c4cb47045c3cc",
                "id": 1,
                "isERC1155": false,
                "isERC721": false,
                "isReverted": false,
                "order": 1,
                "to": "0x47e312d99c09ce61a866c83cbbbbed5a4b9d33e7",
                "token": "0xeeeeeeeeeeeeeeeeeeeeeeeeeeeeeeeeeeeeeeee"
            },
            {
                "amount": "0.025",
                "from": "0x47e312d99c09ce61a866c83cbbbbed5a4b9d33e7",
                "id": 2,
                "isERC1155": false,
                "isERC721": false,
                "isReverted": false,
                "order": 2,
                "to": "0xf7a55108a6e830a809e88e74cbf5f5de9d930153",
                "token": "0xeeeeeeeeeeeeeeeeeeeeeeeeeeeeeeeeeeeeeeee"
            },
            {
                "amount": "0.225",
                "from": "0x47e312d99c09ce61a866c83cbbbbed5a4b9d33e7",
                "id": 3,
                "isERC1155": false,
                "isERC721": false,
                "isReverted": false,
                "order": 3,
                "to": "0x707502591380bcfa98175486a38c15ce90e82097",
                "token": "0xeeeeeeeeeeeeeeeeeeeeeeeeeeeeeeeeeeeeeeee"
            },
            {
                "amount": "1",
                "from": "0x0000000000000000000000000000000000000000",
                "id": 4,
                "isERC1155": false,
                "isERC721": true,
                "isReverted": false,
                "order": 4,
                "to": "0xbab2dceec76271910fead12e649c4cb47045c3cc",
                "token": "0xa7d8d9ef8d8ce8992df33d8b8cf4aebabd5bd270",
                "tokenID": "151000028"
            }
        ],
        "token_infos": [
            {
                "address": "0xc02aaa39b223fe8d0a0e5c4f27ead9083c756cc2",
                "decimals": 18
            },
            {
                "address": "0xeeeeeeeeeeeeeeeeeeeeeeeeeeeeeeeeeeeeeeee",
                "decimals": 18
            }
        ]
    },
    "address_label": {
        "labels": [
            {
                "address": "0x0000000000000000000000000000000000000004",
                "label": "Precompiled"
            },
            {
                "address": "0xeeeeeeeeeeeeeeeeeeeeeeeeeeeeeeeeeeeeeeee",
                "label": "Ether"
            },
            {
                "address": "0x47e312d99c09ce61a866c83cbbbbed5a4b9d33e7",
                "label": "Art Blocks"
            },
            {
                "address": "0xc02aaa39b223fe8d0a0e5c4f27ead9083c756cc2",
                "label": "Wrapped Ether (WETH)"
            },
            {
                "address": "0xa7d8d9ef8d8ce8992df33d8b8cf4aebabd5bd270",
                "label": "Art Blocks: BLOCKS Token"
            },
            {
                "address": "0x0000000000000000000000000000000000000001",
                "label": "Precompiled"
            },
            {
                "address": "0x0000000000000000000000000000000000000002",
                "label": "Precompiled"
            },
            {
                "address": "0x0000000000000000000000000000000000000003",
                "label": "Precompiled"
            }
        ]
    },
    "trace": {
        "accountLabels": null,
        "dataMap": {
            "-1": {
                "invocation": {
                    "address": "0xbab2dceec76271910fead12e649c4cb47045c3cc",
                    "callData": "",
                    "decodedMethod": null,
                    "errorInfo": "",
                    "fromAddress": "",
                    "gasUsed": 0,
                    "id": -1,
                    "methodDecoded": false,
                    "operation": "",
                    "output": "",
                    "revert": false,
                    "revertMessage": "",
                    "selector": "",
                    "status": false,
                    "value": ""
                },
                "nodeType": 0
            },
            "0": {
                "invocation": {
                    "address": "0x47e312d99c09ce61a866c83cbbbbed5a4b9d33e7",
                    "callData": "0x0000000000000000000000000000000000000000000000000000000000000097",
                    "decodedMethod": {
                        "callParams": [
                            {
                                "name": "_tokenId",
                                "type": "uint256",
                                "value": "151"
                            }
                        ],
                        "constructorArguments": "",
                        "name": "purchase",
                        "returnParams": [],
                        "signature": "purchase(uint256)"
                    },
                    "errorInfo": "",
                    "fromAddress": "0xbab2dceec76271910fead12e649c4cb47045c3cc",
                    "gasUsed": 345412,
                    "id": 0,
                    "methodDecoded": true,
                    "operation": "CALL",
                    "output": "0x00000000000000000000000000000000000000000000000000000000090013dc",
                    "revert": false,
                    "revertMessage": "",
                    "selector": "0xefef39a1",
                    "status": true,
                    "value": "0.25"
                },
                "nodeType": 0
            },
            "1": {
                "invocation": {
                    "address": "0xa7d8d9ef8d8ce8992df33d8b8cf4aebabd5bd270",
                    "callData": "0x0000000000000000000000000000000000000000000000000000000000000097",
                    "decodedMethod": {
                        "callParams": [
                            {
                                "name": "",
                                "type": "uint256",
                                "value": "151"
                            }
                        ],
                        "constructorArguments": "",
                        "name": "projectIdToCurrencySymbol",
                        "returnParams": [
                            {
                                "name": "",
                                "type": "string",
                                "value": "ETH"
                            }
                        ],
                        "signature": "projectIdToCurrencySymbol(uint256)"
                    },
                    "errorInfo": "",
                    "fromAddress": "0x47e312d99c09ce61a866c83cbbbbed5a4b9d33e7",
                    "gasUsed": 3202,
                    "id": 1,
                    "methodDecoded": true,
                    "operation": "STATICCALL",
                    "output": "0x000000000000000000000000000000000000000000000000000000000000002000000000000000000000000000000000000000000000000000000000000000034554480000000000000000000000000000000000000000000000000000000000",
                    "revert": false,
                    "revertMessage": "",
                    "selector": "0x20927ec9",
                    "status": true,
                    "value": "0"
                },
                "nodeType": 0
            },
            "10": {
                "invocation": {
                    "address": "0x707502591380bcfa98175486a38c15ce90e82097",
                    "callData": "0x",
                    "decodedMethod": null,
                    "errorInfo": "",
                    "fromAddress": "0x47e312d99c09ce61a866c83cbbbbed5a4b9d33e7",
                    "gasUsed": 0,
                    "id": 10,
                    "methodDecoded": false,
                    "operation": "CALL",
                    "output": "",
                    "revert": false,
                    "revertMessage": "",
                    "selector": "fallback",
                    "status": true,
                    "value": "0.225"
                },
                "nodeType": 0
            },
            "11": {
                "invocation": {
                    "address": "0xa7d8d9ef8d8ce8992df33d8b8cf4aebabd5bd270",
                    "callData": "0x000000000000000000000000bab2dceec76271910fead12e649c4cb47045c3cc0000000000000000000000000000000000000000000000000000000000000097000000000000000000000000bab2dceec76271910fead12e649c4cb47045c3cc",
                    "decodedMethod": {
                        "callParams": [
                            {
                                "name": "_to",
                                "type": "address",
                                "value": "0xbab2dceec76271910fead12e649c4cb47045c3cc"
                            },
                            {
                                "name": "_projectId",
                                "type": "uint256",
                                "value": "151"
                            },
                            {
                                "name": "_by",
                                "type": "address",
                                "value": "0xbab2dceec76271910fead12e649c4cb47045c3cc"
                            }
                        ],
                        "constructorArguments": "",
                        "name": "mint",
                        "returnParams": [
                            {
                                "name": "_tokenId",
                                "type": "uint256",
                                "value": "151,000,028"
                            }
                        ],
                        "signature": "mint(address,uint256,address)"
                    },
                    "errorInfo": "",
                    "fromAddress": "0x47e312d99c09ce61a866c83cbbbbed5a4b9d33e7",
                    "gasUsed": 266347,
                    "id": 11,
                    "methodDecoded": true,
                    "operation": "CALL",
                    "output": "0x00000000000000000000000000000000000000000000000000000000090013dc",
                    "revert": false,
                    "revertMessage": "",
                    "selector": "0x0d4d1513",
                    "status": true,
                    "value": "0"
                },
                "nodeType": 0
            },
            "12": {
                "invocation": {
                    "address": "0x03d37ad26961d79e52c3daea840c0095fb4729a7",
                    "callData": "0x",
                    "decodedMethod": {
                        "callParams": [],
                        "constructorArguments": "",
                        "name": "returnValue",
                        "returnParams": [
                            {
                                "name": "",
                                "type": "uint256",
                                "value": "50,672,033,423,006,916,062,833,746,158,988,823,720,417,260,566,505,052,960,506,627,509,460,479,648,773"
                            }
                        ],
                        "signature": "returnValue()"
                    },
                    "errorInfo": "",
                    "fromAddress": "0xa7d8d9ef8d8ce8992df33d8b8cf4aebabd5bd270",
                    "gasUsed": 24100,
                    "id": 12,
                    "methodDecoded": true,
                    "operation": "STATICCALL",
                    "output": "0x70075ac467912454881ed9c7c6ad363f5e873f7c2cff2a7e031c112f24be2405",
                    "revert": false,
                    "revertMessage": "",
                    "selector": "0x990c8f79",
                    "status": true,
                    "value": "0"
                },
                "nodeType": 0
            },
            "13": {
                "invocation": {
                    "address": "0xe7623132d8907eb7de4ccf263b36da07953acbd3",
                    "callData": "0x",
                    "decodedMethod": {
                        "callParams": [],
                        "constructorArguments": "",
                        "name": "returnValue",
                        "returnParams": [
                            {
                                "name": "",
                                "type": "uint256",
                                "value": "59,872,255,421,874,425,291,127,064,262,941,297,129,620,614,642,667,573,553,086,524,411,373,283,395,975"
                            }
                        ],
                        "signature": "returnValue()"
                    },
                    "errorInfo": "",
                    "fromAddress": "0x03d37ad26961d79e52c3daea840c0095fb4729a7",
                    "gasUsed": 7940,
                    "id": 13,
                    "methodDecoded": true,
                    "operation": "STATICCALL",
                    "output": "0x845e7ee4a9d7d07b0e16bbea76469af7c0ecfe91722b56269a1419680cf34987",
                    "revert": false,
                    "revertMessage": "",
                    "selector": "0x990c8f79",
                    "status": true,
                    "value": "0"
                },
                "nodeType": 0
            },
            "14": {
                "invocation": {
                    "address": "0xc02aaa39b223fe8d0a0e5c4f27ead9083c756cc2",
                    "callData": "0x",
                    "decodedMethod": {
                        "callParams": [],
                        "constructorArguments": "",
                        "name": "totalSupply",
                        "returnParams": [
                            {
                                "name": "",
                                "type": "uint256",
                                "value": "6,888,660,417,315,682,905,520,090"
                            }
                        ],
                        "signature": "totalSupply()"
                    },
                    "errorInfo": "",
                    "fromAddress": "0xe7623132d8907eb7de4ccf263b36da07953acbd3",
                    "gasUsed": 343,
                    "id": 14,
                    "methodDecoded": true,
                    "operation": "STATICCALL",
                    "output": "0x00000000000000000000000000000000000000000005b2bb078d35809d9877da",
                    "revert": false,
                    "revertMessage": "",
                    "selector": "0x18160ddd",
                    "status": true,
                    "value": "0"
                },
                "nodeType": 0
            },
            "15": {
                "invocation": {
                    "address": "0xe7623132d8907eb7de4ccf263b36da07953acbd3",
                    "callData": "0x",
                    "decodedMethod": {
                        "callParams": [],
                        "constructorArguments": "",
                        "name": "returnValue",
                        "returnParams": [
                            {
                                "name": "",
                                "type": "uint256",
                                "value": "59,872,255,421,874,425,291,127,064,262,941,297,129,620,614,642,667,573,553,086,524,411,373,283,395,975"
                            }
                        ],
                        "signature": "returnValue()"
                    },
                    "errorInfo": "",
                    "fromAddress": "0x03d37ad26961d79e52c3daea840c0095fb4729a7",
                    "gasUsed": 1440,
                    "id": 15,
                    "methodDecoded": true,
                    "operation": "STATICCALL",
                    "output": "0x845e7ee4a9d7d07b0e16bbea76469af7c0ecfe91722b56269a1419680cf34987",
                    "revert": false,
                    "revertMessage": "",
                    "selector": "0x990c8f79",
                    "status": true,
                    "value": "0"
                },
                "nodeType": 0
            },
            "16": {
                "invocation": {
                    "address": "0xc02aaa39b223fe8d0a0e5c4f27ead9083c756cc2",
                    "callData": "0x",
                    "decodedMethod": {
                        "callParams": [],
                        "constructorArguments": "",
                        "name": "totalSupply",
                        "returnParams": [
                            {
                                "name": "",
                                "type": "uint256",
                                "value": "6,888,660,417,315,682,905,520,090"
                            }
                        ],
                        "signature": "totalSupply()"
                    },
                    "errorInfo": "",
                    "fromAddress": "0xe7623132d8907eb7de4ccf263b36da07953acbd3",
                    "gasUsed": 343,
                    "id": 16,
                    "methodDecoded": true,
                    "operation": "STATICCALL",
                    "output": "0x00000000000000000000000000000000000000000005b2bb078d35809d9877da",
                    "revert": false,
                    "revertMessage": "",
                    "selector": "0x18160ddd",
                    "status": true,
                    "value": "0"
                },
                "nodeType": 0
            },
            "17": {
                "event": {
                    "contract": "0xa7d8d9ef8d8ce8992df33d8b8cf4aebabd5bd270",
                    "decodedLog": {
                        "name": "Transfer",
                        "params": [
                            {
                                "name": "from",
                                "type": "address",
                                "value": "0x0000000000000000000000000000000000000000"
                            },
                            {
                                "name": "to",
                                "type": "address",
                                "value": "0xbab2dceec76271910fead12e649c4cb47045c3cc"
                            },
                            {
                                "decimalAvailable": true,
                                "name": "tokenId",
                                "type": "uint256",
                                "value": "151,000,028"
                            }
                        ],
                        "signature": "Transfer(address,address,uint256)"
                    },
                    "id": 17,
                    "logData": "0x",
                    "logDecoded": true,
                    "operation": "EVENT",
                    "revert": false,
                    "status": true,
                    "topics": [
                        "0xddf252ad1be2c89b69c2b068fc378daa952ba7f163c4a11628f55a4df523b3ef",
                        "0x0000000000000000000000000000000000000000000000000000000000000000",
                        "0x000000000000000000000000bab2dceec76271910fead12e649c4cb47045c3cc",
                        "0x00000000000000000000000000000000000000000000000000000000090013dc"
                    ]
                },
                "nodeType": 1
            },
            "18": {
                "event": {
                    "contract": "0xa7d8d9ef8d8ce8992df33d8b8cf4aebabd5bd270",
                    "decodedLog": {
                        "name": "Mint",
                        "params": [
                            {
                                "name": "_to",
                                "type": "address",
                                "value": "0xbab2dceec76271910fead12e649c4cb47045c3cc"
                            },
                            {
                                "name": "_tokenId",
                                "type": "uint256",
                                "value": "151,000,028"
                            },
                            {
                                "name": "_projectId",
                                "type": "uint256",
                                "value": "151"
                            }
                        ],
                        "signature": "Mint(address,uint256,uint256)"
                    },
                    "id": 18,
                    "logData": "0x",
                    "logDecoded": true,
                    "operation": "EVENT",
                    "revert": false,
                    "status": true,
                    "topics": [
                        "0x4c209b5fc8ad50758f13e2e1088ba56a560dff690a1c6fef26394f4c03821c4f",
                        "0x000000000000000000000000bab2dceec76271910fead12e649c4cb47045c3cc",
                        "0x00000000000000000000000000000000000000000000000000000000090013dc",
                        "0x0000000000000000000000000000000000000000000000000000000000000097"
                    ]
                },
                "nodeType": 1
            },
            "2": {
                "invocation": {
                    "address": "0xa7d8d9ef8d8ce8992df33d8b8cf4aebabd5bd270",
                    "callData": "0x0000000000000000000000000000000000000000000000000000000000000097",
                    "decodedMethod": {
                        "callParams": [
                            {
                                "name": "",
                                "type": "uint256",
                                "value": "151"
                            }
                        ],
                        "constructorArguments": "",
                        "name": "projectIdToPricePerTokenInWei",
                        "returnParams": [
                            {
                                "name": "",
                                "type": "uint256",
                                "value": "250,000,000,000,000,000"
                            }
                        ],
                        "signature": "projectIdToPricePerTokenInWei(uint256)"
                    },
                    "errorInfo": "",
                    "fromAddress": "0x47e312d99c09ce61a866c83cbbbbed5a4b9d33e7",
                    "gasUsed": 2538,
                    "id": 2,
                    "methodDecoded": true,
                    "operation": "STATICCALL",
                    "output": "0x00000000000000000000000000000000000000000000000003782dace9d90000",
                    "revert": false,
                    "revertMessage": "",
                    "selector": "0xf70c0f04",
                    "status": true,
                    "value": "0"
                },
                "nodeType": 0
            },
            "3": {
                "invocation": {
                    "address": "0xa7d8d9ef8d8ce8992df33d8b8cf4aebabd5bd270",
                    "callData": "0x0000000000000000000000000000000000000000000000000000000000000097",
                    "decodedMethod": {
                        "callParams": [
                            {
                                "name": "",
                                "type": "uint256",
                                "value": "151"
                            }
                        ],
                        "constructorArguments": "",
                        "name": "projectIdToPricePerTokenInWei",
                        "returnParams": [
                            {
                                "name": "",
                                "type": "uint256",
                                "value": "250,000,000,000,000,000"
                            }
                        ],
                        "signature": "projectIdToPricePerTokenInWei(uint256)"
                    },
                    "errorInfo": "",
                    "fromAddress": "0x47e312d99c09ce61a866c83cbbbbed5a4b9d33e7",
                    "gasUsed": 538,
                    "id": 3,
                    "methodDecoded": true,
                    "operation": "STATICCALL",
                    "output": "0x00000000000000000000000000000000000000000000000003782dace9d90000",
                    "revert": false,
                    "revertMessage": "",
                    "selector": "0xf70c0f04",
                    "status": true,
                    "value": "0"
                },
                "nodeType": 0
            },
            "4": {
                "invocation": {
                    "address": "0xa7d8d9ef8d8ce8992df33d8b8cf4aebabd5bd270",
                    "callData": "0x0000000000000000000000000000000000000000000000000000000000000097",
                    "decodedMethod": {
                        "callParams": [
                            {
                                "name": "",
                                "type": "uint256",
                                "value": "151"
                            }
                        ],
                        "constructorArguments": "",
                        "name": "projectIdToPricePerTokenInWei",
                        "returnParams": [
                            {
                                "name": "",
                                "type": "uint256",
                                "value": "250,000,000,000,000,000"
                            }
                        ],
                        "signature": "projectIdToPricePerTokenInWei(uint256)"
                    },
                    "errorInfo": "",
                    "fromAddress": "0x47e312d99c09ce61a866c83cbbbbed5a4b9d33e7",
                    "gasUsed": 538,
                    "id": 4,
                    "methodDecoded": true,
                    "operation": "STATICCALL",
                    "output": "0x00000000000000000000000000000000000000000000000003782dace9d90000",
                    "revert": false,
                    "revertMessage": "",
                    "selector": "0xf70c0f04",
                    "status": true,
                    "value": "0"
                },
                "nodeType": 0
            },
            "5": {
                "invocation": {
                    "address": "0xa7d8d9ef8d8ce8992df33d8b8cf4aebabd5bd270",
                    "callData": "0x",
                    "decodedMethod": {
                        "callParams": [],
                        "constructorArguments": "",
                        "name": "artblocksPercentage",
                        "returnParams": [
                            {
                                "name": "",
                                "type": "uint256",
                                "value": "10"
                            }
                        ],
                        "signature": "artblocksPercentage()"
                    },
                    "errorInfo": "",
                    "fromAddress": "0x47e312d99c09ce61a866c83cbbbbed5a4b9d33e7",
                    "gasUsed": 2366,
                    "id": 5,
                    "methodDecoded": true,
                    "operation": "STATICCALL",
                    "output": "0x000000000000000000000000000000000000000000000000000000000000000a",
                    "revert": false,
                    "revertMessage": "",
                    "selector": "0x4f029c39",
                    "status": true,
                    "value": "0"
                },
                "nodeType": 0
            },
            "6": {
                "invocation": {
                    "address": "0xa7d8d9ef8d8ce8992df33d8b8cf4aebabd5bd270",
                    "callData": "0x",
                    "decodedMethod": {
                        "callParams": [],
                        "constructorArguments": "",
                        "name": "artblocksAddress",
                        "returnParams": [
                            {
                                "name": "",
                                "type": "address",
                                "value": "0xf7a55108a6e830a809e88e74cbf5f5de9d930153"
                            }
                        ],
                        "signature": "artblocksAddress()"
                    },
                    "errorInfo": "",
                    "fromAddress": "0x47e312d99c09ce61a866c83cbbbbed5a4b9d33e7",
                    "gasUsed": 2428,
                    "id": 6,
                    "methodDecoded": true,
                    "operation": "STATICCALL",
                    "output": "0x000000000000000000000000f7a55108a6e830a809e88e74cbf5f5de9d930153",
                    "revert": false,
                    "revertMessage": "",
                    "selector": "0x3949f906",
                    "status": true,
                    "value": "0"
                },
                "nodeType": 0
            },
            "7": {
                "invocation": {
                    "address": "0xf7a55108a6e830a809e88e74cbf5f5de9d930153",
                    "callData": "0x",
                    "decodedMethod": null,
                    "errorInfo": "",
                    "fromAddress": "0x47e312d99c09ce61a866c83cbbbbed5a4b9d33e7",
                    "gasUsed": 0,
                    "id": 7,
                    "methodDecoded": false,
                    "operation": "CALL",
                    "output": "",
                    "revert": false,
                    "revertMessage": "",
                    "selector": "fallback",
                    "status": true,
                    "value": "0.025"
                },
                "nodeType": 0
            },
            "8": {
                "invocation": {
                    "address": "0xa7d8d9ef8d8ce8992df33d8b8cf4aebabd5bd270",
                    "callData": "0x0000000000000000000000000000000000000000000000000000000000000097",
                    "decodedMethod": {
                        "callParams": [
                            {
                                "name": "",
                                "type": "uint256",
                                "value": "151"
                            }
                        ],
                        "constructorArguments": "",
                        "name": "projectIdToAdditionalPayeePercentage",
                        "returnParams": [
                            {
                                "name": "",
                                "type": "uint256",
                                "value": "0"
                            }
                        ],
                        "signature": "projectIdToAdditionalPayeePercentage(uint256)"
                    },
                    "errorInfo": "",
                    "fromAddress": "0x47e312d99c09ce61a866c83cbbbbed5a4b9d33e7",
                    "gasUsed": 2473,
                    "id": 8,
                    "methodDecoded": true,
                    "operation": "STATICCALL",
                    "output": "0x0000000000000000000000000000000000000000000000000000000000000000",
                    "revert": false,
                    "revertMessage": "",
                    "selector": "0xcc74234b",
                    "status": true,
                    "value": "0"
                },
                "nodeType": 0
            },
            "9": {
                "invocation": {
                    "address": "0xa7d8d9ef8d8ce8992df33d8b8cf4aebabd5bd270",
                    "callData": "0x0000000000000000000000000000000000000000000000000000000000000097",
                    "decodedMethod": {
                        "callParams": [
                            {
                                "name": "",
                                "type": "uint256",
                                "value": "151"
                            }
                        ],
                        "constructorArguments": "",
                        "name": "projectIdToArtistAddress",
                        "returnParams": [
                            {
                                "name": "",
                                "type": "address",
                                "value": "0x707502591380bcfa98175486a38c15ce90e82097"
                            }
                        ],
                        "signature": "projectIdToArtistAddress(uint256)"
                    },
                    "errorInfo": "",
                    "fromAddress": "0x47e312d99c09ce61a866c83cbbbbed5a4b9d33e7",
                    "gasUsed": 2601,
                    "id": 9,
                    "methodDecoded": true,
                    "operation": "STATICCALL",
                    "output": "0x000000000000000000000000707502591380bcfa98175486a38c15ce90e82097",
                    "revert": false,
                    "revertMessage": "",
                    "selector": "0xa47d29cb",
                    "status": true,
                    "value": "0"
                },
                "nodeType": 0
            }
        },
        "gasFlame": [
            {
                "children": [
                    {
                        "children": [
                            {
                                "children": [],
                                "depth": 0,
                                "name": "Initial Gas",
                                "value": 21204
                            },
                            {
                                "children": [
                                    {
                                        "children": [],
                                        "depth": 1,
                                        "name": "projectIdToCurrencySymbol",
                                        "value": 3202
                                    },
                                    {
                                        "children": [],
                                        "depth": 1,
                                        "name": "projectIdToPricePerTokenInWei",
                                        "value": 2538
                                    },
                                    {
                                        "children": [],
                                        "depth": 1,
                                        "name": "projectIdToPricePerTokenInWei",
                                        "value": 538
                                    },
                                    {
                                        "children": [],
                                        "depth": 1,
                                        "name": "projectIdToPricePerTokenInWei",
                                        "value": 538
                                    },
                                    {
                                        "children": [],
                                        "depth": 1,
                                        "name": "artblocksPercentage",
                                        "value": 2366
                                    },
                                    {
                                        "children": [],
                                        "depth": 1,
                                        "name": "artblocksAddress",
                                        "value": 2428
                                    },
                                    {
                                        "children": [],
                                        "depth": 1,
                                        "name": "fallback",
                                        "value": 0
                                    },
                                    {
                                        "children": [],
                                        "depth": 1,
                                        "name": "projectIdToAdditionalPayeePercentage",
                                        "value": 2473
                                    },
                                    {
                                        "children": [],
                                        "depth": 1,
                                        "name": "projectIdToArtistAddress",
                                        "value": 2601
                                    },
                                    {
                                        "children": [],
                                        "depth": 1,
                                        "name": "fallback",
                                        "value": 0
                                    },
                                    {
                                        "children": [
                                            {
                                                "children": [
                                                    {
                                                        "children": [
                                                            {
                                                                "children": [],
                                                                "depth": 4,
                                                                "name": "totalSupply",
                                                                "value": 343
                                                            }
                                                        ],
                                                        "depth": 3,
                                                        "name": "returnValue",
                                                        "value": 7940
                                                    },
                                                    {
                                                        "children": [
                                                            {
                                                                "children": [],
                                                                "depth": 4,
                                                                "name": "totalSupply",
                                                                "value": 343
                                                            }
                                                        ],
                                                        "depth": 3,
                                                        "name": "returnValue",
                                                        "value": 1440
                                                    }
                                                ],
                                                "depth": 2,
                                                "name": "returnValue",
                                                "value": 24100
                                            }
                                        ],
                                        "depth": 1,
                                        "name": "mint",
                                        "value": 266347
                                    }
                                ],
                                "depth": 0,
                                "name": "Executed Gas",
                                "value": 324208
                            }
                        ],
                        "depth": -1,
                        "name": "Actual Gas Used",
                        "value": 345412
                    },
                    {
                        "children": [],
                        "depth": -1,
                        "name": "Refunded Gas",
                        "value": 0
                    }
                ],
                "depth": -2,
                "name": "Total Gas",
                "value": 345412
            }
        ],
        "isConfirmed": true,
        "mainTrace": [
            {
                "children": [
                    {
                        "children": [
                            {
                                "children": [],
                                "depth": 1,
                                "id": 1,
                                "order": 1
                            },
                            {
                                "children": [],
                                "depth": 1,
                                "id": 2,
                                "order": 2
                            },
                            {
                                "children": [],
                                "depth": 1,
                                "id": 3,
                                "order": 3
                            },
                            {
                                "children": [],
                                "depth": 1,
                                "id": 4,
                                "order": 4
                            },
                            {
                                "children": [],
                                "depth": 1,
                                "id": 5,
                                "order": 5
                            },
                            {
                                "children": [],
                                "depth": 1,
                                "id": 6,
                                "order": 6
                            },
                            {
                                "children": [],
                                "depth": 1,
                                "id": 7,
                                "order": 7
                            },
                            {
                                "children": [],
                                "depth": 1,
                                "id": 8,
                                "order": 8
                            },
                            {
                                "children": [],
                                "depth": 1,
                                "id": 9,
                                "order": 9
                            },
                            {
                                "children": [],
                                "depth": 1,
                                "id": 10,
                                "order": 10
                            },
                            {
                                "children": [
                                    {
                                        "children": [
                                            {
                                                "children": [
                                                    {
                                                        "children": [],
                                                        "depth": 4,
                                                        "id": 14,
                                                        "order": 14
                                                    }
                                                ],
                                                "depth": 3,
                                                "id": 13,
                                                "order": 13
                                            },
                                            {
                                                "children": [
                                                    {
                                                        "children": [],
                                                        "depth": 4,
                                                        "id": 16,
                                                        "order": 16
                                                    }
                                                ],
                                                "depth": 3,
                                                "id": 15,
                                                "order": 15
                                            }
                                        ],
                                        "depth": 2,
                                        "id": 12,
                                        "order": 12
                                    },
                                    {
                                        "children": [],
                                        "depth": 2,
                                        "id": 17,
                                        "order": 17
                                    },
                                    {
                                        "children": [],
                                        "depth": 2,
                                        "id": 18,
                                        "order": 18
                                    }
                                ],
                                "depth": 1,
                                "id": 11,
                                "order": 11
                            }
                        ],
                        "depth": 0,
                        "id": 0,
                        "order": 0
                    }
                ],
                "depth": -1,
                "id": -1,
                "order": -1
            }
        ],
        "mainTraceNodeCount": 19,
        "parentIdMap": {
            "0": -1,
            "1": 0,
            "10": 0,
            "11": 0,
            "12": 11,
            "13": 12,
            "14": 13,
            "15": 12,
            "16": 15,
            "17": 11,
            "18": 11,
            "2": 0,
            "3": 0,
            "4": 0,
            "5": 0,
            "6": 0,
            "7": 0,
            "8": 0,
            "9": 0
        },
        "tidyTrace": [
            {
                "children": [
                    {
                        "children": [
                            {
                                "children": [],
                                "depth": 1,
                                "id": 7,
                                "order": 7
                            },
                            {
                                "children": [],
                                "depth": 1,
                                "id": 10,
                                "order": 10
                            },
                            {
                                "children": [
                                    {
                                        "children": [],
                                        "depth": 2,
                                        "id": 17,
                                        "order": 17
                                    },
                                    {
                                        "children": [],
                                        "depth": 2,
                                        "id": 18,
                                        "order": 18
                                    }
                                ],
                                "depth": 1,
                                "id": 11,
                                "order": 11
                            }
                        ],
                        "depth": 0,
                        "id": 0,
                        "order": 0
                    }
                ],
                "depth": -1,
                "id": -1,
                "order": -1
            }
        ],
        "tidyTraceNodeCount": 6
    },
    "state_change": {
        "stateChanges": [
            {
                "address": "0xa7d8d9ef8d8ce8992df33d8b8cf4aebabd5bd270",
                "erc": "ERC-721",
                "slots": [
                    {
                        "current": "0x000000000000000000000000000000000000000000000000000000000000001d",
                        "key": "0x6dcf333904dc6817c5936c24c1cb27d2ebd199bc601ddb9222d1baf06886a42a",
                        "prev": "0x000000000000000000000000000000000000000000000000000000000000001c"
                    },
                    {
                        "current": "0x0000000000000000000000000000000000000000000000000000000000000097",
                        "key": "0xf5286dfc085ed4c28b58b557b701d38925f947ae6457a9fc0782a6b541abb179",
                        "prev": "0x0000000000000000000000000000000000000000000000000000000000000000"
                    },
                    {
                        "current": "0x000000000000000000000000bab2dceec76271910fead12e649c4cb47045c3cc",
                        "key": "0x114dedc5ab645281303113b51f7d75d0bc84c4299ae0a9a81e48bc34b275e3a9",
                        "prev": "0x0000000000000000000000000000000000000000000000000000000000000000"
                    },
                    {
                        "current": "0x0000000000000000000000000000000000000000000000000000000000000002",
                        "key": "0x63c613d4fd791a2307472e902d3bba6a2185ff51f396c929edd6866641bac534",
                        "prev": "0x0000000000000000000000000000000000000000000000000000000000000001"
                    },
                    {
                        "current": "0x0000000000000000000000000000000000000000000000000000000000000002",
                        "key": "0xe35081e6395bd661224b72623a50e459af0c5ac845da29f4cc6277d3a7de2b21",
                        "prev": "0x0000000000000000000000000000000000000000000000000000000000000001"
                    },
                    {
                        "current": "0x00000000000000000000000000000000000000000000000000000000090013dc",
                        "key": "0xf2dc14f2fc5da15b8e03c8e08ae15892abf58538a94a1e814f5e9cd67b66d877",
                        "prev": "0x0000000000000000000000000000000000000000000000000000000000000000"
                    },
                    {
                        "current": "0x0000000000000000000000000000000000000000000000000000000000017900",
                        "key": "0x836a3e239c078f06768600ebb90de02bdbb331709be79153fc16817970852fbf",
                        "prev": "0x0000000000000000000000000000000000000000000000000000000000000000"
                    },
                    {
                        "current": "0x00000000000000000000000000000000000000000000000000000000090013dc",
                        "key": "0x96fb8959d93cb02960506f8565f1373c3ecbdaf4b56f7323cac645d190a83e77",
                        "prev": "0x0000000000000000000000000000000000000000000000000000000000000000"
                    },
                    {
                        "current": "0x00000000000000000000000000000000000000000000000000000000090013dc",
                        "key": "0x14171076009034a1a0f3a393304d7ab3b544eda2ecba43f489029ece93200f34",
                        "prev": "0x0000000000000000000000000000000000000000000000000000000000000000"
                    },
                    {
                        "current": "0x00000000000000000000000000000000000000000000000000000000090013dc",
                        "key": "0xa66cc928b5edb82af9bd49922954155ab7b0942694bea4ce44661d9a87383f88",
                        "prev": "0x0000000000000000000000000000000000000000000000000000000000000000"
                    },
                    {
                        "current": "0x644364b9ec9515b4bac00a5301611ec4caac10eb99ccab23f19594c7c1c01eb5",
                        "key": "0x8e20f21cbf2a1ded993c366e059df52c5dc213b54728104ff0c1d5a91c31e1b3",
                        "prev": "0x0000000000000000000000000000000000000000000000000000000000000000"
                    },
                    {
                        "current": "0x0000000000000000000000000000000000000000000000000000000000000001",
                        "key": "0xadac6d53e5c10daa7a08fed47b693728266659da022fbfe0cee2c4add76433ea",
                        "prev": "0x0000000000000000000000000000000000000000000000000000000000000000"
                    },
                    {
                        "current": "0x0000000000000000000000000000000000000000000000000000000000017901",
                        "key": "0x0000000000000000000000000000000000000000000000000000000000000007",
                        "prev": "0x0000000000000000000000000000000000000000000000000000000000017900"
                    },
                    {
                        "current": "0x000000000000000000000000000000000000000000000000000000000000001d",
                        "key": "0x1f0b4155c9dd74f681fa3ce557c1e352d15e4ae987cd34042b9f582305e96149",
                        "prev": "0x000000000000000000000000000000000000000000000000000000000000001c"
                    }
                ],
                "storageVariables": [
                    {
                        "name": "_ownedTokensIndex",
                        "type": "mapping(uint256 => uint256)",
                        "value": {
                            "pairs": [
                                {
                                    "key": "151000028",
                                    "value": {
                                        "current": "1",
                                        "prev": "0",
                                        "typeTag": 1
                                    }
                                }
                            ],
                            "typeTag": 4
                        }
                    },
                    {
                        "name": "tokenIdToProjectId",
                        "type": "mapping(uint256 => uint256)",
                        "value": {
                            "pairs": [
                                {
                                    "key": "151000028",
                                    "value": {
                                        "current": "151",
                                        "prev": "0",
                                        "typeTag": 1
                                    }
                                }
                            ],
                            "typeTag": 4
                        }
                    },
                    {
                        "name": "hashToTokenId",
                        "type": "mapping(bytes32 => uint256)",
                        "value": {
                            "pairs": [
                                {
                                    "key": "0x644364b9ec9515b4bac00a5301611ec4caac10eb99ccab23f19594c7c1c01eb5",
                                    "value": {
                                        "current": "151000028",
                                        "prev": "0",
                                        "typeTag": 1
                                    }
                                }
                            ],
                            "typeTag": 4
                        }
                    },
                    {
                        "name": "_allTokens",
                        "type": "uint256[]",
                        "value": {
                            "elemType": "uint256",
                            "elems": [
                                {
                                    "index": 96512,
                                    "value": {
                                        "current": "151000028",
                                        "prev": "0",
                                        "typeTag": 1
                                    }
                                }
                            ],
                            "typeTag": 2
                        }
                    },
                    {
                        "name": "tokenIdToHash",
                        "type": "mapping(uint256 => bytes32)",
                        "value": {
                            "pairs": [
                                {
                                    "key": "151000028",
                                    "value": {
                                        "current": "0x644364b9ec9515b4bac00a5301611ec4caac10eb99ccab23f19594c7c1c01eb5",
                                        "prev": "0x0000000000000000000000000000000000000000000000000000000000000000",
                                        "typeTag": 1
                                    }
                                }
                            ],
                            "typeTag": 4
                        }
                    },
                    {
                        "name": "_tokenOwner",
                        "type": "mapping(uint256 => address)",
                        "value": {
                            "pairs": [
                                {
                                    "key": "151000028",
                                    "value": {
                                        "current": "0xbab2dceec76271910fead12e649c4cb47045c3cc",
                                        "prev": "0x0000000000000000000000000000000000000000",
                                        "typeTag": 1
                                    }
                                }
                            ],
                            "typeTag": 4
                        }
                    },
                    {
                        "name": "_ownedTokensCount",
                        "type": "mapping(address => struct Counters.Counter)",
                        "value": {
                            "pairs": [
                                {
                                    "key": "0xbab2dceec76271910fead12e649c4cb47045c3cc",
                                    "value": {
                                        "fields": [
                                            {
                                                "name": "_value",
                                                "type": "uint256",
                                                "value": {
                                                    "current": "2",
                                                    "prev": "1",
                                                    "typeTag": 1
                                                }
                                            }
                                        ],
                                        "typeTag": 3
                                    }
                                }
                            ],
                            "typeTag": 4
                        }
                    },
                    {
                        "name": "projectIdToTokenIds",
                        "type": "mapping(uint256 => uint256[])",
                        "value": {
                            "pairs": [
                                {
                                    "key": "151",
                                    "value": {
                                        "elemType": "uint256",
                                        "elems": [
                                            {
                                                "index": 28,
                                                "value": {
                                                    "current": "151000028",
                                                    "prev": "0",
                                                    "typeTag": 1
                                                }
                                            }
                                        ],
                                        "typeTag": 2
                                    }
                                }
                            ],
                            "typeTag": 4
                        }
                    },
                    {
                        "name": "_ownedTokens",
                        "type": "mapping(address => uint256[])",
                        "value": {
                            "pairs": [
                                {
                                    "key": "0xbab2dceec76271910fead12e649c4cb47045c3cc",
                                    "value": {
                                        "elemType": "uint256",
                                        "elems": [
                                            {
                                                "index": 1,
                                                "value": {
                                                    "current": "151000028",
                                                    "prev": "0",
                                                    "typeTag": 1
                                                }
                                            }
                                        ],
                                        "typeTag": 2
                                    }
                                }
                            ],
                            "typeTag": 4
                        }
                    },
                    {
                        "name": "projects",
                        "type": "mapping(uint256 => struct GenArt721Core.Project)",
                        "value": {
                            "pairs": [
                                {
                                    "key": "151",
                                    "value": {
                                        "fields": [
                                            {
                                                "name": "description",
                                                "type": "string",
                                                "value": {
                                                    "current": "At the shoreline, waves wash over the sand, sorting and tumbling the grains into troughs and valleys. Each wash of water alters the microcosmic landscape in an infinitesimal loop. Inspired by the unfathomable mathematics of this natural phenomena, we invite you to plunge into the purity of movement and transformation through the medium of ones and zeros. The palette and pixels are regulated by an algorithm designed to mimic the textures, colours and gradients of the high tide beach, while the edition of 745 reflects the number of minutes in a full tidal cycle. Keyboard controls: P=pause, F=fast forward. [Drop Mechanic: Dutch Auction. Mint Price: 10\u039e start price and 0.25\u039e resting price. Price decreases every 5 minutes. Pricing Tiers: 10\u039e > 8\u039e > 6\u039e > 5\u039e > 4\u039e > 3.5\u039e > 3\u039e > 2.5\u039e > 2\u039e > 1.75\u039e > 1.5\u039e > 1.25\u039e > 0.75\u039e > 0.5\u039e > 0.25\u039e]",
                                                    "prev": "At the shoreline, waves wash over the sand, sorting and tumbling the grains into troughs and valleys. Each wash of water alters the microcosmic landscape in an infinitesimal loop. Inspired by the unfathomable mathematics of this natural phenomena, we invite you to plunge into the purity of movement and transformation through the medium of ones and zeros. The palette and pixels are regulated by an algorithm designed to mimic the textures, colours and gradients of the high tide beach, while the edition of 745 reflects the number of minutes in a full tidal cycle. Keyboard controls: P=pause, F=fast forward. [Drop Mechanic: Dutch Auction. Mint Price: 10\u039e start price and 0.25\u039e resting price. Price decreases every 5 minutes. Pricing Tiers: 10\u039e > 8\u039e > 6\u039e > 5\u039e > 4\u039e > 3.5\u039e > 3\u039e > 2.5\u039e > 2\u039e > 1.75\u039e > 1.5\u039e > 1.25\u039e > 0.75\u039e > 0.5\u039e > 0.25\u039e]",
                                                    "typeTag": 1
                                                }
                                            },
                                            {
                                                "name": "invocations",
                                                "type": "uint256",
                                                "value": {
                                                    "current": "29",
                                                    "prev": "28",
                                                    "typeTag": 1
                                                }
                                            },
                                            {
                                                "name": "scriptJSON",
                                                "type": "string",
                                                "value": {
                                                    "current": "{\"type\":\"p5js\",\"aspectRatio\":\"1\",\"animationLengthInSeconds\":\"19\",\"interactive\":\"true\"}",
                                                    "prev": "{\"type\":\"p5js\",\"aspectRatio\":\"1\",\"animationLengthInSeconds\":\"19\",\"interactive\":\"true\"}",
                                                    "typeTag": 1
                                                }
                                            }
                                        ],
                                        "typeTag": 3
                                    }
                                }
                            ],
                            "typeTag": 4
                        }
                    },
                    {
                        "name": "_allTokensIndex",
                        "type": "mapping(uint256 => uint256)",
                        "value": {
                            "pairs": [
                                {
                                    "key": "151000028",
                                    "value": {
                                        "current": "96512",
                                        "prev": "0",
                                        "typeTag": 1
                                    }
                                }
                            ],
                            "typeTag": 4
                        }
                    }
                ]
            }
        ]
    }
}