{
    "balance_change": {
        "balanceChanges": [
            {
                "account": "0x8ec2b87953099a120449effc8d00485c14cad13a",
                "assets": [
                    {
                        "address": "0xeeeeeeeeeeeeeeeeeeeeeeeeeeeeeeeeeeeeeeee",
                        "amount": "0.386671455740740741",
                        "iconUrl": "https://assets.blocksec.com/image/1663669189317-3.png",
                        "isERC1155": false,
                        "isERC721": false,
                        "sign": false,
                        "value": ""
                    }
                ]
            },
            {
                "account": "0xae1e3e7c920f7ed0f850701988059dc209d60257",
                "assets": [
                    {
                        "address": "0xeeeeeeeeeeeeeeeeeeeeeeeeeeeeeeeeeeeeeeee",
                        "amount": "0.019333572787037037",
                        "iconUrl": "https://assets.blocksec.com/image/1663669189317-3.png",
                        "isERC1155": false,
                        "isERC721": false,
                        "sign": true,
                        "value": ""
                    }
                ]
            },
            {
                "account": "0xf915bbfbb6c097dc327e64eec55e9ef4d110d627",
                "assets": [
                    {
                        "address": "0xeeeeeeeeeeeeeeeeeeeeeeeeeeeeeeeeeeeeeeee",
                        "amount": "0.367337882953703704",
                        "iconUrl": "https://assets.blocksec.com/image/1663669189317-3.png",
                        "isERC1155": false,
                        "isERC721": false,
                        "sign": true,
                        "value": ""
                    }
                ]
            }
        ]
    },
    "profile": {
        "basic_info": {
            "baseFee": "",
            "blockNumber": 10425841,
            "callData": "0x454a2ab3000000000000000000000000000000000000000000000000000000000000850b",
            "debugEnable": true,
            "errorInfo": "",
            "eventCount": 2,
            "feeRecipient": "0x829bd824b016326a401d083b33d092293333a830",
            "formatValue": "0.387495012654321",
            "gasLimit": 200000,
            "gasPrice": "45.022006989",
            "gasUsed": 66112,
            "intTxnCount": 3,
            "internalRevert": false,
            "internalRevertMessage": "",
            "isContractCreation": false,
            "isFlashloan": false,
            "maxFee": "",
            "nonce": 1406,
            "overwritedBlockNumber": -1,
            "priorityFee": "",
            "receiver": "0xae1e3e7c920f7ed0f850701988059dc209d60257",
            "revertMessage": "",
            "sender": "0x8ec2b87953099a120449effc8d00485c14cad13a",
            "simulationEnable": true,
            "sourceTxnHash": "0xd5630dcde6bffbebc713e1f22cb5793aa724726e3366799f76fa133dd4cfef0f",
            "status": true,
            "timestamp": "2020-07-09T14:33:18Z",
            "transactionFee": "0.002976494926056768",
            "txnHash": "0xd5630dcde6bffbebc713e1f22cb5793aa724726e3366799f76fa133dd4cfef0f",
            "txnIndex": 160,
            "type": 0,
            "value": "387495012654321000"
        },
        "fund_flow": [
            {
                "amount": "0.387495012654321",
                "from": "0x8ec2b87953099a120449effc8d00485c14cad13a",
                "id": 1,
                "isERC1155": false,
                "isERC721": false,
                "isReverted": false,
                "order": 1,
                "to": "0xae1e3e7c920f7ed0f850701988059dc209d60257",
                "token": "0xeeeeeeeeeeeeeeeeeeeeeeeeeeeeeeeeeeeeeeee"
            },
            {
                "amount": "0.367337882953703704",
                "from": "0xae1e3e7c920f7ed0f850701988059dc209d60257",
                "id": 2,
                "isERC1155": false,
                "isERC721": false,
                "isReverted": false,
                "order": 2,
                "to": "0xf915bbfbb6c097dc327e64eec55e9ef4d110d627",
                "token": "0xeeeeeeeeeeeeeeeeeeeeeeeeeeeeeeeeeeeeeeee"
            },
            {
                "amount": "0.000823556913580259",
                "from": "0xae1e3e7c920f7ed0f850701988059dc209d60257",
                "id": 3,
                "isERC1155": false,
                "isERC721": false,
                "isReverted": false,
                "order": 3,
                "to": "0x8ec2b87953099a120449effc8d00485c14cad13a",
                "token": "0xeeeeeeeeeeeeeeeeeeeeeeeeeeeeeeeeeeeeeeee"
            }
        ],
        "token_infos": [
            {
                "address": "0xc02aaa39b223fe8d0a0e5c4f27ead9083c756cc2",
                "decimals": 18
            },
            {
                "address": "0xeeeeeeeeeeeeeeeeeeeeeeeeeeeeeeeeeeeeeeee",
                "decimals": 18
            }
        ]
    },
    "address_label": {
        "labels": [
            {
                "address": "0xf915bbfbb6c097dc327e64eec55e9ef4d110d627",
                "label": "Servant (SVT)"
            },
            {
                "address": "0x0000000000000000000000000000000000000001",
                "label": "Precompiled"
            },
            {
                "address": "0x0000000000000000000000000000000000000002",
                "label": "Precompiled"
            },
            {
                "address": "0x0000000000000000000000000000000000000003",
                "label": "Precompiled"
            },
            {
                "address": "0x0000000000000000000000000000000000000004",
                "label": "Precompiled"
            },
            {
                "address": "0xeeeeeeeeeeeeeeeeeeeeeeeeeeeeeeeeeeeeeeee",
                "label": "Ether"
            }
        ]
    },
    "trace": {
        "accountLabels": null,
        "dataMap": {
            "-1": {
                "invocation": {
                    "address": "0x8ec2b87953099a120449effc8d00485c14cad13a",
                    "callData": "",
                    "decodedMethod": null,
                    "errorInfo": "",
                    "fromAddress": "",
                    "gasUsed": 0,
                    "id": -1,
                    "methodDecoded": false,
                    "operation": "",
                    "output": "",
                    "revert": false,
                    "revertMessage": "",
                    "selector": "",
                    "status": false,
                    "value": ""
                },
                "nodeType": 0
            },
            "0": {
                "invocation": {
                    "address": "0xae1e3e7c920f7ed0f850701988059dc209d60257",
                    "callData": "0x000000000000000000000000000000000000000000000000000000000000850b",
                    "decodedMethod": {
                        "callParams": [
                            {
                                "name": "auctionId",
                                "type": "uint256",
                                "value": "34,059"
                            }
                        ],
                        "constructorArguments": "",
                        "name": "bid",
                        "returnParams": [],
                        "signature": "bid(uint256)"
                    },
                    "errorInfo": "",
                    "fromAddress": "0x8ec2b87953099a120449effc8d00485c14cad13a",
                    "gasUsed": 66112,
                    "id": 0,
                    "methodDecoded": true,
                    "operation": "CALL",
                    "output": "",
                    "revert": false,
                    "revertMessage": "",
                    "selector": "0x454a2ab3",
                    "status": true,
                    "value": "0.387495012654321"
                },
                "nodeType": 0
            },
            "1": {
                "invocation": {
                    "address": "0xf915bbfbb6c097dc327e64eec55e9ef4d110d627",
                    "callData": "0x",
                    "decodedMethod": null,
                    "errorInfo": "",
                    "fromAddress": "0xae1e3e7c920f7ed0f850701988059dc209d60257",
                    "gasUsed": 960,
                    "id": 1,
                    "methodDecoded": false,
                    "operation": "CALL",
                    "output": "",
                    "revert": false,
                    "revertMessage": "",
                    "selector": "fallback",
                    "status": true,
                    "value": "0.367337882953703704"
                },
                "nodeType": 0
            },
            "2": {
                "invocation": {
                    "address": "0x8ec2b87953099a120449effc8d00485c14cad13a",
                    "callData": "0x",
                    "decodedMethod": null,
                    "errorInfo": "",
                    "fromAddress": "0xae1e3e7c920f7ed0f850701988059dc209d60257",
                    "gasUsed": 0,
                    "id": 2,
                    "methodDecoded": false,
                    "operation": "CALL",
                    "output": "",
                    "revert": false,
                    "revertMessage": "",
                    "selector": "fallback",
                    "status": true,
                    "value": "0.000823556913580259"
                },
                "nodeType": 0
            },
            "3": {
                "event": {
                    "contract": "0xae1e3e7c920f7ed0f850701988059dc209d60257",
                    "decodedLog": null,
                    "id": 3,
                    "logData": "0x000000000000000000000000000000000000000000000000000000000000850b00000000000000000000000000000000000000000000000005190bdbb9ffe1180000000000000000000000000000000000000000000000000044afc83235e36d0000000000000000000000008ec2b87953099a120449effc8d00485c14cad13a000000000000000000000000f915bbfbb6c097dc327e64eec55e9ef4d110d627",
                    "logDecoded": false,
                    "operation": "EVENT",
                    "revert": false,
                    "status": true,
                    "topics": [
                        "0x58acf5142cf3c1142a47df82b24df03444dab0e72336122ece2bfc3186c89cd8"
                    ]
                },
                "nodeType": 1
            },
            "4": {
                "invocation": {
                    "address": "0xf915bbfbb6c097dc327e64eec55e9ef4d110d627",
                    "callData": "0x0000000000000000000000008ec2b87953099a120449effc8d00485c14cad13a000000000000000000000000000000000000000000000000000000000000850b",
                    "decodedMethod": {
                        "callParams": [
                            {
                                "name": "_to",
                                "type": "address",
                                "value": "0x8ec2b87953099a120449effc8d00485c14cad13a"
                            },
                            {
                                "decimalAvailable": true,
                                "name": "_value",
                                "type": "uint256",
                                "value": "34,059"
                            }
                        ],
                        "constructorArguments": "",
                        "name": "transfer",
                        "returnParams": [],
                        "signature": "transfer(address,uint256)"
                    },
                    "errorInfo": "",
                    "fromAddress": "0xae1e3e7c920f7ed0f850701988059dc209d60257",
                    "gasUsed": 27604,
                    "id": 4,
                    "methodDecoded": true,
                    "operation": "CALL",
                    "output": "",
                    "revert": false,
                    "revertMessage": "",
                    "selector": "0xa9059cbb",
                    "status": true,
                    "value": "0"
                },
                "nodeType": 0
            },
            "5": {
                "event": {
                    "contract": "0xf915bbfbb6c097dc327e64eec55e9ef4d110d627",
                    "decodedLog": {
                        "name": "Transfer",
                        "params": [
                            {
                                "name": "from",
                                "type": "address",
                                "value": "0xae1e3e7c920f7ed0f850701988059dc209d60257"
                            },
                            {
                                "name": "to",
                                "type": "address",
                                "value": "0x8ec2b87953099a120449effc8d00485c14cad13a"
                            },
                            {
                                "decimalAvailable": true,
                                "name": "tokenId",
                                "type": "uint256",
                                "value": "34,059"
                            }
                        ],
                        "signature": "Transfer(address,address,uint256)"
                    },
                    "id": 5,
                    "logData": "0x000000000000000000000000ae1e3e7c920f7ed0f850701988059dc209d602570000000000000000000000008ec2b87953099a120449effc8d00485c14cad13a000000000000000000000000000000000000000000000000000000000000850b",
                    "logDecoded": true,
                    "operation": "EVENT",
                    "revert": false,
                    "status": true,
                    "topics": [
                        "0xddf252ad1be2c89b69c2b068fc378daa952ba7f163c4a11628f55a4df523b3ef"
                    ]
                },
                "nodeType": 1
            }
        },
        "gasFlame": [
            {
                "children": [
                    {
                        "children": [
                            {
                                "children": [],
                                "depth": 0,
                                "name": "Initial Gas",
                                "value": 21216
                            },
                            {
                                "children": [
                                    {
                                        "children": [],
                                        "depth": 1,
                                        "name": "fallback",
                                        "value": 960
                                    },
                                    {
                                        "children": [],
                                        "depth": 1,
                                        "name": "fallback",
                                        "value": 0
                                    },
                                    {
                                        "children": [],
                                        "depth": 1,
                                        "name": "transfer",
                                        "value": 27604
                                    }
                                ],
                                "depth": 0,
                                "name": "Executed Gas",
                                "value": 89896
                            }
                        ],
                        "depth": -1,
                        "name": "Actual Gas Used",
                        "value": 66112
                    },
                    {
                        "children": [],
                        "depth": -1,
                        "name": "Refunded Gas",
                        "value": 45000
                    }
                ],
                "depth": -2,
                "name": "Total Gas",
                "value": 111112
            }
        ],
        "isConfirmed": true,
        "mainTrace": [
            {
                "children": [
                    {
                        "children": [
                            {
                                "children": [],
                                "depth": 1,
                                "id": 1,
                                "order": 1
                            },
                            {
                                "children": [],
                                "depth": 1,
                                "id": 2,
                                "order": 2
                            },
                            {
                                "children": [],
                                "depth": 1,
                                "id": 3,
                                "order": 3
                            },
                            {
                                "children": [
                                    {
                                        "children": [],
                                        "depth": 2,
                                        "id": 5,
                                        "order": 5
                                    }
                                ],
                                "depth": 1,
                                "id": 4,
                                "order": 4
                            }
                        ],
                        "depth": 0,
                        "id": 0,
                        "order": 0
                    }
                ],
                "depth": -1,
                "id": -1,
                "order": -1
            }
        ],
        "mainTraceNodeCount": 6,
        "parentIdMap": {
            "0": -1,
            "1": 0,
            "2": 0,
            "3": 0,
            "4": 0,
            "5": 4
        },
        "tidyTrace": [
            {
                "children": [
                    {
                        "children": [
                            {
                                "children": [],
                                "depth": 1,
                                "id": 1,
                                "order": 1
                            },
                            {
                                "children": [],
                                "depth": 1,
                                "id": 2,
                                "order": 2
                            },
                            {
                                "children": [],
                                "depth": 1,
                                "id": 3,
                                "order": 3
                            },
                            {
                                "children": [
                                    {
                                        "children": [],
                                        "depth": 2,
                                        "id": 5,
                                        "order": 5
                                    }
                                ],
                                "depth": 1,
                                "id": 4,
                                "order": 4
                            }
                        ],
                        "depth": 0,
                        "id": 0,
                        "order": 0
                    }
                ],
                "depth": -1,
                "id": -1,
                "order": -1
            }
        ],
        "tidyTraceNodeCount": 6
    },
    "state_change": {
        "stateChanges": [
            {
                "address": "0xae1e3e7c920f7ed0f850701988059dc209d60257",
                "erc": "",
                "slots": [
                    {
                        "current": "0x0000000000000000000000000000000000000000000000000000000000000000",
                        "key": "0xcb05f1501269216e3a17f6737ba3457aa7bebd571db45bddbf1f3c51567f817f",
                        "prev": "0x000000000000000004bc9a00cccd5000000000000000000011f63de5c6572000"
                    },
                    {
                        "current": "0x0000000000000000000000000000000000000000000000000000000000000000",
                        "key": "0xcb05f1501269216e3a17f6737ba3457aa7bebd571db45bddbf1f3c51567f8180",
                        "prev": "0x000000005f067cb2000000005f09d3ef000000005f06b2240000000000007e90"
                    },
                    {
                        "current": "0x000000000000000000000000000000000000000000000000055dbba3ec35c485",
                        "key": "0x0000000000000000000000000000000000000000000000000000000000000008",
                        "prev": "0x0000000000000000000000000000000000000000000000000662b4784ddee685"
                    },
                    {
                        "current": "0x0000000000000000000000000000000000000000000000000000000000002a3d",
                        "key": "0x0000000000000000000000000000000000000000000000000000000000000005",
                        "prev": "0x0000000000000000000000000000000000000000000000000000000000002a3c"
                    },
                    {
                        "current": "0x0000000000000000000000000000000000000000000000000000000000000000",
                        "key": "0xcb05f1501269216e3a17f6737ba3457aa7bebd571db45bddbf1f3c51567f817e",
                        "prev": "0x000000000000000000000000f915bbfbb6c097dc327e64eec55e9ef4d110d627"
                    }
                ],
                "storageVariables": []
            },
            {
                "address": "0xf915bbfbb6c097dc327e64eec55e9ef4d110d627",
                "erc": "",
                "slots": [
                    {
                        "current": "0x00000000000000000000000000000000000000000000000000000000000032d6",
                        "key": "0x5cbc7f185b359eded72e0181fd0a70eb6eab548e5fc7ccefce459e9e1d97c4bf",
                        "prev": "0x00000000000000000000000000000000000000000000000000000000000032d7"
                    },
                    {
                        "current": "0x00000000000000000000000000000000000000000000000000000000000000f7",
                        "key": "0x7425681de04a7fcc9eb27380bae21f05812dcde67bed82ed6e102f9bee7a64f0",
                        "prev": "0x00000000000000000000000000000000000000000000000000000000000000f6"
                    },
                    {
                        "current": "0x0000000000000000000000008ec2b87953099a120449effc8d00485c14cad13a",
                        "key": "0x5d3622ae724bc5abdb5157ebece9e28e6fd833084db4a5de718477425885a5f8",
                        "prev": "0x000000000000000000000000ae1e3e7c920f7ed0f850701988059dc209d60257"
                    }
                ],
                "storageVariables": []
            }
        ]
    }
}