{
    "balance_change": {
        "balanceChanges": [
            {
                "account": "0x478e664214598187201212ef713f709a992feff2",
                "assets": [
                    {
                        "address": "0xe66747a101bff2dba3697199dcce5b743b454759",
                        "amount": "5,943.418366",
                        "iconUrl": "",
                        "isERC1155": false,
                        "isERC721": false,
                        "sign": false,
                        "value": ""
                    }
                ]
            },
            {
                "account": "0x550625b5c7e97981336aeeaa3c0c1dfe30572eb3",
                "assets": [
                    {
                        "address": "0xe66747a101bff2dba3697199dcce5b743b454759",
                        "amount": "5,943.418366",
                        "iconUrl": "",
                        "isERC1155": false,
                        "isERC721": false,
                        "sign": true,
                        "value": ""
                    }
                ]
            }
        ]
    },
    "profile": {
        "basic_info": {
            "baseFee": "",
            "blockNumber": 9544869,
            "callData": "0xa9059cbb000000000000000000000000550625b5c7e97981336aeeaa3c0c1dfe30572eb3000000000000000000000000000000000000000000000142317fba4c0295e000",
            "debugEnable": true,
            "errorInfo": "",
            "eventCount": 1,
            "feeRecipient": "0x52bc44d5378309ee2abf1539bf71de1b7d7be3b5",
            "formatValue": "0",
            "gasLimit": 120000,
            "gasPrice": "30",
            "gasUsed": 23241,
            "intTxnCount": 0,
            "internalRevert": false,
            "internalRevertMessage": "",
            "isContractCreation": false,
            "isFlashloan": false,
            "maxFee": "",
            "nonce": 1,
            "overwritedBlockNumber": -1,
            "priorityFee": "",
            "receiver": "0xe66747a101bff2dba3697199dcce5b743b454759",
            "revertMessage": "",
            "sender": "0x478e664214598187201212ef713f709a992feff2",
            "simulationEnable": true,
            "sourceTxnHash": "0xd5e86c2e29d4652128b17fcb2695170bd2d6b32a8a292cdd674410c455e735e7",
            "status": true,
            "timestamp": "2020-02-24T07:41:22Z",
            "transactionFee": "0.00069723",
            "txnHash": "0xd5e86c2e29d4652128b17fcb2695170bd2d6b32a8a292cdd674410c455e735e7",
            "txnIndex": 24,
            "type": 0,
            "value": "0"
        },
        "fund_flow": [
            {
                "amount": "5,943.418366",
                "from": "0x478e664214598187201212ef713f709a992feff2",
                "id": 1,
                "isERC1155": false,
                "isERC721": false,
                "isReverted": false,
                "order": 1,
                "to": "0x550625b5c7e97981336aeeaa3c0c1dfe30572eb3",
                "token": "0xe66747a101bff2dba3697199dcce5b743b454759"
            }
        ],
        "token_infos": [
            {
                "address": "0xc02aaa39b223fe8d0a0e5c4f27ead9083c756cc2",
                "decimals": 18
            },
            {
                "address": "0xe66747a101bff2dba3697199dcce5b743b454759",
                "decimals": 18
            },
            {
                "address": "0xeeeeeeeeeeeeeeeeeeeeeeeeeeeeeeeeeeeeeeee",
                "decimals": 18
            }
        ]
    },
    "address_label": {
        "labels": [
            {
                "address": "0xe66747a101bff2dba3697199dcce5b743b454759",
                "label": "GateChainToken: GT token"
            },
            {
                "address": "0x0000000000000000000000000000000000000001",
                "label": "Precompiled"
            },
            {
                "address": "0x0000000000000000000000000000000000000002",
                "label": "Precompiled"
            },
            {
                "address": "0x0000000000000000000000000000000000000003",
                "label": "Precompiled"
            },
            {
                "address": "0x0000000000000000000000000000000000000004",
                "label": "Precompiled"
            },
            {
                "address": "0xeeeeeeeeeeeeeeeeeeeeeeeeeeeeeeeeeeeeeeee",
                "label": "Ether"
            }
        ]
    },
    "trace": {
        "accountLabels": null,
        "dataMap": {
            "-1": {
                "invocation": {
                    "address": "0x478e664214598187201212ef713f709a992feff2",
                    "callData": "",
                    "decodedMethod": null,
                    "errorInfo": "",
                    "fromAddress": "",
                    "gasUsed": 0,
                    "id": -1,
                    "methodDecoded": false,
                    "operation": "",
                    "output": "",
                    "revert": false,
                    "revertMessage": "",
                    "selector": "",
                    "status": false,
                    "value": ""
                },
                "nodeType": 0
            },
            "0": {
                "invocation": {
                    "address": "0xe66747a101bff2dba3697199dcce5b743b454759",
                    "callData": "0x000000000000000000000000550625b5c7e97981336aeeaa3c0c1dfe30572eb3000000000000000000000000000000000000000000000142317fba4c0295e000",
                    "decodedMethod": {
                        "callParams": [
                            {
                                "name": "to",
                                "type": "address",
                                "value": "0x550625b5c7e97981336aeeaa3c0c1dfe30572eb3"
                            },
                            {
                                "decimalAvailable": true,
                                "name": "value",
                                "type": "uint256",
                                "value": "5,943,418,366,000,000,000,000"
                            }
                        ],
                        "constructorArguments": "",
                        "name": "transfer",
                        "returnParams": [
                            {
                                "name": "success",
                                "type": "bool",
                                "value": true
                            }
                        ],
                        "signature": "transfer(address,uint256)"
                    },
                    "errorInfo": "",
                    "fromAddress": "0x478e664214598187201212ef713f709a992feff2",
                    "gasUsed": 23241,
                    "id": 0,
                    "methodDecoded": true,
                    "operation": "CALL",
                    "output": "0x0000000000000000000000000000000000000000000000000000000000000001",
                    "revert": false,
                    "revertMessage": "",
                    "selector": "0xa9059cbb",
                    "status": true,
                    "value": "0"
                },
                "nodeType": 0
            },
            "1": {
                "event": {
                    "contract": "0xe66747a101bff2dba3697199dcce5b743b454759",
                    "decodedLog": {
                        "name": "Transfer",
                        "params": [
                            {
                                "name": "from",
                                "type": "address",
                                "value": "0x478e664214598187201212ef713f709a992feff2"
                            },
                            {
                                "name": "to",
                                "type": "address",
                                "value": "0x550625b5c7e97981336aeeaa3c0c1dfe30572eb3"
                            },
                            {
                                "decimalAvailable": true,
                                "name": "value",
                                "type": "uint256",
                                "value": "5,943,418,366,000,000,000,000"
                            }
                        ],
                        "signature": "Transfer(address,address,uint256)"
                    },
                    "id": 1,
                    "logData": "0x000000000000000000000000000000000000000000000142317fba4c0295e000",
                    "logDecoded": true,
                    "operation": "EVENT",
                    "revert": false,
                    "status": true,
                    "topics": [
                        "0xddf252ad1be2c89b69c2b068fc378daa952ba7f163c4a11628f55a4df523b3ef",
                        "0x000000000000000000000000478e664214598187201212ef713f709a992feff2",
                        "0x000000000000000000000000550625b5c7e97981336aeeaa3c0c1dfe30572eb3"
                    ]
                },
                "nodeType": 1
            }
        },
        "gasFlame": [
            {
                "children": [
                    {
                        "children": [
                            {
                                "children": [],
                                "depth": 0,
                                "name": "Initial Gas",
                                "value": 21668
                            },
                            {
                                "children": [],
                                "depth": 0,
                                "name": "Executed Gas",
                                "value": 16573
                            }
                        ],
                        "depth": -1,
                        "name": "Actual Gas Used",
                        "value": 23241
                    },
                    {
                        "children": [],
                        "depth": -1,
                        "name": "Refunded Gas",
                        "value": 15000
                    }
                ],
                "depth": -2,
                "name": "Total Gas",
                "value": 38241
            }
        ],
        "isConfirmed": true,
        "mainTrace": [
            {
                "children": [
                    {
                        "children": [
                            {
                                "children": [],
                                "depth": 1,
                                "id": 1,
                                "order": 1
                            }
                        ],
                        "depth": 0,
                        "id": 0,
                        "order": 0
                    }
                ],
                "depth": -1,
                "id": -1,
                "order": -1
            }
        ],
        "mainTraceNodeCount": 2,
        "parentIdMap": {
            "0": -1,
            "1": 0
        },
        "tidyTrace": [
            {
                "children": [
                    {
                        "children": [
                            {
                                "children": [],
                                "depth": 1,
                                "id": 1,
                                "order": 1
                            }
                        ],
                        "depth": 0,
                        "id": 0,
                        "order": 0
                    }
                ],
                "depth": -1,
                "id": -1,
                "order": -1
            }
        ],
        "tidyTraceNodeCount": 2
    },
    "state_change": {
        "stateChanges": [
            {
                "address": "0xe66747a101bff2dba3697199dcce5b743b454759",
                "erc": "ERC-20",
                "slots": [
                    {
                        "current": "0x0000000000000000000000000000000000000000000000000000000000000000",
                        "key": "0x5afb2f8ee9599807aa3d8fcad8654da9c797226ccb397c27111f68ea14af8dc5",
                        "prev": "0x000000000000000000000000000000000000000000000142317fba4c0295e000"
                    },
                    {
                        "current": "0x0000000000000000000000000000000000000000000005288bcad8ebb28a7000",
                        "key": "0x2f4da01c76d7944b066223a488e7b1fedabd27651aa0647f56e3851d871e5a06",
                        "prev": "0x0000000000000000000000000000000000000000000003e65a4b1e9faff49000"
                    }
                ],
                "storageVariables": [
                    {
                        "name": "balances",
                        "type": "mapping(address => uint256)",
                        "value": {
                            "pairs": [
                                {
                                    "key": "0x478e664214598187201212ef713f709a992feff2",
                                    "value": {
                                        "current": "0",
                                        "prev": "5943418366000000000000",
                                        "typeTag": 1
                                    }
                                },
                                {
                                    "key": "0x550625b5c7e97981336aeeaa3c0c1dfe30572eb3",
                                    "value": {
                                        "current": "24359775279320000000000",
                                        "prev": "18416356913320000000000",
                                        "typeTag": 1
                                    }
                                }
                            ],
                            "typeTag": 4
                        }
                    }
                ]
            }
        ]
    }
}