{
    "balance_change": {
        "balanceChanges": []
    },
    "profile": {
        "basic_info": {
            "baseFee": "",
            "blockNumber": 11976597,
            "callData": "0x7ff36ab50000000000000000000000000000000000000000000000003004e105f49fddbe00000000000000000000000000000000000000000000000000000000000000800000000000000000000000007aa9d09a6d283f5b5ec724d7dd8fa70673553183000000000000000000000000000000000000000000000000000000006041cefc0000000000000000000000000000000000000000000000000000000000000002000000000000000000000000c02aaa39b223fe8d0a0e5c4f27ead9083c756cc200000000000000000000000041d5d79431a913c4ae7d69a668ecdfe5ff9dfb68",
            "debugEnable": true,
            "errorInfo": "execution reverted",
            "eventCount": 0,
            "feeRecipient": "0x6ebaf477f83e055589c1188bcc6ddccd8c9b131a",
            "formatValue": "2",
            "gasLimit": 141552,
            "gasPrice": "190",
            "gasUsed": 28853,
            "intTxnCount": 1,
            "internalRevert": true,
            "internalRevertMessage": "",
            "isContractCreation": false,
            "isFlashloan": false,
            "maxFee": "",
            "nonce": 1951,
            "overwritedBlockNumber": -1,
            "priorityFee": "",
            "receiver": "0x7a250d5630b4cf539739df2c5dacb4c659f2488d",
            "revertMessage": "+UniswapV2Router: INSUFFICIENT_OUTPUT_AMOUNT",
            "sender": "0x7aa9d09a6d283f5b5ec724d7dd8fa70673553183",
            "simulationEnable": true,
            "sourceTxnHash": "0xd6975cff950c84bc970d94a49ddfd43d999b2169714c5467c9804dbf1c2313fb",
            "status": false,
            "timestamp": "2021-03-05T06:06:07Z",
            "transactionFee": "0.00548207",
            "txnHash": "0xd6975cff950c84bc970d94a49ddfd43d999b2169714c5467c9804dbf1c2313fb",
            "txnIndex": 41,
            "type": 0,
            "value": "2000000000000000000"
        },
        "fund_flow": [],
        "token_infos": [
            {
                "address": "0xc02aaa39b223fe8d0a0e5c4f27ead9083c756cc2",
                "decimals": 18
            },
            {
                "address": "0xeeeeeeeeeeeeeeeeeeeeeeeeeeeeeeeeeeeeeeee",
                "decimals": 18
            }
        ]
    },
    "address_label": {
        "labels": [
            {
                "address": "0x0000000000000000000000000000000000000003",
                "label": "Precompiled"
            },
            {
                "address": "0x7a250d5630b4cf539739df2c5dacb4c659f2488d",
                "label": "Uniswap V2: Router 2"
            },
            {
                "address": "0x41d5d79431a913c4ae7d69a668ecdfe5ff9dfb68",
                "label": "Inverse Finance: INV Token"
            },
            {
                "address": "0xc02aaa39b223fe8d0a0e5c4f27ead9083c756cc2",
                "label": "Wrapped Ether (WETH)"
            },
            {
                "address": "0x73e02eaab68a41ea63bdae9dbd4b7678827b2352",
                "label": "Uniswap V2: INV 13"
            },
            {
                "address": "0x0000000000000000000000000000000000000001",
                "label": "Precompiled"
            },
            {
                "address": "0x0000000000000000000000000000000000000002",
                "label": "Precompiled"
            },
            {
                "address": "0x0000000000000000000000000000000000000004",
                "label": "Precompiled"
            },
            {
                "address": "0xeeeeeeeeeeeeeeeeeeeeeeeeeeeeeeeeeeeeeeee",
                "label": "Ether"
            }
        ]
    },
    "trace": {
        "accountLabels": null,
        "dataMap": {
            "-1": {
                "invocation": {
                    "address": "0x7aa9d09a6d283f5b5ec724d7dd8fa70673553183",
                    "callData": "",
                    "decodedMethod": null,
                    "errorInfo": "",
                    "fromAddress": "",
                    "gasUsed": 0,
                    "id": -1,
                    "methodDecoded": false,
                    "operation": "",
                    "output": "",
                    "revert": false,
                    "revertMessage": "",
                    "selector": "",
                    "status": false,
                    "value": ""
                },
                "nodeType": 0
            },
            "0": {
                "invocation": {
                    "address": "0x7a250d5630b4cf539739df2c5dacb4c659f2488d",
                    "callData": "0x0000000000000000000000000000000000000000000000003004e105f49fddbe00000000000000000000000000000000000000000000000000000000000000800000000000000000000000007aa9d09a6d283f5b5ec724d7dd8fa70673553183000000000000000000000000000000000000000000000000000000006041cefc0000000000000000000000000000000000000000000000000000000000000002000000000000000000000000c02aaa39b223fe8d0a0e5c4f27ead9083c756cc200000000000000000000000041d5d79431a913c4ae7d69a668ecdfe5ff9dfb68",
                    "decodedMethod": {
                        "callParams": [
                            {
                                "name": "amountOutMin",
                                "type": "uint256",
                                "value": "3,460,137,829,422,587,326"
                            },
                            {
                                "name": "path",
                                "type": "address[]",
                                "value": [
                                    "0xc02aaa39b223fe8d0a0e5c4f27ead9083c756cc2",
                                    "0x41d5d79431a913c4ae7d69a668ecdfe5ff9dfb68"
                                ]
                            },
                            {
                                "name": "to",
                                "type": "address",
                                "value": "0x7aa9d09a6d283f5b5ec724d7dd8fa70673553183"
                            },
                            {
                                "name": "deadline",
                                "type": "uint256",
                                "value": "1,614,925,564"
                            }
                        ],
                        "constructorArguments": "",
                        "name": "swapExactETHForTokens",
                        "returnParams": [],
                        "signature": "swapExactETHForTokens(uint256,address[],address,uint256)"
                    },
                    "errorInfo": "execution reverted",
                    "fromAddress": "0x7aa9d09a6d283f5b5ec724d7dd8fa70673553183",
                    "gasUsed": 28853,
                    "id": 0,
                    "methodDecoded": true,
                    "operation": "CALL",
                    "output": "0x08c379a00000000000000000000000000000000000000000000000000000000000000020000000000000000000000000000000000000000000000000000000000000002b556e69737761705632526f757465723a20494e53554646494349454e545f4f55545055545f414d4f554e54000000000000000000000000000000000000000000",
                    "revert": true,
                    "revertMessage": "+UniswapV2Router: INSUFFICIENT_OUTPUT_AMOUNT",
                    "selector": "0x7ff36ab5",
                    "status": false,
                    "value": "2"
                },
                "nodeType": 0
            },
            "1": {
                "invocation": {
                    "address": "0x73e02eaab68a41ea63bdae9dbd4b7678827b2352",
                    "callData": "0x",
                    "decodedMethod": {
                        "callParams": [],
                        "constructorArguments": "",
                        "name": "getReserves",
                        "returnParams": [
                            {
                                "name": "_reserve0",
                                "type": "uint112",
                                "value": "52,081,397,474,849,181,628"
                            },
                            {
                                "name": "_reserve1",
                                "type": "uint112",
                                "value": "28,359,877,160,110,833,440"
                            },
                            {
                                "name": "_blockTimestampLast",
                                "type": "uint32",
                                "value": "1,614,924,367"
                            }
                        ],
                        "signature": "getReserves()"
                    },
                    "errorInfo": "",
                    "fromAddress": "0x7a250d5630b4cf539739df2c5dacb4c659f2488d",
                    "gasUsed": 1204,
                    "id": 1,
                    "methodDecoded": true,
                    "operation": "STATICCALL",
                    "output": "0x000000000000000000000000000000000000000000000002d2c64b10764fcfbc00000000000000000000000000000000000000000000000189928605221ebf20000000000000000000000000000000000000000000000000000000006041ca4f",
                    "revert": true,
                    "revertMessage": "",
                    "selector": "0x0902f1ac",
                    "status": true,
                    "value": "0"
                },
                "nodeType": 0
            }
        },
        "gasFlame": [
            {
                "children": [
                    {
                        "children": [
                            {
                                "children": [],
                                "depth": 0,
                                "name": "Initial Gas",
                                "value": 22848
                            },
                            {
                                "children": [
                                    {
                                        "children": [],
                                        "depth": 1,
                                        "name": "getReserves",
                                        "value": 1204
                                    }
                                ],
                                "depth": 0,
                                "name": "Executed Gas",
                                "value": 6005
                            }
                        ],
                        "depth": -1,
                        "name": "Actual Gas Used",
                        "value": 28853
                    },
                    {
                        "children": [],
                        "depth": -1,
                        "name": "Refunded Gas",
                        "value": 0
                    }
                ],
                "depth": -2,
                "name": "Total Gas",
                "value": 28853
            }
        ],
        "isConfirmed": true,
        "mainTrace": [
            {
                "children": [
                    {
                        "children": [
                            {
                                "children": [],
                                "depth": 1,
                                "id": 1,
                                "order": 1
                            }
                        ],
                        "depth": 0,
                        "id": 0,
                        "order": 0
                    }
                ],
                "depth": -1,
                "id": -1,
                "order": -1
            }
        ],
        "mainTraceNodeCount": 2,
        "parentIdMap": {
            "0": -1,
            "1": 0
        },
        "tidyTrace": [
            {
                "children": [
                    {
                        "children": [],
                        "depth": 0,
                        "id": 0,
                        "order": 0
                    }
                ],
                "depth": -1,
                "id": -1,
                "order": -1
            }
        ],
        "tidyTraceNodeCount": 1
    },
    "state_change": {
        "stateChanges": []
    }
}