{
    "balance_change": {
        "balanceChanges": [
            {
                "account": "0xd723159c92639c6ac355343ba2f1fa62e1d3fdb0",
                "assets": [
                    {
                        "address": "0xdac17f958d2ee523a2206206994597c13d831ec7",
                        "amount": "84.59421",
                        "iconUrl": "https://assets.blocksec.com/icon/fcea71f3193ce895be44bfdf941f7e4c9381dd587f273c2d1a27f1263d84e4ea.png",
                        "isERC1155": false,
                        "isERC721": false,
                        "sign": false,
                        "value": "84.67880421"
                    }
                ]
            },
            {
                "account": "0x92e929d8b2c8430bcaf4cd87654789578bb2b786",
                "assets": [
                    {
                        "address": "0xdac17f958d2ee523a2206206994597c13d831ec7",
                        "amount": "84.59421",
                        "iconUrl": "https://assets.blocksec.com/icon/fcea71f3193ce895be44bfdf941f7e4c9381dd587f273c2d1a27f1263d84e4ea.png",
                        "isERC1155": false,
                        "isERC721": false,
                        "sign": true,
                        "value": "84.67880421"
                    }
                ]
            }
        ]
    },
    "profile": {
        "basic_info": {
            "baseFee": "32.968452354",
            "blockNumber": 17063749,
            "callData": "0x9ddf93bb000000000000000000000000dac17f958d2ee523a2206206994597c13d831ec700000000000000000000000000000000000000000000000000000000000000a000000000000000000000000000000000000000000000000000000000000000e000000000000000000000000000000000000000000000000000000000050ace220000000000000000000000000000000000000000000000048e4b93175b25b00000000000000000000000000000000000000000000000000000000000000000105553445428425343297c64396131356600000000000000000000000000000000000000000000000000000000000000000000000000000000000000000000002a30786437323331353963393236333963366163333535333433626132663166613632653164336664623000000000000000000000000000000000000000000000",
            "debugEnable": true,
            "errorInfo": "",
            "eventCount": 2,
            "feeRecipient": "0x388c818ca8b9251b393131c08a736a67ccb19297",
            "formatValue": "0",
            "gasLimit": 150000,
            "gasPrice": "33.714180301",
            "gasUsed": 64853,
            "intTxnCount": 3,
            "internalRevert": false,
            "internalRevertMessage": "",
            "isContractCreation": false,
            "isFlashloan": false,
            "maxFee": "",
            "nonce": 11,
            "overwritedBlockNumber": -1,
            "priorityFee": "",
            "receiver": "0x92e929d8b2c8430bcaf4cd87654789578bb2b786",
            "revertMessage": "",
            "sender": "0xd723159c92639c6ac355343ba2f1fa62e1d3fdb0",
            "simulationEnable": true,
            "sourceTxnHash": "0xd6420930ddc19179d18663e41d1ca2522dab1764d06237a6ecd1b6bd7fc97694",
            "status": true,
            "timestamp": "2023-04-17T03:07:35Z",
            "transactionFee": "0.002186465735060753",
            "txnHash": "0xd6420930ddc19179d18663e41d1ca2522dab1764d06237a6ecd1b6bd7fc97694",
            "txnIndex": 21,
            "type": 0,
            "value": "0"
        },
        "fund_flow": [
            {
                "amount": "84.59421",
                "from": "0xd723159c92639c6ac355343ba2f1fa62e1d3fdb0",
                "id": 1,
                "isERC1155": false,
                "isERC721": false,
                "isReverted": false,
                "order": 1,
                "to": "0x92e929d8b2c8430bcaf4cd87654789578bb2b786",
                "token": "0xdac17f958d2ee523a2206206994597c13d831ec7"
            }
        ],
        "token_infos": [
            {
                "address": "0xc02aaa39b223fe8d0a0e5c4f27ead9083c756cc2",
                "decimals": 18
            },
            {
                "address": "0xdac17f958d2ee523a2206206994597c13d831ec7",
                "decimals": 6
            },
            {
                "address": "0xeeeeeeeeeeeeeeeeeeeeeeeeeeeeeeeeeeeeeeee",
                "decimals": 18
            }
        ]
    },
    "address_label": {
        "labels": [
            {
                "address": "0x0000000000000000000000000000000000000002",
                "label": "Precompiled"
            },
            {
                "address": "0x0000000000000000000000000000000000000003",
                "label": "Precompiled"
            },
            {
                "address": "0x0000000000000000000000000000000000000004",
                "label": "Precompiled"
            },
            {
                "address": "0xeeeeeeeeeeeeeeeeeeeeeeeeeeeeeeeeeeeeeeee",
                "label": "Ether"
            },
            {
                "address": "0x92e929d8b2c8430bcaf4cd87654789578bb2b786",
                "label": "SWFT Swap"
            },
            {
                "address": "0xdac17f958d2ee523a2206206994597c13d831ec7",
                "label": "Tether: USDT Stablecoin"
            },
            {
                "address": "0x388c818ca8b9251b393131c08a736a67ccb19297",
                "label": "LidoExecutionLayerRewardsVault"
            },
            {
                "address": "0x0000000000000000000000000000000000000001",
                "label": "Precompiled"
            }
        ]
    },
    "trace": {
        "accountLabels": null,
        "dataMap": {
            "-1": {
                "invocation": {
                    "address": "0xd723159c92639c6ac355343ba2f1fa62e1d3fdb0",
                    "callData": "",
                    "decodedMethod": null,
                    "errorInfo": "",
                    "fromAddress": "",
                    "gasUsed": 0,
                    "id": -1,
                    "methodDecoded": false,
                    "operation": "",
                    "output": "",
                    "revert": false,
                    "revertMessage": "",
                    "selector": "",
                    "status": false,
                    "value": ""
                },
                "nodeType": 0
            },
            "0": {
                "invocation": {
                    "address": "0x92e929d8b2c8430bcaf4cd87654789578bb2b786",
                    "callData": "0x000000000000000000000000dac17f958d2ee523a2206206994597c13d831ec700000000000000000000000000000000000000000000000000000000000000a000000000000000000000000000000000000000000000000000000000000000e000000000000000000000000000000000000000000000000000000000050ace220000000000000000000000000000000000000000000000048e4b93175b25b00000000000000000000000000000000000000000000000000000000000000000105553445428425343297c64396131356600000000000000000000000000000000000000000000000000000000000000000000000000000000000000000000002a30786437323331353963393236333963366163333535333433626132663166613632653164336664623000000000000000000000000000000000000000000000",
                    "decodedMethod": {
                        "callParams": [
                            {
                                "name": "fromToken",
                                "type": "address",
                                "value": "0xdac17f958d2ee523a2206206994597c13d831ec7"
                            },
                            {
                                "name": "toToken",
                                "type": "string",
                                "value": "USDT(BSC)|d9a15f"
                            },
                            {
                                "name": "destination",
                                "type": "string",
                                "value": "0xd723159c92639c6ac355343ba2f1fa62e1d3fdb0"
                            },
                            {
                                "name": "fromAmount",
                                "type": "uint256",
                                "value": "84,594,210"
                            },
                            {
                                "name": "minReturnAmount",
                                "type": "uint256",
                                "value": "84,040,427,000,000,000,000"
                            }
                        ],
                        "constructorArguments": "",
                        "name": "swap",
                        "returnParams": [],
                        "signature": "swap(address,string,string,uint256,uint256)"
                    },
                    "errorInfo": "",
                    "fromAddress": "0xd723159c92639c6ac355343ba2f1fa62e1d3fdb0",
                    "gasUsed": 64853,
                    "id": 0,
                    "methodDecoded": true,
                    "operation": "CALL",
                    "output": "",
                    "revert": false,
                    "revertMessage": "",
                    "selector": "0x9ddf93bb",
                    "status": true,
                    "value": "0"
                },
                "nodeType": 0
            },
            "1": {
                "invocation": {
                    "address": "0xdac17f958d2ee523a2206206994597c13d831ec7",
                    "callData": "0x00000000000000000000000092e929d8b2c8430bcaf4cd87654789578bb2b786",
                    "decodedMethod": {
                        "callParams": [
                            {
                                "name": "who",
                                "type": "address",
                                "value": "0x92e929d8b2c8430bcaf4cd87654789578bb2b786"
                            }
                        ],
                        "constructorArguments": "",
                        "name": "balanceOf",
                        "returnParams": [
                            {
                                "decimalAvailable": true,
                                "name": "",
                                "type": "uint256",
                                "value": "31,386,960,138"
                            }
                        ],
                        "signature": "balanceOf(address)"
                    },
                    "errorInfo": "",
                    "fromAddress": "0x92e929d8b2c8430bcaf4cd87654789578bb2b786",
                    "gasUsed": 5031,
                    "id": 1,
                    "methodDecoded": true,
                    "operation": "STATICCALL",
                    "output": "0x000000000000000000000000000000000000000000000000000000074ecf010a",
                    "revert": false,
                    "revertMessage": "",
                    "selector": "0x70a08231",
                    "status": true,
                    "value": "0"
                },
                "nodeType": 0
            },
            "2": {
                "invocation": {
                    "address": "0xdac17f958d2ee523a2206206994597c13d831ec7",
                    "callData": "0x000000000000000000000000d723159c92639c6ac355343ba2f1fa62e1d3fdb000000000000000000000000092e929d8b2c8430bcaf4cd87654789578bb2b78600000000000000000000000000000000000000000000000000000000050ace22",
                    "decodedMethod": {
                        "callParams": [
                            {
                                "name": "_from",
                                "type": "address",
                                "value": "0xd723159c92639c6ac355343ba2f1fa62e1d3fdb0"
                            },
                            {
                                "name": "_to",
                                "type": "address",
                                "value": "0x92e929d8b2c8430bcaf4cd87654789578bb2b786"
                            },
                            {
                                "decimalAvailable": true,
                                "name": "_value",
                                "type": "uint256",
                                "value": "84,594,210"
                            }
                        ],
                        "constructorArguments": "",
                        "name": "transferFrom",
                        "returnParams": [],
                        "signature": "transferFrom(address,address,uint256)"
                    },
                    "errorInfo": "",
                    "fromAddress": "0x92e929d8b2c8430bcaf4cd87654789578bb2b786",
                    "gasUsed": 22530,
                    "id": 2,
                    "methodDecoded": true,
                    "operation": "CALL",
                    "output": "",
                    "revert": false,
                    "revertMessage": "",
                    "selector": "0x23b872dd",
                    "status": true,
                    "value": "0"
                },
                "nodeType": 0
            },
            "3": {
                "event": {
                    "contract": "0xdac17f958d2ee523a2206206994597c13d831ec7",
                    "decodedLog": {
                        "name": "Transfer",
                        "params": [
                            {
                                "name": "from",
                                "type": "address",
                                "value": "0xd723159c92639c6ac355343ba2f1fa62e1d3fdb0"
                            },
                            {
                                "name": "to",
                                "type": "address",
                                "value": "0x92e929d8b2c8430bcaf4cd87654789578bb2b786"
                            },
                            {
                                "decimalAvailable": true,
                                "name": "value",
                                "type": "uint256",
                                "value": "84,594,210"
                            }
                        ],
                        "signature": "Transfer(address,address,uint256)"
                    },
                    "id": 3,
                    "logData": "0x00000000000000000000000000000000000000000000000000000000050ace22",
                    "logDecoded": true,
                    "operation": "EVENT",
                    "revert": false,
                    "status": true,
                    "topics": [
                        "0xddf252ad1be2c89b69c2b068fc378daa952ba7f163c4a11628f55a4df523b3ef",
                        "0x000000000000000000000000d723159c92639c6ac355343ba2f1fa62e1d3fdb0",
                        "0x00000000000000000000000092e929d8b2c8430bcaf4cd87654789578bb2b786"
                    ]
                },
                "nodeType": 1
            },
            "4": {
                "invocation": {
                    "address": "0xdac17f958d2ee523a2206206994597c13d831ec7",
                    "callData": "0x00000000000000000000000092e929d8b2c8430bcaf4cd87654789578bb2b786",
                    "decodedMethod": {
                        "callParams": [
                            {
                                "name": "who",
                                "type": "address",
                                "value": "0x92e929d8b2c8430bcaf4cd87654789578bb2b786"
                            }
                        ],
                        "constructorArguments": "",
                        "name": "balanceOf",
                        "returnParams": [
                            {
                                "decimalAvailable": true,
                                "name": "",
                                "type": "uint256",
                                "value": "31,471,554,348"
                            }
                        ],
                        "signature": "balanceOf(address)"
                    },
                    "errorInfo": "",
                    "fromAddress": "0x92e929d8b2c8430bcaf4cd87654789578bb2b786",
                    "gasUsed": 1031,
                    "id": 4,
                    "methodDecoded": true,
                    "operation": "STATICCALL",
                    "output": "0x0000000000000000000000000000000000000000000000000000000753d9cf2c",
                    "revert": false,
                    "revertMessage": "",
                    "selector": "0x70a08231",
                    "status": true,
                    "value": "0"
                },
                "nodeType": 0
            },
            "5": {
                "event": {
                    "contract": "0x92e929d8b2c8430bcaf4cd87654789578bb2b786",
                    "decodedLog": {
                        "name": "Swap",
                        "params": [
                            {
                                "name": "fromToken",
                                "type": "address",
                                "value": "0xdac17f958d2ee523a2206206994597c13d831ec7"
                            },
                            {
                                "name": "toToken",
                                "type": "string",
                                "value": "USDT(BSC)|d9a15f"
                            },
                            {
                                "name": "sender",
                                "type": "address",
                                "value": "0xd723159c92639c6ac355343ba2f1fa62e1d3fdb0"
                            },
                            {
                                "name": "destination",
                                "type": "string",
                                "value": "0xd723159c92639c6ac355343ba2f1fa62e1d3fdb0"
                            },
                            {
                                "name": "fromAmount",
                                "type": "uint256",
                                "value": "84,594,210"
                            },
                            {
                                "name": "minReturnAmount",
                                "type": "uint256",
                                "value": "84,040,427,000,000,000,000"
                            }
                        ],
                        "signature": "Swap(address,string,address,string,uint256,uint256)"
                    },
                    "id": 5,
                    "logData": "0x000000000000000000000000dac17f958d2ee523a2206206994597c13d831ec700000000000000000000000000000000000000000000000000000000000000c0000000000000000000000000d723159c92639c6ac355343ba2f1fa62e1d3fdb0000000000000000000000000000000000000000000000000000000000000010000000000000000000000000000000000000000000000000000000000050ace220000000000000000000000000000000000000000000000048e4b93175b25b00000000000000000000000000000000000000000000000000000000000000000105553445428425343297c64396131356600000000000000000000000000000000000000000000000000000000000000000000000000000000000000000000002a30786437323331353963393236333963366163333535333433626132663166613632653164336664623000000000000000000000000000000000000000000000",
                    "logDecoded": true,
                    "operation": "EVENT",
                    "revert": false,
                    "status": true,
                    "topics": [
                        "0x45f377f845e1cc76ae2c08f990e15d58bcb732db46f92a4852b956580c3a162f"
                    ]
                },
                "nodeType": 1
            }
        },
        "gasFlame": [
            {
                "children": [
                    {
                        "children": [
                            {
                                "children": [],
                                "depth": 0,
                                "name": "Initial Gas",
                                "value": 23472
                            },
                            {
                                "children": [
                                    {
                                        "children": [],
                                        "depth": 1,
                                        "name": "balanceOf",
                                        "value": 5031
                                    },
                                    {
                                        "children": [],
                                        "depth": 1,
                                        "name": "transferFrom",
                                        "value": 22530
                                    },
                                    {
                                        "children": [],
                                        "depth": 1,
                                        "name": "balanceOf",
                                        "value": 1031
                                    }
                                ],
                                "depth": 0,
                                "name": "Executed Gas",
                                "value": 44181
                            }
                        ],
                        "depth": -1,
                        "name": "Actual Gas Used",
                        "value": 64853
                    },
                    {
                        "children": [],
                        "depth": -1,
                        "name": "Refunded Gas",
                        "value": 2800
                    }
                ],
                "depth": -2,
                "name": "Total Gas",
                "value": 67653
            }
        ],
        "isConfirmed": true,
        "mainTrace": [
            {
                "children": [
                    {
                        "children": [
                            {
                                "children": [],
                                "depth": 1,
                                "id": 1,
                                "order": 1
                            },
                            {
                                "children": [
                                    {
                                        "children": [],
                                        "depth": 2,
                                        "id": 3,
                                        "order": 3
                                    }
                                ],
                                "depth": 1,
                                "id": 2,
                                "order": 2
                            },
                            {
                                "children": [],
                                "depth": 1,
                                "id": 4,
                                "order": 4
                            },
                            {
                                "children": [],
                                "depth": 1,
                                "id": 5,
                                "order": 5
                            }
                        ],
                        "depth": 0,
                        "id": 0,
                        "order": 0
                    }
                ],
                "depth": -1,
                "id": -1,
                "order": -1
            }
        ],
        "mainTraceNodeCount": 6,
        "parentIdMap": {
            "0": -1,
            "1": 0,
            "2": 0,
            "3": 2,
            "4": 0,
            "5": 0
        },
        "tidyTrace": [
            {
                "children": [
                    {
                        "children": [
                            {
                                "children": [
                                    {
                                        "children": [],
                                        "depth": 2,
                                        "id": 3,
                                        "order": 3
                                    }
                                ],
                                "depth": 1,
                                "id": 2,
                                "order": 2
                            },
                            {
                                "children": [],
                                "depth": 1,
                                "id": 5,
                                "order": 5
                            }
                        ],
                        "depth": 0,
                        "id": 0,
                        "order": 0
                    }
                ],
                "depth": -1,
                "id": -1,
                "order": -1
            }
        ],
        "tidyTraceNodeCount": 4
    },
    "state_change": {
        "stateChanges": [
            {
                "address": "0xdac17f958d2ee523a2206206994597c13d831ec7",
                "erc": "ERC-20",
                "slots": [
                    {
                        "current": "0x0000000000000000000000000000000000000000000000000000000000000008",
                        "key": "0x22c1b9ecc69d79dbb139457caaccf56d7f38eedf68d535dc24e7766bdaac31ea",
                        "prev": "0x00000000000000000000000000000000000000000000000000000000050ace2a"
                    },
                    {
                        "current": "0x0000000000000000000000000000000000000000000000000000000753d9cf2c",
                        "key": "0x582727983c27e272e36176428426ef689897b646a8f24e085a39e3e2ead7928c",
                        "prev": "0x000000000000000000000000000000000000000000000000000000074ecf010a"
                    }
                ],
                "storageVariables": [
                    {
                        "name": "balances",
                        "type": "mapping(address => uint256)",
                        "value": {
                            "pairs": [
                                {
                                    "key": "0x92e929d8b2c8430bcaf4cd87654789578bb2b786",
                                    "value": {
                                        "current": "31471554348",
                                        "prev": "31386960138",
                                        "typeTag": 1
                                    }
                                },
                                {
                                    "key": "0xd723159c92639c6ac355343ba2f1fa62e1d3fdb0",
                                    "value": {
                                        "current": "8",
                                        "prev": "84594218",
                                        "typeTag": 1
                                    }
                                }
                            ],
                            "typeTag": 4
                        }
                    }
                ]
            }
        ]
    }
}