{
    "balance_change": {
        "balanceChanges": [
            {
                "account": "0x5d9246770c7bce151d9aa1c78f564b45d6b5f5dd",
                "assets": [
                    {
                        "address": "0x495f947276749ce646f68ac8c248420045cb7b5e",
                        "amount": "1",
                        "iconUrl": "",
                        "isERC1155": true,
                        "isERC721": false,
                        "sign": false,
                        "tokenID": "42323540921494024888172020181820590965945094873908209181801352277904634937358",
                        "value": ""
                    }
                ]
            },
            {
                "account": "0xaba7161a7fb69c88e16ed9f455ce62b791ee4d03",
                "assets": [
                    {
                        "address": "0x495f947276749ce646f68ac8c248420045cb7b5e",
                        "amount": "1",
                        "iconUrl": "",
                        "isERC1155": true,
                        "isERC721": false,
                        "sign": true,
                        "tokenID": "42323540921494024888172020181820590965945094873908209181801352277904634937358",
                        "value": ""
                    }
                ]
            }
        ]
    },
    "profile": {
        "basic_info": {
            "baseFee": "8.675049399",
            "blockNumber": 15488871,
            "callData": "0xf242432a0000000000000000000000005d9246770c7bce151d9aa1c78f564b45d6b5f5dd000000000000000000000000aba7161a7fb69c88e16ed9f455ce62b791ee4d035d9246770c7bce151d9aa1c78f564b45d6b5f5dd0000000000002a000000000e000000000000000000000000000000000000000000000000000000000000000100000000000000000000000000000000000000000000000000000000000000a000000000000000000000000000000000000000000000000000000000000000000000000000000000000000000000000000000000000000000000000000000000",
            "debugEnable": true,
            "errorInfo": "",
            "eventCount": 1,
            "feeRecipient": "0xab3b229eb4bcff881275e7ea2f0fd24eeac8c83a",
            "formatValue": "0",
            "gasLimit": 87051,
            "gasPrice": "10.175049399",
            "gasUsed": 82128,
            "intTxnCount": 0,
            "internalRevert": false,
            "internalRevertMessage": "",
            "isContractCreation": false,
            "isFlashloan": false,
            "maxFee": "11.887885004",
            "nonce": 75,
            "overwritedBlockNumber": -1,
            "priorityFee": "1.5",
            "receiver": "0x495f947276749ce646f68ac8c248420045cb7b5e",
            "revertMessage": "",
            "sender": "0x5d9246770c7bce151d9aa1c78f564b45d6b5f5dd",
            "simulationEnable": true,
            "sourceTxnHash": "0xd6c9c5636cc119829fa354ccb93e425b93cc19bba88dbe2c8053bf011a38f194",
            "status": true,
            "timestamp": "2022-09-07T06:48:19Z",
            "transactionFee": "0.000835656457041072",
            "txnHash": "0xd6c9c5636cc119829fa354ccb93e425b93cc19bba88dbe2c8053bf011a38f194",
            "txnIndex": 20,
            "type": 2,
            "value": "0"
        },
        "fund_flow": [
            {
                "amount": "1",
                "from": "0x5d9246770c7bce151d9aa1c78f564b45d6b5f5dd",
                "id": 1,
                "isERC1155": true,
                "isERC721": false,
                "isReverted": false,
                "order": 1,
                "to": "0xaba7161a7fb69c88e16ed9f455ce62b791ee4d03",
                "token": "0x495f947276749ce646f68ac8c248420045cb7b5e",
                "tokenID": "42323540921494024888172020181820590965945094873908209181801352277904634937358"
            }
        ],
        "token_infos": [
            {
                "address": "0xc02aaa39b223fe8d0a0e5c4f27ead9083c756cc2",
                "decimals": 18
            },
            {
                "address": "0xeeeeeeeeeeeeeeeeeeeeeeeeeeeeeeeeeeeeeeee",
                "decimals": 18
            }
        ]
    },
    "address_label": {
        "labels": [
            {
                "address": "0x495f947276749ce646f68ac8c248420045cb7b5e",
                "label": "OpenSea: OPENSTORE Token"
            },
            {
                "address": "0xaba7161a7fb69c88e16ed9f455ce62b791ee4d03",
                "label": "Bored Ape Yacht Club: Deployer"
            },
            {
                "address": "0x0000000000000000000000000000000000000001",
                "label": "Precompiled"
            },
            {
                "address": "0x0000000000000000000000000000000000000002",
                "label": "Precompiled"
            },
            {
                "address": "0x0000000000000000000000000000000000000003",
                "label": "Precompiled"
            },
            {
                "address": "0x0000000000000000000000000000000000000004",
                "label": "Precompiled"
            },
            {
                "address": "0xeeeeeeeeeeeeeeeeeeeeeeeeeeeeeeeeeeeeeeee",
                "label": "Ether"
            }
        ]
    },
    "trace": {
        "accountLabels": null,
        "dataMap": {
            "-1": {
                "invocation": {
                    "address": "0x5d9246770c7bce151d9aa1c78f564b45d6b5f5dd",
                    "callData": "",
                    "decodedMethod": null,
                    "errorInfo": "",
                    "fromAddress": "",
                    "gasUsed": 0,
                    "id": -1,
                    "methodDecoded": false,
                    "operation": "",
                    "output": "",
                    "revert": false,
                    "revertMessage": "",
                    "selector": "",
                    "status": false,
                    "value": ""
                },
                "nodeType": 0
            },
            "0": {
                "invocation": {
                    "address": "0x495f947276749ce646f68ac8c248420045cb7b5e",
                    "callData": "0x0000000000000000000000005d9246770c7bce151d9aa1c78f564b45d6b5f5dd000000000000000000000000aba7161a7fb69c88e16ed9f455ce62b791ee4d035d9246770c7bce151d9aa1c78f564b45d6b5f5dd0000000000002a000000000e000000000000000000000000000000000000000000000000000000000000000100000000000000000000000000000000000000000000000000000000000000a000000000000000000000000000000000000000000000000000000000000000000000000000000000000000000000000000000000000000000000000000000000",
                    "decodedMethod": {
                        "callParams": [
                            {
                                "name": "from",
                                "type": "address",
                                "value": "0x5d9246770c7bce151d9aa1c78f564b45d6b5f5dd"
                            },
                            {
                                "name": "to",
                                "type": "address",
                                "value": "0xaba7161a7fb69c88e16ed9f455ce62b791ee4d03"
                            },
                            {
                                "name": "id",
                                "type": "uint256",
                                "value": "42,323,540,921,494,024,888,172,020,181,820,590,965,945,094,873,908,209,181,801,352,277,904,634,937,358"
                            },
                            {
                                "name": "amount",
                                "type": "uint256",
                                "value": "1"
                            },
                            {
                                "name": "data",
                                "type": "bytes",
                                "value": "0x"
                            }
                        ],
                        "constructorArguments": "",
                        "name": "safeTransferFrom",
                        "returnParams": [],
                        "signature": "safeTransferFrom(address,address,uint256,uint256,bytes)"
                    },
                    "errorInfo": "",
                    "fromAddress": "0x5d9246770c7bce151d9aa1c78f564b45d6b5f5dd",
                    "gasUsed": 82128,
                    "id": 0,
                    "methodDecoded": true,
                    "operation": "CALL",
                    "output": "",
                    "revert": false,
                    "revertMessage": "",
                    "selector": "0xf242432a",
                    "status": true,
                    "value": "0"
                },
                "nodeType": 0
            },
            "1": {
                "event": {
                    "contract": "0x495f947276749ce646f68ac8c248420045cb7b5e",
                    "decodedLog": {
                        "name": "TransferSingle",
                        "params": [
                            {
                                "name": "operator",
                                "type": "address",
                                "value": "0x5d9246770c7bce151d9aa1c78f564b45d6b5f5dd"
                            },
                            {
                                "name": "from",
                                "type": "address",
                                "value": "0x5d9246770c7bce151d9aa1c78f564b45d6b5f5dd"
                            },
                            {
                                "name": "to",
                                "type": "address",
                                "value": "0xaba7161a7fb69c88e16ed9f455ce62b791ee4d03"
                            },
                            {
                                "name": "id",
                                "type": "uint256",
                                "value": "42,323,540,921,494,024,888,172,020,181,820,590,965,945,094,873,908,209,181,801,352,277,904,634,937,358"
                            },
                            {
                                "name": "value",
                                "type": "uint256",
                                "value": "1"
                            }
                        ],
                        "signature": "TransferSingle(address,address,address,uint256,uint256)"
                    },
                    "id": 1,
                    "logData": "0x5d9246770c7bce151d9aa1c78f564b45d6b5f5dd0000000000002a000000000e0000000000000000000000000000000000000000000000000000000000000001",
                    "logDecoded": true,
                    "operation": "EVENT",
                    "revert": false,
                    "status": true,
                    "topics": [
                        "0xc3d58168c5ae7397731d063d5bbf3d657854427343f4c083240f7aacaa2d0f62",
                        "0x0000000000000000000000005d9246770c7bce151d9aa1c78f564b45d6b5f5dd",
                        "0x0000000000000000000000005d9246770c7bce151d9aa1c78f564b45d6b5f5dd",
                        "0x000000000000000000000000aba7161a7fb69c88e16ed9f455ce62b791ee4d03"
                    ]
                },
                "nodeType": 1
            }
        },
        "gasFlame": [
            {
                "children": [
                    {
                        "children": [
                            {
                                "children": [],
                                "depth": 0,
                                "name": "Initial Gas",
                                "value": 22728
                            },
                            {
                                "children": [],
                                "depth": 0,
                                "name": "Executed Gas",
                                "value": 62200
                            }
                        ],
                        "depth": -1,
                        "name": "Actual Gas Used",
                        "value": 82128
                    },
                    {
                        "children": [],
                        "depth": -1,
                        "name": "Refunded Gas",
                        "value": 2800
                    }
                ],
                "depth": -2,
                "name": "Total Gas",
                "value": 84928
            }
        ],
        "isConfirmed": true,
        "mainTrace": [
            {
                "children": [
                    {
                        "children": [
                            {
                                "children": [],
                                "depth": 1,
                                "id": 1,
                                "order": 1
                            }
                        ],
                        "depth": 0,
                        "id": 0,
                        "order": 0
                    }
                ],
                "depth": -1,
                "id": -1,
                "order": -1
            }
        ],
        "mainTraceNodeCount": 2,
        "parentIdMap": {
            "0": -1,
            "1": 0
        },
        "tidyTrace": [
            {
                "children": [
                    {
                        "children": [
                            {
                                "children": [],
                                "depth": 1,
                                "id": 1,
                                "order": 1
                            }
                        ],
                        "depth": 0,
                        "id": 0,
                        "order": 0
                    }
                ],
                "depth": -1,
                "id": -1,
                "order": -1
            }
        ],
        "tidyTraceNodeCount": 2
    },
    "state_change": {
        "stateChanges": [
            {
                "address": "0x495f947276749ce646f68ac8c248420045cb7b5e",
                "erc": "",
                "slots": [
                    {
                        "current": "0x0000000000000000000000000000000000000000000000000000000000000001",
                        "key": "0x27d99f495999efb5862e0d10d9154919112f1fab5d3e43cdceef897d7e9beddd",
                        "prev": "0x0000000000000000000000000000000000000000000000000000000000000000"
                    },
                    {
                        "current": "0x0000000000000000000000000000000000000000000000000000000000000001",
                        "key": "0x20e6db8749a38df1b7802219b73deaceb932d9c982be63489e1321b266923be5",
                        "prev": "0x0000000000000000000000000000000000000000000000000000000000000000"
                    }
                ],
                "storageVariables": []
            }
        ]
    }
}