{
    "balance_change": {
        "balanceChanges": [
            {
                "account": "0x006883f3a49f224c24a56edebf68dbecc6b9d908",
                "assets": [
                    {
                        "address": "0x653430560be843c4a3d143d0110e896c2ab8ac0d",
                        "amount": "3,092.075312",
                        "iconUrl": "",
                        "isERC1155": false,
                        "isERC721": false,
                        "sign": false,
                        "value": "6806.803523"
                    }
                ]
            },
            {
                "account": "0x0093e5f2a850268c0ca3093c7ea53731296487eb",
                "assets": [
                    {
                        "address": "0x653430560be843c4a3d143d0110e896c2ab8ac0d",
                        "amount": "3,092.075312",
                        "iconUrl": "",
                        "isERC1155": false,
                        "isERC721": false,
                        "sign": true,
                        "value": "6806.803523"
                    }
                ]
            }
        ]
    },
    "profile": {
        "basic_info": {
            "baseFee": "77.483330966",
            "blockNumber": 13670095,
            "callData": "0xa9059cbb0000000000000000000000000093e5f2a850268c0ca3093c7ea53731296487eb000000000000000000000000000000000000000000000001ad1c95233126c000",
            "debugEnable": true,
            "errorInfo": "",
            "eventCount": 1,
            "feeRecipient": "0xea674fdde714fd979de3edf0f56aa9716b898ec8",
            "formatValue": "0",
            "gasLimit": 50000,
            "gasPrice": "94",
            "gasUsed": 30265,
            "intTxnCount": 0,
            "internalRevert": false,
            "internalRevertMessage": "",
            "isContractCreation": false,
            "isFlashloan": false,
            "maxFee": "",
            "nonce": 1,
            "overwritedBlockNumber": -1,
            "priorityFee": "",
            "receiver": "0x653430560be843c4a3d143d0110e896c2ab8ac0d",
            "revertMessage": "",
            "sender": "0x006883f3a49f224c24a56edebf68dbecc6b9d908",
            "simulationEnable": true,
            "sourceTxnHash": "0xd64c8f9dba692ab8fd1a0aa1a82db56e5f246b2f1f80ba833c91c8196a8ecae9",
            "status": true,
            "timestamp": "2021-11-23T09:35:16Z",
            "transactionFee": "0.00284491",
            "txnHash": "0xd64c8f9dba692ab8fd1a0aa1a82db56e5f246b2f1f80ba833c91c8196a8ecae9",
            "txnIndex": 68,
            "type": 0,
            "value": "0"
        },
        "fund_flow": [
            {
                "amount": "3,092.075312",
                "from": "0x006883f3a49f224c24a56edebf68dbecc6b9d908",
                "id": 1,
                "isERC1155": false,
                "isERC721": false,
                "isReverted": false,
                "order": 1,
                "to": "0x0093e5f2a850268c0ca3093c7ea53731296487eb",
                "token": "0x653430560be843c4a3d143d0110e896c2ab8ac0d"
            }
        ],
        "token_infos": [
            {
                "address": "0x653430560be843c4a3d143d0110e896c2ab8ac0d",
                "decimals": 16
            },
            {
                "address": "0xc02aaa39b223fe8d0a0e5c4f27ead9083c756cc2",
                "decimals": 18
            },
            {
                "address": "0xeeeeeeeeeeeeeeeeeeeeeeeeeeeeeeeeeeeeeeee",
                "decimals": 18
            }
        ]
    },
    "address_label": {
        "labels": [
            {
                "address": "0x0000000000000000000000000000000000000004",
                "label": "Precompiled"
            },
            {
                "address": "0xeeeeeeeeeeeeeeeeeeeeeeeeeeeeeeeeeeeeeeee",
                "label": "Ether"
            },
            {
                "address": "0x006883f3a49f224c24a56edebf68dbecc6b9d908",
                "label": "HOO.COM"
            },
            {
                "address": "0x0093e5f2a850268c0ca3093c7ea53731296487eb",
                "label": "Hoo.com 5"
            },
            {
                "address": "0x653430560be843c4a3d143d0110e896c2ab8ac0d",
                "label": "Molecular Future: MOF Token"
            },
            {
                "address": "0x0000000000000000000000000000000000000001",
                "label": "Precompiled"
            },
            {
                "address": "0x0000000000000000000000000000000000000002",
                "label": "Precompiled"
            },
            {
                "address": "0x0000000000000000000000000000000000000003",
                "label": "Precompiled"
            }
        ]
    },
    "trace": {
        "accountLabels": null,
        "dataMap": {
            "-1": {
                "invocation": {
                    "address": "0x006883f3a49f224c24a56edebf68dbecc6b9d908",
                    "callData": "",
                    "decodedMethod": null,
                    "errorInfo": "",
                    "fromAddress": "",
                    "gasUsed": 0,
                    "id": -1,
                    "methodDecoded": false,
                    "operation": "",
                    "output": "",
                    "revert": false,
                    "revertMessage": "",
                    "selector": "",
                    "status": false,
                    "value": ""
                },
                "nodeType": 0
            },
            "0": {
                "invocation": {
                    "address": "0x653430560be843c4a3d143d0110e896c2ab8ac0d",
                    "callData": "0x0000000000000000000000000093e5f2a850268c0ca3093c7ea53731296487eb000000000000000000000000000000000000000000000001ad1c95233126c000",
                    "decodedMethod": {
                        "callParams": [
                            {
                                "name": "_to",
                                "type": "address",
                                "value": "0x0093e5f2a850268c0ca3093c7ea53731296487eb"
                            },
                            {
                                "decimalAvailable": true,
                                "name": "_value",
                                "type": "uint256",
                                "value": "30,920,753,120,000,000,000"
                            }
                        ],
                        "constructorArguments": "",
                        "name": "transfer",
                        "returnParams": [
                            {
                                "name": "success",
                                "type": "bool",
                                "value": true
                            }
                        ],
                        "signature": "transfer(address,uint256)"
                    },
                    "errorInfo": "",
                    "fromAddress": "0x006883f3a49f224c24a56edebf68dbecc6b9d908",
                    "gasUsed": 30265,
                    "id": 0,
                    "methodDecoded": true,
                    "operation": "CALL",
                    "output": "0x0000000000000000000000000000000000000000000000000000000000000001",
                    "revert": false,
                    "revertMessage": "",
                    "selector": "0xa9059cbb",
                    "status": true,
                    "value": "0"
                },
                "nodeType": 0
            },
            "1": {
                "event": {
                    "contract": "0x653430560be843c4a3d143d0110e896c2ab8ac0d",
                    "decodedLog": {
                        "name": "Transfer",
                        "params": [
                            {
                                "name": "_from",
                                "type": "address",
                                "value": "0x006883f3a49f224c24a56edebf68dbecc6b9d908"
                            },
                            {
                                "name": "_to",
                                "type": "address",
                                "value": "0x0093e5f2a850268c0ca3093c7ea53731296487eb"
                            },
                            {
                                "decimalAvailable": true,
                                "name": "_value",
                                "type": "uint256",
                                "value": "30,920,753,120,000,000,000"
                            }
                        ],
                        "signature": "Transfer(address,address,uint256)"
                    },
                    "id": 1,
                    "logData": "0x000000000000000000000000000000000000000000000001ad1c95233126c000",
                    "logDecoded": true,
                    "operation": "EVENT",
                    "revert": false,
                    "status": true,
                    "topics": [
                        "0xddf252ad1be2c89b69c2b068fc378daa952ba7f163c4a11628f55a4df523b3ef",
                        "0x000000000000000000000000006883f3a49f224c24a56edebf68dbecc6b9d908",
                        "0x0000000000000000000000000093e5f2a850268c0ca3093c7ea53731296487eb"
                    ]
                },
                "nodeType": 1
            }
        },
        "gasFlame": [
            {
                "children": [
                    {
                        "children": [
                            {
                                "children": [],
                                "depth": 0,
                                "name": "Initial Gas",
                                "value": 21644
                            },
                            {
                                "children": [],
                                "depth": 0,
                                "name": "Executed Gas",
                                "value": 13421
                            }
                        ],
                        "depth": -1,
                        "name": "Actual Gas Used",
                        "value": 30265
                    },
                    {
                        "children": [],
                        "depth": -1,
                        "name": "Refunded Gas",
                        "value": 4800
                    }
                ],
                "depth": -2,
                "name": "Total Gas",
                "value": 35065
            }
        ],
        "isConfirmed": true,
        "mainTrace": [
            {
                "children": [
                    {
                        "children": [
                            {
                                "children": [],
                                "depth": 1,
                                "id": 1,
                                "order": 1
                            }
                        ],
                        "depth": 0,
                        "id": 0,
                        "order": 0
                    }
                ],
                "depth": -1,
                "id": -1,
                "order": -1
            }
        ],
        "mainTraceNodeCount": 2,
        "parentIdMap": {
            "0": -1,
            "1": 0
        },
        "tidyTrace": [
            {
                "children": [
                    {
                        "children": [
                            {
                                "children": [],
                                "depth": 1,
                                "id": 1,
                                "order": 1
                            }
                        ],
                        "depth": 0,
                        "id": 0,
                        "order": 0
                    }
                ],
                "depth": -1,
                "id": -1,
                "order": -1
            }
        ],
        "tidyTraceNodeCount": 2
    },
    "state_change": {
        "stateChanges": [
            {
                "address": "0x653430560be843c4a3d143d0110e896c2ab8ac0d",
                "erc": "ERC-20",
                "slots": [
                    {
                        "current": "0x0000000000000000000000000000000000000000000000000000000000000000",
                        "key": "0xd5d154be5acb8d1333caab6a7c30d2e8e5c5e1b965d2e629f9d304e8d9a5bbc7",
                        "prev": "0x000000000000000000000000000000000000000000000001ad1c95233126c000"
                    },
                    {
                        "current": "0x00000000000000000000000000000000000000000000044932e4c8cda81ab6f0",
                        "key": "0x2ceaf175fd5d4f4dd35f62a626e9b6b68795f75e41ff650a3b72565c3631d253",
                        "prev": "0x00000000000000000000000000000000000000000000044785c833aa76f3f6f0"
                    }
                ],
                "storageVariables": [
                    {
                        "name": "balanceOf",
                        "type": "mapping(address => uint256)",
                        "value": {
                            "pairs": [
                                {
                                    "key": "0x006883f3a49f224c24a56edebf68dbecc6b9d908",
                                    "value": {
                                        "current": "0",
                                        "prev": "30920753120000000000",
                                        "typeTag": 1
                                    }
                                },
                                {
                                    "key": "0x0093e5f2a850268c0ca3093c7ea53731296487eb",
                                    "value": {
                                        "current": "20239745525641578723056",
                                        "prev": "20208824772521578723056",
                                        "typeTag": 1
                                    }
                                }
                            ],
                            "typeTag": 4
                        }
                    }
                ]
            }
        ]
    }
}