{
    "balance_change": {
        "balanceChanges": [
            {
                "account": "0xd29eb6768d70a9492da9be0546ad6045ff7cc117",
                "assets": [
                    {
                        "address": "0x97f1d18efe472fedd30be23f0703a4412ea85a80",
                        "amount": "222,000,000,000,000,000,000",
                        "iconUrl": "",
                        "isERC1155": false,
                        "isERC721": false,
                        "sign": false,
                        "value": ""
                    }
                ]
            },
            {
                "account": "0x520d4cee24dc34b03fb7c877dfdab73bdac44099",
                "assets": [
                    {
                        "address": "0x97f1d18efe472fedd30be23f0703a4412ea85a80",
                        "amount": "222,000,000,000,000,000,000",
                        "iconUrl": "",
                        "isERC1155": false,
                        "isERC721": false,
                        "sign": true,
                        "value": ""
                    }
                ]
            }
        ]
    },
    "profile": {
        "basic_info": {
            "baseFee": "",
            "blockNumber": 10112060,
            "callData": "0xa9059cbb000000000000000000000000520d4cee24dc34b03fb7c877dfdab73bdac4409900000000000000000000000000000000000000000000000c08de6fcb28b80000",
            "debugEnable": true,
            "errorInfo": "",
            "eventCount": 1,
            "feeRecipient": "0x64dc5acba24d6f6eff6781ac4fecec79c091ad02",
            "formatValue": "0",
            "gasLimit": 100000,
            "gasPrice": "40",
            "gasUsed": 23317,
            "intTxnCount": 0,
            "internalRevert": false,
            "internalRevertMessage": "",
            "isContractCreation": false,
            "isFlashloan": false,
            "maxFee": "",
            "nonce": 2,
            "overwritedBlockNumber": -1,
            "priorityFee": "",
            "receiver": "0x97f1d18efe472fedd30be23f0703a4412ea85a80",
            "revertMessage": "",
            "sender": "0xd29eb6768d70a9492da9be0546ad6045ff7cc117",
            "simulationEnable": true,
            "sourceTxnHash": "0xd75a52b4c4fe2cd3df306bc99fc18cb8cf4e94c0d648362425bd8d128dbe61c4",
            "status": true,
            "timestamp": "2020-05-21T22:53:48Z",
            "transactionFee": "0.00093268",
            "txnHash": "0xd75a52b4c4fe2cd3df306bc99fc18cb8cf4e94c0d648362425bd8d128dbe61c4",
            "txnIndex": 7,
            "type": 0,
            "value": "0"
        },
        "fund_flow": [
            {
                "amount": "222,000,000,000,000,000,000",
                "from": "0xd29eb6768d70a9492da9be0546ad6045ff7cc117",
                "id": 1,
                "isERC1155": false,
                "isERC721": false,
                "isReverted": false,
                "order": 1,
                "to": "0x520d4cee24dc34b03fb7c877dfdab73bdac44099",
                "token": "0x97f1d18efe472fedd30be23f0703a4412ea85a80"
            }
        ],
        "token_infos": [
            {
                "address": "0xc02aaa39b223fe8d0a0e5c4f27ead9083c756cc2",
                "decimals": 18
            },
            {
                "address": "0xeeeeeeeeeeeeeeeeeeeeeeeeeeeeeeeeeeeeeeee",
                "decimals": 18
            }
        ]
    },
    "address_label": {
        "labels": [
            {
                "address": "0x0000000000000000000000000000000000000004",
                "label": "Precompiled"
            },
            {
                "address": "0xeeeeeeeeeeeeeeeeeeeeeeeeeeeeeeeeeeeeeeee",
                "label": "Ether"
            },
            {
                "address": "0x97f1d18efe472fedd30be23f0703a4412ea85a80",
                "label": "FCAToken"
            },
            {
                "address": "0x0000000000000000000000000000000000000001",
                "label": "Precompiled"
            },
            {
                "address": "0x0000000000000000000000000000000000000002",
                "label": "Precompiled"
            },
            {
                "address": "0x0000000000000000000000000000000000000003",
                "label": "Precompiled"
            }
        ]
    },
    "trace": {
        "accountLabels": null,
        "dataMap": {
            "-1": {
                "invocation": {
                    "address": "0xd29eb6768d70a9492da9be0546ad6045ff7cc117",
                    "callData": "",
                    "decodedMethod": null,
                    "errorInfo": "",
                    "fromAddress": "",
                    "gasUsed": 0,
                    "id": -1,
                    "methodDecoded": false,
                    "operation": "",
                    "output": "",
                    "revert": false,
                    "revertMessage": "",
                    "selector": "",
                    "status": false,
                    "value": ""
                },
                "nodeType": 0
            },
            "0": {
                "invocation": {
                    "address": "0x97f1d18efe472fedd30be23f0703a4412ea85a80",
                    "callData": "0x000000000000000000000000520d4cee24dc34b03fb7c877dfdab73bdac4409900000000000000000000000000000000000000000000000c08de6fcb28b80000",
                    "decodedMethod": {
                        "callParams": [
                            {
                                "name": "_to",
                                "type": "address",
                                "value": "0x520d4cee24dc34b03fb7c877dfdab73bdac44099"
                            },
                            {
                                "decimalAvailable": true,
                                "name": "_value",
                                "type": "uint256",
                                "value": "222,000,000,000,000,000,000"
                            }
                        ],
                        "constructorArguments": "",
                        "name": "transfer",
                        "returnParams": [
                            {
                                "name": "",
                                "type": "bool",
                                "value": true
                            }
                        ],
                        "signature": "transfer(address,uint256)"
                    },
                    "errorInfo": "",
                    "fromAddress": "0xd29eb6768d70a9492da9be0546ad6045ff7cc117",
                    "gasUsed": 23317,
                    "id": 0,
                    "methodDecoded": true,
                    "operation": "CALL",
                    "output": "0x0000000000000000000000000000000000000000000000000000000000000001",
                    "revert": false,
                    "revertMessage": "",
                    "selector": "0xa9059cbb",
                    "status": true,
                    "value": "0"
                },
                "nodeType": 0
            },
            "1": {
                "event": {
                    "contract": "0x97f1d18efe472fedd30be23f0703a4412ea85a80",
                    "decodedLog": {
                        "name": "Transfer",
                        "params": [
                            {
                                "name": "from",
                                "type": "address",
                                "value": "0xd29eb6768d70a9492da9be0546ad6045ff7cc117"
                            },
                            {
                                "name": "to",
                                "type": "address",
                                "value": "0x520d4cee24dc34b03fb7c877dfdab73bdac44099"
                            },
                            {
                                "decimalAvailable": true,
                                "name": "value",
                                "type": "uint256",
                                "value": "222,000,000,000,000,000,000"
                            }
                        ],
                        "signature": "Transfer(address,address,uint256)"
                    },
                    "id": 1,
                    "logData": "0x00000000000000000000000000000000000000000000000c08de6fcb28b80000",
                    "logDecoded": true,
                    "operation": "EVENT",
                    "revert": false,
                    "status": true,
                    "topics": [
                        "0xddf252ad1be2c89b69c2b068fc378daa952ba7f163c4a11628f55a4df523b3ef",
                        "0x000000000000000000000000d29eb6768d70a9492da9be0546ad6045ff7cc117",
                        "0x000000000000000000000000520d4cee24dc34b03fb7c877dfdab73bdac44099"
                    ]
                },
                "nodeType": 1
            }
        },
        "gasFlame": [
            {
                "children": [
                    {
                        "children": [
                            {
                                "children": [],
                                "depth": 0,
                                "name": "Initial Gas",
                                "value": 21644
                            },
                            {
                                "children": [],
                                "depth": 0,
                                "name": "Executed Gas",
                                "value": 16673
                            }
                        ],
                        "depth": -1,
                        "name": "Actual Gas Used",
                        "value": 23317
                    },
                    {
                        "children": [],
                        "depth": -1,
                        "name": "Refunded Gas",
                        "value": 15000
                    }
                ],
                "depth": -2,
                "name": "Total Gas",
                "value": 38317
            }
        ],
        "isConfirmed": true,
        "mainTrace": [
            {
                "children": [
                    {
                        "children": [
                            {
                                "children": [],
                                "depth": 1,
                                "id": 1,
                                "order": 1
                            }
                        ],
                        "depth": 0,
                        "id": 0,
                        "order": 0
                    }
                ],
                "depth": -1,
                "id": -1,
                "order": -1
            }
        ],
        "mainTraceNodeCount": 2,
        "parentIdMap": {
            "0": -1,
            "1": 0
        },
        "tidyTrace": [
            {
                "children": [
                    {
                        "children": [
                            {
                                "children": [],
                                "depth": 1,
                                "id": 1,
                                "order": 1
                            }
                        ],
                        "depth": 0,
                        "id": 0,
                        "order": 0
                    }
                ],
                "depth": -1,
                "id": -1,
                "order": -1
            }
        ],
        "tidyTraceNodeCount": 2
    },
    "state_change": {
        "stateChanges": [
            {
                "address": "0x97f1d18efe472fedd30be23f0703a4412ea85a80",
                "erc": "ERC-20",
                "slots": [
                    {
                        "current": "0x0000000000000000000000000000000000000000000a5e15a5f207b022d76000",
                        "key": "0x17705ec96a74abebddb7a56d66261057766c0a9bd7e33e82d8b22bf1dd78ba73",
                        "prev": "0x0000000000000000000000000000000000000000000a5e099d1397e4fa1f6000"
                    },
                    {
                        "current": "0x0000000000000000000000000000000000000000000000000000000000000000",
                        "key": "0xa2e2f039faea51dab4a00a5d1d1a228b4e58c2d1ecf87f8a155a0f9243a112b0",
                        "prev": "0x00000000000000000000000000000000000000000000000c08de6fcb28b80000"
                    }
                ],
                "storageVariables": [
                    {
                        "name": "balances",
                        "type": "mapping(address => uint256)",
                        "value": {
                            "pairs": [
                                {
                                    "key": "0x520d4cee24dc34b03fb7c877dfdab73bdac44099",
                                    "value": {
                                        "current": "12533559984790000000000000",
                                        "prev": "12533337984790000000000000",
                                        "typeTag": 1
                                    }
                                },
                                {
                                    "key": "0xd29eb6768d70a9492da9be0546ad6045ff7cc117",
                                    "value": {
                                        "current": "0",
                                        "prev": "222000000000000000000",
                                        "typeTag": 1
                                    }
                                }
                            ],
                            "typeTag": 4
                        }
                    }
                ]
            }
        ]
    }
}