{
    "balance_change": {
        "balanceChanges": [
            {
                "account": "0x60fb710f727a47bf2bc8621e28f97af9eb909f87",
                "assets": [
                    {
                        "address": "0xdac17f958d2ee523a2206206994597c13d831ec7",
                        "amount": "45",
                        "iconUrl": "https://assets.blocksec.com/icon/fcea71f3193ce895be44bfdf941f7e4c9381dd587f273c2d1a27f1263d84e4ea.png",
                        "isERC1155": false,
                        "isERC721": false,
                        "sign": false,
                        "value": "44.995500000000000496"
                    }
                ]
            },
            {
                "account": "0x1689a089aa12d6cbbd88bc2755e4c192f8702000",
                "assets": [
                    {
                        "address": "0xdac17f958d2ee523a2206206994597c13d831ec7",
                        "amount": "45",
                        "iconUrl": "https://assets.blocksec.com/icon/fcea71f3193ce895be44bfdf941f7e4c9381dd587f273c2d1a27f1263d84e4ea.png",
                        "isERC1155": false,
                        "isERC721": false,
                        "sign": true,
                        "value": "44.995500000000000496"
                    }
                ]
            }
        ]
    },
    "profile": {
        "basic_info": {
            "baseFee": "30.852858216",
            "blockNumber": 16644851,
            "callData": "0xa9059cbb0000000000000000000000001689a089aa12d6cbbd88bc2755e4c192f87020000000000000000000000000000000000000000000000000000000000002aea540",
            "debugEnable": true,
            "errorInfo": "",
            "eventCount": 1,
            "feeRecipient": "0xd3adfb71cc35db80f4e0c2b5f39e687cbb02b9d3",
            "formatValue": "0",
            "gasLimit": 170000,
            "gasPrice": "31",
            "gasUsed": 41297,
            "intTxnCount": 0,
            "internalRevert": false,
            "internalRevertMessage": "",
            "isContractCreation": false,
            "isFlashloan": false,
            "maxFee": "",
            "nonce": 0,
            "overwritedBlockNumber": -1,
            "priorityFee": "",
            "receiver": "0xdac17f958d2ee523a2206206994597c13d831ec7",
            "revertMessage": "",
            "sender": "0x60fb710f727a47bf2bc8621e28f97af9eb909f87",
            "simulationEnable": true,
            "sourceTxnHash": "0xd7c931aae524cd2e51852391960d9ed80a4b302ca095c5ad66a7c17a4b7539be",
            "status": true,
            "timestamp": "2023-02-17T00:23:59Z",
            "transactionFee": "0.001280207",
            "txnHash": "0xd7c931aae524cd2e51852391960d9ed80a4b302ca095c5ad66a7c17a4b7539be",
            "txnIndex": 28,
            "type": 0,
            "value": "0"
        },
        "fund_flow": [
            {
                "amount": "45",
                "from": "0x60fb710f727a47bf2bc8621e28f97af9eb909f87",
                "id": 1,
                "isERC1155": false,
                "isERC721": false,
                "isReverted": false,
                "order": 1,
                "to": "0x1689a089aa12d6cbbd88bc2755e4c192f8702000",
                "token": "0xdac17f958d2ee523a2206206994597c13d831ec7"
            }
        ],
        "token_infos": [
            {
                "address": "0xc02aaa39b223fe8d0a0e5c4f27ead9083c756cc2",
                "decimals": 18
            },
            {
                "address": "0xdac17f958d2ee523a2206206994597c13d831ec7",
                "decimals": 6
            },
            {
                "address": "0xeeeeeeeeeeeeeeeeeeeeeeeeeeeeeeeeeeeeeeee",
                "decimals": 18
            }
        ]
    },
    "address_label": {
        "labels": [
            {
                "address": "0x0000000000000000000000000000000000000004",
                "label": "Precompiled"
            },
            {
                "address": "0xeeeeeeeeeeeeeeeeeeeeeeeeeeeeeeeeeeeeeeee",
                "label": "Ether"
            },
            {
                "address": "0x1689a089aa12d6cbbd88bc2755e4c192f8702000",
                "label": "WhiteBIT 3"
            },
            {
                "address": "0x60fb710f727a47bf2bc8621e28f97af9eb909f87",
                "label": "WHITEBIT"
            },
            {
                "address": "0xdac17f958d2ee523a2206206994597c13d831ec7",
                "label": "Tether: USDT Stablecoin"
            },
            {
                "address": "0x0000000000000000000000000000000000000001",
                "label": "Precompiled"
            },
            {
                "address": "0x0000000000000000000000000000000000000002",
                "label": "Precompiled"
            },
            {
                "address": "0x0000000000000000000000000000000000000003",
                "label": "Precompiled"
            }
        ]
    },
    "trace": {
        "accountLabels": null,
        "dataMap": {
            "-1": {
                "invocation": {
                    "address": "0x60fb710f727a47bf2bc8621e28f97af9eb909f87",
                    "callData": "",
                    "decodedMethod": null,
                    "errorInfo": "",
                    "fromAddress": "",
                    "gasUsed": 0,
                    "id": -1,
                    "methodDecoded": false,
                    "operation": "",
                    "output": "",
                    "revert": false,
                    "revertMessage": "",
                    "selector": "",
                    "status": false,
                    "value": ""
                },
                "nodeType": 0
            },
            "0": {
                "invocation": {
                    "address": "0xdac17f958d2ee523a2206206994597c13d831ec7",
                    "callData": "0x0000000000000000000000001689a089aa12d6cbbd88bc2755e4c192f87020000000000000000000000000000000000000000000000000000000000002aea540",
                    "decodedMethod": {
                        "callParams": [
                            {
                                "name": "_to",
                                "type": "address",
                                "value": "0x1689a089aa12d6cbbd88bc2755e4c192f8702000"
                            },
                            {
                                "decimalAvailable": true,
                                "name": "_value",
                                "type": "uint256",
                                "value": "45,000,000"
                            }
                        ],
                        "constructorArguments": "",
                        "name": "transfer",
                        "returnParams": [],
                        "signature": "transfer(address,uint256)"
                    },
                    "errorInfo": "",
                    "fromAddress": "0x60fb710f727a47bf2bc8621e28f97af9eb909f87",
                    "gasUsed": 41297,
                    "id": 0,
                    "methodDecoded": true,
                    "operation": "CALL",
                    "output": "",
                    "revert": false,
                    "revertMessage": "",
                    "selector": "0xa9059cbb",
                    "status": true,
                    "value": "0"
                },
                "nodeType": 0
            },
            "1": {
                "event": {
                    "contract": "0xdac17f958d2ee523a2206206994597c13d831ec7",
                    "decodedLog": {
                        "name": "Transfer",
                        "params": [
                            {
                                "name": "from",
                                "type": "address",
                                "value": "0x60fb710f727a47bf2bc8621e28f97af9eb909f87"
                            },
                            {
                                "name": "to",
                                "type": "address",
                                "value": "0x1689a089aa12d6cbbd88bc2755e4c192f8702000"
                            },
                            {
                                "decimalAvailable": true,
                                "name": "value",
                                "type": "uint256",
                                "value": "45,000,000"
                            }
                        ],
                        "signature": "Transfer(address,address,uint256)"
                    },
                    "id": 1,
                    "logData": "0x0000000000000000000000000000000000000000000000000000000002aea540",
                    "logDecoded": true,
                    "operation": "EVENT",
                    "revert": false,
                    "status": true,
                    "topics": [
                        "0xddf252ad1be2c89b69c2b068fc378daa952ba7f163c4a11628f55a4df523b3ef",
                        "0x00000000000000000000000060fb710f727a47bf2bc8621e28f97af9eb909f87",
                        "0x0000000000000000000000001689a089aa12d6cbbd88bc2755e4c192f8702000"
                    ]
                },
                "nodeType": 1
            }
        },
        "gasFlame": [
            {
                "children": [
                    {
                        "children": [
                            {
                                "children": [],
                                "depth": 0,
                                "name": "Initial Gas",
                                "value": 21596
                            },
                            {
                                "children": [],
                                "depth": 0,
                                "name": "Executed Gas",
                                "value": 24501
                            }
                        ],
                        "depth": -1,
                        "name": "Actual Gas Used",
                        "value": 41297
                    },
                    {
                        "children": [],
                        "depth": -1,
                        "name": "Refunded Gas",
                        "value": 4800
                    }
                ],
                "depth": -2,
                "name": "Total Gas",
                "value": 46097
            }
        ],
        "isConfirmed": true,
        "mainTrace": [
            {
                "children": [
                    {
                        "children": [
                            {
                                "children": [],
                                "depth": 1,
                                "id": 1,
                                "order": 1
                            }
                        ],
                        "depth": 0,
                        "id": 0,
                        "order": 0
                    }
                ],
                "depth": -1,
                "id": -1,
                "order": -1
            }
        ],
        "mainTraceNodeCount": 2,
        "parentIdMap": {
            "0": -1,
            "1": 0
        },
        "tidyTrace": [
            {
                "children": [
                    {
                        "children": [
                            {
                                "children": [],
                                "depth": 1,
                                "id": 1,
                                "order": 1
                            }
                        ],
                        "depth": 0,
                        "id": 0,
                        "order": 0
                    }
                ],
                "depth": -1,
                "id": -1,
                "order": -1
            }
        ],
        "tidyTraceNodeCount": 2
    },
    "state_change": {
        "stateChanges": [
            {
                "address": "0xdac17f958d2ee523a2206206994597c13d831ec7",
                "erc": "ERC-20",
                "slots": [
                    {
                        "current": "0x0000000000000000000000000000000000000000000000000000000000000000",
                        "key": "0x92d8a76388abfdf2a635f347cc416b65b9f47fe814ace299c11ebf5679008490",
                        "prev": "0x0000000000000000000000000000000000000000000000000000000002aea540"
                    },
                    {
                        "current": "0x00000000000000000000000000000000000000000000000000000002aabb82b0",
                        "key": "0x728e667887a5cc2d5b14fa273c88e60fabfef07301595452ac58e2cf33e7f947",
                        "prev": "0x00000000000000000000000000000000000000000000000000000002a80cdd70"
                    }
                ],
                "storageVariables": [
                    {
                        "name": "balances",
                        "type": "mapping(address => uint256)",
                        "value": {
                            "pairs": [
                                {
                                    "key": "0x1689a089aa12d6cbbd88bc2755e4c192f8702000",
                                    "value": {
                                        "current": "11454350000",
                                        "prev": "11409350000",
                                        "typeTag": 1
                                    }
                                },
                                {
                                    "key": "0x60fb710f727a47bf2bc8621e28f97af9eb909f87",
                                    "value": {
                                        "current": "0",
                                        "prev": "45000000",
                                        "typeTag": 1
                                    }
                                }
                            ],
                            "typeTag": 4
                        }
                    }
                ]
            }
        ]
    }
}