{
    "balance_change": {
        "balanceChanges": [
            {
                "account": "0xcab6778cbcbf7cf1af34aeb045f1789781e84f09",
                "assets": [
                    {
                        "address": "0xeeeeeeeeeeeeeeeeeeeeeeeeeeeeeeeeeeeeeeee",
                        "amount": "0.000184905203580405",
                        "iconUrl": "https://assets.blocksec.com/image/1663669189317-3.png",
                        "isERC1155": false,
                        "isERC721": false,
                        "sign": true,
                        "value": "0.053236586552073909713"
                    }
                ]
            },
            {
                "account": "0x00000000016697fa9a9c8e2889e28d3d9816a078",
                "assets": [
                    {
                        "address": "0xeeeeeeeeeeeeeeeeeeeeeeeeeeeeeeeeeeeeeeee",
                        "amount": "0.000184905203580405",
                        "iconUrl": "https://assets.blocksec.com/image/1663669189317-3.png",
                        "isERC1155": false,
                        "isERC721": false,
                        "sign": false,
                        "value": "0.053236586552073909713"
                    }
                ]
            }
        ]
    },
    "profile": {
        "basic_info": {
            "baseFee": "",
            "blockNumber": 8226614,
            "callData": "0x24361f05000000000000000000000000a0b86991c6218b36c1d19d4a2e9eb0ce3606eb4800000000000000000000000000000000000000000000000000000000000000000000000000000000000000000000000000000000000000000000000000000000000000000000000000000000000000000000000000000000000000000000000100000000000000000000000000000000000000000000000006507c16dccd80000000000000000000000000000000000000000000000000000000000005d9e7e10000000000000000000000000000000000000000000000000000000000000001000000000000000000000000000000000000000000000000000000001dcd694d0000000000000000000000000000000000000000000000000000000000000000",
            "debugEnable": true,
            "errorInfo": "",
            "eventCount": 0,
            "feeRecipient": "0xeea5b82b61424df8020f5fedd81767f2d0d25bfb",
            "formatValue": "0",
            "gasLimit": 700000,
            "gasPrice": "1.000001101",
            "gasUsed": 217617,
            "intTxnCount": 40,
            "internalRevert": false,
            "internalRevertMessage": "",
            "isContractCreation": false,
            "isFlashloan": false,
            "maxFee": "",
            "nonce": 3173,
            "overwritedBlockNumber": -1,
            "priorityFee": "",
            "receiver": "0x00000000016697fa9a9c8e2889e28d3d9816a078",
            "revertMessage": "",
            "sender": "0xcab6778cbcbf7cf1af34aeb045f1789781e84f09",
            "simulationEnable": true,
            "sourceTxnHash": "0xd810b3693a6d6283317aaae8563dc92d53679c44bdccb27597ec720d93b99457",
            "status": true,
            "timestamp": "2019-07-26T14:09:49Z",
            "transactionFee": "0.000217617239596317",
            "txnHash": "0xd810b3693a6d6283317aaae8563dc92d53679c44bdccb27597ec720d93b99457",
            "txnIndex": 8,
            "type": 0,
            "value": "0"
        },
        "fund_flow": [
            {
                "amount": "0.000184905203580405",
                "from": "0x00000000016697fa9a9c8e2889e28d3d9816a078",
                "id": 1,
                "isERC1155": false,
                "isERC721": false,
                "isReverted": false,
                "order": 1,
                "to": "0xcab6778cbcbf7cf1af34aeb045f1789781e84f09",
                "token": "0xeeeeeeeeeeeeeeeeeeeeeeeeeeeeeeeeeeeeeeee"
            }
        ],
        "token_infos": [
            {
                "address": "0xc02aaa39b223fe8d0a0e5c4f27ead9083c756cc2",
                "decimals": 18
            },
            {
                "address": "0xeeeeeeeeeeeeeeeeeeeeeeeeeeeeeeeeeeeeeeee",
                "decimals": 18
            }
        ]
    },
    "address_label": {
        "labels": [
            {
                "address": "0x5d154c145db2ca90b8ab5e8fe3e716afa4ab7ff0",
                "label": "KyberUniswapReserve"
            },
            {
                "address": "0x0000000000000000000000000000000000000002",
                "label": "Precompiled"
            },
            {
                "address": "0xeeeeeeeeeeeeeeeeeeeeeeeeeeeeeeeeeeeeeeee",
                "label": "Ether"
            },
            {
                "address": "0x2157a7894439191e520825fe9399ab8655e0f708",
                "label": "Uniswap Exchange Template"
            },
            {
                "address": "0x818e6fecd516ecc3849daf6845e3ec868087b755",
                "label": "Kyber: Proxy"
            },
            {
                "address": "0x9ae49c0d7f8f9ef4b864e004fe86ac8294e20950",
                "label": "Kyber: Old Contract"
            },
            {
                "address": "0x7a3370075a54b187d7bd5dcebf0ff2b5552d4f7d",
                "label": "Kyber: Reserve 2"
            },
            {
                "address": "0xfb80bfa19cae9e00f28b0f7e1023109deeb10483",
                "label": "0xfb80_ConversionRates"
            },
            {
                "address": "0xa0b86991c6218b36c1d19d4a2e9eb0ce3606eb48",
                "label": "Circle: USDC Token"
            },
            {
                "address": "0x0000000000000000000000000000000000000001",
                "label": "Precompiled"
            },
            {
                "address": "0x1670dfb52806de7789d5cf7d5c005cf7083f9a5d",
                "label": "Kyber: Reserve USDC"
            },
            {
                "address": "0x0882477e7895bdc5cea7cb1552ed914ab157fe56",
                "label": "FiatTokenV1"
            },
            {
                "address": "0x097b3b7cb01945ba7e76804ddc2fdda2cce6ef43",
                "label": "0x097b_ConversionRates"
            },
            {
                "address": "0xb87304fbd18e669b932695d77cefdee0e8e7a6f1",
                "label": "ExpectedRate"
            },
            {
                "address": "0x1c2e0792b3a346e70ae63a05d465d30618fbc3c7",
                "label": "LiquidityConversionRates"
            },
            {
                "address": "0x97dec872013f6b5fb443861090ad931542878126",
                "label": "Uniswap: USDC"
            },
            {
                "address": "0x21433dec9cb634a23c6a4bbcce08c83f5ac2ec18",
                "label": "KyberReserve"
            },
            {
                "address": "0x0000000000000000000000000000000000000003",
                "label": "Precompiled"
            },
            {
                "address": "0x0000000000000000000000000000000000000004",
                "label": "Precompiled"
            }
        ]
    },
    "trace": {
        "accountLabels": null,
        "dataMap": {
            "-1": {
                "invocation": {
                    "address": "0xcab6778cbcbf7cf1af34aeb045f1789781e84f09",
                    "callData": "",
                    "decodedMethod": null,
                    "errorInfo": "",
                    "fromAddress": "",
                    "gasUsed": 0,
                    "id": -1,
                    "methodDecoded": false,
                    "operation": "",
                    "output": "",
                    "revert": false,
                    "revertMessage": "",
                    "selector": "",
                    "status": false,
                    "value": ""
                },
                "nodeType": 0
            },
            "0": {
                "invocation": {
                    "address": "0x00000000016697fa9a9c8e2889e28d3d9816a078",
                    "callData": "0x000000000000000000000000a0b86991c6218b36c1d19d4a2e9eb0ce3606eb4800000000000000000000000000000000000000000000000000000000000000000000000000000000000000000000000000000000000000000000000000000000000000000000000000000000000000000000000000000000000000000000000100000000000000000000000000000000000000000000000006507c16dccd80000000000000000000000000000000000000000000000000000000000005d9e7e10000000000000000000000000000000000000000000000000000000000000001000000000000000000000000000000000000000000000000000000001dcd694d0000000000000000000000000000000000000000000000000000000000000000",
                    "decodedMethod": null,
                    "errorInfo": "",
                    "fromAddress": "0xcab6778cbcbf7cf1af34aeb045f1789781e84f09",
                    "gasUsed": 217617,
                    "id": 0,
                    "methodDecoded": false,
                    "operation": "CALL",
                    "output": "",
                    "revert": false,
                    "revertMessage": "",
                    "selector": "0x24361f05",
                    "status": true,
                    "value": "0"
                },
                "nodeType": 0
            },
            "1": {
                "invocation": {
                    "address": "0x818e6fecd516ecc3849daf6845e3ec868087b755",
                    "callData": "0x000000000000000000000000eeeeeeeeeeeeeeeeeeeeeeeeeeeeeeeeeeeeeeee000000000000000000000000a0b86991c6218b36c1d19d4a2e9eb0ce3606eb4800000000000000000000000000000000000000000000000006507c16dccd8000",
                    "decodedMethod": {
                        "callParams": [
                            {
                                "name": "src",
                                "type": "address",
                                "value": "0xeeeeeeeeeeeeeeeeeeeeeeeeeeeeeeeeeeeeeeee"
                            },
                            {
                                "name": "dest",
                                "type": "address",
                                "value": "0xa0b86991c6218b36c1d19d4a2e9eb0ce3606eb48"
                            },
                            {
                                "name": "srcQty",
                                "type": "uint256",
                                "value": "455,000,000,000,000,000"
                            }
                        ],
                        "constructorArguments": "",
                        "name": "getExpectedRate",
                        "returnParams": [
                            {
                                "name": "expectedRate",
                                "type": "uint256",
                                "value": "215,628,432,967,032,967,032"
                            },
                            {
                                "name": "slippageRate",
                                "type": "uint256",
                                "value": "209,159,579,978,021,978,021"
                            }
                        ],
                        "signature": "getExpectedRate(address,address,uint256)"
                    },
                    "errorInfo": "",
                    "fromAddress": "0x00000000016697fa9a9c8e2889e28d3d9816a078",
                    "gasUsed": 178367,
                    "id": 1,
                    "methodDecoded": true,
                    "operation": "STATICCALL",
                    "output": "0x00000000000000000000000000000000000000000000000bb0721555ca210f7800000000000000000000000000000000000000000000000b56ac19d0a7e7bfa5",
                    "revert": false,
                    "revertMessage": "",
                    "selector": "0x809a9e55",
                    "status": true,
                    "value": "0"
                },
                "nodeType": 0
            },
            "10": {
                "invocation": {
                    "address": "0x0882477e7895bdc5cea7cb1552ed914ab157fe56",
                    "callData": "0x0000000000000000000000006924a03bb710eaf199ab6ac9f2bb148215ae9b5d",
                    "decodedMethod": {
                        "callParams": [
                            {
                                "name": "account",
                                "type": "address",
                                "value": "0x6924a03bb710eaf199ab6ac9f2bb148215ae9b5d"
                            }
                        ],
                        "constructorArguments": "",
                        "name": "balanceOf",
                        "returnParams": [
                            {
                                "decimalAvailable": true,
                                "name": "",
                                "type": "uint256",
                                "value": "59,544,115,374"
                            }
                        ],
                        "signature": "balanceOf(address)"
                    },
                    "errorInfo": "",
                    "fromAddress": "0xa0b86991c6218b36c1d19d4a2e9eb0ce3606eb48",
                    "gasUsed": 889,
                    "id": 10,
                    "methodDecoded": true,
                    "operation": "DELEGATECALL",
                    "output": "0x0000000000000000000000000000000000000000000000000000000ddd1b18ae",
                    "revert": false,
                    "revertMessage": "",
                    "selector": "0x70a08231",
                    "status": true,
                    "value": "0"
                },
                "nodeType": 0
            },
            "11": {
                "invocation": {
                    "address": "0xa0b86991c6218b36c1d19d4a2e9eb0ce3606eb48",
                    "callData": "0x0000000000000000000000006924a03bb710eaf199ab6ac9f2bb148215ae9b5d00000000000000000000000021433dec9cb634a23c6a4bbcce08c83f5ac2ec18",
                    "decodedMethod": {
                        "callParams": [
                            {
                                "name": "owner",
                                "type": "address",
                                "value": "0x6924a03bb710eaf199ab6ac9f2bb148215ae9b5d"
                            },
                            {
                                "name": "spender",
                                "type": "address",
                                "value": "0x21433dec9cb634a23c6a4bbcce08c83f5ac2ec18"
                            }
                        ],
                        "constructorArguments": "",
                        "name": "allowance",
                        "returnParams": [
                            {
                                "decimalAvailable": true,
                                "name": "",
                                "type": "uint256",
                                "value": "115,792,089,237,316,195,423,570,985,008,687,907,853,269,984,665,640,564,039,457,584,007,220,107,069,866"
                            }
                        ],
                        "signature": "allowance(address,address)"
                    },
                    "errorInfo": "",
                    "fromAddress": "0x21433dec9cb634a23c6a4bbcce08c83f5ac2ec18",
                    "gasUsed": 2845,
                    "id": 11,
                    "methodDecoded": true,
                    "operation": "CALL",
                    "output": "0xffffffffffffffffffffffffffffffffffffffffffffffffffffff5ea4a2c9aa",
                    "revert": false,
                    "revertMessage": "",
                    "selector": "0xdd62ed3e",
                    "status": true,
                    "value": "0"
                },
                "nodeType": 0
            },
            "12": {
                "invocation": {
                    "address": "0x0882477e7895bdc5cea7cb1552ed914ab157fe56",
                    "callData": "0x0000000000000000000000006924a03bb710eaf199ab6ac9f2bb148215ae9b5d00000000000000000000000021433dec9cb634a23c6a4bbcce08c83f5ac2ec18",
                    "decodedMethod": {
                        "callParams": [
                            {
                                "name": "owner",
                                "type": "address",
                                "value": "0x6924a03bb710eaf199ab6ac9f2bb148215ae9b5d"
                            },
                            {
                                "name": "spender",
                                "type": "address",
                                "value": "0x21433dec9cb634a23c6a4bbcce08c83f5ac2ec18"
                            }
                        ],
                        "constructorArguments": "",
                        "name": "allowance",
                        "returnParams": [
                            {
                                "decimalAvailable": true,
                                "name": "",
                                "type": "uint256",
                                "value": "115,792,089,237,316,195,423,570,985,008,687,907,853,269,984,665,640,564,039,457,584,007,220,107,069,866"
                            }
                        ],
                        "signature": "allowance(address,address)"
                    },
                    "errorInfo": "",
                    "fromAddress": "0xa0b86991c6218b36c1d19d4a2e9eb0ce3606eb48",
                    "gasUsed": 1256,
                    "id": 12,
                    "methodDecoded": true,
                    "operation": "DELEGATECALL",
                    "output": "0xffffffffffffffffffffffffffffffffffffffffffffffffffffff5ea4a2c9aa",
                    "revert": false,
                    "revertMessage": "",
                    "selector": "0xdd62ed3e",
                    "status": true,
                    "value": "0"
                },
                "nodeType": 0
            },
            "13": {
                "invocation": {
                    "address": "0x5d154c145db2ca90b8ab5e8fe3e716afa4ab7ff0",
                    "callData": "0x000000000000000000000000eeeeeeeeeeeeeeeeeeeeeeeeeeeeeeeeeeeeeeee000000000000000000000000a0b86991c6218b36c1d19d4a2e9eb0ce3606eb4800000000000000000000000000000000000000000000000006507c16dccd800000000000000000000000000000000000000000000000000000000000007d8736",
                    "decodedMethod": {
                        "callParams": [
                            {
                                "name": "src",
                                "type": "address",
                                "value": "0xeeeeeeeeeeeeeeeeeeeeeeeeeeeeeeeeeeeeeeee"
                            },
                            {
                                "name": "dest",
                                "type": "address",
                                "value": "0xa0b86991c6218b36c1d19d4a2e9eb0ce3606eb48"
                            },
                            {
                                "name": "srcQty",
                                "type": "uint256",
                                "value": "455,000,000,000,000,000"
                            },
                            {
                                "name": "blockNumber",
                                "type": "uint256",
                                "value": "8,226,614"
                            }
                        ],
                        "constructorArguments": "",
                        "name": "getConversionRate",
                        "returnParams": [
                            {
                                "name": "",
                                "type": "uint256",
                                "value": "213,141,624,175,824,175,824"
                            }
                        ],
                        "signature": "getConversionRate(address,address,uint256,uint256)"
                    },
                    "errorInfo": "",
                    "fromAddress": "0x9ae49c0d7f8f9ef4b864e004fe86ac8294e20950",
                    "gasUsed": 30059,
                    "id": 13,
                    "methodDecoded": true,
                    "operation": "CALL",
                    "output": "0x00000000000000000000000000000000000000000000000b8def29ea49cf82d0",
                    "revert": false,
                    "revertMessage": "",
                    "selector": "0x7cd44272",
                    "status": true,
                    "value": "0"
                },
                "nodeType": 0
            },
            "14": {
                "invocation": {
                    "address": "0x97dec872013f6b5fb443861090ad931542878126",
                    "callData": "0x000000000000000000000000000000000000000000000000064935e61ea00800",
                    "decodedMethod": {
                        "callParams": [
                            {
                                "name": "eth_sold",
                                "type": "uint256",
                                "value": "452,952,500,000,000,000"
                            }
                        ],
                        "constructorArguments": "",
                        "name": "getEthToTokenInputPrice",
                        "returnParams": [
                            {
                                "name": "out",
                                "type": "uint256",
                                "value": "96,979,439"
                            }
                        ],
                        "signature": "getEthToTokenInputPrice(uint256)"
                    },
                    "errorInfo": "",
                    "fromAddress": "0x5d154c145db2ca90b8ab5e8fe3e716afa4ab7ff0",
                    "gasUsed": 7892,
                    "id": 14,
                    "methodDecoded": true,
                    "operation": "CALL",
                    "output": "0x0000000000000000000000000000000000000000000000000000000005c7c9ef1ea0080000000000000000000000000000000000000000000000000000000000000000000000000000000000000000000000000000000000000000000000000000000000000000000000000000000000000000000000000000000000000000000000000000000000000000000000000000000000000000000000000000000000000000000000000000000000000000000000000000000000000000000000000000000000000000000000000000000000000000000000000000000000000000000000000000000000000000000000000000000000000000000000000000000000000000000000000000000000000000000000000000000000000000000000000000000000000000000000000000000000000000000000000000000000000000000000000000000000000000000000000000000000000000000000000000000000000000000000000000000000000000000000000000000000000000000000000000000000000000000000000000000000000000000000000000000000000000000000000000000000000000000000000000000000000000000000000000000000000000000000000000000000000000000000000000000000000000000000000000000000000000000000000000000000000000000000000000000000000000000000000000000000000000000000000000000000000000000000000000000000000000000000000000000000000000000000000000000000000000000000000000000000000000000000000000000000000000000000000000000000000000000000000000000000000000000000000000000000000000000000000000000000000000000000000000000000000000000000000000000000000000000000000000000000000000000000000000000000000000000000000000000000000000000000000000000000000000000000000000000000000000000000000000000000000000000000000000000000000000000000000000000000000000000000000000000000000000000000000000000000000000000000000000000000000000000000000000000000000000000000000000000000000000000000000000000000000000000000000000000000000000000000000000000000000000000000000000000000000000000000000000000000000000000000000000000000000000000000000000000000000000000000000000000000000000000000000000000000000000000000000000000000000000000000000000000000000000000000000000000000000000000000000000000000000000000000000000000000000000000000000000000000000000000000000000000000000000000000000000000000000000000000000000000000000000000000000000000000000000000000000000000000000000000000000000000000000000000000000000000000000000000000000000000000000000000000000000000000000000000000000000000000000000000000000000000000000000000000000000000000000000000000000000000000000000000000000000000000000000000000000000000000000000000000000000000000000000000000000000000000000000000000000000000000000000000000000000000000000000000000000000000000000000000000000000000000000000000000000000000000000000000000000000000000000000000000000000000000000000000000000000000000000000000000000000000000000000000000000000000000000000000000000000000000000000000000000000000000000000000000000000000000000000000000000000000000000000000000000000000000000000000000000000000000000000000000000000000000000000000000000000000000000000000000000000000000000000000000000000000000000000000000000000000000000000000000000000000000000000000000000000000000000000000000000000000000000000000000000000000000000000000000000000000000000000000000000000000000000000000000000000000000000000000000000000000000000000000000000000000000000000000000000000000000000000000000000000000000000000000000000000000000000000000000000000000000000000000000000000000000000000000000000000000000000000000000000000000000000000000000000000000000000000000000000000000000000000000000000000000000000000000000000000000000000000000000000000000000000000000000000000000000000000000000000000000000000000000000000000000000000000000000000000000000000000000000000000000000000000000000000000000000000000000000000000000000000000000000000000000000000000000000000000000000000000000000000000000000000000000000000000000000000000000000000000000000000000000000000000000000000000000000000000000000000000000000000000000000000000000000000000000000000000000000000000000000000000000000000000000000000000000000000000000000000000000000000000000000000000000000000000000000000000000000000000000000000000000000000000000000000000000000000000000000000000000000000000000000000000000000000000000000000000000000000000000000000000000000000000000000000000000000000000000000000000000000000000000000000000000000000000000000000000000000000000000000000000000000000000000000000000000000000000000000000000000000000000000000000000000000000000000000000000000000000000000000000000000000000000000000000000000000000000000000000000000000000000000000000000000000000000000000000000000000000000000000000000000000000000000000000000000000000000000000000000000000000000000000000000000000000000000000000000000000000000000000000000000000000000000000000000000000000000000000000000000000000000000000000000000000000000000000000000000000000000000000000000000000000000000000000000000000000000000000000000000000000000000000000000000000000000000000000000000000000000000000000000000000000000000000000000000000000000000000000000000000000000000000000000000000000000000000000000000000000000000000000000000000000000000000000000000000000000000000000000000000000000000000000000000000000000000000000000000000000000000000000000000000000000000000000000000000000000000000000000000000000000000000000000000000000000000000000000000000000000000000000000000000000000000000000000000000000000000000000000000000000000000000000000000000000000000000000000000000000000000000000000000000000000000000000000000000000000000000000000000000000000000000000000000000000000000000000000000000000000000000000000000000000000000000000000000000000000000000000000000000000000000000000000000000000000000000000000000000000000000000000000000000000000000000000000000000000000000000000000000000000000000000000000000000000000000000000000000000000000000000000000000000000000000000000000000000000000000000000000000000000000000000000000000000000000000000000000000000000000000000000000000000000000000000000000000000000000000000000000000000000000000000000000000000000000000000000000000000000000000000000000000000000000000000000000000000000000000000000000000000000000000000000000000000000000000000000000000000000000000000000000000000000000000000000000000000000000000000000000000000000000000000000000000000000000000000000000000000000000000000000000000000000000000000000000000000000000000000000000000000000000000000000000000000000000000000000000000000000000000000000000000000000000000000000000000000000000000000000000000000000000000000000000000000000000000000000000000000000000000000000000000000000000000000000000000000000000000000000000000000000000000000000000000000000000000000000000000000000000000000000000000000000000000000000000000000000000000000000000000000000000000000000000000000000000000000000000000000000000000000000000000000000000000000000000000000000000000000000000000000000000000000000000000000000000000000000000000000000000000000000000000000000000000000000000000000000000000000000000000000000000000000000000000000000000000000000000000000000000000000000000000000000000000000000000000000000000000000000000000000000000000000000000000000000000000000000000000000000000000000000000000000000000000000000000000000000000000000000000000000000000000000000000000000000000000000000000000000000000000000000000000000000000000000000000000000000000000000000000000000000000000000000000000000000000000000000000000000000000000000000000000000000000000000000000000000000000000000000000000000000000000000000000000000000000000000000000000000000000000000000000000000000000000000000000000000000000000000000000000000000000000000000000000000000000000000000000000000000000000000000000000000000000000000000000000000000000000000000000000000000000000000000000000000000000000000000000000000000000000000000000000000000000000000000000000000000000000000000000000000000000000000000000000000000000000000000000000000000000000000000000000000000000000000000000000000000000000000000000000000000000000000000000000000000000000000000000000000000000000000000000000000000000000000000000000000000000000000000000000000000000000000000000000000000000000000000000000000000000000000000000000000000000000000000000000000000000000000000000000000000000000000000000000000000000000000000000000000000000000000000000000000000000000000000000000000000000000000000000000000000000000000000000000000000000000000000000000000000000000000000000000000000000000000000000000000000000000000",
                    "revert": false,
                    "revertMessage": "",
                    "selector": "0xcd7724c3",
                    "status": true,
                    "value": "0"
                },
                "nodeType": 0
            },
            "15": {
                "invocation": {
                    "address": "0x2157a7894439191e520825fe9399ab8655e0f708",
                    "callData": "0x000000000000000000000000000000000000000000000000064935e61ea00800",
                    "decodedMethod": {
                        "callParams": [
                            {
                                "name": "eth_sold",
                                "type": "uint256",
                                "value": "452,952,500,000,000,000"
                            }
                        ],
                        "constructorArguments": "",
                        "name": "getEthToTokenInputPrice",
                        "returnParams": [
                            {
                                "name": "out",
                                "type": "uint256",
                                "value": "96,979,439"
                            }
                        ],
                        "signature": "getEthToTokenInputPrice(uint256)"
                    },
                    "errorInfo": "",
                    "fromAddress": "0x97dec872013f6b5fb443861090ad931542878126",
                    "gasUsed": 6722,
                    "id": 15,
                    "methodDecoded": true,
                    "operation": "DELEGATECALL",
                    "output": "0x0000000000000000000000000000000000000000000000000000000005c7c9ef",
                    "revert": false,
                    "revertMessage": "",
                    "selector": "0xcd7724c3",
                    "status": true,
                    "value": "0"
                },
                "nodeType": 0
            },
            "16": {
                "invocation": {
                    "address": "0xa0b86991c6218b36c1d19d4a2e9eb0ce3606eb48",
                    "callData": "0x00000000000000000000000097dec872013f6b5fb443861090ad931542878126",
                    "decodedMethod": {
                        "callParams": [
                            {
                                "name": "account",
                                "type": "address",
                                "value": "0x97dec872013f6b5fb443861090ad931542878126"
                            }
                        ],
                        "constructorArguments": "",
                        "name": "balanceOf",
                        "returnParams": [
                            {
                                "decimalAvailable": true,
                                "name": "",
                                "type": "uint256",
                                "value": "71,120,253,835"
                            }
                        ],
                        "signature": "balanceOf(address)"
                    },
                    "errorInfo": "",
                    "fromAddress": "0x97dec872013f6b5fb443861090ad931542878126",
                    "gasUsed": 2475,
                    "id": 16,
                    "methodDecoded": true,
                    "operation": "STATICCALL",
                    "output": "0x000000000000000000000000000000000000000000000000000000108f18f38b",
                    "revert": false,
                    "revertMessage": "",
                    "selector": "0x70a08231",
                    "status": true,
                    "value": "0"
                },
                "nodeType": 0
            },
            "17": {
                "invocation": {
                    "address": "0x0882477e7895bdc5cea7cb1552ed914ab157fe56",
                    "callData": "0x00000000000000000000000097dec872013f6b5fb443861090ad931542878126",
                    "decodedMethod": {
                        "callParams": [
                            {
                                "name": "account",
                                "type": "address",
                                "value": "0x97dec872013f6b5fb443861090ad931542878126"
                            }
                        ],
                        "constructorArguments": "",
                        "name": "balanceOf",
                        "returnParams": [
                            {
                                "decimalAvailable": true,
                                "name": "",
                                "type": "uint256",
                                "value": "71,120,253,835"
                            }
                        ],
                        "signature": "balanceOf(address)"
                    },
                    "errorInfo": "",
                    "fromAddress": "0xa0b86991c6218b36c1d19d4a2e9eb0ce3606eb48",
                    "gasUsed": 889,
                    "id": 17,
                    "methodDecoded": true,
                    "operation": "DELEGATECALL",
                    "output": "0x000000000000000000000000000000000000000000000000000000108f18f38b",
                    "revert": false,
                    "revertMessage": "",
                    "selector": "0x70a08231",
                    "status": true,
                    "value": "0"
                },
                "nodeType": 0
            },
            "18": {
                "invocation": {
                    "address": "0x97dec872013f6b5fb443861090ad931542878126",
                    "callData": "0x0000000000000000000000000000000000000000000000000000000005c7c9ef",
                    "decodedMethod": {
                        "callParams": [
                            {
                                "name": "tokens_sold",
                                "type": "uint256",
                                "value": "96,979,439"
                            }
                        ],
                        "constructorArguments": "",
                        "name": "getTokenToEthInputPrice",
                        "returnParams": [
                            {
                                "name": "out",
                                "type": "uint256",
                                "value": "449,014,473,787,839,549"
                            }
                        ],
                        "signature": "getTokenToEthInputPrice(uint256)"
                    },
                    "errorInfo": "",
                    "fromAddress": "0x5d154c145db2ca90b8ab5e8fe3e716afa4ab7ff0",
                    "gasUsed": 7985,
                    "id": 18,
                    "methodDecoded": true,
                    "operation": "CALL",
                    "output": "0x000000000000000000000000000000000000000000000000063b3848f122143d05c7c9ef00000000000000000000000000000000000000000000000000000000000000000000000000000000000000000000000000000000000000000000000000000000000000000000000000000000000000000000000000000000000000000000000000000000000000000000000000000000000000000000000000000000000000000000000000000000000000000000000000000000000000000000000000000000000000000000000000000000000000000000000000000000000000000000000000000000000000000000000000000000000000000000000000000000000000000000000000000000000000000000000000000000000000000000000000000000000000000000000000000000000000000000000000000000000000000000000000000000000000000000000000000000000000000000000000000000000000000000000000000000000000000000000000000000000000000000000000000000000000000000000000000000000000000000000000000000000000000000000000000000000000000000000000000000000000000000000000000000000000000000000000000000000000000000000000000000000000000000000000000000000000000000000000000000000000000000000000000000000000000000000000000000000000000000000000000000000000000000000000000000000000000000000000000000000000000000000000000000000000000000000000000000000000000000000000000000000000000000000000000000000000000000000000000000000000000000000000000000000000000000000000000000000000000000000000000000000000000000000000000000000000000000000000000000000000000000000000000000000000000000000000000000000000000000000000000000000000000000000000000000000000000000000000000000000000000000000000000000000000000000000000000000000000000000000000000000000000000000000000000000000000000000000000000000000000000000000000000000000000000000000000000000000000000000000000000000000000000000000000000000000000000000000000000000000000000000000000000000000000000000000000000000000000000000000000000000000000000000000000000000000000000000000000000000000000000000000000000000000000000000000000000000000000000000000000000000000000000000000000000000000000000000000000000000000000000000000000000000000000000000000000000000000000000000000000000000000000000000000000000000000000000000000000000000000000000000000000000000000000000000000000000000000000000000000000000000000000000000000000000000000000000000000000000000000000000000000000000000000000000000000000000000000000000000000000000000000000000000000000000000000000000000000000000000000000000000000000000000000000000000000000000000000000000000000000000000000000000000000000000000000000000000000000000000000000000000000000000000000000000000000000000000000000000000000000000000000000000000000000000000000000000000000000000000000000000000000000000000000000000000000000000000000000000000000000000000000000000000000000000000000000000000000000000000000000000000000000000000000000000000000000000000000000000000000000000000000000000000000000000000000000000000000000000000000000000000000000000000000000000000000000000000000000000000000000000000000000000000000000000000000000000000000000000000000000000000000000000000000000000000000000000000000000000000000000000000000000000000000000000000000000000000000000000000000000000000000000000000000000000000000000000000000000000000000000000000000000000000000000000000000000000000000000000000000000000000000000000000000000000000000000000000000000000000000000000000000000000000000000000000000000000000000000000000000000000000000000000000000000000000000000000000000000000000000000000000000000000000000000000000000000000000000000000000000000000000000000000000000000000000000000000000000000000000000000000000000000000000000000000000000000000000000000000000000000000000000000000000000000000000000000000000000000000000000000000000000000000000000000000000000000000000000000000000000000000000000000000000000000000000000000000000000000000000000000000000000000000000000000000000000000000000000000000000000000000000000000000000000000000000000000000000000000000000000000000000000000000000000000000000000000000000000000000000000000000000000000000000000000000000000000000000000000000000000000000000000000000000000000000000000000000000000000000000000000000000000000000000000000000000000000000000000000000000000000000000000000000000000000000000000000000000000000000000000000000000000000000000000000000000000000000000000000000000000000000000000000000000000000000000000000000000000000000000000000000000000000000000000000000000000000000000000000000000000000000000000000000000000000000000000000000000000000000000000000000000000000000000000000000000000000000000000000000000000000000000000000000000000000000000000000000000000000000000000000000000000000000000000000000000000000000000000000000000000000000000000000000000000000000000000000000000000000000000000000000000000000000000000000000000000000000000000000000000000000000000000000000000000000000000000000000000000000000000000000000000000000000000000000000000000000000000000000000000000000000000000000000000000000000000000000000000000000000000000000000000000000000000000000000000000000000000000000000000000000000000000000000000000000000000000000000000000000000000000000000000000000000000000000000000000000000000000000000000000000000000000000000000000000000000000000000000000000000000000000000000000000000000000000000000000000000000000000000000000000000000000000000000000000000000000000000000000000000000000000000000000000000000000000000000000000000000000000000000000000000000000000000000000000000000000000000000000000000000000000000000000000000000000000000000000000000000000000000000000000000000000000000000000000000000000000000000000000000000000000000000000000000000000000000000000000000000000000000000000000000000000000000000000000000000000000000000000000000000000000000000000000000000000000000000000000000000000000000000000000000000000000000000000000000000000000000000000000000000000000000000000000000000000000000000000000000000000000000000000000000000000000000000000000000000000000000000000000000000000000000000000000000000000000000000000000000000000000000000000000000000000000000000000000000000000000000000000000000000000000000000000000000000000000000000000000000000000000000000000000000000000000000000000000000000000000000000000000000000000000000000000000000000000000000000000000000000000000000000000000000000000000000000000000000000000000000000000000000000000000000000000000000000000000000000000000000000000000000000000000000000000000000000000000000000000000000000000000000000000000000000000000000000000000000000000000000000000000000000000000000000000000000000000000000000000000000000000000000000000000000000000000000000000000000000000000000000000000000000000000000000000000000000000000000000000000000000000000000000000000000000000000000000000000000000000000000000000000000000000000000000000000000000000000000000000000000000000000000000000000000000000000000000000000000000000000000000000000000000000000000000000000000000000000000000000000000000000000000000000000000000000000000000000000000000000000000000000000000000000000000000000000000000000000000000000000000000000000000000000000000000000000000000000000000000000000000000000000000000000000000000000000000000000000000000000000000000000000000000000000000000000000000000000000000000000000000000000000000000000000000000000000000000000000000000000000000000000000000000000000000000000000000000000000000000000000000000000000000000000000000000000000000000000000000000000000000000000000000000000000000000000000000000000000000000000000000000000000000000000000000000000000000000000000000000000000000000000000000000000000000000000000000000000000000000000000000000000000000000000000000000000000000000000000000000000000000000000000000000000000000000000000000000000000000000000000000000000000000000000000000000000000000000000000000000000000000000000000000000000000000000000000000000000000000000000000000000000000000000000000000000000000000000000000000000000000000000000000000000000000000000000000000000000000000000000000000000000000000000000000000000000000000000000000000000000000000000000000000000000000000000000000000000000000000000000000000000000000000000000000000000000000000000000000000000000000000000000000000000000000000000000000000000000000000000000000000000000000000000000000000000000000000000000000000000000000000000000000000000000000000000000000000000000000000000000000000000000000000000000000000000000000000000000000000000000000000000000000000000",
                    "revert": false,
                    "revertMessage": "",
                    "selector": "0x95b68fe7",
                    "status": true,
                    "value": "0"
                },
                "nodeType": 0
            },
            "19": {
                "invocation": {
                    "address": "0x2157a7894439191e520825fe9399ab8655e0f708",
                    "callData": "0x0000000000000000000000000000000000000000000000000000000005c7c9ef",
                    "decodedMethod": {
                        "callParams": [
                            {
                                "name": "tokens_sold",
                                "type": "uint256",
                                "value": "96,979,439"
                            }
                        ],
                        "constructorArguments": "",
                        "name": "getTokenToEthInputPrice",
                        "returnParams": [
                            {
                                "name": "out",
                                "type": "uint256",
                                "value": "449,014,473,787,839,549"
                            }
                        ],
                        "signature": "getTokenToEthInputPrice(uint256)"
                    },
                    "errorInfo": "",
                    "fromAddress": "0x97dec872013f6b5fb443861090ad931542878126",
                    "gasUsed": 6815,
                    "id": 19,
                    "methodDecoded": true,
                    "operation": "DELEGATECALL",
                    "output": "0x000000000000000000000000000000000000000000000000063b3848f122143d",
                    "revert": false,
                    "revertMessage": "",
                    "selector": "0x95b68fe7",
                    "status": true,
                    "value": "0"
                },
                "nodeType": 0
            },
            "2": {
                "invocation": {
                    "address": "0x9ae49c0d7f8f9ef4b864e004fe86ac8294e20950",
                    "callData": "0x000000000000000000000000eeeeeeeeeeeeeeeeeeeeeeeeeeeeeeeeeeeeeeee000000000000000000000000a0b86991c6218b36c1d19d4a2e9eb0ce3606eb4800000000000000000000000000000000000000000000000006507c16dccd8000",
                    "decodedMethod": {
                        "callParams": [
                            {
                                "name": "src",
                                "type": "address",
                                "value": "0xeeeeeeeeeeeeeeeeeeeeeeeeeeeeeeeeeeeeeeee"
                            },
                            {
                                "name": "dest",
                                "type": "address",
                                "value": "0xa0b86991c6218b36c1d19d4a2e9eb0ce3606eb48"
                            },
                            {
                                "name": "srcQty",
                                "type": "uint256",
                                "value": "455,000,000,000,000,000"
                            }
                        ],
                        "constructorArguments": "",
                        "name": "getExpectedRate",
                        "returnParams": [
                            {
                                "name": "expectedRate",
                                "type": "uint256",
                                "value": "215,628,432,967,032,967,032"
                            },
                            {
                                "name": "slippageRate",
                                "type": "uint256",
                                "value": "209,159,579,978,021,978,021"
                            }
                        ],
                        "signature": "getExpectedRate(address,address,uint256)"
                    },
                    "errorInfo": "",
                    "fromAddress": "0x818e6fecd516ecc3849daf6845e3ec868087b755",
                    "gasUsed": 175537,
                    "id": 2,
                    "methodDecoded": true,
                    "operation": "CALL",
                    "output": "0x00000000000000000000000000000000000000000000000bb0721555ca210f7800000000000000000000000000000000000000000000000b56ac19d0a7e7bfa5",
                    "revert": false,
                    "revertMessage": "",
                    "selector": "0x809a9e55",
                    "status": true,
                    "value": "0"
                },
                "nodeType": 0
            },
            "20": {
                "invocation": {
                    "address": "0xa0b86991c6218b36c1d19d4a2e9eb0ce3606eb48",
                    "callData": "0x00000000000000000000000097dec872013f6b5fb443861090ad931542878126",
                    "decodedMethod": {
                        "callParams": [
                            {
                                "name": "account",
                                "type": "address",
                                "value": "0x97dec872013f6b5fb443861090ad931542878126"
                            }
                        ],
                        "constructorArguments": "",
                        "name": "balanceOf",
                        "returnParams": [
                            {
                                "decimalAvailable": true,
                                "name": "",
                                "type": "uint256",
                                "value": "71,120,253,835"
                            }
                        ],
                        "signature": "balanceOf(address)"
                    },
                    "errorInfo": "",
                    "fromAddress": "0x97dec872013f6b5fb443861090ad931542878126",
                    "gasUsed": 2475,
                    "id": 20,
                    "methodDecoded": true,
                    "operation": "STATICCALL",
                    "output": "0x000000000000000000000000000000000000000000000000000000108f18f38b",
                    "revert": false,
                    "revertMessage": "",
                    "selector": "0x70a08231",
                    "status": true,
                    "value": "0"
                },
                "nodeType": 0
            },
            "21": {
                "invocation": {
                    "address": "0x0882477e7895bdc5cea7cb1552ed914ab157fe56",
                    "callData": "0x00000000000000000000000097dec872013f6b5fb443861090ad931542878126",
                    "decodedMethod": {
                        "callParams": [
                            {
                                "name": "account",
                                "type": "address",
                                "value": "0x97dec872013f6b5fb443861090ad931542878126"
                            }
                        ],
                        "constructorArguments": "",
                        "name": "balanceOf",
                        "returnParams": [
                            {
                                "decimalAvailable": true,
                                "name": "",
                                "type": "uint256",
                                "value": "71,120,253,835"
                            }
                        ],
                        "signature": "balanceOf(address)"
                    },
                    "errorInfo": "",
                    "fromAddress": "0xa0b86991c6218b36c1d19d4a2e9eb0ce3606eb48",
                    "gasUsed": 889,
                    "id": 21,
                    "methodDecoded": true,
                    "operation": "DELEGATECALL",
                    "output": "0x000000000000000000000000000000000000000000000000000000108f18f38b",
                    "revert": false,
                    "revertMessage": "",
                    "selector": "0x70a08231",
                    "status": true,
                    "value": "0"
                },
                "nodeType": 0
            },
            "22": {
                "invocation": {
                    "address": "0xa0b86991c6218b36c1d19d4a2e9eb0ce3606eb48",
                    "callData": "0x0000000000000000000000005d154c145db2ca90b8ab5e8fe3e716afa4ab7ff0",
                    "decodedMethod": {
                        "callParams": [
                            {
                                "name": "account",
                                "type": "address",
                                "value": "0x5d154c145db2ca90b8ab5e8fe3e716afa4ab7ff0"
                            }
                        ],
                        "constructorArguments": "",
                        "name": "balanceOf",
                        "returnParams": [
                            {
                                "decimalAvailable": true,
                                "name": "",
                                "type": "uint256",
                                "value": "87,136,921"
                            }
                        ],
                        "signature": "balanceOf(address)"
                    },
                    "errorInfo": "",
                    "fromAddress": "0x5d154c145db2ca90b8ab5e8fe3e716afa4ab7ff0",
                    "gasUsed": 2475,
                    "id": 22,
                    "methodDecoded": true,
                    "operation": "CALL",
                    "output": "0x0000000000000000000000000000000000000000000000000000000005319a99",
                    "revert": false,
                    "revertMessage": "",
                    "selector": "0x70a08231",
                    "status": true,
                    "value": "0"
                },
                "nodeType": 0
            },
            "23": {
                "invocation": {
                    "address": "0x0882477e7895bdc5cea7cb1552ed914ab157fe56",
                    "callData": "0x0000000000000000000000005d154c145db2ca90b8ab5e8fe3e716afa4ab7ff0",
                    "decodedMethod": {
                        "callParams": [
                            {
                                "name": "account",
                                "type": "address",
                                "value": "0x5d154c145db2ca90b8ab5e8fe3e716afa4ab7ff0"
                            }
                        ],
                        "constructorArguments": "",
                        "name": "balanceOf",
                        "returnParams": [
                            {
                                "decimalAvailable": true,
                                "name": "",
                                "type": "uint256",
                                "value": "87,136,921"
                            }
                        ],
                        "signature": "balanceOf(address)"
                    },
                    "errorInfo": "",
                    "fromAddress": "0xa0b86991c6218b36c1d19d4a2e9eb0ce3606eb48",
                    "gasUsed": 889,
                    "id": 23,
                    "methodDecoded": true,
                    "operation": "DELEGATECALL",
                    "output": "0x0000000000000000000000000000000000000000000000000000000005319a99",
                    "revert": false,
                    "revertMessage": "",
                    "selector": "0x70a08231",
                    "status": true,
                    "value": "0"
                },
                "nodeType": 0
            },
            "24": {
                "invocation": {
                    "address": "0x1670dfb52806de7789d5cf7d5c005cf7083f9a5d",
                    "callData": "0x000000000000000000000000eeeeeeeeeeeeeeeeeeeeeeeeeeeeeeeeeeeeeeee000000000000000000000000a0b86991c6218b36c1d19d4a2e9eb0ce3606eb4800000000000000000000000000000000000000000000000006507c16dccd800000000000000000000000000000000000000000000000000000000000007d8736",
                    "decodedMethod": {
                        "callParams": [
                            {
                                "name": "src",
                                "type": "address",
                                "value": "0xeeeeeeeeeeeeeeeeeeeeeeeeeeeeeeeeeeeeeeee"
                            },
                            {
                                "name": "dest",
                                "type": "address",
                                "value": "0xa0b86991c6218b36c1d19d4a2e9eb0ce3606eb48"
                            },
                            {
                                "name": "srcQty",
                                "type": "uint256",
                                "value": "455,000,000,000,000,000"
                            },
                            {
                                "name": "blockNumber",
                                "type": "uint256",
                                "value": "8,226,614"
                            }
                        ],
                        "constructorArguments": "",
                        "name": "getConversionRate",
                        "returnParams": [
                            {
                                "name": "",
                                "type": "uint256",
                                "value": "215,628,434,707,713,206,009"
                            }
                        ],
                        "signature": "getConversionRate(address,address,uint256,uint256)"
                    },
                    "errorInfo": "",
                    "fromAddress": "0x9ae49c0d7f8f9ef4b864e004fe86ac8294e20950",
                    "gasUsed": 43720,
                    "id": 24,
                    "methodDecoded": true,
                    "operation": "CALL",
                    "output": "0x00000000000000000000000000000000000000000000000bb07216eb12c1a6f9",
                    "revert": false,
                    "revertMessage": "",
                    "selector": "0x7cd44272",
                    "status": true,
                    "value": "0"
                },
                "nodeType": 0
            },
            "25": {
                "invocation": {
                    "address": "0x1c2e0792b3a346e70ae63a05d465d30618fbc3c7",
                    "callData": "0x000000000000000000000000a0b86991c6218b36c1d19d4a2e9eb0ce3606eb4800000000000000000000000000000000000000000000000000000000007d8736000000000000000000000000000000000000000000000000000000000000000100000000000000000000000000000000000000000000000006507c16dccd8000",
                    "decodedMethod": {
                        "callParams": [
                            {
                                "name": "conversionToken",
                                "type": "address",
                                "value": "0xa0b86991c6218b36c1d19d4a2e9eb0ce3606eb48"
                            },
                            {
                                "name": "currentBlockNumber",
                                "type": "uint256",
                                "value": "8,226,614"
                            },
                            {
                                "name": "buy",
                                "type": "bool",
                                "value": true
                            },
                            {
                                "name": "qtyInSrcWei",
                                "type": "uint256",
                                "value": "455,000,000,000,000,000"
                            }
                        ],
                        "constructorArguments": "",
                        "name": "getRate",
                        "returnParams": [
                            {
                                "name": "",
                                "type": "uint256",
                                "value": "215,628,434,707,713,206,009"
                            }
                        ],
                        "signature": "getRate(address,uint256,bool,uint256)"
                    },
                    "errorInfo": "",
                    "fromAddress": "0x1670dfb52806de7789d5cf7d5c005cf7083f9a5d",
                    "gasUsed": 29543,
                    "id": 25,
                    "methodDecoded": true,
                    "operation": "CALL",
                    "output": "0x00000000000000000000000000000000000000000000000bb07216eb12c1a6f9",
                    "revert": false,
                    "revertMessage": "",
                    "selector": "0xb8e9c22e",
                    "status": true,
                    "value": "0"
                },
                "nodeType": 0
            },
            "26": {
                "invocation": {
                    "address": "0xa0b86991c6218b36c1d19d4a2e9eb0ce3606eb48",
                    "callData": "0x0000000000000000000000001670dfb52806de7789d5cf7d5c005cf7083f9a5d",
                    "decodedMethod": {
                        "callParams": [
                            {
                                "name": "account",
                                "type": "address",
                                "value": "0x1670dfb52806de7789d5cf7d5c005cf7083f9a5d"
                            }
                        ],
                        "constructorArguments": "",
                        "name": "balanceOf",
                        "returnParams": [
                            {
                                "decimalAvailable": true,
                                "name": "",
                                "type": "uint256",
                                "value": "77,162,966,917"
                            }
                        ],
                        "signature": "balanceOf(address)"
                    },
                    "errorInfo": "",
                    "fromAddress": "0x1670dfb52806de7789d5cf7d5c005cf7083f9a5d",
                    "gasUsed": 2475,
                    "id": 26,
                    "methodDecoded": true,
                    "operation": "CALL",
                    "output": "0x00000000000000000000000000000000000000000000000000000011f7456f85",
                    "revert": false,
                    "revertMessage": "",
                    "selector": "0x70a08231",
                    "status": true,
                    "value": "0"
                },
                "nodeType": 0
            },
            "27": {
                "invocation": {
                    "address": "0x0882477e7895bdc5cea7cb1552ed914ab157fe56",
                    "callData": "0x0000000000000000000000001670dfb52806de7789d5cf7d5c005cf7083f9a5d",
                    "decodedMethod": {
                        "callParams": [
                            {
                                "name": "account",
                                "type": "address",
                                "value": "0x1670dfb52806de7789d5cf7d5c005cf7083f9a5d"
                            }
                        ],
                        "constructorArguments": "",
                        "name": "balanceOf",
                        "returnParams": [
                            {
                                "decimalAvailable": true,
                                "name": "",
                                "type": "uint256",
                                "value": "77,162,966,917"
                            }
                        ],
                        "signature": "balanceOf(address)"
                    },
                    "errorInfo": "",
                    "fromAddress": "0xa0b86991c6218b36c1d19d4a2e9eb0ce3606eb48",
                    "gasUsed": 889,
                    "id": 27,
                    "methodDecoded": true,
                    "operation": "DELEGATECALL",
                    "output": "0x00000000000000000000000000000000000000000000000000000011f7456f85",
                    "revert": false,
                    "revertMessage": "",
                    "selector": "0x70a08231",
                    "status": true,
                    "value": "0"
                },
                "nodeType": 0
            },
            "28": {
                "invocation": {
                    "address": "0xa0b86991c6218b36c1d19d4a2e9eb0ce3606eb48",
                    "callData": "0x0000000000000000000000001670dfb52806de7789d5cf7d5c005cf7083f9a5d0000000000000000000000001670dfb52806de7789d5cf7d5c005cf7083f9a5d",
                    "decodedMethod": {
                        "callParams": [
                            {
                                "name": "owner",
                                "type": "address",
                                "value": "0x1670dfb52806de7789d5cf7d5c005cf7083f9a5d"
                            },
                            {
                                "name": "spender",
                                "type": "address",
                                "value": "0x1670dfb52806de7789d5cf7d5c005cf7083f9a5d"
                            }
                        ],
                        "constructorArguments": "",
                        "name": "allowance",
                        "returnParams": [
                            {
                                "decimalAvailable": true,
                                "name": "",
                                "type": "uint256",
                                "value": "57,896,044,618,658,097,711,785,492,504,343,953,926,634,992,332,820,282,019,728,792,002,540,272,392,242"
                            }
                        ],
                        "signature": "allowance(address,address)"
                    },
                    "errorInfo": "",
                    "fromAddress": "0x1670dfb52806de7789d5cf7d5c005cf7083f9a5d",
                    "gasUsed": 2845,
                    "id": 28,
                    "methodDecoded": true,
                    "operation": "CALL",
                    "output": "0x7ffffffffffffffffffffffffffffffffffffffffffffffffffffeb63e649832",
                    "revert": false,
                    "revertMessage": "",
                    "selector": "0xdd62ed3e",
                    "status": true,
                    "value": "0"
                },
                "nodeType": 0
            },
            "29": {
                "invocation": {
                    "address": "0x0882477e7895bdc5cea7cb1552ed914ab157fe56",
                    "callData": "0x0000000000000000000000001670dfb52806de7789d5cf7d5c005cf7083f9a5d0000000000000000000000001670dfb52806de7789d5cf7d5c005cf7083f9a5d",
                    "decodedMethod": {
                        "callParams": [
                            {
                                "name": "owner",
                                "type": "address",
                                "value": "0x1670dfb52806de7789d5cf7d5c005cf7083f9a5d"
                            },
                            {
                                "name": "spender",
                                "type": "address",
                                "value": "0x1670dfb52806de7789d5cf7d5c005cf7083f9a5d"
                            }
                        ],
                        "constructorArguments": "",
                        "name": "allowance",
                        "returnParams": [
                            {
                                "decimalAvailable": true,
                                "name": "",
                                "type": "uint256",
                                "value": "57,896,044,618,658,097,711,785,492,504,343,953,926,634,992,332,820,282,019,728,792,002,540,272,392,242"
                            }
                        ],
                        "signature": "allowance(address,address)"
                    },
                    "errorInfo": "",
                    "fromAddress": "0xa0b86991c6218b36c1d19d4a2e9eb0ce3606eb48",
                    "gasUsed": 1256,
                    "id": 29,
                    "methodDecoded": true,
                    "operation": "DELEGATECALL",
                    "output": "0x7ffffffffffffffffffffffffffffffffffffffffffffffffffffeb63e649832",
                    "revert": false,
                    "revertMessage": "",
                    "selector": "0xdd62ed3e",
                    "status": true,
                    "value": "0"
                },
                "nodeType": 0
            },
            "3": {
                "invocation": {
                    "address": "0xb87304fbd18e669b932695d77cefdee0e8e7a6f1",
                    "callData": "0x000000000000000000000000eeeeeeeeeeeeeeeeeeeeeeeeeeeeeeeeeeeeeeee000000000000000000000000a0b86991c6218b36c1d19d4a2e9eb0ce3606eb4800000000000000000000000000000000000000000000000006507c16dccd80000000000000000000000000000000000000000000000000000000000000000001",
                    "decodedMethod": {
                        "callParams": [
                            {
                                "name": "src",
                                "type": "address",
                                "value": "0xeeeeeeeeeeeeeeeeeeeeeeeeeeeeeeeeeeeeeeee"
                            },
                            {
                                "name": "dest",
                                "type": "address",
                                "value": "0xa0b86991c6218b36c1d19d4a2e9eb0ce3606eb48"
                            },
                            {
                                "name": "srcQty",
                                "type": "uint256",
                                "value": "455,000,000,000,000,000"
                            },
                            {
                                "name": "usePermissionless",
                                "type": "bool",
                                "value": true
                            }
                        ],
                        "constructorArguments": "",
                        "name": "getExpectedRate",
                        "returnParams": [
                            {
                                "name": "expectedRate",
                                "type": "uint256",
                                "value": "215,628,432,967,032,967,032"
                            },
                            {
                                "name": "slippageRate",
                                "type": "uint256",
                                "value": "209,159,579,978,021,978,021"
                            }
                        ],
                        "signature": "getExpectedRate(address,address,uint256,bool)"
                    },
                    "errorInfo": "",
                    "fromAddress": "0x9ae49c0d7f8f9ef4b864e004fe86ac8294e20950",
                    "gasUsed": 171975,
                    "id": 3,
                    "methodDecoded": true,
                    "operation": "CALL",
                    "output": "0x00000000000000000000000000000000000000000000000bb0721555ca210f7800000000000000000000000000000000000000000000000b56ac19d0a7e7bfa5",
                    "revert": false,
                    "revertMessage": "",
                    "selector": "0xd38d2bea",
                    "status": true,
                    "value": "0"
                },
                "nodeType": 0
            },
            "30": {
                "invocation": {
                    "address": "0x7a3370075a54b187d7bd5dcebf0ff2b5552d4f7d",
                    "callData": "0x000000000000000000000000eeeeeeeeeeeeeeeeeeeeeeeeeeeeeeeeeeeeeeee000000000000000000000000a0b86991c6218b36c1d19d4a2e9eb0ce3606eb4800000000000000000000000000000000000000000000000006507c16dccd800000000000000000000000000000000000000000000000000000000000007d8736",
                    "decodedMethod": {
                        "callParams": [
                            {
                                "name": "src",
                                "type": "address",
                                "value": "0xeeeeeeeeeeeeeeeeeeeeeeeeeeeeeeeeeeeeeeee"
                            },
                            {
                                "name": "dest",
                                "type": "address",
                                "value": "0xa0b86991c6218b36c1d19d4a2e9eb0ce3606eb48"
                            },
                            {
                                "name": "srcQty",
                                "type": "uint256",
                                "value": "455,000,000,000,000,000"
                            },
                            {
                                "name": "blockNumber",
                                "type": "uint256",
                                "value": "8,226,614"
                            }
                        ],
                        "constructorArguments": "",
                        "name": "getConversionRate",
                        "returnParams": [
                            {
                                "name": "",
                                "type": "uint256",
                                "value": "214,171,162,108,452,575,000"
                            }
                        ],
                        "signature": "getConversionRate(address,address,uint256,uint256)"
                    },
                    "errorInfo": "",
                    "fromAddress": "0x9ae49c0d7f8f9ef4b864e004fe86ac8294e20950",
                    "gasUsed": 39129,
                    "id": 30,
                    "methodDecoded": true,
                    "operation": "CALL",
                    "output": "0x00000000000000000000000000000000000000000000000b9c38d135ceea9718",
                    "revert": false,
                    "revertMessage": "",
                    "selector": "0x7cd44272",
                    "status": true,
                    "value": "0"
                },
                "nodeType": 0
            },
            "31": {
                "invocation": {
                    "address": "0xfb80bfa19cae9e00f28b0f7e1023109deeb10483",
                    "callData": "0x000000000000000000000000a0b86991c6218b36c1d19d4a2e9eb0ce3606eb4800000000000000000000000000000000000000000000000000000000007d8736000000000000000000000000000000000000000000000000000000000000000100000000000000000000000000000000000000000000000006507c16dccd8000",
                    "decodedMethod": {
                        "callParams": [
                            {
                                "name": "token",
                                "type": "address",
                                "value": "0xa0b86991c6218b36c1d19d4a2e9eb0ce3606eb48"
                            },
                            {
                                "name": "currentBlockNumber",
                                "type": "uint256",
                                "value": "8,226,614"
                            },
                            {
                                "name": "buy",
                                "type": "bool",
                                "value": true
                            },
                            {
                                "name": "qty",
                                "type": "uint256",
                                "value": "455,000,000,000,000,000"
                            }
                        ],
                        "constructorArguments": "",
                        "name": "getRate",
                        "returnParams": [
                            {
                                "name": "",
                                "type": "uint256",
                                "value": "214,171,162,108,452,575,000"
                            }
                        ],
                        "signature": "getRate(address,uint256,bool,uint256)"
                    },
                    "errorInfo": "",
                    "fromAddress": "0x7a3370075a54b187d7bd5dcebf0ff2b5552d4f7d",
                    "gasUsed": 21090,
                    "id": 31,
                    "methodDecoded": true,
                    "operation": "CALL",
                    "output": "0x00000000000000000000000000000000000000000000000b9c38d135ceea9718",
                    "revert": false,
                    "revertMessage": "",
                    "selector": "0xb8e9c22e",
                    "status": true,
                    "value": "0"
                },
                "nodeType": 0
            },
            "32": {
                "invocation": {
                    "address": "0xa0b86991c6218b36c1d19d4a2e9eb0ce3606eb48",
                    "callData": "0x",
                    "decodedMethod": {
                        "callParams": [],
                        "constructorArguments": "",
                        "name": "decimals",
                        "returnParams": [
                            {
                                "name": "",
                                "type": "uint8",
                                "value": "6"
                            }
                        ],
                        "signature": "decimals()"
                    },
                    "errorInfo": "",
                    "fromAddress": "0x7a3370075a54b187d7bd5dcebf0ff2b5552d4f7d",
                    "gasUsed": 2157,
                    "id": 32,
                    "methodDecoded": true,
                    "operation": "CALL",
                    "output": "0x0000000000000000000000000000000000000000000000000000000000000006",
                    "revert": false,
                    "revertMessage": "",
                    "selector": "0x313ce567",
                    "status": true,
                    "value": "0"
                },
                "nodeType": 0
            },
            "33": {
                "invocation": {
                    "address": "0x0882477e7895bdc5cea7cb1552ed914ab157fe56",
                    "callData": "0x",
                    "decodedMethod": {
                        "callParams": [],
                        "constructorArguments": "",
                        "name": "decimals",
                        "returnParams": [
                            {
                                "name": "",
                                "type": "uint8",
                                "value": "6"
                            }
                        ],
                        "signature": "decimals()"
                    },
                    "errorInfo": "",
                    "fromAddress": "0xa0b86991c6218b36c1d19d4a2e9eb0ce3606eb48",
                    "gasUsed": 574,
                    "id": 33,
                    "methodDecoded": true,
                    "operation": "DELEGATECALL",
                    "output": "0x0000000000000000000000000000000000000000000000000000000000000006",
                    "revert": false,
                    "revertMessage": "",
                    "selector": "0x313ce567",
                    "status": true,
                    "value": "0"
                },
                "nodeType": 0
            },
            "34": {
                "invocation": {
                    "address": "0xa0b86991c6218b36c1d19d4a2e9eb0ce3606eb48",
                    "callData": "0x0000000000000000000000009787ffbd8ac920317ba43333913419f14489aa5f",
                    "decodedMethod": {
                        "callParams": [
                            {
                                "name": "account",
                                "type": "address",
                                "value": "0x9787ffbd8ac920317ba43333913419f14489aa5f"
                            }
                        ],
                        "constructorArguments": "",
                        "name": "balanceOf",
                        "returnParams": [
                            {
                                "decimalAvailable": true,
                                "name": "",
                                "type": "uint256",
                                "value": "35,000,000,000"
                            }
                        ],
                        "signature": "balanceOf(address)"
                    },
                    "errorInfo": "",
                    "fromAddress": "0x7a3370075a54b187d7bd5dcebf0ff2b5552d4f7d",
                    "gasUsed": 2475,
                    "id": 34,
                    "methodDecoded": true,
                    "operation": "CALL",
                    "output": "0x0000000000000000000000000000000000000000000000000000000826299e00",
                    "revert": false,
                    "revertMessage": "",
                    "selector": "0x70a08231",
                    "status": true,
                    "value": "0"
                },
                "nodeType": 0
            },
            "35": {
                "invocation": {
                    "address": "0x0882477e7895bdc5cea7cb1552ed914ab157fe56",
                    "callData": "0x0000000000000000000000009787ffbd8ac920317ba43333913419f14489aa5f",
                    "decodedMethod": {
                        "callParams": [
                            {
                                "name": "account",
                                "type": "address",
                                "value": "0x9787ffbd8ac920317ba43333913419f14489aa5f"
                            }
                        ],
                        "constructorArguments": "",
                        "name": "balanceOf",
                        "returnParams": [
                            {
                                "decimalAvailable": true,
                                "name": "",
                                "type": "uint256",
                                "value": "35,000,000,000"
                            }
                        ],
                        "signature": "balanceOf(address)"
                    },
                    "errorInfo": "",
                    "fromAddress": "0xa0b86991c6218b36c1d19d4a2e9eb0ce3606eb48",
                    "gasUsed": 889,
                    "id": 35,
                    "methodDecoded": true,
                    "operation": "DELEGATECALL",
                    "output": "0x0000000000000000000000000000000000000000000000000000000826299e00",
                    "revert": false,
                    "revertMessage": "",
                    "selector": "0x70a08231",
                    "status": true,
                    "value": "0"
                },
                "nodeType": 0
            },
            "36": {
                "invocation": {
                    "address": "0xa0b86991c6218b36c1d19d4a2e9eb0ce3606eb48",
                    "callData": "0x0000000000000000000000009787ffbd8ac920317ba43333913419f14489aa5f0000000000000000000000007a3370075a54b187d7bd5dcebf0ff2b5552d4f7d",
                    "decodedMethod": {
                        "callParams": [
                            {
                                "name": "owner",
                                "type": "address",
                                "value": "0x9787ffbd8ac920317ba43333913419f14489aa5f"
                            },
                            {
                                "name": "spender",
                                "type": "address",
                                "value": "0x7a3370075a54b187d7bd5dcebf0ff2b5552d4f7d"
                            }
                        ],
                        "constructorArguments": "",
                        "name": "allowance",
                        "returnParams": [
                            {
                                "decimalAvailable": true,
                                "name": "",
                                "type": "uint256",
                                "value": "115,792,089,237,316,195,423,570,985,008,687,907,853,269,984,665,640,564,039,457,584,006,203,684,294,884"
                            }
                        ],
                        "signature": "allowance(address,address)"
                    },
                    "errorInfo": "",
                    "fromAddress": "0x7a3370075a54b187d7bd5dcebf0ff2b5552d4f7d",
                    "gasUsed": 2845,
                    "id": 36,
                    "methodDecoded": true,
                    "operation": "CALL",
                    "output": "0xfffffffffffffffffffffffffffffffffffffffffffffffffffffe71fd1e10e4",
                    "revert": false,
                    "revertMessage": "",
                    "selector": "0xdd62ed3e",
                    "status": true,
                    "value": "0"
                },
                "nodeType": 0
            },
            "37": {
                "invocation": {
                    "address": "0x0882477e7895bdc5cea7cb1552ed914ab157fe56",
                    "callData": "0x0000000000000000000000009787ffbd8ac920317ba43333913419f14489aa5f0000000000000000000000007a3370075a54b187d7bd5dcebf0ff2b5552d4f7d",
                    "decodedMethod": {
                        "callParams": [
                            {
                                "name": "owner",
                                "type": "address",
                                "value": "0x9787ffbd8ac920317ba43333913419f14489aa5f"
                            },
                            {
                                "name": "spender",
                                "type": "address",
                                "value": "0x7a3370075a54b187d7bd5dcebf0ff2b5552d4f7d"
                            }
                        ],
                        "constructorArguments": "",
                        "name": "allowance",
                        "returnParams": [
                            {
                                "decimalAvailable": true,
                                "name": "",
                                "type": "uint256",
                                "value": "115,792,089,237,316,195,423,570,985,008,687,907,853,269,984,665,640,564,039,457,584,006,203,684,294,884"
                            }
                        ],
                        "signature": "allowance(address,address)"
                    },
                    "errorInfo": "",
                    "fromAddress": "0xa0b86991c6218b36c1d19d4a2e9eb0ce3606eb48",
                    "gasUsed": 1256,
                    "id": 37,
                    "methodDecoded": true,
                    "operation": "DELEGATECALL",
                    "output": "0xfffffffffffffffffffffffffffffffffffffffffffffffffffffe71fd1e10e4",
                    "revert": false,
                    "revertMessage": "",
                    "selector": "0xdd62ed3e",
                    "status": true,
                    "value": "0"
                },
                "nodeType": 0
            },
            "38": {
                "invocation": {
                    "address": "0xa0b86991c6218b36c1d19d4a2e9eb0ce3606eb48",
                    "callData": "0x",
                    "decodedMethod": {
                        "callParams": [],
                        "constructorArguments": "",
                        "name": "decimals",
                        "returnParams": [
                            {
                                "name": "",
                                "type": "uint8",
                                "value": "6"
                            }
                        ],
                        "signature": "decimals()"
                    },
                    "errorInfo": "",
                    "fromAddress": "0x00000000016697fa9a9c8e2889e28d3d9816a078",
                    "gasUsed": 2157,
                    "id": 38,
                    "methodDecoded": true,
                    "operation": "STATICCALL",
                    "output": "0x0000000000000000000000000000000000000000000000000000000000000006",
                    "revert": false,
                    "revertMessage": "",
                    "selector": "0x313ce567",
                    "status": true,
                    "value": "0"
                },
                "nodeType": 0
            },
            "39": {
                "invocation": {
                    "address": "0x0882477e7895bdc5cea7cb1552ed914ab157fe56",
                    "callData": "0x",
                    "decodedMethod": {
                        "callParams": [],
                        "constructorArguments": "",
                        "name": "decimals",
                        "returnParams": [
                            {
                                "name": "",
                                "type": "uint8",
                                "value": "6"
                            }
                        ],
                        "signature": "decimals()"
                    },
                    "errorInfo": "",
                    "fromAddress": "0xa0b86991c6218b36c1d19d4a2e9eb0ce3606eb48",
                    "gasUsed": 574,
                    "id": 39,
                    "methodDecoded": true,
                    "operation": "DELEGATECALL",
                    "output": "0x0000000000000000000000000000000000000000000000000000000000000006",
                    "revert": false,
                    "revertMessage": "",
                    "selector": "0x313ce567",
                    "status": true,
                    "value": "0"
                },
                "nodeType": 0
            },
            "4": {
                "invocation": {
                    "address": "0x9ae49c0d7f8f9ef4b864e004fe86ac8294e20950",
                    "callData": "0x000000000000000000000000eeeeeeeeeeeeeeeeeeeeeeeeeeeeeeeeeeeeeeee000000000000000000000000a0b86991c6218b36c1d19d4a2e9eb0ce3606eb4800000000000000000000000000000000000000000000000006507c16dccd8000",
                    "decodedMethod": {
                        "callParams": [
                            {
                                "name": "src",
                                "type": "address",
                                "value": "0xeeeeeeeeeeeeeeeeeeeeeeeeeeeeeeeeeeeeeeee"
                            },
                            {
                                "name": "dest",
                                "type": "address",
                                "value": "0xa0b86991c6218b36c1d19d4a2e9eb0ce3606eb48"
                            },
                            {
                                "name": "srcAmount",
                                "type": "uint256",
                                "value": "455,000,000,000,000,000"
                            }
                        ],
                        "constructorArguments": "",
                        "name": "findBestRate",
                        "returnParams": [
                            {
                                "name": "obsolete",
                                "type": "uint256",
                                "value": "0"
                            },
                            {
                                "name": "rate",
                                "type": "uint256",
                                "value": "215,628,432,967,032,967,032"
                            }
                        ],
                        "signature": "findBestRate(address,address,uint256)"
                    },
                    "errorInfo": "",
                    "fromAddress": "0xb87304fbd18e669b932695d77cefdee0e8e7a6f1",
                    "gasUsed": 168327,
                    "id": 4,
                    "methodDecoded": true,
                    "operation": "STATICCALL",
                    "output": "0x000000000000000000000000000000000000000000000000000000000000000000000000000000000000000000000000000000000000000bb0721555ca210f78",
                    "revert": false,
                    "revertMessage": "",
                    "selector": "0xb8388aca",
                    "status": true,
                    "value": "0"
                },
                "nodeType": 0
            },
            "40": {
                "invocation": {
                    "address": "0xcab6778cbcbf7cf1af34aeb045f1789781e84f09",
                    "callData": "0x",
                    "decodedMethod": null,
                    "errorInfo": "",
                    "fromAddress": "0x00000000016697fa9a9c8e2889e28d3d9816a078",
                    "gasUsed": 0,
                    "id": 40,
                    "methodDecoded": false,
                    "operation": "CALL",
                    "output": "",
                    "revert": false,
                    "revertMessage": "",
                    "selector": "fallback",
                    "status": true,
                    "value": "0.000184905203580405"
                },
                "nodeType": 0
            },
            "5": {
                "invocation": {
                    "address": "0x21433dec9cb634a23c6a4bbcce08c83f5ac2ec18",
                    "callData": "0x000000000000000000000000eeeeeeeeeeeeeeeeeeeeeeeeeeeeeeeeeeeeeeee000000000000000000000000a0b86991c6218b36c1d19d4a2e9eb0ce3606eb4800000000000000000000000000000000000000000000000006507c16dccd800000000000000000000000000000000000000000000000000000000000007d8736",
                    "decodedMethod": {
                        "callParams": [
                            {
                                "name": "src",
                                "type": "address",
                                "value": "0xeeeeeeeeeeeeeeeeeeeeeeeeeeeeeeeeeeeeeeee"
                            },
                            {
                                "name": "dest",
                                "type": "address",
                                "value": "0xa0b86991c6218b36c1d19d4a2e9eb0ce3606eb48"
                            },
                            {
                                "name": "srcQty",
                                "type": "uint256",
                                "value": "455,000,000,000,000,000"
                            },
                            {
                                "name": "blockNumber",
                                "type": "uint256",
                                "value": "8,226,614"
                            }
                        ],
                        "constructorArguments": "",
                        "name": "getConversionRate",
                        "returnParams": [
                            {
                                "name": "",
                                "type": "uint256",
                                "value": "204,777,430,440,827,000,000"
                            }
                        ],
                        "signature": "getConversionRate(address,address,uint256,uint256)"
                    },
                    "errorInfo": "",
                    "fromAddress": "0x9ae49c0d7f8f9ef4b864e004fe86ac8294e20950",
                    "gasUsed": 36090,
                    "id": 5,
                    "methodDecoded": true,
                    "operation": "CALL",
                    "output": "0x00000000000000000000000000000000000000000000000b19db940752c194c0",
                    "revert": false,
                    "revertMessage": "",
                    "selector": "0x7cd44272",
                    "status": true,
                    "value": "0"
                },
                "nodeType": 0
            },
            "6": {
                "invocation": {
                    "address": "0x097b3b7cb01945ba7e76804ddc2fdda2cce6ef43",
                    "callData": "0x000000000000000000000000a0b86991c6218b36c1d19d4a2e9eb0ce3606eb4800000000000000000000000000000000000000000000000000000000007d8736000000000000000000000000000000000000000000000000000000000000000100000000000000000000000000000000000000000000000006507c16dccd8000",
                    "decodedMethod": {
                        "callParams": [
                            {
                                "name": "token",
                                "type": "address",
                                "value": "0xa0b86991c6218b36c1d19d4a2e9eb0ce3606eb48"
                            },
                            {
                                "name": "currentBlockNumber",
                                "type": "uint256",
                                "value": "8,226,614"
                            },
                            {
                                "name": "buy",
                                "type": "bool",
                                "value": true
                            },
                            {
                                "name": "qty",
                                "type": "uint256",
                                "value": "455,000,000,000,000,000"
                            }
                        ],
                        "constructorArguments": "",
                        "name": "getRate",
                        "returnParams": [
                            {
                                "name": "",
                                "type": "uint256",
                                "value": "204,777,430,440,827,000,000"
                            }
                        ],
                        "signature": "getRate(address,uint256,bool,uint256)"
                    },
                    "errorInfo": "",
                    "fromAddress": "0x21433dec9cb634a23c6a4bbcce08c83f5ac2ec18",
                    "gasUsed": 18051,
                    "id": 6,
                    "methodDecoded": true,
                    "operation": "CALL",
                    "output": "0x00000000000000000000000000000000000000000000000b19db940752c194c0",
                    "revert": false,
                    "revertMessage": "",
                    "selector": "0xb8e9c22e",
                    "status": true,
                    "value": "0"
                },
                "nodeType": 0
            },
            "7": {
                "invocation": {
                    "address": "0xa0b86991c6218b36c1d19d4a2e9eb0ce3606eb48",
                    "callData": "0x",
                    "decodedMethod": {
                        "callParams": [],
                        "constructorArguments": "",
                        "name": "decimals",
                        "returnParams": [
                            {
                                "name": "",
                                "type": "uint8",
                                "value": "6"
                            }
                        ],
                        "signature": "decimals()"
                    },
                    "errorInfo": "",
                    "fromAddress": "0x21433dec9cb634a23c6a4bbcce08c83f5ac2ec18",
                    "gasUsed": 2157,
                    "id": 7,
                    "methodDecoded": true,
                    "operation": "CALL",
                    "output": "0x0000000000000000000000000000000000000000000000000000000000000006",
                    "revert": false,
                    "revertMessage": "",
                    "selector": "0x313ce567",
                    "status": true,
                    "value": "0"
                },
                "nodeType": 0
            },
            "8": {
                "invocation": {
                    "address": "0x0882477e7895bdc5cea7cb1552ed914ab157fe56",
                    "callData": "0x",
                    "decodedMethod": {
                        "callParams": [],
                        "constructorArguments": "",
                        "name": "decimals",
                        "returnParams": [
                            {
                                "name": "",
                                "type": "uint8",
                                "value": "6"
                            }
                        ],
                        "signature": "decimals()"
                    },
                    "errorInfo": "",
                    "fromAddress": "0xa0b86991c6218b36c1d19d4a2e9eb0ce3606eb48",
                    "gasUsed": 574,
                    "id": 8,
                    "methodDecoded": true,
                    "operation": "DELEGATECALL",
                    "output": "0x0000000000000000000000000000000000000000000000000000000000000006",
                    "revert": false,
                    "revertMessage": "",
                    "selector": "0x313ce567",
                    "status": true,
                    "value": "0"
                },
                "nodeType": 0
            },
            "9": {
                "invocation": {
                    "address": "0xa0b86991c6218b36c1d19d4a2e9eb0ce3606eb48",
                    "callData": "0x0000000000000000000000006924a03bb710eaf199ab6ac9f2bb148215ae9b5d",
                    "decodedMethod": {
                        "callParams": [
                            {
                                "name": "account",
                                "type": "address",
                                "value": "0x6924a03bb710eaf199ab6ac9f2bb148215ae9b5d"
                            }
                        ],
                        "constructorArguments": "",
                        "name": "balanceOf",
                        "returnParams": [
                            {
                                "decimalAvailable": true,
                                "name": "",
                                "type": "uint256",
                                "value": "59,544,115,374"
                            }
                        ],
                        "signature": "balanceOf(address)"
                    },
                    "errorInfo": "",
                    "fromAddress": "0x21433dec9cb634a23c6a4bbcce08c83f5ac2ec18",
                    "gasUsed": 2475,
                    "id": 9,
                    "methodDecoded": true,
                    "operation": "CALL",
                    "output": "0x0000000000000000000000000000000000000000000000000000000ddd1b18ae",
                    "revert": false,
                    "revertMessage": "",
                    "selector": "0x70a08231",
                    "status": true,
                    "value": "0"
                },
                "nodeType": 0
            }
        },
        "gasFlame": [
            {
                "children": [
                    {
                        "children": [
                            {
                                "children": [],
                                "depth": 0,
                                "name": "Initial Gas",
                                "value": 24792
                            },
                            {
                                "children": [
                                    {
                                        "children": [
                                            {
                                                "children": [
                                                    {
                                                        "children": [
                                                            {
                                                                "children": [
                                                                    {
                                                                        "children": [
                                                                            {
                                                                                "children": [],
                                                                                "depth": 6,
                                                                                "name": "getRate",
                                                                                "value": 18051
                                                                            },
                                                                            {
                                                                                "children": [
                                                                                    {
                                                                                        "children": [],
                                                                                        "depth": 7,
                                                                                        "name": "decimals",
                                                                                        "value": 574
                                                                                    }
                                                                                ],
                                                                                "depth": 6,
                                                                                "name": "decimals",
                                                                                "value": 2157
                                                                            },
                                                                            {
                                                                                "children": [
                                                                                    {
                                                                                        "children": [],
                                                                                        "depth": 7,
                                                                                        "name": "balanceOf",
                                                                                        "value": 889
                                                                                    }
                                                                                ],
                                                                                "depth": 6,
                                                                                "name": "balanceOf",
                                                                                "value": 2475
                                                                            },
                                                                            {
                                                                                "children": [
                                                                                    {
                                                                                        "children": [],
                                                                                        "depth": 7,
                                                                                        "name": "allowance",
                                                                                        "value": 1256
                                                                                    }
                                                                                ],
                                                                                "depth": 6,
                                                                                "name": "allowance",
                                                                                "value": 2845
                                                                            }
                                                                        ],
                                                                        "depth": 5,
                                                                        "name": "getConversionRate",
                                                                        "value": 36090
                                                                    },
                                                                    {
                                                                        "children": [
                                                                            {
                                                                                "children": [
                                                                                    {
                                                                                        "children": [
                                                                                            {
                                                                                                "children": [
                                                                                                    {
                                                                                                        "children": [],
                                                                                                        "depth": 9,
                                                                                                        "name": "balanceOf",
                                                                                                        "value": 889
                                                                                                    }
                                                                                                ],
                                                                                                "depth": 8,
                                                                                                "name": "balanceOf",
                                                                                                "value": 2475
                                                                                            }
                                                                                        ],
                                                                                        "depth": 7,
                                                                                        "name": "getEthToTokenInputPrice",
                                                                                        "value": 6722
                                                                                    }
                                                                                ],
                                                                                "depth": 6,
                                                                                "name": "getEthToTokenInputPrice",
                                                                                "value": 7892
                                                                            },
                                                                            {
                                                                                "children": [
                                                                                    {
                                                                                        "children": [
                                                                                            {
                                                                                                "children": [
                                                                                                    {
                                                                                                        "children": [],
                                                                                                        "depth": 9,
                                                                                                        "name": "balanceOf",
                                                                                                        "value": 889
                                                                                                    }
                                                                                                ],
                                                                                                "depth": 8,
                                                                                                "name": "balanceOf",
                                                                                                "value": 2475
                                                                                            }
                                                                                        ],
                                                                                        "depth": 7,
                                                                                        "name": "getTokenToEthInputPrice",
                                                                                        "value": 6815
                                                                                    }
                                                                                ],
                                                                                "depth": 6,
                                                                                "name": "getTokenToEthInputPrice",
                                                                                "value": 7985
                                                                            },
                                                                            {
                                                                                "children": [
                                                                                    {
                                                                                        "children": [],
                                                                                        "depth": 7,
                                                                                        "name": "balanceOf",
                                                                                        "value": 889
                                                                                    }
                                                                                ],
                                                                                "depth": 6,
                                                                                "name": "balanceOf",
                                                                                "value": 2475
                                                                            }
                                                                        ],
                                                                        "depth": 5,
                                                                        "name": "getConversionRate",
                                                                        "value": 30059
                                                                    },
                                                                    {
                                                                        "children": [
                                                                            {
                                                                                "children": [],
                                                                                "depth": 6,
                                                                                "name": "getRate",
                                                                                "value": 29543
                                                                            },
                                                                            {
                                                                                "children": [
                                                                                    {
                                                                                        "children": [],
                                                                                        "depth": 7,
                                                                                        "name": "balanceOf",
                                                                                        "value": 889
                                                                                    }
                                                                                ],
                                                                                "depth": 6,
                                                                                "name": "balanceOf",
                                                                                "value": 2475
                                                                            },
                                                                            {
                                                                                "children": [
                                                                                    {
                                                                                        "children": [],
                                                                                        "depth": 7,
                                                                                        "name": "allowance",
                                                                                        "value": 1256
                                                                                    }
                                                                                ],
                                                                                "depth": 6,
                                                                                "name": "allowance",
                                                                                "value": 2845
                                                                            }
                                                                        ],
                                                                        "depth": 5,
                                                                        "name": "getConversionRate",
                                                                        "value": 43720
                                                                    },
                                                                    {
                                                                        "children": [
                                                                            {
                                                                                "children": [],
                                                                                "depth": 6,
                                                                                "name": "getRate",
                                                                                "value": 21090
                                                                            },
                                                                            {
                                                                                "children": [
                                                                                    {
                                                                                        "children": [],
                                                                                        "depth": 7,
                                                                                        "name": "decimals",
                                                                                        "value": 574
                                                                                    }
                                                                                ],
                                                                                "depth": 6,
                                                                                "name": "decimals",
                                                                                "value": 2157
                                                                            },
                                                                            {
                                                                                "children": [
                                                                                    {
                                                                                        "children": [],
                                                                                        "depth": 7,
                                                                                        "name": "balanceOf",
                                                                                        "value": 889
                                                                                    }
                                                                                ],
                                                                                "depth": 6,
                                                                                "name": "balanceOf",
                                                                                "value": 2475
                                                                            },
                                                                            {
                                                                                "children": [
                                                                                    {
                                                                                        "children": [],
                                                                                        "depth": 7,
                                                                                        "name": "allowance",
                                                                                        "value": 1256
                                                                                    }
                                                                                ],
                                                                                "depth": 6,
                                                                                "name": "allowance",
                                                                                "value": 2845
                                                                            }
                                                                        ],
                                                                        "depth": 5,
                                                                        "name": "getConversionRate",
                                                                        "value": 39129
                                                                    }
                                                                ],
                                                                "depth": 4,
                                                                "name": "findBestRate",
                                                                "value": 168327
                                                            }
                                                        ],
                                                        "depth": 3,
                                                        "name": "getExpectedRate",
                                                        "value": 171975
                                                    }
                                                ],
                                                "depth": 2,
                                                "name": "getExpectedRate",
                                                "value": 175537
                                            }
                                        ],
                                        "depth": 1,
                                        "name": "getExpectedRate",
                                        "value": 178367
                                    },
                                    {
                                        "children": [
                                            {
                                                "children": [],
                                                "depth": 2,
                                                "name": "decimals",
                                                "value": 574
                                            }
                                        ],
                                        "depth": 1,
                                        "name": "decimals",
                                        "value": 2157
                                    },
                                    {
                                        "children": [],
                                        "depth": 1,
                                        "name": "fallback",
                                        "value": 0
                                    }
                                ],
                                "depth": 0,
                                "name": "Executed Gas",
                                "value": 192825
                            }
                        ],
                        "depth": -1,
                        "name": "Actual Gas Used",
                        "value": 217617
                    },
                    {
                        "children": [],
                        "depth": -1,
                        "name": "Refunded Gas",
                        "value": 0
                    }
                ],
                "depth": -2,
                "name": "Total Gas",
                "value": 217617
            }
        ],
        "isConfirmed": true,
        "mainTrace": [
            {
                "children": [
                    {
                        "children": [
                            {
                                "children": [
                                    {
                                        "children": [
                                            {
                                                "children": [
                                                    {
                                                        "children": [
                                                            {
                                                                "children": [
                                                                    {
                                                                        "children": [],
                                                                        "depth": 6,
                                                                        "id": 6,
                                                                        "order": 6
                                                                    },
                                                                    {
                                                                        "children": [
                                                                            {
                                                                                "children": [],
                                                                                "depth": 7,
                                                                                "id": 8,
                                                                                "order": 8
                                                                            }
                                                                        ],
                                                                        "depth": 6,
                                                                        "id": 7,
                                                                        "order": 7
                                                                    },
                                                                    {
                                                                        "children": [
                                                                            {
                                                                                "children": [],
                                                                                "depth": 7,
                                                                                "id": 10,
                                                                                "order": 10
                                                                            }
                                                                        ],
                                                                        "depth": 6,
                                                                        "id": 9,
                                                                        "order": 9
                                                                    },
                                                                    {
                                                                        "children": [
                                                                            {
                                                                                "children": [],
                                                                                "depth": 7,
                                                                                "id": 12,
                                                                                "order": 12
                                                                            }
                                                                        ],
                                                                        "depth": 6,
                                                                        "id": 11,
                                                                        "order": 11
                                                                    }
                                                                ],
                                                                "depth": 5,
                                                                "id": 5,
                                                                "order": 5
                                                            },
                                                            {
                                                                "children": [
                                                                    {
                                                                        "children": [
                                                                            {
                                                                                "children": [
                                                                                    {
                                                                                        "children": [
                                                                                            {
                                                                                                "children": [],
                                                                                                "depth": 9,
                                                                                                "id": 17,
                                                                                                "order": 17
                                                                                            }
                                                                                        ],
                                                                                        "depth": 8,
                                                                                        "id": 16,
                                                                                        "order": 16
                                                                                    }
                                                                                ],
                                                                                "depth": 7,
                                                                                "id": 15,
                                                                                "order": 15
                                                                            }
                                                                        ],
                                                                        "depth": 6,
                                                                        "id": 14,
                                                                        "order": 14
                                                                    },
                                                                    {
                                                                        "children": [
                                                                            {
                                                                                "children": [
                                                                                    {
                                                                                        "children": [
                                                                                            {
                                                                                                "children": [],
                                                                                                "depth": 9,
                                                                                                "id": 21,
                                                                                                "order": 21
                                                                                            }
                                                                                        ],
                                                                                        "depth": 8,
                                                                                        "id": 20,
                                                                                        "order": 20
                                                                                    }
                                                                                ],
                                                                                "depth": 7,
                                                                                "id": 19,
                                                                                "order": 19
                                                                            }
                                                                        ],
                                                                        "depth": 6,
                                                                        "id": 18,
                                                                        "order": 18
                                                                    },
                                                                    {
                                                                        "children": [
                                                                            {
                                                                                "children": [],
                                                                                "depth": 7,
                                                                                "id": 23,
                                                                                "order": 23
                                                                            }
                                                                        ],
                                                                        "depth": 6,
                                                                        "id": 22,
                                                                        "order": 22
                                                                    }
                                                                ],
                                                                "depth": 5,
                                                                "id": 13,
                                                                "order": 13
                                                            },
                                                            {
                                                                "children": [
                                                                    {
                                                                        "children": [],
                                                                        "depth": 6,
                                                                        "id": 25,
                                                                        "order": 25
                                                                    },
                                                                    {
                                                                        "children": [
                                                                            {
                                                                                "children": [],
                                                                                "depth": 7,
                                                                                "id": 27,
                                                                                "order": 27
                                                                            }
                                                                        ],
                                                                        "depth": 6,
                                                                        "id": 26,
                                                                        "order": 26
                                                                    },
                                                                    {
                                                                        "children": [
                                                                            {
                                                                                "children": [],
                                                                                "depth": 7,
                                                                                "id": 29,
                                                                                "order": 29
                                                                            }
                                                                        ],
                                                                        "depth": 6,
                                                                        "id": 28,
                                                                        "order": 28
                                                                    }
                                                                ],
                                                                "depth": 5,
                                                                "id": 24,
                                                                "order": 24
                                                            },
                                                            {
                                                                "children": [
                                                                    {
                                                                        "children": [],
                                                                        "depth": 6,
                                                                        "id": 31,
                                                                        "order": 31
                                                                    },
                                                                    {
                                                                        "children": [
                                                                            {
                                                                                "children": [],
                                                                                "depth": 7,
                                                                                "id": 33,
                                                                                "order": 33
                                                                            }
                                                                        ],
                                                                        "depth": 6,
                                                                        "id": 32,
                                                                        "order": 32
                                                                    },
                                                                    {
                                                                        "children": [
                                                                            {
                                                                                "children": [],
                                                                                "depth": 7,
                                                                                "id": 35,
                                                                                "order": 35
                                                                            }
                                                                        ],
                                                                        "depth": 6,
                                                                        "id": 34,
                                                                        "order": 34
                                                                    },
                                                                    {
                                                                        "children": [
                                                                            {
                                                                                "children": [],
                                                                                "depth": 7,
                                                                                "id": 37,
                                                                                "order": 37
                                                                            }
                                                                        ],
                                                                        "depth": 6,
                                                                        "id": 36,
                                                                        "order": 36
                                                                    }
                                                                ],
                                                                "depth": 5,
                                                                "id": 30,
                                                                "order": 30
                                                            }
                                                        ],
                                                        "depth": 4,
                                                        "id": 4,
                                                        "order": 4
                                                    }
                                                ],
                                                "depth": 3,
                                                "id": 3,
                                                "order": 3
                                            }
                                        ],
                                        "depth": 2,
                                        "id": 2,
                                        "order": 2
                                    }
                                ],
                                "depth": 1,
                                "id": 1,
                                "order": 1
                            },
                            {
                                "children": [
                                    {
                                        "children": [],
                                        "depth": 2,
                                        "id": 39,
                                        "order": 39
                                    }
                                ],
                                "depth": 1,
                                "id": 38,
                                "order": 38
                            },
                            {
                                "children": [],
                                "depth": 1,
                                "id": 40,
                                "order": 40
                            }
                        ],
                        "depth": 0,
                        "id": 0,
                        "order": 0
                    }
                ],
                "depth": -1,
                "id": -1,
                "order": -1
            }
        ],
        "mainTraceNodeCount": 41,
        "parentIdMap": {
            "0": -1,
            "1": 0,
            "10": 9,
            "11": 5,
            "12": 11,
            "13": 4,
            "14": 13,
            "15": 14,
            "16": 15,
            "17": 16,
            "18": 13,
            "19": 18,
            "2": 1,
            "20": 19,
            "21": 20,
            "22": 13,
            "23": 22,
            "24": 4,
            "25": 24,
            "26": 24,
            "27": 26,
            "28": 24,
            "29": 28,
            "3": 2,
            "30": 4,
            "31": 30,
            "32": 30,
            "33": 32,
            "34": 30,
            "35": 34,
            "36": 30,
            "37": 36,
            "38": 0,
            "39": 38,
            "4": 3,
            "40": 0,
            "5": 4,
            "6": 5,
            "7": 5,
            "8": 7,
            "9": 5
        },
        "tidyTrace": [
            {
                "children": [
                    {
                        "children": [
                            {
                                "children": [],
                                "depth": 1,
                                "id": 40,
                                "order": 40
                            }
                        ],
                        "depth": 0,
                        "id": 0,
                        "order": 0
                    }
                ],
                "depth": -1,
                "id": -1,
                "order": -1
            }
        ],
        "tidyTraceNodeCount": 2
    },
    "state_change": {
        "stateChanges": []
    }
}