{
    "balance_change": {
        "balanceChanges": [
            {
                "account": "0xf63246f4df508eba748df25daa8bd96816a668ba",
                "assets": [
                    {
                        "address": "0xeeeeeeeeeeeeeeeeeeeeeeeeeeeeeeeeeeeeeeee",
                        "amount": "1.789148379164505983",
                        "iconUrl": "https://assets.blocksec.com/image/1663669189317-3.png",
                        "isERC1155": false,
                        "isERC721": false,
                        "sign": true,
                        "value": ""
                    },
                    {
                        "address": "0xaaaf91d9b90df800df4f55c205fd6989c977e73a",
                        "amount": "1,000",
                        "iconUrl": "https://assets.blocksec.com/icon/1dae411d67e7c3adebedcff7a46747ad6b63bc2bab35297f816ff24439579cc7.png",
                        "isERC1155": false,
                        "isERC721": false,
                        "sign": false,
                        "value": ""
                    }
                ]
            },
            {
                "account": "0xb6cfbf322db47d39331e306005dc7e5e6549942b",
                "assets": [
                    {
                        "address": "0xeeeeeeeeeeeeeeeeeeeeeeeeeeeeeeeeeeeeeeee",
                        "amount": "1.789148379164505983",
                        "iconUrl": "https://assets.blocksec.com/image/1663669189317-3.png",
                        "isERC1155": false,
                        "isERC721": false,
                        "sign": false,
                        "value": ""
                    },
                    {
                        "address": "0xaaaf91d9b90df800df4f55c205fd6989c977e73a",
                        "amount": "1,000",
                        "iconUrl": "https://assets.blocksec.com/icon/1dae411d67e7c3adebedcff7a46747ad6b63bc2bab35297f816ff24439579cc7.png",
                        "isERC1155": false,
                        "isERC721": false,
                        "sign": true,
                        "value": ""
                    }
                ]
            }
        ]
    },
    "profile": {
        "basic_info": {
            "baseFee": "",
            "blockNumber": 7789270,
            "callData": "0x95e3c50b000000000000000000000000000000000000000000000000000000174876e8000000000000000000000000000000000000000000000000001874fcacf5f8bc000000000000000000000000000000000000000000000000000000016acf14d6e8",
            "debugEnable": true,
            "errorInfo": "",
            "eventCount": 2,
            "feeRecipient": "0x5a0b54d5dc17e0aadc383d2db43b0a0d3e029c4c",
            "formatValue": "0",
            "gasLimit": 92496,
            "gasPrice": "21",
            "gasUsed": 61095,
            "intTxnCount": 4,
            "internalRevert": false,
            "internalRevertMessage": "",
            "isContractCreation": false,
            "isFlashloan": false,
            "maxFee": "",
            "nonce": 1232,
            "overwritedBlockNumber": -1,
            "priorityFee": "",
            "receiver": "0xb6cfbf322db47d39331e306005dc7e5e6549942b",
            "revertMessage": "",
            "sender": "0xf63246f4df508eba748df25daa8bd96816a668ba",
            "simulationEnable": true,
            "sourceTxnHash": "0xd8368fd800d523647ae0e8c1b28d2f71d880fedd9c91a98e090de0554640c536",
            "status": true,
            "timestamp": "2019-05-19T07:54:21Z",
            "transactionFee": "0.001282995",
            "txnHash": "0xd8368fd800d523647ae0e8c1b28d2f71d880fedd9c91a98e090de0554640c536",
            "txnIndex": 248,
            "type": 0,
            "value": "0"
        },
        "fund_flow": [
            {
                "amount": "1.789148379164505983",
                "from": "0xb6cfbf322db47d39331e306005dc7e5e6549942b",
                "id": 1,
                "isERC1155": false,
                "isERC721": false,
                "isReverted": false,
                "order": 1,
                "to": "0xf63246f4df508eba748df25daa8bd96816a668ba",
                "token": "0xeeeeeeeeeeeeeeeeeeeeeeeeeeeeeeeeeeeeeeee"
            },
            {
                "amount": "1,000",
                "from": "0xf63246f4df508eba748df25daa8bd96816a668ba",
                "id": 2,
                "isERC1155": false,
                "isERC721": false,
                "isReverted": false,
                "order": 2,
                "to": "0xb6cfbf322db47d39331e306005dc7e5e6549942b",
                "token": "0xaaaf91d9b90df800df4f55c205fd6989c977e73a"
            }
        ],
        "token_infos": [
            {
                "address": "0xeeeeeeeeeeeeeeeeeeeeeeeeeeeeeeeeeeeeeeee",
                "decimals": 18
            },
            {
                "address": "0xaaaf91d9b90df800df4f55c205fd6989c977e73a",
                "decimals": 8
            },
            {
                "address": "0xc02aaa39b223fe8d0a0e5c4f27ead9083c756cc2",
                "decimals": 18
            }
        ]
    },
    "address_label": {
        "labels": [
            {
                "address": "0x0000000000000000000000000000000000000001",
                "label": "Precompiled"
            },
            {
                "address": "0x0000000000000000000000000000000000000002",
                "label": "Precompiled"
            },
            {
                "address": "0x0000000000000000000000000000000000000003",
                "label": "Precompiled"
            },
            {
                "address": "0x0000000000000000000000000000000000000004",
                "label": "Precompiled"
            },
            {
                "address": "0xeeeeeeeeeeeeeeeeeeeeeeeeeeeeeeeeeeeeeeee",
                "label": "Ether"
            },
            {
                "address": "0xaaaf91d9b90df800df4f55c205fd6989c977e73a",
                "label": "Monolith: TKN Token"
            },
            {
                "address": "0x2157a7894439191e520825fe9399ab8655e0f708",
                "label": "Uniswap Exchange Template"
            },
            {
                "address": "0xb6cfbf322db47d39331e306005dc7e5e6549942b",
                "label": "Uniswap: TKN"
            }
        ]
    },
    "trace": {
        "accountLabels": null,
        "dataMap": {
            "-1": {
                "invocation": {
                    "address": "0xf63246f4df508eba748df25daa8bd96816a668ba",
                    "callData": "",
                    "decodedMethod": null,
                    "errorInfo": "",
                    "fromAddress": "",
                    "gasUsed": 0,
                    "id": -1,
                    "methodDecoded": false,
                    "operation": "",
                    "output": "",
                    "revert": false,
                    "revertMessage": "",
                    "selector": "",
                    "status": false,
                    "value": ""
                },
                "nodeType": 0
            },
            "0": {
                "invocation": {
                    "address": "0xb6cfbf322db47d39331e306005dc7e5e6549942b",
                    "callData": "0x000000000000000000000000000000000000000000000000000000174876e8000000000000000000000000000000000000000000000000001874fcacf5f8bc000000000000000000000000000000000000000000000000000000016acf14d6e8",
                    "decodedMethod": {
                        "callParams": [
                            {
                                "name": "tokens_sold",
                                "type": "uint256",
                                "value": "100,000,000,000"
                            },
                            {
                                "name": "min_eth",
                                "type": "uint256",
                                "value": "1,762,311,174,000,000,000"
                            },
                            {
                                "name": "deadline",
                                "type": "uint256",
                                "value": "1,558,252,410,600"
                            }
                        ],
                        "constructorArguments": "",
                        "name": "tokenToEthSwapInput",
                        "returnParams": [
                            {
                                "name": "out",
                                "type": "uint256",
                                "value": "1,789,148,379,164,505,983"
                            }
                        ],
                        "signature": "tokenToEthSwapInput(uint256,uint256,uint256)"
                    },
                    "errorInfo": "",
                    "fromAddress": "0xf63246f4df508eba748df25daa8bd96816a668ba",
                    "gasUsed": 61095,
                    "id": 0,
                    "methodDecoded": true,
                    "operation": "CALL",
                    "output": "0x00000000000000000000000000000000000000000000000018d454f8b690f77f4876e8000000000000000000000000000000000000000000000000001874fcacf5f8bc000000000000000000000000000000000000000000000000000000016acf14d6e8000000000000000000000000000000000000000000000000000000000000000000000000000000000000000000000000000000000000000000000000000000000000000000000000000000000000000000000000000000000000000000000000000000000000000000000000000000000000000000000000000000000000000000000000000000000000000000000000000000000000000000000000000000000000000000000000000000000000000000000000000000000000000000000000000000000000000000000000000000000000000000000000000000000000000000000000000000000000000000000000000000000000000000000000000000000000000000000000000000000000000000000000000000000000000000000000000000000000000000000000000000000000000000000000000000000000000000000000000000000000000000000000000000000000000000000000000000000000000000000000000000000000000000000000000000000000000000000000000000000000000000000000000000000000000000000000000000000000000000000000000000000000000000000000000000000000000000000000000000000000000000000000000000000000000000000000000000000000000000000000000000000000000000000000000000000000000000000000000000000000000000000000000000000000000000000000000000000000000000000000000000000000000000000000000000000000000000000000000000000000000000000000000000000000000000000000000000000000000000000000000000000000000000000000000000000000000000000000000000000000000000000000000000000000000000000000000000000000000000000000000000000000000000000000000000000000000000000000000000000000000000000000000000000000000000000000000000000000000000000000000000000000000000000000000000000000000000000000000000000000000000000000000000000000000000000000000000000000000000000000000000000000000000000000000000000000000000000000000000000000000000000000000000000000000000000000000000000000000000000000000000000000000000000000000000000000000000000000000000000000000000000000000000000000000000000000000000000000000000000000000000000000000000000000000000000000000000000000000000000000000000000000000000000000000000000000000000000000000000000000000000000000000000000000000000000000000000000000000000000000000000000000000000000000000000000000000000000000000000000000000000000000000000000000000000000000000000000000000000000000000000000000000000000000000000000000000000000000000000000000000000000000000000000000000000000000000000000000000000000000000000000000000000000000000000000000000000000000000000000000000000000000000000000000000000000000000000000000000000000000000000000000000000000000000000000000000000000000000000000000000000000000000000000000000000000000000000000000000000000000000000000000000000000000000000000000000000000000000000000000000000000000000000000000000000000000000000000000000000000000000000000000000000000000000000000000000000000000000000000000000000000000000000000000000000000000000000000000000000000000000000000000000000000000000000000000000000000000000000000000000000000000000000000000000000000000000000000000000000000000000000000000000000000000000000000000000000000000000000000000000000000000000000000000000000000000000000000000000000000000000000000000000000000000000000000000000000000000000000000000000000000000000000000000000000000000000000000000000000000000000000000000000000000000000000000000000000000000000000000000000000000000000000000000000000000000000000000000000000000000000000000000000000000000000000000000000000000000000000000000000000000000000000000000000000000000000000000000000000000000000000000000000000000000000000000000000000000000000000000000000000000000000000000000000000000000000000000000000000000000000000000000000000000000000000000000000000000000000000000000000000000000000000000000000000000000000000000000000000000000000000000000000000000000000000000000000000000000000000000000000000000000000000000000000000000000000000000000000000000000000000000000000000000000000000000000000000000000000000000000000000000000000000000000000000000000000000000000000000000000000000000000000000000000000000000000000000000000000000000000000000000000000000000000000000000000000000000000000000000000000000000000000000000000000000000000000000000000000000000000000000000000000000000000000000000000000000000000000000000000000000000000000000000000000000000000000000000000000000000000000000000000000000000000000000000000000000000000000000000000000000000000000000000000000000000000000000000000000000000000000000000000000000000000000000000000000000000000000000000000000000000000000000000000000000000000000000000000000000000000000000000000000000000000000000000000000000000000000000000000000000000000000000000000000000000000000000000000000000000000000000000000000000000000000000000000000000000000000000000000000000000000000000000000000000000000000000000000000000000000000000000000000000000000000000000000000000000000000000000000000000000000000000000000000000000000000000000000000000000000000000000000000000000000000000000000000000000000000000000000000000000000000000000000000000000000000000000000000000000000000000000000000000000000000000000000000000000000000000000000000000000000000000000000000000000000000000000000000000000000000000000000000000000000000000000000000000000000000000000000000000000000000000000000000000000000000000000000000000000000000000000000000000000000000000000000000000000000000000000000000000000000000000000000000000000000000000000000000000000000000000000000000000000000000000000000000000000000000000000000000000000000000000000000000000000000000000000000000000000000000000000000000000000000000000000000000000000000000000000000000000000000000000000000000000000000000000000000000000000000000000000000000000000000000000000000000000000000000000000000000000000000000000000000000000000000000000000000000000000000000000000000000000000000000000000000000000000000000000000000000000000000000000000000000000000000000000000000000000000000000000000000000000000000000000000000000000000000000000000000000000000000000000000000000000000000000000000000000000000000000000000000000000000000000000000000000000000000000000000000000000000000000000000000000000000000000000000000000000000000000000000000000000000000000000000000000000000000000000000000000000000000000000000000000000000000000000000000000000000000000000000000000000000000000000000000000000000000000000000000000000000000000000000000000000000000000000000000000000000000000000000000000000000000000000000000000000000000000000000000000000000000000000000000000000000000000000000000000000000000000000000000000000000000000000000000000000000000000000000000000000000000000000000000000000000000000000000000000000000000000000000000000000000000000000000000000000000000000000000000000000000000000000000000000000000000000000000000000000000000000000000000000000000000000000000000000000000000000000000000000000000000000000000000000000000000000000000000000000000000000000000000000000000000000000000000000000000000000000000000000000000000000000000000000000000000000000000000000000000000000000000000000000000000000000000000000000000000000000000000000000000000000000000000000000000000000000000000000000000000000000000000000000000000000000000000000000000000000000000000000000000000000000000000000000000000000000000000000000000000000000000000000000000000000000000000000000000000000000000000000000000000000000000000000000000000000000000000000000000000000000000000000000000000000000000000000000000000000000000000000000000000000000000000000000000000000000000000000000000000000000000000000000000000000000000000000000000000000000000000000000000000000000000000000000000000000000000000000000000000000000000000000000000000000000000000000000000000000000000000000000000000000000000000000000000000000000000000000000000000000000000000000000000000000000000000000000000000000000000000000000000000000000000000000000000000000000000000000000000000000000000000000000000000000000000000000000000000000000000000000000000000000000000000000000000000000000000000000000000000000000000000000000000000000000000000000000000000000000000000000000000000000000000000000000000000000000000000000000000000000000000000000000000000000000000000000000000000000000000000000000000000000000000000000000000000000000000000000000000000000000000000000000000000000000000000000000000000000000000000000000000000",
                    "revert": false,
                    "revertMessage": "",
                    "selector": "0x95e3c50b",
                    "status": true,
                    "value": "0"
                },
                "nodeType": 0
            },
            "1": {
                "invocation": {
                    "address": "0x2157a7894439191e520825fe9399ab8655e0f708",
                    "callData": "0x000000000000000000000000000000000000000000000000000000174876e8000000000000000000000000000000000000000000000000001874fcacf5f8bc000000000000000000000000000000000000000000000000000000016acf14d6e8",
                    "decodedMethod": {
                        "callParams": [
                            {
                                "name": "tokens_sold",
                                "type": "uint256",
                                "value": "100,000,000,000"
                            },
                            {
                                "name": "min_eth",
                                "type": "uint256",
                                "value": "1,762,311,174,000,000,000"
                            },
                            {
                                "name": "deadline",
                                "type": "uint256",
                                "value": "1,558,252,410,600"
                            }
                        ],
                        "constructorArguments": "",
                        "name": "tokenToEthSwapInput",
                        "returnParams": [
                            {
                                "name": "out",
                                "type": "uint256",
                                "value": "1,789,148,379,164,505,983"
                            }
                        ],
                        "signature": "tokenToEthSwapInput(uint256,uint256,uint256)"
                    },
                    "errorInfo": "",
                    "fromAddress": "0xb6cfbf322db47d39331e306005dc7e5e6549942b",
                    "gasUsed": 37175,
                    "id": 1,
                    "methodDecoded": true,
                    "operation": "DELEGATECALL",
                    "output": "0x00000000000000000000000000000000000000000000000018d454f8b690f77f",
                    "revert": false,
                    "revertMessage": "",
                    "selector": "0x95e3c50b",
                    "status": true,
                    "value": "0"
                },
                "nodeType": 0
            },
            "2": {
                "invocation": {
                    "address": "0xaaaf91d9b90df800df4f55c205fd6989c977e73a",
                    "callData": "0x000000000000000000000000b6cfbf322db47d39331e306005dc7e5e6549942b",
                    "decodedMethod": {
                        "callParams": [
                            {
                                "name": "",
                                "type": "address",
                                "value": "0xb6cfbf322db47d39331e306005dc7e5e6549942b"
                            }
                        ],
                        "constructorArguments": "",
                        "name": "balanceOf",
                        "returnParams": [
                            {
                                "decimalAvailable": true,
                                "name": "",
                                "type": "uint256",
                                "value": "9,548,018,963,058"
                            }
                        ],
                        "signature": "balanceOf(address)"
                    },
                    "errorInfo": "",
                    "fromAddress": "0xb6cfbf322db47d39331e306005dc7e5e6549942b",
                    "gasUsed": 935,
                    "id": 2,
                    "methodDecoded": true,
                    "operation": "STATICCALL",
                    "output": "0x000000000000000000000000000000000000000000000000000008af12475272",
                    "revert": false,
                    "revertMessage": "",
                    "selector": "0x70a08231",
                    "status": true,
                    "value": "0"
                },
                "nodeType": 0
            },
            "3": {
                "invocation": {
                    "address": "0xf63246f4df508eba748df25daa8bd96816a668ba",
                    "callData": "0x",
                    "decodedMethod": null,
                    "errorInfo": "",
                    "fromAddress": "0xb6cfbf322db47d39331e306005dc7e5e6549942b",
                    "gasUsed": 0,
                    "id": 3,
                    "methodDecoded": false,
                    "operation": "CALL",
                    "output": "",
                    "revert": false,
                    "revertMessage": "",
                    "selector": "fallback",
                    "status": true,
                    "value": "1.789148379164505983"
                },
                "nodeType": 0
            },
            "4": {
                "invocation": {
                    "address": "0xaaaf91d9b90df800df4f55c205fd6989c977e73a",
                    "callData": "0x000000000000000000000000f63246f4df508eba748df25daa8bd96816a668ba000000000000000000000000b6cfbf322db47d39331e306005dc7e5e6549942b000000000000000000000000000000000000000000000000000000174876e800",
                    "decodedMethod": {
                        "callParams": [
                            {
                                "name": "_from",
                                "type": "address",
                                "value": "0xf63246f4df508eba748df25daa8bd96816a668ba"
                            },
                            {
                                "name": "_to",
                                "type": "address",
                                "value": "0xb6cfbf322db47d39331e306005dc7e5e6549942b"
                            },
                            {
                                "decimalAvailable": true,
                                "name": "_value",
                                "type": "uint256",
                                "value": "100,000,000,000"
                            }
                        ],
                        "constructorArguments": "",
                        "name": "transferFrom",
                        "returnParams": [
                            {
                                "name": "success",
                                "type": "bool",
                                "value": true
                            }
                        ],
                        "signature": "transferFrom(address,address,uint256)"
                    },
                    "errorInfo": "",
                    "fromAddress": "0xb6cfbf322db47d39331e306005dc7e5e6549942b",
                    "gasUsed": 20477,
                    "id": 4,
                    "methodDecoded": true,
                    "operation": "CALL",
                    "output": "0x0000000000000000000000000000000000000000000000000000000000000001",
                    "revert": false,
                    "revertMessage": "",
                    "selector": "0x23b872dd",
                    "status": true,
                    "value": "0"
                },
                "nodeType": 0
            },
            "5": {
                "event": {
                    "contract": "0xaaaf91d9b90df800df4f55c205fd6989c977e73a",
                    "decodedLog": {
                        "name": "Transfer",
                        "params": [
                            {
                                "name": "from",
                                "type": "address",
                                "value": "0xf63246f4df508eba748df25daa8bd96816a668ba"
                            },
                            {
                                "name": "to",
                                "type": "address",
                                "value": "0xb6cfbf322db47d39331e306005dc7e5e6549942b"
                            },
                            {
                                "decimalAvailable": true,
                                "name": "value",
                                "type": "uint256",
                                "value": "100,000,000,000"
                            }
                        ],
                        "signature": "Transfer(address,address,uint256)"
                    },
                    "id": 5,
                    "logData": "0x000000000000000000000000000000000000000000000000000000174876e800",
                    "logDecoded": true,
                    "operation": "EVENT",
                    "revert": false,
                    "status": true,
                    "topics": [
                        "0xddf252ad1be2c89b69c2b068fc378daa952ba7f163c4a11628f55a4df523b3ef",
                        "0x000000000000000000000000f63246f4df508eba748df25daa8bd96816a668ba",
                        "0x000000000000000000000000b6cfbf322db47d39331e306005dc7e5e6549942b"
                    ]
                },
                "nodeType": 1
            },
            "6": {
                "event": {
                    "contract": "0xb6cfbf322db47d39331e306005dc7e5e6549942b",
                    "decodedLog": {
                        "name": "EthPurchase",
                        "params": [
                            {
                                "name": "buyer",
                                "type": "address",
                                "value": "0xf63246f4df508eba748df25daa8bd96816a668ba"
                            },
                            {
                                "name": "tokens_sold",
                                "type": "uint256",
                                "value": "100,000,000,000"
                            },
                            {
                                "name": "eth_bought",
                                "type": "uint256",
                                "value": "1,789,148,379,164,505,983"
                            }
                        ],
                        "signature": "EthPurchase(address,uint256,uint256)"
                    },
                    "id": 6,
                    "logData": "0x",
                    "logDecoded": true,
                    "operation": "EVENT",
                    "revert": false,
                    "status": true,
                    "topics": [
                        "0x7f4091b46c33e918a0f3aa42307641d17bb67029427a5369e54b353984238705",
                        "0x000000000000000000000000f63246f4df508eba748df25daa8bd96816a668ba",
                        "0x000000000000000000000000000000000000000000000000000000174876e800",
                        "0x00000000000000000000000000000000000000000000000018d454f8b690f77f"
                    ]
                },
                "nodeType": 1
            }
        },
        "gasFlame": [
            {
                "children": [
                    {
                        "children": [
                            {
                                "children": [],
                                "depth": 0,
                                "name": "Initial Gas",
                                "value": 22744
                            },
                            {
                                "children": [
                                    {
                                        "children": [
                                            {
                                                "children": [],
                                                "depth": 2,
                                                "name": "balanceOf",
                                                "value": 935
                                            },
                                            {
                                                "children": [],
                                                "depth": 2,
                                                "name": "fallback",
                                                "value": 0
                                            },
                                            {
                                                "children": [],
                                                "depth": 2,
                                                "name": "transferFrom",
                                                "value": 20477
                                            }
                                        ],
                                        "depth": 1,
                                        "name": "tokenToEthSwapInput",
                                        "value": 37175
                                    }
                                ],
                                "depth": 0,
                                "name": "Executed Gas",
                                "value": 38351
                            }
                        ],
                        "depth": -1,
                        "name": "Actual Gas Used",
                        "value": 61095
                    },
                    {
                        "children": [],
                        "depth": -1,
                        "name": "Refunded Gas",
                        "value": 0
                    }
                ],
                "depth": -2,
                "name": "Total Gas",
                "value": 61095
            }
        ],
        "isConfirmed": true,
        "mainTrace": [
            {
                "children": [
                    {
                        "children": [
                            {
                                "children": [
                                    {
                                        "children": [],
                                        "depth": 2,
                                        "id": 2,
                                        "order": 2
                                    },
                                    {
                                        "children": [],
                                        "depth": 2,
                                        "id": 3,
                                        "order": 3
                                    },
                                    {
                                        "children": [
                                            {
                                                "children": [],
                                                "depth": 3,
                                                "id": 5,
                                                "order": 5
                                            }
                                        ],
                                        "depth": 2,
                                        "id": 4,
                                        "order": 4
                                    },
                                    {
                                        "children": [],
                                        "depth": 2,
                                        "id": 6,
                                        "order": 6
                                    }
                                ],
                                "depth": 1,
                                "id": 1,
                                "order": 1
                            }
                        ],
                        "depth": 0,
                        "id": 0,
                        "order": 0
                    }
                ],
                "depth": -1,
                "id": -1,
                "order": -1
            }
        ],
        "mainTraceNodeCount": 7,
        "parentIdMap": {
            "0": -1,
            "1": 0,
            "2": 1,
            "3": 1,
            "4": 1,
            "5": 4,
            "6": 1
        },
        "tidyTrace": [
            {
                "children": [
                    {
                        "children": [
                            {
                                "children": [
                                    {
                                        "children": [],
                                        "depth": 2,
                                        "id": 3,
                                        "order": 3
                                    },
                                    {
                                        "children": [
                                            {
                                                "children": [],
                                                "depth": 3,
                                                "id": 5,
                                                "order": 5
                                            }
                                        ],
                                        "depth": 2,
                                        "id": 4,
                                        "order": 4
                                    },
                                    {
                                        "children": [],
                                        "depth": 2,
                                        "id": 6,
                                        "order": 6
                                    }
                                ],
                                "depth": 1,
                                "id": 1,
                                "order": 1
                            }
                        ],
                        "depth": 0,
                        "id": 0,
                        "order": 0
                    }
                ],
                "depth": -1,
                "id": -1,
                "order": -1
            }
        ],
        "tidyTraceNodeCount": 6
    },
    "state_change": {
        "stateChanges": [
            {
                "address": "0xaaaf91d9b90df800df4f55c205fd6989c977e73a",
                "erc": "ERC-20",
                "slots": [
                    {
                        "current": "0x000000000000000000000000000000000000000000000000000008c65abe3a72",
                        "key": "0x70f2c8775a577d62589ea46c283aade98b1330465e5c6f555f7cb3bd25af8fe0",
                        "prev": "0x000000000000000000000000000000000000000000000000000008af12475272"
                    },
                    {
                        "current": "0x0000000000000000000000000000000000000000000000000000002e90edd000",
                        "key": "0xcf35a66ffa78b31f21fa0f172687436457651e90ff19a76d3cdc90883e276757",
                        "prev": "0x00000000000000000000000000000000000000000000000000000045d964b800"
                    },
                    {
                        "current": "0x0000000000000000000000000000000000000000000000000023806c8b9e614d",
                        "key": "0xac0067b8360a0d1a5d502513ee961ea580580dbfe81ba5837b2893283b272337",
                        "prev": "0x00000000000000000000000000000000000000000000000000238083d415494d"
                    }
                ],
                "storageVariables": []
            }
        ]
    }
}