{
    "balance_change": {
        "balanceChanges": []
    },
    "profile": {
        "basic_info": {
            "baseFee": "22.163635303",
            "blockNumber": 14351993,
            "callData": "0xa22cb465000000000000000000000000ee64d46d2f23be9a13171587b525ce813f7ac61a0000000000000000000000000000000000000000000000000000000000000001",
            "debugEnable": true,
            "errorInfo": "",
            "eventCount": 1,
            "feeRecipient": "0x433022c4066558e7a32d850f02d2da5ca782174d",
            "formatValue": "0",
            "gasLimit": 46747,
            "gasPrice": "24.663635303",
            "gasUsed": 46747,
            "intTxnCount": 0,
            "internalRevert": false,
            "internalRevertMessage": "",
            "isContractCreation": false,
            "isFlashloan": false,
            "maxFee": "49.470377146",
            "nonce": 242,
            "overwritedBlockNumber": -1,
            "priorityFee": "2.5",
            "receiver": "0x34997f9c19465ec01b7ed2ab0e61e2a388702790",
            "revertMessage": "",
            "sender": "0x64bc3cbc8d1cee415f5671e1349b174377c3c3d4",
            "simulationEnable": true,
            "sourceTxnHash": "0xd88ec8bf2ab9ce28985b43b6be566187f051815a19f63978d95f7b39d18e24da",
            "status": true,
            "timestamp": "2022-03-09T10:20:07Z",
            "transactionFee": "0.001152950959509341",
            "txnHash": "0xd88ec8bf2ab9ce28985b43b6be566187f051815a19f63978d95f7b39d18e24da",
            "txnIndex": 32,
            "type": 2,
            "value": "0"
        },
        "fund_flow": [],
        "token_infos": [
            {
                "address": "0xc02aaa39b223fe8d0a0e5c4f27ead9083c756cc2",
                "decimals": 18
            },
            {
                "address": "0xeeeeeeeeeeeeeeeeeeeeeeeeeeeeeeeeeeeeeeee",
                "decimals": 18
            }
        ]
    },
    "address_label": {
        "labels": [
            {
                "address": "0x0000000000000000000000000000000000000001",
                "label": "Precompiled"
            },
            {
                "address": "0x0000000000000000000000000000000000000002",
                "label": "Precompiled"
            },
            {
                "address": "0x0000000000000000000000000000000000000003",
                "label": "Precompiled"
            },
            {
                "address": "0x0000000000000000000000000000000000000004",
                "label": "Precompiled"
            },
            {
                "address": "0xeeeeeeeeeeeeeeeeeeeeeeeeeeeeeeeeeeeeeeee",
                "label": "Ether"
            },
            {
                "address": "0x34997f9c19465ec01b7ed2ab0e61e2a388702790",
                "label": "CryptoShack: SHACK Token"
            }
        ]
    },
    "trace": {
        "accountLabels": null,
        "dataMap": {
            "-1": {
                "invocation": {
                    "address": "0x64bc3cbc8d1cee415f5671e1349b174377c3c3d4",
                    "callData": "",
                    "decodedMethod": null,
                    "errorInfo": "",
                    "fromAddress": "",
                    "gasUsed": 0,
                    "id": -1,
                    "methodDecoded": false,
                    "operation": "",
                    "output": "",
                    "revert": false,
                    "revertMessage": "",
                    "selector": "",
                    "status": false,
                    "value": ""
                },
                "nodeType": 0
            },
            "0": {
                "invocation": {
                    "address": "0x34997f9c19465ec01b7ed2ab0e61e2a388702790",
                    "callData": "0x000000000000000000000000ee64d46d2f23be9a13171587b525ce813f7ac61a0000000000000000000000000000000000000000000000000000000000000001",
                    "decodedMethod": {
                        "callParams": [
                            {
                                "name": "operator",
                                "type": "address",
                                "value": "0xee64d46d2f23be9a13171587b525ce813f7ac61a"
                            },
                            {
                                "name": "approved",
                                "type": "bool",
                                "value": true
                            }
                        ],
                        "constructorArguments": "",
                        "name": "setApprovalForAll",
                        "returnParams": [],
                        "signature": "setApprovalForAll(address,bool)"
                    },
                    "errorInfo": "",
                    "fromAddress": "0x64bc3cbc8d1cee415f5671e1349b174377c3c3d4",
                    "gasUsed": 46747,
                    "id": 0,
                    "methodDecoded": true,
                    "operation": "CALL",
                    "output": "",
                    "revert": false,
                    "revertMessage": "",
                    "selector": "0xa22cb465",
                    "status": true,
                    "value": "0"
                },
                "nodeType": 0
            },
            "1": {
                "event": {
                    "contract": "0x34997f9c19465ec01b7ed2ab0e61e2a388702790",
                    "decodedLog": {
                        "name": "ApprovalForAll",
                        "params": [
                            {
                                "name": "owner",
                                "type": "address",
                                "value": "0x64bc3cbc8d1cee415f5671e1349b174377c3c3d4"
                            },
                            {
                                "name": "operator",
                                "type": "address",
                                "value": "0xee64d46d2f23be9a13171587b525ce813f7ac61a"
                            },
                            {
                                "name": "approved",
                                "type": "bool",
                                "value": true
                            }
                        ],
                        "signature": "ApprovalForAll(address,address,bool)"
                    },
                    "id": 1,
                    "logData": "0x0000000000000000000000000000000000000000000000000000000000000001",
                    "logDecoded": true,
                    "operation": "EVENT",
                    "revert": false,
                    "status": true,
                    "topics": [
                        "0x17307eab39ab6107e8899845ad3d59bd9653f200f220920489ca2b5937696c31",
                        "0x00000000000000000000000064bc3cbc8d1cee415f5671e1349b174377c3c3d4",
                        "0x000000000000000000000000ee64d46d2f23be9a13171587b525ce813f7ac61a"
                    ]
                },
                "nodeType": 1
            }
        },
        "gasFlame": [
            {
                "children": [
                    {
                        "children": [
                            {
                                "children": [],
                                "depth": 0,
                                "name": "Initial Gas",
                                "value": 21572
                            },
                            {
                                "children": [],
                                "depth": 0,
                                "name": "Executed Gas",
                                "value": 25175
                            }
                        ],
                        "depth": -1,
                        "name": "Actual Gas Used",
                        "value": 46747
                    },
                    {
                        "children": [],
                        "depth": -1,
                        "name": "Refunded Gas",
                        "value": 0
                    }
                ],
                "depth": -2,
                "name": "Total Gas",
                "value": 46747
            }
        ],
        "isConfirmed": true,
        "mainTrace": [
            {
                "children": [
                    {
                        "children": [
                            {
                                "children": [],
                                "depth": 1,
                                "id": 1,
                                "order": 1
                            }
                        ],
                        "depth": 0,
                        "id": 0,
                        "order": 0
                    }
                ],
                "depth": -1,
                "id": -1,
                "order": -1
            }
        ],
        "mainTraceNodeCount": 2,
        "parentIdMap": {
            "0": -1,
            "1": 0
        },
        "tidyTrace": [
            {
                "children": [
                    {
                        "children": [
                            {
                                "children": [],
                                "depth": 1,
                                "id": 1,
                                "order": 1
                            }
                        ],
                        "depth": 0,
                        "id": 0,
                        "order": 0
                    }
                ],
                "depth": -1,
                "id": -1,
                "order": -1
            }
        ],
        "tidyTraceNodeCount": 2
    },
    "state_change": {
        "stateChanges": [
            {
                "address": "0x34997f9c19465ec01b7ed2ab0e61e2a388702790",
                "erc": "ERC-721",
                "slots": [
                    {
                        "current": "0x0000000000000000000000000000000000000000000000000000000000000001",
                        "key": "0x71879066bad9cb2cac026d21eceea6f6df8f334f6bcc659ebcd14e48adf2415a",
                        "prev": "0x0000000000000000000000000000000000000000000000000000000000000000"
                    }
                ],
                "storageVariables": [
                    {
                        "name": "_operatorApprovals",
                        "type": "mapping(address => mapping(address => bool))",
                        "value": {
                            "pairs": [
                                {
                                    "key": "0x64bc3cbc8d1cee415f5671e1349b174377c3c3d4",
                                    "value": {
                                        "pairs": [
                                            {
                                                "key": "0xee64d46d2f23be9a13171587b525ce813f7ac61a",
                                                "value": {
                                                    "current": "true",
                                                    "prev": "false",
                                                    "typeTag": 1
                                                }
                                            }
                                        ],
                                        "typeTag": 4
                                    }
                                }
                            ],
                            "typeTag": 4
                        }
                    }
                ]
            }
        ]
    }
}