{
    "balance_change": {
        "balanceChanges": [
            {
                "account": "0x8f99125500e0e6943ec6c218bcfd8b387f15a976",
                "assets": [
                    {
                        "address": "0x26ebb8213fb8d66156f1af8908d43f7e3e367c1d",
                        "amount": "151.016286",
                        "iconUrl": "",
                        "isERC1155": false,
                        "isERC721": false,
                        "sign": true,
                        "value": "10.73259715"
                    }
                ]
            },
            {
                "account": "0x602c90d796d746b97a36f075d9f3b2892b9b07c2",
                "assets": [
                    {
                        "address": "0x26ebb8213fb8d66156f1af8908d43f7e3e367c1d",
                        "amount": "151.016286",
                        "iconUrl": "",
                        "isERC1155": false,
                        "isERC721": false,
                        "sign": false,
                        "value": "10.73259715"
                    }
                ]
            }
        ]
    },
    "profile": {
        "basic_info": {
            "baseFee": "5.771420107",
            "blockNumber": 20164363,
            "callData": "0x23b221a00000000000000000000000000000000000000000000000000000000000000008",
            "debugEnable": true,
            "errorInfo": "",
            "eventCount": 1,
            "feeRecipient": "0x95222290dd7278aa3ddd389cc1e1d165cc4bafe5",
            "formatValue": "0",
            "gasLimit": 171699,
            "gasPrice": "6.741420107",
            "gasUsed": 113433,
            "intTxnCount": 2,
            "internalRevert": false,
            "internalRevertMessage": "",
            "isContractCreation": false,
            "isFlashloan": false,
            "maxFee": "9.669558558",
            "nonce": 30,
            "overwritedBlockNumber": -1,
            "priorityFee": "0.97",
            "receiver": "0x602c90d796d746b97a36f075d9f3b2892b9b07c2",
            "revertMessage": "",
            "sender": "0x8f99125500e0e6943ec6c218bcfd8b387f15a976",
            "simulationEnable": true,
            "sourceTxnHash": "0xd83def7db6942c9fbf2df2ed756f3e4e5d12b0e6b705833832fdcd1128fef29e",
            "status": true,
            "timestamp": "2024-06-24T21:55:59Z",
            "transactionFee": "0.000764699506997331",
            "txnHash": "0xd83def7db6942c9fbf2df2ed756f3e4e5d12b0e6b705833832fdcd1128fef29e",
            "txnIndex": 69,
            "type": 2,
            "value": "0"
        },
        "fund_flow": [
            {
                "amount": "151.016286",
                "from": "0x602c90d796d746b97a36f075d9f3b2892b9b07c2",
                "id": 1,
                "isERC1155": false,
                "isERC721": false,
                "isReverted": false,
                "order": 1,
                "to": "0x8f99125500e0e6943ec6c218bcfd8b387f15a976",
                "token": "0x26ebb8213fb8d66156f1af8908d43f7e3e367c1d"
            }
        ],
        "token_infos": [
            {
                "address": "0x26ebb8213fb8d66156f1af8908d43f7e3e367c1d",
                "decimals": 18
            },
            {
                "address": "0xc02aaa39b223fe8d0a0e5c4f27ead9083c756cc2",
                "decimals": 18
            },
            {
                "address": "0xeeeeeeeeeeeeeeeeeeeeeeeeeeeeeeeeeeeeeeee",
                "decimals": 18
            }
        ]
    },
    "address_label": {
        "labels": [
            {
                "address": "0x0000000000000000000000000000000000000001",
                "label": "Precompiled"
            },
            {
                "address": "0x0000000000000000000000000000000000000002",
                "label": "Precompiled"
            },
            {
                "address": "0x0000000000000000000000000000000000000003",
                "label": "Precompiled"
            },
            {
                "address": "0x0000000000000000000000000000000000000004",
                "label": "Precompiled"
            },
            {
                "address": "0xeeeeeeeeeeeeeeeeeeeeeeeeeeeeeeeeeeeeeeee",
                "label": "Ether"
            },
            {
                "address": "0x26ebb8213fb8d66156f1af8908d43f7e3e367c1d",
                "label": "Retik Finance: RETIK Token"
            },
            {
                "address": "0x602c90d796d746b97a36f075d9f3b2892b9b07c2",
                "label": "Retik_Presale"
            }
        ]
    },
    "trace": {
        "accountLabels": null,
        "dataMap": {
            "-1": {
                "invocation": {
                    "address": "0x8f99125500e0e6943ec6c218bcfd8b387f15a976",
                    "callData": "",
                    "decodedMethod": null,
                    "errorInfo": "",
                    "fromAddress": "",
                    "gasUsed": 0,
                    "id": -1,
                    "methodDecoded": false,
                    "operation": "",
                    "output": "",
                    "revert": false,
                    "revertMessage": "",
                    "selector": "",
                    "status": false,
                    "value": ""
                },
                "nodeType": 0
            },
            "0": {
                "invocation": {
                    "address": "0x602c90d796d746b97a36f075d9f3b2892b9b07c2",
                    "callData": "0x0000000000000000000000000000000000000000000000000000000000000008",
                    "decodedMethod": {
                        "callParams": [
                            {
                                "name": "_id",
                                "type": "uint256",
                                "value": "8"
                            }
                        ],
                        "constructorArguments": "",
                        "name": "claimAmount",
                        "returnParams": [
                            {
                                "name": "",
                                "type": "bool",
                                "value": true
                            }
                        ],
                        "signature": "claimAmount(uint256)"
                    },
                    "errorInfo": "",
                    "fromAddress": "0x8f99125500e0e6943ec6c218bcfd8b387f15a976",
                    "gasUsed": 113433,
                    "id": 0,
                    "methodDecoded": true,
                    "operation": "CALL",
                    "output": "0x0000000000000000000000000000000000000000000000000000000000000001",
                    "revert": false,
                    "revertMessage": "",
                    "selector": "0x23b221a0",
                    "status": true,
                    "value": "0"
                },
                "nodeType": 0
            },
            "1": {
                "invocation": {
                    "address": "0x26ebb8213fb8d66156f1af8908d43f7e3e367c1d",
                    "callData": "0x000000000000000000000000602c90d796d746b97a36f075d9f3b2892b9b07c2",
                    "decodedMethod": {
                        "callParams": [
                            {
                                "name": "account",
                                "type": "address",
                                "value": "0x602c90d796d746b97a36f075d9f3b2892b9b07c2"
                            }
                        ],
                        "constructorArguments": "",
                        "name": "balanceOf",
                        "returnParams": [
                            {
                                "decimalAvailable": true,
                                "name": "",
                                "type": "uint256",
                                "value": "368,356,874,134,157,093,878,300,000"
                            }
                        ],
                        "signature": "balanceOf(address)"
                    },
                    "errorInfo": "",
                    "fromAddress": "0x602c90d796d746b97a36f075d9f3b2892b9b07c2",
                    "gasUsed": 2918,
                    "id": 1,
                    "methodDecoded": true,
                    "operation": "STATICCALL",
                    "output": "0x00000000000000000000000000000000000000000130b29a28c89d45069efd60",
                    "revert": false,
                    "revertMessage": "",
                    "selector": "0x70a08231",
                    "status": true,
                    "value": "0"
                },
                "nodeType": 0
            },
            "2": {
                "invocation": {
                    "address": "0x26ebb8213fb8d66156f1af8908d43f7e3e367c1d",
                    "callData": "0x0000000000000000000000008f99125500e0e6943ec6c218bcfd8b387f15a9760000000000000000000000000000000000000000000000082fc59fff98cbe000",
                    "decodedMethod": {
                        "callParams": [
                            {
                                "name": "recipient",
                                "type": "address",
                                "value": "0x8f99125500e0e6943ec6c218bcfd8b387f15a976"
                            },
                            {
                                "decimalAvailable": true,
                                "name": "amount",
                                "type": "uint256",
                                "value": "151,016,286,000,000,000,000"
                            }
                        ],
                        "constructorArguments": "",
                        "name": "transfer",
                        "returnParams": [
                            {
                                "name": "",
                                "type": "bool",
                                "value": true
                            }
                        ],
                        "signature": "transfer(address,uint256)"
                    },
                    "errorInfo": "",
                    "fromAddress": "0x602c90d796d746b97a36f075d9f3b2892b9b07c2",
                    "gasUsed": 23313,
                    "id": 2,
                    "methodDecoded": true,
                    "operation": "CALL",
                    "output": "0x0000000000000000000000000000000000000000000000000000000000000001",
                    "revert": false,
                    "revertMessage": "",
                    "selector": "0xa9059cbb",
                    "status": true,
                    "value": "0"
                },
                "nodeType": 0
            },
            "3": {
                "event": {
                    "contract": "0x26ebb8213fb8d66156f1af8908d43f7e3e367c1d",
                    "decodedLog": {
                        "name": "Transfer",
                        "params": [
                            {
                                "name": "from",
                                "type": "address",
                                "value": "0x602c90d796d746b97a36f075d9f3b2892b9b07c2"
                            },
                            {
                                "name": "to",
                                "type": "address",
                                "value": "0x8f99125500e0e6943ec6c218bcfd8b387f15a976"
                            },
                            {
                                "decimalAvailable": true,
                                "name": "value",
                                "type": "uint256",
                                "value": "151,016,286,000,000,000,000"
                            }
                        ],
                        "signature": "Transfer(address,address,uint256)"
                    },
                    "id": 3,
                    "logData": "0x0000000000000000000000000000000000000000000000082fc59fff98cbe000",
                    "logDecoded": true,
                    "operation": "EVENT",
                    "revert": false,
                    "status": true,
                    "topics": [
                        "0xddf252ad1be2c89b69c2b068fc378daa952ba7f163c4a11628f55a4df523b3ef",
                        "0x000000000000000000000000602c90d796d746b97a36f075d9f3b2892b9b07c2",
                        "0x0000000000000000000000008f99125500e0e6943ec6c218bcfd8b387f15a976"
                    ]
                },
                "nodeType": 1
            }
        },
        "gasFlame": [
            {
                "children": [
                    {
                        "children": [
                            {
                                "children": [],
                                "depth": 0,
                                "name": "Initial Gas",
                                "value": 21204
                            },
                            {
                                "children": [
                                    {
                                        "children": [],
                                        "depth": 1,
                                        "name": "balanceOf",
                                        "value": 2918
                                    },
                                    {
                                        "children": [],
                                        "depth": 1,
                                        "name": "transfer",
                                        "value": 23313
                                    }
                                ],
                                "depth": 0,
                                "name": "Executed Gas",
                                "value": 92229
                            }
                        ],
                        "depth": -1,
                        "name": "Actual Gas Used",
                        "value": 113433
                    },
                    {
                        "children": [],
                        "depth": -1,
                        "name": "Refunded Gas",
                        "value": 0
                    }
                ],
                "depth": -2,
                "name": "Total Gas",
                "value": 113433
            }
        ],
        "isConfirmed": true,
        "mainTrace": [
            {
                "children": [
                    {
                        "children": [
                            {
                                "children": [],
                                "depth": 1,
                                "id": 1,
                                "order": 1
                            },
                            {
                                "children": [
                                    {
                                        "children": [],
                                        "depth": 2,
                                        "id": 3,
                                        "order": 3
                                    }
                                ],
                                "depth": 1,
                                "id": 2,
                                "order": 2
                            }
                        ],
                        "depth": 0,
                        "id": 0,
                        "order": 0
                    }
                ],
                "depth": -1,
                "id": -1,
                "order": -1
            }
        ],
        "mainTraceNodeCount": 4,
        "parentIdMap": {
            "0": -1,
            "1": 0,
            "2": 0,
            "3": 2
        },
        "tidyTrace": [
            {
                "children": [
                    {
                        "children": [
                            {
                                "children": [
                                    {
                                        "children": [],
                                        "depth": 2,
                                        "id": 3,
                                        "order": 3
                                    }
                                ],
                                "depth": 1,
                                "id": 2,
                                "order": 2
                            }
                        ],
                        "depth": 0,
                        "id": 0,
                        "order": 0
                    }
                ],
                "depth": -1,
                "id": -1,
                "order": -1
            }
        ],
        "tidyTraceNodeCount": 3
    },
    "state_change": {
        "stateChanges": [
            {
                "address": "0x26ebb8213fb8d66156f1af8908d43f7e3e367c1d",
                "erc": "ERC-20",
                "slots": [
                    {
                        "current": "0x00000000000000000000000000000000000000000130b291f902fd456dd31d60",
                        "key": "0x88afd13d37e9bad8c266c848ce2d085d5494bf9417223425f3e01e15ae1835b5",
                        "prev": "0x00000000000000000000000000000000000000000130b29a28c89d45069efd60"
                    },
                    {
                        "current": "0x00000000000000000000000000000000000000000000000aea5cd554cbba8000",
                        "key": "0xe60142dcd3fbe48c5ef0f5a724b1c7974e4c3cdb46468e2cee6acb15c2f51994",
                        "prev": "0x000000000000000000000000000000000000000000000002ba97355532eea000"
                    }
                ],
                "storageVariables": [
                    {
                        "name": "_balances",
                        "type": "mapping(address => uint256)",
                        "value": {
                            "pairs": [
                                {
                                    "key": "0x602c90d796d746b97a36f075d9f3b2892b9b07c2",
                                    "value": {
                                        "current": "368356723117871093878300000",
                                        "prev": "368356874134157093878300000",
                                        "typeTag": 1
                                    }
                                },
                                {
                                    "key": "0x8f99125500e0e6943ec6c218bcfd8b387f15a976",
                                    "value": {
                                        "current": "201355048000000000000",
                                        "prev": "50338762000000000000",
                                        "typeTag": 1
                                    }
                                }
                            ],
                            "typeTag": 4
                        }
                    }
                ]
            },
            {
                "address": "0x602c90d796d746b97a36f075d9f3b2892b9b07c2",
                "erc": "",
                "slots": [
                    {
                        "current": "0x00000000000000000000000000000000000000000000000aea5cd554cbba8000",
                        "key": "0x3f8f567d7605ddee5d175cd4d8b472fa9c65801da8e91f62703ecab18a5a0cdb",
                        "prev": "0x000000000000000000000000000000000000000000000002ba97355532eea000"
                    },
                    {
                        "current": "0x0000000000000000000000000000000000000000000000000000000000000002",
                        "key": "0x3f8f567d7605ddee5d175cd4d8b472fa9c65801da8e91f62703ecab18a5a0cdc",
                        "prev": "0x0000000000000000000000000000000000000000000000000000000000000001"
                    },
                    {
                        "current": "0x00000000000000000000000000000000000000000000002ba97355532eea0000",
                        "key": "0x3f8f567d7605ddee5d175cd4d8b472fa9c65801da8e91f62703ecab18a5a0cd9",
                        "prev": "0x000000000000000000000000000000000000000000000033d938f552c7b5e000"
                    },
                    {
                        "current": "0x0000000000000000000000000000000000000000000000082fc59fff98cbe000",
                        "key": "0x3f8f567d7605ddee5d175cd4d8b472fa9c65801da8e91f62703ecab18a5a0cda",
                        "prev": "0x0000000000000000000000000000000000000000000000000000000000000000"
                    }
                ],
                "storageVariables": [
                    {
                        "name": "userClaimData",
                        "type": "mapping(address => mapping(uint256 => struct Retik_Presale.UserData))",
                        "value": {
                            "pairs": [
                                {
                                    "key": "0x8f99125500e0e6943ec6c218bcfd8b387f15a976",
                                    "value": {
                                        "pairs": [
                                            {
                                                "key": "8",
                                                "value": {
                                                    "fields": [
                                                        {
                                                            "name": "claimAbleAmount",
                                                            "type": "uint256",
                                                            "value": {
                                                                "current": "805420192000000000000",
                                                                "prev": "956436478000000000000",
                                                                "typeTag": 1
                                                            }
                                                        },
                                                        {
                                                            "name": "claimedVestingAmount",
                                                            "type": "uint256",
                                                            "value": {
                                                                "current": "151016286000000000000",
                                                                "prev": "0",
                                                                "typeTag": 1
                                                            }
                                                        },
                                                        {
                                                            "name": "claimedAmount",
                                                            "type": "uint256",
                                                            "value": {
                                                                "current": "201355048000000000000",
                                                                "prev": "50338762000000000000",
                                                                "typeTag": 1
                                                            }
                                                        },
                                                        {
                                                            "name": "claimCount",
                                                            "type": "uint256",
                                                            "value": {
                                                                "current": "2",
                                                                "prev": "1",
                                                                "typeTag": 1
                                                            }
                                                        }
                                                    ],
                                                    "typeTag": 3
                                                }
                                            }
                                        ],
                                        "typeTag": 4
                                    }
                                }
                            ],
                            "typeTag": 4
                        }
                    }
                ]
            }
        ]
    }
}