{
    "balance_change": {
        "balanceChanges": [
            {
                "account": "0x010f4f5d2cedf16ed992ad5ed8e68a77cda16759",
                "assets": [
                    {
                        "address": "0x912656188616e0184e3181f019022990a63280b1",
                        "amount": "193.8",
                        "iconUrl": "",
                        "isERC1155": false,
                        "isERC721": false,
                        "sign": false,
                        "value": ""
                    }
                ]
            },
            {
                "account": "0x2793a58be7999c34d7f0854d230ce799dd2586c6",
                "assets": [
                    {
                        "address": "0x912656188616e0184e3181f019022990a63280b1",
                        "amount": "193.8",
                        "iconUrl": "",
                        "isERC1155": false,
                        "isERC721": false,
                        "sign": true,
                        "value": ""
                    }
                ]
            }
        ]
    },
    "profile": {
        "basic_info": {
            "baseFee": "",
            "blockNumber": 9159289,
            "callData": "0xa9059cbb0000000000000000000000002793a58be7999c34d7f0854d230ce799dd2586c60000000000000000000000000000000000000000000000000000000483235500",
            "debugEnable": true,
            "errorInfo": "",
            "eventCount": 1,
            "feeRecipient": "0x5a0b54d5dc17e0aadc383d2db43b0a0d3e029c4c",
            "formatValue": "0",
            "gasLimit": 90000,
            "gasPrice": "4.6",
            "gasUsed": 36975,
            "intTxnCount": 0,
            "internalRevert": false,
            "internalRevertMessage": "",
            "isContractCreation": false,
            "isFlashloan": false,
            "maxFee": "",
            "nonce": 63775,
            "overwritedBlockNumber": -1,
            "priorityFee": "",
            "receiver": "0x912656188616e0184e3181f019022990a63280b1",
            "revertMessage": "",
            "sender": "0x010f4f5d2cedf16ed992ad5ed8e68a77cda16759",
            "simulationEnable": true,
            "sourceTxnHash": "0xd8130919468228551182261d2b8e80b11033dea696bb088705a6eb4ecaf58cd4",
            "status": true,
            "timestamp": "2019-12-25T05:29:52Z",
            "transactionFee": "0.000170085",
            "txnHash": "0xd8130919468228551182261d2b8e80b11033dea696bb088705a6eb4ecaf58cd4",
            "txnIndex": 59,
            "type": 0,
            "value": "0"
        },
        "fund_flow": [
            {
                "amount": "193.8",
                "from": "0x010f4f5d2cedf16ed992ad5ed8e68a77cda16759",
                "id": 1,
                "isERC1155": false,
                "isERC721": false,
                "isReverted": false,
                "order": 1,
                "to": "0x2793a58be7999c34d7f0854d230ce799dd2586c6",
                "token": "0x912656188616e0184e3181f019022990a63280b1"
            }
        ],
        "token_infos": [
            {
                "address": "0xeeeeeeeeeeeeeeeeeeeeeeeeeeeeeeeeeeeeeeee",
                "decimals": 18
            },
            {
                "address": "0x912656188616e0184e3181f019022990a63280b1",
                "decimals": 8
            },
            {
                "address": "0xc02aaa39b223fe8d0a0e5c4f27ead9083c756cc2",
                "decimals": 18
            }
        ]
    },
    "address_label": {
        "labels": [
            {
                "address": "0x912656188616e0184e3181f019022990a63280b1",
                "label": "POCC (POCC)"
            },
            {
                "address": "0x0000000000000000000000000000000000000001",
                "label": "Precompiled"
            },
            {
                "address": "0x0000000000000000000000000000000000000002",
                "label": "Precompiled"
            },
            {
                "address": "0x0000000000000000000000000000000000000003",
                "label": "Precompiled"
            },
            {
                "address": "0x0000000000000000000000000000000000000004",
                "label": "Precompiled"
            },
            {
                "address": "0xeeeeeeeeeeeeeeeeeeeeeeeeeeeeeeeeeeeeeeee",
                "label": "Ether"
            }
        ]
    },
    "trace": {
        "accountLabels": null,
        "dataMap": {
            "-1": {
                "invocation": {
                    "address": "0x010f4f5d2cedf16ed992ad5ed8e68a77cda16759",
                    "callData": "",
                    "decodedMethod": null,
                    "errorInfo": "",
                    "fromAddress": "",
                    "gasUsed": 0,
                    "id": -1,
                    "methodDecoded": false,
                    "operation": "",
                    "output": "",
                    "revert": false,
                    "revertMessage": "",
                    "selector": "",
                    "status": false,
                    "value": ""
                },
                "nodeType": 0
            },
            "0": {
                "invocation": {
                    "address": "0x912656188616e0184e3181f019022990a63280b1",
                    "callData": "0x0000000000000000000000002793a58be7999c34d7f0854d230ce799dd2586c60000000000000000000000000000000000000000000000000000000483235500",
                    "decodedMethod": {
                        "callParams": [
                            {
                                "name": "receiver",
                                "type": "address",
                                "value": "0x2793a58be7999c34d7f0854d230ce799dd2586c6"
                            },
                            {
                                "decimalAvailable": true,
                                "name": "numTokens",
                                "type": "uint256",
                                "value": "19,380,000,000"
                            }
                        ],
                        "constructorArguments": "",
                        "name": "transfer",
                        "returnParams": [
                            {
                                "name": "",
                                "type": "bool",
                                "value": true
                            }
                        ],
                        "signature": "transfer(address,uint256)"
                    },
                    "errorInfo": "",
                    "fromAddress": "0x010f4f5d2cedf16ed992ad5ed8e68a77cda16759",
                    "gasUsed": 36975,
                    "id": 0,
                    "methodDecoded": true,
                    "operation": "CALL",
                    "output": "0x0000000000000000000000000000000000000000000000000000000000000001",
                    "revert": false,
                    "revertMessage": "",
                    "selector": "0xa9059cbb",
                    "status": true,
                    "value": "0"
                },
                "nodeType": 0
            },
            "1": {
                "event": {
                    "contract": "0x912656188616e0184e3181f019022990a63280b1",
                    "decodedLog": {
                        "name": "Transfer",
                        "params": [
                            {
                                "name": "from",
                                "type": "address",
                                "value": "0x010f4f5d2cedf16ed992ad5ed8e68a77cda16759"
                            },
                            {
                                "name": "to",
                                "type": "address",
                                "value": "0x2793a58be7999c34d7f0854d230ce799dd2586c6"
                            },
                            {
                                "decimalAvailable": true,
                                "name": "tokens",
                                "type": "uint256",
                                "value": "19,380,000,000"
                            }
                        ],
                        "signature": "Transfer(address,address,uint256)"
                    },
                    "id": 1,
                    "logData": "0x0000000000000000000000000000000000000000000000000000000483235500",
                    "logDecoded": true,
                    "operation": "EVENT",
                    "revert": false,
                    "status": true,
                    "topics": [
                        "0xddf252ad1be2c89b69c2b068fc378daa952ba7f163c4a11628f55a4df523b3ef",
                        "0x000000000000000000000000010f4f5d2cedf16ed992ad5ed8e68a77cda16759",
                        "0x0000000000000000000000002793a58be7999c34d7f0854d230ce799dd2586c6"
                    ]
                },
                "nodeType": 1
            }
        },
        "gasFlame": [
            {
                "children": [
                    {
                        "children": [
                            {
                                "children": [],
                                "depth": 0,
                                "name": "Initial Gas",
                                "value": 21608
                            },
                            {
                                "children": [],
                                "depth": 0,
                                "name": "Executed Gas",
                                "value": 15367
                            }
                        ],
                        "depth": -1,
                        "name": "Actual Gas Used",
                        "value": 36975
                    },
                    {
                        "children": [],
                        "depth": -1,
                        "name": "Refunded Gas",
                        "value": 0
                    }
                ],
                "depth": -2,
                "name": "Total Gas",
                "value": 36975
            }
        ],
        "isConfirmed": true,
        "mainTrace": [
            {
                "children": [
                    {
                        "children": [
                            {
                                "children": [],
                                "depth": 1,
                                "id": 1,
                                "order": 1
                            }
                        ],
                        "depth": 0,
                        "id": 0,
                        "order": 0
                    }
                ],
                "depth": -1,
                "id": -1,
                "order": -1
            }
        ],
        "mainTraceNodeCount": 2,
        "parentIdMap": {
            "0": -1,
            "1": 0
        },
        "tidyTrace": [
            {
                "children": [
                    {
                        "children": [
                            {
                                "children": [],
                                "depth": 1,
                                "id": 1,
                                "order": 1
                            }
                        ],
                        "depth": 0,
                        "id": 0,
                        "order": 0
                    }
                ],
                "depth": -1,
                "id": -1,
                "order": -1
            }
        ],
        "tidyTraceNodeCount": 2
    },
    "state_change": {
        "stateChanges": [
            {
                "address": "0x912656188616e0184e3181f019022990a63280b1",
                "erc": "ERC-20",
                "slots": [
                    {
                        "current": "0x0000000000000000000000000000000000000000000000000008df4b79b04d4f",
                        "key": "0xd8b207185bb94b4f3e61cf031982b15bc04419b79062f7ba8687f0ca0735e704",
                        "prev": "0x0000000000000000000000000000000000000000000000000008df4ffcd3a24f"
                    },
                    {
                        "current": "0x00000000000000000000000000000000000000000000000000000049b8eaacc0",
                        "key": "0x378ba5aeabd60528ac02e75d931a68e619333e8717c11d81c3a3adb13b09e56c",
                        "prev": "0x0000000000000000000000000000000000000000000000000000004535c757c0"
                    }
                ],
                "storageVariables": [
                    {
                        "name": "balances",
                        "type": "mapping(address => uint256)",
                        "value": {
                            "pairs": [
                                {
                                    "key": "0x010f4f5d2cedf16ed992ad5ed8e68a77cda16759",
                                    "value": {
                                        "current": "2497315070823759",
                                        "prev": "2497334450823759",
                                        "typeTag": 1
                                    }
                                },
                                {
                                    "key": "0x2793a58be7999c34d7f0854d230ce799dd2586c6",
                                    "value": {
                                        "current": "316635000000",
                                        "prev": "297255000000",
                                        "typeTag": 1
                                    }
                                }
                            ],
                            "typeTag": 4
                        }
                    }
                ]
            }
        ]
    }
}