{
    "balance_change": {
        "balanceChanges": [
            {
                "account": "0x0000000000000000000000000000000000000000",
                "assets": [
                    {
                        "address": "0x26830ed82ad72dff1a92f49780bd634b1e42786d",
                        "amount": "1",
                        "iconUrl": "",
                        "isERC1155": false,
                        "isERC721": true,
                        "sign": true,
                        "tokenID": "1215",
                        "value": ""
                    }
                ]
            },
            {
                "account": "0x26830ed82ad72dff1a92f49780bd634b1e42786d",
                "assets": [
                    {
                        "address": "0x49cf6f5d44e70224e2e23fdcdd2c053f30ada28b",
                        "amount": "1",
                        "iconUrl": "https://assets.blocksec.com/nft/icon/nft_5870c9ea-a0f7-4cdc-80d7-fbe53d162786.png",
                        "isERC1155": false,
                        "isERC721": true,
                        "sign": false,
                        "tokenID": "1215",
                        "value": ""
                    }
                ]
            },
            {
                "account": "0x59b72fdb45b3182c8502cc297167fe4f821f332d",
                "assets": [
                    {
                        "address": "0x49cf6f5d44e70224e2e23fdcdd2c053f30ada28b",
                        "amount": "1",
                        "iconUrl": "https://assets.blocksec.com/nft/icon/nft_5870c9ea-a0f7-4cdc-80d7-fbe53d162786.png",
                        "isERC1155": false,
                        "isERC721": true,
                        "sign": true,
                        "tokenID": "1215",
                        "value": ""
                    }
                ]
            },
            {
                "account": "0xe3460c866c705ca994e93e27957dc9060c79dfef",
                "assets": [
                    {
                        "address": "0x26830ed82ad72dff1a92f49780bd634b1e42786d",
                        "amount": "1",
                        "iconUrl": "",
                        "isERC1155": false,
                        "isERC721": true,
                        "sign": false,
                        "tokenID": "1215",
                        "value": ""
                    }
                ]
            }
        ]
    },
    "profile": {
        "basic_info": {
            "baseFee": "30.202888466",
            "blockNumber": 16990313,
            "callData": "0x3786ddfc00000000000000000000000049cf6f5d44e70224e2e23fdcdd2c053f30ada28b0000000000000000000000000000000000000000000000000000000000000060000000000000000000000000e3460c866c705ca994e93e27957dc9060c79dfef000000000000000000000000000000000000000000000000000000000000000100000000000000000000000000000000000000000000000000000000000004bf",
            "debugEnable": true,
            "errorInfo": "",
            "eventCount": 7,
            "feeRecipient": "0xdafea492d9c6733ae3d56b7ed1adb60692c98bc5",
            "formatValue": "0",
            "gasLimit": 505148,
            "gasPrice": "30.302888466",
            "gasUsed": 326603,
            "intTxnCount": 20,
            "internalRevert": false,
            "internalRevertMessage": "",
            "isContractCreation": false,
            "isFlashloan": false,
            "maxFee": "37.752489328",
            "nonce": 1268,
            "overwritedBlockNumber": -1,
            "priorityFee": "0.1",
            "receiver": "0x638a98bbb92a7582d07c52ff407d49664dc8b3ee",
            "revertMessage": "",
            "sender": "0xe3460c866c705ca994e93e27957dc9060c79dfef",
            "simulationEnable": true,
            "sourceTxnHash": "0xd9e79646e5e42e51488c4a397e370afd64032a6c9d27e078156ec9df2b617566",
            "status": true,
            "timestamp": "2023-04-06T15:00:59Z",
            "transactionFee": "0.009897014281660998",
            "txnHash": "0xd9e79646e5e42e51488c4a397e370afd64032a6c9d27e078156ec9df2b617566",
            "txnIndex": 145,
            "type": 2,
            "value": "0"
        },
        "fund_flow": [
            {
                "amount": "1",
                "from": "0xe3460c866c705ca994e93e27957dc9060c79dfef",
                "id": 1,
                "isERC1155": false,
                "isERC721": true,
                "isReverted": false,
                "order": 1,
                "to": "0x0000000000000000000000000000000000000000",
                "token": "0x26830ed82ad72dff1a92f49780bd634b1e42786d",
                "tokenID": "1215"
            },
            {
                "amount": "1",
                "from": "0x26830ed82ad72dff1a92f49780bd634b1e42786d",
                "id": 2,
                "isERC1155": false,
                "isERC721": true,
                "isReverted": false,
                "order": 2,
                "to": "0x59b72fdb45b3182c8502cc297167fe4f821f332d",
                "token": "0x49cf6f5d44e70224e2e23fdcdd2c053f30ada28b",
                "tokenID": "1215"
            }
        ],
        "token_infos": [
            {
                "address": "0xc02aaa39b223fe8d0a0e5c4f27ead9083c756cc2",
                "decimals": 18
            },
            {
                "address": "0xeeeeeeeeeeeeeeeeeeeeeeeeeeeeeeeeeeeeeeee",
                "decimals": 18
            }
        ]
    },
    "address_label": {
        "labels": [
            {
                "address": "0x6b58baa08a91f0f08900f43692a9796045454a17",
                "label": "ParaSpaceOracle"
            },
            {
                "address": "0x0000000000000000000000000000000000000001",
                "label": "Precompiled"
            },
            {
                "address": "0x0000000000000000000000000000000000000003",
                "label": "Precompiled"
            },
            {
                "address": "0x0000000000000000000000000000000000000004",
                "label": "Precompiled"
            },
            {
                "address": "0x044a6b55def3bf4292697c02c3a6109520279794",
                "label": "SupplyLogic"
            },
            {
                "address": "0x27046296e0fb79100fc9efd6be95c8422dbce78c",
                "label": "TimeLock"
            },
            {
                "address": "0x49cf6f5d44e70224e2e23fdcdd2c053f30ada28b",
                "label": "RTFKT: CloneX Token"
            },
            {
                "address": "0x59b72fdb45b3182c8502cc297167fe4f821f332d",
                "label": "InitializableAdminUpgradeabilityProxy"
            },
            {
                "address": "0x8e1f8b5c9ae49a9b13084c4bd071efc03a7c3da8",
                "label": "PoolCore"
            },
            {
                "address": "0xc5350fe791e94152edbfb6c7a39d0fd6c7fcc3e4",
                "label": "NToken"
            },
            {
                "address": "0x6cd30e716adbe47dadf7319f6f2fb83d507c857d",
                "label": "PoolAddressesProvider"
            },
            {
                "address": "0x26830ed82ad72dff1a92f49780bd634b1e42786d",
                "label": "ParaSpace Derivative Token CLONEX (nCLONEX)"
            },
            {
                "address": "0x8f3527276f7db90f1f68d166df366fa46fd70054",
                "label": "MintableERC721Logic"
            },
            {
                "address": "0x0000000000000000000000000000000000000002",
                "label": "Precompiled"
            },
            {
                "address": "0xeeeeeeeeeeeeeeeeeeeeeeeeeeeeeeeeeeeeeeee",
                "label": "Ether"
            },
            {
                "address": "0x638a98bbb92a7582d07c52ff407d49664dc8b3ee",
                "label": "ParaSpace: Pool Proxy"
            },
            {
                "address": "0x3e16061152394bacb7f43de8ae09960c000626c5",
                "label": "DefaultTimeLockStrategy"
            }
        ]
    },
    "trace": {
        "accountLabels": null,
        "dataMap": {
            "-1": {
                "invocation": {
                    "address": "0xe3460c866c705ca994e93e27957dc9060c79dfef",
                    "callData": "",
                    "decodedMethod": null,
                    "errorInfo": "",
                    "fromAddress": "",
                    "gasUsed": 0,
                    "id": -1,
                    "methodDecoded": false,
                    "operation": "",
                    "output": "",
                    "revert": false,
                    "revertMessage": "",
                    "selector": "",
                    "status": false,
                    "value": ""
                },
                "nodeType": 0
            },
            "0": {
                "invocation": {
                    "address": "0x638a98bbb92a7582d07c52ff407d49664dc8b3ee",
                    "callData": "0x00000000000000000000000049cf6f5d44e70224e2e23fdcdd2c053f30ada28b0000000000000000000000000000000000000000000000000000000000000060000000000000000000000000e3460c866c705ca994e93e27957dc9060c79dfef000000000000000000000000000000000000000000000000000000000000000100000000000000000000000000000000000000000000000000000000000004bf",
                    "decodedMethod": {
                        "callParams": [
                            {
                                "name": "asset",
                                "type": "address",
                                "value": "0x49cf6f5d44e70224e2e23fdcdd2c053f30ada28b"
                            },
                            {
                                "name": "tokenIds",
                                "type": "uint256[]",
                                "value": [
                                    "1,215"
                                ]
                            },
                            {
                                "name": "to",
                                "type": "address",
                                "value": "0xe3460c866c705ca994e93e27957dc9060c79dfef"
                            }
                        ],
                        "constructorArguments": "",
                        "name": "withdrawERC721",
                        "returnParams": [
                            {
                                "name": "",
                                "type": "uint256",
                                "value": "1"
                            }
                        ],
                        "signature": "withdrawERC721(address,uint256[],address)"
                    },
                    "errorInfo": "",
                    "fromAddress": "0xe3460c866c705ca994e93e27957dc9060c79dfef",
                    "gasUsed": 326603,
                    "id": 0,
                    "methodDecoded": true,
                    "operation": "CALL",
                    "output": "0x0000000000000000000000000000000000000000000000000000000000000001",
                    "revert": false,
                    "revertMessage": "",
                    "selector": "0x3786ddfc",
                    "status": true,
                    "value": "0"
                },
                "nodeType": 0
            },
            "1": {
                "invocation": {
                    "address": "0x8e1f8b5c9ae49a9b13084c4bd071efc03a7c3da8",
                    "callData": "0x00000000000000000000000049cf6f5d44e70224e2e23fdcdd2c053f30ada28b0000000000000000000000000000000000000000000000000000000000000060000000000000000000000000e3460c866c705ca994e93e27957dc9060c79dfef000000000000000000000000000000000000000000000000000000000000000100000000000000000000000000000000000000000000000000000000000004bf",
                    "decodedMethod": {
                        "callParams": [
                            {
                                "name": "asset",
                                "type": "address",
                                "value": "0x49cf6f5d44e70224e2e23fdcdd2c053f30ada28b"
                            },
                            {
                                "name": "tokenIds",
                                "type": "uint256[]",
                                "value": [
                                    "1,215"
                                ]
                            },
                            {
                                "name": "to",
                                "type": "address",
                                "value": "0xe3460c866c705ca994e93e27957dc9060c79dfef"
                            }
                        ],
                        "constructorArguments": "",
                        "name": "withdrawERC721",
                        "returnParams": [
                            {
                                "name": "",
                                "type": "uint256",
                                "value": "1"
                            }
                        ],
                        "signature": "withdrawERC721(address,uint256[],address)"
                    },
                    "errorInfo": "",
                    "fromAddress": "0x638a98bbb92a7582d07c52ff407d49664dc8b3ee",
                    "gasUsed": 348086,
                    "id": 1,
                    "methodDecoded": true,
                    "operation": "DELEGATECALL",
                    "output": "0x0000000000000000000000000000000000000000000000000000000000000001",
                    "revert": false,
                    "revertMessage": "",
                    "selector": "0x3786ddfc",
                    "status": true,
                    "value": "0"
                },
                "nodeType": 0
            },
            "10": {
                "invocation": {
                    "address": "0x638a98bbb92a7582d07c52ff407d49664dc8b3ee",
                    "callData": "0x000000000000000000000000e3460c866c705ca994e93e27957dc9060c79dfef",
                    "decodedMethod": {
                        "callParams": [
                            {
                                "name": "user",
                                "type": "address",
                                "value": "0xe3460c866c705ca994e93e27957dc9060c79dfef"
                            }
                        ],
                        "constructorArguments": "",
                        "name": "getUserConfiguration",
                        "returnParams": [
                            {
                                "name": "",
                                "type": "(uint256,uint256)",
                                "value": [
                                    {
                                        "name": "data",
                                        "type": "uint256",
                                        "value": "2,097,152"
                                    },
                                    {
                                        "name": "auctionValidityTime",
                                        "type": "uint256",
                                        "value": "0"
                                    }
                                ]
                            }
                        ],
                        "signature": "getUserConfiguration(address)"
                    },
                    "errorInfo": "",
                    "fromAddress": "0x26830ed82ad72dff1a92f49780bd634b1e42786d",
                    "gasUsed": 7593,
                    "id": 10,
                    "methodDecoded": true,
                    "operation": "STATICCALL",
                    "output": "0x00000000000000000000000000000000000000000000000000000000002000000000000000000000000000000000000000000000000000000000000000000000",
                    "revert": false,
                    "revertMessage": "",
                    "selector": "0x4417a583",
                    "status": true,
                    "value": "0"
                },
                "nodeType": 0
            },
            "11": {
                "invocation": {
                    "address": "0x8e1f8b5c9ae49a9b13084c4bd071efc03a7c3da8",
                    "callData": "0x000000000000000000000000e3460c866c705ca994e93e27957dc9060c79dfef",
                    "decodedMethod": {
                        "callParams": [
                            {
                                "name": "user",
                                "type": "address",
                                "value": "0xe3460c866c705ca994e93e27957dc9060c79dfef"
                            }
                        ],
                        "constructorArguments": "",
                        "name": "getUserConfiguration",
                        "returnParams": [
                            {
                                "name": "",
                                "type": "(uint256,uint256)",
                                "value": [
                                    {
                                        "name": "data",
                                        "type": "uint256",
                                        "value": "2,097,152"
                                    },
                                    {
                                        "name": "auctionValidityTime",
                                        "type": "uint256",
                                        "value": "0"
                                    }
                                ]
                            }
                        ],
                        "signature": "getUserConfiguration(address)"
                    },
                    "errorInfo": "",
                    "fromAddress": "0x638a98bbb92a7582d07c52ff407d49664dc8b3ee",
                    "gasUsed": 5026,
                    "id": 11,
                    "methodDecoded": true,
                    "operation": "DELEGATECALL",
                    "output": "0x00000000000000000000000000000000000000000000000000000000002000000000000000000000000000000000000000000000000000000000000000000000",
                    "revert": false,
                    "revertMessage": "",
                    "selector": "0x4417a583",
                    "status": true,
                    "value": "0"
                },
                "nodeType": 0
            },
            "12": {
                "event": {
                    "contract": "0x26830ed82ad72dff1a92f49780bd634b1e42786d",
                    "decodedLog": {
                        "name": "Approval",
                        "params": [
                            {
                                "name": "owner",
                                "type": "address",
                                "value": "0xe3460c866c705ca994e93e27957dc9060c79dfef"
                            },
                            {
                                "name": "approved",
                                "type": "address",
                                "value": "0x0000000000000000000000000000000000000000"
                            },
                            {
                                "decimalAvailable": true,
                                "name": "tokenId",
                                "type": "uint256",
                                "value": "1,215"
                            }
                        ],
                        "signature": "Approval(address,address,uint256)"
                    },
                    "id": 12,
                    "logData": "0x",
                    "logDecoded": true,
                    "operation": "EVENT",
                    "revert": false,
                    "status": true,
                    "topics": [
                        "0x8c5be1e5ebec7d5bd14f71427d1e84f3dd0314c0f7b2291e5b200ac8c7c3b925",
                        "0x000000000000000000000000e3460c866c705ca994e93e27957dc9060c79dfef",
                        "0x0000000000000000000000000000000000000000000000000000000000000000",
                        "0x00000000000000000000000000000000000000000000000000000000000004bf"
                    ]
                },
                "nodeType": 1
            },
            "13": {
                "event": {
                    "contract": "0x26830ed82ad72dff1a92f49780bd634b1e42786d",
                    "decodedLog": {
                        "name": "Transfer",
                        "params": [
                            {
                                "name": "from",
                                "type": "address",
                                "value": "0xe3460c866c705ca994e93e27957dc9060c79dfef"
                            },
                            {
                                "name": "to",
                                "type": "address",
                                "value": "0x0000000000000000000000000000000000000000"
                            },
                            {
                                "decimalAvailable": true,
                                "name": "tokenId",
                                "type": "uint256",
                                "value": "1,215"
                            }
                        ],
                        "signature": "Transfer(address,address,uint256)"
                    },
                    "id": 13,
                    "logData": "0x",
                    "logDecoded": true,
                    "operation": "EVENT",
                    "revert": false,
                    "status": true,
                    "topics": [
                        "0xddf252ad1be2c89b69c2b068fc378daa952ba7f163c4a11628f55a4df523b3ef",
                        "0x000000000000000000000000e3460c866c705ca994e93e27957dc9060c79dfef",
                        "0x0000000000000000000000000000000000000000000000000000000000000000",
                        "0x00000000000000000000000000000000000000000000000000000000000004bf"
                    ]
                },
                "nodeType": 1
            },
            "14": {
                "invocation": {
                    "address": "0x638a98bbb92a7582d07c52ff407d49664dc8b3ee",
                    "callData": "0x",
                    "decodedMethod": {
                        "callParams": [],
                        "constructorArguments": "",
                        "name": "TIME_LOCK",
                        "returnParams": [
                            {
                                "name": "",
                                "type": "address",
                                "value": "0x59b72fdb45b3182c8502cc297167fe4f821f332d"
                            }
                        ],
                        "signature": "TIME_LOCK()"
                    },
                    "errorInfo": "",
                    "fromAddress": "0x26830ed82ad72dff1a92f49780bd634b1e42786d",
                    "gasUsed": 2865,
                    "id": 14,
                    "methodDecoded": true,
                    "operation": "STATICCALL",
                    "output": "0x00000000000000000000000059b72fdb45b3182c8502cc297167fe4f821f332d",
                    "revert": false,
                    "revertMessage": "",
                    "selector": "0xe0a09c68",
                    "status": true,
                    "value": "0"
                },
                "nodeType": 0
            },
            "15": {
                "invocation": {
                    "address": "0x8e1f8b5c9ae49a9b13084c4bd071efc03a7c3da8",
                    "callData": "0x",
                    "decodedMethod": {
                        "callParams": [],
                        "constructorArguments": "",
                        "name": "TIME_LOCK",
                        "returnParams": [
                            {
                                "name": "",
                                "type": "address",
                                "value": "0x59b72fdb45b3182c8502cc297167fe4f821f332d"
                            }
                        ],
                        "signature": "TIME_LOCK()"
                    },
                    "errorInfo": "",
                    "fromAddress": "0x638a98bbb92a7582d07c52ff407d49664dc8b3ee",
                    "gasUsed": 304,
                    "id": 15,
                    "methodDecoded": true,
                    "operation": "DELEGATECALL",
                    "output": "0x00000000000000000000000059b72fdb45b3182c8502cc297167fe4f821f332d",
                    "revert": false,
                    "revertMessage": "",
                    "selector": "0xe0a09c68",
                    "status": true,
                    "value": "0"
                },
                "nodeType": 0
            },
            "16": {
                "invocation": {
                    "address": "0x59b72fdb45b3182c8502cc297167fe4f821f332d",
                    "callData": "0x0000000000000000000000000000000000000000000000000000000000000001000000000000000000000000000000000000000000000000000000000000000100000000000000000000000049cf6f5d44e70224e2e23fdcdd2c053f30ada28b00000000000000000000000000000000000000000000000000000000000000c0000000000000000000000000e3460c866c705ca994e93e27957dc9060c79dfef00000000000000000000000000000000000000000000000000000000642edeb7000000000000000000000000000000000000000000000000000000000000000100000000000000000000000000000000000000000000000000000000000004bf",
                    "decodedMethod": {
                        "callParams": [
                            {
                                "name": "assetType",
                                "type": "uint8",
                                "value": "1"
                            },
                            {
                                "name": "actionType",
                                "type": "uint8",
                                "value": "1"
                            },
                            {
                                "name": "asset",
                                "type": "address",
                                "value": "0x49cf6f5d44e70224e2e23fdcdd2c053f30ada28b"
                            },
                            {
                                "name": "tokenIdsOrAmounts",
                                "type": "uint256[]",
                                "value": [
                                    "1,215"
                                ]
                            },
                            {
                                "name": "beneficiary",
                                "type": "address",
                                "value": "0xe3460c866c705ca994e93e27957dc9060c79dfef"
                            },
                            {
                                "name": "releaseTime",
                                "type": "uint48",
                                "value": "1,680,793,271"
                            }
                        ],
                        "constructorArguments": "",
                        "name": "createAgreement",
                        "returnParams": [
                            {
                                "name": "",
                                "type": "uint256",
                                "value": "2,052"
                            }
                        ],
                        "signature": "createAgreement(uint8,uint8,address,uint256[],address,uint48)"
                    },
                    "errorInfo": "",
                    "fromAddress": "0x26830ed82ad72dff1a92f49780bd634b1e42786d",
                    "gasUsed": 111374,
                    "id": 16,
                    "methodDecoded": true,
                    "operation": "CALL",
                    "output": "0x0000000000000000000000000000000000000000000000000000000000000804",
                    "revert": false,
                    "revertMessage": "",
                    "selector": "0xdf033494",
                    "status": true,
                    "value": "0"
                },
                "nodeType": 0
            },
            "17": {
                "invocation": {
                    "address": "0x27046296e0fb79100fc9efd6be95c8422dbce78c",
                    "callData": "0x0000000000000000000000000000000000000000000000000000000000000001000000000000000000000000000000000000000000000000000000000000000100000000000000000000000049cf6f5d44e70224e2e23fdcdd2c053f30ada28b00000000000000000000000000000000000000000000000000000000000000c0000000000000000000000000e3460c866c705ca994e93e27957dc9060c79dfef00000000000000000000000000000000000000000000000000000000642edeb7000000000000000000000000000000000000000000000000000000000000000100000000000000000000000000000000000000000000000000000000000004bf",
                    "decodedMethod": {
                        "callParams": [
                            {
                                "name": "assetType",
                                "type": "uint8",
                                "value": "1"
                            },
                            {
                                "name": "actionType",
                                "type": "uint8",
                                "value": "1"
                            },
                            {
                                "name": "asset",
                                "type": "address",
                                "value": "0x49cf6f5d44e70224e2e23fdcdd2c053f30ada28b"
                            },
                            {
                                "name": "tokenIdsOrAmounts",
                                "type": "uint256[]",
                                "value": [
                                    "1,215"
                                ]
                            },
                            {
                                "name": "beneficiary",
                                "type": "address",
                                "value": "0xe3460c866c705ca994e93e27957dc9060c79dfef"
                            },
                            {
                                "name": "releaseTime",
                                "type": "uint48",
                                "value": "1,680,793,271"
                            }
                        ],
                        "constructorArguments": "",
                        "name": "createAgreement",
                        "returnParams": [
                            {
                                "name": "",
                                "type": "uint256",
                                "value": "2,052"
                            }
                        ],
                        "signature": "createAgreement(uint8,uint8,address,uint256[],address,uint48)"
                    },
                    "errorInfo": "",
                    "fromAddress": "0x59b72fdb45b3182c8502cc297167fe4f821f332d",
                    "gasUsed": 104098,
                    "id": 17,
                    "methodDecoded": true,
                    "operation": "DELEGATECALL",
                    "output": "0x0000000000000000000000000000000000000000000000000000000000000804",
                    "revert": false,
                    "revertMessage": "",
                    "selector": "0xdf033494",
                    "status": true,
                    "value": "0"
                },
                "nodeType": 0
            },
            "18": {
                "invocation": {
                    "address": "0x638a98bbb92a7582d07c52ff407d49664dc8b3ee",
                    "callData": "0x00000000000000000000000049cf6f5d44e70224e2e23fdcdd2c053f30ada28b",
                    "decodedMethod": {
                        "callParams": [
                            {
                                "name": "asset",
                                "type": "address",
                                "value": "0x49cf6f5d44e70224e2e23fdcdd2c053f30ada28b"
                            }
                        ],
                        "constructorArguments": "",
                        "name": "getReserveXToken",
                        "returnParams": [
                            {
                                "name": "",
                                "type": "address",
                                "value": "0x26830ed82ad72dff1a92f49780bd634b1e42786d"
                            }
                        ],
                        "signature": "getReserveXToken(address)"
                    },
                    "errorInfo": "",
                    "fromAddress": "0x59b72fdb45b3182c8502cc297167fe4f821f332d",
                    "gasUsed": 3376,
                    "id": 18,
                    "methodDecoded": true,
                    "operation": "STATICCALL",
                    "output": "0x00000000000000000000000026830ed82ad72dff1a92f49780bd634b1e42786d",
                    "revert": false,
                    "revertMessage": "",
                    "selector": "0x8d1a6a1f",
                    "status": true,
                    "value": "0"
                },
                "nodeType": 0
            },
            "19": {
                "invocation": {
                    "address": "0x8e1f8b5c9ae49a9b13084c4bd071efc03a7c3da8",
                    "callData": "0x00000000000000000000000049cf6f5d44e70224e2e23fdcdd2c053f30ada28b",
                    "decodedMethod": {
                        "callParams": [
                            {
                                "name": "asset",
                                "type": "address",
                                "value": "0x49cf6f5d44e70224e2e23fdcdd2c053f30ada28b"
                            }
                        ],
                        "constructorArguments": "",
                        "name": "getReserveXToken",
                        "returnParams": [
                            {
                                "name": "",
                                "type": "address",
                                "value": "0x26830ed82ad72dff1a92f49780bd634b1e42786d"
                            }
                        ],
                        "signature": "getReserveXToken(address)"
                    },
                    "errorInfo": "",
                    "fromAddress": "0x638a98bbb92a7582d07c52ff407d49664dc8b3ee",
                    "gasUsed": 812,
                    "id": 19,
                    "methodDecoded": true,
                    "operation": "DELEGATECALL",
                    "output": "0x00000000000000000000000026830ed82ad72dff1a92f49780bd634b1e42786d",
                    "revert": false,
                    "revertMessage": "",
                    "selector": "0x8d1a6a1f",
                    "status": true,
                    "value": "0"
                },
                "nodeType": 0
            },
            "2": {
                "invocation": {
                    "address": "0x6cd30e716adbe47dadf7319f6f2fb83d507c857d",
                    "callData": "0x",
                    "decodedMethod": {
                        "callParams": [],
                        "constructorArguments": "",
                        "name": "getPriceOracle",
                        "returnParams": [
                            {
                                "name": "",
                                "type": "address",
                                "value": "0x6b58baa08a91f0f08900f43692a9796045454a17"
                            }
                        ],
                        "signature": "getPriceOracle()"
                    },
                    "errorInfo": "",
                    "fromAddress": "0x638a98bbb92a7582d07c52ff407d49664dc8b3ee",
                    "gasUsed": 2448,
                    "id": 2,
                    "methodDecoded": true,
                    "operation": "STATICCALL",
                    "output": "0x0000000000000000000000006b58baa08a91f0f08900f43692a9796045454a17",
                    "revert": false,
                    "revertMessage": "",
                    "selector": "0xfca513a8",
                    "status": true,
                    "value": "0"
                },
                "nodeType": 0
            },
            "20": {
                "event": {
                    "contract": "0x59b72fdb45b3182c8502cc297167fe4f821f332d",
                    "decodedLog": {
                        "name": "AgreementCreated",
                        "params": [
                            {
                                "name": "asset",
                                "type": "address",
                                "value": "0x49cf6f5d44e70224e2e23fdcdd2c053f30ada28b"
                            },
                            {
                                "name": "beneficiary",
                                "type": "address",
                                "value": "0xe3460c866c705ca994e93e27957dc9060c79dfef"
                            },
                            {
                                "name": "agreementId",
                                "type": "uint256",
                                "value": "2,052"
                            },
                            {
                                "name": "assetType",
                                "type": "uint8",
                                "value": "1"
                            },
                            {
                                "name": "actionType",
                                "type": "uint8",
                                "value": "1"
                            },
                            {
                                "name": "tokenIdsOrAmounts",
                                "type": "uint256[]",
                                "value": [
                                    "1,215"
                                ]
                            },
                            {
                                "name": "releaseTime",
                                "type": "uint48",
                                "value": "1,680,793,271"
                            }
                        ],
                        "signature": "AgreementCreated(uint256,uint8,uint8,address,uint256[],address,uint48)"
                    },
                    "id": 20,
                    "logData": "0x00000000000000000000000000000000000000000000000000000000000008040000000000000000000000000000000000000000000000000000000000000001000000000000000000000000000000000000000000000000000000000000000100000000000000000000000000000000000000000000000000000000000000a000000000000000000000000000000000000000000000000000000000642edeb7000000000000000000000000000000000000000000000000000000000000000100000000000000000000000000000000000000000000000000000000000004bf",
                    "logDecoded": true,
                    "operation": "EVENT",
                    "revert": false,
                    "status": true,
                    "topics": [
                        "0x454cda23c2c757a228c6569d9f3db9c4cb8936936f8f73ae2fcf7ad1d40c2c1b",
                        "0x00000000000000000000000049cf6f5d44e70224e2e23fdcdd2c053f30ada28b",
                        "0x000000000000000000000000e3460c866c705ca994e93e27957dc9060c79dfef"
                    ]
                },
                "nodeType": 1
            },
            "21": {
                "invocation": {
                    "address": "0x49cf6f5d44e70224e2e23fdcdd2c053f30ada28b",
                    "callData": "0x00000000000000000000000026830ed82ad72dff1a92f49780bd634b1e42786d00000000000000000000000059b72fdb45b3182c8502cc297167fe4f821f332d00000000000000000000000000000000000000000000000000000000000004bf",
                    "decodedMethod": {
                        "callParams": [
                            {
                                "name": "from",
                                "type": "address",
                                "value": "0x26830ed82ad72dff1a92f49780bd634b1e42786d"
                            },
                            {
                                "name": "to",
                                "type": "address",
                                "value": "0x59b72fdb45b3182c8502cc297167fe4f821f332d"
                            },
                            {
                                "name": "tokenId",
                                "type": "uint256",
                                "value": "1,215"
                            }
                        ],
                        "constructorArguments": "",
                        "name": "safeTransferFrom",
                        "returnParams": [],
                        "signature": "safeTransferFrom(address,address,uint256)"
                    },
                    "errorInfo": "",
                    "fromAddress": "0x26830ed82ad72dff1a92f49780bd634b1e42786d",
                    "gasUsed": 87441,
                    "id": 21,
                    "methodDecoded": true,
                    "operation": "CALL",
                    "output": "",
                    "revert": false,
                    "revertMessage": "",
                    "selector": "0x42842e0e",
                    "status": true,
                    "value": "0"
                },
                "nodeType": 0
            },
            "22": {
                "event": {
                    "contract": "0x49cf6f5d44e70224e2e23fdcdd2c053f30ada28b",
                    "decodedLog": {
                        "name": "Approval",
                        "params": [
                            {
                                "name": "owner",
                                "type": "address",
                                "value": "0x26830ed82ad72dff1a92f49780bd634b1e42786d"
                            },
                            {
                                "name": "approved",
                                "type": "address",
                                "value": "0x0000000000000000000000000000000000000000"
                            },
                            {
                                "decimalAvailable": true,
                                "name": "tokenId",
                                "type": "uint256",
                                "value": "1,215"
                            }
                        ],
                        "signature": "Approval(address,address,uint256)"
                    },
                    "id": 22,
                    "logData": "0x",
                    "logDecoded": true,
                    "operation": "EVENT",
                    "revert": false,
                    "status": true,
                    "topics": [
                        "0x8c5be1e5ebec7d5bd14f71427d1e84f3dd0314c0f7b2291e5b200ac8c7c3b925",
                        "0x00000000000000000000000026830ed82ad72dff1a92f49780bd634b1e42786d",
                        "0x0000000000000000000000000000000000000000000000000000000000000000",
                        "0x00000000000000000000000000000000000000000000000000000000000004bf"
                    ]
                },
                "nodeType": 1
            },
            "23": {
                "event": {
                    "contract": "0x49cf6f5d44e70224e2e23fdcdd2c053f30ada28b",
                    "decodedLog": {
                        "name": "Transfer",
                        "params": [
                            {
                                "name": "from",
                                "type": "address",
                                "value": "0x26830ed82ad72dff1a92f49780bd634b1e42786d"
                            },
                            {
                                "name": "to",
                                "type": "address",
                                "value": "0x59b72fdb45b3182c8502cc297167fe4f821f332d"
                            },
                            {
                                "decimalAvailable": true,
                                "name": "tokenId",
                                "type": "uint256",
                                "value": "1,215"
                            }
                        ],
                        "signature": "Transfer(address,address,uint256)"
                    },
                    "id": 23,
                    "logData": "0x",
                    "logDecoded": true,
                    "operation": "EVENT",
                    "revert": false,
                    "status": true,
                    "topics": [
                        "0xddf252ad1be2c89b69c2b068fc378daa952ba7f163c4a11628f55a4df523b3ef",
                        "0x00000000000000000000000026830ed82ad72dff1a92f49780bd634b1e42786d",
                        "0x00000000000000000000000059b72fdb45b3182c8502cc297167fe4f821f332d",
                        "0x00000000000000000000000000000000000000000000000000000000000004bf"
                    ]
                },
                "nodeType": 1
            },
            "24": {
                "invocation": {
                    "address": "0x59b72fdb45b3182c8502cc297167fe4f821f332d",
                    "callData": "0x00000000000000000000000026830ed82ad72dff1a92f49780bd634b1e42786d00000000000000000000000026830ed82ad72dff1a92f49780bd634b1e42786d00000000000000000000000000000000000000000000000000000000000004bf00000000000000000000000000000000000000000000000000000000000000800000000000000000000000000000000000000000000000000000000000000000",
                    "decodedMethod": {
                        "callParams": [
                            {
                                "name": "",
                                "type": "address",
                                "value": "0x26830ed82ad72dff1a92f49780bd634b1e42786d"
                            },
                            {
                                "name": "",
                                "type": "address",
                                "value": "0x26830ed82ad72dff1a92f49780bd634b1e42786d"
                            },
                            {
                                "name": "",
                                "type": "uint256",
                                "value": "1,215"
                            },
                            {
                                "name": "",
                                "type": "bytes",
                                "value": "0x"
                            }
                        ],
                        "constructorArguments": "",
                        "name": "onERC721Received",
                        "returnParams": [
                            {
                                "name": "",
                                "type": "bytes4",
                                "value": "0x150b7a02"
                            }
                        ],
                        "signature": "onERC721Received(address,address,uint256,bytes)"
                    },
                    "errorInfo": "",
                    "fromAddress": "0x49cf6f5d44e70224e2e23fdcdd2c053f30ada28b",
                    "gasUsed": 1599,
                    "id": 24,
                    "methodDecoded": true,
                    "operation": "CALL",
                    "output": "0x150b7a0200000000000000000000000000000000000000000000000000000000",
                    "revert": false,
                    "revertMessage": "",
                    "selector": "0x150b7a02",
                    "status": true,
                    "value": "0"
                },
                "nodeType": 0
            },
            "25": {
                "invocation": {
                    "address": "0x27046296e0fb79100fc9efd6be95c8422dbce78c",
                    "callData": "0x00000000000000000000000026830ed82ad72dff1a92f49780bd634b1e42786d00000000000000000000000026830ed82ad72dff1a92f49780bd634b1e42786d00000000000000000000000000000000000000000000000000000000000004bf00000000000000000000000000000000000000000000000000000000000000800000000000000000000000000000000000000000000000000000000000000000",
                    "decodedMethod": {
                        "callParams": [
                            {
                                "name": "",
                                "type": "address",
                                "value": "0x26830ed82ad72dff1a92f49780bd634b1e42786d"
                            },
                            {
                                "name": "",
                                "type": "address",
                                "value": "0x26830ed82ad72dff1a92f49780bd634b1e42786d"
                            },
                            {
                                "name": "",
                                "type": "uint256",
                                "value": "1,215"
                            },
                            {
                                "name": "",
                                "type": "bytes",
                                "value": "0x"
                            }
                        ],
                        "constructorArguments": "",
                        "name": "onERC721Received",
                        "returnParams": [
                            {
                                "name": "",
                                "type": "bytes4",
                                "value": "0x150b7a02"
                            }
                        ],
                        "signature": "onERC721Received(address,address,uint256,bytes)"
                    },
                    "errorInfo": "",
                    "fromAddress": "0x59b72fdb45b3182c8502cc297167fe4f821f332d",
                    "gasUsed": 862,
                    "id": 25,
                    "methodDecoded": true,
                    "operation": "DELEGATECALL",
                    "output": "0x150b7a0200000000000000000000000000000000000000000000000000000000",
                    "revert": false,
                    "revertMessage": "",
                    "selector": "0x150b7a02",
                    "status": true,
                    "value": "0"
                },
                "nodeType": 0
            },
            "26": {
                "event": {
                    "contract": "0x638a98bbb92a7582d07c52ff407d49664dc8b3ee",
                    "decodedLog": {
                        "name": "ReserveUsedAsCollateralDisabled",
                        "params": [
                            {
                                "name": "reserve",
                                "type": "address",
                                "value": "0x49cf6f5d44e70224e2e23fdcdd2c053f30ada28b"
                            },
                            {
                                "name": "user",
                                "type": "address",
                                "value": "0xe3460c866c705ca994e93e27957dc9060c79dfef"
                            }
                        ],
                        "signature": "ReserveUsedAsCollateralDisabled(address,address)"
                    },
                    "id": 26,
                    "logData": "0x",
                    "logDecoded": true,
                    "operation": "EVENT",
                    "revert": false,
                    "status": true,
                    "topics": [
                        "0x44c58d81365b66dd4b1a7f36c25aa97b8c71c361ee4937adc1a00000227db5dd",
                        "0x00000000000000000000000049cf6f5d44e70224e2e23fdcdd2c053f30ada28b",
                        "0x000000000000000000000000e3460c866c705ca994e93e27957dc9060c79dfef"
                    ]
                },
                "nodeType": 1
            },
            "27": {
                "event": {
                    "contract": "0x638a98bbb92a7582d07c52ff407d49664dc8b3ee",
                    "decodedLog": {
                        "name": "WithdrawERC721",
                        "params": [
                            {
                                "name": "reserve",
                                "type": "address",
                                "value": "0x49cf6f5d44e70224e2e23fdcdd2c053f30ada28b"
                            },
                            {
                                "name": "user",
                                "type": "address",
                                "value": "0xe3460c866c705ca994e93e27957dc9060c79dfef"
                            },
                            {
                                "name": "to",
                                "type": "address",
                                "value": "0xe3460c866c705ca994e93e27957dc9060c79dfef"
                            },
                            {
                                "name": "tokenIds",
                                "type": "uint256[]",
                                "value": [
                                    "1,215"
                                ]
                            }
                        ],
                        "signature": "WithdrawERC721(address,address,address,uint256[])"
                    },
                    "id": 27,
                    "logData": "0x0000000000000000000000000000000000000000000000000000000000000020000000000000000000000000000000000000000000000000000000000000000100000000000000000000000000000000000000000000000000000000000004bf",
                    "logDecoded": true,
                    "operation": "EVENT",
                    "revert": false,
                    "status": true,
                    "topics": [
                        "0x69d78d020a7adf3efde240b02e7b907af68656901da9ff23191d6852fa35dd72",
                        "0x00000000000000000000000049cf6f5d44e70224e2e23fdcdd2c053f30ada28b",
                        "0x000000000000000000000000e3460c866c705ca994e93e27957dc9060c79dfef",
                        "0x000000000000000000000000e3460c866c705ca994e93e27957dc9060c79dfef"
                    ]
                },
                "nodeType": 1
            },
            "3": {
                "invocation": {
                    "address": "0x044a6b55def3bf4292697c02c3a6109520279794",
                    "callData": "0xd81559e87c4c703132adefc510fbbaeee232bc85d76d1f4b18f3cab0a4b496ced81559e87c4c703132adefc510fbbaeee232bc85d76d1f4b18f3cab0a4b496d00bfae5a43c2217e614877bfc609a03c8fd624ffd28603fbdbe8df64a14191750000000000000000000000000000000000000000000000000000000000000008000000000000000000000000049cf6f5d44e70224e2e23fdcdd2c053f30ada28b00000000000000000000000000000000000000000000000000000000000000a0000000000000000000000000e3460c866c705ca994e93e27957dc9060c79dfef000000000000000000000000000000000000000000000000000000000000001c0000000000000000000000006b58baa08a91f0f08900f43692a9796045454a17000000000000000000000000000000000000000000000000000000000000000100000000000000000000000000000000000000000000000000000000000004bf",
                    "decodedMethod": null,
                    "errorInfo": "",
                    "fromAddress": "0x638a98bbb92a7582d07c52ff407d49664dc8b3ee",
                    "gasUsed": 330466,
                    "id": 3,
                    "methodDecoded": false,
                    "operation": "DELEGATECALL",
                    "output": "0x0000000000000000000000000000000000000000000000000000000000000001",
                    "revert": false,
                    "revertMessage": "",
                    "selector": "0x8434b2dd",
                    "status": true,
                    "value": "0"
                },
                "nodeType": 0
            },
            "4": {
                "invocation": {
                    "address": "0x26830ed82ad72dff1a92f49780bd634b1e42786d",
                    "callData": "0x",
                    "decodedMethod": {
                        "callParams": [],
                        "constructorArguments": "",
                        "name": "getXTokenType",
                        "returnParams": [
                            {
                                "name": "",
                                "type": "uint8",
                                "value": "1"
                            }
                        ],
                        "signature": "getXTokenType()"
                    },
                    "errorInfo": "",
                    "fromAddress": "0x638a98bbb92a7582d07c52ff407d49664dc8b3ee",
                    "gasUsed": 5388,
                    "id": 4,
                    "methodDecoded": true,
                    "operation": "STATICCALL",
                    "output": "0x0000000000000000000000000000000000000000000000000000000000000001",
                    "revert": false,
                    "revertMessage": "",
                    "selector": "0xa6627c8b",
                    "status": true,
                    "value": "0"
                },
                "nodeType": 0
            },
            "5": {
                "invocation": {
                    "address": "0xc5350fe791e94152edbfb6c7a39d0fd6c7fcc3e4",
                    "callData": "0x",
                    "decodedMethod": {
                        "callParams": [],
                        "constructorArguments": "",
                        "name": "getXTokenType",
                        "returnParams": [
                            {
                                "name": "",
                                "type": "uint8",
                                "value": "1"
                            }
                        ],
                        "signature": "getXTokenType()"
                    },
                    "errorInfo": "",
                    "fromAddress": "0x26830ed82ad72dff1a92f49780bd634b1e42786d",
                    "gasUsed": 339,
                    "id": 5,
                    "methodDecoded": true,
                    "operation": "DELEGATECALL",
                    "output": "0x0000000000000000000000000000000000000000000000000000000000000001",
                    "revert": false,
                    "revertMessage": "",
                    "selector": "0xa6627c8b",
                    "status": true,
                    "value": "0"
                },
                "nodeType": 0
            },
            "6": {
                "invocation": {
                    "address": "0x3e16061152394bacb7f43de8ae09960c000626c5",
                    "callData": "0x000000000000000000000000000000000000000000000000000000000000000100000000000000000000000049cf6f5d44e70224e2e23fdcdd2c053f30ada28b0000000000000000000000000000000000000000000000000000000000000001",
                    "decodedMethod": {
                        "callParams": [
                            {
                                "name": "params",
                                "type": "(uint8,address,uint256)",
                                "value": [
                                    {
                                        "name": "assetType",
                                        "type": "uint8",
                                        "value": "1"
                                    },
                                    {
                                        "name": "asset",
                                        "type": "address",
                                        "value": "0x49cf6f5d44e70224e2e23fdcdd2c053f30ada28b"
                                    },
                                    {
                                        "name": "amount",
                                        "type": "uint256",
                                        "value": "1"
                                    }
                                ]
                            }
                        ],
                        "constructorArguments": "",
                        "name": "calculateTimeLockParams",
                        "returnParams": [
                            {
                                "name": "",
                                "type": "(uint48,uint8)",
                                "value": [
                                    {
                                        "name": "releaseTime",
                                        "type": "uint48",
                                        "value": "1,680,793,271"
                                    },
                                    {
                                        "name": "actionType",
                                        "type": "uint8",
                                        "value": "0"
                                    }
                                ]
                            }
                        ],
                        "signature": "calculateTimeLockParams((uint8,address,uint256))"
                    },
                    "errorInfo": "",
                    "fromAddress": "0x638a98bbb92a7582d07c52ff407d49664dc8b3ee",
                    "gasUsed": 6694,
                    "id": 6,
                    "methodDecoded": true,
                    "operation": "CALL",
                    "output": "0x00000000000000000000000000000000000000000000000000000000642edeb70000000000000000000000000000000000000000000000000000000000000000",
                    "revert": false,
                    "revertMessage": "",
                    "selector": "0xedbc9768",
                    "status": true,
                    "value": "0"
                },
                "nodeType": 0
            },
            "7": {
                "invocation": {
                    "address": "0x26830ed82ad72dff1a92f49780bd634b1e42786d",
                    "callData": "0x000000000000000000000000e3460c866c705ca994e93e27957dc9060c79dfef000000000000000000000000e3460c866c705ca994e93e27957dc9060c79dfef00000000000000000000000000000000000000000000000000000000000000a000000000000000000000000000000000000000000000000000000000642edeb70000000000000000000000000000000000000000000000000000000000000001000000000000000000000000000000000000000000000000000000000000000100000000000000000000000000000000000000000000000000000000000004bf",
                    "decodedMethod": {
                        "callParams": [
                            {
                                "name": "from",
                                "type": "address",
                                "value": "0xe3460c866c705ca994e93e27957dc9060c79dfef"
                            },
                            {
                                "name": "receiverOfUnderlying",
                                "type": "address",
                                "value": "0xe3460c866c705ca994e93e27957dc9060c79dfef"
                            },
                            {
                                "name": "tokenIds",
                                "type": "uint256[]",
                                "value": [
                                    "1,215"
                                ]
                            },
                            {
                                "name": "timeLockParams",
                                "type": "(uint48,uint8)",
                                "value": [
                                    {
                                        "name": "releaseTime",
                                        "type": "uint48",
                                        "value": "1,680,793,271"
                                    },
                                    {
                                        "name": "actionType",
                                        "type": "uint8",
                                        "value": "1"
                                    }
                                ]
                            }
                        ],
                        "constructorArguments": "",
                        "name": "burn",
                        "returnParams": [
                            {
                                "name": "",
                                "type": "uint64",
                                "value": "1"
                            },
                            {
                                "name": "",
                                "type": "uint64",
                                "value": "0"
                            }
                        ],
                        "signature": "burn(address,address,uint256[],(uint48,uint8))"
                    },
                    "errorInfo": "",
                    "fromAddress": "0x638a98bbb92a7582d07c52ff407d49664dc8b3ee",
                    "gasUsed": 292787,
                    "id": 7,
                    "methodDecoded": true,
                    "operation": "CALL",
                    "output": "0x00000000000000000000000000000000000000000000000000000000000000010000000000000000000000000000000000000000000000000000000000000000",
                    "revert": false,
                    "revertMessage": "",
                    "selector": "0x2af5d473",
                    "status": true,
                    "value": "0"
                },
                "nodeType": 0
            },
            "8": {
                "invocation": {
                    "address": "0xc5350fe791e94152edbfb6c7a39d0fd6c7fcc3e4",
                    "callData": "0x000000000000000000000000e3460c866c705ca994e93e27957dc9060c79dfef000000000000000000000000e3460c866c705ca994e93e27957dc9060c79dfef00000000000000000000000000000000000000000000000000000000000000a000000000000000000000000000000000000000000000000000000000642edeb70000000000000000000000000000000000000000000000000000000000000001000000000000000000000000000000000000000000000000000000000000000100000000000000000000000000000000000000000000000000000000000004bf",
                    "decodedMethod": {
                        "callParams": [
                            {
                                "name": "from",
                                "type": "address",
                                "value": "0xe3460c866c705ca994e93e27957dc9060c79dfef"
                            },
                            {
                                "name": "receiverOfUnderlying",
                                "type": "address",
                                "value": "0xe3460c866c705ca994e93e27957dc9060c79dfef"
                            },
                            {
                                "name": "tokenIds",
                                "type": "uint256[]",
                                "value": [
                                    "1,215"
                                ]
                            },
                            {
                                "name": "timeLockParams",
                                "type": "(uint48,uint8)",
                                "value": [
                                    {
                                        "name": "releaseTime",
                                        "type": "uint48",
                                        "value": "1,680,793,271"
                                    },
                                    {
                                        "name": "actionType",
                                        "type": "uint8",
                                        "value": "1"
                                    }
                                ]
                            }
                        ],
                        "constructorArguments": "",
                        "name": "burn",
                        "returnParams": [
                            {
                                "name": "",
                                "type": "uint64",
                                "value": "1"
                            },
                            {
                                "name": "",
                                "type": "uint64",
                                "value": "0"
                            }
                        ],
                        "signature": "burn(address,address,uint256[],(uint48,uint8))"
                    },
                    "errorInfo": "",
                    "fromAddress": "0x26830ed82ad72dff1a92f49780bd634b1e42786d",
                    "gasUsed": 292220,
                    "id": 8,
                    "methodDecoded": true,
                    "operation": "DELEGATECALL",
                    "output": "0x00000000000000000000000000000000000000000000000000000000000000010000000000000000000000000000000000000000000000000000000000000000",
                    "revert": false,
                    "revertMessage": "",
                    "selector": "0x2af5d473",
                    "status": true,
                    "value": "0"
                },
                "nodeType": 0
            },
            "9": {
                "invocation": {
                    "address": "0x8f3527276f7db90f1f68d166df366fa46fd70054",
                    "callData": "0x0000000000000000000000000000000000000000000000000000000000000035000000000000000000000000638a98bbb92a7582d07c52ff407d49664dc8b3ee0000000000000000000000000000000000000000000000000000000000000000000000000000000000000000e3460c866c705ca994e93e27957dc9060c79dfef00000000000000000000000000000000000000000000000000000000000000a0000000000000000000000000000000000000000000000000000000000000000100000000000000000000000000000000000000000000000000000000000004bf",
                    "decodedMethod": null,
                    "errorInfo": "",
                    "fromAddress": "0x26830ed82ad72dff1a92f49780bd634b1e42786d",
                    "gasUsed": 73381,
                    "id": 9,
                    "methodDecoded": false,
                    "operation": "DELEGATECALL",
                    "output": "0x00000000000000000000000000000000000000000000000000000000000000010000000000000000000000000000000000000000000000000000000000000000",
                    "revert": false,
                    "revertMessage": "",
                    "selector": "0x5c4fe822",
                    "status": true,
                    "value": "0"
                },
                "nodeType": 0
            }
        },
        "gasFlame": [
            {
                "children": [
                    {
                        "children": [
                            {
                                "children": [],
                                "depth": 0,
                                "name": "Initial Gas",
                                "value": 22232
                            },
                            {
                                "children": [
                                    {
                                        "children": [
                                            {
                                                "children": [],
                                                "depth": 2,
                                                "name": "getPriceOracle",
                                                "value": 2448
                                            },
                                            {
                                                "children": [
                                                    {
                                                        "children": [
                                                            {
                                                                "children": [],
                                                                "depth": 4,
                                                                "name": "getXTokenType",
                                                                "value": 339
                                                            }
                                                        ],
                                                        "depth": 3,
                                                        "name": "getXTokenType",
                                                        "value": 5388
                                                    },
                                                    {
                                                        "children": [],
                                                        "depth": 3,
                                                        "name": "calculateTimeLockParams",
                                                        "value": 6694
                                                    },
                                                    {
                                                        "children": [
                                                            {
                                                                "children": [
                                                                    {
                                                                        "children": [
                                                                            {
                                                                                "children": [
                                                                                    {
                                                                                        "children": [],
                                                                                        "depth": 7,
                                                                                        "name": "getUserConfiguration",
                                                                                        "value": 5026
                                                                                    }
                                                                                ],
                                                                                "depth": 6,
                                                                                "name": "getUserConfiguration",
                                                                                "value": 7593
                                                                            }
                                                                        ],
                                                                        "depth": 5,
                                                                        "name": "0x5c4fe822",
                                                                        "value": 73381
                                                                    },
                                                                    {
                                                                        "children": [
                                                                            {
                                                                                "children": [],
                                                                                "depth": 6,
                                                                                "name": "TIME_LOCK",
                                                                                "value": 304
                                                                            }
                                                                        ],
                                                                        "depth": 5,
                                                                        "name": "TIME_LOCK",
                                                                        "value": 2865
                                                                    },
                                                                    {
                                                                        "children": [
                                                                            {
                                                                                "children": [
                                                                                    {
                                                                                        "children": [
                                                                                            {
                                                                                                "children": [],
                                                                                                "depth": 8,
                                                                                                "name": "getReserveXToken",
                                                                                                "value": 812
                                                                                            }
                                                                                        ],
                                                                                        "depth": 7,
                                                                                        "name": "getReserveXToken",
                                                                                        "value": 3376
                                                                                    }
                                                                                ],
                                                                                "depth": 6,
                                                                                "name": "createAgreement",
                                                                                "value": 104098
                                                                            }
                                                                        ],
                                                                        "depth": 5,
                                                                        "name": "createAgreement",
                                                                        "value": 111374
                                                                    },
                                                                    {
                                                                        "children": [
                                                                            {
                                                                                "children": [
                                                                                    {
                                                                                        "children": [],
                                                                                        "depth": 7,
                                                                                        "name": "onERC721Received",
                                                                                        "value": 862
                                                                                    }
                                                                                ],
                                                                                "depth": 6,
                                                                                "name": "onERC721Received",
                                                                                "value": 1599
                                                                            }
                                                                        ],
                                                                        "depth": 5,
                                                                        "name": "safeTransferFrom",
                                                                        "value": 87441
                                                                    }
                                                                ],
                                                                "depth": 4,
                                                                "name": "burn",
                                                                "value": 292220
                                                            }
                                                        ],
                                                        "depth": 3,
                                                        "name": "burn",
                                                        "value": 292787
                                                    }
                                                ],
                                                "depth": 2,
                                                "name": "0x8434b2dd",
                                                "value": 330466
                                            }
                                        ],
                                        "depth": 1,
                                        "name": "withdrawERC721",
                                        "value": 348086
                                    }
                                ],
                                "depth": 0,
                                "name": "Executed Gas",
                                "value": 353171
                            }
                        ],
                        "depth": -1,
                        "name": "Actual Gas Used",
                        "value": 326603
                    },
                    {
                        "children": [],
                        "depth": -1,
                        "name": "Refunded Gas",
                        "value": 48800
                    }
                ],
                "depth": -2,
                "name": "Total Gas",
                "value": 375403
            }
        ],
        "isConfirmed": true,
        "mainTrace": [
            {
                "children": [
                    {
                        "children": [
                            {
                                "children": [
                                    {
                                        "children": [],
                                        "depth": 2,
                                        "id": 2,
                                        "order": 2
                                    },
                                    {
                                        "children": [
                                            {
                                                "children": [
                                                    {
                                                        "children": [],
                                                        "depth": 4,
                                                        "id": 5,
                                                        "order": 5
                                                    }
                                                ],
                                                "depth": 3,
                                                "id": 4,
                                                "order": 4
                                            },
                                            {
                                                "children": [],
                                                "depth": 3,
                                                "id": 6,
                                                "order": 6
                                            },
                                            {
                                                "children": [
                                                    {
                                                        "children": [
                                                            {
                                                                "children": [
                                                                    {
                                                                        "children": [
                                                                            {
                                                                                "children": [],
                                                                                "depth": 7,
                                                                                "id": 11,
                                                                                "order": 11
                                                                            }
                                                                        ],
                                                                        "depth": 6,
                                                                        "id": 10,
                                                                        "order": 10
                                                                    },
                                                                    {
                                                                        "children": [],
                                                                        "depth": 6,
                                                                        "id": 12,
                                                                        "order": 12
                                                                    },
                                                                    {
                                                                        "children": [],
                                                                        "depth": 6,
                                                                        "id": 13,
                                                                        "order": 13
                                                                    }
                                                                ],
                                                                "depth": 5,
                                                                "id": 9,
                                                                "order": 9
                                                            },
                                                            {
                                                                "children": [
                                                                    {
                                                                        "children": [],
                                                                        "depth": 6,
                                                                        "id": 15,
                                                                        "order": 15
                                                                    }
                                                                ],
                                                                "depth": 5,
                                                                "id": 14,
                                                                "order": 14
                                                            },
                                                            {
                                                                "children": [
                                                                    {
                                                                        "children": [
                                                                            {
                                                                                "children": [
                                                                                    {
                                                                                        "children": [],
                                                                                        "depth": 8,
                                                                                        "id": 19,
                                                                                        "order": 19
                                                                                    }
                                                                                ],
                                                                                "depth": 7,
                                                                                "id": 18,
                                                                                "order": 18
                                                                            },
                                                                            {
                                                                                "children": [],
                                                                                "depth": 7,
                                                                                "id": 20,
                                                                                "order": 20
                                                                            }
                                                                        ],
                                                                        "depth": 6,
                                                                        "id": 17,
                                                                        "order": 17
                                                                    }
                                                                ],
                                                                "depth": 5,
                                                                "id": 16,
                                                                "order": 16
                                                            },
                                                            {
                                                                "children": [
                                                                    {
                                                                        "children": [],
                                                                        "depth": 6,
                                                                        "id": 22,
                                                                        "order": 22
                                                                    },
                                                                    {
                                                                        "children": [],
                                                                        "depth": 6,
                                                                        "id": 23,
                                                                        "order": 23
                                                                    },
                                                                    {
                                                                        "children": [
                                                                            {
                                                                                "children": [],
                                                                                "depth": 7,
                                                                                "id": 25,
                                                                                "order": 25
                                                                            }
                                                                        ],
                                                                        "depth": 6,
                                                                        "id": 24,
                                                                        "order": 24
                                                                    }
                                                                ],
                                                                "depth": 5,
                                                                "id": 21,
                                                                "order": 21
                                                            }
                                                        ],
                                                        "depth": 4,
                                                        "id": 8,
                                                        "order": 8
                                                    }
                                                ],
                                                "depth": 3,
                                                "id": 7,
                                                "order": 7
                                            },
                                            {
                                                "children": [],
                                                "depth": 3,
                                                "id": 26,
                                                "order": 26
                                            },
                                            {
                                                "children": [],
                                                "depth": 3,
                                                "id": 27,
                                                "order": 27
                                            }
                                        ],
                                        "depth": 2,
                                        "id": 3,
                                        "order": 3
                                    }
                                ],
                                "depth": 1,
                                "id": 1,
                                "order": 1
                            }
                        ],
                        "depth": 0,
                        "id": 0,
                        "order": 0
                    }
                ],
                "depth": -1,
                "id": -1,
                "order": -1
            }
        ],
        "mainTraceNodeCount": 28,
        "parentIdMap": {
            "0": -1,
            "1": 0,
            "10": 9,
            "11": 10,
            "12": 9,
            "13": 9,
            "14": 8,
            "15": 14,
            "16": 8,
            "17": 16,
            "18": 17,
            "19": 18,
            "2": 1,
            "20": 17,
            "21": 8,
            "22": 21,
            "23": 21,
            "24": 21,
            "25": 24,
            "26": 3,
            "27": 3,
            "3": 1,
            "4": 3,
            "5": 4,
            "6": 3,
            "7": 3,
            "8": 7,
            "9": 8
        },
        "tidyTrace": [
            {
                "children": [
                    {
                        "children": [
                            {
                                "children": [
                                    {
                                        "children": [
                                            {
                                                "children": [],
                                                "depth": 3,
                                                "id": 6,
                                                "order": 6
                                            },
                                            {
                                                "children": [
                                                    {
                                                        "children": [
                                                            {
                                                                "children": [
                                                                    {
                                                                        "children": [],
                                                                        "depth": 6,
                                                                        "id": 12,
                                                                        "order": 12
                                                                    },
                                                                    {
                                                                        "children": [],
                                                                        "depth": 6,
                                                                        "id": 13,
                                                                        "order": 13
                                                                    }
                                                                ],
                                                                "depth": 5,
                                                                "id": 9,
                                                                "order": 9
                                                            },
                                                            {
                                                                "children": [
                                                                    {
                                                                        "children": [
                                                                            {
                                                                                "children": [],
                                                                                "depth": 7,
                                                                                "id": 20,
                                                                                "order": 20
                                                                            }
                                                                        ],
                                                                        "depth": 6,
                                                                        "id": 17,
                                                                        "order": 17
                                                                    }
                                                                ],
                                                                "depth": 5,
                                                                "id": 16,
                                                                "order": 16
                                                            },
                                                            {
                                                                "children": [
                                                                    {
                                                                        "children": [],
                                                                        "depth": 6,
                                                                        "id": 22,
                                                                        "order": 22
                                                                    },
                                                                    {
                                                                        "children": [],
                                                                        "depth": 6,
                                                                        "id": 23,
                                                                        "order": 23
                                                                    },
                                                                    {
                                                                        "children": [
                                                                            {
                                                                                "children": [],
                                                                                "depth": 7,
                                                                                "id": 25,
                                                                                "order": 25
                                                                            }
                                                                        ],
                                                                        "depth": 6,
                                                                        "id": 24,
                                                                        "order": 24
                                                                    }
                                                                ],
                                                                "depth": 5,
                                                                "id": 21,
                                                                "order": 21
                                                            }
                                                        ],
                                                        "depth": 4,
                                                        "id": 8,
                                                        "order": 8
                                                    }
                                                ],
                                                "depth": 3,
                                                "id": 7,
                                                "order": 7
                                            },
                                            {
                                                "children": [],
                                                "depth": 3,
                                                "id": 26,
                                                "order": 26
                                            },
                                            {
                                                "children": [],
                                                "depth": 3,
                                                "id": 27,
                                                "order": 27
                                            }
                                        ],
                                        "depth": 2,
                                        "id": 3,
                                        "order": 3
                                    }
                                ],
                                "depth": 1,
                                "id": 1,
                                "order": 1
                            }
                        ],
                        "depth": 0,
                        "id": 0,
                        "order": 0
                    }
                ],
                "depth": -1,
                "id": -1,
                "order": -1
            }
        ],
        "tidyTraceNodeCount": 19
    },
    "state_change": {
        "stateChanges": [
            {
                "address": "0x26830ed82ad72dff1a92f49780bd634b1e42786d",
                "erc": "ERC-721",
                "slots": [
                    {
                        "current": "0x000000000000000000000000000000000000000000000000000000000000233f",
                        "key": "0xa2999d817b6757290b50e8ecf3fa939673403dd35c97de392fdb343b4015ced4",
                        "prev": "0x00000000000000000000000000000000000000000000000000000000000004bf"
                    },
                    {
                        "current": "0x0000000000000000000000000000000000000000000000000000000000000000",
                        "key": "0x000019eb8f86f83aaaa85ef5fee6ee8e76439505af5f603a3379b8e7aa910ba5",
                        "prev": "0x0000000000000000000000000000000000000000000000000000000000000036"
                    },
                    {
                        "current": "0x0000000000000000000000000000000000000000000000000000000000000000",
                        "key": "0x6da77695e3002ddc7830c2ea3418448629068bc6f696e594a84b0766b12dfa06",
                        "prev": "0x00000000000000000000000000000000000000000000000000000000000004bf"
                    },
                    {
                        "current": "0x0000000000000000000000000000000000000000000000000000000000000036",
                        "key": "0xd679417f35e5830ce3bbd780b453350ccdf1d8b8027ecc32710559bd6a19ae72",
                        "prev": "0x000000000000000000000000000000000000000000000000000000000000003d"
                    },
                    {
                        "current": "0x0000000000000000000000000000000000000000000000000000000000000000",
                        "key": "0xa2999d817b6757290b50e8ecf3fa939673403dd35c97de392fdb343b4015cedb",
                        "prev": "0x000000000000000000000000000000000000000000000000000000000000233f"
                    },
                    {
                        "current": "0x000000000000000000000000000000000000000000000000000000000000003d",
                        "key": "0x000000000000000000000000000000000000000000000000000000000000003a",
                        "prev": "0x000000000000000000000000000000000000000000000000000000000000003e"
                    },
                    {
                        "current": "0x0000000000000000000000000000000000000000000000000000000000000000",
                        "key": "0xb19323d8a0bdad936519ebcc9b49ce396ca9009d08df5c940a8f0d80b36dd681",
                        "prev": "0x000000000000000000000000e3460c866c705ca994e93e27957dc9060c79dfef"
                    },
                    {
                        "current": "0x0000000000000000000000000000000000000000000000000000000000000000",
                        "key": "0x579f8c9682b91a72ba13be9076843b1d4e413260aa0943563dca78b40f099a5c",
                        "prev": "0x0000000000000000000000000000000000000000000000010000000000000001"
                    },
                    {
                        "current": "0x0000000000000000000000000000000000000000000000000000000000000000",
                        "key": "0x888a5d715fe9c17bea195c15e351645198638bdff2ae0fcd918933327c8b24e2",
                        "prev": "0x0000000000000000000000000000000000000000000000000000000000000001"
                    }
                ],
                "storageVariables": []
            },
            {
                "address": "0x3e16061152394bacb7f43de8ae09960c000626c5",
                "erc": "",
                "slots": [
                    {
                        "current": "0x000000000000000000000000642eb0a300000000000000000000000000000002",
                        "key": "0x0000000000000000000000000000000000000000000000000000000000000000",
                        "prev": "0x000000000000000000000000642eb0a300000000000000000000000000000001"
                    }
                ],
                "storageVariables": [
                    {
                        "name": "totalAmountInCurrentPeriod",
                        "type": "uint128",
                        "value": {
                            "current": "2",
                            "prev": "1",
                            "typeTag": 1
                        }
                    },
                    {
                        "name": "lastResetTimestamp",
                        "type": "uint48",
                        "value": {
                            "current": "1680781475",
                            "prev": "1680781475",
                            "typeTag": 1
                        }
                    }
                ]
            },
            {
                "address": "0x49cf6f5d44e70224e2e23fdcdd2c053f30ada28b",
                "erc": "ERC-721",
                "slots": [
                    {
                        "current": "0x0000000000000000000000000000000000000000000000000000000000000000",
                        "key": "0x9d4711634992f94342faba059a9305ef12c92af926f58fac3609b8b4718704ff",
                        "prev": "0x0000000000000000000000000000000000000000000000000000000000000036"
                    },
                    {
                        "current": "0x0000000000000000000000000000000000000000000000000000000000000000",
                        "key": "0xb3b1cb66fe7aea13dca1a1b1492b1232d99a3529003e79c10c5c14f152e1d19d",
                        "prev": "0x000000000000000000000000000000000000000000000000000000000000233f"
                    },
                    {
                        "current": "0x00000000000000000000000000000000000000000000000000000000000004bf",
                        "key": "0x1cee36a137f5f10aaf8a79daa4b3857d518d0dfb5c71d7eff89e07d0498e5332",
                        "prev": "0x0000000000000000000000000000000000000000000000000000000000000000"
                    },
                    {
                        "current": "0x000000000000000000000000000000000000000000000000000000000000003d",
                        "key": "0x5f9128d1fa8b24e429db694c64187de8b64ad2208acac84a6eb1b4b67920a9ab",
                        "prev": "0x000000000000000000000000000000000000000000000000000000000000003e"
                    },
                    {
                        "current": "0x0000000000000000000000000000000000000000000000000000000000000001",
                        "key": "0xcf1f4c0d6e3fc004f62e75e4cae5106f8add84f322cfafd18abc96687c17b0f5",
                        "prev": "0x0000000000000000000000000000000000000000000000000000000000000000"
                    },
                    {
                        "current": "0x00000000000000000000000059b72fdb45b3182c8502cc297167fe4f821f332d",
                        "key": "0x1ed49fba41dc453d3da0a6ed59fcb9b3590fe29f02c0759827faec1d90ea51b4",
                        "prev": "0x00000000000000000000000026830ed82ad72dff1a92f49780bd634b1e42786d"
                    },
                    {
                        "current": "0x000000000000000000000000000000000000000000000000000000000000233f",
                        "key": "0xfe8a27a230916603b2f1a9d5ad819fa3edc23cf31331efdeb1a7d31275ad9e5e",
                        "prev": "0x00000000000000000000000000000000000000000000000000000000000004bf"
                    },
                    {
                        "current": "0x0000000000000000000000000000000000000000000000000000000000000036",
                        "key": "0x0126092fe42274e2741d96f67c558759968006619737d308ca6470f3fbf17df1",
                        "prev": "0x000000000000000000000000000000000000000000000000000000000000003d"
                    }
                ],
                "storageVariables": [
                    {
                        "name": "_ownedTokensIndex",
                        "type": "mapping(uint256 => uint256)",
                        "value": {
                            "pairs": [
                                {
                                    "key": "1215",
                                    "value": {
                                        "current": "0",
                                        "prev": "54",
                                        "typeTag": 1
                                    }
                                },
                                {
                                    "key": "9023",
                                    "value": {
                                        "current": "54",
                                        "prev": "61",
                                        "typeTag": 1
                                    }
                                }
                            ],
                            "typeTag": 4
                        }
                    },
                    {
                        "name": "_ownedTokens",
                        "type": "mapping(address => mapping(uint256 => uint256))",
                        "value": {
                            "pairs": [
                                {
                                    "key": "0x26830ed82ad72dff1a92f49780bd634b1e42786d",
                                    "value": {
                                        "pairs": [
                                            {
                                                "key": "54",
                                                "value": {
                                                    "current": "9023",
                                                    "prev": "1215",
                                                    "typeTag": 1
                                                }
                                            },
                                            {
                                                "key": "61",
                                                "value": {
                                                    "current": "0",
                                                    "prev": "9023",
                                                    "typeTag": 1
                                                }
                                            }
                                        ],
                                        "typeTag": 4
                                    }
                                },
                                {
                                    "key": "0x59b72fdb45b3182c8502cc297167fe4f821f332d",
                                    "value": {
                                        "pairs": [
                                            {
                                                "key": "0",
                                                "value": {
                                                    "current": "1215",
                                                    "prev": "0",
                                                    "typeTag": 1
                                                }
                                            }
                                        ],
                                        "typeTag": 4
                                    }
                                }
                            ],
                            "typeTag": 4
                        }
                    },
                    {
                        "name": "_balances",
                        "type": "mapping(address => uint256)",
                        "value": {
                            "pairs": [
                                {
                                    "key": "0x26830ed82ad72dff1a92f49780bd634b1e42786d",
                                    "value": {
                                        "current": "61",
                                        "prev": "62",
                                        "typeTag": 1
                                    }
                                },
                                {
                                    "key": "0x59b72fdb45b3182c8502cc297167fe4f821f332d",
                                    "value": {
                                        "current": "1",
                                        "prev": "0",
                                        "typeTag": 1
                                    }
                                }
                            ],
                            "typeTag": 4
                        }
                    },
                    {
                        "name": "_owners",
                        "type": "mapping(uint256 => address)",
                        "value": {
                            "pairs": [
                                {
                                    "key": "1215",
                                    "value": {
                                        "current": "0x59b72fdb45b3182c8502cc297167fe4f821f332d",
                                        "prev": "0x26830ed82ad72dff1a92f49780bd634b1e42786d",
                                        "typeTag": 1
                                    }
                                }
                            ],
                            "typeTag": 4
                        }
                    }
                ]
            },
            {
                "address": "0x59b72fdb45b3182c8502cc297167fe4f821f332d",
                "erc": "",
                "slots": [
                    {
                        "current": "0x00000000000000000000000000000000000000000000000000000000000004bf",
                        "key": "0x91f1f317c26e95da5ef60ccb0bef1a2ead49fd1a75ec5d368c90d48986117d2c",
                        "prev": "0x0000000000000000000000000000000000000000000000000000000000000000"
                    },
                    {
                        "current": "0x0000000000000000000000000000000000000000000000000000000000000805",
                        "key": "0x0000000000000000000000000000000000000000000000000000000000000034",
                        "prev": "0x0000000000000000000000000000000000000000000000000000000000000804"
                    },
                    {
                        "current": "0x00000000000000000049cf6f5d44e70224e2e23fdcdd2c053f30ada28b000101",
                        "key": "0x6caed4cf3051ea120bdc7a5801db15265598751cb169db813d95a648c104c72f",
                        "prev": "0x0000000000000000000000000000000000000000000000000000000000000000"
                    },
                    {
                        "current": "0x0000000000000000642edeb7e3460c866c705ca994e93e27957dc9060c79dfef",
                        "key": "0x6caed4cf3051ea120bdc7a5801db15265598751cb169db813d95a648c104c730",
                        "prev": "0x0000000000000000000000000000000000000000000000000000000000000000"
                    },
                    {
                        "current": "0x0000000000000000000000000000000000000000000000000000000000000001",
                        "key": "0x6caed4cf3051ea120bdc7a5801db15265598751cb169db813d95a648c104c731",
                        "prev": "0x0000000000000000000000000000000000000000000000000000000000000000"
                    }
                ],
                "storageVariables": [
                    {
                        "name": "agreements",
                        "type": "mapping(uint256 => struct ITimeLock.Agreement)",
                        "value": {
                            "pairs": [
                                {
                                    "key": "2052",
                                    "value": {
                                        "fields": [
                                            {
                                                "name": "assetType",
                                                "type": "enum DataTypes.AssetType",
                                                "value": {
                                                    "current": "1",
                                                    "prev": "0",
                                                    "typeTag": 1
                                                }
                                            },
                                            {
                                                "name": "actionType",
                                                "type": "enum DataTypes.TimeLockActionType",
                                                "value": {
                                                    "current": "1",
                                                    "prev": "0",
                                                    "typeTag": 1
                                                }
                                            },
                                            {
                                                "name": "isFrozen",
                                                "type": "bool",
                                                "value": {
                                                    "current": "false",
                                                    "prev": "false",
                                                    "typeTag": 1
                                                }
                                            },
                                            {
                                                "name": "asset",
                                                "type": "address",
                                                "value": {
                                                    "current": "0x49cf6f5d44e70224e2e23fdcdd2c053f30ada28b",
                                                    "prev": "0x0000000000000000000000000000000000000000",
                                                    "typeTag": 1
                                                }
                                            },
                                            {
                                                "name": "beneficiary",
                                                "type": "address",
                                                "value": {
                                                    "current": "0xe3460c866c705ca994e93e27957dc9060c79dfef",
                                                    "prev": "0x0000000000000000000000000000000000000000",
                                                    "typeTag": 1
                                                }
                                            },
                                            {
                                                "name": "releaseTime",
                                                "type": "uint48",
                                                "value": {
                                                    "current": "1680793271",
                                                    "prev": "0",
                                                    "typeTag": 1
                                                }
                                            },
                                            {
                                                "name": "tokenIdsOrAmounts",
                                                "type": "uint256[]",
                                                "value": {
                                                    "elemType": "uint256",
                                                    "elems": [
                                                        {
                                                            "index": 0,
                                                            "value": {
                                                                "current": "1215",
                                                                "prev": "0",
                                                                "typeTag": 1
                                                            }
                                                        }
                                                    ],
                                                    "typeTag": 2
                                                }
                                            }
                                        ],
                                        "typeTag": 3
                                    }
                                }
                            ],
                            "typeTag": 4
                        }
                    },
                    {
                        "name": "agreementCount",
                        "type": "uint248",
                        "value": {
                            "current": "2053",
                            "prev": "2052",
                            "typeTag": 1
                        }
                    },
                    {
                        "name": "frozen",
                        "type": "bool",
                        "value": {
                            "current": "false",
                            "prev": "false",
                            "typeTag": 1
                        }
                    }
                ]
            },
            {
                "address": "0x638a98bbb92a7582d07c52ff407d49664dc8b3ee",
                "erc": "",
                "slots": [
                    {
                        "current": "0x0000000000000000000000000000000000000000000000000000000000000000",
                        "key": "0x0bfae5a43c2217e614877bfc609a03c8fd624ffd28603fbdbe8df64a14191750",
                        "prev": "0x0000000000000000000000000000000000000000000000000000000000200000"
                    }
                ],
                "storageVariables": []
            }
        ]
    }
}