{
    "balance_change": {
        "balanceChanges": [
            {
                "account": "0x58aef79778de31ced548d1a36ba5de29755defe4",
                "assets": [
                    {
                        "address": "0xd43b6d32db8ccf64dbb0a62bceb112d7e874205a",
                        "amount": "6.417568224380773317",
                        "iconUrl": "",
                        "isERC1155": false,
                        "isERC721": false,
                        "sign": false,
                        "value": "76.93431858"
                    },
                    {
                        "address": "0xf3b9569f82b18aef890de263b84189bd33ebe452",
                        "amount": "1,374,946,957.860809312325043778",
                        "iconUrl": "",
                        "isERC1155": false,
                        "isERC721": false,
                        "sign": true,
                        "value": "76.47098032"
                    }
                ]
            },
            {
                "account": "0x6fd7c6074f995e815f55d069ecee9250e16a2bc0",
                "assets": [
                    {
                        "address": "0xd43b6d32db8ccf64dbb0a62bceb112d7e874205a",
                        "amount": "6.417568224380773317",
                        "iconUrl": "",
                        "isERC1155": false,
                        "isERC721": false,
                        "sign": true,
                        "value": "76.93431858"
                    },
                    {
                        "address": "0xa0b86991c6218b36c1d19d4a2e9eb0ce3606eb48",
                        "amount": "76.930789",
                        "iconUrl": "https://assets.blocksec.com/icon/0347a86cc07dbd03fdc5db01a4e5ac7e1217f90e0b6e4bb0f75cbcca09160989.png",
                        "isERC1155": false,
                        "isERC721": false,
                        "sign": false,
                        "value": "76.91540284220000169"
                    }
                ]
            },
            {
                "account": "0x7a809081f991ecfe0ab2727c7e90d2ad7c2e411e",
                "assets": [
                    {
                        "address": "0xa0b86991c6218b36c1d19d4a2e9eb0ce3606eb48",
                        "amount": "76.930789",
                        "iconUrl": "https://assets.blocksec.com/icon/0347a86cc07dbd03fdc5db01a4e5ac7e1217f90e0b6e4bb0f75cbcca09160989.png",
                        "isERC1155": false,
                        "isERC721": false,
                        "sign": true,
                        "value": "76.91540284220000169"
                    },
                    {
                        "address": "0xf3b9569f82b18aef890de263b84189bd33ebe452",
                        "amount": "1,374,946,957.860809312325043778",
                        "iconUrl": "",
                        "isERC1155": false,
                        "isERC721": false,
                        "sign": false,
                        "value": "76.47098032"
                    }
                ]
            }
        ]
    },
    "profile": {
        "basic_info": {
            "baseFee": "4.423550535",
            "blockNumber": 15703703,
            "callData": "0x5ae401dc00000000000000000000000000000000000000000000000000000000634183430000000000000000000000000000000000000000000000000000000000000040000000000000000000000000000000000000000000000000000000000000000100000000000000000000000000000000000000000000000000000000000000200000000000000000000000000000000000000000000000000000000000000104472b43f3000000000000000000000000000000000000000000000000590fc84c600ce3c50000000000000000000000000000000000000000041d1534fad840c110e3b533000000000000000000000000000000000000000000000000000000000000008000000000000000000000000058aef79778de31ced548d1a36ba5de29755defe40000000000000000000000000000000000000000000000000000000000000003000000000000000000000000d43b6d32db8ccf64dbb0a62bceb112d7e874205a000000000000000000000000a0b86991c6218b36c1d19d4a2e9eb0ce3606eb48000000000000000000000000f3b9569f82b18aef890de263b84189bd33ebe45200000000000000000000000000000000000000000000000000000000",
            "debugEnable": true,
            "errorInfo": "",
            "eventCount": 8,
            "feeRecipient": "0xdafea492d9c6733ae3d56b7ed1adb60692c98bc5",
            "formatValue": "0",
            "gasLimit": 253275,
            "gasPrice": "6",
            "gasUsed": 197353,
            "intTxnCount": 20,
            "internalRevert": false,
            "internalRevertMessage": "",
            "isContractCreation": false,
            "isFlashloan": false,
            "maxFee": "6",
            "nonce": 112,
            "overwritedBlockNumber": -1,
            "priorityFee": "2",
            "receiver": "0x68b3465833fb72a70ecdf485e0e4c7bd8665fc45",
            "revertMessage": "",
            "sender": "0x58aef79778de31ced548d1a36ba5de29755defe4",
            "simulationEnable": true,
            "sourceTxnHash": "0xd9ef6d9e95bb5f01e53a2432cde363002816a67a7358ac7f07c4ec2e19054480",
            "status": true,
            "timestamp": "2022-10-08T13:34:35Z",
            "transactionFee": "0.001184118",
            "txnHash": "0xd9ef6d9e95bb5f01e53a2432cde363002816a67a7358ac7f07c4ec2e19054480",
            "txnIndex": 74,
            "type": 2,
            "value": "0"
        },
        "fund_flow": [
            {
                "amount": "6.417568224380773317",
                "from": "0x58aef79778de31ced548d1a36ba5de29755defe4",
                "id": 1,
                "isERC1155": false,
                "isERC721": false,
                "isReverted": false,
                "order": 1,
                "to": "0x6fd7c6074f995e815f55d069ecee9250e16a2bc0",
                "token": "0xd43b6d32db8ccf64dbb0a62bceb112d7e874205a"
            },
            {
                "amount": "76.930789",
                "from": "0x6fd7c6074f995e815f55d069ecee9250e16a2bc0",
                "id": 2,
                "isERC1155": false,
                "isERC721": false,
                "isReverted": false,
                "order": 2,
                "to": "0x7a809081f991ecfe0ab2727c7e90d2ad7c2e411e",
                "token": "0xa0b86991c6218b36c1d19d4a2e9eb0ce3606eb48"
            },
            {
                "amount": "1,374,946,957.860809312325043778",
                "from": "0x7a809081f991ecfe0ab2727c7e90d2ad7c2e411e",
                "id": 3,
                "isERC1155": false,
                "isERC721": false,
                "isReverted": false,
                "order": 3,
                "to": "0x58aef79778de31ced548d1a36ba5de29755defe4",
                "token": "0xf3b9569f82b18aef890de263b84189bd33ebe452"
            }
        ],
        "token_infos": [
            {
                "address": "0xa0b86991c6218b36c1d19d4a2e9eb0ce3606eb48",
                "decimals": 6
            },
            {
                "address": "0xc02aaa39b223fe8d0a0e5c4f27ead9083c756cc2",
                "decimals": 18
            },
            {
                "address": "0xd43b6d32db8ccf64dbb0a62bceb112d7e874205a",
                "decimals": 18
            },
            {
                "address": "0xf3b9569f82b18aef890de263b84189bd33ebe452",
                "decimals": 18
            },
            {
                "address": "0xeeeeeeeeeeeeeeeeeeeeeeeeeeeeeeeeeeeeeeee",
                "decimals": 18
            }
        ]
    },
    "address_label": {
        "labels": [
            {
                "address": "0x0000000000000000000000000000000000000004",
                "label": "Precompiled"
            },
            {
                "address": "0xeeeeeeeeeeeeeeeeeeeeeeeeeeeeeeeeeeeeeeee",
                "label": "Ether"
            },
            {
                "address": "0x68b3465833fb72a70ecdf485e0e4c7bd8665fc45",
                "label": "Uniswap V3: Router 2"
            },
            {
                "address": "0x7a809081f991ecfe0ab2727c7e90d2ad7c2e411e",
                "label": "Uniswap V2: USDC-CAW"
            },
            {
                "address": "0xa0b86991c6218b36c1d19d4a2e9eb0ce3606eb48",
                "label": "Circle: USDC Token"
            },
            {
                "address": "0x0000000000000000000000000000000000000002",
                "label": "Precompiled"
            },
            {
                "address": "0x0000000000000000000000000000000000000003",
                "label": "Precompiled"
            },
            {
                "address": "0xa2327a938febf5fec13bacfb16ae10ecbc4cbdcf",
                "label": "FiatTokenV2_1"
            },
            {
                "address": "0x6fd7c6074f995e815f55d069ecee9250e16a2bc0",
                "label": "Uniswap V2: USDC-$1000"
            },
            {
                "address": "0xf3b9569f82b18aef890de263b84189bd33ebe452",
                "label": "A Hunters Dream: CAW Token"
            },
            {
                "address": "0xd43b6d32db8ccf64dbb0a62bceb112d7e874205a",
                "label": "$1000"
            },
            {
                "address": "0x0000000000000000000000000000000000000001",
                "label": "Precompiled"
            }
        ]
    },
    "trace": {
        "accountLabels": null,
        "dataMap": {
            "-1": {
                "invocation": {
                    "address": "0x58aef79778de31ced548d1a36ba5de29755defe4",
                    "callData": "",
                    "decodedMethod": null,
                    "errorInfo": "",
                    "fromAddress": "",
                    "gasUsed": 0,
                    "id": -1,
                    "methodDecoded": false,
                    "operation": "",
                    "output": "",
                    "revert": false,
                    "revertMessage": "",
                    "selector": "",
                    "status": false,
                    "value": ""
                },
                "nodeType": 0
            },
            "0": {
                "invocation": {
                    "address": "0x68b3465833fb72a70ecdf485e0e4c7bd8665fc45",
                    "callData": "0x00000000000000000000000000000000000000000000000000000000634183430000000000000000000000000000000000000000000000000000000000000040000000000000000000000000000000000000000000000000000000000000000100000000000000000000000000000000000000000000000000000000000000200000000000000000000000000000000000000000000000000000000000000104472b43f3000000000000000000000000000000000000000000000000590fc84c600ce3c50000000000000000000000000000000000000000041d1534fad840c110e3b533000000000000000000000000000000000000000000000000000000000000008000000000000000000000000058aef79778de31ced548d1a36ba5de29755defe40000000000000000000000000000000000000000000000000000000000000003000000000000000000000000d43b6d32db8ccf64dbb0a62bceb112d7e874205a000000000000000000000000a0b86991c6218b36c1d19d4a2e9eb0ce3606eb48000000000000000000000000f3b9569f82b18aef890de263b84189bd33ebe45200000000000000000000000000000000000000000000000000000000",
                    "decodedMethod": {
                        "callParams": [
                            {
                                "name": "deadline",
                                "type": "uint256",
                                "value": "1,665,237,827"
                            },
                            {
                                "name": "data",
                                "type": "bytes[]",
                                "value": [
                                    "0x472b43f3000000000000000000000000000000000000000000000000590fc84c600ce3c50000000000000000000000000000000000000000041d1534fad840c110e3b533000000000000000000000000000000000000000000000000000000000000008000000000000000000000000058aef79778de31ced548d1a36ba5de29755defe40000000000000000000000000000000000000000000000000000000000000003000000000000000000000000d43b6d32db8ccf64dbb0a62bceb112d7e874205a000000000000000000000000a0b86991c6218b36c1d19d4a2e9eb0ce3606eb48000000000000000000000000f3b9569f82b18aef890de263b84189bd33ebe452"
                                ]
                            }
                        ],
                        "constructorArguments": "",
                        "name": "multicall",
                        "returnParams": [
                            {
                                "name": "",
                                "type": "bytes[]",
                                "value": [
                                    "0x000000000000000000000000000000000000000004715457f0313bb1ca8f8642"
                                ]
                            }
                        ],
                        "signature": "multicall(uint256,bytes[])"
                    },
                    "errorInfo": "",
                    "fromAddress": "0x58aef79778de31ced548d1a36ba5de29755defe4",
                    "gasUsed": 197353,
                    "id": 0,
                    "methodDecoded": true,
                    "operation": "CALL",
                    "output": "0x0000000000000000000000000000000000000000000000000000000000000020000000000000000000000000000000000000000000000000000000000000000100000000000000000000000000000000000000000000000000000000000000200000000000000000000000000000000000000000000000000000000000000020000000000000000000000000000000000000000004715457f0313bb1ca8f8642",
                    "revert": false,
                    "revertMessage": "",
                    "selector": "0x5ae401dc",
                    "status": true,
                    "value": "0"
                },
                "nodeType": 0
            },
            "1": {
                "invocation": {
                    "address": "0x68b3465833fb72a70ecdf485e0e4c7bd8665fc45",
                    "callData": "0x000000000000000000000000000000000000000000000000590fc84c600ce3c50000000000000000000000000000000000000000041d1534fad840c110e3b533000000000000000000000000000000000000000000000000000000000000008000000000000000000000000058aef79778de31ced548d1a36ba5de29755defe40000000000000000000000000000000000000000000000000000000000000003000000000000000000000000d43b6d32db8ccf64dbb0a62bceb112d7e874205a000000000000000000000000a0b86991c6218b36c1d19d4a2e9eb0ce3606eb48000000000000000000000000f3b9569f82b18aef890de263b84189bd33ebe452",
                    "decodedMethod": {
                        "callParams": [
                            {
                                "name": "amountIn",
                                "type": "uint256",
                                "value": "6,417,568,224,380,773,317"
                            },
                            {
                                "name": "amountOutMin",
                                "type": "uint256",
                                "value": "1,273,099,035,056,304,918,819,484,979"
                            },
                            {
                                "name": "path",
                                "type": "address[]",
                                "value": [
                                    "0xd43b6d32db8ccf64dbb0a62bceb112d7e874205a",
                                    "0xa0b86991c6218b36c1d19d4a2e9eb0ce3606eb48",
                                    "0xf3b9569f82b18aef890de263b84189bd33ebe452"
                                ]
                            },
                            {
                                "name": "to",
                                "type": "address",
                                "value": "0x58aef79778de31ced548d1a36ba5de29755defe4"
                            }
                        ],
                        "constructorArguments": "",
                        "name": "swapExactTokensForTokens",
                        "returnParams": [
                            {
                                "name": "amountOut",
                                "type": "uint256",
                                "value": "1,374,946,957,860,809,312,325,043,778"
                            }
                        ],
                        "signature": "swapExactTokensForTokens(uint256,uint256,address[],address)"
                    },
                    "errorInfo": "",
                    "fromAddress": "0x68b3465833fb72a70ecdf485e0e4c7bd8665fc45",
                    "gasUsed": 181333,
                    "id": 1,
                    "methodDecoded": true,
                    "operation": "DELEGATECALL",
                    "output": "0x000000000000000000000000000000000000000004715457f0313bb1ca8f8642",
                    "revert": false,
                    "revertMessage": "",
                    "selector": "0x472b43f3",
                    "status": true,
                    "value": "0"
                },
                "nodeType": 0
            },
            "10": {
                "invocation": {
                    "address": "0xa2327a938febf5fec13bacfb16ae10ecbc4cbdcf",
                    "callData": "0x0000000000000000000000007a809081f991ecfe0ab2727c7e90d2ad7c2e411e000000000000000000000000000000000000000000000000000000000495dee5",
                    "decodedMethod": {
                        "callParams": [
                            {
                                "name": "to",
                                "type": "address",
                                "value": "0x7a809081f991ecfe0ab2727c7e90d2ad7c2e411e"
                            },
                            {
                                "decimalAvailable": true,
                                "name": "value",
                                "type": "uint256",
                                "value": "76,930,789"
                            }
                        ],
                        "constructorArguments": "",
                        "name": "transfer",
                        "returnParams": [
                            {
                                "name": "",
                                "type": "bool",
                                "value": true
                            }
                        ],
                        "signature": "transfer(address,uint256)"
                    },
                    "errorInfo": "",
                    "fromAddress": "0xa0b86991c6218b36c1d19d4a2e9eb0ce3606eb48",
                    "gasUsed": 19628,
                    "id": 10,
                    "methodDecoded": true,
                    "operation": "DELEGATECALL",
                    "output": "0x0000000000000000000000000000000000000000000000000000000000000001",
                    "revert": false,
                    "revertMessage": "",
                    "selector": "0xa9059cbb",
                    "status": true,
                    "value": "0"
                },
                "nodeType": 0
            },
            "11": {
                "event": {
                    "contract": "0xa0b86991c6218b36c1d19d4a2e9eb0ce3606eb48",
                    "decodedLog": {
                        "name": "Transfer",
                        "params": [
                            {
                                "name": "from",
                                "type": "address",
                                "value": "0x6fd7c6074f995e815f55d069ecee9250e16a2bc0"
                            },
                            {
                                "name": "to",
                                "type": "address",
                                "value": "0x7a809081f991ecfe0ab2727c7e90d2ad7c2e411e"
                            },
                            {
                                "decimalAvailable": true,
                                "name": "value",
                                "type": "uint256",
                                "value": "76,930,789"
                            }
                        ],
                        "signature": "Transfer(address,address,uint256)"
                    },
                    "id": 11,
                    "logData": "0x000000000000000000000000000000000000000000000000000000000495dee5",
                    "logDecoded": true,
                    "operation": "EVENT",
                    "revert": false,
                    "status": true,
                    "topics": [
                        "0xddf252ad1be2c89b69c2b068fc378daa952ba7f163c4a11628f55a4df523b3ef",
                        "0x0000000000000000000000006fd7c6074f995e815f55d069ecee9250e16a2bc0",
                        "0x0000000000000000000000007a809081f991ecfe0ab2727c7e90d2ad7c2e411e"
                    ]
                },
                "nodeType": 1
            },
            "12": {
                "invocation": {
                    "address": "0xa0b86991c6218b36c1d19d4a2e9eb0ce3606eb48",
                    "callData": "0x0000000000000000000000006fd7c6074f995e815f55d069ecee9250e16a2bc0",
                    "decodedMethod": {
                        "callParams": [
                            {
                                "name": "account",
                                "type": "address",
                                "value": "0x6fd7c6074f995e815f55d069ecee9250e16a2bc0"
                            }
                        ],
                        "constructorArguments": "",
                        "name": "balanceOf",
                        "returnParams": [
                            {
                                "decimalAvailable": true,
                                "name": "",
                                "type": "uint256",
                                "value": "3,549,762,059"
                            }
                        ],
                        "signature": "balanceOf(address)"
                    },
                    "errorInfo": "",
                    "fromAddress": "0x6fd7c6074f995e815f55d069ecee9250e16a2bc0",
                    "gasUsed": 1315,
                    "id": 12,
                    "methodDecoded": true,
                    "operation": "STATICCALL",
                    "output": "0x00000000000000000000000000000000000000000000000000000000d395120b",
                    "revert": false,
                    "revertMessage": "",
                    "selector": "0x70a08231",
                    "status": true,
                    "value": "0"
                },
                "nodeType": 0
            },
            "13": {
                "invocation": {
                    "address": "0xa2327a938febf5fec13bacfb16ae10ecbc4cbdcf",
                    "callData": "0x0000000000000000000000006fd7c6074f995e815f55d069ecee9250e16a2bc0",
                    "decodedMethod": {
                        "callParams": [
                            {
                                "name": "account",
                                "type": "address",
                                "value": "0x6fd7c6074f995e815f55d069ecee9250e16a2bc0"
                            }
                        ],
                        "constructorArguments": "",
                        "name": "balanceOf",
                        "returnParams": [
                            {
                                "decimalAvailable": true,
                                "name": "",
                                "type": "uint256",
                                "value": "3,549,762,059"
                            }
                        ],
                        "signature": "balanceOf(address)"
                    },
                    "errorInfo": "",
                    "fromAddress": "0xa0b86991c6218b36c1d19d4a2e9eb0ce3606eb48",
                    "gasUsed": 529,
                    "id": 13,
                    "methodDecoded": true,
                    "operation": "DELEGATECALL",
                    "output": "0x00000000000000000000000000000000000000000000000000000000d395120b",
                    "revert": false,
                    "revertMessage": "",
                    "selector": "0x70a08231",
                    "status": true,
                    "value": "0"
                },
                "nodeType": 0
            },
            "14": {
                "invocation": {
                    "address": "0xd43b6d32db8ccf64dbb0a62bceb112d7e874205a",
                    "callData": "0x0000000000000000000000006fd7c6074f995e815f55d069ecee9250e16a2bc0",
                    "decodedMethod": {
                        "callParams": [
                            {
                                "name": "account",
                                "type": "address",
                                "value": "0x6fd7c6074f995e815f55d069ecee9250e16a2bc0"
                            }
                        ],
                        "constructorArguments": "",
                        "name": "balanceOf",
                        "returnParams": [
                            {
                                "decimalAvailable": true,
                                "name": "",
                                "type": "uint256",
                                "value": "301,650,435,264,696,419,340"
                            }
                        ],
                        "signature": "balanceOf(address)"
                    },
                    "errorInfo": "",
                    "fromAddress": "0x6fd7c6074f995e815f55d069ecee9250e16a2bc0",
                    "gasUsed": 974,
                    "id": 14,
                    "methodDecoded": true,
                    "operation": "STATICCALL",
                    "output": "0x0000000000000000000000000000000000000000000000105a3da0a92632040c",
                    "revert": false,
                    "revertMessage": "",
                    "selector": "0x70a08231",
                    "status": true,
                    "value": "0"
                },
                "nodeType": 0
            },
            "15": {
                "event": {
                    "contract": "0x6fd7c6074f995e815f55d069ecee9250e16a2bc0",
                    "decodedLog": {
                        "name": "Sync",
                        "params": [
                            {
                                "name": "reserve0",
                                "type": "uint112",
                                "value": "3,549,762,059"
                            },
                            {
                                "name": "reserve1",
                                "type": "uint112",
                                "value": "301,650,435,264,696,419,340"
                            }
                        ],
                        "signature": "Sync(uint112,uint112)"
                    },
                    "id": 15,
                    "logData": "0x00000000000000000000000000000000000000000000000000000000d395120b0000000000000000000000000000000000000000000000105a3da0a92632040c",
                    "logDecoded": true,
                    "operation": "EVENT",
                    "revert": false,
                    "status": true,
                    "topics": [
                        "0x1c411e9a96e071241c2f21f7726b17ae89e3cab4c78be50e062b03a9fffbbad1"
                    ]
                },
                "nodeType": 1
            },
            "16": {
                "event": {
                    "contract": "0x6fd7c6074f995e815f55d069ecee9250e16a2bc0",
                    "decodedLog": {
                        "name": "Swap",
                        "params": [
                            {
                                "name": "sender",
                                "type": "address",
                                "value": "0x68b3465833fb72a70ecdf485e0e4c7bd8665fc45"
                            },
                            {
                                "name": "to",
                                "type": "address",
                                "value": "0x7a809081f991ecfe0ab2727c7e90d2ad7c2e411e"
                            },
                            {
                                "name": "amount0In",
                                "type": "uint256",
                                "value": "0"
                            },
                            {
                                "name": "amount1In",
                                "type": "uint256",
                                "value": "6,417,568,224,380,773,317"
                            },
                            {
                                "name": "amount0Out",
                                "type": "uint256",
                                "value": "76,930,789"
                            },
                            {
                                "name": "amount1Out",
                                "type": "uint256",
                                "value": "0"
                            }
                        ],
                        "signature": "Swap(address,uint256,uint256,uint256,uint256,address)"
                    },
                    "id": 16,
                    "logData": "0x0000000000000000000000000000000000000000000000000000000000000000000000000000000000000000000000000000000000000000590fc84c600ce3c5000000000000000000000000000000000000000000000000000000000495dee50000000000000000000000000000000000000000000000000000000000000000",
                    "logDecoded": true,
                    "operation": "EVENT",
                    "revert": false,
                    "status": true,
                    "topics": [
                        "0xd78ad95fa46c994b6551d0da85fc275fe613ce37657fb8d5e3d130840159d822",
                        "0x00000000000000000000000068b3465833fb72a70ecdf485e0e4c7bd8665fc45",
                        "0x0000000000000000000000007a809081f991ecfe0ab2727c7e90d2ad7c2e411e"
                    ]
                },
                "nodeType": 1
            },
            "17": {
                "invocation": {
                    "address": "0x7a809081f991ecfe0ab2727c7e90d2ad7c2e411e",
                    "callData": "0x",
                    "decodedMethod": {
                        "callParams": [],
                        "constructorArguments": "",
                        "name": "getReserves",
                        "returnParams": [
                            {
                                "name": "_reserve0",
                                "type": "uint112",
                                "value": "4,830,880,445,717"
                            },
                            {
                                "name": "_reserve1",
                                "type": "uint112",
                                "value": "86,601,175,001,839,040,631,425,548,166,983"
                            },
                            {
                                "name": "_blockTimestampLast",
                                "type": "uint32",
                                "value": "1,665,235,607"
                            }
                        ],
                        "signature": "getReserves()"
                    },
                    "errorInfo": "",
                    "fromAddress": "0x68b3465833fb72a70ecdf485e0e4c7bd8665fc45",
                    "gasUsed": 2504,
                    "id": 17,
                    "methodDecoded": true,
                    "operation": "STATICCALL",
                    "output": "0x00000000000000000000000000000000000000000000000000000464c6e9b51500000000000000000000000000000000000004450f7cfc5f8ff3e0bfa4e027470000000000000000000000000000000000000000000000000000000063417a97",
                    "revert": false,
                    "revertMessage": "",
                    "selector": "0x0902f1ac",
                    "status": true,
                    "value": "0"
                },
                "nodeType": 0
            },
            "18": {
                "invocation": {
                    "address": "0xa0b86991c6218b36c1d19d4a2e9eb0ce3606eb48",
                    "callData": "0x0000000000000000000000007a809081f991ecfe0ab2727c7e90d2ad7c2e411e",
                    "decodedMethod": {
                        "callParams": [
                            {
                                "name": "account",
                                "type": "address",
                                "value": "0x7a809081f991ecfe0ab2727c7e90d2ad7c2e411e"
                            }
                        ],
                        "constructorArguments": "",
                        "name": "balanceOf",
                        "returnParams": [
                            {
                                "decimalAvailable": true,
                                "name": "",
                                "type": "uint256",
                                "value": "4,830,957,376,506"
                            }
                        ],
                        "signature": "balanceOf(address)"
                    },
                    "errorInfo": "",
                    "fromAddress": "0x68b3465833fb72a70ecdf485e0e4c7bd8665fc45",
                    "gasUsed": 1315,
                    "id": 18,
                    "methodDecoded": true,
                    "operation": "STATICCALL",
                    "output": "0x00000000000000000000000000000000000000000000000000000464cb7f93fa",
                    "revert": false,
                    "revertMessage": "",
                    "selector": "0x70a08231",
                    "status": true,
                    "value": "0"
                },
                "nodeType": 0
            },
            "19": {
                "invocation": {
                    "address": "0xa2327a938febf5fec13bacfb16ae10ecbc4cbdcf",
                    "callData": "0x0000000000000000000000007a809081f991ecfe0ab2727c7e90d2ad7c2e411e",
                    "decodedMethod": {
                        "callParams": [
                            {
                                "name": "account",
                                "type": "address",
                                "value": "0x7a809081f991ecfe0ab2727c7e90d2ad7c2e411e"
                            }
                        ],
                        "constructorArguments": "",
                        "name": "balanceOf",
                        "returnParams": [
                            {
                                "decimalAvailable": true,
                                "name": "",
                                "type": "uint256",
                                "value": "4,830,957,376,506"
                            }
                        ],
                        "signature": "balanceOf(address)"
                    },
                    "errorInfo": "",
                    "fromAddress": "0xa0b86991c6218b36c1d19d4a2e9eb0ce3606eb48",
                    "gasUsed": 529,
                    "id": 19,
                    "methodDecoded": true,
                    "operation": "DELEGATECALL",
                    "output": "0x00000000000000000000000000000000000000000000000000000464cb7f93fa",
                    "revert": false,
                    "revertMessage": "",
                    "selector": "0x70a08231",
                    "status": true,
                    "value": "0"
                },
                "nodeType": 0
            },
            "2": {
                "invocation": {
                    "address": "0xd43b6d32db8ccf64dbb0a62bceb112d7e874205a",
                    "callData": "0x00000000000000000000000058aef79778de31ced548d1a36ba5de29755defe40000000000000000000000006fd7c6074f995e815f55d069ecee9250e16a2bc0000000000000000000000000000000000000000000000000590fc84c600ce3c5",
                    "decodedMethod": {
                        "callParams": [
                            {
                                "name": "sender",
                                "type": "address",
                                "value": "0x58aef79778de31ced548d1a36ba5de29755defe4"
                            },
                            {
                                "name": "recipient",
                                "type": "address",
                                "value": "0x6fd7c6074f995e815f55d069ecee9250e16a2bc0"
                            },
                            {
                                "decimalAvailable": true,
                                "name": "amount",
                                "type": "uint256",
                                "value": "6,417,568,224,380,773,317"
                            }
                        ],
                        "constructorArguments": "",
                        "name": "transferFrom",
                        "returnParams": [
                            {
                                "name": "",
                                "type": "bool",
                                "value": true
                            }
                        ],
                        "signature": "transferFrom(address,address,uint256)"
                    },
                    "errorInfo": "",
                    "fromAddress": "0x68b3465833fb72a70ecdf485e0e4c7bd8665fc45",
                    "gasUsed": 40200,
                    "id": 2,
                    "methodDecoded": true,
                    "operation": "CALL",
                    "output": "0x0000000000000000000000000000000000000000000000000000000000000001",
                    "revert": false,
                    "revertMessage": "",
                    "selector": "0x23b872dd",
                    "status": true,
                    "value": "0"
                },
                "nodeType": 0
            },
            "20": {
                "invocation": {
                    "address": "0x7a809081f991ecfe0ab2727c7e90d2ad7c2e411e",
                    "callData": "0x0000000000000000000000000000000000000000000000000000000000000000000000000000000000000000000000000000000004715457f0313bb1ca8f864200000000000000000000000058aef79778de31ced548d1a36ba5de29755defe400000000000000000000000000000000000000000000000000000000000000800000000000000000000000000000000000000000000000000000000000000000",
                    "decodedMethod": {
                        "callParams": [
                            {
                                "name": "amount0Out",
                                "type": "uint256",
                                "value": "0"
                            },
                            {
                                "name": "amount1Out",
                                "type": "uint256",
                                "value": "1,374,946,957,860,809,312,325,043,778"
                            },
                            {
                                "name": "to",
                                "type": "address",
                                "value": "0x58aef79778de31ced548d1a36ba5de29755defe4"
                            },
                            {
                                "name": "data",
                                "type": "bytes",
                                "value": "0x"
                            }
                        ],
                        "constructorArguments": "",
                        "name": "swap",
                        "returnParams": [],
                        "signature": "swap(uint256,uint256,address,bytes)"
                    },
                    "errorInfo": "",
                    "fromAddress": "0x68b3465833fb72a70ecdf485e0e4c7bd8665fc45",
                    "gasUsed": 44053,
                    "id": 20,
                    "methodDecoded": true,
                    "operation": "CALL",
                    "output": "",
                    "revert": false,
                    "revertMessage": "",
                    "selector": "0x022c0d9f",
                    "status": true,
                    "value": "0"
                },
                "nodeType": 0
            },
            "21": {
                "invocation": {
                    "address": "0xf3b9569f82b18aef890de263b84189bd33ebe452",
                    "callData": "0x00000000000000000000000058aef79778de31ced548d1a36ba5de29755defe4000000000000000000000000000000000000000004715457f0313bb1ca8f8642",
                    "decodedMethod": {
                        "callParams": [
                            {
                                "name": "recipient",
                                "type": "address",
                                "value": "0x58aef79778de31ced548d1a36ba5de29755defe4"
                            },
                            {
                                "decimalAvailable": true,
                                "name": "amount",
                                "type": "uint256",
                                "value": "1,374,946,957,860,809,312,325,043,778"
                            }
                        ],
                        "constructorArguments": "",
                        "name": "transfer",
                        "returnParams": [
                            {
                                "name": "",
                                "type": "bool",
                                "value": true
                            }
                        ],
                        "signature": "transfer(address,uint256)"
                    },
                    "errorInfo": "",
                    "fromAddress": "0x7a809081f991ecfe0ab2727c7e90d2ad7c2e411e",
                    "gasUsed": 10853,
                    "id": 21,
                    "methodDecoded": true,
                    "operation": "CALL",
                    "output": "0x0000000000000000000000000000000000000000000000000000000000000001",
                    "revert": false,
                    "revertMessage": "",
                    "selector": "0xa9059cbb",
                    "status": true,
                    "value": "0"
                },
                "nodeType": 0
            },
            "22": {
                "event": {
                    "contract": "0xf3b9569f82b18aef890de263b84189bd33ebe452",
                    "decodedLog": {
                        "name": "Transfer",
                        "params": [
                            {
                                "name": "from",
                                "type": "address",
                                "value": "0x7a809081f991ecfe0ab2727c7e90d2ad7c2e411e"
                            },
                            {
                                "name": "to",
                                "type": "address",
                                "value": "0x58aef79778de31ced548d1a36ba5de29755defe4"
                            },
                            {
                                "decimalAvailable": true,
                                "name": "value",
                                "type": "uint256",
                                "value": "1,374,946,957,860,809,312,325,043,778"
                            }
                        ],
                        "signature": "Transfer(address,address,uint256)"
                    },
                    "id": 22,
                    "logData": "0x000000000000000000000000000000000000000004715457f0313bb1ca8f8642",
                    "logDecoded": true,
                    "operation": "EVENT",
                    "revert": false,
                    "status": true,
                    "topics": [
                        "0xddf252ad1be2c89b69c2b068fc378daa952ba7f163c4a11628f55a4df523b3ef",
                        "0x0000000000000000000000007a809081f991ecfe0ab2727c7e90d2ad7c2e411e",
                        "0x00000000000000000000000058aef79778de31ced548d1a36ba5de29755defe4"
                    ]
                },
                "nodeType": 1
            },
            "23": {
                "invocation": {
                    "address": "0xa0b86991c6218b36c1d19d4a2e9eb0ce3606eb48",
                    "callData": "0x0000000000000000000000007a809081f991ecfe0ab2727c7e90d2ad7c2e411e",
                    "decodedMethod": {
                        "callParams": [
                            {
                                "name": "account",
                                "type": "address",
                                "value": "0x7a809081f991ecfe0ab2727c7e90d2ad7c2e411e"
                            }
                        ],
                        "constructorArguments": "",
                        "name": "balanceOf",
                        "returnParams": [
                            {
                                "decimalAvailable": true,
                                "name": "",
                                "type": "uint256",
                                "value": "4,830,957,376,506"
                            }
                        ],
                        "signature": "balanceOf(address)"
                    },
                    "errorInfo": "",
                    "fromAddress": "0x7a809081f991ecfe0ab2727c7e90d2ad7c2e411e",
                    "gasUsed": 1315,
                    "id": 23,
                    "methodDecoded": true,
                    "operation": "STATICCALL",
                    "output": "0x00000000000000000000000000000000000000000000000000000464cb7f93fa",
                    "revert": false,
                    "revertMessage": "",
                    "selector": "0x70a08231",
                    "status": true,
                    "value": "0"
                },
                "nodeType": 0
            },
            "24": {
                "invocation": {
                    "address": "0xa2327a938febf5fec13bacfb16ae10ecbc4cbdcf",
                    "callData": "0x0000000000000000000000007a809081f991ecfe0ab2727c7e90d2ad7c2e411e",
                    "decodedMethod": {
                        "callParams": [
                            {
                                "name": "account",
                                "type": "address",
                                "value": "0x7a809081f991ecfe0ab2727c7e90d2ad7c2e411e"
                            }
                        ],
                        "constructorArguments": "",
                        "name": "balanceOf",
                        "returnParams": [
                            {
                                "decimalAvailable": true,
                                "name": "",
                                "type": "uint256",
                                "value": "4,830,957,376,506"
                            }
                        ],
                        "signature": "balanceOf(address)"
                    },
                    "errorInfo": "",
                    "fromAddress": "0xa0b86991c6218b36c1d19d4a2e9eb0ce3606eb48",
                    "gasUsed": 529,
                    "id": 24,
                    "methodDecoded": true,
                    "operation": "DELEGATECALL",
                    "output": "0x00000000000000000000000000000000000000000000000000000464cb7f93fa",
                    "revert": false,
                    "revertMessage": "",
                    "selector": "0x70a08231",
                    "status": true,
                    "value": "0"
                },
                "nodeType": 0
            },
            "25": {
                "invocation": {
                    "address": "0xf3b9569f82b18aef890de263b84189bd33ebe452",
                    "callData": "0x0000000000000000000000007a809081f991ecfe0ab2727c7e90d2ad7c2e411e",
                    "decodedMethod": {
                        "callParams": [
                            {
                                "name": "account",
                                "type": "address",
                                "value": "0x7a809081f991ecfe0ab2727c7e90d2ad7c2e411e"
                            }
                        ],
                        "constructorArguments": "",
                        "name": "balanceOf",
                        "returnParams": [
                            {
                                "decimalAvailable": true,
                                "name": "",
                                "type": "uint256",
                                "value": "86,599,800,054,881,179,822,113,223,123,205"
                            }
                        ],
                        "signature": "balanceOf(address)"
                    },
                    "errorInfo": "",
                    "fromAddress": "0x7a809081f991ecfe0ab2727c7e90d2ad7c2e411e",
                    "gasUsed": 562,
                    "id": 25,
                    "methodDecoded": true,
                    "operation": "STATICCALL",
                    "output": "0x00000000000000000000000000000000000004450b0ba8079fc2a50dda50a105",
                    "revert": false,
                    "revertMessage": "",
                    "selector": "0x70a08231",
                    "status": true,
                    "value": "0"
                },
                "nodeType": 0
            },
            "26": {
                "event": {
                    "contract": "0x7a809081f991ecfe0ab2727c7e90d2ad7c2e411e",
                    "decodedLog": {
                        "name": "Sync",
                        "params": [
                            {
                                "name": "reserve0",
                                "type": "uint112",
                                "value": "4,830,957,376,506"
                            },
                            {
                                "name": "reserve1",
                                "type": "uint112",
                                "value": "86,599,800,054,881,179,822,113,223,123,205"
                            }
                        ],
                        "signature": "Sync(uint112,uint112)"
                    },
                    "id": 26,
                    "logData": "0x00000000000000000000000000000000000000000000000000000464cb7f93fa00000000000000000000000000000000000004450b0ba8079fc2a50dda50a105",
                    "logDecoded": true,
                    "operation": "EVENT",
                    "revert": false,
                    "status": true,
                    "topics": [
                        "0x1c411e9a96e071241c2f21f7726b17ae89e3cab4c78be50e062b03a9fffbbad1"
                    ]
                },
                "nodeType": 1
            },
            "27": {
                "event": {
                    "contract": "0x7a809081f991ecfe0ab2727c7e90d2ad7c2e411e",
                    "decodedLog": {
                        "name": "Swap",
                        "params": [
                            {
                                "name": "sender",
                                "type": "address",
                                "value": "0x68b3465833fb72a70ecdf485e0e4c7bd8665fc45"
                            },
                            {
                                "name": "to",
                                "type": "address",
                                "value": "0x58aef79778de31ced548d1a36ba5de29755defe4"
                            },
                            {
                                "name": "amount0In",
                                "type": "uint256",
                                "value": "76,930,789"
                            },
                            {
                                "name": "amount1In",
                                "type": "uint256",
                                "value": "0"
                            },
                            {
                                "name": "amount0Out",
                                "type": "uint256",
                                "value": "0"
                            },
                            {
                                "name": "amount1Out",
                                "type": "uint256",
                                "value": "1,374,946,957,860,809,312,325,043,778"
                            }
                        ],
                        "signature": "Swap(address,uint256,uint256,uint256,uint256,address)"
                    },
                    "id": 27,
                    "logData": "0x000000000000000000000000000000000000000000000000000000000495dee500000000000000000000000000000000000000000000000000000000000000000000000000000000000000000000000000000000000000000000000000000000000000000000000000000000000000000000000004715457f0313bb1ca8f8642",
                    "logDecoded": true,
                    "operation": "EVENT",
                    "revert": false,
                    "status": true,
                    "topics": [
                        "0xd78ad95fa46c994b6551d0da85fc275fe613ce37657fb8d5e3d130840159d822",
                        "0x00000000000000000000000068b3465833fb72a70ecdf485e0e4c7bd8665fc45",
                        "0x00000000000000000000000058aef79778de31ced548d1a36ba5de29755defe4"
                    ]
                },
                "nodeType": 1
            },
            "28": {
                "invocation": {
                    "address": "0xf3b9569f82b18aef890de263b84189bd33ebe452",
                    "callData": "0x00000000000000000000000058aef79778de31ced548d1a36ba5de29755defe4",
                    "decodedMethod": {
                        "callParams": [
                            {
                                "name": "account",
                                "type": "address",
                                "value": "0x58aef79778de31ced548d1a36ba5de29755defe4"
                            }
                        ],
                        "constructorArguments": "",
                        "name": "balanceOf",
                        "returnParams": [
                            {
                                "decimalAvailable": true,
                                "name": "",
                                "type": "uint256",
                                "value": "16,599,291,230,056,589,891,620,260,160"
                            }
                        ],
                        "signature": "balanceOf(address)"
                    },
                    "errorInfo": "",
                    "fromAddress": "0x68b3465833fb72a70ecdf485e0e4c7bd8665fc45",
                    "gasUsed": 562,
                    "id": 28,
                    "methodDecoded": true,
                    "operation": "STATICCALL",
                    "output": "0x000000000000000000000000000000000000000035a29ca4aad73d5b8e9f4940",
                    "revert": false,
                    "revertMessage": "",
                    "selector": "0x70a08231",
                    "status": true,
                    "value": "0"
                },
                "nodeType": 0
            },
            "3": {
                "event": {
                    "contract": "0xd43b6d32db8ccf64dbb0a62bceb112d7e874205a",
                    "decodedLog": {
                        "name": "Transfer",
                        "params": [
                            {
                                "name": "from",
                                "type": "address",
                                "value": "0x58aef79778de31ced548d1a36ba5de29755defe4"
                            },
                            {
                                "name": "to",
                                "type": "address",
                                "value": "0x6fd7c6074f995e815f55d069ecee9250e16a2bc0"
                            },
                            {
                                "decimalAvailable": true,
                                "name": "value",
                                "type": "uint256",
                                "value": "6,417,568,224,380,773,317"
                            }
                        ],
                        "signature": "Transfer(address,address,uint256)"
                    },
                    "id": 3,
                    "logData": "0x000000000000000000000000000000000000000000000000590fc84c600ce3c5",
                    "logDecoded": true,
                    "operation": "EVENT",
                    "revert": false,
                    "status": true,
                    "topics": [
                        "0xddf252ad1be2c89b69c2b068fc378daa952ba7f163c4a11628f55a4df523b3ef",
                        "0x00000000000000000000000058aef79778de31ced548d1a36ba5de29755defe4",
                        "0x0000000000000000000000006fd7c6074f995e815f55d069ecee9250e16a2bc0"
                    ]
                },
                "nodeType": 1
            },
            "4": {
                "event": {
                    "contract": "0xd43b6d32db8ccf64dbb0a62bceb112d7e874205a",
                    "decodedLog": {
                        "name": "Approval",
                        "params": [
                            {
                                "name": "owner",
                                "type": "address",
                                "value": "0x58aef79778de31ced548d1a36ba5de29755defe4"
                            },
                            {
                                "name": "spender",
                                "type": "address",
                                "value": "0x68b3465833fb72a70ecdf485e0e4c7bd8665fc45"
                            },
                            {
                                "decimalAvailable": true,
                                "name": "value",
                                "type": "uint256",
                                "value": "115,792,089,237,316,195,423,570,985,008,687,907,853,269,984,665,640,564,039,394,559,472,472,496,121,727"
                            }
                        ],
                        "signature": "Approval(address,address,uint256)"
                    },
                    "id": 4,
                    "logData": "0xfffffffffffffffffffffffffffffffffffffffffffffffc955bdeef5f05a77f",
                    "logDecoded": true,
                    "operation": "EVENT",
                    "revert": false,
                    "status": true,
                    "topics": [
                        "0x8c5be1e5ebec7d5bd14f71427d1e84f3dd0314c0f7b2291e5b200ac8c7c3b925",
                        "0x00000000000000000000000058aef79778de31ced548d1a36ba5de29755defe4",
                        "0x00000000000000000000000068b3465833fb72a70ecdf485e0e4c7bd8665fc45"
                    ]
                },
                "nodeType": 1
            },
            "5": {
                "invocation": {
                    "address": "0xf3b9569f82b18aef890de263b84189bd33ebe452",
                    "callData": "0x00000000000000000000000058aef79778de31ced548d1a36ba5de29755defe4",
                    "decodedMethod": {
                        "callParams": [
                            {
                                "name": "account",
                                "type": "address",
                                "value": "0x58aef79778de31ced548d1a36ba5de29755defe4"
                            }
                        ],
                        "constructorArguments": "",
                        "name": "balanceOf",
                        "returnParams": [
                            {
                                "decimalAvailable": true,
                                "name": "",
                                "type": "uint256",
                                "value": "15,224,344,272,195,780,579,295,216,382"
                            }
                        ],
                        "signature": "balanceOf(address)"
                    },
                    "errorInfo": "",
                    "fromAddress": "0x68b3465833fb72a70ecdf485e0e4c7bd8665fc45",
                    "gasUsed": 2562,
                    "id": 5,
                    "methodDecoded": true,
                    "operation": "STATICCALL",
                    "output": "0x00000000000000000000000000000000000000003131484cbaa601a9c40fc2fe",
                    "revert": false,
                    "revertMessage": "",
                    "selector": "0x70a08231",
                    "status": true,
                    "value": "0"
                },
                "nodeType": 0
            },
            "6": {
                "invocation": {
                    "address": "0x6fd7c6074f995e815f55d069ecee9250e16a2bc0",
                    "callData": "0x",
                    "decodedMethod": {
                        "callParams": [],
                        "constructorArguments": "",
                        "name": "getReserves",
                        "returnParams": [
                            {
                                "name": "_reserve0",
                                "type": "uint112",
                                "value": "3,626,692,848"
                            },
                            {
                                "name": "_reserve1",
                                "type": "uint112",
                                "value": "295,232,867,040,315,646,023"
                            },
                            {
                                "name": "_blockTimestampLast",
                                "type": "uint32",
                                "value": "1,665,233,219"
                            }
                        ],
                        "signature": "getReserves()"
                    },
                    "errorInfo": "",
                    "fromAddress": "0x68b3465833fb72a70ecdf485e0e4c7bd8665fc45",
                    "gasUsed": 2504,
                    "id": 6,
                    "methodDecoded": true,
                    "operation": "STATICCALL",
                    "output": "0x00000000000000000000000000000000000000000000000000000000d82af0f0000000000000000000000000000000000000000000000010012dd85cc62520470000000000000000000000000000000000000000000000000000000063417143",
                    "revert": false,
                    "revertMessage": "",
                    "selector": "0x0902f1ac",
                    "status": true,
                    "value": "0"
                },
                "nodeType": 0
            },
            "7": {
                "invocation": {
                    "address": "0xd43b6d32db8ccf64dbb0a62bceb112d7e874205a",
                    "callData": "0x0000000000000000000000006fd7c6074f995e815f55d069ecee9250e16a2bc0",
                    "decodedMethod": {
                        "callParams": [
                            {
                                "name": "account",
                                "type": "address",
                                "value": "0x6fd7c6074f995e815f55d069ecee9250e16a2bc0"
                            }
                        ],
                        "constructorArguments": "",
                        "name": "balanceOf",
                        "returnParams": [
                            {
                                "decimalAvailable": true,
                                "name": "",
                                "type": "uint256",
                                "value": "301,650,435,264,696,419,340"
                            }
                        ],
                        "signature": "balanceOf(address)"
                    },
                    "errorInfo": "",
                    "fromAddress": "0x68b3465833fb72a70ecdf485e0e4c7bd8665fc45",
                    "gasUsed": 974,
                    "id": 7,
                    "methodDecoded": true,
                    "operation": "STATICCALL",
                    "output": "0x0000000000000000000000000000000000000000000000105a3da0a92632040c",
                    "revert": false,
                    "revertMessage": "",
                    "selector": "0x70a08231",
                    "status": true,
                    "value": "0"
                },
                "nodeType": 0
            },
            "8": {
                "invocation": {
                    "address": "0x6fd7c6074f995e815f55d069ecee9250e16a2bc0",
                    "callData": "0x000000000000000000000000000000000000000000000000000000000495dee500000000000000000000000000000000000000000000000000000000000000000000000000000000000000007a809081f991ecfe0ab2727c7e90d2ad7c2e411e00000000000000000000000000000000000000000000000000000000000000800000000000000000000000000000000000000000000000000000000000000000",
                    "decodedMethod": {
                        "callParams": [
                            {
                                "name": "amount0Out",
                                "type": "uint256",
                                "value": "76,930,789"
                            },
                            {
                                "name": "amount1Out",
                                "type": "uint256",
                                "value": "0"
                            },
                            {
                                "name": "to",
                                "type": "address",
                                "value": "0x7a809081f991ecfe0ab2727c7e90d2ad7c2e411e"
                            },
                            {
                                "name": "data",
                                "type": "bytes",
                                "value": "0x"
                            }
                        ],
                        "constructorArguments": "",
                        "name": "swap",
                        "returnParams": [],
                        "signature": "swap(uint256,uint256,address,bytes)"
                    },
                    "errorInfo": "",
                    "fromAddress": "0x68b3465833fb72a70ecdf485e0e4c7bd8665fc45",
                    "gasUsed": 63029,
                    "id": 8,
                    "methodDecoded": true,
                    "operation": "CALL",
                    "output": "",
                    "revert": false,
                    "revertMessage": "",
                    "selector": "0x022c0d9f",
                    "status": true,
                    "value": "0"
                },
                "nodeType": 0
            },
            "9": {
                "invocation": {
                    "address": "0xa0b86991c6218b36c1d19d4a2e9eb0ce3606eb48",
                    "callData": "0x0000000000000000000000007a809081f991ecfe0ab2727c7e90d2ad7c2e411e000000000000000000000000000000000000000000000000000000000495dee5",
                    "decodedMethod": {
                        "callParams": [
                            {
                                "name": "to",
                                "type": "address",
                                "value": "0x7a809081f991ecfe0ab2727c7e90d2ad7c2e411e"
                            },
                            {
                                "decimalAvailable": true,
                                "name": "value",
                                "type": "uint256",
                                "value": "76,930,789"
                            }
                        ],
                        "constructorArguments": "",
                        "name": "transfer",
                        "returnParams": [
                            {
                                "name": "",
                                "type": "bool",
                                "value": true
                            }
                        ],
                        "signature": "transfer(address,uint256)"
                    },
                    "errorInfo": "",
                    "fromAddress": "0x6fd7c6074f995e815f55d069ecee9250e16a2bc0",
                    "gasUsed": 26917,
                    "id": 9,
                    "methodDecoded": true,
                    "operation": "CALL",
                    "output": "0x0000000000000000000000000000000000000000000000000000000000000001",
                    "revert": false,
                    "revertMessage": "",
                    "selector": "0xa9059cbb",
                    "status": true,
                    "value": "0"
                },
                "nodeType": 0
            }
        },
        "gasFlame": [
            {
                "children": [
                    {
                        "children": [
                            {
                                "children": [],
                                "depth": 0,
                                "name": "Initial Gas",
                                "value": 24236
                            },
                            {
                                "children": [
                                    {
                                        "children": [
                                            {
                                                "children": [],
                                                "depth": 2,
                                                "name": "transferFrom",
                                                "value": 40200
                                            },
                                            {
                                                "children": [],
                                                "depth": 2,
                                                "name": "balanceOf",
                                                "value": 2562
                                            },
                                            {
                                                "children": [],
                                                "depth": 2,
                                                "name": "getReserves",
                                                "value": 2504
                                            },
                                            {
                                                "children": [],
                                                "depth": 2,
                                                "name": "balanceOf",
                                                "value": 974
                                            },
                                            {
                                                "children": [
                                                    {
                                                        "children": [
                                                            {
                                                                "children": [],
                                                                "depth": 4,
                                                                "name": "transfer",
                                                                "value": 19628
                                                            }
                                                        ],
                                                        "depth": 3,
                                                        "name": "transfer",
                                                        "value": 26917
                                                    },
                                                    {
                                                        "children": [
                                                            {
                                                                "children": [],
                                                                "depth": 4,
                                                                "name": "balanceOf",
                                                                "value": 529
                                                            }
                                                        ],
                                                        "depth": 3,
                                                        "name": "balanceOf",
                                                        "value": 1315
                                                    },
                                                    {
                                                        "children": [],
                                                        "depth": 3,
                                                        "name": "balanceOf",
                                                        "value": 974
                                                    }
                                                ],
                                                "depth": 2,
                                                "name": "swap",
                                                "value": 63029
                                            },
                                            {
                                                "children": [],
                                                "depth": 2,
                                                "name": "getReserves",
                                                "value": 2504
                                            },
                                            {
                                                "children": [
                                                    {
                                                        "children": [],
                                                        "depth": 3,
                                                        "name": "balanceOf",
                                                        "value": 529
                                                    }
                                                ],
                                                "depth": 2,
                                                "name": "balanceOf",
                                                "value": 1315
                                            },
                                            {
                                                "children": [
                                                    {
                                                        "children": [],
                                                        "depth": 3,
                                                        "name": "transfer",
                                                        "value": 10853
                                                    },
                                                    {
                                                        "children": [
                                                            {
                                                                "children": [],
                                                                "depth": 4,
                                                                "name": "balanceOf",
                                                                "value": 529
                                                            }
                                                        ],
                                                        "depth": 3,
                                                        "name": "balanceOf",
                                                        "value": 1315
                                                    },
                                                    {
                                                        "children": [],
                                                        "depth": 3,
                                                        "name": "balanceOf",
                                                        "value": 562
                                                    }
                                                ],
                                                "depth": 2,
                                                "name": "swap",
                                                "value": 44053
                                            },
                                            {
                                                "children": [],
                                                "depth": 2,
                                                "name": "balanceOf",
                                                "value": 562
                                            }
                                        ],
                                        "depth": 1,
                                        "name": "swapExactTokensForTokens",
                                        "value": 181333
                                    }
                                ],
                                "depth": 0,
                                "name": "Executed Gas",
                                "value": 183517
                            }
                        ],
                        "depth": -1,
                        "name": "Actual Gas Used",
                        "value": 197353
                    },
                    {
                        "children": [],
                        "depth": -1,
                        "name": "Refunded Gas",
                        "value": 10400
                    }
                ],
                "depth": -2,
                "name": "Total Gas",
                "value": 207753
            }
        ],
        "isConfirmed": true,
        "mainTrace": [
            {
                "children": [
                    {
                        "children": [
                            {
                                "children": [
                                    {
                                        "children": [
                                            {
                                                "children": [],
                                                "depth": 3,
                                                "id": 3,
                                                "order": 3
                                            },
                                            {
                                                "children": [],
                                                "depth": 3,
                                                "id": 4,
                                                "order": 4
                                            }
                                        ],
                                        "depth": 2,
                                        "id": 2,
                                        "order": 2
                                    },
                                    {
                                        "children": [],
                                        "depth": 2,
                                        "id": 5,
                                        "order": 5
                                    },
                                    {
                                        "children": [],
                                        "depth": 2,
                                        "id": 6,
                                        "order": 6
                                    },
                                    {
                                        "children": [],
                                        "depth": 2,
                                        "id": 7,
                                        "order": 7
                                    },
                                    {
                                        "children": [
                                            {
                                                "children": [
                                                    {
                                                        "children": [
                                                            {
                                                                "children": [],
                                                                "depth": 5,
                                                                "id": 11,
                                                                "order": 11
                                                            }
                                                        ],
                                                        "depth": 4,
                                                        "id": 10,
                                                        "order": 10
                                                    }
                                                ],
                                                "depth": 3,
                                                "id": 9,
                                                "order": 9
                                            },
                                            {
                                                "children": [
                                                    {
                                                        "children": [],
                                                        "depth": 4,
                                                        "id": 13,
                                                        "order": 13
                                                    }
                                                ],
                                                "depth": 3,
                                                "id": 12,
                                                "order": 12
                                            },
                                            {
                                                "children": [],
                                                "depth": 3,
                                                "id": 14,
                                                "order": 14
                                            },
                                            {
                                                "children": [],
                                                "depth": 3,
                                                "id": 15,
                                                "order": 15
                                            },
                                            {
                                                "children": [],
                                                "depth": 3,
                                                "id": 16,
                                                "order": 16
                                            }
                                        ],
                                        "depth": 2,
                                        "id": 8,
                                        "order": 8
                                    },
                                    {
                                        "children": [],
                                        "depth": 2,
                                        "id": 17,
                                        "order": 17
                                    },
                                    {
                                        "children": [
                                            {
                                                "children": [],
                                                "depth": 3,
                                                "id": 19,
                                                "order": 19
                                            }
                                        ],
                                        "depth": 2,
                                        "id": 18,
                                        "order": 18
                                    },
                                    {
                                        "children": [
                                            {
                                                "children": [
                                                    {
                                                        "children": [],
                                                        "depth": 4,
                                                        "id": 22,
                                                        "order": 22
                                                    }
                                                ],
                                                "depth": 3,
                                                "id": 21,
                                                "order": 21
                                            },
                                            {
                                                "children": [
                                                    {
                                                        "children": [],
                                                        "depth": 4,
                                                        "id": 24,
                                                        "order": 24
                                                    }
                                                ],
                                                "depth": 3,
                                                "id": 23,
                                                "order": 23
                                            },
                                            {
                                                "children": [],
                                                "depth": 3,
                                                "id": 25,
                                                "order": 25
                                            },
                                            {
                                                "children": [],
                                                "depth": 3,
                                                "id": 26,
                                                "order": 26
                                            },
                                            {
                                                "children": [],
                                                "depth": 3,
                                                "id": 27,
                                                "order": 27
                                            }
                                        ],
                                        "depth": 2,
                                        "id": 20,
                                        "order": 20
                                    },
                                    {
                                        "children": [],
                                        "depth": 2,
                                        "id": 28,
                                        "order": 28
                                    }
                                ],
                                "depth": 1,
                                "id": 1,
                                "order": 1
                            }
                        ],
                        "depth": 0,
                        "id": 0,
                        "order": 0
                    }
                ],
                "depth": -1,
                "id": -1,
                "order": -1
            }
        ],
        "mainTraceNodeCount": 29,
        "parentIdMap": {
            "0": -1,
            "1": 0,
            "10": 9,
            "11": 10,
            "12": 8,
            "13": 12,
            "14": 8,
            "15": 8,
            "16": 8,
            "17": 1,
            "18": 1,
            "19": 18,
            "2": 1,
            "20": 1,
            "21": 20,
            "22": 21,
            "23": 20,
            "24": 23,
            "25": 20,
            "26": 20,
            "27": 20,
            "28": 1,
            "3": 2,
            "4": 2,
            "5": 1,
            "6": 1,
            "7": 1,
            "8": 1,
            "9": 8
        },
        "tidyTrace": [
            {
                "children": [
                    {
                        "children": [
                            {
                                "children": [
                                    {
                                        "children": [
                                            {
                                                "children": [],
                                                "depth": 3,
                                                "id": 3,
                                                "order": 3
                                            },
                                            {
                                                "children": [],
                                                "depth": 3,
                                                "id": 4,
                                                "order": 4
                                            }
                                        ],
                                        "depth": 2,
                                        "id": 2,
                                        "order": 2
                                    },
                                    {
                                        "children": [
                                            {
                                                "children": [
                                                    {
                                                        "children": [
                                                            {
                                                                "children": [],
                                                                "depth": 5,
                                                                "id": 11,
                                                                "order": 11
                                                            }
                                                        ],
                                                        "depth": 4,
                                                        "id": 10,
                                                        "order": 10
                                                    }
                                                ],
                                                "depth": 3,
                                                "id": 9,
                                                "order": 9
                                            },
                                            {
                                                "children": [],
                                                "depth": 3,
                                                "id": 15,
                                                "order": 15
                                            },
                                            {
                                                "children": [],
                                                "depth": 3,
                                                "id": 16,
                                                "order": 16
                                            }
                                        ],
                                        "depth": 2,
                                        "id": 8,
                                        "order": 8
                                    },
                                    {
                                        "children": [
                                            {
                                                "children": [
                                                    {
                                                        "children": [],
                                                        "depth": 4,
                                                        "id": 22,
                                                        "order": 22
                                                    }
                                                ],
                                                "depth": 3,
                                                "id": 21,
                                                "order": 21
                                            },
                                            {
                                                "children": [],
                                                "depth": 3,
                                                "id": 26,
                                                "order": 26
                                            },
                                            {
                                                "children": [],
                                                "depth": 3,
                                                "id": 27,
                                                "order": 27
                                            }
                                        ],
                                        "depth": 2,
                                        "id": 20,
                                        "order": 20
                                    }
                                ],
                                "depth": 1,
                                "id": 1,
                                "order": 1
                            }
                        ],
                        "depth": 0,
                        "id": 0,
                        "order": 0
                    }
                ],
                "depth": -1,
                "id": -1,
                "order": -1
            }
        ],
        "tidyTraceNodeCount": 16
    },
    "state_change": {
        "stateChanges": [
            {
                "address": "0x6fd7c6074f995e815f55d069ecee9250e16a2bc0",
                "erc": "ERC-20",
                "slots": [
                    {
                        "current": "0x000000000000000000000064ad13bebddb82c247b50928f7760446b36f165b94",
                        "key": "0x0000000000000000000000000000000000000000000000000000000000000009",
                        "prev": "0x000000000000000000000063d99ff846cc3ff2841328dab3c52548e82f7b0834"
                    },
                    {
                        "current": "0x00000000000000000000000000000000000000002ad73f09eb55ade4ce7ca4c4",
                        "key": "0x000000000000000000000000000000000000000000000000000000000000000a",
                        "prev": "0x00000000000000000000000000000000000000002a4090339abf7e8fa43c91fc"
                    },
                    {
                        "current": "0x63417c6b0000000000105a3da0a92632040c00000000000000000000d395120b",
                        "key": "0x0000000000000000000000000000000000000000000000000000000000000008",
                        "prev": "0x63417143000000000010012dd85cc625204700000000000000000000d82af0f0"
                    }
                ],
                "storageVariables": [
                    {
                        "name": "price0CumulativeLast",
                        "type": "uint256",
                        "value": {
                            "current": "147138259466541062392541935405517261220107974499220",
                            "prev": "145931080539452899753659137317574396618280625965108",
                            "typeTag": 1
                        }
                    },
                    {
                        "name": "price1CumulativeLast",
                        "type": "uint256",
                        "value": {
                            "current": "13258587155780406780198954180",
                            "prev": "13076422637660080499513397756",
                            "typeTag": 1
                        }
                    },
                    {
                        "name": "reserve0",
                        "type": "uint112",
                        "value": {
                            "current": "3549762059",
                            "prev": "3626692848",
                            "typeTag": 1
                        }
                    },
                    {
                        "name": "reserve1",
                        "type": "uint112",
                        "value": {
                            "current": "301650435264696419340",
                            "prev": "295232867040315646023",
                            "typeTag": 1
                        }
                    },
                    {
                        "name": "blockTimestampLast",
                        "type": "uint32",
                        "value": {
                            "current": "1665236075",
                            "prev": "1665233219",
                            "typeTag": 1
                        }
                    }
                ]
            },
            {
                "address": "0x7a809081f991ecfe0ab2727c7e90d2ad7c2e411e",
                "erc": "ERC-20",
                "slots": [
                    {
                        "current": "0x00000000000000c5e5f93baf7feb3b60828c06124649a592419270ab9efca09c",
                        "key": "0x0000000000000000000000000000000000000000000000000000000000000009",
                        "prev": "0x00000000000000c5e4326e092edeb895ba01f6208a19ac8ac68953013906ce9c"
                    },
                    {
                        "current": "0x00000000000000000000000000000000000000000000011d0499f1a9fd1e4129",
                        "key": "0x000000000000000000000000000000000000000000000000000000000000000a",
                        "prev": "0x00000000000000000000000000000000000000000000011d02b85d4963c36e05"
                    },
                    {
                        "current": "0x63417c6b04450b0ba8079fc2a50dda50a10500000000000000000464cb7f93fa",
                        "key": "0x0000000000000000000000000000000000000000000000000000000000000008",
                        "prev": "0x63417a9704450f7cfc5f8ff3e0bfa4e0274700000000000000000464c6e9b515"
                    }
                ],
                "storageVariables": [
                    {
                        "name": "price1CumulativeLast",
                        "type": "uint256",
                        "value": {
                            "current": "5257653622767209038121",
                            "prev": "5257518070160800574981",
                            "typeTag": 1
                        }
                    },
                    {
                        "name": "reserve0",
                        "type": "uint112",
                        "value": {
                            "current": "4830957376506",
                            "prev": "4830880445717",
                            "typeTag": 1
                        }
                    },
                    {
                        "name": "reserve1",
                        "type": "uint112",
                        "value": {
                            "current": "86599800054881179822113223123205",
                            "prev": "86601175001839040631425548166983",
                            "typeTag": 1
                        }
                    },
                    {
                        "name": "blockTimestampLast",
                        "type": "uint32",
                        "value": {
                            "current": "1665236075",
                            "prev": "1665235607",
                            "typeTag": 1
                        }
                    },
                    {
                        "name": "price0CumulativeLast",
                        "type": "uint256",
                        "value": {
                            "current": "1242227977325777257102381175087534668859942870612315830263964",
                            "prev": "1242184415822127281328330340164133525513118879655199269899932",
                            "typeTag": 1
                        }
                    }
                ]
            },
            {
                "address": "0xa0b86991c6218b36c1d19d4a2e9eb0ce3606eb48",
                "erc": "ERC-20",
                "slots": [
                    {
                        "current": "0x00000000000000000000000000000000000000000000000000000000d395120b",
                        "key": "0xa74a2402f937b584d73d4129e62ef658a08a860acdbf19bd30fb7d4595b4d823",
                        "prev": "0x00000000000000000000000000000000000000000000000000000000d82af0f0"
                    },
                    {
                        "current": "0x00000000000000000000000000000000000000000000000000000464cb7f93fa",
                        "key": "0xbab3151808b08d725f63d2762fd7c03066a30648a2e8caf679fca8b78f10342e",
                        "prev": "0x00000000000000000000000000000000000000000000000000000464c6e9b515"
                    }
                ],
                "storageVariables": [
                    {
                        "name": "balances",
                        "type": "mapping(address => uint256)",
                        "value": {
                            "pairs": [
                                {
                                    "key": "0x6fd7c6074f995e815f55d069ecee9250e16a2bc0",
                                    "value": {
                                        "current": "3549762059",
                                        "prev": "3626692848",
                                        "typeTag": 1
                                    }
                                },
                                {
                                    "key": "0x7a809081f991ecfe0ab2727c7e90d2ad7c2e411e",
                                    "value": {
                                        "current": "4830957376506",
                                        "prev": "4830880445717",
                                        "typeTag": 1
                                    }
                                }
                            ],
                            "typeTag": 4
                        }
                    }
                ]
            },
            {
                "address": "0xd43b6d32db8ccf64dbb0a62bceb112d7e874205a",
                "erc": "ERC-20",
                "slots": [
                    {
                        "current": "0x0000000000000000000000000000000000000000000000105a3da0a92632040c",
                        "key": "0xad25a85381ffe9c2e08ff4f150e046c419530edbeb0703726979bed50388264b",
                        "prev": "0x000000000000000000000000000000000000000000000010012dd85cc6252047"
                    },
                    {
                        "current": "0xfffffffffffffffffffffffffffffffffffffffffffffffc955bdeef5f05a77f",
                        "key": "0x5933f8b2999bfab6ab02edc38e5bf546902aa239a8cfed813b886321d6422b90",
                        "prev": "0xfffffffffffffffffffffffffffffffffffffffffffffffcee6ba73bbf128b44"
                    },
                    {
                        "current": "0x0000000000000000000000000000000000000000000000000000000000000000",
                        "key": "0xed565bf68e9a82599b908c54851f00e931015071d0669eca85fa4b5adc71441b",
                        "prev": "0x000000000000000000000000000000000000000000000000590fc84c600ce3c5"
                    }
                ],
                "storageVariables": [
                    {
                        "name": "_balances",
                        "type": "mapping(address => uint256)",
                        "value": {
                            "pairs": [
                                {
                                    "key": "0x58aef79778de31ced548d1a36ba5de29755defe4",
                                    "value": {
                                        "current": "0",
                                        "prev": "6417568224380773317",
                                        "typeTag": 1
                                    }
                                },
                                {
                                    "key": "0x6fd7c6074f995e815f55d069ecee9250e16a2bc0",
                                    "value": {
                                        "current": "301650435264696419340",
                                        "prev": "295232867040315646023",
                                        "typeTag": 1
                                    }
                                }
                            ],
                            "typeTag": 4
                        }
                    },
                    {
                        "name": "_allowances",
                        "type": "mapping(address => mapping(address => uint256))",
                        "value": {
                            "pairs": [
                                {
                                    "key": "0x58aef79778de31ced548d1a36ba5de29755defe4",
                                    "value": {
                                        "pairs": [
                                            {
                                                "key": "0x68b3465833fb72a70ecdf485e0e4c7bd8665fc45",
                                                "value": {
                                                    "current": "115792089237316195423570985008687907853269984665640564039394559472472496121727",
                                                    "prev": "115792089237316195423570985008687907853269984665640564039400977040696876895044",
                                                    "typeTag": 1
                                                }
                                            }
                                        ],
                                        "typeTag": 4
                                    }
                                }
                            ],
                            "typeTag": 4
                        }
                    }
                ]
            },
            {
                "address": "0xf3b9569f82b18aef890de263b84189bd33ebe452",
                "erc": "ERC-20",
                "slots": [
                    {
                        "current": "0x00000000000000000000000000000000000004450b0ba8079fc2a50dda50a105",
                        "key": "0x19e587846de114853da0434f2868d83a9cbb6ff362f003c883d9f8d25bc1b28b",
                        "prev": "0x00000000000000000000000000000000000004450f7cfc5f8ff3e0bfa4e02747"
                    },
                    {
                        "current": "0x000000000000000000000000000000000000000035a29ca4aad73d5b8e9f4940",
                        "key": "0xed565bf68e9a82599b908c54851f00e931015071d0669eca85fa4b5adc71441b",
                        "prev": "0x00000000000000000000000000000000000000003131484cbaa601a9c40fc2fe"
                    }
                ],
                "storageVariables": [
                    {
                        "name": "_balances",
                        "type": "mapping(address => uint256)",
                        "value": {
                            "pairs": [
                                {
                                    "key": "0x58aef79778de31ced548d1a36ba5de29755defe4",
                                    "value": {
                                        "current": "16599291230056589891620260160",
                                        "prev": "15224344272195780579295216382",
                                        "typeTag": 1
                                    }
                                },
                                {
                                    "key": "0x7a809081f991ecfe0ab2727c7e90d2ad7c2e411e",
                                    "value": {
                                        "current": "86599800054881179822113223123205",
                                        "prev": "86601175001839040631425548166983",
                                        "typeTag": 1
                                    }
                                }
                            ],
                            "typeTag": 4
                        }
                    }
                ]
            }
        ]
    }
}