{
    "balance_change": {
        "balanceChanges": [
            {
                "account": "0xd18e8d6f6b4d6e3878d17745a42d007465a78ecc",
                "assets": [
                    {
                        "address": "0xeeeeeeeeeeeeeeeeeeeeeeeeeeeeeeeeeeeeeeee",
                        "amount": "0.1",
                        "iconUrl": "https://assets.blocksec.com/image/1663669189317-3.png",
                        "isERC1155": false,
                        "isERC721": false,
                        "sign": false,
                        "value": "186.77500000000000001"
                    },
                    {
                        "address": "0x948c93e1417d354b991cf1098dd94210f9dba506",
                        "amount": "297,393,116,003.702739011981168397",
                        "iconUrl": "",
                        "isERC1155": false,
                        "isERC721": false,
                        "sign": true,
                        "value": "181.4040799"
                    }
                ]
            },
            {
                "account": "0x7f8fc15ba60db5d954702372641bfc4623adca74",
                "assets": [
                    {
                        "address": "0x948c93e1417d354b991cf1098dd94210f9dba506",
                        "amount": "300,397,086,872.427009103011281208",
                        "iconUrl": "",
                        "isERC1155": false,
                        "isERC721": false,
                        "sign": false,
                        "value": "182.3987677"
                    },
                    {
                        "address": "0xc02aaa39b223fe8d0a0e5c4f27ead9083c756cc2",
                        "amount": "0.099",
                        "iconUrl": "https://assets.blocksec.com/icon/f1cb2d02c471d545bbc7722daf3277fd852d98e63d118771af7047bd8256c516.png",
                        "isERC1155": false,
                        "isERC721": false,
                        "sign": true,
                        "value": "184.90725"
                    }
                ]
            },
            {
                "account": "0x948c93e1417d354b991cf1098dd94210f9dba506",
                "assets": [
                    {
                        "address": "0x948c93e1417d354b991cf1098dd94210f9dba506",
                        "amount": "3,003,970,868.724270091030112812",
                        "iconUrl": "",
                        "isERC1155": false,
                        "isERC721": false,
                        "sign": true,
                        "value": "1.81974945"
                    }
                ]
            },
            {
                "account": "0x96614b68e0b8ffac708343a3ab3a00d3e38134a9",
                "assets": [
                    {
                        "address": "0xeeeeeeeeeeeeeeeeeeeeeeeeeeeeeeeeeeeeeeee",
                        "amount": "0.001",
                        "iconUrl": "https://assets.blocksec.com/image/1663669189317-3.png",
                        "isERC1155": false,
                        "isERC721": false,
                        "sign": true,
                        "value": "1.86775"
                    }
                ]
            },
            {
                "account": "0xc02aaa39b223fe8d0a0e5c4f27ead9083c756cc2",
                "assets": [
                    {
                        "address": "0xeeeeeeeeeeeeeeeeeeeeeeeeeeeeeeeeeeeeeeee",
                        "amount": "0.099",
                        "iconUrl": "https://assets.blocksec.com/image/1663669189317-3.png",
                        "isERC1155": false,
                        "isERC721": false,
                        "sign": true,
                        "value": "184.90725"
                    },
                    {
                        "address": "0xc02aaa39b223fe8d0a0e5c4f27ead9083c756cc2",
                        "amount": "0.099",
                        "iconUrl": "https://assets.blocksec.com/icon/f1cb2d02c471d545bbc7722daf3277fd852d98e63d118771af7047bd8256c516.png",
                        "isERC1155": false,
                        "isERC721": false,
                        "sign": false,
                        "value": "184.90725"
                    }
                ]
            }
        ]
    },
    "profile": {
        "basic_info": {
            "baseFee": "37.209510915",
            "blockNumber": 17664148,
            "callData": "0x7ff36ab50000000000000000000000000000000000000003ba2d4e7473d90b78630740f50000000000000000000000000000000000000000000000000000000000000080000000000000000000000000d18e8d6f6b4d6e3878d17745a42d007465a78ecc0000000000000000000000000000000000000000000000000000000064ac2a7b0000000000000000000000000000000000000000000000000000000000000002000000000000000000000000c02aaa39b223fe8d0a0e5c4f27ead9083c756cc2000000000000000000000000948c93e1417d354b991cf1098dd94210f9dba506",
            "debugEnable": true,
            "errorInfo": "",
            "eventCount": 6,
            "feeRecipient": "0x690b9a9e9aa1c9db991c7721a92d351db4fac990",
            "formatValue": "0.1",
            "gasLimit": 222978,
            "gasPrice": "38",
            "gasUsed": 163115,
            "intTxnCount": 8,
            "internalRevert": false,
            "internalRevertMessage": "",
            "isContractCreation": false,
            "isFlashloan": false,
            "maxFee": "38",
            "nonce": 227,
            "overwritedBlockNumber": -1,
            "priorityFee": "38",
            "receiver": "0x2ec705d306b51e486b1bc0d6ebee708e0661add1",
            "revertMessage": "",
            "sender": "0xd18e8d6f6b4d6e3878d17745a42d007465a78ecc",
            "simulationEnable": true,
            "sourceTxnHash": "0xd9e07637093fd7f0b5ff2a762a16fea236ac62bface62986217a229ada50ec37",
            "status": true,
            "timestamp": "2023-07-10T15:28:11Z",
            "transactionFee": "0.00619837",
            "txnHash": "0xd9e07637093fd7f0b5ff2a762a16fea236ac62bface62986217a229ada50ec37",
            "txnIndex": 128,
            "type": 2,
            "value": "100000000000000000"
        },
        "fund_flow": [
            {
                "amount": "0.1",
                "from": "0xd18e8d6f6b4d6e3878d17745a42d007465a78ecc",
                "id": 1,
                "isERC1155": false,
                "isERC721": false,
                "isReverted": false,
                "order": 1,
                "to": "0x2ec705d306b51e486b1bc0d6ebee708e0661add1",
                "token": "0xeeeeeeeeeeeeeeeeeeeeeeeeeeeeeeeeeeeeeeee"
            },
            {
                "amount": "0.099",
                "from": "0x2ec705d306b51e486b1bc0d6ebee708e0661add1",
                "id": 2,
                "isERC1155": false,
                "isERC721": false,
                "isReverted": false,
                "order": 2,
                "to": "0xc02aaa39b223fe8d0a0e5c4f27ead9083c756cc2",
                "token": "0xeeeeeeeeeeeeeeeeeeeeeeeeeeeeeeeeeeeeeeee"
            },
            {
                "amount": "0.099",
                "from": "0xc02aaa39b223fe8d0a0e5c4f27ead9083c756cc2",
                "id": 3,
                "isERC1155": false,
                "isERC721": false,
                "isReverted": false,
                "order": 3,
                "to": "0x2ec705d306b51e486b1bc0d6ebee708e0661add1",
                "token": "0xc02aaa39b223fe8d0a0e5c4f27ead9083c756cc2"
            },
            {
                "amount": "0.099",
                "from": "0x2ec705d306b51e486b1bc0d6ebee708e0661add1",
                "id": 4,
                "isERC1155": false,
                "isERC721": false,
                "isReverted": false,
                "order": 4,
                "to": "0x7f8fc15ba60db5d954702372641bfc4623adca74",
                "token": "0xc02aaa39b223fe8d0a0e5c4f27ead9083c756cc2"
            },
            {
                "amount": "3,003,970,868.724270091030112812",
                "from": "0x7f8fc15ba60db5d954702372641bfc4623adca74",
                "id": 5,
                "isERC1155": false,
                "isERC721": false,
                "isReverted": false,
                "order": 5,
                "to": "0x948c93e1417d354b991cf1098dd94210f9dba506",
                "token": "0x948c93e1417d354b991cf1098dd94210f9dba506"
            },
            {
                "amount": "297,393,116,003.702739011981168397",
                "from": "0x7f8fc15ba60db5d954702372641bfc4623adca74",
                "id": 6,
                "isERC1155": false,
                "isERC721": false,
                "isReverted": false,
                "order": 6,
                "to": "0xd18e8d6f6b4d6e3878d17745a42d007465a78ecc",
                "token": "0x948c93e1417d354b991cf1098dd94210f9dba506"
            },
            {
                "amount": "0.001",
                "from": "0x2ec705d306b51e486b1bc0d6ebee708e0661add1",
                "id": 7,
                "isERC1155": false,
                "isERC721": false,
                "isReverted": false,
                "order": 7,
                "to": "0x96614b68e0b8ffac708343a3ab3a00d3e38134a9",
                "token": "0xeeeeeeeeeeeeeeeeeeeeeeeeeeeeeeeeeeeeeeee"
            }
        ],
        "token_infos": [
            {
                "address": "0x948c93e1417d354b991cf1098dd94210f9dba506",
                "decimals": 18
            },
            {
                "address": "0xc02aaa39b223fe8d0a0e5c4f27ead9083c756cc2",
                "decimals": 18
            },
            {
                "address": "0xeeeeeeeeeeeeeeeeeeeeeeeeeeeeeeeeeeeeeeee",
                "decimals": 18
            }
        ]
    },
    "address_label": {
        "labels": [
            {
                "address": "0x0000000000000000000000000000000000000001",
                "label": "Precompiled"
            },
            {
                "address": "0x0000000000000000000000000000000000000002",
                "label": "Precompiled"
            },
            {
                "address": "0x0000000000000000000000000000000000000003",
                "label": "Precompiled"
            },
            {
                "address": "0x0000000000000000000000000000000000000004",
                "label": "Precompiled"
            },
            {
                "address": "0xeeeeeeeeeeeeeeeeeeeeeeeeeeeeeeeeeeeeeeee",
                "label": "Ether"
            },
            {
                "address": "0x948c93e1417d354b991cf1098dd94210f9dba506",
                "label": "Pepe Inu (PEPINU)"
            },
            {
                "address": "0x7f8fc15ba60db5d954702372641bfc4623adca74",
                "label": "Uniswap V2: PEPINU 11"
            },
            {
                "address": "0xc02aaa39b223fe8d0a0e5c4f27ead9083c756cc2",
                "label": "Wrapped Ether (WETH)"
            }
        ]
    },
    "trace": {
        "accountLabels": null,
        "dataMap": {
            "-1": {
                "invocation": {
                    "address": "0xd18e8d6f6b4d6e3878d17745a42d007465a78ecc",
                    "callData": "",
                    "decodedMethod": null,
                    "errorInfo": "",
                    "fromAddress": "",
                    "gasUsed": 0,
                    "id": -1,
                    "methodDecoded": false,
                    "operation": "",
                    "output": "",
                    "revert": false,
                    "revertMessage": "",
                    "selector": "",
                    "status": false,
                    "value": ""
                },
                "nodeType": 0
            },
            "0": {
                "invocation": {
                    "address": "0x2ec705d306b51e486b1bc0d6ebee708e0661add1",
                    "callData": "0x0000000000000000000000000000000000000003ba2d4e7473d90b78630740f50000000000000000000000000000000000000000000000000000000000000080000000000000000000000000d18e8d6f6b4d6e3878d17745a42d007465a78ecc0000000000000000000000000000000000000000000000000000000064ac2a7b0000000000000000000000000000000000000000000000000000000000000002000000000000000000000000c02aaa39b223fe8d0a0e5c4f27ead9083c756cc2000000000000000000000000948c93e1417d354b991cf1098dd94210f9dba506",
                    "decodedMethod": {
                        "callParams": [
                            {
                                "name": "amountOutMin",
                                "type": "uint256",
                                "value": "295,303,471,524,201,546,254,930,886,901"
                            },
                            {
                                "name": "path",
                                "type": "address[]",
                                "value": [
                                    "0xc02aaa39b223fe8d0a0e5c4f27ead9083c756cc2",
                                    "0x948c93e1417d354b991cf1098dd94210f9dba506"
                                ]
                            },
                            {
                                "name": "to",
                                "type": "address",
                                "value": "0xd18e8d6f6b4d6e3878d17745a42d007465a78ecc"
                            },
                            {
                                "name": "deadline",
                                "type": "uint256",
                                "value": "1,689,004,667"
                            }
                        ],
                        "constructorArguments": "",
                        "name": "swapExactETHForTokens",
                        "returnParams": [
                            {
                                "name": "amounts",
                                "type": "uint256[]",
                                "value": [
                                    "99,000,000,000,000,000",
                                    "300,397,086,872,427,009,103,011,281,208"
                                ]
                            }
                        ],
                        "signature": "swapExactETHForTokens(uint256,address[],address,uint256)"
                    },
                    "errorInfo": "",
                    "fromAddress": "0xd18e8d6f6b4d6e3878d17745a42d007465a78ecc",
                    "gasUsed": 163115,
                    "id": 0,
                    "methodDecoded": true,
                    "operation": "CALL",
                    "output": "0x00000000000000000000000000000000000000000000000000000000000000200000000000000000000000000000000000000000000000000000000000000002000000000000000000000000000000000000000000000000015fb7f9b8c380000000000000000000000000000000000000000003caa2a575c525d2d1d0387938",
                    "revert": false,
                    "revertMessage": "",
                    "selector": "0x7ff36ab5",
                    "status": true,
                    "value": "0.1"
                },
                "nodeType": 0
            },
            "1": {
                "invocation": {
                    "address": "0x7f8fc15ba60db5d954702372641bfc4623adca74",
                    "callData": "0x",
                    "decodedMethod": {
                        "callParams": [],
                        "constructorArguments": "",
                        "name": "getReserves",
                        "returnParams": [
                            {
                                "name": "_reserve0",
                                "type": "uint112",
                                "value": "129,968,793,948,442,110,555,249,000,828,877"
                            },
                            {
                                "name": "_reserve1",
                                "type": "uint112",
                                "value": "42,605,805,231,602,869,964"
                            },
                            {
                                "name": "_blockTimestampLast",
                                "type": "uint32",
                                "value": "1,689,002,867"
                            }
                        ],
                        "signature": "getReserves()"
                    },
                    "errorInfo": "",
                    "fromAddress": "0x2ec705d306b51e486b1bc0d6ebee708e0661add1",
                    "gasUsed": 2504,
                    "id": 1,
                    "methodDecoded": true,
                    "operation": "STATICCALL",
                    "output": "0x00000000000000000000000000000000000006686fd2974f17454dc46ce7cfcd0000000000000000000000000000000000000000000000024f463a1f772b26cc0000000000000000000000000000000000000000000000000000000064ac2373",
                    "revert": false,
                    "revertMessage": "",
                    "selector": "0x0902f1ac",
                    "status": true,
                    "value": "0"
                },
                "nodeType": 0
            },
            "10": {
                "invocation": {
                    "address": "0x948c93e1417d354b991cf1098dd94210f9dba506",
                    "callData": "0x0000000000000000000000007f8fc15ba60db5d954702372641bfc4623adca74",
                    "decodedMethod": {
                        "callParams": [
                            {
                                "name": "account",
                                "type": "address",
                                "value": "0x7f8fc15ba60db5d954702372641bfc4623adca74"
                            }
                        ],
                        "constructorArguments": "",
                        "name": "balanceOf",
                        "returnParams": [
                            {
                                "decimalAvailable": true,
                                "name": "",
                                "type": "uint256",
                                "value": "129,668,396,861,569,683,546,145,989,547,669"
                            }
                        ],
                        "signature": "balanceOf(address)"
                    },
                    "errorInfo": "",
                    "fromAddress": "0x7f8fc15ba60db5d954702372641bfc4623adca74",
                    "gasUsed": 599,
                    "id": 10,
                    "methodDecoded": true,
                    "operation": "STATICCALL",
                    "output": "0x0000000000000000000000000000000000000664a52ff1d9521f7af29caf5695",
                    "revert": false,
                    "revertMessage": "",
                    "selector": "0x70a08231",
                    "status": true,
                    "value": "0"
                },
                "nodeType": 0
            },
            "11": {
                "invocation": {
                    "address": "0xc02aaa39b223fe8d0a0e5c4f27ead9083c756cc2",
                    "callData": "0x0000000000000000000000007f8fc15ba60db5d954702372641bfc4623adca74",
                    "decodedMethod": {
                        "callParams": [
                            {
                                "name": "",
                                "type": "address",
                                "value": "0x7f8fc15ba60db5d954702372641bfc4623adca74"
                            }
                        ],
                        "constructorArguments": "",
                        "name": "balanceOf",
                        "returnParams": [
                            {
                                "decimalAvailable": true,
                                "name": "",
                                "type": "uint256",
                                "value": "42,704,805,231,602,869,964"
                            }
                        ],
                        "signature": "balanceOf(address)"
                    },
                    "errorInfo": "",
                    "fromAddress": "0x7f8fc15ba60db5d954702372641bfc4623adca74",
                    "gasUsed": 534,
                    "id": 11,
                    "methodDecoded": true,
                    "operation": "STATICCALL",
                    "output": "0x00000000000000000000000000000000000000000000000250a5f2192feea6cc",
                    "revert": false,
                    "revertMessage": "",
                    "selector": "0x70a08231",
                    "status": true,
                    "value": "0"
                },
                "nodeType": 0
            },
            "12": {
                "event": {
                    "contract": "0x7f8fc15ba60db5d954702372641bfc4623adca74",
                    "decodedLog": {
                        "name": "Sync",
                        "params": [
                            {
                                "name": "reserve0",
                                "type": "uint112",
                                "value": "129,668,396,861,569,683,546,145,989,547,669"
                            },
                            {
                                "name": "reserve1",
                                "type": "uint112",
                                "value": "42,704,805,231,602,869,964"
                            }
                        ],
                        "signature": "Sync(uint112,uint112)"
                    },
                    "id": 12,
                    "logData": "0x0000000000000000000000000000000000000664a52ff1d9521f7af29caf569500000000000000000000000000000000000000000000000250a5f2192feea6cc",
                    "logDecoded": true,
                    "operation": "EVENT",
                    "revert": false,
                    "status": true,
                    "topics": [
                        "0x1c411e9a96e071241c2f21f7726b17ae89e3cab4c78be50e062b03a9fffbbad1"
                    ]
                },
                "nodeType": 1
            },
            "13": {
                "event": {
                    "contract": "0x7f8fc15ba60db5d954702372641bfc4623adca74",
                    "decodedLog": {
                        "name": "Swap",
                        "params": [
                            {
                                "name": "sender",
                                "type": "address",
                                "value": "0x2ec705d306b51e486b1bc0d6ebee708e0661add1"
                            },
                            {
                                "name": "to",
                                "type": "address",
                                "value": "0xd18e8d6f6b4d6e3878d17745a42d007465a78ecc"
                            },
                            {
                                "name": "amount0In",
                                "type": "uint256",
                                "value": "0"
                            },
                            {
                                "name": "amount1In",
                                "type": "uint256",
                                "value": "99,000,000,000,000,000"
                            },
                            {
                                "name": "amount0Out",
                                "type": "uint256",
                                "value": "300,397,086,872,427,009,103,011,281,208"
                            },
                            {
                                "name": "amount1Out",
                                "type": "uint256",
                                "value": "0"
                            }
                        ],
                        "signature": "Swap(address,uint256,uint256,uint256,uint256,address)"
                    },
                    "id": 13,
                    "logData": "0x0000000000000000000000000000000000000000000000000000000000000000000000000000000000000000000000000000000000000000015fb7f9b8c380000000000000000000000000000000000000000003caa2a575c525d2d1d03879380000000000000000000000000000000000000000000000000000000000000000",
                    "logDecoded": true,
                    "operation": "EVENT",
                    "revert": false,
                    "status": true,
                    "topics": [
                        "0xd78ad95fa46c994b6551d0da85fc275fe613ce37657fb8d5e3d130840159d822",
                        "0x0000000000000000000000002ec705d306b51e486b1bc0d6ebee708e0661add1",
                        "0x000000000000000000000000d18e8d6f6b4d6e3878d17745a42d007465a78ecc"
                    ]
                },
                "nodeType": 1
            },
            "14": {
                "invocation": {
                    "address": "0x96614b68e0b8ffac708343a3ab3a00d3e38134a9",
                    "callData": "0x",
                    "decodedMethod": null,
                    "errorInfo": "",
                    "fromAddress": "0x2ec705d306b51e486b1bc0d6ebee708e0661add1",
                    "gasUsed": 0,
                    "id": 14,
                    "methodDecoded": false,
                    "operation": "CALL",
                    "output": "",
                    "revert": false,
                    "revertMessage": "",
                    "selector": "fallback",
                    "status": true,
                    "value": "0.001"
                },
                "nodeType": 0
            },
            "2": {
                "invocation": {
                    "address": "0xc02aaa39b223fe8d0a0e5c4f27ead9083c756cc2",
                    "callData": "0x",
                    "decodedMethod": {
                        "callParams": [],
                        "constructorArguments": "",
                        "name": "deposit",
                        "returnParams": [],
                        "signature": "deposit()"
                    },
                    "errorInfo": "",
                    "fromAddress": "0x2ec705d306b51e486b1bc0d6ebee708e0661add1",
                    "gasUsed": 23974,
                    "id": 2,
                    "methodDecoded": true,
                    "operation": "CALL",
                    "output": "",
                    "revert": false,
                    "revertMessage": "",
                    "selector": "0xd0e30db0",
                    "status": true,
                    "value": "0.099"
                },
                "nodeType": 0
            },
            "3": {
                "event": {
                    "contract": "0xc02aaa39b223fe8d0a0e5c4f27ead9083c756cc2",
                    "decodedLog": {
                        "name": "Deposit",
                        "params": [
                            {
                                "name": "dst",
                                "type": "address",
                                "value": "0x2ec705d306b51e486b1bc0d6ebee708e0661add1"
                            },
                            {
                                "name": "wad",
                                "type": "uint256",
                                "value": "99,000,000,000,000,000"
                            }
                        ],
                        "signature": "Deposit(address,uint256)"
                    },
                    "id": 3,
                    "logData": "0x000000000000000000000000000000000000000000000000015fb7f9b8c38000",
                    "logDecoded": true,
                    "operation": "EVENT",
                    "revert": false,
                    "status": true,
                    "topics": [
                        "0xe1fffcc4923d04b559f4d29a8bfc6cda04eb5b0d3c460751c2402c5c5cc9109c",
                        "0x0000000000000000000000002ec705d306b51e486b1bc0d6ebee708e0661add1"
                    ]
                },
                "nodeType": 1
            },
            "4": {
                "invocation": {
                    "address": "0xc02aaa39b223fe8d0a0e5c4f27ead9083c756cc2",
                    "callData": "0x0000000000000000000000007f8fc15ba60db5d954702372641bfc4623adca74000000000000000000000000000000000000000000000000015fb7f9b8c38000",
                    "decodedMethod": {
                        "callParams": [
                            {
                                "name": "dst",
                                "type": "address",
                                "value": "0x7f8fc15ba60db5d954702372641bfc4623adca74"
                            },
                            {
                                "decimalAvailable": true,
                                "name": "wad",
                                "type": "uint256",
                                "value": "99,000,000,000,000,000"
                            }
                        ],
                        "constructorArguments": "",
                        "name": "transfer",
                        "returnParams": [
                            {
                                "name": "",
                                "type": "bool",
                                "value": true
                            }
                        ],
                        "signature": "transfer(address,uint256)"
                    },
                    "errorInfo": "",
                    "fromAddress": "0x2ec705d306b51e486b1bc0d6ebee708e0661add1",
                    "gasUsed": 8062,
                    "id": 4,
                    "methodDecoded": true,
                    "operation": "CALL",
                    "output": "0x0000000000000000000000000000000000000000000000000000000000000001",
                    "revert": false,
                    "revertMessage": "",
                    "selector": "0xa9059cbb",
                    "status": true,
                    "value": "0"
                },
                "nodeType": 0
            },
            "5": {
                "event": {
                    "contract": "0xc02aaa39b223fe8d0a0e5c4f27ead9083c756cc2",
                    "decodedLog": {
                        "name": "Transfer",
                        "params": [
                            {
                                "name": "src",
                                "type": "address",
                                "value": "0x2ec705d306b51e486b1bc0d6ebee708e0661add1"
                            },
                            {
                                "name": "dst",
                                "type": "address",
                                "value": "0x7f8fc15ba60db5d954702372641bfc4623adca74"
                            },
                            {
                                "decimalAvailable": true,
                                "name": "wad",
                                "type": "uint256",
                                "value": "99,000,000,000,000,000"
                            }
                        ],
                        "signature": "Transfer(address,address,uint256)"
                    },
                    "id": 5,
                    "logData": "0x000000000000000000000000000000000000000000000000015fb7f9b8c38000",
                    "logDecoded": true,
                    "operation": "EVENT",
                    "revert": false,
                    "status": true,
                    "topics": [
                        "0xddf252ad1be2c89b69c2b068fc378daa952ba7f163c4a11628f55a4df523b3ef",
                        "0x0000000000000000000000002ec705d306b51e486b1bc0d6ebee708e0661add1",
                        "0x0000000000000000000000007f8fc15ba60db5d954702372641bfc4623adca74"
                    ]
                },
                "nodeType": 1
            },
            "6": {
                "invocation": {
                    "address": "0x7f8fc15ba60db5d954702372641bfc4623adca74",
                    "callData": "0x0000000000000000000000000000000000000003caa2a575c525d2d1d03879380000000000000000000000000000000000000000000000000000000000000000000000000000000000000000d18e8d6f6b4d6e3878d17745a42d007465a78ecc00000000000000000000000000000000000000000000000000000000000000800000000000000000000000000000000000000000000000000000000000000000",
                    "decodedMethod": {
                        "callParams": [
                            {
                                "name": "amount0Out",
                                "type": "uint256",
                                "value": "300,397,086,872,427,009,103,011,281,208"
                            },
                            {
                                "name": "amount1Out",
                                "type": "uint256",
                                "value": "0"
                            },
                            {
                                "name": "to",
                                "type": "address",
                                "value": "0xd18e8d6f6b4d6e3878d17745a42d007465a78ecc"
                            },
                            {
                                "name": "data",
                                "type": "bytes",
                                "value": "0x"
                            }
                        ],
                        "constructorArguments": "",
                        "name": "swap",
                        "returnParams": [],
                        "signature": "swap(uint256,uint256,address,bytes)"
                    },
                    "errorInfo": "",
                    "fromAddress": "0x2ec705d306b51e486b1bc0d6ebee708e0661add1",
                    "gasUsed": 91073,
                    "id": 6,
                    "methodDecoded": true,
                    "operation": "CALL",
                    "output": "",
                    "revert": false,
                    "revertMessage": "",
                    "selector": "0x022c0d9f",
                    "status": true,
                    "value": "0"
                },
                "nodeType": 0
            },
            "7": {
                "invocation": {
                    "address": "0x948c93e1417d354b991cf1098dd94210f9dba506",
                    "callData": "0x000000000000000000000000d18e8d6f6b4d6e3878d17745a42d007465a78ecc0000000000000000000000000000000000000003caa2a575c525d2d1d0387938",
                    "decodedMethod": {
                        "callParams": [
                            {
                                "name": "recipient",
                                "type": "address",
                                "value": "0xd18e8d6f6b4d6e3878d17745a42d007465a78ecc"
                            },
                            {
                                "decimalAvailable": true,
                                "name": "amount",
                                "type": "uint256",
                                "value": "300,397,086,872,427,009,103,011,281,208"
                            }
                        ],
                        "constructorArguments": "",
                        "name": "transfer",
                        "returnParams": [
                            {
                                "name": "",
                                "type": "bool",
                                "value": true
                            }
                        ],
                        "signature": "transfer(address,uint256)"
                    },
                    "errorInfo": "",
                    "fromAddress": "0x7f8fc15ba60db5d954702372641bfc4623adca74",
                    "gasUsed": 56117,
                    "id": 7,
                    "methodDecoded": true,
                    "operation": "CALL",
                    "output": "0x0000000000000000000000000000000000000000000000000000000000000001",
                    "revert": false,
                    "revertMessage": "",
                    "selector": "0xa9059cbb",
                    "status": true,
                    "value": "0"
                },
                "nodeType": 0
            },
            "8": {
                "event": {
                    "contract": "0x948c93e1417d354b991cf1098dd94210f9dba506",
                    "decodedLog": {
                        "name": "Transfer",
                        "params": [
                            {
                                "name": "from",
                                "type": "address",
                                "value": "0x7f8fc15ba60db5d954702372641bfc4623adca74"
                            },
                            {
                                "name": "to",
                                "type": "address",
                                "value": "0x948c93e1417d354b991cf1098dd94210f9dba506"
                            },
                            {
                                "decimalAvailable": true,
                                "name": "value",
                                "type": "uint256",
                                "value": "3,003,970,868,724,270,091,030,112,812"
                            }
                        ],
                        "signature": "Transfer(address,address,uint256)"
                    },
                    "id": 8,
                    "logData": "0x000000000000000000000000000000000000000009b4d3931902f0302d9a2a2c",
                    "logDecoded": true,
                    "operation": "EVENT",
                    "revert": false,
                    "status": true,
                    "topics": [
                        "0xddf252ad1be2c89b69c2b068fc378daa952ba7f163c4a11628f55a4df523b3ef",
                        "0x0000000000000000000000007f8fc15ba60db5d954702372641bfc4623adca74",
                        "0x000000000000000000000000948c93e1417d354b991cf1098dd94210f9dba506"
                    ]
                },
                "nodeType": 1
            },
            "9": {
                "event": {
                    "contract": "0x948c93e1417d354b991cf1098dd94210f9dba506",
                    "decodedLog": {
                        "name": "Transfer",
                        "params": [
                            {
                                "name": "from",
                                "type": "address",
                                "value": "0x7f8fc15ba60db5d954702372641bfc4623adca74"
                            },
                            {
                                "name": "to",
                                "type": "address",
                                "value": "0xd18e8d6f6b4d6e3878d17745a42d007465a78ecc"
                            },
                            {
                                "decimalAvailable": true,
                                "name": "value",
                                "type": "uint256",
                                "value": "297,393,116,003,702,739,011,981,168,396"
                            }
                        ],
                        "signature": "Transfer(address,address,uint256)"
                    },
                    "id": 9,
                    "logData": "0x0000000000000000000000000000000000000003c0edd1e2ac22e2a1a29e4f0c",
                    "logDecoded": true,
                    "operation": "EVENT",
                    "revert": false,
                    "status": true,
                    "topics": [
                        "0xddf252ad1be2c89b69c2b068fc378daa952ba7f163c4a11628f55a4df523b3ef",
                        "0x0000000000000000000000007f8fc15ba60db5d954702372641bfc4623adca74",
                        "0x000000000000000000000000d18e8d6f6b4d6e3878d17745a42d007465a78ecc"
                    ]
                },
                "nodeType": 1
            }
        },
        "gasFlame": [
            {
                "children": [
                    {
                        "children": [
                            {
                                "children": [],
                                "depth": 0,
                                "name": "Initial Gas",
                                "value": 22896
                            },
                            {
                                "children": [
                                    {
                                        "children": [],
                                        "depth": 1,
                                        "name": "getReserves",
                                        "value": 2504
                                    },
                                    {
                                        "children": [],
                                        "depth": 1,
                                        "name": "deposit",
                                        "value": 23974
                                    },
                                    {
                                        "children": [],
                                        "depth": 1,
                                        "name": "transfer",
                                        "value": 8062
                                    },
                                    {
                                        "children": [
                                            {
                                                "children": [],
                                                "depth": 2,
                                                "name": "transfer",
                                                "value": 56117
                                            },
                                            {
                                                "children": [],
                                                "depth": 2,
                                                "name": "balanceOf",
                                                "value": 599
                                            },
                                            {
                                                "children": [],
                                                "depth": 2,
                                                "name": "balanceOf",
                                                "value": 534
                                            }
                                        ],
                                        "depth": 1,
                                        "name": "swap",
                                        "value": 91073
                                    },
                                    {
                                        "children": [],
                                        "depth": 1,
                                        "name": "fallback",
                                        "value": 0
                                    }
                                ],
                                "depth": 0,
                                "name": "Executed Gas",
                                "value": 162919
                            }
                        ],
                        "depth": -1,
                        "name": "Actual Gas Used",
                        "value": 163115
                    },
                    {
                        "children": [],
                        "depth": -1,
                        "name": "Refunded Gas",
                        "value": 22700
                    }
                ],
                "depth": -2,
                "name": "Total Gas",
                "value": 185815
            }
        ],
        "isConfirmed": true,
        "mainTrace": [
            {
                "children": [
                    {
                        "children": [
                            {
                                "children": [],
                                "depth": 1,
                                "id": 1,
                                "order": 1
                            },
                            {
                                "children": [
                                    {
                                        "children": [],
                                        "depth": 2,
                                        "id": 3,
                                        "order": 3
                                    }
                                ],
                                "depth": 1,
                                "id": 2,
                                "order": 2
                            },
                            {
                                "children": [
                                    {
                                        "children": [],
                                        "depth": 2,
                                        "id": 5,
                                        "order": 5
                                    }
                                ],
                                "depth": 1,
                                "id": 4,
                                "order": 4
                            },
                            {
                                "children": [
                                    {
                                        "children": [
                                            {
                                                "children": [],
                                                "depth": 3,
                                                "id": 8,
                                                "order": 8
                                            },
                                            {
                                                "children": [],
                                                "depth": 3,
                                                "id": 9,
                                                "order": 9
                                            }
                                        ],
                                        "depth": 2,
                                        "id": 7,
                                        "order": 7
                                    },
                                    {
                                        "children": [],
                                        "depth": 2,
                                        "id": 10,
                                        "order": 10
                                    },
                                    {
                                        "children": [],
                                        "depth": 2,
                                        "id": 11,
                                        "order": 11
                                    },
                                    {
                                        "children": [],
                                        "depth": 2,
                                        "id": 12,
                                        "order": 12
                                    },
                                    {
                                        "children": [],
                                        "depth": 2,
                                        "id": 13,
                                        "order": 13
                                    }
                                ],
                                "depth": 1,
                                "id": 6,
                                "order": 6
                            },
                            {
                                "children": [],
                                "depth": 1,
                                "id": 14,
                                "order": 14
                            }
                        ],
                        "depth": 0,
                        "id": 0,
                        "order": 0
                    }
                ],
                "depth": -1,
                "id": -1,
                "order": -1
            }
        ],
        "mainTraceNodeCount": 15,
        "parentIdMap": {
            "0": -1,
            "1": 0,
            "10": 6,
            "11": 6,
            "12": 6,
            "13": 6,
            "14": 0,
            "2": 0,
            "3": 2,
            "4": 0,
            "5": 4,
            "6": 0,
            "7": 6,
            "8": 7,
            "9": 7
        },
        "tidyTrace": [
            {
                "children": [
                    {
                        "children": [
                            {
                                "children": [
                                    {
                                        "children": [],
                                        "depth": 2,
                                        "id": 3,
                                        "order": 3
                                    }
                                ],
                                "depth": 1,
                                "id": 2,
                                "order": 2
                            },
                            {
                                "children": [
                                    {
                                        "children": [],
                                        "depth": 2,
                                        "id": 5,
                                        "order": 5
                                    }
                                ],
                                "depth": 1,
                                "id": 4,
                                "order": 4
                            },
                            {
                                "children": [
                                    {
                                        "children": [
                                            {
                                                "children": [],
                                                "depth": 3,
                                                "id": 8,
                                                "order": 8
                                            },
                                            {
                                                "children": [],
                                                "depth": 3,
                                                "id": 9,
                                                "order": 9
                                            }
                                        ],
                                        "depth": 2,
                                        "id": 7,
                                        "order": 7
                                    },
                                    {
                                        "children": [],
                                        "depth": 2,
                                        "id": 12,
                                        "order": 12
                                    },
                                    {
                                        "children": [],
                                        "depth": 2,
                                        "id": 13,
                                        "order": 13
                                    }
                                ],
                                "depth": 1,
                                "id": 6,
                                "order": 6
                            },
                            {
                                "children": [],
                                "depth": 1,
                                "id": 14,
                                "order": 14
                            }
                        ],
                        "depth": 0,
                        "id": 0,
                        "order": 0
                    }
                ],
                "depth": -1,
                "id": -1,
                "order": -1
            }
        ],
        "tidyTraceNodeCount": 12
    },
    "state_change": {
        "stateChanges": [
            {
                "address": "0x2ec705d306b51e486b1bc0d6ebee708e0661add1",
                "erc": "",
                "slots": [
                    {
                        "current": "0x000000000000000000000000000000000000000000000580eb25acbb2686f9a1",
                        "key": "0x0000000000000000000000000000000000000000000000000000000000000001",
                        "prev": "0x000000000000000000000000000000000000000000000580e9c5f4c16dc379a1"
                    }
                ],
                "storageVariables": []
            },
            {
                "address": "0x7f8fc15ba60db5d954702372641bfc4623adca74",
                "erc": "ERC-20",
                "slots": [
                    {
                        "current": "0x64ac238b00000000000250a5f2192feea6cc0664a52ff1d9521f7af29caf5695",
                        "key": "0x0000000000000000000000000000000000000000000000000000000000000008",
                        "prev": "0x64ac23730000000000024f463a1f772b26cc06686fd2974f17454dc46ce7cfcd"
                    },
                    {
                        "current": "0x0000000000000000000000000000000000000000001110bc11fd5541562a6d4c",
                        "key": "0x0000000000000000000000000000000000000000000000000000000000000009",
                        "prev": "0x0000000000000000000000000000000000000000001108158b69d6d3ce443c7c"
                    },
                    {
                        "current": "0x00000000000000000000008b5b64ed879377575e8c1440e6913c0430a612c68c",
                        "key": "0x000000000000000000000000000000000000000000000000000000000000000a",
                        "prev": "0x00000000000000000000008b18cef57df59b5a0a3fd66db737d0e2fac2d20514"
                    }
                ],
                "storageVariables": [
                    {
                        "name": "reserve0",
                        "type": "uint112",
                        "value": {
                            "current": "129668396861569683546145989547669",
                            "prev": "129968793948442110555249000828877",
                            "typeTag": 1
                        }
                    },
                    {
                        "name": "reserve1",
                        "type": "uint112",
                        "value": {
                            "current": "42704805231602869964",
                            "prev": "42605805231602869964",
                            "typeTag": 1
                        }
                    },
                    {
                        "name": "blockTimestampLast",
                        "type": "uint32",
                        "value": {
                            "current": "1689002891",
                            "prev": "1689002867",
                            "typeTag": 1
                        }
                    },
                    {
                        "name": "price0CumulativeLast",
                        "type": "uint256",
                        "value": {
                            "current": "20630766081346474548555084",
                            "prev": "20589915292733850045922428",
                            "typeTag": 1
                        }
                    },
                    {
                        "name": "price1CumulativeLast",
                        "type": "uint256",
                        "value": {
                            "current": "203670496515406229621603692687906856172683103749772",
                            "prev": "203290358706377991724847959939170562397385721513236",
                            "typeTag": 1
                        }
                    }
                ]
            },
            {
                "address": "0x948c93e1417d354b991cf1098dd94210f9dba506",
                "erc": "ERC-20",
                "slots": [
                    {
                        "current": "0x0000000000000000000000000000000000000000a4c80b00d46cb69ed9a0c5c0",
                        "key": "0x5d4d5b11a10444a6bbc88ff03a528e81fa5a39b7c9316e222daaf8771cd7a1c9",
                        "prev": "0x00000000000000000000000000000000000000009b13376dbb69c66eac069b94"
                    },
                    {
                        "current": "0x0000000000000000000000000000000000000003c0edd1e2ac22e2a1a29e4f0c",
                        "key": "0xb85f0ba00e09a4e0cd299b55eb74d43c063de090856b456c5a500732b8502f3f",
                        "prev": "0x0000000000000000000000000000000000000000000000000000000000000000"
                    },
                    {
                        "current": "0x0000000000000000000000000000000000000664a52ff1d9521f7af29caf5695",
                        "key": "0x5666f589975b0a5d04e3ea8e71c48f20ddfea713e3298a5d6114262f02dfaca4",
                        "prev": "0x00000000000000000000000000000000000006686fd2974f17454dc46ce7cfcd"
                    }
                ],
                "storageVariables": [
                    {
                        "name": "balance",
                        "type": "mapping(address => uint256)",
                        "value": {
                            "pairs": [
                                {
                                    "key": "0x7f8fc15ba60db5d954702372641bfc4623adca74",
                                    "value": {
                                        "current": "129668396861569683546145989547669",
                                        "prev": "129968793948442110555249000828877",
                                        "typeTag": 1
                                    }
                                },
                                {
                                    "key": "0x948c93e1417d354b991cf1098dd94210f9dba506",
                                    "value": {
                                        "current": "50997378735961638698800432576",
                                        "prev": "47993407867237368607770319764",
                                        "typeTag": 1
                                    }
                                },
                                {
                                    "key": "0xd18e8d6f6b4d6e3878d17745a42d007465a78ecc",
                                    "value": {
                                        "current": "297393116003702739011981168396",
                                        "prev": "0",
                                        "typeTag": 1
                                    }
                                }
                            ],
                            "typeTag": 4
                        }
                    }
                ]
            },
            {
                "address": "0xc02aaa39b223fe8d0a0e5c4f27ead9083c756cc2",
                "erc": "ERC-20",
                "slots": [
                    {
                        "current": "0x00000000000000000000000000000000000000000000000250a5f2192feea6cc",
                        "key": "0x37ab141bb8959a759ffe00630088f2f93a4018df6671af42a74eb17cb9a4caec",
                        "prev": "0x0000000000000000000000000000000000000000000000024f463a1f772b26cc"
                    }
                ],
                "storageVariables": [
                    {
                        "name": "balanceOf",
                        "type": "mapping(address => uint256)",
                        "value": {
                            "pairs": [
                                {
                                    "key": "0x7f8fc15ba60db5d954702372641bfc4623adca74",
                                    "value": {
                                        "current": "42704805231602869964",
                                        "prev": "42605805231602869964",
                                        "typeTag": 1
                                    }
                                }
                            ],
                            "typeTag": 4
                        }
                    }
                ]
            }
        ]
    }
}