{
    "balance_change": {
        "balanceChanges": [
            {
                "account": "0x1c17622cfa9b6fd2043a76dfc39a5b5a109aa708",
                "assets": [
                    {
                        "address": "0xc011a73ee8576fb46f5e1c5751ca3b9fe0af2a6f",
                        "amount": "3,885",
                        "iconUrl": "https://assets.blocksec.com/icon/c1e3b6af03ce5f020e733ca697c33400586b436d22b539a9570605e485361831.png",
                        "isERC1155": false,
                        "isERC721": false,
                        "sign": false,
                        "value": "6138.300000000000276"
                    }
                ]
            },
            {
                "account": "0x5a3b9cb10f43b829d0f7d8c6d855fd15b268b1c0",
                "assets": [
                    {
                        "address": "0xc011a73ee8576fb46f5e1c5751ca3b9fe0af2a6f",
                        "amount": "3,885",
                        "iconUrl": "https://assets.blocksec.com/icon/c1e3b6af03ce5f020e733ca697c33400586b436d22b539a9570605e485361831.png",
                        "isERC1155": false,
                        "isERC721": false,
                        "sign": true,
                        "value": "6138.300000000000276"
                    }
                ]
            }
        ]
    },
    "profile": {
        "basic_info": {
            "baseFee": "14.096592144",
            "blockNumber": 16330574,
            "callData": "0xa9059cbb0000000000000000000000005a3b9cb10f43b829d0f7d8c6d855fd15b268b1c00000000000000000000000000000000000000000000000d29b34a46348940000",
            "debugEnable": true,
            "errorInfo": "",
            "eventCount": 1,
            "feeRecipient": "0xdafea492d9c6733ae3d56b7ed1adb60692c98bc5",
            "formatValue": "0",
            "gasLimit": 207128,
            "gasPrice": "16.096592144",
            "gasUsed": 117684,
            "intTxnCount": 12,
            "internalRevert": false,
            "internalRevertMessage": "",
            "isContractCreation": false,
            "isFlashloan": false,
            "maxFee": "27.559507718",
            "nonce": 96787,
            "overwritedBlockNumber": -1,
            "priorityFee": "2",
            "receiver": "0xc011a73ee8576fb46f5e1c5751ca3b9fe0af2a6f",
            "revertMessage": "",
            "sender": "0x1c17622cfa9b6fd2043a76dfc39a5b5a109aa708",
            "simulationEnable": true,
            "sourceTxnHash": "0xd957bcd7525381b410de41eae2750a191e0f9552552a1bd7a778c34615807203",
            "status": true,
            "timestamp": "2023-01-04T02:55:47Z",
            "transactionFee": "0.001894311349874496",
            "txnHash": "0xd957bcd7525381b410de41eae2750a191e0f9552552a1bd7a778c34615807203",
            "txnIndex": 56,
            "type": 2,
            "value": "0"
        },
        "fund_flow": [
            {
                "amount": "3,885",
                "from": "0x1c17622cfa9b6fd2043a76dfc39a5b5a109aa708",
                "id": 1,
                "isERC1155": false,
                "isERC721": false,
                "isReverted": false,
                "order": 1,
                "to": "0x5a3b9cb10f43b829d0f7d8c6d855fd15b268b1c0",
                "token": "0xc011a73ee8576fb46f5e1c5751ca3b9fe0af2a6f"
            }
        ],
        "token_infos": [
            {
                "address": "0xc011a73ee8576fb46f5e1c5751ca3b9fe0af2a6f",
                "decimals": 18
            },
            {
                "address": "0xc02aaa39b223fe8d0a0e5c4f27ead9083c756cc2",
                "decimals": 18
            },
            {
                "address": "0xeeeeeeeeeeeeeeeeeeeeeeeeeeeeeeeeeeeeeeee",
                "decimals": 18
            }
        ]
    },
    "address_label": {
        "labels": [
            {
                "address": "0x4e3b31eb0e5cb73641ee1e65e7dcefe520ba3ef2",
                "label": "Synthetix: Read Proxy Address Resolver"
            },
            {
                "address": "0x0000000000000000000000000000000000000000",
                "label": "Null Address"
            },
            {
                "address": "0x0000000000000000000000000000000000000003",
                "label": "Precompiled"
            },
            {
                "address": "0x0000000000000000000000000000000000000004",
                "label": "Precompiled"
            },
            {
                "address": "0xc011a73ee8576fb46f5e1c5751ca3b9fe0af2a6f",
                "label": "Synthetix: Proxy SNX Token"
            },
            {
                "address": "0x823be81bbf96bec0e25ca13170f5aacb5b79ba83",
                "label": "Synthetix: Address Resolver"
            },
            {
                "address": "0x5b1b5fea1b99d83ad479df0c222f0492385381dd",
                "label": "Synthetix: Token State Synthetix"
            },
            {
                "address": "0x5a3b9cb10f43b829d0f7d8c6d855fd15b268b1c0",
                "label": "KRAKEN"
            },
            {
                "address": "0xeeeeeeeeeeeeeeeeeeeeeeeeeeeeeeeeeeeeeeee",
                "label": "Ether"
            },
            {
                "address": "0x696c905f8f8c006ca46e9808fe7e00049507798f",
                "label": "Synthetix"
            },
            {
                "address": "0x883a0e7b329df75476d9378462522cf2f78fab3d",
                "label": "Synthetix Network Token (SNX)"
            },
            {
                "address": "0x89fcb32f29e509cc42d0c8b6f058c993013a843f",
                "label": "Synthetix: Debt Shares"
            },
            {
                "address": "0x5810fc0e79f4323b2dd3c638914083fd23a941c0",
                "label": "Issuer"
            },
            {
                "address": "0x0000000000000000000000000000000000000001",
                "label": "Precompiled"
            },
            {
                "address": "0x0000000000000000000000000000000000000002",
                "label": "Precompiled"
            },
            {
                "address": "0x1c17622cfa9b6fd2043a76dfc39a5b5a109aa708",
                "label": "BtcTurk 3"
            }
        ]
    },
    "trace": {
        "accountLabels": null,
        "dataMap": {
            "-1": {
                "invocation": {
                    "address": "0x1c17622cfa9b6fd2043a76dfc39a5b5a109aa708",
                    "callData": "",
                    "decodedMethod": null,
                    "errorInfo": "",
                    "fromAddress": "",
                    "gasUsed": 0,
                    "id": -1,
                    "methodDecoded": false,
                    "operation": "",
                    "output": "",
                    "revert": false,
                    "revertMessage": "",
                    "selector": "",
                    "status": false,
                    "value": ""
                },
                "nodeType": 0
            },
            "0": {
                "invocation": {
                    "address": "0xc011a73ee8576fb46f5e1c5751ca3b9fe0af2a6f",
                    "callData": "0x0000000000000000000000005a3b9cb10f43b829d0f7d8c6d855fd15b268b1c00000000000000000000000000000000000000000000000d29b34a46348940000",
                    "decodedMethod": {
                        "callParams": [
                            {
                                "name": "to",
                                "type": "address",
                                "value": "0x5a3b9cb10f43b829d0f7d8c6d855fd15b268b1c0"
                            },
                            {
                                "decimalAvailable": true,
                                "name": "value",
                                "type": "uint256",
                                "value": "3,885,000,000,000,000,000,000"
                            }
                        ],
                        "constructorArguments": "",
                        "name": "transfer",
                        "returnParams": [
                            {
                                "name": "",
                                "type": "bool",
                                "value": true
                            }
                        ],
                        "signature": "transfer(address,uint256)"
                    },
                    "errorInfo": "",
                    "fromAddress": "0x1c17622cfa9b6fd2043a76dfc39a5b5a109aa708",
                    "gasUsed": 117684,
                    "id": 0,
                    "methodDecoded": true,
                    "operation": "CALL",
                    "output": "0x0000000000000000000000000000000000000000000000000000000000000001",
                    "revert": false,
                    "revertMessage": "",
                    "selector": "0xa9059cbb",
                    "status": true,
                    "value": "0"
                },
                "nodeType": 0
            },
            "1": {
                "invocation": {
                    "address": "0x883a0e7b329df75476d9378462522cf2f78fab3d",
                    "callData": "0x0000000000000000000000001c17622cfa9b6fd2043a76dfc39a5b5a109aa708",
                    "decodedMethod": {
                        "callParams": [
                            {
                                "name": "sender",
                                "type": "address",
                                "value": "0x1c17622cfa9b6fd2043a76dfc39a5b5a109aa708"
                            }
                        ],
                        "constructorArguments": "",
                        "name": "setMessageSender",
                        "returnParams": [],
                        "signature": "setMessageSender(address)"
                    },
                    "errorInfo": "",
                    "fromAddress": "0xc011a73ee8576fb46f5e1c5751ca3b9fe0af2a6f",
                    "gasUsed": 7756,
                    "id": 1,
                    "methodDecoded": true,
                    "operation": "CALL",
                    "output": "",
                    "revert": false,
                    "revertMessage": "",
                    "selector": "0xbc67f832",
                    "status": true,
                    "value": "0"
                },
                "nodeType": 0
            },
            "10": {
                "invocation": {
                    "address": "0x5b1b5fea1b99d83ad479df0c222f0492385381dd",
                    "callData": "0x0000000000000000000000005a3b9cb10f43b829d0f7d8c6d855fd15b268b1c0",
                    "decodedMethod": {
                        "callParams": [
                            {
                                "name": "",
                                "type": "address",
                                "value": "0x5a3b9cb10f43b829d0f7d8c6d855fd15b268b1c0"
                            }
                        ],
                        "constructorArguments": "",
                        "name": "balanceOf",
                        "returnParams": [
                            {
                                "decimalAvailable": true,
                                "name": "",
                                "type": "uint256",
                                "value": "0"
                            }
                        ],
                        "signature": "balanceOf(address)"
                    },
                    "errorInfo": "",
                    "fromAddress": "0x883a0e7b329df75476d9378462522cf2f78fab3d",
                    "gasUsed": 2486,
                    "id": 10,
                    "methodDecoded": true,
                    "operation": "STATICCALL",
                    "output": "0x0000000000000000000000000000000000000000000000000000000000000000",
                    "revert": false,
                    "revertMessage": "",
                    "selector": "0x70a08231",
                    "status": true,
                    "value": "0"
                },
                "nodeType": 0
            },
            "11": {
                "invocation": {
                    "address": "0x5b1b5fea1b99d83ad479df0c222f0492385381dd",
                    "callData": "0x0000000000000000000000005a3b9cb10f43b829d0f7d8c6d855fd15b268b1c00000000000000000000000000000000000000000000000d29b34a46348940000",
                    "decodedMethod": {
                        "callParams": [
                            {
                                "name": "account",
                                "type": "address",
                                "value": "0x5a3b9cb10f43b829d0f7d8c6d855fd15b268b1c0"
                            },
                            {
                                "name": "value",
                                "type": "uint256",
                                "value": "3,885,000,000,000,000,000,000"
                            }
                        ],
                        "constructorArguments": "",
                        "name": "setBalanceOf",
                        "returnParams": [],
                        "signature": "setBalanceOf(address,uint256)"
                    },
                    "errorInfo": "",
                    "fromAddress": "0x883a0e7b329df75476d9378462522cf2f78fab3d",
                    "gasUsed": 20725,
                    "id": 11,
                    "methodDecoded": true,
                    "operation": "CALL",
                    "output": "",
                    "revert": false,
                    "revertMessage": "",
                    "selector": "0xb46310f6",
                    "status": true,
                    "value": "0"
                },
                "nodeType": 0
            },
            "12": {
                "invocation": {
                    "address": "0xc011a73ee8576fb46f5e1c5751ca3b9fe0af2a6f",
                    "callData": "0x00000000000000000000000000000000000000000000000000000000000000c00000000000000000000000000000000000000000000000000000000000000003ddf252ad1be2c89b69c2b068fc378daa952ba7f163c4a11628f55a4df523b3ef0000000000000000000000001c17622cfa9b6fd2043a76dfc39a5b5a109aa7080000000000000000000000005a3b9cb10f43b829d0f7d8c6d855fd15b268b1c0000000000000000000000000000000000000000000000000000000000000000000000000000000000000000000000000000000000000000000000000000000200000000000000000000000000000000000000000000000d29b34a46348940000",
                    "decodedMethod": {
                        "callParams": [
                            {
                                "name": "callData",
                                "type": "bytes",
                                "value": "0x0000000000000000000000000000000000000000000000d29b34a46348940000"
                            },
                            {
                                "name": "numTopics",
                                "type": "uint256",
                                "value": "3"
                            },
                            {
                                "name": "topic1",
                                "type": "bytes32",
                                "value": "0xddf252ad1be2c89b69c2b068fc378daa952ba7f163c4a11628f55a4df523b3ef"
                            },
                            {
                                "name": "topic2",
                                "type": "bytes32",
                                "value": "0x0000000000000000000000001c17622cfa9b6fd2043a76dfc39a5b5a109aa708"
                            },
                            {
                                "name": "topic3",
                                "type": "bytes32",
                                "value": "0x0000000000000000000000005a3b9cb10f43b829d0f7d8c6d855fd15b268b1c0"
                            },
                            {
                                "name": "topic4",
                                "type": "bytes32",
                                "value": "0x0000000000000000000000000000000000000000000000000000000000000000"
                            }
                        ],
                        "constructorArguments": "",
                        "name": "_emit",
                        "returnParams": [],
                        "signature": "_emit(bytes,uint256,bytes32,bytes32,bytes32,bytes32)"
                    },
                    "errorInfo": "",
                    "fromAddress": "0x883a0e7b329df75476d9378462522cf2f78fab3d",
                    "gasUsed": 2706,
                    "id": 12,
                    "methodDecoded": true,
                    "operation": "CALL",
                    "output": "",
                    "revert": false,
                    "revertMessage": "",
                    "selector": "0x907dff97",
                    "status": true,
                    "value": "0"
                },
                "nodeType": 0
            },
            "13": {
                "event": {
                    "contract": "0xc011a73ee8576fb46f5e1c5751ca3b9fe0af2a6f",
                    "decodedLog": {
                        "name": "Transfer",
                        "params": [
                            {
                                "name": "from",
                                "type": "address",
                                "value": "0x1c17622cfa9b6fd2043a76dfc39a5b5a109aa708"
                            },
                            {
                                "name": "to",
                                "type": "address",
                                "value": "0x5a3b9cb10f43b829d0f7d8c6d855fd15b268b1c0"
                            },
                            {
                                "decimalAvailable": true,
                                "name": "value",
                                "type": "uint256",
                                "value": "3,885,000,000,000,000,000,000"
                            }
                        ],
                        "signature": "Transfer(address,address,uint256)"
                    },
                    "id": 13,
                    "logData": "0x0000000000000000000000000000000000000000000000d29b34a46348940000",
                    "logDecoded": true,
                    "operation": "EVENT",
                    "revert": false,
                    "status": true,
                    "topics": [
                        "0xddf252ad1be2c89b69c2b068fc378daa952ba7f163c4a11628f55a4df523b3ef",
                        "0x0000000000000000000000001c17622cfa9b6fd2043a76dfc39a5b5a109aa708",
                        "0x0000000000000000000000005a3b9cb10f43b829d0f7d8c6d855fd15b268b1c0"
                    ]
                },
                "nodeType": 1
            },
            "2": {
                "invocation": {
                    "address": "0x883a0e7b329df75476d9378462522cf2f78fab3d",
                    "callData": "0x0000000000000000000000005a3b9cb10f43b829d0f7d8c6d855fd15b268b1c00000000000000000000000000000000000000000000000d29b34a46348940000",
                    "decodedMethod": {
                        "callParams": [
                            {
                                "name": "to",
                                "type": "address",
                                "value": "0x5a3b9cb10f43b829d0f7d8c6d855fd15b268b1c0"
                            },
                            {
                                "decimalAvailable": true,
                                "name": "value",
                                "type": "uint256",
                                "value": "3,885,000,000,000,000,000,000"
                            }
                        ],
                        "constructorArguments": "",
                        "name": "transfer",
                        "returnParams": [
                            {
                                "name": "",
                                "type": "bool",
                                "value": true
                            }
                        ],
                        "signature": "transfer(address,uint256)"
                    },
                    "errorInfo": "",
                    "fromAddress": "0xc011a73ee8576fb46f5e1c5751ca3b9fe0af2a6f",
                    "gasUsed": 81967,
                    "id": 2,
                    "methodDecoded": true,
                    "operation": "CALL",
                    "output": "0x0000000000000000000000000000000000000000000000000000000000000001",
                    "revert": false,
                    "revertMessage": "",
                    "selector": "0xa9059cbb",
                    "status": true,
                    "value": "0"
                },
                "nodeType": 0
            },
            "3": {
                "invocation": {
                    "address": "0x696c905f8f8c006ca46e9808fe7e00049507798f",
                    "callData": "0x",
                    "decodedMethod": {
                        "callParams": [],
                        "constructorArguments": "",
                        "name": "requireSystemActive",
                        "returnParams": [],
                        "signature": "requireSystemActive()"
                    },
                    "errorInfo": "",
                    "fromAddress": "0x883a0e7b329df75476d9378462522cf2f78fab3d",
                    "gasUsed": 2504,
                    "id": 3,
                    "methodDecoded": true,
                    "operation": "STATICCALL",
                    "output": "",
                    "revert": false,
                    "revertMessage": "",
                    "selector": "0x086dabd1",
                    "status": true,
                    "value": "0"
                },
                "nodeType": 0
            },
            "4": {
                "invocation": {
                    "address": "0x4e3b31eb0e5cb73641ee1e65e7dcefe520ba3ef2",
                    "callData": "0x4c65676163794d61726b65740000000000000000000000000000000000000000",
                    "decodedMethod": {
                        "callParams": [
                            {
                                "name": "id",
                                "type": "bytes32",
                                "value": "0x4c65676163794d61726b65740000000000000000000000000000000000000000"
                            }
                        ],
                        "constructorArguments": "",
                        "name": "getAddress",
                        "returnParams": [
                            {
                                "name": "",
                                "type": "address",
                                "value": "0x0000000000000000000000000000000000000000"
                            }
                        ],
                        "signature": "getAddress(bytes32)"
                    },
                    "errorInfo": "",
                    "fromAddress": "0x883a0e7b329df75476d9378462522cf2f78fab3d",
                    "gasUsed": 7467,
                    "id": 4,
                    "methodDecoded": true,
                    "operation": "STATICCALL",
                    "output": "0x0000000000000000000000000000000000000000000000000000000000000000",
                    "revert": false,
                    "revertMessage": "",
                    "selector": "0x21f8a721",
                    "status": true,
                    "value": "0"
                },
                "nodeType": 0
            },
            "5": {
                "invocation": {
                    "address": "0x823be81bbf96bec0e25ca13170f5aacb5b79ba83",
                    "callData": "0x4c65676163794d61726b65740000000000000000000000000000000000000000",
                    "decodedMethod": {
                        "callParams": [
                            {
                                "name": "name",
                                "type": "bytes32",
                                "value": "0x4c65676163794d61726b65740000000000000000000000000000000000000000"
                            }
                        ],
                        "constructorArguments": "",
                        "name": "getAddress",
                        "returnParams": [
                            {
                                "name": "",
                                "type": "address",
                                "value": "0x0000000000000000000000000000000000000000"
                            }
                        ],
                        "signature": "getAddress(bytes32)"
                    },
                    "errorInfo": "",
                    "fromAddress": "0x4e3b31eb0e5cb73641ee1e65e7dcefe520ba3ef2",
                    "gasUsed": 2490,
                    "id": 5,
                    "methodDecoded": true,
                    "operation": "STATICCALL",
                    "output": "0x0000000000000000000000000000000000000000000000000000000000000000",
                    "revert": false,
                    "revertMessage": "",
                    "selector": "0x21f8a721",
                    "status": true,
                    "value": "0"
                },
                "nodeType": 0
            },
            "6": {
                "invocation": {
                    "address": "0x5810fc0e79f4323b2dd3c638914083fd23a941c0",
                    "callData": "0x0000000000000000000000001c17622cfa9b6fd2043a76dfc39a5b5a109aa7087355534400000000000000000000000000000000000000000000000000000000",
                    "decodedMethod": {
                        "callParams": [
                            {
                                "name": "_issuer",
                                "type": "address",
                                "value": "0x1c17622cfa9b6fd2043a76dfc39a5b5a109aa708"
                            },
                            {
                                "name": "currencyKey",
                                "type": "bytes32",
                                "value": "0x7355534400000000000000000000000000000000000000000000000000000000"
                            }
                        ],
                        "constructorArguments": "",
                        "name": "debtBalanceOf",
                        "returnParams": [
                            {
                                "name": "debtBalance",
                                "type": "uint256",
                                "value": "0"
                            }
                        ],
                        "signature": "debtBalanceOf(address,bytes32)"
                    },
                    "errorInfo": "",
                    "fromAddress": "0x883a0e7b329df75476d9378462522cf2f78fab3d",
                    "gasUsed": 9347,
                    "id": 6,
                    "methodDecoded": true,
                    "operation": "STATICCALL",
                    "output": "0x0000000000000000000000000000000000000000000000000000000000000000",
                    "revert": false,
                    "revertMessage": "",
                    "selector": "0xd37c4d8b",
                    "status": true,
                    "value": "0"
                },
                "nodeType": 0
            },
            "7": {
                "invocation": {
                    "address": "0x89fcb32f29e509cc42d0c8b6f058c993013a843f",
                    "callData": "0x0000000000000000000000001c17622cfa9b6fd2043a76dfc39a5b5a109aa708",
                    "decodedMethod": {
                        "callParams": [
                            {
                                "name": "account",
                                "type": "address",
                                "value": "0x1c17622cfa9b6fd2043a76dfc39a5b5a109aa708"
                            }
                        ],
                        "constructorArguments": "",
                        "name": "balanceOf",
                        "returnParams": [
                            {
                                "decimalAvailable": true,
                                "name": "",
                                "type": "uint256",
                                "value": "0"
                            }
                        ],
                        "signature": "balanceOf(address)"
                    },
                    "errorInfo": "",
                    "fromAddress": "0x5810fc0e79f4323b2dd3c638914083fd23a941c0",
                    "gasUsed": 2599,
                    "id": 7,
                    "methodDecoded": true,
                    "operation": "STATICCALL",
                    "output": "0x0000000000000000000000000000000000000000000000000000000000000000",
                    "revert": false,
                    "revertMessage": "",
                    "selector": "0x70a08231",
                    "status": true,
                    "value": "0"
                },
                "nodeType": 0
            },
            "8": {
                "invocation": {
                    "address": "0x5b1b5fea1b99d83ad479df0c222f0492385381dd",
                    "callData": "0x0000000000000000000000001c17622cfa9b6fd2043a76dfc39a5b5a109aa708",
                    "decodedMethod": {
                        "callParams": [
                            {
                                "name": "",
                                "type": "address",
                                "value": "0x1c17622cfa9b6fd2043a76dfc39a5b5a109aa708"
                            }
                        ],
                        "constructorArguments": "",
                        "name": "balanceOf",
                        "returnParams": [
                            {
                                "decimalAvailable": true,
                                "name": "",
                                "type": "uint256",
                                "value": "152,984,574,958,904,410,108,347"
                            }
                        ],
                        "signature": "balanceOf(address)"
                    },
                    "errorInfo": "",
                    "fromAddress": "0x883a0e7b329df75476d9378462522cf2f78fab3d",
                    "gasUsed": 2486,
                    "id": 8,
                    "methodDecoded": true,
                    "operation": "STATICCALL",
                    "output": "0x0000000000000000000000000000000000000000000020654f781a1b612ff1bb",
                    "revert": false,
                    "revertMessage": "",
                    "selector": "0x70a08231",
                    "status": true,
                    "value": "0"
                },
                "nodeType": 0
            },
            "9": {
                "invocation": {
                    "address": "0x5b1b5fea1b99d83ad479df0c222f0492385381dd",
                    "callData": "0x0000000000000000000000001c17622cfa9b6fd2043a76dfc39a5b5a109aa708000000000000000000000000000000000000000000001f92b44375b8189bf1bb",
                    "decodedMethod": {
                        "callParams": [
                            {
                                "name": "account",
                                "type": "address",
                                "value": "0x1c17622cfa9b6fd2043a76dfc39a5b5a109aa708"
                            },
                            {
                                "name": "value",
                                "type": "uint256",
                                "value": "149,099,574,958,904,410,108,347"
                            }
                        ],
                        "constructorArguments": "",
                        "name": "setBalanceOf",
                        "returnParams": [],
                        "signature": "setBalanceOf(address,uint256)"
                    },
                    "errorInfo": "",
                    "fromAddress": "0x883a0e7b329df75476d9378462522cf2f78fab3d",
                    "gasUsed": 5625,
                    "id": 9,
                    "methodDecoded": true,
                    "operation": "CALL",
                    "output": "",
                    "revert": false,
                    "revertMessage": "",
                    "selector": "0xb46310f6",
                    "status": true,
                    "value": "0"
                },
                "nodeType": 0
            }
        },
        "gasFlame": [
            {
                "children": [
                    {
                        "children": [
                            {
                                "children": [],
                                "depth": 0,
                                "name": "Initial Gas",
                                "value": 21644
                            },
                            {
                                "children": [
                                    {
                                        "children": [],
                                        "depth": 1,
                                        "name": "setMessageSender",
                                        "value": 7756
                                    },
                                    {
                                        "children": [
                                            {
                                                "children": [],
                                                "depth": 2,
                                                "name": "requireSystemActive",
                                                "value": 2504
                                            },
                                            {
                                                "children": [
                                                    {
                                                        "children": [],
                                                        "depth": 3,
                                                        "name": "getAddress",
                                                        "value": 2490
                                                    }
                                                ],
                                                "depth": 2,
                                                "name": "getAddress",
                                                "value": 7467
                                            },
                                            {
                                                "children": [
                                                    {
                                                        "children": [],
                                                        "depth": 3,
                                                        "name": "balanceOf",
                                                        "value": 2599
                                                    }
                                                ],
                                                "depth": 2,
                                                "name": "debtBalanceOf",
                                                "value": 9347
                                            },
                                            {
                                                "children": [],
                                                "depth": 2,
                                                "name": "balanceOf",
                                                "value": 2486
                                            },
                                            {
                                                "children": [],
                                                "depth": 2,
                                                "name": "setBalanceOf",
                                                "value": 5625
                                            },
                                            {
                                                "children": [],
                                                "depth": 2,
                                                "name": "balanceOf",
                                                "value": 2486
                                            },
                                            {
                                                "children": [],
                                                "depth": 2,
                                                "name": "setBalanceOf",
                                                "value": 20725
                                            },
                                            {
                                                "children": [],
                                                "depth": 2,
                                                "name": "_emit",
                                                "value": 2706
                                            }
                                        ],
                                        "depth": 1,
                                        "name": "transfer",
                                        "value": 81967
                                    }
                                ],
                                "depth": 0,
                                "name": "Executed Gas",
                                "value": 96040
                            }
                        ],
                        "depth": -1,
                        "name": "Actual Gas Used",
                        "value": 117684
                    },
                    {
                        "children": [],
                        "depth": -1,
                        "name": "Refunded Gas",
                        "value": 0
                    }
                ],
                "depth": -2,
                "name": "Total Gas",
                "value": 117684
            }
        ],
        "isConfirmed": true,
        "mainTrace": [
            {
                "children": [
                    {
                        "children": [
                            {
                                "children": [],
                                "depth": 1,
                                "id": 1,
                                "order": 1
                            },
                            {
                                "children": [
                                    {
                                        "children": [],
                                        "depth": 2,
                                        "id": 3,
                                        "order": 3
                                    },
                                    {
                                        "children": [
                                            {
                                                "children": [],
                                                "depth": 3,
                                                "id": 5,
                                                "order": 5
                                            }
                                        ],
                                        "depth": 2,
                                        "id": 4,
                                        "order": 4
                                    },
                                    {
                                        "children": [
                                            {
                                                "children": [],
                                                "depth": 3,
                                                "id": 7,
                                                "order": 7
                                            }
                                        ],
                                        "depth": 2,
                                        "id": 6,
                                        "order": 6
                                    },
                                    {
                                        "children": [],
                                        "depth": 2,
                                        "id": 8,
                                        "order": 8
                                    },
                                    {
                                        "children": [],
                                        "depth": 2,
                                        "id": 9,
                                        "order": 9
                                    },
                                    {
                                        "children": [],
                                        "depth": 2,
                                        "id": 10,
                                        "order": 10
                                    },
                                    {
                                        "children": [],
                                        "depth": 2,
                                        "id": 11,
                                        "order": 11
                                    },
                                    {
                                        "children": [
                                            {
                                                "children": [],
                                                "depth": 3,
                                                "id": 13,
                                                "order": 13
                                            }
                                        ],
                                        "depth": 2,
                                        "id": 12,
                                        "order": 12
                                    }
                                ],
                                "depth": 1,
                                "id": 2,
                                "order": 2
                            }
                        ],
                        "depth": 0,
                        "id": 0,
                        "order": 0
                    }
                ],
                "depth": -1,
                "id": -1,
                "order": -1
            }
        ],
        "mainTraceNodeCount": 14,
        "parentIdMap": {
            "0": -1,
            "1": 0,
            "10": 2,
            "11": 2,
            "12": 2,
            "13": 12,
            "2": 0,
            "3": 2,
            "4": 2,
            "5": 4,
            "6": 2,
            "7": 6,
            "8": 2,
            "9": 2
        },
        "tidyTrace": [
            {
                "children": [
                    {
                        "children": [
                            {
                                "children": [],
                                "depth": 1,
                                "id": 1,
                                "order": 1
                            },
                            {
                                "children": [
                                    {
                                        "children": [],
                                        "depth": 2,
                                        "id": 9,
                                        "order": 9
                                    },
                                    {
                                        "children": [],
                                        "depth": 2,
                                        "id": 11,
                                        "order": 11
                                    },
                                    {
                                        "children": [
                                            {
                                                "children": [],
                                                "depth": 3,
                                                "id": 13,
                                                "order": 13
                                            }
                                        ],
                                        "depth": 2,
                                        "id": 12,
                                        "order": 12
                                    }
                                ],
                                "depth": 1,
                                "id": 2,
                                "order": 2
                            }
                        ],
                        "depth": 0,
                        "id": 0,
                        "order": 0
                    }
                ],
                "depth": -1,
                "id": -1,
                "order": -1
            }
        ],
        "tidyTraceNodeCount": 7
    },
    "state_change": {
        "stateChanges": [
            {
                "address": "0x5b1b5fea1b99d83ad479df0c222f0492385381dd",
                "erc": "",
                "slots": [
                    {
                        "current": "0x000000000000000000000000000000000000000000001f92b44375b8189bf1bb",
                        "key": "0x4b7dd063d04a38f21687035340666974ade570d0ca93288ecfcb56d1c8e280ab",
                        "prev": "0x0000000000000000000000000000000000000000000020654f781a1b612ff1bb"
                    },
                    {
                        "current": "0x0000000000000000000000000000000000000000000000d29b34a46348940000",
                        "key": "0x4ea19c525eedff0a5094dea7135514874beb21bbb2d28e363c7e726ad04c4d24",
                        "prev": "0x0000000000000000000000000000000000000000000000000000000000000000"
                    }
                ],
                "storageVariables": [
                    {
                        "name": "balanceOf",
                        "type": "mapping(address => uint256)",
                        "value": {
                            "pairs": [
                                {
                                    "key": "0x1c17622cfa9b6fd2043a76dfc39a5b5a109aa708",
                                    "value": {
                                        "current": "149099574958904410108347",
                                        "prev": "152984574958904410108347",
                                        "typeTag": 1
                                    }
                                },
                                {
                                    "key": "0x5a3b9cb10f43b829d0f7d8c6d855fd15b268b1c0",
                                    "value": {
                                        "current": "3885000000000000000000",
                                        "prev": "0",
                                        "typeTag": 1
                                    }
                                }
                            ],
                            "typeTag": 4
                        }
                    }
                ]
            },
            {
                "address": "0x883a0e7b329df75476d9378462522cf2f78fab3d",
                "erc": "ERC-20",
                "slots": [
                    {
                        "current": "0x0000000000000000000000001c17622cfa9b6fd2043a76dfc39a5b5a109aa708",
                        "key": "0x0000000000000000000000000000000000000000000000000000000000000003",
                        "prev": "0x00000000000000000000000043ae24960e5534731fc831386c07755a2dc33d47"
                    }
                ],
                "storageVariables": [
                    {
                        "name": "messageSender",
                        "type": "address",
                        "value": {
                            "current": "0x1c17622cfa9b6fd2043a76dfc39a5b5a109aa708",
                            "prev": "0x43ae24960e5534731fc831386c07755a2dc33d47",
                            "typeTag": 1
                        }
                    }
                ]
            }
        ]
    }
}