{
    "balance_change": {
        "balanceChanges": [
            {
                "account": "0xe24449034d0b0c9c083f9a2c194ccb273b493467",
                "assets": [
                    {
                        "address": "0x95ad61b0a150d79219dcf64e1e6cc01f0b64c4ce",
                        "amount": "1,000,058,217.653338414631250391",
                        "iconUrl": "https://assets.blocksec.com/icon/56235cdcac277d59ed89deae8cb8e206f4c4384e75186903e74565b748deabf5.png",
                        "isERC1155": false,
                        "isERC721": false,
                        "sign": true,
                        "value": "7589.738543"
                    },
                    {
                        "address": "0xb4a81261b16b92af0b9f7c4a83f1e885132d81e4",
                        "amount": "1,000,000,000",
                        "iconUrl": "",
                        "isERC1155": false,
                        "isERC721": false,
                        "sign": false,
                        "value": "2099.567622"
                    }
                ]
            },
            {
                "account": "0xb4a81261b16b92af0b9f7c4a83f1e885132d81e4",
                "assets": [
                    {
                        "address": "0x95ad61b0a150d79219dcf64e1e6cc01f0b64c4ce",
                        "amount": "1,000,058,217.653338414631250391",
                        "iconUrl": "https://assets.blocksec.com/icon/56235cdcac277d59ed89deae8cb8e206f4c4384e75186903e74565b748deabf5.png",
                        "isERC1155": false,
                        "isERC721": false,
                        "sign": false,
                        "value": "7589.738543"
                    }
                ]
            },
            {
                "account": "0x0000000000000000000000000000000000000000",
                "assets": [
                    {
                        "address": "0xb4a81261b16b92af0b9f7c4a83f1e885132d81e4",
                        "amount": "1,000,000,000",
                        "iconUrl": "",
                        "isERC1155": false,
                        "isERC721": false,
                        "sign": true,
                        "value": "2099.567622"
                    }
                ]
            }
        ]
    },
    "profile": {
        "basic_info": {
            "baseFee": "151.803955216",
            "blockNumber": 13096216,
            "callData": "0x67dfd4c90000000000000000000000000000000000000000033b2e3c9fd0803ce8000000",
            "debugEnable": true,
            "errorInfo": "",
            "eventCount": 2,
            "feeRecipient": "0x99c85bb64564d9ef9a99621301f22c9993cb89e3",
            "formatValue": "0",
            "gasLimit": 68828,
            "gasPrice": "160.114080807",
            "gasUsed": 68464,
            "intTxnCount": 2,
            "internalRevert": false,
            "internalRevertMessage": "",
            "isContractCreation": false,
            "isFlashloan": false,
            "maxFee": "",
            "nonce": 200,
            "overwritedBlockNumber": -1,
            "priorityFee": "",
            "receiver": "0xb4a81261b16b92af0b9f7c4a83f1e885132d81e4",
            "revertMessage": "",
            "sender": "0xe24449034d0b0c9c083f9a2c194ccb273b493467",
            "simulationEnable": true,
            "sourceTxnHash": "0xd9e3fb99858d31eb04b931b7bc3c2e83d86233c37157997c987f823dc13fe908",
            "status": true,
            "timestamp": "2021-08-25T18:53:28Z",
            "transactionFee": "0.010962050428370448",
            "txnHash": "0xd9e3fb99858d31eb04b931b7bc3c2e83d86233c37157997c987f823dc13fe908",
            "txnIndex": 117,
            "type": 0,
            "value": "0"
        },
        "fund_flow": [
            {
                "amount": "1,000,000,000",
                "from": "0xe24449034d0b0c9c083f9a2c194ccb273b493467",
                "id": 1,
                "isERC1155": false,
                "isERC721": false,
                "isReverted": false,
                "order": 1,
                "to": "0x0000000000000000000000000000000000000000",
                "token": "0xb4a81261b16b92af0b9f7c4a83f1e885132d81e4"
            },
            {
                "amount": "1,000,058,217.653338414631250391",
                "from": "0xb4a81261b16b92af0b9f7c4a83f1e885132d81e4",
                "id": 2,
                "isERC1155": false,
                "isERC721": false,
                "isReverted": false,
                "order": 2,
                "to": "0xe24449034d0b0c9c083f9a2c194ccb273b493467",
                "token": "0x95ad61b0a150d79219dcf64e1e6cc01f0b64c4ce"
            }
        ],
        "token_infos": [
            {
                "address": "0xeeeeeeeeeeeeeeeeeeeeeeeeeeeeeeeeeeeeeeee",
                "decimals": 18
            },
            {
                "address": "0x95ad61b0a150d79219dcf64e1e6cc01f0b64c4ce",
                "decimals": 18
            },
            {
                "address": "0xb4a81261b16b92af0b9f7c4a83f1e885132d81e4",
                "decimals": 18
            },
            {
                "address": "0xc02aaa39b223fe8d0a0e5c4f27ead9083c756cc2",
                "decimals": 18
            }
        ]
    },
    "address_label": {
        "labels": [
            {
                "address": "0xb4a81261b16b92af0b9f7c4a83f1e885132d81e4",
                "label": "Shiba Inu: xSHIB Token"
            },
            {
                "address": "0x0000000000000000000000000000000000000001",
                "label": "Precompiled"
            },
            {
                "address": "0x0000000000000000000000000000000000000002",
                "label": "Precompiled"
            },
            {
                "address": "0x0000000000000000000000000000000000000003",
                "label": "Precompiled"
            },
            {
                "address": "0x0000000000000000000000000000000000000004",
                "label": "Precompiled"
            },
            {
                "address": "0xeeeeeeeeeeeeeeeeeeeeeeeeeeeeeeeeeeeeeeee",
                "label": "Ether"
            },
            {
                "address": "0x95ad61b0a150d79219dcf64e1e6cc01f0b64c4ce",
                "label": "Shiba Inu: SHIB Token"
            }
        ]
    },
    "trace": {
        "accountLabels": null,
        "dataMap": {
            "-1": {
                "invocation": {
                    "address": "0xe24449034d0b0c9c083f9a2c194ccb273b493467",
                    "callData": "",
                    "decodedMethod": null,
                    "errorInfo": "",
                    "fromAddress": "",
                    "gasUsed": 0,
                    "id": -1,
                    "methodDecoded": false,
                    "operation": "",
                    "output": "",
                    "revert": false,
                    "revertMessage": "",
                    "selector": "",
                    "status": false,
                    "value": ""
                },
                "nodeType": 0
            },
            "0": {
                "invocation": {
                    "address": "0xb4a81261b16b92af0b9f7c4a83f1e885132d81e4",
                    "callData": "0x0000000000000000000000000000000000000000033b2e3c9fd0803ce8000000",
                    "decodedMethod": {
                        "callParams": [
                            {
                                "name": "_share",
                                "type": "uint256",
                                "value": "1,000,000,000,000,000,000,000,000,000"
                            }
                        ],
                        "constructorArguments": "",
                        "name": "leave",
                        "returnParams": [],
                        "signature": "leave(uint256)"
                    },
                    "errorInfo": "",
                    "fromAddress": "0xe24449034d0b0c9c083f9a2c194ccb273b493467",
                    "gasUsed": 68464,
                    "id": 0,
                    "methodDecoded": true,
                    "operation": "CALL",
                    "output": "",
                    "revert": false,
                    "revertMessage": "",
                    "selector": "0x67dfd4c9",
                    "status": true,
                    "value": "0"
                },
                "nodeType": 0
            },
            "1": {
                "invocation": {
                    "address": "0x95ad61b0a150d79219dcf64e1e6cc01f0b64c4ce",
                    "callData": "0x000000000000000000000000b4a81261b16b92af0b9f7c4a83f1e885132d81e4",
                    "decodedMethod": {
                        "callParams": [
                            {
                                "name": "account",
                                "type": "address",
                                "value": "0xb4a81261b16b92af0b9f7c4a83f1e885132d81e4"
                            }
                        ],
                        "constructorArguments": "",
                        "name": "balanceOf",
                        "returnParams": [
                            {
                                "decimalAvailable": true,
                                "name": "",
                                "type": "uint256",
                                "value": "75,334,631,516,393,370,373,001,702,499,384"
                            }
                        ],
                        "signature": "balanceOf(address)"
                    },
                    "errorInfo": "",
                    "fromAddress": "0xb4a81261b16b92af0b9f7c4a83f1e885132d81e4",
                    "gasUsed": 2639,
                    "id": 1,
                    "methodDecoded": true,
                    "operation": "STATICCALL",
                    "output": "0x00000000000000000000000000000000000003b6db52a4e96ea2b1b85ae36438",
                    "revert": false,
                    "revertMessage": "",
                    "selector": "0x70a08231",
                    "status": true,
                    "value": "0"
                },
                "nodeType": 0
            },
            "2": {
                "event": {
                    "contract": "0xb4a81261b16b92af0b9f7c4a83f1e885132d81e4",
                    "decodedLog": {
                        "name": "Transfer",
                        "params": [
                            {
                                "name": "from",
                                "type": "address",
                                "value": "0xe24449034d0b0c9c083f9a2c194ccb273b493467"
                            },
                            {
                                "name": "to",
                                "type": "address",
                                "value": "0x0000000000000000000000000000000000000000"
                            },
                            {
                                "decimalAvailable": true,
                                "name": "value",
                                "type": "uint256",
                                "value": "1,000,000,000,000,000,000,000,000,000"
                            }
                        ],
                        "signature": "Transfer(address,address,uint256)"
                    },
                    "id": 2,
                    "logData": "0x0000000000000000000000000000000000000000033b2e3c9fd0803ce8000000",
                    "logDecoded": true,
                    "operation": "EVENT",
                    "revert": false,
                    "status": true,
                    "topics": [
                        "0xddf252ad1be2c89b69c2b068fc378daa952ba7f163c4a11628f55a4df523b3ef",
                        "0x000000000000000000000000e24449034d0b0c9c083f9a2c194ccb273b493467",
                        "0x0000000000000000000000000000000000000000000000000000000000000000"
                    ]
                },
                "nodeType": 1
            },
            "3": {
                "invocation": {
                    "address": "0x95ad61b0a150d79219dcf64e1e6cc01f0b64c4ce",
                    "callData": "0x000000000000000000000000e24449034d0b0c9c083f9a2c194ccb273b4934670000000000000000000000000000000000000000033b3a909c0ddd2dd63a69d7",
                    "decodedMethod": {
                        "callParams": [
                            {
                                "name": "recipient",
                                "type": "address",
                                "value": "0xe24449034d0b0c9c083f9a2c194ccb273b493467"
                            },
                            {
                                "decimalAvailable": true,
                                "name": "amount",
                                "type": "uint256",
                                "value": "1,000,058,217,653,338,414,631,250,391"
                            }
                        ],
                        "constructorArguments": "",
                        "name": "transfer",
                        "returnParams": [
                            {
                                "name": "",
                                "type": "bool",
                                "value": true
                            }
                        ],
                        "signature": "transfer(address,uint256)"
                    },
                    "errorInfo": "",
                    "fromAddress": "0xb4a81261b16b92af0b9f7c4a83f1e885132d81e4",
                    "gasUsed": 28227,
                    "id": 3,
                    "methodDecoded": true,
                    "operation": "CALL",
                    "output": "0x0000000000000000000000000000000000000000000000000000000000000001",
                    "revert": false,
                    "revertMessage": "",
                    "selector": "0xa9059cbb",
                    "status": true,
                    "value": "0"
                },
                "nodeType": 0
            },
            "4": {
                "event": {
                    "contract": "0x95ad61b0a150d79219dcf64e1e6cc01f0b64c4ce",
                    "decodedLog": {
                        "name": "Transfer",
                        "params": [
                            {
                                "name": "from",
                                "type": "address",
                                "value": "0xb4a81261b16b92af0b9f7c4a83f1e885132d81e4"
                            },
                            {
                                "name": "to",
                                "type": "address",
                                "value": "0xe24449034d0b0c9c083f9a2c194ccb273b493467"
                            },
                            {
                                "decimalAvailable": true,
                                "name": "value",
                                "type": "uint256",
                                "value": "1,000,058,217,653,338,414,631,250,391"
                            }
                        ],
                        "signature": "Transfer(address,address,uint256)"
                    },
                    "id": 4,
                    "logData": "0x0000000000000000000000000000000000000000033b3a909c0ddd2dd63a69d7",
                    "logDecoded": true,
                    "operation": "EVENT",
                    "revert": false,
                    "status": true,
                    "topics": [
                        "0xddf252ad1be2c89b69c2b068fc378daa952ba7f163c4a11628f55a4df523b3ef",
                        "0x000000000000000000000000b4a81261b16b92af0b9f7c4a83f1e885132d81e4",
                        "0x000000000000000000000000e24449034d0b0c9c083f9a2c194ccb273b493467"
                    ]
                },
                "nodeType": 1
            }
        },
        "gasFlame": [
            {
                "children": [
                    {
                        "children": [
                            {
                                "children": [],
                                "depth": 0,
                                "name": "Initial Gas",
                                "value": 21300
                            },
                            {
                                "children": [
                                    {
                                        "children": [],
                                        "depth": 1,
                                        "name": "balanceOf",
                                        "value": 2639
                                    },
                                    {
                                        "children": [],
                                        "depth": 1,
                                        "name": "transfer",
                                        "value": 28227
                                    }
                                ],
                                "depth": 0,
                                "name": "Executed Gas",
                                "value": 47164
                            }
                        ],
                        "depth": -1,
                        "name": "Actual Gas Used",
                        "value": 68464
                    },
                    {
                        "children": [],
                        "depth": -1,
                        "name": "Refunded Gas",
                        "value": 0
                    }
                ],
                "depth": -2,
                "name": "Total Gas",
                "value": 68464
            }
        ],
        "isConfirmed": true,
        "mainTrace": [
            {
                "children": [
                    {
                        "children": [
                            {
                                "children": [],
                                "depth": 1,
                                "id": 1,
                                "order": 1
                            },
                            {
                                "children": [],
                                "depth": 1,
                                "id": 2,
                                "order": 2
                            },
                            {
                                "children": [
                                    {
                                        "children": [],
                                        "depth": 2,
                                        "id": 4,
                                        "order": 4
                                    }
                                ],
                                "depth": 1,
                                "id": 3,
                                "order": 3
                            }
                        ],
                        "depth": 0,
                        "id": 0,
                        "order": 0
                    }
                ],
                "depth": -1,
                "id": -1,
                "order": -1
            }
        ],
        "mainTraceNodeCount": 5,
        "parentIdMap": {
            "0": -1,
            "1": 0,
            "2": 0,
            "3": 0,
            "4": 3
        },
        "tidyTrace": [
            {
                "children": [
                    {
                        "children": [
                            {
                                "children": [],
                                "depth": 1,
                                "id": 2,
                                "order": 2
                            },
                            {
                                "children": [
                                    {
                                        "children": [],
                                        "depth": 2,
                                        "id": 4,
                                        "order": 4
                                    }
                                ],
                                "depth": 1,
                                "id": 3,
                                "order": 3
                            }
                        ],
                        "depth": 0,
                        "id": 0,
                        "order": 0
                    }
                ],
                "depth": -1,
                "id": -1,
                "order": -1
            }
        ],
        "tidyTraceNodeCount": 4
    },
    "state_change": {
        "stateChanges": [
            {
                "address": "0x95ad61b0a150d79219dcf64e1e6cc01f0b64c4ce",
                "erc": "ERC-20",
                "slots": [
                    {
                        "current": "0x00000000000000000000000000000000000003b6d8176a58d294d48a84a8fa61",
                        "key": "0xe87f52381707d07670f7aa9f9bb40c6970e2356f35ab15c3c3afa29845cda474",
                        "prev": "0x00000000000000000000000000000000000003b6db52a4e96ea2b1b85ae36438"
                    },
                    {
                        "current": "0x0000000000000000000000000000000000000000033b3a909c0ddd2dd63a69d7",
                        "key": "0xb0fa998fadb6feab6c713bc12d1075996116048e46e880dc698c6fcb615c83e3",
                        "prev": "0x0000000000000000000000000000000000000000000000000000000000000000"
                    }
                ],
                "storageVariables": [
                    {
                        "name": "_balances",
                        "type": "mapping(address => uint256)",
                        "value": {
                            "pairs": [
                                {
                                    "key": "0xb4a81261b16b92af0b9f7c4a83f1e885132d81e4",
                                    "value": {
                                        "current": "75333631458175717034587071248993",
                                        "prev": "75334631516393370373001702499384",
                                        "typeTag": 1
                                    }
                                },
                                {
                                    "key": "0xe24449034d0b0c9c083f9a2c194ccb273b493467",
                                    "value": {
                                        "current": "1000058217653338414631250391",
                                        "prev": "0",
                                        "typeTag": 1
                                    }
                                }
                            ],
                            "typeTag": 4
                        }
                    }
                ]
            },
            {
                "address": "0xb4a81261b16b92af0b9f7c4a83f1e885132d81e4",
                "erc": "ERC-20",
                "slots": [
                    {
                        "current": "0x0000000000000000000000000000000000000000033b2e3c9fd0803ce8000000",
                        "key": "0xb0fa998fadb6feab6c713bc12d1075996116048e46e880dc698c6fcb615c83e3",
                        "prev": "0x000000000000000000000000000000000000000006765c793fa10079d0000000"
                    },
                    {
                        "current": "0x00000000000000000000000000000000000003b6c9ebd24f0a33cc65671f6320",
                        "key": "0x0000000000000000000000000000000000000000000000000000000000000002",
                        "prev": "0x00000000000000000000000000000000000003b6cd27008baa044ca24f1f6320"
                    }
                ],
                "storageVariables": [
                    {
                        "name": "_balances",
                        "type": "mapping(address => uint256)",
                        "value": {
                            "pairs": [
                                {
                                    "key": "0xe24449034d0b0c9c083f9a2c194ccb273b493467",
                                    "value": {
                                        "current": "1000000000000000000000000000",
                                        "prev": "2000000000000000000000000000",
                                        "typeTag": 1
                                    }
                                }
                            ],
                            "typeTag": 4
                        }
                    },
                    {
                        "name": "_totalSupply",
                        "type": "uint256",
                        "value": {
                            "current": "75329245966247809850885124612896",
                            "prev": "75330245966247809850885124612896",
                            "typeTag": 1
                        }
                    }
                ]
            }
        ]
    }
}