{
    "balance_change": {
        "balanceChanges": []
    },
    "profile": {
        "basic_info": {
            "baseFee": "",
            "blockNumber": 9286038,
            "callData": "0xe42a91ef0000000000000000000000006b175474e89094c44da98b954eedeac495271d0f000000000000000000000000000000000000000000000002b26b8169c7af00000000000000000000000000002a1530c4c41db0b0b2bb646cb5eb1a67b715866700000000000000000000000063825c174ab367968ec60f061753d3bbd36a0d8f",
            "debugEnable": true,
            "errorInfo": "",
            "eventCount": 0,
            "feeRecipient": "0xea674fdde714fd979de3edf0f56aa9716b898ec8",
            "formatValue": "0",
            "gasLimit": 890000,
            "gasPrice": "1",
            "gasUsed": 101253,
            "intTxnCount": 8,
            "internalRevert": false,
            "internalRevertMessage": "",
            "isContractCreation": false,
            "isFlashloan": false,
            "maxFee": "",
            "nonce": 947,
            "overwritedBlockNumber": -1,
            "priorityFee": "",
            "receiver": "0xce5702e94ad38c061e44a4a049cc29261f992846",
            "revertMessage": "",
            "sender": "0x8b66bd4e5060ecdf971b68abb4ed4641a86849b6",
            "simulationEnable": true,
            "sourceTxnHash": "0xda97db4599c5182fd72a268ea18046c0cf88a949afbfa154dbd7c13a151853f4",
            "status": true,
            "timestamp": "2020-01-15T13:38:48Z",
            "transactionFee": "0.000101253",
            "txnHash": "0xda97db4599c5182fd72a268ea18046c0cf88a949afbfa154dbd7c13a151853f4",
            "txnIndex": 76,
            "type": 0,
            "value": "0"
        },
        "fund_flow": [],
        "token_infos": [
            {
                "address": "0xc02aaa39b223fe8d0a0e5c4f27ead9083c756cc2",
                "decimals": 18
            },
            {
                "address": "0xeeeeeeeeeeeeeeeeeeeeeeeeeeeeeeeeeeeeeeee",
                "decimals": 18
            }
        ]
    },
    "address_label": {
        "labels": [
            {
                "address": "0x2157a7894439191e520825fe9399ab8655e0f708",
                "label": "Uniswap Exchange Template"
            },
            {
                "address": "0x2a1530c4c41db0b0b2bb646cb5eb1a67b7158667",
                "label": "Uniswap: DAI"
            },
            {
                "address": "0x0000000000000000000000000000000000000004",
                "label": "Precompiled"
            },
            {
                "address": "0xdfc85c08d5e5924ab49750e006cf8a826ffb7b13",
                "label": "SanityRates"
            },
            {
                "address": "0x0000000000000000000000000000000000000001",
                "label": "Precompiled"
            },
            {
                "address": "0x0000000000000000000000000000000000000002",
                "label": "Precompiled"
            },
            {
                "address": "0x0000000000000000000000000000000000000003",
                "label": "Precompiled"
            },
            {
                "address": "0xeeeeeeeeeeeeeeeeeeeeeeeeeeeeeeeeeeeeeeee",
                "label": "Ether"
            },
            {
                "address": "0x6b175474e89094c44da98b954eedeac495271d0f",
                "label": "Sky: Dai Stablecoin"
            },
            {
                "address": "0x798abda6cc246d0edba912092a2a3dbd3d11191b",
                "label": "Kyber: Conversion Rates"
            },
            {
                "address": "0x63825c174ab367968ec60f061753d3bbd36a0d8f",
                "label": "Kyber: Reserve"
            }
        ]
    },
    "trace": {
        "accountLabels": null,
        "dataMap": {
            "-1": {
                "invocation": {
                    "address": "0x8b66bd4e5060ecdf971b68abb4ed4641a86849b6",
                    "callData": "",
                    "decodedMethod": null,
                    "errorInfo": "",
                    "fromAddress": "",
                    "gasUsed": 0,
                    "id": -1,
                    "methodDecoded": false,
                    "operation": "",
                    "output": "",
                    "revert": false,
                    "revertMessage": "",
                    "selector": "",
                    "status": false,
                    "value": ""
                },
                "nodeType": 0
            },
            "0": {
                "invocation": {
                    "address": "0xce5702e94ad38c061e44a4a049cc29261f992846",
                    "callData": "0x0000000000000000000000006b175474e89094c44da98b954eedeac495271d0f000000000000000000000000000000000000000000000002b26b8169c7af00000000000000000000000000002a1530c4c41db0b0b2bb646cb5eb1a67b715866700000000000000000000000063825c174ab367968ec60f061753d3bbd36a0d8f",
                    "decodedMethod": null,
                    "errorInfo": "",
                    "fromAddress": "0x8b66bd4e5060ecdf971b68abb4ed4641a86849b6",
                    "gasUsed": 101253,
                    "id": 0,
                    "methodDecoded": false,
                    "operation": "CALL",
                    "output": "",
                    "revert": false,
                    "revertMessage": "",
                    "selector": "0xe42a91ef",
                    "status": true,
                    "value": "0"
                },
                "nodeType": 0
            },
            "1": {
                "invocation": {
                    "address": "0x2a1530c4c41db0b0b2bb646cb5eb1a67b7158667",
                    "callData": "0x000000000000000000000000000000000000000000000002b26b8169c7af0000",
                    "decodedMethod": {
                        "callParams": [
                            {
                                "name": "eth_sold",
                                "type": "uint256",
                                "value": "49,750,000,000,000,000,000"
                            }
                        ],
                        "constructorArguments": "",
                        "name": "getEthToTokenInputPrice",
                        "returnParams": [
                            {
                                "name": "out",
                                "type": "uint256",
                                "value": "8,230,300,643,294,515,028,580"
                            }
                        ],
                        "signature": "getEthToTokenInputPrice(uint256)"
                    },
                    "errorInfo": "",
                    "fromAddress": "0xce5702e94ad38c061e44a4a049cc29261f992846",
                    "gasUsed": 8819,
                    "id": 1,
                    "methodDecoded": true,
                    "operation": "CALL",
                    "output": "0x0000000000000000000000000000000000000000000001be2a5dad131e83e264c7af000000000000000000000000000000000000000000000000000000000000000000000000000000000000000000000000000000000000000000000000000000000000000000000000000000000000000000000000000000000000000000000000000000000000000000000000000000000000000000000000000000000000000000000000000000000000000000000000000000000000000000000000000000000000000000000000000000000000000000000000000000000000000000000000000000000000000000000000000000000000000000000000000000000000000000000000000000000000000000000000000000000000000000000000000000000000000000000000000000000000000000000000000000000000000000000000000000000000000000000000000000000000000000000000000000000000000000000000000000000000000000000000000000000000000000000000000000000000000000000000000000000000000000000000000000000000000000000000000000000000000000000000000000000000000000000000000000000000000000000000000000000000000000000000000000000000000000000000000000000000000000000000000000000000000000000000000000000000000000000000000000000000000000000000000000000000000000000000000000000000000000000000000000000000000000000000000000000000000000000000000000000000000000000000000000000000000000000000000000000000000000000000000000000000000000000000000000000000000000000000000000000000000000000000000000000000000000000000000000000000000000000000000000000000000000000000000000000000000000000000000000000000000000000000000000000000000000000000000000000000000000000000000000000000000000000000000000000000000000000000000000000000000000000000000000000000000000000000000000000000000000000000000000000000000000000000000000000000000000000000000000000000000000000000000000000000000000000000000000000000000000000000000000000000000000000000000000000000000000000000000000000000000000000000000000000000000000000000000000000000000000000000000000000000000000000000000000000000000000000000000000000000000000000000000000000000000000000000000000000000000000000000000000000000000000000000000000000000000000000000000000000000000000000000000000000000000000000000000000000000000000000000000000000000000000000000000000000000000000000000000000000000000000000000000000000000000000000000000000000000000000000000000000000000000000000000000000000000000000000000000000000000000000000000000000000000000000000000000000000000000000000000000000000000000000000000000000000000000000000000000000000000000000000000000000000000000000000000000000000000000000000000000000000000000000000000000000000000000000000000000000000000000000000000000000000000000000000000000000000000000000000000000000000000000000000000000000000000000000000000000000000000000000000000000000000000000000000000000000000000000000000000000000000000000000000000000000000000000000000000000000000000000000000000000000000000000000000000000000000000000000000000000000000000000000000000000000000000000000000000000000000000000000000000000000000000000000000000000000000000000000000000000000000000000000000000000000000000000000000000000000000000000000000000000000000000000000000000000000000000000000000000000000000000000000000000000000000000000000000000000000000000000000000000000000000000000000000000000000000000000000000000000000000000000000000000000000000000000000000000000000000000000000000000000000000000000000000000000000000000000000000000000000000000000000000000000000000000000000000000000000000000000000000000000000000000000000000000000000000000000000000000000000000000000000000000000000000000000000000000000000000000000000000000000000000000000000000000000000000000000000000000000000000000000000000000000000000000000000000000000000000000000000000000000000000000000000000000000000000000000000000000000000000000000000000000000000000000000000000000000000000000000000000000000000000000000000000000000000000000000000000000000000000000000000000000000000000000000000000000000000000000000000000000000000000000000000000000000000000000000000000000000000000000000000000000000000000000000000000000000000000000000000000000000000000000000000000000000000000000000000000000000000000000000000000000000000000000000000000000000000000000000000000000000000000000000000000000000000000000000000000000000000000000000000000000000000000000000000000000000000000000000000000000000000000000000000000000000000000000000000000000000000000000000000000000000000000000000000000000000000000000000000000000000000000000000000000000000000000000000000000000000000000000000000000000000000000000000000000000000000000000000000000000000000000000000000000000000000000000000000000000000000000000000000000000000000000000000000000000000000000000000000000000000000000000000000000000000000000000000000000000000000000000000000000000000000000000000000000000000000000000000000000000000000000000000000000000000000000000000000000000000000000000000000000000000000000000000000000000000000000000000000000000000000000000000000000000000000000000000000000000000000000000000000000000000000000000000000000000000000000000000000000000000000000000000000000000000000000000000000000000000000000000000000000000000000000000000000000000000000000000000000000000000000000000000000000000000000000000000000000000000000000000000000000000000000000000000000000000000000000000000000000000000000000000000000000000000000000000000000000000000000000000000000000000000000000000000000000000000000000000000000000000000000000000000000000000000000000000000000000000000000000000000000000000000000000000000000000000000000000000000000000000000000000000000000000000000000000000000000000000000000000000000000000000000000000000000000000000000000000000000000000000000000000000000000000000000000000000000000000000000000000000000000000000000000000000000000000000000000000000000000000000000000000000000000000000000000000000000000000000000000000000000000000000000000000000000000000000000000000000000000000000000000000000000000000000000000000000000000000000000000000000000000000000000000000000000000000000000000000000000000000000000000000000000000000000000000000000000000000000000000000000000000000000000000000000000000000000000000000000000000000000000000000000000000000000000000000000000000000000000000000000000000000000000000000000000000000000000000000000000000000000000000000000000000000000000000000000000000000000000000000000000000000000000000000000000000000000000000000000000000000000000000000000000000000000000000000000000000000000000000000000000000000000000000000000000000000000000000000000000000000000000000000000000000000000000000000000000000000000000000000000000000000000000000000000000000000000000000000000000000000000000000000000000000000000000000000000000000000000000000000000000000000000000000000000000000000000000000000000000000000000000000000000000000000000000000000000000000000000000000000000000000000000000000000000000000000000000000000000000000000000000000000000000000000000000000000000000000000000000000000000000000000000000000000000000000000000000000000000000000000000000000000000000000000000000000000000000000000000000000000000000000000000000000000000000000000000000000000000000000000000000000000000000000000000000000000000000000000000000000000000000000000000000000000000000000000000000000000000000000000000000000000000000000000000000000000000000000000000000000000000000000000000000000000000000000000000000000000000000000000000000000000000000000000000000000000000000000000000000000000000000000000000000000000000000000000000000000000000000000000000000000000000000000000000000000000000000000000000000000000000000000000000000000000000000000000000000000000000000000000000000000000000000000000000000000000000000000000000000000000000000000000000000000000000000000000000000000000000000000000000000000000000000000000000000000000000000000000000000000000000000000000000000000000000000000000000000000000000000000000000000000000000000000000000000000000000000000000000000000000000000000000000000000000000000000000000000000000000000000000000000000000000000000000000000000000000000000000000000000000000000000000000000000000000000000000000000000000000000000000000000000000000000000000000000000000000000000000000000000000000000000000000000000000000000000000000000000000000000000000000000000000000000000000000000000000000000000000000000000000000000000000000000000000000000000000000000000000000000000000000000000000000000000000000000000000000000000000000000000000000",
                    "revert": false,
                    "revertMessage": "",
                    "selector": "0xcd7724c3",
                    "status": true,
                    "value": "0"
                },
                "nodeType": 0
            },
            "2": {
                "invocation": {
                    "address": "0x2157a7894439191e520825fe9399ab8655e0f708",
                    "callData": "0x000000000000000000000000000000000000000000000002b26b8169c7af0000",
                    "decodedMethod": {
                        "callParams": [
                            {
                                "name": "eth_sold",
                                "type": "uint256",
                                "value": "49,750,000,000,000,000,000"
                            }
                        ],
                        "constructorArguments": "",
                        "name": "getEthToTokenInputPrice",
                        "returnParams": [
                            {
                                "name": "out",
                                "type": "uint256",
                                "value": "8,230,300,643,294,515,028,580"
                            }
                        ],
                        "signature": "getEthToTokenInputPrice(uint256)"
                    },
                    "errorInfo": "",
                    "fromAddress": "0x2a1530c4c41db0b0b2bb646cb5eb1a67b7158667",
                    "gasUsed": 7649,
                    "id": 2,
                    "methodDecoded": true,
                    "operation": "DELEGATECALL",
                    "output": "0x0000000000000000000000000000000000000000000001be2a5dad131e83e264",
                    "revert": false,
                    "revertMessage": "",
                    "selector": "0xcd7724c3",
                    "status": true,
                    "value": "0"
                },
                "nodeType": 0
            },
            "3": {
                "invocation": {
                    "address": "0x6b175474e89094c44da98b954eedeac495271d0f",
                    "callData": "0x0000000000000000000000002a1530c4c41db0b0b2bb646cb5eb1a67b7158667",
                    "decodedMethod": {
                        "callParams": [
                            {
                                "name": "",
                                "type": "address",
                                "value": "0x2a1530c4c41db0b0b2bb646cb5eb1a67b7158667"
                            }
                        ],
                        "constructorArguments": "",
                        "name": "balanceOf",
                        "returnParams": [
                            {
                                "decimalAvailable": true,
                                "name": "",
                                "type": "uint256",
                                "value": "1,423,319,184,032,150,853,417,583"
                            }
                        ],
                        "signature": "balanceOf(address)"
                    },
                    "errorInfo": "",
                    "fromAddress": "0x2a1530c4c41db0b0b2bb646cb5eb1a67b7158667",
                    "gasUsed": 1302,
                    "id": 3,
                    "methodDecoded": true,
                    "operation": "STATICCALL",
                    "output": "0x000000000000000000000000000000000000000000012d66499e690233da7a6f",
                    "revert": false,
                    "revertMessage": "",
                    "selector": "0x70a08231",
                    "status": true,
                    "value": "0"
                },
                "nodeType": 0
            },
            "4": {
                "invocation": {
                    "address": "0x6b175474e89094c44da98b954eedeac495271d0f",
                    "callData": "0x",
                    "decodedMethod": {
                        "callParams": [],
                        "constructorArguments": "",
                        "name": "decimals",
                        "returnParams": [
                            {
                                "name": "",
                                "type": "uint8",
                                "value": "18"
                            }
                        ],
                        "signature": "decimals()"
                    },
                    "errorInfo": "",
                    "fromAddress": "0xce5702e94ad38c061e44a4a049cc29261f992846",
                    "gasUsed": 240,
                    "id": 4,
                    "methodDecoded": true,
                    "operation": "CALL",
                    "output": "0x0000000000000000000000000000000000000000000000000000000000000012",
                    "revert": false,
                    "revertMessage": "",
                    "selector": "0x313ce567",
                    "status": true,
                    "value": "0"
                },
                "nodeType": 0
            },
            "5": {
                "invocation": {
                    "address": "0x63825c174ab367968ec60f061753d3bbd36a0d8f",
                    "callData": "0x0000000000000000000000006b175474e89094c44da98b954eedeac495271d0f000000000000000000000000eeeeeeeeeeeeeeeeeeeeeeeeeeeeeeeeeeeeeeee0000000000000000000000000000000000000000000001be2a5dad131e83e26400000000000000000000000000000000000000000000000000000000008db196",
                    "decodedMethod": {
                        "callParams": [
                            {
                                "name": "src",
                                "type": "address",
                                "value": "0x6b175474e89094c44da98b954eedeac495271d0f"
                            },
                            {
                                "name": "dest",
                                "type": "address",
                                "value": "0xeeeeeeeeeeeeeeeeeeeeeeeeeeeeeeeeeeeeeeee"
                            },
                            {
                                "name": "srcQty",
                                "type": "uint256",
                                "value": "8,230,300,643,294,515,028,580"
                            },
                            {
                                "name": "blockNumber",
                                "type": "uint256",
                                "value": "9,286,038"
                            }
                        ],
                        "constructorArguments": "",
                        "name": "getConversionRate",
                        "returnParams": [
                            {
                                "name": "",
                                "type": "uint256",
                                "value": "5,967,404,326,682,783"
                            }
                        ],
                        "signature": "getConversionRate(address,address,uint256,uint256)"
                    },
                    "errorInfo": "",
                    "fromAddress": "0xce5702e94ad38c061e44a4a049cc29261f992846",
                    "gasUsed": 64265,
                    "id": 5,
                    "methodDecoded": true,
                    "operation": "CALL",
                    "output": "0x00000000000000000000000000000000000000000000000000153352971f809f",
                    "revert": false,
                    "revertMessage": "",
                    "selector": "0x7cd44272",
                    "status": true,
                    "value": "0"
                },
                "nodeType": 0
            },
            "6": {
                "invocation": {
                    "address": "0x798abda6cc246d0edba912092a2a3dbd3d11191b",
                    "callData": "0x0000000000000000000000006b175474e89094c44da98b954eedeac495271d0f00000000000000000000000000000000000000000000000000000000008db19600000000000000000000000000000000000000000000000000000000000000000000000000000000000000000000000000000000000001be2a5dad131e83e264",
                    "decodedMethod": {
                        "callParams": [
                            {
                                "name": "token",
                                "type": "address",
                                "value": "0x6b175474e89094c44da98b954eedeac495271d0f"
                            },
                            {
                                "name": "currentBlockNumber",
                                "type": "uint256",
                                "value": "9,286,038"
                            },
                            {
                                "name": "buy",
                                "type": "bool",
                                "value": false
                            },
                            {
                                "name": "qty",
                                "type": "uint256",
                                "value": "8,230,300,643,294,515,028,580"
                            }
                        ],
                        "constructorArguments": "",
                        "name": "getRate",
                        "returnParams": [
                            {
                                "name": "",
                                "type": "uint256",
                                "value": "5,967,404,326,682,783"
                            }
                        ],
                        "signature": "getRate(address,uint256,bool,uint256)"
                    },
                    "errorInfo": "",
                    "fromAddress": "0x63825c174ab367968ec60f061753d3bbd36a0d8f",
                    "gasUsed": 48750,
                    "id": 6,
                    "methodDecoded": true,
                    "operation": "CALL",
                    "output": "0x00000000000000000000000000000000000000000000000000153352971f809f",
                    "revert": false,
                    "revertMessage": "",
                    "selector": "0xb8e9c22e",
                    "status": true,
                    "value": "0"
                },
                "nodeType": 0
            },
            "7": {
                "invocation": {
                    "address": "0x6b175474e89094c44da98b954eedeac495271d0f",
                    "callData": "0x",
                    "decodedMethod": {
                        "callParams": [],
                        "constructorArguments": "",
                        "name": "decimals",
                        "returnParams": [
                            {
                                "name": "",
                                "type": "uint8",
                                "value": "18"
                            }
                        ],
                        "signature": "decimals()"
                    },
                    "errorInfo": "",
                    "fromAddress": "0x63825c174ab367968ec60f061753d3bbd36a0d8f",
                    "gasUsed": 240,
                    "id": 7,
                    "methodDecoded": true,
                    "operation": "CALL",
                    "output": "0x0000000000000000000000000000000000000000000000000000000000000012",
                    "revert": false,
                    "revertMessage": "",
                    "selector": "0x313ce567",
                    "status": true,
                    "value": "0"
                },
                "nodeType": 0
            },
            "8": {
                "invocation": {
                    "address": "0xdfc85c08d5e5924ab49750e006cf8a826ffb7b13",
                    "callData": "0x0000000000000000000000006b175474e89094c44da98b954eedeac495271d0f000000000000000000000000eeeeeeeeeeeeeeeeeeeeeeeeeeeeeeeeeeeeeeee",
                    "decodedMethod": {
                        "callParams": [
                            {
                                "name": "src",
                                "type": "address",
                                "value": "0x6b175474e89094c44da98b954eedeac495271d0f"
                            },
                            {
                                "name": "dest",
                                "type": "address",
                                "value": "0xeeeeeeeeeeeeeeeeeeeeeeeeeeeeeeeeeeeeeeee"
                            }
                        ],
                        "constructorArguments": "",
                        "name": "getSanityRate",
                        "returnParams": [
                            {
                                "name": "",
                                "type": "uint256",
                                "value": "6,642,110,983,636,253"
                            }
                        ],
                        "signature": "getSanityRate(address,address)"
                    },
                    "errorInfo": "",
                    "fromAddress": "0x63825c174ab367968ec60f061753d3bbd36a0d8f",
                    "gasUsed": 2797,
                    "id": 8,
                    "methodDecoded": true,
                    "operation": "CALL",
                    "output": "0x000000000000000000000000000000000000000000000000001798f6f9bd051d",
                    "revert": false,
                    "revertMessage": "",
                    "selector": "0xa58092b7",
                    "status": true,
                    "value": "0"
                },
                "nodeType": 0
            }
        },
        "gasFlame": [
            {
                "children": [
                    {
                        "children": [
                            {
                                "children": [],
                                "depth": 0,
                                "name": "Initial Gas",
                                "value": 22380
                            },
                            {
                                "children": [
                                    {
                                        "children": [
                                            {
                                                "children": [
                                                    {
                                                        "children": [],
                                                        "depth": 3,
                                                        "name": "balanceOf",
                                                        "value": 1302
                                                    }
                                                ],
                                                "depth": 2,
                                                "name": "getEthToTokenInputPrice",
                                                "value": 7649
                                            }
                                        ],
                                        "depth": 1,
                                        "name": "getEthToTokenInputPrice",
                                        "value": 8819
                                    },
                                    {
                                        "children": [],
                                        "depth": 1,
                                        "name": "decimals",
                                        "value": 240
                                    },
                                    {
                                        "children": [
                                            {
                                                "children": [],
                                                "depth": 2,
                                                "name": "getRate",
                                                "value": 48750
                                            },
                                            {
                                                "children": [],
                                                "depth": 2,
                                                "name": "decimals",
                                                "value": 240
                                            },
                                            {
                                                "children": [],
                                                "depth": 2,
                                                "name": "getSanityRate",
                                                "value": 2797
                                            }
                                        ],
                                        "depth": 1,
                                        "name": "getConversionRate",
                                        "value": 64265
                                    }
                                ],
                                "depth": 0,
                                "name": "Executed Gas",
                                "value": 78873
                            }
                        ],
                        "depth": -1,
                        "name": "Actual Gas Used",
                        "value": 101253
                    },
                    {
                        "children": [],
                        "depth": -1,
                        "name": "Refunded Gas",
                        "value": 0
                    }
                ],
                "depth": -2,
                "name": "Total Gas",
                "value": 101253
            }
        ],
        "isConfirmed": true,
        "mainTrace": [
            {
                "children": [
                    {
                        "children": [
                            {
                                "children": [
                                    {
                                        "children": [
                                            {
                                                "children": [],
                                                "depth": 3,
                                                "id": 3,
                                                "order": 3
                                            }
                                        ],
                                        "depth": 2,
                                        "id": 2,
                                        "order": 2
                                    }
                                ],
                                "depth": 1,
                                "id": 1,
                                "order": 1
                            },
                            {
                                "children": [],
                                "depth": 1,
                                "id": 4,
                                "order": 4
                            },
                            {
                                "children": [
                                    {
                                        "children": [],
                                        "depth": 2,
                                        "id": 6,
                                        "order": 6
                                    },
                                    {
                                        "children": [],
                                        "depth": 2,
                                        "id": 7,
                                        "order": 7
                                    },
                                    {
                                        "children": [],
                                        "depth": 2,
                                        "id": 8,
                                        "order": 8
                                    }
                                ],
                                "depth": 1,
                                "id": 5,
                                "order": 5
                            }
                        ],
                        "depth": 0,
                        "id": 0,
                        "order": 0
                    }
                ],
                "depth": -1,
                "id": -1,
                "order": -1
            }
        ],
        "mainTraceNodeCount": 9,
        "parentIdMap": {
            "0": -1,
            "1": 0,
            "2": 1,
            "3": 2,
            "4": 0,
            "5": 0,
            "6": 5,
            "7": 5,
            "8": 5
        },
        "tidyTrace": [
            {
                "children": [
                    {
                        "children": [
                            {
                                "children": [
                                    {
                                        "children": [],
                                        "depth": 2,
                                        "id": 2,
                                        "order": 2
                                    }
                                ],
                                "depth": 1,
                                "id": 1,
                                "order": 1
                            },
                            {
                                "children": [],
                                "depth": 1,
                                "id": 4,
                                "order": 4
                            },
                            {
                                "children": [
                                    {
                                        "children": [],
                                        "depth": 2,
                                        "id": 6,
                                        "order": 6
                                    },
                                    {
                                        "children": [],
                                        "depth": 2,
                                        "id": 7,
                                        "order": 7
                                    },
                                    {
                                        "children": [],
                                        "depth": 2,
                                        "id": 8,
                                        "order": 8
                                    }
                                ],
                                "depth": 1,
                                "id": 5,
                                "order": 5
                            }
                        ],
                        "depth": 0,
                        "id": 0,
                        "order": 0
                    }
                ],
                "depth": -1,
                "id": -1,
                "order": -1
            }
        ],
        "tidyTraceNodeCount": 8
    },
    "state_change": {
        "stateChanges": []
    }
}