{
    "balance_change": {
        "balanceChanges": [
            {
                "account": "0x83e84cc194e595b43dcedfbffc3e0358366307f1",
                "assets": [
                    {
                        "address": "0xc02aaa39b223fe8d0a0e5c4f27ead9083c756cc2",
                        "amount": "1.2396",
                        "iconUrl": "https://assets.blocksec.com/icon/f1cb2d02c471d545bbc7722daf3277fd852d98e63d118771af7047bd8256c516.png",
                        "isERC1155": false,
                        "isERC721": false,
                        "sign": false,
                        "value": "3899.700492971999869"
                    }
                ]
            },
            {
                "account": "0xe78388b4ce79068e89bf8aa7f218ef6b9ab0e9d0",
                "assets": [
                    {
                        "address": "0xc02aaa39b223fe8d0a0e5c4f27ead9083c756cc2",
                        "amount": "1.2396",
                        "iconUrl": "https://assets.blocksec.com/icon/f1cb2d02c471d545bbc7722daf3277fd852d98e63d118771af7047bd8256c516.png",
                        "isERC1155": false,
                        "isERC721": false,
                        "sign": true,
                        "value": "3899.700492971999869"
                    }
                ]
            }
        ]
    },
    "profile": {
        "basic_info": {
            "baseFee": "26.527804177",
            "blockNumber": 13065223,
            "callData": "0xa9059cbb000000000000000000000000e78388b4ce79068e89bf8aa7f218ef6b9ab0e9d00000000000000000000000000000000000000000000000001133f1a1df930000",
            "debugEnable": true,
            "errorInfo": "",
            "eventCount": 1,
            "feeRecipient": "0x5a0b54d5dc17e0aadc383d2db43b0a0d3e029c4c",
            "formatValue": "0",
            "gasLimit": 34494,
            "gasPrice": "50",
            "gasUsed": 29694,
            "intTxnCount": 0,
            "internalRevert": false,
            "internalRevertMessage": "",
            "isContractCreation": false,
            "isFlashloan": false,
            "maxFee": "",
            "nonce": 1272,
            "overwritedBlockNumber": -1,
            "priorityFee": "",
            "receiver": "0xc02aaa39b223fe8d0a0e5c4f27ead9083c756cc2",
            "revertMessage": "",
            "sender": "0x83e84cc194e595b43dcedfbffc3e0358366307f1",
            "simulationEnable": true,
            "sourceTxnHash": "0xdbafec2878e2cf9a14650b441c3a697422993f31f9b66a289a56ea9f2d008fd5",
            "status": true,
            "timestamp": "2021-08-20T23:40:19Z",
            "transactionFee": "0.0014847",
            "txnHash": "0xdbafec2878e2cf9a14650b441c3a697422993f31f9b66a289a56ea9f2d008fd5",
            "txnIndex": 15,
            "type": 0,
            "value": "0"
        },
        "fund_flow": [
            {
                "amount": "1.2396",
                "from": "0x83e84cc194e595b43dcedfbffc3e0358366307f1",
                "id": 1,
                "isERC1155": false,
                "isERC721": false,
                "isReverted": false,
                "order": 1,
                "to": "0xe78388b4ce79068e89bf8aa7f218ef6b9ab0e9d0",
                "token": "0xc02aaa39b223fe8d0a0e5c4f27ead9083c756cc2"
            }
        ],
        "token_infos": [
            {
                "address": "0xc02aaa39b223fe8d0a0e5c4f27ead9083c756cc2",
                "decimals": 18
            },
            {
                "address": "0xeeeeeeeeeeeeeeeeeeeeeeeeeeeeeeeeeeeeeeee",
                "decimals": 18
            }
        ]
    },
    "address_label": {
        "labels": [
            {
                "address": "0xc02aaa39b223fe8d0a0e5c4f27ead9083c756cc2",
                "label": "Wrapped Ether (WETH)"
            },
            {
                "address": "0xe78388b4ce79068e89bf8aa7f218ef6b9ab0e9d0",
                "label": "Avalanche: Old Bridge"
            },
            {
                "address": "0x0000000000000000000000000000000000000001",
                "label": "Precompiled"
            },
            {
                "address": "0x0000000000000000000000000000000000000002",
                "label": "Precompiled"
            },
            {
                "address": "0x0000000000000000000000000000000000000003",
                "label": "Precompiled"
            },
            {
                "address": "0x0000000000000000000000000000000000000004",
                "label": "Precompiled"
            },
            {
                "address": "0xeeeeeeeeeeeeeeeeeeeeeeeeeeeeeeeeeeeeeeee",
                "label": "Ether"
            }
        ]
    },
    "trace": {
        "accountLabels": null,
        "dataMap": {
            "-1": {
                "invocation": {
                    "address": "0x83e84cc194e595b43dcedfbffc3e0358366307f1",
                    "callData": "",
                    "decodedMethod": null,
                    "errorInfo": "",
                    "fromAddress": "",
                    "gasUsed": 0,
                    "id": -1,
                    "methodDecoded": false,
                    "operation": "",
                    "output": "",
                    "revert": false,
                    "revertMessage": "",
                    "selector": "",
                    "status": false,
                    "value": ""
                },
                "nodeType": 0
            },
            "0": {
                "invocation": {
                    "address": "0xc02aaa39b223fe8d0a0e5c4f27ead9083c756cc2",
                    "callData": "0x000000000000000000000000e78388b4ce79068e89bf8aa7f218ef6b9ab0e9d00000000000000000000000000000000000000000000000001133f1a1df930000",
                    "decodedMethod": {
                        "callParams": [
                            {
                                "name": "dst",
                                "type": "address",
                                "value": "0xe78388b4ce79068e89bf8aa7f218ef6b9ab0e9d0"
                            },
                            {
                                "decimalAvailable": true,
                                "name": "wad",
                                "type": "uint256",
                                "value": "1,239,600,000,000,000,000"
                            }
                        ],
                        "constructorArguments": "",
                        "name": "transfer",
                        "returnParams": [
                            {
                                "name": "",
                                "type": "bool",
                                "value": true
                            }
                        ],
                        "signature": "transfer(address,uint256)"
                    },
                    "errorInfo": "",
                    "fromAddress": "0x83e84cc194e595b43dcedfbffc3e0358366307f1",
                    "gasUsed": 29694,
                    "id": 0,
                    "methodDecoded": true,
                    "operation": "CALL",
                    "output": "0x0000000000000000000000000000000000000000000000000000000000000001",
                    "revert": false,
                    "revertMessage": "",
                    "selector": "0xa9059cbb",
                    "status": true,
                    "value": "0"
                },
                "nodeType": 0
            },
            "1": {
                "event": {
                    "contract": "0xc02aaa39b223fe8d0a0e5c4f27ead9083c756cc2",
                    "decodedLog": {
                        "name": "Transfer",
                        "params": [
                            {
                                "name": "src",
                                "type": "address",
                                "value": "0x83e84cc194e595b43dcedfbffc3e0358366307f1"
                            },
                            {
                                "name": "dst",
                                "type": "address",
                                "value": "0xe78388b4ce79068e89bf8aa7f218ef6b9ab0e9d0"
                            },
                            {
                                "decimalAvailable": true,
                                "name": "wad",
                                "type": "uint256",
                                "value": "1,239,600,000,000,000,000"
                            }
                        ],
                        "signature": "Transfer(address,address,uint256)"
                    },
                    "id": 1,
                    "logData": "0x0000000000000000000000000000000000000000000000001133f1a1df930000",
                    "logDecoded": true,
                    "operation": "EVENT",
                    "revert": false,
                    "status": true,
                    "topics": [
                        "0xddf252ad1be2c89b69c2b068fc378daa952ba7f163c4a11628f55a4df523b3ef",
                        "0x00000000000000000000000083e84cc194e595b43dcedfbffc3e0358366307f1",
                        "0x000000000000000000000000e78388b4ce79068e89bf8aa7f218ef6b9ab0e9d0"
                    ]
                },
                "nodeType": 1
            }
        },
        "gasFlame": [
            {
                "children": [
                    {
                        "children": [
                            {
                                "children": [],
                                "depth": 0,
                                "name": "Initial Gas",
                                "value": 21632
                            },
                            {
                                "children": [],
                                "depth": 0,
                                "name": "Executed Gas",
                                "value": 12862
                            }
                        ],
                        "depth": -1,
                        "name": "Actual Gas Used",
                        "value": 29694
                    },
                    {
                        "children": [],
                        "depth": -1,
                        "name": "Refunded Gas",
                        "value": 4800
                    }
                ],
                "depth": -2,
                "name": "Total Gas",
                "value": 34494
            }
        ],
        "isConfirmed": true,
        "mainTrace": [
            {
                "children": [
                    {
                        "children": [
                            {
                                "children": [],
                                "depth": 1,
                                "id": 1,
                                "order": 1
                            }
                        ],
                        "depth": 0,
                        "id": 0,
                        "order": 0
                    }
                ],
                "depth": -1,
                "id": -1,
                "order": -1
            }
        ],
        "mainTraceNodeCount": 2,
        "parentIdMap": {
            "0": -1,
            "1": 0
        },
        "tidyTrace": [
            {
                "children": [
                    {
                        "children": [
                            {
                                "children": [],
                                "depth": 1,
                                "id": 1,
                                "order": 1
                            }
                        ],
                        "depth": 0,
                        "id": 0,
                        "order": 0
                    }
                ],
                "depth": -1,
                "id": -1,
                "order": -1
            }
        ],
        "tidyTraceNodeCount": 2
    },
    "state_change": {
        "stateChanges": [
            {
                "address": "0xc02aaa39b223fe8d0a0e5c4f27ead9083c756cc2",
                "erc": "ERC-20",
                "slots": [
                    {
                        "current": "0x000000000000000000000000000000000000000000000a1ac8c3c3774949e84f",
                        "key": "0xdf584ab71ef1cbd05a74b3472a755358ae5f03a6b9b11d69e64e9a916541cb3d",
                        "prev": "0x000000000000000000000000000000000000000000000a1ab78fd1d569b6e84f"
                    },
                    {
                        "current": "0x0000000000000000000000000000000000000000000000000000000000000000",
                        "key": "0x67c764be83ca0feb7f6048a30899b02254b081fbd2cf526f824b2b4a4e8dd806",
                        "prev": "0x0000000000000000000000000000000000000000000000001133f1a1df930000"
                    }
                ],
                "storageVariables": [
                    {
                        "name": "balanceOf",
                        "type": "mapping(address => uint256)",
                        "value": {
                            "pairs": [
                                {
                                    "key": "0x83e84cc194e595b43dcedfbffc3e0358366307f1",
                                    "value": {
                                        "current": "0",
                                        "prev": "1239600000000000000",
                                        "typeTag": 1
                                    }
                                },
                                {
                                    "key": "0xe78388b4ce79068e89bf8aa7f218ef6b9ab0e9d0",
                                    "value": {
                                        "current": "47717746795958042749007",
                                        "prev": "47716507195958042749007",
                                        "typeTag": 1
                                    }
                                }
                            ],
                            "typeTag": 4
                        }
                    }
                ]
            }
        ]
    }
}