{
    "balance_change": {
        "balanceChanges": [
            {
                "account": "0x0000000000000000000000000000000000000000",
                "assets": [
                    {
                        "address": "0xb7e548c4f133adbb910914d7529d5cb00c2e9051",
                        "amount": "1",
                        "iconUrl": "",
                        "isERC1155": false,
                        "isERC721": true,
                        "sign": false,
                        "tokenID": "228209",
                        "value": ""
                    }
                ]
            },
            {
                "account": "0xfade6b3f5a0474a201c57f1f23eb6cb37e5ab435",
                "assets": [
                    {
                        "address": "0xb7e548c4f133adbb910914d7529d5cb00c2e9051",
                        "amount": "1",
                        "iconUrl": "",
                        "isERC1155": false,
                        "isERC721": true,
                        "sign": true,
                        "tokenID": "228209",
                        "value": ""
                    }
                ]
            }
        ]
    },
    "profile": {
        "basic_info": {
            "baseFee": "5.73540234",
            "blockNumber": 19771363,
            "callData": "0xac5288ad0000000000000000000000000000000000000000000000000000000000000001000000000000000000000000b7e548c4f133adbb910914d7529d5cb00c2e90510000000000000000000000000000000000000000000000000000000000037b710000000000000000000000000000000000000000000000000000000000000001000000000000000000000000660539a1ab24c281538a4d370000000000037b7100000000000000000000000000000000000000000000000000000000000000010000000000000000000000000000000000000000000000000000000000000000000000000000000000000000000000000000000000000000000000000000000100000000000000000000000000000000000000000000000000000000000000000000000000000000000000000000000000000000000000000000000000000000000000000000000000000000fea6f9fc76bc180ebbbfff0abdf739ad7df67ff8000000000000000000000000000000000000000000000000000000006631802900000000000000000000000000000000000000000000000000000000000001a000000000000000000000000000000000000000000000000000000000000000410887614482d5f20f1273a3fcc9143a0f2a97b537852833cc3bb5b88a8af2c1562770aa5f65b4445072d849185ac39d551c113796982ca16ce3661356b71f84251b00000000000000000000000000000000000000000000000000000000000000",
            "debugEnable": true,
            "errorInfo": "",
            "eventCount": 2,
            "feeRecipient": "0x4838b106fce9647bdf1e7877bf73ce8b0bad5f97",
            "formatValue": "0",
            "gasLimit": 165335,
            "gasPrice": "5.800864399",
            "gasUsed": 163095,
            "intTxnCount": 8,
            "internalRevert": false,
            "internalRevertMessage": "",
            "isContractCreation": false,
            "isFlashloan": false,
            "maxFee": "7.556177269",
            "nonce": 0,
            "overwritedBlockNumber": -1,
            "priorityFee": "0.065462059",
            "receiver": "0xaacfdf323b44d8b27319249ca3ee1b3aa05083b2",
            "revertMessage": "",
            "sender": "0xfade6b3f5a0474a201c57f1f23eb6cb37e5ab435",
            "simulationEnable": true,
            "sourceTxnHash": "0xdbed69d4a97b65680a6ac39d5a1a1bbf42afce9f3433cab1919ca78f9b8e7fd4",
            "status": true,
            "timestamp": "2024-04-30T23:20:35Z",
            "transactionFee": "0.000946091979154905",
            "txnHash": "0xdbed69d4a97b65680a6ac39d5a1a1bbf42afce9f3433cab1919ca78f9b8e7fd4",
            "txnIndex": 51,
            "type": 2,
            "value": "0"
        },
        "fund_flow": [
            {
                "amount": "1",
                "from": "0x0000000000000000000000000000000000000000",
                "id": 1,
                "isERC1155": false,
                "isERC721": true,
                "isReverted": false,
                "order": 1,
                "to": "0xfade6b3f5a0474a201c57f1f23eb6cb37e5ab435",
                "token": "0xb7e548c4f133adbb910914d7529d5cb00c2e9051",
                "tokenID": "228209"
            }
        ],
        "token_infos": [
            {
                "address": "0xc02aaa39b223fe8d0a0e5c4f27ead9083c756cc2",
                "decimals": 18
            },
            {
                "address": "0xeeeeeeeeeeeeeeeeeeeeeeeeeeeeeeeeeeeeeeee",
                "decimals": 18
            }
        ]
    },
    "address_label": {
        "labels": [
            {
                "address": "0xeeeeeeeeeeeeeeeeeeeeeeeeeeeeeeeeeeeeeeee",
                "label": "Ether"
            },
            {
                "address": "0xaacfdf323b44d8b27319249ca3ee1b3aa05083b2",
                "label": "PalioAI Gen0: Whitelist Minter"
            },
            {
                "address": "0x9cbf164420286357b268674f6bf0fa29800d59ae",
                "label": "TokenGateway"
            },
            {
                "address": "0x0000000000000000000000000000000000000002",
                "label": "Precompiled"
            },
            {
                "address": "0x0000000000000000000000000000000000000004",
                "label": "Precompiled"
            },
            {
                "address": "0x0000000000000000000000000000000000000000",
                "label": "Null Address"
            },
            {
                "address": "0xb7e548c4f133adbb910914d7529d5cb00c2e9051",
                "label": "BasicERC721CWithBasicRoyalties"
            },
            {
                "address": "0x7127f0feaef8143241a5fac62ac5b7be02ef26a9",
                "label": "TransparentUpgradeableProxy"
            },
            {
                "address": "0x0000000000000000000000000000000000000001",
                "label": "Precompiled"
            },
            {
                "address": "0x0000000000000000000000000000000000000003",
                "label": "Precompiled"
            }
        ]
    },
    "trace": {
        "accountLabels": null,
        "dataMap": {
            "-1": {
                "invocation": {
                    "address": "0xfade6b3f5a0474a201c57f1f23eb6cb37e5ab435",
                    "callData": "",
                    "decodedMethod": null,
                    "errorInfo": "",
                    "fromAddress": "",
                    "gasUsed": 0,
                    "id": -1,
                    "methodDecoded": false,
                    "operation": "",
                    "output": "",
                    "revert": false,
                    "revertMessage": "",
                    "selector": "",
                    "status": false,
                    "value": ""
                },
                "nodeType": 0
            },
            "0": {
                "invocation": {
                    "address": "0xaacfdf323b44d8b27319249ca3ee1b3aa05083b2",
                    "callData": "0x0000000000000000000000000000000000000000000000000000000000000001000000000000000000000000b7e548c4f133adbb910914d7529d5cb00c2e90510000000000000000000000000000000000000000000000000000000000037b710000000000000000000000000000000000000000000000000000000000000001000000000000000000000000660539a1ab24c281538a4d370000000000037b7100000000000000000000000000000000000000000000000000000000000000010000000000000000000000000000000000000000000000000000000000000000000000000000000000000000000000000000000000000000000000000000000100000000000000000000000000000000000000000000000000000000000000000000000000000000000000000000000000000000000000000000000000000000000000000000000000000000fea6f9fc76bc180ebbbfff0abdf739ad7df67ff8000000000000000000000000000000000000000000000000000000006631802900000000000000000000000000000000000000000000000000000000000001a000000000000000000000000000000000000000000000000000000000000000410887614482d5f20f1273a3fcc9143a0f2a97b537852833cc3bb5b88a8af2c1562770aa5f65b4445072d849185ac39d551c113796982ca16ce3661356b71f84251b00000000000000000000000000000000000000000000000000000000000000",
                    "decodedMethod": {
                        "callParams": [
                            {
                                "name": "_tokenType",
                                "type": "bool",
                                "value": true
                            },
                            {
                                "name": "_tokenAddress",
                                "type": "address",
                                "value": "0xb7e548c4f133adbb910914d7529d5cb00c2e9051"
                            },
                            {
                                "name": "_tokenId",
                                "type": "uint256",
                                "value": "228,209"
                            },
                            {
                                "name": "_amount",
                                "type": "uint256",
                                "value": "1"
                            },
                            {
                                "name": "_limits",
                                "type": "uint256[4]",
                                "value": [
                                    "582,433,582,763,272,324,192,518,222,332,749,163,384,797,363,057",
                                    "1",
                                    "0",
                                    "1"
                                ]
                            },
                            {
                                "name": "_paymentTokenAddress",
                                "type": "address",
                                "value": "0x0000000000000000000000000000000000000000"
                            },
                            {
                                "name": "_paymentTokenAmount",
                                "type": "uint256",
                                "value": "0"
                            },
                            {
                                "name": "_payeeAddress",
                                "type": "address",
                                "value": "0xfea6f9fc76bc180ebbbfff0abdf739ad7df67ff8"
                            },
                            {
                                "name": "_deadline",
                                "type": "uint256",
                                "value": "1,714,520,105"
                            },
                            {
                                "name": "_sig",
                                "type": "bytes",
                                "value": "0x0887614482d5f20f1273a3fcc9143a0f2a97b537852833cc3bb5b88a8af2c1562770aa5f65b4445072d849185ac39d551c113796982ca16ce3661356b71f84251b"
                            }
                        ],
                        "constructorArguments": "",
                        "name": "mintWithSig",
                        "returnParams": [],
                        "signature": "mintWithSig(bool,address,uint256,uint256,uint256[4],address,uint256,address,uint256,bytes)"
                    },
                    "errorInfo": "",
                    "fromAddress": "0xfade6b3f5a0474a201c57f1f23eb6cb37e5ab435",
                    "gasUsed": 163095,
                    "id": 0,
                    "methodDecoded": true,
                    "operation": "CALL",
                    "output": "",
                    "revert": false,
                    "revertMessage": "",
                    "selector": "0xac5288ad",
                    "status": true,
                    "value": "0"
                },
                "nodeType": 0
            },
            "1": {
                "invocation": {
                    "address": "0x7127f0feaef8143241a5fac62ac5b7be02ef26a9",
                    "callData": "0x000000000000000000000000b7e548c4f133adbb910914d7529d5cb00c2e9051",
                    "decodedMethod": {
                        "callParams": [
                            {
                                "name": "_tokenContract",
                                "type": "address",
                                "value": "0xb7e548c4f133adbb910914d7529d5cb00c2e9051"
                            }
                        ],
                        "constructorArguments": "",
                        "name": "nftManager",
                        "returnParams": [
                            {
                                "name": "",
                                "type": "address",
                                "value": "0x0abe40ab7054bf0d408d8ef545d8bd99e5df45c5"
                            }
                        ],
                        "signature": "nftManager(address)"
                    },
                    "errorInfo": "",
                    "fromAddress": "0xaacfdf323b44d8b27319249ca3ee1b3aa05083b2",
                    "gasUsed": 9808,
                    "id": 1,
                    "methodDecoded": true,
                    "operation": "STATICCALL",
                    "output": "0x0000000000000000000000000abe40ab7054bf0d408d8ef545d8bd99e5df45c5",
                    "revert": false,
                    "revertMessage": "",
                    "selector": "0x9cb9f9d3",
                    "status": true,
                    "value": "0"
                },
                "nodeType": 0
            },
            "10": {
                "event": {
                    "contract": "0xaacfdf323b44d8b27319249ca3ee1b3aa05083b2",
                    "decodedLog": {
                        "name": "Mint",
                        "params": [
                            {
                                "name": "recipient",
                                "type": "address",
                                "value": "0xfade6b3f5a0474a201c57f1f23eb6cb37e5ab435"
                            },
                            {
                                "name": "tokenAddress",
                                "type": "address",
                                "value": "0xb7e548c4f133adbb910914d7529d5cb00c2e9051"
                            },
                            {
                                "name": "tokenId",
                                "type": "uint256",
                                "value": "228,209"
                            },
                            {
                                "name": "amount",
                                "type": "uint256",
                                "value": "1"
                            },
                            {
                                "name": "paymentTokenAddress",
                                "type": "address",
                                "value": "0x0000000000000000000000000000000000000000"
                            },
                            {
                                "name": "paymentTokenAmount",
                                "type": "uint256",
                                "value": "0"
                            },
                            {
                                "name": "payee",
                                "type": "address",
                                "value": "0xfea6f9fc76bc180ebbbfff0abdf739ad7df67ff8"
                            }
                        ],
                        "signature": "Mint(address,address,uint256,uint256,address,uint256,address)"
                    },
                    "id": 10,
                    "logData": "0x000000000000000000000000000000000000000000000000000000000000000100000000000000000000000000000000000000000000000000000000000000000000000000000000000000000000000000000000000000000000000000000000000000000000000000000000fea6f9fc76bc180ebbbfff0abdf739ad7df67ff8",
                    "logDecoded": true,
                    "operation": "EVENT",
                    "revert": false,
                    "status": true,
                    "topics": [
                        "0x9458eeddaedbaa3c544375f79a44d8ce0bd00529626bc2af7b2fffbf5dcf0c3c",
                        "0x000000000000000000000000fade6b3f5a0474a201c57f1f23eb6cb37e5ab435",
                        "0x000000000000000000000000b7e548c4f133adbb910914d7529d5cb00c2e9051",
                        "0x0000000000000000000000000000000000000000000000000000000000037b71"
                    ]
                },
                "nodeType": 1
            },
            "2": {
                "invocation": {
                    "address": "0x9cbf164420286357b268674f6bf0fa29800d59ae",
                    "callData": "0x000000000000000000000000b7e548c4f133adbb910914d7529d5cb00c2e9051",
                    "decodedMethod": {
                        "callParams": [
                            {
                                "name": "_tokenContract",
                                "type": "address",
                                "value": "0xb7e548c4f133adbb910914d7529d5cb00c2e9051"
                            }
                        ],
                        "constructorArguments": "",
                        "name": "nftManager",
                        "returnParams": [
                            {
                                "name": "",
                                "type": "address",
                                "value": "0x0abe40ab7054bf0d408d8ef545d8bd99e5df45c5"
                            }
                        ],
                        "signature": "nftManager(address)"
                    },
                    "errorInfo": "",
                    "fromAddress": "0x7127f0feaef8143241a5fac62ac5b7be02ef26a9",
                    "gasUsed": 2648,
                    "id": 2,
                    "methodDecoded": true,
                    "operation": "DELEGATECALL",
                    "output": "0x0000000000000000000000000abe40ab7054bf0d408d8ef545d8bd99e5df45c5",
                    "revert": false,
                    "revertMessage": "",
                    "selector": "0x9cb9f9d3",
                    "status": true,
                    "value": "0"
                },
                "nodeType": 0
            },
            "3": {
                "invocation": {
                    "address": "0x0000000000000000000000000000000000000001",
                    "callData": "0xec3739388201544037fe2b8e81f24eaacdaa30e931bfc86c89953f30000000000000000000000000000000000000000000000000000000000000001b0887614482d5f20f1273a3fcc9143a0f2a97b537852833cc3bb5b88a8af2c1562770aa5f65b4445072d849185ac39d551c113796982ca16ce3661356b71f8425",
                    "decodedMethod": {
                        "callParams": [
                            {
                                "name": "hash",
                                "type": "bytes32",
                                "value": "0xc99e6c78ec3739388201544037fe2b8e81f24eaacdaa30e931bfc86c89953f30"
                            },
                            {
                                "name": "v",
                                "type": "uint256",
                                "value": "27"
                            },
                            {
                                "name": "r",
                                "type": "bytes32",
                                "value": "0x0887614482d5f20f1273a3fcc9143a0f2a97b537852833cc3bb5b88a8af2c156"
                            },
                            {
                                "name": "s",
                                "type": "bytes32",
                                "value": "0x2770aa5f65b4445072d849185ac39d551c113796982ca16ce3661356b71f8425"
                            }
                        ],
                        "constructorArguments": "",
                        "name": "ecrecover",
                        "returnParams": [
                            {
                                "name": "",
                                "type": "address",
                                "value": "0x0abe40ab7054bf0d408d8ef545d8bd99e5df45c5"
                            }
                        ],
                        "signature": "ecrecover(bytes32,uint256,bytes32,bytes32)"
                    },
                    "errorInfo": "",
                    "fromAddress": "0xaacfdf323b44d8b27319249ca3ee1b3aa05083b2",
                    "gasUsed": 3000,
                    "id": 3,
                    "methodDecoded": true,
                    "operation": "STATICCALL",
                    "output": "0x0000000000000000000000000abe40ab7054bf0d408d8ef545d8bd99e5df45c5",
                    "revert": false,
                    "revertMessage": "",
                    "selector": "0xc99e6c78",
                    "status": true,
                    "value": "0"
                },
                "nodeType": 0
            },
            "4": {
                "invocation": {
                    "address": "0xfea6f9fc76bc180ebbbfff0abdf739ad7df67ff8",
                    "callData": "0x",
                    "decodedMethod": null,
                    "errorInfo": "",
                    "fromAddress": "0xaacfdf323b44d8b27319249ca3ee1b3aa05083b2",
                    "gasUsed": 0,
                    "id": 4,
                    "methodDecoded": false,
                    "operation": "CALL",
                    "output": "",
                    "revert": false,
                    "revertMessage": "",
                    "selector": "fallback",
                    "status": true,
                    "value": "0"
                },
                "nodeType": 0
            },
            "5": {
                "invocation": {
                    "address": "0x7127f0feaef8143241a5fac62ac5b7be02ef26a9",
                    "callData": "0x000000000000000000000000b7e548c4f133adbb910914d7529d5cb00c2e9051000000000000000000000000fade6b3f5a0474a201c57f1f23eb6cb37e5ab4350000000000000000000000000000000000000000000000000000000000037b71",
                    "decodedMethod": {
                        "callParams": [
                            {
                                "name": "_tokenContract",
                                "type": "address",
                                "value": "0xb7e548c4f133adbb910914d7529d5cb00c2e9051"
                            },
                            {
                                "name": "_recipient",
                                "type": "address",
                                "value": "0xfade6b3f5a0474a201c57f1f23eb6cb37e5ab435"
                            },
                            {
                                "name": "_tokenId",
                                "type": "uint256",
                                "value": "228,209"
                            }
                        ],
                        "constructorArguments": "",
                        "name": "ERC721_mint",
                        "returnParams": [],
                        "signature": "ERC721_mint(address,address,uint256)"
                    },
                    "errorInfo": "",
                    "fromAddress": "0xaacfdf323b44d8b27319249ca3ee1b3aa05083b2",
                    "gasUsed": 64965,
                    "id": 5,
                    "methodDecoded": true,
                    "operation": "CALL",
                    "output": "",
                    "revert": false,
                    "revertMessage": "",
                    "selector": "0xec1b14ab",
                    "status": true,
                    "value": "0"
                },
                "nodeType": 0
            },
            "6": {
                "invocation": {
                    "address": "0x9cbf164420286357b268674f6bf0fa29800d59ae",
                    "callData": "0x000000000000000000000000b7e548c4f133adbb910914d7529d5cb00c2e9051000000000000000000000000fade6b3f5a0474a201c57f1f23eb6cb37e5ab4350000000000000000000000000000000000000000000000000000000000037b71",
                    "decodedMethod": {
                        "callParams": [
                            {
                                "name": "_tokenContract",
                                "type": "address",
                                "value": "0xb7e548c4f133adbb910914d7529d5cb00c2e9051"
                            },
                            {
                                "name": "_recipient",
                                "type": "address",
                                "value": "0xfade6b3f5a0474a201c57f1f23eb6cb37e5ab435"
                            },
                            {
                                "name": "_tokenId",
                                "type": "uint256",
                                "value": "228,209"
                            }
                        ],
                        "constructorArguments": "",
                        "name": "ERC721_mint",
                        "returnParams": [],
                        "signature": "ERC721_mint(address,address,uint256)"
                    },
                    "errorInfo": "",
                    "fromAddress": "0x7127f0feaef8143241a5fac62ac5b7be02ef26a9",
                    "gasUsed": 64299,
                    "id": 6,
                    "methodDecoded": true,
                    "operation": "DELEGATECALL",
                    "output": "",
                    "revert": false,
                    "revertMessage": "",
                    "selector": "0xec1b14ab",
                    "status": true,
                    "value": "0"
                },
                "nodeType": 0
            },
            "7": {
                "invocation": {
                    "address": "0xb7e548c4f133adbb910914d7529d5cb00c2e9051",
                    "callData": "0x",
                    "decodedMethod": {
                        "callParams": [],
                        "constructorArguments": "",
                        "name": "owner",
                        "returnParams": [
                            {
                                "name": "",
                                "type": "address",
                                "value": "0x3419467128a7f9b22e8e9f382178fcec451afc43"
                            }
                        ],
                        "signature": "owner()"
                    },
                    "errorInfo": "",
                    "fromAddress": "0x7127f0feaef8143241a5fac62ac5b7be02ef26a9",
                    "gasUsed": 2409,
                    "id": 7,
                    "methodDecoded": true,
                    "operation": "STATICCALL",
                    "output": "0x0000000000000000000000003419467128a7f9b22e8e9f382178fcec451afc43",
                    "revert": false,
                    "revertMessage": "",
                    "selector": "0x8da5cb5b",
                    "status": true,
                    "value": "0"
                },
                "nodeType": 0
            },
            "8": {
                "invocation": {
                    "address": "0xb7e548c4f133adbb910914d7529d5cb00c2e9051",
                    "callData": "0x000000000000000000000000fade6b3f5a0474a201c57f1f23eb6cb37e5ab4350000000000000000000000000000000000000000000000000000000000037b71",
                    "decodedMethod": {
                        "callParams": [
                            {
                                "name": "to",
                                "type": "address",
                                "value": "0xfade6b3f5a0474a201c57f1f23eb6cb37e5ab435"
                            },
                            {
                                "name": "tokenId",
                                "type": "uint256",
                                "value": "228,209"
                            }
                        ],
                        "constructorArguments": "",
                        "name": "mint",
                        "returnParams": [],
                        "signature": "mint(address,uint256)"
                    },
                    "errorInfo": "",
                    "fromAddress": "0x7127f0feaef8143241a5fac62ac5b7be02ef26a9",
                    "gasUsed": 53243,
                    "id": 8,
                    "methodDecoded": true,
                    "operation": "CALL",
                    "output": "",
                    "revert": false,
                    "revertMessage": "",
                    "selector": "0x40c10f19",
                    "status": true,
                    "value": "0"
                },
                "nodeType": 0
            },
            "9": {
                "event": {
                    "contract": "0xb7e548c4f133adbb910914d7529d5cb00c2e9051",
                    "decodedLog": {
                        "name": "Transfer",
                        "params": [
                            {
                                "name": "from",
                                "type": "address",
                                "value": "0x0000000000000000000000000000000000000000"
                            },
                            {
                                "name": "to",
                                "type": "address",
                                "value": "0xfade6b3f5a0474a201c57f1f23eb6cb37e5ab435"
                            },
                            {
                                "decimalAvailable": true,
                                "name": "tokenId",
                                "type": "uint256",
                                "value": "228,209"
                            }
                        ],
                        "signature": "Transfer(address,address,uint256)"
                    },
                    "id": 9,
                    "logData": "0x",
                    "logDecoded": true,
                    "operation": "EVENT",
                    "revert": false,
                    "status": true,
                    "topics": [
                        "0xddf252ad1be2c89b69c2b068fc378daa952ba7f163c4a11628f55a4df523b3ef",
                        "0x0000000000000000000000000000000000000000000000000000000000000000",
                        "0x000000000000000000000000fade6b3f5a0474a201c57f1f23eb6cb37e5ab435",
                        "0x0000000000000000000000000000000000000000000000000000000000037b71"
                    ]
                },
                "nodeType": 1
            }
        },
        "gasFlame": [
            {
                "children": [
                    {
                        "children": [
                            {
                                "children": [],
                                "depth": 0,
                                "name": "Initial Gas",
                                "value": 24848
                            },
                            {
                                "children": [
                                    {
                                        "children": [
                                            {
                                                "children": [],
                                                "depth": 2,
                                                "name": "nftManager",
                                                "value": 2648
                                            }
                                        ],
                                        "depth": 1,
                                        "name": "nftManager",
                                        "value": 9808
                                    },
                                    {
                                        "children": [],
                                        "depth": 1,
                                        "name": "ecrecover",
                                        "value": 3000
                                    },
                                    {
                                        "children": [],
                                        "depth": 1,
                                        "name": "fallback",
                                        "value": 0
                                    },
                                    {
                                        "children": [
                                            {
                                                "children": [
                                                    {
                                                        "children": [],
                                                        "depth": 3,
                                                        "name": "owner",
                                                        "value": 2409
                                                    },
                                                    {
                                                        "children": [],
                                                        "depth": 3,
                                                        "name": "mint",
                                                        "value": 53243
                                                    }
                                                ],
                                                "depth": 2,
                                                "name": "ERC721_mint",
                                                "value": 64299
                                            }
                                        ],
                                        "depth": 1,
                                        "name": "ERC721_mint",
                                        "value": 64965
                                    }
                                ],
                                "depth": 0,
                                "name": "Executed Gas",
                                "value": 138247
                            }
                        ],
                        "depth": -1,
                        "name": "Actual Gas Used",
                        "value": 163095
                    },
                    {
                        "children": [],
                        "depth": -1,
                        "name": "Refunded Gas",
                        "value": 0
                    }
                ],
                "depth": -2,
                "name": "Total Gas",
                "value": 163095
            }
        ],
        "isConfirmed": true,
        "mainTrace": [
            {
                "children": [
                    {
                        "children": [
                            {
                                "children": [
                                    {
                                        "children": [],
                                        "depth": 2,
                                        "id": 2,
                                        "order": 2
                                    }
                                ],
                                "depth": 1,
                                "id": 1,
                                "order": 1
                            },
                            {
                                "children": [],
                                "depth": 1,
                                "id": 3,
                                "order": 3
                            },
                            {
                                "children": [],
                                "depth": 1,
                                "id": 4,
                                "order": 4
                            },
                            {
                                "children": [
                                    {
                                        "children": [
                                            {
                                                "children": [],
                                                "depth": 3,
                                                "id": 7,
                                                "order": 7
                                            },
                                            {
                                                "children": [
                                                    {
                                                        "children": [],
                                                        "depth": 4,
                                                        "id": 9,
                                                        "order": 9
                                                    }
                                                ],
                                                "depth": 3,
                                                "id": 8,
                                                "order": 8
                                            }
                                        ],
                                        "depth": 2,
                                        "id": 6,
                                        "order": 6
                                    }
                                ],
                                "depth": 1,
                                "id": 5,
                                "order": 5
                            },
                            {
                                "children": [],
                                "depth": 1,
                                "id": 10,
                                "order": 10
                            }
                        ],
                        "depth": 0,
                        "id": 0,
                        "order": 0
                    }
                ],
                "depth": -1,
                "id": -1,
                "order": -1
            }
        ],
        "mainTraceNodeCount": 11,
        "parentIdMap": {
            "0": -1,
            "1": 0,
            "10": 0,
            "2": 1,
            "3": 0,
            "4": 0,
            "5": 0,
            "6": 5,
            "7": 6,
            "8": 6,
            "9": 8
        },
        "tidyTrace": [
            {
                "children": [
                    {
                        "children": [
                            {
                                "children": [],
                                "depth": 1,
                                "id": 4,
                                "order": 4
                            },
                            {
                                "children": [
                                    {
                                        "children": [
                                            {
                                                "children": [
                                                    {
                                                        "children": [],
                                                        "depth": 4,
                                                        "id": 9,
                                                        "order": 9
                                                    }
                                                ],
                                                "depth": 3,
                                                "id": 8,
                                                "order": 8
                                            }
                                        ],
                                        "depth": 2,
                                        "id": 6,
                                        "order": 6
                                    }
                                ],
                                "depth": 1,
                                "id": 5,
                                "order": 5
                            },
                            {
                                "children": [],
                                "depth": 1,
                                "id": 10,
                                "order": 10
                            }
                        ],
                        "depth": 0,
                        "id": 0,
                        "order": 0
                    }
                ],
                "depth": -1,
                "id": -1,
                "order": -1
            }
        ],
        "tidyTraceNodeCount": 7
    },
    "state_change": {
        "stateChanges": [
            {
                "address": "0xaacfdf323b44d8b27319249ca3ee1b3aa05083b2",
                "erc": "",
                "slots": [
                    {
                        "current": "0x0000000000000000000000000000000000000000000000000000000000000001",
                        "key": "0x30fb812fa5c11e1aa37796e457a8fc581dc438a9f92f442fe398bdeef7fe9805",
                        "prev": "0x0000000000000000000000000000000000000000000000000000000000000000"
                    },
                    {
                        "current": "0x0000000000000000000000000000000000000000000000000000000000000001",
                        "key": "0xc375ca4533079bfc922c8550d0af8c42e4ff54c9c244db13e43b41147c22083d",
                        "prev": "0x0000000000000000000000000000000000000000000000000000000000000000"
                    }
                ],
                "storageVariables": [
                    {
                        "name": "mintedBuyerId",
                        "type": "mapping(address => mapping(uint256 => uint256))",
                        "value": {
                            "pairs": [
                                {
                                    "key": "0xfade6b3f5a0474a201c57f1f23eb6cb37e5ab435",
                                    "value": {
                                        "pairs": [
                                            {
                                                "key": "582433582763272324192518222332749163384797363057",
                                                "value": {
                                                    "current": "1",
                                                    "prev": "0",
                                                    "typeTag": 1
                                                }
                                            }
                                        ],
                                        "typeTag": 4
                                    }
                                }
                            ],
                            "typeTag": 4
                        }
                    },
                    {
                        "name": "mintedTokenId",
                        "type": "mapping(address => mapping(uint256 => mapping(uint256 => uint256)))",
                        "value": {
                            "pairs": [
                                {
                                    "key": "0xb7e548c4f133adbb910914d7529d5cb00c2e9051",
                                    "value": {
                                        "pairs": [
                                            {
                                                "key": "228209",
                                                "value": {
                                                    "pairs": [
                                                        {
                                                            "key": "0",
                                                            "value": {
                                                                "current": "1",
                                                                "prev": "0",
                                                                "typeTag": 1
                                                            }
                                                        }
                                                    ],
                                                    "typeTag": 4
                                                }
                                            }
                                        ],
                                        "typeTag": 4
                                    }
                                }
                            ],
                            "typeTag": 4
                        }
                    }
                ]
            },
            {
                "address": "0xb7e548c4f133adbb910914d7529d5cb00c2e9051",
                "erc": "ERC-721",
                "slots": [
                    {
                        "current": "0x0000000000000000000000000000000000000000000000000000000000000001",
                        "key": "0x1ba060076657cb3fb05bc1e8caabdca65c8c8fe6fafda947549861f892534edb",
                        "prev": "0x0000000000000000000000000000000000000000000000000000000000000000"
                    },
                    {
                        "current": "0x000000000000000000000000fade6b3f5a0474a201c57f1f23eb6cb37e5ab435",
                        "key": "0x784bace7347af8e9ac50c0f5fb813c111a0bb1994e754cf02410c30793b8c2f3",
                        "prev": "0x0000000000000000000000000000000000000000000000000000000000000000"
                    }
                ],
                "storageVariables": [
                    {
                        "name": "_balances",
                        "type": "mapping(address => uint256)",
                        "value": {
                            "pairs": [
                                {
                                    "key": "0xfade6b3f5a0474a201c57f1f23eb6cb37e5ab435",
                                    "value": {
                                        "current": "1",
                                        "prev": "0",
                                        "typeTag": 1
                                    }
                                }
                            ],
                            "typeTag": 4
                        }
                    },
                    {
                        "name": "_owners",
                        "type": "mapping(uint256 => address)",
                        "value": {
                            "pairs": [
                                {
                                    "key": "228209",
                                    "value": {
                                        "current": "0xfade6b3f5a0474a201c57f1f23eb6cb37e5ab435",
                                        "prev": "0x0000000000000000000000000000000000000000",
                                        "typeTag": 1
                                    }
                                }
                            ],
                            "typeTag": 4
                        }
                    }
                ]
            }
        ]
    }
}