{
    "balance_change": {
        "balanceChanges": [
            {
                "account": "0x34e226af35775bda894160610dc23d7cd29266ea",
                "assets": [
                    {
                        "address": "0x763186eb8d4856d536ed4478302971214febc6a9",
                        "amount": "2,500,000",
                        "iconUrl": "",
                        "isERC1155": false,
                        "isERC721": false,
                        "sign": false,
                        "value": ""
                    }
                ]
            },
            {
                "account": "0xfd648cc72f1b4e71cbdda7a0a91fe34d32abd656",
                "assets": [
                    {
                        "address": "0x763186eb8d4856d536ed4478302971214febc6a9",
                        "amount": "2,500,000",
                        "iconUrl": "",
                        "isERC1155": false,
                        "isERC721": false,
                        "sign": true,
                        "value": ""
                    }
                ]
            }
        ]
    },
    "profile": {
        "basic_info": {
            "baseFee": "",
            "blockNumber": 10963883,
            "callData": "0x3ef13367000000000000000000000000763186eb8d4856d536ed4478302971214febc6a9",
            "debugEnable": true,
            "errorInfo": "",
            "eventCount": 2,
            "feeRecipient": "0xd224ca0c819e8e97ba0136b3b95ceff503b79f53",
            "formatValue": "0",
            "gasLimit": 100000,
            "gasPrice": "115.200008192",
            "gasUsed": 32392,
            "intTxnCount": 3,
            "internalRevert": false,
            "internalRevertMessage": "",
            "isContractCreation": false,
            "isFlashloan": false,
            "maxFee": "",
            "nonce": 5725,
            "overwritedBlockNumber": -1,
            "priorityFee": "",
            "receiver": "0x34e226af35775bda894160610dc23d7cd29266ea",
            "revertMessage": "",
            "sender": "0xaa7ff2ac35dd89d4e36c0f371bb697c5a623212b",
            "simulationEnable": true,
            "sourceTxnHash": "0xdb3750807be65212c998f814532d6613d890a3bc360ab41cb1b262d3d4795788",
            "status": true,
            "timestamp": "2020-09-30T12:56:51Z",
            "transactionFee": "0.003731558665355264",
            "txnHash": "0xdb3750807be65212c998f814532d6613d890a3bc360ab41cb1b262d3d4795788",
            "txnIndex": 38,
            "type": 0,
            "value": "0"
        },
        "fund_flow": [
            {
                "amount": "2,500,000",
                "from": "0x34e226af35775bda894160610dc23d7cd29266ea",
                "id": 1,
                "isERC1155": false,
                "isERC721": false,
                "isReverted": false,
                "order": 1,
                "to": "0xfd648cc72f1b4e71cbdda7a0a91fe34d32abd656",
                "token": "0x763186eb8d4856d536ed4478302971214febc6a9"
            }
        ],
        "token_infos": [
            {
                "address": "0xc02aaa39b223fe8d0a0e5c4f27ead9083c756cc2",
                "decimals": 18
            },
            {
                "address": "0xeeeeeeeeeeeeeeeeeeeeeeeeeeeeeeeeeeeeeeee",
                "decimals": 18
            },
            {
                "address": "0x763186eb8d4856d536ed4478302971214febc6a9",
                "decimals": 18
            }
        ]
    },
    "address_label": {
        "labels": [
            {
                "address": "0x0000000000000000000000000000000000000004",
                "label": "Precompiled"
            },
            {
                "address": "0xeeeeeeeeeeeeeeeeeeeeeeeeeeeeeeeeeeeeeeee",
                "label": "Ether"
            },
            {
                "address": "0x763186eb8d4856d536ed4478302971214febc6a9",
                "label": "Better Betting: BETR Token"
            },
            {
                "address": "0xfd648cc72f1b4e71cbdda7a0a91fe34d32abd656",
                "label": "ChainX"
            },
            {
                "address": "0x0000000000000000000000000000000000000001",
                "label": "Precompiled"
            },
            {
                "address": "0x0000000000000000000000000000000000000002",
                "label": "Precompiled"
            },
            {
                "address": "0x0000000000000000000000000000000000000003",
                "label": "Precompiled"
            }
        ]
    },
    "trace": {
        "accountLabels": null,
        "dataMap": {
            "-1": {
                "invocation": {
                    "address": "0xaa7ff2ac35dd89d4e36c0f371bb697c5a623212b",
                    "callData": "",
                    "decodedMethod": null,
                    "errorInfo": "",
                    "fromAddress": "",
                    "gasUsed": 0,
                    "id": -1,
                    "methodDecoded": false,
                    "operation": "",
                    "output": "",
                    "revert": false,
                    "revertMessage": "",
                    "selector": "",
                    "status": false,
                    "value": ""
                },
                "nodeType": 0
            },
            "0": {
                "invocation": {
                    "address": "0x34e226af35775bda894160610dc23d7cd29266ea",
                    "callData": "0x000000000000000000000000763186eb8d4856d536ed4478302971214febc6a9",
                    "decodedMethod": {
                        "callParams": [
                            {
                                "name": "tokenContractAddress",
                                "type": "address",
                                "value": "0x763186eb8d4856d536ed4478302971214febc6a9"
                            }
                        ],
                        "constructorArguments": "",
                        "name": "flushTokens",
                        "returnParams": [],
                        "signature": "flushTokens(address)"
                    },
                    "errorInfo": "",
                    "fromAddress": "0xaa7ff2ac35dd89d4e36c0f371bb697c5a623212b",
                    "gasUsed": 32392,
                    "id": 0,
                    "methodDecoded": true,
                    "operation": "CALL",
                    "output": "",
                    "revert": false,
                    "revertMessage": "",
                    "selector": "0x3ef13367",
                    "status": true,
                    "value": "0"
                },
                "nodeType": 0
            },
            "1": {
                "invocation": {
                    "address": "0x7afb99f7f15a9fb7551d8ff50e66544a05a8a3c1",
                    "callData": "0x000000000000000000000000763186eb8d4856d536ed4478302971214febc6a9",
                    "decodedMethod": {
                        "callParams": [
                            {
                                "name": "tokenContractAddress",
                                "type": "address",
                                "value": "0x763186eb8d4856d536ed4478302971214febc6a9"
                            }
                        ],
                        "constructorArguments": "",
                        "name": "flushTokens",
                        "returnParams": [],
                        "signature": "flushTokens(address)"
                    },
                    "errorInfo": "",
                    "fromAddress": "0x34e226af35775bda894160610dc23d7cd29266ea",
                    "gasUsed": 25137,
                    "id": 1,
                    "methodDecoded": true,
                    "operation": "DELEGATECALL",
                    "output": "",
                    "revert": false,
                    "revertMessage": "",
                    "selector": "0x3ef13367",
                    "status": true,
                    "value": "0"
                },
                "nodeType": 0
            },
            "2": {
                "invocation": {
                    "address": "0x763186eb8d4856d536ed4478302971214febc6a9",
                    "callData": "0x00000000000000000000000034e226af35775bda894160610dc23d7cd29266ea",
                    "decodedMethod": {
                        "callParams": [
                            {
                                "name": "_owner",
                                "type": "address",
                                "value": "0x34e226af35775bda894160610dc23d7cd29266ea"
                            }
                        ],
                        "constructorArguments": "",
                        "name": "balanceOf",
                        "returnParams": [
                            {
                                "decimalAvailable": true,
                                "name": "",
                                "type": "uint256",
                                "value": "2,500,000,000,000,000,000,000,000"
                            }
                        ],
                        "signature": "balanceOf(address)"
                    },
                    "errorInfo": "",
                    "fromAddress": "0x34e226af35775bda894160610dc23d7cd29266ea",
                    "gasUsed": 1503,
                    "id": 2,
                    "methodDecoded": true,
                    "operation": "STATICCALL",
                    "output": "0x0000000000000000000000000000000000000000000211654585005212800000",
                    "revert": false,
                    "revertMessage": "",
                    "selector": "0x70a08231",
                    "status": true,
                    "value": "0"
                },
                "nodeType": 0
            },
            "3": {
                "invocation": {
                    "address": "0x763186eb8d4856d536ed4478302971214febc6a9",
                    "callData": "0x000000000000000000000000fd648cc72f1b4e71cbdda7a0a91fe34d32abd6560000000000000000000000000000000000000000000211654585005212800000",
                    "decodedMethod": {
                        "callParams": [
                            {
                                "name": "_to",
                                "type": "address",
                                "value": "0xfd648cc72f1b4e71cbdda7a0a91fe34d32abd656"
                            },
                            {
                                "decimalAvailable": true,
                                "name": "_value",
                                "type": "uint256",
                                "value": "2,500,000,000,000,000,000,000,000"
                            }
                        ],
                        "constructorArguments": "",
                        "name": "transfer",
                        "returnParams": [
                            {
                                "name": "",
                                "type": "bool",
                                "value": true
                            }
                        ],
                        "signature": "transfer(address,uint256)"
                    },
                    "errorInfo": "",
                    "fromAddress": "0x34e226af35775bda894160610dc23d7cd29266ea",
                    "gasUsed": 16950,
                    "id": 3,
                    "methodDecoded": true,
                    "operation": "CALL",
                    "output": "0x0000000000000000000000000000000000000000000000000000000000000001",
                    "revert": false,
                    "revertMessage": "",
                    "selector": "0xa9059cbb",
                    "status": true,
                    "value": "0"
                },
                "nodeType": 0
            },
            "4": {
                "event": {
                    "contract": "0x763186eb8d4856d536ed4478302971214febc6a9",
                    "decodedLog": {
                        "name": "Transfer",
                        "params": [
                            {
                                "name": "_from",
                                "type": "address",
                                "value": "0x34e226af35775bda894160610dc23d7cd29266ea"
                            },
                            {
                                "name": "_to",
                                "type": "address",
                                "value": "0xfd648cc72f1b4e71cbdda7a0a91fe34d32abd656"
                            },
                            {
                                "decimalAvailable": true,
                                "name": "_value",
                                "type": "uint256",
                                "value": "2,500,000,000,000,000,000,000,000"
                            }
                        ],
                        "signature": "Transfer(address,address,uint256)"
                    },
                    "id": 4,
                    "logData": "0x0000000000000000000000000000000000000000000211654585005212800000",
                    "logDecoded": true,
                    "operation": "EVENT",
                    "revert": false,
                    "status": true,
                    "topics": [
                        "0xddf252ad1be2c89b69c2b068fc378daa952ba7f163c4a11628f55a4df523b3ef",
                        "0x00000000000000000000000034e226af35775bda894160610dc23d7cd29266ea",
                        "0x000000000000000000000000fd648cc72f1b4e71cbdda7a0a91fe34d32abd656"
                    ]
                },
                "nodeType": 1
            },
            "5": {
                "event": {
                    "contract": "0x34e226af35775bda894160610dc23d7cd29266ea",
                    "decodedLog": null,
                    "id": 5,
                    "logData": "0x000000000000000000000000fd648cc72f1b4e71cbdda7a0a91fe34d32abd6560000000000000000000000000000000000000000000211654585005212800000",
                    "logDecoded": false,
                    "operation": "EVENT",
                    "revert": false,
                    "status": true,
                    "topics": [
                        "0x19edbdde7715c4ce8a0a9e85fa9fcfa9867c1f5330ebf18b31ba53cb1815d5bd"
                    ]
                },
                "nodeType": 1
            }
        },
        "gasFlame": [
            {
                "children": [
                    {
                        "children": [
                            {
                                "children": [],
                                "depth": 0,
                                "name": "Initial Gas",
                                "value": 21432
                            },
                            {
                                "children": [
                                    {
                                        "children": [
                                            {
                                                "children": [],
                                                "depth": 2,
                                                "name": "balanceOf",
                                                "value": 1503
                                            },
                                            {
                                                "children": [],
                                                "depth": 2,
                                                "name": "transfer",
                                                "value": 16950
                                            }
                                        ],
                                        "depth": 1,
                                        "name": "flushTokens",
                                        "value": 25137
                                    }
                                ],
                                "depth": 0,
                                "name": "Executed Gas",
                                "value": 25960
                            }
                        ],
                        "depth": -1,
                        "name": "Actual Gas Used",
                        "value": 32392
                    },
                    {
                        "children": [],
                        "depth": -1,
                        "name": "Refunded Gas",
                        "value": 15000
                    }
                ],
                "depth": -2,
                "name": "Total Gas",
                "value": 47392
            }
        ],
        "isConfirmed": true,
        "mainTrace": [
            {
                "children": [
                    {
                        "children": [
                            {
                                "children": [
                                    {
                                        "children": [],
                                        "depth": 2,
                                        "id": 2,
                                        "order": 2
                                    },
                                    {
                                        "children": [
                                            {
                                                "children": [],
                                                "depth": 3,
                                                "id": 4,
                                                "order": 4
                                            }
                                        ],
                                        "depth": 2,
                                        "id": 3,
                                        "order": 3
                                    },
                                    {
                                        "children": [],
                                        "depth": 2,
                                        "id": 5,
                                        "order": 5
                                    }
                                ],
                                "depth": 1,
                                "id": 1,
                                "order": 1
                            }
                        ],
                        "depth": 0,
                        "id": 0,
                        "order": 0
                    }
                ],
                "depth": -1,
                "id": -1,
                "order": -1
            }
        ],
        "mainTraceNodeCount": 6,
        "parentIdMap": {
            "0": -1,
            "1": 0,
            "2": 1,
            "3": 1,
            "4": 3,
            "5": 1
        },
        "tidyTrace": [
            {
                "children": [
                    {
                        "children": [
                            {
                                "children": [
                                    {
                                        "children": [
                                            {
                                                "children": [],
                                                "depth": 3,
                                                "id": 4,
                                                "order": 4
                                            }
                                        ],
                                        "depth": 2,
                                        "id": 3,
                                        "order": 3
                                    },
                                    {
                                        "children": [],
                                        "depth": 2,
                                        "id": 5,
                                        "order": 5
                                    }
                                ],
                                "depth": 1,
                                "id": 1,
                                "order": 1
                            }
                        ],
                        "depth": 0,
                        "id": 0,
                        "order": 0
                    }
                ],
                "depth": -1,
                "id": -1,
                "order": -1
            }
        ],
        "tidyTraceNodeCount": 5
    },
    "state_change": {
        "stateChanges": [
            {
                "address": "0x763186eb8d4856d536ed4478302971214febc6a9",
                "erc": "ERC-20",
                "slots": [
                    {
                        "current": "0x0000000000000000000000000000000000000000000000000000000000000000",
                        "key": "0x7f5a21125008f21a3bb068a3efcc119083051303a14c4441ad2de47fce9f99fa",
                        "prev": "0x0000000000000000000000000000000000000000000211654585005212800000"
                    },
                    {
                        "current": "0x000000000000000000000000000000000000000000027b46536c66c8e3000000",
                        "key": "0x20f2cd4d6b6c17add2cf21203046f44146aa8ccc51e2c9cbad8bf4431b7b9148",
                        "prev": "0x0000000000000000000000000000000000000000000069e10de76676d0800000"
                    }
                ],
                "storageVariables": [
                    {
                        "name": "balances",
                        "type": "mapping(address => uint256)",
                        "value": {
                            "pairs": [
                                {
                                    "key": "0x34e226af35775bda894160610dc23d7cd29266ea",
                                    "value": {
                                        "current": "0",
                                        "prev": "2500000000000000000000000",
                                        "typeTag": 1
                                    }
                                },
                                {
                                    "key": "0xfd648cc72f1b4e71cbdda7a0a91fe34d32abd656",
                                    "value": {
                                        "current": "3000000000000000000000000",
                                        "prev": "500000000000000000000000",
                                        "typeTag": 1
                                    }
                                }
                            ],
                            "typeTag": 4
                        }
                    }
                ]
            }
        ]
    }
}