{
    "balance_change": {
        "balanceChanges": [
            {
                "account": "0x0f5d4a5459d0fad3aa3693cc9dde8ac73e12a3b7",
                "assets": [
                    {
                        "address": "0x30cecb5461a449a90081f5a5f55db4e048397bab",
                        "amount": "7,841.1281",
                        "iconUrl": "https://assets.blocksec.com/icon/a1be03956ceb093b4acef4069e47fe27f99cc2f04131016070301410680588f4.png",
                        "isERC1155": false,
                        "isERC721": false,
                        "sign": false,
                        "value": ""
                    }
                ]
            },
            {
                "account": "0x8162a4dcc0fab9e1c7174996b0f37a6a364da0ca",
                "assets": [
                    {
                        "address": "0x30cecb5461a449a90081f5a5f55db4e048397bab",
                        "amount": "7,841.1281",
                        "iconUrl": "https://assets.blocksec.com/icon/a1be03956ceb093b4acef4069e47fe27f99cc2f04131016070301410680588f4.png",
                        "isERC1155": false,
                        "isERC721": false,
                        "sign": true,
                        "value": ""
                    }
                ]
            }
        ]
    },
    "profile": {
        "basic_info": {
            "baseFee": "",
            "blockNumber": 4720914,
            "callData": "0xa9059cbb0000000000000000000000008162a4dcc0fab9e1c7174996b0f37a6a364da0ca000000000000000000000000000000000000000000000000000000b690c3f810",
            "debugEnable": true,
            "errorInfo": "",
            "eventCount": 1,
            "feeRecipient": "0xb2930b35844a230f00e51431acae96fe543a0347",
            "formatValue": "0",
            "gasLimit": 100000,
            "gasPrice": "50",
            "gasUsed": 52148,
            "intTxnCount": 0,
            "internalRevert": false,
            "internalRevertMessage": "",
            "isContractCreation": false,
            "isFlashloan": false,
            "maxFee": "",
            "nonce": 2989,
            "overwritedBlockNumber": -1,
            "priorityFee": "",
            "receiver": "0x30cecb5461a449a90081f5a5f55db4e048397bab",
            "revertMessage": "",
            "sender": "0x0f5d4a5459d0fad3aa3693cc9dde8ac73e12a3b7",
            "simulationEnable": true,
            "sourceTxnHash": "0xdbec0828de88186148c46cdb1d278220236cdca794600f0d045afb2e2d06cda2",
            "status": true,
            "timestamp": "2017-12-12T17:09:32Z",
            "transactionFee": "0.0026074",
            "txnHash": "0xdbec0828de88186148c46cdb1d278220236cdca794600f0d045afb2e2d06cda2",
            "txnIndex": 28,
            "type": 0,
            "value": "0"
        },
        "fund_flow": [
            {
                "amount": "7,841.1281",
                "from": "0x0f5d4a5459d0fad3aa3693cc9dde8ac73e12a3b7",
                "id": 1,
                "isERC1155": false,
                "isERC721": false,
                "isReverted": false,
                "order": 1,
                "to": "0x8162a4dcc0fab9e1c7174996b0f37a6a364da0ca",
                "token": "0x30cecb5461a449a90081f5a5f55db4e048397bab"
            }
        ],
        "token_infos": [
            {
                "address": "0xeeeeeeeeeeeeeeeeeeeeeeeeeeeeeeeeeeeeeeee",
                "decimals": 18
            },
            {
                "address": "0x30cecb5461a449a90081f5a5f55db4e048397bab",
                "decimals": 8
            },
            {
                "address": "0xc02aaa39b223fe8d0a0e5c4f27ead9083c756cc2",
                "decimals": 18
            }
        ]
    },
    "address_label": {
        "labels": [
            {
                "address": "0x0000000000000000000000000000000000000004",
                "label": "Precompiled"
            },
            {
                "address": "0xeeeeeeeeeeeeeeeeeeeeeeeeeeeeeeeeeeeeeeee",
                "label": "Ether"
            },
            {
                "address": "0x30cecb5461a449a90081f5a5f55db4e048397bab",
                "label": "Tracto Token"
            },
            {
                "address": "0x8162a4dcc0fab9e1c7174996b0f37a6a364da0ca",
                "label": "TIDEX"
            },
            {
                "address": "0x0000000000000000000000000000000000000001",
                "label": "Precompiled"
            },
            {
                "address": "0x0000000000000000000000000000000000000002",
                "label": "Precompiled"
            },
            {
                "address": "0x0000000000000000000000000000000000000003",
                "label": "Precompiled"
            }
        ]
    },
    "trace": {
        "accountLabels": null,
        "dataMap": {
            "-1": {
                "invocation": {
                    "address": "0x0f5d4a5459d0fad3aa3693cc9dde8ac73e12a3b7",
                    "callData": "",
                    "decodedMethod": null,
                    "errorInfo": "",
                    "fromAddress": "",
                    "gasUsed": 0,
                    "id": -1,
                    "methodDecoded": false,
                    "operation": "",
                    "output": "",
                    "revert": false,
                    "revertMessage": "",
                    "selector": "",
                    "status": false,
                    "value": ""
                },
                "nodeType": 0
            },
            "0": {
                "invocation": {
                    "address": "0x30cecb5461a449a90081f5a5f55db4e048397bab",
                    "callData": "0x0000000000000000000000008162a4dcc0fab9e1c7174996b0f37a6a364da0ca000000000000000000000000000000000000000000000000000000b690c3f810",
                    "decodedMethod": {
                        "callParams": [
                            {
                                "name": "_to",
                                "type": "address",
                                "value": "0x8162a4dcc0fab9e1c7174996b0f37a6a364da0ca"
                            },
                            {
                                "decimalAvailable": true,
                                "name": "_amount",
                                "type": "uint256",
                                "value": "784,112,810,000"
                            }
                        ],
                        "constructorArguments": "",
                        "name": "transfer",
                        "returnParams": [
                            {
                                "name": "success",
                                "type": "bool",
                                "value": true
                            }
                        ],
                        "signature": "transfer(address,uint256)"
                    },
                    "errorInfo": "",
                    "fromAddress": "0x0f5d4a5459d0fad3aa3693cc9dde8ac73e12a3b7",
                    "gasUsed": 52148,
                    "id": 0,
                    "methodDecoded": true,
                    "operation": "CALL",
                    "output": "0x0000000000000000000000000000000000000000000000000000000000000001",
                    "revert": false,
                    "revertMessage": "",
                    "selector": "0xa9059cbb",
                    "status": true,
                    "value": "0"
                },
                "nodeType": 0
            },
            "1": {
                "event": {
                    "contract": "0x30cecb5461a449a90081f5a5f55db4e048397bab",
                    "decodedLog": {
                        "name": "Transfer",
                        "params": [
                            {
                                "name": "_from",
                                "type": "address",
                                "value": "0x0f5d4a5459d0fad3aa3693cc9dde8ac73e12a3b7"
                            },
                            {
                                "name": "_to",
                                "type": "address",
                                "value": "0x8162a4dcc0fab9e1c7174996b0f37a6a364da0ca"
                            },
                            {
                                "decimalAvailable": true,
                                "name": "_value",
                                "type": "uint256",
                                "value": "784,112,810,000"
                            }
                        ],
                        "signature": "Transfer(address,address,uint256)"
                    },
                    "id": 1,
                    "logData": "0x000000000000000000000000000000000000000000000000000000b690c3f810",
                    "logDecoded": true,
                    "operation": "EVENT",
                    "revert": false,
                    "status": true,
                    "topics": [
                        "0xddf252ad1be2c89b69c2b068fc378daa952ba7f163c4a11628f55a4df523b3ef",
                        "0x0000000000000000000000000f5d4a5459d0fad3aa3693cc9dde8ac73e12a3b7",
                        "0x0000000000000000000000008162a4dcc0fab9e1c7174996b0f37a6a364da0ca"
                    ]
                },
                "nodeType": 1
            }
        },
        "gasFlame": [
            {
                "children": [
                    {
                        "children": [
                            {
                                "children": [],
                                "depth": 0,
                                "name": "Initial Gas",
                                "value": 23128
                            },
                            {
                                "children": [],
                                "depth": 0,
                                "name": "Executed Gas",
                                "value": 29020
                            }
                        ],
                        "depth": -1,
                        "name": "Actual Gas Used",
                        "value": 52148
                    },
                    {
                        "children": [],
                        "depth": -1,
                        "name": "Refunded Gas",
                        "value": 0
                    }
                ],
                "depth": -2,
                "name": "Total Gas",
                "value": 52148
            }
        ],
        "isConfirmed": true,
        "mainTrace": [
            {
                "children": [
                    {
                        "children": [
                            {
                                "children": [],
                                "depth": 1,
                                "id": 1,
                                "order": 1
                            }
                        ],
                        "depth": 0,
                        "id": 0,
                        "order": 0
                    }
                ],
                "depth": -1,
                "id": -1,
                "order": -1
            }
        ],
        "mainTraceNodeCount": 2,
        "parentIdMap": {
            "0": -1,
            "1": 0
        },
        "tidyTrace": [
            {
                "children": [
                    {
                        "children": [
                            {
                                "children": [],
                                "depth": 1,
                                "id": 1,
                                "order": 1
                            }
                        ],
                        "depth": 0,
                        "id": 0,
                        "order": 0
                    }
                ],
                "depth": -1,
                "id": -1,
                "order": -1
            }
        ],
        "tidyTraceNodeCount": 2
    },
    "state_change": {
        "stateChanges": [
            {
                "address": "0x30cecb5461a449a90081f5a5f55db4e048397bab",
                "erc": "ERC-20",
                "slots": [
                    {
                        "current": "0x0000000000000000000000000000000000000000000000000000050bf700ecfe",
                        "key": "0x75e8d7b4067b220c3bd972dc3290ad4d1658c8bfae963a146ab8622ab4bbfa07",
                        "prev": "0x000000000000000000000000000000000000000000000000000005c287c4e50e"
                    },
                    {
                        "current": "0x000000000000000000000000000000000000000000000000000000b690c3f810",
                        "key": "0x336b5e2721fefbc7a85e4b94ff382d8a989c8c126d9e348807acf4ea133c9db2",
                        "prev": "0x0000000000000000000000000000000000000000000000000000000000000000"
                    }
                ],
                "storageVariables": [
                    {
                        "name": "balances",
                        "type": "mapping(address => uint256)",
                        "value": {
                            "pairs": [
                                {
                                    "key": "0x0f5d4a5459d0fad3aa3693cc9dde8ac73e12a3b7",
                                    "value": {
                                        "current": "5548946812158",
                                        "prev": "6333059622158",
                                        "typeTag": 1
                                    }
                                },
                                {
                                    "key": "0x8162a4dcc0fab9e1c7174996b0f37a6a364da0ca",
                                    "value": {
                                        "current": "784112810000",
                                        "prev": "0",
                                        "typeTag": 1
                                    }
                                }
                            ],
                            "typeTag": 4
                        }
                    }
                ]
            }
        ]
    }
}