{
    "balance_change": {
        "balanceChanges": []
    },
    "profile": {
        "basic_info": {
            "baseFee": "59.895287871",
            "blockNumber": 17244217,
            "callData": "0xa9059cbb0000000000000000000000000ed791c7fcc0cedd565024d2d84bfe2b2d7408b70000000000000000000000000000000000000000000010d09f168ea815d10000",
            "debugEnable": true,
            "errorInfo": "out of gas",
            "eventCount": 0,
            "feeRecipient": "0xbaf6dc2e647aeb6f510f9e318856a1bcd66c5e19",
            "formatValue": "0",
            "gasLimit": 55122,
            "gasPrice": "59.995287871",
            "gasUsed": 55122,
            "intTxnCount": 0,
            "internalRevert": false,
            "internalRevertMessage": "",
            "isContractCreation": false,
            "isFlashloan": false,
            "maxFee": "60.048393323",
            "nonce": 15,
            "overwritedBlockNumber": -1,
            "priorityFee": "0.1",
            "receiver": "0x80008bcd713c38af90a9930288d446bc3bd2e684",
            "revertMessage": "",
            "sender": "0x8d581b972bf4b28fe5fa530ab7083b8093badf85",
            "simulationEnable": true,
            "sourceTxnHash": "0xdb69b6baf19ab5d846694522c446ca64f5df594a87c296158fb04e8c4f9414fe",
            "status": false,
            "timestamp": "2023-05-12T12:45:59Z",
            "transactionFee": "0.003307060258025262",
            "txnHash": "0xdb69b6baf19ab5d846694522c446ca64f5df594a87c296158fb04e8c4f9414fe",
            "txnIndex": 106,
            "type": 2,
            "value": "0"
        },
        "fund_flow": [],
        "token_infos": [
            {
                "address": "0xc02aaa39b223fe8d0a0e5c4f27ead9083c756cc2",
                "decimals": 18
            },
            {
                "address": "0xeeeeeeeeeeeeeeeeeeeeeeeeeeeeeeeeeeeeeeee",
                "decimals": 18
            }
        ]
    },
    "address_label": {
        "labels": [
            {
                "address": "0x0000000000000000000000000000000000000002",
                "label": "Precompiled"
            },
            {
                "address": "0x0000000000000000000000000000000000000003",
                "label": "Precompiled"
            },
            {
                "address": "0x0000000000000000000000000000000000000004",
                "label": "Precompiled"
            },
            {
                "address": "0xeeeeeeeeeeeeeeeeeeeeeeeeeeeeeeeeeeeeeeee",
                "label": "Ether"
            },
            {
                "address": "0x0ed791c7fcc0cedd565024d2d84bfe2b2d7408b7",
                "label": "KUCOIN"
            },
            {
                "address": "0x80008bcd713c38af90a9930288d446bc3bd2e684",
                "label": "Karate Combat: KARATE Token"
            },
            {
                "address": "0x0000000000000000000000000000000000000001",
                "label": "Precompiled"
            }
        ]
    },
    "trace": {
        "accountLabels": null,
        "dataMap": {
            "-1": {
                "invocation": {
                    "address": "0x8d581b972bf4b28fe5fa530ab7083b8093badf85",
                    "callData": "",
                    "decodedMethod": null,
                    "errorInfo": "",
                    "fromAddress": "",
                    "gasUsed": 0,
                    "id": -1,
                    "methodDecoded": false,
                    "operation": "",
                    "output": "",
                    "revert": false,
                    "revertMessage": "",
                    "selector": "",
                    "status": false,
                    "value": ""
                },
                "nodeType": 0
            },
            "0": {
                "invocation": {
                    "address": "0x80008bcd713c38af90a9930288d446bc3bd2e684",
                    "callData": "0x0000000000000000000000000ed791c7fcc0cedd565024d2d84bfe2b2d7408b70000000000000000000000000000000000000000000010d09f168ea815d10000",
                    "decodedMethod": {
                        "callParams": [
                            {
                                "name": "to",
                                "type": "address",
                                "value": "0x0ed791c7fcc0cedd565024d2d84bfe2b2d7408b7"
                            },
                            {
                                "decimalAvailable": true,
                                "name": "amount",
                                "type": "uint256",
                                "value": "79,406,250,000,000,000,000,000"
                            }
                        ],
                        "constructorArguments": "",
                        "name": "transfer",
                        "returnParams": [],
                        "signature": "transfer(address,uint256)"
                    },
                    "errorInfo": "out of gas",
                    "fromAddress": "0x8d581b972bf4b28fe5fa530ab7083b8093badf85",
                    "gasUsed": 55122,
                    "id": 0,
                    "methodDecoded": true,
                    "operation": "CALL",
                    "output": "",
                    "revert": true,
                    "revertMessage": "",
                    "selector": "0xa9059cbb",
                    "status": false,
                    "value": "0"
                },
                "nodeType": 0
            }
        },
        "gasFlame": [
            {
                "children": [
                    {
                        "children": [
                            {
                                "children": [],
                                "depth": 0,
                                "name": "Initial Gas",
                                "value": 21656
                            },
                            {
                                "children": [],
                                "depth": 0,
                                "name": "Executed Gas",
                                "value": 33466
                            }
                        ],
                        "depth": -1,
                        "name": "Actual Gas Used",
                        "value": 55122
                    },
                    {
                        "children": [],
                        "depth": -1,
                        "name": "Refunded Gas",
                        "value": 0
                    }
                ],
                "depth": -2,
                "name": "Total Gas",
                "value": 55122
            }
        ],
        "isConfirmed": true,
        "mainTrace": [
            {
                "children": [
                    {
                        "children": [],
                        "depth": 0,
                        "id": 0,
                        "order": 0
                    }
                ],
                "depth": -1,
                "id": -1,
                "order": -1
            }
        ],
        "mainTraceNodeCount": 1,
        "parentIdMap": {
            "0": -1
        },
        "tidyTrace": [
            {
                "children": [
                    {
                        "children": [],
                        "depth": 0,
                        "id": 0,
                        "order": 0
                    }
                ],
                "depth": -1,
                "id": -1,
                "order": -1
            }
        ],
        "tidyTraceNodeCount": 1
    },
    "state_change": {
        "stateChanges": []
    }
}