{
    "balance_change": {
        "balanceChanges": []
    },
    "profile": {
        "basic_info": {
            "baseFee": "",
            "blockNumber": 7670901,
            "callData": "0xa0712d680000000000000000000000000000000000000000000000000000000000000004",
            "debugEnable": true,
            "errorInfo": "",
            "eventCount": 0,
            "feeRecipient": "0x6f24d7fc7fb17d051c25be5da1af150077d60fc1",
            "formatValue": "0",
            "gasLimit": 210001,
            "gasPrice": "0",
            "gasUsed": 178624,
            "intTxnCount": 4,
            "internalRevert": false,
            "internalRevertMessage": "",
            "isContractCreation": false,
            "isFlashloan": false,
            "maxFee": "",
            "nonce": 12076,
            "overwritedBlockNumber": -1,
            "priorityFee": "",
            "receiver": "0x0000000000b3f879cb30fe243b4dfee438691c04",
            "revertMessage": "",
            "sender": "0x5b5b9f1cbc0062c61ab73577e02301c07f5b66fa",
            "simulationEnable": true,
            "sourceTxnHash": "0xdb602e954d7d26e5e42ff3cf0c49ada6adc0ca574c9d40f09aec3b74fefe403b",
            "status": true,
            "timestamp": "2019-04-30T20:28:42Z",
            "transactionFee": "0",
            "txnHash": "0xdb602e954d7d26e5e42ff3cf0c49ada6adc0ca574c9d40f09aec3b74fefe403b",
            "txnIndex": 44,
            "type": 0,
            "value": "0"
        },
        "fund_flow": [],
        "token_infos": [
            {
                "address": "0xc02aaa39b223fe8d0a0e5c4f27ead9083c756cc2",
                "decimals": 18
            },
            {
                "address": "0xeeeeeeeeeeeeeeeeeeeeeeeeeeeeeeeeeeeeeeee",
                "decimals": 18
            }
        ]
    },
    "address_label": {
        "labels": [
            {
                "address": "0x0000000000000000000000000000000000000003",
                "label": "Precompiled"
            },
            {
                "address": "0x0000000000000000000000000000000000000004",
                "label": "Precompiled"
            },
            {
                "address": "0xeeeeeeeeeeeeeeeeeeeeeeeeeeeeeeeeeeeeeeee",
                "label": "Ether"
            },
            {
                "address": "0x0000000000b3f879cb30fe243b4dfee438691c04",
                "label": "GasToken.io: GST2 Token"
            },
            {
                "address": "0x0000000000000000000000000000000000000001",
                "label": "Precompiled"
            },
            {
                "address": "0x0000000000000000000000000000000000000002",
                "label": "Precompiled"
            }
        ]
    },
    "trace": {
        "accountLabels": null,
        "dataMap": {
            "-1": {
                "invocation": {
                    "address": "0x5b5b9f1cbc0062c61ab73577e02301c07f5b66fa",
                    "callData": "",
                    "decodedMethod": null,
                    "errorInfo": "",
                    "fromAddress": "",
                    "gasUsed": 0,
                    "id": -1,
                    "methodDecoded": false,
                    "operation": "",
                    "output": "",
                    "revert": false,
                    "revertMessage": "",
                    "selector": "",
                    "status": false,
                    "value": ""
                },
                "nodeType": 0
            },
            "0": {
                "invocation": {
                    "address": "0x0000000000b3f879cb30fe243b4dfee438691c04",
                    "callData": "0x0000000000000000000000000000000000000000000000000000000000000004",
                    "decodedMethod": {
                        "callParams": [
                            {
                                "name": "value",
                                "type": "uint256",
                                "value": "4"
                            }
                        ],
                        "constructorArguments": "",
                        "name": "mint",
                        "returnParams": [],
                        "signature": "mint(uint256)"
                    },
                    "errorInfo": "",
                    "fromAddress": "0x5b5b9f1cbc0062c61ab73577e02301c07f5b66fa",
                    "gasUsed": 178624,
                    "id": 0,
                    "methodDecoded": true,
                    "operation": "CALL",
                    "output": "",
                    "revert": false,
                    "revertMessage": "",
                    "selector": "0xa0712d68",
                    "status": true,
                    "value": "0"
                },
                "nodeType": 0
            },
            "1": {
                "invocation": {
                    "address": "0x75a1895d022514b4af56ad93f1bb1defd131ea21",
                    "callData": "0x756eb3f879cb30fe243b4dfee438691c043318585733ff6000526016600af3",
                    "decodedMethod": null,
                    "errorInfo": "",
                    "fromAddress": "0x0000000000b3f879cb30fe243b4dfee438691c04",
                    "gasUsed": 4418,
                    "id": 1,
                    "methodDecoded": false,
                    "operation": "CREATE",
                    "output": "0x6eb3f879cb30fe243b4dfee438691c043318585733ff",
                    "revert": false,
                    "revertMessage": "",
                    "selector": "",
                    "status": true,
                    "value": "0"
                },
                "nodeType": 0
            },
            "2": {
                "invocation": {
                    "address": "0xcf1954c87cb44555216f9fa3434f6455b80708f5",
                    "callData": "0x756eb3f879cb30fe243b4dfee438691c043318585733ff6000526016600af3",
                    "decodedMethod": null,
                    "errorInfo": "",
                    "fromAddress": "0x0000000000b3f879cb30fe243b4dfee438691c04",
                    "gasUsed": 4418,
                    "id": 2,
                    "methodDecoded": false,
                    "operation": "CREATE",
                    "output": "0x6eb3f879cb30fe243b4dfee438691c043318585733ff",
                    "revert": false,
                    "revertMessage": "",
                    "selector": "",
                    "status": true,
                    "value": "0"
                },
                "nodeType": 0
            },
            "3": {
                "invocation": {
                    "address": "0x88956dfb62e2ecca30acb2743167337ca31affc8",
                    "callData": "0x756eb3f879cb30fe243b4dfee438691c043318585733ff6000526016600af3",
                    "decodedMethod": null,
                    "errorInfo": "",
                    "fromAddress": "0x0000000000b3f879cb30fe243b4dfee438691c04",
                    "gasUsed": 4418,
                    "id": 3,
                    "methodDecoded": false,
                    "operation": "CREATE",
                    "output": "0x6eb3f879cb30fe243b4dfee438691c043318585733ff",
                    "revert": false,
                    "revertMessage": "",
                    "selector": "",
                    "status": true,
                    "value": "0"
                },
                "nodeType": 0
            },
            "4": {
                "invocation": {
                    "address": "0xa13fa833487ab0c7baee81aedec207403684fbc3",
                    "callData": "0x756eb3f879cb30fe243b4dfee438691c043318585733ff6000526016600af3",
                    "decodedMethod": null,
                    "errorInfo": "",
                    "fromAddress": "0x0000000000b3f879cb30fe243b4dfee438691c04",
                    "gasUsed": 4418,
                    "id": 4,
                    "methodDecoded": false,
                    "operation": "CREATE",
                    "output": "0x6eb3f879cb30fe243b4dfee438691c043318585733ff",
                    "revert": false,
                    "revertMessage": "",
                    "selector": "",
                    "status": true,
                    "value": "0"
                },
                "nodeType": 0
            }
        },
        "gasFlame": [
            {
                "children": [
                    {
                        "children": [
                            {
                                "children": [],
                                "depth": 0,
                                "name": "Initial Gas",
                                "value": 21464
                            },
                            {
                                "children": [
                                    {
                                        "children": [],
                                        "depth": 1,
                                        "name": "contract creation",
                                        "value": 4418
                                    },
                                    {
                                        "children": [],
                                        "depth": 1,
                                        "name": "contract creation",
                                        "value": 4418
                                    },
                                    {
                                        "children": [],
                                        "depth": 1,
                                        "name": "contract creation",
                                        "value": 4418
                                    },
                                    {
                                        "children": [],
                                        "depth": 1,
                                        "name": "contract creation",
                                        "value": 4418
                                    }
                                ],
                                "depth": 0,
                                "name": "Executed Gas",
                                "value": 157160
                            }
                        ],
                        "depth": -1,
                        "name": "Actual Gas Used",
                        "value": 178624
                    },
                    {
                        "children": [],
                        "depth": -1,
                        "name": "Refunded Gas",
                        "value": 0
                    }
                ],
                "depth": -2,
                "name": "Total Gas",
                "value": 178624
            }
        ],
        "isConfirmed": true,
        "mainTrace": [
            {
                "children": [
                    {
                        "children": [
                            {
                                "children": [],
                                "depth": 1,
                                "id": 1,
                                "order": 1
                            },
                            {
                                "children": [],
                                "depth": 1,
                                "id": 2,
                                "order": 2
                            },
                            {
                                "children": [],
                                "depth": 1,
                                "id": 3,
                                "order": 3
                            },
                            {
                                "children": [],
                                "depth": 1,
                                "id": 4,
                                "order": 4
                            }
                        ],
                        "depth": 0,
                        "id": 0,
                        "order": 0
                    }
                ],
                "depth": -1,
                "id": -1,
                "order": -1
            }
        ],
        "mainTraceNodeCount": 5,
        "parentIdMap": {
            "0": -1,
            "1": 0,
            "2": 0,
            "3": 0,
            "4": 0
        },
        "tidyTrace": [
            {
                "children": [
                    {
                        "children": [
                            {
                                "children": [],
                                "depth": 1,
                                "id": 1,
                                "order": 1
                            },
                            {
                                "children": [],
                                "depth": 1,
                                "id": 2,
                                "order": 2
                            },
                            {
                                "children": [],
                                "depth": 1,
                                "id": 3,
                                "order": 3
                            },
                            {
                                "children": [],
                                "depth": 1,
                                "id": 4,
                                "order": 4
                            }
                        ],
                        "depth": 0,
                        "id": 0,
                        "order": 0
                    }
                ],
                "depth": -1,
                "id": -1,
                "order": -1
            }
        ],
        "tidyTraceNodeCount": 5
    },
    "state_change": {
        "stateChanges": [
            {
                "address": "0x0000000000b3f879cb30fe243b4dfee438691c04",
                "erc": "ERC-20",
                "slots": [
                    {
                        "current": "0x00000000000000000000000000000000000000000000000000000000001af8f6",
                        "key": "0x0000000000000000000000000000000000000000000000000000000000000002",
                        "prev": "0x00000000000000000000000000000000000000000000000000000000001af8f2"
                    },
                    {
                        "current": "0x0000000000000000000000000000000000000000000000000000000000000048",
                        "key": "0x91d79570dbdda3bba16be1d36584067d637f6f8e0a5c75753f245b46e9eed9b8",
                        "prev": "0x0000000000000000000000000000000000000000000000000000000000000044"
                    }
                ],
                "storageVariables": [
                    {
                        "name": "s_head",
                        "type": "uint256",
                        "value": {
                            "current": "1767670",
                            "prev": "1767666",
                            "typeTag": 1
                        }
                    },
                    {
                        "name": "s_balances",
                        "type": "mapping(address => uint256)",
                        "value": {
                            "pairs": [
                                {
                                    "key": "0x5b5b9f1cbc0062c61ab73577e02301c07f5b66fa",
                                    "value": {
                                        "current": "72",
                                        "prev": "68",
                                        "typeTag": 1
                                    }
                                }
                            ],
                            "typeTag": 4
                        }
                    }
                ]
            }
        ]
    }
}