{
    "balance_change": {
        "balanceChanges": []
    },
    "profile": {
        "basic_info": {
            "baseFee": "",
            "blockNumber": 4882335,
            "callData": "0x0a19b14a000000000000000000000000e469c4473af82217b30cf17b10bcdb6c8c796e750000000000000000000000000000000000000000000000000000000002625a0000000000000000000000000000000000000000000000000000000000000000000000000000000000000000000000000000000000000000003782dace9d90000000000000000000000000000000000000000000000000000000000000004aa57d00000000000000000000000000000000000000000000000000000000f0b41b4b0000000000000000000000004e38405269db2e695f054f2421ffb7a1a8728907000000000000000000000000000000000000000000000000000000000000001c6251b60547f70bc8c6e69ab993a4c8585382e163d4e759bd9d0d9dc86d12e612588d0309001d034021f298b4415caa7c45edca9f47c04c0a9400721dac570b1600000000000000000000000000000000000000000000000000000000019f03e2",
            "debugEnable": true,
            "errorInfo": "",
            "eventCount": 1,
            "feeRecipient": "0x5a0b54d5dc17e0aadc383d2db43b0a0d3e029c4c",
            "formatValue": "0",
            "gasLimit": 250000,
            "gasPrice": "50",
            "gasUsed": 77538,
            "intTxnCount": 2,
            "internalRevert": false,
            "internalRevertMessage": "",
            "isContractCreation": false,
            "isFlashloan": false,
            "maxFee": "",
            "nonce": 185,
            "overwritedBlockNumber": -1,
            "priorityFee": "",
            "receiver": "0x8d12a197cb00d4747a1fe03395095ce2a5cc6819",
            "revertMessage": "",
            "sender": "0x648b9797a1581f97528ccadd8f9ea7a22e8a7b26",
            "simulationEnable": true,
            "sourceTxnHash": "0xdb71a289a5e04ed2e6a9c354c3bb432774b1c56831f695a22d0fef11d257bd96",
            "status": true,
            "timestamp": "2018-01-09T23:33:48Z",
            "transactionFee": "0.0038769",
            "txnHash": "0xdb71a289a5e04ed2e6a9c354c3bb432774b1c56831f695a22d0fef11d257bd96",
            "txnIndex": 209,
            "type": 0,
            "value": "0"
        },
        "fund_flow": [],
        "token_infos": [
            {
                "address": "0xc02aaa39b223fe8d0a0e5c4f27ead9083c756cc2",
                "decimals": 18
            },
            {
                "address": "0xeeeeeeeeeeeeeeeeeeeeeeeeeeeeeeeeeeeeeeee",
                "decimals": 18
            }
        ]
    },
    "address_label": {
        "labels": [
            {
                "address": "0x0000000000000000000000000000000000000001",
                "label": "Precompiled"
            },
            {
                "address": "0x0000000000000000000000000000000000000003",
                "label": "Precompiled"
            },
            {
                "address": "0x0000000000000000000000000000000000000004",
                "label": "Precompiled"
            },
            {
                "address": "0xeeeeeeeeeeeeeeeeeeeeeeeeeeeeeeeeeeeeeeee",
                "label": "Ether"
            },
            {
                "address": "0x8d12a197cb00d4747a1fe03395095ce2a5cc6819",
                "label": "EtherDelta"
            },
            {
                "address": "0x0000000000000000000000000000000000000002",
                "label": "Precompiled"
            },
            {
                "address": "0xe469c4473af82217b30cf17b10bcdb6c8c796e75",
                "label": "EXRP Network (EXRN)"
            },
            {
                "address": "0x0000000000000000000000000000000000000000",
                "label": "Null Address"
            }
        ]
    },
    "trace": {
        "accountLabels": null,
        "dataMap": {
            "-1": {
                "invocation": {
                    "address": "0x648b9797a1581f97528ccadd8f9ea7a22e8a7b26",
                    "callData": "",
                    "decodedMethod": null,
                    "errorInfo": "",
                    "fromAddress": "",
                    "gasUsed": 0,
                    "id": -1,
                    "methodDecoded": false,
                    "operation": "",
                    "output": "",
                    "revert": false,
                    "revertMessage": "",
                    "selector": "",
                    "status": false,
                    "value": ""
                },
                "nodeType": 0
            },
            "0": {
                "invocation": {
                    "address": "0x8d12a197cb00d4747a1fe03395095ce2a5cc6819",
                    "callData": "0x000000000000000000000000e469c4473af82217b30cf17b10bcdb6c8c796e750000000000000000000000000000000000000000000000000000000002625a0000000000000000000000000000000000000000000000000000000000000000000000000000000000000000000000000000000000000000003782dace9d90000000000000000000000000000000000000000000000000000000000000004aa57d00000000000000000000000000000000000000000000000000000000f0b41b4b0000000000000000000000004e38405269db2e695f054f2421ffb7a1a8728907000000000000000000000000000000000000000000000000000000000000001c6251b60547f70bc8c6e69ab993a4c8585382e163d4e759bd9d0d9dc86d12e612588d0309001d034021f298b4415caa7c45edca9f47c04c0a9400721dac570b1600000000000000000000000000000000000000000000000000000000019f03e2",
                    "decodedMethod": {
                        "callParams": [
                            {
                                "name": "tokenGet",
                                "type": "address",
                                "value": "0xe469c4473af82217b30cf17b10bcdb6c8c796e75"
                            },
                            {
                                "name": "amountGet",
                                "type": "uint256",
                                "value": "40,000,000"
                            },
                            {
                                "name": "tokenGive",
                                "type": "address",
                                "value": "0x0000000000000000000000000000000000000000"
                            },
                            {
                                "name": "amountGive",
                                "type": "uint256",
                                "value": "4,000,000,000,000,000,000"
                            },
                            {
                                "name": "expires",
                                "type": "uint256",
                                "value": "4,892,029"
                            },
                            {
                                "name": "nonce",
                                "type": "uint256",
                                "value": "4,038,335,307"
                            },
                            {
                                "name": "user",
                                "type": "address",
                                "value": "0x4e38405269db2e695f054f2421ffb7a1a8728907"
                            },
                            {
                                "name": "v",
                                "type": "uint8",
                                "value": "28"
                            },
                            {
                                "name": "r",
                                "type": "bytes32",
                                "value": "0x6251b60547f70bc8c6e69ab993a4c8585382e163d4e759bd9d0d9dc86d12e612"
                            },
                            {
                                "name": "s",
                                "type": "bytes32",
                                "value": "0x588d0309001d034021f298b4415caa7c45edca9f47c04c0a9400721dac570b16"
                            },
                            {
                                "name": "amount",
                                "type": "uint256",
                                "value": "27,198,434"
                            }
                        ],
                        "constructorArguments": "",
                        "name": "trade",
                        "returnParams": [],
                        "signature": "trade(address,uint256,address,uint256,uint256,uint256,address,uint8,bytes32,bytes32,uint256)"
                    },
                    "errorInfo": "",
                    "fromAddress": "0x648b9797a1581f97528ccadd8f9ea7a22e8a7b26",
                    "gasUsed": 77538,
                    "id": 0,
                    "methodDecoded": true,
                    "operation": "CALL",
                    "output": "",
                    "revert": false,
                    "revertMessage": "",
                    "selector": "0x0a19b14a",
                    "status": true,
                    "value": "0"
                },
                "nodeType": 0
            },
            "1": {
                "invocation": {
                    "address": "0x0000000000000000000000000000000000000002",
                    "callData": "0xcb00d4747a1fe03395095ce2a5cc6819e469c4473af82217b30cf17b10bcdb6c8c796e750000000000000000000000000000000000000000000000000000000002625a0000000000000000000000000000000000000000000000000000000000000000000000000000000000000000003782dace9d90000000000000000000000000000000000000000000000000000000000000004aa57d00000000000000000000000000000000000000000000000000000000f0b41b4b",
                    "decodedMethod": {
                        "callParams": [
                            {
                                "name": "data",
                                "type": "bytes",
                                "value": "0x8d12a197cb00d4747a1fe03395095ce2a5cc6819e469c4473af82217b30cf17b10bcdb6c8c796e750000000000000000000000000000000000000000000000000000000002625a0000000000000000000000000000000000000000000000000000000000000000000000000000000000000000003782dace9d90000000000000000000000000000000000000000000000000000000000000004aa57d00000000000000000000000000000000000000000000000000000000f0b41b4b"
                            }
                        ],
                        "constructorArguments": "",
                        "name": "sha256hash",
                        "returnParams": [
                            {
                                "name": "hash",
                                "type": "bytes32",
                                "value": "0x8be34e6ded7dec2ca61e2442e54c74d7c9a7098f5c602ca68332fdcd94fba5f5"
                            }
                        ],
                        "signature": "sha256hash(bytes)"
                    },
                    "errorInfo": "",
                    "fromAddress": "0x8d12a197cb00d4747a1fe03395095ce2a5cc6819",
                    "gasUsed": 132,
                    "id": 1,
                    "methodDecoded": true,
                    "operation": "CALL",
                    "output": "0x8be34e6ded7dec2ca61e2442e54c74d7c9a7098f5c602ca68332fdcd94fba5f5",
                    "revert": false,
                    "revertMessage": "",
                    "selector": "0x8d12a197",
                    "status": true,
                    "value": "0"
                },
                "nodeType": 0
            },
            "2": {
                "invocation": {
                    "address": "0x0000000000000000000000000000000000000001",
                    "callData": "0xaa4a60831fa9786eb8f12fafc7fe6094b6591fa1e6396e3927b7a2b1000000000000000000000000000000000000000000000000000000000000001c6251b60547f70bc8c6e69ab993a4c8585382e163d4e759bd9d0d9dc86d12e612588d0309001d034021f298b4415caa7c45edca9f47c04c0a9400721dac570b16",
                    "decodedMethod": {
                        "callParams": [
                            {
                                "name": "hash",
                                "type": "bytes32",
                                "value": "0x9502205faa4a60831fa9786eb8f12fafc7fe6094b6591fa1e6396e3927b7a2b1"
                            },
                            {
                                "name": "v",
                                "type": "uint256",
                                "value": "28"
                            },
                            {
                                "name": "r",
                                "type": "bytes32",
                                "value": "0x6251b60547f70bc8c6e69ab993a4c8585382e163d4e759bd9d0d9dc86d12e612"
                            },
                            {
                                "name": "s",
                                "type": "bytes32",
                                "value": "0x588d0309001d034021f298b4415caa7c45edca9f47c04c0a9400721dac570b16"
                            }
                        ],
                        "constructorArguments": "",
                        "name": "ecrecover",
                        "returnParams": [
                            {
                                "name": "",
                                "type": "address",
                                "value": "0x4e38405269db2e695f054f2421ffb7a1a8728907"
                            }
                        ],
                        "signature": "ecrecover(bytes32,uint256,bytes32,bytes32)"
                    },
                    "errorInfo": "",
                    "fromAddress": "0x8d12a197cb00d4747a1fe03395095ce2a5cc6819",
                    "gasUsed": 3000,
                    "id": 2,
                    "methodDecoded": true,
                    "operation": "CALL",
                    "output": "0x0000000000000000000000004e38405269db2e695f054f2421ffb7a1a8728907",
                    "revert": false,
                    "revertMessage": "",
                    "selector": "0x9502205f",
                    "status": true,
                    "value": "0"
                },
                "nodeType": 0
            },
            "3": {
                "event": {
                    "contract": "0x8d12a197cb00d4747a1fe03395095ce2a5cc6819",
                    "decodedLog": {
                        "name": "Trade",
                        "params": [
                            {
                                "name": "tokenGet",
                                "type": "address",
                                "value": "0xe469c4473af82217b30cf17b10bcdb6c8c796e75"
                            },
                            {
                                "name": "amountGet",
                                "type": "uint256",
                                "value": "27,198,434"
                            },
                            {
                                "name": "tokenGive",
                                "type": "address",
                                "value": "0x0000000000000000000000000000000000000000"
                            },
                            {
                                "name": "amountGive",
                                "type": "uint256",
                                "value": "2,719,843,400,000,000,000"
                            },
                            {
                                "name": "get",
                                "type": "address",
                                "value": "0x4e38405269db2e695f054f2421ffb7a1a8728907"
                            },
                            {
                                "name": "give",
                                "type": "address",
                                "value": "0x648b9797a1581f97528ccadd8f9ea7a22e8a7b26"
                            }
                        ],
                        "signature": "Trade(address,uint256,address,uint256,address,address)"
                    },
                    "id": 3,
                    "logData": "0x000000000000000000000000e469c4473af82217b30cf17b10bcdb6c8c796e7500000000000000000000000000000000000000000000000000000000019f03e2000000000000000000000000000000000000000000000000000000000000000000000000000000000000000000000000000000000000000025bed32975b0d0000000000000000000000000004e38405269db2e695f054f2421ffb7a1a8728907000000000000000000000000648b9797a1581f97528ccadd8f9ea7a22e8a7b26",
                    "logDecoded": true,
                    "operation": "EVENT",
                    "revert": false,
                    "status": true,
                    "topics": [
                        "0x6effdda786735d5033bfad5f53e5131abcced9e52be6c507b62d639685fbed6d"
                    ]
                },
                "nodeType": 1
            }
        },
        "gasFlame": [
            {
                "children": [
                    {
                        "children": [
                            {
                                "children": [],
                                "depth": 0,
                                "name": "Initial Gas",
                                "value": 30552
                            },
                            {
                                "children": [
                                    {
                                        "children": [],
                                        "depth": 1,
                                        "name": "sha256hash",
                                        "value": 132
                                    },
                                    {
                                        "children": [],
                                        "depth": 1,
                                        "name": "ecrecover",
                                        "value": 3000
                                    }
                                ],
                                "depth": 0,
                                "name": "Executed Gas",
                                "value": 46986
                            }
                        ],
                        "depth": -1,
                        "name": "Actual Gas Used",
                        "value": 77538
                    },
                    {
                        "children": [],
                        "depth": -1,
                        "name": "Refunded Gas",
                        "value": 0
                    }
                ],
                "depth": -2,
                "name": "Total Gas",
                "value": 77538
            }
        ],
        "isConfirmed": true,
        "mainTrace": [
            {
                "children": [
                    {
                        "children": [
                            {
                                "children": [],
                                "depth": 1,
                                "id": 1,
                                "order": 1
                            },
                            {
                                "children": [],
                                "depth": 1,
                                "id": 2,
                                "order": 2
                            },
                            {
                                "children": [],
                                "depth": 1,
                                "id": 3,
                                "order": 3
                            }
                        ],
                        "depth": 0,
                        "id": 0,
                        "order": 0
                    }
                ],
                "depth": -1,
                "id": -1,
                "order": -1
            }
        ],
        "mainTraceNodeCount": 4,
        "parentIdMap": {
            "0": -1,
            "1": 0,
            "2": 0,
            "3": 0
        },
        "tidyTrace": [
            {
                "children": [
                    {
                        "children": [
                            {
                                "children": [],
                                "depth": 1,
                                "id": 1,
                                "order": 1
                            },
                            {
                                "children": [],
                                "depth": 1,
                                "id": 2,
                                "order": 2
                            },
                            {
                                "children": [],
                                "depth": 1,
                                "id": 3,
                                "order": 3
                            }
                        ],
                        "depth": 0,
                        "id": 0,
                        "order": 0
                    }
                ],
                "depth": -1,
                "id": -1,
                "order": -1
            }
        ],
        "tidyTraceNodeCount": 4
    },
    "state_change": {
        "stateChanges": [
            {
                "address": "0x8d12a197cb00d4747a1fe03395095ce2a5cc6819",
                "erc": "",
                "slots": [
                    {
                        "current": "0x000000000000000000000000000000000000000000000000000000000032dba5",
                        "key": "0x3d40ac45bf220ba0efc451af3134a676409b999102007b36f9ba61c2e8407bbf",
                        "prev": "0x0000000000000000000000000000000000000000000000000000000001d31e42"
                    },
                    {
                        "current": "0x0000000000000000000000000000000000000000000000000000000002625a00",
                        "key": "0xe8ced34e038ecbf26ff720fbf1350bc72d654b3a0b24c9f8f2c48ebb8fa94f13",
                        "prev": "0x0000000000000000000000000000000000000000000000000000000000c3561e"
                    },
                    {
                        "current": "0x000000000000000000000000000000000000000000000000000000000197c033",
                        "key": "0x9f35fa47f6f67fc556f55081f55ff30369dbebe612a15d67a0ebf1437833e302",
                        "prev": "0x0000000000000000000000000000000000000000000000000000000001968178"
                    },
                    {
                        "current": "0x0000000000000000000000000000000000000000000000000a76a46466015ba2",
                        "key": "0x8a1057f720f5297bb5b9fa8ce1823aa135bb33430bb5e0add3633141ec962b2c",
                        "prev": "0x0000000000000000000000000000000000000000000000003035778ddbb22ba2"
                    },
                    {
                        "current": "0x00000000000000000000000000000000000000000000000025c39eef2fe7bc00",
                        "key": "0xcc4d3c035eea8ca1eaf52ec7fe045ad2e1e816a988cf2c75de6c396b02924936",
                        "prev": "0x0000000000000000000000000000000000000000000000000004cbc5ba36ec00"
                    },
                    {
                        "current": "0x0000000000000000000000000000000000000000000000000000000002625a00",
                        "key": "0x6b4ba610bda9b751e97a6ee723cfcf8ec9416860c559b9d253ae815a1628c07e",
                        "prev": "0x0000000000000000000000000000000000000000000000000000000000c3561e"
                    }
                ],
                "storageVariables": []
            }
        ]
    }
}