{
    "balance_change": {
        "balanceChanges": [
            {
                "account": "0x5de93d6c9a875615f92f2587dd7c74f2d2a20730",
                "assets": [
                    {
                        "address": "0xe3c51fc064053ebc5a802e6f1d2897bf457c244f",
                        "amount": "122.545889580000002048",
                        "iconUrl": "",
                        "isERC1155": false,
                        "isERC721": false,
                        "sign": false,
                        "value": ""
                    }
                ]
            },
            {
                "account": "0xf9f4dee73f49fff264c01e1e1cee87f3777b215a",
                "assets": [
                    {
                        "address": "0xe3c51fc064053ebc5a802e6f1d2897bf457c244f",
                        "amount": "122.545889580000002048",
                        "iconUrl": "",
                        "isERC1155": false,
                        "isERC721": false,
                        "sign": true,
                        "value": ""
                    }
                ]
            }
        ]
    },
    "profile": {
        "basic_info": {
            "baseFee": "",
            "blockNumber": 7485057,
            "callData": "0xa9059cbb000000000000000000000000f9f4dee73f49fff264c01e1e1cee87f3777b215a000000000000000000000000000000000000000000000006a4aa754c0c24c000",
            "debugEnable": true,
            "errorInfo": "",
            "eventCount": 1,
            "feeRecipient": "0x829bd824b016326a401d083b33d092293333a830",
            "formatValue": "0",
            "gasLimit": 80000,
            "gasPrice": "10",
            "gasUsed": 37980,
            "intTxnCount": 0,
            "internalRevert": false,
            "internalRevertMessage": "",
            "isContractCreation": false,
            "isFlashloan": false,
            "maxFee": "",
            "nonce": 17043,
            "overwritedBlockNumber": -1,
            "priorityFee": "",
            "receiver": "0xe3c51fc064053ebc5a802e6f1d2897bf457c244f",
            "revertMessage": "",
            "sender": "0x5de93d6c9a875615f92f2587dd7c74f2d2a20730",
            "simulationEnable": true,
            "sourceTxnHash": "0xdbd663fc09d0b06c0e243908cb1c334aac83788eff3de380759a8afef1e45c03",
            "status": true,
            "timestamp": "2019-04-01T21:36:55Z",
            "transactionFee": "0.0003798",
            "txnHash": "0xdbd663fc09d0b06c0e243908cb1c334aac83788eff3de380759a8afef1e45c03",
            "txnIndex": 7,
            "type": 0,
            "value": "0"
        },
        "fund_flow": [
            {
                "amount": "122.545889580000002048",
                "from": "0x5de93d6c9a875615f92f2587dd7c74f2d2a20730",
                "id": 1,
                "isERC1155": false,
                "isERC721": false,
                "isReverted": false,
                "order": 1,
                "to": "0xf9f4dee73f49fff264c01e1e1cee87f3777b215a",
                "token": "0xe3c51fc064053ebc5a802e6f1d2897bf457c244f"
            }
        ],
        "token_infos": [
            {
                "address": "0xc02aaa39b223fe8d0a0e5c4f27ead9083c756cc2",
                "decimals": 18
            },
            {
                "address": "0xe3c51fc064053ebc5a802e6f1d2897bf457c244f",
                "decimals": 18
            },
            {
                "address": "0xeeeeeeeeeeeeeeeeeeeeeeeeeeeeeeeeeeeeeeee",
                "decimals": 18
            }
        ]
    },
    "address_label": {
        "labels": [
            {
                "address": "0x0000000000000000000000000000000000000001",
                "label": "Precompiled"
            },
            {
                "address": "0x0000000000000000000000000000000000000002",
                "label": "Precompiled"
            },
            {
                "address": "0x0000000000000000000000000000000000000003",
                "label": "Precompiled"
            },
            {
                "address": "0x0000000000000000000000000000000000000004",
                "label": "Precompiled"
            },
            {
                "address": "0xeeeeeeeeeeeeeeeeeeeeeeeeeeeeeeeeeeeeeeee",
                "label": "Ether"
            },
            {
                "address": "0xe3c51fc064053ebc5a802e6f1d2897bf457c244f",
                "label": "JAAG"
            }
        ]
    },
    "trace": {
        "accountLabels": null,
        "dataMap": {
            "-1": {
                "invocation": {
                    "address": "0x5de93d6c9a875615f92f2587dd7c74f2d2a20730",
                    "callData": "",
                    "decodedMethod": null,
                    "errorInfo": "",
                    "fromAddress": "",
                    "gasUsed": 0,
                    "id": -1,
                    "methodDecoded": false,
                    "operation": "",
                    "output": "",
                    "revert": false,
                    "revertMessage": "",
                    "selector": "",
                    "status": false,
                    "value": ""
                },
                "nodeType": 0
            },
            "0": {
                "invocation": {
                    "address": "0xe3c51fc064053ebc5a802e6f1d2897bf457c244f",
                    "callData": "0x000000000000000000000000f9f4dee73f49fff264c01e1e1cee87f3777b215a000000000000000000000000000000000000000000000006a4aa754c0c24c000",
                    "decodedMethod": {
                        "callParams": [
                            {
                                "name": "_to",
                                "type": "address",
                                "value": "0xf9f4dee73f49fff264c01e1e1cee87f3777b215a"
                            },
                            {
                                "decimalAvailable": true,
                                "name": "_value",
                                "type": "uint256",
                                "value": "122,545,889,580,000,002,048"
                            }
                        ],
                        "constructorArguments": "",
                        "name": "transfer",
                        "returnParams": [
                            {
                                "name": "success",
                                "type": "bool",
                                "value": true
                            }
                        ],
                        "signature": "transfer(address,uint256)"
                    },
                    "errorInfo": "",
                    "fromAddress": "0x5de93d6c9a875615f92f2587dd7c74f2d2a20730",
                    "gasUsed": 37980,
                    "id": 0,
                    "methodDecoded": true,
                    "operation": "CALL",
                    "output": "0x0000000000000000000000000000000000000000000000000000000000000001",
                    "revert": false,
                    "revertMessage": "",
                    "selector": "0xa9059cbb",
                    "status": true,
                    "value": "0"
                },
                "nodeType": 0
            },
            "1": {
                "event": {
                    "contract": "0xe3c51fc064053ebc5a802e6f1d2897bf457c244f",
                    "decodedLog": {
                        "name": "Transfer",
                        "params": [
                            {
                                "name": "_from",
                                "type": "address",
                                "value": "0x5de93d6c9a875615f92f2587dd7c74f2d2a20730"
                            },
                            {
                                "name": "_to",
                                "type": "address",
                                "value": "0xf9f4dee73f49fff264c01e1e1cee87f3777b215a"
                            },
                            {
                                "decimalAvailable": true,
                                "name": "_value",
                                "type": "uint256",
                                "value": "122,545,889,580,000,002,048"
                            }
                        ],
                        "signature": "Transfer(address,address,uint256)"
                    },
                    "id": 1,
                    "logData": "0x000000000000000000000000000000000000000000000006a4aa754c0c24c000",
                    "logDecoded": true,
                    "operation": "EVENT",
                    "revert": false,
                    "status": true,
                    "topics": [
                        "0xddf252ad1be2c89b69c2b068fc378daa952ba7f163c4a11628f55a4df523b3ef",
                        "0x0000000000000000000000005de93d6c9a875615f92f2587dd7c74f2d2a20730",
                        "0x000000000000000000000000f9f4dee73f49fff264c01e1e1cee87f3777b215a"
                    ]
                },
                "nodeType": 1
            }
        },
        "gasFlame": [
            {
                "children": [
                    {
                        "children": [
                            {
                                "children": [],
                                "depth": 0,
                                "name": "Initial Gas",
                                "value": 23320
                            },
                            {
                                "children": [],
                                "depth": 0,
                                "name": "Executed Gas",
                                "value": 14660
                            }
                        ],
                        "depth": -1,
                        "name": "Actual Gas Used",
                        "value": 37980
                    },
                    {
                        "children": [],
                        "depth": -1,
                        "name": "Refunded Gas",
                        "value": 0
                    }
                ],
                "depth": -2,
                "name": "Total Gas",
                "value": 37980
            }
        ],
        "isConfirmed": true,
        "mainTrace": [
            {
                "children": [
                    {
                        "children": [
                            {
                                "children": [],
                                "depth": 1,
                                "id": 1,
                                "order": 1
                            }
                        ],
                        "depth": 0,
                        "id": 0,
                        "order": 0
                    }
                ],
                "depth": -1,
                "id": -1,
                "order": -1
            }
        ],
        "mainTraceNodeCount": 2,
        "parentIdMap": {
            "0": -1,
            "1": 0
        },
        "tidyTrace": [
            {
                "children": [
                    {
                        "children": [
                            {
                                "children": [],
                                "depth": 1,
                                "id": 1,
                                "order": 1
                            }
                        ],
                        "depth": 0,
                        "id": 0,
                        "order": 0
                    }
                ],
                "depth": -1,
                "id": -1,
                "order": -1
            }
        ],
        "tidyTraceNodeCount": 2
    },
    "state_change": {
        "stateChanges": [
            {
                "address": "0xe3c51fc064053ebc5a802e6f1d2897bf457c244f",
                "erc": "ERC-20",
                "slots": [
                    {
                        "current": "0x000000000000000000000000000000000000000000000017515bfac082584000",
                        "key": "0xaf92bd3a2908629d16c22bd72003f606acd29e53a187be023f6a75e6221f3ac1",
                        "prev": "0x000000000000000000000000000000000000000000000010acb1857476338000"
                    },
                    {
                        "current": "0x0000000000000000000000000000000000000000000003d9dded141836bc5e00",
                        "key": "0xd72d6ba30a56f7386076ba4875c79637f25a912063661589ed05ac995599d8c0",
                        "prev": "0x0000000000000000000000000000000000000000000003e08297896442e11e00"
                    }
                ],
                "storageVariables": [
                    {
                        "name": "balances",
                        "type": "mapping(address => uint256)",
                        "value": {
                            "pairs": [
                                {
                                    "key": "0x5de93d6c9a875615f92f2587dd7c74f2d2a20730",
                                    "value": {
                                        "current": "18186034372550000926208",
                                        "prev": "18308580262130000928256",
                                        "typeTag": 1
                                    }
                                },
                                {
                                    "key": "0xf9f4dee73f49fff264c01e1e1cee87f3777b215a",
                                    "value": {
                                        "current": "430137668740000006144",
                                        "prev": "307591779160000004096",
                                        "typeTag": 1
                                    }
                                }
                            ],
                            "typeTag": 4
                        }
                    }
                ]
            }
        ]
    }
}