{
    "balance_change": {
        "balanceChanges": []
    },
    "profile": {
        "basic_info": {
            "baseFee": "",
            "blockNumber": 5227147,
            "callData": "0x57202bfd000000000000000000000000e8aad8cbeda0b5da6ad67c22094eac8274ac0ce80000000000000000000000004534a1510b3ef5bfc4f03935ebfbb35e20d794ff0000000000000000000000000000000000000000000000000000000000000000",
            "debugEnable": true,
            "errorInfo": "",
            "eventCount": 3,
            "feeRecipient": "0x5a0b54d5dc17e0aadc383d2db43b0a0d3e029c4c",
            "formatValue": "0",
            "gasLimit": 2000000,
            "gasPrice": "4.000000001",
            "gasUsed": 66316,
            "intTxnCount": 3,
            "internalRevert": false,
            "internalRevertMessage": "",
            "isContractCreation": false,
            "isFlashloan": false,
            "maxFee": "",
            "nonce": 120783,
            "overwritedBlockNumber": -1,
            "priorityFee": "",
            "receiver": "0x71d271f8b14adef568f8f28f1587ce7271ac4ca5",
            "revertMessage": "",
            "sender": "0xdaf10e9794b83c02bc5484200e9b97b66f19fa58",
            "simulationEnable": true,
            "sourceTxnHash": "0xdca76a18b7020d189a52546008a907374f80a9522a8192f20796f55c59247800",
            "status": true,
            "timestamp": "2018-03-09T23:53:20Z",
            "transactionFee": "0.000265264000066316",
            "txnHash": "0xdca76a18b7020d189a52546008a907374f80a9522a8192f20796f55c59247800",
            "txnIndex": 55,
            "type": 0,
            "value": "0"
        },
        "fund_flow": [],
        "token_infos": [
            {
                "address": "0xc02aaa39b223fe8d0a0e5c4f27ead9083c756cc2",
                "decimals": 18
            },
            {
                "address": "0xeeeeeeeeeeeeeeeeeeeeeeeeeeeeeeeeeeeeeeee",
                "decimals": 18
            }
        ]
    },
    "address_label": {
        "labels": [
            {
                "address": "0xeeeeeeeeeeeeeeeeeeeeeeeeeeeeeeeeeeeeeeee",
                "label": "Ether"
            },
            {
                "address": "0x48681684ffcc808c10e519364d31b73662b3e333",
                "label": "Ambi2"
            },
            {
                "address": "0x0000000000000000000000000000000000000001",
                "label": "Precompiled"
            },
            {
                "address": "0x0000000000000000000000000000000000000002",
                "label": "Precompiled"
            },
            {
                "address": "0x0000000000000000000000000000000000000003",
                "label": "Precompiled"
            },
            {
                "address": "0x0000000000000000000000000000000000000004",
                "label": "Precompiled"
            }
        ]
    },
    "trace": {
        "accountLabels": null,
        "dataMap": {
            "-1": {
                "invocation": {
                    "address": "0xdaf10e9794b83c02bc5484200e9b97b66f19fa58",
                    "callData": "",
                    "decodedMethod": null,
                    "errorInfo": "",
                    "fromAddress": "",
                    "gasUsed": 0,
                    "id": -1,
                    "methodDecoded": false,
                    "operation": "",
                    "output": "",
                    "revert": false,
                    "revertMessage": "",
                    "selector": "",
                    "status": false,
                    "value": ""
                },
                "nodeType": 0
            },
            "0": {
                "invocation": {
                    "address": "0x71d271f8b14adef568f8f28f1587ce7271ac4ca5",
                    "callData": "0x000000000000000000000000e8aad8cbeda0b5da6ad67c22094eac8274ac0ce80000000000000000000000004534a1510b3ef5bfc4f03935ebfbb35e20d794ff0000000000000000000000000000000000000000000000000000000000000000",
                    "decodedMethod": null,
                    "errorInfo": "",
                    "fromAddress": "0xdaf10e9794b83c02bc5484200e9b97b66f19fa58",
                    "gasUsed": 66316,
                    "id": 0,
                    "methodDecoded": false,
                    "operation": "CALL",
                    "output": "0x0000000000000000000000000000000000000000000000000000000000000001",
                    "revert": false,
                    "revertMessage": "",
                    "selector": "0x57202bfd",
                    "status": true,
                    "value": "0"
                },
                "nodeType": 0
            },
            "1": {
                "invocation": {
                    "address": "0x48681684ffcc808c10e519364d31b73662b3e333",
                    "callData": "0x00000000000000000000000071d271f8b14adef568f8f28f1587ce7271ac4ca561737369676e0000000000000000000000000000000000000000000000000000000000000000000000000000daf10e9794b83c02bc5484200e9b97b66f19fa58",
                    "decodedMethod": {
                        "callParams": [
                            {
                                "name": "_from",
                                "type": "address",
                                "value": "0x71d271f8b14adef568f8f28f1587ce7271ac4ca5"
                            },
                            {
                                "name": "_role",
                                "type": "bytes32",
                                "value": "0x61737369676e0000000000000000000000000000000000000000000000000000"
                            },
                            {
                                "name": "_to",
                                "type": "address",
                                "value": "0xdaf10e9794b83c02bc5484200e9b97b66f19fa58"
                            }
                        ],
                        "constructorArguments": "",
                        "name": "hasRole",
                        "returnParams": [
                            {
                                "name": "",
                                "type": "bool",
                                "value": true
                            }
                        ],
                        "signature": "hasRole(address,bytes32,address)"
                    },
                    "errorInfo": "",
                    "fromAddress": "0x71d271f8b14adef568f8f28f1587ce7271ac4ca5",
                    "gasUsed": 1031,
                    "id": 1,
                    "methodDecoded": true,
                    "operation": "CALL",
                    "output": "0x0000000000000000000000000000000000000000000000000000000000000001",
                    "revert": false,
                    "revertMessage": "",
                    "selector": "0x2d3e579a",
                    "status": true,
                    "value": "0"
                },
                "nodeType": 0
            },
            "2": {
                "invocation": {
                    "address": "0xe8aad8cbeda0b5da6ad67c22094eac8274ac0ce8",
                    "callData": "0x0000000000000000000000004534a1510b3ef5bfc4f03935ebfbb35e20d794ff0000000000000000000000000000000000000000000000000000000000000000",
                    "decodedMethod": {
                        "callParams": [
                            {
                                "name": "_management",
                                "type": "address",
                                "value": "0x4534a1510b3ef5bfc4f03935ebfbb35e20d794ff"
                            },
                            {
                                "name": "_sta",
                                "type": "bool",
                                "value": false
                            }
                        ],
                        "constructorArguments": "",
                        "name": "init",
                        "returnParams": [],
                        "signature": "init(address,bool)"
                    },
                    "errorInfo": "",
                    "fromAddress": "0x71d271f8b14adef568f8f28f1587ce7271ac4ca5",
                    "gasUsed": 50678,
                    "id": 2,
                    "methodDecoded": true,
                    "operation": "CALL",
                    "output": "0x0000000000000000000000000000000000000000000000000000000000000000",
                    "revert": false,
                    "revertMessage": "",
                    "selector": "0xcb9fa366",
                    "status": true,
                    "value": "0"
                },
                "nodeType": 0
            },
            "3": {
                "invocation": {
                    "address": "0xc3b2ae46792547a96b9f84405e36d0e07edcd05c",
                    "callData": "0x0000000000000000000000004534a1510b3ef5bfc4f03935ebfbb35e20d794ff0000000000000000000000000000000000000000000000000000000000000000",
                    "decodedMethod": {
                        "callParams": [
                            {
                                "name": "_management",
                                "type": "address",
                                "value": "0x4534a1510b3ef5bfc4f03935ebfbb35e20d794ff"
                            },
                            {
                                "name": "_sta",
                                "type": "bool",
                                "value": false
                            }
                        ],
                        "constructorArguments": "",
                        "name": "init",
                        "returnParams": [],
                        "signature": "init(address,bool)"
                    },
                    "errorInfo": "",
                    "fromAddress": "0xe8aad8cbeda0b5da6ad67c22094eac8274ac0ce8",
                    "gasUsed": 49817,
                    "id": 3,
                    "methodDecoded": true,
                    "operation": "DELEGATECALL",
                    "output": "",
                    "revert": false,
                    "revertMessage": "",
                    "selector": "0xcb9fa366",
                    "status": true,
                    "value": "0"
                },
                "nodeType": 0
            },
            "4": {
                "event": {
                    "contract": "0xe8aad8cbeda0b5da6ad67c22094eac8274ac0ce8",
                    "decodedLog": {
                        "name": "RevokeAccess",
                        "params": [
                            {
                                "name": "a",
                                "type": "address",
                                "value": "0x71d271f8b14adef568f8f28f1587ce7271ac4ca5"
                            }
                        ],
                        "signature": "RevokeAccess(address)"
                    },
                    "id": 4,
                    "logData": "0x00000000000000000000000071d271f8b14adef568f8f28f1587ce7271ac4ca5",
                    "logDecoded": true,
                    "operation": "EVENT",
                    "revert": false,
                    "status": true,
                    "topics": [
                        "0x24d1827423a4c66732fc6c67bc0748ab490dd042bf77a735f09ccc40e26e4932"
                    ]
                },
                "nodeType": 1
            },
            "5": {
                "event": {
                    "contract": "0xe8aad8cbeda0b5da6ad67c22094eac8274ac0ce8",
                    "decodedLog": {
                        "name": "GrantAccess",
                        "params": [
                            {
                                "name": "a",
                                "type": "address",
                                "value": "0x4534a1510b3ef5bfc4f03935ebfbb35e20d794ff"
                            }
                        ],
                        "signature": "GrantAccess(address)"
                    },
                    "id": 5,
                    "logData": "0x0000000000000000000000004534a1510b3ef5bfc4f03935ebfbb35e20d794ff",
                    "logDecoded": true,
                    "operation": "EVENT",
                    "revert": false,
                    "status": true,
                    "topics": [
                        "0x25b10c0526638e6891022dd8799ed694dbb9aaf113e89aa0c33e83af5b228cad"
                    ]
                },
                "nodeType": 1
            },
            "6": {
                "event": {
                    "contract": "0x71d271f8b14adef568f8f28f1587ce7271ac4ca5",
                    "decodedLog": null,
                    "id": 6,
                    "logData": "0x000000000000000000000000e8aad8cbeda0b5da6ad67c22094eac8274ac0ce8",
                    "logDecoded": false,
                    "operation": "EVENT",
                    "revert": false,
                    "status": true,
                    "topics": [
                        "0xa9e1ee75e4263e8342f99947ca4f1085ef453a8540f800cd48c7d1e0a7621bae",
                        "0x0000000000000000000000004534a1510b3ef5bfc4f03935ebfbb35e20d794ff"
                    ]
                },
                "nodeType": 1
            }
        },
        "gasFlame": [
            {
                "children": [
                    {
                        "children": [
                            {
                                "children": [],
                                "depth": 0,
                                "name": "Initial Gas",
                                "value": 24216
                            },
                            {
                                "children": [
                                    {
                                        "children": [],
                                        "depth": 1,
                                        "name": "hasRole",
                                        "value": 1031
                                    },
                                    {
                                        "children": [
                                            {
                                                "children": [],
                                                "depth": 2,
                                                "name": "init",
                                                "value": 49817
                                            }
                                        ],
                                        "depth": 1,
                                        "name": "init",
                                        "value": 50678
                                    }
                                ],
                                "depth": 0,
                                "name": "Executed Gas",
                                "value": 57100
                            }
                        ],
                        "depth": -1,
                        "name": "Actual Gas Used",
                        "value": 66316
                    },
                    {
                        "children": [],
                        "depth": -1,
                        "name": "Refunded Gas",
                        "value": 15000
                    }
                ],
                "depth": -2,
                "name": "Total Gas",
                "value": 81316
            }
        ],
        "isConfirmed": true,
        "mainTrace": [
            {
                "children": [
                    {
                        "children": [
                            {
                                "children": [],
                                "depth": 1,
                                "id": 1,
                                "order": 1
                            },
                            {
                                "children": [
                                    {
                                        "children": [
                                            {
                                                "children": [],
                                                "depth": 3,
                                                "id": 4,
                                                "order": 4
                                            },
                                            {
                                                "children": [],
                                                "depth": 3,
                                                "id": 5,
                                                "order": 5
                                            }
                                        ],
                                        "depth": 2,
                                        "id": 3,
                                        "order": 3
                                    }
                                ],
                                "depth": 1,
                                "id": 2,
                                "order": 2
                            },
                            {
                                "children": [],
                                "depth": 1,
                                "id": 6,
                                "order": 6
                            }
                        ],
                        "depth": 0,
                        "id": 0,
                        "order": 0
                    }
                ],
                "depth": -1,
                "id": -1,
                "order": -1
            }
        ],
        "mainTraceNodeCount": 7,
        "parentIdMap": {
            "0": -1,
            "1": 0,
            "2": 0,
            "3": 2,
            "4": 3,
            "5": 3,
            "6": 0
        },
        "tidyTrace": [
            {
                "children": [
                    {
                        "children": [
                            {
                                "children": [],
                                "depth": 1,
                                "id": 1,
                                "order": 1
                            },
                            {
                                "children": [
                                    {
                                        "children": [
                                            {
                                                "children": [],
                                                "depth": 3,
                                                "id": 4,
                                                "order": 4
                                            },
                                            {
                                                "children": [],
                                                "depth": 3,
                                                "id": 5,
                                                "order": 5
                                            }
                                        ],
                                        "depth": 2,
                                        "id": 3,
                                        "order": 3
                                    }
                                ],
                                "depth": 1,
                                "id": 2,
                                "order": 2
                            },
                            {
                                "children": [],
                                "depth": 1,
                                "id": 6,
                                "order": 6
                            }
                        ],
                        "depth": 0,
                        "id": 0,
                        "order": 0
                    }
                ],
                "depth": -1,
                "id": -1,
                "order": -1
            }
        ],
        "tidyTraceNodeCount": 7
    },
    "state_change": {
        "stateChanges": [
            {
                "address": "0xe8aad8cbeda0b5da6ad67c22094eac8274ac0ce8",
                "erc": "",
                "slots": [
                    {
                        "current": "0x0000000000000000000000000000000000000000000000000000000000000000",
                        "key": "0xe11e6be0b8558b7fb4ceb0f589d475127642c00aa88fe721f13e495aedafbd23",
                        "prev": "0x0000000000000000000000000000000000000000000000000000000000000001"
                    },
                    {
                        "current": "0x0000000000000000000000000000000000000000000000000000000000000001",
                        "key": "0x6399ad11827d22263bc713370efbb335f5ade4fd8fdc4313d3b794fe46d21b0b",
                        "prev": "0x0000000000000000000000000000000000000000000000000000000000000000"
                    },
                    {
                        "current": "0x0000000000000000000000000000000000000000000000000000000000000001",
                        "key": "0x0000000000000000000000000000000000000000000000000000000000000003",
                        "prev": "0x0000000000000000000000000000000000000000000000000000000000000000"
                    }
                ],
                "storageVariables": []
            }
        ]
    }
}