{
    "balance_change": {
        "balanceChanges": [
            {
                "account": "0xc9024ee35c6c0600c38f73177cf14e51f276fe33",
                "assets": [
                    {
                        "address": "0xeeeeeeeeeeeeeeeeeeeeeeeeeeeeeeeeeeeeeeee",
                        "amount": "0.00125294",
                        "iconUrl": "https://assets.blocksec.com/image/1663669189317-3.png",
                        "isERC1155": false,
                        "isERC721": false,
                        "sign": false,
                        "value": "2.071986878000000057"
                    }
                ]
            },
            {
                "account": "0xfd4492e70df97a6155c6d244f5ec5b5a39b6f096",
                "assets": [
                    {
                        "address": "0xeeeeeeeeeeeeeeeeeeeeeeeeeeeeeeeeeeeeeeee",
                        "amount": "0.00125294",
                        "iconUrl": "https://assets.blocksec.com/image/1663669189317-3.png",
                        "isERC1155": false,
                        "isERC721": false,
                        "sign": true,
                        "value": "2.071986878000000057"
                    }
                ]
            }
        ]
    },
    "profile": {
        "basic_info": {
            "baseFee": "13.345629576",
            "blockNumber": 17994657,
            "callData": "0x478d326700000000000000000000000000000000000000000000000000000000000000800000000000000000000000000000000000000000000000000004738ad39ff800000000000000000000000000000000000000000000000000000000000112939f00000000000000000000000000000000000000000000000000000000000000c000000000000000000000000000000000000000000000000000000000000000183634653932393936333834373063613435623939333061640000000000000000000000000000000000000000000000000000000000000000000000000000004107c1749c6a5d5d4baf1caaa4b5e7649d873a5d2f4a890bce4a5bccd4a3e9084059fccd0f225519dc856f0b5cb50f779a039db4c79fb0c766b5f7d4eb992cabc21c00000000000000000000000000000000000000000000000000000000000000",
            "debugEnable": true,
            "errorInfo": "",
            "eventCount": 1,
            "feeRecipient": "0x0eafa1c66a72238e54a7156fdaf8cda3afc95ae8",
            "formatValue": "0.00125294",
            "gasLimit": 54000,
            "gasPrice": "13.445629576",
            "gasUsed": 44914,
            "intTxnCount": 2,
            "internalRevert": false,
            "internalRevertMessage": "",
            "isContractCreation": false,
            "isFlashloan": false,
            "maxFee": "18",
            "nonce": 59,
            "overwritedBlockNumber": -1,
            "priorityFee": "0.1",
            "receiver": "0x9da2c7d27df3d81d5d0270dc388ac5682cd1f441",
            "revertMessage": "",
            "sender": "0xc9024ee35c6c0600c38f73177cf14e51f276fe33",
            "simulationEnable": true,
            "sourceTxnHash": "0xdc1e0144792824441540d24075286bd14406939610a7799127190fe72a6d7c4a",
            "status": true,
            "timestamp": "2023-08-25T22:22:35Z",
            "transactionFee": "0.000603897006776464",
            "txnHash": "0xdc1e0144792824441540d24075286bd14406939610a7799127190fe72a6d7c4a",
            "txnIndex": 79,
            "type": 2,
            "value": "1252940000000000"
        },
        "fund_flow": [
            {
                "amount": "0.00125294",
                "from": "0xc9024ee35c6c0600c38f73177cf14e51f276fe33",
                "id": 1,
                "isERC1155": false,
                "isERC721": false,
                "isReverted": false,
                "order": 1,
                "to": "0x9da2c7d27df3d81d5d0270dc388ac5682cd1f441",
                "token": "0xeeeeeeeeeeeeeeeeeeeeeeeeeeeeeeeeeeeeeeee"
            },
            {
                "amount": "0.00125294",
                "from": "0x9da2c7d27df3d81d5d0270dc388ac5682cd1f441",
                "id": 2,
                "isERC1155": false,
                "isERC721": false,
                "isReverted": false,
                "order": 2,
                "to": "0xfd4492e70df97a6155c6d244f5ec5b5a39b6f096",
                "token": "0xeeeeeeeeeeeeeeeeeeeeeeeeeeeeeeeeeeeeeeee"
            }
        ],
        "token_infos": [
            {
                "address": "0xc02aaa39b223fe8d0a0e5c4f27ead9083c756cc2",
                "decimals": 18
            },
            {
                "address": "0xeeeeeeeeeeeeeeeeeeeeeeeeeeeeeeeeeeeeeeee",
                "decimals": 18
            }
        ]
    },
    "address_label": {
        "labels": [
            {
                "address": "0x0000000000000000000000000000000000000002",
                "label": "Precompiled"
            },
            {
                "address": "0x0000000000000000000000000000000000000003",
                "label": "Precompiled"
            },
            {
                "address": "0x0000000000000000000000000000000000000004",
                "label": "Precompiled"
            },
            {
                "address": "0xeeeeeeeeeeeeeeeeeeeeeeeeeeeeeeeeeeeeeeee",
                "label": "Ether"
            },
            {
                "address": "0x9da2c7d27df3d81d5d0270dc388ac5682cd1f441",
                "label": "GalaTreasureChestClaimFee"
            },
            {
                "address": "0x0000000000000000000000000000000000000001",
                "label": "Precompiled"
            }
        ]
    },
    "trace": {
        "accountLabels": null,
        "dataMap": {
            "-1": {
                "invocation": {
                    "address": "0xc9024ee35c6c0600c38f73177cf14e51f276fe33",
                    "callData": "",
                    "decodedMethod": null,
                    "errorInfo": "",
                    "fromAddress": "",
                    "gasUsed": 0,
                    "id": -1,
                    "methodDecoded": false,
                    "operation": "",
                    "output": "",
                    "revert": false,
                    "revertMessage": "",
                    "selector": "",
                    "status": false,
                    "value": ""
                },
                "nodeType": 0
            },
            "0": {
                "invocation": {
                    "address": "0x9da2c7d27df3d81d5d0270dc388ac5682cd1f441",
                    "callData": "0x00000000000000000000000000000000000000000000000000000000000000800000000000000000000000000000000000000000000000000004738ad39ff800000000000000000000000000000000000000000000000000000000000112939f00000000000000000000000000000000000000000000000000000000000000c000000000000000000000000000000000000000000000000000000000000000183634653932393936333834373063613435623939333061640000000000000000000000000000000000000000000000000000000000000000000000000000004107c1749c6a5d5d4baf1caaa4b5e7649d873a5d2f4a890bce4a5bccd4a3e9084059fccd0f225519dc856f0b5cb50f779a039db4c79fb0c766b5f7d4eb992cabc21c00000000000000000000000000000000000000000000000000000000000000",
                    "decodedMethod": {
                        "callParams": [
                            {
                                "name": "refId",
                                "type": "string",
                                "value": "64e9299638470ca45b9930ad"
                            },
                            {
                                "name": "amount",
                                "type": "uint256",
                                "value": "1,252,940,000,000,000"
                            },
                            {
                                "name": "blockSigned",
                                "type": "uint256",
                                "value": "17,994,655"
                            },
                            {
                                "name": "sig",
                                "type": "bytes",
                                "value": "0x07c1749c6a5d5d4baf1caaa4b5e7649d873a5d2f4a890bce4a5bccd4a3e9084059fccd0f225519dc856f0b5cb50f779a039db4c79fb0c766b5f7d4eb992cabc21c"
                            }
                        ],
                        "constructorArguments": "",
                        "name": "pay",
                        "returnParams": [],
                        "signature": "pay(string,uint256,uint256,bytes)"
                    },
                    "errorInfo": "",
                    "fromAddress": "0xc9024ee35c6c0600c38f73177cf14e51f276fe33",
                    "gasUsed": 44914,
                    "id": 0,
                    "methodDecoded": true,
                    "operation": "CALL",
                    "output": "",
                    "revert": false,
                    "revertMessage": "",
                    "selector": "0x478d3267",
                    "status": true,
                    "value": "0.00125294"
                },
                "nodeType": 0
            },
            "1": {
                "invocation": {
                    "address": "0x0000000000000000000000000000000000000001",
                    "callData": "0xffc70cf1a98b2859964792593281e691d2d69565f274979382f9fe3f000000000000000000000000000000000000000000000000000000000000001c07c1749c6a5d5d4baf1caaa4b5e7649d873a5d2f4a890bce4a5bccd4a3e9084059fccd0f225519dc856f0b5cb50f779a039db4c79fb0c766b5f7d4eb992cabc2",
                    "decodedMethod": {
                        "callParams": [
                            {
                                "name": "hash",
                                "type": "bytes32",
                                "value": "0xf4bb098effc70cf1a98b2859964792593281e691d2d69565f274979382f9fe3f"
                            },
                            {
                                "name": "v",
                                "type": "uint256",
                                "value": "28"
                            },
                            {
                                "name": "r",
                                "type": "bytes32",
                                "value": "0x07c1749c6a5d5d4baf1caaa4b5e7649d873a5d2f4a890bce4a5bccd4a3e90840"
                            },
                            {
                                "name": "s",
                                "type": "bytes32",
                                "value": "0x59fccd0f225519dc856f0b5cb50f779a039db4c79fb0c766b5f7d4eb992cabc2"
                            }
                        ],
                        "constructorArguments": "",
                        "name": "ecrecover",
                        "returnParams": [
                            {
                                "name": "",
                                "type": "address",
                                "value": "0xfd4492e70df97a6155c6d244f5ec5b5a39b6f096"
                            }
                        ],
                        "signature": "ecrecover(bytes32,uint256,bytes32,bytes32)"
                    },
                    "errorInfo": "",
                    "fromAddress": "0x9da2c7d27df3d81d5d0270dc388ac5682cd1f441",
                    "gasUsed": 3000,
                    "id": 1,
                    "methodDecoded": true,
                    "operation": "STATICCALL",
                    "output": "0x000000000000000000000000fd4492e70df97a6155c6d244f5ec5b5a39b6f096",
                    "revert": false,
                    "revertMessage": "",
                    "selector": "0xf4bb098e",
                    "status": true,
                    "value": "0"
                },
                "nodeType": 0
            },
            "2": {
                "invocation": {
                    "address": "0xfd4492e70df97a6155c6d244f5ec5b5a39b6f096",
                    "callData": "0x",
                    "decodedMethod": null,
                    "errorInfo": "",
                    "fromAddress": "0x9da2c7d27df3d81d5d0270dc388ac5682cd1f441",
                    "gasUsed": 0,
                    "id": 2,
                    "methodDecoded": false,
                    "operation": "CALL",
                    "output": "",
                    "revert": false,
                    "revertMessage": "",
                    "selector": "fallback",
                    "status": true,
                    "value": "0.00125294"
                },
                "nodeType": 0
            },
            "3": {
                "event": {
                    "contract": "0x9da2c7d27df3d81d5d0270dc388ac5682cd1f441",
                    "decodedLog": {
                        "name": "PaymentExecuted",
                        "params": [
                            {
                                "name": "refId",
                                "type": "string",
                                "value": "64e9299638470ca45b9930ad"
                            },
                            {
                                "name": "amount",
                                "type": "uint256",
                                "value": "1,252,940,000,000,000"
                            },
                            {
                                "name": "blockSigned",
                                "type": "uint256",
                                "value": "17,994,655"
                            }
                        ],
                        "signature": "PaymentExecuted(string,uint256,uint256)"
                    },
                    "id": 3,
                    "logData": "0x00000000000000000000000000000000000000000000000000000000000000600000000000000000000000000000000000000000000000000004738ad39ff800000000000000000000000000000000000000000000000000000000000112939f00000000000000000000000000000000000000000000000000000000000000183634653932393936333834373063613435623939333061640000000000000000",
                    "logDecoded": true,
                    "operation": "EVENT",
                    "revert": false,
                    "status": true,
                    "topics": [
                        "0xe56ca6e9a81874e5a0d13f616127ff156f98b8c2546e7810b271bdfac7cadfb1"
                    ]
                },
                "nodeType": 1
            }
        },
        "gasFlame": [
            {
                "children": [
                    {
                        "children": [
                            {
                                "children": [],
                                "depth": 0,
                                "name": "Initial Gas",
                                "value": 23580
                            },
                            {
                                "children": [
                                    {
                                        "children": [],
                                        "depth": 1,
                                        "name": "ecrecover",
                                        "value": 3000
                                    },
                                    {
                                        "children": [],
                                        "depth": 1,
                                        "name": "fallback",
                                        "value": 0
                                    }
                                ],
                                "depth": 0,
                                "name": "Executed Gas",
                                "value": 21334
                            }
                        ],
                        "depth": -1,
                        "name": "Actual Gas Used",
                        "value": 44914
                    },
                    {
                        "children": [],
                        "depth": -1,
                        "name": "Refunded Gas",
                        "value": 0
                    }
                ],
                "depth": -2,
                "name": "Total Gas",
                "value": 44914
            }
        ],
        "isConfirmed": true,
        "mainTrace": [
            {
                "children": [
                    {
                        "children": [
                            {
                                "children": [],
                                "depth": 1,
                                "id": 1,
                                "order": 1
                            },
                            {
                                "children": [],
                                "depth": 1,
                                "id": 2,
                                "order": 2
                            },
                            {
                                "children": [],
                                "depth": 1,
                                "id": 3,
                                "order": 3
                            }
                        ],
                        "depth": 0,
                        "id": 0,
                        "order": 0
                    }
                ],
                "depth": -1,
                "id": -1,
                "order": -1
            }
        ],
        "mainTraceNodeCount": 4,
        "parentIdMap": {
            "0": -1,
            "1": 0,
            "2": 0,
            "3": 0
        },
        "tidyTrace": [
            {
                "children": [
                    {
                        "children": [
                            {
                                "children": [],
                                "depth": 1,
                                "id": 2,
                                "order": 2
                            },
                            {
                                "children": [],
                                "depth": 1,
                                "id": 3,
                                "order": 3
                            }
                        ],
                        "depth": 0,
                        "id": 0,
                        "order": 0
                    }
                ],
                "depth": -1,
                "id": -1,
                "order": -1
            }
        ],
        "tidyTraceNodeCount": 3
    },
    "state_change": {
        "stateChanges": []
    }
}