{
    "balance_change": {
        "balanceChanges": [
            {
                "account": "0x91d7600d8aa386001b3328988a2d8f295de128b3",
                "assets": [
                    {
                        "address": "0xeeeeeeeeeeeeeeeeeeeeeeeeeeeeeeeeeeeeeeee",
                        "amount": "0.25",
                        "iconUrl": "https://assets.blocksec.com/image/1663669189317-3.png",
                        "isERC1155": false,
                        "isERC721": false,
                        "sign": false,
                        "value": "822.633107"
                    },
                    {
                        "address": "0x6fc355d4e0ee44b292e50878f49798ff755a5bbc",
                        "amount": "1",
                        "iconUrl": "",
                        "isERC1155": false,
                        "isERC721": true,
                        "sign": true,
                        "tokenID": "6905",
                        "value": ""
                    }
                ]
            },
            {
                "account": "0x119ee30e0478cc0fcc7c739ae0fb73645ecc513a",
                "assets": [
                    {
                        "address": "0xeeeeeeeeeeeeeeeeeeeeeeeeeeeeeeeeeeeeeeee",
                        "amount": "0.225",
                        "iconUrl": "https://assets.blocksec.com/image/1663669189317-3.png",
                        "isERC1155": false,
                        "isERC721": false,
                        "sign": true,
                        "value": "740.3697963"
                    },
                    {
                        "address": "0x6fc355d4e0ee44b292e50878f49798ff755a5bbc",
                        "amount": "1",
                        "iconUrl": "",
                        "isERC1155": false,
                        "isERC721": true,
                        "sign": false,
                        "tokenID": "6905",
                        "value": ""
                    }
                ]
            },
            {
                "account": "0x5b3256965e7c3cf26e11fcaf296dfc8807c01073",
                "assets": [
                    {
                        "address": "0xeeeeeeeeeeeeeeeeeeeeeeeeeeeeeeeeeeeeeeee",
                        "amount": "0.025",
                        "iconUrl": "https://assets.blocksec.com/image/1663669189317-3.png",
                        "isERC1155": false,
                        "isERC721": false,
                        "sign": true,
                        "value": "82.26331069"
                    }
                ]
            }
        ]
    },
    "profile": {
        "basic_info": {
            "baseFee": "68.882804393",
            "blockNumber": 13128457,
            "callData": "0xab834bab0000000000000000000000007be8076f4ea4a4ad08075c2508e481d6c946d12b00000000000000000000000091d7600d8aa386001b3328988a2d8f295de128b3000000000000000000000000119ee30e0478cc0fcc7c739ae0fb73645ecc513a00000000000000000000000000000000000000000000000000000000000000000000000000000000000000006fc355d4e0ee44b292e50878f49798ff755a5bbc000000000000000000000000000000000000000000000000000000000000000000000000000000000000000000000000000000000000000000000000000000000000000000000000000000007be8076f4ea4a4ad08075c2508e481d6c946d12b000000000000000000000000119ee30e0478cc0fcc7c739ae0fb73645ecc513a00000000000000000000000000000000000000000000000000000000000000000000000000000000000000005b3256965e7c3cf26e11fcaf296dfc8807c010730000000000000000000000006fc355d4e0ee44b292e50878f49798ff755a5bbc0000000000000000000000000000000000000000000000000000000000000000000000000000000000000000000000000000000000000000000000000000000000000000000000000000000000000000000000000000000000000000000003e800000000000000000000000000000000000000000000000000000000000000000000000000000000000000000000000000000000000000000000000000000000000000000000000000000000000000000000000000000000000000000000000000000000000000000000000000000000000000000000000003782dace9d90000000000000000000000000000000000000000000000000000000000000000000000000000000000000000000000000000000000000000000000000000612d1fde0000000000000000000000000000000000000000000000000000000000000000c75fc0dfca70874f555348043998c974c857153d930969a5d0e5ec7ebd7b847600000000000000000000000000000000000000000000000000000000000003e800000000000000000000000000000000000000000000000000000000000000000000000000000000000000000000000000000000000000000000000000000000000000000000000000000000000000000000000000000000000000000000000000000000000000000000000000000000000000000000000003782dace9d90000000000000000000000000000000000000000000000000000000000000000000000000000000000000000000000000000000000000000000000000000612d13bd000000000000000000000000000000000000000000000000000000000000000037ed7bde79daf87f5283561b1c940870917787bd53c147096b33223a22500a0d0000000000000000000000000000000000000000000000000000000000000001000000000000000000000000000000000000000000000000000000000000000000000000000000000000000000000000000000000000000000000000000000000000000000000000000000000000000000000000000000000000000000000000000000000000000000000000000000000000000000000000000000000000000100000000000000000000000000000000000000000000000000000000000000010000000000000000000000000000000000000000000000000000000000000000000000000000000000000000000000000000000000000000000000000000000000000000000000000000000000000000000000000000000000000000000006a0000000000000000000000000000000000000000000000000000000000000074000000000000000000000000000000000000000000000000000000000000007e0000000000000000000000000000000000000000000000000000000000000088000000000000000000000000000000000000000000000000000000000000009200000000000000000000000000000000000000000000000000000000000000940000000000000000000000000000000000000000000000000000000000000001c000000000000000000000000000000000000000000000000000000000000001c9495f1a3a39e3be442478fa036ed40997320099929e18ca042683d0ab84c9db826711436d5d42e6cf83b72b94af57a798fdb2312a68aedc19bc5204237795fc79495f1a3a39e3be442478fa036ed40997320099929e18ca042683d0ab84c9db826711436d5d42e6cf83b72b94af57a798fdb2312a68aedc19bc5204237795fc72d2193f337a4e446c14caa5c90e7b5849203acd0000000000000000000000000000000000000000000000000000000000000000000000000000000000000006423b872dd000000000000000000000000000000000000000000000000000000000000000000000000000000000000000091d7600d8aa386001b3328988a2d8f295de128b30000000000000000000000000000000000000000000000000000000000001af900000000000000000000000000000000000000000000000000000000000000000000000000000000000000000000000000000000000000000000006423b872dd000000000000000000000000119ee30e0478cc0fcc7c739ae0fb73645ecc513a00000000000000000000000000000000000000000000000000000000000000000000000000000000000000000000000000000000000000000000000000001af900000000000000000000000000000000000000000000000000000000000000000000000000000000000000000000000000000000000000000000006400000000ffffffffffffffffffffffffffffffffffffffffffffffffffffffffffffffff00000000000000000000000000000000000000000000000000000000000000000000000000000000000000000000000000000000000000000000000000000000000000000000000000000000000000000000000000000000000000000000000000000000000000000000000000000000000000000000000000000064000000000000000000000000000000000000000000000000000000000000000000000000ffffffffffffffffffffffffffffffffffffffffffffffffffffffffffffffff00000000000000000000000000000000000000000000000000000000000000000000000000000000000000000000000000000000000000000000000000000000000000000000000000000000000000000000000000000000000000000000000000000000000000000000000000000000000000000000000000000000",
            "debugEnable": true,
            "errorInfo": "",
            "eventCount": 3,
            "feeRecipient": "0x829bd824b016326a401d083b33d092293333a830",
            "formatValue": "0.25",
            "gasLimit": 351702,
            "gasPrice": "70.382804393",
            "gasUsed": 255999,
            "intTxnCount": 10,
            "internalRevert": false,
            "internalRevertMessage": "",
            "isContractCreation": false,
            "isFlashloan": false,
            "maxFee": "110.381495557",
            "nonce": 163,
            "overwritedBlockNumber": -1,
            "priorityFee": "1.5",
            "receiver": "0x7be8076f4ea4a4ad08075c2508e481d6c946d12b",
            "revertMessage": "",
            "sender": "0x91d7600d8aa386001b3328988a2d8f295de128b3",
            "simulationEnable": true,
            "sourceTxnHash": "0xdcd1c2193f62d57f5fe8fb0f6c9d7edb9db8b921e2adcbcfc59fed83915a1fb7",
            "status": true,
            "timestamp": "2021-08-30T18:15:39Z",
            "transactionFee": "0.018017927541803607",
            "txnHash": "0xdcd1c2193f62d57f5fe8fb0f6c9d7edb9db8b921e2adcbcfc59fed83915a1fb7",
            "txnIndex": 148,
            "type": 2,
            "value": "250000000000000000"
        },
        "fund_flow": [
            {
                "amount": "0.25",
                "from": "0x91d7600d8aa386001b3328988a2d8f295de128b3",
                "id": 1,
                "isERC1155": false,
                "isERC721": false,
                "isReverted": false,
                "order": 1,
                "to": "0x7be8076f4ea4a4ad08075c2508e481d6c946d12b",
                "token": "0xeeeeeeeeeeeeeeeeeeeeeeeeeeeeeeeeeeeeeeee"
            },
            {
                "amount": "0.025",
                "from": "0x7be8076f4ea4a4ad08075c2508e481d6c946d12b",
                "id": 2,
                "isERC1155": false,
                "isERC721": false,
                "isReverted": false,
                "order": 2,
                "to": "0x5b3256965e7c3cf26e11fcaf296dfc8807c01073",
                "token": "0xeeeeeeeeeeeeeeeeeeeeeeeeeeeeeeeeeeeeeeee"
            },
            {
                "amount": "0.225",
                "from": "0x7be8076f4ea4a4ad08075c2508e481d6c946d12b",
                "id": 3,
                "isERC1155": false,
                "isERC721": false,
                "isReverted": false,
                "order": 3,
                "to": "0x119ee30e0478cc0fcc7c739ae0fb73645ecc513a",
                "token": "0xeeeeeeeeeeeeeeeeeeeeeeeeeeeeeeeeeeeeeeee"
            },
            {
                "amount": "1",
                "from": "0x119ee30e0478cc0fcc7c739ae0fb73645ecc513a",
                "id": 4,
                "isERC1155": false,
                "isERC721": true,
                "isReverted": false,
                "order": 4,
                "to": "0x91d7600d8aa386001b3328988a2d8f295de128b3",
                "token": "0x6fc355d4e0ee44b292e50878f49798ff755a5bbc",
                "tokenID": "6905"
            }
        ],
        "token_infos": [
            {
                "address": "0xc02aaa39b223fe8d0a0e5c4f27ead9083c756cc2",
                "decimals": 18
            },
            {
                "address": "0xeeeeeeeeeeeeeeeeeeeeeeeeeeeeeeeeeeeeeeee",
                "decimals": 18
            }
        ]
    },
    "address_label": {
        "labels": [
            {
                "address": "0x6fc355d4e0ee44b292e50878f49798ff755a5bbc",
                "label": "DeadHeads: DEAD Token"
            },
            {
                "address": "0x0ad5664ba55f1fa08b916f55f1b9cb392861b8c4",
                "label": "OwnableDelegateProxy"
            },
            {
                "address": "0x0000000000000000000000000000000000000001",
                "label": "Precompiled"
            },
            {
                "address": "0xeeeeeeeeeeeeeeeeeeeeeeeeeeeeeeeeeeeeeeee",
                "label": "Ether"
            },
            {
                "address": "0xa5409ec958c83c3f309868babaca7c86dcb077c1",
                "label": "OpenSea: Registry"
            },
            {
                "address": "0x5b3256965e7c3cf26e11fcaf296dfc8807c01073",
                "label": "OpenSea: Wallet"
            },
            {
                "address": "0x7be8076f4ea4a4ad08075c2508e481d6c946d12b",
                "label": "OpenSea: Wyvern Exchange v1"
            },
            {
                "address": "0xf9e266af4bca5890e2781812cc6a6e89495a79f2",
                "label": "AuthenticatedProxy"
            },
            {
                "address": "0x0000000000000000000000000000000000000000",
                "label": "Null Address"
            },
            {
                "address": "0x0000000000000000000000000000000000000002",
                "label": "Precompiled"
            },
            {
                "address": "0x0000000000000000000000000000000000000003",
                "label": "Precompiled"
            },
            {
                "address": "0x0000000000000000000000000000000000000004",
                "label": "Precompiled"
            }
        ]
    },
    "trace": {
        "accountLabels": null,
        "dataMap": {
            "-1": {
                "invocation": {
                    "address": "0x91d7600d8aa386001b3328988a2d8f295de128b3",
                    "callData": "",
                    "decodedMethod": null,
                    "errorInfo": "",
                    "fromAddress": "",
                    "gasUsed": 0,
                    "id": -1,
                    "methodDecoded": false,
                    "operation": "",
                    "output": "",
                    "revert": false,
                    "revertMessage": "",
                    "selector": "",
                    "status": false,
                    "value": ""
                },
                "nodeType": 0
            },
            "0": {
                "invocation": {
                    "address": "0x7be8076f4ea4a4ad08075c2508e481d6c946d12b",
                    "callData": "0x0000000000000000000000007be8076f4ea4a4ad08075c2508e481d6c946d12b00000000000000000000000091d7600d8aa386001b3328988a2d8f295de128b3000000000000000000000000119ee30e0478cc0fcc7c739ae0fb73645ecc513a00000000000000000000000000000000000000000000000000000000000000000000000000000000000000006fc355d4e0ee44b292e50878f49798ff755a5bbc000000000000000000000000000000000000000000000000000000000000000000000000000000000000000000000000000000000000000000000000000000000000000000000000000000007be8076f4ea4a4ad08075c2508e481d6c946d12b000000000000000000000000119ee30e0478cc0fcc7c739ae0fb73645ecc513a00000000000000000000000000000000000000000000000000000000000000000000000000000000000000005b3256965e7c3cf26e11fcaf296dfc8807c010730000000000000000000000006fc355d4e0ee44b292e50878f49798ff755a5bbc0000000000000000000000000000000000000000000000000000000000000000000000000000000000000000000000000000000000000000000000000000000000000000000000000000000000000000000000000000000000000000000003e800000000000000000000000000000000000000000000000000000000000000000000000000000000000000000000000000000000000000000000000000000000000000000000000000000000000000000000000000000000000000000000000000000000000000000000000000000000000000000000000003782dace9d90000000000000000000000000000000000000000000000000000000000000000000000000000000000000000000000000000000000000000000000000000612d1fde0000000000000000000000000000000000000000000000000000000000000000c75fc0dfca70874f555348043998c974c857153d930969a5d0e5ec7ebd7b847600000000000000000000000000000000000000000000000000000000000003e800000000000000000000000000000000000000000000000000000000000000000000000000000000000000000000000000000000000000000000000000000000000000000000000000000000000000000000000000000000000000000000000000000000000000000000000000000000000000000000000003782dace9d90000000000000000000000000000000000000000000000000000000000000000000000000000000000000000000000000000000000000000000000000000612d13bd000000000000000000000000000000000000000000000000000000000000000037ed7bde79daf87f5283561b1c940870917787bd53c147096b33223a22500a0d0000000000000000000000000000000000000000000000000000000000000001000000000000000000000000000000000000000000000000000000000000000000000000000000000000000000000000000000000000000000000000000000000000000000000000000000000000000000000000000000000000000000000000000000000000000000000000000000000000000000000000000000000000000100000000000000000000000000000000000000000000000000000000000000010000000000000000000000000000000000000000000000000000000000000000000000000000000000000000000000000000000000000000000000000000000000000000000000000000000000000000000000000000000000000000000006a0000000000000000000000000000000000000000000000000000000000000074000000000000000000000000000000000000000000000000000000000000007e0000000000000000000000000000000000000000000000000000000000000088000000000000000000000000000000000000000000000000000000000000009200000000000000000000000000000000000000000000000000000000000000940000000000000000000000000000000000000000000000000000000000000001c000000000000000000000000000000000000000000000000000000000000001c9495f1a3a39e3be442478fa036ed40997320099929e18ca042683d0ab84c9db826711436d5d42e6cf83b72b94af57a798fdb2312a68aedc19bc5204237795fc79495f1a3a39e3be442478fa036ed40997320099929e18ca042683d0ab84c9db826711436d5d42e6cf83b72b94af57a798fdb2312a68aedc19bc5204237795fc72d2193f337a4e446c14caa5c90e7b5849203acd0000000000000000000000000000000000000000000000000000000000000000000000000000000000000006423b872dd000000000000000000000000000000000000000000000000000000000000000000000000000000000000000091d7600d8aa386001b3328988a2d8f295de128b30000000000000000000000000000000000000000000000000000000000001af900000000000000000000000000000000000000000000000000000000000000000000000000000000000000000000000000000000000000000000006423b872dd000000000000000000000000119ee30e0478cc0fcc7c739ae0fb73645ecc513a00000000000000000000000000000000000000000000000000000000000000000000000000000000000000000000000000000000000000000000000000001af900000000000000000000000000000000000000000000000000000000000000000000000000000000000000000000000000000000000000000000006400000000ffffffffffffffffffffffffffffffffffffffffffffffffffffffffffffffff00000000000000000000000000000000000000000000000000000000000000000000000000000000000000000000000000000000000000000000000000000000000000000000000000000000000000000000000000000000000000000000000000000000000000000000000000000000000000000000000000000064000000000000000000000000000000000000000000000000000000000000000000000000ffffffffffffffffffffffffffffffffffffffffffffffffffffffffffffffff00000000000000000000000000000000000000000000000000000000000000000000000000000000000000000000000000000000000000000000000000000000000000000000000000000000000000000000000000000000000000000000000000000000000000000000000000000000000000000000000000000000",
                    "decodedMethod": {
                        "callParams": [
                            {
                                "name": "addrs",
                                "type": "address[14]",
                                "value": [
                                    "0x7be8076f4ea4a4ad08075c2508e481d6c946d12b",
                                    "0x91d7600d8aa386001b3328988a2d8f295de128b3",
                                    "0x119ee30e0478cc0fcc7c739ae0fb73645ecc513a",
                                    "0x0000000000000000000000000000000000000000",
                                    "0x6fc355d4e0ee44b292e50878f49798ff755a5bbc",
                                    "0x0000000000000000000000000000000000000000",
                                    "0x0000000000000000000000000000000000000000",
                                    "0x7be8076f4ea4a4ad08075c2508e481d6c946d12b",
                                    "0x119ee30e0478cc0fcc7c739ae0fb73645ecc513a",
                                    "0x0000000000000000000000000000000000000000",
                                    "0x5b3256965e7c3cf26e11fcaf296dfc8807c01073",
                                    "0x6fc355d4e0ee44b292e50878f49798ff755a5bbc",
                                    "0x0000000000000000000000000000000000000000",
                                    "0x0000000000000000000000000000000000000000"
                                ]
                            },
                            {
                                "name": "uints",
                                "type": "uint256[18]",
                                "value": [
                                    "1,000",
                                    "0",
                                    "0",
                                    "0",
                                    "250,000,000,000,000,000",
                                    "0",
                                    "1,630,347,230",
                                    "0",
                                    "90,179,438,507,910,022,839,714,511,066,451,355,175,568,271,078,845,172,198,669,262,092,032,664,110,198",
                                    "1,000",
                                    "0",
                                    "0",
                                    "0",
                                    "250,000,000,000,000,000",
                                    "0",
                                    "1,630,344,125",
                                    "0",
                                    "25,296,804,339,173,810,403,551,494,825,527,722,686,871,110,767,926,442,718,803,034,810,077,582,199,309"
                                ]
                            },
                            {
                                "name": "feeMethodsSidesKindsHowToCalls",
                                "type": "uint8[8]",
                                "value": [
                                    "1",
                                    "0",
                                    "0",
                                    "0",
                                    "1",
                                    "1",
                                    "0",
                                    "0"
                                ]
                            },
                            {
                                "name": "calldataBuy",
                                "type": "bytes",
                                "value": "0x23b872dd000000000000000000000000000000000000000000000000000000000000000000000000000000000000000091d7600d8aa386001b3328988a2d8f295de128b30000000000000000000000000000000000000000000000000000000000001af9"
                            },
                            {
                                "name": "calldataSell",
                                "type": "bytes",
                                "value": "0x23b872dd000000000000000000000000119ee30e0478cc0fcc7c739ae0fb73645ecc513a00000000000000000000000000000000000000000000000000000000000000000000000000000000000000000000000000000000000000000000000000001af9"
                            },
                            {
                                "name": "replacementPatternBuy",
                                "type": "bytes",
                                "value": "0x00000000ffffffffffffffffffffffffffffffffffffffffffffffffffffffffffffffff00000000000000000000000000000000000000000000000000000000000000000000000000000000000000000000000000000000000000000000000000000000"
                            },
                            {
                                "name": "replacementPatternSell",
                                "type": "bytes",
                                "value": "0x000000000000000000000000000000000000000000000000000000000000000000000000ffffffffffffffffffffffffffffffffffffffffffffffffffffffffffffffff0000000000000000000000000000000000000000000000000000000000000000"
                            },
                            {
                                "name": "staticExtradataBuy",
                                "type": "bytes",
                                "value": "0x"
                            },
                            {
                                "name": "staticExtradataSell",
                                "type": "bytes",
                                "value": "0x"
                            },
                            {
                                "name": "vs",
                                "type": "uint8[2]",
                                "value": [
                                    "28",
                                    "28"
                                ]
                            },
                            {
                                "name": "rssMetadata",
                                "type": "bytes32[5]",
                                "value": [
                                    "0x9495f1a3a39e3be442478fa036ed40997320099929e18ca042683d0ab84c9db8",
                                    "0x26711436d5d42e6cf83b72b94af57a798fdb2312a68aedc19bc5204237795fc7",
                                    "0x9495f1a3a39e3be442478fa036ed40997320099929e18ca042683d0ab84c9db8",
                                    "0x26711436d5d42e6cf83b72b94af57a798fdb2312a68aedc19bc5204237795fc7",
                                    "0x2d2193f337a4e446c14caa5c90e7b5849203acd0000000000000000000000000"
                                ]
                            }
                        ],
                        "constructorArguments": "",
                        "name": "atomicMatch_",
                        "returnParams": [],
                        "signature": "atomicMatch_(address[14],uint256[18],uint8[8],bytes,bytes,bytes,bytes,bytes,bytes,uint8[2],bytes32[5])"
                    },
                    "errorInfo": "",
                    "fromAddress": "0x91d7600d8aa386001b3328988a2d8f295de128b3",
                    "gasUsed": 255999,
                    "id": 0,
                    "methodDecoded": true,
                    "operation": "CALL",
                    "output": "",
                    "revert": false,
                    "revertMessage": "",
                    "selector": "0xab834bab",
                    "status": true,
                    "value": "0.25"
                },
                "nodeType": 0
            },
            "1": {
                "invocation": {
                    "address": "0x0000000000000000000000000000000000000001",
                    "callData": "0x4e0634db8b99536ebdf9a7cf37b7ce04b2f67281c089953a0ea0eefe000000000000000000000000000000000000000000000000000000000000001c9495f1a3a39e3be442478fa036ed40997320099929e18ca042683d0ab84c9db826711436d5d42e6cf83b72b94af57a798fdb2312a68aedc19bc5204237795fc7",
                    "decodedMethod": {
                        "callParams": [
                            {
                                "name": "hash",
                                "type": "bytes32",
                                "value": "0x0e3db4c14e0634db8b99536ebdf9a7cf37b7ce04b2f67281c089953a0ea0eefe"
                            },
                            {
                                "name": "v",
                                "type": "uint256",
                                "value": "28"
                            },
                            {
                                "name": "r",
                                "type": "bytes32",
                                "value": "0x9495f1a3a39e3be442478fa036ed40997320099929e18ca042683d0ab84c9db8"
                            },
                            {
                                "name": "s",
                                "type": "bytes32",
                                "value": "0x26711436d5d42e6cf83b72b94af57a798fdb2312a68aedc19bc5204237795fc7"
                            }
                        ],
                        "constructorArguments": "",
                        "name": "ecrecover",
                        "returnParams": [
                            {
                                "name": "",
                                "type": "address",
                                "value": "0x119ee30e0478cc0fcc7c739ae0fb73645ecc513a"
                            }
                        ],
                        "signature": "ecrecover(bytes32,uint256,bytes32,bytes32)"
                    },
                    "errorInfo": "",
                    "fromAddress": "0x7be8076f4ea4a4ad08075c2508e481d6c946d12b",
                    "gasUsed": 3000,
                    "id": 1,
                    "methodDecoded": true,
                    "operation": "CALL",
                    "output": "0x000000000000000000000000119ee30e0478cc0fcc7c739ae0fb73645ecc513a",
                    "revert": false,
                    "revertMessage": "",
                    "selector": "0x0e3db4c1",
                    "status": true,
                    "value": "0"
                },
                "nodeType": 0
            },
            "10": {
                "invocation": {
                    "address": "0x6fc355d4e0ee44b292e50878f49798ff755a5bbc",
                    "callData": "0x000000000000000000000000119ee30e0478cc0fcc7c739ae0fb73645ecc513a00000000000000000000000091d7600d8aa386001b3328988a2d8f295de128b30000000000000000000000000000000000000000000000000000000000001af900000000000000000000000000000000000000000000000000000000",
                    "decodedMethod": {
                        "callParams": [
                            {
                                "name": "from",
                                "type": "address",
                                "value": "0x119ee30e0478cc0fcc7c739ae0fb73645ecc513a"
                            },
                            {
                                "name": "to",
                                "type": "address",
                                "value": "0x91d7600d8aa386001b3328988a2d8f295de128b3"
                            },
                            {
                                "decimalAvailable": true,
                                "name": "tokenId",
                                "type": "uint256",
                                "value": "6,905"
                            }
                        ],
                        "constructorArguments": "",
                        "name": "transferFrom",
                        "returnParams": [],
                        "signature": "transferFrom(address,address,uint256)"
                    },
                    "errorInfo": "",
                    "fromAddress": "0x0ad5664ba55f1fa08b916f55f1b9cb392861b8c4",
                    "gasUsed": 115488,
                    "id": 10,
                    "methodDecoded": true,
                    "operation": "CALL",
                    "output": "",
                    "revert": false,
                    "revertMessage": "",
                    "selector": "0x23b872dd",
                    "status": true,
                    "value": "0"
                },
                "nodeType": 0
            },
            "11": {
                "event": {
                    "contract": "0x6fc355d4e0ee44b292e50878f49798ff755a5bbc",
                    "decodedLog": {
                        "name": "Approval",
                        "params": [
                            {
                                "name": "owner",
                                "type": "address",
                                "value": "0x119ee30e0478cc0fcc7c739ae0fb73645ecc513a"
                            },
                            {
                                "name": "approved",
                                "type": "address",
                                "value": "0x0000000000000000000000000000000000000000"
                            },
                            {
                                "decimalAvailable": true,
                                "name": "tokenId",
                                "type": "uint256",
                                "value": "6,905"
                            }
                        ],
                        "signature": "Approval(address,address,uint256)"
                    },
                    "id": 11,
                    "logData": "0x",
                    "logDecoded": true,
                    "operation": "EVENT",
                    "revert": false,
                    "status": true,
                    "topics": [
                        "0x8c5be1e5ebec7d5bd14f71427d1e84f3dd0314c0f7b2291e5b200ac8c7c3b925",
                        "0x000000000000000000000000119ee30e0478cc0fcc7c739ae0fb73645ecc513a",
                        "0x0000000000000000000000000000000000000000000000000000000000000000",
                        "0x0000000000000000000000000000000000000000000000000000000000001af9"
                    ]
                },
                "nodeType": 1
            },
            "12": {
                "event": {
                    "contract": "0x6fc355d4e0ee44b292e50878f49798ff755a5bbc",
                    "decodedLog": {
                        "name": "Transfer",
                        "params": [
                            {
                                "name": "from",
                                "type": "address",
                                "value": "0x119ee30e0478cc0fcc7c739ae0fb73645ecc513a"
                            },
                            {
                                "name": "to",
                                "type": "address",
                                "value": "0x91d7600d8aa386001b3328988a2d8f295de128b3"
                            },
                            {
                                "decimalAvailable": true,
                                "name": "tokenId",
                                "type": "uint256",
                                "value": "6,905"
                            }
                        ],
                        "signature": "Transfer(address,address,uint256)"
                    },
                    "id": 12,
                    "logData": "0x",
                    "logDecoded": true,
                    "operation": "EVENT",
                    "revert": false,
                    "status": true,
                    "topics": [
                        "0xddf252ad1be2c89b69c2b068fc378daa952ba7f163c4a11628f55a4df523b3ef",
                        "0x000000000000000000000000119ee30e0478cc0fcc7c739ae0fb73645ecc513a",
                        "0x00000000000000000000000091d7600d8aa386001b3328988a2d8f295de128b3",
                        "0x0000000000000000000000000000000000000000000000000000000000001af9"
                    ]
                },
                "nodeType": 1
            },
            "13": {
                "event": {
                    "contract": "0x7be8076f4ea4a4ad08075c2508e481d6c946d12b",
                    "decodedLog": {
                        "name": "OrdersMatched",
                        "params": [
                            {
                                "name": "maker",
                                "type": "address",
                                "value": "0x119ee30e0478cc0fcc7c739ae0fb73645ecc513a"
                            },
                            {
                                "name": "taker",
                                "type": "address",
                                "value": "0x91d7600d8aa386001b3328988a2d8f295de128b3"
                            },
                            {
                                "name": "metadata",
                                "type": "bytes32",
                                "value": "0x2d2193f337a4e446c14caa5c90e7b5849203acd0000000000000000000000000"
                            },
                            {
                                "name": "buyHash",
                                "type": "bytes32",
                                "value": "0x0000000000000000000000000000000000000000000000000000000000000000"
                            },
                            {
                                "name": "sellHash",
                                "type": "bytes32",
                                "value": "0x0e3db4c14e0634db8b99536ebdf9a7cf37b7ce04b2f67281c089953a0ea0eefe"
                            },
                            {
                                "name": "price",
                                "type": "uint256",
                                "value": "250,000,000,000,000,000"
                            }
                        ],
                        "signature": "OrdersMatched(bytes32,bytes32,address,address,uint256,bytes32)"
                    },
                    "id": 13,
                    "logData": "0x00000000000000000000000000000000000000000000000000000000000000000e3db4c14e0634db8b99536ebdf9a7cf37b7ce04b2f67281c089953a0ea0eefe00000000000000000000000000000000000000000000000003782dace9d90000",
                    "logDecoded": true,
                    "operation": "EVENT",
                    "revert": false,
                    "status": true,
                    "topics": [
                        "0xc4109843e0b7d514e4c093114b863f8e7d8d9a458c372cd51bfe526b588006c9",
                        "0x000000000000000000000000119ee30e0478cc0fcc7c739ae0fb73645ecc513a",
                        "0x00000000000000000000000091d7600d8aa386001b3328988a2d8f295de128b3",
                        "0x2d2193f337a4e446c14caa5c90e7b5849203acd0000000000000000000000000"
                    ]
                },
                "nodeType": 1
            },
            "2": {
                "invocation": {
                    "address": "0xa5409ec958c83c3f309868babaca7c86dcb077c1",
                    "callData": "0x000000000000000000000000119ee30e0478cc0fcc7c739ae0fb73645ecc513a",
                    "decodedMethod": {
                        "callParams": [
                            {
                                "name": "",
                                "type": "address",
                                "value": "0x119ee30e0478cc0fcc7c739ae0fb73645ecc513a"
                            }
                        ],
                        "constructorArguments": "",
                        "name": "proxies",
                        "returnParams": [
                            {
                                "name": "",
                                "type": "address",
                                "value": "0x0ad5664ba55f1fa08b916f55f1b9cb392861b8c4"
                            }
                        ],
                        "signature": "proxies(address)"
                    },
                    "errorInfo": "",
                    "fromAddress": "0x7be8076f4ea4a4ad08075c2508e481d6c946d12b",
                    "gasUsed": 2782,
                    "id": 2,
                    "methodDecoded": true,
                    "operation": "CALL",
                    "output": "0x0000000000000000000000000ad5664ba55f1fa08b916f55f1b9cb392861b8c4",
                    "revert": false,
                    "revertMessage": "",
                    "selector": "0xc4552791",
                    "status": true,
                    "value": "0"
                },
                "nodeType": 0
            },
            "3": {
                "invocation": {
                    "address": "0xa5409ec958c83c3f309868babaca7c86dcb077c1",
                    "callData": "0x",
                    "decodedMethod": {
                        "callParams": [],
                        "constructorArguments": "",
                        "name": "delegateProxyImplementation",
                        "returnParams": [
                            {
                                "name": "",
                                "type": "address",
                                "value": "0xf9e266af4bca5890e2781812cc6a6e89495a79f2"
                            }
                        ],
                        "signature": "delegateProxyImplementation()"
                    },
                    "errorInfo": "",
                    "fromAddress": "0x7be8076f4ea4a4ad08075c2508e481d6c946d12b",
                    "gasUsed": 2613,
                    "id": 3,
                    "methodDecoded": true,
                    "operation": "CALL",
                    "output": "0x000000000000000000000000f9e266af4bca5890e2781812cc6a6e89495a79f2",
                    "revert": false,
                    "revertMessage": "",
                    "selector": "0x97204d8e",
                    "status": true,
                    "value": "0"
                },
                "nodeType": 0
            },
            "4": {
                "invocation": {
                    "address": "0x0ad5664ba55f1fa08b916f55f1b9cb392861b8c4",
                    "callData": "0x",
                    "decodedMethod": {
                        "callParams": [],
                        "constructorArguments": "",
                        "name": "implementation",
                        "returnParams": [
                            {
                                "name": "",
                                "type": "address",
                                "value": "0xf9e266af4bca5890e2781812cc6a6e89495a79f2"
                            }
                        ],
                        "signature": "implementation()"
                    },
                    "errorInfo": "",
                    "fromAddress": "0x7be8076f4ea4a4ad08075c2508e481d6c946d12b",
                    "gasUsed": 2525,
                    "id": 4,
                    "methodDecoded": true,
                    "operation": "CALL",
                    "output": "0x000000000000000000000000f9e266af4bca5890e2781812cc6a6e89495a79f2",
                    "revert": false,
                    "revertMessage": "",
                    "selector": "0x5c60da1b",
                    "status": true,
                    "value": "0"
                },
                "nodeType": 0
            },
            "5": {
                "invocation": {
                    "address": "0x5b3256965e7c3cf26e11fcaf296dfc8807c01073",
                    "callData": "0x",
                    "decodedMethod": null,
                    "errorInfo": "",
                    "fromAddress": "0x7be8076f4ea4a4ad08075c2508e481d6c946d12b",
                    "gasUsed": 0,
                    "id": 5,
                    "methodDecoded": false,
                    "operation": "CALL",
                    "output": "",
                    "revert": false,
                    "revertMessage": "",
                    "selector": "fallback",
                    "status": true,
                    "value": "0.025"
                },
                "nodeType": 0
            },
            "6": {
                "invocation": {
                    "address": "0x119ee30e0478cc0fcc7c739ae0fb73645ecc513a",
                    "callData": "0x",
                    "decodedMethod": null,
                    "errorInfo": "",
                    "fromAddress": "0x7be8076f4ea4a4ad08075c2508e481d6c946d12b",
                    "gasUsed": 0,
                    "id": 6,
                    "methodDecoded": false,
                    "operation": "CALL",
                    "output": "",
                    "revert": false,
                    "revertMessage": "",
                    "selector": "fallback",
                    "status": true,
                    "value": "0.225"
                },
                "nodeType": 0
            },
            "7": {
                "invocation": {
                    "address": "0x0ad5664ba55f1fa08b916f55f1b9cb392861b8c4",
                    "callData": "0x0000000000000000000000006fc355d4e0ee44b292e50878f49798ff755a5bbc00000000000000000000000000000000000000000000000000000000000000000000000000000000000000000000000000000000000000000000000000000060000000000000000000000000000000000000000000000000000000000000006423b872dd000000000000000000000000119ee30e0478cc0fcc7c739ae0fb73645ecc513a00000000000000000000000091d7600d8aa386001b3328988a2d8f295de128b30000000000000000000000000000000000000000000000000000000000001af900000000000000000000000000000000000000000000000000000000",
                    "decodedMethod": {
                        "callParams": [
                            {
                                "name": "dest",
                                "type": "address",
                                "value": "0x6fc355d4e0ee44b292e50878f49798ff755a5bbc"
                            },
                            {
                                "name": "howToCall",
                                "type": "uint8",
                                "value": "0"
                            },
                            {
                                "name": "calldata",
                                "type": "bytes",
                                "value": "0x23b872dd000000000000000000000000119ee30e0478cc0fcc7c739ae0fb73645ecc513a00000000000000000000000091d7600d8aa386001b3328988a2d8f295de128b30000000000000000000000000000000000000000000000000000000000001af9"
                            }
                        ],
                        "constructorArguments": "",
                        "name": "proxy",
                        "returnParams": [
                            {
                                "name": "result",
                                "type": "bool",
                                "value": true
                            }
                        ],
                        "signature": "proxy(address,uint8,bytes)"
                    },
                    "errorInfo": "",
                    "fromAddress": "0x7be8076f4ea4a4ad08075c2508e481d6c946d12b",
                    "gasUsed": 127645,
                    "id": 7,
                    "methodDecoded": true,
                    "operation": "CALL",
                    "output": "0x0000000000000000000000000000000000000000000000000000000000000001",
                    "revert": false,
                    "revertMessage": "",
                    "selector": "0x1b0f7ba9",
                    "status": true,
                    "value": "0"
                },
                "nodeType": 0
            },
            "8": {
                "invocation": {
                    "address": "0xf9e266af4bca5890e2781812cc6a6e89495a79f2",
                    "callData": "0x0000000000000000000000006fc355d4e0ee44b292e50878f49798ff755a5bbc00000000000000000000000000000000000000000000000000000000000000000000000000000000000000000000000000000000000000000000000000000060000000000000000000000000000000000000000000000000000000000000006423b872dd000000000000000000000000119ee30e0478cc0fcc7c739ae0fb73645ecc513a00000000000000000000000091d7600d8aa386001b3328988a2d8f295de128b30000000000000000000000000000000000000000000000000000000000001af900000000000000000000000000000000000000000000000000000000",
                    "decodedMethod": {
                        "callParams": [
                            {
                                "name": "dest",
                                "type": "address",
                                "value": "0x6fc355d4e0ee44b292e50878f49798ff755a5bbc"
                            },
                            {
                                "name": "howToCall",
                                "type": "uint8",
                                "value": "0"
                            },
                            {
                                "name": "calldata",
                                "type": "bytes",
                                "value": "0x23b872dd000000000000000000000000119ee30e0478cc0fcc7c739ae0fb73645ecc513a00000000000000000000000091d7600d8aa386001b3328988a2d8f295de128b30000000000000000000000000000000000000000000000000000000000001af9"
                            }
                        ],
                        "constructorArguments": "",
                        "name": "proxy",
                        "returnParams": [
                            {
                                "name": "result",
                                "type": "bool",
                                "value": true
                            }
                        ],
                        "signature": "proxy(address,uint8,bytes)"
                    },
                    "errorInfo": "",
                    "fromAddress": "0x0ad5664ba55f1fa08b916f55f1b9cb392861b8c4",
                    "gasUsed": 124385,
                    "id": 8,
                    "methodDecoded": true,
                    "operation": "DELEGATECALL",
                    "output": "0x0000000000000000000000000000000000000000000000000000000000000001",
                    "revert": false,
                    "revertMessage": "",
                    "selector": "0x1b0f7ba9",
                    "status": true,
                    "value": "0"
                },
                "nodeType": 0
            },
            "9": {
                "invocation": {
                    "address": "0xa5409ec958c83c3f309868babaca7c86dcb077c1",
                    "callData": "0x0000000000000000000000007be8076f4ea4a4ad08075c2508e481d6c946d12b",
                    "decodedMethod": {
                        "callParams": [
                            {
                                "name": "",
                                "type": "address",
                                "value": "0x7be8076f4ea4a4ad08075c2508e481d6c946d12b"
                            }
                        ],
                        "constructorArguments": "",
                        "name": "contracts",
                        "returnParams": [
                            {
                                "name": "",
                                "type": "bool",
                                "value": true
                            }
                        ],
                        "signature": "contracts(address)"
                    },
                    "errorInfo": "",
                    "fromAddress": "0x0ad5664ba55f1fa08b916f55f1b9cb392861b8c4",
                    "gasUsed": 2553,
                    "id": 9,
                    "methodDecoded": true,
                    "operation": "CALL",
                    "output": "0x0000000000000000000000000000000000000000000000000000000000000001",
                    "revert": false,
                    "revertMessage": "",
                    "selector": "0x69dc9ff3",
                    "status": true,
                    "value": "0"
                },
                "nodeType": 0
            }
        },
        "gasFlame": [
            {
                "children": [
                    {
                        "children": [
                            {
                                "children": [],
                                "depth": 0,
                                "name": "Initial Gas",
                                "value": 37036
                            },
                            {
                                "children": [
                                    {
                                        "children": [],
                                        "depth": 1,
                                        "name": "ecrecover",
                                        "value": 3000
                                    },
                                    {
                                        "children": [],
                                        "depth": 1,
                                        "name": "proxies",
                                        "value": 2782
                                    },
                                    {
                                        "children": [],
                                        "depth": 1,
                                        "name": "delegateProxyImplementation",
                                        "value": 2613
                                    },
                                    {
                                        "children": [],
                                        "depth": 1,
                                        "name": "implementation",
                                        "value": 2525
                                    },
                                    {
                                        "children": [],
                                        "depth": 1,
                                        "name": "fallback",
                                        "value": 0
                                    },
                                    {
                                        "children": [],
                                        "depth": 1,
                                        "name": "fallback",
                                        "value": 0
                                    },
                                    {
                                        "children": [
                                            {
                                                "children": [
                                                    {
                                                        "children": [],
                                                        "depth": 3,
                                                        "name": "contracts",
                                                        "value": 2553
                                                    },
                                                    {
                                                        "children": [],
                                                        "depth": 3,
                                                        "name": "transferFrom",
                                                        "value": 115488
                                                    }
                                                ],
                                                "depth": 2,
                                                "name": "proxy",
                                                "value": 124385
                                            }
                                        ],
                                        "depth": 1,
                                        "name": "proxy",
                                        "value": 127645
                                    }
                                ],
                                "depth": 0,
                                "name": "Executed Gas",
                                "value": 231363
                            }
                        ],
                        "depth": -1,
                        "name": "Actual Gas Used",
                        "value": 255999
                    },
                    {
                        "children": [],
                        "depth": -1,
                        "name": "Refunded Gas",
                        "value": 12400
                    }
                ],
                "depth": -2,
                "name": "Total Gas",
                "value": 268399
            }
        ],
        "isConfirmed": true,
        "mainTrace": [
            {
                "children": [
                    {
                        "children": [
                            {
                                "children": [],
                                "depth": 1,
                                "id": 1,
                                "order": 1
                            },
                            {
                                "children": [],
                                "depth": 1,
                                "id": 2,
                                "order": 2
                            },
                            {
                                "children": [],
                                "depth": 1,
                                "id": 3,
                                "order": 3
                            },
                            {
                                "children": [],
                                "depth": 1,
                                "id": 4,
                                "order": 4
                            },
                            {
                                "children": [],
                                "depth": 1,
                                "id": 5,
                                "order": 5
                            },
                            {
                                "children": [],
                                "depth": 1,
                                "id": 6,
                                "order": 6
                            },
                            {
                                "children": [
                                    {
                                        "children": [
                                            {
                                                "children": [],
                                                "depth": 3,
                                                "id": 9,
                                                "order": 9
                                            },
                                            {
                                                "children": [
                                                    {
                                                        "children": [],
                                                        "depth": 4,
                                                        "id": 11,
                                                        "order": 11
                                                    },
                                                    {
                                                        "children": [],
                                                        "depth": 4,
                                                        "id": 12,
                                                        "order": 12
                                                    }
                                                ],
                                                "depth": 3,
                                                "id": 10,
                                                "order": 10
                                            }
                                        ],
                                        "depth": 2,
                                        "id": 8,
                                        "order": 8
                                    }
                                ],
                                "depth": 1,
                                "id": 7,
                                "order": 7
                            },
                            {
                                "children": [],
                                "depth": 1,
                                "id": 13,
                                "order": 13
                            }
                        ],
                        "depth": 0,
                        "id": 0,
                        "order": 0
                    }
                ],
                "depth": -1,
                "id": -1,
                "order": -1
            }
        ],
        "mainTraceNodeCount": 14,
        "parentIdMap": {
            "0": -1,
            "1": 0,
            "10": 8,
            "11": 10,
            "12": 10,
            "13": 0,
            "2": 0,
            "3": 0,
            "4": 0,
            "5": 0,
            "6": 0,
            "7": 0,
            "8": 7,
            "9": 8
        },
        "tidyTrace": [
            {
                "children": [
                    {
                        "children": [
                            {
                                "children": [],
                                "depth": 1,
                                "id": 1,
                                "order": 1
                            },
                            {
                                "children": [],
                                "depth": 1,
                                "id": 2,
                                "order": 2
                            },
                            {
                                "children": [],
                                "depth": 1,
                                "id": 3,
                                "order": 3
                            },
                            {
                                "children": [],
                                "depth": 1,
                                "id": 4,
                                "order": 4
                            },
                            {
                                "children": [],
                                "depth": 1,
                                "id": 5,
                                "order": 5
                            },
                            {
                                "children": [],
                                "depth": 1,
                                "id": 6,
                                "order": 6
                            },
                            {
                                "children": [
                                    {
                                        "children": [
                                            {
                                                "children": [],
                                                "depth": 3,
                                                "id": 9,
                                                "order": 9
                                            },
                                            {
                                                "children": [
                                                    {
                                                        "children": [],
                                                        "depth": 4,
                                                        "id": 11,
                                                        "order": 11
                                                    },
                                                    {
                                                        "children": [],
                                                        "depth": 4,
                                                        "id": 12,
                                                        "order": 12
                                                    }
                                                ],
                                                "depth": 3,
                                                "id": 10,
                                                "order": 10
                                            }
                                        ],
                                        "depth": 2,
                                        "id": 8,
                                        "order": 8
                                    }
                                ],
                                "depth": 1,
                                "id": 7,
                                "order": 7
                            },
                            {
                                "children": [],
                                "depth": 1,
                                "id": 13,
                                "order": 13
                            }
                        ],
                        "depth": 0,
                        "id": 0,
                        "order": 0
                    }
                ],
                "depth": -1,
                "id": -1,
                "order": -1
            }
        ],
        "tidyTraceNodeCount": 14
    },
    "state_change": {
        "stateChanges": [
            {
                "address": "0x6fc355d4e0ee44b292e50878f49798ff755a5bbc",
                "erc": "ERC-721",
                "slots": [
                    {
                        "current": "0x0000000000000000000000000000000000000000000000000000000000001af9",
                        "key": "0x747aa7da4d953c3cd220faeb61520d1ca9de45d1c540c9a54c3e4fb771c2f19c",
                        "prev": "0x0000000000000000000000000000000000000000000000000000000000000000"
                    },
                    {
                        "current": "0x0000000000000000000000000000000000000000000000000000000000001c2c",
                        "key": "0x1b503f96ad72352ea0f21d4f064013786485eaeb5f2593cd971eba4f376db5d6",
                        "prev": "0x0000000000000000000000000000000000000000000000000000000000001af9"
                    },
                    {
                        "current": "0x0000000000000000000000000000000000000000000000000000000000000005",
                        "key": "0x3cec6dc194cccf716e5295bfb518031995ed546cba2510a05de490db13d30a21",
                        "prev": "0x0000000000000000000000000000000000000000000000000000000000000008"
                    },
                    {
                        "current": "0x0000000000000000000000000000000000000000000000000000000000000007",
                        "key": "0x41eee6ce169df4b13a5fe499acb83e9de4dd61b8ed8727f12599253a740d8fd3",
                        "prev": "0x0000000000000000000000000000000000000000000000000000000000000008"
                    },
                    {
                        "current": "0x0000000000000000000000000000000000000000000000000000000000000001",
                        "key": "0xa196a35b63a6fba074d5afbd0acf99f60ff369aa003d9dec5beb8330fdf336de",
                        "prev": "0x0000000000000000000000000000000000000000000000000000000000000000"
                    },
                    {
                        "current": "0x00000000000000000000000091d7600d8aa386001b3328988a2d8f295de128b3",
                        "key": "0x405787fa12a823e0f2b7631cc41b3ba8828b3321ca811111fa75cd3aa3bb90c1",
                        "prev": "0x000000000000000000000000119ee30e0478cc0fcc7c739ae0fb73645ecc513a"
                    },
                    {
                        "current": "0x0000000000000000000000000000000000000000000000000000000000000000",
                        "key": "0x1b503f96ad72352ea0f21d4f064013786485eaeb5f2593cd971eba4f376db5d9",
                        "prev": "0x0000000000000000000000000000000000000000000000000000000000001c2c"
                    },
                    {
                        "current": "0x0000000000000000000000000000000000000000000000000000000000000000",
                        "key": "0x9695d77bd87508a29a90b4d8a99cb57d7296d76d1d2cd65f18fa6b64b48bc8f9",
                        "prev": "0x0000000000000000000000000000000000000000000000000000000000000005"
                    },
                    {
                        "current": "0x0000000000000000000000000000000000000000000000000000000000000001",
                        "key": "0x1defc79e787e2d2efa84a724a7770771d17e0c9eb7d8bbbd31626ae34a9fc9a5",
                        "prev": "0x0000000000000000000000000000000000000000000000000000000000000000"
                    }
                ],
                "storageVariables": [
                    {
                        "name": "_holderTokens",
                        "type": "mapping(address => struct EnumerableSet.UintSet)",
                        "value": {
                            "pairs": [
                                {
                                    "key": "0x119ee30e0478cc0fcc7c739ae0fb73645ecc513a",
                                    "value": {
                                        "fields": [
                                            {
                                                "name": "_inner",
                                                "type": "struct EnumerableSet.Set",
                                                "value": {
                                                    "fields": [
                                                        {
                                                            "name": "_values",
                                                            "type": "bytes32[]",
                                                            "value": {
                                                                "elemType": "bytes32",
                                                                "elems": [
                                                                    {
                                                                        "index": 4,
                                                                        "value": {
                                                                            "current": "0x0000000000000000000000000000000000000000000000000000000000001c2c",
                                                                            "prev": "0x0000000000000000000000000000000000000000000000000000000000001af9",
                                                                            "typeTag": 1
                                                                        }
                                                                    }
                                                                ],
                                                                "typeTag": 2
                                                            }
                                                        },
                                                        {
                                                            "name": "_indexes",
                                                            "type": "mapping(bytes32 => uint256)",
                                                            "value": {
                                                                "pairs": [
                                                                    {
                                                                        "key": "0x0000000000000000000000000000000000000000000000000000000000001af9",
                                                                        "value": {
                                                                            "current": "0",
                                                                            "prev": "5",
                                                                            "typeTag": 1
                                                                        }
                                                                    },
                                                                    {
                                                                        "key": "0x0000000000000000000000000000000000000000000000000000000000001c2c",
                                                                        "value": {
                                                                            "current": "5",
                                                                            "prev": "8",
                                                                            "typeTag": 1
                                                                        }
                                                                    }
                                                                ],
                                                                "typeTag": 4
                                                            }
                                                        }
                                                    ],
                                                    "typeTag": 3
                                                }
                                            }
                                        ],
                                        "typeTag": 3
                                    }
                                },
                                {
                                    "key": "0x91d7600d8aa386001b3328988a2d8f295de128b3",
                                    "value": {
                                        "fields": [
                                            {
                                                "name": "_inner",
                                                "type": "struct EnumerableSet.Set",
                                                "value": {
                                                    "fields": [
                                                        {
                                                            "name": "_values",
                                                            "type": "bytes32[]",
                                                            "value": {
                                                                "elemType": "bytes32",
                                                                "elems": [
                                                                    {
                                                                        "index": 0,
                                                                        "value": {
                                                                            "current": "0x0000000000000000000000000000000000000000000000000000000000001af9",
                                                                            "prev": "0x0000000000000000000000000000000000000000000000000000000000000000",
                                                                            "typeTag": 1
                                                                        }
                                                                    }
                                                                ],
                                                                "typeTag": 2
                                                            }
                                                        },
                                                        {
                                                            "name": "_indexes",
                                                            "type": "mapping(bytes32 => uint256)",
                                                            "value": {
                                                                "pairs": [
                                                                    {
                                                                        "key": "0x0000000000000000000000000000000000000000000000000000000000001af9",
                                                                        "value": {
                                                                            "current": "1",
                                                                            "prev": "0",
                                                                            "typeTag": 1
                                                                        }
                                                                    }
                                                                ],
                                                                "typeTag": 4
                                                            }
                                                        }
                                                    ],
                                                    "typeTag": 3
                                                }
                                            }
                                        ],
                                        "typeTag": 3
                                    }
                                }
                            ],
                            "typeTag": 4
                        }
                    },
                    {
                        "name": "_tokenOwners",
                        "type": "struct EnumerableMap.UintToAddressMap",
                        "value": {
                            "fields": [
                                {
                                    "name": "_inner",
                                    "type": "struct EnumerableMap.Map",
                                    "value": {
                                        "fields": [
                                            {
                                                "name": "_entries",
                                                "type": "struct EnumerableMap.MapEntry[]",
                                                "value": {
                                                    "elemType": "struct EnumerableMap.MapEntry",
                                                    "elems": [
                                                        {
                                                            "index": 6905,
                                                            "value": {
                                                                "fields": [
                                                                    {
                                                                        "name": "_value",
                                                                        "type": "bytes32",
                                                                        "value": {
                                                                            "current": "0x00000000000000000000000091d7600d8aa386001b3328988a2d8f295de128b3",
                                                                            "prev": "0x000000000000000000000000119ee30e0478cc0fcc7c739ae0fb73645ecc513a",
                                                                            "typeTag": 1
                                                                        }
                                                                    }
                                                                ],
                                                                "typeTag": 3
                                                            }
                                                        }
                                                    ],
                                                    "typeTag": 2
                                                }
                                            }
                                        ],
                                        "typeTag": 3
                                    }
                                }
                            ],
                            "typeTag": 3
                        }
                    }
                ]
            },
            {
                "address": "0x7be8076f4ea4a4ad08075c2508e481d6c946d12b",
                "erc": "",
                "slots": [
                    {
                        "current": "0x0000000000000000000000000000000000000000000000000000000000000001",
                        "key": "0xaafa0997a798ca3332521be33d8b1cabfe58b64a093addf9122fd65fe6102d00",
                        "prev": "0x0000000000000000000000000000000000000000000000000000000000000000"
                    }
                ],
                "storageVariables": [
                    {
                        "name": "cancelledOrFinalized",
                        "type": "mapping(bytes32 => bool)",
                        "value": {
                            "pairs": [
                                {
                                    "key": "0x0e3db4c14e0634db8b99536ebdf9a7cf37b7ce04b2f67281c089953a0ea0eefe",
                                    "value": {
                                        "current": "true",
                                        "prev": "false",
                                        "typeTag": 1
                                    }
                                }
                            ],
                            "typeTag": 4
                        }
                    }
                ]
            }
        ]
    }
}