{
    "balance_change": {
        "balanceChanges": [
            {
                "account": "0x8f459974f44b4915941fd8b9846ea54affa652c5",
                "assets": [
                    {
                        "address": "0x8c9b261faef3b3c2e64ab5e58e04615f8c788099",
                        "amount": "1",
                        "iconUrl": "",
                        "isERC1155": false,
                        "isERC721": true,
                        "sign": true,
                        "tokenID": "13400",
                        "value": ""
                    },
                    {
                        "address": "0xeeeeeeeeeeeeeeeeeeeeeeeeeeeeeeeeeeeeeeee",
                        "amount": "0.033972916666666667",
                        "iconUrl": "https://assets.blocksec.com/image/1663669189317-3.png",
                        "isERC1155": false,
                        "isERC721": false,
                        "sign": false,
                        "value": ""
                    }
                ]
            },
            {
                "account": "0xe7232a9fd8bf427aa41918bc008d32290e22990e",
                "assets": [
                    {
                        "address": "0x8c9b261faef3b3c2e64ab5e58e04615f8c788099",
                        "amount": "1",
                        "iconUrl": "",
                        "isERC1155": false,
                        "isERC721": true,
                        "sign": false,
                        "tokenID": "13400",
                        "value": ""
                    },
                    {
                        "address": "0xeeeeeeeeeeeeeeeeeeeeeeeeeeeeeeeeeeeeeeee",
                        "amount": "0.001698645833333333",
                        "iconUrl": "https://assets.blocksec.com/image/1663669189317-3.png",
                        "isERC1155": false,
                        "isERC721": false,
                        "sign": true,
                        "value": ""
                    }
                ]
            },
            {
                "account": "0xa0b440048bfdc5a356cff4aae7fb808387e54757",
                "assets": [
                    {
                        "address": "0xeeeeeeeeeeeeeeeeeeeeeeeeeeeeeeeeeeeeeeee",
                        "amount": "0.032274270833333334",
                        "iconUrl": "https://assets.blocksec.com/image/1663669189317-3.png",
                        "isERC1155": false,
                        "isERC721": false,
                        "sign": true,
                        "value": ""
                    }
                ]
            }
        ]
    },
    "profile": {
        "basic_info": {
            "baseFee": "",
            "blockNumber": 6313768,
            "callData": "0x454a2ab30000000000000000000000000000000000000000000000000000000000003458",
            "debugEnable": true,
            "errorInfo": "",
            "eventCount": 2,
            "feeRecipient": "0xb2930b35844a230f00e51431acae96fe543a0347",
            "formatValue": "0.03410625",
            "gasLimit": 377503,
            "gasPrice": "6",
            "gasUsed": 124955,
            "intTxnCount": 3,
            "internalRevert": false,
            "internalRevertMessage": "",
            "isContractCreation": false,
            "isFlashloan": false,
            "maxFee": "",
            "nonce": 172,
            "overwritedBlockNumber": -1,
            "priorityFee": "",
            "receiver": "0xe7232a9fd8bf427aa41918bc008d32290e22990e",
            "revertMessage": "",
            "sender": "0x8f459974f44b4915941fd8b9846ea54affa652c5",
            "simulationEnable": true,
            "sourceTxnHash": "0xdddc431563e38c189fe677cf66111d9aba09297a360f8ad595d91350f4e7b1bf",
            "status": true,
            "timestamp": "2018-09-11T19:32:00Z",
            "transactionFee": "0.00074973",
            "txnHash": "0xdddc431563e38c189fe677cf66111d9aba09297a360f8ad595d91350f4e7b1bf",
            "txnIndex": 34,
            "type": 0,
            "value": "34106250000000000"
        },
        "fund_flow": [
            {
                "amount": "0.03410625",
                "from": "0x8f459974f44b4915941fd8b9846ea54affa652c5",
                "id": 1,
                "isERC1155": false,
                "isERC721": false,
                "isReverted": false,
                "order": 1,
                "to": "0xe7232a9fd8bf427aa41918bc008d32290e22990e",
                "token": "0xeeeeeeeeeeeeeeeeeeeeeeeeeeeeeeeeeeeeeeee"
            },
            {
                "amount": "0.032274270833333334",
                "from": "0xe7232a9fd8bf427aa41918bc008d32290e22990e",
                "id": 2,
                "isERC1155": false,
                "isERC721": false,
                "isReverted": false,
                "order": 2,
                "to": "0xa0b440048bfdc5a356cff4aae7fb808387e54757",
                "token": "0xeeeeeeeeeeeeeeeeeeeeeeeeeeeeeeeeeeeeeeee"
            },
            {
                "amount": "0.000133333333333333",
                "from": "0xe7232a9fd8bf427aa41918bc008d32290e22990e",
                "id": 3,
                "isERC1155": false,
                "isERC721": false,
                "isReverted": false,
                "order": 3,
                "to": "0x8f459974f44b4915941fd8b9846ea54affa652c5",
                "token": "0xeeeeeeeeeeeeeeeeeeeeeeeeeeeeeeeeeeeeeeee"
            },
            {
                "amount": "1",
                "from": "0xe7232a9fd8bf427aa41918bc008d32290e22990e",
                "id": 4,
                "isERC1155": false,
                "isERC721": true,
                "isReverted": false,
                "order": 4,
                "to": "0x8f459974f44b4915941fd8b9846ea54affa652c5",
                "token": "0x8c9b261faef3b3c2e64ab5e58e04615f8c788099",
                "tokenID": "13400"
            }
        ],
        "token_infos": [
            {
                "address": "0xc02aaa39b223fe8d0a0e5c4f27ead9083c756cc2",
                "decimals": 18
            },
            {
                "address": "0xeeeeeeeeeeeeeeeeeeeeeeeeeeeeeeeeeeeeeeee",
                "decimals": 18
            }
        ]
    },
    "address_label": {
        "labels": [
            {
                "address": "0x0000000000000000000000000000000000000003",
                "label": "Precompiled"
            },
            {
                "address": "0x0000000000000000000000000000000000000004",
                "label": "Precompiled"
            },
            {
                "address": "0xeeeeeeeeeeeeeeeeeeeeeeeeeeeeeeeeeeeeeeee",
                "label": "Ether"
            },
            {
                "address": "0x8c9b261faef3b3c2e64ab5e58e04615f8c788099",
                "label": "LucidSight-MLB-NFT (MLBCB)"
            },
            {
                "address": "0xe7232a9fd8bf427aa41918bc008d32290e22990e",
                "label": "SaleManager"
            },
            {
                "address": "0x0000000000000000000000000000000000000001",
                "label": "Precompiled"
            },
            {
                "address": "0x0000000000000000000000000000000000000002",
                "label": "Precompiled"
            }
        ]
    },
    "trace": {
        "accountLabels": null,
        "dataMap": {
            "-1": {
                "invocation": {
                    "address": "0x8f459974f44b4915941fd8b9846ea54affa652c5",
                    "callData": "",
                    "decodedMethod": null,
                    "errorInfo": "",
                    "fromAddress": "",
                    "gasUsed": 0,
                    "id": -1,
                    "methodDecoded": false,
                    "operation": "",
                    "output": "",
                    "revert": false,
                    "revertMessage": "",
                    "selector": "",
                    "status": false,
                    "value": ""
                },
                "nodeType": 0
            },
            "0": {
                "invocation": {
                    "address": "0xe7232a9fd8bf427aa41918bc008d32290e22990e",
                    "callData": "0x0000000000000000000000000000000000000000000000000000000000003458",
                    "decodedMethod": {
                        "callParams": [
                            {
                                "name": "_tokenId",
                                "type": "uint256",
                                "value": "13,400"
                            }
                        ],
                        "constructorArguments": "",
                        "name": "bid",
                        "returnParams": [],
                        "signature": "bid(uint256)"
                    },
                    "errorInfo": "",
                    "fromAddress": "0x8f459974f44b4915941fd8b9846ea54affa652c5",
                    "gasUsed": 124955,
                    "id": 0,
                    "methodDecoded": true,
                    "operation": "CALL",
                    "output": "",
                    "revert": false,
                    "revertMessage": "",
                    "selector": "0x454a2ab3",
                    "status": true,
                    "value": "0.03410625"
                },
                "nodeType": 0
            },
            "1": {
                "invocation": {
                    "address": "0xa0b440048bfdc5a356cff4aae7fb808387e54757",
                    "callData": "0x",
                    "decodedMethod": null,
                    "errorInfo": "",
                    "fromAddress": "0xe7232a9fd8bf427aa41918bc008d32290e22990e",
                    "gasUsed": 0,
                    "id": 1,
                    "methodDecoded": false,
                    "operation": "CALL",
                    "output": "",
                    "revert": false,
                    "revertMessage": "",
                    "selector": "fallback",
                    "status": true,
                    "value": "0.032274270833333334"
                },
                "nodeType": 0
            },
            "2": {
                "invocation": {
                    "address": "0x8f459974f44b4915941fd8b9846ea54affa652c5",
                    "callData": "0x",
                    "decodedMethod": null,
                    "errorInfo": "",
                    "fromAddress": "0xe7232a9fd8bf427aa41918bc008d32290e22990e",
                    "gasUsed": 0,
                    "id": 2,
                    "methodDecoded": false,
                    "operation": "CALL",
                    "output": "",
                    "revert": false,
                    "revertMessage": "",
                    "selector": "fallback",
                    "status": true,
                    "value": "0.000133333333333333"
                },
                "nodeType": 0
            },
            "3": {
                "event": {
                    "contract": "0xe7232a9fd8bf427aa41918bc008d32290e22990e",
                    "decodedLog": {
                        "name": "SaleWinner",
                        "params": [
                            {
                                "name": "tokenID",
                                "type": "uint256",
                                "value": "13,400"
                            },
                            {
                                "name": "totalPrice",
                                "type": "uint256",
                                "value": "33,972,916,666,666,667"
                            },
                            {
                                "name": "winner",
                                "type": "address",
                                "value": "0x8f459974f44b4915941fd8b9846ea54affa652c5"
                            }
                        ],
                        "signature": "SaleWinner(uint256,uint256,address)"
                    },
                    "id": 3,
                    "logData": "0x00000000000000000000000000000000000000000000000000000000000034580000000000000000000000000000000000000000000000000078b2300de68eab0000000000000000000000008f459974f44b4915941fd8b9846ea54affa652c5",
                    "logDecoded": true,
                    "operation": "EVENT",
                    "revert": false,
                    "status": true,
                    "topics": [
                        "0xe7f91fae5e362a076a229ddbcc13864728b3f5dcceefc79cf8940e64997db985"
                    ]
                },
                "nodeType": 1
            },
            "4": {
                "invocation": {
                    "address": "0x8c9b261faef3b3c2e64ab5e58e04615f8c788099",
                    "callData": "0x000000000000000000000000e7232a9fd8bf427aa41918bc008d32290e22990e0000000000000000000000008f459974f44b4915941fd8b9846ea54affa652c50000000000000000000000000000000000000000000000000000000000003458",
                    "decodedMethod": {
                        "callParams": [
                            {
                                "name": "_from",
                                "type": "address",
                                "value": "0xe7232a9fd8bf427aa41918bc008d32290e22990e"
                            },
                            {
                                "name": "_to",
                                "type": "address",
                                "value": "0x8f459974f44b4915941fd8b9846ea54affa652c5"
                            },
                            {
                                "decimalAvailable": true,
                                "name": "_tokenId",
                                "type": "uint256",
                                "value": "13,400"
                            }
                        ],
                        "constructorArguments": "",
                        "name": "transferFrom",
                        "returnParams": [],
                        "signature": "transferFrom(address,address,uint256)"
                    },
                    "errorInfo": "",
                    "fromAddress": "0xe7232a9fd8bf427aa41918bc008d32290e22990e",
                    "gasUsed": 121433,
                    "id": 4,
                    "methodDecoded": true,
                    "operation": "CALL",
                    "output": "",
                    "revert": false,
                    "revertMessage": "",
                    "selector": "0x23b872dd",
                    "status": true,
                    "value": "0"
                },
                "nodeType": 0
            },
            "5": {
                "event": {
                    "contract": "0x8c9b261faef3b3c2e64ab5e58e04615f8c788099",
                    "decodedLog": {
                        "name": "Transfer",
                        "params": [
                            {
                                "name": "_from",
                                "type": "address",
                                "value": "0xe7232a9fd8bf427aa41918bc008d32290e22990e"
                            },
                            {
                                "name": "_to",
                                "type": "address",
                                "value": "0x8f459974f44b4915941fd8b9846ea54affa652c5"
                            },
                            {
                                "decimalAvailable": true,
                                "name": "_tokenId",
                                "type": "uint256",
                                "value": "13,400"
                            }
                        ],
                        "signature": "Transfer(address,address,uint256)"
                    },
                    "id": 5,
                    "logData": "0x",
                    "logDecoded": true,
                    "operation": "EVENT",
                    "revert": false,
                    "status": true,
                    "topics": [
                        "0xddf252ad1be2c89b69c2b068fc378daa952ba7f163c4a11628f55a4df523b3ef",
                        "0x000000000000000000000000e7232a9fd8bf427aa41918bc008d32290e22990e",
                        "0x0000000000000000000000008f459974f44b4915941fd8b9846ea54affa652c5",
                        "0x0000000000000000000000000000000000000000000000000000000000003458"
                    ]
                },
                "nodeType": 1
            }
        },
        "gasFlame": [
            {
                "children": [
                    {
                        "children": [
                            {
                                "children": [],
                                "depth": 0,
                                "name": "Initial Gas",
                                "value": 21528
                            },
                            {
                                "children": [
                                    {
                                        "children": [],
                                        "depth": 1,
                                        "name": "fallback",
                                        "value": 0
                                    },
                                    {
                                        "children": [],
                                        "depth": 1,
                                        "name": "fallback",
                                        "value": 0
                                    },
                                    {
                                        "children": [],
                                        "depth": 1,
                                        "name": "transferFrom",
                                        "value": 121433
                                    }
                                ],
                                "depth": 0,
                                "name": "Executed Gas",
                                "value": 228381
                            }
                        ],
                        "depth": -1,
                        "name": "Actual Gas Used",
                        "value": 124955
                    },
                    {
                        "children": [],
                        "depth": -1,
                        "name": "Refunded Gas",
                        "value": 124954
                    }
                ],
                "depth": -2,
                "name": "Total Gas",
                "value": 249909
            }
        ],
        "isConfirmed": true,
        "mainTrace": [
            {
                "children": [
                    {
                        "children": [
                            {
                                "children": [],
                                "depth": 1,
                                "id": 1,
                                "order": 1
                            },
                            {
                                "children": [],
                                "depth": 1,
                                "id": 2,
                                "order": 2
                            },
                            {
                                "children": [],
                                "depth": 1,
                                "id": 3,
                                "order": 3
                            },
                            {
                                "children": [
                                    {
                                        "children": [],
                                        "depth": 2,
                                        "id": 5,
                                        "order": 5
                                    }
                                ],
                                "depth": 1,
                                "id": 4,
                                "order": 4
                            }
                        ],
                        "depth": 0,
                        "id": 0,
                        "order": 0
                    }
                ],
                "depth": -1,
                "id": -1,
                "order": -1
            }
        ],
        "mainTraceNodeCount": 6,
        "parentIdMap": {
            "0": -1,
            "1": 0,
            "2": 0,
            "3": 0,
            "4": 0,
            "5": 4
        },
        "tidyTrace": [
            {
                "children": [
                    {
                        "children": [
                            {
                                "children": [],
                                "depth": 1,
                                "id": 1,
                                "order": 1
                            },
                            {
                                "children": [],
                                "depth": 1,
                                "id": 2,
                                "order": 2
                            },
                            {
                                "children": [],
                                "depth": 1,
                                "id": 3,
                                "order": 3
                            },
                            {
                                "children": [
                                    {
                                        "children": [],
                                        "depth": 2,
                                        "id": 5,
                                        "order": 5
                                    }
                                ],
                                "depth": 1,
                                "id": 4,
                                "order": 4
                            }
                        ],
                        "depth": 0,
                        "id": 0,
                        "order": 0
                    }
                ],
                "depth": -1,
                "id": -1,
                "order": -1
            }
        ],
        "tidyTraceNodeCount": 6
    },
    "state_change": {
        "stateChanges": [
            {
                "address": "0x8c9b261faef3b3c2e64ab5e58e04615f8c788099",
                "erc": "ERC-721",
                "slots": [
                    {
                        "current": "0x00000000000000000000000000000000000000000000000000000000000024ef",
                        "key": "0x3eb1a49a067d1809d8f7f518127992ea741a02cf2298901ad4f002b2cd376085",
                        "prev": "0x0000000000000000000000000000000000000000000000000000000000003458"
                    },
                    {
                        "current": "0x0000000000000000000000000000000000000000000000000000000000000000",
                        "key": "0x3eb1a49a067d1809d8f7f518127992ea741a02cf2298901ad4f002b2cd37629e",
                        "prev": "0x00000000000000000000000000000000000000000000000000000000000024ef"
                    },
                    {
                        "current": "0x000000000000000000000000000000000000000000000000000000000000002f",
                        "key": "0x836e9f4640af378a019ab4a1072b52130fa5cc001f717d607140a3b352d0bf6f",
                        "prev": "0x000000000000000000000000000000000000000000000000000000000000002e"
                    },
                    {
                        "current": "0x0000000000000000000000000000000000000000000000000000000000003458",
                        "key": "0xcdc661f962a53bb18a54313be755829e8ff474c7c980854e134bbe176dc83757",
                        "prev": "0x0000000000000000000000000000000000000000000000000000000000000000"
                    },
                    {
                        "current": "0x000000000000000000000000000000000000000000000000000000000000002e",
                        "key": "0xb9a7009e3ec3de5f64fb672858c740325c36547e4c6f8dc9fa8d902b8c7f55e7",
                        "prev": "0x000000000000000000000000000000000000000000000000000000000000035b"
                    },
                    {
                        "current": "0x0000000000000000000000000000000000000000000000000000000000000574",
                        "key": "0xaf0e1d3b1d9ca4ad5688b66cf4d1b63f9b8e5614592731c5c370ca6aa0d7d579",
                        "prev": "0x0000000000000000000000000000000000000000000000000000000000000575"
                    },
                    {
                        "current": "0x000000000000000000000000000000000000000000000000000000000000002f",
                        "key": "0xc258a724e71a62f54a9f41e3a55596918a3cffd2a7b3ef471d6e4b355946dfcc",
                        "prev": "0x000000000000000000000000000000000000000000000000000000000000002e"
                    },
                    {
                        "current": "0x0000000000000000000000008f459974f44b4915941fd8b9846ea54affa652c5",
                        "key": "0xd63b88ddd769dd2b15067d22e47bb6cadc8a27f7ac1f3fcefeaf2a4c1ed3c6db",
                        "prev": "0x000000000000000000000000e7232a9fd8bf427aa41918bc008d32290e22990e"
                    },
                    {
                        "current": "0x0000000000000000000000000000000000000000000000000000000000000574",
                        "key": "0x41aa6e8a3afa7091a170ca7541adf9df780aba2047abe4f5eafcc6321301ffc4",
                        "prev": "0x0000000000000000000000000000000000000000000000000000000000000575"
                    },
                    {
                        "current": "0x000000000000000000000000000000000000000000000000000000000000035b",
                        "key": "0x20f7de135270a5b41bc5e79cc23eccee177717e93d0da7d32d54c4b9ab6560c9",
                        "prev": "0x0000000000000000000000000000000000000000000000000000000000000574"
                    }
                ],
                "storageVariables": [
                    {
                        "name": "ownedTokens",
                        "type": "mapping(address => uint256[])",
                        "value": {
                            "pairs": [
                                {
                                    "key": "0x8f459974f44b4915941fd8b9846ea54affa652c5",
                                    "value": {
                                        "elemType": "uint256",
                                        "elems": [
                                            {
                                                "index": 46,
                                                "value": {
                                                    "current": "13400",
                                                    "prev": "0",
                                                    "typeTag": 1
                                                }
                                            }
                                        ],
                                        "typeTag": 2
                                    }
                                },
                                {
                                    "key": "0xe7232a9fd8bf427aa41918bc008d32290e22990e",
                                    "value": {
                                        "elemType": "uint256",
                                        "elems": [
                                            {
                                                "index": 859,
                                                "value": {
                                                    "current": "9455",
                                                    "prev": "13400",
                                                    "typeTag": 1
                                                }
                                            }
                                        ],
                                        "typeTag": 2
                                    }
                                }
                            ],
                            "typeTag": 4
                        }
                    },
                    {
                        "name": "ownedTokensCount",
                        "type": "mapping(address => uint256)",
                        "value": {
                            "pairs": [
                                {
                                    "key": "0x8f459974f44b4915941fd8b9846ea54affa652c5",
                                    "value": {
                                        "current": "47",
                                        "prev": "46",
                                        "typeTag": 1
                                    }
                                },
                                {
                                    "key": "0xe7232a9fd8bf427aa41918bc008d32290e22990e",
                                    "value": {
                                        "current": "1396",
                                        "prev": "1397",
                                        "typeTag": 1
                                    }
                                }
                            ],
                            "typeTag": 4
                        }
                    },
                    {
                        "name": "ownedTokensIndex",
                        "type": "mapping(uint256 => uint256)",
                        "value": {
                            "pairs": [
                                {
                                    "key": "13400",
                                    "value": {
                                        "current": "46",
                                        "prev": "859",
                                        "typeTag": 1
                                    }
                                },
                                {
                                    "key": "9455",
                                    "value": {
                                        "current": "859",
                                        "prev": "1396",
                                        "typeTag": 1
                                    }
                                }
                            ],
                            "typeTag": 4
                        }
                    },
                    {
                        "name": "tokenOwner",
                        "type": "mapping(uint256 => address)",
                        "value": {
                            "pairs": [
                                {
                                    "key": "13400",
                                    "value": {
                                        "current": "0x8f459974f44b4915941fd8b9846ea54affa652c5",
                                        "prev": "0xe7232a9fd8bf427aa41918bc008d32290e22990e",
                                        "typeTag": 1
                                    }
                                }
                            ],
                            "typeTag": 4
                        }
                    }
                ]
            },
            {
                "address": "0xe7232a9fd8bf427aa41918bc008d32290e22990e",
                "erc": "",
                "slots": [
                    {
                        "current": "0x0000000000000000000000000000000000000000000000000000000000000000",
                        "key": "0x4d692c902109a216cda23d62f907982daae792d2cbbd53d43c84e9a5cf6a4781",
                        "prev": "0x000000000000000000000000000000000000000000000000000000005b96dfb7"
                    },
                    {
                        "current": "0x0000000000000000000000000000000000000000000000000000000000000000",
                        "key": "0x4d692c902109a216cda23d62f907982daae792d2cbbd53d43c84e9a5cf6a4782",
                        "prev": "0x0000000000000000000000000000000000000000000000000000000000003458"
                    },
                    {
                        "current": "0x0000000000000000000000000000000000000000000000000000000000000000",
                        "key": "0x4d692c902109a216cda23d62f907982daae792d2cbbd53d43c84e9a5cf6a477d",
                        "prev": "0x000000000000000000000000a0b440048bfdc5a356cff4aae7fb808387e54757"
                    },
                    {
                        "current": "0x0000000000000000000000000000000000000000000000000000000000000000",
                        "key": "0x4d692c902109a216cda23d62f907982daae792d2cbbd53d43c84e9a5cf6a477e",
                        "prev": "0x00000000000000000000000000000000000000000000000002c68af0bb140000"
                    },
                    {
                        "current": "0x0000000000000000000000000000000000000000000000000000000000000000",
                        "key": "0x4d692c902109a216cda23d62f907982daae792d2cbbd53d43c84e9a5cf6a477f",
                        "prev": "0x00000000000000000000000000000000000000000000000000470de4df820000"
                    },
                    {
                        "current": "0x0000000000000000000000000000000000000000000000000000000000000000",
                        "key": "0x4d692c902109a216cda23d62f907982daae792d2cbbd53d43c84e9a5cf6a4780",
                        "prev": "0x0000000000000000000000000000000000000000000000000000000000015180"
                    }
                ],
                "storageVariables": [
                    {
                        "name": "tokenIdToSale",
                        "type": "mapping(uint256 => struct SaleBase.Sale)",
                        "value": {
                            "pairs": [
                                {
                                    "key": "13400",
                                    "value": {
                                        "fields": [
                                            {
                                                "name": "seller",
                                                "type": "address",
                                                "value": {
                                                    "current": "0x0000000000000000000000000000000000000000",
                                                    "prev": "0xa0b440048bfdc5a356cff4aae7fb808387e54757",
                                                    "typeTag": 1
                                                }
                                            },
                                            {
                                                "name": "startingPrice",
                                                "type": "uint256",
                                                "value": {
                                                    "current": "0",
                                                    "prev": "200000000000000000",
                                                    "typeTag": 1
                                                }
                                            },
                                            {
                                                "name": "endingPrice",
                                                "type": "uint256",
                                                "value": {
                                                    "current": "0",
                                                    "prev": "20000000000000000",
                                                    "typeTag": 1
                                                }
                                            },
                                            {
                                                "name": "duration",
                                                "type": "uint256",
                                                "value": {
                                                    "current": "0",
                                                    "prev": "86400",
                                                    "typeTag": 1
                                                }
                                            },
                                            {
                                                "name": "startedAt",
                                                "type": "uint256",
                                                "value": {
                                                    "current": "0",
                                                    "prev": "1536614327",
                                                    "typeTag": 1
                                                }
                                            },
                                            {
                                                "name": "tokenIds",
                                                "type": "uint256[9]",
                                                "value": {
                                                    "elemType": "uint256",
                                                    "elems": [
                                                        {
                                                            "index": 0,
                                                            "value": {
                                                                "current": "0",
                                                                "prev": "13400",
                                                                "typeTag": 1
                                                            }
                                                        }
                                                    ],
                                                    "typeTag": 2
                                                }
                                            }
                                        ],
                                        "typeTag": 3
                                    }
                                }
                            ],
                            "typeTag": 4
                        }
                    }
                ]
            }
        ]
    }
}