{
    "balance_change": {
        "balanceChanges": [
            {
                "account": "0x137c2b74d930346e81197f7ebd975ee8da47cd12",
                "assets": [
                    {
                        "address": "0x26e8bcf9c18c6ae5f3cdf7331e84803aeef086eb",
                        "amount": "15.393677",
                        "iconUrl": "",
                        "isERC1155": false,
                        "isERC721": false,
                        "sign": false,
                        "value": ""
                    }
                ]
            },
            {
                "account": "0x53486205f07d74e21f1cadcd1a905206f4954a87",
                "assets": [
                    {
                        "address": "0x26e8bcf9c18c6ae5f3cdf7331e84803aeef086eb",
                        "amount": "15.393677",
                        "iconUrl": "",
                        "isERC1155": false,
                        "isERC721": false,
                        "sign": true,
                        "value": ""
                    }
                ]
            }
        ]
    },
    "profile": {
        "basic_info": {
            "baseFee": "",
            "blockNumber": 9383627,
            "callData": "0xa9059cbb00000000000000000000000053486205f07d74e21f1cadcd1a905206f4954a87000000000000000000000000000000000000000000000000d5a153ac1c19d000",
            "debugEnable": true,
            "errorInfo": "",
            "eventCount": 1,
            "feeRecipient": "0x5a0b54d5dc17e0aadc383d2db43b0a0d3e029c4c",
            "formatValue": "0",
            "gasLimit": 36211,
            "gasPrice": "3",
            "gasUsed": 21211,
            "intTxnCount": 0,
            "internalRevert": false,
            "internalRevertMessage": "",
            "isContractCreation": false,
            "isFlashloan": false,
            "maxFee": "",
            "nonce": 2,
            "overwritedBlockNumber": -1,
            "priorityFee": "",
            "receiver": "0x26e8bcf9c18c6ae5f3cdf7331e84803aeef086eb",
            "revertMessage": "",
            "sender": "0x137c2b74d930346e81197f7ebd975ee8da47cd12",
            "simulationEnable": true,
            "sourceTxnHash": "0xdd2dd131e2dc1bb7b859a8d4bae494cf45ae824428a0df52bac69fcccebe3116",
            "status": true,
            "timestamp": "2020-01-30T12:49:04Z",
            "transactionFee": "0.000063633",
            "txnHash": "0xdd2dd131e2dc1bb7b859a8d4bae494cf45ae824428a0df52bac69fcccebe3116",
            "txnIndex": 12,
            "type": 0,
            "value": "0"
        },
        "fund_flow": [
            {
                "amount": "15.393677",
                "from": "0x137c2b74d930346e81197f7ebd975ee8da47cd12",
                "id": 1,
                "isERC1155": false,
                "isERC721": false,
                "isReverted": false,
                "order": 1,
                "to": "0x53486205f07d74e21f1cadcd1a905206f4954a87",
                "token": "0x26e8bcf9c18c6ae5f3cdf7331e84803aeef086eb"
            }
        ],
        "token_infos": [
            {
                "address": "0xeeeeeeeeeeeeeeeeeeeeeeeeeeeeeeeeeeeeeeee",
                "decimals": 18
            },
            {
                "address": "0x26e8bcf9c18c6ae5f3cdf7331e84803aeef086eb",
                "decimals": 18
            },
            {
                "address": "0xc02aaa39b223fe8d0a0e5c4f27ead9083c756cc2",
                "decimals": 18
            }
        ]
    },
    "address_label": {
        "labels": [
            {
                "address": "0xeeeeeeeeeeeeeeeeeeeeeeeeeeeeeeeeeeeeeeee",
                "label": "Ether"
            },
            {
                "address": "0x26e8bcf9c18c6ae5f3cdf7331e84803aeef086eb",
                "label": "USDM (USDM)"
            },
            {
                "address": "0x0000000000000000000000000000000000000001",
                "label": "Precompiled"
            },
            {
                "address": "0x0000000000000000000000000000000000000002",
                "label": "Precompiled"
            },
            {
                "address": "0x0000000000000000000000000000000000000003",
                "label": "Precompiled"
            },
            {
                "address": "0x0000000000000000000000000000000000000004",
                "label": "Precompiled"
            }
        ]
    },
    "trace": {
        "accountLabels": null,
        "dataMap": {
            "-1": {
                "invocation": {
                    "address": "0x137c2b74d930346e81197f7ebd975ee8da47cd12",
                    "callData": "",
                    "decodedMethod": null,
                    "errorInfo": "",
                    "fromAddress": "",
                    "gasUsed": 0,
                    "id": -1,
                    "methodDecoded": false,
                    "operation": "",
                    "output": "",
                    "revert": false,
                    "revertMessage": "",
                    "selector": "",
                    "status": false,
                    "value": ""
                },
                "nodeType": 0
            },
            "0": {
                "invocation": {
                    "address": "0x26e8bcf9c18c6ae5f3cdf7331e84803aeef086eb",
                    "callData": "0x00000000000000000000000053486205f07d74e21f1cadcd1a905206f4954a87000000000000000000000000000000000000000000000000d5a153ac1c19d000",
                    "decodedMethod": {
                        "callParams": [
                            {
                                "name": "to",
                                "type": "address",
                                "value": "0x53486205f07d74e21f1cadcd1a905206f4954a87"
                            },
                            {
                                "decimalAvailable": true,
                                "name": "value",
                                "type": "uint256",
                                "value": "15,393,677,000,000,000,000"
                            }
                        ],
                        "constructorArguments": "",
                        "name": "transfer",
                        "returnParams": [
                            {
                                "name": "",
                                "type": "bool",
                                "value": true
                            }
                        ],
                        "signature": "transfer(address,uint256)"
                    },
                    "errorInfo": "",
                    "fromAddress": "0x137c2b74d930346e81197f7ebd975ee8da47cd12",
                    "gasUsed": 21211,
                    "id": 0,
                    "methodDecoded": true,
                    "operation": "CALL",
                    "output": "0x0000000000000000000000000000000000000000000000000000000000000001",
                    "revert": false,
                    "revertMessage": "",
                    "selector": "0xa9059cbb",
                    "status": true,
                    "value": "0"
                },
                "nodeType": 0
            },
            "1": {
                "event": {
                    "contract": "0x26e8bcf9c18c6ae5f3cdf7331e84803aeef086eb",
                    "decodedLog": {
                        "name": "Transfer",
                        "params": [
                            {
                                "name": "from",
                                "type": "address",
                                "value": "0x137c2b74d930346e81197f7ebd975ee8da47cd12"
                            },
                            {
                                "name": "to",
                                "type": "address",
                                "value": "0x53486205f07d74e21f1cadcd1a905206f4954a87"
                            },
                            {
                                "decimalAvailable": true,
                                "name": "value",
                                "type": "uint256",
                                "value": "15,393,677,000,000,000,000"
                            }
                        ],
                        "signature": "Transfer(address,address,uint256)"
                    },
                    "id": 1,
                    "logData": "0x000000000000000000000000000000000000000000000000d5a153ac1c19d000",
                    "logDecoded": true,
                    "operation": "EVENT",
                    "revert": false,
                    "status": true,
                    "topics": [
                        "0xddf252ad1be2c89b69c2b068fc378daa952ba7f163c4a11628f55a4df523b3ef",
                        "0x000000000000000000000000137c2b74d930346e81197f7ebd975ee8da47cd12",
                        "0x00000000000000000000000053486205f07d74e21f1cadcd1a905206f4954a87"
                    ]
                },
                "nodeType": 1
            }
        },
        "gasFlame": [
            {
                "children": [
                    {
                        "children": [
                            {
                                "children": [],
                                "depth": 0,
                                "name": "Initial Gas",
                                "value": 21644
                            },
                            {
                                "children": [],
                                "depth": 0,
                                "name": "Executed Gas",
                                "value": 14567
                            }
                        ],
                        "depth": -1,
                        "name": "Actual Gas Used",
                        "value": 21211
                    },
                    {
                        "children": [],
                        "depth": -1,
                        "name": "Refunded Gas",
                        "value": 15000
                    }
                ],
                "depth": -2,
                "name": "Total Gas",
                "value": 36211
            }
        ],
        "isConfirmed": true,
        "mainTrace": [
            {
                "children": [
                    {
                        "children": [
                            {
                                "children": [],
                                "depth": 1,
                                "id": 1,
                                "order": 1
                            }
                        ],
                        "depth": 0,
                        "id": 0,
                        "order": 0
                    }
                ],
                "depth": -1,
                "id": -1,
                "order": -1
            }
        ],
        "mainTraceNodeCount": 2,
        "parentIdMap": {
            "0": -1,
            "1": 0
        },
        "tidyTrace": [
            {
                "children": [
                    {
                        "children": [
                            {
                                "children": [],
                                "depth": 1,
                                "id": 1,
                                "order": 1
                            }
                        ],
                        "depth": 0,
                        "id": 0,
                        "order": 0
                    }
                ],
                "depth": -1,
                "id": -1,
                "order": -1
            }
        ],
        "tidyTraceNodeCount": 2
    },
    "state_change": {
        "stateChanges": [
            {
                "address": "0x26e8bcf9c18c6ae5f3cdf7331e84803aeef086eb",
                "erc": "ERC-20",
                "slots": [
                    {
                        "current": "0x0000000000000000000000000000000000000000000031f3aa60a9114bd0d000",
                        "key": "0x10e43d7b3efee4117d35b41b18fccb5801fc416bd3eed6b075688be01c257f12",
                        "prev": "0x0000000000000000000000000000000000000000000031f2d4bf55652fb70000"
                    },
                    {
                        "current": "0x0000000000000000000000000000000000000000000000000000000000000000",
                        "key": "0x7eac247605d0d2da5f8288ce0c81af2c9b106d7ccfdd28a51099cbf3e21ea93d",
                        "prev": "0x000000000000000000000000000000000000000000000000d5a153ac1c19d000"
                    }
                ],
                "storageVariables": [
                    {
                        "name": "_balances",
                        "type": "mapping(address => uint256)",
                        "value": {
                            "pairs": [
                                {
                                    "key": "0x137c2b74d930346e81197f7ebd975ee8da47cd12",
                                    "value": {
                                        "current": "0",
                                        "prev": "15393677000000000000",
                                        "typeTag": 1
                                    }
                                },
                                {
                                    "key": "0x53486205f07d74e21f1cadcd1a905206f4954a87",
                                    "value": {
                                        "current": "235890793469000000000000",
                                        "prev": "235875399792000000000000",
                                        "typeTag": 1
                                    }
                                }
                            ],
                            "typeTag": 4
                        }
                    }
                ]
            }
        ]
    }
}