{
    "balance_change": {
        "balanceChanges": [
            {
                "account": "0xaf5302cca06d4156823f1c78e209b067f4f11e96",
                "assets": [
                    {
                        "address": "0xc55a13e36d93371a5b036a21d913a31cd2804ba4",
                        "amount": "900",
                        "iconUrl": "",
                        "isERC1155": false,
                        "isERC721": false,
                        "sign": false,
                        "value": ""
                    }
                ]
            },
            {
                "account": "0xc55a13e36d93371a5b036a21d913a31cd2804ba4",
                "assets": [
                    {
                        "address": "0xc55a13e36d93371a5b036a21d913a31cd2804ba4",
                        "amount": "1.8",
                        "iconUrl": "",
                        "isERC1155": false,
                        "isERC721": false,
                        "sign": false,
                        "value": ""
                    }
                ]
            },
            {
                "account": "0xfdf839bec09cd154aa15d48a84a41f7494be5cdb",
                "assets": [
                    {
                        "address": "0xc55a13e36d93371a5b036a21d913a31cd2804ba4",
                        "amount": "901.8",
                        "iconUrl": "",
                        "isERC1155": false,
                        "isERC721": false,
                        "sign": true,
                        "value": ""
                    }
                ]
            }
        ]
    },
    "profile": {
        "basic_info": {
            "baseFee": "",
            "blockNumber": 6459580,
            "callData": "0xa9059cbb000000000000000000000000fdf839bec09cd154aa15d48a84a41f7494be5cdb00000000000000000000000000000000000000000000000000000014f46b0400",
            "debugEnable": true,
            "errorInfo": "",
            "eventCount": 3,
            "feeRecipient": "0xcc16e3c00dbbe76603fa833ec20a48f786dfe610",
            "formatValue": "0",
            "gasLimit": 100000,
            "gasPrice": "1",
            "gasUsed": 38860,
            "intTxnCount": 0,
            "internalRevert": false,
            "internalRevertMessage": "",
            "isContractCreation": false,
            "isFlashloan": false,
            "maxFee": "",
            "nonce": 6,
            "overwritedBlockNumber": -1,
            "priorityFee": "",
            "receiver": "0xc55a13e36d93371a5b036a21d913a31cd2804ba4",
            "revertMessage": "",
            "sender": "0xaf5302cca06d4156823f1c78e209b067f4f11e96",
            "simulationEnable": true,
            "sourceTxnHash": "0xdd95570ff35aa9e2ecc63ee705d93cdcdefcfb6d590e9c3984f8f105e97e427e",
            "status": true,
            "timestamp": "2018-10-05T18:53:28Z",
            "transactionFee": "0.00003886",
            "txnHash": "0xdd95570ff35aa9e2ecc63ee705d93cdcdefcfb6d590e9c3984f8f105e97e427e",
            "txnIndex": 7,
            "type": 0,
            "value": "0"
        },
        "fund_flow": [
            {
                "amount": "900",
                "from": "0xaf5302cca06d4156823f1c78e209b067f4f11e96",
                "id": 1,
                "isERC1155": false,
                "isERC721": false,
                "isReverted": false,
                "order": 1,
                "to": "0xfdf839bec09cd154aa15d48a84a41f7494be5cdb",
                "token": "0xc55a13e36d93371a5b036a21d913a31cd2804ba4"
            },
            {
                "amount": "1.8",
                "from": "0xc55a13e36d93371a5b036a21d913a31cd2804ba4",
                "id": 2,
                "isERC1155": false,
                "isERC721": false,
                "isReverted": false,
                "order": 2,
                "to": "0xfdf839bec09cd154aa15d48a84a41f7494be5cdb",
                "token": "0xc55a13e36d93371a5b036a21d913a31cd2804ba4"
            }
        ],
        "token_infos": [
            {
                "address": "0xc02aaa39b223fe8d0a0e5c4f27ead9083c756cc2",
                "decimals": 18
            },
            {
                "address": "0xc55a13e36d93371a5b036a21d913a31cd2804ba4",
                "decimals": 8
            },
            {
                "address": "0xeeeeeeeeeeeeeeeeeeeeeeeeeeeeeeeeeeeeeeee",
                "decimals": 18
            }
        ]
    },
    "address_label": {
        "labels": [
            {
                "address": "0x0000000000000000000000000000000000000004",
                "label": "Precompiled"
            },
            {
                "address": "0xeeeeeeeeeeeeeeeeeeeeeeeeeeeeeeeeeeeeeeee",
                "label": "Ether"
            },
            {
                "address": "0xc55a13e36d93371a5b036a21d913a31cd2804ba4",
                "label": "NOE"
            },
            {
                "address": "0x0000000000000000000000000000000000000001",
                "label": "Precompiled"
            },
            {
                "address": "0x0000000000000000000000000000000000000002",
                "label": "Precompiled"
            },
            {
                "address": "0x0000000000000000000000000000000000000003",
                "label": "Precompiled"
            }
        ]
    },
    "trace": {
        "accountLabels": null,
        "dataMap": {
            "-1": {
                "invocation": {
                    "address": "0xaf5302cca06d4156823f1c78e209b067f4f11e96",
                    "callData": "",
                    "decodedMethod": null,
                    "errorInfo": "",
                    "fromAddress": "",
                    "gasUsed": 0,
                    "id": -1,
                    "methodDecoded": false,
                    "operation": "",
                    "output": "",
                    "revert": false,
                    "revertMessage": "",
                    "selector": "",
                    "status": false,
                    "value": ""
                },
                "nodeType": 0
            },
            "0": {
                "invocation": {
                    "address": "0xc55a13e36d93371a5b036a21d913a31cd2804ba4",
                    "callData": "0x000000000000000000000000fdf839bec09cd154aa15d48a84a41f7494be5cdb00000000000000000000000000000000000000000000000000000014f46b0400",
                    "decodedMethod": {
                        "callParams": [
                            {
                                "name": "_to",
                                "type": "address",
                                "value": "0xfdf839bec09cd154aa15d48a84a41f7494be5cdb"
                            },
                            {
                                "decimalAvailable": true,
                                "name": "_amount",
                                "type": "uint256",
                                "value": "90,000,000,000"
                            }
                        ],
                        "constructorArguments": "",
                        "name": "transfer",
                        "returnParams": [
                            {
                                "name": "success",
                                "type": "bool",
                                "value": true
                            }
                        ],
                        "signature": "transfer(address,uint256)"
                    },
                    "errorInfo": "",
                    "fromAddress": "0xaf5302cca06d4156823f1c78e209b067f4f11e96",
                    "gasUsed": 38860,
                    "id": 0,
                    "methodDecoded": true,
                    "operation": "CALL",
                    "output": "0x0000000000000000000000000000000000000000000000000000000000000001",
                    "revert": false,
                    "revertMessage": "",
                    "selector": "0xa9059cbb",
                    "status": true,
                    "value": "0"
                },
                "nodeType": 0
            },
            "1": {
                "event": {
                    "contract": "0xc55a13e36d93371a5b036a21d913a31cd2804ba4",
                    "decodedLog": {
                        "name": "Transfer",
                        "params": [
                            {
                                "name": "_from",
                                "type": "address",
                                "value": "0xaf5302cca06d4156823f1c78e209b067f4f11e96"
                            },
                            {
                                "name": "_to",
                                "type": "address",
                                "value": "0xfdf839bec09cd154aa15d48a84a41f7494be5cdb"
                            },
                            {
                                "decimalAvailable": true,
                                "name": "_value",
                                "type": "uint256",
                                "value": "90,000,000,000"
                            }
                        ],
                        "signature": "Transfer(address,address,uint256)"
                    },
                    "id": 1,
                    "logData": "0x00000000000000000000000000000000000000000000000000000014f46b0400",
                    "logDecoded": true,
                    "operation": "EVENT",
                    "revert": false,
                    "status": true,
                    "topics": [
                        "0xddf252ad1be2c89b69c2b068fc378daa952ba7f163c4a11628f55a4df523b3ef",
                        "0x000000000000000000000000af5302cca06d4156823f1c78e209b067f4f11e96",
                        "0x000000000000000000000000fdf839bec09cd154aa15d48a84a41f7494be5cdb"
                    ]
                },
                "nodeType": 1
            },
            "2": {
                "event": {
                    "contract": "0xc55a13e36d93371a5b036a21d913a31cd2804ba4",
                    "decodedLog": {
                        "name": "Distr",
                        "params": [
                            {
                                "name": "to",
                                "type": "address",
                                "value": "0xfdf839bec09cd154aa15d48a84a41f7494be5cdb"
                            },
                            {
                                "name": "amount",
                                "type": "uint256",
                                "value": "180,000,000"
                            }
                        ],
                        "signature": "Distr(address,uint256)"
                    },
                    "id": 2,
                    "logData": "0x000000000000000000000000000000000000000000000000000000000aba9500",
                    "logDecoded": true,
                    "operation": "EVENT",
                    "revert": false,
                    "status": true,
                    "topics": [
                        "0x8940c4b8e215f8822c5c8f0056c12652c746cbc57eedbd2a440b175971d47a77",
                        "0x000000000000000000000000fdf839bec09cd154aa15d48a84a41f7494be5cdb"
                    ]
                },
                "nodeType": 1
            },
            "3": {
                "event": {
                    "contract": "0xc55a13e36d93371a5b036a21d913a31cd2804ba4",
                    "decodedLog": {
                        "name": "Transfer",
                        "params": [
                            {
                                "name": "_from",
                                "type": "address",
                                "value": "0xc55a13e36d93371a5b036a21d913a31cd2804ba4"
                            },
                            {
                                "name": "_to",
                                "type": "address",
                                "value": "0xfdf839bec09cd154aa15d48a84a41f7494be5cdb"
                            },
                            {
                                "decimalAvailable": true,
                                "name": "_value",
                                "type": "uint256",
                                "value": "180,000,000"
                            }
                        ],
                        "signature": "Transfer(address,address,uint256)"
                    },
                    "id": 3,
                    "logData": "0x000000000000000000000000000000000000000000000000000000000aba9500",
                    "logDecoded": true,
                    "operation": "EVENT",
                    "revert": false,
                    "status": true,
                    "topics": [
                        "0xddf252ad1be2c89b69c2b068fc378daa952ba7f163c4a11628f55a4df523b3ef",
                        "0x000000000000000000000000c55a13e36d93371a5b036a21d913a31cd2804ba4",
                        "0x000000000000000000000000fdf839bec09cd154aa15d48a84a41f7494be5cdb"
                    ]
                },
                "nodeType": 1
            }
        },
        "gasFlame": [
            {
                "children": [
                    {
                        "children": [
                            {
                                "children": [],
                                "depth": 0,
                                "name": "Initial Gas",
                                "value": 23064
                            },
                            {
                                "children": [],
                                "depth": 0,
                                "name": "Executed Gas",
                                "value": 30796
                            }
                        ],
                        "depth": -1,
                        "name": "Actual Gas Used",
                        "value": 38860
                    },
                    {
                        "children": [],
                        "depth": -1,
                        "name": "Refunded Gas",
                        "value": 15000
                    }
                ],
                "depth": -2,
                "name": "Total Gas",
                "value": 53860
            }
        ],
        "isConfirmed": true,
        "mainTrace": [
            {
                "children": [
                    {
                        "children": [
                            {
                                "children": [],
                                "depth": 1,
                                "id": 1,
                                "order": 1
                            },
                            {
                                "children": [],
                                "depth": 1,
                                "id": 2,
                                "order": 2
                            },
                            {
                                "children": [],
                                "depth": 1,
                                "id": 3,
                                "order": 3
                            }
                        ],
                        "depth": 0,
                        "id": 0,
                        "order": 0
                    }
                ],
                "depth": -1,
                "id": -1,
                "order": -1
            }
        ],
        "mainTraceNodeCount": 4,
        "parentIdMap": {
            "0": -1,
            "1": 0,
            "2": 0,
            "3": 0
        },
        "tidyTrace": [
            {
                "children": [
                    {
                        "children": [
                            {
                                "children": [],
                                "depth": 1,
                                "id": 1,
                                "order": 1
                            },
                            {
                                "children": [],
                                "depth": 1,
                                "id": 2,
                                "order": 2
                            },
                            {
                                "children": [],
                                "depth": 1,
                                "id": 3,
                                "order": 3
                            }
                        ],
                        "depth": 0,
                        "id": 0,
                        "order": 0
                    }
                ],
                "depth": -1,
                "id": -1,
                "order": -1
            }
        ],
        "tidyTraceNodeCount": 4
    },
    "state_change": {
        "stateChanges": [
            {
                "address": "0xc55a13e36d93371a5b036a21d913a31cd2804ba4",
                "erc": "ERC-20",
                "slots": [
                    {
                        "current": "0x000000000000000000000000000000000000000000000000000011307bf8b800",
                        "key": "0x54e90eeecbeddcfa7c8b430bb6150dcca17349dfc1dd0c391d10b45b942b84f4",
                        "prev": "0x0000000000000000000000000000000000000000000000000000111b7cd31f00"
                    },
                    {
                        "current": "0x00000000000000000000000000000000000000000000000000148a0fe57cf28e",
                        "key": "0x000000000000000000000000000000000000000000000000000000000000000a",
                        "prev": "0x00000000000000000000000000000000000000000000000000148a0fdac25d8e"
                    },
                    {
                        "current": "0x0000000000000000000000000000000000000000000000000000000000000000",
                        "key": "0x8880a9f274aa65dd505fd1aaa756420d9f4fc40a10d56649ff1edb364e8d2b37",
                        "prev": "0x00000000000000000000000000000000000000000000000000000014f46b0400"
                    }
                ],
                "storageVariables": [
                    {
                        "name": "balances",
                        "type": "mapping(address => uint256)",
                        "value": {
                            "pairs": [
                                {
                                    "key": "0xaf5302cca06d4156823f1c78e209b067f4f11e96",
                                    "value": {
                                        "current": "0",
                                        "prev": "90000000000",
                                        "typeTag": 1
                                    }
                                },
                                {
                                    "key": "0xfdf839bec09cd154aa15d48a84a41f7494be5cdb",
                                    "value": {
                                        "current": "18899936000000",
                                        "prev": "18809756000000",
                                        "typeTag": 1
                                    }
                                }
                            ],
                            "typeTag": 4
                        }
                    },
                    {
                        "name": "totalDistributed",
                        "type": "uint256",
                        "value": {
                            "current": "5781300413526670",
                            "prev": "5781300233526670",
                            "typeTag": 1
                        }
                    }
                ]
            }
        ]
    }
}