{
    "balance_change": {
        "balanceChanges": [
            {
                "account": "0xa9260eafcf8a2bde8e104b247b9a5b9c79c5b36f",
                "assets": [
                    {
                        "address": "0xeeeeeeeeeeeeeeeeeeeeeeeeeeeeeeeeeeeeeeee",
                        "amount": "0.02",
                        "iconUrl": "https://assets.blocksec.com/image/1663669189317-3.png",
                        "isERC1155": false,
                        "isERC721": false,
                        "sign": false,
                        "value": "36.224361279999998258"
                    }
                ]
            },
            {
                "account": "0xabea9132b05a70803a4e85094fd0e1800777fbef",
                "assets": [
                    {
                        "address": "0xeeeeeeeeeeeeeeeeeeeeeeeeeeeeeeeeeeeeeeee",
                        "amount": "0.02",
                        "iconUrl": "https://assets.blocksec.com/image/1663669189317-3.png",
                        "isERC1155": false,
                        "isERC721": false,
                        "sign": true,
                        "value": "36.224361279999998258"
                    }
                ]
            }
        ]
    },
    "profile": {
        "basic_info": {
            "baseFee": "33.075143534",
            "blockNumber": 17152043,
            "callData": "0x2d2da806000000000000000000000000a9260eafcf8a2bde8e104b247b9a5b9c79c5b36f",
            "debugEnable": true,
            "errorInfo": "",
            "eventCount": 2,
            "feeRecipient": "0x1f9090aae28b8a3dceadf281b0f12828e676c326",
            "formatValue": "0.02",
            "gasLimit": 90000,
            "gasPrice": "33.37308589",
            "gasUsed": 62618,
            "intTxnCount": 1,
            "internalRevert": false,
            "internalRevertMessage": "",
            "isContractCreation": false,
            "isFlashloan": false,
            "maxFee": "33.37308589",
            "nonce": 0,
            "overwritedBlockNumber": -1,
            "priorityFee": "33.37308589",
            "receiver": "0xabea9132b05a70803a4e85094fd0e1800777fbef",
            "revertMessage": "",
            "sender": "0xa9260eafcf8a2bde8e104b247b9a5b9c79c5b36f",
            "simulationEnable": true,
            "sourceTxnHash": "0xddc7002d37b31d1321163314675aea4193152a83165b65ce2ed6d67bff40d616",
            "status": true,
            "timestamp": "2023-04-29T13:26:47Z",
            "transactionFee": "0.00208975589226002",
            "txnHash": "0xddc7002d37b31d1321163314675aea4193152a83165b65ce2ed6d67bff40d616",
            "txnIndex": 64,
            "type": 2,
            "value": "20000000000000000"
        },
        "fund_flow": [
            {
                "amount": "0.02",
                "from": "0xa9260eafcf8a2bde8e104b247b9a5b9c79c5b36f",
                "id": 1,
                "isERC1155": false,
                "isERC721": false,
                "isReverted": false,
                "order": 1,
                "to": "0xabea9132b05a70803a4e85094fd0e1800777fbef",
                "token": "0xeeeeeeeeeeeeeeeeeeeeeeeeeeeeeeeeeeeeeeee"
            }
        ],
        "token_infos": [
            {
                "address": "0xc02aaa39b223fe8d0a0e5c4f27ead9083c756cc2",
                "decimals": 18
            },
            {
                "address": "0xeeeeeeeeeeeeeeeeeeeeeeeeeeeeeeeeeeeeeeee",
                "decimals": 18
            }
        ]
    },
    "address_label": {
        "labels": [
            {
                "address": "0xeeeeeeeeeeeeeeeeeeeeeeeeeeeeeeeeeeeeeeee",
                "label": "Ether"
            },
            {
                "address": "0xabea9132b05a70803a4e85094fd0e1800777fbef",
                "label": "zkSync"
            },
            {
                "address": "0x8e972b354e6933275513c355ee14d44a832ad2d9",
                "label": "ZkSync"
            },
            {
                "address": "0x0000000000000000000000000000000000000001",
                "label": "Precompiled"
            },
            {
                "address": "0x0000000000000000000000000000000000000002",
                "label": "Precompiled"
            },
            {
                "address": "0x0000000000000000000000000000000000000003",
                "label": "Precompiled"
            },
            {
                "address": "0x0000000000000000000000000000000000000004",
                "label": "Precompiled"
            }
        ]
    },
    "trace": {
        "accountLabels": null,
        "dataMap": {
            "-1": {
                "invocation": {
                    "address": "0xa9260eafcf8a2bde8e104b247b9a5b9c79c5b36f",
                    "callData": "",
                    "decodedMethod": null,
                    "errorInfo": "",
                    "fromAddress": "",
                    "gasUsed": 0,
                    "id": -1,
                    "methodDecoded": false,
                    "operation": "",
                    "output": "",
                    "revert": false,
                    "revertMessage": "",
                    "selector": "",
                    "status": false,
                    "value": ""
                },
                "nodeType": 0
            },
            "0": {
                "invocation": {
                    "address": "0xabea9132b05a70803a4e85094fd0e1800777fbef",
                    "callData": "0x000000000000000000000000a9260eafcf8a2bde8e104b247b9a5b9c79c5b36f",
                    "decodedMethod": {
                        "callParams": [
                            {
                                "name": "_zkSyncAddress",
                                "type": "address",
                                "value": "0xa9260eafcf8a2bde8e104b247b9a5b9c79c5b36f"
                            }
                        ],
                        "constructorArguments": "",
                        "name": "depositETH",
                        "returnParams": [],
                        "signature": "depositETH(address)"
                    },
                    "errorInfo": "",
                    "fromAddress": "0xa9260eafcf8a2bde8e104b247b9a5b9c79c5b36f",
                    "gasUsed": 62618,
                    "id": 0,
                    "methodDecoded": true,
                    "operation": "CALL",
                    "output": "",
                    "revert": false,
                    "revertMessage": "",
                    "selector": "0x2d2da806",
                    "status": true,
                    "value": "0.02"
                },
                "nodeType": 0
            },
            "1": {
                "invocation": {
                    "address": "0x8e972b354e6933275513c355ee14d44a832ad2d9",
                    "callData": "0x000000000000000000000000a9260eafcf8a2bde8e104b247b9a5b9c79c5b36f",
                    "decodedMethod": {
                        "callParams": [
                            {
                                "name": "_zkSyncAddress",
                                "type": "address",
                                "value": "0xa9260eafcf8a2bde8e104b247b9a5b9c79c5b36f"
                            }
                        ],
                        "constructorArguments": "",
                        "name": "depositETH",
                        "returnParams": [],
                        "signature": "depositETH(address)"
                    },
                    "errorInfo": "",
                    "fromAddress": "0xabea9132b05a70803a4e85094fd0e1800777fbef",
                    "gasUsed": 36151,
                    "id": 1,
                    "methodDecoded": true,
                    "operation": "DELEGATECALL",
                    "output": "",
                    "revert": false,
                    "revertMessage": "",
                    "selector": "0x2d2da806",
                    "status": true,
                    "value": "0.02"
                },
                "nodeType": 0
            },
            "2": {
                "event": {
                    "contract": "0xabea9132b05a70803a4e85094fd0e1800777fbef",
                    "decodedLog": {
                        "name": "NewPriorityRequest",
                        "params": [
                            {
                                "name": "sender",
                                "type": "address",
                                "value": "0xa9260eafcf8a2bde8e104b247b9a5b9c79c5b36f"
                            },
                            {
                                "name": "serialId",
                                "type": "uint64",
                                "value": "1,203,287"
                            },
                            {
                                "name": "opType",
                                "type": "uint8",
                                "value": "1"
                            },
                            {
                                "name": "pubData",
                                "type": "bytes",
                                "value": "0x010000000000000000000000000000000000470de4df820000a9260eafcf8a2bde8e104b247b9a5b9c79c5b36f"
                            },
                            {
                                "name": "expirationBlock",
                                "type": "uint256",
                                "value": "17,232,683"
                            }
                        ],
                        "signature": "NewPriorityRequest(address,uint64,uint8,bytes,uint256)"
                    },
                    "id": 2,
                    "logData": "0x000000000000000000000000a9260eafcf8a2bde8e104b247b9a5b9c79c5b36f0000000000000000000000000000000000000000000000000000000000125c57000000000000000000000000000000000000000000000000000000000000000100000000000000000000000000000000000000000000000000000000000000a0000000000000000000000000000000000000000000000000000000000106f32b000000000000000000000000000000000000000000000000000000000000002d010000000000000000000000000000000000470de4df820000a9260eafcf8a2bde8e104b247b9a5b9c79c5b36f00000000000000000000000000000000000000",
                    "logDecoded": true,
                    "operation": "EVENT",
                    "revert": false,
                    "status": true,
                    "topics": [
                        "0xd0943372c08b438a88d4b39d77216901079eda9ca59d45349841c099083b6830"
                    ]
                },
                "nodeType": 1
            },
            "3": {
                "event": {
                    "contract": "0xabea9132b05a70803a4e85094fd0e1800777fbef",
                    "decodedLog": {
                        "name": "Deposit",
                        "params": [
                            {
                                "name": "tokenId",
                                "type": "uint16",
                                "value": "0"
                            },
                            {
                                "name": "amount",
                                "type": "uint128",
                                "value": "20,000,000,000,000,000"
                            }
                        ],
                        "signature": "Deposit(uint16,uint128)"
                    },
                    "id": 3,
                    "logData": "0x00000000000000000000000000000000000000000000000000470de4df820000",
                    "logDecoded": true,
                    "operation": "EVENT",
                    "revert": false,
                    "status": true,
                    "topics": [
                        "0x8f5f51448394699ad6a3b80cdadf4ec68c5d724c8c3fea09bea55b3c2d0e2dd0",
                        "0x0000000000000000000000000000000000000000000000000000000000000000"
                    ]
                },
                "nodeType": 1
            }
        },
        "gasFlame": [
            {
                "children": [
                    {
                        "children": [
                            {
                                "children": [],
                                "depth": 0,
                                "name": "Initial Gas",
                                "value": 21432
                            },
                            {
                                "children": [
                                    {
                                        "children": [],
                                        "depth": 1,
                                        "name": "depositETH",
                                        "value": 36151
                                    }
                                ],
                                "depth": 0,
                                "name": "Executed Gas",
                                "value": 41186
                            }
                        ],
                        "depth": -1,
                        "name": "Actual Gas Used",
                        "value": 62618
                    },
                    {
                        "children": [],
                        "depth": -1,
                        "name": "Refunded Gas",
                        "value": 0
                    }
                ],
                "depth": -2,
                "name": "Total Gas",
                "value": 62618
            }
        ],
        "isConfirmed": true,
        "mainTrace": [
            {
                "children": [
                    {
                        "children": [
                            {
                                "children": [
                                    {
                                        "children": [],
                                        "depth": 2,
                                        "id": 2,
                                        "order": 2
                                    },
                                    {
                                        "children": [],
                                        "depth": 2,
                                        "id": 3,
                                        "order": 3
                                    }
                                ],
                                "depth": 1,
                                "id": 1,
                                "order": 1
                            }
                        ],
                        "depth": 0,
                        "id": 0,
                        "order": 0
                    }
                ],
                "depth": -1,
                "id": -1,
                "order": -1
            }
        ],
        "mainTraceNodeCount": 4,
        "parentIdMap": {
            "0": -1,
            "1": 0,
            "2": 1,
            "3": 1
        },
        "tidyTrace": [
            {
                "children": [
                    {
                        "children": [
                            {
                                "children": [
                                    {
                                        "children": [],
                                        "depth": 2,
                                        "id": 2,
                                        "order": 2
                                    },
                                    {
                                        "children": [],
                                        "depth": 2,
                                        "id": 3,
                                        "order": 3
                                    }
                                ],
                                "depth": 1,
                                "id": 1,
                                "order": 1
                            }
                        ],
                        "depth": 0,
                        "id": 0,
                        "order": 0
                    }
                ],
                "depth": -1,
                "id": -1,
                "order": -1
            }
        ],
        "tidyTraceNodeCount": 4
    },
    "state_change": {
        "stateChanges": [
            {
                "address": "0xabea9132b05a70803a4e85094fd0e1800777fbef",
                "erc": "",
                "slots": [
                    {
                        "current": "0x00000001000000000106f32b8c850eb7cbe78fb33d7c7a4c9e3a50ad4809ab41",
                        "key": "0xf92065dda4409566ebcdfc5c1eee4f42ebca93b62ce025b0e8a3d9b8ca64f499",
                        "prev": "0x0000000000000000000000000000000000000000000000000000000000000000"
                    },
                    {
                        "current": "0x00000000000000000000000000000047000000000000005e0000000000125bfa",
                        "key": "0x000000000000000000000000000000000000000000000000000000000000000c",
                        "prev": "0x00000000000000000000000000000047000000000000005d0000000000125bfa"
                    }
                ],
                "storageVariables": [
                    {
                        "name": "priorityRequests",
                        "type": "mapping(uint64 => struct Storage.PriorityOperation)",
                        "value": {
                            "pairs": [
                                {
                                    "key": "1203287",
                                    "value": {
                                        "fields": [
                                            {
                                                "name": "hashedPubData",
                                                "type": "bytes20",
                                                "value": {
                                                    "current": "0x8c850eb7cbe78fb33d7c7a4c9e3a50ad4809ab41",
                                                    "prev": "0x0000000000000000000000000000000000000000",
                                                    "typeTag": 1
                                                }
                                            },
                                            {
                                                "name": "expirationBlock",
                                                "type": "uint64",
                                                "value": {
                                                    "current": "17232683",
                                                    "prev": "0",
                                                    "typeTag": 1
                                                }
                                            },
                                            {
                                                "name": "opType",
                                                "type": "enum Operations.OpType",
                                                "value": {
                                                    "current": "1",
                                                    "prev": "0",
                                                    "typeTag": 1
                                                }
                                            }
                                        ],
                                        "typeTag": 3
                                    }
                                }
                            ],
                            "typeTag": 4
                        }
                    },
                    {
                        "name": "firstPriorityRequestId",
                        "type": "uint64",
                        "value": {
                            "current": "1203194",
                            "prev": "1203194",
                            "typeTag": 1
                        }
                    },
                    {
                        "name": "totalOpenPriorityRequests",
                        "type": "uint64",
                        "value": {
                            "current": "94",
                            "prev": "93",
                            "typeTag": 1
                        }
                    },
                    {
                        "name": "totalCommittedPriorityRequests",
                        "type": "uint64",
                        "value": {
                            "current": "71",
                            "prev": "71",
                            "typeTag": 1
                        }
                    }
                ]
            }
        ]
    }
}