{
    "balance_change": {
        "balanceChanges": [
            {
                "account": "0x8a35656986dd4d6cb9f5df93112d4394c8a11916",
                "assets": [
                    {
                        "address": "0x06404399e748cd83f25ab163711f9f4d61cfd0e6",
                        "amount": "420,000",
                        "iconUrl": "",
                        "isERC1155": false,
                        "isERC721": false,
                        "sign": false,
                        "value": ""
                    }
                ]
            },
            {
                "account": "0x6fe3784104103fa208cb7f5d94afa6d77408b927",
                "assets": [
                    {
                        "address": "0x06404399e748cd83f25ab163711f9f4d61cfd0e6",
                        "amount": "420,000",
                        "iconUrl": "",
                        "isERC1155": false,
                        "isERC721": false,
                        "sign": true,
                        "value": ""
                    }
                ]
            }
        ]
    },
    "profile": {
        "basic_info": {
            "baseFee": "",
            "blockNumber": 6860339,
            "callData": "0xa9059cbb0000000000000000000000006fe3784104103fa208cb7f5d94afa6d77408b9270000000000000000000000000000000000000000000058f03ee118a13e800000",
            "debugEnable": true,
            "errorInfo": "",
            "eventCount": 1,
            "feeRecipient": "0x52bc44d5378309ee2abf1539bf71de1b7d7be3b5",
            "formatValue": "0",
            "gasLimit": 60000,
            "gasPrice": "8.834375",
            "gasUsed": 53201,
            "intTxnCount": 0,
            "internalRevert": false,
            "internalRevertMessage": "",
            "isContractCreation": false,
            "isFlashloan": false,
            "maxFee": "",
            "nonce": 367,
            "overwritedBlockNumber": -1,
            "priorityFee": "",
            "receiver": "0x06404399e748cd83f25ab163711f9f4d61cfd0e6",
            "revertMessage": "",
            "sender": "0x8a35656986dd4d6cb9f5df93112d4394c8a11916",
            "simulationEnable": true,
            "sourceTxnHash": "0xdda5066866711c63fc87d97eee3c9dc3374fa1968401e50b80356f973f119ecb",
            "status": true,
            "timestamp": "2018-12-10T10:28:52Z",
            "transactionFee": "0.000469997584375",
            "txnHash": "0xdda5066866711c63fc87d97eee3c9dc3374fa1968401e50b80356f973f119ecb",
            "txnIndex": 86,
            "type": 0,
            "value": "0"
        },
        "fund_flow": [
            {
                "amount": "420,000",
                "from": "0x8a35656986dd4d6cb9f5df93112d4394c8a11916",
                "id": 1,
                "isERC1155": false,
                "isERC721": false,
                "isReverted": false,
                "order": 1,
                "to": "0x6fe3784104103fa208cb7f5d94afa6d77408b927",
                "token": "0x06404399e748cd83f25ab163711f9f4d61cfd0e6"
            }
        ],
        "token_infos": [
            {
                "address": "0xeeeeeeeeeeeeeeeeeeeeeeeeeeeeeeeeeeeeeeee",
                "decimals": 18
            },
            {
                "address": "0x06404399e748cd83f25ab163711f9f4d61cfd0e6",
                "decimals": 18
            },
            {
                "address": "0xc02aaa39b223fe8d0a0e5c4f27ead9083c756cc2",
                "decimals": 18
            }
        ]
    },
    "address_label": {
        "labels": [
            {
                "address": "0x0000000000000000000000000000000000000003",
                "label": "Precompiled"
            },
            {
                "address": "0x0000000000000000000000000000000000000004",
                "label": "Precompiled"
            },
            {
                "address": "0xeeeeeeeeeeeeeeeeeeeeeeeeeeeeeeeeeeeeeeee",
                "label": "Ether"
            },
            {
                "address": "0x06404399e748cd83f25ab163711f9f4d61cfd0e6",
                "label": "FunkeyCoin (FNK)"
            },
            {
                "address": "0x0000000000000000000000000000000000000001",
                "label": "Precompiled"
            },
            {
                "address": "0x0000000000000000000000000000000000000002",
                "label": "Precompiled"
            }
        ]
    },
    "trace": {
        "accountLabels": null,
        "dataMap": {
            "-1": {
                "invocation": {
                    "address": "0x8a35656986dd4d6cb9f5df93112d4394c8a11916",
                    "callData": "",
                    "decodedMethod": null,
                    "errorInfo": "",
                    "fromAddress": "",
                    "gasUsed": 0,
                    "id": -1,
                    "methodDecoded": false,
                    "operation": "",
                    "output": "",
                    "revert": false,
                    "revertMessage": "",
                    "selector": "",
                    "status": false,
                    "value": ""
                },
                "nodeType": 0
            },
            "0": {
                "invocation": {
                    "address": "0x06404399e748cd83f25ab163711f9f4d61cfd0e6",
                    "callData": "0x0000000000000000000000006fe3784104103fa208cb7f5d94afa6d77408b9270000000000000000000000000000000000000000000058f03ee118a13e800000",
                    "decodedMethod": {
                        "callParams": [
                            {
                                "name": "_to",
                                "type": "address",
                                "value": "0x6fe3784104103fa208cb7f5d94afa6d77408b927"
                            },
                            {
                                "decimalAvailable": true,
                                "name": "_value",
                                "type": "uint256",
                                "value": "420,000,000,000,000,000,000,000"
                            }
                        ],
                        "constructorArguments": "",
                        "name": "transfer",
                        "returnParams": [
                            {
                                "name": "",
                                "type": "bool",
                                "value": true
                            }
                        ],
                        "signature": "transfer(address,uint256)"
                    },
                    "errorInfo": "",
                    "fromAddress": "0x8a35656986dd4d6cb9f5df93112d4394c8a11916",
                    "gasUsed": 53201,
                    "id": 0,
                    "methodDecoded": true,
                    "operation": "CALL",
                    "output": "0x0000000000000000000000000000000000000000000000000000000000000001",
                    "revert": false,
                    "revertMessage": "",
                    "selector": "0xa9059cbb",
                    "status": true,
                    "value": "0"
                },
                "nodeType": 0
            },
            "1": {
                "event": {
                    "contract": "0x06404399e748cd83f25ab163711f9f4d61cfd0e6",
                    "decodedLog": {
                        "name": "Transfer",
                        "params": [
                            {
                                "name": "from",
                                "type": "address",
                                "value": "0x8a35656986dd4d6cb9f5df93112d4394c8a11916"
                            },
                            {
                                "name": "to",
                                "type": "address",
                                "value": "0x6fe3784104103fa208cb7f5d94afa6d77408b927"
                            },
                            {
                                "decimalAvailable": true,
                                "name": "value",
                                "type": "uint256",
                                "value": "420,000,000,000,000,000,000,000"
                            }
                        ],
                        "signature": "Transfer(address,address,uint256)"
                    },
                    "id": 1,
                    "logData": "0x0000000000000000000000000000000000000000000058f03ee118a13e800000",
                    "logDecoded": true,
                    "operation": "EVENT",
                    "revert": false,
                    "status": true,
                    "topics": [
                        "0xddf252ad1be2c89b69c2b068fc378daa952ba7f163c4a11628f55a4df523b3ef",
                        "0x0000000000000000000000008a35656986dd4d6cb9f5df93112d4394c8a11916",
                        "0x0000000000000000000000006fe3784104103fa208cb7f5d94afa6d77408b927"
                    ]
                },
                "nodeType": 1
            }
        },
        "gasFlame": [
            {
                "children": [
                    {
                        "children": [
                            {
                                "children": [],
                                "depth": 0,
                                "name": "Initial Gas",
                                "value": 23320
                            },
                            {
                                "children": [],
                                "depth": 0,
                                "name": "Executed Gas",
                                "value": 29881
                            }
                        ],
                        "depth": -1,
                        "name": "Actual Gas Used",
                        "value": 53201
                    },
                    {
                        "children": [],
                        "depth": -1,
                        "name": "Refunded Gas",
                        "value": 0
                    }
                ],
                "depth": -2,
                "name": "Total Gas",
                "value": 53201
            }
        ],
        "isConfirmed": true,
        "mainTrace": [
            {
                "children": [
                    {
                        "children": [
                            {
                                "children": [],
                                "depth": 1,
                                "id": 1,
                                "order": 1
                            }
                        ],
                        "depth": 0,
                        "id": 0,
                        "order": 0
                    }
                ],
                "depth": -1,
                "id": -1,
                "order": -1
            }
        ],
        "mainTraceNodeCount": 2,
        "parentIdMap": {
            "0": -1,
            "1": 0
        },
        "tidyTrace": [
            {
                "children": [
                    {
                        "children": [
                            {
                                "children": [],
                                "depth": 1,
                                "id": 1,
                                "order": 1
                            }
                        ],
                        "depth": 0,
                        "id": 0,
                        "order": 0
                    }
                ],
                "depth": -1,
                "id": -1,
                "order": -1
            }
        ],
        "tidyTraceNodeCount": 2
    },
    "state_change": {
        "stateChanges": [
            {
                "address": "0x06404399e748cd83f25ab163711f9f4d61cfd0e6",
                "erc": "ERC-20",
                "slots": [
                    {
                        "current": "0x000000000000000000000000000000000000000000019f4205e420b657a00000",
                        "key": "0x2159c21cd0bfede41a019598f575655490784536a2db620a6f5edfb264d7ac79",
                        "prev": "0x00000000000000000000000000000000000000000001f83244c5395796200000"
                    },
                    {
                        "current": "0x0000000000000000000000000000000000000000000058f03ee118a13e800000",
                        "key": "0xa9d2d3b78b184493d7dceaec7dfcf062715bffb516253323b5bdbe03cabced46",
                        "prev": "0x0000000000000000000000000000000000000000000000000000000000000000"
                    }
                ],
                "storageVariables": [
                    {
                        "name": "balances",
                        "type": "mapping(address => uint256)",
                        "value": {
                            "pairs": [
                                {
                                    "key": "0x6fe3784104103fa208cb7f5d94afa6d77408b927",
                                    "value": {
                                        "current": "420000000000000000000000",
                                        "prev": "0",
                                        "typeTag": 1
                                    }
                                },
                                {
                                    "key": "0x8a35656986dd4d6cb9f5df93112d4394c8a11916",
                                    "value": {
                                        "current": "1961000000000000000000000",
                                        "prev": "2381000000000000000000000",
                                        "typeTag": 1
                                    }
                                }
                            ],
                            "typeTag": 4
                        }
                    }
                ]
            }
        ]
    }
}