{
    "balance_change": {
        "balanceChanges": [
            {
                "account": "0x6458f999e595d3bda5692db9df011ccd4ab13a96",
                "assets": [
                    {
                        "address": "0xc0ba369c8db6eb3924965e5c4fd0b4c1b91e305f",
                        "amount": "250",
                        "iconUrl": "",
                        "isERC1155": false,
                        "isERC721": false,
                        "sign": false,
                        "value": "525.938007"
                    }
                ]
            },
            {
                "account": "0xac2c0422e481c87a3731d0dae27115faebf8221d",
                "assets": [
                    {
                        "address": "0xc0ba369c8db6eb3924965e5c4fd0b4c1b91e305f",
                        "amount": "250",
                        "iconUrl": "",
                        "isERC1155": false,
                        "isERC721": false,
                        "sign": true,
                        "value": "525.938007"
                    }
                ]
            }
        ]
    },
    "profile": {
        "basic_info": {
            "baseFee": "",
            "blockNumber": 11881370,
            "callData": "0x0e89439b00000000000000000000000000000000000000000000000d8d726b7177a8000000000000000000000000000000000000000000000000000000000000000000400000000000000000000000000000000000000000000000000000000000000060000000000000000000000000000000000000000000000000000000000000001cb89fff9d5b422e92a75c67dcb4e127c089b669d070a69edfae5e1751e16d878c7702553785b20a00fc0ebfb479a030c7723f64a4b5dbbf5ef0ea75d73b197e55",
            "debugEnable": true,
            "errorInfo": "",
            "eventCount": 2,
            "feeRecipient": "0x5a0b54d5dc17e0aadc383d2db43b0a0d3e029c4c",
            "formatValue": "0",
            "gasLimit": 130387,
            "gasPrice": "300",
            "gasUsed": 109695,
            "intTxnCount": 3,
            "internalRevert": false,
            "internalRevertMessage": "",
            "isContractCreation": false,
            "isFlashloan": false,
            "maxFee": "",
            "nonce": 2567,
            "overwritedBlockNumber": -1,
            "priorityFee": "",
            "receiver": "0xac2c0422e481c87a3731d0dae27115faebf8221d",
            "revertMessage": "",
            "sender": "0x6458f999e595d3bda5692db9df011ccd4ab13a96",
            "simulationEnable": true,
            "sourceTxnHash": "0xdd8a6e5e90cb2c95bde5a207e0b8388dd47a43c97bf282a9471e43fc272b949f",
            "status": true,
            "timestamp": "2021-02-18T14:20:30Z",
            "transactionFee": "0.0329085",
            "txnHash": "0xdd8a6e5e90cb2c95bde5a207e0b8388dd47a43c97bf282a9471e43fc272b949f",
            "txnIndex": 66,
            "type": 0,
            "value": "0"
        },
        "fund_flow": [
            {
                "amount": "250",
                "from": "0x6458f999e595d3bda5692db9df011ccd4ab13a96",
                "id": 1,
                "isERC1155": false,
                "isERC721": false,
                "isReverted": false,
                "order": 1,
                "to": "0xac2c0422e481c87a3731d0dae27115faebf8221d",
                "token": "0xc0ba369c8db6eb3924965e5c4fd0b4c1b91e305f"
            }
        ],
        "token_infos": [
            {
                "address": "0xc02aaa39b223fe8d0a0e5c4f27ead9083c756cc2",
                "decimals": 18
            },
            {
                "address": "0xc0ba369c8db6eb3924965e5c4fd0b4c1b91e305f",
                "decimals": 18
            },
            {
                "address": "0xeeeeeeeeeeeeeeeeeeeeeeeeeeeeeeeeeeeeeeee",
                "decimals": 18
            }
        ]
    },
    "address_label": {
        "labels": [
            {
                "address": "0xeeeeeeeeeeeeeeeeeeeeeeeeeeeeeeeeeeeeeeee",
                "label": "Ether"
            },
            {
                "address": "0xc0ba369c8db6eb3924965e5c4fd0b4c1b91e305f",
                "label": "DuckDao: DUCK Token"
            },
            {
                "address": "0x3a9280f3a7ac4dda31161d6df2f8139ae303d0ab",
                "label": "DuckTiers"
            },
            {
                "address": "0x0000000000000000000000000000000000000001",
                "label": "Precompiled"
            },
            {
                "address": "0x0000000000000000000000000000000000000002",
                "label": "Precompiled"
            },
            {
                "address": "0x0000000000000000000000000000000000000003",
                "label": "Precompiled"
            },
            {
                "address": "0x0000000000000000000000000000000000000004",
                "label": "Precompiled"
            }
        ]
    },
    "trace": {
        "accountLabels": null,
        "dataMap": {
            "-1": {
                "invocation": {
                    "address": "0x6458f999e595d3bda5692db9df011ccd4ab13a96",
                    "callData": "",
                    "decodedMethod": null,
                    "errorInfo": "",
                    "fromAddress": "",
                    "gasUsed": 0,
                    "id": -1,
                    "methodDecoded": false,
                    "operation": "",
                    "output": "",
                    "revert": false,
                    "revertMessage": "",
                    "selector": "",
                    "status": false,
                    "value": ""
                },
                "nodeType": 0
            },
            "0": {
                "invocation": {
                    "address": "0xac2c0422e481c87a3731d0dae27115faebf8221d",
                    "callData": "0x00000000000000000000000000000000000000000000000d8d726b7177a8000000000000000000000000000000000000000000000000000000000000000000400000000000000000000000000000000000000000000000000000000000000060000000000000000000000000000000000000000000000000000000000000001cb89fff9d5b422e92a75c67dcb4e127c089b669d070a69edfae5e1751e16d878c7702553785b20a00fc0ebfb479a030c7723f64a4b5dbbf5ef0ea75d73b197e55",
                    "decodedMethod": {
                        "callParams": [
                            {
                                "name": "amount",
                                "type": "uint256",
                                "value": "250,000,000,000,000,000,000"
                            },
                            {
                                "name": "",
                                "type": "bytes",
                                "value": "0x000000000000000000000000000000000000000000000000000000000000001cb89fff9d5b422e92a75c67dcb4e127c089b669d070a69edfae5e1751e16d878c7702553785b20a00fc0ebfb479a030c7723f64a4b5dbbf5ef0ea75d73b197e55"
                            }
                        ],
                        "constructorArguments": "",
                        "name": "stake",
                        "returnParams": [],
                        "signature": "stake(uint256,bytes)"
                    },
                    "errorInfo": "",
                    "fromAddress": "0x6458f999e595d3bda5692db9df011ccd4ab13a96",
                    "gasUsed": 109695,
                    "id": 0,
                    "methodDecoded": true,
                    "operation": "CALL",
                    "output": "",
                    "revert": false,
                    "revertMessage": "",
                    "selector": "0x0e89439b",
                    "status": true,
                    "value": "0"
                },
                "nodeType": 0
            },
            "1": {
                "invocation": {
                    "address": "0x3a9280f3a7ac4dda31161d6df2f8139ae303d0ab",
                    "callData": "0x0000000000000000000000006458f999e595d3bda5692db9df011ccd4ab13a96",
                    "decodedMethod": {
                        "callParams": [
                            {
                                "name": "_userAddress",
                                "type": "address",
                                "value": "0x6458f999e595d3bda5692db9df011ccd4ab13a96"
                            }
                        ],
                        "constructorArguments": "",
                        "name": "getUserTier",
                        "returnParams": [
                            {
                                "name": "res",
                                "type": "uint8",
                                "value": "4"
                            }
                        ],
                        "signature": "getUserTier(address)"
                    },
                    "errorInfo": "",
                    "fromAddress": "0xac2c0422e481c87a3731d0dae27115faebf8221d",
                    "gasUsed": 11906,
                    "id": 1,
                    "methodDecoded": true,
                    "operation": "STATICCALL",
                    "output": "0x0000000000000000000000000000000000000000000000000000000000000004",
                    "revert": false,
                    "revertMessage": "",
                    "selector": "0xe4d2620e",
                    "status": true,
                    "value": "0"
                },
                "nodeType": 0
            },
            "2": {
                "invocation": {
                    "address": "0x0000000000000000000000000000000000000001",
                    "callData": "0x0ab5df058ddd228002f566ff24fc63ad9dea3721a9cbb63201987dc1000000000000000000000000000000000000000000000000000000000000001cb89fff9d5b422e92a75c67dcb4e127c089b669d070a69edfae5e1751e16d878c7702553785b20a00fc0ebfb479a030c7723f64a4b5dbbf5ef0ea75d73b197e55",
                    "decodedMethod": {
                        "callParams": [
                            {
                                "name": "hash",
                                "type": "bytes32",
                                "value": "0xd10ff6250ab5df058ddd228002f566ff24fc63ad9dea3721a9cbb63201987dc1"
                            },
                            {
                                "name": "v",
                                "type": "uint256",
                                "value": "28"
                            },
                            {
                                "name": "r",
                                "type": "bytes32",
                                "value": "0xb89fff9d5b422e92a75c67dcb4e127c089b669d070a69edfae5e1751e16d878c"
                            },
                            {
                                "name": "s",
                                "type": "bytes32",
                                "value": "0x7702553785b20a00fc0ebfb479a030c7723f64a4b5dbbf5ef0ea75d73b197e55"
                            }
                        ],
                        "constructorArguments": "",
                        "name": "ecrecover",
                        "returnParams": [
                            {
                                "name": "",
                                "type": "address",
                                "value": "0x87b262a1f0d7bebabea91183f9901efde158bbd8"
                            }
                        ],
                        "signature": "ecrecover(bytes32,uint256,bytes32,bytes32)"
                    },
                    "errorInfo": "",
                    "fromAddress": "0xac2c0422e481c87a3731d0dae27115faebf8221d",
                    "gasUsed": 3000,
                    "id": 2,
                    "methodDecoded": true,
                    "operation": "STATICCALL",
                    "output": "0x00000000000000000000000087b262a1f0d7bebabea91183f9901efde158bbd8",
                    "revert": false,
                    "revertMessage": "",
                    "selector": "0xd10ff625",
                    "status": true,
                    "value": "0"
                },
                "nodeType": 0
            },
            "3": {
                "invocation": {
                    "address": "0xc0ba369c8db6eb3924965e5c4fd0b4c1b91e305f",
                    "callData": "0x0000000000000000000000006458f999e595d3bda5692db9df011ccd4ab13a96000000000000000000000000ac2c0422e481c87a3731d0dae27115faebf8221d00000000000000000000000000000000000000000000000d8d726b7177a80000",
                    "decodedMethod": {
                        "callParams": [
                            {
                                "name": "sender",
                                "type": "address",
                                "value": "0x6458f999e595d3bda5692db9df011ccd4ab13a96"
                            },
                            {
                                "name": "recipient",
                                "type": "address",
                                "value": "0xac2c0422e481c87a3731d0dae27115faebf8221d"
                            },
                            {
                                "decimalAvailable": true,
                                "name": "amount",
                                "type": "uint256",
                                "value": "250,000,000,000,000,000,000"
                            }
                        ],
                        "constructorArguments": "",
                        "name": "transferFrom",
                        "returnParams": [
                            {
                                "name": "",
                                "type": "bool",
                                "value": true
                            }
                        ],
                        "signature": "transferFrom(address,address,uint256)"
                    },
                    "errorInfo": "",
                    "fromAddress": "0xac2c0422e481c87a3731d0dae27115faebf8221d",
                    "gasUsed": 22858,
                    "id": 3,
                    "methodDecoded": true,
                    "operation": "CALL",
                    "output": "0x0000000000000000000000000000000000000000000000000000000000000001",
                    "revert": false,
                    "revertMessage": "",
                    "selector": "0x23b872dd",
                    "status": true,
                    "value": "0"
                },
                "nodeType": 0
            },
            "4": {
                "event": {
                    "contract": "0xc0ba369c8db6eb3924965e5c4fd0b4c1b91e305f",
                    "decodedLog": {
                        "name": "Transfer",
                        "params": [
                            {
                                "name": "from",
                                "type": "address",
                                "value": "0x6458f999e595d3bda5692db9df011ccd4ab13a96"
                            },
                            {
                                "name": "to",
                                "type": "address",
                                "value": "0xac2c0422e481c87a3731d0dae27115faebf8221d"
                            },
                            {
                                "decimalAvailable": true,
                                "name": "value",
                                "type": "uint256",
                                "value": "250,000,000,000,000,000,000"
                            }
                        ],
                        "signature": "Transfer(address,address,uint256)"
                    },
                    "id": 4,
                    "logData": "0x00000000000000000000000000000000000000000000000d8d726b7177a80000",
                    "logDecoded": true,
                    "operation": "EVENT",
                    "revert": false,
                    "status": true,
                    "topics": [
                        "0xddf252ad1be2c89b69c2b068fc378daa952ba7f163c4a11628f55a4df523b3ef",
                        "0x0000000000000000000000006458f999e595d3bda5692db9df011ccd4ab13a96",
                        "0x000000000000000000000000ac2c0422e481c87a3731d0dae27115faebf8221d"
                    ]
                },
                "nodeType": 1
            },
            "5": {
                "event": {
                    "contract": "0xc0ba369c8db6eb3924965e5c4fd0b4c1b91e305f",
                    "decodedLog": {
                        "name": "Approval",
                        "params": [
                            {
                                "name": "owner",
                                "type": "address",
                                "value": "0x6458f999e595d3bda5692db9df011ccd4ab13a96"
                            },
                            {
                                "name": "spender",
                                "type": "address",
                                "value": "0xac2c0422e481c87a3731d0dae27115faebf8221d"
                            },
                            {
                                "decimalAvailable": true,
                                "name": "value",
                                "type": "uint256",
                                "value": "0"
                            }
                        ],
                        "signature": "Approval(address,address,uint256)"
                    },
                    "id": 5,
                    "logData": "0x0000000000000000000000000000000000000000000000000000000000000000",
                    "logDecoded": true,
                    "operation": "EVENT",
                    "revert": false,
                    "status": true,
                    "topics": [
                        "0x8c5be1e5ebec7d5bd14f71427d1e84f3dd0314c0f7b2291e5b200ac8c7c3b925",
                        "0x0000000000000000000000006458f999e595d3bda5692db9df011ccd4ab13a96",
                        "0x000000000000000000000000ac2c0422e481c87a3731d0dae27115faebf8221d"
                    ]
                },
                "nodeType": 1
            }
        },
        "gasFlame": [
            {
                "children": [
                    {
                        "children": [
                            {
                                "children": [],
                                "depth": 0,
                                "name": "Initial Gas",
                                "value": 22708
                            },
                            {
                                "children": [
                                    {
                                        "children": [],
                                        "depth": 1,
                                        "name": "getUserTier",
                                        "value": 11906
                                    },
                                    {
                                        "children": [],
                                        "depth": 1,
                                        "name": "ecrecover",
                                        "value": 3000
                                    },
                                    {
                                        "children": [],
                                        "depth": 1,
                                        "name": "transferFrom",
                                        "value": 22858
                                    }
                                ],
                                "depth": 0,
                                "name": "Executed Gas",
                                "value": 106187
                            }
                        ],
                        "depth": -1,
                        "name": "Actual Gas Used",
                        "value": 109695
                    },
                    {
                        "children": [],
                        "depth": -1,
                        "name": "Refunded Gas",
                        "value": 19200
                    }
                ],
                "depth": -2,
                "name": "Total Gas",
                "value": 128895
            }
        ],
        "isConfirmed": true,
        "mainTrace": [
            {
                "children": [
                    {
                        "children": [
                            {
                                "children": [],
                                "depth": 1,
                                "id": 1,
                                "order": 1
                            },
                            {
                                "children": [],
                                "depth": 1,
                                "id": 2,
                                "order": 2
                            },
                            {
                                "children": [
                                    {
                                        "children": [],
                                        "depth": 2,
                                        "id": 4,
                                        "order": 4
                                    },
                                    {
                                        "children": [],
                                        "depth": 2,
                                        "id": 5,
                                        "order": 5
                                    }
                                ],
                                "depth": 1,
                                "id": 3,
                                "order": 3
                            }
                        ],
                        "depth": 0,
                        "id": 0,
                        "order": 0
                    }
                ],
                "depth": -1,
                "id": -1,
                "order": -1
            }
        ],
        "mainTraceNodeCount": 6,
        "parentIdMap": {
            "0": -1,
            "1": 0,
            "2": 0,
            "3": 0,
            "4": 3,
            "5": 3
        },
        "tidyTrace": [
            {
                "children": [
                    {
                        "children": [
                            {
                                "children": [
                                    {
                                        "children": [],
                                        "depth": 2,
                                        "id": 4,
                                        "order": 4
                                    },
                                    {
                                        "children": [],
                                        "depth": 2,
                                        "id": 5,
                                        "order": 5
                                    }
                                ],
                                "depth": 1,
                                "id": 3,
                                "order": 3
                            }
                        ],
                        "depth": 0,
                        "id": 0,
                        "order": 0
                    }
                ],
                "depth": -1,
                "id": -1,
                "order": -1
            }
        ],
        "tidyTraceNodeCount": 4
    },
    "state_change": {
        "stateChanges": [
            {
                "address": "0xac2c0422e481c87a3731d0dae27115faebf8221d",
                "erc": "",
                "slots": [
                    {
                        "current": "0x0000000000000000000000000000000000000000000000000000000000000001",
                        "key": "0xa1dfe1186b6d480829669a45e8059ccbbf17520ed954b0c19e55e8e36cd30b84",
                        "prev": "0x0000000000000000000000000000000000000000000000000000000000000000"
                    },
                    {
                        "current": "0x00000000000000000000000000000000000000000000000d8d726b7177a80000",
                        "key": "0xc7c79511d60dabfcdf4a0b5516464131e5beec66165b66a2c695ee0833610e57",
                        "prev": "0x0000000000000000000000000000000000000000000000000000000000000000"
                    },
                    {
                        "current": "0x00000000000000000000000000000000000000000000086acc0c7dd33a330000",
                        "key": "0x000000000000000000000000000000000000000000000000000000000000000b",
                        "prev": "0x00000000000000000000000000000000000000000000085d3e9a1261c28b0000"
                    }
                ],
                "storageVariables": []
            },
            {
                "address": "0xc0ba369c8db6eb3924965e5c4fd0b4c1b91e305f",
                "erc": "ERC-20",
                "slots": [
                    {
                        "current": "0x000000000000000000000000000000000000000000000878597ee944b1db0000",
                        "key": "0x37af0b663062f30bcbbc8776e867cc1fcd218fcca1f8d24a44cec6b84b4c5314",
                        "prev": "0x00000000000000000000000000000000000000000000086acc0c7dd33a330000"
                    },
                    {
                        "current": "0x0000000000000000000000000000000000000000000000000000000000000000",
                        "key": "0x957303617627c9fb2070e59442e7808f3e8fcf5c3699f34161a035ad03876b71",
                        "prev": "0x00000000000000000000000000000000000000000000000d8d726b7177a80000"
                    },
                    {
                        "current": "0x00000000000000000000000000000000000000000000005ede20f01a45980000",
                        "key": "0x9ff50da28e654a8eb8d6dd2d5f92864669d0a35c175aa4723e00de00ce761f9c",
                        "prev": "0x00000000000000000000000000000000000000000000006c6b935b8bbd400000"
                    }
                ],
                "storageVariables": [
                    {
                        "name": "_allowances",
                        "type": "mapping(address => mapping(address => uint256))",
                        "value": {
                            "pairs": [
                                {
                                    "key": "0x6458f999e595d3bda5692db9df011ccd4ab13a96",
                                    "value": {
                                        "pairs": [
                                            {
                                                "key": "0xac2c0422e481c87a3731d0dae27115faebf8221d",
                                                "value": {
                                                    "current": "0",
                                                    "prev": "250000000000000000000",
                                                    "typeTag": 1
                                                }
                                            }
                                        ],
                                        "typeTag": 4
                                    }
                                }
                            ],
                            "typeTag": 4
                        }
                    },
                    {
                        "name": "_balances",
                        "type": "mapping(address => uint256)",
                        "value": {
                            "pairs": [
                                {
                                    "key": "0x6458f999e595d3bda5692db9df011ccd4ab13a96",
                                    "value": {
                                        "current": "1750000000000000000000",
                                        "prev": "2000000000000000000000",
                                        "typeTag": 1
                                    }
                                },
                                {
                                    "key": "0xac2c0422e481c87a3731d0dae27115faebf8221d",
                                    "value": {
                                        "current": "39998990000000000000000",
                                        "prev": "39748990000000000000000",
                                        "typeTag": 1
                                    }
                                }
                            ],
                            "typeTag": 4
                        }
                    }
                ]
            }
        ]
    }
}