{
    "balance_change": {
        "balanceChanges": [
            {
                "account": "0xa382ec8e36567899f14ff47e9cfdad046fbe80c7",
                "assets": [
                    {
                        "address": "0xc02aaa39b223fe8d0a0e5c4f27ead9083c756cc2",
                        "amount": "3",
                        "iconUrl": "https://assets.blocksec.com/icon/f1cb2d02c471d545bbc7722daf3277fd852d98e63d118771af7047bd8256c516.png",
                        "isERC1155": false,
                        "isERC721": false,
                        "sign": false,
                        "value": "4811.790000000000191"
                    },
                    {
                        "address": "0x75c97384ca209f915381755c582ec0e2ce88c1ba",
                        "amount": "179,005,326,194.876884614760460819",
                        "iconUrl": "",
                        "isERC1155": false,
                        "isERC721": false,
                        "sign": true,
                        "value": "4489.987768"
                    }
                ]
            },
            {
                "account": "0x0616189d9a6c609ccbdc74fec3853146795efed3",
                "assets": [
                    {
                        "address": "0xc02aaa39b223fe8d0a0e5c4f27ead9083c756cc2",
                        "amount": "0.59475",
                        "iconUrl": "https://assets.blocksec.com/icon/f1cb2d02c471d545bbc7722daf3277fd852d98e63d118771af7047bd8256c516.png",
                        "isERC1155": false,
                        "isERC721": false,
                        "sign": true,
                        "value": "953.9373675000000379"
                    },
                    {
                        "address": "0x75c97384ca209f915381755c582ec0e2ce88c1ba",
                        "amount": "36,070,827,984.40439206462810805",
                        "iconUrl": "",
                        "isERC1155": false,
                        "isERC721": false,
                        "sign": false,
                        "value": "910.9003832"
                    }
                ]
            },
            {
                "account": "0x2acf35c9a3f4c5c3f4c78ef5fb64c3ee82f07c45",
                "assets": [
                    {
                        "address": "0xc02aaa39b223fe8d0a0e5c4f27ead9083c756cc2",
                        "amount": "0.02625",
                        "iconUrl": "https://assets.blocksec.com/icon/f1cb2d02c471d545bbc7722daf3277fd852d98e63d118771af7047bd8256c516.png",
                        "isERC1155": false,
                        "isERC721": false,
                        "sign": true,
                        "value": "42.10316250000000167"
                    }
                ]
            },
            {
                "account": "0xb54ce26f2e30f64c5b684b141311ce138ab5e00e",
                "assets": [
                    {
                        "address": "0xc02aaa39b223fe8d0a0e5c4f27ead9083c756cc2",
                        "amount": "2.379",
                        "iconUrl": "https://assets.blocksec.com/icon/f1cb2d02c471d545bbc7722daf3277fd852d98e63d118771af7047bd8256c516.png",
                        "isERC1155": false,
                        "isERC721": false,
                        "sign": true,
                        "value": "3815.7494700000001515"
                    },
                    {
                        "address": "0x75c97384ca209f915381755c582ec0e2ce88c1ba",
                        "amount": "142,934,498,210.472492550132352768",
                        "iconUrl": "",
                        "isERC1155": false,
                        "isERC721": false,
                        "sign": false,
                        "value": "3447.23654"
                    }
                ]
            }
        ]
    },
    "profile": {
        "basic_info": {
            "baseFee": "14.9157718",
            "blockNumber": 18129508,
            "callData": "0x5f5755290000000000000000000000000000000000000000000000000000000000000080000000000000000000000000c02aaa39b223fe8d0a0e5c4f27ead9083c756cc200000000000000000000000000000000000000000000000029a2241af62c000000000000000000000000000000000000000000000000000000000000000000c000000000000000000000000000000000000000000000000000000000000000136f6e65496e6368563546656544796e616d6963000000000000000000000000000000000000000000000000000000000000000000000000000000000000000400000000000000000000000000c02aaa39b223fe8d0a0e5c4f27ead9083c756cc200000000000000000000000075c97384ca209f915381755c582ec0e2ce88c1ba0000000000000000000000000000000000000000000000002944e1de90d1600000000000000000000000000000000000000000024010fc717f8c839bc1f562c90000000000000000000000000000000000000000000000000000000000000120000000000000000000000000000000000000000000000000005d423c655aa0000000000000000000000000002acf35c9a3f4c5c3f4c78ef5fb64c3ee82f07c45000000000000000000000000000000000000000000000000000000000000000000000000000000000000000000000000000000000000000000000000000002c812aa3caf0000000000000000000000003208684f96458c540eb08f6f01b9e9afb2b7d4f0000000000000000000000000c02aaa39b223fe8d0a0e5c4f27ead9083c756cc200000000000000000000000075c97384ca209f915381755c582ec0e2ce88c1ba0000000000000000000000003208684f96458c540eb08f6f01b9e9afb2b7d4f000000000000000000000000074de5d4fcbf63e00296fd95d33236b97940166310000000000000000000000000000000000000000000000002944e1de90d1600000000000000000000000000000000000000000024010fc717f8c839bc1f562c80000000000000000000000000000000000000000000000000000000000000004000000000000000000000000000000000000000000000000000000000000014000000000000000000000000000000000000000000000000000000000000001600000000000000000000000000000000000000000000000000000000000000000000000000000000000000000000000000000000000000000000000000000013e00000000000000000000000000000000000000000000000000000000012000a0c9e75c48000000000000000010040000000000000000000000000000000000000000000000000000f200006302a0000000000000000000000000000000000000000072385909235851673c86fc21ee63c1e5800616189d9a6c609ccbdc74fec3853146795efed3c02aaa39b223fe8d0a0e5c4f27ead9083c756cc21111111254eeb25477b68fb85ed929f73a9605820c20c02aaa39b223fe8d0a0e5c4f27ead9083c756cc2b54ce26f2e30f64c5b684b141311ce138ab5e00e6ae4071138002dc6c0b54ce26f2e30f64c5b684b141311ce138ab5e00e1111111254eeb25477b68fb85ed929f73a9605820000000000000000000000000000000000000001cdd8a3685c343234856e66a7c02aaa39b223fe8d0a0e5c4f27ead9083c756cc20000ab4991fe0000000000000000000000000000000000000000000000000084",
            "debugEnable": true,
            "errorInfo": "",
            "eventCount": 13,
            "feeRecipient": "0x95222290dd7278aa3ddd389cc1e1d165cc4bafe5",
            "formatValue": "0",
            "gasLimit": 367061,
            "gasPrice": "15.2157718",
            "gasUsed": 289275,
            "intTxnCount": 29,
            "internalRevert": false,
            "internalRevertMessage": "",
            "isContractCreation": false,
            "isFlashloan": false,
            "maxFee": "26.880365161",
            "nonce": 12,
            "overwritedBlockNumber": -1,
            "priorityFee": "0.3",
            "receiver": "0x881d40237659c251811cec9c364ef91dc08d300c",
            "revertMessage": "",
            "sender": "0xa382ec8e36567899f14ff47e9cfdad046fbe80c7",
            "simulationEnable": true,
            "sourceTxnHash": "0xde83ac0b2dfa730fea9c2a83e81af9351c0402b38e69addd7fc98b36a3636bef",
            "status": true,
            "timestamp": "2023-09-13T19:37:35Z",
            "transactionFee": "0.004401542387445",
            "txnHash": "0xde83ac0b2dfa730fea9c2a83e81af9351c0402b38e69addd7fc98b36a3636bef",
            "txnIndex": 5,
            "type": 2,
            "value": "0"
        },
        "fund_flow": [
            {
                "amount": "3",
                "from": "0xa382ec8e36567899f14ff47e9cfdad046fbe80c7",
                "id": 1,
                "isERC1155": false,
                "isERC721": false,
                "isReverted": false,
                "order": 1,
                "to": "0x74de5d4fcbf63e00296fd95d33236b9794016631",
                "token": "0xc02aaa39b223fe8d0a0e5c4f27ead9083c756cc2"
            },
            {
                "amount": "2.97375",
                "from": "0x74de5d4fcbf63e00296fd95d33236b9794016631",
                "id": 2,
                "isERC1155": false,
                "isERC721": false,
                "isReverted": false,
                "order": 2,
                "to": "0x3208684f96458c540eb08f6f01b9e9afb2b7d4f0",
                "token": "0xc02aaa39b223fe8d0a0e5c4f27ead9083c756cc2"
            },
            {
                "amount": "36,070,827,984.40439206462810805",
                "from": "0x0616189d9a6c609ccbdc74fec3853146795efed3",
                "id": 3,
                "isERC1155": false,
                "isERC721": false,
                "isReverted": false,
                "order": 3,
                "to": "0x1111111254eeb25477b68fb85ed929f73a960582",
                "token": "0x75c97384ca209f915381755c582ec0e2ce88c1ba"
            },
            {
                "amount": "0.59475",
                "from": "0x3208684f96458c540eb08f6f01b9e9afb2b7d4f0",
                "id": 4,
                "isERC1155": false,
                "isERC721": false,
                "isReverted": false,
                "order": 4,
                "to": "0x0616189d9a6c609ccbdc74fec3853146795efed3",
                "token": "0xc02aaa39b223fe8d0a0e5c4f27ead9083c756cc2"
            },
            {
                "amount": "2.379",
                "from": "0x3208684f96458c540eb08f6f01b9e9afb2b7d4f0",
                "id": 5,
                "isERC1155": false,
                "isERC721": false,
                "isReverted": false,
                "order": 5,
                "to": "0xb54ce26f2e30f64c5b684b141311ce138ab5e00e",
                "token": "0xc02aaa39b223fe8d0a0e5c4f27ead9083c756cc2"
            },
            {
                "amount": "142,934,498,210.472492550132352768",
                "from": "0xb54ce26f2e30f64c5b684b141311ce138ab5e00e",
                "id": 6,
                "isERC1155": false,
                "isERC721": false,
                "isReverted": false,
                "order": 6,
                "to": "0x1111111254eeb25477b68fb85ed929f73a960582",
                "token": "0x75c97384ca209f915381755c582ec0e2ce88c1ba"
            },
            {
                "amount": "179,005,326,194.876884614760460819",
                "from": "0x1111111254eeb25477b68fb85ed929f73a960582",
                "id": 7,
                "isERC1155": false,
                "isERC721": false,
                "isReverted": false,
                "order": 7,
                "to": "0x74de5d4fcbf63e00296fd95d33236b9794016631",
                "token": "0x75c97384ca209f915381755c582ec0e2ce88c1ba"
            },
            {
                "amount": "0.02625",
                "from": "0x74de5d4fcbf63e00296fd95d33236b9794016631",
                "id": 8,
                "isERC1155": false,
                "isERC721": false,
                "isReverted": false,
                "order": 8,
                "to": "0x2acf35c9a3f4c5c3f4c78ef5fb64c3ee82f07c45",
                "token": "0xc02aaa39b223fe8d0a0e5c4f27ead9083c756cc2"
            },
            {
                "amount": "179,005,326,194.876884614760460819",
                "from": "0x74de5d4fcbf63e00296fd95d33236b9794016631",
                "id": 9,
                "isERC1155": false,
                "isERC721": false,
                "isReverted": false,
                "order": 9,
                "to": "0xa382ec8e36567899f14ff47e9cfdad046fbe80c7",
                "token": "0x75c97384ca209f915381755c582ec0e2ce88c1ba"
            }
        ],
        "token_infos": [
            {
                "address": "0xeeeeeeeeeeeeeeeeeeeeeeeeeeeeeeeeeeeeeeee",
                "decimals": 18
            },
            {
                "address": "0x75c97384ca209f915381755c582ec0e2ce88c1ba",
                "decimals": 18
            },
            {
                "address": "0xc02aaa39b223fe8d0a0e5c4f27ead9083c756cc2",
                "decimals": 18
            }
        ]
    },
    "address_label": {
        "labels": [
            {
                "address": "0x881d40237659c251811cec9c364ef91dc08d300c",
                "label": "Metamask: Swap Router"
            },
            {
                "address": "0x0000000000000000000000000000000000000004",
                "label": "Precompiled"
            },
            {
                "address": "0x75c97384ca209f915381755c582ec0e2ce88c1ba",
                "label": "Fine: FINE Token"
            },
            {
                "address": "0x0000000000000000000000000000000000000003",
                "label": "Precompiled"
            },
            {
                "address": "0xeeeeeeeeeeeeeeeeeeeeeeeeeeeeeeeeeeeeeeee",
                "label": "Ether"
            },
            {
                "address": "0x1111111254eeb25477b68fb85ed929f73a960582",
                "label": "Aggregation Router V5"
            },
            {
                "address": "0x0000000000000000000000000000000000000001",
                "label": "Precompiled"
            },
            {
                "address": "0x0000000000000000000000000000000000000002",
                "label": "Precompiled"
            },
            {
                "address": "0x74de5d4fcbf63e00296fd95d33236b9794016631",
                "label": "MetaMask: Swaps Spender"
            },
            {
                "address": "0xb54ce26f2e30f64c5b684b141311ce138ab5e00e",
                "label": "Uniswap V2: FINE 44"
            },
            {
                "address": "0x2acf35c9a3f4c5c3f4c78ef5fb64c3ee82f07c45",
                "label": "GnosisSafeProxy_2acf_7c45"
            },
            {
                "address": "0xc02aaa39b223fe8d0a0e5c4f27ead9083c756cc2",
                "label": "Wrapped Ether (WETH)"
            },
            {
                "address": "0x0616189d9a6c609ccbdc74fec3853146795efed3",
                "label": "Uniswap V3: FINE 4"
            }
        ]
    },
    "trace": {
        "accountLabels": null,
        "dataMap": {
            "-1": {
                "invocation": {
                    "address": "0xa382ec8e36567899f14ff47e9cfdad046fbe80c7",
                    "callData": "",
                    "decodedMethod": null,
                    "errorInfo": "",
                    "fromAddress": "",
                    "gasUsed": 0,
                    "id": -1,
                    "methodDecoded": false,
                    "operation": "",
                    "output": "",
                    "revert": false,
                    "revertMessage": "",
                    "selector": "",
                    "status": false,
                    "value": ""
                },
                "nodeType": 0
            },
            "0": {
                "invocation": {
                    "address": "0x881d40237659c251811cec9c364ef91dc08d300c",
                    "callData": "0x0000000000000000000000000000000000000000000000000000000000000080000000000000000000000000c02aaa39b223fe8d0a0e5c4f27ead9083c756cc200000000000000000000000000000000000000000000000029a2241af62c000000000000000000000000000000000000000000000000000000000000000000c000000000000000000000000000000000000000000000000000000000000000136f6e65496e6368563546656544796e616d6963000000000000000000000000000000000000000000000000000000000000000000000000000000000000000400000000000000000000000000c02aaa39b223fe8d0a0e5c4f27ead9083c756cc200000000000000000000000075c97384ca209f915381755c582ec0e2ce88c1ba0000000000000000000000000000000000000000000000002944e1de90d1600000000000000000000000000000000000000000024010fc717f8c839bc1f562c90000000000000000000000000000000000000000000000000000000000000120000000000000000000000000000000000000000000000000005d423c655aa0000000000000000000000000002acf35c9a3f4c5c3f4c78ef5fb64c3ee82f07c45000000000000000000000000000000000000000000000000000000000000000000000000000000000000000000000000000000000000000000000000000002c812aa3caf0000000000000000000000003208684f96458c540eb08f6f01b9e9afb2b7d4f0000000000000000000000000c02aaa39b223fe8d0a0e5c4f27ead9083c756cc200000000000000000000000075c97384ca209f915381755c582ec0e2ce88c1ba0000000000000000000000003208684f96458c540eb08f6f01b9e9afb2b7d4f000000000000000000000000074de5d4fcbf63e00296fd95d33236b97940166310000000000000000000000000000000000000000000000002944e1de90d1600000000000000000000000000000000000000000024010fc717f8c839bc1f562c80000000000000000000000000000000000000000000000000000000000000004000000000000000000000000000000000000000000000000000000000000014000000000000000000000000000000000000000000000000000000000000001600000000000000000000000000000000000000000000000000000000000000000000000000000000000000000000000000000000000000000000000000000013e00000000000000000000000000000000000000000000000000000000012000a0c9e75c48000000000000000010040000000000000000000000000000000000000000000000000000f200006302a0000000000000000000000000000000000000000072385909235851673c86fc21ee63c1e5800616189d9a6c609ccbdc74fec3853146795efed3c02aaa39b223fe8d0a0e5c4f27ead9083c756cc21111111254eeb25477b68fb85ed929f73a9605820c20c02aaa39b223fe8d0a0e5c4f27ead9083c756cc2b54ce26f2e30f64c5b684b141311ce138ab5e00e6ae4071138002dc6c0b54ce26f2e30f64c5b684b141311ce138ab5e00e1111111254eeb25477b68fb85ed929f73a9605820000000000000000000000000000000000000001cdd8a3685c343234856e66a7c02aaa39b223fe8d0a0e5c4f27ead9083c756cc20000ab4991fe0000000000000000000000000000000000000000000000000084",
                    "decodedMethod": {
                        "callParams": [
                            {
                                "name": "aggregatorId",
                                "type": "string",
                                "value": "oneInchV5FeeDynamic"
                            },
                            {
                                "name": "tokenFrom",
                                "type": "address",
                                "value": "0xc02aaa39b223fe8d0a0e5c4f27ead9083c756cc2"
                            },
                            {
                                "name": "amount",
                                "type": "uint256",
                                "value": "3,000,000,000,000,000,000"
                            },
                            {
                                "name": "data",
                                "type": "bytes",
                                "value": "0x000000000000000000000000c02aaa39b223fe8d0a0e5c4f27ead9083c756cc200000000000000000000000075c97384ca209f915381755c582ec0e2ce88c1ba0000000000000000000000000000000000000000000000002944e1de90d1600000000000000000000000000000000000000000024010fc717f8c839bc1f562c90000000000000000000000000000000000000000000000000000000000000120000000000000000000000000000000000000000000000000005d423c655aa0000000000000000000000000002acf35c9a3f4c5c3f4c78ef5fb64c3ee82f07c45000000000000000000000000000000000000000000000000000000000000000000000000000000000000000000000000000000000000000000000000000002c812aa3caf0000000000000000000000003208684f96458c540eb08f6f01b9e9afb2b7d4f0000000000000000000000000c02aaa39b223fe8d0a0e5c4f27ead9083c756cc200000000000000000000000075c97384ca209f915381755c582ec0e2ce88c1ba0000000000000000000000003208684f96458c540eb08f6f01b9e9afb2b7d4f000000000000000000000000074de5d4fcbf63e00296fd95d33236b97940166310000000000000000000000000000000000000000000000002944e1de90d1600000000000000000000000000000000000000000024010fc717f8c839bc1f562c80000000000000000000000000000000000000000000000000000000000000004000000000000000000000000000000000000000000000000000000000000014000000000000000000000000000000000000000000000000000000000000001600000000000000000000000000000000000000000000000000000000000000000000000000000000000000000000000000000000000000000000000000000013e00000000000000000000000000000000000000000000000000000000012000a0c9e75c48000000000000000010040000000000000000000000000000000000000000000000000000f200006302a0000000000000000000000000000000000000000072385909235851673c86fc21ee63c1e5800616189d9a6c609ccbdc74fec3853146795efed3c02aaa39b223fe8d0a0e5c4f27ead9083c756cc21111111254eeb25477b68fb85ed929f73a9605820c20c02aaa39b223fe8d0a0e5c4f27ead9083c756cc2b54ce26f2e30f64c5b684b141311ce138ab5e00e6ae4071138002dc6c0b54ce26f2e30f64c5b684b141311ce138ab5e00e1111111254eeb25477b68fb85ed929f73a9605820000000000000000000000000000000000000001cdd8a3685c343234856e66a7c02aaa39b223fe8d0a0e5c4f27ead9083c756cc20000ab4991fe000000000000000000000000000000000000000000000000"
                            }
                        ],
                        "constructorArguments": "",
                        "name": "swap",
                        "returnParams": [],
                        "signature": "swap(string,address,uint256,bytes)"
                    },
                    "errorInfo": "",
                    "fromAddress": "0xa382ec8e36567899f14ff47e9cfdad046fbe80c7",
                    "gasUsed": 289275,
                    "id": 0,
                    "methodDecoded": true,
                    "operation": "CALL",
                    "output": "",
                    "revert": false,
                    "revertMessage": "",
                    "selector": "0x5f575529",
                    "status": true,
                    "value": "0"
                },
                "nodeType": 0
            },
            "1": {
                "invocation": {
                    "address": "0xc02aaa39b223fe8d0a0e5c4f27ead9083c756cc2",
                    "callData": "0x000000000000000000000000a382ec8e36567899f14ff47e9cfdad046fbe80c700000000000000000000000074de5d4fcbf63e00296fd95d33236b979401663100000000000000000000000000000000000000000000000029a2241af62c0000",
                    "decodedMethod": {
                        "callParams": [
                            {
                                "name": "src",
                                "type": "address",
                                "value": "0xa382ec8e36567899f14ff47e9cfdad046fbe80c7"
                            },
                            {
                                "name": "dst",
                                "type": "address",
                                "value": "0x74de5d4fcbf63e00296fd95d33236b9794016631"
                            },
                            {
                                "decimalAvailable": true,
                                "name": "wad",
                                "type": "uint256",
                                "value": "3,000,000,000,000,000,000"
                            }
                        ],
                        "constructorArguments": "",
                        "name": "transferFrom",
                        "returnParams": [
                            {
                                "name": "",
                                "type": "bool",
                                "value": true
                            }
                        ],
                        "signature": "transferFrom(address,address,uint256)"
                    },
                    "errorInfo": "",
                    "fromAddress": "0x881d40237659c251811cec9c364ef91dc08d300c",
                    "gasUsed": 32125,
                    "id": 1,
                    "methodDecoded": true,
                    "operation": "CALL",
                    "output": "0x0000000000000000000000000000000000000000000000000000000000000001",
                    "revert": false,
                    "revertMessage": "",
                    "selector": "0x23b872dd",
                    "status": true,
                    "value": "0"
                },
                "nodeType": 0
            },
            "10": {
                "invocation": {
                    "address": "0x3208684f96458c540eb08f6f01b9e9afb2b7d4f0",
                    "callData": "0x000000000000000010040000000000000000000000000000000000000000000000000000f200006302a0000000000000000000000000000000000000000072385909235851673c86fc21ee63c1e5800616189d9a6c609ccbdc74fec3853146795efed3c02aaa39b223fe8d0a0e5c4f27ead9083c756cc21111111254eeb25477b68fb85ed929f73a9605820c20c02aaa39b223fe8d0a0e5c4f27ead9083c756cc2b54ce26f2e30f64c5b684b141311ce138ab5e00e6ae4071138002dc6c0b54ce26f2e30f64c5b684b141311ce138ab5e00e1111111254eeb25477b68fb85ed929f73a9605820000000000000000000000000000000000000001cdd8a3685c343234856e66a7c02aaa39b223fe8d0a0e5c4f27ead9083c756cc20000000000000000000000000000000000000000000000002944e1de90d16000",
                    "decodedMethod": null,
                    "errorInfo": "",
                    "fromAddress": "0x3208684f96458c540eb08f6f01b9e9afb2b7d4f0",
                    "gasUsed": 151460,
                    "id": 10,
                    "methodDecoded": false,
                    "operation": "CALL",
                    "output": "0x00000000000000000000000000000000000000024265bc41591cbb41fa557213",
                    "revert": false,
                    "revertMessage": "",
                    "selector": "0xc9e75c48",
                    "status": true,
                    "value": "0"
                },
                "nodeType": 0
            },
            "11": {
                "invocation": {
                    "address": "0x3208684f96458c540eb08f6f01b9e9afb2b7d4f0",
                    "callData": "0x800616189d9a6c609ccbdc74fec3853146795efed3c02aaa39b223fe8d0a0e5c4f27ead9083c756cc21111111254eeb25477b68fb85ed929f73a9605820000000000000000000000000000000000000000000000000840f9f95029e000",
                    "decodedMethod": {
                        "callParams": [],
                        "constructorArguments": "",
                        "name": "swapUniV3",
                        "returnParams": [],
                        "signature": "swapUniV3()"
                    },
                    "errorInfo": "",
                    "fromAddress": "0x3208684f96458c540eb08f6f01b9e9afb2b7d4f0",
                    "gasUsed": 93697,
                    "id": 11,
                    "methodDecoded": true,
                    "operation": "CALL",
                    "output": "0x0000000000000000000000000000000000000000748d16ef33bd62bcef652b12",
                    "revert": false,
                    "revertMessage": "",
                    "selector": "0xee63c1e5",
                    "status": true,
                    "value": "0"
                },
                "nodeType": 0
            },
            "12": {
                "invocation": {
                    "address": "0x0616189d9a6c609ccbdc74fec3853146795efed3",
                    "callData": "0x0000000000000000000000001111111254eeb25477b68fb85ed929f73a96058200000000000000000000000000000000000000000000000000000000000000000000000000000000000000000000000000000000000000000840f9f95029e000000000000000000000000000fffd8963efd1fc6a506488495d951d5263988d2500000000000000000000000000000000000000000000000000000000000000a00000000000000000000000000000000000000000000000000000000000000020000000000000000000000000c02aaa39b223fe8d0a0e5c4f27ead9083c756cc2",
                    "decodedMethod": {
                        "callParams": [
                            {
                                "name": "recipient",
                                "type": "address",
                                "value": "0x1111111254eeb25477b68fb85ed929f73a960582"
                            },
                            {
                                "name": "zeroForOne",
                                "type": "bool",
                                "value": false
                            },
                            {
                                "name": "amountSpecified",
                                "type": "int256",
                                "value": "594,750,000,000,000,000"
                            },
                            {
                                "name": "sqrtPriceLimitX96",
                                "type": "uint160",
                                "value": "1,461,446,703,485,210,103,287,273,052,203,988,822,378,723,970,341"
                            },
                            {
                                "name": "data",
                                "type": "bytes",
                                "value": "0x000000000000000000000000c02aaa39b223fe8d0a0e5c4f27ead9083c756cc2"
                            }
                        ],
                        "constructorArguments": "",
                        "name": "swap",
                        "returnParams": [
                            {
                                "name": "amount0",
                                "type": "int256",
                                "value": "-36,070,827,984,404,392,064,628,108,050"
                            },
                            {
                                "name": "amount1",
                                "type": "int256",
                                "value": "594,750,000,000,000,000"
                            }
                        ],
                        "signature": "swap(address,bool,int256,uint160,bytes)"
                    },
                    "errorInfo": "",
                    "fromAddress": "0x3208684f96458c540eb08f6f01b9e9afb2b7d4f0",
                    "gasUsed": 89851,
                    "id": 12,
                    "methodDecoded": true,
                    "operation": "CALL",
                    "output": "0xffffffffffffffffffffffffffffffffffffffff8b72e910cc429d43109ad4ee0000000000000000000000000000000000000000000000000840f9f95029e000",
                    "revert": false,
                    "revertMessage": "",
                    "selector": "0x128acb08",
                    "status": true,
                    "value": "0"
                },
                "nodeType": 0
            },
            "13": {
                "invocation": {
                    "address": "0x75c97384ca209f915381755c582ec0e2ce88c1ba",
                    "callData": "0x0000000000000000000000001111111254eeb25477b68fb85ed929f73a9605820000000000000000000000000000000000000000748d16ef33bd62bcef652b12",
                    "decodedMethod": {
                        "callParams": [
                            {
                                "name": "recipient",
                                "type": "address",
                                "value": "0x1111111254eeb25477b68fb85ed929f73a960582"
                            },
                            {
                                "decimalAvailable": true,
                                "name": "amount",
                                "type": "uint256",
                                "value": "36,070,827,984,404,392,064,628,108,050"
                            }
                        ],
                        "constructorArguments": "",
                        "name": "transfer",
                        "returnParams": [
                            {
                                "name": "",
                                "type": "bool",
                                "value": true
                            }
                        ],
                        "signature": "transfer(address,uint256)"
                    },
                    "errorInfo": "",
                    "fromAddress": "0x0616189d9a6c609ccbdc74fec3853146795efed3",
                    "gasUsed": 39131,
                    "id": 13,
                    "methodDecoded": true,
                    "operation": "CALL",
                    "output": "0x0000000000000000000000000000000000000000000000000000000000000001",
                    "revert": false,
                    "revertMessage": "",
                    "selector": "0xa9059cbb",
                    "status": true,
                    "value": "0"
                },
                "nodeType": 0
            },
            "14": {
                "event": {
                    "contract": "0x75c97384ca209f915381755c582ec0e2ce88c1ba",
                    "decodedLog": {
                        "name": "Transfer",
                        "params": [
                            {
                                "name": "from",
                                "type": "address",
                                "value": "0x0616189d9a6c609ccbdc74fec3853146795efed3"
                            },
                            {
                                "name": "to",
                                "type": "address",
                                "value": "0x1111111254eeb25477b68fb85ed929f73a960582"
                            },
                            {
                                "decimalAvailable": true,
                                "name": "value",
                                "type": "uint256",
                                "value": "36,070,827,984,404,392,064,628,108,050"
                            }
                        ],
                        "signature": "Transfer(address,address,uint256)"
                    },
                    "id": 14,
                    "logData": "0x0000000000000000000000000000000000000000748d16ef33bd62bcef652b12",
                    "logDecoded": true,
                    "operation": "EVENT",
                    "revert": false,
                    "status": true,
                    "topics": [
                        "0xddf252ad1be2c89b69c2b068fc378daa952ba7f163c4a11628f55a4df523b3ef",
                        "0x0000000000000000000000000616189d9a6c609ccbdc74fec3853146795efed3",
                        "0x0000000000000000000000001111111254eeb25477b68fb85ed929f73a960582"
                    ]
                },
                "nodeType": 1
            },
            "15": {
                "invocation": {
                    "address": "0xc02aaa39b223fe8d0a0e5c4f27ead9083c756cc2",
                    "callData": "0x0000000000000000000000000616189d9a6c609ccbdc74fec3853146795efed3",
                    "decodedMethod": {
                        "callParams": [
                            {
                                "name": "",
                                "type": "address",
                                "value": "0x0616189d9a6c609ccbdc74fec3853146795efed3"
                            }
                        ],
                        "constructorArguments": "",
                        "name": "balanceOf",
                        "returnParams": [
                            {
                                "decimalAvailable": true,
                                "name": "",
                                "type": "uint256",
                                "value": "34,099,703,541,931,398,400"
                            }
                        ],
                        "signature": "balanceOf(address)"
                    },
                    "errorInfo": "",
                    "fromAddress": "0x0616189d9a6c609ccbdc74fec3853146795efed3",
                    "gasUsed": 2534,
                    "id": 15,
                    "methodDecoded": true,
                    "operation": "STATICCALL",
                    "output": "0x000000000000000000000000000000000000000000000001d93a7bb412f35500",
                    "revert": false,
                    "revertMessage": "",
                    "selector": "0x70a08231",
                    "status": true,
                    "value": "0"
                },
                "nodeType": 0
            },
            "16": {
                "invocation": {
                    "address": "0x3208684f96458c540eb08f6f01b9e9afb2b7d4f0",
                    "callData": "0xffffffffffffffffffffffffffffffffffffffff8b72e910cc429d43109ad4ee0000000000000000000000000000000000000000000000000840f9f95029e00000000000000000000000000000000000000000000000000000000000000000600000000000000000000000000000000000000000000000000000000000000020000000000000000000000000c02aaa39b223fe8d0a0e5c4f27ead9083c756cc2",
                    "decodedMethod": {
                        "callParams": [
                            {
                                "name": "amount0Delta",
                                "type": "int256",
                                "value": "-36,070,827,984,404,392,064,628,108,050"
                            },
                            {
                                "name": "amount1Delta",
                                "type": "int256",
                                "value": "594,750,000,000,000,000"
                            },
                            {
                                "name": "data",
                                "type": "bytes",
                                "value": "0x000000000000000000000000c02aaa39b223fe8d0a0e5c4f27ead9083c756cc2"
                            }
                        ],
                        "constructorArguments": "",
                        "name": "uniswapV3SwapCallback",
                        "returnParams": [],
                        "signature": "uniswapV3SwapCallback(int256,int256,bytes)"
                    },
                    "errorInfo": "",
                    "fromAddress": "0x0616189d9a6c609ccbdc74fec3853146795efed3",
                    "gasUsed": 7436,
                    "id": 16,
                    "methodDecoded": true,
                    "operation": "CALL",
                    "output": "",
                    "revert": false,
                    "revertMessage": "",
                    "selector": "0xfa461e33",
                    "status": true,
                    "value": "0"
                },
                "nodeType": 0
            },
            "17": {
                "invocation": {
                    "address": "0xc02aaa39b223fe8d0a0e5c4f27ead9083c756cc2",
                    "callData": "0x0000000000000000000000000616189d9a6c609ccbdc74fec3853146795efed30000000000000000000000000000000000000000000000000840f9f95029e000",
                    "decodedMethod": {
                        "callParams": [
                            {
                                "name": "dst",
                                "type": "address",
                                "value": "0x0616189d9a6c609ccbdc74fec3853146795efed3"
                            },
                            {
                                "decimalAvailable": true,
                                "name": "wad",
                                "type": "uint256",
                                "value": "594,750,000,000,000,000"
                            }
                        ],
                        "constructorArguments": "",
                        "name": "transfer",
                        "returnParams": [
                            {
                                "name": "",
                                "type": "bool",
                                "value": true
                            }
                        ],
                        "signature": "transfer(address,uint256)"
                    },
                    "errorInfo": "",
                    "fromAddress": "0x3208684f96458c540eb08f6f01b9e9afb2b7d4f0",
                    "gasUsed": 6062,
                    "id": 17,
                    "methodDecoded": true,
                    "operation": "CALL",
                    "output": "0x0000000000000000000000000000000000000000000000000000000000000001",
                    "revert": false,
                    "revertMessage": "",
                    "selector": "0xa9059cbb",
                    "status": true,
                    "value": "0"
                },
                "nodeType": 0
            },
            "18": {
                "event": {
                    "contract": "0xc02aaa39b223fe8d0a0e5c4f27ead9083c756cc2",
                    "decodedLog": {
                        "name": "Transfer",
                        "params": [
                            {
                                "name": "src",
                                "type": "address",
                                "value": "0x3208684f96458c540eb08f6f01b9e9afb2b7d4f0"
                            },
                            {
                                "name": "dst",
                                "type": "address",
                                "value": "0x0616189d9a6c609ccbdc74fec3853146795efed3"
                            },
                            {
                                "decimalAvailable": true,
                                "name": "wad",
                                "type": "uint256",
                                "value": "594,750,000,000,000,000"
                            }
                        ],
                        "signature": "Transfer(address,address,uint256)"
                    },
                    "id": 18,
                    "logData": "0x0000000000000000000000000000000000000000000000000840f9f95029e000",
                    "logDecoded": true,
                    "operation": "EVENT",
                    "revert": false,
                    "status": true,
                    "topics": [
                        "0xddf252ad1be2c89b69c2b068fc378daa952ba7f163c4a11628f55a4df523b3ef",
                        "0x0000000000000000000000003208684f96458c540eb08f6f01b9e9afb2b7d4f0",
                        "0x0000000000000000000000000616189d9a6c609ccbdc74fec3853146795efed3"
                    ]
                },
                "nodeType": 1
            },
            "19": {
                "invocation": {
                    "address": "0xc02aaa39b223fe8d0a0e5c4f27ead9083c756cc2",
                    "callData": "0x0000000000000000000000000616189d9a6c609ccbdc74fec3853146795efed3",
                    "decodedMethod": {
                        "callParams": [
                            {
                                "name": "",
                                "type": "address",
                                "value": "0x0616189d9a6c609ccbdc74fec3853146795efed3"
                            }
                        ],
                        "constructorArguments": "",
                        "name": "balanceOf",
                        "returnParams": [
                            {
                                "decimalAvailable": true,
                                "name": "",
                                "type": "uint256",
                                "value": "34,694,453,541,931,398,400"
                            }
                        ],
                        "signature": "balanceOf(address)"
                    },
                    "errorInfo": "",
                    "fromAddress": "0x0616189d9a6c609ccbdc74fec3853146795efed3",
                    "gasUsed": 534,
                    "id": 19,
                    "methodDecoded": true,
                    "operation": "STATICCALL",
                    "output": "0x000000000000000000000000000000000000000000000001e17b75ad631d3500",
                    "revert": false,
                    "revertMessage": "",
                    "selector": "0x70a08231",
                    "status": true,
                    "value": "0"
                },
                "nodeType": 0
            },
            "2": {
                "event": {
                    "contract": "0xc02aaa39b223fe8d0a0e5c4f27ead9083c756cc2",
                    "decodedLog": {
                        "name": "Transfer",
                        "params": [
                            {
                                "name": "src",
                                "type": "address",
                                "value": "0xa382ec8e36567899f14ff47e9cfdad046fbe80c7"
                            },
                            {
                                "name": "dst",
                                "type": "address",
                                "value": "0x74de5d4fcbf63e00296fd95d33236b9794016631"
                            },
                            {
                                "decimalAvailable": true,
                                "name": "wad",
                                "type": "uint256",
                                "value": "3,000,000,000,000,000,000"
                            }
                        ],
                        "signature": "Transfer(address,address,uint256)"
                    },
                    "id": 2,
                    "logData": "0x00000000000000000000000000000000000000000000000029a2241af62c0000",
                    "logDecoded": true,
                    "operation": "EVENT",
                    "revert": false,
                    "status": true,
                    "topics": [
                        "0xddf252ad1be2c89b69c2b068fc378daa952ba7f163c4a11628f55a4df523b3ef",
                        "0x000000000000000000000000a382ec8e36567899f14ff47e9cfdad046fbe80c7",
                        "0x00000000000000000000000074de5d4fcbf63e00296fd95d33236b9794016631"
                    ]
                },
                "nodeType": 1
            },
            "20": {
                "event": {
                    "contract": "0x0616189d9a6c609ccbdc74fec3853146795efed3",
                    "decodedLog": {
                        "name": "Swap",
                        "params": [
                            {
                                "name": "sender",
                                "type": "address",
                                "value": "0x3208684f96458c540eb08f6f01b9e9afb2b7d4f0"
                            },
                            {
                                "name": "recipient",
                                "type": "address",
                                "value": "0x1111111254eeb25477b68fb85ed929f73a960582"
                            },
                            {
                                "name": "amount0",
                                "type": "int256",
                                "value": "-36,070,827,984,404,392,064,628,108,050"
                            },
                            {
                                "name": "amount1",
                                "type": "int256",
                                "value": "594,750,000,000,000,000"
                            },
                            {
                                "name": "sqrtPriceX96",
                                "type": "uint160",
                                "value": "321,126,913,315,348,462,213,512"
                            },
                            {
                                "name": "liquidity",
                                "type": "uint128",
                                "value": "22,760,982,668,954,163,401,188,485"
                            },
                            {
                                "name": "tick",
                                "type": "int24",
                                "value": "-248,333"
                            }
                        ],
                        "signature": "Swap(address,address,int256,int256,uint160,uint128,int24)"
                    },
                    "id": 20,
                    "logData": "0xffffffffffffffffffffffffffffffffffffffff8b72e910cc429d43109ad4ee0000000000000000000000000000000000000000000000000840f9f95029e00000000000000000000000000000000000000000000000440053299100fad8998800000000000000000000000000000000000000000012d3d357c6ef414b23e485fffffffffffffffffffffffffffffffffffffffffffffffffffffffffffc35f3",
                    "logDecoded": true,
                    "operation": "EVENT",
                    "revert": false,
                    "status": true,
                    "topics": [
                        "0xc42079f94a6350d7e6235f29174924f928cc2ac818eb64fed8004e115fbcca67",
                        "0x0000000000000000000000003208684f96458c540eb08f6f01b9e9afb2b7d4f0",
                        "0x0000000000000000000000001111111254eeb25477b68fb85ed929f73a960582"
                    ]
                },
                "nodeType": 1
            },
            "21": {
                "invocation": {
                    "address": "0xc02aaa39b223fe8d0a0e5c4f27ead9083c756cc2",
                    "callData": "0x000000000000000000000000b54ce26f2e30f64c5b684b141311ce138ab5e00e0000000000000000000000000000000000000000000000002103e7e540a78000",
                    "decodedMethod": {
                        "callParams": [
                            {
                                "name": "dst",
                                "type": "address",
                                "value": "0xb54ce26f2e30f64c5b684b141311ce138ab5e00e"
                            },
                            {
                                "decimalAvailable": true,
                                "name": "wad",
                                "type": "uint256",
                                "value": "2,379,000,000,000,000,000"
                            }
                        ],
                        "constructorArguments": "",
                        "name": "transfer",
                        "returnParams": [
                            {
                                "name": "",
                                "type": "bool",
                                "value": true
                            }
                        ],
                        "signature": "transfer(address,uint256)"
                    },
                    "errorInfo": "",
                    "fromAddress": "0x3208684f96458c540eb08f6f01b9e9afb2b7d4f0",
                    "gasUsed": 8062,
                    "id": 21,
                    "methodDecoded": true,
                    "operation": "CALL",
                    "output": "0x0000000000000000000000000000000000000000000000000000000000000001",
                    "revert": false,
                    "revertMessage": "",
                    "selector": "0xa9059cbb",
                    "status": true,
                    "value": "0"
                },
                "nodeType": 0
            },
            "22": {
                "event": {
                    "contract": "0xc02aaa39b223fe8d0a0e5c4f27ead9083c756cc2",
                    "decodedLog": {
                        "name": "Transfer",
                        "params": [
                            {
                                "name": "src",
                                "type": "address",
                                "value": "0x3208684f96458c540eb08f6f01b9e9afb2b7d4f0"
                            },
                            {
                                "name": "dst",
                                "type": "address",
                                "value": "0xb54ce26f2e30f64c5b684b141311ce138ab5e00e"
                            },
                            {
                                "decimalAvailable": true,
                                "name": "wad",
                                "type": "uint256",
                                "value": "2,379,000,000,000,000,000"
                            }
                        ],
                        "signature": "Transfer(address,address,uint256)"
                    },
                    "id": 22,
                    "logData": "0x0000000000000000000000000000000000000000000000002103e7e540a78000",
                    "logDecoded": true,
                    "operation": "EVENT",
                    "revert": false,
                    "status": true,
                    "topics": [
                        "0xddf252ad1be2c89b69c2b068fc378daa952ba7f163c4a11628f55a4df523b3ef",
                        "0x0000000000000000000000003208684f96458c540eb08f6f01b9e9afb2b7d4f0",
                        "0x000000000000000000000000b54ce26f2e30f64c5b684b141311ce138ab5e00e"
                    ]
                },
                "nodeType": 1
            },
            "23": {
                "invocation": {
                    "address": "0x3208684f96458c540eb08f6f01b9e9afb2b7d4f0",
                    "callData": "0x38002dc6c0b54ce26f2e30f64c5b684b141311ce138ab5e00e1111111254eeb25477b68fb85ed929f73a9605820000000000000000000000000000000000000001cdd8a3685c343234856e66a7c02aaa39b223fe8d0a0e5c4f27ead9083c756cc2",
                    "decodedMethod": {
                        "callParams": [],
                        "constructorArguments": "",
                        "name": "swapUniV2",
                        "returnParams": [],
                        "signature": "swapUniV2()"
                    },
                    "errorInfo": "",
                    "fromAddress": "0x3208684f96458c540eb08f6f01b9e9afb2b7d4f0",
                    "gasUsed": 45800,
                    "id": 23,
                    "methodDecoded": true,
                    "operation": "CALL",
                    "output": "0x0000000000000000000000000000000000000001cdd8a552255f58850af04701",
                    "revert": false,
                    "revertMessage": "",
                    "selector": "0x6ae40711",
                    "status": true,
                    "value": "0"
                },
                "nodeType": 0
            },
            "24": {
                "invocation": {
                    "address": "0xb54ce26f2e30f64c5b684b141311ce138ab5e00e",
                    "callData": "0x",
                    "decodedMethod": {
                        "callParams": [],
                        "constructorArguments": "",
                        "name": "getReserves",
                        "returnParams": [
                            {
                                "name": "_reserve0",
                                "type": "uint112",
                                "value": "9,748,104,272,650,371,560,481,600,057,526"
                            },
                            {
                                "name": "_reserve1",
                                "type": "uint112",
                                "value": "159,388,720,581,405,064,422"
                            },
                            {
                                "name": "_blockTimestampLast",
                                "type": "uint32",
                                "value": "1,694,633,855"
                            }
                        ],
                        "signature": "getReserves()"
                    },
                    "errorInfo": "",
                    "fromAddress": "0x3208684f96458c540eb08f6f01b9e9afb2b7d4f0",
                    "gasUsed": 2504,
                    "id": 24,
                    "methodDecoded": true,
                    "operation": "STATICCALL",
                    "output": "0x000000000000000000000000000000000000007b09d2dd0d2356e2692c4030b6000000000000000000000000000000000000000000000008a3f67ce422a43ce60000000000000000000000000000000000000000000000000000000065020f7f",
                    "revert": false,
                    "revertMessage": "",
                    "selector": "0x0902f1ac",
                    "status": true,
                    "value": "0"
                },
                "nodeType": 0
            },
            "25": {
                "invocation": {
                    "address": "0xc02aaa39b223fe8d0a0e5c4f27ead9083c756cc2",
                    "callData": "0x000000000000000000000000b54ce26f2e30f64c5b684b141311ce138ab5e00e",
                    "decodedMethod": {
                        "callParams": [
                            {
                                "name": "",
                                "type": "address",
                                "value": "0xb54ce26f2e30f64c5b684b141311ce138ab5e00e"
                            }
                        ],
                        "constructorArguments": "",
                        "name": "balanceOf",
                        "returnParams": [
                            {
                                "decimalAvailable": true,
                                "name": "",
                                "type": "uint256",
                                "value": "161,767,720,581,405,064,422"
                            }
                        ],
                        "signature": "balanceOf(address)"
                    },
                    "errorInfo": "",
                    "fromAddress": "0x3208684f96458c540eb08f6f01b9e9afb2b7d4f0",
                    "gasUsed": 534,
                    "id": 25,
                    "methodDecoded": true,
                    "operation": "STATICCALL",
                    "output": "0x000000000000000000000000000000000000000000000008c4fa64c9634bbce6",
                    "revert": false,
                    "revertMessage": "",
                    "selector": "0x70a08231",
                    "status": true,
                    "value": "0"
                },
                "nodeType": 0
            },
            "26": {
                "invocation": {
                    "address": "0xb54ce26f2e30f64c5b684b141311ce138ab5e00e",
                    "callData": "0x0000000000000000000000000000000000000001cdd8a552255f58850af0470100000000000000000000000000000000000000000000000000000000000000000000000000000000000000001111111254eeb25477b68fb85ed929f73a96058200000000000000000000000000000000000000000000000000000000000000800000000000000000000000000000000000000000000000000000000000000000",
                    "decodedMethod": {
                        "callParams": [
                            {
                                "name": "amount0Out",
                                "type": "uint256",
                                "value": "142,934,498,210,472,492,550,132,352,769"
                            },
                            {
                                "name": "amount1Out",
                                "type": "uint256",
                                "value": "0"
                            },
                            {
                                "name": "to",
                                "type": "address",
                                "value": "0x1111111254eeb25477b68fb85ed929f73a960582"
                            },
                            {
                                "name": "data",
                                "type": "bytes",
                                "value": "0x"
                            }
                        ],
                        "constructorArguments": "",
                        "name": "swap",
                        "returnParams": [],
                        "signature": "swap(uint256,uint256,address,bytes)"
                    },
                    "errorInfo": "",
                    "fromAddress": "0x3208684f96458c540eb08f6f01b9e9afb2b7d4f0",
                    "gasUsed": 38708,
                    "id": 26,
                    "methodDecoded": true,
                    "operation": "CALL",
                    "output": "",
                    "revert": false,
                    "revertMessage": "",
                    "selector": "0x022c0d9f",
                    "status": true,
                    "value": "0"
                },
                "nodeType": 0
            },
            "27": {
                "invocation": {
                    "address": "0x75c97384ca209f915381755c582ec0e2ce88c1ba",
                    "callData": "0x0000000000000000000000001111111254eeb25477b68fb85ed929f73a9605820000000000000000000000000000000000000001cdd8a552255f58850af04701",
                    "decodedMethod": {
                        "callParams": [
                            {
                                "name": "recipient",
                                "type": "address",
                                "value": "0x1111111254eeb25477b68fb85ed929f73a960582"
                            },
                            {
                                "decimalAvailable": true,
                                "name": "amount",
                                "type": "uint256",
                                "value": "142,934,498,210,472,492,550,132,352,769"
                            }
                        ],
                        "constructorArguments": "",
                        "name": "transfer",
                        "returnParams": [
                            {
                                "name": "",
                                "type": "bool",
                                "value": true
                            }
                        ],
                        "signature": "transfer(address,uint256)"
                    },
                    "errorInfo": "",
                    "fromAddress": "0xb54ce26f2e30f64c5b684b141311ce138ab5e00e",
                    "gasUsed": 16336,
                    "id": 27,
                    "methodDecoded": true,
                    "operation": "CALL",
                    "output": "0x0000000000000000000000000000000000000000000000000000000000000001",
                    "revert": false,
                    "revertMessage": "",
                    "selector": "0xa9059cbb",
                    "status": true,
                    "value": "0"
                },
                "nodeType": 0
            },
            "28": {
                "event": {
                    "contract": "0x75c97384ca209f915381755c582ec0e2ce88c1ba",
                    "decodedLog": {
                        "name": "Transfer",
                        "params": [
                            {
                                "name": "from",
                                "type": "address",
                                "value": "0xb54ce26f2e30f64c5b684b141311ce138ab5e00e"
                            },
                            {
                                "name": "to",
                                "type": "address",
                                "value": "0x1111111254eeb25477b68fb85ed929f73a960582"
                            },
                            {
                                "decimalAvailable": true,
                                "name": "value",
                                "type": "uint256",
                                "value": "142,934,498,210,472,492,550,132,352,769"
                            }
                        ],
                        "signature": "Transfer(address,address,uint256)"
                    },
                    "id": 28,
                    "logData": "0x0000000000000000000000000000000000000001cdd8a552255f58850af04701",
                    "logDecoded": true,
                    "operation": "EVENT",
                    "revert": false,
                    "status": true,
                    "topics": [
                        "0xddf252ad1be2c89b69c2b068fc378daa952ba7f163c4a11628f55a4df523b3ef",
                        "0x000000000000000000000000b54ce26f2e30f64c5b684b141311ce138ab5e00e",
                        "0x0000000000000000000000001111111254eeb25477b68fb85ed929f73a960582"
                    ]
                },
                "nodeType": 1
            },
            "29": {
                "invocation": {
                    "address": "0x75c97384ca209f915381755c582ec0e2ce88c1ba",
                    "callData": "0x000000000000000000000000b54ce26f2e30f64c5b684b141311ce138ab5e00e",
                    "decodedMethod": {
                        "callParams": [
                            {
                                "name": "account",
                                "type": "address",
                                "value": "0xb54ce26f2e30f64c5b684b141311ce138ab5e00e"
                            }
                        ],
                        "constructorArguments": "",
                        "name": "balanceOf",
                        "returnParams": [
                            {
                                "decimalAvailable": true,
                                "name": "",
                                "type": "uint256",
                                "value": "9,605,169,774,439,899,067,931,467,704,757"
                            }
                        ],
                        "signature": "balanceOf(address)"
                    },
                    "errorInfo": "",
                    "fromAddress": "0xb54ce26f2e30f64c5b684b141311ce138ab5e00e",
                    "gasUsed": 931,
                    "id": 29,
                    "methodDecoded": true,
                    "operation": "STATICCALL",
                    "output": "0x00000000000000000000000000000000000000793bfa37bafdf789e4214fe9b5",
                    "revert": false,
                    "revertMessage": "",
                    "selector": "0x70a08231",
                    "status": true,
                    "value": "0"
                },
                "nodeType": 0
            },
            "3": {
                "invocation": {
                    "address": "0x74de5d4fcbf63e00296fd95d33236b9794016631",
                    "callData": "0x0000000000000000000000007cdf68ce9a05413cbb76cb7f80eaf415a826e3130000000000000000000000000000000000000000000000000000000000000040000000000000000000000000000000000000000000000000000000000000042492f5f037000000000000000000000000a382ec8e36567899f14ff47e9cfdad046fbe80c7000000000000000000000000c02aaa39b223fe8d0a0e5c4f27ead9083c756cc200000000000000000000000075c97384ca209f915381755c582ec0e2ce88c1ba0000000000000000000000000000000000000000000000002944e1de90d1600000000000000000000000000000000000000000024010fc717f8c839bc1f562c90000000000000000000000000000000000000000000000000000000000000120000000000000000000000000000000000000000000000000005d423c655aa0000000000000000000000000002acf35c9a3f4c5c3f4c78ef5fb64c3ee82f07c45000000000000000000000000000000000000000000000000000000000000000000000000000000000000000000000000000000000000000000000000000002c812aa3caf0000000000000000000000003208684f96458c540eb08f6f01b9e9afb2b7d4f0000000000000000000000000c02aaa39b223fe8d0a0e5c4f27ead9083c756cc200000000000000000000000075c97384ca209f915381755c582ec0e2ce88c1ba0000000000000000000000003208684f96458c540eb08f6f01b9e9afb2b7d4f000000000000000000000000074de5d4fcbf63e00296fd95d33236b97940166310000000000000000000000000000000000000000000000002944e1de90d1600000000000000000000000000000000000000000024010fc717f8c839bc1f562c80000000000000000000000000000000000000000000000000000000000000004000000000000000000000000000000000000000000000000000000000000014000000000000000000000000000000000000000000000000000000000000001600000000000000000000000000000000000000000000000000000000000000000000000000000000000000000000000000000000000000000000000000000013e00000000000000000000000000000000000000000000000000000000012000a0c9e75c48000000000000000010040000000000000000000000000000000000000000000000000000f200006302a0000000000000000000000000000000000000000072385909235851673c86fc21ee63c1e5800616189d9a6c609ccbdc74fec3853146795efed3c02aaa39b223fe8d0a0e5c4f27ead9083c756cc21111111254eeb25477b68fb85ed929f73a9605820c20c02aaa39b223fe8d0a0e5c4f27ead9083c756cc2b54ce26f2e30f64c5b684b141311ce138ab5e00e6ae4071138002dc6c0b54ce26f2e30f64c5b684b141311ce138ab5e00e1111111254eeb25477b68fb85ed929f73a9605820000000000000000000000000000000000000001cdd8a3685c343234856e66a7c02aaa39b223fe8d0a0e5c4f27ead9083c756cc20000ab4991fe00000000000000000000000000000000000000000000000000000000000000000000000000000000000000000000000000000000",
                    "decodedMethod": {
                        "callParams": [
                            {
                                "name": "adapter",
                                "type": "address",
                                "value": "0x7cdf68ce9a05413cbb76cb7f80eaf415a826e313"
                            },
                            {
                                "name": "data",
                                "type": "bytes",
                                "value": "0x92f5f037000000000000000000000000a382ec8e36567899f14ff47e9cfdad046fbe80c7000000000000000000000000c02aaa39b223fe8d0a0e5c4f27ead9083c756cc200000000000000000000000075c97384ca209f915381755c582ec0e2ce88c1ba0000000000000000000000000000000000000000000000002944e1de90d1600000000000000000000000000000000000000000024010fc717f8c839bc1f562c90000000000000000000000000000000000000000000000000000000000000120000000000000000000000000000000000000000000000000005d423c655aa0000000000000000000000000002acf35c9a3f4c5c3f4c78ef5fb64c3ee82f07c45000000000000000000000000000000000000000000000000000000000000000000000000000000000000000000000000000000000000000000000000000002c812aa3caf0000000000000000000000003208684f96458c540eb08f6f01b9e9afb2b7d4f0000000000000000000000000c02aaa39b223fe8d0a0e5c4f27ead9083c756cc200000000000000000000000075c97384ca209f915381755c582ec0e2ce88c1ba0000000000000000000000003208684f96458c540eb08f6f01b9e9afb2b7d4f000000000000000000000000074de5d4fcbf63e00296fd95d33236b97940166310000000000000000000000000000000000000000000000002944e1de90d1600000000000000000000000000000000000000000024010fc717f8c839bc1f562c80000000000000000000000000000000000000000000000000000000000000004000000000000000000000000000000000000000000000000000000000000014000000000000000000000000000000000000000000000000000000000000001600000000000000000000000000000000000000000000000000000000000000000000000000000000000000000000000000000000000000000000000000000013e00000000000000000000000000000000000000000000000000000000012000a0c9e75c48000000000000000010040000000000000000000000000000000000000000000000000000f200006302a0000000000000000000000000000000000000000072385909235851673c86fc21ee63c1e5800616189d9a6c609ccbdc74fec3853146795efed3c02aaa39b223fe8d0a0e5c4f27ead9083c756cc21111111254eeb25477b68fb85ed929f73a9605820c20c02aaa39b223fe8d0a0e5c4f27ead9083c756cc2b54ce26f2e30f64c5b684b141311ce138ab5e00e6ae4071138002dc6c0b54ce26f2e30f64c5b684b141311ce138ab5e00e1111111254eeb25477b68fb85ed929f73a9605820000000000000000000000000000000000000001cdd8a3685c343234856e66a7c02aaa39b223fe8d0a0e5c4f27ead9083c756cc20000ab4991fe000000000000000000000000000000000000000000000000"
                            }
                        ],
                        "constructorArguments": "",
                        "name": "swap",
                        "returnParams": [],
                        "signature": "swap(address,bytes)"
                    },
                    "errorInfo": "",
                    "fromAddress": "0x881d40237659c251811cec9c364ef91dc08d300c",
                    "gasUsed": 251980,
                    "id": 3,
                    "methodDecoded": true,
                    "operation": "CALL",
                    "output": "",
                    "revert": false,
                    "revertMessage": "",
                    "selector": "0xe3547335",
                    "status": true,
                    "value": "0"
                },
                "nodeType": 0
            },
            "30": {
                "invocation": {
                    "address": "0xc02aaa39b223fe8d0a0e5c4f27ead9083c756cc2",
                    "callData": "0x000000000000000000000000b54ce26f2e30f64c5b684b141311ce138ab5e00e",
                    "decodedMethod": {
                        "callParams": [
                            {
                                "name": "",
                                "type": "address",
                                "value": "0xb54ce26f2e30f64c5b684b141311ce138ab5e00e"
                            }
                        ],
                        "constructorArguments": "",
                        "name": "balanceOf",
                        "returnParams": [
                            {
                                "decimalAvailable": true,
                                "name": "",
                                "type": "uint256",
                                "value": "161,767,720,581,405,064,422"
                            }
                        ],
                        "signature": "balanceOf(address)"
                    },
                    "errorInfo": "",
                    "fromAddress": "0xb54ce26f2e30f64c5b684b141311ce138ab5e00e",
                    "gasUsed": 534,
                    "id": 30,
                    "methodDecoded": true,
                    "operation": "STATICCALL",
                    "output": "0x000000000000000000000000000000000000000000000008c4fa64c9634bbce6",
                    "revert": false,
                    "revertMessage": "",
                    "selector": "0x70a08231",
                    "status": true,
                    "value": "0"
                },
                "nodeType": 0
            },
            "31": {
                "event": {
                    "contract": "0xb54ce26f2e30f64c5b684b141311ce138ab5e00e",
                    "decodedLog": {
                        "name": "Sync",
                        "params": [
                            {
                                "name": "reserve0",
                                "type": "uint112",
                                "value": "9,605,169,774,439,899,067,931,467,704,757"
                            },
                            {
                                "name": "reserve1",
                                "type": "uint112",
                                "value": "161,767,720,581,405,064,422"
                            }
                        ],
                        "signature": "Sync(uint112,uint112)"
                    },
                    "id": 31,
                    "logData": "0x00000000000000000000000000000000000000793bfa37bafdf789e4214fe9b5000000000000000000000000000000000000000000000008c4fa64c9634bbce6",
                    "logDecoded": true,
                    "operation": "EVENT",
                    "revert": false,
                    "status": true,
                    "topics": [
                        "0x1c411e9a96e071241c2f21f7726b17ae89e3cab4c78be50e062b03a9fffbbad1"
                    ]
                },
                "nodeType": 1
            },
            "32": {
                "event": {
                    "contract": "0xb54ce26f2e30f64c5b684b141311ce138ab5e00e",
                    "decodedLog": {
                        "name": "Swap",
                        "params": [
                            {
                                "name": "sender",
                                "type": "address",
                                "value": "0x3208684f96458c540eb08f6f01b9e9afb2b7d4f0"
                            },
                            {
                                "name": "to",
                                "type": "address",
                                "value": "0x1111111254eeb25477b68fb85ed929f73a960582"
                            },
                            {
                                "name": "amount0In",
                                "type": "uint256",
                                "value": "0"
                            },
                            {
                                "name": "amount1In",
                                "type": "uint256",
                                "value": "2,379,000,000,000,000,000"
                            },
                            {
                                "name": "amount0Out",
                                "type": "uint256",
                                "value": "142,934,498,210,472,492,550,132,352,769"
                            },
                            {
                                "name": "amount1Out",
                                "type": "uint256",
                                "value": "0"
                            }
                        ],
                        "signature": "Swap(address,uint256,uint256,uint256,uint256,address)"
                    },
                    "id": 32,
                    "logData": "0x00000000000000000000000000000000000000000000000000000000000000000000000000000000000000000000000000000000000000002103e7e540a780000000000000000000000000000000000000000001cdd8a552255f58850af047010000000000000000000000000000000000000000000000000000000000000000",
                    "logDecoded": true,
                    "operation": "EVENT",
                    "revert": false,
                    "status": true,
                    "topics": [
                        "0xd78ad95fa46c994b6551d0da85fc275fe613ce37657fb8d5e3d130840159d822",
                        "0x0000000000000000000000003208684f96458c540eb08f6f01b9e9afb2b7d4f0",
                        "0x0000000000000000000000001111111254eeb25477b68fb85ed929f73a960582"
                    ]
                },
                "nodeType": 1
            },
            "33": {
                "invocation": {
                    "address": "0x75c97384ca209f915381755c582ec0e2ce88c1ba",
                    "callData": "0x0000000000000000000000001111111254eeb25477b68fb85ed929f73a960582",
                    "decodedMethod": {
                        "callParams": [
                            {
                                "name": "account",
                                "type": "address",
                                "value": "0x1111111254eeb25477b68fb85ed929f73a960582"
                            }
                        ],
                        "constructorArguments": "",
                        "name": "balanceOf",
                        "returnParams": [
                            {
                                "decimalAvailable": true,
                                "name": "",
                                "type": "uint256",
                                "value": "179,005,326,194,876,884,614,760,460,820"
                            }
                        ],
                        "signature": "balanceOf(address)"
                    },
                    "errorInfo": "",
                    "fromAddress": "0x1111111254eeb25477b68fb85ed929f73a960582",
                    "gasUsed": 931,
                    "id": 33,
                    "methodDecoded": true,
                    "operation": "STATICCALL",
                    "output": "0x00000000000000000000000000000000000000024265bc41591cbb41fa557214",
                    "revert": false,
                    "revertMessage": "",
                    "selector": "0x70a08231",
                    "status": true,
                    "value": "0"
                },
                "nodeType": 0
            },
            "34": {
                "invocation": {
                    "address": "0x75c97384ca209f915381755c582ec0e2ce88c1ba",
                    "callData": "0x00000000000000000000000074de5d4fcbf63e00296fd95d33236b979401663100000000000000000000000000000000000000024265bc41591cbb41fa557213",
                    "decodedMethod": {
                        "callParams": [
                            {
                                "name": "recipient",
                                "type": "address",
                                "value": "0x74de5d4fcbf63e00296fd95d33236b9794016631"
                            },
                            {
                                "decimalAvailable": true,
                                "name": "amount",
                                "type": "uint256",
                                "value": "179,005,326,194,876,884,614,760,460,819"
                            }
                        ],
                        "constructorArguments": "",
                        "name": "transfer",
                        "returnParams": [
                            {
                                "name": "",
                                "type": "bool",
                                "value": true
                            }
                        ],
                        "signature": "transfer(address,uint256)"
                    },
                    "errorInfo": "",
                    "fromAddress": "0x1111111254eeb25477b68fb85ed929f73a960582",
                    "gasUsed": 35431,
                    "id": 34,
                    "methodDecoded": true,
                    "operation": "CALL",
                    "output": "0x0000000000000000000000000000000000000000000000000000000000000001",
                    "revert": false,
                    "revertMessage": "",
                    "selector": "0xa9059cbb",
                    "status": true,
                    "value": "0"
                },
                "nodeType": 0
            },
            "35": {
                "event": {
                    "contract": "0x75c97384ca209f915381755c582ec0e2ce88c1ba",
                    "decodedLog": {
                        "name": "Transfer",
                        "params": [
                            {
                                "name": "from",
                                "type": "address",
                                "value": "0x1111111254eeb25477b68fb85ed929f73a960582"
                            },
                            {
                                "name": "to",
                                "type": "address",
                                "value": "0x74de5d4fcbf63e00296fd95d33236b9794016631"
                            },
                            {
                                "decimalAvailable": true,
                                "name": "value",
                                "type": "uint256",
                                "value": "179,005,326,194,876,884,614,760,460,819"
                            }
                        ],
                        "signature": "Transfer(address,address,uint256)"
                    },
                    "id": 35,
                    "logData": "0x00000000000000000000000000000000000000024265bc41591cbb41fa557213",
                    "logDecoded": true,
                    "operation": "EVENT",
                    "revert": false,
                    "status": true,
                    "topics": [
                        "0xddf252ad1be2c89b69c2b068fc378daa952ba7f163c4a11628f55a4df523b3ef",
                        "0x0000000000000000000000001111111254eeb25477b68fb85ed929f73a960582",
                        "0x00000000000000000000000074de5d4fcbf63e00296fd95d33236b9794016631"
                    ]
                },
                "nodeType": 1
            },
            "36": {
                "invocation": {
                    "address": "0xc02aaa39b223fe8d0a0e5c4f27ead9083c756cc2",
                    "callData": "0x0000000000000000000000002acf35c9a3f4c5c3f4c78ef5fb64c3ee82f07c45000000000000000000000000000000000000000000000000005d423c655aa000",
                    "decodedMethod": {
                        "callParams": [
                            {
                                "name": "dst",
                                "type": "address",
                                "value": "0x2acf35c9a3f4c5c3f4c78ef5fb64c3ee82f07c45"
                            },
                            {
                                "decimalAvailable": true,
                                "name": "wad",
                                "type": "uint256",
                                "value": "26,250,000,000,000,000"
                            }
                        ],
                        "constructorArguments": "",
                        "name": "transfer",
                        "returnParams": [
                            {
                                "name": "",
                                "type": "bool",
                                "value": true
                            }
                        ],
                        "signature": "transfer(address,uint256)"
                    },
                    "errorInfo": "",
                    "fromAddress": "0x74de5d4fcbf63e00296fd95d33236b9794016631",
                    "gasUsed": 8062,
                    "id": 36,
                    "methodDecoded": true,
                    "operation": "CALL",
                    "output": "0x0000000000000000000000000000000000000000000000000000000000000001",
                    "revert": false,
                    "revertMessage": "",
                    "selector": "0xa9059cbb",
                    "status": true,
                    "value": "0"
                },
                "nodeType": 0
            },
            "37": {
                "event": {
                    "contract": "0xc02aaa39b223fe8d0a0e5c4f27ead9083c756cc2",
                    "decodedLog": {
                        "name": "Transfer",
                        "params": [
                            {
                                "name": "src",
                                "type": "address",
                                "value": "0x74de5d4fcbf63e00296fd95d33236b9794016631"
                            },
                            {
                                "name": "dst",
                                "type": "address",
                                "value": "0x2acf35c9a3f4c5c3f4c78ef5fb64c3ee82f07c45"
                            },
                            {
                                "decimalAvailable": true,
                                "name": "wad",
                                "type": "uint256",
                                "value": "26,250,000,000,000,000"
                            }
                        ],
                        "signature": "Transfer(address,address,uint256)"
                    },
                    "id": 37,
                    "logData": "0x000000000000000000000000000000000000000000000000005d423c655aa000",
                    "logDecoded": true,
                    "operation": "EVENT",
                    "revert": false,
                    "status": true,
                    "topics": [
                        "0xddf252ad1be2c89b69c2b068fc378daa952ba7f163c4a11628f55a4df523b3ef",
                        "0x00000000000000000000000074de5d4fcbf63e00296fd95d33236b9794016631",
                        "0x0000000000000000000000002acf35c9a3f4c5c3f4c78ef5fb64c3ee82f07c45"
                    ]
                },
                "nodeType": 1
            },
            "38": {
                "invocation": {
                    "address": "0xc02aaa39b223fe8d0a0e5c4f27ead9083c756cc2",
                    "callData": "0x00000000000000000000000074de5d4fcbf63e00296fd95d33236b9794016631",
                    "decodedMethod": {
                        "callParams": [
                            {
                                "name": "",
                                "type": "address",
                                "value": "0x74de5d4fcbf63e00296fd95d33236b9794016631"
                            }
                        ],
                        "constructorArguments": "",
                        "name": "balanceOf",
                        "returnParams": [
                            {
                                "decimalAvailable": true,
                                "name": "",
                                "type": "uint256",
                                "value": "0"
                            }
                        ],
                        "signature": "balanceOf(address)"
                    },
                    "errorInfo": "",
                    "fromAddress": "0x74de5d4fcbf63e00296fd95d33236b9794016631",
                    "gasUsed": 534,
                    "id": 38,
                    "methodDecoded": true,
                    "operation": "STATICCALL",
                    "output": "0x0000000000000000000000000000000000000000000000000000000000000000",
                    "revert": false,
                    "revertMessage": "",
                    "selector": "0x70a08231",
                    "status": true,
                    "value": "0"
                },
                "nodeType": 0
            },
            "39": {
                "invocation": {
                    "address": "0x75c97384ca209f915381755c582ec0e2ce88c1ba",
                    "callData": "0x00000000000000000000000074de5d4fcbf63e00296fd95d33236b9794016631",
                    "decodedMethod": {
                        "callParams": [
                            {
                                "name": "account",
                                "type": "address",
                                "value": "0x74de5d4fcbf63e00296fd95d33236b9794016631"
                            }
                        ],
                        "constructorArguments": "",
                        "name": "balanceOf",
                        "returnParams": [
                            {
                                "decimalAvailable": true,
                                "name": "",
                                "type": "uint256",
                                "value": "179,005,326,194,876,884,614,760,460,819"
                            }
                        ],
                        "signature": "balanceOf(address)"
                    },
                    "errorInfo": "",
                    "fromAddress": "0x74de5d4fcbf63e00296fd95d33236b9794016631",
                    "gasUsed": 931,
                    "id": 39,
                    "methodDecoded": true,
                    "operation": "STATICCALL",
                    "output": "0x00000000000000000000000000000000000000024265bc41591cbb41fa557213",
                    "revert": false,
                    "revertMessage": "",
                    "selector": "0x70a08231",
                    "status": true,
                    "value": "0"
                },
                "nodeType": 0
            },
            "4": {
                "invocation": {
                    "address": "0x7cdf68ce9a05413cbb76cb7f80eaf415a826e313",
                    "callData": "0x000000000000000000000000a382ec8e36567899f14ff47e9cfdad046fbe80c7000000000000000000000000c02aaa39b223fe8d0a0e5c4f27ead9083c756cc200000000000000000000000075c97384ca209f915381755c582ec0e2ce88c1ba0000000000000000000000000000000000000000000000002944e1de90d1600000000000000000000000000000000000000000024010fc717f8c839bc1f562c90000000000000000000000000000000000000000000000000000000000000120000000000000000000000000000000000000000000000000005d423c655aa0000000000000000000000000002acf35c9a3f4c5c3f4c78ef5fb64c3ee82f07c45000000000000000000000000000000000000000000000000000000000000000000000000000000000000000000000000000000000000000000000000000002c812aa3caf0000000000000000000000003208684f96458c540eb08f6f01b9e9afb2b7d4f0000000000000000000000000c02aaa39b223fe8d0a0e5c4f27ead9083c756cc200000000000000000000000075c97384ca209f915381755c582ec0e2ce88c1ba0000000000000000000000003208684f96458c540eb08f6f01b9e9afb2b7d4f000000000000000000000000074de5d4fcbf63e00296fd95d33236b97940166310000000000000000000000000000000000000000000000002944e1de90d1600000000000000000000000000000000000000000024010fc717f8c839bc1f562c80000000000000000000000000000000000000000000000000000000000000004000000000000000000000000000000000000000000000000000000000000014000000000000000000000000000000000000000000000000000000000000001600000000000000000000000000000000000000000000000000000000000000000000000000000000000000000000000000000000000000000000000000000013e00000000000000000000000000000000000000000000000000000000012000a0c9e75c48000000000000000010040000000000000000000000000000000000000000000000000000f200006302a0000000000000000000000000000000000000000072385909235851673c86fc21ee63c1e5800616189d9a6c609ccbdc74fec3853146795efed3c02aaa39b223fe8d0a0e5c4f27ead9083c756cc21111111254eeb25477b68fb85ed929f73a9605820c20c02aaa39b223fe8d0a0e5c4f27ead9083c756cc2b54ce26f2e30f64c5b684b141311ce138ab5e00e6ae4071138002dc6c0b54ce26f2e30f64c5b684b141311ce138ab5e00e1111111254eeb25477b68fb85ed929f73a9605820000000000000000000000000000000000000001cdd8a3685c343234856e66a7c02aaa39b223fe8d0a0e5c4f27ead9083c756cc20000ab4991fe000000000000000000000000000000000000000000000000",
                    "decodedMethod": null,
                    "errorInfo": "",
                    "fromAddress": "0x74de5d4fcbf63e00296fd95d33236b9794016631",
                    "gasUsed": 245441,
                    "id": 4,
                    "methodDecoded": false,
                    "operation": "DELEGATECALL",
                    "output": "",
                    "revert": false,
                    "revertMessage": "",
                    "selector": "0x92f5f037",
                    "status": true,
                    "value": "0"
                },
                "nodeType": 0
            },
            "40": {
                "invocation": {
                    "address": "0x75c97384ca209f915381755c582ec0e2ce88c1ba",
                    "callData": "0x000000000000000000000000a382ec8e36567899f14ff47e9cfdad046fbe80c700000000000000000000000000000000000000024265bc41591cbb41fa557213",
                    "decodedMethod": {
                        "callParams": [
                            {
                                "name": "recipient",
                                "type": "address",
                                "value": "0xa382ec8e36567899f14ff47e9cfdad046fbe80c7"
                            },
                            {
                                "decimalAvailable": true,
                                "name": "amount",
                                "type": "uint256",
                                "value": "179,005,326,194,876,884,614,760,460,819"
                            }
                        ],
                        "constructorArguments": "",
                        "name": "transfer",
                        "returnParams": [
                            {
                                "name": "",
                                "type": "bool",
                                "value": true
                            }
                        ],
                        "signature": "transfer(address,uint256)"
                    },
                    "errorInfo": "",
                    "fromAddress": "0x74de5d4fcbf63e00296fd95d33236b9794016631",
                    "gasUsed": 18331,
                    "id": 40,
                    "methodDecoded": true,
                    "operation": "CALL",
                    "output": "0x0000000000000000000000000000000000000000000000000000000000000001",
                    "revert": false,
                    "revertMessage": "",
                    "selector": "0xa9059cbb",
                    "status": true,
                    "value": "0"
                },
                "nodeType": 0
            },
            "41": {
                "event": {
                    "contract": "0x75c97384ca209f915381755c582ec0e2ce88c1ba",
                    "decodedLog": {
                        "name": "Transfer",
                        "params": [
                            {
                                "name": "from",
                                "type": "address",
                                "value": "0x74de5d4fcbf63e00296fd95d33236b9794016631"
                            },
                            {
                                "name": "to",
                                "type": "address",
                                "value": "0xa382ec8e36567899f14ff47e9cfdad046fbe80c7"
                            },
                            {
                                "decimalAvailable": true,
                                "name": "value",
                                "type": "uint256",
                                "value": "179,005,326,194,876,884,614,760,460,819"
                            }
                        ],
                        "signature": "Transfer(address,address,uint256)"
                    },
                    "id": 41,
                    "logData": "0x00000000000000000000000000000000000000024265bc41591cbb41fa557213",
                    "logDecoded": true,
                    "operation": "EVENT",
                    "revert": false,
                    "status": true,
                    "topics": [
                        "0xddf252ad1be2c89b69c2b068fc378daa952ba7f163c4a11628f55a4df523b3ef",
                        "0x00000000000000000000000074de5d4fcbf63e00296fd95d33236b9794016631",
                        "0x000000000000000000000000a382ec8e36567899f14ff47e9cfdad046fbe80c7"
                    ]
                },
                "nodeType": 1
            },
            "42": {
                "event": {
                    "contract": "0x881d40237659c251811cec9c364ef91dc08d300c",
                    "decodedLog": {
                        "name": "Swap",
                        "params": [
                            {
                                "name": "aggregatorId",
                                "type": "string",
                                "value": "0xf35f348d53012d52a5d39f9390d246956ac932d5778d2bb49e359dba4fa0896d"
                            },
                            {
                                "name": "sender",
                                "type": "address",
                                "value": "0xa382ec8e36567899f14ff47e9cfdad046fbe80c7"
                            }
                        ],
                        "signature": "Swap(string,address)"
                    },
                    "id": 42,
                    "logData": "0x",
                    "logDecoded": true,
                    "operation": "EVENT",
                    "revert": false,
                    "status": true,
                    "topics": [
                        "0xbeee1e6e7fe307ddcf84b0a16137a4430ad5e2480fc4f4a8e250ab56ccd7630d",
                        "0xf35f348d53012d52a5d39f9390d246956ac932d5778d2bb49e359dba4fa0896d",
                        "0x000000000000000000000000a382ec8e36567899f14ff47e9cfdad046fbe80c7"
                    ]
                },
                "nodeType": 1
            },
            "5": {
                "invocation": {
                    "address": "0xc02aaa39b223fe8d0a0e5c4f27ead9083c756cc2",
                    "callData": "0x00000000000000000000000074de5d4fcbf63e00296fd95d33236b97940166310000000000000000000000001111111254eeb25477b68fb85ed929f73a960582",
                    "decodedMethod": {
                        "callParams": [
                            {
                                "name": "",
                                "type": "address",
                                "value": "0x74de5d4fcbf63e00296fd95d33236b9794016631"
                            },
                            {
                                "name": "",
                                "type": "address",
                                "value": "0x1111111254eeb25477b68fb85ed929f73a960582"
                            }
                        ],
                        "constructorArguments": "",
                        "name": "allowance",
                        "returnParams": [
                            {
                                "decimalAvailable": true,
                                "name": "",
                                "type": "uint256",
                                "value": "115,792,089,237,316,195,423,570,985,008,687,907,853,269,984,665,640,564,039,457,584,007,913,129,639,935"
                            }
                        ],
                        "signature": "allowance(address,address)"
                    },
                    "errorInfo": "",
                    "fromAddress": "0x74de5d4fcbf63e00296fd95d33236b9794016631",
                    "gasUsed": 2717,
                    "id": 5,
                    "methodDecoded": true,
                    "operation": "STATICCALL",
                    "output": "0xffffffffffffffffffffffffffffffffffffffffffffffffffffffffffffffff",
                    "revert": false,
                    "revertMessage": "",
                    "selector": "0xdd62ed3e",
                    "status": true,
                    "value": "0"
                },
                "nodeType": 0
            },
            "6": {
                "invocation": {
                    "address": "0x1111111254eeb25477b68fb85ed929f73a960582",
                    "callData": "0x0000000000000000000000003208684f96458c540eb08f6f01b9e9afb2b7d4f0000000000000000000000000c02aaa39b223fe8d0a0e5c4f27ead9083c756cc200000000000000000000000075c97384ca209f915381755c582ec0e2ce88c1ba0000000000000000000000003208684f96458c540eb08f6f01b9e9afb2b7d4f000000000000000000000000074de5d4fcbf63e00296fd95d33236b97940166310000000000000000000000000000000000000000000000002944e1de90d1600000000000000000000000000000000000000000024010fc717f8c839bc1f562c80000000000000000000000000000000000000000000000000000000000000004000000000000000000000000000000000000000000000000000000000000014000000000000000000000000000000000000000000000000000000000000001600000000000000000000000000000000000000000000000000000000000000000000000000000000000000000000000000000000000000000000000000000013e00000000000000000000000000000000000000000000000000000000012000a0c9e75c48000000000000000010040000000000000000000000000000000000000000000000000000f200006302a0000000000000000000000000000000000000000072385909235851673c86fc21ee63c1e5800616189d9a6c609ccbdc74fec3853146795efed3c02aaa39b223fe8d0a0e5c4f27ead9083c756cc21111111254eeb25477b68fb85ed929f73a9605820c20c02aaa39b223fe8d0a0e5c4f27ead9083c756cc2b54ce26f2e30f64c5b684b141311ce138ab5e00e6ae4071138002dc6c0b54ce26f2e30f64c5b684b141311ce138ab5e00e1111111254eeb25477b68fb85ed929f73a9605820000000000000000000000000000000000000001cdd8a3685c343234856e66a7c02aaa39b223fe8d0a0e5c4f27ead9083c756cc20000ab4991fe",
                    "decodedMethod": {
                        "callParams": [
                            {
                                "name": "executor",
                                "type": "address",
                                "value": "0x3208684f96458c540eb08f6f01b9e9afb2b7d4f0"
                            },
                            {
                                "name": "desc",
                                "type": "(address,address,address,address,uint256,uint256,uint256)",
                                "value": [
                                    {
                                        "name": "srcToken",
                                        "type": "address",
                                        "value": "0xc02aaa39b223fe8d0a0e5c4f27ead9083c756cc2"
                                    },
                                    {
                                        "name": "dstToken",
                                        "type": "address",
                                        "value": "0x75c97384ca209f915381755c582ec0e2ce88c1ba"
                                    },
                                    {
                                        "name": "srcReceiver",
                                        "type": "address",
                                        "value": "0x3208684f96458c540eb08f6f01b9e9afb2b7d4f0"
                                    },
                                    {
                                        "name": "dstReceiver",
                                        "type": "address",
                                        "value": "0x74de5d4fcbf63e00296fd95d33236b9794016631"
                                    },
                                    {
                                        "name": "amount",
                                        "type": "uint256",
                                        "value": "2,973,750,000,000,000,000"
                                    },
                                    {
                                        "name": "minReturnAmount",
                                        "type": "uint256",
                                        "value": "178,283,900,600,235,222,776,595,964,616"
                                    },
                                    {
                                        "name": "flags",
                                        "type": "uint256",
                                        "value": "4"
                                    }
                                ]
                            },
                            {
                                "name": "permit",
                                "type": "bytes",
                                "value": "0x"
                            },
                            {
                                "name": "data",
                                "type": "bytes",
                                "value": "0x00000000000000000000000000000000000000000000000000000000012000a0c9e75c48000000000000000010040000000000000000000000000000000000000000000000000000f200006302a0000000000000000000000000000000000000000072385909235851673c86fc21ee63c1e5800616189d9a6c609ccbdc74fec3853146795efed3c02aaa39b223fe8d0a0e5c4f27ead9083c756cc21111111254eeb25477b68fb85ed929f73a9605820c20c02aaa39b223fe8d0a0e5c4f27ead9083c756cc2b54ce26f2e30f64c5b684b141311ce138ab5e00e6ae4071138002dc6c0b54ce26f2e30f64c5b684b141311ce138ab5e00e1111111254eeb25477b68fb85ed929f73a9605820000000000000000000000000000000000000001cdd8a3685c343234856e66a7c02aaa39b223fe8d0a0e5c4f27ead9083c756cc2"
                            }
                        ],
                        "constructorArguments": "",
                        "name": "swap",
                        "returnParams": [
                            {
                                "name": "returnAmount",
                                "type": "uint256",
                                "value": "179,005,326,194,876,884,614,760,460,819"
                            },
                            {
                                "name": "spentAmount",
                                "type": "uint256",
                                "value": "2,973,750,000,000,000,000"
                            }
                        ],
                        "signature": "swap(address,(address,address,address,address,uint256,uint256,uint256),bytes,bytes)"
                    },
                    "errorInfo": "",
                    "fromAddress": "0x74de5d4fcbf63e00296fd95d33236b9794016631",
                    "gasUsed": 204195,
                    "id": 6,
                    "methodDecoded": true,
                    "operation": "CALL",
                    "output": "0x00000000000000000000000000000000000000024265bc41591cbb41fa5572130000000000000000000000000000000000000000000000002944e1de90d16000",
                    "revert": false,
                    "revertMessage": "",
                    "selector": "0x12aa3caf",
                    "status": true,
                    "value": "0"
                },
                "nodeType": 0
            },
            "7": {
                "invocation": {
                    "address": "0xc02aaa39b223fe8d0a0e5c4f27ead9083c756cc2",
                    "callData": "0x00000000000000000000000074de5d4fcbf63e00296fd95d33236b97940166310000000000000000000000003208684f96458c540eb08f6f01b9e9afb2b7d4f00000000000000000000000000000000000000000000000002944e1de90d16000",
                    "decodedMethod": {
                        "callParams": [
                            {
                                "name": "src",
                                "type": "address",
                                "value": "0x74de5d4fcbf63e00296fd95d33236b9794016631"
                            },
                            {
                                "name": "dst",
                                "type": "address",
                                "value": "0x3208684f96458c540eb08f6f01b9e9afb2b7d4f0"
                            },
                            {
                                "decimalAvailable": true,
                                "name": "wad",
                                "type": "uint256",
                                "value": "2,973,750,000,000,000,000"
                            }
                        ],
                        "constructorArguments": "",
                        "name": "transferFrom",
                        "returnParams": [
                            {
                                "name": "",
                                "type": "bool",
                                "value": true
                            }
                        ],
                        "signature": "transferFrom(address,address,uint256)"
                    },
                    "errorInfo": "",
                    "fromAddress": "0x1111111254eeb25477b68fb85ed929f73a960582",
                    "gasUsed": 8225,
                    "id": 7,
                    "methodDecoded": true,
                    "operation": "CALL",
                    "output": "0x0000000000000000000000000000000000000000000000000000000000000001",
                    "revert": false,
                    "revertMessage": "",
                    "selector": "0x23b872dd",
                    "status": true,
                    "value": "0"
                },
                "nodeType": 0
            },
            "8": {
                "event": {
                    "contract": "0xc02aaa39b223fe8d0a0e5c4f27ead9083c756cc2",
                    "decodedLog": {
                        "name": "Transfer",
                        "params": [
                            {
                                "name": "src",
                                "type": "address",
                                "value": "0x74de5d4fcbf63e00296fd95d33236b9794016631"
                            },
                            {
                                "name": "dst",
                                "type": "address",
                                "value": "0x3208684f96458c540eb08f6f01b9e9afb2b7d4f0"
                            },
                            {
                                "decimalAvailable": true,
                                "name": "wad",
                                "type": "uint256",
                                "value": "2,973,750,000,000,000,000"
                            }
                        ],
                        "signature": "Transfer(address,address,uint256)"
                    },
                    "id": 8,
                    "logData": "0x0000000000000000000000000000000000000000000000002944e1de90d16000",
                    "logDecoded": true,
                    "operation": "EVENT",
                    "revert": false,
                    "status": true,
                    "topics": [
                        "0xddf252ad1be2c89b69c2b068fc378daa952ba7f163c4a11628f55a4df523b3ef",
                        "0x00000000000000000000000074de5d4fcbf63e00296fd95d33236b9794016631",
                        "0x0000000000000000000000003208684f96458c540eb08f6f01b9e9afb2b7d4f0"
                    ]
                },
                "nodeType": 1
            },
            "9": {
                "invocation": {
                    "address": "0x3208684f96458c540eb08f6f01b9e9afb2b7d4f0",
                    "callData": "0x00000000000000000000000074de5d4fcbf63e00296fd95d33236b979401663100000000000000000000000000000000000000000000000000000000012000a0c9e75c48000000000000000010040000000000000000000000000000000000000000000000000000f200006302a0000000000000000000000000000000000000000072385909235851673c86fc21ee63c1e5800616189d9a6c609ccbdc74fec3853146795efed3c02aaa39b223fe8d0a0e5c4f27ead9083c756cc21111111254eeb25477b68fb85ed929f73a9605820c20c02aaa39b223fe8d0a0e5c4f27ead9083c756cc2b54ce26f2e30f64c5b684b141311ce138ab5e00e6ae4071138002dc6c0b54ce26f2e30f64c5b684b141311ce138ab5e00e1111111254eeb25477b68fb85ed929f73a9605820000000000000000000000000000000000000001cdd8a3685c343234856e66a7c02aaa39b223fe8d0a0e5c4f27ead9083c756cc20000000000000000000000000000000000000000000000002944e1de90d16000",
                    "decodedMethod": {
                        "callParams": [
                            {
                                "name": "spender",
                                "type": "address",
                                "value": "0x74de5d4fcbf63e00296fd95d33236b9794016631"
                            }
                        ],
                        "constructorArguments": "",
                        "name": "execute",
                        "returnParams": [],
                        "signature": "execute(address)"
                    },
                    "errorInfo": "",
                    "fromAddress": "0x1111111254eeb25477b68fb85ed929f73a960582",
                    "gasUsed": 152921,
                    "id": 9,
                    "methodDecoded": true,
                    "operation": "CALL",
                    "output": "0x00000000000000000000000000000000000000024265bc41591cbb41fa557213",
                    "revert": false,
                    "revertMessage": "",
                    "selector": "0x4b64e492",
                    "status": true,
                    "value": "0"
                },
                "nodeType": 0
            }
        },
        "gasFlame": [
            {
                "children": [
                    {
                        "children": [
                            {
                                "children": [],
                                "depth": 0,
                                "name": "Initial Gas",
                                "value": 31908
                            },
                            {
                                "children": [
                                    {
                                        "children": [],
                                        "depth": 1,
                                        "name": "transferFrom",
                                        "value": 32125
                                    },
                                    {
                                        "children": [
                                            {
                                                "children": [
                                                    {
                                                        "children": [],
                                                        "depth": 3,
                                                        "name": "allowance",
                                                        "value": 2717
                                                    },
                                                    {
                                                        "children": [
                                                            {
                                                                "children": [],
                                                                "depth": 4,
                                                                "name": "transferFrom",
                                                                "value": 8225
                                                            },
                                                            {
                                                                "children": [
                                                                    {
                                                                        "children": [
                                                                            {
                                                                                "children": [
                                                                                    {
                                                                                        "children": [
                                                                                            {
                                                                                                "children": [],
                                                                                                "depth": 8,
                                                                                                "name": "transfer",
                                                                                                "value": 39131
                                                                                            },
                                                                                            {
                                                                                                "children": [],
                                                                                                "depth": 8,
                                                                                                "name": "balanceOf",
                                                                                                "value": 2534
                                                                                            },
                                                                                            {
                                                                                                "children": [
                                                                                                    {
                                                                                                        "children": [],
                                                                                                        "depth": 9,
                                                                                                        "name": "transfer",
                                                                                                        "value": 6062
                                                                                                    }
                                                                                                ],
                                                                                                "depth": 8,
                                                                                                "name": "uniswapV3SwapCallback",
                                                                                                "value": 7436
                                                                                            },
                                                                                            {
                                                                                                "children": [],
                                                                                                "depth": 8,
                                                                                                "name": "balanceOf",
                                                                                                "value": 534
                                                                                            }
                                                                                        ],
                                                                                        "depth": 7,
                                                                                        "name": "swap",
                                                                                        "value": 89851
                                                                                    }
                                                                                ],
                                                                                "depth": 6,
                                                                                "name": "swapUniV3",
                                                                                "value": 93697
                                                                            },
                                                                            {
                                                                                "children": [],
                                                                                "depth": 6,
                                                                                "name": "transfer",
                                                                                "value": 8062
                                                                            },
                                                                            {
                                                                                "children": [
                                                                                    {
                                                                                        "children": [],
                                                                                        "depth": 7,
                                                                                        "name": "getReserves",
                                                                                        "value": 2504
                                                                                    },
                                                                                    {
                                                                                        "children": [],
                                                                                        "depth": 7,
                                                                                        "name": "balanceOf",
                                                                                        "value": 534
                                                                                    },
                                                                                    {
                                                                                        "children": [
                                                                                            {
                                                                                                "children": [],
                                                                                                "depth": 8,
                                                                                                "name": "transfer",
                                                                                                "value": 16336
                                                                                            },
                                                                                            {
                                                                                                "children": [],
                                                                                                "depth": 8,
                                                                                                "name": "balanceOf",
                                                                                                "value": 931
                                                                                            },
                                                                                            {
                                                                                                "children": [],
                                                                                                "depth": 8,
                                                                                                "name": "balanceOf",
                                                                                                "value": 534
                                                                                            }
                                                                                        ],
                                                                                        "depth": 7,
                                                                                        "name": "swap",
                                                                                        "value": 38708
                                                                                    }
                                                                                ],
                                                                                "depth": 6,
                                                                                "name": "swapUniV2",
                                                                                "value": 45800
                                                                            }
                                                                        ],
                                                                        "depth": 5,
                                                                        "name": "0xc9e75c48",
                                                                        "value": 151460
                                                                    }
                                                                ],
                                                                "depth": 4,
                                                                "name": "execute",
                                                                "value": 152921
                                                            },
                                                            {
                                                                "children": [],
                                                                "depth": 4,
                                                                "name": "balanceOf",
                                                                "value": 931
                                                            },
                                                            {
                                                                "children": [],
                                                                "depth": 4,
                                                                "name": "transfer",
                                                                "value": 35431
                                                            }
                                                        ],
                                                        "depth": 3,
                                                        "name": "swap",
                                                        "value": 204195
                                                    },
                                                    {
                                                        "children": [],
                                                        "depth": 3,
                                                        "name": "transfer",
                                                        "value": 8062
                                                    },
                                                    {
                                                        "children": [],
                                                        "depth": 3,
                                                        "name": "balanceOf",
                                                        "value": 534
                                                    },
                                                    {
                                                        "children": [],
                                                        "depth": 3,
                                                        "name": "balanceOf",
                                                        "value": 931
                                                    },
                                                    {
                                                        "children": [],
                                                        "depth": 3,
                                                        "name": "transfer",
                                                        "value": 18331
                                                    }
                                                ],
                                                "depth": 2,
                                                "name": "0x92f5f037",
                                                "value": 245441
                                            }
                                        ],
                                        "depth": 1,
                                        "name": "swap",
                                        "value": 251980
                                    }
                                ],
                                "depth": 0,
                                "name": "Executed Gas",
                                "value": 308367
                            }
                        ],
                        "depth": -1,
                        "name": "Actual Gas Used",
                        "value": 289275
                    },
                    {
                        "children": [],
                        "depth": -1,
                        "name": "Refunded Gas",
                        "value": 51000
                    }
                ],
                "depth": -2,
                "name": "Total Gas",
                "value": 340275
            }
        ],
        "isConfirmed": true,
        "mainTrace": [
            {
                "children": [
                    {
                        "children": [
                            {
                                "children": [
                                    {
                                        "children": [],
                                        "depth": 2,
                                        "id": 2,
                                        "order": 2
                                    }
                                ],
                                "depth": 1,
                                "id": 1,
                                "order": 1
                            },
                            {
                                "children": [
                                    {
                                        "children": [
                                            {
                                                "children": [],
                                                "depth": 3,
                                                "id": 5,
                                                "order": 5
                                            },
                                            {
                                                "children": [
                                                    {
                                                        "children": [
                                                            {
                                                                "children": [],
                                                                "depth": 5,
                                                                "id": 8,
                                                                "order": 8
                                                            }
                                                        ],
                                                        "depth": 4,
                                                        "id": 7,
                                                        "order": 7
                                                    },
                                                    {
                                                        "children": [
                                                            {
                                                                "children": [
                                                                    {
                                                                        "children": [
                                                                            {
                                                                                "children": [
                                                                                    {
                                                                                        "children": [
                                                                                            {
                                                                                                "children": [],
                                                                                                "depth": 9,
                                                                                                "id": 14,
                                                                                                "order": 14
                                                                                            }
                                                                                        ],
                                                                                        "depth": 8,
                                                                                        "id": 13,
                                                                                        "order": 13
                                                                                    },
                                                                                    {
                                                                                        "children": [],
                                                                                        "depth": 8,
                                                                                        "id": 15,
                                                                                        "order": 15
                                                                                    },
                                                                                    {
                                                                                        "children": [
                                                                                            {
                                                                                                "children": [
                                                                                                    {
                                                                                                        "children": [],
                                                                                                        "depth": 10,
                                                                                                        "id": 18,
                                                                                                        "order": 18
                                                                                                    }
                                                                                                ],
                                                                                                "depth": 9,
                                                                                                "id": 17,
                                                                                                "order": 17
                                                                                            }
                                                                                        ],
                                                                                        "depth": 8,
                                                                                        "id": 16,
                                                                                        "order": 16
                                                                                    },
                                                                                    {
                                                                                        "children": [],
                                                                                        "depth": 8,
                                                                                        "id": 19,
                                                                                        "order": 19
                                                                                    },
                                                                                    {
                                                                                        "children": [],
                                                                                        "depth": 8,
                                                                                        "id": 20,
                                                                                        "order": 20
                                                                                    }
                                                                                ],
                                                                                "depth": 7,
                                                                                "id": 12,
                                                                                "order": 12
                                                                            }
                                                                        ],
                                                                        "depth": 6,
                                                                        "id": 11,
                                                                        "order": 11
                                                                    },
                                                                    {
                                                                        "children": [
                                                                            {
                                                                                "children": [],
                                                                                "depth": 7,
                                                                                "id": 22,
                                                                                "order": 22
                                                                            }
                                                                        ],
                                                                        "depth": 6,
                                                                        "id": 21,
                                                                        "order": 21
                                                                    },
                                                                    {
                                                                        "children": [
                                                                            {
                                                                                "children": [],
                                                                                "depth": 7,
                                                                                "id": 24,
                                                                                "order": 24
                                                                            },
                                                                            {
                                                                                "children": [],
                                                                                "depth": 7,
                                                                                "id": 25,
                                                                                "order": 25
                                                                            },
                                                                            {
                                                                                "children": [
                                                                                    {
                                                                                        "children": [
                                                                                            {
                                                                                                "children": [],
                                                                                                "depth": 9,
                                                                                                "id": 28,
                                                                                                "order": 28
                                                                                            }
                                                                                        ],
                                                                                        "depth": 8,
                                                                                        "id": 27,
                                                                                        "order": 27
                                                                                    },
                                                                                    {
                                                                                        "children": [],
                                                                                        "depth": 8,
                                                                                        "id": 29,
                                                                                        "order": 29
                                                                                    },
                                                                                    {
                                                                                        "children": [],
                                                                                        "depth": 8,
                                                                                        "id": 30,
                                                                                        "order": 30
                                                                                    },
                                                                                    {
                                                                                        "children": [],
                                                                                        "depth": 8,
                                                                                        "id": 31,
                                                                                        "order": 31
                                                                                    },
                                                                                    {
                                                                                        "children": [],
                                                                                        "depth": 8,
                                                                                        "id": 32,
                                                                                        "order": 32
                                                                                    }
                                                                                ],
                                                                                "depth": 7,
                                                                                "id": 26,
                                                                                "order": 26
                                                                            }
                                                                        ],
                                                                        "depth": 6,
                                                                        "id": 23,
                                                                        "order": 23
                                                                    }
                                                                ],
                                                                "depth": 5,
                                                                "id": 10,
                                                                "order": 10
                                                            }
                                                        ],
                                                        "depth": 4,
                                                        "id": 9,
                                                        "order": 9
                                                    },
                                                    {
                                                        "children": [],
                                                        "depth": 4,
                                                        "id": 33,
                                                        "order": 33
                                                    },
                                                    {
                                                        "children": [
                                                            {
                                                                "children": [],
                                                                "depth": 5,
                                                                "id": 35,
                                                                "order": 35
                                                            }
                                                        ],
                                                        "depth": 4,
                                                        "id": 34,
                                                        "order": 34
                                                    }
                                                ],
                                                "depth": 3,
                                                "id": 6,
                                                "order": 6
                                            },
                                            {
                                                "children": [
                                                    {
                                                        "children": [],
                                                        "depth": 4,
                                                        "id": 37,
                                                        "order": 37
                                                    }
                                                ],
                                                "depth": 3,
                                                "id": 36,
                                                "order": 36
                                            },
                                            {
                                                "children": [],
                                                "depth": 3,
                                                "id": 38,
                                                "order": 38
                                            },
                                            {
                                                "children": [],
                                                "depth": 3,
                                                "id": 39,
                                                "order": 39
                                            },
                                            {
                                                "children": [
                                                    {
                                                        "children": [],
                                                        "depth": 4,
                                                        "id": 41,
                                                        "order": 41
                                                    }
                                                ],
                                                "depth": 3,
                                                "id": 40,
                                                "order": 40
                                            }
                                        ],
                                        "depth": 2,
                                        "id": 4,
                                        "order": 4
                                    }
                                ],
                                "depth": 1,
                                "id": 3,
                                "order": 3
                            },
                            {
                                "children": [],
                                "depth": 1,
                                "id": 42,
                                "order": 42
                            }
                        ],
                        "depth": 0,
                        "id": 0,
                        "order": 0
                    }
                ],
                "depth": -1,
                "id": -1,
                "order": -1
            }
        ],
        "mainTraceNodeCount": 43,
        "parentIdMap": {
            "0": -1,
            "1": 0,
            "10": 9,
            "11": 10,
            "12": 11,
            "13": 12,
            "14": 13,
            "15": 12,
            "16": 12,
            "17": 16,
            "18": 17,
            "19": 12,
            "2": 1,
            "20": 12,
            "21": 10,
            "22": 21,
            "23": 10,
            "24": 23,
            "25": 23,
            "26": 23,
            "27": 26,
            "28": 27,
            "29": 26,
            "3": 0,
            "30": 26,
            "31": 26,
            "32": 26,
            "33": 6,
            "34": 6,
            "35": 34,
            "36": 4,
            "37": 36,
            "38": 4,
            "39": 4,
            "4": 3,
            "40": 4,
            "41": 40,
            "42": 0,
            "5": 4,
            "6": 4,
            "7": 6,
            "8": 7,
            "9": 6
        },
        "tidyTrace": [
            {
                "children": [
                    {
                        "children": [
                            {
                                "children": [
                                    {
                                        "children": [],
                                        "depth": 2,
                                        "id": 2,
                                        "order": 2
                                    }
                                ],
                                "depth": 1,
                                "id": 1,
                                "order": 1
                            },
                            {
                                "children": [
                                    {
                                        "children": [
                                            {
                                                "children": [
                                                    {
                                                        "children": [
                                                            {
                                                                "children": [],
                                                                "depth": 5,
                                                                "id": 8,
                                                                "order": 8
                                                            }
                                                        ],
                                                        "depth": 4,
                                                        "id": 7,
                                                        "order": 7
                                                    },
                                                    {
                                                        "children": [
                                                            {
                                                                "children": [
                                                                    {
                                                                        "children": [
                                                                            {
                                                                                "children": [
                                                                                    {
                                                                                        "children": [
                                                                                            {
                                                                                                "children": [],
                                                                                                "depth": 9,
                                                                                                "id": 14,
                                                                                                "order": 14
                                                                                            }
                                                                                        ],
                                                                                        "depth": 8,
                                                                                        "id": 13,
                                                                                        "order": 13
                                                                                    },
                                                                                    {
                                                                                        "children": [
                                                                                            {
                                                                                                "children": [
                                                                                                    {
                                                                                                        "children": [],
                                                                                                        "depth": 10,
                                                                                                        "id": 18,
                                                                                                        "order": 18
                                                                                                    }
                                                                                                ],
                                                                                                "depth": 9,
                                                                                                "id": 17,
                                                                                                "order": 17
                                                                                            }
                                                                                        ],
                                                                                        "depth": 8,
                                                                                        "id": 16,
                                                                                        "order": 16
                                                                                    },
                                                                                    {
                                                                                        "children": [],
                                                                                        "depth": 8,
                                                                                        "id": 20,
                                                                                        "order": 20
                                                                                    }
                                                                                ],
                                                                                "depth": 7,
                                                                                "id": 12,
                                                                                "order": 12
                                                                            }
                                                                        ],
                                                                        "depth": 6,
                                                                        "id": 11,
                                                                        "order": 11
                                                                    },
                                                                    {
                                                                        "children": [
                                                                            {
                                                                                "children": [],
                                                                                "depth": 7,
                                                                                "id": 22,
                                                                                "order": 22
                                                                            }
                                                                        ],
                                                                        "depth": 6,
                                                                        "id": 21,
                                                                        "order": 21
                                                                    },
                                                                    {
                                                                        "children": [
                                                                            {
                                                                                "children": [
                                                                                    {
                                                                                        "children": [
                                                                                            {
                                                                                                "children": [],
                                                                                                "depth": 9,
                                                                                                "id": 28,
                                                                                                "order": 28
                                                                                            }
                                                                                        ],
                                                                                        "depth": 8,
                                                                                        "id": 27,
                                                                                        "order": 27
                                                                                    },
                                                                                    {
                                                                                        "children": [],
                                                                                        "depth": 8,
                                                                                        "id": 31,
                                                                                        "order": 31
                                                                                    },
                                                                                    {
                                                                                        "children": [],
                                                                                        "depth": 8,
                                                                                        "id": 32,
                                                                                        "order": 32
                                                                                    }
                                                                                ],
                                                                                "depth": 7,
                                                                                "id": 26,
                                                                                "order": 26
                                                                            }
                                                                        ],
                                                                        "depth": 6,
                                                                        "id": 23,
                                                                        "order": 23
                                                                    }
                                                                ],
                                                                "depth": 5,
                                                                "id": 10,
                                                                "order": 10
                                                            }
                                                        ],
                                                        "depth": 4,
                                                        "id": 9,
                                                        "order": 9
                                                    },
                                                    {
                                                        "children": [
                                                            {
                                                                "children": [],
                                                                "depth": 5,
                                                                "id": 35,
                                                                "order": 35
                                                            }
                                                        ],
                                                        "depth": 4,
                                                        "id": 34,
                                                        "order": 34
                                                    }
                                                ],
                                                "depth": 3,
                                                "id": 6,
                                                "order": 6
                                            },
                                            {
                                                "children": [
                                                    {
                                                        "children": [],
                                                        "depth": 4,
                                                        "id": 37,
                                                        "order": 37
                                                    }
                                                ],
                                                "depth": 3,
                                                "id": 36,
                                                "order": 36
                                            },
                                            {
                                                "children": [
                                                    {
                                                        "children": [],
                                                        "depth": 4,
                                                        "id": 41,
                                                        "order": 41
                                                    }
                                                ],
                                                "depth": 3,
                                                "id": 40,
                                                "order": 40
                                            }
                                        ],
                                        "depth": 2,
                                        "id": 4,
                                        "order": 4
                                    }
                                ],
                                "depth": 1,
                                "id": 3,
                                "order": 3
                            },
                            {
                                "children": [],
                                "depth": 1,
                                "id": 42,
                                "order": 42
                            }
                        ],
                        "depth": 0,
                        "id": 0,
                        "order": 0
                    }
                ],
                "depth": -1,
                "id": -1,
                "order": -1
            }
        ],
        "tidyTraceNodeCount": 33
    },
    "state_change": {
        "stateChanges": [
            {
                "address": "0x0616189d9a6c609ccbdc74fec3853146795efed3",
                "erc": "",
                "slots": [
                    {
                        "current": "0x010000000000000000000000005e563d1648227e32ffffe5e2c4603465020f7f",
                        "key": "0x0000000000000000000000000000000000000000000000000000000000000008",
                        "prev": "0x010000000000000000000000005e530d41b5efcc5cffffe5e3a7d94065020f43"
                    },
                    {
                        "current": "0x0000000000000000000000000000000000000f8bfe1855dc77cb10742f51c93c",
                        "key": "0x0000000000000000000000000000000000000000000000000000000000000002",
                        "prev": "0x0000000000000000000000000000000000000f8adeca3db1bb03371bdaefb627"
                    },
                    {
                        "current": "0x000100000100010000fc35f300000000000000000000440053299100fad89988",
                        "key": "0x0000000000000000000000000000000000000000000000000000000000000000",
                        "prev": "0x000100000100010000fc357300000000000000000000439137f63879f98f8c60"
                    }
                ],
                "storageVariables": []
            },
            {
                "address": "0x75c97384ca209f915381755c582ec0e2ce88c1ba",
                "erc": "ERC-20",
                "slots": [
                    {
                        "current": "0x0000000000000000000000000000000000000005f8f1041fabba8b42688acc9a",
                        "key": "0xc99090af028895f64d7633c9802ee25631b7e4800de39a651fa2f7f8b6e4020b",
                        "prev": "0x0000000000000000000000000000000000000003b68b47de529dd0006e355a87"
                    },
                    {
                        "current": "0x0000000000000000000000000000000000000012a593b6d0291ae2289a5cc8aa",
                        "key": "0xb9b3e30df654c8da6ba9c77c47b95fbfd6273df5c9018494447244af5290a221",
                        "prev": "0x00000000000000000000000000000000000000131a20cdbf5cd844e589c1f3bc"
                    },
                    {
                        "current": "0x00000000000000000000000000000000000000793bfa37bafdf789e4214fe9b5",
                        "key": "0xf2c891cab2af1155379e2cb5a591b3e1f3859d3ef1c231d4987204c1fe7ea115",
                        "prev": "0x000000000000000000000000000000000000007b09d2dd0d2356e2692c4030b6"
                    }
                ],
                "storageVariables": [
                    {
                        "name": "_balances",
                        "type": "mapping(address => uint256)",
                        "value": {
                            "pairs": [
                                {
                                    "key": "0x0616189d9a6c609ccbdc74fec3853146795efed3",
                                    "value": {
                                        "current": "1477350527283347941488043280554",
                                        "prev": "1513421355267752333552671388604",
                                        "typeTag": 1
                                    }
                                },
                                {
                                    "key": "0xa382ec8e36567899f14ff47e9cfdad046fbe80c7",
                                    "value": {
                                        "current": "473184465603231744449638485146",
                                        "prev": "294179139408354859834878024327",
                                        "typeTag": 1
                                    }
                                },
                                {
                                    "key": "0xb54ce26f2e30f64c5b684b141311ce138ab5e00e",
                                    "value": {
                                        "current": "9605169774439899067931467704757",
                                        "prev": "9748104272650371560481600057526",
                                        "typeTag": 1
                                    }
                                }
                            ],
                            "typeTag": 4
                        }
                    }
                ]
            },
            {
                "address": "0xb54ce26f2e30f64c5b684b141311ce138ab5e00e",
                "erc": "ERC-20",
                "slots": [
                    {
                        "current": "0x65020f7f000000000008c4fa64c9634bbce600793bfa37bafdf789e4214fe9b5",
                        "key": "0x0000000000000000000000000000000000000000000000000000000000000008",
                        "prev": "0x65020f7f000000000008a3f67ce422a43ce6007b09d2dd0d2356e2692c4030b6"
                    }
                ],
                "storageVariables": [
                    {
                        "name": "reserve0",
                        "type": "uint112",
                        "value": {
                            "current": "9605169774439899067931467704757",
                            "prev": "9748104272650371560481600057526",
                            "typeTag": 1
                        }
                    },
                    {
                        "name": "reserve1",
                        "type": "uint112",
                        "value": {
                            "current": "161767720581405064422",
                            "prev": "159388720581405064422",
                            "typeTag": 1
                        }
                    },
                    {
                        "name": "blockTimestampLast",
                        "type": "uint32",
                        "value": {
                            "current": "1694633855",
                            "prev": "1694633855",
                            "typeTag": 1
                        }
                    }
                ]
            },
            {
                "address": "0xc02aaa39b223fe8d0a0e5c4f27ead9083c756cc2",
                "erc": "ERC-20",
                "slots": [
                    {
                        "current": "0x000000000000000000000000000000000000000000000001e17b75ad631d3500",
                        "key": "0x527728326d46a8e2d6fc8d2a42d36d0f250a3429d523a7b243a663976c0eb909",
                        "prev": "0x000000000000000000000000000000000000000000000001d93a7bb412f35500"
                    },
                    {
                        "current": "0x000000000000000000000000000000000000000000000008c4fa64c9634bbce6",
                        "key": "0x09d0a653d028a303e3445ad078cd9784c32b672ecd784e05dfa863f177744f2e",
                        "prev": "0x000000000000000000000000000000000000000000000008a3f67ce422a43ce6"
                    },
                    {
                        "current": "0x00000000000000000000000000000000000000000000000176f4d712851ff069",
                        "key": "0x38bb8997bc319b7b25cbbf60994b4e072443e73be66ef0d604f203fb9f758a99",
                        "prev": "0x000000000000000000000000000000000000000000000001769794d61fc55069"
                    },
                    {
                        "current": "0x000000000000000000000000000000000000000000000000900d2b01208e0000",
                        "key": "0x77c3e6c7fea3ab1a077b3124627aaa15c1922d3ce2f991d02c4e78e93a38bf3c",
                        "prev": "0x000000000000000000000000000000000000000000000000b9af4f1c16ba0000"
                    }
                ],
                "storageVariables": [
                    {
                        "name": "balanceOf",
                        "type": "mapping(address => uint256)",
                        "value": {
                            "pairs": [
                                {
                                    "key": "0x0616189d9a6c609ccbdc74fec3853146795efed3",
                                    "value": {
                                        "current": "34694453541931398400",
                                        "prev": "34099703541931398400",
                                        "typeTag": 1
                                    }
                                },
                                {
                                    "key": "0x2acf35c9a3f4c5c3f4c78ef5fb64c3ee82f07c45",
                                    "value": {
                                        "current": "27018456539045294185",
                                        "prev": "26992206539045294185",
                                        "typeTag": 1
                                    }
                                },
                                {
                                    "key": "0xa382ec8e36567899f14ff47e9cfdad046fbe80c7",
                                    "value": {
                                        "current": "10380000000000000000",
                                        "prev": "13380000000000000000",
                                        "typeTag": 1
                                    }
                                },
                                {
                                    "key": "0xb54ce26f2e30f64c5b684b141311ce138ab5e00e",
                                    "value": {
                                        "current": "161767720581405064422",
                                        "prev": "159388720581405064422",
                                        "typeTag": 1
                                    }
                                }
                            ],
                            "typeTag": 4
                        }
                    }
                ]
            }
        ]
    }
}