{
    "balance_change": {
        "balanceChanges": []
    },
    "profile": {
        "basic_info": {
            "baseFee": "156.667747262",
            "blockNumber": 14756823,
            "callData": "0xc9807539000000000000000000000000000000000000000000000000000000000000008000000000000000000000000000000000000000000000000000000000000003200000000000000000000000000000000000000000000000000000000000000400000101010101000000000000000000000000000000000000000000000000000000000000000000000000000000000000000000000000000000000000000002800000000000000000000000e9b0afb3387a0f3b89a8206a48837c2a0002cc82040a01050b04080e0602000c0f070d09030000000000000000000000000000000000000000000000000000000000000000000000000000000000000000000000600000000000000000000000000000000000000000000000000000000000000010000000000000000000000000000000000000000000000000000000002cf45b9d000000000000000000000000000000000000000000000000000000002cf45ca9000000000000000000000000000000000000000000000000000000002cf4fc22000000000000000000000000000000000000000000000000000000002cf4fc22000000000000000000000000000000000000000000000000000000002cf5a159000000000000000000000000000000000000000000000000000000002cf665a3000000000000000000000000000000000000000000000000000000002cfadf70000000000000000000000000000000000000000000000000000000002cfadf70000000000000000000000000000000000000000000000000000000002cfadf70000000000000000000000000000000000000000000000000000000002cfadf70000000000000000000000000000000000000000000000000000000002d01675b000000000000000000000000000000000000000000000000000000002d208d14000000000000000000000000000000000000000000000000000000002d2a65a4000000000000000000000000000000000000000000000000000000002d2a65a4000000000000000000000000000000000000000000000000000000002d2bd2da000000000000000000000000000000000000000000000000000000002d2bd2da000000000000000000000000000000000000000000000000000000000000000639d23f3523b1057a2944632a186c69f381e3e15bbc4c1f9c91b827e010b4ed6aec0e7bafa5e6f0f0581c0c23fc6121a72ee76a54450cb680ead01bca960bfc593a4e8c9af2df483c675c3087f504913d3f891e72dee2d12e9ab44d64a1546e188494ea7ff3c6f483a1577f6c73c78a97f1f6ff3ca20dd1a89e04d6adbf71d5cfa6057c9b76446c07ebf70da2f8fba6908ef3c47fa11282f4181461df5cb94972977ebfe57ea4e19d9f8e0abfe53345a5c2491fc821de1d15495f3a8eddd7cb6a00000000000000000000000000000000000000000000000000000000000000067787976b57cd263e181bdf6f1d75b0d49333d978b7d9f66cb5a65cff1d1963867b65e96bf7b9afe20ef1db7215e1317dc2df7170e278505ccf509ac3939ecd2d140dd19ce610dc294998536451266ca826887430af04807dbd98dbcc6a2c9f8217830e3fb8e13bfadfee3bfc50d83a381df3922f2b7eb94261d94bae54960ef77e77c03f7140d2651ddef7b42071b4b9715b70dd079154e8e089d896062cbc924d802803137c8044b8ebe8e43b16b808c049edf7e416341e80f6c98ec2192ca7",
            "debugEnable": true,
            "errorInfo": "",
            "eventCount": 3,
            "feeRecipient": "0x8f03f1a3f10c05e7cccf75c1fd10168e06659be7",
            "formatValue": "0",
            "gasLimit": 500000,
            "gasPrice": "179.981907982",
            "gasUsed": 176439,
            "intTxnCount": 6,
            "internalRevert": false,
            "internalRevertMessage": "",
            "isContractCreation": false,
            "isFlashloan": false,
            "maxFee": "",
            "nonce": 49922,
            "overwritedBlockNumber": -1,
            "priorityFee": "",
            "receiver": "0x7a4297b2fd0ba2f5687efac4df487b1c7b71392b",
            "revertMessage": "",
            "sender": "0xc4b732fd121f2f3783a9ac2a6c62fd535fd13fda",
            "simulationEnable": true,
            "sourceTxnHash": "0xde3f0ff48b57ad9941fb56de7f5ad02b5ced7b5f03140a8639fed10af49abbb8",
            "status": true,
            "timestamp": "2022-05-11T19:50:22Z",
            "transactionFee": "0.031755827862436098",
            "txnHash": "0xde3f0ff48b57ad9941fb56de7f5ad02b5ced7b5f03140a8639fed10af49abbb8",
            "txnIndex": 33,
            "type": 0,
            "value": "0"
        },
        "fund_flow": [],
        "token_infos": [
            {
                "address": "0xc02aaa39b223fe8d0a0e5c4f27ead9083c756cc2",
                "decimals": 18
            },
            {
                "address": "0xeeeeeeeeeeeeeeeeeeeeeeeeeeeeeeeeeeeeeeee",
                "decimals": 18
            }
        ]
    },
    "address_label": {
        "labels": [
            {
                "address": "0x0000000000000000000000000000000000000004",
                "label": "Precompiled"
            },
            {
                "address": "0xeeeeeeeeeeeeeeeeeeeeeeeeeeeeeeeeeeeeeeee",
                "label": "Ether"
            },
            {
                "address": "0x7a4297b2fd0ba2f5687efac4df487b1c7b71392b",
                "label": "AccessControlledOffchainAggregator"
            },
            {
                "address": "0x0000000000000000000000000000000000000001",
                "label": "Precompiled"
            },
            {
                "address": "0x0000000000000000000000000000000000000002",
                "label": "Precompiled"
            },
            {
                "address": "0x0000000000000000000000000000000000000003",
                "label": "Precompiled"
            }
        ]
    },
    "trace": {
        "accountLabels": null,
        "dataMap": {
            "-1": {
                "invocation": {
                    "address": "0xc4b732fd121f2f3783a9ac2a6c62fd535fd13fda",
                    "callData": "",
                    "decodedMethod": null,
                    "errorInfo": "",
                    "fromAddress": "",
                    "gasUsed": 0,
                    "id": -1,
                    "methodDecoded": false,
                    "operation": "",
                    "output": "",
                    "revert": false,
                    "revertMessage": "",
                    "selector": "",
                    "status": false,
                    "value": ""
                },
                "nodeType": 0
            },
            "0": {
                "invocation": {
                    "address": "0x7a4297b2fd0ba2f5687efac4df487b1c7b71392b",
                    "callData": "0x000000000000000000000000000000000000000000000000000000000000008000000000000000000000000000000000000000000000000000000000000003200000000000000000000000000000000000000000000000000000000000000400000101010101000000000000000000000000000000000000000000000000000000000000000000000000000000000000000000000000000000000000000002800000000000000000000000e9b0afb3387a0f3b89a8206a48837c2a0002cc82040a01050b04080e0602000c0f070d09030000000000000000000000000000000000000000000000000000000000000000000000000000000000000000000000600000000000000000000000000000000000000000000000000000000000000010000000000000000000000000000000000000000000000000000000002cf45b9d000000000000000000000000000000000000000000000000000000002cf45ca9000000000000000000000000000000000000000000000000000000002cf4fc22000000000000000000000000000000000000000000000000000000002cf4fc22000000000000000000000000000000000000000000000000000000002cf5a159000000000000000000000000000000000000000000000000000000002cf665a3000000000000000000000000000000000000000000000000000000002cfadf70000000000000000000000000000000000000000000000000000000002cfadf70000000000000000000000000000000000000000000000000000000002cfadf70000000000000000000000000000000000000000000000000000000002cfadf70000000000000000000000000000000000000000000000000000000002d01675b000000000000000000000000000000000000000000000000000000002d208d14000000000000000000000000000000000000000000000000000000002d2a65a4000000000000000000000000000000000000000000000000000000002d2a65a4000000000000000000000000000000000000000000000000000000002d2bd2da000000000000000000000000000000000000000000000000000000002d2bd2da000000000000000000000000000000000000000000000000000000000000000639d23f3523b1057a2944632a186c69f381e3e15bbc4c1f9c91b827e010b4ed6aec0e7bafa5e6f0f0581c0c23fc6121a72ee76a54450cb680ead01bca960bfc593a4e8c9af2df483c675c3087f504913d3f891e72dee2d12e9ab44d64a1546e188494ea7ff3c6f483a1577f6c73c78a97f1f6ff3ca20dd1a89e04d6adbf71d5cfa6057c9b76446c07ebf70da2f8fba6908ef3c47fa11282f4181461df5cb94972977ebfe57ea4e19d9f8e0abfe53345a5c2491fc821de1d15495f3a8eddd7cb6a00000000000000000000000000000000000000000000000000000000000000067787976b57cd263e181bdf6f1d75b0d49333d978b7d9f66cb5a65cff1d1963867b65e96bf7b9afe20ef1db7215e1317dc2df7170e278505ccf509ac3939ecd2d140dd19ce610dc294998536451266ca826887430af04807dbd98dbcc6a2c9f8217830e3fb8e13bfadfee3bfc50d83a381df3922f2b7eb94261d94bae54960ef77e77c03f7140d2651ddef7b42071b4b9715b70dd079154e8e089d896062cbc924d802803137c8044b8ebe8e43b16b808c049edf7e416341e80f6c98ec2192ca7",
                    "decodedMethod": {
                        "callParams": [
                            {
                                "name": "_report",
                                "type": "bytes",
                                "value": "0x0000000000000000000000e9b0afb3387a0f3b89a8206a48837c2a0002cc82040a01050b04080e0602000c0f070d09030000000000000000000000000000000000000000000000000000000000000000000000000000000000000000000000600000000000000000000000000000000000000000000000000000000000000010000000000000000000000000000000000000000000000000000000002cf45b9d000000000000000000000000000000000000000000000000000000002cf45ca9000000000000000000000000000000000000000000000000000000002cf4fc22000000000000000000000000000000000000000000000000000000002cf4fc22000000000000000000000000000000000000000000000000000000002cf5a159000000000000000000000000000000000000000000000000000000002cf665a3000000000000000000000000000000000000000000000000000000002cfadf70000000000000000000000000000000000000000000000000000000002cfadf70000000000000000000000000000000000000000000000000000000002cfadf70000000000000000000000000000000000000000000000000000000002cfadf70000000000000000000000000000000000000000000000000000000002d01675b000000000000000000000000000000000000000000000000000000002d208d14000000000000000000000000000000000000000000000000000000002d2a65a4000000000000000000000000000000000000000000000000000000002d2a65a4000000000000000000000000000000000000000000000000000000002d2bd2da000000000000000000000000000000000000000000000000000000002d2bd2da"
                            },
                            {
                                "name": "_rs",
                                "type": "bytes32[]",
                                "value": [
                                    "0x39d23f3523b1057a2944632a186c69f381e3e15bbc4c1f9c91b827e010b4ed6a",
                                    "0xec0e7bafa5e6f0f0581c0c23fc6121a72ee76a54450cb680ead01bca960bfc59",
                                    "0x3a4e8c9af2df483c675c3087f504913d3f891e72dee2d12e9ab44d64a1546e18",
                                    "0x8494ea7ff3c6f483a1577f6c73c78a97f1f6ff3ca20dd1a89e04d6adbf71d5cf",
                                    "0xa6057c9b76446c07ebf70da2f8fba6908ef3c47fa11282f4181461df5cb94972",
                                    "0x977ebfe57ea4e19d9f8e0abfe53345a5c2491fc821de1d15495f3a8eddd7cb6a"
                                ]
                            },
                            {
                                "name": "_ss",
                                "type": "bytes32[]",
                                "value": [
                                    "0x7787976b57cd263e181bdf6f1d75b0d49333d978b7d9f66cb5a65cff1d196386",
                                    "0x7b65e96bf7b9afe20ef1db7215e1317dc2df7170e278505ccf509ac3939ecd2d",
                                    "0x140dd19ce610dc294998536451266ca826887430af04807dbd98dbcc6a2c9f82",
                                    "0x17830e3fb8e13bfadfee3bfc50d83a381df3922f2b7eb94261d94bae54960ef7",
                                    "0x7e77c03f7140d2651ddef7b42071b4b9715b70dd079154e8e089d896062cbc92",
                                    "0x4d802803137c8044b8ebe8e43b16b808c049edf7e416341e80f6c98ec2192ca7"
                                ]
                            },
                            {
                                "name": "_rawVs",
                                "type": "bytes32",
                                "value": "0x0001010101010000000000000000000000000000000000000000000000000000"
                            }
                        ],
                        "constructorArguments": "",
                        "name": "transmit",
                        "returnParams": [],
                        "signature": "transmit(bytes,bytes32[],bytes32[],bytes32)"
                    },
                    "errorInfo": "",
                    "fromAddress": "0xc4b732fd121f2f3783a9ac2a6c62fd535fd13fda",
                    "gasUsed": 176439,
                    "id": 0,
                    "methodDecoded": true,
                    "operation": "CALL",
                    "output": "",
                    "revert": false,
                    "revertMessage": "",
                    "selector": "0xc9807539",
                    "status": true,
                    "value": "0"
                },
                "nodeType": 0
            },
            "1": {
                "invocation": {
                    "address": "0x0000000000000000000000000000000000000001",
                    "callData": "0x72019028a7391804f47afcb1bb0e2b0529f5c8ee7ad4fa397beac694000000000000000000000000000000000000000000000000000000000000001b39d23f3523b1057a2944632a186c69f381e3e15bbc4c1f9c91b827e010b4ed6a7787976b57cd263e181bdf6f1d75b0d49333d978b7d9f66cb5a65cff1d196386",
                    "decodedMethod": {
                        "callParams": [
                            {
                                "name": "hash",
                                "type": "bytes32",
                                "value": "0xae5b4b6872019028a7391804f47afcb1bb0e2b0529f5c8ee7ad4fa397beac694"
                            },
                            {
                                "name": "v",
                                "type": "uint256",
                                "value": "27"
                            },
                            {
                                "name": "r",
                                "type": "bytes32",
                                "value": "0x39d23f3523b1057a2944632a186c69f381e3e15bbc4c1f9c91b827e010b4ed6a"
                            },
                            {
                                "name": "s",
                                "type": "bytes32",
                                "value": "0x7787976b57cd263e181bdf6f1d75b0d49333d978b7d9f66cb5a65cff1d196386"
                            }
                        ],
                        "constructorArguments": "",
                        "name": "ecrecover",
                        "returnParams": [
                            {
                                "name": "",
                                "type": "address",
                                "value": "0xcc1b49b86f79c7e50e294d3e3734fe94db9a42f0"
                            }
                        ],
                        "signature": "ecrecover(bytes32,uint256,bytes32,bytes32)"
                    },
                    "errorInfo": "",
                    "fromAddress": "0x7a4297b2fd0ba2f5687efac4df487b1c7b71392b",
                    "gasUsed": 3000,
                    "id": 1,
                    "methodDecoded": true,
                    "operation": "STATICCALL",
                    "output": "0x000000000000000000000000cc1b49b86f79c7e50e294d3e3734fe94db9a42f0",
                    "revert": false,
                    "revertMessage": "",
                    "selector": "0xae5b4b68",
                    "status": true,
                    "value": "0"
                },
                "nodeType": 0
            },
            "2": {
                "invocation": {
                    "address": "0x0000000000000000000000000000000000000001",
                    "callData": "0x72019028a7391804f47afcb1bb0e2b0529f5c8ee7ad4fa397beac694000000000000000000000000000000000000000000000000000000000000001cec0e7bafa5e6f0f0581c0c23fc6121a72ee76a54450cb680ead01bca960bfc597b65e96bf7b9afe20ef1db7215e1317dc2df7170e278505ccf509ac3939ecd2d",
                    "decodedMethod": {
                        "callParams": [
                            {
                                "name": "hash",
                                "type": "bytes32",
                                "value": "0xae5b4b6872019028a7391804f47afcb1bb0e2b0529f5c8ee7ad4fa397beac694"
                            },
                            {
                                "name": "v",
                                "type": "uint256",
                                "value": "28"
                            },
                            {
                                "name": "r",
                                "type": "bytes32",
                                "value": "0xec0e7bafa5e6f0f0581c0c23fc6121a72ee76a54450cb680ead01bca960bfc59"
                            },
                            {
                                "name": "s",
                                "type": "bytes32",
                                "value": "0x7b65e96bf7b9afe20ef1db7215e1317dc2df7170e278505ccf509ac3939ecd2d"
                            }
                        ],
                        "constructorArguments": "",
                        "name": "ecrecover",
                        "returnParams": [
                            {
                                "name": "",
                                "type": "address",
                                "value": "0x21389cbcdb25c8859c704bd8cd7252902384fcef"
                            }
                        ],
                        "signature": "ecrecover(bytes32,uint256,bytes32,bytes32)"
                    },
                    "errorInfo": "",
                    "fromAddress": "0x7a4297b2fd0ba2f5687efac4df487b1c7b71392b",
                    "gasUsed": 3000,
                    "id": 2,
                    "methodDecoded": true,
                    "operation": "STATICCALL",
                    "output": "0x00000000000000000000000021389cbcdb25c8859c704bd8cd7252902384fcef",
                    "revert": false,
                    "revertMessage": "",
                    "selector": "0xae5b4b68",
                    "status": true,
                    "value": "0"
                },
                "nodeType": 0
            },
            "3": {
                "invocation": {
                    "address": "0x0000000000000000000000000000000000000001",
                    "callData": "0x72019028a7391804f47afcb1bb0e2b0529f5c8ee7ad4fa397beac694000000000000000000000000000000000000000000000000000000000000001c3a4e8c9af2df483c675c3087f504913d3f891e72dee2d12e9ab44d64a1546e18140dd19ce610dc294998536451266ca826887430af04807dbd98dbcc6a2c9f82",
                    "decodedMethod": {
                        "callParams": [
                            {
                                "name": "hash",
                                "type": "bytes32",
                                "value": "0xae5b4b6872019028a7391804f47afcb1bb0e2b0529f5c8ee7ad4fa397beac694"
                            },
                            {
                                "name": "v",
                                "type": "uint256",
                                "value": "28"
                            },
                            {
                                "name": "r",
                                "type": "bytes32",
                                "value": "0x3a4e8c9af2df483c675c3087f504913d3f891e72dee2d12e9ab44d64a1546e18"
                            },
                            {
                                "name": "s",
                                "type": "bytes32",
                                "value": "0x140dd19ce610dc294998536451266ca826887430af04807dbd98dbcc6a2c9f82"
                            }
                        ],
                        "constructorArguments": "",
                        "name": "ecrecover",
                        "returnParams": [
                            {
                                "name": "",
                                "type": "address",
                                "value": "0x503bd542a29f089319855cd9f6f6f937c7be87c7"
                            }
                        ],
                        "signature": "ecrecover(bytes32,uint256,bytes32,bytes32)"
                    },
                    "errorInfo": "",
                    "fromAddress": "0x7a4297b2fd0ba2f5687efac4df487b1c7b71392b",
                    "gasUsed": 3000,
                    "id": 3,
                    "methodDecoded": true,
                    "operation": "STATICCALL",
                    "output": "0x000000000000000000000000503bd542a29f089319855cd9f6f6f937c7be87c7",
                    "revert": false,
                    "revertMessage": "",
                    "selector": "0xae5b4b68",
                    "status": true,
                    "value": "0"
                },
                "nodeType": 0
            },
            "4": {
                "invocation": {
                    "address": "0x0000000000000000000000000000000000000001",
                    "callData": "0x72019028a7391804f47afcb1bb0e2b0529f5c8ee7ad4fa397beac694000000000000000000000000000000000000000000000000000000000000001c8494ea7ff3c6f483a1577f6c73c78a97f1f6ff3ca20dd1a89e04d6adbf71d5cf17830e3fb8e13bfadfee3bfc50d83a381df3922f2b7eb94261d94bae54960ef7",
                    "decodedMethod": {
                        "callParams": [
                            {
                                "name": "hash",
                                "type": "bytes32",
                                "value": "0xae5b4b6872019028a7391804f47afcb1bb0e2b0529f5c8ee7ad4fa397beac694"
                            },
                            {
                                "name": "v",
                                "type": "uint256",
                                "value": "28"
                            },
                            {
                                "name": "r",
                                "type": "bytes32",
                                "value": "0x8494ea7ff3c6f483a1577f6c73c78a97f1f6ff3ca20dd1a89e04d6adbf71d5cf"
                            },
                            {
                                "name": "s",
                                "type": "bytes32",
                                "value": "0x17830e3fb8e13bfadfee3bfc50d83a381df3922f2b7eb94261d94bae54960ef7"
                            }
                        ],
                        "constructorArguments": "",
                        "name": "ecrecover",
                        "returnParams": [
                            {
                                "name": "",
                                "type": "address",
                                "value": "0x22b4a3a7224db951d2804e427fbc3c5fc02b6c5e"
                            }
                        ],
                        "signature": "ecrecover(bytes32,uint256,bytes32,bytes32)"
                    },
                    "errorInfo": "",
                    "fromAddress": "0x7a4297b2fd0ba2f5687efac4df487b1c7b71392b",
                    "gasUsed": 3000,
                    "id": 4,
                    "methodDecoded": true,
                    "operation": "STATICCALL",
                    "output": "0x00000000000000000000000022b4a3a7224db951d2804e427fbc3c5fc02b6c5e",
                    "revert": false,
                    "revertMessage": "",
                    "selector": "0xae5b4b68",
                    "status": true,
                    "value": "0"
                },
                "nodeType": 0
            },
            "5": {
                "invocation": {
                    "address": "0x0000000000000000000000000000000000000001",
                    "callData": "0x72019028a7391804f47afcb1bb0e2b0529f5c8ee7ad4fa397beac694000000000000000000000000000000000000000000000000000000000000001ca6057c9b76446c07ebf70da2f8fba6908ef3c47fa11282f4181461df5cb949727e77c03f7140d2651ddef7b42071b4b9715b70dd079154e8e089d896062cbc92",
                    "decodedMethod": {
                        "callParams": [
                            {
                                "name": "hash",
                                "type": "bytes32",
                                "value": "0xae5b4b6872019028a7391804f47afcb1bb0e2b0529f5c8ee7ad4fa397beac694"
                            },
                            {
                                "name": "v",
                                "type": "uint256",
                                "value": "28"
                            },
                            {
                                "name": "r",
                                "type": "bytes32",
                                "value": "0xa6057c9b76446c07ebf70da2f8fba6908ef3c47fa11282f4181461df5cb94972"
                            },
                            {
                                "name": "s",
                                "type": "bytes32",
                                "value": "0x7e77c03f7140d2651ddef7b42071b4b9715b70dd079154e8e089d896062cbc92"
                            }
                        ],
                        "constructorArguments": "",
                        "name": "ecrecover",
                        "returnParams": [
                            {
                                "name": "",
                                "type": "address",
                                "value": "0x8eb664cd767f12507e7e3864ba5b7e925090a0e5"
                            }
                        ],
                        "signature": "ecrecover(bytes32,uint256,bytes32,bytes32)"
                    },
                    "errorInfo": "",
                    "fromAddress": "0x7a4297b2fd0ba2f5687efac4df487b1c7b71392b",
                    "gasUsed": 3000,
                    "id": 5,
                    "methodDecoded": true,
                    "operation": "STATICCALL",
                    "output": "0x0000000000000000000000008eb664cd767f12507e7e3864ba5b7e925090a0e5",
                    "revert": false,
                    "revertMessage": "",
                    "selector": "0xae5b4b68",
                    "status": true,
                    "value": "0"
                },
                "nodeType": 0
            },
            "6": {
                "invocation": {
                    "address": "0x0000000000000000000000000000000000000001",
                    "callData": "0x72019028a7391804f47afcb1bb0e2b0529f5c8ee7ad4fa397beac694000000000000000000000000000000000000000000000000000000000000001c977ebfe57ea4e19d9f8e0abfe53345a5c2491fc821de1d15495f3a8eddd7cb6a4d802803137c8044b8ebe8e43b16b808c049edf7e416341e80f6c98ec2192ca7",
                    "decodedMethod": {
                        "callParams": [
                            {
                                "name": "hash",
                                "type": "bytes32",
                                "value": "0xae5b4b6872019028a7391804f47afcb1bb0e2b0529f5c8ee7ad4fa397beac694"
                            },
                            {
                                "name": "v",
                                "type": "uint256",
                                "value": "28"
                            },
                            {
                                "name": "r",
                                "type": "bytes32",
                                "value": "0x977ebfe57ea4e19d9f8e0abfe53345a5c2491fc821de1d15495f3a8eddd7cb6a"
                            },
                            {
                                "name": "s",
                                "type": "bytes32",
                                "value": "0x4d802803137c8044b8ebe8e43b16b808c049edf7e416341e80f6c98ec2192ca7"
                            }
                        ],
                        "constructorArguments": "",
                        "name": "ecrecover",
                        "returnParams": [
                            {
                                "name": "",
                                "type": "address",
                                "value": "0xf1dac07ba17bdb594ef9f8d334660301b2c4ab31"
                            }
                        ],
                        "signature": "ecrecover(bytes32,uint256,bytes32,bytes32)"
                    },
                    "errorInfo": "",
                    "fromAddress": "0x7a4297b2fd0ba2f5687efac4df487b1c7b71392b",
                    "gasUsed": 3000,
                    "id": 6,
                    "methodDecoded": true,
                    "operation": "STATICCALL",
                    "output": "0x000000000000000000000000f1dac07ba17bdb594ef9f8d334660301b2c4ab31",
                    "revert": false,
                    "revertMessage": "",
                    "selector": "0xae5b4b68",
                    "status": true,
                    "value": "0"
                },
                "nodeType": 0
            },
            "7": {
                "event": {
                    "contract": "0x7a4297b2fd0ba2f5687efac4df487b1c7b71392b",
                    "decodedLog": {
                        "name": "NewTransmission",
                        "params": [
                            {
                                "name": "aggregatorRoundId",
                                "type": "uint32",
                                "value": "2,010"
                            },
                            {
                                "name": "answer",
                                "type": "int192",
                                "value": "754,638,704"
                            },
                            {
                                "name": "transmitter",
                                "type": "address",
                                "value": "0xc4b732fd121f2f3783a9ac2a6c62fd535fd13fda"
                            },
                            {
                                "name": "observations",
                                "type": "int192[]",
                                "value": [
                                    "754,211,741",
                                    "754,212,009",
                                    "754,252,834",
                                    "754,252,834",
                                    "754,295,129",
                                    "754,345,379",
                                    "754,638,704",
                                    "754,638,704",
                                    "754,638,704",
                                    "754,638,704",
                                    "755,066,715",
                                    "757,107,988",
                                    "757,753,252",
                                    "757,753,252",
                                    "757,846,746",
                                    "757,846,746"
                                ]
                            },
                            {
                                "name": "observers",
                                "type": "bytes",
                                "value": "0x0a01050b04080e0602000c0f070d0903"
                            },
                            {
                                "name": "rawReportContext",
                                "type": "bytes32",
                                "value": "0x0000000000000000000000e9b0afb3387a0f3b89a8206a48837c2a0002cc8204"
                            }
                        ],
                        "signature": "NewTransmission(uint32,int192,address,int192[],bytes,bytes32)"
                    },
                    "id": 7,
                    "logData": "0x000000000000000000000000000000000000000000000000000000002cfadf70000000000000000000000000c4b732fd121f2f3783a9ac2a6c62fd535fd13fda00000000000000000000000000000000000000000000000000000000000000a000000000000000000000000000000000000000000000000000000000000002c00000000000000000000000e9b0afb3387a0f3b89a8206a48837c2a0002cc82040000000000000000000000000000000000000000000000000000000000000010000000000000000000000000000000000000000000000000000000002cf45b9d000000000000000000000000000000000000000000000000000000002cf45ca9000000000000000000000000000000000000000000000000000000002cf4fc22000000000000000000000000000000000000000000000000000000002cf4fc22000000000000000000000000000000000000000000000000000000002cf5a159000000000000000000000000000000000000000000000000000000002cf665a3000000000000000000000000000000000000000000000000000000002cfadf70000000000000000000000000000000000000000000000000000000002cfadf70000000000000000000000000000000000000000000000000000000002cfadf70000000000000000000000000000000000000000000000000000000002cfadf70000000000000000000000000000000000000000000000000000000002d01675b000000000000000000000000000000000000000000000000000000002d208d14000000000000000000000000000000000000000000000000000000002d2a65a4000000000000000000000000000000000000000000000000000000002d2a65a4000000000000000000000000000000000000000000000000000000002d2bd2da000000000000000000000000000000000000000000000000000000002d2bd2da00000000000000000000000000000000000000000000000000000000000000100a01050b04080e0602000c0f070d090300000000000000000000000000000000",
                    "logDecoded": true,
                    "operation": "EVENT",
                    "revert": false,
                    "status": true,
                    "topics": [
                        "0xf6a97944f31ea060dfde0566e4167c1a1082551e64b60ecb14d599a9d023d451",
                        "0x00000000000000000000000000000000000000000000000000000000000007da"
                    ]
                },
                "nodeType": 1
            },
            "8": {
                "event": {
                    "contract": "0x7a4297b2fd0ba2f5687efac4df487b1c7b71392b",
                    "decodedLog": {
                        "name": "NewRound",
                        "params": [
                            {
                                "name": "roundId",
                                "type": "uint256",
                                "value": "2,010"
                            },
                            {
                                "name": "startedBy",
                                "type": "address",
                                "value": "0x0000000000000000000000000000000000000000"
                            },
                            {
                                "name": "startedAt",
                                "type": "uint256",
                                "value": "1,652,298,622"
                            }
                        ],
                        "signature": "NewRound(uint256,address,uint256)"
                    },
                    "id": 8,
                    "logData": "0x00000000000000000000000000000000000000000000000000000000627c137e",
                    "logDecoded": true,
                    "operation": "EVENT",
                    "revert": false,
                    "status": true,
                    "topics": [
                        "0x0109fc6f55cf40689f02fbaad7af7fe7bbac8a3d2186600afc7d3e10cac60271",
                        "0x00000000000000000000000000000000000000000000000000000000000007da",
                        "0x0000000000000000000000000000000000000000000000000000000000000000"
                    ]
                },
                "nodeType": 1
            },
            "9": {
                "event": {
                    "contract": "0x7a4297b2fd0ba2f5687efac4df487b1c7b71392b",
                    "decodedLog": {
                        "name": "AnswerUpdated",
                        "params": [
                            {
                                "name": "current",
                                "type": "int256",
                                "value": "754,638,704"
                            },
                            {
                                "name": "roundId",
                                "type": "uint256",
                                "value": "2,010"
                            },
                            {
                                "name": "updatedAt",
                                "type": "uint256",
                                "value": "1,652,298,622"
                            }
                        ],
                        "signature": "AnswerUpdated(int256,uint256,uint256)"
                    },
                    "id": 9,
                    "logData": "0x00000000000000000000000000000000000000000000000000000000627c137e",
                    "logDecoded": true,
                    "operation": "EVENT",
                    "revert": false,
                    "status": true,
                    "topics": [
                        "0x0559884fd3a460db3073b7fc896cc77986f16e378210ded43186175bf646fc5f",
                        "0x000000000000000000000000000000000000000000000000000000002cfadf70",
                        "0x00000000000000000000000000000000000000000000000000000000000007da"
                    ]
                },
                "nodeType": 1
            }
        },
        "gasFlame": [
            {
                "children": [
                    {
                        "children": [
                            {
                                "children": [],
                                "depth": 0,
                                "name": "Initial Gas",
                                "value": 32032
                            },
                            {
                                "children": [
                                    {
                                        "children": [],
                                        "depth": 1,
                                        "name": "ecrecover",
                                        "value": 3000
                                    },
                                    {
                                        "children": [],
                                        "depth": 1,
                                        "name": "ecrecover",
                                        "value": 3000
                                    },
                                    {
                                        "children": [],
                                        "depth": 1,
                                        "name": "ecrecover",
                                        "value": 3000
                                    },
                                    {
                                        "children": [],
                                        "depth": 1,
                                        "name": "ecrecover",
                                        "value": 3000
                                    },
                                    {
                                        "children": [],
                                        "depth": 1,
                                        "name": "ecrecover",
                                        "value": 3000
                                    },
                                    {
                                        "children": [],
                                        "depth": 1,
                                        "name": "ecrecover",
                                        "value": 3000
                                    }
                                ],
                                "depth": 0,
                                "name": "Executed Gas",
                                "value": 144407
                            }
                        ],
                        "depth": -1,
                        "name": "Actual Gas Used",
                        "value": 176439
                    },
                    {
                        "children": [],
                        "depth": -1,
                        "name": "Refunded Gas",
                        "value": 0
                    }
                ],
                "depth": -2,
                "name": "Total Gas",
                "value": 176439
            }
        ],
        "isConfirmed": true,
        "mainTrace": [
            {
                "children": [
                    {
                        "children": [
                            {
                                "children": [],
                                "depth": 1,
                                "id": 1,
                                "order": 1
                            },
                            {
                                "children": [],
                                "depth": 1,
                                "id": 2,
                                "order": 2
                            },
                            {
                                "children": [],
                                "depth": 1,
                                "id": 3,
                                "order": 3
                            },
                            {
                                "children": [],
                                "depth": 1,
                                "id": 4,
                                "order": 4
                            },
                            {
                                "children": [],
                                "depth": 1,
                                "id": 5,
                                "order": 5
                            },
                            {
                                "children": [],
                                "depth": 1,
                                "id": 6,
                                "order": 6
                            },
                            {
                                "children": [],
                                "depth": 1,
                                "id": 7,
                                "order": 7
                            },
                            {
                                "children": [],
                                "depth": 1,
                                "id": 8,
                                "order": 8
                            },
                            {
                                "children": [],
                                "depth": 1,
                                "id": 9,
                                "order": 9
                            }
                        ],
                        "depth": 0,
                        "id": 0,
                        "order": 0
                    }
                ],
                "depth": -1,
                "id": -1,
                "order": -1
            }
        ],
        "mainTraceNodeCount": 10,
        "parentIdMap": {
            "0": -1,
            "1": 0,
            "2": 0,
            "3": 0,
            "4": 0,
            "5": 0,
            "6": 0,
            "7": 0,
            "8": 0,
            "9": 0
        },
        "tidyTrace": [
            {
                "children": [
                    {
                        "children": [
                            {
                                "children": [],
                                "depth": 1,
                                "id": 7,
                                "order": 7
                            },
                            {
                                "children": [],
                                "depth": 1,
                                "id": 8,
                                "order": 8
                            },
                            {
                                "children": [],
                                "depth": 1,
                                "id": 9,
                                "order": 9
                            }
                        ],
                        "depth": 0,
                        "id": 0,
                        "order": 0
                    }
                ],
                "depth": -1,
                "id": -1,
                "order": -1
            }
        ],
        "tidyTraceNodeCount": 4
    },
    "state_change": {
        "stateChanges": [
            {
                "address": "0x7a4297b2fd0ba2f5687efac4df487b1c7b71392b",
                "erc": "",
                "slots": [
                    {
                        "current": "0x00000000627c137e00000000000000000000000000000000000000002cfadf70",
                        "key": "0xa02879605ad4a670893c61ed82bee8197cddcb972a477c84e009aa508b0708d6",
                        "prev": "0x0000000000000000000000000000000000000000000000000000000000000000"
                    },
                    {
                        "current": "0x000000000000000007da050002cc8204e9b0afb3387a0f3b89a8206a48837c2a",
                        "key": "0x000000000000000000000000000000000000000000000000000000000000002a",
                        "prev": "0x000000000000000007d9050002cc4d01e9b0afb3387a0f3b89a8206a48837c2a"
                    },
                    {
                        "current": "0x0003000300030003000300030003000300030003000300030003000300030003",
                        "key": "0x0000000000000000000000000000000000000000000000000000000000000004",
                        "prev": "0x0002000200020002000200020002000200020002000200020002000200020002"
                    },
                    {
                        "current": "0x0000000000000000000000000000000000000000000000007f94aeea22d52801",
                        "key": "0x0000000000000000000000000000000000000000000000000000000000000014",
                        "prev": "0x0000000000000000000000000000000000000000000000000000000000000001"
                    }
                ],
                "storageVariables": [
                    {
                        "name": "s_transmissions",
                        "type": "mapping(uint32 => struct OffchainAggregator.Transmission)",
                        "value": {
                            "pairs": [
                                {
                                    "key": "2010",
                                    "value": {
                                        "fields": [
                                            {
                                                "name": "answer",
                                                "type": "int192",
                                                "value": {
                                                    "current": "754638704",
                                                    "prev": "0",
                                                    "typeTag": 1
                                                }
                                            },
                                            {
                                                "name": "timestamp",
                                                "type": "uint64",
                                                "value": {
                                                    "current": "1652298622",
                                                    "prev": "0",
                                                    "typeTag": 1
                                                }
                                            }
                                        ],
                                        "typeTag": 3
                                    }
                                }
                            ],
                            "typeTag": 4
                        }
                    },
                    {
                        "name": "s_hotVars",
                        "type": "struct OffchainAggregator.HotVars",
                        "value": {
                            "fields": [
                                {
                                    "name": "latestConfigDigest",
                                    "type": "bytes16",
                                    "value": {
                                        "current": "0xe9b0afb3387a0f3b89a8206a48837c2a",
                                        "prev": "0xe9b0afb3387a0f3b89a8206a48837c2a",
                                        "typeTag": 1
                                    }
                                },
                                {
                                    "name": "latestEpochAndRound",
                                    "type": "uint40",
                                    "value": {
                                        "current": "46957060",
                                        "prev": "46943489",
                                        "typeTag": 1
                                    }
                                },
                                {
                                    "name": "threshold",
                                    "type": "uint8",
                                    "value": {
                                        "current": "5",
                                        "prev": "5",
                                        "typeTag": 1
                                    }
                                },
                                {
                                    "name": "latestAggregatorRoundId",
                                    "type": "uint32",
                                    "value": {
                                        "current": "2010",
                                        "prev": "2009",
                                        "typeTag": 1
                                    }
                                }
                            ],
                            "typeTag": 3
                        }
                    },
                    {
                        "name": "s_oracleObservationsCounts",
                        "type": "uint16[31]",
                        "value": {
                            "elemType": "uint16",
                            "elems": [
                                {
                                    "index": 0,
                                    "value": {
                                        "current": "3",
                                        "prev": "2",
                                        "typeTag": 1
                                    }
                                },
                                {
                                    "index": 1,
                                    "value": {
                                        "current": "3",
                                        "prev": "2",
                                        "typeTag": 1
                                    }
                                },
                                {
                                    "index": 2,
                                    "value": {
                                        "current": "3",
                                        "prev": "2",
                                        "typeTag": 1
                                    }
                                },
                                {
                                    "index": 3,
                                    "value": {
                                        "current": "3",
                                        "prev": "2",
                                        "typeTag": 1
                                    }
                                },
                                {
                                    "index": 4,
                                    "value": {
                                        "current": "3",
                                        "prev": "2",
                                        "typeTag": 1
                                    }
                                },
                                {
                                    "index": 5,
                                    "value": {
                                        "current": "3",
                                        "prev": "2",
                                        "typeTag": 1
                                    }
                                },
                                {
                                    "index": 6,
                                    "value": {
                                        "current": "3",
                                        "prev": "2",
                                        "typeTag": 1
                                    }
                                },
                                {
                                    "index": 7,
                                    "value": {
                                        "current": "3",
                                        "prev": "2",
                                        "typeTag": 1
                                    }
                                },
                                {
                                    "index": 8,
                                    "value": {
                                        "current": "3",
                                        "prev": "2",
                                        "typeTag": 1
                                    }
                                },
                                {
                                    "index": 9,
                                    "value": {
                                        "current": "3",
                                        "prev": "2",
                                        "typeTag": 1
                                    }
                                },
                                {
                                    "index": 10,
                                    "value": {
                                        "current": "3",
                                        "prev": "2",
                                        "typeTag": 1
                                    }
                                },
                                {
                                    "index": 11,
                                    "value": {
                                        "current": "3",
                                        "prev": "2",
                                        "typeTag": 1
                                    }
                                },
                                {
                                    "index": 12,
                                    "value": {
                                        "current": "3",
                                        "prev": "2",
                                        "typeTag": 1
                                    }
                                },
                                {
                                    "index": 13,
                                    "value": {
                                        "current": "3",
                                        "prev": "2",
                                        "typeTag": 1
                                    }
                                },
                                {
                                    "index": 14,
                                    "value": {
                                        "current": "3",
                                        "prev": "2",
                                        "typeTag": 1
                                    }
                                }
                            ],
                            "typeTag": 2
                        }
                    }
                ]
            }
        ]
    }
}