{
    "balance_change": {
        "balanceChanges": [
            {
                "account": "0x1cf682fa852995099759c91bc8ba23bf74360e0e",
                "assets": [
                    {
                        "address": "0xeeeeeeeeeeeeeeeeeeeeeeeeeeeeeeeeeeeeeeee",
                        "amount": "0.005",
                        "iconUrl": "https://assets.blocksec.com/image/1663669189317-3.png",
                        "isERC1155": false,
                        "isERC721": false,
                        "sign": false,
                        "value": ""
                    }
                ]
            },
            {
                "account": "0x6b6220677b93e8fc9dc3ffe582e481b7a56c79a9",
                "assets": [
                    {
                        "address": "0xeeeeeeeeeeeeeeeeeeeeeeeeeeeeeeeeeeeeeeee",
                        "amount": "0.005",
                        "iconUrl": "https://assets.blocksec.com/image/1663669189317-3.png",
                        "isERC1155": false,
                        "isERC721": false,
                        "sign": true,
                        "value": ""
                    }
                ]
            }
        ]
    },
    "profile": {
        "basic_info": {
            "baseFee": "",
            "blockNumber": 5369412,
            "callData": "0x44dc4dec000000000000000000000000000000000000000000000000000000000009a995",
            "debugEnable": true,
            "errorInfo": "",
            "eventCount": 1,
            "feeRecipient": "0x6b7d50bb8fab584e54251a10e1c6cfa51dd7b618",
            "formatValue": "0.005",
            "gasLimit": 160000,
            "gasPrice": "3",
            "gasUsed": 102483,
            "intTxnCount": 1,
            "internalRevert": false,
            "internalRevertMessage": "",
            "isContractCreation": false,
            "isFlashloan": false,
            "maxFee": "",
            "nonce": 3023,
            "overwritedBlockNumber": -1,
            "priorityFee": "",
            "receiver": "0x6b6220677b93e8fc9dc3ffe582e481b7a56c79a9",
            "revertMessage": "",
            "sender": "0x1cf682fa852995099759c91bc8ba23bf74360e0e",
            "simulationEnable": true,
            "sourceTxnHash": "0xdee7001b29c125bc9b86cbb19f54ef2db5584bdb8ea65b730b04db16c7a831b3",
            "status": true,
            "timestamp": "2018-04-02T22:01:43Z",
            "transactionFee": "0.000307449",
            "txnHash": "0xdee7001b29c125bc9b86cbb19f54ef2db5584bdb8ea65b730b04db16c7a831b3",
            "txnIndex": 61,
            "type": 0,
            "value": "5000000000000000"
        },
        "fund_flow": [
            {
                "amount": "0.005",
                "from": "0x1cf682fa852995099759c91bc8ba23bf74360e0e",
                "id": 1,
                "isERC1155": false,
                "isERC721": false,
                "isReverted": false,
                "order": 1,
                "to": "0x6b6220677b93e8fc9dc3ffe582e481b7a56c79a9",
                "token": "0xeeeeeeeeeeeeeeeeeeeeeeeeeeeeeeeeeeeeeeee"
            }
        ],
        "token_infos": [
            {
                "address": "0xc02aaa39b223fe8d0a0e5c4f27ead9083c756cc2",
                "decimals": 18
            },
            {
                "address": "0xeeeeeeeeeeeeeeeeeeeeeeeeeeeeeeeeeeeeeeee",
                "decimals": 18
            }
        ]
    },
    "address_label": {
        "labels": [
            {
                "address": "0xeeeeeeeeeeeeeeeeeeeeeeeeeeeeeeeeeeeeeeee",
                "label": "Ether"
            },
            {
                "address": "0x06012c8cf97bead5deae237070f9587f8e7a266d",
                "label": "CryptoKitties: Core"
            },
            {
                "address": "0x6b6220677b93e8fc9dc3ffe582e481b7a56c79a9",
                "label": "KittyRace"
            },
            {
                "address": "0x0000000000000000000000000000000000000001",
                "label": "Precompiled"
            },
            {
                "address": "0x0000000000000000000000000000000000000002",
                "label": "Precompiled"
            },
            {
                "address": "0x0000000000000000000000000000000000000003",
                "label": "Precompiled"
            },
            {
                "address": "0x0000000000000000000000000000000000000004",
                "label": "Precompiled"
            }
        ]
    },
    "trace": {
        "accountLabels": null,
        "dataMap": {
            "-1": {
                "invocation": {
                    "address": "0x1cf682fa852995099759c91bc8ba23bf74360e0e",
                    "callData": "",
                    "decodedMethod": null,
                    "errorInfo": "",
                    "fromAddress": "",
                    "gasUsed": 0,
                    "id": -1,
                    "methodDecoded": false,
                    "operation": "",
                    "output": "",
                    "revert": false,
                    "revertMessage": "",
                    "selector": "",
                    "status": false,
                    "value": ""
                },
                "nodeType": 0
            },
            "0": {
                "invocation": {
                    "address": "0x6b6220677b93e8fc9dc3ffe582e481b7a56c79a9",
                    "callData": "0x000000000000000000000000000000000000000000000000000000000009a995",
                    "decodedMethod": {
                        "callParams": [
                            {
                                "name": "_kittyId",
                                "type": "uint256",
                                "value": "633,237"
                            }
                        ],
                        "constructorArguments": "",
                        "name": "registerForRace",
                        "returnParams": [
                            {
                                "name": "",
                                "type": "uint256",
                                "value": "1,176"
                            }
                        ],
                        "signature": "registerForRace(uint256)"
                    },
                    "errorInfo": "",
                    "fromAddress": "0x1cf682fa852995099759c91bc8ba23bf74360e0e",
                    "gasUsed": 102483,
                    "id": 0,
                    "methodDecoded": true,
                    "operation": "CALL",
                    "output": "0x0000000000000000000000000000000000000000000000000000000000000498",
                    "revert": false,
                    "revertMessage": "",
                    "selector": "0x44dc4dec",
                    "status": true,
                    "value": "0.005"
                },
                "nodeType": 0
            },
            "1": {
                "invocation": {
                    "address": "0x06012c8cf97bead5deae237070f9587f8e7a266d",
                    "callData": "0x000000000000000000000000000000000000000000000000000000000009a995",
                    "decodedMethod": {
                        "callParams": [
                            {
                                "name": "_tokenId",
                                "type": "uint256",
                                "value": "633,237"
                            }
                        ],
                        "constructorArguments": "",
                        "name": "ownerOf",
                        "returnParams": [
                            {
                                "name": "owner",
                                "type": "address",
                                "value": "0x1cf682fa852995099759c91bc8ba23bf74360e0e"
                            }
                        ],
                        "signature": "ownerOf(uint256)"
                    },
                    "errorInfo": "",
                    "fromAddress": "0x6b6220677b93e8fc9dc3ffe582e481b7a56c79a9",
                    "gasUsed": 1371,
                    "id": 1,
                    "methodDecoded": true,
                    "operation": "CALL",
                    "output": "0x0000000000000000000000001cf682fa852995099759c91bc8ba23bf74360e0e",
                    "revert": false,
                    "revertMessage": "",
                    "selector": "0x6352211e",
                    "status": true,
                    "value": "0"
                },
                "nodeType": 0
            },
            "2": {
                "event": {
                    "contract": "0x6b6220677b93e8fc9dc3ffe582e481b7a56c79a9",
                    "decodedLog": {
                        "name": "RegisterEvent",
                        "params": [
                            {
                                "name": "raceId",
                                "type": "uint32",
                                "value": "1,176"
                            },
                            {
                                "name": "kittyAddress",
                                "type": "address",
                                "value": "0x1cf682fa852995099759c91bc8ba23bf74360e0e"
                            },
                            {
                                "name": "kittyId",
                                "type": "uint256",
                                "value": "633,237"
                            },
                            {
                                "name": "position",
                                "type": "uint256",
                                "value": "2"
                            }
                        ],
                        "signature": "RegisterEvent(uint32,address,uint256,uint256)"
                    },
                    "id": 2,
                    "logData": "0x00000000000000000000000000000000000000000000000000000000000004980000000000000000000000001cf682fa852995099759c91bc8ba23bf74360e0e000000000000000000000000000000000000000000000000000000000009a9950000000000000000000000000000000000000000000000000000000000000002",
                    "logDecoded": true,
                    "operation": "EVENT",
                    "revert": false,
                    "status": true,
                    "topics": [
                        "0x1f333758fd922bc0d77e736277f389313b09d08b24bc069b7d2dfe295248a4bc"
                    ]
                },
                "nodeType": 1
            }
        },
        "gasFlame": [
            {
                "children": [
                    {
                        "children": [
                            {
                                "children": [],
                                "depth": 0,
                                "name": "Initial Gas",
                                "value": 21592
                            },
                            {
                                "children": [
                                    {
                                        "children": [],
                                        "depth": 1,
                                        "name": "ownerOf",
                                        "value": 1371
                                    }
                                ],
                                "depth": 0,
                                "name": "Executed Gas",
                                "value": 80891
                            }
                        ],
                        "depth": -1,
                        "name": "Actual Gas Used",
                        "value": 102483
                    },
                    {
                        "children": [],
                        "depth": -1,
                        "name": "Refunded Gas",
                        "value": 0
                    }
                ],
                "depth": -2,
                "name": "Total Gas",
                "value": 102483
            }
        ],
        "isConfirmed": true,
        "mainTrace": [
            {
                "children": [
                    {
                        "children": [
                            {
                                "children": [],
                                "depth": 1,
                                "id": 1,
                                "order": 1
                            },
                            {
                                "children": [],
                                "depth": 1,
                                "id": 2,
                                "order": 2
                            }
                        ],
                        "depth": 0,
                        "id": 0,
                        "order": 0
                    }
                ],
                "depth": -1,
                "id": -1,
                "order": -1
            }
        ],
        "mainTraceNodeCount": 3,
        "parentIdMap": {
            "0": -1,
            "1": 0,
            "2": 0
        },
        "tidyTrace": [
            {
                "children": [
                    {
                        "children": [
                            {
                                "children": [],
                                "depth": 1,
                                "id": 1,
                                "order": 1
                            },
                            {
                                "children": [],
                                "depth": 1,
                                "id": 2,
                                "order": 2
                            }
                        ],
                        "depth": 0,
                        "id": 0,
                        "order": 0
                    }
                ],
                "depth": -1,
                "id": -1,
                "order": -1
            }
        ],
        "tidyTraceNodeCount": 3
    },
    "state_change": {
        "stateChanges": [
            {
                "address": "0x6b6220677b93e8fc9dc3ffe582e481b7a56c79a9",
                "erc": "",
                "slots": [
                    {
                        "current": "0x000000000000000000000000000000000000000000000000000000000009a995",
                        "key": "0xb81297a9277c9f04aacdd8eafa6bfe567544f1038c785e4f2f9437918b46a3d7",
                        "prev": "0x0000000000000000000000000000000000000000000000000000000000000000"
                    },
                    {
                        "current": "0x0000000000000000000000000000000000000000000000000000000000000001",
                        "key": "0x859cfc16f30813772b15afea3e74fc1d972457fd64c9afb8745679cc57cf3279",
                        "prev": "0x0000000000000000000000000000000000000000000000000000000000000000"
                    },
                    {
                        "current": "0x0000000000000000000000000000000000000000000000000051ee440051ee31",
                        "key": "0xc0e796601d8c48a8d3f5872f54a9ead7c3e622dc792a62c2b5f096cbacca9e27",
                        "prev": "0x0000000000000000000000000000000000000000000000000051ee420051ee31"
                    },
                    {
                        "current": "0x0000000000000000000000000000000000000000000000000000000000000003",
                        "key": "0xc0e796601d8c48a8d3f5872f54a9ead7c3e622dc792a62c2b5f096cbacca9e28",
                        "prev": "0x0000000000000000000000000000000000000000000000000000000000000002"
                    },
                    {
                        "current": "0x0000000000000000000000001cf682fa852995099759c91bc8ba23bf74360e0e",
                        "key": "0xb81297a9277c9f04aacdd8eafa6bfe567544f1038c785e4f2f9437918b46a3d6",
                        "prev": "0x0000000000000000000000000000000000000000000000000000000000000000"
                    }
                ],
                "storageVariables": [
                    {
                        "name": "races",
                        "type": "mapping(uint256 => struct KittyRace.Race)",
                        "value": {
                            "pairs": [
                                {
                                    "key": "1176",
                                    "value": {
                                        "fields": [
                                            {
                                                "name": "blockJoinedFirstRacer",
                                                "type": "uint32",
                                                "value": {
                                                    "current": "5369393",
                                                    "prev": "5369393",
                                                    "typeTag": 1
                                                }
                                            },
                                            {
                                                "name": "blockJoinedLastRacer",
                                                "type": "uint32",
                                                "value": {
                                                    "current": "5369412",
                                                    "prev": "5369410",
                                                    "typeTag": 1
                                                }
                                            },
                                            {
                                                "name": "racers",
                                                "type": "struct KittyRace.Racer[]",
                                                "value": {
                                                    "elemType": "struct KittyRace.Racer",
                                                    "elems": [
                                                        {
                                                            "index": 2,
                                                            "value": {
                                                                "fields": [
                                                                    {
                                                                        "name": "kittyOwner",
                                                                        "type": "address",
                                                                        "value": {
                                                                            "current": "0x1cf682fa852995099759c91bc8ba23bf74360e0e",
                                                                            "prev": "0x0000000000000000000000000000000000000000",
                                                                            "typeTag": 1
                                                                        }
                                                                    },
                                                                    {
                                                                        "name": "kittyId",
                                                                        "type": "uint256",
                                                                        "value": {
                                                                            "current": "633237",
                                                                            "prev": "0",
                                                                            "typeTag": 1
                                                                        }
                                                                    }
                                                                ],
                                                                "typeTag": 3
                                                            }
                                                        }
                                                    ],
                                                    "typeTag": 2
                                                }
                                            }
                                        ],
                                        "typeTag": 3
                                    }
                                }
                            ],
                            "typeTag": 4
                        }
                    },
                    {
                        "name": "activeRacers",
                        "type": "mapping(uint256 => bool)",
                        "value": {
                            "pairs": [
                                {
                                    "key": "633237",
                                    "value": {
                                        "current": "true",
                                        "prev": "false",
                                        "typeTag": 1
                                    }
                                }
                            ],
                            "typeTag": 4
                        }
                    }
                ]
            }
        ]
    }
}