{
    "balance_change": {
        "balanceChanges": [
            {
                "account": "0x2efe59e963ac26ae5b8e514f91066b0fe3b3e33c",
                "assets": [
                    {
                        "address": "0x15d4c048f83bd7e37d49ea4c83a07267ec4203da",
                        "amount": "49,048.3171997",
                        "iconUrl": "https://assets.blocksec.com/icon/36a0407134848a889ddcbd7e9a9dcf40573e21005c8f0c446c3b8b39307d4b8c.png",
                        "isERC1155": false,
                        "isERC721": false,
                        "sign": false,
                        "value": "18.20140239"
                    }
                ]
            },
            {
                "account": "0x1f71f69b8622e1d8786a9ebdb1b3c3ee6c454821",
                "assets": [
                    {
                        "address": "0x15d4c048f83bd7e37d49ea4c83a07267ec4203da",
                        "amount": "49,048.3171997",
                        "iconUrl": "https://assets.blocksec.com/icon/36a0407134848a889ddcbd7e9a9dcf40573e21005c8f0c446c3b8b39307d4b8c.png",
                        "isERC1155": false,
                        "isERC721": false,
                        "sign": true,
                        "value": "18.20140239"
                    }
                ]
            }
        ]
    },
    "profile": {
        "basic_info": {
            "baseFee": "47.500890176",
            "blockNumber": 17326413,
            "callData": "0xa9059cbb0000000000000000000000001f71f69b8622e1d8786a9ebdb1b3c3ee6c45482100000000000000000000000000000000000000000000000000000475fec09a22",
            "debugEnable": true,
            "errorInfo": "",
            "eventCount": 1,
            "feeRecipient": "0x95222290dd7278aa3ddd389cc1e1d165cc4bafe5",
            "formatValue": "0",
            "gasLimit": 77916,
            "gasPrice": "49.500890176",
            "gasUsed": 47144,
            "intTxnCount": 0,
            "internalRevert": false,
            "internalRevertMessage": "",
            "isContractCreation": false,
            "isFlashloan": false,
            "maxFee": "66",
            "nonce": 43,
            "overwritedBlockNumber": -1,
            "priorityFee": "2",
            "receiver": "0x15d4c048f83bd7e37d49ea4c83a07267ec4203da",
            "revertMessage": "",
            "sender": "0x2efe59e963ac26ae5b8e514f91066b0fe3b3e33c",
            "simulationEnable": true,
            "sourceTxnHash": "0xde246aff518a36807e6534b860522a143822f0907fc514a0f813871e6622aa0a",
            "status": true,
            "timestamp": "2023-05-24T03:34:35Z",
            "transactionFee": "0.002333669966457344",
            "txnHash": "0xde246aff518a36807e6534b860522a143822f0907fc514a0f813871e6622aa0a",
            "txnIndex": 62,
            "type": 2,
            "value": "0"
        },
        "fund_flow": [
            {
                "amount": "49,048.3171997",
                "from": "0x2efe59e963ac26ae5b8e514f91066b0fe3b3e33c",
                "id": 1,
                "isERC1155": false,
                "isERC721": false,
                "isReverted": false,
                "order": 1,
                "to": "0x1f71f69b8622e1d8786a9ebdb1b3c3ee6c454821",
                "token": "0x15d4c048f83bd7e37d49ea4c83a07267ec4203da"
            }
        ],
        "token_infos": [
            {
                "address": "0x15d4c048f83bd7e37d49ea4c83a07267ec4203da",
                "decimals": 8
            },
            {
                "address": "0xc02aaa39b223fe8d0a0e5c4f27ead9083c756cc2",
                "decimals": 18
            },
            {
                "address": "0xeeeeeeeeeeeeeeeeeeeeeeeeeeeeeeeeeeeeeeee",
                "decimals": 18
            }
        ]
    },
    "address_label": {
        "labels": [
            {
                "address": "0x0000000000000000000000000000000000000001",
                "label": "Precompiled"
            },
            {
                "address": "0x0000000000000000000000000000000000000002",
                "label": "Precompiled"
            },
            {
                "address": "0x0000000000000000000000000000000000000003",
                "label": "Precompiled"
            },
            {
                "address": "0x0000000000000000000000000000000000000004",
                "label": "Precompiled"
            },
            {
                "address": "0xeeeeeeeeeeeeeeeeeeeeeeeeeeeeeeeeeeeeeeee",
                "label": "Ether"
            },
            {
                "address": "0x15d4c048f83bd7e37d49ea4c83a07267ec4203da",
                "label": "GALA: Old GALA Token"
            }
        ]
    },
    "trace": {
        "accountLabels": null,
        "dataMap": {
            "-1": {
                "invocation": {
                    "address": "0x2efe59e963ac26ae5b8e514f91066b0fe3b3e33c",
                    "callData": "",
                    "decodedMethod": null,
                    "errorInfo": "",
                    "fromAddress": "",
                    "gasUsed": 0,
                    "id": -1,
                    "methodDecoded": false,
                    "operation": "",
                    "output": "",
                    "revert": false,
                    "revertMessage": "",
                    "selector": "",
                    "status": false,
                    "value": ""
                },
                "nodeType": 0
            },
            "0": {
                "invocation": {
                    "address": "0x15d4c048f83bd7e37d49ea4c83a07267ec4203da",
                    "callData": "0x0000000000000000000000001f71f69b8622e1d8786a9ebdb1b3c3ee6c45482100000000000000000000000000000000000000000000000000000475fec09a22",
                    "decodedMethod": {
                        "callParams": [
                            {
                                "name": "recipient",
                                "type": "address",
                                "value": "0x1f71f69b8622e1d8786a9ebdb1b3c3ee6c454821"
                            },
                            {
                                "decimalAvailable": true,
                                "name": "amount",
                                "type": "uint256",
                                "value": "4,904,831,719,970"
                            }
                        ],
                        "constructorArguments": "",
                        "name": "transfer",
                        "returnParams": [
                            {
                                "name": "",
                                "type": "bool",
                                "value": true
                            }
                        ],
                        "signature": "transfer(address,uint256)"
                    },
                    "errorInfo": "",
                    "fromAddress": "0x2efe59e963ac26ae5b8e514f91066b0fe3b3e33c",
                    "gasUsed": 47144,
                    "id": 0,
                    "methodDecoded": true,
                    "operation": "CALL",
                    "output": "0x0000000000000000000000000000000000000000000000000000000000000001",
                    "revert": false,
                    "revertMessage": "",
                    "selector": "0xa9059cbb",
                    "status": true,
                    "value": "0"
                },
                "nodeType": 0
            },
            "1": {
                "event": {
                    "contract": "0x15d4c048f83bd7e37d49ea4c83a07267ec4203da",
                    "decodedLog": {
                        "name": "Transfer",
                        "params": [
                            {
                                "name": "from",
                                "type": "address",
                                "value": "0x2efe59e963ac26ae5b8e514f91066b0fe3b3e33c"
                            },
                            {
                                "name": "to",
                                "type": "address",
                                "value": "0x1f71f69b8622e1d8786a9ebdb1b3c3ee6c454821"
                            },
                            {
                                "decimalAvailable": true,
                                "name": "value",
                                "type": "uint256",
                                "value": "4,904,831,719,970"
                            }
                        ],
                        "signature": "Transfer(address,address,uint256)"
                    },
                    "id": 1,
                    "logData": "0x00000000000000000000000000000000000000000000000000000475fec09a22",
                    "logDecoded": true,
                    "operation": "EVENT",
                    "revert": false,
                    "status": true,
                    "topics": [
                        "0xddf252ad1be2c89b69c2b068fc378daa952ba7f163c4a11628f55a4df523b3ef",
                        "0x0000000000000000000000002efe59e963ac26ae5b8e514f91066b0fe3b3e33c",
                        "0x0000000000000000000000001f71f69b8622e1d8786a9ebdb1b3c3ee6c454821"
                    ]
                },
                "nodeType": 1
            }
        },
        "gasFlame": [
            {
                "children": [
                    {
                        "children": [
                            {
                                "children": [],
                                "depth": 0,
                                "name": "Initial Gas",
                                "value": 21632
                            },
                            {
                                "children": [],
                                "depth": 0,
                                "name": "Executed Gas",
                                "value": 30312
                            }
                        ],
                        "depth": -1,
                        "name": "Actual Gas Used",
                        "value": 47144
                    },
                    {
                        "children": [],
                        "depth": -1,
                        "name": "Refunded Gas",
                        "value": 4800
                    }
                ],
                "depth": -2,
                "name": "Total Gas",
                "value": 51944
            }
        ],
        "isConfirmed": true,
        "mainTrace": [
            {
                "children": [
                    {
                        "children": [
                            {
                                "children": [],
                                "depth": 1,
                                "id": 1,
                                "order": 1
                            }
                        ],
                        "depth": 0,
                        "id": 0,
                        "order": 0
                    }
                ],
                "depth": -1,
                "id": -1,
                "order": -1
            }
        ],
        "mainTraceNodeCount": 2,
        "parentIdMap": {
            "0": -1,
            "1": 0
        },
        "tidyTrace": [
            {
                "children": [
                    {
                        "children": [
                            {
                                "children": [],
                                "depth": 1,
                                "id": 1,
                                "order": 1
                            }
                        ],
                        "depth": 0,
                        "id": 0,
                        "order": 0
                    }
                ],
                "depth": -1,
                "id": -1,
                "order": -1
            }
        ],
        "tidyTraceNodeCount": 2
    },
    "state_change": {
        "stateChanges": [
            {
                "address": "0x15d4c048f83bd7e37d49ea4c83a07267ec4203da",
                "erc": "ERC-20",
                "slots": [
                    {
                        "current": "0x0000000000000000000000000000000000000000000000000000000000000000",
                        "key": "0xb2d85e98e9407277807b18fbc13f06f80f8a8b71aec37b5b2daa44412a464c50",
                        "prev": "0x00000000000000000000000000000000000000000000000000000475fec09a22"
                    },
                    {
                        "current": "0x00000000000000000000000000000000000000000000000000000475fec09a22",
                        "key": "0x1afde0df005bbd53fca4b3e3e09da5772c3dbda7101456b81ee2a076a904c90b",
                        "prev": "0x0000000000000000000000000000000000000000000000000000000000000000"
                    }
                ],
                "storageVariables": [
                    {
                        "name": "_balances",
                        "type": "mapping(address => uint256)",
                        "value": {
                            "pairs": [
                                {
                                    "key": "0x1f71f69b8622e1d8786a9ebdb1b3c3ee6c454821",
                                    "value": {
                                        "current": "4904831719970",
                                        "prev": "0",
                                        "typeTag": 1
                                    }
                                },
                                {
                                    "key": "0x2efe59e963ac26ae5b8e514f91066b0fe3b3e33c",
                                    "value": {
                                        "current": "0",
                                        "prev": "4904831719970",
                                        "typeTag": 1
                                    }
                                }
                            ],
                            "typeTag": 4
                        }
                    }
                ]
            }
        ]
    }
}