{
    "balance_change": {
        "balanceChanges": [
            {
                "account": "0x9e773d536af3c044193450a56d9c6cf39d4807ce",
                "assets": [
                    {
                        "address": "0x4639cd8cd52ec1cf2e496a606ce28d8afb1c792f",
                        "amount": "500",
                        "iconUrl": "",
                        "isERC1155": false,
                        "isERC721": false,
                        "sign": false,
                        "value": "6032.285369"
                    },
                    {
                        "address": "0xdac17f958d2ee523a2206206994597c13d831ec7",
                        "amount": "6,015.809783",
                        "iconUrl": "https://assets.blocksec.com/icon/fcea71f3193ce895be44bfdf941f7e4c9381dd587f273c2d1a27f1263d84e4ea.png",
                        "isERC1155": false,
                        "isERC721": false,
                        "sign": true,
                        "value": ""
                    }
                ]
            },
            {
                "account": "0x0d4a11d5eeaac28ec3f61d100daf4d40471f1852",
                "assets": [
                    {
                        "address": "0xc02aaa39b223fe8d0a0e5c4f27ead9083c756cc2",
                        "amount": "15.935218266876172025",
                        "iconUrl": "https://assets.blocksec.com/icon/f1cb2d02c471d545bbc7722daf3277fd852d98e63d118771af7047bd8256c516.png",
                        "isERC1155": false,
                        "isERC721": false,
                        "sign": true,
                        "value": "6032.28537"
                    },
                    {
                        "address": "0xdac17f958d2ee523a2206206994597c13d831ec7",
                        "amount": "6,015.809783",
                        "iconUrl": "https://assets.blocksec.com/icon/fcea71f3193ce895be44bfdf941f7e4c9381dd587f273c2d1a27f1263d84e4ea.png",
                        "isERC1155": false,
                        "isERC721": false,
                        "sign": false,
                        "value": ""
                    }
                ]
            },
            {
                "account": "0x961eb1645355297b5ee6e6c60ba9e72505e550f8",
                "assets": [
                    {
                        "address": "0xc02aaa39b223fe8d0a0e5c4f27ead9083c756cc2",
                        "amount": "15.935218266876172025",
                        "iconUrl": "https://assets.blocksec.com/icon/f1cb2d02c471d545bbc7722daf3277fd852d98e63d118771af7047bd8256c516.png",
                        "isERC1155": false,
                        "isERC721": false,
                        "sign": false,
                        "value": "6032.28537"
                    },
                    {
                        "address": "0x4639cd8cd52ec1cf2e496a606ce28d8afb1c792f",
                        "amount": "500",
                        "iconUrl": "",
                        "isERC1155": false,
                        "isERC721": false,
                        "sign": true,
                        "value": "6032.285369"
                    }
                ]
            }
        ]
    },
    "profile": {
        "basic_info": {
            "baseFee": "",
            "blockNumber": 10888237,
            "callData": "0x38ed173900000000000000000000000000000000000000000000001b1ae4d6e2ef500000000000000000000000000000000000000000000000000000000000015f87fb8c00000000000000000000000000000000000000000000000000000000000000a00000000000000000000000009e773d536af3c044193450a56d9c6cf39d4807ce000000000000000000000000000000000000000000000000000000005f65182700000000000000000000000000000000000000000000000000000000000000030000000000000000000000004639cd8cd52ec1cf2e496a606ce28d8afb1c792f000000000000000000000000c02aaa39b223fe8d0a0e5c4f27ead9083c756cc2000000000000000000000000dac17f958d2ee523a2206206994597c13d831ec7",
            "debugEnable": true,
            "errorInfo": "",
            "eventCount": 7,
            "feeRecipient": "0x9d6d492bd500da5b33cf95a5d610a73360fcaaa0",
            "formatValue": "0",
            "gasLimit": 192412,
            "gasPrice": "150",
            "gasUsed": 164752,
            "intTxnCount": 11,
            "internalRevert": false,
            "internalRevertMessage": "",
            "isContractCreation": false,
            "isFlashloan": false,
            "maxFee": "",
            "nonce": 141,
            "overwritedBlockNumber": -1,
            "priorityFee": "",
            "receiver": "0x7a250d5630b4cf539739df2c5dacb4c659f2488d",
            "revertMessage": "",
            "sender": "0x9e773d536af3c044193450a56d9c6cf39d4807ce",
            "simulationEnable": true,
            "sourceTxnHash": "0xdec16208e33d5c9ab21cd072fae97d910f4a5a47e9b2e25929f20c6ed9e35a5b",
            "status": true,
            "timestamp": "2020-09-18T20:08:21Z",
            "transactionFee": "0.0247128",
            "txnHash": "0xdec16208e33d5c9ab21cd072fae97d910f4a5a47e9b2e25929f20c6ed9e35a5b",
            "txnIndex": 100,
            "type": 0,
            "value": "0"
        },
        "fund_flow": [
            {
                "amount": "500",
                "from": "0x9e773d536af3c044193450a56d9c6cf39d4807ce",
                "id": 1,
                "isERC1155": false,
                "isERC721": false,
                "isReverted": false,
                "order": 1,
                "to": "0x961eb1645355297b5ee6e6c60ba9e72505e550f8",
                "token": "0x4639cd8cd52ec1cf2e496a606ce28d8afb1c792f"
            },
            {
                "amount": "15.935218266876172025",
                "from": "0x961eb1645355297b5ee6e6c60ba9e72505e550f8",
                "id": 2,
                "isERC1155": false,
                "isERC721": false,
                "isReverted": false,
                "order": 2,
                "to": "0x0d4a11d5eeaac28ec3f61d100daf4d40471f1852",
                "token": "0xc02aaa39b223fe8d0a0e5c4f27ead9083c756cc2"
            },
            {
                "amount": "6,015.809783",
                "from": "0x0d4a11d5eeaac28ec3f61d100daf4d40471f1852",
                "id": 3,
                "isERC1155": false,
                "isERC721": false,
                "isReverted": false,
                "order": 3,
                "to": "0x9e773d536af3c044193450a56d9c6cf39d4807ce",
                "token": "0xdac17f958d2ee523a2206206994597c13d831ec7"
            }
        ],
        "token_infos": [
            {
                "address": "0x4639cd8cd52ec1cf2e496a606ce28d8afb1c792f",
                "decimals": 18
            },
            {
                "address": "0xc02aaa39b223fe8d0a0e5c4f27ead9083c756cc2",
                "decimals": 18
            },
            {
                "address": "0xdac17f958d2ee523a2206206994597c13d831ec7",
                "decimals": 6
            },
            {
                "address": "0xeeeeeeeeeeeeeeeeeeeeeeeeeeeeeeeeeeeeeeee",
                "decimals": 18
            }
        ]
    },
    "address_label": {
        "labels": [
            {
                "address": "0x4639cd8cd52ec1cf2e496a606ce28d8afb1c792f",
                "label": "CBDAO: BREE Token"
            },
            {
                "address": "0x0d4a11d5eeaac28ec3f61d100daf4d40471f1852",
                "label": "Uniswap V2: USDT"
            },
            {
                "address": "0x961eb1645355297b5ee6e6c60ba9e72505e550f8",
                "label": "Uniswap V2: BREE"
            },
            {
                "address": "0x0000000000000000000000000000000000000001",
                "label": "Precompiled"
            },
            {
                "address": "0x0000000000000000000000000000000000000004",
                "label": "Precompiled"
            },
            {
                "address": "0xeeeeeeeeeeeeeeeeeeeeeeeeeeeeeeeeeeeeeeee",
                "label": "Ether"
            },
            {
                "address": "0x7a250d5630b4cf539739df2c5dacb4c659f2488d",
                "label": "Uniswap V2: Router 2"
            },
            {
                "address": "0xc02aaa39b223fe8d0a0e5c4f27ead9083c756cc2",
                "label": "Wrapped Ether (WETH)"
            },
            {
                "address": "0xdac17f958d2ee523a2206206994597c13d831ec7",
                "label": "Tether: USDT Stablecoin"
            },
            {
                "address": "0x0000000000000000000000000000000000000002",
                "label": "Precompiled"
            },
            {
                "address": "0x0000000000000000000000000000000000000003",
                "label": "Precompiled"
            }
        ]
    },
    "trace": {
        "accountLabels": null,
        "dataMap": {
            "-1": {
                "invocation": {
                    "address": "0x9e773d536af3c044193450a56d9c6cf39d4807ce",
                    "callData": "",
                    "decodedMethod": null,
                    "errorInfo": "",
                    "fromAddress": "",
                    "gasUsed": 0,
                    "id": -1,
                    "methodDecoded": false,
                    "operation": "",
                    "output": "",
                    "revert": false,
                    "revertMessage": "",
                    "selector": "",
                    "status": false,
                    "value": ""
                },
                "nodeType": 0
            },
            "0": {
                "invocation": {
                    "address": "0x7a250d5630b4cf539739df2c5dacb4c659f2488d",
                    "callData": "0x00000000000000000000000000000000000000000000001b1ae4d6e2ef500000000000000000000000000000000000000000000000000000000000015f87fb8c00000000000000000000000000000000000000000000000000000000000000a00000000000000000000000009e773d536af3c044193450a56d9c6cf39d4807ce000000000000000000000000000000000000000000000000000000005f65182700000000000000000000000000000000000000000000000000000000000000030000000000000000000000004639cd8cd52ec1cf2e496a606ce28d8afb1c792f000000000000000000000000c02aaa39b223fe8d0a0e5c4f27ead9083c756cc2000000000000000000000000dac17f958d2ee523a2206206994597c13d831ec7",
                    "decodedMethod": {
                        "callParams": [
                            {
                                "name": "amountIn",
                                "type": "uint256",
                                "value": "500,000,000,000,000,000,000"
                            },
                            {
                                "name": "amountOutMin",
                                "type": "uint256",
                                "value": "5,897,714,572"
                            },
                            {
                                "name": "path",
                                "type": "address[]",
                                "value": [
                                    "0x4639cd8cd52ec1cf2e496a606ce28d8afb1c792f",
                                    "0xc02aaa39b223fe8d0a0e5c4f27ead9083c756cc2",
                                    "0xdac17f958d2ee523a2206206994597c13d831ec7"
                                ]
                            },
                            {
                                "name": "to",
                                "type": "address",
                                "value": "0x9e773d536af3c044193450a56d9c6cf39d4807ce"
                            },
                            {
                                "name": "deadline",
                                "type": "uint256",
                                "value": "1,600,460,839"
                            }
                        ],
                        "constructorArguments": "",
                        "name": "swapExactTokensForTokens",
                        "returnParams": [
                            {
                                "name": "amounts",
                                "type": "uint256[]",
                                "value": [
                                    "500,000,000,000,000,000,000",
                                    "15,935,218,266,876,172,025",
                                    "6,015,809,783"
                                ]
                            }
                        ],
                        "signature": "swapExactTokensForTokens(uint256,uint256,address[],address,uint256)"
                    },
                    "errorInfo": "",
                    "fromAddress": "0x9e773d536af3c044193450a56d9c6cf39d4807ce",
                    "gasUsed": 164752,
                    "id": 0,
                    "methodDecoded": true,
                    "operation": "CALL",
                    "output": "0x0000000000000000000000000000000000000000000000000000000000000020000000000000000000000000000000000000000000000000000000000000000300000000000000000000000000000000000000000000001b1ae4d6e2ef500000000000000000000000000000000000000000000000000000dd254495d77856f9000000000000000000000000000000000000000000000000000000016691f8f7",
                    "revert": false,
                    "revertMessage": "",
                    "selector": "0x38ed1739",
                    "status": true,
                    "value": "0"
                },
                "nodeType": 0
            },
            "1": {
                "invocation": {
                    "address": "0x961eb1645355297b5ee6e6c60ba9e72505e550f8",
                    "callData": "0x",
                    "decodedMethod": {
                        "callParams": [],
                        "constructorArguments": "",
                        "name": "getReserves",
                        "returnParams": [
                            {
                                "name": "_reserve0",
                                "type": "uint112",
                                "value": "18,224,181,913,443,684,879,241"
                            },
                            {
                                "name": "_reserve1",
                                "type": "uint112",
                                "value": "598,495,532,260,822,323,745"
                            },
                            {
                                "name": "_blockTimestampLast",
                                "type": "uint32",
                                "value": "1,600,459,502"
                            }
                        ],
                        "signature": "getReserves()"
                    },
                    "errorInfo": "",
                    "fromAddress": "0x7a250d5630b4cf539739df2c5dacb4c659f2488d",
                    "gasUsed": 1204,
                    "id": 1,
                    "methodDecoded": true,
                    "operation": "STATICCALL",
                    "output": "0x0000000000000000000000000000000000000000000003dbef545e6c4d748b8900000000000000000000000000000000000000000000002071cb43a040a79221000000000000000000000000000000000000000000000000000000005f6512ee",
                    "revert": false,
                    "revertMessage": "",
                    "selector": "0x0902f1ac",
                    "status": true,
                    "value": "0"
                },
                "nodeType": 0
            },
            "10": {
                "event": {
                    "contract": "0x961eb1645355297b5ee6e6c60ba9e72505e550f8",
                    "decodedLog": {
                        "name": "Sync",
                        "params": [
                            {
                                "name": "reserve0",
                                "type": "uint112",
                                "value": "18,724,181,913,443,684,879,241"
                            },
                            {
                                "name": "reserve1",
                                "type": "uint112",
                                "value": "582,560,313,993,946,151,720"
                            }
                        ],
                        "signature": "Sync(uint112,uint112)"
                    },
                    "id": 10,
                    "logData": "0x0000000000000000000000000000000000000000000003f70a39354f3cc48b8900000000000000000000000000000000000000000000001f94a5ff0a692f3b28",
                    "logDecoded": true,
                    "operation": "EVENT",
                    "revert": false,
                    "status": true,
                    "topics": [
                        "0x1c411e9a96e071241c2f21f7726b17ae89e3cab4c78be50e062b03a9fffbbad1"
                    ]
                },
                "nodeType": 1
            },
            "11": {
                "event": {
                    "contract": "0x961eb1645355297b5ee6e6c60ba9e72505e550f8",
                    "decodedLog": {
                        "name": "Swap",
                        "params": [
                            {
                                "name": "sender",
                                "type": "address",
                                "value": "0x7a250d5630b4cf539739df2c5dacb4c659f2488d"
                            },
                            {
                                "name": "to",
                                "type": "address",
                                "value": "0x0d4a11d5eeaac28ec3f61d100daf4d40471f1852"
                            },
                            {
                                "name": "amount0In",
                                "type": "uint256",
                                "value": "500,000,000,000,000,000,000"
                            },
                            {
                                "name": "amount1In",
                                "type": "uint256",
                                "value": "0"
                            },
                            {
                                "name": "amount0Out",
                                "type": "uint256",
                                "value": "0"
                            },
                            {
                                "name": "amount1Out",
                                "type": "uint256",
                                "value": "15,935,218,266,876,172,025"
                            }
                        ],
                        "signature": "Swap(address,uint256,uint256,uint256,uint256,address)"
                    },
                    "id": 11,
                    "logData": "0x00000000000000000000000000000000000000000000001b1ae4d6e2ef50000000000000000000000000000000000000000000000000000000000000000000000000000000000000000000000000000000000000000000000000000000000000000000000000000000000000000000000000000000000000dd254495d77856f9",
                    "logDecoded": true,
                    "operation": "EVENT",
                    "revert": false,
                    "status": true,
                    "topics": [
                        "0xd78ad95fa46c994b6551d0da85fc275fe613ce37657fb8d5e3d130840159d822",
                        "0x0000000000000000000000007a250d5630b4cf539739df2c5dacb4c659f2488d",
                        "0x0000000000000000000000000d4a11d5eeaac28ec3f61d100daf4d40471f1852"
                    ]
                },
                "nodeType": 1
            },
            "12": {
                "invocation": {
                    "address": "0x0d4a11d5eeaac28ec3f61d100daf4d40471f1852",
                    "callData": "0x0000000000000000000000000000000000000000000000000000000000000000000000000000000000000000000000000000000000000000000000016691f8f70000000000000000000000009e773d536af3c044193450a56d9c6cf39d4807ce00000000000000000000000000000000000000000000000000000000000000800000000000000000000000000000000000000000000000000000000000000000",
                    "decodedMethod": {
                        "callParams": [
                            {
                                "name": "amount0Out",
                                "type": "uint256",
                                "value": "0"
                            },
                            {
                                "name": "amount1Out",
                                "type": "uint256",
                                "value": "6,015,809,783"
                            },
                            {
                                "name": "to",
                                "type": "address",
                                "value": "0x9e773d536af3c044193450a56d9c6cf39d4807ce"
                            },
                            {
                                "name": "data",
                                "type": "bytes",
                                "value": "0x"
                            }
                        ],
                        "constructorArguments": "",
                        "name": "swap",
                        "returnParams": [],
                        "signature": "swap(uint256,uint256,address,bytes)"
                    },
                    "errorInfo": "",
                    "fromAddress": "0x7a250d5630b4cf539739df2c5dacb4c659f2488d",
                    "gasUsed": 50146,
                    "id": 12,
                    "methodDecoded": true,
                    "operation": "CALL",
                    "output": "",
                    "revert": false,
                    "revertMessage": "",
                    "selector": "0x022c0d9f",
                    "status": true,
                    "value": "0"
                },
                "nodeType": 0
            },
            "13": {
                "invocation": {
                    "address": "0xdac17f958d2ee523a2206206994597c13d831ec7",
                    "callData": "0x0000000000000000000000009e773d536af3c044193450a56d9c6cf39d4807ce000000000000000000000000000000000000000000000000000000016691f8f7",
                    "decodedMethod": {
                        "callParams": [
                            {
                                "name": "_to",
                                "type": "address",
                                "value": "0x9e773d536af3c044193450a56d9c6cf39d4807ce"
                            },
                            {
                                "decimalAvailable": true,
                                "name": "_value",
                                "type": "uint256",
                                "value": "6,015,809,783"
                            }
                        ],
                        "constructorArguments": "",
                        "name": "transfer",
                        "returnParams": [],
                        "signature": "transfer(address,uint256)"
                    },
                    "errorInfo": "",
                    "fromAddress": "0x0d4a11d5eeaac28ec3f61d100daf4d40471f1852",
                    "gasUsed": 19601,
                    "id": 13,
                    "methodDecoded": true,
                    "operation": "CALL",
                    "output": "",
                    "revert": false,
                    "revertMessage": "",
                    "selector": "0xa9059cbb",
                    "status": true,
                    "value": "0"
                },
                "nodeType": 0
            },
            "14": {
                "event": {
                    "contract": "0xdac17f958d2ee523a2206206994597c13d831ec7",
                    "decodedLog": {
                        "name": "Transfer",
                        "params": [
                            {
                                "name": "from",
                                "type": "address",
                                "value": "0x0d4a11d5eeaac28ec3f61d100daf4d40471f1852"
                            },
                            {
                                "name": "to",
                                "type": "address",
                                "value": "0x9e773d536af3c044193450a56d9c6cf39d4807ce"
                            },
                            {
                                "decimalAvailable": true,
                                "name": "value",
                                "type": "uint256",
                                "value": "6,015,809,783"
                            }
                        ],
                        "signature": "Transfer(address,address,uint256)"
                    },
                    "id": 14,
                    "logData": "0x000000000000000000000000000000000000000000000000000000016691f8f7",
                    "logDecoded": true,
                    "operation": "EVENT",
                    "revert": false,
                    "status": true,
                    "topics": [
                        "0xddf252ad1be2c89b69c2b068fc378daa952ba7f163c4a11628f55a4df523b3ef",
                        "0x0000000000000000000000000d4a11d5eeaac28ec3f61d100daf4d40471f1852",
                        "0x0000000000000000000000009e773d536af3c044193450a56d9c6cf39d4807ce"
                    ]
                },
                "nodeType": 1
            },
            "15": {
                "invocation": {
                    "address": "0xc02aaa39b223fe8d0a0e5c4f27ead9083c756cc2",
                    "callData": "0x0000000000000000000000000d4a11d5eeaac28ec3f61d100daf4d40471f1852",
                    "decodedMethod": {
                        "callParams": [
                            {
                                "name": "",
                                "type": "address",
                                "value": "0x0d4a11d5eeaac28ec3f61d100daf4d40471f1852"
                            }
                        ],
                        "constructorArguments": "",
                        "name": "balanceOf",
                        "returnParams": [
                            {
                                "decimalAvailable": true,
                                "name": "",
                                "type": "uint256",
                                "value": "451,502,543,623,241,928,380,136"
                            }
                        ],
                        "signature": "balanceOf(address)"
                    },
                    "errorInfo": "",
                    "fromAddress": "0x0d4a11d5eeaac28ec3f61d100daf4d40471f1852",
                    "gasUsed": 1234,
                    "id": 15,
                    "methodDecoded": true,
                    "operation": "STATICCALL",
                    "output": "0x000000000000000000000000000000000000000000005f9c007ebe56c4c18ee8",
                    "revert": false,
                    "revertMessage": "",
                    "selector": "0x70a08231",
                    "status": true,
                    "value": "0"
                },
                "nodeType": 0
            },
            "16": {
                "invocation": {
                    "address": "0xdac17f958d2ee523a2206206994597c13d831ec7",
                    "callData": "0x0000000000000000000000000d4a11d5eeaac28ec3f61d100daf4d40471f1852",
                    "decodedMethod": {
                        "callParams": [
                            {
                                "name": "who",
                                "type": "address",
                                "value": "0x0d4a11d5eeaac28ec3f61d100daf4d40471f1852"
                            }
                        ],
                        "constructorArguments": "",
                        "name": "balanceOf",
                        "returnParams": [
                            {
                                "decimalAvailable": true,
                                "name": "",
                                "type": "uint256",
                                "value": "170,956,569,341,671"
                            }
                        ],
                        "signature": "balanceOf(address)"
                    },
                    "errorInfo": "",
                    "fromAddress": "0x0d4a11d5eeaac28ec3f61d100daf4d40471f1852",
                    "gasUsed": 2431,
                    "id": 16,
                    "methodDecoded": true,
                    "operation": "STATICCALL",
                    "output": "0x00000000000000000000000000000000000000000000000000009b7bed966ee7",
                    "revert": false,
                    "revertMessage": "",
                    "selector": "0x70a08231",
                    "status": true,
                    "value": "0"
                },
                "nodeType": 0
            },
            "17": {
                "event": {
                    "contract": "0x0d4a11d5eeaac28ec3f61d100daf4d40471f1852",
                    "decodedLog": {
                        "name": "Sync",
                        "params": [
                            {
                                "name": "reserve0",
                                "type": "uint112",
                                "value": "451,502,543,623,241,928,380,136"
                            },
                            {
                                "name": "reserve1",
                                "type": "uint112",
                                "value": "170,956,569,341,671"
                            }
                        ],
                        "signature": "Sync(uint112,uint112)"
                    },
                    "id": 17,
                    "logData": "0x000000000000000000000000000000000000000000005f9c007ebe56c4c18ee800000000000000000000000000000000000000000000000000009b7bed966ee7",
                    "logDecoded": true,
                    "operation": "EVENT",
                    "revert": false,
                    "status": true,
                    "topics": [
                        "0x1c411e9a96e071241c2f21f7726b17ae89e3cab4c78be50e062b03a9fffbbad1"
                    ]
                },
                "nodeType": 1
            },
            "18": {
                "event": {
                    "contract": "0x0d4a11d5eeaac28ec3f61d100daf4d40471f1852",
                    "decodedLog": {
                        "name": "Swap",
                        "params": [
                            {
                                "name": "sender",
                                "type": "address",
                                "value": "0x7a250d5630b4cf539739df2c5dacb4c659f2488d"
                            },
                            {
                                "name": "to",
                                "type": "address",
                                "value": "0x9e773d536af3c044193450a56d9c6cf39d4807ce"
                            },
                            {
                                "name": "amount0In",
                                "type": "uint256",
                                "value": "15,935,218,266,876,172,025"
                            },
                            {
                                "name": "amount1In",
                                "type": "uint256",
                                "value": "0"
                            },
                            {
                                "name": "amount0Out",
                                "type": "uint256",
                                "value": "0"
                            },
                            {
                                "name": "amount1Out",
                                "type": "uint256",
                                "value": "6,015,809,783"
                            }
                        ],
                        "signature": "Swap(address,uint256,uint256,uint256,uint256,address)"
                    },
                    "id": 18,
                    "logData": "0x000000000000000000000000000000000000000000000000dd254495d77856f900000000000000000000000000000000000000000000000000000000000000000000000000000000000000000000000000000000000000000000000000000000000000000000000000000000000000000000000000000000000000016691f8f7",
                    "logDecoded": true,
                    "operation": "EVENT",
                    "revert": false,
                    "status": true,
                    "topics": [
                        "0xd78ad95fa46c994b6551d0da85fc275fe613ce37657fb8d5e3d130840159d822",
                        "0x0000000000000000000000007a250d5630b4cf539739df2c5dacb4c659f2488d",
                        "0x0000000000000000000000009e773d536af3c044193450a56d9c6cf39d4807ce"
                    ]
                },
                "nodeType": 1
            },
            "2": {
                "invocation": {
                    "address": "0x0d4a11d5eeaac28ec3f61d100daf4d40471f1852",
                    "callData": "0x",
                    "decodedMethod": {
                        "callParams": [],
                        "constructorArguments": "",
                        "name": "getReserves",
                        "returnParams": [
                            {
                                "name": "_reserve0",
                                "type": "uint112",
                                "value": "451,486,608,404,975,052,208,111"
                            },
                            {
                                "name": "_reserve1",
                                "type": "uint112",
                                "value": "170,962,585,151,454"
                            },
                            {
                                "name": "_blockTimestampLast",
                                "type": "uint32",
                                "value": "1,600,459,701"
                            }
                        ],
                        "signature": "getReserves()"
                    },
                    "errorInfo": "",
                    "fromAddress": "0x7a250d5630b4cf539739df2c5dacb4c659f2488d",
                    "gasUsed": 1204,
                    "id": 2,
                    "methodDecoded": true,
                    "operation": "STATICCALL",
                    "output": "0x000000000000000000000000000000000000000000005f9b235979c0ed4937ef00000000000000000000000000000000000000000000000000009b7d542867de000000000000000000000000000000000000000000000000000000005f6513b5",
                    "revert": false,
                    "revertMessage": "",
                    "selector": "0x0902f1ac",
                    "status": true,
                    "value": "0"
                },
                "nodeType": 0
            },
            "3": {
                "invocation": {
                    "address": "0x4639cd8cd52ec1cf2e496a606ce28d8afb1c792f",
                    "callData": "0x0000000000000000000000009e773d536af3c044193450a56d9c6cf39d4807ce000000000000000000000000961eb1645355297b5ee6e6c60ba9e72505e550f800000000000000000000000000000000000000000000001b1ae4d6e2ef500000",
                    "decodedMethod": {
                        "callParams": [
                            {
                                "name": "from",
                                "type": "address",
                                "value": "0x9e773d536af3c044193450a56d9c6cf39d4807ce"
                            },
                            {
                                "name": "to",
                                "type": "address",
                                "value": "0x961eb1645355297b5ee6e6c60ba9e72505e550f8"
                            },
                            {
                                "decimalAvailable": true,
                                "name": "tokens",
                                "type": "uint256",
                                "value": "500,000,000,000,000,000,000"
                            }
                        ],
                        "constructorArguments": "",
                        "name": "transferFrom",
                        "returnParams": [
                            {
                                "name": "success",
                                "type": "bool",
                                "value": true
                            }
                        ],
                        "signature": "transferFrom(address,address,uint256)"
                    },
                    "errorInfo": "",
                    "fromAddress": "0x7a250d5630b4cf539739df2c5dacb4c659f2488d",
                    "gasUsed": 22522,
                    "id": 3,
                    "methodDecoded": true,
                    "operation": "CALL",
                    "output": "0x0000000000000000000000000000000000000000000000000000000000000001",
                    "revert": false,
                    "revertMessage": "",
                    "selector": "0x23b872dd",
                    "status": true,
                    "value": "0"
                },
                "nodeType": 0
            },
            "4": {
                "event": {
                    "contract": "0x4639cd8cd52ec1cf2e496a606ce28d8afb1c792f",
                    "decodedLog": {
                        "name": "Transfer",
                        "params": [
                            {
                                "name": "from",
                                "type": "address",
                                "value": "0x9e773d536af3c044193450a56d9c6cf39d4807ce"
                            },
                            {
                                "name": "to",
                                "type": "address",
                                "value": "0x961eb1645355297b5ee6e6c60ba9e72505e550f8"
                            },
                            {
                                "decimalAvailable": true,
                                "name": "tokens",
                                "type": "uint256",
                                "value": "500,000,000,000,000,000,000"
                            }
                        ],
                        "signature": "Transfer(address,address,uint256)"
                    },
                    "id": 4,
                    "logData": "0x00000000000000000000000000000000000000000000001b1ae4d6e2ef500000",
                    "logDecoded": true,
                    "operation": "EVENT",
                    "revert": false,
                    "status": true,
                    "topics": [
                        "0xddf252ad1be2c89b69c2b068fc378daa952ba7f163c4a11628f55a4df523b3ef",
                        "0x0000000000000000000000009e773d536af3c044193450a56d9c6cf39d4807ce",
                        "0x000000000000000000000000961eb1645355297b5ee6e6c60ba9e72505e550f8"
                    ]
                },
                "nodeType": 1
            },
            "5": {
                "invocation": {
                    "address": "0x961eb1645355297b5ee6e6c60ba9e72505e550f8",
                    "callData": "0x0000000000000000000000000000000000000000000000000000000000000000000000000000000000000000000000000000000000000000dd254495d77856f90000000000000000000000000d4a11d5eeaac28ec3f61d100daf4d40471f185200000000000000000000000000000000000000000000000000000000000000800000000000000000000000000000000000000000000000000000000000000000",
                    "decodedMethod": {
                        "callParams": [
                            {
                                "name": "amount0Out",
                                "type": "uint256",
                                "value": "0"
                            },
                            {
                                "name": "amount1Out",
                                "type": "uint256",
                                "value": "15,935,218,266,876,172,025"
                            },
                            {
                                "name": "to",
                                "type": "address",
                                "value": "0x0d4a11d5eeaac28ec3f61d100daf4d40471f1852"
                            },
                            {
                                "name": "data",
                                "type": "bytes",
                                "value": "0x"
                            }
                        ],
                        "constructorArguments": "",
                        "name": "swap",
                        "returnParams": [],
                        "signature": "swap(uint256,uint256,address,bytes)"
                    },
                    "errorInfo": "",
                    "fromAddress": "0x7a250d5630b4cf539739df2c5dacb4c659f2488d",
                    "gasUsed": 56606,
                    "id": 5,
                    "methodDecoded": true,
                    "operation": "CALL",
                    "output": "",
                    "revert": false,
                    "revertMessage": "",
                    "selector": "0x022c0d9f",
                    "status": true,
                    "value": "0"
                },
                "nodeType": 0
            },
            "6": {
                "invocation": {
                    "address": "0xc02aaa39b223fe8d0a0e5c4f27ead9083c756cc2",
                    "callData": "0x0000000000000000000000000d4a11d5eeaac28ec3f61d100daf4d40471f1852000000000000000000000000000000000000000000000000dd254495d77856f9",
                    "decodedMethod": {
                        "callParams": [
                            {
                                "name": "dst",
                                "type": "address",
                                "value": "0x0d4a11d5eeaac28ec3f61d100daf4d40471f1852"
                            },
                            {
                                "decimalAvailable": true,
                                "name": "wad",
                                "type": "uint256",
                                "value": "15,935,218,266,876,172,025"
                            }
                        ],
                        "constructorArguments": "",
                        "name": "transfer",
                        "returnParams": [
                            {
                                "name": "",
                                "type": "bool",
                                "value": true
                            }
                        ],
                        "signature": "transfer(address,uint256)"
                    },
                    "errorInfo": "",
                    "fromAddress": "0x961eb1645355297b5ee6e6c60ba9e72505e550f8",
                    "gasUsed": 15162,
                    "id": 6,
                    "methodDecoded": true,
                    "operation": "CALL",
                    "output": "0x0000000000000000000000000000000000000000000000000000000000000001",
                    "revert": false,
                    "revertMessage": "",
                    "selector": "0xa9059cbb",
                    "status": true,
                    "value": "0"
                },
                "nodeType": 0
            },
            "7": {
                "event": {
                    "contract": "0xc02aaa39b223fe8d0a0e5c4f27ead9083c756cc2",
                    "decodedLog": {
                        "name": "Transfer",
                        "params": [
                            {
                                "name": "src",
                                "type": "address",
                                "value": "0x961eb1645355297b5ee6e6c60ba9e72505e550f8"
                            },
                            {
                                "name": "dst",
                                "type": "address",
                                "value": "0x0d4a11d5eeaac28ec3f61d100daf4d40471f1852"
                            },
                            {
                                "decimalAvailable": true,
                                "name": "wad",
                                "type": "uint256",
                                "value": "15,935,218,266,876,172,025"
                            }
                        ],
                        "signature": "Transfer(address,address,uint256)"
                    },
                    "id": 7,
                    "logData": "0x000000000000000000000000000000000000000000000000dd254495d77856f9",
                    "logDecoded": true,
                    "operation": "EVENT",
                    "revert": false,
                    "status": true,
                    "topics": [
                        "0xddf252ad1be2c89b69c2b068fc378daa952ba7f163c4a11628f55a4df523b3ef",
                        "0x000000000000000000000000961eb1645355297b5ee6e6c60ba9e72505e550f8",
                        "0x0000000000000000000000000d4a11d5eeaac28ec3f61d100daf4d40471f1852"
                    ]
                },
                "nodeType": 1
            },
            "8": {
                "invocation": {
                    "address": "0x4639cd8cd52ec1cf2e496a606ce28d8afb1c792f",
                    "callData": "0x000000000000000000000000961eb1645355297b5ee6e6c60ba9e72505e550f8",
                    "decodedMethod": {
                        "callParams": [
                            {
                                "name": "tokenOwner",
                                "type": "address",
                                "value": "0x961eb1645355297b5ee6e6c60ba9e72505e550f8"
                            }
                        ],
                        "constructorArguments": "",
                        "name": "balanceOf",
                        "returnParams": [
                            {
                                "decimalAvailable": true,
                                "name": "balance",
                                "type": "uint256",
                                "value": "18,724,181,913,443,684,879,241"
                            }
                        ],
                        "signature": "balanceOf(address)"
                    },
                    "errorInfo": "",
                    "fromAddress": "0x961eb1645355297b5ee6e6c60ba9e72505e550f8",
                    "gasUsed": 1187,
                    "id": 8,
                    "methodDecoded": true,
                    "operation": "STATICCALL",
                    "output": "0x0000000000000000000000000000000000000000000003f70a39354f3cc48b89",
                    "revert": false,
                    "revertMessage": "",
                    "selector": "0x70a08231",
                    "status": true,
                    "value": "0"
                },
                "nodeType": 0
            },
            "9": {
                "invocation": {
                    "address": "0xc02aaa39b223fe8d0a0e5c4f27ead9083c756cc2",
                    "callData": "0x000000000000000000000000961eb1645355297b5ee6e6c60ba9e72505e550f8",
                    "decodedMethod": {
                        "callParams": [
                            {
                                "name": "",
                                "type": "address",
                                "value": "0x961eb1645355297b5ee6e6c60ba9e72505e550f8"
                            }
                        ],
                        "constructorArguments": "",
                        "name": "balanceOf",
                        "returnParams": [
                            {
                                "decimalAvailable": true,
                                "name": "",
                                "type": "uint256",
                                "value": "582,560,313,993,946,151,720"
                            }
                        ],
                        "signature": "balanceOf(address)"
                    },
                    "errorInfo": "",
                    "fromAddress": "0x961eb1645355297b5ee6e6c60ba9e72505e550f8",
                    "gasUsed": 1234,
                    "id": 9,
                    "methodDecoded": true,
                    "operation": "STATICCALL",
                    "output": "0x00000000000000000000000000000000000000000000001f94a5ff0a692f3b28",
                    "revert": false,
                    "revertMessage": "",
                    "selector": "0x70a08231",
                    "status": true,
                    "value": "0"
                },
                "nodeType": 0
            }
        },
        "gasFlame": [
            {
                "children": [
                    {
                        "children": [
                            {
                                "children": [],
                                "depth": 0,
                                "name": "Initial Gas",
                                "value": 23392
                            },
                            {
                                "children": [
                                    {
                                        "children": [],
                                        "depth": 1,
                                        "name": "getReserves",
                                        "value": 1204
                                    },
                                    {
                                        "children": [],
                                        "depth": 1,
                                        "name": "getReserves",
                                        "value": 1204
                                    },
                                    {
                                        "children": [],
                                        "depth": 1,
                                        "name": "transferFrom",
                                        "value": 22522
                                    },
                                    {
                                        "children": [
                                            {
                                                "children": [],
                                                "depth": 2,
                                                "name": "transfer",
                                                "value": 15162
                                            },
                                            {
                                                "children": [],
                                                "depth": 2,
                                                "name": "balanceOf",
                                                "value": 1187
                                            },
                                            {
                                                "children": [],
                                                "depth": 2,
                                                "name": "balanceOf",
                                                "value": 1234
                                            }
                                        ],
                                        "depth": 1,
                                        "name": "swap",
                                        "value": 56606
                                    },
                                    {
                                        "children": [
                                            {
                                                "children": [],
                                                "depth": 2,
                                                "name": "transfer",
                                                "value": 19601
                                            },
                                            {
                                                "children": [],
                                                "depth": 2,
                                                "name": "balanceOf",
                                                "value": 1234
                                            },
                                            {
                                                "children": [],
                                                "depth": 2,
                                                "name": "balanceOf",
                                                "value": 2431
                                            }
                                        ],
                                        "depth": 1,
                                        "name": "swap",
                                        "value": 50146
                                    }
                                ],
                                "depth": 0,
                                "name": "Executed Gas",
                                "value": 149760
                            }
                        ],
                        "depth": -1,
                        "name": "Actual Gas Used",
                        "value": 164752
                    },
                    {
                        "children": [],
                        "depth": -1,
                        "name": "Refunded Gas",
                        "value": 8400
                    }
                ],
                "depth": -2,
                "name": "Total Gas",
                "value": 173152
            }
        ],
        "isConfirmed": true,
        "mainTrace": [
            {
                "children": [
                    {
                        "children": [
                            {
                                "children": [],
                                "depth": 1,
                                "id": 1,
                                "order": 1
                            },
                            {
                                "children": [],
                                "depth": 1,
                                "id": 2,
                                "order": 2
                            },
                            {
                                "children": [
                                    {
                                        "children": [],
                                        "depth": 2,
                                        "id": 4,
                                        "order": 4
                                    }
                                ],
                                "depth": 1,
                                "id": 3,
                                "order": 3
                            },
                            {
                                "children": [
                                    {
                                        "children": [
                                            {
                                                "children": [],
                                                "depth": 3,
                                                "id": 7,
                                                "order": 7
                                            }
                                        ],
                                        "depth": 2,
                                        "id": 6,
                                        "order": 6
                                    },
                                    {
                                        "children": [],
                                        "depth": 2,
                                        "id": 8,
                                        "order": 8
                                    },
                                    {
                                        "children": [],
                                        "depth": 2,
                                        "id": 9,
                                        "order": 9
                                    },
                                    {
                                        "children": [],
                                        "depth": 2,
                                        "id": 10,
                                        "order": 10
                                    },
                                    {
                                        "children": [],
                                        "depth": 2,
                                        "id": 11,
                                        "order": 11
                                    }
                                ],
                                "depth": 1,
                                "id": 5,
                                "order": 5
                            },
                            {
                                "children": [
                                    {
                                        "children": [
                                            {
                                                "children": [],
                                                "depth": 3,
                                                "id": 14,
                                                "order": 14
                                            }
                                        ],
                                        "depth": 2,
                                        "id": 13,
                                        "order": 13
                                    },
                                    {
                                        "children": [],
                                        "depth": 2,
                                        "id": 15,
                                        "order": 15
                                    },
                                    {
                                        "children": [],
                                        "depth": 2,
                                        "id": 16,
                                        "order": 16
                                    },
                                    {
                                        "children": [],
                                        "depth": 2,
                                        "id": 17,
                                        "order": 17
                                    },
                                    {
                                        "children": [],
                                        "depth": 2,
                                        "id": 18,
                                        "order": 18
                                    }
                                ],
                                "depth": 1,
                                "id": 12,
                                "order": 12
                            }
                        ],
                        "depth": 0,
                        "id": 0,
                        "order": 0
                    }
                ],
                "depth": -1,
                "id": -1,
                "order": -1
            }
        ],
        "mainTraceNodeCount": 19,
        "parentIdMap": {
            "0": -1,
            "1": 0,
            "10": 5,
            "11": 5,
            "12": 0,
            "13": 12,
            "14": 13,
            "15": 12,
            "16": 12,
            "17": 12,
            "18": 12,
            "2": 0,
            "3": 0,
            "4": 3,
            "5": 0,
            "6": 5,
            "7": 6,
            "8": 5,
            "9": 5
        },
        "tidyTrace": [
            {
                "children": [
                    {
                        "children": [
                            {
                                "children": [
                                    {
                                        "children": [],
                                        "depth": 2,
                                        "id": 4,
                                        "order": 4
                                    }
                                ],
                                "depth": 1,
                                "id": 3,
                                "order": 3
                            },
                            {
                                "children": [
                                    {
                                        "children": [
                                            {
                                                "children": [],
                                                "depth": 3,
                                                "id": 7,
                                                "order": 7
                                            }
                                        ],
                                        "depth": 2,
                                        "id": 6,
                                        "order": 6
                                    },
                                    {
                                        "children": [],
                                        "depth": 2,
                                        "id": 10,
                                        "order": 10
                                    },
                                    {
                                        "children": [],
                                        "depth": 2,
                                        "id": 11,
                                        "order": 11
                                    }
                                ],
                                "depth": 1,
                                "id": 5,
                                "order": 5
                            },
                            {
                                "children": [
                                    {
                                        "children": [
                                            {
                                                "children": [],
                                                "depth": 3,
                                                "id": 14,
                                                "order": 14
                                            }
                                        ],
                                        "depth": 2,
                                        "id": 13,
                                        "order": 13
                                    },
                                    {
                                        "children": [],
                                        "depth": 2,
                                        "id": 17,
                                        "order": 17
                                    },
                                    {
                                        "children": [],
                                        "depth": 2,
                                        "id": 18,
                                        "order": 18
                                    }
                                ],
                                "depth": 1,
                                "id": 12,
                                "order": 12
                            }
                        ],
                        "depth": 0,
                        "id": 0,
                        "order": 0
                    }
                ],
                "depth": -1,
                "id": -1,
                "order": -1
            }
        ],
        "tidyTraceNodeCount": 13
    },
    "state_change": {
        "stateChanges": [
            {
                "address": "0x0d4a11d5eeaac28ec3f61d100daf4d40471f1852",
                "erc": "ERC-20",
                "slots": [
                    {
                        "current": "0x5f6513b500000000000000009b7bed966ee7000000005f9c007ebe56c4c18ee8",
                        "key": "0x0000000000000000000000000000000000000000000000000000000000000008",
                        "prev": "0x5f6513b500000000000000009b7d542867de000000005f9b235979c0ed4937ef"
                    }
                ],
                "storageVariables": [
                    {
                        "name": "reserve0",
                        "type": "uint112",
                        "value": {
                            "current": "451502543623241928380136",
                            "prev": "451486608404975052208111",
                            "typeTag": 1
                        }
                    },
                    {
                        "name": "reserve1",
                        "type": "uint112",
                        "value": {
                            "current": "170956569341671",
                            "prev": "170962585151454",
                            "typeTag": 1
                        }
                    },
                    {
                        "name": "blockTimestampLast",
                        "type": "uint32",
                        "value": {
                            "current": "1600459701",
                            "prev": "1600459701",
                            "typeTag": 1
                        }
                    }
                ]
            },
            {
                "address": "0x4639cd8cd52ec1cf2e496a606ce28d8afb1c792f",
                "erc": "ERC-20",
                "slots": [
                    {
                        "current": "0x0000000000000000000000000000000000000000000000515695eae3e0abe13c",
                        "key": "0x447ef2716a2b497e188ce198fb585c60805abd765b909a23ebdc83c0f81e43c5",
                        "prev": "0x00000000000000000000000000000000000000000000006c717ac1c6cffbe13c"
                    },
                    {
                        "current": "0x0000000000000000000000000000000000000000000003f70a39354f3cc48b89",
                        "key": "0xc293f00ed74a3b8b1524173f0887323068de2db2623439d1d23a1ecb8f3bb6f9",
                        "prev": "0x0000000000000000000000000000000000000000000003dbef545e6c4d748b89"
                    },
                    {
                        "current": "0xffffffffffffffffffffffffffffffffffffffffffffffd52c8c31997167ffff",
                        "key": "0x63f7aafb815ae327a2ab5730c90f70f840e1e49c992b3f3b97cc6d45f08b35f0",
                        "prev": "0xfffffffffffffffffffffffffffffffffffffffffffffff04771087c60b7ffff"
                    }
                ],
                "storageVariables": [
                    {
                        "name": "balances",
                        "type": "mapping(address => uint256)",
                        "value": {
                            "pairs": [
                                {
                                    "key": "0x961eb1645355297b5ee6e6c60ba9e72505e550f8",
                                    "value": {
                                        "current": "18724181913443684879241",
                                        "prev": "18224181913443684879241",
                                        "typeTag": 1
                                    }
                                },
                                {
                                    "key": "0x9e773d536af3c044193450a56d9c6cf39d4807ce",
                                    "value": {
                                        "current": "1500425421093713207612",
                                        "prev": "2000425421093713207612",
                                        "typeTag": 1
                                    }
                                }
                            ],
                            "typeTag": 4
                        }
                    },
                    {
                        "name": "allowed",
                        "type": "mapping(address => mapping(address => uint256))",
                        "value": {
                            "pairs": [
                                {
                                    "key": "0x9e773d536af3c044193450a56d9c6cf39d4807ce",
                                    "value": {
                                        "pairs": [
                                            {
                                                "key": "0x7a250d5630b4cf539739df2c5dacb4c659f2488d",
                                                "value": {
                                                    "current": "115792089237316195423570985008687907853269984665640564038667584007913129639935",
                                                    "prev": "115792089237316195423570985008687907853269984665640564039167584007913129639935",
                                                    "typeTag": 1
                                                }
                                            }
                                        ],
                                        "typeTag": 4
                                    }
                                }
                            ],
                            "typeTag": 4
                        }
                    }
                ]
            },
            {
                "address": "0x961eb1645355297b5ee6e6c60ba9e72505e550f8",
                "erc": "ERC-20",
                "slots": [
                    {
                        "current": "0x000000000000000000000000000001fde418c1666cd7d570779166cf397f8294",
                        "key": "0x000000000000000000000000000000000000000000000000000000000000000a",
                        "prev": "0x000000000000000000000000000001fdcc6d35331df1890013b0c62a30dcf639"
                    },
                    {
                        "current": "0x5f6513b500000000001f94a5ff0a692f3b280000000003f70a39354f3cc48b89",
                        "key": "0x0000000000000000000000000000000000000000000000000000000000000008",
                        "prev": "0x5f6512ee00000000002071cb43a040a792210000000003dbef545e6c4d748b89"
                    },
                    {
                        "current": "0x00000000000000000000000000000000d40188c66597d3ebe9d1b8f65b98f86d",
                        "key": "0x0000000000000000000000000000000000000000000000000000000000000009",
                        "prev": "0x00000000000000000000000000000000d3faffbc90208641cbc807670312a496"
                    }
                ],
                "storageVariables": [
                    {
                        "name": "reserve0",
                        "type": "uint112",
                        "value": {
                            "current": "18724181913443684879241",
                            "prev": "18224181913443684879241",
                            "typeTag": 1
                        }
                    },
                    {
                        "name": "reserve1",
                        "type": "uint112",
                        "value": {
                            "current": "582560313993946151720",
                            "prev": "598495532260822323745",
                            "typeTag": 1
                        }
                    },
                    {
                        "name": "blockTimestampLast",
                        "type": "uint32",
                        "value": {
                            "current": "1600459701",
                            "prev": "1600459502",
                            "typeTag": 1
                        }
                    },
                    {
                        "name": "price0CumulativeLast",
                        "type": "uint256",
                        "value": {
                            "current": "281804301529584508896630982436315527277",
                            "prev": "281770368279199600998821910014392968342",
                            "typeTag": 1
                        }
                    },
                    {
                        "name": "price1CumulativeLast",
                        "type": "uint256",
                        "value": {
                            "current": "173506917283541254947020816561573904482964",
                            "prev": "173475454313272993382280548471174804076089",
                            "typeTag": 1
                        }
                    }
                ]
            },
            {
                "address": "0xc02aaa39b223fe8d0a0e5c4f27ead9083c756cc2",
                "erc": "ERC-20",
                "slots": [
                    {
                        "current": "0x000000000000000000000000000000000000000000005f9c007ebe56c4c18ee8",
                        "key": "0xaced72359d8708e95d2112ba70e71fa267967a5588d15e7c78c1904e0debe410",
                        "prev": "0x000000000000000000000000000000000000000000005f9b235979c0ed4937ef"
                    },
                    {
                        "current": "0x00000000000000000000000000000000000000000000001f94a5ff0a692f3b28",
                        "key": "0x483c48e9c883a2172c45fd91d75980fb4f1bf7f8f11be64d19c89a012935ae2b",
                        "prev": "0x00000000000000000000000000000000000000000000002071cb43a040a79221"
                    }
                ],
                "storageVariables": [
                    {
                        "name": "balanceOf",
                        "type": "mapping(address => uint256)",
                        "value": {
                            "pairs": [
                                {
                                    "key": "0x0d4a11d5eeaac28ec3f61d100daf4d40471f1852",
                                    "value": {
                                        "current": "451502543623241928380136",
                                        "prev": "451486608404975052208111",
                                        "typeTag": 1
                                    }
                                },
                                {
                                    "key": "0x961eb1645355297b5ee6e6c60ba9e72505e550f8",
                                    "value": {
                                        "current": "582560313993946151720",
                                        "prev": "598495532260822323745",
                                        "typeTag": 1
                                    }
                                }
                            ],
                            "typeTag": 4
                        }
                    }
                ]
            },
            {
                "address": "0xdac17f958d2ee523a2206206994597c13d831ec7",
                "erc": "ERC-20",
                "slots": [
                    {
                        "current": "0x00000000000000000000000000000000000000000000000000009b7bed966ee7",
                        "key": "0x45b1147656da4d940c556082f0e09e91e3d046c1c84468f8ead64d8fdc1c749a",
                        "prev": "0x00000000000000000000000000000000000000000000000000009b7d542867de"
                    },
                    {
                        "current": "0x00000000000000000000000000000000000000000000000000000001f32efc64",
                        "key": "0x0dc3bf3f08fc03e1e92d1c8e90d2083fd65bd6b5a6ba7217cda761d80d9baf83",
                        "prev": "0x000000000000000000000000000000000000000000000000000000008c9d036d"
                    }
                ],
                "storageVariables": [
                    {
                        "name": "balances",
                        "type": "mapping(address => uint256)",
                        "value": {
                            "pairs": [
                                {
                                    "key": "0x0d4a11d5eeaac28ec3f61d100daf4d40471f1852",
                                    "value": {
                                        "current": "170956569341671",
                                        "prev": "170962585151454",
                                        "typeTag": 1
                                    }
                                },
                                {
                                    "key": "0x9e773d536af3c044193450a56d9c6cf39d4807ce",
                                    "value": {
                                        "current": "8374910052",
                                        "prev": "2359100269",
                                        "typeTag": 1
                                    }
                                }
                            ],
                            "typeTag": 4
                        }
                    }
                ]
            }
        ]
    }
}