{
    "balance_change": {
        "balanceChanges": []
    },
    "profile": {
        "basic_info": {
            "baseFee": "",
            "blockNumber": 7148478,
            "callData": "0xc642747400000000000000000000000096cbc8bf2474bb28dc54e4137aae091880ff489300000000000000000000000000000000000000000000000000000000000000000000000000000000000000000000000000000000000000000000000000000060000000000000000000000000000000000000000000000000000000000000006437ea010a000000000000000000000000b30da6c2ef9628832537895ccccef0441e691ed90000000000000000000000000000000000000000000000000000000000000fa0000000000000000000000000000000000000000000000000000000000000299400000000000000000000000000000000000000000000000000000000",
            "debugEnable": true,
            "errorInfo": "",
            "eventCount": 2,
            "feeRecipient": "0x829bd824b016326a401d083b33d092293333a830",
            "formatValue": "0",
            "gasLimit": 305066,
            "gasPrice": "9.000000001",
            "gasUsed": 199857,
            "intTxnCount": 0,
            "internalRevert": false,
            "internalRevertMessage": "",
            "isContractCreation": false,
            "isFlashloan": false,
            "maxFee": "",
            "nonce": 154,
            "overwritedBlockNumber": -1,
            "priorityFee": "",
            "receiver": "0xcf3d5aaba265c7cde3fc8e1bdf83f08d6eb6f0d9",
            "revertMessage": "",
            "sender": "0x1b00b68da6420e4c2a413e440065e84ff6630ddc",
            "simulationEnable": true,
            "sourceTxnHash": "0xde54ae671cd5c5da01dfdd3313a65bb5b83471c7847d89c02587a71b56347744",
            "status": true,
            "timestamp": "2019-01-30T10:50:10Z",
            "transactionFee": "0.001798713000199857",
            "txnHash": "0xde54ae671cd5c5da01dfdd3313a65bb5b83471c7847d89c02587a71b56347744",
            "txnIndex": 14,
            "type": 0,
            "value": "0"
        },
        "fund_flow": [],
        "token_infos": [
            {
                "address": "0xeeeeeeeeeeeeeeeeeeeeeeeeeeeeeeeeeeeeeeee",
                "decimals": 18
            },
            {
                "address": "0xc02aaa39b223fe8d0a0e5c4f27ead9083c756cc2",
                "decimals": 18
            }
        ]
    },
    "address_label": {
        "labels": [
            {
                "address": "0xeeeeeeeeeeeeeeeeeeeeeeeeeeeeeeeeeeeeeeee",
                "label": "Ether"
            },
            {
                "address": "0x96cbc8bf2474bb28dc54e4137aae091880ff4893",
                "label": "OKL"
            },
            {
                "address": "0xcf3d5aaba265c7cde3fc8e1bdf83f08d6eb6f0d9",
                "label": "MultiSigWalletWithDailyLimit"
            },
            {
                "address": "0x0000000000000000000000000000000000000001",
                "label": "Precompiled"
            },
            {
                "address": "0x0000000000000000000000000000000000000002",
                "label": "Precompiled"
            },
            {
                "address": "0x0000000000000000000000000000000000000003",
                "label": "Precompiled"
            },
            {
                "address": "0x0000000000000000000000000000000000000004",
                "label": "Precompiled"
            }
        ]
    },
    "trace": {
        "accountLabels": null,
        "dataMap": {
            "-1": {
                "invocation": {
                    "address": "0x1b00b68da6420e4c2a413e440065e84ff6630ddc",
                    "callData": "",
                    "decodedMethod": null,
                    "errorInfo": "",
                    "fromAddress": "",
                    "gasUsed": 0,
                    "id": -1,
                    "methodDecoded": false,
                    "operation": "",
                    "output": "",
                    "revert": false,
                    "revertMessage": "",
                    "selector": "",
                    "status": false,
                    "value": ""
                },
                "nodeType": 0
            },
            "0": {
                "invocation": {
                    "address": "0xcf3d5aaba265c7cde3fc8e1bdf83f08d6eb6f0d9",
                    "callData": "0x00000000000000000000000096cbc8bf2474bb28dc54e4137aae091880ff489300000000000000000000000000000000000000000000000000000000000000000000000000000000000000000000000000000000000000000000000000000060000000000000000000000000000000000000000000000000000000000000006437ea010a000000000000000000000000b30da6c2ef9628832537895ccccef0441e691ed90000000000000000000000000000000000000000000000000000000000000fa0000000000000000000000000000000000000000000000000000000000000299400000000000000000000000000000000000000000000000000000000",
                    "decodedMethod": {
                        "callParams": [
                            {
                                "name": "destination",
                                "type": "address",
                                "value": "0x96cbc8bf2474bb28dc54e4137aae091880ff4893"
                            },
                            {
                                "name": "value",
                                "type": "uint256",
                                "value": "0"
                            },
                            {
                                "name": "data",
                                "type": "bytes",
                                "value": "0x37ea010a000000000000000000000000b30da6c2ef9628832537895ccccef0441e691ed90000000000000000000000000000000000000000000000000000000000000fa00000000000000000000000000000000000000000000000000000000000002994"
                            }
                        ],
                        "constructorArguments": "",
                        "name": "submitTransaction",
                        "returnParams": [
                            {
                                "name": "transactionId",
                                "type": "uint256",
                                "value": "44"
                            }
                        ],
                        "signature": "submitTransaction(address,uint256,bytes)"
                    },
                    "errorInfo": "",
                    "fromAddress": "0x1b00b68da6420e4c2a413e440065e84ff6630ddc",
                    "gasUsed": 199857,
                    "id": 0,
                    "methodDecoded": true,
                    "operation": "CALL",
                    "output": "0x000000000000000000000000000000000000000000000000000000000000002c",
                    "revert": false,
                    "revertMessage": "",
                    "selector": "0xc6427474",
                    "status": true,
                    "value": "0"
                },
                "nodeType": 0
            },
            "1": {
                "event": {
                    "contract": "0xcf3d5aaba265c7cde3fc8e1bdf83f08d6eb6f0d9",
                    "decodedLog": {
                        "name": "Submission",
                        "params": [
                            {
                                "name": "transactionId",
                                "type": "uint256",
                                "value": "44"
                            }
                        ],
                        "signature": "Submission(uint256)"
                    },
                    "id": 1,
                    "logData": "0x",
                    "logDecoded": true,
                    "operation": "EVENT",
                    "revert": false,
                    "status": true,
                    "topics": [
                        "0xc0ba8fe4b176c1714197d43b9cc6bcf797a4a7461c5fe8d0ef6e184ae7601e51",
                        "0x000000000000000000000000000000000000000000000000000000000000002c"
                    ]
                },
                "nodeType": 1
            },
            "2": {
                "event": {
                    "contract": "0xcf3d5aaba265c7cde3fc8e1bdf83f08d6eb6f0d9",
                    "decodedLog": {
                        "name": "Confirmation",
                        "params": [
                            {
                                "name": "sender",
                                "type": "address",
                                "value": "0x1b00b68da6420e4c2a413e440065e84ff6630ddc"
                            },
                            {
                                "name": "transactionId",
                                "type": "uint256",
                                "value": "44"
                            }
                        ],
                        "signature": "Confirmation(address,uint256)"
                    },
                    "id": 2,
                    "logData": "0x",
                    "logDecoded": true,
                    "operation": "EVENT",
                    "revert": false,
                    "status": true,
                    "topics": [
                        "0x4a504a94899432a9846e1aa406dceb1bcfd538bb839071d49d1e5e23f5be30ef",
                        "0x0000000000000000000000001b00b68da6420e4c2a413e440065e84ff6630ddc",
                        "0x000000000000000000000000000000000000000000000000000000000000002c"
                    ]
                },
                "nodeType": 1
            }
        },
        "gasFlame": [
            {
                "children": [
                    {
                        "children": [
                            {
                                "children": [],
                                "depth": 0,
                                "name": "Initial Gas",
                                "value": 25496
                            },
                            {
                                "children": [],
                                "depth": 0,
                                "name": "Executed Gas",
                                "value": 174361
                            }
                        ],
                        "depth": -1,
                        "name": "Actual Gas Used",
                        "value": 199857
                    },
                    {
                        "children": [],
                        "depth": -1,
                        "name": "Refunded Gas",
                        "value": 0
                    }
                ],
                "depth": -2,
                "name": "Total Gas",
                "value": 199857
            }
        ],
        "isConfirmed": true,
        "mainTrace": [
            {
                "children": [
                    {
                        "children": [
                            {
                                "children": [],
                                "depth": 1,
                                "id": 1,
                                "order": 1
                            },
                            {
                                "children": [],
                                "depth": 1,
                                "id": 2,
                                "order": 2
                            }
                        ],
                        "depth": 0,
                        "id": 0,
                        "order": 0
                    }
                ],
                "depth": -1,
                "id": -1,
                "order": -1
            }
        ],
        "mainTraceNodeCount": 3,
        "parentIdMap": {
            "0": -1,
            "1": 0,
            "2": 0
        },
        "tidyTrace": [
            {
                "children": [
                    {
                        "children": [
                            {
                                "children": [],
                                "depth": 1,
                                "id": 1,
                                "order": 1
                            },
                            {
                                "children": [],
                                "depth": 1,
                                "id": 2,
                                "order": 2
                            }
                        ],
                        "depth": 0,
                        "id": 0,
                        "order": 0
                    }
                ],
                "depth": -1,
                "id": -1,
                "order": -1
            }
        ],
        "tidyTraceNodeCount": 3
    },
    "state_change": {
        "stateChanges": [
            {
                "address": "0xcf3d5aaba265c7cde3fc8e1bdf83f08d6eb6f0d9",
                "erc": "",
                "slots": [
                    {
                        "current": "0x0000000000000000000000000000000000000000000000000000000000000001",
                        "key": "0x4ee39980284cf3b17aa302ba8f72a606241e051f211f550ddfc80e1a4b091261",
                        "prev": "0x0000000000000000000000000000000000000000000000000000000000000000"
                    },
                    {
                        "current": "0x00000000000000000000000096cbc8bf2474bb28dc54e4137aae091880ff4893",
                        "key": "0x2bfb33747d039531bb279f93c386332ae05e0c10b395017fd2d93fe9fc4c6e23",
                        "prev": "0x0000000000000000000000000000000000000000000000000000000000000000"
                    },
                    {
                        "current": "0x00000000000000000000000000000000000000000000000000000000000000c9",
                        "key": "0x2bfb33747d039531bb279f93c386332ae05e0c10b395017fd2d93fe9fc4c6e25",
                        "prev": "0x0000000000000000000000000000000000000000000000000000000000000000"
                    },
                    {
                        "current": "0x37ea010a000000000000000000000000b30da6c2ef9628832537895ccccef044",
                        "key": "0xcb60f746d64aec56840a816e7f07ff4dc6d126b54d79648ec2f965ec6675095d",
                        "prev": "0x0000000000000000000000000000000000000000000000000000000000000000"
                    },
                    {
                        "current": "0x1e691ed900000000000000000000000000000000000000000000000000000000",
                        "key": "0xcb60f746d64aec56840a816e7f07ff4dc6d126b54d79648ec2f965ec6675095e",
                        "prev": "0x0000000000000000000000000000000000000000000000000000000000000000"
                    },
                    {
                        "current": "0x00000fa000000000000000000000000000000000000000000000000000000000",
                        "key": "0xcb60f746d64aec56840a816e7f07ff4dc6d126b54d79648ec2f965ec6675095f",
                        "prev": "0x0000000000000000000000000000000000000000000000000000000000000000"
                    },
                    {
                        "current": "0x0000299400000000000000000000000000000000000000000000000000000000",
                        "key": "0xcb60f746d64aec56840a816e7f07ff4dc6d126b54d79648ec2f965ec66750960",
                        "prev": "0x0000000000000000000000000000000000000000000000000000000000000000"
                    },
                    {
                        "current": "0x000000000000000000000000000000000000000000000000000000000000002d",
                        "key": "0x0000000000000000000000000000000000000000000000000000000000000005",
                        "prev": "0x000000000000000000000000000000000000000000000000000000000000002c"
                    }
                ],
                "storageVariables": [
                    {
                        "name": "transactions",
                        "type": "mapping(uint256 => struct MultiSigWallet.Transaction)",
                        "value": {
                            "pairs": [
                                {
                                    "key": "44",
                                    "value": {
                                        "fields": [
                                            {
                                                "name": "destination",
                                                "type": "address",
                                                "value": {
                                                    "current": "0x96cbc8bf2474bb28dc54e4137aae091880ff4893",
                                                    "prev": "0x0000000000000000000000000000000000000000",
                                                    "typeTag": 1
                                                }
                                            },
                                            {
                                                "name": "data",
                                                "type": "bytes",
                                                "value": {
                                                    "current": "0x37ea010a000000000000000000000000b30da6c2ef9628832537895ccccef0440x1e691ed9000000000000000000000000000000000000000000000000000000000x00000fa0000000000000000000000000000000000000000000000000000000000x00002994",
                                                    "prev": "0x",
                                                    "typeTag": 1
                                                }
                                            }
                                        ],
                                        "typeTag": 3
                                    }
                                }
                            ],
                            "typeTag": 4
                        }
                    },
                    {
                        "name": "transactionCount",
                        "type": "uint256",
                        "value": {
                            "current": "45",
                            "prev": "44",
                            "typeTag": 1
                        }
                    },
                    {
                        "name": "confirmations",
                        "type": "mapping(uint256 => mapping(address => bool))",
                        "value": {
                            "pairs": [
                                {
                                    "key": "44",
                                    "value": {
                                        "pairs": [
                                            {
                                                "key": "0x1b00b68da6420e4c2a413e440065e84ff6630ddc",
                                                "value": {
                                                    "current": "true",
                                                    "prev": "false",
                                                    "typeTag": 1
                                                }
                                            }
                                        ],
                                        "typeTag": 4
                                    }
                                }
                            ],
                            "typeTag": 4
                        }
                    }
                ]
            }
        ]
    }
}