{
    "balance_change": {
        "balanceChanges": [
            {
                "account": "0xb3d3848aca8a691bc6d02c57aea70f470509da63",
                "assets": [
                    {
                        "address": "0x79650799e7899a802cb96c0bc33a6a8d4ce4936c",
                        "amount": "1",
                        "iconUrl": "",
                        "isERC1155": false,
                        "isERC721": false,
                        "sign": false,
                        "value": ""
                    }
                ]
            },
            {
                "account": "0xdc0a2ca5da24df95922a7d8c3956a58a63ca304c",
                "assets": [
                    {
                        "address": "0x79650799e7899a802cb96c0bc33a6a8d4ce4936c",
                        "amount": "1",
                        "iconUrl": "",
                        "isERC1155": false,
                        "isERC721": false,
                        "sign": true,
                        "value": ""
                    }
                ]
            }
        ]
    },
    "profile": {
        "basic_info": {
            "baseFee": "",
            "blockNumber": 5887791,
            "callData": "0xa9059cbb000000000000000000000000dc0a2ca5da24df95922a7d8c3956a58a63ca304c0000000000000000000000000000000000000000000000000de0b6b3a7640000",
            "debugEnable": true,
            "errorInfo": "",
            "eventCount": 1,
            "feeRecipient": "0xea674fdde714fd979de3edf0f56aa9716b898ec8",
            "formatValue": "0",
            "gasLimit": 90000,
            "gasPrice": "50",
            "gasUsed": 52776,
            "intTxnCount": 0,
            "internalRevert": false,
            "internalRevertMessage": "",
            "isContractCreation": false,
            "isFlashloan": false,
            "maxFee": "",
            "nonce": 487,
            "overwritedBlockNumber": -1,
            "priorityFee": "",
            "receiver": "0x79650799e7899a802cb96c0bc33a6a8d4ce4936c",
            "revertMessage": "",
            "sender": "0xb3d3848aca8a691bc6d02c57aea70f470509da63",
            "simulationEnable": true,
            "sourceTxnHash": "0xded31e98f0d51818f0bd71acfc50eb91814f9f2d3752bc7138d97ed529f0c170",
            "status": true,
            "timestamp": "2018-07-01T17:53:25Z",
            "transactionFee": "0.0026388",
            "txnHash": "0xded31e98f0d51818f0bd71acfc50eb91814f9f2d3752bc7138d97ed529f0c170",
            "txnIndex": 27,
            "type": 0,
            "value": "0"
        },
        "fund_flow": [
            {
                "amount": "1",
                "from": "0xb3d3848aca8a691bc6d02c57aea70f470509da63",
                "id": 1,
                "isERC1155": false,
                "isERC721": false,
                "isReverted": false,
                "order": 1,
                "to": "0xdc0a2ca5da24df95922a7d8c3956a58a63ca304c",
                "token": "0x79650799e7899a802cb96c0bc33a6a8d4ce4936c"
            }
        ],
        "token_infos": [
            {
                "address": "0x79650799e7899a802cb96c0bc33a6a8d4ce4936c",
                "decimals": 18
            },
            {
                "address": "0xc02aaa39b223fe8d0a0e5c4f27ead9083c756cc2",
                "decimals": 18
            },
            {
                "address": "0xeeeeeeeeeeeeeeeeeeeeeeeeeeeeeeeeeeeeeeee",
                "decimals": 18
            }
        ]
    },
    "address_label": {
        "labels": [
            {
                "address": "0xeeeeeeeeeeeeeeeeeeeeeeeeeeeeeeeeeeeeeeee",
                "label": "Ether"
            },
            {
                "address": "0x79650799e7899a802cb96c0bc33a6a8d4ce4936c",
                "label": "AIT (AIT)"
            },
            {
                "address": "0x0000000000000000000000000000000000000001",
                "label": "Precompiled"
            },
            {
                "address": "0x0000000000000000000000000000000000000002",
                "label": "Precompiled"
            },
            {
                "address": "0x0000000000000000000000000000000000000003",
                "label": "Precompiled"
            },
            {
                "address": "0x0000000000000000000000000000000000000004",
                "label": "Precompiled"
            }
        ]
    },
    "trace": {
        "accountLabels": null,
        "dataMap": {
            "-1": {
                "invocation": {
                    "address": "0xb3d3848aca8a691bc6d02c57aea70f470509da63",
                    "callData": "",
                    "decodedMethod": null,
                    "errorInfo": "",
                    "fromAddress": "",
                    "gasUsed": 0,
                    "id": -1,
                    "methodDecoded": false,
                    "operation": "",
                    "output": "",
                    "revert": false,
                    "revertMessage": "",
                    "selector": "",
                    "status": false,
                    "value": ""
                },
                "nodeType": 0
            },
            "0": {
                "invocation": {
                    "address": "0x79650799e7899a802cb96c0bc33a6a8d4ce4936c",
                    "callData": "0x000000000000000000000000dc0a2ca5da24df95922a7d8c3956a58a63ca304c0000000000000000000000000000000000000000000000000de0b6b3a7640000",
                    "decodedMethod": {
                        "callParams": [
                            {
                                "name": "_to",
                                "type": "address",
                                "value": "0xdc0a2ca5da24df95922a7d8c3956a58a63ca304c"
                            },
                            {
                                "decimalAvailable": true,
                                "name": "_value",
                                "type": "uint256",
                                "value": "1,000,000,000,000,000,000"
                            }
                        ],
                        "constructorArguments": "",
                        "name": "transfer",
                        "returnParams": [],
                        "signature": "transfer(address,uint256)"
                    },
                    "errorInfo": "",
                    "fromAddress": "0xb3d3848aca8a691bc6d02c57aea70f470509da63",
                    "gasUsed": 52776,
                    "id": 0,
                    "methodDecoded": true,
                    "operation": "CALL",
                    "output": "",
                    "revert": false,
                    "revertMessage": "",
                    "selector": "0xa9059cbb",
                    "status": true,
                    "value": "0"
                },
                "nodeType": 0
            },
            "1": {
                "event": {
                    "contract": "0x79650799e7899a802cb96c0bc33a6a8d4ce4936c",
                    "decodedLog": {
                        "name": "Transfer",
                        "params": [
                            {
                                "name": "from",
                                "type": "address",
                                "value": "0xb3d3848aca8a691bc6d02c57aea70f470509da63"
                            },
                            {
                                "name": "to",
                                "type": "address",
                                "value": "0xdc0a2ca5da24df95922a7d8c3956a58a63ca304c"
                            },
                            {
                                "decimalAvailable": true,
                                "name": "value",
                                "type": "uint256",
                                "value": "1,000,000,000,000,000,000"
                            }
                        ],
                        "signature": "Transfer(address,address,uint256)"
                    },
                    "id": 1,
                    "logData": "0x0000000000000000000000000000000000000000000000000de0b6b3a7640000",
                    "logDecoded": true,
                    "operation": "EVENT",
                    "revert": false,
                    "status": true,
                    "topics": [
                        "0xddf252ad1be2c89b69c2b068fc378daa952ba7f163c4a11628f55a4df523b3ef",
                        "0x000000000000000000000000b3d3848aca8a691bc6d02c57aea70f470509da63",
                        "0x000000000000000000000000dc0a2ca5da24df95922a7d8c3956a58a63ca304c"
                    ]
                },
                "nodeType": 1
            }
        },
        "gasFlame": [
            {
                "children": [
                    {
                        "children": [
                            {
                                "children": [],
                                "depth": 0,
                                "name": "Initial Gas",
                                "value": 23192
                            },
                            {
                                "children": [],
                                "depth": 0,
                                "name": "Executed Gas",
                                "value": 29584
                            }
                        ],
                        "depth": -1,
                        "name": "Actual Gas Used",
                        "value": 52776
                    },
                    {
                        "children": [],
                        "depth": -1,
                        "name": "Refunded Gas",
                        "value": 0
                    }
                ],
                "depth": -2,
                "name": "Total Gas",
                "value": 52776
            }
        ],
        "isConfirmed": true,
        "mainTrace": [
            {
                "children": [
                    {
                        "children": [
                            {
                                "children": [],
                                "depth": 1,
                                "id": 1,
                                "order": 1
                            }
                        ],
                        "depth": 0,
                        "id": 0,
                        "order": 0
                    }
                ],
                "depth": -1,
                "id": -1,
                "order": -1
            }
        ],
        "mainTraceNodeCount": 2,
        "parentIdMap": {
            "0": -1,
            "1": 0
        },
        "tidyTrace": [
            {
                "children": [
                    {
                        "children": [
                            {
                                "children": [],
                                "depth": 1,
                                "id": 1,
                                "order": 1
                            }
                        ],
                        "depth": 0,
                        "id": 0,
                        "order": 0
                    }
                ],
                "depth": -1,
                "id": -1,
                "order": -1
            }
        ],
        "tidyTraceNodeCount": 2
    },
    "state_change": {
        "stateChanges": [
            {
                "address": "0x79650799e7899a802cb96c0bc33a6a8d4ce4936c",
                "erc": "",
                "slots": [
                    {
                        "current": "0x0000000000000000000000000000000000000000000000000de0b6b3a7640000",
                        "key": "0xa67d7034fd9c3f287faec58ff8e85e273ef30350c2a47ef44b455e2f097796c4",
                        "prev": "0x0000000000000000000000000000000000000000000000000000000000000000"
                    },
                    {
                        "current": "0x00000000000000000000000000000000000000000000150d6807ce28c1c40000",
                        "key": "0x78aa10227c951757c1f773c9d9d8d87aa0ce0ba772f51b04c96ec367f7bd3375",
                        "prev": "0x00000000000000000000000000000000000000000000150d75e884dc69280000"
                    }
                ],
                "storageVariables": [
                    {
                        "name": "balanceOf",
                        "type": "mapping(address => uint256)",
                        "value": {
                            "pairs": [
                                {
                                    "key": "0xb3d3848aca8a691bc6d02c57aea70f470509da63",
                                    "value": {
                                        "current": "99417000000000000000000",
                                        "prev": "99418000000000000000000",
                                        "typeTag": 1
                                    }
                                },
                                {
                                    "key": "0xdc0a2ca5da24df95922a7d8c3956a58a63ca304c",
                                    "value": {
                                        "current": "1000000000000000000",
                                        "prev": "0",
                                        "typeTag": 1
                                    }
                                }
                            ],
                            "typeTag": 4
                        }
                    }
                ]
            }
        ]
    }
}