{
    "balance_change": {
        "balanceChanges": [
            {
                "account": "0x1f58624654f6e76b114ad73c5f58e86e48a7f130",
                "assets": [
                    {
                        "address": "0x44cffd8daa1cb00bb41a0f451169bc37f61ed53a",
                        "amount": "99,000",
                        "iconUrl": "",
                        "isERC1155": false,
                        "isERC721": false,
                        "sign": true,
                        "value": "673.9661808"
                    }
                ]
            },
            {
                "account": "0x4bb44eb5f87d6f9e6d98e29e397e25adeefac272",
                "assets": [
                    {
                        "address": "0xc02aaa39b223fe8d0a0e5c4f27ead9083c756cc2",
                        "amount": "0.224619620319119263",
                        "iconUrl": "https://assets.blocksec.com/icon/f1cb2d02c471d545bbc7722daf3277fd852d98e63d118771af7047bd8256c516.png",
                        "isERC1155": false,
                        "isERC721": false,
                        "sign": false,
                        "value": "457.43561054474700206"
                    }
                ]
            },
            {
                "account": "0x44cffd8daa1cb00bb41a0f451169bc37f61ed53a",
                "assets": [
                    {
                        "address": "0x44cffd8daa1cb00bb41a0f451169bc37f61ed53a",
                        "amount": "1,000",
                        "iconUrl": "",
                        "isERC1155": false,
                        "isERC721": false,
                        "sign": true,
                        "value": "6.99696614"
                    }
                ]
            },
            {
                "account": "0x764d124ef58a044666bce00ab38b1958ed6eaccb",
                "assets": [
                    {
                        "address": "0xc02aaa39b223fe8d0a0e5c4f27ead9083c756cc2",
                        "amount": "0.224619620319119263",
                        "iconUrl": "https://assets.blocksec.com/icon/f1cb2d02c471d545bbc7722daf3277fd852d98e63d118771af7047bd8256c516.png",
                        "isERC1155": false,
                        "isERC721": false,
                        "sign": true,
                        "value": "457.43561054474700206"
                    },
                    {
                        "address": "0x44cffd8daa1cb00bb41a0f451169bc37f61ed53a",
                        "amount": "100,000",
                        "iconUrl": "",
                        "isERC1155": false,
                        "isERC721": false,
                        "sign": false,
                        "value": "719.9626868"
                    }
                ]
            }
        ]
    },
    "profile": {
        "basic_info": {
            "baseFee": "68.205144117",
            "blockNumber": 18684893,
            "callData": "0xb30790d3000000000000000000000000000000000000000000000000058d15e17628000000000000000000000000000044cffd8daa1cb00bb41a0f451169bc37f61ed53a00000000000000000000000000000000000000000000000000005af3107a4000",
            "debugEnable": true,
            "errorInfo": "",
            "eventCount": 5,
            "feeRecipient": "0x4838b106fce9647bdf1e7877bf73ce8b0bad5f97",
            "formatValue": "0",
            "gasLimit": 300000,
            "gasPrice": "69.205144117",
            "gasUsed": 171612,
            "intTxnCount": 7,
            "internalRevert": false,
            "internalRevertMessage": "",
            "isContractCreation": false,
            "isFlashloan": false,
            "maxFee": "200",
            "nonce": 116,
            "overwritedBlockNumber": -1,
            "priorityFee": "1",
            "receiver": "0x4bb44eb5f87d6f9e6d98e29e397e25adeefac272",
            "revertMessage": "",
            "sender": "0x1f58624654f6e76b114ad73c5f58e86e48a7f130",
            "simulationEnable": true,
            "sourceTxnHash": "0xdf161ec54ace6850e4dbd271d69170dfd98c02fdac087bcb732b955e4b982691",
            "status": true,
            "timestamp": "2023-11-30T14:03:47Z",
            "transactionFee": "0.011876433192206604",
            "txnHash": "0xdf161ec54ace6850e4dbd271d69170dfd98c02fdac087bcb732b955e4b982691",
            "txnIndex": 27,
            "type": 2,
            "value": "0"
        },
        "fund_flow": [
            {
                "amount": "0.224619620319119263",
                "from": "0x4bb44eb5f87d6f9e6d98e29e397e25adeefac272",
                "id": 1,
                "isERC1155": false,
                "isERC721": false,
                "isReverted": false,
                "order": 1,
                "to": "0x764d124ef58a044666bce00ab38b1958ed6eaccb",
                "token": "0xc02aaa39b223fe8d0a0e5c4f27ead9083c756cc2"
            },
            {
                "amount": "1,000",
                "from": "0x764d124ef58a044666bce00ab38b1958ed6eaccb",
                "id": 2,
                "isERC1155": false,
                "isERC721": false,
                "isReverted": false,
                "order": 2,
                "to": "0x44cffd8daa1cb00bb41a0f451169bc37f61ed53a",
                "token": "0x44cffd8daa1cb00bb41a0f451169bc37f61ed53a"
            },
            {
                "amount": "99,000",
                "from": "0x764d124ef58a044666bce00ab38b1958ed6eaccb",
                "id": 3,
                "isERC1155": false,
                "isERC721": false,
                "isReverted": false,
                "order": 3,
                "to": "0x1f58624654f6e76b114ad73c5f58e86e48a7f130",
                "token": "0x44cffd8daa1cb00bb41a0f451169bc37f61ed53a"
            }
        ],
        "token_infos": [
            {
                "address": "0x44cffd8daa1cb00bb41a0f451169bc37f61ed53a",
                "decimals": 9
            },
            {
                "address": "0xc02aaa39b223fe8d0a0e5c4f27ead9083c756cc2",
                "decimals": 18
            },
            {
                "address": "0xeeeeeeeeeeeeeeeeeeeeeeeeeeeeeeeeeeeeeeee",
                "decimals": 18
            }
        ]
    },
    "address_label": {
        "labels": [
            {
                "address": "0xeeeeeeeeeeeeeeeeeeeeeeeeeeeeeeeeeeeeeeee",
                "label": "Ether"
            },
            {
                "address": "0xc02aaa39b223fe8d0a0e5c4f27ead9083c756cc2",
                "label": "Wrapped Ether (WETH)"
            },
            {
                "address": "0x5c69bee701ef814a2b6a3edd4b1652cb9cc5aa6f",
                "label": "Uniswap V2: Factory Contract"
            },
            {
                "address": "0x0000000000000000000000000000000000000002",
                "label": "Precompiled"
            },
            {
                "address": "0x0000000000000000000000000000000000000004",
                "label": "Precompiled"
            },
            {
                "address": "0x44cffd8daa1cb00bb41a0f451169bc37f61ed53a",
                "label": "Husky"
            },
            {
                "address": "0x764d124ef58a044666bce00ab38b1958ed6eaccb",
                "label": "UNI-V2"
            },
            {
                "address": "0x0000000000000000000000000000000000000001",
                "label": "Precompiled"
            },
            {
                "address": "0x0000000000000000000000000000000000000003",
                "label": "Precompiled"
            }
        ]
    },
    "trace": {
        "accountLabels": null,
        "dataMap": {
            "-1": {
                "invocation": {
                    "address": "0x1f58624654f6e76b114ad73c5f58e86e48a7f130",
                    "callData": "",
                    "decodedMethod": null,
                    "errorInfo": "",
                    "fromAddress": "",
                    "gasUsed": 0,
                    "id": -1,
                    "methodDecoded": false,
                    "operation": "",
                    "output": "",
                    "revert": false,
                    "revertMessage": "",
                    "selector": "",
                    "status": false,
                    "value": ""
                },
                "nodeType": 0
            },
            "0": {
                "invocation": {
                    "address": "0x4bb44eb5f87d6f9e6d98e29e397e25adeefac272",
                    "callData": "0x000000000000000000000000000000000000000000000000058d15e17628000000000000000000000000000044cffd8daa1cb00bb41a0f451169bc37f61ed53a00000000000000000000000000000000000000000000000000005af3107a4000",
                    "decodedMethod": null,
                    "errorInfo": "",
                    "fromAddress": "0x1f58624654f6e76b114ad73c5f58e86e48a7f130",
                    "gasUsed": 171612,
                    "id": 0,
                    "methodDecoded": false,
                    "operation": "CALL",
                    "output": "",
                    "revert": false,
                    "revertMessage": "",
                    "selector": "0xb30790d3",
                    "status": true,
                    "value": "0"
                },
                "nodeType": 0
            },
            "1": {
                "invocation": {
                    "address": "0x5c69bee701ef814a2b6a3edd4b1652cb9cc5aa6f",
                    "callData": "0x000000000000000000000000c02aaa39b223fe8d0a0e5c4f27ead9083c756cc200000000000000000000000044cffd8daa1cb00bb41a0f451169bc37f61ed53a",
                    "decodedMethod": {
                        "callParams": [
                            {
                                "name": "",
                                "type": "address",
                                "value": "0xc02aaa39b223fe8d0a0e5c4f27ead9083c756cc2"
                            },
                            {
                                "name": "",
                                "type": "address",
                                "value": "0x44cffd8daa1cb00bb41a0f451169bc37f61ed53a"
                            }
                        ],
                        "constructorArguments": "",
                        "name": "getPair",
                        "returnParams": [
                            {
                                "name": "",
                                "type": "address",
                                "value": "0x764d124ef58a044666bce00ab38b1958ed6eaccb"
                            }
                        ],
                        "signature": "getPair(address,address)"
                    },
                    "errorInfo": "",
                    "fromAddress": "0x4bb44eb5f87d6f9e6d98e29e397e25adeefac272",
                    "gasUsed": 2564,
                    "id": 1,
                    "methodDecoded": true,
                    "operation": "STATICCALL",
                    "output": "0x000000000000000000000000764d124ef58a044666bce00ab38b1958ed6eaccb",
                    "revert": false,
                    "revertMessage": "",
                    "selector": "0xe6a43905",
                    "status": true,
                    "value": "0"
                },
                "nodeType": 0
            },
            "10": {
                "invocation": {
                    "address": "0xc02aaa39b223fe8d0a0e5c4f27ead9083c756cc2",
                    "callData": "0x000000000000000000000000764d124ef58a044666bce00ab38b1958ed6eaccb",
                    "decodedMethod": {
                        "callParams": [
                            {
                                "name": "",
                                "type": "address",
                                "value": "0x764d124ef58a044666bce00ab38b1958ed6eaccb"
                            }
                        ],
                        "constructorArguments": "",
                        "name": "balanceOf",
                        "returnParams": [
                            {
                                "decimalAvailable": true,
                                "name": "",
                                "type": "uint256",
                                "value": "10,103,898,809,725,732,733"
                            }
                        ],
                        "signature": "balanceOf(address)"
                    },
                    "errorInfo": "",
                    "fromAddress": "0x764d124ef58a044666bce00ab38b1958ed6eaccb",
                    "gasUsed": 534,
                    "id": 10,
                    "methodDecoded": true,
                    "operation": "STATICCALL",
                    "output": "0x0000000000000000000000000000000000000000000000008c38426f4831c77d",
                    "revert": false,
                    "revertMessage": "",
                    "selector": "0x70a08231",
                    "status": true,
                    "value": "0"
                },
                "nodeType": 0
            },
            "11": {
                "event": {
                    "contract": "0x764d124ef58a044666bce00ab38b1958ed6eaccb",
                    "decodedLog": {
                        "name": "Sync",
                        "params": [
                            {
                                "name": "reserve0",
                                "type": "uint112",
                                "value": "4,411,460,670,244,605"
                            },
                            {
                                "name": "reserve1",
                                "type": "uint112",
                                "value": "10,103,898,809,725,732,733"
                            }
                        ],
                        "signature": "Sync(uint112,uint112)"
                    },
                    "id": 11,
                    "logData": "0x000000000000000000000000000000000000000000000000000fac333a30c6fd0000000000000000000000000000000000000000000000008c38426f4831c77d",
                    "logDecoded": true,
                    "operation": "EVENT",
                    "revert": false,
                    "status": true,
                    "topics": [
                        "0x1c411e9a96e071241c2f21f7726b17ae89e3cab4c78be50e062b03a9fffbbad1"
                    ]
                },
                "nodeType": 1
            },
            "12": {
                "event": {
                    "contract": "0x764d124ef58a044666bce00ab38b1958ed6eaccb",
                    "decodedLog": {
                        "name": "Swap",
                        "params": [
                            {
                                "name": "sender",
                                "type": "address",
                                "value": "0x4bb44eb5f87d6f9e6d98e29e397e25adeefac272"
                            },
                            {
                                "name": "to",
                                "type": "address",
                                "value": "0x1f58624654f6e76b114ad73c5f58e86e48a7f130"
                            },
                            {
                                "name": "amount0In",
                                "type": "uint256",
                                "value": "0"
                            },
                            {
                                "name": "amount1In",
                                "type": "uint256",
                                "value": "224,619,620,319,119,263"
                            },
                            {
                                "name": "amount0Out",
                                "type": "uint256",
                                "value": "100,000,000,000,000"
                            },
                            {
                                "name": "amount1Out",
                                "type": "uint256",
                                "value": "0"
                            }
                        ],
                        "signature": "Swap(address,uint256,uint256,uint256,uint256,address)"
                    },
                    "id": 12,
                    "logData": "0x0000000000000000000000000000000000000000000000000000000000000000000000000000000000000000000000000000000000000000031e025ac6b4479f00000000000000000000000000000000000000000000000000005af3107a40000000000000000000000000000000000000000000000000000000000000000000",
                    "logDecoded": true,
                    "operation": "EVENT",
                    "revert": false,
                    "status": true,
                    "topics": [
                        "0xd78ad95fa46c994b6551d0da85fc275fe613ce37657fb8d5e3d130840159d822",
                        "0x0000000000000000000000004bb44eb5f87d6f9e6d98e29e397e25adeefac272",
                        "0x0000000000000000000000001f58624654f6e76b114ad73c5f58e86e48a7f130"
                    ]
                },
                "nodeType": 1
            },
            "2": {
                "invocation": {
                    "address": "0x764d124ef58a044666bce00ab38b1958ed6eaccb",
                    "callData": "0x",
                    "decodedMethod": {
                        "callParams": [],
                        "constructorArguments": "",
                        "name": "getReserves",
                        "returnParams": [
                            {
                                "name": "_reserve0",
                                "type": "uint112",
                                "value": "4,511,460,670,244,605"
                            },
                            {
                                "name": "_reserve1",
                                "type": "uint112",
                                "value": "9,879,279,189,406,613,470"
                            },
                            {
                                "name": "_blockTimestampLast",
                                "type": "uint32",
                                "value": "1,701,353,027"
                            }
                        ],
                        "signature": "getReserves()"
                    },
                    "errorInfo": "",
                    "fromAddress": "0x4bb44eb5f87d6f9e6d98e29e397e25adeefac272",
                    "gasUsed": 2504,
                    "id": 2,
                    "methodDecoded": true,
                    "operation": "STATICCALL",
                    "output": "0x000000000000000000000000000000000000000000000000001007264aab06fd000000000000000000000000000000000000000000000000891a4014817d7fde0000000000000000000000000000000000000000000000000000000065689643",
                    "revert": false,
                    "revertMessage": "",
                    "selector": "0x0902f1ac",
                    "status": true,
                    "value": "0"
                },
                "nodeType": 0
            },
            "3": {
                "invocation": {
                    "address": "0xc02aaa39b223fe8d0a0e5c4f27ead9083c756cc2",
                    "callData": "0x000000000000000000000000764d124ef58a044666bce00ab38b1958ed6eaccb000000000000000000000000000000000000000000000000031e025ac6b4479f",
                    "decodedMethod": {
                        "callParams": [
                            {
                                "name": "dst",
                                "type": "address",
                                "value": "0x764d124ef58a044666bce00ab38b1958ed6eaccb"
                            },
                            {
                                "decimalAvailable": true,
                                "name": "wad",
                                "type": "uint256",
                                "value": "224,619,620,319,119,263"
                            }
                        ],
                        "constructorArguments": "",
                        "name": "transfer",
                        "returnParams": [
                            {
                                "name": "",
                                "type": "bool",
                                "value": true
                            }
                        ],
                        "signature": "transfer(address,uint256)"
                    },
                    "errorInfo": "",
                    "fromAddress": "0x4bb44eb5f87d6f9e6d98e29e397e25adeefac272",
                    "gasUsed": 12862,
                    "id": 3,
                    "methodDecoded": true,
                    "operation": "CALL",
                    "output": "0x0000000000000000000000000000000000000000000000000000000000000001",
                    "revert": false,
                    "revertMessage": "",
                    "selector": "0xa9059cbb",
                    "status": true,
                    "value": "0"
                },
                "nodeType": 0
            },
            "4": {
                "event": {
                    "contract": "0xc02aaa39b223fe8d0a0e5c4f27ead9083c756cc2",
                    "decodedLog": {
                        "name": "Transfer",
                        "params": [
                            {
                                "name": "src",
                                "type": "address",
                                "value": "0x4bb44eb5f87d6f9e6d98e29e397e25adeefac272"
                            },
                            {
                                "name": "dst",
                                "type": "address",
                                "value": "0x764d124ef58a044666bce00ab38b1958ed6eaccb"
                            },
                            {
                                "decimalAvailable": true,
                                "name": "wad",
                                "type": "uint256",
                                "value": "224,619,620,319,119,263"
                            }
                        ],
                        "signature": "Transfer(address,address,uint256)"
                    },
                    "id": 4,
                    "logData": "0x000000000000000000000000000000000000000000000000031e025ac6b4479f",
                    "logDecoded": true,
                    "operation": "EVENT",
                    "revert": false,
                    "status": true,
                    "topics": [
                        "0xddf252ad1be2c89b69c2b068fc378daa952ba7f163c4a11628f55a4df523b3ef",
                        "0x0000000000000000000000004bb44eb5f87d6f9e6d98e29e397e25adeefac272",
                        "0x000000000000000000000000764d124ef58a044666bce00ab38b1958ed6eaccb"
                    ]
                },
                "nodeType": 1
            },
            "5": {
                "invocation": {
                    "address": "0x764d124ef58a044666bce00ab38b1958ed6eaccb",
                    "callData": "0x00000000000000000000000000000000000000000000000000005af3107a400000000000000000000000000000000000000000000000000000000000000000000000000000000000000000001f58624654f6e76b114ad73c5f58e86e48a7f13000000000000000000000000000000000000000000000000000000000000000800000000000000000000000000000000000000000000000000000000000000000",
                    "decodedMethod": {
                        "callParams": [
                            {
                                "name": "amount0Out",
                                "type": "uint256",
                                "value": "100,000,000,000,000"
                            },
                            {
                                "name": "amount1Out",
                                "type": "uint256",
                                "value": "0"
                            },
                            {
                                "name": "to",
                                "type": "address",
                                "value": "0x1f58624654f6e76b114ad73c5f58e86e48a7f130"
                            },
                            {
                                "name": "data",
                                "type": "bytes",
                                "value": "0x"
                            }
                        ],
                        "constructorArguments": "",
                        "name": "swap",
                        "returnParams": [],
                        "signature": "swap(uint256,uint256,address,bytes)"
                    },
                    "errorInfo": "",
                    "fromAddress": "0x4bb44eb5f87d6f9e6d98e29e397e25adeefac272",
                    "gasUsed": 114043,
                    "id": 5,
                    "methodDecoded": true,
                    "operation": "CALL",
                    "output": "",
                    "revert": false,
                    "revertMessage": "",
                    "selector": "0x022c0d9f",
                    "status": true,
                    "value": "0"
                },
                "nodeType": 0
            },
            "6": {
                "invocation": {
                    "address": "0x44cffd8daa1cb00bb41a0f451169bc37f61ed53a",
                    "callData": "0x0000000000000000000000001f58624654f6e76b114ad73c5f58e86e48a7f13000000000000000000000000000000000000000000000000000005af3107a4000",
                    "decodedMethod": {
                        "callParams": [
                            {
                                "name": "recipient",
                                "type": "address",
                                "value": "0x1f58624654f6e76b114ad73c5f58e86e48a7f130"
                            },
                            {
                                "decimalAvailable": true,
                                "name": "amount",
                                "type": "uint256",
                                "value": "100,000,000,000,000"
                            }
                        ],
                        "constructorArguments": "",
                        "name": "transfer",
                        "returnParams": [
                            {
                                "name": "",
                                "type": "bool",
                                "value": true
                            }
                        ],
                        "signature": "transfer(address,uint256)"
                    },
                    "errorInfo": "",
                    "fromAddress": "0x764d124ef58a044666bce00ab38b1958ed6eaccb",
                    "gasUsed": 89184,
                    "id": 6,
                    "methodDecoded": true,
                    "operation": "CALL",
                    "output": "0x0000000000000000000000000000000000000000000000000000000000000001",
                    "revert": false,
                    "revertMessage": "",
                    "selector": "0xa9059cbb",
                    "status": true,
                    "value": "0"
                },
                "nodeType": 0
            },
            "7": {
                "event": {
                    "contract": "0x44cffd8daa1cb00bb41a0f451169bc37f61ed53a",
                    "decodedLog": {
                        "name": "Transfer",
                        "params": [
                            {
                                "name": "from",
                                "type": "address",
                                "value": "0x764d124ef58a044666bce00ab38b1958ed6eaccb"
                            },
                            {
                                "name": "to",
                                "type": "address",
                                "value": "0x44cffd8daa1cb00bb41a0f451169bc37f61ed53a"
                            },
                            {
                                "decimalAvailable": true,
                                "name": "value",
                                "type": "uint256",
                                "value": "1,000,000,000,000"
                            }
                        ],
                        "signature": "Transfer(address,address,uint256)"
                    },
                    "id": 7,
                    "logData": "0x000000000000000000000000000000000000000000000000000000e8d4a51000",
                    "logDecoded": true,
                    "operation": "EVENT",
                    "revert": false,
                    "status": true,
                    "topics": [
                        "0xddf252ad1be2c89b69c2b068fc378daa952ba7f163c4a11628f55a4df523b3ef",
                        "0x000000000000000000000000764d124ef58a044666bce00ab38b1958ed6eaccb",
                        "0x00000000000000000000000044cffd8daa1cb00bb41a0f451169bc37f61ed53a"
                    ]
                },
                "nodeType": 1
            },
            "8": {
                "event": {
                    "contract": "0x44cffd8daa1cb00bb41a0f451169bc37f61ed53a",
                    "decodedLog": {
                        "name": "Transfer",
                        "params": [
                            {
                                "name": "from",
                                "type": "address",
                                "value": "0x764d124ef58a044666bce00ab38b1958ed6eaccb"
                            },
                            {
                                "name": "to",
                                "type": "address",
                                "value": "0x1f58624654f6e76b114ad73c5f58e86e48a7f130"
                            },
                            {
                                "decimalAvailable": true,
                                "name": "value",
                                "type": "uint256",
                                "value": "99,000,000,000,000"
                            }
                        ],
                        "signature": "Transfer(address,address,uint256)"
                    },
                    "id": 8,
                    "logData": "0x00000000000000000000000000000000000000000000000000005a0a3bd53000",
                    "logDecoded": true,
                    "operation": "EVENT",
                    "revert": false,
                    "status": true,
                    "topics": [
                        "0xddf252ad1be2c89b69c2b068fc378daa952ba7f163c4a11628f55a4df523b3ef",
                        "0x000000000000000000000000764d124ef58a044666bce00ab38b1958ed6eaccb",
                        "0x0000000000000000000000001f58624654f6e76b114ad73c5f58e86e48a7f130"
                    ]
                },
                "nodeType": 1
            },
            "9": {
                "invocation": {
                    "address": "0x44cffd8daa1cb00bb41a0f451169bc37f61ed53a",
                    "callData": "0x000000000000000000000000764d124ef58a044666bce00ab38b1958ed6eaccb",
                    "decodedMethod": {
                        "callParams": [
                            {
                                "name": "account",
                                "type": "address",
                                "value": "0x764d124ef58a044666bce00ab38b1958ed6eaccb"
                            }
                        ],
                        "constructorArguments": "",
                        "name": "balanceOf",
                        "returnParams": [
                            {
                                "decimalAvailable": true,
                                "name": "",
                                "type": "uint256",
                                "value": "4,411,460,670,244,605"
                            }
                        ],
                        "signature": "balanceOf(address)"
                    },
                    "errorInfo": "",
                    "fromAddress": "0x764d124ef58a044666bce00ab38b1958ed6eaccb",
                    "gasUsed": 918,
                    "id": 9,
                    "methodDecoded": true,
                    "operation": "STATICCALL",
                    "output": "0x000000000000000000000000000000000000000000000000000fac333a30c6fd",
                    "revert": false,
                    "revertMessage": "",
                    "selector": "0x70a08231",
                    "status": true,
                    "value": "0"
                },
                "nodeType": 0
            }
        },
        "gasFlame": [
            {
                "children": [
                    {
                        "children": [
                            {
                                "children": [],
                                "depth": 0,
                                "name": "Initial Gas",
                                "value": 21820
                            },
                            {
                                "children": [
                                    {
                                        "children": [],
                                        "depth": 1,
                                        "name": "getPair",
                                        "value": 2564
                                    },
                                    {
                                        "children": [],
                                        "depth": 1,
                                        "name": "getReserves",
                                        "value": 2504
                                    },
                                    {
                                        "children": [],
                                        "depth": 1,
                                        "name": "transfer",
                                        "value": 12862
                                    },
                                    {
                                        "children": [
                                            {
                                                "children": [],
                                                "depth": 2,
                                                "name": "transfer",
                                                "value": 89184
                                            },
                                            {
                                                "children": [],
                                                "depth": 2,
                                                "name": "balanceOf",
                                                "value": 918
                                            },
                                            {
                                                "children": [],
                                                "depth": 2,
                                                "name": "balanceOf",
                                                "value": 534
                                            }
                                        ],
                                        "depth": 1,
                                        "name": "swap",
                                        "value": 114043
                                    }
                                ],
                                "depth": 0,
                                "name": "Executed Gas",
                                "value": 152592
                            }
                        ],
                        "depth": -1,
                        "name": "Actual Gas Used",
                        "value": 171612
                    },
                    {
                        "children": [],
                        "depth": -1,
                        "name": "Refunded Gas",
                        "value": 2800
                    }
                ],
                "depth": -2,
                "name": "Total Gas",
                "value": 174412
            }
        ],
        "isConfirmed": true,
        "mainTrace": [
            {
                "children": [
                    {
                        "children": [
                            {
                                "children": [],
                                "depth": 1,
                                "id": 1,
                                "order": 1
                            },
                            {
                                "children": [],
                                "depth": 1,
                                "id": 2,
                                "order": 2
                            },
                            {
                                "children": [
                                    {
                                        "children": [],
                                        "depth": 2,
                                        "id": 4,
                                        "order": 4
                                    }
                                ],
                                "depth": 1,
                                "id": 3,
                                "order": 3
                            },
                            {
                                "children": [
                                    {
                                        "children": [
                                            {
                                                "children": [],
                                                "depth": 3,
                                                "id": 7,
                                                "order": 7
                                            },
                                            {
                                                "children": [],
                                                "depth": 3,
                                                "id": 8,
                                                "order": 8
                                            }
                                        ],
                                        "depth": 2,
                                        "id": 6,
                                        "order": 6
                                    },
                                    {
                                        "children": [],
                                        "depth": 2,
                                        "id": 9,
                                        "order": 9
                                    },
                                    {
                                        "children": [],
                                        "depth": 2,
                                        "id": 10,
                                        "order": 10
                                    },
                                    {
                                        "children": [],
                                        "depth": 2,
                                        "id": 11,
                                        "order": 11
                                    },
                                    {
                                        "children": [],
                                        "depth": 2,
                                        "id": 12,
                                        "order": 12
                                    }
                                ],
                                "depth": 1,
                                "id": 5,
                                "order": 5
                            }
                        ],
                        "depth": 0,
                        "id": 0,
                        "order": 0
                    }
                ],
                "depth": -1,
                "id": -1,
                "order": -1
            }
        ],
        "mainTraceNodeCount": 13,
        "parentIdMap": {
            "0": -1,
            "1": 0,
            "10": 5,
            "11": 5,
            "12": 5,
            "2": 0,
            "3": 0,
            "4": 3,
            "5": 0,
            "6": 5,
            "7": 6,
            "8": 6,
            "9": 5
        },
        "tidyTrace": [
            {
                "children": [
                    {
                        "children": [
                            {
                                "children": [
                                    {
                                        "children": [],
                                        "depth": 2,
                                        "id": 4,
                                        "order": 4
                                    }
                                ],
                                "depth": 1,
                                "id": 3,
                                "order": 3
                            },
                            {
                                "children": [
                                    {
                                        "children": [
                                            {
                                                "children": [],
                                                "depth": 3,
                                                "id": 7,
                                                "order": 7
                                            },
                                            {
                                                "children": [],
                                                "depth": 3,
                                                "id": 8,
                                                "order": 8
                                            }
                                        ],
                                        "depth": 2,
                                        "id": 6,
                                        "order": 6
                                    },
                                    {
                                        "children": [],
                                        "depth": 2,
                                        "id": 11,
                                        "order": 11
                                    },
                                    {
                                        "children": [],
                                        "depth": 2,
                                        "id": 12,
                                        "order": 12
                                    }
                                ],
                                "depth": 1,
                                "id": 5,
                                "order": 5
                            }
                        ],
                        "depth": 0,
                        "id": 0,
                        "order": 0
                    }
                ],
                "depth": -1,
                "id": -1,
                "order": -1
            }
        ],
        "tidyTraceNodeCount": 9
    },
    "state_change": {
        "stateChanges": [
            {
                "address": "0x44cffd8daa1cb00bb41a0f451169bc37f61ed53a",
                "erc": "ERC-20",
                "slots": [
                    {
                        "current": "0x000000000000000000000000000000000000000000000000000000000000006a",
                        "key": "0x000000000000000000000000000000000000000000000000000000000000000e",
                        "prev": "0x0000000000000000000000000000000000000000000000000000000000000069"
                    },
                    {
                        "current": "0x00000000000000000000000000000000000000000000000000000ade8dff822f",
                        "key": "0x104ca92c9a3f9023f00a7bd00befdc0a546f7f4761f5cfaac101c623be00ced3",
                        "prev": "0x000000000000000000000000000000000000000000000000000009f5b95a722f"
                    },
                    {
                        "current": "0x000000000000000000000000000000000000000000000000000fac333a30c6fd",
                        "key": "0x414c2589126b1ac8dfd7624b1cc9f7fb696f78b97d679a9f22a0f3e4874162c1",
                        "prev": "0x000000000000000000000000000000000000000000000000001007264aab06fd"
                    },
                    {
                        "current": "0x00000000000000000000000000000000000000000000000000005a0a3bd53000",
                        "key": "0x9ab1ee1f8e2f086093af7b6306a877aeeabc38e2f4ac4286389f87225d48fd2b",
                        "prev": "0x0000000000000000000000000000000000000000000000000000000000000000"
                    },
                    {
                        "current": "0x00000000000000000000000000000000000000000000000000000000011d1bdd",
                        "key": "0x411baad75a52586af2eac397092441fecb5c85832b487a528c08c87c7e8b3887",
                        "prev": "0x0000000000000000000000000000000000000000000000000000000000000000"
                    }
                ],
                "storageVariables": [
                    {
                        "name": "_balances",
                        "type": "mapping(address => uint256)",
                        "value": {
                            "pairs": [
                                {
                                    "key": "0x1f58624654f6e76b114ad73c5f58e86e48a7f130",
                                    "value": {
                                        "current": "99000000000000",
                                        "prev": "0",
                                        "typeTag": 1
                                    }
                                },
                                {
                                    "key": "0x44cffd8daa1cb00bb41a0f451169bc37f61ed53a",
                                    "value": {
                                        "current": "11950981349935",
                                        "prev": "10950981349935",
                                        "typeTag": 1
                                    }
                                },
                                {
                                    "key": "0x764d124ef58a044666bce00ab38b1958ed6eaccb",
                                    "value": {
                                        "current": "4411460670244605",
                                        "prev": "4511460670244605",
                                        "typeTag": 1
                                    }
                                }
                            ],
                            "typeTag": 4
                        }
                    },
                    {
                        "name": "_holderLastTransferTimestamp",
                        "type": "mapping(address => uint256)",
                        "value": {
                            "pairs": [
                                {
                                    "key": "0x1f58624654f6e76b114ad73c5f58e86e48a7f130",
                                    "value": {
                                        "current": "18684893",
                                        "prev": "0",
                                        "typeTag": 1
                                    }
                                }
                            ],
                            "typeTag": 4
                        }
                    },
                    {
                        "name": "_buyCount",
                        "type": "uint256",
                        "value": {
                            "current": "106",
                            "prev": "105",
                            "typeTag": 1
                        }
                    }
                ]
            },
            {
                "address": "0x764d124ef58a044666bce00ab38b1958ed6eaccb",
                "erc": "ERC-20",
                "slots": [
                    {
                        "current": "0x656896430000000000008c38426f4831c77d000000000000000fac333a30c6fd",
                        "key": "0x0000000000000000000000000000000000000000000000000000000000000008",
                        "prev": "0x65689643000000000000891a4014817d7fde000000000000001007264aab06fd"
                    }
                ],
                "storageVariables": [
                    {
                        "name": "reserve0",
                        "type": "uint112",
                        "value": {
                            "current": "4411460670244605",
                            "prev": "4511460670244605",
                            "typeTag": 1
                        }
                    },
                    {
                        "name": "reserve1",
                        "type": "uint112",
                        "value": {
                            "current": "10103898809725732733",
                            "prev": "9879279189406613470",
                            "typeTag": 1
                        }
                    },
                    {
                        "name": "blockTimestampLast",
                        "type": "uint32",
                        "value": {
                            "current": "1701353027",
                            "prev": "1701353027",
                            "typeTag": 1
                        }
                    }
                ]
            },
            {
                "address": "0xc02aaa39b223fe8d0a0e5c4f27ead9083c756cc2",
                "erc": "ERC-20",
                "slots": [
                    {
                        "current": "0x0000000000000000000000000000000000000000000000000f792ca4cb061510",
                        "key": "0x8c1ce4d1de527fba4aa6febeea1bef4b73db10ae49daaa81f87156af862a12cb",
                        "prev": "0x00000000000000000000000000000000000000000000000012972eff91ba5caf"
                    },
                    {
                        "current": "0x0000000000000000000000000000000000000000000000008c38426f4831c77d",
                        "key": "0x8aea5c47f9023ea1e59a5c27411fe6aaf26018e9b208d38194f86942cea15693",
                        "prev": "0x000000000000000000000000000000000000000000000000891a4014817d7fde"
                    }
                ],
                "storageVariables": [
                    {
                        "name": "balanceOf",
                        "type": "mapping(address => uint256)",
                        "value": {
                            "pairs": [
                                {
                                    "key": "0x4bb44eb5f87d6f9e6d98e29e397e25adeefac272",
                                    "value": {
                                        "current": "1114971469043340560",
                                        "prev": "1339591089362459823",
                                        "typeTag": 1
                                    }
                                },
                                {
                                    "key": "0x764d124ef58a044666bce00ab38b1958ed6eaccb",
                                    "value": {
                                        "current": "10103898809725732733",
                                        "prev": "9879279189406613470",
                                        "typeTag": 1
                                    }
                                }
                            ],
                            "typeTag": 4
                        }
                    }
                ]
            }
        ]
    }
}