{
    "balance_change": {
        "balanceChanges": [
            {
                "account": "0x412ce78c6cb4c227e1d1522ba484b4cc8c051b13",
                "assets": [
                    {
                        "address": "0x0abdace70d3790235af448c88547603b945604ea",
                        "amount": "18,057.2680342",
                        "iconUrl": "",
                        "isERC1155": false,
                        "isERC721": false,
                        "sign": false,
                        "value": ""
                    }
                ]
            },
            {
                "account": "0x00127429872a9566855c52c2921314b0ee311dff",
                "assets": [
                    {
                        "address": "0x0abdace70d3790235af448c88547603b945604ea",
                        "amount": "18,057.2680342",
                        "iconUrl": "",
                        "isERC1155": false,
                        "isERC721": false,
                        "sign": true,
                        "value": ""
                    }
                ]
            }
        ]
    },
    "profile": {
        "basic_info": {
            "baseFee": "",
            "blockNumber": 4603196,
            "callData": "0xa9059cbb00000000000000000000000000127429872a9566855c52c2921314b0ee311dff0000000000000000000000000000000000000000000003d2e2ef25993b2bf000",
            "debugEnable": true,
            "errorInfo": "",
            "eventCount": 1,
            "feeRecipient": "0x829bd824b016326a401d083b33d092293333a830",
            "formatValue": "0",
            "gasLimit": 300000,
            "gasPrice": "30",
            "gasUsed": 95320,
            "intTxnCount": 1,
            "internalRevert": false,
            "internalRevertMessage": "",
            "isContractCreation": false,
            "isFlashloan": false,
            "maxFee": "",
            "nonce": 5888,
            "overwritedBlockNumber": -1,
            "priorityFee": "",
            "receiver": "0x0abdace70d3790235af448c88547603b945604ea",
            "revertMessage": "",
            "sender": "0x412ce78c6cb4c227e1d1522ba484b4cc8c051b13",
            "simulationEnable": true,
            "sourceTxnHash": "0xdfb00ad0e69ecb691d73cfcf611a4a33637515b221ee1628295c611932397a1e",
            "status": true,
            "timestamp": "2017-11-22T22:08:45Z",
            "transactionFee": "0.0028596",
            "txnHash": "0xdfb00ad0e69ecb691d73cfcf611a4a33637515b221ee1628295c611932397a1e",
            "txnIndex": 36,
            "type": 0,
            "value": "0"
        },
        "fund_flow": [
            {
                "amount": "18,057.2680342",
                "from": "0x412ce78c6cb4c227e1d1522ba484b4cc8c051b13",
                "id": 1,
                "isERC1155": false,
                "isERC721": false,
                "isReverted": false,
                "order": 1,
                "to": "0x00127429872a9566855c52c2921314b0ee311dff",
                "token": "0x0abdace70d3790235af448c88547603b945604ea"
            }
        ],
        "token_infos": [
            {
                "address": "0x0abdace70d3790235af448c88547603b945604ea",
                "decimals": 18
            },
            {
                "address": "0xc02aaa39b223fe8d0a0e5c4f27ead9083c756cc2",
                "decimals": 18
            },
            {
                "address": "0xeeeeeeeeeeeeeeeeeeeeeeeeeeeeeeeeeeeeeeee",
                "decimals": 18
            }
        ]
    },
    "address_label": {
        "labels": [
            {
                "address": "0x0000000000000000000000000000000000000003",
                "label": "Precompiled"
            },
            {
                "address": "0x0000000000000000000000000000000000000004",
                "label": "Precompiled"
            },
            {
                "address": "0xeeeeeeeeeeeeeeeeeeeeeeeeeeeeeeeeeeeeeeee",
                "label": "Ether"
            },
            {
                "address": "0xf8094e15c897518b5ac5287d7070ca5850efc6ff",
                "label": "District0x: Token Sale"
            },
            {
                "address": "0x0abdace70d3790235af448c88547603b945604ea",
                "label": "District0x: DNT Token"
            },
            {
                "address": "0x0000000000000000000000000000000000000001",
                "label": "Precompiled"
            },
            {
                "address": "0x0000000000000000000000000000000000000002",
                "label": "Precompiled"
            }
        ]
    },
    "trace": {
        "accountLabels": null,
        "dataMap": {
            "-1": {
                "invocation": {
                    "address": "0x412ce78c6cb4c227e1d1522ba484b4cc8c051b13",
                    "callData": "",
                    "decodedMethod": null,
                    "errorInfo": "",
                    "fromAddress": "",
                    "gasUsed": 0,
                    "id": -1,
                    "methodDecoded": false,
                    "operation": "",
                    "output": "",
                    "revert": false,
                    "revertMessage": "",
                    "selector": "",
                    "status": false,
                    "value": ""
                },
                "nodeType": 0
            },
            "0": {
                "invocation": {
                    "address": "0x0abdace70d3790235af448c88547603b945604ea",
                    "callData": "0x00000000000000000000000000127429872a9566855c52c2921314b0ee311dff0000000000000000000000000000000000000000000003d2e2ef25993b2bf000",
                    "decodedMethod": {
                        "callParams": [
                            {
                                "name": "_to",
                                "type": "address",
                                "value": "0x00127429872a9566855c52c2921314b0ee311dff"
                            },
                            {
                                "decimalAvailable": true,
                                "name": "_value",
                                "type": "uint256",
                                "value": "18,057,268,034,200,000,000,000"
                            }
                        ],
                        "constructorArguments": "",
                        "name": "transfer",
                        "returnParams": [
                            {
                                "name": "",
                                "type": "bool",
                                "value": true
                            }
                        ],
                        "signature": "transfer(address,uint256)"
                    },
                    "errorInfo": "",
                    "fromAddress": "0x412ce78c6cb4c227e1d1522ba484b4cc8c051b13",
                    "gasUsed": 95320,
                    "id": 0,
                    "methodDecoded": true,
                    "operation": "CALL",
                    "output": "0x0000000000000000000000000000000000000000000000000000000000000001",
                    "revert": false,
                    "revertMessage": "",
                    "selector": "0xa9059cbb",
                    "status": true,
                    "value": "0"
                },
                "nodeType": 0
            },
            "1": {
                "invocation": {
                    "address": "0xf8094e15c897518b5ac5287d7070ca5850efc6ff",
                    "callData": "0x000000000000000000000000412ce78c6cb4c227e1d1522ba484b4cc8c051b1300000000000000000000000000127429872a9566855c52c2921314b0ee311dff0000000000000000000000000000000000000000000003d2e2ef25993b2bf000",
                    "decodedMethod": {
                        "callParams": [
                            {
                                "name": "_from",
                                "type": "address",
                                "value": "0x412ce78c6cb4c227e1d1522ba484b4cc8c051b13"
                            },
                            {
                                "name": "_to",
                                "type": "address",
                                "value": "0x00127429872a9566855c52c2921314b0ee311dff"
                            },
                            {
                                "name": "_amount",
                                "type": "uint256",
                                "value": "18,057,268,034,200,000,000,000"
                            }
                        ],
                        "constructorArguments": "",
                        "name": "onTransfer",
                        "returnParams": [
                            {
                                "name": "",
                                "type": "bool",
                                "value": true
                            }
                        ],
                        "signature": "onTransfer(address,address,uint256)"
                    },
                    "errorInfo": "",
                    "fromAddress": "0x0abdace70d3790235af448c88547603b945604ea",
                    "gasUsed": 979,
                    "id": 1,
                    "methodDecoded": true,
                    "operation": "CALL",
                    "output": "0x0000000000000000000000000000000000000000000000000000000000000001",
                    "revert": false,
                    "revertMessage": "",
                    "selector": "0x4a393149",
                    "status": true,
                    "value": "0"
                },
                "nodeType": 0
            },
            "2": {
                "event": {
                    "contract": "0x0abdace70d3790235af448c88547603b945604ea",
                    "decodedLog": {
                        "name": "Transfer",
                        "params": [
                            {
                                "name": "_from",
                                "type": "address",
                                "value": "0x412ce78c6cb4c227e1d1522ba484b4cc8c051b13"
                            },
                            {
                                "name": "_to",
                                "type": "address",
                                "value": "0x00127429872a9566855c52c2921314b0ee311dff"
                            },
                            {
                                "decimalAvailable": true,
                                "name": "_amount",
                                "type": "uint256",
                                "value": "18,057,268,034,200,000,000,000"
                            }
                        ],
                        "signature": "Transfer(address,address,uint256)"
                    },
                    "id": 2,
                    "logData": "0x0000000000000000000000000000000000000000000003d2e2ef25993b2bf000",
                    "logDecoded": true,
                    "operation": "EVENT",
                    "revert": false,
                    "status": true,
                    "topics": [
                        "0xddf252ad1be2c89b69c2b068fc378daa952ba7f163c4a11628f55a4df523b3ef",
                        "0x000000000000000000000000412ce78c6cb4c227e1d1522ba484b4cc8c051b13",
                        "0x00000000000000000000000000127429872a9566855c52c2921314b0ee311dff"
                    ]
                },
                "nodeType": 1
            }
        },
        "gasFlame": [
            {
                "children": [
                    {
                        "children": [
                            {
                                "children": [],
                                "depth": 0,
                                "name": "Initial Gas",
                                "value": 23320
                            },
                            {
                                "children": [
                                    {
                                        "children": [],
                                        "depth": 1,
                                        "name": "onTransfer",
                                        "value": 979
                                    }
                                ],
                                "depth": 0,
                                "name": "Executed Gas",
                                "value": 72000
                            }
                        ],
                        "depth": -1,
                        "name": "Actual Gas Used",
                        "value": 95320
                    },
                    {
                        "children": [],
                        "depth": -1,
                        "name": "Refunded Gas",
                        "value": 0
                    }
                ],
                "depth": -2,
                "name": "Total Gas",
                "value": 95320
            }
        ],
        "isConfirmed": true,
        "mainTrace": [
            {
                "children": [
                    {
                        "children": [
                            {
                                "children": [],
                                "depth": 1,
                                "id": 1,
                                "order": 1
                            },
                            {
                                "children": [],
                                "depth": 1,
                                "id": 2,
                                "order": 2
                            }
                        ],
                        "depth": 0,
                        "id": 0,
                        "order": 0
                    }
                ],
                "depth": -1,
                "id": -1,
                "order": -1
            }
        ],
        "mainTraceNodeCount": 3,
        "parentIdMap": {
            "0": -1,
            "1": 0,
            "2": 0
        },
        "tidyTrace": [
            {
                "children": [
                    {
                        "children": [
                            {
                                "children": [],
                                "depth": 1,
                                "id": 1,
                                "order": 1
                            },
                            {
                                "children": [],
                                "depth": 1,
                                "id": 2,
                                "order": 2
                            }
                        ],
                        "depth": 0,
                        "id": 0,
                        "order": 0
                    }
                ],
                "depth": -1,
                "id": -1,
                "order": -1
            }
        ],
        "tidyTraceNodeCount": 3
    },
    "state_change": {
        "stateChanges": [
            {
                "address": "0x0abdace70d3790235af448c88547603b945604ea",
                "erc": "ERC-20",
                "slots": [
                    {
                        "current": "0x000000000000d2edf5a23887f84e363700000000000000000000000000463d3c",
                        "key": "0xdb7b7dacba40fe9ce5c7ac8c826b461c6343d10fcf04b9fdf0a048a9acab4407",
                        "prev": "0x0000000000000000000000000000000000000000000000000000000000000000"
                    },
                    {
                        "current": "0x0000000000000000000000000000000000000000000000000000000000000007",
                        "key": "0x6be51afe796335023893e3f5f7788987cc21bf7c4b409eff3a6a5c5b808003e3",
                        "prev": "0x0000000000000000000000000000000000000000000000000000000000000006"
                    },
                    {
                        "current": "0x00000000000003d2e2ef25993b2bf00000000000000000000000000000463d3c",
                        "key": "0x7fc0d859d2c76abf54f06330b180bb4db9e4daaf75bf09d0d5c3ed87fe9a8b1c",
                        "prev": "0x0000000000000000000000000000000000000000000000000000000000000000"
                    },
                    {
                        "current": "0x0000000000000000000000000000000000000000000000000000000000001c54",
                        "key": "0xb2da473a0bd4389251592a5eff602b0b50b9de254b4370736b40f0559af8673b",
                        "prev": "0x0000000000000000000000000000000000000000000000000000000000001c53"
                    }
                ],
                "storageVariables": []
            }
        ]
    }
}