{
    "balance_change": {
        "balanceChanges": [
            {
                "account": "0xdb6e19c8b0365c7869892fd7e3394246b96087d1",
                "assets": [
                    {
                        "address": "0x23684d7c10a772d1fecd828814dd250473ec6b2d",
                        "amount": "239.99999",
                        "iconUrl": "",
                        "isERC1155": false,
                        "isERC721": false,
                        "sign": false,
                        "value": ""
                    }
                ]
            },
            {
                "account": "0x215f5b039ef3a92b494016b8b12bafa7566ffa59",
                "assets": [
                    {
                        "address": "0x23684d7c10a772d1fecd828814dd250473ec6b2d",
                        "amount": "239.99999",
                        "iconUrl": "",
                        "isERC1155": false,
                        "isERC721": false,
                        "sign": true,
                        "value": ""
                    }
                ]
            }
        ]
    },
    "profile": {
        "basic_info": {
            "baseFee": "",
            "blockNumber": 7658879,
            "callData": "0xa9059cbb000000000000000000000000215f5b039ef3a92b494016b8b12bafa7566ffa5900000000000000000000000000000000000000000000000d02ab3f549f4d6000",
            "debugEnable": true,
            "errorInfo": "",
            "eventCount": 1,
            "feeRecipient": "0xea674fdde714fd979de3edf0f56aa9716b898ec8",
            "formatValue": "0",
            "gasLimit": 500000,
            "gasPrice": "1",
            "gasUsed": 37057,
            "intTxnCount": 0,
            "internalRevert": false,
            "internalRevertMessage": "",
            "isContractCreation": false,
            "isFlashloan": false,
            "maxFee": "",
            "nonce": 0,
            "overwritedBlockNumber": -1,
            "priorityFee": "",
            "receiver": "0x23684d7c10a772d1fecd828814dd250473ec6b2d",
            "revertMessage": "",
            "sender": "0xdb6e19c8b0365c7869892fd7e3394246b96087d1",
            "simulationEnable": true,
            "sourceTxnHash": "0xdfe487f795271b7aef4eaaa23dc603ddfc3e4e0e01fb059fb1ba2e5fdfb9692d",
            "status": true,
            "timestamp": "2019-04-28T23:34:42Z",
            "transactionFee": "0.000037057",
            "txnHash": "0xdfe487f795271b7aef4eaaa23dc603ddfc3e4e0e01fb059fb1ba2e5fdfb9692d",
            "txnIndex": 30,
            "type": 0,
            "value": "0"
        },
        "fund_flow": [
            {
                "amount": "239.99999",
                "from": "0xdb6e19c8b0365c7869892fd7e3394246b96087d1",
                "id": 1,
                "isERC1155": false,
                "isERC721": false,
                "isReverted": false,
                "order": 1,
                "to": "0x215f5b039ef3a92b494016b8b12bafa7566ffa59",
                "token": "0x23684d7c10a772d1fecd828814dd250473ec6b2d"
            }
        ],
        "token_infos": [
            {
                "address": "0x23684d7c10a772d1fecd828814dd250473ec6b2d",
                "decimals": 18
            },
            {
                "address": "0xc02aaa39b223fe8d0a0e5c4f27ead9083c756cc2",
                "decimals": 18
            },
            {
                "address": "0xeeeeeeeeeeeeeeeeeeeeeeeeeeeeeeeeeeeeeeee",
                "decimals": 18
            }
        ]
    },
    "address_label": {
        "labels": [
            {
                "address": "0x0000000000000000000000000000000000000004",
                "label": "Precompiled"
            },
            {
                "address": "0xeeeeeeeeeeeeeeeeeeeeeeeeeeeeeeeeeeeeeeee",
                "label": "Ether"
            },
            {
                "address": "0x23684d7c10a772d1fecd828814dd250473ec6b2d",
                "label": "YEC"
            },
            {
                "address": "0x0000000000000000000000000000000000000001",
                "label": "Precompiled"
            },
            {
                "address": "0x0000000000000000000000000000000000000002",
                "label": "Precompiled"
            },
            {
                "address": "0x0000000000000000000000000000000000000003",
                "label": "Precompiled"
            }
        ]
    },
    "trace": {
        "accountLabels": null,
        "dataMap": {
            "-1": {
                "invocation": {
                    "address": "0xdb6e19c8b0365c7869892fd7e3394246b96087d1",
                    "callData": "",
                    "decodedMethod": null,
                    "errorInfo": "",
                    "fromAddress": "",
                    "gasUsed": 0,
                    "id": -1,
                    "methodDecoded": false,
                    "operation": "",
                    "output": "",
                    "revert": false,
                    "revertMessage": "",
                    "selector": "",
                    "status": false,
                    "value": ""
                },
                "nodeType": 0
            },
            "0": {
                "invocation": {
                    "address": "0x23684d7c10a772d1fecd828814dd250473ec6b2d",
                    "callData": "0x000000000000000000000000215f5b039ef3a92b494016b8b12bafa7566ffa5900000000000000000000000000000000000000000000000d02ab3f549f4d6000",
                    "decodedMethod": {
                        "callParams": [
                            {
                                "name": "to",
                                "type": "address",
                                "value": "0x215f5b039ef3a92b494016b8b12bafa7566ffa59"
                            },
                            {
                                "decimalAvailable": true,
                                "name": "value",
                                "type": "uint256",
                                "value": "239,999,990,000,000,000,000"
                            }
                        ],
                        "constructorArguments": "",
                        "name": "transfer",
                        "returnParams": [
                            {
                                "name": "",
                                "type": "bool",
                                "value": true
                            }
                        ],
                        "signature": "transfer(address,uint256)"
                    },
                    "errorInfo": "",
                    "fromAddress": "0xdb6e19c8b0365c7869892fd7e3394246b96087d1",
                    "gasUsed": 37057,
                    "id": 0,
                    "methodDecoded": true,
                    "operation": "CALL",
                    "output": "0x0000000000000000000000000000000000000000000000000000000000000001",
                    "revert": false,
                    "revertMessage": "",
                    "selector": "0xa9059cbb",
                    "status": true,
                    "value": "0"
                },
                "nodeType": 0
            },
            "1": {
                "event": {
                    "contract": "0x23684d7c10a772d1fecd828814dd250473ec6b2d",
                    "decodedLog": {
                        "name": "Transfer",
                        "params": [
                            {
                                "name": "from",
                                "type": "address",
                                "value": "0xdb6e19c8b0365c7869892fd7e3394246b96087d1"
                            },
                            {
                                "name": "to",
                                "type": "address",
                                "value": "0x215f5b039ef3a92b494016b8b12bafa7566ffa59"
                            },
                            {
                                "decimalAvailable": true,
                                "name": "value",
                                "type": "uint256",
                                "value": "239,999,990,000,000,000,000"
                            }
                        ],
                        "signature": "Transfer(address,address,uint256)"
                    },
                    "id": 1,
                    "logData": "0x00000000000000000000000000000000000000000000000d02ab3f549f4d6000",
                    "logDecoded": true,
                    "operation": "EVENT",
                    "revert": false,
                    "status": true,
                    "topics": [
                        "0xddf252ad1be2c89b69c2b068fc378daa952ba7f163c4a11628f55a4df523b3ef",
                        "0x000000000000000000000000db6e19c8b0365c7869892fd7e3394246b96087d1",
                        "0x000000000000000000000000215f5b039ef3a92b494016b8b12bafa7566ffa59"
                    ]
                },
                "nodeType": 1
            }
        },
        "gasFlame": [
            {
                "children": [
                    {
                        "children": [
                            {
                                "children": [],
                                "depth": 0,
                                "name": "Initial Gas",
                                "value": 23320
                            },
                            {
                                "children": [],
                                "depth": 0,
                                "name": "Executed Gas",
                                "value": 13737
                            }
                        ],
                        "depth": -1,
                        "name": "Actual Gas Used",
                        "value": 37057
                    },
                    {
                        "children": [],
                        "depth": -1,
                        "name": "Refunded Gas",
                        "value": 0
                    }
                ],
                "depth": -2,
                "name": "Total Gas",
                "value": 37057
            }
        ],
        "isConfirmed": true,
        "mainTrace": [
            {
                "children": [
                    {
                        "children": [
                            {
                                "children": [],
                                "depth": 1,
                                "id": 1,
                                "order": 1
                            }
                        ],
                        "depth": 0,
                        "id": 0,
                        "order": 0
                    }
                ],
                "depth": -1,
                "id": -1,
                "order": -1
            }
        ],
        "mainTraceNodeCount": 2,
        "parentIdMap": {
            "0": -1,
            "1": 0
        },
        "tidyTrace": [
            {
                "children": [
                    {
                        "children": [
                            {
                                "children": [],
                                "depth": 1,
                                "id": 1,
                                "order": 1
                            }
                        ],
                        "depth": 0,
                        "id": 0,
                        "order": 0
                    }
                ],
                "depth": -1,
                "id": -1,
                "order": -1
            }
        ],
        "tidyTraceNodeCount": 2
    },
    "state_change": {
        "stateChanges": [
            {
                "address": "0x23684d7c10a772d1fecd828814dd250473ec6b2d",
                "erc": "ERC-20",
                "slots": [
                    {
                        "current": "0x000000000000000000000000000000000000000000000000000009184e72a000",
                        "key": "0x397b7254f47056ce9d1629ea3ab20153b10d787f27a655920d02f62f0ef49ddc",
                        "prev": "0x00000000000000000000000000000000000000000000000d02ab486cedc00000"
                    },
                    {
                        "current": "0x00000000000000000000000000000000000000000002b9b8cf4186d665eef000",
                        "key": "0xf7574bb29a38c9e6622fe048a0ccb0f19f473da65d6c776a9b945f92398a5746",
                        "prev": "0x00000000000000000000000000000000000000000002b9abcc964781c6a19000"
                    }
                ],
                "storageVariables": [
                    {
                        "name": "_balances",
                        "type": "mapping(address => uint256)",
                        "value": {
                            "pairs": [
                                {
                                    "key": "0x215f5b039ef3a92b494016b8b12bafa7566ffa59",
                                    "value": {
                                        "current": "3294898573835800000000000",
                                        "prev": "3294658573845800000000000",
                                        "typeTag": 1
                                    }
                                },
                                {
                                    "key": "0xdb6e19c8b0365c7869892fd7e3394246b96087d1",
                                    "value": {
                                        "current": "10000000000000",
                                        "prev": "240000000000000000000",
                                        "typeTag": 1
                                    }
                                }
                            ],
                            "typeTag": 4
                        }
                    }
                ]
            }
        ]
    }
}