{
    "balance_change": {
        "balanceChanges": [
            {
                "account": "0x60062a98a4ff1ae9829efeb929feebd7f8c5c670",
                "assets": [
                    {
                        "address": "0x6b175474e89094c44da98b954eedeac495271d0f",
                        "amount": "15",
                        "iconUrl": "https://assets.blocksec.com/icon/39aead569b9c011cb6f69734d9abbc9ab6a80049fe93bbd12bb473a3e0e859a3.png",
                        "isERC1155": false,
                        "isERC721": false,
                        "sign": false,
                        "value": "15.0160047"
                    },
                    {
                        "address": "0x77f3a4fa35bac0ea6cfac69037ac4d3a757240a1",
                        "amount": "14.840319914655759036",
                        "iconUrl": "",
                        "isERC1155": false,
                        "isERC721": false,
                        "sign": true,
                        "value": ""
                    }
                ]
            },
            {
                "account": "0x0000000000000000000000000000000000000000",
                "assets": [
                    {
                        "address": "0x77f3a4fa35bac0ea6cfac69037ac4d3a757240a1",
                        "amount": "14.840319914655759036",
                        "iconUrl": "",
                        "isERC1155": false,
                        "isERC721": false,
                        "sign": false,
                        "value": ""
                    }
                ]
            },
            {
                "account": "0xf5bce5077908a1b7370b9ae04adc565ebd643966",
                "assets": [
                    {
                        "address": "0x6b175474e89094c44da98b954eedeac495271d0f",
                        "amount": "15",
                        "iconUrl": "https://assets.blocksec.com/icon/39aead569b9c011cb6f69734d9abbc9ab6a80049fe93bbd12bb473a3e0e859a3.png",
                        "isERC1155": false,
                        "isERC721": false,
                        "sign": true,
                        "value": "15.0160047"
                    }
                ]
            }
        ]
    },
    "profile": {
        "basic_info": {
            "baseFee": "",
            "blockNumber": 12600810,
            "callData": "0x656f3d64000000000000000000000000000000000000000000000000000000000000006000000000000000000000000000000000000000000000000000000000000000e000000000000000000000000000000000000000000000000000000000000001600000000000000000000000000000000000000000000000000000000000000003000000000000000000000000000000000000000000000000000000000000001800000000000000000000000000000000000000000000000000000000000000140000000000000000000000000000000000000000000000000000000000000001000000000000000000000000000000000000000000000000000000000000000300000000000000000000000000000000000000000000000000000000000000000000000000000000000000000000000000000000000000000000000000000000000000000000000000000000000000000000000000000000000000000000000000000000000000000000000000000000000000000000000000000000000000030000000000000000000000000000000000000000000000000000000000000060000000000000000000000000000000000000000000000000000000000000014000000000000000000000000000000000000000000000000000000000000001e000000000000000000000000000000000000000000000000000000000000000c000000000000000000000000060062a98a4ff1ae9829efeb929feebd7f8c5c6700000000000000000000000002cba6ab6574646badc84f0544d05059e57a5dc420000000000000000000000000000000000000000000000000000000000000001000000000000000000000000000000000000000000000000000000000000001bc85f295349a2c6a5f73a7be55116063a00c917e21c1262fe4735b1f09adfa1b56fb12e2d55b03401d3ce081749bead0f1695124d8be20c370e43b23b756dbbff00000000000000000000000000000000000000000000000000000000000000800000000000000000000000006b175474e89094c44da98b954eedeac495271d0f00000000000000000000000060062a98a4ff1ae9829efeb929feebd7f8c5c670000000000000000000000000000000000000000000000000d02ab486cedc000000000000000000000000000000000000000000000000000000000000000000000000000000000000000000000000000000000000000000000000000000000060fffffffffffffffffffffffffffffffffffffffffffffffffffffffffffffffe00000000000000000000000060062a98a4ff1ae9829efeb929feebd7f8c5c6700000000000000000000000000000000000000000000000000000000000000000",
            "debugEnable": true,
            "errorInfo": "",
            "eventCount": 7,
            "feeRecipient": "0x5a0b54d5dc17e0aadc383d2db43b0a0d3e029c4c",
            "formatValue": "0",
            "gasLimit": 213020,
            "gasPrice": "21",
            "gasUsed": 190308,
            "intTxnCount": 8,
            "internalRevert": false,
            "internalRevertMessage": "",
            "isContractCreation": false,
            "isFlashloan": false,
            "maxFee": "",
            "nonce": 1,
            "overwritedBlockNumber": -1,
            "priorityFee": "",
            "receiver": "0x77f3a4fa35bac0ea6cfac69037ac4d3a757240a1",
            "revertMessage": "",
            "sender": "0x60062a98a4ff1ae9829efeb929feebd7f8c5c670",
            "simulationEnable": true,
            "sourceTxnHash": "0xdf1f8563fd5734661783fe9faa1b120e256262379f7f563533f713ec2a780056",
            "status": true,
            "timestamp": "2021-06-09T14:21:55Z",
            "transactionFee": "0.003996468",
            "txnHash": "0xdf1f8563fd5734661783fe9faa1b120e256262379f7f563533f713ec2a780056",
            "txnIndex": 79,
            "type": 0,
            "value": "0"
        },
        "fund_flow": [
            {
                "amount": "15",
                "from": "0x60062a98a4ff1ae9829efeb929feebd7f8c5c670",
                "id": 1,
                "isERC1155": false,
                "isERC721": false,
                "isReverted": false,
                "order": 1,
                "to": "0xf5bce5077908a1b7370b9ae04adc565ebd643966",
                "token": "0x6b175474e89094c44da98b954eedeac495271d0f"
            },
            {
                "amount": "14.840319914655759036",
                "from": "0x0000000000000000000000000000000000000000",
                "id": 2,
                "isERC1155": false,
                "isERC721": false,
                "isReverted": false,
                "order": 2,
                "to": "0x60062a98a4ff1ae9829efeb929feebd7f8c5c670",
                "token": "0x77f3a4fa35bac0ea6cfac69037ac4d3a757240a1"
            }
        ],
        "token_infos": [
            {
                "address": "0xc02aaa39b223fe8d0a0e5c4f27ead9083c756cc2",
                "decimals": 18
            },
            {
                "address": "0xeeeeeeeeeeeeeeeeeeeeeeeeeeeeeeeeeeeeeeee",
                "decimals": 18
            },
            {
                "address": "0x6b175474e89094c44da98b954eedeac495271d0f",
                "decimals": 18
            },
            {
                "address": "0x77f3a4fa35bac0ea6cfac69037ac4d3a757240a1",
                "decimals": 18
            }
        ]
    },
    "address_label": {
        "labels": [
            {
                "address": "0xeeeeeeeeeeeeeeeeeeeeeeeeeeeeeeeeeeeeeeee",
                "label": "Ether"
            },
            {
                "address": "0x6b175474e89094c44da98b954eedeac495271d0f",
                "label": "Sky: Dai Stablecoin"
            },
            {
                "address": "0x2cba6ab6574646badc84f0544d05059e57a5dc42",
                "label": "SushiSwap: Kashi Pair Medium Risk V1"
            },
            {
                "address": "0x0000000000000000000000000000000000000002",
                "label": "Precompiled"
            },
            {
                "address": "0x0000000000000000000000000000000000000004",
                "label": "Precompiled"
            },
            {
                "address": "0xf5bce5077908a1b7370b9ae04adc565ebd643966",
                "label": "SushiSwap: BentoBoxV1"
            },
            {
                "address": "0x77f3a4fa35bac0ea6cfac69037ac4d3a757240a1",
                "label": "Kashi Medium Risk SushiBar/Dai Sta... (kmxSUSHI/...)"
            },
            {
                "address": "0x0000000000000000000000000000000000000001",
                "label": "Precompiled"
            },
            {
                "address": "0x0000000000000000000000000000000000000003",
                "label": "Precompiled"
            }
        ]
    },
    "trace": {
        "accountLabels": null,
        "dataMap": {
            "-1": {
                "invocation": {
                    "address": "0x60062a98a4ff1ae9829efeb929feebd7f8c5c670",
                    "callData": "",
                    "decodedMethod": null,
                    "errorInfo": "",
                    "fromAddress": "",
                    "gasUsed": 0,
                    "id": -1,
                    "methodDecoded": false,
                    "operation": "",
                    "output": "",
                    "revert": false,
                    "revertMessage": "",
                    "selector": "",
                    "status": false,
                    "value": ""
                },
                "nodeType": 0
            },
            "0": {
                "invocation": {
                    "address": "0x77f3a4fa35bac0ea6cfac69037ac4d3a757240a1",
                    "callData": "0x000000000000000000000000000000000000000000000000000000000000006000000000000000000000000000000000000000000000000000000000000000e000000000000000000000000000000000000000000000000000000000000001600000000000000000000000000000000000000000000000000000000000000003000000000000000000000000000000000000000000000000000000000000001800000000000000000000000000000000000000000000000000000000000000140000000000000000000000000000000000000000000000000000000000000001000000000000000000000000000000000000000000000000000000000000000300000000000000000000000000000000000000000000000000000000000000000000000000000000000000000000000000000000000000000000000000000000000000000000000000000000000000000000000000000000000000000000000000000000000000000000000000000000000000000000000000000000000000030000000000000000000000000000000000000000000000000000000000000060000000000000000000000000000000000000000000000000000000000000014000000000000000000000000000000000000000000000000000000000000001e000000000000000000000000000000000000000000000000000000000000000c000000000000000000000000060062a98a4ff1ae9829efeb929feebd7f8c5c6700000000000000000000000002cba6ab6574646badc84f0544d05059e57a5dc420000000000000000000000000000000000000000000000000000000000000001000000000000000000000000000000000000000000000000000000000000001bc85f295349a2c6a5f73a7be55116063a00c917e21c1262fe4735b1f09adfa1b56fb12e2d55b03401d3ce081749bead0f1695124d8be20c370e43b23b756dbbff00000000000000000000000000000000000000000000000000000000000000800000000000000000000000006b175474e89094c44da98b954eedeac495271d0f00000000000000000000000060062a98a4ff1ae9829efeb929feebd7f8c5c670000000000000000000000000000000000000000000000000d02ab486cedc000000000000000000000000000000000000000000000000000000000000000000000000000000000000000000000000000000000000000000000000000000000060fffffffffffffffffffffffffffffffffffffffffffffffffffffffffffffffe00000000000000000000000060062a98a4ff1ae9829efeb929feebd7f8c5c6700000000000000000000000000000000000000000000000000000000000000000",
                    "decodedMethod": {
                        "callParams": [
                            {
                                "name": "actions",
                                "type": "uint8[]",
                                "value": [
                                    "24",
                                    "20",
                                    "1"
                                ]
                            },
                            {
                                "name": "values",
                                "type": "uint256[]",
                                "value": [
                                    "0",
                                    "0",
                                    "0"
                                ]
                            },
                            {
                                "name": "datas",
                                "type": "bytes[]",
                                "value": [
                                    "0x00000000000000000000000060062a98a4ff1ae9829efeb929feebd7f8c5c6700000000000000000000000002cba6ab6574646badc84f0544d05059e57a5dc420000000000000000000000000000000000000000000000000000000000000001000000000000000000000000000000000000000000000000000000000000001bc85f295349a2c6a5f73a7be55116063a00c917e21c1262fe4735b1f09adfa1b56fb12e2d55b03401d3ce081749bead0f1695124d8be20c370e43b23b756dbbff",
                                    "0x0000000000000000000000006b175474e89094c44da98b954eedeac495271d0f00000000000000000000000060062a98a4ff1ae9829efeb929feebd7f8c5c670000000000000000000000000000000000000000000000000d02ab486cedc00000000000000000000000000000000000000000000000000000000000000000000",
                                    "0xfffffffffffffffffffffffffffffffffffffffffffffffffffffffffffffffe00000000000000000000000060062a98a4ff1ae9829efeb929feebd7f8c5c6700000000000000000000000000000000000000000000000000000000000000000"
                                ]
                            }
                        ],
                        "constructorArguments": "",
                        "name": "cook",
                        "returnParams": [
                            {
                                "name": "value1",
                                "type": "uint256",
                                "value": "14,840,319,914,655,759,036"
                            },
                            {
                                "name": "value2",
                                "type": "uint256",
                                "value": "15,000,000,000,000,000,000"
                            }
                        ],
                        "signature": "cook(uint8[],uint256[],bytes[])"
                    },
                    "errorInfo": "",
                    "fromAddress": "0x60062a98a4ff1ae9829efeb929feebd7f8c5c670",
                    "gasUsed": 190308,
                    "id": 0,
                    "methodDecoded": true,
                    "operation": "CALL",
                    "output": "0x000000000000000000000000000000000000000000000000cdf36855c2363abc000000000000000000000000000000000000000000000000d02ab486cedc0000",
                    "revert": false,
                    "revertMessage": "",
                    "selector": "0x656f3d64",
                    "status": true,
                    "value": "0"
                },
                "nodeType": 0
            },
            "1": {
                "invocation": {
                    "address": "0x2cba6ab6574646badc84f0544d05059e57a5dc42",
                    "callData": "0x000000000000000000000000000000000000000000000000000000000000006000000000000000000000000000000000000000000000000000000000000000e000000000000000000000000000000000000000000000000000000000000001600000000000000000000000000000000000000000000000000000000000000003000000000000000000000000000000000000000000000000000000000000001800000000000000000000000000000000000000000000000000000000000000140000000000000000000000000000000000000000000000000000000000000001000000000000000000000000000000000000000000000000000000000000000300000000000000000000000000000000000000000000000000000000000000000000000000000000000000000000000000000000000000000000000000000000000000000000000000000000000000000000000000000000000000000000000000000000000000000000000000000000000000000000000000000000000000030000000000000000000000000000000000000000000000000000000000000060000000000000000000000000000000000000000000000000000000000000014000000000000000000000000000000000000000000000000000000000000001e000000000000000000000000000000000000000000000000000000000000000c000000000000000000000000060062a98a4ff1ae9829efeb929feebd7f8c5c6700000000000000000000000002cba6ab6574646badc84f0544d05059e57a5dc420000000000000000000000000000000000000000000000000000000000000001000000000000000000000000000000000000000000000000000000000000001bc85f295349a2c6a5f73a7be55116063a00c917e21c1262fe4735b1f09adfa1b56fb12e2d55b03401d3ce081749bead0f1695124d8be20c370e43b23b756dbbff00000000000000000000000000000000000000000000000000000000000000800000000000000000000000006b175474e89094c44da98b954eedeac495271d0f00000000000000000000000060062a98a4ff1ae9829efeb929feebd7f8c5c670000000000000000000000000000000000000000000000000d02ab486cedc000000000000000000000000000000000000000000000000000000000000000000000000000000000000000000000000000000000000000000000000000000000060fffffffffffffffffffffffffffffffffffffffffffffffffffffffffffffffe00000000000000000000000060062a98a4ff1ae9829efeb929feebd7f8c5c6700000000000000000000000000000000000000000000000000000000000000000",
                    "decodedMethod": {
                        "callParams": [
                            {
                                "name": "actions",
                                "type": "uint8[]",
                                "value": [
                                    "24",
                                    "20",
                                    "1"
                                ]
                            },
                            {
                                "name": "values",
                                "type": "uint256[]",
                                "value": [
                                    "0",
                                    "0",
                                    "0"
                                ]
                            },
                            {
                                "name": "datas",
                                "type": "bytes[]",
                                "value": [
                                    "0x00000000000000000000000060062a98a4ff1ae9829efeb929feebd7f8c5c6700000000000000000000000002cba6ab6574646badc84f0544d05059e57a5dc420000000000000000000000000000000000000000000000000000000000000001000000000000000000000000000000000000000000000000000000000000001bc85f295349a2c6a5f73a7be55116063a00c917e21c1262fe4735b1f09adfa1b56fb12e2d55b03401d3ce081749bead0f1695124d8be20c370e43b23b756dbbff",
                                    "0x0000000000000000000000006b175474e89094c44da98b954eedeac495271d0f00000000000000000000000060062a98a4ff1ae9829efeb929feebd7f8c5c670000000000000000000000000000000000000000000000000d02ab486cedc00000000000000000000000000000000000000000000000000000000000000000000",
                                    "0xfffffffffffffffffffffffffffffffffffffffffffffffffffffffffffffffe00000000000000000000000060062a98a4ff1ae9829efeb929feebd7f8c5c6700000000000000000000000000000000000000000000000000000000000000000"
                                ]
                            }
                        ],
                        "constructorArguments": "",
                        "name": "cook",
                        "returnParams": [
                            {
                                "name": "value1",
                                "type": "uint256",
                                "value": "14,840,319,914,655,759,036"
                            },
                            {
                                "name": "value2",
                                "type": "uint256",
                                "value": "15,000,000,000,000,000,000"
                            }
                        ],
                        "signature": "cook(uint8[],uint256[],bytes[])"
                    },
                    "errorInfo": "",
                    "fromAddress": "0x77f3a4fa35bac0ea6cfac69037ac4d3a757240a1",
                    "gasUsed": 179667,
                    "id": 1,
                    "methodDecoded": true,
                    "operation": "DELEGATECALL",
                    "output": "0x000000000000000000000000000000000000000000000000cdf36855c2363abc000000000000000000000000000000000000000000000000d02ab486cedc0000",
                    "revert": false,
                    "revertMessage": "",
                    "selector": "0x656f3d64",
                    "status": true,
                    "value": "0"
                },
                "nodeType": 0
            },
            "10": {
                "event": {
                    "contract": "0x77f3a4fa35bac0ea6cfac69037ac4d3a757240a1",
                    "decodedLog": {
                        "name": "LogAccrue",
                        "params": [
                            {
                                "name": "accruedAmount",
                                "type": "uint256",
                                "value": "32,414,472,215,389,894,730"
                            },
                            {
                                "name": "feeFraction",
                                "type": "uint256",
                                "value": "3,206,915,950,544,281,797"
                            },
                            {
                                "name": "rate",
                                "type": "uint64",
                                "value": "13,948,688,437"
                            },
                            {
                                "name": "utilization",
                                "type": "uint256",
                                "value": "383,965,615,022,630,326"
                            }
                        ],
                        "signature": "LogAccrue(uint256,uint256,uint64,uint256)"
                    },
                    "id": 10,
                    "logData": "0x000000000000000000000000000000000000000000000001c1d756bd9c15784a0000000000000000000000000000000000000000000000002c814110e8b9e0c5000000000000000000000000000000000000000000000000000000033f68183500000000000000000000000000000000000000000000000005541eb1496365b6",
                    "logDecoded": true,
                    "operation": "EVENT",
                    "revert": false,
                    "status": true,
                    "topics": [
                        "0x33af5ce86e8438eff54589f85332916444457dfa8685493fbd579b809097026b"
                    ]
                },
                "nodeType": 1
            },
            "11": {
                "invocation": {
                    "address": "0xf5bce5077908a1b7370b9ae04adc565ebd643966",
                    "callData": "0x0000000000000000000000006b175474e89094c44da98b954eedeac495271d0f0000000000000000000000000000000000000000000021da7da70106abeb77070000000000000000000000000000000000000000000000000000000000000001",
                    "decodedMethod": {
                        "callParams": [
                            {
                                "name": "token",
                                "type": "address",
                                "value": "0x6b175474e89094c44da98b954eedeac495271d0f"
                            },
                            {
                                "name": "amount",
                                "type": "uint256",
                                "value": "159,868,538,349,470,991,742,727"
                            },
                            {
                                "name": "roundUp",
                                "type": "bool",
                                "value": true
                            }
                        ],
                        "constructorArguments": "",
                        "name": "toShare",
                        "returnParams": [
                            {
                                "name": "share",
                                "type": "uint256",
                                "value": "159,868,538,349,470,991,742,727"
                            }
                        ],
                        "signature": "toShare(address,uint256,bool)"
                    },
                    "errorInfo": "",
                    "fromAddress": "0x77f3a4fa35bac0ea6cfac69037ac4d3a757240a1",
                    "gasUsed": 1344,
                    "id": 11,
                    "methodDecoded": true,
                    "operation": "STATICCALL",
                    "output": "0x0000000000000000000000000000000000000000000021da7da70106abeb7707",
                    "revert": false,
                    "revertMessage": "",
                    "selector": "0xda5139ca",
                    "status": true,
                    "value": "0"
                },
                "nodeType": 0
            },
            "12": {
                "event": {
                    "contract": "0x77f3a4fa35bac0ea6cfac69037ac4d3a757240a1",
                    "decodedLog": {
                        "name": "Transfer",
                        "params": [
                            {
                                "name": "_from",
                                "type": "address",
                                "value": "0x0000000000000000000000000000000000000000"
                            },
                            {
                                "name": "_to",
                                "type": "address",
                                "value": "0x60062a98a4ff1ae9829efeb929feebd7f8c5c670"
                            },
                            {
                                "decimalAvailable": true,
                                "name": "_value",
                                "type": "uint256",
                                "value": "14,840,319,914,655,759,036"
                            }
                        ],
                        "signature": "Transfer(address,address,uint256)"
                    },
                    "id": 12,
                    "logData": "0x000000000000000000000000000000000000000000000000cdf36855c2363abc",
                    "logDecoded": true,
                    "operation": "EVENT",
                    "revert": false,
                    "status": true,
                    "topics": [
                        "0xddf252ad1be2c89b69c2b068fc378daa952ba7f163c4a11628f55a4df523b3ef",
                        "0x0000000000000000000000000000000000000000000000000000000000000000",
                        "0x00000000000000000000000060062a98a4ff1ae9829efeb929feebd7f8c5c670"
                    ]
                },
                "nodeType": 1
            },
            "13": {
                "invocation": {
                    "address": "0xf5bce5077908a1b7370b9ae04adc565ebd643966",
                    "callData": "0x0000000000000000000000006b175474e89094c44da98b954eedeac495271d0f00000000000000000000000060062a98a4ff1ae9829efeb929feebd7f8c5c67000000000000000000000000077f3a4fa35bac0ea6cfac69037ac4d3a757240a1000000000000000000000000000000000000000000000000d02ab486cedc0000",
                    "decodedMethod": {
                        "callParams": [
                            {
                                "name": "token",
                                "type": "address",
                                "value": "0x6b175474e89094c44da98b954eedeac495271d0f"
                            },
                            {
                                "name": "from",
                                "type": "address",
                                "value": "0x60062a98a4ff1ae9829efeb929feebd7f8c5c670"
                            },
                            {
                                "name": "to",
                                "type": "address",
                                "value": "0x77f3a4fa35bac0ea6cfac69037ac4d3a757240a1"
                            },
                            {
                                "name": "share",
                                "type": "uint256",
                                "value": "15,000,000,000,000,000,000"
                            }
                        ],
                        "constructorArguments": "",
                        "name": "transfer",
                        "returnParams": [],
                        "signature": "transfer(address,address,address,uint256)"
                    },
                    "errorInfo": "",
                    "fromAddress": "0x77f3a4fa35bac0ea6cfac69037ac4d3a757240a1",
                    "gasUsed": 9249,
                    "id": 13,
                    "methodDecoded": true,
                    "operation": "CALL",
                    "output": "",
                    "revert": false,
                    "revertMessage": "",
                    "selector": "0xf18d03cc",
                    "status": true,
                    "value": "0"
                },
                "nodeType": 0
            },
            "14": {
                "event": {
                    "contract": "0xf5bce5077908a1b7370b9ae04adc565ebd643966",
                    "decodedLog": {
                        "name": "LogTransfer",
                        "params": [
                            {
                                "name": "token",
                                "type": "address",
                                "value": "0x6b175474e89094c44da98b954eedeac495271d0f"
                            },
                            {
                                "name": "from",
                                "type": "address",
                                "value": "0x60062a98a4ff1ae9829efeb929feebd7f8c5c670"
                            },
                            {
                                "name": "to",
                                "type": "address",
                                "value": "0x77f3a4fa35bac0ea6cfac69037ac4d3a757240a1"
                            },
                            {
                                "name": "share",
                                "type": "uint256",
                                "value": "15,000,000,000,000,000,000"
                            }
                        ],
                        "signature": "LogTransfer(address,address,address,uint256)"
                    },
                    "id": 14,
                    "logData": "0x000000000000000000000000000000000000000000000000d02ab486cedc0000",
                    "logDecoded": true,
                    "operation": "EVENT",
                    "revert": false,
                    "status": true,
                    "topics": [
                        "0x6eabe333476233fd382224f233210cb808a7bc4c4de64f9d76628bf63c677b1a",
                        "0x0000000000000000000000006b175474e89094c44da98b954eedeac495271d0f",
                        "0x00000000000000000000000060062a98a4ff1ae9829efeb929feebd7f8c5c670",
                        "0x00000000000000000000000077f3a4fa35bac0ea6cfac69037ac4d3a757240a1"
                    ]
                },
                "nodeType": 1
            },
            "15": {
                "event": {
                    "contract": "0x77f3a4fa35bac0ea6cfac69037ac4d3a757240a1",
                    "decodedLog": {
                        "name": "LogAddAsset",
                        "params": [
                            {
                                "name": "from",
                                "type": "address",
                                "value": "0x60062a98a4ff1ae9829efeb929feebd7f8c5c670"
                            },
                            {
                                "name": "to",
                                "type": "address",
                                "value": "0x60062a98a4ff1ae9829efeb929feebd7f8c5c670"
                            },
                            {
                                "name": "share",
                                "type": "uint256",
                                "value": "15,000,000,000,000,000,000"
                            },
                            {
                                "name": "fraction",
                                "type": "uint256",
                                "value": "14,840,319,914,655,759,036"
                            }
                        ],
                        "signature": "LogAddAsset(address,address,uint256,uint256)"
                    },
                    "id": 15,
                    "logData": "0x000000000000000000000000000000000000000000000000d02ab486cedc0000000000000000000000000000000000000000000000000000cdf36855c2363abc",
                    "logDecoded": true,
                    "operation": "EVENT",
                    "revert": false,
                    "status": true,
                    "topics": [
                        "0x30a8c4f9ab5af7e1309ca87c32377d1a83366c5990472dbf9d262450eae14e38",
                        "0x00000000000000000000000060062a98a4ff1ae9829efeb929feebd7f8c5c670",
                        "0x00000000000000000000000060062a98a4ff1ae9829efeb929feebd7f8c5c670"
                    ]
                },
                "nodeType": 1
            },
            "2": {
                "invocation": {
                    "address": "0xf5bce5077908a1b7370b9ae04adc565ebd643966",
                    "callData": "0x00000000000000000000000060062a98a4ff1ae9829efeb929feebd7f8c5c6700000000000000000000000002cba6ab6574646badc84f0544d05059e57a5dc420000000000000000000000000000000000000000000000000000000000000001000000000000000000000000000000000000000000000000000000000000001bc85f295349a2c6a5f73a7be55116063a00c917e21c1262fe4735b1f09adfa1b56fb12e2d55b03401d3ce081749bead0f1695124d8be20c370e43b23b756dbbff",
                    "decodedMethod": {
                        "callParams": [
                            {
                                "name": "user",
                                "type": "address",
                                "value": "0x60062a98a4ff1ae9829efeb929feebd7f8c5c670"
                            },
                            {
                                "name": "masterContract",
                                "type": "address",
                                "value": "0x2cba6ab6574646badc84f0544d05059e57a5dc42"
                            },
                            {
                                "name": "approved",
                                "type": "bool",
                                "value": true
                            },
                            {
                                "name": "v",
                                "type": "uint8",
                                "value": "27"
                            },
                            {
                                "name": "r",
                                "type": "bytes32",
                                "value": "0xc85f295349a2c6a5f73a7be55116063a00c917e21c1262fe4735b1f09adfa1b5"
                            },
                            {
                                "name": "s",
                                "type": "bytes32",
                                "value": "0x6fb12e2d55b03401d3ce081749bead0f1695124d8be20c370e43b23b756dbbff"
                            }
                        ],
                        "constructorArguments": "",
                        "name": "setMasterContractApproval",
                        "returnParams": [],
                        "signature": "setMasterContractApproval(address,address,bool,uint8,bytes32,bytes32)"
                    },
                    "errorInfo": "",
                    "fromAddress": "0x77f3a4fa35bac0ea6cfac69037ac4d3a757240a1",
                    "gasUsed": 51431,
                    "id": 2,
                    "methodDecoded": true,
                    "operation": "CALL",
                    "output": "",
                    "revert": false,
                    "revertMessage": "",
                    "selector": "0xc0a47c93",
                    "status": true,
                    "value": "0"
                },
                "nodeType": 0
            },
            "3": {
                "invocation": {
                    "address": "0x0000000000000000000000000000000000000001",
                    "callData": "0x4e1c5a1d57ec270d89d2e3d072fcee376f0987c3f5aa6fad393b9ebd000000000000000000000000000000000000000000000000000000000000001bc85f295349a2c6a5f73a7be55116063a00c917e21c1262fe4735b1f09adfa1b56fb12e2d55b03401d3ce081749bead0f1695124d8be20c370e43b23b756dbbff",
                    "decodedMethod": {
                        "callParams": [
                            {
                                "name": "hash",
                                "type": "bytes32",
                                "value": "0x8928e1354e1c5a1d57ec270d89d2e3d072fcee376f0987c3f5aa6fad393b9ebd"
                            },
                            {
                                "name": "v",
                                "type": "uint256",
                                "value": "27"
                            },
                            {
                                "name": "r",
                                "type": "bytes32",
                                "value": "0xc85f295349a2c6a5f73a7be55116063a00c917e21c1262fe4735b1f09adfa1b5"
                            },
                            {
                                "name": "s",
                                "type": "bytes32",
                                "value": "0x6fb12e2d55b03401d3ce081749bead0f1695124d8be20c370e43b23b756dbbff"
                            }
                        ],
                        "constructorArguments": "",
                        "name": "ecrecover",
                        "returnParams": [
                            {
                                "name": "",
                                "type": "address",
                                "value": "0x60062a98a4ff1ae9829efeb929feebd7f8c5c670"
                            }
                        ],
                        "signature": "ecrecover(bytes32,uint256,bytes32,bytes32)"
                    },
                    "errorInfo": "",
                    "fromAddress": "0xf5bce5077908a1b7370b9ae04adc565ebd643966",
                    "gasUsed": 3000,
                    "id": 3,
                    "methodDecoded": true,
                    "operation": "STATICCALL",
                    "output": "0x00000000000000000000000060062a98a4ff1ae9829efeb929feebd7f8c5c670",
                    "revert": false,
                    "revertMessage": "",
                    "selector": "0x8928e135",
                    "status": true,
                    "value": "0"
                },
                "nodeType": 0
            },
            "4": {
                "event": {
                    "contract": "0xf5bce5077908a1b7370b9ae04adc565ebd643966",
                    "decodedLog": {
                        "name": "LogSetMasterContractApproval",
                        "params": [
                            {
                                "name": "masterContract",
                                "type": "address",
                                "value": "0x2cba6ab6574646badc84f0544d05059e57a5dc42"
                            },
                            {
                                "name": "user",
                                "type": "address",
                                "value": "0x60062a98a4ff1ae9829efeb929feebd7f8c5c670"
                            },
                            {
                                "name": "approved",
                                "type": "bool",
                                "value": true
                            }
                        ],
                        "signature": "LogSetMasterContractApproval(address,address,bool)"
                    },
                    "id": 4,
                    "logData": "0x0000000000000000000000000000000000000000000000000000000000000001",
                    "logDecoded": true,
                    "operation": "EVENT",
                    "revert": false,
                    "status": true,
                    "topics": [
                        "0x5f6ebb64ba012a851c6f014e6cad458ddf213d1512049b31cd06365c2b059257",
                        "0x0000000000000000000000002cba6ab6574646badc84f0544d05059e57a5dc42",
                        "0x00000000000000000000000060062a98a4ff1ae9829efeb929feebd7f8c5c670"
                    ]
                },
                "nodeType": 1
            },
            "5": {
                "invocation": {
                    "address": "0xf5bce5077908a1b7370b9ae04adc565ebd643966",
                    "callData": "0x0000000000000000000000006b175474e89094c44da98b954eedeac495271d0f00000000000000000000000060062a98a4ff1ae9829efeb929feebd7f8c5c67000000000000000000000000060062a98a4ff1ae9829efeb929feebd7f8c5c670000000000000000000000000000000000000000000000000d02ab486cedc00000000000000000000000000000000000000000000000000000000000000000000",
                    "decodedMethod": {
                        "callParams": [
                            {
                                "name": "token_",
                                "type": "address",
                                "value": "0x6b175474e89094c44da98b954eedeac495271d0f"
                            },
                            {
                                "name": "from",
                                "type": "address",
                                "value": "0x60062a98a4ff1ae9829efeb929feebd7f8c5c670"
                            },
                            {
                                "name": "to",
                                "type": "address",
                                "value": "0x60062a98a4ff1ae9829efeb929feebd7f8c5c670"
                            },
                            {
                                "name": "amount",
                                "type": "uint256",
                                "value": "15,000,000,000,000,000,000"
                            },
                            {
                                "name": "share",
                                "type": "uint256",
                                "value": "0"
                            }
                        ],
                        "constructorArguments": "",
                        "name": "deposit",
                        "returnParams": [
                            {
                                "name": "amountOut",
                                "type": "uint256",
                                "value": "15,000,000,000,000,000,000"
                            },
                            {
                                "name": "shareOut",
                                "type": "uint256",
                                "value": "15,000,000,000,000,000,000"
                            }
                        ],
                        "signature": "deposit(address,address,address,uint256,uint256)"
                    },
                    "errorInfo": "",
                    "fromAddress": "0x77f3a4fa35bac0ea6cfac69037ac4d3a757240a1",
                    "gasUsed": 54044,
                    "id": 5,
                    "methodDecoded": true,
                    "operation": "CALL",
                    "output": "0x000000000000000000000000000000000000000000000000d02ab486cedc0000000000000000000000000000000000000000000000000000d02ab486cedc0000",
                    "revert": false,
                    "revertMessage": "",
                    "selector": "0x02b9446c",
                    "status": true,
                    "value": "0"
                },
                "nodeType": 0
            },
            "6": {
                "invocation": {
                    "address": "0x6b175474e89094c44da98b954eedeac495271d0f",
                    "callData": "0x00000000000000000000000060062a98a4ff1ae9829efeb929feebd7f8c5c670000000000000000000000000f5bce5077908a1b7370b9ae04adc565ebd643966000000000000000000000000000000000000000000000000d02ab486cedc0000",
                    "decodedMethod": {
                        "callParams": [
                            {
                                "name": "src",
                                "type": "address",
                                "value": "0x60062a98a4ff1ae9829efeb929feebd7f8c5c670"
                            },
                            {
                                "name": "dst",
                                "type": "address",
                                "value": "0xf5bce5077908a1b7370b9ae04adc565ebd643966"
                            },
                            {
                                "decimalAvailable": true,
                                "name": "wad",
                                "type": "uint256",
                                "value": "15,000,000,000,000,000,000"
                            }
                        ],
                        "constructorArguments": "",
                        "name": "transferFrom",
                        "returnParams": [
                            {
                                "name": "",
                                "type": "bool",
                                "value": true
                            }
                        ],
                        "signature": "transferFrom(address,address,uint256)"
                    },
                    "errorInfo": "",
                    "fromAddress": "0xf5bce5077908a1b7370b9ae04adc565ebd643966",
                    "gasUsed": 15418,
                    "id": 6,
                    "methodDecoded": true,
                    "operation": "CALL",
                    "output": "0x0000000000000000000000000000000000000000000000000000000000000001",
                    "revert": false,
                    "revertMessage": "",
                    "selector": "0x23b872dd",
                    "status": true,
                    "value": "0"
                },
                "nodeType": 0
            },
            "7": {
                "event": {
                    "contract": "0x6b175474e89094c44da98b954eedeac495271d0f",
                    "decodedLog": {
                        "name": "Transfer",
                        "params": [
                            {
                                "name": "src",
                                "type": "address",
                                "value": "0x60062a98a4ff1ae9829efeb929feebd7f8c5c670"
                            },
                            {
                                "name": "dst",
                                "type": "address",
                                "value": "0xf5bce5077908a1b7370b9ae04adc565ebd643966"
                            },
                            {
                                "decimalAvailable": true,
                                "name": "wad",
                                "type": "uint256",
                                "value": "15,000,000,000,000,000,000"
                            }
                        ],
                        "signature": "Transfer(address,address,uint256)"
                    },
                    "id": 7,
                    "logData": "0x000000000000000000000000000000000000000000000000d02ab486cedc0000",
                    "logDecoded": true,
                    "operation": "EVENT",
                    "revert": false,
                    "status": true,
                    "topics": [
                        "0xddf252ad1be2c89b69c2b068fc378daa952ba7f163c4a11628f55a4df523b3ef",
                        "0x00000000000000000000000060062a98a4ff1ae9829efeb929feebd7f8c5c670",
                        "0x000000000000000000000000f5bce5077908a1b7370b9ae04adc565ebd643966"
                    ]
                },
                "nodeType": 1
            },
            "8": {
                "event": {
                    "contract": "0xf5bce5077908a1b7370b9ae04adc565ebd643966",
                    "decodedLog": {
                        "name": "LogDeposit",
                        "params": [
                            {
                                "name": "token",
                                "type": "address",
                                "value": "0x6b175474e89094c44da98b954eedeac495271d0f"
                            },
                            {
                                "name": "from",
                                "type": "address",
                                "value": "0x60062a98a4ff1ae9829efeb929feebd7f8c5c670"
                            },
                            {
                                "name": "to",
                                "type": "address",
                                "value": "0x60062a98a4ff1ae9829efeb929feebd7f8c5c670"
                            },
                            {
                                "name": "amount",
                                "type": "uint256",
                                "value": "15,000,000,000,000,000,000"
                            },
                            {
                                "name": "share",
                                "type": "uint256",
                                "value": "15,000,000,000,000,000,000"
                            }
                        ],
                        "signature": "LogDeposit(address,address,address,uint256,uint256)"
                    },
                    "id": 8,
                    "logData": "0x000000000000000000000000000000000000000000000000d02ab486cedc0000000000000000000000000000000000000000000000000000d02ab486cedc0000",
                    "logDecoded": true,
                    "operation": "EVENT",
                    "revert": false,
                    "status": true,
                    "topics": [
                        "0xb2346165e782564f17f5b7e555c21f4fd96fbc93458572bf0113ea35a958fc55",
                        "0x0000000000000000000000006b175474e89094c44da98b954eedeac495271d0f",
                        "0x00000000000000000000000060062a98a4ff1ae9829efeb929feebd7f8c5c670",
                        "0x00000000000000000000000060062a98a4ff1ae9829efeb929feebd7f8c5c670"
                    ]
                },
                "nodeType": 1
            },
            "9": {
                "invocation": {
                    "address": "0xf5bce5077908a1b7370b9ae04adc565ebd643966",
                    "callData": "0x0000000000000000000000006b175474e89094c44da98b954eedeac495271d0f000000000000000000000000000000000000000000003650844d94c20e86136e0000000000000000000000000000000000000000000000000000000000000000",
                    "decodedMethod": {
                        "callParams": [
                            {
                                "name": "token",
                                "type": "address",
                                "value": "0x6b175474e89094c44da98b954eedeac495271d0f"
                            },
                            {
                                "name": "share",
                                "type": "uint256",
                                "value": "256,493,063,040,405,007,111,022"
                            },
                            {
                                "name": "roundUp",
                                "type": "bool",
                                "value": false
                            }
                        ],
                        "constructorArguments": "",
                        "name": "toAmount",
                        "returnParams": [
                            {
                                "name": "amount",
                                "type": "uint256",
                                "value": "256,493,063,040,405,007,111,022"
                            }
                        ],
                        "signature": "toAmount(address,uint256,bool)"
                    },
                    "errorInfo": "",
                    "fromAddress": "0x77f3a4fa35bac0ea6cfac69037ac4d3a757240a1",
                    "gasUsed": 1127,
                    "id": 9,
                    "methodDecoded": true,
                    "operation": "STATICCALL",
                    "output": "0x000000000000000000000000000000000000000000003650844d94c20e86136e",
                    "revert": false,
                    "revertMessage": "",
                    "selector": "0x56623118",
                    "status": true,
                    "value": "0"
                },
                "nodeType": 0
            }
        },
        "gasFlame": [
            {
                "children": [
                    {
                        "children": [
                            {
                                "children": [],
                                "depth": 0,
                                "name": "Initial Gas",
                                "value": 27684
                            },
                            {
                                "children": [
                                    {
                                        "children": [
                                            {
                                                "children": [
                                                    {
                                                        "children": [],
                                                        "depth": 3,
                                                        "name": "ecrecover",
                                                        "value": 3000
                                                    }
                                                ],
                                                "depth": 2,
                                                "name": "setMasterContractApproval",
                                                "value": 51431
                                            },
                                            {
                                                "children": [
                                                    {
                                                        "children": [],
                                                        "depth": 3,
                                                        "name": "transferFrom",
                                                        "value": 15418
                                                    }
                                                ],
                                                "depth": 2,
                                                "name": "deposit",
                                                "value": 54044
                                            },
                                            {
                                                "children": [],
                                                "depth": 2,
                                                "name": "toAmount",
                                                "value": 1127
                                            },
                                            {
                                                "children": [],
                                                "depth": 2,
                                                "name": "toShare",
                                                "value": 1344
                                            },
                                            {
                                                "children": [],
                                                "depth": 2,
                                                "name": "transfer",
                                                "value": 9249
                                            }
                                        ],
                                        "depth": 1,
                                        "name": "cook",
                                        "value": 179667
                                    }
                                ],
                                "depth": 0,
                                "name": "Executed Gas",
                                "value": 182524
                            }
                        ],
                        "depth": -1,
                        "name": "Actual Gas Used",
                        "value": 190308
                    },
                    {
                        "children": [],
                        "depth": -1,
                        "name": "Refunded Gas",
                        "value": 19900
                    }
                ],
                "depth": -2,
                "name": "Total Gas",
                "value": 210208
            }
        ],
        "isConfirmed": true,
        "mainTrace": [
            {
                "children": [
                    {
                        "children": [
                            {
                                "children": [
                                    {
                                        "children": [
                                            {
                                                "children": [],
                                                "depth": 3,
                                                "id": 3,
                                                "order": 3
                                            },
                                            {
                                                "children": [],
                                                "depth": 3,
                                                "id": 4,
                                                "order": 4
                                            }
                                        ],
                                        "depth": 2,
                                        "id": 2,
                                        "order": 2
                                    },
                                    {
                                        "children": [
                                            {
                                                "children": [
                                                    {
                                                        "children": [],
                                                        "depth": 4,
                                                        "id": 7,
                                                        "order": 7
                                                    }
                                                ],
                                                "depth": 3,
                                                "id": 6,
                                                "order": 6
                                            },
                                            {
                                                "children": [],
                                                "depth": 3,
                                                "id": 8,
                                                "order": 8
                                            }
                                        ],
                                        "depth": 2,
                                        "id": 5,
                                        "order": 5
                                    },
                                    {
                                        "children": [],
                                        "depth": 2,
                                        "id": 9,
                                        "order": 9
                                    },
                                    {
                                        "children": [],
                                        "depth": 2,
                                        "id": 10,
                                        "order": 10
                                    },
                                    {
                                        "children": [],
                                        "depth": 2,
                                        "id": 11,
                                        "order": 11
                                    },
                                    {
                                        "children": [],
                                        "depth": 2,
                                        "id": 12,
                                        "order": 12
                                    },
                                    {
                                        "children": [
                                            {
                                                "children": [],
                                                "depth": 3,
                                                "id": 14,
                                                "order": 14
                                            }
                                        ],
                                        "depth": 2,
                                        "id": 13,
                                        "order": 13
                                    },
                                    {
                                        "children": [],
                                        "depth": 2,
                                        "id": 15,
                                        "order": 15
                                    }
                                ],
                                "depth": 1,
                                "id": 1,
                                "order": 1
                            }
                        ],
                        "depth": 0,
                        "id": 0,
                        "order": 0
                    }
                ],
                "depth": -1,
                "id": -1,
                "order": -1
            }
        ],
        "mainTraceNodeCount": 16,
        "parentIdMap": {
            "0": -1,
            "1": 0,
            "10": 1,
            "11": 1,
            "12": 1,
            "13": 1,
            "14": 13,
            "15": 1,
            "2": 1,
            "3": 2,
            "4": 2,
            "5": 1,
            "6": 5,
            "7": 6,
            "8": 5,
            "9": 1
        },
        "tidyTrace": [
            {
                "children": [
                    {
                        "children": [
                            {
                                "children": [
                                    {
                                        "children": [
                                            {
                                                "children": [],
                                                "depth": 3,
                                                "id": 4,
                                                "order": 4
                                            }
                                        ],
                                        "depth": 2,
                                        "id": 2,
                                        "order": 2
                                    },
                                    {
                                        "children": [
                                            {
                                                "children": [
                                                    {
                                                        "children": [],
                                                        "depth": 4,
                                                        "id": 7,
                                                        "order": 7
                                                    }
                                                ],
                                                "depth": 3,
                                                "id": 6,
                                                "order": 6
                                            },
                                            {
                                                "children": [],
                                                "depth": 3,
                                                "id": 8,
                                                "order": 8
                                            }
                                        ],
                                        "depth": 2,
                                        "id": 5,
                                        "order": 5
                                    },
                                    {
                                        "children": [],
                                        "depth": 2,
                                        "id": 10,
                                        "order": 10
                                    },
                                    {
                                        "children": [],
                                        "depth": 2,
                                        "id": 12,
                                        "order": 12
                                    },
                                    {
                                        "children": [
                                            {
                                                "children": [],
                                                "depth": 3,
                                                "id": 14,
                                                "order": 14
                                            }
                                        ],
                                        "depth": 2,
                                        "id": 13,
                                        "order": 13
                                    },
                                    {
                                        "children": [],
                                        "depth": 2,
                                        "id": 15,
                                        "order": 15
                                    }
                                ],
                                "depth": 1,
                                "id": 1,
                                "order": 1
                            }
                        ],
                        "depth": 0,
                        "id": 0,
                        "order": 0
                    }
                ],
                "depth": -1,
                "id": -1,
                "order": -1
            }
        ],
        "tidyTraceNodeCount": 13
    },
    "state_change": {
        "stateChanges": [
            {
                "address": "0x6b175474e89094c44da98b954eedeac495271d0f",
                "erc": "ERC-20",
                "slots": [
                    {
                        "current": "0x0000000000000000000000000000000000000000000000004563918244f40000",
                        "key": "0x989791b3b386e4f7c173ee68e47861743cace416ffc9ee5b8a3c4bd0c6cc21a7",
                        "prev": "0x000000000000000000000000000000000000000000000001158e460913d00000"
                    },
                    {
                        "current": "0x000000000000000000000000000000000000000000017f37c04d854e3f212053",
                        "key": "0xd9090a5ea06b9d26ce373558579c35349841511c6ebe2e3539cbea17da5cf266",
                        "prev": "0x000000000000000000000000000000000000000000017f36f022d0c770452053"
                    }
                ],
                "storageVariables": [
                    {
                        "name": "balanceOf",
                        "type": "mapping(address => uint256)",
                        "value": {
                            "pairs": [
                                {
                                    "key": "0x60062a98a4ff1ae9829efeb929feebd7f8c5c670",
                                    "value": {
                                        "current": "5000000000000000000",
                                        "prev": "20000000000000000000",
                                        "typeTag": 1
                                    }
                                },
                                {
                                    "key": "0xf5bce5077908a1b7370b9ae04adc565ebd643966",
                                    "value": {
                                        "current": "1809694790741327744147539",
                                        "prev": "1809679790741327744147539",
                                        "typeTag": 1
                                    }
                                }
                            ],
                            "typeTag": 4
                        }
                    }
                ]
            },
            {
                "address": "0x77f3a4fa35bac0ea6cfac69037ac4d3a757240a1",
                "erc": "ERC-20",
                "slots": [
                    {
                        "current": "0x000000000000000643b7ab413c2411c60000000060c0ce83000000033f681835",
                        "key": "0x0000000000000000000000000000000000000000000000000000000000000011",
                        "prev": "0x000000000000000617366a30536a31010000000060c09a9a000000038d9a552b"
                    },
                    {
                        "current": "0x000000000000000000000000000000000000000000000000cdf36855c2363abc",
                        "key": "0x32dd7cd3f82cc4cf886602280e373d6ecbfefd121fd85e844a4f2f52a2c7a9ad",
                        "prev": "0x0000000000000000000000000000000000000000000000000000000000000000"
                    },
                    {
                        "current": "0x000000000000573b893e3209c5e49210000000000000365154784948dd62136e",
                        "key": "0x000000000000000000000000000000000000000000000000000000000000000c",
                        "prev": "0x000000000000573a8ec988a31af4768f0000000000003650844d94c20e86136e"
                    },
                    {
                        "current": "0x000000000000216856505b422e850abb00000000000021da7da70106abeb7707",
                        "key": "0x000000000000000000000000000000000000000000000000000000000000000d",
                        "prev": "0x000000000000216856505b422e850abb00000000000021d8bbcfaa490fd5febd"
                    }
                ],
                "storageVariables": [
                    {
                        "name": "balanceOf",
                        "type": "mapping(address => uint256)",
                        "value": {
                            "pairs": [
                                {
                                    "key": "0x60062a98a4ff1ae9829efeb929feebd7f8c5c670",
                                    "value": {
                                        "current": "14840319914655759036",
                                        "prev": "0",
                                        "typeTag": 1
                                    }
                                }
                            ],
                            "typeTag": 4
                        }
                    },
                    {
                        "name": "totalAsset",
                        "type": "struct Rebase",
                        "value": {
                            "fields": [
                                {
                                    "name": "elastic",
                                    "type": "uint128",
                                    "value": {
                                        "current": "256508063040405007111022",
                                        "prev": "256493063040405007111022",
                                        "typeTag": 1
                                    }
                                },
                                {
                                    "name": "base",
                                    "type": "uint128",
                                    "value": {
                                        "current": "411944131306857305510416",
                                        "prev": "411926084070992105469583",
                                        "typeTag": 1
                                    }
                                }
                            ],
                            "typeTag": 3
                        }
                    },
                    {
                        "name": "totalBorrow",
                        "type": "struct Rebase",
                        "value": {
                            "fields": [
                                {
                                    "name": "elastic",
                                    "type": "uint128",
                                    "value": {
                                        "current": "159868538349470991742727",
                                        "prev": "159836123877255601847997",
                                        "typeTag": 1
                                    }
                                },
                                {
                                    "name": "base",
                                    "type": "uint128",
                                    "value": {
                                        "current": "157762774889789290515131",
                                        "prev": "157762774889789290515131",
                                        "typeTag": 1
                                    }
                                }
                            ],
                            "typeTag": 3
                        }
                    },
                    {
                        "name": "accrueInfo",
                        "type": "struct KashiPairMediumRiskV1.AccrueInfo",
                        "value": {
                            "fields": [
                                {
                                    "name": "interestPerSecond",
                                    "type": "uint64",
                                    "value": {
                                        "current": "13948688437",
                                        "prev": "15260603691",
                                        "typeTag": 1
                                    }
                                },
                                {
                                    "name": "lastAccrued",
                                    "type": "uint64",
                                    "value": {
                                        "current": "1623248515",
                                        "prev": "1623235226",
                                        "typeTag": 1
                                    }
                                },
                                {
                                    "name": "feesEarnedFraction",
                                    "type": "uint128",
                                    "value": {
                                        "current": "115560021460206752198",
                                        "prev": "112353105509662470401",
                                        "typeTag": 1
                                    }
                                }
                            ],
                            "typeTag": 3
                        }
                    }
                ]
            },
            {
                "address": "0xf5bce5077908a1b7370b9ae04adc565ebd643966",
                "erc": "",
                "slots": [
                    {
                        "current": "0x00000000000000000000000000000000000000000000365154784948dd62136e",
                        "key": "0x8ef90f7b9a0152ee37453d0d9827b2b45f17e1416555a9e996bd09bcf822d907",
                        "prev": "0x000000000000000000000000000000000000000000003650844d94c20e86136e"
                    },
                    {
                        "current": "0x0000000000000000000000000000000000000000000000000000000000000001",
                        "key": "0x8271ea644ca7b0f1c1008d8ebf989bd8c8f19b902956a82ff7e3421c89442db9",
                        "prev": "0x0000000000000000000000000000000000000000000000000000000000000000"
                    },
                    {
                        "current": "0x0000000000000000000000000000000000000000000000000000000000000001",
                        "key": "0xcd20e7a055f323234a504af0db9ea362a9c57dfb3aa44fed6c474dc3489b7b86",
                        "prev": "0x0000000000000000000000000000000000000000000000000000000000000000"
                    },
                    {
                        "current": "0x0000000000017f37be389c49c062b34e0000000000017f37be389c49c062b34e",
                        "key": "0x7b9e7ef1a1e159bc29c6842cd1504210f319873280c84511e9666ecfa3a520ff",
                        "prev": "0x0000000000017f36ee0de7c2f186b34e0000000000017f36ee0de7c2f186b34e"
                    }
                ],
                "storageVariables": [
                    {
                        "name": "balanceOf",
                        "type": "mapping(contract IERC20 => mapping(address => uint256))",
                        "value": {
                            "pairs": [
                                {
                                    "key": "0x6b175474e89094c44da98b954eedeac495271d0f",
                                    "value": {
                                        "pairs": [
                                            {
                                                "key": "0x77f3a4fa35bac0ea6cfac69037ac4d3a757240a1",
                                                "value": {
                                                    "current": "256508063040405007111022",
                                                    "prev": "256493063040405007111022",
                                                    "typeTag": 1
                                                }
                                            }
                                        ],
                                        "typeTag": 4
                                    }
                                }
                            ],
                            "typeTag": 4
                        }
                    },
                    {
                        "name": "nonces",
                        "type": "mapping(address => uint256)",
                        "value": {
                            "pairs": [
                                {
                                    "key": "0x60062a98a4ff1ae9829efeb929feebd7f8c5c670",
                                    "value": {
                                        "current": "1",
                                        "prev": "0",
                                        "typeTag": 1
                                    }
                                }
                            ],
                            "typeTag": 4
                        }
                    },
                    {
                        "name": "masterContractApproved",
                        "type": "mapping(address => mapping(address => bool))",
                        "value": {
                            "pairs": [
                                {
                                    "key": "0x2cba6ab6574646badc84f0544d05059e57a5dc42",
                                    "value": {
                                        "pairs": [
                                            {
                                                "key": "0x60062a98a4ff1ae9829efeb929feebd7f8c5c670",
                                                "value": {
                                                    "current": "true",
                                                    "prev": "false",
                                                    "typeTag": 1
                                                }
                                            }
                                        ],
                                        "typeTag": 4
                                    }
                                }
                            ],
                            "typeTag": 4
                        }
                    },
                    {
                        "name": "totals",
                        "type": "mapping(contract IERC20 => struct Rebase)",
                        "value": {
                            "pairs": [
                                {
                                    "key": "0x6b175474e89094c44da98b954eedeac495271d0f",
                                    "value": {
                                        "fields": [
                                            {
                                                "name": "elastic",
                                                "type": "uint128",
                                                "value": {
                                                    "current": "1809694640740434618528590",
                                                    "prev": "1809679640740434618528590",
                                                    "typeTag": 1
                                                }
                                            },
                                            {
                                                "name": "base",
                                                "type": "uint128",
                                                "value": {
                                                    "current": "1809694640740434618528590",
                                                    "prev": "1809679640740434618528590",
                                                    "typeTag": 1
                                                }
                                            }
                                        ],
                                        "typeTag": 3
                                    }
                                }
                            ],
                            "typeTag": 4
                        }
                    }
                ]
            }
        ]
    }
}