{
    "balance_change": {
        "balanceChanges": [
            {
                "account": "0x974a4a1fef1710dc632fe99e2fc0c287a9558257",
                "assets": [
                    {
                        "address": "0xb70835d7822ebb9426b56543e391846c107bd32c",
                        "amount": "3,908",
                        "iconUrl": "",
                        "isERC1155": false,
                        "isERC721": false,
                        "sign": false,
                        "value": ""
                    }
                ]
            },
            {
                "account": "0x3d822601b348011e0f7499410a6daecae4de31a0",
                "assets": [
                    {
                        "address": "0xb70835d7822ebb9426b56543e391846c107bd32c",
                        "amount": "3,908",
                        "iconUrl": "",
                        "isERC1155": false,
                        "isERC721": false,
                        "sign": true,
                        "value": ""
                    }
                ]
            }
        ]
    },
    "profile": {
        "basic_info": {
            "baseFee": "",
            "blockNumber": 7553141,
            "callData": "0xa9059cbb0000000000000000000000003d822601b348011e0f7499410a6daecae4de31a00000000000000000000000000000000000000000000000d3da650e8752900000",
            "debugEnable": true,
            "errorInfo": "",
            "eventCount": 1,
            "feeRecipient": "0x464b0b37db1ee1b5fbe27300acfbf172fd5e4f53",
            "formatValue": "0",
            "gasLimit": 101000,
            "gasPrice": "63.6",
            "gasUsed": 37555,
            "intTxnCount": 0,
            "internalRevert": false,
            "internalRevertMessage": "",
            "isContractCreation": false,
            "isFlashloan": false,
            "maxFee": "",
            "nonce": 14370,
            "overwritedBlockNumber": -1,
            "priorityFee": "",
            "receiver": "0xb70835d7822ebb9426b56543e391846c107bd32c",
            "revertMessage": "",
            "sender": "0x974a4a1fef1710dc632fe99e2fc0c287a9558257",
            "simulationEnable": true,
            "sourceTxnHash": "0xdf6fdc8ccd68c9c93fc67dfc2f0ec01bde11b26ea4a19462bf706b732dc6be25",
            "status": true,
            "timestamp": "2019-04-12T12:30:07Z",
            "transactionFee": "0.002388498",
            "txnHash": "0xdf6fdc8ccd68c9c93fc67dfc2f0ec01bde11b26ea4a19462bf706b732dc6be25",
            "txnIndex": 1,
            "type": 0,
            "value": "0"
        },
        "fund_flow": [
            {
                "amount": "3,908",
                "from": "0x974a4a1fef1710dc632fe99e2fc0c287a9558257",
                "id": 1,
                "isERC1155": false,
                "isERC721": false,
                "isReverted": false,
                "order": 1,
                "to": "0x3d822601b348011e0f7499410a6daecae4de31a0",
                "token": "0xb70835d7822ebb9426b56543e391846c107bd32c"
            }
        ],
        "token_infos": [
            {
                "address": "0xb70835d7822ebb9426b56543e391846c107bd32c",
                "decimals": 18
            },
            {
                "address": "0xc02aaa39b223fe8d0a0e5c4f27ead9083c756cc2",
                "decimals": 18
            },
            {
                "address": "0xeeeeeeeeeeeeeeeeeeeeeeeeeeeeeeeeeeeeeeee",
                "decimals": 18
            }
        ]
    },
    "address_label": {
        "labels": [
            {
                "address": "0xeeeeeeeeeeeeeeeeeeeeeeeeeeeeeeeeeeeeeeee",
                "label": "Ether"
            },
            {
                "address": "0xb70835d7822ebb9426b56543e391846c107bd32c",
                "label": "GameICO"
            },
            {
                "address": "0x0000000000000000000000000000000000000001",
                "label": "Precompiled"
            },
            {
                "address": "0x0000000000000000000000000000000000000002",
                "label": "Precompiled"
            },
            {
                "address": "0x0000000000000000000000000000000000000003",
                "label": "Precompiled"
            },
            {
                "address": "0x0000000000000000000000000000000000000004",
                "label": "Precompiled"
            }
        ]
    },
    "trace": {
        "accountLabels": null,
        "dataMap": {
            "-1": {
                "invocation": {
                    "address": "0x974a4a1fef1710dc632fe99e2fc0c287a9558257",
                    "callData": "",
                    "decodedMethod": null,
                    "errorInfo": "",
                    "fromAddress": "",
                    "gasUsed": 0,
                    "id": -1,
                    "methodDecoded": false,
                    "operation": "",
                    "output": "",
                    "revert": false,
                    "revertMessage": "",
                    "selector": "",
                    "status": false,
                    "value": ""
                },
                "nodeType": 0
            },
            "0": {
                "invocation": {
                    "address": "0xb70835d7822ebb9426b56543e391846c107bd32c",
                    "callData": "0x0000000000000000000000003d822601b348011e0f7499410a6daecae4de31a00000000000000000000000000000000000000000000000d3da650e8752900000",
                    "decodedMethod": {
                        "callParams": [
                            {
                                "name": "_to",
                                "type": "address",
                                "value": "0x3d822601b348011e0f7499410a6daecae4de31a0"
                            },
                            {
                                "decimalAvailable": true,
                                "name": "_value",
                                "type": "uint256",
                                "value": "3,908,000,000,000,000,000,000"
                            }
                        ],
                        "constructorArguments": "",
                        "name": "transfer",
                        "returnParams": [
                            {
                                "name": "success",
                                "type": "bool",
                                "value": true
                            }
                        ],
                        "signature": "transfer(address,uint256)"
                    },
                    "errorInfo": "",
                    "fromAddress": "0x974a4a1fef1710dc632fe99e2fc0c287a9558257",
                    "gasUsed": 37555,
                    "id": 0,
                    "methodDecoded": true,
                    "operation": "CALL",
                    "output": "0x0000000000000000000000000000000000000000000000000000000000000001",
                    "revert": false,
                    "revertMessage": "",
                    "selector": "0xa9059cbb",
                    "status": true,
                    "value": "0"
                },
                "nodeType": 0
            },
            "1": {
                "event": {
                    "contract": "0xb70835d7822ebb9426b56543e391846c107bd32c",
                    "decodedLog": {
                        "name": "Transfer",
                        "params": [
                            {
                                "name": "_from",
                                "type": "address",
                                "value": "0x974a4a1fef1710dc632fe99e2fc0c287a9558257"
                            },
                            {
                                "name": "_to",
                                "type": "address",
                                "value": "0x3d822601b348011e0f7499410a6daecae4de31a0"
                            },
                            {
                                "decimalAvailable": true,
                                "name": "_value",
                                "type": "uint256",
                                "value": "3,908,000,000,000,000,000,000"
                            }
                        ],
                        "signature": "Transfer(address,address,uint256)"
                    },
                    "id": 1,
                    "logData": "0x0000000000000000000000000000000000000000000000d3da650e8752900000",
                    "logDecoded": true,
                    "operation": "EVENT",
                    "revert": false,
                    "status": true,
                    "topics": [
                        "0xddf252ad1be2c89b69c2b068fc378daa952ba7f163c4a11628f55a4df523b3ef",
                        "0x000000000000000000000000974a4a1fef1710dc632fe99e2fc0c287a9558257",
                        "0x0000000000000000000000003d822601b348011e0f7499410a6daecae4de31a0"
                    ]
                },
                "nodeType": 1
            }
        },
        "gasFlame": [
            {
                "children": [
                    {
                        "children": [
                            {
                                "children": [],
                                "depth": 0,
                                "name": "Initial Gas",
                                "value": 23256
                            },
                            {
                                "children": [],
                                "depth": 0,
                                "name": "Executed Gas",
                                "value": 14299
                            }
                        ],
                        "depth": -1,
                        "name": "Actual Gas Used",
                        "value": 37555
                    },
                    {
                        "children": [],
                        "depth": -1,
                        "name": "Refunded Gas",
                        "value": 0
                    }
                ],
                "depth": -2,
                "name": "Total Gas",
                "value": 37555
            }
        ],
        "isConfirmed": true,
        "mainTrace": [
            {
                "children": [
                    {
                        "children": [
                            {
                                "children": [],
                                "depth": 1,
                                "id": 1,
                                "order": 1
                            }
                        ],
                        "depth": 0,
                        "id": 0,
                        "order": 0
                    }
                ],
                "depth": -1,
                "id": -1,
                "order": -1
            }
        ],
        "mainTraceNodeCount": 2,
        "parentIdMap": {
            "0": -1,
            "1": 0
        },
        "tidyTrace": [
            {
                "children": [
                    {
                        "children": [
                            {
                                "children": [],
                                "depth": 1,
                                "id": 1,
                                "order": 1
                            }
                        ],
                        "depth": 0,
                        "id": 0,
                        "order": 0
                    }
                ],
                "depth": -1,
                "id": -1,
                "order": -1
            }
        ],
        "tidyTraceNodeCount": 2
    },
    "state_change": {
        "stateChanges": [
            {
                "address": "0xb70835d7822ebb9426b56543e391846c107bd32c",
                "erc": "ERC-20",
                "slots": [
                    {
                        "current": "0x0000000000000000000000000000000000000000000178fbf53a772a7c78f000",
                        "key": "0x3d74a9efaa33b0bf79d305ae33020da28015e507ac20f52b146837c374725383",
                        "prev": "0x0000000000000000000000000000000000000000000179cfcf9f85b1cf08f000"
                    },
                    {
                        "current": "0x0000000000000000000000000000000000000000000001a79908afa756580000",
                        "key": "0x887ae61fe6edc37ba990c9f66c55d84a79a037fbe1650fcd0e59a6e194803212",
                        "prev": "0x0000000000000000000000000000000000000000000000d3bea3a12003c80000"
                    }
                ],
                "storageVariables": [
                    {
                        "name": "balances",
                        "type": "mapping(address => uint256)",
                        "value": {
                            "pairs": [
                                {
                                    "key": "0x3d822601b348011e0f7499410a6daecae4de31a0",
                                    "value": {
                                        "current": "7814000000000000000000",
                                        "prev": "3906000000000000000000",
                                        "typeTag": 1
                                    }
                                },
                                {
                                    "key": "0x974a4a1fef1710dc632fe99e2fc0c287a9558257",
                                    "value": {
                                        "current": "1780257600888600000000000",
                                        "prev": "1784165600888600000000000",
                                        "typeTag": 1
                                    }
                                }
                            ],
                            "typeTag": 4
                        }
                    }
                ]
            }
        ]
    }
}