{
    "balance_change": {
        "balanceChanges": [
            {
                "account": "0xf79b605c3731aa3b42fc55b7d5ac866013ee3f72",
                "assets": [
                    {
                        "address": "0x0d51a44a0c6610f0918f8b5201efe1ff3e3a93cc",
                        "amount": "100,000,000",
                        "iconUrl": "",
                        "isERC1155": false,
                        "isERC721": false,
                        "sign": false,
                        "value": ""
                    }
                ]
            },
            {
                "account": "0x6d9cab71caef2a8567be4145269f381a4d19ec3c",
                "assets": [
                    {
                        "address": "0x0d51a44a0c6610f0918f8b5201efe1ff3e3a93cc",
                        "amount": "100,000,000",
                        "iconUrl": "",
                        "isERC1155": false,
                        "isERC721": false,
                        "sign": true,
                        "value": ""
                    }
                ]
            }
        ]
    },
    "profile": {
        "basic_info": {
            "baseFee": "",
            "blockNumber": 5563932,
            "callData": "0xa9059cbb0000000000000000000000006d9cab71caef2a8567be4145269f381a4d19ec3c0000000000000000000000000000000000000000000000000000000005f5e100",
            "debugEnable": true,
            "errorInfo": "",
            "eventCount": 1,
            "feeRecipient": "0x829bd824b016326a401d083b33d092293333a830",
            "formatValue": "0",
            "gasLimit": 940000,
            "gasPrice": "6.2",
            "gasUsed": 52189,
            "intTxnCount": 0,
            "internalRevert": false,
            "internalRevertMessage": "",
            "isContractCreation": false,
            "isFlashloan": false,
            "maxFee": "",
            "nonce": 423,
            "overwritedBlockNumber": -1,
            "priorityFee": "",
            "receiver": "0x0d51a44a0c6610f0918f8b5201efe1ff3e3a93cc",
            "revertMessage": "",
            "sender": "0xf79b605c3731aa3b42fc55b7d5ac866013ee3f72",
            "simulationEnable": true,
            "sourceTxnHash": "0xdf223bd33657a53555f4442a9041205dc774389c7f4d3da1197aa902fe2ee1a8",
            "status": true,
            "timestamp": "2018-05-06T02:53:55Z",
            "transactionFee": "0.0003235718",
            "txnHash": "0xdf223bd33657a53555f4442a9041205dc774389c7f4d3da1197aa902fe2ee1a8",
            "txnIndex": 111,
            "type": 0,
            "value": "0"
        },
        "fund_flow": [
            {
                "amount": "100,000,000",
                "from": "0xf79b605c3731aa3b42fc55b7d5ac866013ee3f72",
                "id": 1,
                "isERC1155": false,
                "isERC721": false,
                "isReverted": false,
                "order": 1,
                "to": "0x6d9cab71caef2a8567be4145269f381a4d19ec3c",
                "token": "0x0d51a44a0c6610f0918f8b5201efe1ff3e3a93cc"
            }
        ],
        "token_infos": [
            {
                "address": "0xc02aaa39b223fe8d0a0e5c4f27ead9083c756cc2",
                "decimals": 18
            },
            {
                "address": "0xeeeeeeeeeeeeeeeeeeeeeeeeeeeeeeeeeeeeeeee",
                "decimals": 18
            }
        ]
    },
    "address_label": {
        "labels": [
            {
                "address": "0x0000000000000000000000000000000000000001",
                "label": "Precompiled"
            },
            {
                "address": "0x0000000000000000000000000000000000000002",
                "label": "Precompiled"
            },
            {
                "address": "0x0000000000000000000000000000000000000003",
                "label": "Precompiled"
            },
            {
                "address": "0x0000000000000000000000000000000000000004",
                "label": "Precompiled"
            },
            {
                "address": "0xeeeeeeeeeeeeeeeeeeeeeeeeeeeeeeeeeeeeeeee",
                "label": "Ether"
            }
        ]
    },
    "trace": {
        "accountLabels": null,
        "dataMap": {
            "-1": {
                "invocation": {
                    "address": "0xf79b605c3731aa3b42fc55b7d5ac866013ee3f72",
                    "callData": "",
                    "decodedMethod": null,
                    "errorInfo": "",
                    "fromAddress": "",
                    "gasUsed": 0,
                    "id": -1,
                    "methodDecoded": false,
                    "operation": "",
                    "output": "",
                    "revert": false,
                    "revertMessage": "",
                    "selector": "",
                    "status": false,
                    "value": ""
                },
                "nodeType": 0
            },
            "0": {
                "invocation": {
                    "address": "0x0d51a44a0c6610f0918f8b5201efe1ff3e3a93cc",
                    "callData": "0x0000000000000000000000006d9cab71caef2a8567be4145269f381a4d19ec3c0000000000000000000000000000000000000000000000000000000005f5e100",
                    "decodedMethod": {
                        "callParams": [
                            {
                                "name": "_to",
                                "type": "address",
                                "value": "0x6d9cab71caef2a8567be4145269f381a4d19ec3c"
                            },
                            {
                                "decimalAvailable": true,
                                "name": "_value",
                                "type": "uint256",
                                "value": "100,000,000"
                            }
                        ],
                        "constructorArguments": "",
                        "name": "transfer",
                        "returnParams": [],
                        "signature": "transfer(address,uint256)"
                    },
                    "errorInfo": "",
                    "fromAddress": "0xf79b605c3731aa3b42fc55b7d5ac866013ee3f72",
                    "gasUsed": 52189,
                    "id": 0,
                    "methodDecoded": true,
                    "operation": "CALL",
                    "output": "",
                    "revert": false,
                    "revertMessage": "",
                    "selector": "0xa9059cbb",
                    "status": true,
                    "value": "0"
                },
                "nodeType": 0
            },
            "1": {
                "event": {
                    "contract": "0x0d51a44a0c6610f0918f8b5201efe1ff3e3a93cc",
                    "decodedLog": {
                        "name": "Transfer",
                        "params": [
                            {
                                "name": "from",
                                "type": "address",
                                "value": "0xf79b605c3731aa3b42fc55b7d5ac866013ee3f72"
                            },
                            {
                                "name": "to",
                                "type": "address",
                                "value": "0x6d9cab71caef2a8567be4145269f381a4d19ec3c"
                            },
                            {
                                "decimalAvailable": true,
                                "name": "value",
                                "type": "uint256",
                                "value": "100,000,000"
                            }
                        ],
                        "signature": "Transfer(address,address,uint256)"
                    },
                    "id": 1,
                    "logData": "0x0000000000000000000000000000000000000000000000000000000005f5e100",
                    "logDecoded": true,
                    "operation": "EVENT",
                    "revert": false,
                    "status": true,
                    "topics": [
                        "0xddf252ad1be2c89b69c2b068fc378daa952ba7f163c4a11628f55a4df523b3ef",
                        "0x000000000000000000000000f79b605c3731aa3b42fc55b7d5ac866013ee3f72",
                        "0x0000000000000000000000006d9cab71caef2a8567be4145269f381a4d19ec3c"
                    ]
                },
                "nodeType": 1
            }
        },
        "gasFlame": [
            {
                "children": [
                    {
                        "children": [
                            {
                                "children": [],
                                "depth": 0,
                                "name": "Initial Gas",
                                "value": 23000
                            },
                            {
                                "children": [],
                                "depth": 0,
                                "name": "Executed Gas",
                                "value": 29189
                            }
                        ],
                        "depth": -1,
                        "name": "Actual Gas Used",
                        "value": 52189
                    },
                    {
                        "children": [],
                        "depth": -1,
                        "name": "Refunded Gas",
                        "value": 0
                    }
                ],
                "depth": -2,
                "name": "Total Gas",
                "value": 52189
            }
        ],
        "isConfirmed": true,
        "mainTrace": [
            {
                "children": [
                    {
                        "children": [
                            {
                                "children": [],
                                "depth": 1,
                                "id": 1,
                                "order": 1
                            }
                        ],
                        "depth": 0,
                        "id": 0,
                        "order": 0
                    }
                ],
                "depth": -1,
                "id": -1,
                "order": -1
            }
        ],
        "mainTraceNodeCount": 2,
        "parentIdMap": {
            "0": -1,
            "1": 0
        },
        "tidyTrace": [
            {
                "children": [
                    {
                        "children": [
                            {
                                "children": [],
                                "depth": 1,
                                "id": 1,
                                "order": 1
                            }
                        ],
                        "depth": 0,
                        "id": 0,
                        "order": 0
                    }
                ],
                "depth": -1,
                "id": -1,
                "order": -1
            }
        ],
        "tidyTraceNodeCount": 2
    },
    "state_change": {
        "stateChanges": [
            {
                "address": "0x0d51a44a0c6610f0918f8b5201efe1ff3e3a93cc",
                "erc": "",
                "slots": [
                    {
                        "current": "0x00000000000000000000000000000000000000000000000002c30e299d33cee1",
                        "key": "0xffa09439382571f7a2c353668ab5d87b10f19c5e3fd10bb80ffaa6dcd739bf24",
                        "prev": "0x00000000000000000000000000000000000000000000000002c30e29a329afe1"
                    },
                    {
                        "current": "0x0000000000000000000000000000000000000000000000000000000005f5e100",
                        "key": "0x73d95604bf47103e5bb518c012bfc23c4713707c645bd384aafb3f323b6cd5f5",
                        "prev": "0x0000000000000000000000000000000000000000000000000000000000000000"
                    }
                ],
                "storageVariables": []
            }
        ]
    }
}