{
    "balance_change": {
        "balanceChanges": [
            {
                "account": "0xc4077892721aa11f6652b442015b3883a19150b4",
                "assets": [
                    {
                        "address": "0xc770eefad204b5180df6a14ee197d99d808ee52d",
                        "amount": "200",
                        "iconUrl": "https://assets.blocksec.com/icon/abbc175c114974ba787f2e56f904e1c3b188098a02040d55f4039f986e4b481b.png",
                        "isERC1155": false,
                        "isERC721": false,
                        "sign": false,
                        "value": "131.5967818"
                    },
                    {
                        "address": "0x470e8de2ebaef52014a47cb5e6af86884947f08c",
                        "amount": "3.544502762453637606",
                        "iconUrl": "",
                        "isERC1155": false,
                        "isERC721": false,
                        "sign": true,
                        "value": "258.8119003"
                    },
                    {
                        "address": "0xeeeeeeeeeeeeeeeeeeeeeeeeeeeeeeeeeeeeeeee",
                        "amount": "0.075015125511388954",
                        "iconUrl": "https://assets.blocksec.com/image/1663669189317-3.png",
                        "isERC1155": false,
                        "isERC721": false,
                        "sign": false,
                        "value": "131.9965488"
                    }
                ]
            },
            {
                "account": "0x0000000000000000000000000000000000000000",
                "assets": [
                    {
                        "address": "0x470e8de2ebaef52014a47cb5e6af86884947f08c",
                        "amount": "3.544502762453637606",
                        "iconUrl": "",
                        "isERC1155": false,
                        "isERC721": false,
                        "sign": false,
                        "value": "258.8119003"
                    }
                ]
            },
            {
                "account": "0x470e8de2ebaef52014a47cb5e6af86884947f08c",
                "assets": [
                    {
                        "address": "0xc02aaa39b223fe8d0a0e5c4f27ead9083c756cc2",
                        "amount": "0.075015125511388954",
                        "iconUrl": "https://assets.blocksec.com/icon/f1cb2d02c471d545bbc7722daf3277fd852d98e63d118771af7047bd8256c516.png",
                        "isERC1155": false,
                        "isERC721": false,
                        "sign": true,
                        "value": "131.9965488"
                    },
                    {
                        "address": "0xc770eefad204b5180df6a14ee197d99d808ee52d",
                        "amount": "200",
                        "iconUrl": "https://assets.blocksec.com/icon/abbc175c114974ba787f2e56f904e1c3b188098a02040d55f4039f986e4b481b.png",
                        "isERC1155": false,
                        "isERC721": false,
                        "sign": true,
                        "value": "131.5967818"
                    }
                ]
            },
            {
                "account": "0xc02aaa39b223fe8d0a0e5c4f27ead9083c756cc2",
                "assets": [
                    {
                        "address": "0xeeeeeeeeeeeeeeeeeeeeeeeeeeeeeeeeeeeeeeee",
                        "amount": "0.075015125511388954",
                        "iconUrl": "https://assets.blocksec.com/image/1663669189317-3.png",
                        "isERC1155": false,
                        "isERC721": false,
                        "sign": true,
                        "value": "131.9965488"
                    },
                    {
                        "address": "0xc02aaa39b223fe8d0a0e5c4f27ead9083c756cc2",
                        "amount": "0.075015125511388954",
                        "iconUrl": "https://assets.blocksec.com/icon/f1cb2d02c471d545bbc7722daf3277fd852d98e63d118771af7047bd8256c516.png",
                        "isERC1155": false,
                        "isERC721": false,
                        "sign": false,
                        "value": "131.9965488"
                    }
                ]
            }
        ]
    },
    "profile": {
        "basic_info": {
            "baseFee": "",
            "blockNumber": 12863586,
            "callData": "0xf305d719000000000000000000000000c770eefad204b5180df6a14ee197d99d808ee52d00000000000000000000000000000000000000000000000ad78ebc5ac620000000000000000000000000000000000000000000000000000a844a7424d9c80000000000000000000000000000000000000000000000000000010283155b9efd35000000000000000000000000c4077892721aa11f6652b442015b3883a19150b40000000000000000000000000000000000000000000000000000017ac41c3ec4",
            "debugEnable": true,
            "errorInfo": "",
            "eventCount": 7,
            "feeRecipient": "0x99c85bb64564d9ef9a99621301f22c9993cb89e3",
            "formatValue": "0.075015125511388954",
            "gasLimit": 205910,
            "gasPrice": "25.2",
            "gasUsed": 145900,
            "intTxnCount": 9,
            "internalRevert": false,
            "internalRevertMessage": "",
            "isContractCreation": false,
            "isFlashloan": false,
            "maxFee": "",
            "nonce": 368,
            "overwritedBlockNumber": -1,
            "priorityFee": "",
            "receiver": "0x7a250d5630b4cf539739df2c5dacb4c659f2488d",
            "revertMessage": "",
            "sender": "0xc4077892721aa11f6652b442015b3883a19150b4",
            "simulationEnable": true,
            "sourceTxnHash": "0xdf35934a8e5592a867a39eae8784b0611c75cdd61a8a767f1bf803e21415e31a",
            "status": true,
            "timestamp": "2021-07-20T13:10:24Z",
            "transactionFee": "0.00367668",
            "txnHash": "0xdf35934a8e5592a867a39eae8784b0611c75cdd61a8a767f1bf803e21415e31a",
            "txnIndex": 214,
            "type": 0,
            "value": "75015125511388954"
        },
        "fund_flow": [
            {
                "amount": "0.075015125511388954",
                "from": "0xc4077892721aa11f6652b442015b3883a19150b4",
                "id": 1,
                "isERC1155": false,
                "isERC721": false,
                "isReverted": false,
                "order": 1,
                "to": "0x7a250d5630b4cf539739df2c5dacb4c659f2488d",
                "token": "0xeeeeeeeeeeeeeeeeeeeeeeeeeeeeeeeeeeeeeeee"
            },
            {
                "amount": "200",
                "from": "0xc4077892721aa11f6652b442015b3883a19150b4",
                "id": 2,
                "isERC1155": false,
                "isERC721": false,
                "isReverted": false,
                "order": 2,
                "to": "0x470e8de2ebaef52014a47cb5e6af86884947f08c",
                "token": "0xc770eefad204b5180df6a14ee197d99d808ee52d"
            },
            {
                "amount": "0.075015125511388954",
                "from": "0x7a250d5630b4cf539739df2c5dacb4c659f2488d",
                "id": 3,
                "isERC1155": false,
                "isERC721": false,
                "isReverted": false,
                "order": 3,
                "to": "0xc02aaa39b223fe8d0a0e5c4f27ead9083c756cc2",
                "token": "0xeeeeeeeeeeeeeeeeeeeeeeeeeeeeeeeeeeeeeeee"
            },
            {
                "amount": "0.075015125511388954",
                "from": "0xc02aaa39b223fe8d0a0e5c4f27ead9083c756cc2",
                "id": 4,
                "isERC1155": false,
                "isERC721": false,
                "isReverted": false,
                "order": 4,
                "to": "0x7a250d5630b4cf539739df2c5dacb4c659f2488d",
                "token": "0xc02aaa39b223fe8d0a0e5c4f27ead9083c756cc2"
            },
            {
                "amount": "0.075015125511388954",
                "from": "0x7a250d5630b4cf539739df2c5dacb4c659f2488d",
                "id": 5,
                "isERC1155": false,
                "isERC721": false,
                "isReverted": false,
                "order": 5,
                "to": "0x470e8de2ebaef52014a47cb5e6af86884947f08c",
                "token": "0xc02aaa39b223fe8d0a0e5c4f27ead9083c756cc2"
            },
            {
                "amount": "3.544502762453637606",
                "from": "0x0000000000000000000000000000000000000000",
                "id": 6,
                "isERC1155": false,
                "isERC721": false,
                "isReverted": false,
                "order": 6,
                "to": "0xc4077892721aa11f6652b442015b3883a19150b4",
                "token": "0x470e8de2ebaef52014a47cb5e6af86884947f08c"
            }
        ],
        "token_infos": [
            {
                "address": "0xc770eefad204b5180df6a14ee197d99d808ee52d",
                "decimals": 18
            },
            {
                "address": "0xeeeeeeeeeeeeeeeeeeeeeeeeeeeeeeeeeeeeeeee",
                "decimals": 18
            },
            {
                "address": "0x470e8de2ebaef52014a47cb5e6af86884947f08c",
                "decimals": 18
            },
            {
                "address": "0xc02aaa39b223fe8d0a0e5c4f27ead9083c756cc2",
                "decimals": 18
            }
        ]
    },
    "address_label": {
        "labels": [
            {
                "address": "0xeeeeeeeeeeeeeeeeeeeeeeeeeeeeeeeeeeeeeeee",
                "label": "Ether"
            },
            {
                "address": "0x7a250d5630b4cf539739df2c5dacb4c659f2488d",
                "label": "Uniswap V2: Router 2"
            },
            {
                "address": "0x470e8de2ebaef52014a47cb5e6af86884947f08c",
                "label": "Uniswap V2: FOX"
            },
            {
                "address": "0x0000000000000000000000000000000000000001",
                "label": "Precompiled"
            },
            {
                "address": "0x0000000000000000000000000000000000000002",
                "label": "Precompiled"
            },
            {
                "address": "0x0000000000000000000000000000000000000004",
                "label": "Precompiled"
            },
            {
                "address": "0xc770eefad204b5180df6a14ee197d99d808ee52d",
                "label": "ShapeShift: FOX Token"
            },
            {
                "address": "0xc02aaa39b223fe8d0a0e5c4f27ead9083c756cc2",
                "label": "Wrapped Ether (WETH)"
            },
            {
                "address": "0x5c69bee701ef814a2b6a3edd4b1652cb9cc5aa6f",
                "label": "Uniswap V2: Factory Contract"
            },
            {
                "address": "0x0000000000000000000000000000000000000000",
                "label": "Null Address"
            },
            {
                "address": "0x0000000000000000000000000000000000000003",
                "label": "Precompiled"
            }
        ]
    },
    "trace": {
        "accountLabels": null,
        "dataMap": {
            "-1": {
                "invocation": {
                    "address": "0xc4077892721aa11f6652b442015b3883a19150b4",
                    "callData": "",
                    "decodedMethod": null,
                    "errorInfo": "",
                    "fromAddress": "",
                    "gasUsed": 0,
                    "id": -1,
                    "methodDecoded": false,
                    "operation": "",
                    "output": "",
                    "revert": false,
                    "revertMessage": "",
                    "selector": "",
                    "status": false,
                    "value": ""
                },
                "nodeType": 0
            },
            "0": {
                "invocation": {
                    "address": "0x7a250d5630b4cf539739df2c5dacb4c659f2488d",
                    "callData": "0x000000000000000000000000c770eefad204b5180df6a14ee197d99d808ee52d00000000000000000000000000000000000000000000000ad78ebc5ac620000000000000000000000000000000000000000000000000000a844a7424d9c80000000000000000000000000000000000000000000000000000010283155b9efd35000000000000000000000000c4077892721aa11f6652b442015b3883a19150b40000000000000000000000000000000000000000000000000000017ac41c3ec4",
                    "decodedMethod": {
                        "callParams": [
                            {
                                "name": "token",
                                "type": "address",
                                "value": "0xc770eefad204b5180df6a14ee197d99d808ee52d"
                            },
                            {
                                "name": "amountTokenDesired",
                                "type": "uint256",
                                "value": "200,000,000,000,000,000,000"
                            },
                            {
                                "name": "amountTokenMin",
                                "type": "uint256",
                                "value": "194,000,000,000,000,000,000"
                            },
                            {
                                "name": "amountETHMin",
                                "type": "uint256",
                                "value": "72,764,671,746,047,285"
                            },
                            {
                                "name": "to",
                                "type": "address",
                                "value": "0xc4077892721aa11f6652b442015b3883a19150b4"
                            },
                            {
                                "name": "deadline",
                                "type": "uint256",
                                "value": "1,626,787,823,300"
                            }
                        ],
                        "constructorArguments": "",
                        "name": "addLiquidityETH",
                        "returnParams": [
                            {
                                "name": "amountToken",
                                "type": "uint256",
                                "value": "200,000,000,000,000,000,000"
                            },
                            {
                                "name": "amountETH",
                                "type": "uint256",
                                "value": "75,015,125,511,388,954"
                            },
                            {
                                "name": "liquidity",
                                "type": "uint256",
                                "value": "3,544,502,762,453,637,606"
                            }
                        ],
                        "signature": "addLiquidityETH(address,uint256,uint256,uint256,address,uint256)"
                    },
                    "errorInfo": "",
                    "fromAddress": "0xc4077892721aa11f6652b442015b3883a19150b4",
                    "gasUsed": 145900,
                    "id": 0,
                    "methodDecoded": true,
                    "operation": "CALL",
                    "output": "0x00000000000000000000000000000000000000000000000ad78ebc5ac6200000000000000000000000000000000000000000000000000000010a81dbf4e33f1a00000000000000000000000000000000000000000000000031309a7b9d7099e6",
                    "revert": false,
                    "revertMessage": "",
                    "selector": "0xf305d719",
                    "status": true,
                    "value": "0.075015125511388954"
                },
                "nodeType": 0
            },
            "1": {
                "invocation": {
                    "address": "0x5c69bee701ef814a2b6a3edd4b1652cb9cc5aa6f",
                    "callData": "0x000000000000000000000000c770eefad204b5180df6a14ee197d99d808ee52d000000000000000000000000c02aaa39b223fe8d0a0e5c4f27ead9083c756cc2",
                    "decodedMethod": {
                        "callParams": [
                            {
                                "name": "",
                                "type": "address",
                                "value": "0xc770eefad204b5180df6a14ee197d99d808ee52d"
                            },
                            {
                                "name": "",
                                "type": "address",
                                "value": "0xc02aaa39b223fe8d0a0e5c4f27ead9083c756cc2"
                            }
                        ],
                        "constructorArguments": "",
                        "name": "getPair",
                        "returnParams": [
                            {
                                "name": "",
                                "type": "address",
                                "value": "0x470e8de2ebaef52014a47cb5e6af86884947f08c"
                            }
                        ],
                        "signature": "getPair(address,address)"
                    },
                    "errorInfo": "",
                    "fromAddress": "0x7a250d5630b4cf539739df2c5dacb4c659f2488d",
                    "gasUsed": 2564,
                    "id": 1,
                    "methodDecoded": true,
                    "operation": "STATICCALL",
                    "output": "0x000000000000000000000000470e8de2ebaef52014a47cb5e6af86884947f08c",
                    "revert": false,
                    "revertMessage": "",
                    "selector": "0xe6a43905",
                    "status": true,
                    "value": "0"
                },
                "nodeType": 0
            },
            "10": {
                "invocation": {
                    "address": "0x470e8de2ebaef52014a47cb5e6af86884947f08c",
                    "callData": "0x000000000000000000000000c4077892721aa11f6652b442015b3883a19150b4",
                    "decodedMethod": {
                        "callParams": [
                            {
                                "name": "to",
                                "type": "address",
                                "value": "0xc4077892721aa11f6652b442015b3883a19150b4"
                            }
                        ],
                        "constructorArguments": "",
                        "name": "mint",
                        "returnParams": [
                            {
                                "name": "liquidity",
                                "type": "uint256",
                                "value": "3,544,502,762,453,637,606"
                            }
                        ],
                        "signature": "mint(address)"
                    },
                    "errorInfo": "",
                    "fromAddress": "0x7a250d5630b4cf539739df2c5dacb4c659f2488d",
                    "gasUsed": 65773,
                    "id": 10,
                    "methodDecoded": true,
                    "operation": "CALL",
                    "output": "0x00000000000000000000000000000000000000000000000031309a7b9d7099e6",
                    "revert": false,
                    "revertMessage": "",
                    "selector": "0x6a627842",
                    "status": true,
                    "value": "0"
                },
                "nodeType": 0
            },
            "11": {
                "invocation": {
                    "address": "0xc02aaa39b223fe8d0a0e5c4f27ead9083c756cc2",
                    "callData": "0x000000000000000000000000470e8de2ebaef52014a47cb5e6af86884947f08c",
                    "decodedMethod": {
                        "callParams": [
                            {
                                "name": "",
                                "type": "address",
                                "value": "0x470e8de2ebaef52014a47cb5e6af86884947f08c"
                            }
                        ],
                        "constructorArguments": "",
                        "name": "balanceOf",
                        "returnParams": [
                            {
                                "decimalAvailable": true,
                                "name": "",
                                "type": "uint256",
                                "value": "2,605,651,833,730,340,681,309"
                            }
                        ],
                        "signature": "balanceOf(address)"
                    },
                    "errorInfo": "",
                    "fromAddress": "0x470e8de2ebaef52014a47cb5e6af86884947f08c",
                    "gasUsed": 534,
                    "id": 11,
                    "methodDecoded": true,
                    "operation": "STATICCALL",
                    "output": "0x00000000000000000000000000000000000000000000008d40aee9715226f65d",
                    "revert": false,
                    "revertMessage": "",
                    "selector": "0x70a08231",
                    "status": true,
                    "value": "0"
                },
                "nodeType": 0
            },
            "12": {
                "invocation": {
                    "address": "0xc770eefad204b5180df6a14ee197d99d808ee52d",
                    "callData": "0x000000000000000000000000470e8de2ebaef52014a47cb5e6af86884947f08c",
                    "decodedMethod": {
                        "callParams": [
                            {
                                "name": "owner",
                                "type": "address",
                                "value": "0x470e8de2ebaef52014a47cb5e6af86884947f08c"
                            }
                        ],
                        "constructorArguments": "",
                        "name": "balanceOf",
                        "returnParams": [
                            {
                                "decimalAvailable": true,
                                "name": "",
                                "type": "uint256",
                                "value": "6,947,003,863,466,828,747,093,087"
                            }
                        ],
                        "signature": "balanceOf(address)"
                    },
                    "errorInfo": "",
                    "fromAddress": "0x470e8de2ebaef52014a47cb5e6af86884947f08c",
                    "gasUsed": 524,
                    "id": 12,
                    "methodDecoded": true,
                    "operation": "STATICCALL",
                    "output": "0x00000000000000000000000000000000000000000005bf15d5846b24c8d9b45f",
                    "revert": false,
                    "revertMessage": "",
                    "selector": "0x70a08231",
                    "status": true,
                    "value": "0"
                },
                "nodeType": 0
            },
            "13": {
                "invocation": {
                    "address": "0x5c69bee701ef814a2b6a3edd4b1652cb9cc5aa6f",
                    "callData": "0x",
                    "decodedMethod": {
                        "callParams": [],
                        "constructorArguments": "",
                        "name": "feeTo",
                        "returnParams": [
                            {
                                "name": "",
                                "type": "address",
                                "value": "0x0000000000000000000000000000000000000000"
                            }
                        ],
                        "signature": "feeTo()"
                    },
                    "errorInfo": "",
                    "fromAddress": "0x470e8de2ebaef52014a47cb5e6af86884947f08c",
                    "gasUsed": 2314,
                    "id": 13,
                    "methodDecoded": true,
                    "operation": "STATICCALL",
                    "output": "0x0000000000000000000000000000000000000000000000000000000000000000",
                    "revert": false,
                    "revertMessage": "",
                    "selector": "0x017e7e58",
                    "status": true,
                    "value": "0"
                },
                "nodeType": 0
            },
            "14": {
                "event": {
                    "contract": "0x470e8de2ebaef52014a47cb5e6af86884947f08c",
                    "decodedLog": {
                        "name": "Transfer",
                        "params": [
                            {
                                "name": "from",
                                "type": "address",
                                "value": "0x0000000000000000000000000000000000000000"
                            },
                            {
                                "name": "to",
                                "type": "address",
                                "value": "0xc4077892721aa11f6652b442015b3883a19150b4"
                            },
                            {
                                "decimalAvailable": true,
                                "name": "value",
                                "type": "uint256",
                                "value": "3,544,502,762,453,637,606"
                            }
                        ],
                        "signature": "Transfer(address,address,uint256)"
                    },
                    "id": 14,
                    "logData": "0x00000000000000000000000000000000000000000000000031309a7b9d7099e6",
                    "logDecoded": true,
                    "operation": "EVENT",
                    "revert": false,
                    "status": true,
                    "topics": [
                        "0xddf252ad1be2c89b69c2b068fc378daa952ba7f163c4a11628f55a4df523b3ef",
                        "0x0000000000000000000000000000000000000000000000000000000000000000",
                        "0x000000000000000000000000c4077892721aa11f6652b442015b3883a19150b4"
                    ]
                },
                "nodeType": 1
            },
            "15": {
                "event": {
                    "contract": "0x470e8de2ebaef52014a47cb5e6af86884947f08c",
                    "decodedLog": {
                        "name": "Sync",
                        "params": [
                            {
                                "name": "reserve0",
                                "type": "uint112",
                                "value": "2,605,651,833,730,340,681,309"
                            },
                            {
                                "name": "reserve1",
                                "type": "uint112",
                                "value": "6,947,003,863,466,828,747,093,087"
                            }
                        ],
                        "signature": "Sync(uint112,uint112)"
                    },
                    "id": 15,
                    "logData": "0x00000000000000000000000000000000000000000000008d40aee9715226f65d00000000000000000000000000000000000000000005bf15d5846b24c8d9b45f",
                    "logDecoded": true,
                    "operation": "EVENT",
                    "revert": false,
                    "status": true,
                    "topics": [
                        "0x1c411e9a96e071241c2f21f7726b17ae89e3cab4c78be50e062b03a9fffbbad1"
                    ]
                },
                "nodeType": 1
            },
            "16": {
                "event": {
                    "contract": "0x470e8de2ebaef52014a47cb5e6af86884947f08c",
                    "decodedLog": {
                        "name": "Mint",
                        "params": [
                            {
                                "name": "sender",
                                "type": "address",
                                "value": "0x7a250d5630b4cf539739df2c5dacb4c659f2488d"
                            },
                            {
                                "name": "amount0",
                                "type": "uint256",
                                "value": "75,015,125,511,388,954"
                            },
                            {
                                "name": "amount1",
                                "type": "uint256",
                                "value": "200,000,000,000,000,000,000"
                            }
                        ],
                        "signature": "Mint(address,uint256,uint256)"
                    },
                    "id": 16,
                    "logData": "0x000000000000000000000000000000000000000000000000010a81dbf4e33f1a00000000000000000000000000000000000000000000000ad78ebc5ac6200000",
                    "logDecoded": true,
                    "operation": "EVENT",
                    "revert": false,
                    "status": true,
                    "topics": [
                        "0x4c209b5fc8ad50758f13e2e1088ba56a560dff690a1c6fef26394f4c03821c4f",
                        "0x0000000000000000000000007a250d5630b4cf539739df2c5dacb4c659f2488d"
                    ]
                },
                "nodeType": 1
            },
            "2": {
                "invocation": {
                    "address": "0x470e8de2ebaef52014a47cb5e6af86884947f08c",
                    "callData": "0x",
                    "decodedMethod": {
                        "callParams": [],
                        "constructorArguments": "",
                        "name": "getReserves",
                        "returnParams": [
                            {
                                "name": "_reserve0",
                                "type": "uint112",
                                "value": "2,605,576,818,604,829,292,355"
                            },
                            {
                                "name": "_reserve1",
                                "type": "uint112",
                                "value": "6,946,803,863,466,828,747,093,087"
                            },
                            {
                                "name": "_blockTimestampLast",
                                "type": "uint32",
                                "value": "1,626,786,552"
                            }
                        ],
                        "signature": "getReserves()"
                    },
                    "errorInfo": "",
                    "fromAddress": "0x7a250d5630b4cf539739df2c5dacb4c659f2488d",
                    "gasUsed": 2504,
                    "id": 2,
                    "methodDecoded": true,
                    "operation": "STATICCALL",
                    "output": "0x00000000000000000000000000000000000000000000008d3fa467955d43b74300000000000000000000000000000000000000000005bf0afdf5aeca02b9b45f0000000000000000000000000000000000000000000000000000000060f6caf8",
                    "revert": false,
                    "revertMessage": "",
                    "selector": "0x0902f1ac",
                    "status": true,
                    "value": "0"
                },
                "nodeType": 0
            },
            "3": {
                "invocation": {
                    "address": "0xc770eefad204b5180df6a14ee197d99d808ee52d",
                    "callData": "0x000000000000000000000000c4077892721aa11f6652b442015b3883a19150b4000000000000000000000000470e8de2ebaef52014a47cb5e6af86884947f08c00000000000000000000000000000000000000000000000ad78ebc5ac6200000",
                    "decodedMethod": {
                        "callParams": [
                            {
                                "name": "from",
                                "type": "address",
                                "value": "0xc4077892721aa11f6652b442015b3883a19150b4"
                            },
                            {
                                "name": "to",
                                "type": "address",
                                "value": "0x470e8de2ebaef52014a47cb5e6af86884947f08c"
                            },
                            {
                                "decimalAvailable": true,
                                "name": "value",
                                "type": "uint256",
                                "value": "200,000,000,000,000,000,000"
                            }
                        ],
                        "constructorArguments": "",
                        "name": "transferFrom",
                        "returnParams": [
                            {
                                "name": "",
                                "type": "bool",
                                "value": true
                            }
                        ],
                        "signature": "transferFrom(address,address,uint256)"
                    },
                    "errorInfo": "",
                    "fromAddress": "0x7a250d5630b4cf539739df2c5dacb4c659f2488d",
                    "gasUsed": 20598,
                    "id": 3,
                    "methodDecoded": true,
                    "operation": "CALL",
                    "output": "0x0000000000000000000000000000000000000000000000000000000000000001",
                    "revert": false,
                    "revertMessage": "",
                    "selector": "0x23b872dd",
                    "status": true,
                    "value": "0"
                },
                "nodeType": 0
            },
            "4": {
                "event": {
                    "contract": "0xc770eefad204b5180df6a14ee197d99d808ee52d",
                    "decodedLog": {
                        "name": "Transfer",
                        "params": [
                            {
                                "name": "from",
                                "type": "address",
                                "value": "0xc4077892721aa11f6652b442015b3883a19150b4"
                            },
                            {
                                "name": "to",
                                "type": "address",
                                "value": "0x470e8de2ebaef52014a47cb5e6af86884947f08c"
                            },
                            {
                                "decimalAvailable": true,
                                "name": "value",
                                "type": "uint256",
                                "value": "200,000,000,000,000,000,000"
                            }
                        ],
                        "signature": "Transfer(address,address,uint256)"
                    },
                    "id": 4,
                    "logData": "0x00000000000000000000000000000000000000000000000ad78ebc5ac6200000",
                    "logDecoded": true,
                    "operation": "EVENT",
                    "revert": false,
                    "status": true,
                    "topics": [
                        "0xddf252ad1be2c89b69c2b068fc378daa952ba7f163c4a11628f55a4df523b3ef",
                        "0x000000000000000000000000c4077892721aa11f6652b442015b3883a19150b4",
                        "0x000000000000000000000000470e8de2ebaef52014a47cb5e6af86884947f08c"
                    ]
                },
                "nodeType": 1
            },
            "5": {
                "event": {
                    "contract": "0xc770eefad204b5180df6a14ee197d99d808ee52d",
                    "decodedLog": {
                        "name": "Approval",
                        "params": [
                            {
                                "name": "owner",
                                "type": "address",
                                "value": "0xc4077892721aa11f6652b442015b3883a19150b4"
                            },
                            {
                                "name": "spender",
                                "type": "address",
                                "value": "0x7a250d5630b4cf539739df2c5dacb4c659f2488d"
                            },
                            {
                                "decimalAvailable": true,
                                "name": "value",
                                "type": "uint256",
                                "value": "115,792,089,237,316,195,423,570,985,008,687,907,853,269,984,665,640,564,038,957,584,007,913,129,639,935"
                            }
                        ],
                        "signature": "Approval(address,address,uint256)"
                    },
                    "id": 5,
                    "logData": "0xffffffffffffffffffffffffffffffffffffffffffffffe4e51b291d10afffff",
                    "logDecoded": true,
                    "operation": "EVENT",
                    "revert": false,
                    "status": true,
                    "topics": [
                        "0x8c5be1e5ebec7d5bd14f71427d1e84f3dd0314c0f7b2291e5b200ac8c7c3b925",
                        "0x000000000000000000000000c4077892721aa11f6652b442015b3883a19150b4",
                        "0x0000000000000000000000007a250d5630b4cf539739df2c5dacb4c659f2488d"
                    ]
                },
                "nodeType": 1
            },
            "6": {
                "invocation": {
                    "address": "0xc02aaa39b223fe8d0a0e5c4f27ead9083c756cc2",
                    "callData": "0x",
                    "decodedMethod": {
                        "callParams": [],
                        "constructorArguments": "",
                        "name": "deposit",
                        "returnParams": [],
                        "signature": "deposit()"
                    },
                    "errorInfo": "",
                    "fromAddress": "0x7a250d5630b4cf539739df2c5dacb4c659f2488d",
                    "gasUsed": 23974,
                    "id": 6,
                    "methodDecoded": true,
                    "operation": "CALL",
                    "output": "",
                    "revert": false,
                    "revertMessage": "",
                    "selector": "0xd0e30db0",
                    "status": true,
                    "value": "0.075015125511388954"
                },
                "nodeType": 0
            },
            "7": {
                "event": {
                    "contract": "0xc02aaa39b223fe8d0a0e5c4f27ead9083c756cc2",
                    "decodedLog": {
                        "name": "Deposit",
                        "params": [
                            {
                                "name": "dst",
                                "type": "address",
                                "value": "0x7a250d5630b4cf539739df2c5dacb4c659f2488d"
                            },
                            {
                                "name": "wad",
                                "type": "uint256",
                                "value": "75,015,125,511,388,954"
                            }
                        ],
                        "signature": "Deposit(address,uint256)"
                    },
                    "id": 7,
                    "logData": "0x000000000000000000000000000000000000000000000000010a81dbf4e33f1a",
                    "logDecoded": true,
                    "operation": "EVENT",
                    "revert": false,
                    "status": true,
                    "topics": [
                        "0xe1fffcc4923d04b559f4d29a8bfc6cda04eb5b0d3c460751c2402c5c5cc9109c",
                        "0x0000000000000000000000007a250d5630b4cf539739df2c5dacb4c659f2488d"
                    ]
                },
                "nodeType": 1
            },
            "8": {
                "invocation": {
                    "address": "0xc02aaa39b223fe8d0a0e5c4f27ead9083c756cc2",
                    "callData": "0x000000000000000000000000470e8de2ebaef52014a47cb5e6af86884947f08c000000000000000000000000000000000000000000000000010a81dbf4e33f1a",
                    "decodedMethod": {
                        "callParams": [
                            {
                                "name": "dst",
                                "type": "address",
                                "value": "0x470e8de2ebaef52014a47cb5e6af86884947f08c"
                            },
                            {
                                "decimalAvailable": true,
                                "name": "wad",
                                "type": "uint256",
                                "value": "75,015,125,511,388,954"
                            }
                        ],
                        "constructorArguments": "",
                        "name": "transfer",
                        "returnParams": [
                            {
                                "name": "",
                                "type": "bool",
                                "value": true
                            }
                        ],
                        "signature": "transfer(address,uint256)"
                    },
                    "errorInfo": "",
                    "fromAddress": "0x7a250d5630b4cf539739df2c5dacb4c659f2488d",
                    "gasUsed": 8062,
                    "id": 8,
                    "methodDecoded": true,
                    "operation": "CALL",
                    "output": "0x0000000000000000000000000000000000000000000000000000000000000001",
                    "revert": false,
                    "revertMessage": "",
                    "selector": "0xa9059cbb",
                    "status": true,
                    "value": "0"
                },
                "nodeType": 0
            },
            "9": {
                "event": {
                    "contract": "0xc02aaa39b223fe8d0a0e5c4f27ead9083c756cc2",
                    "decodedLog": {
                        "name": "Transfer",
                        "params": [
                            {
                                "name": "src",
                                "type": "address",
                                "value": "0x7a250d5630b4cf539739df2c5dacb4c659f2488d"
                            },
                            {
                                "name": "dst",
                                "type": "address",
                                "value": "0x470e8de2ebaef52014a47cb5e6af86884947f08c"
                            },
                            {
                                "decimalAvailable": true,
                                "name": "wad",
                                "type": "uint256",
                                "value": "75,015,125,511,388,954"
                            }
                        ],
                        "signature": "Transfer(address,address,uint256)"
                    },
                    "id": 9,
                    "logData": "0x000000000000000000000000000000000000000000000000010a81dbf4e33f1a",
                    "logDecoded": true,
                    "operation": "EVENT",
                    "revert": false,
                    "status": true,
                    "topics": [
                        "0xddf252ad1be2c89b69c2b068fc378daa952ba7f163c4a11628f55a4df523b3ef",
                        "0x0000000000000000000000007a250d5630b4cf539739df2c5dacb4c659f2488d",
                        "0x000000000000000000000000470e8de2ebaef52014a47cb5e6af86884947f08c"
                    ]
                },
                "nodeType": 1
            }
        },
        "gasFlame": [
            {
                "children": [
                    {
                        "children": [
                            {
                                "children": [],
                                "depth": 0,
                                "name": "Initial Gas",
                                "value": 22648
                            },
                            {
                                "children": [
                                    {
                                        "children": [],
                                        "depth": 1,
                                        "name": "getPair",
                                        "value": 2564
                                    },
                                    {
                                        "children": [],
                                        "depth": 1,
                                        "name": "getReserves",
                                        "value": 2504
                                    },
                                    {
                                        "children": [],
                                        "depth": 1,
                                        "name": "transferFrom",
                                        "value": 20598
                                    },
                                    {
                                        "children": [],
                                        "depth": 1,
                                        "name": "deposit",
                                        "value": 23974
                                    },
                                    {
                                        "children": [],
                                        "depth": 1,
                                        "name": "transfer",
                                        "value": 8062
                                    },
                                    {
                                        "children": [
                                            {
                                                "children": [],
                                                "depth": 2,
                                                "name": "balanceOf",
                                                "value": 534
                                            },
                                            {
                                                "children": [],
                                                "depth": 2,
                                                "name": "balanceOf",
                                                "value": 524
                                            },
                                            {
                                                "children": [],
                                                "depth": 2,
                                                "name": "feeTo",
                                                "value": 2314
                                            }
                                        ],
                                        "depth": 1,
                                        "name": "mint",
                                        "value": 65773
                                    }
                                ],
                                "depth": 0,
                                "name": "Executed Gas",
                                "value": 145952
                            }
                        ],
                        "depth": -1,
                        "name": "Actual Gas Used",
                        "value": 145900
                    },
                    {
                        "children": [],
                        "depth": -1,
                        "name": "Refunded Gas",
                        "value": 22700
                    }
                ],
                "depth": -2,
                "name": "Total Gas",
                "value": 168600
            }
        ],
        "isConfirmed": true,
        "mainTrace": [
            {
                "children": [
                    {
                        "children": [
                            {
                                "children": [],
                                "depth": 1,
                                "id": 1,
                                "order": 1
                            },
                            {
                                "children": [],
                                "depth": 1,
                                "id": 2,
                                "order": 2
                            },
                            {
                                "children": [
                                    {
                                        "children": [],
                                        "depth": 2,
                                        "id": 4,
                                        "order": 4
                                    },
                                    {
                                        "children": [],
                                        "depth": 2,
                                        "id": 5,
                                        "order": 5
                                    }
                                ],
                                "depth": 1,
                                "id": 3,
                                "order": 3
                            },
                            {
                                "children": [
                                    {
                                        "children": [],
                                        "depth": 2,
                                        "id": 7,
                                        "order": 7
                                    }
                                ],
                                "depth": 1,
                                "id": 6,
                                "order": 6
                            },
                            {
                                "children": [
                                    {
                                        "children": [],
                                        "depth": 2,
                                        "id": 9,
                                        "order": 9
                                    }
                                ],
                                "depth": 1,
                                "id": 8,
                                "order": 8
                            },
                            {
                                "children": [
                                    {
                                        "children": [],
                                        "depth": 2,
                                        "id": 11,
                                        "order": 11
                                    },
                                    {
                                        "children": [],
                                        "depth": 2,
                                        "id": 12,
                                        "order": 12
                                    },
                                    {
                                        "children": [],
                                        "depth": 2,
                                        "id": 13,
                                        "order": 13
                                    },
                                    {
                                        "children": [],
                                        "depth": 2,
                                        "id": 14,
                                        "order": 14
                                    },
                                    {
                                        "children": [],
                                        "depth": 2,
                                        "id": 15,
                                        "order": 15
                                    },
                                    {
                                        "children": [],
                                        "depth": 2,
                                        "id": 16,
                                        "order": 16
                                    }
                                ],
                                "depth": 1,
                                "id": 10,
                                "order": 10
                            }
                        ],
                        "depth": 0,
                        "id": 0,
                        "order": 0
                    }
                ],
                "depth": -1,
                "id": -1,
                "order": -1
            }
        ],
        "mainTraceNodeCount": 17,
        "parentIdMap": {
            "0": -1,
            "1": 0,
            "10": 0,
            "11": 10,
            "12": 10,
            "13": 10,
            "14": 10,
            "15": 10,
            "16": 10,
            "2": 0,
            "3": 0,
            "4": 3,
            "5": 3,
            "6": 0,
            "7": 6,
            "8": 0,
            "9": 8
        },
        "tidyTrace": [
            {
                "children": [
                    {
                        "children": [
                            {
                                "children": [
                                    {
                                        "children": [],
                                        "depth": 2,
                                        "id": 4,
                                        "order": 4
                                    },
                                    {
                                        "children": [],
                                        "depth": 2,
                                        "id": 5,
                                        "order": 5
                                    }
                                ],
                                "depth": 1,
                                "id": 3,
                                "order": 3
                            },
                            {
                                "children": [
                                    {
                                        "children": [],
                                        "depth": 2,
                                        "id": 7,
                                        "order": 7
                                    }
                                ],
                                "depth": 1,
                                "id": 6,
                                "order": 6
                            },
                            {
                                "children": [
                                    {
                                        "children": [],
                                        "depth": 2,
                                        "id": 9,
                                        "order": 9
                                    }
                                ],
                                "depth": 1,
                                "id": 8,
                                "order": 8
                            },
                            {
                                "children": [
                                    {
                                        "children": [],
                                        "depth": 2,
                                        "id": 14,
                                        "order": 14
                                    },
                                    {
                                        "children": [],
                                        "depth": 2,
                                        "id": 15,
                                        "order": 15
                                    },
                                    {
                                        "children": [],
                                        "depth": 2,
                                        "id": 16,
                                        "order": 16
                                    }
                                ],
                                "depth": 1,
                                "id": 10,
                                "order": 10
                            }
                        ],
                        "depth": 0,
                        "id": 0,
                        "order": 0
                    }
                ],
                "depth": -1,
                "id": -1,
                "order": -1
            }
        ],
        "tidyTraceNodeCount": 12
    },
    "state_change": {
        "stateChanges": [
            {
                "address": "0x470e8de2ebaef52014a47cb5e6af86884947f08c",
                "erc": "ERC-20",
                "slots": [
                    {
                        "current": "0x00000000000000000000000000000000000000000000000031309a7b9d7099e6",
                        "key": "0x6181ee9f42577514b0e6c22ed23f76c8e2a45d5f1b0d1e927826539747a9ee41",
                        "prev": "0x0000000000000000000000000000000000000000000000000000000000000000"
                    },
                    {
                        "current": "0x0000000000000000000000000024cf3586b5f53cb2f47bc93d5559f6104d6cbd",
                        "key": "0x0000000000000000000000000000000000000000000000000000000000000009",
                        "prev": "0x0000000000000000000000000024cf3298dcabe4be9221a658cfdd9a81ad4bcd"
                    },
                    {
                        "current": "0x000000000000000000000000000000002a5bc6eefa884b538274439ef9268b88",
                        "key": "0x000000000000000000000000000000000000000000000000000000000000000a",
                        "prev": "0x000000000000000000000000000000002a5bc00526586a240ee4b8b234893380"
                    },
                    {
                        "current": "0x60f6cb4000000005bf15d5846b24c8d9b45f00000000008d40aee9715226f65d",
                        "key": "0x0000000000000000000000000000000000000000000000000000000000000008",
                        "prev": "0x60f6caf800000005bf0afdf5aeca02b9b45f00000000008d3fa467955d43b743"
                    },
                    {
                        "current": "0x000000000000000000000000000000000000000000001a1242a40bf153062b3e",
                        "key": "0x0000000000000000000000000000000000000000000000000000000000000000",
                        "prev": "0x000000000000000000000000000000000000000000001a1211737175b5959158"
                    }
                ],
                "storageVariables": [
                    {
                        "name": "totalSupply",
                        "type": "uint256",
                        "value": {
                            "current": "123118371924171339213630",
                            "prev": "123114827421408885576024",
                            "typeTag": 1
                        }
                    },
                    {
                        "name": "balanceOf",
                        "type": "mapping(address => uint256)",
                        "value": {
                            "pairs": [
                                {
                                    "key": "0xc4077892721aa11f6652b442015b3883a19150b4",
                                    "value": {
                                        "current": "3544502762453637606",
                                        "prev": "0",
                                        "typeTag": 1
                                    }
                                }
                            ],
                            "typeTag": 4
                        }
                    },
                    {
                        "name": "price0CumulativeLast",
                        "type": "uint256",
                        "value": {
                            "current": "820877284361754779889771060332728817673923773",
                            "prev": "820876287641769934301276563681912629198932941",
                            "typeTag": 1
                        }
                    },
                    {
                        "name": "price1CumulativeLast",
                        "type": "uint256",
                        "value": {
                            "current": "56304109688033359486582503279480441736",
                            "prev": "56303969467745166749539614039298618240",
                            "typeTag": 1
                        }
                    },
                    {
                        "name": "reserve0",
                        "type": "uint112",
                        "value": {
                            "current": "2605651833730340681309",
                            "prev": "2605576818604829292355",
                            "typeTag": 1
                        }
                    },
                    {
                        "name": "reserve1",
                        "type": "uint112",
                        "value": {
                            "current": "6947003863466828747093087",
                            "prev": "6946803863466828747093087",
                            "typeTag": 1
                        }
                    },
                    {
                        "name": "blockTimestampLast",
                        "type": "uint32",
                        "value": {
                            "current": "1626786624",
                            "prev": "1626786552",
                            "typeTag": 1
                        }
                    }
                ]
            },
            {
                "address": "0xc02aaa39b223fe8d0a0e5c4f27ead9083c756cc2",
                "erc": "ERC-20",
                "slots": [
                    {
                        "current": "0x00000000000000000000000000000000000000000000008d40aee9715226f65d",
                        "key": "0x91674d69d5f92e0476885678c36e337c08668d179c4f8f75767240d2f7c7a533",
                        "prev": "0x00000000000000000000000000000000000000000000008d3fa467955d43b743"
                    }
                ],
                "storageVariables": [
                    {
                        "name": "balanceOf",
                        "type": "mapping(address => uint256)",
                        "value": {
                            "pairs": [
                                {
                                    "key": "0x470e8de2ebaef52014a47cb5e6af86884947f08c",
                                    "value": {
                                        "current": "2605651833730340681309",
                                        "prev": "2605576818604829292355",
                                        "typeTag": 1
                                    }
                                }
                            ],
                            "typeTag": 4
                        }
                    }
                ]
            },
            {
                "address": "0xc770eefad204b5180df6a14ee197d99d808ee52d",
                "erc": "ERC-20",
                "slots": [
                    {
                        "current": "0x00000000000000000000000000000000000000000005bf15d5846b24c8d9b45f",
                        "key": "0x34c2e03f6207e2786b494b57d614a2996d8a2053f2b70adfea3ef2401ec8d2e9",
                        "prev": "0x00000000000000000000000000000000000000000005bf0afdf5aeca02b9b45f"
                    },
                    {
                        "current": "0xffffffffffffffffffffffffffffffffffffffffffffffe4e51b291d10afffff",
                        "key": "0xf819e73b9cbbafd740ee2303eaab5928e7a5727d958f5bbeb46458acdb06d4ea",
                        "prev": "0xffffffffffffffffffffffffffffffffffffffffffffffefbca9e577d6cfffff"
                    },
                    {
                        "current": "0x000000000000000000000000000000000000000000000002b5e3af16b1880000",
                        "key": "0xf8e592b4dab59bc35817d1480dd11017e6f9d7ac80de7836d01eff0368a00068",
                        "prev": "0x00000000000000000000000000000000000000000000000d8d726b7177a80000"
                    }
                ],
                "storageVariables": [
                    {
                        "name": "_balances",
                        "type": "mapping(address => uint256)",
                        "value": {
                            "pairs": [
                                {
                                    "key": "0x470e8de2ebaef52014a47cb5e6af86884947f08c",
                                    "value": {
                                        "current": "6947003863466828747093087",
                                        "prev": "6946803863466828747093087",
                                        "typeTag": 1
                                    }
                                },
                                {
                                    "key": "0xc4077892721aa11f6652b442015b3883a19150b4",
                                    "value": {
                                        "current": "50000000000000000000",
                                        "prev": "250000000000000000000",
                                        "typeTag": 1
                                    }
                                }
                            ],
                            "typeTag": 4
                        }
                    },
                    {
                        "name": "_allowed",
                        "type": "mapping(address => mapping(address => uint256))",
                        "value": {
                            "pairs": [
                                {
                                    "key": "0xc4077892721aa11f6652b442015b3883a19150b4",
                                    "value": {
                                        "pairs": [
                                            {
                                                "key": "0x7a250d5630b4cf539739df2c5dacb4c659f2488d",
                                                "value": {
                                                    "current": "115792089237316195423570985008687907853269984665640564038957584007913129639935",
                                                    "prev": "115792089237316195423570985008687907853269984665640564039157584007913129639935",
                                                    "typeTag": 1
                                                }
                                            }
                                        ],
                                        "typeTag": 4
                                    }
                                }
                            ],
                            "typeTag": 4
                        }
                    }
                ]
            }
        ]
    }
}