{
    "balance_change": {
        "balanceChanges": [
            {
                "account": "0xefffcd651a8746bfc5a7d43195ef2e71a49d673c",
                "assets": [
                    {
                        "address": "0xdac17f958d2ee523a2206206994597c13d831ec7",
                        "amount": "135.36",
                        "iconUrl": "https://assets.blocksec.com/icon/fcea71f3193ce895be44bfdf941f7e4c9381dd587f273c2d1a27f1263d84e4ea.png",
                        "isERC1155": false,
                        "isERC721": false,
                        "sign": false,
                        "value": ""
                    }
                ]
            },
            {
                "account": "0x6b6614d208788ec846a6825ff08d75763ff38a82",
                "assets": [
                    {
                        "address": "0xdac17f958d2ee523a2206206994597c13d831ec7",
                        "amount": "135.36",
                        "iconUrl": "https://assets.blocksec.com/icon/fcea71f3193ce895be44bfdf941f7e4c9381dd587f273c2d1a27f1263d84e4ea.png",
                        "isERC1155": false,
                        "isERC721": false,
                        "sign": true,
                        "value": ""
                    }
                ]
            }
        ]
    },
    "profile": {
        "basic_info": {
            "baseFee": "",
            "blockNumber": 9714653,
            "callData": "0xa9059cbb0000000000000000000000006b6614d208788ec846a6825ff08d75763ff38a820000000000000000000000000000000000000000000000000000000008116e00",
            "debugEnable": true,
            "errorInfo": "",
            "eventCount": 1,
            "feeRecipient": "0x5a0b54d5dc17e0aadc383d2db43b0a0d3e029c4c",
            "formatValue": "0",
            "gasLimit": 61795,
            "gasPrice": "5",
            "gasUsed": 26197,
            "intTxnCount": 0,
            "internalRevert": false,
            "internalRevertMessage": "",
            "isContractCreation": false,
            "isFlashloan": false,
            "maxFee": "",
            "nonce": 0,
            "overwritedBlockNumber": -1,
            "priorityFee": "",
            "receiver": "0xdac17f958d2ee523a2206206994597c13d831ec7",
            "revertMessage": "",
            "sender": "0xefffcd651a8746bfc5a7d43195ef2e71a49d673c",
            "simulationEnable": true,
            "sourceTxnHash": "0xe00e577e11a94747d8e74967b39d99df2ecd15029804fd286bd880f0753944da",
            "status": true,
            "timestamp": "2020-03-21T11:11:22Z",
            "transactionFee": "0.000130985",
            "txnHash": "0xe00e577e11a94747d8e74967b39d99df2ecd15029804fd286bd880f0753944da",
            "txnIndex": 41,
            "type": 0,
            "value": "0"
        },
        "fund_flow": [
            {
                "amount": "135.36",
                "from": "0xefffcd651a8746bfc5a7d43195ef2e71a49d673c",
                "id": 1,
                "isERC1155": false,
                "isERC721": false,
                "isReverted": false,
                "order": 1,
                "to": "0x6b6614d208788ec846a6825ff08d75763ff38a82",
                "token": "0xdac17f958d2ee523a2206206994597c13d831ec7"
            }
        ],
        "token_infos": [
            {
                "address": "0xc02aaa39b223fe8d0a0e5c4f27ead9083c756cc2",
                "decimals": 18
            },
            {
                "address": "0xdac17f958d2ee523a2206206994597c13d831ec7",
                "decimals": 6
            },
            {
                "address": "0xeeeeeeeeeeeeeeeeeeeeeeeeeeeeeeeeeeeeeeee",
                "decimals": 18
            }
        ]
    },
    "address_label": {
        "labels": [
            {
                "address": "0xdac17f958d2ee523a2206206994597c13d831ec7",
                "label": "Tether: USDT Stablecoin"
            },
            {
                "address": "0x0000000000000000000000000000000000000001",
                "label": "Precompiled"
            },
            {
                "address": "0x0000000000000000000000000000000000000002",
                "label": "Precompiled"
            },
            {
                "address": "0x0000000000000000000000000000000000000003",
                "label": "Precompiled"
            },
            {
                "address": "0x0000000000000000000000000000000000000004",
                "label": "Precompiled"
            },
            {
                "address": "0xeeeeeeeeeeeeeeeeeeeeeeeeeeeeeeeeeeeeeeee",
                "label": "Ether"
            }
        ]
    },
    "trace": {
        "accountLabels": null,
        "dataMap": {
            "-1": {
                "invocation": {
                    "address": "0xefffcd651a8746bfc5a7d43195ef2e71a49d673c",
                    "callData": "",
                    "decodedMethod": null,
                    "errorInfo": "",
                    "fromAddress": "",
                    "gasUsed": 0,
                    "id": -1,
                    "methodDecoded": false,
                    "operation": "",
                    "output": "",
                    "revert": false,
                    "revertMessage": "",
                    "selector": "",
                    "status": false,
                    "value": ""
                },
                "nodeType": 0
            },
            "0": {
                "invocation": {
                    "address": "0xdac17f958d2ee523a2206206994597c13d831ec7",
                    "callData": "0x0000000000000000000000006b6614d208788ec846a6825ff08d75763ff38a820000000000000000000000000000000000000000000000000000000008116e00",
                    "decodedMethod": {
                        "callParams": [
                            {
                                "name": "_to",
                                "type": "address",
                                "value": "0x6b6614d208788ec846a6825ff08d75763ff38a82"
                            },
                            {
                                "decimalAvailable": true,
                                "name": "_value",
                                "type": "uint256",
                                "value": "135,360,000"
                            }
                        ],
                        "constructorArguments": "",
                        "name": "transfer",
                        "returnParams": [],
                        "signature": "transfer(address,uint256)"
                    },
                    "errorInfo": "",
                    "fromAddress": "0xefffcd651a8746bfc5a7d43195ef2e71a49d673c",
                    "gasUsed": 26197,
                    "id": 0,
                    "methodDecoded": true,
                    "operation": "CALL",
                    "output": "",
                    "revert": false,
                    "revertMessage": "",
                    "selector": "0xa9059cbb",
                    "status": true,
                    "value": "0"
                },
                "nodeType": 0
            },
            "1": {
                "event": {
                    "contract": "0xdac17f958d2ee523a2206206994597c13d831ec7",
                    "decodedLog": {
                        "name": "Transfer",
                        "params": [
                            {
                                "name": "from",
                                "type": "address",
                                "value": "0xefffcd651a8746bfc5a7d43195ef2e71a49d673c"
                            },
                            {
                                "name": "to",
                                "type": "address",
                                "value": "0x6b6614d208788ec846a6825ff08d75763ff38a82"
                            },
                            {
                                "decimalAvailable": true,
                                "name": "value",
                                "type": "uint256",
                                "value": "135,360,000"
                            }
                        ],
                        "signature": "Transfer(address,address,uint256)"
                    },
                    "id": 1,
                    "logData": "0x0000000000000000000000000000000000000000000000000000000008116e00",
                    "logDecoded": true,
                    "operation": "EVENT",
                    "revert": false,
                    "status": true,
                    "topics": [
                        "0xddf252ad1be2c89b69c2b068fc378daa952ba7f163c4a11628f55a4df523b3ef",
                        "0x000000000000000000000000efffcd651a8746bfc5a7d43195ef2e71a49d673c",
                        "0x0000000000000000000000006b6614d208788ec846a6825ff08d75763ff38a82"
                    ]
                },
                "nodeType": 1
            }
        },
        "gasFlame": [
            {
                "children": [
                    {
                        "children": [
                            {
                                "children": [],
                                "depth": 0,
                                "name": "Initial Gas",
                                "value": 21596
                            },
                            {
                                "children": [],
                                "depth": 0,
                                "name": "Executed Gas",
                                "value": 19601
                            }
                        ],
                        "depth": -1,
                        "name": "Actual Gas Used",
                        "value": 26197
                    },
                    {
                        "children": [],
                        "depth": -1,
                        "name": "Refunded Gas",
                        "value": 15000
                    }
                ],
                "depth": -2,
                "name": "Total Gas",
                "value": 41197
            }
        ],
        "isConfirmed": true,
        "mainTrace": [
            {
                "children": [
                    {
                        "children": [
                            {
                                "children": [],
                                "depth": 1,
                                "id": 1,
                                "order": 1
                            }
                        ],
                        "depth": 0,
                        "id": 0,
                        "order": 0
                    }
                ],
                "depth": -1,
                "id": -1,
                "order": -1
            }
        ],
        "mainTraceNodeCount": 2,
        "parentIdMap": {
            "0": -1,
            "1": 0
        },
        "tidyTrace": [
            {
                "children": [
                    {
                        "children": [
                            {
                                "children": [],
                                "depth": 1,
                                "id": 1,
                                "order": 1
                            }
                        ],
                        "depth": 0,
                        "id": 0,
                        "order": 0
                    }
                ],
                "depth": -1,
                "id": -1,
                "order": -1
            }
        ],
        "tidyTraceNodeCount": 2
    },
    "state_change": {
        "stateChanges": [
            {
                "address": "0xdac17f958d2ee523a2206206994597c13d831ec7",
                "erc": "ERC-20",
                "slots": [
                    {
                        "current": "0x0000000000000000000000000000000000000000000000000000000000000000",
                        "key": "0x27a85a05e201d251572b544155d8faf1ac9bd6ded7c236deccd25c5aad7cd410",
                        "prev": "0x0000000000000000000000000000000000000000000000000000000008116e00"
                    },
                    {
                        "current": "0x0000000000000000000000000000000000000000000000000000004404a51cf6",
                        "key": "0x44e89cdefc79e0ebdb2edc0d8fb292faae8fe20593495216a52ef15cd886002d",
                        "prev": "0x00000000000000000000000000000000000000000000000000000043fc93aef6"
                    }
                ],
                "storageVariables": [
                    {
                        "name": "balances",
                        "type": "mapping(address => uint256)",
                        "value": {
                            "pairs": [
                                {
                                    "key": "0x6b6614d208788ec846a6825ff08d75763ff38a82",
                                    "value": {
                                        "current": "292135705846",
                                        "prev": "292000345846",
                                        "typeTag": 1
                                    }
                                },
                                {
                                    "key": "0xefffcd651a8746bfc5a7d43195ef2e71a49d673c",
                                    "value": {
                                        "current": "0",
                                        "prev": "135360000",
                                        "typeTag": 1
                                    }
                                }
                            ],
                            "typeTag": 4
                        }
                    }
                ]
            }
        ]
    }
}