{
    "balance_change": {
        "balanceChanges": [
            {
                "account": "0x0cfc9e76f4fa064497dff1e4885d7362402681e6",
                "assets": [
                    {
                        "address": "0xeeeeeeeeeeeeeeeeeeeeeeeeeeeeeeeeeeeeeeee",
                        "amount": "0.2",
                        "iconUrl": "https://assets.blocksec.com/image/1663669189317-3.png",
                        "isERC1155": false,
                        "isERC721": false,
                        "sign": false,
                        "value": ""
                    },
                    {
                        "address": "0xfd71def6ed41990b403d08714b1c8fb34d8d50ac",
                        "amount": "2,959,549,412.771269546189609006",
                        "iconUrl": "",
                        "isERC1155": false,
                        "isERC721": false,
                        "sign": true,
                        "value": "284.6249728"
                    }
                ]
            },
            {
                "account": "0xa2bdf890e70d3468df5efb50d1c1117cd937e6e5",
                "assets": [
                    {
                        "address": "0xeeeeeeeeeeeeeeeeeeeeeeeeeeeeeeeeeeeeeeee",
                        "amount": "0.002",
                        "iconUrl": "https://assets.blocksec.com/image/1663669189317-3.png",
                        "isERC1155": false,
                        "isERC721": false,
                        "sign": true,
                        "value": ""
                    }
                ]
            },
            {
                "account": "0xbda65aac79b3c48f8336bf3289d9c38cd037a0a7",
                "assets": [
                    {
                        "address": "0xc02aaa39b223fe8d0a0e5c4f27ead9083c756cc2",
                        "amount": "0.198",
                        "iconUrl": "https://assets.blocksec.com/icon/f1cb2d02c471d545bbc7722daf3277fd852d98e63d118771af7047bd8256c516.png",
                        "isERC1155": false,
                        "isERC721": false,
                        "sign": true,
                        "value": "308.6083938"
                    },
                    {
                        "address": "0xfd71def6ed41990b403d08714b1c8fb34d8d50ac",
                        "amount": "2,989,443,851.284110652716776773",
                        "iconUrl": "",
                        "isERC1155": false,
                        "isERC721": false,
                        "sign": false,
                        "value": "270.0027266"
                    }
                ]
            },
            {
                "account": "0xc02aaa39b223fe8d0a0e5c4f27ead9083c756cc2",
                "assets": [
                    {
                        "address": "0xeeeeeeeeeeeeeeeeeeeeeeeeeeeeeeeeeeeeeeee",
                        "amount": "0.198",
                        "iconUrl": "https://assets.blocksec.com/image/1663669189317-3.png",
                        "isERC1155": false,
                        "isERC721": false,
                        "sign": true,
                        "value": ""
                    },
                    {
                        "address": "0xc02aaa39b223fe8d0a0e5c4f27ead9083c756cc2",
                        "amount": "0.198",
                        "iconUrl": "https://assets.blocksec.com/icon/f1cb2d02c471d545bbc7722daf3277fd852d98e63d118771af7047bd8256c516.png",
                        "isERC1155": false,
                        "isERC721": false,
                        "sign": false,
                        "value": "308.6083938"
                    }
                ]
            },
            {
                "account": "0xfd71def6ed41990b403d08714b1c8fb34d8d50ac",
                "assets": [
                    {
                        "address": "0xfd71def6ed41990b403d08714b1c8fb34d8d50ac",
                        "amount": "29,894,438.512841106527167767",
                        "iconUrl": "",
                        "isERC1155": false,
                        "isERC721": false,
                        "sign": true,
                        "value": "2.61653655"
                    }
                ]
            }
        ]
    },
    "profile": {
        "basic_info": {
            "baseFee": "8.992736655",
            "blockNumber": 15417042,
            "callData": "0x7ff36ab500000000000000000000000000000000000000000875a062cb84f1cda6d2685000000000000000000000000000000000000000000000000000000000000000800000000000000000000000000cfc9e76f4fa064497dff1e4885d7362402681e60000000000000000000000000000000000000000000000000000000063091e210000000000000000000000000000000000000000000000000000000000000002000000000000000000000000c02aaa39b223fe8d0a0e5c4f27ead9083c756cc2000000000000000000000000fd71def6ed41990b403d08714b1c8fb34d8d50ac",
            "debugEnable": true,
            "errorInfo": "",
            "eventCount": 6,
            "feeRecipient": "0xea674fdde714fd979de3edf0f56aa9716b898ec8",
            "formatValue": "0.2",
            "gasLimit": 190478,
            "gasPrice": "15",
            "gasUsed": 136032,
            "intTxnCount": 8,
            "internalRevert": false,
            "internalRevertMessage": "",
            "isContractCreation": false,
            "isFlashloan": false,
            "maxFee": "15",
            "nonce": 37,
            "overwritedBlockNumber": -1,
            "priorityFee": "7",
            "receiver": "0x25553828f22bdd19a20e4f12f052903cb474a335",
            "revertMessage": "",
            "sender": "0x0cfc9e76f4fa064497dff1e4885d7362402681e6",
            "simulationEnable": true,
            "sourceTxnHash": "0xe054d2209ba9594a0f730082cd7937eb0da6beafb5fbcb205babd1e8eea87a47",
            "status": true,
            "timestamp": "2022-08-26T18:56:30Z",
            "transactionFee": "0.00204048",
            "txnHash": "0xe054d2209ba9594a0f730082cd7937eb0da6beafb5fbcb205babd1e8eea87a47",
            "txnIndex": 32,
            "type": 2,
            "value": "200000000000000000"
        },
        "fund_flow": [
            {
                "amount": "0.2",
                "from": "0x0cfc9e76f4fa064497dff1e4885d7362402681e6",
                "id": 1,
                "isERC1155": false,
                "isERC721": false,
                "isReverted": false,
                "order": 1,
                "to": "0x25553828f22bdd19a20e4f12f052903cb474a335",
                "token": "0xeeeeeeeeeeeeeeeeeeeeeeeeeeeeeeeeeeeeeeee"
            },
            {
                "amount": "0.198",
                "from": "0x25553828f22bdd19a20e4f12f052903cb474a335",
                "id": 2,
                "isERC1155": false,
                "isERC721": false,
                "isReverted": false,
                "order": 2,
                "to": "0xc02aaa39b223fe8d0a0e5c4f27ead9083c756cc2",
                "token": "0xeeeeeeeeeeeeeeeeeeeeeeeeeeeeeeeeeeeeeeee"
            },
            {
                "amount": "0.198",
                "from": "0xc02aaa39b223fe8d0a0e5c4f27ead9083c756cc2",
                "id": 3,
                "isERC1155": false,
                "isERC721": false,
                "isReverted": false,
                "order": 3,
                "to": "0x25553828f22bdd19a20e4f12f052903cb474a335",
                "token": "0xc02aaa39b223fe8d0a0e5c4f27ead9083c756cc2"
            },
            {
                "amount": "0.198",
                "from": "0x25553828f22bdd19a20e4f12f052903cb474a335",
                "id": 4,
                "isERC1155": false,
                "isERC721": false,
                "isReverted": false,
                "order": 4,
                "to": "0xbda65aac79b3c48f8336bf3289d9c38cd037a0a7",
                "token": "0xc02aaa39b223fe8d0a0e5c4f27ead9083c756cc2"
            },
            {
                "amount": "29,894,438.512841106527167767",
                "from": "0xbda65aac79b3c48f8336bf3289d9c38cd037a0a7",
                "id": 5,
                "isERC1155": false,
                "isERC721": false,
                "isReverted": false,
                "order": 5,
                "to": "0xfd71def6ed41990b403d08714b1c8fb34d8d50ac",
                "token": "0xfd71def6ed41990b403d08714b1c8fb34d8d50ac"
            },
            {
                "amount": "2,959,549,412.771269546189609006",
                "from": "0xbda65aac79b3c48f8336bf3289d9c38cd037a0a7",
                "id": 6,
                "isERC1155": false,
                "isERC721": false,
                "isReverted": false,
                "order": 6,
                "to": "0x0cfc9e76f4fa064497dff1e4885d7362402681e6",
                "token": "0xfd71def6ed41990b403d08714b1c8fb34d8d50ac"
            },
            {
                "amount": "0.002",
                "from": "0x25553828f22bdd19a20e4f12f052903cb474a335",
                "id": 7,
                "isERC1155": false,
                "isERC721": false,
                "isReverted": false,
                "order": 7,
                "to": "0xa2bdf890e70d3468df5efb50d1c1117cd937e6e5",
                "token": "0xeeeeeeeeeeeeeeeeeeeeeeeeeeeeeeeeeeeeeeee"
            }
        ],
        "token_infos": [
            {
                "address": "0xc02aaa39b223fe8d0a0e5c4f27ead9083c756cc2",
                "decimals": 18
            },
            {
                "address": "0xfd71def6ed41990b403d08714b1c8fb34d8d50ac",
                "decimals": 18
            },
            {
                "address": "0xeeeeeeeeeeeeeeeeeeeeeeeeeeeeeeeeeeeeeeee",
                "decimals": 18
            }
        ]
    },
    "address_label": {
        "labels": [
            {
                "address": "0xbda65aac79b3c48f8336bf3289d9c38cd037a0a7",
                "label": "Uniswap V2: SURVIVOR"
            },
            {
                "address": "0xc02aaa39b223fe8d0a0e5c4f27ead9083c756cc2",
                "label": "Wrapped Ether (WETH)"
            },
            {
                "address": "0xfd71def6ed41990b403d08714b1c8fb34d8d50ac",
                "label": "SURVIVOR"
            },
            {
                "address": "0x0000000000000000000000000000000000000001",
                "label": "Precompiled"
            },
            {
                "address": "0x0000000000000000000000000000000000000002",
                "label": "Precompiled"
            },
            {
                "address": "0x0000000000000000000000000000000000000003",
                "label": "Precompiled"
            },
            {
                "address": "0x0000000000000000000000000000000000000004",
                "label": "Precompiled"
            },
            {
                "address": "0xeeeeeeeeeeeeeeeeeeeeeeeeeeeeeeeeeeeeeeee",
                "label": "Ether"
            }
        ]
    },
    "trace": {
        "accountLabels": null,
        "dataMap": {
            "-1": {
                "invocation": {
                    "address": "0x0cfc9e76f4fa064497dff1e4885d7362402681e6",
                    "callData": "",
                    "decodedMethod": null,
                    "errorInfo": "",
                    "fromAddress": "",
                    "gasUsed": 0,
                    "id": -1,
                    "methodDecoded": false,
                    "operation": "",
                    "output": "",
                    "revert": false,
                    "revertMessage": "",
                    "selector": "",
                    "status": false,
                    "value": ""
                },
                "nodeType": 0
            },
            "0": {
                "invocation": {
                    "address": "0x25553828f22bdd19a20e4f12f052903cb474a335",
                    "callData": "0x00000000000000000000000000000000000000000875a062cb84f1cda6d2685000000000000000000000000000000000000000000000000000000000000000800000000000000000000000000cfc9e76f4fa064497dff1e4885d7362402681e60000000000000000000000000000000000000000000000000000000063091e210000000000000000000000000000000000000000000000000000000000000002000000000000000000000000c02aaa39b223fe8d0a0e5c4f27ead9083c756cc2000000000000000000000000fd71def6ed41990b403d08714b1c8fb34d8d50ac",
                    "decodedMethod": {
                        "callParams": [
                            {
                                "name": "amountOutMin",
                                "type": "uint256",
                                "value": "2,618,081,800,548,962,682,203,695,184"
                            },
                            {
                                "name": "path",
                                "type": "address[]",
                                "value": [
                                    "0xc02aaa39b223fe8d0a0e5c4f27ead9083c756cc2",
                                    "0xfd71def6ed41990b403d08714b1c8fb34d8d50ac"
                                ]
                            },
                            {
                                "name": "to",
                                "type": "address",
                                "value": "0x0cfc9e76f4fa064497dff1e4885d7362402681e6"
                            },
                            {
                                "name": "deadline",
                                "type": "uint256",
                                "value": "1,661,541,921"
                            }
                        ],
                        "constructorArguments": "",
                        "name": "swapExactETHForTokens",
                        "returnParams": [
                            {
                                "name": "amounts",
                                "type": "uint256[]",
                                "value": [
                                    "198,000,000,000,000,000",
                                    "2,989,443,851,284,110,652,716,776,773"
                                ]
                            }
                        ],
                        "signature": "swapExactETHForTokens(uint256,address[],address,uint256)"
                    },
                    "errorInfo": "",
                    "fromAddress": "0x0cfc9e76f4fa064497dff1e4885d7362402681e6",
                    "gasUsed": 136032,
                    "id": 0,
                    "methodDecoded": true,
                    "operation": "CALL",
                    "output": "0x0000000000000000000000000000000000000000000000000000000000000020000000000000000000000000000000000000000000000000000000000000000200000000000000000000000000000000000000000000000002bf6ff371870000000000000000000000000000000000000000000009a8cf5be77f1c40a1627d45",
                    "revert": false,
                    "revertMessage": "",
                    "selector": "0x7ff36ab5",
                    "status": true,
                    "value": "0.2"
                },
                "nodeType": 0
            },
            "1": {
                "invocation": {
                    "address": "0xbda65aac79b3c48f8336bf3289d9c38cd037a0a7",
                    "callData": "0x",
                    "decodedMethod": {
                        "callParams": [],
                        "constructorArguments": "",
                        "name": "getReserves",
                        "returnParams": [
                            {
                                "name": "_reserve0",
                                "type": "uint112",
                                "value": "5,855,398,830,073,985,561"
                            },
                            {
                                "name": "_reserve1",
                                "type": "uint112",
                                "value": "91,661,449,916,858,871,267,508,660,198"
                            },
                            {
                                "name": "_blockTimestampLast",
                                "type": "uint32",
                                "value": "1,661,540,174"
                            }
                        ],
                        "signature": "getReserves()"
                    },
                    "errorInfo": "",
                    "fromAddress": "0x25553828f22bdd19a20e4f12f052903cb474a335",
                    "gasUsed": 2504,
                    "id": 1,
                    "methodDecoded": true,
                    "operation": "STATICCALL",
                    "output": "0x00000000000000000000000000000000000000000000000051428e3674cc3a190000000000000000000000000000000000000001282c9304a6c78cf39d14a7e6000000000000000000000000000000000000000000000000000000006309174e",
                    "revert": false,
                    "revertMessage": "",
                    "selector": "0x0902f1ac",
                    "status": true,
                    "value": "0"
                },
                "nodeType": 0
            },
            "10": {
                "invocation": {
                    "address": "0xc02aaa39b223fe8d0a0e5c4f27ead9083c756cc2",
                    "callData": "0x000000000000000000000000bda65aac79b3c48f8336bf3289d9c38cd037a0a7",
                    "decodedMethod": {
                        "callParams": [
                            {
                                "name": "",
                                "type": "address",
                                "value": "0xbda65aac79b3c48f8336bf3289d9c38cd037a0a7"
                            }
                        ],
                        "constructorArguments": "",
                        "name": "balanceOf",
                        "returnParams": [
                            {
                                "decimalAvailable": true,
                                "name": "",
                                "type": "uint256",
                                "value": "6,053,398,830,073,985,561"
                            }
                        ],
                        "signature": "balanceOf(address)"
                    },
                    "errorInfo": "",
                    "fromAddress": "0xbda65aac79b3c48f8336bf3289d9c38cd037a0a7",
                    "gasUsed": 534,
                    "id": 10,
                    "methodDecoded": true,
                    "operation": "STATICCALL",
                    "output": "0x0000000000000000000000000000000000000000000000005401fe29e6533a19",
                    "revert": false,
                    "revertMessage": "",
                    "selector": "0x70a08231",
                    "status": true,
                    "value": "0"
                },
                "nodeType": 0
            },
            "11": {
                "invocation": {
                    "address": "0xfd71def6ed41990b403d08714b1c8fb34d8d50ac",
                    "callData": "0x000000000000000000000000bda65aac79b3c48f8336bf3289d9c38cd037a0a7",
                    "decodedMethod": {
                        "callParams": [
                            {
                                "name": "account",
                                "type": "address",
                                "value": "0xbda65aac79b3c48f8336bf3289d9c38cd037a0a7"
                            }
                        ],
                        "constructorArguments": "",
                        "name": "balanceOf",
                        "returnParams": [
                            {
                                "decimalAvailable": true,
                                "name": "",
                                "type": "uint256",
                                "value": "88,672,006,065,574,760,614,791,883,425"
                            }
                        ],
                        "signature": "balanceOf(address)"
                    },
                    "errorInfo": "",
                    "fromAddress": "0xbda65aac79b3c48f8336bf3289d9c38cd037a0a7",
                    "gasUsed": 952,
                    "id": 11,
                    "methodDecoded": true,
                    "operation": "STATICCALL",
                    "output": "0x00000000000000000000000000000000000000011e83c3a8bf4870b2fbb22aa1",
                    "revert": false,
                    "revertMessage": "",
                    "selector": "0x70a08231",
                    "status": true,
                    "value": "0"
                },
                "nodeType": 0
            },
            "12": {
                "event": {
                    "contract": "0xbda65aac79b3c48f8336bf3289d9c38cd037a0a7",
                    "decodedLog": {
                        "name": "Sync",
                        "params": [
                            {
                                "name": "reserve0",
                                "type": "uint112",
                                "value": "6,053,398,830,073,985,561"
                            },
                            {
                                "name": "reserve1",
                                "type": "uint112",
                                "value": "88,672,006,065,574,760,614,791,883,425"
                            }
                        ],
                        "signature": "Sync(uint112,uint112)"
                    },
                    "id": 12,
                    "logData": "0x0000000000000000000000000000000000000000000000005401fe29e6533a1900000000000000000000000000000000000000011e83c3a8bf4870b2fbb22aa1",
                    "logDecoded": true,
                    "operation": "EVENT",
                    "revert": false,
                    "status": true,
                    "topics": [
                        "0x1c411e9a96e071241c2f21f7726b17ae89e3cab4c78be50e062b03a9fffbbad1"
                    ]
                },
                "nodeType": 1
            },
            "13": {
                "event": {
                    "contract": "0xbda65aac79b3c48f8336bf3289d9c38cd037a0a7",
                    "decodedLog": {
                        "name": "Swap",
                        "params": [
                            {
                                "name": "sender",
                                "type": "address",
                                "value": "0x25553828f22bdd19a20e4f12f052903cb474a335"
                            },
                            {
                                "name": "to",
                                "type": "address",
                                "value": "0x0cfc9e76f4fa064497dff1e4885d7362402681e6"
                            },
                            {
                                "name": "amount0In",
                                "type": "uint256",
                                "value": "198,000,000,000,000,000"
                            },
                            {
                                "name": "amount1In",
                                "type": "uint256",
                                "value": "0"
                            },
                            {
                                "name": "amount0Out",
                                "type": "uint256",
                                "value": "0"
                            },
                            {
                                "name": "amount1Out",
                                "type": "uint256",
                                "value": "2,989,443,851,284,110,652,716,776,773"
                            }
                        ],
                        "signature": "Swap(address,uint256,uint256,uint256,uint256,address)"
                    },
                    "id": 13,
                    "logData": "0x00000000000000000000000000000000000000000000000002bf6ff37187000000000000000000000000000000000000000000000000000000000000000000000000000000000000000000000000000000000000000000000000000000000000000000000000000000000000000000000000000009a8cf5be77f1c40a1627d45",
                    "logDecoded": true,
                    "operation": "EVENT",
                    "revert": false,
                    "status": true,
                    "topics": [
                        "0xd78ad95fa46c994b6551d0da85fc275fe613ce37657fb8d5e3d130840159d822",
                        "0x00000000000000000000000025553828f22bdd19a20e4f12f052903cb474a335",
                        "0x0000000000000000000000000cfc9e76f4fa064497dff1e4885d7362402681e6"
                    ]
                },
                "nodeType": 1
            },
            "14": {
                "invocation": {
                    "address": "0xa2bdf890e70d3468df5efb50d1c1117cd937e6e5",
                    "callData": "0x",
                    "decodedMethod": null,
                    "errorInfo": "",
                    "fromAddress": "0x25553828f22bdd19a20e4f12f052903cb474a335",
                    "gasUsed": 0,
                    "id": 14,
                    "methodDecoded": false,
                    "operation": "CALL",
                    "output": "",
                    "revert": false,
                    "revertMessage": "",
                    "selector": "fallback",
                    "status": true,
                    "value": "0.002"
                },
                "nodeType": 0
            },
            "2": {
                "invocation": {
                    "address": "0xc02aaa39b223fe8d0a0e5c4f27ead9083c756cc2",
                    "callData": "0x",
                    "decodedMethod": {
                        "callParams": [],
                        "constructorArguments": "",
                        "name": "deposit",
                        "returnParams": [],
                        "signature": "deposit()"
                    },
                    "errorInfo": "",
                    "fromAddress": "0x25553828f22bdd19a20e4f12f052903cb474a335",
                    "gasUsed": 23974,
                    "id": 2,
                    "methodDecoded": true,
                    "operation": "CALL",
                    "output": "",
                    "revert": false,
                    "revertMessage": "",
                    "selector": "0xd0e30db0",
                    "status": true,
                    "value": "0.198"
                },
                "nodeType": 0
            },
            "3": {
                "event": {
                    "contract": "0xc02aaa39b223fe8d0a0e5c4f27ead9083c756cc2",
                    "decodedLog": {
                        "name": "Deposit",
                        "params": [
                            {
                                "name": "dst",
                                "type": "address",
                                "value": "0x25553828f22bdd19a20e4f12f052903cb474a335"
                            },
                            {
                                "name": "wad",
                                "type": "uint256",
                                "value": "198,000,000,000,000,000"
                            }
                        ],
                        "signature": "Deposit(address,uint256)"
                    },
                    "id": 3,
                    "logData": "0x00000000000000000000000000000000000000000000000002bf6ff371870000",
                    "logDecoded": true,
                    "operation": "EVENT",
                    "revert": false,
                    "status": true,
                    "topics": [
                        "0xe1fffcc4923d04b559f4d29a8bfc6cda04eb5b0d3c460751c2402c5c5cc9109c",
                        "0x00000000000000000000000025553828f22bdd19a20e4f12f052903cb474a335"
                    ]
                },
                "nodeType": 1
            },
            "4": {
                "invocation": {
                    "address": "0xc02aaa39b223fe8d0a0e5c4f27ead9083c756cc2",
                    "callData": "0x000000000000000000000000bda65aac79b3c48f8336bf3289d9c38cd037a0a700000000000000000000000000000000000000000000000002bf6ff371870000",
                    "decodedMethod": {
                        "callParams": [
                            {
                                "name": "dst",
                                "type": "address",
                                "value": "0xbda65aac79b3c48f8336bf3289d9c38cd037a0a7"
                            },
                            {
                                "decimalAvailable": true,
                                "name": "wad",
                                "type": "uint256",
                                "value": "198,000,000,000,000,000"
                            }
                        ],
                        "constructorArguments": "",
                        "name": "transfer",
                        "returnParams": [
                            {
                                "name": "",
                                "type": "bool",
                                "value": true
                            }
                        ],
                        "signature": "transfer(address,uint256)"
                    },
                    "errorInfo": "",
                    "fromAddress": "0x25553828f22bdd19a20e4f12f052903cb474a335",
                    "gasUsed": 8062,
                    "id": 4,
                    "methodDecoded": true,
                    "operation": "CALL",
                    "output": "0x0000000000000000000000000000000000000000000000000000000000000001",
                    "revert": false,
                    "revertMessage": "",
                    "selector": "0xa9059cbb",
                    "status": true,
                    "value": "0"
                },
                "nodeType": 0
            },
            "5": {
                "event": {
                    "contract": "0xc02aaa39b223fe8d0a0e5c4f27ead9083c756cc2",
                    "decodedLog": {
                        "name": "Transfer",
                        "params": [
                            {
                                "name": "src",
                                "type": "address",
                                "value": "0x25553828f22bdd19a20e4f12f052903cb474a335"
                            },
                            {
                                "name": "dst",
                                "type": "address",
                                "value": "0xbda65aac79b3c48f8336bf3289d9c38cd037a0a7"
                            },
                            {
                                "decimalAvailable": true,
                                "name": "wad",
                                "type": "uint256",
                                "value": "198,000,000,000,000,000"
                            }
                        ],
                        "signature": "Transfer(address,address,uint256)"
                    },
                    "id": 5,
                    "logData": "0x00000000000000000000000000000000000000000000000002bf6ff371870000",
                    "logDecoded": true,
                    "operation": "EVENT",
                    "revert": false,
                    "status": true,
                    "topics": [
                        "0xddf252ad1be2c89b69c2b068fc378daa952ba7f163c4a11628f55a4df523b3ef",
                        "0x00000000000000000000000025553828f22bdd19a20e4f12f052903cb474a335",
                        "0x000000000000000000000000bda65aac79b3c48f8336bf3289d9c38cd037a0a7"
                    ]
                },
                "nodeType": 1
            },
            "6": {
                "invocation": {
                    "address": "0xbda65aac79b3c48f8336bf3289d9c38cd037a0a7",
                    "callData": "0x0000000000000000000000000000000000000000000000000000000000000000000000000000000000000000000000000000000009a8cf5be77f1c40a1627d450000000000000000000000000cfc9e76f4fa064497dff1e4885d7362402681e600000000000000000000000000000000000000000000000000000000000000800000000000000000000000000000000000000000000000000000000000000000",
                    "decodedMethod": {
                        "callParams": [
                            {
                                "name": "amount0Out",
                                "type": "uint256",
                                "value": "0"
                            },
                            {
                                "name": "amount1Out",
                                "type": "uint256",
                                "value": "2,989,443,851,284,110,652,716,776,773"
                            },
                            {
                                "name": "to",
                                "type": "address",
                                "value": "0x0cfc9e76f4fa064497dff1e4885d7362402681e6"
                            },
                            {
                                "name": "data",
                                "type": "bytes",
                                "value": "0x"
                            }
                        ],
                        "constructorArguments": "",
                        "name": "swap",
                        "returnParams": [],
                        "signature": "swap(uint256,uint256,address,bytes)"
                    },
                    "errorInfo": "",
                    "fromAddress": "0x25553828f22bdd19a20e4f12f052903cb474a335",
                    "gasUsed": 64060,
                    "id": 6,
                    "methodDecoded": true,
                    "operation": "CALL",
                    "output": "",
                    "revert": false,
                    "revertMessage": "",
                    "selector": "0x022c0d9f",
                    "status": true,
                    "value": "0"
                },
                "nodeType": 0
            },
            "7": {
                "invocation": {
                    "address": "0xfd71def6ed41990b403d08714b1c8fb34d8d50ac",
                    "callData": "0x0000000000000000000000000cfc9e76f4fa064497dff1e4885d7362402681e6000000000000000000000000000000000000000009a8cf5be77f1c40a1627d45",
                    "decodedMethod": {
                        "callParams": [
                            {
                                "name": "to",
                                "type": "address",
                                "value": "0x0cfc9e76f4fa064497dff1e4885d7362402681e6"
                            },
                            {
                                "decimalAvailable": true,
                                "name": "amount",
                                "type": "uint256",
                                "value": "2,989,443,851,284,110,652,716,776,773"
                            }
                        ],
                        "constructorArguments": "",
                        "name": "transfer",
                        "returnParams": [
                            {
                                "name": "",
                                "type": "bool",
                                "value": true
                            }
                        ],
                        "signature": "transfer(address,uint256)"
                    },
                    "errorInfo": "",
                    "fromAddress": "0xbda65aac79b3c48f8336bf3289d9c38cd037a0a7",
                    "gasUsed": 28751,
                    "id": 7,
                    "methodDecoded": true,
                    "operation": "CALL",
                    "output": "0x0000000000000000000000000000000000000000000000000000000000000001",
                    "revert": false,
                    "revertMessage": "",
                    "selector": "0xa9059cbb",
                    "status": true,
                    "value": "0"
                },
                "nodeType": 0
            },
            "8": {
                "event": {
                    "contract": "0xfd71def6ed41990b403d08714b1c8fb34d8d50ac",
                    "decodedLog": {
                        "name": "Transfer",
                        "params": [
                            {
                                "name": "from",
                                "type": "address",
                                "value": "0xbda65aac79b3c48f8336bf3289d9c38cd037a0a7"
                            },
                            {
                                "name": "to",
                                "type": "address",
                                "value": "0xfd71def6ed41990b403d08714b1c8fb34d8d50ac"
                            },
                            {
                                "decimalAvailable": true,
                                "name": "value",
                                "type": "uint256",
                                "value": "29,894,438,512,841,106,527,167,767"
                            }
                        ],
                        "signature": "Transfer(address,address,uint256)"
                    },
                    "id": 8,
                    "logData": "0x00000000000000000000000000000000000000000018ba64c250a190019d2517",
                    "logDecoded": true,
                    "operation": "EVENT",
                    "revert": false,
                    "status": true,
                    "topics": [
                        "0xddf252ad1be2c89b69c2b068fc378daa952ba7f163c4a11628f55a4df523b3ef",
                        "0x000000000000000000000000bda65aac79b3c48f8336bf3289d9c38cd037a0a7",
                        "0x000000000000000000000000fd71def6ed41990b403d08714b1c8fb34d8d50ac"
                    ]
                },
                "nodeType": 1
            },
            "9": {
                "event": {
                    "contract": "0xfd71def6ed41990b403d08714b1c8fb34d8d50ac",
                    "decodedLog": {
                        "name": "Transfer",
                        "params": [
                            {
                                "name": "from",
                                "type": "address",
                                "value": "0xbda65aac79b3c48f8336bf3289d9c38cd037a0a7"
                            },
                            {
                                "name": "to",
                                "type": "address",
                                "value": "0x0cfc9e76f4fa064497dff1e4885d7362402681e6"
                            },
                            {
                                "decimalAvailable": true,
                                "name": "value",
                                "type": "uint256",
                                "value": "2,959,549,412,771,269,546,189,609,006"
                            }
                        ],
                        "signature": "Transfer(address,address,uint256)"
                    },
                    "id": 9,
                    "logData": "0x0000000000000000000000000000000000000000099014f7252e7ab09fc5582e",
                    "logDecoded": true,
                    "operation": "EVENT",
                    "revert": false,
                    "status": true,
                    "topics": [
                        "0xddf252ad1be2c89b69c2b068fc378daa952ba7f163c4a11628f55a4df523b3ef",
                        "0x000000000000000000000000bda65aac79b3c48f8336bf3289d9c38cd037a0a7",
                        "0x0000000000000000000000000cfc9e76f4fa064497dff1e4885d7362402681e6"
                    ]
                },
                "nodeType": 1
            }
        },
        "gasFlame": [
            {
                "children": [
                    {
                        "children": [
                            {
                                "children": [],
                                "depth": 0,
                                "name": "Initial Gas",
                                "value": 22896
                            },
                            {
                                "children": [
                                    {
                                        "children": [],
                                        "depth": 1,
                                        "name": "getReserves",
                                        "value": 2504
                                    },
                                    {
                                        "children": [],
                                        "depth": 1,
                                        "name": "deposit",
                                        "value": 23974
                                    },
                                    {
                                        "children": [],
                                        "depth": 1,
                                        "name": "transfer",
                                        "value": 8062
                                    },
                                    {
                                        "children": [
                                            {
                                                "children": [],
                                                "depth": 2,
                                                "name": "transfer",
                                                "value": 28751
                                            },
                                            {
                                                "children": [],
                                                "depth": 2,
                                                "name": "balanceOf",
                                                "value": 534
                                            },
                                            {
                                                "children": [],
                                                "depth": 2,
                                                "name": "balanceOf",
                                                "value": 952
                                            }
                                        ],
                                        "depth": 1,
                                        "name": "swap",
                                        "value": 64060
                                    },
                                    {
                                        "children": [],
                                        "depth": 1,
                                        "name": "fallback",
                                        "value": 0
                                    }
                                ],
                                "depth": 0,
                                "name": "Executed Gas",
                                "value": 135836
                            }
                        ],
                        "depth": -1,
                        "name": "Actual Gas Used",
                        "value": 136032
                    },
                    {
                        "children": [],
                        "depth": -1,
                        "name": "Refunded Gas",
                        "value": 22700
                    }
                ],
                "depth": -2,
                "name": "Total Gas",
                "value": 158732
            }
        ],
        "isConfirmed": true,
        "mainTrace": [
            {
                "children": [
                    {
                        "children": [
                            {
                                "children": [],
                                "depth": 1,
                                "id": 1,
                                "order": 1
                            },
                            {
                                "children": [
                                    {
                                        "children": [],
                                        "depth": 2,
                                        "id": 3,
                                        "order": 3
                                    }
                                ],
                                "depth": 1,
                                "id": 2,
                                "order": 2
                            },
                            {
                                "children": [
                                    {
                                        "children": [],
                                        "depth": 2,
                                        "id": 5,
                                        "order": 5
                                    }
                                ],
                                "depth": 1,
                                "id": 4,
                                "order": 4
                            },
                            {
                                "children": [
                                    {
                                        "children": [
                                            {
                                                "children": [],
                                                "depth": 3,
                                                "id": 8,
                                                "order": 8
                                            },
                                            {
                                                "children": [],
                                                "depth": 3,
                                                "id": 9,
                                                "order": 9
                                            }
                                        ],
                                        "depth": 2,
                                        "id": 7,
                                        "order": 7
                                    },
                                    {
                                        "children": [],
                                        "depth": 2,
                                        "id": 10,
                                        "order": 10
                                    },
                                    {
                                        "children": [],
                                        "depth": 2,
                                        "id": 11,
                                        "order": 11
                                    },
                                    {
                                        "children": [],
                                        "depth": 2,
                                        "id": 12,
                                        "order": 12
                                    },
                                    {
                                        "children": [],
                                        "depth": 2,
                                        "id": 13,
                                        "order": 13
                                    }
                                ],
                                "depth": 1,
                                "id": 6,
                                "order": 6
                            },
                            {
                                "children": [],
                                "depth": 1,
                                "id": 14,
                                "order": 14
                            }
                        ],
                        "depth": 0,
                        "id": 0,
                        "order": 0
                    }
                ],
                "depth": -1,
                "id": -1,
                "order": -1
            }
        ],
        "mainTraceNodeCount": 15,
        "parentIdMap": {
            "0": -1,
            "1": 0,
            "10": 6,
            "11": 6,
            "12": 6,
            "13": 6,
            "14": 0,
            "2": 0,
            "3": 2,
            "4": 0,
            "5": 4,
            "6": 0,
            "7": 6,
            "8": 7,
            "9": 7
        },
        "tidyTrace": [
            {
                "children": [
                    {
                        "children": [
                            {
                                "children": [
                                    {
                                        "children": [],
                                        "depth": 2,
                                        "id": 3,
                                        "order": 3
                                    }
                                ],
                                "depth": 1,
                                "id": 2,
                                "order": 2
                            },
                            {
                                "children": [
                                    {
                                        "children": [],
                                        "depth": 2,
                                        "id": 5,
                                        "order": 5
                                    }
                                ],
                                "depth": 1,
                                "id": 4,
                                "order": 4
                            },
                            {
                                "children": [
                                    {
                                        "children": [
                                            {
                                                "children": [],
                                                "depth": 3,
                                                "id": 8,
                                                "order": 8
                                            },
                                            {
                                                "children": [],
                                                "depth": 3,
                                                "id": 9,
                                                "order": 9
                                            }
                                        ],
                                        "depth": 2,
                                        "id": 7,
                                        "order": 7
                                    },
                                    {
                                        "children": [],
                                        "depth": 2,
                                        "id": 12,
                                        "order": 12
                                    },
                                    {
                                        "children": [],
                                        "depth": 2,
                                        "id": 13,
                                        "order": 13
                                    }
                                ],
                                "depth": 1,
                                "id": 6,
                                "order": 6
                            },
                            {
                                "children": [],
                                "depth": 1,
                                "id": 14,
                                "order": 14
                            }
                        ],
                        "depth": 0,
                        "id": 0,
                        "order": 0
                    }
                ],
                "depth": -1,
                "id": -1,
                "order": -1
            }
        ],
        "tidyTraceNodeCount": 12
    },
    "state_change": {
        "stateChanges": [
            {
                "address": "0x25553828f22bdd19a20e4f12f052903cb474a335",
                "erc": "",
                "slots": [
                    {
                        "current": "0x0000000000000000000000000000000000000000000001f83139d65a6232b2df",
                        "key": "0x0000000000000000000000000000000000000000000000000000000000000001",
                        "prev": "0x0000000000000000000000000000000000000000000001f82e7a6666f0abb2df"
                    }
                ],
                "storageVariables": []
            },
            {
                "address": "0xbda65aac79b3c48f8336bf3289d9c38cd037a0a7",
                "erc": "ERC-20",
                "slots": [
                    {
                        "current": "0x00000000000000000000000121925ed6633760a9d47bd8fc33a3e6bd40e0fc13",
                        "key": "0x0000000000000000000000000000000000000000000000000000000000000009",
                        "prev": "0x00000000000000000000000121580dd9d24fc625f50a507876b3db12b1a9acd3"
                    },
                    {
                        "current": "0x000000000000000000000000000000000000000012a7a469d1a03a99e0c62568",
                        "key": "0x000000000000000000000000000000000000000000000000000000000000000a",
                        "prev": "0x000000000000000000000000000000000000000012a3409ca9308d9ef8342d28"
                    },
                    {
                        "current": "0x6309175e00011e83c3a8bf4870b2fbb22aa10000000000005401fe29e6533a19",
                        "key": "0x0000000000000000000000000000000000000000000000000000000000000008",
                        "prev": "0x6309174e0001282c9304a6c78cf39d14a7e600000000000051428e3674cc3a19"
                    }
                ],
                "storageVariables": [
                    {
                        "name": "price0CumulativeLast",
                        "type": "uint256",
                        "value": {
                            "current": "1653162503074260308502626806409620727211843714067",
                            "prev": "1651862004926103141557723118981477631011777522899",
                            "typeTag": 1
                        }
                    },
                    {
                        "name": "price1CumulativeLast",
                        "type": "uint256",
                        "value": {
                            "current": "5773397208776310253316089192",
                            "prev": "5768090206719774853707345192",
                            "typeTag": 1
                        }
                    },
                    {
                        "name": "reserve0",
                        "type": "uint112",
                        "value": {
                            "current": "6053398830073985561",
                            "prev": "5855398830073985561",
                            "typeTag": 1
                        }
                    },
                    {
                        "name": "reserve1",
                        "type": "uint112",
                        "value": {
                            "current": "88672006065574760614791883425",
                            "prev": "91661449916858871267508660198",
                            "typeTag": 1
                        }
                    },
                    {
                        "name": "blockTimestampLast",
                        "type": "uint32",
                        "value": {
                            "current": "1661540190",
                            "prev": "1661540174",
                            "typeTag": 1
                        }
                    }
                ]
            },
            {
                "address": "0xc02aaa39b223fe8d0a0e5c4f27ead9083c756cc2",
                "erc": "ERC-20",
                "slots": [
                    {
                        "current": "0x0000000000000000000000000000000000000000000000005401fe29e6533a19",
                        "key": "0xe1c425907d68e79839f8ed9c6f7b36ae054ec72d2bad5aabd3b269d6fc18644a",
                        "prev": "0x00000000000000000000000000000000000000000000000051428e3674cc3a19"
                    }
                ],
                "storageVariables": [
                    {
                        "name": "balanceOf",
                        "type": "mapping(address => uint256)",
                        "value": {
                            "pairs": [
                                {
                                    "key": "0xbda65aac79b3c48f8336bf3289d9c38cd037a0a7",
                                    "value": {
                                        "current": "6053398830073985561",
                                        "prev": "5855398830073985561",
                                        "typeTag": 1
                                    }
                                }
                            ],
                            "typeTag": 4
                        }
                    }
                ]
            },
            {
                "address": "0xfd71def6ed41990b403d08714b1c8fb34d8d50ac",
                "erc": "ERC-20",
                "slots": [
                    {
                        "current": "0x00000000000000000000000000000000000000011e83c3a8bf4870b2fbb22aa1",
                        "key": "0x7667727f3c3f2e88676b24a4017297b3e294dbef8eff9471c0958769e03157c0",
                        "prev": "0x0000000000000000000000000000000000000001282c9304a6c78cf39d14a7e6"
                    },
                    {
                        "current": "0x00000000000000000000000000000000000000000c6056de43dd008f754c6ae4",
                        "key": "0xd764fc510f85af968708535d810708338d716546fc840fde005c1db1d1620e72",
                        "prev": "0x00000000000000000000000000000000000000000c479c79818c5eff73af45cd"
                    },
                    {
                        "current": "0x00000000000000000000000000000000000000000f84c341fdf22625b6d8a34c",
                        "key": "0x4a22eb7b7f22a3bdd42900184779f71c4401d438bdd7cded8d04074996a31688",
                        "prev": "0x000000000000000000000000000000000000000005f4ae4ad8c3ab7517134b1e"
                    }
                ],
                "storageVariables": [
                    {
                        "name": "_balances",
                        "type": "mapping(address => uint256)",
                        "value": {
                            "pairs": [
                                {
                                    "key": "0x0cfc9e76f4fa064497dff1e4885d7362402681e6",
                                    "value": {
                                        "current": "4802775434310561633253499724",
                                        "prev": "1843226021539292087063890718",
                                        "typeTag": 1
                                    }
                                },
                                {
                                    "key": "0xbda65aac79b3c48f8336bf3289d9c38cd037a0a7",
                                    "value": {
                                        "current": "88672006065574760614791883425",
                                        "prev": "91661449916858871267508660198",
                                        "typeTag": 1
                                    }
                                },
                                {
                                    "key": "0xfd71def6ed41990b403d08714b1c8fb34d8d50ac",
                                    "value": {
                                        "current": "3830287220123921765020494564",
                                        "prev": "3800392781611080658493326797",
                                        "typeTag": 1
                                    }
                                }
                            ],
                            "typeTag": 4
                        }
                    }
                ]
            }
        ]
    }
}