{
    "balance_change": {
        "balanceChanges": [
            {
                "account": "0x75e89d5979e4f6fba9f97c104c2f0afb3f1dcb88",
                "assets": [
                    {
                        "address": "0x8ed97a637a790be1feff5e888d43629dc05408f6",
                        "amount": "45,695.66",
                        "iconUrl": "",
                        "isERC1155": false,
                        "isERC721": false,
                        "sign": false,
                        "value": "694.5740319999999986"
                    }
                ]
            },
            {
                "account": "0x140d0649b6d8302acef38c8d4a0b6f10bd38b565",
                "assets": [
                    {
                        "address": "0x8ed97a637a790be1feff5e888d43629dc05408f6",
                        "amount": "45,695.66",
                        "iconUrl": "",
                        "isERC1155": false,
                        "isERC721": false,
                        "sign": true,
                        "value": "694.5740319999999986"
                    }
                ]
            }
        ]
    },
    "profile": {
        "basic_info": {
            "baseFee": "11.208474622",
            "blockNumber": 20714733,
            "callData": "0xa9059cbb000000000000000000000000140d0649b6d8302acef38c8d4a0b6f10bd38b5650000000000000000000000000000000000000000000009ad2aac5804625e0000",
            "debugEnable": true,
            "errorInfo": "",
            "eventCount": 1,
            "feeRecipient": "0x4838b106fce9647bdf1e7877bf73ce8b0bad5f97",
            "formatValue": "0",
            "gasLimit": 52008,
            "gasPrice": "15.576811477",
            "gasUsed": 34313,
            "intTxnCount": 0,
            "internalRevert": false,
            "internalRevertMessage": "",
            "isContractCreation": false,
            "isFlashloan": false,
            "maxFee": "",
            "nonce": 7694544,
            "overwritedBlockNumber": -1,
            "priorityFee": "",
            "receiver": "0x8ed97a637a790be1feff5e888d43629dc05408f6",
            "revertMessage": "",
            "sender": "0x75e89d5979e4f6fba9f97c104c2f0afb3f1dcb88",
            "simulationEnable": true,
            "sourceTxnHash": "0xe08d36706ddf71cd0eed8b5bb3b962aecc7a0b24c6ed6196fc31bdfe5e6a4aee",
            "status": true,
            "timestamp": "2024-09-09T18:06:11Z",
            "transactionFee": "0.000534487132210301",
            "txnHash": "0xe08d36706ddf71cd0eed8b5bb3b962aecc7a0b24c6ed6196fc31bdfe5e6a4aee",
            "txnIndex": 159,
            "type": 0,
            "value": "0"
        },
        "fund_flow": [
            {
                "amount": "45,695.66",
                "from": "0x75e89d5979e4f6fba9f97c104c2f0afb3f1dcb88",
                "id": 1,
                "isERC1155": false,
                "isERC721": false,
                "isReverted": false,
                "order": 1,
                "to": "0x140d0649b6d8302acef38c8d4a0b6f10bd38b565",
                "token": "0x8ed97a637a790be1feff5e888d43629dc05408f6"
            }
        ],
        "token_infos": [
            {
                "address": "0x8ed97a637a790be1feff5e888d43629dc05408f6",
                "decimals": 18
            },
            {
                "address": "0xc02aaa39b223fe8d0a0e5c4f27ead9083c756cc2",
                "decimals": 18
            },
            {
                "address": "0xeeeeeeeeeeeeeeeeeeeeeeeeeeeeeeeeeeeeeeee",
                "decimals": 18
            }
        ]
    },
    "address_label": {
        "labels": [
            {
                "address": "0x0000000000000000000000000000000000000004",
                "label": "Precompiled"
            },
            {
                "address": "0xeeeeeeeeeeeeeeeeeeeeeeeeeeeeeeeeeeeeeeee",
                "label": "Ether"
            },
            {
                "address": "0x8ed97a637a790be1feff5e888d43629dc05408f6",
                "label": "Non Playable Coin: NPC Token"
            },
            {
                "address": "0x75e89d5979e4f6fba9f97c104c2f0afb3f1dcb88",
                "label": "MEXC 1"
            },
            {
                "address": "0x0000000000000000000000000000000000000001",
                "label": "Precompiled"
            },
            {
                "address": "0x0000000000000000000000000000000000000002",
                "label": "Precompiled"
            },
            {
                "address": "0x0000000000000000000000000000000000000003",
                "label": "Precompiled"
            }
        ]
    },
    "trace": {
        "accountLabels": null,
        "dataMap": {
            "-1": {
                "invocation": {
                    "address": "0x75e89d5979e4f6fba9f97c104c2f0afb3f1dcb88",
                    "callData": "",
                    "decodedMethod": null,
                    "errorInfo": "",
                    "fromAddress": "",
                    "gasUsed": 0,
                    "id": -1,
                    "methodDecoded": false,
                    "operation": "",
                    "output": "",
                    "revert": false,
                    "revertMessage": "",
                    "selector": "",
                    "status": false,
                    "value": ""
                },
                "nodeType": 0
            },
            "0": {
                "invocation": {
                    "address": "0x8ed97a637a790be1feff5e888d43629dc05408f6",
                    "callData": "0x000000000000000000000000140d0649b6d8302acef38c8d4a0b6f10bd38b5650000000000000000000000000000000000000000000009ad2aac5804625e0000",
                    "decodedMethod": {
                        "callParams": [
                            {
                                "name": "to",
                                "type": "address",
                                "value": "0x140d0649b6d8302acef38c8d4a0b6f10bd38b565"
                            },
                            {
                                "decimalAvailable": true,
                                "name": "amount",
                                "type": "uint256",
                                "value": "45,695,660,000,000,000,000,000"
                            }
                        ],
                        "constructorArguments": "",
                        "name": "transfer",
                        "returnParams": [
                            {
                                "name": "",
                                "type": "bool",
                                "value": true
                            }
                        ],
                        "signature": "transfer(address,uint256)"
                    },
                    "errorInfo": "",
                    "fromAddress": "0x75e89d5979e4f6fba9f97c104c2f0afb3f1dcb88",
                    "gasUsed": 34313,
                    "id": 0,
                    "methodDecoded": true,
                    "operation": "CALL",
                    "output": "0x0000000000000000000000000000000000000000000000000000000000000001",
                    "revert": false,
                    "revertMessage": "",
                    "selector": "0xa9059cbb",
                    "status": true,
                    "value": "0"
                },
                "nodeType": 0
            },
            "1": {
                "event": {
                    "contract": "0x8ed97a637a790be1feff5e888d43629dc05408f6",
                    "decodedLog": {
                        "name": "Transfer",
                        "params": [
                            {
                                "name": "from",
                                "type": "address",
                                "value": "0x75e89d5979e4f6fba9f97c104c2f0afb3f1dcb88"
                            },
                            {
                                "name": "to",
                                "type": "address",
                                "value": "0x140d0649b6d8302acef38c8d4a0b6f10bd38b565"
                            },
                            {
                                "decimalAvailable": true,
                                "name": "value",
                                "type": "uint256",
                                "value": "45,695,660,000,000,000,000,000"
                            }
                        ],
                        "signature": "Transfer(address,address,uint256)"
                    },
                    "id": 1,
                    "logData": "0x0000000000000000000000000000000000000000000009ad2aac5804625e0000",
                    "logDecoded": true,
                    "operation": "EVENT",
                    "revert": false,
                    "status": true,
                    "topics": [
                        "0xddf252ad1be2c89b69c2b068fc378daa952ba7f163c4a11628f55a4df523b3ef",
                        "0x00000000000000000000000075e89d5979e4f6fba9f97c104c2f0afb3f1dcb88",
                        "0x000000000000000000000000140d0649b6d8302acef38c8d4a0b6f10bd38b565"
                    ]
                },
                "nodeType": 1
            }
        },
        "gasFlame": [
            {
                "children": [
                    {
                        "children": [
                            {
                                "children": [],
                                "depth": 0,
                                "name": "Initial Gas",
                                "value": 21656
                            },
                            {
                                "children": [],
                                "depth": 0,
                                "name": "Executed Gas",
                                "value": 12657
                            }
                        ],
                        "depth": -1,
                        "name": "Actual Gas Used",
                        "value": 34313
                    },
                    {
                        "children": [],
                        "depth": -1,
                        "name": "Refunded Gas",
                        "value": 0
                    }
                ],
                "depth": -2,
                "name": "Total Gas",
                "value": 34313
            }
        ],
        "isConfirmed": true,
        "mainTrace": [
            {
                "children": [
                    {
                        "children": [
                            {
                                "children": [],
                                "depth": 1,
                                "id": 1,
                                "order": 1
                            }
                        ],
                        "depth": 0,
                        "id": 0,
                        "order": 0
                    }
                ],
                "depth": -1,
                "id": -1,
                "order": -1
            }
        ],
        "mainTraceNodeCount": 2,
        "parentIdMap": {
            "0": -1,
            "1": 0
        },
        "tidyTrace": [
            {
                "children": [
                    {
                        "children": [
                            {
                                "children": [],
                                "depth": 1,
                                "id": 1,
                                "order": 1
                            }
                        ],
                        "depth": 0,
                        "id": 0,
                        "order": 0
                    }
                ],
                "depth": -1,
                "id": -1,
                "order": -1
            }
        ],
        "tidyTraceNodeCount": 2
    },
    "state_change": {
        "stateChanges": [
            {
                "address": "0x8ed97a637a790be1feff5e888d43629dc05408f6",
                "erc": "ERC-20",
                "slots": [
                    {
                        "current": "0x0000000000000000000000000000000000000000006bbb532220b9ab9bd5726a",
                        "key": "0x0c1c0c914f45c000744875af89164f0c3fa7a95c88dac7dd52278df3ccdd7017",
                        "prev": "0x0000000000000000000000000000000000000000006bc5004ccd11affe33726a"
                    },
                    {
                        "current": "0x0000000000000000000000000000000000000000000069f725be837b65f7cc00",
                        "key": "0x3b3a23013ea60bbaebb4aff6968f4aba34783ff4d78909fc53de91ee492f3b39",
                        "prev": "0x000000000000000000000000000000000000000000006049fb122b770399cc00"
                    }
                ],
                "storageVariables": [
                    {
                        "name": "_balances",
                        "type": "mapping(address => uint256)",
                        "value": {
                            "pairs": [
                                {
                                    "key": "0x140d0649b6d8302acef38c8d4a0b6f10bd38b565",
                                    "value": {
                                        "current": "500407546243310000000000",
                                        "prev": "454711886243310000000000",
                                        "typeTag": 1
                                    }
                                },
                                {
                                    "key": "0x75e89d5979e4f6fba9f97c104c2f0afb3f1dcb88",
                                    "value": {
                                        "current": "130239678769989606490600042",
                                        "prev": "130285374429989606490600042",
                                        "typeTag": 1
                                    }
                                }
                            ],
                            "typeTag": 4
                        }
                    }
                ]
            }
        ]
    }
}