{
    "balance_change": {
        "balanceChanges": []
    },
    "profile": {
        "basic_info": {
            "baseFee": "72.053675606",
            "blockNumber": 14033032,
            "callData": "0x55f804b300000000000000000000000000000000000000000000000000000000000000200000000000000000000000000000000000000000000000000000000000000036697066733a2f2f516d6350797639504a4862524775636a54664353753333393464356a6f37637259554e4c486b694b6d6147626b642f00000000000000000000",
            "debugEnable": true,
            "errorInfo": "",
            "eventCount": 0,
            "feeRecipient": "0x00192fb10df37c9fb26829eb2cc623cd1bf599e8",
            "formatValue": "0",
            "gasLimit": 37878,
            "gasPrice": "73.053675606",
            "gasUsed": 37878,
            "intTxnCount": 0,
            "internalRevert": false,
            "internalRevertMessage": "",
            "isContractCreation": false,
            "isFlashloan": false,
            "maxFee": "73.692105221",
            "nonce": 5,
            "overwritedBlockNumber": -1,
            "priorityFee": "1",
            "receiver": "0x39c99605162de93c696fd35c257624b17afc043e",
            "revertMessage": "",
            "sender": "0x465f28ba10daacb317bd215e506c4008bc6948d0",
            "simulationEnable": true,
            "sourceTxnHash": "0xe004ad4398820b5a1ff003f3ec4f91b9d02b8c466242785acc16bbfcc116c5d5",
            "status": true,
            "timestamp": "2022-01-19T01:27:19Z",
            "transactionFee": "0.002767127124604068",
            "txnHash": "0xe004ad4398820b5a1ff003f3ec4f91b9d02b8c466242785acc16bbfcc116c5d5",
            "txnIndex": 16,
            "type": 2,
            "value": "0"
        },
        "fund_flow": [],
        "token_infos": [
            {
                "address": "0xc02aaa39b223fe8d0a0e5c4f27ead9083c756cc2",
                "decimals": 18
            },
            {
                "address": "0xeeeeeeeeeeeeeeeeeeeeeeeeeeeeeeeeeeeeeeee",
                "decimals": 18
            }
        ]
    },
    "address_label": {
        "labels": [
            {
                "address": "0x0000000000000000000000000000000000000001",
                "label": "Precompiled"
            },
            {
                "address": "0x0000000000000000000000000000000000000002",
                "label": "Precompiled"
            },
            {
                "address": "0x0000000000000000000000000000000000000003",
                "label": "Precompiled"
            },
            {
                "address": "0x0000000000000000000000000000000000000004",
                "label": "Precompiled"
            },
            {
                "address": "0xeeeeeeeeeeeeeeeeeeeeeeeeeeeeeeeeeeeeeeee",
                "label": "Ether"
            },
            {
                "address": "0x39c99605162de93c696fd35c257624b17afc043e",
                "label": "PhatRatAcademy"
            }
        ]
    },
    "trace": {
        "accountLabels": null,
        "dataMap": {
            "-1": {
                "invocation": {
                    "address": "0x465f28ba10daacb317bd215e506c4008bc6948d0",
                    "callData": "",
                    "decodedMethod": null,
                    "errorInfo": "",
                    "fromAddress": "",
                    "gasUsed": 0,
                    "id": -1,
                    "methodDecoded": false,
                    "operation": "",
                    "output": "",
                    "revert": false,
                    "revertMessage": "",
                    "selector": "",
                    "status": false,
                    "value": ""
                },
                "nodeType": 0
            },
            "0": {
                "invocation": {
                    "address": "0x39c99605162de93c696fd35c257624b17afc043e",
                    "callData": "0x00000000000000000000000000000000000000000000000000000000000000200000000000000000000000000000000000000000000000000000000000000036697066733a2f2f516d6350797639504a4862524775636a54664353753333393464356a6f37637259554e4c486b694b6d6147626b642f00000000000000000000",
                    "decodedMethod": {
                        "callParams": [
                            {
                                "name": "_newBaseURI",
                                "type": "string",
                                "value": "ipfs://QmcPyv9PJHbRGucjTfCSu3394d5jo7crYUNLHkiKmaGbkd/"
                            }
                        ],
                        "constructorArguments": "",
                        "name": "setBaseURI",
                        "returnParams": [],
                        "signature": "setBaseURI(string)"
                    },
                    "errorInfo": "",
                    "fromAddress": "0x465f28ba10daacb317bd215e506c4008bc6948d0",
                    "gasUsed": 37878,
                    "id": 0,
                    "methodDecoded": true,
                    "operation": "CALL",
                    "output": "",
                    "revert": false,
                    "revertMessage": "",
                    "selector": "0x55f804b3",
                    "status": true,
                    "value": "0"
                },
                "nodeType": 0
            }
        },
        "gasFlame": [
            {
                "children": [
                    {
                        "children": [
                            {
                                "children": [],
                                "depth": 0,
                                "name": "Initial Gas",
                                "value": 22248
                            },
                            {
                                "children": [],
                                "depth": 0,
                                "name": "Executed Gas",
                                "value": 15630
                            }
                        ],
                        "depth": -1,
                        "name": "Actual Gas Used",
                        "value": 37878
                    },
                    {
                        "children": [],
                        "depth": -1,
                        "name": "Refunded Gas",
                        "value": 0
                    }
                ],
                "depth": -2,
                "name": "Total Gas",
                "value": 37878
            }
        ],
        "isConfirmed": true,
        "mainTrace": [
            {
                "children": [
                    {
                        "children": [],
                        "depth": 0,
                        "id": 0,
                        "order": 0
                    }
                ],
                "depth": -1,
                "id": -1,
                "order": -1
            }
        ],
        "mainTraceNodeCount": 1,
        "parentIdMap": {
            "0": -1
        },
        "tidyTrace": [
            {
                "children": [
                    {
                        "children": [],
                        "depth": 0,
                        "id": 0,
                        "order": 0
                    }
                ],
                "depth": -1,
                "id": -1,
                "order": -1
            }
        ],
        "tidyTraceNodeCount": 1
    },
    "state_change": {
        "stateChanges": [
            {
                "address": "0x39c99605162de93c696fd35c257624b17afc043e",
                "erc": "ERC-721",
                "slots": [
                    {
                        "current": "0x64356a6f37637259554e4c486b694b6d6147626b642f00000000000000000000",
                        "key": "0x0175b7a638427703f0dbe7bb9bbf987a2551717b34e79f33b5b1008d1fa01dba",
                        "prev": "0x376f4c794c5177695a4135586561576748594168322f00000000000000000000"
                    },
                    {
                        "current": "0x697066733a2f2f516d6350797639504a4862524775636a546643537533333934",
                        "key": "0x0175b7a638427703f0dbe7bb9bbf987a2551717b34e79f33b5b1008d1fa01db9",
                        "prev": "0x697066733a2f2f516d5053453454347162574c7941754b545677313373346a54"
                    }
                ],
                "storageVariables": [
                    {
                        "name": "baseURI",
                        "type": "string",
                        "value": {
                            "current": "ipfs://QmcPyv9PJHbRGucjTfCSu3394d5jo7crYUNLHkiKmaGbkd/",
                            "prev": "ipfs://QmcPyv9PJHbRGucjTfCSu3394d5jo7crYUNLHkiKmaGbkd/",
                            "typeTag": 1
                        }
                    }
                ]
            }
        ]
    }
}