{
    "balance_change": {
        "balanceChanges": []
    },
    "profile": {
        "basic_info": {
            "baseFee": "",
            "blockNumber": 5150915,
            "callData": "0x338b5dea0000000000000000000000000b76544f6c413a555f309bf76260d1e02377c02a0000000000000000000000000000000000000000000000000000000030d0f2c0",
            "debugEnable": true,
            "errorInfo": "invalid opcode: INVALID",
            "eventCount": 0,
            "feeRecipient": "0x84990f5d2e09f56cabdabf6409ad31bdd8363b50",
            "formatValue": "0",
            "gasLimit": 250000,
            "gasPrice": "60",
            "gasUsed": 250000,
            "intTxnCount": 1,
            "internalRevert": true,
            "internalRevertMessage": "",
            "isContractCreation": false,
            "isFlashloan": false,
            "maxFee": "",
            "nonce": 3,
            "overwritedBlockNumber": -1,
            "priorityFee": "",
            "receiver": "0x8d12a197cb00d4747a1fe03395095ce2a5cc6819",
            "revertMessage": "",
            "sender": "0xd0cdaae3aff4fa4658603c977ede7cdb7116589b",
            "simulationEnable": true,
            "sourceTxnHash": "0xe0dddf7d65b9d7152e1903a2b01c62e89f2ebd59e31c93f0170e978133df2119",
            "status": false,
            "timestamp": "2018-02-25T00:49:37Z",
            "transactionFee": "0.015",
            "txnHash": "0xe0dddf7d65b9d7152e1903a2b01c62e89f2ebd59e31c93f0170e978133df2119",
            "txnIndex": 4,
            "type": 0,
            "value": "0"
        },
        "fund_flow": [],
        "token_infos": [
            {
                "address": "0xc02aaa39b223fe8d0a0e5c4f27ead9083c756cc2",
                "decimals": 18
            },
            {
                "address": "0xeeeeeeeeeeeeeeeeeeeeeeeeeeeeeeeeeeeeeeee",
                "decimals": 18
            }
        ]
    },
    "address_label": {
        "labels": [
            {
                "address": "0xeeeeeeeeeeeeeeeeeeeeeeeeeeeeeeeeeeeeeeee",
                "label": "Ether"
            },
            {
                "address": "0x0b76544f6c413a555f309bf76260d1e02377c02a",
                "label": "InternetNodeToken: Old Contract"
            },
            {
                "address": "0x8d12a197cb00d4747a1fe03395095ce2a5cc6819",
                "label": "EtherDelta"
            },
            {
                "address": "0x0000000000000000000000000000000000000001",
                "label": "Precompiled"
            },
            {
                "address": "0x0000000000000000000000000000000000000002",
                "label": "Precompiled"
            },
            {
                "address": "0x0000000000000000000000000000000000000003",
                "label": "Precompiled"
            },
            {
                "address": "0x0000000000000000000000000000000000000004",
                "label": "Precompiled"
            }
        ]
    },
    "trace": {
        "accountLabels": null,
        "dataMap": {
            "-1": {
                "invocation": {
                    "address": "0xd0cdaae3aff4fa4658603c977ede7cdb7116589b",
                    "callData": "",
                    "decodedMethod": null,
                    "errorInfo": "",
                    "fromAddress": "",
                    "gasUsed": 0,
                    "id": -1,
                    "methodDecoded": false,
                    "operation": "",
                    "output": "",
                    "revert": false,
                    "revertMessage": "",
                    "selector": "",
                    "status": false,
                    "value": ""
                },
                "nodeType": 0
            },
            "0": {
                "invocation": {
                    "address": "0x8d12a197cb00d4747a1fe03395095ce2a5cc6819",
                    "callData": "0x0000000000000000000000000b76544f6c413a555f309bf76260d1e02377c02a0000000000000000000000000000000000000000000000000000000030d0f2c0",
                    "decodedMethod": {
                        "callParams": [
                            {
                                "name": "token",
                                "type": "address",
                                "value": "0x0b76544f6c413a555f309bf76260d1e02377c02a"
                            },
                            {
                                "name": "amount",
                                "type": "uint256",
                                "value": "819,000,000"
                            }
                        ],
                        "constructorArguments": "",
                        "name": "depositToken",
                        "returnParams": [],
                        "signature": "depositToken(address,uint256)"
                    },
                    "errorInfo": "invalid opcode: INVALID",
                    "fromAddress": "0xd0cdaae3aff4fa4658603c977ede7cdb7116589b",
                    "gasUsed": 250000,
                    "id": 0,
                    "methodDecoded": true,
                    "operation": "CALL",
                    "output": "",
                    "revert": true,
                    "revertMessage": "",
                    "selector": "0x338b5dea",
                    "status": false,
                    "value": "0"
                },
                "nodeType": 0
            },
            "1": {
                "invocation": {
                    "address": "0x0b76544f6c413a555f309bf76260d1e02377c02a",
                    "callData": "0x000000000000000000000000d0cdaae3aff4fa4658603c977ede7cdb7116589b0000000000000000000000008d12a197cb00d4747a1fe03395095ce2a5cc68190000000000000000000000000000000000000000000000000000000030d0f2c0",
                    "decodedMethod": {
                        "callParams": [
                            {
                                "name": "_from",
                                "type": "address",
                                "value": "0xd0cdaae3aff4fa4658603c977ede7cdb7116589b"
                            },
                            {
                                "name": "_to",
                                "type": "address",
                                "value": "0x8d12a197cb00d4747a1fe03395095ce2a5cc6819"
                            },
                            {
                                "decimalAvailable": true,
                                "name": "_value",
                                "type": "uint256",
                                "value": "819,000,000"
                            }
                        ],
                        "constructorArguments": "",
                        "name": "transferFrom",
                        "returnParams": [],
                        "signature": "transferFrom(address,address,uint256)"
                    },
                    "errorInfo": "execution reverted",
                    "fromAddress": "0x8d12a197cb00d4747a1fe03395095ce2a5cc6819",
                    "gasUsed": 761,
                    "id": 1,
                    "methodDecoded": true,
                    "operation": "CALL",
                    "output": "",
                    "revert": true,
                    "revertMessage": "",
                    "selector": "0x23b872dd",
                    "status": false,
                    "value": "0"
                },
                "nodeType": 0
            }
        },
        "gasFlame": [
            {
                "children": [
                    {
                        "children": [
                            {
                                "children": [],
                                "depth": 0,
                                "name": "Initial Gas",
                                "value": 23064
                            },
                            {
                                "children": [
                                    {
                                        "children": [],
                                        "depth": 1,
                                        "name": "transferFrom",
                                        "value": 761
                                    }
                                ],
                                "depth": 0,
                                "name": "Executed Gas",
                                "value": 226936
                            }
                        ],
                        "depth": -1,
                        "name": "Actual Gas Used",
                        "value": 250000
                    },
                    {
                        "children": [],
                        "depth": -1,
                        "name": "Refunded Gas",
                        "value": 0
                    }
                ],
                "depth": -2,
                "name": "Total Gas",
                "value": 250000
            }
        ],
        "isConfirmed": true,
        "mainTrace": [
            {
                "children": [
                    {
                        "children": [
                            {
                                "children": [],
                                "depth": 1,
                                "id": 1,
                                "order": 1
                            }
                        ],
                        "depth": 0,
                        "id": 0,
                        "order": 0
                    }
                ],
                "depth": -1,
                "id": -1,
                "order": -1
            }
        ],
        "mainTraceNodeCount": 2,
        "parentIdMap": {
            "0": -1,
            "1": 0
        },
        "tidyTrace": [
            {
                "children": [
                    {
                        "children": [
                            {
                                "children": [],
                                "depth": 1,
                                "id": 1,
                                "order": 1
                            }
                        ],
                        "depth": 0,
                        "id": 0,
                        "order": 0
                    }
                ],
                "depth": -1,
                "id": -1,
                "order": -1
            }
        ],
        "tidyTraceNodeCount": 2
    },
    "state_change": {
        "stateChanges": []
    }
}