{
    "balance_change": {
        "balanceChanges": []
    },
    "profile": {
        "basic_info": {
            "baseFee": "",
            "blockNumber": 7716984,
            "callData": "0xb44848f5000000000000000000000000000000000000000000000000000000000000d9c6",
            "debugEnable": true,
            "errorInfo": "",
            "eventCount": 1,
            "feeRecipient": "0xce742257c4e5ce5422dabdf83a58d994202736ac",
            "formatValue": "0",
            "gasLimit": 223798,
            "gasPrice": "5",
            "gasUsed": 128443,
            "intTxnCount": 9,
            "internalRevert": false,
            "internalRevertMessage": "",
            "isContractCreation": false,
            "isFlashloan": false,
            "maxFee": "",
            "nonce": 1457,
            "overwritedBlockNumber": -1,
            "priorityFee": "",
            "receiver": "0x425372c0ac9d559a186a08a3854e0ddea1a00d5c",
            "revertMessage": "",
            "sender": "0xf8cd644baf494d13406187cf8628754dca0a10c2",
            "simulationEnable": true,
            "sourceTxnHash": "0xe0ac462bd8575ffaa014513d3479fb43abf02de785d7392079532d50f025e6e2",
            "status": true,
            "timestamp": "2019-05-08T00:59:48Z",
            "transactionFee": "0.000642215",
            "txnHash": "0xe0ac462bd8575ffaa014513d3479fb43abf02de785d7392079532d50f025e6e2",
            "txnIndex": 15,
            "type": 0,
            "value": "0"
        },
        "fund_flow": [],
        "token_infos": [
            {
                "address": "0xeeeeeeeeeeeeeeeeeeeeeeeeeeeeeeeeeeeeeeee",
                "decimals": 18
            },
            {
                "address": "0xc02aaa39b223fe8d0a0e5c4f27ead9083c756cc2",
                "decimals": 18
            }
        ]
    },
    "address_label": {
        "labels": [
            {
                "address": "0x0000000000000000000000000000000000000002",
                "label": "Precompiled"
            },
            {
                "address": "0x0000000000000000000000000000000000000003",
                "label": "Precompiled"
            },
            {
                "address": "0x0000000000000000000000000000000000000004",
                "label": "Precompiled"
            },
            {
                "address": "0xeeeeeeeeeeeeeeeeeeeeeeeeeeeeeeeeeeeeeeee",
                "label": "Ether"
            },
            {
                "address": "0xf5b0a3efb8e8e4c201e2a935f110eaaf3ffecb8d",
                "label": "Axie Infinity: AXIE Token"
            },
            {
                "address": "0x0000000000000000000000000000000000000001",
                "label": "Precompiled"
            }
        ]
    },
    "trace": {
        "accountLabels": null,
        "dataMap": {
            "-1": {
                "invocation": {
                    "address": "0xf8cd644baf494d13406187cf8628754dca0a10c2",
                    "callData": "",
                    "decodedMethod": null,
                    "errorInfo": "",
                    "fromAddress": "",
                    "gasUsed": 0,
                    "id": -1,
                    "methodDecoded": false,
                    "operation": "",
                    "output": "",
                    "revert": false,
                    "revertMessage": "",
                    "selector": "",
                    "status": false,
                    "value": ""
                },
                "nodeType": 0
            },
            "0": {
                "invocation": {
                    "address": "0x425372c0ac9d559a186a08a3854e0ddea1a00d5c",
                    "callData": "0x000000000000000000000000000000000000000000000000000000000000d9c6",
                    "decodedMethod": null,
                    "errorInfo": "",
                    "fromAddress": "0xf8cd644baf494d13406187cf8628754dca0a10c2",
                    "gasUsed": 128443,
                    "id": 0,
                    "methodDecoded": false,
                    "operation": "CALL",
                    "output": "",
                    "revert": false,
                    "revertMessage": "",
                    "selector": "0xb44848f5",
                    "status": true,
                    "value": "0"
                },
                "nodeType": 0
            },
            "1": {
                "invocation": {
                    "address": "0xf5b0a3efb8e8e4c201e2a935f110eaaf3ffecb8d",
                    "callData": "0x000000000000000000000000000000000000000000000000000000000000d9c6",
                    "decodedMethod": {
                        "callParams": [
                            {
                                "name": "_tokenId",
                                "type": "uint256",
                                "value": "55,750"
                            }
                        ],
                        "constructorArguments": "",
                        "name": "ownerOf",
                        "returnParams": [
                            {
                                "name": "",
                                "type": "address",
                                "value": "0xf8cd644baf494d13406187cf8628754dca0a10c2"
                            }
                        ],
                        "signature": "ownerOf(uint256)"
                    },
                    "errorInfo": "",
                    "fromAddress": "0x425372c0ac9d559a186a08a3854e0ddea1a00d5c",
                    "gasUsed": 1607,
                    "id": 1,
                    "methodDecoded": true,
                    "operation": "CALL",
                    "output": "0x000000000000000000000000f8cd644baf494d13406187cf8628754dca0a10c2",
                    "revert": false,
                    "revertMessage": "",
                    "selector": "0x6352211e",
                    "status": true,
                    "value": "0"
                },
                "nodeType": 0
            },
            "10": {
                "invocation": {
                    "address": "0x10e304a53351b272dc415ad049ad06565ebdfe34",
                    "callData": "0x",
                    "decodedMethod": {
                        "callParams": [],
                        "constructorArguments": "",
                        "name": "paused",
                        "returnParams": [
                            {
                                "name": "",
                                "type": "bool",
                                "value": false
                            }
                        ],
                        "signature": "paused()"
                    },
                    "errorInfo": "",
                    "fromAddress": "0x26c89cf33b8473ea8e0513e17bd674d8fd0bc2cd",
                    "gasUsed": 819,
                    "id": 10,
                    "methodDecoded": true,
                    "operation": "CALL",
                    "output": "0x0000000000000000000000000000000000000000000000000000000000000000",
                    "revert": false,
                    "revertMessage": "",
                    "selector": "0x5c975abb",
                    "status": true,
                    "value": "0"
                },
                "nodeType": 0
            },
            "2": {
                "invocation": {
                    "address": "0xf5b0a3efb8e8e4c201e2a935f110eaaf3ffecb8d",
                    "callData": "0x000000000000000000000000000000000000000000000000000000000000d9c6",
                    "decodedMethod": {
                        "callParams": [
                            {
                                "name": "_axieId",
                                "type": "uint256",
                                "value": "55,750"
                            }
                        ],
                        "constructorArguments": "",
                        "name": "getAxie",
                        "returnParams": [
                            {
                                "name": "",
                                "type": "uint256",
                                "value": "0"
                            },
                            {
                                "name": "",
                                "type": "uint256",
                                "value": "1,556,799,948"
                            }
                        ],
                        "signature": "getAxie(uint256)"
                    },
                    "errorInfo": "",
                    "fromAddress": "0x425372c0ac9d559a186a08a3854e0ddea1a00d5c",
                    "gasUsed": 2283,
                    "id": 2,
                    "methodDecoded": true,
                    "operation": "CALL",
                    "output": "0x0000000000000000000000000000000000000000000000000000000000000000000000000000000000000000000000000000000000000000000000005ccae1cc",
                    "revert": false,
                    "revertMessage": "",
                    "selector": "0xa6472906",
                    "status": true,
                    "value": "0"
                },
                "nodeType": 0
            },
            "3": {
                "invocation": {
                    "address": "0xa10710cdaf24f6ff11cc34504e614ad36fb68c08",
                    "callData": "0x000000000000000000000000000000000000000000000000000000000000d9c6000000000000000000000000000000000000000000000000000000005ccae1cc0000000000000000000000000000000000000000000000000000000000000000ad0000000d0414321421110a0c84110a1064190c0c4318c41465290a04c318c48c0000000134c2421020108214201102044108c80c64094a0422104204411002a61e0a221121e3ba95844e30761b28a651790402c8f66b2aedc7f7f1718e0bf2",
                    "decodedMethod": null,
                    "errorInfo": "",
                    "fromAddress": "0x425372c0ac9d559a186a08a3854e0ddea1a00d5c",
                    "gasUsed": 48524,
                    "id": 3,
                    "methodDecoded": false,
                    "operation": "CALL",
                    "output": "0xad0000000104c422102010440c841102106418420c6529020425190a0443184402565233517af4f21688368a31ea54dff80b5587f9bf9a6aeed0cc8edab502e7",
                    "revert": false,
                    "revertMessage": "",
                    "selector": "0xda1169be",
                    "status": true,
                    "value": "0"
                },
                "nodeType": 0
            },
            "4": {
                "invocation": {
                    "address": "0xf5b0a3efb8e8e4c201e2a935f110eaaf3ffecb8d",
                    "callData": "0x000000000000000000000000000000000000000000000000000000000000d9c6ad0000000104c422102010440c841102106418420c6529020425190a04431844",
                    "decodedMethod": {
                        "callParams": [
                            {
                                "name": "_axieId",
                                "type": "uint256",
                                "value": "55,750"
                            },
                            {
                                "name": "_newGenes",
                                "type": "uint256",
                                "value": "78,250,122,805,012,358,158,484,481,806,191,270,661,384,283,857,671,153,774,268,184,917,309,185,529,924"
                            }
                        ],
                        "constructorArguments": "",
                        "name": "evolveAxie",
                        "returnParams": [],
                        "signature": "evolveAxie(uint256,uint256)"
                    },
                    "errorInfo": "",
                    "fromAddress": "0x425372c0ac9d559a186a08a3854e0ddea1a00d5c",
                    "gasUsed": 30038,
                    "id": 4,
                    "methodDecoded": true,
                    "operation": "CALL",
                    "output": "",
                    "revert": false,
                    "revertMessage": "",
                    "selector": "0xae67b4c3",
                    "status": true,
                    "value": "0"
                },
                "nodeType": 0
            },
            "5": {
                "invocation": {
                    "address": "0xe8bd438d0383cf4d19641eaa4793eddc6cebeaf1",
                    "callData": "0x000000000000000000000000000000000000000000000000000000000000d9c6ad0000000104c422102010440c841102106418420c6529020425190a04431844",
                    "decodedMethod": {
                        "callParams": [
                            {
                                "name": "",
                                "type": "uint256",
                                "value": "55,750"
                            },
                            {
                                "name": "",
                                "type": "uint256",
                                "value": "78,250,122,805,012,358,158,484,481,806,191,270,661,384,283,857,671,153,774,268,184,917,309,185,529,924"
                            }
                        ],
                        "constructorArguments": "",
                        "name": "isEvolvementAllowed",
                        "returnParams": [
                            {
                                "name": "",
                                "type": "bool",
                                "value": true
                            }
                        ],
                        "signature": "isEvolvementAllowed(uint256,uint256)"
                    },
                    "errorInfo": "",
                    "fromAddress": "0xf5b0a3efb8e8e4c201e2a935f110eaaf3ffecb8d",
                    "gasUsed": 3356,
                    "id": 5,
                    "methodDecoded": true,
                    "operation": "CALL",
                    "output": "0x0000000000000000000000000000000000000000000000000000000000000001",
                    "revert": false,
                    "revertMessage": "",
                    "selector": "0x9613bc90",
                    "status": true,
                    "value": "0"
                },
                "nodeType": 0
            },
            "6": {
                "invocation": {
                    "address": "0xf5b0a3efb8e8e4c201e2a935f110eaaf3ffecb8d",
                    "callData": "0x",
                    "decodedMethod": {
                        "callParams": [],
                        "constructorArguments": "",
                        "name": "paused",
                        "returnParams": [
                            {
                                "name": "",
                                "type": "bool",
                                "value": false
                            }
                        ],
                        "signature": "paused()"
                    },
                    "errorInfo": "",
                    "fromAddress": "0xe8bd438d0383cf4d19641eaa4793eddc6cebeaf1",
                    "gasUsed": 1028,
                    "id": 6,
                    "methodDecoded": true,
                    "operation": "CALL",
                    "output": "0x0000000000000000000000000000000000000000000000000000000000000000",
                    "revert": false,
                    "revertMessage": "",
                    "selector": "0x5c975abb",
                    "status": true,
                    "value": "0"
                },
                "nodeType": 0
            },
            "7": {
                "event": {
                    "contract": "0xf5b0a3efb8e8e4c201e2a935f110eaaf3ffecb8d",
                    "decodedLog": {
                        "name": "AxieEvolved",
                        "params": [
                            {
                                "name": "_axieId",
                                "type": "uint256",
                                "value": "55,750"
                            },
                            {
                                "name": "_oldGenes",
                                "type": "uint256",
                                "value": "0"
                            },
                            {
                                "name": "_newGenes",
                                "type": "uint256",
                                "value": "78,250,122,805,012,358,158,484,481,806,191,270,661,384,283,857,671,153,774,268,184,917,309,185,529,924"
                            }
                        ],
                        "signature": "AxieEvolved(uint256,uint256,uint256)"
                    },
                    "id": 7,
                    "logData": "0x0000000000000000000000000000000000000000000000000000000000000000ad0000000104c422102010440c841102106418420c6529020425190a04431844",
                    "logDecoded": true,
                    "operation": "EVENT",
                    "revert": false,
                    "status": true,
                    "topics": [
                        "0x6715bb2e56d8b9cd079426816318abbb6ee679a7e8e64602b38bf5c074b58e55",
                        "0x000000000000000000000000000000000000000000000000000000000000d9c6"
                    ]
                },
                "nodeType": 1
            },
            "8": {
                "invocation": {
                    "address": "0x10e304a53351b272dc415ad049ad06565ebdfe34",
                    "callData": "0x000000000000000000000000000000000000000000000000000000000000d9c60000000000000000000000000000000000000000000000000000000000000190",
                    "decodedMethod": {
                        "callParams": [
                            {
                                "name": "_tokenId",
                                "type": "uint256",
                                "value": "55,750"
                            },
                            {
                                "name": "_exp",
                                "type": "uint256",
                                "value": "400"
                            }
                        ],
                        "constructorArguments": "",
                        "name": "updateExp",
                        "returnParams": [],
                        "signature": "updateExp(uint256,uint256)"
                    },
                    "errorInfo": "",
                    "fromAddress": "0x425372c0ac9d559a186a08a3854e0ddea1a00d5c",
                    "gasUsed": 26223,
                    "id": 8,
                    "methodDecoded": true,
                    "operation": "CALL",
                    "output": "",
                    "revert": false,
                    "revertMessage": "",
                    "selector": "0x51c8244a",
                    "status": true,
                    "value": "0"
                },
                "nodeType": 0
            },
            "9": {
                "invocation": {
                    "address": "0x26c89cf33b8473ea8e0513e17bd674d8fd0bc2cd",
                    "callData": "0x000000000000000000000000000000000000000000000000000000000000d9c600000000000000000000000000000000000000000000000000000000000001900000000000000000000000000000000000000000000000000000000000000000",
                    "decodedMethod": null,
                    "errorInfo": "",
                    "fromAddress": "0x10e304a53351b272dc415ad049ad06565ebdfe34",
                    "gasUsed": 3067,
                    "id": 9,
                    "methodDecoded": false,
                    "operation": "CALL",
                    "output": "0x0000000000000000000000000000000000000000000000000000000000000001",
                    "revert": false,
                    "revertMessage": "",
                    "selector": "0x23956f6d",
                    "status": true,
                    "value": "0"
                },
                "nodeType": 0
            }
        },
        "gasFlame": [
            {
                "children": [
                    {
                        "children": [
                            {
                                "children": [],
                                "depth": 0,
                                "name": "Initial Gas",
                                "value": 21528
                            },
                            {
                                "children": [
                                    {
                                        "children": [],
                                        "depth": 1,
                                        "name": "ownerOf",
                                        "value": 1607
                                    },
                                    {
                                        "children": [],
                                        "depth": 1,
                                        "name": "getAxie",
                                        "value": 2283
                                    },
                                    {
                                        "children": [],
                                        "depth": 1,
                                        "name": "0xda1169be",
                                        "value": 48524
                                    },
                                    {
                                        "children": [
                                            {
                                                "children": [
                                                    {
                                                        "children": [],
                                                        "depth": 3,
                                                        "name": "paused",
                                                        "value": 1028
                                                    }
                                                ],
                                                "depth": 2,
                                                "name": "isEvolvementAllowed",
                                                "value": 3356
                                            }
                                        ],
                                        "depth": 1,
                                        "name": "evolveAxie",
                                        "value": 30038
                                    },
                                    {
                                        "children": [
                                            {
                                                "children": [
                                                    {
                                                        "children": [],
                                                        "depth": 3,
                                                        "name": "paused",
                                                        "value": 819
                                                    }
                                                ],
                                                "depth": 2,
                                                "name": "0x23956f6d",
                                                "value": 3067
                                            }
                                        ],
                                        "depth": 1,
                                        "name": "updateExp",
                                        "value": 26223
                                    }
                                ],
                                "depth": 0,
                                "name": "Executed Gas",
                                "value": 151915
                            }
                        ],
                        "depth": -1,
                        "name": "Actual Gas Used",
                        "value": 128443
                    },
                    {
                        "children": [],
                        "depth": -1,
                        "name": "Refunded Gas",
                        "value": 45000
                    }
                ],
                "depth": -2,
                "name": "Total Gas",
                "value": 173443
            }
        ],
        "isConfirmed": true,
        "mainTrace": [
            {
                "children": [
                    {
                        "children": [
                            {
                                "children": [],
                                "depth": 1,
                                "id": 1,
                                "order": 1
                            },
                            {
                                "children": [],
                                "depth": 1,
                                "id": 2,
                                "order": 2
                            },
                            {
                                "children": [],
                                "depth": 1,
                                "id": 3,
                                "order": 3
                            },
                            {
                                "children": [
                                    {
                                        "children": [
                                            {
                                                "children": [],
                                                "depth": 3,
                                                "id": 6,
                                                "order": 6
                                            }
                                        ],
                                        "depth": 2,
                                        "id": 5,
                                        "order": 5
                                    },
                                    {
                                        "children": [],
                                        "depth": 2,
                                        "id": 7,
                                        "order": 7
                                    }
                                ],
                                "depth": 1,
                                "id": 4,
                                "order": 4
                            },
                            {
                                "children": [
                                    {
                                        "children": [
                                            {
                                                "children": [],
                                                "depth": 3,
                                                "id": 10,
                                                "order": 10
                                            }
                                        ],
                                        "depth": 2,
                                        "id": 9,
                                        "order": 9
                                    }
                                ],
                                "depth": 1,
                                "id": 8,
                                "order": 8
                            }
                        ],
                        "depth": 0,
                        "id": 0,
                        "order": 0
                    }
                ],
                "depth": -1,
                "id": -1,
                "order": -1
            }
        ],
        "mainTraceNodeCount": 11,
        "parentIdMap": {
            "0": -1,
            "1": 0,
            "10": 9,
            "2": 0,
            "3": 0,
            "4": 0,
            "5": 4,
            "6": 5,
            "7": 4,
            "8": 0,
            "9": 8
        },
        "tidyTrace": [
            {
                "children": [
                    {
                        "children": [
                            {
                                "children": [],
                                "depth": 1,
                                "id": 1,
                                "order": 1
                            },
                            {
                                "children": [],
                                "depth": 1,
                                "id": 2,
                                "order": 2
                            },
                            {
                                "children": [],
                                "depth": 1,
                                "id": 3,
                                "order": 3
                            },
                            {
                                "children": [
                                    {
                                        "children": [
                                            {
                                                "children": [],
                                                "depth": 3,
                                                "id": 6,
                                                "order": 6
                                            }
                                        ],
                                        "depth": 2,
                                        "id": 5,
                                        "order": 5
                                    },
                                    {
                                        "children": [],
                                        "depth": 2,
                                        "id": 7,
                                        "order": 7
                                    }
                                ],
                                "depth": 1,
                                "id": 4,
                                "order": 4
                            },
                            {
                                "children": [
                                    {
                                        "children": [
                                            {
                                                "children": [],
                                                "depth": 3,
                                                "id": 10,
                                                "order": 10
                                            }
                                        ],
                                        "depth": 2,
                                        "id": 9,
                                        "order": 9
                                    }
                                ],
                                "depth": 1,
                                "id": 8,
                                "order": 8
                            }
                        ],
                        "depth": 0,
                        "id": 0,
                        "order": 0
                    }
                ],
                "depth": -1,
                "id": -1,
                "order": -1
            }
        ],
        "tidyTraceNodeCount": 11
    },
    "state_change": {
        "stateChanges": [
            {
                "address": "0x10e304a53351b272dc415ad049ad06565ebdfe34",
                "erc": "",
                "slots": [
                    {
                        "current": "0x0000000000000000000000000000000000000000000000000000000000000190",
                        "key": "0xff035daa4b73f34964e237ee5cec48b2e97c4d0815233748a600c56219bd8294",
                        "prev": "0x0000000000000000000000000000000000000000000000000000000000000000"
                    }
                ],
                "storageVariables": []
            },
            {
                "address": "0x425372c0ac9d559a186a08a3854e0ddea1a00d5c",
                "erc": "",
                "slots": [
                    {
                        "current": "0x0000000000000000000000000000000000000000000000000000000000000000",
                        "key": "0xe556977aab7a445f99fc12f48001cc9111530c73704d676cd2320ce26e9d610f",
                        "prev": "0xad0000000d0414321421110a0c84110a1064190c0c4318c41465290a04c318c4"
                    },
                    {
                        "current": "0x0000000000000000000000000000000000000000000000000000000000000000",
                        "key": "0xe556977aab7a445f99fc12f48001cc9111530c73704d676cd2320ce26e9d6110",
                        "prev": "0x8c0000000134c2421020108214201102044108c80c64094a0422104204411002"
                    },
                    {
                        "current": "0x0000000000000000000000000000000000000000000000000000000000000000",
                        "key": "0xe556977aab7a445f99fc12f48001cc9111530c73704d676cd2320ce26e9d6112",
                        "prev": "0xa61e0a221121e3ba95844e30761b28a651790402c8f66b2aedc7f7f1718e0bf2"
                    }
                ],
                "storageVariables": []
            },
            {
                "address": "0xf5b0a3efb8e8e4c201e2a935f110eaaf3ffecb8d",
                "erc": "ERC-721",
                "slots": [
                    {
                        "current": "0xad0000000104c422102010440c841102106418420c6529020425190a04431844",
                        "key": "0xc624b66cc0138b8fabc209247f72d758e1cf3343756d543badbf24212bef3fa1",
                        "prev": "0x0000000000000000000000000000000000000000000000000000000000000000"
                    }
                ],
                "storageVariables": [
                    {
                        "name": "axies",
                        "type": "struct AxieCore.Axie[]",
                        "value": {
                            "elemType": "struct AxieCore.Axie",
                            "elems": [
                                {
                                    "index": 55750,
                                    "value": {
                                        "fields": [
                                            {
                                                "name": "genes",
                                                "type": "uint256",
                                                "value": {
                                                    "current": "78250122805012358158484481806191270661384283857671153774268184917309185529924",
                                                    "prev": "0",
                                                    "typeTag": 1
                                                }
                                            }
                                        ],
                                        "typeTag": 3
                                    }
                                }
                            ],
                            "typeTag": 2
                        }
                    }
                ]
            }
        ]
    }
}