{
    "balance_change": {
        "balanceChanges": [
            {
                "account": "0xc9f5296eb3ac266c94568d790b6e91eba7d76a11",
                "assets": [
                    {
                        "address": "0x2ba592f78db6436527729929aaf6c908497cb200",
                        "amount": "80.88327",
                        "iconUrl": "",
                        "isERC1155": false,
                        "isERC721": false,
                        "sign": false,
                        "value": "5101.954321"
                    }
                ]
            },
            {
                "account": "0x64b3f347abee7451ef2f19e63542e73e0b39d3da",
                "assets": [
                    {
                        "address": "0x2ba592f78db6436527729929aaf6c908497cb200",
                        "amount": "80.88327",
                        "iconUrl": "",
                        "isERC1155": false,
                        "isERC721": false,
                        "sign": true,
                        "value": "5101.954321"
                    }
                ]
            }
        ]
    },
    "profile": {
        "basic_info": {
            "baseFee": "117.574620025",
            "blockNumber": 13995792,
            "callData": "0xa9059cbb00000000000000000000000064b3f347abee7451ef2f19e63542e73e0b39d3da000000000000000000000000000000000000000000000004627b1986ee026000",
            "debugEnable": true,
            "errorInfo": "",
            "eventCount": 1,
            "feeRecipient": "0x1ad91ee08f21be3de0ba2ba6918e714da6b45836",
            "formatValue": "0",
            "gasLimit": 250000,
            "gasPrice": "123.967123841",
            "gasUsed": 40346,
            "intTxnCount": 0,
            "internalRevert": false,
            "internalRevertMessage": "",
            "isContractCreation": false,
            "isFlashloan": false,
            "maxFee": "",
            "nonce": 239827,
            "overwritedBlockNumber": -1,
            "priorityFee": "",
            "receiver": "0x2ba592f78db6436527729929aaf6c908497cb200",
            "revertMessage": "",
            "sender": "0xc9f5296eb3ac266c94568d790b6e91eba7d76a11",
            "simulationEnable": true,
            "sourceTxnHash": "0xe011a8117e103435e77835b952936ac5534916291cf5c3932cc45d331dc9964e",
            "status": true,
            "timestamp": "2022-01-13T07:18:59Z",
            "transactionFee": "0.005001577578488986",
            "txnHash": "0xe011a8117e103435e77835b952936ac5534916291cf5c3932cc45d331dc9964e",
            "txnIndex": 10,
            "type": 0,
            "value": "0"
        },
        "fund_flow": [
            {
                "amount": "80.88327",
                "from": "0xc9f5296eb3ac266c94568d790b6e91eba7d76a11",
                "id": 1,
                "isERC1155": false,
                "isERC721": false,
                "isReverted": false,
                "order": 1,
                "to": "0x64b3f347abee7451ef2f19e63542e73e0b39d3da",
                "token": "0x2ba592f78db6436527729929aaf6c908497cb200"
            }
        ],
        "token_infos": [
            {
                "address": "0x2ba592f78db6436527729929aaf6c908497cb200",
                "decimals": 18
            },
            {
                "address": "0xc02aaa39b223fe8d0a0e5c4f27ead9083c756cc2",
                "decimals": 18
            },
            {
                "address": "0xeeeeeeeeeeeeeeeeeeeeeeeeeeeeeeeeeeeeeeee",
                "decimals": 18
            }
        ]
    },
    "address_label": {
        "labels": [
            {
                "address": "0xeeeeeeeeeeeeeeeeeeeeeeeeeeeeeeeeeeeeeeee",
                "label": "Ether"
            },
            {
                "address": "0x2ba592f78db6436527729929aaf6c908497cb200",
                "label": "Cream.Finance: CREAM Token"
            },
            {
                "address": "0xc9f5296eb3ac266c94568d790b6e91eba7d76a11",
                "label": "CEX.IO: hot wallet"
            },
            {
                "address": "0x64b3f347abee7451ef2f19e63542e73e0b39d3da",
                "label": "BINANCE"
            },
            {
                "address": "0x0000000000000000000000000000000000000001",
                "label": "Precompiled"
            },
            {
                "address": "0x0000000000000000000000000000000000000002",
                "label": "Precompiled"
            },
            {
                "address": "0x0000000000000000000000000000000000000003",
                "label": "Precompiled"
            },
            {
                "address": "0x0000000000000000000000000000000000000004",
                "label": "Precompiled"
            }
        ]
    },
    "trace": {
        "accountLabels": null,
        "dataMap": {
            "-1": {
                "invocation": {
                    "address": "0xc9f5296eb3ac266c94568d790b6e91eba7d76a11",
                    "callData": "",
                    "decodedMethod": null,
                    "errorInfo": "",
                    "fromAddress": "",
                    "gasUsed": 0,
                    "id": -1,
                    "methodDecoded": false,
                    "operation": "",
                    "output": "",
                    "revert": false,
                    "revertMessage": "",
                    "selector": "",
                    "status": false,
                    "value": ""
                },
                "nodeType": 0
            },
            "0": {
                "invocation": {
                    "address": "0x2ba592f78db6436527729929aaf6c908497cb200",
                    "callData": "0x00000000000000000000000064b3f347abee7451ef2f19e63542e73e0b39d3da000000000000000000000000000000000000000000000004627b1986ee026000",
                    "decodedMethod": {
                        "callParams": [
                            {
                                "name": "dst",
                                "type": "address",
                                "value": "0x64b3f347abee7451ef2f19e63542e73e0b39d3da"
                            },
                            {
                                "decimalAvailable": true,
                                "name": "rawAmount",
                                "type": "uint256",
                                "value": "80,883,270,000,000,000,000"
                            }
                        ],
                        "constructorArguments": "",
                        "name": "transfer",
                        "returnParams": [
                            {
                                "name": "",
                                "type": "bool",
                                "value": true
                            }
                        ],
                        "signature": "transfer(address,uint256)"
                    },
                    "errorInfo": "",
                    "fromAddress": "0xc9f5296eb3ac266c94568d790b6e91eba7d76a11",
                    "gasUsed": 40346,
                    "id": 0,
                    "methodDecoded": true,
                    "operation": "CALL",
                    "output": "0x0000000000000000000000000000000000000000000000000000000000000001",
                    "revert": false,
                    "revertMessage": "",
                    "selector": "0xa9059cbb",
                    "status": true,
                    "value": "0"
                },
                "nodeType": 0
            },
            "1": {
                "event": {
                    "contract": "0x2ba592f78db6436527729929aaf6c908497cb200",
                    "decodedLog": {
                        "name": "Transfer",
                        "params": [
                            {
                                "name": "from",
                                "type": "address",
                                "value": "0xc9f5296eb3ac266c94568d790b6e91eba7d76a11"
                            },
                            {
                                "name": "to",
                                "type": "address",
                                "value": "0x64b3f347abee7451ef2f19e63542e73e0b39d3da"
                            },
                            {
                                "decimalAvailable": true,
                                "name": "amount",
                                "type": "uint256",
                                "value": "80,883,270,000,000,000,000"
                            }
                        ],
                        "signature": "Transfer(address,address,uint256)"
                    },
                    "id": 1,
                    "logData": "0x000000000000000000000000000000000000000000000004627b1986ee026000",
                    "logDecoded": true,
                    "operation": "EVENT",
                    "revert": false,
                    "status": true,
                    "topics": [
                        "0xddf252ad1be2c89b69c2b068fc378daa952ba7f163c4a11628f55a4df523b3ef",
                        "0x000000000000000000000000c9f5296eb3ac266c94568d790b6e91eba7d76a11",
                        "0x00000000000000000000000064b3f347abee7451ef2f19e63542e73e0b39d3da"
                    ]
                },
                "nodeType": 1
            }
        },
        "gasFlame": [
            {
                "children": [
                    {
                        "children": [
                            {
                                "children": [],
                                "depth": 0,
                                "name": "Initial Gas",
                                "value": 21656
                            },
                            {
                                "children": [],
                                "depth": 0,
                                "name": "Executed Gas",
                                "value": 18690
                            }
                        ],
                        "depth": -1,
                        "name": "Actual Gas Used",
                        "value": 40346
                    },
                    {
                        "children": [],
                        "depth": -1,
                        "name": "Refunded Gas",
                        "value": 0
                    }
                ],
                "depth": -2,
                "name": "Total Gas",
                "value": 40346
            }
        ],
        "isConfirmed": true,
        "mainTrace": [
            {
                "children": [
                    {
                        "children": [
                            {
                                "children": [],
                                "depth": 1,
                                "id": 1,
                                "order": 1
                            }
                        ],
                        "depth": 0,
                        "id": 0,
                        "order": 0
                    }
                ],
                "depth": -1,
                "id": -1,
                "order": -1
            }
        ],
        "mainTraceNodeCount": 2,
        "parentIdMap": {
            "0": -1,
            "1": 0
        },
        "tidyTrace": [
            {
                "children": [
                    {
                        "children": [
                            {
                                "children": [],
                                "depth": 1,
                                "id": 1,
                                "order": 1
                            }
                        ],
                        "depth": 0,
                        "id": 0,
                        "order": 0
                    }
                ],
                "depth": -1,
                "id": -1,
                "order": -1
            }
        ],
        "tidyTraceNodeCount": 2
    },
    "state_change": {
        "stateChanges": [
            {
                "address": "0x2ba592f78db6436527729929aaf6c908497cb200",
                "erc": "ERC-20",
                "slots": [
                    {
                        "current": "0x00000000000000000000000000000000000000000000007cc826a482a163145d",
                        "key": "0x2e3e229823aaf87b2fed2b5ccf576c952d73dbac0ae7b50cf3f7c55999738004",
                        "prev": "0x0000000000000000000000000000000000000000000000812aa1be098f65745d"
                    },
                    {
                        "current": "0x00000000000000000000000000000000000000000000000d0d601a1f3fe90000",
                        "key": "0x76095b3887cb9f3b443feead8420d10ccb5a8a068de709d424be709cdc215281",
                        "prev": "0x000000000000000000000000000000000000000000000008aae5009851e6a000"
                    }
                ],
                "storageVariables": [
                    {
                        "name": "balances",
                        "type": "mapping(address => uint96)",
                        "value": {
                            "pairs": [
                                {
                                    "key": "0x64b3f347abee7451ef2f19e63542e73e0b39d3da",
                                    "value": {
                                        "current": "240771472000000000000",
                                        "prev": "159888202000000000000",
                                        "typeTag": 1
                                    }
                                },
                                {
                                    "key": "0xc9f5296eb3ac266c94568d790b6e91eba7d76a11",
                                    "value": {
                                        "current": "2301818660877645321309",
                                        "prev": "2382701930877645321309",
                                        "typeTag": 1
                                    }
                                }
                            ],
                            "typeTag": 4
                        }
                    }
                ]
            }
        ]
    }
}