{
    "balance_change": {
        "balanceChanges": []
    },
    "profile": {
        "basic_info": {
            "baseFee": "10.006189121",
            "blockNumber": 19068046,
            "callData": "0x41af37630000000000000000000000008bc110db7029197c3621bea8092ab1996d5dd7be000000000000000000000000728b3de78c3bd3e9c970524ca6aae1f8d6a61996000000000000000000000000ed5af388653567af2f388e6224dc7c4b3241c5440000000000000000000000000000000000000000000000000000000000000fc50000000000000000000000000000000000000000000000004b142e562add00000000000000000000000000000000000000000000000000000000000065ad7d2f0000000000000000000000000000000000000000000000000000000000000000000000000000000000000000000000000000000000000000000000000122f4390000000000000000000000000000000000000000000000000000000000002328000000000000000000000000000000000000000000000000000000000003119e0000000000000000000000008bc110db7029197c3621bea8092ab1996d5dd7be000000000000000000000000ed5af388653567af2f388e6224dc7c4b3241c54400000000000000000000000000000000000000000000001c06d0f8d10cf4000000000000000000000000000000000000000000000000000000000000000000000000000000000000000000000000000000000000000000004c53ecdc18a60000000000000000000000000000000000000000000000000000000000000000232800000000000000000000000000000000a74d44584996694ff93e7be43e5571d60000000000000000000000000000000000000000000000000000000066c30c770000000000000000000000000000000000000000000000000000000000000014000000000000000000000000473ca1d29a136b935a96380ea342f296b4eea82c00000000000000000000000000000000000000000000000000000000000002a000000000000000000000000000000000000000000000000000000000000000a2ad3470afe10bd9275b294fb9cc0070d10c4607f980411467a518b12e5f873d6d3e1718f08555644aaf2722fb98873cc2b7b50f00a873e8378df614cc65b3b49f1bac6fef0e975f5c6d699ca4d2af8d73abc3cf1241646d8c7b9bffb23461ac5b0d5b3fc5b2b6b33ae7ad99f725bd054df0decb6a6728dbc0e17613f0ea5de3d5d81c000000000000000000000000000000000000000000000000000000000122f48a000000000000000000000000000000000000000000000000000000000000",
            "debugEnable": true,
            "errorInfo": "",
            "eventCount": 3,
            "feeRecipient": "0x95222290dd7278aa3ddd389cc1e1d165cc4bafe5",
            "formatValue": "0",
            "gasLimit": 200000,
            "gasPrice": "12.006189121",
            "gasUsed": 112770,
            "intTxnCount": 7,
            "internalRevert": false,
            "internalRevertMessage": "",
            "isContractCreation": false,
            "isFlashloan": false,
            "maxFee": "28.609493224",
            "nonce": 78503,
            "overwritedBlockNumber": -1,
            "priorityFee": "2",
            "receiver": "0x29469395eaf6f95920e59f858042f0e28d98a20b",
            "revertMessage": "",
            "sender": "0x6952b0ff1797e2419e13118bb69eae62920558b8",
            "simulationEnable": true,
            "sourceTxnHash": "0xe1fd525bf2ebe9f9f04c870aa2acfb65a8791002ca7194b6da39959576b5189f",
            "status": true,
            "timestamp": "2024-01-23T08:00:11Z",
            "transactionFee": "0.00135393794717517",
            "txnHash": "0xe1fd525bf2ebe9f9f04c870aa2acfb65a8791002ca7194b6da39959576b5189f",
            "txnIndex": 136,
            "type": 2,
            "value": "0"
        },
        "fund_flow": [
            {
                "amount": "5.41",
                "from": "0x8bc110db7029197c3621bea8092ab1996d5dd7be",
                "id": 1,
                "isERC1155": false,
                "isERC721": false,
                "isReverted": false,
                "order": 1,
                "to": "0x8bc110db7029197c3621bea8092ab1996d5dd7be",
                "token": "0x0000000000a39bb272e79075ade125fd351887ac"
            }
        ],
        "token_infos": [
            {
                "address": "0x0000000000a39bb272e79075ade125fd351887ac",
                "decimals": 18
            },
            {
                "address": "0xc02aaa39b223fe8d0a0e5c4f27ead9083c756cc2",
                "decimals": 18
            },
            {
                "address": "0xeeeeeeeeeeeeeeeeeeeeeeeeeeeeeeeeeeeeeeee",
                "decimals": 18
            }
        ]
    },
    "address_label": {
        "labels": [
            {
                "address": "0xeeeeeeeeeeeeeeeeeeeeeeeeeeeeeeeeeeeeeeee",
                "label": "Ether"
            },
            {
                "address": "0x0000000000a39bb272e79075ade125fd351887ac",
                "label": "Blur: Bidding"
            },
            {
                "address": "0xb258ca5559b11cd702f363796522b04d7722ea56",
                "label": "Blend"
            },
            {
                "address": "0x0000000000000000000000000000000000000001",
                "label": "Precompiled"
            },
            {
                "address": "0x0000000000000000000000000000000000000003",
                "label": "Precompiled"
            },
            {
                "address": "0x29469395eaf6f95920e59f858042f0e28d98a20b",
                "label": "Blur: Blend"
            },
            {
                "address": "0x5c55cd67a6bd0d4c315b50cb6cd589bfb080017e",
                "label": "Helpers"
            },
            {
                "address": "0xed5af388653567af2f388e6224dc7c4b3241c544",
                "label": "Azuki: AZUKI Token"
            },
            {
                "address": "0x01a656024de4b89e2d0198bf4d468e8fd2358b17",
                "label": "Blur Pool"
            },
            {
                "address": "0x0000000000000000000000000000000000000002",
                "label": "Precompiled"
            },
            {
                "address": "0x0000000000000000000000000000000000000004",
                "label": "Precompiled"
            }
        ]
    },
    "trace": {
        "accountLabels": null,
        "dataMap": {
            "-1": {
                "invocation": {
                    "address": "0x6952b0ff1797e2419e13118bb69eae62920558b8",
                    "callData": "",
                    "decodedMethod": null,
                    "errorInfo": "",
                    "fromAddress": "",
                    "gasUsed": 0,
                    "id": -1,
                    "methodDecoded": false,
                    "operation": "",
                    "output": "",
                    "revert": false,
                    "revertMessage": "",
                    "selector": "",
                    "status": false,
                    "value": ""
                },
                "nodeType": 0
            },
            "0": {
                "invocation": {
                    "address": "0x29469395eaf6f95920e59f858042f0e28d98a20b",
                    "callData": "0x0000000000000000000000008bc110db7029197c3621bea8092ab1996d5dd7be000000000000000000000000728b3de78c3bd3e9c970524ca6aae1f8d6a61996000000000000000000000000ed5af388653567af2f388e6224dc7c4b3241c5440000000000000000000000000000000000000000000000000000000000000fc50000000000000000000000000000000000000000000000004b142e562add00000000000000000000000000000000000000000000000000000000000065ad7d2f0000000000000000000000000000000000000000000000000000000000000000000000000000000000000000000000000000000000000000000000000122f4390000000000000000000000000000000000000000000000000000000000002328000000000000000000000000000000000000000000000000000000000003119e0000000000000000000000008bc110db7029197c3621bea8092ab1996d5dd7be000000000000000000000000ed5af388653567af2f388e6224dc7c4b3241c54400000000000000000000000000000000000000000000001c06d0f8d10cf4000000000000000000000000000000000000000000000000000000000000000000000000000000000000000000000000000000000000000000004c53ecdc18a60000000000000000000000000000000000000000000000000000000000000000232800000000000000000000000000000000a74d44584996694ff93e7be43e5571d60000000000000000000000000000000000000000000000000000000066c30c770000000000000000000000000000000000000000000000000000000000000014000000000000000000000000473ca1d29a136b935a96380ea342f296b4eea82c00000000000000000000000000000000000000000000000000000000000002a000000000000000000000000000000000000000000000000000000000000000a2ad3470afe10bd9275b294fb9cc0070d10c4607f980411467a518b12e5f873d6d3e1718f08555644aaf2722fb98873cc2b7b50f00a873e8378df614cc65b3b49f1bac6fef0e975f5c6d699ca4d2af8d73abc3cf1241646d8c7b9bffb23461ac5b0d5b3fc5b2b6b33ae7ad99f725bd054df0decb6a6728dbc0e17613f0ea5de3d5d81c000000000000000000000000000000000000000000000000000000000122f48a000000000000000000000000000000000000000000000000000000000000",
                    "decodedMethod": {
                        "callParams": [
                            {
                                "name": "lien",
                                "type": "(address,address,address,uint256,uint256,uint256,uint256,uint256,uint256)",
                                "value": [
                                    {
                                        "name": "lender",
                                        "type": "address",
                                        "value": "0x8bc110db7029197c3621bea8092ab1996d5dd7be"
                                    },
                                    {
                                        "name": "borrower",
                                        "type": "address",
                                        "value": "0x728b3de78c3bd3e9c970524ca6aae1f8d6a61996"
                                    },
                                    {
                                        "name": "collection",
                                        "type": "address",
                                        "value": "0xed5af388653567af2f388e6224dc7c4b3241c544"
                                    },
                                    {
                                        "name": "tokenId",
                                        "type": "uint256",
                                        "value": "4,037"
                                    },
                                    {
                                        "name": "amount",
                                        "type": "uint256",
                                        "value": "5,410,000,000,000,000,000"
                                    },
                                    {
                                        "name": "startTime",
                                        "type": "uint256",
                                        "value": "1,705,868,591"
                                    },
                                    {
                                        "name": "rate",
                                        "type": "uint256",
                                        "value": "0"
                                    },
                                    {
                                        "name": "auctionStartBlock",
                                        "type": "uint256",
                                        "value": "19,067,961"
                                    },
                                    {
                                        "name": "auctionDuration",
                                        "type": "uint256",
                                        "value": "9,000"
                                    }
                                ]
                            },
                            {
                                "name": "lienId",
                                "type": "uint256",
                                "value": "201,118"
                            },
                            {
                                "name": "offer",
                                "type": "(address,address,uint256,uint256,uint256,uint256,uint256,uint256,uint256,address)",
                                "value": [
                                    {
                                        "name": "lender",
                                        "type": "address",
                                        "value": "0x8bc110db7029197c3621bea8092ab1996d5dd7be"
                                    },
                                    {
                                        "name": "collection",
                                        "type": "address",
                                        "value": "0xed5af388653567af2f388e6224dc7c4b3241c544"
                                    },
                                    {
                                        "name": "totalAmount",
                                        "type": "uint256",
                                        "value": "517,000,000,000,000,000,000"
                                    },
                                    {
                                        "name": "minAmount",
                                        "type": "uint256",
                                        "value": "0"
                                    },
                                    {
                                        "name": "maxAmount",
                                        "type": "uint256",
                                        "value": "5,500,000,000,000,000,000"
                                    },
                                    {
                                        "name": "auctionDuration",
                                        "type": "uint256",
                                        "value": "9,000"
                                    },
                                    {
                                        "name": "salt",
                                        "type": "uint256",
                                        "value": "222,382,268,352,893,723,984,816,960,042,268,193,238"
                                    },
                                    {
                                        "name": "expirationTime",
                                        "type": "uint256",
                                        "value": "1,724,058,743"
                                    },
                                    {
                                        "name": "rate",
                                        "type": "uint256",
                                        "value": "20"
                                    },
                                    {
                                        "name": "oracle",
                                        "type": "address",
                                        "value": "0x473ca1d29a136b935a96380ea342f296b4eea82c"
                                    }
                                ]
                            },
                            {
                                "name": "signature",
                                "type": "bytes",
                                "value": "0xad3470afe10bd9275b294fb9cc0070d10c4607f980411467a518b12e5f873d6d3e1718f08555644aaf2722fb98873cc2b7b50f00a873e8378df614cc65b3b49f1bac6fef0e975f5c6d699ca4d2af8d73abc3cf1241646d8c7b9bffb23461ac5b0d5b3fc5b2b6b33ae7ad99f725bd054df0decb6a6728dbc0e17613f0ea5de3d5d81c000000000000000000000000000000000000000000000000000000000122f48a"
                            }
                        ],
                        "constructorArguments": "",
                        "name": "refinanceAuctionByOther",
                        "returnParams": [],
                        "signature": "refinanceAuctionByOther((address,address,address,uint256,uint256,uint256,uint256,uint256,uint256),uint256,(address,address,uint256,uint256,uint256,uint256,uint256,uint256,uint256,address),bytes)"
                    },
                    "errorInfo": "",
                    "fromAddress": "0x6952b0ff1797e2419e13118bb69eae62920558b8",
                    "gasUsed": 112770,
                    "id": 0,
                    "methodDecoded": true,
                    "operation": "CALL",
                    "output": "",
                    "revert": false,
                    "revertMessage": "",
                    "selector": "0x41af3763",
                    "status": true,
                    "value": "0"
                },
                "nodeType": 0
            },
            "1": {
                "invocation": {
                    "address": "0xb258ca5559b11cd702f363796522b04d7722ea56",
                    "callData": "0x0000000000000000000000008bc110db7029197c3621bea8092ab1996d5dd7be000000000000000000000000728b3de78c3bd3e9c970524ca6aae1f8d6a61996000000000000000000000000ed5af388653567af2f388e6224dc7c4b3241c5440000000000000000000000000000000000000000000000000000000000000fc50000000000000000000000000000000000000000000000004b142e562add00000000000000000000000000000000000000000000000000000000000065ad7d2f0000000000000000000000000000000000000000000000000000000000000000000000000000000000000000000000000000000000000000000000000122f4390000000000000000000000000000000000000000000000000000000000002328000000000000000000000000000000000000000000000000000000000003119e0000000000000000000000008bc110db7029197c3621bea8092ab1996d5dd7be000000000000000000000000ed5af388653567af2f388e6224dc7c4b3241c54400000000000000000000000000000000000000000000001c06d0f8d10cf4000000000000000000000000000000000000000000000000000000000000000000000000000000000000000000000000000000000000000000004c53ecdc18a60000000000000000000000000000000000000000000000000000000000000000232800000000000000000000000000000000a74d44584996694ff93e7be43e5571d60000000000000000000000000000000000000000000000000000000066c30c770000000000000000000000000000000000000000000000000000000000000014000000000000000000000000473ca1d29a136b935a96380ea342f296b4eea82c00000000000000000000000000000000000000000000000000000000000002a000000000000000000000000000000000000000000000000000000000000000a2ad3470afe10bd9275b294fb9cc0070d10c4607f980411467a518b12e5f873d6d3e1718f08555644aaf2722fb98873cc2b7b50f00a873e8378df614cc65b3b49f1bac6fef0e975f5c6d699ca4d2af8d73abc3cf1241646d8c7b9bffb23461ac5b0d5b3fc5b2b6b33ae7ad99f725bd054df0decb6a6728dbc0e17613f0ea5de3d5d81c000000000000000000000000000000000000000000000000000000000122f48a000000000000000000000000000000000000000000000000000000000000",
                    "decodedMethod": {
                        "callParams": [
                            {
                                "name": "lien",
                                "type": "(address,address,address,uint256,uint256,uint256,uint256,uint256,uint256)",
                                "value": [
                                    {
                                        "name": "lender",
                                        "type": "address",
                                        "value": "0x8bc110db7029197c3621bea8092ab1996d5dd7be"
                                    },
                                    {
                                        "name": "borrower",
                                        "type": "address",
                                        "value": "0x728b3de78c3bd3e9c970524ca6aae1f8d6a61996"
                                    },
                                    {
                                        "name": "collection",
                                        "type": "address",
                                        "value": "0xed5af388653567af2f388e6224dc7c4b3241c544"
                                    },
                                    {
                                        "name": "tokenId",
                                        "type": "uint256",
                                        "value": "4,037"
                                    },
                                    {
                                        "name": "amount",
                                        "type": "uint256",
                                        "value": "5,410,000,000,000,000,000"
                                    },
                                    {
                                        "name": "startTime",
                                        "type": "uint256",
                                        "value": "1,705,868,591"
                                    },
                                    {
                                        "name": "rate",
                                        "type": "uint256",
                                        "value": "0"
                                    },
                                    {
                                        "name": "auctionStartBlock",
                                        "type": "uint256",
                                        "value": "19,067,961"
                                    },
                                    {
                                        "name": "auctionDuration",
                                        "type": "uint256",
                                        "value": "9,000"
                                    }
                                ]
                            },
                            {
                                "name": "lienId",
                                "type": "uint256",
                                "value": "201,118"
                            },
                            {
                                "name": "offer",
                                "type": "(address,address,uint256,uint256,uint256,uint256,uint256,uint256,uint256,address)",
                                "value": [
                                    {
                                        "name": "lender",
                                        "type": "address",
                                        "value": "0x8bc110db7029197c3621bea8092ab1996d5dd7be"
                                    },
                                    {
                                        "name": "collection",
                                        "type": "address",
                                        "value": "0xed5af388653567af2f388e6224dc7c4b3241c544"
                                    },
                                    {
                                        "name": "totalAmount",
                                        "type": "uint256",
                                        "value": "517,000,000,000,000,000,000"
                                    },
                                    {
                                        "name": "minAmount",
                                        "type": "uint256",
                                        "value": "0"
                                    },
                                    {
                                        "name": "maxAmount",
                                        "type": "uint256",
                                        "value": "5,500,000,000,000,000,000"
                                    },
                                    {
                                        "name": "auctionDuration",
                                        "type": "uint256",
                                        "value": "9,000"
                                    },
                                    {
                                        "name": "salt",
                                        "type": "uint256",
                                        "value": "222,382,268,352,893,723,984,816,960,042,268,193,238"
                                    },
                                    {
                                        "name": "expirationTime",
                                        "type": "uint256",
                                        "value": "1,724,058,743"
                                    },
                                    {
                                        "name": "rate",
                                        "type": "uint256",
                                        "value": "20"
                                    },
                                    {
                                        "name": "oracle",
                                        "type": "address",
                                        "value": "0x473ca1d29a136b935a96380ea342f296b4eea82c"
                                    }
                                ]
                            },
                            {
                                "name": "signature",
                                "type": "bytes",
                                "value": "0xad3470afe10bd9275b294fb9cc0070d10c4607f980411467a518b12e5f873d6d3e1718f08555644aaf2722fb98873cc2b7b50f00a873e8378df614cc65b3b49f1bac6fef0e975f5c6d699ca4d2af8d73abc3cf1241646d8c7b9bffb23461ac5b0d5b3fc5b2b6b33ae7ad99f725bd054df0decb6a6728dbc0e17613f0ea5de3d5d81c000000000000000000000000000000000000000000000000000000000122f48a"
                            }
                        ],
                        "constructorArguments": "",
                        "name": "refinanceAuctionByOther",
                        "returnParams": [],
                        "signature": "refinanceAuctionByOther((address,address,address,uint256,uint256,uint256,uint256,uint256,uint256),uint256,(address,address,uint256,uint256,uint256,uint256,uint256,uint256,uint256,address),bytes)"
                    },
                    "errorInfo": "",
                    "fromAddress": "0x29469395eaf6f95920e59f858042f0e28d98a20b",
                    "gasUsed": 82123,
                    "id": 1,
                    "methodDecoded": true,
                    "operation": "DELEGATECALL",
                    "output": "",
                    "revert": false,
                    "revertMessage": "",
                    "selector": "0x41af3763",
                    "status": true,
                    "value": "0"
                },
                "nodeType": 0
            },
            "10": {
                "event": {
                    "contract": "0x0000000000a39bb272e79075ade125fd351887ac",
                    "decodedLog": {
                        "name": "Transfer",
                        "params": [
                            {
                                "name": "from",
                                "type": "address",
                                "value": "0x8bc110db7029197c3621bea8092ab1996d5dd7be"
                            },
                            {
                                "name": "to",
                                "type": "address",
                                "value": "0x8bc110db7029197c3621bea8092ab1996d5dd7be"
                            },
                            {
                                "decimalAvailable": true,
                                "name": "value",
                                "type": "uint256",
                                "value": "5,410,000,000,000,000,000"
                            }
                        ],
                        "signature": "Transfer(address,address,uint256)"
                    },
                    "id": 10,
                    "logData": "0x0000000000000000000000000000000000000000000000004b142e562add0000",
                    "logDecoded": true,
                    "operation": "EVENT",
                    "revert": false,
                    "status": true,
                    "topics": [
                        "0xddf252ad1be2c89b69c2b068fc378daa952ba7f163c4a11628f55a4df523b3ef",
                        "0x0000000000000000000000008bc110db7029197c3621bea8092ab1996d5dd7be",
                        "0x0000000000000000000000008bc110db7029197c3621bea8092ab1996d5dd7be"
                    ]
                },
                "nodeType": 1
            },
            "2": {
                "invocation": {
                    "address": "0x5c55cd67a6bd0d4c315b50cb6cd589bfb080017e",
                    "callData": "0x000000000000000000000000000000000000000000000000000000000122f43900000000000000000000000000000000000000000000000000000000000023280000000000000000000000000000000000000000000000000000000000000000",
                    "decodedMethod": {
                        "callParams": [
                            {
                                "name": "startBlock",
                                "type": "uint256",
                                "value": "19,067,961"
                            },
                            {
                                "name": "auctionDuration",
                                "type": "uint256",
                                "value": "9,000"
                            },
                            {
                                "name": "oldRate",
                                "type": "uint256",
                                "value": "0"
                            }
                        ],
                        "constructorArguments": "",
                        "name": "calcRefinancingAuctionRate",
                        "returnParams": [
                            {
                                "name": "",
                                "type": "uint256",
                                "value": "23"
                            }
                        ],
                        "signature": "calcRefinancingAuctionRate(uint256,uint256,uint256)"
                    },
                    "errorInfo": "",
                    "fromAddress": "0x29469395eaf6f95920e59f858042f0e28d98a20b",
                    "gasUsed": 3755,
                    "id": 2,
                    "methodDecoded": true,
                    "operation": "DELEGATECALL",
                    "output": "0x0000000000000000000000000000000000000000000000000000000000000017",
                    "revert": false,
                    "revertMessage": "",
                    "selector": "0x7e8c1b2d",
                    "status": true,
                    "value": "0"
                },
                "nodeType": 0
            },
            "3": {
                "invocation": {
                    "address": "0x5c55cd67a6bd0d4c315b50cb6cd589bfb080017e",
                    "callData": "0x0000000000000000000000000000000000000000000000004b142e562add000000000000000000000000000000000000000000000000000000000000000000000000000000000000000000000000000000000000000000000000000065ad7d2f",
                    "decodedMethod": {
                        "callParams": [
                            {
                                "name": "amount",
                                "type": "uint256",
                                "value": "5,410,000,000,000,000,000"
                            },
                            {
                                "name": "rate",
                                "type": "uint256",
                                "value": "0"
                            },
                            {
                                "name": "startTime",
                                "type": "uint256",
                                "value": "1,705,868,591"
                            }
                        ],
                        "constructorArguments": "",
                        "name": "computeCurrentDebt",
                        "returnParams": [
                            {
                                "name": "",
                                "type": "uint256",
                                "value": "5,410,000,000,000,000,000"
                            }
                        ],
                        "signature": "computeCurrentDebt(uint256,uint256,uint256)"
                    },
                    "errorInfo": "",
                    "fromAddress": "0x29469395eaf6f95920e59f858042f0e28d98a20b",
                    "gasUsed": 1468,
                    "id": 3,
                    "methodDecoded": true,
                    "operation": "DELEGATECALL",
                    "output": "0x0000000000000000000000000000000000000000000000004b142e562add0000",
                    "revert": false,
                    "revertMessage": "",
                    "selector": "0x1b70b278",
                    "status": true,
                    "value": "0"
                },
                "nodeType": 0
            },
            "4": {
                "invocation": {
                    "address": "0x0000000000000000000000000000000000000001",
                    "callData": "0x52d00b5bf5176c73a9d5a8116853d8d894d42587293c2a5fc75dc1ba000000000000000000000000000000000000000000000000000000000000001bad3470afe10bd9275b294fb9cc0070d10c4607f980411467a518b12e5f873d6d3e1718f08555644aaf2722fb98873cc2b7b50f00a873e8378df614cc65b3b49f",
                    "decodedMethod": {
                        "callParams": [
                            {
                                "name": "hash",
                                "type": "bytes32",
                                "value": "0x88f01c6e52d00b5bf5176c73a9d5a8116853d8d894d42587293c2a5fc75dc1ba"
                            },
                            {
                                "name": "v",
                                "type": "uint256",
                                "value": "27"
                            },
                            {
                                "name": "r",
                                "type": "bytes32",
                                "value": "0xad3470afe10bd9275b294fb9cc0070d10c4607f980411467a518b12e5f873d6d"
                            },
                            {
                                "name": "s",
                                "type": "bytes32",
                                "value": "0x3e1718f08555644aaf2722fb98873cc2b7b50f00a873e8378df614cc65b3b49f"
                            }
                        ],
                        "constructorArguments": "",
                        "name": "ecrecover",
                        "returnParams": [
                            {
                                "name": "",
                                "type": "address",
                                "value": "0x8bc110db7029197c3621bea8092ab1996d5dd7be"
                            }
                        ],
                        "signature": "ecrecover(bytes32,uint256,bytes32,bytes32)"
                    },
                    "errorInfo": "",
                    "fromAddress": "0x29469395eaf6f95920e59f858042f0e28d98a20b",
                    "gasUsed": 3000,
                    "id": 4,
                    "methodDecoded": true,
                    "operation": "STATICCALL",
                    "output": "0x0000000000000000000000008bc110db7029197c3621bea8092ab1996d5dd7be",
                    "revert": false,
                    "revertMessage": "",
                    "selector": "0x88f01c6e",
                    "status": true,
                    "value": "0"
                },
                "nodeType": 0
            },
            "5": {
                "invocation": {
                    "address": "0x0000000000000000000000000000000000000001",
                    "callData": "0xa7bcac51a8a512e46803365e4fb1aace8d941d358f889839c0ce8ab8000000000000000000000000000000000000000000000000000000000000001cac6fef0e975f5c6d699ca4d2af8d73abc3cf1241646d8c7b9bffb23461ac5b0d5b3fc5b2b6b33ae7ad99f725bd054df0decb6a6728dbc0e17613f0ea5de3d5d8",
                    "decodedMethod": {
                        "callParams": [
                            {
                                "name": "hash",
                                "type": "bytes32",
                                "value": "0x9b2323d5a7bcac51a8a512e46803365e4fb1aace8d941d358f889839c0ce8ab8"
                            },
                            {
                                "name": "v",
                                "type": "uint256",
                                "value": "28"
                            },
                            {
                                "name": "r",
                                "type": "bytes32",
                                "value": "0xac6fef0e975f5c6d699ca4d2af8d73abc3cf1241646d8c7b9bffb23461ac5b0d"
                            },
                            {
                                "name": "s",
                                "type": "bytes32",
                                "value": "0x5b3fc5b2b6b33ae7ad99f725bd054df0decb6a6728dbc0e17613f0ea5de3d5d8"
                            }
                        ],
                        "constructorArguments": "",
                        "name": "ecrecover",
                        "returnParams": [
                            {
                                "name": "",
                                "type": "address",
                                "value": "0x473ca1d29a136b935a96380ea342f296b4eea82c"
                            }
                        ],
                        "signature": "ecrecover(bytes32,uint256,bytes32,bytes32)"
                    },
                    "errorInfo": "",
                    "fromAddress": "0x29469395eaf6f95920e59f858042f0e28d98a20b",
                    "gasUsed": 3000,
                    "id": 5,
                    "methodDecoded": true,
                    "operation": "STATICCALL",
                    "output": "0x000000000000000000000000473ca1d29a136b935a96380ea342f296b4eea82c",
                    "revert": false,
                    "revertMessage": "",
                    "selector": "0x9b2323d5",
                    "status": true,
                    "value": "0"
                },
                "nodeType": 0
            },
            "6": {
                "event": {
                    "contract": "0x29469395eaf6f95920e59f858042f0e28d98a20b",
                    "decodedLog": {
                        "name": "LoanOfferTaken",
                        "params": [
                            {
                                "name": "offerHash",
                                "type": "bytes32",
                                "value": "0xc5d42d5b2f5726dc8d501ccdf25307718eaf1b73f69ff631f74ed03c48318815"
                            },
                            {
                                "name": "lienId",
                                "type": "uint256",
                                "value": "201,118"
                            },
                            {
                                "name": "collection",
                                "type": "address",
                                "value": "0xed5af388653567af2f388e6224dc7c4b3241c544"
                            },
                            {
                                "name": "lender",
                                "type": "address",
                                "value": "0x8bc110db7029197c3621bea8092ab1996d5dd7be"
                            },
                            {
                                "name": "borrower",
                                "type": "address",
                                "value": "0x728b3de78c3bd3e9c970524ca6aae1f8d6a61996"
                            },
                            {
                                "name": "loanAmount",
                                "type": "uint256",
                                "value": "5,410,000,000,000,000,000"
                            },
                            {
                                "name": "rate",
                                "type": "uint256",
                                "value": "20"
                            },
                            {
                                "name": "tokenId",
                                "type": "uint256",
                                "value": "4,037"
                            },
                            {
                                "name": "auctionDuration",
                                "type": "uint256",
                                "value": "9,000"
                            }
                        ],
                        "signature": "LoanOfferTaken(bytes32,uint256,address,address,address,uint256,uint256,uint256,uint256)"
                    },
                    "id": 6,
                    "logData": "0xc5d42d5b2f5726dc8d501ccdf25307718eaf1b73f69ff631f74ed03c48318815000000000000000000000000000000000000000000000000000000000003119e000000000000000000000000ed5af388653567af2f388e6224dc7c4b3241c5440000000000000000000000008bc110db7029197c3621bea8092ab1996d5dd7be000000000000000000000000728b3de78c3bd3e9c970524ca6aae1f8d6a619960000000000000000000000000000000000000000000000004b142e562add000000000000000000000000000000000000000000000000000000000000000000140000000000000000000000000000000000000000000000000000000000000fc50000000000000000000000000000000000000000000000000000000000002328",
                    "logDecoded": true,
                    "operation": "EVENT",
                    "revert": false,
                    "status": true,
                    "topics": [
                        "0x06a333c2d6fe967ca967f7a35be2eb45e8caeb6cf05e16f55d42b91b5fe31255"
                    ]
                },
                "nodeType": 1
            },
            "7": {
                "event": {
                    "contract": "0x29469395eaf6f95920e59f858042f0e28d98a20b",
                    "decodedLog": {
                        "name": "Refinance",
                        "params": [
                            {
                                "name": "loanId",
                                "type": "uint256",
                                "value": "201,118"
                            },
                            {
                                "name": "collateral",
                                "type": "address",
                                "value": "0xed5af388653567af2f388e6224dc7c4b3241c544"
                            },
                            {
                                "name": "newLender",
                                "type": "address",
                                "value": "0x8bc110db7029197c3621bea8092ab1996d5dd7be"
                            },
                            {
                                "name": "newAmount",
                                "type": "uint256",
                                "value": "5,410,000,000,000,000,000"
                            },
                            {
                                "name": "newRate",
                                "type": "uint256",
                                "value": "20"
                            },
                            {
                                "name": "newAuctionDuration",
                                "type": "uint256",
                                "value": "9,000"
                            }
                        ],
                        "signature": "Refinance(uint256,address,address,uint256,uint256,uint256)"
                    },
                    "id": 7,
                    "logData": "0x000000000000000000000000000000000000000000000000000000000003119e000000000000000000000000ed5af388653567af2f388e6224dc7c4b3241c5440000000000000000000000008bc110db7029197c3621bea8092ab1996d5dd7be0000000000000000000000000000000000000000000000004b142e562add000000000000000000000000000000000000000000000000000000000000000000140000000000000000000000000000000000000000000000000000000000002328",
                    "logDecoded": true,
                    "operation": "EVENT",
                    "revert": false,
                    "status": true,
                    "topics": [
                        "0x558a9295c62e9e1b12a21c8fe816f4816a2e0269a53157edbfa16017b11b9ac9"
                    ]
                },
                "nodeType": 1
            },
            "8": {
                "invocation": {
                    "address": "0x0000000000a39bb272e79075ade125fd351887ac",
                    "callData": "0x0000000000000000000000008bc110db7029197c3621bea8092ab1996d5dd7be0000000000000000000000008bc110db7029197c3621bea8092ab1996d5dd7be0000000000000000000000000000000000000000000000004b142e562add0000",
                    "decodedMethod": {
                        "callParams": [
                            {
                                "name": "from",
                                "type": "address",
                                "value": "0x8bc110db7029197c3621bea8092ab1996d5dd7be"
                            },
                            {
                                "name": "to",
                                "type": "address",
                                "value": "0x8bc110db7029197c3621bea8092ab1996d5dd7be"
                            },
                            {
                                "decimalAvailable": true,
                                "name": "amount",
                                "type": "uint256",
                                "value": "5,410,000,000,000,000,000"
                            }
                        ],
                        "constructorArguments": "",
                        "name": "transferFrom",
                        "returnParams": [
                            {
                                "name": "",
                                "type": "bool",
                                "value": true
                            }
                        ],
                        "signature": "transferFrom(address,address,uint256)"
                    },
                    "errorInfo": "",
                    "fromAddress": "0x29469395eaf6f95920e59f858042f0e28d98a20b",
                    "gasUsed": 13064,
                    "id": 8,
                    "methodDecoded": true,
                    "operation": "CALL",
                    "output": "0x0000000000000000000000000000000000000000000000000000000000000001",
                    "revert": false,
                    "revertMessage": "",
                    "selector": "0x23b872dd",
                    "status": true,
                    "value": "0"
                },
                "nodeType": 0
            },
            "9": {
                "invocation": {
                    "address": "0x01a656024de4b89e2d0198bf4d468e8fd2358b17",
                    "callData": "0x0000000000000000000000008bc110db7029197c3621bea8092ab1996d5dd7be0000000000000000000000008bc110db7029197c3621bea8092ab1996d5dd7be0000000000000000000000000000000000000000000000004b142e562add0000",
                    "decodedMethod": {
                        "callParams": [
                            {
                                "name": "from",
                                "type": "address",
                                "value": "0x8bc110db7029197c3621bea8092ab1996d5dd7be"
                            },
                            {
                                "name": "to",
                                "type": "address",
                                "value": "0x8bc110db7029197c3621bea8092ab1996d5dd7be"
                            },
                            {
                                "decimalAvailable": true,
                                "name": "amount",
                                "type": "uint256",
                                "value": "5,410,000,000,000,000,000"
                            }
                        ],
                        "constructorArguments": "",
                        "name": "transferFrom",
                        "returnParams": [
                            {
                                "name": "",
                                "type": "bool",
                                "value": true
                            }
                        ],
                        "signature": "transferFrom(address,address,uint256)"
                    },
                    "errorInfo": "",
                    "fromAddress": "0x0000000000a39bb272e79075ade125fd351887ac",
                    "gasUsed": 8169,
                    "id": 9,
                    "methodDecoded": true,
                    "operation": "DELEGATECALL",
                    "output": "0x0000000000000000000000000000000000000000000000000000000000000001",
                    "revert": false,
                    "revertMessage": "",
                    "selector": "0x23b872dd",
                    "status": true,
                    "value": "0"
                },
                "nodeType": 0
            }
        },
        "gasFlame": [
            {
                "children": [
                    {
                        "children": [
                            {
                                "children": [],
                                "depth": 0,
                                "name": "Initial Gas",
                                "value": 28392
                            },
                            {
                                "children": [
                                    {
                                        "children": [
                                            {
                                                "children": [],
                                                "depth": 2,
                                                "name": "calcRefinancingAuctionRate",
                                                "value": 3755
                                            },
                                            {
                                                "children": [],
                                                "depth": 2,
                                                "name": "computeCurrentDebt",
                                                "value": 1468
                                            },
                                            {
                                                "children": [],
                                                "depth": 2,
                                                "name": "ecrecover",
                                                "value": 3000
                                            },
                                            {
                                                "children": [],
                                                "depth": 2,
                                                "name": "ecrecover",
                                                "value": 3000
                                            },
                                            {
                                                "children": [
                                                    {
                                                        "children": [],
                                                        "depth": 3,
                                                        "name": "transferFrom",
                                                        "value": 8169
                                                    }
                                                ],
                                                "depth": 2,
                                                "name": "transferFrom",
                                                "value": 13064
                                            }
                                        ],
                                        "depth": 1,
                                        "name": "refinanceAuctionByOther",
                                        "value": 82123
                                    }
                                ],
                                "depth": 0,
                                "name": "Executed Gas",
                                "value": 87178
                            }
                        ],
                        "depth": -1,
                        "name": "Actual Gas Used",
                        "value": 112770
                    },
                    {
                        "children": [],
                        "depth": -1,
                        "name": "Refunded Gas",
                        "value": 2800
                    }
                ],
                "depth": -2,
                "name": "Total Gas",
                "value": 115570
            }
        ],
        "isConfirmed": true,
        "mainTrace": [
            {
                "children": [
                    {
                        "children": [
                            {
                                "children": [
                                    {
                                        "children": [],
                                        "depth": 2,
                                        "id": 2,
                                        "order": 2
                                    },
                                    {
                                        "children": [],
                                        "depth": 2,
                                        "id": 3,
                                        "order": 3
                                    },
                                    {
                                        "children": [],
                                        "depth": 2,
                                        "id": 4,
                                        "order": 4
                                    },
                                    {
                                        "children": [],
                                        "depth": 2,
                                        "id": 5,
                                        "order": 5
                                    },
                                    {
                                        "children": [],
                                        "depth": 2,
                                        "id": 6,
                                        "order": 6
                                    },
                                    {
                                        "children": [],
                                        "depth": 2,
                                        "id": 7,
                                        "order": 7
                                    },
                                    {
                                        "children": [
                                            {
                                                "children": [
                                                    {
                                                        "children": [],
                                                        "depth": 4,
                                                        "id": 10,
                                                        "order": 10
                                                    }
                                                ],
                                                "depth": 3,
                                                "id": 9,
                                                "order": 9
                                            }
                                        ],
                                        "depth": 2,
                                        "id": 8,
                                        "order": 8
                                    }
                                ],
                                "depth": 1,
                                "id": 1,
                                "order": 1
                            }
                        ],
                        "depth": 0,
                        "id": 0,
                        "order": 0
                    }
                ],
                "depth": -1,
                "id": -1,
                "order": -1
            }
        ],
        "mainTraceNodeCount": 11,
        "parentIdMap": {
            "0": -1,
            "1": 0,
            "10": 9,
            "2": 1,
            "3": 1,
            "4": 1,
            "5": 1,
            "6": 1,
            "7": 1,
            "8": 1,
            "9": 8
        },
        "tidyTrace": [
            {
                "children": [
                    {
                        "children": [
                            {
                                "children": [
                                    {
                                        "children": [],
                                        "depth": 2,
                                        "id": 2,
                                        "order": 2
                                    },
                                    {
                                        "children": [],
                                        "depth": 2,
                                        "id": 3,
                                        "order": 3
                                    },
                                    {
                                        "children": [],
                                        "depth": 2,
                                        "id": 6,
                                        "order": 6
                                    },
                                    {
                                        "children": [],
                                        "depth": 2,
                                        "id": 7,
                                        "order": 7
                                    },
                                    {
                                        "children": [
                                            {
                                                "children": [
                                                    {
                                                        "children": [],
                                                        "depth": 4,
                                                        "id": 10,
                                                        "order": 10
                                                    }
                                                ],
                                                "depth": 3,
                                                "id": 9,
                                                "order": 9
                                            }
                                        ],
                                        "depth": 2,
                                        "id": 8,
                                        "order": 8
                                    }
                                ],
                                "depth": 1,
                                "id": 1,
                                "order": 1
                            }
                        ],
                        "depth": 0,
                        "id": 0,
                        "order": 0
                    }
                ],
                "depth": -1,
                "id": -1,
                "order": -1
            }
        ],
        "tidyTraceNodeCount": 9
    },
    "state_change": {
        "stateChanges": [
            {
                "address": "0x29469395eaf6f95920e59f858042f0e28d98a20b",
                "erc": "",
                "slots": [
                    {
                        "current": "0x63056d3e7847c639bb8985633c0bd8b7fe5095dcad79065ce1e3697cf72ccd55",
                        "key": "0x7e5db38d157abac1ba74cccc40ca3294be2fa8c4ad6a2f0e0624f8689b9dfbc3",
                        "prev": "0xa60b4af9c034c0ebdebbd450e001511105b341d14e6873037a1c311227e80509"
                    },
                    {
                        "current": "0x0000000000000000000000000000000000000000000000004b142e562add0000",
                        "key": "0xbf17a7d0ab3115b95c2eee91ca0dd19a321a06c45f7cfe82062c3059de7cf378",
                        "prev": "0x0000000000000000000000000000000000000000000000000000000000000000"
                    }
                ],
                "storageVariables": [
                    {
                        "name": "liens",
                        "type": "mapping(uint256 => bytes32)",
                        "value": {
                            "pairs": [
                                {
                                    "key": "201118",
                                    "value": {
                                        "current": "0x63056d3e7847c639bb8985633c0bd8b7fe5095dcad79065ce1e3697cf72ccd55",
                                        "prev": "0xa60b4af9c034c0ebdebbd450e001511105b341d14e6873037a1c311227e80509",
                                        "typeTag": 1
                                    }
                                }
                            ],
                            "typeTag": 4
                        }
                    },
                    {
                        "name": "amountTaken",
                        "type": "mapping(bytes32 => uint256)",
                        "value": {
                            "pairs": [
                                {
                                    "key": "0xc5d42d5b2f5726dc8d501ccdf25307718eaf1b73f69ff631f74ed03c48318815",
                                    "value": {
                                        "current": "5410000000000000000",
                                        "prev": "0",
                                        "typeTag": 1
                                    }
                                }
                            ],
                            "typeTag": 4
                        }
                    }
                ]
            }
        ]
    }
}