{
    "balance_change": {
        "balanceChanges": [
            {
                "account": "0x3b04f7933c231906738a82a5e7da44e8c58ddd44",
                "assets": [
                    {
                        "address": "0x2260fac5e5542a773aa44fbcfedf7c193bc2c599",
                        "amount": "1.32335407",
                        "iconUrl": "https://assets.blocksec.com/icon/878f2983cb21c5816eb5879d9b6f7a3fe2eb6fce7560c367a0315527852a8a84.png",
                        "isERC1155": false,
                        "isERC721": false,
                        "sign": true,
                        "value": "53193.67405"
                    },
                    {
                        "address": "0xa0b86991c6218b36c1d19d4a2e9eb0ce3606eb48",
                        "amount": "30,404.806185",
                        "iconUrl": "https://assets.blocksec.com/icon/0347a86cc07dbd03fdc5db01a4e5ac7e1217f90e0b6e4bb0f75cbcca09160989.png",
                        "isERC1155": false,
                        "isERC721": false,
                        "sign": true,
                        "value": "30404.80618"
                    }
                ]
            },
            {
                "account": "0x99ac8ca7087fa4a2a1fb6357269965a2014abc35",
                "assets": [
                    {
                        "address": "0xa0b86991c6218b36c1d19d4a2e9eb0ce3606eb48",
                        "amount": "30,404.806185",
                        "iconUrl": "https://assets.blocksec.com/icon/0347a86cc07dbd03fdc5db01a4e5ac7e1217f90e0b6e4bb0f75cbcca09160989.png",
                        "isERC1155": false,
                        "isERC721": false,
                        "sign": false,
                        "value": "30404.80618"
                    },
                    {
                        "address": "0x2260fac5e5542a773aa44fbcfedf7c193bc2c599",
                        "amount": "1.32335407",
                        "iconUrl": "https://assets.blocksec.com/icon/878f2983cb21c5816eb5879d9b6f7a3fe2eb6fce7560c367a0315527852a8a84.png",
                        "isERC1155": false,
                        "isERC721": false,
                        "sign": false,
                        "value": "53193.67405"
                    }
                ]
            }
        ]
    },
    "profile": {
        "basic_info": {
            "baseFee": "",
            "blockNumber": 12635339,
            "callData": "0xac9650d8000000000000000000000000000000000000000000000000000000000000002000000000000000000000000000000000000000000000000000000000000000020000000000000000000000000000000000000000000000000000000000000040000000000000000000000000000000000000000000000000000000000000012000000000000000000000000000000000000000000000000000000000000000a40c49ccbe000000000000000000000000000000000000000000000000000000000000b8ad000000000000000000000000000000000000000000000000000000206e901c70000000000000000000000000000000000000000000000000000000000000000000000000000000000000000000000000000000000000000000000000000000000000000000000000000000000000000000000000000000000000000060c7e0d3000000000000000000000000000000000000000000000000000000000000000000000000000000000000000000000000000000000000000000000084fc6f7865000000000000000000000000000000000000000000000000000000000000b8ad0000000000000000000000003b04f7933c231906738a82a5e7da44e8c58ddd4400000000000000000000000000000000ffffffffffffffffffffffffffffffff00000000000000000000000000000000ffffffffffffffffffffffffffffffff00000000000000000000000000000000000000000000000000000000",
            "debugEnable": true,
            "errorInfo": "",
            "eventCount": 6,
            "feeRecipient": "0x5a0b54d5dc17e0aadc383d2db43b0a0d3e029c4c",
            "formatValue": "0",
            "gasLimit": 416042,
            "gasPrice": "12",
            "gasUsed": 225922,
            "intTxnCount": 8,
            "internalRevert": false,
            "internalRevertMessage": "",
            "isContractCreation": false,
            "isFlashloan": false,
            "maxFee": "",
            "nonce": 174,
            "overwritedBlockNumber": -1,
            "priorityFee": "",
            "receiver": "0xc36442b4a4522e871399cd717abdd847ab11fe88",
            "revertMessage": "",
            "sender": "0x3b04f7933c231906738a82a5e7da44e8c58ddd44",
            "simulationEnable": true,
            "sourceTxnHash": "0xe16820886ac48a6a41a89bd1686b28463568b4f81462fd4df4c1046c54e2be19",
            "status": true,
            "timestamp": "2021-06-14T22:36:45Z",
            "transactionFee": "0.002711064",
            "txnHash": "0xe16820886ac48a6a41a89bd1686b28463568b4f81462fd4df4c1046c54e2be19",
            "txnIndex": 59,
            "type": 0,
            "value": "0"
        },
        "fund_flow": [
            {
                "amount": "1.32335407",
                "from": "0x99ac8ca7087fa4a2a1fb6357269965a2014abc35",
                "id": 1,
                "isERC1155": false,
                "isERC721": false,
                "isReverted": false,
                "order": 1,
                "to": "0x3b04f7933c231906738a82a5e7da44e8c58ddd44",
                "token": "0x2260fac5e5542a773aa44fbcfedf7c193bc2c599"
            },
            {
                "amount": "30,404.806185",
                "from": "0x99ac8ca7087fa4a2a1fb6357269965a2014abc35",
                "id": 2,
                "isERC1155": false,
                "isERC721": false,
                "isReverted": false,
                "order": 2,
                "to": "0x3b04f7933c231906738a82a5e7da44e8c58ddd44",
                "token": "0xa0b86991c6218b36c1d19d4a2e9eb0ce3606eb48"
            }
        ],
        "token_infos": [
            {
                "address": "0xa0b86991c6218b36c1d19d4a2e9eb0ce3606eb48",
                "decimals": 6
            },
            {
                "address": "0xc02aaa39b223fe8d0a0e5c4f27ead9083c756cc2",
                "decimals": 18
            },
            {
                "address": "0xeeeeeeeeeeeeeeeeeeeeeeeeeeeeeeeeeeeeeeee",
                "decimals": 18
            },
            {
                "address": "0x2260fac5e5542a773aa44fbcfedf7c193bc2c599",
                "decimals": 8
            }
        ]
    },
    "address_label": {
        "labels": [
            {
                "address": "0xa2327a938febf5fec13bacfb16ae10ecbc4cbdcf",
                "label": "FiatTokenV2_1"
            },
            {
                "address": "0x99ac8ca7087fa4a2a1fb6357269965a2014abc35",
                "label": "Uniswap V3: WBTC-USDC"
            },
            {
                "address": "0x2260fac5e5542a773aa44fbcfedf7c193bc2c599",
                "label": "Wrapped BTC: WBTC Token"
            },
            {
                "address": "0xc36442b4a4522e871399cd717abdd847ab11fe88",
                "label": "Uniswap V3: Positions NFT"
            },
            {
                "address": "0x0000000000000000000000000000000000000001",
                "label": "Precompiled"
            },
            {
                "address": "0x0000000000000000000000000000000000000002",
                "label": "Precompiled"
            },
            {
                "address": "0xeeeeeeeeeeeeeeeeeeeeeeeeeeeeeeeeeeeeeeee",
                "label": "Ether"
            },
            {
                "address": "0xa0b86991c6218b36c1d19d4a2e9eb0ce3606eb48",
                "label": "Circle: USDC Token"
            },
            {
                "address": "0x0000000000000000000000000000000000000003",
                "label": "Precompiled"
            },
            {
                "address": "0x0000000000000000000000000000000000000004",
                "label": "Precompiled"
            }
        ]
    },
    "trace": {
        "accountLabels": null,
        "dataMap": {
            "-1": {
                "invocation": {
                    "address": "0x3b04f7933c231906738a82a5e7da44e8c58ddd44",
                    "callData": "",
                    "decodedMethod": null,
                    "errorInfo": "",
                    "fromAddress": "",
                    "gasUsed": 0,
                    "id": -1,
                    "methodDecoded": false,
                    "operation": "",
                    "output": "",
                    "revert": false,
                    "revertMessage": "",
                    "selector": "",
                    "status": false,
                    "value": ""
                },
                "nodeType": 0
            },
            "0": {
                "invocation": {
                    "address": "0xc36442b4a4522e871399cd717abdd847ab11fe88",
                    "callData": "0x000000000000000000000000000000000000000000000000000000000000002000000000000000000000000000000000000000000000000000000000000000020000000000000000000000000000000000000000000000000000000000000040000000000000000000000000000000000000000000000000000000000000012000000000000000000000000000000000000000000000000000000000000000a40c49ccbe000000000000000000000000000000000000000000000000000000000000b8ad000000000000000000000000000000000000000000000000000000206e901c70000000000000000000000000000000000000000000000000000000000000000000000000000000000000000000000000000000000000000000000000000000000000000000000000000000000000000000000000000000000000000060c7e0d3000000000000000000000000000000000000000000000000000000000000000000000000000000000000000000000000000000000000000000000084fc6f7865000000000000000000000000000000000000000000000000000000000000b8ad0000000000000000000000003b04f7933c231906738a82a5e7da44e8c58ddd4400000000000000000000000000000000ffffffffffffffffffffffffffffffff00000000000000000000000000000000ffffffffffffffffffffffffffffffff00000000000000000000000000000000000000000000000000000000",
                    "decodedMethod": {
                        "callParams": [
                            {
                                "name": "data",
                                "type": "bytes[]",
                                "value": [
                                    "0x0c49ccbe000000000000000000000000000000000000000000000000000000000000b8ad000000000000000000000000000000000000000000000000000000206e901c70000000000000000000000000000000000000000000000000000000000000000000000000000000000000000000000000000000000000000000000000000000000000000000000000000000000000000000000000000000000000000060c7e0d3",
                                    "0xfc6f7865000000000000000000000000000000000000000000000000000000000000b8ad0000000000000000000000003b04f7933c231906738a82a5e7da44e8c58ddd4400000000000000000000000000000000ffffffffffffffffffffffffffffffff00000000000000000000000000000000ffffffffffffffffffffffffffffffff"
                                ]
                            }
                        ],
                        "constructorArguments": "",
                        "name": "multicall",
                        "returnParams": [
                            {
                                "name": "results",
                                "type": "bytes[]",
                                "value": [
                                    "0x0000000000000000000000000000000000000000000000000000000007d9085600000000000000000000000000000000000000000000000000000007062f6f68",
                                    "0x0000000000000000000000000000000000000000000000000000000007e3472f0000000000000000000000000000000000000000000000000000000714448629"
                                ]
                            }
                        ],
                        "signature": "multicall(bytes[])"
                    },
                    "errorInfo": "",
                    "fromAddress": "0x3b04f7933c231906738a82a5e7da44e8c58ddd44",
                    "gasUsed": 225922,
                    "id": 0,
                    "methodDecoded": true,
                    "operation": "CALL",
                    "output": "0x00000000000000000000000000000000000000000000000000000000000000200000000000000000000000000000000000000000000000000000000000000002000000000000000000000000000000000000000000000000000000000000004000000000000000000000000000000000000000000000000000000000000000a000000000000000000000000000000000000000000000000000000000000000400000000000000000000000000000000000000000000000000000000007d9085600000000000000000000000000000000000000000000000000000007062f6f6800000000000000000000000000000000000000000000000000000000000000400000000000000000000000000000000000000000000000000000000007e3472f0000000000000000000000000000000000000000000000000000000714448629",
                    "revert": false,
                    "revertMessage": "",
                    "selector": "0xac9650d8",
                    "status": true,
                    "value": "0"
                },
                "nodeType": 0
            },
            "1": {
                "invocation": {
                    "address": "0xc36442b4a4522e871399cd717abdd847ab11fe88",
                    "callData": "0x000000000000000000000000000000000000000000000000000000000000b8ad000000000000000000000000000000000000000000000000000000206e901c70000000000000000000000000000000000000000000000000000000000000000000000000000000000000000000000000000000000000000000000000000000000000000000000000000000000000000000000000000000000000000060c7e0d3",
                    "decodedMethod": {
                        "callParams": [
                            {
                                "name": "params",
                                "type": "(uint256,uint128,uint256,uint256,uint256)",
                                "value": [
                                    {
                                        "name": "tokenId",
                                        "type": "uint256",
                                        "value": "47,277"
                                    },
                                    {
                                        "name": "liquidity",
                                        "type": "uint128",
                                        "value": "139,293,891,696"
                                    },
                                    {
                                        "name": "amount0Min",
                                        "type": "uint256",
                                        "value": "0"
                                    },
                                    {
                                        "name": "amount1Min",
                                        "type": "uint256",
                                        "value": "0"
                                    },
                                    {
                                        "name": "deadline",
                                        "type": "uint256",
                                        "value": "1,623,711,955"
                                    }
                                ]
                            }
                        ],
                        "constructorArguments": "",
                        "name": "decreaseLiquidity",
                        "returnParams": [
                            {
                                "name": "amount0",
                                "type": "uint256",
                                "value": "131,663,958"
                            },
                            {
                                "name": "amount1",
                                "type": "uint256",
                                "value": "30,168,543,080"
                            }
                        ],
                        "signature": "decreaseLiquidity((uint256,uint128,uint256,uint256,uint256))"
                    },
                    "errorInfo": "",
                    "fromAddress": "0xc36442b4a4522e871399cd717abdd847ab11fe88",
                    "gasUsed": 236364,
                    "id": 1,
                    "methodDecoded": true,
                    "operation": "DELEGATECALL",
                    "output": "0x0000000000000000000000000000000000000000000000000000000007d9085600000000000000000000000000000000000000000000000000000007062f6f68",
                    "revert": false,
                    "revertMessage": "",
                    "selector": "0x0c49ccbe",
                    "status": true,
                    "value": "0"
                },
                "nodeType": 0
            },
            "10": {
                "invocation": {
                    "address": "0xa0b86991c6218b36c1d19d4a2e9eb0ce3606eb48",
                    "callData": "0x0000000000000000000000003b04f7933c231906738a82a5e7da44e8c58ddd440000000000000000000000000000000000000000000000000000000714448629",
                    "decodedMethod": {
                        "callParams": [
                            {
                                "name": "to",
                                "type": "address",
                                "value": "0x3b04f7933c231906738a82a5e7da44e8c58ddd44"
                            },
                            {
                                "decimalAvailable": true,
                                "name": "value",
                                "type": "uint256",
                                "value": "30,404,806,185"
                            }
                        ],
                        "constructorArguments": "",
                        "name": "transfer",
                        "returnParams": [
                            {
                                "name": "",
                                "type": "bool",
                                "value": true
                            }
                        ],
                        "signature": "transfer(address,uint256)"
                    },
                    "errorInfo": "",
                    "fromAddress": "0x99ac8ca7087fa4a2a1fb6357269965a2014abc35",
                    "gasUsed": 26917,
                    "id": 10,
                    "methodDecoded": true,
                    "operation": "CALL",
                    "output": "0x0000000000000000000000000000000000000000000000000000000000000001",
                    "revert": false,
                    "revertMessage": "",
                    "selector": "0xa9059cbb",
                    "status": true,
                    "value": "0"
                },
                "nodeType": 0
            },
            "11": {
                "invocation": {
                    "address": "0xa2327a938febf5fec13bacfb16ae10ecbc4cbdcf",
                    "callData": "0x0000000000000000000000003b04f7933c231906738a82a5e7da44e8c58ddd440000000000000000000000000000000000000000000000000000000714448629",
                    "decodedMethod": {
                        "callParams": [
                            {
                                "name": "to",
                                "type": "address",
                                "value": "0x3b04f7933c231906738a82a5e7da44e8c58ddd44"
                            },
                            {
                                "decimalAvailable": true,
                                "name": "value",
                                "type": "uint256",
                                "value": "30,404,806,185"
                            }
                        ],
                        "constructorArguments": "",
                        "name": "transfer",
                        "returnParams": [
                            {
                                "name": "",
                                "type": "bool",
                                "value": true
                            }
                        ],
                        "signature": "transfer(address,uint256)"
                    },
                    "errorInfo": "",
                    "fromAddress": "0xa0b86991c6218b36c1d19d4a2e9eb0ce3606eb48",
                    "gasUsed": 19628,
                    "id": 11,
                    "methodDecoded": true,
                    "operation": "DELEGATECALL",
                    "output": "0x0000000000000000000000000000000000000000000000000000000000000001",
                    "revert": false,
                    "revertMessage": "",
                    "selector": "0xa9059cbb",
                    "status": true,
                    "value": "0"
                },
                "nodeType": 0
            },
            "12": {
                "event": {
                    "contract": "0xa0b86991c6218b36c1d19d4a2e9eb0ce3606eb48",
                    "decodedLog": {
                        "name": "Transfer",
                        "params": [
                            {
                                "name": "from",
                                "type": "address",
                                "value": "0x99ac8ca7087fa4a2a1fb6357269965a2014abc35"
                            },
                            {
                                "name": "to",
                                "type": "address",
                                "value": "0x3b04f7933c231906738a82a5e7da44e8c58ddd44"
                            },
                            {
                                "decimalAvailable": true,
                                "name": "value",
                                "type": "uint256",
                                "value": "30,404,806,185"
                            }
                        ],
                        "signature": "Transfer(address,address,uint256)"
                    },
                    "id": 12,
                    "logData": "0x0000000000000000000000000000000000000000000000000000000714448629",
                    "logDecoded": true,
                    "operation": "EVENT",
                    "revert": false,
                    "status": true,
                    "topics": [
                        "0xddf252ad1be2c89b69c2b068fc378daa952ba7f163c4a11628f55a4df523b3ef",
                        "0x00000000000000000000000099ac8ca7087fa4a2a1fb6357269965a2014abc35",
                        "0x0000000000000000000000003b04f7933c231906738a82a5e7da44e8c58ddd44"
                    ]
                },
                "nodeType": 1
            },
            "13": {
                "event": {
                    "contract": "0x99ac8ca7087fa4a2a1fb6357269965a2014abc35",
                    "decodedLog": {
                        "name": "Collect",
                        "params": [
                            {
                                "name": "owner",
                                "type": "address",
                                "value": "0xc36442b4a4522e871399cd717abdd847ab11fe88"
                            },
                            {
                                "name": "tickLower",
                                "type": "int24",
                                "value": "59,760"
                            },
                            {
                                "name": "tickUpper",
                                "type": "int24",
                                "value": "60,360"
                            },
                            {
                                "name": "recipient",
                                "type": "address",
                                "value": "0x3b04f7933c231906738a82a5e7da44e8c58ddd44"
                            },
                            {
                                "name": "amount0",
                                "type": "uint128",
                                "value": "132,335,407"
                            },
                            {
                                "name": "amount1",
                                "type": "uint128",
                                "value": "30,404,806,185"
                            }
                        ],
                        "signature": "Collect(address,address,int24,int24,uint128,uint128)"
                    },
                    "id": 13,
                    "logData": "0x0000000000000000000000003b04f7933c231906738a82a5e7da44e8c58ddd440000000000000000000000000000000000000000000000000000000007e3472f0000000000000000000000000000000000000000000000000000000714448629",
                    "logDecoded": true,
                    "operation": "EVENT",
                    "revert": false,
                    "status": true,
                    "topics": [
                        "0x70935338e69775456a85ddef226c395fb668b63fa0115f5f20610b388e6ca9c0",
                        "0x000000000000000000000000c36442b4a4522e871399cd717abdd847ab11fe88",
                        "0x000000000000000000000000000000000000000000000000000000000000e970",
                        "0x000000000000000000000000000000000000000000000000000000000000ebc8"
                    ]
                },
                "nodeType": 1
            },
            "14": {
                "event": {
                    "contract": "0xc36442b4a4522e871399cd717abdd847ab11fe88",
                    "decodedLog": {
                        "name": "Collect",
                        "params": [
                            {
                                "name": "tokenId",
                                "type": "uint256",
                                "value": "47,277"
                            },
                            {
                                "name": "recipient",
                                "type": "address",
                                "value": "0x3b04f7933c231906738a82a5e7da44e8c58ddd44"
                            },
                            {
                                "name": "amount0",
                                "type": "uint256",
                                "value": "132,335,407"
                            },
                            {
                                "name": "amount1",
                                "type": "uint256",
                                "value": "30,404,806,185"
                            }
                        ],
                        "signature": "Collect(uint256,address,uint256,uint256)"
                    },
                    "id": 14,
                    "logData": "0x0000000000000000000000003b04f7933c231906738a82a5e7da44e8c58ddd440000000000000000000000000000000000000000000000000000000007e3472f0000000000000000000000000000000000000000000000000000000714448629",
                    "logDecoded": true,
                    "operation": "EVENT",
                    "revert": false,
                    "status": true,
                    "topics": [
                        "0x40d0efd1a53d60ecbf40971b9daf7dc90178c3aadc7aab1765632738fa8b8f01",
                        "0x000000000000000000000000000000000000000000000000000000000000b8ad"
                    ]
                },
                "nodeType": 1
            },
            "2": {
                "invocation": {
                    "address": "0x99ac8ca7087fa4a2a1fb6357269965a2014abc35",
                    "callData": "0x000000000000000000000000000000000000000000000000000000000000e970000000000000000000000000000000000000000000000000000000000000ebc8000000000000000000000000000000000000000000000000000000206e901c70",
                    "decodedMethod": {
                        "callParams": [
                            {
                                "name": "tickLower",
                                "type": "int24",
                                "value": "59,760"
                            },
                            {
                                "name": "tickUpper",
                                "type": "int24",
                                "value": "60,360"
                            },
                            {
                                "name": "amount",
                                "type": "uint128",
                                "value": "139,293,891,696"
                            }
                        ],
                        "constructorArguments": "",
                        "name": "burn",
                        "returnParams": [
                            {
                                "name": "amount0",
                                "type": "uint256",
                                "value": "131,663,958"
                            },
                            {
                                "name": "amount1",
                                "type": "uint256",
                                "value": "30,168,543,080"
                            }
                        ],
                        "signature": "burn(int24,int24,uint128)"
                    },
                    "errorInfo": "",
                    "fromAddress": "0xc36442b4a4522e871399cd717abdd847ab11fe88",
                    "gasUsed": 142320,
                    "id": 2,
                    "methodDecoded": true,
                    "operation": "CALL",
                    "output": "0x0000000000000000000000000000000000000000000000000000000007d9085600000000000000000000000000000000000000000000000000000007062f6f68",
                    "revert": false,
                    "revertMessage": "",
                    "selector": "0xa34123a7",
                    "status": true,
                    "value": "0"
                },
                "nodeType": 0
            },
            "3": {
                "event": {
                    "contract": "0x99ac8ca7087fa4a2a1fb6357269965a2014abc35",
                    "decodedLog": {
                        "name": "Burn",
                        "params": [
                            {
                                "name": "owner",
                                "type": "address",
                                "value": "0xc36442b4a4522e871399cd717abdd847ab11fe88"
                            },
                            {
                                "name": "tickLower",
                                "type": "int24",
                                "value": "59,760"
                            },
                            {
                                "name": "tickUpper",
                                "type": "int24",
                                "value": "60,360"
                            },
                            {
                                "name": "amount",
                                "type": "uint128",
                                "value": "139,293,891,696"
                            },
                            {
                                "name": "amount0",
                                "type": "uint256",
                                "value": "131,663,958"
                            },
                            {
                                "name": "amount1",
                                "type": "uint256",
                                "value": "30,168,543,080"
                            }
                        ],
                        "signature": "Burn(address,int24,int24,uint128,uint256,uint256)"
                    },
                    "id": 3,
                    "logData": "0x000000000000000000000000000000000000000000000000000000206e901c700000000000000000000000000000000000000000000000000000000007d9085600000000000000000000000000000000000000000000000000000007062f6f68",
                    "logDecoded": true,
                    "operation": "EVENT",
                    "revert": false,
                    "status": true,
                    "topics": [
                        "0x0c396cd989a39f4459b5fa1aed6a9a8dcdbc45908acfd67e028cd568da98982c",
                        "0x000000000000000000000000c36442b4a4522e871399cd717abdd847ab11fe88",
                        "0x000000000000000000000000000000000000000000000000000000000000e970",
                        "0x000000000000000000000000000000000000000000000000000000000000ebc8"
                    ]
                },
                "nodeType": 1
            },
            "4": {
                "invocation": {
                    "address": "0x99ac8ca7087fa4a2a1fb6357269965a2014abc35",
                    "callData": "0x610343aa4ff9fdad7124090491227010c8c89b02e831f9a39ea41fa689e05a38",
                    "decodedMethod": {
                        "callParams": [
                            {
                                "name": "",
                                "type": "bytes32",
                                "value": "0x610343aa4ff9fdad7124090491227010c8c89b02e831f9a39ea41fa689e05a38"
                            }
                        ],
                        "constructorArguments": "",
                        "name": "positions",
                        "returnParams": [
                            {
                                "name": "liquidity",
                                "type": "uint128",
                                "value": "0"
                            },
                            {
                                "name": "feeGrowthInside0LastX128",
                                "type": "uint256",
                                "value": "1,640,291,304,958,396,355,038,412,954,468,026"
                            },
                            {
                                "name": "feeGrowthInside1LastX128",
                                "type": "uint256",
                                "value": "577,169,377,436,452,183,138,750,540,947,415,650"
                            },
                            {
                                "name": "tokensOwed0",
                                "type": "uint128",
                                "value": "132,335,407"
                            },
                            {
                                "name": "tokensOwed1",
                                "type": "uint128",
                                "value": "30,404,806,185"
                            }
                        ],
                        "signature": "positions(bytes32)"
                    },
                    "errorInfo": "",
                    "fromAddress": "0xc36442b4a4522e871399cd717abdd847ab11fe88",
                    "gasUsed": 1013,
                    "id": 4,
                    "methodDecoded": true,
                    "operation": "STATICCALL",
                    "output": "0x000000000000000000000000000000000000000000000000000000000000000000000000000000000000000000000000000050df630e66a0d1e986012734feba00000000000000000000000000000000006f28a5b886bbf10ae77c41988c62620000000000000000000000000000000000000000000000000000000007e3472f0000000000000000000000000000000000000000000000000000000714448629",
                    "revert": false,
                    "revertMessage": "",
                    "selector": "0x514ea4bf",
                    "status": true,
                    "value": "0"
                },
                "nodeType": 0
            },
            "5": {
                "event": {
                    "contract": "0xc36442b4a4522e871399cd717abdd847ab11fe88",
                    "decodedLog": {
                        "name": "DecreaseLiquidity",
                        "params": [
                            {
                                "name": "tokenId",
                                "type": "uint256",
                                "value": "47,277"
                            },
                            {
                                "name": "liquidity",
                                "type": "uint128",
                                "value": "139,293,891,696"
                            },
                            {
                                "name": "amount0",
                                "type": "uint256",
                                "value": "131,663,958"
                            },
                            {
                                "name": "amount1",
                                "type": "uint256",
                                "value": "30,168,543,080"
                            }
                        ],
                        "signature": "DecreaseLiquidity(uint256,uint128,uint256,uint256)"
                    },
                    "id": 5,
                    "logData": "0x000000000000000000000000000000000000000000000000000000206e901c700000000000000000000000000000000000000000000000000000000007d9085600000000000000000000000000000000000000000000000000000007062f6f68",
                    "logDecoded": true,
                    "operation": "EVENT",
                    "revert": false,
                    "status": true,
                    "topics": [
                        "0x26f6a048ee9138f2c0ce266f322cb99228e8d619ae2bff30c67f8dcf9d2377b4",
                        "0x000000000000000000000000000000000000000000000000000000000000b8ad"
                    ]
                },
                "nodeType": 1
            },
            "6": {
                "invocation": {
                    "address": "0xc36442b4a4522e871399cd717abdd847ab11fe88",
                    "callData": "0x000000000000000000000000000000000000000000000000000000000000b8ad0000000000000000000000003b04f7933c231906738a82a5e7da44e8c58ddd4400000000000000000000000000000000ffffffffffffffffffffffffffffffff00000000000000000000000000000000ffffffffffffffffffffffffffffffff",
                    "decodedMethod": {
                        "callParams": [
                            {
                                "name": "params",
                                "type": "(uint256,address,uint128,uint128)",
                                "value": [
                                    {
                                        "name": "tokenId",
                                        "type": "uint256",
                                        "value": "47,277"
                                    },
                                    {
                                        "name": "recipient",
                                        "type": "address",
                                        "value": "0x3b04f7933c231906738a82a5e7da44e8c58ddd44"
                                    },
                                    {
                                        "name": "amount0Max",
                                        "type": "uint128",
                                        "value": "340,282,366,920,938,463,463,374,607,431,768,211,455"
                                    },
                                    {
                                        "name": "amount1Max",
                                        "type": "uint128",
                                        "value": "340,282,366,920,938,463,463,374,607,431,768,211,455"
                                    }
                                ]
                            }
                        ],
                        "constructorArguments": "",
                        "name": "collect",
                        "returnParams": [
                            {
                                "name": "amount0",
                                "type": "uint256",
                                "value": "132,335,407"
                            },
                            {
                                "name": "amount1",
                                "type": "uint256",
                                "value": "30,404,806,185"
                            }
                        ],
                        "signature": "collect((uint256,address,uint128,uint128))"
                    },
                    "errorInfo": "",
                    "fromAddress": "0xc36442b4a4522e871399cd717abdd847ab11fe88",
                    "gasUsed": 82486,
                    "id": 6,
                    "methodDecoded": true,
                    "operation": "DELEGATECALL",
                    "output": "0x0000000000000000000000000000000000000000000000000000000007e3472f0000000000000000000000000000000000000000000000000000000714448629",
                    "revert": false,
                    "revertMessage": "",
                    "selector": "0xfc6f7865",
                    "status": true,
                    "value": "0"
                },
                "nodeType": 0
            },
            "7": {
                "invocation": {
                    "address": "0x99ac8ca7087fa4a2a1fb6357269965a2014abc35",
                    "callData": "0x0000000000000000000000003b04f7933c231906738a82a5e7da44e8c58ddd44000000000000000000000000000000000000000000000000000000000000e970000000000000000000000000000000000000000000000000000000000000ebc80000000000000000000000000000000000000000000000000000000007e3472f0000000000000000000000000000000000000000000000000000000714448629",
                    "decodedMethod": {
                        "callParams": [
                            {
                                "name": "recipient",
                                "type": "address",
                                "value": "0x3b04f7933c231906738a82a5e7da44e8c58ddd44"
                            },
                            {
                                "name": "tickLower",
                                "type": "int24",
                                "value": "59,760"
                            },
                            {
                                "name": "tickUpper",
                                "type": "int24",
                                "value": "60,360"
                            },
                            {
                                "name": "amount0Requested",
                                "type": "uint128",
                                "value": "132,335,407"
                            },
                            {
                                "name": "amount1Requested",
                                "type": "uint128",
                                "value": "30,404,806,185"
                            }
                        ],
                        "constructorArguments": "",
                        "name": "collect",
                        "returnParams": [
                            {
                                "name": "amount0",
                                "type": "uint128",
                                "value": "132,335,407"
                            },
                            {
                                "name": "amount1",
                                "type": "uint128",
                                "value": "30,404,806,185"
                            }
                        ],
                        "signature": "collect(address,int24,int24,uint128,uint128)"
                    },
                    "errorInfo": "",
                    "fromAddress": "0xc36442b4a4522e871399cd717abdd847ab11fe88",
                    "gasUsed": 74845,
                    "id": 7,
                    "methodDecoded": true,
                    "operation": "CALL",
                    "output": "0x0000000000000000000000000000000000000000000000000000000007e3472f0000000000000000000000000000000000000000000000000000000714448629",
                    "revert": false,
                    "revertMessage": "",
                    "selector": "0x4f1eb3d8",
                    "status": true,
                    "value": "0"
                },
                "nodeType": 0
            },
            "8": {
                "invocation": {
                    "address": "0x2260fac5e5542a773aa44fbcfedf7c193bc2c599",
                    "callData": "0x0000000000000000000000003b04f7933c231906738a82a5e7da44e8c58ddd440000000000000000000000000000000000000000000000000000000007e3472f",
                    "decodedMethod": {
                        "callParams": [
                            {
                                "name": "_to",
                                "type": "address",
                                "value": "0x3b04f7933c231906738a82a5e7da44e8c58ddd44"
                            },
                            {
                                "decimalAvailable": true,
                                "name": "_value",
                                "type": "uint256",
                                "value": "132,335,407"
                            }
                        ],
                        "constructorArguments": "",
                        "name": "transfer",
                        "returnParams": [
                            {
                                "name": "",
                                "type": "bool",
                                "value": true
                            }
                        ],
                        "signature": "transfer(address,uint256)"
                    },
                    "errorInfo": "",
                    "fromAddress": "0x99ac8ca7087fa4a2a1fb6357269965a2014abc35",
                    "gasUsed": 32803,
                    "id": 8,
                    "methodDecoded": true,
                    "operation": "CALL",
                    "output": "0x0000000000000000000000000000000000000000000000000000000000000001",
                    "revert": false,
                    "revertMessage": "",
                    "selector": "0xa9059cbb",
                    "status": true,
                    "value": "0"
                },
                "nodeType": 0
            },
            "9": {
                "event": {
                    "contract": "0x2260fac5e5542a773aa44fbcfedf7c193bc2c599",
                    "decodedLog": {
                        "name": "Transfer",
                        "params": [
                            {
                                "name": "from",
                                "type": "address",
                                "value": "0x99ac8ca7087fa4a2a1fb6357269965a2014abc35"
                            },
                            {
                                "name": "to",
                                "type": "address",
                                "value": "0x3b04f7933c231906738a82a5e7da44e8c58ddd44"
                            },
                            {
                                "decimalAvailable": true,
                                "name": "value",
                                "type": "uint256",
                                "value": "132,335,407"
                            }
                        ],
                        "signature": "Transfer(address,address,uint256)"
                    },
                    "id": 9,
                    "logData": "0x0000000000000000000000000000000000000000000000000000000007e3472f",
                    "logDecoded": true,
                    "operation": "EVENT",
                    "revert": false,
                    "status": true,
                    "topics": [
                        "0xddf252ad1be2c89b69c2b068fc378daa952ba7f163c4a11628f55a4df523b3ef",
                        "0x00000000000000000000000099ac8ca7087fa4a2a1fb6357269965a2014abc35",
                        "0x0000000000000000000000003b04f7933c231906738a82a5e7da44e8c58ddd44"
                    ]
                },
                "nodeType": 1
            }
        },
        "gasFlame": [
            {
                "children": [
                    {
                        "children": [
                            {
                                "children": [],
                                "depth": 0,
                                "name": "Initial Gas",
                                "value": 24200
                            },
                            {
                                "children": [
                                    {
                                        "children": [
                                            {
                                                "children": [],
                                                "depth": 2,
                                                "name": "burn",
                                                "value": 142320
                                            },
                                            {
                                                "children": [],
                                                "depth": 2,
                                                "name": "positions",
                                                "value": 1013
                                            }
                                        ],
                                        "depth": 1,
                                        "name": "decreaseLiquidity",
                                        "value": 236364
                                    },
                                    {
                                        "children": [
                                            {
                                                "children": [
                                                    {
                                                        "children": [],
                                                        "depth": 3,
                                                        "name": "transfer",
                                                        "value": 32803
                                                    },
                                                    {
                                                        "children": [
                                                            {
                                                                "children": [],
                                                                "depth": 4,
                                                                "name": "transfer",
                                                                "value": 19628
                                                            }
                                                        ],
                                                        "depth": 3,
                                                        "name": "transfer",
                                                        "value": 26917
                                                    }
                                                ],
                                                "depth": 2,
                                                "name": "collect",
                                                "value": 74845
                                            }
                                        ],
                                        "depth": 1,
                                        "name": "collect",
                                        "value": 82486
                                    }
                                ],
                                "depth": 0,
                                "name": "Executed Gas",
                                "value": 322122
                            }
                        ],
                        "depth": -1,
                        "name": "Actual Gas Used",
                        "value": 225922
                    },
                    {
                        "children": [],
                        "depth": -1,
                        "name": "Refunded Gas",
                        "value": 120400
                    }
                ],
                "depth": -2,
                "name": "Total Gas",
                "value": 346322
            }
        ],
        "isConfirmed": true,
        "mainTrace": [
            {
                "children": [
                    {
                        "children": [
                            {
                                "children": [
                                    {
                                        "children": [
                                            {
                                                "children": [],
                                                "depth": 3,
                                                "id": 3,
                                                "order": 3
                                            }
                                        ],
                                        "depth": 2,
                                        "id": 2,
                                        "order": 2
                                    },
                                    {
                                        "children": [],
                                        "depth": 2,
                                        "id": 4,
                                        "order": 4
                                    },
                                    {
                                        "children": [],
                                        "depth": 2,
                                        "id": 5,
                                        "order": 5
                                    }
                                ],
                                "depth": 1,
                                "id": 1,
                                "order": 1
                            },
                            {
                                "children": [
                                    {
                                        "children": [
                                            {
                                                "children": [
                                                    {
                                                        "children": [],
                                                        "depth": 4,
                                                        "id": 9,
                                                        "order": 9
                                                    }
                                                ],
                                                "depth": 3,
                                                "id": 8,
                                                "order": 8
                                            },
                                            {
                                                "children": [
                                                    {
                                                        "children": [
                                                            {
                                                                "children": [],
                                                                "depth": 5,
                                                                "id": 12,
                                                                "order": 12
                                                            }
                                                        ],
                                                        "depth": 4,
                                                        "id": 11,
                                                        "order": 11
                                                    }
                                                ],
                                                "depth": 3,
                                                "id": 10,
                                                "order": 10
                                            },
                                            {
                                                "children": [],
                                                "depth": 3,
                                                "id": 13,
                                                "order": 13
                                            }
                                        ],
                                        "depth": 2,
                                        "id": 7,
                                        "order": 7
                                    },
                                    {
                                        "children": [],
                                        "depth": 2,
                                        "id": 14,
                                        "order": 14
                                    }
                                ],
                                "depth": 1,
                                "id": 6,
                                "order": 6
                            }
                        ],
                        "depth": 0,
                        "id": 0,
                        "order": 0
                    }
                ],
                "depth": -1,
                "id": -1,
                "order": -1
            }
        ],
        "mainTraceNodeCount": 15,
        "parentIdMap": {
            "0": -1,
            "1": 0,
            "10": 7,
            "11": 10,
            "12": 11,
            "13": 7,
            "14": 6,
            "2": 1,
            "3": 2,
            "4": 1,
            "5": 1,
            "6": 0,
            "7": 6,
            "8": 7,
            "9": 8
        },
        "tidyTrace": [
            {
                "children": [
                    {
                        "children": [
                            {
                                "children": [
                                    {
                                        "children": [
                                            {
                                                "children": [],
                                                "depth": 3,
                                                "id": 3,
                                                "order": 3
                                            }
                                        ],
                                        "depth": 2,
                                        "id": 2,
                                        "order": 2
                                    },
                                    {
                                        "children": [],
                                        "depth": 2,
                                        "id": 5,
                                        "order": 5
                                    }
                                ],
                                "depth": 1,
                                "id": 1,
                                "order": 1
                            },
                            {
                                "children": [
                                    {
                                        "children": [
                                            {
                                                "children": [
                                                    {
                                                        "children": [],
                                                        "depth": 4,
                                                        "id": 9,
                                                        "order": 9
                                                    }
                                                ],
                                                "depth": 3,
                                                "id": 8,
                                                "order": 8
                                            },
                                            {
                                                "children": [
                                                    {
                                                        "children": [
                                                            {
                                                                "children": [],
                                                                "depth": 5,
                                                                "id": 12,
                                                                "order": 12
                                                            }
                                                        ],
                                                        "depth": 4,
                                                        "id": 11,
                                                        "order": 11
                                                    }
                                                ],
                                                "depth": 3,
                                                "id": 10,
                                                "order": 10
                                            },
                                            {
                                                "children": [],
                                                "depth": 3,
                                                "id": 13,
                                                "order": 13
                                            }
                                        ],
                                        "depth": 2,
                                        "id": 7,
                                        "order": 7
                                    },
                                    {
                                        "children": [],
                                        "depth": 2,
                                        "id": 14,
                                        "order": 14
                                    }
                                ],
                                "depth": 1,
                                "id": 6,
                                "order": 6
                            }
                        ],
                        "depth": 0,
                        "id": 0,
                        "order": 0
                    }
                ],
                "depth": -1,
                "id": -1,
                "order": -1
            }
        ],
        "tidyTraceNodeCount": 14
    },
    "state_change": {
        "stateChanges": [
            {
                "address": "0x2260fac5e5542a773aa44fbcfedf7c193bc2c599",
                "erc": "ERC-20",
                "slots": [
                    {
                        "current": "0x0000000000000000000000000000000000000000000000000000000ab7b63d85",
                        "key": "0x28a7973864c343a5aa09aea3ed16f3c54d9aadae64c4013161dc1f558eeeb425",
                        "prev": "0x0000000000000000000000000000000000000000000000000000000abf9984b4"
                    },
                    {
                        "current": "0x0000000000000000000000000000000000000000000000000000000007e3472f",
                        "key": "0xdb8414cf1b10b2c23751ac8ab2755775d7ba9d1d6c350316f03a3624b6110bd5",
                        "prev": "0x0000000000000000000000000000000000000000000000000000000000000000"
                    }
                ],
                "storageVariables": [
                    {
                        "name": "balances",
                        "type": "mapping(address => uint256)",
                        "value": {
                            "pairs": [
                                {
                                    "key": "0x3b04f7933c231906738a82a5e7da44e8c58ddd44",
                                    "value": {
                                        "current": "132335407",
                                        "prev": "0",
                                        "typeTag": 1
                                    }
                                },
                                {
                                    "key": "0x99ac8ca7087fa4a2a1fb6357269965a2014abc35",
                                    "value": {
                                        "current": "46031846789",
                                        "prev": "46164182196",
                                        "typeTag": 1
                                    }
                                }
                            ],
                            "typeTag": 4
                        }
                    }
                ]
            },
            {
                "address": "0x99ac8ca7087fa4a2a1fb6357269965a2014abc35",
                "erc": "",
                "slots": [
                    {
                        "current": "0x0000000000000000000000000000000000000000000000000000000000000000",
                        "key": "0x4630ccff0dac96086e0978c5eac261198f60d3cc1eca14f6cbe79e25371c8d95",
                        "prev": "0x0000000000000000000000206e901c700000000000000000000000206e901c70"
                    },
                    {
                        "current": "0x0000000000000000000000000000000000000000000000000000000000000000",
                        "key": "0x4630ccff0dac96086e0978c5eac261198f60d3cc1eca14f6cbe79e25371c8d96",
                        "prev": "0x00000000000000000000000000000000004596312d0443c4edb273ad3e72e6e1"
                    },
                    {
                        "current": "0x00000000000000000000000000000000006f28a5b886bbf10ae77c41988c6262",
                        "key": "0x54d7b44761edf2dd091a8688abe3631a5a38e84fe403d49fa00c348fe485438a",
                        "prev": "0x0000000000000000000000000000000000000000000000000000000000000000"
                    },
                    {
                        "current": "0x010000000000010d9233129567e189901cca37e818000030ac478c4860c7d9fd",
                        "key": "0x0000000000000000000000000000000000000000000000000000000000000008",
                        "prev": "0x010000000000010d91ce037c3a1e24ccf9b9146810000030a8bd85fa60c7d61f"
                    },
                    {
                        "current": "0xcfbfe1eeaecbfff73bfa3d18d186442204080805010000482000000000000001",
                        "key": "0x75f96ab15d697e93042dc45b5c896c4b27e89bb6eaf39475c5c371cb2513f7d2",
                        "prev": "0xcfbfe1feaecbfff73bfa3d18d186442204080805010000482000000000000001"
                    },
                    {
                        "current": "0x0000000000000000000000000000000000000000000000000000000000000000",
                        "key": "0x4630ccff0dac96086e0978c5eac261198f60d3cc1eca14f6cbe79e25371c8d97",
                        "prev": "0x000000000000000000000000000000006839386db554198457acd27549c5dba7"
                    },
                    {
                        "current": "0xfffffffffffffffffffffffc77cc614300000000000000000000000388339ebd",
                        "key": "0x0cc5b06cf9377c56efac2af61b5274411b81e1325d52decc8e6cb0fd9ebe97f3",
                        "prev": "0xffffffffffffffffffffffdc093c44d3000000000000000000000023f6c3bb2d"
                    },
                    {
                        "current": "0x000000000000000000000000000000000000000000000000000009ab691e0820",
                        "key": "0x0000000000000000000000000000000000000000000000000000000000000004",
                        "prev": "0x000000000000000000000000000000000000000000000000000009cbd7ae2490"
                    },
                    {
                        "current": "0x00000000000000000000000000000000000050df630e66a0d1e986012734feba",
                        "key": "0x54d7b44761edf2dd091a8688abe3631a5a38e84fe403d49fa00c348fe4854389",
                        "prev": "0x0000000000000000000000000000000000000000000000000000000000000000"
                    },
                    {
                        "current": "0x0000000000000000000000000000000000000000000000000000000000000000",
                        "key": "0x54d7b44761edf2dd091a8688abe3631a5a38e84fe403d49fa00c348fe4854388",
                        "prev": "0x000000000000000000000000000000000000000000000000000000206e901c70"
                    },
                    {
                        "current": "0x0000000000000000000000000000000000000000000000000000000000000000",
                        "key": "0x4630ccff0dac96086e0978c5eac261198f60d3cc1eca14f6cbe79e25371c8d98",
                        "prev": "0x0160c75a700000000000010d8562b6e09069e0c9a39dae0390000030378e890f"
                    }
                ],
                "storageVariables": [
                    {
                        "name": "ticks",
                        "type": "mapping(int24 => struct Tick.Info)",
                        "value": {
                            "pairs": [
                                {
                                    "key": "59760",
                                    "value": {
                                        "fields": [
                                            {
                                                "name": "liquidityGross",
                                                "type": "uint128",
                                                "value": {
                                                    "current": "0",
                                                    "prev": "139293891696",
                                                    "typeTag": 1
                                                }
                                            },
                                            {
                                                "name": "liquidityNet",
                                                "type": "int128",
                                                "value": {
                                                    "current": "0",
                                                    "prev": "139293891696",
                                                    "typeTag": 1
                                                }
                                            },
                                            {
                                                "name": "feeGrowthOutside0X128",
                                                "type": "uint256",
                                                "value": {
                                                    "current": "0",
                                                    "prev": "361314740791395232367795261435733729",
                                                    "typeTag": 1
                                                }
                                            },
                                            {
                                                "name": "feeGrowthOutside1X128",
                                                "type": "uint256",
                                                "value": {
                                                    "current": "0",
                                                    "prev": "138536816989493711552139742841420503975",
                                                    "typeTag": 1
                                                }
                                            },
                                            {
                                                "name": "tickCumulativeOutside",
                                                "type": "int56",
                                                "value": {
                                                    "current": "0",
                                                    "prev": "207090518287",
                                                    "typeTag": 1
                                                }
                                            },
                                            {
                                                "name": "secondsPerLiquidityOutsideX128",
                                                "type": "uint160",
                                                "value": {
                                                    "current": "0",
                                                    "prev": "5466536079612632215249884797600656",
                                                    "typeTag": 1
                                                }
                                            },
                                            {
                                                "name": "secondsOutside",
                                                "type": "uint32",
                                                "value": {
                                                    "current": "0",
                                                    "prev": "1623677552",
                                                    "typeTag": 1
                                                }
                                            },
                                            {
                                                "name": "initialized",
                                                "type": "bool",
                                                "value": {
                                                    "current": "false",
                                                    "prev": "true",
                                                    "typeTag": 1
                                                }
                                            }
                                        ],
                                        "typeTag": 3
                                    }
                                },
                                {
                                    "key": "60360",
                                    "value": {
                                        "fields": [
                                            {
                                                "name": "liquidityGross",
                                                "type": "uint128",
                                                "value": {
                                                    "current": "15169986237",
                                                    "prev": "154463877933",
                                                    "typeTag": 1
                                                }
                                            },
                                            {
                                                "name": "liquidityNet",
                                                "type": "int128",
                                                "value": {
                                                    "current": "-15169986237",
                                                    "prev": "-154463877933",
                                                    "typeTag": 1
                                                }
                                            }
                                        ],
                                        "typeTag": 3
                                    }
                                }
                            ],
                            "typeTag": 4
                        }
                    },
                    {
                        "name": "positions",
                        "type": "mapping(bytes32 => struct Position.Info)",
                        "value": {
                            "pairs": [
                                {
                                    "key": "0x610343aa4ff9fdad7124090491227010c8c89b02e831f9a39ea41fa689e05a38",
                                    "value": {
                                        "fields": [
                                            {
                                                "name": "liquidity",
                                                "type": "uint128",
                                                "value": {
                                                    "current": "0",
                                                    "prev": "139293891696",
                                                    "typeTag": 1
                                                }
                                            },
                                            {
                                                "name": "feeGrowthInside0LastX128",
                                                "type": "uint256",
                                                "value": {
                                                    "current": "1640291304958396355038412954468026",
                                                    "prev": "0",
                                                    "typeTag": 1
                                                }
                                            },
                                            {
                                                "name": "feeGrowthInside1LastX128",
                                                "type": "uint256",
                                                "value": {
                                                    "current": "577169377436452183138750540947415650",
                                                    "prev": "0",
                                                    "typeTag": 1
                                                }
                                            }
                                        ],
                                        "typeTag": 3
                                    }
                                }
                            ],
                            "typeTag": 4
                        }
                    },
                    {
                        "name": "observations",
                        "type": "struct Oracle.Observation[65535]",
                        "value": {
                            "elemType": "struct Oracle.Observation",
                            "elems": [
                                {
                                    "index": 0,
                                    "value": {
                                        "fields": [
                                            {
                                                "name": "blockTimestamp",
                                                "type": "uint32",
                                                "value": {
                                                    "current": "1623710205",
                                                    "prev": "1623709215",
                                                    "typeTag": 1
                                                }
                                            },
                                            {
                                                "name": "tickCumulative",
                                                "type": "int56",
                                                "value": {
                                                    "current": "209048800328",
                                                    "prev": "208989423098",
                                                    "typeTag": 1
                                                }
                                            },
                                            {
                                                "name": "secondsPerLiquidityCumulativeX128",
                                                "type": "uint160",
                                                "value": {
                                                    "current": "5467551301311096451258651011180568",
                                                    "prev": "5467520025072313856039323681712144",
                                                    "typeTag": 1
                                                }
                                            },
                                            {
                                                "name": "initialized",
                                                "type": "bool",
                                                "value": {
                                                    "current": "true",
                                                    "prev": "true",
                                                    "typeTag": 1
                                                }
                                            }
                                        ],
                                        "typeTag": 3
                                    }
                                }
                            ],
                            "typeTag": 2
                        }
                    },
                    {
                        "name": "tickBitmap",
                        "type": "mapping(int16 => uint256)",
                        "value": {
                            "pairs": [
                                {
                                    "key": "3",
                                    "value": {
                                        "current": "93967786773912407886662015200421961596591910686716029123456600506471414759425",
                                        "prev": "93967787205271554561072251915094202988906001464910339884105760204129178746881",
                                        "typeTag": 1
                                    }
                                }
                            ],
                            "typeTag": 4
                        }
                    },
                    {
                        "name": "liquidity",
                        "type": "uint128",
                        "value": {
                            "current": "10631807633440",
                            "prev": "10771101525136",
                            "typeTag": 1
                        }
                    }
                ]
            },
            {
                "address": "0xa0b86991c6218b36c1d19d4a2e9eb0ce3606eb48",
                "erc": "ERC-20",
                "slots": [
                    {
                        "current": "0x00000000000000000000000000000000000000000000000000000009311d5f0b",
                        "key": "0xe4b28d1817159a67d8026acba8b3f32f3b1c7f9c15cab8b9bf5c86221c174ce6",
                        "prev": "0x000000000000000000000000000000000000000000000000000000021cd8d8e2"
                    },
                    {
                        "current": "0x00000000000000000000000000000000000000000000000000001c2735120024",
                        "key": "0xb9007c1e9e1ad9733d8edcfdc68640f17341807c1ef085a5e1dec15244f094de",
                        "prev": "0x00000000000000000000000000000000000000000000000000001c2e4956864d"
                    }
                ],
                "storageVariables": [
                    {
                        "name": "balances",
                        "type": "mapping(address => uint256)",
                        "value": {
                            "pairs": [
                                {
                                    "key": "0x3b04f7933c231906738a82a5e7da44e8c58ddd44",
                                    "value": {
                                        "current": "39478714123",
                                        "prev": "9073907938",
                                        "typeTag": 1
                                    }
                                },
                                {
                                    "key": "0x99ac8ca7087fa4a2a1fb6357269965a2014abc35",
                                    "value": {
                                        "current": "30954719674404",
                                        "prev": "30985124480589",
                                        "typeTag": 1
                                    }
                                }
                            ],
                            "typeTag": 4
                        }
                    }
                ]
            },
            {
                "address": "0xc36442b4a4522e871399cd717abdd847ab11fe88",
                "erc": "ERC-721",
                "slots": [
                    {
                        "current": "0x00000000000000000000000000000000000050df630e66a0d1e986012734feba",
                        "key": "0x20bfabdef1e3d41c6ecbf20bfe77041c7230abb84d5afdd5951fe21c2f7a5c2a",
                        "prev": "0x0000000000000000000000000000000000000000000000000000000000000000"
                    },
                    {
                        "current": "0x00000000000000000000000000000000006f28a5b886bbf10ae77c41988c6262",
                        "key": "0x20bfabdef1e3d41c6ecbf20bfe77041c7230abb84d5afdd5951fe21c2f7a5c2b",
                        "prev": "0x0000000000000000000000000000000000000000000000000000000000000000"
                    },
                    {
                        "current": "0x0000000000000000000000000000000000ebc800e9700000000000000000003d",
                        "key": "0x20bfabdef1e3d41c6ecbf20bfe77041c7230abb84d5afdd5951fe21c2f7a5c29",
                        "prev": "0x0000000000000000000000206e901c7000ebc800e9700000000000000000003d"
                    }
                ],
                "storageVariables": [
                    {
                        "name": "_positions",
                        "type": "mapping(uint256 => struct NonfungiblePositionManager.Position)",
                        "value": {
                            "pairs": [
                                {
                                    "key": "47277",
                                    "value": {
                                        "fields": [
                                            {
                                                "name": "poolId",
                                                "type": "uint80",
                                                "value": {
                                                    "current": "61",
                                                    "prev": "61",
                                                    "typeTag": 1
                                                }
                                            },
                                            {
                                                "name": "tickLower",
                                                "type": "int24",
                                                "value": {
                                                    "current": "59760",
                                                    "prev": "59760",
                                                    "typeTag": 1
                                                }
                                            },
                                            {
                                                "name": "tickUpper",
                                                "type": "int24",
                                                "value": {
                                                    "current": "60360",
                                                    "prev": "60360",
                                                    "typeTag": 1
                                                }
                                            },
                                            {
                                                "name": "liquidity",
                                                "type": "uint128",
                                                "value": {
                                                    "current": "0",
                                                    "prev": "139293891696",
                                                    "typeTag": 1
                                                }
                                            },
                                            {
                                                "name": "feeGrowthInside0LastX128",
                                                "type": "uint256",
                                                "value": {
                                                    "current": "1640291304958396355038412954468026",
                                                    "prev": "0",
                                                    "typeTag": 1
                                                }
                                            },
                                            {
                                                "name": "feeGrowthInside1LastX128",
                                                "type": "uint256",
                                                "value": {
                                                    "current": "577169377436452183138750540947415650",
                                                    "prev": "0",
                                                    "typeTag": 1
                                                }
                                            }
                                        ],
                                        "typeTag": 3
                                    }
                                }
                            ],
                            "typeTag": 4
                        }
                    }
                ]
            }
        ]
    }
}