{
    "balance_change": {
        "balanceChanges": [
            {
                "account": "0x9008d19f58aabd9ed0d60971565aa8510560ab41",
                "assets": [
                    {
                        "address": "0xc02aaa39b223fe8d0a0e5c4f27ead9083c756cc2",
                        "amount": "0.064315746751527655",
                        "iconUrl": "https://assets.blocksec.com/icon/f1cb2d02c471d545bbc7722daf3277fd852d98e63d118771af7047bd8256c516.png",
                        "isERC1155": false,
                        "isERC721": false,
                        "sign": true,
                        "value": "180.0655604"
                    },
                    {
                        "address": "0x5a1912749d2b7c3cdb832b81601c8c3f437a0de8",
                        "amount": "19.943703538",
                        "iconUrl": "",
                        "isERC1155": false,
                        "isERC721": false,
                        "sign": true,
                        "value": "66.1619839"
                    },
                    {
                        "address": "0xeeeeeeeeeeeeeeeeeeeeeeeeeeeeeeeeeeeeeeee",
                        "amount": "0.035505848123366675",
                        "iconUrl": "https://assets.blocksec.com/image/1663669189317-3.png",
                        "isERC1155": false,
                        "isERC721": false,
                        "sign": false,
                        "value": "99.40614486"
                    }
                ]
            },
            {
                "account": "0x00000639caea2f4991b946c1f68686e4df700000",
                "assets": [
                    {
                        "address": "0xc02aaa39b223fe8d0a0e5c4f27ead9083c756cc2",
                        "amount": "4.48",
                        "iconUrl": "https://assets.blocksec.com/icon/f1cb2d02c471d545bbc7722daf3277fd852d98e63d118771af7047bd8256c516.png",
                        "isERC1155": false,
                        "isERC721": false,
                        "sign": false,
                        "value": "12542.70923"
                    },
                    {
                        "address": "0x6b175474e89094c44da98b954eedeac495271d0f",
                        "amount": "12,441.046192941775609014",
                        "iconUrl": "https://assets.blocksec.com/icon/39aead569b9c011cb6f69734d9abbc9ab6a80049fe93bbd12bb473a3e0e859a3.png",
                        "isERC1155": false,
                        "isERC721": false,
                        "sign": true,
                        "value": "12441.04619"
                    }
                ]
            },
            {
                "account": "0x2f7896984a19d6860be6f18ccf3e0de7365f28e1",
                "assets": [
                    {
                        "address": "0x5a1912749d2b7c3cdb832b81601c8c3f437a0de8",
                        "amount": "30.056296462",
                        "iconUrl": "",
                        "isERC1155": false,
                        "isERC721": false,
                        "sign": true,
                        "value": "95.32232494"
                    },
                    {
                        "address": "0xc02aaa39b223fe8d0a0e5c4f27ead9083c756cc2",
                        "amount": "0.035505848123366675",
                        "iconUrl": "https://assets.blocksec.com/icon/f1cb2d02c471d545bbc7722daf3277fd852d98e63d118771af7047bd8256c516.png",
                        "isERC1155": false,
                        "isERC721": false,
                        "sign": false,
                        "value": "99.40614486"
                    }
                ]
            },
            {
                "account": "0x96fdfbaf8e576b6b96720a68efb033692e6560d3",
                "assets": [
                    {
                        "address": "0x5a1912749d2b7c3cdb832b81601c8c3f437a0de8",
                        "amount": "50",
                        "iconUrl": "",
                        "isERC1155": false,
                        "isERC721": false,
                        "sign": false,
                        "value": "162.415751"
                    },
                    {
                        "address": "0xeeeeeeeeeeeeeeeeeeeeeeeeeeeeeeeeeeeeeeee",
                        "amount": "0.035505848123366675",
                        "iconUrl": "https://assets.blocksec.com/image/1663669189317-3.png",
                        "isERC1155": false,
                        "isERC721": false,
                        "sign": true,
                        "value": "99.40614486"
                    }
                ]
            },
            {
                "account": "0xba12222222228d8ba445958a75a0704d566bf2c8",
                "assets": [
                    {
                        "address": "0xc02aaa39b223fe8d0a0e5c4f27ead9083c756cc2",
                        "amount": "4.45119010137183902",
                        "iconUrl": "https://assets.blocksec.com/icon/f1cb2d02c471d545bbc7722daf3277fd852d98e63d118771af7047bd8256c516.png",
                        "isERC1155": false,
                        "isERC721": false,
                        "sign": true,
                        "value": "12462.04981"
                    },
                    {
                        "address": "0x6b175474e89094c44da98b954eedeac495271d0f",
                        "amount": "12,441.046192941775609014",
                        "iconUrl": "https://assets.blocksec.com/icon/39aead569b9c011cb6f69734d9abbc9ab6a80049fe93bbd12bb473a3e0e859a3.png",
                        "isERC1155": false,
                        "isERC721": false,
                        "sign": false,
                        "value": "12441.04619"
                    }
                ]
            }
        ]
    },
    "profile": {
        "basic_info": {
            "baseFee": "138.744453117",
            "blockNumber": 14122774,
            "callData": "0x13d79a0b0000000000000000000000000000000000000000000000000000000000000080000000000000000000000000000000000000000000000000000000000000012000000000000000000000000000000000000000000000000000000000000001c000000000000000000000000000000000000000000000000000000000000005e000000000000000000000000000000000000000000000000000000000000000040000000000000000000000005a1912749d2b7c3cdb832b81601c8c3f437a0de80000000000000000000000006b175474e89094c44da98b954eedeac495271d0f000000000000000000000000c02aaa39b223fe8d0a0e5c4f27ead9083c756cc2000000000000000000000000eeeeeeeeeeeeeeeeeeeeeeeeeeeeeeeeeeeeeeee000000000000000000000000000000000000000000000000000000000000000400000000000000000000000000000000000000002f7cde04df3da98f9388db480000000000000000000000000000000000000000000000003dc5cdd050a809300000000000000000000000000000000000000000000002a26e32fcfe286e5cb60000000000000000000000000000000000000000000002a26e32fcfe286e5cb60000000000000000000000000000000000000000000000000000000000000002000000000000000000000000000000000000000000000000000000000000004000000000000000000000000000000000000000000000000000000000000002200000000000000000000000000000000000000000000000000000000000000002000000000000000000000000000000000000000000000000000000000000000100000000000000000000000000000639caea2f4991b946c1f68686e4df7000000000000000000000000000000000000000000000000000003dc5cdd050a8093000000000000000000000000000000000000000000000029fe3e6b21f64bd08760000000000000000000000000000000000000000000000000000000061f9ccb3487b02c558d729abaf3ecf17881a4181e5bc2446429a0995142297e897b6eb3700000000000000000000000000000000000000000000000000665a734117f6d000000000000000000000000000000000000000000000000000000000000000000000000000000000000000000000000000000000000000003dc5cdd050a8093000000000000000000000000000000000000000000000000000000000000001600000000000000000000000000000000000000000000000000000000000000041bd82081d57d3eb916394ce4c507d0d86a1160c1c09fb3e929bd23b8c6c6e75ad7f5e3134e0debf573e08f02edadcb57cefd4417bad233bebf577162a0744464d1b000000000000000000000000000000000000000000000000000000000000000000000000000000000000000000000000000000000000000000000000000000000000000000000000000000000000000000000000000000000000000000000300000000000000000000000096fdfbaf8e576b6b96720a68efb033692e6560d300000000000000000000000000000000000000000000000000000006ff7eb00e000000000000000000000000000000000000000000000000007d83b8de21af650000000000000000000000000000000000000000000000000000000061f9b77e433035597d8bb679d151a88e79bd0804135a51086892e059047d3d1908d08f1000000000000000000000000000000000000000000000000000000004a4bcc3f2000000000000000000000000000000000000000000000000000000000000000000000000000000000000000000000000000000000000000000000006ff7eb00e000000000000000000000000000000000000000000000000000000000000016000000000000000000000000000000000000000000000000000000000000000416f35d9b9f5769fc175b270d4599d01bbe1ef340bd703136d11b5c42aedffc01219a8e0a4d2df9710c17f67a8a0bf3839b2a7f0169450e28b97e34477aa09fbf21b000000000000000000000000000000000000000000000000000000000000000000000000000000000000000000000000000000000000000000000000000060000000000000000000000000000000000000000000000000000000000000008000000000000000000000000000000000000000000000000000000000000005e000000000000000000000000000000000000000000000000000000000000000000000000000000000000000000000000000000000000000000000000000000003000000000000000000000000000000000000000000000000000000000000006000000000000000000000000000000000000000000000000000000000000002c000000000000000000000000000000000000000000000000000000000000003a0000000000000000000000000ba12222222228d8ba445958a75a0704d566bf2c80000000000000000000000000000000000000000000000000000000000000000000000000000000000000000000000000000000000000000000000000000006000000000000000000000000000000000000000000000000000000000000001c452bbbe2900000000000000000000000000000000000000000000000000000000000000e00000000000000000000000009008d19f58aabd9ed0d60971565aa8510560ab4100000000000000000000000000000000000000000000000000000000000000000000000000000000000000009008d19f58aabd9ed0d60971565aa8510560ab4100000000000000000000000000000000000000000000000000000000000000000000000000000000000000000000000000000000000000003dd59e25c579199580000000000000000000000000000000000000000000000000000000000000000b09dea16768f0799065c475be02919503cb2a3500020000000000000000001a0000000000000000000000000000000000000000000000000000000000000001000000000000000000000000c02aaa39b223fe8d0a0e5c4f27ead9083c756cc20000000000000000000000006b175474e89094c44da98b954eedeac495271d0f0000000000000000000000000000000000000000000002a26e32fcfe286e5cb600000000000000000000000000000000000000000000000000000000000000c00000000000000000000000000000000000000000000000000000000000000000000000000000000000000000000000000000000000000000000000000000000000000000000000005a1912749d2b7c3cdb832b81601c8c3f437a0de8000000000000000000000000000000000000000000000000000000000000000000000000000000000000000000000000000000000000000000000000000000600000000000000000000000000000000000000000000000000000000000000044095ea7b30000000000000000000000007a250d5630b4cf539739df2c5dacb4c659f2488dffffffffffffffffffffffffffffffffffffffffffffffffffffffffffffffff000000000000000000000000000000000000000000000000000000000000000000000000000000007a250d5630b4cf539739df2c5dacb4c659f2488d0000000000000000000000000000000000000000000000000000000000000000000000000000000000000000000000000000000000000000000000000000006000000000000000000000000000000000000000000000000000000000000001048803dbee000000000000000000000000000000000000000000000000007e246178d79d130000000000000000000000000000000000000000000000000000000701494f7700000000000000000000000000000000000000000000000000000000000000a00000000000000000000000009008d19f58aabd9ed0d60971565aa8510560ab41ffffffffffffffffffffffffffffffffffffffffffffffffffffffffffffffff00000000000000000000000000000000000000000000000000000000000000020000000000000000000000005a1912749d2b7c3cdb832b81601c8c3f437a0de8000000000000000000000000c02aaa39b223fe8d0a0e5c4f27ead9083c756cc2000000000000000000000000000000000000000000000000000000000000000000000000000000000000000000000000000000000000000000000000",
            "debugEnable": true,
            "errorInfo": "",
            "eventCount": 19,
            "feeRecipient": "0x5b56f09e7d6272fc014f8526a5290700c5bb302b",
            "formatValue": "0",
            "gasLimit": 497047,
            "gasPrice": "149.124223223",
            "gasUsed": 377740,
            "intTxnCount": 21,
            "internalRevert": false,
            "internalRevertMessage": "",
            "isContractCreation": false,
            "isFlashloan": false,
            "maxFee": "272.334533059",
            "nonce": 4328,
            "overwritedBlockNumber": -1,
            "priorityFee": "10.379770106",
            "receiver": "0x9008d19f58aabd9ed0d60971565aa8510560ab41",
            "revertMessage": "",
            "sender": "0x833f076d182123ca8dde2743045ea02957bd61ef",
            "simulationEnable": true,
            "sourceTxnHash": "0xe14cd586202b3db1f3fdb543bc0dd28150f3fb9998427900e3f13215e1deb910",
            "status": true,
            "timestamp": "2022-02-01T22:13:59Z",
            "transactionFee": "0.05633018408025602",
            "txnHash": "0xe14cd586202b3db1f3fdb543bc0dd28150f3fb9998427900e3f13215e1deb910",
            "txnIndex": 0,
            "type": 2,
            "value": "0"
        },
        "fund_flow": [
            {
                "amount": "4.48",
                "from": "0x00000639caea2f4991b946c1f68686e4df700000",
                "id": 1,
                "isERC1155": false,
                "isERC721": false,
                "isReverted": false,
                "order": 1,
                "to": "0x9008d19f58aabd9ed0d60971565aa8510560ab41",
                "token": "0xc02aaa39b223fe8d0a0e5c4f27ead9083c756cc2"
            },
            {
                "amount": "50",
                "from": "0x96fdfbaf8e576b6b96720a68efb033692e6560d3",
                "id": 2,
                "isERC1155": false,
                "isERC721": false,
                "isReverted": false,
                "order": 2,
                "to": "0x9008d19f58aabd9ed0d60971565aa8510560ab41",
                "token": "0x5a1912749d2b7c3cdb832b81601c8c3f437a0de8"
            },
            {
                "amount": "4.45119010137183902",
                "from": "0x9008d19f58aabd9ed0d60971565aa8510560ab41",
                "id": 3,
                "isERC1155": false,
                "isERC721": false,
                "isReverted": false,
                "order": 3,
                "to": "0xba12222222228d8ba445958a75a0704d566bf2c8",
                "token": "0xc02aaa39b223fe8d0a0e5c4f27ead9083c756cc2"
            },
            {
                "amount": "12,441.046192941775609014",
                "from": "0xba12222222228d8ba445958a75a0704d566bf2c8",
                "id": 4,
                "isERC1155": false,
                "isERC721": false,
                "isReverted": false,
                "order": 4,
                "to": "0x9008d19f58aabd9ed0d60971565aa8510560ab41",
                "token": "0x6b175474e89094c44da98b954eedeac495271d0f"
            },
            {
                "amount": "30.056296462",
                "from": "0x9008d19f58aabd9ed0d60971565aa8510560ab41",
                "id": 5,
                "isERC1155": false,
                "isERC721": false,
                "isReverted": false,
                "order": 5,
                "to": "0x2f7896984a19d6860be6f18ccf3e0de7365f28e1",
                "token": "0x5a1912749d2b7c3cdb832b81601c8c3f437a0de8"
            },
            {
                "amount": "0.035505848123366675",
                "from": "0x2f7896984a19d6860be6f18ccf3e0de7365f28e1",
                "id": 6,
                "isERC1155": false,
                "isERC721": false,
                "isReverted": false,
                "order": 6,
                "to": "0x9008d19f58aabd9ed0d60971565aa8510560ab41",
                "token": "0xc02aaa39b223fe8d0a0e5c4f27ead9083c756cc2"
            },
            {
                "amount": "12,441.046192941775609014",
                "from": "0x9008d19f58aabd9ed0d60971565aa8510560ab41",
                "id": 7,
                "isERC1155": false,
                "isERC721": false,
                "isReverted": false,
                "order": 7,
                "to": "0x00000639caea2f4991b946c1f68686e4df700000",
                "token": "0x6b175474e89094c44da98b954eedeac495271d0f"
            },
            {
                "amount": "0.035505848123366675",
                "from": "0x9008d19f58aabd9ed0d60971565aa8510560ab41",
                "id": 8,
                "isERC1155": false,
                "isERC721": false,
                "isReverted": false,
                "order": 8,
                "to": "0x96fdfbaf8e576b6b96720a68efb033692e6560d3",
                "token": "0xeeeeeeeeeeeeeeeeeeeeeeeeeeeeeeeeeeeeeeee"
            }
        ],
        "token_infos": [
            {
                "address": "0x5a1912749d2b7c3cdb832b81601c8c3f437a0de8",
                "decimals": 9
            },
            {
                "address": "0x6b175474e89094c44da98b954eedeac495271d0f",
                "decimals": 18
            },
            {
                "address": "0xc02aaa39b223fe8d0a0e5c4f27ead9083c756cc2",
                "decimals": 18
            },
            {
                "address": "0xeeeeeeeeeeeeeeeeeeeeeeeeeeeeeeeeeeeeeeee",
                "decimals": 18
            }
        ]
    },
    "address_label": {
        "labels": [
            {
                "address": "0x2c4c28ddbdac9c5e7055b4c863b72ea0149d8afe",
                "label": "CoW Protocol: GPv2AllowListAuthentication_Proxy"
            },
            {
                "address": "0x5a1912749d2b7c3cdb832b81601c8c3f437a0de8",
                "label": "FLYZ (FLZ)"
            },
            {
                "address": "0x0000000000000000000000000000000000000001",
                "label": "Precompiled"
            },
            {
                "address": "0x2f7896984a19d6860be6f18ccf3e0de7365f28e1",
                "label": "Uniswap V2: FLZ"
            },
            {
                "address": "0x9e7ae8bdba9aa346739792d219a808884996db67",
                "label": "CoW Protocol: GPv2AllowListAuthentication"
            },
            {
                "address": "0x9008d19f58aabd9ed0d60971565aa8510560ab41",
                "label": "CoW Protocol: GPv2Settlement"
            },
            {
                "address": "0xba12222222228d8ba445958a75a0704d566bf2c8",
                "label": "Balancer: Vault"
            },
            {
                "address": "0x6b175474e89094c44da98b954eedeac495271d0f",
                "label": "Sky: Dai Stablecoin"
            },
            {
                "address": "0xc02aaa39b223fe8d0a0e5c4f27ead9083c756cc2",
                "label": "Wrapped Ether (WETH)"
            },
            {
                "address": "0xc92e8bdf79f0507f65a392b0ab4667716bfe0110",
                "label": "CoW Protocol: GPv2VaultRelayer"
            },
            {
                "address": "0x0b09dea16768f0799065c475be02919503cb2a35",
                "label": "Balancer 60 WETH 40 DAI (B-60WETH-...)"
            },
            {
                "address": "0x0000000000000000000000000000000000000004",
                "label": "Precompiled"
            },
            {
                "address": "0xeeeeeeeeeeeeeeeeeeeeeeeeeeeeeeeeeeeeeeee",
                "label": "Ether"
            },
            {
                "address": "0x0000000000000000000000000000000000000002",
                "label": "Precompiled"
            },
            {
                "address": "0x0000000000000000000000000000000000000003",
                "label": "Precompiled"
            },
            {
                "address": "0x7a250d5630b4cf539739df2c5dacb4c659f2488d",
                "label": "Uniswap V2: Router 2"
            }
        ]
    },
    "trace": {
        "accountLabels": null,
        "dataMap": {
            "-1": {
                "invocation": {
                    "address": "0x833f076d182123ca8dde2743045ea02957bd61ef",
                    "callData": "",
                    "decodedMethod": null,
                    "errorInfo": "",
                    "fromAddress": "",
                    "gasUsed": 0,
                    "id": -1,
                    "methodDecoded": false,
                    "operation": "",
                    "output": "",
                    "revert": false,
                    "revertMessage": "",
                    "selector": "",
                    "status": false,
                    "value": ""
                },
                "nodeType": 0
            },
            "0": {
                "invocation": {
                    "address": "0x9008d19f58aabd9ed0d60971565aa8510560ab41",
                    "callData": "0x0000000000000000000000000000000000000000000000000000000000000080000000000000000000000000000000000000000000000000000000000000012000000000000000000000000000000000000000000000000000000000000001c000000000000000000000000000000000000000000000000000000000000005e000000000000000000000000000000000000000000000000000000000000000040000000000000000000000005a1912749d2b7c3cdb832b81601c8c3f437a0de80000000000000000000000006b175474e89094c44da98b954eedeac495271d0f000000000000000000000000c02aaa39b223fe8d0a0e5c4f27ead9083c756cc2000000000000000000000000eeeeeeeeeeeeeeeeeeeeeeeeeeeeeeeeeeeeeeee000000000000000000000000000000000000000000000000000000000000000400000000000000000000000000000000000000002f7cde04df3da98f9388db480000000000000000000000000000000000000000000000003dc5cdd050a809300000000000000000000000000000000000000000000002a26e32fcfe286e5cb60000000000000000000000000000000000000000000002a26e32fcfe286e5cb60000000000000000000000000000000000000000000000000000000000000002000000000000000000000000000000000000000000000000000000000000004000000000000000000000000000000000000000000000000000000000000002200000000000000000000000000000000000000000000000000000000000000002000000000000000000000000000000000000000000000000000000000000000100000000000000000000000000000639caea2f4991b946c1f68686e4df7000000000000000000000000000000000000000000000000000003dc5cdd050a8093000000000000000000000000000000000000000000000029fe3e6b21f64bd08760000000000000000000000000000000000000000000000000000000061f9ccb3487b02c558d729abaf3ecf17881a4181e5bc2446429a0995142297e897b6eb3700000000000000000000000000000000000000000000000000665a734117f6d000000000000000000000000000000000000000000000000000000000000000000000000000000000000000000000000000000000000000003dc5cdd050a8093000000000000000000000000000000000000000000000000000000000000001600000000000000000000000000000000000000000000000000000000000000041bd82081d57d3eb916394ce4c507d0d86a1160c1c09fb3e929bd23b8c6c6e75ad7f5e3134e0debf573e08f02edadcb57cefd4417bad233bebf577162a0744464d1b000000000000000000000000000000000000000000000000000000000000000000000000000000000000000000000000000000000000000000000000000000000000000000000000000000000000000000000000000000000000000000000300000000000000000000000096fdfbaf8e576b6b96720a68efb033692e6560d300000000000000000000000000000000000000000000000000000006ff7eb00e000000000000000000000000000000000000000000000000007d83b8de21af650000000000000000000000000000000000000000000000000000000061f9b77e433035597d8bb679d151a88e79bd0804135a51086892e059047d3d1908d08f1000000000000000000000000000000000000000000000000000000004a4bcc3f2000000000000000000000000000000000000000000000000000000000000000000000000000000000000000000000000000000000000000000000006ff7eb00e000000000000000000000000000000000000000000000000000000000000016000000000000000000000000000000000000000000000000000000000000000416f35d9b9f5769fc175b270d4599d01bbe1ef340bd703136d11b5c42aedffc01219a8e0a4d2df9710c17f67a8a0bf3839b2a7f0169450e28b97e34477aa09fbf21b000000000000000000000000000000000000000000000000000000000000000000000000000000000000000000000000000000000000000000000000000060000000000000000000000000000000000000000000000000000000000000008000000000000000000000000000000000000000000000000000000000000005e000000000000000000000000000000000000000000000000000000000000000000000000000000000000000000000000000000000000000000000000000000003000000000000000000000000000000000000000000000000000000000000006000000000000000000000000000000000000000000000000000000000000002c000000000000000000000000000000000000000000000000000000000000003a0000000000000000000000000ba12222222228d8ba445958a75a0704d566bf2c80000000000000000000000000000000000000000000000000000000000000000000000000000000000000000000000000000000000000000000000000000006000000000000000000000000000000000000000000000000000000000000001c452bbbe2900000000000000000000000000000000000000000000000000000000000000e00000000000000000000000009008d19f58aabd9ed0d60971565aa8510560ab4100000000000000000000000000000000000000000000000000000000000000000000000000000000000000009008d19f58aabd9ed0d60971565aa8510560ab4100000000000000000000000000000000000000000000000000000000000000000000000000000000000000000000000000000000000000003dd59e25c579199580000000000000000000000000000000000000000000000000000000000000000b09dea16768f0799065c475be02919503cb2a3500020000000000000000001a0000000000000000000000000000000000000000000000000000000000000001000000000000000000000000c02aaa39b223fe8d0a0e5c4f27ead9083c756cc20000000000000000000000006b175474e89094c44da98b954eedeac495271d0f0000000000000000000000000000000000000000000002a26e32fcfe286e5cb600000000000000000000000000000000000000000000000000000000000000c00000000000000000000000000000000000000000000000000000000000000000000000000000000000000000000000000000000000000000000000000000000000000000000000005a1912749d2b7c3cdb832b81601c8c3f437a0de8000000000000000000000000000000000000000000000000000000000000000000000000000000000000000000000000000000000000000000000000000000600000000000000000000000000000000000000000000000000000000000000044095ea7b30000000000000000000000007a250d5630b4cf539739df2c5dacb4c659f2488dffffffffffffffffffffffffffffffffffffffffffffffffffffffffffffffff000000000000000000000000000000000000000000000000000000000000000000000000000000007a250d5630b4cf539739df2c5dacb4c659f2488d0000000000000000000000000000000000000000000000000000000000000000000000000000000000000000000000000000000000000000000000000000006000000000000000000000000000000000000000000000000000000000000001048803dbee000000000000000000000000000000000000000000000000007e246178d79d130000000000000000000000000000000000000000000000000000000701494f7700000000000000000000000000000000000000000000000000000000000000a00000000000000000000000009008d19f58aabd9ed0d60971565aa8510560ab41ffffffffffffffffffffffffffffffffffffffffffffffffffffffffffffffff00000000000000000000000000000000000000000000000000000000000000020000000000000000000000005a1912749d2b7c3cdb832b81601c8c3f437a0de8000000000000000000000000c02aaa39b223fe8d0a0e5c4f27ead9083c756cc2000000000000000000000000000000000000000000000000000000000000000000000000000000000000000000000000000000000000000000000000",
                    "decodedMethod": {
                        "callParams": [
                            {
                                "name": "tokens",
                                "type": "address[]",
                                "value": [
                                    "0x5a1912749d2b7c3cdb832b81601c8c3f437a0de8",
                                    "0x6b175474e89094c44da98b954eedeac495271d0f",
                                    "0xc02aaa39b223fe8d0a0e5c4f27ead9083c756cc2",
                                    "0xeeeeeeeeeeeeeeeeeeeeeeeeeeeeeeeeeeeeeeee"
                                ]
                            },
                            {
                                "name": "clearingPrices",
                                "type": "uint256[]",
                                "value": [
                                    "14,696,750,718,467,805,481,961,839,432",
                                    "4,451,190,101,315,684,656",
                                    "12,441,046,192,941,775,609,014",
                                    "12,441,046,192,941,775,609,014"
                                ]
                            },
                            {
                                "name": "trades",
                                "type": "(uint256,uint256,address,uint256,uint256,uint32,bytes32,uint256,uint256,uint256,bytes)[]",
                                "value": [
                                    [
                                        {
                                            "name": "sellTokenIndex",
                                            "type": "uint256",
                                            "value": "2"
                                        },
                                        {
                                            "name": "buyTokenIndex",
                                            "type": "uint256",
                                            "value": "1"
                                        },
                                        {
                                            "name": "receiver",
                                            "type": "address",
                                            "value": "0x00000639caea2f4991b946c1f68686e4df700000"
                                        },
                                        {
                                            "name": "sellAmount",
                                            "type": "uint256",
                                            "value": "4,451,190,101,315,684,656"
                                        },
                                        {
                                            "name": "buyAmount",
                                            "type": "uint256",
                                            "value": "12,394,187,282,398,266,067,062"
                                        },
                                        {
                                            "name": "validTo",
                                            "type": "uint32",
                                            "value": "1,643,760,819"
                                        },
                                        {
                                            "name": "appData",
                                            "type": "bytes32",
                                            "value": "0x487b02c558d729abaf3ecf17881a4181e5bc2446429a0995142297e897b6eb37"
                                        },
                                        {
                                            "name": "feeAmount",
                                            "type": "uint256",
                                            "value": "28,809,898,684,315,344"
                                        },
                                        {
                                            "name": "flags",
                                            "type": "uint256",
                                            "value": "0"
                                        },
                                        {
                                            "name": "executedAmount",
                                            "type": "uint256",
                                            "value": "4,451,190,101,315,684,656"
                                        },
                                        {
                                            "name": "signature",
                                            "type": "bytes",
                                            "value": "0xbd82081d57d3eb916394ce4c507d0d86a1160c1c09fb3e929bd23b8c6c6e75ad7f5e3134e0debf573e08f02edadcb57cefd4417bad233bebf577162a0744464d1b"
                                        }
                                    ],
                                    [
                                        {
                                            "name": "sellTokenIndex",
                                            "type": "uint256",
                                            "value": "0"
                                        },
                                        {
                                            "name": "buyTokenIndex",
                                            "type": "uint256",
                                            "value": "3"
                                        },
                                        {
                                            "name": "receiver",
                                            "type": "address",
                                            "value": "0x96fdfbaf8e576b6b96720a68efb033692e6560d3"
                                        },
                                        {
                                            "name": "sellAmount",
                                            "type": "uint256",
                                            "value": "30,056,296,462"
                                        },
                                        {
                                            "name": "buyAmount",
                                            "type": "uint256",
                                            "value": "35,329,202,112,802,661"
                                        },
                                        {
                                            "name": "validTo",
                                            "type": "uint32",
                                            "value": "1,643,755,390"
                                        },
                                        {
                                            "name": "appData",
                                            "type": "bytes32",
                                            "value": "0x433035597d8bb679d151a88e79bd0804135a51086892e059047d3d1908d08f10"
                                        },
                                        {
                                            "name": "feeAmount",
                                            "type": "uint256",
                                            "value": "19,943,703,538"
                                        },
                                        {
                                            "name": "flags",
                                            "type": "uint256",
                                            "value": "0"
                                        },
                                        {
                                            "name": "executedAmount",
                                            "type": "uint256",
                                            "value": "30,056,296,462"
                                        },
                                        {
                                            "name": "signature",
                                            "type": "bytes",
                                            "value": "0x6f35d9b9f5769fc175b270d4599d01bbe1ef340bd703136d11b5c42aedffc01219a8e0a4d2df9710c17f67a8a0bf3839b2a7f0169450e28b97e34477aa09fbf21b"
                                        }
                                    ]
                                ]
                            },
                            {
                                "name": "interactions",
                                "type": "(address,uint256,bytes)[][3]",
                                "value": [
                                    [],
                                    [
                                        [
                                            {
                                                "name": "target",
                                                "type": "address",
                                                "value": "0xba12222222228d8ba445958a75a0704d566bf2c8"
                                            },
                                            {
                                                "name": "value",
                                                "type": "uint256",
                                                "value": "0"
                                            },
                                            {
                                                "name": "callData",
                                                "type": "bytes",
                                                "value": "0x52bbbe2900000000000000000000000000000000000000000000000000000000000000e00000000000000000000000009008d19f58aabd9ed0d60971565aa8510560ab4100000000000000000000000000000000000000000000000000000000000000000000000000000000000000009008d19f58aabd9ed0d60971565aa8510560ab4100000000000000000000000000000000000000000000000000000000000000000000000000000000000000000000000000000000000000003dd59e25c579199580000000000000000000000000000000000000000000000000000000000000000b09dea16768f0799065c475be02919503cb2a3500020000000000000000001a0000000000000000000000000000000000000000000000000000000000000001000000000000000000000000c02aaa39b223fe8d0a0e5c4f27ead9083c756cc20000000000000000000000006b175474e89094c44da98b954eedeac495271d0f0000000000000000000000000000000000000000000002a26e32fcfe286e5cb600000000000000000000000000000000000000000000000000000000000000c00000000000000000000000000000000000000000000000000000000000000000"
                                            }
                                        ],
                                        [
                                            {
                                                "name": "target",
                                                "type": "address",
                                                "value": "0x5a1912749d2b7c3cdb832b81601c8c3f437a0de8"
                                            },
                                            {
                                                "name": "value",
                                                "type": "uint256",
                                                "value": "0"
                                            },
                                            {
                                                "name": "callData",
                                                "type": "bytes",
                                                "value": "0x095ea7b30000000000000000000000007a250d5630b4cf539739df2c5dacb4c659f2488dffffffffffffffffffffffffffffffffffffffffffffffffffffffffffffffff"
                                            }
                                        ],
                                        [
                                            {
                                                "name": "target",
                                                "type": "address",
                                                "value": "0x7a250d5630b4cf539739df2c5dacb4c659f2488d"
                                            },
                                            {
                                                "name": "value",
                                                "type": "uint256",
                                                "value": "0"
                                            },
                                            {
                                                "name": "callData",
                                                "type": "bytes",
                                                "value": "0x8803dbee000000000000000000000000000000000000000000000000007e246178d79d130000000000000000000000000000000000000000000000000000000701494f7700000000000000000000000000000000000000000000000000000000000000a00000000000000000000000009008d19f58aabd9ed0d60971565aa8510560ab41ffffffffffffffffffffffffffffffffffffffffffffffffffffffffffffffff00000000000000000000000000000000000000000000000000000000000000020000000000000000000000005a1912749d2b7c3cdb832b81601c8c3f437a0de8000000000000000000000000c02aaa39b223fe8d0a0e5c4f27ead9083c756cc2"
                                            }
                                        ]
                                    ],
                                    []
                                ]
                            }
                        ],
                        "constructorArguments": "",
                        "name": "settle",
                        "returnParams": [],
                        "signature": "settle(address[],uint256[],(uint256,uint256,address,uint256,uint256,uint32,bytes32,uint256,uint256,uint256,bytes)[],(address,uint256,bytes)[][3])"
                    },
                    "errorInfo": "",
                    "fromAddress": "0x833f076d182123ca8dde2743045ea02957bd61ef",
                    "gasUsed": 377740,
                    "id": 0,
                    "methodDecoded": true,
                    "operation": "CALL",
                    "output": "",
                    "revert": false,
                    "revertMessage": "",
                    "selector": "0x13d79a0b",
                    "status": true,
                    "value": "0"
                },
                "nodeType": 0
            },
            "1": {
                "invocation": {
                    "address": "0x2c4c28ddbdac9c5e7055b4c863b72ea0149d8afe",
                    "callData": "0x000000000000000000000000833f076d182123ca8dde2743045ea02957bd61ef",
                    "decodedMethod": {
                        "callParams": [
                            {
                                "name": "prospectiveSolver",
                                "type": "address",
                                "value": "0x833f076d182123ca8dde2743045ea02957bd61ef"
                            }
                        ],
                        "constructorArguments": "",
                        "name": "isSolver",
                        "returnParams": [
                            {
                                "name": "",
                                "type": "bool",
                                "value": true
                            }
                        ],
                        "signature": "isSolver(address)"
                    },
                    "errorInfo": "",
                    "fromAddress": "0x9008d19f58aabd9ed0d60971565aa8510560ab41",
                    "gasUsed": 7365,
                    "id": 1,
                    "methodDecoded": true,
                    "operation": "STATICCALL",
                    "output": "0x0000000000000000000000000000000000000000000000000000000000000001",
                    "revert": false,
                    "revertMessage": "",
                    "selector": "0x02cc250d",
                    "status": true,
                    "value": "0"
                },
                "nodeType": 0
            },
            "10": {
                "invocation": {
                    "address": "0x5a1912749d2b7c3cdb832b81601c8c3f437a0de8",
                    "callData": "0x00000000000000000000000096fdfbaf8e576b6b96720a68efb033692e6560d30000000000000000000000009008d19f58aabd9ed0d60971565aa8510560ab410000000000000000000000000000000000000000000000000000000ba43b7400",
                    "decodedMethod": {
                        "callParams": [
                            {
                                "name": "sender",
                                "type": "address",
                                "value": "0x96fdfbaf8e576b6b96720a68efb033692e6560d3"
                            },
                            {
                                "name": "recipient",
                                "type": "address",
                                "value": "0x9008d19f58aabd9ed0d60971565aa8510560ab41"
                            },
                            {
                                "decimalAvailable": true,
                                "name": "amount",
                                "type": "uint256",
                                "value": "50,000,000,000"
                            }
                        ],
                        "constructorArguments": "",
                        "name": "transferFrom",
                        "returnParams": [
                            {
                                "name": "",
                                "type": "bool",
                                "value": true
                            }
                        ],
                        "signature": "transferFrom(address,address,uint256)"
                    },
                    "errorInfo": "",
                    "fromAddress": "0xc92e8bdf79f0507f65a392b0ab4667716bfe0110",
                    "gasUsed": 37757,
                    "id": 10,
                    "methodDecoded": true,
                    "operation": "CALL",
                    "output": "0x0000000000000000000000000000000000000000000000000000000000000001",
                    "revert": false,
                    "revertMessage": "",
                    "selector": "0x23b872dd",
                    "status": true,
                    "value": "0"
                },
                "nodeType": 0
            },
            "11": {
                "event": {
                    "contract": "0x5a1912749d2b7c3cdb832b81601c8c3f437a0de8",
                    "decodedLog": {
                        "name": "Transfer",
                        "params": [
                            {
                                "name": "from",
                                "type": "address",
                                "value": "0x96fdfbaf8e576b6b96720a68efb033692e6560d3"
                            },
                            {
                                "name": "to",
                                "type": "address",
                                "value": "0x9008d19f58aabd9ed0d60971565aa8510560ab41"
                            },
                            {
                                "decimalAvailable": true,
                                "name": "value",
                                "type": "uint256",
                                "value": "50,000,000,000"
                            }
                        ],
                        "signature": "Transfer(address,address,uint256)"
                    },
                    "id": 11,
                    "logData": "0x0000000000000000000000000000000000000000000000000000000ba43b7400",
                    "logDecoded": true,
                    "operation": "EVENT",
                    "revert": false,
                    "status": true,
                    "topics": [
                        "0xddf252ad1be2c89b69c2b068fc378daa952ba7f163c4a11628f55a4df523b3ef",
                        "0x00000000000000000000000096fdfbaf8e576b6b96720a68efb033692e6560d3",
                        "0x0000000000000000000000009008d19f58aabd9ed0d60971565aa8510560ab41"
                    ]
                },
                "nodeType": 1
            },
            "12": {
                "event": {
                    "contract": "0x5a1912749d2b7c3cdb832b81601c8c3f437a0de8",
                    "decodedLog": {
                        "name": "Approval",
                        "params": [
                            {
                                "name": "owner",
                                "type": "address",
                                "value": "0x96fdfbaf8e576b6b96720a68efb033692e6560d3"
                            },
                            {
                                "name": "spender",
                                "type": "address",
                                "value": "0xc92e8bdf79f0507f65a392b0ab4667716bfe0110"
                            },
                            {
                                "decimalAvailable": true,
                                "name": "value",
                                "type": "uint256",
                                "value": "115,792,089,237,316,195,423,570,985,008,687,907,853,269,984,665,640,564,039,457,584,007,863,129,639,935"
                            }
                        ],
                        "signature": "Approval(address,address,uint256)"
                    },
                    "id": 12,
                    "logData": "0xfffffffffffffffffffffffffffffffffffffffffffffffffffffff45bc48bff",
                    "logDecoded": true,
                    "operation": "EVENT",
                    "revert": false,
                    "status": true,
                    "topics": [
                        "0x8c5be1e5ebec7d5bd14f71427d1e84f3dd0314c0f7b2291e5b200ac8c7c3b925",
                        "0x00000000000000000000000096fdfbaf8e576b6b96720a68efb033692e6560d3",
                        "0x000000000000000000000000c92e8bdf79f0507f65a392b0ab4667716bfe0110"
                    ]
                },
                "nodeType": 1
            },
            "13": {
                "invocation": {
                    "address": "0xba12222222228d8ba445958a75a0704d566bf2c8",
                    "callData": "0x00000000000000000000000000000000000000000000000000000000000000e00000000000000000000000009008d19f58aabd9ed0d60971565aa8510560ab4100000000000000000000000000000000000000000000000000000000000000000000000000000000000000009008d19f58aabd9ed0d60971565aa8510560ab4100000000000000000000000000000000000000000000000000000000000000000000000000000000000000000000000000000000000000003dd59e25c579199580000000000000000000000000000000000000000000000000000000000000000b09dea16768f0799065c475be02919503cb2a3500020000000000000000001a0000000000000000000000000000000000000000000000000000000000000001000000000000000000000000c02aaa39b223fe8d0a0e5c4f27ead9083c756cc20000000000000000000000006b175474e89094c44da98b954eedeac495271d0f0000000000000000000000000000000000000000000002a26e32fcfe286e5cb600000000000000000000000000000000000000000000000000000000000000c00000000000000000000000000000000000000000000000000000000000000000",
                    "decodedMethod": {
                        "callParams": [
                            {
                                "name": "singleSwap",
                                "type": "(bytes32,uint8,address,address,uint256,bytes)",
                                "value": [
                                    {
                                        "name": "poolId",
                                        "type": "bytes32",
                                        "value": "0x0b09dea16768f0799065c475be02919503cb2a3500020000000000000000001a"
                                    },
                                    {
                                        "name": "kind",
                                        "type": "uint8",
                                        "value": "1"
                                    },
                                    {
                                        "name": "assetIn",
                                        "type": "address",
                                        "value": "0xc02aaa39b223fe8d0a0e5c4f27ead9083c756cc2"
                                    },
                                    {
                                        "name": "assetOut",
                                        "type": "address",
                                        "value": "0x6b175474e89094c44da98b954eedeac495271d0f"
                                    },
                                    {
                                        "name": "amount",
                                        "type": "uint256",
                                        "value": "12,441,046,192,941,775,609,014"
                                    },
                                    {
                                        "name": "userData",
                                        "type": "bytes",
                                        "value": "0x"
                                    }
                                ]
                            },
                            {
                                "name": "funds",
                                "type": "(address,bool,address,bool)",
                                "value": [
                                    {
                                        "name": "sender",
                                        "type": "address",
                                        "value": "0x9008d19f58aabd9ed0d60971565aa8510560ab41"
                                    },
                                    {
                                        "name": "fromInternalBalance",
                                        "type": "bool",
                                        "value": false
                                    },
                                    {
                                        "name": "recipient",
                                        "type": "address",
                                        "value": "0x9008d19f58aabd9ed0d60971565aa8510560ab41"
                                    },
                                    {
                                        "name": "toInternalBalance",
                                        "type": "bool",
                                        "value": false
                                    }
                                ]
                            },
                            {
                                "name": "limit",
                                "type": "uint256",
                                "value": "4,455,641,291,417,000,341"
                            },
                            {
                                "name": "deadline",
                                "type": "uint256",
                                "value": "57,896,044,618,658,097,711,785,492,504,343,953,926,634,992,332,820,282,019,728,792,003,956,564,819,968"
                            }
                        ],
                        "constructorArguments": "",
                        "name": "swap",
                        "returnParams": [
                            {
                                "name": "amountCalculated",
                                "type": "uint256",
                                "value": "4,451,190,101,371,839,020"
                            }
                        ],
                        "signature": "swap((bytes32,uint8,address,address,uint256,bytes),(address,bool,address,bool),uint256,uint256)"
                    },
                    "errorInfo": "",
                    "fromAddress": "0x9008d19f58aabd9ed0d60971565aa8510560ab41",
                    "gasUsed": 81207,
                    "id": 13,
                    "methodDecoded": true,
                    "operation": "CALL",
                    "output": "0x0000000000000000000000000000000000000000000000003dc5cdd05400e22c",
                    "revert": false,
                    "revertMessage": "",
                    "selector": "0x52bbbe29",
                    "status": true,
                    "value": "0"
                },
                "nodeType": 0
            },
            "14": {
                "invocation": {
                    "address": "0x0b09dea16768f0799065c475be02919503cb2a35",
                    "callData": "0x00000000000000000000000000000000000000000000000000000000000000600000000000000000000000000000000000000000000003901b4b987e3ac77f6400000000000000000000000000000000000000000019fa634e2b641bc1b5312b0000000000000000000000000000000000000000000000000000000000000001000000000000000000000000c02aaa39b223fe8d0a0e5c4f27ead9083c756cc20000000000000000000000006b175474e89094c44da98b954eedeac495271d0f0000000000000000000000000000000000000000000002a26e32fcfe286e5cb60b09dea16768f0799065c475be02919503cb2a3500020000000000000000001a0000000000000000000000000000000000000000000000000000000000d77eeb0000000000000000000000009008d19f58aabd9ed0d60971565aa8510560ab410000000000000000000000009008d19f58aabd9ed0d60971565aa8510560ab4100000000000000000000000000000000000000000000000000000000000001200000000000000000000000000000000000000000000000000000000000000000",
                    "decodedMethod": {
                        "callParams": [
                            {
                                "name": "request",
                                "type": "(uint8,address,address,uint256,bytes32,uint256,address,address,bytes)",
                                "value": [
                                    {
                                        "name": "kind",
                                        "type": "uint8",
                                        "value": "1"
                                    },
                                    {
                                        "name": "tokenIn",
                                        "type": "address",
                                        "value": "0xc02aaa39b223fe8d0a0e5c4f27ead9083c756cc2"
                                    },
                                    {
                                        "name": "tokenOut",
                                        "type": "address",
                                        "value": "0x6b175474e89094c44da98b954eedeac495271d0f"
                                    },
                                    {
                                        "name": "amount",
                                        "type": "uint256",
                                        "value": "12,441,046,192,941,775,609,014"
                                    },
                                    {
                                        "name": "poolId",
                                        "type": "bytes32",
                                        "value": "0x0b09dea16768f0799065c475be02919503cb2a3500020000000000000000001a"
                                    },
                                    {
                                        "name": "lastChangeBlock",
                                        "type": "uint256",
                                        "value": "14,122,731"
                                    },
                                    {
                                        "name": "from",
                                        "type": "address",
                                        "value": "0x9008d19f58aabd9ed0d60971565aa8510560ab41"
                                    },
                                    {
                                        "name": "to",
                                        "type": "address",
                                        "value": "0x9008d19f58aabd9ed0d60971565aa8510560ab41"
                                    },
                                    {
                                        "name": "userData",
                                        "type": "bytes",
                                        "value": "0x"
                                    }
                                ]
                            },
                            {
                                "name": "balanceTokenIn",
                                "type": "uint256",
                                "value": "16,825,397,428,553,307,881,316"
                            },
                            {
                                "name": "balanceTokenOut",
                                "type": "uint256",
                                "value": "31,405,568,971,452,267,250,397,483"
                            }
                        ],
                        "constructorArguments": "",
                        "name": "onSwap",
                        "returnParams": [
                            {
                                "name": "",
                                "type": "uint256",
                                "value": "4,451,190,101,371,839,020"
                            }
                        ],
                        "signature": "onSwap((uint8,address,address,uint256,bytes32,uint256,address,address,bytes),uint256,uint256)"
                    },
                    "errorInfo": "",
                    "fromAddress": "0xba12222222228d8ba445958a75a0704d566bf2c8",
                    "gasUsed": 25880,
                    "id": 14,
                    "methodDecoded": true,
                    "operation": "CALL",
                    "output": "0x0000000000000000000000000000000000000000000000003dc5cdd05400e22c",
                    "revert": false,
                    "revertMessage": "",
                    "selector": "0x9d2c110c",
                    "status": true,
                    "value": "0"
                },
                "nodeType": 0
            },
            "15": {
                "event": {
                    "contract": "0xba12222222228d8ba445958a75a0704d566bf2c8",
                    "decodedLog": {
                        "name": "Swap",
                        "params": [
                            {
                                "name": "poolId",
                                "type": "bytes32",
                                "value": "0x0b09dea16768f0799065c475be02919503cb2a3500020000000000000000001a"
                            },
                            {
                                "name": "tokenIn",
                                "type": "address",
                                "value": "0xc02aaa39b223fe8d0a0e5c4f27ead9083c756cc2"
                            },
                            {
                                "name": "tokenOut",
                                "type": "address",
                                "value": "0x6b175474e89094c44da98b954eedeac495271d0f"
                            },
                            {
                                "name": "amountIn",
                                "type": "uint256",
                                "value": "4,451,190,101,371,839,020"
                            },
                            {
                                "name": "amountOut",
                                "type": "uint256",
                                "value": "12,441,046,192,941,775,609,014"
                            }
                        ],
                        "signature": "Swap(bytes32,address,address,uint256,uint256)"
                    },
                    "id": 15,
                    "logData": "0x0000000000000000000000000000000000000000000000003dc5cdd05400e22c0000000000000000000000000000000000000000000002a26e32fcfe286e5cb6",
                    "logDecoded": true,
                    "operation": "EVENT",
                    "revert": false,
                    "status": true,
                    "topics": [
                        "0x2170c741c41531aec20e7c107c24eecfdd15e69c9bb0a8dd37b1840b9e0b207b",
                        "0x0b09dea16768f0799065c475be02919503cb2a3500020000000000000000001a",
                        "0x000000000000000000000000c02aaa39b223fe8d0a0e5c4f27ead9083c756cc2",
                        "0x0000000000000000000000006b175474e89094c44da98b954eedeac495271d0f"
                    ]
                },
                "nodeType": 1
            },
            "16": {
                "invocation": {
                    "address": "0xc02aaa39b223fe8d0a0e5c4f27ead9083c756cc2",
                    "callData": "0x0000000000000000000000009008d19f58aabd9ed0d60971565aa8510560ab41000000000000000000000000ba12222222228d8ba445958a75a0704d566bf2c80000000000000000000000000000000000000000000000003dc5cdd05400e22c",
                    "decodedMethod": {
                        "callParams": [
                            {
                                "name": "src",
                                "type": "address",
                                "value": "0x9008d19f58aabd9ed0d60971565aa8510560ab41"
                            },
                            {
                                "name": "dst",
                                "type": "address",
                                "value": "0xba12222222228d8ba445958a75a0704d566bf2c8"
                            },
                            {
                                "decimalAvailable": true,
                                "name": "wad",
                                "type": "uint256",
                                "value": "4,451,190,101,371,839,020"
                            }
                        ],
                        "constructorArguments": "",
                        "name": "transferFrom",
                        "returnParams": [
                            {
                                "name": "",
                                "type": "bool",
                                "value": true
                            }
                        ],
                        "signature": "transferFrom(address,address,uint256)"
                    },
                    "errorInfo": "",
                    "fromAddress": "0xba12222222228d8ba445958a75a0704d566bf2c8",
                    "gasUsed": 10225,
                    "id": 16,
                    "methodDecoded": true,
                    "operation": "CALL",
                    "output": "0x0000000000000000000000000000000000000000000000000000000000000001",
                    "revert": false,
                    "revertMessage": "",
                    "selector": "0x23b872dd",
                    "status": true,
                    "value": "0"
                },
                "nodeType": 0
            },
            "17": {
                "event": {
                    "contract": "0xc02aaa39b223fe8d0a0e5c4f27ead9083c756cc2",
                    "decodedLog": {
                        "name": "Transfer",
                        "params": [
                            {
                                "name": "src",
                                "type": "address",
                                "value": "0x9008d19f58aabd9ed0d60971565aa8510560ab41"
                            },
                            {
                                "name": "dst",
                                "type": "address",
                                "value": "0xba12222222228d8ba445958a75a0704d566bf2c8"
                            },
                            {
                                "decimalAvailable": true,
                                "name": "wad",
                                "type": "uint256",
                                "value": "4,451,190,101,371,839,020"
                            }
                        ],
                        "signature": "Transfer(address,address,uint256)"
                    },
                    "id": 17,
                    "logData": "0x0000000000000000000000000000000000000000000000003dc5cdd05400e22c",
                    "logDecoded": true,
                    "operation": "EVENT",
                    "revert": false,
                    "status": true,
                    "topics": [
                        "0xddf252ad1be2c89b69c2b068fc378daa952ba7f163c4a11628f55a4df523b3ef",
                        "0x0000000000000000000000009008d19f58aabd9ed0d60971565aa8510560ab41",
                        "0x000000000000000000000000ba12222222228d8ba445958a75a0704d566bf2c8"
                    ]
                },
                "nodeType": 1
            },
            "18": {
                "invocation": {
                    "address": "0x6b175474e89094c44da98b954eedeac495271d0f",
                    "callData": "0x0000000000000000000000009008d19f58aabd9ed0d60971565aa8510560ab410000000000000000000000000000000000000000000002a26e32fcfe286e5cb6",
                    "decodedMethod": {
                        "callParams": [
                            {
                                "name": "dst",
                                "type": "address",
                                "value": "0x9008d19f58aabd9ed0d60971565aa8510560ab41"
                            },
                            {
                                "decimalAvailable": true,
                                "name": "wad",
                                "type": "uint256",
                                "value": "12,441,046,192,941,775,609,014"
                            }
                        ],
                        "constructorArguments": "",
                        "name": "transfer",
                        "returnParams": [
                            {
                                "name": "",
                                "type": "bool",
                                "value": true
                            }
                        ],
                        "signature": "transfer(address,uint256)"
                    },
                    "errorInfo": "",
                    "fromAddress": "0xba12222222228d8ba445958a75a0704d566bf2c8",
                    "gasUsed": 13074,
                    "id": 18,
                    "methodDecoded": true,
                    "operation": "CALL",
                    "output": "0x0000000000000000000000000000000000000000000000000000000000000001",
                    "revert": false,
                    "revertMessage": "",
                    "selector": "0xa9059cbb",
                    "status": true,
                    "value": "0"
                },
                "nodeType": 0
            },
            "19": {
                "event": {
                    "contract": "0x6b175474e89094c44da98b954eedeac495271d0f",
                    "decodedLog": {
                        "name": "Transfer",
                        "params": [
                            {
                                "name": "src",
                                "type": "address",
                                "value": "0xba12222222228d8ba445958a75a0704d566bf2c8"
                            },
                            {
                                "name": "dst",
                                "type": "address",
                                "value": "0x9008d19f58aabd9ed0d60971565aa8510560ab41"
                            },
                            {
                                "decimalAvailable": true,
                                "name": "wad",
                                "type": "uint256",
                                "value": "12,441,046,192,941,775,609,014"
                            }
                        ],
                        "signature": "Transfer(address,address,uint256)"
                    },
                    "id": 19,
                    "logData": "0x0000000000000000000000000000000000000000000002a26e32fcfe286e5cb6",
                    "logDecoded": true,
                    "operation": "EVENT",
                    "revert": false,
                    "status": true,
                    "topics": [
                        "0xddf252ad1be2c89b69c2b068fc378daa952ba7f163c4a11628f55a4df523b3ef",
                        "0x000000000000000000000000ba12222222228d8ba445958a75a0704d566bf2c8",
                        "0x0000000000000000000000009008d19f58aabd9ed0d60971565aa8510560ab41"
                    ]
                },
                "nodeType": 1
            },
            "2": {
                "invocation": {
                    "address": "0x9e7ae8bdba9aa346739792d219a808884996db67",
                    "callData": "0x000000000000000000000000833f076d182123ca8dde2743045ea02957bd61ef",
                    "decodedMethod": {
                        "callParams": [
                            {
                                "name": "prospectiveSolver",
                                "type": "address",
                                "value": "0x833f076d182123ca8dde2743045ea02957bd61ef"
                            }
                        ],
                        "constructorArguments": "",
                        "name": "isSolver",
                        "returnParams": [
                            {
                                "name": "",
                                "type": "bool",
                                "value": true
                            }
                        ],
                        "signature": "isSolver(address)"
                    },
                    "errorInfo": "",
                    "fromAddress": "0x2c4c28ddbdac9c5e7055b4c863b72ea0149d8afe",
                    "gasUsed": 2431,
                    "id": 2,
                    "methodDecoded": true,
                    "operation": "DELEGATECALL",
                    "output": "0x0000000000000000000000000000000000000000000000000000000000000001",
                    "revert": false,
                    "revertMessage": "",
                    "selector": "0x02cc250d",
                    "status": true,
                    "value": "0"
                },
                "nodeType": 0
            },
            "20": {
                "event": {
                    "contract": "0x9008d19f58aabd9ed0d60971565aa8510560ab41",
                    "decodedLog": {
                        "name": "Interaction",
                        "params": [
                            {
                                "name": "target",
                                "type": "address",
                                "value": "0xba12222222228d8ba445958a75a0704d566bf2c8"
                            },
                            {
                                "name": "value",
                                "type": "uint256",
                                "value": "0"
                            },
                            {
                                "name": "selector",
                                "type": "bytes4",
                                "value": "0x52bbbe29"
                            }
                        ],
                        "signature": "Interaction(address,uint256,bytes4)"
                    },
                    "id": 20,
                    "logData": "0x000000000000000000000000000000000000000000000000000000000000000052bbbe2900000000000000000000000000000000000000000000000000000000",
                    "logDecoded": true,
                    "operation": "EVENT",
                    "revert": false,
                    "status": true,
                    "topics": [
                        "0xed99827efb37016f2275f98c4bcf71c7551c75d59e9b450f79fa32e60be672c2",
                        "0x000000000000000000000000ba12222222228d8ba445958a75a0704d566bf2c8"
                    ]
                },
                "nodeType": 1
            },
            "21": {
                "invocation": {
                    "address": "0x5a1912749d2b7c3cdb832b81601c8c3f437a0de8",
                    "callData": "0x0000000000000000000000007a250d5630b4cf539739df2c5dacb4c659f2488dffffffffffffffffffffffffffffffffffffffffffffffffffffffffffffffff",
                    "decodedMethod": {
                        "callParams": [
                            {
                                "name": "spender",
                                "type": "address",
                                "value": "0x7a250d5630b4cf539739df2c5dacb4c659f2488d"
                            },
                            {
                                "decimalAvailable": true,
                                "name": "amount",
                                "type": "uint256",
                                "value": "115,792,089,237,316,195,423,570,985,008,687,907,853,269,984,665,640,564,039,457,584,007,913,129,639,935"
                            }
                        ],
                        "constructorArguments": "",
                        "name": "approve",
                        "returnParams": [
                            {
                                "name": "",
                                "type": "bool",
                                "value": true
                            }
                        ],
                        "signature": "approve(address,uint256)"
                    },
                    "errorInfo": "",
                    "fromAddress": "0x9008d19f58aabd9ed0d60971565aa8510560ab41",
                    "gasUsed": 24646,
                    "id": 21,
                    "methodDecoded": true,
                    "operation": "CALL",
                    "output": "0x0000000000000000000000000000000000000000000000000000000000000001",
                    "revert": false,
                    "revertMessage": "",
                    "selector": "0x095ea7b3",
                    "status": true,
                    "value": "0"
                },
                "nodeType": 0
            },
            "22": {
                "event": {
                    "contract": "0x5a1912749d2b7c3cdb832b81601c8c3f437a0de8",
                    "decodedLog": {
                        "name": "Approval",
                        "params": [
                            {
                                "name": "owner",
                                "type": "address",
                                "value": "0x9008d19f58aabd9ed0d60971565aa8510560ab41"
                            },
                            {
                                "name": "spender",
                                "type": "address",
                                "value": "0x7a250d5630b4cf539739df2c5dacb4c659f2488d"
                            },
                            {
                                "decimalAvailable": true,
                                "name": "value",
                                "type": "uint256",
                                "value": "115,792,089,237,316,195,423,570,985,008,687,907,853,269,984,665,640,564,039,457,584,007,913,129,639,935"
                            }
                        ],
                        "signature": "Approval(address,address,uint256)"
                    },
                    "id": 22,
                    "logData": "0xffffffffffffffffffffffffffffffffffffffffffffffffffffffffffffffff",
                    "logDecoded": true,
                    "operation": "EVENT",
                    "revert": false,
                    "status": true,
                    "topics": [
                        "0x8c5be1e5ebec7d5bd14f71427d1e84f3dd0314c0f7b2291e5b200ac8c7c3b925",
                        "0x0000000000000000000000009008d19f58aabd9ed0d60971565aa8510560ab41",
                        "0x0000000000000000000000007a250d5630b4cf539739df2c5dacb4c659f2488d"
                    ]
                },
                "nodeType": 1
            },
            "23": {
                "event": {
                    "contract": "0x9008d19f58aabd9ed0d60971565aa8510560ab41",
                    "decodedLog": {
                        "name": "Interaction",
                        "params": [
                            {
                                "name": "target",
                                "type": "address",
                                "value": "0x5a1912749d2b7c3cdb832b81601c8c3f437a0de8"
                            },
                            {
                                "name": "value",
                                "type": "uint256",
                                "value": "0"
                            },
                            {
                                "name": "selector",
                                "type": "bytes4",
                                "value": "0x095ea7b3"
                            }
                        ],
                        "signature": "Interaction(address,uint256,bytes4)"
                    },
                    "id": 23,
                    "logData": "0x0000000000000000000000000000000000000000000000000000000000000000095ea7b300000000000000000000000000000000000000000000000000000000",
                    "logDecoded": true,
                    "operation": "EVENT",
                    "revert": false,
                    "status": true,
                    "topics": [
                        "0xed99827efb37016f2275f98c4bcf71c7551c75d59e9b450f79fa32e60be672c2",
                        "0x0000000000000000000000005a1912749d2b7c3cdb832b81601c8c3f437a0de8"
                    ]
                },
                "nodeType": 1
            },
            "24": {
                "invocation": {
                    "address": "0x7a250d5630b4cf539739df2c5dacb4c659f2488d",
                    "callData": "0x000000000000000000000000000000000000000000000000007e246178d79d130000000000000000000000000000000000000000000000000000000701494f7700000000000000000000000000000000000000000000000000000000000000a00000000000000000000000009008d19f58aabd9ed0d60971565aa8510560ab41ffffffffffffffffffffffffffffffffffffffffffffffffffffffffffffffff00000000000000000000000000000000000000000000000000000000000000020000000000000000000000005a1912749d2b7c3cdb832b81601c8c3f437a0de8000000000000000000000000c02aaa39b223fe8d0a0e5c4f27ead9083c756cc2",
                    "decodedMethod": {
                        "callParams": [
                            {
                                "name": "amountOut",
                                "type": "uint256",
                                "value": "35,505,848,123,366,675"
                            },
                            {
                                "name": "amountInMax",
                                "type": "uint256",
                                "value": "30,086,352,759"
                            },
                            {
                                "name": "path",
                                "type": "address[]",
                                "value": [
                                    "0x5a1912749d2b7c3cdb832b81601c8c3f437a0de8",
                                    "0xc02aaa39b223fe8d0a0e5c4f27ead9083c756cc2"
                                ]
                            },
                            {
                                "name": "to",
                                "type": "address",
                                "value": "0x9008d19f58aabd9ed0d60971565aa8510560ab41"
                            },
                            {
                                "name": "deadline",
                                "type": "uint256",
                                "value": "115,792,089,237,316,195,423,570,985,008,687,907,853,269,984,665,640,564,039,457,584,007,913,129,639,935"
                            }
                        ],
                        "constructorArguments": "",
                        "name": "swapTokensForExactTokens",
                        "returnParams": [
                            {
                                "name": "amounts",
                                "type": "uint256[]",
                                "value": [
                                    "30,056,296,462",
                                    "35,505,848,123,366,675"
                                ]
                            }
                        ],
                        "signature": "swapTokensForExactTokens(uint256,uint256,address[],address,uint256)"
                    },
                    "errorInfo": "",
                    "fromAddress": "0x9008d19f58aabd9ed0d60971565aa8510560ab41",
                    "gasUsed": 64300,
                    "id": 24,
                    "methodDecoded": true,
                    "operation": "CALL",
                    "output": "0x0000000000000000000000000000000000000000000000000000000000000020000000000000000000000000000000000000000000000000000000000000000200000000000000000000000000000000000000000000000000000006ff7eb00e000000000000000000000000000000000000000000000000007e246178d79d13",
                    "revert": false,
                    "revertMessage": "",
                    "selector": "0x8803dbee",
                    "status": true,
                    "value": "0"
                },
                "nodeType": 0
            },
            "25": {
                "invocation": {
                    "address": "0x2f7896984a19d6860be6f18ccf3e0de7365f28e1",
                    "callData": "0x",
                    "decodedMethod": {
                        "callParams": [],
                        "constructorArguments": "",
                        "name": "getReserves",
                        "returnParams": [
                            {
                                "name": "_reserve0",
                                "type": "uint112",
                                "value": "3,279,872,761,901"
                            },
                            {
                                "name": "_reserve1",
                                "type": "uint112",
                                "value": "3,921,715,831,906,918,446"
                            },
                            {
                                "name": "_blockTimestampLast",
                                "type": "uint32",
                                "value": "1,643,752,698"
                            }
                        ],
                        "signature": "getReserves()"
                    },
                    "errorInfo": "",
                    "fromAddress": "0x7a250d5630b4cf539739df2c5dacb4c659f2488d",
                    "gasUsed": 2504,
                    "id": 25,
                    "methodDecoded": true,
                    "operation": "STATICCALL",
                    "output": "0x000000000000000000000000000000000000000000000000000002fba7a6a02d000000000000000000000000000000000000000000000000366cbbc55ed6602e0000000000000000000000000000000000000000000000000000000061f9acfa",
                    "revert": false,
                    "revertMessage": "",
                    "selector": "0x0902f1ac",
                    "status": true,
                    "value": "0"
                },
                "nodeType": 0
            },
            "26": {
                "invocation": {
                    "address": "0x5a1912749d2b7c3cdb832b81601c8c3f437a0de8",
                    "callData": "0x0000000000000000000000009008d19f58aabd9ed0d60971565aa8510560ab410000000000000000000000002f7896984a19d6860be6f18ccf3e0de7365f28e100000000000000000000000000000000000000000000000000000006ff7eb00e",
                    "decodedMethod": {
                        "callParams": [
                            {
                                "name": "sender",
                                "type": "address",
                                "value": "0x9008d19f58aabd9ed0d60971565aa8510560ab41"
                            },
                            {
                                "name": "recipient",
                                "type": "address",
                                "value": "0x2f7896984a19d6860be6f18ccf3e0de7365f28e1"
                            },
                            {
                                "decimalAvailable": true,
                                "name": "amount",
                                "type": "uint256",
                                "value": "30,056,296,462"
                            }
                        ],
                        "constructorArguments": "",
                        "name": "transferFrom",
                        "returnParams": [
                            {
                                "name": "",
                                "type": "bool",
                                "value": true
                            }
                        ],
                        "signature": "transferFrom(address,address,uint256)"
                    },
                    "errorInfo": "",
                    "fromAddress": "0x7a250d5630b4cf539739df2c5dacb4c659f2488d",
                    "gasUsed": 11057,
                    "id": 26,
                    "methodDecoded": true,
                    "operation": "CALL",
                    "output": "0x0000000000000000000000000000000000000000000000000000000000000001",
                    "revert": false,
                    "revertMessage": "",
                    "selector": "0x23b872dd",
                    "status": true,
                    "value": "0"
                },
                "nodeType": 0
            },
            "27": {
                "event": {
                    "contract": "0x5a1912749d2b7c3cdb832b81601c8c3f437a0de8",
                    "decodedLog": {
                        "name": "Transfer",
                        "params": [
                            {
                                "name": "from",
                                "type": "address",
                                "value": "0x9008d19f58aabd9ed0d60971565aa8510560ab41"
                            },
                            {
                                "name": "to",
                                "type": "address",
                                "value": "0x2f7896984a19d6860be6f18ccf3e0de7365f28e1"
                            },
                            {
                                "decimalAvailable": true,
                                "name": "value",
                                "type": "uint256",
                                "value": "30,056,296,462"
                            }
                        ],
                        "signature": "Transfer(address,address,uint256)"
                    },
                    "id": 27,
                    "logData": "0x00000000000000000000000000000000000000000000000000000006ff7eb00e",
                    "logDecoded": true,
                    "operation": "EVENT",
                    "revert": false,
                    "status": true,
                    "topics": [
                        "0xddf252ad1be2c89b69c2b068fc378daa952ba7f163c4a11628f55a4df523b3ef",
                        "0x0000000000000000000000009008d19f58aabd9ed0d60971565aa8510560ab41",
                        "0x0000000000000000000000002f7896984a19d6860be6f18ccf3e0de7365f28e1"
                    ]
                },
                "nodeType": 1
            },
            "28": {
                "event": {
                    "contract": "0x5a1912749d2b7c3cdb832b81601c8c3f437a0de8",
                    "decodedLog": {
                        "name": "Approval",
                        "params": [
                            {
                                "name": "owner",
                                "type": "address",
                                "value": "0x9008d19f58aabd9ed0d60971565aa8510560ab41"
                            },
                            {
                                "name": "spender",
                                "type": "address",
                                "value": "0x7a250d5630b4cf539739df2c5dacb4c659f2488d"
                            },
                            {
                                "decimalAvailable": true,
                                "name": "value",
                                "type": "uint256",
                                "value": "115,792,089,237,316,195,423,570,985,008,687,907,853,269,984,665,640,564,039,457,584,007,883,073,343,473"
                            }
                        ],
                        "signature": "Approval(address,address,uint256)"
                    },
                    "id": 28,
                    "logData": "0xfffffffffffffffffffffffffffffffffffffffffffffffffffffff900814ff1",
                    "logDecoded": true,
                    "operation": "EVENT",
                    "revert": false,
                    "status": true,
                    "topics": [
                        "0x8c5be1e5ebec7d5bd14f71427d1e84f3dd0314c0f7b2291e5b200ac8c7c3b925",
                        "0x0000000000000000000000009008d19f58aabd9ed0d60971565aa8510560ab41",
                        "0x0000000000000000000000007a250d5630b4cf539739df2c5dacb4c659f2488d"
                    ]
                },
                "nodeType": 1
            },
            "29": {
                "invocation": {
                    "address": "0x2f7896984a19d6860be6f18ccf3e0de7365f28e1",
                    "callData": "0x0000000000000000000000000000000000000000000000000000000000000000000000000000000000000000000000000000000000000000007e246178d79d130000000000000000000000009008d19f58aabd9ed0d60971565aa8510560ab4100000000000000000000000000000000000000000000000000000000000000800000000000000000000000000000000000000000000000000000000000000000",
                    "decodedMethod": {
                        "callParams": [
                            {
                                "name": "amount0Out",
                                "type": "uint256",
                                "value": "0"
                            },
                            {
                                "name": "amount1Out",
                                "type": "uint256",
                                "value": "35,505,848,123,366,675"
                            },
                            {
                                "name": "to",
                                "type": "address",
                                "value": "0x9008d19f58aabd9ed0d60971565aa8510560ab41"
                            },
                            {
                                "name": "data",
                                "type": "bytes",
                                "value": "0x"
                            }
                        ],
                        "constructorArguments": "",
                        "name": "swap",
                        "returnParams": [],
                        "signature": "swap(uint256,uint256,address,bytes)"
                    },
                    "errorInfo": "",
                    "fromAddress": "0x7a250d5630b4cf539739df2c5dacb4c659f2488d",
                    "gasUsed": 40482,
                    "id": 29,
                    "methodDecoded": true,
                    "operation": "CALL",
                    "output": "",
                    "revert": false,
                    "revertMessage": "",
                    "selector": "0x022c0d9f",
                    "status": true,
                    "value": "0"
                },
                "nodeType": 0
            },
            "3": {
                "invocation": {
                    "address": "0x0000000000000000000000000000000000000001",
                    "callData": "0xe292d0526147142564a81acb1ec17eb71ec95adf5c14972a4238178b000000000000000000000000000000000000000000000000000000000000001bbd82081d57d3eb916394ce4c507d0d86a1160c1c09fb3e929bd23b8c6c6e75ad7f5e3134e0debf573e08f02edadcb57cefd4417bad233bebf577162a0744464d",
                    "decodedMethod": {
                        "callParams": [
                            {
                                "name": "hash",
                                "type": "bytes32",
                                "value": "0x27fb08d0e292d0526147142564a81acb1ec17eb71ec95adf5c14972a4238178b"
                            },
                            {
                                "name": "v",
                                "type": "uint256",
                                "value": "27"
                            },
                            {
                                "name": "r",
                                "type": "bytes32",
                                "value": "0xbd82081d57d3eb916394ce4c507d0d86a1160c1c09fb3e929bd23b8c6c6e75ad"
                            },
                            {
                                "name": "s",
                                "type": "bytes32",
                                "value": "0x7f5e3134e0debf573e08f02edadcb57cefd4417bad233bebf577162a0744464d"
                            }
                        ],
                        "constructorArguments": "",
                        "name": "ecrecover",
                        "returnParams": [
                            {
                                "name": "",
                                "type": "address",
                                "value": "0x00000639caea2f4991b946c1f68686e4df700000"
                            }
                        ],
                        "signature": "ecrecover(bytes32,uint256,bytes32,bytes32)"
                    },
                    "errorInfo": "",
                    "fromAddress": "0x9008d19f58aabd9ed0d60971565aa8510560ab41",
                    "gasUsed": 3000,
                    "id": 3,
                    "methodDecoded": true,
                    "operation": "STATICCALL",
                    "output": "0x00000000000000000000000000000639caea2f4991b946c1f68686e4df700000",
                    "revert": false,
                    "revertMessage": "",
                    "selector": "0x27fb08d0",
                    "status": true,
                    "value": "0"
                },
                "nodeType": 0
            },
            "30": {
                "invocation": {
                    "address": "0xc02aaa39b223fe8d0a0e5c4f27ead9083c756cc2",
                    "callData": "0x0000000000000000000000009008d19f58aabd9ed0d60971565aa8510560ab41000000000000000000000000000000000000000000000000007e246178d79d13",
                    "decodedMethod": {
                        "callParams": [
                            {
                                "name": "dst",
                                "type": "address",
                                "value": "0x9008d19f58aabd9ed0d60971565aa8510560ab41"
                            },
                            {
                                "decimalAvailable": true,
                                "name": "wad",
                                "type": "uint256",
                                "value": "35,505,848,123,366,675"
                            }
                        ],
                        "constructorArguments": "",
                        "name": "transfer",
                        "returnParams": [
                            {
                                "name": "",
                                "type": "bool",
                                "value": true
                            }
                        ],
                        "signature": "transfer(address,uint256)"
                    },
                    "errorInfo": "",
                    "fromAddress": "0x2f7896984a19d6860be6f18ccf3e0de7365f28e1",
                    "gasUsed": 8062,
                    "id": 30,
                    "methodDecoded": true,
                    "operation": "CALL",
                    "output": "0x0000000000000000000000000000000000000000000000000000000000000001",
                    "revert": false,
                    "revertMessage": "",
                    "selector": "0xa9059cbb",
                    "status": true,
                    "value": "0"
                },
                "nodeType": 0
            },
            "31": {
                "event": {
                    "contract": "0xc02aaa39b223fe8d0a0e5c4f27ead9083c756cc2",
                    "decodedLog": {
                        "name": "Transfer",
                        "params": [
                            {
                                "name": "src",
                                "type": "address",
                                "value": "0x2f7896984a19d6860be6f18ccf3e0de7365f28e1"
                            },
                            {
                                "name": "dst",
                                "type": "address",
                                "value": "0x9008d19f58aabd9ed0d60971565aa8510560ab41"
                            },
                            {
                                "decimalAvailable": true,
                                "name": "wad",
                                "type": "uint256",
                                "value": "35,505,848,123,366,675"
                            }
                        ],
                        "signature": "Transfer(address,address,uint256)"
                    },
                    "id": 31,
                    "logData": "0x000000000000000000000000000000000000000000000000007e246178d79d13",
                    "logDecoded": true,
                    "operation": "EVENT",
                    "revert": false,
                    "status": true,
                    "topics": [
                        "0xddf252ad1be2c89b69c2b068fc378daa952ba7f163c4a11628f55a4df523b3ef",
                        "0x0000000000000000000000002f7896984a19d6860be6f18ccf3e0de7365f28e1",
                        "0x0000000000000000000000009008d19f58aabd9ed0d60971565aa8510560ab41"
                    ]
                },
                "nodeType": 1
            },
            "32": {
                "invocation": {
                    "address": "0x5a1912749d2b7c3cdb832b81601c8c3f437a0de8",
                    "callData": "0x0000000000000000000000002f7896984a19d6860be6f18ccf3e0de7365f28e1",
                    "decodedMethod": {
                        "callParams": [
                            {
                                "name": "account",
                                "type": "address",
                                "value": "0x2f7896984a19d6860be6f18ccf3e0de7365f28e1"
                            }
                        ],
                        "constructorArguments": "",
                        "name": "balanceOf",
                        "returnParams": [
                            {
                                "decimalAvailable": true,
                                "name": "",
                                "type": "uint256",
                                "value": "3,309,929,058,363"
                            }
                        ],
                        "signature": "balanceOf(address)"
                    },
                    "errorInfo": "",
                    "fromAddress": "0x2f7896984a19d6860be6f18ccf3e0de7365f28e1",
                    "gasUsed": 563,
                    "id": 32,
                    "methodDecoded": true,
                    "operation": "STATICCALL",
                    "output": "0x00000000000000000000000000000000000000000000000000000302a725503b",
                    "revert": false,
                    "revertMessage": "",
                    "selector": "0x70a08231",
                    "status": true,
                    "value": "0"
                },
                "nodeType": 0
            },
            "33": {
                "invocation": {
                    "address": "0xc02aaa39b223fe8d0a0e5c4f27ead9083c756cc2",
                    "callData": "0x0000000000000000000000002f7896984a19d6860be6f18ccf3e0de7365f28e1",
                    "decodedMethod": {
                        "callParams": [
                            {
                                "name": "",
                                "type": "address",
                                "value": "0x2f7896984a19d6860be6f18ccf3e0de7365f28e1"
                            }
                        ],
                        "constructorArguments": "",
                        "name": "balanceOf",
                        "returnParams": [
                            {
                                "decimalAvailable": true,
                                "name": "",
                                "type": "uint256",
                                "value": "3,886,209,983,783,551,771"
                            }
                        ],
                        "signature": "balanceOf(address)"
                    },
                    "errorInfo": "",
                    "fromAddress": "0x2f7896984a19d6860be6f18ccf3e0de7365f28e1",
                    "gasUsed": 534,
                    "id": 33,
                    "methodDecoded": true,
                    "operation": "STATICCALL",
                    "output": "0x00000000000000000000000000000000000000000000000035ee9763e5fec31b",
                    "revert": false,
                    "revertMessage": "",
                    "selector": "0x70a08231",
                    "status": true,
                    "value": "0"
                },
                "nodeType": 0
            },
            "34": {
                "event": {
                    "contract": "0x2f7896984a19d6860be6f18ccf3e0de7365f28e1",
                    "decodedLog": {
                        "name": "Sync",
                        "params": [
                            {
                                "name": "reserve0",
                                "type": "uint112",
                                "value": "3,309,929,058,363"
                            },
                            {
                                "name": "reserve1",
                                "type": "uint112",
                                "value": "3,886,209,983,783,551,771"
                            }
                        ],
                        "signature": "Sync(uint112,uint112)"
                    },
                    "id": 34,
                    "logData": "0x00000000000000000000000000000000000000000000000000000302a725503b00000000000000000000000000000000000000000000000035ee9763e5fec31b",
                    "logDecoded": true,
                    "operation": "EVENT",
                    "revert": false,
                    "status": true,
                    "topics": [
                        "0x1c411e9a96e071241c2f21f7726b17ae89e3cab4c78be50e062b03a9fffbbad1"
                    ]
                },
                "nodeType": 1
            },
            "35": {
                "event": {
                    "contract": "0x2f7896984a19d6860be6f18ccf3e0de7365f28e1",
                    "decodedLog": {
                        "name": "Swap",
                        "params": [
                            {
                                "name": "sender",
                                "type": "address",
                                "value": "0x7a250d5630b4cf539739df2c5dacb4c659f2488d"
                            },
                            {
                                "name": "to",
                                "type": "address",
                                "value": "0x9008d19f58aabd9ed0d60971565aa8510560ab41"
                            },
                            {
                                "name": "amount0In",
                                "type": "uint256",
                                "value": "30,056,296,462"
                            },
                            {
                                "name": "amount1In",
                                "type": "uint256",
                                "value": "0"
                            },
                            {
                                "name": "amount0Out",
                                "type": "uint256",
                                "value": "0"
                            },
                            {
                                "name": "amount1Out",
                                "type": "uint256",
                                "value": "35,505,848,123,366,675"
                            }
                        ],
                        "signature": "Swap(address,uint256,uint256,uint256,uint256,address)"
                    },
                    "id": 35,
                    "logData": "0x00000000000000000000000000000000000000000000000000000006ff7eb00e00000000000000000000000000000000000000000000000000000000000000000000000000000000000000000000000000000000000000000000000000000000000000000000000000000000000000000000000000000000007e246178d79d13",
                    "logDecoded": true,
                    "operation": "EVENT",
                    "revert": false,
                    "status": true,
                    "topics": [
                        "0xd78ad95fa46c994b6551d0da85fc275fe613ce37657fb8d5e3d130840159d822",
                        "0x0000000000000000000000007a250d5630b4cf539739df2c5dacb4c659f2488d",
                        "0x0000000000000000000000009008d19f58aabd9ed0d60971565aa8510560ab41"
                    ]
                },
                "nodeType": 1
            },
            "36": {
                "event": {
                    "contract": "0x9008d19f58aabd9ed0d60971565aa8510560ab41",
                    "decodedLog": {
                        "name": "Interaction",
                        "params": [
                            {
                                "name": "target",
                                "type": "address",
                                "value": "0x7a250d5630b4cf539739df2c5dacb4c659f2488d"
                            },
                            {
                                "name": "value",
                                "type": "uint256",
                                "value": "0"
                            },
                            {
                                "name": "selector",
                                "type": "bytes4",
                                "value": "0x8803dbee"
                            }
                        ],
                        "signature": "Interaction(address,uint256,bytes4)"
                    },
                    "id": 36,
                    "logData": "0x00000000000000000000000000000000000000000000000000000000000000008803dbee00000000000000000000000000000000000000000000000000000000",
                    "logDecoded": true,
                    "operation": "EVENT",
                    "revert": false,
                    "status": true,
                    "topics": [
                        "0xed99827efb37016f2275f98c4bcf71c7551c75d59e9b450f79fa32e60be672c2",
                        "0x0000000000000000000000007a250d5630b4cf539739df2c5dacb4c659f2488d"
                    ]
                },
                "nodeType": 1
            },
            "37": {
                "invocation": {
                    "address": "0x6b175474e89094c44da98b954eedeac495271d0f",
                    "callData": "0x00000000000000000000000000000639caea2f4991b946c1f68686e4df7000000000000000000000000000000000000000000000000002a26e32fcfe286e5cb6",
                    "decodedMethod": {
                        "callParams": [
                            {
                                "name": "dst",
                                "type": "address",
                                "value": "0x00000639caea2f4991b946c1f68686e4df700000"
                            },
                            {
                                "decimalAvailable": true,
                                "name": "wad",
                                "type": "uint256",
                                "value": "12,441,046,192,941,775,609,014"
                            }
                        ],
                        "constructorArguments": "",
                        "name": "transfer",
                        "returnParams": [
                            {
                                "name": "",
                                "type": "bool",
                                "value": true
                            }
                        ],
                        "signature": "transfer(address,uint256)"
                    },
                    "errorInfo": "",
                    "fromAddress": "0x9008d19f58aabd9ed0d60971565aa8510560ab41",
                    "gasUsed": 8274,
                    "id": 37,
                    "methodDecoded": true,
                    "operation": "CALL",
                    "output": "0x0000000000000000000000000000000000000000000000000000000000000001",
                    "revert": false,
                    "revertMessage": "",
                    "selector": "0xa9059cbb",
                    "status": true,
                    "value": "0"
                },
                "nodeType": 0
            },
            "38": {
                "event": {
                    "contract": "0x6b175474e89094c44da98b954eedeac495271d0f",
                    "decodedLog": {
                        "name": "Transfer",
                        "params": [
                            {
                                "name": "src",
                                "type": "address",
                                "value": "0x9008d19f58aabd9ed0d60971565aa8510560ab41"
                            },
                            {
                                "name": "dst",
                                "type": "address",
                                "value": "0x00000639caea2f4991b946c1f68686e4df700000"
                            },
                            {
                                "decimalAvailable": true,
                                "name": "wad",
                                "type": "uint256",
                                "value": "12,441,046,192,941,775,609,014"
                            }
                        ],
                        "signature": "Transfer(address,address,uint256)"
                    },
                    "id": 38,
                    "logData": "0x0000000000000000000000000000000000000000000002a26e32fcfe286e5cb6",
                    "logDecoded": true,
                    "operation": "EVENT",
                    "revert": false,
                    "status": true,
                    "topics": [
                        "0xddf252ad1be2c89b69c2b068fc378daa952ba7f163c4a11628f55a4df523b3ef",
                        "0x0000000000000000000000009008d19f58aabd9ed0d60971565aa8510560ab41",
                        "0x00000000000000000000000000000639caea2f4991b946c1f68686e4df700000"
                    ]
                },
                "nodeType": 1
            },
            "39": {
                "invocation": {
                    "address": "0x96fdfbaf8e576b6b96720a68efb033692e6560d3",
                    "callData": "0x",
                    "decodedMethod": null,
                    "errorInfo": "",
                    "fromAddress": "0x9008d19f58aabd9ed0d60971565aa8510560ab41",
                    "gasUsed": 0,
                    "id": 39,
                    "methodDecoded": false,
                    "operation": "CALL",
                    "output": "",
                    "revert": false,
                    "revertMessage": "",
                    "selector": "fallback",
                    "status": true,
                    "value": "0.035505848123366675"
                },
                "nodeType": 0
            },
            "4": {
                "event": {
                    "contract": "0x9008d19f58aabd9ed0d60971565aa8510560ab41",
                    "decodedLog": {
                        "name": "Trade",
                        "params": [
                            {
                                "name": "owner",
                                "type": "address",
                                "value": "0x00000639caea2f4991b946c1f68686e4df700000"
                            },
                            {
                                "name": "sellToken",
                                "type": "address",
                                "value": "0xc02aaa39b223fe8d0a0e5c4f27ead9083c756cc2"
                            },
                            {
                                "name": "buyToken",
                                "type": "address",
                                "value": "0x6b175474e89094c44da98b954eedeac495271d0f"
                            },
                            {
                                "name": "sellAmount",
                                "type": "uint256",
                                "value": "4,480,000,000,000,000,000"
                            },
                            {
                                "name": "buyAmount",
                                "type": "uint256",
                                "value": "12,441,046,192,941,775,609,014"
                            },
                            {
                                "name": "feeAmount",
                                "type": "uint256",
                                "value": "28,809,898,684,315,344"
                            },
                            {
                                "name": "orderUid",
                                "type": "bytes",
                                "value": "0x27fb08d0e292d0526147142564a81acb1ec17eb71ec95adf5c14972a4238178b00000639caea2f4991b946c1f68686e4df70000061f9ccb3"
                            }
                        ],
                        "signature": "Trade(address,address,address,uint256,uint256,uint256,bytes)"
                    },
                    "id": 4,
                    "logData": "0x000000000000000000000000c02aaa39b223fe8d0a0e5c4f27ead9083c756cc20000000000000000000000006b175474e89094c44da98b954eedeac495271d0f0000000000000000000000000000000000000000000000003e2c284391c000000000000000000000000000000000000000000000000002a26e32fcfe286e5cb600000000000000000000000000000000000000000000000000665a734117f6d000000000000000000000000000000000000000000000000000000000000000c0000000000000000000000000000000000000000000000000000000000000003827fb08d0e292d0526147142564a81acb1ec17eb71ec95adf5c14972a4238178b00000639caea2f4991b946c1f68686e4df70000061f9ccb30000000000000000",
                    "logDecoded": true,
                    "operation": "EVENT",
                    "revert": false,
                    "status": true,
                    "topics": [
                        "0xa07a543ab8a018198e99ca0184c93fe9050a79400a0a723441f84de1d972cc17",
                        "0x00000000000000000000000000000639caea2f4991b946c1f68686e4df700000"
                    ]
                },
                "nodeType": 1
            },
            "40": {
                "event": {
                    "contract": "0x9008d19f58aabd9ed0d60971565aa8510560ab41",
                    "decodedLog": {
                        "name": "Settlement",
                        "params": [
                            {
                                "name": "solver",
                                "type": "address",
                                "value": "0x833f076d182123ca8dde2743045ea02957bd61ef"
                            }
                        ],
                        "signature": "Settlement(address)"
                    },
                    "id": 40,
                    "logData": "0x",
                    "logDecoded": true,
                    "operation": "EVENT",
                    "revert": false,
                    "status": true,
                    "topics": [
                        "0x40338ce1a7c49204f0099533b1e9a7ee0a3d261f84974ab7af36105b8c4e9db4",
                        "0x000000000000000000000000833f076d182123ca8dde2743045ea02957bd61ef"
                    ]
                },
                "nodeType": 1
            },
            "5": {
                "invocation": {
                    "address": "0x0000000000000000000000000000000000000001",
                    "callData": "0x42463e83d16144f4df3f130bfe80d077e667ae4096ee76944f7cfe18000000000000000000000000000000000000000000000000000000000000001b6f35d9b9f5769fc175b270d4599d01bbe1ef340bd703136d11b5c42aedffc01219a8e0a4d2df9710c17f67a8a0bf3839b2a7f0169450e28b97e34477aa09fbf2",
                    "decodedMethod": {
                        "callParams": [
                            {
                                "name": "hash",
                                "type": "bytes32",
                                "value": "0x5fc7a44642463e83d16144f4df3f130bfe80d077e667ae4096ee76944f7cfe18"
                            },
                            {
                                "name": "v",
                                "type": "uint256",
                                "value": "27"
                            },
                            {
                                "name": "r",
                                "type": "bytes32",
                                "value": "0x6f35d9b9f5769fc175b270d4599d01bbe1ef340bd703136d11b5c42aedffc012"
                            },
                            {
                                "name": "s",
                                "type": "bytes32",
                                "value": "0x19a8e0a4d2df9710c17f67a8a0bf3839b2a7f0169450e28b97e34477aa09fbf2"
                            }
                        ],
                        "constructorArguments": "",
                        "name": "ecrecover",
                        "returnParams": [
                            {
                                "name": "",
                                "type": "address",
                                "value": "0x96fdfbaf8e576b6b96720a68efb033692e6560d3"
                            }
                        ],
                        "signature": "ecrecover(bytes32,uint256,bytes32,bytes32)"
                    },
                    "errorInfo": "",
                    "fromAddress": "0x9008d19f58aabd9ed0d60971565aa8510560ab41",
                    "gasUsed": 3000,
                    "id": 5,
                    "methodDecoded": true,
                    "operation": "STATICCALL",
                    "output": "0x00000000000000000000000096fdfbaf8e576b6b96720a68efb033692e6560d3",
                    "revert": false,
                    "revertMessage": "",
                    "selector": "0x5fc7a446",
                    "status": true,
                    "value": "0"
                },
                "nodeType": 0
            },
            "6": {
                "event": {
                    "contract": "0x9008d19f58aabd9ed0d60971565aa8510560ab41",
                    "decodedLog": {
                        "name": "Trade",
                        "params": [
                            {
                                "name": "owner",
                                "type": "address",
                                "value": "0x96fdfbaf8e576b6b96720a68efb033692e6560d3"
                            },
                            {
                                "name": "sellToken",
                                "type": "address",
                                "value": "0x5a1912749d2b7c3cdb832b81601c8c3f437a0de8"
                            },
                            {
                                "name": "buyToken",
                                "type": "address",
                                "value": "0xeeeeeeeeeeeeeeeeeeeeeeeeeeeeeeeeeeeeeeee"
                            },
                            {
                                "name": "sellAmount",
                                "type": "uint256",
                                "value": "50,000,000,000"
                            },
                            {
                                "name": "buyAmount",
                                "type": "uint256",
                                "value": "35,505,848,123,366,675"
                            },
                            {
                                "name": "feeAmount",
                                "type": "uint256",
                                "value": "19,943,703,538"
                            },
                            {
                                "name": "orderUid",
                                "type": "bytes",
                                "value": "0x5fc7a44642463e83d16144f4df3f130bfe80d077e667ae4096ee76944f7cfe1896fdfbaf8e576b6b96720a68efb033692e6560d361f9b77e"
                            }
                        ],
                        "signature": "Trade(address,address,address,uint256,uint256,uint256,bytes)"
                    },
                    "id": 6,
                    "logData": "0x0000000000000000000000005a1912749d2b7c3cdb832b81601c8c3f437a0de8000000000000000000000000eeeeeeeeeeeeeeeeeeeeeeeeeeeeeeeeeeeeeeee0000000000000000000000000000000000000000000000000000000ba43b7400000000000000000000000000000000000000000000000000007e246178d79d1300000000000000000000000000000000000000000000000000000004a4bcc3f200000000000000000000000000000000000000000000000000000000000000c000000000000000000000000000000000000000000000000000000000000000385fc7a44642463e83d16144f4df3f130bfe80d077e667ae4096ee76944f7cfe1896fdfbaf8e576b6b96720a68efb033692e6560d361f9b77e0000000000000000",
                    "logDecoded": true,
                    "operation": "EVENT",
                    "revert": false,
                    "status": true,
                    "topics": [
                        "0xa07a543ab8a018198e99ca0184c93fe9050a79400a0a723441f84de1d972cc17",
                        "0x00000000000000000000000096fdfbaf8e576b6b96720a68efb033692e6560d3"
                    ]
                },
                "nodeType": 1
            },
            "7": {
                "invocation": {
                    "address": "0xc92e8bdf79f0507f65a392b0ab4667716bfe0110",
                    "callData": "0x0000000000000000000000000000000000000000000000000000000000000020000000000000000000000000000000000000000000000000000000000000000200000000000000000000000000000639caea2f4991b946c1f68686e4df700000000000000000000000000000c02aaa39b223fe8d0a0e5c4f27ead9083c756cc20000000000000000000000000000000000000000000000003e2c284391c000005a28e9363bb942b639270062aa6bb295f434bcdfc42c97267bf003f272060dc900000000000000000000000096fdfbaf8e576b6b96720a68efb033692e6560d30000000000000000000000005a1912749d2b7c3cdb832b81601c8c3f437a0de80000000000000000000000000000000000000000000000000000000ba43b74005a28e9363bb942b639270062aa6bb295f434bcdfc42c97267bf003f272060dc9",
                    "decodedMethod": {
                        "callParams": [
                            {
                                "name": "transfers",
                                "type": "(address,address,uint256,bytes32)[]",
                                "value": [
                                    [
                                        {
                                            "name": "account",
                                            "type": "address",
                                            "value": "0x00000639caea2f4991b946c1f68686e4df700000"
                                        },
                                        {
                                            "name": "token",
                                            "type": "address",
                                            "value": "0xc02aaa39b223fe8d0a0e5c4f27ead9083c756cc2"
                                        },
                                        {
                                            "name": "amount",
                                            "type": "uint256",
                                            "value": "4,480,000,000,000,000,000"
                                        },
                                        {
                                            "name": "balance",
                                            "type": "bytes32",
                                            "value": "0x5a28e9363bb942b639270062aa6bb295f434bcdfc42c97267bf003f272060dc9"
                                        }
                                    ],
                                    [
                                        {
                                            "name": "account",
                                            "type": "address",
                                            "value": "0x96fdfbaf8e576b6b96720a68efb033692e6560d3"
                                        },
                                        {
                                            "name": "token",
                                            "type": "address",
                                            "value": "0x5a1912749d2b7c3cdb832b81601c8c3f437a0de8"
                                        },
                                        {
                                            "name": "amount",
                                            "type": "uint256",
                                            "value": "50,000,000,000"
                                        },
                                        {
                                            "name": "balance",
                                            "type": "bytes32",
                                            "value": "0x5a28e9363bb942b639270062aa6bb295f434bcdfc42c97267bf003f272060dc9"
                                        }
                                    ]
                                ]
                            }
                        ],
                        "constructorArguments": "",
                        "name": "transferFromAccounts",
                        "returnParams": [],
                        "signature": "transferFromAccounts((address,address,uint256,bytes32)[])"
                    },
                    "errorInfo": "",
                    "fromAddress": "0x9008d19f58aabd9ed0d60971565aa8510560ab41",
                    "gasUsed": 60992,
                    "id": 7,
                    "methodDecoded": true,
                    "operation": "CALL",
                    "output": "",
                    "revert": false,
                    "revertMessage": "",
                    "selector": "0x7d10d11f",
                    "status": true,
                    "value": "0"
                },
                "nodeType": 0
            },
            "8": {
                "invocation": {
                    "address": "0xc02aaa39b223fe8d0a0e5c4f27ead9083c756cc2",
                    "callData": "0x00000000000000000000000000000639caea2f4991b946c1f68686e4df7000000000000000000000000000009008d19f58aabd9ed0d60971565aa8510560ab410000000000000000000000000000000000000000000000003e2c284391c00000",
                    "decodedMethod": {
                        "callParams": [
                            {
                                "name": "src",
                                "type": "address",
                                "value": "0x00000639caea2f4991b946c1f68686e4df700000"
                            },
                            {
                                "name": "dst",
                                "type": "address",
                                "value": "0x9008d19f58aabd9ed0d60971565aa8510560ab41"
                            },
                            {
                                "decimalAvailable": true,
                                "name": "wad",
                                "type": "uint256",
                                "value": "4,480,000,000,000,000,000"
                            }
                        ],
                        "constructorArguments": "",
                        "name": "transferFrom",
                        "returnParams": [
                            {
                                "name": "",
                                "type": "bool",
                                "value": true
                            }
                        ],
                        "signature": "transferFrom(address,address,uint256)"
                    },
                    "errorInfo": "",
                    "fromAddress": "0xc92e8bdf79f0507f65a392b0ab4667716bfe0110",
                    "gasUsed": 15025,
                    "id": 8,
                    "methodDecoded": true,
                    "operation": "CALL",
                    "output": "0x0000000000000000000000000000000000000000000000000000000000000001",
                    "revert": false,
                    "revertMessage": "",
                    "selector": "0x23b872dd",
                    "status": true,
                    "value": "0"
                },
                "nodeType": 0
            },
            "9": {
                "event": {
                    "contract": "0xc02aaa39b223fe8d0a0e5c4f27ead9083c756cc2",
                    "decodedLog": {
                        "name": "Transfer",
                        "params": [
                            {
                                "name": "src",
                                "type": "address",
                                "value": "0x00000639caea2f4991b946c1f68686e4df700000"
                            },
                            {
                                "name": "dst",
                                "type": "address",
                                "value": "0x9008d19f58aabd9ed0d60971565aa8510560ab41"
                            },
                            {
                                "decimalAvailable": true,
                                "name": "wad",
                                "type": "uint256",
                                "value": "4,480,000,000,000,000,000"
                            }
                        ],
                        "signature": "Transfer(address,address,uint256)"
                    },
                    "id": 9,
                    "logData": "0x0000000000000000000000000000000000000000000000003e2c284391c00000",
                    "logDecoded": true,
                    "operation": "EVENT",
                    "revert": false,
                    "status": true,
                    "topics": [
                        "0xddf252ad1be2c89b69c2b068fc378daa952ba7f163c4a11628f55a4df523b3ef",
                        "0x00000000000000000000000000000639caea2f4991b946c1f68686e4df700000",
                        "0x0000000000000000000000009008d19f58aabd9ed0d60971565aa8510560ab41"
                    ]
                },
                "nodeType": 1
            }
        },
        "gasFlame": [
            {
                "children": [
                    {
                        "children": [
                            {
                                "children": [],
                                "depth": 0,
                                "name": "Initial Gas",
                                "value": 42908
                            },
                            {
                                "children": [
                                    {
                                        "children": [
                                            {
                                                "children": [],
                                                "depth": 2,
                                                "name": "isSolver",
                                                "value": 2431
                                            }
                                        ],
                                        "depth": 1,
                                        "name": "isSolver",
                                        "value": 7365
                                    },
                                    {
                                        "children": [],
                                        "depth": 1,
                                        "name": "ecrecover",
                                        "value": 3000
                                    },
                                    {
                                        "children": [],
                                        "depth": 1,
                                        "name": "ecrecover",
                                        "value": 3000
                                    },
                                    {
                                        "children": [
                                            {
                                                "children": [],
                                                "depth": 2,
                                                "name": "transferFrom",
                                                "value": 15025
                                            },
                                            {
                                                "children": [],
                                                "depth": 2,
                                                "name": "transferFrom",
                                                "value": 37757
                                            }
                                        ],
                                        "depth": 1,
                                        "name": "transferFromAccounts",
                                        "value": 60992
                                    },
                                    {
                                        "children": [
                                            {
                                                "children": [],
                                                "depth": 2,
                                                "name": "onSwap",
                                                "value": 25880
                                            },
                                            {
                                                "children": [],
                                                "depth": 2,
                                                "name": "transferFrom",
                                                "value": 10225
                                            },
                                            {
                                                "children": [],
                                                "depth": 2,
                                                "name": "transfer",
                                                "value": 13074
                                            }
                                        ],
                                        "depth": 1,
                                        "name": "swap",
                                        "value": 81207
                                    },
                                    {
                                        "children": [],
                                        "depth": 1,
                                        "name": "approve",
                                        "value": 24646
                                    },
                                    {
                                        "children": [
                                            {
                                                "children": [],
                                                "depth": 2,
                                                "name": "getReserves",
                                                "value": 2504
                                            },
                                            {
                                                "children": [],
                                                "depth": 2,
                                                "name": "transferFrom",
                                                "value": 11057
                                            },
                                            {
                                                "children": [
                                                    {
                                                        "children": [],
                                                        "depth": 3,
                                                        "name": "transfer",
                                                        "value": 8062
                                                    },
                                                    {
                                                        "children": [],
                                                        "depth": 3,
                                                        "name": "balanceOf",
                                                        "value": 563
                                                    },
                                                    {
                                                        "children": [],
                                                        "depth": 3,
                                                        "name": "balanceOf",
                                                        "value": 534
                                                    }
                                                ],
                                                "depth": 2,
                                                "name": "swap",
                                                "value": 40482
                                            }
                                        ],
                                        "depth": 1,
                                        "name": "swapTokensForExactTokens",
                                        "value": 64300
                                    },
                                    {
                                        "children": [],
                                        "depth": 1,
                                        "name": "transfer",
                                        "value": 8274
                                    },
                                    {
                                        "children": [],
                                        "depth": 1,
                                        "name": "fallback",
                                        "value": 0
                                    }
                                ],
                                "depth": 0,
                                "name": "Executed Gas",
                                "value": 355632
                            }
                        ],
                        "depth": -1,
                        "name": "Actual Gas Used",
                        "value": 377740
                    },
                    {
                        "children": [],
                        "depth": -1,
                        "name": "Refunded Gas",
                        "value": 20800
                    }
                ],
                "depth": -2,
                "name": "Total Gas",
                "value": 398540
            }
        ],
        "isConfirmed": true,
        "mainTrace": [
            {
                "children": [
                    {
                        "children": [
                            {
                                "children": [
                                    {
                                        "children": [],
                                        "depth": 2,
                                        "id": 2,
                                        "order": 2
                                    }
                                ],
                                "depth": 1,
                                "id": 1,
                                "order": 1
                            },
                            {
                                "children": [],
                                "depth": 1,
                                "id": 3,
                                "order": 3
                            },
                            {
                                "children": [],
                                "depth": 1,
                                "id": 4,
                                "order": 4
                            },
                            {
                                "children": [],
                                "depth": 1,
                                "id": 5,
                                "order": 5
                            },
                            {
                                "children": [],
                                "depth": 1,
                                "id": 6,
                                "order": 6
                            },
                            {
                                "children": [
                                    {
                                        "children": [
                                            {
                                                "children": [],
                                                "depth": 3,
                                                "id": 9,
                                                "order": 9
                                            }
                                        ],
                                        "depth": 2,
                                        "id": 8,
                                        "order": 8
                                    },
                                    {
                                        "children": [
                                            {
                                                "children": [],
                                                "depth": 3,
                                                "id": 11,
                                                "order": 11
                                            },
                                            {
                                                "children": [],
                                                "depth": 3,
                                                "id": 12,
                                                "order": 12
                                            }
                                        ],
                                        "depth": 2,
                                        "id": 10,
                                        "order": 10
                                    }
                                ],
                                "depth": 1,
                                "id": 7,
                                "order": 7
                            },
                            {
                                "children": [
                                    {
                                        "children": [],
                                        "depth": 2,
                                        "id": 14,
                                        "order": 14
                                    },
                                    {
                                        "children": [],
                                        "depth": 2,
                                        "id": 15,
                                        "order": 15
                                    },
                                    {
                                        "children": [
                                            {
                                                "children": [],
                                                "depth": 3,
                                                "id": 17,
                                                "order": 17
                                            }
                                        ],
                                        "depth": 2,
                                        "id": 16,
                                        "order": 16
                                    },
                                    {
                                        "children": [
                                            {
                                                "children": [],
                                                "depth": 3,
                                                "id": 19,
                                                "order": 19
                                            }
                                        ],
                                        "depth": 2,
                                        "id": 18,
                                        "order": 18
                                    }
                                ],
                                "depth": 1,
                                "id": 13,
                                "order": 13
                            },
                            {
                                "children": [],
                                "depth": 1,
                                "id": 20,
                                "order": 20
                            },
                            {
                                "children": [
                                    {
                                        "children": [],
                                        "depth": 2,
                                        "id": 22,
                                        "order": 22
                                    }
                                ],
                                "depth": 1,
                                "id": 21,
                                "order": 21
                            },
                            {
                                "children": [],
                                "depth": 1,
                                "id": 23,
                                "order": 23
                            },
                            {
                                "children": [
                                    {
                                        "children": [],
                                        "depth": 2,
                                        "id": 25,
                                        "order": 25
                                    },
                                    {
                                        "children": [
                                            {
                                                "children": [],
                                                "depth": 3,
                                                "id": 27,
                                                "order": 27
                                            },
                                            {
                                                "children": [],
                                                "depth": 3,
                                                "id": 28,
                                                "order": 28
                                            }
                                        ],
                                        "depth": 2,
                                        "id": 26,
                                        "order": 26
                                    },
                                    {
                                        "children": [
                                            {
                                                "children": [
                                                    {
                                                        "children": [],
                                                        "depth": 4,
                                                        "id": 31,
                                                        "order": 31
                                                    }
                                                ],
                                                "depth": 3,
                                                "id": 30,
                                                "order": 30
                                            },
                                            {
                                                "children": [],
                                                "depth": 3,
                                                "id": 32,
                                                "order": 32
                                            },
                                            {
                                                "children": [],
                                                "depth": 3,
                                                "id": 33,
                                                "order": 33
                                            },
                                            {
                                                "children": [],
                                                "depth": 3,
                                                "id": 34,
                                                "order": 34
                                            },
                                            {
                                                "children": [],
                                                "depth": 3,
                                                "id": 35,
                                                "order": 35
                                            }
                                        ],
                                        "depth": 2,
                                        "id": 29,
                                        "order": 29
                                    }
                                ],
                                "depth": 1,
                                "id": 24,
                                "order": 24
                            },
                            {
                                "children": [],
                                "depth": 1,
                                "id": 36,
                                "order": 36
                            },
                            {
                                "children": [
                                    {
                                        "children": [],
                                        "depth": 2,
                                        "id": 38,
                                        "order": 38
                                    }
                                ],
                                "depth": 1,
                                "id": 37,
                                "order": 37
                            },
                            {
                                "children": [],
                                "depth": 1,
                                "id": 39,
                                "order": 39
                            },
                            {
                                "children": [],
                                "depth": 1,
                                "id": 40,
                                "order": 40
                            }
                        ],
                        "depth": 0,
                        "id": 0,
                        "order": 0
                    }
                ],
                "depth": -1,
                "id": -1,
                "order": -1
            }
        ],
        "mainTraceNodeCount": 41,
        "parentIdMap": {
            "0": -1,
            "1": 0,
            "10": 7,
            "11": 10,
            "12": 10,
            "13": 0,
            "14": 13,
            "15": 13,
            "16": 13,
            "17": 16,
            "18": 13,
            "19": 18,
            "2": 1,
            "20": 0,
            "21": 0,
            "22": 21,
            "23": 0,
            "24": 0,
            "25": 24,
            "26": 24,
            "27": 26,
            "28": 26,
            "29": 24,
            "3": 0,
            "30": 29,
            "31": 30,
            "32": 29,
            "33": 29,
            "34": 29,
            "35": 29,
            "36": 0,
            "37": 0,
            "38": 37,
            "39": 0,
            "4": 0,
            "40": 0,
            "5": 0,
            "6": 0,
            "7": 0,
            "8": 7,
            "9": 8
        },
        "tidyTrace": [
            {
                "children": [
                    {
                        "children": [
                            {
                                "children": [],
                                "depth": 1,
                                "id": 4,
                                "order": 4
                            },
                            {
                                "children": [],
                                "depth": 1,
                                "id": 6,
                                "order": 6
                            },
                            {
                                "children": [
                                    {
                                        "children": [
                                            {
                                                "children": [],
                                                "depth": 3,
                                                "id": 9,
                                                "order": 9
                                            }
                                        ],
                                        "depth": 2,
                                        "id": 8,
                                        "order": 8
                                    },
                                    {
                                        "children": [
                                            {
                                                "children": [],
                                                "depth": 3,
                                                "id": 11,
                                                "order": 11
                                            },
                                            {
                                                "children": [],
                                                "depth": 3,
                                                "id": 12,
                                                "order": 12
                                            }
                                        ],
                                        "depth": 2,
                                        "id": 10,
                                        "order": 10
                                    }
                                ],
                                "depth": 1,
                                "id": 7,
                                "order": 7
                            },
                            {
                                "children": [
                                    {
                                        "children": [],
                                        "depth": 2,
                                        "id": 14,
                                        "order": 14
                                    },
                                    {
                                        "children": [],
                                        "depth": 2,
                                        "id": 15,
                                        "order": 15
                                    },
                                    {
                                        "children": [
                                            {
                                                "children": [],
                                                "depth": 3,
                                                "id": 17,
                                                "order": 17
                                            }
                                        ],
                                        "depth": 2,
                                        "id": 16,
                                        "order": 16
                                    },
                                    {
                                        "children": [
                                            {
                                                "children": [],
                                                "depth": 3,
                                                "id": 19,
                                                "order": 19
                                            }
                                        ],
                                        "depth": 2,
                                        "id": 18,
                                        "order": 18
                                    }
                                ],
                                "depth": 1,
                                "id": 13,
                                "order": 13
                            },
                            {
                                "children": [],
                                "depth": 1,
                                "id": 20,
                                "order": 20
                            },
                            {
                                "children": [
                                    {
                                        "children": [],
                                        "depth": 2,
                                        "id": 22,
                                        "order": 22
                                    }
                                ],
                                "depth": 1,
                                "id": 21,
                                "order": 21
                            },
                            {
                                "children": [],
                                "depth": 1,
                                "id": 23,
                                "order": 23
                            },
                            {
                                "children": [
                                    {
                                        "children": [
                                            {
                                                "children": [],
                                                "depth": 3,
                                                "id": 27,
                                                "order": 27
                                            },
                                            {
                                                "children": [],
                                                "depth": 3,
                                                "id": 28,
                                                "order": 28
                                            }
                                        ],
                                        "depth": 2,
                                        "id": 26,
                                        "order": 26
                                    },
                                    {
                                        "children": [
                                            {
                                                "children": [
                                                    {
                                                        "children": [],
                                                        "depth": 4,
                                                        "id": 31,
                                                        "order": 31
                                                    }
                                                ],
                                                "depth": 3,
                                                "id": 30,
                                                "order": 30
                                            },
                                            {
                                                "children": [],
                                                "depth": 3,
                                                "id": 34,
                                                "order": 34
                                            },
                                            {
                                                "children": [],
                                                "depth": 3,
                                                "id": 35,
                                                "order": 35
                                            }
                                        ],
                                        "depth": 2,
                                        "id": 29,
                                        "order": 29
                                    }
                                ],
                                "depth": 1,
                                "id": 24,
                                "order": 24
                            },
                            {
                                "children": [],
                                "depth": 1,
                                "id": 36,
                                "order": 36
                            },
                            {
                                "children": [
                                    {
                                        "children": [],
                                        "depth": 2,
                                        "id": 38,
                                        "order": 38
                                    }
                                ],
                                "depth": 1,
                                "id": 37,
                                "order": 37
                            },
                            {
                                "children": [],
                                "depth": 1,
                                "id": 39,
                                "order": 39
                            },
                            {
                                "children": [],
                                "depth": 1,
                                "id": 40,
                                "order": 40
                            }
                        ],
                        "depth": 0,
                        "id": 0,
                        "order": 0
                    }
                ],
                "depth": -1,
                "id": -1,
                "order": -1
            }
        ],
        "tidyTraceNodeCount": 34
    },
    "state_change": {
        "stateChanges": [
            {
                "address": "0x0b09dea16768f0799065c475be02919503cb2a35",
                "erc": "ERC-20",
                "slots": [
                    {
                        "current": "0x0000000000000000000000000000013e52b9abe0003d8e1f9b0a7082c381f1c9",
                        "key": "0x0000000000000000000000000000000000000000000000000000000000000008",
                        "prev": "0x0000000000000000000000000000013e52b9abe0003d861f9ae50082c381f1c9"
                    },
                    {
                        "current": "0x04d8340f28b10580eee05d870121df845c96cc1f1c900b654c1903de61f9b0a7",
                        "key": "0xd0a7771a50d687ae023db3c69a7575fba8aca112cc8d8d14a032b3a7b88f3b1a",
                        "prev": "0x04c1d40f26fec48559405bd18121bec51e8ea81f38000b5a402a5d99e1ee5503"
                    }
                ],
                "storageVariables": [
                    {
                        "name": "_samples",
                        "type": "mapping(uint256 => bytes32)",
                        "value": {
                            "pairs": [
                                {
                                    "key": "945",
                                    "value": {
                                        "current": "0x04d8340f28b10580eee05d870121df845c96cc1f1c900b654c1903de61f9b0a7",
                                        "prev": "0x04c1d40f26fec48559405bd18121bec51e8ea81f38000b5a402a5d99e1ee5503",
                                        "typeTag": 1
                                    }
                                }
                            ],
                            "typeTag": 4
                        }
                    },
                    {
                        "name": "_miscData",
                        "type": "bytes32",
                        "value": {
                            "current": "0x0000000000000000000000000000013e52b9abe0003d8e1f9b0a7082c381f1c9",
                            "prev": "0x0000000000000000000000000000013e52b9abe0003d861f9ae50082c381f1c9",
                            "typeTag": 1
                        }
                    }
                ]
            },
            {
                "address": "0x2f7896984a19d6860be6f18ccf3e0de7365f28e1",
                "erc": "ERC-20",
                "slots": [
                    {
                        "current": "0x61f9b0a700000000000035ee9763e5fec31b00000000000000000302a725503b",
                        "key": "0x0000000000000000000000000000000000000000000000000000000000000008",
                        "prev": "0x61f9acfa000000000000366cbbc55ed6602e000000000000000002fba7a6a02d"
                    },
                    {
                        "current": "0x000000000000000000000000001da6d8a31b8a5e99c36f9812d252e32a6291e8",
                        "key": "0x0000000000000000000000000000000000000000000000000000000000000009",
                        "prev": "0x000000000000000000000000001d63c846e13df44c98e391fba56293cd5da136"
                    },
                    {
                        "current": "0x0000000000000000000000000000000000001d20ff2ddb7b65cd1ab9427ce5d4",
                        "key": "0x000000000000000000000000000000000000000000000000000000000000000a",
                        "prev": "0x0000000000000000000000000000000000001ced6ba38cd1269dec19fd62c953"
                    }
                ],
                "storageVariables": [
                    {
                        "name": "price1CumulativeLast",
                        "type": "uint256",
                        "value": {
                            "current": "590804153821995771566570994460116",
                            "prev": "586717856034076360739998761404755",
                            "typeTag": 1
                        }
                    },
                    {
                        "name": "reserve0",
                        "type": "uint112",
                        "value": {
                            "current": "3309929058363",
                            "prev": "3279872761901",
                            "typeTag": 1
                        }
                    },
                    {
                        "name": "reserve1",
                        "type": "uint112",
                        "value": {
                            "current": "3886209983783551771",
                            "prev": "3921715831906918446",
                            "typeTag": 1
                        }
                    },
                    {
                        "name": "blockTimestampLast",
                        "type": "uint32",
                        "value": {
                            "current": "1643753639",
                            "prev": "1643752698",
                            "typeTag": 1
                        }
                    },
                    {
                        "name": "price0CumulativeLast",
                        "type": "uint256",
                        "value": {
                            "current": "661255968020476990437765412228124419758920168",
                            "prev": "655413877753499603692859964065287888227377462",
                            "typeTag": 1
                        }
                    }
                ]
            },
            {
                "address": "0x5a1912749d2b7c3cdb832b81601c8c3f437a0de8",
                "erc": "ERC-20",
                "slots": [
                    {
                        "current": "0xfffffffffffffffffffffffffffffffffffffffffffffffffffffff45bc48bff",
                        "key": "0xc018053de588c29fd34a41a63536f6fb990e06aa043482168f6d5e5b7d64e853",
                        "prev": "0xffffffffffffffffffffffffffffffffffffffffffffffffffffffffffffffff"
                    },
                    {
                        "current": "0x0000000000000000000000000000000000000000000000000000000000000000",
                        "key": "0xf891a9c11ad5c22e3e8fcae8a0fa23da8e7d3f488074e0b6c89d21b74df2947b",
                        "prev": "0x0000000000000000000000000000000000000000000000000000000ba43b7400"
                    },
                    {
                        "current": "0x00000000000000000000000000000000000000000000000000000004a4bcc3f2",
                        "key": "0x618059526d7d1bb5608c8e3a0740d1f656fa8a764ecca600a8e0e3e0c313ce66",
                        "prev": "0x0000000000000000000000000000000000000000000000000000000000000000"
                    },
                    {
                        "current": "0xfffffffffffffffffffffffffffffffffffffffffffffffffffffff900814ff1",
                        "key": "0x20652731ce8e0d3f92eb4917629e3b743beddb9eff037e238241297f1d70ea81",
                        "prev": "0x0000000000000000000000000000000000000000000000000000000000000000"
                    },
                    {
                        "current": "0x00000000000000000000000000000000000000000000000000000302a725503b",
                        "key": "0x3f07c1697c2eddd3d827154d6acc0d11d8ccde0c5beb2a67c71edd57f6e21202",
                        "prev": "0x000000000000000000000000000000000000000000000000000002fba7a6a02d"
                    }
                ],
                "storageVariables": [
                    {
                        "name": "_balances",
                        "type": "mapping(address => uint256)",
                        "value": {
                            "pairs": [
                                {
                                    "key": "0x2f7896984a19d6860be6f18ccf3e0de7365f28e1",
                                    "value": {
                                        "current": "3309929058363",
                                        "prev": "3279872761901",
                                        "typeTag": 1
                                    }
                                },
                                {
                                    "key": "0x9008d19f58aabd9ed0d60971565aa8510560ab41",
                                    "value": {
                                        "current": "19943703538",
                                        "prev": "0",
                                        "typeTag": 1
                                    }
                                },
                                {
                                    "key": "0x96fdfbaf8e576b6b96720a68efb033692e6560d3",
                                    "value": {
                                        "current": "0",
                                        "prev": "50000000000",
                                        "typeTag": 1
                                    }
                                }
                            ],
                            "typeTag": 4
                        }
                    },
                    {
                        "name": "_allowances",
                        "type": "mapping(address => mapping(address => uint256))",
                        "value": {
                            "pairs": [
                                {
                                    "key": "0x9008d19f58aabd9ed0d60971565aa8510560ab41",
                                    "value": {
                                        "pairs": [
                                            {
                                                "key": "0x7a250d5630b4cf539739df2c5dacb4c659f2488d",
                                                "value": {
                                                    "current": "115792089237316195423570985008687907853269984665640564039457584007883073343473",
                                                    "prev": "0",
                                                    "typeTag": 1
                                                }
                                            }
                                        ],
                                        "typeTag": 4
                                    }
                                },
                                {
                                    "key": "0x96fdfbaf8e576b6b96720a68efb033692e6560d3",
                                    "value": {
                                        "pairs": [
                                            {
                                                "key": "0xc92e8bdf79f0507f65a392b0ab4667716bfe0110",
                                                "value": {
                                                    "current": "115792089237316195423570985008687907853269984665640564039457584007863129639935",
                                                    "prev": "115792089237316195423570985008687907853269984665640564039457584007913129639935",
                                                    "typeTag": 1
                                                }
                                            }
                                        ],
                                        "typeTag": 4
                                    }
                                }
                            ],
                            "typeTag": 4
                        }
                    }
                ]
            },
            {
                "address": "0x6b175474e89094c44da98b954eedeac495271d0f",
                "erc": "ERC-20",
                "slots": [
                    {
                        "current": "0x0000000000000000000000000000000000000000004826d27d5ae4e880e80d5e",
                        "key": "0xb78ecbcc521997ad76ce92f4cd09dccc053fa966cd03f62b9b247d42df4504ef",
                        "prev": "0x000000000000000000000000000000000000000000482974eb8de1e6a9566a14"
                    },
                    {
                        "current": "0x0000000000000000000000000000000000000000000004078d146874f7dfa91c",
                        "key": "0x869b88e8fb5c98572ca3b449450268714c7568c6db1468d1c7d214a2dc43e32a",
                        "prev": "0x0000000000000000000000000000000000000000000001651ee16b76cf714c66"
                    }
                ],
                "storageVariables": [
                    {
                        "name": "balanceOf",
                        "type": "mapping(address => uint256)",
                        "value": {
                            "pairs": [
                                {
                                    "key": "0x00000639caea2f4991b946c1f68686e4df700000",
                                    "value": {
                                        "current": "19028759005105013893404",
                                        "prev": "6587712812163238284390",
                                        "typeTag": 1
                                    }
                                },
                                {
                                    "key": "0xba12222222228d8ba445958a75a0704d566bf2c8",
                                    "value": {
                                        "current": "87225991787641515993992542",
                                        "prev": "87238432833834457769601556",
                                        "typeTag": 1
                                    }
                                }
                            ],
                            "typeTag": 4
                        }
                    }
                ]
            },
            {
                "address": "0x9008d19f58aabd9ed0d60971565aa8510560ab41",
                "erc": "",
                "slots": [
                    {
                        "current": "0x0000000000000000000000000000000000000000000000003dc5cdd050a80930",
                        "key": "0x4305f248983d4fe1c2c54795ea103b83deb5cc885e7bbdf7d164eaacb67f4643",
                        "prev": "0x0000000000000000000000000000000000000000000000000000000000000000"
                    },
                    {
                        "current": "0x00000000000000000000000000000000000000000000000000000006ff7eb00e",
                        "key": "0x520124147fd1737e0d12c76c6962cfa9f325030b30769cd7938d73f6df1a705b",
                        "prev": "0x0000000000000000000000000000000000000000000000000000000000000000"
                    }
                ],
                "storageVariables": [
                    {
                        "name": "filledAmount",
                        "type": "mapping(bytes => uint256)",
                        "value": {
                            "pairs": [
                                {
                                    "key": "0x27fb08d0e292d0526147142564a81acb1ec17eb71ec95adf5c14972a4238178b00000639caea2f4991b946c1f68686e4df70000061f9ccb3",
                                    "value": {
                                        "current": "4451190101315684656",
                                        "prev": "0",
                                        "typeTag": 1
                                    }
                                },
                                {
                                    "key": "0x5fc7a44642463e83d16144f4df3f130bfe80d077e667ae4096ee76944f7cfe1896fdfbaf8e576b6b96720a68efb033692e6560d361f9b77e",
                                    "value": {
                                        "current": "30056296462",
                                        "prev": "0",
                                        "typeTag": 1
                                    }
                                }
                            ],
                            "typeTag": 4
                        }
                    }
                ]
            },
            {
                "address": "0xba12222222228d8ba445958a75a0704d566bf2c8",
                "erc": "",
                "slots": [
                    {
                        "current": "0x00d77f160000000003905911664e8ec8619000000019f7c0dff8671d9946d475",
                        "key": "0x41cf1269499e0f29644472c1a1abb715383fb41d9ff796d8d6e8ad5b11e6e21d",
                        "prev": "0x00d77eeb0000000003901b4b987e3ac77f6400000019fa634e2b641bc1b5312b"
                    }
                ],
                "storageVariables": [
                    {
                        "name": "_twoTokenPoolTokens",
                        "type": "mapping(bytes32 => struct TwoTokenPoolsBalance.TwoTokenPoolTokens)",
                        "value": {
                            "pairs": [
                                {
                                    "key": "0x0b09dea16768f0799065c475be02919503cb2a3500020000000000000000001a",
                                    "value": {
                                        "fields": [
                                            {
                                                "name": "balances",
                                                "type": "mapping(bytes32 => struct TwoTokenPoolsBalance.TwoTokenPoolBalances)",
                                                "value": {
                                                    "pairs": [
                                                        {
                                                            "key": "0x7bda8b27e891f9687bd6d3312ab3f4f458e2cc91916429d721d617df7ac29fb8",
                                                            "value": {
                                                                "fields": [
                                                                    {
                                                                        "name": "sharedCash",
                                                                        "type": "bytes32",
                                                                        "value": {
                                                                            "current": "0x00d77f160000000003905911664e8ec8619000000019f7c0dff8671d9946d475",
                                                                            "prev": "0x00d77eeb0000000003901b4b987e3ac77f6400000019fa634e2b641bc1b5312b",
                                                                            "typeTag": 1
                                                                        }
                                                                    }
                                                                ],
                                                                "typeTag": 3
                                                            }
                                                        }
                                                    ],
                                                    "typeTag": 4
                                                }
                                            }
                                        ],
                                        "typeTag": 3
                                    }
                                }
                            ],
                            "typeTag": 4
                        }
                    }
                ]
            },
            {
                "address": "0xc02aaa39b223fe8d0a0e5c4f27ead9083c756cc2",
                "erc": "ERC-20",
                "slots": [
                    {
                        "current": "0x0000000000000000000000000000000000000000000000000000000000000000",
                        "key": "0xff42cfe415c73530741765a7697d3c26c7914f97502f9e025ef117895eb9ba3c",
                        "prev": "0x0000000000000000000000000000000000000000000000003e2c284391c00000"
                    },
                    {
                        "current": "0x0000000000000000000000000000000000000000000000000585ed95bb1b8477",
                        "key": "0x9d98752c354deebddd53535455198eacf8cfb934237d3523207f70386be5e3dc",
                        "prev": "0x00000000000000000000000000000000000000000000000004a16ec10484c990"
                    },
                    {
                        "current": "0x000000000000000000000000000000000000000000002106991b7ac1438b7bfc",
                        "key": "0x3a0f132b80eb284c2ac247698d2ec7dce851ca420b700161ad6082d0e9762150",
                        "prev": "0x0000000000000000000000000000000000000000000021065b55acf0ef8a99d0"
                    },
                    {
                        "current": "0x00000000000000000000000000000000000000000000000035ee9763e5fec31b",
                        "key": "0xf2946b4e90fc3fa6cd5f393da94bc569afb0160c7ebcda996d4c3b4cf4d77abd",
                        "prev": "0x000000000000000000000000000000000000000000000000366cbbc55ed6602e"
                    }
                ],
                "storageVariables": [
                    {
                        "name": "balanceOf",
                        "type": "mapping(address => uint256)",
                        "value": {
                            "pairs": [
                                {
                                    "key": "0x00000639caea2f4991b946c1f68686e4df700000",
                                    "value": {
                                        "current": "0",
                                        "prev": "4480000000000000000",
                                        "typeTag": 1
                                    }
                                },
                                {
                                    "key": "0x2f7896984a19d6860be6f18ccf3e0de7365f28e1",
                                    "value": {
                                        "current": "3886209983783551771",
                                        "prev": "3921715831906918446",
                                        "typeTag": 1
                                    }
                                },
                                {
                                    "key": "0x9008d19f58aabd9ed0d60971565aa8510560ab41",
                                    "value": {
                                        "current": "397985369437209719",
                                        "prev": "333669622685682064",
                                        "typeTag": 1
                                    }
                                },
                                {
                                    "key": "0xba12222222228d8ba445958a75a0704d566bf2c8",
                                    "value": {
                                        "current": "155959806945823204015100",
                                        "prev": "155955355755721832176080",
                                        "typeTag": 1
                                    }
                                }
                            ],
                            "typeTag": 4
                        }
                    }
                ]
            }
        ]
    }
}