{
    "balance_change": {
        "balanceChanges": [
            {
                "account": "0x0000000000000000000000000000000000000000",
                "assets": [
                    {
                        "address": "0x3dd98c8a089dbcff7e8fc8d4f532bd493501ab7f",
                        "amount": "361.10701019",
                        "iconUrl": "",
                        "isERC1155": false,
                        "isERC721": false,
                        "sign": false,
                        "value": "10.616546099879999658"
                    }
                ]
            },
            {
                "account": "0x7069367e8cc32f30118172579ec7cb4892610b6b",
                "assets": [
                    {
                        "address": "0x3dd98c8a089dbcff7e8fc8d4f532bd493501ab7f",
                        "amount": "361.10701019",
                        "iconUrl": "",
                        "isERC1155": false,
                        "isERC721": false,
                        "sign": true,
                        "value": "10.616546099879999658"
                    }
                ]
            }
        ]
    },
    "profile": {
        "basic_info": {
            "baseFee": "17.707410067",
            "blockNumber": 16823646,
            "callData": "0x7fd30df00000000000000000000000000000000000000000000000000000000000000040000000000000000000000000000000000000000000000000000000000000008000000000000000000000000000000000000000000000000000000000000000010000000000000000000000007069367e8cc32f30118172579ec7cb4892610b6b000000000000000000000000000000000000000000000000000000000000000100000000000000000000000000000000000000000000000000000008685d91db",
            "debugEnable": true,
            "errorInfo": "",
            "eventCount": 1,
            "feeRecipient": "0xdafea492d9c6733ae3d56b7ed1adb60692c98bc5",
            "formatValue": "0",
            "gasLimit": 65000,
            "gasPrice": "20.207410067",
            "gasUsed": 62673,
            "intTxnCount": 0,
            "internalRevert": false,
            "internalRevertMessage": "",
            "isContractCreation": false,
            "isFlashloan": false,
            "maxFee": "33.985030486",
            "nonce": 45347,
            "overwritedBlockNumber": -1,
            "priorityFee": "2.5",
            "receiver": "0x3dd98c8a089dbcff7e8fc8d4f532bd493501ab7f",
            "revertMessage": "",
            "sender": "0xf8ea0c039c22b45d7d8505d07bd6a58e08e58f5b",
            "simulationEnable": true,
            "sourceTxnHash": "0xe1bbf5a895f59675d4eb3061c0f8749b5950c3c7efacce0696991195d9eafa75",
            "status": true,
            "timestamp": "2023-03-14T03:54:35Z",
            "transactionFee": "0.001266459011129091",
            "txnHash": "0xe1bbf5a895f59675d4eb3061c0f8749b5950c3c7efacce0696991195d9eafa75",
            "txnIndex": 30,
            "type": 2,
            "value": "0"
        },
        "fund_flow": [
            {
                "amount": "361.10701019",
                "from": "0x0000000000000000000000000000000000000000",
                "id": 1,
                "isERC1155": false,
                "isERC721": false,
                "isReverted": false,
                "order": 1,
                "to": "0x7069367e8cc32f30118172579ec7cb4892610b6b",
                "token": "0x3dd98c8a089dbcff7e8fc8d4f532bd493501ab7f"
            }
        ],
        "token_infos": [
            {
                "address": "0xeeeeeeeeeeeeeeeeeeeeeeeeeeeeeeeeeeeeeeee",
                "decimals": 18
            },
            {
                "address": "0x3dd98c8a089dbcff7e8fc8d4f532bd493501ab7f",
                "decimals": 8
            },
            {
                "address": "0xc02aaa39b223fe8d0a0e5c4f27ead9083c756cc2",
                "decimals": 18
            }
        ]
    },
    "address_label": {
        "labels": [
            {
                "address": "0xeeeeeeeeeeeeeeeeeeeeeeeeeeeeeeeeeeeeeeee",
                "label": "Ether"
            },
            {
                "address": "0x3dd98c8a089dbcff7e8fc8d4f532bd493501ab7f",
                "label": "Gala Games: TOWN Token"
            },
            {
                "address": "0x0000000000000000000000000000000000000001",
                "label": "Precompiled"
            },
            {
                "address": "0x0000000000000000000000000000000000000002",
                "label": "Precompiled"
            },
            {
                "address": "0x0000000000000000000000000000000000000003",
                "label": "Precompiled"
            },
            {
                "address": "0x0000000000000000000000000000000000000004",
                "label": "Precompiled"
            }
        ]
    },
    "trace": {
        "accountLabels": null,
        "dataMap": {
            "-1": {
                "invocation": {
                    "address": "0xf8ea0c039c22b45d7d8505d07bd6a58e08e58f5b",
                    "callData": "",
                    "decodedMethod": null,
                    "errorInfo": "",
                    "fromAddress": "",
                    "gasUsed": 0,
                    "id": -1,
                    "methodDecoded": false,
                    "operation": "",
                    "output": "",
                    "revert": false,
                    "revertMessage": "",
                    "selector": "",
                    "status": false,
                    "value": ""
                },
                "nodeType": 0
            },
            "0": {
                "invocation": {
                    "address": "0x3dd98c8a089dbcff7e8fc8d4f532bd493501ab7f",
                    "callData": "0x0000000000000000000000000000000000000000000000000000000000000040000000000000000000000000000000000000000000000000000000000000008000000000000000000000000000000000000000000000000000000000000000010000000000000000000000007069367e8cc32f30118172579ec7cb4892610b6b000000000000000000000000000000000000000000000000000000000000000100000000000000000000000000000000000000000000000000000008685d91db",
                    "decodedMethod": {
                        "callParams": [
                            {
                                "name": "accounts",
                                "type": "address[]",
                                "value": [
                                    "0x7069367e8cc32f30118172579ec7cb4892610b6b"
                                ]
                            },
                            {
                                "name": "amounts",
                                "type": "uint256[]",
                                "value": [
                                    "36,110,701,019"
                                ]
                            }
                        ],
                        "constructorArguments": "",
                        "name": "mintBulk",
                        "returnParams": [
                            {
                                "name": "",
                                "type": "bool",
                                "value": true
                            }
                        ],
                        "signature": "mintBulk(address[],uint256[])"
                    },
                    "errorInfo": "",
                    "fromAddress": "0xf8ea0c039c22b45d7d8505d07bd6a58e08e58f5b",
                    "gasUsed": 62673,
                    "id": 0,
                    "methodDecoded": true,
                    "operation": "CALL",
                    "output": "0x0000000000000000000000000000000000000000000000000000000000000001",
                    "revert": false,
                    "revertMessage": "",
                    "selector": "0x7fd30df0",
                    "status": true,
                    "value": "0"
                },
                "nodeType": 0
            },
            "1": {
                "event": {
                    "contract": "0x3dd98c8a089dbcff7e8fc8d4f532bd493501ab7f",
                    "decodedLog": {
                        "name": "Transfer",
                        "params": [
                            {
                                "name": "from",
                                "type": "address",
                                "value": "0x0000000000000000000000000000000000000000"
                            },
                            {
                                "name": "to",
                                "type": "address",
                                "value": "0x7069367e8cc32f30118172579ec7cb4892610b6b"
                            },
                            {
                                "decimalAvailable": true,
                                "name": "value",
                                "type": "uint256",
                                "value": "36,110,701,019"
                            }
                        ],
                        "signature": "Transfer(address,address,uint256)"
                    },
                    "id": 1,
                    "logData": "0x00000000000000000000000000000000000000000000000000000008685d91db",
                    "logDecoded": true,
                    "operation": "EVENT",
                    "revert": false,
                    "status": true,
                    "topics": [
                        "0xddf252ad1be2c89b69c2b068fc378daa952ba7f163c4a11628f55a4df523b3ef",
                        "0x0000000000000000000000000000000000000000000000000000000000000000",
                        "0x0000000000000000000000007069367e8cc32f30118172579ec7cb4892610b6b"
                    ]
                },
                "nodeType": 1
            }
        },
        "gasFlame": [
            {
                "children": [
                    {
                        "children": [
                            {
                                "children": [],
                                "depth": 0,
                                "name": "Initial Gas",
                                "value": 22180
                            },
                            {
                                "children": [],
                                "depth": 0,
                                "name": "Executed Gas",
                                "value": 40493
                            }
                        ],
                        "depth": -1,
                        "name": "Actual Gas Used",
                        "value": 62673
                    },
                    {
                        "children": [],
                        "depth": -1,
                        "name": "Refunded Gas",
                        "value": 0
                    }
                ],
                "depth": -2,
                "name": "Total Gas",
                "value": 62673
            }
        ],
        "isConfirmed": true,
        "mainTrace": [
            {
                "children": [
                    {
                        "children": [
                            {
                                "children": [],
                                "depth": 1,
                                "id": 1,
                                "order": 1
                            }
                        ],
                        "depth": 0,
                        "id": 0,
                        "order": 0
                    }
                ],
                "depth": -1,
                "id": -1,
                "order": -1
            }
        ],
        "mainTraceNodeCount": 2,
        "parentIdMap": {
            "0": -1,
            "1": 0
        },
        "tidyTrace": [
            {
                "children": [
                    {
                        "children": [
                            {
                                "children": [],
                                "depth": 1,
                                "id": 1,
                                "order": 1
                            }
                        ],
                        "depth": 0,
                        "id": 0,
                        "order": 0
                    }
                ],
                "depth": -1,
                "id": -1,
                "order": -1
            }
        ],
        "tidyTraceNodeCount": 2
    },
    "state_change": {
        "stateChanges": [
            {
                "address": "0x3dd98c8a089dbcff7e8fc8d4f532bd493501ab7f",
                "erc": "ERC-20",
                "slots": [
                    {
                        "current": "0x00000000000000000000000000000000000000000000000000000008685d91db",
                        "key": "0x8c9db7420b332762b675a5502bcaa9e72712956a4e08c4b7fc669ee7657dcf46",
                        "prev": "0x0000000000000000000000000000000000000000000000000000000000000000"
                    },
                    {
                        "current": "0x00000000000000000000000000000000000000000000000000a4d7d9a487067e",
                        "key": "0x0000000000000000000000000000000000000000000000000000000000000008",
                        "prev": "0x00000000000000000000000000000000000000000000000000a4d7d13c2974a3"
                    },
                    {
                        "current": "0x000000000000000000000000000000000000000000000000006088a23b56c286",
                        "key": "0x0000000000000000000000000000000000000000000000000000000000000002",
                        "prev": "0x00000000000000000000000000000000000000000000000000608899d2f930ab"
                    }
                ],
                "storageVariables": [
                    {
                        "name": "_balances",
                        "type": "mapping(address => uint256)",
                        "value": {
                            "pairs": [
                                {
                                    "key": "0x7069367e8cc32f30118172579ec7cb4892610b6b",
                                    "value": {
                                        "current": "36110701019",
                                        "prev": "0",
                                        "typeTag": 1
                                    }
                                }
                            ],
                            "typeTag": 4
                        }
                    },
                    {
                        "name": "_totalMinted",
                        "type": "uint256",
                        "value": {
                            "current": "46399225948735102",
                            "prev": "46399189838034083",
                            "typeTag": 1
                        }
                    },
                    {
                        "name": "_totalSupply",
                        "type": "uint256",
                        "value": {
                            "current": "27171828125844102",
                            "prev": "27171792015143083",
                            "typeTag": 1
                        }
                    }
                ]
            }
        ]
    }
}