{
    "balance_change": {
        "balanceChanges": [
            {
                "account": "0x7a79b5fa5023c4ac9a2781f3f7f93c2be306691f",
                "assets": [
                    {
                        "address": "0xe5cd182c4220395c58761bb6b0ded5837a6bbff9",
                        "amount": "88",
                        "iconUrl": "",
                        "isERC1155": false,
                        "isERC721": false,
                        "sign": false,
                        "value": ""
                    }
                ]
            },
            {
                "account": "0x6d9582228c94f5e0324f505553670db9c61c441e",
                "assets": [
                    {
                        "address": "0xe5cd182c4220395c58761bb6b0ded5837a6bbff9",
                        "amount": "88",
                        "iconUrl": "",
                        "isERC1155": false,
                        "isERC721": false,
                        "sign": true,
                        "value": ""
                    }
                ]
            }
        ]
    },
    "profile": {
        "basic_info": {
            "baseFee": "",
            "blockNumber": 7923929,
            "callData": "0xa9059cbb0000000000000000000000006d9582228c94f5e0324f505553670db9c61c441e000000000000000000000000000000000000000000000004c53ecdc18a600000",
            "debugEnable": true,
            "errorInfo": "",
            "eventCount": 1,
            "feeRecipient": "0x829bd824b016326a401d083b33d092293333a830",
            "formatValue": "0",
            "gasLimit": 100000,
            "gasPrice": "5",
            "gasUsed": 52683,
            "intTxnCount": 0,
            "internalRevert": false,
            "internalRevertMessage": "",
            "isContractCreation": false,
            "isFlashloan": false,
            "maxFee": "",
            "nonce": 376,
            "overwritedBlockNumber": -1,
            "priorityFee": "",
            "receiver": "0xe5cd182c4220395c58761bb6b0ded5837a6bbff9",
            "revertMessage": "",
            "sender": "0x7a79b5fa5023c4ac9a2781f3f7f93c2be306691f",
            "simulationEnable": true,
            "sourceTxnHash": "0xe17740ca5aa489eb6be068588569a6a80a4358c08a4c9a927fb0598127096b3e",
            "status": true,
            "timestamp": "2019-06-09T09:23:27Z",
            "transactionFee": "0.000263415",
            "txnHash": "0xe17740ca5aa489eb6be068588569a6a80a4358c08a4c9a927fb0598127096b3e",
            "txnIndex": 137,
            "type": 0,
            "value": "0"
        },
        "fund_flow": [
            {
                "amount": "88",
                "from": "0x7a79b5fa5023c4ac9a2781f3f7f93c2be306691f",
                "id": 1,
                "isERC1155": false,
                "isERC721": false,
                "isReverted": false,
                "order": 1,
                "to": "0x6d9582228c94f5e0324f505553670db9c61c441e",
                "token": "0xe5cd182c4220395c58761bb6b0ded5837a6bbff9"
            }
        ],
        "token_infos": [
            {
                "address": "0xc02aaa39b223fe8d0a0e5c4f27ead9083c756cc2",
                "decimals": 18
            },
            {
                "address": "0xe5cd182c4220395c58761bb6b0ded5837a6bbff9",
                "decimals": 18
            },
            {
                "address": "0xeeeeeeeeeeeeeeeeeeeeeeeeeeeeeeeeeeeeeeee",
                "decimals": 18
            }
        ]
    },
    "address_label": {
        "labels": [
            {
                "address": "0x0000000000000000000000000000000000000002",
                "label": "Precompiled"
            },
            {
                "address": "0x0000000000000000000000000000000000000003",
                "label": "Precompiled"
            },
            {
                "address": "0x0000000000000000000000000000000000000004",
                "label": "Precompiled"
            },
            {
                "address": "0xeeeeeeeeeeeeeeeeeeeeeeeeeeeeeeeeeeeeeeee",
                "label": "Ether"
            },
            {
                "address": "0xe5cd182c4220395c58761bb6b0ded5837a6bbff9",
                "label": "ISC"
            },
            {
                "address": "0x0000000000000000000000000000000000000001",
                "label": "Precompiled"
            }
        ]
    },
    "trace": {
        "accountLabels": null,
        "dataMap": {
            "-1": {
                "invocation": {
                    "address": "0x7a79b5fa5023c4ac9a2781f3f7f93c2be306691f",
                    "callData": "",
                    "decodedMethod": null,
                    "errorInfo": "",
                    "fromAddress": "",
                    "gasUsed": 0,
                    "id": -1,
                    "methodDecoded": false,
                    "operation": "",
                    "output": "",
                    "revert": false,
                    "revertMessage": "",
                    "selector": "",
                    "status": false,
                    "value": ""
                },
                "nodeType": 0
            },
            "0": {
                "invocation": {
                    "address": "0xe5cd182c4220395c58761bb6b0ded5837a6bbff9",
                    "callData": "0x0000000000000000000000006d9582228c94f5e0324f505553670db9c61c441e000000000000000000000000000000000000000000000004c53ecdc18a600000",
                    "decodedMethod": {
                        "callParams": [
                            {
                                "name": "_to",
                                "type": "address",
                                "value": "0x6d9582228c94f5e0324f505553670db9c61c441e"
                            },
                            {
                                "decimalAvailable": true,
                                "name": "_value",
                                "type": "uint256",
                                "value": "88,000,000,000,000,000,000"
                            }
                        ],
                        "constructorArguments": "",
                        "name": "transfer",
                        "returnParams": [
                            {
                                "name": "",
                                "type": "bool",
                                "value": true
                            }
                        ],
                        "signature": "transfer(address,uint256)"
                    },
                    "errorInfo": "",
                    "fromAddress": "0x7a79b5fa5023c4ac9a2781f3f7f93c2be306691f",
                    "gasUsed": 52683,
                    "id": 0,
                    "methodDecoded": true,
                    "operation": "CALL",
                    "output": "0x0000000000000000000000000000000000000000000000000000000000000001",
                    "revert": false,
                    "revertMessage": "",
                    "selector": "0xa9059cbb",
                    "status": true,
                    "value": "0"
                },
                "nodeType": 0
            },
            "1": {
                "event": {
                    "contract": "0xe5cd182c4220395c58761bb6b0ded5837a6bbff9",
                    "decodedLog": {
                        "name": "Transfer",
                        "params": [
                            {
                                "name": "from",
                                "type": "address",
                                "value": "0x7a79b5fa5023c4ac9a2781f3f7f93c2be306691f"
                            },
                            {
                                "name": "to",
                                "type": "address",
                                "value": "0x6d9582228c94f5e0324f505553670db9c61c441e"
                            },
                            {
                                "decimalAvailable": true,
                                "name": "value",
                                "type": "uint256",
                                "value": "88,000,000,000,000,000,000"
                            }
                        ],
                        "signature": "Transfer(address,address,uint256)"
                    },
                    "id": 1,
                    "logData": "0x000000000000000000000000000000000000000000000004c53ecdc18a600000",
                    "logDecoded": true,
                    "operation": "EVENT",
                    "revert": false,
                    "status": true,
                    "topics": [
                        "0xddf252ad1be2c89b69c2b068fc378daa952ba7f163c4a11628f55a4df523b3ef",
                        "0x0000000000000000000000007a79b5fa5023c4ac9a2781f3f7f93c2be306691f",
                        "0x0000000000000000000000006d9582228c94f5e0324f505553670db9c61c441e"
                    ]
                },
                "nodeType": 1
            }
        },
        "gasFlame": [
            {
                "children": [
                    {
                        "children": [
                            {
                                "children": [],
                                "depth": 0,
                                "name": "Initial Gas",
                                "value": 23256
                            },
                            {
                                "children": [],
                                "depth": 0,
                                "name": "Executed Gas",
                                "value": 29427
                            }
                        ],
                        "depth": -1,
                        "name": "Actual Gas Used",
                        "value": 52683
                    },
                    {
                        "children": [],
                        "depth": -1,
                        "name": "Refunded Gas",
                        "value": 0
                    }
                ],
                "depth": -2,
                "name": "Total Gas",
                "value": 52683
            }
        ],
        "isConfirmed": true,
        "mainTrace": [
            {
                "children": [
                    {
                        "children": [
                            {
                                "children": [],
                                "depth": 1,
                                "id": 1,
                                "order": 1
                            }
                        ],
                        "depth": 0,
                        "id": 0,
                        "order": 0
                    }
                ],
                "depth": -1,
                "id": -1,
                "order": -1
            }
        ],
        "mainTraceNodeCount": 2,
        "parentIdMap": {
            "0": -1,
            "1": 0
        },
        "tidyTrace": [
            {
                "children": [
                    {
                        "children": [
                            {
                                "children": [],
                                "depth": 1,
                                "id": 1,
                                "order": 1
                            }
                        ],
                        "depth": 0,
                        "id": 0,
                        "order": 0
                    }
                ],
                "depth": -1,
                "id": -1,
                "order": -1
            }
        ],
        "tidyTraceNodeCount": 2
    },
    "state_change": {
        "stateChanges": [
            {
                "address": "0xe5cd182c4220395c58761bb6b0ded5837a6bbff9",
                "erc": "ERC-20",
                "slots": [
                    {
                        "current": "0x00000000000000000000000000000000000000000000c9d45bf88ae6a4c40000",
                        "key": "0xfdf033a27a364834012c8d9a5d9a800c320b6bf4236315a3e18d6c489a51df1e",
                        "prev": "0x00000000000000000000000000000000000000000000c9d9213758a82f240000"
                    },
                    {
                        "current": "0x000000000000000000000000000000000000000000000004c53ecdc18a600000",
                        "key": "0x01d141ae2beca3a9207311f407fdec6b9a83342f8f4b62fa69a2d34a03047110",
                        "prev": "0x0000000000000000000000000000000000000000000000000000000000000000"
                    }
                ],
                "storageVariables": [
                    {
                        "name": "balances",
                        "type": "mapping(address => uint256)",
                        "value": {
                            "pairs": [
                                {
                                    "key": "0x6d9582228c94f5e0324f505553670db9c61c441e",
                                    "value": {
                                        "current": "88000000000000000000",
                                        "prev": "0",
                                        "typeTag": 1
                                    }
                                },
                                {
                                    "key": "0x7a79b5fa5023c4ac9a2781f3f7f93c2be306691f",
                                    "value": {
                                        "current": "953113000000000000000000",
                                        "prev": "953201000000000000000000",
                                        "typeTag": 1
                                    }
                                }
                            ],
                            "typeTag": 4
                        }
                    }
                ]
            }
        ]
    }
}