{
    "balance_change": {
        "balanceChanges": [
            {
                "account": "0xa20674bc53d9b03ae560726994a0b773fde221da",
                "assets": [
                    {
                        "address": "0xc18360217d8f7ab5e7c516566761ea12ce7f9d72",
                        "amount": "25.014",
                        "iconUrl": "https://assets.blocksec.com/icon/b37674095892c1644fcc49bbf11c03ba967554d2507c28eb7bf37d6043983e4a.png",
                        "isERC1155": false,
                        "isERC721": false,
                        "sign": false,
                        "value": "178.09968000000000267"
                    }
                ]
            },
            {
                "account": "0x8ff63ee41465c237d117af89300b63935f5d4ca9",
                "assets": [
                    {
                        "address": "0xc18360217d8f7ab5e7c516566761ea12ce7f9d72",
                        "amount": "25.014",
                        "iconUrl": "https://assets.blocksec.com/icon/b37674095892c1644fcc49bbf11c03ba967554d2507c28eb7bf37d6043983e4a.png",
                        "isERC1155": false,
                        "isERC721": false,
                        "sign": true,
                        "value": "178.09968000000000267"
                    }
                ]
            }
        ]
    },
    "profile": {
        "basic_info": {
            "baseFee": "6.122274136",
            "blockNumber": 18325771,
            "callData": "0xa9059cbb0000000000000000000000008ff63ee41465c237d117af89300b63935f5d4ca90000000000000000000000000000000000000000000000015b2394785b9f0000",
            "debugEnable": true,
            "errorInfo": "",
            "eventCount": 1,
            "feeRecipient": "0xdafea492d9c6733ae3d56b7ed1adb60692c98bc5",
            "formatValue": "0",
            "gasLimit": 48010,
            "gasPrice": "6.520658336",
            "gasUsed": 35209,
            "intTxnCount": 0,
            "internalRevert": false,
            "internalRevertMessage": "",
            "isContractCreation": false,
            "isFlashloan": false,
            "maxFee": "",
            "nonce": 147,
            "overwritedBlockNumber": -1,
            "priorityFee": "",
            "receiver": "0xc18360217d8f7ab5e7c516566761ea12ce7f9d72",
            "revertMessage": "",
            "sender": "0xa20674bc53d9b03ae560726994a0b773fde221da",
            "simulationEnable": true,
            "sourceTxnHash": "0xe1c35c446ac863efaad0f7813352d99d55bfb8b7014d9904946d8fe09d148ef2",
            "status": true,
            "timestamp": "2023-10-11T07:39:59Z",
            "transactionFee": "0.000229585859352224",
            "txnHash": "0xe1c35c446ac863efaad0f7813352d99d55bfb8b7014d9904946d8fe09d148ef2",
            "txnIndex": 59,
            "type": 0,
            "value": "0"
        },
        "fund_flow": [
            {
                "amount": "25.014",
                "from": "0xa20674bc53d9b03ae560726994a0b773fde221da",
                "id": 1,
                "isERC1155": false,
                "isERC721": false,
                "isReverted": false,
                "order": 1,
                "to": "0x8ff63ee41465c237d117af89300b63935f5d4ca9",
                "token": "0xc18360217d8f7ab5e7c516566761ea12ce7f9d72"
            }
        ],
        "token_infos": [
            {
                "address": "0xc02aaa39b223fe8d0a0e5c4f27ead9083c756cc2",
                "decimals": 18
            },
            {
                "address": "0xc18360217d8f7ab5e7c516566761ea12ce7f9d72",
                "decimals": 18
            },
            {
                "address": "0xeeeeeeeeeeeeeeeeeeeeeeeeeeeeeeeeeeeeeeee",
                "decimals": 18
            }
        ]
    },
    "address_label": {
        "labels": [
            {
                "address": "0x0000000000000000000000000000000000000002",
                "label": "Precompiled"
            },
            {
                "address": "0x0000000000000000000000000000000000000003",
                "label": "Precompiled"
            },
            {
                "address": "0x0000000000000000000000000000000000000004",
                "label": "Precompiled"
            },
            {
                "address": "0xeeeeeeeeeeeeeeeeeeeeeeeeeeeeeeeeeeeeeeee",
                "label": "Ether"
            },
            {
                "address": "0xc18360217d8f7ab5e7c516566761ea12ce7f9d72",
                "label": "ENS: ENS Token"
            },
            {
                "address": "0x0000000000000000000000000000000000000001",
                "label": "Precompiled"
            }
        ]
    },
    "trace": {
        "accountLabels": null,
        "dataMap": {
            "-1": {
                "invocation": {
                    "address": "0xa20674bc53d9b03ae560726994a0b773fde221da",
                    "callData": "",
                    "decodedMethod": null,
                    "errorInfo": "",
                    "fromAddress": "",
                    "gasUsed": 0,
                    "id": -1,
                    "methodDecoded": false,
                    "operation": "",
                    "output": "",
                    "revert": false,
                    "revertMessage": "",
                    "selector": "",
                    "status": false,
                    "value": ""
                },
                "nodeType": 0
            },
            "0": {
                "invocation": {
                    "address": "0xc18360217d8f7ab5e7c516566761ea12ce7f9d72",
                    "callData": "0x0000000000000000000000008ff63ee41465c237d117af89300b63935f5d4ca90000000000000000000000000000000000000000000000015b2394785b9f0000",
                    "decodedMethod": {
                        "callParams": [
                            {
                                "name": "recipient",
                                "type": "address",
                                "value": "0x8ff63ee41465c237d117af89300b63935f5d4ca9"
                            },
                            {
                                "decimalAvailable": true,
                                "name": "amount",
                                "type": "uint256",
                                "value": "25,014,000,000,000,000,000"
                            }
                        ],
                        "constructorArguments": "",
                        "name": "transfer",
                        "returnParams": [
                            {
                                "name": "",
                                "type": "bool",
                                "value": true
                            }
                        ],
                        "signature": "transfer(address,uint256)"
                    },
                    "errorInfo": "",
                    "fromAddress": "0xa20674bc53d9b03ae560726994a0b773fde221da",
                    "gasUsed": 35209,
                    "id": 0,
                    "methodDecoded": true,
                    "operation": "CALL",
                    "output": "0x0000000000000000000000000000000000000000000000000000000000000001",
                    "revert": false,
                    "revertMessage": "",
                    "selector": "0xa9059cbb",
                    "status": true,
                    "value": "0"
                },
                "nodeType": 0
            },
            "1": {
                "event": {
                    "contract": "0xc18360217d8f7ab5e7c516566761ea12ce7f9d72",
                    "decodedLog": {
                        "name": "Transfer",
                        "params": [
                            {
                                "name": "from",
                                "type": "address",
                                "value": "0xa20674bc53d9b03ae560726994a0b773fde221da"
                            },
                            {
                                "name": "to",
                                "type": "address",
                                "value": "0x8ff63ee41465c237d117af89300b63935f5d4ca9"
                            },
                            {
                                "decimalAvailable": true,
                                "name": "value",
                                "type": "uint256",
                                "value": "25,014,000,000,000,000,000"
                            }
                        ],
                        "signature": "Transfer(address,address,uint256)"
                    },
                    "id": 1,
                    "logData": "0x0000000000000000000000000000000000000000000000015b2394785b9f0000",
                    "logDecoded": true,
                    "operation": "EVENT",
                    "revert": false,
                    "status": true,
                    "topics": [
                        "0xddf252ad1be2c89b69c2b068fc378daa952ba7f163c4a11628f55a4df523b3ef",
                        "0x000000000000000000000000a20674bc53d9b03ae560726994a0b773fde221da",
                        "0x0000000000000000000000008ff63ee41465c237d117af89300b63935f5d4ca9"
                    ]
                },
                "nodeType": 1
            }
        },
        "gasFlame": [
            {
                "children": [
                    {
                        "children": [
                            {
                                "children": [],
                                "depth": 0,
                                "name": "Initial Gas",
                                "value": 21644
                            },
                            {
                                "children": [],
                                "depth": 0,
                                "name": "Executed Gas",
                                "value": 18365
                            }
                        ],
                        "depth": -1,
                        "name": "Actual Gas Used",
                        "value": 35209
                    },
                    {
                        "children": [],
                        "depth": -1,
                        "name": "Refunded Gas",
                        "value": 4800
                    }
                ],
                "depth": -2,
                "name": "Total Gas",
                "value": 40009
            }
        ],
        "isConfirmed": true,
        "mainTrace": [
            {
                "children": [
                    {
                        "children": [
                            {
                                "children": [],
                                "depth": 1,
                                "id": 1,
                                "order": 1
                            }
                        ],
                        "depth": 0,
                        "id": 0,
                        "order": 0
                    }
                ],
                "depth": -1,
                "id": -1,
                "order": -1
            }
        ],
        "mainTraceNodeCount": 2,
        "parentIdMap": {
            "0": -1,
            "1": 0
        },
        "tidyTrace": [
            {
                "children": [
                    {
                        "children": [
                            {
                                "children": [],
                                "depth": 1,
                                "id": 1,
                                "order": 1
                            }
                        ],
                        "depth": 0,
                        "id": 0,
                        "order": 0
                    }
                ],
                "depth": -1,
                "id": -1,
                "order": -1
            }
        ],
        "tidyTraceNodeCount": 2
    },
    "state_change": {
        "stateChanges": [
            {
                "address": "0xc18360217d8f7ab5e7c516566761ea12ce7f9d72",
                "erc": "ERC-20",
                "slots": [
                    {
                        "current": "0x0000000000000000000000000000000000000000000000000000000000000000",
                        "key": "0xc0ce31504db1485953e944cb3d0c24657dea30d9569f1623257b6783700475a3",
                        "prev": "0x0000000000000000000000000000000000000000000000015b2394785b9f0000"
                    },
                    {
                        "current": "0x0000000000000000000000000000000000000000000000052695899820f70000",
                        "key": "0x6416229a420ee384a95185182f70ade311830e2739959699d4b9adc5bf5f73cd",
                        "prev": "0x000000000000000000000000000000000000000000000003cb71f51fc5580000"
                    }
                ],
                "storageVariables": [
                    {
                        "name": "_balances",
                        "type": "mapping(address => uint256)",
                        "value": {
                            "pairs": [
                                {
                                    "key": "0x8ff63ee41465c237d117af89300b63935f5d4ca9",
                                    "value": {
                                        "current": "95014000000000000000",
                                        "prev": "70000000000000000000",
                                        "typeTag": 1
                                    }
                                },
                                {
                                    "key": "0xa20674bc53d9b03ae560726994a0b773fde221da",
                                    "value": {
                                        "current": "0",
                                        "prev": "25014000000000000000",
                                        "typeTag": 1
                                    }
                                }
                            ],
                            "typeTag": 4
                        }
                    }
                ]
            }
        ]
    }
}