{
    "balance_change": {
        "balanceChanges": [
            {
                "account": "0x5159748551e2db3328324e381be80d49f680c63b",
                "assets": [
                    {
                        "address": "0xd67b1db49801b6f4c96a01a4f7964233150dc58b",
                        "amount": "39,996",
                        "iconUrl": "",
                        "isERC1155": false,
                        "isERC721": false,
                        "sign": false,
                        "value": ""
                    }
                ]
            },
            {
                "account": "0x18562a70c19ed00ab104232b9702744faceb2ebc",
                "assets": [
                    {
                        "address": "0xd67b1db49801b6f4c96a01a4f7964233150dc58b",
                        "amount": "39,996",
                        "iconUrl": "",
                        "isERC1155": false,
                        "isERC721": false,
                        "sign": true,
                        "value": ""
                    }
                ]
            }
        ]
    },
    "profile": {
        "basic_info": {
            "baseFee": "",
            "blockNumber": 9618514,
            "callData": "0xa9059cbb00000000000000000000000018562a70c19ed00ab104232b9702744faceb2ebc0000000000000000000000000000000000000000000000000000005d1f794600",
            "debugEnable": true,
            "errorInfo": "",
            "eventCount": 1,
            "feeRecipient": "0x52bc44d5378309ee2abf1539bf71de1b7d7be3b5",
            "formatValue": "0",
            "gasLimit": 200000,
            "gasPrice": "19",
            "gasUsed": 51883,
            "intTxnCount": 0,
            "internalRevert": false,
            "internalRevertMessage": "",
            "isContractCreation": false,
            "isFlashloan": false,
            "maxFee": "",
            "nonce": 138592,
            "overwritedBlockNumber": -1,
            "priorityFee": "",
            "receiver": "0xd67b1db49801b6f4c96a01a4f7964233150dc58b",
            "revertMessage": "",
            "sender": "0x5159748551e2db3328324e381be80d49f680c63b",
            "simulationEnable": true,
            "sourceTxnHash": "0xe2bda0a26c432d929b5dadd871cba7e2c2a799229af663e9b83fefdabceb6ad8",
            "status": true,
            "timestamp": "2020-03-06T15:34:00Z",
            "transactionFee": "0.000985777",
            "txnHash": "0xe2bda0a26c432d929b5dadd871cba7e2c2a799229af663e9b83fefdabceb6ad8",
            "txnIndex": 7,
            "type": 0,
            "value": "0"
        },
        "fund_flow": [
            {
                "amount": "39,996",
                "from": "0x5159748551e2db3328324e381be80d49f680c63b",
                "id": 1,
                "isERC1155": false,
                "isERC721": false,
                "isReverted": false,
                "order": 1,
                "to": "0x18562a70c19ed00ab104232b9702744faceb2ebc",
                "token": "0xd67b1db49801b6f4c96a01a4f7964233150dc58b"
            }
        ],
        "token_infos": [
            {
                "address": "0xc02aaa39b223fe8d0a0e5c4f27ead9083c756cc2",
                "decimals": 18
            },
            {
                "address": "0xd67b1db49801b6f4c96a01a4f7964233150dc58b",
                "decimals": 7
            },
            {
                "address": "0xeeeeeeeeeeeeeeeeeeeeeeeeeeeeeeeeeeeeeeee",
                "decimals": 18
            }
        ]
    },
    "address_label": {
        "labels": [
            {
                "address": "0xeeeeeeeeeeeeeeeeeeeeeeeeeeeeeeeeeeeeeeee",
                "label": "Ether"
            },
            {
                "address": "0xd67b1db49801b6f4c96a01a4f7964233150dc58b",
                "label": "KaratBank: KBC Token"
            },
            {
                "address": "0x0000000000000000000000000000000000000001",
                "label": "Precompiled"
            },
            {
                "address": "0x0000000000000000000000000000000000000002",
                "label": "Precompiled"
            },
            {
                "address": "0x0000000000000000000000000000000000000003",
                "label": "Precompiled"
            },
            {
                "address": "0x0000000000000000000000000000000000000004",
                "label": "Precompiled"
            }
        ]
    },
    "trace": {
        "accountLabels": null,
        "dataMap": {
            "-1": {
                "invocation": {
                    "address": "0x5159748551e2db3328324e381be80d49f680c63b",
                    "callData": "",
                    "decodedMethod": null,
                    "errorInfo": "",
                    "fromAddress": "",
                    "gasUsed": 0,
                    "id": -1,
                    "methodDecoded": false,
                    "operation": "",
                    "output": "",
                    "revert": false,
                    "revertMessage": "",
                    "selector": "",
                    "status": false,
                    "value": ""
                },
                "nodeType": 0
            },
            "0": {
                "invocation": {
                    "address": "0xd67b1db49801b6f4c96a01a4f7964233150dc58b",
                    "callData": "0x00000000000000000000000018562a70c19ed00ab104232b9702744faceb2ebc0000000000000000000000000000000000000000000000000000005d1f794600",
                    "decodedMethod": {
                        "callParams": [
                            {
                                "name": "_to",
                                "type": "address",
                                "value": "0x18562a70c19ed00ab104232b9702744faceb2ebc"
                            },
                            {
                                "decimalAvailable": true,
                                "name": "_value",
                                "type": "uint256",
                                "value": "399,960,000,000"
                            }
                        ],
                        "constructorArguments": "",
                        "name": "transfer",
                        "returnParams": [
                            {
                                "name": "",
                                "type": "bool",
                                "value": true
                            }
                        ],
                        "signature": "transfer(address,uint256)"
                    },
                    "errorInfo": "",
                    "fromAddress": "0x5159748551e2db3328324e381be80d49f680c63b",
                    "gasUsed": 51883,
                    "id": 0,
                    "methodDecoded": true,
                    "operation": "CALL",
                    "output": "0x0000000000000000000000000000000000000000000000000000000000000001",
                    "revert": false,
                    "revertMessage": "",
                    "selector": "0xa9059cbb",
                    "status": true,
                    "value": "0"
                },
                "nodeType": 0
            },
            "1": {
                "event": {
                    "contract": "0xd67b1db49801b6f4c96a01a4f7964233150dc58b",
                    "decodedLog": {
                        "name": "Transfer",
                        "params": [
                            {
                                "name": "from",
                                "type": "address",
                                "value": "0x5159748551e2db3328324e381be80d49f680c63b"
                            },
                            {
                                "name": "to",
                                "type": "address",
                                "value": "0x18562a70c19ed00ab104232b9702744faceb2ebc"
                            },
                            {
                                "decimalAvailable": true,
                                "name": "value",
                                "type": "uint256",
                                "value": "399,960,000,000"
                            }
                        ],
                        "signature": "Transfer(address,address,uint256)"
                    },
                    "id": 1,
                    "logData": "0x0000000000000000000000000000000000000000000000000000005d1f794600",
                    "logDecoded": true,
                    "operation": "EVENT",
                    "revert": false,
                    "status": true,
                    "topics": [
                        "0xddf252ad1be2c89b69c2b068fc378daa952ba7f163c4a11628f55a4df523b3ef",
                        "0x0000000000000000000000005159748551e2db3328324e381be80d49f680c63b",
                        "0x00000000000000000000000018562a70c19ed00ab104232b9702744faceb2ebc"
                    ]
                },
                "nodeType": 1
            }
        },
        "gasFlame": [
            {
                "children": [
                    {
                        "children": [
                            {
                                "children": [],
                                "depth": 0,
                                "name": "Initial Gas",
                                "value": 21608
                            },
                            {
                                "children": [],
                                "depth": 0,
                                "name": "Executed Gas",
                                "value": 30275
                            }
                        ],
                        "depth": -1,
                        "name": "Actual Gas Used",
                        "value": 51883
                    },
                    {
                        "children": [],
                        "depth": -1,
                        "name": "Refunded Gas",
                        "value": 0
                    }
                ],
                "depth": -2,
                "name": "Total Gas",
                "value": 51883
            }
        ],
        "isConfirmed": true,
        "mainTrace": [
            {
                "children": [
                    {
                        "children": [
                            {
                                "children": [],
                                "depth": 1,
                                "id": 1,
                                "order": 1
                            }
                        ],
                        "depth": 0,
                        "id": 0,
                        "order": 0
                    }
                ],
                "depth": -1,
                "id": -1,
                "order": -1
            }
        ],
        "mainTraceNodeCount": 2,
        "parentIdMap": {
            "0": -1,
            "1": 0
        },
        "tidyTrace": [
            {
                "children": [
                    {
                        "children": [
                            {
                                "children": [],
                                "depth": 1,
                                "id": 1,
                                "order": 1
                            }
                        ],
                        "depth": 0,
                        "id": 0,
                        "order": 0
                    }
                ],
                "depth": -1,
                "id": -1,
                "order": -1
            }
        ],
        "tidyTraceNodeCount": 2
    },
    "state_change": {
        "stateChanges": [
            {
                "address": "0xd67b1db49801b6f4c96a01a4f7964233150dc58b",
                "erc": "ERC-20",
                "slots": [
                    {
                        "current": "0x0000000000000000000000000000000000000000000000000009ae1416e2489b",
                        "key": "0x03f35e3b13f344557799aca56a491c53cb3775104ab4c9cf983364e3e6774de9",
                        "prev": "0x0000000000000000000000000000000000000000000000000009ae71365b8e9b"
                    },
                    {
                        "current": "0x0000000000000000000000000000000000000000000000000000005d1f794600",
                        "key": "0xc0605f011824f90f44ecfd8c1d608a6aa5bf1052d10c2a32b2a4c037da4adc59",
                        "prev": "0x0000000000000000000000000000000000000000000000000000000000000000"
                    }
                ],
                "storageVariables": [
                    {
                        "name": "balances",
                        "type": "mapping(address => uint256)",
                        "value": {
                            "pairs": [
                                {
                                    "key": "0x18562a70c19ed00ab104232b9702744faceb2ebc",
                                    "value": {
                                        "current": "399960000000",
                                        "prev": "0",
                                        "typeTag": 1
                                    }
                                },
                                {
                                    "key": "0x5159748551e2db3328324e381be80d49f680c63b",
                                    "value": {
                                        "current": "2724676096903323",
                                        "prev": "2725076056903323",
                                        "typeTag": 1
                                    }
                                }
                            ],
                            "typeTag": 4
                        }
                    }
                ]
            }
        ]
    }
}