{
    "balance_change": {
        "balanceChanges": []
    },
    "profile": {
        "basic_info": {
            "baseFee": "",
            "blockNumber": 3494060,
            "callData": "0x5a2bf25a1e6d64ada444ceb2762a709b21e2da9b5d2f855180e774e3db0b9d2c5a3eec550000000000000000000000000940f7d6e7ad832e0085533dd2a114b424d5e83a",
            "debugEnable": true,
            "errorInfo": "",
            "eventCount": 0,
            "feeRecipient": "0xea674fdde714fd979de3edf0f56aa9716b898ec8",
            "formatValue": "0",
            "gasLimit": 1000000,
            "gasPrice": "20",
            "gasUsed": 46578,
            "intTxnCount": 0,
            "internalRevert": false,
            "internalRevertMessage": "",
            "isContractCreation": false,
            "isFlashloan": false,
            "maxFee": "",
            "nonce": 9638,
            "overwritedBlockNumber": -1,
            "priorityFee": "",
            "receiver": "0x5371a8d8d8a86c76de935821ad1a3e9b908cfced",
            "revertMessage": "",
            "sender": "0xbbc5ee8be95683983df67260b0ab033c237bde60",
            "simulationEnable": true,
            "sourceTxnHash": "0xe2f6fd1db06a7ae913d39cd01e438d16c5b9348ecee3f32dc6ad5fb1fdf1cd55",
            "status": true,
            "timestamp": "2017-04-07T15:57:40Z",
            "transactionFee": "0.00093156",
            "txnHash": "0xe2f6fd1db06a7ae913d39cd01e438d16c5b9348ecee3f32dc6ad5fb1fdf1cd55",
            "txnIndex": 42,
            "type": 0,
            "value": "0"
        },
        "fund_flow": [],
        "token_infos": [
            {
                "address": "0xc02aaa39b223fe8d0a0e5c4f27ead9083c756cc2",
                "decimals": 18
            },
            {
                "address": "0xeeeeeeeeeeeeeeeeeeeeeeeeeeeeeeeeeeeeeeee",
                "decimals": 18
            }
        ]
    },
    "address_label": {
        "labels": [
            {
                "address": "0x0000000000000000000000000000000000000002",
                "label": "Precompiled"
            },
            {
                "address": "0x0000000000000000000000000000000000000003",
                "label": "Precompiled"
            },
            {
                "address": "0x0000000000000000000000000000000000000004",
                "label": "Precompiled"
            },
            {
                "address": "0xeeeeeeeeeeeeeeeeeeeeeeeeeeeeeeeeeeeeeeee",
                "label": "Ether"
            },
            {
                "address": "0x0000000000000000000000000000000000000001",
                "label": "Precompiled"
            }
        ]
    },
    "trace": {
        "accountLabels": null,
        "dataMap": {
            "-1": {
                "invocation": {
                    "address": "0xbbc5ee8be95683983df67260b0ab033c237bde60",
                    "callData": "",
                    "decodedMethod": null,
                    "errorInfo": "",
                    "fromAddress": "",
                    "gasUsed": 0,
                    "id": -1,
                    "methodDecoded": false,
                    "operation": "",
                    "output": "",
                    "revert": false,
                    "revertMessage": "",
                    "selector": "",
                    "status": false,
                    "value": ""
                },
                "nodeType": 0
            },
            "0": {
                "invocation": {
                    "address": "0x5371a8d8d8a86c76de935821ad1a3e9b908cfced",
                    "callData": "0x1e6d64ada444ceb2762a709b21e2da9b5d2f855180e774e3db0b9d2c5a3eec550000000000000000000000000940f7d6e7ad832e0085533dd2a114b424d5e83a",
                    "decodedMethod": {
                        "callParams": [
                            {
                                "name": "record",
                                "type": "bytes32",
                                "value": "0x1e6d64ada444ceb2762a709b21e2da9b5d2f855180e774e3db0b9d2c5a3eec55"
                            },
                            {
                                "name": "value",
                                "type": "address",
                                "value": "0x0940f7d6e7ad832e0085533dd2a114b424d5e83a"
                            }
                        ],
                        "constructorArguments": "",
                        "name": "setAddressValue",
                        "returnParams": [],
                        "signature": "setAddressValue(bytes32,address)"
                    },
                    "errorInfo": "",
                    "fromAddress": "0xbbc5ee8be95683983df67260b0ab033c237bde60",
                    "gasUsed": 46578,
                    "id": 0,
                    "methodDecoded": true,
                    "operation": "CALL",
                    "output": "",
                    "revert": false,
                    "revertMessage": "",
                    "selector": "0x5a2bf25a",
                    "status": true,
                    "value": "0"
                },
                "nodeType": 0
            }
        },
        "gasFlame": [
            {
                "children": [
                    {
                        "children": [
                            {
                                "children": [],
                                "depth": 0,
                                "name": "Initial Gas",
                                "value": 24792
                            },
                            {
                                "children": [],
                                "depth": 0,
                                "name": "Executed Gas",
                                "value": 21786
                            }
                        ],
                        "depth": -1,
                        "name": "Actual Gas Used",
                        "value": 46578
                    },
                    {
                        "children": [],
                        "depth": -1,
                        "name": "Refunded Gas",
                        "value": 0
                    }
                ],
                "depth": -2,
                "name": "Total Gas",
                "value": 46578
            }
        ],
        "isConfirmed": true,
        "mainTrace": [
            {
                "children": [
                    {
                        "children": [],
                        "depth": 0,
                        "id": 0,
                        "order": 0
                    }
                ],
                "depth": -1,
                "id": -1,
                "order": -1
            }
        ],
        "mainTraceNodeCount": 1,
        "parentIdMap": {
            "0": -1
        },
        "tidyTrace": [
            {
                "children": [
                    {
                        "children": [],
                        "depth": 0,
                        "id": 0,
                        "order": 0
                    }
                ],
                "depth": -1,
                "id": -1,
                "order": -1
            }
        ],
        "tidyTraceNodeCount": 1
    },
    "state_change": {
        "stateChanges": [
            {
                "address": "0x5371a8d8d8a86c76de935821ad1a3e9b908cfced",
                "erc": "",
                "slots": [
                    {
                        "current": "0x0000000000000000000000000940f7d6e7ad832e0085533dd2a114b424d5e83a",
                        "key": "0xc95763abe40246ded0faa25a896bc0d04f2256769e26a4d6dc364e5e8df649f3",
                        "prev": "0x0000000000000000000000000000000000000000000000000000000000000000"
                    }
                ],
                "storageVariables": []
            }
        ]
    }
}