{
    "balance_change": {
        "balanceChanges": []
    },
    "profile": {
        "basic_info": {
            "baseFee": "",
            "blockNumber": 4689860,
            "callData": "0x0a19b14a00000000000000000000000000000000000000000000000000000000000000000000000000000000000000000000000000000000000000001216f65800b8c00000000000000000000000000027695e09149adc738a978e9a678f99e4c39e9eb90000000000000000000000000000000000000000000000000000015d3ef798000000000000000000000000000000000000000000000000000000000000478fbe0000000000000000000000000000000000000000000000000000000004898858000000000000000000000000813c645d692dccb730dc71e65ac7e80c7de12e82000000000000000000000000000000000000000000000000000000000000001b3fb09ed7897ccc8227f1d76633faa115a17b9f21a24fbe158c2e216030cb3bd92d0c264d045be08891a512242dca98435359d55b00a0538e7a42ba50e350b83d0000000000000000000000000000000000000000000000001216f65800b8c000",
            "debugEnable": true,
            "errorInfo": "invalid jump destination",
            "eventCount": 0,
            "feeRecipient": "0xea674fdde714fd979de3edf0f56aa9716b898ec8",
            "formatValue": "0",
            "gasLimit": 250000,
            "gasPrice": "50",
            "gasUsed": 250000,
            "intTxnCount": 2,
            "internalRevert": true,
            "internalRevertMessage": "",
            "isContractCreation": false,
            "isFlashloan": false,
            "maxFee": "",
            "nonce": 34,
            "overwritedBlockNumber": -1,
            "priorityFee": "",
            "receiver": "0x8d12a197cb00d4747a1fe03395095ce2a5cc6819",
            "revertMessage": "",
            "sender": "0x7fdea6818fc76bc1efa2ca3c5c6cda19c70542b8",
            "simulationEnable": true,
            "sourceTxnHash": "0xe258f05c9ef3a93f96ecc284f29c2cc1af89f88a229678b4ead8e538d0a8a826",
            "status": false,
            "timestamp": "2017-12-07T08:17:25Z",
            "transactionFee": "0.0125",
            "txnHash": "0xe258f05c9ef3a93f96ecc284f29c2cc1af89f88a229678b4ead8e538d0a8a826",
            "txnIndex": 51,
            "type": 0,
            "value": "0"
        },
        "fund_flow": [],
        "token_infos": [
            {
                "address": "0xc02aaa39b223fe8d0a0e5c4f27ead9083c756cc2",
                "decimals": 18
            },
            {
                "address": "0xeeeeeeeeeeeeeeeeeeeeeeeeeeeeeeeeeeeeeeee",
                "decimals": 18
            }
        ]
    },
    "address_label": {
        "labels": [
            {
                "address": "0xeeeeeeeeeeeeeeeeeeeeeeeeeeeeeeeeeeeeeeee",
                "label": "Ether"
            },
            {
                "address": "0x27695e09149adc738a978e9a678f99e4c39e9eb9",
                "label": "KickICO: Old Token 2"
            },
            {
                "address": "0x8d12a197cb00d4747a1fe03395095ce2a5cc6819",
                "label": "EtherDelta"
            },
            {
                "address": "0x0000000000000000000000000000000000000002",
                "label": "Precompiled"
            },
            {
                "address": "0x0000000000000000000000000000000000000000",
                "label": "Null Address"
            },
            {
                "address": "0x0000000000000000000000000000000000000001",
                "label": "Precompiled"
            },
            {
                "address": "0x0000000000000000000000000000000000000003",
                "label": "Precompiled"
            },
            {
                "address": "0x0000000000000000000000000000000000000004",
                "label": "Precompiled"
            }
        ]
    },
    "trace": {
        "accountLabels": null,
        "dataMap": {
            "-1": {
                "invocation": {
                    "address": "0x7fdea6818fc76bc1efa2ca3c5c6cda19c70542b8",
                    "callData": "",
                    "decodedMethod": null,
                    "errorInfo": "",
                    "fromAddress": "",
                    "gasUsed": 0,
                    "id": -1,
                    "methodDecoded": false,
                    "operation": "",
                    "output": "",
                    "revert": false,
                    "revertMessage": "",
                    "selector": "",
                    "status": false,
                    "value": ""
                },
                "nodeType": 0
            },
            "0": {
                "invocation": {
                    "address": "0x8d12a197cb00d4747a1fe03395095ce2a5cc6819",
                    "callData": "0x00000000000000000000000000000000000000000000000000000000000000000000000000000000000000000000000000000000000000001216f65800b8c00000000000000000000000000027695e09149adc738a978e9a678f99e4c39e9eb90000000000000000000000000000000000000000000000000000015d3ef798000000000000000000000000000000000000000000000000000000000000478fbe0000000000000000000000000000000000000000000000000000000004898858000000000000000000000000813c645d692dccb730dc71e65ac7e80c7de12e82000000000000000000000000000000000000000000000000000000000000001b3fb09ed7897ccc8227f1d76633faa115a17b9f21a24fbe158c2e216030cb3bd92d0c264d045be08891a512242dca98435359d55b00a0538e7a42ba50e350b83d0000000000000000000000000000000000000000000000001216f65800b8c000",
                    "decodedMethod": {
                        "callParams": [
                            {
                                "name": "tokenGet",
                                "type": "address",
                                "value": "0x0000000000000000000000000000000000000000"
                            },
                            {
                                "name": "amountGet",
                                "type": "uint256",
                                "value": "1,303,500,000,000,000,000"
                            },
                            {
                                "name": "tokenGive",
                                "type": "address",
                                "value": "0x27695e09149adc738a978e9a678f99e4c39e9eb9"
                            },
                            {
                                "name": "amountGive",
                                "type": "uint256",
                                "value": "1,500,000,000,000"
                            },
                            {
                                "name": "expires",
                                "type": "uint256",
                                "value": "4,689,854"
                            },
                            {
                                "name": "nonce",
                                "type": "uint256",
                                "value": "76,122,200"
                            },
                            {
                                "name": "user",
                                "type": "address",
                                "value": "0x813c645d692dccb730dc71e65ac7e80c7de12e82"
                            },
                            {
                                "name": "v",
                                "type": "uint8",
                                "value": "27"
                            },
                            {
                                "name": "r",
                                "type": "bytes32",
                                "value": "0x3fb09ed7897ccc8227f1d76633faa115a17b9f21a24fbe158c2e216030cb3bd9"
                            },
                            {
                                "name": "s",
                                "type": "bytes32",
                                "value": "0x2d0c264d045be08891a512242dca98435359d55b00a0538e7a42ba50e350b83d"
                            },
                            {
                                "name": "amount",
                                "type": "uint256",
                                "value": "1,303,500,000,000,000,000"
                            }
                        ],
                        "constructorArguments": "",
                        "name": "trade",
                        "returnParams": [],
                        "signature": "trade(address,uint256,address,uint256,uint256,uint256,address,uint8,bytes32,bytes32,uint256)"
                    },
                    "errorInfo": "invalid jump destination",
                    "fromAddress": "0x7fdea6818fc76bc1efa2ca3c5c6cda19c70542b8",
                    "gasUsed": 250000,
                    "id": 0,
                    "methodDecoded": true,
                    "operation": "CALL",
                    "output": "",
                    "revert": true,
                    "revertMessage": "",
                    "selector": "0x0a19b14a",
                    "status": false,
                    "value": "0"
                },
                "nodeType": 0
            },
            "1": {
                "invocation": {
                    "address": "0x0000000000000000000000000000000000000002",
                    "callData": "0xcb00d4747a1fe03395095ce2a5cc681900000000000000000000000000000000000000000000000000000000000000000000000000000000000000001216f65800b8c00027695e09149adc738a978e9a678f99e4c39e9eb90000000000000000000000000000000000000000000000000000015d3ef798000000000000000000000000000000000000000000000000000000000000478fbe0000000000000000000000000000000000000000000000000000000004898858",
                    "decodedMethod": {
                        "callParams": [
                            {
                                "name": "data",
                                "type": "bytes",
                                "value": "0x8d12a197cb00d4747a1fe03395095ce2a5cc681900000000000000000000000000000000000000000000000000000000000000000000000000000000000000001216f65800b8c00027695e09149adc738a978e9a678f99e4c39e9eb90000000000000000000000000000000000000000000000000000015d3ef798000000000000000000000000000000000000000000000000000000000000478fbe0000000000000000000000000000000000000000000000000000000004898858"
                            }
                        ],
                        "constructorArguments": "",
                        "name": "sha256hash",
                        "returnParams": [
                            {
                                "name": "hash",
                                "type": "bytes32",
                                "value": "0x379ca96357763e55f78e350ab59fc282f0287f2e1ebe7ffab751d43f0cd8685b"
                            }
                        ],
                        "signature": "sha256hash(bytes)"
                    },
                    "errorInfo": "",
                    "fromAddress": "0x8d12a197cb00d4747a1fe03395095ce2a5cc6819",
                    "gasUsed": 132,
                    "id": 1,
                    "methodDecoded": true,
                    "operation": "CALL",
                    "output": "0x379ca96357763e55f78e350ab59fc282f0287f2e1ebe7ffab751d43f0cd8685b",
                    "revert": true,
                    "revertMessage": "",
                    "selector": "0x8d12a197",
                    "status": true,
                    "value": "0"
                },
                "nodeType": 0
            },
            "2": {
                "invocation": {
                    "address": "0x0000000000000000000000000000000000000001",
                    "callData": "0xfcf44ece84c19ba59358aa7919f72a4ef4447708ebfdb68d352b2bc2000000000000000000000000000000000000000000000000000000000000001b3fb09ed7897ccc8227f1d76633faa115a17b9f21a24fbe158c2e216030cb3bd92d0c264d045be08891a512242dca98435359d55b00a0538e7a42ba50e350b83d",
                    "decodedMethod": {
                        "callParams": [
                            {
                                "name": "hash",
                                "type": "bytes32",
                                "value": "0x9345d4c2fcf44ece84c19ba59358aa7919f72a4ef4447708ebfdb68d352b2bc2"
                            },
                            {
                                "name": "v",
                                "type": "uint256",
                                "value": "27"
                            },
                            {
                                "name": "r",
                                "type": "bytes32",
                                "value": "0x3fb09ed7897ccc8227f1d76633faa115a17b9f21a24fbe158c2e216030cb3bd9"
                            },
                            {
                                "name": "s",
                                "type": "bytes32",
                                "value": "0x2d0c264d045be08891a512242dca98435359d55b00a0538e7a42ba50e350b83d"
                            }
                        ],
                        "constructorArguments": "",
                        "name": "ecrecover",
                        "returnParams": [
                            {
                                "name": "",
                                "type": "address",
                                "value": "0x813c645d692dccb730dc71e65ac7e80c7de12e82"
                            }
                        ],
                        "signature": "ecrecover(bytes32,uint256,bytes32,bytes32)"
                    },
                    "errorInfo": "",
                    "fromAddress": "0x8d12a197cb00d4747a1fe03395095ce2a5cc6819",
                    "gasUsed": 3000,
                    "id": 2,
                    "methodDecoded": true,
                    "operation": "CALL",
                    "output": "0x000000000000000000000000813c645d692dccb730dc71e65ac7e80c7de12e82",
                    "revert": true,
                    "revertMessage": "",
                    "selector": "0x9345d4c2",
                    "status": true,
                    "value": "0"
                },
                "nodeType": 0
            }
        },
        "gasFlame": [
            {
                "children": [
                    {
                        "children": [
                            {
                                "children": [],
                                "depth": 0,
                                "name": "Initial Gas",
                                "value": 30872
                            },
                            {
                                "children": [
                                    {
                                        "children": [],
                                        "depth": 1,
                                        "name": "sha256hash",
                                        "value": 132
                                    },
                                    {
                                        "children": [],
                                        "depth": 1,
                                        "name": "ecrecover",
                                        "value": 3000
                                    }
                                ],
                                "depth": 0,
                                "name": "Executed Gas",
                                "value": 219128
                            }
                        ],
                        "depth": -1,
                        "name": "Actual Gas Used",
                        "value": 250000
                    },
                    {
                        "children": [],
                        "depth": -1,
                        "name": "Refunded Gas",
                        "value": 0
                    }
                ],
                "depth": -2,
                "name": "Total Gas",
                "value": 250000
            }
        ],
        "isConfirmed": true,
        "mainTrace": [
            {
                "children": [
                    {
                        "children": [
                            {
                                "children": [],
                                "depth": 1,
                                "id": 1,
                                "order": 1
                            },
                            {
                                "children": [],
                                "depth": 1,
                                "id": 2,
                                "order": 2
                            }
                        ],
                        "depth": 0,
                        "id": 0,
                        "order": 0
                    }
                ],
                "depth": -1,
                "id": -1,
                "order": -1
            }
        ],
        "mainTraceNodeCount": 3,
        "parentIdMap": {
            "0": -1,
            "1": 0,
            "2": 0
        },
        "tidyTrace": [
            {
                "children": [
                    {
                        "children": [
                            {
                                "children": [],
                                "depth": 1,
                                "id": 1,
                                "order": 1
                            },
                            {
                                "children": [],
                                "depth": 1,
                                "id": 2,
                                "order": 2
                            }
                        ],
                        "depth": 0,
                        "id": 0,
                        "order": 0
                    }
                ],
                "depth": -1,
                "id": -1,
                "order": -1
            }
        ],
        "tidyTraceNodeCount": 3
    },
    "state_change": {
        "stateChanges": []
    }
}