{
    "balance_change": {
        "balanceChanges": []
    },
    "profile": {
        "basic_info": {
            "baseFee": "20.858872315",
            "blockNumber": 16178540,
            "callData": "0xa22cb4650000000000000000000000001e0049783f008a0085193e00003d00cd54003c710000000000000000000000000000000000000000000000000000000000000001",
            "debugEnable": true,
            "errorInfo": "",
            "eventCount": 1,
            "feeRecipient": "0x690b9a9e9aa1c9db991c7721a92d351db4fac990",
            "formatValue": "0",
            "gasLimit": 46946,
            "gasPrice": "40",
            "gasUsed": 46946,
            "intTxnCount": 0,
            "internalRevert": false,
            "internalRevertMessage": "",
            "isContractCreation": false,
            "isFlashloan": false,
            "maxFee": "",
            "nonce": 4473,
            "overwritedBlockNumber": -1,
            "priorityFee": "",
            "receiver": "0x83ec6efb1bc4f479cb4161eb8217ac6ea7759135",
            "revertMessage": "",
            "sender": "0xbff79922fcbf93f9c30abb22322b271460c6bebb",
            "simulationEnable": true,
            "sourceTxnHash": "0xe280b33c7647f019fc128ba909edc9079c46db9026df15ec88715780257fc906",
            "status": true,
            "timestamp": "2022-12-13T21:44:35Z",
            "transactionFee": "0.00187784",
            "txnHash": "0xe280b33c7647f019fc128ba909edc9079c46db9026df15ec88715780257fc906",
            "txnIndex": 8,
            "type": 0,
            "value": "0"
        },
        "fund_flow": [],
        "token_infos": [
            {
                "address": "0xc02aaa39b223fe8d0a0e5c4f27ead9083c756cc2",
                "decimals": 18
            },
            {
                "address": "0xeeeeeeeeeeeeeeeeeeeeeeeeeeeeeeeeeeeeeeee",
                "decimals": 18
            }
        ]
    },
    "address_label": {
        "labels": [
            {
                "address": "0x0000000000000000000000000000000000000001",
                "label": "Precompiled"
            },
            {
                "address": "0x0000000000000000000000000000000000000002",
                "label": "Precompiled"
            },
            {
                "address": "0x0000000000000000000000000000000000000003",
                "label": "Precompiled"
            },
            {
                "address": "0x0000000000000000000000000000000000000004",
                "label": "Precompiled"
            },
            {
                "address": "0xeeeeeeeeeeeeeeeeeeeeeeeeeeeeeeeeeeeeeeee",
                "label": "Ether"
            },
            {
                "address": "0x1e0049783f008a0085193e00003d00cd54003c71",
                "label": "OpenSea: Conduit"
            },
            {
                "address": "0x83ec6efb1bc4f479cb4161eb8217ac6ea7759135",
                "label": "Grail"
            }
        ]
    },
    "trace": {
        "accountLabels": null,
        "dataMap": {
            "-1": {
                "invocation": {
                    "address": "0xbff79922fcbf93f9c30abb22322b271460c6bebb",
                    "callData": "",
                    "decodedMethod": null,
                    "errorInfo": "",
                    "fromAddress": "",
                    "gasUsed": 0,
                    "id": -1,
                    "methodDecoded": false,
                    "operation": "",
                    "output": "",
                    "revert": false,
                    "revertMessage": "",
                    "selector": "",
                    "status": false,
                    "value": ""
                },
                "nodeType": 0
            },
            "0": {
                "invocation": {
                    "address": "0x83ec6efb1bc4f479cb4161eb8217ac6ea7759135",
                    "callData": "0x0000000000000000000000001e0049783f008a0085193e00003d00cd54003c710000000000000000000000000000000000000000000000000000000000000001",
                    "decodedMethod": {
                        "callParams": [
                            {
                                "name": "operator",
                                "type": "address",
                                "value": "0x1e0049783f008a0085193e00003d00cd54003c71"
                            },
                            {
                                "name": "approved",
                                "type": "bool",
                                "value": true
                            }
                        ],
                        "constructorArguments": "",
                        "name": "setApprovalForAll",
                        "returnParams": [],
                        "signature": "setApprovalForAll(address,bool)"
                    },
                    "errorInfo": "",
                    "fromAddress": "0xbff79922fcbf93f9c30abb22322b271460c6bebb",
                    "gasUsed": 46946,
                    "id": 0,
                    "methodDecoded": true,
                    "operation": "CALL",
                    "output": "",
                    "revert": false,
                    "revertMessage": "",
                    "selector": "0xa22cb465",
                    "status": true,
                    "value": "0"
                },
                "nodeType": 0
            },
            "1": {
                "event": {
                    "contract": "0x83ec6efb1bc4f479cb4161eb8217ac6ea7759135",
                    "decodedLog": {
                        "name": "ApprovalForAll",
                        "params": [
                            {
                                "name": "owner",
                                "type": "address",
                                "value": "0xbff79922fcbf93f9c30abb22322b271460c6bebb"
                            },
                            {
                                "name": "operator",
                                "type": "address",
                                "value": "0x1e0049783f008a0085193e00003d00cd54003c71"
                            },
                            {
                                "name": "approved",
                                "type": "bool",
                                "value": true
                            }
                        ],
                        "signature": "ApprovalForAll(address,address,bool)"
                    },
                    "id": 1,
                    "logData": "0x0000000000000000000000000000000000000000000000000000000000000001",
                    "logDecoded": true,
                    "operation": "EVENT",
                    "revert": false,
                    "status": true,
                    "topics": [
                        "0x17307eab39ab6107e8899845ad3d59bd9653f200f220920489ca2b5937696c31",
                        "0x000000000000000000000000bff79922fcbf93f9c30abb22322b271460c6bebb",
                        "0x0000000000000000000000001e0049783f008a0085193e00003d00cd54003c71"
                    ]
                },
                "nodeType": 1
            }
        },
        "gasFlame": [
            {
                "children": [
                    {
                        "children": [
                            {
                                "children": [],
                                "depth": 0,
                                "name": "Initial Gas",
                                "value": 21488
                            },
                            {
                                "children": [],
                                "depth": 0,
                                "name": "Executed Gas",
                                "value": 25458
                            }
                        ],
                        "depth": -1,
                        "name": "Actual Gas Used",
                        "value": 46946
                    },
                    {
                        "children": [],
                        "depth": -1,
                        "name": "Refunded Gas",
                        "value": 0
                    }
                ],
                "depth": -2,
                "name": "Total Gas",
                "value": 46946
            }
        ],
        "isConfirmed": true,
        "mainTrace": [
            {
                "children": [
                    {
                        "children": [
                            {
                                "children": [],
                                "depth": 1,
                                "id": 1,
                                "order": 1
                            }
                        ],
                        "depth": 0,
                        "id": 0,
                        "order": 0
                    }
                ],
                "depth": -1,
                "id": -1,
                "order": -1
            }
        ],
        "mainTraceNodeCount": 2,
        "parentIdMap": {
            "0": -1,
            "1": 0
        },
        "tidyTrace": [
            {
                "children": [
                    {
                        "children": [
                            {
                                "children": [],
                                "depth": 1,
                                "id": 1,
                                "order": 1
                            }
                        ],
                        "depth": 0,
                        "id": 0,
                        "order": 0
                    }
                ],
                "depth": -1,
                "id": -1,
                "order": -1
            }
        ],
        "tidyTraceNodeCount": 2
    },
    "state_change": {
        "stateChanges": [
            {
                "address": "0x83ec6efb1bc4f479cb4161eb8217ac6ea7759135",
                "erc": "ERC-721",
                "slots": [
                    {
                        "current": "0x0000000000000000000000000000000000000000000000000000000000000001",
                        "key": "0xd5b27aac6f8b0fb702d3b109fb593d1aba83c4c39f8ecec7dbe1d77be79aa2eb",
                        "prev": "0x0000000000000000000000000000000000000000000000000000000000000000"
                    }
                ],
                "storageVariables": [
                    {
                        "name": "_operatorApprovals",
                        "type": "mapping(address => mapping(address => bool))",
                        "value": {
                            "pairs": [
                                {
                                    "key": "0xbff79922fcbf93f9c30abb22322b271460c6bebb",
                                    "value": {
                                        "pairs": [
                                            {
                                                "key": "0x1e0049783f008a0085193e00003d00cd54003c71",
                                                "value": {
                                                    "current": "true",
                                                    "prev": "false",
                                                    "typeTag": 1
                                                }
                                            }
                                        ],
                                        "typeTag": 4
                                    }
                                }
                            ],
                            "typeTag": 4
                        }
                    }
                ]
            }
        ]
    }
}