{
    "balance_change": {
        "balanceChanges": [
            {
                "account": "0xc8dfcec53ab1102a38e8f96be8eba37fc5340c99",
                "assets": [
                    {
                        "address": "0x686b30a80826340a59afa564c2a01b79128eb7dd",
                        "amount": "100",
                        "iconUrl": "",
                        "isERC1155": false,
                        "isERC721": false,
                        "sign": false,
                        "value": ""
                    }
                ]
            },
            {
                "account": "0x7d3f659881e1bce22626ebffca41e6b8c4f07ef4",
                "assets": [
                    {
                        "address": "0x686b30a80826340a59afa564c2a01b79128eb7dd",
                        "amount": "100",
                        "iconUrl": "",
                        "isERC1155": false,
                        "isERC721": false,
                        "sign": true,
                        "value": ""
                    }
                ]
            }
        ]
    },
    "profile": {
        "basic_info": {
            "baseFee": "",
            "blockNumber": 8981445,
            "callData": "0xa9059cbb0000000000000000000000007d3f659881e1bce22626ebffca41e6b8c4f07ef40000000000000000000000000000000000000000000000056bc75e2d63100000",
            "debugEnable": true,
            "errorInfo": "",
            "eventCount": 1,
            "feeRecipient": "0xea674fdde714fd979de3edf0f56aa9716b898ec8",
            "formatValue": "0",
            "gasLimit": 80082,
            "gasPrice": "7.5",
            "gasUsed": 53388,
            "intTxnCount": 0,
            "internalRevert": false,
            "internalRevertMessage": "",
            "isContractCreation": false,
            "isFlashloan": false,
            "maxFee": "",
            "nonce": 381863,
            "overwritedBlockNumber": -1,
            "priorityFee": "",
            "receiver": "0x686b30a80826340a59afa564c2a01b79128eb7dd",
            "revertMessage": "",
            "sender": "0xc8dfcec53ab1102a38e8f96be8eba37fc5340c99",
            "simulationEnable": true,
            "sourceTxnHash": "0xe258c411334cbaa3f19218b34a47cf236c2082ba2c018941bcd88c692102f048",
            "status": true,
            "timestamp": "2019-11-22T16:41:29Z",
            "transactionFee": "0.00040041",
            "txnHash": "0xe258c411334cbaa3f19218b34a47cf236c2082ba2c018941bcd88c692102f048",
            "txnIndex": 115,
            "type": 0,
            "value": "0"
        },
        "fund_flow": [
            {
                "amount": "100",
                "from": "0xc8dfcec53ab1102a38e8f96be8eba37fc5340c99",
                "id": 1,
                "isERC1155": false,
                "isERC721": false,
                "isReverted": false,
                "order": 1,
                "to": "0x7d3f659881e1bce22626ebffca41e6b8c4f07ef4",
                "token": "0x686b30a80826340a59afa564c2a01b79128eb7dd"
            }
        ],
        "token_infos": [
            {
                "address": "0x686b30a80826340a59afa564c2a01b79128eb7dd",
                "decimals": 18
            },
            {
                "address": "0xc02aaa39b223fe8d0a0e5c4f27ead9083c756cc2",
                "decimals": 18
            },
            {
                "address": "0xeeeeeeeeeeeeeeeeeeeeeeeeeeeeeeeeeeeeeeee",
                "decimals": 18
            }
        ]
    },
    "address_label": {
        "labels": [
            {
                "address": "0x686b30a80826340a59afa564c2a01b79128eb7dd",
                "label": "Healthy Happy Harmony (HHH)"
            },
            {
                "address": "0x0000000000000000000000000000000000000001",
                "label": "Precompiled"
            },
            {
                "address": "0x0000000000000000000000000000000000000002",
                "label": "Precompiled"
            },
            {
                "address": "0x0000000000000000000000000000000000000003",
                "label": "Precompiled"
            },
            {
                "address": "0x0000000000000000000000000000000000000004",
                "label": "Precompiled"
            },
            {
                "address": "0xeeeeeeeeeeeeeeeeeeeeeeeeeeeeeeeeeeeeeeee",
                "label": "Ether"
            }
        ]
    },
    "trace": {
        "accountLabels": null,
        "dataMap": {
            "-1": {
                "invocation": {
                    "address": "0xc8dfcec53ab1102a38e8f96be8eba37fc5340c99",
                    "callData": "",
                    "decodedMethod": null,
                    "errorInfo": "",
                    "fromAddress": "",
                    "gasUsed": 0,
                    "id": -1,
                    "methodDecoded": false,
                    "operation": "",
                    "output": "",
                    "revert": false,
                    "revertMessage": "",
                    "selector": "",
                    "status": false,
                    "value": ""
                },
                "nodeType": 0
            },
            "0": {
                "invocation": {
                    "address": "0x686b30a80826340a59afa564c2a01b79128eb7dd",
                    "callData": "0x0000000000000000000000007d3f659881e1bce22626ebffca41e6b8c4f07ef40000000000000000000000000000000000000000000000056bc75e2d63100000",
                    "decodedMethod": {
                        "callParams": [
                            {
                                "name": "_to",
                                "type": "address",
                                "value": "0x7d3f659881e1bce22626ebffca41e6b8c4f07ef4"
                            },
                            {
                                "decimalAvailable": true,
                                "name": "_value",
                                "type": "uint256",
                                "value": "100,000,000,000,000,000,000"
                            }
                        ],
                        "constructorArguments": "",
                        "name": "transfer",
                        "returnParams": [],
                        "signature": "transfer(address,uint256)"
                    },
                    "errorInfo": "",
                    "fromAddress": "0xc8dfcec53ab1102a38e8f96be8eba37fc5340c99",
                    "gasUsed": 53388,
                    "id": 0,
                    "methodDecoded": true,
                    "operation": "CALL",
                    "output": "",
                    "revert": false,
                    "revertMessage": "",
                    "selector": "0xa9059cbb",
                    "status": true,
                    "value": "0"
                },
                "nodeType": 0
            },
            "1": {
                "event": {
                    "contract": "0x686b30a80826340a59afa564c2a01b79128eb7dd",
                    "decodedLog": {
                        "name": "Transfer",
                        "params": [
                            {
                                "name": "from",
                                "type": "address",
                                "value": "0xc8dfcec53ab1102a38e8f96be8eba37fc5340c99"
                            },
                            {
                                "name": "to",
                                "type": "address",
                                "value": "0x7d3f659881e1bce22626ebffca41e6b8c4f07ef4"
                            },
                            {
                                "decimalAvailable": true,
                                "name": "value",
                                "type": "uint256",
                                "value": "100,000,000,000,000,000,000"
                            }
                        ],
                        "signature": "Transfer(address,address,uint256)"
                    },
                    "id": 1,
                    "logData": "0x0000000000000000000000000000000000000000000000056bc75e2d63100000",
                    "logDecoded": true,
                    "operation": "EVENT",
                    "revert": false,
                    "status": true,
                    "topics": [
                        "0xddf252ad1be2c89b69c2b068fc378daa952ba7f163c4a11628f55a4df523b3ef",
                        "0x000000000000000000000000c8dfcec53ab1102a38e8f96be8eba37fc5340c99",
                        "0x0000000000000000000000007d3f659881e1bce22626ebffca41e6b8c4f07ef4"
                    ]
                },
                "nodeType": 1
            }
        },
        "gasFlame": [
            {
                "children": [
                    {
                        "children": [
                            {
                                "children": [],
                                "depth": 0,
                                "name": "Initial Gas",
                                "value": 23256
                            },
                            {
                                "children": [],
                                "depth": 0,
                                "name": "Executed Gas",
                                "value": 30132
                            }
                        ],
                        "depth": -1,
                        "name": "Actual Gas Used",
                        "value": 53388
                    },
                    {
                        "children": [],
                        "depth": -1,
                        "name": "Refunded Gas",
                        "value": 0
                    }
                ],
                "depth": -2,
                "name": "Total Gas",
                "value": 53388
            }
        ],
        "isConfirmed": true,
        "mainTrace": [
            {
                "children": [
                    {
                        "children": [
                            {
                                "children": [],
                                "depth": 1,
                                "id": 1,
                                "order": 1
                            }
                        ],
                        "depth": 0,
                        "id": 0,
                        "order": 0
                    }
                ],
                "depth": -1,
                "id": -1,
                "order": -1
            }
        ],
        "mainTraceNodeCount": 2,
        "parentIdMap": {
            "0": -1,
            "1": 0
        },
        "tidyTrace": [
            {
                "children": [
                    {
                        "children": [
                            {
                                "children": [],
                                "depth": 1,
                                "id": 1,
                                "order": 1
                            }
                        ],
                        "depth": 0,
                        "id": 0,
                        "order": 0
                    }
                ],
                "depth": -1,
                "id": -1,
                "order": -1
            }
        ],
        "tidyTraceNodeCount": 2
    },
    "state_change": {
        "stateChanges": [
            {
                "address": "0x686b30a80826340a59afa564c2a01b79128eb7dd",
                "erc": "",
                "slots": [
                    {
                        "current": "0x0000000000000000000000000000000000000000000bf33333bc9be43b360000",
                        "key": "0x21448da97da8c0453aae178c78c59e5f0a3724c2f10a4409fea330c59dd04db6",
                        "prev": "0x0000000000000000000000000000000000000000000bf3389f83fa119e460000"
                    },
                    {
                        "current": "0x0000000000000000000000000000000000000000000000056bc75e2d63100000",
                        "key": "0xe9896013a8ce44bb42e4253dbf6cd4e5cd4b3cdfe0ab5efda53c4ed5d4ee8cdc",
                        "prev": "0x0000000000000000000000000000000000000000000000000000000000000000"
                    }
                ],
                "storageVariables": [
                    {
                        "name": "balanceOf",
                        "type": "mapping(address => uint256)",
                        "value": {
                            "pairs": [
                                {
                                    "key": "0x7d3f659881e1bce22626ebffca41e6b8c4f07ef4",
                                    "value": {
                                        "current": "100000000000000000000",
                                        "prev": "0",
                                        "typeTag": 1
                                    }
                                },
                                {
                                    "key": "0xc8dfcec53ab1102a38e8f96be8eba37fc5340c99",
                                    "value": {
                                        "current": "14446663583072000000000000",
                                        "prev": "14446763583072000000000000",
                                        "typeTag": 1
                                    }
                                }
                            ],
                            "typeTag": 4
                        }
                    }
                ]
            }
        ]
    }
}