{
    "balance_change": {
        "balanceChanges": [
            {
                "account": "0x9be4a8417013732dba401bb595269e32d467e5dc",
                "assets": [
                    {
                        "address": "0x5e5bc236d024cd26be780802aaf1e0dc118fc484",
                        "amount": "25",
                        "iconUrl": "",
                        "isERC1155": false,
                        "isERC721": false,
                        "sign": false,
                        "value": ""
                    }
                ]
            },
            {
                "account": "0xc50c8783c2c942efa914cc75f9475e9f555a4763",
                "assets": [
                    {
                        "address": "0x5e5bc236d024cd26be780802aaf1e0dc118fc484",
                        "amount": "25",
                        "iconUrl": "",
                        "isERC1155": false,
                        "isERC721": false,
                        "sign": true,
                        "value": ""
                    }
                ]
            }
        ]
    },
    "profile": {
        "basic_info": {
            "baseFee": "",
            "blockNumber": 9551382,
            "callData": "0xa9059cbb000000000000000000000000c50c8783c2c942efa914cc75f9475e9f555a47630000000000000000000000000000000000000000000000015af1d78b58c40000",
            "debugEnable": true,
            "errorInfo": "",
            "eventCount": 1,
            "feeRecipient": "0x5a0b54d5dc17e0aadc383d2db43b0a0d3e029c4c",
            "formatValue": "0",
            "gasLimit": 66742,
            "gasPrice": "6",
            "gasUsed": 51340,
            "intTxnCount": 0,
            "internalRevert": false,
            "internalRevertMessage": "",
            "isContractCreation": false,
            "isFlashloan": false,
            "maxFee": "",
            "nonce": 281,
            "overwritedBlockNumber": -1,
            "priorityFee": "",
            "receiver": "0x5e5bc236d024cd26be780802aaf1e0dc118fc484",
            "revertMessage": "",
            "sender": "0x9be4a8417013732dba401bb595269e32d467e5dc",
            "simulationEnable": true,
            "sourceTxnHash": "0xe2152b87ac370b4e7560e145e784ad1c28ddd2d53a7f10a63b1d21a3a3ec88bc",
            "status": true,
            "timestamp": "2020-02-25T07:53:23Z",
            "transactionFee": "0.00030804",
            "txnHash": "0xe2152b87ac370b4e7560e145e784ad1c28ddd2d53a7f10a63b1d21a3a3ec88bc",
            "txnIndex": 25,
            "type": 0,
            "value": "0"
        },
        "fund_flow": [
            {
                "amount": "25",
                "from": "0x9be4a8417013732dba401bb595269e32d467e5dc",
                "id": 1,
                "isERC1155": false,
                "isERC721": false,
                "isReverted": false,
                "order": 1,
                "to": "0xc50c8783c2c942efa914cc75f9475e9f555a4763",
                "token": "0x5e5bc236d024cd26be780802aaf1e0dc118fc484"
            }
        ],
        "token_infos": [
            {
                "address": "0xc02aaa39b223fe8d0a0e5c4f27ead9083c756cc2",
                "decimals": 18
            },
            {
                "address": "0xeeeeeeeeeeeeeeeeeeeeeeeeeeeeeeeeeeeeeeee",
                "decimals": 18
            },
            {
                "address": "0x5e5bc236d024cd26be780802aaf1e0dc118fc484",
                "decimals": 18
            }
        ]
    },
    "address_label": {
        "labels": [
            {
                "address": "0x5e5bc236d024cd26be780802aaf1e0dc118fc484",
                "label": "InTime (ITO)"
            },
            {
                "address": "0x0000000000000000000000000000000000000001",
                "label": "Precompiled"
            },
            {
                "address": "0x0000000000000000000000000000000000000002",
                "label": "Precompiled"
            },
            {
                "address": "0x0000000000000000000000000000000000000003",
                "label": "Precompiled"
            },
            {
                "address": "0x0000000000000000000000000000000000000004",
                "label": "Precompiled"
            },
            {
                "address": "0xeeeeeeeeeeeeeeeeeeeeeeeeeeeeeeeeeeeeeeee",
                "label": "Ether"
            }
        ]
    },
    "trace": {
        "accountLabels": null,
        "dataMap": {
            "-1": {
                "invocation": {
                    "address": "0x9be4a8417013732dba401bb595269e32d467e5dc",
                    "callData": "",
                    "decodedMethod": null,
                    "errorInfo": "",
                    "fromAddress": "",
                    "gasUsed": 0,
                    "id": -1,
                    "methodDecoded": false,
                    "operation": "",
                    "output": "",
                    "revert": false,
                    "revertMessage": "",
                    "selector": "",
                    "status": false,
                    "value": ""
                },
                "nodeType": 0
            },
            "0": {
                "invocation": {
                    "address": "0x5e5bc236d024cd26be780802aaf1e0dc118fc484",
                    "callData": "0x000000000000000000000000c50c8783c2c942efa914cc75f9475e9f555a47630000000000000000000000000000000000000000000000015af1d78b58c40000",
                    "decodedMethod": {
                        "callParams": [
                            {
                                "name": "recipient",
                                "type": "address",
                                "value": "0xc50c8783c2c942efa914cc75f9475e9f555a4763"
                            },
                            {
                                "decimalAvailable": true,
                                "name": "amount",
                                "type": "uint256",
                                "value": "25,000,000,000,000,000,000"
                            }
                        ],
                        "constructorArguments": "",
                        "name": "transfer",
                        "returnParams": [
                            {
                                "name": "",
                                "type": "bool",
                                "value": true
                            }
                        ],
                        "signature": "transfer(address,uint256)"
                    },
                    "errorInfo": "",
                    "fromAddress": "0x9be4a8417013732dba401bb595269e32d467e5dc",
                    "gasUsed": 51340,
                    "id": 0,
                    "methodDecoded": true,
                    "operation": "CALL",
                    "output": "0x0000000000000000000000000000000000000000000000000000000000000001",
                    "revert": false,
                    "revertMessage": "",
                    "selector": "0xa9059cbb",
                    "status": true,
                    "value": "0"
                },
                "nodeType": 0
            },
            "1": {
                "event": {
                    "contract": "0x5e5bc236d024cd26be780802aaf1e0dc118fc484",
                    "decodedLog": {
                        "name": "Transfer",
                        "params": [
                            {
                                "name": "from",
                                "type": "address",
                                "value": "0x9be4a8417013732dba401bb595269e32d467e5dc"
                            },
                            {
                                "name": "to",
                                "type": "address",
                                "value": "0xc50c8783c2c942efa914cc75f9475e9f555a4763"
                            },
                            {
                                "decimalAvailable": true,
                                "name": "value",
                                "type": "uint256",
                                "value": "25,000,000,000,000,000,000"
                            }
                        ],
                        "signature": "Transfer(address,address,uint256)"
                    },
                    "id": 1,
                    "logData": "0x0000000000000000000000000000000000000000000000015af1d78b58c40000",
                    "logDecoded": true,
                    "operation": "EVENT",
                    "revert": false,
                    "status": true,
                    "topics": [
                        "0xddf252ad1be2c89b69c2b068fc378daa952ba7f163c4a11628f55a4df523b3ef",
                        "0x0000000000000000000000009be4a8417013732dba401bb595269e32d467e5dc",
                        "0x000000000000000000000000c50c8783c2c942efa914cc75f9475e9f555a4763"
                    ]
                },
                "nodeType": 1
            }
        },
        "gasFlame": [
            {
                "children": [
                    {
                        "children": [
                            {
                                "children": [],
                                "depth": 0,
                                "name": "Initial Gas",
                                "value": 21644
                            },
                            {
                                "children": [],
                                "depth": 0,
                                "name": "Executed Gas",
                                "value": 29696
                            }
                        ],
                        "depth": -1,
                        "name": "Actual Gas Used",
                        "value": 51340
                    },
                    {
                        "children": [],
                        "depth": -1,
                        "name": "Refunded Gas",
                        "value": 0
                    }
                ],
                "depth": -2,
                "name": "Total Gas",
                "value": 51340
            }
        ],
        "isConfirmed": true,
        "mainTrace": [
            {
                "children": [
                    {
                        "children": [
                            {
                                "children": [],
                                "depth": 1,
                                "id": 1,
                                "order": 1
                            }
                        ],
                        "depth": 0,
                        "id": 0,
                        "order": 0
                    }
                ],
                "depth": -1,
                "id": -1,
                "order": -1
            }
        ],
        "mainTraceNodeCount": 2,
        "parentIdMap": {
            "0": -1,
            "1": 0
        },
        "tidyTrace": [
            {
                "children": [
                    {
                        "children": [
                            {
                                "children": [],
                                "depth": 1,
                                "id": 1,
                                "order": 1
                            }
                        ],
                        "depth": 0,
                        "id": 0,
                        "order": 0
                    }
                ],
                "depth": -1,
                "id": -1,
                "order": -1
            }
        ],
        "tidyTraceNodeCount": 2
    },
    "state_change": {
        "stateChanges": [
            {
                "address": "0x5e5bc236d024cd26be780802aaf1e0dc118fc484",
                "erc": "ERC-20",
                "slots": [
                    {
                        "current": "0x0000000000000000000000000000000000000000000000015af1d78b58c40000",
                        "key": "0x6e3c2dfaae1882fcc1537199cd406f19c8ef8467fdda93a386547d5df2b6b615",
                        "prev": "0x0000000000000000000000000000000000000000000000000000000000000000"
                    },
                    {
                        "current": "0x00000000000000000000000000000000000000000344354079f18b04f2500000",
                        "key": "0xadae96f1bd2a2b35662c941d91ff969d801d15db97adda1e2897a23c4ead2659",
                        "prev": "0x000000000000000000000000000000000000000003443541d4e362904b140000"
                    }
                ],
                "storageVariables": [
                    {
                        "name": "_balances",
                        "type": "mapping(address => uint256)",
                        "value": {
                            "pairs": [
                                {
                                    "key": "0x9be4a8417013732dba401bb595269e32d467e5dc",
                                    "value": {
                                        "current": "1010913460000000000000000000",
                                        "prev": "1010913485000000000000000000",
                                        "typeTag": 1
                                    }
                                },
                                {
                                    "key": "0xc50c8783c2c942efa914cc75f9475e9f555a4763",
                                    "value": {
                                        "current": "25000000000000000000",
                                        "prev": "0",
                                        "typeTag": 1
                                    }
                                }
                            ],
                            "typeTag": 4
                        }
                    }
                ]
            }
        ]
    }
}