{
    "balance_change": {
        "balanceChanges": [
            {
                "account": "0x09942b2409079d9cb3b36dba8d6a60118e270746",
                "assets": [
                    {
                        "address": "0x1edc9ba729ef6fb017ef9c687b1a37d48b6a166c",
                        "amount": "1.965955",
                        "iconUrl": "",
                        "isERC1155": false,
                        "isERC721": false,
                        "sign": false,
                        "value": ""
                    }
                ]
            },
            {
                "account": "0x3838f57c8f5fc3e63108345fddf7f36760fe772c",
                "assets": [
                    {
                        "address": "0x1edc9ba729ef6fb017ef9c687b1a37d48b6a166c",
                        "amount": "1.965955",
                        "iconUrl": "",
                        "isERC1155": false,
                        "isERC721": false,
                        "sign": true,
                        "value": ""
                    }
                ]
            }
        ]
    },
    "profile": {
        "basic_info": {
            "baseFee": "",
            "blockNumber": 10950594,
            "callData": "0xa9059cbb0000000000000000000000003838f57c8f5fc3e63108345fddf7f36760fe772c0000000000000000000000000000000000000000000000001b4879a80b673000",
            "debugEnable": true,
            "errorInfo": "",
            "eventCount": 1,
            "feeRecipient": "0xb3b7874f13387d44a3398d298b075b7a3505d8d4",
            "formatValue": "0",
            "gasLimit": 300000,
            "gasPrice": "127",
            "gasUsed": 42730,
            "intTxnCount": 0,
            "internalRevert": false,
            "internalRevertMessage": "",
            "isContractCreation": false,
            "isFlashloan": false,
            "maxFee": "",
            "nonce": 11835,
            "overwritedBlockNumber": -1,
            "priorityFee": "",
            "receiver": "0x1edc9ba729ef6fb017ef9c687b1a37d48b6a166c",
            "revertMessage": "",
            "sender": "0x09942b2409079d9cb3b36dba8d6a60118e270746",
            "simulationEnable": true,
            "sourceTxnHash": "0xe2961fadb44d418c898a2cd5a0c2e3e6819b9a15ced733bfde49f62d38352dbf",
            "status": true,
            "timestamp": "2020-09-28T10:57:26Z",
            "transactionFee": "0.00542671",
            "txnHash": "0xe2961fadb44d418c898a2cd5a0c2e3e6819b9a15ced733bfde49f62d38352dbf",
            "txnIndex": 86,
            "type": 0,
            "value": "0"
        },
        "fund_flow": [
            {
                "amount": "1.965955",
                "from": "0x09942b2409079d9cb3b36dba8d6a60118e270746",
                "id": 1,
                "isERC1155": false,
                "isERC721": false,
                "isReverted": false,
                "order": 1,
                "to": "0x3838f57c8f5fc3e63108345fddf7f36760fe772c",
                "token": "0x1edc9ba729ef6fb017ef9c687b1a37d48b6a166c"
            }
        ],
        "token_infos": [
            {
                "address": "0x1edc9ba729ef6fb017ef9c687b1a37d48b6a166c",
                "decimals": 18
            },
            {
                "address": "0xc02aaa39b223fe8d0a0e5c4f27ead9083c756cc2",
                "decimals": 18
            },
            {
                "address": "0xeeeeeeeeeeeeeeeeeeeeeeeeeeeeeeeeeeeeeeee",
                "decimals": 18
            }
        ]
    },
    "address_label": {
        "labels": [
            {
                "address": "0x09942b2409079d9cb3b36dba8d6a60118e270746",
                "label": "CryptoProWorld.com"
            },
            {
                "address": "0x1edc9ba729ef6fb017ef9c687b1a37d48b6a166c",
                "label": "Stark Chain: STARK Token"
            },
            {
                "address": "0x0000000000000000000000000000000000000001",
                "label": "Precompiled"
            },
            {
                "address": "0x0000000000000000000000000000000000000002",
                "label": "Precompiled"
            },
            {
                "address": "0x0000000000000000000000000000000000000003",
                "label": "Precompiled"
            },
            {
                "address": "0x0000000000000000000000000000000000000004",
                "label": "Precompiled"
            },
            {
                "address": "0xeeeeeeeeeeeeeeeeeeeeeeeeeeeeeeeeeeeeeeee",
                "label": "Ether"
            }
        ]
    },
    "trace": {
        "accountLabels": null,
        "dataMap": {
            "-1": {
                "invocation": {
                    "address": "0x09942b2409079d9cb3b36dba8d6a60118e270746",
                    "callData": "",
                    "decodedMethod": null,
                    "errorInfo": "",
                    "fromAddress": "",
                    "gasUsed": 0,
                    "id": -1,
                    "methodDecoded": false,
                    "operation": "",
                    "output": "",
                    "revert": false,
                    "revertMessage": "",
                    "selector": "",
                    "status": false,
                    "value": ""
                },
                "nodeType": 0
            },
            "0": {
                "invocation": {
                    "address": "0x1edc9ba729ef6fb017ef9c687b1a37d48b6a166c",
                    "callData": "0x0000000000000000000000003838f57c8f5fc3e63108345fddf7f36760fe772c0000000000000000000000000000000000000000000000001b4879a80b673000",
                    "decodedMethod": {
                        "callParams": [
                            {
                                "name": "_to",
                                "type": "address",
                                "value": "0x3838f57c8f5fc3e63108345fddf7f36760fe772c"
                            },
                            {
                                "decimalAvailable": true,
                                "name": "_value",
                                "type": "uint256",
                                "value": "1,965,955,000,000,000,000"
                            }
                        ],
                        "constructorArguments": "",
                        "name": "transfer",
                        "returnParams": [
                            {
                                "name": "success",
                                "type": "bool",
                                "value": true
                            }
                        ],
                        "signature": "transfer(address,uint256)"
                    },
                    "errorInfo": "",
                    "fromAddress": "0x09942b2409079d9cb3b36dba8d6a60118e270746",
                    "gasUsed": 42730,
                    "id": 0,
                    "methodDecoded": true,
                    "operation": "CALL",
                    "output": "0x0000000000000000000000000000000000000000000000000000000000000001",
                    "revert": false,
                    "revertMessage": "",
                    "selector": "0xa9059cbb",
                    "status": true,
                    "value": "0"
                },
                "nodeType": 0
            },
            "1": {
                "event": {
                    "contract": "0x1edc9ba729ef6fb017ef9c687b1a37d48b6a166c",
                    "decodedLog": {
                        "name": "Transfer",
                        "params": [
                            {
                                "name": "from",
                                "type": "address",
                                "value": "0x09942b2409079d9cb3b36dba8d6a60118e270746"
                            },
                            {
                                "name": "to",
                                "type": "address",
                                "value": "0x3838f57c8f5fc3e63108345fddf7f36760fe772c"
                            },
                            {
                                "decimalAvailable": true,
                                "name": "value",
                                "type": "uint256",
                                "value": "1,965,955,000,000,000,000"
                            }
                        ],
                        "signature": "Transfer(address,address,uint256)"
                    },
                    "id": 1,
                    "logData": "0x0000000000000000000000000000000000000000000000001b4879a80b673000",
                    "logDecoded": true,
                    "operation": "EVENT",
                    "revert": false,
                    "status": true,
                    "topics": [
                        "0xddf252ad1be2c89b69c2b068fc378daa952ba7f163c4a11628f55a4df523b3ef",
                        "0x00000000000000000000000009942b2409079d9cb3b36dba8d6a60118e270746",
                        "0x0000000000000000000000003838f57c8f5fc3e63108345fddf7f36760fe772c"
                    ]
                },
                "nodeType": 1
            }
        },
        "gasFlame": [
            {
                "children": [
                    {
                        "children": [
                            {
                                "children": [],
                                "depth": 0,
                                "name": "Initial Gas",
                                "value": 21644
                            },
                            {
                                "children": [],
                                "depth": 0,
                                "name": "Executed Gas",
                                "value": 21086
                            }
                        ],
                        "depth": -1,
                        "name": "Actual Gas Used",
                        "value": 42730
                    },
                    {
                        "children": [],
                        "depth": -1,
                        "name": "Refunded Gas",
                        "value": 0
                    }
                ],
                "depth": -2,
                "name": "Total Gas",
                "value": 42730
            }
        ],
        "isConfirmed": true,
        "mainTrace": [
            {
                "children": [
                    {
                        "children": [
                            {
                                "children": [],
                                "depth": 1,
                                "id": 1,
                                "order": 1
                            }
                        ],
                        "depth": 0,
                        "id": 0,
                        "order": 0
                    }
                ],
                "depth": -1,
                "id": -1,
                "order": -1
            }
        ],
        "mainTraceNodeCount": 2,
        "parentIdMap": {
            "0": -1,
            "1": 0
        },
        "tidyTrace": [
            {
                "children": [
                    {
                        "children": [
                            {
                                "children": [],
                                "depth": 1,
                                "id": 1,
                                "order": 1
                            }
                        ],
                        "depth": 0,
                        "id": 0,
                        "order": 0
                    }
                ],
                "depth": -1,
                "id": -1,
                "order": -1
            }
        ],
        "tidyTraceNodeCount": 2
    },
    "state_change": {
        "stateChanges": [
            {
                "address": "0x1edc9ba729ef6fb017ef9c687b1a37d48b6a166c",
                "erc": "ERC-20",
                "slots": [
                    {
                        "current": "0x0000000000000000000000000000000000000000000000063bbed111b1ef93ec",
                        "key": "0x1f452dcbd0573a3e662bbdeabe132809c746b2ebfb2a970550a3fe5bee5e6485",
                        "prev": "0x00000000000000000000000000000000000000000000000657074ab9bd56c3ec"
                    },
                    {
                        "current": "0x00000000000000000000000000000000000000000000000fdc911195a36b9000",
                        "key": "0x8713d0c174d29ab990c8b5081b8e00bf45d4654cc02819547c561dbd8feb16ca",
                        "prev": "0x00000000000000000000000000000000000000000000000fc14897ed98046000"
                    }
                ],
                "storageVariables": [
                    {
                        "name": "balanceOf",
                        "type": "mapping(address => uint256)",
                        "value": {
                            "pairs": [
                                {
                                    "key": "0x09942b2409079d9cb3b36dba8d6a60118e270746",
                                    "value": {
                                        "current": "114985572609999999980",
                                        "prev": "116951527609999999980",
                                        "typeTag": 1
                                    }
                                },
                                {
                                    "key": "0x3838f57c8f5fc3e63108345fddf7f36760fe772c",
                                    "value": {
                                        "current": "292594665000000000000",
                                        "prev": "290628710000000000000",
                                        "typeTag": 1
                                    }
                                }
                            ],
                            "typeTag": 4
                        }
                    }
                ]
            }
        ]
    }
}