{
    "balance_change": {
        "balanceChanges": [
            {
                "account": "0x2194ccb798cb2bc1bf7f7cad52a8ca18a639bbee",
                "assets": [
                    {
                        "address": "0xeeeeeeeeeeeeeeeeeeeeeeeeeeeeeeeeeeeeeeee",
                        "amount": "0.03",
                        "iconUrl": "https://assets.blocksec.com/image/1663669189317-3.png",
                        "isERC1155": false,
                        "isERC721": false,
                        "sign": false,
                        "value": "96.330507000000002334"
                    }
                ]
            },
            {
                "account": "0x5c7bcd6e7de5423a257d81b442095a1a6ced35c5",
                "assets": [
                    {
                        "address": "0xc02aaa39b223fe8d0a0e5c4f27ead9083c756cc2",
                        "amount": "0.0297375",
                        "iconUrl": "https://assets.blocksec.com/icon/f1cb2d02c471d545bbc7722daf3277fd852d98e63d118771af7047bd8256c516.png",
                        "isERC1155": false,
                        "isERC721": false,
                        "sign": true,
                        "value": "95.48761506375000232"
                    }
                ]
            },
            {
                "account": "0xc02aaa39b223fe8d0a0e5c4f27ead9083c756cc2",
                "assets": [
                    {
                        "address": "0xeeeeeeeeeeeeeeeeeeeeeeeeeeeeeeeeeeeeeeee",
                        "amount": "0.0297375",
                        "iconUrl": "https://assets.blocksec.com/image/1663669189317-3.png",
                        "isERC1155": false,
                        "isERC721": false,
                        "sign": true,
                        "value": "95.48761506375000232"
                    },
                    {
                        "address": "0xc02aaa39b223fe8d0a0e5c4f27ead9083c756cc2",
                        "amount": "0.0297375",
                        "iconUrl": "https://assets.blocksec.com/icon/f1cb2d02c471d545bbc7722daf3277fd852d98e63d118771af7047bd8256c516.png",
                        "isERC1155": false,
                        "isERC721": false,
                        "sign": false,
                        "value": "95.48761506375000232"
                    }
                ]
            },
            {
                "account": "0xe6b738da243e8fa2a0ed5915645789add5de5152",
                "assets": [
                    {
                        "address": "0xeeeeeeeeeeeeeeeeeeeeeeeeeeeeeeeeeeeeeeee",
                        "amount": "0.0002625",
                        "iconUrl": "https://assets.blocksec.com/image/1663669189317-3.png",
                        "isERC1155": false,
                        "isERC721": false,
                        "sign": true,
                        "value": "0.84289193625000002045"
                    }
                ]
            }
        ]
    },
    "profile": {
        "basic_info": {
            "baseFee": "1.838077692",
            "blockNumber": 20303171,
            "callData": "0x3ce33bff00000000000000000000000000000000000000000000000000000000000000800000000000000000000000000000000000000000000000000000000000000000000000000000000000000000000000000000000000000000006a94d74f43000000000000000000000000000000000000000000000000000000000000000000c0000000000000000000000000000000000000000000000000000000000000000d6c6966694164617074657256320000000000000000000000000000000000000000000000000000000000000000000000000000000000000000000000000001c0000000000000000000000000e397c4883ec89ed4fc9d258f00c689708b2799c9000000000000000000000000e397c4883ec89ed4fc9d258f00c689708b2799c90000000000000000000000000000000000000000000000000000000000002105000000000000000000000000000000000000000000000000000000000000000000000000000000000000000000000000000000000000000000000000000000000000000000000000000000000000000000000000000000000069a6194402180000000000000000000000000000000000000000000000000000000000000001400000000000000000000000000000000000000000000000000000eebe0b40e800000000000000000000000000e6b738da243e8fa2a0ed5915645789add5de5152000000000000000000000000000000000000000000000000000000000000006c5a39b10a6050ddbd9fba67712194ccb798cb2bc1bf7f7cad52a8ca18a639bbee0000210500009a010eb17379669379ebffffffffffffffffffffffffffffffffffffffffffffffffffffffffffffffffd00dfeeddeadbeef8932eb23bad9bddb5cf81426f78279a53c6c3b710000000000000000000000000000000000000000fed6296f00a030c139857bfdefd6b8a63e6e8552f8959fa2ad381afd2595055940f51c9e4428c2bf6086664821646c186ebf4ffb92a0002a20a041a128a757681c",
            "debugEnable": true,
            "errorInfo": "",
            "eventCount": 6,
            "feeRecipient": "0x4838b106fce9647bdf1e7877bf73ce8b0bad5f97",
            "formatValue": "0.03",
            "gasLimit": 155995,
            "gasPrice": "2.3785295",
            "gasUsed": 133961,
            "intTxnCount": 8,
            "internalRevert": false,
            "internalRevertMessage": "",
            "isContractCreation": false,
            "isFlashloan": false,
            "maxFee": "2.747270598",
            "nonce": 48,
            "overwritedBlockNumber": -1,
            "priorityFee": "0.540451808",
            "receiver": "0x0439e60f02a8900a951603950d8d4527f400c3f1",
            "revertMessage": "",
            "sender": "0x2194ccb798cb2bc1bf7f7cad52a8ca18a639bbee",
            "simulationEnable": true,
            "sourceTxnHash": "0xe348910bf1782f0b17d3e7c529b9a090468c6e6288c0f1aa3da905316bf0be7f",
            "status": true,
            "timestamp": "2024-07-14T07:12:47Z",
            "transactionFee": "0.0003186301903495",
            "txnHash": "0xe348910bf1782f0b17d3e7c529b9a090468c6e6288c0f1aa3da905316bf0be7f",
            "txnIndex": 41,
            "type": 2,
            "value": "30000000000000000"
        },
        "fund_flow": [
            {
                "amount": "0.03",
                "from": "0x2194ccb798cb2bc1bf7f7cad52a8ca18a639bbee",
                "id": 1,
                "isERC1155": false,
                "isERC721": false,
                "isReverted": false,
                "order": 1,
                "to": "0x0439e60f02a8900a951603950d8d4527f400c3f1",
                "token": "0xeeeeeeeeeeeeeeeeeeeeeeeeeeeeeeeeeeeeeeee"
            },
            {
                "amount": "0.03",
                "from": "0x0439e60f02a8900a951603950d8d4527f400c3f1",
                "id": 2,
                "isERC1155": false,
                "isERC721": false,
                "isReverted": false,
                "order": 2,
                "to": "0x9a47f3289794e9bbc6a3c571f6d96ad4e7baed16",
                "token": "0xeeeeeeeeeeeeeeeeeeeeeeeeeeeeeeeeeeeeeeee"
            },
            {
                "amount": "0.0002625",
                "from": "0x9a47f3289794e9bbc6a3c571f6d96ad4e7baed16",
                "id": 3,
                "isERC1155": false,
                "isERC721": false,
                "isReverted": false,
                "order": 3,
                "to": "0xe6b738da243e8fa2a0ed5915645789add5de5152",
                "token": "0xeeeeeeeeeeeeeeeeeeeeeeeeeeeeeeeeeeeeeeee"
            },
            {
                "amount": "0.0297375",
                "from": "0x9a47f3289794e9bbc6a3c571f6d96ad4e7baed16",
                "id": 4,
                "isERC1155": false,
                "isERC721": false,
                "isReverted": false,
                "order": 4,
                "to": "0xe397c4883ec89ed4fc9d258f00c689708b2799c9",
                "token": "0xeeeeeeeeeeeeeeeeeeeeeeeeeeeeeeeeeeeeeeee"
            },
            {
                "amount": "0.0297375",
                "from": "0xe397c4883ec89ed4fc9d258f00c689708b2799c9",
                "id": 5,
                "isERC1155": false,
                "isERC721": false,
                "isReverted": false,
                "order": 5,
                "to": "0x5c7bcd6e7de5423a257d81b442095a1a6ced35c5",
                "token": "0xeeeeeeeeeeeeeeeeeeeeeeeeeeeeeeeeeeeeeeee"
            },
            {
                "amount": "0.0297375",
                "from": "0x5c7bcd6e7de5423a257d81b442095a1a6ced35c5",
                "id": 6,
                "isERC1155": false,
                "isERC721": false,
                "isReverted": false,
                "order": 6,
                "to": "0xc02aaa39b223fe8d0a0e5c4f27ead9083c756cc2",
                "token": "0xeeeeeeeeeeeeeeeeeeeeeeeeeeeeeeeeeeeeeeee"
            },
            {
                "amount": "0.0297375",
                "from": "0xc02aaa39b223fe8d0a0e5c4f27ead9083c756cc2",
                "id": 7,
                "isERC1155": false,
                "isERC721": false,
                "isReverted": false,
                "order": 7,
                "to": "0x5c7bcd6e7de5423a257d81b442095a1a6ced35c5",
                "token": "0xc02aaa39b223fe8d0a0e5c4f27ead9083c756cc2"
            }
        ],
        "token_infos": [
            {
                "address": "0xc02aaa39b223fe8d0a0e5c4f27ead9083c756cc2",
                "decimals": 18
            },
            {
                "address": "0xeeeeeeeeeeeeeeeeeeeeeeeeeeeeeeeeeeeeeeee",
                "decimals": 18
            }
        ]
    },
    "address_label": {
        "labels": [
            {
                "address": "0xc02aaa39b223fe8d0a0e5c4f27ead9083c756cc2",
                "label": "Wrapped Ether (WETH)"
            },
            {
                "address": "0x0439e60f02a8900a951603950d8d4527f400c3f1",
                "label": "MetaMask: Meta Bridge"
            },
            {
                "address": "0x0000000000000000000000000000000000000001",
                "label": "Precompiled"
            },
            {
                "address": "0x0000000000000000000000000000000000000000",
                "label": "Null Address"
            },
            {
                "address": "0x08c21b200ed06d2e32cec91a770c3fca8ad5f877",
                "label": "Ethereum_SpokePool"
            },
            {
                "address": "0xe6b738da243e8fa2a0ed5915645789add5de5152",
                "label": "GnosisSafeProxy_e6b7_5152"
            },
            {
                "address": "0xd9db270c1b5e3bd161e8c8503c55ceabee709552",
                "label": "Safe: Singleton 1.3.0"
            },
            {
                "address": "0x0000000000000000000000000000000000000003",
                "label": "Precompiled"
            },
            {
                "address": "0xeeeeeeeeeeeeeeeeeeeeeeeeeeeeeeeeeeeeeeee",
                "label": "Ether"
            },
            {
                "address": "0x5c7bcd6e7de5423a257d81b442095a1a6ced35c5",
                "label": "Across Protocol: Ethereum Spoke Pool V2"
            },
            {
                "address": "0xe397c4883ec89ed4fc9d258f00c689708b2799c9",
                "label": "AcrossFacetPacked"
            },
            {
                "address": "0x0000000000000000000000000000000000000002",
                "label": "Precompiled"
            },
            {
                "address": "0x0000000000000000000000000000000000000004",
                "label": "Precompiled"
            }
        ]
    },
    "trace": {
        "accountLabels": null,
        "dataMap": {
            "-1": {
                "invocation": {
                    "address": "0x2194ccb798cb2bc1bf7f7cad52a8ca18a639bbee",
                    "callData": "",
                    "decodedMethod": null,
                    "errorInfo": "",
                    "fromAddress": "",
                    "gasUsed": 0,
                    "id": -1,
                    "methodDecoded": false,
                    "operation": "",
                    "output": "",
                    "revert": false,
                    "revertMessage": "",
                    "selector": "",
                    "status": false,
                    "value": ""
                },
                "nodeType": 0
            },
            "0": {
                "invocation": {
                    "address": "0x0439e60f02a8900a951603950d8d4527f400c3f1",
                    "callData": "0x00000000000000000000000000000000000000000000000000000000000000800000000000000000000000000000000000000000000000000000000000000000000000000000000000000000000000000000000000000000006a94d74f43000000000000000000000000000000000000000000000000000000000000000000c0000000000000000000000000000000000000000000000000000000000000000d6c6966694164617074657256320000000000000000000000000000000000000000000000000000000000000000000000000000000000000000000000000001c0000000000000000000000000e397c4883ec89ed4fc9d258f00c689708b2799c9000000000000000000000000e397c4883ec89ed4fc9d258f00c689708b2799c90000000000000000000000000000000000000000000000000000000000002105000000000000000000000000000000000000000000000000000000000000000000000000000000000000000000000000000000000000000000000000000000000000000000000000000000000000000000000000000000000069a6194402180000000000000000000000000000000000000000000000000000000000000001400000000000000000000000000000000000000000000000000000eebe0b40e800000000000000000000000000e6b738da243e8fa2a0ed5915645789add5de5152000000000000000000000000000000000000000000000000000000000000006c5a39b10a6050ddbd9fba67712194ccb798cb2bc1bf7f7cad52a8ca18a639bbee0000210500009a010eb17379669379ebffffffffffffffffffffffffffffffffffffffffffffffffffffffffffffffffd00dfeeddeadbeef8932eb23bad9bddb5cf81426f78279a53c6c3b710000000000000000000000000000000000000000fed6296f00a030c139857bfdefd6b8a63e6e8552f8959fa2ad381afd2595055940f51c9e4428c2bf6086664821646c186ebf4ffb92a0002a20a041a128a757681c",
                    "decodedMethod": {
                        "callParams": [
                            {
                                "name": "adapterId",
                                "type": "string",
                                "value": "lifiAdapterV2"
                            },
                            {
                                "name": "srcToken",
                                "type": "address",
                                "value": "0x0000000000000000000000000000000000000000"
                            },
                            {
                                "name": "amount",
                                "type": "uint256",
                                "value": "30,000,000,000,000,000"
                            },
                            {
                                "name": "data",
                                "type": "bytes",
                                "value": "0x000000000000000000000000e397c4883ec89ed4fc9d258f00c689708b2799c9000000000000000000000000e397c4883ec89ed4fc9d258f00c689708b2799c90000000000000000000000000000000000000000000000000000000000002105000000000000000000000000000000000000000000000000000000000000000000000000000000000000000000000000000000000000000000000000000000000000000000000000000000000000000000000000000000000069a6194402180000000000000000000000000000000000000000000000000000000000000001400000000000000000000000000000000000000000000000000000eebe0b40e800000000000000000000000000e6b738da243e8fa2a0ed5915645789add5de5152000000000000000000000000000000000000000000000000000000000000006c5a39b10a6050ddbd9fba67712194ccb798cb2bc1bf7f7cad52a8ca18a639bbee0000210500009a010eb17379669379ebffffffffffffffffffffffffffffffffffffffffffffffffffffffffffffffffd00dfeeddeadbeef8932eb23bad9bddb5cf81426f78279a53c6c3b710000000000000000000000000000000000000000"
                            }
                        ],
                        "constructorArguments": "",
                        "name": "bridge",
                        "returnParams": [],
                        "signature": "bridge(string,address,uint256,bytes)"
                    },
                    "errorInfo": "",
                    "fromAddress": "0x2194ccb798cb2bc1bf7f7cad52a8ca18a639bbee",
                    "gasUsed": 133961,
                    "id": 0,
                    "methodDecoded": true,
                    "operation": "CALL",
                    "output": "",
                    "revert": false,
                    "revertMessage": "",
                    "selector": "0x3ce33bff",
                    "status": true,
                    "value": "0.03"
                },
                "nodeType": 0
            },
            "1": {
                "invocation": {
                    "address": "0x9a47f3289794e9bbc6a3c571f6d96ad4e7baed16",
                    "callData": "0x0000000000000000000000007ac070f096c6e20931c3dc54f927446be232618b000000000000000000000000000000000000000000000000000000000000004000000000000000000000000000000000000000000000000000000000000001e4ab1382400000000000000000000000002194ccb798cb2bc1bf7f7cad52a8ca18a639bbee000000000000000000000000e397c4883ec89ed4fc9d258f00c689708b2799c9000000000000000000000000e397c4883ec89ed4fc9d258f00c689708b2799c90000000000000000000000000000000000000000000000000000000000002105000000000000000000000000000000000000000000000000000000000000000000000000000000000000000000000000000000000000000000000000000000000000000000000000000000000000000000000000000000000069a6194402180000000000000000000000000000000000000000000000000000000000000001400000000000000000000000000000000000000000000000000000eebe0b40e800000000000000000000000000e6b738da243e8fa2a0ed5915645789add5de5152000000000000000000000000000000000000000000000000000000000000006c5a39b10a6050ddbd9fba67712194ccb798cb2bc1bf7f7cad52a8ca18a639bbee0000210500009a010eb17379669379ebffffffffffffffffffffffffffffffffffffffffffffffffffffffffffffffffd00dfeeddeadbeef8932eb23bad9bddb5cf81426f78279a53c6c3b71000000000000000000000000000000000000000000000000000000000000000000000000000000000000000000000000",
                    "decodedMethod": {
                        "callParams": [
                            {
                                "name": "_externalContractAddress",
                                "type": "address",
                                "value": "0x7ac070f096c6e20931c3dc54f927446be232618b"
                            },
                            {
                                "name": "payload",
                                "type": "bytes",
                                "value": "0xab1382400000000000000000000000002194ccb798cb2bc1bf7f7cad52a8ca18a639bbee000000000000000000000000e397c4883ec89ed4fc9d258f00c689708b2799c9000000000000000000000000e397c4883ec89ed4fc9d258f00c689708b2799c90000000000000000000000000000000000000000000000000000000000002105000000000000000000000000000000000000000000000000000000000000000000000000000000000000000000000000000000000000000000000000000000000000000000000000000000000000000000000000000000000069a6194402180000000000000000000000000000000000000000000000000000000000000001400000000000000000000000000000000000000000000000000000eebe0b40e800000000000000000000000000e6b738da243e8fa2a0ed5915645789add5de5152000000000000000000000000000000000000000000000000000000000000006c5a39b10a6050ddbd9fba67712194ccb798cb2bc1bf7f7cad52a8ca18a639bbee0000210500009a010eb17379669379ebffffffffffffffffffffffffffffffffffffffffffffffffffffffffffffffffd00dfeeddeadbeef8932eb23bad9bddb5cf81426f78279a53c6c3b710000000000000000000000000000000000000000"
                            }
                        ],
                        "constructorArguments": "",
                        "name": "bridge",
                        "returnParams": [],
                        "signature": "bridge(address,bytes)"
                    },
                    "errorInfo": "",
                    "fromAddress": "0x0439e60f02a8900a951603950d8d4527f400c3f1",
                    "gasUsed": 90285,
                    "id": 1,
                    "methodDecoded": true,
                    "operation": "CALL",
                    "output": "",
                    "revert": false,
                    "revertMessage": "",
                    "selector": "0x4cfee326",
                    "status": true,
                    "value": "0.03"
                },
                "nodeType": 0
            },
            "10": {
                "invocation": {
                    "address": "0xc02aaa39b223fe8d0a0e5c4f27ead9083c756cc2",
                    "callData": "0x",
                    "decodedMethod": {
                        "callParams": [],
                        "constructorArguments": "",
                        "name": "deposit",
                        "returnParams": [],
                        "signature": "deposit()"
                    },
                    "errorInfo": "",
                    "fromAddress": "0x5c7bcd6e7de5423a257d81b442095a1a6ced35c5",
                    "gasUsed": 6874,
                    "id": 10,
                    "methodDecoded": true,
                    "operation": "CALL",
                    "output": "",
                    "revert": false,
                    "revertMessage": "",
                    "selector": "0xd0e30db0",
                    "status": true,
                    "value": "0.0297375"
                },
                "nodeType": 0
            },
            "11": {
                "event": {
                    "contract": "0xc02aaa39b223fe8d0a0e5c4f27ead9083c756cc2",
                    "decodedLog": {
                        "name": "Deposit",
                        "params": [
                            {
                                "name": "dst",
                                "type": "address",
                                "value": "0x5c7bcd6e7de5423a257d81b442095a1a6ced35c5"
                            },
                            {
                                "name": "wad",
                                "type": "uint256",
                                "value": "29,737,500,000,000,000"
                            }
                        ],
                        "signature": "Deposit(address,uint256)"
                    },
                    "id": 11,
                    "logData": "0x0000000000000000000000000000000000000000000000000069a61944021800",
                    "logDecoded": true,
                    "operation": "EVENT",
                    "revert": false,
                    "status": true,
                    "topics": [
                        "0xe1fffcc4923d04b559f4d29a8bfc6cda04eb5b0d3c460751c2402c5c5cc9109c",
                        "0x0000000000000000000000005c7bcd6e7de5423a257d81b442095a1a6ced35c5"
                    ]
                },
                "nodeType": 1
            },
            "12": {
                "event": {
                    "contract": "0x5c7bcd6e7de5423a257d81b442095a1a6ced35c5",
                    "decodedLog": {
                        "name": "V3FundsDeposited",
                        "params": [
                            {
                                "name": "destinationChainId",
                                "type": "uint256",
                                "value": "8,453"
                            },
                            {
                                "name": "depositId",
                                "type": "uint32",
                                "value": "1,440,696"
                            },
                            {
                                "name": "depositor",
                                "type": "address",
                                "value": "0xe397c4883ec89ed4fc9d258f00c689708b2799c9"
                            },
                            {
                                "name": "inputToken",
                                "type": "address",
                                "value": "0xc02aaa39b223fe8d0a0e5c4f27ead9083c756cc2"
                            },
                            {
                                "name": "outputToken",
                                "type": "address",
                                "value": "0x0000000000000000000000000000000000000000"
                            },
                            {
                                "name": "inputAmount",
                                "type": "uint256",
                                "value": "29,737,500,000,000,000"
                            },
                            {
                                "name": "outputAmount",
                                "type": "uint256",
                                "value": "29,732,464,568,985,033"
                            },
                            {
                                "name": "quoteTimestamp",
                                "type": "uint32",
                                "value": "1,720,941,035"
                            },
                            {
                                "name": "fillDeadline",
                                "type": "uint32",
                                "value": "4,294,967,295"
                            },
                            {
                                "name": "exclusivityDeadline",
                                "type": "uint32",
                                "value": "0"
                            },
                            {
                                "name": "recipient",
                                "type": "address",
                                "value": "0x2194ccb798cb2bc1bf7f7cad52a8ca18a639bbee"
                            },
                            {
                                "name": "exclusiveRelayer",
                                "type": "address",
                                "value": "0x0000000000000000000000000000000000000000"
                            },
                            {
                                "name": "message",
                                "type": "bytes",
                                "value": "0x"
                            }
                        ],
                        "signature": "V3FundsDeposited(address,address,uint256,uint256,uint256,uint32,uint32,uint32,uint32,address,address,address,bytes)"
                    },
                    "id": 12,
                    "logData": "0x000000000000000000000000c02aaa39b223fe8d0a0e5c4f27ead9083c756cc200000000000000000000000000000000000000000000000000000000000000000000000000000000000000000000000000000000000000000069a619440218000000000000000000000000000000000000000000000000000069a184dcee65c900000000000000000000000000000000000000000000000000000000669379eb00000000000000000000000000000000000000000000000000000000ffffffff00000000000000000000000000000000000000000000000000000000000000000000000000000000000000002194ccb798cb2bc1bf7f7cad52a8ca18a639bbee000000000000000000000000000000000000000000000000000000000000000000000000000000000000000000000000000000000000000000000000000001400000000000000000000000000000000000000000000000000000000000000000",
                    "logDecoded": true,
                    "operation": "EVENT",
                    "revert": false,
                    "status": true,
                    "topics": [
                        "0xa123dc29aebf7d0c3322c8eeb5b999e859f39937950ed31056532713d0de396f",
                        "0x0000000000000000000000000000000000000000000000000000000000002105",
                        "0x000000000000000000000000000000000000000000000000000000000015fbb8",
                        "0x000000000000000000000000e397c4883ec89ed4fc9d258f00c689708b2799c9"
                    ]
                },
                "nodeType": 1
            },
            "13": {
                "event": {
                    "contract": "0xe397c4883ec89ed4fc9d258f00c689708b2799c9",
                    "decodedLog": {
                        "name": "LiFiAcrossTransfer",
                        "params": [
                            {
                                "name": "_transactionId",
                                "type": "bytes8",
                                "value": "0x6050ddbd9fba6771"
                            }
                        ],
                        "signature": "LiFiAcrossTransfer(bytes8)"
                    },
                    "id": 13,
                    "logData": "0x6050ddbd9fba6771000000000000000000000000000000000000000000000000",
                    "logDecoded": true,
                    "operation": "EVENT",
                    "revert": false,
                    "status": true,
                    "topics": [
                        "0xe11352fef0e24c9902a94910b5ce929151ea227f4c68572aada8f2105c66c133"
                    ]
                },
                "nodeType": 1
            },
            "14": {
                "event": {
                    "contract": "0x9a47f3289794e9bbc6a3c571f6d96ad4e7baed16",
                    "decodedLog": null,
                    "id": 14,
                    "logData": "0x0000000000000000000000002194ccb798cb2bc1bf7f7cad52a8ca18a639bbee000000000000000000000000e397c4883ec89ed4fc9d258f00c689708b2799c90000000000000000000000000000000000000000000000000000000000002105000000000000000000000000000000000000000000000000000000000000000000000000000000000000000000000000000000000000000000000000000000000000000000000000000000000000000000000000000000000069a61944021800",
                    "logDecoded": false,
                    "operation": "EVENT",
                    "revert": false,
                    "status": true,
                    "topics": [
                        "0x831bac9533a2034226daa21109dbd4f887674f0fe4877e1a8b35b3ffe1bdce76"
                    ]
                },
                "nodeType": 1
            },
            "2": {
                "invocation": {
                    "address": "0x7ac070f096c6e20931c3dc54f927446be232618b",
                    "callData": "0x0000000000000000000000002194ccb798cb2bc1bf7f7cad52a8ca18a639bbee000000000000000000000000e397c4883ec89ed4fc9d258f00c689708b2799c9000000000000000000000000e397c4883ec89ed4fc9d258f00c689708b2799c90000000000000000000000000000000000000000000000000000000000002105000000000000000000000000000000000000000000000000000000000000000000000000000000000000000000000000000000000000000000000000000000000000000000000000000000000000000000000000000000000069a6194402180000000000000000000000000000000000000000000000000000000000000001400000000000000000000000000000000000000000000000000000eebe0b40e800000000000000000000000000e6b738da243e8fa2a0ed5915645789add5de5152000000000000000000000000000000000000000000000000000000000000006c5a39b10a6050ddbd9fba67712194ccb798cb2bc1bf7f7cad52a8ca18a639bbee0000210500009a010eb17379669379ebffffffffffffffffffffffffffffffffffffffffffffffffffffffffffffffffd00dfeeddeadbeef8932eb23bad9bddb5cf81426f78279a53c6c3b710000000000000000000000000000000000000000",
                    "decodedMethod": null,
                    "errorInfo": "",
                    "fromAddress": "0x9a47f3289794e9bbc6a3c571f6d96ad4e7baed16",
                    "gasUsed": 85216,
                    "id": 2,
                    "methodDecoded": false,
                    "operation": "DELEGATECALL",
                    "output": "",
                    "revert": false,
                    "revertMessage": "",
                    "selector": "0xab138240",
                    "status": true,
                    "value": "0.03"
                },
                "nodeType": 0
            },
            "3": {
                "invocation": {
                    "address": "0xe6b738da243e8fa2a0ed5915645789add5de5152",
                    "callData": "0x",
                    "decodedMethod": null,
                    "errorInfo": "",
                    "fromAddress": "0x9a47f3289794e9bbc6a3c571f6d96ad4e7baed16",
                    "gasUsed": 6329,
                    "id": 3,
                    "methodDecoded": false,
                    "operation": "CALL",
                    "output": "",
                    "revert": false,
                    "revertMessage": "",
                    "selector": "fallback",
                    "status": true,
                    "value": "0.0002625"
                },
                "nodeType": 0
            },
            "4": {
                "invocation": {
                    "address": "0xd9db270c1b5e3bd161e8c8503c55ceabee709552",
                    "callData": "0x",
                    "decodedMethod": null,
                    "errorInfo": "",
                    "fromAddress": "0xe6b738da243e8fa2a0ed5915645789add5de5152",
                    "gasUsed": 1504,
                    "id": 4,
                    "methodDecoded": false,
                    "operation": "DELEGATECALL",
                    "output": "",
                    "revert": false,
                    "revertMessage": "",
                    "selector": "fallback",
                    "status": true,
                    "value": "0.0002625"
                },
                "nodeType": 0
            },
            "5": {
                "event": {
                    "contract": "0xe6b738da243e8fa2a0ed5915645789add5de5152",
                    "decodedLog": {
                        "name": "SafeReceived",
                        "params": [
                            {
                                "name": "sender",
                                "type": "address",
                                "value": "0x9a47f3289794e9bbc6a3c571f6d96ad4e7baed16"
                            },
                            {
                                "name": "value",
                                "type": "uint256",
                                "value": "262,500,000,000,000"
                            }
                        ],
                        "signature": "SafeReceived(address,uint256)"
                    },
                    "id": 5,
                    "logData": "0x0000000000000000000000000000000000000000000000000000eebe0b40e800",
                    "logDecoded": true,
                    "operation": "EVENT",
                    "revert": false,
                    "status": true,
                    "topics": [
                        "0x3d0ce9bfc3ed7d6862dbb28b2dea94561fe714a1b4d019aa8af39730d1ad7c3d",
                        "0x0000000000000000000000009a47f3289794e9bbc6a3c571f6d96ad4e7baed16"
                    ]
                },
                "nodeType": 1
            },
            "6": {
                "event": {
                    "contract": "0x9a47f3289794e9bbc6a3c571f6d96ad4e7baed16",
                    "decodedLog": {
                        "name": "Fee",
                        "params": [
                            {
                                "name": "_sender",
                                "type": "address",
                                "value": "0x0000000000000000000000000000000000000000"
                            },
                            {
                                "name": "_reciever",
                                "type": "address",
                                "value": "0xe6b738da243e8fa2a0ed5915645789add5de5152"
                            },
                            {
                                "name": "_amount",
                                "type": "uint256",
                                "value": "262,500,000,000,000"
                            }
                        ],
                        "signature": "Fee(address,address,uint256)"
                    },
                    "id": 6,
                    "logData": "0x0000000000000000000000000000000000000000000000000000000000000000000000000000000000000000e6b738da243e8fa2a0ed5915645789add5de51520000000000000000000000000000000000000000000000000000eebe0b40e800",
                    "logDecoded": true,
                    "operation": "EVENT",
                    "revert": false,
                    "status": true,
                    "topics": [
                        "0x6ded982279c8387ad8a63e73385031a3807c1862e633f06e09d11bcb6e282f60"
                    ]
                },
                "nodeType": 1
            },
            "7": {
                "invocation": {
                    "address": "0xe397c4883ec89ed4fc9d258f00c689708b2799c9",
                    "callData": "0x6050ddbd9fba67712194ccb798cb2bc1bf7f7cad52a8ca18a639bbee0000210500009a010eb17379669379ebffffffffffffffffffffffffffffffffffffffffffffffffffffffffffffffffd00dfeeddeadbeef8932eb23bad9bddb5cf81426f78279a53c6c3b71",
                    "decodedMethod": {
                        "callParams": [],
                        "constructorArguments": "",
                        "name": "startBridgeTokensViaAcrossNativePacked",
                        "returnParams": [],
                        "signature": "startBridgeTokensViaAcrossNativePacked()"
                    },
                    "errorInfo": "",
                    "fromAddress": "0x9a47f3289794e9bbc6a3c571f6d96ad4e7baed16",
                    "gasUsed": 53432,
                    "id": 7,
                    "methodDecoded": true,
                    "operation": "CALL",
                    "output": "",
                    "revert": false,
                    "revertMessage": "",
                    "selector": "0x5a39b10a",
                    "status": true,
                    "value": "0.0297375"
                },
                "nodeType": 0
            },
            "8": {
                "invocation": {
                    "address": "0x5c7bcd6e7de5423a257d81b442095a1a6ced35c5",
                    "callData": "0x0000000000000000000000002194ccb798cb2bc1bf7f7cad52a8ca18a639bbee000000000000000000000000c02aaa39b223fe8d0a0e5c4f27ead9083c756cc20000000000000000000000000000000000000000000000000069a61944021800000000000000000000000000000000000000000000000000000000000000210500000000000000000000000000000000000000000000000000009a010eb1737900000000000000000000000000000000000000000000000000000000669379eb0000000000000000000000000000000000000000000000000000000000000100ffffffffffffffffffffffffffffffffffffffffffffffffffffffffffffffff0000000000000000000000000000000000000000000000000000000000000000",
                    "decodedMethod": {
                        "callParams": [
                            {
                                "name": "recipient",
                                "type": "address",
                                "value": "0x2194ccb798cb2bc1bf7f7cad52a8ca18a639bbee"
                            },
                            {
                                "name": "originToken",
                                "type": "address",
                                "value": "0xc02aaa39b223fe8d0a0e5c4f27ead9083c756cc2"
                            },
                            {
                                "name": "amount",
                                "type": "uint256",
                                "value": "29,737,500,000,000,000"
                            },
                            {
                                "name": "destinationChainId",
                                "type": "uint256",
                                "value": "8,453"
                            },
                            {
                                "name": "relayerFeePct",
                                "type": "int64",
                                "value": "169,329,332,155,257"
                            },
                            {
                                "name": "quoteTimestamp",
                                "type": "uint32",
                                "value": "1,720,941,035"
                            },
                            {
                                "name": "message",
                                "type": "bytes",
                                "value": "0x"
                            },
                            {
                                "name": "",
                                "type": "uint256",
                                "value": "115,792,089,237,316,195,423,570,985,008,687,907,853,269,984,665,640,564,039,457,584,007,913,129,639,935"
                            }
                        ],
                        "constructorArguments": "",
                        "name": "deposit",
                        "returnParams": [],
                        "signature": "deposit(address,address,uint256,uint256,int64,uint32,bytes,uint256)"
                    },
                    "errorInfo": "",
                    "fromAddress": "0xe397c4883ec89ed4fc9d258f00c689708b2799c9",
                    "gasUsed": 40739,
                    "id": 8,
                    "methodDecoded": true,
                    "operation": "CALL",
                    "output": "",
                    "revert": false,
                    "revertMessage": "",
                    "selector": "0x1186ec33",
                    "status": true,
                    "value": "0.0297375"
                },
                "nodeType": 0
            },
            "9": {
                "invocation": {
                    "address": "0x08c21b200ed06d2e32cec91a770c3fca8ad5f877",
                    "callData": "0x0000000000000000000000002194ccb798cb2bc1bf7f7cad52a8ca18a639bbee000000000000000000000000c02aaa39b223fe8d0a0e5c4f27ead9083c756cc20000000000000000000000000000000000000000000000000069a61944021800000000000000000000000000000000000000000000000000000000000000210500000000000000000000000000000000000000000000000000009a010eb1737900000000000000000000000000000000000000000000000000000000669379eb0000000000000000000000000000000000000000000000000000000000000100ffffffffffffffffffffffffffffffffffffffffffffffffffffffffffffffff0000000000000000000000000000000000000000000000000000000000000000",
                    "decodedMethod": {
                        "callParams": [
                            {
                                "name": "recipient",
                                "type": "address",
                                "value": "0x2194ccb798cb2bc1bf7f7cad52a8ca18a639bbee"
                            },
                            {
                                "name": "originToken",
                                "type": "address",
                                "value": "0xc02aaa39b223fe8d0a0e5c4f27ead9083c756cc2"
                            },
                            {
                                "name": "amount",
                                "type": "uint256",
                                "value": "29,737,500,000,000,000"
                            },
                            {
                                "name": "destinationChainId",
                                "type": "uint256",
                                "value": "8,453"
                            },
                            {
                                "name": "relayerFeePct",
                                "type": "int64",
                                "value": "169,329,332,155,257"
                            },
                            {
                                "name": "quoteTimestamp",
                                "type": "uint32",
                                "value": "1,720,941,035"
                            },
                            {
                                "name": "message",
                                "type": "bytes",
                                "value": "0x"
                            },
                            {
                                "name": "",
                                "type": "uint256",
                                "value": "115,792,089,237,316,195,423,570,985,008,687,907,853,269,984,665,640,564,039,457,584,007,913,129,639,935"
                            }
                        ],
                        "constructorArguments": "",
                        "name": "deposit",
                        "returnParams": [],
                        "signature": "deposit(address,address,uint256,uint256,int64,uint32,bytes,uint256)"
                    },
                    "errorInfo": "",
                    "fromAddress": "0x5c7bcd6e7de5423a257d81b442095a1a6ced35c5",
                    "gasUsed": 35799,
                    "id": 9,
                    "methodDecoded": true,
                    "operation": "DELEGATECALL",
                    "output": "",
                    "revert": false,
                    "revertMessage": "",
                    "selector": "0x1186ec33",
                    "status": true,
                    "value": "0.0297375"
                },
                "nodeType": 0
            }
        },
        "gasFlame": [
            {
                "children": [
                    {
                        "children": [
                            {
                                "children": [],
                                "depth": 0,
                                "name": "Initial Gas",
                                "value": 27180
                            },
                            {
                                "children": [
                                    {
                                        "children": [
                                            {
                                                "children": [
                                                    {
                                                        "children": [
                                                            {
                                                                "children": [],
                                                                "depth": 4,
                                                                "name": "fallback",
                                                                "value": 1504
                                                            }
                                                        ],
                                                        "depth": 3,
                                                        "name": "fallback",
                                                        "value": 6329
                                                    },
                                                    {
                                                        "children": [
                                                            {
                                                                "children": [
                                                                    {
                                                                        "children": [
                                                                            {
                                                                                "children": [],
                                                                                "depth": 6,
                                                                                "name": "deposit",
                                                                                "value": 6874
                                                                            }
                                                                        ],
                                                                        "depth": 5,
                                                                        "name": "deposit",
                                                                        "value": 35799
                                                                    }
                                                                ],
                                                                "depth": 4,
                                                                "name": "deposit",
                                                                "value": 40739
                                                            }
                                                        ],
                                                        "depth": 3,
                                                        "name": "startBridgeTokensViaAcrossNativePacked",
                                                        "value": 53432
                                                    }
                                                ],
                                                "depth": 2,
                                                "name": "0xab138240",
                                                "value": 85216
                                            }
                                        ],
                                        "depth": 1,
                                        "name": "bridge",
                                        "value": 90285
                                    }
                                ],
                                "depth": 0,
                                "name": "Executed Gas",
                                "value": 112381
                            }
                        ],
                        "depth": -1,
                        "name": "Actual Gas Used",
                        "value": 133961
                    },
                    {
                        "children": [],
                        "depth": -1,
                        "name": "Refunded Gas",
                        "value": 5600
                    }
                ],
                "depth": -2,
                "name": "Total Gas",
                "value": 139561
            }
        ],
        "isConfirmed": true,
        "mainTrace": [
            {
                "children": [
                    {
                        "children": [
                            {
                                "children": [
                                    {
                                        "children": [
                                            {
                                                "children": [
                                                    {
                                                        "children": [
                                                            {
                                                                "children": [],
                                                                "depth": 5,
                                                                "id": 5,
                                                                "order": 5
                                                            }
                                                        ],
                                                        "depth": 4,
                                                        "id": 4,
                                                        "order": 4
                                                    }
                                                ],
                                                "depth": 3,
                                                "id": 3,
                                                "order": 3
                                            },
                                            {
                                                "children": [],
                                                "depth": 3,
                                                "id": 6,
                                                "order": 6
                                            },
                                            {
                                                "children": [
                                                    {
                                                        "children": [
                                                            {
                                                                "children": [
                                                                    {
                                                                        "children": [
                                                                            {
                                                                                "children": [],
                                                                                "depth": 7,
                                                                                "id": 11,
                                                                                "order": 11
                                                                            }
                                                                        ],
                                                                        "depth": 6,
                                                                        "id": 10,
                                                                        "order": 10
                                                                    },
                                                                    {
                                                                        "children": [],
                                                                        "depth": 6,
                                                                        "id": 12,
                                                                        "order": 12
                                                                    }
                                                                ],
                                                                "depth": 5,
                                                                "id": 9,
                                                                "order": 9
                                                            }
                                                        ],
                                                        "depth": 4,
                                                        "id": 8,
                                                        "order": 8
                                                    },
                                                    {
                                                        "children": [],
                                                        "depth": 4,
                                                        "id": 13,
                                                        "order": 13
                                                    }
                                                ],
                                                "depth": 3,
                                                "id": 7,
                                                "order": 7
                                            },
                                            {
                                                "children": [],
                                                "depth": 3,
                                                "id": 14,
                                                "order": 14
                                            }
                                        ],
                                        "depth": 2,
                                        "id": 2,
                                        "order": 2
                                    }
                                ],
                                "depth": 1,
                                "id": 1,
                                "order": 1
                            }
                        ],
                        "depth": 0,
                        "id": 0,
                        "order": 0
                    }
                ],
                "depth": -1,
                "id": -1,
                "order": -1
            }
        ],
        "mainTraceNodeCount": 15,
        "parentIdMap": {
            "0": -1,
            "1": 0,
            "10": 9,
            "11": 10,
            "12": 9,
            "13": 7,
            "14": 2,
            "2": 1,
            "3": 2,
            "4": 3,
            "5": 4,
            "6": 2,
            "7": 2,
            "8": 7,
            "9": 8
        },
        "tidyTrace": [
            {
                "children": [
                    {
                        "children": [
                            {
                                "children": [
                                    {
                                        "children": [
                                            {
                                                "children": [
                                                    {
                                                        "children": [
                                                            {
                                                                "children": [],
                                                                "depth": 5,
                                                                "id": 5,
                                                                "order": 5
                                                            }
                                                        ],
                                                        "depth": 4,
                                                        "id": 4,
                                                        "order": 4
                                                    }
                                                ],
                                                "depth": 3,
                                                "id": 3,
                                                "order": 3
                                            },
                                            {
                                                "children": [],
                                                "depth": 3,
                                                "id": 6,
                                                "order": 6
                                            },
                                            {
                                                "children": [
                                                    {
                                                        "children": [
                                                            {
                                                                "children": [
                                                                    {
                                                                        "children": [
                                                                            {
                                                                                "children": [],
                                                                                "depth": 7,
                                                                                "id": 11,
                                                                                "order": 11
                                                                            }
                                                                        ],
                                                                        "depth": 6,
                                                                        "id": 10,
                                                                        "order": 10
                                                                    },
                                                                    {
                                                                        "children": [],
                                                                        "depth": 6,
                                                                        "id": 12,
                                                                        "order": 12
                                                                    }
                                                                ],
                                                                "depth": 5,
                                                                "id": 9,
                                                                "order": 9
                                                            }
                                                        ],
                                                        "depth": 4,
                                                        "id": 8,
                                                        "order": 8
                                                    },
                                                    {
                                                        "children": [],
                                                        "depth": 4,
                                                        "id": 13,
                                                        "order": 13
                                                    }
                                                ],
                                                "depth": 3,
                                                "id": 7,
                                                "order": 7
                                            },
                                            {
                                                "children": [],
                                                "depth": 3,
                                                "id": 14,
                                                "order": 14
                                            }
                                        ],
                                        "depth": 2,
                                        "id": 2,
                                        "order": 2
                                    }
                                ],
                                "depth": 1,
                                "id": 1,
                                "order": 1
                            }
                        ],
                        "depth": 0,
                        "id": 0,
                        "order": 0
                    }
                ],
                "depth": -1,
                "id": -1,
                "order": -1
            }
        ],
        "tidyTraceNodeCount": 15
    },
    "state_change": {
        "stateChanges": [
            {
                "address": "0x5c7bcd6e7de5423a257d81b442095a1a6ced35c5",
                "erc": "",
                "slots": [
                    {
                        "current": "0x000000000015fbb900000e10c02aaa39b223fe8d0a0e5c4f27ead9083c756cc2",
                        "key": "0x000000000000000000000000000000000000000000000000000000000000086b",
                        "prev": "0x000000000015fbb800000e10c02aaa39b223fe8d0a0e5c4f27ead9083c756cc2"
                    }
                ],
                "storageVariables": [
                    {
                        "name": "DEPRECATED_wrappedNativeToken",
                        "type": "contract WETH9Interface",
                        "value": {
                            "current": "0xc02aaa39b223fe8d0a0e5c4f27ead9083c756cc2",
                            "prev": "0xc02aaa39b223fe8d0a0e5c4f27ead9083c756cc2",
                            "typeTag": 1
                        }
                    },
                    {
                        "name": "DEPRECATED_depositQuoteTimeBuffer",
                        "type": "uint32",
                        "value": {
                            "current": "3600",
                            "prev": "3600",
                            "typeTag": 1
                        }
                    },
                    {
                        "name": "numberOfDeposits",
                        "type": "uint32",
                        "value": {
                            "current": "1440697",
                            "prev": "1440696",
                            "typeTag": 1
                        }
                    },
                    {
                        "name": "pausedFills",
                        "type": "bool",
                        "value": {
                            "current": "false",
                            "prev": "false",
                            "typeTag": 1
                        }
                    },
                    {
                        "name": "pausedDeposits",
                        "type": "bool",
                        "value": {
                            "current": "false",
                            "prev": "false",
                            "typeTag": 1
                        }
                    }
                ]
            },
            {
                "address": "0xc02aaa39b223fe8d0a0e5c4f27ead9083c756cc2",
                "erc": "ERC-20",
                "slots": [
                    {
                        "current": "0x0000000000000000000000000000000000000000000000075ef24a1fdb093dbd",
                        "key": "0xcc2e8e5cd534eb5e35dabd4cb4b69550879b28082441ee3da8b83455b07b7046",
                        "prev": "0x0000000000000000000000000000000000000000000000075e88a406970725bd"
                    }
                ],
                "storageVariables": [
                    {
                        "name": "balanceOf",
                        "type": "mapping(address => uint256)",
                        "value": {
                            "pairs": [
                                {
                                    "key": "0x5c7bcd6e7de5423a257d81b442095a1a6ced35c5",
                                    "value": {
                                        "current": "135968820800575323581",
                                        "prev": "135939083300575323581",
                                        "typeTag": 1
                                    }
                                }
                            ],
                            "typeTag": 4
                        }
                    }
                ]
            }
        ]
    }
}