{
    "balance_change": {
        "balanceChanges": [
            {
                "account": "0xffec0067f5a79cff07527f63d83dd5462ccf8ba4",
                "assets": [
                    {
                        "address": "0x15d4c048f83bd7e37d49ea4c83a07267ec4203da",
                        "amount": "809",
                        "iconUrl": "https://assets.blocksec.com/icon/36a0407134848a889ddcbd7e9a9dcf40573e21005c8f0c446c3b8b39307d4b8c.png",
                        "isERC1155": false,
                        "isERC721": false,
                        "sign": false,
                        "value": "31.470099999999997638"
                    }
                ]
            },
            {
                "account": "0xf0f7f3ae0e876932416bb608235386636c5faca7",
                "assets": [
                    {
                        "address": "0x15d4c048f83bd7e37d49ea4c83a07267ec4203da",
                        "amount": "809",
                        "iconUrl": "https://assets.blocksec.com/icon/36a0407134848a889ddcbd7e9a9dcf40573e21005c8f0c446c3b8b39307d4b8c.png",
                        "isERC1155": false,
                        "isERC721": false,
                        "sign": true,
                        "value": "31.470099999999997638"
                    }
                ]
            }
        ]
    },
    "profile": {
        "basic_info": {
            "baseFee": "14.646267029",
            "blockNumber": 16381168,
            "callData": "0xa9059cbb000000000000000000000000f0f7f3ae0e876932416bb608235386636c5faca700000000000000000000000000000000000000000000000000000012d6040900",
            "debugEnable": true,
            "errorInfo": "",
            "eventCount": 1,
            "feeRecipient": "0x690b9a9e9aa1c9db991c7721a92d351db4fac990",
            "formatValue": "0",
            "gasLimit": 200000,
            "gasPrice": "38.28",
            "gasUsed": 34820,
            "intTxnCount": 0,
            "internalRevert": false,
            "internalRevertMessage": "",
            "isContractCreation": false,
            "isFlashloan": false,
            "maxFee": "",
            "nonce": 1280184,
            "overwritedBlockNumber": -1,
            "priorityFee": "",
            "receiver": "0x15d4c048f83bd7e37d49ea4c83a07267ec4203da",
            "revertMessage": "",
            "sender": "0xffec0067f5a79cff07527f63d83dd5462ccf8ba4",
            "simulationEnable": true,
            "sourceTxnHash": "0xe344a08691f405f2619797d1b6fa227457b4578aaf935b3fd046e8de4d919dd2",
            "status": true,
            "timestamp": "2023-01-11T04:25:59Z",
            "transactionFee": "0.0013329096",
            "txnHash": "0xe344a08691f405f2619797d1b6fa227457b4578aaf935b3fd046e8de4d919dd2",
            "txnIndex": 2,
            "type": 0,
            "value": "0"
        },
        "fund_flow": [
            {
                "amount": "809",
                "from": "0xffec0067f5a79cff07527f63d83dd5462ccf8ba4",
                "id": 1,
                "isERC1155": false,
                "isERC721": false,
                "isReverted": false,
                "order": 1,
                "to": "0xf0f7f3ae0e876932416bb608235386636c5faca7",
                "token": "0x15d4c048f83bd7e37d49ea4c83a07267ec4203da"
            }
        ],
        "token_infos": [
            {
                "address": "0x15d4c048f83bd7e37d49ea4c83a07267ec4203da",
                "decimals": 8
            },
            {
                "address": "0xc02aaa39b223fe8d0a0e5c4f27ead9083c756cc2",
                "decimals": 18
            },
            {
                "address": "0xeeeeeeeeeeeeeeeeeeeeeeeeeeeeeeeeeeeeeeee",
                "decimals": 18
            }
        ]
    },
    "address_label": {
        "labels": [
            {
                "address": "0xeeeeeeeeeeeeeeeeeeeeeeeeeeeeeeeeeeeeeeee",
                "label": "Ether"
            },
            {
                "address": "0xffec0067f5a79cff07527f63d83dd5462ccf8ba4",
                "label": "Nexo 2"
            },
            {
                "address": "0x15d4c048f83bd7e37d49ea4c83a07267ec4203da",
                "label": "GALA: Old GALA Token"
            },
            {
                "address": "0x0000000000000000000000000000000000000001",
                "label": "Precompiled"
            },
            {
                "address": "0x0000000000000000000000000000000000000002",
                "label": "Precompiled"
            },
            {
                "address": "0x0000000000000000000000000000000000000003",
                "label": "Precompiled"
            },
            {
                "address": "0x0000000000000000000000000000000000000004",
                "label": "Precompiled"
            }
        ]
    },
    "trace": {
        "accountLabels": null,
        "dataMap": {
            "-1": {
                "invocation": {
                    "address": "0xffec0067f5a79cff07527f63d83dd5462ccf8ba4",
                    "callData": "",
                    "decodedMethod": null,
                    "errorInfo": "",
                    "fromAddress": "",
                    "gasUsed": 0,
                    "id": -1,
                    "methodDecoded": false,
                    "operation": "",
                    "output": "",
                    "revert": false,
                    "revertMessage": "",
                    "selector": "",
                    "status": false,
                    "value": ""
                },
                "nodeType": 0
            },
            "0": {
                "invocation": {
                    "address": "0x15d4c048f83bd7e37d49ea4c83a07267ec4203da",
                    "callData": "0x000000000000000000000000f0f7f3ae0e876932416bb608235386636c5faca700000000000000000000000000000000000000000000000000000012d6040900",
                    "decodedMethod": {
                        "callParams": [
                            {
                                "name": "recipient",
                                "type": "address",
                                "value": "0xf0f7f3ae0e876932416bb608235386636c5faca7"
                            },
                            {
                                "decimalAvailable": true,
                                "name": "amount",
                                "type": "uint256",
                                "value": "80,900,000,000"
                            }
                        ],
                        "constructorArguments": "",
                        "name": "transfer",
                        "returnParams": [
                            {
                                "name": "",
                                "type": "bool",
                                "value": true
                            }
                        ],
                        "signature": "transfer(address,uint256)"
                    },
                    "errorInfo": "",
                    "fromAddress": "0xffec0067f5a79cff07527f63d83dd5462ccf8ba4",
                    "gasUsed": 34820,
                    "id": 0,
                    "methodDecoded": true,
                    "operation": "CALL",
                    "output": "0x0000000000000000000000000000000000000000000000000000000000000001",
                    "revert": false,
                    "revertMessage": "",
                    "selector": "0xa9059cbb",
                    "status": true,
                    "value": "0"
                },
                "nodeType": 0
            },
            "1": {
                "event": {
                    "contract": "0x15d4c048f83bd7e37d49ea4c83a07267ec4203da",
                    "decodedLog": {
                        "name": "Transfer",
                        "params": [
                            {
                                "name": "from",
                                "type": "address",
                                "value": "0xffec0067f5a79cff07527f63d83dd5462ccf8ba4"
                            },
                            {
                                "name": "to",
                                "type": "address",
                                "value": "0xf0f7f3ae0e876932416bb608235386636c5faca7"
                            },
                            {
                                "decimalAvailable": true,
                                "name": "value",
                                "type": "uint256",
                                "value": "80,900,000,000"
                            }
                        ],
                        "signature": "Transfer(address,address,uint256)"
                    },
                    "id": 1,
                    "logData": "0x00000000000000000000000000000000000000000000000000000012d6040900",
                    "logDecoded": true,
                    "operation": "EVENT",
                    "revert": false,
                    "status": true,
                    "topics": [
                        "0xddf252ad1be2c89b69c2b068fc378daa952ba7f163c4a11628f55a4df523b3ef",
                        "0x000000000000000000000000ffec0067f5a79cff07527f63d83dd5462ccf8ba4",
                        "0x000000000000000000000000f0f7f3ae0e876932416bb608235386636c5faca7"
                    ]
                },
                "nodeType": 1
            }
        },
        "gasFlame": [
            {
                "children": [
                    {
                        "children": [
                            {
                                "children": [],
                                "depth": 0,
                                "name": "Initial Gas",
                                "value": 21608
                            },
                            {
                                "children": [],
                                "depth": 0,
                                "name": "Executed Gas",
                                "value": 13212
                            }
                        ],
                        "depth": -1,
                        "name": "Actual Gas Used",
                        "value": 34820
                    },
                    {
                        "children": [],
                        "depth": -1,
                        "name": "Refunded Gas",
                        "value": 0
                    }
                ],
                "depth": -2,
                "name": "Total Gas",
                "value": 34820
            }
        ],
        "isConfirmed": true,
        "mainTrace": [
            {
                "children": [
                    {
                        "children": [
                            {
                                "children": [],
                                "depth": 1,
                                "id": 1,
                                "order": 1
                            }
                        ],
                        "depth": 0,
                        "id": 0,
                        "order": 0
                    }
                ],
                "depth": -1,
                "id": -1,
                "order": -1
            }
        ],
        "mainTraceNodeCount": 2,
        "parentIdMap": {
            "0": -1,
            "1": 0
        },
        "tidyTrace": [
            {
                "children": [
                    {
                        "children": [
                            {
                                "children": [],
                                "depth": 1,
                                "id": 1,
                                "order": 1
                            }
                        ],
                        "depth": 0,
                        "id": 0,
                        "order": 0
                    }
                ],
                "depth": -1,
                "id": -1,
                "order": -1
            }
        ],
        "tidyTraceNodeCount": 2
    },
    "state_change": {
        "stateChanges": [
            {
                "address": "0x15d4c048f83bd7e37d49ea4c83a07267ec4203da",
                "erc": "ERC-20",
                "slots": [
                    {
                        "current": "0x000000000000000000000000000000000000000000000000000213aea9f88f7b",
                        "key": "0x34a0abebda71e5114127494ab76f405a2f02c61c2e6afe07ac2cc371c52b34b6",
                        "prev": "0x000000000000000000000000000000000000000000000000000213c17ffc987b"
                    },
                    {
                        "current": "0x0000000000000000000000000000000000000000000000000000002729805200",
                        "key": "0x2957e0ec60ddf9de98d61a22af59f6e29a135765b13f6f1dec916f1f2f9edcd9",
                        "prev": "0x00000000000000000000000000000000000000000000000000000014537c4900"
                    }
                ],
                "storageVariables": [
                    {
                        "name": "_balances",
                        "type": "mapping(address => uint256)",
                        "value": {
                            "pairs": [
                                {
                                    "key": "0xf0f7f3ae0e876932416bb608235386636c5faca7",
                                    "value": {
                                        "current": "168200000000",
                                        "prev": "87300000000",
                                        "typeTag": 1
                                    }
                                },
                                {
                                    "key": "0xffec0067f5a79cff07527f63d83dd5462ccf8ba4",
                                    "value": {
                                        "current": "584590850297723",
                                        "prev": "584671750297723",
                                        "typeTag": 1
                                    }
                                }
                            ],
                            "typeTag": 4
                        }
                    }
                ]
            }
        ]
    }
}