{
    "balance_change": {
        "balanceChanges": [
            {
                "account": "0x152f432ed6bc90f14efbf36ba712dfb16da719d5",
                "assets": [
                    {
                        "address": "0xeeeeeeeeeeeeeeeeeeeeeeeeeeeeeeeeeeeeeeee",
                        "amount": "0.027390000000009004",
                        "iconUrl": "https://assets.blocksec.com/image/1663669189317-3.png",
                        "isERC1155": false,
                        "isERC721": false,
                        "sign": false,
                        "value": "44.44356179999999701"
                    }
                ]
            },
            {
                "account": "0xe4edb277e41dc89ab076a1f049f4a3efa700bce8",
                "assets": [
                    {
                        "address": "0xeeeeeeeeeeeeeeeeeeeeeeeeeeeeeeeeeeeeeeee",
                        "amount": "0.027390000000009004",
                        "iconUrl": "https://assets.blocksec.com/image/1663669189317-3.png",
                        "isERC1155": false,
                        "isERC721": false,
                        "sign": true,
                        "value": "44.44356179999999701"
                    }
                ]
            }
        ]
    },
    "profile": {
        "basic_info": {
            "baseFee": "10.922877044",
            "blockNumber": 18179943,
            "callData": "0x29723511000000000000000000000000e4edb277e41dc89ab076a1f049f4a3efa700bce80000000000000000000000000000000000000000000000000000000000000040000000000000000000000000000000000000000000000000000000000000002103024d70399605a9d0f23dee3662da3873a0790e9438332a1966ed29050448710100000000000000000000000000000000000000000000000000000000000000",
            "debugEnable": true,
            "errorInfo": "",
            "eventCount": 0,
            "feeRecipient": "0xdafea492d9c6733ae3d56b7ed1adb60692c98bc5",
            "formatValue": "0.027390000000009004",
            "gasLimit": 39948,
            "gasPrice": "11.022877044",
            "gasUsed": 34964,
            "intTxnCount": 1,
            "internalRevert": false,
            "internalRevertMessage": "",
            "isContractCreation": false,
            "isFlashloan": false,
            "maxFee": "15.027363558",
            "nonce": 0,
            "overwritedBlockNumber": -1,
            "priorityFee": "0.1",
            "receiver": "0xd9d74a29307cc6fc8bf424ee4217f1a587fbc8dc",
            "revertMessage": "",
            "sender": "0x152f432ed6bc90f14efbf36ba712dfb16da719d5",
            "simulationEnable": true,
            "sourceTxnHash": "0xe3d1bbcb81d43b3909c13d3d15a5444e7e741e7a69b9685a3e01fa2d9c2950f1",
            "status": true,
            "timestamp": "2023-09-20T21:59:35Z",
            "transactionFee": "0.000385403872966416",
            "txnHash": "0xe3d1bbcb81d43b3909c13d3d15a5444e7e741e7a69b9685a3e01fa2d9c2950f1",
            "txnIndex": 99,
            "type": 2,
            "value": "27390000000009004"
        },
        "fund_flow": [
            {
                "amount": "0.027390000000009004",
                "from": "0x152f432ed6bc90f14efbf36ba712dfb16da719d5",
                "id": 1,
                "isERC1155": false,
                "isERC721": false,
                "isReverted": false,
                "order": 1,
                "to": "0xd9d74a29307cc6fc8bf424ee4217f1a587fbc8dc",
                "token": "0xeeeeeeeeeeeeeeeeeeeeeeeeeeeeeeeeeeeeeeee"
            },
            {
                "amount": "0.027390000000009004",
                "from": "0xd9d74a29307cc6fc8bf424ee4217f1a587fbc8dc",
                "id": 2,
                "isERC1155": false,
                "isERC721": false,
                "isReverted": false,
                "order": 2,
                "to": "0xe4edb277e41dc89ab076a1f049f4a3efa700bce8",
                "token": "0xeeeeeeeeeeeeeeeeeeeeeeeeeeeeeeeeeeeeeeee"
            }
        ],
        "token_infos": [
            {
                "address": "0xc02aaa39b223fe8d0a0e5c4f27ead9083c756cc2",
                "decimals": 18
            },
            {
                "address": "0xeeeeeeeeeeeeeeeeeeeeeeeeeeeeeeeeeeeeeeee",
                "decimals": 18
            }
        ]
    },
    "address_label": {
        "labels": [
            {
                "address": "0xd9d74a29307cc6fc8bf424ee4217f1a587fbc8dc",
                "label": "OBSource"
            },
            {
                "address": "0x0000000000000000000000000000000000000001",
                "label": "Precompiled"
            },
            {
                "address": "0x0000000000000000000000000000000000000002",
                "label": "Precompiled"
            },
            {
                "address": "0x0000000000000000000000000000000000000003",
                "label": "Precompiled"
            },
            {
                "address": "0x0000000000000000000000000000000000000004",
                "label": "Precompiled"
            },
            {
                "address": "0xeeeeeeeeeeeeeeeeeeeeeeeeeeeeeeeeeeeeeeee",
                "label": "Ether"
            },
            {
                "address": "0xe4edb277e41dc89ab076a1f049f4a3efa700bce8",
                "label": "Orbiter Finance: Bridge 2"
            }
        ]
    },
    "trace": {
        "accountLabels": null,
        "dataMap": {
            "-1": {
                "invocation": {
                    "address": "0x152f432ed6bc90f14efbf36ba712dfb16da719d5",
                    "callData": "",
                    "decodedMethod": null,
                    "errorInfo": "",
                    "fromAddress": "",
                    "gasUsed": 0,
                    "id": -1,
                    "methodDecoded": false,
                    "operation": "",
                    "output": "",
                    "revert": false,
                    "revertMessage": "",
                    "selector": "",
                    "status": false,
                    "value": ""
                },
                "nodeType": 0
            },
            "0": {
                "invocation": {
                    "address": "0xd9d74a29307cc6fc8bf424ee4217f1a587fbc8dc",
                    "callData": "0x000000000000000000000000e4edb277e41dc89ab076a1f049f4a3efa700bce80000000000000000000000000000000000000000000000000000000000000040000000000000000000000000000000000000000000000000000000000000002103024d70399605a9d0f23dee3662da3873a0790e9438332a1966ed29050448710100000000000000000000000000000000000000000000000000000000000000",
                    "decodedMethod": {
                        "callParams": [
                            {
                                "name": "_to",
                                "type": "address",
                                "value": "0xe4edb277e41dc89ab076a1f049f4a3efa700bce8"
                            },
                            {
                                "name": "_ext",
                                "type": "bytes",
                                "value": "0x03024d70399605a9d0f23dee3662da3873a0790e9438332a1966ed290504487101"
                            }
                        ],
                        "constructorArguments": "",
                        "name": "transfer",
                        "returnParams": [],
                        "signature": "transfer(address,bytes)"
                    },
                    "errorInfo": "",
                    "fromAddress": "0x152f432ed6bc90f14efbf36ba712dfb16da719d5",
                    "gasUsed": 34964,
                    "id": 0,
                    "methodDecoded": true,
                    "operation": "CALL",
                    "output": "",
                    "revert": false,
                    "revertMessage": "",
                    "selector": "0x29723511",
                    "status": true,
                    "value": "0.027390000000009004"
                },
                "nodeType": 0
            },
            "1": {
                "invocation": {
                    "address": "0xe4edb277e41dc89ab076a1f049f4a3efa700bce8",
                    "callData": "0x",
                    "decodedMethod": null,
                    "errorInfo": "",
                    "fromAddress": "0xd9d74a29307cc6fc8bf424ee4217f1a587fbc8dc",
                    "gasUsed": 0,
                    "id": 1,
                    "methodDecoded": false,
                    "operation": "CALL",
                    "output": "",
                    "revert": false,
                    "revertMessage": "",
                    "selector": "fallback",
                    "status": true,
                    "value": "0.027390000000009004"
                },
                "nodeType": 0
            }
        },
        "gasFlame": [
            {
                "children": [
                    {
                        "children": [
                            {
                                "children": [],
                                "depth": 0,
                                "name": "Initial Gas",
                                "value": 22352
                            },
                            {
                                "children": [
                                    {
                                        "children": [],
                                        "depth": 1,
                                        "name": "fallback",
                                        "value": 0
                                    }
                                ],
                                "depth": 0,
                                "name": "Executed Gas",
                                "value": 15412
                            }
                        ],
                        "depth": -1,
                        "name": "Actual Gas Used",
                        "value": 34964
                    },
                    {
                        "children": [],
                        "depth": -1,
                        "name": "Refunded Gas",
                        "value": 2800
                    }
                ],
                "depth": -2,
                "name": "Total Gas",
                "value": 37764
            }
        ],
        "isConfirmed": true,
        "mainTrace": [
            {
                "children": [
                    {
                        "children": [
                            {
                                "children": [],
                                "depth": 1,
                                "id": 1,
                                "order": 1
                            }
                        ],
                        "depth": 0,
                        "id": 0,
                        "order": 0
                    }
                ],
                "depth": -1,
                "id": -1,
                "order": -1
            }
        ],
        "mainTraceNodeCount": 2,
        "parentIdMap": {
            "0": -1,
            "1": 0
        },
        "tidyTrace": [
            {
                "children": [
                    {
                        "children": [
                            {
                                "children": [],
                                "depth": 1,
                                "id": 1,
                                "order": 1
                            }
                        ],
                        "depth": 0,
                        "id": 0,
                        "order": 0
                    }
                ],
                "depth": -1,
                "id": -1,
                "order": -1
            }
        ],
        "tidyTraceNodeCount": 2
    },
    "state_change": {
        "stateChanges": []
    }
}