{
    "balance_change": {
        "balanceChanges": []
    },
    "profile": {
        "basic_info": {
            "baseFee": "93.27337999",
            "blockNumber": 13138252,
            "callData": "0xac9650d800000000000000000000000000000000000000000000000000000000000000200000000000000000000000000000000000000000000000000000000000000002000000000000000000000000000000000000000000000000000000000000004000000000000000000000000000000000000000000000000000000000000001c00000000000000000000000000000000000000000000000000000000000000144f28c0498000000000000000000000000000000000000000000000000000000000000002000000000000000000000000000000000000000000000000000000000000000a000000000000000000000000061e5776b24e2e2db07d2ac729a39ed70f96a9b7c00000000000000000000000000000000000000000000000000000000612f25dc000000000000000000000000000000000000000000000000000000009502f90000000000000000000000000000000000000000000000000009e821319c6f2e0b0000000000000000000000000000000000000000000000000000000000000042a0b86991c6218b36c1d19d4a2e9eb0ce3606eb480001f4dac17f958d2ee523a2206206994597c13d831ec70001f4c02aaa39b223fe8d0a0e5c4f27ead9083c756cc200000000000000000000000000000000000000000000000000000000000000000000000000000000000000000000000000000000000000000000000000000000000000000000000000000000000000000000000000000000000412210e8a00000000000000000000000000000000000000000000000000000000",
            "debugEnable": true,
            "errorInfo": "execution reverted",
            "eventCount": 1,
            "feeRecipient": "0x52bc44d5378309ee2abf1539bf71de1b7d7be3b5",
            "formatValue": "0.713857037899869707",
            "gasLimit": 152425,
            "gasPrice": "94.59877999",
            "gasUsed": 148435,
            "intTxnCount": 8,
            "internalRevert": true,
            "internalRevertMessage": "",
            "isContractCreation": false,
            "isFlashloan": false,
            "maxFee": "98.75470715",
            "nonce": 1029,
            "overwritedBlockNumber": -1,
            "priorityFee": "1.3254",
            "receiver": "0xe592427a0aece92de3edee1f18e0157c05861564",
            "revertMessage": "TF",
            "sender": "0x61e5776b24e2e2db07d2ac729a39ed70f96a9b7c",
            "simulationEnable": true,
            "sourceTxnHash": "0xe325ee2f071add57472bf0a9dc4a488234c0bef35778eb517306c378bef35792",
            "status": false,
            "timestamp": "2021-09-01T06:46:12Z",
            "transactionFee": "0.01404176990781565",
            "txnHash": "0xe325ee2f071add57472bf0a9dc4a488234c0bef35778eb517306c378bef35792",
            "txnIndex": 145,
            "type": 2,
            "value": "713857037899869707"
        },
        "fund_flow": [],
        "token_infos": [
            {
                "address": "0xa0b86991c6218b36c1d19d4a2e9eb0ce3606eb48",
                "decimals": 6
            },
            {
                "address": "0xc02aaa39b223fe8d0a0e5c4f27ead9083c756cc2",
                "decimals": 18
            },
            {
                "address": "0xeeeeeeeeeeeeeeeeeeeeeeeeeeeeeeeeeeeeeeee",
                "decimals": 18
            }
        ]
    },
    "address_label": {
        "labels": [
            {
                "address": "0xa0b86991c6218b36c1d19d4a2e9eb0ce3606eb48",
                "label": "Circle: USDC Token"
            },
            {
                "address": "0x0000000000000000000000000000000000000002",
                "label": "Precompiled"
            },
            {
                "address": "0x0000000000000000000000000000000000000004",
                "label": "Precompiled"
            },
            {
                "address": "0xeeeeeeeeeeeeeeeeeeeeeeeeeeeeeeeeeeeeeeee",
                "label": "Ether"
            },
            {
                "address": "0xa2327a938febf5fec13bacfb16ae10ecbc4cbdcf",
                "label": "FiatTokenV2_1"
            },
            {
                "address": "0xe592427a0aece92de3edee1f18e0157c05861564",
                "label": "Uniswap V3: Router"
            },
            {
                "address": "0xdac17f958d2ee523a2206206994597c13d831ec7",
                "label": "Tether: USDT Stablecoin"
            },
            {
                "address": "0x0000000000000000000000000000000000000001",
                "label": "Precompiled"
            },
            {
                "address": "0x0000000000000000000000000000000000000003",
                "label": "Precompiled"
            },
            {
                "address": "0x7858e59e0c01ea06df3af3d20ac7b0003275d4bf",
                "label": "Uniswap V3: USDC-USDT"
            },
            {
                "address": "0x11b815efb8f581194ae79006d24e0d814b7697f6",
                "label": "Uniswap V3: USDT 3"
            }
        ]
    },
    "trace": {
        "accountLabels": null,
        "dataMap": {
            "-1": {
                "invocation": {
                    "address": "0x61e5776b24e2e2db07d2ac729a39ed70f96a9b7c",
                    "callData": "",
                    "decodedMethod": null,
                    "errorInfo": "",
                    "fromAddress": "",
                    "gasUsed": 0,
                    "id": -1,
                    "methodDecoded": false,
                    "operation": "",
                    "output": "",
                    "revert": false,
                    "revertMessage": "",
                    "selector": "",
                    "status": false,
                    "value": ""
                },
                "nodeType": 0
            },
            "0": {
                "invocation": {
                    "address": "0xe592427a0aece92de3edee1f18e0157c05861564",
                    "callData": "0x00000000000000000000000000000000000000000000000000000000000000200000000000000000000000000000000000000000000000000000000000000002000000000000000000000000000000000000000000000000000000000000004000000000000000000000000000000000000000000000000000000000000001c00000000000000000000000000000000000000000000000000000000000000144f28c0498000000000000000000000000000000000000000000000000000000000000002000000000000000000000000000000000000000000000000000000000000000a000000000000000000000000061e5776b24e2e2db07d2ac729a39ed70f96a9b7c00000000000000000000000000000000000000000000000000000000612f25dc000000000000000000000000000000000000000000000000000000009502f90000000000000000000000000000000000000000000000000009e821319c6f2e0b0000000000000000000000000000000000000000000000000000000000000042a0b86991c6218b36c1d19d4a2e9eb0ce3606eb480001f4dac17f958d2ee523a2206206994597c13d831ec70001f4c02aaa39b223fe8d0a0e5c4f27ead9083c756cc200000000000000000000000000000000000000000000000000000000000000000000000000000000000000000000000000000000000000000000000000000000000000000000000000000000000000000000000000000000000412210e8a00000000000000000000000000000000000000000000000000000000",
                    "decodedMethod": {
                        "callParams": [
                            {
                                "name": "data",
                                "type": "bytes[]",
                                "value": [
                                    "0xf28c0498000000000000000000000000000000000000000000000000000000000000002000000000000000000000000000000000000000000000000000000000000000a000000000000000000000000061e5776b24e2e2db07d2ac729a39ed70f96a9b7c00000000000000000000000000000000000000000000000000000000612f25dc000000000000000000000000000000000000000000000000000000009502f90000000000000000000000000000000000000000000000000009e821319c6f2e0b0000000000000000000000000000000000000000000000000000000000000042a0b86991c6218b36c1d19d4a2e9eb0ce3606eb480001f4dac17f958d2ee523a2206206994597c13d831ec70001f4c02aaa39b223fe8d0a0e5c4f27ead9083c756cc2000000000000000000000000000000000000000000000000000000000000",
                                    "0x12210e8a"
                                ]
                            }
                        ],
                        "constructorArguments": "",
                        "name": "multicall",
                        "returnParams": [],
                        "signature": "multicall(bytes[])"
                    },
                    "errorInfo": "execution reverted",
                    "fromAddress": "0x61e5776b24e2e2db07d2ac729a39ed70f96a9b7c",
                    "gasUsed": 148435,
                    "id": 0,
                    "methodDecoded": true,
                    "operation": "CALL",
                    "output": "0x08c379a0000000000000000000000000000000000000000000000000000000000000002000000000000000000000000000000000000000000000000000000000000000025446000000000000000000000000000000000000000000000000000000000000",
                    "revert": true,
                    "revertMessage": "TF",
                    "selector": "0xac9650d8",
                    "status": false,
                    "value": "0.713857037899869707"
                },
                "nodeType": 0
            },
            "1": {
                "invocation": {
                    "address": "0xe592427a0aece92de3edee1f18e0157c05861564",
                    "callData": "0x000000000000000000000000000000000000000000000000000000000000002000000000000000000000000000000000000000000000000000000000000000a000000000000000000000000061e5776b24e2e2db07d2ac729a39ed70f96a9b7c00000000000000000000000000000000000000000000000000000000612f25dc000000000000000000000000000000000000000000000000000000009502f90000000000000000000000000000000000000000000000000009e821319c6f2e0b0000000000000000000000000000000000000000000000000000000000000042a0b86991c6218b36c1d19d4a2e9eb0ce3606eb480001f4dac17f958d2ee523a2206206994597c13d831ec70001f4c02aaa39b223fe8d0a0e5c4f27ead9083c756cc2000000000000000000000000000000000000000000000000000000000000",
                    "decodedMethod": {
                        "callParams": [
                            {
                                "name": "params",
                                "type": "(bytes,address,uint256,uint256,uint256)",
                                "value": [
                                    {
                                        "name": "path",
                                        "type": "bytes",
                                        "value": "0xa0b86991c6218b36c1d19d4a2e9eb0ce3606eb480001f4dac17f958d2ee523a2206206994597c13d831ec70001f4c02aaa39b223fe8d0a0e5c4f27ead9083c756cc2"
                                    },
                                    {
                                        "name": "recipient",
                                        "type": "address",
                                        "value": "0x61e5776b24e2e2db07d2ac729a39ed70f96a9b7c"
                                    },
                                    {
                                        "name": "deadline",
                                        "type": "uint256",
                                        "value": "1,630,479,836"
                                    },
                                    {
                                        "name": "amountOut",
                                        "type": "uint256",
                                        "value": "2,500,000,000"
                                    },
                                    {
                                        "name": "amountInMaximum",
                                        "type": "uint256",
                                        "value": "713,857,037,899,869,707"
                                    }
                                ]
                            }
                        ],
                        "constructorArguments": "",
                        "name": "exactOutput",
                        "returnParams": [],
                        "signature": "exactOutput((bytes,address,uint256,uint256,uint256))"
                    },
                    "errorInfo": "execution reverted",
                    "fromAddress": "0xe592427a0aece92de3edee1f18e0157c05861564",
                    "gasUsed": 121272,
                    "id": 1,
                    "methodDecoded": true,
                    "operation": "DELEGATECALL",
                    "output": "0x08c379a0000000000000000000000000000000000000000000000000000000000000002000000000000000000000000000000000000000000000000000000000000000025446000000000000000000000000000000000000000000000000000000000000",
                    "revert": true,
                    "revertMessage": "TF",
                    "selector": "0xf28c0498",
                    "status": false,
                    "value": "0.713857037899869707"
                },
                "nodeType": 0
            },
            "2": {
                "invocation": {
                    "address": "0x7858e59e0c01ea06df3af3d20ac7b0003275d4bf",
                    "callData": "0x00000000000000000000000061e5776b24e2e2db07d2ac729a39ed70f96a9b7c0000000000000000000000000000000000000000000000000000000000000000ffffffffffffffffffffffffffffffffffffffffffffffffffffffff6afd0700000000000000000000000000fffd8963efd1fc6a506488495d951d5263988d2500000000000000000000000000000000000000000000000000000000000000a000000000000000000000000000000000000000000000000000000000000000e00000000000000000000000000000000000000000000000000000000000000020000000000000000000000000000000000000000000000000000000000000004000000000000000000000000061e5776b24e2e2db07d2ac729a39ed70f96a9b7c0000000000000000000000000000000000000000000000000000000000000042a0b86991c6218b36c1d19d4a2e9eb0ce3606eb480001f4dac17f958d2ee523a2206206994597c13d831ec70001f4c02aaa39b223fe8d0a0e5c4f27ead9083c756cc2000000000000000000000000000000000000000000000000000000000000",
                    "decodedMethod": {
                        "callParams": [
                            {
                                "name": "recipient",
                                "type": "address",
                                "value": "0x61e5776b24e2e2db07d2ac729a39ed70f96a9b7c"
                            },
                            {
                                "name": "zeroForOne",
                                "type": "bool",
                                "value": false
                            },
                            {
                                "name": "amountSpecified",
                                "type": "int256",
                                "value": "-2,500,000,000"
                            },
                            {
                                "name": "sqrtPriceLimitX96",
                                "type": "uint160",
                                "value": "1,461,446,703,485,210,103,287,273,052,203,988,822,378,723,970,341"
                            },
                            {
                                "name": "data",
                                "type": "bytes",
                                "value": "0x0000000000000000000000000000000000000000000000000000000000000020000000000000000000000000000000000000000000000000000000000000004000000000000000000000000061e5776b24e2e2db07d2ac729a39ed70f96a9b7c0000000000000000000000000000000000000000000000000000000000000042a0b86991c6218b36c1d19d4a2e9eb0ce3606eb480001f4dac17f958d2ee523a2206206994597c13d831ec70001f4c02aaa39b223fe8d0a0e5c4f27ead9083c756cc2000000000000000000000000000000000000000000000000000000000000"
                            }
                        ],
                        "constructorArguments": "",
                        "name": "swap",
                        "returnParams": [],
                        "signature": "swap(address,bool,int256,uint160,bytes)"
                    },
                    "errorInfo": "execution reverted",
                    "fromAddress": "0xe592427a0aece92de3edee1f18e0157c05861564",
                    "gasUsed": 114453,
                    "id": 2,
                    "methodDecoded": true,
                    "operation": "CALL",
                    "output": "0x08c379a0000000000000000000000000000000000000000000000000000000000000002000000000000000000000000000000000000000000000000000000000000000025446000000000000000000000000000000000000000000000000000000000000",
                    "revert": true,
                    "revertMessage": "TF",
                    "selector": "0x128acb08",
                    "status": false,
                    "value": "0"
                },
                "nodeType": 0
            },
            "3": {
                "invocation": {
                    "address": "0xa0b86991c6218b36c1d19d4a2e9eb0ce3606eb48",
                    "callData": "0x00000000000000000000000061e5776b24e2e2db07d2ac729a39ed70f96a9b7c000000000000000000000000000000000000000000000000000000009502f900",
                    "decodedMethod": {
                        "callParams": [
                            {
                                "name": "to",
                                "type": "address",
                                "value": "0x61e5776b24e2e2db07d2ac729a39ed70f96a9b7c"
                            },
                            {
                                "decimalAvailable": true,
                                "name": "value",
                                "type": "uint256",
                                "value": "2,500,000,000"
                            }
                        ],
                        "constructorArguments": "",
                        "name": "transfer",
                        "returnParams": [
                            {
                                "name": "",
                                "type": "bool",
                                "value": true
                            }
                        ],
                        "signature": "transfer(address,uint256)"
                    },
                    "errorInfo": "",
                    "fromAddress": "0x7858e59e0c01ea06df3af3d20ac7b0003275d4bf",
                    "gasUsed": 26917,
                    "id": 3,
                    "methodDecoded": true,
                    "operation": "CALL",
                    "output": "0x0000000000000000000000000000000000000000000000000000000000000001",
                    "revert": true,
                    "revertMessage": "",
                    "selector": "0xa9059cbb",
                    "status": true,
                    "value": "0"
                },
                "nodeType": 0
            },
            "4": {
                "invocation": {
                    "address": "0xa2327a938febf5fec13bacfb16ae10ecbc4cbdcf",
                    "callData": "0x00000000000000000000000061e5776b24e2e2db07d2ac729a39ed70f96a9b7c000000000000000000000000000000000000000000000000000000009502f900",
                    "decodedMethod": {
                        "callParams": [
                            {
                                "name": "to",
                                "type": "address",
                                "value": "0x61e5776b24e2e2db07d2ac729a39ed70f96a9b7c"
                            },
                            {
                                "decimalAvailable": true,
                                "name": "value",
                                "type": "uint256",
                                "value": "2,500,000,000"
                            }
                        ],
                        "constructorArguments": "",
                        "name": "transfer",
                        "returnParams": [
                            {
                                "name": "",
                                "type": "bool",
                                "value": true
                            }
                        ],
                        "signature": "transfer(address,uint256)"
                    },
                    "errorInfo": "",
                    "fromAddress": "0xa0b86991c6218b36c1d19d4a2e9eb0ce3606eb48",
                    "gasUsed": 19628,
                    "id": 4,
                    "methodDecoded": true,
                    "operation": "DELEGATECALL",
                    "output": "0x0000000000000000000000000000000000000000000000000000000000000001",
                    "revert": true,
                    "revertMessage": "",
                    "selector": "0xa9059cbb",
                    "status": true,
                    "value": "0"
                },
                "nodeType": 0
            },
            "5": {
                "event": {
                    "contract": "0xa0b86991c6218b36c1d19d4a2e9eb0ce3606eb48",
                    "decodedLog": {
                        "name": "Transfer",
                        "params": [
                            {
                                "name": "from",
                                "type": "address",
                                "value": "0x7858e59e0c01ea06df3af3d20ac7b0003275d4bf"
                            },
                            {
                                "name": "to",
                                "type": "address",
                                "value": "0x61e5776b24e2e2db07d2ac729a39ed70f96a9b7c"
                            },
                            {
                                "decimalAvailable": true,
                                "name": "value",
                                "type": "uint256",
                                "value": "2,500,000,000"
                            }
                        ],
                        "signature": "Transfer(address,address,uint256)"
                    },
                    "id": 5,
                    "logData": "0x000000000000000000000000000000000000000000000000000000009502f900",
                    "logDecoded": true,
                    "operation": "EVENT",
                    "revert": true,
                    "status": false,
                    "topics": [
                        "0xddf252ad1be2c89b69c2b068fc378daa952ba7f163c4a11628f55a4df523b3ef",
                        "0x0000000000000000000000007858e59e0c01ea06df3af3d20ac7b0003275d4bf",
                        "0x00000000000000000000000061e5776b24e2e2db07d2ac729a39ed70f96a9b7c"
                    ]
                },
                "nodeType": 1
            },
            "6": {
                "invocation": {
                    "address": "0xdac17f958d2ee523a2206206994597c13d831ec7",
                    "callData": "0x0000000000000000000000007858e59e0c01ea06df3af3d20ac7b0003275d4bf",
                    "decodedMethod": {
                        "callParams": [
                            {
                                "name": "who",
                                "type": "address",
                                "value": "0x7858e59e0c01ea06df3af3d20ac7b0003275d4bf"
                            }
                        ],
                        "constructorArguments": "",
                        "name": "balanceOf",
                        "returnParams": [
                            {
                                "decimalAvailable": true,
                                "name": "",
                                "type": "uint256",
                                "value": "62,206,889,542,861"
                            }
                        ],
                        "signature": "balanceOf(address)"
                    },
                    "errorInfo": "",
                    "fromAddress": "0x7858e59e0c01ea06df3af3d20ac7b0003275d4bf",
                    "gasUsed": 5031,
                    "id": 6,
                    "methodDecoded": true,
                    "operation": "STATICCALL",
                    "output": "0x00000000000000000000000000000000000000000000000000003893ab8dc4cd",
                    "revert": true,
                    "revertMessage": "",
                    "selector": "0x70a08231",
                    "status": true,
                    "value": "0"
                },
                "nodeType": 0
            },
            "7": {
                "invocation": {
                    "address": "0xe592427a0aece92de3edee1f18e0157c05861564",
                    "callData": "0xffffffffffffffffffffffffffffffffffffffffffffffffffffffff6afd070000000000000000000000000000000000000000000000000000000000950ebfac000000000000000000000000000000000000000000000000000000000000006000000000000000000000000000000000000000000000000000000000000000e00000000000000000000000000000000000000000000000000000000000000020000000000000000000000000000000000000000000000000000000000000004000000000000000000000000061e5776b24e2e2db07d2ac729a39ed70f96a9b7c0000000000000000000000000000000000000000000000000000000000000042a0b86991c6218b36c1d19d4a2e9eb0ce3606eb480001f4dac17f958d2ee523a2206206994597c13d831ec70001f4c02aaa39b223fe8d0a0e5c4f27ead9083c756cc2000000000000000000000000000000000000000000000000000000000000",
                    "decodedMethod": {
                        "callParams": [
                            {
                                "name": "amount0Delta",
                                "type": "int256",
                                "value": "-2,500,000,000"
                            },
                            {
                                "name": "amount1Delta",
                                "type": "int256",
                                "value": "2,500,771,756"
                            },
                            {
                                "name": "_data",
                                "type": "bytes",
                                "value": "0x0000000000000000000000000000000000000000000000000000000000000020000000000000000000000000000000000000000000000000000000000000004000000000000000000000000061e5776b24e2e2db07d2ac729a39ed70f96a9b7c0000000000000000000000000000000000000000000000000000000000000042a0b86991c6218b36c1d19d4a2e9eb0ce3606eb480001f4dac17f958d2ee523a2206206994597c13d831ec70001f4c02aaa39b223fe8d0a0e5c4f27ead9083c756cc2000000000000000000000000000000000000000000000000000000000000"
                            }
                        ],
                        "constructorArguments": "",
                        "name": "uniswapV3SwapCallback",
                        "returnParams": [],
                        "signature": "uniswapV3SwapCallback(int256,int256,bytes)"
                    },
                    "errorInfo": "execution reverted",
                    "fromAddress": "0x7858e59e0c01ea06df3af3d20ac7b0003275d4bf",
                    "gasUsed": 49595,
                    "id": 7,
                    "methodDecoded": true,
                    "operation": "CALL",
                    "output": "0x08c379a0000000000000000000000000000000000000000000000000000000000000002000000000000000000000000000000000000000000000000000000000000000025446000000000000000000000000000000000000000000000000000000000000",
                    "revert": true,
                    "revertMessage": "TF",
                    "selector": "0xfa461e33",
                    "status": false,
                    "value": "0"
                },
                "nodeType": 0
            },
            "8": {
                "invocation": {
                    "address": "0x11b815efb8f581194ae79006d24e0d814b7697f6",
                    "callData": "0x0000000000000000000000007858e59e0c01ea06df3af3d20ac7b0003275d4bf0000000000000000000000000000000000000000000000000000000000000001ffffffffffffffffffffffffffffffffffffffffffffffffffffffff6af1405400000000000000000000000000000000000000000000000000000001000276a400000000000000000000000000000000000000000000000000000000000000a000000000000000000000000000000000000000000000000000000000000000c00000000000000000000000000000000000000000000000000000000000000020000000000000000000000000000000000000000000000000000000000000004000000000000000000000000061e5776b24e2e2db07d2ac729a39ed70f96a9b7c000000000000000000000000000000000000000000000000000000000000002bdac17f958d2ee523a2206206994597c13d831ec70001f4c02aaa39b223fe8d0a0e5c4f27ead9083c756cc2000000000000000000000000000000000000000000",
                    "decodedMethod": {
                        "callParams": [
                            {
                                "name": "recipient",
                                "type": "address",
                                "value": "0x7858e59e0c01ea06df3af3d20ac7b0003275d4bf"
                            },
                            {
                                "name": "zeroForOne",
                                "type": "bool",
                                "value": true
                            },
                            {
                                "name": "amountSpecified",
                                "type": "int256",
                                "value": "-2,500,771,756"
                            },
                            {
                                "name": "sqrtPriceLimitX96",
                                "type": "uint160",
                                "value": "4,295,128,740"
                            },
                            {
                                "name": "data",
                                "type": "bytes",
                                "value": "0x0000000000000000000000000000000000000000000000000000000000000020000000000000000000000000000000000000000000000000000000000000004000000000000000000000000061e5776b24e2e2db07d2ac729a39ed70f96a9b7c000000000000000000000000000000000000000000000000000000000000002bdac17f958d2ee523a2206206994597c13d831ec70001f4c02aaa39b223fe8d0a0e5c4f27ead9083c756cc2000000000000000000000000000000000000000000"
                            }
                        ],
                        "constructorArguments": "",
                        "name": "swap",
                        "returnParams": [],
                        "signature": "swap(address,bool,int256,uint160,bytes)"
                    },
                    "errorInfo": "execution reverted",
                    "fromAddress": "0xe592427a0aece92de3edee1f18e0157c05861564",
                    "gasUsed": 40410,
                    "id": 8,
                    "methodDecoded": true,
                    "operation": "CALL",
                    "output": "0x08c379a0000000000000000000000000000000000000000000000000000000000000002000000000000000000000000000000000000000000000000000000000000000025446000000000000000000000000000000000000000000000000000000000000",
                    "revert": true,
                    "revertMessage": "TF",
                    "selector": "0x128acb08",
                    "status": false,
                    "value": "0"
                },
                "nodeType": 0
            },
            "9": {
                "invocation": {
                    "address": "0xdac17f958d2ee523a2206206994597c13d831ec7",
                    "callData": "0x0000000000000000000000007858e59e0c01ea06df3af3d20ac7b0003275d4bf00000000000000000000000000000000000000000000000000000000950ebfac",
                    "decodedMethod": {
                        "callParams": [
                            {
                                "name": "_to",
                                "type": "address",
                                "value": "0x7858e59e0c01ea06df3af3d20ac7b0003275d4bf"
                            },
                            {
                                "decimalAvailable": true,
                                "name": "_value",
                                "type": "uint256",
                                "value": "2,500,771,756"
                            }
                        ],
                        "constructorArguments": "",
                        "name": "transfer",
                        "returnParams": [],
                        "signature": "transfer(address,uint256)"
                    },
                    "errorInfo": "out of gas: not enough gas for reentrancy sentry",
                    "fromAddress": "0x11b815efb8f581194ae79006d24e0d814b7697f6",
                    "gasUsed": 14373,
                    "id": 9,
                    "methodDecoded": true,
                    "operation": "CALL",
                    "output": "",
                    "revert": true,
                    "revertMessage": "",
                    "selector": "0xa9059cbb",
                    "status": false,
                    "value": "0"
                },
                "nodeType": 0
            }
        },
        "gasFlame": [
            {
                "children": [
                    {
                        "children": [
                            {
                                "children": [],
                                "depth": 0,
                                "name": "Initial Gas",
                                "value": 24784
                            },
                            {
                                "children": [
                                    {
                                        "children": [
                                            {
                                                "children": [
                                                    {
                                                        "children": [
                                                            {
                                                                "children": [],
                                                                "depth": 4,
                                                                "name": "transfer",
                                                                "value": 19628
                                                            }
                                                        ],
                                                        "depth": 3,
                                                        "name": "transfer",
                                                        "value": 26917
                                                    },
                                                    {
                                                        "children": [],
                                                        "depth": 3,
                                                        "name": "balanceOf",
                                                        "value": 5031
                                                    },
                                                    {
                                                        "children": [
                                                            {
                                                                "children": [
                                                                    {
                                                                        "children": [],
                                                                        "depth": 5,
                                                                        "name": "transfer",
                                                                        "value": 14373
                                                                    }
                                                                ],
                                                                "depth": 4,
                                                                "name": "swap",
                                                                "value": 40410
                                                            }
                                                        ],
                                                        "depth": 3,
                                                        "name": "uniswapV3SwapCallback",
                                                        "value": 49595
                                                    }
                                                ],
                                                "depth": 2,
                                                "name": "swap",
                                                "value": 114453
                                            }
                                        ],
                                        "depth": 1,
                                        "name": "exactOutput",
                                        "value": 121272
                                    }
                                ],
                                "depth": 0,
                                "name": "Executed Gas",
                                "value": 123651
                            }
                        ],
                        "depth": -1,
                        "name": "Actual Gas Used",
                        "value": 148435
                    },
                    {
                        "children": [],
                        "depth": -1,
                        "name": "Refunded Gas",
                        "value": 0
                    }
                ],
                "depth": -2,
                "name": "Total Gas",
                "value": 148435
            }
        ],
        "isConfirmed": true,
        "mainTrace": [
            {
                "children": [
                    {
                        "children": [
                            {
                                "children": [
                                    {
                                        "children": [
                                            {
                                                "children": [
                                                    {
                                                        "children": [
                                                            {
                                                                "children": [],
                                                                "depth": 5,
                                                                "id": 5,
                                                                "order": 5
                                                            }
                                                        ],
                                                        "depth": 4,
                                                        "id": 4,
                                                        "order": 4
                                                    }
                                                ],
                                                "depth": 3,
                                                "id": 3,
                                                "order": 3
                                            },
                                            {
                                                "children": [],
                                                "depth": 3,
                                                "id": 6,
                                                "order": 6
                                            },
                                            {
                                                "children": [
                                                    {
                                                        "children": [
                                                            {
                                                                "children": [],
                                                                "depth": 5,
                                                                "id": 9,
                                                                "order": 9
                                                            }
                                                        ],
                                                        "depth": 4,
                                                        "id": 8,
                                                        "order": 8
                                                    }
                                                ],
                                                "depth": 3,
                                                "id": 7,
                                                "order": 7
                                            }
                                        ],
                                        "depth": 2,
                                        "id": 2,
                                        "order": 2
                                    }
                                ],
                                "depth": 1,
                                "id": 1,
                                "order": 1
                            }
                        ],
                        "depth": 0,
                        "id": 0,
                        "order": 0
                    }
                ],
                "depth": -1,
                "id": -1,
                "order": -1
            }
        ],
        "mainTraceNodeCount": 10,
        "parentIdMap": {
            "0": -1,
            "1": 0,
            "2": 1,
            "3": 2,
            "4": 3,
            "5": 4,
            "6": 2,
            "7": 2,
            "8": 7,
            "9": 8
        },
        "tidyTrace": [
            {
                "children": [
                    {
                        "children": [
                            {
                                "children": [
                                    {
                                        "children": [
                                            {
                                                "children": [
                                                    {
                                                        "children": [
                                                            {
                                                                "children": [],
                                                                "depth": 5,
                                                                "id": 5,
                                                                "order": 5
                                                            }
                                                        ],
                                                        "depth": 4,
                                                        "id": 4,
                                                        "order": 4
                                                    }
                                                ],
                                                "depth": 3,
                                                "id": 3,
                                                "order": 3
                                            },
                                            {
                                                "children": [
                                                    {
                                                        "children": [
                                                            {
                                                                "children": [],
                                                                "depth": 5,
                                                                "id": 9,
                                                                "order": 9
                                                            }
                                                        ],
                                                        "depth": 4,
                                                        "id": 8,
                                                        "order": 8
                                                    }
                                                ],
                                                "depth": 3,
                                                "id": 7,
                                                "order": 7
                                            }
                                        ],
                                        "depth": 2,
                                        "id": 2,
                                        "order": 2
                                    }
                                ],
                                "depth": 1,
                                "id": 1,
                                "order": 1
                            }
                        ],
                        "depth": 0,
                        "id": 0,
                        "order": 0
                    }
                ],
                "depth": -1,
                "id": -1,
                "order": -1
            }
        ],
        "tidyTraceNodeCount": 9
    },
    "state_change": {
        "stateChanges": []
    }
}