{
    "balance_change": {
        "balanceChanges": [
            {
                "account": "0x1464198c759749399a4b35cb6e1c1a8ff70bf1e7",
                "assets": [
                    {
                        "address": "0xab4e1802c61e12fd7b10a69a226f5d727c76a8aa",
                        "amount": "9.75",
                        "iconUrl": "",
                        "isERC1155": false,
                        "isERC721": false,
                        "sign": false,
                        "value": ""
                    }
                ]
            },
            {
                "account": "0x3e4f6acaf3365f2badcbf01e4dea5f25fcb68995",
                "assets": [
                    {
                        "address": "0xab4e1802c61e12fd7b10a69a226f5d727c76a8aa",
                        "amount": "9.75",
                        "iconUrl": "",
                        "isERC1155": false,
                        "isERC721": false,
                        "sign": true,
                        "value": ""
                    }
                ]
            }
        ]
    },
    "profile": {
        "basic_info": {
            "baseFee": "",
            "blockNumber": 7235066,
            "callData": "0xa9059cbb0000000000000000000000003e4f6acaf3365f2badcbf01e4dea5f25fcb68995000000000000000000000000000000000000000000000000874ef557a00f0000",
            "debugEnable": true,
            "errorInfo": "",
            "eventCount": 1,
            "feeRecipient": "0x52e44f279f4203dcf680395379e5f9990a69f13c",
            "formatValue": "0",
            "gasLimit": 182000,
            "gasPrice": "9",
            "gasUsed": 39623,
            "intTxnCount": 0,
            "internalRevert": false,
            "internalRevertMessage": "",
            "isContractCreation": false,
            "isFlashloan": false,
            "maxFee": "",
            "nonce": 15453,
            "overwritedBlockNumber": -1,
            "priorityFee": "",
            "receiver": "0xab4e1802c61e12fd7b10a69a226f5d727c76a8aa",
            "revertMessage": "",
            "sender": "0x1464198c759749399a4b35cb6e1c1a8ff70bf1e7",
            "simulationEnable": true,
            "sourceTxnHash": "0xe313a80e0246852f94203fc33145a2cd4e52bde8c5e199f5b173d0333153f152",
            "status": true,
            "timestamp": "2019-02-18T06:47:04Z",
            "transactionFee": "0.000356607",
            "txnHash": "0xe313a80e0246852f94203fc33145a2cd4e52bde8c5e199f5b173d0333153f152",
            "txnIndex": 68,
            "type": 0,
            "value": "0"
        },
        "fund_flow": [
            {
                "amount": "9.75",
                "from": "0x1464198c759749399a4b35cb6e1c1a8ff70bf1e7",
                "id": 1,
                "isERC1155": false,
                "isERC721": false,
                "isReverted": false,
                "order": 1,
                "to": "0x3e4f6acaf3365f2badcbf01e4dea5f25fcb68995",
                "token": "0xab4e1802c61e12fd7b10a69a226f5d727c76a8aa"
            }
        ],
        "token_infos": [
            {
                "address": "0xeeeeeeeeeeeeeeeeeeeeeeeeeeeeeeeeeeeeeeee",
                "decimals": 18
            },
            {
                "address": "0xab4e1802c61e12fd7b10a69a226f5d727c76a8aa",
                "decimals": 18
            },
            {
                "address": "0xc02aaa39b223fe8d0a0e5c4f27ead9083c756cc2",
                "decimals": 18
            }
        ]
    },
    "address_label": {
        "labels": [
            {
                "address": "0x0000000000000000000000000000000000000002",
                "label": "Precompiled"
            },
            {
                "address": "0x0000000000000000000000000000000000000003",
                "label": "Precompiled"
            },
            {
                "address": "0x0000000000000000000000000000000000000004",
                "label": "Precompiled"
            },
            {
                "address": "0xeeeeeeeeeeeeeeeeeeeeeeeeeeeeeeeeeeeeeeee",
                "label": "Ether"
            },
            {
                "address": "0xab4e1802c61e12fd7b10a69a226f5d727c76a8aa",
                "label": "ODF"
            },
            {
                "address": "0x0000000000000000000000000000000000000001",
                "label": "Precompiled"
            }
        ]
    },
    "trace": {
        "accountLabels": null,
        "dataMap": {
            "-1": {
                "invocation": {
                    "address": "0x1464198c759749399a4b35cb6e1c1a8ff70bf1e7",
                    "callData": "",
                    "decodedMethod": null,
                    "errorInfo": "",
                    "fromAddress": "",
                    "gasUsed": 0,
                    "id": -1,
                    "methodDecoded": false,
                    "operation": "",
                    "output": "",
                    "revert": false,
                    "revertMessage": "",
                    "selector": "",
                    "status": false,
                    "value": ""
                },
                "nodeType": 0
            },
            "0": {
                "invocation": {
                    "address": "0xab4e1802c61e12fd7b10a69a226f5d727c76a8aa",
                    "callData": "0x0000000000000000000000003e4f6acaf3365f2badcbf01e4dea5f25fcb68995000000000000000000000000000000000000000000000000874ef557a00f0000",
                    "decodedMethod": {
                        "callParams": [
                            {
                                "name": "recipient",
                                "type": "address",
                                "value": "0x3e4f6acaf3365f2badcbf01e4dea5f25fcb68995"
                            },
                            {
                                "decimalAvailable": true,
                                "name": "amount",
                                "type": "uint256",
                                "value": "9,750,000,000,000,000,000"
                            }
                        ],
                        "constructorArguments": "",
                        "name": "transfer",
                        "returnParams": [
                            {
                                "name": "",
                                "type": "bool",
                                "value": true
                            }
                        ],
                        "signature": "transfer(address,uint256)"
                    },
                    "errorInfo": "",
                    "fromAddress": "0x1464198c759749399a4b35cb6e1c1a8ff70bf1e7",
                    "gasUsed": 39623,
                    "id": 0,
                    "methodDecoded": true,
                    "operation": "CALL",
                    "output": "0x0000000000000000000000000000000000000000000000000000000000000001",
                    "revert": false,
                    "revertMessage": "",
                    "selector": "0xa9059cbb",
                    "status": true,
                    "value": "0"
                },
                "nodeType": 0
            },
            "1": {
                "event": {
                    "contract": "0xab4e1802c61e12fd7b10a69a226f5d727c76a8aa",
                    "decodedLog": {
                        "name": "Transfer",
                        "params": [
                            {
                                "name": "from",
                                "type": "address",
                                "value": "0x1464198c759749399a4b35cb6e1c1a8ff70bf1e7"
                            },
                            {
                                "name": "to",
                                "type": "address",
                                "value": "0x3e4f6acaf3365f2badcbf01e4dea5f25fcb68995"
                            },
                            {
                                "decimalAvailable": true,
                                "name": "value",
                                "type": "uint256",
                                "value": "9,750,000,000,000,000,000"
                            }
                        ],
                        "signature": "Transfer(address,address,uint256)"
                    },
                    "id": 1,
                    "logData": "0x000000000000000000000000000000000000000000000000874ef557a00f0000",
                    "logDecoded": true,
                    "operation": "EVENT",
                    "revert": false,
                    "status": true,
                    "topics": [
                        "0xddf252ad1be2c89b69c2b068fc378daa952ba7f163c4a11628f55a4df523b3ef",
                        "0x0000000000000000000000001464198c759749399a4b35cb6e1c1a8ff70bf1e7",
                        "0x0000000000000000000000003e4f6acaf3365f2badcbf01e4dea5f25fcb68995"
                    ]
                },
                "nodeType": 1
            }
        },
        "gasFlame": [
            {
                "children": [
                    {
                        "children": [
                            {
                                "children": [],
                                "depth": 0,
                                "name": "Initial Gas",
                                "value": 23192
                            },
                            {
                                "children": [],
                                "depth": 0,
                                "name": "Executed Gas",
                                "value": 16431
                            }
                        ],
                        "depth": -1,
                        "name": "Actual Gas Used",
                        "value": 39623
                    },
                    {
                        "children": [],
                        "depth": -1,
                        "name": "Refunded Gas",
                        "value": 0
                    }
                ],
                "depth": -2,
                "name": "Total Gas",
                "value": 39623
            }
        ],
        "isConfirmed": true,
        "mainTrace": [
            {
                "children": [
                    {
                        "children": [
                            {
                                "children": [],
                                "depth": 1,
                                "id": 1,
                                "order": 1
                            }
                        ],
                        "depth": 0,
                        "id": 0,
                        "order": 0
                    }
                ],
                "depth": -1,
                "id": -1,
                "order": -1
            }
        ],
        "mainTraceNodeCount": 2,
        "parentIdMap": {
            "0": -1,
            "1": 0
        },
        "tidyTrace": [
            {
                "children": [
                    {
                        "children": [
                            {
                                "children": [],
                                "depth": 1,
                                "id": 1,
                                "order": 1
                            }
                        ],
                        "depth": 0,
                        "id": 0,
                        "order": 0
                    }
                ],
                "depth": -1,
                "id": -1,
                "order": -1
            }
        ],
        "tidyTraceNodeCount": 2
    },
    "state_change": {
        "stateChanges": [
            {
                "address": "0xab4e1802c61e12fd7b10a69a226f5d727c76a8aa",
                "erc": "",
                "slots": [
                    {
                        "current": "0x000000000000000000000000000000000000000000038abec0ec917886534000",
                        "key": "0xc377b2117c5ba2383aa7c47aade08de9d2a6d5485f37e60fe6322e834734fe6e",
                        "prev": "0x000000000000000000000000000000000000000000038abf483b86d026624000"
                    },
                    {
                        "current": "0x000000000000000000000000000000000000000000000001cc0c755d20330000",
                        "key": "0x7ee23a81a43a0a06c63142916918be5cebb4b19c0a28e603e3bdb9def1a9d0bf",
                        "prev": "0x00000000000000000000000000000000000000000000000144bd800580240000"
                    }
                ],
                "storageVariables": []
            }
        ]
    }
}