{
    "balance_change": {
        "balanceChanges": [
            {
                "account": "0x961e76eb5bed4dd495b9b93c6998482226272799",
                "assets": [
                    {
                        "address": "0xebf698ede71af52ab1acb12975472ba2e302e810",
                        "amount": "0.0507",
                        "iconUrl": "",
                        "isERC1155": false,
                        "isERC721": false,
                        "sign": false,
                        "value": "0.22506442"
                    }
                ]
            },
            {
                "account": "0xf774e3cec31d0a7e8e8f02ba9041d862b13f45dd",
                "assets": [
                    {
                        "address": "0xebf698ede71af52ab1acb12975472ba2e302e810",
                        "amount": "0.0507",
                        "iconUrl": "",
                        "isERC1155": false,
                        "isERC721": false,
                        "sign": true,
                        "value": "0.22506442"
                    }
                ]
            }
        ]
    },
    "profile": {
        "basic_info": {
            "baseFee": "",
            "blockNumber": 11518427,
            "callData": "0xa9059cbb000000000000000000000000f774e3cec31d0a7e8e8f02ba9041d862b13f45dd00000000000000000000000000000000000000000000000000b41f61a21cc000",
            "debugEnable": true,
            "errorInfo": "",
            "eventCount": 1,
            "feeRecipient": "0x829bd824b016326a401d083b33d092293333a830",
            "formatValue": "0",
            "gasLimit": 60000,
            "gasPrice": "32",
            "gasUsed": 51318,
            "intTxnCount": 0,
            "internalRevert": false,
            "internalRevertMessage": "",
            "isContractCreation": false,
            "isFlashloan": false,
            "maxFee": "",
            "nonce": 628,
            "overwritedBlockNumber": -1,
            "priorityFee": "",
            "receiver": "0xebf698ede71af52ab1acb12975472ba2e302e810",
            "revertMessage": "",
            "sender": "0x961e76eb5bed4dd495b9b93c6998482226272799",
            "simulationEnable": true,
            "sourceTxnHash": "0xe3c14dd935ae3234952260777b01967f5ff0923fa763cd62552d15eeb381efd8",
            "status": true,
            "timestamp": "2020-12-24T20:16:43Z",
            "transactionFee": "0.001642176",
            "txnHash": "0xe3c14dd935ae3234952260777b01967f5ff0923fa763cd62552d15eeb381efd8",
            "txnIndex": 40,
            "type": 0,
            "value": "0"
        },
        "fund_flow": [
            {
                "amount": "0.0507",
                "from": "0x961e76eb5bed4dd495b9b93c6998482226272799",
                "id": 1,
                "isERC1155": false,
                "isERC721": false,
                "isReverted": false,
                "order": 1,
                "to": "0xf774e3cec31d0a7e8e8f02ba9041d862b13f45dd",
                "token": "0xebf698ede71af52ab1acb12975472ba2e302e810"
            }
        ],
        "token_infos": [
            {
                "address": "0xc02aaa39b223fe8d0a0e5c4f27ead9083c756cc2",
                "decimals": 18
            },
            {
                "address": "0xebf698ede71af52ab1acb12975472ba2e302e810",
                "decimals": 18
            },
            {
                "address": "0xeeeeeeeeeeeeeeeeeeeeeeeeeeeeeeeeeeeeeeee",
                "decimals": 18
            }
        ]
    },
    "address_label": {
        "labels": [
            {
                "address": "0x0000000000000000000000000000000000000004",
                "label": "Precompiled"
            },
            {
                "address": "0xeeeeeeeeeeeeeeeeeeeeeeeeeeeeeeeeeeeeeeee",
                "label": "Ether"
            },
            {
                "address": "0xf774e3cec31d0a7e8e8f02ba9041d862b13f45dd",
                "label": "BINANCE"
            },
            {
                "address": "0xebf698ede71af52ab1acb12975472ba2e302e810",
                "label": "FerrariToken (Ferrari)"
            },
            {
                "address": "0x0000000000000000000000000000000000000001",
                "label": "Precompiled"
            },
            {
                "address": "0x0000000000000000000000000000000000000002",
                "label": "Precompiled"
            },
            {
                "address": "0x0000000000000000000000000000000000000003",
                "label": "Precompiled"
            }
        ]
    },
    "trace": {
        "accountLabels": null,
        "dataMap": {
            "-1": {
                "invocation": {
                    "address": "0x961e76eb5bed4dd495b9b93c6998482226272799",
                    "callData": "",
                    "decodedMethod": null,
                    "errorInfo": "",
                    "fromAddress": "",
                    "gasUsed": 0,
                    "id": -1,
                    "methodDecoded": false,
                    "operation": "",
                    "output": "",
                    "revert": false,
                    "revertMessage": "",
                    "selector": "",
                    "status": false,
                    "value": ""
                },
                "nodeType": 0
            },
            "0": {
                "invocation": {
                    "address": "0xebf698ede71af52ab1acb12975472ba2e302e810",
                    "callData": "0x000000000000000000000000f774e3cec31d0a7e8e8f02ba9041d862b13f45dd00000000000000000000000000000000000000000000000000b41f61a21cc000",
                    "decodedMethod": {
                        "callParams": [
                            {
                                "name": "recipient",
                                "type": "address",
                                "value": "0xf774e3cec31d0a7e8e8f02ba9041d862b13f45dd"
                            },
                            {
                                "decimalAvailable": true,
                                "name": "amount",
                                "type": "uint256",
                                "value": "50,700,000,000,000,000"
                            }
                        ],
                        "constructorArguments": "",
                        "name": "transfer",
                        "returnParams": [
                            {
                                "name": "",
                                "type": "bool",
                                "value": true
                            }
                        ],
                        "signature": "transfer(address,uint256)"
                    },
                    "errorInfo": "",
                    "fromAddress": "0x961e76eb5bed4dd495b9b93c6998482226272799",
                    "gasUsed": 51318,
                    "id": 0,
                    "methodDecoded": true,
                    "operation": "CALL",
                    "output": "0x0000000000000000000000000000000000000000000000000000000000000001",
                    "revert": false,
                    "revertMessage": "",
                    "selector": "0xa9059cbb",
                    "status": true,
                    "value": "0"
                },
                "nodeType": 0
            },
            "1": {
                "event": {
                    "contract": "0xebf698ede71af52ab1acb12975472ba2e302e810",
                    "decodedLog": {
                        "name": "Transfer",
                        "params": [
                            {
                                "name": "from",
                                "type": "address",
                                "value": "0x961e76eb5bed4dd495b9b93c6998482226272799"
                            },
                            {
                                "name": "to",
                                "type": "address",
                                "value": "0xf774e3cec31d0a7e8e8f02ba9041d862b13f45dd"
                            },
                            {
                                "decimalAvailable": true,
                                "name": "value",
                                "type": "uint256",
                                "value": "50,700,000,000,000,000"
                            }
                        ],
                        "signature": "Transfer(address,address,uint256)"
                    },
                    "id": 1,
                    "logData": "0x00000000000000000000000000000000000000000000000000b41f61a21cc000",
                    "logDecoded": true,
                    "operation": "EVENT",
                    "revert": false,
                    "status": true,
                    "topics": [
                        "0xddf252ad1be2c89b69c2b068fc378daa952ba7f163c4a11628f55a4df523b3ef",
                        "0x000000000000000000000000961e76eb5bed4dd495b9b93c6998482226272799",
                        "0x000000000000000000000000f774e3cec31d0a7e8e8f02ba9041d862b13f45dd"
                    ]
                },
                "nodeType": 1
            }
        },
        "gasFlame": [
            {
                "children": [
                    {
                        "children": [
                            {
                                "children": [],
                                "depth": 0,
                                "name": "Initial Gas",
                                "value": 21632
                            },
                            {
                                "children": [],
                                "depth": 0,
                                "name": "Executed Gas",
                                "value": 29686
                            }
                        ],
                        "depth": -1,
                        "name": "Actual Gas Used",
                        "value": 51318
                    },
                    {
                        "children": [],
                        "depth": -1,
                        "name": "Refunded Gas",
                        "value": 0
                    }
                ],
                "depth": -2,
                "name": "Total Gas",
                "value": 51318
            }
        ],
        "isConfirmed": true,
        "mainTrace": [
            {
                "children": [
                    {
                        "children": [
                            {
                                "children": [],
                                "depth": 1,
                                "id": 1,
                                "order": 1
                            }
                        ],
                        "depth": 0,
                        "id": 0,
                        "order": 0
                    }
                ],
                "depth": -1,
                "id": -1,
                "order": -1
            }
        ],
        "mainTraceNodeCount": 2,
        "parentIdMap": {
            "0": -1,
            "1": 0
        },
        "tidyTrace": [
            {
                "children": [
                    {
                        "children": [
                            {
                                "children": [],
                                "depth": 1,
                                "id": 1,
                                "order": 1
                            }
                        ],
                        "depth": 0,
                        "id": 0,
                        "order": 0
                    }
                ],
                "depth": -1,
                "id": -1,
                "order": -1
            }
        ],
        "tidyTraceNodeCount": 2
    },
    "state_change": {
        "stateChanges": [
            {
                "address": "0xebf698ede71af52ab1acb12975472ba2e302e810",
                "erc": "ERC-20",
                "slots": [
                    {
                        "current": "0x00000000000000000000000000000000000000000000000f5ca8cd0aeb3c5000",
                        "key": "0x8662fae9221fcafd65ca99540de9c341eb43e7a48a87f4686993b759c76e9ad2",
                        "prev": "0x00000000000000000000000000000000000000000000000f5d5cec6c8d591000"
                    },
                    {
                        "current": "0x00000000000000000000000000000000000000000000000000b41f61a21cc000",
                        "key": "0x855c46a7f022232af361ff5a19fba503bbe4e2d2cebb605b768be358309f5f10",
                        "prev": "0x0000000000000000000000000000000000000000000000000000000000000000"
                    }
                ],
                "storageVariables": [
                    {
                        "name": "_balances",
                        "type": "mapping(address => uint256)",
                        "value": {
                            "pairs": [
                                {
                                    "key": "0x961e76eb5bed4dd495b9b93c6998482226272799",
                                    "value": {
                                        "current": "283377973000000000000",
                                        "prev": "283428673000000000000",
                                        "typeTag": 1
                                    }
                                },
                                {
                                    "key": "0xf774e3cec31d0a7e8e8f02ba9041d862b13f45dd",
                                    "value": {
                                        "current": "50700000000000000",
                                        "prev": "0",
                                        "typeTag": 1
                                    }
                                }
                            ],
                            "typeTag": 4
                        }
                    }
                ]
            }
        ]
    }
}