{
    "balance_change": {
        "balanceChanges": [
            {
                "account": "0x21a31ee1afc51d94c2efccaa2092ad1028285549",
                "assets": [
                    {
                        "address": "0xdac17f958d2ee523a2206206994597c13d831ec7",
                        "amount": "49.112663",
                        "iconUrl": "https://assets.blocksec.com/icon/fcea71f3193ce895be44bfdf941f7e4c9381dd587f273c2d1a27f1263d84e4ea.png",
                        "isERC1155": false,
                        "isERC721": false,
                        "sign": false,
                        "value": "49.073372869599998874"
                    }
                ]
            },
            {
                "account": "0xcdcb93169bf42e11912c30f30e2ca916770b7bf5",
                "assets": [
                    {
                        "address": "0xdac17f958d2ee523a2206206994597c13d831ec7",
                        "amount": "49.112663",
                        "iconUrl": "https://assets.blocksec.com/icon/fcea71f3193ce895be44bfdf941f7e4c9381dd587f273c2d1a27f1263d84e4ea.png",
                        "isERC1155": false,
                        "isERC721": false,
                        "sign": true,
                        "value": "49.073372869599998874"
                    }
                ]
            }
        ]
    },
    "profile": {
        "basic_info": {
            "baseFee": "24.798257685",
            "blockNumber": 15747434,
            "callData": "0xa9059cbb000000000000000000000000cdcb93169bf42e11912c30f30e2ca916770b7bf50000000000000000000000000000000000000000000000000000000002ed6657",
            "debugEnable": true,
            "errorInfo": "",
            "eventCount": 1,
            "feeRecipient": "0xffee087852cb4898e6c3532e776e68bc68b1143b",
            "formatValue": "0",
            "gasLimit": 207128,
            "gasPrice": "26.798257685",
            "gasUsed": 46109,
            "intTxnCount": 0,
            "internalRevert": false,
            "internalRevertMessage": "",
            "isContractCreation": false,
            "isFlashloan": false,
            "maxFee": "102",
            "nonce": 4573289,
            "overwritedBlockNumber": -1,
            "priorityFee": "2",
            "receiver": "0xdac17f958d2ee523a2206206994597c13d831ec7",
            "revertMessage": "",
            "sender": "0x21a31ee1afc51d94c2efccaa2092ad1028285549",
            "simulationEnable": true,
            "sourceTxnHash": "0xe3a3c9f641878e33b91efe48e47ed4ea2da516effc61346227ab91efceb22bca",
            "status": true,
            "timestamp": "2022-10-14T16:06:35Z",
            "transactionFee": "0.001235640863597665",
            "txnHash": "0xe3a3c9f641878e33b91efe48e47ed4ea2da516effc61346227ab91efceb22bca",
            "txnIndex": 83,
            "type": 2,
            "value": "0"
        },
        "fund_flow": [
            {
                "amount": "49.112663",
                "from": "0x21a31ee1afc51d94c2efccaa2092ad1028285549",
                "id": 1,
                "isERC1155": false,
                "isERC721": false,
                "isReverted": false,
                "order": 1,
                "to": "0xcdcb93169bf42e11912c30f30e2ca916770b7bf5",
                "token": "0xdac17f958d2ee523a2206206994597c13d831ec7"
            }
        ],
        "token_infos": [
            {
                "address": "0xc02aaa39b223fe8d0a0e5c4f27ead9083c756cc2",
                "decimals": 18
            },
            {
                "address": "0xdac17f958d2ee523a2206206994597c13d831ec7",
                "decimals": 6
            },
            {
                "address": "0xeeeeeeeeeeeeeeeeeeeeeeeeeeeeeeeeeeeeeeee",
                "decimals": 18
            }
        ]
    },
    "address_label": {
        "labels": [
            {
                "address": "0x21a31ee1afc51d94c2efccaa2092ad1028285549",
                "label": "Binance 15"
            },
            {
                "address": "0xffee087852cb4898e6c3532e776e68bc68b1143b",
                "label": "ERC1967ProxyWithReceive"
            },
            {
                "address": "0x0000000000000000000000000000000000000001",
                "label": "Precompiled"
            },
            {
                "address": "0x0000000000000000000000000000000000000002",
                "label": "Precompiled"
            },
            {
                "address": "0x0000000000000000000000000000000000000003",
                "label": "Precompiled"
            },
            {
                "address": "0x0000000000000000000000000000000000000004",
                "label": "Precompiled"
            },
            {
                "address": "0xeeeeeeeeeeeeeeeeeeeeeeeeeeeeeeeeeeeeeeee",
                "label": "Ether"
            },
            {
                "address": "0xdac17f958d2ee523a2206206994597c13d831ec7",
                "label": "Tether: USDT Stablecoin"
            }
        ]
    },
    "trace": {
        "accountLabels": null,
        "dataMap": {
            "-1": {
                "invocation": {
                    "address": "0x21a31ee1afc51d94c2efccaa2092ad1028285549",
                    "callData": "",
                    "decodedMethod": null,
                    "errorInfo": "",
                    "fromAddress": "",
                    "gasUsed": 0,
                    "id": -1,
                    "methodDecoded": false,
                    "operation": "",
                    "output": "",
                    "revert": false,
                    "revertMessage": "",
                    "selector": "",
                    "status": false,
                    "value": ""
                },
                "nodeType": 0
            },
            "0": {
                "invocation": {
                    "address": "0xdac17f958d2ee523a2206206994597c13d831ec7",
                    "callData": "0x000000000000000000000000cdcb93169bf42e11912c30f30e2ca916770b7bf50000000000000000000000000000000000000000000000000000000002ed6657",
                    "decodedMethod": {
                        "callParams": [
                            {
                                "name": "_to",
                                "type": "address",
                                "value": "0xcdcb93169bf42e11912c30f30e2ca916770b7bf5"
                            },
                            {
                                "decimalAvailable": true,
                                "name": "_value",
                                "type": "uint256",
                                "value": "49,112,663"
                            }
                        ],
                        "constructorArguments": "",
                        "name": "transfer",
                        "returnParams": [],
                        "signature": "transfer(address,uint256)"
                    },
                    "errorInfo": "",
                    "fromAddress": "0x21a31ee1afc51d94c2efccaa2092ad1028285549",
                    "gasUsed": 46109,
                    "id": 0,
                    "methodDecoded": true,
                    "operation": "CALL",
                    "output": "",
                    "revert": false,
                    "revertMessage": "",
                    "selector": "0xa9059cbb",
                    "status": true,
                    "value": "0"
                },
                "nodeType": 0
            },
            "1": {
                "event": {
                    "contract": "0xdac17f958d2ee523a2206206994597c13d831ec7",
                    "decodedLog": {
                        "name": "Transfer",
                        "params": [
                            {
                                "name": "from",
                                "type": "address",
                                "value": "0x21a31ee1afc51d94c2efccaa2092ad1028285549"
                            },
                            {
                                "name": "to",
                                "type": "address",
                                "value": "0xcdcb93169bf42e11912c30f30e2ca916770b7bf5"
                            },
                            {
                                "decimalAvailable": true,
                                "name": "value",
                                "type": "uint256",
                                "value": "49,112,663"
                            }
                        ],
                        "signature": "Transfer(address,address,uint256)"
                    },
                    "id": 1,
                    "logData": "0x0000000000000000000000000000000000000000000000000000000002ed6657",
                    "logDecoded": true,
                    "operation": "EVENT",
                    "revert": false,
                    "status": true,
                    "topics": [
                        "0xddf252ad1be2c89b69c2b068fc378daa952ba7f163c4a11628f55a4df523b3ef",
                        "0x00000000000000000000000021a31ee1afc51d94c2efccaa2092ad1028285549",
                        "0x000000000000000000000000cdcb93169bf42e11912c30f30e2ca916770b7bf5"
                    ]
                },
                "nodeType": 1
            }
        },
        "gasFlame": [
            {
                "children": [
                    {
                        "children": [
                            {
                                "children": [],
                                "depth": 0,
                                "name": "Initial Gas",
                                "value": 21608
                            },
                            {
                                "children": [],
                                "depth": 0,
                                "name": "Executed Gas",
                                "value": 24501
                            }
                        ],
                        "depth": -1,
                        "name": "Actual Gas Used",
                        "value": 46109
                    },
                    {
                        "children": [],
                        "depth": -1,
                        "name": "Refunded Gas",
                        "value": 0
                    }
                ],
                "depth": -2,
                "name": "Total Gas",
                "value": 46109
            }
        ],
        "isConfirmed": true,
        "mainTrace": [
            {
                "children": [
                    {
                        "children": [
                            {
                                "children": [],
                                "depth": 1,
                                "id": 1,
                                "order": 1
                            }
                        ],
                        "depth": 0,
                        "id": 0,
                        "order": 0
                    }
                ],
                "depth": -1,
                "id": -1,
                "order": -1
            }
        ],
        "mainTraceNodeCount": 2,
        "parentIdMap": {
            "0": -1,
            "1": 0
        },
        "tidyTrace": [
            {
                "children": [
                    {
                        "children": [
                            {
                                "children": [],
                                "depth": 1,
                                "id": 1,
                                "order": 1
                            }
                        ],
                        "depth": 0,
                        "id": 0,
                        "order": 0
                    }
                ],
                "depth": -1,
                "id": -1,
                "order": -1
            }
        ],
        "tidyTraceNodeCount": 2
    },
    "state_change": {
        "stateChanges": [
            {
                "address": "0xdac17f958d2ee523a2206206994597c13d831ec7",
                "erc": "ERC-20",
                "slots": [
                    {
                        "current": "0x00000000000000000000000000000000000000000000000000004328a40b696f",
                        "key": "0xdf70affd7af96966d2670c0f3ed33a9da6b177986dc23d985c9fbdd265f954a7",
                        "prev": "0x00000000000000000000000000000000000000000000000000004328a6f8cfc6"
                    },
                    {
                        "current": "0x0000000000000000000000000000000000000000000000000000000018a1e4fe",
                        "key": "0xe78363cb7c28905df24cd90261a5e562e597b709da2a8ae7d7f4387babc0b666",
                        "prev": "0x0000000000000000000000000000000000000000000000000000000015b47ea7"
                    }
                ],
                "storageVariables": [
                    {
                        "name": "balances",
                        "type": "mapping(address => uint256)",
                        "value": {
                            "pairs": [
                                {
                                    "key": "0x21a31ee1afc51d94c2efccaa2092ad1028285549",
                                    "value": {
                                        "current": "73841829964143",
                                        "prev": "73841879076806",
                                        "typeTag": 1
                                    }
                                },
                                {
                                    "key": "0xcdcb93169bf42e11912c30f30e2ca916770b7bf5",
                                    "value": {
                                        "current": "413263102",
                                        "prev": "364150439",
                                        "typeTag": 1
                                    }
                                }
                            ],
                            "typeTag": 4
                        }
                    }
                ]
            }
        ]
    }
}