{
    "balance_change": {
        "balanceChanges": [
            {
                "account": "0xcb2226bf14d17e3ae735c4169f098debfa756bca",
                "assets": [
                    {
                        "address": "0x3c4b6e6e1ea3d4863700d7f76b36b7f3d3f13e3d",
                        "amount": "52.6",
                        "iconUrl": "",
                        "isERC1155": false,
                        "isERC721": false,
                        "sign": false,
                        "value": "131.0793875"
                    }
                ]
            },
            {
                "account": "0xeb2629a2734e272bcc07bda959863f316f4bd4cf",
                "assets": [
                    {
                        "address": "0x3c4b6e6e1ea3d4863700d7f76b36b7f3d3f13e3d",
                        "amount": "52.6",
                        "iconUrl": "",
                        "isERC1155": false,
                        "isERC721": false,
                        "sign": true,
                        "value": "131.0793875"
                    }
                ]
            }
        ]
    },
    "profile": {
        "basic_info": {
            "baseFee": "152.618166783",
            "blockNumber": 13998960,
            "callData": "0xa9059cbb000000000000000000000000eb2629a2734e272bcc07bda959863f316f4bd4cf0000000000000000000000000000000000000000000000000000000139853b00",
            "debugEnable": true,
            "errorInfo": "",
            "eventCount": 1,
            "feeRecipient": "0xea674fdde714fd979de3edf0f56aa9716b898ec8",
            "formatValue": "0",
            "gasLimit": 250000,
            "gasPrice": "154.618166783",
            "gasUsed": 29915,
            "intTxnCount": 0,
            "internalRevert": false,
            "internalRevertMessage": "",
            "isContractCreation": false,
            "isFlashloan": false,
            "maxFee": "316",
            "nonce": 0,
            "overwritedBlockNumber": -1,
            "priorityFee": "2",
            "receiver": "0x3c4b6e6e1ea3d4863700d7f76b36b7f3d3f13e3d",
            "revertMessage": "",
            "sender": "0xcb2226bf14d17e3ae735c4169f098debfa756bca",
            "simulationEnable": true,
            "sourceTxnHash": "0xe3c62d2ab0afad9c4b8fa97a155249698dcf25f0e506fe2efe2c0c3dc4371b92",
            "status": true,
            "timestamp": "2022-01-13T19:07:57Z",
            "transactionFee": "0.004625402459313445",
            "txnHash": "0xe3c62d2ab0afad9c4b8fa97a155249698dcf25f0e506fe2efe2c0c3dc4371b92",
            "txnIndex": 78,
            "type": 2,
            "value": "0"
        },
        "fund_flow": [
            {
                "amount": "52.6",
                "from": "0xcb2226bf14d17e3ae735c4169f098debfa756bca",
                "id": 1,
                "isERC1155": false,
                "isERC721": false,
                "isReverted": false,
                "order": 1,
                "to": "0xeb2629a2734e272bcc07bda959863f316f4bd4cf",
                "token": "0x3c4b6e6e1ea3d4863700d7f76b36b7f3d3f13e3d"
            }
        ],
        "token_infos": [
            {
                "address": "0xc02aaa39b223fe8d0a0e5c4f27ead9083c756cc2",
                "decimals": 18
            },
            {
                "address": "0xeeeeeeeeeeeeeeeeeeeeeeeeeeeeeeeeeeeeeeee",
                "decimals": 18
            },
            {
                "address": "0x3c4b6e6e1ea3d4863700d7f76b36b7f3d3f13e3d",
                "decimals": 8
            }
        ]
    },
    "address_label": {
        "labels": [
            {
                "address": "0x3c4b6e6e1ea3d4863700d7f76b36b7f3d3f13e3d",
                "label": "Voyager: VGX Token"
            },
            {
                "address": "0xcb2226bf14d17e3ae735c4169f098debfa756bca",
                "label": "COINBASE"
            },
            {
                "address": "0x0000000000000000000000000000000000000001",
                "label": "Precompiled"
            },
            {
                "address": "0x0000000000000000000000000000000000000002",
                "label": "Precompiled"
            },
            {
                "address": "0x0000000000000000000000000000000000000003",
                "label": "Precompiled"
            },
            {
                "address": "0x0000000000000000000000000000000000000004",
                "label": "Precompiled"
            },
            {
                "address": "0xeeeeeeeeeeeeeeeeeeeeeeeeeeeeeeeeeeeeeeee",
                "label": "Ether"
            },
            {
                "address": "0xeb2629a2734e272bcc07bda959863f316f4bd4cf",
                "label": "Coinbase 6"
            }
        ]
    },
    "trace": {
        "accountLabels": null,
        "dataMap": {
            "-1": {
                "invocation": {
                    "address": "0xcb2226bf14d17e3ae735c4169f098debfa756bca",
                    "callData": "",
                    "decodedMethod": null,
                    "errorInfo": "",
                    "fromAddress": "",
                    "gasUsed": 0,
                    "id": -1,
                    "methodDecoded": false,
                    "operation": "",
                    "output": "",
                    "revert": false,
                    "revertMessage": "",
                    "selector": "",
                    "status": false,
                    "value": ""
                },
                "nodeType": 0
            },
            "0": {
                "invocation": {
                    "address": "0x3c4b6e6e1ea3d4863700d7f76b36b7f3d3f13e3d",
                    "callData": "0x000000000000000000000000eb2629a2734e272bcc07bda959863f316f4bd4cf0000000000000000000000000000000000000000000000000000000139853b00",
                    "decodedMethod": {
                        "callParams": [
                            {
                                "name": "recipient",
                                "type": "address",
                                "value": "0xeb2629a2734e272bcc07bda959863f316f4bd4cf"
                            },
                            {
                                "decimalAvailable": true,
                                "name": "amount",
                                "type": "uint256",
                                "value": "5,260,000,000"
                            }
                        ],
                        "constructorArguments": "",
                        "name": "transfer",
                        "returnParams": [
                            {
                                "name": "",
                                "type": "bool",
                                "value": true
                            }
                        ],
                        "signature": "transfer(address,uint256)"
                    },
                    "errorInfo": "",
                    "fromAddress": "0xcb2226bf14d17e3ae735c4169f098debfa756bca",
                    "gasUsed": 29915,
                    "id": 0,
                    "methodDecoded": true,
                    "operation": "CALL",
                    "output": "0x0000000000000000000000000000000000000000000000000000000000000001",
                    "revert": false,
                    "revertMessage": "",
                    "selector": "0xa9059cbb",
                    "status": true,
                    "value": "0"
                },
                "nodeType": 0
            },
            "1": {
                "event": {
                    "contract": "0x3c4b6e6e1ea3d4863700d7f76b36b7f3d3f13e3d",
                    "decodedLog": {
                        "name": "Transfer",
                        "params": [
                            {
                                "name": "from",
                                "type": "address",
                                "value": "0xcb2226bf14d17e3ae735c4169f098debfa756bca"
                            },
                            {
                                "name": "to",
                                "type": "address",
                                "value": "0xeb2629a2734e272bcc07bda959863f316f4bd4cf"
                            },
                            {
                                "decimalAvailable": true,
                                "name": "value",
                                "type": "uint256",
                                "value": "5,260,000,000"
                            }
                        ],
                        "signature": "Transfer(address,address,uint256)"
                    },
                    "id": 1,
                    "logData": "0x0000000000000000000000000000000000000000000000000000000139853b00",
                    "logDecoded": true,
                    "operation": "EVENT",
                    "revert": false,
                    "status": true,
                    "topics": [
                        "0xddf252ad1be2c89b69c2b068fc378daa952ba7f163c4a11628f55a4df523b3ef",
                        "0x000000000000000000000000cb2226bf14d17e3ae735c4169f098debfa756bca",
                        "0x000000000000000000000000eb2629a2734e272bcc07bda959863f316f4bd4cf"
                    ]
                },
                "nodeType": 1
            }
        },
        "gasFlame": [
            {
                "children": [
                    {
                        "children": [
                            {
                                "children": [],
                                "depth": 0,
                                "name": "Initial Gas",
                                "value": 21608
                            },
                            {
                                "children": [],
                                "depth": 0,
                                "name": "Executed Gas",
                                "value": 13107
                            }
                        ],
                        "depth": -1,
                        "name": "Actual Gas Used",
                        "value": 29915
                    },
                    {
                        "children": [],
                        "depth": -1,
                        "name": "Refunded Gas",
                        "value": 4800
                    }
                ],
                "depth": -2,
                "name": "Total Gas",
                "value": 34715
            }
        ],
        "isConfirmed": true,
        "mainTrace": [
            {
                "children": [
                    {
                        "children": [
                            {
                                "children": [],
                                "depth": 1,
                                "id": 1,
                                "order": 1
                            }
                        ],
                        "depth": 0,
                        "id": 0,
                        "order": 0
                    }
                ],
                "depth": -1,
                "id": -1,
                "order": -1
            }
        ],
        "mainTraceNodeCount": 2,
        "parentIdMap": {
            "0": -1,
            "1": 0
        },
        "tidyTrace": [
            {
                "children": [
                    {
                        "children": [
                            {
                                "children": [],
                                "depth": 1,
                                "id": 1,
                                "order": 1
                            }
                        ],
                        "depth": 0,
                        "id": 0,
                        "order": 0
                    }
                ],
                "depth": -1,
                "id": -1,
                "order": -1
            }
        ],
        "tidyTraceNodeCount": 2
    },
    "state_change": {
        "stateChanges": [
            {
                "address": "0x3c4b6e6e1ea3d4863700d7f76b36b7f3d3f13e3d",
                "erc": "ERC-20",
                "slots": [
                    {
                        "current": "0x0000000000000000000000000000000000000000000000000000000000000000",
                        "key": "0xd2b55ac005d92bbdb3af751ee66d3974b5f4a55e57649d8182d8e73be59cc51a",
                        "prev": "0x0000000000000000000000000000000000000000000000000000000139853b00"
                    },
                    {
                        "current": "0x000000000000000000000000000000000000000000000000000012965211710e",
                        "key": "0x0d4dfe2c8e99982743bdae77267e3e6708242f24026ca5ed0fb9f0ee17fdc69d",
                        "prev": "0x00000000000000000000000000000000000000000000000000001295188c360e"
                    }
                ],
                "storageVariables": [
                    {
                        "name": "_balances",
                        "type": "mapping(address => uint256)",
                        "value": {
                            "pairs": [
                                {
                                    "key": "0xcb2226bf14d17e3ae735c4169f098debfa756bca",
                                    "value": {
                                        "current": "0",
                                        "prev": "5260000000",
                                        "typeTag": 1
                                    }
                                },
                                {
                                    "key": "0xeb2629a2734e272bcc07bda959863f316f4bd4cf",
                                    "value": {
                                        "current": "20436831269134",
                                        "prev": "20431571269134",
                                        "typeTag": 1
                                    }
                                }
                            ],
                            "typeTag": 4
                        }
                    }
                ]
            }
        ]
    }
}