{
    "balance_change": {
        "balanceChanges": []
    },
    "profile": {
        "basic_info": {
            "baseFee": "",
            "blockNumber": 10708265,
            "callData": "0xef3435880000000000000000000000000000000000000000000000000429d069189e0000000000000000000000000000000000000000000000000032d2f67b4586653bd000000000000000000000000000000000000000000000000000000000000027100000000000000000000000000000000000000000000000000000017414b54ecc0000000000000000000000000000000000000000000000000429d069189e0000000000000000000000000000000000000000000000000000000000000000002100000000000000000000000000000000000000000000000000038d7ea4c6800000000000000000000000000000000000000000000000000000e69234c5ec40000000000000000000000000000000000000000000000000000000000000000000000000000000000000000000b705268213d593b8fd88d3fdeff93aff5cbdcfae0000000000000000000000002d56f1303339d4d779be5882088cbbfd5b270a37000000000000000000000000136021d786490b0e3178ed863ff569c6d0daa4af000000000000000000000000000000000000000000000000000000000000001b000000000000000000000000000000000000000000000000000000000000001cdddb8587a668f3e0a506661a8af80cf5df84054635e31212136d722568576b764280b9e9b864314ee273f5dcf81486231b5292b52d6cc2410aed9394f257c33a1285d43ed1617834a0bad7a4b36ad4d6e91ec9c54331aeede678d443cea458f6094773b0038369c60ede573d0066df3ed609ac6abd6ade1b408c4c897c171892",
            "debugEnable": true,
            "errorInfo": "",
            "eventCount": 0,
            "feeRecipient": "0x5a0b54d5dc17e0aadc383d2db43b0a0d3e029c4c",
            "formatValue": "0",
            "gasLimit": 400000,
            "gasPrice": "101",
            "gasUsed": 141824,
            "intTxnCount": 2,
            "internalRevert": false,
            "internalRevertMessage": "",
            "isContractCreation": false,
            "isFlashloan": false,
            "maxFee": "",
            "nonce": 5737885,
            "overwritedBlockNumber": -1,
            "priorityFee": "",
            "receiver": "0x2a0c0dbecc7e4d658f48e01e3fa353f44050c208",
            "revertMessage": "",
            "sender": "0xa7a7899d944fe658c4b0a1803bab2f490bd3849e",
            "simulationEnable": true,
            "sourceTxnHash": "0xe394ee1c2e10f5a979d45e9f27ed3a375fb9533ee5f3c100338e0b7fd44f900c",
            "status": true,
            "timestamp": "2020-08-22T05:47:47Z",
            "transactionFee": "0.014324224",
            "txnHash": "0xe394ee1c2e10f5a979d45e9f27ed3a375fb9533ee5f3c100338e0b7fd44f900c",
            "txnIndex": 99,
            "type": 0,
            "value": "0"
        },
        "fund_flow": [],
        "token_infos": [
            {
                "address": "0xc02aaa39b223fe8d0a0e5c4f27ead9083c756cc2",
                "decimals": 18
            },
            {
                "address": "0xeeeeeeeeeeeeeeeeeeeeeeeeeeeeeeeeeeeeeeee",
                "decimals": 18
            }
        ]
    },
    "address_label": {
        "labels": [
            {
                "address": "0x0000000000000000000000000000000000000002",
                "label": "Precompiled"
            },
            {
                "address": "0x0000000000000000000000000000000000000003",
                "label": "Precompiled"
            },
            {
                "address": "0x0000000000000000000000000000000000000004",
                "label": "Precompiled"
            },
            {
                "address": "0xeeeeeeeeeeeeeeeeeeeeeeeeeeeeeeeeeeeeeeee",
                "label": "Ether"
            },
            {
                "address": "0x0000000000000000000000000000000000000000",
                "label": "Null Address"
            },
            {
                "address": "0x2a0c0dbecc7e4d658f48e01e3fa353f44050c208",
                "label": "IDEX"
            },
            {
                "address": "0xa7a7899d944fe658c4b0a1803bab2f490bd3849e",
                "label": "IDEX 2"
            },
            {
                "address": "0xb705268213d593b8fd88d3fdeff93aff5cbdcfae",
                "label": "IDEX Token"
            },
            {
                "address": "0x0000000000000000000000000000000000000001",
                "label": "Precompiled"
            }
        ]
    },
    "trace": {
        "accountLabels": null,
        "dataMap": {
            "-1": {
                "invocation": {
                    "address": "0xa7a7899d944fe658c4b0a1803bab2f490bd3849e",
                    "callData": "",
                    "decodedMethod": null,
                    "errorInfo": "",
                    "fromAddress": "",
                    "gasUsed": 0,
                    "id": -1,
                    "methodDecoded": false,
                    "operation": "",
                    "output": "",
                    "revert": false,
                    "revertMessage": "",
                    "selector": "",
                    "status": false,
                    "value": ""
                },
                "nodeType": 0
            },
            "0": {
                "invocation": {
                    "address": "0x2a0c0dbecc7e4d658f48e01e3fa353f44050c208",
                    "callData": "0x0000000000000000000000000000000000000000000000000429d069189e0000000000000000000000000000000000000000000000000032d2f67b4586653bd000000000000000000000000000000000000000000000000000000000000027100000000000000000000000000000000000000000000000000000017414b54ecc0000000000000000000000000000000000000000000000000429d069189e0000000000000000000000000000000000000000000000000000000000000000002100000000000000000000000000000000000000000000000000038d7ea4c6800000000000000000000000000000000000000000000000000000e69234c5ec40000000000000000000000000000000000000000000000000000000000000000000000000000000000000000000b705268213d593b8fd88d3fdeff93aff5cbdcfae0000000000000000000000002d56f1303339d4d779be5882088cbbfd5b270a37000000000000000000000000136021d786490b0e3178ed863ff569c6d0daa4af000000000000000000000000000000000000000000000000000000000000001b000000000000000000000000000000000000000000000000000000000000001cdddb8587a668f3e0a506661a8af80cf5df84054635e31212136d722568576b764280b9e9b864314ee273f5dcf81486231b5292b52d6cc2410aed9394f257c33a1285d43ed1617834a0bad7a4b36ad4d6e91ec9c54331aeede678d443cea458f6094773b0038369c60ede573d0066df3ed609ac6abd6ade1b408c4c897c171892",
                    "decodedMethod": {
                        "callParams": [
                            {
                                "name": "tradeValues",
                                "type": "uint256[8]",
                                "value": [
                                    "300,000,000,000,000,000",
                                    "937,538,676,816,251,010,000",
                                    "10,000",
                                    "1,598,075,260,620",
                                    "300,000,000,000,000,000",
                                    "33",
                                    "1,000,000,000,000,000",
                                    "64,900,000,000,000,000"
                                ]
                            },
                            {
                                "name": "tradeAddresses",
                                "type": "address[4]",
                                "value": [
                                    "0x0000000000000000000000000000000000000000",
                                    "0xb705268213d593b8fd88d3fdeff93aff5cbdcfae",
                                    "0x2d56f1303339d4d779be5882088cbbfd5b270a37",
                                    "0x136021d786490b0e3178ed863ff569c6d0daa4af"
                                ]
                            },
                            {
                                "name": "v",
                                "type": "uint8[2]",
                                "value": [
                                    "27",
                                    "28"
                                ]
                            },
                            {
                                "name": "rs",
                                "type": "bytes32[4]",
                                "value": [
                                    "0xdddb8587a668f3e0a506661a8af80cf5df84054635e31212136d722568576b76",
                                    "0x4280b9e9b864314ee273f5dcf81486231b5292b52d6cc2410aed9394f257c33a",
                                    "0x1285d43ed1617834a0bad7a4b36ad4d6e91ec9c54331aeede678d443cea458f6",
                                    "0x094773b0038369c60ede573d0066df3ed609ac6abd6ade1b408c4c897c171892"
                                ]
                            }
                        ],
                        "constructorArguments": "",
                        "name": "trade",
                        "returnParams": [
                            {
                                "name": "success",
                                "type": "bool",
                                "value": false
                            }
                        ],
                        "signature": "trade(uint256[8],address[4],uint8[2],bytes32[4])"
                    },
                    "errorInfo": "",
                    "fromAddress": "0xa7a7899d944fe658c4b0a1803bab2f490bd3849e",
                    "gasUsed": 141824,
                    "id": 0,
                    "methodDecoded": true,
                    "operation": "CALL",
                    "output": "0x0000000000000000000000000000000000000000000000000000000000000000",
                    "revert": false,
                    "revertMessage": "",
                    "selector": "0xef343588",
                    "status": true,
                    "value": "0"
                },
                "nodeType": 0
            },
            "1": {
                "invocation": {
                    "address": "0x0000000000000000000000000000000000000001",
                    "callData": "0x8dbcec70f175db3190dec21c452efae9eba11f84d164e6a0230c4f8d000000000000000000000000000000000000000000000000000000000000001bdddb8587a668f3e0a506661a8af80cf5df84054635e31212136d722568576b764280b9e9b864314ee273f5dcf81486231b5292b52d6cc2410aed9394f257c33a",
                    "decodedMethod": {
                        "callParams": [
                            {
                                "name": "hash",
                                "type": "bytes32",
                                "value": "0x4419e65c8dbcec70f175db3190dec21c452efae9eba11f84d164e6a0230c4f8d"
                            },
                            {
                                "name": "v",
                                "type": "uint256",
                                "value": "27"
                            },
                            {
                                "name": "r",
                                "type": "bytes32",
                                "value": "0xdddb8587a668f3e0a506661a8af80cf5df84054635e31212136d722568576b76"
                            },
                            {
                                "name": "s",
                                "type": "bytes32",
                                "value": "0x4280b9e9b864314ee273f5dcf81486231b5292b52d6cc2410aed9394f257c33a"
                            }
                        ],
                        "constructorArguments": "",
                        "name": "ecrecover",
                        "returnParams": [
                            {
                                "name": "",
                                "type": "address",
                                "value": "0x2d56f1303339d4d779be5882088cbbfd5b270a37"
                            }
                        ],
                        "signature": "ecrecover(bytes32,uint256,bytes32,bytes32)"
                    },
                    "errorInfo": "",
                    "fromAddress": "0x2a0c0dbecc7e4d658f48e01e3fa353f44050c208",
                    "gasUsed": 3000,
                    "id": 1,
                    "methodDecoded": true,
                    "operation": "CALL",
                    "output": "0x0000000000000000000000002d56f1303339d4d779be5882088cbbfd5b270a37",
                    "revert": false,
                    "revertMessage": "",
                    "selector": "0x4419e65c",
                    "status": true,
                    "value": "0"
                },
                "nodeType": 0
            },
            "2": {
                "invocation": {
                    "address": "0x0000000000000000000000000000000000000001",
                    "callData": "0xf94798e6d8142ccf23cb96248437ca31e5a11949904234fc9edd51e0000000000000000000000000000000000000000000000000000000000000001c1285d43ed1617834a0bad7a4b36ad4d6e91ec9c54331aeede678d443cea458f6094773b0038369c60ede573d0066df3ed609ac6abd6ade1b408c4c897c171892",
                    "decodedMethod": {
                        "callParams": [
                            {
                                "name": "hash",
                                "type": "bytes32",
                                "value": "0x6bc47242f94798e6d8142ccf23cb96248437ca31e5a11949904234fc9edd51e0"
                            },
                            {
                                "name": "v",
                                "type": "uint256",
                                "value": "28"
                            },
                            {
                                "name": "r",
                                "type": "bytes32",
                                "value": "0x1285d43ed1617834a0bad7a4b36ad4d6e91ec9c54331aeede678d443cea458f6"
                            },
                            {
                                "name": "s",
                                "type": "bytes32",
                                "value": "0x094773b0038369c60ede573d0066df3ed609ac6abd6ade1b408c4c897c171892"
                            }
                        ],
                        "constructorArguments": "",
                        "name": "ecrecover",
                        "returnParams": [
                            {
                                "name": "",
                                "type": "address",
                                "value": "0x136021d786490b0e3178ed863ff569c6d0daa4af"
                            }
                        ],
                        "signature": "ecrecover(bytes32,uint256,bytes32,bytes32)"
                    },
                    "errorInfo": "",
                    "fromAddress": "0x2a0c0dbecc7e4d658f48e01e3fa353f44050c208",
                    "gasUsed": 3000,
                    "id": 2,
                    "methodDecoded": true,
                    "operation": "CALL",
                    "output": "0x000000000000000000000000136021d786490b0e3178ed863ff569c6d0daa4af",
                    "revert": false,
                    "revertMessage": "",
                    "selector": "0x6bc47242",
                    "status": true,
                    "value": "0"
                },
                "nodeType": 0
            }
        },
        "gasFlame": [
            {
                "children": [
                    {
                        "children": [
                            {
                                "children": [],
                                "depth": 0,
                                "name": "Initial Gas",
                                "value": 26140
                            },
                            {
                                "children": [
                                    {
                                        "children": [],
                                        "depth": 1,
                                        "name": "ecrecover",
                                        "value": 3000
                                    },
                                    {
                                        "children": [],
                                        "depth": 1,
                                        "name": "ecrecover",
                                        "value": 3000
                                    }
                                ],
                                "depth": 0,
                                "name": "Executed Gas",
                                "value": 115684
                            }
                        ],
                        "depth": -1,
                        "name": "Actual Gas Used",
                        "value": 141824
                    },
                    {
                        "children": [],
                        "depth": -1,
                        "name": "Refunded Gas",
                        "value": 0
                    }
                ],
                "depth": -2,
                "name": "Total Gas",
                "value": 141824
            }
        ],
        "isConfirmed": true,
        "mainTrace": [
            {
                "children": [
                    {
                        "children": [
                            {
                                "children": [],
                                "depth": 1,
                                "id": 1,
                                "order": 1
                            },
                            {
                                "children": [],
                                "depth": 1,
                                "id": 2,
                                "order": 2
                            }
                        ],
                        "depth": 0,
                        "id": 0,
                        "order": 0
                    }
                ],
                "depth": -1,
                "id": -1,
                "order": -1
            }
        ],
        "mainTraceNodeCount": 3,
        "parentIdMap": {
            "0": -1,
            "1": 0,
            "2": 0
        },
        "tidyTrace": [
            {
                "children": [
                    {
                        "children": [
                            {
                                "children": [],
                                "depth": 1,
                                "id": 1,
                                "order": 1
                            },
                            {
                                "children": [],
                                "depth": 1,
                                "id": 2,
                                "order": 2
                            }
                        ],
                        "depth": 0,
                        "id": 0,
                        "order": 0
                    }
                ],
                "depth": -1,
                "id": -1,
                "order": -1
            }
        ],
        "tidyTraceNodeCount": 3
    },
    "state_change": {
        "stateChanges": [
            {
                "address": "0x2a0c0dbecc7e4d658f48e01e3fa353f44050c208",
                "erc": "",
                "slots": [
                    {
                        "current": "0x00000000000000000000000000000000000000000000476be1638eab4356710b",
                        "key": "0xc3ebff5477595ad4a6426a479f976724488720c3875b76a47a121807d216d130",
                        "prev": "0x00000000000000000000000000000000000000000000476894fa3776575d3c16"
                    },
                    {
                        "current": "0x0000000000000000000000000000000000000000000000000429d069189e0000",
                        "key": "0x9925aecd6979676073ba0fbc0c0db67a44759df8c24e21deae775ef6d08d2ffb",
                        "prev": "0x0000000000000000000000000000000000000000000000000000000000000000"
                    },
                    {
                        "current": "0x0000000000000000000000000000000000000000000000000000000000000001",
                        "key": "0xaaeeb515f4699bd1303f9af946f5d54ee001bd539c2dc394c3d2a109bd8da756",
                        "prev": "0x0000000000000000000000000000000000000000000000000000000000000000"
                    },
                    {
                        "current": "0x0000000000000000000000000000000000000000000000010f1d6d4c52b33db2",
                        "key": "0x3ccb72d91c5c66cba135a4135963ed23443b8a63817f501517468fcd5097e277",
                        "prev": "0x0000000000000000000000000000000000000000000000010f1c5c7321447db2"
                    },
                    {
                        "current": "0x0000000000000000000000000000000000000000000000004230403ebf0a4b7a",
                        "key": "0xf9862b821014c44e74b62370ed6571fbdfe6d718305dd744d08ae81601da4214",
                        "prev": "0x0000000000000000000000000000000000000000000000003e0780aed7db0b7a"
                    },
                    {
                        "current": "0x00000000000000000000000000000000000000000000000a82a0cb26481abccf",
                        "key": "0xc7987c2f456d352dce8526f26f86de026a71a1d3f8597ecab709ecef42af5e8a",
                        "prev": "0x00000000000000000000000000000000000000000000003d5597466bce7ff89f"
                    },
                    {
                        "current": "0x000000000000000000000000000000000000000000001010498f2c6953c01ad8",
                        "key": "0x5efc3a4a40a600aaf3b708f46a27bda993e0645872f94c80523aabcc6ead2a7c",
                        "prev": "0x000000000000000000000000000000000000000000000fe0c3020858b95413fd"
                    },
                    {
                        "current": "0x0000000000000000000000000000000000000000000000000000000000a36529",
                        "key": "0xb95d9c6459a0d3a3034d43641459df5489844678eb602eb49e099d7ec9a8088e",
                        "prev": "0x0000000000000000000000000000000000000000000000000000000000a36528"
                    },
                    {
                        "current": "0x0000000000000000000000000000000000000000000000000000000000a36529",
                        "key": "0x83bb7fa8cf4c4750ec8ecf417e40db24f3ae09a8b402079782783898ac1c39d4",
                        "prev": "0x0000000000000000000000000000000000000000000000000000000000a3651e"
                    },
                    {
                        "current": "0x0000000000000000000000000000000000000000000000018a10e47879ce5640",
                        "key": "0x989e21b38de4b203fd6de6ebfbe0b8a6d364687e8cbead702ed62d8d2f2a2061",
                        "prev": "0x0000000000000000000000000000000000000000000000018e3ab4e1926c5640"
                    }
                ],
                "storageVariables": [
                    {
                        "name": "tokens",
                        "type": "mapping(address => mapping(address => uint256))",
                        "value": {
                            "pairs": [
                                {
                                    "key": "0x0000000000000000000000000000000000000000",
                                    "value": {
                                        "pairs": [
                                            {
                                                "key": "0x034767f3c519f361c5ecf46ebfc08981c629d381",
                                                "value": {
                                                    "current": "19535890933175500210",
                                                    "prev": "19535590933175500210",
                                                    "typeTag": 1
                                                }
                                            },
                                            {
                                                "key": "0x136021d786490b0e3178ed863ff569c6d0daa4af",
                                                "value": {
                                                    "current": "28395446856661751360",
                                                    "prev": "28695446856661751360",
                                                    "typeTag": 1
                                                }
                                            },
                                            {
                                                "key": "0x2d56f1303339d4d779be5882088cbbfd5b270a37",
                                                "value": {
                                                    "current": "4769382643622628218",
                                                    "prev": "4469682643622628218",
                                                    "typeTag": 1
                                                }
                                            }
                                        ],
                                        "typeTag": 4
                                    }
                                },
                                {
                                    "key": "0xb705268213d593b8fd88d3fdeff93aff5cbdcfae",
                                    "value": {
                                        "pairs": [
                                            {
                                                "key": "0x034767f3c519f361c5ecf46ebfc08981c629d381",
                                                "value": {
                                                    "current": "337278062881179180626187",
                                                    "prev": "337217216621053805935638",
                                                    "typeTag": 1
                                                }
                                            },
                                            {
                                                "key": "0x136021d786490b0e3178ed863ff569c6d0daa4af",
                                                "value": {
                                                    "current": "75858312135211002895064",
                                                    "prev": "74981619718520126575613",
                                                    "typeTag": 1
                                                }
                                            },
                                            {
                                                "key": "0x2d56f1303339d4d779be5882088cbbfd5b270a37",
                                                "value": {
                                                    "current": "193880187323578760399",
                                                    "prev": "1131418864139829770399",
                                                    "typeTag": 1
                                                }
                                            }
                                        ],
                                        "typeTag": 4
                                    }
                                }
                            ],
                            "typeTag": 4
                        }
                    },
                    {
                        "name": "lastActiveTransaction",
                        "type": "mapping(address => uint256)",
                        "value": {
                            "pairs": [
                                {
                                    "key": "0x136021d786490b0e3178ed863ff569c6d0daa4af",
                                    "value": {
                                        "current": "10708265",
                                        "prev": "10708264",
                                        "typeTag": 1
                                    }
                                },
                                {
                                    "key": "0x2d56f1303339d4d779be5882088cbbfd5b270a37",
                                    "value": {
                                        "current": "10708265",
                                        "prev": "10708254",
                                        "typeTag": 1
                                    }
                                }
                            ],
                            "typeTag": 4
                        }
                    },
                    {
                        "name": "traded",
                        "type": "mapping(bytes32 => bool)",
                        "value": {
                            "pairs": [
                                {
                                    "key": "0x93d76baa19c883b0d85e8a018a7218aa2c66bba663452a2fecf0968e0fb9a3ac",
                                    "value": {
                                        "current": "true",
                                        "prev": "false",
                                        "typeTag": 1
                                    }
                                }
                            ],
                            "typeTag": 4
                        }
                    },
                    {
                        "name": "orderFills",
                        "type": "mapping(bytes32 => uint256)",
                        "value": {
                            "pairs": [
                                {
                                    "key": "0x2025ccd14f16d6ac1006134227ca3b737922714d6dbf4cef21b94c1026bb862b",
                                    "value": {
                                        "current": "300000000000000000",
                                        "prev": "0",
                                        "typeTag": 1
                                    }
                                }
                            ],
                            "typeTag": 4
                        }
                    }
                ]
            }
        ]
    }
}