{
    "balance_change": {
        "balanceChanges": [
            {
                "account": "0x00c21dcf3ae2572a087ad8437be2583bbb21077f",
                "assets": [
                    {
                        "address": "0x44509b653788fba0ecd37c0b0ebc9475a5792328",
                        "amount": "30",
                        "iconUrl": "",
                        "isERC1155": false,
                        "isERC721": false,
                        "sign": false,
                        "value": ""
                    }
                ]
            },
            {
                "account": "0xdc54547d4543949bdd232bca373538239c27ca27",
                "assets": [
                    {
                        "address": "0x44509b653788fba0ecd37c0b0ebc9475a5792328",
                        "amount": "30",
                        "iconUrl": "",
                        "isERC1155": false,
                        "isERC721": false,
                        "sign": true,
                        "value": ""
                    }
                ]
            }
        ]
    },
    "profile": {
        "basic_info": {
            "baseFee": "",
            "blockNumber": 5705428,
            "callData": "0xa9059cbb000000000000000000000000dc54547d4543949bdd232bca373538239c27ca27000000000000000000000000000000000000000000000001a055690d9db80000",
            "debugEnable": true,
            "errorInfo": "",
            "eventCount": 1,
            "feeRecipient": "0x5a0b54d5dc17e0aadc383d2db43b0a0d3e029c4c",
            "formatValue": "0",
            "gasLimit": 60000,
            "gasPrice": "12.410065408",
            "gasUsed": 51925,
            "intTxnCount": 0,
            "internalRevert": false,
            "internalRevertMessage": "",
            "isContractCreation": false,
            "isFlashloan": false,
            "maxFee": "",
            "nonce": 4816,
            "overwritedBlockNumber": -1,
            "priorityFee": "",
            "receiver": "0x44509b653788fba0ecd37c0b0ebc9475a5792328",
            "revertMessage": "",
            "sender": "0x00c21dcf3ae2572a087ad8437be2583bbb21077f",
            "simulationEnable": true,
            "sourceTxnHash": "0xe32524c86a96564f273e82982790c193e465d4e9e1277ee9928336825af44e2d",
            "status": true,
            "timestamp": "2018-05-31T00:27:29Z",
            "transactionFee": "0.0006443926463104",
            "txnHash": "0xe32524c86a96564f273e82982790c193e465d4e9e1277ee9928336825af44e2d",
            "txnIndex": 12,
            "type": 0,
            "value": "0"
        },
        "fund_flow": [
            {
                "amount": "30",
                "from": "0x00c21dcf3ae2572a087ad8437be2583bbb21077f",
                "id": 1,
                "isERC1155": false,
                "isERC721": false,
                "isReverted": false,
                "order": 1,
                "to": "0xdc54547d4543949bdd232bca373538239c27ca27",
                "token": "0x44509b653788fba0ecd37c0b0ebc9475a5792328"
            }
        ],
        "token_infos": [
            {
                "address": "0xeeeeeeeeeeeeeeeeeeeeeeeeeeeeeeeeeeeeeeee",
                "decimals": 18
            },
            {
                "address": "0x44509b653788fba0ecd37c0b0ebc9475a5792328",
                "decimals": 18
            },
            {
                "address": "0xc02aaa39b223fe8d0a0e5c4f27ead9083c756cc2",
                "decimals": 18
            }
        ]
    },
    "address_label": {
        "labels": [
            {
                "address": "0xeeeeeeeeeeeeeeeeeeeeeeeeeeeeeeeeeeeeeeee",
                "label": "Ether"
            },
            {
                "address": "0x44509b653788fba0ecd37c0b0ebc9475a5792328",
                "label": "RHP"
            },
            {
                "address": "0x0000000000000000000000000000000000000001",
                "label": "Precompiled"
            },
            {
                "address": "0x0000000000000000000000000000000000000002",
                "label": "Precompiled"
            },
            {
                "address": "0x0000000000000000000000000000000000000003",
                "label": "Precompiled"
            },
            {
                "address": "0x0000000000000000000000000000000000000004",
                "label": "Precompiled"
            }
        ]
    },
    "trace": {
        "accountLabels": null,
        "dataMap": {
            "-1": {
                "invocation": {
                    "address": "0x00c21dcf3ae2572a087ad8437be2583bbb21077f",
                    "callData": "",
                    "decodedMethod": null,
                    "errorInfo": "",
                    "fromAddress": "",
                    "gasUsed": 0,
                    "id": -1,
                    "methodDecoded": false,
                    "operation": "",
                    "output": "",
                    "revert": false,
                    "revertMessage": "",
                    "selector": "",
                    "status": false,
                    "value": ""
                },
                "nodeType": 0
            },
            "0": {
                "invocation": {
                    "address": "0x44509b653788fba0ecd37c0b0ebc9475a5792328",
                    "callData": "0x000000000000000000000000dc54547d4543949bdd232bca373538239c27ca27000000000000000000000000000000000000000000000001a055690d9db80000",
                    "decodedMethod": {
                        "callParams": [
                            {
                                "name": "_to",
                                "type": "address",
                                "value": "0xdc54547d4543949bdd232bca373538239c27ca27"
                            },
                            {
                                "decimalAvailable": true,
                                "name": "_value",
                                "type": "uint256",
                                "value": "30,000,000,000,000,000,000"
                            }
                        ],
                        "constructorArguments": "",
                        "name": "transfer",
                        "returnParams": [
                            {
                                "name": "",
                                "type": "bool",
                                "value": true
                            }
                        ],
                        "signature": "transfer(address,uint256)"
                    },
                    "errorInfo": "",
                    "fromAddress": "0x00c21dcf3ae2572a087ad8437be2583bbb21077f",
                    "gasUsed": 51925,
                    "id": 0,
                    "methodDecoded": true,
                    "operation": "CALL",
                    "output": "0x0000000000000000000000000000000000000000000000000000000000000001",
                    "revert": false,
                    "revertMessage": "",
                    "selector": "0xa9059cbb",
                    "status": true,
                    "value": "0"
                },
                "nodeType": 0
            },
            "1": {
                "event": {
                    "contract": "0x44509b653788fba0ecd37c0b0ebc9475a5792328",
                    "decodedLog": {
                        "name": "Transfer",
                        "params": [
                            {
                                "name": "from",
                                "type": "address",
                                "value": "0x00c21dcf3ae2572a087ad8437be2583bbb21077f"
                            },
                            {
                                "name": "to",
                                "type": "address",
                                "value": "0xdc54547d4543949bdd232bca373538239c27ca27"
                            },
                            {
                                "decimalAvailable": true,
                                "name": "value",
                                "type": "uint256",
                                "value": "30,000,000,000,000,000,000"
                            }
                        ],
                        "signature": "Transfer(address,address,uint256)"
                    },
                    "id": 1,
                    "logData": "0x000000000000000000000000000000000000000000000001a055690d9db80000",
                    "logDecoded": true,
                    "operation": "EVENT",
                    "revert": false,
                    "status": true,
                    "topics": [
                        "0xddf252ad1be2c89b69c2b068fc378daa952ba7f163c4a11628f55a4df523b3ef",
                        "0x00000000000000000000000000c21dcf3ae2572a087ad8437be2583bbb21077f",
                        "0x000000000000000000000000dc54547d4543949bdd232bca373538239c27ca27"
                    ]
                },
                "nodeType": 1
            }
        },
        "gasFlame": [
            {
                "children": [
                    {
                        "children": [
                            {
                                "children": [],
                                "depth": 0,
                                "name": "Initial Gas",
                                "value": 23256
                            },
                            {
                                "children": [],
                                "depth": 0,
                                "name": "Executed Gas",
                                "value": 28669
                            }
                        ],
                        "depth": -1,
                        "name": "Actual Gas Used",
                        "value": 51925
                    },
                    {
                        "children": [],
                        "depth": -1,
                        "name": "Refunded Gas",
                        "value": 0
                    }
                ],
                "depth": -2,
                "name": "Total Gas",
                "value": 51925
            }
        ],
        "isConfirmed": true,
        "mainTrace": [
            {
                "children": [
                    {
                        "children": [
                            {
                                "children": [],
                                "depth": 1,
                                "id": 1,
                                "order": 1
                            }
                        ],
                        "depth": 0,
                        "id": 0,
                        "order": 0
                    }
                ],
                "depth": -1,
                "id": -1,
                "order": -1
            }
        ],
        "mainTraceNodeCount": 2,
        "parentIdMap": {
            "0": -1,
            "1": 0
        },
        "tidyTrace": [
            {
                "children": [
                    {
                        "children": [
                            {
                                "children": [],
                                "depth": 1,
                                "id": 1,
                                "order": 1
                            }
                        ],
                        "depth": 0,
                        "id": 0,
                        "order": 0
                    }
                ],
                "depth": -1,
                "id": -1,
                "order": -1
            }
        ],
        "tidyTraceNodeCount": 2
    },
    "state_change": {
        "stateChanges": [
            {
                "address": "0x44509b653788fba0ecd37c0b0ebc9475a5792328",
                "erc": "ERC-20",
                "slots": [
                    {
                        "current": "0x000000000000000000000000000000000000000000003c5841310c3b3a680000",
                        "key": "0x8a009b8450555b2a3abf7d7a45cfb8954696e6387690aeb321bd576a413e3a4f",
                        "prev": "0x000000000000000000000000000000000000000000003c59e1867548d8200000"
                    },
                    {
                        "current": "0x000000000000000000000000000000000000000000000001a055690d9db80000",
                        "key": "0x6d961258a30b385c462653c77d713a85a10bf0837062867a4165ef533dee8742",
                        "prev": "0x0000000000000000000000000000000000000000000000000000000000000000"
                    }
                ],
                "storageVariables": [
                    {
                        "name": "balances",
                        "type": "mapping(address => uint256)",
                        "value": {
                            "pairs": [
                                {
                                    "key": "0x00c21dcf3ae2572a087ad8437be2583bbb21077f",
                                    "value": {
                                        "current": "284970000000000000000000",
                                        "prev": "285000000000000000000000",
                                        "typeTag": 1
                                    }
                                },
                                {
                                    "key": "0xdc54547d4543949bdd232bca373538239c27ca27",
                                    "value": {
                                        "current": "30000000000000000000",
                                        "prev": "0",
                                        "typeTag": 1
                                    }
                                }
                            ],
                            "typeTag": 4
                        }
                    }
                ]
            }
        ]
    }
}