{
    "balance_change": {
        "balanceChanges": []
    },
    "profile": {
        "basic_info": {
            "baseFee": "81.746120116",
            "blockNumber": 13340664,
            "callData": "0x945bcec90000000000000000000000000000000000000000000000000000000000000000000000000000000000000000000000000000000000000000000000000000012000000000000000000000000000000000000000000000000000000000000003000000000000000000000000005df3f15779f5e2855cf14d09c4d184b7885b46af00000000000000000000000000000000000000000000000000000000000000000000000000000000000000005df3f15779f5e2855cf14d09c4d184b7885b46af00000000000000000000000000000000000000000000000000000000000000000000000000000000000000000000000000000000000000000000000000000380ffffffffffffffffffffffffffffffffffffffffffffffffffffffffffffffff00000000000000000000000000000000000000000000000000000000000000020000000000000000000000000000000000000000000000000000000000000040000000000000000000000000000000000000000000000000000000000000010096646936b91d6b9d7d0c47c496afbf3d6ec7b6f8000200000000000000000019000000000000000000000000000000000000000000000000000000000000000000000000000000000000000000000000000000000000000000000000000000010000000000000000000000000000000000000000000000000de0b6b3a764000000000000000000000000000000000000000000000000000000000000000000a0000000000000000000000000000000000000000000000000000000000000000064e2c43ca952ba01e32e8cfa05c1e009bc92e06c00020000000000000000009b00000000000000000000000000000000000000000000000000000000000000010000000000000000000000000000000000000000000000000000000000000002000000000000000000000000000000000000000000000000000000000000000000000000000000000000000000000000000000000000000000000000000000a0000000000000000000000000000000000000000000000000000000000000000000000000000000000000000000000000000000000000000000000000000000030000000000000000000000000000000000000000000000000000000000000000000000000000000000000000a0b86991c6218b36c1d19d4a2e9eb0ce3606eb480000000000000000000000003ec8798b81485a254928b70cda1cf0a2bb0b74d700000000000000000000000000000000000000000000000000000000000000030000000000000000000000000000000000000000000000000de0b6b3a76400000000000000000000000000000000000000000000000000000000000000000000fffffffffffffffffffffffffffffffffffffffffffffff324fe0bafc5d64b68",
            "debugEnable": true,
            "errorInfo": "execution reverted",
            "eventCount": 3,
            "feeRecipient": "0x0708f87a089a91c65d48721aa941084648562287",
            "formatValue": "1",
            "gasLimit": 193475,
            "gasPrice": "83.626120116",
            "gasUsed": 139603,
            "intTxnCount": 3,
            "internalRevert": true,
            "internalRevertMessage": "",
            "isContractCreation": false,
            "isFlashloan": false,
            "maxFee": "114.46",
            "nonce": 96,
            "overwritedBlockNumber": -1,
            "priorityFee": "1.88",
            "receiver": "0xba12222222228d8ba445958a75a0704d566bf2c8",
            "revertMessage": "BAL#507",
            "sender": "0x5df3f15779f5e2855cf14d09c4d184b7885b46af",
            "simulationEnable": true,
            "sourceTxnHash": "0xe41a04910bae7b70ab10d699d9e574bc814688870afb8c6034ed75d669c0e8c3",
            "status": false,
            "timestamp": "2021-10-02T15:32:25Z",
            "transactionFee": "0.011674457246553948",
            "txnHash": "0xe41a04910bae7b70ab10d699d9e574bc814688870afb8c6034ed75d669c0e8c3",
            "txnIndex": 1,
            "type": 2,
            "value": "1000000000000000000"
        },
        "fund_flow": [],
        "token_infos": [
            {
                "address": "0xc02aaa39b223fe8d0a0e5c4f27ead9083c756cc2",
                "decimals": 18
            },
            {
                "address": "0xeeeeeeeeeeeeeeeeeeeeeeeeeeeeeeeeeeeeeeee",
                "decimals": 18
            }
        ]
    },
    "address_label": {
        "labels": [
            {
                "address": "0x0000000000000000000000000000000000000000",
                "label": "Null Address"
            },
            {
                "address": "0x0000000000000000000000000000000000000002",
                "label": "Precompiled"
            },
            {
                "address": "0x0000000000000000000000000000000000000004",
                "label": "Precompiled"
            },
            {
                "address": "0x96646936b91d6b9d7d0c47c496afbf3d6ec7b6f8",
                "label": "Balancer 50 USDC 50 WETH (B-50USDC-...)"
            },
            {
                "address": "0x3ec8798b81485a254928b70cda1cf0a2bb0b74d7",
                "label": "Gro: GRO Token"
            },
            {
                "address": "0x64e2c43ca952ba01e32e8cfa05c1e009bc92e06c",
                "label": "GRO DAO Token Launch (GROLBPT)"
            },
            {
                "address": "0xba12222222228d8ba445958a75a0704d566bf2c8",
                "label": "Balancer: Vault"
            },
            {
                "address": "0xc02aaa39b223fe8d0a0e5c4f27ead9083c756cc2",
                "label": "Wrapped Ether (WETH)"
            },
            {
                "address": "0xa0b86991c6218b36c1d19d4a2e9eb0ce3606eb48",
                "label": "Circle: USDC Token"
            },
            {
                "address": "0x0000000000000000000000000000000000000001",
                "label": "Precompiled"
            },
            {
                "address": "0x0000000000000000000000000000000000000003",
                "label": "Precompiled"
            },
            {
                "address": "0xeeeeeeeeeeeeeeeeeeeeeeeeeeeeeeeeeeeeeeee",
                "label": "Ether"
            }
        ]
    },
    "trace": {
        "accountLabels": null,
        "dataMap": {
            "-1": {
                "invocation": {
                    "address": "0x5df3f15779f5e2855cf14d09c4d184b7885b46af",
                    "callData": "",
                    "decodedMethod": null,
                    "errorInfo": "",
                    "fromAddress": "",
                    "gasUsed": 0,
                    "id": -1,
                    "methodDecoded": false,
                    "operation": "",
                    "output": "",
                    "revert": false,
                    "revertMessage": "",
                    "selector": "",
                    "status": false,
                    "value": ""
                },
                "nodeType": 0
            },
            "0": {
                "invocation": {
                    "address": "0xba12222222228d8ba445958a75a0704d566bf2c8",
                    "callData": "0x0000000000000000000000000000000000000000000000000000000000000000000000000000000000000000000000000000000000000000000000000000012000000000000000000000000000000000000000000000000000000000000003000000000000000000000000005df3f15779f5e2855cf14d09c4d184b7885b46af00000000000000000000000000000000000000000000000000000000000000000000000000000000000000005df3f15779f5e2855cf14d09c4d184b7885b46af00000000000000000000000000000000000000000000000000000000000000000000000000000000000000000000000000000000000000000000000000000380ffffffffffffffffffffffffffffffffffffffffffffffffffffffffffffffff00000000000000000000000000000000000000000000000000000000000000020000000000000000000000000000000000000000000000000000000000000040000000000000000000000000000000000000000000000000000000000000010096646936b91d6b9d7d0c47c496afbf3d6ec7b6f8000200000000000000000019000000000000000000000000000000000000000000000000000000000000000000000000000000000000000000000000000000000000000000000000000000010000000000000000000000000000000000000000000000000de0b6b3a764000000000000000000000000000000000000000000000000000000000000000000a0000000000000000000000000000000000000000000000000000000000000000064e2c43ca952ba01e32e8cfa05c1e009bc92e06c00020000000000000000009b00000000000000000000000000000000000000000000000000000000000000010000000000000000000000000000000000000000000000000000000000000002000000000000000000000000000000000000000000000000000000000000000000000000000000000000000000000000000000000000000000000000000000a0000000000000000000000000000000000000000000000000000000000000000000000000000000000000000000000000000000000000000000000000000000030000000000000000000000000000000000000000000000000000000000000000000000000000000000000000a0b86991c6218b36c1d19d4a2e9eb0ce3606eb480000000000000000000000003ec8798b81485a254928b70cda1cf0a2bb0b74d700000000000000000000000000000000000000000000000000000000000000030000000000000000000000000000000000000000000000000de0b6b3a76400000000000000000000000000000000000000000000000000000000000000000000fffffffffffffffffffffffffffffffffffffffffffffff324fe0bafc5d64b68",
                    "decodedMethod": {
                        "callParams": [
                            {
                                "name": "kind",
                                "type": "uint8",
                                "value": "0"
                            },
                            {
                                "name": "swaps",
                                "type": "(bytes32,uint256,uint256,uint256,bytes)[]",
                                "value": [
                                    [
                                        {
                                            "name": "poolId",
                                            "type": "bytes32",
                                            "value": "0x96646936b91d6b9d7d0c47c496afbf3d6ec7b6f8000200000000000000000019"
                                        },
                                        {
                                            "name": "assetInIndex",
                                            "type": "uint256",
                                            "value": "0"
                                        },
                                        {
                                            "name": "assetOutIndex",
                                            "type": "uint256",
                                            "value": "1"
                                        },
                                        {
                                            "name": "amount",
                                            "type": "uint256",
                                            "value": "1,000,000,000,000,000,000"
                                        },
                                        {
                                            "name": "userData",
                                            "type": "bytes",
                                            "value": "0x"
                                        }
                                    ],
                                    [
                                        {
                                            "name": "poolId",
                                            "type": "bytes32",
                                            "value": "0x64e2c43ca952ba01e32e8cfa05c1e009bc92e06c00020000000000000000009b"
                                        },
                                        {
                                            "name": "assetInIndex",
                                            "type": "uint256",
                                            "value": "1"
                                        },
                                        {
                                            "name": "assetOutIndex",
                                            "type": "uint256",
                                            "value": "2"
                                        },
                                        {
                                            "name": "amount",
                                            "type": "uint256",
                                            "value": "0"
                                        },
                                        {
                                            "name": "userData",
                                            "type": "bytes",
                                            "value": "0x"
                                        }
                                    ]
                                ]
                            },
                            {
                                "name": "assets",
                                "type": "address[]",
                                "value": [
                                    "0x0000000000000000000000000000000000000000",
                                    "0xa0b86991c6218b36c1d19d4a2e9eb0ce3606eb48",
                                    "0x3ec8798b81485a254928b70cda1cf0a2bb0b74d7"
                                ]
                            },
                            {
                                "name": "funds",
                                "type": "(address,bool,address,bool)",
                                "value": [
                                    {
                                        "name": "sender",
                                        "type": "address",
                                        "value": "0x5df3f15779f5e2855cf14d09c4d184b7885b46af"
                                    },
                                    {
                                        "name": "fromInternalBalance",
                                        "type": "bool",
                                        "value": false
                                    },
                                    {
                                        "name": "recipient",
                                        "type": "address",
                                        "value": "0x5df3f15779f5e2855cf14d09c4d184b7885b46af"
                                    },
                                    {
                                        "name": "toInternalBalance",
                                        "type": "bool",
                                        "value": false
                                    }
                                ]
                            },
                            {
                                "name": "limits",
                                "type": "int256[]",
                                "value": [
                                    "1,000,000,000,000,000,000",
                                    "0",
                                    "-237,142,092,079,207,920,792"
                                ]
                            },
                            {
                                "name": "deadline",
                                "type": "uint256",
                                "value": "115,792,089,237,316,195,423,570,985,008,687,907,853,269,984,665,640,564,039,457,584,007,913,129,639,935"
                            }
                        ],
                        "constructorArguments": "",
                        "name": "batchSwap",
                        "returnParams": [],
                        "signature": "batchSwap(uint8,(bytes32,uint256,uint256,uint256,bytes)[],address[],(address,bool,address,bool),int256[],uint256)"
                    },
                    "errorInfo": "execution reverted",
                    "fromAddress": "0x5df3f15779f5e2855cf14d09c4d184b7885b46af",
                    "gasUsed": 139603,
                    "id": 0,
                    "methodDecoded": true,
                    "operation": "CALL",
                    "output": "0x08c379a00000000000000000000000000000000000000000000000000000000000000020000000000000000000000000000000000000000000000000000000000000000742414c2335303700000000000000000000000000000000000000000000000000",
                    "revert": true,
                    "revertMessage": "BAL#507",
                    "selector": "0x945bcec9",
                    "status": false,
                    "value": "1"
                },
                "nodeType": 0
            },
            "1": {
                "invocation": {
                    "address": "0x96646936b91d6b9d7d0c47c496afbf3d6ec7b6f8",
                    "callData": "0x000000000000000000000000000000000000000000000000000000000000006000000000000000000000000000000000000000000000013b9b84a5a8d7949aba000000000000000000000000000000000000000000000000000011cd4e7145980000000000000000000000000000000000000000000000000000000000000000000000000000000000000000c02aaa39b223fe8d0a0e5c4f27ead9083c756cc2000000000000000000000000a0b86991c6218b36c1d19d4a2e9eb0ce3606eb480000000000000000000000000000000000000000000000000de0b6b3a764000096646936b91d6b9d7d0c47c496afbf3d6ec7b6f80002000000000000000000190000000000000000000000000000000000000000000000000000000000cb8f670000000000000000000000005df3f15779f5e2855cf14d09c4d184b7885b46af0000000000000000000000005df3f15779f5e2855cf14d09c4d184b7885b46af00000000000000000000000000000000000000000000000000000000000001200000000000000000000000000000000000000000000000000000000000000000",
                    "decodedMethod": {
                        "callParams": [
                            {
                                "name": "request",
                                "type": "(uint8,address,address,uint256,bytes32,uint256,address,address,bytes)",
                                "value": [
                                    {
                                        "name": "kind",
                                        "type": "uint8",
                                        "value": "0"
                                    },
                                    {
                                        "name": "tokenIn",
                                        "type": "address",
                                        "value": "0xc02aaa39b223fe8d0a0e5c4f27ead9083c756cc2"
                                    },
                                    {
                                        "name": "tokenOut",
                                        "type": "address",
                                        "value": "0xa0b86991c6218b36c1d19d4a2e9eb0ce3606eb48"
                                    },
                                    {
                                        "name": "amount",
                                        "type": "uint256",
                                        "value": "1,000,000,000,000,000,000"
                                    },
                                    {
                                        "name": "poolId",
                                        "type": "bytes32",
                                        "value": "0x96646936b91d6b9d7d0c47c496afbf3d6ec7b6f8000200000000000000000019"
                                    },
                                    {
                                        "name": "lastChangeBlock",
                                        "type": "uint256",
                                        "value": "13,340,519"
                                    },
                                    {
                                        "name": "from",
                                        "type": "address",
                                        "value": "0x5df3f15779f5e2855cf14d09c4d184b7885b46af"
                                    },
                                    {
                                        "name": "to",
                                        "type": "address",
                                        "value": "0x5df3f15779f5e2855cf14d09c4d184b7885b46af"
                                    },
                                    {
                                        "name": "userData",
                                        "type": "bytes",
                                        "value": "0x"
                                    }
                                ]
                            },
                            {
                                "name": "balanceTokenIn",
                                "type": "uint256",
                                "value": "5,821,930,647,135,903,324,858"
                            },
                            {
                                "name": "balanceTokenOut",
                                "type": "uint256",
                                "value": "19,573,482,014,104"
                            }
                        ],
                        "constructorArguments": "",
                        "name": "onSwap",
                        "returnParams": [
                            {
                                "name": "",
                                "type": "uint256",
                                "value": "3,349,685,533"
                            }
                        ],
                        "signature": "onSwap((uint8,address,address,uint256,bytes32,uint256,address,address,bytes),uint256,uint256)"
                    },
                    "errorInfo": "",
                    "fromAddress": "0xba12222222228d8ba445958a75a0704d566bf2c8",
                    "gasUsed": 25926,
                    "id": 1,
                    "methodDecoded": true,
                    "operation": "CALL",
                    "output": "0x00000000000000000000000000000000000000000000000000000000c7a8251d",
                    "revert": true,
                    "revertMessage": "",
                    "selector": "0x9d2c110c",
                    "status": true,
                    "value": "0"
                },
                "nodeType": 0
            },
            "2": {
                "event": {
                    "contract": "0xba12222222228d8ba445958a75a0704d566bf2c8",
                    "decodedLog": {
                        "name": "Swap",
                        "params": [
                            {
                                "name": "poolId",
                                "type": "bytes32",
                                "value": "0x96646936b91d6b9d7d0c47c496afbf3d6ec7b6f8000200000000000000000019"
                            },
                            {
                                "name": "tokenIn",
                                "type": "address",
                                "value": "0xc02aaa39b223fe8d0a0e5c4f27ead9083c756cc2"
                            },
                            {
                                "name": "tokenOut",
                                "type": "address",
                                "value": "0xa0b86991c6218b36c1d19d4a2e9eb0ce3606eb48"
                            },
                            {
                                "name": "amountIn",
                                "type": "uint256",
                                "value": "1,000,000,000,000,000,000"
                            },
                            {
                                "name": "amountOut",
                                "type": "uint256",
                                "value": "3,349,685,533"
                            }
                        ],
                        "signature": "Swap(bytes32,address,address,uint256,uint256)"
                    },
                    "id": 2,
                    "logData": "0x0000000000000000000000000000000000000000000000000de0b6b3a764000000000000000000000000000000000000000000000000000000000000c7a8251d",
                    "logDecoded": true,
                    "operation": "EVENT",
                    "revert": true,
                    "status": false,
                    "topics": [
                        "0x2170c741c41531aec20e7c107c24eecfdd15e69c9bb0a8dd37b1840b9e0b207b",
                        "0x96646936b91d6b9d7d0c47c496afbf3d6ec7b6f8000200000000000000000019",
                        "0x000000000000000000000000c02aaa39b223fe8d0a0e5c4f27ead9083c756cc2",
                        "0x000000000000000000000000a0b86991c6218b36c1d19d4a2e9eb0ce3606eb48"
                    ]
                },
                "nodeType": 1
            },
            "3": {
                "invocation": {
                    "address": "0x64e2c43ca952ba01e32e8cfa05c1e009bc92e06c",
                    "callData": "0x00000000000000000000000000000000000000000000000000000000000000600000000000000000000000000000000000000000000000000000007a96e698110000000000000000000000000000000000000000000007ea0cdc5a0a8294ea430000000000000000000000000000000000000000000000000000000000000000000000000000000000000000a0b86991c6218b36c1d19d4a2e9eb0ce3606eb480000000000000000000000003ec8798b81485a254928b70cda1cf0a2bb0b74d700000000000000000000000000000000000000000000000000000000c7a8251d64e2c43ca952ba01e32e8cfa05c1e009bc92e06c00020000000000000000009b0000000000000000000000000000000000000000000000000000000000cb8ff60000000000000000000000005df3f15779f5e2855cf14d09c4d184b7885b46af0000000000000000000000005df3f15779f5e2855cf14d09c4d184b7885b46af00000000000000000000000000000000000000000000000000000000000001200000000000000000000000000000000000000000000000000000000000000000",
                    "decodedMethod": {
                        "callParams": [
                            {
                                "name": "request",
                                "type": "(uint8,address,address,uint256,bytes32,uint256,address,address,bytes)",
                                "value": [
                                    {
                                        "name": "kind",
                                        "type": "uint8",
                                        "value": "0"
                                    },
                                    {
                                        "name": "tokenIn",
                                        "type": "address",
                                        "value": "0xa0b86991c6218b36c1d19d4a2e9eb0ce3606eb48"
                                    },
                                    {
                                        "name": "tokenOut",
                                        "type": "address",
                                        "value": "0x3ec8798b81485a254928b70cda1cf0a2bb0b74d7"
                                    },
                                    {
                                        "name": "amount",
                                        "type": "uint256",
                                        "value": "3,349,685,533"
                                    },
                                    {
                                        "name": "poolId",
                                        "type": "bytes32",
                                        "value": "0x64e2c43ca952ba01e32e8cfa05c1e009bc92e06c00020000000000000000009b"
                                    },
                                    {
                                        "name": "lastChangeBlock",
                                        "type": "uint256",
                                        "value": "13,340,662"
                                    },
                                    {
                                        "name": "from",
                                        "type": "address",
                                        "value": "0x5df3f15779f5e2855cf14d09c4d184b7885b46af"
                                    },
                                    {
                                        "name": "to",
                                        "type": "address",
                                        "value": "0x5df3f15779f5e2855cf14d09c4d184b7885b46af"
                                    },
                                    {
                                        "name": "userData",
                                        "type": "bytes",
                                        "value": "0x"
                                    }
                                ]
                            },
                            {
                                "name": "balanceTokenIn",
                                "type": "uint256",
                                "value": "526,517,704,721"
                            },
                            {
                                "name": "balanceTokenOut",
                                "type": "uint256",
                                "value": "37,374,030,207,960,070,023,747"
                            }
                        ],
                        "constructorArguments": "",
                        "name": "onSwap",
                        "returnParams": [
                            {
                                "name": "",
                                "type": "uint256",
                                "value": "232,747,053,852,725,319,514"
                            }
                        ],
                        "signature": "onSwap((uint8,address,address,uint256,bytes32,uint256,address,address,bytes),uint256,uint256)"
                    },
                    "errorInfo": "",
                    "fromAddress": "0xba12222222228d8ba445958a75a0704d566bf2c8",
                    "gasUsed": 17789,
                    "id": 3,
                    "methodDecoded": true,
                    "operation": "CALL",
                    "output": "0x00000000000000000000000000000000000000000000000c9e03a4551267975a",
                    "revert": true,
                    "revertMessage": "",
                    "selector": "0x9d2c110c",
                    "status": true,
                    "value": "0"
                },
                "nodeType": 0
            },
            "4": {
                "event": {
                    "contract": "0xba12222222228d8ba445958a75a0704d566bf2c8",
                    "decodedLog": {
                        "name": "Swap",
                        "params": [
                            {
                                "name": "poolId",
                                "type": "bytes32",
                                "value": "0x64e2c43ca952ba01e32e8cfa05c1e009bc92e06c00020000000000000000009b"
                            },
                            {
                                "name": "tokenIn",
                                "type": "address",
                                "value": "0xa0b86991c6218b36c1d19d4a2e9eb0ce3606eb48"
                            },
                            {
                                "name": "tokenOut",
                                "type": "address",
                                "value": "0x3ec8798b81485a254928b70cda1cf0a2bb0b74d7"
                            },
                            {
                                "name": "amountIn",
                                "type": "uint256",
                                "value": "3,349,685,533"
                            },
                            {
                                "name": "amountOut",
                                "type": "uint256",
                                "value": "232,747,053,852,725,319,514"
                            }
                        ],
                        "signature": "Swap(bytes32,address,address,uint256,uint256)"
                    },
                    "id": 4,
                    "logData": "0x00000000000000000000000000000000000000000000000000000000c7a8251d00000000000000000000000000000000000000000000000c9e03a4551267975a",
                    "logDecoded": true,
                    "operation": "EVENT",
                    "revert": true,
                    "status": false,
                    "topics": [
                        "0x2170c741c41531aec20e7c107c24eecfdd15e69c9bb0a8dd37b1840b9e0b207b",
                        "0x64e2c43ca952ba01e32e8cfa05c1e009bc92e06c00020000000000000000009b",
                        "0x000000000000000000000000a0b86991c6218b36c1d19d4a2e9eb0ce3606eb48",
                        "0x0000000000000000000000003ec8798b81485a254928b70cda1cf0a2bb0b74d7"
                    ]
                },
                "nodeType": 1
            },
            "5": {
                "invocation": {
                    "address": "0xc02aaa39b223fe8d0a0e5c4f27ead9083c756cc2",
                    "callData": "0x",
                    "decodedMethod": {
                        "callParams": [],
                        "constructorArguments": "",
                        "name": "deposit",
                        "returnParams": [],
                        "signature": "deposit()"
                    },
                    "errorInfo": "",
                    "fromAddress": "0xba12222222228d8ba445958a75a0704d566bf2c8",
                    "gasUsed": 6874,
                    "id": 5,
                    "methodDecoded": true,
                    "operation": "CALL",
                    "output": "",
                    "revert": true,
                    "revertMessage": "",
                    "selector": "0xd0e30db0",
                    "status": true,
                    "value": "1"
                },
                "nodeType": 0
            },
            "6": {
                "event": {
                    "contract": "0xc02aaa39b223fe8d0a0e5c4f27ead9083c756cc2",
                    "decodedLog": {
                        "name": "Deposit",
                        "params": [
                            {
                                "name": "dst",
                                "type": "address",
                                "value": "0xba12222222228d8ba445958a75a0704d566bf2c8"
                            },
                            {
                                "name": "wad",
                                "type": "uint256",
                                "value": "1,000,000,000,000,000,000"
                            }
                        ],
                        "signature": "Deposit(address,uint256)"
                    },
                    "id": 6,
                    "logData": "0x0000000000000000000000000000000000000000000000000de0b6b3a7640000",
                    "logDecoded": true,
                    "operation": "EVENT",
                    "revert": true,
                    "status": false,
                    "topics": [
                        "0xe1fffcc4923d04b559f4d29a8bfc6cda04eb5b0d3c460751c2402c5c5cc9109c",
                        "0x000000000000000000000000ba12222222228d8ba445958a75a0704d566bf2c8"
                    ]
                },
                "nodeType": 1
            }
        },
        "gasFlame": [
            {
                "children": [
                    {
                        "children": [
                            {
                                "children": [],
                                "depth": 0,
                                "name": "Initial Gas",
                                "value": 27740
                            },
                            {
                                "children": [
                                    {
                                        "children": [],
                                        "depth": 1,
                                        "name": "onSwap",
                                        "value": 25926
                                    },
                                    {
                                        "children": [],
                                        "depth": 1,
                                        "name": "onSwap",
                                        "value": 17789
                                    },
                                    {
                                        "children": [],
                                        "depth": 1,
                                        "name": "deposit",
                                        "value": 6874
                                    }
                                ],
                                "depth": 0,
                                "name": "Executed Gas",
                                "value": 111863
                            }
                        ],
                        "depth": -1,
                        "name": "Actual Gas Used",
                        "value": 139603
                    },
                    {
                        "children": [],
                        "depth": -1,
                        "name": "Refunded Gas",
                        "value": 0
                    }
                ],
                "depth": -2,
                "name": "Total Gas",
                "value": 139603
            }
        ],
        "isConfirmed": true,
        "mainTrace": [
            {
                "children": [
                    {
                        "children": [
                            {
                                "children": [],
                                "depth": 1,
                                "id": 1,
                                "order": 1
                            },
                            {
                                "children": [],
                                "depth": 1,
                                "id": 2,
                                "order": 2
                            },
                            {
                                "children": [],
                                "depth": 1,
                                "id": 3,
                                "order": 3
                            },
                            {
                                "children": [],
                                "depth": 1,
                                "id": 4,
                                "order": 4
                            },
                            {
                                "children": [
                                    {
                                        "children": [],
                                        "depth": 2,
                                        "id": 6,
                                        "order": 6
                                    }
                                ],
                                "depth": 1,
                                "id": 5,
                                "order": 5
                            }
                        ],
                        "depth": 0,
                        "id": 0,
                        "order": 0
                    }
                ],
                "depth": -1,
                "id": -1,
                "order": -1
            }
        ],
        "mainTraceNodeCount": 7,
        "parentIdMap": {
            "0": -1,
            "1": 0,
            "2": 0,
            "3": 0,
            "4": 0,
            "5": 0,
            "6": 5
        },
        "tidyTrace": [
            {
                "children": [
                    {
                        "children": [
                            {
                                "children": [],
                                "depth": 1,
                                "id": 1,
                                "order": 1
                            },
                            {
                                "children": [],
                                "depth": 1,
                                "id": 2,
                                "order": 2
                            },
                            {
                                "children": [],
                                "depth": 1,
                                "id": 3,
                                "order": 3
                            },
                            {
                                "children": [],
                                "depth": 1,
                                "id": 4,
                                "order": 4
                            },
                            {
                                "children": [
                                    {
                                        "children": [],
                                        "depth": 2,
                                        "id": 6,
                                        "order": 6
                                    }
                                ],
                                "depth": 1,
                                "id": 5,
                                "order": 5
                            }
                        ],
                        "depth": 0,
                        "id": 0,
                        "order": 0
                    }
                ],
                "depth": -1,
                "id": -1,
                "order": -1
            }
        ],
        "tidyTraceNodeCount": 7
    },
    "state_change": {
        "stateChanges": []
    }
}