{
    "balance_change": {
        "balanceChanges": [
            {
                "account": "0x000000adf684e05b0e33f8724fff2e9ce8cc6248",
                "assets": [
                    {
                        "address": "0x2bd0fb740e403b505a3146f9ac02df883fd5c3fc",
                        "amount": "157,699,397,028.804008918994457863",
                        "iconUrl": "",
                        "isERC1155": false,
                        "isERC721": false,
                        "sign": false,
                        "value": "509.4362665"
                    },
                    {
                        "address": "0xc02aaa39b223fe8d0a0e5c4f27ead9083c756cc2",
                        "amount": "0.331214982615016046",
                        "iconUrl": "https://assets.blocksec.com/icon/f1cb2d02c471d545bbc7722daf3277fd852d98e63d118771af7047bd8256c516.png",
                        "isERC1155": false,
                        "isERC721": false,
                        "sign": true,
                        "value": "510.39566388694800603"
                    }
                ]
            },
            {
                "account": "0xec223245a62d6afca048f8edb9504a3b09ec85cb",
                "assets": [
                    {
                        "address": "0x2bd0fb740e403b505a3146f9ac02df883fd5c3fc",
                        "amount": "157,699,397,028.804008918994457863",
                        "iconUrl": "",
                        "isERC1155": false,
                        "isERC721": false,
                        "sign": true,
                        "value": "509.4362665"
                    },
                    {
                        "address": "0xc02aaa39b223fe8d0a0e5c4f27ead9083c756cc2",
                        "amount": "0.331214982615016046",
                        "iconUrl": "https://assets.blocksec.com/icon/f1cb2d02c471d545bbc7722daf3277fd852d98e63d118771af7047bd8256c516.png",
                        "isERC1155": false,
                        "isERC721": false,
                        "sign": false,
                        "value": "510.39566388694800603"
                    }
                ]
            }
        ]
    },
    "profile": {
        "basic_info": {
            "baseFee": "34.505411769",
            "blockNumber": 16787623,
            "callData": "0x4ded60db000000000000000000000000ec223245a62d6afca048f8edb9504a3b09ec85cb00000000000000000000000000000000000000000000000000000000000000010000000000000000000000002bd0fb740e403b505a3146f9ac02df883fd5c3fc000000000000000000000000c02aaa39b223fe8d0a0e5c4f27ead9083c756cc20000000000000000000000000000000000000001fd8de242ea07138b8cf91506000000000000000000000000000000000000000000000000000000000000000000000000000000000000000000000000000000000000000004230a71d4bfebd6",
            "debugEnable": true,
            "errorInfo": "",
            "eventCount": 4,
            "feeRecipient": "0x4675c7e5baafbffbca748158becba61ef3b0a263",
            "formatValue": "0",
            "gasLimit": 300000,
            "gasPrice": "36.515411768",
            "gasUsed": 107778,
            "intTxnCount": 9,
            "internalRevert": false,
            "internalRevertMessage": "",
            "isContractCreation": false,
            "isFlashloan": false,
            "maxFee": "71.020823536",
            "nonce": 429,
            "overwritedBlockNumber": -1,
            "priorityFee": "2.009999999",
            "receiver": "0x000000adf684e05b0e33f8724fff2e9ce8cc6248",
            "revertMessage": "",
            "sender": "0x111527f1386c6725a2f5986230f3060bdcac041f",
            "simulationEnable": true,
            "sourceTxnHash": "0xe41c42ce6464fa970f416bb1a689db83664e6500e49b4d51ee90c398720675b7",
            "status": true,
            "timestamp": "2023-03-09T02:15:35Z",
            "transactionFee": "0.003935558049531504",
            "txnHash": "0xe41c42ce6464fa970f416bb1a689db83664e6500e49b4d51ee90c398720675b7",
            "txnIndex": 1,
            "type": 2,
            "value": "0"
        },
        "fund_flow": [
            {
                "amount": "157,699,397,028.804008918994457863",
                "from": "0x000000adf684e05b0e33f8724fff2e9ce8cc6248",
                "id": 1,
                "isERC1155": false,
                "isERC721": false,
                "isReverted": false,
                "order": 1,
                "to": "0xec223245a62d6afca048f8edb9504a3b09ec85cb",
                "token": "0x2bd0fb740e403b505a3146f9ac02df883fd5c3fc"
            },
            {
                "amount": "0.331214982615016046",
                "from": "0xec223245a62d6afca048f8edb9504a3b09ec85cb",
                "id": 2,
                "isERC1155": false,
                "isERC721": false,
                "isReverted": false,
                "order": 2,
                "to": "0x000000adf684e05b0e33f8724fff2e9ce8cc6248",
                "token": "0xc02aaa39b223fe8d0a0e5c4f27ead9083c756cc2"
            }
        ],
        "token_infos": [
            {
                "address": "0x2bd0fb740e403b505a3146f9ac02df883fd5c3fc",
                "decimals": 18
            },
            {
                "address": "0xc02aaa39b223fe8d0a0e5c4f27ead9083c756cc2",
                "decimals": 18
            },
            {
                "address": "0xeeeeeeeeeeeeeeeeeeeeeeeeeeeeeeeeeeeeeeee",
                "decimals": 18
            }
        ]
    },
    "address_label": {
        "labels": [
            {
                "address": "0x0000000000000000000000000000000000000003",
                "label": "Precompiled"
            },
            {
                "address": "0x0000000000000000000000000000000000000004",
                "label": "Precompiled"
            },
            {
                "address": "0xeeeeeeeeeeeeeeeeeeeeeeeeeeeeeeeeeeeeeeee",
                "label": "Ether"
            },
            {
                "address": "0x2bd0fb740e403b505a3146f9ac02df883fd5c3fc",
                "label": "K9: K9 Token"
            },
            {
                "address": "0xc02aaa39b223fe8d0a0e5c4f27ead9083c756cc2",
                "label": "Wrapped Ether (WETH)"
            },
            {
                "address": "0xec223245a62d6afca048f8edb9504a3b09ec85cb",
                "label": "Uniswap V2: K9 8"
            },
            {
                "address": "0x0000000000000000000000000000000000000001",
                "label": "Precompiled"
            },
            {
                "address": "0x0000000000000000000000000000000000000002",
                "label": "Precompiled"
            }
        ]
    },
    "trace": {
        "accountLabels": null,
        "dataMap": {
            "-1": {
                "invocation": {
                    "address": "0x111527f1386c6725a2f5986230f3060bdcac041f",
                    "callData": "",
                    "decodedMethod": null,
                    "errorInfo": "",
                    "fromAddress": "",
                    "gasUsed": 0,
                    "id": -1,
                    "methodDecoded": false,
                    "operation": "",
                    "output": "",
                    "revert": false,
                    "revertMessage": "",
                    "selector": "",
                    "status": false,
                    "value": ""
                },
                "nodeType": 0
            },
            "0": {
                "invocation": {
                    "address": "0x000000adf684e05b0e33f8724fff2e9ce8cc6248",
                    "callData": "0x000000000000000000000000ec223245a62d6afca048f8edb9504a3b09ec85cb00000000000000000000000000000000000000000000000000000000000000010000000000000000000000002bd0fb740e403b505a3146f9ac02df883fd5c3fc000000000000000000000000c02aaa39b223fe8d0a0e5c4f27ead9083c756cc20000000000000000000000000000000000000001fd8de242ea07138b8cf91506000000000000000000000000000000000000000000000000000000000000000000000000000000000000000000000000000000000000000004230a71d4bfebd6",
                    "decodedMethod": null,
                    "errorInfo": "",
                    "fromAddress": "0x111527f1386c6725a2f5986230f3060bdcac041f",
                    "gasUsed": 107778,
                    "id": 0,
                    "methodDecoded": false,
                    "operation": "CALL",
                    "output": "0x0000000000000000000000000000000000000000000000000498b645970e226e0000000000000000000000000000000000000000000000000498b645970e226e00000000000000000000000000000000000000837645133a6626dea51fb36b220000000000000000000000000000000000000000000000013518444c0cae6b25",
                    "revert": false,
                    "revertMessage": "",
                    "selector": "0x4ded60db",
                    "status": true,
                    "value": "0"
                },
                "nodeType": 0
            },
            "1": {
                "invocation": {
                    "address": "0xec223245a62d6afca048f8edb9504a3b09ec85cb",
                    "callData": "0x",
                    "decodedMethod": {
                        "callParams": [],
                        "constructorArguments": "",
                        "name": "getReserves",
                        "returnParams": [
                            {
                                "name": "_reserve0",
                                "type": "uint112",
                                "value": "10,415,492,027,211,335,498,517,015,915,298"
                            },
                            {
                                "name": "_reserve1",
                                "type": "uint112",
                                "value": "22,272,627,050,581,748,517"
                            },
                            {
                                "name": "_blockTimestampLast",
                                "type": "uint32",
                                "value": "1,678,328,087"
                            }
                        ],
                        "signature": "getReserves()"
                    },
                    "errorInfo": "",
                    "fromAddress": "0x000000adf684e05b0e33f8724fff2e9ce8cc6248",
                    "gasUsed": 2504,
                    "id": 1,
                    "methodDecoded": true,
                    "operation": "STATICCALL",
                    "output": "0x00000000000000000000000000000000000000837645133a6626dea51fb36b220000000000000000000000000000000000000000000000013518444c0cae6b250000000000000000000000000000000000000000000000000000000064094117",
                    "revert": false,
                    "revertMessage": "",
                    "selector": "0x0902f1ac",
                    "status": true,
                    "value": "0"
                },
                "nodeType": 0
            },
            "10": {
                "invocation": {
                    "address": "0xc02aaa39b223fe8d0a0e5c4f27ead9083c756cc2",
                    "callData": "0x000000000000000000000000ec223245a62d6afca048f8edb9504a3b09ec85cb",
                    "decodedMethod": {
                        "callParams": [
                            {
                                "name": "",
                                "type": "address",
                                "value": "0xec223245a62d6afca048f8edb9504a3b09ec85cb"
                            }
                        ],
                        "constructorArguments": "",
                        "name": "balanceOf",
                        "returnParams": [
                            {
                                "decimalAvailable": true,
                                "name": "",
                                "type": "uint256",
                                "value": "21,941,412,067,966,732,471"
                            }
                        ],
                        "signature": "balanceOf(address)"
                    },
                    "errorInfo": "",
                    "fromAddress": "0xec223245a62d6afca048f8edb9504a3b09ec85cb",
                    "gasUsed": 534,
                    "id": 10,
                    "methodDecoded": true,
                    "operation": "STATICCALL",
                    "output": "0x000000000000000000000000000000000000000000000001307f8e0675a048b7",
                    "revert": false,
                    "revertMessage": "",
                    "selector": "0x70a08231",
                    "status": true,
                    "value": "0"
                },
                "nodeType": 0
            },
            "11": {
                "event": {
                    "contract": "0xec223245a62d6afca048f8edb9504a3b09ec85cb",
                    "decodedLog": {
                        "name": "Sync",
                        "params": [
                            {
                                "name": "reserve0",
                                "type": "uint112",
                                "value": "10,573,191,424,240,139,507,436,010,373,160"
                            },
                            {
                                "name": "reserve1",
                                "type": "uint112",
                                "value": "21,941,412,067,966,732,471"
                            }
                        ],
                        "signature": "Sync(uint112,uint112)"
                    },
                    "id": 11,
                    "logData": "0x000000000000000000000000000000000000008573d2f57d502df230acac8028000000000000000000000000000000000000000000000001307f8e0675a048b7",
                    "logDecoded": true,
                    "operation": "EVENT",
                    "revert": false,
                    "status": true,
                    "topics": [
                        "0x1c411e9a96e071241c2f21f7726b17ae89e3cab4c78be50e062b03a9fffbbad1"
                    ]
                },
                "nodeType": 1
            },
            "12": {
                "event": {
                    "contract": "0xec223245a62d6afca048f8edb9504a3b09ec85cb",
                    "decodedLog": {
                        "name": "Swap",
                        "params": [
                            {
                                "name": "sender",
                                "type": "address",
                                "value": "0x000000adf684e05b0e33f8724fff2e9ce8cc6248"
                            },
                            {
                                "name": "to",
                                "type": "address",
                                "value": "0x000000adf684e05b0e33f8724fff2e9ce8cc6248"
                            },
                            {
                                "name": "amount0In",
                                "type": "uint256",
                                "value": "157,699,397,028,804,008,918,994,457,862"
                            },
                            {
                                "name": "amount1In",
                                "type": "uint256",
                                "value": "0"
                            },
                            {
                                "name": "amount0Out",
                                "type": "uint256",
                                "value": "0"
                            },
                            {
                                "name": "amount1Out",
                                "type": "uint256",
                                "value": "331,214,982,615,016,046"
                            }
                        ],
                        "signature": "Swap(address,uint256,uint256,uint256,uint256,address)"
                    },
                    "id": 12,
                    "logData": "0x0000000000000000000000000000000000000001fd8de242ea07138b8cf91506000000000000000000000000000000000000000000000000000000000000000000000000000000000000000000000000000000000000000000000000000000000000000000000000000000000000000000000000000000000498b645970e226e",
                    "logDecoded": true,
                    "operation": "EVENT",
                    "revert": false,
                    "status": true,
                    "topics": [
                        "0xd78ad95fa46c994b6551d0da85fc275fe613ce37657fb8d5e3d130840159d822",
                        "0x000000000000000000000000000000adf684e05b0e33f8724fff2e9ce8cc6248",
                        "0x000000000000000000000000000000adf684e05b0e33f8724fff2e9ce8cc6248"
                    ]
                },
                "nodeType": 1
            },
            "13": {
                "invocation": {
                    "address": "0xc02aaa39b223fe8d0a0e5c4f27ead9083c756cc2",
                    "callData": "0x000000000000000000000000000000adf684e05b0e33f8724fff2e9ce8cc6248",
                    "decodedMethod": {
                        "callParams": [
                            {
                                "name": "",
                                "type": "address",
                                "value": "0x000000adf684e05b0e33f8724fff2e9ce8cc6248"
                            }
                        ],
                        "constructorArguments": "",
                        "name": "balanceOf",
                        "returnParams": [
                            {
                                "decimalAvailable": true,
                                "name": "",
                                "type": "uint256",
                                "value": "11,195,477,780,753,525,907"
                            }
                        ],
                        "signature": "balanceOf(address)"
                    },
                    "errorInfo": "",
                    "fromAddress": "0x000000adf684e05b0e33f8724fff2e9ce8cc6248",
                    "gasUsed": 534,
                    "id": 13,
                    "methodDecoded": true,
                    "operation": "STATICCALL",
                    "output": "0x0000000000000000000000000000000000000000000000009b5e53b9b497ac93",
                    "revert": false,
                    "revertMessage": "",
                    "selector": "0x70a08231",
                    "status": true,
                    "value": "0"
                },
                "nodeType": 0
            },
            "2": {
                "invocation": {
                    "address": "0xc02aaa39b223fe8d0a0e5c4f27ead9083c756cc2",
                    "callData": "0x000000000000000000000000000000adf684e05b0e33f8724fff2e9ce8cc6248",
                    "decodedMethod": {
                        "callParams": [
                            {
                                "name": "",
                                "type": "address",
                                "value": "0x000000adf684e05b0e33f8724fff2e9ce8cc6248"
                            }
                        ],
                        "constructorArguments": "",
                        "name": "balanceOf",
                        "returnParams": [
                            {
                                "decimalAvailable": true,
                                "name": "",
                                "type": "uint256",
                                "value": "10,864,262,798,138,509,861"
                            }
                        ],
                        "signature": "balanceOf(address)"
                    },
                    "errorInfo": "",
                    "fromAddress": "0x000000adf684e05b0e33f8724fff2e9ce8cc6248",
                    "gasUsed": 2534,
                    "id": 2,
                    "methodDecoded": true,
                    "operation": "STATICCALL",
                    "output": "0x00000000000000000000000000000000000000000000000096c59d741d898a25",
                    "revert": false,
                    "revertMessage": "",
                    "selector": "0x70a08231",
                    "status": true,
                    "value": "0"
                },
                "nodeType": 0
            },
            "3": {
                "invocation": {
                    "address": "0x2bd0fb740e403b505a3146f9ac02df883fd5c3fc",
                    "callData": "0x000000000000000000000000ec223245a62d6afca048f8edb9504a3b09ec85cb0000000000000000000000000000000000000001fd8de242ea07138b8cf91506",
                    "decodedMethod": {
                        "callParams": [
                            {
                                "name": "to",
                                "type": "address",
                                "value": "0xec223245a62d6afca048f8edb9504a3b09ec85cb"
                            },
                            {
                                "decimalAvailable": true,
                                "name": "amount",
                                "type": "uint256",
                                "value": "157,699,397,028,804,008,918,994,457,862"
                            }
                        ],
                        "constructorArguments": "",
                        "name": "transfer",
                        "returnParams": [
                            {
                                "name": "",
                                "type": "bool",
                                "value": true
                            }
                        ],
                        "signature": "transfer(address,uint256)"
                    },
                    "errorInfo": "",
                    "fromAddress": "0x000000adf684e05b0e33f8724fff2e9ce8cc6248",
                    "gasUsed": 21367,
                    "id": 3,
                    "methodDecoded": true,
                    "operation": "CALL",
                    "output": "0x0000000000000000000000000000000000000000000000000000000000000001",
                    "revert": false,
                    "revertMessage": "",
                    "selector": "0xa9059cbb",
                    "status": true,
                    "value": "0"
                },
                "nodeType": 0
            },
            "4": {
                "event": {
                    "contract": "0x2bd0fb740e403b505a3146f9ac02df883fd5c3fc",
                    "decodedLog": {
                        "name": "Transfer",
                        "params": [
                            {
                                "name": "from",
                                "type": "address",
                                "value": "0x000000adf684e05b0e33f8724fff2e9ce8cc6248"
                            },
                            {
                                "name": "to",
                                "type": "address",
                                "value": "0xec223245a62d6afca048f8edb9504a3b09ec85cb"
                            },
                            {
                                "decimalAvailable": true,
                                "name": "value",
                                "type": "uint256",
                                "value": "157,699,397,028,804,008,918,994,457,862"
                            }
                        ],
                        "signature": "Transfer(address,address,uint256)"
                    },
                    "id": 4,
                    "logData": "0x0000000000000000000000000000000000000001fd8de242ea07138b8cf91506",
                    "logDecoded": true,
                    "operation": "EVENT",
                    "revert": false,
                    "status": true,
                    "topics": [
                        "0xddf252ad1be2c89b69c2b068fc378daa952ba7f163c4a11628f55a4df523b3ef",
                        "0x000000000000000000000000000000adf684e05b0e33f8724fff2e9ce8cc6248",
                        "0x000000000000000000000000ec223245a62d6afca048f8edb9504a3b09ec85cb"
                    ]
                },
                "nodeType": 1
            },
            "5": {
                "invocation": {
                    "address": "0x2bd0fb740e403b505a3146f9ac02df883fd5c3fc",
                    "callData": "0x000000000000000000000000ec223245a62d6afca048f8edb9504a3b09ec85cb",
                    "decodedMethod": {
                        "callParams": [
                            {
                                "name": "account",
                                "type": "address",
                                "value": "0xec223245a62d6afca048f8edb9504a3b09ec85cb"
                            }
                        ],
                        "constructorArguments": "",
                        "name": "balanceOf",
                        "returnParams": [
                            {
                                "decimalAvailable": true,
                                "name": "",
                                "type": "uint256",
                                "value": "10,573,191,424,240,139,507,436,010,373,160"
                            }
                        ],
                        "signature": "balanceOf(address)"
                    },
                    "errorInfo": "",
                    "fromAddress": "0x000000adf684e05b0e33f8724fff2e9ce8cc6248",
                    "gasUsed": 952,
                    "id": 5,
                    "methodDecoded": true,
                    "operation": "STATICCALL",
                    "output": "0x000000000000000000000000000000000000008573d2f57d502df230acac8028",
                    "revert": false,
                    "revertMessage": "",
                    "selector": "0x70a08231",
                    "status": true,
                    "value": "0"
                },
                "nodeType": 0
            },
            "6": {
                "invocation": {
                    "address": "0xec223245a62d6afca048f8edb9504a3b09ec85cb",
                    "callData": "0x00000000000000000000000000000000000000000000000000000000000000000000000000000000000000000000000000000000000000000498b645970e226e000000000000000000000000000000adf684e05b0e33f8724fff2e9ce8cc624800000000000000000000000000000000000000000000000000000000000000800000000000000000000000000000000000000000000000000000000000000000",
                    "decodedMethod": {
                        "callParams": [
                            {
                                "name": "amount0Out",
                                "type": "uint256",
                                "value": "0"
                            },
                            {
                                "name": "amount1Out",
                                "type": "uint256",
                                "value": "331,214,982,615,016,046"
                            },
                            {
                                "name": "to",
                                "type": "address",
                                "value": "0x000000adf684e05b0e33f8724fff2e9ce8cc6248"
                            },
                            {
                                "name": "data",
                                "type": "bytes",
                                "value": "0x"
                            }
                        ],
                        "constructorArguments": "",
                        "name": "swap",
                        "returnParams": [],
                        "signature": "swap(uint256,uint256,address,bytes)"
                    },
                    "errorInfo": "",
                    "fromAddress": "0x000000adf684e05b0e33f8724fff2e9ce8cc6248",
                    "gasUsed": 43671,
                    "id": 6,
                    "methodDecoded": true,
                    "operation": "CALL",
                    "output": "",
                    "revert": false,
                    "revertMessage": "",
                    "selector": "0x022c0d9f",
                    "status": true,
                    "value": "0"
                },
                "nodeType": 0
            },
            "7": {
                "invocation": {
                    "address": "0xc02aaa39b223fe8d0a0e5c4f27ead9083c756cc2",
                    "callData": "0x000000000000000000000000000000adf684e05b0e33f8724fff2e9ce8cc62480000000000000000000000000000000000000000000000000498b645970e226e",
                    "decodedMethod": {
                        "callParams": [
                            {
                                "name": "dst",
                                "type": "address",
                                "value": "0x000000adf684e05b0e33f8724fff2e9ce8cc6248"
                            },
                            {
                                "decimalAvailable": true,
                                "name": "wad",
                                "type": "uint256",
                                "value": "331,214,982,615,016,046"
                            }
                        ],
                        "constructorArguments": "",
                        "name": "transfer",
                        "returnParams": [
                            {
                                "name": "",
                                "type": "bool",
                                "value": true
                            }
                        ],
                        "signature": "transfer(address,uint256)"
                    },
                    "errorInfo": "",
                    "fromAddress": "0xec223245a62d6afca048f8edb9504a3b09ec85cb",
                    "gasUsed": 10862,
                    "id": 7,
                    "methodDecoded": true,
                    "operation": "CALL",
                    "output": "0x0000000000000000000000000000000000000000000000000000000000000001",
                    "revert": false,
                    "revertMessage": "",
                    "selector": "0xa9059cbb",
                    "status": true,
                    "value": "0"
                },
                "nodeType": 0
            },
            "8": {
                "event": {
                    "contract": "0xc02aaa39b223fe8d0a0e5c4f27ead9083c756cc2",
                    "decodedLog": {
                        "name": "Transfer",
                        "params": [
                            {
                                "name": "src",
                                "type": "address",
                                "value": "0xec223245a62d6afca048f8edb9504a3b09ec85cb"
                            },
                            {
                                "name": "dst",
                                "type": "address",
                                "value": "0x000000adf684e05b0e33f8724fff2e9ce8cc6248"
                            },
                            {
                                "decimalAvailable": true,
                                "name": "wad",
                                "type": "uint256",
                                "value": "331,214,982,615,016,046"
                            }
                        ],
                        "signature": "Transfer(address,address,uint256)"
                    },
                    "id": 8,
                    "logData": "0x0000000000000000000000000000000000000000000000000498b645970e226e",
                    "logDecoded": true,
                    "operation": "EVENT",
                    "revert": false,
                    "status": true,
                    "topics": [
                        "0xddf252ad1be2c89b69c2b068fc378daa952ba7f163c4a11628f55a4df523b3ef",
                        "0x000000000000000000000000ec223245a62d6afca048f8edb9504a3b09ec85cb",
                        "0x000000000000000000000000000000adf684e05b0e33f8724fff2e9ce8cc6248"
                    ]
                },
                "nodeType": 1
            },
            "9": {
                "invocation": {
                    "address": "0x2bd0fb740e403b505a3146f9ac02df883fd5c3fc",
                    "callData": "0x000000000000000000000000ec223245a62d6afca048f8edb9504a3b09ec85cb",
                    "decodedMethod": {
                        "callParams": [
                            {
                                "name": "account",
                                "type": "address",
                                "value": "0xec223245a62d6afca048f8edb9504a3b09ec85cb"
                            }
                        ],
                        "constructorArguments": "",
                        "name": "balanceOf",
                        "returnParams": [
                            {
                                "decimalAvailable": true,
                                "name": "",
                                "type": "uint256",
                                "value": "10,573,191,424,240,139,507,436,010,373,160"
                            }
                        ],
                        "signature": "balanceOf(address)"
                    },
                    "errorInfo": "",
                    "fromAddress": "0xec223245a62d6afca048f8edb9504a3b09ec85cb",
                    "gasUsed": 952,
                    "id": 9,
                    "methodDecoded": true,
                    "operation": "STATICCALL",
                    "output": "0x000000000000000000000000000000000000008573d2f57d502df230acac8028",
                    "revert": false,
                    "revertMessage": "",
                    "selector": "0x70a08231",
                    "status": true,
                    "value": "0"
                },
                "nodeType": 0
            }
        },
        "gasFlame": [
            {
                "children": [
                    {
                        "children": [
                            {
                                "children": [],
                                "depth": 0,
                                "name": "Initial Gas",
                                "value": 22944
                            },
                            {
                                "children": [
                                    {
                                        "children": [],
                                        "depth": 1,
                                        "name": "getReserves",
                                        "value": 2504
                                    },
                                    {
                                        "children": [],
                                        "depth": 1,
                                        "name": "balanceOf",
                                        "value": 2534
                                    },
                                    {
                                        "children": [],
                                        "depth": 1,
                                        "name": "transfer",
                                        "value": 21367
                                    },
                                    {
                                        "children": [],
                                        "depth": 1,
                                        "name": "balanceOf",
                                        "value": 952
                                    },
                                    {
                                        "children": [
                                            {
                                                "children": [],
                                                "depth": 2,
                                                "name": "transfer",
                                                "value": 10862
                                            },
                                            {
                                                "children": [],
                                                "depth": 2,
                                                "name": "balanceOf",
                                                "value": 952
                                            },
                                            {
                                                "children": [],
                                                "depth": 2,
                                                "name": "balanceOf",
                                                "value": 534
                                            }
                                        ],
                                        "depth": 1,
                                        "name": "swap",
                                        "value": 43671
                                    },
                                    {
                                        "children": [],
                                        "depth": 1,
                                        "name": "balanceOf",
                                        "value": 534
                                    }
                                ],
                                "depth": 0,
                                "name": "Executed Gas",
                                "value": 87634
                            }
                        ],
                        "depth": -1,
                        "name": "Actual Gas Used",
                        "value": 107778
                    },
                    {
                        "children": [],
                        "depth": -1,
                        "name": "Refunded Gas",
                        "value": 2800
                    }
                ],
                "depth": -2,
                "name": "Total Gas",
                "value": 110578
            }
        ],
        "isConfirmed": true,
        "mainTrace": [
            {
                "children": [
                    {
                        "children": [
                            {
                                "children": [],
                                "depth": 1,
                                "id": 1,
                                "order": 1
                            },
                            {
                                "children": [],
                                "depth": 1,
                                "id": 2,
                                "order": 2
                            },
                            {
                                "children": [
                                    {
                                        "children": [],
                                        "depth": 2,
                                        "id": 4,
                                        "order": 4
                                    }
                                ],
                                "depth": 1,
                                "id": 3,
                                "order": 3
                            },
                            {
                                "children": [],
                                "depth": 1,
                                "id": 5,
                                "order": 5
                            },
                            {
                                "children": [
                                    {
                                        "children": [
                                            {
                                                "children": [],
                                                "depth": 3,
                                                "id": 8,
                                                "order": 8
                                            }
                                        ],
                                        "depth": 2,
                                        "id": 7,
                                        "order": 7
                                    },
                                    {
                                        "children": [],
                                        "depth": 2,
                                        "id": 9,
                                        "order": 9
                                    },
                                    {
                                        "children": [],
                                        "depth": 2,
                                        "id": 10,
                                        "order": 10
                                    },
                                    {
                                        "children": [],
                                        "depth": 2,
                                        "id": 11,
                                        "order": 11
                                    },
                                    {
                                        "children": [],
                                        "depth": 2,
                                        "id": 12,
                                        "order": 12
                                    }
                                ],
                                "depth": 1,
                                "id": 6,
                                "order": 6
                            },
                            {
                                "children": [],
                                "depth": 1,
                                "id": 13,
                                "order": 13
                            }
                        ],
                        "depth": 0,
                        "id": 0,
                        "order": 0
                    }
                ],
                "depth": -1,
                "id": -1,
                "order": -1
            }
        ],
        "mainTraceNodeCount": 14,
        "parentIdMap": {
            "0": -1,
            "1": 0,
            "10": 6,
            "11": 6,
            "12": 6,
            "13": 0,
            "2": 0,
            "3": 0,
            "4": 3,
            "5": 0,
            "6": 0,
            "7": 6,
            "8": 7,
            "9": 6
        },
        "tidyTrace": [
            {
                "children": [
                    {
                        "children": [
                            {
                                "children": [
                                    {
                                        "children": [],
                                        "depth": 2,
                                        "id": 4,
                                        "order": 4
                                    }
                                ],
                                "depth": 1,
                                "id": 3,
                                "order": 3
                            },
                            {
                                "children": [
                                    {
                                        "children": [
                                            {
                                                "children": [],
                                                "depth": 3,
                                                "id": 8,
                                                "order": 8
                                            }
                                        ],
                                        "depth": 2,
                                        "id": 7,
                                        "order": 7
                                    },
                                    {
                                        "children": [],
                                        "depth": 2,
                                        "id": 11,
                                        "order": 11
                                    },
                                    {
                                        "children": [],
                                        "depth": 2,
                                        "id": 12,
                                        "order": 12
                                    }
                                ],
                                "depth": 1,
                                "id": 6,
                                "order": 6
                            }
                        ],
                        "depth": 0,
                        "id": 0,
                        "order": 0
                    }
                ],
                "depth": -1,
                "id": -1,
                "order": -1
            }
        ],
        "tidyTraceNodeCount": 8
    },
    "state_change": {
        "stateChanges": [
            {
                "address": "0x2bd0fb740e403b505a3146f9ac02df883fd5c3fc",
                "erc": "ERC-20",
                "slots": [
                    {
                        "current": "0x0000000000000000000000000000000000000001e28bdbc7ebb9b291fd3e9ad7",
                        "key": "0x1cfc16b73eebfc1d9db9a3f9169b7b7e20c83994f928b308634c5448319c2c89",
                        "prev": "0x0000000000000000000000000000000000000003e019be0ad5c0c61d8a37afdd"
                    },
                    {
                        "current": "0x000000000000000000000000000000000000008573d2f57d502df230acac8028",
                        "key": "0xef242c5f9d7838c7b292d9f4a3d418cecdb53e152727bf0a0a7bd5ab90393059",
                        "prev": "0x00000000000000000000000000000000000000837645133a6626dea51fb36b22"
                    }
                ],
                "storageVariables": [
                    {
                        "name": "_balances",
                        "type": "mapping(address => uint256)",
                        "value": {
                            "pairs": [
                                {
                                    "key": "0x000000adf684e05b0e33f8724fff2e9ce8cc6248",
                                    "value": {
                                        "current": "149340853308962379510824475351",
                                        "prev": "307040250337766388429818933213",
                                        "typeTag": 1
                                    }
                                },
                                {
                                    "key": "0xec223245a62d6afca048f8edb9504a3b09ec85cb",
                                    "value": {
                                        "current": "10573191424240139507436010373160",
                                        "prev": "10415492027211335498517015915298",
                                        "typeTag": 1
                                    }
                                }
                            ],
                            "typeTag": 4
                        }
                    }
                ]
            },
            {
                "address": "0xc02aaa39b223fe8d0a0e5c4f27ead9083c756cc2",
                "erc": "ERC-20",
                "slots": [
                    {
                        "current": "0x000000000000000000000000000000000000000000000001307f8e0675a048b7",
                        "key": "0x71572b0f62e26f0b9408fbd11c9db7b539936cadc77064dd384ba99237848b21",
                        "prev": "0x0000000000000000000000000000000000000000000000013518444c0cae6b25"
                    },
                    {
                        "current": "0x0000000000000000000000000000000000000000000000009b5e53b9b497ac93",
                        "key": "0x8ec34fae0799ece044f48501c90ca070e5b0576aeec16763fe3587f712be175e",
                        "prev": "0x00000000000000000000000000000000000000000000000096c59d741d898a25"
                    }
                ],
                "storageVariables": [
                    {
                        "name": "balanceOf",
                        "type": "mapping(address => uint256)",
                        "value": {
                            "pairs": [
                                {
                                    "key": "0x000000adf684e05b0e33f8724fff2e9ce8cc6248",
                                    "value": {
                                        "current": "11195477780753525907",
                                        "prev": "10864262798138509861",
                                        "typeTag": 1
                                    }
                                },
                                {
                                    "key": "0xec223245a62d6afca048f8edb9504a3b09ec85cb",
                                    "value": {
                                        "current": "21941412067966732471",
                                        "prev": "22272627050581748517",
                                        "typeTag": 1
                                    }
                                }
                            ],
                            "typeTag": 4
                        }
                    }
                ]
            },
            {
                "address": "0xec223245a62d6afca048f8edb9504a3b09ec85cb",
                "erc": "ERC-20",
                "slots": [
                    {
                        "current": "0x0000000000000000000001ffc8b9e7d52462b23b150ddc6931f60d1d911d6efc",
                        "key": "0x000000000000000000000000000000000000000000000000000000000000000a",
                        "prev": "0x0000000000000000000001ffb44fa93ed025824c70f932fc4251e68ae7f1693c"
                    },
                    {
                        "current": "0x64094147000000000001307f8e0675a048b7008573d2f57d502df230acac8028",
                        "key": "0x0000000000000000000000000000000000000000000000000000000000000008",
                        "prev": "0x640941170000000000013518444c0cae6b2500837645133a6626dea51fb36b22"
                    },
                    {
                        "current": "0x000000000000000000000000000000000000000002c883ca6ea92e55cee2fa08",
                        "key": "0x0000000000000000000000000000000000000000000000000000000000000009",
                        "prev": "0x000000000000000000000000000000000000000002c812eec27fb77e84795fb8"
                    }
                ],
                "storageVariables": [
                    {
                        "name": "price0CumulativeLast",
                        "type": "uint256",
                        "value": {
                            "current": "861377547791130346557471240",
                            "prev": "860844590502519488294510520",
                            "typeTag": 1
                        }
                    },
                    {
                        "name": "price1CumulativeLast",
                        "type": "uint256",
                        "value": {
                            "current": "747973280663584446330877910854254337666674803437308",
                            "prev": "747856731517060869633129545452324289813462742296892",
                            "typeTag": 1
                        }
                    },
                    {
                        "name": "reserve0",
                        "type": "uint112",
                        "value": {
                            "current": "10573191424240139507436010373160",
                            "prev": "10415492027211335498517015915298",
                            "typeTag": 1
                        }
                    },
                    {
                        "name": "reserve1",
                        "type": "uint112",
                        "value": {
                            "current": "21941412067966732471",
                            "prev": "22272627050581748517",
                            "typeTag": 1
                        }
                    },
                    {
                        "name": "blockTimestampLast",
                        "type": "uint32",
                        "value": {
                            "current": "1678328135",
                            "prev": "1678328087",
                            "typeTag": 1
                        }
                    }
                ]
            }
        ]
    }
}