{
    "balance_change": {
        "balanceChanges": [
            {
                "account": "0xb49091108e6804d1675d32eaa02989096384208a",
                "assets": [
                    {
                        "address": "0x6810e776880c02933d47db1b9fc05908e5386b96",
                        "amount": "7.49624053",
                        "iconUrl": "https://assets.blocksec.com/icon/d33574ee39c5c96cdbdfd09b51ce9cff03242b8fd03ce2392e3591da44ce617d.png",
                        "isERC1155": false,
                        "isERC721": false,
                        "sign": false,
                        "value": ""
                    }
                ]
            },
            {
                "account": "0xe31ebf404a88bf2e79288c4f4a945a5d6995bb1c",
                "assets": [
                    {
                        "address": "0x6810e776880c02933d47db1b9fc05908e5386b96",
                        "amount": "7.49624053",
                        "iconUrl": "https://assets.blocksec.com/icon/d33574ee39c5c96cdbdfd09b51ce9cff03242b8fd03ce2392e3591da44ce617d.png",
                        "isERC1155": false,
                        "isERC721": false,
                        "sign": true,
                        "value": ""
                    }
                ]
            }
        ]
    },
    "profile": {
        "basic_info": {
            "baseFee": "",
            "blockNumber": 3738938,
            "callData": "0xa9059cbb000000000000000000000000e31ebf404a88bf2e79288c4f4a945a5d6995bb1c0000000000000000000000000000000000000000000000006807ff0b95893400",
            "debugEnable": true,
            "errorInfo": "",
            "eventCount": 1,
            "feeRecipient": "0xea674fdde714fd979de3edf0f56aa9716b898ec8",
            "formatValue": "0",
            "gasLimit": 70000,
            "gasPrice": "21",
            "gasUsed": 51473,
            "intTxnCount": 0,
            "internalRevert": false,
            "internalRevertMessage": "",
            "isContractCreation": false,
            "isFlashloan": false,
            "maxFee": "",
            "nonce": 4776,
            "overwritedBlockNumber": -1,
            "priorityFee": "",
            "receiver": "0x6810e776880c02933d47db1b9fc05908e5386b96",
            "revertMessage": "",
            "sender": "0xb49091108e6804d1675d32eaa02989096384208a",
            "simulationEnable": true,
            "sourceTxnHash": "0xe40ad6dc7aede8dd9c8756700cf8b72eef40b39bd84d483ea4697ac7cc81f2ac",
            "status": true,
            "timestamp": "2017-05-20T16:37:37Z",
            "transactionFee": "0.001080933",
            "txnHash": "0xe40ad6dc7aede8dd9c8756700cf8b72eef40b39bd84d483ea4697ac7cc81f2ac",
            "txnIndex": 20,
            "type": 0,
            "value": "0"
        },
        "fund_flow": [
            {
                "amount": "7.49624053",
                "from": "0xb49091108e6804d1675d32eaa02989096384208a",
                "id": 1,
                "isERC1155": false,
                "isERC721": false,
                "isReverted": false,
                "order": 1,
                "to": "0xe31ebf404a88bf2e79288c4f4a945a5d6995bb1c",
                "token": "0x6810e776880c02933d47db1b9fc05908e5386b96"
            }
        ],
        "token_infos": [
            {
                "address": "0xc02aaa39b223fe8d0a0e5c4f27ead9083c756cc2",
                "decimals": 18
            },
            {
                "address": "0xeeeeeeeeeeeeeeeeeeeeeeeeeeeeeeeeeeeeeeee",
                "decimals": 18
            },
            {
                "address": "0x6810e776880c02933d47db1b9fc05908e5386b96",
                "decimals": 18
            }
        ]
    },
    "address_label": {
        "labels": [
            {
                "address": "0x0000000000000000000000000000000000000003",
                "label": "Precompiled"
            },
            {
                "address": "0x0000000000000000000000000000000000000004",
                "label": "Precompiled"
            },
            {
                "address": "0xeeeeeeeeeeeeeeeeeeeeeeeeeeeeeeeeeeeeeeee",
                "label": "Ether"
            },
            {
                "address": "0xe31ebf404a88bf2e79288c4f4a945a5d6995bb1c",
                "label": "BITTREX"
            },
            {
                "address": "0x6810e776880c02933d47db1b9fc05908e5386b96",
                "label": "Gnosis: GNO Token"
            },
            {
                "address": "0x0000000000000000000000000000000000000001",
                "label": "Precompiled"
            },
            {
                "address": "0x0000000000000000000000000000000000000002",
                "label": "Precompiled"
            }
        ]
    },
    "trace": {
        "accountLabels": null,
        "dataMap": {
            "-1": {
                "invocation": {
                    "address": "0xb49091108e6804d1675d32eaa02989096384208a",
                    "callData": "",
                    "decodedMethod": null,
                    "errorInfo": "",
                    "fromAddress": "",
                    "gasUsed": 0,
                    "id": -1,
                    "methodDecoded": false,
                    "operation": "",
                    "output": "",
                    "revert": false,
                    "revertMessage": "",
                    "selector": "",
                    "status": false,
                    "value": ""
                },
                "nodeType": 0
            },
            "0": {
                "invocation": {
                    "address": "0x6810e776880c02933d47db1b9fc05908e5386b96",
                    "callData": "0x000000000000000000000000e31ebf404a88bf2e79288c4f4a945a5d6995bb1c0000000000000000000000000000000000000000000000006807ff0b95893400",
                    "decodedMethod": {
                        "callParams": [
                            {
                                "name": "_to",
                                "type": "address",
                                "value": "0xe31ebf404a88bf2e79288c4f4a945a5d6995bb1c"
                            },
                            {
                                "decimalAvailable": true,
                                "name": "_value",
                                "type": "uint256",
                                "value": "7,496,240,530,000,000,000"
                            }
                        ],
                        "constructorArguments": "",
                        "name": "transfer",
                        "returnParams": [
                            {
                                "name": "",
                                "type": "bool",
                                "value": true
                            }
                        ],
                        "signature": "transfer(address,uint256)"
                    },
                    "errorInfo": "",
                    "fromAddress": "0xb49091108e6804d1675d32eaa02989096384208a",
                    "gasUsed": 51473,
                    "id": 0,
                    "methodDecoded": true,
                    "operation": "CALL",
                    "output": "0x0000000000000000000000000000000000000000000000000000000000000001",
                    "revert": false,
                    "revertMessage": "",
                    "selector": "0xa9059cbb",
                    "status": true,
                    "value": "0"
                },
                "nodeType": 0
            },
            "1": {
                "event": {
                    "contract": "0x6810e776880c02933d47db1b9fc05908e5386b96",
                    "decodedLog": {
                        "name": "Transfer",
                        "params": [
                            {
                                "name": "from",
                                "type": "address",
                                "value": "0xb49091108e6804d1675d32eaa02989096384208a"
                            },
                            {
                                "name": "to",
                                "type": "address",
                                "value": "0xe31ebf404a88bf2e79288c4f4a945a5d6995bb1c"
                            },
                            {
                                "decimalAvailable": true,
                                "name": "value",
                                "type": "uint256",
                                "value": "7,496,240,530,000,000,000"
                            }
                        ],
                        "signature": "Transfer(address,address,uint256)"
                    },
                    "id": 1,
                    "logData": "0x0000000000000000000000000000000000000000000000006807ff0b95893400",
                    "logDecoded": true,
                    "operation": "EVENT",
                    "revert": false,
                    "status": true,
                    "topics": [
                        "0xddf252ad1be2c89b69c2b068fc378daa952ba7f163c4a11628f55a4df523b3ef",
                        "0x000000000000000000000000b49091108e6804d1675d32eaa02989096384208a",
                        "0x000000000000000000000000e31ebf404a88bf2e79288c4f4a945a5d6995bb1c"
                    ]
                },
                "nodeType": 1
            }
        },
        "gasFlame": [
            {
                "children": [
                    {
                        "children": [
                            {
                                "children": [],
                                "depth": 0,
                                "name": "Initial Gas",
                                "value": 23256
                            },
                            {
                                "children": [],
                                "depth": 0,
                                "name": "Executed Gas",
                                "value": 28217
                            }
                        ],
                        "depth": -1,
                        "name": "Actual Gas Used",
                        "value": 51473
                    },
                    {
                        "children": [],
                        "depth": -1,
                        "name": "Refunded Gas",
                        "value": 0
                    }
                ],
                "depth": -2,
                "name": "Total Gas",
                "value": 51473
            }
        ],
        "isConfirmed": true,
        "mainTrace": [
            {
                "children": [
                    {
                        "children": [
                            {
                                "children": [],
                                "depth": 1,
                                "id": 1,
                                "order": 1
                            }
                        ],
                        "depth": 0,
                        "id": 0,
                        "order": 0
                    }
                ],
                "depth": -1,
                "id": -1,
                "order": -1
            }
        ],
        "mainTraceNodeCount": 2,
        "parentIdMap": {
            "0": -1,
            "1": 0
        },
        "tidyTrace": [
            {
                "children": [
                    {
                        "children": [
                            {
                                "children": [],
                                "depth": 1,
                                "id": 1,
                                "order": 1
                            }
                        ],
                        "depth": 0,
                        "id": 0,
                        "order": 0
                    }
                ],
                "depth": -1,
                "id": -1,
                "order": -1
            }
        ],
        "tidyTraceNodeCount": 2
    },
    "state_change": {
        "stateChanges": [
            {
                "address": "0x6810e776880c02933d47db1b9fc05908e5386b96",
                "erc": "ERC-20",
                "slots": [
                    {
                        "current": "0x000000000000000000000000000000000000000000000d84e8acca324c51396a",
                        "key": "0xe4b894afac009bc54c7491739416d8d50c3ca5896c6bcafa6c2ae91942e093c1",
                        "prev": "0x000000000000000000000000000000000000000000000d8550b4c93de1da6d6a"
                    },
                    {
                        "current": "0x0000000000000000000000000000000000000000000000006807ff0b95893400",
                        "key": "0xe310f5c9409cd505a77a50006f6d91da4b2385f848765d4f7e95baaac905d8f6",
                        "prev": "0x0000000000000000000000000000000000000000000000000000000000000000"
                    }
                ],
                "storageVariables": []
            }
        ]
    }
}