{
    "balance_change": {
        "balanceChanges": [
            {
                "account": "0xc2c6621c829e5cc76bbd578c08c8abd2a23ef268",
                "assets": [
                    {
                        "address": "0x6b175474e89094c44da98b954eedeac495271d0f",
                        "amount": "0.243197818877677969",
                        "iconUrl": "https://assets.blocksec.com/icon/39aead569b9c011cb6f69734d9abbc9ab6a80049fe93bbd12bb473a3e0e859a3.png",
                        "isERC1155": false,
                        "isERC721": false,
                        "sign": true,
                        "value": ""
                    }
                ]
            },
            {
                "account": "0x0000000000000000000000000000000000000000",
                "assets": [
                    {
                        "address": "0x6b175474e89094c44da98b954eedeac495271d0f",
                        "amount": "0.243197818877677969",
                        "iconUrl": "https://assets.blocksec.com/icon/39aead569b9c011cb6f69734d9abbc9ab6a80049fe93bbd12bb473a3e0e859a3.png",
                        "isERC1155": false,
                        "isERC721": false,
                        "sign": false,
                        "value": ""
                    }
                ]
            }
        ]
    },
    "profile": {
        "basic_info": {
            "baseFee": "",
            "blockNumber": 9296794,
            "callData": "0x1cff79cd00000000000000000000000007ee93aeea0a36fff2a9b95dd22bd6049ee54f2600000000000000000000000000000000000000000000000000000000000000400000000000000000000000000000000000000000000000000000000000000044c77843b30000000000000000000000009759a6ac90977b93b58547b4a71c78317f391a28000000000000000000000000197e90f9fad81970ba7976f33cbd77088e5d7cf700000000000000000000000000000000000000000000000000000000",
            "debugEnable": true,
            "errorInfo": "",
            "eventCount": 8,
            "feeRecipient": "0xea674fdde714fd979de3edf0f56aa9716b898ec8",
            "formatValue": "0",
            "gasLimit": 271126,
            "gasPrice": "7",
            "gasUsed": 155926,
            "intTxnCount": 11,
            "internalRevert": false,
            "internalRevertMessage": "",
            "isContractCreation": false,
            "isFlashloan": false,
            "maxFee": "",
            "nonce": 28,
            "overwritedBlockNumber": -1,
            "priorityFee": "",
            "receiver": "0xb04e05e7a1ea879335f7997357d9e11e2250485c",
            "revertMessage": "",
            "sender": "0xc2c6621c829e5cc76bbd578c08c8abd2a23ef268",
            "simulationEnable": true,
            "sourceTxnHash": "0xe4acfd142774a25e90f3e6d73fe162ba7e261c201b8717ae86c23f644677790d",
            "status": true,
            "timestamp": "2020-01-17T05:20:31Z",
            "transactionFee": "0.001091482",
            "txnHash": "0xe4acfd142774a25e90f3e6d73fe162ba7e261c201b8717ae86c23f644677790d",
            "txnIndex": 34,
            "type": 0,
            "value": "0"
        },
        "fund_flow": [
            {
                "amount": "0.243197818877677969",
                "from": "0x0000000000000000000000000000000000000000",
                "id": 1,
                "isERC1155": false,
                "isERC721": false,
                "isReverted": false,
                "order": 1,
                "to": "0xc2c6621c829e5cc76bbd578c08c8abd2a23ef268",
                "token": "0x6b175474e89094c44da98b954eedeac495271d0f"
            }
        ],
        "token_infos": [
            {
                "address": "0x6b175474e89094c44da98b954eedeac495271d0f",
                "decimals": 18
            },
            {
                "address": "0xc02aaa39b223fe8d0a0e5c4f27ead9083c756cc2",
                "decimals": 18
            },
            {
                "address": "0xeeeeeeeeeeeeeeeeeeeeeeeeeeeeeeeeeeeeeeee",
                "decimals": 18
            }
        ]
    },
    "address_label": {
        "labels": [
            {
                "address": "0xeeeeeeeeeeeeeeeeeeeeeeeeeeeeeeeeeeeeeeee",
                "label": "Ether"
            },
            {
                "address": "0x6b175474e89094c44da98b954eedeac495271d0f",
                "label": "Sky: Dai Stablecoin"
            },
            {
                "address": "0x07ee93aeea0a36fff2a9b95dd22bd6049ee54f26",
                "label": "Maker: Proxy Actions DSR"
            },
            {
                "address": "0xb04e05e7a1ea879335f7997357d9e11e2250485c",
                "label": "DSProxy"
            },
            {
                "address": "0x0000000000000000000000000000000000000001",
                "label": "Precompiled"
            },
            {
                "address": "0x0000000000000000000000000000000000000002",
                "label": "Precompiled"
            },
            {
                "address": "0xa950524441892a31ebddf91d3ceefa04bf454466",
                "label": "Sky: MCD Vow"
            },
            {
                "address": "0x35d1b3f3d7966a1dfe207aa4514c12a259a0492b",
                "label": "Sky: MCD Vat"
            },
            {
                "address": "0x197e90f9fad81970ba7976f33cbd77088e5d7cf7",
                "label": "Sky: MCD Pot"
            },
            {
                "address": "0x9759a6ac90977b93b58547b4a71c78317f391a28",
                "label": "Sky: MCD Join DAI"
            },
            {
                "address": "0x0000000000000000000000000000000000000003",
                "label": "Precompiled"
            },
            {
                "address": "0x0000000000000000000000000000000000000004",
                "label": "Precompiled"
            }
        ]
    },
    "trace": {
        "accountLabels": null,
        "dataMap": {
            "-1": {
                "invocation": {
                    "address": "0xc2c6621c829e5cc76bbd578c08c8abd2a23ef268",
                    "callData": "",
                    "decodedMethod": null,
                    "errorInfo": "",
                    "fromAddress": "",
                    "gasUsed": 0,
                    "id": -1,
                    "methodDecoded": false,
                    "operation": "",
                    "output": "",
                    "revert": false,
                    "revertMessage": "",
                    "selector": "",
                    "status": false,
                    "value": ""
                },
                "nodeType": 0
            },
            "0": {
                "invocation": {
                    "address": "0xb04e05e7a1ea879335f7997357d9e11e2250485c",
                    "callData": "0x00000000000000000000000007ee93aeea0a36fff2a9b95dd22bd6049ee54f2600000000000000000000000000000000000000000000000000000000000000400000000000000000000000000000000000000000000000000000000000000044c77843b30000000000000000000000009759a6ac90977b93b58547b4a71c78317f391a28000000000000000000000000197e90f9fad81970ba7976f33cbd77088e5d7cf700000000000000000000000000000000000000000000000000000000",
                    "decodedMethod": {
                        "callParams": [
                            {
                                "name": "_target",
                                "type": "address",
                                "value": "0x07ee93aeea0a36fff2a9b95dd22bd6049ee54f26"
                            },
                            {
                                "name": "_data",
                                "type": "bytes",
                                "value": "0xc77843b30000000000000000000000009759a6ac90977b93b58547b4a71c78317f391a28000000000000000000000000197e90f9fad81970ba7976f33cbd77088e5d7cf7"
                            }
                        ],
                        "constructorArguments": "",
                        "name": "execute",
                        "returnParams": [
                            {
                                "name": "response",
                                "type": "bytes32",
                                "value": "0x0000000000000000000000000000000000000000000000000000000000000000"
                            }
                        ],
                        "signature": "execute(address,bytes)"
                    },
                    "errorInfo": "",
                    "fromAddress": "0xc2c6621c829e5cc76bbd578c08c8abd2a23ef268",
                    "gasUsed": 155926,
                    "id": 0,
                    "methodDecoded": true,
                    "operation": "CALL",
                    "output": "0x0000000000000000000000000000000000000000000000000000000000000000",
                    "revert": false,
                    "revertMessage": "",
                    "selector": "0x1cff79cd",
                    "status": true,
                    "value": "0"
                },
                "nodeType": 0
            },
            "1": {
                "event": {
                    "contract": "0xb04e05e7a1ea879335f7997357d9e11e2250485c",
                    "decodedLog": null,
                    "id": 1,
                    "logData": "0x0000000000000000000000000000000000000000000000000000000000000000000000000000000000000000000000000000000000000000000000000000004000000000000000000000000000000000000000000000000000000000000000c41cff79cd00000000000000000000000007ee93aeea0a36fff2a9b95dd22bd6049ee54f2600000000000000000000000000000000000000000000000000000000000000400000000000000000000000000000000000000000000000000000000000000044c77843b30000000000000000000000009759a6ac90977b93b58547b4a71c78317f391a28000000000000000000000000197e90f9fad81970ba7976f33cbd77088e5d7cf700000000000000000000000000000000000000000000000000000000",
                    "logDecoded": false,
                    "operation": "EVENT",
                    "revert": false,
                    "status": true,
                    "topics": [
                        "0x1cff79cd00000000000000000000000000000000000000000000000000000000",
                        "0x000000000000000000000000c2c6621c829e5cc76bbd578c08c8abd2a23ef268",
                        "0x00000000000000000000000007ee93aeea0a36fff2a9b95dd22bd6049ee54f26",
                        "0x0000000000000000000000000000000000000000000000000000000000000040"
                    ]
                },
                "nodeType": 1
            },
            "10": {
                "invocation": {
                    "address": "0x35d1b3f3d7966a1dfe207aa4514c12a259a0492b",
                    "callData": "0x000000000000000000000000197e90f9fad81970ba7976f33cbd77088e5d7cf7000000000000000000000000b04e05e7a1ea879335f7997357d9e11e2250485c000000000000000000000000000ae7c627d29e4b76d54d0c68e9cf9c0d4b4b10",
                    "decodedMethod": {
                        "callParams": [
                            {
                                "name": "src",
                                "type": "address",
                                "value": "0x197e90f9fad81970ba7976f33cbd77088e5d7cf7"
                            },
                            {
                                "name": "dst",
                                "type": "address",
                                "value": "0xb04e05e7a1ea879335f7997357d9e11e2250485c"
                            },
                            {
                                "name": "rad",
                                "type": "uint256",
                                "value": "243,197,818,877,677,969,717,187,640,312,568,601,283,087,120"
                            }
                        ],
                        "constructorArguments": "",
                        "name": "move",
                        "returnParams": [],
                        "signature": "move(address,address,uint256)"
                    },
                    "errorInfo": "",
                    "fromAddress": "0x197e90f9fad81970ba7976f33cbd77088e5d7cf7",
                    "gasUsed": 13743,
                    "id": 10,
                    "methodDecoded": true,
                    "operation": "CALL",
                    "output": "",
                    "revert": false,
                    "revertMessage": "",
                    "selector": "0xbb35783b",
                    "status": true,
                    "value": "0"
                },
                "nodeType": 0
            },
            "11": {
                "event": {
                    "contract": "0x35d1b3f3d7966a1dfe207aa4514c12a259a0492b",
                    "decodedLog": null,
                    "id": 11,
                    "logData": "0x000000000000000000000000000000000000000000000000000000000000002000000000000000000000000000000000000000000000000000000000000000e0bb35783b000000000000000000000000197e90f9fad81970ba7976f33cbd77088e5d7cf7000000000000000000000000b04e05e7a1ea879335f7997357d9e11e2250485c000000000000000000000000000ae7c627d29e4b76d54d0c68e9cf9c0d4b4b1000000000000000000000000000000000000000000000000000000000000000000000000000000000000000000000000000000000000000000000000000000000000000000000000000000000000000000000000000000000000000000000000000000000000000000000000000000000000000000000000000000000",
                    "logDecoded": false,
                    "operation": "EVENT",
                    "revert": false,
                    "status": true,
                    "topics": [
                        "0xbb35783b00000000000000000000000000000000000000000000000000000000",
                        "0x000000000000000000000000197e90f9fad81970ba7976f33cbd77088e5d7cf7",
                        "0x000000000000000000000000b04e05e7a1ea879335f7997357d9e11e2250485c",
                        "0x000000000000000000000000000ae7c627d29e4b76d54d0c68e9cf9c0d4b4b10"
                    ]
                },
                "nodeType": 1
            },
            "12": {
                "event": {
                    "contract": "0x197e90f9fad81970ba7976f33cbd77088e5d7cf7",
                    "decodedLog": null,
                    "id": 12,
                    "logData": "0x000000000000000000000000000000000000000000000000000000000000002000000000000000000000000000000000000000000000000000000000000000e07f8661a1000000000000000000000000000000000000000000000000035ab6601f9b70a60000000000000000000000000000000000000000000000000000000000000000000000000000000000000000000000000000000000000000000000000000000000000000000000000000000000000000000000000000000000000000000000000000000000000000000000000000000000000000000000000000000000000000000000000000000000000000000000000000000000000000000000000000000000000000000000000000000000000000000000000000000000000000",
                    "logDecoded": false,
                    "operation": "EVENT",
                    "revert": false,
                    "status": true,
                    "topics": [
                        "0x7f8661a100000000000000000000000000000000000000000000000000000000",
                        "0x000000000000000000000000b04e05e7a1ea879335f7997357d9e11e2250485c",
                        "0x000000000000000000000000000000000000000000000000035ab6601f9b70a6",
                        "0x0000000000000000000000000000000000000000000000000000000000000000"
                    ]
                },
                "nodeType": 1
            },
            "13": {
                "invocation": {
                    "address": "0x35d1b3f3d7966a1dfe207aa4514c12a259a0492b",
                    "callData": "0x000000000000000000000000b04e05e7a1ea879335f7997357d9e11e2250485c0000000000000000000000009759a6ac90977b93b58547b4a71c78317f391a28",
                    "decodedMethod": {
                        "callParams": [
                            {
                                "name": "",
                                "type": "address",
                                "value": "0xb04e05e7a1ea879335f7997357d9e11e2250485c"
                            },
                            {
                                "name": "",
                                "type": "address",
                                "value": "0x9759a6ac90977b93b58547b4a71c78317f391a28"
                            }
                        ],
                        "constructorArguments": "",
                        "name": "can",
                        "returnParams": [
                            {
                                "name": "",
                                "type": "uint256",
                                "value": "1"
                            }
                        ],
                        "signature": "can(address,address)"
                    },
                    "errorInfo": "",
                    "fromAddress": "0xb04e05e7a1ea879335f7997357d9e11e2250485c",
                    "gasUsed": 1313,
                    "id": 13,
                    "methodDecoded": true,
                    "operation": "STATICCALL",
                    "output": "0x0000000000000000000000000000000000000000000000000000000000000001",
                    "revert": false,
                    "revertMessage": "",
                    "selector": "0x4538c4eb",
                    "status": true,
                    "value": "0"
                },
                "nodeType": 0
            },
            "14": {
                "invocation": {
                    "address": "0x9759a6ac90977b93b58547b4a71c78317f391a28",
                    "callData": "0x000000000000000000000000c2c6621c829e5cc76bbd578c08c8abd2a23ef26800000000000000000000000000000000000000000000000003600320b45a9191",
                    "decodedMethod": {
                        "callParams": [
                            {
                                "name": "usr",
                                "type": "address",
                                "value": "0xc2c6621c829e5cc76bbd578c08c8abd2a23ef268"
                            },
                            {
                                "name": "wad",
                                "type": "uint256",
                                "value": "243,197,818,877,677,969"
                            }
                        ],
                        "constructorArguments": "",
                        "name": "exit",
                        "returnParams": [],
                        "signature": "exit(address,uint256)"
                    },
                    "errorInfo": "",
                    "fromAddress": "0xb04e05e7a1ea879335f7997357d9e11e2250485c",
                    "gasUsed": 39301,
                    "id": 14,
                    "methodDecoded": true,
                    "operation": "CALL",
                    "output": "",
                    "revert": false,
                    "revertMessage": "",
                    "selector": "0xef693bed",
                    "status": true,
                    "value": "0"
                },
                "nodeType": 0
            },
            "15": {
                "invocation": {
                    "address": "0x35d1b3f3d7966a1dfe207aa4514c12a259a0492b",
                    "callData": "0x000000000000000000000000b04e05e7a1ea879335f7997357d9e11e2250485c0000000000000000000000009759a6ac90977b93b58547b4a71c78317f391a28000000000000000000000000000ae7c627d29e4b74840ea88644b1e768000000",
                    "decodedMethod": {
                        "callParams": [
                            {
                                "name": "src",
                                "type": "address",
                                "value": "0xb04e05e7a1ea879335f7997357d9e11e2250485c"
                            },
                            {
                                "name": "dst",
                                "type": "address",
                                "value": "0x9759a6ac90977b93b58547b4a71c78317f391a28"
                            },
                            {
                                "name": "rad",
                                "type": "uint256",
                                "value": "243,197,818,877,677,969,000,000,000,000,000,000,000,000,000"
                            }
                        ],
                        "constructorArguments": "",
                        "name": "move",
                        "returnParams": [],
                        "signature": "move(address,address,uint256)"
                    },
                    "errorInfo": "",
                    "fromAddress": "0x9759a6ac90977b93b58547b4a71c78317f391a28",
                    "gasUsed": 13743,
                    "id": 15,
                    "methodDecoded": true,
                    "operation": "CALL",
                    "output": "",
                    "revert": false,
                    "revertMessage": "",
                    "selector": "0xbb35783b",
                    "status": true,
                    "value": "0"
                },
                "nodeType": 0
            },
            "16": {
                "event": {
                    "contract": "0x35d1b3f3d7966a1dfe207aa4514c12a259a0492b",
                    "decodedLog": null,
                    "id": 16,
                    "logData": "0x000000000000000000000000000000000000000000000000000000000000002000000000000000000000000000000000000000000000000000000000000000e0bb35783b000000000000000000000000b04e05e7a1ea879335f7997357d9e11e2250485c0000000000000000000000009759a6ac90977b93b58547b4a71c78317f391a28000000000000000000000000000ae7c627d29e4b74840ea88644b1e76800000000000000000000000000000000000000000000000000000000000000000000000000000000000000000000000000000000000000000000000000000000000000000000000000000000000000000000000000000000000000000000000000000000000000000000000000000000000000000000000000000000000000",
                    "logDecoded": false,
                    "operation": "EVENT",
                    "revert": false,
                    "status": true,
                    "topics": [
                        "0xbb35783b00000000000000000000000000000000000000000000000000000000",
                        "0x000000000000000000000000b04e05e7a1ea879335f7997357d9e11e2250485c",
                        "0x0000000000000000000000009759a6ac90977b93b58547b4a71c78317f391a28",
                        "0x000000000000000000000000000ae7c627d29e4b74840ea88644b1e768000000"
                    ]
                },
                "nodeType": 1
            },
            "17": {
                "invocation": {
                    "address": "0x6b175474e89094c44da98b954eedeac495271d0f",
                    "callData": "0x000000000000000000000000c2c6621c829e5cc76bbd578c08c8abd2a23ef26800000000000000000000000000000000000000000000000003600320b45a9191",
                    "decodedMethod": {
                        "callParams": [
                            {
                                "name": "usr",
                                "type": "address",
                                "value": "0xc2c6621c829e5cc76bbd578c08c8abd2a23ef268"
                            },
                            {
                                "name": "wad",
                                "type": "uint256",
                                "value": "243,197,818,877,677,969"
                            }
                        ],
                        "constructorArguments": "",
                        "name": "mint",
                        "returnParams": [],
                        "signature": "mint(address,uint256)"
                    },
                    "errorInfo": "",
                    "fromAddress": "0x9759a6ac90977b93b58547b4a71c78317f391a28",
                    "gasUsed": 15045,
                    "id": 17,
                    "methodDecoded": true,
                    "operation": "CALL",
                    "output": "",
                    "revert": false,
                    "revertMessage": "",
                    "selector": "0x40c10f19",
                    "status": true,
                    "value": "0"
                },
                "nodeType": 0
            },
            "18": {
                "event": {
                    "contract": "0x6b175474e89094c44da98b954eedeac495271d0f",
                    "decodedLog": {
                        "name": "Transfer",
                        "params": [
                            {
                                "name": "src",
                                "type": "address",
                                "value": "0x0000000000000000000000000000000000000000"
                            },
                            {
                                "name": "dst",
                                "type": "address",
                                "value": "0xc2c6621c829e5cc76bbd578c08c8abd2a23ef268"
                            },
                            {
                                "decimalAvailable": true,
                                "name": "wad",
                                "type": "uint256",
                                "value": "243,197,818,877,677,969"
                            }
                        ],
                        "signature": "Transfer(address,address,uint256)"
                    },
                    "id": 18,
                    "logData": "0x00000000000000000000000000000000000000000000000003600320b45a9191",
                    "logDecoded": true,
                    "operation": "EVENT",
                    "revert": false,
                    "status": true,
                    "topics": [
                        "0xddf252ad1be2c89b69c2b068fc378daa952ba7f163c4a11628f55a4df523b3ef",
                        "0x0000000000000000000000000000000000000000000000000000000000000000",
                        "0x000000000000000000000000c2c6621c829e5cc76bbd578c08c8abd2a23ef268"
                    ]
                },
                "nodeType": 1
            },
            "19": {
                "event": {
                    "contract": "0x9759a6ac90977b93b58547b4a71c78317f391a28",
                    "decodedLog": null,
                    "id": 19,
                    "logData": "0x000000000000000000000000000000000000000000000000000000000000002000000000000000000000000000000000000000000000000000000000000000e0ef693bed000000000000000000000000c2c6621c829e5cc76bbd578c08c8abd2a23ef26800000000000000000000000000000000000000000000000003600320b45a9191000000000000000000000000000000000000000000000000000000000000000000000000000000000000000000000000000000000000000000000000000000000000000000000000000000000000000000000000000000000000000000000000000000000000000000000000000000000000000000000000000000000000000000000000000000000000000000000000000000000000000000000000",
                    "logDecoded": false,
                    "operation": "EVENT",
                    "revert": false,
                    "status": true,
                    "topics": [
                        "0xef693bed00000000000000000000000000000000000000000000000000000000",
                        "0x000000000000000000000000b04e05e7a1ea879335f7997357d9e11e2250485c",
                        "0x000000000000000000000000c2c6621c829e5cc76bbd578c08c8abd2a23ef268",
                        "0x00000000000000000000000000000000000000000000000003600320b45a9191"
                    ]
                },
                "nodeType": 1
            },
            "2": {
                "invocation": {
                    "address": "0x07ee93aeea0a36fff2a9b95dd22bd6049ee54f26",
                    "callData": "0x0000000000000000000000009759a6ac90977b93b58547b4a71c78317f391a28000000000000000000000000197e90f9fad81970ba7976f33cbd77088e5d7cf7",
                    "decodedMethod": {
                        "callParams": [
                            {
                                "name": "daiJoin",
                                "type": "address",
                                "value": "0x9759a6ac90977b93b58547b4a71c78317f391a28"
                            },
                            {
                                "name": "pot",
                                "type": "address",
                                "value": "0x197e90f9fad81970ba7976f33cbd77088e5d7cf7"
                            }
                        ],
                        "constructorArguments": "",
                        "name": "exitAll",
                        "returnParams": [],
                        "signature": "exitAll(address,address)"
                    },
                    "errorInfo": "",
                    "fromAddress": "0xb04e05e7a1ea879335f7997357d9e11e2250485c",
                    "gasUsed": 141097,
                    "id": 2,
                    "methodDecoded": true,
                    "operation": "DELEGATECALL",
                    "output": "",
                    "revert": false,
                    "revertMessage": "",
                    "selector": "0xc77843b3",
                    "status": true,
                    "value": "0"
                },
                "nodeType": 0
            },
            "3": {
                "invocation": {
                    "address": "0x9759a6ac90977b93b58547b4a71c78317f391a28",
                    "callData": "0x",
                    "decodedMethod": {
                        "callParams": [],
                        "constructorArguments": "",
                        "name": "vat",
                        "returnParams": [
                            {
                                "name": "",
                                "type": "address",
                                "value": "0x35d1b3f3d7966a1dfe207aa4514c12a259a0492b"
                            }
                        ],
                        "signature": "vat()"
                    },
                    "errorInfo": "",
                    "fromAddress": "0xb04e05e7a1ea879335f7997357d9e11e2250485c",
                    "gasUsed": 1054,
                    "id": 3,
                    "methodDecoded": true,
                    "operation": "CALL",
                    "output": "0x00000000000000000000000035d1b3f3d7966a1dfe207aa4514c12a259a0492b",
                    "revert": false,
                    "revertMessage": "",
                    "selector": "0x36569e77",
                    "status": true,
                    "value": "0"
                },
                "nodeType": 0
            },
            "4": {
                "invocation": {
                    "address": "0x197e90f9fad81970ba7976f33cbd77088e5d7cf7",
                    "callData": "0x",
                    "decodedMethod": {
                        "callParams": [],
                        "constructorArguments": "",
                        "name": "drip",
                        "returnParams": [
                            {
                                "name": "tmp",
                                "type": "uint256",
                                "value": "1,006,171,814,366,946,992,685,019,992"
                            }
                        ],
                        "signature": "drip()"
                    },
                    "errorInfo": "",
                    "fromAddress": "0xb04e05e7a1ea879335f7997357d9e11e2250485c",
                    "gasUsed": 54308,
                    "id": 4,
                    "methodDecoded": true,
                    "operation": "CALL",
                    "output": "0x00000000000000000000000000000000000000000340492b59fcf891213b7358",
                    "revert": false,
                    "revertMessage": "",
                    "selector": "0x9f678cca",
                    "status": true,
                    "value": "0"
                },
                "nodeType": 0
            },
            "5": {
                "invocation": {
                    "address": "0x35d1b3f3d7966a1dfe207aa4514c12a259a0492b",
                    "callData": "0x000000000000000000000000a950524441892a31ebddf91d3ceefa04bf454466000000000000000000000000197e90f9fad81970ba7976f33cbd77088e5d7cf7000000000000000000000000012e3ff820a3e7e6d356eb973cdf2349e47d1260",
                    "decodedMethod": {
                        "callParams": [
                            {
                                "name": "u",
                                "type": "address",
                                "value": "0xa950524441892a31ebddf91d3ceefa04bf454466"
                            },
                            {
                                "name": "v",
                                "type": "address",
                                "value": "0x197e90f9fad81970ba7976f33cbd77088e5d7cf7"
                            },
                            {
                                "name": "rad",
                                "type": "uint256",
                                "value": "6,740,397,557,383,289,254,582,187,032,707,743,440,902,623,840"
                            }
                        ],
                        "constructorArguments": "",
                        "name": "suck",
                        "returnParams": [],
                        "signature": "suck(address,address,uint256)"
                    },
                    "errorInfo": "",
                    "fromAddress": "0x197e90f9fad81970ba7976f33cbd77088e5d7cf7",
                    "gasUsed": 29564,
                    "id": 5,
                    "methodDecoded": true,
                    "operation": "CALL",
                    "output": "",
                    "revert": false,
                    "revertMessage": "",
                    "selector": "0xf24e23eb",
                    "status": true,
                    "value": "0"
                },
                "nodeType": 0
            },
            "6": {
                "event": {
                    "contract": "0x35d1b3f3d7966a1dfe207aa4514c12a259a0492b",
                    "decodedLog": null,
                    "id": 6,
                    "logData": "0x000000000000000000000000000000000000000000000000000000000000002000000000000000000000000000000000000000000000000000000000000000e0f24e23eb000000000000000000000000a950524441892a31ebddf91d3ceefa04bf454466000000000000000000000000197e90f9fad81970ba7976f33cbd77088e5d7cf7000000000000000000000000012e3ff820a3e7e6d356eb973cdf2349e47d126000000000000000000000000000000000000000000000000000000000000000000000000000000000000000000000000000000000000000000000000000000000000000000000000000000000000000000000000000000000000000000000000000000000000000000000000000000000000000000000000000000000",
                    "logDecoded": false,
                    "operation": "EVENT",
                    "revert": false,
                    "status": true,
                    "topics": [
                        "0xf24e23eb00000000000000000000000000000000000000000000000000000000",
                        "0x000000000000000000000000a950524441892a31ebddf91d3ceefa04bf454466",
                        "0x000000000000000000000000197e90f9fad81970ba7976f33cbd77088e5d7cf7",
                        "0x000000000000000000000000012e3ff820a3e7e6d356eb973cdf2349e47d1260"
                    ]
                },
                "nodeType": 1
            },
            "7": {
                "event": {
                    "contract": "0x197e90f9fad81970ba7976f33cbd77088e5d7cf7",
                    "decodedLog": null,
                    "id": 7,
                    "logData": "0x000000000000000000000000000000000000000000000000000000000000002000000000000000000000000000000000000000000000000000000000000000e09f678cca00000000000000000000000000000000000000000000000000000000000000000000000000000000000000000000000000000000000000000000000000000000000000000000000000000000000000000000000000000000000000000000000000000000000000000000000000000000000000000000000000000000000000000000000000000000000000000000000000000000000000000000000000000000000000000000000000000000000000000000000000000000000000000000000000000000000000000000000000000000000000000000000000000000",
                    "logDecoded": false,
                    "operation": "EVENT",
                    "revert": false,
                    "status": true,
                    "topics": [
                        "0x9f678cca00000000000000000000000000000000000000000000000000000000",
                        "0x000000000000000000000000b04e05e7a1ea879335f7997357d9e11e2250485c",
                        "0x0000000000000000000000000000000000000000000000000000000000000000",
                        "0x0000000000000000000000000000000000000000000000000000000000000000"
                    ]
                },
                "nodeType": 1
            },
            "8": {
                "invocation": {
                    "address": "0x197e90f9fad81970ba7976f33cbd77088e5d7cf7",
                    "callData": "0x000000000000000000000000b04e05e7a1ea879335f7997357d9e11e2250485c",
                    "decodedMethod": {
                        "callParams": [
                            {
                                "name": "",
                                "type": "address",
                                "value": "0xb04e05e7a1ea879335f7997357d9e11e2250485c"
                            }
                        ],
                        "constructorArguments": "",
                        "name": "pie",
                        "returnParams": [
                            {
                                "name": "",
                                "type": "uint256",
                                "value": "241,706,053,981,139,110"
                            }
                        ],
                        "signature": "pie(address)"
                    },
                    "errorInfo": "",
                    "fromAddress": "0xb04e05e7a1ea879335f7997357d9e11e2250485c",
                    "gasUsed": 1215,
                    "id": 8,
                    "methodDecoded": true,
                    "operation": "STATICCALL",
                    "output": "0x000000000000000000000000000000000000000000000000035ab6601f9b70a6",
                    "revert": false,
                    "revertMessage": "",
                    "selector": "0x0bebac86",
                    "status": true,
                    "value": "0"
                },
                "nodeType": 0
            },
            "9": {
                "invocation": {
                    "address": "0x197e90f9fad81970ba7976f33cbd77088e5d7cf7",
                    "callData": "0x000000000000000000000000000000000000000000000000035ab6601f9b70a6",
                    "decodedMethod": {
                        "callParams": [
                            {
                                "name": "wad",
                                "type": "uint256",
                                "value": "241,706,053,981,139,110"
                            }
                        ],
                        "constructorArguments": "",
                        "name": "exit",
                        "returnParams": [],
                        "signature": "exit(uint256)"
                    },
                    "errorInfo": "",
                    "fromAddress": "0xb04e05e7a1ea879335f7997357d9e11e2250485c",
                    "gasUsed": 33736,
                    "id": 9,
                    "methodDecoded": true,
                    "operation": "CALL",
                    "output": "",
                    "revert": false,
                    "revertMessage": "",
                    "selector": "0x7f8661a1",
                    "status": true,
                    "value": "0"
                },
                "nodeType": 0
            }
        },
        "gasFlame": [
            {
                "children": [
                    {
                        "children": [
                            {
                                "children": [],
                                "depth": 0,
                                "name": "Initial Gas",
                                "value": 22624
                            },
                            {
                                "children": [
                                    {
                                        "children": [
                                            {
                                                "children": [],
                                                "depth": 2,
                                                "name": "vat",
                                                "value": 1054
                                            },
                                            {
                                                "children": [
                                                    {
                                                        "children": [],
                                                        "depth": 3,
                                                        "name": "suck",
                                                        "value": 29564
                                                    }
                                                ],
                                                "depth": 2,
                                                "name": "drip",
                                                "value": 54308
                                            },
                                            {
                                                "children": [],
                                                "depth": 2,
                                                "name": "pie",
                                                "value": 1215
                                            },
                                            {
                                                "children": [
                                                    {
                                                        "children": [],
                                                        "depth": 3,
                                                        "name": "move",
                                                        "value": 13743
                                                    }
                                                ],
                                                "depth": 2,
                                                "name": "exit",
                                                "value": 33736
                                            },
                                            {
                                                "children": [],
                                                "depth": 2,
                                                "name": "can",
                                                "value": 1313
                                            },
                                            {
                                                "children": [
                                                    {
                                                        "children": [],
                                                        "depth": 3,
                                                        "name": "move",
                                                        "value": 13743
                                                    },
                                                    {
                                                        "children": [],
                                                        "depth": 3,
                                                        "name": "mint",
                                                        "value": 15045
                                                    }
                                                ],
                                                "depth": 2,
                                                "name": "exit",
                                                "value": 39301
                                            }
                                        ],
                                        "depth": 1,
                                        "name": "exitAll",
                                        "value": 141097
                                    }
                                ],
                                "depth": 0,
                                "name": "Executed Gas",
                                "value": 148302
                            }
                        ],
                        "depth": -1,
                        "name": "Actual Gas Used",
                        "value": 155926
                    },
                    {
                        "children": [],
                        "depth": -1,
                        "name": "Refunded Gas",
                        "value": 15000
                    }
                ],
                "depth": -2,
                "name": "Total Gas",
                "value": 170926
            }
        ],
        "isConfirmed": true,
        "mainTrace": [
            {
                "children": [
                    {
                        "children": [
                            {
                                "children": [],
                                "depth": 1,
                                "id": 1,
                                "order": 1
                            },
                            {
                                "children": [
                                    {
                                        "children": [],
                                        "depth": 2,
                                        "id": 3,
                                        "order": 3
                                    },
                                    {
                                        "children": [
                                            {
                                                "children": [
                                                    {
                                                        "children": [],
                                                        "depth": 4,
                                                        "id": 6,
                                                        "order": 6
                                                    }
                                                ],
                                                "depth": 3,
                                                "id": 5,
                                                "order": 5
                                            },
                                            {
                                                "children": [],
                                                "depth": 3,
                                                "id": 7,
                                                "order": 7
                                            }
                                        ],
                                        "depth": 2,
                                        "id": 4,
                                        "order": 4
                                    },
                                    {
                                        "children": [],
                                        "depth": 2,
                                        "id": 8,
                                        "order": 8
                                    },
                                    {
                                        "children": [
                                            {
                                                "children": [
                                                    {
                                                        "children": [],
                                                        "depth": 4,
                                                        "id": 11,
                                                        "order": 11
                                                    }
                                                ],
                                                "depth": 3,
                                                "id": 10,
                                                "order": 10
                                            },
                                            {
                                                "children": [],
                                                "depth": 3,
                                                "id": 12,
                                                "order": 12
                                            }
                                        ],
                                        "depth": 2,
                                        "id": 9,
                                        "order": 9
                                    },
                                    {
                                        "children": [],
                                        "depth": 2,
                                        "id": 13,
                                        "order": 13
                                    },
                                    {
                                        "children": [
                                            {
                                                "children": [
                                                    {
                                                        "children": [],
                                                        "depth": 4,
                                                        "id": 16,
                                                        "order": 16
                                                    }
                                                ],
                                                "depth": 3,
                                                "id": 15,
                                                "order": 15
                                            },
                                            {
                                                "children": [
                                                    {
                                                        "children": [],
                                                        "depth": 4,
                                                        "id": 18,
                                                        "order": 18
                                                    }
                                                ],
                                                "depth": 3,
                                                "id": 17,
                                                "order": 17
                                            },
                                            {
                                                "children": [],
                                                "depth": 3,
                                                "id": 19,
                                                "order": 19
                                            }
                                        ],
                                        "depth": 2,
                                        "id": 14,
                                        "order": 14
                                    }
                                ],
                                "depth": 1,
                                "id": 2,
                                "order": 2
                            }
                        ],
                        "depth": 0,
                        "id": 0,
                        "order": 0
                    }
                ],
                "depth": -1,
                "id": -1,
                "order": -1
            }
        ],
        "mainTraceNodeCount": 20,
        "parentIdMap": {
            "0": -1,
            "1": 0,
            "10": 9,
            "11": 10,
            "12": 9,
            "13": 2,
            "14": 2,
            "15": 14,
            "16": 15,
            "17": 14,
            "18": 17,
            "19": 14,
            "2": 0,
            "3": 2,
            "4": 2,
            "5": 4,
            "6": 5,
            "7": 4,
            "8": 2,
            "9": 2
        },
        "tidyTrace": [
            {
                "children": [
                    {
                        "children": [
                            {
                                "children": [],
                                "depth": 1,
                                "id": 1,
                                "order": 1
                            },
                            {
                                "children": [
                                    {
                                        "children": [],
                                        "depth": 2,
                                        "id": 3,
                                        "order": 3
                                    },
                                    {
                                        "children": [
                                            {
                                                "children": [
                                                    {
                                                        "children": [],
                                                        "depth": 4,
                                                        "id": 6,
                                                        "order": 6
                                                    }
                                                ],
                                                "depth": 3,
                                                "id": 5,
                                                "order": 5
                                            },
                                            {
                                                "children": [],
                                                "depth": 3,
                                                "id": 7,
                                                "order": 7
                                            }
                                        ],
                                        "depth": 2,
                                        "id": 4,
                                        "order": 4
                                    },
                                    {
                                        "children": [
                                            {
                                                "children": [
                                                    {
                                                        "children": [],
                                                        "depth": 4,
                                                        "id": 11,
                                                        "order": 11
                                                    }
                                                ],
                                                "depth": 3,
                                                "id": 10,
                                                "order": 10
                                            },
                                            {
                                                "children": [],
                                                "depth": 3,
                                                "id": 12,
                                                "order": 12
                                            }
                                        ],
                                        "depth": 2,
                                        "id": 9,
                                        "order": 9
                                    },
                                    {
                                        "children": [
                                            {
                                                "children": [
                                                    {
                                                        "children": [],
                                                        "depth": 4,
                                                        "id": 16,
                                                        "order": 16
                                                    }
                                                ],
                                                "depth": 3,
                                                "id": 15,
                                                "order": 15
                                            },
                                            {
                                                "children": [
                                                    {
                                                        "children": [],
                                                        "depth": 4,
                                                        "id": 18,
                                                        "order": 18
                                                    }
                                                ],
                                                "depth": 3,
                                                "id": 17,
                                                "order": 17
                                            },
                                            {
                                                "children": [],
                                                "depth": 3,
                                                "id": 19,
                                                "order": 19
                                            }
                                        ],
                                        "depth": 2,
                                        "id": 14,
                                        "order": 14
                                    }
                                ],
                                "depth": 1,
                                "id": 2,
                                "order": 2
                            }
                        ],
                        "depth": 0,
                        "id": 0,
                        "order": 0
                    }
                ],
                "depth": -1,
                "id": -1,
                "order": -1
            }
        ],
        "tidyTraceNodeCount": 18
    },
    "state_change": {
        "stateChanges": [
            {
                "address": "0x197e90f9fad81970ba7976f33cbd77088e5d7cf7",
                "erc": "",
                "slots": [
                    {
                        "current": "0x0000000000000000000000000000000000000000000000000000000000000000",
                        "key": "0xd3127c447b6cf6ddda130fcb5274df683eafec70ca2456ca28b5e58aaee37b44",
                        "prev": "0x000000000000000000000000000000000000000000000000035ab6601f9b70a6"
                    },
                    {
                        "current": "0x00000000000000000000000000000000000000000021b279eb1eb04f15240e5e",
                        "key": "0x0000000000000000000000000000000000000000000000000000000000000002",
                        "prev": "0x00000000000000000000000000000000000000000021b279ee7966af34bf7f04"
                    },
                    {
                        "current": "0x00000000000000000000000000000000000000000340492b59fcf891213b7358",
                        "key": "0x0000000000000000000000000000000000000000000000000000000000000004",
                        "prev": "0x00000000000000000000000000000000000000000340492261c5d0fd740e88c0"
                    },
                    {
                        "current": "0x000000000000000000000000000000000000000000000000000000005e21441f",
                        "key": "0x0000000000000000000000000000000000000000000000000000000000000007",
                        "prev": "0x000000000000000000000000000000000000000000000000000000005e2143c6"
                    }
                ],
                "storageVariables": [
                    {
                        "name": "chi",
                        "type": "uint256",
                        "value": {
                            "current": "1006171814366946992685019992",
                            "prev": "1006171648907186442664315072",
                            "typeTag": 1
                        }
                    },
                    {
                        "name": "rho",
                        "type": "uint256",
                        "value": {
                            "current": "1579238431",
                            "prev": "1579238342",
                            "typeTag": 1
                        }
                    },
                    {
                        "name": "pie",
                        "type": "mapping(address => uint256)",
                        "value": {
                            "pairs": [
                                {
                                    "key": "0xb04e05e7a1ea879335f7997357d9e11e2250485c",
                                    "value": {
                                        "current": "0",
                                        "prev": "241706053981139110",
                                        "typeTag": 1
                                    }
                                }
                            ],
                            "typeTag": 4
                        }
                    },
                    {
                        "name": "Pie",
                        "type": "uint256",
                        "value": {
                            "current": "40737382279439180387061342",
                            "prev": "40737382521145234368200452",
                            "typeTag": 1
                        }
                    }
                ]
            },
            {
                "address": "0x35d1b3f3d7966a1dfe207aa4514c12a259a0492b",
                "erc": "",
                "slots": [
                    {
                        "current": "0x0000000000000000000000028c7161d3d0e5fee269b79b3dc74174ddb4ef1151",
                        "key": "0x28a128182def124ffd37b99aa1b5245310ac3b04c22287734a96f7439281e568",
                        "prev": "0x0000000000000000000000028b4321dbb04216fb9660afa68a625193d071fef1"
                    },
                    {
                        "current": "0x000000000000000000006d8dadd5ba9c0a348fa882324ce12992da15e4832a50",
                        "key": "0x8c2f1e6e530ee17093fcf120bbda6ce86130d5977da1c5e534b2a805f38fc50d",
                        "prev": "0x000000000000000000006d8dacb2626a1163460d25b0ae56559d86680d516300"
                    },
                    {
                        "current": "0x0000000000000000000000028c7161d3d0e5fee269b79b3dc74174ddb4ef1151",
                        "key": "0x0000000000000000000000000000000000000000000000000000000000000008",
                        "prev": "0x0000000000000000000000028b4321dbb04216fb9660afa68a625193d071fef1"
                    },
                    {
                        "current": "0x00000000000000000000f0c5992b2b0ab1004fbd983da4f7604aa57be78b4ec3",
                        "key": "0x0000000000000000000000000000000000000000000000000000000000000007",
                        "prev": "0x00000000000000000000f0c597fceb12905c67d6c4e6b960236b8232030e3c63"
                    },
                    {
                        "current": "0x00000000000000000000000000000000000000000a407bdfb70ef65ade87afc1",
                        "key": "0xbdd442746993b59b8c96594d50fcfcfdbb6daf1eccc5442615b47bac86dadd28",
                        "prev": "0x000000000000000000000000000000000000000007ef3d7bd469d8a6393c64b1"
                    },
                    {
                        "current": "0x0000000000000000000080d0e62865bf684c0de1e88e690da837040938000000",
                        "key": "0x7adce341587c7ad28f80a9ef54da0d2f0bfd917b11856be2d246a8c66685b1a0",
                        "prev": "0x0000000000000000000080d0e61d7df940796f96740a5a6521f25221d0000000"
                    }
                ],
                "storageVariables": [
                    {
                        "name": "sin",
                        "type": "mapping(address => uint256)",
                        "value": {
                            "pairs": [
                                {
                                    "key": "0xa950524441892a31ebddf91d3ceefa04bf454466",
                                    "value": {
                                        "current": "3724790488753565760051132783180984653477130998097",
                                        "prev": "3718050091196182470796550596148276910036228374257",
                                        "typeTag": 1
                                    }
                                }
                            ],
                            "typeTag": 4
                        }
                    },
                    {
                        "name": "vice",
                        "type": "uint256",
                        "value": {
                            "current": "3724790488753565760051132783180984653477130998097",
                            "prev": "3718050091196182470796550596148276910036228374257",
                            "typeTag": 1
                        }
                    },
                    {
                        "name": "debt",
                        "type": "uint256",
                        "value": {
                            "current": "90083450858434309147292010309380367847725410982514371",
                            "prev": "90083444118036751764002755727193335139981970079890531",
                            "typeTag": 1
                        }
                    },
                    {
                        "name": "dai",
                        "type": "mapping(address => uint256)",
                        "value": {
                            "pairs": [
                                {
                                    "key": "0x197e90f9fad81970ba7976f33cbd77088e5d7cf7",
                                    "value": {
                                        "current": "40988805840663234950022964582554312279614581400349264",
                                        "prev": "40988799343463496444411679717554919884439741780812544",
                                        "typeTag": 1
                                    }
                                },
                                {
                                    "key": "0x9759a6ac90977b93b58547b4a71c78317f391a28",
                                    "value": {
                                        "current": "48195791961394425500797587000000000000000000000000000",
                                        "prev": "48195791718196606623119618000000000000000000000000000",
                                        "typeTag": 1
                                    }
                                },
                                {
                                    "key": "0xb04e05e7a1ea879335f7997357d9e11e2250485c",
                                    "value": {
                                        "current": "3172806328560859586775986113",
                                        "prev": "2455618688248290985492898993",
                                        "typeTag": 1
                                    }
                                }
                            ],
                            "typeTag": 4
                        }
                    }
                ]
            },
            {
                "address": "0x6b175474e89094c44da98b954eedeac495271d0f",
                "erc": "ERC-20",
                "slots": [
                    {
                        "current": "0x00000000000000000000000000000000000000000027dddb1e11de83dee00a93",
                        "key": "0x0000000000000000000000000000000000000000000000000000000000000001",
                        "prev": "0x00000000000000000000000000000000000000000027dddb1ab1db632a857902"
                    },
                    {
                        "current": "0x000000000000000000000000000000000000000000000006f3bb5cf4665a9191",
                        "key": "0x0a8fa50c89663b385423ea44cbe3563aba3f3a55e93bebeba33de6ebcb3d01e3",
                        "prev": "0x000000000000000000000000000000000000000000000006f05b59d3b2000000"
                    }
                ],
                "storageVariables": [
                    {
                        "name": "balanceOf",
                        "type": "mapping(address => uint256)",
                        "value": {
                            "pairs": [
                                {
                                    "key": "0xc2c6621c829e5cc76bbd578c08c8abd2a23ef268",
                                    "value": {
                                        "current": "128243197818877677969",
                                        "prev": "128000000000000000000",
                                        "typeTag": 1
                                    }
                                }
                            ],
                            "typeTag": 4
                        }
                    },
                    {
                        "name": "totalSupply",
                        "type": "uint256",
                        "value": {
                            "current": "48195791961394425500797587",
                            "prev": "48195791718196606623119618",
                            "typeTag": 1
                        }
                    }
                ]
            }
        ]
    }
}