{
    "balance_change": {
        "balanceChanges": [
            {
                "account": "0xf3b4a7527316609b73ad27500173dd08299bad87",
                "assets": [
                    {
                        "address": "0x923c90b98ee834d118c85ddf44906ee1769df648",
                        "amount": "2,020,202.020202",
                        "iconUrl": "",
                        "isERC1155": false,
                        "isERC721": false,
                        "sign": true,
                        "value": ""
                    }
                ]
            },
            {
                "account": "0x923c90b98ee834d118c85ddf44906ee1769df648",
                "assets": [
                    {
                        "address": "0x923c90b98ee834d118c85ddf44906ee1769df648",
                        "amount": "2,020,202.020202",
                        "iconUrl": "",
                        "isERC1155": false,
                        "isERC721": false,
                        "sign": false,
                        "value": ""
                    }
                ]
            }
        ]
    },
    "profile": {
        "basic_info": {
            "baseFee": "",
            "blockNumber": 9142509,
            "callData": "0x069f5bdd000000000000000000000000f3b4a7527316609b73ad27500173dd08299bad87",
            "debugEnable": true,
            "errorInfo": "",
            "eventCount": 1,
            "feeRecipient": "0x5a0b54d5dc17e0aadc383d2db43b0a0d3e029c4c",
            "formatValue": "0",
            "gasLimit": 52262,
            "gasPrice": "1",
            "gasUsed": 47262,
            "intTxnCount": 0,
            "internalRevert": false,
            "internalRevertMessage": "",
            "isContractCreation": false,
            "isFlashloan": false,
            "maxFee": "",
            "nonce": 38,
            "overwritedBlockNumber": -1,
            "priorityFee": "",
            "receiver": "0x923c90b98ee834d118c85ddf44906ee1769df648",
            "revertMessage": "",
            "sender": "0xf3b4a7527316609b73ad27500173dd08299bad87",
            "simulationEnable": true,
            "sourceTxnHash": "0xe43b0275c93590732763b93af4fd16815f7be8cfe35ac7552fb2af7e81422845",
            "status": true,
            "timestamp": "2019-12-21T21:19:03Z",
            "transactionFee": "0.000047262",
            "txnHash": "0xe43b0275c93590732763b93af4fd16815f7be8cfe35ac7552fb2af7e81422845",
            "txnIndex": 27,
            "type": 0,
            "value": "0"
        },
        "fund_flow": [
            {
                "amount": "2,020,202.020202",
                "from": "0x923c90b98ee834d118c85ddf44906ee1769df648",
                "id": 1,
                "isERC1155": false,
                "isERC721": false,
                "isReverted": false,
                "order": 1,
                "to": "0xf3b4a7527316609b73ad27500173dd08299bad87",
                "token": "0x923c90b98ee834d118c85ddf44906ee1769df648"
            }
        ],
        "token_infos": [
            {
                "address": "0x923c90b98ee834d118c85ddf44906ee1769df648",
                "decimals": 6
            },
            {
                "address": "0xc02aaa39b223fe8d0a0e5c4f27ead9083c756cc2",
                "decimals": 18
            },
            {
                "address": "0xeeeeeeeeeeeeeeeeeeeeeeeeeeeeeeeeeeeeeeee",
                "decimals": 18
            }
        ]
    },
    "address_label": {
        "labels": [
            {
                "address": "0x0000000000000000000000000000000000000002",
                "label": "Precompiled"
            },
            {
                "address": "0x0000000000000000000000000000000000000003",
                "label": "Precompiled"
            },
            {
                "address": "0x0000000000000000000000000000000000000004",
                "label": "Precompiled"
            },
            {
                "address": "0xeeeeeeeeeeeeeeeeeeeeeeeeeeeeeeeeeeeeeeee",
                "label": "Ether"
            },
            {
                "address": "0x923c90b98ee834d118c85ddf44906ee1769df648",
                "label": "Qitcoin (QTC)"
            },
            {
                "address": "0x0000000000000000000000000000000000000001",
                "label": "Precompiled"
            }
        ]
    },
    "trace": {
        "accountLabels": null,
        "dataMap": {
            "-1": {
                "invocation": {
                    "address": "0xf3b4a7527316609b73ad27500173dd08299bad87",
                    "callData": "",
                    "decodedMethod": null,
                    "errorInfo": "",
                    "fromAddress": "",
                    "gasUsed": 0,
                    "id": -1,
                    "methodDecoded": false,
                    "operation": "",
                    "output": "",
                    "revert": false,
                    "revertMessage": "",
                    "selector": "",
                    "status": false,
                    "value": ""
                },
                "nodeType": 0
            },
            "0": {
                "invocation": {
                    "address": "0x923c90b98ee834d118c85ddf44906ee1769df648",
                    "callData": "0x000000000000000000000000f3b4a7527316609b73ad27500173dd08299bad87",
                    "decodedMethod": {
                        "callParams": [
                            {
                                "name": "_refer",
                                "type": "address",
                                "value": "0xf3b4a7527316609b73ad27500173dd08299bad87"
                            }
                        ],
                        "constructorArguments": "",
                        "name": "getAirdrop",
                        "returnParams": [
                            {
                                "name": "success",
                                "type": "bool",
                                "value": true
                            }
                        ],
                        "signature": "getAirdrop(address)"
                    },
                    "errorInfo": "",
                    "fromAddress": "0xf3b4a7527316609b73ad27500173dd08299bad87",
                    "gasUsed": 47262,
                    "id": 0,
                    "methodDecoded": true,
                    "operation": "CALL",
                    "output": "0x0000000000000000000000000000000000000000000000000000000000000001",
                    "revert": false,
                    "revertMessage": "",
                    "selector": "0x069f5bdd",
                    "status": true,
                    "value": "0"
                },
                "nodeType": 0
            },
            "1": {
                "event": {
                    "contract": "0x923c90b98ee834d118c85ddf44906ee1769df648",
                    "decodedLog": {
                        "name": "Transfer",
                        "params": [
                            {
                                "name": "from",
                                "type": "address",
                                "value": "0x923c90b98ee834d118c85ddf44906ee1769df648"
                            },
                            {
                                "name": "to",
                                "type": "address",
                                "value": "0xf3b4a7527316609b73ad27500173dd08299bad87"
                            },
                            {
                                "decimalAvailable": true,
                                "name": "tokens",
                                "type": "uint256",
                                "value": "2,020,202,020,202"
                            }
                        ],
                        "signature": "Transfer(address,address,uint256)"
                    },
                    "id": 1,
                    "logData": "0x000000000000000000000000000000000000000000000000000001d65d6c7d6a",
                    "logDecoded": true,
                    "operation": "EVENT",
                    "revert": false,
                    "status": true,
                    "topics": [
                        "0xddf252ad1be2c89b69c2b068fc378daa952ba7f163c4a11628f55a4df523b3ef",
                        "0x000000000000000000000000923c90b98ee834d118c85ddf44906ee1769df648",
                        "0x000000000000000000000000f3b4a7527316609b73ad27500173dd08299bad87"
                    ]
                },
                "nodeType": 1
            }
        },
        "gasFlame": [
            {
                "children": [
                    {
                        "children": [
                            {
                                "children": [],
                                "depth": 0,
                                "name": "Initial Gas",
                                "value": 21432
                            },
                            {
                                "children": [],
                                "depth": 0,
                                "name": "Executed Gas",
                                "value": 25830
                            }
                        ],
                        "depth": -1,
                        "name": "Actual Gas Used",
                        "value": 47262
                    },
                    {
                        "children": [],
                        "depth": -1,
                        "name": "Refunded Gas",
                        "value": 0
                    }
                ],
                "depth": -2,
                "name": "Total Gas",
                "value": 47262
            }
        ],
        "isConfirmed": true,
        "mainTrace": [
            {
                "children": [
                    {
                        "children": [
                            {
                                "children": [],
                                "depth": 1,
                                "id": 1,
                                "order": 1
                            }
                        ],
                        "depth": 0,
                        "id": 0,
                        "order": 0
                    }
                ],
                "depth": -1,
                "id": -1,
                "order": -1
            }
        ],
        "mainTraceNodeCount": 2,
        "parentIdMap": {
            "0": -1,
            "1": 0
        },
        "tidyTrace": [
            {
                "children": [
                    {
                        "children": [
                            {
                                "children": [],
                                "depth": 1,
                                "id": 1,
                                "order": 1
                            }
                        ],
                        "depth": 0,
                        "id": 0,
                        "order": 0
                    }
                ],
                "depth": -1,
                "id": -1,
                "order": -1
            }
        ],
        "tidyTraceNodeCount": 2
    },
    "state_change": {
        "stateChanges": [
            {
                "address": "0x923c90b98ee834d118c85ddf44906ee1769df648",
                "erc": "ERC-20",
                "slots": [
                    {
                        "current": "0x00000000000000000000000000000000000000000000000676c2cb17a26fcfb5",
                        "key": "0xd47b7a6c191130aee8766331d37dfea5161e485881d7e0cb3469e5ff7cf7fdee",
                        "prev": "0x00000000000000000000000000000000000000000000000676c2ccedffdc4d1f"
                    },
                    {
                        "current": "0x00000000000000000000000000000000000000000000000000014c900db4abf4",
                        "key": "0x30721a5764d183d8d966fa22423b1c4966919b47f199eb01904247eb96cdb446",
                        "prev": "0x00000000000000000000000000000000000000000000000000014ab9b0482e8a"
                    },
                    {
                        "current": "0x000000000000000000000000000000000000000000000000000000000000252f",
                        "key": "0x000000000000000000000000000000000000000000000000000000000000000b",
                        "prev": "0x000000000000000000000000000000000000000000000000000000000000252e"
                    }
                ],
                "storageVariables": [
                    {
                        "name": "balances",
                        "type": "mapping(address => uint256)",
                        "value": {
                            "pairs": [
                                {
                                    "key": "0x923c90b98ee834d118c85ddf44906ee1769df648",
                                    "value": {
                                        "current": "119238089986584596405",
                                        "prev": "119238092006786616607",
                                        "typeTag": 1
                                    }
                                },
                                {
                                    "key": "0xf3b4a7527316609b73ad27500173dd08299bad87",
                                    "value": {
                                        "current": "365656565656564",
                                        "prev": "363636363636362",
                                        "typeTag": 1
                                    }
                                }
                            ],
                            "typeTag": 4
                        }
                    },
                    {
                        "name": "aTot",
                        "type": "uint256",
                        "value": {
                            "current": "9519",
                            "prev": "9518",
                            "typeTag": 1
                        }
                    }
                ]
            }
        ]
    }
}