{
    "balance_change": {
        "balanceChanges": [
            {
                "account": "0x43c07fee49654c329869d2c896e0eebd62dcf891",
                "assets": [
                    {
                        "address": "0xc9699b8f83264275953c75d48e27aa6f0c5974d5",
                        "amount": "5,646,600",
                        "iconUrl": "",
                        "isERC1155": false,
                        "isERC721": false,
                        "sign": false,
                        "value": ""
                    }
                ]
            },
            {
                "account": "0x736ea9a6bbbbf4524fc6964de1c3e6ab9a43e90b",
                "assets": [
                    {
                        "address": "0xc9699b8f83264275953c75d48e27aa6f0c5974d5",
                        "amount": "5,646,600",
                        "iconUrl": "",
                        "isERC1155": false,
                        "isERC721": false,
                        "sign": true,
                        "value": ""
                    }
                ]
            }
        ]
    },
    "profile": {
        "basic_info": {
            "baseFee": "",
            "blockNumber": 10505264,
            "callData": "0xa9059cbb000000000000000000000000736ea9a6bbbbf4524fc6964de1c3e6ab9a43e90b0000000000000000000000000000000000000000000000000000000000562908",
            "debugEnable": true,
            "errorInfo": "",
            "eventCount": 1,
            "feeRecipient": "0x5a0b54d5dc17e0aadc383d2db43b0a0d3e029c4c",
            "formatValue": "0",
            "gasLimit": 78030,
            "gasPrice": "98",
            "gasUsed": 38729,
            "intTxnCount": 0,
            "internalRevert": false,
            "internalRevertMessage": "",
            "isContractCreation": false,
            "isFlashloan": false,
            "maxFee": "",
            "nonce": 1,
            "overwritedBlockNumber": -1,
            "priorityFee": "",
            "receiver": "0xc9699b8f83264275953c75d48e27aa6f0c5974d5",
            "revertMessage": "",
            "sender": "0x43c07fee49654c329869d2c896e0eebd62dcf891",
            "simulationEnable": true,
            "sourceTxnHash": "0xe4c130c31b0d5f528317091890a2806849fbdd6973af1d0a6a059d20c4e04789",
            "status": true,
            "timestamp": "2020-07-21T21:44:52Z",
            "transactionFee": "0.003795442",
            "txnHash": "0xe4c130c31b0d5f528317091890a2806849fbdd6973af1d0a6a059d20c4e04789",
            "txnIndex": 5,
            "type": 0,
            "value": "0"
        },
        "fund_flow": [
            {
                "amount": "5,646,600",
                "from": "0x43c07fee49654c329869d2c896e0eebd62dcf891",
                "id": 1,
                "isERC1155": false,
                "isERC721": false,
                "isReverted": false,
                "order": 1,
                "to": "0x736ea9a6bbbbf4524fc6964de1c3e6ab9a43e90b",
                "token": "0xc9699b8f83264275953c75d48e27aa6f0c5974d5"
            }
        ],
        "token_infos": [
            {
                "address": "0xeeeeeeeeeeeeeeeeeeeeeeeeeeeeeeeeeeeeeeee",
                "decimals": 18
            },
            {
                "address": "0xc02aaa39b223fe8d0a0e5c4f27ead9083c756cc2",
                "decimals": 18
            }
        ]
    },
    "address_label": {
        "labels": [
            {
                "address": "0xc9699b8f83264275953c75d48e27aa6f0c5974d5",
                "label": "HB"
            },
            {
                "address": "0x0000000000000000000000000000000000000001",
                "label": "Precompiled"
            },
            {
                "address": "0x0000000000000000000000000000000000000002",
                "label": "Precompiled"
            },
            {
                "address": "0x0000000000000000000000000000000000000003",
                "label": "Precompiled"
            },
            {
                "address": "0x0000000000000000000000000000000000000004",
                "label": "Precompiled"
            },
            {
                "address": "0xeeeeeeeeeeeeeeeeeeeeeeeeeeeeeeeeeeeeeeee",
                "label": "Ether"
            }
        ]
    },
    "trace": {
        "accountLabels": null,
        "dataMap": {
            "-1": {
                "invocation": {
                    "address": "0x43c07fee49654c329869d2c896e0eebd62dcf891",
                    "callData": "",
                    "decodedMethod": null,
                    "errorInfo": "",
                    "fromAddress": "",
                    "gasUsed": 0,
                    "id": -1,
                    "methodDecoded": false,
                    "operation": "",
                    "output": "",
                    "revert": false,
                    "revertMessage": "",
                    "selector": "",
                    "status": false,
                    "value": ""
                },
                "nodeType": 0
            },
            "0": {
                "invocation": {
                    "address": "0xc9699b8f83264275953c75d48e27aa6f0c5974d5",
                    "callData": "0x000000000000000000000000736ea9a6bbbbf4524fc6964de1c3e6ab9a43e90b0000000000000000000000000000000000000000000000000000000000562908",
                    "decodedMethod": {
                        "callParams": [
                            {
                                "name": "_to",
                                "type": "address",
                                "value": "0x736ea9a6bbbbf4524fc6964de1c3e6ab9a43e90b"
                            },
                            {
                                "decimalAvailable": true,
                                "name": "_value",
                                "type": "uint256",
                                "value": "5,646,600"
                            }
                        ],
                        "constructorArguments": "",
                        "name": "transfer",
                        "returnParams": [
                            {
                                "name": "success",
                                "type": "bool",
                                "value": true
                            }
                        ],
                        "signature": "transfer(address,uint256)"
                    },
                    "errorInfo": "",
                    "fromAddress": "0x43c07fee49654c329869d2c896e0eebd62dcf891",
                    "gasUsed": 38729,
                    "id": 0,
                    "methodDecoded": true,
                    "operation": "CALL",
                    "output": "0x0000000000000000000000000000000000000000000000000000000000000001",
                    "revert": false,
                    "revertMessage": "",
                    "selector": "0xa9059cbb",
                    "status": true,
                    "value": "0"
                },
                "nodeType": 0
            },
            "1": {
                "event": {
                    "contract": "0xc9699b8f83264275953c75d48e27aa6f0c5974d5",
                    "decodedLog": {
                        "name": "Transfer",
                        "params": [
                            {
                                "name": "_from",
                                "type": "address",
                                "value": "0x43c07fee49654c329869d2c896e0eebd62dcf891"
                            },
                            {
                                "name": "_to",
                                "type": "address",
                                "value": "0x736ea9a6bbbbf4524fc6964de1c3e6ab9a43e90b"
                            },
                            {
                                "decimalAvailable": true,
                                "name": "_value",
                                "type": "uint256",
                                "value": "5,646,600"
                            }
                        ],
                        "signature": "Transfer(address,address,uint256)"
                    },
                    "id": 1,
                    "logData": "0x0000000000000000000000000000000000000000000000000000000000562908",
                    "logDecoded": true,
                    "operation": "EVENT",
                    "revert": false,
                    "status": true,
                    "topics": [
                        "0xddf252ad1be2c89b69c2b068fc378daa952ba7f163c4a11628f55a4df523b3ef",
                        "0x00000000000000000000000043c07fee49654c329869d2c896e0eebd62dcf891",
                        "0x000000000000000000000000736ea9a6bbbbf4524fc6964de1c3e6ab9a43e90b"
                    ]
                },
                "nodeType": 1
            }
        },
        "gasFlame": [
            {
                "children": [
                    {
                        "children": [
                            {
                                "children": [],
                                "depth": 0,
                                "name": "Initial Gas",
                                "value": 21596
                            },
                            {
                                "children": [],
                                "depth": 0,
                                "name": "Executed Gas",
                                "value": 17133
                            }
                        ],
                        "depth": -1,
                        "name": "Actual Gas Used",
                        "value": 38729
                    },
                    {
                        "children": [],
                        "depth": -1,
                        "name": "Refunded Gas",
                        "value": 0
                    }
                ],
                "depth": -2,
                "name": "Total Gas",
                "value": 38729
            }
        ],
        "isConfirmed": true,
        "mainTrace": [
            {
                "children": [
                    {
                        "children": [
                            {
                                "children": [],
                                "depth": 1,
                                "id": 1,
                                "order": 1
                            }
                        ],
                        "depth": 0,
                        "id": 0,
                        "order": 0
                    }
                ],
                "depth": -1,
                "id": -1,
                "order": -1
            }
        ],
        "mainTraceNodeCount": 2,
        "parentIdMap": {
            "0": -1,
            "1": 0
        },
        "tidyTrace": [
            {
                "children": [
                    {
                        "children": [
                            {
                                "children": [],
                                "depth": 1,
                                "id": 1,
                                "order": 1
                            }
                        ],
                        "depth": 0,
                        "id": 0,
                        "order": 0
                    }
                ],
                "depth": -1,
                "id": -1,
                "order": -1
            }
        ],
        "tidyTraceNodeCount": 2
    },
    "state_change": {
        "stateChanges": [
            {
                "address": "0xc9699b8f83264275953c75d48e27aa6f0c5974d5",
                "erc": "ERC-20",
                "slots": [
                    {
                        "current": "0x000000000000000000000000000000000000000000000000000000a99c5ebe43",
                        "key": "0xbb0983a251441549aca0c00a05abeea33959a311d94d7fd719caba4b78905f04",
                        "prev": "0x000000000000000000000000000000000000000000000000000000a99c08953b"
                    },
                    {
                        "current": "0x000000000000000000000000000000000000000000000000000000000409ec60",
                        "key": "0x1a5e58b7de03b845158a5906beef7a63c53de21a0e4d81875090c87e41912ab6",
                        "prev": "0x0000000000000000000000000000000000000000000000000000000004601568"
                    }
                ],
                "storageVariables": [
                    {
                        "name": "balances",
                        "type": "mapping(address => uint256)",
                        "value": {
                            "pairs": [
                                {
                                    "key": "0x43c07fee49654c329869d2c896e0eebd62dcf891",
                                    "value": {
                                        "current": "67759200",
                                        "prev": "73405800",
                                        "typeTag": 1
                                    }
                                },
                                {
                                    "key": "0x736ea9a6bbbbf4524fc6964de1c3e6ab9a43e90b",
                                    "value": {
                                        "current": "728472927811",
                                        "prev": "728467281211",
                                        "typeTag": 1
                                    }
                                }
                            ],
                            "typeTag": 4
                        }
                    }
                ]
            }
        ]
    }
}