{
    "balance_change": {
        "balanceChanges": [
            {
                "account": "0x36ae44758114ce41e8324a140032613792156de2",
                "assets": [
                    {
                        "address": "0xc77b230f31b517f1ef362e59c173c2be6540b5e8",
                        "amount": "5,850",
                        "iconUrl": "",
                        "isERC1155": false,
                        "isERC721": false,
                        "sign": false,
                        "value": ""
                    }
                ]
            },
            {
                "account": "0x62146fe9f6054cb259dd14607048f9ab031eba81",
                "assets": [
                    {
                        "address": "0xc77b230f31b517f1ef362e59c173c2be6540b5e8",
                        "amount": "5,850",
                        "iconUrl": "",
                        "isERC1155": false,
                        "isERC721": false,
                        "sign": true,
                        "value": ""
                    }
                ]
            }
        ]
    },
    "profile": {
        "basic_info": {
            "baseFee": "",
            "blockNumber": 9578902,
            "callData": "0xa9059cbb00000000000000000000000062146fe9f6054cb259dd14607048f9ab031eba8100000000000000000000000000000000000000000000013d210f055f23280000",
            "debugEnable": true,
            "errorInfo": "",
            "eventCount": 1,
            "feeRecipient": "0x52bc44d5378309ee2abf1539bf71de1b7d7be3b5",
            "formatValue": "0",
            "gasLimit": 108280,
            "gasPrice": "10",
            "gasUsed": 38245,
            "intTxnCount": 0,
            "internalRevert": false,
            "internalRevertMessage": "",
            "isContractCreation": false,
            "isFlashloan": false,
            "maxFee": "",
            "nonce": 23779,
            "overwritedBlockNumber": -1,
            "priorityFee": "",
            "receiver": "0xc77b230f31b517f1ef362e59c173c2be6540b5e8",
            "revertMessage": "",
            "sender": "0x36ae44758114ce41e8324a140032613792156de2",
            "simulationEnable": true,
            "sourceTxnHash": "0xe51bae55bb5ab087dc68ced56b5eb2f34722a25c1bb2ba28cefc5382ed84be0f",
            "status": true,
            "timestamp": "2020-02-29T13:26:33Z",
            "transactionFee": "0.00038245",
            "txnHash": "0xe51bae55bb5ab087dc68ced56b5eb2f34722a25c1bb2ba28cefc5382ed84be0f",
            "txnIndex": 11,
            "type": 0,
            "value": "0"
        },
        "fund_flow": [
            {
                "amount": "5,850",
                "from": "0x36ae44758114ce41e8324a140032613792156de2",
                "id": 1,
                "isERC1155": false,
                "isERC721": false,
                "isReverted": false,
                "order": 1,
                "to": "0x62146fe9f6054cb259dd14607048f9ab031eba81",
                "token": "0xc77b230f31b517f1ef362e59c173c2be6540b5e8"
            }
        ],
        "token_infos": [
            {
                "address": "0xc02aaa39b223fe8d0a0e5c4f27ead9083c756cc2",
                "decimals": 18
            },
            {
                "address": "0xc77b230f31b517f1ef362e59c173c2be6540b5e8",
                "decimals": 18
            },
            {
                "address": "0xeeeeeeeeeeeeeeeeeeeeeeeeeeeeeeeeeeeeeeee",
                "decimals": 18
            }
        ]
    },
    "address_label": {
        "labels": [
            {
                "address": "0x0000000000000000000000000000000000000003",
                "label": "Precompiled"
            },
            {
                "address": "0x0000000000000000000000000000000000000004",
                "label": "Precompiled"
            },
            {
                "address": "0xeeeeeeeeeeeeeeeeeeeeeeeeeeeeeeeeeeeeeeee",
                "label": "Ether"
            },
            {
                "address": "0xc77b230f31b517f1ef362e59c173c2be6540b5e8",
                "label": "Vidy Coin"
            },
            {
                "address": "0x62146fe9f6054cb259dd14607048f9ab031eba81",
                "label": "HUOBI"
            },
            {
                "address": "0x0000000000000000000000000000000000000001",
                "label": "Precompiled"
            },
            {
                "address": "0x0000000000000000000000000000000000000002",
                "label": "Precompiled"
            }
        ]
    },
    "trace": {
        "accountLabels": null,
        "dataMap": {
            "-1": {
                "invocation": {
                    "address": "0x36ae44758114ce41e8324a140032613792156de2",
                    "callData": "",
                    "decodedMethod": null,
                    "errorInfo": "",
                    "fromAddress": "",
                    "gasUsed": 0,
                    "id": -1,
                    "methodDecoded": false,
                    "operation": "",
                    "output": "",
                    "revert": false,
                    "revertMessage": "",
                    "selector": "",
                    "status": false,
                    "value": ""
                },
                "nodeType": 0
            },
            "0": {
                "invocation": {
                    "address": "0xc77b230f31b517f1ef362e59c173c2be6540b5e8",
                    "callData": "0x00000000000000000000000062146fe9f6054cb259dd14607048f9ab031eba8100000000000000000000000000000000000000000000013d210f055f23280000",
                    "decodedMethod": {
                        "callParams": [
                            {
                                "name": "_to",
                                "type": "address",
                                "value": "0x62146fe9f6054cb259dd14607048f9ab031eba81"
                            },
                            {
                                "decimalAvailable": true,
                                "name": "_value",
                                "type": "uint256",
                                "value": "5,850,000,000,000,000,000,000"
                            }
                        ],
                        "constructorArguments": "",
                        "name": "transfer",
                        "returnParams": [
                            {
                                "name": "",
                                "type": "bool",
                                "value": true
                            }
                        ],
                        "signature": "transfer(address,uint256)"
                    },
                    "errorInfo": "",
                    "fromAddress": "0x36ae44758114ce41e8324a140032613792156de2",
                    "gasUsed": 38245,
                    "id": 0,
                    "methodDecoded": true,
                    "operation": "CALL",
                    "output": "0x0000000000000000000000000000000000000000000000000000000000000001",
                    "revert": false,
                    "revertMessage": "",
                    "selector": "0xa9059cbb",
                    "status": true,
                    "value": "0"
                },
                "nodeType": 0
            },
            "1": {
                "event": {
                    "contract": "0xc77b230f31b517f1ef362e59c173c2be6540b5e8",
                    "decodedLog": {
                        "name": "Transfer",
                        "params": [
                            {
                                "name": "from",
                                "type": "address",
                                "value": "0x36ae44758114ce41e8324a140032613792156de2"
                            },
                            {
                                "name": "to",
                                "type": "address",
                                "value": "0x62146fe9f6054cb259dd14607048f9ab031eba81"
                            },
                            {
                                "decimalAvailable": true,
                                "name": "value",
                                "type": "uint256",
                                "value": "5,850,000,000,000,000,000,000"
                            }
                        ],
                        "signature": "Transfer(address,address,uint256)"
                    },
                    "id": 1,
                    "logData": "0x00000000000000000000000000000000000000000000013d210f055f23280000",
                    "logDecoded": true,
                    "operation": "EVENT",
                    "revert": false,
                    "status": true,
                    "topics": [
                        "0xddf252ad1be2c89b69c2b068fc378daa952ba7f163c4a11628f55a4df523b3ef",
                        "0x00000000000000000000000036ae44758114ce41e8324a140032613792156de2",
                        "0x00000000000000000000000062146fe9f6054cb259dd14607048f9ab031eba81"
                    ]
                },
                "nodeType": 1
            }
        },
        "gasFlame": [
            {
                "children": [
                    {
                        "children": [
                            {
                                "children": [],
                                "depth": 0,
                                "name": "Initial Gas",
                                "value": 21656
                            },
                            {
                                "children": [],
                                "depth": 0,
                                "name": "Executed Gas",
                                "value": 16589
                            }
                        ],
                        "depth": -1,
                        "name": "Actual Gas Used",
                        "value": 38245
                    },
                    {
                        "children": [],
                        "depth": -1,
                        "name": "Refunded Gas",
                        "value": 0
                    }
                ],
                "depth": -2,
                "name": "Total Gas",
                "value": 38245
            }
        ],
        "isConfirmed": true,
        "mainTrace": [
            {
                "children": [
                    {
                        "children": [
                            {
                                "children": [],
                                "depth": 1,
                                "id": 1,
                                "order": 1
                            }
                        ],
                        "depth": 0,
                        "id": 0,
                        "order": 0
                    }
                ],
                "depth": -1,
                "id": -1,
                "order": -1
            }
        ],
        "mainTraceNodeCount": 2,
        "parentIdMap": {
            "0": -1,
            "1": 0
        },
        "tidyTrace": [
            {
                "children": [
                    {
                        "children": [
                            {
                                "children": [],
                                "depth": 1,
                                "id": 1,
                                "order": 1
                            }
                        ],
                        "depth": 0,
                        "id": 0,
                        "order": 0
                    }
                ],
                "depth": -1,
                "id": -1,
                "order": -1
            }
        ],
        "tidyTraceNodeCount": 2
    },
    "state_change": {
        "stateChanges": [
            {
                "address": "0xc77b230f31b517f1ef362e59c173c2be6540b5e8",
                "erc": "ERC-20",
                "slots": [
                    {
                        "current": "0x0000000000000000000000000000000000000000000f61d03f8ac83f42ee5c00",
                        "key": "0xe1cc895624bf93426ea621d3543bdd3d9f865e9baa6126a1d0173f70350bc08a",
                        "prev": "0x0000000000000000000000000000000000000000000f630d6099cd9e66165c00"
                    },
                    {
                        "current": "0x000000000000000000000000000000000000000000000244971b7ffd2d2387c0",
                        "key": "0x07d0d231c12e52f3195063be4d3682ea5ae99dbd1a6a757070416595f40335c3",
                        "prev": "0x000000000000000000000000000000000000000000000107760c7a9e09fb87c0"
                    }
                ],
                "storageVariables": [
                    {
                        "name": "balances",
                        "type": "mapping(address => uint256)",
                        "value": {
                            "pairs": [
                                {
                                    "key": "0x36ae44758114ce41e8324a140032613792156de2",
                                    "value": {
                                        "current": "18595798344517270000000000",
                                        "prev": "18601648344517270000000000",
                                        "typeTag": 1
                                    }
                                },
                                {
                                    "key": "0x62146fe9f6054cb259dd14607048f9ab031eba81",
                                    "value": {
                                        "current": "10710000000000999000000",
                                        "prev": "4860000000000999000000",
                                        "typeTag": 1
                                    }
                                }
                            ],
                            "typeTag": 4
                        }
                    }
                ]
            }
        ]
    }
}