{
    "balance_change": {
        "balanceChanges": [
            {
                "account": "0x62186fa34d37111e7d97d700f1530cd69edd5d8d",
                "assets": [
                    {
                        "address": "0xc7579bb99af590ec71c316e1ac4436c535039594",
                        "amount": "705.757240182735549235",
                        "iconUrl": "",
                        "isERC1155": false,
                        "isERC721": false,
                        "sign": false,
                        "value": ""
                    }
                ]
            },
            {
                "account": "0xb31aaffbfa4e73f2309cf3f50251ea70a690a868",
                "assets": [
                    {
                        "address": "0xc7579bb99af590ec71c316e1ac4436c535039594",
                        "amount": "705.757240182735549235",
                        "iconUrl": "",
                        "isERC1155": false,
                        "isERC721": false,
                        "sign": true,
                        "value": ""
                    }
                ]
            }
        ]
    },
    "profile": {
        "basic_info": {
            "baseFee": "",
            "blockNumber": 4956470,
            "callData": "0xa9059cbb000000000000000000000000b31aaffbfa4e73f2309cf3f50251ea70a690a868000000000000000000000000000000000000000000000026425966af1ffeb333",
            "debugEnable": true,
            "errorInfo": "",
            "eventCount": 1,
            "feeRecipient": "0x829bd824b016326a401d083b33d092293333a830",
            "formatValue": "0",
            "gasLimit": 52798,
            "gasPrice": "35",
            "gasUsed": 36798,
            "intTxnCount": 0,
            "internalRevert": false,
            "internalRevertMessage": "",
            "isContractCreation": false,
            "isFlashloan": false,
            "maxFee": "",
            "nonce": 9,
            "overwritedBlockNumber": -1,
            "priorityFee": "",
            "receiver": "0xc7579bb99af590ec71c316e1ac4436c535039594",
            "revertMessage": "",
            "sender": "0x62186fa34d37111e7d97d700f1530cd69edd5d8d",
            "simulationEnable": true,
            "sourceTxnHash": "0xe59d8d7835aaecafb2572cae60380f27b62df5d4f4d001268f354595f2222dbf",
            "status": true,
            "timestamp": "2018-01-23T05:49:22Z",
            "transactionFee": "0.00128793",
            "txnHash": "0xe59d8d7835aaecafb2572cae60380f27b62df5d4f4d001268f354595f2222dbf",
            "txnIndex": 124,
            "type": 0,
            "value": "0"
        },
        "fund_flow": [
            {
                "amount": "705.757240182735549235",
                "from": "0x62186fa34d37111e7d97d700f1530cd69edd5d8d",
                "id": 1,
                "isERC1155": false,
                "isERC721": false,
                "isReverted": false,
                "order": 1,
                "to": "0xb31aaffbfa4e73f2309cf3f50251ea70a690a868",
                "token": "0xc7579bb99af590ec71c316e1ac4436c535039594"
            }
        ],
        "token_infos": [
            {
                "address": "0xeeeeeeeeeeeeeeeeeeeeeeeeeeeeeeeeeeeeeeee",
                "decimals": 18
            },
            {
                "address": "0xc02aaa39b223fe8d0a0e5c4f27ead9083c756cc2",
                "decimals": 18
            },
            {
                "address": "0xc7579bb99af590ec71c316e1ac4436c535039594",
                "decimals": 18
            }
        ]
    },
    "address_label": {
        "labels": [
            {
                "address": "0x0000000000000000000000000000000000000001",
                "label": "Precompiled"
            },
            {
                "address": "0x0000000000000000000000000000000000000002",
                "label": "Precompiled"
            },
            {
                "address": "0x0000000000000000000000000000000000000003",
                "label": "Precompiled"
            },
            {
                "address": "0x0000000000000000000000000000000000000004",
                "label": "Precompiled"
            },
            {
                "address": "0xeeeeeeeeeeeeeeeeeeeeeeeeeeeeeeeeeeeeeeee",
                "label": "Ether"
            },
            {
                "address": "0xc7579bb99af590ec71c316e1ac4436c535039594",
                "label": "TitaniumBARToken"
            },
            {
                "address": "0xb31aaffbfa4e73f2309cf3f50251ea70a690a868",
                "label": "TIDEX"
            }
        ]
    },
    "trace": {
        "accountLabels": null,
        "dataMap": {
            "-1": {
                "invocation": {
                    "address": "0x62186fa34d37111e7d97d700f1530cd69edd5d8d",
                    "callData": "",
                    "decodedMethod": null,
                    "errorInfo": "",
                    "fromAddress": "",
                    "gasUsed": 0,
                    "id": -1,
                    "methodDecoded": false,
                    "operation": "",
                    "output": "",
                    "revert": false,
                    "revertMessage": "",
                    "selector": "",
                    "status": false,
                    "value": ""
                },
                "nodeType": 0
            },
            "0": {
                "invocation": {
                    "address": "0xc7579bb99af590ec71c316e1ac4436c535039594",
                    "callData": "0x000000000000000000000000b31aaffbfa4e73f2309cf3f50251ea70a690a868000000000000000000000000000000000000000000000026425966af1ffeb333",
                    "decodedMethod": {
                        "callParams": [
                            {
                                "name": "_to",
                                "type": "address",
                                "value": "0xb31aaffbfa4e73f2309cf3f50251ea70a690a868"
                            },
                            {
                                "decimalAvailable": true,
                                "name": "_value",
                                "type": "uint256",
                                "value": "705,757,240,182,735,549,235"
                            }
                        ],
                        "constructorArguments": "",
                        "name": "transfer",
                        "returnParams": [
                            {
                                "name": "",
                                "type": "bool",
                                "value": true
                            }
                        ],
                        "signature": "transfer(address,uint256)"
                    },
                    "errorInfo": "",
                    "fromAddress": "0x62186fa34d37111e7d97d700f1530cd69edd5d8d",
                    "gasUsed": 36798,
                    "id": 0,
                    "methodDecoded": true,
                    "operation": "CALL",
                    "output": "0x0000000000000000000000000000000000000000000000000000000000000001",
                    "revert": false,
                    "revertMessage": "",
                    "selector": "0xa9059cbb",
                    "status": true,
                    "value": "0"
                },
                "nodeType": 0
            },
            "1": {
                "event": {
                    "contract": "0xc7579bb99af590ec71c316e1ac4436c535039594",
                    "decodedLog": {
                        "name": "Transfer",
                        "params": [
                            {
                                "name": "from",
                                "type": "address",
                                "value": "0x62186fa34d37111e7d97d700f1530cd69edd5d8d"
                            },
                            {
                                "name": "to",
                                "type": "address",
                                "value": "0xb31aaffbfa4e73f2309cf3f50251ea70a690a868"
                            },
                            {
                                "decimalAvailable": true,
                                "name": "value",
                                "type": "uint256",
                                "value": "705,757,240,182,735,549,235"
                            }
                        ],
                        "signature": "Transfer(address,address,uint256)"
                    },
                    "id": 1,
                    "logData": "0x000000000000000000000000000000000000000000000026425966af1ffeb333",
                    "logDecoded": true,
                    "operation": "EVENT",
                    "revert": false,
                    "status": true,
                    "topics": [
                        "0xddf252ad1be2c89b69c2b068fc378daa952ba7f163c4a11628f55a4df523b3ef",
                        "0x00000000000000000000000062186fa34d37111e7d97d700f1530cd69edd5d8d",
                        "0x000000000000000000000000b31aaffbfa4e73f2309cf3f50251ea70a690a868"
                    ]
                },
                "nodeType": 1
            }
        },
        "gasFlame": [
            {
                "children": [
                    {
                        "children": [
                            {
                                "children": [],
                                "depth": 0,
                                "name": "Initial Gas",
                                "value": 23384
                            },
                            {
                                "children": [],
                                "depth": 0,
                                "name": "Executed Gas",
                                "value": 28414
                            }
                        ],
                        "depth": -1,
                        "name": "Actual Gas Used",
                        "value": 36798
                    },
                    {
                        "children": [],
                        "depth": -1,
                        "name": "Refunded Gas",
                        "value": 15000
                    }
                ],
                "depth": -2,
                "name": "Total Gas",
                "value": 51798
            }
        ],
        "isConfirmed": true,
        "mainTrace": [
            {
                "children": [
                    {
                        "children": [
                            {
                                "children": [],
                                "depth": 1,
                                "id": 1,
                                "order": 1
                            }
                        ],
                        "depth": 0,
                        "id": 0,
                        "order": 0
                    }
                ],
                "depth": -1,
                "id": -1,
                "order": -1
            }
        ],
        "mainTraceNodeCount": 2,
        "parentIdMap": {
            "0": -1,
            "1": 0
        },
        "tidyTrace": [
            {
                "children": [
                    {
                        "children": [
                            {
                                "children": [],
                                "depth": 1,
                                "id": 1,
                                "order": 1
                            }
                        ],
                        "depth": 0,
                        "id": 0,
                        "order": 0
                    }
                ],
                "depth": -1,
                "id": -1,
                "order": -1
            }
        ],
        "tidyTraceNodeCount": 2
    },
    "state_change": {
        "stateChanges": [
            {
                "address": "0xc7579bb99af590ec71c316e1ac4436c535039594",
                "erc": "ERC-20",
                "slots": [
                    {
                        "current": "0x0000000000000000000000000000000000000000000000000000000000000000",
                        "key": "0x42d5a40deaf98b5e55f43a7ec3e86f042366274a6176f46f3f6681503d96947a",
                        "prev": "0x000000000000000000000000000000000000000000000026425966af1ffeb333"
                    },
                    {
                        "current": "0x000000000000000000000000000000000000000000000026425966af1ffeb333",
                        "key": "0x716a3759605f6cf6893a54d466504040440e6139998f856e5937b71302c7ea0e",
                        "prev": "0x0000000000000000000000000000000000000000000000000000000000000000"
                    }
                ],
                "storageVariables": [
                    {
                        "name": "balances",
                        "type": "mapping(address => uint256)",
                        "value": {
                            "pairs": [
                                {
                                    "key": "0x62186fa34d37111e7d97d700f1530cd69edd5d8d",
                                    "value": {
                                        "current": "0",
                                        "prev": "705757240182735549235",
                                        "typeTag": 1
                                    }
                                },
                                {
                                    "key": "0xb31aaffbfa4e73f2309cf3f50251ea70a690a868",
                                    "value": {
                                        "current": "705757240182735549235",
                                        "prev": "0",
                                        "typeTag": 1
                                    }
                                }
                            ],
                            "typeTag": 4
                        }
                    }
                ]
            }
        ]
    }
}