{
    "balance_change": {
        "balanceChanges": [
            {
                "account": "0x2ab9f67a27f606272189b307052694d3a2b158ba",
                "assets": [
                    {
                        "address": "0xeeeeeeeeeeeeeeeeeeeeeeeeeeeeeeeeeeeeeeee",
                        "amount": "0.537485451713395677",
                        "iconUrl": "https://assets.blocksec.com/image/1663669189317-3.png",
                        "isERC1155": false,
                        "isERC721": false,
                        "sign": false,
                        "value": ""
                    }
                ]
            },
            {
                "account": "0x972a8c777d14f38d840e350ac3c920c38fc6ea5d",
                "assets": [
                    {
                        "address": "0xeeeeeeeeeeeeeeeeeeeeeeeeeeeeeeeeeeeeeeee",
                        "amount": "0.537485451713395677",
                        "iconUrl": "https://assets.blocksec.com/image/1663669189317-3.png",
                        "isERC1155": false,
                        "isERC721": false,
                        "sign": true,
                        "value": ""
                    }
                ]
            }
        ]
    },
    "profile": {
        "basic_info": {
            "baseFee": "",
            "blockNumber": 2709288,
            "callData": "0x38bbfa5059d53f9dfdb02710a8b8ceb793e7412732a05fd0795a0a6131743f42d60fc20a000000000000000000000000000000000000000000000000000000000000006000000000000000000000000000000000000000000000000000000000000000a000000000000000000000000000000000000000000000000000000000000000043432313300000000000000000000000000000000000000000000000000000000000000000000000000000000000000000000000000000000000000000000002212209a80eb1cab538481d87abf55758ee4f285812e01ea3551899e90db1e4b2296b1000000000000000000000000000000000000000000000000000000000000",
            "debugEnable": true,
            "errorInfo": "",
            "eventCount": 1,
            "feeRecipient": "0xc0ea08a2d404d3172d2add29a45be56da40e2949",
            "formatValue": "0",
            "gasLimit": 150000,
            "gasPrice": "20",
            "gasUsed": 95424,
            "intTxnCount": 3,
            "internalRevert": false,
            "internalRevertMessage": "",
            "isContractCreation": false,
            "isFlashloan": false,
            "maxFee": "",
            "nonce": 48918,
            "overwritedBlockNumber": -1,
            "priorityFee": "",
            "receiver": "0x2ab9f67a27f606272189b307052694d3a2b158ba",
            "revertMessage": "",
            "sender": "0x26588a9301b0428d95e6fc3a5024fce8bec12d51",
            "simulationEnable": true,
            "sourceTxnHash": "0xe540b399228d435cce995aa73f09ea9eeef04ab02d465133fa667787018c3a28",
            "status": true,
            "timestamp": "2016-11-28T10:45:04Z",
            "transactionFee": "0.00190848",
            "txnHash": "0xe540b399228d435cce995aa73f09ea9eeef04ab02d465133fa667787018c3a28",
            "txnIndex": 0,
            "type": 0,
            "value": "0"
        },
        "fund_flow": [
            {
                "amount": "0.537485451713395677",
                "from": "0x2ab9f67a27f606272189b307052694d3a2b158ba",
                "id": 1,
                "isERC1155": false,
                "isERC721": false,
                "isReverted": false,
                "order": 1,
                "to": "0x972a8c777d14f38d840e350ac3c920c38fc6ea5d",
                "token": "0xeeeeeeeeeeeeeeeeeeeeeeeeeeeeeeeeeeeeeeee"
            }
        ],
        "token_infos": [
            {
                "address": "0xeeeeeeeeeeeeeeeeeeeeeeeeeeeeeeeeeeeeeeee",
                "decimals": 18
            },
            {
                "address": "0xc02aaa39b223fe8d0a0e5c4f27ead9083c756cc2",
                "decimals": 18
            }
        ]
    },
    "address_label": {
        "labels": [
            {
                "address": "0xeeeeeeeeeeeeeeeeeeeeeeeeeeeeeeeeeeeeeeee",
                "label": "Ether"
            },
            {
                "address": "0x0000000000000000000000000000000000000002",
                "label": "Precompiled"
            },
            {
                "address": "0x0000000000000000000000000000000000000004",
                "label": "Precompiled"
            },
            {
                "address": "0x0000000000000000000000000000000000000001",
                "label": "Precompiled"
            },
            {
                "address": "0x0000000000000000000000000000000000000003",
                "label": "Precompiled"
            },
            {
                "address": "0x26588a9301b0428d95e6fc3a5024fce8bec12d51",
                "label": "0x2658_Oraclize"
            },
            {
                "address": "0x2ab9f67a27f606272189b307052694d3a2b158ba",
                "label": "Dice"
            },
            {
                "address": "0x1d3b2638a7cc9f2cb3d298a3da7a90b67e5506ed",
                "label": "OraclizeAddrResolver"
            },
            {
                "address": "0x001a589dda0d6be37632925eaf1256986b2c6ad0",
                "label": "0x001a_Oraclize"
            }
        ]
    },
    "trace": {
        "accountLabels": null,
        "dataMap": {
            "-1": {
                "invocation": {
                    "address": "0x26588a9301b0428d95e6fc3a5024fce8bec12d51",
                    "callData": "",
                    "decodedMethod": null,
                    "errorInfo": "",
                    "fromAddress": "",
                    "gasUsed": 0,
                    "id": -1,
                    "methodDecoded": false,
                    "operation": "",
                    "output": "",
                    "revert": false,
                    "revertMessage": "",
                    "selector": "",
                    "status": false,
                    "value": ""
                },
                "nodeType": 0
            },
            "0": {
                "invocation": {
                    "address": "0x2ab9f67a27f606272189b307052694d3a2b158ba",
                    "callData": "0x59d53f9dfdb02710a8b8ceb793e7412732a05fd0795a0a6131743f42d60fc20a000000000000000000000000000000000000000000000000000000000000006000000000000000000000000000000000000000000000000000000000000000a000000000000000000000000000000000000000000000000000000000000000043432313300000000000000000000000000000000000000000000000000000000000000000000000000000000000000000000000000000000000000000000002212209a80eb1cab538481d87abf55758ee4f285812e01ea3551899e90db1e4b2296b1000000000000000000000000000000000000000000000000000000000000",
                    "decodedMethod": {
                        "callParams": [
                            {
                                "name": "myid",
                                "type": "bytes32",
                                "value": "0x59d53f9dfdb02710a8b8ceb793e7412732a05fd0795a0a6131743f42d60fc20a"
                            },
                            {
                                "name": "result",
                                "type": "string",
                                "value": "4213"
                            },
                            {
                                "name": "proof",
                                "type": "bytes",
                                "value": "0x12209a80eb1cab538481d87abf55758ee4f285812e01ea3551899e90db1e4b2296b1"
                            }
                        ],
                        "constructorArguments": "",
                        "name": "__callback",
                        "returnParams": [],
                        "signature": "__callback(bytes32,string,bytes)"
                    },
                    "errorInfo": "",
                    "fromAddress": "0x26588a9301b0428d95e6fc3a5024fce8bec12d51",
                    "gasUsed": 95424,
                    "id": 0,
                    "methodDecoded": true,
                    "operation": "CALL",
                    "output": "",
                    "revert": false,
                    "revertMessage": "",
                    "selector": "0x38bbfa50",
                    "status": true,
                    "value": "0"
                },
                "nodeType": 0
            },
            "1": {
                "invocation": {
                    "address": "0x1d3b2638a7cc9f2cb3d298a3da7a90b67e5506ed",
                    "callData": "0x",
                    "decodedMethod": {
                        "callParams": [],
                        "constructorArguments": "",
                        "name": "getAddress",
                        "returnParams": [
                            {
                                "name": "oaddr",
                                "type": "address",
                                "value": "0x001a589dda0d6be37632925eaf1256986b2c6ad0"
                            }
                        ],
                        "signature": "getAddress()"
                    },
                    "errorInfo": "",
                    "fromAddress": "0x2ab9f67a27f606272189b307052694d3a2b158ba",
                    "gasUsed": 418,
                    "id": 1,
                    "methodDecoded": true,
                    "operation": "CALL",
                    "output": "0x000000000000000000000000001a589dda0d6be37632925eaf1256986b2c6ad0",
                    "revert": false,
                    "revertMessage": "",
                    "selector": "0x38cc4831",
                    "status": true,
                    "value": "0"
                },
                "nodeType": 0
            },
            "2": {
                "invocation": {
                    "address": "0x001a589dda0d6be37632925eaf1256986b2c6ad0",
                    "callData": "0x",
                    "decodedMethod": {
                        "callParams": [],
                        "constructorArguments": "",
                        "name": "cbAddress",
                        "returnParams": [
                            {
                                "name": "",
                                "type": "address",
                                "value": "0x26588a9301b0428d95e6fc3a5024fce8bec12d51"
                            }
                        ],
                        "signature": "cbAddress()"
                    },
                    "errorInfo": "",
                    "fromAddress": "0x2ab9f67a27f606272189b307052694d3a2b158ba",
                    "gasUsed": 1039,
                    "id": 2,
                    "methodDecoded": true,
                    "operation": "CALL",
                    "output": "0x00000000000000000000000026588a9301b0428d95e6fc3a5024fce8bec12d51",
                    "revert": false,
                    "revertMessage": "",
                    "selector": "0xc281d19e",
                    "status": true,
                    "value": "0"
                },
                "nodeType": 0
            },
            "3": {
                "event": {
                    "contract": "0x2ab9f67a27f606272189b307052694d3a2b158ba",
                    "decodedLog": {
                        "name": "BetWon",
                        "params": [
                            {
                                "name": "playerAddress",
                                "type": "address",
                                "value": "0x972a8c777d14f38d840e350ac3c920c38fc6ea5d"
                            },
                            {
                                "name": "numberRolled",
                                "type": "uint256",
                                "value": "4,213"
                            },
                            {
                                "name": "amountWon",
                                "type": "uint256",
                                "value": "537,485,451,713,395,677"
                            }
                        ],
                        "signature": "BetWon(address,uint256,uint256)"
                    },
                    "id": 3,
                    "logData": "0x000000000000000000000000972a8c777d14f38d840e350ac3c920c38fc6ea5d00000000000000000000000000000000000000000000000000000000000010750000000000000000000000000000000000000000000000000775882bad513bdd",
                    "logDecoded": true,
                    "operation": "EVENT",
                    "revert": false,
                    "status": true,
                    "topics": [
                        "0x8f25eec129b997ba51175c8f2583cafbfc0c076ef19e2c455869730f969ec44d"
                    ]
                },
                "nodeType": 1
            },
            "4": {
                "invocation": {
                    "address": "0x972a8c777d14f38d840e350ac3c920c38fc6ea5d",
                    "callData": "0x",
                    "decodedMethod": null,
                    "errorInfo": "",
                    "fromAddress": "0x2ab9f67a27f606272189b307052694d3a2b158ba",
                    "gasUsed": 0,
                    "id": 4,
                    "methodDecoded": false,
                    "operation": "CALL",
                    "output": "",
                    "revert": false,
                    "revertMessage": "",
                    "selector": "fallback",
                    "status": true,
                    "value": "0.537485451713395677"
                },
                "nodeType": 0
            }
        },
        "gasFlame": [
            {
                "children": [
                    {
                        "children": [
                            {
                                "children": [],
                                "depth": 0,
                                "name": "Initial Gas",
                                "value": 27032
                            },
                            {
                                "children": [
                                    {
                                        "children": [],
                                        "depth": 1,
                                        "name": "getAddress",
                                        "value": 418
                                    },
                                    {
                                        "children": [],
                                        "depth": 1,
                                        "name": "cbAddress",
                                        "value": 1039
                                    },
                                    {
                                        "children": [],
                                        "depth": 1,
                                        "name": "fallback",
                                        "value": 0
                                    }
                                ],
                                "depth": 0,
                                "name": "Executed Gas",
                                "value": 68392
                            }
                        ],
                        "depth": -1,
                        "name": "Actual Gas Used",
                        "value": 95424
                    },
                    {
                        "children": [],
                        "depth": -1,
                        "name": "Refunded Gas",
                        "value": 0
                    }
                ],
                "depth": -2,
                "name": "Total Gas",
                "value": 95424
            }
        ],
        "isConfirmed": true,
        "mainTrace": [
            {
                "children": [
                    {
                        "children": [
                            {
                                "children": [],
                                "depth": 1,
                                "id": 1,
                                "order": 1
                            },
                            {
                                "children": [],
                                "depth": 1,
                                "id": 2,
                                "order": 2
                            },
                            {
                                "children": [],
                                "depth": 1,
                                "id": 3,
                                "order": 3
                            },
                            {
                                "children": [],
                                "depth": 1,
                                "id": 4,
                                "order": 4
                            }
                        ],
                        "depth": 0,
                        "id": 0,
                        "order": 0
                    }
                ],
                "depth": -1,
                "id": -1,
                "order": -1
            }
        ],
        "mainTraceNodeCount": 5,
        "parentIdMap": {
            "0": -1,
            "1": 0,
            "2": 0,
            "3": 0,
            "4": 0
        },
        "tidyTrace": [
            {
                "children": [
                    {
                        "children": [
                            {
                                "children": [],
                                "depth": 1,
                                "id": 1,
                                "order": 1
                            },
                            {
                                "children": [],
                                "depth": 1,
                                "id": 2,
                                "order": 2
                            },
                            {
                                "children": [],
                                "depth": 1,
                                "id": 3,
                                "order": 3
                            },
                            {
                                "children": [],
                                "depth": 1,
                                "id": 4,
                                "order": 4
                            }
                        ],
                        "depth": 0,
                        "id": 0,
                        "order": 0
                    }
                ],
                "depth": -1,
                "id": -1,
                "order": -1
            }
        ],
        "tidyTraceNodeCount": 5
    },
    "state_change": {
        "stateChanges": [
            {
                "address": "0x2ab9f67a27f606272189b307052694d3a2b158ba",
                "erc": "",
                "slots": [
                    {
                        "current": "0x0000000000000000000000000000000000000000000000000000000000001075",
                        "key": "0xd1bd77a0d1533b46aaebee2f974c23693aef54651de7626d2a426ee7f5e50000",
                        "prev": "0x0000000000000000000000000000000000000000000000000000000000000000"
                    },
                    {
                        "current": "0x0000000000000000000000000000000000000000000000001d218dbd2627654b",
                        "key": "0x0000000000000000000000000000000000000000000000000000000000000017",
                        "prev": "0x0000000000000000000000000000000000000000000000001c83e2c9fba8e892"
                    },
                    {
                        "current": "0x000000000000000000000000000000000000000000000033539f7c7d75de66e1",
                        "key": "0x0000000000000000000000000000000000000000000000000000000000000015",
                        "prev": "0x0000000000000000000000000000000000000000000000334cc79f44f30ba7bd"
                    }
                ],
                "storageVariables": []
            }
        ]
    }
}