{
    "balance_change": {
        "balanceChanges": [
            {
                "account": "0x0000000000000000000000000000000000000000",
                "assets": [
                    {
                        "address": "0xb5893a75b74f9caccd3c23b4a974db5f53b4e9d2",
                        "amount": "1",
                        "iconUrl": "",
                        "isERC1155": false,
                        "isERC721": true,
                        "sign": false,
                        "tokenID": "551",
                        "value": ""
                    }
                ]
            },
            {
                "account": "0x1630f28d091146ee7df5322b5f7e50c5a9bdf9bb",
                "assets": [
                    {
                        "address": "0xb5893a75b74f9caccd3c23b4a974db5f53b4e9d2",
                        "amount": "1",
                        "iconUrl": "",
                        "isERC1155": false,
                        "isERC721": true,
                        "sign": true,
                        "tokenID": "551",
                        "value": ""
                    }
                ]
            }
        ]
    },
    "profile": {
        "basic_info": {
            "baseFee": "11.853913634",
            "blockNumber": 15067323,
            "callData": "0xa0712d680000000000000000000000000000000000000000000000000000000000000001",
            "debugEnable": true,
            "errorInfo": "",
            "eventCount": 1,
            "feeRecipient": "0x829bd824b016326a401d083b33d092293333a830",
            "formatValue": "0",
            "gasLimit": 87626,
            "gasPrice": "13.353913634",
            "gasUsed": 70838,
            "intTxnCount": 0,
            "internalRevert": false,
            "internalRevertMessage": "",
            "isContractCreation": false,
            "isFlashloan": false,
            "maxFee": "16.210452559",
            "nonce": 126,
            "overwritedBlockNumber": -1,
            "priorityFee": "1.5",
            "receiver": "0xb5893a75b74f9caccd3c23b4a974db5f53b4e9d2",
            "revertMessage": "",
            "sender": "0x1630f28d091146ee7df5322b5f7e50c5a9bdf9bb",
            "simulationEnable": true,
            "sourceTxnHash": "0xe5e0f9e300998cb9ef00218177e51ed0ff2133b06822d91b0424dd0c4288b4ed",
            "status": true,
            "timestamp": "2022-07-03T04:06:50Z",
            "transactionFee": "0.000945964534005292",
            "txnHash": "0xe5e0f9e300998cb9ef00218177e51ed0ff2133b06822d91b0424dd0c4288b4ed",
            "txnIndex": 434,
            "type": 2,
            "value": "0"
        },
        "fund_flow": [
            {
                "amount": "1",
                "from": "0x0000000000000000000000000000000000000000",
                "id": 1,
                "isERC1155": false,
                "isERC721": true,
                "isReverted": false,
                "order": 1,
                "to": "0x1630f28d091146ee7df5322b5f7e50c5a9bdf9bb",
                "token": "0xb5893a75b74f9caccd3c23b4a974db5f53b4e9d2",
                "tokenID": "551"
            }
        ],
        "token_infos": [
            {
                "address": "0xc02aaa39b223fe8d0a0e5c4f27ead9083c756cc2",
                "decimals": 18
            },
            {
                "address": "0xeeeeeeeeeeeeeeeeeeeeeeeeeeeeeeeeeeeeeeee",
                "decimals": 18
            }
        ]
    },
    "address_label": {
        "labels": [
            {
                "address": "0x0000000000000000000000000000000000000003",
                "label": "Precompiled"
            },
            {
                "address": "0x0000000000000000000000000000000000000004",
                "label": "Precompiled"
            },
            {
                "address": "0xeeeeeeeeeeeeeeeeeeeeeeeeeeeeeeeeeeeeeeee",
                "label": "Ether"
            },
            {
                "address": "0xb5893a75b74f9caccd3c23b4a974db5f53b4e9d2",
                "label": "House of Clownz (Clownz)"
            },
            {
                "address": "0x0000000000000000000000000000000000000001",
                "label": "Precompiled"
            },
            {
                "address": "0x0000000000000000000000000000000000000002",
                "label": "Precompiled"
            }
        ]
    },
    "trace": {
        "accountLabels": null,
        "dataMap": {
            "-1": {
                "invocation": {
                    "address": "0x1630f28d091146ee7df5322b5f7e50c5a9bdf9bb",
                    "callData": "",
                    "decodedMethod": null,
                    "errorInfo": "",
                    "fromAddress": "",
                    "gasUsed": 0,
                    "id": -1,
                    "methodDecoded": false,
                    "operation": "",
                    "output": "",
                    "revert": false,
                    "revertMessage": "",
                    "selector": "",
                    "status": false,
                    "value": ""
                },
                "nodeType": 0
            },
            "0": {
                "invocation": {
                    "address": "0xb5893a75b74f9caccd3c23b4a974db5f53b4e9d2",
                    "callData": "0x0000000000000000000000000000000000000000000000000000000000000001",
                    "decodedMethod": {
                        "callParams": [
                            {
                                "name": "amount",
                                "type": "uint256",
                                "value": "1"
                            }
                        ],
                        "constructorArguments": "",
                        "name": "mint",
                        "returnParams": [],
                        "signature": "mint(uint256)"
                    },
                    "errorInfo": "",
                    "fromAddress": "0x1630f28d091146ee7df5322b5f7e50c5a9bdf9bb",
                    "gasUsed": 70838,
                    "id": 0,
                    "methodDecoded": true,
                    "operation": "CALL",
                    "output": "",
                    "revert": false,
                    "revertMessage": "",
                    "selector": "0xa0712d68",
                    "status": true,
                    "value": "0"
                },
                "nodeType": 0
            },
            "1": {
                "event": {
                    "contract": "0xb5893a75b74f9caccd3c23b4a974db5f53b4e9d2",
                    "decodedLog": {
                        "name": "Transfer",
                        "params": [
                            {
                                "name": "from",
                                "type": "address",
                                "value": "0x0000000000000000000000000000000000000000"
                            },
                            {
                                "name": "to",
                                "type": "address",
                                "value": "0x1630f28d091146ee7df5322b5f7e50c5a9bdf9bb"
                            },
                            {
                                "decimalAvailable": true,
                                "name": "tokenId",
                                "type": "uint256",
                                "value": "551"
                            }
                        ],
                        "signature": "Transfer(address,address,uint256)"
                    },
                    "id": 1,
                    "logData": "0x",
                    "logDecoded": true,
                    "operation": "EVENT",
                    "revert": false,
                    "status": true,
                    "topics": [
                        "0xddf252ad1be2c89b69c2b068fc378daa952ba7f163c4a11628f55a4df523b3ef",
                        "0x0000000000000000000000000000000000000000000000000000000000000000",
                        "0x0000000000000000000000001630f28d091146ee7df5322b5f7e50c5a9bdf9bb",
                        "0x0000000000000000000000000000000000000000000000000000000000000227"
                    ]
                },
                "nodeType": 1
            }
        },
        "gasFlame": [
            {
                "children": [
                    {
                        "children": [
                            {
                                "children": [],
                                "depth": 0,
                                "name": "Initial Gas",
                                "value": 21204
                            },
                            {
                                "children": [],
                                "depth": 0,
                                "name": "Executed Gas",
                                "value": 49634
                            }
                        ],
                        "depth": -1,
                        "name": "Actual Gas Used",
                        "value": 70838
                    },
                    {
                        "children": [],
                        "depth": -1,
                        "name": "Refunded Gas",
                        "value": 0
                    }
                ],
                "depth": -2,
                "name": "Total Gas",
                "value": 70838
            }
        ],
        "isConfirmed": true,
        "mainTrace": [
            {
                "children": [
                    {
                        "children": [
                            {
                                "children": [],
                                "depth": 1,
                                "id": 1,
                                "order": 1
                            }
                        ],
                        "depth": 0,
                        "id": 0,
                        "order": 0
                    }
                ],
                "depth": -1,
                "id": -1,
                "order": -1
            }
        ],
        "mainTraceNodeCount": 2,
        "parentIdMap": {
            "0": -1,
            "1": 0
        },
        "tidyTrace": [
            {
                "children": [
                    {
                        "children": [
                            {
                                "children": [],
                                "depth": 1,
                                "id": 1,
                                "order": 1
                            }
                        ],
                        "depth": 0,
                        "id": 0,
                        "order": 0
                    }
                ],
                "depth": -1,
                "id": -1,
                "order": -1
            }
        ],
        "tidyTraceNodeCount": 2
    },
    "state_change": {
        "stateChanges": [
            {
                "address": "0xb5893a75b74f9caccd3c23b4a974db5f53b4e9d2",
                "erc": "ERC-721",
                "slots": [
                    {
                        "current": "0x0000000000000000000000000000000000000000000000000000000000000009",
                        "key": "0xfe738f0a5d34e00a4ff3a5e862138ea468dfebf1b7a498e4a9593a97432ab307",
                        "prev": "0x0000000000000000000000000000000000000000000000000000000000000008"
                    },
                    {
                        "current": "0x0000000000000000000000000000000000000000000000000000000000000228",
                        "key": "0x0000000000000000000000000000000000000000000000000000000000000006",
                        "prev": "0x0000000000000000000000000000000000000000000000000000000000000227"
                    },
                    {
                        "current": "0x000000000000000000000000000000000000000000000100000a022702272710",
                        "key": "0x0000000000000000000000000000000000000000000000000000000000000003",
                        "prev": "0x000000000000000000000000000000000000000000000100000a022602262710"
                    },
                    {
                        "current": "0x0000000000000000000000001630f28d091146ee7df5322b5f7e50c5a9bdf9bb",
                        "key": "0x27f60e2f7461a236bc6432946e2e819f05a0e4f2009ff77ea47b66a766ba1ae2",
                        "prev": "0x0000000000000000000000000000000000000000000000000000000000000000"
                    },
                    {
                        "current": "0x0000000000000000000000000000000000000000000000000000000000000009",
                        "key": "0x3e4c5c350a7c2fce6167dc3117ea013d84601087e2cd083a9e55694e5b2c5db3",
                        "prev": "0x0000000000000000000000000000000000000000000000000000000000000008"
                    }
                ],
                "storageVariables": [
                    {
                        "name": "_currentIndex",
                        "type": "uint256",
                        "value": {
                            "current": "552",
                            "prev": "551",
                            "typeTag": 1
                        }
                    },
                    {
                        "name": "pubsaleSupply",
                        "type": "uint16",
                        "value": {
                            "current": "10000",
                            "prev": "10000",
                            "typeTag": 1
                        }
                    },
                    {
                        "name": "pubsaledAmount",
                        "type": "uint16",
                        "value": {
                            "current": "551",
                            "prev": "550",
                            "typeTag": 1
                        }
                    },
                    {
                        "name": "totalSupply",
                        "type": "uint16",
                        "value": {
                            "current": "551",
                            "prev": "550",
                            "typeTag": 1
                        }
                    },
                    {
                        "name": "limitPerAddress",
                        "type": "uint16",
                        "value": {
                            "current": "10",
                            "prev": "10",
                            "typeTag": 1
                        }
                    },
                    {
                        "name": "revealed",
                        "type": "bool",
                        "value": {
                            "current": "false",
                            "prev": "false",
                            "typeTag": 1
                        }
                    },
                    {
                        "name": "presaleOpen",
                        "type": "bool",
                        "value": {
                            "current": "true",
                            "prev": "true",
                            "typeTag": 1
                        }
                    },
                    {
                        "name": "pubsaleOpen",
                        "type": "bool",
                        "value": {
                            "current": "false",
                            "prev": "false",
                            "typeTag": 1
                        }
                    },
                    {
                        "name": "ownership",
                        "type": "mapping(uint256 => address)",
                        "value": {
                            "pairs": [
                                {
                                    "key": "551",
                                    "value": {
                                        "current": "0x1630f28d091146ee7df5322b5f7e50c5a9bdf9bb",
                                        "prev": "0x0000000000000000000000000000000000000000",
                                        "typeTag": 1
                                    }
                                }
                            ],
                            "typeTag": 4
                        }
                    },
                    {
                        "name": "_balances",
                        "type": "mapping(address => uint256)",
                        "value": {
                            "pairs": [
                                {
                                    "key": "0x1630f28d091146ee7df5322b5f7e50c5a9bdf9bb",
                                    "value": {
                                        "current": "9",
                                        "prev": "8",
                                        "typeTag": 1
                                    }
                                }
                            ],
                            "typeTag": 4
                        }
                    },
                    {
                        "name": "addressMints",
                        "type": "mapping(address => uint256)",
                        "value": {
                            "pairs": [
                                {
                                    "key": "0x1630f28d091146ee7df5322b5f7e50c5a9bdf9bb",
                                    "value": {
                                        "current": "9",
                                        "prev": "8",
                                        "typeTag": 1
                                    }
                                }
                            ],
                            "typeTag": 4
                        }
                    }
                ]
            }
        ]
    }
}