{
    "balance_change": {
        "balanceChanges": [
            {
                "account": "0x66a8f5643df45f8e7442b997599e7d10b780d6cb",
                "assets": [
                    {
                        "address": "0xaa19961b6b858d9f18a115f25aa1d98abc1fdba8",
                        "amount": "7,428.3653882717",
                        "iconUrl": "https://assets.blocksec.com/icon/68f3e12a13084e7b21188906e09fb6d76b1f5f70ddc373e54cd009cac67b7df7.png",
                        "isERC1155": false,
                        "isERC721": false,
                        "sign": false,
                        "value": "66.50909698"
                    }
                ]
            },
            {
                "account": "0x59f48e82bc71310eb89cee1ec1a616975c293827",
                "assets": [
                    {
                        "address": "0xaa19961b6b858d9f18a115f25aa1d98abc1fdba8",
                        "amount": "7,428.3653882717",
                        "iconUrl": "https://assets.blocksec.com/icon/68f3e12a13084e7b21188906e09fb6d76b1f5f70ddc373e54cd009cac67b7df7.png",
                        "isERC1155": false,
                        "isERC721": false,
                        "sign": true,
                        "value": "66.50909698"
                    }
                ]
            }
        ]
    },
    "profile": {
        "basic_info": {
            "baseFee": "",
            "blockNumber": 10901361,
            "callData": "0xa9059cbb00000000000000000000000059f48e82bc71310eb89cee1ec1a616975c293827000000000000000000000000000000000000000000000192b14753776d55bd00",
            "debugEnable": true,
            "errorInfo": "",
            "eventCount": 1,
            "feeRecipient": "0x84a0d77c693adabe0ebc48f88b3ffff010577051",
            "formatValue": "0",
            "gasLimit": 61022,
            "gasPrice": "88",
            "gasUsed": 46022,
            "intTxnCount": 0,
            "internalRevert": false,
            "internalRevertMessage": "",
            "isContractCreation": false,
            "isFlashloan": false,
            "maxFee": "",
            "nonce": 4,
            "overwritedBlockNumber": -1,
            "priorityFee": "",
            "receiver": "0xaa19961b6b858d9f18a115f25aa1d98abc1fdba8",
            "revertMessage": "",
            "sender": "0x66a8f5643df45f8e7442b997599e7d10b780d6cb",
            "simulationEnable": true,
            "sourceTxnHash": "0xe53f7cdbef3551e4e683c9c06b25b3fba8ce259610a6c6fb4a8b5cc9d19c8ab8",
            "status": true,
            "timestamp": "2020-09-20T20:13:34Z",
            "transactionFee": "0.004049936",
            "txnHash": "0xe53f7cdbef3551e4e683c9c06b25b3fba8ce259610a6c6fb4a8b5cc9d19c8ab8",
            "txnIndex": 69,
            "type": 0,
            "value": "0"
        },
        "fund_flow": [
            {
                "amount": "7,428.3653882717",
                "from": "0x66a8f5643df45f8e7442b997599e7d10b780d6cb",
                "id": 1,
                "isERC1155": false,
                "isERC721": false,
                "isReverted": false,
                "order": 1,
                "to": "0x59f48e82bc71310eb89cee1ec1a616975c293827",
                "token": "0xaa19961b6b858d9f18a115f25aa1d98abc1fdba8"
            }
        ],
        "token_infos": [
            {
                "address": "0xeeeeeeeeeeeeeeeeeeeeeeeeeeeeeeeeeeeeeeee",
                "decimals": 18
            },
            {
                "address": "0xaa19961b6b858d9f18a115f25aa1d98abc1fdba8",
                "decimals": 18
            },
            {
                "address": "0xc02aaa39b223fe8d0a0e5c4f27ead9083c756cc2",
                "decimals": 18
            }
        ]
    },
    "address_label": {
        "labels": [
            {
                "address": "0x0000000000000000000000000000000000000001",
                "label": "Precompiled"
            },
            {
                "address": "0x0000000000000000000000000000000000000002",
                "label": "Precompiled"
            },
            {
                "address": "0x0000000000000000000000000000000000000003",
                "label": "Precompiled"
            },
            {
                "address": "0x0000000000000000000000000000000000000004",
                "label": "Precompiled"
            },
            {
                "address": "0xeeeeeeeeeeeeeeeeeeeeeeeeeeeeeeeeeeeeeeee",
                "label": "Ether"
            },
            {
                "address": "0xaa19961b6b858d9f18a115f25aa1d98abc1fdba8",
                "label": "LocalCoinSwap Token"
            }
        ]
    },
    "trace": {
        "accountLabels": null,
        "dataMap": {
            "-1": {
                "invocation": {
                    "address": "0x66a8f5643df45f8e7442b997599e7d10b780d6cb",
                    "callData": "",
                    "decodedMethod": null,
                    "errorInfo": "",
                    "fromAddress": "",
                    "gasUsed": 0,
                    "id": -1,
                    "methodDecoded": false,
                    "operation": "",
                    "output": "",
                    "revert": false,
                    "revertMessage": "",
                    "selector": "",
                    "status": false,
                    "value": ""
                },
                "nodeType": 0
            },
            "0": {
                "invocation": {
                    "address": "0xaa19961b6b858d9f18a115f25aa1d98abc1fdba8",
                    "callData": "0x00000000000000000000000059f48e82bc71310eb89cee1ec1a616975c293827000000000000000000000000000000000000000000000192b14753776d55bd00",
                    "decodedMethod": {
                        "callParams": [
                            {
                                "name": "_to",
                                "type": "address",
                                "value": "0x59f48e82bc71310eb89cee1ec1a616975c293827"
                            },
                            {
                                "decimalAvailable": true,
                                "name": "_value",
                                "type": "uint256",
                                "value": "7,428,365,388,271,700,000,000"
                            }
                        ],
                        "constructorArguments": "",
                        "name": "transfer",
                        "returnParams": [
                            {
                                "name": "",
                                "type": "bool",
                                "value": true
                            }
                        ],
                        "signature": "transfer(address,uint256)"
                    },
                    "errorInfo": "",
                    "fromAddress": "0x66a8f5643df45f8e7442b997599e7d10b780d6cb",
                    "gasUsed": 46022,
                    "id": 0,
                    "methodDecoded": true,
                    "operation": "CALL",
                    "output": "0x0000000000000000000000000000000000000000000000000000000000000001",
                    "revert": false,
                    "revertMessage": "",
                    "selector": "0xa9059cbb",
                    "status": true,
                    "value": "0"
                },
                "nodeType": 0
            },
            "1": {
                "event": {
                    "contract": "0xaa19961b6b858d9f18a115f25aa1d98abc1fdba8",
                    "decodedLog": {
                        "name": "Transfer",
                        "params": [
                            {
                                "name": "from",
                                "type": "address",
                                "value": "0x66a8f5643df45f8e7442b997599e7d10b780d6cb"
                            },
                            {
                                "name": "to",
                                "type": "address",
                                "value": "0x59f48e82bc71310eb89cee1ec1a616975c293827"
                            },
                            {
                                "decimalAvailable": true,
                                "name": "value",
                                "type": "uint256",
                                "value": "7,428,365,388,271,700,000,000"
                            }
                        ],
                        "signature": "Transfer(address,address,uint256)"
                    },
                    "id": 1,
                    "logData": "0x000000000000000000000000000000000000000000000192b14753776d55bd00",
                    "logDecoded": true,
                    "operation": "EVENT",
                    "revert": false,
                    "status": true,
                    "topics": [
                        "0xddf252ad1be2c89b69c2b068fc378daa952ba7f163c4a11628f55a4df523b3ef",
                        "0x00000000000000000000000066a8f5643df45f8e7442b997599e7d10b780d6cb",
                        "0x00000000000000000000000059f48e82bc71310eb89cee1ec1a616975c293827"
                    ]
                },
                "nodeType": 1
            }
        },
        "gasFlame": [
            {
                "children": [
                    {
                        "children": [
                            {
                                "children": [],
                                "depth": 0,
                                "name": "Initial Gas",
                                "value": 21668
                            },
                            {
                                "children": [],
                                "depth": 0,
                                "name": "Executed Gas",
                                "value": 39354
                            }
                        ],
                        "depth": -1,
                        "name": "Actual Gas Used",
                        "value": 46022
                    },
                    {
                        "children": [],
                        "depth": -1,
                        "name": "Refunded Gas",
                        "value": 15000
                    }
                ],
                "depth": -2,
                "name": "Total Gas",
                "value": 61022
            }
        ],
        "isConfirmed": true,
        "mainTrace": [
            {
                "children": [
                    {
                        "children": [
                            {
                                "children": [],
                                "depth": 1,
                                "id": 1,
                                "order": 1
                            }
                        ],
                        "depth": 0,
                        "id": 0,
                        "order": 0
                    }
                ],
                "depth": -1,
                "id": -1,
                "order": -1
            }
        ],
        "mainTraceNodeCount": 2,
        "parentIdMap": {
            "0": -1,
            "1": 0
        },
        "tidyTrace": [
            {
                "children": [
                    {
                        "children": [
                            {
                                "children": [],
                                "depth": 1,
                                "id": 1,
                                "order": 1
                            }
                        ],
                        "depth": 0,
                        "id": 0,
                        "order": 0
                    }
                ],
                "depth": -1,
                "id": -1,
                "order": -1
            }
        ],
        "tidyTraceNodeCount": 2
    },
    "state_change": {
        "stateChanges": [
            {
                "address": "0xaa19961b6b858d9f18a115f25aa1d98abc1fdba8",
                "erc": "ERC-20",
                "slots": [
                    {
                        "current": "0x0000000000000000000000000000000000000000000000000000000000000000",
                        "key": "0x3a94c42ef0e31fe6ce87d0ebeda35fab380a0fd776e8f9c16fe994f8ce05934f",
                        "prev": "0x000000000000000000000000000000000000000000000192b14753776d55bd00"
                    },
                    {
                        "current": "0x000000000000000000000000000000000000000000000192b14753776d55bd00",
                        "key": "0xeb8262dc3f19cc55df180dceafe6344c91b60e16768e27b9b4c0278c3f13af4f",
                        "prev": "0x0000000000000000000000000000000000000000000000000000000000000000"
                    }
                ],
                "storageVariables": [
                    {
                        "name": "balances",
                        "type": "mapping(address => uint256)",
                        "value": {
                            "pairs": [
                                {
                                    "key": "0x59f48e82bc71310eb89cee1ec1a616975c293827",
                                    "value": {
                                        "current": "7428365388271700000000",
                                        "prev": "0",
                                        "typeTag": 1
                                    }
                                },
                                {
                                    "key": "0x66a8f5643df45f8e7442b997599e7d10b780d6cb",
                                    "value": {
                                        "current": "0",
                                        "prev": "7428365388271700000000",
                                        "typeTag": 1
                                    }
                                }
                            ],
                            "typeTag": 4
                        }
                    }
                ]
            }
        ]
    }
}