{
    "balance_change": {
        "balanceChanges": [
            {
                "account": "0x0000000000000000000000000000000000000000",
                "assets": [
                    {
                        "address": "0xfbde54764f51415cb0e00765ea4383bc90edcce8",
                        "amount": "1",
                        "iconUrl": "",
                        "isERC1155": false,
                        "isERC721": true,
                        "sign": false,
                        "tokenID": "583",
                        "value": ""
                    },
                    {
                        "address": "0xfbde54764f51415cb0e00765ea4383bc90edcce8",
                        "amount": "1",
                        "iconUrl": "",
                        "isERC1155": false,
                        "isERC721": true,
                        "sign": false,
                        "tokenID": "579",
                        "value": ""
                    },
                    {
                        "address": "0xfbde54764f51415cb0e00765ea4383bc90edcce8",
                        "amount": "1",
                        "iconUrl": "",
                        "isERC1155": false,
                        "isERC721": true,
                        "sign": false,
                        "tokenID": "580",
                        "value": ""
                    },
                    {
                        "address": "0xfbde54764f51415cb0e00765ea4383bc90edcce8",
                        "amount": "1",
                        "iconUrl": "",
                        "isERC1155": false,
                        "isERC721": true,
                        "sign": false,
                        "tokenID": "581",
                        "value": ""
                    },
                    {
                        "address": "0xfbde54764f51415cb0e00765ea4383bc90edcce8",
                        "amount": "1",
                        "iconUrl": "",
                        "isERC1155": false,
                        "isERC721": true,
                        "sign": false,
                        "tokenID": "582",
                        "value": ""
                    }
                ]
            },
            {
                "account": "0xf1791f335a48b3a2bdbec79e77ded98b47551f32",
                "assets": [
                    {
                        "address": "0xfbde54764f51415cb0e00765ea4383bc90edcce8",
                        "amount": "1",
                        "iconUrl": "",
                        "isERC1155": false,
                        "isERC721": true,
                        "sign": true,
                        "tokenID": "579",
                        "value": ""
                    },
                    {
                        "address": "0xfbde54764f51415cb0e00765ea4383bc90edcce8",
                        "amount": "1",
                        "iconUrl": "",
                        "isERC1155": false,
                        "isERC721": true,
                        "sign": true,
                        "tokenID": "580",
                        "value": ""
                    },
                    {
                        "address": "0xfbde54764f51415cb0e00765ea4383bc90edcce8",
                        "amount": "1",
                        "iconUrl": "",
                        "isERC1155": false,
                        "isERC721": true,
                        "sign": true,
                        "tokenID": "581",
                        "value": ""
                    },
                    {
                        "address": "0xfbde54764f51415cb0e00765ea4383bc90edcce8",
                        "amount": "1",
                        "iconUrl": "",
                        "isERC1155": false,
                        "isERC721": true,
                        "sign": true,
                        "tokenID": "582",
                        "value": ""
                    },
                    {
                        "address": "0xfbde54764f51415cb0e00765ea4383bc90edcce8",
                        "amount": "1",
                        "iconUrl": "",
                        "isERC1155": false,
                        "isERC721": true,
                        "sign": true,
                        "tokenID": "583",
                        "value": ""
                    }
                ]
            }
        ]
    },
    "profile": {
        "basic_info": {
            "baseFee": "18.033716223",
            "blockNumber": 14776837,
            "callData": "0xa0712d680000000000000000000000000000000000000000000000000000000000000005",
            "debugEnable": true,
            "errorInfo": "",
            "eventCount": 5,
            "feeRecipient": "0x8f03f1a3f10c05e7cccf75c1fd10168e06659be7",
            "formatValue": "0",
            "gasLimit": 370000,
            "gasPrice": "20.533716223",
            "gasUsed": 171164,
            "intTxnCount": 0,
            "internalRevert": false,
            "internalRevertMessage": "",
            "isContractCreation": false,
            "isFlashloan": false,
            "maxFee": "43.731833176",
            "nonce": 34,
            "overwritedBlockNumber": -1,
            "priorityFee": "2.5",
            "receiver": "0xfbde54764f51415cb0e00765ea4383bc90edcce8",
            "revertMessage": "",
            "sender": "0xf1791f335a48b3a2bdbec79e77ded98b47551f32",
            "simulationEnable": true,
            "sourceTxnHash": "0xe54f72a72174fcb5ceea6a83953b351c55758fa2d3e97f54e44ccbf217b088c3",
            "status": true,
            "timestamp": "2022-05-15T00:31:44Z",
            "transactionFee": "0.003514633003593572",
            "txnHash": "0xe54f72a72174fcb5ceea6a83953b351c55758fa2d3e97f54e44ccbf217b088c3",
            "txnIndex": 55,
            "type": 2,
            "value": "0"
        },
        "fund_flow": [
            {
                "amount": "1",
                "from": "0x0000000000000000000000000000000000000000",
                "id": 1,
                "isERC1155": false,
                "isERC721": true,
                "isReverted": false,
                "order": 1,
                "to": "0xf1791f335a48b3a2bdbec79e77ded98b47551f32",
                "token": "0xfbde54764f51415cb0e00765ea4383bc90edcce8",
                "tokenID": "579"
            },
            {
                "amount": "1",
                "from": "0x0000000000000000000000000000000000000000",
                "id": 2,
                "isERC1155": false,
                "isERC721": true,
                "isReverted": false,
                "order": 2,
                "to": "0xf1791f335a48b3a2bdbec79e77ded98b47551f32",
                "token": "0xfbde54764f51415cb0e00765ea4383bc90edcce8",
                "tokenID": "580"
            },
            {
                "amount": "1",
                "from": "0x0000000000000000000000000000000000000000",
                "id": 3,
                "isERC1155": false,
                "isERC721": true,
                "isReverted": false,
                "order": 3,
                "to": "0xf1791f335a48b3a2bdbec79e77ded98b47551f32",
                "token": "0xfbde54764f51415cb0e00765ea4383bc90edcce8",
                "tokenID": "581"
            },
            {
                "amount": "1",
                "from": "0x0000000000000000000000000000000000000000",
                "id": 4,
                "isERC1155": false,
                "isERC721": true,
                "isReverted": false,
                "order": 4,
                "to": "0xf1791f335a48b3a2bdbec79e77ded98b47551f32",
                "token": "0xfbde54764f51415cb0e00765ea4383bc90edcce8",
                "tokenID": "582"
            },
            {
                "amount": "1",
                "from": "0x0000000000000000000000000000000000000000",
                "id": 5,
                "isERC1155": false,
                "isERC721": true,
                "isReverted": false,
                "order": 5,
                "to": "0xf1791f335a48b3a2bdbec79e77ded98b47551f32",
                "token": "0xfbde54764f51415cb0e00765ea4383bc90edcce8",
                "tokenID": "583"
            }
        ],
        "token_infos": [
            {
                "address": "0xc02aaa39b223fe8d0a0e5c4f27ead9083c756cc2",
                "decimals": 18
            },
            {
                "address": "0xeeeeeeeeeeeeeeeeeeeeeeeeeeeeeeeeeeeeeeee",
                "decimals": 18
            }
        ]
    },
    "address_label": {
        "labels": [
            {
                "address": "0xeeeeeeeeeeeeeeeeeeeeeeeeeeeeeeeeeeeeeeee",
                "label": "Ether"
            },
            {
                "address": "0xfbde54764f51415cb0e00765ea4383bc90edcce8",
                "label": "Lonely Bones Club: LB Token"
            },
            {
                "address": "0x0000000000000000000000000000000000000001",
                "label": "Precompiled"
            },
            {
                "address": "0x0000000000000000000000000000000000000002",
                "label": "Precompiled"
            },
            {
                "address": "0x0000000000000000000000000000000000000003",
                "label": "Precompiled"
            },
            {
                "address": "0x0000000000000000000000000000000000000004",
                "label": "Precompiled"
            }
        ]
    },
    "trace": {
        "accountLabels": null,
        "dataMap": {
            "-1": {
                "invocation": {
                    "address": "0xf1791f335a48b3a2bdbec79e77ded98b47551f32",
                    "callData": "",
                    "decodedMethod": null,
                    "errorInfo": "",
                    "fromAddress": "",
                    "gasUsed": 0,
                    "id": -1,
                    "methodDecoded": false,
                    "operation": "",
                    "output": "",
                    "revert": false,
                    "revertMessage": "",
                    "selector": "",
                    "status": false,
                    "value": ""
                },
                "nodeType": 0
            },
            "0": {
                "invocation": {
                    "address": "0xfbde54764f51415cb0e00765ea4383bc90edcce8",
                    "callData": "0x0000000000000000000000000000000000000000000000000000000000000005",
                    "decodedMethod": {
                        "callParams": [
                            {
                                "name": "_mintAmount",
                                "type": "uint256",
                                "value": "5"
                            }
                        ],
                        "constructorArguments": "",
                        "name": "mint",
                        "returnParams": [],
                        "signature": "mint(uint256)"
                    },
                    "errorInfo": "",
                    "fromAddress": "0xf1791f335a48b3a2bdbec79e77ded98b47551f32",
                    "gasUsed": 171164,
                    "id": 0,
                    "methodDecoded": true,
                    "operation": "CALL",
                    "output": "",
                    "revert": false,
                    "revertMessage": "",
                    "selector": "0xa0712d68",
                    "status": true,
                    "value": "0"
                },
                "nodeType": 0
            },
            "1": {
                "event": {
                    "contract": "0xfbde54764f51415cb0e00765ea4383bc90edcce8",
                    "decodedLog": {
                        "name": "Transfer",
                        "params": [
                            {
                                "name": "from",
                                "type": "address",
                                "value": "0x0000000000000000000000000000000000000000"
                            },
                            {
                                "name": "to",
                                "type": "address",
                                "value": "0xf1791f335a48b3a2bdbec79e77ded98b47551f32"
                            },
                            {
                                "decimalAvailable": true,
                                "name": "tokenId",
                                "type": "uint256",
                                "value": "579"
                            }
                        ],
                        "signature": "Transfer(address,address,uint256)"
                    },
                    "id": 1,
                    "logData": "0x",
                    "logDecoded": true,
                    "operation": "EVENT",
                    "revert": false,
                    "status": true,
                    "topics": [
                        "0xddf252ad1be2c89b69c2b068fc378daa952ba7f163c4a11628f55a4df523b3ef",
                        "0x0000000000000000000000000000000000000000000000000000000000000000",
                        "0x000000000000000000000000f1791f335a48b3a2bdbec79e77ded98b47551f32",
                        "0x0000000000000000000000000000000000000000000000000000000000000243"
                    ]
                },
                "nodeType": 1
            },
            "2": {
                "event": {
                    "contract": "0xfbde54764f51415cb0e00765ea4383bc90edcce8",
                    "decodedLog": {
                        "name": "Transfer",
                        "params": [
                            {
                                "name": "from",
                                "type": "address",
                                "value": "0x0000000000000000000000000000000000000000"
                            },
                            {
                                "name": "to",
                                "type": "address",
                                "value": "0xf1791f335a48b3a2bdbec79e77ded98b47551f32"
                            },
                            {
                                "decimalAvailable": true,
                                "name": "tokenId",
                                "type": "uint256",
                                "value": "580"
                            }
                        ],
                        "signature": "Transfer(address,address,uint256)"
                    },
                    "id": 2,
                    "logData": "0x",
                    "logDecoded": true,
                    "operation": "EVENT",
                    "revert": false,
                    "status": true,
                    "topics": [
                        "0xddf252ad1be2c89b69c2b068fc378daa952ba7f163c4a11628f55a4df523b3ef",
                        "0x0000000000000000000000000000000000000000000000000000000000000000",
                        "0x000000000000000000000000f1791f335a48b3a2bdbec79e77ded98b47551f32",
                        "0x0000000000000000000000000000000000000000000000000000000000000244"
                    ]
                },
                "nodeType": 1
            },
            "3": {
                "event": {
                    "contract": "0xfbde54764f51415cb0e00765ea4383bc90edcce8",
                    "decodedLog": {
                        "name": "Transfer",
                        "params": [
                            {
                                "name": "from",
                                "type": "address",
                                "value": "0x0000000000000000000000000000000000000000"
                            },
                            {
                                "name": "to",
                                "type": "address",
                                "value": "0xf1791f335a48b3a2bdbec79e77ded98b47551f32"
                            },
                            {
                                "decimalAvailable": true,
                                "name": "tokenId",
                                "type": "uint256",
                                "value": "581"
                            }
                        ],
                        "signature": "Transfer(address,address,uint256)"
                    },
                    "id": 3,
                    "logData": "0x",
                    "logDecoded": true,
                    "operation": "EVENT",
                    "revert": false,
                    "status": true,
                    "topics": [
                        "0xddf252ad1be2c89b69c2b068fc378daa952ba7f163c4a11628f55a4df523b3ef",
                        "0x0000000000000000000000000000000000000000000000000000000000000000",
                        "0x000000000000000000000000f1791f335a48b3a2bdbec79e77ded98b47551f32",
                        "0x0000000000000000000000000000000000000000000000000000000000000245"
                    ]
                },
                "nodeType": 1
            },
            "4": {
                "event": {
                    "contract": "0xfbde54764f51415cb0e00765ea4383bc90edcce8",
                    "decodedLog": {
                        "name": "Transfer",
                        "params": [
                            {
                                "name": "from",
                                "type": "address",
                                "value": "0x0000000000000000000000000000000000000000"
                            },
                            {
                                "name": "to",
                                "type": "address",
                                "value": "0xf1791f335a48b3a2bdbec79e77ded98b47551f32"
                            },
                            {
                                "decimalAvailable": true,
                                "name": "tokenId",
                                "type": "uint256",
                                "value": "582"
                            }
                        ],
                        "signature": "Transfer(address,address,uint256)"
                    },
                    "id": 4,
                    "logData": "0x",
                    "logDecoded": true,
                    "operation": "EVENT",
                    "revert": false,
                    "status": true,
                    "topics": [
                        "0xddf252ad1be2c89b69c2b068fc378daa952ba7f163c4a11628f55a4df523b3ef",
                        "0x0000000000000000000000000000000000000000000000000000000000000000",
                        "0x000000000000000000000000f1791f335a48b3a2bdbec79e77ded98b47551f32",
                        "0x0000000000000000000000000000000000000000000000000000000000000246"
                    ]
                },
                "nodeType": 1
            },
            "5": {
                "event": {
                    "contract": "0xfbde54764f51415cb0e00765ea4383bc90edcce8",
                    "decodedLog": {
                        "name": "Transfer",
                        "params": [
                            {
                                "name": "from",
                                "type": "address",
                                "value": "0x0000000000000000000000000000000000000000"
                            },
                            {
                                "name": "to",
                                "type": "address",
                                "value": "0xf1791f335a48b3a2bdbec79e77ded98b47551f32"
                            },
                            {
                                "decimalAvailable": true,
                                "name": "tokenId",
                                "type": "uint256",
                                "value": "583"
                            }
                        ],
                        "signature": "Transfer(address,address,uint256)"
                    },
                    "id": 5,
                    "logData": "0x",
                    "logDecoded": true,
                    "operation": "EVENT",
                    "revert": false,
                    "status": true,
                    "topics": [
                        "0xddf252ad1be2c89b69c2b068fc378daa952ba7f163c4a11628f55a4df523b3ef",
                        "0x0000000000000000000000000000000000000000000000000000000000000000",
                        "0x000000000000000000000000f1791f335a48b3a2bdbec79e77ded98b47551f32",
                        "0x0000000000000000000000000000000000000000000000000000000000000247"
                    ]
                },
                "nodeType": 1
            }
        },
        "gasFlame": [
            {
                "children": [
                    {
                        "children": [
                            {
                                "children": [],
                                "depth": 0,
                                "name": "Initial Gas",
                                "value": 21204
                            },
                            {
                                "children": [],
                                "depth": 0,
                                "name": "Executed Gas",
                                "value": 149960
                            }
                        ],
                        "depth": -1,
                        "name": "Actual Gas Used",
                        "value": 171164
                    },
                    {
                        "children": [],
                        "depth": -1,
                        "name": "Refunded Gas",
                        "value": 0
                    }
                ],
                "depth": -2,
                "name": "Total Gas",
                "value": 171164
            }
        ],
        "isConfirmed": true,
        "mainTrace": [
            {
                "children": [
                    {
                        "children": [
                            {
                                "children": [],
                                "depth": 1,
                                "id": 1,
                                "order": 1
                            },
                            {
                                "children": [],
                                "depth": 1,
                                "id": 2,
                                "order": 2
                            },
                            {
                                "children": [],
                                "depth": 1,
                                "id": 3,
                                "order": 3
                            },
                            {
                                "children": [],
                                "depth": 1,
                                "id": 4,
                                "order": 4
                            },
                            {
                                "children": [],
                                "depth": 1,
                                "id": 5,
                                "order": 5
                            }
                        ],
                        "depth": 0,
                        "id": 0,
                        "order": 0
                    }
                ],
                "depth": -1,
                "id": -1,
                "order": -1
            }
        ],
        "mainTraceNodeCount": 6,
        "parentIdMap": {
            "0": -1,
            "1": 0,
            "2": 0,
            "3": 0,
            "4": 0,
            "5": 0
        },
        "tidyTrace": [
            {
                "children": [
                    {
                        "children": [
                            {
                                "children": [],
                                "depth": 1,
                                "id": 1,
                                "order": 1
                            },
                            {
                                "children": [],
                                "depth": 1,
                                "id": 2,
                                "order": 2
                            },
                            {
                                "children": [],
                                "depth": 1,
                                "id": 3,
                                "order": 3
                            },
                            {
                                "children": [],
                                "depth": 1,
                                "id": 4,
                                "order": 4
                            },
                            {
                                "children": [],
                                "depth": 1,
                                "id": 5,
                                "order": 5
                            }
                        ],
                        "depth": 0,
                        "id": 0,
                        "order": 0
                    }
                ],
                "depth": -1,
                "id": -1,
                "order": -1
            }
        ],
        "tidyTraceNodeCount": 6
    },
    "state_change": {
        "stateChanges": [
            {
                "address": "0xfbde54764f51415cb0e00765ea4383bc90edcce8",
                "erc": "ERC-721",
                "slots": [
                    {
                        "current": "0x000000000000000000000000000000000000000000000000000000000000000d",
                        "key": "0x9908cee07e34453bf8efab721721219800a8d2df6cbb620e2154292790d6392d",
                        "prev": "0x0000000000000000000000000000000000000000000000000000000000000008"
                    },
                    {
                        "current": "0x000000000000000000000000f1791f335a48b3a2bdbec79e77ded98b47551f32",
                        "key": "0x83e3008e3af31fcc69e293b6825b3fef522aa83473e56e69122349586a735e20",
                        "prev": "0x0000000000000000000000000000000000000000000000000000000000000000"
                    },
                    {
                        "current": "0x000000000000000000000000f1791f335a48b3a2bdbec79e77ded98b47551f32",
                        "key": "0xef6fd45342162e5759cc0c69a3aec1ed38a631ce0b25ec28e6b1641da5818604",
                        "prev": "0x0000000000000000000000000000000000000000000000000000000000000000"
                    },
                    {
                        "current": "0x000000000000000000000000f1791f335a48b3a2bdbec79e77ded98b47551f32",
                        "key": "0xc84ddbe670f87e0ea7e208583d02da3ee70af580f7c0c08734ca715297094db6",
                        "prev": "0x0000000000000000000000000000000000000000000000000000000000000000"
                    },
                    {
                        "current": "0x000000000000000000000000f1791f335a48b3a2bdbec79e77ded98b47551f32",
                        "key": "0xe0e9384d16f4cb7bf7ed61607e8816eaea60a5b91949008db4e61ed33986db55",
                        "prev": "0x0000000000000000000000000000000000000000000000000000000000000000"
                    },
                    {
                        "current": "0x000000000000000000000000f1791f335a48b3a2bdbec79e77ded98b47551f32",
                        "key": "0x93dbdacc390a8d82ab00b253ad71b7a3143e78996d41b8161c12b1c36dd3382f",
                        "prev": "0x0000000000000000000000000000000000000000000000000000000000000000"
                    },
                    {
                        "current": "0x0000000000000000000000000000000000000000000000000000000000000247",
                        "key": "0x0000000000000000000000000000000000000000000000000000000000000010",
                        "prev": "0x0000000000000000000000000000000000000000000000000000000000000242"
                    }
                ],
                "storageVariables": [
                    {
                        "name": "amountMinted",
                        "type": "uint256",
                        "value": {
                            "current": "583",
                            "prev": "578",
                            "typeTag": 1
                        }
                    },
                    {
                        "name": "_balances",
                        "type": "mapping(address => uint256)",
                        "value": {
                            "pairs": [
                                {
                                    "key": "0xf1791f335a48b3a2bdbec79e77ded98b47551f32",
                                    "value": {
                                        "current": "13",
                                        "prev": "8",
                                        "typeTag": 1
                                    }
                                }
                            ],
                            "typeTag": 4
                        }
                    },
                    {
                        "name": "_owners",
                        "type": "mapping(uint256 => address)",
                        "value": {
                            "pairs": [
                                {
                                    "key": "579",
                                    "value": {
                                        "current": "0xf1791f335a48b3a2bdbec79e77ded98b47551f32",
                                        "prev": "0x0000000000000000000000000000000000000000",
                                        "typeTag": 1
                                    }
                                },
                                {
                                    "key": "580",
                                    "value": {
                                        "current": "0xf1791f335a48b3a2bdbec79e77ded98b47551f32",
                                        "prev": "0x0000000000000000000000000000000000000000",
                                        "typeTag": 1
                                    }
                                },
                                {
                                    "key": "581",
                                    "value": {
                                        "current": "0xf1791f335a48b3a2bdbec79e77ded98b47551f32",
                                        "prev": "0x0000000000000000000000000000000000000000",
                                        "typeTag": 1
                                    }
                                },
                                {
                                    "key": "582",
                                    "value": {
                                        "current": "0xf1791f335a48b3a2bdbec79e77ded98b47551f32",
                                        "prev": "0x0000000000000000000000000000000000000000",
                                        "typeTag": 1
                                    }
                                },
                                {
                                    "key": "583",
                                    "value": {
                                        "current": "0xf1791f335a48b3a2bdbec79e77ded98b47551f32",
                                        "prev": "0x0000000000000000000000000000000000000000",
                                        "typeTag": 1
                                    }
                                }
                            ],
                            "typeTag": 4
                        }
                    }
                ]
            }
        ]
    }
}