{
    "balance_change": {
        "balanceChanges": [
            {
                "account": "0xa48605d7574fbf2bc26728307196da0f80bb62b0",
                "assets": [
                    {
                        "address": "0xeeeeeeeeeeeeeeeeeeeeeeeeeeeeeeeeeeeeeeee",
                        "amount": "0.046",
                        "iconUrl": "https://assets.blocksec.com/image/1663669189317-3.png",
                        "isERC1155": false,
                        "isERC721": false,
                        "sign": false,
                        "value": "52.21062752"
                    },
                    {
                        "address": "0xda64c62254e6ffe6783dd00472559a1744512846",
                        "amount": "1",
                        "iconUrl": "",
                        "isERC1155": false,
                        "isERC721": true,
                        "sign": true,
                        "tokenID": "5694",
                        "value": ""
                    }
                ]
            },
            {
                "account": "0x7909938795602232f0c924708783b9b91d168c0d",
                "assets": [
                    {
                        "address": "0xeeeeeeeeeeeeeeeeeeeeeeeeeeeeeeeeeeeeeeee",
                        "amount": "0.0023",
                        "iconUrl": "https://assets.blocksec.com/image/1663669189317-3.png",
                        "isERC1155": false,
                        "isERC721": false,
                        "sign": true,
                        "value": "2.61053137"
                    }
                ]
            },
            {
                "account": "0x8de9c5a032463c561423387a9648c5c7bcc5bc90",
                "assets": [
                    {
                        "address": "0xeeeeeeeeeeeeeeeeeeeeeeeeeeeeeeeeeeeeeeee",
                        "amount": "0.00115",
                        "iconUrl": "https://assets.blocksec.com/image/1663669189317-3.png",
                        "isERC1155": false,
                        "isERC721": false,
                        "sign": true,
                        "value": "1.30526568"
                    }
                ]
            },
            {
                "account": "0xbe7d5b134416e79f5f1ada633515d4916d0fc733",
                "assets": [
                    {
                        "address": "0xda64c62254e6ffe6783dd00472559a1744512846",
                        "amount": "1",
                        "iconUrl": "",
                        "isERC1155": false,
                        "isERC721": true,
                        "sign": false,
                        "tokenID": "5694",
                        "value": ""
                    },
                    {
                        "address": "0xeeeeeeeeeeeeeeeeeeeeeeeeeeeeeeeeeeeeeeee",
                        "amount": "0.04255",
                        "iconUrl": "https://assets.blocksec.com/image/1663669189317-3.png",
                        "isERC1155": false,
                        "isERC721": false,
                        "sign": true,
                        "value": "48.29483045"
                    }
                ]
            }
        ]
    },
    "profile": {
        "basic_info": {
            "baseFee": "23.461242966",
            "blockNumber": 15089096,
            "callData": "0xfb0f3ee100000000000000000000000000000000000000000000000000000000000000200000000000000000000000000000000000000000000000000000000000000000000000000000000000000000000000000000000000000000000000000000000000000000000000000000000000000000000000000000000000972affe3316000000000000000000000000000be7d5b134416e79f5f1ada633515d4916d0fc733000000000000000000000000004c00500000ad104d7dbd00e3ae0a5c00560c00000000000000000000000000da64c62254e6ffe6783dd00472559a1744512846000000000000000000000000000000000000000000000000000000000000163e000000000000000000000000000000000000000000000000000000000000000100000000000000000000000000000000000000000000000000000000000000020000000000000000000000000000000000000000000000000000000062c587de0000000000000000000000000000000000000000000000000000000062ed912f00000000000000000000000000000000000000000000000000000000000000000000000000000000000000000000000000000000000000000002b3576c669f820000007b02230091a7ed01230072f7006a004d60a8d4e71d599b8104250f00000000007b02230091a7ed01230072f7006a004d60a8d4e71d599b8104250f00000000000000000000000000000000000000000000000000000000000000000002000000000000000000000000000000000000000000000000000000000000024000000000000000000000000000000000000000000000000000000000000002e00000000000000000000000000000000000000000000000000000000000000002000000000000000000000000000000000000000000000000000415eb3d7de0000000000000000000000000008de9c5a032463c561423387a9648c5c7bcc5bc9000000000000000000000000000000000000000000000000000082bd67afbc0000000000000000000000000007909938795602232f0c924708783b9b91d168c0d0000000000000000000000000000000000000000000000000000000000000041b141767c7fbbe845ff04a6f2d94c7154003538019b4f790ae2f71edbf77fd2dc02c7e1149b488fc611708f7c6cfba5df74410a23d2a4aa251e01f72978c67ab31c00000000000000000000000000000000000000000000000000000000000000",
            "debugEnable": true,
            "errorInfo": "",
            "eventCount": 3,
            "feeRecipient": "0xea674fdde714fd979de3edf0f56aa9716b898ec8",
            "formatValue": "0.046",
            "gasLimit": 165401,
            "gasPrice": "25.961242966",
            "gasUsed": 160430,
            "intTxnCount": 8,
            "internalRevert": false,
            "internalRevertMessage": "",
            "isContractCreation": false,
            "isFlashloan": false,
            "maxFee": "40.930056318",
            "nonce": 14,
            "overwritedBlockNumber": -1,
            "priorityFee": "2.5",
            "receiver": "0x00000000006c3852cbef3e08e8df289169ede581",
            "revertMessage": "",
            "sender": "0xa48605d7574fbf2bc26728307196da0f80bb62b0",
            "simulationEnable": true,
            "sourceTxnHash": "0xe50b65456d44a49907ebdfe81eeade6d6f8a51bdbb040f8fe2876dc6de7bd875",
            "status": true,
            "timestamp": "2022-07-06T13:06:49Z",
            "transactionFee": "0.00416496220903538",
            "txnHash": "0xe50b65456d44a49907ebdfe81eeade6d6f8a51bdbb040f8fe2876dc6de7bd875",
            "txnIndex": 32,
            "type": 2,
            "value": "46000000000000000"
        },
        "fund_flow": [
            {
                "amount": "0.046",
                "from": "0xa48605d7574fbf2bc26728307196da0f80bb62b0",
                "id": 1,
                "isERC1155": false,
                "isERC721": false,
                "isReverted": false,
                "order": 1,
                "to": "0x00000000006c3852cbef3e08e8df289169ede581",
                "token": "0xeeeeeeeeeeeeeeeeeeeeeeeeeeeeeeeeeeeeeeee"
            },
            {
                "amount": "1",
                "from": "0xbe7d5b134416e79f5f1ada633515d4916d0fc733",
                "id": 2,
                "isERC1155": false,
                "isERC721": true,
                "isReverted": false,
                "order": 2,
                "to": "0xa48605d7574fbf2bc26728307196da0f80bb62b0",
                "token": "0xda64c62254e6ffe6783dd00472559a1744512846",
                "tokenID": "5694"
            },
            {
                "amount": "0.00115",
                "from": "0x00000000006c3852cbef3e08e8df289169ede581",
                "id": 3,
                "isERC1155": false,
                "isERC721": false,
                "isReverted": false,
                "order": 3,
                "to": "0x8de9c5a032463c561423387a9648c5c7bcc5bc90",
                "token": "0xeeeeeeeeeeeeeeeeeeeeeeeeeeeeeeeeeeeeeeee"
            },
            {
                "amount": "0.0023",
                "from": "0x00000000006c3852cbef3e08e8df289169ede581",
                "id": 4,
                "isERC1155": false,
                "isERC721": false,
                "isReverted": false,
                "order": 4,
                "to": "0x7909938795602232f0c924708783b9b91d168c0d",
                "token": "0xeeeeeeeeeeeeeeeeeeeeeeeeeeeeeeeeeeeeeeee"
            },
            {
                "amount": "0.04255",
                "from": "0x00000000006c3852cbef3e08e8df289169ede581",
                "id": 5,
                "isERC1155": false,
                "isERC721": false,
                "isReverted": false,
                "order": 5,
                "to": "0xbe7d5b134416e79f5f1ada633515d4916d0fc733",
                "token": "0xeeeeeeeeeeeeeeeeeeeeeeeeeeeeeeeeeeeeeeee"
            }
        ],
        "token_infos": [
            {
                "address": "0xc02aaa39b223fe8d0a0e5c4f27ead9083c756cc2",
                "decimals": 18
            },
            {
                "address": "0xeeeeeeeeeeeeeeeeeeeeeeeeeeeeeeeeeeeeeeee",
                "decimals": 18
            }
        ]
    },
    "address_label": {
        "labels": [
            {
                "address": "0x0000000000000000000000000000000000000001",
                "label": "Precompiled"
            },
            {
                "address": "0x0000000000000000000000000000000000000002",
                "label": "Precompiled"
            },
            {
                "address": "0x0000000000000000000000000000000000000003",
                "label": "Precompiled"
            },
            {
                "address": "0xda64c62254e6ffe6783dd00472559a1744512846",
                "label": "Good Minds: GM Token"
            },
            {
                "address": "0xd9db270c1b5e3bd161e8c8503c55ceabee709552",
                "label": "Safe: Singleton 1.3.0"
            },
            {
                "address": "0x7909938795602232f0c924708783b9b91d168c0d",
                "label": "GnosisSafeProxy_7909_8c0d"
            },
            {
                "address": "0x00000000006c3852cbef3e08e8df289169ede581",
                "label": "Seaport 1.1"
            },
            {
                "address": "0xeeeeeeeeeeeeeeeeeeeeeeeeeeeeeeeeeeeeeeee",
                "label": "Ether"
            },
            {
                "address": "0x0000000000000000000000000000000000000000",
                "label": "Null Address"
            },
            {
                "address": "0x8de9c5a032463c561423387a9648c5c7bcc5bc90",
                "label": "OpenSea: Fees"
            },
            {
                "address": "0x1e0049783f008a0085193e00003d00cd54003c71",
                "label": "OpenSea: Conduit"
            },
            {
                "address": "0x004c00500000ad104d7dbd00e3ae0a5c00560c00",
                "label": "OpenSea: Pausable Zone"
            },
            {
                "address": "0x0000000000000000000000000000000000000004",
                "label": "Precompiled"
            }
        ]
    },
    "trace": {
        "accountLabels": null,
        "dataMap": {
            "-1": {
                "invocation": {
                    "address": "0xa48605d7574fbf2bc26728307196da0f80bb62b0",
                    "callData": "",
                    "decodedMethod": null,
                    "errorInfo": "",
                    "fromAddress": "",
                    "gasUsed": 0,
                    "id": -1,
                    "methodDecoded": false,
                    "operation": "",
                    "output": "",
                    "revert": false,
                    "revertMessage": "",
                    "selector": "",
                    "status": false,
                    "value": ""
                },
                "nodeType": 0
            },
            "0": {
                "invocation": {
                    "address": "0x00000000006c3852cbef3e08e8df289169ede581",
                    "callData": "0x00000000000000000000000000000000000000000000000000000000000000200000000000000000000000000000000000000000000000000000000000000000000000000000000000000000000000000000000000000000000000000000000000000000000000000000000000000000000000000000000000972affe3316000000000000000000000000000be7d5b134416e79f5f1ada633515d4916d0fc733000000000000000000000000004c00500000ad104d7dbd00e3ae0a5c00560c00000000000000000000000000da64c62254e6ffe6783dd00472559a1744512846000000000000000000000000000000000000000000000000000000000000163e000000000000000000000000000000000000000000000000000000000000000100000000000000000000000000000000000000000000000000000000000000020000000000000000000000000000000000000000000000000000000062c587de0000000000000000000000000000000000000000000000000000000062ed912f00000000000000000000000000000000000000000000000000000000000000000000000000000000000000000000000000000000000000000002b3576c669f820000007b02230091a7ed01230072f7006a004d60a8d4e71d599b8104250f00000000007b02230091a7ed01230072f7006a004d60a8d4e71d599b8104250f00000000000000000000000000000000000000000000000000000000000000000002000000000000000000000000000000000000000000000000000000000000024000000000000000000000000000000000000000000000000000000000000002e00000000000000000000000000000000000000000000000000000000000000002000000000000000000000000000000000000000000000000000415eb3d7de0000000000000000000000000008de9c5a032463c561423387a9648c5c7bcc5bc9000000000000000000000000000000000000000000000000000082bd67afbc0000000000000000000000000007909938795602232f0c924708783b9b91d168c0d0000000000000000000000000000000000000000000000000000000000000041b141767c7fbbe845ff04a6f2d94c7154003538019b4f790ae2f71edbf77fd2dc02c7e1149b488fc611708f7c6cfba5df74410a23d2a4aa251e01f72978c67ab31c00000000000000000000000000000000000000000000000000000000000000",
                    "decodedMethod": {
                        "callParams": [
                            {
                                "name": "parameters",
                                "type": "(address,uint256,uint256,address,address,address,uint256,uint256,uint8,uint256,uint256,bytes32,uint256,bytes32,bytes32,uint256,(uint256,address)[],bytes)",
                                "value": [
                                    {
                                        "name": "considerationToken",
                                        "type": "address",
                                        "value": "0x0000000000000000000000000000000000000000"
                                    },
                                    {
                                        "name": "considerationIdentifier",
                                        "type": "uint256",
                                        "value": "0"
                                    },
                                    {
                                        "name": "considerationAmount",
                                        "type": "uint256",
                                        "value": "42,550,000,000,000,000"
                                    },
                                    {
                                        "name": "offerer",
                                        "type": "address",
                                        "value": "0xbe7d5b134416e79f5f1ada633515d4916d0fc733"
                                    },
                                    {
                                        "name": "zone",
                                        "type": "address",
                                        "value": "0x004c00500000ad104d7dbd00e3ae0a5c00560c00"
                                    },
                                    {
                                        "name": "offerToken",
                                        "type": "address",
                                        "value": "0xda64c62254e6ffe6783dd00472559a1744512846"
                                    },
                                    {
                                        "name": "offerIdentifier",
                                        "type": "uint256",
                                        "value": "5,694"
                                    },
                                    {
                                        "name": "offerAmount",
                                        "type": "uint256",
                                        "value": "1"
                                    },
                                    {
                                        "name": "basicOrderType",
                                        "type": "uint8",
                                        "value": "2"
                                    },
                                    {
                                        "name": "startTime",
                                        "type": "uint256",
                                        "value": "1,657,112,542"
                                    },
                                    {
                                        "name": "endTime",
                                        "type": "uint256",
                                        "value": "1,659,736,367"
                                    },
                                    {
                                        "name": "zoneHash",
                                        "type": "bytes32",
                                        "value": "0x0000000000000000000000000000000000000000000000000000000000000000"
                                    },
                                    {
                                        "name": "salt",
                                        "type": "uint256",
                                        "value": "760,138,015,612,802"
                                    },
                                    {
                                        "name": "offererConduitKey",
                                        "type": "bytes32",
                                        "value": "0x0000007b02230091a7ed01230072f7006a004d60a8d4e71d599b8104250f0000"
                                    },
                                    {
                                        "name": "fulfillerConduitKey",
                                        "type": "bytes32",
                                        "value": "0x0000007b02230091a7ed01230072f7006a004d60a8d4e71d599b8104250f0000"
                                    },
                                    {
                                        "name": "totalOriginalAdditionalRecipients",
                                        "type": "uint256",
                                        "value": "2"
                                    },
                                    {
                                        "name": "additionalRecipients",
                                        "type": "(uint256,address)[]",
                                        "value": [
                                            [
                                                {
                                                    "name": "amount",
                                                    "type": "uint256",
                                                    "value": "1,150,000,000,000,000"
                                                },
                                                {
                                                    "name": "recipient",
                                                    "type": "address",
                                                    "value": "0x8de9c5a032463c561423387a9648c5c7bcc5bc90"
                                                }
                                            ],
                                            [
                                                {
                                                    "name": "amount",
                                                    "type": "uint256",
                                                    "value": "2,300,000,000,000,000"
                                                },
                                                {
                                                    "name": "recipient",
                                                    "type": "address",
                                                    "value": "0x7909938795602232f0c924708783b9b91d168c0d"
                                                }
                                            ]
                                        ]
                                    },
                                    {
                                        "name": "signature",
                                        "type": "bytes",
                                        "value": "0xb141767c7fbbe845ff04a6f2d94c7154003538019b4f790ae2f71edbf77fd2dc02c7e1149b488fc611708f7c6cfba5df74410a23d2a4aa251e01f72978c67ab31c"
                                    }
                                ]
                            }
                        ],
                        "constructorArguments": "",
                        "name": "fulfillBasicOrder",
                        "returnParams": [
                            {
                                "name": "fulfilled",
                                "type": "bool",
                                "value": true
                            }
                        ],
                        "signature": "fulfillBasicOrder((address,uint256,uint256,address,address,address,uint256,uint256,uint8,uint256,uint256,bytes32,uint256,bytes32,bytes32,uint256,(uint256,address)[],bytes))"
                    },
                    "errorInfo": "",
                    "fromAddress": "0xa48605d7574fbf2bc26728307196da0f80bb62b0",
                    "gasUsed": 160430,
                    "id": 0,
                    "methodDecoded": true,
                    "operation": "CALL",
                    "output": "0x0000000000000000000000000000000000000000000000000000000000000001",
                    "revert": false,
                    "revertMessage": "",
                    "selector": "0xfb0f3ee1",
                    "status": true,
                    "value": "0.046"
                },
                "nodeType": 0
            },
            "1": {
                "event": {
                    "contract": "0x00000000006c3852cbef3e08e8df289169ede581",
                    "decodedLog": {
                        "name": "OrderFulfilled",
                        "params": [
                            {
                                "name": "offerer",
                                "type": "address",
                                "value": "0xbe7d5b134416e79f5f1ada633515d4916d0fc733"
                            },
                            {
                                "name": "zone",
                                "type": "address",
                                "value": "0x004c00500000ad104d7dbd00e3ae0a5c00560c00"
                            },
                            {
                                "name": "orderHash",
                                "type": "bytes32",
                                "value": "0x0b035aa071464c844bc5eb0d55accc8338fe0ff0a008494999b36e79ed34bfe5"
                            },
                            {
                                "name": "recipient",
                                "type": "address",
                                "value": "0xa48605d7574fbf2bc26728307196da0f80bb62b0"
                            },
                            {
                                "name": "offer",
                                "type": "(uint8,address,uint256,uint256)[]",
                                "value": [
                                    [
                                        {
                                            "name": "itemType",
                                            "type": "uint8",
                                            "value": "2"
                                        },
                                        {
                                            "name": "token",
                                            "type": "address",
                                            "value": "0xda64c62254e6ffe6783dd00472559a1744512846"
                                        },
                                        {
                                            "name": "identifier",
                                            "type": "uint256",
                                            "value": "5,694"
                                        },
                                        {
                                            "name": "amount",
                                            "type": "uint256",
                                            "value": "1"
                                        }
                                    ]
                                ]
                            },
                            {
                                "name": "consideration",
                                "type": "(uint8,address,uint256,uint256,address)[]",
                                "value": [
                                    [
                                        {
                                            "name": "itemType",
                                            "type": "uint8",
                                            "value": "0"
                                        },
                                        {
                                            "name": "token",
                                            "type": "address",
                                            "value": "0x0000000000000000000000000000000000000000"
                                        },
                                        {
                                            "name": "identifier",
                                            "type": "uint256",
                                            "value": "0"
                                        },
                                        {
                                            "name": "amount",
                                            "type": "uint256",
                                            "value": "42,550,000,000,000,000"
                                        },
                                        {
                                            "name": "recipient",
                                            "type": "address",
                                            "value": "0xbe7d5b134416e79f5f1ada633515d4916d0fc733"
                                        }
                                    ],
                                    [
                                        {
                                            "name": "itemType",
                                            "type": "uint8",
                                            "value": "0"
                                        },
                                        {
                                            "name": "token",
                                            "type": "address",
                                            "value": "0x0000000000000000000000000000000000000000"
                                        },
                                        {
                                            "name": "identifier",
                                            "type": "uint256",
                                            "value": "0"
                                        },
                                        {
                                            "name": "amount",
                                            "type": "uint256",
                                            "value": "1,150,000,000,000,000"
                                        },
                                        {
                                            "name": "recipient",
                                            "type": "address",
                                            "value": "0x8de9c5a032463c561423387a9648c5c7bcc5bc90"
                                        }
                                    ],
                                    [
                                        {
                                            "name": "itemType",
                                            "type": "uint8",
                                            "value": "0"
                                        },
                                        {
                                            "name": "token",
                                            "type": "address",
                                            "value": "0x0000000000000000000000000000000000000000"
                                        },
                                        {
                                            "name": "identifier",
                                            "type": "uint256",
                                            "value": "0"
                                        },
                                        {
                                            "name": "amount",
                                            "type": "uint256",
                                            "value": "2,300,000,000,000,000"
                                        },
                                        {
                                            "name": "recipient",
                                            "type": "address",
                                            "value": "0x7909938795602232f0c924708783b9b91d168c0d"
                                        }
                                    ]
                                ]
                            }
                        ],
                        "signature": "OrderFulfilled(bytes32,address,address,address,(uint8,address,uint256,uint256)[],(uint8,address,uint256,uint256,address)[])"
                    },
                    "id": 1,
                    "logData": "0x0b035aa071464c844bc5eb0d55accc8338fe0ff0a008494999b36e79ed34bfe5000000000000000000000000a48605d7574fbf2bc26728307196da0f80bb62b00000000000000000000000000000000000000000000000000000000000000080000000000000000000000000000000000000000000000000000000000000012000000000000000000000000000000000000000000000000000000000000000010000000000000000000000000000000000000000000000000000000000000002000000000000000000000000da64c62254e6ffe6783dd00472559a1744512846000000000000000000000000000000000000000000000000000000000000163e0000000000000000000000000000000000000000000000000000000000000001000000000000000000000000000000000000000000000000000000000000000300000000000000000000000000000000000000000000000000000000000000000000000000000000000000000000000000000000000000000000000000000000000000000000000000000000000000000000000000000000000000000000000000000000000000000000000000000000000000000000000000972affe3316000000000000000000000000000be7d5b134416e79f5f1ada633515d4916d0fc733000000000000000000000000000000000000000000000000000000000000000000000000000000000000000000000000000000000000000000000000000000000000000000000000000000000000000000000000000000000000000000000000000000000000000000000000000000000000000000000000000415eb3d7de0000000000000000000000000008de9c5a032463c561423387a9648c5c7bcc5bc9000000000000000000000000000000000000000000000000000000000000000000000000000000000000000000000000000000000000000000000000000000000000000000000000000000000000000000000000000000000000000000000000000000000000000000000000000000000000000000000000000082bd67afbc0000000000000000000000000007909938795602232f0c924708783b9b91d168c0d",
                    "logDecoded": true,
                    "operation": "EVENT",
                    "revert": false,
                    "status": true,
                    "topics": [
                        "0x9d9af8e38d66c62e2c12f0225249fd9d721c54b83f48d9352c97c6cacdcb6f31",
                        "0x000000000000000000000000be7d5b134416e79f5f1ada633515d4916d0fc733",
                        "0x000000000000000000000000004c00500000ad104d7dbd00e3ae0a5c00560c00"
                    ]
                },
                "nodeType": 1
            },
            "10": {
                "event": {
                    "contract": "0x7909938795602232f0c924708783b9b91d168c0d",
                    "decodedLog": {
                        "name": "SafeReceived",
                        "params": [
                            {
                                "name": "sender",
                                "type": "address",
                                "value": "0x00000000006c3852cbef3e08e8df289169ede581"
                            },
                            {
                                "name": "value",
                                "type": "uint256",
                                "value": "2,300,000,000,000,000"
                            }
                        ],
                        "signature": "SafeReceived(address,uint256)"
                    },
                    "id": 10,
                    "logData": "0x00000000000000000000000000000000000000000000000000082bd67afbc000",
                    "logDecoded": true,
                    "operation": "EVENT",
                    "revert": false,
                    "status": true,
                    "topics": [
                        "0x3d0ce9bfc3ed7d6862dbb28b2dea94561fe714a1b4d019aa8af39730d1ad7c3d",
                        "0x00000000000000000000000000000000006c3852cbef3e08e8df289169ede581"
                    ]
                },
                "nodeType": 1
            },
            "11": {
                "invocation": {
                    "address": "0xbe7d5b134416e79f5f1ada633515d4916d0fc733",
                    "callData": "0x",
                    "decodedMethod": null,
                    "errorInfo": "",
                    "fromAddress": "0x00000000006c3852cbef3e08e8df289169ede581",
                    "gasUsed": 0,
                    "id": 11,
                    "methodDecoded": false,
                    "operation": "CALL",
                    "output": "",
                    "revert": false,
                    "revertMessage": "",
                    "selector": "fallback",
                    "status": true,
                    "value": "0.04255"
                },
                "nodeType": 0
            },
            "2": {
                "invocation": {
                    "address": "0x004c00500000ad104d7dbd00e3ae0a5c00560c00",
                    "callData": "0x0b035aa071464c844bc5eb0d55accc8338fe0ff0a008494999b36e79ed34bfe5000000000000000000000000a48605d7574fbf2bc26728307196da0f80bb62b0000000000000000000000000be7d5b134416e79f5f1ada633515d4916d0fc7330000000000000000000000000000000000000000000000000000000000000000",
                    "decodedMethod": {
                        "callParams": [
                            {
                                "name": "orderHash",
                                "type": "bytes32",
                                "value": "0x0b035aa071464c844bc5eb0d55accc8338fe0ff0a008494999b36e79ed34bfe5"
                            },
                            {
                                "name": "caller",
                                "type": "address",
                                "value": "0xa48605d7574fbf2bc26728307196da0f80bb62b0"
                            },
                            {
                                "name": "offerer",
                                "type": "address",
                                "value": "0xbe7d5b134416e79f5f1ada633515d4916d0fc733"
                            },
                            {
                                "name": "zoneHash",
                                "type": "bytes32",
                                "value": "0x0000000000000000000000000000000000000000000000000000000000000000"
                            }
                        ],
                        "constructorArguments": "",
                        "name": "isValidOrder",
                        "returnParams": [
                            {
                                "name": "validOrderMagicValue",
                                "type": "bytes4",
                                "value": "0x0e1d31dc"
                            }
                        ],
                        "signature": "isValidOrder(bytes32,address,address,bytes32)"
                    },
                    "errorInfo": "",
                    "fromAddress": "0x00000000006c3852cbef3e08e8df289169ede581",
                    "gasUsed": 257,
                    "id": 2,
                    "methodDecoded": true,
                    "operation": "STATICCALL",
                    "output": "0x0e1d31dc00000000000000000000000000000000000000000000000000000000",
                    "revert": false,
                    "revertMessage": "",
                    "selector": "0x0e1d31dc",
                    "status": true,
                    "value": "0"
                },
                "nodeType": 0
            },
            "3": {
                "invocation": {
                    "address": "0x0000000000000000000000000000000000000001",
                    "callData": "0xb528c878a0f84c1b264b5855918a845757a70e0015910c51eaf6f05a000000000000000000000000000000000000000000000000000000000000001cb141767c7fbbe845ff04a6f2d94c7154003538019b4f790ae2f71edbf77fd2dc02c7e1149b488fc611708f7c6cfba5df74410a23d2a4aa251e01f72978c67ab3",
                    "decodedMethod": {
                        "callParams": [
                            {
                                "name": "hash",
                                "type": "bytes32",
                                "value": "0x6dcbbc08b528c878a0f84c1b264b5855918a845757a70e0015910c51eaf6f05a"
                            },
                            {
                                "name": "v",
                                "type": "uint256",
                                "value": "28"
                            },
                            {
                                "name": "r",
                                "type": "bytes32",
                                "value": "0xb141767c7fbbe845ff04a6f2d94c7154003538019b4f790ae2f71edbf77fd2dc"
                            },
                            {
                                "name": "s",
                                "type": "bytes32",
                                "value": "0x02c7e1149b488fc611708f7c6cfba5df74410a23d2a4aa251e01f72978c67ab3"
                            }
                        ],
                        "constructorArguments": "",
                        "name": "ecrecover",
                        "returnParams": [
                            {
                                "name": "",
                                "type": "address",
                                "value": "0xbe7d5b134416e79f5f1ada633515d4916d0fc733"
                            }
                        ],
                        "signature": "ecrecover(bytes32,uint256,bytes32,bytes32)"
                    },
                    "errorInfo": "",
                    "fromAddress": "0x00000000006c3852cbef3e08e8df289169ede581",
                    "gasUsed": 3000,
                    "id": 3,
                    "methodDecoded": true,
                    "operation": "STATICCALL",
                    "output": "0x000000000000000000000000be7d5b134416e79f5f1ada633515d4916d0fc733",
                    "revert": false,
                    "revertMessage": "",
                    "selector": "0x6dcbbc08",
                    "status": true,
                    "value": "0"
                },
                "nodeType": 0
            },
            "4": {
                "invocation": {
                    "address": "0x1e0049783f008a0085193e00003d00cd54003c71",
                    "callData": "0x000000000000000000000000000000000000000000000000000000000000002000000000000000000000000000000000000000000000000000000000000000010000000000000000000000000000000000000000000000000000000000000002000000000000000000000000da64c62254e6ffe6783dd00472559a1744512846000000000000000000000000be7d5b134416e79f5f1ada633515d4916d0fc733000000000000000000000000a48605d7574fbf2bc26728307196da0f80bb62b0000000000000000000000000000000000000000000000000000000000000163e0000000000000000000000000000000000000000000000000000000000000001",
                    "decodedMethod": {
                        "callParams": [
                            {
                                "name": "transfers",
                                "type": "(uint8,address,address,address,uint256,uint256)[]",
                                "value": [
                                    [
                                        {
                                            "name": "itemType",
                                            "type": "uint8",
                                            "value": "2"
                                        },
                                        {
                                            "name": "token",
                                            "type": "address",
                                            "value": "0xda64c62254e6ffe6783dd00472559a1744512846"
                                        },
                                        {
                                            "name": "from",
                                            "type": "address",
                                            "value": "0xbe7d5b134416e79f5f1ada633515d4916d0fc733"
                                        },
                                        {
                                            "name": "to",
                                            "type": "address",
                                            "value": "0xa48605d7574fbf2bc26728307196da0f80bb62b0"
                                        },
                                        {
                                            "name": "identifier",
                                            "type": "uint256",
                                            "value": "5,694"
                                        },
                                        {
                                            "name": "amount",
                                            "type": "uint256",
                                            "value": "1"
                                        }
                                    ]
                                ]
                            }
                        ],
                        "constructorArguments": "",
                        "name": "execute",
                        "returnParams": [
                            {
                                "name": "magicValue",
                                "type": "bytes4",
                                "value": "0x4ce34aa2"
                            }
                        ],
                        "signature": "execute((uint8,address,address,address,uint256,uint256)[])"
                    },
                    "errorInfo": "",
                    "fromAddress": "0x00000000006c3852cbef3e08e8df289169ede581",
                    "gasUsed": 48136,
                    "id": 4,
                    "methodDecoded": true,
                    "operation": "CALL",
                    "output": "0x4ce34aa200000000000000000000000000000000000000000000000000000000",
                    "revert": false,
                    "revertMessage": "",
                    "selector": "0x4ce34aa2",
                    "status": true,
                    "value": "0"
                },
                "nodeType": 0
            },
            "5": {
                "invocation": {
                    "address": "0xda64c62254e6ffe6783dd00472559a1744512846",
                    "callData": "0x000000000000000000000000be7d5b134416e79f5f1ada633515d4916d0fc733000000000000000000000000a48605d7574fbf2bc26728307196da0f80bb62b0000000000000000000000000000000000000000000000000000000000000163e",
                    "decodedMethod": {
                        "callParams": [
                            {
                                "name": "from",
                                "type": "address",
                                "value": "0xbe7d5b134416e79f5f1ada633515d4916d0fc733"
                            },
                            {
                                "name": "to",
                                "type": "address",
                                "value": "0xa48605d7574fbf2bc26728307196da0f80bb62b0"
                            },
                            {
                                "decimalAvailable": true,
                                "name": "tokenId",
                                "type": "uint256",
                                "value": "5,694"
                            }
                        ],
                        "constructorArguments": "",
                        "name": "transferFrom",
                        "returnParams": [],
                        "signature": "transferFrom(address,address,uint256)"
                    },
                    "errorInfo": "",
                    "fromAddress": "0x1e0049783f008a0085193e00003d00cd54003c71",
                    "gasUsed": 42020,
                    "id": 5,
                    "methodDecoded": true,
                    "operation": "CALL",
                    "output": "",
                    "revert": false,
                    "revertMessage": "",
                    "selector": "0x23b872dd",
                    "status": true,
                    "value": "0"
                },
                "nodeType": 0
            },
            "6": {
                "event": {
                    "contract": "0xda64c62254e6ffe6783dd00472559a1744512846",
                    "decodedLog": {
                        "name": "Transfer",
                        "params": [
                            {
                                "name": "from",
                                "type": "address",
                                "value": "0xbe7d5b134416e79f5f1ada633515d4916d0fc733"
                            },
                            {
                                "name": "to",
                                "type": "address",
                                "value": "0xa48605d7574fbf2bc26728307196da0f80bb62b0"
                            },
                            {
                                "decimalAvailable": true,
                                "name": "tokenId",
                                "type": "uint256",
                                "value": "5,694"
                            }
                        ],
                        "signature": "Transfer(address,address,uint256)"
                    },
                    "id": 6,
                    "logData": "0x",
                    "logDecoded": true,
                    "operation": "EVENT",
                    "revert": false,
                    "status": true,
                    "topics": [
                        "0xddf252ad1be2c89b69c2b068fc378daa952ba7f163c4a11628f55a4df523b3ef",
                        "0x000000000000000000000000be7d5b134416e79f5f1ada633515d4916d0fc733",
                        "0x000000000000000000000000a48605d7574fbf2bc26728307196da0f80bb62b0",
                        "0x000000000000000000000000000000000000000000000000000000000000163e"
                    ]
                },
                "nodeType": 1
            },
            "7": {
                "invocation": {
                    "address": "0x8de9c5a032463c561423387a9648c5c7bcc5bc90",
                    "callData": "0x",
                    "decodedMethod": null,
                    "errorInfo": "",
                    "fromAddress": "0x00000000006c3852cbef3e08e8df289169ede581",
                    "gasUsed": 0,
                    "id": 7,
                    "methodDecoded": false,
                    "operation": "CALL",
                    "output": "",
                    "revert": false,
                    "revertMessage": "",
                    "selector": "fallback",
                    "status": true,
                    "value": "0.00115"
                },
                "nodeType": 0
            },
            "8": {
                "invocation": {
                    "address": "0x7909938795602232f0c924708783b9b91d168c0d",
                    "callData": "0x",
                    "decodedMethod": null,
                    "errorInfo": "",
                    "fromAddress": "0x00000000006c3852cbef3e08e8df289169ede581",
                    "gasUsed": 6329,
                    "id": 8,
                    "methodDecoded": false,
                    "operation": "CALL",
                    "output": "",
                    "revert": false,
                    "revertMessage": "",
                    "selector": "fallback",
                    "status": true,
                    "value": "0.0023"
                },
                "nodeType": 0
            },
            "9": {
                "invocation": {
                    "address": "0xd9db270c1b5e3bd161e8c8503c55ceabee709552",
                    "callData": "0x",
                    "decodedMethod": null,
                    "errorInfo": "",
                    "fromAddress": "0x7909938795602232f0c924708783b9b91d168c0d",
                    "gasUsed": 1504,
                    "id": 9,
                    "methodDecoded": false,
                    "operation": "DELEGATECALL",
                    "output": "",
                    "revert": false,
                    "revertMessage": "",
                    "selector": "fallback",
                    "status": true,
                    "value": "0.0023"
                },
                "nodeType": 0
            }
        },
        "gasFlame": [
            {
                "children": [
                    {
                        "children": [
                            {
                                "children": [],
                                "depth": 0,
                                "name": "Initial Gas",
                                "value": 27624
                            },
                            {
                                "children": [
                                    {
                                        "children": [],
                                        "depth": 1,
                                        "name": "isValidOrder",
                                        "value": 257
                                    },
                                    {
                                        "children": [],
                                        "depth": 1,
                                        "name": "ecrecover",
                                        "value": 3000
                                    },
                                    {
                                        "children": [
                                            {
                                                "children": [],
                                                "depth": 2,
                                                "name": "transferFrom",
                                                "value": 42020
                                            }
                                        ],
                                        "depth": 1,
                                        "name": "execute",
                                        "value": 48136
                                    },
                                    {
                                        "children": [],
                                        "depth": 1,
                                        "name": "fallback",
                                        "value": 0
                                    },
                                    {
                                        "children": [
                                            {
                                                "children": [],
                                                "depth": 2,
                                                "name": "fallback",
                                                "value": 1504
                                            }
                                        ],
                                        "depth": 1,
                                        "name": "fallback",
                                        "value": 6329
                                    },
                                    {
                                        "children": [],
                                        "depth": 1,
                                        "name": "fallback",
                                        "value": 0
                                    }
                                ],
                                "depth": 0,
                                "name": "Executed Gas",
                                "value": 135606
                            }
                        ],
                        "depth": -1,
                        "name": "Actual Gas Used",
                        "value": 160430
                    },
                    {
                        "children": [],
                        "depth": -1,
                        "name": "Refunded Gas",
                        "value": 2800
                    }
                ],
                "depth": -2,
                "name": "Total Gas",
                "value": 163230
            }
        ],
        "isConfirmed": true,
        "mainTrace": [
            {
                "children": [
                    {
                        "children": [
                            {
                                "children": [],
                                "depth": 1,
                                "id": 1,
                                "order": 1
                            },
                            {
                                "children": [],
                                "depth": 1,
                                "id": 2,
                                "order": 2
                            },
                            {
                                "children": [],
                                "depth": 1,
                                "id": 3,
                                "order": 3
                            },
                            {
                                "children": [
                                    {
                                        "children": [
                                            {
                                                "children": [],
                                                "depth": 3,
                                                "id": 6,
                                                "order": 6
                                            }
                                        ],
                                        "depth": 2,
                                        "id": 5,
                                        "order": 5
                                    }
                                ],
                                "depth": 1,
                                "id": 4,
                                "order": 4
                            },
                            {
                                "children": [],
                                "depth": 1,
                                "id": 7,
                                "order": 7
                            },
                            {
                                "children": [
                                    {
                                        "children": [
                                            {
                                                "children": [],
                                                "depth": 3,
                                                "id": 10,
                                                "order": 10
                                            }
                                        ],
                                        "depth": 2,
                                        "id": 9,
                                        "order": 9
                                    }
                                ],
                                "depth": 1,
                                "id": 8,
                                "order": 8
                            },
                            {
                                "children": [],
                                "depth": 1,
                                "id": 11,
                                "order": 11
                            }
                        ],
                        "depth": 0,
                        "id": 0,
                        "order": 0
                    }
                ],
                "depth": -1,
                "id": -1,
                "order": -1
            }
        ],
        "mainTraceNodeCount": 12,
        "parentIdMap": {
            "0": -1,
            "1": 0,
            "10": 9,
            "11": 0,
            "2": 0,
            "3": 0,
            "4": 0,
            "5": 4,
            "6": 5,
            "7": 0,
            "8": 0,
            "9": 8
        },
        "tidyTrace": [
            {
                "children": [
                    {
                        "children": [
                            {
                                "children": [],
                                "depth": 1,
                                "id": 1,
                                "order": 1
                            },
                            {
                                "children": [
                                    {
                                        "children": [
                                            {
                                                "children": [],
                                                "depth": 3,
                                                "id": 6,
                                                "order": 6
                                            }
                                        ],
                                        "depth": 2,
                                        "id": 5,
                                        "order": 5
                                    }
                                ],
                                "depth": 1,
                                "id": 4,
                                "order": 4
                            },
                            {
                                "children": [],
                                "depth": 1,
                                "id": 7,
                                "order": 7
                            },
                            {
                                "children": [
                                    {
                                        "children": [
                                            {
                                                "children": [],
                                                "depth": 3,
                                                "id": 10,
                                                "order": 10
                                            }
                                        ],
                                        "depth": 2,
                                        "id": 9,
                                        "order": 9
                                    }
                                ],
                                "depth": 1,
                                "id": 8,
                                "order": 8
                            },
                            {
                                "children": [],
                                "depth": 1,
                                "id": 11,
                                "order": 11
                            }
                        ],
                        "depth": 0,
                        "id": 0,
                        "order": 0
                    }
                ],
                "depth": -1,
                "id": -1,
                "order": -1
            }
        ],
        "tidyTraceNodeCount": 10
    },
    "state_change": {
        "stateChanges": [
            {
                "address": "0x00000000006c3852cbef3e08e8df289169ede581",
                "erc": "",
                "slots": [
                    {
                        "current": "0x0000000000000000000000000000010000000000000000000000000000010001",
                        "key": "0x7f38679d2d0a116909308f85dcbe6c48ea266f70c1a97a6d0d7ccbda50435aaa",
                        "prev": "0x0000000000000000000000000000000000000000000000000000000000000000"
                    }
                ],
                "storageVariables": [
                    {
                        "name": "_orderStatus",
                        "type": "mapping(bytes32 => struct OrderStatus)",
                        "value": {
                            "pairs": [
                                {
                                    "key": "0x0b035aa071464c844bc5eb0d55accc8338fe0ff0a008494999b36e79ed34bfe5",
                                    "value": {
                                        "fields": [
                                            {
                                                "name": "isValidated",
                                                "type": "bool",
                                                "value": {
                                                    "current": "true",
                                                    "prev": "false",
                                                    "typeTag": 1
                                                }
                                            },
                                            {
                                                "name": "isCancelled",
                                                "type": "bool",
                                                "value": {
                                                    "current": "false",
                                                    "prev": "false",
                                                    "typeTag": 1
                                                }
                                            },
                                            {
                                                "name": "numerator",
                                                "type": "uint120",
                                                "value": {
                                                    "current": "1",
                                                    "prev": "0",
                                                    "typeTag": 1
                                                }
                                            },
                                            {
                                                "name": "denominator",
                                                "type": "uint120",
                                                "value": {
                                                    "current": "1",
                                                    "prev": "0",
                                                    "typeTag": 1
                                                }
                                            }
                                        ],
                                        "typeTag": 3
                                    }
                                }
                            ],
                            "typeTag": 4
                        }
                    }
                ]
            },
            {
                "address": "0xda64c62254e6ffe6783dd00472559a1744512846",
                "erc": "ERC-721",
                "slots": [
                    {
                        "current": "0x0000000000000000000000000000000000000000000000010000000000000000",
                        "key": "0x20048260299800fcc039b202f988c34a9d321f0261ff68c58e72ebfb40e2882f",
                        "prev": "0x0000000000000000000000000000000000000000000000010000000000000001"
                    },
                    {
                        "current": "0x0000000000000000000000000000000000000000000000000000000000000001",
                        "key": "0x6a92d07cc68474df998541334cb71e01b3437c122f344a118e746f142eca6aa8",
                        "prev": "0x0000000000000000000000000000000000000000000000000000000000000000"
                    },
                    {
                        "current": "0x000000020000000062c588e9a48605d7574fbf2bc26728307196da0f80bb62b0",
                        "key": "0x85cb01230faf0be32ada239deec1a249882289bca61bb31d43cfca85c5c4f10d",
                        "prev": "0x000000020000000062c48f2bbe7d5b134416e79f5f1ada633515d4916d0fc733"
                    }
                ],
                "storageVariables": [
                    {
                        "name": "_packedAddressData",
                        "type": "mapping(address => uint256)",
                        "value": {
                            "pairs": [
                                {
                                    "key": "0xa48605d7574fbf2bc26728307196da0f80bb62b0",
                                    "value": {
                                        "current": "1",
                                        "prev": "0",
                                        "typeTag": 1
                                    }
                                },
                                {
                                    "key": "0xbe7d5b134416e79f5f1ada633515d4916d0fc733",
                                    "value": {
                                        "current": "18446744073709551616",
                                        "prev": "18446744073709551617",
                                        "typeTag": 1
                                    }
                                }
                            ],
                            "typeTag": 4
                        }
                    },
                    {
                        "name": "_packedOwnerships",
                        "type": "mapping(uint256 => uint256)",
                        "value": {
                            "pairs": [
                                {
                                    "key": "5694",
                                    "value": {
                                        "current": "53919893336723152673868805266439974991337989978735383215911217095344",
                                        "prev": "53919893336723059234371364630763131351466225635307748538290201937715",
                                        "typeTag": 1
                                    }
                                }
                            ],
                            "typeTag": 4
                        }
                    }
                ]
            }
        ]
    }
}