{
    "balance_change": {
        "balanceChanges": []
    },
    "profile": {
        "basic_info": {
            "baseFee": "11.924704013",
            "blockNumber": 15583995,
            "callData": "0xa22cb4650000000000000000000000001e0049783f008a0085193e00003d00cd54003c710000000000000000000000000000000000000000000000000000000000000001",
            "debugEnable": true,
            "errorInfo": "",
            "eventCount": 1,
            "feeRecipient": "0xebec795c9c8bbd61ffc14a6662944748f299cacf",
            "formatValue": "0",
            "gasLimit": 46660,
            "gasPrice": "13.424704013",
            "gasUsed": 46660,
            "intTxnCount": 0,
            "internalRevert": false,
            "internalRevertMessage": "",
            "isContractCreation": false,
            "isFlashloan": false,
            "maxFee": "23.143921868",
            "nonce": 78,
            "overwritedBlockNumber": -1,
            "priorityFee": "1.5",
            "receiver": "0x9231f13343f871b051fa5002e8c04beed91b4f62",
            "revertMessage": "",
            "sender": "0x7e05dbc526ea5d0265407258b0757b82ee016d6a",
            "simulationEnable": true,
            "sourceTxnHash": "0xe514b4ee7758f74e219aaa254e4027249f2acfdc5ed372604576cbda81d5e66b",
            "status": true,
            "timestamp": "2022-09-21T20:02:23Z",
            "transactionFee": "0.00062639668924658",
            "txnHash": "0xe514b4ee7758f74e219aaa254e4027249f2acfdc5ed372604576cbda81d5e66b",
            "txnIndex": 35,
            "type": 2,
            "value": "0"
        },
        "fund_flow": [],
        "token_infos": [
            {
                "address": "0xc02aaa39b223fe8d0a0e5c4f27ead9083c756cc2",
                "decimals": 18
            },
            {
                "address": "0xeeeeeeeeeeeeeeeeeeeeeeeeeeeeeeeeeeeeeeee",
                "decimals": 18
            }
        ]
    },
    "address_label": {
        "labels": [
            {
                "address": "0x1e0049783f008a0085193e00003d00cd54003c71",
                "label": "OpenSea: Conduit"
            },
            {
                "address": "0x9231f13343f871b051fa5002e8c04beed91b4f62",
                "label": "ATARI50 (1972)"
            },
            {
                "address": "0x0000000000000000000000000000000000000001",
                "label": "Precompiled"
            },
            {
                "address": "0x0000000000000000000000000000000000000002",
                "label": "Precompiled"
            },
            {
                "address": "0x0000000000000000000000000000000000000003",
                "label": "Precompiled"
            },
            {
                "address": "0x0000000000000000000000000000000000000004",
                "label": "Precompiled"
            },
            {
                "address": "0xeeeeeeeeeeeeeeeeeeeeeeeeeeeeeeeeeeeeeeee",
                "label": "Ether"
            }
        ]
    },
    "trace": {
        "accountLabels": null,
        "dataMap": {
            "-1": {
                "invocation": {
                    "address": "0x7e05dbc526ea5d0265407258b0757b82ee016d6a",
                    "callData": "",
                    "decodedMethod": null,
                    "errorInfo": "",
                    "fromAddress": "",
                    "gasUsed": 0,
                    "id": -1,
                    "methodDecoded": false,
                    "operation": "",
                    "output": "",
                    "revert": false,
                    "revertMessage": "",
                    "selector": "",
                    "status": false,
                    "value": ""
                },
                "nodeType": 0
            },
            "0": {
                "invocation": {
                    "address": "0x9231f13343f871b051fa5002e8c04beed91b4f62",
                    "callData": "0x0000000000000000000000001e0049783f008a0085193e00003d00cd54003c710000000000000000000000000000000000000000000000000000000000000001",
                    "decodedMethod": {
                        "callParams": [
                            {
                                "name": "operator",
                                "type": "address",
                                "value": "0x1e0049783f008a0085193e00003d00cd54003c71"
                            },
                            {
                                "name": "approved",
                                "type": "bool",
                                "value": true
                            }
                        ],
                        "constructorArguments": "",
                        "name": "setApprovalForAll",
                        "returnParams": [],
                        "signature": "setApprovalForAll(address,bool)"
                    },
                    "errorInfo": "",
                    "fromAddress": "0x7e05dbc526ea5d0265407258b0757b82ee016d6a",
                    "gasUsed": 46660,
                    "id": 0,
                    "methodDecoded": true,
                    "operation": "CALL",
                    "output": "",
                    "revert": false,
                    "revertMessage": "",
                    "selector": "0xa22cb465",
                    "status": true,
                    "value": "0"
                },
                "nodeType": 0
            },
            "1": {
                "event": {
                    "contract": "0x9231f13343f871b051fa5002e8c04beed91b4f62",
                    "decodedLog": {
                        "name": "ApprovalForAll",
                        "params": [
                            {
                                "name": "owner",
                                "type": "address",
                                "value": "0x7e05dbc526ea5d0265407258b0757b82ee016d6a"
                            },
                            {
                                "name": "operator",
                                "type": "address",
                                "value": "0x1e0049783f008a0085193e00003d00cd54003c71"
                            },
                            {
                                "name": "approved",
                                "type": "bool",
                                "value": true
                            }
                        ],
                        "signature": "ApprovalForAll(address,address,bool)"
                    },
                    "id": 1,
                    "logData": "0x0000000000000000000000000000000000000000000000000000000000000001",
                    "logDecoded": true,
                    "operation": "EVENT",
                    "revert": false,
                    "status": true,
                    "topics": [
                        "0x17307eab39ab6107e8899845ad3d59bd9653f200f220920489ca2b5937696c31",
                        "0x0000000000000000000000007e05dbc526ea5d0265407258b0757b82ee016d6a",
                        "0x0000000000000000000000001e0049783f008a0085193e00003d00cd54003c71"
                    ]
                },
                "nodeType": 1
            }
        },
        "gasFlame": [
            {
                "children": [
                    {
                        "children": [
                            {
                                "children": [],
                                "depth": 0,
                                "name": "Initial Gas",
                                "value": 21488
                            },
                            {
                                "children": [],
                                "depth": 0,
                                "name": "Executed Gas",
                                "value": 25172
                            }
                        ],
                        "depth": -1,
                        "name": "Actual Gas Used",
                        "value": 46660
                    },
                    {
                        "children": [],
                        "depth": -1,
                        "name": "Refunded Gas",
                        "value": 0
                    }
                ],
                "depth": -2,
                "name": "Total Gas",
                "value": 46660
            }
        ],
        "isConfirmed": true,
        "mainTrace": [
            {
                "children": [
                    {
                        "children": [
                            {
                                "children": [],
                                "depth": 1,
                                "id": 1,
                                "order": 1
                            }
                        ],
                        "depth": 0,
                        "id": 0,
                        "order": 0
                    }
                ],
                "depth": -1,
                "id": -1,
                "order": -1
            }
        ],
        "mainTraceNodeCount": 2,
        "parentIdMap": {
            "0": -1,
            "1": 0
        },
        "tidyTrace": [
            {
                "children": [
                    {
                        "children": [
                            {
                                "children": [],
                                "depth": 1,
                                "id": 1,
                                "order": 1
                            }
                        ],
                        "depth": 0,
                        "id": 0,
                        "order": 0
                    }
                ],
                "depth": -1,
                "id": -1,
                "order": -1
            }
        ],
        "tidyTraceNodeCount": 2
    },
    "state_change": {
        "stateChanges": [
            {
                "address": "0x9231f13343f871b051fa5002e8c04beed91b4f62",
                "erc": "ERC-721",
                "slots": [
                    {
                        "current": "0x0000000000000000000000000000000000000000000000000000000000000001",
                        "key": "0x58c06849b87cb2e59dedcceecf98aedc2ebc85b9c13cdb4d8a601e21bd109c24",
                        "prev": "0x0000000000000000000000000000000000000000000000000000000000000000"
                    }
                ],
                "storageVariables": [
                    {
                        "name": "_operatorApprovals",
                        "type": "mapping(address => mapping(address => bool))",
                        "value": {
                            "pairs": [
                                {
                                    "key": "0x7e05dbc526ea5d0265407258b0757b82ee016d6a",
                                    "value": {
                                        "pairs": [
                                            {
                                                "key": "0x1e0049783f008a0085193e00003d00cd54003c71",
                                                "value": {
                                                    "current": "true",
                                                    "prev": "false",
                                                    "typeTag": 1
                                                }
                                            }
                                        ],
                                        "typeTag": 4
                                    }
                                }
                            ],
                            "typeTag": 4
                        }
                    }
                ]
            }
        ]
    }
}