{
    "balance_change": {
        "balanceChanges": [
            {
                "account": "0x71660c4005ba85c37ccec55d0c4493e66fe775d3",
                "assets": [
                    {
                        "address": "0x090185f2135308bad17527004364ebcc2d37e5f6",
                        "amount": "31,583.10303987",
                        "iconUrl": "https://assets.blocksec.com/icon/a7df4bfafbbe70efb1025b84a0c1d21de99b320b64a410f111d1dcb8bb06512a.png",
                        "isERC1155": false,
                        "isERC721": false,
                        "sign": false,
                        "value": ""
                    }
                ]
            },
            {
                "account": "0xdbcccd9d76341ecac11c0cb6a55243098a40fe5f",
                "assets": [
                    {
                        "address": "0x090185f2135308bad17527004364ebcc2d37e5f6",
                        "amount": "31,583.10303987",
                        "iconUrl": "https://assets.blocksec.com/icon/a7df4bfafbbe70efb1025b84a0c1d21de99b320b64a410f111d1dcb8bb06512a.png",
                        "isERC1155": false,
                        "isERC721": false,
                        "sign": true,
                        "value": ""
                    }
                ]
            }
        ]
    },
    "profile": {
        "basic_info": {
            "baseFee": "169.519380509",
            "blockNumber": 14044053,
            "callData": "0xa9059cbb000000000000000000000000dbcccd9d76341ecac11c0cb6a55243098a40fe5f0000000000000000000000000000000000000000000006b01f9a304f6b296c00",
            "debugEnable": true,
            "errorInfo": "",
            "eventCount": 1,
            "feeRecipient": "0xea674fdde714fd979de3edf0f56aa9716b898ec8",
            "formatValue": "0",
            "gasLimit": 250000,
            "gasPrice": "171.519380509",
            "gasUsed": 51292,
            "intTxnCount": 0,
            "internalRevert": false,
            "internalRevertMessage": "",
            "isContractCreation": false,
            "isFlashloan": false,
            "maxFee": "332",
            "nonce": 857311,
            "overwritedBlockNumber": -1,
            "priorityFee": "2",
            "receiver": "0x090185f2135308bad17527004364ebcc2d37e5f6",
            "revertMessage": "",
            "sender": "0x71660c4005ba85c37ccec55d0c4493e66fe775d3",
            "simulationEnable": true,
            "sourceTxnHash": "0xe5dbbd0a7deea8c2aba3249d5eb869f8c3f03d68c016d866b04b0ac8f8931eab",
            "status": true,
            "timestamp": "2022-01-20T18:19:38Z",
            "transactionFee": "0.008797572065067628",
            "txnHash": "0xe5dbbd0a7deea8c2aba3249d5eb869f8c3f03d68c016d866b04b0ac8f8931eab",
            "txnIndex": 256,
            "type": 2,
            "value": "0"
        },
        "fund_flow": [
            {
                "amount": "31,583.10303987",
                "from": "0x71660c4005ba85c37ccec55d0c4493e66fe775d3",
                "id": 1,
                "isERC1155": false,
                "isERC721": false,
                "isReverted": false,
                "order": 1,
                "to": "0xdbcccd9d76341ecac11c0cb6a55243098a40fe5f",
                "token": "0x090185f2135308bad17527004364ebcc2d37e5f6"
            }
        ],
        "token_infos": [
            {
                "address": "0xc02aaa39b223fe8d0a0e5c4f27ead9083c756cc2",
                "decimals": 18
            },
            {
                "address": "0xeeeeeeeeeeeeeeeeeeeeeeeeeeeeeeeeeeeeeeee",
                "decimals": 18
            },
            {
                "address": "0x090185f2135308bad17527004364ebcc2d37e5f6",
                "decimals": 18
            }
        ]
    },
    "address_label": {
        "labels": [
            {
                "address": "0x090185f2135308bad17527004364ebcc2d37e5f6",
                "label": "Abracadabra.money: SPELL Token"
            },
            {
                "address": "0x0000000000000000000000000000000000000001",
                "label": "Precompiled"
            },
            {
                "address": "0x0000000000000000000000000000000000000002",
                "label": "Precompiled"
            },
            {
                "address": "0x0000000000000000000000000000000000000003",
                "label": "Precompiled"
            },
            {
                "address": "0x0000000000000000000000000000000000000004",
                "label": "Precompiled"
            },
            {
                "address": "0xeeeeeeeeeeeeeeeeeeeeeeeeeeeeeeeeeeeeeeee",
                "label": "Ether"
            },
            {
                "address": "0x71660c4005ba85c37ccec55d0c4493e66fe775d3",
                "label": "Coinbase 1"
            }
        ]
    },
    "trace": {
        "accountLabels": null,
        "dataMap": {
            "-1": {
                "invocation": {
                    "address": "0x71660c4005ba85c37ccec55d0c4493e66fe775d3",
                    "callData": "",
                    "decodedMethod": null,
                    "errorInfo": "",
                    "fromAddress": "",
                    "gasUsed": 0,
                    "id": -1,
                    "methodDecoded": false,
                    "operation": "",
                    "output": "",
                    "revert": false,
                    "revertMessage": "",
                    "selector": "",
                    "status": false,
                    "value": ""
                },
                "nodeType": 0
            },
            "0": {
                "invocation": {
                    "address": "0x090185f2135308bad17527004364ebcc2d37e5f6",
                    "callData": "0x000000000000000000000000dbcccd9d76341ecac11c0cb6a55243098a40fe5f0000000000000000000000000000000000000000000006b01f9a304f6b296c00",
                    "decodedMethod": {
                        "callParams": [
                            {
                                "name": "to",
                                "type": "address",
                                "value": "0xdbcccd9d76341ecac11c0cb6a55243098a40fe5f"
                            },
                            {
                                "decimalAvailable": true,
                                "name": "amount",
                                "type": "uint256",
                                "value": "31,583,103,039,870,000,000,000"
                            }
                        ],
                        "constructorArguments": "",
                        "name": "transfer",
                        "returnParams": [
                            {
                                "name": "",
                                "type": "bool",
                                "value": true
                            }
                        ],
                        "signature": "transfer(address,uint256)"
                    },
                    "errorInfo": "",
                    "fromAddress": "0x71660c4005ba85c37ccec55d0c4493e66fe775d3",
                    "gasUsed": 51292,
                    "id": 0,
                    "methodDecoded": true,
                    "operation": "CALL",
                    "output": "0x0000000000000000000000000000000000000000000000000000000000000001",
                    "revert": false,
                    "revertMessage": "",
                    "selector": "0xa9059cbb",
                    "status": true,
                    "value": "0"
                },
                "nodeType": 0
            },
            "1": {
                "event": {
                    "contract": "0x090185f2135308bad17527004364ebcc2d37e5f6",
                    "decodedLog": {
                        "name": "Transfer",
                        "params": [
                            {
                                "name": "_from",
                                "type": "address",
                                "value": "0x71660c4005ba85c37ccec55d0c4493e66fe775d3"
                            },
                            {
                                "name": "_to",
                                "type": "address",
                                "value": "0xdbcccd9d76341ecac11c0cb6a55243098a40fe5f"
                            },
                            {
                                "decimalAvailable": true,
                                "name": "_value",
                                "type": "uint256",
                                "value": "31,583,103,039,870,000,000,000"
                            }
                        ],
                        "signature": "Transfer(address,address,uint256)"
                    },
                    "id": 1,
                    "logData": "0x0000000000000000000000000000000000000000000006b01f9a304f6b296c00",
                    "logDecoded": true,
                    "operation": "EVENT",
                    "revert": false,
                    "status": true,
                    "topics": [
                        "0xddf252ad1be2c89b69c2b068fc378daa952ba7f163c4a11628f55a4df523b3ef",
                        "0x00000000000000000000000071660c4005ba85c37ccec55d0c4493e66fe775d3",
                        "0x000000000000000000000000dbcccd9d76341ecac11c0cb6a55243098a40fe5f"
                    ]
                },
                "nodeType": 1
            }
        },
        "gasFlame": [
            {
                "children": [
                    {
                        "children": [
                            {
                                "children": [],
                                "depth": 0,
                                "name": "Initial Gas",
                                "value": 21668
                            },
                            {
                                "children": [],
                                "depth": 0,
                                "name": "Executed Gas",
                                "value": 29624
                            }
                        ],
                        "depth": -1,
                        "name": "Actual Gas Used",
                        "value": 51292
                    },
                    {
                        "children": [],
                        "depth": -1,
                        "name": "Refunded Gas",
                        "value": 0
                    }
                ],
                "depth": -2,
                "name": "Total Gas",
                "value": 51292
            }
        ],
        "isConfirmed": true,
        "mainTrace": [
            {
                "children": [
                    {
                        "children": [
                            {
                                "children": [],
                                "depth": 1,
                                "id": 1,
                                "order": 1
                            }
                        ],
                        "depth": 0,
                        "id": 0,
                        "order": 0
                    }
                ],
                "depth": -1,
                "id": -1,
                "order": -1
            }
        ],
        "mainTraceNodeCount": 2,
        "parentIdMap": {
            "0": -1,
            "1": 0
        },
        "tidyTrace": [
            {
                "children": [
                    {
                        "children": [
                            {
                                "children": [],
                                "depth": 1,
                                "id": 1,
                                "order": 1
                            }
                        ],
                        "depth": 0,
                        "id": 0,
                        "order": 0
                    }
                ],
                "depth": -1,
                "id": -1,
                "order": -1
            }
        ],
        "tidyTraceNodeCount": 2
    },
    "state_change": {
        "stateChanges": [
            {
                "address": "0x090185f2135308bad17527004364ebcc2d37e5f6",
                "erc": "ERC-20",
                "slots": [
                    {
                        "current": "0x000000000000000000000000000000000000000000223dcc2fc8ec6e9e51447b",
                        "key": "0x4da2864b764cc5d0830110edc8d6e06fb36e5f1ea5e82eb12f3ca108ca156d0a",
                        "prev": "0x00000000000000000000000000000000000000000022447c4f631cbe097ab07b"
                    },
                    {
                        "current": "0x0000000000000000000000000000000000000000000006b01f9a304f6b296c00",
                        "key": "0x49c0226ac9069acb1650bcd6f58b838106b38be97754bdca06cafbf4e3cdaca7",
                        "prev": "0x0000000000000000000000000000000000000000000000000000000000000000"
                    }
                ],
                "storageVariables": [
                    {
                        "name": "balanceOf",
                        "type": "mapping(address => uint256)",
                        "value": {
                            "pairs": [
                                {
                                    "key": "0x71660c4005ba85c37ccec55d0c4493e66fe775d3",
                                    "value": {
                                        "current": "41395308801405352018003067",
                                        "prev": "41426891904445222018003067",
                                        "typeTag": 1
                                    }
                                },
                                {
                                    "key": "0xdbcccd9d76341ecac11c0cb6a55243098a40fe5f",
                                    "value": {
                                        "current": "31583103039870000000000",
                                        "prev": "0",
                                        "typeTag": 1
                                    }
                                }
                            ],
                            "typeTag": 4
                        }
                    }
                ]
            }
        ]
    }
}