{
    "balance_change": {
        "balanceChanges": [
            {
                "account": "0x5c05481c3ba6d2596698232bcf224b59ac1ba276",
                "assets": [
                    {
                        "address": "0x5e6b6d9abad9093fdc861ea1600eba1b355cd940",
                        "amount": "7,625.042",
                        "iconUrl": "https://assets.blocksec.com/icon/c995e27b6bfeb7eea3fc70938934604d8de8d300ce0814a4965b14b25b7f422a.png",
                        "isERC1155": false,
                        "isERC721": false,
                        "sign": false,
                        "value": ""
                    }
                ]
            },
            {
                "account": "0xf73c3c65bde10bf26c2e1763104e609a41702efe",
                "assets": [
                    {
                        "address": "0x5e6b6d9abad9093fdc861ea1600eba1b355cd940",
                        "amount": "7,625.042",
                        "iconUrl": "https://assets.blocksec.com/icon/c995e27b6bfeb7eea3fc70938934604d8de8d300ce0814a4965b14b25b7f422a.png",
                        "isERC1155": false,
                        "isERC721": false,
                        "sign": true,
                        "value": ""
                    }
                ]
            }
        ]
    },
    "profile": {
        "basic_info": {
            "baseFee": "",
            "blockNumber": 7458224,
            "callData": "0xa9059cbb000000000000000000000000f73c3c65bde10bf26c2e1763104e609a41702efe00000000000000000000000000000000000000000000019d5ab703cbca150000",
            "debugEnable": true,
            "errorInfo": "",
            "eventCount": 1,
            "feeRecipient": "0x464b0b37db1ee1b5fbe27300acfbf172fd5e4f53",
            "formatValue": "0",
            "gasLimit": 100000,
            "gasPrice": "21",
            "gasUsed": 22945,
            "intTxnCount": 0,
            "internalRevert": false,
            "internalRevertMessage": "",
            "isContractCreation": false,
            "isFlashloan": false,
            "maxFee": "",
            "nonce": 1,
            "overwritedBlockNumber": -1,
            "priorityFee": "",
            "receiver": "0x5e6b6d9abad9093fdc861ea1600eba1b355cd940",
            "revertMessage": "",
            "sender": "0x5c05481c3ba6d2596698232bcf224b59ac1ba276",
            "simulationEnable": true,
            "sourceTxnHash": "0xe680e37ac543af6e82bfd6ad44c9399c005c15376009dcdbf60cefc7eb737300",
            "status": true,
            "timestamp": "2019-03-28T17:00:29Z",
            "transactionFee": "0.000481845",
            "txnHash": "0xe680e37ac543af6e82bfd6ad44c9399c005c15376009dcdbf60cefc7eb737300",
            "txnIndex": 80,
            "type": 0,
            "value": "0"
        },
        "fund_flow": [
            {
                "amount": "7,625.042",
                "from": "0x5c05481c3ba6d2596698232bcf224b59ac1ba276",
                "id": 1,
                "isERC1155": false,
                "isERC721": false,
                "isReverted": false,
                "order": 1,
                "to": "0xf73c3c65bde10bf26c2e1763104e609a41702efe",
                "token": "0x5e6b6d9abad9093fdc861ea1600eba1b355cd940"
            }
        ],
        "token_infos": [
            {
                "address": "0xeeeeeeeeeeeeeeeeeeeeeeeeeeeeeeeeeeeeeeee",
                "decimals": 18
            },
            {
                "address": "0x5e6b6d9abad9093fdc861ea1600eba1b355cd940",
                "decimals": 18
            },
            {
                "address": "0xc02aaa39b223fe8d0a0e5c4f27ead9083c756cc2",
                "decimals": 18
            }
        ]
    },
    "address_label": {
        "labels": [
            {
                "address": "0x0000000000000000000000000000000000000003",
                "label": "Precompiled"
            },
            {
                "address": "0x0000000000000000000000000000000000000004",
                "label": "Precompiled"
            },
            {
                "address": "0xeeeeeeeeeeeeeeeeeeeeeeeeeeeeeeeeeeeeeeee",
                "label": "Ether"
            },
            {
                "address": "0xf73c3c65bde10bf26c2e1763104e609a41702efe",
                "label": "Bibox"
            },
            {
                "address": "0x5e6b6d9abad9093fdc861ea1600eba1b355cd940",
                "label": "IOT Chain Token"
            },
            {
                "address": "0x0000000000000000000000000000000000000001",
                "label": "Precompiled"
            },
            {
                "address": "0x0000000000000000000000000000000000000002",
                "label": "Precompiled"
            }
        ]
    },
    "trace": {
        "accountLabels": null,
        "dataMap": {
            "-1": {
                "invocation": {
                    "address": "0x5c05481c3ba6d2596698232bcf224b59ac1ba276",
                    "callData": "",
                    "decodedMethod": null,
                    "errorInfo": "",
                    "fromAddress": "",
                    "gasUsed": 0,
                    "id": -1,
                    "methodDecoded": false,
                    "operation": "",
                    "output": "",
                    "revert": false,
                    "revertMessage": "",
                    "selector": "",
                    "status": false,
                    "value": ""
                },
                "nodeType": 0
            },
            "0": {
                "invocation": {
                    "address": "0x5e6b6d9abad9093fdc861ea1600eba1b355cd940",
                    "callData": "0x000000000000000000000000f73c3c65bde10bf26c2e1763104e609a41702efe00000000000000000000000000000000000000000000019d5ab703cbca150000",
                    "decodedMethod": {
                        "callParams": [
                            {
                                "name": "_to",
                                "type": "address",
                                "value": "0xf73c3c65bde10bf26c2e1763104e609a41702efe"
                            },
                            {
                                "decimalAvailable": true,
                                "name": "_value",
                                "type": "uint256",
                                "value": "7,625,042,000,000,000,000,000"
                            }
                        ],
                        "constructorArguments": "",
                        "name": "transfer",
                        "returnParams": [],
                        "signature": "transfer(address,uint256)"
                    },
                    "errorInfo": "",
                    "fromAddress": "0x5c05481c3ba6d2596698232bcf224b59ac1ba276",
                    "gasUsed": 22945,
                    "id": 0,
                    "methodDecoded": true,
                    "operation": "CALL",
                    "output": "",
                    "revert": false,
                    "revertMessage": "",
                    "selector": "0xa9059cbb",
                    "status": true,
                    "value": "0"
                },
                "nodeType": 0
            },
            "1": {
                "event": {
                    "contract": "0x5e6b6d9abad9093fdc861ea1600eba1b355cd940",
                    "decodedLog": {
                        "name": "Transfer",
                        "params": [
                            {
                                "name": "from",
                                "type": "address",
                                "value": "0x5c05481c3ba6d2596698232bcf224b59ac1ba276"
                            },
                            {
                                "name": "to",
                                "type": "address",
                                "value": "0xf73c3c65bde10bf26c2e1763104e609a41702efe"
                            },
                            {
                                "decimalAvailable": true,
                                "name": "value",
                                "type": "uint256",
                                "value": "7,625,042,000,000,000,000,000"
                            }
                        ],
                        "signature": "Transfer(address,address,uint256)"
                    },
                    "id": 1,
                    "logData": "0x00000000000000000000000000000000000000000000019d5ab703cbca150000",
                    "logDecoded": true,
                    "operation": "EVENT",
                    "revert": false,
                    "status": true,
                    "topics": [
                        "0xddf252ad1be2c89b69c2b068fc378daa952ba7f163c4a11628f55a4df523b3ef",
                        "0x0000000000000000000000005c05481c3ba6d2596698232bcf224b59ac1ba276",
                        "0x000000000000000000000000f73c3c65bde10bf26c2e1763104e609a41702efe"
                    ]
                },
                "nodeType": 1
            }
        },
        "gasFlame": [
            {
                "children": [
                    {
                        "children": [
                            {
                                "children": [],
                                "depth": 0,
                                "name": "Initial Gas",
                                "value": 23320
                            },
                            {
                                "children": [],
                                "depth": 0,
                                "name": "Executed Gas",
                                "value": 14625
                            }
                        ],
                        "depth": -1,
                        "name": "Actual Gas Used",
                        "value": 22945
                    },
                    {
                        "children": [],
                        "depth": -1,
                        "name": "Refunded Gas",
                        "value": 15000
                    }
                ],
                "depth": -2,
                "name": "Total Gas",
                "value": 37945
            }
        ],
        "isConfirmed": true,
        "mainTrace": [
            {
                "children": [
                    {
                        "children": [
                            {
                                "children": [],
                                "depth": 1,
                                "id": 1,
                                "order": 1
                            }
                        ],
                        "depth": 0,
                        "id": 0,
                        "order": 0
                    }
                ],
                "depth": -1,
                "id": -1,
                "order": -1
            }
        ],
        "mainTraceNodeCount": 2,
        "parentIdMap": {
            "0": -1,
            "1": 0
        },
        "tidyTrace": [
            {
                "children": [
                    {
                        "children": [
                            {
                                "children": [],
                                "depth": 1,
                                "id": 1,
                                "order": 1
                            }
                        ],
                        "depth": 0,
                        "id": 0,
                        "order": 0
                    }
                ],
                "depth": -1,
                "id": -1,
                "order": -1
            }
        ],
        "tidyTraceNodeCount": 2
    },
    "state_change": {
        "stateChanges": [
            {
                "address": "0x5e6b6d9abad9093fdc861ea1600eba1b355cd940",
                "erc": "",
                "slots": [
                    {
                        "current": "0x0000000000000000000000000000000000000000000000000000000000000000",
                        "key": "0x3f846cd695cb4ad3ffb95aa21b3b4612fe8024fd2a2ea19b17ebef9a38869ba2",
                        "prev": "0x00000000000000000000000000000000000000000000019d5ab703cbca150000"
                    },
                    {
                        "current": "0x0000000000000000000000000000000000000000000001d319143f212c25c4d1",
                        "key": "0xc335c71a8894d17b23c55188cc3bca0d0c8ab9c90625af5b59d0eb8f44906f3d",
                        "prev": "0x000000000000000000000000000000000000000000000035be5d3b556210c4d1"
                    }
                ],
                "storageVariables": [
                    {
                        "name": "balanceOf",
                        "type": "mapping(address => uint256)",
                        "value": {
                            "pairs": [
                                {
                                    "key": "0x5c05481c3ba6d2596698232bcf224b59ac1ba276",
                                    "value": {
                                        "current": "0",
                                        "prev": "7625042000000000000000",
                                        "typeTag": 1
                                    }
                                },
                                {
                                    "key": "0xf73c3c65bde10bf26c2e1763104e609a41702efe",
                                    "value": {
                                        "current": "8616436621184550159569",
                                        "prev": "991394621184550159569",
                                        "typeTag": 1
                                    }
                                }
                            ],
                            "typeTag": 4
                        }
                    }
                ]
            }
        ]
    }
}