{
    "balance_change": {
        "balanceChanges": [
            {
                "account": "0x501077b68821afaed30018e91622fc2bd78db44d",
                "assets": [
                    {
                        "address": "0xb4a81261b16b92af0b9f7c4a83f1e885132d81e4",
                        "amount": "154,104,322.281834574250845692",
                        "iconUrl": "",
                        "isERC1155": false,
                        "isERC721": false,
                        "sign": true,
                        "value": "467.6960389"
                    },
                    {
                        "address": "0x95ad61b0a150d79219dcf64e1e6cc01f0b64c4ce",
                        "amount": "154,104,638.33",
                        "iconUrl": "https://assets.blocksec.com/icon/56235cdcac277d59ed89deae8cb8e206f4c4384e75186903e74565b748deabf5.png",
                        "isERC1155": false,
                        "isERC721": false,
                        "sign": false,
                        "value": "1326.308266"
                    }
                ]
            },
            {
                "account": "0xb4a81261b16b92af0b9f7c4a83f1e885132d81e4",
                "assets": [
                    {
                        "address": "0x95ad61b0a150d79219dcf64e1e6cc01f0b64c4ce",
                        "amount": "154,104,638.33",
                        "iconUrl": "https://assets.blocksec.com/icon/56235cdcac277d59ed89deae8cb8e206f4c4384e75186903e74565b748deabf5.png",
                        "isERC1155": false,
                        "isERC721": false,
                        "sign": true,
                        "value": "1326.308266"
                    }
                ]
            },
            {
                "account": "0x0000000000000000000000000000000000000000",
                "assets": [
                    {
                        "address": "0xb4a81261b16b92af0b9f7c4a83f1e885132d81e4",
                        "amount": "154,104,322.281834574250845692",
                        "iconUrl": "",
                        "isERC1155": false,
                        "isERC721": false,
                        "sign": false,
                        "value": "467.6960389"
                    }
                ]
            }
        ]
    },
    "profile": {
        "basic_info": {
            "baseFee": "",
            "blockNumber": 12782921,
            "callData": "0xa59f3e0c0000000000000000000000000000000000000000007f78ed2ef19850de190000",
            "debugEnable": true,
            "errorInfo": "",
            "eventCount": 3,
            "feeRecipient": "0xf541c3cd1d2df407fb9bb52b3489fc2aaeedd97e",
            "formatValue": "0",
            "gasLimit": 76031,
            "gasPrice": "27",
            "gasUsed": 60823,
            "intTxnCount": 2,
            "internalRevert": false,
            "internalRevertMessage": "",
            "isContractCreation": false,
            "isFlashloan": false,
            "maxFee": "",
            "nonce": 3,
            "overwritedBlockNumber": -1,
            "priorityFee": "",
            "receiver": "0xb4a81261b16b92af0b9f7c4a83f1e885132d81e4",
            "revertMessage": "",
            "sender": "0x501077b68821afaed30018e91622fc2bd78db44d",
            "simulationEnable": true,
            "sourceTxnHash": "0xe6a1f82785e2b989925c00ca77aa9da604bdfca33d6fdba42e439624366a12ee",
            "status": true,
            "timestamp": "2021-07-07T22:11:56Z",
            "transactionFee": "0.001642221",
            "txnHash": "0xe6a1f82785e2b989925c00ca77aa9da604bdfca33d6fdba42e439624366a12ee",
            "txnIndex": 109,
            "type": 0,
            "value": "0"
        },
        "fund_flow": [
            {
                "amount": "154,104,322.281834574250845692",
                "from": "0x0000000000000000000000000000000000000000",
                "id": 1,
                "isERC1155": false,
                "isERC721": false,
                "isReverted": false,
                "order": 1,
                "to": "0x501077b68821afaed30018e91622fc2bd78db44d",
                "token": "0xb4a81261b16b92af0b9f7c4a83f1e885132d81e4"
            },
            {
                "amount": "154,104,638.33",
                "from": "0x501077b68821afaed30018e91622fc2bd78db44d",
                "id": 2,
                "isERC1155": false,
                "isERC721": false,
                "isReverted": false,
                "order": 2,
                "to": "0xb4a81261b16b92af0b9f7c4a83f1e885132d81e4",
                "token": "0x95ad61b0a150d79219dcf64e1e6cc01f0b64c4ce"
            }
        ],
        "token_infos": [
            {
                "address": "0x95ad61b0a150d79219dcf64e1e6cc01f0b64c4ce",
                "decimals": 18
            },
            {
                "address": "0xb4a81261b16b92af0b9f7c4a83f1e885132d81e4",
                "decimals": 18
            },
            {
                "address": "0xc02aaa39b223fe8d0a0e5c4f27ead9083c756cc2",
                "decimals": 18
            },
            {
                "address": "0xeeeeeeeeeeeeeeeeeeeeeeeeeeeeeeeeeeeeeeee",
                "decimals": 18
            }
        ]
    },
    "address_label": {
        "labels": [
            {
                "address": "0xeeeeeeeeeeeeeeeeeeeeeeeeeeeeeeeeeeeeeeee",
                "label": "Ether"
            },
            {
                "address": "0x95ad61b0a150d79219dcf64e1e6cc01f0b64c4ce",
                "label": "Shiba Inu: SHIB Token"
            },
            {
                "address": "0xb4a81261b16b92af0b9f7c4a83f1e885132d81e4",
                "label": "Shiba Inu: xSHIB Token"
            },
            {
                "address": "0x0000000000000000000000000000000000000001",
                "label": "Precompiled"
            },
            {
                "address": "0x0000000000000000000000000000000000000002",
                "label": "Precompiled"
            },
            {
                "address": "0x0000000000000000000000000000000000000003",
                "label": "Precompiled"
            },
            {
                "address": "0x0000000000000000000000000000000000000004",
                "label": "Precompiled"
            }
        ]
    },
    "trace": {
        "accountLabels": null,
        "dataMap": {
            "-1": {
                "invocation": {
                    "address": "0x501077b68821afaed30018e91622fc2bd78db44d",
                    "callData": "",
                    "decodedMethod": null,
                    "errorInfo": "",
                    "fromAddress": "",
                    "gasUsed": 0,
                    "id": -1,
                    "methodDecoded": false,
                    "operation": "",
                    "output": "",
                    "revert": false,
                    "revertMessage": "",
                    "selector": "",
                    "status": false,
                    "value": ""
                },
                "nodeType": 0
            },
            "0": {
                "invocation": {
                    "address": "0xb4a81261b16b92af0b9f7c4a83f1e885132d81e4",
                    "callData": "0x0000000000000000000000000000000000000000007f78ed2ef19850de190000",
                    "decodedMethod": {
                        "callParams": [
                            {
                                "name": "_amount",
                                "type": "uint256",
                                "value": "154,104,638,330,000,000,000,000,000"
                            }
                        ],
                        "constructorArguments": "",
                        "name": "enter",
                        "returnParams": [],
                        "signature": "enter(uint256)"
                    },
                    "errorInfo": "",
                    "fromAddress": "0x501077b68821afaed30018e91622fc2bd78db44d",
                    "gasUsed": 60823,
                    "id": 0,
                    "methodDecoded": true,
                    "operation": "CALL",
                    "output": "",
                    "revert": false,
                    "revertMessage": "",
                    "selector": "0xa59f3e0c",
                    "status": true,
                    "value": "0"
                },
                "nodeType": 0
            },
            "1": {
                "invocation": {
                    "address": "0x95ad61b0a150d79219dcf64e1e6cc01f0b64c4ce",
                    "callData": "0x000000000000000000000000b4a81261b16b92af0b9f7c4a83f1e885132d81e4",
                    "decodedMethod": {
                        "callParams": [
                            {
                                "name": "account",
                                "type": "address",
                                "value": "0xb4a81261b16b92af0b9f7c4a83f1e885132d81e4"
                            }
                        ],
                        "constructorArguments": "",
                        "name": "balanceOf",
                        "returnParams": [
                            {
                                "decimalAvailable": true,
                                "name": "",
                                "type": "uint256",
                                "value": "43,976,301,337,395,382,029,560,066,580,811"
                            }
                        ],
                        "signature": "balanceOf(address)"
                    },
                    "errorInfo": "",
                    "fromAddress": "0xb4a81261b16b92af0b9f7c4a83f1e885132d81e4",
                    "gasUsed": 2639,
                    "id": 1,
                    "methodDecoded": true,
                    "operation": "STATICCALL",
                    "output": "0x000000000000000000000000000000000000022b0f17e0ca1038b87d4263a14b",
                    "revert": false,
                    "revertMessage": "",
                    "selector": "0x70a08231",
                    "status": true,
                    "value": "0"
                },
                "nodeType": 0
            },
            "2": {
                "event": {
                    "contract": "0xb4a81261b16b92af0b9f7c4a83f1e885132d81e4",
                    "decodedLog": {
                        "name": "Transfer",
                        "params": [
                            {
                                "name": "from",
                                "type": "address",
                                "value": "0x0000000000000000000000000000000000000000"
                            },
                            {
                                "name": "to",
                                "type": "address",
                                "value": "0x501077b68821afaed30018e91622fc2bd78db44d"
                            },
                            {
                                "decimalAvailable": true,
                                "name": "value",
                                "type": "uint256",
                                "value": "154,104,322,281,834,574,250,845,692"
                            }
                        ],
                        "signature": "Transfer(address,address,uint256)"
                    },
                    "id": 2,
                    "logData": "0x0000000000000000000000000000000000000000007f78dc0ce4f45b2a6d25fc",
                    "logDecoded": true,
                    "operation": "EVENT",
                    "revert": false,
                    "status": true,
                    "topics": [
                        "0xddf252ad1be2c89b69c2b068fc378daa952ba7f163c4a11628f55a4df523b3ef",
                        "0x0000000000000000000000000000000000000000000000000000000000000000",
                        "0x000000000000000000000000501077b68821afaed30018e91622fc2bd78db44d"
                    ]
                },
                "nodeType": 1
            },
            "3": {
                "invocation": {
                    "address": "0x95ad61b0a150d79219dcf64e1e6cc01f0b64c4ce",
                    "callData": "0x000000000000000000000000501077b68821afaed30018e91622fc2bd78db44d000000000000000000000000b4a81261b16b92af0b9f7c4a83f1e885132d81e40000000000000000000000000000000000000000007f78ed2ef19850de190000",
                    "decodedMethod": {
                        "callParams": [
                            {
                                "name": "sender",
                                "type": "address",
                                "value": "0x501077b68821afaed30018e91622fc2bd78db44d"
                            },
                            {
                                "name": "recipient",
                                "type": "address",
                                "value": "0xb4a81261b16b92af0b9f7c4a83f1e885132d81e4"
                            },
                            {
                                "decimalAvailable": true,
                                "name": "amount",
                                "type": "uint256",
                                "value": "154,104,638,330,000,000,000,000,000"
                            }
                        ],
                        "constructorArguments": "",
                        "name": "transferFrom",
                        "returnParams": [
                            {
                                "name": "",
                                "type": "bool",
                                "value": true
                            }
                        ],
                        "signature": "transferFrom(address,address,uint256)"
                    },
                    "errorInfo": "",
                    "fromAddress": "0xb4a81261b16b92af0b9f7c4a83f1e885132d81e4",
                    "gasUsed": 18451,
                    "id": 3,
                    "methodDecoded": true,
                    "operation": "CALL",
                    "output": "0x0000000000000000000000000000000000000000000000000000000000000001",
                    "revert": false,
                    "revertMessage": "",
                    "selector": "0x23b872dd",
                    "status": true,
                    "value": "0"
                },
                "nodeType": 0
            },
            "4": {
                "event": {
                    "contract": "0x95ad61b0a150d79219dcf64e1e6cc01f0b64c4ce",
                    "decodedLog": {
                        "name": "Transfer",
                        "params": [
                            {
                                "name": "from",
                                "type": "address",
                                "value": "0x501077b68821afaed30018e91622fc2bd78db44d"
                            },
                            {
                                "name": "to",
                                "type": "address",
                                "value": "0xb4a81261b16b92af0b9f7c4a83f1e885132d81e4"
                            },
                            {
                                "decimalAvailable": true,
                                "name": "value",
                                "type": "uint256",
                                "value": "154,104,638,330,000,000,000,000,000"
                            }
                        ],
                        "signature": "Transfer(address,address,uint256)"
                    },
                    "id": 4,
                    "logData": "0x0000000000000000000000000000000000000000007f78ed2ef19850de190000",
                    "logDecoded": true,
                    "operation": "EVENT",
                    "revert": false,
                    "status": true,
                    "topics": [
                        "0xddf252ad1be2c89b69c2b068fc378daa952ba7f163c4a11628f55a4df523b3ef",
                        "0x000000000000000000000000501077b68821afaed30018e91622fc2bd78db44d",
                        "0x000000000000000000000000b4a81261b16b92af0b9f7c4a83f1e885132d81e4"
                    ]
                },
                "nodeType": 1
            },
            "5": {
                "event": {
                    "contract": "0x95ad61b0a150d79219dcf64e1e6cc01f0b64c4ce",
                    "decodedLog": {
                        "name": "Approval",
                        "params": [
                            {
                                "name": "owner",
                                "type": "address",
                                "value": "0x501077b68821afaed30018e91622fc2bd78db44d"
                            },
                            {
                                "name": "spender",
                                "type": "address",
                                "value": "0xb4a81261b16b92af0b9f7c4a83f1e885132d81e4"
                            },
                            {
                                "decimalAvailable": true,
                                "name": "value",
                                "type": "uint256",
                                "value": "115,792,089,237,316,195,423,570,985,008,687,907,853,269,984,665,640,409,934,819,254,007,913,129,639,935"
                            }
                        ],
                        "signature": "Approval(address,address,uint256)"
                    },
                    "id": 5,
                    "logData": "0xffffffffffffffffffffffffffffffffffffffffff808712d10e67af21e6ffff",
                    "logDecoded": true,
                    "operation": "EVENT",
                    "revert": false,
                    "status": true,
                    "topics": [
                        "0x8c5be1e5ebec7d5bd14f71427d1e84f3dd0314c0f7b2291e5b200ac8c7c3b925",
                        "0x000000000000000000000000501077b68821afaed30018e91622fc2bd78db44d",
                        "0x000000000000000000000000b4a81261b16b92af0b9f7c4a83f1e885132d81e4"
                    ]
                },
                "nodeType": 1
            }
        },
        "gasFlame": [
            {
                "children": [
                    {
                        "children": [
                            {
                                "children": [],
                                "depth": 0,
                                "name": "Initial Gas",
                                "value": 21300
                            },
                            {
                                "children": [
                                    {
                                        "children": [],
                                        "depth": 1,
                                        "name": "balanceOf",
                                        "value": 2639
                                    },
                                    {
                                        "children": [],
                                        "depth": 1,
                                        "name": "transferFrom",
                                        "value": 18451
                                    }
                                ],
                                "depth": 0,
                                "name": "Executed Gas",
                                "value": 54523
                            }
                        ],
                        "depth": -1,
                        "name": "Actual Gas Used",
                        "value": 60823
                    },
                    {
                        "children": [],
                        "depth": -1,
                        "name": "Refunded Gas",
                        "value": 15000
                    }
                ],
                "depth": -2,
                "name": "Total Gas",
                "value": 75823
            }
        ],
        "isConfirmed": true,
        "mainTrace": [
            {
                "children": [
                    {
                        "children": [
                            {
                                "children": [],
                                "depth": 1,
                                "id": 1,
                                "order": 1
                            },
                            {
                                "children": [],
                                "depth": 1,
                                "id": 2,
                                "order": 2
                            },
                            {
                                "children": [
                                    {
                                        "children": [],
                                        "depth": 2,
                                        "id": 4,
                                        "order": 4
                                    },
                                    {
                                        "children": [],
                                        "depth": 2,
                                        "id": 5,
                                        "order": 5
                                    }
                                ],
                                "depth": 1,
                                "id": 3,
                                "order": 3
                            }
                        ],
                        "depth": 0,
                        "id": 0,
                        "order": 0
                    }
                ],
                "depth": -1,
                "id": -1,
                "order": -1
            }
        ],
        "mainTraceNodeCount": 6,
        "parentIdMap": {
            "0": -1,
            "1": 0,
            "2": 0,
            "3": 0,
            "4": 3,
            "5": 3
        },
        "tidyTrace": [
            {
                "children": [
                    {
                        "children": [
                            {
                                "children": [],
                                "depth": 1,
                                "id": 2,
                                "order": 2
                            },
                            {
                                "children": [
                                    {
                                        "children": [],
                                        "depth": 2,
                                        "id": 4,
                                        "order": 4
                                    },
                                    {
                                        "children": [],
                                        "depth": 2,
                                        "id": 5,
                                        "order": 5
                                    }
                                ],
                                "depth": 1,
                                "id": 3,
                                "order": 3
                            }
                        ],
                        "depth": 0,
                        "id": 0,
                        "order": 0
                    }
                ],
                "depth": -1,
                "id": -1,
                "order": -1
            }
        ],
        "tidyTraceNodeCount": 5
    },
    "state_change": {
        "stateChanges": [
            {
                "address": "0x95ad61b0a150d79219dcf64e1e6cc01f0b64c4ce",
                "erc": "ERC-20",
                "slots": [
                    {
                        "current": "0x000000000000000000000000000000000000022b0f9759b73f2a50ce207ca14b",
                        "key": "0xe87f52381707d07670f7aa9f9bb40c6970e2356f35ab15c3c3afa29845cda474",
                        "prev": "0x000000000000000000000000000000000000022b0f17e0ca1038b87d4263a14b"
                    },
                    {
                        "current": "0xffffffffffffffffffffffffffffffffffffffffff808712d10e67af21e6ffff",
                        "key": "0x80cc8604e0efef2dac7435fa094ff9d4d3742d864abad99750b9504e1a173efa",
                        "prev": "0xffffffffffffffffffffffffffffffffffffffffffffffffffffffffffffffff"
                    },
                    {
                        "current": "0x0000000000000000000000000000000000000000000000000000000000000000",
                        "key": "0xb95997dfe6a580a859b10a15429027b6aa7a6743e3e83067a75d5b31185ad936",
                        "prev": "0x0000000000000000000000000000000000000000007f78ed2ef19850de190000"
                    }
                ],
                "storageVariables": [
                    {
                        "name": "_balances",
                        "type": "mapping(address => uint256)",
                        "value": {
                            "pairs": [
                                {
                                    "key": "0x501077b68821afaed30018e91622fc2bd78db44d",
                                    "value": {
                                        "current": "0",
                                        "prev": "154104638330000000000000000",
                                        "typeTag": 1
                                    }
                                },
                                {
                                    "key": "0xb4a81261b16b92af0b9f7c4a83f1e885132d81e4",
                                    "value": {
                                        "current": "43976455442033712029560066580811",
                                        "prev": "43976301337395382029560066580811",
                                        "typeTag": 1
                                    }
                                }
                            ],
                            "typeTag": 4
                        }
                    },
                    {
                        "name": "_allowances",
                        "type": "mapping(address => mapping(address => uint256))",
                        "value": {
                            "pairs": [
                                {
                                    "key": "0x501077b68821afaed30018e91622fc2bd78db44d",
                                    "value": {
                                        "pairs": [
                                            {
                                                "key": "0xb4a81261b16b92af0b9f7c4a83f1e885132d81e4",
                                                "value": {
                                                    "current": "115792089237316195423570985008687907853269984665640409934819254007913129639935",
                                                    "prev": "115792089237316195423570985008687907853269984665640564039457584007913129639935",
                                                    "typeTag": 1
                                                }
                                            }
                                        ],
                                        "typeTag": 4
                                    }
                                }
                            ],
                            "typeTag": 4
                        }
                    }
                ]
            },
            {
                "address": "0xb4a81261b16b92af0b9f7c4a83f1e885132d81e4",
                "erc": "ERC-20",
                "slots": [
                    {
                        "current": "0x000000000000000000000000000000000000022b0f4cbf4453d1ae144ae62a8a",
                        "key": "0x0000000000000000000000000000000000000000000000000000000000000002",
                        "prev": "0x000000000000000000000000000000000000022b0ecd466846ecb9b92079048e"
                    },
                    {
                        "current": "0x0000000000000000000000000000000000000000007f78dc0ce4f45b2a6d25fc",
                        "key": "0xb95997dfe6a580a859b10a15429027b6aa7a6743e3e83067a75d5b31185ad936",
                        "prev": "0x0000000000000000000000000000000000000000000000000000000000000000"
                    }
                ],
                "storageVariables": [
                    {
                        "name": "_totalSupply",
                        "type": "uint256",
                        "value": {
                            "current": "43976365252158734877356986870410",
                            "prev": "43976211147836453042782736024718",
                            "typeTag": 1
                        }
                    },
                    {
                        "name": "_balances",
                        "type": "mapping(address => uint256)",
                        "value": {
                            "pairs": [
                                {
                                    "key": "0x501077b68821afaed30018e91622fc2bd78db44d",
                                    "value": {
                                        "current": "154104322281834574250845692",
                                        "prev": "0",
                                        "typeTag": 1
                                    }
                                }
                            ],
                            "typeTag": 4
                        }
                    }
                ]
            }
        ]
    }
}