{
    "balance_change": {
        "balanceChanges": [
            {
                "account": "0x4dc0e2040bca9faccf5333e2cc765301f11f2a7b",
                "assets": [
                    {
                        "address": "0xae7ab96520de3a18e5e111b5eaab095312d7fe84",
                        "amount": "19.151327424600610597",
                        "iconUrl": "https://assets.blocksec.com/icon/3968fd5c98727016afc635f2849cea0c6ddf42095e660b8a3497ee09185b175e.png",
                        "isERC1155": false,
                        "isERC721": false,
                        "sign": false,
                        "value": "28299.5335"
                    },
                    {
                        "address": "0xeeeeeeeeeeeeeeeeeeeeeeeeeeeeeeeeeeeeeeee",
                        "amount": "18.42647602725699424",
                        "iconUrl": "https://assets.blocksec.com/image/1663669189317-3.png",
                        "isERC1155": false,
                        "isERC721": false,
                        "sign": true,
                        "value": "33298.225886545351017"
                    }
                ]
            },
            {
                "account": "0xdc24316b9ae028f1497c275eb9192a3ea0f67022",
                "assets": [
                    {
                        "address": "0xae7ab96520de3a18e5e111b5eaab095312d7fe84",
                        "amount": "19.151327424600610597",
                        "iconUrl": "https://assets.blocksec.com/icon/3968fd5c98727016afc635f2849cea0c6ddf42095e660b8a3497ee09185b175e.png",
                        "isERC1155": false,
                        "isERC721": false,
                        "sign": true,
                        "value": "28299.5335"
                    },
                    {
                        "address": "0xeeeeeeeeeeeeeeeeeeeeeeeeeeeeeeeeeeeeeeee",
                        "amount": "18.42647602725699424",
                        "iconUrl": "https://assets.blocksec.com/image/1663669189317-3.png",
                        "isERC1155": false,
                        "isERC721": false,
                        "sign": false,
                        "value": "33298.225886545351017"
                    }
                ]
            }
        ]
    },
    "profile": {
        "basic_info": {
            "baseFee": "19.849763177",
            "blockNumber": 14945769,
            "callData": "0x3df021240000000000000000000000000000000000000000000000000000000000000001000000000000000000000000000000000000000000000000000000000000000000000000000000000000000000000000000000000000000109c72ed318841725000000000000000000000000000000000000000000000000ff76878a102b7080",
            "debugEnable": true,
            "errorInfo": "",
            "eventCount": 4,
            "feeRecipient": "0x1ad91ee08f21be3de0ba2ba6918e714da6b45836",
            "formatValue": "0",
            "gasLimit": 221494,
            "gasPrice": "21.359763177",
            "gasUsed": 136115,
            "intTxnCount": 10,
            "internalRevert": false,
            "internalRevertMessage": "",
            "isContractCreation": false,
            "isFlashloan": false,
            "maxFee": "28.068900548",
            "nonce": 605,
            "overwritedBlockNumber": -1,
            "priorityFee": "1.51",
            "receiver": "0xdc24316b9ae028f1497c275eb9192a3ea0f67022",
            "revertMessage": "",
            "sender": "0x4dc0e2040bca9faccf5333e2cc765301f11f2a7b",
            "simulationEnable": true,
            "sourceTxnHash": "0xe6420d0a778b549bc627a7d101a333e426831ce736da5a15459fce13ed7c57fa",
            "status": true,
            "timestamp": "2022-06-11T18:34:25Z",
            "transactionFee": "0.002907384164837355",
            "txnHash": "0xe6420d0a778b549bc627a7d101a333e426831ce736da5a15459fce13ed7c57fa",
            "txnIndex": 36,
            "type": 2,
            "value": "0"
        },
        "fund_flow": [
            {
                "amount": "19.151327424600610597",
                "from": "0x4dc0e2040bca9faccf5333e2cc765301f11f2a7b",
                "id": 1,
                "isERC1155": false,
                "isERC721": false,
                "isReverted": false,
                "order": 1,
                "to": "0xdc24316b9ae028f1497c275eb9192a3ea0f67022",
                "token": "0xae7ab96520de3a18e5e111b5eaab095312d7fe84"
            },
            {
                "amount": "18.42647602725699424",
                "from": "0xdc24316b9ae028f1497c275eb9192a3ea0f67022",
                "id": 2,
                "isERC1155": false,
                "isERC721": false,
                "isReverted": false,
                "order": 2,
                "to": "0x4dc0e2040bca9faccf5333e2cc765301f11f2a7b",
                "token": "0xeeeeeeeeeeeeeeeeeeeeeeeeeeeeeeeeeeeeeeee"
            }
        ],
        "token_infos": [
            {
                "address": "0xae7ab96520de3a18e5e111b5eaab095312d7fe84",
                "decimals": 18
            },
            {
                "address": "0xc02aaa39b223fe8d0a0e5c4f27ead9083c756cc2",
                "decimals": 18
            },
            {
                "address": "0xeeeeeeeeeeeeeeeeeeeeeeeeeeeeeeeeeeeeeeee",
                "decimals": 18
            }
        ]
    },
    "address_label": {
        "labels": [
            {
                "address": "0xdc24316b9ae028f1497c275eb9192a3ea0f67022",
                "label": "Lido: Curve Liquidity Farming Pool Contract"
            },
            {
                "address": "0xae7ab96520de3a18e5e111b5eaab095312d7fe84",
                "label": "Lido: stETH Token"
            },
            {
                "address": "0x0000000000000000000000000000000000000003",
                "label": "Precompiled"
            },
            {
                "address": "0x47ebab13b806773ec2a2d16873e2df770d130b50",
                "label": "Liquid staked Ether 2.0 (stETH)"
            },
            {
                "address": "0x0000000000000000000000000000000000000001",
                "label": "Precompiled"
            },
            {
                "address": "0x0000000000000000000000000000000000000002",
                "label": "Precompiled"
            },
            {
                "address": "0xeeeeeeeeeeeeeeeeeeeeeeeeeeeeeeeeeeeeeeee",
                "label": "Ether"
            },
            {
                "address": "0x2b33cf282f867a7ff693a66e11b0fcc5552e4425",
                "label": "Lido: DAO Impl 1.0.0"
            },
            {
                "address": "0xb8ffc3cd6e7cf5a098a1c92f48009765b24088dc",
                "label": "Lido: DAO"
            },
            {
                "address": "0x0000000000000000000000000000000000000004",
                "label": "Precompiled"
            }
        ]
    },
    "trace": {
        "accountLabels": null,
        "dataMap": {
            "-1": {
                "invocation": {
                    "address": "0x4dc0e2040bca9faccf5333e2cc765301f11f2a7b",
                    "callData": "",
                    "decodedMethod": null,
                    "errorInfo": "",
                    "fromAddress": "",
                    "gasUsed": 0,
                    "id": -1,
                    "methodDecoded": false,
                    "operation": "",
                    "output": "",
                    "revert": false,
                    "revertMessage": "",
                    "selector": "",
                    "status": false,
                    "value": ""
                },
                "nodeType": 0
            },
            "0": {
                "invocation": {
                    "address": "0xdc24316b9ae028f1497c275eb9192a3ea0f67022",
                    "callData": "0x0000000000000000000000000000000000000000000000000000000000000001000000000000000000000000000000000000000000000000000000000000000000000000000000000000000000000000000000000000000109c72ed318841725000000000000000000000000000000000000000000000000ff76878a102b7080",
                    "decodedMethod": {
                        "callParams": [
                            {
                                "name": "i",
                                "type": "int128",
                                "value": "1"
                            },
                            {
                                "name": "j",
                                "type": "int128",
                                "value": "0"
                            },
                            {
                                "name": "_dx",
                                "type": "uint256",
                                "value": "19,151,327,424,600,610,597"
                            },
                            {
                                "name": "_min_dy",
                                "type": "uint256",
                                "value": "18,408,049,553,970,000,000"
                            }
                        ],
                        "constructorArguments": "",
                        "name": "exchange",
                        "returnParams": [
                            {
                                "name": "",
                                "type": "uint256",
                                "value": "18,426,476,027,256,994,241"
                            }
                        ],
                        "signature": "exchange(int128,int128,uint256,uint256)"
                    },
                    "errorInfo": "",
                    "fromAddress": "0x4dc0e2040bca9faccf5333e2cc765301f11f2a7b",
                    "gasUsed": 136115,
                    "id": 0,
                    "methodDecoded": true,
                    "operation": "CALL",
                    "output": "0x000000000000000000000000000000000000000000000000ffb7fe51b2e779c1",
                    "revert": false,
                    "revertMessage": "",
                    "selector": "0x3df02124",
                    "status": true,
                    "value": "0"
                },
                "nodeType": 0
            },
            "1": {
                "invocation": {
                    "address": "0xae7ab96520de3a18e5e111b5eaab095312d7fe84",
                    "callData": "0x000000000000000000000000dc24316b9ae028f1497c275eb9192a3ea0f67022",
                    "decodedMethod": {
                        "callParams": [
                            {
                                "name": "account",
                                "type": "address",
                                "value": "0xdc24316b9ae028f1497c275eb9192a3ea0f67022"
                            }
                        ],
                        "constructorArguments": "",
                        "name": "balanceOf",
                        "returnParams": [
                            {
                                "decimalAvailable": true,
                                "name": "",
                                "type": "uint256",
                                "value": "505,277,771,269,275,768,296,588"
                            }
                        ],
                        "signature": "balanceOf(address)"
                    },
                    "errorInfo": "",
                    "fromAddress": "0xdc24316b9ae028f1497c275eb9192a3ea0f67022",
                    "gasUsed": 34740,
                    "id": 1,
                    "methodDecoded": true,
                    "operation": "STATICCALL",
                    "output": "0x000000000000000000000000000000000000000000006aff29b1950a312b948c",
                    "revert": false,
                    "revertMessage": "",
                    "selector": "0x70a08231",
                    "status": true,
                    "value": "0"
                },
                "nodeType": 0
            },
            "10": {
                "event": {
                    "contract": "0xae7ab96520de3a18e5e111b5eaab095312d7fe84",
                    "decodedLog": {
                        "name": "TransferShares",
                        "params": [
                            {
                                "name": "from",
                                "type": "address",
                                "value": "0x4dc0e2040bca9faccf5333e2cc765301f11f2a7b"
                            },
                            {
                                "name": "to",
                                "type": "address",
                                "value": "0xdc24316b9ae028f1497c275eb9192a3ea0f67022"
                            },
                            {
                                "name": "sharesValue",
                                "type": "uint256",
                                "value": "17,822,158,883,552,748,505"
                            }
                        ],
                        "signature": "TransferShares(address,address,uint256)"
                    },
                    "id": 10,
                    "logData": "0x000000000000000000000000000000000000000000000000f755071428bbe3d9",
                    "logDecoded": true,
                    "operation": "EVENT",
                    "revert": false,
                    "status": true,
                    "topics": [
                        "0x9d9c909296d9c674451c0c24f02cb64981eb3b727f99865939192f880a755dcb",
                        "0x0000000000000000000000004dc0e2040bca9faccf5333e2cc765301f11f2a7b",
                        "0x000000000000000000000000dc24316b9ae028f1497c275eb9192a3ea0f67022"
                    ]
                },
                "nodeType": 1
            },
            "11": {
                "event": {
                    "contract": "0xae7ab96520de3a18e5e111b5eaab095312d7fe84",
                    "decodedLog": {
                        "name": "Approval",
                        "params": [
                            {
                                "name": "owner",
                                "type": "address",
                                "value": "0x4dc0e2040bca9faccf5333e2cc765301f11f2a7b"
                            },
                            {
                                "name": "spender",
                                "type": "address",
                                "value": "0xdc24316b9ae028f1497c275eb9192a3ea0f67022"
                            },
                            {
                                "decimalAvailable": true,
                                "name": "value",
                                "type": "uint256",
                                "value": "115,792,089,237,316,195,423,570,985,008,687,907,853,269,984,665,640,564,039,438,432,680,488,529,029,338"
                            }
                        ],
                        "signature": "Approval(address,address,uint256)"
                    },
                    "id": 11,
                    "logData": "0xfffffffffffffffffffffffffffffffffffffffffffffffef638d12ce77be8da",
                    "logDecoded": true,
                    "operation": "EVENT",
                    "revert": false,
                    "status": true,
                    "topics": [
                        "0x8c5be1e5ebec7d5bd14f71427d1e84f3dd0314c0f7b2291e5b200ac8c7c3b925",
                        "0x0000000000000000000000004dc0e2040bca9faccf5333e2cc765301f11f2a7b",
                        "0x000000000000000000000000dc24316b9ae028f1497c275eb9192a3ea0f67022"
                    ]
                },
                "nodeType": 1
            },
            "12": {
                "invocation": {
                    "address": "0x0000000000000000000000000000000000000004",
                    "callData": "0x00000000000000000000000000000000000000000000000000000000",
                    "decodedMethod": {
                        "callParams": [
                            {
                                "name": "data",
                                "type": "bytes",
                                "value": "0x0000000000000000000000000000000000000000000000000000000000000000"
                            }
                        ],
                        "constructorArguments": "",
                        "name": "dataCopy()",
                        "returnParams": [
                            {
                                "name": "data",
                                "type": "bytes",
                                "value": "0x0000000000000000000000000000000000000000000000000000000000000000"
                            }
                        ],
                        "signature": "dataCopy(bytes)"
                    },
                    "errorInfo": "",
                    "fromAddress": "0xdc24316b9ae028f1497c275eb9192a3ea0f67022",
                    "gasUsed": 18,
                    "id": 12,
                    "methodDecoded": true,
                    "operation": "CALL",
                    "output": "0x0000000000000000000000000000000000000000000000000000000000000000",
                    "revert": false,
                    "revertMessage": "",
                    "selector": "0x00000000",
                    "status": true,
                    "value": "0"
                },
                "nodeType": 0
            },
            "13": {
                "invocation": {
                    "address": "0x4dc0e2040bca9faccf5333e2cc765301f11f2a7b",
                    "callData": "0x",
                    "decodedMethod": null,
                    "errorInfo": "",
                    "fromAddress": "0xdc24316b9ae028f1497c275eb9192a3ea0f67022",
                    "gasUsed": 0,
                    "id": 13,
                    "methodDecoded": false,
                    "operation": "CALL",
                    "output": "",
                    "revert": false,
                    "revertMessage": "",
                    "selector": "fallback",
                    "status": true,
                    "value": "18.426476027256994241"
                },
                "nodeType": 0
            },
            "14": {
                "event": {
                    "contract": "0xdc24316b9ae028f1497c275eb9192a3ea0f67022",
                    "decodedLog": {
                        "name": "TokenExchange",
                        "params": [
                            {
                                "name": "buyer",
                                "type": "address",
                                "value": "0x4dc0e2040bca9faccf5333e2cc765301f11f2a7b"
                            },
                            {
                                "name": "sold_id",
                                "type": "int128",
                                "value": "1"
                            },
                            {
                                "name": "tokens_sold",
                                "type": "uint256",
                                "value": "19,151,327,424,600,610,597"
                            },
                            {
                                "name": "bought_id",
                                "type": "int128",
                                "value": "0"
                            },
                            {
                                "name": "tokens_bought",
                                "type": "uint256",
                                "value": "18,426,476,027,256,994,241"
                            }
                        ],
                        "signature": "TokenExchange(address,int128,uint256,int128,uint256)"
                    },
                    "id": 14,
                    "logData": "0x000000000000000000000000000000000000000000000000000000000000000100000000000000000000000000000000000000000000000109c72ed3188417250000000000000000000000000000000000000000000000000000000000000000000000000000000000000000000000000000000000000000ffb7fe51b2e779c1",
                    "logDecoded": true,
                    "operation": "EVENT",
                    "revert": false,
                    "status": true,
                    "topics": [
                        "0x8b3e96f2b889fa771c53c981b40daf005f63f637f1869f707052d15a3dd97140",
                        "0x0000000000000000000000004dc0e2040bca9faccf5333e2cc765301f11f2a7b"
                    ]
                },
                "nodeType": 1
            },
            "2": {
                "invocation": {
                    "address": "0xb8ffc3cd6e7cf5a098a1c92f48009765b24088dc",
                    "callData": "0xf1f3eb40f5bc1ad1344716ced8b8a0431d840b5783aea1fd01786bc26f35ac0f3ca7c3e38968823ccb4c78ea688df41356f182ae1d159e4ee608d30d68cef320",
                    "decodedMethod": {
                        "callParams": [
                            {
                                "name": "_namespace",
                                "type": "bytes32",
                                "value": "0xf1f3eb40f5bc1ad1344716ced8b8a0431d840b5783aea1fd01786bc26f35ac0f"
                            },
                            {
                                "name": "_appId",
                                "type": "bytes32",
                                "value": "0x3ca7c3e38968823ccb4c78ea688df41356f182ae1d159e4ee608d30d68cef320"
                            }
                        ],
                        "constructorArguments": "",
                        "name": "getApp",
                        "returnParams": [
                            {
                                "name": "",
                                "type": "address",
                                "value": "0x47ebab13b806773ec2a2d16873e2df770d130b50"
                            }
                        ],
                        "signature": "getApp(bytes32,bytes32)"
                    },
                    "errorInfo": "",
                    "fromAddress": "0xae7ab96520de3a18e5e111b5eaab095312d7fe84",
                    "gasUsed": 8263,
                    "id": 2,
                    "methodDecoded": true,
                    "operation": "CALL",
                    "output": "0x00000000000000000000000047ebab13b806773ec2a2d16873e2df770d130b50",
                    "revert": false,
                    "revertMessage": "",
                    "selector": "0xbe00bbd8",
                    "status": true,
                    "value": "0"
                },
                "nodeType": 0
            },
            "3": {
                "invocation": {
                    "address": "0x2b33cf282f867a7ff693a66e11b0fcc5552e4425",
                    "callData": "0xf1f3eb40f5bc1ad1344716ced8b8a0431d840b5783aea1fd01786bc26f35ac0f3ca7c3e38968823ccb4c78ea688df41356f182ae1d159e4ee608d30d68cef320",
                    "decodedMethod": {
                        "callParams": [
                            {
                                "name": "_namespace",
                                "type": "bytes32",
                                "value": "0xf1f3eb40f5bc1ad1344716ced8b8a0431d840b5783aea1fd01786bc26f35ac0f"
                            },
                            {
                                "name": "_appId",
                                "type": "bytes32",
                                "value": "0x3ca7c3e38968823ccb4c78ea688df41356f182ae1d159e4ee608d30d68cef320"
                            }
                        ],
                        "constructorArguments": "",
                        "name": "getApp",
                        "returnParams": [
                            {
                                "name": "",
                                "type": "address",
                                "value": "0x47ebab13b806773ec2a2d16873e2df770d130b50"
                            }
                        ],
                        "signature": "getApp(bytes32,bytes32)"
                    },
                    "errorInfo": "",
                    "fromAddress": "0xb8ffc3cd6e7cf5a098a1c92f48009765b24088dc",
                    "gasUsed": 2820,
                    "id": 3,
                    "methodDecoded": true,
                    "operation": "DELEGATECALL",
                    "output": "0x00000000000000000000000047ebab13b806773ec2a2d16873e2df770d130b50",
                    "revert": false,
                    "revertMessage": "",
                    "selector": "0xbe00bbd8",
                    "status": true,
                    "value": "0"
                },
                "nodeType": 0
            },
            "4": {
                "invocation": {
                    "address": "0x47ebab13b806773ec2a2d16873e2df770d130b50",
                    "callData": "0x000000000000000000000000dc24316b9ae028f1497c275eb9192a3ea0f67022",
                    "decodedMethod": {
                        "callParams": [
                            {
                                "name": "_account",
                                "type": "address",
                                "value": "0xdc24316b9ae028f1497c275eb9192a3ea0f67022"
                            }
                        ],
                        "constructorArguments": "",
                        "name": "balanceOf",
                        "returnParams": [
                            {
                                "decimalAvailable": true,
                                "name": "",
                                "type": "uint256",
                                "value": "505,277,771,269,275,768,296,588"
                            }
                        ],
                        "signature": "balanceOf(address)"
                    },
                    "errorInfo": "",
                    "fromAddress": "0xae7ab96520de3a18e5e111b5eaab095312d7fe84",
                    "gasUsed": 15860,
                    "id": 4,
                    "methodDecoded": true,
                    "operation": "DELEGATECALL",
                    "output": "0x000000000000000000000000000000000000000000006aff29b1950a312b948c",
                    "revert": false,
                    "revertMessage": "",
                    "selector": "0x70a08231",
                    "status": true,
                    "value": "0"
                },
                "nodeType": 0
            },
            "5": {
                "invocation": {
                    "address": "0xae7ab96520de3a18e5e111b5eaab095312d7fe84",
                    "callData": "0x0000000000000000000000004dc0e2040bca9faccf5333e2cc765301f11f2a7b000000000000000000000000dc24316b9ae028f1497c275eb9192a3ea0f6702200000000000000000000000000000000000000000000000109c72ed318841725",
                    "decodedMethod": {
                        "callParams": [
                            {
                                "name": "sender",
                                "type": "address",
                                "value": "0x4dc0e2040bca9faccf5333e2cc765301f11f2a7b"
                            },
                            {
                                "name": "recipient",
                                "type": "address",
                                "value": "0xdc24316b9ae028f1497c275eb9192a3ea0f67022"
                            },
                            {
                                "decimalAvailable": true,
                                "name": "amount",
                                "type": "uint256",
                                "value": "19,151,327,424,600,610,597"
                            }
                        ],
                        "constructorArguments": "",
                        "name": "transferFrom",
                        "returnParams": [
                            {
                                "name": "",
                                "type": "bool",
                                "value": true
                            }
                        ],
                        "signature": "transferFrom(address,address,uint256)"
                    },
                    "errorInfo": "",
                    "fromAddress": "0xdc24316b9ae028f1497c275eb9192a3ea0f67022",
                    "gasUsed": 29722,
                    "id": 5,
                    "methodDecoded": true,
                    "operation": "CALL",
                    "output": "0x0000000000000000000000000000000000000000000000000000000000000001",
                    "revert": false,
                    "revertMessage": "",
                    "selector": "0x23b872dd",
                    "status": true,
                    "value": "0"
                },
                "nodeType": 0
            },
            "6": {
                "invocation": {
                    "address": "0xb8ffc3cd6e7cf5a098a1c92f48009765b24088dc",
                    "callData": "0xf1f3eb40f5bc1ad1344716ced8b8a0431d840b5783aea1fd01786bc26f35ac0f3ca7c3e38968823ccb4c78ea688df41356f182ae1d159e4ee608d30d68cef320",
                    "decodedMethod": {
                        "callParams": [
                            {
                                "name": "_namespace",
                                "type": "bytes32",
                                "value": "0xf1f3eb40f5bc1ad1344716ced8b8a0431d840b5783aea1fd01786bc26f35ac0f"
                            },
                            {
                                "name": "_appId",
                                "type": "bytes32",
                                "value": "0x3ca7c3e38968823ccb4c78ea688df41356f182ae1d159e4ee608d30d68cef320"
                            }
                        ],
                        "constructorArguments": "",
                        "name": "getApp",
                        "returnParams": [
                            {
                                "name": "",
                                "type": "address",
                                "value": "0x47ebab13b806773ec2a2d16873e2df770d130b50"
                            }
                        ],
                        "signature": "getApp(bytes32,bytes32)"
                    },
                    "errorInfo": "",
                    "fromAddress": "0xae7ab96520de3a18e5e111b5eaab095312d7fe84",
                    "gasUsed": 1763,
                    "id": 6,
                    "methodDecoded": true,
                    "operation": "CALL",
                    "output": "0x00000000000000000000000047ebab13b806773ec2a2d16873e2df770d130b50",
                    "revert": false,
                    "revertMessage": "",
                    "selector": "0xbe00bbd8",
                    "status": true,
                    "value": "0"
                },
                "nodeType": 0
            },
            "7": {
                "invocation": {
                    "address": "0x2b33cf282f867a7ff693a66e11b0fcc5552e4425",
                    "callData": "0xf1f3eb40f5bc1ad1344716ced8b8a0431d840b5783aea1fd01786bc26f35ac0f3ca7c3e38968823ccb4c78ea688df41356f182ae1d159e4ee608d30d68cef320",
                    "decodedMethod": {
                        "callParams": [
                            {
                                "name": "_namespace",
                                "type": "bytes32",
                                "value": "0xf1f3eb40f5bc1ad1344716ced8b8a0431d840b5783aea1fd01786bc26f35ac0f"
                            },
                            {
                                "name": "_appId",
                                "type": "bytes32",
                                "value": "0x3ca7c3e38968823ccb4c78ea688df41356f182ae1d159e4ee608d30d68cef320"
                            }
                        ],
                        "constructorArguments": "",
                        "name": "getApp",
                        "returnParams": [
                            {
                                "name": "",
                                "type": "address",
                                "value": "0x47ebab13b806773ec2a2d16873e2df770d130b50"
                            }
                        ],
                        "signature": "getApp(bytes32,bytes32)"
                    },
                    "errorInfo": "",
                    "fromAddress": "0xb8ffc3cd6e7cf5a098a1c92f48009765b24088dc",
                    "gasUsed": 820,
                    "id": 7,
                    "methodDecoded": true,
                    "operation": "DELEGATECALL",
                    "output": "0x00000000000000000000000047ebab13b806773ec2a2d16873e2df770d130b50",
                    "revert": false,
                    "revertMessage": "",
                    "selector": "0xbe00bbd8",
                    "status": true,
                    "value": "0"
                },
                "nodeType": 0
            },
            "8": {
                "invocation": {
                    "address": "0x47ebab13b806773ec2a2d16873e2df770d130b50",
                    "callData": "0x0000000000000000000000004dc0e2040bca9faccf5333e2cc765301f11f2a7b000000000000000000000000dc24316b9ae028f1497c275eb9192a3ea0f6702200000000000000000000000000000000000000000000000109c72ed318841725",
                    "decodedMethod": {
                        "callParams": [
                            {
                                "name": "_sender",
                                "type": "address",
                                "value": "0x4dc0e2040bca9faccf5333e2cc765301f11f2a7b"
                            },
                            {
                                "name": "_recipient",
                                "type": "address",
                                "value": "0xdc24316b9ae028f1497c275eb9192a3ea0f67022"
                            },
                            {
                                "decimalAvailable": true,
                                "name": "_amount",
                                "type": "uint256",
                                "value": "19,151,327,424,600,610,597"
                            }
                        ],
                        "constructorArguments": "",
                        "name": "transferFrom",
                        "returnParams": [
                            {
                                "name": "",
                                "type": "bool",
                                "value": true
                            }
                        ],
                        "signature": "transferFrom(address,address,uint256)"
                    },
                    "errorInfo": "",
                    "fromAddress": "0xae7ab96520de3a18e5e111b5eaab095312d7fe84",
                    "gasUsed": 26330,
                    "id": 8,
                    "methodDecoded": true,
                    "operation": "DELEGATECALL",
                    "output": "0x0000000000000000000000000000000000000000000000000000000000000001",
                    "revert": false,
                    "revertMessage": "",
                    "selector": "0x23b872dd",
                    "status": true,
                    "value": "0"
                },
                "nodeType": 0
            },
            "9": {
                "event": {
                    "contract": "0xae7ab96520de3a18e5e111b5eaab095312d7fe84",
                    "decodedLog": {
                        "name": "Transfer",
                        "params": [
                            {
                                "name": "from",
                                "type": "address",
                                "value": "0x4dc0e2040bca9faccf5333e2cc765301f11f2a7b"
                            },
                            {
                                "name": "to",
                                "type": "address",
                                "value": "0xdc24316b9ae028f1497c275eb9192a3ea0f67022"
                            },
                            {
                                "decimalAvailable": true,
                                "name": "value",
                                "type": "uint256",
                                "value": "19,151,327,424,600,610,597"
                            }
                        ],
                        "signature": "Transfer(address,address,uint256)"
                    },
                    "id": 9,
                    "logData": "0x00000000000000000000000000000000000000000000000109c72ed318841725",
                    "logDecoded": true,
                    "operation": "EVENT",
                    "revert": false,
                    "status": true,
                    "topics": [
                        "0xddf252ad1be2c89b69c2b068fc378daa952ba7f163c4a11628f55a4df523b3ef",
                        "0x0000000000000000000000004dc0e2040bca9faccf5333e2cc765301f11f2a7b",
                        "0x000000000000000000000000dc24316b9ae028f1497c275eb9192a3ea0f67022"
                    ]
                },
                "nodeType": 1
            }
        },
        "gasFlame": [
            {
                "children": [
                    {
                        "children": [
                            {
                                "children": [],
                                "depth": 0,
                                "name": "Initial Gas",
                                "value": 21792
                            },
                            {
                                "children": [
                                    {
                                        "children": [
                                            {
                                                "children": [
                                                    {
                                                        "children": [],
                                                        "depth": 3,
                                                        "name": "getApp",
                                                        "value": 2820
                                                    }
                                                ],
                                                "depth": 2,
                                                "name": "getApp",
                                                "value": 8263
                                            },
                                            {
                                                "children": [],
                                                "depth": 2,
                                                "name": "balanceOf",
                                                "value": 15860
                                            }
                                        ],
                                        "depth": 1,
                                        "name": "balanceOf",
                                        "value": 34740
                                    },
                                    {
                                        "children": [
                                            {
                                                "children": [
                                                    {
                                                        "children": [],
                                                        "depth": 3,
                                                        "name": "getApp",
                                                        "value": 820
                                                    }
                                                ],
                                                "depth": 2,
                                                "name": "getApp",
                                                "value": 1763
                                            },
                                            {
                                                "children": [],
                                                "depth": 2,
                                                "name": "transferFrom",
                                                "value": 26330
                                            }
                                        ],
                                        "depth": 1,
                                        "name": "transferFrom",
                                        "value": 29722
                                    },
                                    {
                                        "children": [],
                                        "depth": 1,
                                        "name": "dataCopy()",
                                        "value": 18
                                    },
                                    {
                                        "children": [],
                                        "depth": 1,
                                        "name": "fallback",
                                        "value": 0
                                    }
                                ],
                                "depth": 0,
                                "name": "Executed Gas",
                                "value": 134223
                            }
                        ],
                        "depth": -1,
                        "name": "Actual Gas Used",
                        "value": 136115
                    },
                    {
                        "children": [],
                        "depth": -1,
                        "name": "Refunded Gas",
                        "value": 19900
                    }
                ],
                "depth": -2,
                "name": "Total Gas",
                "value": 156015
            }
        ],
        "isConfirmed": true,
        "mainTrace": [
            {
                "children": [
                    {
                        "children": [
                            {
                                "children": [
                                    {
                                        "children": [
                                            {
                                                "children": [],
                                                "depth": 3,
                                                "id": 3,
                                                "order": 3
                                            }
                                        ],
                                        "depth": 2,
                                        "id": 2,
                                        "order": 2
                                    },
                                    {
                                        "children": [],
                                        "depth": 2,
                                        "id": 4,
                                        "order": 4
                                    }
                                ],
                                "depth": 1,
                                "id": 1,
                                "order": 1
                            },
                            {
                                "children": [
                                    {
                                        "children": [
                                            {
                                                "children": [],
                                                "depth": 3,
                                                "id": 7,
                                                "order": 7
                                            }
                                        ],
                                        "depth": 2,
                                        "id": 6,
                                        "order": 6
                                    },
                                    {
                                        "children": [
                                            {
                                                "children": [],
                                                "depth": 3,
                                                "id": 9,
                                                "order": 9
                                            },
                                            {
                                                "children": [],
                                                "depth": 3,
                                                "id": 10,
                                                "order": 10
                                            },
                                            {
                                                "children": [],
                                                "depth": 3,
                                                "id": 11,
                                                "order": 11
                                            }
                                        ],
                                        "depth": 2,
                                        "id": 8,
                                        "order": 8
                                    }
                                ],
                                "depth": 1,
                                "id": 5,
                                "order": 5
                            },
                            {
                                "children": [],
                                "depth": 1,
                                "id": 12,
                                "order": 12
                            },
                            {
                                "children": [],
                                "depth": 1,
                                "id": 13,
                                "order": 13
                            },
                            {
                                "children": [],
                                "depth": 1,
                                "id": 14,
                                "order": 14
                            }
                        ],
                        "depth": 0,
                        "id": 0,
                        "order": 0
                    }
                ],
                "depth": -1,
                "id": -1,
                "order": -1
            }
        ],
        "mainTraceNodeCount": 15,
        "parentIdMap": {
            "0": -1,
            "1": 0,
            "10": 8,
            "11": 8,
            "12": 0,
            "13": 0,
            "14": 0,
            "2": 1,
            "3": 2,
            "4": 1,
            "5": 0,
            "6": 5,
            "7": 6,
            "8": 5,
            "9": 8
        },
        "tidyTrace": [
            {
                "children": [
                    {
                        "children": [
                            {
                                "children": [
                                    {
                                        "children": [
                                            {
                                                "children": [],
                                                "depth": 3,
                                                "id": 7,
                                                "order": 7
                                            }
                                        ],
                                        "depth": 2,
                                        "id": 6,
                                        "order": 6
                                    },
                                    {
                                        "children": [
                                            {
                                                "children": [],
                                                "depth": 3,
                                                "id": 9,
                                                "order": 9
                                            },
                                            {
                                                "children": [],
                                                "depth": 3,
                                                "id": 10,
                                                "order": 10
                                            },
                                            {
                                                "children": [],
                                                "depth": 3,
                                                "id": 11,
                                                "order": 11
                                            }
                                        ],
                                        "depth": 2,
                                        "id": 8,
                                        "order": 8
                                    }
                                ],
                                "depth": 1,
                                "id": 5,
                                "order": 5
                            },
                            {
                                "children": [],
                                "depth": 1,
                                "id": 12,
                                "order": 12
                            },
                            {
                                "children": [],
                                "depth": 1,
                                "id": 13,
                                "order": 13
                            },
                            {
                                "children": [],
                                "depth": 1,
                                "id": 14,
                                "order": 14
                            }
                        ],
                        "depth": 0,
                        "id": 0,
                        "order": 0
                    }
                ],
                "depth": -1,
                "id": -1,
                "order": -1
            }
        ],
        "tidyTraceNodeCount": 11
    },
    "state_change": {
        "stateChanges": [
            {
                "address": "0xae7ab96520de3a18e5e111b5eaab095312d7fe84",
                "erc": "",
                "slots": [
                    {
                        "current": "0x0000000000000000000000000000000000000000000000000000000000000001",
                        "key": "0x10903d3d96c10c5506f5186919b3b4bf7b9a97a3c3ccbcd302bc6c1bcbba669e",
                        "prev": "0x000000000000000000000000000000000000000000000000f755071428bbe3da"
                    },
                    {
                        "current": "0x0000000000000000000000000000000000000000000063931659f71e810a54e9",
                        "key": "0xae68078d7ee25b2b7bcb7d4b9fe9acf61f251fe08ff637df07889375d8385158",
                        "prev": "0x0000000000000000000000000000000000000000000063921f04f00a584e7110"
                    },
                    {
                        "current": "0xfffffffffffffffffffffffffffffffffffffffffffffffef638d12ce77be8da",
                        "key": "0xfda3dd019cf90927cd8c18bf8447b40e16449606cf1e3c7e27c0520b727252f7",
                        "prev": "0xffffffffffffffffffffffffffffffffffffffffffffffffffffffffffffffff"
                    }
                ],
                "storageVariables": []
            },
            {
                "address": "0xdc24316b9ae028f1497c275eb9192a3ea0f67022",
                "erc": "",
                "slots": [
                    {
                        "current": "0x0000000000000000000000000000000000000000000000026266f4a22755a476",
                        "key": "0xb10e2d527612073b26eecdfd717e6a320cf44b4afac2b0732d9fcbe2b7fa0cf6",
                        "prev": "0x0000000000000000000000000000000000000000000000026259db892446d839"
                    }
                ],
                "storageVariables": []
            }
        ]
    }
}