{
    "balance_change": {
        "balanceChanges": [
            {
                "account": "0x960b5ee0ef9682b3682819cb6f168fbae050ab84",
                "assets": [
                    {
                        "address": "0x3de23fcbaf61c92f01c9b1782f6bf12f3649fcfd",
                        "amount": "1,689,943,696.578999898",
                        "iconUrl": "",
                        "isERC1155": false,
                        "isERC721": false,
                        "sign": false,
                        "value": "141.3911267"
                    },
                    {
                        "address": "0xeeeeeeeeeeeeeeeeeeeeeeeeeeeeeeeeeeeeeeee",
                        "amount": "0.060984158522605177",
                        "iconUrl": "https://assets.blocksec.com/image/1663669189317-3.png",
                        "isERC1155": false,
                        "isERC721": false,
                        "sign": true,
                        "value": "140.1434258037156122"
                    }
                ]
            },
            {
                "account": "0x27b9c20f64920eb7fbf64491423a54df9594188c",
                "assets": [
                    {
                        "address": "0xeeeeeeeeeeeeeeeeeeeeeeeeeeeeeeeeeeeeeeee",
                        "amount": "0.000429898398447367",
                        "iconUrl": "https://assets.blocksec.com/image/1663669189317-3.png",
                        "isERC1155": false,
                        "isERC721": false,
                        "sign": true,
                        "value": "0.987919416475152086"
                    }
                ]
            },
            {
                "account": "0x80ad808516f9e3b795d8c51f08fc85ecb25d5b91",
                "assets": [
                    {
                        "address": "0xc02aaa39b223fe8d0a0e5c4f27ead9083c756cc2",
                        "amount": "0.061414056921052544",
                        "iconUrl": "https://assets.blocksec.com/icon/f1cb2d02c471d545bbc7722daf3277fd852d98e63d118771af7047bd8256c516.png",
                        "isERC1155": false,
                        "isERC721": false,
                        "sign": false,
                        "value": "141.13134522386761228"
                    },
                    {
                        "address": "0x3de23fcbaf61c92f01c9b1782f6bf12f3649fcfd",
                        "amount": "1,689,943,696.578999898",
                        "iconUrl": "",
                        "isERC1155": false,
                        "isERC721": false,
                        "sign": true,
                        "value": "141.3911267"
                    }
                ]
            },
            {
                "account": "0xc02aaa39b223fe8d0a0e5c4f27ead9083c756cc2",
                "assets": [
                    {
                        "address": "0xeeeeeeeeeeeeeeeeeeeeeeeeeeeeeeeeeeeeeeee",
                        "amount": "0.061414056921052544",
                        "iconUrl": "https://assets.blocksec.com/image/1663669189317-3.png",
                        "isERC1155": false,
                        "isERC721": false,
                        "sign": false,
                        "value": "141.13134522386761228"
                    },
                    {
                        "address": "0xc02aaa39b223fe8d0a0e5c4f27ead9083c756cc2",
                        "amount": "0.061414056921052544",
                        "iconUrl": "https://assets.blocksec.com/icon/f1cb2d02c471d545bbc7722daf3277fd852d98e63d118771af7047bd8256c516.png",
                        "isERC1155": false,
                        "isERC721": false,
                        "sign": true,
                        "value": "141.13134522386761228"
                    }
                ]
            }
        ]
    },
    "profile": {
        "basic_info": {
            "baseFee": "11.04104802",
            "blockNumber": 20778175,
            "callData": "0x68cdab9c0000000000000000000000000000000000000000000000000000000066eae87b000000000000000000000000000000000000000000000000000000000000006000000000000000000000000000000000000000000000000000000000000002a000000000000000000000000000000000000000000000000000000000000000020000000000000000000000000000000000000000000000000000000000000040000000000000000000000000000000000000000000000000000000000000016000000000000000000000000000000000000000000000000000000000000000e4472b43f30000000000000000000000000000000000000000000000001773e2d69d00765a0000000000000000000000000000000000000000000000000075df9698d607e800000000000000000000000000000000000000000000000000000000000000800000000000000000000000005c9321e92ba4eb43f2901c4952358e132163a85a00000000000000000000000000000000000000000000000000000000000000020000000000000000000000003de23fcbaf61c92f01c9b1782f6bf12f3649fcfd000000000000000000000000c02aaa39b223fe8d0a0e5c4f27ead9083c756cc20000000000000000000000000000000000000000000000000000000000000000000000000000000000000000000000000000000000000000000000849b2c0a370000000000000000000000000000000000000000000000000000000000000005000000000000000000000000960b5ee0ef9682b3682819cb6f168fbae050ab84000000000000000000000000000000000000000000000000000000000000004600000000000000000000000027b9c20f64920eb7fbf64491423a54df9594188c0000000000000000000000000000000000000000000000000000000000000000000000000000000000000000000000000000000000000000000000026e61000000000000000000000000000000000000000000000000000000000000",
            "debugEnable": true,
            "errorInfo": "",
            "eventCount": 6,
            "feeRecipient": "0x4838b106fce9647bdf1e7877bf73ce8b0bad5f97",
            "formatValue": "0",
            "gasLimit": 276816,
            "gasPrice": "16.613928237",
            "gasUsed": 165988,
            "intTxnCount": 16,
            "internalRevert": false,
            "internalRevertMessage": "",
            "isContractCreation": false,
            "isFlashloan": false,
            "maxFee": "16.613928237",
            "nonce": 1841,
            "overwritedBlockNumber": -1,
            "priorityFee": "8.551694411",
            "receiver": "0x5c9321e92ba4eb43f2901c4952358e132163a85a",
            "revertMessage": "",
            "sender": "0x960b5ee0ef9682b3682819cb6f168fbae050ab84",
            "simulationEnable": true,
            "sourceTxnHash": "0xe6c4fdfb7ffe2921933d5a590c945dd9a37c2212e082b1723684310f053e55fb",
            "status": true,
            "timestamp": "2024-09-18T14:48:35Z",
            "transactionFee": "0.002757712720203156",
            "txnHash": "0xe6c4fdfb7ffe2921933d5a590c945dd9a37c2212e082b1723684310f053e55fb",
            "txnIndex": 15,
            "type": 2,
            "value": "0"
        },
        "fund_flow": [
            {
                "amount": "1,689,943,696.578999898",
                "from": "0x960b5ee0ef9682b3682819cb6f168fbae050ab84",
                "id": 1,
                "isERC1155": false,
                "isERC721": false,
                "isReverted": false,
                "order": 1,
                "to": "0x80ad808516f9e3b795d8c51f08fc85ecb25d5b91",
                "token": "0x3de23fcbaf61c92f01c9b1782f6bf12f3649fcfd"
            },
            {
                "amount": "0.061414056921052544",
                "from": "0x80ad808516f9e3b795d8c51f08fc85ecb25d5b91",
                "id": 2,
                "isERC1155": false,
                "isERC721": false,
                "isReverted": false,
                "order": 2,
                "to": "0x5c9321e92ba4eb43f2901c4952358e132163a85a",
                "token": "0xc02aaa39b223fe8d0a0e5c4f27ead9083c756cc2"
            },
            {
                "amount": "0.061414056921052544",
                "from": "0xc02aaa39b223fe8d0a0e5c4f27ead9083c756cc2",
                "id": 3,
                "isERC1155": false,
                "isERC721": false,
                "isReverted": false,
                "order": 3,
                "to": "0x5c9321e92ba4eb43f2901c4952358e132163a85a",
                "token": "0xeeeeeeeeeeeeeeeeeeeeeeeeeeeeeeeeeeeeeeee"
            },
            {
                "amount": "0.061414056921052544",
                "from": "0x5c9321e92ba4eb43f2901c4952358e132163a85a",
                "id": 4,
                "isERC1155": false,
                "isERC721": false,
                "isReverted": false,
                "order": 4,
                "to": "0xc02aaa39b223fe8d0a0e5c4f27ead9083c756cc2",
                "token": "0xc02aaa39b223fe8d0a0e5c4f27ead9083c756cc2"
            },
            {
                "amount": "0.000429898398447367",
                "from": "0x5c9321e92ba4eb43f2901c4952358e132163a85a",
                "id": 5,
                "isERC1155": false,
                "isERC721": false,
                "isReverted": false,
                "order": 5,
                "to": "0x27b9c20f64920eb7fbf64491423a54df9594188c",
                "token": "0xeeeeeeeeeeeeeeeeeeeeeeeeeeeeeeeeeeeeeeee"
            },
            {
                "amount": "0.060984158522605177",
                "from": "0x5c9321e92ba4eb43f2901c4952358e132163a85a",
                "id": 6,
                "isERC1155": false,
                "isERC721": false,
                "isReverted": false,
                "order": 6,
                "to": "0x960b5ee0ef9682b3682819cb6f168fbae050ab84",
                "token": "0xeeeeeeeeeeeeeeeeeeeeeeeeeeeeeeeeeeeeeeee"
            }
        ],
        "token_infos": [
            {
                "address": "0xc02aaa39b223fe8d0a0e5c4f27ead9083c756cc2",
                "decimals": 18
            },
            {
                "address": "0xeeeeeeeeeeeeeeeeeeeeeeeeeeeeeeeeeeeeeeee",
                "decimals": 18
            },
            {
                "address": "0x3de23fcbaf61c92f01c9b1782f6bf12f3649fcfd",
                "decimals": 9
            }
        ]
    },
    "address_label": {
        "labels": [
            {
                "address": "0x80ad808516f9e3b795d8c51f08fc85ecb25d5b91",
                "label": "UNI-V2"
            },
            {
                "address": "0x0000000000000000000000000000000000000001",
                "label": "Precompiled"
            },
            {
                "address": "0x0000000000000000000000000000000000000002",
                "label": "Precompiled"
            },
            {
                "address": "0x0000000000000000000000000000000000000003",
                "label": "Precompiled"
            },
            {
                "address": "0x0000000000000000000000000000000000000004",
                "label": "Precompiled"
            },
            {
                "address": "0xeeeeeeeeeeeeeeeeeeeeeeeeeeeeeeeeeeeeeeee",
                "label": "Ether"
            },
            {
                "address": "0xc02aaa39b223fe8d0a0e5c4f27ead9083c756cc2",
                "label": "Wrapped Ether (WETH)"
            },
            {
                "address": "0x3de23fcbaf61c92f01c9b1782f6bf12f3649fcfd",
                "label": "NEI"
            }
        ]
    },
    "trace": {
        "accountLabels": null,
        "dataMap": {
            "-1": {
                "invocation": {
                    "address": "0x960b5ee0ef9682b3682819cb6f168fbae050ab84",
                    "callData": "",
                    "decodedMethod": null,
                    "errorInfo": "",
                    "fromAddress": "",
                    "gasUsed": 0,
                    "id": -1,
                    "methodDecoded": false,
                    "operation": "",
                    "output": "",
                    "revert": false,
                    "revertMessage": "",
                    "selector": "",
                    "status": false,
                    "value": ""
                },
                "nodeType": 0
            },
            "0": {
                "invocation": {
                    "address": "0x5c9321e92ba4eb43f2901c4952358e132163a85a",
                    "callData": "0x0000000000000000000000000000000000000000000000000000000066eae87b000000000000000000000000000000000000000000000000000000000000006000000000000000000000000000000000000000000000000000000000000002a000000000000000000000000000000000000000000000000000000000000000020000000000000000000000000000000000000000000000000000000000000040000000000000000000000000000000000000000000000000000000000000016000000000000000000000000000000000000000000000000000000000000000e4472b43f30000000000000000000000000000000000000000000000001773e2d69d00765a0000000000000000000000000000000000000000000000000075df9698d607e800000000000000000000000000000000000000000000000000000000000000800000000000000000000000005c9321e92ba4eb43f2901c4952358e132163a85a00000000000000000000000000000000000000000000000000000000000000020000000000000000000000003de23fcbaf61c92f01c9b1782f6bf12f3649fcfd000000000000000000000000c02aaa39b223fe8d0a0e5c4f27ead9083c756cc20000000000000000000000000000000000000000000000000000000000000000000000000000000000000000000000000000000000000000000000849b2c0a370000000000000000000000000000000000000000000000000000000000000005000000000000000000000000960b5ee0ef9682b3682819cb6f168fbae050ab84000000000000000000000000000000000000000000000000000000000000004600000000000000000000000027b9c20f64920eb7fbf64491423a54df9594188c0000000000000000000000000000000000000000000000000000000000000000000000000000000000000000000000000000000000000000000000026e61000000000000000000000000000000000000000000000000000000000000",
                    "decodedMethod": null,
                    "errorInfo": "",
                    "fromAddress": "0x960b5ee0ef9682b3682819cb6f168fbae050ab84",
                    "gasUsed": 165988,
                    "id": 0,
                    "methodDecoded": false,
                    "operation": "CALL",
                    "output": "0x0000000000000000000000000000000000000000000000000000000000000020000000000000000000000000000000000000000000000000000000000000000200000000000000000000000000000000000000000000000000000000000000400000000000000000000000000000000000000000000000000000000000000080000000000000000000000000000000000000000000000000000000000000002000000000000000000000000000000000000000000000000000da2fc266feb5800000000000000000000000000000000000000000000000000000000000000000",
                    "revert": false,
                    "revertMessage": "",
                    "selector": "0x68cdab9c",
                    "status": true,
                    "value": "0"
                },
                "nodeType": 0
            },
            "1": {
                "invocation": {
                    "address": "0x5c9321e92ba4eb43f2901c4952358e132163a85a",
                    "callData": "0x0000000000000000000000000000000000000000000000001773e2d69d00765a0000000000000000000000000000000000000000000000000075df9698d607e800000000000000000000000000000000000000000000000000000000000000800000000000000000000000005c9321e92ba4eb43f2901c4952358e132163a85a00000000000000000000000000000000000000000000000000000000000000020000000000000000000000003de23fcbaf61c92f01c9b1782f6bf12f3649fcfd000000000000000000000000c02aaa39b223fe8d0a0e5c4f27ead9083c756cc2",
                    "decodedMethod": {
                        "callParams": [
                            {
                                "name": "amountIn",
                                "type": "uint256",
                                "value": "1,689,943,696,578,999,898"
                            },
                            {
                                "name": "amountOutMin",
                                "type": "uint256",
                                "value": "33,178,410,177,398,760"
                            },
                            {
                                "name": "path",
                                "type": "address[]",
                                "value": [
                                    "0x3de23fcbaf61c92f01c9b1782f6bf12f3649fcfd",
                                    "0xc02aaa39b223fe8d0a0e5c4f27ead9083c756cc2"
                                ]
                            },
                            {
                                "name": "to",
                                "type": "address",
                                "value": "0x5c9321e92ba4eb43f2901c4952358e132163a85a"
                            }
                        ],
                        "constructorArguments": "",
                        "name": "swapExactTokensForTokens",
                        "returnParams": [
                            {
                                "name": "amountOut",
                                "type": "uint256",
                                "value": "61,414,056,921,052,544"
                            }
                        ],
                        "signature": "swapExactTokensForTokens(uint256,uint256,address[],address)"
                    },
                    "errorInfo": "",
                    "fromAddress": "0x5c9321e92ba4eb43f2901c4952358e132163a85a",
                    "gasUsed": 134008,
                    "id": 1,
                    "methodDecoded": true,
                    "operation": "DELEGATECALL",
                    "output": "0x00000000000000000000000000000000000000000000000000da2fc266feb580",
                    "revert": false,
                    "revertMessage": "",
                    "selector": "0x472b43f3",
                    "status": true,
                    "value": "0"
                },
                "nodeType": 0
            },
            "10": {
                "event": {
                    "contract": "0xc02aaa39b223fe8d0a0e5c4f27ead9083c756cc2",
                    "decodedLog": {
                        "name": "Transfer",
                        "params": [
                            {
                                "name": "src",
                                "type": "address",
                                "value": "0x80ad808516f9e3b795d8c51f08fc85ecb25d5b91"
                            },
                            {
                                "name": "dst",
                                "type": "address",
                                "value": "0x5c9321e92ba4eb43f2901c4952358e132163a85a"
                            },
                            {
                                "decimalAvailable": true,
                                "name": "wad",
                                "type": "uint256",
                                "value": "61,414,056,921,052,544"
                            }
                        ],
                        "signature": "Transfer(address,address,uint256)"
                    },
                    "id": 10,
                    "logData": "0x00000000000000000000000000000000000000000000000000da2fc266feb580",
                    "logDecoded": true,
                    "operation": "EVENT",
                    "revert": false,
                    "status": true,
                    "topics": [
                        "0xddf252ad1be2c89b69c2b068fc378daa952ba7f163c4a11628f55a4df523b3ef",
                        "0x00000000000000000000000080ad808516f9e3b795d8c51f08fc85ecb25d5b91",
                        "0x0000000000000000000000005c9321e92ba4eb43f2901c4952358e132163a85a"
                    ]
                },
                "nodeType": 1
            },
            "11": {
                "invocation": {
                    "address": "0x3de23fcbaf61c92f01c9b1782f6bf12f3649fcfd",
                    "callData": "0x00000000000000000000000080ad808516f9e3b795d8c51f08fc85ecb25d5b91",
                    "decodedMethod": {
                        "callParams": [
                            {
                                "name": "account",
                                "type": "address",
                                "value": "0x80ad808516f9e3b795d8c51f08fc85ecb25d5b91"
                            }
                        ],
                        "constructorArguments": "",
                        "name": "balanceOf",
                        "returnParams": [
                            {
                                "decimalAvailable": true,
                                "name": "",
                                "type": "uint256",
                                "value": "29,695,083,219,808,144,992"
                            }
                        ],
                        "signature": "balanceOf(address)"
                    },
                    "errorInfo": "",
                    "fromAddress": "0x80ad808516f9e3b795d8c51f08fc85ecb25d5b91",
                    "gasUsed": 940,
                    "id": 11,
                    "methodDecoded": true,
                    "operation": "STATICCALL",
                    "output": "0x0000000000000000000000000000000000000000000000019c1a20db6c53ce60",
                    "revert": false,
                    "revertMessage": "",
                    "selector": "0x70a08231",
                    "status": true,
                    "value": "0"
                },
                "nodeType": 0
            },
            "12": {
                "invocation": {
                    "address": "0xc02aaa39b223fe8d0a0e5c4f27ead9083c756cc2",
                    "callData": "0x00000000000000000000000080ad808516f9e3b795d8c51f08fc85ecb25d5b91",
                    "decodedMethod": {
                        "callParams": [
                            {
                                "name": "",
                                "type": "address",
                                "value": "0x80ad808516f9e3b795d8c51f08fc85ecb25d5b91"
                            }
                        ],
                        "constructorArguments": "",
                        "name": "balanceOf",
                        "returnParams": [
                            {
                                "decimalAvailable": true,
                                "name": "",
                                "type": "uint256",
                                "value": "1,020,794,059,418,908,706"
                            }
                        ],
                        "signature": "balanceOf(address)"
                    },
                    "errorInfo": "",
                    "fromAddress": "0x80ad808516f9e3b795d8c51f08fc85ecb25d5b91",
                    "gasUsed": 534,
                    "id": 12,
                    "methodDecoded": true,
                    "operation": "STATICCALL",
                    "output": "0x0000000000000000000000000000000000000000000000000e2a96c9e47e3822",
                    "revert": false,
                    "revertMessage": "",
                    "selector": "0x70a08231",
                    "status": true,
                    "value": "0"
                },
                "nodeType": 0
            },
            "13": {
                "event": {
                    "contract": "0x80ad808516f9e3b795d8c51f08fc85ecb25d5b91",
                    "decodedLog": {
                        "name": "Sync",
                        "params": [
                            {
                                "name": "reserve0",
                                "type": "uint112",
                                "value": "29,695,083,219,808,144,992"
                            },
                            {
                                "name": "reserve1",
                                "type": "uint112",
                                "value": "1,020,794,059,418,908,706"
                            }
                        ],
                        "signature": "Sync(uint112,uint112)"
                    },
                    "id": 13,
                    "logData": "0x0000000000000000000000000000000000000000000000019c1a20db6c53ce600000000000000000000000000000000000000000000000000e2a96c9e47e3822",
                    "logDecoded": true,
                    "operation": "EVENT",
                    "revert": false,
                    "status": true,
                    "topics": [
                        "0x1c411e9a96e071241c2f21f7726b17ae89e3cab4c78be50e062b03a9fffbbad1"
                    ]
                },
                "nodeType": 1
            },
            "14": {
                "event": {
                    "contract": "0x80ad808516f9e3b795d8c51f08fc85ecb25d5b91",
                    "decodedLog": {
                        "name": "Swap",
                        "params": [
                            {
                                "name": "sender",
                                "type": "address",
                                "value": "0x5c9321e92ba4eb43f2901c4952358e132163a85a"
                            },
                            {
                                "name": "to",
                                "type": "address",
                                "value": "0x5c9321e92ba4eb43f2901c4952358e132163a85a"
                            },
                            {
                                "name": "amount0In",
                                "type": "uint256",
                                "value": "1,689,943,696,578,999,898"
                            },
                            {
                                "name": "amount1In",
                                "type": "uint256",
                                "value": "0"
                            },
                            {
                                "name": "amount0Out",
                                "type": "uint256",
                                "value": "0"
                            },
                            {
                                "name": "amount1Out",
                                "type": "uint256",
                                "value": "61,414,056,921,052,544"
                            }
                        ],
                        "signature": "Swap(address,uint256,uint256,uint256,uint256,address)"
                    },
                    "id": 14,
                    "logData": "0x0000000000000000000000000000000000000000000000001773e2d69d00765a0000000000000000000000000000000000000000000000000000000000000000000000000000000000000000000000000000000000000000000000000000000000000000000000000000000000000000000000000000000000da2fc266feb580",
                    "logDecoded": true,
                    "operation": "EVENT",
                    "revert": false,
                    "status": true,
                    "topics": [
                        "0xd78ad95fa46c994b6551d0da85fc275fe613ce37657fb8d5e3d130840159d822",
                        "0x0000000000000000000000005c9321e92ba4eb43f2901c4952358e132163a85a",
                        "0x0000000000000000000000005c9321e92ba4eb43f2901c4952358e132163a85a"
                    ]
                },
                "nodeType": 1
            },
            "15": {
                "invocation": {
                    "address": "0xc02aaa39b223fe8d0a0e5c4f27ead9083c756cc2",
                    "callData": "0x0000000000000000000000005c9321e92ba4eb43f2901c4952358e132163a85a",
                    "decodedMethod": {
                        "callParams": [
                            {
                                "name": "",
                                "type": "address",
                                "value": "0x5c9321e92ba4eb43f2901c4952358e132163a85a"
                            }
                        ],
                        "constructorArguments": "",
                        "name": "balanceOf",
                        "returnParams": [
                            {
                                "decimalAvailable": true,
                                "name": "",
                                "type": "uint256",
                                "value": "61,414,056,921,052,544"
                            }
                        ],
                        "signature": "balanceOf(address)"
                    },
                    "errorInfo": "",
                    "fromAddress": "0x5c9321e92ba4eb43f2901c4952358e132163a85a",
                    "gasUsed": 534,
                    "id": 15,
                    "methodDecoded": true,
                    "operation": "STATICCALL",
                    "output": "0x00000000000000000000000000000000000000000000000000da2fc266feb580",
                    "revert": false,
                    "revertMessage": "",
                    "selector": "0x70a08231",
                    "status": true,
                    "value": "0"
                },
                "nodeType": 0
            },
            "16": {
                "invocation": {
                    "address": "0x5c9321e92ba4eb43f2901c4952358e132163a85a",
                    "callData": "0x0000000000000000000000000000000000000000000000000000000000000005000000000000000000000000960b5ee0ef9682b3682819cb6f168fbae050ab84000000000000000000000000000000000000000000000000000000000000004600000000000000000000000027b9c20f64920eb7fbf64491423a54df9594188c",
                    "decodedMethod": {
                        "callParams": [
                            {
                                "name": "amountMinimum",
                                "type": "uint256",
                                "value": "5"
                            },
                            {
                                "name": "recipient",
                                "type": "address",
                                "value": "0x960b5ee0ef9682b3682819cb6f168fbae050ab84"
                            },
                            {
                                "name": "feeBips",
                                "type": "uint256",
                                "value": "70"
                            },
                            {
                                "name": "feeRecipient",
                                "type": "address",
                                "value": "0x27b9c20f64920eb7fbf64491423a54df9594188c"
                            }
                        ],
                        "constructorArguments": "",
                        "name": "unwrapWETH9WithFee",
                        "returnParams": [],
                        "signature": "unwrapWETH9WithFee(uint256,address,uint256,address)"
                    },
                    "errorInfo": "",
                    "fromAddress": "0x5c9321e92ba4eb43f2901c4952358e132163a85a",
                    "gasUsed": 28298,
                    "id": 16,
                    "methodDecoded": true,
                    "operation": "DELEGATECALL",
                    "output": "",
                    "revert": false,
                    "revertMessage": "",
                    "selector": "0x9b2c0a37",
                    "status": true,
                    "value": "0"
                },
                "nodeType": 0
            },
            "17": {
                "invocation": {
                    "address": "0xc02aaa39b223fe8d0a0e5c4f27ead9083c756cc2",
                    "callData": "0x0000000000000000000000005c9321e92ba4eb43f2901c4952358e132163a85a",
                    "decodedMethod": {
                        "callParams": [
                            {
                                "name": "",
                                "type": "address",
                                "value": "0x5c9321e92ba4eb43f2901c4952358e132163a85a"
                            }
                        ],
                        "constructorArguments": "",
                        "name": "balanceOf",
                        "returnParams": [
                            {
                                "decimalAvailable": true,
                                "name": "",
                                "type": "uint256",
                                "value": "61,414,056,921,052,544"
                            }
                        ],
                        "signature": "balanceOf(address)"
                    },
                    "errorInfo": "",
                    "fromAddress": "0x5c9321e92ba4eb43f2901c4952358e132163a85a",
                    "gasUsed": 534,
                    "id": 17,
                    "methodDecoded": true,
                    "operation": "STATICCALL",
                    "output": "0x00000000000000000000000000000000000000000000000000da2fc266feb580",
                    "revert": false,
                    "revertMessage": "",
                    "selector": "0x70a08231",
                    "status": true,
                    "value": "0"
                },
                "nodeType": 0
            },
            "18": {
                "invocation": {
                    "address": "0xc02aaa39b223fe8d0a0e5c4f27ead9083c756cc2",
                    "callData": "0x00000000000000000000000000000000000000000000000000da2fc266feb580",
                    "decodedMethod": {
                        "callParams": [
                            {
                                "name": "wad",
                                "type": "uint256",
                                "value": "61,414,056,921,052,544"
                            }
                        ],
                        "constructorArguments": "",
                        "name": "withdraw",
                        "returnParams": [],
                        "signature": "withdraw(uint256)"
                    },
                    "errorInfo": "",
                    "fromAddress": "0x5c9321e92ba4eb43f2901c4952358e132163a85a",
                    "gasUsed": 9223,
                    "id": 18,
                    "methodDecoded": true,
                    "operation": "CALL",
                    "output": "",
                    "revert": false,
                    "revertMessage": "",
                    "selector": "0x2e1a7d4d",
                    "status": true,
                    "value": "0"
                },
                "nodeType": 0
            },
            "19": {
                "invocation": {
                    "address": "0x5c9321e92ba4eb43f2901c4952358e132163a85a",
                    "callData": "0x",
                    "decodedMethod": null,
                    "errorInfo": "",
                    "fromAddress": "0xc02aaa39b223fe8d0a0e5c4f27ead9083c756cc2",
                    "gasUsed": 83,
                    "id": 19,
                    "methodDecoded": false,
                    "operation": "CALL",
                    "output": "",
                    "revert": false,
                    "revertMessage": "",
                    "selector": "fallback",
                    "status": true,
                    "value": "0.061414056921052544"
                },
                "nodeType": 0
            },
            "2": {
                "invocation": {
                    "address": "0x3de23fcbaf61c92f01c9b1782f6bf12f3649fcfd",
                    "callData": "0x000000000000000000000000960b5ee0ef9682b3682819cb6f168fbae050ab8400000000000000000000000080ad808516f9e3b795d8c51f08fc85ecb25d5b910000000000000000000000000000000000000000000000001773e2d69d00765a",
                    "decodedMethod": {
                        "callParams": [
                            {
                                "name": "sender",
                                "type": "address",
                                "value": "0x960b5ee0ef9682b3682819cb6f168fbae050ab84"
                            },
                            {
                                "name": "recipient",
                                "type": "address",
                                "value": "0x80ad808516f9e3b795d8c51f08fc85ecb25d5b91"
                            },
                            {
                                "decimalAvailable": true,
                                "name": "amount",
                                "type": "uint256",
                                "value": "1,689,943,696,578,999,898"
                            }
                        ],
                        "constructorArguments": "",
                        "name": "transferFrom",
                        "returnParams": [
                            {
                                "name": "",
                                "type": "bool",
                                "value": true
                            }
                        ],
                        "signature": "transferFrom(address,address,uint256)"
                    },
                    "errorInfo": "",
                    "fromAddress": "0x5c9321e92ba4eb43f2901c4952358e132163a85a",
                    "gasUsed": 49955,
                    "id": 2,
                    "methodDecoded": true,
                    "operation": "CALL",
                    "output": "0x0000000000000000000000000000000000000000000000000000000000000001",
                    "revert": false,
                    "revertMessage": "",
                    "selector": "0x23b872dd",
                    "status": true,
                    "value": "0"
                },
                "nodeType": 0
            },
            "20": {
                "event": {
                    "contract": "0xc02aaa39b223fe8d0a0e5c4f27ead9083c756cc2",
                    "decodedLog": {
                        "name": "Withdrawal",
                        "params": [
                            {
                                "name": "src",
                                "type": "address",
                                "value": "0x5c9321e92ba4eb43f2901c4952358e132163a85a"
                            },
                            {
                                "name": "wad",
                                "type": "uint256",
                                "value": "61,414,056,921,052,544"
                            }
                        ],
                        "signature": "Withdrawal(address,uint256)"
                    },
                    "id": 20,
                    "logData": "0x00000000000000000000000000000000000000000000000000da2fc266feb580",
                    "logDecoded": true,
                    "operation": "EVENT",
                    "revert": false,
                    "status": true,
                    "topics": [
                        "0x7fcf532c15f0a6db0bd6d0e038bea71d30d808c7d98cb3bf7268a95bf5081b65",
                        "0x0000000000000000000000005c9321e92ba4eb43f2901c4952358e132163a85a"
                    ]
                },
                "nodeType": 1
            },
            "21": {
                "invocation": {
                    "address": "0x27b9c20f64920eb7fbf64491423a54df9594188c",
                    "callData": "0x",
                    "decodedMethod": null,
                    "errorInfo": "",
                    "fromAddress": "0x5c9321e92ba4eb43f2901c4952358e132163a85a",
                    "gasUsed": 0,
                    "id": 21,
                    "methodDecoded": false,
                    "operation": "CALL",
                    "output": "",
                    "revert": false,
                    "revertMessage": "",
                    "selector": "fallback",
                    "status": true,
                    "value": "0.000429898398447367"
                },
                "nodeType": 0
            },
            "22": {
                "invocation": {
                    "address": "0x960b5ee0ef9682b3682819cb6f168fbae050ab84",
                    "callData": "0x",
                    "decodedMethod": null,
                    "errorInfo": "",
                    "fromAddress": "0x5c9321e92ba4eb43f2901c4952358e132163a85a",
                    "gasUsed": 0,
                    "id": 22,
                    "methodDecoded": false,
                    "operation": "CALL",
                    "output": "",
                    "revert": false,
                    "revertMessage": "",
                    "selector": "fallback",
                    "status": true,
                    "value": "0.060984158522605177"
                },
                "nodeType": 0
            },
            "3": {
                "event": {
                    "contract": "0x3de23fcbaf61c92f01c9b1782f6bf12f3649fcfd",
                    "decodedLog": {
                        "name": "Transfer",
                        "params": [
                            {
                                "name": "from",
                                "type": "address",
                                "value": "0x960b5ee0ef9682b3682819cb6f168fbae050ab84"
                            },
                            {
                                "name": "to",
                                "type": "address",
                                "value": "0x80ad808516f9e3b795d8c51f08fc85ecb25d5b91"
                            },
                            {
                                "decimalAvailable": true,
                                "name": "value",
                                "type": "uint256",
                                "value": "1,689,943,696,578,999,898"
                            }
                        ],
                        "signature": "Transfer(address,address,uint256)"
                    },
                    "id": 3,
                    "logData": "0x0000000000000000000000000000000000000000000000001773e2d69d00765a",
                    "logDecoded": true,
                    "operation": "EVENT",
                    "revert": false,
                    "status": true,
                    "topics": [
                        "0xddf252ad1be2c89b69c2b068fc378daa952ba7f163c4a11628f55a4df523b3ef",
                        "0x000000000000000000000000960b5ee0ef9682b3682819cb6f168fbae050ab84",
                        "0x00000000000000000000000080ad808516f9e3b795d8c51f08fc85ecb25d5b91"
                    ]
                },
                "nodeType": 1
            },
            "4": {
                "event": {
                    "contract": "0x3de23fcbaf61c92f01c9b1782f6bf12f3649fcfd",
                    "decodedLog": {
                        "name": "Approval",
                        "params": [
                            {
                                "name": "owner",
                                "type": "address",
                                "value": "0x960b5ee0ef9682b3682819cb6f168fbae050ab84"
                            },
                            {
                                "name": "spender",
                                "type": "address",
                                "value": "0x5c9321e92ba4eb43f2901c4952358e132163a85a"
                            },
                            {
                                "decimalAvailable": true,
                                "name": "value",
                                "type": "uint256",
                                "value": "79,228,162,512,574,393,896,964,949,438"
                            }
                        ],
                        "signature": "Approval(address,address,uint256)"
                    },
                    "id": 4,
                    "logData": "0x0000000000000000000000000000000000000000ffffffffe88c1d2962ff85be",
                    "logDecoded": true,
                    "operation": "EVENT",
                    "revert": false,
                    "status": true,
                    "topics": [
                        "0x8c5be1e5ebec7d5bd14f71427d1e84f3dd0314c0f7b2291e5b200ac8c7c3b925",
                        "0x000000000000000000000000960b5ee0ef9682b3682819cb6f168fbae050ab84",
                        "0x0000000000000000000000005c9321e92ba4eb43f2901c4952358e132163a85a"
                    ]
                },
                "nodeType": 1
            },
            "5": {
                "invocation": {
                    "address": "0xc02aaa39b223fe8d0a0e5c4f27ead9083c756cc2",
                    "callData": "0x0000000000000000000000005c9321e92ba4eb43f2901c4952358e132163a85a",
                    "decodedMethod": {
                        "callParams": [
                            {
                                "name": "",
                                "type": "address",
                                "value": "0x5c9321e92ba4eb43f2901c4952358e132163a85a"
                            }
                        ],
                        "constructorArguments": "",
                        "name": "balanceOf",
                        "returnParams": [
                            {
                                "decimalAvailable": true,
                                "name": "",
                                "type": "uint256",
                                "value": "0"
                            }
                        ],
                        "signature": "balanceOf(address)"
                    },
                    "errorInfo": "",
                    "fromAddress": "0x5c9321e92ba4eb43f2901c4952358e132163a85a",
                    "gasUsed": 2534,
                    "id": 5,
                    "methodDecoded": true,
                    "operation": "STATICCALL",
                    "output": "0x0000000000000000000000000000000000000000000000000000000000000000",
                    "revert": false,
                    "revertMessage": "",
                    "selector": "0x70a08231",
                    "status": true,
                    "value": "0"
                },
                "nodeType": 0
            },
            "6": {
                "invocation": {
                    "address": "0x80ad808516f9e3b795d8c51f08fc85ecb25d5b91",
                    "callData": "0x",
                    "decodedMethod": {
                        "callParams": [],
                        "constructorArguments": "",
                        "name": "getReserves",
                        "returnParams": [
                            {
                                "name": "_reserve0",
                                "type": "uint112",
                                "value": "28,005,139,523,229,145,094"
                            },
                            {
                                "name": "_reserve1",
                                "type": "uint112",
                                "value": "1,082,208,116,339,961,250"
                            },
                            {
                                "name": "_blockTimestampLast",
                                "type": "uint32",
                                "value": "1,726,670,891"
                            }
                        ],
                        "signature": "getReserves()"
                    },
                    "errorInfo": "",
                    "fromAddress": "0x5c9321e92ba4eb43f2901c4952358e132163a85a",
                    "gasUsed": 2504,
                    "id": 6,
                    "methodDecoded": true,
                    "operation": "STATICCALL",
                    "output": "0x00000000000000000000000000000000000000000000000184a63e04cf5358060000000000000000000000000000000000000000000000000f04c68c4b7ceda20000000000000000000000000000000000000000000000000000000066eae82b",
                    "revert": false,
                    "revertMessage": "",
                    "selector": "0x0902f1ac",
                    "status": true,
                    "value": "0"
                },
                "nodeType": 0
            },
            "7": {
                "invocation": {
                    "address": "0x3de23fcbaf61c92f01c9b1782f6bf12f3649fcfd",
                    "callData": "0x00000000000000000000000080ad808516f9e3b795d8c51f08fc85ecb25d5b91",
                    "decodedMethod": {
                        "callParams": [
                            {
                                "name": "account",
                                "type": "address",
                                "value": "0x80ad808516f9e3b795d8c51f08fc85ecb25d5b91"
                            }
                        ],
                        "constructorArguments": "",
                        "name": "balanceOf",
                        "returnParams": [
                            {
                                "decimalAvailable": true,
                                "name": "",
                                "type": "uint256",
                                "value": "29,695,083,219,808,144,992"
                            }
                        ],
                        "signature": "balanceOf(address)"
                    },
                    "errorInfo": "",
                    "fromAddress": "0x5c9321e92ba4eb43f2901c4952358e132163a85a",
                    "gasUsed": 940,
                    "id": 7,
                    "methodDecoded": true,
                    "operation": "STATICCALL",
                    "output": "0x0000000000000000000000000000000000000000000000019c1a20db6c53ce60",
                    "revert": false,
                    "revertMessage": "",
                    "selector": "0x70a08231",
                    "status": true,
                    "value": "0"
                },
                "nodeType": 0
            },
            "8": {
                "invocation": {
                    "address": "0x80ad808516f9e3b795d8c51f08fc85ecb25d5b91",
                    "callData": "0x000000000000000000000000000000000000000000000000000000000000000000000000000000000000000000000000000000000000000000da2fc266feb5800000000000000000000000005c9321e92ba4eb43f2901c4952358e132163a85a00000000000000000000000000000000000000000000000000000000000000800000000000000000000000000000000000000000000000000000000000000000",
                    "decodedMethod": {
                        "callParams": [
                            {
                                "name": "amount0Out",
                                "type": "uint256",
                                "value": "0"
                            },
                            {
                                "name": "amount1Out",
                                "type": "uint256",
                                "value": "61,414,056,921,052,544"
                            },
                            {
                                "name": "to",
                                "type": "address",
                                "value": "0x5c9321e92ba4eb43f2901c4952358e132163a85a"
                            },
                            {
                                "name": "data",
                                "type": "bytes",
                                "value": "0x"
                            }
                        ],
                        "constructorArguments": "",
                        "name": "swap",
                        "returnParams": [],
                        "signature": "swap(uint256,uint256,address,bytes)"
                    },
                    "errorInfo": "",
                    "fromAddress": "0x5c9321e92ba4eb43f2901c4952358e132163a85a",
                    "gasUsed": 60759,
                    "id": 8,
                    "methodDecoded": true,
                    "operation": "CALL",
                    "output": "",
                    "revert": false,
                    "revertMessage": "",
                    "selector": "0x022c0d9f",
                    "status": true,
                    "value": "0"
                },
                "nodeType": 0
            },
            "9": {
                "invocation": {
                    "address": "0xc02aaa39b223fe8d0a0e5c4f27ead9083c756cc2",
                    "callData": "0x0000000000000000000000005c9321e92ba4eb43f2901c4952358e132163a85a00000000000000000000000000000000000000000000000000da2fc266feb580",
                    "decodedMethod": {
                        "callParams": [
                            {
                                "name": "dst",
                                "type": "address",
                                "value": "0x5c9321e92ba4eb43f2901c4952358e132163a85a"
                            },
                            {
                                "decimalAvailable": true,
                                "name": "wad",
                                "type": "uint256",
                                "value": "61,414,056,921,052,544"
                            }
                        ],
                        "constructorArguments": "",
                        "name": "transfer",
                        "returnParams": [
                            {
                                "name": "",
                                "type": "bool",
                                "value": true
                            }
                        ],
                        "signature": "transfer(address,uint256)"
                    },
                    "errorInfo": "",
                    "fromAddress": "0x80ad808516f9e3b795d8c51f08fc85ecb25d5b91",
                    "gasUsed": 27962,
                    "id": 9,
                    "methodDecoded": true,
                    "operation": "CALL",
                    "output": "0x0000000000000000000000000000000000000000000000000000000000000001",
                    "revert": false,
                    "revertMessage": "",
                    "selector": "0xa9059cbb",
                    "status": true,
                    "value": "0"
                },
                "nodeType": 0
            }
        },
        "gasFlame": [
            {
                "children": [
                    {
                        "children": [
                            {
                                "children": [],
                                "depth": 0,
                                "name": "Initial Gas",
                                "value": 25712
                            },
                            {
                                "children": [
                                    {
                                        "children": [
                                            {
                                                "children": [],
                                                "depth": 2,
                                                "name": "transferFrom",
                                                "value": 49955
                                            },
                                            {
                                                "children": [],
                                                "depth": 2,
                                                "name": "balanceOf",
                                                "value": 2534
                                            },
                                            {
                                                "children": [],
                                                "depth": 2,
                                                "name": "getReserves",
                                                "value": 2504
                                            },
                                            {
                                                "children": [],
                                                "depth": 2,
                                                "name": "balanceOf",
                                                "value": 940
                                            },
                                            {
                                                "children": [
                                                    {
                                                        "children": [],
                                                        "depth": 3,
                                                        "name": "transfer",
                                                        "value": 27962
                                                    },
                                                    {
                                                        "children": [],
                                                        "depth": 3,
                                                        "name": "balanceOf",
                                                        "value": 940
                                                    },
                                                    {
                                                        "children": [],
                                                        "depth": 3,
                                                        "name": "balanceOf",
                                                        "value": 534
                                                    }
                                                ],
                                                "depth": 2,
                                                "name": "swap",
                                                "value": 60759
                                            },
                                            {
                                                "children": [],
                                                "depth": 2,
                                                "name": "balanceOf",
                                                "value": 534
                                            }
                                        ],
                                        "depth": 1,
                                        "name": "swapExactTokensForTokens",
                                        "value": 134008
                                    },
                                    {
                                        "children": [
                                            {
                                                "children": [],
                                                "depth": 2,
                                                "name": "balanceOf",
                                                "value": 534
                                            },
                                            {
                                                "children": [
                                                    {
                                                        "children": [],
                                                        "depth": 3,
                                                        "name": "fallback",
                                                        "value": 83
                                                    }
                                                ],
                                                "depth": 2,
                                                "name": "withdraw",
                                                "value": 9223
                                            },
                                            {
                                                "children": [],
                                                "depth": 2,
                                                "name": "fallback",
                                                "value": 0
                                            },
                                            {
                                                "children": [],
                                                "depth": 2,
                                                "name": "fallback",
                                                "value": 0
                                            }
                                        ],
                                        "depth": 1,
                                        "name": "unwrapWETH9WithFee",
                                        "value": 28298
                                    }
                                ],
                                "depth": 0,
                                "name": "Executed Gas",
                                "value": 167776
                            }
                        ],
                        "depth": -1,
                        "name": "Actual Gas Used",
                        "value": 165988
                    },
                    {
                        "children": [],
                        "depth": -1,
                        "name": "Refunded Gas",
                        "value": 27500
                    }
                ],
                "depth": -2,
                "name": "Total Gas",
                "value": 193488
            }
        ],
        "isConfirmed": true,
        "mainTrace": [
            {
                "children": [
                    {
                        "children": [
                            {
                                "children": [
                                    {
                                        "children": [
                                            {
                                                "children": [],
                                                "depth": 3,
                                                "id": 3,
                                                "order": 3
                                            },
                                            {
                                                "children": [],
                                                "depth": 3,
                                                "id": 4,
                                                "order": 4
                                            }
                                        ],
                                        "depth": 2,
                                        "id": 2,
                                        "order": 2
                                    },
                                    {
                                        "children": [],
                                        "depth": 2,
                                        "id": 5,
                                        "order": 5
                                    },
                                    {
                                        "children": [],
                                        "depth": 2,
                                        "id": 6,
                                        "order": 6
                                    },
                                    {
                                        "children": [],
                                        "depth": 2,
                                        "id": 7,
                                        "order": 7
                                    },
                                    {
                                        "children": [
                                            {
                                                "children": [
                                                    {
                                                        "children": [],
                                                        "depth": 4,
                                                        "id": 10,
                                                        "order": 10
                                                    }
                                                ],
                                                "depth": 3,
                                                "id": 9,
                                                "order": 9
                                            },
                                            {
                                                "children": [],
                                                "depth": 3,
                                                "id": 11,
                                                "order": 11
                                            },
                                            {
                                                "children": [],
                                                "depth": 3,
                                                "id": 12,
                                                "order": 12
                                            },
                                            {
                                                "children": [],
                                                "depth": 3,
                                                "id": 13,
                                                "order": 13
                                            },
                                            {
                                                "children": [],
                                                "depth": 3,
                                                "id": 14,
                                                "order": 14
                                            }
                                        ],
                                        "depth": 2,
                                        "id": 8,
                                        "order": 8
                                    },
                                    {
                                        "children": [],
                                        "depth": 2,
                                        "id": 15,
                                        "order": 15
                                    }
                                ],
                                "depth": 1,
                                "id": 1,
                                "order": 1
                            },
                            {
                                "children": [
                                    {
                                        "children": [],
                                        "depth": 2,
                                        "id": 17,
                                        "order": 17
                                    },
                                    {
                                        "children": [
                                            {
                                                "children": [],
                                                "depth": 3,
                                                "id": 19,
                                                "order": 19
                                            },
                                            {
                                                "children": [],
                                                "depth": 3,
                                                "id": 20,
                                                "order": 20
                                            }
                                        ],
                                        "depth": 2,
                                        "id": 18,
                                        "order": 18
                                    },
                                    {
                                        "children": [],
                                        "depth": 2,
                                        "id": 21,
                                        "order": 21
                                    },
                                    {
                                        "children": [],
                                        "depth": 2,
                                        "id": 22,
                                        "order": 22
                                    }
                                ],
                                "depth": 1,
                                "id": 16,
                                "order": 16
                            }
                        ],
                        "depth": 0,
                        "id": 0,
                        "order": 0
                    }
                ],
                "depth": -1,
                "id": -1,
                "order": -1
            }
        ],
        "mainTraceNodeCount": 23,
        "parentIdMap": {
            "0": -1,
            "1": 0,
            "10": 9,
            "11": 8,
            "12": 8,
            "13": 8,
            "14": 8,
            "15": 1,
            "16": 0,
            "17": 16,
            "18": 16,
            "19": 18,
            "2": 1,
            "20": 18,
            "21": 16,
            "22": 16,
            "3": 2,
            "4": 2,
            "5": 1,
            "6": 1,
            "7": 1,
            "8": 1,
            "9": 8
        },
        "tidyTrace": [
            {
                "children": [
                    {
                        "children": [
                            {
                                "children": [
                                    {
                                        "children": [
                                            {
                                                "children": [],
                                                "depth": 3,
                                                "id": 3,
                                                "order": 3
                                            },
                                            {
                                                "children": [],
                                                "depth": 3,
                                                "id": 4,
                                                "order": 4
                                            }
                                        ],
                                        "depth": 2,
                                        "id": 2,
                                        "order": 2
                                    },
                                    {
                                        "children": [
                                            {
                                                "children": [
                                                    {
                                                        "children": [],
                                                        "depth": 4,
                                                        "id": 10,
                                                        "order": 10
                                                    }
                                                ],
                                                "depth": 3,
                                                "id": 9,
                                                "order": 9
                                            },
                                            {
                                                "children": [],
                                                "depth": 3,
                                                "id": 13,
                                                "order": 13
                                            },
                                            {
                                                "children": [],
                                                "depth": 3,
                                                "id": 14,
                                                "order": 14
                                            }
                                        ],
                                        "depth": 2,
                                        "id": 8,
                                        "order": 8
                                    }
                                ],
                                "depth": 1,
                                "id": 1,
                                "order": 1
                            },
                            {
                                "children": [
                                    {
                                        "children": [
                                            {
                                                "children": [],
                                                "depth": 3,
                                                "id": 19,
                                                "order": 19
                                            },
                                            {
                                                "children": [],
                                                "depth": 3,
                                                "id": 20,
                                                "order": 20
                                            }
                                        ],
                                        "depth": 2,
                                        "id": 18,
                                        "order": 18
                                    },
                                    {
                                        "children": [],
                                        "depth": 2,
                                        "id": 21,
                                        "order": 21
                                    },
                                    {
                                        "children": [],
                                        "depth": 2,
                                        "id": 22,
                                        "order": 22
                                    }
                                ],
                                "depth": 1,
                                "id": 16,
                                "order": 16
                            }
                        ],
                        "depth": 0,
                        "id": 0,
                        "order": 0
                    }
                ],
                "depth": -1,
                "id": -1,
                "order": -1
            }
        ],
        "tidyTraceNodeCount": 16
    },
    "state_change": {
        "stateChanges": [
            {
                "address": "0x3de23fcbaf61c92f01c9b1782f6bf12f3649fcfd",
                "erc": "ERC-20",
                "slots": [
                    {
                        "current": "0x0000000000000000000000000000000000000000000000000000000000000000",
                        "key": "0x2c55d2038f5468654b3d0413095423b7cb91d38b1fd16903016840246b385a73",
                        "prev": "0x0000000000000000000000000000000000000000000000001773e2d69d00765a"
                    },
                    {
                        "current": "0x0000000000000000000000000000000000000000000000019c1a20db6c53ce60",
                        "key": "0xee7926828907fa7f15fbdb4b0145c8ce7f8065c4bf1e7ad56dc40ff59e21e707",
                        "prev": "0x00000000000000000000000000000000000000000000000184a63e04cf535806"
                    },
                    {
                        "current": "0x0000000000000000000000000000000000000000ffffffffe88c1d2962ff85be",
                        "key": "0xcb0cbcc860e960d0ea78728c86a47c6da2602feb2a7deb5f6326648e6ea54f90",
                        "prev": "0x0000000000000000000000000000000000000000fffffffffffffffffffffc18"
                    }
                ],
                "storageVariables": [
                    {
                        "name": "_allowances",
                        "type": "mapping(address => mapping(address => uint256))",
                        "value": {
                            "pairs": [
                                {
                                    "key": "0x960b5ee0ef9682b3682819cb6f168fbae050ab84",
                                    "value": {
                                        "pairs": [
                                            {
                                                "key": "0x5c9321e92ba4eb43f2901c4952358e132163a85a",
                                                "value": {
                                                    "current": "79228162512574393896964949438",
                                                    "prev": "79228162514264337593543949336",
                                                    "typeTag": 1
                                                }
                                            }
                                        ],
                                        "typeTag": 4
                                    }
                                }
                            ],
                            "typeTag": 4
                        }
                    },
                    {
                        "name": "_balances",
                        "type": "mapping(address => uint256)",
                        "value": {
                            "pairs": [
                                {
                                    "key": "0x80ad808516f9e3b795d8c51f08fc85ecb25d5b91",
                                    "value": {
                                        "current": "29695083219808144992",
                                        "prev": "28005139523229145094",
                                        "typeTag": 1
                                    }
                                },
                                {
                                    "key": "0x960b5ee0ef9682b3682819cb6f168fbae050ab84",
                                    "value": {
                                        "current": "0",
                                        "prev": "1689943696578999898",
                                        "typeTag": 1
                                    }
                                }
                            ],
                            "typeTag": 4
                        }
                    }
                ]
            },
            {
                "address": "0x80ad808516f9e3b795d8c51f08fc85ecb25d5b91",
                "erc": "ERC-20",
                "slots": [
                    {
                        "current": "0x66eae8430000000000000e2a96c9e47e38220000000000019c1a20db6c53ce60",
                        "key": "0x0000000000000000000000000000000000000000000000000000000000000008",
                        "prev": "0x66eae82b0000000000000f04c68c4b7ceda200000000000184a63e04cf535806"
                    },
                    {
                        "current": "0x000000000000000000000000000000000135b3681dd02fd843c3e75b1ffcaa64",
                        "key": "0x0000000000000000000000000000000000000000000000000000000000000009",
                        "prev": "0x000000000000000000000000000000000134c5fb9f9b1255704a806c4b334f84"
                    },
                    {
                        "current": "0x00000000000000000000000000000001b775b27ea105b5e9dd13911b62d7f634",
                        "key": "0x000000000000000000000000000000000000000000000000000000000000000a",
                        "prev": "0x00000000000000000000000000000001b508a16feaf8ee78fa5c42e2f3121fc4"
                    }
                ],
                "storageVariables": [
                    {
                        "name": "price0CumulativeLast",
                        "type": "uint256",
                        "value": {
                            "current": "1608058529561964665616185107790211684",
                            "prev": "1603243002785024011305138708811042692",
                            "typeTag": 1
                        }
                    },
                    {
                        "name": "price1CumulativeLast",
                        "type": "uint256",
                        "value": {
                            "current": "584142209183518560104641000575277200948",
                            "prev": "580917446867869174138603411391460286404",
                            "typeTag": 1
                        }
                    },
                    {
                        "name": "reserve0",
                        "type": "uint112",
                        "value": {
                            "current": "29695083219808144992",
                            "prev": "28005139523229145094",
                            "typeTag": 1
                        }
                    },
                    {
                        "name": "reserve1",
                        "type": "uint112",
                        "value": {
                            "current": "1020794059418908706",
                            "prev": "1082208116339961250",
                            "typeTag": 1
                        }
                    },
                    {
                        "name": "blockTimestampLast",
                        "type": "uint32",
                        "value": {
                            "current": "1726670915",
                            "prev": "1726670891",
                            "typeTag": 1
                        }
                    }
                ]
            },
            {
                "address": "0xc02aaa39b223fe8d0a0e5c4f27ead9083c756cc2",
                "erc": "ERC-20",
                "slots": [
                    {
                        "current": "0x0000000000000000000000000000000000000000000000000e2a96c9e47e3822",
                        "key": "0x6f8468d213029f8afdab0ef944fd0954917400fd95791e90aa033b3e0ff7f85b",
                        "prev": "0x0000000000000000000000000000000000000000000000000f04c68c4b7ceda2"
                    }
                ],
                "storageVariables": [
                    {
                        "name": "balanceOf",
                        "type": "mapping(address => uint256)",
                        "value": {
                            "pairs": [
                                {
                                    "key": "0x80ad808516f9e3b795d8c51f08fc85ecb25d5b91",
                                    "value": {
                                        "current": "1020794059418908706",
                                        "prev": "1082208116339961250",
                                        "typeTag": 1
                                    }
                                }
                            ],
                            "typeTag": 4
                        }
                    }
                ]
            }
        ]
    }
}