{
    "balance_change": {
        "balanceChanges": [
            {
                "account": "0xdd62072c12db44f991fdfe537fe206a9be7f8338",
                "assets": [
                    {
                        "address": "0x47f32f9ebfc49a1434eb6190d5d8a80a2dc36af5",
                        "amount": "4,256",
                        "iconUrl": "",
                        "isERC1155": false,
                        "isERC721": false,
                        "sign": false,
                        "value": ""
                    }
                ]
            },
            {
                "account": "0x524b971b6e26a2e6993ff87275ba413f37a70d8a",
                "assets": [
                    {
                        "address": "0x47f32f9ebfc49a1434eb6190d5d8a80a2dc36af5",
                        "amount": "14.896",
                        "iconUrl": "",
                        "isERC1155": false,
                        "isERC721": false,
                        "sign": true,
                        "value": ""
                    }
                ]
            },
            {
                "account": "0x66c93a80719c6875206b7590eab13cd08acba300",
                "assets": [
                    {
                        "address": "0x47f32f9ebfc49a1434eb6190d5d8a80a2dc36af5",
                        "amount": "4,241.104",
                        "iconUrl": "",
                        "isERC1155": false,
                        "isERC721": false,
                        "sign": true,
                        "value": ""
                    }
                ]
            }
        ]
    },
    "profile": {
        "basic_info": {
            "baseFee": "",
            "blockNumber": 7795226,
            "callData": "0xcae9ca5100000000000000000000000066c93a80719c6875206b7590eab13cd08acba3000000000000000000000000000000000000000000000000e6b7dd6abede800000000000000000000000000000000000000000000000000000000000000000006000000000000000000000000000000000000000000000000000000000000000140000000000000000000000000000000000000000000000000000000000000000",
            "debugEnable": true,
            "errorInfo": "",
            "eventCount": 7,
            "feeRecipient": "0xb2930b35844a230f00e51431acae96fe543a0347",
            "formatValue": "0",
            "gasLimit": 1500000,
            "gasPrice": "12",
            "gasUsed": 157701,
            "intTxnCount": 9,
            "internalRevert": false,
            "internalRevertMessage": "",
            "isContractCreation": false,
            "isFlashloan": false,
            "maxFee": "",
            "nonce": 74,
            "overwritedBlockNumber": -1,
            "priorityFee": "",
            "receiver": "0x47f32f9ebfc49a1434eb6190d5d8a80a2dc36af5",
            "revertMessage": "",
            "sender": "0xdd62072c12db44f991fdfe537fe206a9be7f8338",
            "simulationEnable": true,
            "sourceTxnHash": "0xe62dff81c49dc5788a8a7dc3eb9f143e659c16e6ae88bc1ca5d6d40cb81b0d13",
            "status": true,
            "timestamp": "2019-05-20T06:16:50Z",
            "transactionFee": "0.001892412",
            "txnHash": "0xe62dff81c49dc5788a8a7dc3eb9f143e659c16e6ae88bc1ca5d6d40cb81b0d13",
            "txnIndex": 40,
            "type": 0,
            "value": "0"
        },
        "fund_flow": [
            {
                "amount": "4,256",
                "from": "0xdd62072c12db44f991fdfe537fe206a9be7f8338",
                "id": 1,
                "isERC1155": false,
                "isERC721": false,
                "isReverted": false,
                "order": 1,
                "to": "0x66c93a80719c6875206b7590eab13cd08acba300",
                "token": "0x47f32f9ebfc49a1434eb6190d5d8a80a2dc36af5"
            },
            {
                "amount": "14.896",
                "from": "0x66c93a80719c6875206b7590eab13cd08acba300",
                "id": 2,
                "isERC1155": false,
                "isERC721": false,
                "isReverted": false,
                "order": 2,
                "to": "0x524b971b6e26a2e6993ff87275ba413f37a70d8a",
                "token": "0x47f32f9ebfc49a1434eb6190d5d8a80a2dc36af5"
            }
        ],
        "token_infos": [
            {
                "address": "0x47f32f9ebfc49a1434eb6190d5d8a80a2dc36af5",
                "decimals": 18
            },
            {
                "address": "0xc02aaa39b223fe8d0a0e5c4f27ead9083c756cc2",
                "decimals": 18
            },
            {
                "address": "0xeeeeeeeeeeeeeeeeeeeeeeeeeeeeeeeeeeeeeeee",
                "decimals": 18
            }
        ]
    },
    "address_label": {
        "labels": [
            {
                "address": "0xeeeeeeeeeeeeeeeeeeeeeeeeeeeeeeeeeeeeeeee",
                "label": "Ether"
            },
            {
                "address": "0x47f32f9ebfc49a1434eb6190d5d8a80a2dc36af5",
                "label": "HPC"
            },
            {
                "address": "0x0000000000000000000000000000000000000001",
                "label": "Precompiled"
            },
            {
                "address": "0x0000000000000000000000000000000000000002",
                "label": "Precompiled"
            },
            {
                "address": "0x0000000000000000000000000000000000000003",
                "label": "Precompiled"
            },
            {
                "address": "0x0000000000000000000000000000000000000004",
                "label": "Precompiled"
            }
        ]
    },
    "trace": {
        "accountLabels": null,
        "dataMap": {
            "-1": {
                "invocation": {
                    "address": "0xdd62072c12db44f991fdfe537fe206a9be7f8338",
                    "callData": "",
                    "decodedMethod": null,
                    "errorInfo": "",
                    "fromAddress": "",
                    "gasUsed": 0,
                    "id": -1,
                    "methodDecoded": false,
                    "operation": "",
                    "output": "",
                    "revert": false,
                    "revertMessage": "",
                    "selector": "",
                    "status": false,
                    "value": ""
                },
                "nodeType": 0
            },
            "0": {
                "invocation": {
                    "address": "0x47f32f9ebfc49a1434eb6190d5d8a80a2dc36af5",
                    "callData": "0x00000000000000000000000066c93a80719c6875206b7590eab13cd08acba3000000000000000000000000000000000000000000000000e6b7dd6abede800000000000000000000000000000000000000000000000000000000000000000006000000000000000000000000000000000000000000000000000000000000000140000000000000000000000000000000000000000000000000000000000000000",
                    "decodedMethod": {
                        "callParams": [
                            {
                                "name": "spender",
                                "type": "address",
                                "value": "0x66c93a80719c6875206b7590eab13cd08acba300"
                            },
                            {
                                "name": "tokens",
                                "type": "uint256",
                                "value": "4,256,000,000,000,000,000,000"
                            },
                            {
                                "name": "data",
                                "type": "bytes",
                                "value": "0x0000000000000000000000000000000000000000"
                            }
                        ],
                        "constructorArguments": "",
                        "name": "approveAndCall",
                        "returnParams": [
                            {
                                "name": "success",
                                "type": "bool",
                                "value": true
                            }
                        ],
                        "signature": "approveAndCall(address,uint256,bytes)"
                    },
                    "errorInfo": "",
                    "fromAddress": "0xdd62072c12db44f991fdfe537fe206a9be7f8338",
                    "gasUsed": 157701,
                    "id": 0,
                    "methodDecoded": true,
                    "operation": "CALL",
                    "output": "0x0000000000000000000000000000000000000000000000000000000000000001",
                    "revert": false,
                    "revertMessage": "",
                    "selector": "0xcae9ca51",
                    "status": true,
                    "value": "0"
                },
                "nodeType": 0
            },
            "1": {
                "event": {
                    "contract": "0x47f32f9ebfc49a1434eb6190d5d8a80a2dc36af5",
                    "decodedLog": {
                        "name": "Approval",
                        "params": [
                            {
                                "name": "owner",
                                "type": "address",
                                "value": "0xdd62072c12db44f991fdfe537fe206a9be7f8338"
                            },
                            {
                                "name": "spender",
                                "type": "address",
                                "value": "0x66c93a80719c6875206b7590eab13cd08acba300"
                            },
                            {
                                "decimalAvailable": true,
                                "name": "value",
                                "type": "uint256",
                                "value": "4,256,000,000,000,000,000,000"
                            }
                        ],
                        "signature": "Approval(address,address,uint256)"
                    },
                    "id": 1,
                    "logData": "0x0000000000000000000000000000000000000000000000e6b7dd6abede800000",
                    "logDecoded": true,
                    "operation": "EVENT",
                    "revert": false,
                    "status": true,
                    "topics": [
                        "0x8c5be1e5ebec7d5bd14f71427d1e84f3dd0314c0f7b2291e5b200ac8c7c3b925",
                        "0x000000000000000000000000dd62072c12db44f991fdfe537fe206a9be7f8338",
                        "0x00000000000000000000000066c93a80719c6875206b7590eab13cd08acba300"
                    ]
                },
                "nodeType": 1
            },
            "10": {
                "invocation": {
                    "address": "0x524b971b6e26a2e6993ff87275ba413f37a70d8a",
                    "callData": "0x00000000000000000000000000000000000000000000000000000000000003cc",
                    "decodedMethod": {
                        "callParams": [
                            {
                                "name": "",
                                "type": "uint256",
                                "value": "972"
                            }
                        ],
                        "constructorArguments": "",
                        "name": "users",
                        "returnParams": [
                            {
                                "name": "",
                                "type": "address",
                                "value": "0xdd62072c12db44f991fdfe537fe206a9be7f8338"
                            }
                        ],
                        "signature": "users(uint256)"
                    },
                    "errorInfo": "",
                    "fromAddress": "0x66c93a80719c6875206b7590eab13cd08acba300",
                    "gasUsed": 2464,
                    "id": 10,
                    "methodDecoded": true,
                    "operation": "STATICCALL",
                    "output": "0x000000000000000000000000dd62072c12db44f991fdfe537fe206a9be7f8338000000000000000000000000260a0aa805b0370a6ddef9a4f4c97ce66f1087c10000000000000000000000000000000000000000000000000000000000000029000000000000000000000000000000000000000000000000000000000000000000000000000000000000000000000000000000000000000000000000000000000000000000000000000000000000000000000000000000000000000000000000",
                    "revert": false,
                    "revertMessage": "",
                    "selector": "0x365b98b2",
                    "status": true,
                    "value": "0"
                },
                "nodeType": 0
            },
            "11": {
                "invocation": {
                    "address": "0x524b971b6e26a2e6993ff87275ba413f37a70d8a",
                    "callData": "0x000000000000000000000000260a0aa805b0370a6ddef9a4f4c97ce66f1087c10000000000000000000000000000000000000000000000007620b2e6c8200000",
                    "decodedMethod": null,
                    "errorInfo": "",
                    "fromAddress": "0x66c93a80719c6875206b7590eab13cd08acba300",
                    "gasUsed": 8521,
                    "id": 11,
                    "methodDecoded": false,
                    "operation": "CALL",
                    "output": "0x0000000000000000000000000000000000000000000000000000000000000001",
                    "revert": false,
                    "revertMessage": "",
                    "selector": "0x6e3abbd2",
                    "status": true,
                    "value": "0"
                },
                "nodeType": 0
            },
            "12": {
                "event": {
                    "contract": "0x524b971b6e26a2e6993ff87275ba413f37a70d8a",
                    "decodedLog": null,
                    "id": 12,
                    "logData": "0x0000000000000000000000000000000000000000000000007620b2e6c8200000",
                    "logDecoded": false,
                    "operation": "EVENT",
                    "revert": false,
                    "status": true,
                    "topics": [
                        "0x8cf15f3e8549a0aaf5aa0856d6593a03010634d49b45a5e2ed9a13d58de97171",
                        "0x000000000000000000000000260a0aa805b0370a6ddef9a4f4c97ce66f1087c1"
                    ]
                },
                "nodeType": 1
            },
            "13": {
                "invocation": {
                    "address": "0x524b971b6e26a2e6993ff87275ba413f37a70d8a",
                    "callData": "0x00000000000000000000000000000000000000000000000000000000000000290000000000000000000000000000000000000000000000003b10597364100000",
                    "decodedMethod": null,
                    "errorInfo": "",
                    "fromAddress": "0x66c93a80719c6875206b7590eab13cd08acba300",
                    "gasUsed": 8009,
                    "id": 13,
                    "methodDecoded": false,
                    "operation": "CALL",
                    "output": "0x0000000000000000000000000000000000000000000000000000000000000001",
                    "revert": false,
                    "revertMessage": "",
                    "selector": "0x3c23388f",
                    "status": true,
                    "value": "0"
                },
                "nodeType": 0
            },
            "14": {
                "event": {
                    "contract": "0x524b971b6e26a2e6993ff87275ba413f37a70d8a",
                    "decodedLog": null,
                    "id": 14,
                    "logData": "0x0000000000000000000000000000000000000000000000003b10597364100000",
                    "logDecoded": false,
                    "operation": "EVENT",
                    "revert": false,
                    "status": true,
                    "topics": [
                        "0x6134b2b88693cb65656ba7c6950b51b2192ea4d8ed2547c5fff78ce28c48c945",
                        "0x00000000000000000000000034b0f4c2f511a656a94dd4f31d5b14ace8f4ad79"
                    ]
                },
                "nodeType": 1
            },
            "15": {
                "invocation": {
                    "address": "0x524b971b6e26a2e6993ff87275ba413f37a70d8a",
                    "callData": "0x00000000000000000000000000000000000000000000000000000000000000290000000000000000000000000000000000000000000000001d882cb9b2080000",
                    "decodedMethod": null,
                    "errorInfo": "",
                    "fromAddress": "0x66c93a80719c6875206b7590eab13cd08acba300",
                    "gasUsed": 11151,
                    "id": 15,
                    "methodDecoded": false,
                    "operation": "CALL",
                    "output": "0x0000000000000000000000000000000000000000000000000000000000000001",
                    "revert": false,
                    "revertMessage": "",
                    "selector": "0x33d8bfc7",
                    "status": true,
                    "value": "0"
                },
                "nodeType": 0
            },
            "16": {
                "event": {
                    "contract": "0x524b971b6e26a2e6993ff87275ba413f37a70d8a",
                    "decodedLog": null,
                    "id": 16,
                    "logData": "0x0000000000000000000000000000000000000000000000001d882cb9b2080000",
                    "logDecoded": false,
                    "operation": "EVENT",
                    "revert": false,
                    "status": true,
                    "topics": [
                        "0x8cf15f3e8549a0aaf5aa0856d6593a03010634d49b45a5e2ed9a13d58de97171",
                        "0x00000000000000000000000072bce24d5b5542cda329bfaaee35753e03aca8f0"
                    ]
                },
                "nodeType": 1
            },
            "2": {
                "invocation": {
                    "address": "0x66c93a80719c6875206b7590eab13cd08acba300",
                    "callData": "0x000000000000000000000000dd62072c12db44f991fdfe537fe206a9be7f83380000000000000000000000000000000000000000000000e6b7dd6abede80000000000000000000000000000047f32f9ebfc49a1434eb6190d5d8a80a2dc36af5000000000000000000000000000000000000000000000000000000000000008000000000000000000000000000000000000000000000000000000000000000140000000000000000000000000000000000000000000000000000000000000000",
                    "decodedMethod": {
                        "callParams": [
                            {
                                "name": "_from",
                                "type": "address",
                                "value": "0xdd62072c12db44f991fdfe537fe206a9be7f8338"
                            },
                            {
                                "name": "_value",
                                "type": "uint256",
                                "value": "4,256,000,000,000,000,000,000"
                            },
                            {
                                "name": "_token",
                                "type": "address",
                                "value": "0x47f32f9ebfc49a1434eb6190d5d8a80a2dc36af5"
                            },
                            {
                                "name": "_extraData",
                                "type": "bytes",
                                "value": "0x0000000000000000000000000000000000000000"
                            }
                        ],
                        "constructorArguments": "",
                        "name": "receiveApproval",
                        "returnParams": [],
                        "signature": "receiveApproval(address,uint256,address,bytes)"
                    },
                    "errorInfo": "",
                    "fromAddress": "0x47f32f9ebfc49a1434eb6190d5d8a80a2dc36af5",
                    "gasUsed": 123601,
                    "id": 2,
                    "methodDecoded": true,
                    "operation": "CALL",
                    "output": "",
                    "revert": false,
                    "revertMessage": "",
                    "selector": "0x8f4ffcb1",
                    "status": true,
                    "value": "0"
                },
                "nodeType": 0
            },
            "3": {
                "invocation": {
                    "address": "0x47f32f9ebfc49a1434eb6190d5d8a80a2dc36af5",
                    "callData": "0x000000000000000000000000dd62072c12db44f991fdfe537fe206a9be7f833800000000000000000000000066c93a80719c6875206b7590eab13cd08acba3000000000000000000000000000000000000000000000000e6b7dd6abede800000",
                    "decodedMethod": {
                        "callParams": [
                            {
                                "name": "sender",
                                "type": "address",
                                "value": "0xdd62072c12db44f991fdfe537fe206a9be7f8338"
                            },
                            {
                                "name": "recipient",
                                "type": "address",
                                "value": "0x66c93a80719c6875206b7590eab13cd08acba300"
                            },
                            {
                                "decimalAvailable": true,
                                "name": "amount",
                                "type": "uint256",
                                "value": "4,256,000,000,000,000,000,000"
                            }
                        ],
                        "constructorArguments": "",
                        "name": "transferFrom",
                        "returnParams": [
                            {
                                "name": "",
                                "type": "bool",
                                "value": true
                            }
                        ],
                        "signature": "transferFrom(address,address,uint256)"
                    },
                    "errorInfo": "",
                    "fromAddress": "0x66c93a80719c6875206b7590eab13cd08acba300",
                    "gasUsed": 21609,
                    "id": 3,
                    "methodDecoded": true,
                    "operation": "CALL",
                    "output": "0x0000000000000000000000000000000000000000000000000000000000000001",
                    "revert": false,
                    "revertMessage": "",
                    "selector": "0x23b872dd",
                    "status": true,
                    "value": "0"
                },
                "nodeType": 0
            },
            "4": {
                "event": {
                    "contract": "0x47f32f9ebfc49a1434eb6190d5d8a80a2dc36af5",
                    "decodedLog": {
                        "name": "Transfer",
                        "params": [
                            {
                                "name": "from",
                                "type": "address",
                                "value": "0xdd62072c12db44f991fdfe537fe206a9be7f8338"
                            },
                            {
                                "name": "to",
                                "type": "address",
                                "value": "0x66c93a80719c6875206b7590eab13cd08acba300"
                            },
                            {
                                "decimalAvailable": true,
                                "name": "value",
                                "type": "uint256",
                                "value": "4,256,000,000,000,000,000,000"
                            }
                        ],
                        "signature": "Transfer(address,address,uint256)"
                    },
                    "id": 4,
                    "logData": "0x0000000000000000000000000000000000000000000000e6b7dd6abede800000",
                    "logDecoded": true,
                    "operation": "EVENT",
                    "revert": false,
                    "status": true,
                    "topics": [
                        "0xddf252ad1be2c89b69c2b068fc378daa952ba7f163c4a11628f55a4df523b3ef",
                        "0x000000000000000000000000dd62072c12db44f991fdfe537fe206a9be7f8338",
                        "0x00000000000000000000000066c93a80719c6875206b7590eab13cd08acba300"
                    ]
                },
                "nodeType": 1
            },
            "5": {
                "event": {
                    "contract": "0x47f32f9ebfc49a1434eb6190d5d8a80a2dc36af5",
                    "decodedLog": {
                        "name": "Approval",
                        "params": [
                            {
                                "name": "owner",
                                "type": "address",
                                "value": "0xdd62072c12db44f991fdfe537fe206a9be7f8338"
                            },
                            {
                                "name": "spender",
                                "type": "address",
                                "value": "0x66c93a80719c6875206b7590eab13cd08acba300"
                            },
                            {
                                "decimalAvailable": true,
                                "name": "value",
                                "type": "uint256",
                                "value": "0"
                            }
                        ],
                        "signature": "Approval(address,address,uint256)"
                    },
                    "id": 5,
                    "logData": "0x0000000000000000000000000000000000000000000000000000000000000000",
                    "logDecoded": true,
                    "operation": "EVENT",
                    "revert": false,
                    "status": true,
                    "topics": [
                        "0x8c5be1e5ebec7d5bd14f71427d1e84f3dd0314c0f7b2291e5b200ac8c7c3b925",
                        "0x000000000000000000000000dd62072c12db44f991fdfe537fe206a9be7f8338",
                        "0x00000000000000000000000066c93a80719c6875206b7590eab13cd08acba300"
                    ]
                },
                "nodeType": 1
            },
            "6": {
                "invocation": {
                    "address": "0x47f32f9ebfc49a1434eb6190d5d8a80a2dc36af5",
                    "callData": "0x000000000000000000000000524b971b6e26a2e6993ff87275ba413f37a70d8a000000000000000000000000000000000000000000000000ceb93913de380000",
                    "decodedMethod": {
                        "callParams": [
                            {
                                "name": "recipient",
                                "type": "address",
                                "value": "0x524b971b6e26a2e6993ff87275ba413f37a70d8a"
                            },
                            {
                                "decimalAvailable": true,
                                "name": "amount",
                                "type": "uint256",
                                "value": "14,896,000,000,000,000,000"
                            }
                        ],
                        "constructorArguments": "",
                        "name": "transfer",
                        "returnParams": [
                            {
                                "name": "",
                                "type": "bool",
                                "value": true
                            }
                        ],
                        "signature": "transfer(address,uint256)"
                    },
                    "errorInfo": "",
                    "fromAddress": "0x66c93a80719c6875206b7590eab13cd08acba300",
                    "gasUsed": 16514,
                    "id": 6,
                    "methodDecoded": true,
                    "operation": "CALL",
                    "output": "0x0000000000000000000000000000000000000000000000000000000000000001",
                    "revert": false,
                    "revertMessage": "",
                    "selector": "0xa9059cbb",
                    "status": true,
                    "value": "0"
                },
                "nodeType": 0
            },
            "7": {
                "event": {
                    "contract": "0x47f32f9ebfc49a1434eb6190d5d8a80a2dc36af5",
                    "decodedLog": {
                        "name": "Transfer",
                        "params": [
                            {
                                "name": "from",
                                "type": "address",
                                "value": "0x66c93a80719c6875206b7590eab13cd08acba300"
                            },
                            {
                                "name": "to",
                                "type": "address",
                                "value": "0x524b971b6e26a2e6993ff87275ba413f37a70d8a"
                            },
                            {
                                "decimalAvailable": true,
                                "name": "value",
                                "type": "uint256",
                                "value": "14,896,000,000,000,000,000"
                            }
                        ],
                        "signature": "Transfer(address,address,uint256)"
                    },
                    "id": 7,
                    "logData": "0x000000000000000000000000000000000000000000000000ceb93913de380000",
                    "logDecoded": true,
                    "operation": "EVENT",
                    "revert": false,
                    "status": true,
                    "topics": [
                        "0xddf252ad1be2c89b69c2b068fc378daa952ba7f163c4a11628f55a4df523b3ef",
                        "0x00000000000000000000000066c93a80719c6875206b7590eab13cd08acba300",
                        "0x000000000000000000000000524b971b6e26a2e6993ff87275ba413f37a70d8a"
                    ]
                },
                "nodeType": 1
            },
            "8": {
                "invocation": {
                    "address": "0x524b971b6e26a2e6993ff87275ba413f37a70d8a",
                    "callData": "0x00000000000000000000000066c93a80719c6875206b7590eab13cd08acba300",
                    "decodedMethod": {
                        "callParams": [
                            {
                                "name": "",
                                "type": "address",
                                "value": "0x66c93a80719c6875206b7590eab13cd08acba300"
                            }
                        ],
                        "constructorArguments": "",
                        "name": "userIds",
                        "returnParams": [
                            {
                                "name": "",
                                "type": "uint256",
                                "value": "0"
                            }
                        ],
                        "signature": "userIds(address)"
                    },
                    "errorInfo": "",
                    "fromAddress": "0x47f32f9ebfc49a1434eb6190d5d8a80a2dc36af5",
                    "gasUsed": 728,
                    "id": 8,
                    "methodDecoded": true,
                    "operation": "STATICCALL",
                    "output": "0x0000000000000000000000000000000000000000000000000000000000000000",
                    "revert": false,
                    "revertMessage": "",
                    "selector": "0x4081db51",
                    "status": true,
                    "value": "0"
                },
                "nodeType": 0
            },
            "9": {
                "invocation": {
                    "address": "0x524b971b6e26a2e6993ff87275ba413f37a70d8a",
                    "callData": "0x000000000000000000000000dd62072c12db44f991fdfe537fe206a9be7f8338",
                    "decodedMethod": {
                        "callParams": [
                            {
                                "name": "",
                                "type": "address",
                                "value": "0xdd62072c12db44f991fdfe537fe206a9be7f8338"
                            }
                        ],
                        "constructorArguments": "",
                        "name": "userIds",
                        "returnParams": [
                            {
                                "name": "",
                                "type": "uint256",
                                "value": "972"
                            }
                        ],
                        "signature": "userIds(address)"
                    },
                    "errorInfo": "",
                    "fromAddress": "0x66c93a80719c6875206b7590eab13cd08acba300",
                    "gasUsed": 728,
                    "id": 9,
                    "methodDecoded": true,
                    "operation": "STATICCALL",
                    "output": "0x00000000000000000000000000000000000000000000000000000000000003cc",
                    "revert": false,
                    "revertMessage": "",
                    "selector": "0x4081db51",
                    "status": true,
                    "value": "0"
                },
                "nodeType": 0
            }
        },
        "gasFlame": [
            {
                "children": [
                    {
                        "children": [
                            {
                                "children": [],
                                "depth": 0,
                                "name": "Initial Gas",
                                "value": 23704
                            },
                            {
                                "children": [
                                    {
                                        "children": [
                                            {
                                                "children": [],
                                                "depth": 2,
                                                "name": "transferFrom",
                                                "value": 21609
                                            },
                                            {
                                                "children": [
                                                    {
                                                        "children": [],
                                                        "depth": 3,
                                                        "name": "userIds",
                                                        "value": 728
                                                    }
                                                ],
                                                "depth": 2,
                                                "name": "transfer",
                                                "value": 16514
                                            },
                                            {
                                                "children": [],
                                                "depth": 2,
                                                "name": "userIds",
                                                "value": 728
                                            },
                                            {
                                                "children": [],
                                                "depth": 2,
                                                "name": "users",
                                                "value": 2464
                                            },
                                            {
                                                "children": [],
                                                "depth": 2,
                                                "name": "0x6e3abbd2",
                                                "value": 8521
                                            },
                                            {
                                                "children": [],
                                                "depth": 2,
                                                "name": "0x3c23388f",
                                                "value": 8009
                                            },
                                            {
                                                "children": [],
                                                "depth": 2,
                                                "name": "0x33d8bfc7",
                                                "value": 11151
                                            }
                                        ],
                                        "depth": 1,
                                        "name": "receiveApproval",
                                        "value": 123601
                                    }
                                ],
                                "depth": 0,
                                "name": "Executed Gas",
                                "value": 148997
                            }
                        ],
                        "depth": -1,
                        "name": "Actual Gas Used",
                        "value": 157701
                    },
                    {
                        "children": [],
                        "depth": -1,
                        "name": "Refunded Gas",
                        "value": 15000
                    }
                ],
                "depth": -2,
                "name": "Total Gas",
                "value": 172701
            }
        ],
        "isConfirmed": true,
        "mainTrace": [
            {
                "children": [
                    {
                        "children": [
                            {
                                "children": [],
                                "depth": 1,
                                "id": 1,
                                "order": 1
                            },
                            {
                                "children": [
                                    {
                                        "children": [
                                            {
                                                "children": [],
                                                "depth": 3,
                                                "id": 4,
                                                "order": 4
                                            },
                                            {
                                                "children": [],
                                                "depth": 3,
                                                "id": 5,
                                                "order": 5
                                            }
                                        ],
                                        "depth": 2,
                                        "id": 3,
                                        "order": 3
                                    },
                                    {
                                        "children": [
                                            {
                                                "children": [],
                                                "depth": 3,
                                                "id": 7,
                                                "order": 7
                                            },
                                            {
                                                "children": [],
                                                "depth": 3,
                                                "id": 8,
                                                "order": 8
                                            }
                                        ],
                                        "depth": 2,
                                        "id": 6,
                                        "order": 6
                                    },
                                    {
                                        "children": [],
                                        "depth": 2,
                                        "id": 9,
                                        "order": 9
                                    },
                                    {
                                        "children": [],
                                        "depth": 2,
                                        "id": 10,
                                        "order": 10
                                    },
                                    {
                                        "children": [
                                            {
                                                "children": [],
                                                "depth": 3,
                                                "id": 12,
                                                "order": 12
                                            }
                                        ],
                                        "depth": 2,
                                        "id": 11,
                                        "order": 11
                                    },
                                    {
                                        "children": [
                                            {
                                                "children": [],
                                                "depth": 3,
                                                "id": 14,
                                                "order": 14
                                            }
                                        ],
                                        "depth": 2,
                                        "id": 13,
                                        "order": 13
                                    },
                                    {
                                        "children": [
                                            {
                                                "children": [],
                                                "depth": 3,
                                                "id": 16,
                                                "order": 16
                                            }
                                        ],
                                        "depth": 2,
                                        "id": 15,
                                        "order": 15
                                    }
                                ],
                                "depth": 1,
                                "id": 2,
                                "order": 2
                            }
                        ],
                        "depth": 0,
                        "id": 0,
                        "order": 0
                    }
                ],
                "depth": -1,
                "id": -1,
                "order": -1
            }
        ],
        "mainTraceNodeCount": 17,
        "parentIdMap": {
            "0": -1,
            "1": 0,
            "10": 2,
            "11": 2,
            "12": 11,
            "13": 2,
            "14": 13,
            "15": 2,
            "16": 15,
            "2": 0,
            "3": 2,
            "4": 3,
            "5": 3,
            "6": 2,
            "7": 6,
            "8": 6,
            "9": 2
        },
        "tidyTrace": [
            {
                "children": [
                    {
                        "children": [
                            {
                                "children": [],
                                "depth": 1,
                                "id": 1,
                                "order": 1
                            },
                            {
                                "children": [
                                    {
                                        "children": [
                                            {
                                                "children": [],
                                                "depth": 3,
                                                "id": 4,
                                                "order": 4
                                            },
                                            {
                                                "children": [],
                                                "depth": 3,
                                                "id": 5,
                                                "order": 5
                                            }
                                        ],
                                        "depth": 2,
                                        "id": 3,
                                        "order": 3
                                    },
                                    {
                                        "children": [
                                            {
                                                "children": [],
                                                "depth": 3,
                                                "id": 7,
                                                "order": 7
                                            }
                                        ],
                                        "depth": 2,
                                        "id": 6,
                                        "order": 6
                                    },
                                    {
                                        "children": [
                                            {
                                                "children": [],
                                                "depth": 3,
                                                "id": 12,
                                                "order": 12
                                            }
                                        ],
                                        "depth": 2,
                                        "id": 11,
                                        "order": 11
                                    },
                                    {
                                        "children": [
                                            {
                                                "children": [],
                                                "depth": 3,
                                                "id": 14,
                                                "order": 14
                                            }
                                        ],
                                        "depth": 2,
                                        "id": 13,
                                        "order": 13
                                    },
                                    {
                                        "children": [
                                            {
                                                "children": [],
                                                "depth": 3,
                                                "id": 16,
                                                "order": 16
                                            }
                                        ],
                                        "depth": 2,
                                        "id": 15,
                                        "order": 15
                                    }
                                ],
                                "depth": 1,
                                "id": 2,
                                "order": 2
                            }
                        ],
                        "depth": 0,
                        "id": 0,
                        "order": 0
                    }
                ],
                "depth": -1,
                "id": -1,
                "order": -1
            }
        ],
        "tidyTraceNodeCount": 14
    },
    "state_change": {
        "stateChanges": [
            {
                "address": "0x47f32f9ebfc49a1434eb6190d5d8a80a2dc36af5",
                "erc": "",
                "slots": [
                    {
                        "current": "0x000000000000000000000000000000000000000000000aef1f5ac7a7e3340000",
                        "key": "0x84d748921242f763c0cdb5ecd1c81491e973a2a2b926c943582eb451683707c5",
                        "prev": "0x000000000000000000000000000000000000000000000bd5d7383266c1b40000"
                    },
                    {
                        "current": "0x000000000000000000000000000000000000000000359244b8ab5a2cfe6cc000",
                        "key": "0xcac78ed8e5633a040b159dafc18cff88bce8afbb6e5066c280a0f4e4ba3a51e3",
                        "prev": "0x00000000000000000000000000000000000000000035915ecf872881fe24c000"
                    },
                    {
                        "current": "0x00000000000000000000000000000000000000000000282db59b874ab9528000",
                        "key": "0x55cdc58ee671e877d2a626c15f728605b9d09d466a0e6d2175816d0d5f38f310",
                        "prev": "0x00000000000000000000000000000000000000000000282ce6e24e36db1a8000"
                    }
                ],
                "storageVariables": []
            },
            {
                "address": "0x524b971b6e26a2e6993ff87275ba413f37a70d8a",
                "erc": "",
                "slots": [
                    {
                        "current": "0x0000000000000000000000000000000000000000000000e023282feddd2e0000",
                        "key": "0x46c5b122552253bc15c944fbe915ab4d5a458f284bca1902339ccfcffef0949d",
                        "prev": "0x0000000000000000000000000000000000000000000000dfad077d07150e0000"
                    },
                    {
                        "current": "0x0000000000000000000000000000000000000000000000ce2f0ab51f5b6f8000",
                        "key": "0x5e937d8de2b1d79ef5899c0a1ebfee4eedbc3831eac2997cba4a23e108c27c58",
                        "prev": "0x0000000000000000000000000000000000000000000000cdf3fa5babf75f8000"
                    },
                    {
                        "current": "0x0000000000000000000000000000000000000000000006876ff448c22cc34000",
                        "key": "0xbf6c0ce1e78093e328268d38c7a9db46b8f7a3dc44994da3c71a6c989e67df41",
                        "prev": "0x000000000000000000000000000000000000000000000687526c1c087abb4000"
                    }
                ],
                "storageVariables": []
            },
            {
                "address": "0x66c93a80719c6875206b7590eab13cd08acba300",
                "erc": "",
                "slots": [
                    {
                        "current": "0x0000000000000000000000000000000000000000000000e890603659ff000000",
                        "key": "0xe6c60687c8656fc7bdef2bbb02bd895fc79206f6a7bc7b0b61e8ea2a07c17166",
                        "prev": "0x0000000000000000000000000000000000000000000000000000000000000000"
                    },
                    {
                        "current": "0x000000000000000000000000000000000000000000000000000000005ce24652",
                        "key": "0xe6c60687c8656fc7bdef2bbb02bd895fc79206f6a7bc7b0b61e8ea2a07c17168",
                        "prev": "0x000000000000000000000000000000000000000000000000000000005ce10120"
                    },
                    {
                        "current": "0x0000000000000000000000000000000000000000000e7fa38d0978b01e3c0000",
                        "key": "0x000000000000000000000000000000000000000000000000000000000000000b",
                        "prev": "0x0000000000000000000000000000000000000000000e7ebcd52c0df13fbc0000"
                    },
                    {
                        "current": "0x000000000000000000000000000000000000000000006b43ce25b6ddbcc00000",
                        "key": "0xe6c60687c8656fc7bdef2bbb02bd895fc79206f6a7bc7b0b61e8ea2a07c17165",
                        "prev": "0x000000000000000000000000000000000000000000006a5d16484c1ede400000"
                    }
                ],
                "storageVariables": []
            }
        ]
    }
}