{
    "balance_change": {
        "balanceChanges": [
            {
                "account": "0xe0f9e2796ee23ff7c6bfae9047561fbeaa28fc57",
                "assets": [
                    {
                        "address": "0xb5351d809062cf8e2238bbd2c54af905fb55e42d",
                        "amount": "5,000",
                        "iconUrl": "",
                        "isERC1155": false,
                        "isERC721": false,
                        "sign": false,
                        "value": ""
                    }
                ]
            },
            {
                "account": "0x288a4a88b59c720488d9492e35a5528817d8e10a",
                "assets": [
                    {
                        "address": "0xb5351d809062cf8e2238bbd2c54af905fb55e42d",
                        "amount": "5,000",
                        "iconUrl": "",
                        "isERC1155": false,
                        "isERC721": false,
                        "sign": true,
                        "value": ""
                    }
                ]
            }
        ]
    },
    "profile": {
        "basic_info": {
            "baseFee": "",
            "blockNumber": 6457977,
            "callData": "0xa9059cbb000000000000000000000000288a4a88b59c720488d9492e35a5528817d8e10a00000000000000000000000000000000000000000000010f0cf064dd59200000",
            "debugEnable": true,
            "errorInfo": "",
            "eventCount": 1,
            "feeRecipient": "0x5a0b54d5dc17e0aadc383d2db43b0a0d3e029c4c",
            "formatValue": "0",
            "gasLimit": 60000,
            "gasPrice": "5",
            "gasUsed": 22052,
            "intTxnCount": 0,
            "internalRevert": false,
            "internalRevertMessage": "",
            "isContractCreation": false,
            "isFlashloan": false,
            "maxFee": "",
            "nonce": 6,
            "overwritedBlockNumber": -1,
            "priorityFee": "",
            "receiver": "0xb5351d809062cf8e2238bbd2c54af905fb55e42d",
            "revertMessage": "",
            "sender": "0xe0f9e2796ee23ff7c6bfae9047561fbeaa28fc57",
            "simulationEnable": true,
            "sourceTxnHash": "0xe74315316f01aabba6043d4c015760638db3610d0ec8ea4f6ed3c3098f975444",
            "status": true,
            "timestamp": "2018-10-05T12:31:22Z",
            "transactionFee": "0.00011026",
            "txnHash": "0xe74315316f01aabba6043d4c015760638db3610d0ec8ea4f6ed3c3098f975444",
            "txnIndex": 110,
            "type": 0,
            "value": "0"
        },
        "fund_flow": [
            {
                "amount": "5,000",
                "from": "0xe0f9e2796ee23ff7c6bfae9047561fbeaa28fc57",
                "id": 1,
                "isERC1155": false,
                "isERC721": false,
                "isReverted": false,
                "order": 1,
                "to": "0x288a4a88b59c720488d9492e35a5528817d8e10a",
                "token": "0xb5351d809062cf8e2238bbd2c54af905fb55e42d"
            }
        ],
        "token_infos": [
            {
                "address": "0xb5351d809062cf8e2238bbd2c54af905fb55e42d",
                "decimals": 18
            },
            {
                "address": "0xc02aaa39b223fe8d0a0e5c4f27ead9083c756cc2",
                "decimals": 18
            },
            {
                "address": "0xeeeeeeeeeeeeeeeeeeeeeeeeeeeeeeeeeeeeeeee",
                "decimals": 18
            }
        ]
    },
    "address_label": {
        "labels": [
            {
                "address": "0x0000000000000000000000000000000000000004",
                "label": "Precompiled"
            },
            {
                "address": "0xeeeeeeeeeeeeeeeeeeeeeeeeeeeeeeeeeeeeeeee",
                "label": "Ether"
            },
            {
                "address": "0xb5351d809062cf8e2238bbd2c54af905fb55e42d",
                "label": "WooshCoin (XWO)"
            },
            {
                "address": "0x0000000000000000000000000000000000000001",
                "label": "Precompiled"
            },
            {
                "address": "0x0000000000000000000000000000000000000002",
                "label": "Precompiled"
            },
            {
                "address": "0x0000000000000000000000000000000000000003",
                "label": "Precompiled"
            }
        ]
    },
    "trace": {
        "accountLabels": null,
        "dataMap": {
            "-1": {
                "invocation": {
                    "address": "0xe0f9e2796ee23ff7c6bfae9047561fbeaa28fc57",
                    "callData": "",
                    "decodedMethod": null,
                    "errorInfo": "",
                    "fromAddress": "",
                    "gasUsed": 0,
                    "id": -1,
                    "methodDecoded": false,
                    "operation": "",
                    "output": "",
                    "revert": false,
                    "revertMessage": "",
                    "selector": "",
                    "status": false,
                    "value": ""
                },
                "nodeType": 0
            },
            "0": {
                "invocation": {
                    "address": "0xb5351d809062cf8e2238bbd2c54af905fb55e42d",
                    "callData": "0x000000000000000000000000288a4a88b59c720488d9492e35a5528817d8e10a00000000000000000000000000000000000000000000010f0cf064dd59200000",
                    "decodedMethod": {
                        "callParams": [
                            {
                                "name": "_to",
                                "type": "address",
                                "value": "0x288a4a88b59c720488d9492e35a5528817d8e10a"
                            },
                            {
                                "decimalAvailable": true,
                                "name": "_value",
                                "type": "uint256",
                                "value": "5,000,000,000,000,000,000,000"
                            }
                        ],
                        "constructorArguments": "",
                        "name": "transfer",
                        "returnParams": [
                            {
                                "name": "",
                                "type": "bool",
                                "value": true
                            }
                        ],
                        "signature": "transfer(address,uint256)"
                    },
                    "errorInfo": "",
                    "fromAddress": "0xe0f9e2796ee23ff7c6bfae9047561fbeaa28fc57",
                    "gasUsed": 22052,
                    "id": 0,
                    "methodDecoded": true,
                    "operation": "CALL",
                    "output": "0x0000000000000000000000000000000000000000000000000000000000000001",
                    "revert": false,
                    "revertMessage": "",
                    "selector": "0xa9059cbb",
                    "status": true,
                    "value": "0"
                },
                "nodeType": 0
            },
            "1": {
                "event": {
                    "contract": "0xb5351d809062cf8e2238bbd2c54af905fb55e42d",
                    "decodedLog": {
                        "name": "Transfer",
                        "params": [
                            {
                                "name": "from",
                                "type": "address",
                                "value": "0xe0f9e2796ee23ff7c6bfae9047561fbeaa28fc57"
                            },
                            {
                                "name": "to",
                                "type": "address",
                                "value": "0x288a4a88b59c720488d9492e35a5528817d8e10a"
                            },
                            {
                                "decimalAvailable": true,
                                "name": "value",
                                "type": "uint256",
                                "value": "5,000,000,000,000,000,000,000"
                            }
                        ],
                        "signature": "Transfer(address,address,uint256)"
                    },
                    "id": 1,
                    "logData": "0x00000000000000000000000000000000000000000000010f0cf064dd59200000",
                    "logDecoded": true,
                    "operation": "EVENT",
                    "revert": false,
                    "status": true,
                    "topics": [
                        "0xddf252ad1be2c89b69c2b068fc378daa952ba7f163c4a11628f55a4df523b3ef",
                        "0x000000000000000000000000e0f9e2796ee23ff7c6bfae9047561fbeaa28fc57",
                        "0x000000000000000000000000288a4a88b59c720488d9492e35a5528817d8e10a"
                    ]
                },
                "nodeType": 1
            }
        },
        "gasFlame": [
            {
                "children": [
                    {
                        "children": [
                            {
                                "children": [],
                                "depth": 0,
                                "name": "Initial Gas",
                                "value": 23320
                            },
                            {
                                "children": [],
                                "depth": 0,
                                "name": "Executed Gas",
                                "value": 13732
                            }
                        ],
                        "depth": -1,
                        "name": "Actual Gas Used",
                        "value": 22052
                    },
                    {
                        "children": [],
                        "depth": -1,
                        "name": "Refunded Gas",
                        "value": 15000
                    }
                ],
                "depth": -2,
                "name": "Total Gas",
                "value": 37052
            }
        ],
        "isConfirmed": true,
        "mainTrace": [
            {
                "children": [
                    {
                        "children": [
                            {
                                "children": [],
                                "depth": 1,
                                "id": 1,
                                "order": 1
                            }
                        ],
                        "depth": 0,
                        "id": 0,
                        "order": 0
                    }
                ],
                "depth": -1,
                "id": -1,
                "order": -1
            }
        ],
        "mainTraceNodeCount": 2,
        "parentIdMap": {
            "0": -1,
            "1": 0
        },
        "tidyTrace": [
            {
                "children": [
                    {
                        "children": [
                            {
                                "children": [],
                                "depth": 1,
                                "id": 1,
                                "order": 1
                            }
                        ],
                        "depth": 0,
                        "id": 0,
                        "order": 0
                    }
                ],
                "depth": -1,
                "id": -1,
                "order": -1
            }
        ],
        "tidyTraceNodeCount": 2
    },
    "state_change": {
        "stateChanges": [
            {
                "address": "0xb5351d809062cf8e2238bbd2c54af905fb55e42d",
                "erc": "ERC-20",
                "slots": [
                    {
                        "current": "0x0000000000000000000000000000000000000000000000000000000000000000",
                        "key": "0x7c8e954373371338e7a969dbd5cfd9600b9729bb4a5a8ed33ee238783782cc3d",
                        "prev": "0x00000000000000000000000000000000000000000000010f0cf064dd59200000"
                    },
                    {
                        "current": "0x00000000000000000000000000000000000000000000043c33c1937564800000",
                        "key": "0x1ae2034b8f4d10adad064d75d80e38c182f2d409b992b2731be0c9ddeb213ee5",
                        "prev": "0x00000000000000000000000000000000000000000000032d26d12e980b600000"
                    }
                ],
                "storageVariables": [
                    {
                        "name": "balances",
                        "type": "mapping(address => uint256)",
                        "value": {
                            "pairs": [
                                {
                                    "key": "0x288a4a88b59c720488d9492e35a5528817d8e10a",
                                    "value": {
                                        "current": "20000000000000000000000",
                                        "prev": "15000000000000000000000",
                                        "typeTag": 1
                                    }
                                },
                                {
                                    "key": "0xe0f9e2796ee23ff7c6bfae9047561fbeaa28fc57",
                                    "value": {
                                        "current": "0",
                                        "prev": "5000000000000000000000",
                                        "typeTag": 1
                                    }
                                }
                            ],
                            "typeTag": 4
                        }
                    }
                ]
            }
        ]
    }
}