{
    "balance_change": {
        "balanceChanges": []
    },
    "profile": {
        "basic_info": {
            "baseFee": "20.688917853",
            "blockNumber": 17035399,
            "callData": "0x671a25590000000000000000000000000000000000000000000000000000000000000080000000000000000000000000000000000000000000000000000000000000014000000000000000000000000000000000000000000000000000000000000001a0000000000000000000000000000000000000000000000000000000000000020000000000000000000000000000000000000000000000000000000000000000a000000000000000000000000000000000000000000000000000000000000000600000000000000000000000000000000000000000000000000c7d713b49da0000000000000000000000000000eeeeeeeeeeeeeeeeeeeeeeeeeeeeeeeeeeeeeeee000000000000000000000000000000000000000000000000000000000000000e44433331423938324241443044350000000000000000000000000000000000000000000000000000000000000000000000000000000000000000000000000002000000000000000000000000000000000000000000000000000000000000000000000000000000000000000000000000000000000000000000000000000000000000000000000000000000000000000000000000000000000000000000000002f6323bb71df9f7e6f572fd0c6fc10e3738f7a1a4557544be8974a5dbcec1955e1e1066bac66218451b185d509e2253436f70b1be48fa478633e244febf535faf0000000000000000000000000000000000000000000000000000000000000002440d8109c2815267bbd3f2df60d90404cf623fc3df381bca3c9061cd81a7fc616ca84ab4b49606c7ecc01ff469d5a58e58cdce289e2908fd9439a508a95d725a",
            "debugEnable": true,
            "errorInfo": "",
            "eventCount": 1,
            "feeRecipient": "0x5f927395213ee6b95de97bddcb1b2b1c0f16844f",
            "formatValue": "0",
            "gasLimit": 67410,
            "gasPrice": "20.782917853",
            "gasUsed": 67410,
            "intTxnCount": 2,
            "internalRevert": false,
            "internalRevertMessage": "",
            "isContractCreation": false,
            "isFlashloan": false,
            "maxFee": "38.87907429",
            "nonce": 39794,
            "overwritedBlockNumber": -1,
            "priorityFee": "0.094",
            "receiver": "0xe5ac8183e4c740432ee14265a13b829f2cb823a2",
            "revertMessage": "",
            "sender": "0x154421b5abfd5fc12b16715e91d564aa47c8ddee",
            "simulationEnable": true,
            "sourceTxnHash": "0xe7fb5963ccc76b2aad37580aa91e0e6cc9fce8f5e5b88cfd0a3bcb4fd6792fcb",
            "status": true,
            "timestamp": "2023-04-13T00:33:11Z",
            "transactionFee": "0.00140097649247073",
            "txnHash": "0xe7fb5963ccc76b2aad37580aa91e0e6cc9fce8f5e5b88cfd0a3bcb4fd6792fcb",
            "txnIndex": 121,
            "type": 2,
            "value": "0"
        },
        "fund_flow": [],
        "token_infos": [
            {
                "address": "0xc02aaa39b223fe8d0a0e5c4f27ead9083c756cc2",
                "decimals": 18
            },
            {
                "address": "0xeeeeeeeeeeeeeeeeeeeeeeeeeeeeeeeeeeeeeeee",
                "decimals": 18
            }
        ]
    },
    "address_label": {
        "labels": [
            {
                "address": "0xeeeeeeeeeeeeeeeeeeeeeeeeeeeeeeeeeeeeeeee",
                "label": "Ether"
            },
            {
                "address": "0x0000000000000000000000000000000000000001",
                "label": "Precompiled"
            },
            {
                "address": "0x0000000000000000000000000000000000000002",
                "label": "Precompiled"
            },
            {
                "address": "0x0000000000000000000000000000000000000003",
                "label": "Precompiled"
            },
            {
                "address": "0x0000000000000000000000000000000000000004",
                "label": "Precompiled"
            }
        ]
    },
    "trace": {
        "accountLabels": null,
        "dataMap": {
            "-1": {
                "invocation": {
                    "address": "0x154421b5abfd5fc12b16715e91d564aa47c8ddee",
                    "callData": "",
                    "decodedMethod": null,
                    "errorInfo": "",
                    "fromAddress": "",
                    "gasUsed": 0,
                    "id": -1,
                    "methodDecoded": false,
                    "operation": "",
                    "output": "",
                    "revert": false,
                    "revertMessage": "",
                    "selector": "",
                    "status": false,
                    "value": ""
                },
                "nodeType": 0
            },
            "0": {
                "invocation": {
                    "address": "0xe5ac8183e4c740432ee14265a13b829f2cb823a2",
                    "callData": "0x0000000000000000000000000000000000000000000000000000000000000080000000000000000000000000000000000000000000000000000000000000014000000000000000000000000000000000000000000000000000000000000001a0000000000000000000000000000000000000000000000000000000000000020000000000000000000000000000000000000000000000000000000000000000a000000000000000000000000000000000000000000000000000000000000000600000000000000000000000000000000000000000000000000c7d713b49da0000000000000000000000000000eeeeeeeeeeeeeeeeeeeeeeeeeeeeeeeeeeeeeeee000000000000000000000000000000000000000000000000000000000000000e44433331423938324241443044350000000000000000000000000000000000000000000000000000000000000000000000000000000000000000000000000002000000000000000000000000000000000000000000000000000000000000000000000000000000000000000000000000000000000000000000000000000000000000000000000000000000000000000000000000000000000000000000000002f6323bb71df9f7e6f572fd0c6fc10e3738f7a1a4557544be8974a5dbcec1955e1e1066bac66218451b185d509e2253436f70b1be48fa478633e244febf535faf0000000000000000000000000000000000000000000000000000000000000002440d8109c2815267bbd3f2df60d90404cf623fc3df381bca3c9061cd81a7fc616ca84ab4b49606c7ecc01ff469d5a58e58cdce289e2908fd9439a508a95d725a",
                    "decodedMethod": {
                        "callParams": [
                            {
                                "name": "borrowInfoBytes",
                                "type": "bytes",
                                "value": "0x00000000000000000000000000000000000000000000000000000000000000600000000000000000000000000000000000000000000000000c7d713b49da0000000000000000000000000000eeeeeeeeeeeeeeeeeeeeeeeeeeeeeeeeeeeeeeee000000000000000000000000000000000000000000000000000000000000000e4443333142393832424144304435000000000000000000000000000000000000"
                            },
                            {
                                "name": "vs",
                                "type": "uint8[]",
                                "value": [
                                    "0",
                                    "0"
                                ]
                            },
                            {
                                "name": "rs",
                                "type": "bytes32[]",
                                "value": [
                                    "0xf6323bb71df9f7e6f572fd0c6fc10e3738f7a1a4557544be8974a5dbcec1955e",
                                    "0x1e1066bac66218451b185d509e2253436f70b1be48fa478633e244febf535faf"
                                ]
                            },
                            {
                                "name": "ss",
                                "type": "bytes32[]",
                                "value": [
                                    "0x440d8109c2815267bbd3f2df60d90404cf623fc3df381bca3c9061cd81a7fc61",
                                    "0x6ca84ab4b49606c7ecc01ff469d5a58e58cdce289e2908fd9439a508a95d725a"
                                ]
                            }
                        ],
                        "constructorArguments": "",
                        "name": "setBorrowInfo",
                        "returnParams": [],
                        "signature": "setBorrowInfo(bytes,uint8[],bytes32[],bytes32[])"
                    },
                    "errorInfo": "",
                    "fromAddress": "0x154421b5abfd5fc12b16715e91d564aa47c8ddee",
                    "gasUsed": 67410,
                    "id": 0,
                    "methodDecoded": true,
                    "operation": "CALL",
                    "output": "",
                    "revert": false,
                    "revertMessage": "",
                    "selector": "0x671a2559",
                    "status": true,
                    "value": "0"
                },
                "nodeType": 0
            },
            "1": {
                "invocation": {
                    "address": "0x0000000000000000000000000000000000000001",
                    "callData": "0x4350c8a09fe8c67f8f4179c4948fe9c8d09f4265e2be2b85c95bd3d4000000000000000000000000000000000000000000000000000000000000001bf6323bb71df9f7e6f572fd0c6fc10e3738f7a1a4557544be8974a5dbcec1955e440d8109c2815267bbd3f2df60d90404cf623fc3df381bca3c9061cd81a7fc61",
                    "decodedMethod": {
                        "callParams": [
                            {
                                "name": "hash",
                                "type": "bytes32",
                                "value": "0xa5ebd3494350c8a09fe8c67f8f4179c4948fe9c8d09f4265e2be2b85c95bd3d4"
                            },
                            {
                                "name": "v",
                                "type": "uint256",
                                "value": "27"
                            },
                            {
                                "name": "r",
                                "type": "bytes32",
                                "value": "0xf6323bb71df9f7e6f572fd0c6fc10e3738f7a1a4557544be8974a5dbcec1955e"
                            },
                            {
                                "name": "s",
                                "type": "bytes32",
                                "value": "0x440d8109c2815267bbd3f2df60d90404cf623fc3df381bca3c9061cd81a7fc61"
                            }
                        ],
                        "constructorArguments": "",
                        "name": "ecrecover",
                        "returnParams": [
                            {
                                "name": "",
                                "type": "address",
                                "value": "0x13419edf1268725e620a3916eeb37863580a0d90"
                            }
                        ],
                        "signature": "ecrecover(bytes32,uint256,bytes32,bytes32)"
                    },
                    "errorInfo": "",
                    "fromAddress": "0xe5ac8183e4c740432ee14265a13b829f2cb823a2",
                    "gasUsed": 3000,
                    "id": 1,
                    "methodDecoded": true,
                    "operation": "STATICCALL",
                    "output": "0x00000000000000000000000013419edf1268725e620a3916eeb37863580a0d90",
                    "revert": false,
                    "revertMessage": "",
                    "selector": "0xa5ebd349",
                    "status": true,
                    "value": "0"
                },
                "nodeType": 0
            },
            "2": {
                "invocation": {
                    "address": "0x0000000000000000000000000000000000000001",
                    "callData": "0x4350c8a09fe8c67f8f4179c4948fe9c8d09f4265e2be2b85c95bd3d4000000000000000000000000000000000000000000000000000000000000001b1e1066bac66218451b185d509e2253436f70b1be48fa478633e244febf535faf6ca84ab4b49606c7ecc01ff469d5a58e58cdce289e2908fd9439a508a95d725a",
                    "decodedMethod": {
                        "callParams": [
                            {
                                "name": "hash",
                                "type": "bytes32",
                                "value": "0xa5ebd3494350c8a09fe8c67f8f4179c4948fe9c8d09f4265e2be2b85c95bd3d4"
                            },
                            {
                                "name": "v",
                                "type": "uint256",
                                "value": "27"
                            },
                            {
                                "name": "r",
                                "type": "bytes32",
                                "value": "0x1e1066bac66218451b185d509e2253436f70b1be48fa478633e244febf535faf"
                            },
                            {
                                "name": "s",
                                "type": "bytes32",
                                "value": "0x6ca84ab4b49606c7ecc01ff469d5a58e58cdce289e2908fd9439a508a95d725a"
                            }
                        ],
                        "constructorArguments": "",
                        "name": "ecrecover",
                        "returnParams": [
                            {
                                "name": "",
                                "type": "address",
                                "value": "0xfc3a782e4757d419e257cb0c1bb51b462fd877b8"
                            }
                        ],
                        "signature": "ecrecover(bytes32,uint256,bytes32,bytes32)"
                    },
                    "errorInfo": "",
                    "fromAddress": "0xe5ac8183e4c740432ee14265a13b829f2cb823a2",
                    "gasUsed": 3000,
                    "id": 2,
                    "methodDecoded": true,
                    "operation": "STATICCALL",
                    "output": "0x000000000000000000000000fc3a782e4757d419e257cb0c1bb51b462fd877b8",
                    "revert": false,
                    "revertMessage": "",
                    "selector": "0xa5ebd349",
                    "status": true,
                    "value": "0"
                },
                "nodeType": 0
            },
            "3": {
                "event": {
                    "contract": "0xe5ac8183e4c740432ee14265a13b829f2cb823a2",
                    "decodedLog": {
                        "name": "BorrowInfoUpdated",
                        "params": [
                            {
                                "name": "newInfo",
                                "type": "(string,uint256,address)",
                                "value": [
                                    {
                                        "name": "orderId",
                                        "type": "string",
                                        "value": "DC31B982BAD0D5"
                                    },
                                    {
                                        "name": "borrowAmount",
                                        "type": "uint256",
                                        "value": "900,000,000,000,000,000"
                                    },
                                    {
                                        "name": "tokenAddress",
                                        "type": "address",
                                        "value": "0xeeeeeeeeeeeeeeeeeeeeeeeeeeeeeeeeeeeeeeee"
                                    }
                                ]
                            }
                        ],
                        "signature": "BorrowInfoUpdated((string,uint256,address))"
                    },
                    "id": 3,
                    "logData": "0x000000000000000000000000000000000000000000000000000000000000002000000000000000000000000000000000000000000000000000000000000000600000000000000000000000000000000000000000000000000c7d713b49da0000000000000000000000000000eeeeeeeeeeeeeeeeeeeeeeeeeeeeeeeeeeeeeeee000000000000000000000000000000000000000000000000000000000000000e4443333142393832424144304435000000000000000000000000000000000000",
                    "logDecoded": true,
                    "operation": "EVENT",
                    "revert": false,
                    "status": true,
                    "topics": [
                        "0xf7d37d1c24bbb636c495aebcd31f0d18aeb7c19b77386cd2557115ddb183d898"
                    ]
                },
                "nodeType": 1
            }
        },
        "gasFlame": [
            {
                "children": [
                    {
                        "children": [
                            {
                                "children": [],
                                "depth": 0,
                                "name": "Initial Gas",
                                "value": 25656
                            },
                            {
                                "children": [
                                    {
                                        "children": [],
                                        "depth": 1,
                                        "name": "ecrecover",
                                        "value": 3000
                                    },
                                    {
                                        "children": [],
                                        "depth": 1,
                                        "name": "ecrecover",
                                        "value": 3000
                                    }
                                ],
                                "depth": 0,
                                "name": "Executed Gas",
                                "value": 41754
                            }
                        ],
                        "depth": -1,
                        "name": "Actual Gas Used",
                        "value": 67410
                    },
                    {
                        "children": [],
                        "depth": -1,
                        "name": "Refunded Gas",
                        "value": 0
                    }
                ],
                "depth": -2,
                "name": "Total Gas",
                "value": 67410
            }
        ],
        "isConfirmed": true,
        "mainTrace": [
            {
                "children": [
                    {
                        "children": [
                            {
                                "children": [],
                                "depth": 1,
                                "id": 1,
                                "order": 1
                            },
                            {
                                "children": [],
                                "depth": 1,
                                "id": 2,
                                "order": 2
                            },
                            {
                                "children": [],
                                "depth": 1,
                                "id": 3,
                                "order": 3
                            }
                        ],
                        "depth": 0,
                        "id": 0,
                        "order": 0
                    }
                ],
                "depth": -1,
                "id": -1,
                "order": -1
            }
        ],
        "mainTraceNodeCount": 4,
        "parentIdMap": {
            "0": -1,
            "1": 0,
            "2": 0,
            "3": 0
        },
        "tidyTrace": [
            {
                "children": [
                    {
                        "children": [
                            {
                                "children": [],
                                "depth": 1,
                                "id": 3,
                                "order": 3
                            }
                        ],
                        "depth": 0,
                        "id": 0,
                        "order": 0
                    }
                ],
                "depth": -1,
                "id": -1,
                "order": -1
            }
        ],
        "tidyTraceNodeCount": 2
    },
    "state_change": {
        "stateChanges": [
            {
                "address": "0xe5ac8183e4c740432ee14265a13b829f2cb823a2",
                "erc": "",
                "slots": [
                    {
                        "current": "0x0000000000000000000000000000000000000000000000000c7d713b49da0000",
                        "key": "0x0000000000000000000000000000000000000000000000000000000000000001",
                        "prev": "0x0000000000000000000000000000000000000000000000000de0b6b3a7640000"
                    },
                    {
                        "current": "0x0000000000000000000000000000000000000000000000000000000000000077",
                        "key": "0x0000000000000000000000000000000000000000000000000000000000000005",
                        "prev": "0x0000000000000000000000000000000000000000000000000000000000000076"
                    },
                    {
                        "current": "0x444333314239383242414430443500000000000000000000000000000000001c",
                        "key": "0x0000000000000000000000000000000000000000000000000000000000000000",
                        "prev": "0x444341314642334330453746393600000000000000000000000000000000001c"
                    }
                ],
                "storageVariables": []
            }
        ]
    }
}