{
    "balance_change": {
        "balanceChanges": [
            {
                "account": "0x6066150a2070cc165222141b47fd2ba0642b57a1",
                "assets": [
                    {
                        "address": "0xeeeeeeeeeeeeeeeeeeeeeeeeeeeeeeeeeeeeeeee",
                        "amount": "0.00005",
                        "iconUrl": "https://assets.blocksec.com/image/1663669189317-3.png",
                        "isERC1155": false,
                        "isERC721": false,
                        "sign": true,
                        "value": ""
                    }
                ]
            },
            {
                "account": "0x000000000000000000000000000000000000dead",
                "assets": [
                    {
                        "address": "0xeeeeeeeeeeeeeeeeeeeeeeeeeeeeeeeeeeeeeeee",
                        "amount": "0.00995",
                        "iconUrl": "https://assets.blocksec.com/image/1663669189317-3.png",
                        "isERC1155": false,
                        "isERC721": false,
                        "sign": true,
                        "value": ""
                    }
                ]
            },
            {
                "account": "0xce0b9fece131eb801d69f3ae2ce1977dc41eb9d6",
                "assets": [
                    {
                        "address": "0xeeeeeeeeeeeeeeeeeeeeeeeeeeeeeeeeeeeeeeee",
                        "amount": "0.01",
                        "iconUrl": "https://assets.blocksec.com/image/1663669189317-3.png",
                        "isERC1155": false,
                        "isERC721": false,
                        "sign": false,
                        "value": ""
                    }
                ]
            }
        ]
    },
    "profile": {
        "basic_info": {
            "baseFee": "",
            "blockNumber": 4049651,
            "callData": "0x15b6a3710000000000000000000000003d76632c403aabae9589431d51102b034d4a73a7cb920d4b63f568ee552d2c17e04e55b11472ff75c001d6693e6a5986438a4590",
            "debugEnable": true,
            "errorInfo": "",
            "eventCount": 3,
            "feeRecipient": "0xb2930b35844a230f00e51431acae96fe543a0347",
            "formatValue": "0",
            "gasLimit": 120000,
            "gasPrice": "0.60000001",
            "gasUsed": 49892,
            "intTxnCount": 8,
            "internalRevert": false,
            "internalRevertMessage": "",
            "isContractCreation": false,
            "isFlashloan": false,
            "maxFee": "",
            "nonce": 738,
            "overwritedBlockNumber": -1,
            "priorityFee": "",
            "receiver": "0x6066150a2070cc165222141b47fd2ba0642b57a1",
            "revertMessage": "",
            "sender": "0xdead365024ecc328fae42f92017ec907640faa18",
            "simulationEnable": true,
            "sourceTxnHash": "0xe7fad45b880bccadf2af299ca71c93d5e34f802241ee4bd5f069f16fa542cd2a",
            "status": true,
            "timestamp": "2017-07-20T18:42:33Z",
            "transactionFee": "0.00002993520049892",
            "txnHash": "0xe7fad45b880bccadf2af299ca71c93d5e34f802241ee4bd5f069f16fa542cd2a",
            "txnIndex": 9,
            "type": 0,
            "value": "0"
        },
        "fund_flow": [
            {
                "amount": "0.00995",
                "from": "0xce0b9fece131eb801d69f3ae2ce1977dc41eb9d6",
                "id": 1,
                "isERC1155": false,
                "isERC721": false,
                "isReverted": false,
                "order": 1,
                "to": "0x000000000000000000000000000000000000dead",
                "token": "0xeeeeeeeeeeeeeeeeeeeeeeeeeeeeeeeeeeeeeeee"
            },
            {
                "amount": "0.00005",
                "from": "0xce0b9fece131eb801d69f3ae2ce1977dc41eb9d6",
                "id": 2,
                "isERC1155": false,
                "isERC721": false,
                "isReverted": false,
                "order": 2,
                "to": "0x6066150a2070cc165222141b47fd2ba0642b57a1",
                "token": "0xeeeeeeeeeeeeeeeeeeeeeeeeeeeeeeeeeeeeeeee"
            }
        ],
        "token_infos": [
            {
                "address": "0xeeeeeeeeeeeeeeeeeeeeeeeeeeeeeeeeeeeeeeee",
                "decimals": 18
            },
            {
                "address": "0xc02aaa39b223fe8d0a0e5c4f27ead9083c756cc2",
                "decimals": 18
            }
        ]
    },
    "address_label": {
        "labels": [
            {
                "address": "0xeeeeeeeeeeeeeeeeeeeeeeeeeeeeeeeeeeeeeeee",
                "label": "Ether"
            },
            {
                "address": "0x6090a6e47849629b7245dfa1ca21d94cd15878ef",
                "label": "ENS: Old Registrar"
            },
            {
                "address": "0x000000000000000000000000000000000000dead",
                "label": "Null: 0x00...dEaD"
            },
            {
                "address": "0xce0b9fece131eb801d69f3ae2ce1977dc41eb9d6",
                "label": "Deed"
            },
            {
                "address": "0x0000000000000000000000000000000000000001",
                "label": "Precompiled"
            },
            {
                "address": "0x0000000000000000000000000000000000000002",
                "label": "Precompiled"
            },
            {
                "address": "0x0000000000000000000000000000000000000003",
                "label": "Precompiled"
            },
            {
                "address": "0x0000000000000000000000000000000000000004",
                "label": "Precompiled"
            }
        ]
    },
    "trace": {
        "accountLabels": null,
        "dataMap": {
            "-1": {
                "invocation": {
                    "address": "0xdead365024ecc328fae42f92017ec907640faa18",
                    "callData": "",
                    "decodedMethod": null,
                    "errorInfo": "",
                    "fromAddress": "",
                    "gasUsed": 0,
                    "id": -1,
                    "methodDecoded": false,
                    "operation": "",
                    "output": "",
                    "revert": false,
                    "revertMessage": "",
                    "selector": "",
                    "status": false,
                    "value": ""
                },
                "nodeType": 0
            },
            "0": {
                "invocation": {
                    "address": "0x6066150a2070cc165222141b47fd2ba0642b57a1",
                    "callData": "0x0000000000000000000000003d76632c403aabae9589431d51102b034d4a73a7cb920d4b63f568ee552d2c17e04e55b11472ff75c001d6693e6a5986438a4590",
                    "decodedMethod": null,
                    "errorInfo": "",
                    "fromAddress": "0xdead365024ecc328fae42f92017ec907640faa18",
                    "gasUsed": 49892,
                    "id": 0,
                    "methodDecoded": false,
                    "operation": "CALL",
                    "output": "",
                    "revert": false,
                    "revertMessage": "",
                    "selector": "0x15b6a371",
                    "status": true,
                    "value": "0"
                },
                "nodeType": 0
            },
            "1": {
                "invocation": {
                    "address": "0x6090a6e47849629b7245dfa1ca21d94cd15878ef",
                    "callData": "0x0000000000000000000000003d76632c403aabae9589431d51102b034d4a73a7cb920d4b63f568ee552d2c17e04e55b11472ff75c001d6693e6a5986438a458f",
                    "decodedMethod": {
                        "callParams": [
                            {
                                "name": "",
                                "type": "address",
                                "value": "0x3d76632c403aabae9589431d51102b034d4a73a7"
                            },
                            {
                                "name": "",
                                "type": "bytes32",
                                "value": "0xcb920d4b63f568ee552d2c17e04e55b11472ff75c001d6693e6a5986438a458f"
                            }
                        ],
                        "constructorArguments": "",
                        "name": "sealedBids",
                        "returnParams": [
                            {
                                "name": "",
                                "type": "address",
                                "value": "0xce0b9fece131eb801d69f3ae2ce1977dc41eb9d6"
                            }
                        ],
                        "signature": "sealedBids(address,bytes32)"
                    },
                    "errorInfo": "",
                    "fromAddress": "0x6066150a2070cc165222141b47fd2ba0642b57a1",
                    "gasUsed": 1012,
                    "id": 1,
                    "methodDecoded": true,
                    "operation": "CALL",
                    "output": "0x000000000000000000000000ce0b9fece131eb801d69f3ae2ce1977dc41eb9d6",
                    "revert": false,
                    "revertMessage": "",
                    "selector": "0x5e431709",
                    "status": true,
                    "value": "0"
                },
                "nodeType": 0
            },
            "10": {
                "invocation": {
                    "address": "0x000000000000000000000000000000000000dead",
                    "callData": "",
                    "decodedMethod": null,
                    "errorInfo": "",
                    "fromAddress": "0xce0b9fece131eb801d69f3ae2ce1977dc41eb9d6",
                    "gasUsed": 0,
                    "id": 10,
                    "methodDecoded": false,
                    "operation": "SELFDESTRUCT",
                    "output": "",
                    "revert": false,
                    "revertMessage": "",
                    "selector": "",
                    "status": true,
                    "value": "0"
                },
                "nodeType": 0
            },
            "11": {
                "event": {
                    "contract": "0x6090a6e47849629b7245dfa1ca21d94cd15878ef",
                    "decodedLog": {
                        "name": "BidRevealed",
                        "params": [
                            {
                                "name": "hash",
                                "type": "bytes32",
                                "value": "0xcb920d4b63f568ee552d2c17e04e55b11472ff75c001d6693e6a5986438a458f"
                            },
                            {
                                "name": "owner",
                                "type": "address",
                                "value": "0x3d76632c403aabae9589431d51102b034d4a73a7"
                            },
                            {
                                "name": "value",
                                "type": "uint256",
                                "value": "0"
                            },
                            {
                                "name": "status",
                                "type": "uint8",
                                "value": "5"
                            }
                        ],
                        "signature": "BidRevealed(bytes32,address,uint256,uint8)"
                    },
                    "id": 11,
                    "logData": "0x00000000000000000000000000000000000000000000000000000000000000000000000000000000000000000000000000000000000000000000000000000005",
                    "logDecoded": true,
                    "operation": "EVENT",
                    "revert": false,
                    "status": true,
                    "topics": [
                        "0x7b6c4b278d165a6b33958f8ea5dfb00c8c9d4d0acf1985bef5d10786898bc3e7",
                        "0xcb920d4b63f568ee552d2c17e04e55b11472ff75c001d6693e6a5986438a458f",
                        "0x0000000000000000000000003d76632c403aabae9589431d51102b034d4a73a7"
                    ]
                },
                "nodeType": 1
            },
            "2": {
                "invocation": {
                    "address": "0x6090a6e47849629b7245dfa1ca21d94cd15878ef",
                    "callData": "0x0000000000000000000000003d76632c403aabae9589431d51102b034d4a73a7cb920d4b63f568ee552d2c17e04e55b11472ff75c001d6693e6a5986438a458f",
                    "decodedMethod": {
                        "callParams": [
                            {
                                "name": "bidder",
                                "type": "address",
                                "value": "0x3d76632c403aabae9589431d51102b034d4a73a7"
                            },
                            {
                                "name": "seal",
                                "type": "bytes32",
                                "value": "0xcb920d4b63f568ee552d2c17e04e55b11472ff75c001d6693e6a5986438a458f"
                            }
                        ],
                        "constructorArguments": "",
                        "name": "cancelBid",
                        "returnParams": [],
                        "signature": "cancelBid(address,bytes32)"
                    },
                    "errorInfo": "",
                    "fromAddress": "0x6066150a2070cc165222141b47fd2ba0642b57a1",
                    "gasUsed": 69820,
                    "id": 2,
                    "methodDecoded": true,
                    "operation": "CALL",
                    "output": "",
                    "revert": false,
                    "revertMessage": "",
                    "selector": "0x2525f5c1",
                    "status": true,
                    "value": "0"
                },
                "nodeType": 0
            },
            "3": {
                "invocation": {
                    "address": "0xce0b9fece131eb801d69f3ae2ce1977dc41eb9d6",
                    "callData": "0x",
                    "decodedMethod": {
                        "callParams": [],
                        "constructorArguments": "",
                        "name": "creationDate",
                        "returnParams": [
                            {
                                "name": "",
                                "type": "uint256",
                                "value": "1,498,934,199"
                            }
                        ],
                        "signature": "creationDate()"
                    },
                    "errorInfo": "",
                    "fromAddress": "0x6090a6e47849629b7245dfa1ca21d94cd15878ef",
                    "gasUsed": 436,
                    "id": 3,
                    "methodDecoded": true,
                    "operation": "CALL",
                    "output": "0x000000000000000000000000000000000000000000000000000000005957ebb7",
                    "revert": false,
                    "revertMessage": "",
                    "selector": "0x05b34410",
                    "status": true,
                    "value": "0"
                },
                "nodeType": 0
            },
            "4": {
                "invocation": {
                    "address": "0xce0b9fece131eb801d69f3ae2ce1977dc41eb9d6",
                    "callData": "0x0000000000000000000000006066150a2070cc165222141b47fd2ba0642b57a1",
                    "decodedMethod": {
                        "callParams": [
                            {
                                "name": "newOwner",
                                "type": "address",
                                "value": "0x6066150a2070cc165222141b47fd2ba0642b57a1"
                            }
                        ],
                        "constructorArguments": "",
                        "name": "setOwner",
                        "returnParams": [],
                        "signature": "setOwner(address)"
                    },
                    "errorInfo": "",
                    "fromAddress": "0x6090a6e47849629b7245dfa1ca21d94cd15878ef",
                    "gasUsed": 27328,
                    "id": 4,
                    "methodDecoded": true,
                    "operation": "CALL",
                    "output": "",
                    "revert": false,
                    "revertMessage": "",
                    "selector": "0x13af4035",
                    "status": true,
                    "value": "0"
                },
                "nodeType": 0
            },
            "5": {
                "event": {
                    "contract": "0xce0b9fece131eb801d69f3ae2ce1977dc41eb9d6",
                    "decodedLog": {
                        "name": "OwnerChanged",
                        "params": [
                            {
                                "name": "newOwner",
                                "type": "address",
                                "value": "0x6066150a2070cc165222141b47fd2ba0642b57a1"
                            }
                        ],
                        "signature": "OwnerChanged(address)"
                    },
                    "id": 5,
                    "logData": "0x0000000000000000000000006066150a2070cc165222141b47fd2ba0642b57a1",
                    "logDecoded": true,
                    "operation": "EVENT",
                    "revert": false,
                    "status": true,
                    "topics": [
                        "0xa2ea9883a321a3e97b8266c2b078bfeec6d50c711ed71f874a90d500ae2eaf36"
                    ]
                },
                "nodeType": 1
            },
            "6": {
                "invocation": {
                    "address": "0xce0b9fece131eb801d69f3ae2ce1977dc41eb9d6",
                    "callData": "0x0000000000000000000000000000000000000000000000000000000000000005",
                    "decodedMethod": {
                        "callParams": [
                            {
                                "name": "refundRatio",
                                "type": "uint256",
                                "value": "5"
                            }
                        ],
                        "constructorArguments": "",
                        "name": "closeDeed",
                        "returnParams": [],
                        "signature": "closeDeed(uint256)"
                    },
                    "errorInfo": "",
                    "fromAddress": "0x6090a6e47849629b7245dfa1ca21d94cd15878ef",
                    "gasUsed": 28333,
                    "id": 6,
                    "methodDecoded": true,
                    "operation": "CALL",
                    "output": "",
                    "revert": false,
                    "revertMessage": "",
                    "selector": "0xbbe42771",
                    "status": true,
                    "value": "0"
                },
                "nodeType": 0
            },
            "7": {
                "invocation": {
                    "address": "0x000000000000000000000000000000000000dead",
                    "callData": "0x",
                    "decodedMethod": null,
                    "errorInfo": "",
                    "fromAddress": "0xce0b9fece131eb801d69f3ae2ce1977dc41eb9d6",
                    "gasUsed": 0,
                    "id": 7,
                    "methodDecoded": false,
                    "operation": "CALL",
                    "output": "",
                    "revert": false,
                    "revertMessage": "",
                    "selector": "fallback",
                    "status": true,
                    "value": "0.00995"
                },
                "nodeType": 0
            },
            "8": {
                "event": {
                    "contract": "0xce0b9fece131eb801d69f3ae2ce1977dc41eb9d6",
                    "decodedLog": {
                        "name": "DeedClosed",
                        "params": [],
                        "signature": "DeedClosed()"
                    },
                    "id": 8,
                    "logData": "0x",
                    "logDecoded": true,
                    "operation": "EVENT",
                    "revert": false,
                    "status": true,
                    "topics": [
                        "0xbb2ce2f51803bba16bc85282b47deeea9a5c6223eabea1077be696b3f265cf13"
                    ]
                },
                "nodeType": 1
            },
            "9": {
                "invocation": {
                    "address": "0x6066150a2070cc165222141b47fd2ba0642b57a1",
                    "callData": "0x",
                    "decodedMethod": null,
                    "errorInfo": "",
                    "fromAddress": "0xce0b9fece131eb801d69f3ae2ce1977dc41eb9d6",
                    "gasUsed": 51,
                    "id": 9,
                    "methodDecoded": false,
                    "operation": "CALL",
                    "output": "",
                    "revert": false,
                    "revertMessage": "",
                    "selector": "fallback",
                    "status": true,
                    "value": "0.00005"
                },
                "nodeType": 0
            }
        },
        "gasFlame": [
            {
                "children": [
                    {
                        "children": [
                            {
                                "children": [],
                                "depth": 0,
                                "name": "Initial Gas",
                                "value": 24856
                            },
                            {
                                "children": [
                                    {
                                        "children": [],
                                        "depth": 1,
                                        "name": "sealedBids",
                                        "value": 1012
                                    },
                                    {
                                        "children": [
                                            {
                                                "children": [],
                                                "depth": 2,
                                                "name": "creationDate",
                                                "value": 436
                                            },
                                            {
                                                "children": [],
                                                "depth": 2,
                                                "name": "setOwner",
                                                "value": 27328
                                            },
                                            {
                                                "children": [
                                                    {
                                                        "children": [],
                                                        "depth": 3,
                                                        "name": "fallback",
                                                        "value": 0
                                                    },
                                                    {
                                                        "children": [],
                                                        "depth": 3,
                                                        "name": "fallback",
                                                        "value": 51
                                                    },
                                                    {
                                                        "children": [],
                                                        "depth": 3,
                                                        "name": "",
                                                        "value": 0
                                                    }
                                                ],
                                                "depth": 2,
                                                "name": "closeDeed",
                                                "value": 28333
                                            }
                                        ],
                                        "depth": 1,
                                        "name": "cancelBid",
                                        "value": 69820
                                    }
                                ],
                                "depth": 0,
                                "name": "Executed Gas",
                                "value": 74928
                            }
                        ],
                        "depth": -1,
                        "name": "Actual Gas Used",
                        "value": 49892
                    },
                    {
                        "children": [],
                        "depth": -1,
                        "name": "Refunded Gas",
                        "value": 49892
                    }
                ],
                "depth": -2,
                "name": "Total Gas",
                "value": 99784
            }
        ],
        "isConfirmed": true,
        "mainTrace": [
            {
                "children": [
                    {
                        "children": [
                            {
                                "children": [],
                                "depth": 1,
                                "id": 1,
                                "order": 1
                            },
                            {
                                "children": [
                                    {
                                        "children": [],
                                        "depth": 2,
                                        "id": 3,
                                        "order": 3
                                    },
                                    {
                                        "children": [
                                            {
                                                "children": [],
                                                "depth": 3,
                                                "id": 5,
                                                "order": 5
                                            }
                                        ],
                                        "depth": 2,
                                        "id": 4,
                                        "order": 4
                                    },
                                    {
                                        "children": [
                                            {
                                                "children": [],
                                                "depth": 3,
                                                "id": 7,
                                                "order": 7
                                            },
                                            {
                                                "children": [],
                                                "depth": 3,
                                                "id": 8,
                                                "order": 8
                                            },
                                            {
                                                "children": [],
                                                "depth": 3,
                                                "id": 9,
                                                "order": 9
                                            },
                                            {
                                                "children": [],
                                                "depth": 3,
                                                "id": 10,
                                                "order": 10
                                            }
                                        ],
                                        "depth": 2,
                                        "id": 6,
                                        "order": 6
                                    },
                                    {
                                        "children": [],
                                        "depth": 2,
                                        "id": 11,
                                        "order": 11
                                    }
                                ],
                                "depth": 1,
                                "id": 2,
                                "order": 2
                            }
                        ],
                        "depth": 0,
                        "id": 0,
                        "order": 0
                    }
                ],
                "depth": -1,
                "id": -1,
                "order": -1
            }
        ],
        "mainTraceNodeCount": 12,
        "parentIdMap": {
            "0": -1,
            "1": 0,
            "10": 6,
            "11": 2,
            "2": 0,
            "3": 2,
            "4": 2,
            "5": 4,
            "6": 2,
            "7": 6,
            "8": 6,
            "9": 6
        },
        "tidyTrace": [
            {
                "children": [
                    {
                        "children": [
                            {
                                "children": [],
                                "depth": 1,
                                "id": 1,
                                "order": 1
                            },
                            {
                                "children": [
                                    {
                                        "children": [],
                                        "depth": 2,
                                        "id": 3,
                                        "order": 3
                                    },
                                    {
                                        "children": [
                                            {
                                                "children": [],
                                                "depth": 3,
                                                "id": 5,
                                                "order": 5
                                            }
                                        ],
                                        "depth": 2,
                                        "id": 4,
                                        "order": 4
                                    },
                                    {
                                        "children": [
                                            {
                                                "children": [],
                                                "depth": 3,
                                                "id": 7,
                                                "order": 7
                                            },
                                            {
                                                "children": [],
                                                "depth": 3,
                                                "id": 8,
                                                "order": 8
                                            },
                                            {
                                                "children": [],
                                                "depth": 3,
                                                "id": 9,
                                                "order": 9
                                            },
                                            {
                                                "children": [],
                                                "depth": 3,
                                                "id": 10,
                                                "order": 10
                                            }
                                        ],
                                        "depth": 2,
                                        "id": 6,
                                        "order": 6
                                    },
                                    {
                                        "children": [],
                                        "depth": 2,
                                        "id": 11,
                                        "order": 11
                                    }
                                ],
                                "depth": 1,
                                "id": 2,
                                "order": 2
                            }
                        ],
                        "depth": 0,
                        "id": 0,
                        "order": 0
                    }
                ],
                "depth": -1,
                "id": -1,
                "order": -1
            }
        ],
        "tidyTraceNodeCount": 12
    },
    "state_change": {
        "stateChanges": [
            {
                "address": "0x6090a6e47849629b7245dfa1ca21d94cd15878ef",
                "erc": "",
                "slots": [
                    {
                        "current": "0x0000000000000000000000000000000000000000000000000000000000000000",
                        "key": "0x45e07c7af2179c1846efa45ed1888d41976c014ba9ac3a6855b41148e9d021d7",
                        "prev": "0x000000000000000000000000ce0b9fece131eb801d69f3ae2ce1977dc41eb9d6"
                    }
                ],
                "storageVariables": []
            },
            {
                "address": "0xce0b9fece131eb801d69f3ae2ce1977dc41eb9d6",
                "erc": "",
                "slots": [
                    {
                        "current": "0x0000000000000000000000003d76632c403aabae9589431d51102b034d4a73a7",
                        "key": "0x0000000000000000000000000000000000000000000000000000000000000003",
                        "prev": "0x0000000000000000000000000000000000000000000000000000000000000000"
                    },
                    {
                        "current": "0x0000000000000000000000006066150a2070cc165222141b47fd2ba0642b57a1",
                        "key": "0x0000000000000000000000000000000000000000000000000000000000000002",
                        "prev": "0x0000000000000000000000003d76632c403aabae9589431d51102b034d4a73a7"
                    },
                    {
                        "current": "0x0000000000000000000000000000000000000000000000000000000000000000",
                        "key": "0x0000000000000000000000000000000000000000000000000000000000000005",
                        "prev": "0x0000000000000000000000000000000000000000000000000000000000000001"
                    }
                ],
                "storageVariables": []
            }
        ]
    }
}