{
    "balance_change": {
        "balanceChanges": [
            {
                "account": "0x7e170db9dc479e4ec1b06808f2e8c40fbbeeeb0e",
                "assets": [
                    {
                        "address": "0xabd4c63d2616a5201454168269031355f4764337",
                        "amount": "42.09916223",
                        "iconUrl": "",
                        "isERC1155": false,
                        "isERC721": false,
                        "sign": true,
                        "value": "9.02075878"
                    }
                ]
            },
            {
                "account": "0x94fdc38c4a8e34248f8dd19cb3336e0295227023",
                "assets": [
                    {
                        "address": "0xabd4c63d2616a5201454168269031355f4764337",
                        "amount": "42.09916223",
                        "iconUrl": "",
                        "isERC1155": false,
                        "isERC721": false,
                        "sign": false,
                        "value": "9.02075878"
                    }
                ]
            }
        ]
    },
    "profile": {
        "basic_info": {
            "baseFee": "0.895018792",
            "blockNumber": 20616720,
            "callData": "0xabd40e1e000000000000000000000000000000000000000000000002483e44ff4cb11c00000000000000000000000000000000000000000000000000000000000000004000000000000000000000000000000000000000000000000000000000000000134b9062c7f1a2a573bf1264198738915f3e8b095d173b7edb926c339268a4006a4b393763e6f3d6e04b610402abc4fc78e45eda49f30232f541aa5be0b4364d71ed2ffe51b52360792fbbdc4e79ae3ac9f6f6063da4eb5be6acee8e78b678d63539f992f48d0dbb37bdb6e0c04815e3b45206b02c62a52465d00fef2c8b29730d4bbce15d9a06a67ec3dcbc9a54cbb0729d992b81c0879e5676984b64b7d338c2ccd801ec227f9545d409fe1330dbad6dd7df2955e90fd25d918f53fd9a80d9d873d097008c5704cc91db8e7a8598fa0c0ac798ed9d301bbde82f6bddc09e66a12da044f5e1eb8c4cde80f7a4c99e5644a3c832be7ed483e4e4cf1950a2eb0f3e6780eb80bf1890c66be343a80fb0f369c32a8649554246b03d4ca53e1b1c41459151ac1638412612d871d8fc81bed046746173150252e1a95a669ccebd8907a2511f17a440b8e9d86c0b93c19e6f03b319b15edce6937f92b6f25f059185cc79958b1b0f632fbb172834e4e205fe21eb28ae68b9dffbb369ac3009d8e24f8522e45daf7f663ec7298b0f8d82abf2ab57f801637f4b5741b6533a4e461ccacb52a63b334ac42bbd3e30e285a8ea0ef2dfb75282c5bead707b7cc18a880ddc370b25c0a93bf3df14d3fbe1a72bb19c4139585bc54d495e80f45eea80d1f27be5f7156efb1e00c97616bcecd5248513bc352586df0cdd8ab5c1b9b80d0ee8f440ded2a64d2bff82924bae202d86e8b5bcfd3e91c9b4e3b48540c7a4e21531b63a94f95d8c7fa12a3556d3eab9aa22bfdf0e3eaff4d0d0b378545ee3bab0a9af7a50eef86a524f85584e3dad340f0518b1ce73acecb48202952fcc661a733e238380",
            "debugEnable": true,
            "errorInfo": "",
            "eventCount": 2,
            "feeRecipient": "0x4838b106fce9647bdf1e7877bf73ce8b0bad5f97",
            "formatValue": "0",
            "gasLimit": 150124,
            "gasPrice": "0.985018792",
            "gasUsed": 118825,
            "intTxnCount": 2,
            "internalRevert": false,
            "internalRevertMessage": "",
            "isContractCreation": false,
            "isFlashloan": false,
            "maxFee": "1.32",
            "nonce": 1,
            "overwritedBlockNumber": -1,
            "priorityFee": "0.09",
            "receiver": "0x94fdc38c4a8e34248f8dd19cb3336e0295227023",
            "revertMessage": "",
            "sender": "0x7e170db9dc479e4ec1b06808f2e8c40fbbeeeb0e",
            "simulationEnable": true,
            "sourceTxnHash": "0xe7aef47e2bdc36c7b5496996b982c14769d6b47447496fdf8285a9030b4cc6fb",
            "status": true,
            "timestamp": "2024-08-27T01:44:11Z",
            "transactionFee": "0.0001170448579594",
            "txnHash": "0xe7aef47e2bdc36c7b5496996b982c14769d6b47447496fdf8285a9030b4cc6fb",
            "txnIndex": 118,
            "type": 2,
            "value": "0"
        },
        "fund_flow": [
            {
                "amount": "42.09916223",
                "from": "0x94fdc38c4a8e34248f8dd19cb3336e0295227023",
                "id": 1,
                "isERC1155": false,
                "isERC721": false,
                "isReverted": false,
                "order": 1,
                "to": "0x7e170db9dc479e4ec1b06808f2e8c40fbbeeeb0e",
                "token": "0xabd4c63d2616a5201454168269031355f4764337"
            }
        ],
        "token_infos": [
            {
                "address": "0xabd4c63d2616a5201454168269031355f4764337",
                "decimals": 18
            },
            {
                "address": "0xc02aaa39b223fe8d0a0e5c4f27ead9083c756cc2",
                "decimals": 18
            },
            {
                "address": "0xeeeeeeeeeeeeeeeeeeeeeeeeeeeeeeeeeeeeeeee",
                "decimals": 18
            }
        ]
    },
    "address_label": {
        "labels": [
            {
                "address": "0x0000000000000000000000000000000000000003",
                "label": "Precompiled"
            },
            {
                "address": "0x0000000000000000000000000000000000000004",
                "label": "Precompiled"
            },
            {
                "address": "0xeeeeeeeeeeeeeeeeeeeeeeeeeeeeeeeeeeeeeeee",
                "label": "Ether"
            },
            {
                "address": "0x94fdc38c4a8e34248f8dd19cb3336e0295227023",
                "label": "Orderly: Airdrop"
            },
            {
                "address": "0xabd4c63d2616a5201454168269031355f4764337",
                "label": "Orderly Network: ORDER Token"
            },
            {
                "address": "0x98273e1766d8779978f45cd94e626c74813c194b",
                "label": "MerkleDistributorL1"
            },
            {
                "address": "0x0000000000000000000000000000000000000001",
                "label": "Precompiled"
            },
            {
                "address": "0x0000000000000000000000000000000000000002",
                "label": "Precompiled"
            }
        ]
    },
    "trace": {
        "accountLabels": null,
        "dataMap": {
            "-1": {
                "invocation": {
                    "address": "0x7e170db9dc479e4ec1b06808f2e8c40fbbeeeb0e",
                    "callData": "",
                    "decodedMethod": null,
                    "errorInfo": "",
                    "fromAddress": "",
                    "gasUsed": 0,
                    "id": -1,
                    "methodDecoded": false,
                    "operation": "",
                    "output": "",
                    "revert": false,
                    "revertMessage": "",
                    "selector": "",
                    "status": false,
                    "value": ""
                },
                "nodeType": 0
            },
            "0": {
                "invocation": {
                    "address": "0x94fdc38c4a8e34248f8dd19cb3336e0295227023",
                    "callData": "0x000000000000000000000000000000000000000000000002483e44ff4cb11c00000000000000000000000000000000000000000000000000000000000000004000000000000000000000000000000000000000000000000000000000000000134b9062c7f1a2a573bf1264198738915f3e8b095d173b7edb926c339268a4006a4b393763e6f3d6e04b610402abc4fc78e45eda49f30232f541aa5be0b4364d71ed2ffe51b52360792fbbdc4e79ae3ac9f6f6063da4eb5be6acee8e78b678d63539f992f48d0dbb37bdb6e0c04815e3b45206b02c62a52465d00fef2c8b29730d4bbce15d9a06a67ec3dcbc9a54cbb0729d992b81c0879e5676984b64b7d338c2ccd801ec227f9545d409fe1330dbad6dd7df2955e90fd25d918f53fd9a80d9d873d097008c5704cc91db8e7a8598fa0c0ac798ed9d301bbde82f6bddc09e66a12da044f5e1eb8c4cde80f7a4c99e5644a3c832be7ed483e4e4cf1950a2eb0f3e6780eb80bf1890c66be343a80fb0f369c32a8649554246b03d4ca53e1b1c41459151ac1638412612d871d8fc81bed046746173150252e1a95a669ccebd8907a2511f17a440b8e9d86c0b93c19e6f03b319b15edce6937f92b6f25f059185cc79958b1b0f632fbb172834e4e205fe21eb28ae68b9dffbb369ac3009d8e24f8522e45daf7f663ec7298b0f8d82abf2ab57f801637f4b5741b6533a4e461ccacb52a63b334ac42bbd3e30e285a8ea0ef2dfb75282c5bead707b7cc18a880ddc370b25c0a93bf3df14d3fbe1a72bb19c4139585bc54d495e80f45eea80d1f27be5f7156efb1e00c97616bcecd5248513bc352586df0cdd8ab5c1b9b80d0ee8f440ded2a64d2bff82924bae202d86e8b5bcfd3e91c9b4e3b48540c7a4e21531b63a94f95d8c7fa12a3556d3eab9aa22bfdf0e3eaff4d0d0b378545ee3bab0a9af7a50eef86a524f85584e3dad340f0518b1ce73acecb48202952fcc661a733e238380",
                    "decodedMethod": {
                        "callParams": [
                            {
                                "name": "_cumulativeAmount",
                                "type": "uint256",
                                "value": "42,099,162,230,000,000,000"
                            },
                            {
                                "name": "_merkleProof",
                                "type": "bytes32[]",
                                "value": [
                                    "0x4b9062c7f1a2a573bf1264198738915f3e8b095d173b7edb926c339268a4006a",
                                    "0x4b393763e6f3d6e04b610402abc4fc78e45eda49f30232f541aa5be0b4364d71",
                                    "0xed2ffe51b52360792fbbdc4e79ae3ac9f6f6063da4eb5be6acee8e78b678d635",
                                    "0x39f992f48d0dbb37bdb6e0c04815e3b45206b02c62a52465d00fef2c8b29730d",
                                    "0x4bbce15d9a06a67ec3dcbc9a54cbb0729d992b81c0879e5676984b64b7d338c2",
                                    "0xccd801ec227f9545d409fe1330dbad6dd7df2955e90fd25d918f53fd9a80d9d8",
                                    "0x73d097008c5704cc91db8e7a8598fa0c0ac798ed9d301bbde82f6bddc09e66a1",
                                    "0x2da044f5e1eb8c4cde80f7a4c99e5644a3c832be7ed483e4e4cf1950a2eb0f3e",
                                    "0x6780eb80bf1890c66be343a80fb0f369c32a8649554246b03d4ca53e1b1c4145",
                                    "0x9151ac1638412612d871d8fc81bed046746173150252e1a95a669ccebd8907a2",
                                    "0x511f17a440b8e9d86c0b93c19e6f03b319b15edce6937f92b6f25f059185cc79",
                                    "0x958b1b0f632fbb172834e4e205fe21eb28ae68b9dffbb369ac3009d8e24f8522",
                                    "0xe45daf7f663ec7298b0f8d82abf2ab57f801637f4b5741b6533a4e461ccacb52",
                                    "0xa63b334ac42bbd3e30e285a8ea0ef2dfb75282c5bead707b7cc18a880ddc370b",
                                    "0x25c0a93bf3df14d3fbe1a72bb19c4139585bc54d495e80f45eea80d1f27be5f7",
                                    "0x156efb1e00c97616bcecd5248513bc352586df0cdd8ab5c1b9b80d0ee8f440de",
                                    "0xd2a64d2bff82924bae202d86e8b5bcfd3e91c9b4e3b48540c7a4e21531b63a94",
                                    "0xf95d8c7fa12a3556d3eab9aa22bfdf0e3eaff4d0d0b378545ee3bab0a9af7a50",
                                    "0xeef86a524f85584e3dad340f0518b1ce73acecb48202952fcc661a733e238380"
                                ]
                            }
                        ],
                        "constructorArguments": "",
                        "name": "claimRewards",
                        "returnParams": [
                            {
                                "name": "",
                                "type": "uint256",
                                "value": "42,099,162,230,000,000,000"
                            }
                        ],
                        "signature": "claimRewards(uint256,bytes32[])"
                    },
                    "errorInfo": "",
                    "fromAddress": "0x7e170db9dc479e4ec1b06808f2e8c40fbbeeeb0e",
                    "gasUsed": 118825,
                    "id": 0,
                    "methodDecoded": true,
                    "operation": "CALL",
                    "output": "0x000000000000000000000000000000000000000000000002483e44ff4cb11c00",
                    "revert": false,
                    "revertMessage": "",
                    "selector": "0xabd40e1e",
                    "status": true,
                    "value": "0"
                },
                "nodeType": 0
            },
            "1": {
                "invocation": {
                    "address": "0x98273e1766d8779978f45cd94e626c74813c194b",
                    "callData": "0x000000000000000000000000000000000000000000000002483e44ff4cb11c00000000000000000000000000000000000000000000000000000000000000004000000000000000000000000000000000000000000000000000000000000000134b9062c7f1a2a573bf1264198738915f3e8b095d173b7edb926c339268a4006a4b393763e6f3d6e04b610402abc4fc78e45eda49f30232f541aa5be0b4364d71ed2ffe51b52360792fbbdc4e79ae3ac9f6f6063da4eb5be6acee8e78b678d63539f992f48d0dbb37bdb6e0c04815e3b45206b02c62a52465d00fef2c8b29730d4bbce15d9a06a67ec3dcbc9a54cbb0729d992b81c0879e5676984b64b7d338c2ccd801ec227f9545d409fe1330dbad6dd7df2955e90fd25d918f53fd9a80d9d873d097008c5704cc91db8e7a8598fa0c0ac798ed9d301bbde82f6bddc09e66a12da044f5e1eb8c4cde80f7a4c99e5644a3c832be7ed483e4e4cf1950a2eb0f3e6780eb80bf1890c66be343a80fb0f369c32a8649554246b03d4ca53e1b1c41459151ac1638412612d871d8fc81bed046746173150252e1a95a669ccebd8907a2511f17a440b8e9d86c0b93c19e6f03b319b15edce6937f92b6f25f059185cc79958b1b0f632fbb172834e4e205fe21eb28ae68b9dffbb369ac3009d8e24f8522e45daf7f663ec7298b0f8d82abf2ab57f801637f4b5741b6533a4e461ccacb52a63b334ac42bbd3e30e285a8ea0ef2dfb75282c5bead707b7cc18a880ddc370b25c0a93bf3df14d3fbe1a72bb19c4139585bc54d495e80f45eea80d1f27be5f7156efb1e00c97616bcecd5248513bc352586df0cdd8ab5c1b9b80d0ee8f440ded2a64d2bff82924bae202d86e8b5bcfd3e91c9b4e3b48540c7a4e21531b63a94f95d8c7fa12a3556d3eab9aa22bfdf0e3eaff4d0d0b378545ee3bab0a9af7a50eef86a524f85584e3dad340f0518b1ce73acecb48202952fcc661a733e238380",
                    "decodedMethod": {
                        "callParams": [
                            {
                                "name": "_cumulativeAmount",
                                "type": "uint256",
                                "value": "42,099,162,230,000,000,000"
                            },
                            {
                                "name": "_merkleProof",
                                "type": "bytes32[]",
                                "value": [
                                    "0x4b9062c7f1a2a573bf1264198738915f3e8b095d173b7edb926c339268a4006a",
                                    "0x4b393763e6f3d6e04b610402abc4fc78e45eda49f30232f541aa5be0b4364d71",
                                    "0xed2ffe51b52360792fbbdc4e79ae3ac9f6f6063da4eb5be6acee8e78b678d635",
                                    "0x39f992f48d0dbb37bdb6e0c04815e3b45206b02c62a52465d00fef2c8b29730d",
                                    "0x4bbce15d9a06a67ec3dcbc9a54cbb0729d992b81c0879e5676984b64b7d338c2",
                                    "0xccd801ec227f9545d409fe1330dbad6dd7df2955e90fd25d918f53fd9a80d9d8",
                                    "0x73d097008c5704cc91db8e7a8598fa0c0ac798ed9d301bbde82f6bddc09e66a1",
                                    "0x2da044f5e1eb8c4cde80f7a4c99e5644a3c832be7ed483e4e4cf1950a2eb0f3e",
                                    "0x6780eb80bf1890c66be343a80fb0f369c32a8649554246b03d4ca53e1b1c4145",
                                    "0x9151ac1638412612d871d8fc81bed046746173150252e1a95a669ccebd8907a2",
                                    "0x511f17a440b8e9d86c0b93c19e6f03b319b15edce6937f92b6f25f059185cc79",
                                    "0x958b1b0f632fbb172834e4e205fe21eb28ae68b9dffbb369ac3009d8e24f8522",
                                    "0xe45daf7f663ec7298b0f8d82abf2ab57f801637f4b5741b6533a4e461ccacb52",
                                    "0xa63b334ac42bbd3e30e285a8ea0ef2dfb75282c5bead707b7cc18a880ddc370b",
                                    "0x25c0a93bf3df14d3fbe1a72bb19c4139585bc54d495e80f45eea80d1f27be5f7",
                                    "0x156efb1e00c97616bcecd5248513bc352586df0cdd8ab5c1b9b80d0ee8f440de",
                                    "0xd2a64d2bff82924bae202d86e8b5bcfd3e91c9b4e3b48540c7a4e21531b63a94",
                                    "0xf95d8c7fa12a3556d3eab9aa22bfdf0e3eaff4d0d0b378545ee3bab0a9af7a50",
                                    "0xeef86a524f85584e3dad340f0518b1ce73acecb48202952fcc661a733e238380"
                                ]
                            }
                        ],
                        "constructorArguments": "",
                        "name": "claimRewards",
                        "returnParams": [
                            {
                                "name": "",
                                "type": "uint256",
                                "value": "42,099,162,230,000,000,000"
                            }
                        ],
                        "signature": "claimRewards(uint256,bytes32[])"
                    },
                    "errorInfo": "",
                    "fromAddress": "0x94fdc38c4a8e34248f8dd19cb3336e0295227023",
                    "gasUsed": 85355,
                    "id": 1,
                    "methodDecoded": true,
                    "operation": "DELEGATECALL",
                    "output": "0x000000000000000000000000000000000000000000000002483e44ff4cb11c00",
                    "revert": false,
                    "revertMessage": "",
                    "selector": "0xabd40e1e",
                    "status": true,
                    "value": "0"
                },
                "nodeType": 0
            },
            "2": {
                "invocation": {
                    "address": "0xabd4c63d2616a5201454168269031355f4764337",
                    "callData": "0x0000000000000000000000007e170db9dc479e4ec1b06808f2e8c40fbbeeeb0e000000000000000000000000000000000000000000000002483e44ff4cb11c00",
                    "decodedMethod": {
                        "callParams": [
                            {
                                "name": "to",
                                "type": "address",
                                "value": "0x7e170db9dc479e4ec1b06808f2e8c40fbbeeeb0e"
                            },
                            {
                                "decimalAvailable": true,
                                "name": "value",
                                "type": "uint256",
                                "value": "42,099,162,230,000,000,000"
                            }
                        ],
                        "constructorArguments": "",
                        "name": "transfer",
                        "returnParams": [
                            {
                                "name": "",
                                "type": "bool",
                                "value": true
                            }
                        ],
                        "signature": "transfer(address,uint256)"
                    },
                    "errorInfo": "",
                    "fromAddress": "0x94fdc38c4a8e34248f8dd19cb3336e0295227023",
                    "gasUsed": 29988,
                    "id": 2,
                    "methodDecoded": true,
                    "operation": "CALL",
                    "output": "0x0000000000000000000000000000000000000000000000000000000000000001",
                    "revert": false,
                    "revertMessage": "",
                    "selector": "0xa9059cbb",
                    "status": true,
                    "value": "0"
                },
                "nodeType": 0
            },
            "3": {
                "event": {
                    "contract": "0xabd4c63d2616a5201454168269031355f4764337",
                    "decodedLog": {
                        "name": "Transfer",
                        "params": [
                            {
                                "name": "from",
                                "type": "address",
                                "value": "0x94fdc38c4a8e34248f8dd19cb3336e0295227023"
                            },
                            {
                                "name": "to",
                                "type": "address",
                                "value": "0x7e170db9dc479e4ec1b06808f2e8c40fbbeeeb0e"
                            },
                            {
                                "decimalAvailable": true,
                                "name": "value",
                                "type": "uint256",
                                "value": "42,099,162,230,000,000,000"
                            }
                        ],
                        "signature": "Transfer(address,address,uint256)"
                    },
                    "id": 3,
                    "logData": "0x000000000000000000000000000000000000000000000002483e44ff4cb11c00",
                    "logDecoded": true,
                    "operation": "EVENT",
                    "revert": false,
                    "status": true,
                    "topics": [
                        "0xddf252ad1be2c89b69c2b068fc378daa952ba7f163c4a11628f55a4df523b3ef",
                        "0x00000000000000000000000094fdc38c4a8e34248f8dd19cb3336e0295227023",
                        "0x0000000000000000000000007e170db9dc479e4ec1b06808f2e8c40fbbeeeb0e"
                    ]
                },
                "nodeType": 1
            },
            "4": {
                "event": {
                    "contract": "0x94fdc38c4a8e34248f8dd19cb3336e0295227023",
                    "decodedLog": {
                        "name": "RewardsClaimed",
                        "params": [
                            {
                                "name": "eventId",
                                "type": "uint256",
                                "value": "41,096"
                            },
                            {
                                "name": "account",
                                "type": "address",
                                "value": "0x7e170db9dc479e4ec1b06808f2e8c40fbbeeeb0e"
                            },
                            {
                                "name": "amount",
                                "type": "uint256",
                                "value": "42,099,162,230,000,000,000"
                            }
                        ],
                        "signature": "RewardsClaimed(uint256,address,uint256)"
                    },
                    "id": 4,
                    "logData": "0x000000000000000000000000000000000000000000000000000000000000a0880000000000000000000000007e170db9dc479e4ec1b06808f2e8c40fbbeeeb0e000000000000000000000000000000000000000000000002483e44ff4cb11c00",
                    "logDecoded": true,
                    "operation": "EVENT",
                    "revert": false,
                    "status": true,
                    "topics": [
                        "0x3300bdb359cfb956935bca32e9db727413eab1ca84341f2e36caea85bb796968"
                    ]
                },
                "nodeType": 1
            }
        },
        "gasFlame": [
            {
                "children": [
                    {
                        "children": [
                            {
                                "children": [],
                                "depth": 0,
                                "name": "Initial Gas",
                                "value": 31260
                            },
                            {
                                "children": [
                                    {
                                        "children": [
                                            {
                                                "children": [],
                                                "depth": 2,
                                                "name": "transfer",
                                                "value": 29988
                                            }
                                        ],
                                        "depth": 1,
                                        "name": "claimRewards",
                                        "value": 85355
                                    }
                                ],
                                "depth": 0,
                                "name": "Executed Gas",
                                "value": 90365
                            }
                        ],
                        "depth": -1,
                        "name": "Actual Gas Used",
                        "value": 118825
                    },
                    {
                        "children": [],
                        "depth": -1,
                        "name": "Refunded Gas",
                        "value": 2800
                    }
                ],
                "depth": -2,
                "name": "Total Gas",
                "value": 121625
            }
        ],
        "isConfirmed": true,
        "mainTrace": [
            {
                "children": [
                    {
                        "children": [
                            {
                                "children": [
                                    {
                                        "children": [
                                            {
                                                "children": [],
                                                "depth": 3,
                                                "id": 3,
                                                "order": 3
                                            }
                                        ],
                                        "depth": 2,
                                        "id": 2,
                                        "order": 2
                                    },
                                    {
                                        "children": [],
                                        "depth": 2,
                                        "id": 4,
                                        "order": 4
                                    }
                                ],
                                "depth": 1,
                                "id": 1,
                                "order": 1
                            }
                        ],
                        "depth": 0,
                        "id": 0,
                        "order": 0
                    }
                ],
                "depth": -1,
                "id": -1,
                "order": -1
            }
        ],
        "mainTraceNodeCount": 5,
        "parentIdMap": {
            "0": -1,
            "1": 0,
            "2": 1,
            "3": 2,
            "4": 1
        },
        "tidyTrace": [
            {
                "children": [
                    {
                        "children": [
                            {
                                "children": [
                                    {
                                        "children": [
                                            {
                                                "children": [],
                                                "depth": 3,
                                                "id": 3,
                                                "order": 3
                                            }
                                        ],
                                        "depth": 2,
                                        "id": 2,
                                        "order": 2
                                    },
                                    {
                                        "children": [],
                                        "depth": 2,
                                        "id": 4,
                                        "order": 4
                                    }
                                ],
                                "depth": 1,
                                "id": 1,
                                "order": 1
                            }
                        ],
                        "depth": 0,
                        "id": 0,
                        "order": 0
                    }
                ],
                "depth": -1,
                "id": -1,
                "order": -1
            }
        ],
        "tidyTraceNodeCount": 5
    },
    "state_change": {
        "stateChanges": [
            {
                "address": "0x94fdc38c4a8e34248f8dd19cb3336e0295227023",
                "erc": "",
                "slots": [
                    {
                        "current": "0x000000000000000000000000000000000000000000000000000000000000a088",
                        "key": "0x0000000000000000000000000000000000000000000000000000000000000000",
                        "prev": "0x000000000000000000000000000000000000000000000000000000000000a087"
                    },
                    {
                        "current": "0x000000000000000000000000000000000000000000000002483e44ff4cb11c00",
                        "key": "0xd0db2018c1833f49c70fc38dbc57c981edc9826b724508ad4e850fd0283ff697",
                        "prev": "0x0000000000000000000000000000000000000000000000000000000000000000"
                    }
                ],
                "storageVariables": [
                    {
                        "name": "eventId",
                        "type": "uint256",
                        "value": {
                            "current": "41096",
                            "prev": "41095",
                            "typeTag": 1
                        }
                    },
                    {
                        "name": "claimedAmounts",
                        "type": "mapping(address => uint256)",
                        "value": {
                            "pairs": [
                                {
                                    "key": "0x7e170db9dc479e4ec1b06808f2e8c40fbbeeeb0e",
                                    "value": {
                                        "current": "42099162230000000000",
                                        "prev": "0",
                                        "typeTag": 1
                                    }
                                }
                            ],
                            "typeTag": 4
                        }
                    }
                ]
            },
            {
                "address": "0xabd4c63d2616a5201454168269031355f4764337",
                "erc": "ERC-20",
                "slots": [
                    {
                        "current": "0x0000000000000000000000000000000000000000000c75f91b9f78dc431d2800",
                        "key": "0x763e32024b0f40bbf068232e2a752a1130534ee7541715ca3509accd3f1edc53",
                        "prev": "0x0000000000000000000000000000000000000000000c75fb63ddbddb8fce4400"
                    },
                    {
                        "current": "0x000000000000000000000000000000000000000000000002483e44ff4cb11c00",
                        "key": "0xef54559ab5db30339015c2ad4e05c6c6db704dd393b95d49d75a68dad3493c1c",
                        "prev": "0x0000000000000000000000000000000000000000000000000000000000000000"
                    }
                ],
                "storageVariables": [
                    {
                        "name": "_balances",
                        "type": "mapping(address => uint256)",
                        "value": {
                            "pairs": [
                                {
                                    "key": "0x7e170db9dc479e4ec1b06808f2e8c40fbbeeeb0e",
                                    "value": {
                                        "current": "42099162230000000000",
                                        "prev": "0",
                                        "typeTag": 1
                                    }
                                },
                                {
                                    "key": "0x94fdc38c4a8e34248f8dd19cb3336e0295227023",
                                    "value": {
                                        "current": "15064221943588100000000000",
                                        "prev": "15064264042750330000000000",
                                        "typeTag": 1
                                    }
                                }
                            ],
                            "typeTag": 4
                        }
                    }
                ]
            }
        ]
    }
}