{
    "balance_change": {
        "balanceChanges": [
            {
                "account": "0xb7687a5a3e7b49522705833bf7d5baf18aabdd2d",
                "assets": [
                    {
                        "address": "0x6c5ba91642f10282b576d91922ae6448c9d52f4e",
                        "amount": "100",
                        "iconUrl": "",
                        "isERC1155": false,
                        "isERC721": false,
                        "sign": false,
                        "value": "50.66239402"
                    }
                ]
            },
            {
                "account": "0xdb32808ebddf3c06456e6de919f3a6674c6d15e2",
                "assets": [
                    {
                        "address": "0x6c5ba91642f10282b576d91922ae6448c9d52f4e",
                        "amount": "100",
                        "iconUrl": "",
                        "isERC1155": false,
                        "isERC721": false,
                        "sign": true,
                        "value": "50.66239402"
                    }
                ]
            }
        ]
    },
    "profile": {
        "basic_info": {
            "baseFee": "",
            "blockNumber": 11947745,
            "callData": "0xa9059cbb000000000000000000000000db32808ebddf3c06456e6de919f3a6674c6d15e20000000000000000000000000000000000000000000000056bc75e2d63100000",
            "debugEnable": true,
            "errorInfo": "",
            "eventCount": 1,
            "feeRecipient": "0x3ecef08d0e2dad803847e052249bb4f8bff2d5bb",
            "formatValue": "0",
            "gasLimit": 78567,
            "gasPrice": "90",
            "gasUsed": 52378,
            "intTxnCount": 0,
            "internalRevert": false,
            "internalRevertMessage": "",
            "isContractCreation": false,
            "isFlashloan": false,
            "maxFee": "",
            "nonce": 369,
            "overwritedBlockNumber": -1,
            "priorityFee": "",
            "receiver": "0x6c5ba91642f10282b576d91922ae6448c9d52f4e",
            "revertMessage": "",
            "sender": "0xb7687a5a3e7b49522705833bf7d5baf18aabdd2d",
            "simulationEnable": true,
            "sourceTxnHash": "0xe7103f762d328020181592a2305c6c91aa62945408670eb2e4c3a5bc3ad561af",
            "status": true,
            "timestamp": "2021-02-28T19:40:56Z",
            "transactionFee": "0.00471402",
            "txnHash": "0xe7103f762d328020181592a2305c6c91aa62945408670eb2e4c3a5bc3ad561af",
            "txnIndex": 75,
            "type": 0,
            "value": "0"
        },
        "fund_flow": [
            {
                "amount": "100",
                "from": "0xb7687a5a3e7b49522705833bf7d5baf18aabdd2d",
                "id": 1,
                "isERC1155": false,
                "isERC721": false,
                "isReverted": false,
                "order": 1,
                "to": "0xdb32808ebddf3c06456e6de919f3a6674c6d15e2",
                "token": "0x6c5ba91642f10282b576d91922ae6448c9d52f4e"
            }
        ],
        "token_infos": [
            {
                "address": "0x6c5ba91642f10282b576d91922ae6448c9d52f4e",
                "decimals": 18
            },
            {
                "address": "0xc02aaa39b223fe8d0a0e5c4f27ead9083c756cc2",
                "decimals": 18
            },
            {
                "address": "0xeeeeeeeeeeeeeeeeeeeeeeeeeeeeeeeeeeeeeeee",
                "decimals": 18
            }
        ]
    },
    "address_label": {
        "labels": [
            {
                "address": "0x0000000000000000000000000000000000000003",
                "label": "Precompiled"
            },
            {
                "address": "0x0000000000000000000000000000000000000004",
                "label": "Precompiled"
            },
            {
                "address": "0xeeeeeeeeeeeeeeeeeeeeeeeeeeeeeeeeeeeeeeee",
                "label": "Ether"
            },
            {
                "address": "0x6c5ba91642f10282b576d91922ae6448c9d52f4e",
                "label": "Phala Network: PHA Token"
            },
            {
                "address": "0xb7687a5a3e7b49522705833bf7d5baf18aabdd2d",
                "label": "Phala Network: Deployer"
            },
            {
                "address": "0x0000000000000000000000000000000000000001",
                "label": "Precompiled"
            },
            {
                "address": "0x0000000000000000000000000000000000000002",
                "label": "Precompiled"
            }
        ]
    },
    "trace": {
        "accountLabels": null,
        "dataMap": {
            "-1": {
                "invocation": {
                    "address": "0xb7687a5a3e7b49522705833bf7d5baf18aabdd2d",
                    "callData": "",
                    "decodedMethod": null,
                    "errorInfo": "",
                    "fromAddress": "",
                    "gasUsed": 0,
                    "id": -1,
                    "methodDecoded": false,
                    "operation": "",
                    "output": "",
                    "revert": false,
                    "revertMessage": "",
                    "selector": "",
                    "status": false,
                    "value": ""
                },
                "nodeType": 0
            },
            "0": {
                "invocation": {
                    "address": "0x6c5ba91642f10282b576d91922ae6448c9d52f4e",
                    "callData": "0x000000000000000000000000db32808ebddf3c06456e6de919f3a6674c6d15e20000000000000000000000000000000000000000000000056bc75e2d63100000",
                    "decodedMethod": {
                        "callParams": [
                            {
                                "name": "to",
                                "type": "address",
                                "value": "0xdb32808ebddf3c06456e6de919f3a6674c6d15e2"
                            },
                            {
                                "decimalAvailable": true,
                                "name": "value",
                                "type": "uint256",
                                "value": "100,000,000,000,000,000,000"
                            }
                        ],
                        "constructorArguments": "",
                        "name": "transfer",
                        "returnParams": [
                            {
                                "name": "",
                                "type": "bool",
                                "value": true
                            }
                        ],
                        "signature": "transfer(address,uint256)"
                    },
                    "errorInfo": "",
                    "fromAddress": "0xb7687a5a3e7b49522705833bf7d5baf18aabdd2d",
                    "gasUsed": 52378,
                    "id": 0,
                    "methodDecoded": true,
                    "operation": "CALL",
                    "output": "0x0000000000000000000000000000000000000000000000000000000000000001",
                    "revert": false,
                    "revertMessage": "",
                    "selector": "0xa9059cbb",
                    "status": true,
                    "value": "0"
                },
                "nodeType": 0
            },
            "1": {
                "event": {
                    "contract": "0x6c5ba91642f10282b576d91922ae6448c9d52f4e",
                    "decodedLog": {
                        "name": "Transfer",
                        "params": [
                            {
                                "name": "from",
                                "type": "address",
                                "value": "0xb7687a5a3e7b49522705833bf7d5baf18aabdd2d"
                            },
                            {
                                "name": "to",
                                "type": "address",
                                "value": "0xdb32808ebddf3c06456e6de919f3a6674c6d15e2"
                            },
                            {
                                "decimalAvailable": true,
                                "name": "value",
                                "type": "uint256",
                                "value": "100,000,000,000,000,000,000"
                            }
                        ],
                        "signature": "Transfer(address,address,uint256)"
                    },
                    "id": 1,
                    "logData": "0x0000000000000000000000000000000000000000000000056bc75e2d63100000",
                    "logDecoded": true,
                    "operation": "EVENT",
                    "revert": false,
                    "status": true,
                    "topics": [
                        "0xddf252ad1be2c89b69c2b068fc378daa952ba7f163c4a11628f55a4df523b3ef",
                        "0x000000000000000000000000b7687a5a3e7b49522705833bf7d5baf18aabdd2d",
                        "0x000000000000000000000000db32808ebddf3c06456e6de919f3a6674c6d15e2"
                    ]
                },
                "nodeType": 1
            }
        },
        "gasFlame": [
            {
                "children": [
                    {
                        "children": [
                            {
                                "children": [],
                                "depth": 0,
                                "name": "Initial Gas",
                                "value": 21644
                            },
                            {
                                "children": [],
                                "depth": 0,
                                "name": "Executed Gas",
                                "value": 30734
                            }
                        ],
                        "depth": -1,
                        "name": "Actual Gas Used",
                        "value": 52378
                    },
                    {
                        "children": [],
                        "depth": -1,
                        "name": "Refunded Gas",
                        "value": 0
                    }
                ],
                "depth": -2,
                "name": "Total Gas",
                "value": 52378
            }
        ],
        "isConfirmed": true,
        "mainTrace": [
            {
                "children": [
                    {
                        "children": [
                            {
                                "children": [],
                                "depth": 1,
                                "id": 1,
                                "order": 1
                            }
                        ],
                        "depth": 0,
                        "id": 0,
                        "order": 0
                    }
                ],
                "depth": -1,
                "id": -1,
                "order": -1
            }
        ],
        "mainTraceNodeCount": 2,
        "parentIdMap": {
            "0": -1,
            "1": 0
        },
        "tidyTrace": [
            {
                "children": [
                    {
                        "children": [
                            {
                                "children": [],
                                "depth": 1,
                                "id": 1,
                                "order": 1
                            }
                        ],
                        "depth": 0,
                        "id": 0,
                        "order": 0
                    }
                ],
                "depth": -1,
                "id": -1,
                "order": -1
            }
        ],
        "tidyTraceNodeCount": 2
    },
    "state_change": {
        "stateChanges": [
            {
                "address": "0x6c5ba91642f10282b576d91922ae6448c9d52f4e",
                "erc": "ERC-20",
                "slots": [
                    {
                        "current": "0x000000000000000000000000000000000000000000074d6deb10a015ebfdde00",
                        "key": "0x4820beb78b776edb2347922372386eb5d0a04530a486163b246f3ab69819f340",
                        "prev": "0x000000000000000000000000000000000000000000074d7356d7fe434f0dde00"
                    },
                    {
                        "current": "0x0000000000000000000000000000000000000000000000056bc75e2d63100000",
                        "key": "0xb822c12e3b20c09ba422b7b26719c15c98274e6bc338f4a252619e2cca2370b2",
                        "prev": "0x0000000000000000000000000000000000000000000000000000000000000000"
                    }
                ],
                "storageVariables": [
                    {
                        "name": "_balances",
                        "type": "mapping(address => uint256)",
                        "value": {
                            "pairs": [
                                {
                                    "key": "0xb7687a5a3e7b49522705833bf7d5baf18aabdd2d",
                                    "value": {
                                        "current": "8828130589801615800000000",
                                        "prev": "8828230589801615800000000",
                                        "typeTag": 1
                                    }
                                },
                                {
                                    "key": "0xdb32808ebddf3c06456e6de919f3a6674c6d15e2",
                                    "value": {
                                        "current": "100000000000000000000",
                                        "prev": "0",
                                        "typeTag": 1
                                    }
                                }
                            ],
                            "typeTag": 4
                        }
                    }
                ]
            }
        ]
    }
}