{
    "balance_change": {
        "balanceChanges": []
    },
    "profile": {
        "basic_info": {
            "baseFee": "",
            "blockNumber": 11371577,
            "callData": "0x095ea7b3000000000000000000000000fcba3e75865d2d561be8d220616520c171f1285100000000000000000000000000000000000000000000004e891aad8fa3c9fd46",
            "debugEnable": true,
            "errorInfo": "",
            "eventCount": 1,
            "feeRecipient": "0x52bc44d5378309ee2abf1539bf71de1b7d7be3b5",
            "formatValue": "0",
            "gasLimit": 100000,
            "gasPrice": "33",
            "gasUsed": 44906,
            "intTxnCount": 0,
            "internalRevert": false,
            "internalRevertMessage": "",
            "isContractCreation": false,
            "isFlashloan": false,
            "maxFee": "",
            "nonce": 258,
            "overwritedBlockNumber": -1,
            "priorityFee": "",
            "receiver": "0xc25a3a3b969415c80451098fa907ec722572917f",
            "revertMessage": "",
            "sender": "0xd4d8d79b95f3bf102d72b28ea86af4247d89aff4",
            "simulationEnable": true,
            "sourceTxnHash": "0xe72917e79f5646eb920081fb5a92c2657b78c427eac52cb76bda959f842314fd",
            "status": true,
            "timestamp": "2020-12-02T07:06:03Z",
            "transactionFee": "0.001481898",
            "txnHash": "0xe72917e79f5646eb920081fb5a92c2657b78c427eac52cb76bda959f842314fd",
            "txnIndex": 51,
            "type": 0,
            "value": "0"
        },
        "fund_flow": [],
        "token_infos": [
            {
                "address": "0xc02aaa39b223fe8d0a0e5c4f27ead9083c756cc2",
                "decimals": 18
            },
            {
                "address": "0xeeeeeeeeeeeeeeeeeeeeeeeeeeeeeeeeeeeeeeee",
                "decimals": 18
            }
        ]
    },
    "address_label": {
        "labels": [
            {
                "address": "0xfcba3e75865d2d561be8d220616520c171f12851",
                "label": "Curve.fi: sUSD v2 Deposit"
            },
            {
                "address": "0xc25a3a3b969415c80451098fa907ec722572917f",
                "label": "Curve.fi: sCRV Token"
            },
            {
                "address": "0x0000000000000000000000000000000000000001",
                "label": "Precompiled"
            },
            {
                "address": "0x0000000000000000000000000000000000000002",
                "label": "Precompiled"
            },
            {
                "address": "0x0000000000000000000000000000000000000003",
                "label": "Precompiled"
            },
            {
                "address": "0x0000000000000000000000000000000000000004",
                "label": "Precompiled"
            },
            {
                "address": "0xeeeeeeeeeeeeeeeeeeeeeeeeeeeeeeeeeeeeeeee",
                "label": "Ether"
            }
        ]
    },
    "trace": {
        "accountLabels": null,
        "dataMap": {
            "-1": {
                "invocation": {
                    "address": "0xd4d8d79b95f3bf102d72b28ea86af4247d89aff4",
                    "callData": "",
                    "decodedMethod": null,
                    "errorInfo": "",
                    "fromAddress": "",
                    "gasUsed": 0,
                    "id": -1,
                    "methodDecoded": false,
                    "operation": "",
                    "output": "",
                    "revert": false,
                    "revertMessage": "",
                    "selector": "",
                    "status": false,
                    "value": ""
                },
                "nodeType": 0
            },
            "0": {
                "invocation": {
                    "address": "0xc25a3a3b969415c80451098fa907ec722572917f",
                    "callData": "0x000000000000000000000000fcba3e75865d2d561be8d220616520c171f1285100000000000000000000000000000000000000000000004e891aad8fa3c9fd46",
                    "decodedMethod": {
                        "callParams": [
                            {
                                "name": "spender",
                                "type": "address",
                                "value": "0xfcba3e75865d2d561be8d220616520c171f12851"
                            },
                            {
                                "decimalAvailable": true,
                                "name": "amount",
                                "type": "uint256",
                                "value": "1,448,725,437,314,375,482,694"
                            }
                        ],
                        "constructorArguments": "",
                        "name": "approve",
                        "returnParams": [
                            {
                                "name": "",
                                "type": "bool",
                                "value": true
                            }
                        ],
                        "signature": "approve(address,uint256)"
                    },
                    "errorInfo": "",
                    "fromAddress": "0xd4d8d79b95f3bf102d72b28ea86af4247d89aff4",
                    "gasUsed": 44906,
                    "id": 0,
                    "methodDecoded": true,
                    "operation": "CALL",
                    "output": "0x0000000000000000000000000000000000000000000000000000000000000001",
                    "revert": false,
                    "revertMessage": "",
                    "selector": "0x095ea7b3",
                    "status": true,
                    "value": "0"
                },
                "nodeType": 0
            },
            "1": {
                "event": {
                    "contract": "0xc25a3a3b969415c80451098fa907ec722572917f",
                    "decodedLog": {
                        "name": "Approval",
                        "params": [
                            {
                                "name": "owner",
                                "type": "address",
                                "value": "0xd4d8d79b95f3bf102d72b28ea86af4247d89aff4"
                            },
                            {
                                "name": "spender",
                                "type": "address",
                                "value": "0xfcba3e75865d2d561be8d220616520c171f12851"
                            },
                            {
                                "decimalAvailable": true,
                                "name": "value",
                                "type": "uint256",
                                "value": "1,448,725,437,314,375,482,694"
                            }
                        ],
                        "signature": "Approval(address,address,uint256)"
                    },
                    "id": 1,
                    "logData": "0x00000000000000000000000000000000000000000000004e891aad8fa3c9fd46",
                    "logDecoded": true,
                    "operation": "EVENT",
                    "revert": false,
                    "status": true,
                    "topics": [
                        "0x8c5be1e5ebec7d5bd14f71427d1e84f3dd0314c0f7b2291e5b200ac8c7c3b925",
                        "0x000000000000000000000000d4d8d79b95f3bf102d72b28ea86af4247d89aff4",
                        "0x000000000000000000000000fcba3e75865d2d561be8d220616520c171f12851"
                    ]
                },
                "nodeType": 1
            }
        },
        "gasFlame": [
            {
                "children": [
                    {
                        "children": [
                            {
                                "children": [],
                                "depth": 0,
                                "name": "Initial Gas",
                                "value": 21668
                            },
                            {
                                "children": [],
                                "depth": 0,
                                "name": "Executed Gas",
                                "value": 23238
                            }
                        ],
                        "depth": -1,
                        "name": "Actual Gas Used",
                        "value": 44906
                    },
                    {
                        "children": [],
                        "depth": -1,
                        "name": "Refunded Gas",
                        "value": 0
                    }
                ],
                "depth": -2,
                "name": "Total Gas",
                "value": 44906
            }
        ],
        "isConfirmed": true,
        "mainTrace": [
            {
                "children": [
                    {
                        "children": [
                            {
                                "children": [],
                                "depth": 1,
                                "id": 1,
                                "order": 1
                            }
                        ],
                        "depth": 0,
                        "id": 0,
                        "order": 0
                    }
                ],
                "depth": -1,
                "id": -1,
                "order": -1
            }
        ],
        "mainTraceNodeCount": 2,
        "parentIdMap": {
            "0": -1,
            "1": 0
        },
        "tidyTrace": [
            {
                "children": [
                    {
                        "children": [
                            {
                                "children": [],
                                "depth": 1,
                                "id": 1,
                                "order": 1
                            }
                        ],
                        "depth": 0,
                        "id": 0,
                        "order": 0
                    }
                ],
                "depth": -1,
                "id": -1,
                "order": -1
            }
        ],
        "tidyTraceNodeCount": 2
    },
    "state_change": {
        "stateChanges": [
            {
                "address": "0xc25a3a3b969415c80451098fa907ec722572917f",
                "erc": "",
                "slots": [
                    {
                        "current": "0x00000000000000000000000000000000000000000000004e891aad8fa3c9fd46",
                        "key": "0x05c7797808d348b0a1f7f1a70d413a048b5aab7e3b720c16464b18aec292c864",
                        "prev": "0x0000000000000000000000000000000000000000000000000000000000000000"
                    }
                ],
                "storageVariables": []
            }
        ]
    }
}