{
    "balance_change": {
        "balanceChanges": [
            {
                "account": "0xdf04ac39d906758effcfe75205bd2a0c0b3dee0b",
                "assets": [
                    {
                        "address": "0x4d8fc1453a0f359e99c9675954e656d80d996fbf",
                        "amount": "1,780",
                        "iconUrl": "https://assets.blocksec.com/icon/31166194efbb9290b7aa0627ca1d3fe862164077aaee4746f78e2b3d1f212ffd.png",
                        "isERC1155": false,
                        "isERC721": false,
                        "sign": false,
                        "value": ""
                    }
                ]
            },
            {
                "account": "0x34872874b65e12408ec0265e9cf0a35fa6c8d13e",
                "assets": [
                    {
                        "address": "0x4d8fc1453a0f359e99c9675954e656d80d996fbf",
                        "amount": "1,780",
                        "iconUrl": "https://assets.blocksec.com/icon/31166194efbb9290b7aa0627ca1d3fe862164077aaee4746f78e2b3d1f212ffd.png",
                        "isERC1155": false,
                        "isERC721": false,
                        "sign": true,
                        "value": ""
                    }
                ]
            }
        ]
    },
    "profile": {
        "basic_info": {
            "baseFee": "",
            "blockNumber": 7046152,
            "callData": "0xa9059cbb00000000000000000000000034872874b65e12408ec0265e9cf0a35fa6c8d13e0000000000000000000000000000000000000000000000607e765927e3500000",
            "debugEnable": true,
            "errorInfo": "",
            "eventCount": 1,
            "feeRecipient": "0x5a0b54d5dc17e0aadc383d2db43b0a0d3e029c4c",
            "formatValue": "0",
            "gasLimit": 120000,
            "gasPrice": "15",
            "gasUsed": 23380,
            "intTxnCount": 0,
            "internalRevert": false,
            "internalRevertMessage": "",
            "isContractCreation": false,
            "isFlashloan": false,
            "maxFee": "",
            "nonce": 0,
            "overwritedBlockNumber": -1,
            "priorityFee": "",
            "receiver": "0x4d8fc1453a0f359e99c9675954e656d80d996fbf",
            "revertMessage": "",
            "sender": "0xdf04ac39d906758effcfe75205bd2a0c0b3dee0b",
            "simulationEnable": true,
            "sourceTxnHash": "0xe78bb6c38f412f6dcd50fdcd54e94b44b1f53423681ca3ac1266a14b03a45e57",
            "status": true,
            "timestamp": "2019-01-11T04:32:27Z",
            "transactionFee": "0.0003507",
            "txnHash": "0xe78bb6c38f412f6dcd50fdcd54e94b44b1f53423681ca3ac1266a14b03a45e57",
            "txnIndex": 15,
            "type": 0,
            "value": "0"
        },
        "fund_flow": [
            {
                "amount": "1,780",
                "from": "0xdf04ac39d906758effcfe75205bd2a0c0b3dee0b",
                "id": 1,
                "isERC1155": false,
                "isERC721": false,
                "isReverted": false,
                "order": 1,
                "to": "0x34872874b65e12408ec0265e9cf0a35fa6c8d13e",
                "token": "0x4d8fc1453a0f359e99c9675954e656d80d996fbf"
            }
        ],
        "token_infos": [
            {
                "address": "0x4d8fc1453a0f359e99c9675954e656d80d996fbf",
                "decimals": 18
            },
            {
                "address": "0xc02aaa39b223fe8d0a0e5c4f27ead9083c756cc2",
                "decimals": 18
            },
            {
                "address": "0xeeeeeeeeeeeeeeeeeeeeeeeeeeeeeeeeeeeeeeee",
                "decimals": 18
            }
        ]
    },
    "address_label": {
        "labels": [
            {
                "address": "0xeeeeeeeeeeeeeeeeeeeeeeeeeeeeeeeeeeeeeeee",
                "label": "Ether"
            },
            {
                "address": "0x4d8fc1453a0f359e99c9675954e656d80d996fbf",
                "label": "Bee: BEE Token"
            },
            {
                "address": "0x0000000000000000000000000000000000000001",
                "label": "Precompiled"
            },
            {
                "address": "0x0000000000000000000000000000000000000002",
                "label": "Precompiled"
            },
            {
                "address": "0x0000000000000000000000000000000000000003",
                "label": "Precompiled"
            },
            {
                "address": "0x0000000000000000000000000000000000000004",
                "label": "Precompiled"
            }
        ]
    },
    "trace": {
        "accountLabels": null,
        "dataMap": {
            "-1": {
                "invocation": {
                    "address": "0xdf04ac39d906758effcfe75205bd2a0c0b3dee0b",
                    "callData": "",
                    "decodedMethod": null,
                    "errorInfo": "",
                    "fromAddress": "",
                    "gasUsed": 0,
                    "id": -1,
                    "methodDecoded": false,
                    "operation": "",
                    "output": "",
                    "revert": false,
                    "revertMessage": "",
                    "selector": "",
                    "status": false,
                    "value": ""
                },
                "nodeType": 0
            },
            "0": {
                "invocation": {
                    "address": "0x4d8fc1453a0f359e99c9675954e656d80d996fbf",
                    "callData": "0x00000000000000000000000034872874b65e12408ec0265e9cf0a35fa6c8d13e0000000000000000000000000000000000000000000000607e765927e3500000",
                    "decodedMethod": {
                        "callParams": [
                            {
                                "name": "to",
                                "type": "address",
                                "value": "0x34872874b65e12408ec0265e9cf0a35fa6c8d13e"
                            },
                            {
                                "decimalAvailable": true,
                                "name": "value",
                                "type": "uint256",
                                "value": "1,780,000,000,000,000,000,000"
                            }
                        ],
                        "constructorArguments": "",
                        "name": "transfer",
                        "returnParams": [
                            {
                                "name": "",
                                "type": "bool",
                                "value": true
                            }
                        ],
                        "signature": "transfer(address,uint256)"
                    },
                    "errorInfo": "",
                    "fromAddress": "0xdf04ac39d906758effcfe75205bd2a0c0b3dee0b",
                    "gasUsed": 23380,
                    "id": 0,
                    "methodDecoded": true,
                    "operation": "CALL",
                    "output": "0x0000000000000000000000000000000000000000000000000000000000000001",
                    "revert": false,
                    "revertMessage": "",
                    "selector": "0xa9059cbb",
                    "status": true,
                    "value": "0"
                },
                "nodeType": 0
            },
            "1": {
                "event": {
                    "contract": "0x4d8fc1453a0f359e99c9675954e656d80d996fbf",
                    "decodedLog": {
                        "name": "Transfer",
                        "params": [
                            {
                                "name": "from",
                                "type": "address",
                                "value": "0xdf04ac39d906758effcfe75205bd2a0c0b3dee0b"
                            },
                            {
                                "name": "to",
                                "type": "address",
                                "value": "0x34872874b65e12408ec0265e9cf0a35fa6c8d13e"
                            },
                            {
                                "decimalAvailable": true,
                                "name": "value",
                                "type": "uint256",
                                "value": "1,780,000,000,000,000,000,000"
                            }
                        ],
                        "signature": "Transfer(address,address,uint256)"
                    },
                    "id": 1,
                    "logData": "0x0000000000000000000000000000000000000000000000607e765927e3500000",
                    "logDecoded": true,
                    "operation": "EVENT",
                    "revert": false,
                    "status": true,
                    "topics": [
                        "0xddf252ad1be2c89b69c2b068fc378daa952ba7f163c4a11628f55a4df523b3ef",
                        "0x000000000000000000000000df04ac39d906758effcfe75205bd2a0c0b3dee0b",
                        "0x00000000000000000000000034872874b65e12408ec0265e9cf0a35fa6c8d13e"
                    ]
                },
                "nodeType": 1
            }
        },
        "gasFlame": [
            {
                "children": [
                    {
                        "children": [
                            {
                                "children": [],
                                "depth": 0,
                                "name": "Initial Gas",
                                "value": 23256
                            },
                            {
                                "children": [],
                                "depth": 0,
                                "name": "Executed Gas",
                                "value": 15124
                            }
                        ],
                        "depth": -1,
                        "name": "Actual Gas Used",
                        "value": 23380
                    },
                    {
                        "children": [],
                        "depth": -1,
                        "name": "Refunded Gas",
                        "value": 15000
                    }
                ],
                "depth": -2,
                "name": "Total Gas",
                "value": 38380
            }
        ],
        "isConfirmed": true,
        "mainTrace": [
            {
                "children": [
                    {
                        "children": [
                            {
                                "children": [],
                                "depth": 1,
                                "id": 1,
                                "order": 1
                            }
                        ],
                        "depth": 0,
                        "id": 0,
                        "order": 0
                    }
                ],
                "depth": -1,
                "id": -1,
                "order": -1
            }
        ],
        "mainTraceNodeCount": 2,
        "parentIdMap": {
            "0": -1,
            "1": 0
        },
        "tidyTrace": [
            {
                "children": [
                    {
                        "children": [
                            {
                                "children": [],
                                "depth": 1,
                                "id": 1,
                                "order": 1
                            }
                        ],
                        "depth": 0,
                        "id": 0,
                        "order": 0
                    }
                ],
                "depth": -1,
                "id": -1,
                "order": -1
            }
        ],
        "tidyTraceNodeCount": 2
    },
    "state_change": {
        "stateChanges": [
            {
                "address": "0x4d8fc1453a0f359e99c9675954e656d80d996fbf",
                "erc": "ERC-20",
                "slots": [
                    {
                        "current": "0x00000000000000000000000000000000000000000011f61db75ddb6d2d282c00",
                        "key": "0x1803ff6f3c026924a9162685f06d388cf09b8fc742276c441d1dab45c385ec7c",
                        "prev": "0x00000000000000000000000000000000000000000011f5bd38e7824549d82c00"
                    },
                    {
                        "current": "0x0000000000000000000000000000000000000000000000000000000000000000",
                        "key": "0xf857a3dde69cbd81599bfeb1f0857403ddef926ed63ac2aaa7c3631eb5835476",
                        "prev": "0x0000000000000000000000000000000000000000000000607e765927e3500000"
                    }
                ],
                "storageVariables": [
                    {
                        "name": "balances",
                        "type": "mapping(address => uint256)",
                        "value": {
                            "pairs": [
                                {
                                    "key": "0x34872874b65e12408ec0265e9cf0a35fa6c8d13e",
                                    "value": {
                                        "current": "21713989256770910000000000",
                                        "prev": "21712209256770910000000000",
                                        "typeTag": 1
                                    }
                                },
                                {
                                    "key": "0xdf04ac39d906758effcfe75205bd2a0c0b3dee0b",
                                    "value": {
                                        "current": "0",
                                        "prev": "1780000000000000000000",
                                        "typeTag": 1
                                    }
                                }
                            ],
                            "typeTag": 4
                        }
                    }
                ]
            }
        ]
    }
}