{
    "balance_change": {
        "balanceChanges": [
            {
                "account": "0x2faf487a4414fe77e2327f0bf4ae2a264a776ad2",
                "assets": [
                    {
                        "address": "0xbb0e17ef65f82ab018d8edd776e8dd940327b28b",
                        "amount": "367.64206858",
                        "iconUrl": "",
                        "isERC1155": false,
                        "isERC721": false,
                        "sign": false,
                        "value": "40727.22304"
                    }
                ]
            },
            {
                "account": "0x95619d7fda014cfb75d35bc35eaeb736887b5e64",
                "assets": [
                    {
                        "address": "0xbb0e17ef65f82ab018d8edd776e8dd940327b28b",
                        "amount": "367.64206858",
                        "iconUrl": "",
                        "isERC1155": false,
                        "isERC721": false,
                        "sign": true,
                        "value": "40727.22304"
                    }
                ]
            }
        ]
    },
    "profile": {
        "basic_info": {
            "baseFee": "117.676194437",
            "blockNumber": 13399593,
            "callData": "0xa9059cbb00000000000000000000000095619d7fda014cfb75d35bc35eaeb736887b5e64000000000000000000000000000000000000000000000013ee0f0185b8b2e800",
            "debugEnable": true,
            "errorInfo": "",
            "eventCount": 1,
            "feeRecipient": "0x0708f87a089a91c65d48721aa941084648562287",
            "formatValue": "0",
            "gasLimit": 79954,
            "gasPrice": "130.816194437",
            "gasUsed": 51629,
            "intTxnCount": 0,
            "internalRevert": false,
            "internalRevertMessage": "",
            "isContractCreation": false,
            "isFlashloan": false,
            "maxFee": "1000",
            "nonce": 2237187,
            "overwritedBlockNumber": -1,
            "priorityFee": "13.14",
            "receiver": "0xbb0e17ef65f82ab018d8edd776e8dd940327b28b",
            "revertMessage": "",
            "sender": "0x2faf487a4414fe77e2327f0bf4ae2a264a776ad2",
            "simulationEnable": true,
            "sourceTxnHash": "0xe83672d6e1526eca5e415bf3c1dba8291324ba856105275f691f3045842f9b59",
            "status": true,
            "timestamp": "2021-10-11T21:08:22Z",
            "transactionFee": "0.006753909302587873",
            "txnHash": "0xe83672d6e1526eca5e415bf3c1dba8291324ba856105275f691f3045842f9b59",
            "txnIndex": 41,
            "type": 2,
            "value": "0"
        },
        "fund_flow": [
            {
                "amount": "367.64206858",
                "from": "0x2faf487a4414fe77e2327f0bf4ae2a264a776ad2",
                "id": 1,
                "isERC1155": false,
                "isERC721": false,
                "isReverted": false,
                "order": 1,
                "to": "0x95619d7fda014cfb75d35bc35eaeb736887b5e64",
                "token": "0xbb0e17ef65f82ab018d8edd776e8dd940327b28b"
            }
        ],
        "token_infos": [
            {
                "address": "0xbb0e17ef65f82ab018d8edd776e8dd940327b28b",
                "decimals": 18
            },
            {
                "address": "0xc02aaa39b223fe8d0a0e5c4f27ead9083c756cc2",
                "decimals": 18
            },
            {
                "address": "0xeeeeeeeeeeeeeeeeeeeeeeeeeeeeeeeeeeeeeeee",
                "decimals": 18
            }
        ]
    },
    "address_label": {
        "labels": [
            {
                "address": "0xbb0e17ef65f82ab018d8edd776e8dd940327b28b",
                "label": "Axie Infinity: AXS Token"
            },
            {
                "address": "0x0000000000000000000000000000000000000001",
                "label": "Precompiled"
            },
            {
                "address": "0x0000000000000000000000000000000000000002",
                "label": "Precompiled"
            },
            {
                "address": "0x0000000000000000000000000000000000000003",
                "label": "Precompiled"
            },
            {
                "address": "0x0000000000000000000000000000000000000004",
                "label": "Precompiled"
            },
            {
                "address": "0xeeeeeeeeeeeeeeeeeeeeeeeeeeeeeeeeeeeeeeee",
                "label": "Ether"
            },
            {
                "address": "0x2faf487a4414fe77e2327f0bf4ae2a264a776ad2",
                "label": "FTX Exchange"
            }
        ]
    },
    "trace": {
        "accountLabels": null,
        "dataMap": {
            "-1": {
                "invocation": {
                    "address": "0x2faf487a4414fe77e2327f0bf4ae2a264a776ad2",
                    "callData": "",
                    "decodedMethod": null,
                    "errorInfo": "",
                    "fromAddress": "",
                    "gasUsed": 0,
                    "id": -1,
                    "methodDecoded": false,
                    "operation": "",
                    "output": "",
                    "revert": false,
                    "revertMessage": "",
                    "selector": "",
                    "status": false,
                    "value": ""
                },
                "nodeType": 0
            },
            "0": {
                "invocation": {
                    "address": "0xbb0e17ef65f82ab018d8edd776e8dd940327b28b",
                    "callData": "0x00000000000000000000000095619d7fda014cfb75d35bc35eaeb736887b5e64000000000000000000000000000000000000000000000013ee0f0185b8b2e800",
                    "decodedMethod": {
                        "callParams": [
                            {
                                "name": "_to",
                                "type": "address",
                                "value": "0x95619d7fda014cfb75d35bc35eaeb736887b5e64"
                            },
                            {
                                "decimalAvailable": true,
                                "name": "_value",
                                "type": "uint256",
                                "value": "367,642,068,580,000,000,000"
                            }
                        ],
                        "constructorArguments": "",
                        "name": "transfer",
                        "returnParams": [
                            {
                                "name": "_success",
                                "type": "bool",
                                "value": true
                            }
                        ],
                        "signature": "transfer(address,uint256)"
                    },
                    "errorInfo": "",
                    "fromAddress": "0x2faf487a4414fe77e2327f0bf4ae2a264a776ad2",
                    "gasUsed": 51629,
                    "id": 0,
                    "methodDecoded": true,
                    "operation": "CALL",
                    "output": "0x0000000000000000000000000000000000000000000000000000000000000001",
                    "revert": false,
                    "revertMessage": "",
                    "selector": "0xa9059cbb",
                    "status": true,
                    "value": "0"
                },
                "nodeType": 0
            },
            "1": {
                "event": {
                    "contract": "0xbb0e17ef65f82ab018d8edd776e8dd940327b28b",
                    "decodedLog": {
                        "name": "Transfer",
                        "params": [
                            {
                                "name": "_from",
                                "type": "address",
                                "value": "0x2faf487a4414fe77e2327f0bf4ae2a264a776ad2"
                            },
                            {
                                "name": "_to",
                                "type": "address",
                                "value": "0x95619d7fda014cfb75d35bc35eaeb736887b5e64"
                            },
                            {
                                "decimalAvailable": true,
                                "name": "_value",
                                "type": "uint256",
                                "value": "367,642,068,580,000,000,000"
                            }
                        ],
                        "signature": "Transfer(address,address,uint256)"
                    },
                    "id": 1,
                    "logData": "0x000000000000000000000000000000000000000000000013ee0f0185b8b2e800",
                    "logDecoded": true,
                    "operation": "EVENT",
                    "revert": false,
                    "status": true,
                    "topics": [
                        "0xddf252ad1be2c89b69c2b068fc378daa952ba7f163c4a11628f55a4df523b3ef",
                        "0x0000000000000000000000002faf487a4414fe77e2327f0bf4ae2a264a776ad2",
                        "0x00000000000000000000000095619d7fda014cfb75d35bc35eaeb736887b5e64"
                    ]
                },
                "nodeType": 1
            }
        },
        "gasFlame": [
            {
                "children": [
                    {
                        "children": [
                            {
                                "children": [],
                                "depth": 0,
                                "name": "Initial Gas",
                                "value": 21656
                            },
                            {
                                "children": [],
                                "depth": 0,
                                "name": "Executed Gas",
                                "value": 29973
                            }
                        ],
                        "depth": -1,
                        "name": "Actual Gas Used",
                        "value": 51629
                    },
                    {
                        "children": [],
                        "depth": -1,
                        "name": "Refunded Gas",
                        "value": 0
                    }
                ],
                "depth": -2,
                "name": "Total Gas",
                "value": 51629
            }
        ],
        "isConfirmed": true,
        "mainTrace": [
            {
                "children": [
                    {
                        "children": [
                            {
                                "children": [],
                                "depth": 1,
                                "id": 1,
                                "order": 1
                            }
                        ],
                        "depth": 0,
                        "id": 0,
                        "order": 0
                    }
                ],
                "depth": -1,
                "id": -1,
                "order": -1
            }
        ],
        "mainTraceNodeCount": 2,
        "parentIdMap": {
            "0": -1,
            "1": 0
        },
        "tidyTrace": [
            {
                "children": [
                    {
                        "children": [
                            {
                                "children": [],
                                "depth": 1,
                                "id": 1,
                                "order": 1
                            }
                        ],
                        "depth": 0,
                        "id": 0,
                        "order": 0
                    }
                ],
                "depth": -1,
                "id": -1,
                "order": -1
            }
        ],
        "tidyTraceNodeCount": 2
    },
    "state_change": {
        "stateChanges": [
            {
                "address": "0xbb0e17ef65f82ab018d8edd776e8dd940327b28b",
                "erc": "ERC-20",
                "slots": [
                    {
                        "current": "0x000000000000000000000000000000000000000000000727c22ddf19f24d13d3",
                        "key": "0xb35c81d670b06bc9ad9383d433c49dcf5300e103d69c307305776b91285d0c19",
                        "prev": "0x00000000000000000000000000000000000000000000073bb03ce09faafffbd3"
                    },
                    {
                        "current": "0x000000000000000000000000000000000000000000000013ee0f0185b8b2e800",
                        "key": "0xdf0e2b5f51838f1b629e0e2374dfbbcdd29bf52e99d24f64766ac699514f8b44",
                        "prev": "0x0000000000000000000000000000000000000000000000000000000000000000"
                    }
                ],
                "storageVariables": [
                    {
                        "name": "balanceOf",
                        "type": "mapping(address => uint256)",
                        "value": {
                            "pairs": [
                                {
                                    "key": "0x2faf487a4414fe77e2327f0bf4ae2a264a776ad2",
                                    "value": {
                                        "current": "33789980483882031322067",
                                        "prev": "34157622552462031322067",
                                        "typeTag": 1
                                    }
                                },
                                {
                                    "key": "0x95619d7fda014cfb75d35bc35eaeb736887b5e64",
                                    "value": {
                                        "current": "367642068580000000000",
                                        "prev": "0",
                                        "typeTag": 1
                                    }
                                }
                            ],
                            "typeTag": 4
                        }
                    }
                ]
            }
        ]
    }
}