{
    "balance_change": {
        "balanceChanges": []
    },
    "profile": {
        "basic_info": {
            "baseFee": "20.612618745",
            "blockNumber": 15697622,
            "callData": "0x095ea7b300000000000000000000000068b3465833fb72a70ecdf485e0e4c7bd8665fc45ffffffffffffffffffffffffffffffffffffffffffffffffffffffffffffffff",
            "debugEnable": true,
            "errorInfo": "",
            "eventCount": 1,
            "feeRecipient": "0x4675c7e5baafbffbca748158becba61ef3b0a263",
            "formatValue": "0",
            "gasLimit": 55951,
            "gasPrice": "22.112618745",
            "gasUsed": 46626,
            "intTxnCount": 0,
            "internalRevert": false,
            "internalRevertMessage": "",
            "isContractCreation": false,
            "isFlashloan": false,
            "maxFee": "28.331254194",
            "nonce": 478,
            "overwritedBlockNumber": -1,
            "priorityFee": "1.5",
            "receiver": "0xc9e358526495981e3faaffda5fbee7b34f4b088f",
            "revertMessage": "",
            "sender": "0x289840eed2f97807b9a7fbf800aae3aca49cf771",
            "simulationEnable": true,
            "sourceTxnHash": "0xe856630a0e3524dbd8d4b17af71bf97d9700d0a0ffc5fb6b73ffc1c6093a65d9",
            "status": true,
            "timestamp": "2022-10-07T17:12:47Z",
            "transactionFee": "0.00103102296160437",
            "txnHash": "0xe856630a0e3524dbd8d4b17af71bf97d9700d0a0ffc5fb6b73ffc1c6093a65d9",
            "txnIndex": 39,
            "type": 2,
            "value": "0"
        },
        "fund_flow": [],
        "token_infos": [
            {
                "address": "0xc02aaa39b223fe8d0a0e5c4f27ead9083c756cc2",
                "decimals": 18
            },
            {
                "address": "0xeeeeeeeeeeeeeeeeeeeeeeeeeeeeeeeeeeeeeeee",
                "decimals": 18
            }
        ]
    },
    "address_label": {
        "labels": [
            {
                "address": "0x68b3465833fb72a70ecdf485e0e4c7bd8665fc45",
                "label": "Uniswap V3: Router 2"
            },
            {
                "address": "0xc9e358526495981e3faaffda5fbee7b34f4b088f",
                "label": "Story"
            },
            {
                "address": "0x0000000000000000000000000000000000000001",
                "label": "Precompiled"
            },
            {
                "address": "0x0000000000000000000000000000000000000002",
                "label": "Precompiled"
            },
            {
                "address": "0x0000000000000000000000000000000000000003",
                "label": "Precompiled"
            },
            {
                "address": "0x0000000000000000000000000000000000000004",
                "label": "Precompiled"
            },
            {
                "address": "0xeeeeeeeeeeeeeeeeeeeeeeeeeeeeeeeeeeeeeeee",
                "label": "Ether"
            }
        ]
    },
    "trace": {
        "accountLabels": null,
        "dataMap": {
            "-1": {
                "invocation": {
                    "address": "0x289840eed2f97807b9a7fbf800aae3aca49cf771",
                    "callData": "",
                    "decodedMethod": null,
                    "errorInfo": "",
                    "fromAddress": "",
                    "gasUsed": 0,
                    "id": -1,
                    "methodDecoded": false,
                    "operation": "",
                    "output": "",
                    "revert": false,
                    "revertMessage": "",
                    "selector": "",
                    "status": false,
                    "value": ""
                },
                "nodeType": 0
            },
            "0": {
                "invocation": {
                    "address": "0xc9e358526495981e3faaffda5fbee7b34f4b088f",
                    "callData": "0x00000000000000000000000068b3465833fb72a70ecdf485e0e4c7bd8665fc45ffffffffffffffffffffffffffffffffffffffffffffffffffffffffffffffff",
                    "decodedMethod": {
                        "callParams": [
                            {
                                "name": "spender",
                                "type": "address",
                                "value": "0x68b3465833fb72a70ecdf485e0e4c7bd8665fc45"
                            },
                            {
                                "decimalAvailable": true,
                                "name": "amount",
                                "type": "uint256",
                                "value": "115,792,089,237,316,195,423,570,985,008,687,907,853,269,984,665,640,564,039,457,584,007,913,129,639,935"
                            }
                        ],
                        "constructorArguments": "",
                        "name": "approve",
                        "returnParams": [
                            {
                                "name": "",
                                "type": "bool",
                                "value": true
                            }
                        ],
                        "signature": "approve(address,uint256)"
                    },
                    "errorInfo": "",
                    "fromAddress": "0x289840eed2f97807b9a7fbf800aae3aca49cf771",
                    "gasUsed": 46626,
                    "id": 0,
                    "methodDecoded": true,
                    "operation": "CALL",
                    "output": "0x0000000000000000000000000000000000000000000000000000000000000001",
                    "revert": false,
                    "revertMessage": "",
                    "selector": "0x095ea7b3",
                    "status": true,
                    "value": "0"
                },
                "nodeType": 0
            },
            "1": {
                "event": {
                    "contract": "0xc9e358526495981e3faaffda5fbee7b34f4b088f",
                    "decodedLog": {
                        "name": "Approval",
                        "params": [
                            {
                                "name": "owner",
                                "type": "address",
                                "value": "0x289840eed2f97807b9a7fbf800aae3aca49cf771"
                            },
                            {
                                "name": "spender",
                                "type": "address",
                                "value": "0x68b3465833fb72a70ecdf485e0e4c7bd8665fc45"
                            },
                            {
                                "decimalAvailable": true,
                                "name": "value",
                                "type": "uint256",
                                "value": "115,792,089,237,316,195,423,570,985,008,687,907,853,269,984,665,640,564,039,457,584,007,913,129,639,935"
                            }
                        ],
                        "signature": "Approval(address,address,uint256)"
                    },
                    "id": 1,
                    "logData": "0xffffffffffffffffffffffffffffffffffffffffffffffffffffffffffffffff",
                    "logDecoded": true,
                    "operation": "EVENT",
                    "revert": false,
                    "status": true,
                    "topics": [
                        "0x8c5be1e5ebec7d5bd14f71427d1e84f3dd0314c0f7b2291e5b200ac8c7c3b925",
                        "0x000000000000000000000000289840eed2f97807b9a7fbf800aae3aca49cf771",
                        "0x00000000000000000000000068b3465833fb72a70ecdf485e0e4c7bd8665fc45"
                    ]
                },
                "nodeType": 1
            }
        },
        "gasFlame": [
            {
                "children": [
                    {
                        "children": [
                            {
                                "children": [],
                                "depth": 0,
                                "name": "Initial Gas",
                                "value": 21944
                            },
                            {
                                "children": [],
                                "depth": 0,
                                "name": "Executed Gas",
                                "value": 24682
                            }
                        ],
                        "depth": -1,
                        "name": "Actual Gas Used",
                        "value": 46626
                    },
                    {
                        "children": [],
                        "depth": -1,
                        "name": "Refunded Gas",
                        "value": 0
                    }
                ],
                "depth": -2,
                "name": "Total Gas",
                "value": 46626
            }
        ],
        "isConfirmed": true,
        "mainTrace": [
            {
                "children": [
                    {
                        "children": [
                            {
                                "children": [],
                                "depth": 1,
                                "id": 1,
                                "order": 1
                            }
                        ],
                        "depth": 0,
                        "id": 0,
                        "order": 0
                    }
                ],
                "depth": -1,
                "id": -1,
                "order": -1
            }
        ],
        "mainTraceNodeCount": 2,
        "parentIdMap": {
            "0": -1,
            "1": 0
        },
        "tidyTrace": [
            {
                "children": [
                    {
                        "children": [
                            {
                                "children": [],
                                "depth": 1,
                                "id": 1,
                                "order": 1
                            }
                        ],
                        "depth": 0,
                        "id": 0,
                        "order": 0
                    }
                ],
                "depth": -1,
                "id": -1,
                "order": -1
            }
        ],
        "tidyTraceNodeCount": 2
    },
    "state_change": {
        "stateChanges": [
            {
                "address": "0xc9e358526495981e3faaffda5fbee7b34f4b088f",
                "erc": "ERC-20",
                "slots": [
                    {
                        "current": "0xffffffffffffffffffffffffffffffffffffffffffffffffffffffffffffffff",
                        "key": "0x8ccffad20162c8e7a9c856895bbff3ef4969046792763589b65711980858fae9",
                        "prev": "0x0000000000000000000000000000000000000000000000000000000000000000"
                    }
                ],
                "storageVariables": [
                    {
                        "name": "_allowances",
                        "type": "mapping(address => mapping(address => uint256))",
                        "value": {
                            "pairs": [
                                {
                                    "key": "0x289840eed2f97807b9a7fbf800aae3aca49cf771",
                                    "value": {
                                        "pairs": [
                                            {
                                                "key": "0x68b3465833fb72a70ecdf485e0e4c7bd8665fc45",
                                                "value": {
                                                    "current": "115792089237316195423570985008687907853269984665640564039457584007913129639935",
                                                    "prev": "0",
                                                    "typeTag": 1
                                                }
                                            }
                                        ],
                                        "typeTag": 4
                                    }
                                }
                            ],
                            "typeTag": 4
                        }
                    }
                ]
            }
        ]
    }
}