{
    "balance_change": {
        "balanceChanges": [
            {
                "account": "0xe59f0e2e327a11f4621dbd9676786d951dbcae67",
                "assets": [
                    {
                        "address": "0xeeeeeeeeeeeeeeeeeeeeeeeeeeeeeeeeeeeeeeee",
                        "amount": "0.015",
                        "iconUrl": "https://assets.blocksec.com/image/1663669189317-3.png",
                        "isERC1155": false,
                        "isERC721": false,
                        "sign": false,
                        "value": "40.959899999999997817"
                    },
                    {
                        "address": "0x178a936d436e161182e1958d8f13a7b4f5cbd60d",
                        "amount": "672,386,676,652.332038481",
                        "iconUrl": "",
                        "isERC1155": false,
                        "isERC721": false,
                        "sign": true,
                        "value": "36.99316124"
                    }
                ]
            },
            {
                "account": "0xc02aaa39b223fe8d0a0e5c4f27ead9083c756cc2",
                "assets": [
                    {
                        "address": "0xeeeeeeeeeeeeeeeeeeeeeeeeeeeeeeeeeeeeeeee",
                        "amount": "0.015",
                        "iconUrl": "https://assets.blocksec.com/image/1663669189317-3.png",
                        "isERC1155": false,
                        "isERC721": false,
                        "sign": true,
                        "value": "40.959899999999997817"
                    },
                    {
                        "address": "0xc02aaa39b223fe8d0a0e5c4f27ead9083c756cc2",
                        "amount": "0.015",
                        "iconUrl": "https://assets.blocksec.com/icon/f1cb2d02c471d545bbc7722daf3277fd852d98e63d118771af7047bd8256c516.png",
                        "isERC1155": false,
                        "isERC721": false,
                        "sign": false,
                        "value": "40.959899999999997817"
                    }
                ]
            },
            {
                "account": "0xcd7d0fce596bd176b1b781189bd22fe8576a6c74",
                "assets": [
                    {
                        "address": "0xc02aaa39b223fe8d0a0e5c4f27ead9083c756cc2",
                        "amount": "0.015",
                        "iconUrl": "https://assets.blocksec.com/icon/f1cb2d02c471d545bbc7722daf3277fd852d98e63d118771af7047bd8256c516.png",
                        "isERC1155": false,
                        "isERC721": false,
                        "sign": true,
                        "value": "40.959899999999997817"
                    },
                    {
                        "address": "0x178a936d436e161182e1958d8f13a7b4f5cbd60d",
                        "amount": "672,386,676,652.332038481",
                        "iconUrl": "",
                        "isERC1155": false,
                        "isERC721": false,
                        "sign": false,
                        "value": "36.99316124"
                    }
                ]
            }
        ]
    },
    "profile": {
        "basic_info": {
            "baseFee": "",
            "blockNumber": 12961878,
            "callData": "0x7ff36ab50000000000000000000000000000000000000000000000214b3c9d69b16d9d630000000000000000000000000000000000000000000000000000000000000080000000000000000000000000e59f0e2e327a11f4621dbd9676786d951dbcae6700000000000000000000000000000000000000000000000000000000610b33fe0000000000000000000000000000000000000000000000000000000000000002000000000000000000000000c02aaa39b223fe8d0a0e5c4f27ead9083c756cc2000000000000000000000000178a936d436e161182e1958d8f13a7b4f5cbd60d",
            "debugEnable": true,
            "errorInfo": "",
            "eventCount": 5,
            "feeRecipient": "0x99c85bb64564d9ef9a99621301f22c9993cb89e3",
            "formatValue": "0.015",
            "gasLimit": 262830,
            "gasPrice": "50.6",
            "gasUsed": 192376,
            "intTxnCount": 7,
            "internalRevert": false,
            "internalRevertMessage": "",
            "isContractCreation": false,
            "isFlashloan": false,
            "maxFee": "",
            "nonce": 67,
            "overwritedBlockNumber": -1,
            "priorityFee": "",
            "receiver": "0x7a250d5630b4cf539739df2c5dacb4c659f2488d",
            "revertMessage": "",
            "sender": "0xe59f0e2e327a11f4621dbd9676786d951dbcae67",
            "simulationEnable": true,
            "sourceTxnHash": "0xe8d7328aa96591209fe54dfbf465f35d30484bda4851c8c6d6146cb38da5936e",
            "status": true,
            "timestamp": "2021-08-05T00:41:14Z",
            "transactionFee": "0.0097342256",
            "txnHash": "0xe8d7328aa96591209fe54dfbf465f35d30484bda4851c8c6d6146cb38da5936e",
            "txnIndex": 50,
            "type": 0,
            "value": "15000000000000000"
        },
        "fund_flow": [
            {
                "amount": "0.015",
                "from": "0xe59f0e2e327a11f4621dbd9676786d951dbcae67",
                "id": 1,
                "isERC1155": false,
                "isERC721": false,
                "isReverted": false,
                "order": 1,
                "to": "0x7a250d5630b4cf539739df2c5dacb4c659f2488d",
                "token": "0xeeeeeeeeeeeeeeeeeeeeeeeeeeeeeeeeeeeeeeee"
            },
            {
                "amount": "0.015",
                "from": "0x7a250d5630b4cf539739df2c5dacb4c659f2488d",
                "id": 2,
                "isERC1155": false,
                "isERC721": false,
                "isReverted": false,
                "order": 2,
                "to": "0xc02aaa39b223fe8d0a0e5c4f27ead9083c756cc2",
                "token": "0xeeeeeeeeeeeeeeeeeeeeeeeeeeeeeeeeeeeeeeee"
            },
            {
                "amount": "0.015",
                "from": "0xc02aaa39b223fe8d0a0e5c4f27ead9083c756cc2",
                "id": 3,
                "isERC1155": false,
                "isERC721": false,
                "isReverted": false,
                "order": 3,
                "to": "0x7a250d5630b4cf539739df2c5dacb4c659f2488d",
                "token": "0xc02aaa39b223fe8d0a0e5c4f27ead9083c756cc2"
            },
            {
                "amount": "0.015",
                "from": "0x7a250d5630b4cf539739df2c5dacb4c659f2488d",
                "id": 4,
                "isERC1155": false,
                "isERC721": false,
                "isReverted": false,
                "order": 4,
                "to": "0xcd7d0fce596bd176b1b781189bd22fe8576a6c74",
                "token": "0xc02aaa39b223fe8d0a0e5c4f27ead9083c756cc2"
            },
            {
                "amount": "672,386,676,652.332038481",
                "from": "0xcd7d0fce596bd176b1b781189bd22fe8576a6c74",
                "id": 5,
                "isERC1155": false,
                "isERC721": false,
                "isReverted": false,
                "order": 5,
                "to": "0xe59f0e2e327a11f4621dbd9676786d951dbcae67",
                "token": "0x178a936d436e161182e1958d8f13a7b4f5cbd60d"
            }
        ],
        "token_infos": [
            {
                "address": "0x178a936d436e161182e1958d8f13a7b4f5cbd60d",
                "decimals": 9
            },
            {
                "address": "0xc02aaa39b223fe8d0a0e5c4f27ead9083c756cc2",
                "decimals": 18
            },
            {
                "address": "0xeeeeeeeeeeeeeeeeeeeeeeeeeeeeeeeeeeeeeeee",
                "decimals": 18
            }
        ]
    },
    "address_label": {
        "labels": [
            {
                "address": "0xeeeeeeeeeeeeeeeeeeeeeeeeeeeeeeeeeeeeeeee",
                "label": "Ether"
            },
            {
                "address": "0x178a936d436e161182e1958d8f13a7b4f5cbd60d",
                "label": "BabyXiPing (BXP)"
            },
            {
                "address": "0x0000000000000000000000000000000000000003",
                "label": "Precompiled"
            },
            {
                "address": "0x0000000000000000000000000000000000000004",
                "label": "Precompiled"
            },
            {
                "address": "0x7a250d5630b4cf539739df2c5dacb4c659f2488d",
                "label": "Uniswap V2: Router 2"
            },
            {
                "address": "0xc02aaa39b223fe8d0a0e5c4f27ead9083c756cc2",
                "label": "Wrapped Ether (WETH)"
            },
            {
                "address": "0xcd7d0fce596bd176b1b781189bd22fe8576a6c74",
                "label": "Uniswap V2: BXP 2"
            },
            {
                "address": "0x0000000000000000000000000000000000000001",
                "label": "Precompiled"
            },
            {
                "address": "0x0000000000000000000000000000000000000002",
                "label": "Precompiled"
            }
        ]
    },
    "trace": {
        "accountLabels": null,
        "dataMap": {
            "-1": {
                "invocation": {
                    "address": "0xe59f0e2e327a11f4621dbd9676786d951dbcae67",
                    "callData": "",
                    "decodedMethod": null,
                    "errorInfo": "",
                    "fromAddress": "",
                    "gasUsed": 0,
                    "id": -1,
                    "methodDecoded": false,
                    "operation": "",
                    "output": "",
                    "revert": false,
                    "revertMessage": "",
                    "selector": "",
                    "status": false,
                    "value": ""
                },
                "nodeType": 0
            },
            "0": {
                "invocation": {
                    "address": "0x7a250d5630b4cf539739df2c5dacb4c659f2488d",
                    "callData": "0x0000000000000000000000000000000000000000000000214b3c9d69b16d9d630000000000000000000000000000000000000000000000000000000000000080000000000000000000000000e59f0e2e327a11f4621dbd9676786d951dbcae6700000000000000000000000000000000000000000000000000000000610b33fe0000000000000000000000000000000000000000000000000000000000000002000000000000000000000000c02aaa39b223fe8d0a0e5c4f27ead9083c756cc2000000000000000000000000178a936d436e161182e1958d8f13a7b4f5cbd60d",
                    "decodedMethod": {
                        "callParams": [
                            {
                                "name": "amountOutMin",
                                "type": "uint256",
                                "value": "614,163,935,561,136,315,747"
                            },
                            {
                                "name": "path",
                                "type": "address[]",
                                "value": [
                                    "0xc02aaa39b223fe8d0a0e5c4f27ead9083c756cc2",
                                    "0x178a936d436e161182e1958d8f13a7b4f5cbd60d"
                                ]
                            },
                            {
                                "name": "to",
                                "type": "address",
                                "value": "0xe59f0e2e327a11f4621dbd9676786d951dbcae67"
                            },
                            {
                                "name": "deadline",
                                "type": "uint256",
                                "value": "1,628,124,158"
                            }
                        ],
                        "constructorArguments": "",
                        "name": "swapExactETHForTokens",
                        "returnParams": [
                            {
                                "name": "amounts",
                                "type": "uint256[]",
                                "value": [
                                    "15,000,000,000,000,000",
                                    "730,855,083,317,752,215,739"
                                ]
                            }
                        ],
                        "signature": "swapExactETHForTokens(uint256,address[],address,uint256)"
                    },
                    "errorInfo": "",
                    "fromAddress": "0xe59f0e2e327a11f4621dbd9676786d951dbcae67",
                    "gasUsed": 192376,
                    "id": 0,
                    "methodDecoded": true,
                    "operation": "CALL",
                    "output": "0x0000000000000000000000000000000000000000000000000000000000000020000000000000000000000000000000000000000000000000000000000000000200000000000000000000000000000000000000000000000000354a6ba7a180000000000000000000000000000000000000000000000000279ea6da0a9323b8bb",
                    "revert": false,
                    "revertMessage": "",
                    "selector": "0x7ff36ab5",
                    "status": true,
                    "value": "0.015"
                },
                "nodeType": 0
            },
            "1": {
                "invocation": {
                    "address": "0xcd7d0fce596bd176b1b781189bd22fe8576a6c74",
                    "callData": "0x",
                    "decodedMethod": {
                        "callParams": [],
                        "constructorArguments": "",
                        "name": "getReserves",
                        "returnParams": [
                            {
                                "name": "_reserve0",
                                "type": "uint112",
                                "value": "128,699,581,459,829,666,455,667"
                            },
                            {
                                "name": "_reserve1",
                                "type": "uint112",
                                "value": "2,618,538,677,015,247,920"
                            },
                            {
                                "name": "_blockTimestampLast",
                                "type": "uint32",
                                "value": "1,628,124,032"
                            }
                        ],
                        "signature": "getReserves()"
                    },
                    "errorInfo": "",
                    "fromAddress": "0x7a250d5630b4cf539739df2c5dacb4c659f2488d",
                    "gasUsed": 2504,
                    "id": 1,
                    "methodDecoded": true,
                    "operation": "STATICCALL",
                    "output": "0x000000000000000000000000000000000000000000001b40d17b821bc479a0730000000000000000000000000000000000000000000000002456eb0d9a1d7c3000000000000000000000000000000000000000000000000000000000610b3380",
                    "revert": false,
                    "revertMessage": "",
                    "selector": "0x0902f1ac",
                    "status": true,
                    "value": "0"
                },
                "nodeType": 0
            },
            "10": {
                "invocation": {
                    "address": "0xc02aaa39b223fe8d0a0e5c4f27ead9083c756cc2",
                    "callData": "0x000000000000000000000000cd7d0fce596bd176b1b781189bd22fe8576a6c74",
                    "decodedMethod": {
                        "callParams": [
                            {
                                "name": "",
                                "type": "address",
                                "value": "0xcd7d0fce596bd176b1b781189bd22fe8576a6c74"
                            }
                        ],
                        "constructorArguments": "",
                        "name": "balanceOf",
                        "returnParams": [
                            {
                                "decimalAvailable": true,
                                "name": "",
                                "type": "uint256",
                                "value": "2,633,538,677,015,247,920"
                            }
                        ],
                        "signature": "balanceOf(address)"
                    },
                    "errorInfo": "",
                    "fromAddress": "0xcd7d0fce596bd176b1b781189bd22fe8576a6c74",
                    "gasUsed": 534,
                    "id": 10,
                    "methodDecoded": true,
                    "operation": "STATICCALL",
                    "output": "0x000000000000000000000000000000000000000000000000248c357941befc30",
                    "revert": false,
                    "revertMessage": "",
                    "selector": "0x70a08231",
                    "status": true,
                    "value": "0"
                },
                "nodeType": 0
            },
            "11": {
                "event": {
                    "contract": "0xcd7d0fce596bd176b1b781189bd22fe8576a6c74",
                    "decodedLog": {
                        "name": "Sync",
                        "params": [
                            {
                                "name": "reserve0",
                                "type": "uint112",
                                "value": "127,972,467,549,649,249,329,682"
                            },
                            {
                                "name": "reserve1",
                                "type": "uint112",
                                "value": "2,633,538,677,015,247,920"
                            }
                        ],
                        "signature": "Sync(uint112,uint112)"
                    },
                    "id": 11,
                    "logData": "0x000000000000000000000000000000000000000000001b1966bff936c76d6212000000000000000000000000000000000000000000000000248c357941befc30",
                    "logDecoded": true,
                    "operation": "EVENT",
                    "revert": false,
                    "status": true,
                    "topics": [
                        "0x1c411e9a96e071241c2f21f7726b17ae89e3cab4c78be50e062b03a9fffbbad1"
                    ]
                },
                "nodeType": 1
            },
            "12": {
                "event": {
                    "contract": "0xcd7d0fce596bd176b1b781189bd22fe8576a6c74",
                    "decodedLog": {
                        "name": "Swap",
                        "params": [
                            {
                                "name": "sender",
                                "type": "address",
                                "value": "0x7a250d5630b4cf539739df2c5dacb4c659f2488d"
                            },
                            {
                                "name": "to",
                                "type": "address",
                                "value": "0xe59f0e2e327a11f4621dbd9676786d951dbcae67"
                            },
                            {
                                "name": "amount0In",
                                "type": "uint256",
                                "value": "3,741,173,137,335,089,754"
                            },
                            {
                                "name": "amount1In",
                                "type": "uint256",
                                "value": "15,000,000,000,000,000"
                            },
                            {
                                "name": "amount0Out",
                                "type": "uint256",
                                "value": "730,855,083,317,752,215,739"
                            },
                            {
                                "name": "amount1Out",
                                "type": "uint256",
                                "value": "0"
                            }
                        ],
                        "signature": "Swap(address,uint256,uint256,uint256,uint256,address)"
                    },
                    "id": 12,
                    "logData": "0x00000000000000000000000000000000000000000000000033eb512596177a5a00000000000000000000000000000000000000000000000000354a6ba7a180000000000000000000000000000000000000000000000000279ea6da0a9323b8bb0000000000000000000000000000000000000000000000000000000000000000",
                    "logDecoded": true,
                    "operation": "EVENT",
                    "revert": false,
                    "status": true,
                    "topics": [
                        "0xd78ad95fa46c994b6551d0da85fc275fe613ce37657fb8d5e3d130840159d822",
                        "0x0000000000000000000000007a250d5630b4cf539739df2c5dacb4c659f2488d",
                        "0x000000000000000000000000e59f0e2e327a11f4621dbd9676786d951dbcae67"
                    ]
                },
                "nodeType": 1
            },
            "2": {
                "invocation": {
                    "address": "0xc02aaa39b223fe8d0a0e5c4f27ead9083c756cc2",
                    "callData": "0x",
                    "decodedMethod": {
                        "callParams": [],
                        "constructorArguments": "",
                        "name": "deposit",
                        "returnParams": [],
                        "signature": "deposit()"
                    },
                    "errorInfo": "",
                    "fromAddress": "0x7a250d5630b4cf539739df2c5dacb4c659f2488d",
                    "gasUsed": 23974,
                    "id": 2,
                    "methodDecoded": true,
                    "operation": "CALL",
                    "output": "",
                    "revert": false,
                    "revertMessage": "",
                    "selector": "0xd0e30db0",
                    "status": true,
                    "value": "0.015"
                },
                "nodeType": 0
            },
            "3": {
                "event": {
                    "contract": "0xc02aaa39b223fe8d0a0e5c4f27ead9083c756cc2",
                    "decodedLog": {
                        "name": "Deposit",
                        "params": [
                            {
                                "name": "dst",
                                "type": "address",
                                "value": "0x7a250d5630b4cf539739df2c5dacb4c659f2488d"
                            },
                            {
                                "name": "wad",
                                "type": "uint256",
                                "value": "15,000,000,000,000,000"
                            }
                        ],
                        "signature": "Deposit(address,uint256)"
                    },
                    "id": 3,
                    "logData": "0x00000000000000000000000000000000000000000000000000354a6ba7a18000",
                    "logDecoded": true,
                    "operation": "EVENT",
                    "revert": false,
                    "status": true,
                    "topics": [
                        "0xe1fffcc4923d04b559f4d29a8bfc6cda04eb5b0d3c460751c2402c5c5cc9109c",
                        "0x0000000000000000000000007a250d5630b4cf539739df2c5dacb4c659f2488d"
                    ]
                },
                "nodeType": 1
            },
            "4": {
                "invocation": {
                    "address": "0xc02aaa39b223fe8d0a0e5c4f27ead9083c756cc2",
                    "callData": "0x000000000000000000000000cd7d0fce596bd176b1b781189bd22fe8576a6c7400000000000000000000000000000000000000000000000000354a6ba7a18000",
                    "decodedMethod": {
                        "callParams": [
                            {
                                "name": "dst",
                                "type": "address",
                                "value": "0xcd7d0fce596bd176b1b781189bd22fe8576a6c74"
                            },
                            {
                                "decimalAvailable": true,
                                "name": "wad",
                                "type": "uint256",
                                "value": "15,000,000,000,000,000"
                            }
                        ],
                        "constructorArguments": "",
                        "name": "transfer",
                        "returnParams": [
                            {
                                "name": "",
                                "type": "bool",
                                "value": true
                            }
                        ],
                        "signature": "transfer(address,uint256)"
                    },
                    "errorInfo": "",
                    "fromAddress": "0x7a250d5630b4cf539739df2c5dacb4c659f2488d",
                    "gasUsed": 8062,
                    "id": 4,
                    "methodDecoded": true,
                    "operation": "CALL",
                    "output": "0x0000000000000000000000000000000000000000000000000000000000000001",
                    "revert": false,
                    "revertMessage": "",
                    "selector": "0xa9059cbb",
                    "status": true,
                    "value": "0"
                },
                "nodeType": 0
            },
            "5": {
                "event": {
                    "contract": "0xc02aaa39b223fe8d0a0e5c4f27ead9083c756cc2",
                    "decodedLog": {
                        "name": "Transfer",
                        "params": [
                            {
                                "name": "src",
                                "type": "address",
                                "value": "0x7a250d5630b4cf539739df2c5dacb4c659f2488d"
                            },
                            {
                                "name": "dst",
                                "type": "address",
                                "value": "0xcd7d0fce596bd176b1b781189bd22fe8576a6c74"
                            },
                            {
                                "decimalAvailable": true,
                                "name": "wad",
                                "type": "uint256",
                                "value": "15,000,000,000,000,000"
                            }
                        ],
                        "signature": "Transfer(address,address,uint256)"
                    },
                    "id": 5,
                    "logData": "0x00000000000000000000000000000000000000000000000000354a6ba7a18000",
                    "logDecoded": true,
                    "operation": "EVENT",
                    "revert": false,
                    "status": true,
                    "topics": [
                        "0xddf252ad1be2c89b69c2b068fc378daa952ba7f163c4a11628f55a4df523b3ef",
                        "0x0000000000000000000000007a250d5630b4cf539739df2c5dacb4c659f2488d",
                        "0x000000000000000000000000cd7d0fce596bd176b1b781189bd22fe8576a6c74"
                    ]
                },
                "nodeType": 1
            },
            "6": {
                "invocation": {
                    "address": "0xcd7d0fce596bd176b1b781189bd22fe8576a6c74",
                    "callData": "0x0000000000000000000000000000000000000000000000279ea6da0a9323b8bb0000000000000000000000000000000000000000000000000000000000000000000000000000000000000000e59f0e2e327a11f4621dbd9676786d951dbcae6700000000000000000000000000000000000000000000000000000000000000800000000000000000000000000000000000000000000000000000000000000000",
                    "decodedMethod": {
                        "callParams": [
                            {
                                "name": "amount0Out",
                                "type": "uint256",
                                "value": "730,855,083,317,752,215,739"
                            },
                            {
                                "name": "amount1Out",
                                "type": "uint256",
                                "value": "0"
                            },
                            {
                                "name": "to",
                                "type": "address",
                                "value": "0xe59f0e2e327a11f4621dbd9676786d951dbcae67"
                            },
                            {
                                "name": "data",
                                "type": "bytes",
                                "value": "0x"
                            }
                        ],
                        "constructorArguments": "",
                        "name": "swap",
                        "returnParams": [],
                        "signature": "swap(uint256,uint256,address,bytes)"
                    },
                    "errorInfo": "",
                    "fromAddress": "0x7a250d5630b4cf539739df2c5dacb4c659f2488d",
                    "gasUsed": 138411,
                    "id": 6,
                    "methodDecoded": true,
                    "operation": "CALL",
                    "output": "",
                    "revert": false,
                    "revertMessage": "",
                    "selector": "0x022c0d9f",
                    "status": true,
                    "value": "0"
                },
                "nodeType": 0
            },
            "7": {
                "invocation": {
                    "address": "0x178a936d436e161182e1958d8f13a7b4f5cbd60d",
                    "callData": "0x000000000000000000000000e59f0e2e327a11f4621dbd9676786d951dbcae670000000000000000000000000000000000000000000000279ea6da0a9323b8bb",
                    "decodedMethod": {
                        "callParams": [
                            {
                                "name": "recipient",
                                "type": "address",
                                "value": "0xe59f0e2e327a11f4621dbd9676786d951dbcae67"
                            },
                            {
                                "decimalAvailable": true,
                                "name": "amount",
                                "type": "uint256",
                                "value": "730,855,083,317,752,215,739"
                            }
                        ],
                        "constructorArguments": "",
                        "name": "transfer",
                        "returnParams": [
                            {
                                "name": "",
                                "type": "bool",
                                "value": true
                            }
                        ],
                        "signature": "transfer(address,uint256)"
                    },
                    "errorInfo": "",
                    "fromAddress": "0xcd7d0fce596bd176b1b781189bd22fe8576a6c74",
                    "gasUsed": 101469,
                    "id": 7,
                    "methodDecoded": true,
                    "operation": "CALL",
                    "output": "0x0000000000000000000000000000000000000000000000000000000000000001",
                    "revert": false,
                    "revertMessage": "",
                    "selector": "0xa9059cbb",
                    "status": true,
                    "value": "0"
                },
                "nodeType": 0
            },
            "8": {
                "event": {
                    "contract": "0x178a936d436e161182e1958d8f13a7b4f5cbd60d",
                    "decodedLog": {
                        "name": "Transfer",
                        "params": [
                            {
                                "name": "from",
                                "type": "address",
                                "value": "0xcd7d0fce596bd176b1b781189bd22fe8576a6c74"
                            },
                            {
                                "name": "to",
                                "type": "address",
                                "value": "0xe59f0e2e327a11f4621dbd9676786d951dbcae67"
                            },
                            {
                                "decimalAvailable": true,
                                "name": "value",
                                "type": "uint256",
                                "value": "672,386,676,652,332,038,481"
                            }
                        ],
                        "signature": "Transfer(address,address,uint256)"
                    },
                    "id": 8,
                    "logData": "0x000000000000000000000000000000000000000000000024733d57f53fb03951",
                    "logDecoded": true,
                    "operation": "EVENT",
                    "revert": false,
                    "status": true,
                    "topics": [
                        "0xddf252ad1be2c89b69c2b068fc378daa952ba7f163c4a11628f55a4df523b3ef",
                        "0x000000000000000000000000cd7d0fce596bd176b1b781189bd22fe8576a6c74",
                        "0x000000000000000000000000e59f0e2e327a11f4621dbd9676786d951dbcae67"
                    ]
                },
                "nodeType": 1
            },
            "9": {
                "invocation": {
                    "address": "0x178a936d436e161182e1958d8f13a7b4f5cbd60d",
                    "callData": "0x000000000000000000000000cd7d0fce596bd176b1b781189bd22fe8576a6c74",
                    "decodedMethod": {
                        "callParams": [
                            {
                                "name": "account",
                                "type": "address",
                                "value": "0xcd7d0fce596bd176b1b781189bd22fe8576a6c74"
                            }
                        ],
                        "constructorArguments": "",
                        "name": "balanceOf",
                        "returnParams": [
                            {
                                "decimalAvailable": true,
                                "name": "",
                                "type": "uint256",
                                "value": "127,972,467,549,649,249,329,682"
                            }
                        ],
                        "signature": "balanceOf(address)"
                    },
                    "errorInfo": "",
                    "fromAddress": "0xcd7d0fce596bd176b1b781189bd22fe8576a6c74",
                    "gasUsed": 2588,
                    "id": 9,
                    "methodDecoded": true,
                    "operation": "STATICCALL",
                    "output": "0x000000000000000000000000000000000000000000001b1966bff936c76d6212",
                    "revert": false,
                    "revertMessage": "",
                    "selector": "0x70a08231",
                    "status": true,
                    "value": "0"
                },
                "nodeType": 0
            }
        },
        "gasFlame": [
            {
                "children": [
                    {
                        "children": [
                            {
                                "children": [],
                                "depth": 0,
                                "name": "Initial Gas",
                                "value": 22860
                            },
                            {
                                "children": [
                                    {
                                        "children": [],
                                        "depth": 1,
                                        "name": "getReserves",
                                        "value": 2504
                                    },
                                    {
                                        "children": [],
                                        "depth": 1,
                                        "name": "deposit",
                                        "value": 23974
                                    },
                                    {
                                        "children": [],
                                        "depth": 1,
                                        "name": "transfer",
                                        "value": 8062
                                    },
                                    {
                                        "children": [
                                            {
                                                "children": [],
                                                "depth": 2,
                                                "name": "transfer",
                                                "value": 101469
                                            },
                                            {
                                                "children": [],
                                                "depth": 2,
                                                "name": "balanceOf",
                                                "value": 2588
                                            },
                                            {
                                                "children": [],
                                                "depth": 2,
                                                "name": "balanceOf",
                                                "value": 534
                                            }
                                        ],
                                        "depth": 1,
                                        "name": "swap",
                                        "value": 138411
                                    }
                                ],
                                "depth": 0,
                                "name": "Executed Gas",
                                "value": 192216
                            }
                        ],
                        "depth": -1,
                        "name": "Actual Gas Used",
                        "value": 192376
                    },
                    {
                        "children": [],
                        "depth": -1,
                        "name": "Refunded Gas",
                        "value": 22700
                    }
                ],
                "depth": -2,
                "name": "Total Gas",
                "value": 215076
            }
        ],
        "isConfirmed": true,
        "mainTrace": [
            {
                "children": [
                    {
                        "children": [
                            {
                                "children": [],
                                "depth": 1,
                                "id": 1,
                                "order": 1
                            },
                            {
                                "children": [
                                    {
                                        "children": [],
                                        "depth": 2,
                                        "id": 3,
                                        "order": 3
                                    }
                                ],
                                "depth": 1,
                                "id": 2,
                                "order": 2
                            },
                            {
                                "children": [
                                    {
                                        "children": [],
                                        "depth": 2,
                                        "id": 5,
                                        "order": 5
                                    }
                                ],
                                "depth": 1,
                                "id": 4,
                                "order": 4
                            },
                            {
                                "children": [
                                    {
                                        "children": [
                                            {
                                                "children": [],
                                                "depth": 3,
                                                "id": 8,
                                                "order": 8
                                            }
                                        ],
                                        "depth": 2,
                                        "id": 7,
                                        "order": 7
                                    },
                                    {
                                        "children": [],
                                        "depth": 2,
                                        "id": 9,
                                        "order": 9
                                    },
                                    {
                                        "children": [],
                                        "depth": 2,
                                        "id": 10,
                                        "order": 10
                                    },
                                    {
                                        "children": [],
                                        "depth": 2,
                                        "id": 11,
                                        "order": 11
                                    },
                                    {
                                        "children": [],
                                        "depth": 2,
                                        "id": 12,
                                        "order": 12
                                    }
                                ],
                                "depth": 1,
                                "id": 6,
                                "order": 6
                            }
                        ],
                        "depth": 0,
                        "id": 0,
                        "order": 0
                    }
                ],
                "depth": -1,
                "id": -1,
                "order": -1
            }
        ],
        "mainTraceNodeCount": 13,
        "parentIdMap": {
            "0": -1,
            "1": 0,
            "10": 6,
            "11": 6,
            "12": 6,
            "2": 0,
            "3": 2,
            "4": 0,
            "5": 4,
            "6": 0,
            "7": 6,
            "8": 7,
            "9": 6
        },
        "tidyTrace": [
            {
                "children": [
                    {
                        "children": [
                            {
                                "children": [
                                    {
                                        "children": [],
                                        "depth": 2,
                                        "id": 3,
                                        "order": 3
                                    }
                                ],
                                "depth": 1,
                                "id": 2,
                                "order": 2
                            },
                            {
                                "children": [
                                    {
                                        "children": [],
                                        "depth": 2,
                                        "id": 5,
                                        "order": 5
                                    }
                                ],
                                "depth": 1,
                                "id": 4,
                                "order": 4
                            },
                            {
                                "children": [
                                    {
                                        "children": [
                                            {
                                                "children": [],
                                                "depth": 3,
                                                "id": 8,
                                                "order": 8
                                            }
                                        ],
                                        "depth": 2,
                                        "id": 7,
                                        "order": 7
                                    },
                                    {
                                        "children": [],
                                        "depth": 2,
                                        "id": 11,
                                        "order": 11
                                    },
                                    {
                                        "children": [],
                                        "depth": 2,
                                        "id": 12,
                                        "order": 12
                                    }
                                ],
                                "depth": 1,
                                "id": 6,
                                "order": 6
                            }
                        ],
                        "depth": 0,
                        "id": 0,
                        "order": 0
                    }
                ],
                "depth": -1,
                "id": -1,
                "order": -1
            }
        ],
        "tidyTraceNodeCount": 10
    },
    "state_change": {
        "stateChanges": [
            {
                "address": "0x178a936d436e161182e1958d8f13a7b4f5cbd60d",
                "erc": "ERC-20",
                "slots": [
                    {
                        "current": "0x00281f702af3daa4624c62927cc40c17bc171e9026ed90c3bd23a2e7c7759c6c",
                        "key": "0x03a8b89cb450c6aee94cf1f2a3bdc550505ecac1ac8ccbe42c9e0e0935dcc1d5",
                        "prev": "0x0000000000000000000000000000000000000000000000000000000000000000"
                    },
                    {
                        "current": "0x0011fa2a991037d35591a3d1e15534506be5615a372e9cd3879da14125661424",
                        "key": "0xb76d9a0a3abd34fcbcb756c0e59705630013d29e6b091b81dc34c699b1b40da7",
                        "prev": "0x00103b9506800ced94148dd7f254ba10a63cdf74fb90f1e88fa8c9df81348488"
                    },
                    {
                        "current": "0xe9167995633f4b754de0d40b8ddf410b40074bc6892dc57de26c7bda2174f904",
                        "key": "0x0000000000000000000000000000000000000000000000000000000000000008",
                        "prev": "0xe918382af5cf765b0f5dea057cdfbb4b05afcdabc4cb7068da61533bc5a688a0"
                    },
                    {
                        "current": "0x0000000000000000000000000000000000000000000013b982f50149be41b3cd",
                        "key": "0x0000000000000000000000000000000000000000000000000000000000000009",
                        "prev": "0x0000000000000000000000000000000000000000000013b7ed40403f1487f418"
                    },
                    {
                        "current": "0x00000000000000000000000000000000000000000000000000000000610b33c8",
                        "key": "0x41a15f9ee7a865f916459fa6c4c95720d85714bbbce877efd5b8ed05a4446ff6",
                        "prev": "0x0000000000000000000000000000000000000000000000000000000000000000"
                    },
                    {
                        "current": "0x1dd42d8bfe62bbf913e2aa19234cda8dcf4954af03ddbb2081b7b25846b23003",
                        "key": "0x03d90fa2bf169870320148bd9cae5240c47b784b55a9edaa80891f686ae26284",
                        "prev": "0x1dffca274e76ec68f929389f7e11db2516b17709a206a1ba2ec50403568aeba7"
                    }
                ],
                "storageVariables": [
                    {
                        "name": "_rOwned",
                        "type": "mapping(address => uint256)",
                        "value": {
                            "pairs": [
                                {
                                    "key": "0x178a936d436e161182e1958d8f13a7b4f5cbd60d",
                                    "value": {
                                        "current": "31762985125142546554224391195000370759141295808752004811141188148286329892",
                                        "prev": "28680773787518868388303054222049257019055354737380773642886627515463664776",
                                        "typeTag": 1
                                    }
                                },
                                {
                                    "key": "0xcd7d0fce596bd176b1b781189bd22fe8576a6c74",
                                    "value": {
                                        "current": "13491958539455874056375518035399124706960892892644013375047665843538461077507",
                                        "prev": "13569013822896466010525027503322778931474275410583444912100022529048105905063",
                                        "typeTag": 1
                                    }
                                },
                                {
                                    "key": "0xe59f0e2e327a11f4621dbd9676786d951dbcae67",
                                    "value": {
                                        "current": "70890860765344597817666793977751997033210635796689074715847564243999497324",
                                        "prev": "0",
                                        "typeTag": 1
                                    }
                                }
                            ],
                            "typeTag": 4
                        }
                    },
                    {
                        "name": "_rTotal",
                        "type": "uint256",
                        "value": {
                            "current": "105428603494118162838547732602366895028593463278800033243542563730800636131588",
                            "prev": "105431685705455786516713653939339846142333549219871404474710818291433458796704",
                            "typeTag": 1
                        }
                    },
                    {
                        "name": "_tFeeTotal",
                        "type": "uint256",
                        "value": {
                            "current": "93147047278169987068877",
                            "prev": "93117813074837276980248",
                            "typeTag": 1
                        }
                    },
                    {
                        "name": "cooldown",
                        "type": "mapping(address => uint256)",
                        "value": {
                            "pairs": [
                                {
                                    "key": "0xe59f0e2e327a11f4621dbd9676786d951dbcae67",
                                    "value": {
                                        "current": "1628124104",
                                        "prev": "0",
                                        "typeTag": 1
                                    }
                                }
                            ],
                            "typeTag": 4
                        }
                    }
                ]
            },
            {
                "address": "0xc02aaa39b223fe8d0a0e5c4f27ead9083c756cc2",
                "erc": "ERC-20",
                "slots": [
                    {
                        "current": "0x000000000000000000000000000000000000000000000000248c357941befc30",
                        "key": "0xe4f6207743bde7de68e9a271082c4d9ebb1541526c3126a9c1fc311c34bf1abe",
                        "prev": "0x0000000000000000000000000000000000000000000000002456eb0d9a1d7c30"
                    }
                ],
                "storageVariables": [
                    {
                        "name": "balanceOf",
                        "type": "mapping(address => uint256)",
                        "value": {
                            "pairs": [
                                {
                                    "key": "0xcd7d0fce596bd176b1b781189bd22fe8576a6c74",
                                    "value": {
                                        "current": "2633538677015247920",
                                        "prev": "2618538677015247920",
                                        "typeTag": 1
                                    }
                                }
                            ],
                            "typeTag": 4
                        }
                    }
                ]
            },
            {
                "address": "0xcd7d0fce596bd176b1b781189bd22fe8576a6c74",
                "erc": "ERC-20",
                "slots": [
                    {
                        "current": "0x610b33aa000000000000248c357941befc30000000001b1966bff936c76d6212",
                        "key": "0x0000000000000000000000000000000000000000000000000000000000000008",
                        "prev": "0x610b33800000000000002456eb0d9a1d7c30000000001b40d17b821bc479a073"
                    },
                    {
                        "current": "0x00000000000000000000000000000000000018bb0a7b19704b9881979b8ddbdc",
                        "key": "0x0000000000000000000000000000000000000000000000000000000000000009",
                        "prev": "0x000000000000000000000000000000000000188309b849e68eda8b2d9adaf114"
                    },
                    {
                        "current": "0x000000000000000000000000000008e4eb8b0c4dc9659ca178e9483b6b7b3626",
                        "key": "0x000000000000000000000000000000000000000000000000000000000000000a",
                        "prev": "0x000000000000000000000000000008c56bf89f8e13ed126bdd83f347f9c55ef0"
                    }
                ],
                "storageVariables": [
                    {
                        "name": "reserve0",
                        "type": "uint112",
                        "value": {
                            "current": "127972467549649249329682",
                            "prev": "128699581459829666455667",
                            "typeTag": 1
                        }
                    },
                    {
                        "name": "reserve1",
                        "type": "uint112",
                        "value": {
                            "current": "2633538677015247920",
                            "prev": "2618538677015247920",
                            "typeTag": 1
                        }
                    },
                    {
                        "name": "blockTimestampLast",
                        "type": "uint32",
                        "value": {
                            "current": "1628124074",
                            "prev": "1628124032",
                            "typeTag": 1
                        }
                    },
                    {
                        "name": "price0CumulativeLast",
                        "type": "uint256",
                        "value": {
                            "current": "501596740545912192009036540795868",
                            "prev": "497159727933433717676238551314708",
                            "typeTag": 1
                        }
                    },
                    {
                        "name": "price1CumulativeLast",
                        "type": "uint256",
                        "value": {
                            "current": "774795757669880547499381447129196377355814",
                            "prev": "764077432058836445986167924348710975528688",
                            "typeTag": 1
                        }
                    }
                ]
            }
        ]
    }
}