{
    "balance_change": {
        "balanceChanges": []
    },
    "profile": {
        "basic_info": {
            "baseFee": "8.658058244",
            "blockNumber": 15704172,
            "callData": "0x0528a65b000000000000000000000000000000000000000000000000000000000000000100000000000000000000000000000000000000000000000000000000000000400000000000000000000000000000000000000000000000000000000000000000",
            "debugEnable": true,
            "errorInfo": "execution reverted",
            "eventCount": 0,
            "feeRecipient": "0xdafea492d9c6733ae3d56b7ed1adb60692c98bc5",
            "formatValue": "0",
            "gasLimit": 200000,
            "gasPrice": "11.158058244",
            "gasUsed": 24650,
            "intTxnCount": 0,
            "internalRevert": false,
            "internalRevertMessage": "",
            "isContractCreation": false,
            "isFlashloan": false,
            "maxFee": "21.909959132",
            "nonce": 32,
            "overwritedBlockNumber": -1,
            "priorityFee": "2.5",
            "receiver": "0xa7b1d8c19865df679b6afd9913969ac92a0632f5",
            "revertMessage": "Sales are off",
            "sender": "0x4dc6e037475fdddba932788d19701a9fe8285d93",
            "simulationEnable": true,
            "sourceTxnHash": "0xe8b61513ed641b89727b76a7751b810b909d3c8ab1146d77b949c3e3015bf10d",
            "status": false,
            "timestamp": "2022-10-08T15:08:47Z",
            "transactionFee": "0.0002750461357146",
            "txnHash": "0xe8b61513ed641b89727b76a7751b810b909d3c8ab1146d77b949c3e3015bf10d",
            "txnIndex": 86,
            "type": 2,
            "value": "0"
        },
        "fund_flow": [],
        "token_infos": [
            {
                "address": "0xc02aaa39b223fe8d0a0e5c4f27ead9083c756cc2",
                "decimals": 18
            },
            {
                "address": "0xeeeeeeeeeeeeeeeeeeeeeeeeeeeeeeeeeeeeeeee",
                "decimals": 18
            }
        ]
    },
    "address_label": {
        "labels": [
            {
                "address": "0xa7b1d8c19865df679b6afd9913969ac92a0632f5",
                "label": "Skydancers"
            },
            {
                "address": "0x0000000000000000000000000000000000000001",
                "label": "Precompiled"
            },
            {
                "address": "0x0000000000000000000000000000000000000002",
                "label": "Precompiled"
            },
            {
                "address": "0x0000000000000000000000000000000000000003",
                "label": "Precompiled"
            },
            {
                "address": "0x0000000000000000000000000000000000000004",
                "label": "Precompiled"
            },
            {
                "address": "0xeeeeeeeeeeeeeeeeeeeeeeeeeeeeeeeeeeeeeeee",
                "label": "Ether"
            }
        ]
    },
    "trace": {
        "accountLabels": null,
        "dataMap": {
            "-1": {
                "invocation": {
                    "address": "0x4dc6e037475fdddba932788d19701a9fe8285d93",
                    "callData": "",
                    "decodedMethod": null,
                    "errorInfo": "",
                    "fromAddress": "",
                    "gasUsed": 0,
                    "id": -1,
                    "methodDecoded": false,
                    "operation": "",
                    "output": "",
                    "revert": false,
                    "revertMessage": "",
                    "selector": "",
                    "status": false,
                    "value": ""
                },
                "nodeType": 0
            },
            "0": {
                "invocation": {
                    "address": "0xa7b1d8c19865df679b6afd9913969ac92a0632f5",
                    "callData": "0x000000000000000000000000000000000000000000000000000000000000000100000000000000000000000000000000000000000000000000000000000000400000000000000000000000000000000000000000000000000000000000000000",
                    "decodedMethod": {
                        "callParams": [
                            {
                                "name": "quantity",
                                "type": "uint256",
                                "value": "1"
                            },
                            {
                                "name": "merkleProof",
                                "type": "bytes32[]",
                                "value": []
                            }
                        ],
                        "constructorArguments": "",
                        "name": "WhitelistMint",
                        "returnParams": [],
                        "signature": "WhitelistMint(uint256,bytes32[])"
                    },
                    "errorInfo": "execution reverted",
                    "fromAddress": "0x4dc6e037475fdddba932788d19701a9fe8285d93",
                    "gasUsed": 24650,
                    "id": 0,
                    "methodDecoded": true,
                    "operation": "CALL",
                    "output": "0x08c379a00000000000000000000000000000000000000000000000000000000000000020000000000000000000000000000000000000000000000000000000000000000d53616c657320617265206f666600000000000000000000000000000000000000",
                    "revert": true,
                    "revertMessage": "Sales are off",
                    "selector": "0x0528a65b",
                    "status": false,
                    "value": "0"
                },
                "nodeType": 0
            }
        },
        "gasFlame": [
            {
                "children": [
                    {
                        "children": [
                            {
                                "children": [],
                                "depth": 0,
                                "name": "Initial Gas",
                                "value": 21472
                            },
                            {
                                "children": [],
                                "depth": 0,
                                "name": "Executed Gas",
                                "value": 3178
                            }
                        ],
                        "depth": -1,
                        "name": "Actual Gas Used",
                        "value": 24650
                    },
                    {
                        "children": [],
                        "depth": -1,
                        "name": "Refunded Gas",
                        "value": 0
                    }
                ],
                "depth": -2,
                "name": "Total Gas",
                "value": 24650
            }
        ],
        "isConfirmed": true,
        "mainTrace": [
            {
                "children": [
                    {
                        "children": [],
                        "depth": 0,
                        "id": 0,
                        "order": 0
                    }
                ],
                "depth": -1,
                "id": -1,
                "order": -1
            }
        ],
        "mainTraceNodeCount": 1,
        "parentIdMap": {
            "0": -1
        },
        "tidyTrace": [
            {
                "children": [
                    {
                        "children": [],
                        "depth": 0,
                        "id": 0,
                        "order": 0
                    }
                ],
                "depth": -1,
                "id": -1,
                "order": -1
            }
        ],
        "tidyTraceNodeCount": 1
    },
    "state_change": {
        "stateChanges": []
    }
}