{
    "balance_change": {
        "balanceChanges": [
            {
                "account": "0x1938a448d105d26c40a52a1bfe99b8ca7a745ad0",
                "assets": [
                    {
                        "address": "0x221657776846890989a759ba2973e427dff5c9bb",
                        "amount": "4,459.94134153",
                        "iconUrl": "https://assets.blocksec.com/icon/22f2c5943200aeb3db7bff7460e7944c1c2305e66569820681f8aff481dc7dea.png",
                        "isERC1155": false,
                        "isERC721": false,
                        "sign": false,
                        "value": "107236.6728"
                    }
                ]
            },
            {
                "account": "0xc6a043b07d33b6f30d8cb501026c391cfd25abe1",
                "assets": [
                    {
                        "address": "0x221657776846890989a759ba2973e427dff5c9bb",
                        "amount": "4,459.94134153",
                        "iconUrl": "https://assets.blocksec.com/icon/22f2c5943200aeb3db7bff7460e7944c1c2305e66569820681f8aff481dc7dea.png",
                        "isERC1155": false,
                        "isERC721": false,
                        "sign": true,
                        "value": "107236.6728"
                    }
                ]
            }
        ]
    },
    "profile": {
        "basic_info": {
            "baseFee": "63.224677056",
            "blockNumber": 13118240,
            "callData": "0xa9059cbb000000000000000000000000c6a043b07d33b6f30d8cb501026c391cfd25abe10000000000000000000000000000000000000000000000f1c61e9c56eec50400",
            "debugEnable": true,
            "errorInfo": "",
            "eventCount": 4,
            "feeRecipient": "0x0708f87a089a91c65d48721aa941084648562287",
            "formatValue": "0",
            "gasLimit": 200000,
            "gasPrice": "135.82870448",
            "gasUsed": 55318,
            "intTxnCount": 2,
            "internalRevert": false,
            "internalRevertMessage": "",
            "isContractCreation": false,
            "isFlashloan": false,
            "maxFee": "",
            "nonce": 824539,
            "overwritedBlockNumber": -1,
            "priorityFee": "",
            "receiver": "0x221657776846890989a759ba2973e427dff5c9bb",
            "revertMessage": "",
            "sender": "0x1938a448d105d26c40a52a1bfe99b8ca7a745ad0",
            "simulationEnable": true,
            "sourceTxnHash": "0xe99072b6a1c44008cc9408b30db37814b2524626af8dd4e54237166e63cb525d",
            "status": true,
            "timestamp": "2021-08-29T04:25:29Z",
            "transactionFee": "0.00751377227442464",
            "txnHash": "0xe99072b6a1c44008cc9408b30db37814b2524626af8dd4e54237166e63cb525d",
            "txnIndex": 6,
            "type": 0,
            "value": "0"
        },
        "fund_flow": [
            {
                "amount": "4,459.94134153",
                "from": "0x1938a448d105d26c40a52a1bfe99b8ca7a745ad0",
                "id": 1,
                "isERC1155": false,
                "isERC721": false,
                "isReverted": false,
                "order": 1,
                "to": "0xc6a043b07d33b6f30d8cb501026c391cfd25abe1",
                "token": "0x221657776846890989a759ba2973e427dff5c9bb"
            }
        ],
        "token_infos": [
            {
                "address": "0x221657776846890989a759ba2973e427dff5c9bb",
                "decimals": 18
            },
            {
                "address": "0xc02aaa39b223fe8d0a0e5c4f27ead9083c756cc2",
                "decimals": 18
            },
            {
                "address": "0xeeeeeeeeeeeeeeeeeeeeeeeeeeeeeeeeeeeeeeee",
                "decimals": 18
            }
        ]
    },
    "address_label": {
        "labels": [
            {
                "address": "0xeeeeeeeeeeeeeeeeeeeeeeeeeeeeeeeeeeeeeeee",
                "label": "Ether"
            },
            {
                "address": "0x23916a8f5c3846e3100e5f587ff14f3098722f5d",
                "label": "Augur"
            },
            {
                "address": "0x49244bd018ca9fd1f06ecc07b9e9de773246e5aa",
                "label": "Universe"
            },
            {
                "address": "0x221657776846890989a759ba2973e427dff5c9bb",
                "label": "Augur: REPv2 Token"
            },
            {
                "address": "0x0000000000000000000000000000000000000002",
                "label": "Precompiled"
            },
            {
                "address": "0x0000000000000000000000000000000000000003",
                "label": "Precompiled"
            },
            {
                "address": "0x1938a448d105d26c40a52a1bfe99b8ca7a745ad0",
                "label": "Upbit 4"
            },
            {
                "address": "0x0000000000000000000000000000000000000001",
                "label": "Precompiled"
            },
            {
                "address": "0x0000000000000000000000000000000000000004",
                "label": "Precompiled"
            }
        ]
    },
    "trace": {
        "accountLabels": null,
        "dataMap": {
            "-1": {
                "invocation": {
                    "address": "0x1938a448d105d26c40a52a1bfe99b8ca7a745ad0",
                    "callData": "",
                    "decodedMethod": null,
                    "errorInfo": "",
                    "fromAddress": "",
                    "gasUsed": 0,
                    "id": -1,
                    "methodDecoded": false,
                    "operation": "",
                    "output": "",
                    "revert": false,
                    "revertMessage": "",
                    "selector": "",
                    "status": false,
                    "value": ""
                },
                "nodeType": 0
            },
            "0": {
                "invocation": {
                    "address": "0x221657776846890989a759ba2973e427dff5c9bb",
                    "callData": "0x000000000000000000000000c6a043b07d33b6f30d8cb501026c391cfd25abe10000000000000000000000000000000000000000000000f1c61e9c56eec50400",
                    "decodedMethod": {
                        "callParams": [
                            {
                                "name": "_recipient",
                                "type": "address",
                                "value": "0xc6a043b07d33b6f30d8cb501026c391cfd25abe1"
                            },
                            {
                                "decimalAvailable": true,
                                "name": "_amount",
                                "type": "uint256",
                                "value": "4,459,941,341,530,000,000,000"
                            }
                        ],
                        "constructorArguments": "",
                        "name": "transfer",
                        "returnParams": [
                            {
                                "name": "",
                                "type": "bool",
                                "value": true
                            }
                        ],
                        "signature": "transfer(address,uint256)"
                    },
                    "errorInfo": "",
                    "fromAddress": "0x1938a448d105d26c40a52a1bfe99b8ca7a745ad0",
                    "gasUsed": 55318,
                    "id": 0,
                    "methodDecoded": true,
                    "operation": "CALL",
                    "output": "0x0000000000000000000000000000000000000000000000000000000000000001",
                    "revert": false,
                    "revertMessage": "",
                    "selector": "0xa9059cbb",
                    "status": true,
                    "value": "0"
                },
                "nodeType": 0
            },
            "1": {
                "event": {
                    "contract": "0x221657776846890989a759ba2973e427dff5c9bb",
                    "decodedLog": {
                        "name": "Transfer",
                        "params": [
                            {
                                "name": "from",
                                "type": "address",
                                "value": "0x1938a448d105d26c40a52a1bfe99b8ca7a745ad0"
                            },
                            {
                                "name": "to",
                                "type": "address",
                                "value": "0xc6a043b07d33b6f30d8cb501026c391cfd25abe1"
                            },
                            {
                                "decimalAvailable": true,
                                "name": "value",
                                "type": "uint256",
                                "value": "4,459,941,341,530,000,000,000"
                            }
                        ],
                        "signature": "Transfer(address,address,uint256)"
                    },
                    "id": 1,
                    "logData": "0x0000000000000000000000000000000000000000000000f1c61e9c56eec50400",
                    "logDecoded": true,
                    "operation": "EVENT",
                    "revert": false,
                    "status": true,
                    "topics": [
                        "0xddf252ad1be2c89b69c2b068fc378daa952ba7f163c4a11628f55a4df523b3ef",
                        "0x0000000000000000000000001938a448d105d26c40a52a1bfe99b8ca7a745ad0",
                        "0x000000000000000000000000c6a043b07d33b6f30d8cb501026c391cfd25abe1"
                    ]
                },
                "nodeType": 1
            },
            "2": {
                "invocation": {
                    "address": "0x23916a8f5c3846e3100e5f587ff14f3098722f5d",
                    "callData": "0x00000000000000000000000049244bd018ca9fd1f06ecc07b9e9de773246e5aa0000000000000000000000001938a448d105d26c40a52a1bfe99b8ca7a745ad0000000000000000000000000c6a043b07d33b6f30d8cb501026c391cfd25abe10000000000000000000000000000000000000000000000f1c61e9c56eec50400000000000000000000000000000000000000000000000000000000000000000000000000000000000000000000000000000000000001f470861a0a2e827650f4",
                    "decodedMethod": {
                        "callParams": [
                            {
                                "name": "_universe",
                                "type": "address",
                                "value": "0x49244bd018ca9fd1f06ecc07b9e9de773246e5aa"
                            },
                            {
                                "name": "_from",
                                "type": "address",
                                "value": "0x1938a448d105d26c40a52a1bfe99b8ca7a745ad0"
                            },
                            {
                                "name": "_to",
                                "type": "address",
                                "value": "0xc6a043b07d33b6f30d8cb501026c391cfd25abe1"
                            },
                            {
                                "name": "_value",
                                "type": "uint256",
                                "value": "4,459,941,341,530,000,000,000"
                            },
                            {
                                "name": "_fromBalance",
                                "type": "uint256",
                                "value": "0"
                            },
                            {
                                "name": "_toBalance",
                                "type": "uint256",
                                "value": "2,363,258,939,818,223,427,014,900"
                            }
                        ],
                        "constructorArguments": "",
                        "name": "logReputationTokensTransferred",
                        "returnParams": [
                            {
                                "name": "",
                                "type": "bool",
                                "value": true
                            }
                        ],
                        "signature": "logReputationTokensTransferred(address,address,address,uint256,uint256,uint256)"
                    },
                    "errorInfo": "",
                    "fromAddress": "0x221657776846890989a759ba2973e427dff5c9bb",
                    "gasUsed": 17976,
                    "id": 2,
                    "methodDecoded": true,
                    "operation": "CALL",
                    "output": "0x0000000000000000000000000000000000000000000000000000000000000001",
                    "revert": false,
                    "revertMessage": "",
                    "selector": "0xe1c678fe",
                    "status": true,
                    "value": "0"
                },
                "nodeType": 0
            },
            "3": {
                "invocation": {
                    "address": "0x49244bd018ca9fd1f06ecc07b9e9de773246e5aa",
                    "callData": "0x",
                    "decodedMethod": {
                        "callParams": [],
                        "constructorArguments": "",
                        "name": "getReputationToken",
                        "returnParams": [
                            {
                                "name": "",
                                "type": "address",
                                "value": "0x221657776846890989a759ba2973e427dff5c9bb"
                            }
                        ],
                        "signature": "getReputationToken()"
                    },
                    "errorInfo": "",
                    "fromAddress": "0x23916a8f5c3846e3100e5f587ff14f3098722f5d",
                    "gasUsed": 2426,
                    "id": 3,
                    "methodDecoded": true,
                    "operation": "STATICCALL",
                    "output": "0x000000000000000000000000221657776846890989a759ba2973e427dff5c9bb",
                    "revert": false,
                    "revertMessage": "",
                    "selector": "0xb80907f2",
                    "status": true,
                    "value": "0"
                },
                "nodeType": 0
            },
            "4": {
                "event": {
                    "contract": "0x23916a8f5c3846e3100e5f587ff14f3098722f5d",
                    "decodedLog": {
                        "name": "TokensTransferred",
                        "params": [
                            {
                                "name": "universe",
                                "type": "address",
                                "value": "0x49244bd018ca9fd1f06ecc07b9e9de773246e5aa"
                            },
                            {
                                "name": "from",
                                "type": "address",
                                "value": "0x1938a448d105d26c40a52a1bfe99b8ca7a745ad0"
                            },
                            {
                                "name": "to",
                                "type": "address",
                                "value": "0xc6a043b07d33b6f30d8cb501026c391cfd25abe1"
                            },
                            {
                                "name": "token",
                                "type": "address",
                                "value": "0x221657776846890989a759ba2973e427dff5c9bb"
                            },
                            {
                                "name": "value",
                                "type": "uint256",
                                "value": "4,459,941,341,530,000,000,000"
                            },
                            {
                                "name": "tokenType",
                                "type": "uint8",
                                "value": "0"
                            },
                            {
                                "name": "market",
                                "type": "address",
                                "value": "0x0000000000000000000000000000000000000000"
                            }
                        ],
                        "signature": "TokensTransferred(address,address,address,address,uint256,uint8,address)"
                    },
                    "id": 4,
                    "logData": "0x000000000000000000000000221657776846890989a759ba2973e427dff5c9bb0000000000000000000000000000000000000000000000f1c61e9c56eec5040000000000000000000000000000000000000000000000000000000000000000000000000000000000000000000000000000000000000000000000000000000000",
                    "logDecoded": true,
                    "operation": "EVENT",
                    "revert": false,
                    "status": true,
                    "topics": [
                        "0x3c67396e9c55d2fc8ad68875fc5beca1d96ad2a2f23b210ccc1d986551ab6fdf",
                        "0x00000000000000000000000049244bd018ca9fd1f06ecc07b9e9de773246e5aa",
                        "0x0000000000000000000000001938a448d105d26c40a52a1bfe99b8ca7a745ad0",
                        "0x000000000000000000000000c6a043b07d33b6f30d8cb501026c391cfd25abe1"
                    ]
                },
                "nodeType": 1
            },
            "5": {
                "event": {
                    "contract": "0x23916a8f5c3846e3100e5f587ff14f3098722f5d",
                    "decodedLog": {
                        "name": "TokenBalanceChanged",
                        "params": [
                            {
                                "name": "universe",
                                "type": "address",
                                "value": "0x49244bd018ca9fd1f06ecc07b9e9de773246e5aa"
                            },
                            {
                                "name": "owner",
                                "type": "address",
                                "value": "0x1938a448d105d26c40a52a1bfe99b8ca7a745ad0"
                            },
                            {
                                "name": "token",
                                "type": "address",
                                "value": "0x221657776846890989a759ba2973e427dff5c9bb"
                            },
                            {
                                "name": "tokenType",
                                "type": "uint8",
                                "value": "0"
                            },
                            {
                                "name": "market",
                                "type": "address",
                                "value": "0x0000000000000000000000000000000000000000"
                            },
                            {
                                "name": "balance",
                                "type": "uint256",
                                "value": "0"
                            },
                            {
                                "name": "outcome",
                                "type": "uint256",
                                "value": "0"
                            }
                        ],
                        "signature": "TokenBalanceChanged(address,address,address,uint8,address,uint256,uint256)"
                    },
                    "id": 5,
                    "logData": "0x000000000000000000000000221657776846890989a759ba2973e427dff5c9bb0000000000000000000000000000000000000000000000000000000000000000000000000000000000000000000000000000000000000000000000000000000000000000000000000000000000000000000000000000000000000000000000000000000000000000000000000000000000000000000000000000000000000000",
                    "logDecoded": true,
                    "operation": "EVENT",
                    "revert": false,
                    "status": true,
                    "topics": [
                        "0x63fd58f559b73fc4da5511c341ec8a7b31c5c48538ef83c6077712b6edf5f7cb",
                        "0x00000000000000000000000049244bd018ca9fd1f06ecc07b9e9de773246e5aa",
                        "0x0000000000000000000000001938a448d105d26c40a52a1bfe99b8ca7a745ad0"
                    ]
                },
                "nodeType": 1
            },
            "6": {
                "event": {
                    "contract": "0x23916a8f5c3846e3100e5f587ff14f3098722f5d",
                    "decodedLog": {
                        "name": "TokenBalanceChanged",
                        "params": [
                            {
                                "name": "universe",
                                "type": "address",
                                "value": "0x49244bd018ca9fd1f06ecc07b9e9de773246e5aa"
                            },
                            {
                                "name": "owner",
                                "type": "address",
                                "value": "0xc6a043b07d33b6f30d8cb501026c391cfd25abe1"
                            },
                            {
                                "name": "token",
                                "type": "address",
                                "value": "0x221657776846890989a759ba2973e427dff5c9bb"
                            },
                            {
                                "name": "tokenType",
                                "type": "uint8",
                                "value": "0"
                            },
                            {
                                "name": "market",
                                "type": "address",
                                "value": "0x0000000000000000000000000000000000000000"
                            },
                            {
                                "name": "balance",
                                "type": "uint256",
                                "value": "2,363,258,939,818,223,427,014,900"
                            },
                            {
                                "name": "outcome",
                                "type": "uint256",
                                "value": "0"
                            }
                        ],
                        "signature": "TokenBalanceChanged(address,address,address,uint8,address,uint256,uint256)"
                    },
                    "id": 6,
                    "logData": "0x000000000000000000000000221657776846890989a759ba2973e427dff5c9bb0000000000000000000000000000000000000000000000000000000000000000000000000000000000000000000000000000000000000000000000000000000000000000000000000000000000000000000000000001f470861a0a2e827650f40000000000000000000000000000000000000000000000000000000000000000",
                    "logDecoded": true,
                    "operation": "EVENT",
                    "revert": false,
                    "status": true,
                    "topics": [
                        "0x63fd58f559b73fc4da5511c341ec8a7b31c5c48538ef83c6077712b6edf5f7cb",
                        "0x00000000000000000000000049244bd018ca9fd1f06ecc07b9e9de773246e5aa",
                        "0x000000000000000000000000c6a043b07d33b6f30d8cb501026c391cfd25abe1"
                    ]
                },
                "nodeType": 1
            }
        },
        "gasFlame": [
            {
                "children": [
                    {
                        "children": [
                            {
                                "children": [],
                                "depth": 0,
                                "name": "Initial Gas",
                                "value": 21656
                            },
                            {
                                "children": [
                                    {
                                        "children": [
                                            {
                                                "children": [],
                                                "depth": 2,
                                                "name": "getReputationToken",
                                                "value": 2426
                                            }
                                        ],
                                        "depth": 1,
                                        "name": "logReputationTokensTransferred",
                                        "value": 17976
                                    }
                                ],
                                "depth": 0,
                                "name": "Executed Gas",
                                "value": 38462
                            }
                        ],
                        "depth": -1,
                        "name": "Actual Gas Used",
                        "value": 55318
                    },
                    {
                        "children": [],
                        "depth": -1,
                        "name": "Refunded Gas",
                        "value": 4800
                    }
                ],
                "depth": -2,
                "name": "Total Gas",
                "value": 60118
            }
        ],
        "isConfirmed": true,
        "mainTrace": [
            {
                "children": [
                    {
                        "children": [
                            {
                                "children": [],
                                "depth": 1,
                                "id": 1,
                                "order": 1
                            },
                            {
                                "children": [
                                    {
                                        "children": [],
                                        "depth": 2,
                                        "id": 3,
                                        "order": 3
                                    },
                                    {
                                        "children": [],
                                        "depth": 2,
                                        "id": 4,
                                        "order": 4
                                    },
                                    {
                                        "children": [],
                                        "depth": 2,
                                        "id": 5,
                                        "order": 5
                                    },
                                    {
                                        "children": [],
                                        "depth": 2,
                                        "id": 6,
                                        "order": 6
                                    }
                                ],
                                "depth": 1,
                                "id": 2,
                                "order": 2
                            }
                        ],
                        "depth": 0,
                        "id": 0,
                        "order": 0
                    }
                ],
                "depth": -1,
                "id": -1,
                "order": -1
            }
        ],
        "mainTraceNodeCount": 7,
        "parentIdMap": {
            "0": -1,
            "1": 0,
            "2": 0,
            "3": 2,
            "4": 2,
            "5": 2,
            "6": 2
        },
        "tidyTrace": [
            {
                "children": [
                    {
                        "children": [
                            {
                                "children": [],
                                "depth": 1,
                                "id": 1,
                                "order": 1
                            },
                            {
                                "children": [
                                    {
                                        "children": [],
                                        "depth": 2,
                                        "id": 4,
                                        "order": 4
                                    },
                                    {
                                        "children": [],
                                        "depth": 2,
                                        "id": 5,
                                        "order": 5
                                    },
                                    {
                                        "children": [],
                                        "depth": 2,
                                        "id": 6,
                                        "order": 6
                                    }
                                ],
                                "depth": 1,
                                "id": 2,
                                "order": 2
                            }
                        ],
                        "depth": 0,
                        "id": 0,
                        "order": 0
                    }
                ],
                "depth": -1,
                "id": -1,
                "order": -1
            }
        ],
        "tidyTraceNodeCount": 6
    },
    "state_change": {
        "stateChanges": [
            {
                "address": "0x221657776846890989a759ba2973e427dff5c9bb",
                "erc": "ERC-20",
                "slots": [
                    {
                        "current": "0x00000000000000000000000000000000000000000001f470861a0a2e827650f4",
                        "key": "0xcdc25c41808c834dc591f67c32bef831ec34efde19d3ea97815e8ba8ab7a2a23",
                        "prev": "0x00000000000000000000000000000000000000000001f37ebffb6dd793b14cf4"
                    },
                    {
                        "current": "0x0000000000000000000000000000000000000000000000000000000000000000",
                        "key": "0xf69cca6b6b714952cfb48bec94be590577731ded6177474f2e91089ece7242dc",
                        "prev": "0x0000000000000000000000000000000000000000000000f1c61e9c56eec50400"
                    }
                ],
                "storageVariables": [
                    {
                        "name": "balances",
                        "type": "mapping(address => uint256)",
                        "value": {
                            "pairs": [
                                {
                                    "key": "0x1938a448d105d26c40a52a1bfe99b8ca7a745ad0",
                                    "value": {
                                        "current": "0",
                                        "prev": "4459941341530000000000",
                                        "typeTag": 1
                                    }
                                },
                                {
                                    "key": "0xc6a043b07d33b6f30d8cb501026c391cfd25abe1",
                                    "value": {
                                        "current": "2363258939818223427014900",
                                        "prev": "2358798998476693427014900",
                                        "typeTag": 1
                                    }
                                }
                            ],
                            "typeTag": 4
                        }
                    }
                ]
            }
        ]
    }
}