{
    "balance_change": {
        "balanceChanges": [
            {
                "account": "0x42fb83edc74a572de53cb7153e470c3df4c1214f",
                "assets": [
                    {
                        "address": "0x9813037ee2218799597d83d4a5b6f3b6778218d9",
                        "amount": "600.823924007777098415",
                        "iconUrl": "",
                        "isERC1155": false,
                        "isERC721": false,
                        "sign": true,
                        "value": "670.943941"
                    }
                ]
            },
            {
                "account": "0xa404f66b9278c4ab8428225014266b4b239bcdc7",
                "assets": [
                    {
                        "address": "0x9813037ee2218799597d83d4a5b6f3b6778218d9",
                        "amount": "600.823924007777098415",
                        "iconUrl": "",
                        "isERC1155": false,
                        "isERC721": false,
                        "sign": false,
                        "value": "670.943941"
                    }
                ]
            }
        ]
    },
    "profile": {
        "basic_info": {
            "baseFee": "10.738398929",
            "blockNumber": 18054985,
            "callData": "0x6930fd2a000000000000000000000000000000000000000000000000000000000000000d",
            "debugEnable": true,
            "errorInfo": "",
            "eventCount": 1,
            "feeRecipient": "0x95222290dd7278aa3ddd389cc1e1d165cc4bafe5",
            "formatValue": "0",
            "gasLimit": 162619,
            "gasPrice": "10.838398929",
            "gasUsed": 147658,
            "intTxnCount": 1,
            "internalRevert": false,
            "internalRevertMessage": "",
            "isContractCreation": false,
            "isFlashloan": false,
            "maxFee": "15.512204452",
            "nonce": 133,
            "overwritedBlockNumber": -1,
            "priorityFee": "0.1",
            "receiver": "0xa404f66b9278c4ab8428225014266b4b239bcdc7",
            "revertMessage": "",
            "sender": "0x42fb83edc74a572de53cb7153e470c3df4c1214f",
            "simulationEnable": true,
            "sourceTxnHash": "0xe97f742ae230d7407cb4bae4938e6b522e67b19fe11086985c6e1ab5cabe41ac",
            "status": true,
            "timestamp": "2023-09-03T09:09:35Z",
            "transactionFee": "0.001600376309058282",
            "txnHash": "0xe97f742ae230d7407cb4bae4938e6b522e67b19fe11086985c6e1ab5cabe41ac",
            "txnIndex": 106,
            "type": 2,
            "value": "0"
        },
        "fund_flow": [
            {
                "amount": "600.823924007777098415",
                "from": "0xa404f66b9278c4ab8428225014266b4b239bcdc7",
                "id": 1,
                "isERC1155": false,
                "isERC721": false,
                "isReverted": false,
                "order": 1,
                "to": "0x42fb83edc74a572de53cb7153e470c3df4c1214f",
                "token": "0x9813037ee2218799597d83d4a5b6f3b6778218d9"
            }
        ],
        "token_infos": [
            {
                "address": "0x9813037ee2218799597d83d4a5b6f3b6778218d9",
                "decimals": 18
            },
            {
                "address": "0xc02aaa39b223fe8d0a0e5c4f27ead9083c756cc2",
                "decimals": 18
            },
            {
                "address": "0xeeeeeeeeeeeeeeeeeeeeeeeeeeeeeeeeeeeeeeee",
                "decimals": 18
            }
        ]
    },
    "address_label": {
        "labels": [
            {
                "address": "0x0000000000000000000000000000000000000004",
                "label": "Precompiled"
            },
            {
                "address": "0xeeeeeeeeeeeeeeeeeeeeeeeeeeeeeeeeeeeeeeee",
                "label": "Ether"
            },
            {
                "address": "0x9813037ee2218799597d83d4a5b6f3b6778218d9",
                "label": "ShibaSwap: BONE Token"
            },
            {
                "address": "0xa404f66b9278c4ab8428225014266b4b239bcdc7",
                "label": "ShibaSwap: Bone Locker"
            },
            {
                "address": "0x0000000000000000000000000000000000000001",
                "label": "Precompiled"
            },
            {
                "address": "0x0000000000000000000000000000000000000002",
                "label": "Precompiled"
            },
            {
                "address": "0x0000000000000000000000000000000000000003",
                "label": "Precompiled"
            }
        ]
    },
    "trace": {
        "accountLabels": null,
        "dataMap": {
            "-1": {
                "invocation": {
                    "address": "0x42fb83edc74a572de53cb7153e470c3df4c1214f",
                    "callData": "",
                    "decodedMethod": null,
                    "errorInfo": "",
                    "fromAddress": "",
                    "gasUsed": 0,
                    "id": -1,
                    "methodDecoded": false,
                    "operation": "",
                    "output": "",
                    "revert": false,
                    "revertMessage": "",
                    "selector": "",
                    "status": false,
                    "value": ""
                },
                "nodeType": 0
            },
            "0": {
                "invocation": {
                    "address": "0xa404f66b9278c4ab8428225014266b4b239bcdc7",
                    "callData": "0x000000000000000000000000000000000000000000000000000000000000000d",
                    "decodedMethod": {
                        "callParams": [
                            {
                                "name": "r",
                                "type": "uint256",
                                "value": "13"
                            }
                        ],
                        "constructorArguments": "",
                        "name": "claimAll",
                        "returnParams": [],
                        "signature": "claimAll(uint256)"
                    },
                    "errorInfo": "",
                    "fromAddress": "0x42fb83edc74a572de53cb7153e470c3df4c1214f",
                    "gasUsed": 147658,
                    "id": 0,
                    "methodDecoded": true,
                    "operation": "CALL",
                    "output": "",
                    "revert": false,
                    "revertMessage": "",
                    "selector": "0x6930fd2a",
                    "status": true,
                    "value": "0"
                },
                "nodeType": 0
            },
            "1": {
                "invocation": {
                    "address": "0x9813037ee2218799597d83d4a5b6f3b6778218d9",
                    "callData": "0x00000000000000000000000042fb83edc74a572de53cb7153e470c3df4c1214f000000000000000000000000000000000000000000000020921b5f955fd85aaf",
                    "decodedMethod": {
                        "callParams": [
                            {
                                "name": "recipient",
                                "type": "address",
                                "value": "0x42fb83edc74a572de53cb7153e470c3df4c1214f"
                            },
                            {
                                "decimalAvailable": true,
                                "name": "amount",
                                "type": "uint256",
                                "value": "600,823,924,007,777,098,415"
                            }
                        ],
                        "constructorArguments": "",
                        "name": "transfer",
                        "returnParams": [
                            {
                                "name": "",
                                "type": "bool",
                                "value": true
                            }
                        ],
                        "signature": "transfer(address,uint256)"
                    },
                    "errorInfo": "",
                    "fromAddress": "0xa404f66b9278c4ab8428225014266b4b239bcdc7",
                    "gasUsed": 17456,
                    "id": 1,
                    "methodDecoded": true,
                    "operation": "CALL",
                    "output": "0x0000000000000000000000000000000000000000000000000000000000000001",
                    "revert": false,
                    "revertMessage": "",
                    "selector": "0xa9059cbb",
                    "status": true,
                    "value": "0"
                },
                "nodeType": 0
            },
            "2": {
                "event": {
                    "contract": "0x9813037ee2218799597d83d4a5b6f3b6778218d9",
                    "decodedLog": {
                        "name": "Transfer",
                        "params": [
                            {
                                "name": "from",
                                "type": "address",
                                "value": "0xa404f66b9278c4ab8428225014266b4b239bcdc7"
                            },
                            {
                                "name": "to",
                                "type": "address",
                                "value": "0x42fb83edc74a572de53cb7153e470c3df4c1214f"
                            },
                            {
                                "decimalAvailable": true,
                                "name": "value",
                                "type": "uint256",
                                "value": "600,823,924,007,777,098,415"
                            }
                        ],
                        "signature": "Transfer(address,address,uint256)"
                    },
                    "id": 2,
                    "logData": "0x000000000000000000000000000000000000000000000020921b5f955fd85aaf",
                    "logDecoded": true,
                    "operation": "EVENT",
                    "revert": false,
                    "status": true,
                    "topics": [
                        "0xddf252ad1be2c89b69c2b068fc378daa952ba7f163c4a11628f55a4df523b3ef",
                        "0x000000000000000000000000a404f66b9278c4ab8428225014266b4b239bcdc7",
                        "0x00000000000000000000000042fb83edc74a572de53cb7153e470c3df4c1214f"
                    ]
                },
                "nodeType": 1
            }
        },
        "gasFlame": [
            {
                "children": [
                    {
                        "children": [
                            {
                                "children": [],
                                "depth": 0,
                                "name": "Initial Gas",
                                "value": 21204
                            },
                            {
                                "children": [
                                    {
                                        "children": [],
                                        "depth": 1,
                                        "name": "transfer",
                                        "value": 17456
                                    }
                                ],
                                "depth": 0,
                                "name": "Executed Gas",
                                "value": 126454
                            }
                        ],
                        "depth": -1,
                        "name": "Actual Gas Used",
                        "value": 147658
                    },
                    {
                        "children": [],
                        "depth": -1,
                        "name": "Refunded Gas",
                        "value": 0
                    }
                ],
                "depth": -2,
                "name": "Total Gas",
                "value": 147658
            }
        ],
        "isConfirmed": true,
        "mainTrace": [
            {
                "children": [
                    {
                        "children": [
                            {
                                "children": [
                                    {
                                        "children": [],
                                        "depth": 2,
                                        "id": 2,
                                        "order": 2
                                    }
                                ],
                                "depth": 1,
                                "id": 1,
                                "order": 1
                            }
                        ],
                        "depth": 0,
                        "id": 0,
                        "order": 0
                    }
                ],
                "depth": -1,
                "id": -1,
                "order": -1
            }
        ],
        "mainTraceNodeCount": 3,
        "parentIdMap": {
            "0": -1,
            "1": 0,
            "2": 1
        },
        "tidyTrace": [
            {
                "children": [
                    {
                        "children": [
                            {
                                "children": [
                                    {
                                        "children": [],
                                        "depth": 2,
                                        "id": 2,
                                        "order": 2
                                    }
                                ],
                                "depth": 1,
                                "id": 1,
                                "order": 1
                            }
                        ],
                        "depth": 0,
                        "id": 0,
                        "order": 0
                    }
                ],
                "depth": -1,
                "id": -1,
                "order": -1
            }
        ],
        "tidyTraceNodeCount": 3
    },
    "state_change": {
        "stateChanges": [
            {
                "address": "0x9813037ee2218799597d83d4a5b6f3b6778218d9",
                "erc": "ERC-20",
                "slots": [
                    {
                        "current": "0x00000000000000000000000000000000000000000005c0ab249e5deecec45a6a",
                        "key": "0x1235bf1949c442d8673bd3f5521bbc961a5b273cdb70dd6147fe85b1d0262534",
                        "prev": "0x00000000000000000000000000000000000000000005c0cbb6b9bd842e9cb519"
                    },
                    {
                        "current": "0x00000000000000000000000000000000000000000000003ad49fab8049cea14b",
                        "key": "0x99301a69b1b943c921e68d1ed813a5903cb45727dc2500cce918aa387e2c9fbf",
                        "prev": "0x00000000000000000000000000000000000000000000001a42844beae9f6469c"
                    }
                ],
                "storageVariables": [
                    {
                        "name": "_balances",
                        "type": "mapping(address => uint256)",
                        "value": {
                            "pairs": [
                                {
                                    "key": "0x42fb83edc74a572de53cb7153e470c3df4c1214f",
                                    "value": {
                                        "current": "1085232309299974152523",
                                        "prev": "484408385292197054108",
                                        "typeTag": 1
                                    }
                                },
                                {
                                    "key": "0xa404f66b9278c4ab8428225014266b4b239bcdc7",
                                    "value": {
                                        "current": "6954480494670434026150506",
                                        "prev": "6955081318594441803248921",
                                        "typeTag": 1
                                    }
                                }
                            ],
                            "typeTag": 4
                        }
                    }
                ]
            },
            {
                "address": "0xa404f66b9278c4ab8428225014266b4b239bcdc7",
                "erc": "",
                "slots": [
                    {
                        "current": "0x0000000000000000000000000000000000000000000000001584c8ff542875d4",
                        "key": "0x2587d85301857762736430a7f409e6354fc229fb0a75d794fdacc49e8d8586d8",
                        "prev": "0x000000000000000000000000000000000000000000000020a7a02894b400d083"
                    },
                    {
                        "current": "0x000000000000000000000000000000000000000000000000000000000000000c",
                        "key": "0xe2a91232f3763e6ed99cb150f6b39cc42feb6a7a08057307bba9322508982b4f",
                        "prev": "0x000000000000000000000000000000000000000000000000000000000000000b"
                    }
                ],
                "storageVariables": [
                    {
                        "name": "unclaimedTokensByUser",
                        "type": "mapping(address => uint256)",
                        "value": {
                            "pairs": [
                                {
                                    "key": "0x42fb83edc74a572de53cb7153e470c3df4c1214f",
                                    "value": {
                                        "current": "1550585170676446676",
                                        "prev": "602374509178453545091",
                                        "typeTag": 1
                                    }
                                }
                            ],
                            "typeTag": 4
                        }
                    },
                    {
                        "name": "latestCounterByUser",
                        "type": "mapping(address => uint256)",
                        "value": {
                            "pairs": [
                                {
                                    "key": "0x42fb83edc74a572de53cb7153e470c3df4c1214f",
                                    "value": {
                                        "current": "12",
                                        "prev": "11",
                                        "typeTag": 1
                                    }
                                }
                            ],
                            "typeTag": 4
                        }
                    }
                ]
            }
        ]
    }
}