{
    "balance_change": {
        "balanceChanges": [
            {
                "account": "0xb44f6605517dc007a9a6e79b2b524335a9830af9",
                "assets": [
                    {
                        "address": "0x9b4e2b4b13d125238aa0480dd42b4f6fc71b37cc",
                        "amount": "0.001",
                        "iconUrl": "https://assets.blocksec.com/icon/00a8cef46b4a39c97199013e4a2bac5e76d10b95d255b99efc6b27d3991fb472.png",
                        "isERC1155": false,
                        "isERC721": false,
                        "sign": true,
                        "value": ""
                    },
                    {
                        "address": "0xeeeeeeeeeeeeeeeeeeeeeeeeeeeeeeeeeeeeeeee",
                        "amount": "0.002",
                        "iconUrl": "https://assets.blocksec.com/image/1663669189317-3.png",
                        "isERC1155": false,
                        "isERC721": false,
                        "sign": false,
                        "value": ""
                    }
                ]
            },
            {
                "account": "0x73282a63f0e3d7e9604575420f777361eca3c86a",
                "assets": [
                    {
                        "address": "0x9b4e2b4b13d125238aa0480dd42b4f6fc71b37cc",
                        "amount": "0.001",
                        "iconUrl": "https://assets.blocksec.com/icon/00a8cef46b4a39c97199013e4a2bac5e76d10b95d255b99efc6b27d3991fb472.png",
                        "isERC1155": false,
                        "isERC721": false,
                        "sign": false,
                        "value": ""
                    }
                ]
            },
            {
                "account": "0x98945bc69a554f8b129b09ac8afdc2cc2431c48e",
                "assets": [
                    {
                        "address": "0xeeeeeeeeeeeeeeeeeeeeeeeeeeeeeeeeeeeeeeee",
                        "amount": "0.002",
                        "iconUrl": "https://assets.blocksec.com/image/1663669189317-3.png",
                        "isERC1155": false,
                        "isERC721": false,
                        "sign": true,
                        "value": ""
                    }
                ]
            }
        ]
    },
    "profile": {
        "basic_info": {
            "baseFee": "",
            "blockNumber": 10806181,
            "callData": "0xaed3514700000000000000000000000000000000000000000000000000000000000007bd0000000000000000000000000000000000000000000000000de0b6b3a76400000000000000000000000000000000000000000000000000000000000000000000",
            "debugEnable": true,
            "errorInfo": "",
            "eventCount": 2,
            "feeRecipient": "0x52bc44d5378309ee2abf1539bf71de1b7d7be3b5",
            "formatValue": "1",
            "gasLimit": 600000,
            "gasPrice": "80.500001123",
            "gasUsed": 144348,
            "intTxnCount": 5,
            "internalRevert": false,
            "internalRevertMessage": "",
            "isContractCreation": false,
            "isFlashloan": false,
            "maxFee": "",
            "nonce": 2320,
            "overwritedBlockNumber": -1,
            "priorityFee": "",
            "receiver": "0x73282a63f0e3d7e9604575420f777361eca3c86a",
            "revertMessage": "",
            "sender": "0xb44f6605517dc007a9a6e79b2b524335a9830af9",
            "simulationEnable": true,
            "sourceTxnHash": "0xe96d4bae3604e9b8a75a2c754b5c9265d71d77e39407c3fe151378ce17b30cf4",
            "status": true,
            "timestamp": "2020-09-06T05:57:18Z",
            "transactionFee": "0.011620014162102804",
            "txnHash": "0xe96d4bae3604e9b8a75a2c754b5c9265d71d77e39407c3fe151378ce17b30cf4",
            "txnIndex": 50,
            "type": 0,
            "value": "1000000000000000000"
        },
        "fund_flow": [
            {
                "amount": "1",
                "from": "0xb44f6605517dc007a9a6e79b2b524335a9830af9",
                "id": 1,
                "isERC1155": false,
                "isERC721": false,
                "isReverted": false,
                "order": 1,
                "to": "0x73282a63f0e3d7e9604575420f777361eca3c86a",
                "token": "0xeeeeeeeeeeeeeeeeeeeeeeeeeeeeeeeeeeeeeeee"
            },
            {
                "amount": "0.001",
                "from": "0x73282a63f0e3d7e9604575420f777361eca3c86a",
                "id": 2,
                "isERC1155": false,
                "isERC721": false,
                "isReverted": false,
                "order": 2,
                "to": "0xb44f6605517dc007a9a6e79b2b524335a9830af9",
                "token": "0x9b4e2b4b13d125238aa0480dd42b4f6fc71b37cc"
            },
            {
                "amount": "0.998",
                "from": "0x73282a63f0e3d7e9604575420f777361eca3c86a",
                "id": 3,
                "isERC1155": false,
                "isERC721": false,
                "isReverted": false,
                "order": 3,
                "to": "0xb44f6605517dc007a9a6e79b2b524335a9830af9",
                "token": "0xeeeeeeeeeeeeeeeeeeeeeeeeeeeeeeeeeeeeeeee"
            },
            {
                "amount": "0.002",
                "from": "0x73282a63f0e3d7e9604575420f777361eca3c86a",
                "id": 4,
                "isERC1155": false,
                "isERC721": false,
                "isReverted": false,
                "order": 4,
                "to": "0x98945bc69a554f8b129b09ac8afdc2cc2431c48e",
                "token": "0xeeeeeeeeeeeeeeeeeeeeeeeeeeeeeeeeeeeeeeee"
            }
        ],
        "token_infos": [
            {
                "address": "0x9b4e2b4b13d125238aa0480dd42b4f6fc71b37cc",
                "decimals": 18
            },
            {
                "address": "0xc02aaa39b223fe8d0a0e5c4f27ead9083c756cc2",
                "decimals": 18
            },
            {
                "address": "0xeeeeeeeeeeeeeeeeeeeeeeeeeeeeeeeeeeeeeeee",
                "decimals": 18
            }
        ]
    },
    "address_label": {
        "labels": [
            {
                "address": "0x73282a63f0e3d7e9604575420f777361eca3c86a",
                "label": "0x7328_AdminUpgradeabilityProxy"
            },
            {
                "address": "0x98945bc69a554f8b129b09ac8afdc2cc2431c48e",
                "label": "0x9894_AdminUpgradeabilityProxy"
            },
            {
                "address": "0x0000000000000000000000000000000000000001",
                "label": "Precompiled"
            },
            {
                "address": "0x0000000000000000000000000000000000000002",
                "label": "Precompiled"
            },
            {
                "address": "0x0000000000000000000000000000000000000003",
                "label": "Precompiled"
            },
            {
                "address": "0x0000000000000000000000000000000000000004",
                "label": "Precompiled"
            },
            {
                "address": "0xeeeeeeeeeeeeeeeeeeeeeeeeeeeeeeeeeeeeeeee",
                "label": "Ether"
            },
            {
                "address": "0x9b4e2b4b13d125238aa0480dd42b4f6fc71b37cc",
                "label": "MT Token (MT)"
            }
        ]
    },
    "trace": {
        "accountLabels": null,
        "dataMap": {
            "-1": {
                "invocation": {
                    "address": "0xb44f6605517dc007a9a6e79b2b524335a9830af9",
                    "callData": "",
                    "decodedMethod": null,
                    "errorInfo": "",
                    "fromAddress": "",
                    "gasUsed": 0,
                    "id": -1,
                    "methodDecoded": false,
                    "operation": "",
                    "output": "",
                    "revert": false,
                    "revertMessage": "",
                    "selector": "",
                    "status": false,
                    "value": ""
                },
                "nodeType": 0
            },
            "0": {
                "invocation": {
                    "address": "0x73282a63f0e3d7e9604575420f777361eca3c86a",
                    "callData": "0x00000000000000000000000000000000000000000000000000000000000007bd0000000000000000000000000000000000000000000000000de0b6b3a76400000000000000000000000000000000000000000000000000000000000000000000",
                    "decodedMethod": null,
                    "errorInfo": "",
                    "fromAddress": "0xb44f6605517dc007a9a6e79b2b524335a9830af9",
                    "gasUsed": 144348,
                    "id": 0,
                    "methodDecoded": false,
                    "operation": "CALL",
                    "output": "",
                    "revert": false,
                    "revertMessage": "",
                    "selector": "0xaed35147",
                    "status": true,
                    "value": "1"
                },
                "nodeType": 0
            },
            "1": {
                "invocation": {
                    "address": "0xecd2b33c4e80f284c3d0bdc8147fdf02ca30a737",
                    "callData": "0x00000000000000000000000000000000000000000000000000000000000007bd0000000000000000000000000000000000000000000000000de0b6b3a76400000000000000000000000000000000000000000000000000000000000000000000",
                    "decodedMethod": null,
                    "errorInfo": "",
                    "fromAddress": "0x73282a63f0e3d7e9604575420f777361eca3c86a",
                    "gasUsed": 120027,
                    "id": 1,
                    "methodDecoded": false,
                    "operation": "DELEGATECALL",
                    "output": "",
                    "revert": false,
                    "revertMessage": "",
                    "selector": "0xaed35147",
                    "status": true,
                    "value": "1"
                },
                "nodeType": 0
            },
            "2": {
                "invocation": {
                    "address": "0x9b4e2b4b13d125238aa0480dd42b4f6fc71b37cc",
                    "callData": "0x000000000000000000000000b44f6605517dc007a9a6e79b2b524335a9830af900000000000000000000000000000000000000000000000000038d7ea4c68000",
                    "decodedMethod": {
                        "callParams": [
                            {
                                "name": "_to",
                                "type": "address",
                                "value": "0xb44f6605517dc007a9a6e79b2b524335a9830af9"
                            },
                            {
                                "decimalAvailable": true,
                                "name": "_value",
                                "type": "uint256",
                                "value": "1,000,000,000,000,000"
                            }
                        ],
                        "constructorArguments": "",
                        "name": "transfer",
                        "returnParams": [
                            {
                                "name": "success",
                                "type": "bool",
                                "value": true
                            }
                        ],
                        "signature": "transfer(address,uint256)"
                    },
                    "errorInfo": "",
                    "fromAddress": "0x73282a63f0e3d7e9604575420f777361eca3c86a",
                    "gasUsed": 15086,
                    "id": 2,
                    "methodDecoded": true,
                    "operation": "CALL",
                    "output": "0x0000000000000000000000000000000000000000000000000000000000000001",
                    "revert": false,
                    "revertMessage": "",
                    "selector": "0xa9059cbb",
                    "status": true,
                    "value": "0"
                },
                "nodeType": 0
            },
            "3": {
                "event": {
                    "contract": "0x9b4e2b4b13d125238aa0480dd42b4f6fc71b37cc",
                    "decodedLog": {
                        "name": "Transfer",
                        "params": [
                            {
                                "name": "_from",
                                "type": "address",
                                "value": "0x73282a63f0e3d7e9604575420f777361eca3c86a"
                            },
                            {
                                "name": "_to",
                                "type": "address",
                                "value": "0xb44f6605517dc007a9a6e79b2b524335a9830af9"
                            },
                            {
                                "decimalAvailable": true,
                                "name": "_value",
                                "type": "uint256",
                                "value": "1,000,000,000,000,000"
                            }
                        ],
                        "signature": "Transfer(address,address,uint256)"
                    },
                    "id": 3,
                    "logData": "0x00000000000000000000000000000000000000000000000000038d7ea4c68000",
                    "logDecoded": true,
                    "operation": "EVENT",
                    "revert": false,
                    "status": true,
                    "topics": [
                        "0xddf252ad1be2c89b69c2b068fc378daa952ba7f163c4a11628f55a4df523b3ef",
                        "0x00000000000000000000000073282a63f0e3d7e9604575420f777361eca3c86a",
                        "0x000000000000000000000000b44f6605517dc007a9a6e79b2b524335a9830af9"
                    ]
                },
                "nodeType": 1
            },
            "4": {
                "invocation": {
                    "address": "0xb44f6605517dc007a9a6e79b2b524335a9830af9",
                    "callData": "0x",
                    "decodedMethod": null,
                    "errorInfo": "",
                    "fromAddress": "0x73282a63f0e3d7e9604575420f777361eca3c86a",
                    "gasUsed": 0,
                    "id": 4,
                    "methodDecoded": false,
                    "operation": "CALL",
                    "output": "",
                    "revert": false,
                    "revertMessage": "",
                    "selector": "fallback",
                    "status": true,
                    "value": "0.998"
                },
                "nodeType": 0
            },
            "5": {
                "invocation": {
                    "address": "0x98945bc69a554f8b129b09ac8afdc2cc2431c48e",
                    "callData": "0x",
                    "decodedMethod": {
                        "callParams": [],
                        "constructorArguments": "",
                        "name": "depositReward",
                        "returnParams": [],
                        "signature": "depositReward()"
                    },
                    "errorInfo": "",
                    "fromAddress": "0x73282a63f0e3d7e9604575420f777361eca3c86a",
                    "gasUsed": 8939,
                    "id": 5,
                    "methodDecoded": true,
                    "operation": "CALL",
                    "output": "",
                    "revert": false,
                    "revertMessage": "",
                    "selector": "0x5ec2dc8d",
                    "status": true,
                    "value": "0.002"
                },
                "nodeType": 0
            },
            "6": {
                "invocation": {
                    "address": "0xb14941936750cdd9b47330d3ae1555008750e3fc",
                    "callData": "0x",
                    "decodedMethod": {
                        "callParams": [],
                        "constructorArguments": "",
                        "name": "depositReward",
                        "returnParams": [],
                        "signature": "depositReward()"
                    },
                    "errorInfo": "",
                    "fromAddress": "0x98945bc69a554f8b129b09ac8afdc2cc2431c48e",
                    "gasUsed": 6174,
                    "id": 6,
                    "methodDecoded": true,
                    "operation": "DELEGATECALL",
                    "output": "",
                    "revert": false,
                    "revertMessage": "",
                    "selector": "0x5ec2dc8d",
                    "status": true,
                    "value": "0.002"
                },
                "nodeType": 0
            },
            "7": {
                "event": {
                    "contract": "0x73282a63f0e3d7e9604575420f777361eca3c86a",
                    "decodedLog": {
                        "name": "Swapped",
                        "params": [
                            {
                                "name": "sender",
                                "type": "address",
                                "value": "0xb44f6605517dc007a9a6e79b2b524335a9830af9"
                            },
                            {
                                "name": "srcToken",
                                "type": "address",
                                "value": "0xb44f6605517dc007a9a6e79b2b524335a9830af9"
                            },
                            {
                                "name": "dstToken",
                                "type": "address",
                                "value": "0x9b4e2b4b13d125238aa0480dd42b4f6fc71b37cc"
                            },
                            {
                                "name": "dstReceiver",
                                "type": "address",
                                "value": "0x0000000000000000000000000000000000000000"
                            },
                            {
                                "name": "spentAmount",
                                "type": "uint256",
                                "value": "1,000,000,000,000,000"
                            },
                            {
                                "name": "returnAmount",
                                "type": "uint256",
                                "value": "1,000,000,000,000,000,000"
                            }
                        ],
                        "signature": "Swapped(address,address,address,address,uint256,uint256)"
                    },
                    "id": 7,
                    "logData": "0x000000000000000000000000b44f6605517dc007a9a6e79b2b524335a9830af9000000000000000000000000b44f6605517dc007a9a6e79b2b524335a9830af90000000000000000000000009b4e2b4b13d125238aa0480dd42b4f6fc71b37cc000000000000000000000000000000000000000000000000000000000000000000000000000000000000000000000000000000000000000000038d7ea4c680000000000000000000000000000000000000000000000000000de0b6b3a7640000",
                    "logDecoded": true,
                    "operation": "EVENT",
                    "revert": false,
                    "status": true,
                    "topics": [
                        "0xd6d4f5681c246c9f42c203e287975af1601f8df8035a9251f79aab5c8f09e2f8"
                    ]
                },
                "nodeType": 1
            }
        },
        "gasFlame": [
            {
                "children": [
                    {
                        "children": [
                            {
                                "children": [],
                                "depth": 0,
                                "name": "Initial Gas",
                                "value": 21544
                            },
                            {
                                "children": [
                                    {
                                        "children": [
                                            {
                                                "children": [],
                                                "depth": 2,
                                                "name": "transfer",
                                                "value": 15086
                                            },
                                            {
                                                "children": [],
                                                "depth": 2,
                                                "name": "fallback",
                                                "value": 0
                                            },
                                            {
                                                "children": [
                                                    {
                                                        "children": [],
                                                        "depth": 3,
                                                        "name": "depositReward",
                                                        "value": 6174
                                                    }
                                                ],
                                                "depth": 2,
                                                "name": "depositReward",
                                                "value": 8939
                                            }
                                        ],
                                        "depth": 1,
                                        "name": "0xaed35147",
                                        "value": 120027
                                    }
                                ],
                                "depth": 0,
                                "name": "Executed Gas",
                                "value": 122804
                            }
                        ],
                        "depth": -1,
                        "name": "Actual Gas Used",
                        "value": 144348
                    },
                    {
                        "children": [],
                        "depth": -1,
                        "name": "Refunded Gas",
                        "value": 0
                    }
                ],
                "depth": -2,
                "name": "Total Gas",
                "value": 144348
            }
        ],
        "isConfirmed": true,
        "mainTrace": [
            {
                "children": [
                    {
                        "children": [
                            {
                                "children": [
                                    {
                                        "children": [
                                            {
                                                "children": [],
                                                "depth": 3,
                                                "id": 3,
                                                "order": 3
                                            }
                                        ],
                                        "depth": 2,
                                        "id": 2,
                                        "order": 2
                                    },
                                    {
                                        "children": [],
                                        "depth": 2,
                                        "id": 4,
                                        "order": 4
                                    },
                                    {
                                        "children": [
                                            {
                                                "children": [],
                                                "depth": 3,
                                                "id": 6,
                                                "order": 6
                                            }
                                        ],
                                        "depth": 2,
                                        "id": 5,
                                        "order": 5
                                    },
                                    {
                                        "children": [],
                                        "depth": 2,
                                        "id": 7,
                                        "order": 7
                                    }
                                ],
                                "depth": 1,
                                "id": 1,
                                "order": 1
                            }
                        ],
                        "depth": 0,
                        "id": 0,
                        "order": 0
                    }
                ],
                "depth": -1,
                "id": -1,
                "order": -1
            }
        ],
        "mainTraceNodeCount": 8,
        "parentIdMap": {
            "0": -1,
            "1": 0,
            "2": 1,
            "3": 2,
            "4": 1,
            "5": 1,
            "6": 5,
            "7": 1
        },
        "tidyTrace": [
            {
                "children": [
                    {
                        "children": [
                            {
                                "children": [
                                    {
                                        "children": [
                                            {
                                                "children": [],
                                                "depth": 3,
                                                "id": 3,
                                                "order": 3
                                            }
                                        ],
                                        "depth": 2,
                                        "id": 2,
                                        "order": 2
                                    },
                                    {
                                        "children": [],
                                        "depth": 2,
                                        "id": 4,
                                        "order": 4
                                    },
                                    {
                                        "children": [
                                            {
                                                "children": [],
                                                "depth": 3,
                                                "id": 6,
                                                "order": 6
                                            }
                                        ],
                                        "depth": 2,
                                        "id": 5,
                                        "order": 5
                                    },
                                    {
                                        "children": [],
                                        "depth": 2,
                                        "id": 7,
                                        "order": 7
                                    }
                                ],
                                "depth": 1,
                                "id": 1,
                                "order": 1
                            }
                        ],
                        "depth": 0,
                        "id": 0,
                        "order": 0
                    }
                ],
                "depth": -1,
                "id": -1,
                "order": -1
            }
        ],
        "tidyTraceNodeCount": 8
    },
    "state_change": {
        "stateChanges": [
            {
                "address": "0x73282a63f0e3d7e9604575420f777361eca3c86a",
                "erc": "",
                "slots": [
                    {
                        "current": "0x0000000000000000000000000000000000000000000000000000000000000665",
                        "key": "0x3c153f709ed2fece6048890d8849ff8def332109987e66fe824b5658a5a34050",
                        "prev": "0x0000000000000000000000000000000000000000000000000000000000000664"
                    },
                    {
                        "current": "0x0000000000000000000000000000000000000000000000106cf83ea31f5c0000",
                        "key": "0x2c1ae528022dd8beddab1fe50ef8d9ed922fdbe3f5d5ca53068312d530223c7b",
                        "prev": "0x0000000000000000000000000000000000000000000000105f1787ef77f80000"
                    },
                    {
                        "current": "0x00000000000000000000000000000000000000000000000020c783ee82db9c00",
                        "key": "0xece66cfdbd22e3f37d348a3d8e19074452862cd65fd4b9a11f0336d1ac6d2580",
                        "prev": "0x00000000000000000000000000000000000000000000000020c3f66fde151c00"
                    },
                    {
                        "current": "0x0000000000000000000000000000000000000000000000800b5b5baf29d96000",
                        "key": "0x8d800d6614d35eed73733ee453164a3b48076eb3138f466adeeb9dec7bb3272d",
                        "prev": "0x00000000000000000000000000000000000000000000007ffd7aa4fb82756000"
                    },
                    {
                        "current": "0x00000000000000000000000000000000000000000000005a166dba1aef2ad800",
                        "key": "0x6870c3fd96f5033f51089a4c5d1f10e1ceb4973a3bb1afcb58dfc518137a40ef",
                        "prev": "0x00000000000000000000000000000000000000000000005a088d036747c6d800"
                    },
                    {
                        "current": "0x000000000000000000000000000000000000000000000000000000000000012f",
                        "key": "0x99e5268d727206b6d71649e5dbe580346b87141179688bd5f939cbce92fd9c53",
                        "prev": "0x000000000000000000000000000000000000000000000000000000000000012e"
                    }
                ],
                "storageVariables": []
            },
            {
                "address": "0x98945bc69a554f8b129b09ac8afdc2cc2431c48e",
                "erc": "",
                "slots": [
                    {
                        "current": "0x00000000000000000000000000000000000000000000001297ff0ddea0680e6f",
                        "key": "0x0000000000000000000000000000000000000000000000000000000000000036",
                        "prev": "0x00000000000000000000000000000000000000000000001297f7f2e156db0e6f"
                    }
                ],
                "storageVariables": []
            },
            {
                "address": "0x9b4e2b4b13d125238aa0480dd42b4f6fc71b37cc",
                "erc": "ERC-20",
                "slots": [
                    {
                        "current": "0x000000000000000000000000000000000000000000000036150229d75bc46400",
                        "key": "0x70e724003eac136f8b7ca75c5d3257dfc04241cf4df071e9733b1c2d7a9d3984",
                        "prev": "0x0000000000000000000000000000000000000000000000361505b756008ae400"
                    },
                    {
                        "current": "0x0000000000000000000000000000000000000000000001ade71f95114e706c00",
                        "key": "0x23b0b1df819778f1358eb1edfe530271a2cd409990fe32c190ccd323da1a9179",
                        "prev": "0x0000000000000000000000000000000000000000000001ade71c0792a9a9ec00"
                    }
                ],
                "storageVariables": [
                    {
                        "name": "balances",
                        "type": "mapping(address => uint256)",
                        "value": {
                            "pairs": [
                                {
                                    "key": "0x73282a63f0e3d7e9604575420f777361eca3c86a",
                                    "value": {
                                        "current": "997637998410000000000",
                                        "prev": "997638998410000000000",
                                        "typeTag": 1
                                    }
                                },
                                {
                                    "key": "0xb44f6605517dc007a9a6e79b2b524335a9830af9",
                                    "value": {
                                        "current": "7930307401470000000000",
                                        "prev": "7930306401470000000000",
                                        "typeTag": 1
                                    }
                                }
                            ],
                            "typeTag": 4
                        }
                    }
                ]
            }
        ]
    }
}