{
    "balance_change": {
        "balanceChanges": [
            {
                "account": "0x9008d19f58aabd9ed0d60971565aa8510560ab41",
                "assets": [
                    {
                        "address": "0xa0b86991c6218b36c1d19d4a2e9eb0ce3606eb48",
                        "amount": "100",
                        "iconUrl": "https://assets.blocksec.com/icon/0347a86cc07dbd03fdc5db01a4e5ac7e1217f90e0b6e4bb0f75cbcca09160989.png",
                        "isERC1155": false,
                        "isERC721": false,
                        "sign": true,
                        "value": "99.9900000000000011"
                    },
                    {
                        "address": "0xeeeeeeeeeeeeeeeeeeeeeeeeeeeeeeeeeeeeeeee",
                        "amount": "0.068626246166491541",
                        "iconUrl": "https://assets.blocksec.com/image/1663669189317-3.png",
                        "isERC1155": false,
                        "isERC721": false,
                        "sign": false,
                        "value": "96.596931583968595005"
                    }
                ]
            },
            {
                "account": "0xf3bda59a1996e142ca3198d2f5a541e4248dc17a",
                "assets": [
                    {
                        "address": "0xa0b86991c6218b36c1d19d4a2e9eb0ce3606eb48",
                        "amount": "100",
                        "iconUrl": "https://assets.blocksec.com/icon/0347a86cc07dbd03fdc5db01a4e5ac7e1217f90e0b6e4bb0f75cbcca09160989.png",
                        "isERC1155": false,
                        "isERC721": false,
                        "sign": false,
                        "value": "99.9900000000000011"
                    },
                    {
                        "address": "0xeeeeeeeeeeeeeeeeeeeeeeeeeeeeeeeeeeeeeeee",
                        "amount": "0.068626246166491541",
                        "iconUrl": "https://assets.blocksec.com/image/1663669189317-3.png",
                        "isERC1155": false,
                        "isERC721": false,
                        "sign": true,
                        "value": "96.596931583968595005"
                    }
                ]
            }
        ]
    },
    "profile": {
        "basic_info": {
            "baseFee": "16.959715049",
            "blockNumber": 16394368,
            "callData": "0x13d79a0b000000000000000000000000000000000000000000000000000000000000008000000000000000000000000000000000000000000000000000000000000000e0000000000000000000000000000000000000000000000000000000000000014000000000000000000000000000000000000000000000000000000000000003600000000000000000000000000000000000000000000000000000000000000002000000000000000000000000a0b86991c6218b36c1d19d4a2e9eb0ce3606eb48000000000000000000000000eeeeeeeeeeeeeeeeeeeeeeeeeeeeeeeeeeeeeeee000000000000000000000000000000000000000000000000000000000000000200000000000000000000000000000000000000000000000000f3cf351105b1950000000000000000000000000000000000000000000000000000000005c6368e0000000000000000000000000000000000000000000000000000000000000001000000000000000000000000000000000000000000000000000000000000002000000000000000000000000000000000000000000000000000000000000000000000000000000000000000000000000000000000000000000000000000000001000000000000000000000000f3bda59a1996e142ca3198d2f5a541e4248dc17a0000000000000000000000000000000000000000000000000000000005c6368e00000000000000000000000000000000000000000000000000f386b210e4640d0000000000000000000000000000000000000000000000000000000063c0afd2c86d3a0def4d16bd04317645da9ae1d6871726d8adf83a0695447f8ee5c63d1200000000000000000000000000000000000000000000000000000000002faa7200000000000000000000000000000000000000000000000000000000000000000000000000000000000000000000000000000000000000000000000005c6368e00000000000000000000000000000000000000000000000000000000000001600000000000000000000000000000000000000000000000000000000000000041037fc4636d8155d5005af07c49676438ee15724e9b56c8b17ba328b18c84d8812150b1c9663320997cc7fa2fd7e08b0c435b2611084110a479f693f75c32fd071c000000000000000000000000000000000000000000000000000000000000000000000000000000000000000000000000000000000000000000000000000060000000000000000000000000000000000000000000000000000000000000008000000000000000000000000000000000000000000000000000000000000000a0000000000000000000000000000000000000000000000000000000000000000000000000000000000000000000000000000000000000000000000000000000000000000000000000000000000000000000000000000000000000000000000000",
            "debugEnable": true,
            "errorInfo": "",
            "eventCount": 3,
            "feeRecipient": "0x690b9a9e9aa1c9db991c7721a92d351db4fac990",
            "formatValue": "0",
            "gasLimit": 169446,
            "gasPrice": "17.282911099",
            "gasUsed": 130618,
            "intTxnCount": 7,
            "internalRevert": false,
            "internalRevertMessage": "",
            "isContractCreation": false,
            "isFlashloan": false,
            "maxFee": "35.953742769",
            "nonce": 3270,
            "overwritedBlockNumber": -1,
            "priorityFee": "0.32319605",
            "receiver": "0x9008d19f58aabd9ed0d60971565aa8510560ab41",
            "revertMessage": "",
            "sender": "0x3cee8c7d9b5c8f225a8c36e7d3514e1860309651",
            "simulationEnable": true,
            "sourceTxnHash": "0xea4801d8063260e295a87a0765c87e8f42d012f048725db039d6a3ccac95f114",
            "status": true,
            "timestamp": "2023-01-13T00:42:59Z",
            "transactionFee": "0.002257459281929182",
            "txnHash": "0xea4801d8063260e295a87a0765c87e8f42d012f048725db039d6a3ccac95f114",
            "txnIndex": 165,
            "type": 2,
            "value": "0"
        },
        "fund_flow": [
            {
                "amount": "100",
                "from": "0xf3bda59a1996e142ca3198d2f5a541e4248dc17a",
                "id": 1,
                "isERC1155": false,
                "isERC721": false,
                "isReverted": false,
                "order": 1,
                "to": "0x9008d19f58aabd9ed0d60971565aa8510560ab41",
                "token": "0xa0b86991c6218b36c1d19d4a2e9eb0ce3606eb48"
            },
            {
                "amount": "0.068626246166491541",
                "from": "0x9008d19f58aabd9ed0d60971565aa8510560ab41",
                "id": 2,
                "isERC1155": false,
                "isERC721": false,
                "isReverted": false,
                "order": 2,
                "to": "0xf3bda59a1996e142ca3198d2f5a541e4248dc17a",
                "token": "0xeeeeeeeeeeeeeeeeeeeeeeeeeeeeeeeeeeeeeeee"
            }
        ],
        "token_infos": [
            {
                "address": "0xa0b86991c6218b36c1d19d4a2e9eb0ce3606eb48",
                "decimals": 6
            },
            {
                "address": "0xc02aaa39b223fe8d0a0e5c4f27ead9083c756cc2",
                "decimals": 18
            },
            {
                "address": "0xeeeeeeeeeeeeeeeeeeeeeeeeeeeeeeeeeeeeeeee",
                "decimals": 18
            }
        ]
    },
    "address_label": {
        "labels": [
            {
                "address": "0x9e7ae8bdba9aa346739792d219a808884996db67",
                "label": "CoW Protocol: GPv2AllowListAuthentication"
            },
            {
                "address": "0xc92e8bdf79f0507f65a392b0ab4667716bfe0110",
                "label": "CoW Protocol: GPv2VaultRelayer"
            },
            {
                "address": "0x0000000000000000000000000000000000000001",
                "label": "Precompiled"
            },
            {
                "address": "0x0000000000000000000000000000000000000002",
                "label": "Precompiled"
            },
            {
                "address": "0x0000000000000000000000000000000000000003",
                "label": "Precompiled"
            },
            {
                "address": "0xeeeeeeeeeeeeeeeeeeeeeeeeeeeeeeeeeeeeeeee",
                "label": "Ether"
            },
            {
                "address": "0x9008d19f58aabd9ed0d60971565aa8510560ab41",
                "label": "CoW Protocol: GPv2Settlement"
            },
            {
                "address": "0xa2327a938febf5fec13bacfb16ae10ecbc4cbdcf",
                "label": "FiatTokenV2_1"
            },
            {
                "address": "0x2c4c28ddbdac9c5e7055b4c863b72ea0149d8afe",
                "label": "CoW Protocol: GPv2AllowListAuthentication_Proxy"
            },
            {
                "address": "0xa0b86991c6218b36c1d19d4a2e9eb0ce3606eb48",
                "label": "Circle: USDC Token"
            },
            {
                "address": "0x0000000000000000000000000000000000000004",
                "label": "Precompiled"
            }
        ]
    },
    "trace": {
        "accountLabels": null,
        "dataMap": {
            "-1": {
                "invocation": {
                    "address": "0x3cee8c7d9b5c8f225a8c36e7d3514e1860309651",
                    "callData": "",
                    "decodedMethod": null,
                    "errorInfo": "",
                    "fromAddress": "",
                    "gasUsed": 0,
                    "id": -1,
                    "methodDecoded": false,
                    "operation": "",
                    "output": "",
                    "revert": false,
                    "revertMessage": "",
                    "selector": "",
                    "status": false,
                    "value": ""
                },
                "nodeType": 0
            },
            "0": {
                "invocation": {
                    "address": "0x9008d19f58aabd9ed0d60971565aa8510560ab41",
                    "callData": "0x000000000000000000000000000000000000000000000000000000000000008000000000000000000000000000000000000000000000000000000000000000e0000000000000000000000000000000000000000000000000000000000000014000000000000000000000000000000000000000000000000000000000000003600000000000000000000000000000000000000000000000000000000000000002000000000000000000000000a0b86991c6218b36c1d19d4a2e9eb0ce3606eb48000000000000000000000000eeeeeeeeeeeeeeeeeeeeeeeeeeeeeeeeeeeeeeee000000000000000000000000000000000000000000000000000000000000000200000000000000000000000000000000000000000000000000f3cf351105b1950000000000000000000000000000000000000000000000000000000005c6368e0000000000000000000000000000000000000000000000000000000000000001000000000000000000000000000000000000000000000000000000000000002000000000000000000000000000000000000000000000000000000000000000000000000000000000000000000000000000000000000000000000000000000001000000000000000000000000f3bda59a1996e142ca3198d2f5a541e4248dc17a0000000000000000000000000000000000000000000000000000000005c6368e00000000000000000000000000000000000000000000000000f386b210e4640d0000000000000000000000000000000000000000000000000000000063c0afd2c86d3a0def4d16bd04317645da9ae1d6871726d8adf83a0695447f8ee5c63d1200000000000000000000000000000000000000000000000000000000002faa7200000000000000000000000000000000000000000000000000000000000000000000000000000000000000000000000000000000000000000000000005c6368e00000000000000000000000000000000000000000000000000000000000001600000000000000000000000000000000000000000000000000000000000000041037fc4636d8155d5005af07c49676438ee15724e9b56c8b17ba328b18c84d8812150b1c9663320997cc7fa2fd7e08b0c435b2611084110a479f693f75c32fd071c000000000000000000000000000000000000000000000000000000000000000000000000000000000000000000000000000000000000000000000000000060000000000000000000000000000000000000000000000000000000000000008000000000000000000000000000000000000000000000000000000000000000a0000000000000000000000000000000000000000000000000000000000000000000000000000000000000000000000000000000000000000000000000000000000000000000000000000000000000000000000000000000000000000000000000",
                    "decodedMethod": {
                        "callParams": [
                            {
                                "name": "tokens",
                                "type": "address[]",
                                "value": [
                                    "0xa0b86991c6218b36c1d19d4a2e9eb0ce3606eb48",
                                    "0xeeeeeeeeeeeeeeeeeeeeeeeeeeeeeeeeeeeeeeee"
                                ]
                            },
                            {
                                "name": "clearingPrices",
                                "type": "uint256[]",
                                "value": [
                                    "68,626,246,166,491,541",
                                    "96,876,174"
                                ]
                            },
                            {
                                "name": "trades",
                                "type": "(uint256,uint256,address,uint256,uint256,uint32,bytes32,uint256,uint256,uint256,bytes)[]",
                                "value": [
                                    [
                                        {
                                            "name": "sellTokenIndex",
                                            "type": "uint256",
                                            "value": "0"
                                        },
                                        {
                                            "name": "buyTokenIndex",
                                            "type": "uint256",
                                            "value": "1"
                                        },
                                        {
                                            "name": "receiver",
                                            "type": "address",
                                            "value": "0xf3bda59a1996e142ca3198d2f5a541e4248dc17a"
                                        },
                                        {
                                            "name": "sellAmount",
                                            "type": "uint256",
                                            "value": "96,876,174"
                                        },
                                        {
                                            "name": "buyAmount",
                                            "type": "uint256",
                                            "value": "68,546,518,686,393,357"
                                        },
                                        {
                                            "name": "validTo",
                                            "type": "uint32",
                                            "value": "1,673,572,306"
                                        },
                                        {
                                            "name": "appData",
                                            "type": "bytes32",
                                            "value": "0xc86d3a0def4d16bd04317645da9ae1d6871726d8adf83a0695447f8ee5c63d12"
                                        },
                                        {
                                            "name": "feeAmount",
                                            "type": "uint256",
                                            "value": "3,123,826"
                                        },
                                        {
                                            "name": "flags",
                                            "type": "uint256",
                                            "value": "0"
                                        },
                                        {
                                            "name": "executedAmount",
                                            "type": "uint256",
                                            "value": "96,876,174"
                                        },
                                        {
                                            "name": "signature",
                                            "type": "bytes",
                                            "value": "0x037fc4636d8155d5005af07c49676438ee15724e9b56c8b17ba328b18c84d8812150b1c9663320997cc7fa2fd7e08b0c435b2611084110a479f693f75c32fd071c"
                                        }
                                    ]
                                ]
                            },
                            {
                                "name": "interactions",
                                "type": "(address,uint256,bytes)[][3]",
                                "value": [
                                    [],
                                    [],
                                    []
                                ]
                            }
                        ],
                        "constructorArguments": "",
                        "name": "settle",
                        "returnParams": [],
                        "signature": "settle(address[],uint256[],(uint256,uint256,address,uint256,uint256,uint32,bytes32,uint256,uint256,uint256,bytes)[],(address,uint256,bytes)[][3])"
                    },
                    "errorInfo": "",
                    "fromAddress": "0x3cee8c7d9b5c8f225a8c36e7d3514e1860309651",
                    "gasUsed": 130618,
                    "id": 0,
                    "methodDecoded": true,
                    "operation": "CALL",
                    "output": "",
                    "revert": false,
                    "revertMessage": "",
                    "selector": "0x13d79a0b",
                    "status": true,
                    "value": "0"
                },
                "nodeType": 0
            },
            "1": {
                "invocation": {
                    "address": "0x2c4c28ddbdac9c5e7055b4c863b72ea0149d8afe",
                    "callData": "0x0000000000000000000000003cee8c7d9b5c8f225a8c36e7d3514e1860309651",
                    "decodedMethod": {
                        "callParams": [
                            {
                                "name": "prospectiveSolver",
                                "type": "address",
                                "value": "0x3cee8c7d9b5c8f225a8c36e7d3514e1860309651"
                            }
                        ],
                        "constructorArguments": "",
                        "name": "isSolver",
                        "returnParams": [
                            {
                                "name": "",
                                "type": "bool",
                                "value": true
                            }
                        ],
                        "signature": "isSolver(address)"
                    },
                    "errorInfo": "",
                    "fromAddress": "0x9008d19f58aabd9ed0d60971565aa8510560ab41",
                    "gasUsed": 865,
                    "id": 1,
                    "methodDecoded": true,
                    "operation": "STATICCALL",
                    "output": "0x0000000000000000000000000000000000000000000000000000000000000001",
                    "revert": false,
                    "revertMessage": "",
                    "selector": "0x02cc250d",
                    "status": true,
                    "value": "0"
                },
                "nodeType": 0
            },
            "10": {
                "event": {
                    "contract": "0x9008d19f58aabd9ed0d60971565aa8510560ab41",
                    "decodedLog": {
                        "name": "Settlement",
                        "params": [
                            {
                                "name": "solver",
                                "type": "address",
                                "value": "0x3cee8c7d9b5c8f225a8c36e7d3514e1860309651"
                            }
                        ],
                        "signature": "Settlement(address)"
                    },
                    "id": 10,
                    "logData": "0x",
                    "logDecoded": true,
                    "operation": "EVENT",
                    "revert": false,
                    "status": true,
                    "topics": [
                        "0x40338ce1a7c49204f0099533b1e9a7ee0a3d261f84974ab7af36105b8c4e9db4",
                        "0x0000000000000000000000003cee8c7d9b5c8f225a8c36e7d3514e1860309651"
                    ]
                },
                "nodeType": 1
            },
            "2": {
                "invocation": {
                    "address": "0x9e7ae8bdba9aa346739792d219a808884996db67",
                    "callData": "0x0000000000000000000000003cee8c7d9b5c8f225a8c36e7d3514e1860309651",
                    "decodedMethod": {
                        "callParams": [
                            {
                                "name": "prospectiveSolver",
                                "type": "address",
                                "value": "0x3cee8c7d9b5c8f225a8c36e7d3514e1860309651"
                            }
                        ],
                        "constructorArguments": "",
                        "name": "isSolver",
                        "returnParams": [
                            {
                                "name": "",
                                "type": "bool",
                                "value": true
                            }
                        ],
                        "signature": "isSolver(address)"
                    },
                    "errorInfo": "",
                    "fromAddress": "0x2c4c28ddbdac9c5e7055b4c863b72ea0149d8afe",
                    "gasUsed": 431,
                    "id": 2,
                    "methodDecoded": true,
                    "operation": "DELEGATECALL",
                    "output": "0x0000000000000000000000000000000000000000000000000000000000000001",
                    "revert": false,
                    "revertMessage": "",
                    "selector": "0x02cc250d",
                    "status": true,
                    "value": "0"
                },
                "nodeType": 0
            },
            "3": {
                "invocation": {
                    "address": "0x0000000000000000000000000000000000000001",
                    "callData": "0x1a3f53993141377b4866615b5f81e37efeac4ae1306ef47dce4cf157000000000000000000000000000000000000000000000000000000000000001c037fc4636d8155d5005af07c49676438ee15724e9b56c8b17ba328b18c84d8812150b1c9663320997cc7fa2fd7e08b0c435b2611084110a479f693f75c32fd07",
                    "decodedMethod": {
                        "callParams": [
                            {
                                "name": "hash",
                                "type": "bytes32",
                                "value": "0xb9b55e961a3f53993141377b4866615b5f81e37efeac4ae1306ef47dce4cf157"
                            },
                            {
                                "name": "v",
                                "type": "uint256",
                                "value": "28"
                            },
                            {
                                "name": "r",
                                "type": "bytes32",
                                "value": "0x037fc4636d8155d5005af07c49676438ee15724e9b56c8b17ba328b18c84d881"
                            },
                            {
                                "name": "s",
                                "type": "bytes32",
                                "value": "0x2150b1c9663320997cc7fa2fd7e08b0c435b2611084110a479f693f75c32fd07"
                            }
                        ],
                        "constructorArguments": "",
                        "name": "ecrecover",
                        "returnParams": [
                            {
                                "name": "",
                                "type": "address",
                                "value": "0xf3bda59a1996e142ca3198d2f5a541e4248dc17a"
                            }
                        ],
                        "signature": "ecrecover(bytes32,uint256,bytes32,bytes32)"
                    },
                    "errorInfo": "",
                    "fromAddress": "0x9008d19f58aabd9ed0d60971565aa8510560ab41",
                    "gasUsed": 3000,
                    "id": 3,
                    "methodDecoded": true,
                    "operation": "STATICCALL",
                    "output": "0x000000000000000000000000f3bda59a1996e142ca3198d2f5a541e4248dc17a",
                    "revert": false,
                    "revertMessage": "",
                    "selector": "0xb9b55e96",
                    "status": true,
                    "value": "0"
                },
                "nodeType": 0
            },
            "4": {
                "event": {
                    "contract": "0x9008d19f58aabd9ed0d60971565aa8510560ab41",
                    "decodedLog": {
                        "name": "Trade",
                        "params": [
                            {
                                "name": "owner",
                                "type": "address",
                                "value": "0xf3bda59a1996e142ca3198d2f5a541e4248dc17a"
                            },
                            {
                                "name": "sellToken",
                                "type": "address",
                                "value": "0xa0b86991c6218b36c1d19d4a2e9eb0ce3606eb48"
                            },
                            {
                                "name": "buyToken",
                                "type": "address",
                                "value": "0xeeeeeeeeeeeeeeeeeeeeeeeeeeeeeeeeeeeeeeee"
                            },
                            {
                                "name": "sellAmount",
                                "type": "uint256",
                                "value": "100,000,000"
                            },
                            {
                                "name": "buyAmount",
                                "type": "uint256",
                                "value": "68,626,246,166,491,541"
                            },
                            {
                                "name": "feeAmount",
                                "type": "uint256",
                                "value": "3,123,826"
                            },
                            {
                                "name": "orderUid",
                                "type": "bytes",
                                "value": "0xb9b55e961a3f53993141377b4866615b5f81e37efeac4ae1306ef47dce4cf157f3bda59a1996e142ca3198d2f5a541e4248dc17a63c0afd2"
                            }
                        ],
                        "signature": "Trade(address,address,address,uint256,uint256,uint256,bytes)"
                    },
                    "id": 4,
                    "logData": "0x000000000000000000000000a0b86991c6218b36c1d19d4a2e9eb0ce3606eb48000000000000000000000000eeeeeeeeeeeeeeeeeeeeeeeeeeeeeeeeeeeeeeee0000000000000000000000000000000000000000000000000000000005f5e10000000000000000000000000000000000000000000000000000f3cf351105b19500000000000000000000000000000000000000000000000000000000002faa7200000000000000000000000000000000000000000000000000000000000000c00000000000000000000000000000000000000000000000000000000000000038b9b55e961a3f53993141377b4866615b5f81e37efeac4ae1306ef47dce4cf157f3bda59a1996e142ca3198d2f5a541e4248dc17a63c0afd20000000000000000",
                    "logDecoded": true,
                    "operation": "EVENT",
                    "revert": false,
                    "status": true,
                    "topics": [
                        "0xa07a543ab8a018198e99ca0184c93fe9050a79400a0a723441f84de1d972cc17",
                        "0x000000000000000000000000f3bda59a1996e142ca3198d2f5a541e4248dc17a"
                    ]
                },
                "nodeType": 1
            },
            "5": {
                "invocation": {
                    "address": "0xc92e8bdf79f0507f65a392b0ab4667716bfe0110",
                    "callData": "0x00000000000000000000000000000000000000000000000000000000000000200000000000000000000000000000000000000000000000000000000000000001000000000000000000000000f3bda59a1996e142ca3198d2f5a541e4248dc17a000000000000000000000000a0b86991c6218b36c1d19d4a2e9eb0ce3606eb480000000000000000000000000000000000000000000000000000000005f5e1005a28e9363bb942b639270062aa6bb295f434bcdfc42c97267bf003f272060dc9",
                    "decodedMethod": {
                        "callParams": [
                            {
                                "name": "transfers",
                                "type": "(address,address,uint256,bytes32)[]",
                                "value": [
                                    [
                                        {
                                            "name": "account",
                                            "type": "address",
                                            "value": "0xf3bda59a1996e142ca3198d2f5a541e4248dc17a"
                                        },
                                        {
                                            "name": "token",
                                            "type": "address",
                                            "value": "0xa0b86991c6218b36c1d19d4a2e9eb0ce3606eb48"
                                        },
                                        {
                                            "name": "amount",
                                            "type": "uint256",
                                            "value": "100,000,000"
                                        },
                                        {
                                            "name": "balance",
                                            "type": "bytes32",
                                            "value": "0x5a28e9363bb942b639270062aa6bb295f434bcdfc42c97267bf003f272060dc9"
                                        }
                                    ]
                                ]
                            }
                        ],
                        "constructorArguments": "",
                        "name": "transferFromAccounts",
                        "returnParams": [],
                        "signature": "transferFromAccounts((address,address,uint256,bytes32)[])"
                    },
                    "errorInfo": "",
                    "fromAddress": "0x9008d19f58aabd9ed0d60971565aa8510560ab41",
                    "gasUsed": 36842,
                    "id": 5,
                    "methodDecoded": true,
                    "operation": "CALL",
                    "output": "",
                    "revert": false,
                    "revertMessage": "",
                    "selector": "0x7d10d11f",
                    "status": true,
                    "value": "0"
                },
                "nodeType": 0
            },
            "6": {
                "invocation": {
                    "address": "0xa0b86991c6218b36c1d19d4a2e9eb0ce3606eb48",
                    "callData": "0x000000000000000000000000f3bda59a1996e142ca3198d2f5a541e4248dc17a0000000000000000000000009008d19f58aabd9ed0d60971565aa8510560ab410000000000000000000000000000000000000000000000000000000005f5e100",
                    "decodedMethod": {
                        "callParams": [
                            {
                                "name": "from",
                                "type": "address",
                                "value": "0xf3bda59a1996e142ca3198d2f5a541e4248dc17a"
                            },
                            {
                                "name": "to",
                                "type": "address",
                                "value": "0x9008d19f58aabd9ed0d60971565aa8510560ab41"
                            },
                            {
                                "decimalAvailable": true,
                                "name": "value",
                                "type": "uint256",
                                "value": "100,000,000"
                            }
                        ],
                        "constructorArguments": "",
                        "name": "transferFrom",
                        "returnParams": [
                            {
                                "name": "",
                                "type": "bool",
                                "value": true
                            }
                        ],
                        "signature": "transferFrom(address,address,uint256)"
                    },
                    "errorInfo": "",
                    "fromAddress": "0xc92e8bdf79f0507f65a392b0ab4667716bfe0110",
                    "gasUsed": 32392,
                    "id": 6,
                    "methodDecoded": true,
                    "operation": "CALL",
                    "output": "0x0000000000000000000000000000000000000000000000000000000000000001",
                    "revert": false,
                    "revertMessage": "",
                    "selector": "0x23b872dd",
                    "status": true,
                    "value": "0"
                },
                "nodeType": 0
            },
            "7": {
                "invocation": {
                    "address": "0xa2327a938febf5fec13bacfb16ae10ecbc4cbdcf",
                    "callData": "0x000000000000000000000000f3bda59a1996e142ca3198d2f5a541e4248dc17a0000000000000000000000009008d19f58aabd9ed0d60971565aa8510560ab410000000000000000000000000000000000000000000000000000000005f5e100",
                    "decodedMethod": {
                        "callParams": [
                            {
                                "name": "from",
                                "type": "address",
                                "value": "0xf3bda59a1996e142ca3198d2f5a541e4248dc17a"
                            },
                            {
                                "name": "to",
                                "type": "address",
                                "value": "0x9008d19f58aabd9ed0d60971565aa8510560ab41"
                            },
                            {
                                "decimalAvailable": true,
                                "name": "value",
                                "type": "uint256",
                                "value": "100,000,000"
                            }
                        ],
                        "constructorArguments": "",
                        "name": "transferFrom",
                        "returnParams": [
                            {
                                "name": "",
                                "type": "bool",
                                "value": true
                            }
                        ],
                        "signature": "transferFrom(address,address,uint256)"
                    },
                    "errorInfo": "",
                    "fromAddress": "0xa0b86991c6218b36c1d19d4a2e9eb0ce3606eb48",
                    "gasUsed": 27597,
                    "id": 7,
                    "methodDecoded": true,
                    "operation": "DELEGATECALL",
                    "output": "0x0000000000000000000000000000000000000000000000000000000000000001",
                    "revert": false,
                    "revertMessage": "",
                    "selector": "0x23b872dd",
                    "status": true,
                    "value": "0"
                },
                "nodeType": 0
            },
            "8": {
                "event": {
                    "contract": "0xa0b86991c6218b36c1d19d4a2e9eb0ce3606eb48",
                    "decodedLog": {
                        "name": "Transfer",
                        "params": [
                            {
                                "name": "from",
                                "type": "address",
                                "value": "0xf3bda59a1996e142ca3198d2f5a541e4248dc17a"
                            },
                            {
                                "name": "to",
                                "type": "address",
                                "value": "0x9008d19f58aabd9ed0d60971565aa8510560ab41"
                            },
                            {
                                "decimalAvailable": true,
                                "name": "value",
                                "type": "uint256",
                                "value": "100,000,000"
                            }
                        ],
                        "signature": "Transfer(address,address,uint256)"
                    },
                    "id": 8,
                    "logData": "0x0000000000000000000000000000000000000000000000000000000005f5e100",
                    "logDecoded": true,
                    "operation": "EVENT",
                    "revert": false,
                    "status": true,
                    "topics": [
                        "0xddf252ad1be2c89b69c2b068fc378daa952ba7f163c4a11628f55a4df523b3ef",
                        "0x000000000000000000000000f3bda59a1996e142ca3198d2f5a541e4248dc17a",
                        "0x0000000000000000000000009008d19f58aabd9ed0d60971565aa8510560ab41"
                    ]
                },
                "nodeType": 1
            },
            "9": {
                "invocation": {
                    "address": "0xf3bda59a1996e142ca3198d2f5a541e4248dc17a",
                    "callData": "0x",
                    "decodedMethod": null,
                    "errorInfo": "",
                    "fromAddress": "0x9008d19f58aabd9ed0d60971565aa8510560ab41",
                    "gasUsed": 0,
                    "id": 9,
                    "methodDecoded": false,
                    "operation": "CALL",
                    "output": "",
                    "revert": false,
                    "revertMessage": "",
                    "selector": "fallback",
                    "status": true,
                    "value": "0.068626246166491541"
                },
                "nodeType": 0
            }
        },
        "gasFlame": [
            {
                "children": [
                    {
                        "children": [
                            {
                                "children": [],
                                "depth": 0,
                                "name": "Initial Gas",
                                "value": 43560
                            },
                            {
                                "children": [
                                    {
                                        "children": [
                                            {
                                                "children": [],
                                                "depth": 2,
                                                "name": "isSolver",
                                                "value": 431
                                            }
                                        ],
                                        "depth": 1,
                                        "name": "isSolver",
                                        "value": 865
                                    },
                                    {
                                        "children": [],
                                        "depth": 1,
                                        "name": "ecrecover",
                                        "value": 3000
                                    },
                                    {
                                        "children": [
                                            {
                                                "children": [
                                                    {
                                                        "children": [],
                                                        "depth": 3,
                                                        "name": "transferFrom",
                                                        "value": 27597
                                                    }
                                                ],
                                                "depth": 2,
                                                "name": "transferFrom",
                                                "value": 32392
                                            }
                                        ],
                                        "depth": 1,
                                        "name": "transferFromAccounts",
                                        "value": 36842
                                    },
                                    {
                                        "children": [],
                                        "depth": 1,
                                        "name": "fallback",
                                        "value": 0
                                    }
                                ],
                                "depth": 0,
                                "name": "Executed Gas",
                                "value": 89858
                            }
                        ],
                        "depth": -1,
                        "name": "Actual Gas Used",
                        "value": 130618
                    },
                    {
                        "children": [],
                        "depth": -1,
                        "name": "Refunded Gas",
                        "value": 2800
                    }
                ],
                "depth": -2,
                "name": "Total Gas",
                "value": 133418
            }
        ],
        "isConfirmed": true,
        "mainTrace": [
            {
                "children": [
                    {
                        "children": [
                            {
                                "children": [
                                    {
                                        "children": [],
                                        "depth": 2,
                                        "id": 2,
                                        "order": 2
                                    }
                                ],
                                "depth": 1,
                                "id": 1,
                                "order": 1
                            },
                            {
                                "children": [],
                                "depth": 1,
                                "id": 3,
                                "order": 3
                            },
                            {
                                "children": [],
                                "depth": 1,
                                "id": 4,
                                "order": 4
                            },
                            {
                                "children": [
                                    {
                                        "children": [
                                            {
                                                "children": [
                                                    {
                                                        "children": [],
                                                        "depth": 4,
                                                        "id": 8,
                                                        "order": 8
                                                    }
                                                ],
                                                "depth": 3,
                                                "id": 7,
                                                "order": 7
                                            }
                                        ],
                                        "depth": 2,
                                        "id": 6,
                                        "order": 6
                                    }
                                ],
                                "depth": 1,
                                "id": 5,
                                "order": 5
                            },
                            {
                                "children": [],
                                "depth": 1,
                                "id": 9,
                                "order": 9
                            },
                            {
                                "children": [],
                                "depth": 1,
                                "id": 10,
                                "order": 10
                            }
                        ],
                        "depth": 0,
                        "id": 0,
                        "order": 0
                    }
                ],
                "depth": -1,
                "id": -1,
                "order": -1
            }
        ],
        "mainTraceNodeCount": 11,
        "parentIdMap": {
            "0": -1,
            "1": 0,
            "10": 0,
            "2": 1,
            "3": 0,
            "4": 0,
            "5": 0,
            "6": 5,
            "7": 6,
            "8": 7,
            "9": 0
        },
        "tidyTrace": [
            {
                "children": [
                    {
                        "children": [
                            {
                                "children": [],
                                "depth": 1,
                                "id": 4,
                                "order": 4
                            },
                            {
                                "children": [
                                    {
                                        "children": [
                                            {
                                                "children": [
                                                    {
                                                        "children": [],
                                                        "depth": 4,
                                                        "id": 8,
                                                        "order": 8
                                                    }
                                                ],
                                                "depth": 3,
                                                "id": 7,
                                                "order": 7
                                            }
                                        ],
                                        "depth": 2,
                                        "id": 6,
                                        "order": 6
                                    }
                                ],
                                "depth": 1,
                                "id": 5,
                                "order": 5
                            },
                            {
                                "children": [],
                                "depth": 1,
                                "id": 9,
                                "order": 9
                            },
                            {
                                "children": [],
                                "depth": 1,
                                "id": 10,
                                "order": 10
                            }
                        ],
                        "depth": 0,
                        "id": 0,
                        "order": 0
                    }
                ],
                "depth": -1,
                "id": -1,
                "order": -1
            }
        ],
        "tidyTraceNodeCount": 8
    },
    "state_change": {
        "stateChanges": [
            {
                "address": "0x9008d19f58aabd9ed0d60971565aa8510560ab41",
                "erc": "",
                "slots": [
                    {
                        "current": "0x0000000000000000000000000000000000000000000000000000000005c6368e",
                        "key": "0x9da16da148929b8dfd41a97d0153f4a8f3633605d7f1b12cb94716f649ba418b",
                        "prev": "0x0000000000000000000000000000000000000000000000000000000000000000"
                    }
                ],
                "storageVariables": [
                    {
                        "name": "filledAmount",
                        "type": "mapping(bytes => uint256)",
                        "value": {
                            "pairs": [
                                {
                                    "key": "0xb9b55e961a3f53993141377b4866615b5f81e37efeac4ae1306ef47dce4cf157f3bda59a1996e142ca3198d2f5a541e4248dc17a63c0afd2",
                                    "value": {
                                        "current": "96876174",
                                        "prev": "0",
                                        "typeTag": 1
                                    }
                                }
                            ],
                            "typeTag": 4
                        }
                    }
                ]
            },
            {
                "address": "0xa0b86991c6218b36c1d19d4a2e9eb0ce3606eb48",
                "erc": "ERC-20",
                "slots": [
                    {
                        "current": "0x00000000000000000000000000000000000000000000000000000000be8032b7",
                        "key": "0xcc236083e86ee3df0f3160002f381f1404bd44c4dec1322196f34d52548202f5",
                        "prev": "0x00000000000000000000000000000000000000000000000000000000b88a51b7"
                    },
                    {
                        "current": "0xffffffffffffffffffffffffffffffffffffffffffffffffffffffe1d038172b",
                        "key": "0xc8ac3f6ba411101784000814714d938d6bffd2b7d391b82eaa15acdf699bc22e",
                        "prev": "0xffffffffffffffffffffffffffffffffffffffffffffffffffffffe1d62df82b"
                    },
                    {
                        "current": "0x00000000000000000000000000000000000000000000000000000000f41448d3",
                        "key": "0xe398673e183de2e8e48a01f27af88554140eed2308514ac30857d5e98b67c5da",
                        "prev": "0x00000000000000000000000000000000000000000000000000000000fa0a29d3"
                    }
                ],
                "storageVariables": [
                    {
                        "name": "balances",
                        "type": "mapping(address => uint256)",
                        "value": {
                            "pairs": [
                                {
                                    "key": "0x9008d19f58aabd9ed0d60971565aa8510560ab41",
                                    "value": {
                                        "current": "3196072631",
                                        "prev": "3096072631",
                                        "typeTag": 1
                                    }
                                },
                                {
                                    "key": "0xf3bda59a1996e142ca3198d2f5a541e4248dc17a",
                                    "value": {
                                        "current": "4094970067",
                                        "prev": "4194970067",
                                        "typeTag": 1
                                    }
                                }
                            ],
                            "typeTag": 4
                        }
                    },
                    {
                        "name": "allowed",
                        "type": "mapping(address => mapping(address => uint256))",
                        "value": {
                            "pairs": [
                                {
                                    "key": "0xf3bda59a1996e142ca3198d2f5a541e4248dc17a",
                                    "value": {
                                        "pairs": [
                                            {
                                                "key": "0xc92e8bdf79f0507f65a392b0ab4667716bfe0110",
                                                "value": {
                                                    "current": "115792089237316195423570985008687907853269984665640564039457584007783478990635",
                                                    "prev": "115792089237316195423570985008687907853269984665640564039457584007783578990635",
                                                    "typeTag": 1
                                                }
                                            }
                                        ],
                                        "typeTag": 4
                                    }
                                }
                            ],
                            "typeTag": 4
                        }
                    }
                ]
            }
        ]
    }
}