{
    "balance_change": {
        "balanceChanges": []
    },
    "profile": {
        "basic_info": {
            "baseFee": "",
            "blockNumber": 11343412,
            "callData": "0xb44848f5000000000000000000000000000000000000000000000000000000000002fd29",
            "debugEnable": true,
            "errorInfo": "",
            "eventCount": 1,
            "feeRecipient": "0x5a0b54d5dc17e0aadc383d2db43b0a0d3e029c4c",
            "formatValue": "0",
            "gasLimit": 274132,
            "gasPrice": "15.1",
            "gasUsed": 178631,
            "intTxnCount": 18,
            "internalRevert": false,
            "internalRevertMessage": "",
            "isContractCreation": false,
            "isFlashloan": false,
            "maxFee": "",
            "nonce": 7,
            "overwritedBlockNumber": -1,
            "priorityFee": "",
            "receiver": "0x01aac5236ad205ebbe4f6819bc64ef5bef40b71c",
            "revertMessage": "",
            "sender": "0x2dccfb1d4741d9d9828839fdfddb735ce262b36c",
            "simulationEnable": true,
            "sourceTxnHash": "0xead28bfaa85289964bae7dd56481ec104d70c87813d4aea045d0d0f8b1a29909",
            "status": true,
            "timestamp": "2020-11-27T23:16:35Z",
            "transactionFee": "0.0026973281",
            "txnHash": "0xead28bfaa85289964bae7dd56481ec104d70c87813d4aea045d0d0f8b1a29909",
            "txnIndex": 165,
            "type": 0,
            "value": "0"
        },
        "fund_flow": [],
        "token_infos": [
            {
                "address": "0xeeeeeeeeeeeeeeeeeeeeeeeeeeeeeeeeeeeeeeee",
                "decimals": 18
            },
            {
                "address": "0xc02aaa39b223fe8d0a0e5c4f27ead9083c756cc2",
                "decimals": 18
            }
        ]
    },
    "address_label": {
        "labels": [
            {
                "address": "0x0000000000000000000000000000000000000004",
                "label": "Precompiled"
            },
            {
                "address": "0xeeeeeeeeeeeeeeeeeeeeeeeeeeeeeeeeeeeeeeee",
                "label": "Ether"
            },
            {
                "address": "0xf5b0a3efb8e8e4c201e2a935f110eaaf3ffecb8d",
                "label": "Axie Infinity: AXIE Token"
            },
            {
                "address": "0x01aac5236ad205ebbe4f6819bc64ef5bef40b71c",
                "label": "Axie Infinity: Breeding Contract #1"
            },
            {
                "address": "0x0000000000000000000000000000000000000001",
                "label": "Precompiled"
            },
            {
                "address": "0x0000000000000000000000000000000000000002",
                "label": "Precompiled"
            },
            {
                "address": "0x0000000000000000000000000000000000000003",
                "label": "Precompiled"
            }
        ]
    },
    "trace": {
        "accountLabels": null,
        "dataMap": {
            "-1": {
                "invocation": {
                    "address": "0x2dccfb1d4741d9d9828839fdfddb735ce262b36c",
                    "callData": "",
                    "decodedMethod": null,
                    "errorInfo": "",
                    "fromAddress": "",
                    "gasUsed": 0,
                    "id": -1,
                    "methodDecoded": false,
                    "operation": "",
                    "output": "",
                    "revert": false,
                    "revertMessage": "",
                    "selector": "",
                    "status": false,
                    "value": ""
                },
                "nodeType": 0
            },
            "0": {
                "invocation": {
                    "address": "0x01aac5236ad205ebbe4f6819bc64ef5bef40b71c",
                    "callData": "0x000000000000000000000000000000000000000000000000000000000002fd29",
                    "decodedMethod": null,
                    "errorInfo": "",
                    "fromAddress": "0x2dccfb1d4741d9d9828839fdfddb735ce262b36c",
                    "gasUsed": 178631,
                    "id": 0,
                    "methodDecoded": false,
                    "operation": "CALL",
                    "output": "",
                    "revert": false,
                    "revertMessage": "",
                    "selector": "0xb44848f5",
                    "status": true,
                    "value": "0"
                },
                "nodeType": 0
            },
            "1": {
                "invocation": {
                    "address": "0xf5b0a3efb8e8e4c201e2a935f110eaaf3ffecb8d",
                    "callData": "0x000000000000000000000000000000000000000000000000000000000002fd29",
                    "decodedMethod": {
                        "callParams": [
                            {
                                "name": "_tokenId",
                                "type": "uint256",
                                "value": "195,881"
                            }
                        ],
                        "constructorArguments": "",
                        "name": "ownerOf",
                        "returnParams": [
                            {
                                "name": "",
                                "type": "address",
                                "value": "0x2dccfb1d4741d9d9828839fdfddb735ce262b36c"
                            }
                        ],
                        "signature": "ownerOf(uint256)"
                    },
                    "errorInfo": "",
                    "fromAddress": "0x01aac5236ad205ebbe4f6819bc64ef5bef40b71c",
                    "gasUsed": 2807,
                    "id": 1,
                    "methodDecoded": true,
                    "operation": "CALL",
                    "output": "0x0000000000000000000000002dccfb1d4741d9d9828839fdfddb735ce262b36c",
                    "revert": false,
                    "revertMessage": "",
                    "selector": "0x6352211e",
                    "status": true,
                    "value": "0"
                },
                "nodeType": 0
            },
            "10": {
                "invocation": {
                    "address": "0x00ff5e77a5dd1c9e65377c509cddafba828f9074",
                    "callData": "0x",
                    "decodedMethod": null,
                    "errorInfo": "",
                    "fromAddress": "0x2a995caa0718532bb16bb95809f5911217012186",
                    "gasUsed": 195,
                    "id": 10,
                    "methodDecoded": false,
                    "operation": "CALL",
                    "output": "0x0000000000000000000000000000000000000000000000000000000000000000",
                    "revert": false,
                    "revertMessage": "",
                    "selector": "0x329a9f67",
                    "status": true,
                    "value": "0"
                },
                "nodeType": 0
            },
            "11": {
                "invocation": {
                    "address": "0x1e41c314d4c84eefaca6481e169dabe93d2fe16a",
                    "callData": "0x",
                    "decodedMethod": null,
                    "errorInfo": "",
                    "fromAddress": "0x2a995caa0718532bb16bb95809f5911217012186",
                    "gasUsed": 1855,
                    "id": 11,
                    "methodDecoded": false,
                    "operation": "CALL",
                    "output": "0x0000000000000000000000000000000000000000000000000000000000000000",
                    "revert": false,
                    "revertMessage": "",
                    "selector": "0x329a9f67",
                    "status": true,
                    "value": "0"
                },
                "nodeType": 0
            },
            "12": {
                "invocation": {
                    "address": "0x00ff5e77a5dd1c9e65377c509cddafba828f9074",
                    "callData": "0x",
                    "decodedMethod": null,
                    "errorInfo": "",
                    "fromAddress": "0x2a995caa0718532bb16bb95809f5911217012186",
                    "gasUsed": 195,
                    "id": 12,
                    "methodDecoded": false,
                    "operation": "CALL",
                    "output": "0x0000000000000000000000000000000000000000000000000000000000000000",
                    "revert": false,
                    "revertMessage": "",
                    "selector": "0x329a9f67",
                    "status": true,
                    "value": "0"
                },
                "nodeType": 0
            },
            "13": {
                "invocation": {
                    "address": "0x1e41c314d4c84eefaca6481e169dabe93d2fe16a",
                    "callData": "0x",
                    "decodedMethod": null,
                    "errorInfo": "",
                    "fromAddress": "0x2a995caa0718532bb16bb95809f5911217012186",
                    "gasUsed": 1855,
                    "id": 13,
                    "methodDecoded": false,
                    "operation": "CALL",
                    "output": "0x0000000000000000000000000000000000000000000000000000000000000000",
                    "revert": false,
                    "revertMessage": "",
                    "selector": "0x329a9f67",
                    "status": true,
                    "value": "0"
                },
                "nodeType": 0
            },
            "14": {
                "invocation": {
                    "address": "0x00ff5e77a5dd1c9e65377c509cddafba828f9074",
                    "callData": "0x080000000d1cc32200a02842004010041064180a004010040020080200a0280a0c0000000d18733300a52842004008040020080a004010040020080200a008020e0000000d34732200a52842004008041064180a004010040020080200a0080a000000000000000000000000000000000000000000000000000000000002fd29",
                    "decodedMethod": null,
                    "errorInfo": "",
                    "fromAddress": "0x2a995caa0718532bb16bb95809f5911217012186",
                    "gasUsed": 415,
                    "id": 14,
                    "methodDecoded": false,
                    "operation": "CALL",
                    "output": "0x0e0000000d34732200a52842004008041064180a004010040020080200a0080a",
                    "revert": false,
                    "revertMessage": "",
                    "selector": "0xe69dd1a2",
                    "status": true,
                    "value": "0"
                },
                "nodeType": 0
            },
            "15": {
                "invocation": {
                    "address": "0x1e41c314d4c84eefaca6481e169dabe93d2fe16a",
                    "callData": "0x080000000d1cc32200a02842004010041064180a004010040020080200a0280a0c0000000d18733300a52842004008040020080a004010040020080200a008020e0000000d34732200a52842004008041064180a004010040020080200a0080a000000000000000000000000000000000000000000000000000000000002fd29",
                    "decodedMethod": null,
                    "errorInfo": "",
                    "fromAddress": "0x2a995caa0718532bb16bb95809f5911217012186",
                    "gasUsed": 3225,
                    "id": 15,
                    "methodDecoded": false,
                    "operation": "CALL",
                    "output": "0x0e0000000d34732200a52842004008041064180a004010040020080200a0080a",
                    "revert": false,
                    "revertMessage": "",
                    "selector": "0xe69dd1a2",
                    "status": true,
                    "value": "0"
                },
                "nodeType": 0
            },
            "16": {
                "invocation": {
                    "address": "0xf5b0a3efb8e8e4c201e2a935f110eaaf3ffecb8d",
                    "callData": "0x000000000000000000000000000000000000000000000000000000000002fd290e0000000d34732200a52842004008041064180a004010040020080200a0080a",
                    "decodedMethod": {
                        "callParams": [
                            {
                                "name": "_axieId",
                                "type": "uint256",
                                "value": "195,881"
                            },
                            {
                                "name": "_newGenes",
                                "type": "uint256",
                                "value": "6,332,379,881,556,365,799,475,325,057,814,883,973,155,328,793,601,338,899,871,757,077,025,784,858,634"
                            }
                        ],
                        "constructorArguments": "",
                        "name": "evolveAxie",
                        "returnParams": [],
                        "signature": "evolveAxie(uint256,uint256)"
                    },
                    "errorInfo": "",
                    "fromAddress": "0x01aac5236ad205ebbe4f6819bc64ef5bef40b71c",
                    "gasUsed": 35438,
                    "id": 16,
                    "methodDecoded": true,
                    "operation": "CALL",
                    "output": "",
                    "revert": false,
                    "revertMessage": "",
                    "selector": "0xae67b4c3",
                    "status": true,
                    "value": "0"
                },
                "nodeType": 0
            },
            "17": {
                "invocation": {
                    "address": "0xe8bd438d0383cf4d19641eaa4793eddc6cebeaf1",
                    "callData": "0x000000000000000000000000000000000000000000000000000000000002fd290e0000000d34732200a52842004008041064180a004010040020080200a0080a",
                    "decodedMethod": {
                        "callParams": [
                            {
                                "name": "",
                                "type": "uint256",
                                "value": "195,881"
                            },
                            {
                                "name": "",
                                "type": "uint256",
                                "value": "6,332,379,881,556,365,799,475,325,057,814,883,973,155,328,793,601,338,899,871,757,077,025,784,858,634"
                            }
                        ],
                        "constructorArguments": "",
                        "name": "isEvolvementAllowed",
                        "returnParams": [
                            {
                                "name": "",
                                "type": "bool",
                                "value": true
                            }
                        ],
                        "signature": "isEvolvementAllowed(uint256,uint256)"
                    },
                    "errorInfo": "",
                    "fromAddress": "0xf5b0a3efb8e8e4c201e2a935f110eaaf3ffecb8d",
                    "gasUsed": 4556,
                    "id": 17,
                    "methodDecoded": true,
                    "operation": "CALL",
                    "output": "0x0000000000000000000000000000000000000000000000000000000000000001",
                    "revert": false,
                    "revertMessage": "",
                    "selector": "0x9613bc90",
                    "status": true,
                    "value": "0"
                },
                "nodeType": 0
            },
            "18": {
                "invocation": {
                    "address": "0xf5b0a3efb8e8e4c201e2a935f110eaaf3ffecb8d",
                    "callData": "0x",
                    "decodedMethod": {
                        "callParams": [],
                        "constructorArguments": "",
                        "name": "paused",
                        "returnParams": [
                            {
                                "name": "",
                                "type": "bool",
                                "value": false
                            }
                        ],
                        "signature": "paused()"
                    },
                    "errorInfo": "",
                    "fromAddress": "0xe8bd438d0383cf4d19641eaa4793eddc6cebeaf1",
                    "gasUsed": 1628,
                    "id": 18,
                    "methodDecoded": true,
                    "operation": "CALL",
                    "output": "0x0000000000000000000000000000000000000000000000000000000000000000",
                    "revert": false,
                    "revertMessage": "",
                    "selector": "0x5c975abb",
                    "status": true,
                    "value": "0"
                },
                "nodeType": 0
            },
            "19": {
                "event": {
                    "contract": "0xf5b0a3efb8e8e4c201e2a935f110eaaf3ffecb8d",
                    "decodedLog": {
                        "name": "AxieEvolved",
                        "params": [
                            {
                                "name": "_axieId",
                                "type": "uint256",
                                "value": "195,881"
                            },
                            {
                                "name": "_oldGenes",
                                "type": "uint256",
                                "value": "0"
                            },
                            {
                                "name": "_newGenes",
                                "type": "uint256",
                                "value": "6,332,379,881,556,365,799,475,325,057,814,883,973,155,328,793,601,338,899,871,757,077,025,784,858,634"
                            }
                        ],
                        "signature": "AxieEvolved(uint256,uint256,uint256)"
                    },
                    "id": 19,
                    "logData": "0x00000000000000000000000000000000000000000000000000000000000000000e0000000d34732200a52842004008041064180a004010040020080200a0080a",
                    "logDecoded": true,
                    "operation": "EVENT",
                    "revert": false,
                    "status": true,
                    "topics": [
                        "0x6715bb2e56d8b9cd079426816318abbb6ee679a7e8e64602b38bf5c074b58e55",
                        "0x000000000000000000000000000000000000000000000000000000000002fd29"
                    ]
                },
                "nodeType": 1
            },
            "2": {
                "invocation": {
                    "address": "0xf5b0a3efb8e8e4c201e2a935f110eaaf3ffecb8d",
                    "callData": "0x000000000000000000000000000000000000000000000000000000000002fd29",
                    "decodedMethod": {
                        "callParams": [
                            {
                                "name": "_axieId",
                                "type": "uint256",
                                "value": "195,881"
                            }
                        ],
                        "constructorArguments": "",
                        "name": "getAxie",
                        "returnParams": [
                            {
                                "name": "",
                                "type": "uint256",
                                "value": "0"
                            },
                            {
                                "name": "",
                                "type": "uint256",
                                "value": "1,605,880,710"
                            }
                        ],
                        "signature": "getAxie(uint256)"
                    },
                    "errorInfo": "",
                    "fromAddress": "0x01aac5236ad205ebbe4f6819bc64ef5bef40b71c",
                    "gasUsed": 4683,
                    "id": 2,
                    "methodDecoded": true,
                    "operation": "CALL",
                    "output": "0x0000000000000000000000000000000000000000000000000000000000000000000000000000000000000000000000000000000000000000000000005fb7cb86",
                    "revert": false,
                    "revertMessage": "",
                    "selector": "0xa6472906",
                    "status": true,
                    "value": "0"
                },
                "nodeType": 0
            },
            "3": {
                "invocation": {
                    "address": "0x2a995caa0718532bb16bb95809f5911217012186",
                    "callData": "0x000000000000000000000000000000000000000000000000000000000002fd29000000000000000000000000000000000000000000000000000000005fb7cb860000000000000000000000000000000000000000000000000000000000000000080000000d1cc32200a02842004010041064180a004010040020080200a0280a0c0000000d18733300a52842004008040020080a004010040020080200a008021701f4ea6b35a138b3c5b8fb727f63544570f854ac04fd79e6186f6fc5040c0c",
                    "decodedMethod": null,
                    "errorInfo": "",
                    "fromAddress": "0x01aac5236ad205ebbe4f6819bc64ef5bef40b71c",
                    "gasUsed": 122955,
                    "id": 3,
                    "methodDecoded": false,
                    "operation": "CALL",
                    "output": "0x0e0000000d34732200a52842004008041064180a004010040020080200a0080a6f3fffec30fb960396dd2b9b44ee15151042e472ba3361b370e9055cd22c7096",
                    "revert": false,
                    "revertMessage": "",
                    "selector": "0xda1169be",
                    "status": true,
                    "value": "0"
                },
                "nodeType": 0
            },
            "4": {
                "invocation": {
                    "address": "0x00ff5e77a5dd1c9e65377c509cddafba828f9074",
                    "callData": "0x",
                    "decodedMethod": null,
                    "errorInfo": "",
                    "fromAddress": "0x2a995caa0718532bb16bb95809f5911217012186",
                    "gasUsed": 195,
                    "id": 4,
                    "methodDecoded": false,
                    "operation": "CALL",
                    "output": "0x0000000000000000000000000000000000000000000000000000000000000000",
                    "revert": false,
                    "revertMessage": "",
                    "selector": "0x329a9f67",
                    "status": true,
                    "value": "0"
                },
                "nodeType": 0
            },
            "5": {
                "invocation": {
                    "address": "0x1e41c314d4c84eefaca6481e169dabe93d2fe16a",
                    "callData": "0x",
                    "decodedMethod": null,
                    "errorInfo": "",
                    "fromAddress": "0x2a995caa0718532bb16bb95809f5911217012186",
                    "gasUsed": 1855,
                    "id": 5,
                    "methodDecoded": false,
                    "operation": "CALL",
                    "output": "0x0000000000000000000000000000000000000000000000000000000000000000",
                    "revert": false,
                    "revertMessage": "",
                    "selector": "0x329a9f67",
                    "status": true,
                    "value": "0"
                },
                "nodeType": 0
            },
            "6": {
                "invocation": {
                    "address": "0x00ff5e77a5dd1c9e65377c509cddafba828f9074",
                    "callData": "0x",
                    "decodedMethod": null,
                    "errorInfo": "",
                    "fromAddress": "0x2a995caa0718532bb16bb95809f5911217012186",
                    "gasUsed": 195,
                    "id": 6,
                    "methodDecoded": false,
                    "operation": "CALL",
                    "output": "0x0000000000000000000000000000000000000000000000000000000000000000",
                    "revert": false,
                    "revertMessage": "",
                    "selector": "0x329a9f67",
                    "status": true,
                    "value": "0"
                },
                "nodeType": 0
            },
            "7": {
                "invocation": {
                    "address": "0x1e41c314d4c84eefaca6481e169dabe93d2fe16a",
                    "callData": "0x",
                    "decodedMethod": null,
                    "errorInfo": "",
                    "fromAddress": "0x2a995caa0718532bb16bb95809f5911217012186",
                    "gasUsed": 1855,
                    "id": 7,
                    "methodDecoded": false,
                    "operation": "CALL",
                    "output": "0x0000000000000000000000000000000000000000000000000000000000000000",
                    "revert": false,
                    "revertMessage": "",
                    "selector": "0x329a9f67",
                    "status": true,
                    "value": "0"
                },
                "nodeType": 0
            },
            "8": {
                "invocation": {
                    "address": "0x00ff5e77a5dd1c9e65377c509cddafba828f9074",
                    "callData": "0x",
                    "decodedMethod": null,
                    "errorInfo": "",
                    "fromAddress": "0x2a995caa0718532bb16bb95809f5911217012186",
                    "gasUsed": 195,
                    "id": 8,
                    "methodDecoded": false,
                    "operation": "CALL",
                    "output": "0x0000000000000000000000000000000000000000000000000000000000000000",
                    "revert": false,
                    "revertMessage": "",
                    "selector": "0x329a9f67",
                    "status": true,
                    "value": "0"
                },
                "nodeType": 0
            },
            "9": {
                "invocation": {
                    "address": "0x1e41c314d4c84eefaca6481e169dabe93d2fe16a",
                    "callData": "0x",
                    "decodedMethod": null,
                    "errorInfo": "",
                    "fromAddress": "0x2a995caa0718532bb16bb95809f5911217012186",
                    "gasUsed": 1855,
                    "id": 9,
                    "methodDecoded": false,
                    "operation": "CALL",
                    "output": "0x0000000000000000000000000000000000000000000000000000000000000000",
                    "revert": false,
                    "revertMessage": "",
                    "selector": "0x329a9f67",
                    "status": true,
                    "value": "0"
                },
                "nodeType": 0
            }
        },
        "gasFlame": [
            {
                "children": [
                    {
                        "children": [
                            {
                                "children": [],
                                "depth": 0,
                                "name": "Initial Gas",
                                "value": 21228
                            },
                            {
                                "children": [
                                    {
                                        "children": [],
                                        "depth": 1,
                                        "name": "ownerOf",
                                        "value": 2807
                                    },
                                    {
                                        "children": [],
                                        "depth": 1,
                                        "name": "getAxie",
                                        "value": 4683
                                    },
                                    {
                                        "children": [
                                            {
                                                "children": [],
                                                "depth": 2,
                                                "name": "0x329a9f67",
                                                "value": 195
                                            },
                                            {
                                                "children": [],
                                                "depth": 2,
                                                "name": "0x329a9f67",
                                                "value": 1855
                                            },
                                            {
                                                "children": [],
                                                "depth": 2,
                                                "name": "0x329a9f67",
                                                "value": 195
                                            },
                                            {
                                                "children": [],
                                                "depth": 2,
                                                "name": "0x329a9f67",
                                                "value": 1855
                                            },
                                            {
                                                "children": [],
                                                "depth": 2,
                                                "name": "0x329a9f67",
                                                "value": 195
                                            },
                                            {
                                                "children": [],
                                                "depth": 2,
                                                "name": "0x329a9f67",
                                                "value": 1855
                                            },
                                            {
                                                "children": [],
                                                "depth": 2,
                                                "name": "0x329a9f67",
                                                "value": 195
                                            },
                                            {
                                                "children": [],
                                                "depth": 2,
                                                "name": "0x329a9f67",
                                                "value": 1855
                                            },
                                            {
                                                "children": [],
                                                "depth": 2,
                                                "name": "0x329a9f67",
                                                "value": 195
                                            },
                                            {
                                                "children": [],
                                                "depth": 2,
                                                "name": "0x329a9f67",
                                                "value": 1855
                                            },
                                            {
                                                "children": [],
                                                "depth": 2,
                                                "name": "0xe69dd1a2",
                                                "value": 415
                                            },
                                            {
                                                "children": [],
                                                "depth": 2,
                                                "name": "0xe69dd1a2",
                                                "value": 3225
                                            }
                                        ],
                                        "depth": 1,
                                        "name": "0xda1169be",
                                        "value": 122955
                                    },
                                    {
                                        "children": [
                                            {
                                                "children": [
                                                    {
                                                        "children": [],
                                                        "depth": 3,
                                                        "name": "paused",
                                                        "value": 1628
                                                    }
                                                ],
                                                "depth": 2,
                                                "name": "isEvolvementAllowed",
                                                "value": 4556
                                            }
                                        ],
                                        "depth": 1,
                                        "name": "evolveAxie",
                                        "value": 35438
                                    }
                                ],
                                "depth": 0,
                                "name": "Executed Gas",
                                "value": 202403
                            }
                        ],
                        "depth": -1,
                        "name": "Actual Gas Used",
                        "value": 178631
                    },
                    {
                        "children": [],
                        "depth": -1,
                        "name": "Refunded Gas",
                        "value": 45000
                    }
                ],
                "depth": -2,
                "name": "Total Gas",
                "value": 223631
            }
        ],
        "isConfirmed": true,
        "mainTrace": [
            {
                "children": [
                    {
                        "children": [
                            {
                                "children": [],
                                "depth": 1,
                                "id": 1,
                                "order": 1
                            },
                            {
                                "children": [],
                                "depth": 1,
                                "id": 2,
                                "order": 2
                            },
                            {
                                "children": [
                                    {
                                        "children": [],
                                        "depth": 2,
                                        "id": 4,
                                        "order": 4
                                    },
                                    {
                                        "children": [],
                                        "depth": 2,
                                        "id": 5,
                                        "order": 5
                                    },
                                    {
                                        "children": [],
                                        "depth": 2,
                                        "id": 6,
                                        "order": 6
                                    },
                                    {
                                        "children": [],
                                        "depth": 2,
                                        "id": 7,
                                        "order": 7
                                    },
                                    {
                                        "children": [],
                                        "depth": 2,
                                        "id": 8,
                                        "order": 8
                                    },
                                    {
                                        "children": [],
                                        "depth": 2,
                                        "id": 9,
                                        "order": 9
                                    },
                                    {
                                        "children": [],
                                        "depth": 2,
                                        "id": 10,
                                        "order": 10
                                    },
                                    {
                                        "children": [],
                                        "depth": 2,
                                        "id": 11,
                                        "order": 11
                                    },
                                    {
                                        "children": [],
                                        "depth": 2,
                                        "id": 12,
                                        "order": 12
                                    },
                                    {
                                        "children": [],
                                        "depth": 2,
                                        "id": 13,
                                        "order": 13
                                    },
                                    {
                                        "children": [],
                                        "depth": 2,
                                        "id": 14,
                                        "order": 14
                                    },
                                    {
                                        "children": [],
                                        "depth": 2,
                                        "id": 15,
                                        "order": 15
                                    }
                                ],
                                "depth": 1,
                                "id": 3,
                                "order": 3
                            },
                            {
                                "children": [
                                    {
                                        "children": [
                                            {
                                                "children": [],
                                                "depth": 3,
                                                "id": 18,
                                                "order": 18
                                            }
                                        ],
                                        "depth": 2,
                                        "id": 17,
                                        "order": 17
                                    },
                                    {
                                        "children": [],
                                        "depth": 2,
                                        "id": 19,
                                        "order": 19
                                    }
                                ],
                                "depth": 1,
                                "id": 16,
                                "order": 16
                            }
                        ],
                        "depth": 0,
                        "id": 0,
                        "order": 0
                    }
                ],
                "depth": -1,
                "id": -1,
                "order": -1
            }
        ],
        "mainTraceNodeCount": 20,
        "parentIdMap": {
            "0": -1,
            "1": 0,
            "10": 3,
            "11": 3,
            "12": 3,
            "13": 3,
            "14": 3,
            "15": 3,
            "16": 0,
            "17": 16,
            "18": 17,
            "19": 16,
            "2": 0,
            "3": 0,
            "4": 3,
            "5": 3,
            "6": 3,
            "7": 3,
            "8": 3,
            "9": 3
        },
        "tidyTrace": [
            {
                "children": [
                    {
                        "children": [
                            {
                                "children": [],
                                "depth": 1,
                                "id": 1,
                                "order": 1
                            },
                            {
                                "children": [],
                                "depth": 1,
                                "id": 2,
                                "order": 2
                            },
                            {
                                "children": [
                                    {
                                        "children": [],
                                        "depth": 2,
                                        "id": 4,
                                        "order": 4
                                    },
                                    {
                                        "children": [],
                                        "depth": 2,
                                        "id": 5,
                                        "order": 5
                                    },
                                    {
                                        "children": [],
                                        "depth": 2,
                                        "id": 6,
                                        "order": 6
                                    },
                                    {
                                        "children": [],
                                        "depth": 2,
                                        "id": 7,
                                        "order": 7
                                    },
                                    {
                                        "children": [],
                                        "depth": 2,
                                        "id": 8,
                                        "order": 8
                                    },
                                    {
                                        "children": [],
                                        "depth": 2,
                                        "id": 9,
                                        "order": 9
                                    },
                                    {
                                        "children": [],
                                        "depth": 2,
                                        "id": 10,
                                        "order": 10
                                    },
                                    {
                                        "children": [],
                                        "depth": 2,
                                        "id": 11,
                                        "order": 11
                                    },
                                    {
                                        "children": [],
                                        "depth": 2,
                                        "id": 12,
                                        "order": 12
                                    },
                                    {
                                        "children": [],
                                        "depth": 2,
                                        "id": 13,
                                        "order": 13
                                    },
                                    {
                                        "children": [],
                                        "depth": 2,
                                        "id": 14,
                                        "order": 14
                                    },
                                    {
                                        "children": [],
                                        "depth": 2,
                                        "id": 15,
                                        "order": 15
                                    }
                                ],
                                "depth": 1,
                                "id": 3,
                                "order": 3
                            },
                            {
                                "children": [
                                    {
                                        "children": [
                                            {
                                                "children": [],
                                                "depth": 3,
                                                "id": 18,
                                                "order": 18
                                            }
                                        ],
                                        "depth": 2,
                                        "id": 17,
                                        "order": 17
                                    },
                                    {
                                        "children": [],
                                        "depth": 2,
                                        "id": 19,
                                        "order": 19
                                    }
                                ],
                                "depth": 1,
                                "id": 16,
                                "order": 16
                            }
                        ],
                        "depth": 0,
                        "id": 0,
                        "order": 0
                    }
                ],
                "depth": -1,
                "id": -1,
                "order": -1
            }
        ],
        "tidyTraceNodeCount": 20
    },
    "state_change": {
        "stateChanges": [
            {
                "address": "0x01aac5236ad205ebbe4f6819bc64ef5bef40b71c",
                "erc": "",
                "slots": [
                    {
                        "current": "0x0000000000000000000000000000000000000000000000000000000000000000",
                        "key": "0xd464bc7f1b36df5b3090c2391175cc634040820c3ea9f82c080aeaf92b5c4f5f",
                        "prev": "0x080000000d1cc32200a02842004010041064180a004010040020080200a0280a"
                    },
                    {
                        "current": "0x0000000000000000000000000000000000000000000000000000000000000000",
                        "key": "0xd464bc7f1b36df5b3090c2391175cc634040820c3ea9f82c080aeaf92b5c4f60",
                        "prev": "0x0c0000000d18733300a52842004008040020080a004010040020080200a00802"
                    },
                    {
                        "current": "0x0000000000000000000000000000000000000000000000000000000000000000",
                        "key": "0xd464bc7f1b36df5b3090c2391175cc634040820c3ea9f82c080aeaf92b5c4f62",
                        "prev": "0x1701f4ea6b35a138b3c5b8fb727f63544570f854ac04fd79e6186f6fc5040c0c"
                    }
                ],
                "storageVariables": []
            },
            {
                "address": "0xf5b0a3efb8e8e4c201e2a935f110eaaf3ffecb8d",
                "erc": "ERC-721",
                "slots": [
                    {
                        "current": "0x0e0000000d34732200a52842004008041064180a004010040020080200a0080a",
                        "key": "0xc624b66cc0138b8fabc209247f72d758e1cf3343756d543badbf24212bf38667",
                        "prev": "0x0000000000000000000000000000000000000000000000000000000000000000"
                    }
                ],
                "storageVariables": [
                    {
                        "name": "axies",
                        "type": "struct AxieCore.Axie[]",
                        "value": {
                            "elemType": "struct AxieCore.Axie",
                            "elems": [
                                {
                                    "index": 195881,
                                    "value": {
                                        "fields": [
                                            {
                                                "name": "genes",
                                                "type": "uint256",
                                                "value": {
                                                    "current": "6332379881556365799475325057814883973155328793601338899871757077025784858634",
                                                    "prev": "0",
                                                    "typeTag": 1
                                                }
                                            }
                                        ],
                                        "typeTag": 3
                                    }
                                }
                            ],
                            "typeTag": 2
                        }
                    }
                ]
            }
        ]
    }
}