{
    "balance_change": {
        "balanceChanges": [
            {
                "account": "0xd5762057a2094eeed98d261d9e0766797fe91ed4",
                "assets": [
                    {
                        "address": "0x19062190b1925b5b6689d7073fdfc8c2976ef8cb",
                        "amount": "5,882.28",
                        "iconUrl": "",
                        "isERC1155": false,
                        "isERC721": false,
                        "sign": false,
                        "value": "2947.6105079999999403"
                    }
                ]
            },
            {
                "account": "0x6cc5f688a315f3dc28a7781717a9a798a59fda7b",
                "assets": [
                    {
                        "address": "0x19062190b1925b5b6689d7073fdfc8c2976ef8cb",
                        "amount": "5,882.28",
                        "iconUrl": "",
                        "isERC1155": false,
                        "isERC721": false,
                        "sign": true,
                        "value": "2947.6105079999999403"
                    }
                ]
            }
        ]
    },
    "profile": {
        "basic_info": {
            "baseFee": "42.804183313",
            "blockNumber": 18807001,
            "callData": "0xa9059cbb0000000000000000000000006cc5f688a315f3dc28a7781717a9a798a59fda7b000000000000000000000000000000000000000000000003305490f185d90000",
            "debugEnable": true,
            "errorInfo": "",
            "eventCount": 1,
            "feeRecipient": "0x690b9a9e9aa1c9db991c7721a92d351db4fac990",
            "formatValue": "0",
            "gasLimit": 100000,
            "gasPrice": "43.304183313",
            "gasUsed": 30387,
            "intTxnCount": 0,
            "internalRevert": false,
            "internalRevertMessage": "",
            "isContractCreation": false,
            "isFlashloan": false,
            "maxFee": "55",
            "nonce": 3911,
            "overwritedBlockNumber": -1,
            "priorityFee": "0.5",
            "receiver": "0x19062190b1925b5b6689d7073fdfc8c2976ef8cb",
            "revertMessage": "",
            "sender": "0xd5762057a2094eeed98d261d9e0766797fe91ed4",
            "simulationEnable": true,
            "sourceTxnHash": "0xeaca4a2ac0593f7f2c47d4d5d2df7d6a210631bbcfb1907cc7ae323df41a5622",
            "status": true,
            "timestamp": "2023-12-17T16:43:35Z",
            "transactionFee": "0.001315884218332131",
            "txnHash": "0xeaca4a2ac0593f7f2c47d4d5d2df7d6a210631bbcfb1907cc7ae323df41a5622",
            "txnIndex": 54,
            "type": 2,
            "value": "0"
        },
        "fund_flow": [
            {
                "amount": "5,882.28",
                "from": "0xd5762057a2094eeed98d261d9e0766797fe91ed4",
                "id": 1,
                "isERC1155": false,
                "isERC721": false,
                "isReverted": false,
                "order": 1,
                "to": "0x6cc5f688a315f3dc28a7781717a9a798a59fda7b",
                "token": "0x19062190b1925b5b6689d7073fdfc8c2976ef8cb"
            }
        ],
        "token_infos": [
            {
                "address": "0x19062190b1925b5b6689d7073fdfc8c2976ef8cb",
                "decimals": 16
            },
            {
                "address": "0xc02aaa39b223fe8d0a0e5c4f27ead9083c756cc2",
                "decimals": 18
            },
            {
                "address": "0xeeeeeeeeeeeeeeeeeeeeeeeeeeeeeeeeeeeeeeee",
                "decimals": 18
            }
        ]
    },
    "address_label": {
        "labels": [
            {
                "address": "0x0000000000000000000000000000000000000002",
                "label": "Precompiled"
            },
            {
                "address": "0x0000000000000000000000000000000000000003",
                "label": "Precompiled"
            },
            {
                "address": "0x0000000000000000000000000000000000000004",
                "label": "Precompiled"
            },
            {
                "address": "0xeeeeeeeeeeeeeeeeeeeeeeeeeeeeeeeeeeeeeeee",
                "label": "Ether"
            },
            {
                "address": "0x6cc5f688a315f3dc28a7781717a9a798a59fda7b",
                "label": "OKX"
            },
            {
                "address": "0xd5762057a2094eeed98d261d9e0766797fe91ed4",
                "label": "OKEX"
            },
            {
                "address": "0x19062190b1925b5b6689d7073fdfc8c2976ef8cb",
                "label": "Ethswarm: BZZ Token"
            },
            {
                "address": "0x0000000000000000000000000000000000000001",
                "label": "Precompiled"
            }
        ]
    },
    "trace": {
        "accountLabels": null,
        "dataMap": {
            "-1": {
                "invocation": {
                    "address": "0xd5762057a2094eeed98d261d9e0766797fe91ed4",
                    "callData": "",
                    "decodedMethod": null,
                    "errorInfo": "",
                    "fromAddress": "",
                    "gasUsed": 0,
                    "id": -1,
                    "methodDecoded": false,
                    "operation": "",
                    "output": "",
                    "revert": false,
                    "revertMessage": "",
                    "selector": "",
                    "status": false,
                    "value": ""
                },
                "nodeType": 0
            },
            "0": {
                "invocation": {
                    "address": "0x19062190b1925b5b6689d7073fdfc8c2976ef8cb",
                    "callData": "0x0000000000000000000000006cc5f688a315f3dc28a7781717a9a798a59fda7b000000000000000000000000000000000000000000000003305490f185d90000",
                    "decodedMethod": {
                        "callParams": [
                            {
                                "name": "recipient",
                                "type": "address",
                                "value": "0x6cc5f688a315f3dc28a7781717a9a798a59fda7b"
                            },
                            {
                                "decimalAvailable": true,
                                "name": "amount",
                                "type": "uint256",
                                "value": "58,822,800,000,000,000,000"
                            }
                        ],
                        "constructorArguments": "",
                        "name": "transfer",
                        "returnParams": [
                            {
                                "name": "",
                                "type": "bool",
                                "value": true
                            }
                        ],
                        "signature": "transfer(address,uint256)"
                    },
                    "errorInfo": "",
                    "fromAddress": "0xd5762057a2094eeed98d261d9e0766797fe91ed4",
                    "gasUsed": 30387,
                    "id": 0,
                    "methodDecoded": true,
                    "operation": "CALL",
                    "output": "0x0000000000000000000000000000000000000000000000000000000000000001",
                    "revert": false,
                    "revertMessage": "",
                    "selector": "0xa9059cbb",
                    "status": true,
                    "value": "0"
                },
                "nodeType": 0
            },
            "1": {
                "event": {
                    "contract": "0x19062190b1925b5b6689d7073fdfc8c2976ef8cb",
                    "decodedLog": {
                        "name": "Transfer",
                        "params": [
                            {
                                "name": "from",
                                "type": "address",
                                "value": "0xd5762057a2094eeed98d261d9e0766797fe91ed4"
                            },
                            {
                                "name": "to",
                                "type": "address",
                                "value": "0x6cc5f688a315f3dc28a7781717a9a798a59fda7b"
                            },
                            {
                                "decimalAvailable": true,
                                "name": "value",
                                "type": "uint256",
                                "value": "58,822,800,000,000,000,000"
                            }
                        ],
                        "signature": "Transfer(address,address,uint256)"
                    },
                    "id": 1,
                    "logData": "0x000000000000000000000000000000000000000000000003305490f185d90000",
                    "logDecoded": true,
                    "operation": "EVENT",
                    "revert": false,
                    "status": true,
                    "topics": [
                        "0xddf252ad1be2c89b69c2b068fc378daa952ba7f163c4a11628f55a4df523b3ef",
                        "0x000000000000000000000000d5762057a2094eeed98d261d9e0766797fe91ed4",
                        "0x0000000000000000000000006cc5f688a315f3dc28a7781717a9a798a59fda7b"
                    ]
                },
                "nodeType": 1
            }
        },
        "gasFlame": [
            {
                "children": [
                    {
                        "children": [
                            {
                                "children": [],
                                "depth": 0,
                                "name": "Initial Gas",
                                "value": 21644
                            },
                            {
                                "children": [],
                                "depth": 0,
                                "name": "Executed Gas",
                                "value": 13543
                            }
                        ],
                        "depth": -1,
                        "name": "Actual Gas Used",
                        "value": 30387
                    },
                    {
                        "children": [],
                        "depth": -1,
                        "name": "Refunded Gas",
                        "value": 4800
                    }
                ],
                "depth": -2,
                "name": "Total Gas",
                "value": 35187
            }
        ],
        "isConfirmed": true,
        "mainTrace": [
            {
                "children": [
                    {
                        "children": [
                            {
                                "children": [],
                                "depth": 1,
                                "id": 1,
                                "order": 1
                            }
                        ],
                        "depth": 0,
                        "id": 0,
                        "order": 0
                    }
                ],
                "depth": -1,
                "id": -1,
                "order": -1
            }
        ],
        "mainTraceNodeCount": 2,
        "parentIdMap": {
            "0": -1,
            "1": 0
        },
        "tidyTrace": [
            {
                "children": [
                    {
                        "children": [
                            {
                                "children": [],
                                "depth": 1,
                                "id": 1,
                                "order": 1
                            }
                        ],
                        "depth": 0,
                        "id": 0,
                        "order": 0
                    }
                ],
                "depth": -1,
                "id": -1,
                "order": -1
            }
        ],
        "tidyTraceNodeCount": 2
    },
    "state_change": {
        "stateChanges": [
            {
                "address": "0x19062190b1925b5b6689d7073fdfc8c2976ef8cb",
                "erc": "ERC-20",
                "slots": [
                    {
                        "current": "0x0000000000000000000000000000000000000000000000000000000000000000",
                        "key": "0x3b8f4f2d9d2a13277cdaacf690db16e94d2bdf56ef9c40aaee554dd65e8560c0",
                        "prev": "0x000000000000000000000000000000000000000000000003305490f185d90000"
                    },
                    {
                        "current": "0x0000000000000000000000000000000000000000000013245250a29695a20672",
                        "key": "0x8a218ec5a587db7304f129476013c33a17714948651ee146dc8afbd43ab5133e",
                        "prev": "0x00000000000000000000000000000000000000000000132121fc11a50fc90672"
                    }
                ],
                "storageVariables": [
                    {
                        "name": "_balances",
                        "type": "mapping(address => uint256)",
                        "value": {
                            "pairs": [
                                {
                                    "key": "0x6cc5f688a315f3dc28a7781717a9a798a59fda7b",
                                    "value": {
                                        "current": "90394977380653689079410",
                                        "prev": "90336154580653689079410",
                                        "typeTag": 1
                                    }
                                },
                                {
                                    "key": "0xd5762057a2094eeed98d261d9e0766797fe91ed4",
                                    "value": {
                                        "current": "0",
                                        "prev": "58822800000000000000",
                                        "typeTag": 1
                                    }
                                }
                            ],
                            "typeTag": 4
                        }
                    }
                ]
            }
        ]
    }
}