{
    "balance_change": {
        "balanceChanges": []
    },
    "profile": {
        "basic_info": {
            "baseFee": "",
            "blockNumber": 11197383,
            "callData": "0x4f9559b100000000000000000000000000000000000000000000000000000175988328f6",
            "debugEnable": true,
            "errorInfo": "",
            "eventCount": 1,
            "feeRecipient": "0x99c85bb64564d9ef9a99621301f22c9993cb89e3",
            "formatValue": "0",
            "gasLimit": 41953,
            "gasPrice": "42",
            "gasUsed": 36272,
            "intTxnCount": 0,
            "internalRevert": false,
            "internalRevertMessage": "",
            "isContractCreation": false,
            "isFlashloan": false,
            "maxFee": "",
            "nonce": 114003,
            "overwritedBlockNumber": -1,
            "priorityFee": "",
            "receiver": "0x61935cbdd02287b511119ddb11aeb42f1593b7ef",
            "revertMessage": "",
            "sender": "0x6425bb021dabd5d6b443a1ab47b003a1b7a27d4b",
            "simulationEnable": true,
            "sourceTxnHash": "0xea0147f2703dd1bce15d8930f4c17265188a34aa61b18f16c2f63468fac504a0",
            "status": true,
            "timestamp": "2020-11-05T13:06:09Z",
            "transactionFee": "0.001523424",
            "txnHash": "0xea0147f2703dd1bce15d8930f4c17265188a34aa61b18f16c2f63468fac504a0",
            "txnIndex": 143,
            "type": 0,
            "value": "0"
        },
        "fund_flow": [],
        "token_infos": [
            {
                "address": "0xc02aaa39b223fe8d0a0e5c4f27ead9083c756cc2",
                "decimals": 18
            },
            {
                "address": "0xeeeeeeeeeeeeeeeeeeeeeeeeeeeeeeeeeeeeeeee",
                "decimals": 18
            }
        ]
    },
    "address_label": {
        "labels": [
            {
                "address": "0xeeeeeeeeeeeeeeeeeeeeeeeeeeeeeeeeeeeeeeee",
                "label": "Ether"
            },
            {
                "address": "0x61935cbdd02287b511119ddb11aeb42f1593b7ef",
                "label": "0x: Exchange v3"
            },
            {
                "address": "0x0000000000000000000000000000000000000001",
                "label": "Precompiled"
            },
            {
                "address": "0x0000000000000000000000000000000000000002",
                "label": "Precompiled"
            },
            {
                "address": "0x0000000000000000000000000000000000000003",
                "label": "Precompiled"
            },
            {
                "address": "0x0000000000000000000000000000000000000004",
                "label": "Precompiled"
            }
        ]
    },
    "trace": {
        "accountLabels": null,
        "dataMap": {
            "-1": {
                "invocation": {
                    "address": "0x6425bb021dabd5d6b443a1ab47b003a1b7a27d4b",
                    "callData": "",
                    "decodedMethod": null,
                    "errorInfo": "",
                    "fromAddress": "",
                    "gasUsed": 0,
                    "id": -1,
                    "methodDecoded": false,
                    "operation": "",
                    "output": "",
                    "revert": false,
                    "revertMessage": "",
                    "selector": "",
                    "status": false,
                    "value": ""
                },
                "nodeType": 0
            },
            "0": {
                "invocation": {
                    "address": "0x61935cbdd02287b511119ddb11aeb42f1593b7ef",
                    "callData": "0x00000000000000000000000000000000000000000000000000000175988328f6",
                    "decodedMethod": {
                        "callParams": [
                            {
                                "name": "targetOrderEpoch",
                                "type": "uint256",
                                "value": "1,604,581,533,942"
                            }
                        ],
                        "constructorArguments": "",
                        "name": "cancelOrdersUpTo",
                        "returnParams": [],
                        "signature": "cancelOrdersUpTo(uint256)"
                    },
                    "errorInfo": "",
                    "fromAddress": "0x6425bb021dabd5d6b443a1ab47b003a1b7a27d4b",
                    "gasUsed": 36272,
                    "id": 0,
                    "methodDecoded": true,
                    "operation": "CALL",
                    "output": "",
                    "revert": false,
                    "revertMessage": "",
                    "selector": "0x4f9559b1",
                    "status": true,
                    "value": "0"
                },
                "nodeType": 0
            },
            "1": {
                "event": {
                    "contract": "0x61935cbdd02287b511119ddb11aeb42f1593b7ef",
                    "decodedLog": {
                        "name": "CancelUpTo",
                        "params": [
                            {
                                "name": "makerAddress",
                                "type": "address",
                                "value": "0x6425bb021dabd5d6b443a1ab47b003a1b7a27d4b"
                            },
                            {
                                "name": "orderSenderAddress",
                                "type": "address",
                                "value": "0x0000000000000000000000000000000000000000"
                            },
                            {
                                "name": "orderEpoch",
                                "type": "uint256",
                                "value": "1,604,581,533,943"
                            }
                        ],
                        "signature": "CancelUpTo(address,address,uint256)"
                    },
                    "id": 1,
                    "logData": "0x00000000000000000000000000000000000000000000000000000175988328f7",
                    "logDecoded": true,
                    "operation": "EVENT",
                    "revert": false,
                    "status": true,
                    "topics": [
                        "0x82af639571738f4ebd4268fb0363d8957ebe1bbb9e78dba5ebd69eed39b154f0",
                        "0x0000000000000000000000006425bb021dabd5d6b443a1ab47b003a1b7a27d4b",
                        "0x0000000000000000000000000000000000000000000000000000000000000000"
                    ]
                },
                "nodeType": 1
            }
        },
        "gasFlame": [
            {
                "children": [
                    {
                        "children": [
                            {
                                "children": [],
                                "depth": 0,
                                "name": "Initial Gas",
                                "value": 21264
                            },
                            {
                                "children": [],
                                "depth": 0,
                                "name": "Executed Gas",
                                "value": 19208
                            }
                        ],
                        "depth": -1,
                        "name": "Actual Gas Used",
                        "value": 36272
                    },
                    {
                        "children": [],
                        "depth": -1,
                        "name": "Refunded Gas",
                        "value": 4200
                    }
                ],
                "depth": -2,
                "name": "Total Gas",
                "value": 40472
            }
        ],
        "isConfirmed": true,
        "mainTrace": [
            {
                "children": [
                    {
                        "children": [
                            {
                                "children": [],
                                "depth": 1,
                                "id": 1,
                                "order": 1
                            }
                        ],
                        "depth": 0,
                        "id": 0,
                        "order": 0
                    }
                ],
                "depth": -1,
                "id": -1,
                "order": -1
            }
        ],
        "mainTraceNodeCount": 2,
        "parentIdMap": {
            "0": -1,
            "1": 0
        },
        "tidyTrace": [
            {
                "children": [
                    {
                        "children": [
                            {
                                "children": [],
                                "depth": 1,
                                "id": 1,
                                "order": 1
                            }
                        ],
                        "depth": 0,
                        "id": 0,
                        "order": 0
                    }
                ],
                "depth": -1,
                "id": -1,
                "order": -1
            }
        ],
        "tidyTraceNodeCount": 2
    },
    "state_change": {
        "stateChanges": [
            {
                "address": "0x61935cbdd02287b511119ddb11aeb42f1593b7ef",
                "erc": "",
                "slots": [
                    {
                        "current": "0x00000000000000000000000000000000000000000000000000000175988328f7",
                        "key": "0x5fea200e7bdc4a8360d5c9298aa26dd893f74dd9fd10b7de1211d657e4dfdf32",
                        "prev": "0x00000000000000000000000000000000000000000000000000000175988328f3"
                    }
                ],
                "storageVariables": [
                    {
                        "name": "orderEpoch",
                        "type": "mapping(address => mapping(address => uint256))",
                        "value": {
                            "pairs": [
                                {
                                    "key": "0x6425bb021dabd5d6b443a1ab47b003a1b7a27d4b",
                                    "value": {
                                        "pairs": [
                                            {
                                                "key": "0x0000000000000000000000000000000000000000",
                                                "value": {
                                                    "current": "1604581533943",
                                                    "prev": "1604581533939",
                                                    "typeTag": 1
                                                }
                                            }
                                        ],
                                        "typeTag": 4
                                    }
                                }
                            ],
                            "typeTag": 4
                        }
                    }
                ]
            }
        ]
    }
}