{
    "balance_change": {
        "balanceChanges": [
            {
                "account": "0x09aceef925405b61f8ecf834968e4002e348e0a6",
                "assets": [
                    {
                        "address": "0x495f947276749ce646f68ac8c248420045cb7b5e",
                        "amount": "1",
                        "iconUrl": "",
                        "isERC1155": true,
                        "isERC721": false,
                        "sign": false,
                        "tokenID": "4376362664971565585737253540999175540782146014032197755264946315909952176129",
                        "value": ""
                    }
                ]
            },
            {
                "account": "0x00b9fc464057b6b6de6f83e071cb52a1dedc2e7c",
                "assets": [
                    {
                        "address": "0x495f947276749ce646f68ac8c248420045cb7b5e",
                        "amount": "1",
                        "iconUrl": "",
                        "isERC1155": true,
                        "isERC721": false,
                        "sign": true,
                        "tokenID": "4376362664971565585737253540999175540782146014032197755264946315909952176129",
                        "value": ""
                    }
                ]
            }
        ]
    },
    "profile": {
        "basic_info": {
            "baseFee": "68.837306047",
            "blockNumber": 14724692,
            "callData": "0xf242432a00000000000000000000000009aceef925405b61f8ecf834968e4002e348e0a600000000000000000000000000b9fc464057b6b6de6f83e071cb52a1dedc2e7c09aceef925405b61f8ecf834968e4002e348e0a6000000000000230000000001000000000000000000000000000000000000000000000000000000000000000100000000000000000000000000000000000000000000000000000000000000a000000000000000000000000000000000000000000000000000000000000000000000000000000000000000000000000000000000000000000000000000000000",
            "debugEnable": true,
            "errorInfo": "",
            "eventCount": 1,
            "feeRecipient": "0x829bd824b016326a401d083b33d092293333a830",
            "formatValue": "0",
            "gasLimit": 130558,
            "gasPrice": "71.337306047",
            "gasUsed": 82116,
            "intTxnCount": 0,
            "internalRevert": false,
            "internalRevertMessage": "",
            "isContractCreation": false,
            "isFlashloan": false,
            "maxFee": "126.130328984",
            "nonce": 57,
            "overwritedBlockNumber": -1,
            "priorityFee": "2.5",
            "receiver": "0x495f947276749ce646f68ac8c248420045cb7b5e",
            "revertMessage": "",
            "sender": "0x09aceef925405b61f8ecf834968e4002e348e0a6",
            "simulationEnable": true,
            "sourceTxnHash": "0xeb03c2290ec005c6102cb9db8b88344078cfc311b64bb58f68a353b40445b486",
            "status": true,
            "timestamp": "2022-05-06T16:49:37Z",
            "transactionFee": "0.005857934223355452",
            "txnHash": "0xeb03c2290ec005c6102cb9db8b88344078cfc311b64bb58f68a353b40445b486",
            "txnIndex": 13,
            "type": 2,
            "value": "0"
        },
        "fund_flow": [
            {
                "amount": "1",
                "from": "0x09aceef925405b61f8ecf834968e4002e348e0a6",
                "id": 1,
                "isERC1155": true,
                "isERC721": false,
                "isReverted": false,
                "order": 1,
                "to": "0x00b9fc464057b6b6de6f83e071cb52a1dedc2e7c",
                "token": "0x495f947276749ce646f68ac8c248420045cb7b5e",
                "tokenID": "4376362664971565585737253540999175540782146014032197755264946315909952176129"
            }
        ],
        "token_infos": [
            {
                "address": "0xeeeeeeeeeeeeeeeeeeeeeeeeeeeeeeeeeeeeeeee",
                "decimals": 18
            },
            {
                "address": "0xc02aaa39b223fe8d0a0e5c4f27ead9083c756cc2",
                "decimals": 18
            }
        ]
    },
    "address_label": {
        "labels": [
            {
                "address": "0x495f947276749ce646f68ac8c248420045cb7b5e",
                "label": "OpenSea: OPENSTORE Token"
            },
            {
                "address": "0x0000000000000000000000000000000000000001",
                "label": "Precompiled"
            },
            {
                "address": "0x0000000000000000000000000000000000000002",
                "label": "Precompiled"
            },
            {
                "address": "0x0000000000000000000000000000000000000003",
                "label": "Precompiled"
            },
            {
                "address": "0x0000000000000000000000000000000000000004",
                "label": "Precompiled"
            },
            {
                "address": "0xeeeeeeeeeeeeeeeeeeeeeeeeeeeeeeeeeeeeeeee",
                "label": "Ether"
            }
        ]
    },
    "trace": {
        "accountLabels": null,
        "dataMap": {
            "-1": {
                "invocation": {
                    "address": "0x09aceef925405b61f8ecf834968e4002e348e0a6",
                    "callData": "",
                    "decodedMethod": null,
                    "errorInfo": "",
                    "fromAddress": "",
                    "gasUsed": 0,
                    "id": -1,
                    "methodDecoded": false,
                    "operation": "",
                    "output": "",
                    "revert": false,
                    "revertMessage": "",
                    "selector": "",
                    "status": false,
                    "value": ""
                },
                "nodeType": 0
            },
            "0": {
                "invocation": {
                    "address": "0x495f947276749ce646f68ac8c248420045cb7b5e",
                    "callData": "0x00000000000000000000000009aceef925405b61f8ecf834968e4002e348e0a600000000000000000000000000b9fc464057b6b6de6f83e071cb52a1dedc2e7c09aceef925405b61f8ecf834968e4002e348e0a6000000000000230000000001000000000000000000000000000000000000000000000000000000000000000100000000000000000000000000000000000000000000000000000000000000a000000000000000000000000000000000000000000000000000000000000000000000000000000000000000000000000000000000000000000000000000000000",
                    "decodedMethod": {
                        "callParams": [
                            {
                                "name": "from",
                                "type": "address",
                                "value": "0x09aceef925405b61f8ecf834968e4002e348e0a6"
                            },
                            {
                                "name": "to",
                                "type": "address",
                                "value": "0x00b9fc464057b6b6de6f83e071cb52a1dedc2e7c"
                            },
                            {
                                "name": "id",
                                "type": "uint256",
                                "value": "4,376,362,664,971,565,585,737,253,540,999,175,540,782,146,014,032,197,755,264,946,315,909,952,176,129"
                            },
                            {
                                "name": "amount",
                                "type": "uint256",
                                "value": "1"
                            },
                            {
                                "name": "data",
                                "type": "bytes",
                                "value": "0x"
                            }
                        ],
                        "constructorArguments": "",
                        "name": "safeTransferFrom",
                        "returnParams": [],
                        "signature": "safeTransferFrom(address,address,uint256,uint256,bytes)"
                    },
                    "errorInfo": "",
                    "fromAddress": "0x09aceef925405b61f8ecf834968e4002e348e0a6",
                    "gasUsed": 82116,
                    "id": 0,
                    "methodDecoded": true,
                    "operation": "CALL",
                    "output": "",
                    "revert": false,
                    "revertMessage": "",
                    "selector": "0xf242432a",
                    "status": true,
                    "value": "0"
                },
                "nodeType": 0
            },
            "1": {
                "event": {
                    "contract": "0x495f947276749ce646f68ac8c248420045cb7b5e",
                    "decodedLog": {
                        "name": "TransferSingle",
                        "params": [
                            {
                                "name": "operator",
                                "type": "address",
                                "value": "0x09aceef925405b61f8ecf834968e4002e348e0a6"
                            },
                            {
                                "name": "from",
                                "type": "address",
                                "value": "0x09aceef925405b61f8ecf834968e4002e348e0a6"
                            },
                            {
                                "name": "to",
                                "type": "address",
                                "value": "0x00b9fc464057b6b6de6f83e071cb52a1dedc2e7c"
                            },
                            {
                                "name": "id",
                                "type": "uint256",
                                "value": "4,376,362,664,971,565,585,737,253,540,999,175,540,782,146,014,032,197,755,264,946,315,909,952,176,129"
                            },
                            {
                                "name": "value",
                                "type": "uint256",
                                "value": "1"
                            }
                        ],
                        "signature": "TransferSingle(address,address,address,uint256,uint256)"
                    },
                    "id": 1,
                    "logData": "0x09aceef925405b61f8ecf834968e4002e348e0a60000000000002300000000010000000000000000000000000000000000000000000000000000000000000001",
                    "logDecoded": true,
                    "operation": "EVENT",
                    "revert": false,
                    "status": true,
                    "topics": [
                        "0xc3d58168c5ae7397731d063d5bbf3d657854427343f4c083240f7aacaa2d0f62",
                        "0x00000000000000000000000009aceef925405b61f8ecf834968e4002e348e0a6",
                        "0x00000000000000000000000009aceef925405b61f8ecf834968e4002e348e0a6",
                        "0x00000000000000000000000000b9fc464057b6b6de6f83e071cb52a1dedc2e7c"
                    ]
                },
                "nodeType": 1
            }
        },
        "gasFlame": [
            {
                "children": [
                    {
                        "children": [
                            {
                                "children": [],
                                "depth": 0,
                                "name": "Initial Gas",
                                "value": 22716
                            },
                            {
                                "children": [],
                                "depth": 0,
                                "name": "Executed Gas",
                                "value": 62200
                            }
                        ],
                        "depth": -1,
                        "name": "Actual Gas Used",
                        "value": 82116
                    },
                    {
                        "children": [],
                        "depth": -1,
                        "name": "Refunded Gas",
                        "value": 2800
                    }
                ],
                "depth": -2,
                "name": "Total Gas",
                "value": 84916
            }
        ],
        "isConfirmed": true,
        "mainTrace": [
            {
                "children": [
                    {
                        "children": [
                            {
                                "children": [],
                                "depth": 1,
                                "id": 1,
                                "order": 1
                            }
                        ],
                        "depth": 0,
                        "id": 0,
                        "order": 0
                    }
                ],
                "depth": -1,
                "id": -1,
                "order": -1
            }
        ],
        "mainTraceNodeCount": 2,
        "parentIdMap": {
            "0": -1,
            "1": 0
        },
        "tidyTrace": [
            {
                "children": [
                    {
                        "children": [
                            {
                                "children": [],
                                "depth": 1,
                                "id": 1,
                                "order": 1
                            }
                        ],
                        "depth": 0,
                        "id": 0,
                        "order": 0
                    }
                ],
                "depth": -1,
                "id": -1,
                "order": -1
            }
        ],
        "tidyTraceNodeCount": 2
    },
    "state_change": {
        "stateChanges": [
            {
                "address": "0x495f947276749ce646f68ac8c248420045cb7b5e",
                "erc": "",
                "slots": [
                    {
                        "current": "0x0000000000000000000000000000000000000000000000000000000000000001",
                        "key": "0x55f3def38228ebd351c10b0c2fb5f4afb362a303361ac9410bdb03d051f03120",
                        "prev": "0x0000000000000000000000000000000000000000000000000000000000000000"
                    },
                    {
                        "current": "0x0000000000000000000000000000000000000000000000000000000000000001",
                        "key": "0xe5438ed7f47e775a7bbf18aab9e155b38c97d253ef82a3d8d8e876341e210fce",
                        "prev": "0x0000000000000000000000000000000000000000000000000000000000000000"
                    }
                ],
                "storageVariables": []
            }
        ]
    }
}