{
    "balance_change": {
        "balanceChanges": [
            {
                "account": "0x99fe5d6383289cdd56e54fc0baf7f67c957a8888",
                "assets": [
                    {
                        "address": "0x3cc83c2400e00a54fa1e588d62bc28bf15d5def5",
                        "amount": "10,218.9896",
                        "iconUrl": "",
                        "isERC1155": false,
                        "isERC721": false,
                        "sign": false,
                        "value": ""
                    }
                ]
            },
            {
                "account": "0x98baa8f829616ee1ddfa863ca0d6536de1220d6a",
                "assets": [
                    {
                        "address": "0x3cc83c2400e00a54fa1e588d62bc28bf15d5def5",
                        "amount": "10,218.9896",
                        "iconUrl": "",
                        "isERC1155": false,
                        "isERC721": false,
                        "sign": true,
                        "value": ""
                    }
                ]
            }
        ]
    },
    "profile": {
        "basic_info": {
            "baseFee": "",
            "blockNumber": 7476780,
            "callData": "0xa9059cbb00000000000000000000000098baa8f829616ee1ddfa863ca0d6536de1220d6a000000000000000000000000000000000000000000000229f8f822ac33220000",
            "debugEnable": true,
            "errorInfo": "",
            "eventCount": 1,
            "feeRecipient": "0x829bd824b016326a401d083b33d092293333a830",
            "formatValue": "0",
            "gasLimit": 77777,
            "gasPrice": "66",
            "gasUsed": 52791,
            "intTxnCount": 0,
            "internalRevert": false,
            "internalRevertMessage": "",
            "isContractCreation": false,
            "isFlashloan": false,
            "maxFee": "",
            "nonce": 64665,
            "overwritedBlockNumber": -1,
            "priorityFee": "",
            "receiver": "0x3cc83c2400e00a54fa1e588d62bc28bf15d5def5",
            "revertMessage": "",
            "sender": "0x99fe5d6383289cdd56e54fc0baf7f67c957a8888",
            "simulationEnable": true,
            "sourceTxnHash": "0xeb00bd74229c9e48b8d69ea6a80f07b9123ba5d3fc293c6a31efe2e2ea06337f",
            "status": true,
            "timestamp": "2019-03-31T14:56:51Z",
            "transactionFee": "0.003484206",
            "txnHash": "0xeb00bd74229c9e48b8d69ea6a80f07b9123ba5d3fc293c6a31efe2e2ea06337f",
            "txnIndex": 0,
            "type": 0,
            "value": "0"
        },
        "fund_flow": [
            {
                "amount": "10,218.9896",
                "from": "0x99fe5d6383289cdd56e54fc0baf7f67c957a8888",
                "id": 1,
                "isERC1155": false,
                "isERC721": false,
                "isReverted": false,
                "order": 1,
                "to": "0x98baa8f829616ee1ddfa863ca0d6536de1220d6a",
                "token": "0x3cc83c2400e00a54fa1e588d62bc28bf15d5def5"
            }
        ],
        "token_infos": [
            {
                "address": "0xc02aaa39b223fe8d0a0e5c4f27ead9083c756cc2",
                "decimals": 18
            },
            {
                "address": "0xeeeeeeeeeeeeeeeeeeeeeeeeeeeeeeeeeeeeeeee",
                "decimals": 18
            },
            {
                "address": "0x3cc83c2400e00a54fa1e588d62bc28bf15d5def5",
                "decimals": 18
            }
        ]
    },
    "address_label": {
        "labels": [
            {
                "address": "0xeeeeeeeeeeeeeeeeeeeeeeeeeeeeeeeeeeeeeeee",
                "label": "Ether"
            },
            {
                "address": "0x3cc83c2400e00a54fa1e588d62bc28bf15d5def5",
                "label": "OPTICAL NETWORK (OPTC)"
            },
            {
                "address": "0x99fe5d6383289cdd56e54fc0baf7f67c957a8888",
                "label": "HTX 42"
            },
            {
                "address": "0x0000000000000000000000000000000000000001",
                "label": "Precompiled"
            },
            {
                "address": "0x0000000000000000000000000000000000000002",
                "label": "Precompiled"
            },
            {
                "address": "0x0000000000000000000000000000000000000003",
                "label": "Precompiled"
            },
            {
                "address": "0x0000000000000000000000000000000000000004",
                "label": "Precompiled"
            }
        ]
    },
    "trace": {
        "accountLabels": null,
        "dataMap": {
            "-1": {
                "invocation": {
                    "address": "0x99fe5d6383289cdd56e54fc0baf7f67c957a8888",
                    "callData": "",
                    "decodedMethod": null,
                    "errorInfo": "",
                    "fromAddress": "",
                    "gasUsed": 0,
                    "id": -1,
                    "methodDecoded": false,
                    "operation": "",
                    "output": "",
                    "revert": false,
                    "revertMessage": "",
                    "selector": "",
                    "status": false,
                    "value": ""
                },
                "nodeType": 0
            },
            "0": {
                "invocation": {
                    "address": "0x3cc83c2400e00a54fa1e588d62bc28bf15d5def5",
                    "callData": "0x00000000000000000000000098baa8f829616ee1ddfa863ca0d6536de1220d6a000000000000000000000000000000000000000000000229f8f822ac33220000",
                    "decodedMethod": {
                        "callParams": [
                            {
                                "name": "_to",
                                "type": "address",
                                "value": "0x98baa8f829616ee1ddfa863ca0d6536de1220d6a"
                            },
                            {
                                "decimalAvailable": true,
                                "name": "_value",
                                "type": "uint256",
                                "value": "10,218,989,600,000,000,000,000"
                            }
                        ],
                        "constructorArguments": "",
                        "name": "transfer",
                        "returnParams": [
                            {
                                "name": "",
                                "type": "bool",
                                "value": true
                            }
                        ],
                        "signature": "transfer(address,uint256)"
                    },
                    "errorInfo": "",
                    "fromAddress": "0x99fe5d6383289cdd56e54fc0baf7f67c957a8888",
                    "gasUsed": 52791,
                    "id": 0,
                    "methodDecoded": true,
                    "operation": "CALL",
                    "output": "0x0000000000000000000000000000000000000000000000000000000000000001",
                    "revert": false,
                    "revertMessage": "",
                    "selector": "0xa9059cbb",
                    "status": true,
                    "value": "0"
                },
                "nodeType": 0
            },
            "1": {
                "event": {
                    "contract": "0x3cc83c2400e00a54fa1e588d62bc28bf15d5def5",
                    "decodedLog": {
                        "name": "Transfer",
                        "params": [
                            {
                                "name": "from",
                                "type": "address",
                                "value": "0x99fe5d6383289cdd56e54fc0baf7f67c957a8888"
                            },
                            {
                                "name": "to",
                                "type": "address",
                                "value": "0x98baa8f829616ee1ddfa863ca0d6536de1220d6a"
                            },
                            {
                                "decimalAvailable": true,
                                "name": "value",
                                "type": "uint256",
                                "value": "10,218,989,600,000,000,000,000"
                            }
                        ],
                        "signature": "Transfer(address,address,uint256)"
                    },
                    "id": 1,
                    "logData": "0x000000000000000000000000000000000000000000000229f8f822ac33220000",
                    "logDecoded": true,
                    "operation": "EVENT",
                    "revert": false,
                    "status": true,
                    "topics": [
                        "0xddf252ad1be2c89b69c2b068fc378daa952ba7f163c4a11628f55a4df523b3ef",
                        "0x00000000000000000000000099fe5d6383289cdd56e54fc0baf7f67c957a8888",
                        "0x00000000000000000000000098baa8f829616ee1ddfa863ca0d6536de1220d6a"
                    ]
                },
                "nodeType": 1
            }
        },
        "gasFlame": [
            {
                "children": [
                    {
                        "children": [
                            {
                                "children": [],
                                "depth": 0,
                                "name": "Initial Gas",
                                "value": 23320
                            },
                            {
                                "children": [],
                                "depth": 0,
                                "name": "Executed Gas",
                                "value": 29471
                            }
                        ],
                        "depth": -1,
                        "name": "Actual Gas Used",
                        "value": 52791
                    },
                    {
                        "children": [],
                        "depth": -1,
                        "name": "Refunded Gas",
                        "value": 0
                    }
                ],
                "depth": -2,
                "name": "Total Gas",
                "value": 52791
            }
        ],
        "isConfirmed": true,
        "mainTrace": [
            {
                "children": [
                    {
                        "children": [
                            {
                                "children": [],
                                "depth": 1,
                                "id": 1,
                                "order": 1
                            }
                        ],
                        "depth": 0,
                        "id": 0,
                        "order": 0
                    }
                ],
                "depth": -1,
                "id": -1,
                "order": -1
            }
        ],
        "mainTraceNodeCount": 2,
        "parentIdMap": {
            "0": -1,
            "1": 0
        },
        "tidyTrace": [
            {
                "children": [
                    {
                        "children": [
                            {
                                "children": [],
                                "depth": 1,
                                "id": 1,
                                "order": 1
                            }
                        ],
                        "depth": 0,
                        "id": 0,
                        "order": 0
                    }
                ],
                "depth": -1,
                "id": -1,
                "order": -1
            }
        ],
        "tidyTraceNodeCount": 2
    },
    "state_change": {
        "stateChanges": [
            {
                "address": "0x3cc83c2400e00a54fa1e588d62bc28bf15d5def5",
                "erc": "ERC-20",
                "slots": [
                    {
                        "current": "0x0000000000000000000000000000000000000000000d282f1816d0e583918800",
                        "key": "0x295e0c8ea182ca9e8db6650f75648345e14b1a0b076087a4c5bbed83da2564a4",
                        "prev": "0x0000000000000000000000000000000000000000000d2a59110ef391b6b38800"
                    },
                    {
                        "current": "0x000000000000000000000000000000000000000000000229f8f822ac33220000",
                        "key": "0xc73a816857c3a1bb413cd8f546274d01c961fedd7f3c90393701afba165da721",
                        "prev": "0x0000000000000000000000000000000000000000000000000000000000000000"
                    }
                ],
                "storageVariables": [
                    {
                        "name": "balances",
                        "type": "mapping(address => uint256)",
                        "value": {
                            "pairs": [
                                {
                                    "key": "0x98baa8f829616ee1ddfa863ca0d6536de1220d6a",
                                    "value": {
                                        "current": "10218989600000000000000",
                                        "prev": "0",
                                        "typeTag": 1
                                    }
                                },
                                {
                                    "key": "0x99fe5d6383289cdd56e54fc0baf7f67c957a8888",
                                    "value": {
                                        "current": "15905799047080820000000000",
                                        "prev": "15916018036680820000000000",
                                        "typeTag": 1
                                    }
                                }
                            ],
                            "typeTag": 4
                        }
                    }
                ]
            }
        ]
    }
}