{
    "balance_change": {
        "balanceChanges": []
    },
    "profile": {
        "basic_info": {
            "baseFee": "",
            "blockNumber": 11637701,
            "callData": "0x202ee0ed0000000000000000000000000000000000000000000000000000000000000d33000000000000000000000000000000000000000000000000000000002a333900",
            "debugEnable": true,
            "errorInfo": "",
            "eventCount": 3,
            "feeRecipient": "0x04668ec2f57cc15c381b461b9fedab5d451c8f7f",
            "formatValue": "0",
            "gasLimit": 500000,
            "gasPrice": "67",
            "gasUsed": 77642,
            "intTxnCount": 0,
            "internalRevert": false,
            "internalRevertMessage": "",
            "isContractCreation": false,
            "isFlashloan": false,
            "maxFee": "",
            "nonce": 66568,
            "overwritedBlockNumber": -1,
            "priorityFee": "",
            "receiver": "0x41306eb5fc11a68c284c19ba3b9510c0252e0a34",
            "revertMessage": "",
            "sender": "0xa932fb7cb35e7b47c7d2d6d8effed1ac5744f4fc",
            "simulationEnable": true,
            "sourceTxnHash": "0xeb9372aaa4ef237e8a381578934d9039be007115d45b0d10893ad9baa32e9230",
            "status": true,
            "timestamp": "2021-01-12T03:24:31Z",
            "transactionFee": "0.005202014",
            "txnHash": "0xeb9372aaa4ef237e8a381578934d9039be007115d45b0d10893ad9baa32e9230",
            "txnIndex": 114,
            "type": 0,
            "value": "0"
        },
        "fund_flow": [],
        "token_infos": [
            {
                "address": "0xc02aaa39b223fe8d0a0e5c4f27ead9083c756cc2",
                "decimals": 18
            },
            {
                "address": "0xeeeeeeeeeeeeeeeeeeeeeeeeeeeeeeeeeeeeeeee",
                "decimals": 18
            }
        ]
    },
    "address_label": {
        "labels": [
            {
                "address": "0xeeeeeeeeeeeeeeeeeeeeeeeeeeeeeeeeeeeeeeee",
                "label": "Ether"
            },
            {
                "address": "0x41306eb5fc11a68c284c19ba3b9510c0252e0a34",
                "label": "AccessControlledAggregator"
            },
            {
                "address": "0x0000000000000000000000000000000000000001",
                "label": "Precompiled"
            },
            {
                "address": "0x0000000000000000000000000000000000000002",
                "label": "Precompiled"
            },
            {
                "address": "0x0000000000000000000000000000000000000003",
                "label": "Precompiled"
            },
            {
                "address": "0x0000000000000000000000000000000000000004",
                "label": "Precompiled"
            }
        ]
    },
    "trace": {
        "accountLabels": null,
        "dataMap": {
            "-1": {
                "invocation": {
                    "address": "0xa932fb7cb35e7b47c7d2d6d8effed1ac5744f4fc",
                    "callData": "",
                    "decodedMethod": null,
                    "errorInfo": "",
                    "fromAddress": "",
                    "gasUsed": 0,
                    "id": -1,
                    "methodDecoded": false,
                    "operation": "",
                    "output": "",
                    "revert": false,
                    "revertMessage": "",
                    "selector": "",
                    "status": false,
                    "value": ""
                },
                "nodeType": 0
            },
            "0": {
                "invocation": {
                    "address": "0x41306eb5fc11a68c284c19ba3b9510c0252e0a34",
                    "callData": "0x0000000000000000000000000000000000000000000000000000000000000d33000000000000000000000000000000000000000000000000000000002a333900",
                    "decodedMethod": {
                        "callParams": [
                            {
                                "name": "_roundId",
                                "type": "uint256",
                                "value": "3,379"
                            },
                            {
                                "name": "_submission",
                                "type": "int256",
                                "value": "708,000,000"
                            }
                        ],
                        "constructorArguments": "",
                        "name": "submit",
                        "returnParams": [],
                        "signature": "submit(uint256,int256)"
                    },
                    "errorInfo": "",
                    "fromAddress": "0xa932fb7cb35e7b47c7d2d6d8effed1ac5744f4fc",
                    "gasUsed": 77642,
                    "id": 0,
                    "methodDecoded": true,
                    "operation": "CALL",
                    "output": "",
                    "revert": false,
                    "revertMessage": "",
                    "selector": "0x202ee0ed",
                    "status": true,
                    "value": "0"
                },
                "nodeType": 0
            },
            "1": {
                "event": {
                    "contract": "0x41306eb5fc11a68c284c19ba3b9510c0252e0a34",
                    "decodedLog": {
                        "name": "SubmissionReceived",
                        "params": [
                            {
                                "name": "submission",
                                "type": "int256",
                                "value": "708,000,000"
                            },
                            {
                                "name": "round",
                                "type": "uint32",
                                "value": "3,379"
                            },
                            {
                                "name": "oracle",
                                "type": "address",
                                "value": "0xa932fb7cb35e7b47c7d2d6d8effed1ac5744f4fc"
                            }
                        ],
                        "signature": "SubmissionReceived(int256,uint32,address)"
                    },
                    "id": 1,
                    "logData": "0x",
                    "logDecoded": true,
                    "operation": "EVENT",
                    "revert": false,
                    "status": true,
                    "topics": [
                        "0x92e98423f8adac6e64d0608e519fd1cefb861498385c6dee70d58fc926ddc68c",
                        "0x000000000000000000000000000000000000000000000000000000002a333900",
                        "0x0000000000000000000000000000000000000000000000000000000000000d33",
                        "0x000000000000000000000000a932fb7cb35e7b47c7d2d6d8effed1ac5744f4fc"
                    ]
                },
                "nodeType": 1
            },
            "2": {
                "event": {
                    "contract": "0x41306eb5fc11a68c284c19ba3b9510c0252e0a34",
                    "decodedLog": {
                        "name": "AnswerUpdated",
                        "params": [
                            {
                                "name": "current",
                                "type": "int256",
                                "value": "708,000,000"
                            },
                            {
                                "name": "roundId",
                                "type": "uint256",
                                "value": "3,379"
                            },
                            {
                                "name": "updatedAt",
                                "type": "uint256",
                                "value": "1,610,421,871"
                            }
                        ],
                        "signature": "AnswerUpdated(int256,uint256,uint256)"
                    },
                    "id": 2,
                    "logData": "0x000000000000000000000000000000000000000000000000000000005ffd166f",
                    "logDecoded": true,
                    "operation": "EVENT",
                    "revert": false,
                    "status": true,
                    "topics": [
                        "0x0559884fd3a460db3073b7fc896cc77986f16e378210ded43186175bf646fc5f",
                        "0x000000000000000000000000000000000000000000000000000000002a333900",
                        "0x0000000000000000000000000000000000000000000000000000000000000d33"
                    ]
                },
                "nodeType": 1
            },
            "3": {
                "event": {
                    "contract": "0x41306eb5fc11a68c284c19ba3b9510c0252e0a34",
                    "decodedLog": {
                        "name": "AvailableFundsUpdated",
                        "params": [
                            {
                                "name": "amount",
                                "type": "uint256",
                                "value": "9,180,560,000,000,000,000,000"
                            }
                        ],
                        "signature": "AvailableFundsUpdated(uint256)"
                    },
                    "id": 3,
                    "logData": "0x",
                    "logDecoded": true,
                    "operation": "EVENT",
                    "revert": false,
                    "status": true,
                    "topics": [
                        "0xfe25c73e3b9089fac37d55c4c7efcba6f04af04cebd2fc4d6d7dbb07e1e5234f",
                        "0x0000000000000000000000000000000000000000000001f1addd174ef8280000"
                    ]
                },
                "nodeType": 1
            }
        },
        "gasFlame": [
            {
                "children": [
                    {
                        "children": [
                            {
                                "children": [],
                                "depth": 0,
                                "name": "Initial Gas",
                                "value": 21380
                            },
                            {
                                "children": [],
                                "depth": 0,
                                "name": "Executed Gas",
                                "value": 133904
                            }
                        ],
                        "depth": -1,
                        "name": "Actual Gas Used",
                        "value": 77642
                    },
                    {
                        "children": [],
                        "depth": -1,
                        "name": "Refunded Gas",
                        "value": 77642
                    }
                ],
                "depth": -2,
                "name": "Total Gas",
                "value": 155284
            }
        ],
        "isConfirmed": true,
        "mainTrace": [
            {
                "children": [
                    {
                        "children": [
                            {
                                "children": [],
                                "depth": 1,
                                "id": 1,
                                "order": 1
                            },
                            {
                                "children": [],
                                "depth": 1,
                                "id": 2,
                                "order": 2
                            },
                            {
                                "children": [],
                                "depth": 1,
                                "id": 3,
                                "order": 3
                            }
                        ],
                        "depth": 0,
                        "id": 0,
                        "order": 0
                    }
                ],
                "depth": -1,
                "id": -1,
                "order": -1
            }
        ],
        "mainTraceNodeCount": 4,
        "parentIdMap": {
            "0": -1,
            "1": 0,
            "2": 0,
            "3": 0
        },
        "tidyTrace": [
            {
                "children": [
                    {
                        "children": [
                            {
                                "children": [],
                                "depth": 1,
                                "id": 1,
                                "order": 1
                            },
                            {
                                "children": [],
                                "depth": 1,
                                "id": 2,
                                "order": 2
                            },
                            {
                                "children": [],
                                "depth": 1,
                                "id": 3,
                                "order": 3
                            }
                        ],
                        "depth": 0,
                        "id": 0,
                        "order": 0
                    }
                ],
                "depth": -1,
                "id": -1,
                "order": -1
            }
        ],
        "tidyTraceNodeCount": 4
    },
    "state_change": {
        "stateChanges": [
            {
                "address": "0x41306eb5fc11a68c284c19ba3b9510c0252e0a34",
                "erc": "",
                "slots": [
                    {
                        "current": "0x0000000000000062962518a4ed64000000000000000001f1addd174ef8280000",
                        "key": "0x000000000000000000000000000000000000000000000000000000000000000d",
                        "prev": "0x000000000000006282b74c0fcfd8000000000000000001f1c14ae3e415b40000"
                    },
                    {
                        "current": "0x000000000000000000000000000000000000000000000000000000002a333900",
                        "key": "0x7f25afaa0cefe856009d02e9b0b8601ac14c5852996bc7ca30c809b0c251167f",
                        "prev": "0x0000000000000000000000000000000000000000000000000000000029dd94e5"
                    },
                    {
                        "current": "0x0000000000000000000000000000000000000000000000000000000000000000",
                        "key": "0xd2ab602d60284591af903614c3ced2a4102f883de1ab27e7864feefe43858d23",
                        "prev": "0x000000000000000000000000000000000000000000000000000000002a333900"
                    },
                    {
                        "current": "0x0000000000000000000000000000000000000000000000000000000000000000",
                        "key": "0xd2ab602d60284591af903614c3ced2a4102f883de1ab27e7864feefe43858d26",
                        "prev": "0x000000000000000000000000000000000000000000000000000000002b5f24c9"
                    },
                    {
                        "current": "0x0000000000000000000000000000000000000000000000000000000000000000",
                        "key": "0xd2ab602d60284591af903614c3ced2a4102f883de1ab27e7864feefe43858d25",
                        "prev": "0x000000000000000000000000000000000000000000000000000000002a333900"
                    },
                    {
                        "current": "0x0000000000000000000000000000000000000000000000000000000000000000",
                        "key": "0xd2ab602d60284591af903614c3ced2a4102f883de1ab27e7864feefe43858d20",
                        "prev": "0x000000000000000000000000000000000000000000000000000000002b869da5"
                    },
                    {
                        "current": "0x0000000000000000000000000000000000000000000000000000000000000000",
                        "key": "0xa80a56d6868e3af3069ee72d1ba0706024bb9e5429cfe297a24e47b1bbba77ba",
                        "prev": "0x0000000000000000000000000000000000000000000000000000000000000008"
                    },
                    {
                        "current": "0x000000000000000000000000000000000000000000000000000000002a333900",
                        "key": "0x9be7e028fe992de4b78a947e010a567080b3efbc18d48b533a58524d974e9c25",
                        "prev": "0x000000000000000000000000000000000000000000000000000000002a3c9e34"
                    },
                    {
                        "current": "0x0000000000000000000000000000000000000000000000000000000000000000",
                        "key": "0xd2ab602d60284591af903614c3ced2a4102f883de1ab27e7864feefe43858d22",
                        "prev": "0x000000000000000000000000000000000000000000000000000000002b62279a"
                    },
                    {
                        "current": "0x0000000000000000000000000000000000000000000000000000000000000000",
                        "key": "0xd2ab602d60284591af903614c3ced2a4102f883de1ab27e7864feefe43858d27",
                        "prev": "0x000000000000000000000000000000000000000000000000000000002a333900"
                    },
                    {
                        "current": "0x0000000000000000000000000000000000000000000000000000000000000000",
                        "key": "0xa80a56d6868e3af3069ee72d1ba0706024bb9e5429cfe297a24e47b1bbba77bb",
                        "prev": "0x000000000000000000000000136dcc951d8c00000002a3000000000500000009"
                    },
                    {
                        "current": "0x00000d3200000d33ffffffff000000010000000000000014301692f0b3780000",
                        "key": "0x7f25afaa0cefe856009d02e9b0b8601ac14c5852996bc7ca30c809b0c251167e",
                        "prev": "0x00000d3200000d32ffffffff0000000100000000000000141ca8c65b95ec0000"
                    },
                    {
                        "current": "0x0000000000000000000000000000000000000000000000000000000000000000",
                        "key": "0xd2ab602d60284591af903614c3ced2a4102f883de1ab27e7864feefe43858d21",
                        "prev": "0x000000000000000000000000000000000000000000000000000000002a32b2dc"
                    },
                    {
                        "current": "0x0000000000000000000000000000000000000000000000000000000000000000",
                        "key": "0xd2ab602d60284591af903614c3ced2a4102f883de1ab27e7864feefe43858d24",
                        "prev": "0x000000000000000000000000000000000000000000000000000000002a460368"
                    }
                ],
                "storageVariables": [
                    {
                        "name": "recordedFunds",
                        "type": "struct FluxAggregator.Funds",
                        "value": {
                            "fields": [
                                {
                                    "name": "available",
                                    "type": "uint128",
                                    "value": {
                                        "current": "9180560000000000000000",
                                        "prev": "9181960000000000000000",
                                        "typeTag": 1
                                    }
                                },
                                {
                                    "name": "allocated",
                                    "type": "uint128",
                                    "value": {
                                        "current": "1818600000000000000000",
                                        "prev": "1817200000000000000000",
                                        "typeTag": 1
                                    }
                                }
                            ],
                            "typeTag": 3
                        }
                    },
                    {
                        "name": "details",
                        "type": "mapping(uint32 => struct FluxAggregator.RoundDetails)",
                        "value": {
                            "pairs": [
                                {
                                    "key": "3379",
                                    "value": {
                                        "fields": [
                                            {
                                                "name": "maxSubmissions",
                                                "type": "uint32",
                                                "value": {
                                                    "current": "0",
                                                    "prev": "9",
                                                    "typeTag": 1
                                                }
                                            },
                                            {
                                                "name": "minSubmissions",
                                                "type": "uint32",
                                                "value": {
                                                    "current": "0",
                                                    "prev": "5",
                                                    "typeTag": 1
                                                }
                                            },
                                            {
                                                "name": "timeout",
                                                "type": "uint32",
                                                "value": {
                                                    "current": "0",
                                                    "prev": "172800",
                                                    "typeTag": 1
                                                }
                                            },
                                            {
                                                "name": "paymentAmount",
                                                "type": "uint128",
                                                "value": {
                                                    "current": "0",
                                                    "prev": "1400000000000000000",
                                                    "typeTag": 1
                                                }
                                            }
                                        ],
                                        "typeTag": 3
                                    }
                                }
                            ],
                            "typeTag": 4
                        }
                    },
                    {
                        "name": "oracles",
                        "type": "mapping(address => struct FluxAggregator.OracleStatus)",
                        "value": {
                            "pairs": [
                                {
                                    "key": "0xa932fb7cb35e7b47c7d2d6d8effed1ac5744f4fc",
                                    "value": {
                                        "fields": [
                                            {
                                                "name": "withdrawable",
                                                "type": "uint128",
                                                "value": {
                                                    "current": "372400000000000000000",
                                                    "prev": "371000000000000000000",
                                                    "typeTag": 1
                                                }
                                            },
                                            {
                                                "name": "startingRound",
                                                "type": "uint32",
                                                "value": {
                                                    "current": "1",
                                                    "prev": "1",
                                                    "typeTag": 1
                                                }
                                            },
                                            {
                                                "name": "endingRound",
                                                "type": "uint32",
                                                "value": {
                                                    "current": "4294967295",
                                                    "prev": "4294967295",
                                                    "typeTag": 1
                                                }
                                            },
                                            {
                                                "name": "lastReportedRound",
                                                "type": "uint32",
                                                "value": {
                                                    "current": "3379",
                                                    "prev": "3378",
                                                    "typeTag": 1
                                                }
                                            },
                                            {
                                                "name": "lastStartedRound",
                                                "type": "uint32",
                                                "value": {
                                                    "current": "3378",
                                                    "prev": "3378",
                                                    "typeTag": 1
                                                }
                                            },
                                            {
                                                "name": "latestSubmission",
                                                "type": "int256",
                                                "value": {
                                                    "current": "708000000",
                                                    "prev": "702387429",
                                                    "typeTag": 1
                                                }
                                            }
                                        ],
                                        "typeTag": 3
                                    }
                                }
                            ],
                            "typeTag": 4
                        }
                    },
                    {
                        "name": "rounds",
                        "type": "mapping(uint32 => struct FluxAggregator.Round)",
                        "value": {
                            "pairs": [
                                {
                                    "key": "3379",
                                    "value": {
                                        "fields": [
                                            {
                                                "name": "answer",
                                                "type": "int256",
                                                "value": {
                                                    "current": "708000000",
                                                    "prev": "708615732",
                                                    "typeTag": 1
                                                }
                                            }
                                        ],
                                        "typeTag": 3
                                    }
                                }
                            ],
                            "typeTag": 4
                        }
                    }
                ]
            }
        ]
    }
}