{
    "balance_change": {
        "balanceChanges": [
            {
                "account": "0x32a88f097056c773569abb6a3cf8d88228466e00",
                "assets": [
                    {
                        "address": "0x8243621ca1aebf78a6f7e11621cf2962205bdb5e",
                        "amount": "16.082044035",
                        "iconUrl": "",
                        "isERC1155": false,
                        "isERC721": false,
                        "sign": false,
                        "value": ""
                    }
                ]
            },
            {
                "account": "0x7c291eb2d2ec9a35dba0e2c395c5928cd7d90e51",
                "assets": [
                    {
                        "address": "0x8243621ca1aebf78a6f7e11621cf2962205bdb5e",
                        "amount": "16.082044035",
                        "iconUrl": "",
                        "isERC1155": false,
                        "isERC721": false,
                        "sign": true,
                        "value": ""
                    }
                ]
            }
        ]
    },
    "profile": {
        "basic_info": {
            "baseFee": "",
            "blockNumber": 10897559,
            "callData": "0xa9059cbb0000000000000000000000007c291eb2d2ec9a35dba0e2c395c5928cd7d90e5100000000000000000000000000000000000000000000000000000003be908483",
            "debugEnable": true,
            "errorInfo": "",
            "eventCount": 1,
            "feeRecipient": "0x84a0d77c693adabe0ebc48f88b3ffff010577051",
            "formatValue": "0",
            "gasLimit": 62959,
            "gasPrice": "110",
            "gasUsed": 62959,
            "intTxnCount": 0,
            "internalRevert": false,
            "internalRevertMessage": "",
            "isContractCreation": false,
            "isFlashloan": false,
            "maxFee": "",
            "nonce": 10898,
            "overwritedBlockNumber": -1,
            "priorityFee": "",
            "receiver": "0x8243621ca1aebf78a6f7e11621cf2962205bdb5e",
            "revertMessage": "",
            "sender": "0x32a88f097056c773569abb6a3cf8d88228466e00",
            "simulationEnable": true,
            "sourceTxnHash": "0xebb70e7ba97bbde705aae80763e9b95da72a1c087546c57e5f18faa2df8c4721",
            "status": true,
            "timestamp": "2020-09-20T06:27:51Z",
            "transactionFee": "0.00692549",
            "txnHash": "0xebb70e7ba97bbde705aae80763e9b95da72a1c087546c57e5f18faa2df8c4721",
            "txnIndex": 112,
            "type": 0,
            "value": "0"
        },
        "fund_flow": [
            {
                "amount": "16.082044035",
                "from": "0x32a88f097056c773569abb6a3cf8d88228466e00",
                "id": 1,
                "isERC1155": false,
                "isERC721": false,
                "isReverted": false,
                "order": 1,
                "to": "0x7c291eb2d2ec9a35dba0e2c395c5928cd7d90e51",
                "token": "0x8243621ca1aebf78a6f7e11621cf2962205bdb5e"
            }
        ],
        "token_infos": [
            {
                "address": "0xc02aaa39b223fe8d0a0e5c4f27ead9083c756cc2",
                "decimals": 18
            },
            {
                "address": "0xeeeeeeeeeeeeeeeeeeeeeeeeeeeeeeeeeeeeeeee",
                "decimals": 18
            },
            {
                "address": "0x8243621ca1aebf78a6f7e11621cf2962205bdb5e",
                "decimals": 9
            }
        ]
    },
    "address_label": {
        "labels": [
            {
                "address": "0x8243621ca1aebf78a6f7e11621cf2962205bdb5e",
                "label": "nuclear.finance (NCLR)"
            },
            {
                "address": "0x0000000000000000000000000000000000000001",
                "label": "Precompiled"
            },
            {
                "address": "0x0000000000000000000000000000000000000002",
                "label": "Precompiled"
            },
            {
                "address": "0x0000000000000000000000000000000000000003",
                "label": "Precompiled"
            },
            {
                "address": "0x0000000000000000000000000000000000000004",
                "label": "Precompiled"
            },
            {
                "address": "0xeeeeeeeeeeeeeeeeeeeeeeeeeeeeeeeeeeeeeeee",
                "label": "Ether"
            },
            {
                "address": "0x7c291eb2d2ec9a35dba0e2c395c5928cd7d90e51",
                "label": "COINBASE"
            }
        ]
    },
    "trace": {
        "accountLabels": null,
        "dataMap": {
            "-1": {
                "invocation": {
                    "address": "0x32a88f097056c773569abb6a3cf8d88228466e00",
                    "callData": "",
                    "decodedMethod": null,
                    "errorInfo": "",
                    "fromAddress": "",
                    "gasUsed": 0,
                    "id": -1,
                    "methodDecoded": false,
                    "operation": "",
                    "output": "",
                    "revert": false,
                    "revertMessage": "",
                    "selector": "",
                    "status": false,
                    "value": ""
                },
                "nodeType": 0
            },
            "0": {
                "invocation": {
                    "address": "0x8243621ca1aebf78a6f7e11621cf2962205bdb5e",
                    "callData": "0x0000000000000000000000007c291eb2d2ec9a35dba0e2c395c5928cd7d90e5100000000000000000000000000000000000000000000000000000003be908483",
                    "decodedMethod": {
                        "callParams": [
                            {
                                "name": "recipient",
                                "type": "address",
                                "value": "0x7c291eb2d2ec9a35dba0e2c395c5928cd7d90e51"
                            },
                            {
                                "decimalAvailable": true,
                                "name": "amount",
                                "type": "uint256",
                                "value": "16,082,044,035"
                            }
                        ],
                        "constructorArguments": "",
                        "name": "transfer",
                        "returnParams": [
                            {
                                "name": "",
                                "type": "bool",
                                "value": true
                            }
                        ],
                        "signature": "transfer(address,uint256)"
                    },
                    "errorInfo": "",
                    "fromAddress": "0x32a88f097056c773569abb6a3cf8d88228466e00",
                    "gasUsed": 62959,
                    "id": 0,
                    "methodDecoded": true,
                    "operation": "CALL",
                    "output": "0x0000000000000000000000000000000000000000000000000000000000000001",
                    "revert": false,
                    "revertMessage": "",
                    "selector": "0xa9059cbb",
                    "status": true,
                    "value": "0"
                },
                "nodeType": 0
            },
            "1": {
                "event": {
                    "contract": "0x8243621ca1aebf78a6f7e11621cf2962205bdb5e",
                    "decodedLog": {
                        "name": "Transfer",
                        "params": [
                            {
                                "name": "from",
                                "type": "address",
                                "value": "0x32a88f097056c773569abb6a3cf8d88228466e00"
                            },
                            {
                                "name": "to",
                                "type": "address",
                                "value": "0x7c291eb2d2ec9a35dba0e2c395c5928cd7d90e51"
                            },
                            {
                                "decimalAvailable": true,
                                "name": "value",
                                "type": "uint256",
                                "value": "16,082,044,035"
                            }
                        ],
                        "signature": "Transfer(address,address,uint256)"
                    },
                    "id": 1,
                    "logData": "0x00000000000000000000000000000000000000000000000000000003be908483",
                    "logDecoded": true,
                    "operation": "EVENT",
                    "revert": false,
                    "status": true,
                    "topics": [
                        "0xddf252ad1be2c89b69c2b068fc378daa952ba7f163c4a11628f55a4df523b3ef",
                        "0x00000000000000000000000032a88f097056c773569abb6a3cf8d88228466e00",
                        "0x0000000000000000000000007c291eb2d2ec9a35dba0e2c395c5928cd7d90e51"
                    ]
                },
                "nodeType": 1
            }
        },
        "gasFlame": [
            {
                "children": [
                    {
                        "children": [
                            {
                                "children": [],
                                "depth": 0,
                                "name": "Initial Gas",
                                "value": 21620
                            },
                            {
                                "children": [],
                                "depth": 0,
                                "name": "Executed Gas",
                                "value": 41339
                            }
                        ],
                        "depth": -1,
                        "name": "Actual Gas Used",
                        "value": 62959
                    },
                    {
                        "children": [],
                        "depth": -1,
                        "name": "Refunded Gas",
                        "value": 0
                    }
                ],
                "depth": -2,
                "name": "Total Gas",
                "value": 62959
            }
        ],
        "isConfirmed": true,
        "mainTrace": [
            {
                "children": [
                    {
                        "children": [
                            {
                                "children": [],
                                "depth": 1,
                                "id": 1,
                                "order": 1
                            }
                        ],
                        "depth": 0,
                        "id": 0,
                        "order": 0
                    }
                ],
                "depth": -1,
                "id": -1,
                "order": -1
            }
        ],
        "mainTraceNodeCount": 2,
        "parentIdMap": {
            "0": -1,
            "1": 0
        },
        "tidyTrace": [
            {
                "children": [
                    {
                        "children": [
                            {
                                "children": [],
                                "depth": 1,
                                "id": 1,
                                "order": 1
                            }
                        ],
                        "depth": 0,
                        "id": 0,
                        "order": 0
                    }
                ],
                "depth": -1,
                "id": -1,
                "order": -1
            }
        ],
        "tidyTraceNodeCount": 2
    },
    "state_change": {
        "stateChanges": [
            {
                "address": "0x8243621ca1aebf78a6f7e11621cf2962205bdb5e",
                "erc": "ERC-20",
                "slots": [
                    {
                        "current": "0x0013a929efd5cd5a928ebcbfb4f535e35f4cd104a5ea0d63a441f2b0b6d20bb1",
                        "key": "0xc2d030ec6e772c81a02f1fb9363f761d5e613d5512be9f428252226111bb5659",
                        "prev": "0x0000000000000000000000000000000000000000000000000000000000000000"
                    },
                    {
                        "current": "0x000000000000ed252bcfe072a6987d2b1c4f24c6f6ed61ba9d6a9d26488b704f",
                        "key": "0x03ccd201cffb8906e62e8882a6be728b98ef11110eb282a6bad64288254920bc",
                        "prev": "0x0013a929efd6ba7fbe5e9d325b8db30e7b9bf5cb9cd76f1e41ac8fd6ff5d7c00"
                    }
                ],
                "storageVariables": [
                    {
                        "name": "_partsOwned",
                        "type": "mapping(address => uint256)",
                        "value": {
                            "pairs": [
                                {
                                    "key": "0x32a88f097056c773569abb6a3cf8d88228466e00",
                                    "value": {
                                        "current": "381077643521159090346522547968115522287377739355022760826597455",
                                        "prev": "34737619979182155656244087766322976558394405798837581660209098470000000000",
                                        "typeTag": 1
                                    }
                                },
                                {
                                    "key": "0x7c291eb2d2ec9a35dba0e2c395c5928cd7d90e51",
                                    "value": {
                                        "current": "34737619978801078012722928675976454010426290276550203920854075709173402545",
                                        "prev": "0",
                                        "typeTag": 1
                                    }
                                }
                            ],
                            "typeTag": 4
                        }
                    }
                ]
            }
        ]
    }
}