{
    "balance_change": {
        "balanceChanges": [
            {
                "account": "0xa7650835f35c4997f93a9e3bb40bc6c0ba8d059d",
                "assets": [
                    {
                        "address": "0xeeeeeeeeeeeeeeeeeeeeeeeeeeeeeeeeeeeeeeee",
                        "amount": "0.1",
                        "iconUrl": "https://assets.blocksec.com/image/1663669189317-3.png",
                        "isERC1155": false,
                        "isERC721": false,
                        "sign": false,
                        "value": "381.31750999999999294"
                    },
                    {
                        "address": "0xeb2bde819a63db62c9f323b88a41e8892037dafe",
                        "amount": "43,835,341,624.233537897",
                        "iconUrl": "",
                        "isERC1155": false,
                        "isERC721": false,
                        "sign": true,
                        "value": "325.1434866"
                    }
                ]
            },
            {
                "account": "0x3328f7f4a1d1c57c35df56bbf0c9dcafca309c49",
                "assets": [
                    {
                        "address": "0xeeeeeeeeeeeeeeeeeeeeeeeeeeeeeeeeeeeeeeee",
                        "amount": "0.000497512437810946",
                        "iconUrl": "https://assets.blocksec.com/image/1663669189317-3.png",
                        "isERC1155": false,
                        "isERC721": false,
                        "sign": true,
                        "value": "1.8971020397592587449"
                    }
                ]
            },
            {
                "account": "0x9328e200c18fa77916a373ffd7dcbb0872fa6c60",
                "assets": [
                    {
                        "address": "0xeb2bde819a63db62c9f323b88a41e8892037dafe",
                        "amount": "43,835,341,624.233537897",
                        "iconUrl": "",
                        "isERC1155": false,
                        "isERC721": false,
                        "sign": false,
                        "value": "325.1434866"
                    },
                    {
                        "address": "0xc02aaa39b223fe8d0a0e5c4f27ead9083c756cc2",
                        "amount": "0.099502487562189054",
                        "iconUrl": "https://assets.blocksec.com/icon/f1cb2d02c471d545bbc7722daf3277fd852d98e63d118771af7047bd8256c516.png",
                        "isERC1155": false,
                        "isERC721": false,
                        "sign": true,
                        "value": "379.42040795185174898"
                    }
                ]
            },
            {
                "account": "0xc02aaa39b223fe8d0a0e5c4f27ead9083c756cc2",
                "assets": [
                    {
                        "address": "0xeeeeeeeeeeeeeeeeeeeeeeeeeeeeeeeeeeeeeeee",
                        "amount": "0.099502487562189054",
                        "iconUrl": "https://assets.blocksec.com/image/1663669189317-3.png",
                        "isERC1155": false,
                        "isERC721": false,
                        "sign": true,
                        "value": "379.42040795185174898"
                    },
                    {
                        "address": "0xc02aaa39b223fe8d0a0e5c4f27ead9083c756cc2",
                        "amount": "0.099502487562189054",
                        "iconUrl": "https://assets.blocksec.com/icon/f1cb2d02c471d545bbc7722daf3277fd852d98e63d118771af7047bd8256c516.png",
                        "isERC1155": false,
                        "isERC721": false,
                        "sign": false,
                        "value": "379.42040795185174898"
                    }
                ]
            }
        ]
    },
    "profile": {
        "basic_info": {
            "baseFee": "7.260290622",
            "blockNumber": 20037784,
            "callData": "0x0162e2d000000000000000000000000000000000000000000000000000000000000000e000000000000000000000000000000000000000000000000000000000000001600000000000000000000000007a250d5630b4cf539739df2c5dacb4c659f2488d0000000000000000000000000000000000000000000000000000000000000001000000000000000000000000000000000000000000000000000000000000005c00000000000000000000000000000000000000000000000000000000666296f3000000000000000000000000000000000000000000000000000000000000000500000000000000000000000000000000000000000000000000000000000000030000000000000000000000000000000000000000000000000000000000000000000000000000000000000000000000000000000000000000000000000000000000000000000000000000000000000000000000000000000000000000000000000000000000000000000000000000000000000000000000000000000000000002000000000000000000000000c02aaa39b223fe8d0a0e5c4f27ead9083c756cc2000000000000000000000000eb2bde819a63db62c9f323b88a41e8892037dafe",
            "debugEnable": true,
            "errorInfo": "",
            "eventCount": 7,
            "feeRecipient": "0xde0336765d7549fb555883eb6c85e8862b4fdc41",
            "formatValue": "0.1",
            "gasLimit": 509136,
            "gasPrice": "22.260290622",
            "gasUsed": 165055,
            "intTxnCount": 11,
            "internalRevert": false,
            "internalRevertMessage": "",
            "isContractCreation": false,
            "isFlashloan": false,
            "maxFee": "27.260290622",
            "nonce": 1181,
            "overwritedBlockNumber": -1,
            "priorityFee": "15",
            "receiver": "0x3328f7f4a1d1c57c35df56bbf0c9dcafca309c49",
            "revertMessage": "",
            "sender": "0xa7650835f35c4997f93a9e3bb40bc6c0ba8d059d",
            "simulationEnable": true,
            "sourceTxnHash": "0xebefe853284104acfca81b6ab4768097b36637202e70feb2f5d1efd507a5e05c",
            "status": true,
            "timestamp": "2024-06-07T05:13:23Z",
            "transactionFee": "0.00367417226861421",
            "txnHash": "0xebefe853284104acfca81b6ab4768097b36637202e70feb2f5d1efd507a5e05c",
            "txnIndex": 8,
            "type": 2,
            "value": "100000000000000000"
        },
        "fund_flow": [
            {
                "amount": "0.1",
                "from": "0xa7650835f35c4997f93a9e3bb40bc6c0ba8d059d",
                "id": 1,
                "isERC1155": false,
                "isERC721": false,
                "isReverted": false,
                "order": 1,
                "to": "0x3328f7f4a1d1c57c35df56bbf0c9dcafca309c49",
                "token": "0xeeeeeeeeeeeeeeeeeeeeeeeeeeeeeeeeeeeeeeee"
            },
            {
                "amount": "0.099502487562189054",
                "from": "0x3328f7f4a1d1c57c35df56bbf0c9dcafca309c49",
                "id": 2,
                "isERC1155": false,
                "isERC721": false,
                "isReverted": false,
                "order": 2,
                "to": "0xc02aaa39b223fe8d0a0e5c4f27ead9083c756cc2",
                "token": "0xeeeeeeeeeeeeeeeeeeeeeeeeeeeeeeeeeeeeeeee"
            },
            {
                "amount": "0.099502487562189054",
                "from": "0xc02aaa39b223fe8d0a0e5c4f27ead9083c756cc2",
                "id": 3,
                "isERC1155": false,
                "isERC721": false,
                "isReverted": false,
                "order": 3,
                "to": "0x3328f7f4a1d1c57c35df56bbf0c9dcafca309c49",
                "token": "0xc02aaa39b223fe8d0a0e5c4f27ead9083c756cc2"
            },
            {
                "amount": "0.099502487562189054",
                "from": "0x3328f7f4a1d1c57c35df56bbf0c9dcafca309c49",
                "id": 4,
                "isERC1155": false,
                "isERC721": false,
                "isReverted": false,
                "order": 4,
                "to": "0x9328e200c18fa77916a373ffd7dcbb0872fa6c60",
                "token": "0xc02aaa39b223fe8d0a0e5c4f27ead9083c756cc2"
            },
            {
                "amount": "43,835,341,624.233537897",
                "from": "0x9328e200c18fa77916a373ffd7dcbb0872fa6c60",
                "id": 5,
                "isERC1155": false,
                "isERC721": false,
                "isReverted": false,
                "order": 5,
                "to": "0xa7650835f35c4997f93a9e3bb40bc6c0ba8d059d",
                "token": "0xeb2bde819a63db62c9f323b88a41e8892037dafe"
            }
        ],
        "token_infos": [
            {
                "address": "0xeb2bde819a63db62c9f323b88a41e8892037dafe",
                "decimals": 9
            },
            {
                "address": "0xeeeeeeeeeeeeeeeeeeeeeeeeeeeeeeeeeeeeeeee",
                "decimals": 18
            },
            {
                "address": "0xc02aaa39b223fe8d0a0e5c4f27ead9083c756cc2",
                "decimals": 18
            }
        ]
    },
    "address_label": {
        "labels": [
            {
                "address": "0xeb2bde819a63db62c9f323b88a41e8892037dafe",
                "label": "DFV"
            },
            {
                "address": "0x0000000000000000000000000000000000000001",
                "label": "Precompiled"
            },
            {
                "address": "0x0000000000000000000000000000000000000004",
                "label": "Precompiled"
            },
            {
                "address": "0xeeeeeeeeeeeeeeeeeeeeeeeeeeeeeeeeeeeeeeee",
                "label": "Ether"
            },
            {
                "address": "0xc02aaa39b223fe8d0a0e5c4f27ead9083c756cc2",
                "label": "Wrapped Ether (WETH)"
            },
            {
                "address": "0x3328f7f4a1d1c57c35df56bbf0c9dcafca309c49",
                "label": "Banana Gun: Router 2"
            },
            {
                "address": "0x9328e200c18fa77916a373ffd7dcbb0872fa6c60",
                "label": "Uniswap V2: DFV 30"
            },
            {
                "address": "0x0000000000000000000000000000000000000002",
                "label": "Precompiled"
            },
            {
                "address": "0x0000000000000000000000000000000000000003",
                "label": "Precompiled"
            }
        ]
    },
    "trace": {
        "accountLabels": null,
        "dataMap": {
            "-1": {
                "invocation": {
                    "address": "0xa7650835f35c4997f93a9e3bb40bc6c0ba8d059d",
                    "callData": "",
                    "decodedMethod": null,
                    "errorInfo": "",
                    "fromAddress": "",
                    "gasUsed": 0,
                    "id": -1,
                    "methodDecoded": false,
                    "operation": "",
                    "output": "",
                    "revert": false,
                    "revertMessage": "",
                    "selector": "",
                    "status": false,
                    "value": ""
                },
                "nodeType": 0
            },
            "0": {
                "invocation": {
                    "address": "0x3328f7f4a1d1c57c35df56bbf0c9dcafca309c49",
                    "callData": "0x00000000000000000000000000000000000000000000000000000000000000e000000000000000000000000000000000000000000000000000000000000001600000000000000000000000007a250d5630b4cf539739df2c5dacb4c659f2488d0000000000000000000000000000000000000000000000000000000000000001000000000000000000000000000000000000000000000000000000000000005c00000000000000000000000000000000000000000000000000000000666296f3000000000000000000000000000000000000000000000000000000000000000500000000000000000000000000000000000000000000000000000000000000030000000000000000000000000000000000000000000000000000000000000000000000000000000000000000000000000000000000000000000000000000000000000000000000000000000000000000000000000000000000000000000000000000000000000000000000000000000000000000000000000000000000000002000000000000000000000000c02aaa39b223fe8d0a0e5c4f27ead9083c756cc2000000000000000000000000eb2bde819a63db62c9f323b88a41e8892037dafe",
                    "decodedMethod": null,
                    "errorInfo": "",
                    "fromAddress": "0xa7650835f35c4997f93a9e3bb40bc6c0ba8d059d",
                    "gasUsed": 165055,
                    "id": 0,
                    "methodDecoded": false,
                    "operation": "CALL",
                    "output": "",
                    "revert": false,
                    "revertMessage": "",
                    "selector": "0x0162e2d0",
                    "status": true,
                    "value": "0.1"
                },
                "nodeType": 0
            },
            "1": {
                "invocation": {
                    "address": "0x241423640f5bfd019f885e9b6b544145f96bd6cc",
                    "callData": "0x00000000000000000000000000000000000000000000000000000000000000e000000000000000000000000000000000000000000000000000000000000001600000000000000000000000007a250d5630b4cf539739df2c5dacb4c659f2488d0000000000000000000000000000000000000000000000000000000000000001000000000000000000000000000000000000000000000000000000000000005c00000000000000000000000000000000000000000000000000000000666296f3000000000000000000000000000000000000000000000000000000000000000500000000000000000000000000000000000000000000000000000000000000030000000000000000000000000000000000000000000000000000000000000000000000000000000000000000000000000000000000000000000000000000000000000000000000000000000000000000000000000000000000000000000000000000000000000000000000000000000000000000000000000000000000000002000000000000000000000000c02aaa39b223fe8d0a0e5c4f27ead9083c756cc2000000000000000000000000eb2bde819a63db62c9f323b88a41e8892037dafe",
                    "decodedMethod": null,
                    "errorInfo": "",
                    "fromAddress": "0x3328f7f4a1d1c57c35df56bbf0c9dcafca309c49",
                    "gasUsed": 156803,
                    "id": 1,
                    "methodDecoded": false,
                    "operation": "DELEGATECALL",
                    "output": "",
                    "revert": false,
                    "revertMessage": "",
                    "selector": "0x0162e2d0",
                    "status": true,
                    "value": "0.1"
                },
                "nodeType": 0
            },
            "10": {
                "invocation": {
                    "address": "0xeb2bde819a63db62c9f323b88a41e8892037dafe",
                    "callData": "0x000000000000000000000000a7650835f35c4997f93a9e3bb40bc6c0ba8d059d00000000000000000000000000000000000000000000000260566af52855b169",
                    "decodedMethod": {
                        "callParams": [
                            {
                                "name": "recipient",
                                "type": "address",
                                "value": "0xa7650835f35c4997f93a9e3bb40bc6c0ba8d059d"
                            },
                            {
                                "decimalAvailable": true,
                                "name": "amount",
                                "type": "uint256",
                                "value": "43,835,341,624,233,537,897"
                            }
                        ],
                        "constructorArguments": "",
                        "name": "transfer",
                        "returnParams": [
                            {
                                "name": "",
                                "type": "bool",
                                "value": true
                            }
                        ],
                        "signature": "transfer(address,uint256)"
                    },
                    "errorInfo": "",
                    "fromAddress": "0x9328e200c18fa77916a373ffd7dcbb0872fa6c60",
                    "gasUsed": 62010,
                    "id": 10,
                    "methodDecoded": true,
                    "operation": "CALL",
                    "output": "0x0000000000000000000000000000000000000000000000000000000000000001",
                    "revert": false,
                    "revertMessage": "",
                    "selector": "0xa9059cbb",
                    "status": true,
                    "value": "0"
                },
                "nodeType": 0
            },
            "11": {
                "event": {
                    "contract": "0xeb2bde819a63db62c9f323b88a41e8892037dafe",
                    "decodedLog": {
                        "name": "Transfer",
                        "params": [
                            {
                                "name": "from",
                                "type": "address",
                                "value": "0x9328e200c18fa77916a373ffd7dcbb0872fa6c60"
                            },
                            {
                                "name": "to",
                                "type": "address",
                                "value": "0xa7650835f35c4997f93a9e3bb40bc6c0ba8d059d"
                            },
                            {
                                "decimalAvailable": true,
                                "name": "value",
                                "type": "uint256",
                                "value": "43,835,341,624,233,537,897"
                            }
                        ],
                        "signature": "Transfer(address,address,uint256)"
                    },
                    "id": 11,
                    "logData": "0x00000000000000000000000000000000000000000000000260566af52855b169",
                    "logDecoded": true,
                    "operation": "EVENT",
                    "revert": false,
                    "status": true,
                    "topics": [
                        "0xddf252ad1be2c89b69c2b068fc378daa952ba7f163c4a11628f55a4df523b3ef",
                        "0x0000000000000000000000009328e200c18fa77916a373ffd7dcbb0872fa6c60",
                        "0x000000000000000000000000a7650835f35c4997f93a9e3bb40bc6c0ba8d059d"
                    ]
                },
                "nodeType": 1
            },
            "12": {
                "invocation": {
                    "address": "0xc02aaa39b223fe8d0a0e5c4f27ead9083c756cc2",
                    "callData": "0x0000000000000000000000009328e200c18fa77916a373ffd7dcbb0872fa6c60",
                    "decodedMethod": {
                        "callParams": [
                            {
                                "name": "",
                                "type": "address",
                                "value": "0x9328e200c18fa77916a373ffd7dcbb0872fa6c60"
                            }
                        ],
                        "constructorArguments": "",
                        "name": "balanceOf",
                        "returnParams": [
                            {
                                "decimalAvailable": true,
                                "name": "",
                                "type": "uint256",
                                "value": "31,091,955,110,819,803,473"
                            }
                        ],
                        "signature": "balanceOf(address)"
                    },
                    "errorInfo": "",
                    "fromAddress": "0x9328e200c18fa77916a373ffd7dcbb0872fa6c60",
                    "gasUsed": 534,
                    "id": 12,
                    "methodDecoded": true,
                    "operation": "STATICCALL",
                    "output": "0x000000000000000000000000000000000000000000000001af7cd070e8ce3151",
                    "revert": false,
                    "revertMessage": "",
                    "selector": "0x70a08231",
                    "status": true,
                    "value": "0"
                },
                "nodeType": 0
            },
            "13": {
                "invocation": {
                    "address": "0xeb2bde819a63db62c9f323b88a41e8892037dafe",
                    "callData": "0x0000000000000000000000009328e200c18fa77916a373ffd7dcbb0872fa6c60",
                    "decodedMethod": {
                        "callParams": [
                            {
                                "name": "account",
                                "type": "address",
                                "value": "0x9328e200c18fa77916a373ffd7dcbb0872fa6c60"
                            }
                        ],
                        "constructorArguments": "",
                        "name": "balanceOf",
                        "returnParams": [
                            {
                                "decimalAvailable": true,
                                "name": "",
                                "type": "uint256",
                                "value": "13,694,659,701,664,365,797,718"
                            }
                        ],
                        "signature": "balanceOf(address)"
                    },
                    "errorInfo": "",
                    "fromAddress": "0x9328e200c18fa77916a373ffd7dcbb0872fa6c60",
                    "gasUsed": 551,
                    "id": 13,
                    "methodDecoded": true,
                    "operation": "STATICCALL",
                    "output": "0x0000000000000000000000000000000000000000000002e66394d93f3979e156",
                    "revert": false,
                    "revertMessage": "",
                    "selector": "0x70a08231",
                    "status": true,
                    "value": "0"
                },
                "nodeType": 0
            },
            "14": {
                "event": {
                    "contract": "0x9328e200c18fa77916a373ffd7dcbb0872fa6c60",
                    "decodedLog": {
                        "name": "Sync",
                        "params": [
                            {
                                "name": "reserve0",
                                "type": "uint112",
                                "value": "31,091,955,110,819,803,473"
                            },
                            {
                                "name": "reserve1",
                                "type": "uint112",
                                "value": "13,694,659,701,664,365,797,718"
                            }
                        ],
                        "signature": "Sync(uint112,uint112)"
                    },
                    "id": 14,
                    "logData": "0x000000000000000000000000000000000000000000000001af7cd070e8ce31510000000000000000000000000000000000000000000002e66394d93f3979e156",
                    "logDecoded": true,
                    "operation": "EVENT",
                    "revert": false,
                    "status": true,
                    "topics": [
                        "0x1c411e9a96e071241c2f21f7726b17ae89e3cab4c78be50e062b03a9fffbbad1"
                    ]
                },
                "nodeType": 1
            },
            "15": {
                "event": {
                    "contract": "0x9328e200c18fa77916a373ffd7dcbb0872fa6c60",
                    "decodedLog": {
                        "name": "Swap",
                        "params": [
                            {
                                "name": "sender",
                                "type": "address",
                                "value": "0x3328f7f4a1d1c57c35df56bbf0c9dcafca309c49"
                            },
                            {
                                "name": "to",
                                "type": "address",
                                "value": "0xa7650835f35c4997f93a9e3bb40bc6c0ba8d059d"
                            },
                            {
                                "name": "amount0In",
                                "type": "uint256",
                                "value": "99,502,487,562,189,054"
                            },
                            {
                                "name": "amount1In",
                                "type": "uint256",
                                "value": "0"
                            },
                            {
                                "name": "amount0Out",
                                "type": "uint256",
                                "value": "0"
                            },
                            {
                                "name": "amount1Out",
                                "type": "uint256",
                                "value": "43,835,341,624,233,537,897"
                            }
                        ],
                        "signature": "Swap(address,uint256,uint256,uint256,uint256,address)"
                    },
                    "id": 15,
                    "logData": "0x000000000000000000000000000000000000000000000000016180fc396978fe0000000000000000000000000000000000000000000000000000000000000000000000000000000000000000000000000000000000000000000000000000000000000000000000000000000000000000000000000000000260566af52855b169",
                    "logDecoded": true,
                    "operation": "EVENT",
                    "revert": false,
                    "status": true,
                    "topics": [
                        "0xd78ad95fa46c994b6551d0da85fc275fe613ce37657fb8d5e3d130840159d822",
                        "0x0000000000000000000000003328f7f4a1d1c57c35df56bbf0c9dcafca309c49",
                        "0x000000000000000000000000a7650835f35c4997f93a9e3bb40bc6c0ba8d059d"
                    ]
                },
                "nodeType": 1
            },
            "16": {
                "invocation": {
                    "address": "0xeb2bde819a63db62c9f323b88a41e8892037dafe",
                    "callData": "0x000000000000000000000000a7650835f35c4997f93a9e3bb40bc6c0ba8d059d",
                    "decodedMethod": {
                        "callParams": [
                            {
                                "name": "account",
                                "type": "address",
                                "value": "0xa7650835f35c4997f93a9e3bb40bc6c0ba8d059d"
                            }
                        ],
                        "constructorArguments": "",
                        "name": "balanceOf",
                        "returnParams": [
                            {
                                "decimalAvailable": true,
                                "name": "",
                                "type": "uint256",
                                "value": "43,835,341,624,233,537,897"
                            }
                        ],
                        "signature": "balanceOf(address)"
                    },
                    "errorInfo": "",
                    "fromAddress": "0x3328f7f4a1d1c57c35df56bbf0c9dcafca309c49",
                    "gasUsed": 551,
                    "id": 16,
                    "methodDecoded": true,
                    "operation": "STATICCALL",
                    "output": "0x00000000000000000000000000000000000000000000000260566af52855b169",
                    "revert": false,
                    "revertMessage": "",
                    "selector": "0x70a08231",
                    "status": true,
                    "value": "0"
                },
                "nodeType": 0
            },
            "17": {
                "event": {
                    "contract": "0x3328f7f4a1d1c57c35df56bbf0c9dcafca309c49",
                    "decodedLog": null,
                    "id": 17,
                    "logData": "0x0000000000000000000000000000000000000000000000000001c47c24208701000000000000000000000000a7650835f35c4997f93a9e3bb40bc6c0ba8d059d000000000000000000000000000000000000000000000000000000000000005c",
                    "logDecoded": false,
                    "operation": "EVENT",
                    "revert": false,
                    "status": true,
                    "topics": [
                        "0x72015ace03712f361249380657b3d40777dd8f8a686664cab48afd9dbbe4499f"
                    ]
                },
                "nodeType": 1
            },
            "18": {
                "event": {
                    "contract": "0x3328f7f4a1d1c57c35df56bbf0c9dcafca309c49",
                    "decodedLog": null,
                    "id": 18,
                    "logData": "0x000000000000000000000000000000000000000000000000016180fc396978fe00000000000000000000000000000000000000000000000260566af52855b16900000000000000000000000000000000000000000000000260566af52855b169",
                    "logDecoded": false,
                    "operation": "EVENT",
                    "revert": false,
                    "status": true,
                    "topics": [
                        "0x9f849d23f4955d98202378ea318f2b0c7533695d3c9fb2a3931f0f919fa8c420"
                    ]
                },
                "nodeType": 1
            },
            "2": {
                "invocation": {
                    "address": "0xeb2bde819a63db62c9f323b88a41e8892037dafe",
                    "callData": "0x000000000000000000000000a7650835f35c4997f93a9e3bb40bc6c0ba8d059d",
                    "decodedMethod": {
                        "callParams": [
                            {
                                "name": "account",
                                "type": "address",
                                "value": "0xa7650835f35c4997f93a9e3bb40bc6c0ba8d059d"
                            }
                        ],
                        "constructorArguments": "",
                        "name": "balanceOf",
                        "returnParams": [
                            {
                                "decimalAvailable": true,
                                "name": "",
                                "type": "uint256",
                                "value": "0"
                            }
                        ],
                        "signature": "balanceOf(address)"
                    },
                    "errorInfo": "",
                    "fromAddress": "0x3328f7f4a1d1c57c35df56bbf0c9dcafca309c49",
                    "gasUsed": 2551,
                    "id": 2,
                    "methodDecoded": true,
                    "operation": "STATICCALL",
                    "output": "0x0000000000000000000000000000000000000000000000000000000000000000",
                    "revert": false,
                    "revertMessage": "",
                    "selector": "0x70a08231",
                    "status": true,
                    "value": "0"
                },
                "nodeType": 0
            },
            "3": {
                "invocation": {
                    "address": "0xc02aaa39b223fe8d0a0e5c4f27ead9083c756cc2",
                    "callData": "0x",
                    "decodedMethod": {
                        "callParams": [],
                        "constructorArguments": "",
                        "name": "deposit",
                        "returnParams": [],
                        "signature": "deposit()"
                    },
                    "errorInfo": "",
                    "fromAddress": "0x3328f7f4a1d1c57c35df56bbf0c9dcafca309c49",
                    "gasUsed": 23974,
                    "id": 3,
                    "methodDecoded": true,
                    "operation": "CALL",
                    "output": "",
                    "revert": false,
                    "revertMessage": "",
                    "selector": "0xd0e30db0",
                    "status": true,
                    "value": "0.099502487562189054"
                },
                "nodeType": 0
            },
            "4": {
                "event": {
                    "contract": "0xc02aaa39b223fe8d0a0e5c4f27ead9083c756cc2",
                    "decodedLog": {
                        "name": "Deposit",
                        "params": [
                            {
                                "name": "dst",
                                "type": "address",
                                "value": "0x3328f7f4a1d1c57c35df56bbf0c9dcafca309c49"
                            },
                            {
                                "name": "wad",
                                "type": "uint256",
                                "value": "99,502,487,562,189,054"
                            }
                        ],
                        "signature": "Deposit(address,uint256)"
                    },
                    "id": 4,
                    "logData": "0x000000000000000000000000000000000000000000000000016180fc396978fe",
                    "logDecoded": true,
                    "operation": "EVENT",
                    "revert": false,
                    "status": true,
                    "topics": [
                        "0xe1fffcc4923d04b559f4d29a8bfc6cda04eb5b0d3c460751c2402c5c5cc9109c",
                        "0x0000000000000000000000003328f7f4a1d1c57c35df56bbf0c9dcafca309c49"
                    ]
                },
                "nodeType": 1
            },
            "5": {
                "invocation": {
                    "address": "0xc02aaa39b223fe8d0a0e5c4f27ead9083c756cc2",
                    "callData": "0x0000000000000000000000009328e200c18fa77916a373ffd7dcbb0872fa6c60000000000000000000000000000000000000000000000000016180fc396978fe",
                    "decodedMethod": {
                        "callParams": [
                            {
                                "name": "dst",
                                "type": "address",
                                "value": "0x9328e200c18fa77916a373ffd7dcbb0872fa6c60"
                            },
                            {
                                "decimalAvailable": true,
                                "name": "wad",
                                "type": "uint256",
                                "value": "99,502,487,562,189,054"
                            }
                        ],
                        "constructorArguments": "",
                        "name": "transfer",
                        "returnParams": [
                            {
                                "name": "",
                                "type": "bool",
                                "value": true
                            }
                        ],
                        "signature": "transfer(address,uint256)"
                    },
                    "errorInfo": "",
                    "fromAddress": "0x3328f7f4a1d1c57c35df56bbf0c9dcafca309c49",
                    "gasUsed": 8062,
                    "id": 5,
                    "methodDecoded": true,
                    "operation": "CALL",
                    "output": "0x0000000000000000000000000000000000000000000000000000000000000001",
                    "revert": false,
                    "revertMessage": "",
                    "selector": "0xa9059cbb",
                    "status": true,
                    "value": "0"
                },
                "nodeType": 0
            },
            "6": {
                "event": {
                    "contract": "0xc02aaa39b223fe8d0a0e5c4f27ead9083c756cc2",
                    "decodedLog": {
                        "name": "Transfer",
                        "params": [
                            {
                                "name": "src",
                                "type": "address",
                                "value": "0x3328f7f4a1d1c57c35df56bbf0c9dcafca309c49"
                            },
                            {
                                "name": "dst",
                                "type": "address",
                                "value": "0x9328e200c18fa77916a373ffd7dcbb0872fa6c60"
                            },
                            {
                                "decimalAvailable": true,
                                "name": "wad",
                                "type": "uint256",
                                "value": "99,502,487,562,189,054"
                            }
                        ],
                        "signature": "Transfer(address,address,uint256)"
                    },
                    "id": 6,
                    "logData": "0x000000000000000000000000000000000000000000000000016180fc396978fe",
                    "logDecoded": true,
                    "operation": "EVENT",
                    "revert": false,
                    "status": true,
                    "topics": [
                        "0xddf252ad1be2c89b69c2b068fc378daa952ba7f163c4a11628f55a4df523b3ef",
                        "0x0000000000000000000000003328f7f4a1d1c57c35df56bbf0c9dcafca309c49",
                        "0x0000000000000000000000009328e200c18fa77916a373ffd7dcbb0872fa6c60"
                    ]
                },
                "nodeType": 1
            },
            "7": {
                "invocation": {
                    "address": "0x9328e200c18fa77916a373ffd7dcbb0872fa6c60",
                    "callData": "0x",
                    "decodedMethod": {
                        "callParams": [],
                        "constructorArguments": "",
                        "name": "getReserves",
                        "returnParams": [
                            {
                                "name": "_reserve0",
                                "type": "uint112",
                                "value": "30,992,452,623,257,614,419"
                            },
                            {
                                "name": "_reserve1",
                                "type": "uint112",
                                "value": "13,738,495,043,288,599,335,615"
                            },
                            {
                                "name": "_blockTimestampLast",
                                "type": "uint32",
                                "value": "1,717,737,203"
                            }
                        ],
                        "signature": "getReserves()"
                    },
                    "errorInfo": "",
                    "fromAddress": "0x3328f7f4a1d1c57c35df56bbf0c9dcafca309c49",
                    "gasUsed": 2504,
                    "id": 7,
                    "methodDecoded": true,
                    "operation": "STATICCALL",
                    "output": "0x000000000000000000000000000000000000000000000001ae1b4f74af64b8530000000000000000000000000000000000000000000002e8c3eb443461cf92bf00000000000000000000000000000000000000000000000000000000666296f3",
                    "revert": false,
                    "revertMessage": "",
                    "selector": "0x0902f1ac",
                    "status": true,
                    "value": "0"
                },
                "nodeType": 0
            },
            "8": {
                "invocation": {
                    "address": "0xc02aaa39b223fe8d0a0e5c4f27ead9083c756cc2",
                    "callData": "0x0000000000000000000000009328e200c18fa77916a373ffd7dcbb0872fa6c60",
                    "decodedMethod": {
                        "callParams": [
                            {
                                "name": "",
                                "type": "address",
                                "value": "0x9328e200c18fa77916a373ffd7dcbb0872fa6c60"
                            }
                        ],
                        "constructorArguments": "",
                        "name": "balanceOf",
                        "returnParams": [
                            {
                                "decimalAvailable": true,
                                "name": "",
                                "type": "uint256",
                                "value": "31,091,955,110,819,803,473"
                            }
                        ],
                        "signature": "balanceOf(address)"
                    },
                    "errorInfo": "",
                    "fromAddress": "0x3328f7f4a1d1c57c35df56bbf0c9dcafca309c49",
                    "gasUsed": 534,
                    "id": 8,
                    "methodDecoded": true,
                    "operation": "STATICCALL",
                    "output": "0x000000000000000000000000000000000000000000000001af7cd070e8ce3151",
                    "revert": false,
                    "revertMessage": "",
                    "selector": "0x70a08231",
                    "status": true,
                    "value": "0"
                },
                "nodeType": 0
            },
            "9": {
                "invocation": {
                    "address": "0x9328e200c18fa77916a373ffd7dcbb0872fa6c60",
                    "callData": "0x000000000000000000000000000000000000000000000000000000000000000000000000000000000000000000000000000000000000000260566af52855b169000000000000000000000000a7650835f35c4997f93a9e3bb40bc6c0ba8d059d00000000000000000000000000000000000000000000000000000000000000800000000000000000000000000000000000000000000000000000000000000000",
                    "decodedMethod": {
                        "callParams": [
                            {
                                "name": "amount0Out",
                                "type": "uint256",
                                "value": "0"
                            },
                            {
                                "name": "amount1Out",
                                "type": "uint256",
                                "value": "43,835,341,624,233,537,897"
                            },
                            {
                                "name": "to",
                                "type": "address",
                                "value": "0xa7650835f35c4997f93a9e3bb40bc6c0ba8d059d"
                            },
                            {
                                "name": "data",
                                "type": "bytes",
                                "value": "0x"
                            }
                        ],
                        "constructorArguments": "",
                        "name": "swap",
                        "returnParams": [],
                        "signature": "swap(uint256,uint256,address,bytes)"
                    },
                    "errorInfo": "",
                    "fromAddress": "0x3328f7f4a1d1c57c35df56bbf0c9dcafca309c49",
                    "gasUsed": 84002,
                    "id": 9,
                    "methodDecoded": true,
                    "operation": "CALL",
                    "output": "",
                    "revert": false,
                    "revertMessage": "",
                    "selector": "0x022c0d9f",
                    "status": true,
                    "value": "0"
                },
                "nodeType": 0
            }
        },
        "gasFlame": [
            {
                "children": [
                    {
                        "children": [
                            {
                                "children": [],
                                "depth": 0,
                                "name": "Initial Gas",
                                "value": 23720
                            },
                            {
                                "children": [
                                    {
                                        "children": [
                                            {
                                                "children": [],
                                                "depth": 2,
                                                "name": "balanceOf",
                                                "value": 2551
                                            },
                                            {
                                                "children": [],
                                                "depth": 2,
                                                "name": "deposit",
                                                "value": 23974
                                            },
                                            {
                                                "children": [],
                                                "depth": 2,
                                                "name": "transfer",
                                                "value": 8062
                                            },
                                            {
                                                "children": [],
                                                "depth": 2,
                                                "name": "getReserves",
                                                "value": 2504
                                            },
                                            {
                                                "children": [],
                                                "depth": 2,
                                                "name": "balanceOf",
                                                "value": 534
                                            },
                                            {
                                                "children": [
                                                    {
                                                        "children": [],
                                                        "depth": 3,
                                                        "name": "transfer",
                                                        "value": 62010
                                                    },
                                                    {
                                                        "children": [],
                                                        "depth": 3,
                                                        "name": "balanceOf",
                                                        "value": 534
                                                    },
                                                    {
                                                        "children": [],
                                                        "depth": 3,
                                                        "name": "balanceOf",
                                                        "value": 551
                                                    }
                                                ],
                                                "depth": 2,
                                                "name": "swap",
                                                "value": 84002
                                            },
                                            {
                                                "children": [],
                                                "depth": 2,
                                                "name": "balanceOf",
                                                "value": 551
                                            }
                                        ],
                                        "depth": 1,
                                        "name": "0x0162e2d0",
                                        "value": 156803
                                    }
                                ],
                                "depth": 0,
                                "name": "Executed Gas",
                                "value": 164035
                            }
                        ],
                        "depth": -1,
                        "name": "Actual Gas Used",
                        "value": 165055
                    },
                    {
                        "children": [],
                        "depth": -1,
                        "name": "Refunded Gas",
                        "value": 22700
                    }
                ],
                "depth": -2,
                "name": "Total Gas",
                "value": 187755
            }
        ],
        "isConfirmed": true,
        "mainTrace": [
            {
                "children": [
                    {
                        "children": [
                            {
                                "children": [
                                    {
                                        "children": [],
                                        "depth": 2,
                                        "id": 2,
                                        "order": 2
                                    },
                                    {
                                        "children": [
                                            {
                                                "children": [],
                                                "depth": 3,
                                                "id": 4,
                                                "order": 4
                                            }
                                        ],
                                        "depth": 2,
                                        "id": 3,
                                        "order": 3
                                    },
                                    {
                                        "children": [
                                            {
                                                "children": [],
                                                "depth": 3,
                                                "id": 6,
                                                "order": 6
                                            }
                                        ],
                                        "depth": 2,
                                        "id": 5,
                                        "order": 5
                                    },
                                    {
                                        "children": [],
                                        "depth": 2,
                                        "id": 7,
                                        "order": 7
                                    },
                                    {
                                        "children": [],
                                        "depth": 2,
                                        "id": 8,
                                        "order": 8
                                    },
                                    {
                                        "children": [
                                            {
                                                "children": [
                                                    {
                                                        "children": [],
                                                        "depth": 4,
                                                        "id": 11,
                                                        "order": 11
                                                    }
                                                ],
                                                "depth": 3,
                                                "id": 10,
                                                "order": 10
                                            },
                                            {
                                                "children": [],
                                                "depth": 3,
                                                "id": 12,
                                                "order": 12
                                            },
                                            {
                                                "children": [],
                                                "depth": 3,
                                                "id": 13,
                                                "order": 13
                                            },
                                            {
                                                "children": [],
                                                "depth": 3,
                                                "id": 14,
                                                "order": 14
                                            },
                                            {
                                                "children": [],
                                                "depth": 3,
                                                "id": 15,
                                                "order": 15
                                            }
                                        ],
                                        "depth": 2,
                                        "id": 9,
                                        "order": 9
                                    },
                                    {
                                        "children": [],
                                        "depth": 2,
                                        "id": 16,
                                        "order": 16
                                    },
                                    {
                                        "children": [],
                                        "depth": 2,
                                        "id": 17,
                                        "order": 17
                                    },
                                    {
                                        "children": [],
                                        "depth": 2,
                                        "id": 18,
                                        "order": 18
                                    }
                                ],
                                "depth": 1,
                                "id": 1,
                                "order": 1
                            }
                        ],
                        "depth": 0,
                        "id": 0,
                        "order": 0
                    }
                ],
                "depth": -1,
                "id": -1,
                "order": -1
            }
        ],
        "mainTraceNodeCount": 19,
        "parentIdMap": {
            "0": -1,
            "1": 0,
            "10": 9,
            "11": 10,
            "12": 9,
            "13": 9,
            "14": 9,
            "15": 9,
            "16": 1,
            "17": 1,
            "18": 1,
            "2": 1,
            "3": 1,
            "4": 3,
            "5": 1,
            "6": 5,
            "7": 1,
            "8": 1,
            "9": 1
        },
        "tidyTrace": [
            {
                "children": [
                    {
                        "children": [
                            {
                                "children": [
                                    {
                                        "children": [
                                            {
                                                "children": [],
                                                "depth": 3,
                                                "id": 4,
                                                "order": 4
                                            }
                                        ],
                                        "depth": 2,
                                        "id": 3,
                                        "order": 3
                                    },
                                    {
                                        "children": [
                                            {
                                                "children": [],
                                                "depth": 3,
                                                "id": 6,
                                                "order": 6
                                            }
                                        ],
                                        "depth": 2,
                                        "id": 5,
                                        "order": 5
                                    },
                                    {
                                        "children": [
                                            {
                                                "children": [
                                                    {
                                                        "children": [],
                                                        "depth": 4,
                                                        "id": 11,
                                                        "order": 11
                                                    }
                                                ],
                                                "depth": 3,
                                                "id": 10,
                                                "order": 10
                                            },
                                            {
                                                "children": [],
                                                "depth": 3,
                                                "id": 14,
                                                "order": 14
                                            },
                                            {
                                                "children": [],
                                                "depth": 3,
                                                "id": 15,
                                                "order": 15
                                            }
                                        ],
                                        "depth": 2,
                                        "id": 9,
                                        "order": 9
                                    },
                                    {
                                        "children": [],
                                        "depth": 2,
                                        "id": 17,
                                        "order": 17
                                    },
                                    {
                                        "children": [],
                                        "depth": 2,
                                        "id": 18,
                                        "order": 18
                                    }
                                ],
                                "depth": 1,
                                "id": 1,
                                "order": 1
                            }
                        ],
                        "depth": 0,
                        "id": 0,
                        "order": 0
                    }
                ],
                "depth": -1,
                "id": -1,
                "order": -1
            }
        ],
        "tidyTraceNodeCount": 13
    },
    "state_change": {
        "stateChanges": [
            {
                "address": "0x3328f7f4a1d1c57c35df56bbf0c9dcafca309c49",
                "erc": "",
                "slots": [
                    {
                        "current": "0x00000000000000000000000000000000000000000000000067116e507a412d14",
                        "key": "0x0000000000000000000000000000000000000000000000000000000000000001",
                        "prev": "0x000000000000000000000000000000000000000000000000670fa9d45620a613"
                    }
                ],
                "storageVariables": []
            },
            {
                "address": "0x9328e200c18fa77916a373ffd7dcbb0872fa6c60",
                "erc": "ERC-20",
                "slots": [
                    {
                        "current": "0x666296f30000000002e66394d93f3979e156000000000001af7cd070e8ce3151",
                        "key": "0x0000000000000000000000000000000000000000000000000000000000000008",
                        "prev": "0x666296f30000000002e8c3eb443461cf92bf000000000001ae1b4f74af64b853"
                    }
                ],
                "storageVariables": [
                    {
                        "name": "reserve0",
                        "type": "uint112",
                        "value": {
                            "current": "31091955110819803473",
                            "prev": "30992452623257614419",
                            "typeTag": 1
                        }
                    },
                    {
                        "name": "reserve1",
                        "type": "uint112",
                        "value": {
                            "current": "13694659701664365797718",
                            "prev": "13738495043288599335615",
                            "typeTag": 1
                        }
                    },
                    {
                        "name": "blockTimestampLast",
                        "type": "uint32",
                        "value": {
                            "current": "1717737203",
                            "prev": "1717737203",
                            "typeTag": 1
                        }
                    }
                ]
            },
            {
                "address": "0xc02aaa39b223fe8d0a0e5c4f27ead9083c756cc2",
                "erc": "ERC-20",
                "slots": [
                    {
                        "current": "0x000000000000000000000000000000000000000000000001af7cd070e8ce3151",
                        "key": "0x9629cfa7c9131bdc5f373857db24f6174f740316036675e8c06f9dea708d8ca6",
                        "prev": "0x000000000000000000000000000000000000000000000001ae1b4f74af64b853"
                    }
                ],
                "storageVariables": [
                    {
                        "name": "balanceOf",
                        "type": "mapping(address => uint256)",
                        "value": {
                            "pairs": [
                                {
                                    "key": "0x9328e200c18fa77916a373ffd7dcbb0872fa6c60",
                                    "value": {
                                        "current": "31091955110819803473",
                                        "prev": "30992452623257614419",
                                        "typeTag": 1
                                    }
                                }
                            ],
                            "typeTag": 4
                        }
                    }
                ]
            },
            {
                "address": "0xeb2bde819a63db62c9f323b88a41e8892037dafe",
                "erc": "ERC-20",
                "slots": [
                    {
                        "current": "0x00000000000000000000000000000000000000000000000000000000000007a0",
                        "key": "0x000000000000000000000000000000000000000000000000000000000000000e",
                        "prev": "0x000000000000000000000000000000000000000000000000000000000000079f"
                    },
                    {
                        "current": "0x0000000000000000000000000000000000000000000002e66394d93f3979e156",
                        "key": "0x6ea8b443624da47523066b7457cba15470b782af31281eba18307751c4095110",
                        "prev": "0x0000000000000000000000000000000000000000000002e8c3eb443461cf92bf"
                    },
                    {
                        "current": "0x00000000000000000000000000000000000000000000000260566af52855b169",
                        "key": "0x237e981576543393fb626406e27196aa8aa388eef7318b6aee0327b05c0307be",
                        "prev": "0x0000000000000000000000000000000000000000000000000000000000000000"
                    }
                ],
                "storageVariables": [
                    {
                        "name": "_balances",
                        "type": "mapping(address => uint256)",
                        "value": {
                            "pairs": [
                                {
                                    "key": "0x9328e200c18fa77916a373ffd7dcbb0872fa6c60",
                                    "value": {
                                        "current": "13694659701664365797718",
                                        "prev": "13738495043288599335615",
                                        "typeTag": 1
                                    }
                                },
                                {
                                    "key": "0xa7650835f35c4997f93a9e3bb40bc6c0ba8d059d",
                                    "value": {
                                        "current": "43835341624233537897",
                                        "prev": "0",
                                        "typeTag": 1
                                    }
                                }
                            ],
                            "typeTag": 4
                        }
                    },
                    {
                        "name": "_buyCount",
                        "type": "uint256",
                        "value": {
                            "current": "1952",
                            "prev": "1951",
                            "typeTag": 1
                        }
                    }
                ]
            }
        ]
    }
}