{
    "balance_change": {
        "balanceChanges": []
    },
    "profile": {
        "basic_info": {
            "baseFee": "",
            "blockNumber": 11365090,
            "callData": "0x202ee0ed00000000000000000000000000000000000000000000000000000000000006a70000000000000000000000000000000000000000000000000000000211289d22",
            "debugEnable": true,
            "errorInfo": "",
            "eventCount": 2,
            "feeRecipient": "0x1ad91ee08f21be3de0ba2ba6918e714da6b45836",
            "formatValue": "0",
            "gasLimit": 500000,
            "gasPrice": "87.1",
            "gasUsed": 82903,
            "intTxnCount": 0,
            "internalRevert": false,
            "internalRevertMessage": "",
            "isContractCreation": false,
            "isFlashloan": false,
            "maxFee": "",
            "nonce": 78326,
            "overwritedBlockNumber": -1,
            "priorityFee": "",
            "receiver": "0x3f2d1ff4930318b5a7c301e1bf7e703dcf6d83e3",
            "revertMessage": "",
            "sender": "0xc7310123914f624da9c376f8ec590055e62733c1",
            "simulationEnable": true,
            "sourceTxnHash": "0xebb579968286391643696b3229a51f41946210f11a408913e036c8088059dc0b",
            "status": true,
            "timestamp": "2020-12-01T06:41:10Z",
            "transactionFee": "0.0072208513",
            "txnHash": "0xebb579968286391643696b3229a51f41946210f11a408913e036c8088059dc0b",
            "txnIndex": 100,
            "type": 0,
            "value": "0"
        },
        "fund_flow": [],
        "token_infos": [
            {
                "address": "0xc02aaa39b223fe8d0a0e5c4f27ead9083c756cc2",
                "decimals": 18
            },
            {
                "address": "0xeeeeeeeeeeeeeeeeeeeeeeeeeeeeeeeeeeeeeeee",
                "decimals": 18
            }
        ]
    },
    "address_label": {
        "labels": [
            {
                "address": "0x0000000000000000000000000000000000000001",
                "label": "Precompiled"
            },
            {
                "address": "0x0000000000000000000000000000000000000002",
                "label": "Precompiled"
            },
            {
                "address": "0x0000000000000000000000000000000000000003",
                "label": "Precompiled"
            },
            {
                "address": "0x0000000000000000000000000000000000000004",
                "label": "Precompiled"
            },
            {
                "address": "0xeeeeeeeeeeeeeeeeeeeeeeeeeeeeeeeeeeeeeeee",
                "label": "Ether"
            },
            {
                "address": "0x3f2d1ff4930318b5a7c301e1bf7e703dcf6d83e3",
                "label": "AccessControlledAggregator"
            }
        ]
    },
    "trace": {
        "accountLabels": null,
        "dataMap": {
            "-1": {
                "invocation": {
                    "address": "0xc7310123914f624da9c376f8ec590055e62733c1",
                    "callData": "",
                    "decodedMethod": null,
                    "errorInfo": "",
                    "fromAddress": "",
                    "gasUsed": 0,
                    "id": -1,
                    "methodDecoded": false,
                    "operation": "",
                    "output": "",
                    "revert": false,
                    "revertMessage": "",
                    "selector": "",
                    "status": false,
                    "value": ""
                },
                "nodeType": 0
            },
            "0": {
                "invocation": {
                    "address": "0x3f2d1ff4930318b5a7c301e1bf7e703dcf6d83e3",
                    "callData": "0x00000000000000000000000000000000000000000000000000000000000006a70000000000000000000000000000000000000000000000000000000211289d22",
                    "decodedMethod": {
                        "callParams": [
                            {
                                "name": "_roundId",
                                "type": "uint256",
                                "value": "1,703"
                            },
                            {
                                "name": "_submission",
                                "type": "int256",
                                "value": "8,877,808,930"
                            }
                        ],
                        "constructorArguments": "",
                        "name": "submit",
                        "returnParams": [],
                        "signature": "submit(uint256,int256)"
                    },
                    "errorInfo": "",
                    "fromAddress": "0xc7310123914f624da9c376f8ec590055e62733c1",
                    "gasUsed": 82903,
                    "id": 0,
                    "methodDecoded": true,
                    "operation": "CALL",
                    "output": "",
                    "revert": false,
                    "revertMessage": "",
                    "selector": "0x202ee0ed",
                    "status": true,
                    "value": "0"
                },
                "nodeType": 0
            },
            "1": {
                "event": {
                    "contract": "0x3f2d1ff4930318b5a7c301e1bf7e703dcf6d83e3",
                    "decodedLog": {
                        "name": "SubmissionReceived",
                        "params": [
                            {
                                "name": "submission",
                                "type": "int256",
                                "value": "8,877,808,930"
                            },
                            {
                                "name": "round",
                                "type": "uint32",
                                "value": "1,703"
                            },
                            {
                                "name": "oracle",
                                "type": "address",
                                "value": "0xc7310123914f624da9c376f8ec590055e62733c1"
                            }
                        ],
                        "signature": "SubmissionReceived(int256,uint32,address)"
                    },
                    "id": 1,
                    "logData": "0x",
                    "logDecoded": true,
                    "operation": "EVENT",
                    "revert": false,
                    "status": true,
                    "topics": [
                        "0x92e98423f8adac6e64d0608e519fd1cefb861498385c6dee70d58fc926ddc68c",
                        "0x0000000000000000000000000000000000000000000000000000000211289d22",
                        "0x00000000000000000000000000000000000000000000000000000000000006a7",
                        "0x000000000000000000000000c7310123914f624da9c376f8ec590055e62733c1"
                    ]
                },
                "nodeType": 1
            },
            "2": {
                "event": {
                    "contract": "0x3f2d1ff4930318b5a7c301e1bf7e703dcf6d83e3",
                    "decodedLog": {
                        "name": "AvailableFundsUpdated",
                        "params": [
                            {
                                "name": "amount",
                                "type": "uint256",
                                "value": "8,812,140,000,000,000,000,000"
                            }
                        ],
                        "signature": "AvailableFundsUpdated(uint256)"
                    },
                    "id": 2,
                    "logData": "0x",
                    "logDecoded": true,
                    "operation": "EVENT",
                    "revert": false,
                    "status": true,
                    "topics": [
                        "0xfe25c73e3b9089fac37d55c4c7efcba6f04af04cebd2fc4d6d7dbb07e1e5234f",
                        "0x0000000000000000000000000000000000000000000001ddb502514802be0000"
                    ]
                },
                "nodeType": 1
            }
        },
        "gasFlame": [
            {
                "children": [
                    {
                        "children": [
                            {
                                "children": [],
                                "depth": 0,
                                "name": "Initial Gas",
                                "value": 21404
                            },
                            {
                                "children": [],
                                "depth": 0,
                                "name": "Executed Gas",
                                "value": 61499
                            }
                        ],
                        "depth": -1,
                        "name": "Actual Gas Used",
                        "value": 82903
                    },
                    {
                        "children": [],
                        "depth": -1,
                        "name": "Refunded Gas",
                        "value": 0
                    }
                ],
                "depth": -2,
                "name": "Total Gas",
                "value": 82903
            }
        ],
        "isConfirmed": true,
        "mainTrace": [
            {
                "children": [
                    {
                        "children": [
                            {
                                "children": [],
                                "depth": 1,
                                "id": 1,
                                "order": 1
                            },
                            {
                                "children": [],
                                "depth": 1,
                                "id": 2,
                                "order": 2
                            }
                        ],
                        "depth": 0,
                        "id": 0,
                        "order": 0
                    }
                ],
                "depth": -1,
                "id": -1,
                "order": -1
            }
        ],
        "mainTraceNodeCount": 3,
        "parentIdMap": {
            "0": -1,
            "1": 0,
            "2": 0
        },
        "tidyTrace": [
            {
                "children": [
                    {
                        "children": [
                            {
                                "children": [],
                                "depth": 1,
                                "id": 1,
                                "order": 1
                            },
                            {
                                "children": [],
                                "depth": 1,
                                "id": 2,
                                "order": 2
                            }
                        ],
                        "depth": 0,
                        "id": 0,
                        "order": 0
                    }
                ],
                "depth": -1,
                "id": -1,
                "order": -1
            }
        ],
        "tidyTraceNodeCount": 3
    },
    "state_change": {
        "stateChanges": [
            {
                "address": "0x3f2d1ff4930318b5a7c301e1bf7e703dcf6d83e3",
                "erc": "",
                "slots": [
                    {
                        "current": "0x0000000000000000000000000000000000000000000000000000000211289d22",
                        "key": "0xb4ab7182637a9603467ba7f24ec756257ca8e9f3a303bb0f8dfe947fc4e08992",
                        "prev": "0x0000000000000000000000000000000000000000000000000000000213caea80"
                    },
                    {
                        "current": "0x00000000000000a18002f4c96cfb000000000000000001ddb502514802be0000",
                        "key": "0x000000000000000000000000000000000000000000000000000000000000000d",
                        "prev": "0x00000000000000a17a0b4a10a790000000000000000001ddbaf9fc00c8290000"
                    },
                    {
                        "current": "0x0000000000000000000000000000000000000000000000000000000000000002",
                        "key": "0x6aa44de77cb8bb84e409d9a0f7d42729d476602481f67b828730d5322baef971",
                        "prev": "0x0000000000000000000000000000000000000000000000000000000000000001"
                    },
                    {
                        "current": "0x0000000000000000000000000000000000000000000000000000000211289d22",
                        "key": "0xe061a47b6bbd3a06701c8b9dfec6841a4c6ff3333d503a17ec1efbae0fa327ca",
                        "prev": "0x0000000000000000000000000000000000000000000000000000000000000000"
                    },
                    {
                        "current": "0x000006a0000006a7ffffffff0000000100000000000000010c89027ab3cf0000",
                        "key": "0xb4ab7182637a9603467ba7f24ec756257ca8e9f3a303bb0f8dfe947fc4e08991",
                        "prev": "0x000006a0000006a6ffffffff000000010000000000000001069157c1ee640000"
                    }
                ],
                "storageVariables": [
                    {
                        "name": "oracles",
                        "type": "mapping(address => struct FluxAggregator.OracleStatus)",
                        "value": {
                            "pairs": [
                                {
                                    "key": "0xc7310123914f624da9c376f8ec590055e62733c1",
                                    "value": {
                                        "fields": [
                                            {
                                                "name": "withdrawable",
                                                "type": "uint128",
                                                "value": {
                                                    "current": "19350000000000000000",
                                                    "prev": "18920000000000000000",
                                                    "typeTag": 1
                                                }
                                            },
                                            {
                                                "name": "startingRound",
                                                "type": "uint32",
                                                "value": {
                                                    "current": "1",
                                                    "prev": "1",
                                                    "typeTag": 1
                                                }
                                            },
                                            {
                                                "name": "endingRound",
                                                "type": "uint32",
                                                "value": {
                                                    "current": "4294967295",
                                                    "prev": "4294967295",
                                                    "typeTag": 1
                                                }
                                            },
                                            {
                                                "name": "lastReportedRound",
                                                "type": "uint32",
                                                "value": {
                                                    "current": "1703",
                                                    "prev": "1702",
                                                    "typeTag": 1
                                                }
                                            },
                                            {
                                                "name": "lastStartedRound",
                                                "type": "uint32",
                                                "value": {
                                                    "current": "1696",
                                                    "prev": "1696",
                                                    "typeTag": 1
                                                }
                                            },
                                            {
                                                "name": "latestSubmission",
                                                "type": "int256",
                                                "value": {
                                                    "current": "8877808930",
                                                    "prev": "8922000000",
                                                    "typeTag": 1
                                                }
                                            }
                                        ],
                                        "typeTag": 3
                                    }
                                }
                            ],
                            "typeTag": 4
                        }
                    },
                    {
                        "name": "recordedFunds",
                        "type": "struct FluxAggregator.Funds",
                        "value": {
                            "fields": [
                                {
                                    "name": "available",
                                    "type": "uint128",
                                    "value": {
                                        "current": "8812140000000000000000",
                                        "prev": "8812570000000000000000",
                                        "typeTag": 1
                                    }
                                },
                                {
                                    "name": "allocated",
                                    "type": "uint128",
                                    "value": {
                                        "current": "2979150000000000000000",
                                        "prev": "2978720000000000000000",
                                        "typeTag": 1
                                    }
                                }
                            ],
                            "typeTag": 3
                        }
                    },
                    {
                        "name": "details",
                        "type": "mapping(uint32 => struct FluxAggregator.RoundDetails)",
                        "value": {
                            "pairs": [
                                {
                                    "key": "1703",
                                    "value": {
                                        "fields": [
                                            {
                                                "name": "submissions",
                                                "type": "int256[]",
                                                "value": {
                                                    "elemType": "int256",
                                                    "elems": [
                                                        {
                                                            "index": 1,
                                                            "value": {
                                                                "current": "8877808930",
                                                                "prev": "0",
                                                                "typeTag": 1
                                                            }
                                                        }
                                                    ],
                                                    "typeTag": 2
                                                }
                                            }
                                        ],
                                        "typeTag": 3
                                    }
                                }
                            ],
                            "typeTag": 4
                        }
                    }
                ]
            }
        ]
    }
}