{
    "balance_change": {
        "balanceChanges": []
    },
    "profile": {
        "basic_info": {
            "baseFee": "",
            "blockNumber": 5926069,
            "callData": "0xb193b51661396f4d564d6535786a73626d5833514432746f63756242726b324a743400000000000000000000000000000000000000000000000000000000000000000001000000000000000000000000000000000000000000000000000000000000000000000000000000000000000000000000000000000000000000000000000001a000000000000000000000000057ad67acf9bf015e4820fbd66ea1a21bed8852ec00000000000000000000000000000000000000000000000000000000000001e00000000000000000000000000000000000000000000000000000000000000220000000000000000000000000000000000000000000000000000000000000026000000000000000000000000000000000000000000000000000000000000002a000000000000000000000000000000000000000000000000000000000000002e00000000000000000000000000000000000000000000000000000000000000320000000000000000000000000000000000000000000000000000000000000036000000000000000000000000000000000000000000000000000000000000003a00000000000000000000000000000000000000000000000000000000000000001000000000000000000000000000000000000000000000000015400a4d3393000000000000000000000000000000000000000000000000000000000000000000100000000000000000000000000000000000000000000003ba1910bf341b00000000000000000000000000000000000000000000000000000000000000000000100000000000000000000000000000000000000000000000000000000005a1d7a00000000000000000000000000000000000000000000000000000000000000013265763862356e587a61734b53695a7630703078455a7966746644376f6400000000000000000000000000000000000000000000000000000000000000000001000000000000000000000000295a0f0f7c663e3d072b5a07625fa31063754acf0000000000000000000000000000000000000000000000000000000000000001000000000000000000000000000000000000000000000000000000000000001b000000000000000000000000000000000000000000000000000000000000000113e2b03ea2c1795217a394bc9cafb7f94110c7ab1520ba313cf172319c45f8290000000000000000000000000000000000000000000000000000000000000001329586498388fa9dc17dbd56db32b55e04a0705a95c63fb2d1cb3c62b5809ab60000000000000000000000000000000000000000000000000000000000000001000000000000000000000000000000000000000000000000015400a4d3393000",
            "debugEnable": true,
            "errorInfo": "execution reverted",
            "eventCount": 0,
            "feeRecipient": "0xea674fdde714fd979de3edf0f56aa9716b898ec8",
            "formatValue": "0",
            "gasLimit": 413319,
            "gasPrice": "15",
            "gasUsed": 63452,
            "intTxnCount": 2,
            "internalRevert": true,
            "internalRevertMessage": "",
            "isContractCreation": false,
            "isFlashloan": false,
            "maxFee": "",
            "nonce": 2323,
            "overwritedBlockNumber": -1,
            "priorityFee": "",
            "receiver": "0xdf34fb7dae1b3fa37efc2c64bd0026da574b8840",
            "revertMessage": "",
            "sender": "0x89cd8ad616942846f460261d4f9f4c3b91d2262f",
            "simulationEnable": true,
            "sourceTxnHash": "0xec5fea68f6d6e6569bba3677edda2332116be6cc49c8f0b0c50112bf710967aa",
            "status": false,
            "timestamp": "2018-07-08T07:16:11Z",
            "transactionFee": "0.00095178",
            "txnHash": "0xec5fea68f6d6e6569bba3677edda2332116be6cc49c8f0b0c50112bf710967aa",
            "txnIndex": 45,
            "type": 0,
            "value": "0"
        },
        "fund_flow": [],
        "token_infos": [
            {
                "address": "0xc02aaa39b223fe8d0a0e5c4f27ead9083c756cc2",
                "decimals": 18
            },
            {
                "address": "0xeeeeeeeeeeeeeeeeeeeeeeeeeeeeeeeeeeeeeeee",
                "decimals": 18
            }
        ]
    },
    "address_label": {
        "labels": [
            {
                "address": "0xeeeeeeeeeeeeeeeeeeeeeeeeeeeeeeeeeeeeeeee",
                "label": "Ether"
            },
            {
                "address": "0x0000000000000000000000000000000000000002",
                "label": "Precompiled"
            },
            {
                "address": "0x0000000000000000000000000000000000000001",
                "label": "Precompiled"
            },
            {
                "address": "0x0000000000000000000000000000000000000003",
                "label": "Precompiled"
            },
            {
                "address": "0x0000000000000000000000000000000000000004",
                "label": "Precompiled"
            }
        ]
    },
    "trace": {
        "accountLabels": null,
        "dataMap": {
            "-1": {
                "invocation": {
                    "address": "0x89cd8ad616942846f460261d4f9f4c3b91d2262f",
                    "callData": "",
                    "decodedMethod": null,
                    "errorInfo": "",
                    "fromAddress": "",
                    "gasUsed": 0,
                    "id": -1,
                    "methodDecoded": false,
                    "operation": "",
                    "output": "",
                    "revert": false,
                    "revertMessage": "",
                    "selector": "",
                    "status": false,
                    "value": ""
                },
                "nodeType": 0
            },
            "0": {
                "invocation": {
                    "address": "0xdf34fb7dae1b3fa37efc2c64bd0026da574b8840",
                    "callData": "0x61396f4d564d6535786a73626d5833514432746f63756242726b324a743400000000000000000000000000000000000000000000000000000000000000000001000000000000000000000000000000000000000000000000000000000000000000000000000000000000000000000000000000000000000000000000000001a000000000000000000000000057ad67acf9bf015e4820fbd66ea1a21bed8852ec00000000000000000000000000000000000000000000000000000000000001e00000000000000000000000000000000000000000000000000000000000000220000000000000000000000000000000000000000000000000000000000000026000000000000000000000000000000000000000000000000000000000000002a000000000000000000000000000000000000000000000000000000000000002e00000000000000000000000000000000000000000000000000000000000000320000000000000000000000000000000000000000000000000000000000000036000000000000000000000000000000000000000000000000000000000000003a00000000000000000000000000000000000000000000000000000000000000001000000000000000000000000000000000000000000000000015400a4d3393000000000000000000000000000000000000000000000000000000000000000000100000000000000000000000000000000000000000000003ba1910bf341b00000000000000000000000000000000000000000000000000000000000000000000100000000000000000000000000000000000000000000000000000000005a1d7a00000000000000000000000000000000000000000000000000000000000000013265763862356e587a61734b53695a7630703078455a7966746644376f6400000000000000000000000000000000000000000000000000000000000000000001000000000000000000000000295a0f0f7c663e3d072b5a07625fa31063754acf0000000000000000000000000000000000000000000000000000000000000001000000000000000000000000000000000000000000000000000000000000001b000000000000000000000000000000000000000000000000000000000000000113e2b03ea2c1795217a394bc9cafb7f94110c7ab1520ba313cf172319c45f8290000000000000000000000000000000000000000000000000000000000000001329586498388fa9dc17dbd56db32b55e04a0705a95c63fb2d1cb3c62b5809ab60000000000000000000000000000000000000000000000000000000000000001000000000000000000000000000000000000000000000000015400a4d3393000",
                    "decodedMethod": null,
                    "errorInfo": "execution reverted",
                    "fromAddress": "0x89cd8ad616942846f460261d4f9f4c3b91d2262f",
                    "gasUsed": 63452,
                    "id": 0,
                    "methodDecoded": false,
                    "operation": "CALL",
                    "output": "",
                    "revert": true,
                    "revertMessage": "",
                    "selector": "0xb193b516",
                    "status": false,
                    "value": "0"
                },
                "nodeType": 0
            },
            "1": {
                "invocation": {
                    "address": "0x0000000000000000000000000000000000000002",
                    "callData": "0xae1b3fa37efc2c64bd0026da574b88400000000000000000000000000000000000000000000000000000000000000000000000000000000000000000015400a4d339300057ad67acf9bf015e4820fbd66ea1a21bed8852ec00000000000000000000000000000000000000000000003ba1910bf341b0000000000000000000000000000000000000000000000000000000000000005a1d7a3265763862356e587a61734b53695a7630703078455a7966746644376f640000",
                    "decodedMethod": {
                        "callParams": [
                            {
                                "name": "data",
                                "type": "bytes",
                                "value": "0xdf34fb7dae1b3fa37efc2c64bd0026da574b88400000000000000000000000000000000000000000000000000000000000000000000000000000000000000000015400a4d339300057ad67acf9bf015e4820fbd66ea1a21bed8852ec00000000000000000000000000000000000000000000003ba1910bf341b0000000000000000000000000000000000000000000000000000000000000005a1d7a3265763862356e587a61734b53695a7630703078455a7966746644376f640000"
                            }
                        ],
                        "constructorArguments": "",
                        "name": "sha256hash",
                        "returnParams": [
                            {
                                "name": "hash",
                                "type": "bytes32",
                                "value": "0xca9c123e82de19f34d2b4034d354df6860d4c228476b73009baa4e676be3897e"
                            }
                        ],
                        "signature": "sha256hash(bytes)"
                    },
                    "errorInfo": "",
                    "fromAddress": "0xdf34fb7dae1b3fa37efc2c64bd0026da574b8840",
                    "gasUsed": 132,
                    "id": 1,
                    "methodDecoded": true,
                    "operation": "CALL",
                    "output": "0xca9c123e82de19f34d2b4034d354df6860d4c228476b73009baa4e676be3897e",
                    "revert": true,
                    "revertMessage": "",
                    "selector": "0xdf34fb7d",
                    "status": true,
                    "value": "0"
                },
                "nodeType": 0
            },
            "2": {
                "invocation": {
                    "address": "0x0000000000000000000000000000000000000001",
                    "callData": "0x79a6fd5075c79d282fbee7b9e5d979c6d81fbe50484cb7d0879e2061000000000000000000000000000000000000000000000000000000000000001b13e2b03ea2c1795217a394bc9cafb7f94110c7ab1520ba313cf172319c45f829329586498388fa9dc17dbd56db32b55e04a0705a95c63fb2d1cb3c62b5809ab6",
                    "decodedMethod": {
                        "callParams": [
                            {
                                "name": "hash",
                                "type": "bytes32",
                                "value": "0xac55ab5179a6fd5075c79d282fbee7b9e5d979c6d81fbe50484cb7d0879e2061"
                            },
                            {
                                "name": "v",
                                "type": "uint256",
                                "value": "27"
                            },
                            {
                                "name": "r",
                                "type": "bytes32",
                                "value": "0x13e2b03ea2c1795217a394bc9cafb7f94110c7ab1520ba313cf172319c45f829"
                            },
                            {
                                "name": "s",
                                "type": "bytes32",
                                "value": "0x329586498388fa9dc17dbd56db32b55e04a0705a95c63fb2d1cb3c62b5809ab6"
                            }
                        ],
                        "constructorArguments": "",
                        "name": "ecrecover",
                        "returnParams": [
                            {
                                "name": "",
                                "type": "address",
                                "value": "0x295a0f0f7c663e3d072b5a07625fa31063754acf"
                            }
                        ],
                        "signature": "ecrecover(bytes32,uint256,bytes32,bytes32)"
                    },
                    "errorInfo": "",
                    "fromAddress": "0xdf34fb7dae1b3fa37efc2c64bd0026da574b8840",
                    "gasUsed": 3000,
                    "id": 2,
                    "methodDecoded": true,
                    "operation": "CALL",
                    "output": "0x000000000000000000000000295a0f0f7c663e3d072b5a07625fa31063754acf",
                    "revert": true,
                    "revertMessage": "",
                    "selector": "0xac55ab51",
                    "status": true,
                    "value": "0"
                },
                "nodeType": 0
            }
        },
        "gasFlame": [
            {
                "children": [
                    {
                        "children": [
                            {
                                "children": [],
                                "depth": 0,
                                "name": "Initial Gas",
                                "value": 39000
                            },
                            {
                                "children": [
                                    {
                                        "children": [],
                                        "depth": 1,
                                        "name": "sha256hash",
                                        "value": 132
                                    },
                                    {
                                        "children": [],
                                        "depth": 1,
                                        "name": "ecrecover",
                                        "value": 3000
                                    }
                                ],
                                "depth": 0,
                                "name": "Executed Gas",
                                "value": 24452
                            }
                        ],
                        "depth": -1,
                        "name": "Actual Gas Used",
                        "value": 63452
                    },
                    {
                        "children": [],
                        "depth": -1,
                        "name": "Refunded Gas",
                        "value": 0
                    }
                ],
                "depth": -2,
                "name": "Total Gas",
                "value": 63452
            }
        ],
        "isConfirmed": true,
        "mainTrace": [
            {
                "children": [
                    {
                        "children": [
                            {
                                "children": [],
                                "depth": 1,
                                "id": 1,
                                "order": 1
                            },
                            {
                                "children": [],
                                "depth": 1,
                                "id": 2,
                                "order": 2
                            }
                        ],
                        "depth": 0,
                        "id": 0,
                        "order": 0
                    }
                ],
                "depth": -1,
                "id": -1,
                "order": -1
            }
        ],
        "mainTraceNodeCount": 3,
        "parentIdMap": {
            "0": -1,
            "1": 0,
            "2": 0
        },
        "tidyTrace": [
            {
                "children": [
                    {
                        "children": [
                            {
                                "children": [],
                                "depth": 1,
                                "id": 1,
                                "order": 1
                            },
                            {
                                "children": [],
                                "depth": 1,
                                "id": 2,
                                "order": 2
                            }
                        ],
                        "depth": 0,
                        "id": 0,
                        "order": 0
                    }
                ],
                "depth": -1,
                "id": -1,
                "order": -1
            }
        ],
        "tidyTraceNodeCount": 3
    },
    "state_change": {
        "stateChanges": []
    }
}